{
    "balance_change": {
        "balanceChanges": []
    },
    "profile": {
        "basic_info": {
            "baseFee": "",
            "blockNumber": 7201165,
            "callData": "0xb15a36470000000000000000000000000000000000000000000000000119ca65afdff650b88719dfdb9fcc2f3ef49388b391f49137f6d11fb46e01f1ec262ff42fda320c0000000000000000000000000000000000000000000000000b1a2bc2ec500000005c5faf94a1c658bc87350041d3deae4e9cab7de5755992e957f6e775d773eabb26cf114c31aee236c0dd9cff4e413bd812b0afe9821a8c8c984b7cef412001173966112a491bce415f6ea828757a19fecab6e9f6c20f77bbb87a7750e9b0d9000000000000000000000000000000000000000000000000000000000000001b",
            "debugEnable": true,
            "errorInfo": "",
            "eventCount": 3,
            "feeRecipient": "0xea674fdde714fd979de3edf0f56aa9716b898ec8",
            "formatValue": "0",
            "gasLimit": 200000,
            "gasPrice": "8",
            "gasUsed": 144093,
            "intTxnCount": 1,
            "internalRevert": false,
            "internalRevertMessage": "",
            "isContractCreation": false,
            "isFlashloan": false,
            "maxFee": "",
            "nonce": 2552,
            "overwritedBlockNumber": -1,
            "priorityFee": "",
            "receiver": "0x37304b0ab297f13f5520c523102797121182fb5b",
            "revertMessage": "",
            "sender": "0x8a00a0aca7ed024c6ebbb9a7046fc691145d7ff8",
            "simulationEnable": true,
            "sourceTxnHash": "0x8efcf117e4dc78d01fbea0f50577fe0ed8d4361717725d6de12d45a944b12d3c",
            "status": true,
            "timestamp": "2019-02-10T04:50:34Z",
            "transactionFee": "0.001152744",
            "txnHash": "0x8efcf117e4dc78d01fbea0f50577fe0ed8d4361717725d6de12d45a944b12d3c",
            "txnIndex": 15,
            "type": 0,
            "value": "0"
        },
        "fund_flow": [],
        "token_infos": [
            {
                "address": "0xeeeeeeeeeeeeeeeeeeeeeeeeeeeeeeeeeeeeeeee",
                "decimals": 18
            },
            {
                "address": "0xc02aaa39b223fe8d0a0e5c4f27ead9083c756cc2",
                "decimals": 18
            }
        ]
    },
    "address_label": {
        "labels": [
            {
                "address": "0xeeeeeeeeeeeeeeeeeeeeeeeeeeeeeeeeeeeeeeee",
                "label": "Ether"
            },
            {
                "address": "0x37304b0ab297f13f5520c523102797121182fb5b",
                "label": "SportCrypt"
            },
            {
                "address": "0x0000000000000000000000000000000000000001",
                "label": "Precompiled"
            },
            {
                "address": "0x0000000000000000000000000000000000000002",
                "label": "Precompiled"
            },
            {
                "address": "0x0000000000000000000000000000000000000003",
                "label": "Precompiled"
            },
            {
                "address": "0x0000000000000000000000000000000000000004",
                "label": "Precompiled"
            }
        ]
    },
    "trace": {
        "accountLabels": null,
        "dataMap": {
            "-1": {
                "invocation": {
                    "address": "0x8a00a0aca7ed024c6ebbb9a7046fc691145d7ff8",
                    "callData": "",
                    "decodedMethod": null,
                    "errorInfo": "",
                    "fromAddress": "",
                    "gasUsed": 0,
                    "id": -1,
                    "methodDecoded": false,
                    "operation": "",
                    "output": "",
                    "revert": false,
                    "revertMessage": "",
                    "selector": "",
                    "status": false,
                    "value": ""
                },
                "nodeType": 0
            },
            "0": {
                "invocation": {
                    "address": "0x37304b0ab297f13f5520c523102797121182fb5b",
                    "callData": "0x0000000000000000000000000000000000000000000000000119ca65afdff650b88719dfdb9fcc2f3ef49388b391f49137f6d11fb46e01f1ec262ff42fda320c0000000000000000000000000000000000000000000000000b1a2bc2ec500000005c5faf94a1c658bc87350041d3deae4e9cab7de5755992e957f6e775d773eabb26cf114c31aee236c0dd9cff4e413bd812b0afe9821a8c8c984b7cef412001173966112a491bce415f6ea828757a19fecab6e9f6c20f77bbb87a7750e9b0d9000000000000000000000000000000000000000000000000000000000000001b",
                    "decodedMethod": {
                        "callParams": [
                            {
                                "name": "amount",
                                "type": "uint256",
                                "value": "79,317,006,546,892,368"
                            },
                            {
                                "name": "order",
                                "type": "uint256[3]",
                                "value": [
                                    "83,464,267,071,922,002,677,368,764,274,001,733,175,435,096,766,083,515,978,532,644,835,576,063,341,068",
                                    "800,000,000,000,000,000",
                                    "163,210,329,505,992,669,362,488,755,274,649,366,591,031,477,986,479,305,364,281,566,107,998,319,594"
                                ]
                            },
                            {
                                "name": "r",
                                "type": "bytes32",
                                "value": "0xbb26cf114c31aee236c0dd9cff4e413bd812b0afe9821a8c8c984b7cef412001"
                            },
                            {
                                "name": "s",
                                "type": "bytes32",
                                "value": "0x173966112a491bce415f6ea828757a19fecab6e9f6c20f77bbb87a7750e9b0d9"
                            },
                            {
                                "name": "v",
                                "type": "uint8",
                                "value": "27"
                            }
                        ],
                        "constructorArguments": "",
                        "name": "trade",
                        "returnParams": [],
                        "signature": "trade(uint256,uint256[3],bytes32,bytes32,uint8)"
                    },
                    "errorInfo": "",
                    "fromAddress": "0x8a00a0aca7ed024c6ebbb9a7046fc691145d7ff8",
                    "gasUsed": 144093,
                    "id": 0,
                    "methodDecoded": true,
                    "operation": "CALL",
                    "output": "",
                    "revert": false,
                    "revertMessage": "",
                    "selector": "0xb15a3647",
                    "status": true,
                    "value": "0"
                },
                "nodeType": 0
            },
            "1": {
                "invocation": {
                    "address": "0x0000000000000000000000000000000000000001",
                    "callData": "0x2351099b723ca34e40c94731d3e29dfbda74a8acc2cf0cac3df769da000000000000000000000000000000000000000000000000000000000000001bbb26cf114c31aee236c0dd9cff4e413bd812b0afe9821a8c8c984b7cef412001173966112a491bce415f6ea828757a19fecab6e9f6c20f77bbb87a7750e9b0d9",
                    "decodedMethod": {
                        "callParams": [
                            {
                                "name": "hash",
                                "type": "bytes32",
                                "value": "0xb97dd69f2351099b723ca34e40c94731d3e29dfbda74a8acc2cf0cac3df769da"
                            },
                            {
                                "name": "v",
                                "type": "uint256",
                                "value": "27"
                            },
                            {
                                "name": "r",
                                "type": "bytes32",
                                "value": "0xbb26cf114c31aee236c0dd9cff4e413bd812b0afe9821a8c8c984b7cef412001"
                            },
                            {
                                "name": "s",
                                "type": "bytes32",
                                "value": "0x173966112a491bce415f6ea828757a19fecab6e9f6c20f77bbb87a7750e9b0d9"
                            }
                        ],
                        "constructorArguments": "",
                        "name": "ecrecover",
                        "returnParams": [
                            {
                                "name": "",
                                "type": "address",
                                "value": "0x41d3deae4e9cab7de5755992e957f6e775d773ea"
                            }
                        ],
                        "signature": "ecrecover(bytes32,uint256,bytes32,bytes32)"
                    },
                    "errorInfo": "",
                    "fromAddress": "0x37304b0ab297f13f5520c523102797121182fb5b",
                    "gasUsed": 3000,
                    "id": 1,
                    "methodDecoded": true,
                    "operation": "CALL",
                    "output": "0x00000000000000000000000041d3deae4e9cab7de5755992e957f6e775d773ea",
                    "revert": false,
                    "revertMessage": "",
                    "selector": "0xb97dd69f",
                    "status": true,
                    "value": "0"
                },
                "nodeType": 0
            },
            "2": {
                "event": {
                    "contract": "0x37304b0ab297f13f5520c523102797121182fb5b",
                    "decodedLog": {
                        "name": "LogBalanceChange",
                        "params": [
                            {
                                "name": "account",
                                "type": "address",
                                "value": "0x8a00a0aca7ed024c6ebbb9a7046fc691145d7ff8"
                            },
                            {
                                "name": "oldAmount",
                                "type": "uint256",
                                "value": "4,035,823,465,654,174,979"
                            },
                            {
                                "name": "newAmount",
                                "type": "uint256",
                                "value": "3,956,506,459,107,282,612"
                            }
                        ],
                        "signature": "LogBalanceChange(address,uint256,uint256)"
                    },
                    "id": 2,
                    "logData": "0x0000000000000000000000000000000000000000000000003802200f2e80c50300000000000000000000000000000000000000000000000036e855a97ea0ceb4",
                    "logDecoded": true,
                    "operation": "EVENT",
                    "revert": false,
                    "status": true,
                    "topics": [
                        "0xd0a6f018d0e9629a13bfeb9c60fd1bd8422531c157615dd2b75f0416f9255d98",
                        "0x0000000000000000000000008a00a0aca7ed024c6ebbb9a7046fc691145d7ff8"
                    ]
                },
                "nodeType": 1
            },
            "3": {
                "event": {
                    "contract": "0x37304b0ab297f13f5520c523102797121182fb5b",
                    "decodedLog": {
                        "name": "LogBalanceChange",
                        "params": [
                            {
                                "name": "account",
                                "type": "address",
                                "value": "0x41d3deae4e9cab7de5755992e957f6e775d773ea"
                            },
                            {
                                "name": "oldAmount",
                                "type": "uint256",
                                "value": "4,711,930,785,172,677,296"
                            },
                            {
                                "name": "newAmount",
                                "type": "uint256",
                                "value": "4,641,593,062,385,810,480"
                            }
                        ],
                        "signature": "LogBalanceChange(address,uint256,uint256)"
                    },
                    "id": 3,
                    "logData": "0x000000000000000000000000000000000000000000000000416424159071e2b0000000000000000000000000000000000000000000000000406a404c4b6c7c30",
                    "logDecoded": true,
                    "operation": "EVENT",
                    "revert": false,
                    "status": true,
                    "topics": [
                        "0xd0a6f018d0e9629a13bfeb9c60fd1bd8422531c157615dd2b75f0416f9255d98",
                        "0x00000000000000000000000041d3deae4e9cab7de5755992e957f6e775d773ea"
                    ]
                },
                "nodeType": 1
            },
            "4": {
                "event": {
                    "contract": "0x37304b0ab297f13f5520c523102797121182fb5b",
                    "decodedLog": {
                        "name": "LogTrade",
                        "params": [
                            {
                                "name": "takerAccount",
                                "type": "address",
                                "value": "0x8a00a0aca7ed024c6ebbb9a7046fc691145d7ff8"
                            },
                            {
                                "name": "makerAccount",
                                "type": "address",
                                "value": "0x41d3deae4e9cab7de5755992e957f6e775d773ea"
                            },
                            {
                                "name": "matchId",
                                "type": "uint256",
                                "value": "83,464,267,071,922,002,677,368,764,274,001,733,175,435,096,766,083,515,978,532,644,835,576,063,341,068"
                            },
                            {
                                "name": "orderHash",
                                "type": "uint256",
                                "value": "60,189,725,621,298,412,781,231,717,410,343,754,523,914,607,048,229,998,096,317,633,229,212,340,067,287"
                            },
                            {
                                "name": "orderDirection",
                                "type": "uint8",
                                "value": "0"
                            },
                            {
                                "name": "price",
                                "type": "uint8",
                                "value": "53"
                            },
                            {
                                "name": "longAmount",
                                "type": "uint256",
                                "value": "79,317,006,546,892,368"
                            },
                            {
                                "name": "newLongPosition",
                                "type": "int256",
                                "value": "149,654,729,333,759,183"
                            },
                            {
                                "name": "shortAmount",
                                "type": "uint256",
                                "value": "70,337,722,786,866,816"
                            },
                            {
                                "name": "newShortPosition",
                                "type": "int256",
                                "value": "-149,654,729,333,759,183"
                            }
                        ],
                        "signature": "LogTrade(address,address,uint256,uint256,uint8,uint8,uint256,int256,uint256,int256)"
                    },
                    "id": 4,
                    "logData": "0x85122d6cd3bbbe3d1ed1168cc1ebd31899f25243bf301e0ab793b16607c21bd7000000000000000000000000000000000000000000000000000000000000000000000000000000000000000000000000000000000000000000000000000000350000000000000000000000000000000000000000000000000119ca65afdff6500000000000000000000000000000000000000000000000000213ae2ef4e55ccf00000000000000000000000000000000000000000000000000f9e3c945056680fffffffffffffffffffffffffffffffffffffffffffffffffdec51d10b1aa331",
                    "logDecoded": true,
                    "operation": "EVENT",
                    "revert": false,
                    "status": true,
                    "topics": [
                        "0xd5db3fe23370479a78dc47612ce8be2c8c0ae30d3f255129af35fe3f852b9656",
                        "0x0000000000000000000000008a00a0aca7ed024c6ebbb9a7046fc691145d7ff8",
                        "0x00000000000000000000000041d3deae4e9cab7de5755992e957f6e775d773ea",
                        "0xb88719dfdb9fcc2f3ef49388b391f49137f6d11fb46e01f1ec262ff42fda320c"
                    ]
                },
                "nodeType": 1
            }
        },
        "gasFlame": [
            {
                "children": [
                    {
                        "children": [
                            {
                                "children": [],
                                "depth": 0,
                                "name": "Initial Gas",
                                "value": 31192
                            },
                            {
                                "children": [
                                    {
                                        "children": [],
                                        "depth": 1,
                                        "name": "ecrecover",
                                        "value": 3000
                                    }
                                ],
                                "depth": 0,
                                "name": "Executed Gas",
                                "value": 112901
                            }
                        ],
                        "depth": -1,
                        "name": "Actual Gas Used",
                        "value": 144093
                    },
                    {
                        "children": [],
                        "depth": -1,
                        "name": "Refunded Gas",
                        "value": 0
                    }
                ],
                "depth": -2,
                "name": "Total Gas",
                "value": 144093
            }
        ],
        "isConfirmed": true,
        "mainTrace": [
            {
                "children": [
                    {
                        "children": [
                            {
                                "children": [],
                                "depth": 1,
                                "id": 1,
                                "order": 1
                            },
                            {
                                "children": [],
                                "depth": 1,
                                "id": 2,
                                "order": 2
                            },
                            {
                                "children": [],
                                "depth": 1,
                                "id": 3,
                                "order": 3
                            },
                            {
                                "children": [],
                                "depth": 1,
                                "id": 4,
                                "order": 4
                            }
                        ],
                        "depth": 0,
                        "id": 0,
                        "order": 0
                    }
                ],
                "depth": -1,
                "id": -1,
                "order": -1
            }
        ],
        "mainTraceNodeCount": 5,
        "parentIdMap": {
            "0": -1,
            "1": 0,
            "2": 0,
            "3": 0,
            "4": 0
        },
        "tidyTrace": [
            {
                "children": [
                    {
                        "children": [
                            {
                                "children": [],
                                "depth": 1,
                                "id": 1,
                                "order": 1
                            },
                            {
                                "children": [],
                                "depth": 1,
                                "id": 2,
                                "order": 2
                            },
                            {
                                "children": [],
                                "depth": 1,
                                "id": 3,
                                "order": 3
                            },
                            {
                                "children": [],
                                "depth": 1,
                                "id": 4,
                                "order": 4
                            }
                        ],
                        "depth": 0,
                        "id": 0,
                        "order": 0
                    }
                ],
                "depth": -1,
                "id": -1,
                "order": -1
            }
        ],
        "tidyTraceNodeCount": 5
    },
    "state_change": {
        "stateChanges": [
            {
                "address": "0x37304b0ab297f13f5520c523102797121182fb5b",
                "erc": "",
                "slots": [
                    {
                        "current": "0x00000000000000000000000000000000000000000000000036e855a97ea0ceb4",
                        "key": "0xe6cd9089756301ef6bd54f5825f102dc0b848f28f70bd80a0e8c5bf54c064053",
                        "prev": "0x0000000000000000000000000000000000000000000000003802200f2e80c503"
                    },
                    {
                        "current": "0x000000000000000000000000000000000000000000000000406a404c4b6c7c30",
                        "key": "0x901ec0fa9a286941561af47c971387208c31ac3321880cf30ab263365eb7e724",
                        "prev": "0x000000000000000000000000000000000000000000000000416424159071e2b0"
                    },
                    {
                        "current": "0x00000000000000000000000000000000000000000000000000f9e3c945056680",
                        "key": "0x71820d7c88a3b71478cf42142404880aa8f8bfa1ea2261df33fde9b34d7ae582",
                        "prev": "0x0000000000000000000000000000000000000000000000000000000000000000"
                    },
                    {
                        "current": "0x000000000000000000000000000000000000000000000000000000005c5fad9a",
                        "key": "0xef52f0e60f6de72733ba5fd17385e3aaad9b96cc58ec1bb549f2cbd4ee706fff",
                        "prev": "0x0000000000000000000000000000000000000000000000000000000000000000"
                    },
                    {
                        "current": "0x0000000000000000000000000000000000000000000000000213ae2ef4e55ccf",
                        "key": "0x31a2547546e2087e2f65673b3f4fe11e2d81661725ae7c4c0284b3a386f9f9cc",
                        "prev": "0x0000000000000000000000000000000000000000000000000000000000000000"
                    },
                    {
                        "current": "0xfffffffffffffffffffffffffffffffffffffffffffffffffdec51d10b1aa331",
                        "key": "0xd8c71b0c34fec420c45dd7ac5a841f387053b49cc48ff2dc363307084c48b2d6",
                        "prev": "0x0000000000000000000000000000000000000000000000000000000000000000"
                    }
                ],
                "storageVariables": [
                    {
                        "name": "balances",
                        "type": "mapping(address => uint256)",
                        "value": {
                            "pairs": [
                                {
                                    "key": "0x41d3deae4e9cab7de5755992e957f6e775d773ea",
                                    "value": {
                                        "current": "4641593062385810480",
                                        "prev": "4711930785172677296",
                                        "typeTag": 1
                                    }
                                },
                                {
                                    "key": "0x8a00a0aca7ed024c6ebbb9a7046fc691145d7ff8",
                                    "value": {
                                        "current": "3956506459107282612",
                                        "prev": "4035823465654174979",
                                        "typeTag": 1
                                    }
                                }
                            ],
                            "typeTag": 4
                        }
                    },
                    {
                        "name": "filledAmounts",
                        "type": "mapping(uint256 => uint256)",
                        "value": {
                            "pairs": [
                                {
                                    "key": "60189725621298412781231717410343754523914607048229998096317633229212340067287",
                                    "value": {
                                        "current": "70337722786866816",
                                        "prev": "0",
                                        "typeTag": 1
                                    }
                                }
                            ],
                            "typeTag": 4
                        }
                    },
                    {
                        "name": "matches",
                        "type": "mapping(uint256 => struct SportCrypt.Match)",
                        "value": {
                            "pairs": [
                                {
                                    "key": "83464267071922002677368764274001733175435096766083515978532644835576063341068",
                                    "value": {
                                        "fields": [
                                            {
                                                "name": "positions",
                                                "type": "mapping(address => int256)",
                                                "value": {
                                                    "pairs": [
                                                        {
                                                            "key": "0x41d3deae4e9cab7de5755992e957f6e775d773ea",
                                                            "value": {
                                                                "current": "-149654729333759183",
                                                                "prev": "0",
                                                                "typeTag": 1
                                                            }
                                                        },
                                                        {
                                                            "key": "0x8a00a0aca7ed024c6ebbb9a7046fc691145d7ff8",
                                                            "value": {
                                                                "current": "149654729333759183",
                                                                "prev": "0",
                                                                "typeTag": 1
                                                            }
                                                        }
                                                    ],
                                                    "typeTag": 4
                                                }
                                            },
                                            {
                                                "name": "firstTradeTimestamp",
                                                "type": "uint64",
                                                "value": {
                                                    "current": "1549774234",
                                                    "prev": "0",
                                                    "typeTag": 1
                                                }
                                            },
                                            {
                                                "name": "finalized",
                                                "type": "bool",
                                                "value": {
                                                    "current": "false",
                                                    "prev": "false",
                                                    "typeTag": 1
                                                }
                                            },
                                            {
                                                "name": "finalPrice",
                                                "type": "uint8",
                                                "value": {
                                                    "current": "0",
                                                    "prev": "0",
                                                    "typeTag": 1
                                                }
                                            }
                                        ],
                                        "typeTag": 3
                                    }
                                }
                            ],
                            "typeTag": 4
                        }
                    }
                ]
            }
        ]
    }
}