{
    "balance_change": {
        "balanceChanges": [
            {
                "account": "0x9a83a2e1c5823b2490e14d257c6ffa929edff369",
                "assets": [
                    {
                        "address": "0xb97048628db6b661d4c2aa833e95dbe1a905b280",
                        "amount": "10",
                        "iconUrl": "https://assets.blocksec.com/icon/ec0f7e099dbc22739675b174de8dd7bf62eb35591e0101ef6568a7a50510095f.png",
                        "isERC1155": false,
                        "isERC721": false,
                        "sign": false,
                        "value": ""
                    }
                ]
            },
            {
                "account": "0xe72a3e1f27765495161f5a2757a12bd26d092cf4",
                "assets": [
                    {
                        "address": "0xb97048628db6b661d4c2aa833e95dbe1a905b280",
                        "amount": "10",
                        "iconUrl": "https://assets.blocksec.com/icon/ec0f7e099dbc22739675b174de8dd7bf62eb35591e0101ef6568a7a50510095f.png",
                        "isERC1155": false,
                        "isERC721": false,
                        "sign": true,
                        "value": ""
                    }
                ]
            }
        ]
    },
    "profile": {
        "basic_info": {
            "baseFee": "",
            "blockNumber": 4956204,
            "callData": "0xa9059cbb000000000000000000000000e72a3e1f27765495161f5a2757a12bd26d092cf40000000000000000000000000000000000000000000000008ac7230489e80000",
            "debugEnable": true,
            "errorInfo": "",
            "eventCount": 1,
            "feeRecipient": "0x5a0b54d5dc17e0aadc383d2db43b0a0d3e029c4c",
            "formatValue": "0",
            "gasLimit": 150000,
            "gasPrice": "1",
            "gasUsed": 22001,
            "intTxnCount": 0,
            "internalRevert": false,
            "internalRevertMessage": "",
            "isContractCreation": false,
            "isFlashloan": false,
            "maxFee": "",
            "nonce": 1,
            "overwritedBlockNumber": -1,
            "priorityFee": "",
            "receiver": "0xb97048628db6b661d4c2aa833e95dbe1a905b280",
            "revertMessage": "",
            "sender": "0x9a83a2e1c5823b2490e14d257c6ffa929edff369",
            "simulationEnable": true,
            "sourceTxnHash": "0x8eadfb6348531ab7d35c3397b49244c86eaa3a398228775bb0b4d585fa44a987",
            "status": true,
            "timestamp": "2018-01-23T04:44:17Z",
            "transactionFee": "0.000022001",
            "txnHash": "0x8eadfb6348531ab7d35c3397b49244c86eaa3a398228775bb0b4d585fa44a987",
            "txnIndex": 60,
            "type": 0,
            "value": "0"
        },
        "fund_flow": [
            {
                "amount": "10",
                "from": "0x9a83a2e1c5823b2490e14d257c6ffa929edff369",
                "id": 1,
                "isERC1155": false,
                "isERC721": false,
                "isReverted": false,
                "order": 1,
                "to": "0xe72a3e1f27765495161f5a2757a12bd26d092cf4",
                "token": "0xb97048628db6b661d4c2aa833e95dbe1a905b280"
            }
        ],
        "token_infos": [
            {
                "address": "0xb97048628db6b661d4c2aa833e95dbe1a905b280",
                "decimals": 18
            },
            {
                "address": "0xc02aaa39b223fe8d0a0e5c4f27ead9083c756cc2",
                "decimals": 18
            },
            {
                "address": "0xeeeeeeeeeeeeeeeeeeeeeeeeeeeeeeeeeeeeeeee",
                "decimals": 18
            }
        ]
    },
    "address_label": {
        "labels": [
            {
                "address": "0xeeeeeeeeeeeeeeeeeeeeeeeeeeeeeeeeeeeeeeee",
                "label": "Ether"
            },
            {
                "address": "0xb97048628db6b661d4c2aa833e95dbe1a905b280",
                "label": "TenX Token"
            },
            {
                "address": "0x9a83a2e1c5823b2490e14d257c6ffa929edff369",
                "label": "LIQUI.IO"
            },
            {
                "address": "0xe72a3e1f27765495161f5a2757a12bd26d092cf4",
                "label": "Liqui.io 3"
            },
            {
                "address": "0x0000000000000000000000000000000000000001",
                "label": "Precompiled"
            },
            {
                "address": "0x0000000000000000000000000000000000000002",
                "label": "Precompiled"
            },
            {
                "address": "0x0000000000000000000000000000000000000003",
                "label": "Precompiled"
            },
            {
                "address": "0x0000000000000000000000000000000000000004",
                "label": "Precompiled"
            }
        ]
    },
    "trace": {
        "accountLabels": null,
        "dataMap": {
            "-1": {
                "invocation": {
                    "address": "0x9a83a2e1c5823b2490e14d257c6ffa929edff369",
                    "callData": "",
                    "decodedMethod": null,
                    "errorInfo": "",
                    "fromAddress": "",
                    "gasUsed": 0,
                    "id": -1,
                    "methodDecoded": false,
                    "operation": "",
                    "output": "",
                    "revert": false,
                    "revertMessage": "",
                    "selector": "",
                    "status": false,
                    "value": ""
                },
                "nodeType": 0
            },
            "0": {
                "invocation": {
                    "address": "0xb97048628db6b661d4c2aa833e95dbe1a905b280",
                    "callData": "0x000000000000000000000000e72a3e1f27765495161f5a2757a12bd26d092cf40000000000000000000000000000000000000000000000008ac7230489e80000",
                    "decodedMethod": {
                        "callParams": [
                            {
                                "name": "_to",
                                "type": "address",
                                "value": "0xe72a3e1f27765495161f5a2757a12bd26d092cf4"
                            },
                            {
                                "decimalAvailable": true,
                                "name": "_value",
                                "type": "uint256",
                                "value": "10,000,000,000,000,000,000"
                            }
                        ],
                        "constructorArguments": "",
                        "name": "transfer",
                        "returnParams": [],
                        "signature": "transfer(address,uint256)"
                    },
                    "errorInfo": "",
                    "fromAddress": "0x9a83a2e1c5823b2490e14d257c6ffa929edff369",
                    "gasUsed": 22001,
                    "id": 0,
                    "methodDecoded": true,
                    "operation": "CALL",
                    "output": "",
                    "revert": false,
                    "revertMessage": "",
                    "selector": "0xa9059cbb",
                    "status": true,
                    "value": "0"
                },
                "nodeType": 0
            },
            "1": {
                "event": {
                    "contract": "0xb97048628db6b661d4c2aa833e95dbe1a905b280",
                    "decodedLog": {
                        "name": "Transfer",
                        "params": [
                            {
                                "name": "from",
                                "type": "address",
                                "value": "0x9a83a2e1c5823b2490e14d257c6ffa929edff369"
                            },
                            {
                                "name": "to",
                                "type": "address",
                                "value": "0xe72a3e1f27765495161f5a2757a12bd26d092cf4"
                            },
                            {
                                "decimalAvailable": true,
                                "name": "value",
                                "type": "uint256",
                                "value": "10,000,000,000,000,000,000"
                            }
                        ],
                        "signature": "Transfer(address,address,uint256)"
                    },
                    "id": 1,
                    "logData": "0x0000000000000000000000000000000000000000000000008ac7230489e80000",
                    "logDecoded": true,
                    "operation": "EVENT",
                    "revert": false,
                    "status": true,
                    "topics": [
                        "0xddf252ad1be2c89b69c2b068fc378daa952ba7f163c4a11628f55a4df523b3ef",
                        "0x0000000000000000000000009a83a2e1c5823b2490e14d257c6ffa929edff369",
                        "0x000000000000000000000000e72a3e1f27765495161f5a2757a12bd26d092cf4"
                    ]
                },
                "nodeType": 1
            }
        },
        "gasFlame": [
            {
                "children": [
                    {
                        "children": [
                            {
                                "children": [],
                                "depth": 0,
                                "name": "Initial Gas",
                                "value": 23192
                            },
                            {
                                "children": [],
                                "depth": 0,
                                "name": "Executed Gas",
                                "value": 13809
                            }
                        ],
                        "depth": -1,
                        "name": "Actual Gas Used",
                        "value": 22001
                    },
                    {
                        "children": [],
                        "depth": -1,
                        "name": "Refunded Gas",
                        "value": 15000
                    }
                ],
                "depth": -2,
                "name": "Total Gas",
                "value": 37001
            }
        ],
        "isConfirmed": true,
        "mainTrace": [
            {
                "children": [
                    {
                        "children": [
                            {
                                "children": [],
                                "depth": 1,
                                "id": 1,
                                "order": 1
                            }
                        ],
                        "depth": 0,
                        "id": 0,
                        "order": 0
                    }
                ],
                "depth": -1,
                "id": -1,
                "order": -1
            }
        ],
        "mainTraceNodeCount": 2,
        "parentIdMap": {
            "0": -1,
            "1": 0
        },
        "tidyTrace": [
            {
                "children": [
                    {
                        "children": [
                            {
                                "children": [],
                                "depth": 1,
                                "id": 1,
                                "order": 1
                            }
                        ],
                        "depth": 0,
                        "id": 0,
                        "order": 0
                    }
                ],
                "depth": -1,
                "id": -1,
                "order": -1
            }
        ],
        "tidyTraceNodeCount": 2
    },
    "state_change": {
        "stateChanges": [
            {
                "address": "0xb97048628db6b661d4c2aa833e95dbe1a905b280",
                "erc": "ERC-20",
                "slots": [
                    {
                        "current": "0x0000000000000000000000000000000000000000000000000000000000000000",
                        "key": "0x3d1e2aba421a8d7db84791b14adb139b3ed788922557339fff50607c8294dae9",
                        "prev": "0x0000000000000000000000000000000000000000000000008ac7230489e80000"
                    },
                    {
                        "current": "0x00000000000000000000000000000000000000000000019c4a3ab8674f1a0a40",
                        "key": "0x93258142b69d810598828dae2be310a0ddb2292f166daf5dbfc9eea2ca053759",
                        "prev": "0x00000000000000000000000000000000000000000000019bbf739562c5320a40"
                    }
                ],
                "storageVariables": []
            }
        ]
    }
}