{
    "balance_change": {
        "balanceChanges": [
            {
                "account": "0x9a7552f3e23659626e57180359c84180947b7ad8",
                "assets": [
                    {
                        "address": "0xeeeeeeeeeeeeeeeeeeeeeeeeeeeeeeeeeeeeeeee",
                        "amount": "0.12769511135336648",
                        "iconUrl": "https://assets.blocksec.com/image/1663669189317-3.png",
                        "isERC1155": false,
                        "isERC721": false,
                        "sign": false,
                        "value": "172.24921271857401045"
                    },
                    {
                        "address": "0x2d5c73f3597b07f23c2bb3f2422932e67eca4543",
                        "amount": "402,752,466.064363637716267269",
                        "iconUrl": "",
                        "isERC1155": false,
                        "isERC721": false,
                        "sign": true,
                        "value": "167.8648079"
                    }
                ]
            },
            {
                "account": "0x96c195f6643a3d797cb90cb6ba0ae2776d51b5f3",
                "assets": [
                    {
                        "address": "0xeeeeeeeeeeeeeeeeeeeeeeeeeeeeeeeeeeeeeeee",
                        "amount": "0.000383085334060099",
                        "iconUrl": "https://assets.blocksec.com/image/1663669189317-3.png",
                        "isERC1155": false,
                        "isERC721": false,
                        "sign": true,
                        "value": "0.51674763802083103137"
                    }
                ]
            },
            {
                "account": "0xa7abacaa6dd8d42c9948765da330d8812666a2e3",
                "assets": [
                    {
                        "address": "0xc02aaa39b223fe8d0a0e5c4f27ead9083c756cc2",
                        "amount": "0.127312026019306381",
                        "iconUrl": "https://assets.blocksec.com/icon/f1cb2d02c471d545bbc7722daf3277fd852d98e63d118771af7047bd8256c516.png",
                        "isERC1155": false,
                        "isERC721": false,
                        "sign": true,
                        "value": "171.73246499166001042"
                    },
                    {
                        "address": "0x2d5c73f3597b07f23c2bb3f2422932e67eca4543",
                        "amount": "402,752,466.064363637716267269",
                        "iconUrl": "",
                        "isERC1155": false,
                        "isERC721": false,
                        "sign": false,
                        "value": "167.8648079"
                    }
                ]
            },
            {
                "account": "0xc02aaa39b223fe8d0a0e5c4f27ead9083c756cc2",
                "assets": [
                    {
                        "address": "0xeeeeeeeeeeeeeeeeeeeeeeeeeeeeeeeeeeeeeeee",
                        "amount": "0.127312026019306381",
                        "iconUrl": "https://assets.blocksec.com/image/1663669189317-3.png",
                        "isERC1155": false,
                        "isERC721": false,
                        "sign": true,
                        "value": "171.73246499166001042"
                    },
                    {
                        "address": "0xc02aaa39b223fe8d0a0e5c4f27ead9083c756cc2",
                        "amount": "0.127312026019306381",
                        "iconUrl": "https://assets.blocksec.com/icon/f1cb2d02c471d545bbc7722daf3277fd852d98e63d118771af7047bd8256c516.png",
                        "isERC1155": false,
                        "isERC721": false,
                        "sign": false,
                        "value": "171.73246499166001042"
                    }
                ]
            }
        ]
    },
    "profile": {
        "basic_info": {
            "baseFee": "8.709041703",
            "blockNumber": 15817148,
            "callData": "0xabcffc26000000000000000000000000180555d4d45e67520adc7c0c51b512c7a50877f2000000000000000000000000000000000000000000000000000000000000008000000000000000000000000000000000000000000000000000000000000002400000000000000000000000000000000000000000000000000000000000000520000000000000000000000000eeeeeeeeeeeeeeeeeeeeeeeeeeeeeeeeeeeeeeee0000000000000000000000002d5c73f3597b07f23c2bb3f2422932e67eca4543000000000000000000000000000000000000000000000000000000000000012000000000000000000000000000000000000000000000000000000000000001600000000000000000000000009a7552f3e23659626e57180359c84180947b7ad800000000000000000000000000000000000000000000000001c5aa06f7c577d00000000000000000000000000000000000000000014a8147220afabac17e4c0f000000000000000000000000000000000000000000000000000000000000000000000000000000000000000000000000000000000000000000000000000001a0000000000000000000000000000000000000000000000000000000000000000100000000000000000000000096c195f6643a3d797cb90cb6ba0ae2776d51b5f3000000000000000000000000000000000000000000000000000000000000000100000000000000000000000000000000000000000000000000015c6a01415c43000000000000000000000000000000000000000000000000000000000000000000000000000000000000000000000000000000000000000000000000000002c0000000000000000000000000000000000000000000000000000000000000002000000000000000000000000000000000000000000000000000000000000000e0000000000000000000000000eeeeeeeeeeeeeeeeeeeeeeeeeeeeeeeeeeeeeeee0000000000000000000000002d5c73f3597b07f23c2bb3f2422932e67eca45430000000000000000000000000000000000000000014a8147220afabac17e4c0f0000000000000000000000009a7552f3e23659626e57180359c84180947b7ad800000000000000000000000000000000000000000000000000000000635662bd000000000000000000000000000000000000000000000000000000000000028000000000000000000000000000000000000000000000000000000000000000010000000000000000000000000000000000000000000000000000000000000020000000000000000000000000000000000000000000000000000000000000000100000000000000000000000000000000000000000000000000000000000000200000000000000000000000000000000000000000000000000000000000000040000000000000000000000000000000000000000000000000000000000000000100000000000000000000000000000000000000000000000000000000000000c0000000000000000000000000a7abacaa6dd8d42c9948765da330d8812666a2e3000000000000000000000000c02aaa39b223fe8d0a0e5c4f27ead9083c756cc20000000000000000000000002d5c73f3597b07f23c2bb3f2422932e67eca45430000000000000000000000009a7552f3e23659626e57180359c84180947b7ad800000000000000000000000000000000000000000000000001c44d9cf6841b8d0000000000000000000000000000000000000000000000000000000000000000000000000000000000000000000000000000000000000000000000000000000000000000000000000000000000000000000000000000000000000000000001657b22536f75726365223a22646578746f6f6c73222c2244617461223a227b5c22736f757263655c223a5c22646578746f6f6c735c227d222c22416d6f756e74496e555344223a223137302e37313930363132393035383839222c22416d6f756e744f7574555344223a223136312e3133333630393337353439363636222c22526566657272616c223a22222c22496e74656772697479496e666f223a7b224b65794944223a2231222c225369676e6174757265223a224f6d3037686f33664f737343655766525371545848376b3445312b524f3662375750613652554a45487a54355936473767364937686d786474394973326a484b2b7076724f6d526842487564554c524446332b75375256394e66504c49305739473477756b394a3671534c636b727634694d672b4a336256624f51782f5050642b2b54684b2b6b4b3741466532342b684134577677464d652b73414334456d765066786a69444871632f493d227d7d000000000000000000000000000000000000000000000000000000",
            "debugEnable": true,
            "errorInfo": "",
            "eventCount": 9,
            "feeRecipient": "0x9e8262e5e68f31e8e6560eb877a1dafee2d3c517",
            "formatValue": "0.12769511135336648",
            "gasLimit": 244782,
            "gasPrice": "9",
            "gasUsed": 199829,
            "intTxnCount": 25,
            "internalRevert": false,
            "internalRevertMessage": "",
            "isContractCreation": false,
            "isFlashloan": false,
            "maxFee": "9",
            "nonce": 38,
            "overwritedBlockNumber": -1,
            "priorityFee": "9",
            "receiver": "0x617dee16b86534a5d792a4d7a62fb491b544111e",
            "revertMessage": "",
            "sender": "0x9a7552f3e23659626e57180359c84180947b7ad8",
            "simulationEnable": true,
            "sourceTxnHash": "0x8e600a6d75efbbe9e5601224ebf6d7546db49e4a17d50f678b7921617ae86a86",
            "status": true,
            "timestamp": "2022-10-24T09:43:59Z",
            "transactionFee": "0.001798461",
            "txnHash": "0x8e600a6d75efbbe9e5601224ebf6d7546db49e4a17d50f678b7921617ae86a86",
            "txnIndex": 58,
            "type": 2,
            "value": "127695111353366480"
        },
        "fund_flow": [
            {
                "amount": "0.12769511135336648",
                "from": "0x9a7552f3e23659626e57180359c84180947b7ad8",
                "id": 1,
                "isERC1155": false,
                "isERC721": false,
                "isReverted": false,
                "order": 1,
                "to": "0x617dee16b86534a5d792a4d7a62fb491b544111e",
                "token": "0xeeeeeeeeeeeeeeeeeeeeeeeeeeeeeeeeeeeeeeee"
            },
            {
                "amount": "0.000383085334060099",
                "from": "0x617dee16b86534a5d792a4d7a62fb491b544111e",
                "id": 2,
                "isERC1155": false,
                "isERC721": false,
                "isReverted": false,
                "order": 2,
                "to": "0x96c195f6643a3d797cb90cb6ba0ae2776d51b5f3",
                "token": "0xeeeeeeeeeeeeeeeeeeeeeeeeeeeeeeeeeeeeeeee"
            },
            {
                "amount": "0.127312026019306381",
                "from": "0x617dee16b86534a5d792a4d7a62fb491b544111e",
                "id": 3,
                "isERC1155": false,
                "isERC721": false,
                "isReverted": false,
                "order": 3,
                "to": "0x180555d4d45e67520adc7c0c51b512c7a50877f2",
                "token": "0xeeeeeeeeeeeeeeeeeeeeeeeeeeeeeeeeeeeeeeee"
            },
            {
                "amount": "0.127312026019306381",
                "from": "0x180555d4d45e67520adc7c0c51b512c7a50877f2",
                "id": 4,
                "isERC1155": false,
                "isERC721": false,
                "isReverted": false,
                "order": 4,
                "to": "0xc02aaa39b223fe8d0a0e5c4f27ead9083c756cc2",
                "token": "0xeeeeeeeeeeeeeeeeeeeeeeeeeeeeeeeeeeeeeeee"
            },
            {
                "amount": "0.127312026019306381",
                "from": "0xc02aaa39b223fe8d0a0e5c4f27ead9083c756cc2",
                "id": 5,
                "isERC1155": false,
                "isERC721": false,
                "isReverted": false,
                "order": 5,
                "to": "0x180555d4d45e67520adc7c0c51b512c7a50877f2",
                "token": "0xc02aaa39b223fe8d0a0e5c4f27ead9083c756cc2"
            },
            {
                "amount": "0.127312026019306381",
                "from": "0x180555d4d45e67520adc7c0c51b512c7a50877f2",
                "id": 6,
                "isERC1155": false,
                "isERC721": false,
                "isReverted": false,
                "order": 6,
                "to": "0xa7abacaa6dd8d42c9948765da330d8812666a2e3",
                "token": "0xc02aaa39b223fe8d0a0e5c4f27ead9083c756cc2"
            },
            {
                "amount": "402,752,466.064363637716267269",
                "from": "0xa7abacaa6dd8d42c9948765da330d8812666a2e3",
                "id": 7,
                "isERC1155": false,
                "isERC721": false,
                "isReverted": false,
                "order": 7,
                "to": "0x9a7552f3e23659626e57180359c84180947b7ad8",
                "token": "0x2d5c73f3597b07f23c2bb3f2422932e67eca4543"
            }
        ],
        "token_infos": [
            {
                "address": "0x2d5c73f3597b07f23c2bb3f2422932e67eca4543",
                "decimals": 18
            },
            {
                "address": "0xc02aaa39b223fe8d0a0e5c4f27ead9083c756cc2",
                "decimals": 18
            },
            {
                "address": "0xeeeeeeeeeeeeeeeeeeeeeeeeeeeeeeeeeeeeeeee",
                "decimals": 18
            }
        ]
    },
    "address_label": {
        "labels": [
            {
                "address": "0xa7abacaa6dd8d42c9948765da330d8812666a2e3",
                "label": "Uniswap V2: IMP 5"
            },
            {
                "address": "0x2d5c73f3597b07f23c2bb3f2422932e67eca4543",
                "label": "Imperial Obelisk: IMP Token"
            },
            {
                "address": "0x617dee16b86534a5d792a4d7a62fb491b544111e",
                "label": "KyberSwap: Meta Aggregation Router"
            },
            {
                "address": "0x0000000000000000000000000000000000000001",
                "label": "Precompiled"
            },
            {
                "address": "0x0000000000000000000000000000000000000003",
                "label": "Precompiled"
            },
            {
                "address": "0x0000000000000000000000000000000000000004",
                "label": "Precompiled"
            },
            {
                "address": "0xeeeeeeeeeeeeeeeeeeeeeeeeeeeeeeeeeeeeeeee",
                "label": "Ether"
            },
            {
                "address": "0xc02aaa39b223fe8d0a0e5c4f27ead9083c756cc2",
                "label": "Wrapped Ether (WETH)"
            },
            {
                "address": "0xa9249f4d7e84b206d010bc90211a11fda57785b4",
                "label": "FireBirdFormula"
            },
            {
                "address": "0x0000000000000000000000000000000000000002",
                "label": "Precompiled"
            }
        ]
    },
    "trace": {
        "accountLabels": null,
        "dataMap": {
            "-1": {
                "invocation": {
                    "address": "0x9a7552f3e23659626e57180359c84180947b7ad8",
                    "callData": "",
                    "decodedMethod": null,
                    "errorInfo": "",
                    "fromAddress": "",
                    "gasUsed": 0,
                    "id": -1,
                    "methodDecoded": false,
                    "operation": "",
                    "output": "",
                    "revert": false,
                    "revertMessage": "",
                    "selector": "",
                    "status": false,
                    "value": ""
                },
                "nodeType": 0
            },
            "0": {
                "invocation": {
                    "address": "0x617dee16b86534a5d792a4d7a62fb491b544111e",
                    "callData": "0x000000000000000000000000180555d4d45e67520adc7c0c51b512c7a50877f2000000000000000000000000000000000000000000000000000000000000008000000000000000000000000000000000000000000000000000000000000002400000000000000000000000000000000000000000000000000000000000000520000000000000000000000000eeeeeeeeeeeeeeeeeeeeeeeeeeeeeeeeeeeeeeee0000000000000000000000002d5c73f3597b07f23c2bb3f2422932e67eca4543000000000000000000000000000000000000000000000000000000000000012000000000000000000000000000000000000000000000000000000000000001600000000000000000000000009a7552f3e23659626e57180359c84180947b7ad800000000000000000000000000000000000000000000000001c5aa06f7c577d00000000000000000000000000000000000000000014a8147220afabac17e4c0f000000000000000000000000000000000000000000000000000000000000000000000000000000000000000000000000000000000000000000000000000001a0000000000000000000000000000000000000000000000000000000000000000100000000000000000000000096c195f6643a3d797cb90cb6ba0ae2776d51b5f3000000000000000000000000000000000000000000000000000000000000000100000000000000000000000000000000000000000000000000015c6a01415c43000000000000000000000000000000000000000000000000000000000000000000000000000000000000000000000000000000000000000000000000000002c0000000000000000000000000000000000000000000000000000000000000002000000000000000000000000000000000000000000000000000000000000000e0000000000000000000000000eeeeeeeeeeeeeeeeeeeeeeeeeeeeeeeeeeeeeeee0000000000000000000000002d5c73f3597b07f23c2bb3f2422932e67eca45430000000000000000000000000000000000000000014a8147220afabac17e4c0f0000000000000000000000009a7552f3e23659626e57180359c84180947b7ad800000000000000000000000000000000000000000000000000000000635662bd000000000000000000000000000000000000000000000000000000000000028000000000000000000000000000000000000000000000000000000000000000010000000000000000000000000000000000000000000000000000000000000020000000000000000000000000000000000000000000000000000000000000000100000000000000000000000000000000000000000000000000000000000000200000000000000000000000000000000000000000000000000000000000000040000000000000000000000000000000000000000000000000000000000000000100000000000000000000000000000000000000000000000000000000000000c0000000000000000000000000a7abacaa6dd8d42c9948765da330d8812666a2e3000000000000000000000000c02aaa39b223fe8d0a0e5c4f27ead9083c756cc20000000000000000000000002d5c73f3597b07f23c2bb3f2422932e67eca45430000000000000000000000009a7552f3e23659626e57180359c84180947b7ad800000000000000000000000000000000000000000000000001c44d9cf6841b8d0000000000000000000000000000000000000000000000000000000000000000000000000000000000000000000000000000000000000000000000000000000000000000000000000000000000000000000000000000000000000000000001657b22536f75726365223a22646578746f6f6c73222c2244617461223a227b5c22736f757263655c223a5c22646578746f6f6c735c227d222c22416d6f756e74496e555344223a223137302e37313930363132393035383839222c22416d6f756e744f7574555344223a223136312e3133333630393337353439363636222c22526566657272616c223a22222c22496e74656772697479496e666f223a7b224b65794944223a2231222c225369676e6174757265223a224f6d3037686f33664f737343655766525371545848376b3445312b524f3662375750613652554a45487a54355936473767364937686d786474394973326a484b2b7076724f6d526842487564554c524446332b75375256394e66504c49305739473477756b394a3671534c636b727634694d672b4a336256624f51782f5050642b2b54684b2b6b4b3741466532342b684134577677464d652b73414334456d765066786a69444871632f493d227d7d000000000000000000000000000000000000000000000000000000",
                    "decodedMethod": {
                        "callParams": [
                            {
                                "name": "caller",
                                "type": "address",
                                "value": "0x180555d4d45e67520adc7c0c51b512c7a50877f2"
                            },
                            {
                                "name": "desc",
                                "type": "(address,address,address[],uint256[],address,uint256,uint256,uint256,bytes)",
                                "value": [
                                    {
                                        "name": "srcToken",
                                        "type": "address",
                                        "value": "0xeeeeeeeeeeeeeeeeeeeeeeeeeeeeeeeeeeeeeeee"
                                    },
                                    {
                                        "name": "dstToken",
                                        "type": "address",
                                        "value": "0x2d5c73f3597b07f23c2bb3f2422932e67eca4543"
                                    },
                                    {
                                        "name": "srcReceivers",
                                        "type": "address[]",
                                        "value": [
                                            "0x96c195f6643a3d797cb90cb6ba0ae2776d51b5f3"
                                        ]
                                    },
                                    {
                                        "name": "srcAmounts",
                                        "type": "uint256[]",
                                        "value": [
                                            "383,085,334,060,099"
                                        ]
                                    },
                                    {
                                        "name": "dstReceiver",
                                        "type": "address",
                                        "value": "0x9a7552f3e23659626e57180359c84180947b7ad8"
                                    },
                                    {
                                        "name": "amount",
                                        "type": "uint256",
                                        "value": "127,695,111,353,366,480"
                                    },
                                    {
                                        "name": "minReturnAmount",
                                        "type": "uint256",
                                        "value": "399,556,017,920,995,672,337,566,735"
                                    },
                                    {
                                        "name": "flags",
                                        "type": "uint256",
                                        "value": "0"
                                    },
                                    {
                                        "name": "permit",
                                        "type": "bytes",
                                        "value": "0x"
                                    }
                                ]
                            },
                            {
                                "name": "executorData",
                                "type": "bytes",
                                "value": "0x000000000000000000000000000000000000000000000000000000000000002000000000000000000000000000000000000000000000000000000000000000e0000000000000000000000000eeeeeeeeeeeeeeeeeeeeeeeeeeeeeeeeeeeeeeee0000000000000000000000002d5c73f3597b07f23c2bb3f2422932e67eca45430000000000000000000000000000000000000000014a8147220afabac17e4c0f0000000000000000000000009a7552f3e23659626e57180359c84180947b7ad800000000000000000000000000000000000000000000000000000000635662bd000000000000000000000000000000000000000000000000000000000000028000000000000000000000000000000000000000000000000000000000000000010000000000000000000000000000000000000000000000000000000000000020000000000000000000000000000000000000000000000000000000000000000100000000000000000000000000000000000000000000000000000000000000200000000000000000000000000000000000000000000000000000000000000040000000000000000000000000000000000000000000000000000000000000000100000000000000000000000000000000000000000000000000000000000000c0000000000000000000000000a7abacaa6dd8d42c9948765da330d8812666a2e3000000000000000000000000c02aaa39b223fe8d0a0e5c4f27ead9083c756cc20000000000000000000000002d5c73f3597b07f23c2bb3f2422932e67eca45430000000000000000000000009a7552f3e23659626e57180359c84180947b7ad800000000000000000000000000000000000000000000000001c44d9cf6841b8d00000000000000000000000000000000000000000000000000000000000000000000000000000000000000000000000000000000000000000000000000000000"
                            },
                            {
                                "name": "clientData",
                                "type": "bytes",
                                "value": "0x7b22536f75726365223a22646578746f6f6c73222c2244617461223a227b5c22736f757263655c223a5c22646578746f6f6c735c227d222c22416d6f756e74496e555344223a223137302e37313930363132393035383839222c22416d6f756e744f7574555344223a223136312e3133333630393337353439363636222c22526566657272616c223a22222c22496e74656772697479496e666f223a7b224b65794944223a2231222c225369676e6174757265223a224f6d3037686f33664f737343655766525371545848376b3445312b524f3662375750613652554a45487a54355936473767364937686d786474394973326a484b2b7076724f6d526842487564554c524446332b75375256394e66504c49305739473477756b394a3671534c636b727634694d672b4a336256624f51782f5050642b2b54684b2b6b4b3741466532342b684134577677464d652b73414334456d765066786a69444871632f493d227d7d"
                            }
                        ],
                        "constructorArguments": "",
                        "name": "swap",
                        "returnParams": [
                            {
                                "name": "returnAmount",
                                "type": "uint256",
                                "value": "402,752,466,064,363,637,716,267,269"
                            },
                            {
                                "name": "gasUsed",
                                "type": "uint256",
                                "value": "185,374"
                            }
                        ],
                        "signature": "swap(address,(address,address,address[],uint256[],address,uint256,uint256,uint256,bytes),bytes,bytes)"
                    },
                    "errorInfo": "",
                    "fromAddress": "0x9a7552f3e23659626e57180359c84180947b7ad8",
                    "gasUsed": 199829,
                    "id": 0,
                    "methodDecoded": true,
                    "operation": "CALL",
                    "output": "0x0000000000000000000000000000000000000000014d2626ef1d7fceae8fb105000000000000000000000000000000000000000000000000000000000002d41e",
                    "revert": false,
                    "revertMessage": "",
                    "selector": "0xabcffc26",
                    "status": true,
                    "value": "0.12769511135336648"
                },
                "nodeType": 0
            },
            "1": {
                "invocation": {
                    "address": "0x96c195f6643a3d797cb90cb6ba0ae2776d51b5f3",
                    "callData": "0x",
                    "decodedMethod": null,
                    "errorInfo": "",
                    "fromAddress": "0x617dee16b86534a5d792a4d7a62fb491b544111e",
                    "gasUsed": 0,
                    "id": 1,
                    "methodDecoded": false,
                    "operation": "CALL",
                    "output": "",
                    "revert": false,
                    "revertMessage": "",
                    "selector": "fallback",
                    "status": true,
                    "value": "0.000383085334060099"
                },
                "nodeType": 0
            },
            "10": {
                "invocation": {
                    "address": "0xa9249f4d7e84b206d010bc90211a11fda57785b4",
                    "callData": "0x00000000000000000000000059a16ece7143459801c3b3f24dc8a0cdfb956571000000000000000000000000a7abacaa6dd8d42c9948765da330d8812666a2e3000000000000000000000000c02aaa39b223fe8d0a0e5c4f27ead9083c756cc20000000000000000000000000000000000000000000000000000000000000001",
                    "decodedMethod": {
                        "callParams": [
                            {
                                "name": "factory",
                                "type": "address",
                                "value": "0x59a16ece7143459801c3b3f24dc8a0cdfb956571"
                            },
                            {
                                "name": "pair",
                                "type": "address",
                                "value": "0xa7abacaa6dd8d42c9948765da330d8812666a2e3"
                            },
                            {
                                "name": "tokenA",
                                "type": "address",
                                "value": "0xc02aaa39b223fe8d0a0e5c4f27ead9083c756cc2"
                            },
                            {
                                "name": "dexId",
                                "type": "uint8",
                                "value": "1"
                            }
                        ],
                        "constructorArguments": "",
                        "name": "getFactoryReserveAndWeights",
                        "returnParams": [
                            {
                                "name": "tokenB",
                                "type": "address",
                                "value": "0x2d5c73f3597b07f23c2bb3f2422932e67eca4543"
                            },
                            {
                                "name": "reserveA",
                                "type": "uint256",
                                "value": "29,955,890,834,902,520,993"
                            },
                            {
                                "name": "reserveB",
                                "type": "uint256",
                                "value": "95,453,570,695,975,341,227,594,366,279"
                            },
                            {
                                "name": "tokenWeightA",
                                "type": "uint32",
                                "value": "50"
                            },
                            {
                                "name": "tokenWeightB",
                                "type": "uint32",
                                "value": "50"
                            },
                            {
                                "name": "swapFee",
                                "type": "uint32",
                                "value": "30"
                            }
                        ],
                        "signature": "getFactoryReserveAndWeights(address,address,address,uint8)"
                    },
                    "errorInfo": "",
                    "fromAddress": "0x180555d4d45e67520adc7c0c51b512c7a50877f2",
                    "gasUsed": 16861,
                    "id": 10,
                    "methodDecoded": true,
                    "operation": "STATICCALL",
                    "output": "0x0000000000000000000000002d5c73f3597b07f23c2bb3f2422932e67eca45430000000000000000000000000000000000000000000000019fb8b40050be94a10000000000000000000000000000000000000001346d57d400f63f12eb4a3d4700000000000000000000000000000000000000000000000000000000000000320000000000000000000000000000000000000000000000000000000000000032000000000000000000000000000000000000000000000000000000000000001e",
                    "revert": false,
                    "revertMessage": "",
                    "selector": "0xeb22d54f",
                    "status": true,
                    "value": "0"
                },
                "nodeType": 0
            },
            "11": {
                "invocation": {
                    "address": "0xa7abacaa6dd8d42c9948765da330d8812666a2e3",
                    "callData": "0x",
                    "decodedMethod": {
                        "callParams": [],
                        "constructorArguments": "",
                        "name": "getReserves",
                        "returnParams": [
                            {
                                "name": "_reserve0",
                                "type": "uint112",
                                "value": "95,453,570,695,975,341,227,594,366,279"
                            },
                            {
                                "name": "_reserve1",
                                "type": "uint112",
                                "value": "29,955,890,834,902,520,993"
                            },
                            {
                                "name": "_blockTimestampLast",
                                "type": "uint32",
                                "value": "1,666,597,355"
                            }
                        ],
                        "signature": "getReserves()"
                    },
                    "errorInfo": "",
                    "fromAddress": "0xa9249f4d7e84b206d010bc90211a11fda57785b4",
                    "gasUsed": 2504,
                    "id": 11,
                    "methodDecoded": true,
                    "operation": "STATICCALL",
                    "output": "0x0000000000000000000000000000000000000001346d57d400f63f12eb4a3d470000000000000000000000000000000000000000000000019fb8b40050be94a100000000000000000000000000000000000000000000000000000000635641eb",
                    "revert": false,
                    "revertMessage": "",
                    "selector": "0x0902f1ac",
                    "status": true,
                    "value": "0"
                },
                "nodeType": 0
            },
            "12": {
                "invocation": {
                    "address": "0xa7abacaa6dd8d42c9948765da330d8812666a2e3",
                    "callData": "0x",
                    "decodedMethod": {
                        "callParams": [],
                        "constructorArguments": "",
                        "name": "token0",
                        "returnParams": [
                            {
                                "name": "",
                                "type": "address",
                                "value": "0x2d5c73f3597b07f23c2bb3f2422932e67eca4543"
                            }
                        ],
                        "signature": "token0()"
                    },
                    "errorInfo": "",
                    "fromAddress": "0xa9249f4d7e84b206d010bc90211a11fda57785b4",
                    "gasUsed": 2381,
                    "id": 12,
                    "methodDecoded": true,
                    "operation": "STATICCALL",
                    "output": "0x0000000000000000000000002d5c73f3597b07f23c2bb3f2422932e67eca4543",
                    "revert": false,
                    "revertMessage": "",
                    "selector": "0x0dfe1681",
                    "status": true,
                    "value": "0"
                },
                "nodeType": 0
            },
            "13": {
                "invocation": {
                    "address": "0xa7abacaa6dd8d42c9948765da330d8812666a2e3",
                    "callData": "0x",
                    "decodedMethod": {
                        "callParams": [],
                        "constructorArguments": "",
                        "name": "token1",
                        "returnParams": [
                            {
                                "name": "",
                                "type": "address",
                                "value": "0xc02aaa39b223fe8d0a0e5c4f27ead9083c756cc2"
                            }
                        ],
                        "signature": "token1()"
                    },
                    "errorInfo": "",
                    "fromAddress": "0xa9249f4d7e84b206d010bc90211a11fda57785b4",
                    "gasUsed": 2357,
                    "id": 13,
                    "methodDecoded": true,
                    "operation": "STATICCALL",
                    "output": "0x000000000000000000000000c02aaa39b223fe8d0a0e5c4f27ead9083c756cc2",
                    "revert": false,
                    "revertMessage": "",
                    "selector": "0xd21220a7",
                    "status": true,
                    "value": "0"
                },
                "nodeType": 0
            },
            "14": {
                "invocation": {
                    "address": "0xa7abacaa6dd8d42c9948765da330d8812666a2e3",
                    "callData": "0x",
                    "decodedMethod": {
                        "callParams": [],
                        "constructorArguments": "",
                        "name": "token0",
                        "returnParams": [
                            {
                                "name": "",
                                "type": "address",
                                "value": "0x2d5c73f3597b07f23c2bb3f2422932e67eca4543"
                            }
                        ],
                        "signature": "token0()"
                    },
                    "errorInfo": "",
                    "fromAddress": "0xa9249f4d7e84b206d010bc90211a11fda57785b4",
                    "gasUsed": 381,
                    "id": 14,
                    "methodDecoded": true,
                    "operation": "STATICCALL",
                    "output": "0x0000000000000000000000002d5c73f3597b07f23c2bb3f2422932e67eca4543",
                    "revert": false,
                    "revertMessage": "",
                    "selector": "0x0dfe1681",
                    "status": true,
                    "value": "0"
                },
                "nodeType": 0
            },
            "15": {
                "invocation": {
                    "address": "0xc02aaa39b223fe8d0a0e5c4f27ead9083c756cc2",
                    "callData": "0x000000000000000000000000a7abacaa6dd8d42c9948765da330d8812666a2e3",
                    "decodedMethod": {
                        "callParams": [
                            {
                                "name": "",
                                "type": "address",
                                "value": "0xa7abacaa6dd8d42c9948765da330d8812666a2e3"
                            }
                        ],
                        "constructorArguments": "",
                        "name": "balanceOf",
                        "returnParams": [
                            {
                                "decimalAvailable": true,
                                "name": "",
                                "type": "uint256",
                                "value": "30,083,202,860,921,827,374"
                            }
                        ],
                        "signature": "balanceOf(address)"
                    },
                    "errorInfo": "",
                    "fromAddress": "0x180555d4d45e67520adc7c0c51b512c7a50877f2",
                    "gasUsed": 534,
                    "id": 15,
                    "methodDecoded": true,
                    "operation": "STATICCALL",
                    "output": "0x000000000000000000000000000000000000000000000001a17d019d4742b02e",
                    "revert": false,
                    "revertMessage": "",
                    "selector": "0x70a08231",
                    "status": true,
                    "value": "0"
                },
                "nodeType": 0
            },
            "16": {
                "invocation": {
                    "address": "0xa9249f4d7e84b206d010bc90211a11fda57785b4",
                    "callData": "0x00000000000000000000000000000000000000000000000001c44d9cf6841b8d0000000000000000000000000000000000000000000000019fb8b40050be94a10000000000000000000000000000000000000001346d57d400f63f12eb4a3d4700000000000000000000000000000000000000000000000000000000000000320000000000000000000000000000000000000000000000000000000000000032000000000000000000000000000000000000000000000000000000000000001e",
                    "decodedMethod": {
                        "callParams": [
                            {
                                "name": "amountIn",
                                "type": "uint256",
                                "value": "127,312,026,019,306,381"
                            },
                            {
                                "name": "reserveIn",
                                "type": "uint256",
                                "value": "29,955,890,834,902,520,993"
                            },
                            {
                                "name": "reserveOut",
                                "type": "uint256",
                                "value": "95,453,570,695,975,341,227,594,366,279"
                            },
                            {
                                "name": "tokenWeightIn",
                                "type": "uint32",
                                "value": "50"
                            },
                            {
                                "name": "tokenWeightOut",
                                "type": "uint32",
                                "value": "50"
                            },
                            {
                                "name": "swapFee",
                                "type": "uint32",
                                "value": "30"
                            }
                        ],
                        "constructorArguments": "",
                        "name": "getAmountOut",
                        "returnParams": [
                            {
                                "name": "amountOut",
                                "type": "uint256",
                                "value": "402,752,466,064,363,637,716,267,269"
                            }
                        ],
                        "signature": "getAmountOut(uint256,uint256,uint256,uint32,uint32,uint32)"
                    },
                    "errorInfo": "",
                    "fromAddress": "0x180555d4d45e67520adc7c0c51b512c7a50877f2",
                    "gasUsed": 1070,
                    "id": 16,
                    "methodDecoded": true,
                    "operation": "STATICCALL",
                    "output": "0x0000000000000000000000000000000000000000014d2626ef1d7fceae8fb105",
                    "revert": false,
                    "revertMessage": "",
                    "selector": "0x671a11b5",
                    "status": true,
                    "value": "0"
                },
                "nodeType": 0
            },
            "17": {
                "invocation": {
                    "address": "0x2d5c73f3597b07f23c2bb3f2422932e67eca4543",
                    "callData": "0x0000000000000000000000009a7552f3e23659626e57180359c84180947b7ad8",
                    "decodedMethod": {
                        "callParams": [
                            {
                                "name": "account",
                                "type": "address",
                                "value": "0x9a7552f3e23659626e57180359c84180947b7ad8"
                            }
                        ],
                        "constructorArguments": "",
                        "name": "balanceOf",
                        "returnParams": [
                            {
                                "decimalAvailable": true,
                                "name": "",
                                "type": "uint256",
                                "value": "0"
                            }
                        ],
                        "signature": "balanceOf(address)"
                    },
                    "errorInfo": "",
                    "fromAddress": "0x180555d4d45e67520adc7c0c51b512c7a50877f2",
                    "gasUsed": 863,
                    "id": 17,
                    "methodDecoded": true,
                    "operation": "STATICCALL",
                    "output": "0x0000000000000000000000000000000000000000000000000000000000000000",
                    "revert": false,
                    "revertMessage": "",
                    "selector": "0x70a08231",
                    "status": true,
                    "value": "0"
                },
                "nodeType": 0
            },
            "18": {
                "invocation": {
                    "address": "0xa7abacaa6dd8d42c9948765da330d8812666a2e3",
                    "callData": "0x",
                    "decodedMethod": {
                        "callParams": [],
                        "constructorArguments": "",
                        "name": "token0",
                        "returnParams": [
                            {
                                "name": "",
                                "type": "address",
                                "value": "0x2d5c73f3597b07f23c2bb3f2422932e67eca4543"
                            }
                        ],
                        "signature": "token0()"
                    },
                    "errorInfo": "",
                    "fromAddress": "0x180555d4d45e67520adc7c0c51b512c7a50877f2",
                    "gasUsed": 381,
                    "id": 18,
                    "methodDecoded": true,
                    "operation": "STATICCALL",
                    "output": "0x0000000000000000000000002d5c73f3597b07f23c2bb3f2422932e67eca4543",
                    "revert": false,
                    "revertMessage": "",
                    "selector": "0x0dfe1681",
                    "status": true,
                    "value": "0"
                },
                "nodeType": 0
            },
            "19": {
                "invocation": {
                    "address": "0xa7abacaa6dd8d42c9948765da330d8812666a2e3",
                    "callData": "0x0000000000000000000000000000000000000000014d2626ef1d7fceae8fb10500000000000000000000000000000000000000000000000000000000000000000000000000000000000000009a7552f3e23659626e57180359c84180947b7ad800000000000000000000000000000000000000000000000000000000000000800000000000000000000000000000000000000000000000000000000000000000",
                    "decodedMethod": {
                        "callParams": [
                            {
                                "name": "amount0Out",
                                "type": "uint256",
                                "value": "402,752,466,064,363,637,716,267,269"
                            },
                            {
                                "name": "amount1Out",
                                "type": "uint256",
                                "value": "0"
                            },
                            {
                                "name": "to",
                                "type": "address",
                                "value": "0x9a7552f3e23659626e57180359c84180947b7ad8"
                            },
                            {
                                "name": "data",
                                "type": "bytes",
                                "value": "0x"
                            }
                        ],
                        "constructorArguments": "",
                        "name": "swap",
                        "returnParams": [],
                        "signature": "swap(uint256,uint256,address,bytes)"
                    },
                    "errorInfo": "",
                    "fromAddress": "0x180555d4d45e67520adc7c0c51b512c7a50877f2",
                    "gasUsed": 57611,
                    "id": 19,
                    "methodDecoded": true,
                    "operation": "CALL",
                    "output": "",
                    "revert": false,
                    "revertMessage": "",
                    "selector": "0x022c0d9f",
                    "status": true,
                    "value": "0"
                },
                "nodeType": 0
            },
            "2": {
                "invocation": {
                    "address": "0x2d5c73f3597b07f23c2bb3f2422932e67eca4543",
                    "callData": "0x0000000000000000000000009a7552f3e23659626e57180359c84180947b7ad8",
                    "decodedMethod": {
                        "callParams": [
                            {
                                "name": "account",
                                "type": "address",
                                "value": "0x9a7552f3e23659626e57180359c84180947b7ad8"
                            }
                        ],
                        "constructorArguments": "",
                        "name": "balanceOf",
                        "returnParams": [
                            {
                                "decimalAvailable": true,
                                "name": "",
                                "type": "uint256",
                                "value": "0"
                            }
                        ],
                        "signature": "balanceOf(address)"
                    },
                    "errorInfo": "",
                    "fromAddress": "0x617dee16b86534a5d792a4d7a62fb491b544111e",
                    "gasUsed": 2863,
                    "id": 2,
                    "methodDecoded": true,
                    "operation": "STATICCALL",
                    "output": "0x0000000000000000000000000000000000000000000000000000000000000000",
                    "revert": false,
                    "revertMessage": "",
                    "selector": "0x70a08231",
                    "status": true,
                    "value": "0"
                },
                "nodeType": 0
            },
            "20": {
                "invocation": {
                    "address": "0x2d5c73f3597b07f23c2bb3f2422932e67eca4543",
                    "callData": "0x0000000000000000000000009a7552f3e23659626e57180359c84180947b7ad80000000000000000000000000000000000000000014d2626ef1d7fceae8fb105",
                    "decodedMethod": {
                        "callParams": [
                            {
                                "name": "recipient",
                                "type": "address",
                                "value": "0x9a7552f3e23659626e57180359c84180947b7ad8"
                            },
                            {
                                "decimalAvailable": true,
                                "name": "amount",
                                "type": "uint256",
                                "value": "402,752,466,064,363,637,716,267,269"
                            }
                        ],
                        "constructorArguments": "",
                        "name": "transfer",
                        "returnParams": [
                            {
                                "name": "",
                                "type": "bool",
                                "value": true
                            }
                        ],
                        "signature": "transfer(address,uint256)"
                    },
                    "errorInfo": "",
                    "fromAddress": "0xa7abacaa6dd8d42c9948765da330d8812666a2e3",
                    "gasUsed": 28891,
                    "id": 20,
                    "methodDecoded": true,
                    "operation": "CALL",
                    "output": "0x0000000000000000000000000000000000000000000000000000000000000001",
                    "revert": false,
                    "revertMessage": "",
                    "selector": "0xa9059cbb",
                    "status": true,
                    "value": "0"
                },
                "nodeType": 0
            },
            "21": {
                "event": {
                    "contract": "0x2d5c73f3597b07f23c2bb3f2422932e67eca4543",
                    "decodedLog": {
                        "name": "Transfer",
                        "params": [
                            {
                                "name": "from",
                                "type": "address",
                                "value": "0xa7abacaa6dd8d42c9948765da330d8812666a2e3"
                            },
                            {
                                "name": "to",
                                "type": "address",
                                "value": "0x9a7552f3e23659626e57180359c84180947b7ad8"
                            },
                            {
                                "decimalAvailable": true,
                                "name": "value",
                                "type": "uint256",
                                "value": "402,752,466,064,363,637,716,267,269"
                            }
                        ],
                        "signature": "Transfer(address,address,uint256)"
                    },
                    "id": 21,
                    "logData": "0x0000000000000000000000000000000000000000014d2626ef1d7fceae8fb105",
                    "logDecoded": true,
                    "operation": "EVENT",
                    "revert": false,
                    "status": true,
                    "topics": [
                        "0xddf252ad1be2c89b69c2b068fc378daa952ba7f163c4a11628f55a4df523b3ef",
                        "0x000000000000000000000000a7abacaa6dd8d42c9948765da330d8812666a2e3",
                        "0x0000000000000000000000009a7552f3e23659626e57180359c84180947b7ad8"
                    ]
                },
                "nodeType": 1
            },
            "22": {
                "invocation": {
                    "address": "0x2d5c73f3597b07f23c2bb3f2422932e67eca4543",
                    "callData": "0x000000000000000000000000a7abacaa6dd8d42c9948765da330d8812666a2e3",
                    "decodedMethod": {
                        "callParams": [
                            {
                                "name": "account",
                                "type": "address",
                                "value": "0xa7abacaa6dd8d42c9948765da330d8812666a2e3"
                            }
                        ],
                        "constructorArguments": "",
                        "name": "balanceOf",
                        "returnParams": [
                            {
                                "decimalAvailable": true,
                                "name": "",
                                "type": "uint256",
                                "value": "95,050,818,229,910,977,589,878,099,010"
                            }
                        ],
                        "signature": "balanceOf(address)"
                    },
                    "errorInfo": "",
                    "fromAddress": "0xa7abacaa6dd8d42c9948765da330d8812666a2e3",
                    "gasUsed": 863,
                    "id": 22,
                    "methodDecoded": true,
                    "operation": "STATICCALL",
                    "output": "0x0000000000000000000000000000000000000001332031ad11d8bf443cba8c42",
                    "revert": false,
                    "revertMessage": "",
                    "selector": "0x70a08231",
                    "status": true,
                    "value": "0"
                },
                "nodeType": 0
            },
            "23": {
                "invocation": {
                    "address": "0xc02aaa39b223fe8d0a0e5c4f27ead9083c756cc2",
                    "callData": "0x000000000000000000000000a7abacaa6dd8d42c9948765da330d8812666a2e3",
                    "decodedMethod": {
                        "callParams": [
                            {
                                "name": "",
                                "type": "address",
                                "value": "0xa7abacaa6dd8d42c9948765da330d8812666a2e3"
                            }
                        ],
                        "constructorArguments": "",
                        "name": "balanceOf",
                        "returnParams": [
                            {
                                "decimalAvailable": true,
                                "name": "",
                                "type": "uint256",
                                "value": "30,083,202,860,921,827,374"
                            }
                        ],
                        "signature": "balanceOf(address)"
                    },
                    "errorInfo": "",
                    "fromAddress": "0xa7abacaa6dd8d42c9948765da330d8812666a2e3",
                    "gasUsed": 534,
                    "id": 23,
                    "methodDecoded": true,
                    "operation": "STATICCALL",
                    "output": "0x000000000000000000000000000000000000000000000001a17d019d4742b02e",
                    "revert": false,
                    "revertMessage": "",
                    "selector": "0x70a08231",
                    "status": true,
                    "value": "0"
                },
                "nodeType": 0
            },
            "24": {
                "event": {
                    "contract": "0xa7abacaa6dd8d42c9948765da330d8812666a2e3",
                    "decodedLog": {
                        "name": "Sync",
                        "params": [
                            {
                                "name": "reserve0",
                                "type": "uint112",
                                "value": "95,050,818,229,910,977,589,878,099,010"
                            },
                            {
                                "name": "reserve1",
                                "type": "uint112",
                                "value": "30,083,202,860,921,827,374"
                            }
                        ],
                        "signature": "Sync(uint112,uint112)"
                    },
                    "id": 24,
                    "logData": "0x0000000000000000000000000000000000000001332031ad11d8bf443cba8c42000000000000000000000000000000000000000000000001a17d019d4742b02e",
                    "logDecoded": true,
                    "operation": "EVENT",
                    "revert": false,
                    "status": true,
                    "topics": [
                        "0x1c411e9a96e071241c2f21f7726b17ae89e3cab4c78be50e062b03a9fffbbad1"
                    ]
                },
                "nodeType": 1
            },
            "25": {
                "event": {
                    "contract": "0xa7abacaa6dd8d42c9948765da330d8812666a2e3",
                    "decodedLog": {
                        "name": "Swap",
                        "params": [
                            {
                                "name": "sender",
                                "type": "address",
                                "value": "0x180555d4d45e67520adc7c0c51b512c7a50877f2"
                            },
                            {
                                "name": "to",
                                "type": "address",
                                "value": "0x9a7552f3e23659626e57180359c84180947b7ad8"
                            },
                            {
                                "name": "amount0In",
                                "type": "uint256",
                                "value": "0"
                            },
                            {
                                "name": "amount1In",
                                "type": "uint256",
                                "value": "127,312,026,019,306,381"
                            },
                            {
                                "name": "amount0Out",
                                "type": "uint256",
                                "value": "402,752,466,064,363,637,716,267,269"
                            },
                            {
                                "name": "amount1Out",
                                "type": "uint256",
                                "value": "0"
                            }
                        ],
                        "signature": "Swap(address,uint256,uint256,uint256,uint256,address)"
                    },
                    "id": 25,
                    "logData": "0x000000000000000000000000000000000000000000000000000000000000000000000000000000000000000000000000000000000000000001c44d9cf6841b8d0000000000000000000000000000000000000000014d2626ef1d7fceae8fb1050000000000000000000000000000000000000000000000000000000000000000",
                    "logDecoded": true,
                    "operation": "EVENT",
                    "revert": false,
                    "status": true,
                    "topics": [
                        "0xd78ad95fa46c994b6551d0da85fc275fe613ce37657fb8d5e3d130840159d822",
                        "0x000000000000000000000000180555d4d45e67520adc7c0c51b512c7a50877f2",
                        "0x0000000000000000000000009a7552f3e23659626e57180359c84180947b7ad8"
                    ]
                },
                "nodeType": 1
            },
            "26": {
                "event": {
                    "contract": "0x180555d4d45e67520adc7c0c51b512c7a50877f2",
                    "decodedLog": {
                        "name": "Exchange",
                        "params": [
                            {
                                "name": "pair",
                                "type": "address",
                                "value": "0xa7abacaa6dd8d42c9948765da330d8812666a2e3"
                            },
                            {
                                "name": "amountOut",
                                "type": "uint256",
                                "value": "402,752,466,064,363,637,716,267,269"
                            },
                            {
                                "name": "output",
                                "type": "address",
                                "value": "0x2d5c73f3597b07f23c2bb3f2422932e67eca4543"
                            }
                        ],
                        "signature": "Exchange(address,uint256,address)"
                    },
                    "id": 26,
                    "logData": "0x000000000000000000000000a7abacaa6dd8d42c9948765da330d8812666a2e30000000000000000000000000000000000000000014d2626ef1d7fceae8fb1050000000000000000000000002d5c73f3597b07f23c2bb3f2422932e67eca4543",
                    "logDecoded": true,
                    "operation": "EVENT",
                    "revert": false,
                    "status": true,
                    "topics": [
                        "0xddac40937f35385a34f721af292e5a83fc5b840f722bff57c2fc71adba708c48"
                    ]
                },
                "nodeType": 1
            },
            "27": {
                "invocation": {
                    "address": "0x2d5c73f3597b07f23c2bb3f2422932e67eca4543",
                    "callData": "0x0000000000000000000000009a7552f3e23659626e57180359c84180947b7ad8",
                    "decodedMethod": {
                        "callParams": [
                            {
                                "name": "account",
                                "type": "address",
                                "value": "0x9a7552f3e23659626e57180359c84180947b7ad8"
                            }
                        ],
                        "constructorArguments": "",
                        "name": "balanceOf",
                        "returnParams": [
                            {
                                "decimalAvailable": true,
                                "name": "",
                                "type": "uint256",
                                "value": "402,752,466,064,363,637,716,267,269"
                            }
                        ],
                        "signature": "balanceOf(address)"
                    },
                    "errorInfo": "",
                    "fromAddress": "0x180555d4d45e67520adc7c0c51b512c7a50877f2",
                    "gasUsed": 863,
                    "id": 27,
                    "methodDecoded": true,
                    "operation": "STATICCALL",
                    "output": "0x0000000000000000000000000000000000000000014d2626ef1d7fceae8fb105",
                    "revert": false,
                    "revertMessage": "",
                    "selector": "0x70a08231",
                    "status": true,
                    "value": "0"
                },
                "nodeType": 0
            },
            "28": {
                "invocation": {
                    "address": "0x2d5c73f3597b07f23c2bb3f2422932e67eca4543",
                    "callData": "0x000000000000000000000000180555d4d45e67520adc7c0c51b512c7a50877f2",
                    "decodedMethod": {
                        "callParams": [
                            {
                                "name": "account",
                                "type": "address",
                                "value": "0x180555d4d45e67520adc7c0c51b512c7a50877f2"
                            }
                        ],
                        "constructorArguments": "",
                        "name": "balanceOf",
                        "returnParams": [
                            {
                                "decimalAvailable": true,
                                "name": "",
                                "type": "uint256",
                                "value": "0"
                            }
                        ],
                        "signature": "balanceOf(address)"
                    },
                    "errorInfo": "",
                    "fromAddress": "0x180555d4d45e67520adc7c0c51b512c7a50877f2",
                    "gasUsed": 2863,
                    "id": 28,
                    "methodDecoded": true,
                    "operation": "STATICCALL",
                    "output": "0x0000000000000000000000000000000000000000000000000000000000000000",
                    "revert": false,
                    "revertMessage": "",
                    "selector": "0x70a08231",
                    "status": true,
                    "value": "0"
                },
                "nodeType": 0
            },
            "29": {
                "invocation": {
                    "address": "0xc02aaa39b223fe8d0a0e5c4f27ead9083c756cc2",
                    "callData": "0x000000000000000000000000180555d4d45e67520adc7c0c51b512c7a50877f2",
                    "decodedMethod": {
                        "callParams": [
                            {
                                "name": "",
                                "type": "address",
                                "value": "0x180555d4d45e67520adc7c0c51b512c7a50877f2"
                            }
                        ],
                        "constructorArguments": "",
                        "name": "balanceOf",
                        "returnParams": [
                            {
                                "decimalAvailable": true,
                                "name": "",
                                "type": "uint256",
                                "value": "0"
                            }
                        ],
                        "signature": "balanceOf(address)"
                    },
                    "errorInfo": "",
                    "fromAddress": "0x180555d4d45e67520adc7c0c51b512c7a50877f2",
                    "gasUsed": 534,
                    "id": 29,
                    "methodDecoded": true,
                    "operation": "STATICCALL",
                    "output": "0x0000000000000000000000000000000000000000000000000000000000000000",
                    "revert": false,
                    "revertMessage": "",
                    "selector": "0x70a08231",
                    "status": true,
                    "value": "0"
                },
                "nodeType": 0
            },
            "3": {
                "invocation": {
                    "address": "0x180555d4d45e67520adc7c0c51b512c7a50877f2",
                    "callData": "0x000000000000000000000000000000000000000000000000000000000000002000000000000000000000000000000000000000000000000000000000000002c0000000000000000000000000000000000000000000000000000000000000002000000000000000000000000000000000000000000000000000000000000000e0000000000000000000000000eeeeeeeeeeeeeeeeeeeeeeeeeeeeeeeeeeeeeeee0000000000000000000000002d5c73f3597b07f23c2bb3f2422932e67eca45430000000000000000000000000000000000000000014a8147220afabac17e4c0f0000000000000000000000009a7552f3e23659626e57180359c84180947b7ad800000000000000000000000000000000000000000000000000000000635662bd000000000000000000000000000000000000000000000000000000000000028000000000000000000000000000000000000000000000000000000000000000010000000000000000000000000000000000000000000000000000000000000020000000000000000000000000000000000000000000000000000000000000000100000000000000000000000000000000000000000000000000000000000000200000000000000000000000000000000000000000000000000000000000000040000000000000000000000000000000000000000000000000000000000000000100000000000000000000000000000000000000000000000000000000000000c0000000000000000000000000a7abacaa6dd8d42c9948765da330d8812666a2e3000000000000000000000000c02aaa39b223fe8d0a0e5c4f27ead9083c756cc20000000000000000000000002d5c73f3597b07f23c2bb3f2422932e67eca45430000000000000000000000009a7552f3e23659626e57180359c84180947b7ad800000000000000000000000000000000000000000000000001c44d9cf6841b8d00000000000000000000000000000000000000000000000000000000000000000000000000000000000000000000000000000000000000000000000000000000",
                    "decodedMethod": {
                        "callParams": [
                            {
                                "name": "callerCallData",
                                "type": "bytes",
                                "value": "0x000000000000000000000000000000000000000000000000000000000000002000000000000000000000000000000000000000000000000000000000000000e0000000000000000000000000eeeeeeeeeeeeeeeeeeeeeeeeeeeeeeeeeeeeeeee0000000000000000000000002d5c73f3597b07f23c2bb3f2422932e67eca45430000000000000000000000000000000000000000014a8147220afabac17e4c0f0000000000000000000000009a7552f3e23659626e57180359c84180947b7ad800000000000000000000000000000000000000000000000000000000635662bd000000000000000000000000000000000000000000000000000000000000028000000000000000000000000000000000000000000000000000000000000000010000000000000000000000000000000000000000000000000000000000000020000000000000000000000000000000000000000000000000000000000000000100000000000000000000000000000000000000000000000000000000000000200000000000000000000000000000000000000000000000000000000000000040000000000000000000000000000000000000000000000000000000000000000100000000000000000000000000000000000000000000000000000000000000c0000000000000000000000000a7abacaa6dd8d42c9948765da330d8812666a2e3000000000000000000000000c02aaa39b223fe8d0a0e5c4f27ead9083c756cc20000000000000000000000002d5c73f3597b07f23c2bb3f2422932e67eca45430000000000000000000000009a7552f3e23659626e57180359c84180947b7ad800000000000000000000000000000000000000000000000001c44d9cf6841b8d00000000000000000000000000000000000000000000000000000000000000000000000000000000000000000000000000000000000000000000000000000000"
                            }
                        ],
                        "constructorArguments": "",
                        "name": "callBytes",
                        "returnParams": [],
                        "signature": "callBytes(bytes)"
                    },
                    "errorInfo": "",
                    "fromAddress": "0x617dee16b86534a5d792a4d7a62fb491b544111e",
                    "gasUsed": 144562,
                    "id": 3,
                    "methodDecoded": true,
                    "operation": "CALL",
                    "output": "",
                    "revert": false,
                    "revertMessage": "",
                    "selector": "0xd9c45357",
                    "status": true,
                    "value": "0.127312026019306381"
                },
                "nodeType": 0
            },
            "30": {
                "invocation": {
                    "address": "0x2d5c73f3597b07f23c2bb3f2422932e67eca4543",
                    "callData": "0x0000000000000000000000009a7552f3e23659626e57180359c84180947b7ad8",
                    "decodedMethod": {
                        "callParams": [
                            {
                                "name": "account",
                                "type": "address",
                                "value": "0x9a7552f3e23659626e57180359c84180947b7ad8"
                            }
                        ],
                        "constructorArguments": "",
                        "name": "balanceOf",
                        "returnParams": [
                            {
                                "decimalAvailable": true,
                                "name": "",
                                "type": "uint256",
                                "value": "402,752,466,064,363,637,716,267,269"
                            }
                        ],
                        "signature": "balanceOf(address)"
                    },
                    "errorInfo": "",
                    "fromAddress": "0x180555d4d45e67520adc7c0c51b512c7a50877f2",
                    "gasUsed": 863,
                    "id": 30,
                    "methodDecoded": true,
                    "operation": "STATICCALL",
                    "output": "0x0000000000000000000000000000000000000000014d2626ef1d7fceae8fb105",
                    "revert": false,
                    "revertMessage": "",
                    "selector": "0x70a08231",
                    "status": true,
                    "value": "0"
                },
                "nodeType": 0
            },
            "31": {
                "invocation": {
                    "address": "0x2d5c73f3597b07f23c2bb3f2422932e67eca4543",
                    "callData": "0x0000000000000000000000009a7552f3e23659626e57180359c84180947b7ad8",
                    "decodedMethod": {
                        "callParams": [
                            {
                                "name": "account",
                                "type": "address",
                                "value": "0x9a7552f3e23659626e57180359c84180947b7ad8"
                            }
                        ],
                        "constructorArguments": "",
                        "name": "balanceOf",
                        "returnParams": [
                            {
                                "decimalAvailable": true,
                                "name": "",
                                "type": "uint256",
                                "value": "402,752,466,064,363,637,716,267,269"
                            }
                        ],
                        "signature": "balanceOf(address)"
                    },
                    "errorInfo": "",
                    "fromAddress": "0x617dee16b86534a5d792a4d7a62fb491b544111e",
                    "gasUsed": 863,
                    "id": 31,
                    "methodDecoded": true,
                    "operation": "STATICCALL",
                    "output": "0x0000000000000000000000000000000000000000014d2626ef1d7fceae8fb105",
                    "revert": false,
                    "revertMessage": "",
                    "selector": "0x70a08231",
                    "status": true,
                    "value": "0"
                },
                "nodeType": 0
            },
            "32": {
                "event": {
                    "contract": "0x617dee16b86534a5d792a4d7a62fb491b544111e",
                    "decodedLog": {
                        "name": "Swapped",
                        "params": [
                            {
                                "name": "sender",
                                "type": "address",
                                "value": "0x9a7552f3e23659626e57180359c84180947b7ad8"
                            },
                            {
                                "name": "srcToken",
                                "type": "address",
                                "value": "0xeeeeeeeeeeeeeeeeeeeeeeeeeeeeeeeeeeeeeeee"
                            },
                            {
                                "name": "dstToken",
                                "type": "address",
                                "value": "0x2d5c73f3597b07f23c2bb3f2422932e67eca4543"
                            },
                            {
                                "name": "dstReceiver",
                                "type": "address",
                                "value": "0x9a7552f3e23659626e57180359c84180947b7ad8"
                            },
                            {
                                "name": "spentAmount",
                                "type": "uint256",
                                "value": "127,695,111,353,366,480"
                            },
                            {
                                "name": "returnAmount",
                                "type": "uint256",
                                "value": "402,752,466,064,363,637,716,267,269"
                            }
                        ],
                        "signature": "Swapped(address,address,address,address,uint256,uint256)"
                    },
                    "id": 32,
                    "logData": "0x0000000000000000000000009a7552f3e23659626e57180359c84180947b7ad8000000000000000000000000eeeeeeeeeeeeeeeeeeeeeeeeeeeeeeeeeeeeeeee0000000000000000000000002d5c73f3597b07f23c2bb3f2422932e67eca45430000000000000000000000009a7552f3e23659626e57180359c84180947b7ad800000000000000000000000000000000000000000000000001c5aa06f7c577d00000000000000000000000000000000000000000014d2626ef1d7fceae8fb105",
                    "logDecoded": true,
                    "operation": "EVENT",
                    "revert": false,
                    "status": true,
                    "topics": [
                        "0xd6d4f5681c246c9f42c203e287975af1601f8df8035a9251f79aab5c8f09e2f8"
                    ]
                },
                "nodeType": 1
            },
            "33": {
                "event": {
                    "contract": "0x617dee16b86534a5d792a4d7a62fb491b544111e",
                    "decodedLog": {
                        "name": "Exchange",
                        "params": [
                            {
                                "name": "pair",
                                "type": "address",
                                "value": "0x180555d4d45e67520adc7c0c51b512c7a50877f2"
                            },
                            {
                                "name": "amountOut",
                                "type": "uint256",
                                "value": "402,752,466,064,363,637,716,267,269"
                            },
                            {
                                "name": "output",
                                "type": "address",
                                "value": "0x2d5c73f3597b07f23c2bb3f2422932e67eca4543"
                            }
                        ],
                        "signature": "Exchange(address,uint256,address)"
                    },
                    "id": 33,
                    "logData": "0x000000000000000000000000180555d4d45e67520adc7c0c51b512c7a50877f20000000000000000000000000000000000000000014d2626ef1d7fceae8fb1050000000000000000000000002d5c73f3597b07f23c2bb3f2422932e67eca4543",
                    "logDecoded": true,
                    "operation": "EVENT",
                    "revert": false,
                    "status": true,
                    "topics": [
                        "0xddac40937f35385a34f721af292e5a83fc5b840f722bff57c2fc71adba708c48"
                    ]
                },
                "nodeType": 1
            },
            "34": {
                "event": {
                    "contract": "0x617dee16b86534a5d792a4d7a62fb491b544111e",
                    "decodedLog": {
                        "name": "ClientData",
                        "params": [
                            {
                                "name": "clientData",
                                "type": "bytes",
                                "value": "0x7b22536f75726365223a22646578746f6f6c73222c2244617461223a227b5c22736f757263655c223a5c22646578746f6f6c735c227d222c22416d6f756e74496e555344223a223137302e37313930363132393035383839222c22416d6f756e744f7574555344223a223136312e3133333630393337353439363636222c22526566657272616c223a22222c22496e74656772697479496e666f223a7b224b65794944223a2231222c225369676e6174757265223a224f6d3037686f33664f737343655766525371545848376b3445312b524f3662375750613652554a45487a54355936473767364937686d786474394973326a484b2b7076724f6d526842487564554c524446332b75375256394e66504c49305739473477756b394a3671534c636b727634694d672b4a336256624f51782f5050642b2b54684b2b6b4b3741466532342b684134577677464d652b73414334456d765066786a69444871632f493d227d7d"
                            }
                        ],
                        "signature": "ClientData(bytes)"
                    },
                    "id": 34,
                    "logData": "0x000000000000000000000000000000000000000000000000000000000000002000000000000000000000000000000000000000000000000000000000000001657b22536f75726365223a22646578746f6f6c73222c2244617461223a227b5c22736f757263655c223a5c22646578746f6f6c735c227d222c22416d6f756e74496e555344223a223137302e37313930363132393035383839222c22416d6f756e744f7574555344223a223136312e3133333630393337353439363636222c22526566657272616c223a22222c22496e74656772697479496e666f223a7b224b65794944223a2231222c225369676e6174757265223a224f6d3037686f33664f737343655766525371545848376b3445312b524f3662375750613652554a45487a54355936473767364937686d786474394973326a484b2b7076724f6d526842487564554c524446332b75375256394e66504c49305739473477756b394a3671534c636b727634694d672b4a336256624f51782f5050642b2b54684b2b6b4b3741466532342b684134577677464d652b73414334456d765066786a69444871632f493d227d7d000000000000000000000000000000000000000000000000000000",
                    "logDecoded": true,
                    "operation": "EVENT",
                    "revert": false,
                    "status": true,
                    "topics": [
                        "0x095e66fa4dd6a6f7b43fb8444a7bd0edb870508c7abf639bc216efb0bcff9779"
                    ]
                },
                "nodeType": 1
            },
            "4": {
                "invocation": {
                    "address": "0xc02aaa39b223fe8d0a0e5c4f27ead9083c756cc2",
                    "callData": "0x",
                    "decodedMethod": {
                        "callParams": [],
                        "constructorArguments": "",
                        "name": "deposit",
                        "returnParams": [],
                        "signature": "deposit()"
                    },
                    "errorInfo": "",
                    "fromAddress": "0x180555d4d45e67520adc7c0c51b512c7a50877f2",
                    "gasUsed": 23974,
                    "id": 4,
                    "methodDecoded": true,
                    "operation": "CALL",
                    "output": "",
                    "revert": false,
                    "revertMessage": "",
                    "selector": "0xd0e30db0",
                    "status": true,
                    "value": "0.127312026019306381"
                },
                "nodeType": 0
            },
            "5": {
                "event": {
                    "contract": "0xc02aaa39b223fe8d0a0e5c4f27ead9083c756cc2",
                    "decodedLog": {
                        "name": "Deposit",
                        "params": [
                            {
                                "name": "dst",
                                "type": "address",
                                "value": "0x180555d4d45e67520adc7c0c51b512c7a50877f2"
                            },
                            {
                                "name": "wad",
                                "type": "uint256",
                                "value": "127,312,026,019,306,381"
                            }
                        ],
                        "signature": "Deposit(address,uint256)"
                    },
                    "id": 5,
                    "logData": "0x00000000000000000000000000000000000000000000000001c44d9cf6841b8d",
                    "logDecoded": true,
                    "operation": "EVENT",
                    "revert": false,
                    "status": true,
                    "topics": [
                        "0xe1fffcc4923d04b559f4d29a8bfc6cda04eb5b0d3c460751c2402c5c5cc9109c",
                        "0x000000000000000000000000180555d4d45e67520adc7c0c51b512c7a50877f2"
                    ]
                },
                "nodeType": 1
            },
            "6": {
                "invocation": {
                    "address": "0x2d5c73f3597b07f23c2bb3f2422932e67eca4543",
                    "callData": "0x0000000000000000000000009a7552f3e23659626e57180359c84180947b7ad8",
                    "decodedMethod": {
                        "callParams": [
                            {
                                "name": "account",
                                "type": "address",
                                "value": "0x9a7552f3e23659626e57180359c84180947b7ad8"
                            }
                        ],
                        "constructorArguments": "",
                        "name": "balanceOf",
                        "returnParams": [
                            {
                                "decimalAvailable": true,
                                "name": "",
                                "type": "uint256",
                                "value": "0"
                            }
                        ],
                        "signature": "balanceOf(address)"
                    },
                    "errorInfo": "",
                    "fromAddress": "0x180555d4d45e67520adc7c0c51b512c7a50877f2",
                    "gasUsed": 863,
                    "id": 6,
                    "methodDecoded": true,
                    "operation": "STATICCALL",
                    "output": "0x0000000000000000000000000000000000000000000000000000000000000000",
                    "revert": false,
                    "revertMessage": "",
                    "selector": "0x70a08231",
                    "status": true,
                    "value": "0"
                },
                "nodeType": 0
            },
            "7": {
                "invocation": {
                    "address": "0xc02aaa39b223fe8d0a0e5c4f27ead9083c756cc2",
                    "callData": "0x000000000000000000000000180555d4d45e67520adc7c0c51b512c7a50877f2",
                    "decodedMethod": {
                        "callParams": [
                            {
                                "name": "",
                                "type": "address",
                                "value": "0x180555d4d45e67520adc7c0c51b512c7a50877f2"
                            }
                        ],
                        "constructorArguments": "",
                        "name": "balanceOf",
                        "returnParams": [
                            {
                                "decimalAvailable": true,
                                "name": "",
                                "type": "uint256",
                                "value": "127,312,026,019,306,381"
                            }
                        ],
                        "signature": "balanceOf(address)"
                    },
                    "errorInfo": "",
                    "fromAddress": "0x180555d4d45e67520adc7c0c51b512c7a50877f2",
                    "gasUsed": 534,
                    "id": 7,
                    "methodDecoded": true,
                    "operation": "STATICCALL",
                    "output": "0x00000000000000000000000000000000000000000000000001c44d9cf6841b8d",
                    "revert": false,
                    "revertMessage": "",
                    "selector": "0x70a08231",
                    "status": true,
                    "value": "0"
                },
                "nodeType": 0
            },
            "8": {
                "invocation": {
                    "address": "0xc02aaa39b223fe8d0a0e5c4f27ead9083c756cc2",
                    "callData": "0x000000000000000000000000a7abacaa6dd8d42c9948765da330d8812666a2e300000000000000000000000000000000000000000000000001c44d9cf6841b8d",
                    "decodedMethod": {
                        "callParams": [
                            {
                                "name": "dst",
                                "type": "address",
                                "value": "0xa7abacaa6dd8d42c9948765da330d8812666a2e3"
                            },
                            {
                                "decimalAvailable": true,
                                "name": "wad",
                                "type": "uint256",
                                "value": "127,312,026,019,306,381"
                            }
                        ],
                        "constructorArguments": "",
                        "name": "transfer",
                        "returnParams": [
                            {
                                "name": "",
                                "type": "bool",
                                "value": true
                            }
                        ],
                        "signature": "transfer(address,uint256)"
                    },
                    "errorInfo": "",
                    "fromAddress": "0x180555d4d45e67520adc7c0c51b512c7a50877f2",
                    "gasUsed": 8062,
                    "id": 8,
                    "methodDecoded": true,
                    "operation": "CALL",
                    "output": "0x0000000000000000000000000000000000000000000000000000000000000001",
                    "revert": false,
                    "revertMessage": "",
                    "selector": "0xa9059cbb",
                    "status": true,
                    "value": "0"
                },
                "nodeType": 0
            },
            "9": {
                "event": {
                    "contract": "0xc02aaa39b223fe8d0a0e5c4f27ead9083c756cc2",
                    "decodedLog": {
                        "name": "Transfer",
                        "params": [
                            {
                                "name": "src",
                                "type": "address",
                                "value": "0x180555d4d45e67520adc7c0c51b512c7a50877f2"
                            },
                            {
                                "name": "dst",
                                "type": "address",
                                "value": "0xa7abacaa6dd8d42c9948765da330d8812666a2e3"
                            },
                            {
                                "decimalAvailable": true,
                                "name": "wad",
                                "type": "uint256",
                                "value": "127,312,026,019,306,381"
                            }
                        ],
                        "signature": "Transfer(address,address,uint256)"
                    },
                    "id": 9,
                    "logData": "0x00000000000000000000000000000000000000000000000001c44d9cf6841b8d",
                    "logDecoded": true,
                    "operation": "EVENT",
                    "revert": false,
                    "status": true,
                    "topics": [
                        "0xddf252ad1be2c89b69c2b068fc378daa952ba7f163c4a11628f55a4df523b3ef",
                        "0x000000000000000000000000180555d4d45e67520adc7c0c51b512c7a50877f2",
                        "0x000000000000000000000000a7abacaa6dd8d42c9948765da330d8812666a2e3"
                    ]
                },
                "nodeType": 1
            }
        },
        "gasFlame": [
            {
                "children": [
                    {
                        "children": [
                            {
                                "children": [],
                                "depth": 0,
                                "name": "Initial Gas",
                                "value": 36088
                            },
                            {
                                "children": [
                                    {
                                        "children": [],
                                        "depth": 1,
                                        "name": "fallback",
                                        "value": 0
                                    },
                                    {
                                        "children": [],
                                        "depth": 1,
                                        "name": "balanceOf",
                                        "value": 2863
                                    },
                                    {
                                        "children": [
                                            {
                                                "children": [],
                                                "depth": 2,
                                                "name": "deposit",
                                                "value": 23974
                                            },
                                            {
                                                "children": [],
                                                "depth": 2,
                                                "name": "balanceOf",
                                                "value": 863
                                            },
                                            {
                                                "children": [],
                                                "depth": 2,
                                                "name": "balanceOf",
                                                "value": 534
                                            },
                                            {
                                                "children": [],
                                                "depth": 2,
                                                "name": "transfer",
                                                "value": 8062
                                            },
                                            {
                                                "children": [
                                                    {
                                                        "children": [],
                                                        "depth": 3,
                                                        "name": "getReserves",
                                                        "value": 2504
                                                    },
                                                    {
                                                        "children": [],
                                                        "depth": 3,
                                                        "name": "token0",
                                                        "value": 2381
                                                    },
                                                    {
                                                        "children": [],
                                                        "depth": 3,
                                                        "name": "token1",
                                                        "value": 2357
                                                    },
                                                    {
                                                        "children": [],
                                                        "depth": 3,
                                                        "name": "token0",
                                                        "value": 381
                                                    }
                                                ],
                                                "depth": 2,
                                                "name": "getFactoryReserveAndWeights",
                                                "value": 16861
                                            },
                                            {
                                                "children": [],
                                                "depth": 2,
                                                "name": "balanceOf",
                                                "value": 534
                                            },
                                            {
                                                "children": [],
                                                "depth": 2,
                                                "name": "getAmountOut",
                                                "value": 1070
                                            },
                                            {
                                                "children": [],
                                                "depth": 2,
                                                "name": "balanceOf",
                                                "value": 863
                                            },
                                            {
                                                "children": [],
                                                "depth": 2,
                                                "name": "token0",
                                                "value": 381
                                            },
                                            {
                                                "children": [
                                                    {
                                                        "children": [],
                                                        "depth": 3,
                                                        "name": "transfer",
                                                        "value": 28891
                                                    },
                                                    {
                                                        "children": [],
                                                        "depth": 3,
                                                        "name": "balanceOf",
                                                        "value": 863
                                                    },
                                                    {
                                                        "children": [],
                                                        "depth": 3,
                                                        "name": "balanceOf",
                                                        "value": 534
                                                    }
                                                ],
                                                "depth": 2,
                                                "name": "swap",
                                                "value": 57611
                                            },
                                            {
                                                "children": [],
                                                "depth": 2,
                                                "name": "balanceOf",
                                                "value": 863
                                            },
                                            {
                                                "children": [],
                                                "depth": 2,
                                                "name": "balanceOf",
                                                "value": 2863
                                            },
                                            {
                                                "children": [],
                                                "depth": 2,
                                                "name": "balanceOf",
                                                "value": 534
                                            },
                                            {
                                                "children": [],
                                                "depth": 2,
                                                "name": "balanceOf",
                                                "value": 863
                                            }
                                        ],
                                        "depth": 1,
                                        "name": "callBytes",
                                        "value": 144562
                                    },
                                    {
                                        "children": [],
                                        "depth": 1,
                                        "name": "balanceOf",
                                        "value": 863
                                    }
                                ],
                                "depth": 0,
                                "name": "Executed Gas",
                                "value": 186441
                            }
                        ],
                        "depth": -1,
                        "name": "Actual Gas Used",
                        "value": 199829
                    },
                    {
                        "children": [],
                        "depth": -1,
                        "name": "Refunded Gas",
                        "value": 22700
                    }
                ],
                "depth": -2,
                "name": "Total Gas",
                "value": 222529
            }
        ],
        "isConfirmed": true,
        "mainTrace": [
            {
                "children": [
                    {
                        "children": [
                            {
                                "children": [],
                                "depth": 1,
                                "id": 1,
                                "order": 1
                            },
                            {
                                "children": [],
                                "depth": 1,
                                "id": 2,
                                "order": 2
                            },
                            {
                                "children": [
                                    {
                                        "children": [
                                            {
                                                "children": [],
                                                "depth": 3,
                                                "id": 5,
                                                "order": 5
                                            }
                                        ],
                                        "depth": 2,
                                        "id": 4,
                                        "order": 4
                                    },
                                    {
                                        "children": [],
                                        "depth": 2,
                                        "id": 6,
                                        "order": 6
                                    },
                                    {
                                        "children": [],
                                        "depth": 2,
                                        "id": 7,
                                        "order": 7
                                    },
                                    {
                                        "children": [
                                            {
                                                "children": [],
                                                "depth": 3,
                                                "id": 9,
                                                "order": 9
                                            }
                                        ],
                                        "depth": 2,
                                        "id": 8,
                                        "order": 8
                                    },
                                    {
                                        "children": [
                                            {
                                                "children": [],
                                                "depth": 3,
                                                "id": 11,
                                                "order": 11
                                            },
                                            {
                                                "children": [],
                                                "depth": 3,
                                                "id": 12,
                                                "order": 12
                                            },
                                            {
                                                "children": [],
                                                "depth": 3,
                                                "id": 13,
                                                "order": 13
                                            },
                                            {
                                                "children": [],
                                                "depth": 3,
                                                "id": 14,
                                                "order": 14
                                            }
                                        ],
                                        "depth": 2,
                                        "id": 10,
                                        "order": 10
                                    },
                                    {
                                        "children": [],
                                        "depth": 2,
                                        "id": 15,
                                        "order": 15
                                    },
                                    {
                                        "children": [],
                                        "depth": 2,
                                        "id": 16,
                                        "order": 16
                                    },
                                    {
                                        "children": [],
                                        "depth": 2,
                                        "id": 17,
                                        "order": 17
                                    },
                                    {
                                        "children": [],
                                        "depth": 2,
                                        "id": 18,
                                        "order": 18
                                    },
                                    {
                                        "children": [
                                            {
                                                "children": [
                                                    {
                                                        "children": [],
                                                        "depth": 4,
                                                        "id": 21,
                                                        "order": 21
                                                    }
                                                ],
                                                "depth": 3,
                                                "id": 20,
                                                "order": 20
                                            },
                                            {
                                                "children": [],
                                                "depth": 3,
                                                "id": 22,
                                                "order": 22
                                            },
                                            {
                                                "children": [],
                                                "depth": 3,
                                                "id": 23,
                                                "order": 23
                                            },
                                            {
                                                "children": [],
                                                "depth": 3,
                                                "id": 24,
                                                "order": 24
                                            },
                                            {
                                                "children": [],
                                                "depth": 3,
                                                "id": 25,
                                                "order": 25
                                            }
                                        ],
                                        "depth": 2,
                                        "id": 19,
                                        "order": 19
                                    },
                                    {
                                        "children": [],
                                        "depth": 2,
                                        "id": 26,
                                        "order": 26
                                    },
                                    {
                                        "children": [],
                                        "depth": 2,
                                        "id": 27,
                                        "order": 27
                                    },
                                    {
                                        "children": [],
                                        "depth": 2,
                                        "id": 28,
                                        "order": 28
                                    },
                                    {
                                        "children": [],
                                        "depth": 2,
                                        "id": 29,
                                        "order": 29
                                    },
                                    {
                                        "children": [],
                                        "depth": 2,
                                        "id": 30,
                                        "order": 30
                                    }
                                ],
                                "depth": 1,
                                "id": 3,
                                "order": 3
                            },
                            {
                                "children": [],
                                "depth": 1,
                                "id": 31,
                                "order": 31
                            },
                            {
                                "children": [],
                                "depth": 1,
                                "id": 32,
                                "order": 32
                            },
                            {
                                "children": [],
                                "depth": 1,
                                "id": 33,
                                "order": 33
                            },
                            {
                                "children": [],
                                "depth": 1,
                                "id": 34,
                                "order": 34
                            }
                        ],
                        "depth": 0,
                        "id": 0,
                        "order": 0
                    }
                ],
                "depth": -1,
                "id": -1,
                "order": -1
            }
        ],
        "mainTraceNodeCount": 35,
        "parentIdMap": {
            "0": -1,
            "1": 0,
            "10": 3,
            "11": 10,
            "12": 10,
            "13": 10,
            "14": 10,
            "15": 3,
            "16": 3,
            "17": 3,
            "18": 3,
            "19": 3,
            "2": 0,
            "20": 19,
            "21": 20,
            "22": 19,
            "23": 19,
            "24": 19,
            "25": 19,
            "26": 3,
            "27": 3,
            "28": 3,
            "29": 3,
            "3": 0,
            "30": 3,
            "31": 0,
            "32": 0,
            "33": 0,
            "34": 0,
            "4": 3,
            "5": 4,
            "6": 3,
            "7": 3,
            "8": 3,
            "9": 8
        },
        "tidyTrace": [
            {
                "children": [
                    {
                        "children": [
                            {
                                "children": [],
                                "depth": 1,
                                "id": 1,
                                "order": 1
                            },
                            {
                                "children": [
                                    {
                                        "children": [
                                            {
                                                "children": [],
                                                "depth": 3,
                                                "id": 5,
                                                "order": 5
                                            }
                                        ],
                                        "depth": 2,
                                        "id": 4,
                                        "order": 4
                                    },
                                    {
                                        "children": [
                                            {
                                                "children": [],
                                                "depth": 3,
                                                "id": 9,
                                                "order": 9
                                            }
                                        ],
                                        "depth": 2,
                                        "id": 8,
                                        "order": 8
                                    },
                                    {
                                        "children": [
                                            {
                                                "children": [
                                                    {
                                                        "children": [],
                                                        "depth": 4,
                                                        "id": 21,
                                                        "order": 21
                                                    }
                                                ],
                                                "depth": 3,
                                                "id": 20,
                                                "order": 20
                                            },
                                            {
                                                "children": [],
                                                "depth": 3,
                                                "id": 24,
                                                "order": 24
                                            },
                                            {
                                                "children": [],
                                                "depth": 3,
                                                "id": 25,
                                                "order": 25
                                            }
                                        ],
                                        "depth": 2,
                                        "id": 19,
                                        "order": 19
                                    },
                                    {
                                        "children": [],
                                        "depth": 2,
                                        "id": 26,
                                        "order": 26
                                    }
                                ],
                                "depth": 1,
                                "id": 3,
                                "order": 3
                            },
                            {
                                "children": [],
                                "depth": 1,
                                "id": 32,
                                "order": 32
                            },
                            {
                                "children": [],
                                "depth": 1,
                                "id": 33,
                                "order": 33
                            },
                            {
                                "children": [],
                                "depth": 1,
                                "id": 34,
                                "order": 34
                            }
                        ],
                        "depth": 0,
                        "id": 0,
                        "order": 0
                    }
                ],
                "depth": -1,
                "id": -1,
                "order": -1
            }
        ],
        "tidyTraceNodeCount": 16
    },
    "state_change": {
        "stateChanges": [
            {
                "address": "0x2d5c73f3597b07f23c2bb3f2422932e67eca4543",
                "erc": "ERC-20",
                "slots": [
                    {
                        "current": "0x0000000000000000000000000000000000000000014d2626ef1d7fceae8fb105",
                        "key": "0x7a13f5181745989ca74f0182f6c2eaa9cf8c8f47eca88e24b605e15a7107b8b4",
                        "prev": "0x0000000000000000000000000000000000000000000000000000000000000000"
                    },
                    {
                        "current": "0x0000000000000000000000000000000000000001332031ad11d8bf443cba8c42",
                        "key": "0xd764b2fc90210d4a0d01172f1e0040128fd926c1fdd7855bc2100f77bcb2e8d7",
                        "prev": "0x0000000000000000000000000000000000000001346d57d400f63f12eb4a3d47"
                    }
                ],
                "storageVariables": [
                    {
                        "name": "_balances",
                        "type": "mapping(address => uint256)",
                        "value": {
                            "pairs": [
                                {
                                    "key": "0x9a7552f3e23659626e57180359c84180947b7ad8",
                                    "value": {
                                        "current": "402752466064363637716267269",
                                        "prev": "0",
                                        "typeTag": 1
                                    }
                                },
                                {
                                    "key": "0xa7abacaa6dd8d42c9948765da330d8812666a2e3",
                                    "value": {
                                        "current": "95050818229910977589878099010",
                                        "prev": "95453570695975341227594366279",
                                        "typeTag": 1
                                    }
                                }
                            ],
                            "typeTag": 4
                        }
                    }
                ]
            },
            {
                "address": "0xa7abacaa6dd8d42c9948765da330d8812666a2e3",
                "erc": "ERC-20",
                "slots": [
                    {
                        "current": "0x000000000000000000000000000000000000001e23bd15a6575b0c04b0f6a97c",
                        "key": "0x0000000000000000000000000000000000000000000000000000000000000009",
                        "prev": "0x000000000000000000000000000000000000001dfd6327fd8b1edd87d1797bf8"
                    },
                    {
                        "current": "0x00000000000000000000006de266635e10d25735d47477621349212e45d4b8a0",
                        "key": "0x000000000000000000000000000000000000000000000000000000000000000a",
                        "prev": "0x00000000000000000000006dcd4a54798001c8b34ca8c7c74ec12c9fea06f4a4"
                    },
                    {
                        "current": "0x63565e5f000000000001a17d019d4742b02e0001332031ad11d8bf443cba8c42",
                        "key": "0x0000000000000000000000000000000000000000000000000000000000000008",
                        "prev": "0x635641eb0000000000019fb8b40050be94a10001346d57d400f63f12eb4a3d47"
                    }
                ],
                "storageVariables": [
                    {
                        "name": "price0CumulativeLast",
                        "type": "uint256",
                        "value": {
                            "current": "2387905439989734664742509128060",
                            "prev": "2376036292903951716849097997304",
                            "typeTag": 1
                        }
                    },
                    {
                        "name": "price1CumulativeLast",
                        "type": "uint256",
                        "value": {
                            "current": "160596193715410065474178738227012038331750216415392",
                            "prev": "160475679191008331564521001790309838408699185919140",
                            "typeTag": 1
                        }
                    },
                    {
                        "name": "reserve0",
                        "type": "uint112",
                        "value": {
                            "current": "95050818229910977589878099010",
                            "prev": "95453570695975341227594366279",
                            "typeTag": 1
                        }
                    },
                    {
                        "name": "reserve1",
                        "type": "uint112",
                        "value": {
                            "current": "30083202860921827374",
                            "prev": "29955890834902520993",
                            "typeTag": 1
                        }
                    },
                    {
                        "name": "blockTimestampLast",
                        "type": "uint32",
                        "value": {
                            "current": "1666604639",
                            "prev": "1666597355",
                            "typeTag": 1
                        }
                    }
                ]
            },
            {
                "address": "0xc02aaa39b223fe8d0a0e5c4f27ead9083c756cc2",
                "erc": "ERC-20",
                "slots": [
                    {
                        "current": "0x000000000000000000000000000000000000000000000001a17d019d4742b02e",
                        "key": "0x5a8577ae3f5d17aa241b2b471ce5dfc9f1126daa7ce2e17484ffbb2dcba3d05d",
                        "prev": "0x0000000000000000000000000000000000000000000000019fb8b40050be94a1"
                    }
                ],
                "storageVariables": [
                    {
                        "name": "balanceOf",
                        "type": "mapping(address => uint256)",
                        "value": {
                            "pairs": [
                                {
                                    "key": "0xa7abacaa6dd8d42c9948765da330d8812666a2e3",
                                    "value": {
                                        "current": "30083202860921827374",
                                        "prev": "29955890834902520993",
                                        "typeTag": 1
                                    }
                                }
                            ],
                            "typeTag": 4
                        }
                    }
                ]
            }
        ]
    }
}