{
    "balance_change": {
        "balanceChanges": [
            {
                "account": "0x304cc179719bc5b05418d6f7f6783abe45d83090",
                "assets": [
                    {
                        "address": "0x67237b0294f78ebd5a2ba97fa7179d248df00401",
                        "amount": "333",
                        "iconUrl": "",
                        "isERC1155": false,
                        "isERC721": false,
                        "sign": false,
                        "value": ""
                    }
                ]
            },
            {
                "account": "0xc30f7fb87e815af58522f5b7dff05b9520854e29",
                "assets": [
                    {
                        "address": "0x67237b0294f78ebd5a2ba97fa7179d248df00401",
                        "amount": "333",
                        "iconUrl": "",
                        "isERC1155": false,
                        "isERC721": false,
                        "sign": true,
                        "value": ""
                    }
                ]
            }
        ]
    },
    "profile": {
        "basic_info": {
            "baseFee": "",
            "blockNumber": 3680493,
            "callData": "0xa9059cbb000000000000000000000000c30f7fb87e815af58522f5b7dff05b9520854e290000000000000000000000000000000000000000000000002e36895b5e0d0000",
            "debugEnable": true,
            "errorInfo": "",
            "eventCount": 1,
            "feeRecipient": "0xea674fdde714fd979de3edf0f56aa9716b898ec8",
            "formatValue": "0",
            "gasLimit": 250000,
            "gasPrice": "20",
            "gasUsed": 51859,
            "intTxnCount": 0,
            "internalRevert": false,
            "internalRevertMessage": "",
            "isContractCreation": false,
            "isFlashloan": false,
            "maxFee": "",
            "nonce": 16943,
            "overwritedBlockNumber": -1,
            "priorityFee": "",
            "receiver": "0x67237b0294f78ebd5a2ba97fa7179d248df00401",
            "revertMessage": "",
            "sender": "0x304cc179719bc5b05418d6f7f6783abe45d83090",
            "simulationEnable": true,
            "sourceTxnHash": "0x8e301ed03faa9b9f22cd891c1965ebfac93c945160904eb8812e9dd6a70aea91",
            "status": true,
            "timestamp": "2017-05-10T01:56:59Z",
            "transactionFee": "0.00103718",
            "txnHash": "0x8e301ed03faa9b9f22cd891c1965ebfac93c945160904eb8812e9dd6a70aea91",
            "txnIndex": 9,
            "type": 0,
            "value": "0"
        },
        "fund_flow": [
            {
                "amount": "333",
                "from": "0x304cc179719bc5b05418d6f7f6783abe45d83090",
                "id": 1,
                "isERC1155": false,
                "isERC721": false,
                "isReverted": false,
                "order": 1,
                "to": "0xc30f7fb87e815af58522f5b7dff05b9520854e29",
                "token": "0x67237b0294f78ebd5a2ba97fa7179d248df00401"
            }
        ],
        "token_infos": [
            {
                "address": "0x67237b0294f78ebd5a2ba97fa7179d248df00401",
                "decimals": 16
            },
            {
                "address": "0xc02aaa39b223fe8d0a0e5c4f27ead9083c756cc2",
                "decimals": 18
            },
            {
                "address": "0xeeeeeeeeeeeeeeeeeeeeeeeeeeeeeeeeeeeeeeee",
                "decimals": 18
            }
        ]
    },
    "address_label": {
        "labels": [
            {
                "address": "0x0000000000000000000000000000000000000003",
                "label": "Precompiled"
            },
            {
                "address": "0x0000000000000000000000000000000000000004",
                "label": "Precompiled"
            },
            {
                "address": "0xeeeeeeeeeeeeeeeeeeeeeeeeeeeeeeeeeeeeeeee",
                "label": "Ether"
            },
            {
                "address": "0x67237b0294f78ebd5a2ba97fa7179d248df00401",
                "label": "AsiaDigiCoin: ADCN Token"
            },
            {
                "address": "0x0000000000000000000000000000000000000001",
                "label": "Precompiled"
            },
            {
                "address": "0x0000000000000000000000000000000000000002",
                "label": "Precompiled"
            }
        ]
    },
    "trace": {
        "accountLabels": null,
        "dataMap": {
            "-1": {
                "invocation": {
                    "address": "0x304cc179719bc5b05418d6f7f6783abe45d83090",
                    "callData": "",
                    "decodedMethod": null,
                    "errorInfo": "",
                    "fromAddress": "",
                    "gasUsed": 0,
                    "id": -1,
                    "methodDecoded": false,
                    "operation": "",
                    "output": "",
                    "revert": false,
                    "revertMessage": "",
                    "selector": "",
                    "status": false,
                    "value": ""
                },
                "nodeType": 0
            },
            "0": {
                "invocation": {
                    "address": "0x67237b0294f78ebd5a2ba97fa7179d248df00401",
                    "callData": "0x000000000000000000000000c30f7fb87e815af58522f5b7dff05b9520854e290000000000000000000000000000000000000000000000002e36895b5e0d0000",
                    "decodedMethod": {
                        "callParams": [
                            {
                                "name": "_to",
                                "type": "address",
                                "value": "0xc30f7fb87e815af58522f5b7dff05b9520854e29"
                            },
                            {
                                "decimalAvailable": true,
                                "name": "_value",
                                "type": "uint256",
                                "value": "3,330,000,000,000,000,000"
                            }
                        ],
                        "constructorArguments": "",
                        "name": "transfer",
                        "returnParams": [],
                        "signature": "transfer(address,uint256)"
                    },
                    "errorInfo": "",
                    "fromAddress": "0x304cc179719bc5b05418d6f7f6783abe45d83090",
                    "gasUsed": 51859,
                    "id": 0,
                    "methodDecoded": true,
                    "operation": "CALL",
                    "output": "",
                    "revert": false,
                    "revertMessage": "",
                    "selector": "0xa9059cbb",
                    "status": true,
                    "value": "0"
                },
                "nodeType": 0
            },
            "1": {
                "event": {
                    "contract": "0x67237b0294f78ebd5a2ba97fa7179d248df00401",
                    "decodedLog": {
                        "name": "Transfer",
                        "params": [
                            {
                                "name": "from",
                                "type": "address",
                                "value": "0x304cc179719bc5b05418d6f7f6783abe45d83090"
                            },
                            {
                                "name": "to",
                                "type": "address",
                                "value": "0xc30f7fb87e815af58522f5b7dff05b9520854e29"
                            },
                            {
                                "decimalAvailable": true,
                                "name": "value",
                                "type": "uint256",
                                "value": "3,330,000,000,000,000,000"
                            }
                        ],
                        "signature": "Transfer(address,address,uint256)"
                    },
                    "id": 1,
                    "logData": "0x0000000000000000000000000000000000000000000000002e36895b5e0d0000",
                    "logDecoded": true,
                    "operation": "EVENT",
                    "revert": false,
                    "status": true,
                    "topics": [
                        "0xddf252ad1be2c89b69c2b068fc378daa952ba7f163c4a11628f55a4df523b3ef",
                        "0x000000000000000000000000304cc179719bc5b05418d6f7f6783abe45d83090",
                        "0x000000000000000000000000c30f7fb87e815af58522f5b7dff05b9520854e29"
                    ]
                },
                "nodeType": 1
            }
        },
        "gasFlame": [
            {
                "children": [
                    {
                        "children": [
                            {
                                "children": [],
                                "depth": 0,
                                "name": "Initial Gas",
                                "value": 23192
                            },
                            {
                                "children": [],
                                "depth": 0,
                                "name": "Executed Gas",
                                "value": 28667
                            }
                        ],
                        "depth": -1,
                        "name": "Actual Gas Used",
                        "value": 51859
                    },
                    {
                        "children": [],
                        "depth": -1,
                        "name": "Refunded Gas",
                        "value": 0
                    }
                ],
                "depth": -2,
                "name": "Total Gas",
                "value": 51859
            }
        ],
        "isConfirmed": true,
        "mainTrace": [
            {
                "children": [
                    {
                        "children": [
                            {
                                "children": [],
                                "depth": 1,
                                "id": 1,
                                "order": 1
                            }
                        ],
                        "depth": 0,
                        "id": 0,
                        "order": 0
                    }
                ],
                "depth": -1,
                "id": -1,
                "order": -1
            }
        ],
        "mainTraceNodeCount": 2,
        "parentIdMap": {
            "0": -1,
            "1": 0
        },
        "tidyTrace": [
            {
                "children": [
                    {
                        "children": [
                            {
                                "children": [],
                                "depth": 1,
                                "id": 1,
                                "order": 1
                            }
                        ],
                        "depth": 0,
                        "id": 0,
                        "order": 0
                    }
                ],
                "depth": -1,
                "id": -1,
                "order": -1
            }
        ],
        "tidyTraceNodeCount": 2
    },
    "state_change": {
        "stateChanges": [
            {
                "address": "0x67237b0294f78ebd5a2ba97fa7179d248df00401",
                "erc": "",
                "slots": [
                    {
                        "current": "0x0000000000000000000000000000000000000000000011b4c18e13acbb60e600",
                        "key": "0x6b488b1781b8df255f71cfb64aa17fadcde002cc9455d392acd3873790e370f4",
                        "prev": "0x0000000000000000000000000000000000000000000011b4efc49d08196de600"
                    },
                    {
                        "current": "0x0000000000000000000000000000000000000000000000002e36895b5e0d0000",
                        "key": "0xb444e4ed5a0f91155e29d5568cd272cecbc7e1893771c47002b3a84ba6bf9758",
                        "prev": "0x0000000000000000000000000000000000000000000000000000000000000000"
                    }
                ],
                "storageVariables": []
            }
        ]
    }
}