{
    "balance_change": {
        "balanceChanges": [
            {
                "account": "0x7ff7f3e8e6ff44a1426adfcc65cfb0dbaba28042",
                "assets": [
                    {
                        "address": "0xdac17f958d2ee523a2206206994597c13d831ec7",
                        "amount": "100,000",
                        "iconUrl": "https://assets.blocksec.com/icon/fcea71f3193ce895be44bfdf941f7e4c9381dd587f273c2d1a27f1263d84e4ea.png",
                        "isERC1155": false,
                        "isERC721": false,
                        "sign": false,
                        "value": "100000"
                    }
                ]
            },
            {
                "account": "0xc804c6f21dae1e5b1a959db7ca48da521f7609c9",
                "assets": [
                    {
                        "address": "0xdac17f958d2ee523a2206206994597c13d831ec7",
                        "amount": "100,000",
                        "iconUrl": "https://assets.blocksec.com/icon/fcea71f3193ce895be44bfdf941f7e4c9381dd587f273c2d1a27f1263d84e4ea.png",
                        "isERC1155": false,
                        "isERC721": false,
                        "sign": true,
                        "value": "100000"
                    }
                ]
            }
        ]
    },
    "profile": {
        "basic_info": {
            "baseFee": "1.493230683",
            "blockNumber": 20473197,
            "callData": "0xa9059cbb000000000000000000000000c804c6f21dae1e5b1a959db7ca48da521f7609c9000000000000000000000000000000000000000000000000000000174876e800",
            "debugEnable": true,
            "errorInfo": "",
            "eventCount": 1,
            "feeRecipient": "0x1f9090aae28b8a3dceadf281b0f12828e676c326",
            "formatValue": "0",
            "gasLimit": 80000,
            "gasPrice": "3.493230683",
            "gasUsed": 46109,
            "intTxnCount": 0,
            "internalRevert": false,
            "internalRevertMessage": "",
            "isContractCreation": false,
            "isFlashloan": false,
            "maxFee": "6.25",
            "nonce": 728,
            "overwritedBlockNumber": -1,
            "priorityFee": "2",
            "receiver": "0xdac17f958d2ee523a2206206994597c13d831ec7",
            "revertMessage": "",
            "sender": "0x7ff7f3e8e6ff44a1426adfcc65cfb0dbaba28042",
            "simulationEnable": true,
            "sourceTxnHash": "0x8ee9ec826e797508b92da81f730e83f95171d153c3eb081387cddacd6067122d",
            "status": true,
            "timestamp": "2024-08-07T00:45:35Z",
            "transactionFee": "0.000161069373562447",
            "txnHash": "0x8ee9ec826e797508b92da81f730e83f95171d153c3eb081387cddacd6067122d",
            "txnIndex": 43,
            "type": 2,
            "value": "0"
        },
        "fund_flow": [
            {
                "amount": "100,000",
                "from": "0x7ff7f3e8e6ff44a1426adfcc65cfb0dbaba28042",
                "id": 1,
                "isERC1155": false,
                "isERC721": false,
                "isReverted": false,
                "order": 1,
                "to": "0xc804c6f21dae1e5b1a959db7ca48da521f7609c9",
                "token": "0xdac17f958d2ee523a2206206994597c13d831ec7"
            }
        ],
        "token_infos": [
            {
                "address": "0xc02aaa39b223fe8d0a0e5c4f27ead9083c756cc2",
                "decimals": 18
            },
            {
                "address": "0xdac17f958d2ee523a2206206994597c13d831ec7",
                "decimals": 6
            },
            {
                "address": "0xeeeeeeeeeeeeeeeeeeeeeeeeeeeeeeeeeeeeeeee",
                "decimals": 18
            }
        ]
    },
    "address_label": {
        "labels": [
            {
                "address": "0x0000000000000000000000000000000000000001",
                "label": "Precompiled"
            },
            {
                "address": "0x0000000000000000000000000000000000000002",
                "label": "Precompiled"
            },
            {
                "address": "0x0000000000000000000000000000000000000003",
                "label": "Precompiled"
            },
            {
                "address": "0x0000000000000000000000000000000000000004",
                "label": "Precompiled"
            },
            {
                "address": "0xeeeeeeeeeeeeeeeeeeeeeeeeeeeeeeeeeeeeeeee",
                "label": "Ether"
            },
            {
                "address": "0xdac17f958d2ee523a2206206994597c13d831ec7",
                "label": "Tether: USDT Stablecoin"
            }
        ]
    },
    "trace": {
        "accountLabels": null,
        "dataMap": {
            "-1": {
                "invocation": {
                    "address": "0x7ff7f3e8e6ff44a1426adfcc65cfb0dbaba28042",
                    "callData": "",
                    "decodedMethod": null,
                    "errorInfo": "",
                    "fromAddress": "",
                    "gasUsed": 0,
                    "id": -1,
                    "methodDecoded": false,
                    "operation": "",
                    "output": "",
                    "revert": false,
                    "revertMessage": "",
                    "selector": "",
                    "status": false,
                    "value": ""
                },
                "nodeType": 0
            },
            "0": {
                "invocation": {
                    "address": "0xdac17f958d2ee523a2206206994597c13d831ec7",
                    "callData": "0x000000000000000000000000c804c6f21dae1e5b1a959db7ca48da521f7609c9000000000000000000000000000000000000000000000000000000174876e800",
                    "decodedMethod": {
                        "callParams": [
                            {
                                "name": "_to",
                                "type": "address",
                                "value": "0xc804c6f21dae1e5b1a959db7ca48da521f7609c9"
                            },
                            {
                                "decimalAvailable": true,
                                "name": "_value",
                                "type": "uint256",
                                "value": "100,000,000,000"
                            }
                        ],
                        "constructorArguments": "",
                        "name": "transfer",
                        "returnParams": [],
                        "signature": "transfer(address,uint256)"
                    },
                    "errorInfo": "",
                    "fromAddress": "0x7ff7f3e8e6ff44a1426adfcc65cfb0dbaba28042",
                    "gasUsed": 46109,
                    "id": 0,
                    "methodDecoded": true,
                    "operation": "CALL",
                    "output": "",
                    "revert": false,
                    "revertMessage": "",
                    "selector": "0xa9059cbb",
                    "status": true,
                    "value": "0"
                },
                "nodeType": 0
            },
            "1": {
                "event": {
                    "contract": "0xdac17f958d2ee523a2206206994597c13d831ec7",
                    "decodedLog": {
                        "name": "Transfer",
                        "params": [
                            {
                                "name": "from",
                                "type": "address",
                                "value": "0x7ff7f3e8e6ff44a1426adfcc65cfb0dbaba28042"
                            },
                            {
                                "name": "to",
                                "type": "address",
                                "value": "0xc804c6f21dae1e5b1a959db7ca48da521f7609c9"
                            },
                            {
                                "decimalAvailable": true,
                                "name": "value",
                                "type": "uint256",
                                "value": "100,000,000,000"
                            }
                        ],
                        "signature": "Transfer(address,address,uint256)"
                    },
                    "id": 1,
                    "logData": "0x000000000000000000000000000000000000000000000000000000174876e800",
                    "logDecoded": true,
                    "operation": "EVENT",
                    "revert": false,
                    "status": true,
                    "topics": [
                        "0xddf252ad1be2c89b69c2b068fc378daa952ba7f163c4a11628f55a4df523b3ef",
                        "0x0000000000000000000000007ff7f3e8e6ff44a1426adfcc65cfb0dbaba28042",
                        "0x000000000000000000000000c804c6f21dae1e5b1a959db7ca48da521f7609c9"
                    ]
                },
                "nodeType": 1
            }
        },
        "gasFlame": [
            {
                "children": [
                    {
                        "children": [
                            {
                                "children": [],
                                "depth": 0,
                                "name": "Initial Gas",
                                "value": 21608
                            },
                            {
                                "children": [],
                                "depth": 0,
                                "name": "Executed Gas",
                                "value": 24501
                            }
                        ],
                        "depth": -1,
                        "name": "Actual Gas Used",
                        "value": 46109
                    },
                    {
                        "children": [],
                        "depth": -1,
                        "name": "Refunded Gas",
                        "value": 0
                    }
                ],
                "depth": -2,
                "name": "Total Gas",
                "value": 46109
            }
        ],
        "isConfirmed": true,
        "mainTrace": [
            {
                "children": [
                    {
                        "children": [
                            {
                                "children": [],
                                "depth": 1,
                                "id": 1,
                                "order": 1
                            }
                        ],
                        "depth": 0,
                        "id": 0,
                        "order": 0
                    }
                ],
                "depth": -1,
                "id": -1,
                "order": -1
            }
        ],
        "mainTraceNodeCount": 2,
        "parentIdMap": {
            "0": -1,
            "1": 0
        },
        "tidyTrace": [
            {
                "children": [
                    {
                        "children": [
                            {
                                "children": [],
                                "depth": 1,
                                "id": 1,
                                "order": 1
                            }
                        ],
                        "depth": 0,
                        "id": 0,
                        "order": 0
                    }
                ],
                "depth": -1,
                "id": -1,
                "order": -1
            }
        ],
        "tidyTraceNodeCount": 2
    },
    "state_change": {
        "stateChanges": [
            {
                "address": "0xdac17f958d2ee523a2206206994597c13d831ec7",
                "erc": "ERC-20",
                "slots": [
                    {
                        "current": "0x00000000000000000000000000000000000000000000000000000047e03ae317",
                        "key": "0x401f47ca0a161ec17d976b1575281d0b17aa851d487b6c887326cd9883f86f98",
                        "prev": "0x0000000000000000000000000000000000000000000000000000003097c3fb17"
                    },
                    {
                        "current": "0x0000000000000000000000000000000000000000000000000000000ccd96a0b3",
                        "key": "0x20ebc1a6087d3d9aa8def64e20ad8bc2e7cea3ab6da45e5141b35207f6ff4f0f",
                        "prev": "0x00000000000000000000000000000000000000000000000000000024160d88b3"
                    }
                ],
                "storageVariables": [
                    {
                        "name": "balances",
                        "type": "mapping(address => uint256)",
                        "value": {
                            "pairs": [
                                {
                                    "key": "0x7ff7f3e8e6ff44a1426adfcc65cfb0dbaba28042",
                                    "value": {
                                        "current": "54988808371",
                                        "prev": "154988808371",
                                        "typeTag": 1
                                    }
                                },
                                {
                                    "key": "0xc804c6f21dae1e5b1a959db7ca48da521f7609c9",
                                    "value": {
                                        "current": "308704633623",
                                        "prev": "208704633623",
                                        "typeTag": 1
                                    }
                                }
                            ],
                            "typeTag": 4
                        }
                    }
                ]
            }
        ]
    }
}