{
    "balance_change": {
        "balanceChanges": [
            {
                "account": "0xb8960dc06d6d30318ed27c77fe864d77bef2c42f",
                "assets": [
                    {
                        "address": "0x6a750d255416483bec1a31ca7050c6dac4263b57",
                        "amount": "3,365",
                        "iconUrl": "",
                        "isERC1155": false,
                        "isERC721": false,
                        "sign": false,
                        "value": ""
                    }
                ]
            },
            {
                "account": "0x9539e0b14021a43cde41d9d45dc34969be9c7cb0",
                "assets": [
                    {
                        "address": "0x6a750d255416483bec1a31ca7050c6dac4263b57",
                        "amount": "3,365",
                        "iconUrl": "",
                        "isERC1155": false,
                        "isERC721": false,
                        "sign": true,
                        "value": ""
                    }
                ]
            }
        ]
    },
    "profile": {
        "basic_info": {
            "baseFee": "",
            "blockNumber": 7382677,
            "callData": "0xa9059cbb0000000000000000000000009539e0b14021a43cde41d9d45dc34969be9c7cb00000000000000000000000000000000000000000000000b66ac1877745740000",
            "debugEnable": true,
            "errorInfo": "",
            "eventCount": 1,
            "feeRecipient": "0x829bd824b016326a401d083b33d092293333a830",
            "formatValue": "0",
            "gasLimit": 60000,
            "gasPrice": "20",
            "gasUsed": 23355,
            "intTxnCount": 0,
            "internalRevert": false,
            "internalRevertMessage": "",
            "isContractCreation": false,
            "isFlashloan": false,
            "maxFee": "",
            "nonce": 19,
            "overwritedBlockNumber": -1,
            "priorityFee": "",
            "receiver": "0x6a750d255416483bec1a31ca7050c6dac4263b57",
            "revertMessage": "",
            "sender": "0xb8960dc06d6d30318ed27c77fe864d77bef2c42f",
            "simulationEnable": true,
            "sourceTxnHash": "0x8f885df2fe0df5ea4c86bfeb552a97071edf53b99aacf0222603de1f135214c1",
            "status": true,
            "timestamp": "2019-03-16T22:13:22Z",
            "transactionFee": "0.0004671",
            "txnHash": "0x8f885df2fe0df5ea4c86bfeb552a97071edf53b99aacf0222603de1f135214c1",
            "txnIndex": 12,
            "type": 0,
            "value": "0"
        },
        "fund_flow": [
            {
                "amount": "3,365",
                "from": "0xb8960dc06d6d30318ed27c77fe864d77bef2c42f",
                "id": 1,
                "isERC1155": false,
                "isERC721": false,
                "isReverted": false,
                "order": 1,
                "to": "0x9539e0b14021a43cde41d9d45dc34969be9c7cb0",
                "token": "0x6a750d255416483bec1a31ca7050c6dac4263b57"
            }
        ],
        "token_infos": [
            {
                "address": "0x6a750d255416483bec1a31ca7050c6dac4263b57",
                "decimals": 18
            },
            {
                "address": "0xc02aaa39b223fe8d0a0e5c4f27ead9083c756cc2",
                "decimals": 18
            },
            {
                "address": "0xeeeeeeeeeeeeeeeeeeeeeeeeeeeeeeeeeeeeeeee",
                "decimals": 18
            }
        ]
    },
    "address_label": {
        "labels": [
            {
                "address": "0x0000000000000000000000000000000000000004",
                "label": "Precompiled"
            },
            {
                "address": "0xeeeeeeeeeeeeeeeeeeeeeeeeeeeeeeeeeeeeeeee",
                "label": "Ether"
            },
            {
                "address": "0x9539e0b14021a43cde41d9d45dc34969be9c7cb0",
                "label": "Coinbene"
            },
            {
                "address": "0x6a750d255416483bec1a31ca7050c6dac4263b57",
                "label": "MaxiMine: Old Token"
            },
            {
                "address": "0x0000000000000000000000000000000000000001",
                "label": "Precompiled"
            },
            {
                "address": "0x0000000000000000000000000000000000000002",
                "label": "Precompiled"
            },
            {
                "address": "0x0000000000000000000000000000000000000003",
                "label": "Precompiled"
            }
        ]
    },
    "trace": {
        "accountLabels": null,
        "dataMap": {
            "-1": {
                "invocation": {
                    "address": "0xb8960dc06d6d30318ed27c77fe864d77bef2c42f",
                    "callData": "",
                    "decodedMethod": null,
                    "errorInfo": "",
                    "fromAddress": "",
                    "gasUsed": 0,
                    "id": -1,
                    "methodDecoded": false,
                    "operation": "",
                    "output": "",
                    "revert": false,
                    "revertMessage": "",
                    "selector": "",
                    "status": false,
                    "value": ""
                },
                "nodeType": 0
            },
            "0": {
                "invocation": {
                    "address": "0x6a750d255416483bec1a31ca7050c6dac4263b57",
                    "callData": "0x0000000000000000000000009539e0b14021a43cde41d9d45dc34969be9c7cb00000000000000000000000000000000000000000000000b66ac1877745740000",
                    "decodedMethod": {
                        "callParams": [
                            {
                                "name": "_to",
                                "type": "address",
                                "value": "0x9539e0b14021a43cde41d9d45dc34969be9c7cb0"
                            },
                            {
                                "decimalAvailable": true,
                                "name": "_value",
                                "type": "uint256",
                                "value": "3,365,000,000,000,000,000,000"
                            }
                        ],
                        "constructorArguments": "",
                        "name": "transfer",
                        "returnParams": [],
                        "signature": "transfer(address,uint256)"
                    },
                    "errorInfo": "",
                    "fromAddress": "0xb8960dc06d6d30318ed27c77fe864d77bef2c42f",
                    "gasUsed": 23355,
                    "id": 0,
                    "methodDecoded": true,
                    "operation": "CALL",
                    "output": "",
                    "revert": false,
                    "revertMessage": "",
                    "selector": "0xa9059cbb",
                    "status": true,
                    "value": "0"
                },
                "nodeType": 0
            },
            "1": {
                "event": {
                    "contract": "0x6a750d255416483bec1a31ca7050c6dac4263b57",
                    "decodedLog": {
                        "name": "Transfer",
                        "params": [
                            {
                                "name": "from",
                                "type": "address",
                                "value": "0xb8960dc06d6d30318ed27c77fe864d77bef2c42f"
                            },
                            {
                                "name": "to",
                                "type": "address",
                                "value": "0x9539e0b14021a43cde41d9d45dc34969be9c7cb0"
                            },
                            {
                                "decimalAvailable": true,
                                "name": "value",
                                "type": "uint256",
                                "value": "3,365,000,000,000,000,000,000"
                            }
                        ],
                        "signature": "Transfer(address,address,uint256)"
                    },
                    "id": 1,
                    "logData": "0x0000000000000000000000000000000000000000000000b66ac1877745740000",
                    "logDecoded": true,
                    "operation": "EVENT",
                    "revert": false,
                    "status": true,
                    "topics": [
                        "0xddf252ad1be2c89b69c2b068fc378daa952ba7f163c4a11628f55a4df523b3ef",
                        "0x000000000000000000000000b8960dc06d6d30318ed27c77fe864d77bef2c42f",
                        "0x0000000000000000000000009539e0b14021a43cde41d9d45dc34969be9c7cb0"
                    ]
                },
                "nodeType": 1
            }
        },
        "gasFlame": [
            {
                "children": [
                    {
                        "children": [
                            {
                                "children": [],
                                "depth": 0,
                                "name": "Initial Gas",
                                "value": 23256
                            },
                            {
                                "children": [],
                                "depth": 0,
                                "name": "Executed Gas",
                                "value": 15099
                            }
                        ],
                        "depth": -1,
                        "name": "Actual Gas Used",
                        "value": 23355
                    },
                    {
                        "children": [],
                        "depth": -1,
                        "name": "Refunded Gas",
                        "value": 15000
                    }
                ],
                "depth": -2,
                "name": "Total Gas",
                "value": 38355
            }
        ],
        "isConfirmed": true,
        "mainTrace": [
            {
                "children": [
                    {
                        "children": [
                            {
                                "children": [],
                                "depth": 1,
                                "id": 1,
                                "order": 1
                            }
                        ],
                        "depth": 0,
                        "id": 0,
                        "order": 0
                    }
                ],
                "depth": -1,
                "id": -1,
                "order": -1
            }
        ],
        "mainTraceNodeCount": 2,
        "parentIdMap": {
            "0": -1,
            "1": 0
        },
        "tidyTrace": [
            {
                "children": [
                    {
                        "children": [
                            {
                                "children": [],
                                "depth": 1,
                                "id": 1,
                                "order": 1
                            }
                        ],
                        "depth": 0,
                        "id": 0,
                        "order": 0
                    }
                ],
                "depth": -1,
                "id": -1,
                "order": -1
            }
        ],
        "tidyTraceNodeCount": 2
    },
    "state_change": {
        "stateChanges": [
            {
                "address": "0x6a750d255416483bec1a31ca7050c6dac4263b57",
                "erc": "",
                "slots": [
                    {
                        "current": "0x0000000000000000000000000000000000000000000000000000000000000000",
                        "key": "0x852e57243066e2c219a900e310fc82f722fb849eb55e9a19694c5a1457942faa",
                        "prev": "0x0000000000000000000000000000000000000000000000b66ac1877745740000"
                    },
                    {
                        "current": "0x0000000000000000000000000000000000000000057ba1a4758016fceda2f29f",
                        "key": "0x4e76ac8fe1d59b0344a42f25b283584864f8456a844737afe6d13887e9de07f4",
                        "prev": "0x0000000000000000000000000000000000000000057ba0ee0abe8f85a82ef29f"
                    }
                ],
                "storageVariables": [
                    {
                        "name": "balanceOf",
                        "type": "mapping(address => uint256)",
                        "value": {
                            "pairs": [
                                {
                                    "key": "0x9539e0b14021a43cde41d9d45dc34969be9c7cb0",
                                    "value": {
                                        "current": "1696886259655887408389616287",
                                        "prev": "1696882894655887408389616287",
                                        "typeTag": 1
                                    }
                                },
                                {
                                    "key": "0xb8960dc06d6d30318ed27c77fe864d77bef2c42f",
                                    "value": {
                                        "current": "0",
                                        "prev": "3365000000000000000000",
                                        "typeTag": 1
                                    }
                                }
                            ],
                            "typeTag": 4
                        }
                    }
                ]
            }
        ]
    }
}