{
    "balance_change": {
        "balanceChanges": [
            {
                "account": "0x710bda329b2a6224e4b44833de30f38e7f81d564",
                "assets": [
                    {
                        "address": "0xeeeeeeeeeeeeeeeeeeeeeeeeeeeeeeeeeeeeeeee",
                        "amount": "0.000739489663821432",
                        "iconUrl": "https://assets.blocksec.com/image/1663669189317-3.png",
                        "isERC1155": false,
                        "isERC721": false,
                        "sign": true,
                        "value": "2.2169752222791240133"
                    }
                ]
            },
            {
                "account": "0xb8901acb165ed027e32754e0ffe830802919727f",
                "assets": [
                    {
                        "address": "0xeeeeeeeeeeeeeeeeeeeeeeeeeeeeeeeeeeeeeeee",
                        "amount": "0.15386469703824811",
                        "iconUrl": "https://assets.blocksec.com/image/1663669189317-3.png",
                        "isERC1155": false,
                        "isERC721": false,
                        "sign": false,
                        "value": "461.28328431206000282"
                    }
                ]
            },
            {
                "account": "0x305f0783aac2e24b965ebc0ecf8d31a50d1b864c",
                "assets": [
                    {
                        "address": "0xeeeeeeeeeeeeeeeeeeeeeeeeeeeeeeeeeeeeeeee",
                        "amount": "0.153125207374426678",
                        "iconUrl": "https://assets.blocksec.com/image/1663669189317-3.png",
                        "isERC1155": false,
                        "isERC721": false,
                        "sign": true,
                        "value": "459.0663092810520028"
                    }
                ]
            }
        ]
    },
    "profile": {
        "basic_info": {
            "baseFee": "4.002114534",
            "blockNumber": 19824711,
            "callData": "0x23c452cd000000000000000000000000305f0783aac2e24b965ebc0ecf8d31a50d1b864c0000000000000000000000000000000000000000000000000222a320727018aec15fa657173df1ec67b4db1526ea50bb49215d2f99c2a9ee69cd6775529318dc0000000000000000000000000000000000000000000000000002a08fdaba2678",
            "debugEnable": true,
            "errorInfo": "",
            "eventCount": 1,
            "feeRecipient": "0x4838b106fce9647bdf1e7877bf73ce8b0bad5f97",
            "formatValue": "0",
            "gasLimit": 500000,
            "gasPrice": "4.092114534",
            "gasUsed": 115459,
            "intTxnCount": 2,
            "internalRevert": false,
            "internalRevertMessage": "",
            "isContractCreation": false,
            "isFlashloan": false,
            "maxFee": "9.272716046",
            "nonce": 789582,
            "overwritedBlockNumber": -1,
            "priorityFee": "0.09",
            "receiver": "0xb8901acb165ed027e32754e0ffe830802919727f",
            "revertMessage": "",
            "sender": "0x710bda329b2a6224e4b44833de30f38e7f81d564",
            "simulationEnable": true,
            "sourceTxnHash": "0x8fb329d2b7392a9ed86d4ef7437dd45080bd0b2f4209332ef9d237828aa1c779",
            "status": true,
            "timestamp": "2024-05-08T10:20:59Z",
            "transactionFee": "0.000472471451981106",
            "txnHash": "0x8fb329d2b7392a9ed86d4ef7437dd45080bd0b2f4209332ef9d237828aa1c779",
            "txnIndex": 228,
            "type": 2,
            "value": "0"
        },
        "fund_flow": [
            {
                "amount": "0.153125207374426678",
                "from": "0xb8901acb165ed027e32754e0ffe830802919727f",
                "id": 1,
                "isERC1155": false,
                "isERC721": false,
                "isReverted": false,
                "order": 1,
                "to": "0x305f0783aac2e24b965ebc0ecf8d31a50d1b864c",
                "token": "0xeeeeeeeeeeeeeeeeeeeeeeeeeeeeeeeeeeeeeeee"
            },
            {
                "amount": "0.000739489663821432",
                "from": "0xb8901acb165ed027e32754e0ffe830802919727f",
                "id": 2,
                "isERC1155": false,
                "isERC721": false,
                "isReverted": false,
                "order": 2,
                "to": "0x710bda329b2a6224e4b44833de30f38e7f81d564",
                "token": "0xeeeeeeeeeeeeeeeeeeeeeeeeeeeeeeeeeeeeeeee"
            }
        ],
        "token_infos": [
            {
                "address": "0xc02aaa39b223fe8d0a0e5c4f27ead9083c756cc2",
                "decimals": 18
            },
            {
                "address": "0xeeeeeeeeeeeeeeeeeeeeeeeeeeeeeeeeeeeeeeee",
                "decimals": 18
            }
        ]
    },
    "address_label": {
        "labels": [
            {
                "address": "0x0000000000000000000000000000000000000002",
                "label": "Precompiled"
            },
            {
                "address": "0x0000000000000000000000000000000000000003",
                "label": "Precompiled"
            },
            {
                "address": "0x0000000000000000000000000000000000000004",
                "label": "Precompiled"
            },
            {
                "address": "0xeeeeeeeeeeeeeeeeeeeeeeeeeeeeeeeeeeeeeeee",
                "label": "Ether"
            },
            {
                "address": "0xb8901acb165ed027e32754e0ffe830802919727f",
                "label": "Hop Protocol: Ethereum Bridge"
            },
            {
                "address": "0x710bda329b2a6224e4b44833de30f38e7f81d564",
                "label": "Hop Protocol: ETH Bonder"
            },
            {
                "address": "0x0000000000000000000000000000000000000001",
                "label": "Precompiled"
            }
        ]
    },
    "trace": {
        "accountLabels": null,
        "dataMap": {
            "-1": {
                "invocation": {
                    "address": "0x710bda329b2a6224e4b44833de30f38e7f81d564",
                    "callData": "",
                    "decodedMethod": null,
                    "errorInfo": "",
                    "fromAddress": "",
                    "gasUsed": 0,
                    "id": -1,
                    "methodDecoded": false,
                    "operation": "",
                    "output": "",
                    "revert": false,
                    "revertMessage": "",
                    "selector": "",
                    "status": false,
                    "value": ""
                },
                "nodeType": 0
            },
            "0": {
                "invocation": {
                    "address": "0xb8901acb165ed027e32754e0ffe830802919727f",
                    "callData": "0x000000000000000000000000305f0783aac2e24b965ebc0ecf8d31a50d1b864c0000000000000000000000000000000000000000000000000222a320727018aec15fa657173df1ec67b4db1526ea50bb49215d2f99c2a9ee69cd6775529318dc0000000000000000000000000000000000000000000000000002a08fdaba2678",
                    "decodedMethod": {
                        "callParams": [
                            {
                                "name": "recipient",
                                "type": "address",
                                "value": "0x305f0783aac2e24b965ebc0ecf8d31a50d1b864c"
                            },
                            {
                                "name": "amount",
                                "type": "uint256",
                                "value": "153,864,697,038,248,110"
                            },
                            {
                                "name": "transferNonce",
                                "type": "bytes32",
                                "value": "0xc15fa657173df1ec67b4db1526ea50bb49215d2f99c2a9ee69cd6775529318dc"
                            },
                            {
                                "name": "bonderFee",
                                "type": "uint256",
                                "value": "739,489,663,821,432"
                            }
                        ],
                        "constructorArguments": "",
                        "name": "bondWithdrawal",
                        "returnParams": [],
                        "signature": "bondWithdrawal(address,uint256,bytes32,uint256)"
                    },
                    "errorInfo": "",
                    "fromAddress": "0x710bda329b2a6224e4b44833de30f38e7f81d564",
                    "gasUsed": 115459,
                    "id": 0,
                    "methodDecoded": true,
                    "operation": "CALL",
                    "output": "",
                    "revert": false,
                    "revertMessage": "",
                    "selector": "0x23c452cd",
                    "status": true,
                    "value": "0"
                },
                "nodeType": 0
            },
            "1": {
                "event": {
                    "contract": "0xb8901acb165ed027e32754e0ffe830802919727f",
                    "decodedLog": {
                        "name": "WithdrawalBonded",
                        "params": [
                            {
                                "name": "transferId",
                                "type": "bytes32",
                                "value": "0x28d336766d7bf7aa80d23b84648ce4175756e994ecb131b4112fdd3a4b52a1e6"
                            },
                            {
                                "name": "amount",
                                "type": "uint256",
                                "value": "153,864,697,038,248,110"
                            }
                        ],
                        "signature": "WithdrawalBonded(bytes32,uint256)"
                    },
                    "id": 1,
                    "logData": "0x0000000000000000000000000000000000000000000000000222a320727018ae",
                    "logDecoded": true,
                    "operation": "EVENT",
                    "revert": false,
                    "status": true,
                    "topics": [
                        "0x0c3d250c7831051e78aa6a56679e590374c7c424415ffe4aa474491def2fe705",
                        "0x28d336766d7bf7aa80d23b84648ce4175756e994ecb131b4112fdd3a4b52a1e6"
                    ]
                },
                "nodeType": 1
            },
            "2": {
                "invocation": {
                    "address": "0x305f0783aac2e24b965ebc0ecf8d31a50d1b864c",
                    "callData": "0x",
                    "decodedMethod": null,
                    "errorInfo": "",
                    "fromAddress": "0xb8901acb165ed027e32754e0ffe830802919727f",
                    "gasUsed": 0,
                    "id": 2,
                    "methodDecoded": false,
                    "operation": "CALL",
                    "output": "",
                    "revert": false,
                    "revertMessage": "",
                    "selector": "fallback",
                    "status": true,
                    "value": "0.153125207374426678"
                },
                "nodeType": 0
            },
            "3": {
                "invocation": {
                    "address": "0x710bda329b2a6224e4b44833de30f38e7f81d564",
                    "callData": "0x",
                    "decodedMethod": null,
                    "errorInfo": "",
                    "fromAddress": "0xb8901acb165ed027e32754e0ffe830802919727f",
                    "gasUsed": 0,
                    "id": 3,
                    "methodDecoded": false,
                    "operation": "CALL",
                    "output": "",
                    "revert": false,
                    "revertMessage": "",
                    "selector": "fallback",
                    "status": true,
                    "value": "0.000739489663821432"
                },
                "nodeType": 0
            }
        },
        "gasFlame": [
            {
                "children": [
                    {
                        "children": [
                            {
                                "children": [],
                                "depth": 0,
                                "name": "Initial Gas",
                                "value": 22380
                            },
                            {
                                "children": [
                                    {
                                        "children": [],
                                        "depth": 1,
                                        "name": "fallback",
                                        "value": 0
                                    },
                                    {
                                        "children": [],
                                        "depth": 1,
                                        "name": "fallback",
                                        "value": 0
                                    }
                                ],
                                "depth": 0,
                                "name": "Executed Gas",
                                "value": 95879
                            }
                        ],
                        "depth": -1,
                        "name": "Actual Gas Used",
                        "value": 115459
                    },
                    {
                        "children": [],
                        "depth": -1,
                        "name": "Refunded Gas",
                        "value": 2800
                    }
                ],
                "depth": -2,
                "name": "Total Gas",
                "value": 118259
            }
        ],
        "isConfirmed": true,
        "mainTrace": [
            {
                "children": [
                    {
                        "children": [
                            {
                                "children": [],
                                "depth": 1,
                                "id": 1,
                                "order": 1
                            },
                            {
                                "children": [],
                                "depth": 1,
                                "id": 2,
                                "order": 2
                            },
                            {
                                "children": [],
                                "depth": 1,
                                "id": 3,
                                "order": 3
                            }
                        ],
                        "depth": 0,
                        "id": 0,
                        "order": 0
                    }
                ],
                "depth": -1,
                "id": -1,
                "order": -1
            }
        ],
        "mainTraceNodeCount": 4,
        "parentIdMap": {
            "0": -1,
            "1": 0,
            "2": 0,
            "3": 0
        },
        "tidyTrace": [
            {
                "children": [
                    {
                        "children": [
                            {
                                "children": [],
                                "depth": 1,
                                "id": 1,
                                "order": 1
                            },
                            {
                                "children": [],
                                "depth": 1,
                                "id": 2,
                                "order": 2
                            },
                            {
                                "children": [],
                                "depth": 1,
                                "id": 3,
                                "order": 3
                            }
                        ],
                        "depth": 0,
                        "id": 0,
                        "order": 0
                    }
                ],
                "depth": -1,
                "id": -1,
                "order": -1
            }
        ],
        "tidyTraceNodeCount": 4
    },
    "state_change": {
        "stateChanges": [
            {
                "address": "0xb8901acb165ed027e32754e0ffe830802919727f",
                "erc": "",
                "slots": [
                    {
                        "current": "0x0000000000000000000000000000000000000000000083c24f5e5206020f426d",
                        "key": "0x812c8fc731d689ed5ded39e7869bf6693f18a74a2f3cb1feb1b6e33f7014843a",
                        "prev": "0x0000000000000000000000000000000000000000000083c24d3baee58f9f29bf"
                    },
                    {
                        "current": "0x0000000000000000000000000000000000000000000000000222a320727018ae",
                        "key": "0xa0b8ebd0a47dc4ee5abbbd2d9c55f38694161a9c7ad31015000db20710f66f95",
                        "prev": "0x0000000000000000000000000000000000000000000000000000000000000000"
                    },
                    {
                        "current": "0x0000000000000000000000000000000000000000000000000000000000000001",
                        "key": "0xb2b1069cffc9182341144914a1914e076f7cbbe159400c4da05bdce7873d7e5d",
                        "prev": "0x0000000000000000000000000000000000000000000000000000000000000000"
                    }
                ],
                "storageVariables": [
                    {
                        "name": "_debit",
                        "type": "mapping(address => uint256)",
                        "value": {
                            "pairs": [
                                {
                                    "key": "0x710bda329b2a6224e4b44833de30f38e7f81d564",
                                    "value": {
                                        "current": "622214396704985740952173",
                                        "prev": "622214242840288702704063",
                                        "typeTag": 1
                                    }
                                }
                            ],
                            "typeTag": 4
                        }
                    },
                    {
                        "name": "_bondedWithdrawalAmounts",
                        "type": "mapping(address => mapping(bytes32 => uint256))",
                        "value": {
                            "pairs": [
                                {
                                    "key": "0x710bda329b2a6224e4b44833de30f38e7f81d564",
                                    "value": {
                                        "pairs": [
                                            {
                                                "key": "0x28d336766d7bf7aa80d23b84648ce4175756e994ecb131b4112fdd3a4b52a1e6",
                                                "value": {
                                                    "current": "153864697038248110",
                                                    "prev": "0",
                                                    "typeTag": 1
                                                }
                                            }
                                        ],
                                        "typeTag": 4
                                    }
                                }
                            ],
                            "typeTag": 4
                        }
                    },
                    {
                        "name": "_spentTransferIds",
                        "type": "mapping(bytes32 => bool)",
                        "value": {
                            "pairs": [
                                {
                                    "key": "0x28d336766d7bf7aa80d23b84648ce4175756e994ecb131b4112fdd3a4b52a1e6",
                                    "value": {
                                        "current": "true",
                                        "prev": "false",
                                        "typeTag": 1
                                    }
                                }
                            ],
                            "typeTag": 4
                        }
                    }
                ]
            }
        ]
    }
}