{
    "balance_change": {
        "balanceChanges": [
            {
                "account": "0x2faf487a4414fe77e2327f0bf4ae2a264a776ad2",
                "assets": [
                    {
                        "address": "0xdac17f958d2ee523a2206206994597c13d831ec7",
                        "amount": "123.8523",
                        "iconUrl": "https://assets.blocksec.com/icon/fcea71f3193ce895be44bfdf941f7e4c9381dd587f273c2d1a27f1263d84e4ea.png",
                        "isERC1155": false,
                        "isERC721": false,
                        "sign": true,
                        "value": ""
                    }
                ]
            },
            {
                "account": "0x253da7480158c7f09deed29f6dc88bc37caee048",
                "assets": [
                    {
                        "address": "0xdac17f958d2ee523a2206206994597c13d831ec7",
                        "amount": "123.8523",
                        "iconUrl": "https://assets.blocksec.com/icon/fcea71f3193ce895be44bfdf941f7e4c9381dd587f273c2d1a27f1263d84e4ea.png",
                        "isERC1155": false,
                        "isERC721": false,
                        "sign": false,
                        "value": ""
                    }
                ]
            }
        ]
    },
    "profile": {
        "basic_info": {
            "baseFee": "",
            "blockNumber": 8795117,
            "callData": "0x23b872dd000000000000000000000000253da7480158c7f09deed29f6dc88bc37caee0480000000000000000000000002faf487a4414fe77e2327f0bf4ae2a264a776ad2000000000000000000000000000000000000000000000000000000000761d60c",
            "debugEnable": true,
            "errorInfo": "",
            "eventCount": 1,
            "feeRecipient": "0x5a0b54d5dc17e0aadc383d2db43b0a0d3e029c4c",
            "formatValue": "0",
            "gasLimit": 80004,
            "gasPrice": "50",
            "gasUsed": 25002,
            "intTxnCount": 0,
            "internalRevert": false,
            "internalRevertMessage": "",
            "isContractCreation": false,
            "isFlashloan": false,
            "maxFee": "",
            "nonce": 19829,
            "overwritedBlockNumber": -1,
            "priorityFee": "",
            "receiver": "0xdac17f958d2ee523a2206206994597c13d831ec7",
            "revertMessage": "",
            "sender": "0x2faf487a4414fe77e2327f0bf4ae2a264a776ad2",
            "simulationEnable": true,
            "sourceTxnHash": "0x8f611034ab818c940396f620d5f2df2b7a7ce6c3c888e344a8ae02f56d5d32a1",
            "status": true,
            "timestamp": "2019-10-23T06:34:26Z",
            "transactionFee": "0.0012501",
            "txnHash": "0x8f611034ab818c940396f620d5f2df2b7a7ce6c3c888e344a8ae02f56d5d32a1",
            "txnIndex": 2,
            "type": 0,
            "value": "0"
        },
        "fund_flow": [
            {
                "amount": "123.8523",
                "from": "0x253da7480158c7f09deed29f6dc88bc37caee048",
                "id": 1,
                "isERC1155": false,
                "isERC721": false,
                "isReverted": false,
                "order": 1,
                "to": "0x2faf487a4414fe77e2327f0bf4ae2a264a776ad2",
                "token": "0xdac17f958d2ee523a2206206994597c13d831ec7"
            }
        ],
        "token_infos": [
            {
                "address": "0xc02aaa39b223fe8d0a0e5c4f27ead9083c756cc2",
                "decimals": 18
            },
            {
                "address": "0xdac17f958d2ee523a2206206994597c13d831ec7",
                "decimals": 6
            },
            {
                "address": "0xeeeeeeeeeeeeeeeeeeeeeeeeeeeeeeeeeeeeeeee",
                "decimals": 18
            }
        ]
    },
    "address_label": {
        "labels": [
            {
                "address": "0xdac17f958d2ee523a2206206994597c13d831ec7",
                "label": "Tether: USDT Stablecoin"
            },
            {
                "address": "0x0000000000000000000000000000000000000001",
                "label": "Precompiled"
            },
            {
                "address": "0x0000000000000000000000000000000000000002",
                "label": "Precompiled"
            },
            {
                "address": "0x0000000000000000000000000000000000000003",
                "label": "Precompiled"
            },
            {
                "address": "0x0000000000000000000000000000000000000004",
                "label": "Precompiled"
            },
            {
                "address": "0xeeeeeeeeeeeeeeeeeeeeeeeeeeeeeeeeeeeeeeee",
                "label": "Ether"
            },
            {
                "address": "0x253da7480158c7f09deed29f6dc88bc37caee048",
                "label": "FTX"
            },
            {
                "address": "0x2faf487a4414fe77e2327f0bf4ae2a264a776ad2",
                "label": "FTX Exchange"
            }
        ]
    },
    "trace": {
        "accountLabels": null,
        "dataMap": {
            "-1": {
                "invocation": {
                    "address": "0x2faf487a4414fe77e2327f0bf4ae2a264a776ad2",
                    "callData": "",
                    "decodedMethod": null,
                    "errorInfo": "",
                    "fromAddress": "",
                    "gasUsed": 0,
                    "id": -1,
                    "methodDecoded": false,
                    "operation": "",
                    "output": "",
                    "revert": false,
                    "revertMessage": "",
                    "selector": "",
                    "status": false,
                    "value": ""
                },
                "nodeType": 0
            },
            "0": {
                "invocation": {
                    "address": "0xdac17f958d2ee523a2206206994597c13d831ec7",
                    "callData": "0x000000000000000000000000253da7480158c7f09deed29f6dc88bc37caee0480000000000000000000000002faf487a4414fe77e2327f0bf4ae2a264a776ad2000000000000000000000000000000000000000000000000000000000761d60c",
                    "decodedMethod": {
                        "callParams": [
                            {
                                "name": "_from",
                                "type": "address",
                                "value": "0x253da7480158c7f09deed29f6dc88bc37caee048"
                            },
                            {
                                "name": "_to",
                                "type": "address",
                                "value": "0x2faf487a4414fe77e2327f0bf4ae2a264a776ad2"
                            },
                            {
                                "decimalAvailable": true,
                                "name": "_value",
                                "type": "uint256",
                                "value": "123,852,300"
                            }
                        ],
                        "constructorArguments": "",
                        "name": "transferFrom",
                        "returnParams": [],
                        "signature": "transferFrom(address,address,uint256)"
                    },
                    "errorInfo": "",
                    "fromAddress": "0x2faf487a4414fe77e2327f0bf4ae2a264a776ad2",
                    "gasUsed": 25002,
                    "id": 0,
                    "methodDecoded": true,
                    "operation": "CALL",
                    "output": "",
                    "revert": false,
                    "revertMessage": "",
                    "selector": "0x23b872dd",
                    "status": true,
                    "value": "0"
                },
                "nodeType": 0
            },
            "1": {
                "event": {
                    "contract": "0xdac17f958d2ee523a2206206994597c13d831ec7",
                    "decodedLog": {
                        "name": "Transfer",
                        "params": [
                            {
                                "name": "from",
                                "type": "address",
                                "value": "0x253da7480158c7f09deed29f6dc88bc37caee048"
                            },
                            {
                                "name": "to",
                                "type": "address",
                                "value": "0x2faf487a4414fe77e2327f0bf4ae2a264a776ad2"
                            },
                            {
                                "decimalAvailable": true,
                                "name": "value",
                                "type": "uint256",
                                "value": "123,852,300"
                            }
                        ],
                        "signature": "Transfer(address,address,uint256)"
                    },
                    "id": 1,
                    "logData": "0x000000000000000000000000000000000000000000000000000000000761d60c",
                    "logDecoded": true,
                    "operation": "EVENT",
                    "revert": false,
                    "status": true,
                    "topics": [
                        "0xddf252ad1be2c89b69c2b068fc378daa952ba7f163c4a11628f55a4df523b3ef",
                        "0x000000000000000000000000253da7480158c7f09deed29f6dc88bc37caee048",
                        "0x0000000000000000000000002faf487a4414fe77e2327f0bf4ae2a264a776ad2"
                    ]
                },
                "nodeType": 1
            }
        },
        "gasFlame": [
            {
                "children": [
                    {
                        "children": [
                            {
                                "children": [],
                                "depth": 0,
                                "name": "Initial Gas",
                                "value": 24472
                            },
                            {
                                "children": [],
                                "depth": 0,
                                "name": "Executed Gas",
                                "value": 15530
                            }
                        ],
                        "depth": -1,
                        "name": "Actual Gas Used",
                        "value": 25002
                    },
                    {
                        "children": [],
                        "depth": -1,
                        "name": "Refunded Gas",
                        "value": 15000
                    }
                ],
                "depth": -2,
                "name": "Total Gas",
                "value": 40002
            }
        ],
        "isConfirmed": true,
        "mainTrace": [
            {
                "children": [
                    {
                        "children": [
                            {
                                "children": [],
                                "depth": 1,
                                "id": 1,
                                "order": 1
                            }
                        ],
                        "depth": 0,
                        "id": 0,
                        "order": 0
                    }
                ],
                "depth": -1,
                "id": -1,
                "order": -1
            }
        ],
        "mainTraceNodeCount": 2,
        "parentIdMap": {
            "0": -1,
            "1": 0
        },
        "tidyTrace": [
            {
                "children": [
                    {
                        "children": [
                            {
                                "children": [],
                                "depth": 1,
                                "id": 1,
                                "order": 1
                            }
                        ],
                        "depth": 0,
                        "id": 0,
                        "order": 0
                    }
                ],
                "depth": -1,
                "id": -1,
                "order": -1
            }
        ],
        "tidyTraceNodeCount": 2
    },
    "state_change": {
        "stateChanges": [
            {
                "address": "0xdac17f958d2ee523a2206206994597c13d831ec7",
                "erc": "ERC-20",
                "slots": [
                    {
                        "current": "0x0000000000000000000000000000000000000000000000000000000000000000",
                        "key": "0xafc60a2cc1aef46650e84e2d47ecf6a72e6299688369530876d4a40de7912f02",
                        "prev": "0x000000000000000000000000000000000000000000000000000000000761d60c"
                    },
                    {
                        "current": "0x000000000000000000000000000000000000000000000000000000904aca96fd",
                        "key": "0x9a8b8b45a25f716d84c279768ee66bf8fdb0ee1b53f5f154920105f07070aa5e",
                        "prev": "0x000000000000000000000000000000000000000000000000000000904368c0f1"
                    }
                ],
                "storageVariables": [
                    {
                        "name": "balances",
                        "type": "mapping(address => uint256)",
                        "value": {
                            "pairs": [
                                {
                                    "key": "0x253da7480158c7f09deed29f6dc88bc37caee048",
                                    "value": {
                                        "current": "0",
                                        "prev": "123852300",
                                        "typeTag": 1
                                    }
                                },
                                {
                                    "key": "0x2faf487a4414fe77e2327f0bf4ae2a264a776ad2",
                                    "value": {
                                        "current": "619730081533",
                                        "prev": "619606229233",
                                        "typeTag": 1
                                    }
                                }
                            ],
                            "typeTag": 4
                        }
                    }
                ]
            }
        ]
    }
}