{
    "balance_change": {
        "balanceChanges": [
            {
                "account": "0x4680c4d9407e3d343d16205010e2f1e3f56015e6",
                "assets": [
                    {
                        "address": "0xdac17f958d2ee523a2206206994597c13d831ec7",
                        "amount": "3.161021",
                        "iconUrl": "https://assets.blocksec.com/icon/fcea71f3193ce895be44bfdf941f7e4c9381dd587f273c2d1a27f1263d84e4ea.png",
                        "isERC1155": false,
                        "isERC721": false,
                        "sign": false,
                        "value": "3.164182020999999652"
                    }
                ]
            },
            {
                "account": "0x13134e7a4db8db6b7b58eb53377dc66feb80ba5b",
                "assets": [
                    {
                        "address": "0xdac17f958d2ee523a2206206994597c13d831ec7",
                        "amount": "3.161021",
                        "iconUrl": "https://assets.blocksec.com/icon/fcea71f3193ce895be44bfdf941f7e4c9381dd587f273c2d1a27f1263d84e4ea.png",
                        "isERC1155": false,
                        "isERC721": false,
                        "sign": true,
                        "value": "3.164182020999999652"
                    }
                ]
            }
        ]
    },
    "profile": {
        "basic_info": {
            "baseFee": "24.414092493",
            "blockNumber": 17047430,
            "callData": "0xa9059cbb00000000000000000000000013134e7a4db8db6b7b58eb53377dc66feb80ba5b0000000000000000000000000000000000000000000000000000000000303bbd",
            "debugEnable": true,
            "errorInfo": "",
            "eventCount": 1,
            "feeRecipient": "0xe94f1fa4f27d9d288ffea234bb62e1fbc086ca0c",
            "formatValue": "0",
            "gasLimit": 69516,
            "gasPrice": "24.644092493",
            "gasUsed": 63197,
            "intTxnCount": 0,
            "internalRevert": false,
            "internalRevertMessage": "",
            "isContractCreation": false,
            "isFlashloan": false,
            "maxFee": "28.746323521",
            "nonce": 93,
            "overwritedBlockNumber": -1,
            "priorityFee": "0.23",
            "receiver": "0xdac17f958d2ee523a2206206994597c13d831ec7",
            "revertMessage": "",
            "sender": "0x4680c4d9407e3d343d16205010e2f1e3f56015e6",
            "simulationEnable": true,
            "sourceTxnHash": "0x8f81e0d2b7a3e96acffc1ed9cb7d460e90e293d8551abe5f6e0b3af3aeb5b38c",
            "status": true,
            "timestamp": "2023-04-14T19:23:11Z",
            "transactionFee": "0.001557432713280121",
            "txnHash": "0x8f81e0d2b7a3e96acffc1ed9cb7d460e90e293d8551abe5f6e0b3af3aeb5b38c",
            "txnIndex": 111,
            "type": 2,
            "value": "0"
        },
        "fund_flow": [
            {
                "amount": "3.161021",
                "from": "0x4680c4d9407e3d343d16205010e2f1e3f56015e6",
                "id": 1,
                "isERC1155": false,
                "isERC721": false,
                "isReverted": false,
                "order": 1,
                "to": "0x13134e7a4db8db6b7b58eb53377dc66feb80ba5b",
                "token": "0xdac17f958d2ee523a2206206994597c13d831ec7"
            }
        ],
        "token_infos": [
            {
                "address": "0xc02aaa39b223fe8d0a0e5c4f27ead9083c756cc2",
                "decimals": 18
            },
            {
                "address": "0xdac17f958d2ee523a2206206994597c13d831ec7",
                "decimals": 6
            },
            {
                "address": "0xeeeeeeeeeeeeeeeeeeeeeeeeeeeeeeeeeeeeeeee",
                "decimals": 18
            }
        ]
    },
    "address_label": {
        "labels": [
            {
                "address": "0xdac17f958d2ee523a2206206994597c13d831ec7",
                "label": "Tether: USDT Stablecoin"
            },
            {
                "address": "0x0000000000000000000000000000000000000001",
                "label": "Precompiled"
            },
            {
                "address": "0x0000000000000000000000000000000000000002",
                "label": "Precompiled"
            },
            {
                "address": "0x0000000000000000000000000000000000000003",
                "label": "Precompiled"
            },
            {
                "address": "0x0000000000000000000000000000000000000004",
                "label": "Precompiled"
            },
            {
                "address": "0xeeeeeeeeeeeeeeeeeeeeeeeeeeeeeeeeeeeeeeee",
                "label": "Ether"
            }
        ]
    },
    "trace": {
        "accountLabels": null,
        "dataMap": {
            "-1": {
                "invocation": {
                    "address": "0x4680c4d9407e3d343d16205010e2f1e3f56015e6",
                    "callData": "",
                    "decodedMethod": null,
                    "errorInfo": "",
                    "fromAddress": "",
                    "gasUsed": 0,
                    "id": -1,
                    "methodDecoded": false,
                    "operation": "",
                    "output": "",
                    "revert": false,
                    "revertMessage": "",
                    "selector": "",
                    "status": false,
                    "value": ""
                },
                "nodeType": 0
            },
            "0": {
                "invocation": {
                    "address": "0xdac17f958d2ee523a2206206994597c13d831ec7",
                    "callData": "0x00000000000000000000000013134e7a4db8db6b7b58eb53377dc66feb80ba5b0000000000000000000000000000000000000000000000000000000000303bbd",
                    "decodedMethod": {
                        "callParams": [
                            {
                                "name": "_to",
                                "type": "address",
                                "value": "0x13134e7a4db8db6b7b58eb53377dc66feb80ba5b"
                            },
                            {
                                "decimalAvailable": true,
                                "name": "_value",
                                "type": "uint256",
                                "value": "3,161,021"
                            }
                        ],
                        "constructorArguments": "",
                        "name": "transfer",
                        "returnParams": [],
                        "signature": "transfer(address,uint256)"
                    },
                    "errorInfo": "",
                    "fromAddress": "0x4680c4d9407e3d343d16205010e2f1e3f56015e6",
                    "gasUsed": 63197,
                    "id": 0,
                    "methodDecoded": true,
                    "operation": "CALL",
                    "output": "",
                    "revert": false,
                    "revertMessage": "",
                    "selector": "0xa9059cbb",
                    "status": true,
                    "value": "0"
                },
                "nodeType": 0
            },
            "1": {
                "event": {
                    "contract": "0xdac17f958d2ee523a2206206994597c13d831ec7",
                    "decodedLog": {
                        "name": "Transfer",
                        "params": [
                            {
                                "name": "from",
                                "type": "address",
                                "value": "0x4680c4d9407e3d343d16205010e2f1e3f56015e6"
                            },
                            {
                                "name": "to",
                                "type": "address",
                                "value": "0x13134e7a4db8db6b7b58eb53377dc66feb80ba5b"
                            },
                            {
                                "decimalAvailable": true,
                                "name": "value",
                                "type": "uint256",
                                "value": "3,161,021"
                            }
                        ],
                        "signature": "Transfer(address,address,uint256)"
                    },
                    "id": 1,
                    "logData": "0x0000000000000000000000000000000000000000000000000000000000303bbd",
                    "logDecoded": true,
                    "operation": "EVENT",
                    "revert": false,
                    "status": true,
                    "topics": [
                        "0xddf252ad1be2c89b69c2b068fc378daa952ba7f163c4a11628f55a4df523b3ef",
                        "0x0000000000000000000000004680c4d9407e3d343d16205010e2f1e3f56015e6",
                        "0x00000000000000000000000013134e7a4db8db6b7b58eb53377dc66feb80ba5b"
                    ]
                },
                "nodeType": 1
            }
        },
        "gasFlame": [
            {
                "children": [
                    {
                        "children": [
                            {
                                "children": [],
                                "depth": 0,
                                "name": "Initial Gas",
                                "value": 21596
                            },
                            {
                                "children": [],
                                "depth": 0,
                                "name": "Executed Gas",
                                "value": 41601
                            }
                        ],
                        "depth": -1,
                        "name": "Actual Gas Used",
                        "value": 63197
                    },
                    {
                        "children": [],
                        "depth": -1,
                        "name": "Refunded Gas",
                        "value": 0
                    }
                ],
                "depth": -2,
                "name": "Total Gas",
                "value": 63197
            }
        ],
        "isConfirmed": true,
        "mainTrace": [
            {
                "children": [
                    {
                        "children": [
                            {
                                "children": [],
                                "depth": 1,
                                "id": 1,
                                "order": 1
                            }
                        ],
                        "depth": 0,
                        "id": 0,
                        "order": 0
                    }
                ],
                "depth": -1,
                "id": -1,
                "order": -1
            }
        ],
        "mainTraceNodeCount": 2,
        "parentIdMap": {
            "0": -1,
            "1": 0
        },
        "tidyTrace": [
            {
                "children": [
                    {
                        "children": [
                            {
                                "children": [],
                                "depth": 1,
                                "id": 1,
                                "order": 1
                            }
                        ],
                        "depth": 0,
                        "id": 0,
                        "order": 0
                    }
                ],
                "depth": -1,
                "id": -1,
                "order": -1
            }
        ],
        "tidyTraceNodeCount": 2
    },
    "state_change": {
        "stateChanges": [
            {
                "address": "0xdac17f958d2ee523a2206206994597c13d831ec7",
                "erc": "ERC-20",
                "slots": [
                    {
                        "current": "0x0000000000000000000000000000000000000000000000000000000013aaf94d",
                        "key": "0xf1b3d6c96264c5b8857414fedec9fb23160ed4d64d8768f163f8c37e9102503d",
                        "prev": "0x0000000000000000000000000000000000000000000000000000000013db350a"
                    },
                    {
                        "current": "0x0000000000000000000000000000000000000000000000000000000000303bbd",
                        "key": "0x1f5848527de7a9f3f83d2abfa7f6ce8a367af224aaa8aaa427d325e6ffcc9c14",
                        "prev": "0x0000000000000000000000000000000000000000000000000000000000000000"
                    }
                ],
                "storageVariables": [
                    {
                        "name": "balances",
                        "type": "mapping(address => uint256)",
                        "value": {
                            "pairs": [
                                {
                                    "key": "0x13134e7a4db8db6b7b58eb53377dc66feb80ba5b",
                                    "value": {
                                        "current": "3161021",
                                        "prev": "0",
                                        "typeTag": 1
                                    }
                                },
                                {
                                    "key": "0x4680c4d9407e3d343d16205010e2f1e3f56015e6",
                                    "value": {
                                        "current": "329972045",
                                        "prev": "333133066",
                                        "typeTag": 1
                                    }
                                }
                            ],
                            "typeTag": 4
                        }
                    }
                ]
            }
        ]
    }
}