{
    "balance_change": {
        "balanceChanges": [
            {
                "account": "0x0000000000000000000000000000000000000000",
                "assets": [
                    {
                        "address": "0xc59fa3afb8ca3132f97ed8a6cdf21230d1b353b2",
                        "amount": "1,386,290,000,000,000,000",
                        "iconUrl": "",
                        "isERC1155": false,
                        "isERC721": false,
                        "sign": false,
                        "value": ""
                    }
                ]
            },
            {
                "account": "0x491035dc66d7f3bbfb0c5e922ba92c0cf7e9f552",
                "assets": [
                    {
                        "address": "0xc59fa3afb8ca3132f97ed8a6cdf21230d1b353b2",
                        "amount": "1,386,290,000,000,000,000",
                        "iconUrl": "",
                        "isERC1155": false,
                        "isERC721": false,
                        "sign": true,
                        "value": ""
                    }
                ]
            }
        ]
    },
    "profile": {
        "basic_info": {
            "baseFee": "",
            "blockNumber": 7849605,
            "callData": "0x40c10f19000000000000000000000000491035dc66d7f3bbfb0c5e922ba92c0cf7e9f552000000000000000000000000000000000000000000000000133d1768fdad2000",
            "debugEnable": true,
            "errorInfo": "",
            "eventCount": 1,
            "feeRecipient": "0x5a0b54d5dc17e0aadc383d2db43b0a0d3e029c4c",
            "formatValue": "0",
            "gasLimit": 37093,
            "gasPrice": "1.723821231",
            "gasUsed": 37093,
            "intTxnCount": 0,
            "internalRevert": false,
            "internalRevertMessage": "",
            "isContractCreation": false,
            "isFlashloan": false,
            "maxFee": "",
            "nonce": 5813,
            "overwritedBlockNumber": -1,
            "priorityFee": "",
            "receiver": "0xc59fa3afb8ca3132f97ed8a6cdf21230d1b353b2",
            "revertMessage": "",
            "sender": "0xdc5bb28a971b2e7d746abc5f6b77ade181ad3717",
            "simulationEnable": true,
            "sourceTxnHash": "0x8f605a67a6b9d656abf378c59d4880979a1ad7ae04024679e87fd1f328a46497",
            "status": true,
            "timestamp": "2019-05-28T18:17:43Z",
            "transactionFee": "0.000063941700921483",
            "txnHash": "0x8f605a67a6b9d656abf378c59d4880979a1ad7ae04024679e87fd1f328a46497",
            "txnIndex": 117,
            "type": 0,
            "value": "0"
        },
        "fund_flow": [
            {
                "amount": "1,386,290,000,000,000,000",
                "from": "0x0000000000000000000000000000000000000000",
                "id": 1,
                "isERC1155": false,
                "isERC721": false,
                "isReverted": false,
                "order": 1,
                "to": "0x491035dc66d7f3bbfb0c5e922ba92c0cf7e9f552",
                "token": "0xc59fa3afb8ca3132f97ed8a6cdf21230d1b353b2"
            }
        ],
        "token_infos": [
            {
                "address": "0xc02aaa39b223fe8d0a0e5c4f27ead9083c756cc2",
                "decimals": 18
            },
            {
                "address": "0xeeeeeeeeeeeeeeeeeeeeeeeeeeeeeeeeeeeeeeee",
                "decimals": 18
            }
        ]
    },
    "address_label": {
        "labels": [
            {
                "address": "0x0000000000000000000000000000000000000003",
                "label": "Precompiled"
            },
            {
                "address": "0x0000000000000000000000000000000000000004",
                "label": "Precompiled"
            },
            {
                "address": "0xeeeeeeeeeeeeeeeeeeeeeeeeeeeeeeeeeeeeeeee",
                "label": "Ether"
            },
            {
                "address": "0x0000000000000000000000000000000000000001",
                "label": "Precompiled"
            },
            {
                "address": "0x0000000000000000000000000000000000000002",
                "label": "Precompiled"
            }
        ]
    },
    "trace": {
        "accountLabels": null,
        "dataMap": {
            "-1": {
                "invocation": {
                    "address": "0xdc5bb28a971b2e7d746abc5f6b77ade181ad3717",
                    "callData": "",
                    "decodedMethod": null,
                    "errorInfo": "",
                    "fromAddress": "",
                    "gasUsed": 0,
                    "id": -1,
                    "methodDecoded": false,
                    "operation": "",
                    "output": "",
                    "revert": false,
                    "revertMessage": "",
                    "selector": "",
                    "status": false,
                    "value": ""
                },
                "nodeType": 0
            },
            "0": {
                "invocation": {
                    "address": "0xc59fa3afb8ca3132f97ed8a6cdf21230d1b353b2",
                    "callData": "0x000000000000000000000000491035dc66d7f3bbfb0c5e922ba92c0cf7e9f552000000000000000000000000000000000000000000000000133d1768fdad2000",
                    "decodedMethod": {
                        "callParams": [
                            {
                                "name": "to",
                                "type": "address",
                                "value": "0x491035dc66d7f3bbfb0c5e922ba92c0cf7e9f552"
                            },
                            {
                                "name": "amount",
                                "type": "uint256",
                                "value": "1,386,290,000,000,000,000"
                            }
                        ],
                        "constructorArguments": "",
                        "name": "mint",
                        "returnParams": [],
                        "signature": "mint(address,uint256)"
                    },
                    "errorInfo": "",
                    "fromAddress": "0xdc5bb28a971b2e7d746abc5f6b77ade181ad3717",
                    "gasUsed": 37093,
                    "id": 0,
                    "methodDecoded": true,
                    "operation": "CALL",
                    "output": "0x0000000000000000000000000000000000000000000000000000000000000001",
                    "revert": false,
                    "revertMessage": "",
                    "selector": "0x40c10f19",
                    "status": true,
                    "value": "0"
                },
                "nodeType": 0
            },
            "1": {
                "event": {
                    "contract": "0xc59fa3afb8ca3132f97ed8a6cdf21230d1b353b2",
                    "decodedLog": {
                        "name": "Transfer",
                        "params": [
                            {
                                "name": "from",
                                "type": "address",
                                "value": "0x0000000000000000000000000000000000000000"
                            },
                            {
                                "name": "to",
                                "type": "address",
                                "value": "0x491035dc66d7f3bbfb0c5e922ba92c0cf7e9f552"
                            },
                            {
                                "decimalAvailable": true,
                                "name": "value",
                                "type": "uint256",
                                "value": "1,386,290,000,000,000,000"
                            }
                        ],
                        "signature": "Transfer(address,address,uint256)"
                    },
                    "id": 1,
                    "logData": "0x000000000000000000000000000000000000000000000000133d1768fdad2000",
                    "logDecoded": true,
                    "operation": "EVENT",
                    "revert": false,
                    "status": true,
                    "topics": [
                        "0xddf252ad1be2c89b69c2b068fc378daa952ba7f163c4a11628f55a4df523b3ef",
                        "0x0000000000000000000000000000000000000000000000000000000000000000",
                        "0x000000000000000000000000491035dc66d7f3bbfb0c5e922ba92c0cf7e9f552"
                    ]
                },
                "nodeType": 1
            }
        },
        "gasFlame": [
            {
                "children": [
                    {
                        "children": [
                            {
                                "children": [],
                                "depth": 0,
                                "name": "Initial Gas",
                                "value": 23256
                            },
                            {
                                "children": [],
                                "depth": 0,
                                "name": "Executed Gas",
                                "value": 13837
                            }
                        ],
                        "depth": -1,
                        "name": "Actual Gas Used",
                        "value": 37093
                    },
                    {
                        "children": [],
                        "depth": -1,
                        "name": "Refunded Gas",
                        "value": 0
                    }
                ],
                "depth": -2,
                "name": "Total Gas",
                "value": 37093
            }
        ],
        "isConfirmed": true,
        "mainTrace": [
            {
                "children": [
                    {
                        "children": [
                            {
                                "children": [],
                                "depth": 1,
                                "id": 1,
                                "order": 1
                            }
                        ],
                        "depth": 0,
                        "id": 0,
                        "order": 0
                    }
                ],
                "depth": -1,
                "id": -1,
                "order": -1
            }
        ],
        "mainTraceNodeCount": 2,
        "parentIdMap": {
            "0": -1,
            "1": 0
        },
        "tidyTrace": [
            {
                "children": [
                    {
                        "children": [
                            {
                                "children": [],
                                "depth": 1,
                                "id": 1,
                                "order": 1
                            }
                        ],
                        "depth": 0,
                        "id": 0,
                        "order": 0
                    }
                ],
                "depth": -1,
                "id": -1,
                "order": -1
            }
        ],
        "tidyTraceNodeCount": 2
    },
    "state_change": {
        "stateChanges": [
            {
                "address": "0xc59fa3afb8ca3132f97ed8a6cdf21230d1b353b2",
                "erc": "",
                "slots": [
                    {
                        "current": "0x00000000000000000000000000000000000000000000142bad21960fd7f7e000",
                        "key": "0x0000000000000000000000000000000000000000000000000000000000000002",
                        "prev": "0x00000000000000000000000000000000000000000000142b99e47ea6da4ac000"
                    },
                    {
                        "current": "0x000000000000000000000000000000000000000000000d3ed7067e04393cc000",
                        "key": "0x569f744e246cf5fb44e6243c2777a1849c4c2de4c68d19acdd8ee5b3142c8846",
                        "prev": "0x000000000000000000000000000000000000000000000d3ec3c9669b3b8fa000"
                    }
                ],
                "storageVariables": []
            }
        ]
    }
}