{
    "balance_change": {
        "balanceChanges": [
            {
                "account": "0xc73fe619cf2f018528391d18c5b5300e05f96a75",
                "assets": [
                    {
                        "address": "0xdac17f958d2ee523a2206206994597c13d831ec7",
                        "amount": "10,000",
                        "iconUrl": "https://assets.blocksec.com/icon/fcea71f3193ce895be44bfdf941f7e4c9381dd587f273c2d1a27f1263d84e4ea.png",
                        "isERC1155": false,
                        "isERC721": false,
                        "sign": false,
                        "value": "9987.0000000000003215"
                    }
                ]
            },
            {
                "account": "0xb8001c3ec9aa1985f6c747e25c28324e4a361ec1",
                "assets": [
                    {
                        "address": "0xdac17f958d2ee523a2206206994597c13d831ec7",
                        "amount": "10,000",
                        "iconUrl": "https://assets.blocksec.com/icon/fcea71f3193ce895be44bfdf941f7e4c9381dd587f273c2d1a27f1263d84e4ea.png",
                        "isERC1155": false,
                        "isERC721": false,
                        "sign": true,
                        "value": "9987.0000000000003215"
                    }
                ]
            }
        ]
    },
    "profile": {
        "basic_info": {
            "baseFee": "29.637257937",
            "blockNumber": 18803979,
            "callData": "0xa9059cbb000000000000000000000000b8001c3ec9aa1985f6c747e25c28324e4a361ec100000000000000000000000000000000000000000000000000000002540be400",
            "debugEnable": true,
            "errorInfo": "",
            "eventCount": 1,
            "feeRecipient": "0x1f9090aae28b8a3dceadf281b0f12828e676c326",
            "formatValue": "0",
            "gasLimit": 66097,
            "gasPrice": "36.029100131",
            "gasUsed": 41297,
            "intTxnCount": 0,
            "internalRevert": false,
            "internalRevertMessage": "",
            "isContractCreation": false,
            "isFlashloan": false,
            "maxFee": "",
            "nonce": 0,
            "overwritedBlockNumber": -1,
            "priorityFee": "",
            "receiver": "0xdac17f958d2ee523a2206206994597c13d831ec7",
            "revertMessage": "",
            "sender": "0xc73fe619cf2f018528391d18c5b5300e05f96a75",
            "simulationEnable": true,
            "sourceTxnHash": "0x8ff704973f5b128fb428d9ce7ff5d9a3ea0f622a09c6ce49646a65c6deecd057",
            "status": true,
            "timestamp": "2023-12-17T06:30:35Z",
            "transactionFee": "0.001487893748109907",
            "txnHash": "0x8ff704973f5b128fb428d9ce7ff5d9a3ea0f622a09c6ce49646a65c6deecd057",
            "txnIndex": 11,
            "type": 0,
            "value": "0"
        },
        "fund_flow": [
            {
                "amount": "10,000",
                "from": "0xc73fe619cf2f018528391d18c5b5300e05f96a75",
                "id": 1,
                "isERC1155": false,
                "isERC721": false,
                "isReverted": false,
                "order": 1,
                "to": "0xb8001c3ec9aa1985f6c747e25c28324e4a361ec1",
                "token": "0xdac17f958d2ee523a2206206994597c13d831ec7"
            }
        ],
        "token_infos": [
            {
                "address": "0xc02aaa39b223fe8d0a0e5c4f27ead9083c756cc2",
                "decimals": 18
            },
            {
                "address": "0xdac17f958d2ee523a2206206994597c13d831ec7",
                "decimals": 6
            },
            {
                "address": "0xeeeeeeeeeeeeeeeeeeeeeeeeeeeeeeeeeeeeeeee",
                "decimals": 18
            }
        ]
    },
    "address_label": {
        "labels": [
            {
                "address": "0x0000000000000000000000000000000000000001",
                "label": "Precompiled"
            },
            {
                "address": "0x0000000000000000000000000000000000000002",
                "label": "Precompiled"
            },
            {
                "address": "0x0000000000000000000000000000000000000003",
                "label": "Precompiled"
            },
            {
                "address": "0x0000000000000000000000000000000000000004",
                "label": "Precompiled"
            },
            {
                "address": "0xeeeeeeeeeeeeeeeeeeeeeeeeeeeeeeeeeeeeeeee",
                "label": "Ether"
            },
            {
                "address": "0xb8001c3ec9aa1985f6c747e25c28324e4a361ec1",
                "label": "Cobo: Custody"
            },
            {
                "address": "0xdac17f958d2ee523a2206206994597c13d831ec7",
                "label": "Tether: USDT Stablecoin"
            }
        ]
    },
    "trace": {
        "accountLabels": null,
        "dataMap": {
            "-1": {
                "invocation": {
                    "address": "0xc73fe619cf2f018528391d18c5b5300e05f96a75",
                    "callData": "",
                    "decodedMethod": null,
                    "errorInfo": "",
                    "fromAddress": "",
                    "gasUsed": 0,
                    "id": -1,
                    "methodDecoded": false,
                    "operation": "",
                    "output": "",
                    "revert": false,
                    "revertMessage": "",
                    "selector": "",
                    "status": false,
                    "value": ""
                },
                "nodeType": 0
            },
            "0": {
                "invocation": {
                    "address": "0xdac17f958d2ee523a2206206994597c13d831ec7",
                    "callData": "0x000000000000000000000000b8001c3ec9aa1985f6c747e25c28324e4a361ec100000000000000000000000000000000000000000000000000000002540be400",
                    "decodedMethod": {
                        "callParams": [
                            {
                                "name": "_to",
                                "type": "address",
                                "value": "0xb8001c3ec9aa1985f6c747e25c28324e4a361ec1"
                            },
                            {
                                "decimalAvailable": true,
                                "name": "_value",
                                "type": "uint256",
                                "value": "10,000,000,000"
                            }
                        ],
                        "constructorArguments": "",
                        "name": "transfer",
                        "returnParams": [],
                        "signature": "transfer(address,uint256)"
                    },
                    "errorInfo": "",
                    "fromAddress": "0xc73fe619cf2f018528391d18c5b5300e05f96a75",
                    "gasUsed": 41297,
                    "id": 0,
                    "methodDecoded": true,
                    "operation": "CALL",
                    "output": "",
                    "revert": false,
                    "revertMessage": "",
                    "selector": "0xa9059cbb",
                    "status": true,
                    "value": "0"
                },
                "nodeType": 0
            },
            "1": {
                "event": {
                    "contract": "0xdac17f958d2ee523a2206206994597c13d831ec7",
                    "decodedLog": {
                        "name": "Transfer",
                        "params": [
                            {
                                "name": "from",
                                "type": "address",
                                "value": "0xc73fe619cf2f018528391d18c5b5300e05f96a75"
                            },
                            {
                                "name": "to",
                                "type": "address",
                                "value": "0xb8001c3ec9aa1985f6c747e25c28324e4a361ec1"
                            },
                            {
                                "decimalAvailable": true,
                                "name": "value",
                                "type": "uint256",
                                "value": "10,000,000,000"
                            }
                        ],
                        "signature": "Transfer(address,address,uint256)"
                    },
                    "id": 1,
                    "logData": "0x00000000000000000000000000000000000000000000000000000002540be400",
                    "logDecoded": true,
                    "operation": "EVENT",
                    "revert": false,
                    "status": true,
                    "topics": [
                        "0xddf252ad1be2c89b69c2b068fc378daa952ba7f163c4a11628f55a4df523b3ef",
                        "0x000000000000000000000000c73fe619cf2f018528391d18c5b5300e05f96a75",
                        "0x000000000000000000000000b8001c3ec9aa1985f6c747e25c28324e4a361ec1"
                    ]
                },
                "nodeType": 1
            }
        },
        "gasFlame": [
            {
                "children": [
                    {
                        "children": [
                            {
                                "children": [],
                                "depth": 0,
                                "name": "Initial Gas",
                                "value": 21596
                            },
                            {
                                "children": [],
                                "depth": 0,
                                "name": "Executed Gas",
                                "value": 24501
                            }
                        ],
                        "depth": -1,
                        "name": "Actual Gas Used",
                        "value": 41297
                    },
                    {
                        "children": [],
                        "depth": -1,
                        "name": "Refunded Gas",
                        "value": 4800
                    }
                ],
                "depth": -2,
                "name": "Total Gas",
                "value": 46097
            }
        ],
        "isConfirmed": true,
        "mainTrace": [
            {
                "children": [
                    {
                        "children": [
                            {
                                "children": [],
                                "depth": 1,
                                "id": 1,
                                "order": 1
                            }
                        ],
                        "depth": 0,
                        "id": 0,
                        "order": 0
                    }
                ],
                "depth": -1,
                "id": -1,
                "order": -1
            }
        ],
        "mainTraceNodeCount": 2,
        "parentIdMap": {
            "0": -1,
            "1": 0
        },
        "tidyTrace": [
            {
                "children": [
                    {
                        "children": [
                            {
                                "children": [],
                                "depth": 1,
                                "id": 1,
                                "order": 1
                            }
                        ],
                        "depth": 0,
                        "id": 0,
                        "order": 0
                    }
                ],
                "depth": -1,
                "id": -1,
                "order": -1
            }
        ],
        "tidyTraceNodeCount": 2
    },
    "state_change": {
        "stateChanges": [
            {
                "address": "0xdac17f958d2ee523a2206206994597c13d831ec7",
                "erc": "ERC-20",
                "slots": [
                    {
                        "current": "0x0000000000000000000000000000000000000000000000000000000000000000",
                        "key": "0xd52e3fda07bc1e61d24689ea26c5fc5eacc8bfff0c1a50885e3223011f86f7c0",
                        "prev": "0x00000000000000000000000000000000000000000000000000000002540be400"
                    },
                    {
                        "current": "0x000000000000000000000000000000000000000000000000000001f7758eec82",
                        "key": "0xf4db372547c3cc5c917d5f665f52fb7e32daa48091887e51cea63e1e43e2195e",
                        "prev": "0x000000000000000000000000000000000000000000000000000001f521830882"
                    }
                ],
                "storageVariables": [
                    {
                        "name": "balances",
                        "type": "mapping(address => uint256)",
                        "value": {
                            "pairs": [
                                {
                                    "key": "0xb8001c3ec9aa1985f6c747e25c28324e4a361ec1",
                                    "value": {
                                        "current": "2162340850818",
                                        "prev": "2152340850818",
                                        "typeTag": 1
                                    }
                                },
                                {
                                    "key": "0xc73fe619cf2f018528391d18c5b5300e05f96a75",
                                    "value": {
                                        "current": "0",
                                        "prev": "10000000000",
                                        "typeTag": 1
                                    }
                                }
                            ],
                            "typeTag": 4
                        }
                    }
                ]
            }
        ]
    }
}