{
    "balance_change": {
        "balanceChanges": [
            {
                "account": "0xeee28d484628d41a82d01e21d12e2e78d69920da",
                "assets": [
                    {
                        "address": "0xb63b606ac810a52cca15e44bb630fd42d8d1d83d",
                        "amount": "1",
                        "iconUrl": "https://assets.blocksec.com/icon/5f418bbb243e368e479f81f2bee268b531b75df187a1b2270081a374b11e5e08.png",
                        "isERC1155": false,
                        "isERC721": false,
                        "sign": false,
                        "value": ""
                    }
                ]
            },
            {
                "account": "0x98525cb4894100899fa84dcbb96e57972df09ca2",
                "assets": [
                    {
                        "address": "0xb63b606ac810a52cca15e44bb630fd42d8d1d83d",
                        "amount": "1",
                        "iconUrl": "https://assets.blocksec.com/icon/5f418bbb243e368e479f81f2bee268b531b75df187a1b2270081a374b11e5e08.png",
                        "isERC1155": false,
                        "isERC721": false,
                        "sign": true,
                        "value": ""
                    }
                ]
            }
        ]
    },
    "profile": {
        "basic_info": {
            "baseFee": "",
            "blockNumber": 4685571,
            "callData": "0xa9059cbb00000000000000000000000098525cb4894100899fa84dcbb96e57972df09ca20000000000000000000000000000000000000000000000000000000005f5e100",
            "debugEnable": true,
            "errorInfo": "",
            "eventCount": 1,
            "feeRecipient": "0x180ba8f73897c0cb26d76265fc7868cfd936e617",
            "formatValue": "0",
            "gasLimit": 90000,
            "gasPrice": "43",
            "gasUsed": 52208,
            "intTxnCount": 0,
            "internalRevert": false,
            "internalRevertMessage": "",
            "isContractCreation": false,
            "isFlashloan": false,
            "maxFee": "",
            "nonce": 50991,
            "overwritedBlockNumber": -1,
            "priorityFee": "",
            "receiver": "0xb63b606ac810a52cca15e44bb630fd42d8d1d83d",
            "revertMessage": "",
            "sender": "0xeee28d484628d41a82d01e21d12e2e78d69920da",
            "simulationEnable": true,
            "sourceTxnHash": "0x8fd233ec19658f1b54a72e31ca1ce06f175cf3e0e07b22dbf96ff4080cc2c622",
            "status": true,
            "timestamp": "2017-12-06T14:02:32Z",
            "transactionFee": "0.002244944",
            "txnHash": "0x8fd233ec19658f1b54a72e31ca1ce06f175cf3e0e07b22dbf96ff4080cc2c622",
            "txnIndex": 34,
            "type": 0,
            "value": "0"
        },
        "fund_flow": [
            {
                "amount": "1",
                "from": "0xeee28d484628d41a82d01e21d12e2e78d69920da",
                "id": 1,
                "isERC1155": false,
                "isERC721": false,
                "isReverted": false,
                "order": 1,
                "to": "0x98525cb4894100899fa84dcbb96e57972df09ca2",
                "token": "0xb63b606ac810a52cca15e44bb630fd42d8d1d83d"
            }
        ],
        "token_infos": [
            {
                "address": "0xb63b606ac810a52cca15e44bb630fd42d8d1d83d",
                "decimals": 8
            },
            {
                "address": "0xc02aaa39b223fe8d0a0e5c4f27ead9083c756cc2",
                "decimals": 18
            },
            {
                "address": "0xeeeeeeeeeeeeeeeeeeeeeeeeeeeeeeeeeeeeeeee",
                "decimals": 18
            }
        ]
    },
    "address_label": {
        "labels": [
            {
                "address": "0x0000000000000000000000000000000000000004",
                "label": "Precompiled"
            },
            {
                "address": "0xeeeeeeeeeeeeeeeeeeeeeeeeeeeeeeeeeeeeeeee",
                "label": "Ether"
            },
            {
                "address": "0xb63b606ac810a52cca15e44bb630fd42d8d1d83d",
                "label": "Crypto.com: MCO Token"
            },
            {
                "address": "0xeee28d484628d41a82d01e21d12e2e78d69920da",
                "label": "HTX 4"
            },
            {
                "address": "0x0000000000000000000000000000000000000001",
                "label": "Precompiled"
            },
            {
                "address": "0x0000000000000000000000000000000000000002",
                "label": "Precompiled"
            },
            {
                "address": "0x0000000000000000000000000000000000000003",
                "label": "Precompiled"
            }
        ]
    },
    "trace": {
        "accountLabels": null,
        "dataMap": {
            "-1": {
                "invocation": {
                    "address": "0xeee28d484628d41a82d01e21d12e2e78d69920da",
                    "callData": "",
                    "decodedMethod": null,
                    "errorInfo": "",
                    "fromAddress": "",
                    "gasUsed": 0,
                    "id": -1,
                    "methodDecoded": false,
                    "operation": "",
                    "output": "",
                    "revert": false,
                    "revertMessage": "",
                    "selector": "",
                    "status": false,
                    "value": ""
                },
                "nodeType": 0
            },
            "0": {
                "invocation": {
                    "address": "0xb63b606ac810a52cca15e44bb630fd42d8d1d83d",
                    "callData": "0x00000000000000000000000098525cb4894100899fa84dcbb96e57972df09ca20000000000000000000000000000000000000000000000000000000005f5e100",
                    "decodedMethod": {
                        "callParams": [
                            {
                                "name": "_to",
                                "type": "address",
                                "value": "0x98525cb4894100899fa84dcbb96e57972df09ca2"
                            },
                            {
                                "decimalAvailable": true,
                                "name": "_value",
                                "type": "uint256",
                                "value": "100,000,000"
                            }
                        ],
                        "constructorArguments": "",
                        "name": "transfer",
                        "returnParams": [
                            {
                                "name": "success",
                                "type": "bool",
                                "value": true
                            }
                        ],
                        "signature": "transfer(address,uint256)"
                    },
                    "errorInfo": "",
                    "fromAddress": "0xeee28d484628d41a82d01e21d12e2e78d69920da",
                    "gasUsed": 52208,
                    "id": 0,
                    "methodDecoded": true,
                    "operation": "CALL",
                    "output": "0x0000000000000000000000000000000000000000000000000000000000000001",
                    "revert": false,
                    "revertMessage": "",
                    "selector": "0xa9059cbb",
                    "status": true,
                    "value": "0"
                },
                "nodeType": 0
            },
            "1": {
                "event": {
                    "contract": "0xb63b606ac810a52cca15e44bb630fd42d8d1d83d",
                    "decodedLog": {
                        "name": "Transfer",
                        "params": [
                            {
                                "name": "from",
                                "type": "address",
                                "value": "0xeee28d484628d41a82d01e21d12e2e78d69920da"
                            },
                            {
                                "name": "to",
                                "type": "address",
                                "value": "0x98525cb4894100899fa84dcbb96e57972df09ca2"
                            },
                            {
                                "decimalAvailable": true,
                                "name": "value",
                                "type": "uint256",
                                "value": "100,000,000"
                            }
                        ],
                        "signature": "Transfer(address,address,uint256)"
                    },
                    "id": 1,
                    "logData": "0x0000000000000000000000000000000000000000000000000000000005f5e100",
                    "logDecoded": true,
                    "operation": "EVENT",
                    "revert": false,
                    "status": true,
                    "topics": [
                        "0xddf252ad1be2c89b69c2b068fc378daa952ba7f163c4a11628f55a4df523b3ef",
                        "0x000000000000000000000000eee28d484628d41a82d01e21d12e2e78d69920da",
                        "0x00000000000000000000000098525cb4894100899fa84dcbb96e57972df09ca2"
                    ]
                },
                "nodeType": 1
            }
        },
        "gasFlame": [
            {
                "children": [
                    {
                        "children": [
                            {
                                "children": [],
                                "depth": 0,
                                "name": "Initial Gas",
                                "value": 22936
                            },
                            {
                                "children": [],
                                "depth": 0,
                                "name": "Executed Gas",
                                "value": 29272
                            }
                        ],
                        "depth": -1,
                        "name": "Actual Gas Used",
                        "value": 52208
                    },
                    {
                        "children": [],
                        "depth": -1,
                        "name": "Refunded Gas",
                        "value": 0
                    }
                ],
                "depth": -2,
                "name": "Total Gas",
                "value": 52208
            }
        ],
        "isConfirmed": true,
        "mainTrace": [
            {
                "children": [
                    {
                        "children": [
                            {
                                "children": [],
                                "depth": 1,
                                "id": 1,
                                "order": 1
                            }
                        ],
                        "depth": 0,
                        "id": 0,
                        "order": 0
                    }
                ],
                "depth": -1,
                "id": -1,
                "order": -1
            }
        ],
        "mainTraceNodeCount": 2,
        "parentIdMap": {
            "0": -1,
            "1": 0
        },
        "tidyTrace": [
            {
                "children": [
                    {
                        "children": [
                            {
                                "children": [],
                                "depth": 1,
                                "id": 1,
                                "order": 1
                            }
                        ],
                        "depth": 0,
                        "id": 0,
                        "order": 0
                    }
                ],
                "depth": -1,
                "id": -1,
                "order": -1
            }
        ],
        "tidyTraceNodeCount": 2
    },
    "state_change": {
        "stateChanges": [
            {
                "address": "0xb63b606ac810a52cca15e44bb630fd42d8d1d83d",
                "erc": "ERC-20",
                "slots": [
                    {
                        "current": "0x0000000000000000000000000000000000000000000000000000000005f5e100",
                        "key": "0x610be38e6e64874b253ab14eca9e101fa184d22722fe0af8f83f54e4112d98d5",
                        "prev": "0x0000000000000000000000000000000000000000000000000000000000000000"
                    },
                    {
                        "current": "0x000000000000000000000000000000000000000000000000000002b04a8614d5",
                        "key": "0x9ea06f5f30f45123cf298afd0d0987d300458b8acb26efdf974f1ed7cfaadc13",
                        "prev": "0x000000000000000000000000000000000000000000000000000002b0507bf5d5"
                    }
                ],
                "storageVariables": []
            }
        ]
    }
}