{
    "balance_change": {
        "balanceChanges": []
    },
    "profile": {
        "basic_info": {
            "baseFee": "",
            "blockNumber": 11024679,
            "callData": "0x797eee24000000000000000000000000959590416ca7ebac2394233abbcbd640d13f54b8",
            "debugEnable": true,
            "errorInfo": "execution reverted",
            "eventCount": 0,
            "feeRecipient": "0x3ecef08d0e2dad803847e052249bb4f8bff2d5bb",
            "formatValue": "0.02351239876242012",
            "gasLimit": 1167084,
            "gasPrice": "47",
            "gasUsed": 21850,
            "intTxnCount": 0,
            "internalRevert": false,
            "internalRevertMessage": "",
            "isContractCreation": false,
            "isFlashloan": false,
            "maxFee": "",
            "nonce": 8,
            "overwritedBlockNumber": -1,
            "priorityFee": "",
            "receiver": "0x5acc84a3e955bdd76467d3348077d003f00ffb97",
            "revertMessage": "registration cost 0.05",
            "sender": "0x9d13a90358fa4104614794d9e0a431cb58279236",
            "simulationEnable": true,
            "sourceTxnHash": "0x90465e0bc534921b350a62d3868b6c46bcf6bbe6364df01f160547fb648421fc",
            "status": false,
            "timestamp": "2020-10-10T01:15:57Z",
            "transactionFee": "0.00102695",
            "txnHash": "0x90465e0bc534921b350a62d3868b6c46bcf6bbe6364df01f160547fb648421fc",
            "txnIndex": 249,
            "type": 0,
            "value": "23512398762420120"
        },
        "fund_flow": [],
        "token_infos": [
            {
                "address": "0xc02aaa39b223fe8d0a0e5c4f27ead9083c756cc2",
                "decimals": 18
            },
            {
                "address": "0xeeeeeeeeeeeeeeeeeeeeeeeeeeeeeeeeeeeeeeee",
                "decimals": 18
            }
        ]
    },
    "address_label": {
        "labels": [
            {
                "address": "0x5acc84a3e955bdd76467d3348077d003f00ffb97",
                "label": "Forsage.io"
            },
            {
                "address": "0x0000000000000000000000000000000000000001",
                "label": "Precompiled"
            },
            {
                "address": "0x0000000000000000000000000000000000000002",
                "label": "Precompiled"
            },
            {
                "address": "0x0000000000000000000000000000000000000003",
                "label": "Precompiled"
            },
            {
                "address": "0x0000000000000000000000000000000000000004",
                "label": "Precompiled"
            },
            {
                "address": "0xeeeeeeeeeeeeeeeeeeeeeeeeeeeeeeeeeeeeeeee",
                "label": "Ether"
            }
        ]
    },
    "trace": {
        "accountLabels": null,
        "dataMap": {
            "-1": {
                "invocation": {
                    "address": "0x9d13a90358fa4104614794d9e0a431cb58279236",
                    "callData": "",
                    "decodedMethod": null,
                    "errorInfo": "",
                    "fromAddress": "",
                    "gasUsed": 0,
                    "id": -1,
                    "methodDecoded": false,
                    "operation": "",
                    "output": "",
                    "revert": false,
                    "revertMessage": "",
                    "selector": "",
                    "status": false,
                    "value": ""
                },
                "nodeType": 0
            },
            "0": {
                "invocation": {
                    "address": "0x5acc84a3e955bdd76467d3348077d003f00ffb97",
                    "callData": "0x000000000000000000000000959590416ca7ebac2394233abbcbd640d13f54b8",
                    "decodedMethod": {
                        "callParams": [
                            {
                                "name": "referrerAddress",
                                "type": "address",
                                "value": "0x959590416ca7ebac2394233abbcbd640d13f54b8"
                            }
                        ],
                        "constructorArguments": "",
                        "name": "registrationExt",
                        "returnParams": [],
                        "signature": "registrationExt(address)"
                    },
                    "errorInfo": "execution reverted",
                    "fromAddress": "0x9d13a90358fa4104614794d9e0a431cb58279236",
                    "gasUsed": 21850,
                    "id": 0,
                    "methodDecoded": true,
                    "operation": "CALL",
                    "output": "0x08c379a000000000000000000000000000000000000000000000000000000000000000200000000000000000000000000000000000000000000000000000000000000016726567697374726174696f6e20636f737420302e303500000000000000000000",
                    "revert": true,
                    "revertMessage": "registration cost 0.05",
                    "selector": "0x797eee24",
                    "status": false,
                    "value": "0.02351239876242012"
                },
                "nodeType": 0
            }
        },
        "gasFlame": [
            {
                "children": [
                    {
                        "children": [
                            {
                                "children": [],
                                "depth": 0,
                                "name": "Initial Gas",
                                "value": 21432
                            },
                            {
                                "children": [],
                                "depth": 0,
                                "name": "Executed Gas",
                                "value": 418
                            }
                        ],
                        "depth": -1,
                        "name": "Actual Gas Used",
                        "value": 21850
                    },
                    {
                        "children": [],
                        "depth": -1,
                        "name": "Refunded Gas",
                        "value": 0
                    }
                ],
                "depth": -2,
                "name": "Total Gas",
                "value": 21850
            }
        ],
        "isConfirmed": true,
        "mainTrace": [
            {
                "children": [
                    {
                        "children": [],
                        "depth": 0,
                        "id": 0,
                        "order": 0
                    }
                ],
                "depth": -1,
                "id": -1,
                "order": -1
            }
        ],
        "mainTraceNodeCount": 1,
        "parentIdMap": {
            "0": -1
        },
        "tidyTrace": [
            {
                "children": [
                    {
                        "children": [],
                        "depth": 0,
                        "id": 0,
                        "order": 0
                    }
                ],
                "depth": -1,
                "id": -1,
                "order": -1
            }
        ],
        "tidyTraceNodeCount": 1
    },
    "state_change": {
        "stateChanges": []
    }
}