{
    "balance_change": {
        "balanceChanges": []
    },
    "profile": {
        "basic_info": {
            "baseFee": "",
            "blockNumber": 11296512,
            "callData": "0x8803dbee00000000000000000000000000000000000000000000003635c9adc5dea0000000000000000000000000000000000000000000000000001e50643fdba291553900000000000000000000000000000000000000000000000000000000000000a000000000000000000000000096a533cac2e15ed88df94a1d6be4b3dd31d28a9a000000000000000000000000000000000000000000000000000000005fb80b4a000000000000000000000000000000000000000000000000000000000000000300000000000000000000000020945ca1df56d237fd40036d47e866c7dccd2114000000000000000000000000c02aaa39b223fe8d0a0e5c4f27ead9083c756cc2000000000000000000000000c3eb2622190c57429aac3901808994443b64b466",
            "debugEnable": true,
            "errorInfo": "execution reverted",
            "eventCount": 0,
            "feeRecipient": "0xea674fdde714fd979de3edf0f56aa9716b898ec8",
            "formatValue": "0",
            "gasLimit": 202292,
            "gasPrice": "67.5",
            "gasUsed": 34172,
            "intTxnCount": 2,
            "internalRevert": true,
            "internalRevertMessage": "",
            "isContractCreation": false,
            "isFlashloan": false,
            "maxFee": "",
            "nonce": 203,
            "overwritedBlockNumber": -1,
            "priorityFee": "",
            "receiver": "0x7a250d5630b4cf539739df2c5dacb4c659f2488d",
            "revertMessage": "'UniswapV2Router: EXCESSIVE_INPUT_AMOUNT",
            "sender": "0x96a533cac2e15ed88df94a1d6be4b3dd31d28a9a",
            "simulationEnable": true,
            "sourceTxnHash": "0x90fc014f8b094662e87e4bd96aa64888af6e0ccb9ce201af713f2ec1a41d3dda",
            "status": false,
            "timestamp": "2020-11-20T18:11:56Z",
            "transactionFee": "0.00230661",
            "txnHash": "0x90fc014f8b094662e87e4bd96aa64888af6e0ccb9ce201af713f2ec1a41d3dda",
            "txnIndex": 74,
            "type": 0,
            "value": "0"
        },
        "fund_flow": [],
        "token_infos": [
            {
                "address": "0xeeeeeeeeeeeeeeeeeeeeeeeeeeeeeeeeeeeeeeee",
                "decimals": 18
            },
            {
                "address": "0xc02aaa39b223fe8d0a0e5c4f27ead9083c756cc2",
                "decimals": 18
            }
        ]
    },
    "address_label": {
        "labels": [
            {
                "address": "0xc3eb2622190c57429aac3901808994443b64b466",
                "label": "OpenDeFi by OroPocket: ORO Token"
            },
            {
                "address": "0xed196f5f01e8c99ef4c6d77b83ccaf629032a8f2",
                "label": "Uniswap V2: Nsure 6"
            },
            {
                "address": "0x20945ca1df56d237fd40036d47e866c7dccd2114",
                "label": "Nsure.network: NSURE Token"
            },
            {
                "address": "0x0000000000000000000000000000000000000002",
                "label": "Precompiled"
            },
            {
                "address": "0x0000000000000000000000000000000000000003",
                "label": "Precompiled"
            },
            {
                "address": "0x7a250d5630b4cf539739df2c5dacb4c659f2488d",
                "label": "Uniswap V2: Router 2"
            },
            {
                "address": "0xa89abe11bd3ef4cf68a5004ba99b9fda52d5e8fc",
                "label": "Uniswap V2: ORO 12"
            },
            {
                "address": "0xc02aaa39b223fe8d0a0e5c4f27ead9083c756cc2",
                "label": "Wrapped Ether (WETH)"
            },
            {
                "address": "0xeeeeeeeeeeeeeeeeeeeeeeeeeeeeeeeeeeeeeeee",
                "label": "Ether"
            },
            {
                "address": "0x0000000000000000000000000000000000000001",
                "label": "Precompiled"
            },
            {
                "address": "0x0000000000000000000000000000000000000004",
                "label": "Precompiled"
            }
        ]
    },
    "trace": {
        "accountLabels": null,
        "dataMap": {
            "-1": {
                "invocation": {
                    "address": "0x96a533cac2e15ed88df94a1d6be4b3dd31d28a9a",
                    "callData": "",
                    "decodedMethod": null,
                    "errorInfo": "",
                    "fromAddress": "",
                    "gasUsed": 0,
                    "id": -1,
                    "methodDecoded": false,
                    "operation": "",
                    "output": "",
                    "revert": false,
                    "revertMessage": "",
                    "selector": "",
                    "status": false,
                    "value": ""
                },
                "nodeType": 0
            },
            "0": {
                "invocation": {
                    "address": "0x7a250d5630b4cf539739df2c5dacb4c659f2488d",
                    "callData": "0x00000000000000000000000000000000000000000000003635c9adc5dea0000000000000000000000000000000000000000000000000001e50643fdba291553900000000000000000000000000000000000000000000000000000000000000a000000000000000000000000096a533cac2e15ed88df94a1d6be4b3dd31d28a9a000000000000000000000000000000000000000000000000000000005fb80b4a000000000000000000000000000000000000000000000000000000000000000300000000000000000000000020945ca1df56d237fd40036d47e866c7dccd2114000000000000000000000000c02aaa39b223fe8d0a0e5c4f27ead9083c756cc2000000000000000000000000c3eb2622190c57429aac3901808994443b64b466",
                    "decodedMethod": {
                        "callParams": [
                            {
                                "name": "amountOut",
                                "type": "uint256",
                                "value": "1,000,000,000,000,000,000,000"
                            },
                            {
                                "name": "amountInMax",
                                "type": "uint256",
                                "value": "559,195,147,444,549,670,201"
                            },
                            {
                                "name": "path",
                                "type": "address[]",
                                "value": [
                                    "0x20945ca1df56d237fd40036d47e866c7dccd2114",
                                    "0xc02aaa39b223fe8d0a0e5c4f27ead9083c756cc2",
                                    "0xc3eb2622190c57429aac3901808994443b64b466"
                                ]
                            },
                            {
                                "name": "to",
                                "type": "address",
                                "value": "0x96a533cac2e15ed88df94a1d6be4b3dd31d28a9a"
                            },
                            {
                                "name": "deadline",
                                "type": "uint256",
                                "value": "1,605,897,034"
                            }
                        ],
                        "constructorArguments": "",
                        "name": "swapTokensForExactTokens",
                        "returnParams": [],
                        "signature": "swapTokensForExactTokens(uint256,uint256,address[],address,uint256)"
                    },
                    "errorInfo": "execution reverted",
                    "fromAddress": "0x96a533cac2e15ed88df94a1d6be4b3dd31d28a9a",
                    "gasUsed": 34172,
                    "id": 0,
                    "methodDecoded": true,
                    "operation": "CALL",
                    "output": "0x08c379a000000000000000000000000000000000000000000000000000000000000000200000000000000000000000000000000000000000000000000000000000000027556e69737761705632526f757465723a204558434553534956455f494e5055545f414d4f554e5400000000000000000000000000000000000000000000000000",
                    "revert": true,
                    "revertMessage": "'UniswapV2Router: EXCESSIVE_INPUT_AMOUNT",
                    "selector": "0x8803dbee",
                    "status": false,
                    "value": "0"
                },
                "nodeType": 0
            },
            "1": {
                "invocation": {
                    "address": "0xa89abe11bd3ef4cf68a5004ba99b9fda52d5e8fc",
                    "callData": "0x",
                    "decodedMethod": {
                        "callParams": [],
                        "constructorArguments": "",
                        "name": "getReserves",
                        "returnParams": [
                            {
                                "name": "_reserve0",
                                "type": "uint112",
                                "value": "764,694,536,189,456,411,301"
                            },
                            {
                                "name": "_reserve1",
                                "type": "uint112",
                                "value": "876,031,015,938,982,592,624,767"
                            },
                            {
                                "name": "_blockTimestampLast",
                                "type": "uint32",
                                "value": "1,605,895,916"
                            }
                        ],
                        "signature": "getReserves()"
                    },
                    "errorInfo": "",
                    "fromAddress": "0x7a250d5630b4cf539739df2c5dacb4c659f2488d",
                    "gasUsed": 1204,
                    "id": 1,
                    "methodDecoded": true,
                    "operation": "STATICCALL",
                    "output": "0x0000000000000000000000000000000000000000000000297444bd2396a3eaa500000000000000000000000000000000000000000000b981bc8d6142a41fb87f000000000000000000000000000000000000000000000000000000005fb806ec",
                    "revert": true,
                    "revertMessage": "",
                    "selector": "0x0902f1ac",
                    "status": true,
                    "value": "0"
                },
                "nodeType": 0
            },
            "2": {
                "invocation": {
                    "address": "0xed196f5f01e8c99ef4c6d77b83ccaf629032a8f2",
                    "callData": "0x",
                    "decodedMethod": {
                        "callParams": [],
                        "constructorArguments": "",
                        "name": "getReserves",
                        "returnParams": [
                            {
                                "name": "_reserve0",
                                "type": "uint112",
                                "value": "324,015,645,111,977,029,485,249"
                            },
                            {
                                "name": "_reserve1",
                                "type": "uint112",
                                "value": "458,866,322,139,167,649,102"
                            },
                            {
                                "name": "_blockTimestampLast",
                                "type": "uint32",
                                "value": "1,605,895,916"
                            }
                        ],
                        "signature": "getReserves()"
                    },
                    "errorInfo": "",
                    "fromAddress": "0x7a250d5630b4cf539739df2c5dacb4c659f2488d",
                    "gasUsed": 1204,
                    "id": 2,
                    "methodDecoded": true,
                    "operation": "STATICCALL",
                    "output": "0x00000000000000000000000000000000000000000000449cec5e88e1688d42c1000000000000000000000000000000000000000000000018e00ca8cebf0ced4e000000000000000000000000000000000000000000000000000000005fb806ec",
                    "revert": true,
                    "revertMessage": "",
                    "selector": "0x0902f1ac",
                    "status": true,
                    "value": "0"
                },
                "nodeType": 0
            }
        },
        "gasFlame": [
            {
                "children": [
                    {
                        "children": [
                            {
                                "children": [],
                                "depth": 0,
                                "name": "Initial Gas",
                                "value": 23440
                            },
                            {
                                "children": [
                                    {
                                        "children": [],
                                        "depth": 1,
                                        "name": "getReserves",
                                        "value": 1204
                                    },
                                    {
                                        "children": [],
                                        "depth": 1,
                                        "name": "getReserves",
                                        "value": 1204
                                    }
                                ],
                                "depth": 0,
                                "name": "Executed Gas",
                                "value": 10732
                            }
                        ],
                        "depth": -1,
                        "name": "Actual Gas Used",
                        "value": 34172
                    },
                    {
                        "children": [],
                        "depth": -1,
                        "name": "Refunded Gas",
                        "value": 0
                    }
                ],
                "depth": -2,
                "name": "Total Gas",
                "value": 34172
            }
        ],
        "isConfirmed": true,
        "mainTrace": [
            {
                "children": [
                    {
                        "children": [
                            {
                                "children": [],
                                "depth": 1,
                                "id": 1,
                                "order": 1
                            },
                            {
                                "children": [],
                                "depth": 1,
                                "id": 2,
                                "order": 2
                            }
                        ],
                        "depth": 0,
                        "id": 0,
                        "order": 0
                    }
                ],
                "depth": -1,
                "id": -1,
                "order": -1
            }
        ],
        "mainTraceNodeCount": 3,
        "parentIdMap": {
            "0": -1,
            "1": 0,
            "2": 0
        },
        "tidyTrace": [
            {
                "children": [
                    {
                        "children": [],
                        "depth": 0,
                        "id": 0,
                        "order": 0
                    }
                ],
                "depth": -1,
                "id": -1,
                "order": -1
            }
        ],
        "tidyTraceNodeCount": 1
    },
    "state_change": {
        "stateChanges": []
    }
}