{
    "balance_change": {
        "balanceChanges": [
            {
                "account": "0xfeaf7526162e82f10ba579db3a5c084ab5196ffc",
                "assets": [
                    {
                        "address": "0x1e2f15302b90edde696593607b6bd444b64e8f02",
                        "amount": "129,731,478,364,638.389265083",
                        "iconUrl": "",
                        "isERC1155": false,
                        "isERC721": false,
                        "sign": true,
                        "value": "1769.546617"
                    },
                    {
                        "address": "0x773d6e3e85ed29d2c40c42f7cbc8ad3d4ddbeef0",
                        "amount": "8",
                        "iconUrl": "",
                        "isERC1155": false,
                        "isERC721": false,
                        "sign": true,
                        "value": ""
                    }
                ]
            },
            {
                "account": "0x140a330d37d05d6e3ba4b6a9a3e25da209890c20",
                "assets": [
                    {
                        "address": "0x773d6e3e85ed29d2c40c42f7cbc8ad3d4ddbeef0",
                        "amount": "8",
                        "iconUrl": "",
                        "isERC1155": false,
                        "isERC721": false,
                        "sign": false,
                        "value": ""
                    },
                    {
                        "address": "0x1e2f15302b90edde696593607b6bd444b64e8f02",
                        "amount": "129,731,478,364,638.389265083",
                        "iconUrl": "",
                        "isERC1155": false,
                        "isERC721": false,
                        "sign": false,
                        "value": "1769.546617"
                    }
                ]
            },
            {
                "account": "0x1e2f15302b90edde696593607b6bd444b64e8f02",
                "assets": [
                    {
                        "address": "0x1e2f15302b90edde696593607b6bd444b64e8f02",
                        "amount": "1,331,869,308,294.784518745",
                        "iconUrl": "",
                        "isERC1155": false,
                        "isERC721": false,
                        "sign": false,
                        "value": "18.26174843"
                    },
                    {
                        "address": "0xeeeeeeeeeeeeeeeeeeeeeeeeeeeeeeeeeeeeeeee",
                        "amount": "0.000000000000000001",
                        "iconUrl": "https://assets.blocksec.com/image/1663669189317-3.png",
                        "isERC1155": false,
                        "isERC721": false,
                        "sign": true,
                        "value": ""
                    }
                ]
            },
            {
                "account": "0xc02aaa39b223fe8d0a0e5c4f27ead9083c756cc2",
                "assets": [
                    {
                        "address": "0xeeeeeeeeeeeeeeeeeeeeeeeeeeeeeeeeeeeeeeee",
                        "amount": "0.005632770762031665",
                        "iconUrl": "https://assets.blocksec.com/image/1663669189317-3.png",
                        "isERC1155": false,
                        "isERC721": false,
                        "sign": false,
                        "value": "18.2740214"
                    },
                    {
                        "address": "0xc02aaa39b223fe8d0a0e5c4f27ead9083c756cc2",
                        "amount": "0.005632770762031665",
                        "iconUrl": "https://assets.blocksec.com/icon/f1cb2d02c471d545bbc7722daf3277fd852d98e63d118771af7047bd8256c516.png",
                        "isERC1155": false,
                        "isERC721": false,
                        "sign": true,
                        "value": "18.2740214"
                    }
                ]
            },
            {
                "account": "0xe6e1f4f9b0303ca3878a110061c0ec9b84fddd03",
                "assets": [
                    {
                        "address": "0x1e2f15302b90edde696593607b6bd444b64e8f02",
                        "amount": "1,331,869,308,294.784518745",
                        "iconUrl": "",
                        "isERC1155": false,
                        "isERC721": false,
                        "sign": true,
                        "value": "18.26174843"
                    },
                    {
                        "address": "0xc02aaa39b223fe8d0a0e5c4f27ead9083c756cc2",
                        "amount": "0.005632770762031665",
                        "iconUrl": "https://assets.blocksec.com/icon/f1cb2d02c471d545bbc7722daf3277fd852d98e63d118771af7047bd8256c516.png",
                        "isERC1155": false,
                        "isERC721": false,
                        "sign": false,
                        "value": "18.2740214"
                    }
                ]
            },
            {
                "account": "0xe7bd7ad246abd89964732a0783bbe1f629f557ad",
                "assets": [
                    {
                        "address": "0xeeeeeeeeeeeeeeeeeeeeeeeeeeeeeeeeeeeeeeee",
                        "amount": "0.005632770762031664",
                        "iconUrl": "https://assets.blocksec.com/image/1663669189317-3.png",
                        "isERC1155": false,
                        "isERC721": false,
                        "sign": true,
                        "value": "18.2740214"
                    }
                ]
            }
        ]
    },
    "profile": {
        "basic_info": {
            "baseFee": "35.973144279",
            "blockNumber": 14558123,
            "callData": "0x51cff8d90000000000000000000000001e2f15302b90edde696593607b6bd444b64e8f02",
            "debugEnable": true,
            "errorInfo": "",
            "eventCount": 9,
            "feeRecipient": "0xab3b229eb4bcff881275e7ea2f0fd24eeac8c83a",
            "formatValue": "0",
            "gasLimit": 327064,
            "gasPrice": "38.473144279",
            "gasUsed": 266076,
            "intTxnCount": 17,
            "internalRevert": false,
            "internalRevertMessage": "",
            "isContractCreation": false,
            "isFlashloan": false,
            "maxFee": "74.427747036",
            "nonce": 113,
            "overwritedBlockNumber": -1,
            "priorityFee": "2.5",
            "receiver": "0x140a330d37d05d6e3ba4b6a9a3e25da209890c20",
            "revertMessage": "",
            "sender": "0xfeaf7526162e82f10ba579db3a5c084ab5196ffc",
            "simulationEnable": true,
            "sourceTxnHash": "0x915595ef596f3aa41af2aabb1f28b2082f133892e1d861211eaf404ad90cde9b",
            "status": true,
            "timestamp": "2022-04-10T13:08:42Z",
            "transactionFee": "0.010236780337179204",
            "txnHash": "0x915595ef596f3aa41af2aabb1f28b2082f133892e1d861211eaf404ad90cde9b",
            "txnIndex": 10,
            "type": 2,
            "value": "0"
        },
        "fund_flow": [
            {
                "amount": "8",
                "from": "0x140a330d37d05d6e3ba4b6a9a3e25da209890c20",
                "id": 1,
                "isERC1155": false,
                "isERC721": false,
                "isReverted": false,
                "order": 1,
                "to": "0xfeaf7526162e82f10ba579db3a5c084ab5196ffc",
                "token": "0x773d6e3e85ed29d2c40c42f7cbc8ad3d4ddbeef0"
            },
            {
                "amount": "1,331,869,308,294.784518745",
                "from": "0x1e2f15302b90edde696593607b6bd444b64e8f02",
                "id": 2,
                "isERC1155": false,
                "isERC721": false,
                "isReverted": false,
                "order": 2,
                "to": "0xe6e1f4f9b0303ca3878a110061c0ec9b84fddd03",
                "token": "0x1e2f15302b90edde696593607b6bd444b64e8f02"
            },
            {
                "amount": "0.005632770762031665",
                "from": "0xe6e1f4f9b0303ca3878a110061c0ec9b84fddd03",
                "id": 3,
                "isERC1155": false,
                "isERC721": false,
                "isReverted": false,
                "order": 3,
                "to": "0x7a250d5630b4cf539739df2c5dacb4c659f2488d",
                "token": "0xc02aaa39b223fe8d0a0e5c4f27ead9083c756cc2"
            },
            {
                "amount": "0.005632770762031665",
                "from": "0xc02aaa39b223fe8d0a0e5c4f27ead9083c756cc2",
                "id": 4,
                "isERC1155": false,
                "isERC721": false,
                "isReverted": false,
                "order": 4,
                "to": "0x7a250d5630b4cf539739df2c5dacb4c659f2488d",
                "token": "0xeeeeeeeeeeeeeeeeeeeeeeeeeeeeeeeeeeeeeeee"
            },
            {
                "amount": "0.005632770762031665",
                "from": "0x7a250d5630b4cf539739df2c5dacb4c659f2488d",
                "id": 5,
                "isERC1155": false,
                "isERC721": false,
                "isReverted": false,
                "order": 5,
                "to": "0xc02aaa39b223fe8d0a0e5c4f27ead9083c756cc2",
                "token": "0xc02aaa39b223fe8d0a0e5c4f27ead9083c756cc2"
            },
            {
                "amount": "0.005632770762031665",
                "from": "0x7a250d5630b4cf539739df2c5dacb4c659f2488d",
                "id": 6,
                "isERC1155": false,
                "isERC721": false,
                "isReverted": false,
                "order": 6,
                "to": "0x1e2f15302b90edde696593607b6bd444b64e8f02",
                "token": "0xeeeeeeeeeeeeeeeeeeeeeeeeeeeeeeeeeeeeeeee"
            },
            {
                "amount": "0.005632770762031664",
                "from": "0x1e2f15302b90edde696593607b6bd444b64e8f02",
                "id": 7,
                "isERC1155": false,
                "isERC721": false,
                "isReverted": false,
                "order": 7,
                "to": "0xe7bd7ad246abd89964732a0783bbe1f629f557ad",
                "token": "0xeeeeeeeeeeeeeeeeeeeeeeeeeeeeeeeeeeeeeeee"
            },
            {
                "amount": "129,731,478,364,638.389265083",
                "from": "0x140a330d37d05d6e3ba4b6a9a3e25da209890c20",
                "id": 8,
                "isERC1155": false,
                "isERC721": false,
                "isReverted": false,
                "order": 8,
                "to": "0xfeaf7526162e82f10ba579db3a5c084ab5196ffc",
                "token": "0x1e2f15302b90edde696593607b6bd444b64e8f02"
            }
        ],
        "token_infos": [
            {
                "address": "0x1e2f15302b90edde696593607b6bd444b64e8f02",
                "decimals": 9
            },
            {
                "address": "0x773d6e3e85ed29d2c40c42f7cbc8ad3d4ddbeef0",
                "decimals": 0
            },
            {
                "address": "0xc02aaa39b223fe8d0a0e5c4f27ead9083c756cc2",
                "decimals": 18
            },
            {
                "address": "0xeeeeeeeeeeeeeeeeeeeeeeeeeeeeeeeeeeeeeeee",
                "decimals": 18
            }
        ]
    },
    "address_label": {
        "labels": [
            {
                "address": "0x140a330d37d05d6e3ba4b6a9a3e25da209890c20",
                "label": "ShiryoinuChef"
            },
            {
                "address": "0x773d6e3e85ed29d2c40c42f7cbc8ad3d4ddbeef0",
                "label": "Shiryoinu Normal (ShiryoN)"
            },
            {
                "address": "0xe6e1f4f9b0303ca3878a110061c0ec9b84fddd03",
                "label": "Uniswap V2: Shiryo-Inu"
            },
            {
                "address": "0x0000000000000000000000000000000000000002",
                "label": "Precompiled"
            },
            {
                "address": "0x0000000000000000000000000000000000000003",
                "label": "Precompiled"
            },
            {
                "address": "0x0000000000000000000000000000000000000004",
                "label": "Precompiled"
            },
            {
                "address": "0xeeeeeeeeeeeeeeeeeeeeeeeeeeeeeeeeeeeeeeee",
                "label": "Ether"
            },
            {
                "address": "0x7a250d5630b4cf539739df2c5dacb4c659f2488d",
                "label": "Uniswap V2: Router 2"
            },
            {
                "address": "0xc02aaa39b223fe8d0a0e5c4f27ead9083c756cc2",
                "label": "Wrapped Ether (WETH)"
            },
            {
                "address": "0x1e2f15302b90edde696593607b6bd444b64e8f02",
                "label": "Shiryo Inu: Shiryo-Inu Token"
            },
            {
                "address": "0x0000000000000000000000000000000000000001",
                "label": "Precompiled"
            }
        ]
    },
    "trace": {
        "accountLabels": null,
        "dataMap": {
            "-1": {
                "invocation": {
                    "address": "0xfeaf7526162e82f10ba579db3a5c084ab5196ffc",
                    "callData": "",
                    "decodedMethod": null,
                    "errorInfo": "",
                    "fromAddress": "",
                    "gasUsed": 0,
                    "id": -1,
                    "methodDecoded": false,
                    "operation": "",
                    "output": "",
                    "revert": false,
                    "revertMessage": "",
                    "selector": "",
                    "status": false,
                    "value": ""
                },
                "nodeType": 0
            },
            "0": {
                "invocation": {
                    "address": "0x140a330d37d05d6e3ba4b6a9a3e25da209890c20",
                    "callData": "0x0000000000000000000000001e2f15302b90edde696593607b6bd444b64e8f02",
                    "decodedMethod": {
                        "callParams": [
                            {
                                "name": "_target",
                                "type": "address",
                                "value": "0x1e2f15302b90edde696593607b6bd444b64e8f02"
                            }
                        ],
                        "constructorArguments": "",
                        "name": "withdraw",
                        "returnParams": [],
                        "signature": "withdraw(address)"
                    },
                    "errorInfo": "",
                    "fromAddress": "0xfeaf7526162e82f10ba579db3a5c084ab5196ffc",
                    "gasUsed": 266076,
                    "id": 0,
                    "methodDecoded": true,
                    "operation": "CALL",
                    "output": "",
                    "revert": false,
                    "revertMessage": "",
                    "selector": "0x51cff8d9",
                    "status": true,
                    "value": "0"
                },
                "nodeType": 0
            },
            "1": {
                "invocation": {
                    "address": "0x773d6e3e85ed29d2c40c42f7cbc8ad3d4ddbeef0",
                    "callData": "0x000000000000000000000000feaf7526162e82f10ba579db3a5c084ab5196ffc0000000000000000000000000000000000000000000000000000000000000008",
                    "decodedMethod": {
                        "callParams": [
                            {
                                "name": "recipient",
                                "type": "address",
                                "value": "0xfeaf7526162e82f10ba579db3a5c084ab5196ffc"
                            },
                            {
                                "decimalAvailable": true,
                                "name": "amount",
                                "type": "uint256",
                                "value": "8"
                            }
                        ],
                        "constructorArguments": "",
                        "name": "transfer",
                        "returnParams": [
                            {
                                "name": "",
                                "type": "bool",
                                "value": true
                            }
                        ],
                        "signature": "transfer(address,uint256)"
                    },
                    "errorInfo": "",
                    "fromAddress": "0x140a330d37d05d6e3ba4b6a9a3e25da209890c20",
                    "gasUsed": 13113,
                    "id": 1,
                    "methodDecoded": true,
                    "operation": "CALL",
                    "output": "0x0000000000000000000000000000000000000000000000000000000000000001",
                    "revert": false,
                    "revertMessage": "",
                    "selector": "0xa9059cbb",
                    "status": true,
                    "value": "0"
                },
                "nodeType": 0
            },
            "10": {
                "invocation": {
                    "address": "0xe6e1f4f9b0303ca3878a110061c0ec9b84fddd03",
                    "callData": "0x",
                    "decodedMethod": {
                        "callParams": [],
                        "constructorArguments": "",
                        "name": "getReserves",
                        "returnParams": [
                            {
                                "name": "_reserve0",
                                "type": "uint112",
                                "value": "25,000,292,879,205,328,126,113,570"
                            },
                            {
                                "name": "_reserve1",
                                "type": "uint112",
                                "value": "105,984,339,460,394,760,371"
                            },
                            {
                                "name": "_blockTimestampLast",
                                "type": "uint32",
                                "value": "1,649,595,085"
                            }
                        ],
                        "signature": "getReserves()"
                    },
                    "errorInfo": "",
                    "fromAddress": "0x7a250d5630b4cf539739df2c5dacb4c659f2488d",
                    "gasUsed": 2504,
                    "id": 10,
                    "methodDecoded": true,
                    "operation": "STATICCALL",
                    "output": "0x00000000000000000000000000000000000000000014ae0497b5f8b61aa67722000000000000000000000000000000000000000000000005bed40335cb3eb8b3000000000000000000000000000000000000000000000000000000006252d2cd",
                    "revert": false,
                    "revertMessage": "",
                    "selector": "0x0902f1ac",
                    "status": true,
                    "value": "0"
                },
                "nodeType": 0
            },
            "11": {
                "invocation": {
                    "address": "0x1e2f15302b90edde696593607b6bd444b64e8f02",
                    "callData": "0x000000000000000000000000e6e1f4f9b0303ca3878a110061c0ec9b84fddd03",
                    "decodedMethod": {
                        "callParams": [
                            {
                                "name": "account",
                                "type": "address",
                                "value": "0xe6e1f4f9b0303ca3878a110061c0ec9b84fddd03"
                            }
                        ],
                        "constructorArguments": "",
                        "name": "balanceOf",
                        "returnParams": [
                            {
                                "decimalAvailable": true,
                                "name": "",
                                "type": "uint256",
                                "value": "25,001,625,643,655,304,420,919,940"
                            }
                        ],
                        "signature": "balanceOf(address)"
                    },
                    "errorInfo": "",
                    "fromAddress": "0x7a250d5630b4cf539739df2c5dacb4c659f2488d",
                    "gasUsed": 1699,
                    "id": 11,
                    "methodDecoded": true,
                    "operation": "STATICCALL",
                    "output": "0x00000000000000000000000000000000000000000014ae4cd78876ad14920a84",
                    "revert": false,
                    "revertMessage": "",
                    "selector": "0x70a08231",
                    "status": true,
                    "value": "0"
                },
                "nodeType": 0
            },
            "12": {
                "invocation": {
                    "address": "0xe6e1f4f9b0303ca3878a110061c0ec9b84fddd03",
                    "callData": "0x0000000000000000000000000000000000000000000000000000000000000000000000000000000000000000000000000000000000000000001402f9a45f42310000000000000000000000007a250d5630b4cf539739df2c5dacb4c659f2488d00000000000000000000000000000000000000000000000000000000000000800000000000000000000000000000000000000000000000000000000000000000",
                    "decodedMethod": {
                        "callParams": [
                            {
                                "name": "amount0Out",
                                "type": "uint256",
                                "value": "0"
                            },
                            {
                                "name": "amount1Out",
                                "type": "uint256",
                                "value": "5,632,770,762,031,665"
                            },
                            {
                                "name": "to",
                                "type": "address",
                                "value": "0x7a250d5630b4cf539739df2c5dacb4c659f2488d"
                            },
                            {
                                "name": "data",
                                "type": "bytes",
                                "value": "0x"
                            }
                        ],
                        "constructorArguments": "",
                        "name": "swap",
                        "returnParams": [],
                        "signature": "swap(uint256,uint256,address,bytes)"
                    },
                    "errorInfo": "",
                    "fromAddress": "0x7a250d5630b4cf539739df2c5dacb4c659f2488d",
                    "gasUsed": 66018,
                    "id": 12,
                    "methodDecoded": true,
                    "operation": "CALL",
                    "output": "",
                    "revert": false,
                    "revertMessage": "",
                    "selector": "0x022c0d9f",
                    "status": true,
                    "value": "0"
                },
                "nodeType": 0
            },
            "13": {
                "invocation": {
                    "address": "0xc02aaa39b223fe8d0a0e5c4f27ead9083c756cc2",
                    "callData": "0x0000000000000000000000007a250d5630b4cf539739df2c5dacb4c659f2488d000000000000000000000000000000000000000000000000001402f9a45f4231",
                    "decodedMethod": {
                        "callParams": [
                            {
                                "name": "dst",
                                "type": "address",
                                "value": "0x7a250d5630b4cf539739df2c5dacb4c659f2488d"
                            },
                            {
                                "decimalAvailable": true,
                                "name": "wad",
                                "type": "uint256",
                                "value": "5,632,770,762,031,665"
                            }
                        ],
                        "constructorArguments": "",
                        "name": "transfer",
                        "returnParams": [
                            {
                                "name": "",
                                "type": "bool",
                                "value": true
                            }
                        ],
                        "signature": "transfer(address,uint256)"
                    },
                    "errorInfo": "",
                    "fromAddress": "0xe6e1f4f9b0303ca3878a110061c0ec9b84fddd03",
                    "gasUsed": 29962,
                    "id": 13,
                    "methodDecoded": true,
                    "operation": "CALL",
                    "output": "0x0000000000000000000000000000000000000000000000000000000000000001",
                    "revert": false,
                    "revertMessage": "",
                    "selector": "0xa9059cbb",
                    "status": true,
                    "value": "0"
                },
                "nodeType": 0
            },
            "14": {
                "event": {
                    "contract": "0xc02aaa39b223fe8d0a0e5c4f27ead9083c756cc2",
                    "decodedLog": {
                        "name": "Transfer",
                        "params": [
                            {
                                "name": "src",
                                "type": "address",
                                "value": "0xe6e1f4f9b0303ca3878a110061c0ec9b84fddd03"
                            },
                            {
                                "name": "dst",
                                "type": "address",
                                "value": "0x7a250d5630b4cf539739df2c5dacb4c659f2488d"
                            },
                            {
                                "decimalAvailable": true,
                                "name": "wad",
                                "type": "uint256",
                                "value": "5,632,770,762,031,665"
                            }
                        ],
                        "signature": "Transfer(address,address,uint256)"
                    },
                    "id": 14,
                    "logData": "0x000000000000000000000000000000000000000000000000001402f9a45f4231",
                    "logDecoded": true,
                    "operation": "EVENT",
                    "revert": false,
                    "status": true,
                    "topics": [
                        "0xddf252ad1be2c89b69c2b068fc378daa952ba7f163c4a11628f55a4df523b3ef",
                        "0x000000000000000000000000e6e1f4f9b0303ca3878a110061c0ec9b84fddd03",
                        "0x0000000000000000000000007a250d5630b4cf539739df2c5dacb4c659f2488d"
                    ]
                },
                "nodeType": 1
            },
            "15": {
                "invocation": {
                    "address": "0x1e2f15302b90edde696593607b6bd444b64e8f02",
                    "callData": "0x000000000000000000000000e6e1f4f9b0303ca3878a110061c0ec9b84fddd03",
                    "decodedMethod": {
                        "callParams": [
                            {
                                "name": "account",
                                "type": "address",
                                "value": "0xe6e1f4f9b0303ca3878a110061c0ec9b84fddd03"
                            }
                        ],
                        "constructorArguments": "",
                        "name": "balanceOf",
                        "returnParams": [
                            {
                                "decimalAvailable": true,
                                "name": "",
                                "type": "uint256",
                                "value": "25,001,625,643,655,304,420,919,940"
                            }
                        ],
                        "signature": "balanceOf(address)"
                    },
                    "errorInfo": "",
                    "fromAddress": "0xe6e1f4f9b0303ca3878a110061c0ec9b84fddd03",
                    "gasUsed": 1699,
                    "id": 15,
                    "methodDecoded": true,
                    "operation": "STATICCALL",
                    "output": "0x00000000000000000000000000000000000000000014ae4cd78876ad14920a84",
                    "revert": false,
                    "revertMessage": "",
                    "selector": "0x70a08231",
                    "status": true,
                    "value": "0"
                },
                "nodeType": 0
            },
            "16": {
                "invocation": {
                    "address": "0xc02aaa39b223fe8d0a0e5c4f27ead9083c756cc2",
                    "callData": "0x000000000000000000000000e6e1f4f9b0303ca3878a110061c0ec9b84fddd03",
                    "decodedMethod": {
                        "callParams": [
                            {
                                "name": "",
                                "type": "address",
                                "value": "0xe6e1f4f9b0303ca3878a110061c0ec9b84fddd03"
                            }
                        ],
                        "constructorArguments": "",
                        "name": "balanceOf",
                        "returnParams": [
                            {
                                "decimalAvailable": true,
                                "name": "",
                                "type": "uint256",
                                "value": "105,978,706,689,632,728,706"
                            }
                        ],
                        "signature": "balanceOf(address)"
                    },
                    "errorInfo": "",
                    "fromAddress": "0xe6e1f4f9b0303ca3878a110061c0ec9b84fddd03",
                    "gasUsed": 534,
                    "id": 16,
                    "methodDecoded": true,
                    "operation": "STATICCALL",
                    "output": "0x000000000000000000000000000000000000000000000005bec0003c26df7682",
                    "revert": false,
                    "revertMessage": "",
                    "selector": "0x70a08231",
                    "status": true,
                    "value": "0"
                },
                "nodeType": 0
            },
            "17": {
                "event": {
                    "contract": "0xe6e1f4f9b0303ca3878a110061c0ec9b84fddd03",
                    "decodedLog": {
                        "name": "Sync",
                        "params": [
                            {
                                "name": "reserve0",
                                "type": "uint112",
                                "value": "25,001,625,643,655,304,420,919,940"
                            },
                            {
                                "name": "reserve1",
                                "type": "uint112",
                                "value": "105,978,706,689,632,728,706"
                            }
                        ],
                        "signature": "Sync(uint112,uint112)"
                    },
                    "id": 17,
                    "logData": "0x00000000000000000000000000000000000000000014ae4cd78876ad14920a84000000000000000000000000000000000000000000000005bec0003c26df7682",
                    "logDecoded": true,
                    "operation": "EVENT",
                    "revert": false,
                    "status": true,
                    "topics": [
                        "0x1c411e9a96e071241c2f21f7726b17ae89e3cab4c78be50e062b03a9fffbbad1"
                    ]
                },
                "nodeType": 1
            },
            "18": {
                "event": {
                    "contract": "0xe6e1f4f9b0303ca3878a110061c0ec9b84fddd03",
                    "decodedLog": {
                        "name": "Swap",
                        "params": [
                            {
                                "name": "sender",
                                "type": "address",
                                "value": "0x7a250d5630b4cf539739df2c5dacb4c659f2488d"
                            },
                            {
                                "name": "to",
                                "type": "address",
                                "value": "0x7a250d5630b4cf539739df2c5dacb4c659f2488d"
                            },
                            {
                                "name": "amount0In",
                                "type": "uint256",
                                "value": "1,332,764,449,976,294,806,370"
                            },
                            {
                                "name": "amount1In",
                                "type": "uint256",
                                "value": "0"
                            },
                            {
                                "name": "amount0Out",
                                "type": "uint256",
                                "value": "0"
                            },
                            {
                                "name": "amount1Out",
                                "type": "uint256",
                                "value": "5,632,770,762,031,665"
                            }
                        ],
                        "signature": "Swap(address,uint256,uint256,uint256,uint256,address)"
                    },
                    "id": 18,
                    "logData": "0x0000000000000000000000000000000000000000000000483fd27df6f9eb936200000000000000000000000000000000000000000000000000000000000000000000000000000000000000000000000000000000000000000000000000000000000000000000000000000000000000000000000000000000001402f9a45f4231",
                    "logDecoded": true,
                    "operation": "EVENT",
                    "revert": false,
                    "status": true,
                    "topics": [
                        "0xd78ad95fa46c994b6551d0da85fc275fe613ce37657fb8d5e3d130840159d822",
                        "0x0000000000000000000000007a250d5630b4cf539739df2c5dacb4c659f2488d",
                        "0x0000000000000000000000007a250d5630b4cf539739df2c5dacb4c659f2488d"
                    ]
                },
                "nodeType": 1
            },
            "19": {
                "invocation": {
                    "address": "0xc02aaa39b223fe8d0a0e5c4f27ead9083c756cc2",
                    "callData": "0x0000000000000000000000007a250d5630b4cf539739df2c5dacb4c659f2488d",
                    "decodedMethod": {
                        "callParams": [
                            {
                                "name": "",
                                "type": "address",
                                "value": "0x7a250d5630b4cf539739df2c5dacb4c659f2488d"
                            }
                        ],
                        "constructorArguments": "",
                        "name": "balanceOf",
                        "returnParams": [
                            {
                                "decimalAvailable": true,
                                "name": "",
                                "type": "uint256",
                                "value": "5,632,770,762,031,665"
                            }
                        ],
                        "signature": "balanceOf(address)"
                    },
                    "errorInfo": "",
                    "fromAddress": "0x7a250d5630b4cf539739df2c5dacb4c659f2488d",
                    "gasUsed": 534,
                    "id": 19,
                    "methodDecoded": true,
                    "operation": "STATICCALL",
                    "output": "0x000000000000000000000000000000000000000000000000001402f9a45f4231",
                    "revert": false,
                    "revertMessage": "",
                    "selector": "0x70a08231",
                    "status": true,
                    "value": "0"
                },
                "nodeType": 0
            },
            "2": {
                "event": {
                    "contract": "0x773d6e3e85ed29d2c40c42f7cbc8ad3d4ddbeef0",
                    "decodedLog": {
                        "name": "Transfer",
                        "params": [
                            {
                                "name": "from",
                                "type": "address",
                                "value": "0x140a330d37d05d6e3ba4b6a9a3e25da209890c20"
                            },
                            {
                                "name": "to",
                                "type": "address",
                                "value": "0xfeaf7526162e82f10ba579db3a5c084ab5196ffc"
                            },
                            {
                                "decimalAvailable": true,
                                "name": "value",
                                "type": "uint256",
                                "value": "8"
                            }
                        ],
                        "signature": "Transfer(address,address,uint256)"
                    },
                    "id": 2,
                    "logData": "0x0000000000000000000000000000000000000000000000000000000000000008",
                    "logDecoded": true,
                    "operation": "EVENT",
                    "revert": false,
                    "status": true,
                    "topics": [
                        "0xddf252ad1be2c89b69c2b068fc378daa952ba7f163c4a11628f55a4df523b3ef",
                        "0x000000000000000000000000140a330d37d05d6e3ba4b6a9a3e25da209890c20",
                        "0x000000000000000000000000feaf7526162e82f10ba579db3a5c084ab5196ffc"
                    ]
                },
                "nodeType": 1
            },
            "20": {
                "invocation": {
                    "address": "0xc02aaa39b223fe8d0a0e5c4f27ead9083c756cc2",
                    "callData": "0x000000000000000000000000000000000000000000000000001402f9a45f4231",
                    "decodedMethod": {
                        "callParams": [
                            {
                                "name": "wad",
                                "type": "uint256",
                                "value": "5,632,770,762,031,665"
                            }
                        ],
                        "constructorArguments": "",
                        "name": "withdraw",
                        "returnParams": [],
                        "signature": "withdraw(uint256)"
                    },
                    "errorInfo": "",
                    "fromAddress": "0x7a250d5630b4cf539739df2c5dacb4c659f2488d",
                    "gasUsed": 9223,
                    "id": 20,
                    "methodDecoded": true,
                    "operation": "CALL",
                    "output": "",
                    "revert": false,
                    "revertMessage": "",
                    "selector": "0x2e1a7d4d",
                    "status": true,
                    "value": "0"
                },
                "nodeType": 0
            },
            "21": {
                "invocation": {
                    "address": "0x7a250d5630b4cf539739df2c5dacb4c659f2488d",
                    "callData": "0x",
                    "decodedMethod": null,
                    "errorInfo": "",
                    "fromAddress": "0xc02aaa39b223fe8d0a0e5c4f27ead9083c756cc2",
                    "gasUsed": 83,
                    "id": 21,
                    "methodDecoded": false,
                    "operation": "CALL",
                    "output": "",
                    "revert": false,
                    "revertMessage": "",
                    "selector": "fallback",
                    "status": true,
                    "value": "0.005632770762031665"
                },
                "nodeType": 0
            },
            "22": {
                "event": {
                    "contract": "0xc02aaa39b223fe8d0a0e5c4f27ead9083c756cc2",
                    "decodedLog": {
                        "name": "Withdrawal",
                        "params": [
                            {
                                "name": "src",
                                "type": "address",
                                "value": "0x7a250d5630b4cf539739df2c5dacb4c659f2488d"
                            },
                            {
                                "name": "wad",
                                "type": "uint256",
                                "value": "5,632,770,762,031,665"
                            }
                        ],
                        "signature": "Withdrawal(address,uint256)"
                    },
                    "id": 22,
                    "logData": "0x000000000000000000000000000000000000000000000000001402f9a45f4231",
                    "logDecoded": true,
                    "operation": "EVENT",
                    "revert": false,
                    "status": true,
                    "topics": [
                        "0x7fcf532c15f0a6db0bd6d0e038bea71d30d808c7d98cb3bf7268a95bf5081b65",
                        "0x0000000000000000000000007a250d5630b4cf539739df2c5dacb4c659f2488d"
                    ]
                },
                "nodeType": 1
            },
            "23": {
                "invocation": {
                    "address": "0x1e2f15302b90edde696593607b6bd444b64e8f02",
                    "callData": "0x",
                    "decodedMethod": null,
                    "errorInfo": "",
                    "fromAddress": "0x7a250d5630b4cf539739df2c5dacb4c659f2488d",
                    "gasUsed": 55,
                    "id": 23,
                    "methodDecoded": false,
                    "operation": "CALL",
                    "output": "",
                    "revert": false,
                    "revertMessage": "",
                    "selector": "fallback",
                    "status": true,
                    "value": "0.005632770762031665"
                },
                "nodeType": 0
            },
            "24": {
                "invocation": {
                    "address": "0xe7bd7ad246abd89964732a0783bbe1f629f557ad",
                    "callData": "0x",
                    "decodedMethod": null,
                    "errorInfo": "",
                    "fromAddress": "0x1e2f15302b90edde696593607b6bd444b64e8f02",
                    "gasUsed": 0,
                    "id": 24,
                    "methodDecoded": false,
                    "operation": "CALL",
                    "output": "",
                    "revert": false,
                    "revertMessage": "",
                    "selector": "fallback",
                    "status": true,
                    "value": "0.002816385381015832"
                },
                "nodeType": 0
            },
            "25": {
                "invocation": {
                    "address": "0xe7bd7ad246abd89964732a0783bbe1f629f557ad",
                    "callData": "0x",
                    "decodedMethod": null,
                    "errorInfo": "",
                    "fromAddress": "0x1e2f15302b90edde696593607b6bd444b64e8f02",
                    "gasUsed": 0,
                    "id": 25,
                    "methodDecoded": false,
                    "operation": "CALL",
                    "output": "",
                    "revert": false,
                    "revertMessage": "",
                    "selector": "fallback",
                    "status": true,
                    "value": "0.002816385381015832"
                },
                "nodeType": 0
            },
            "26": {
                "event": {
                    "contract": "0x1e2f15302b90edde696593607b6bd444b64e8f02",
                    "decodedLog": {
                        "name": "Transfer",
                        "params": [
                            {
                                "name": "from",
                                "type": "address",
                                "value": "0x140a330d37d05d6e3ba4b6a9a3e25da209890c20"
                            },
                            {
                                "name": "to",
                                "type": "address",
                                "value": "0xfeaf7526162e82f10ba579db3a5c084ab5196ffc"
                            },
                            {
                                "decimalAvailable": true,
                                "name": "value",
                                "type": "uint256",
                                "value": "129,731,478,364,638,389,265,083"
                            }
                        ],
                        "signature": "Transfer(address,address,uint256)"
                    },
                    "id": 26,
                    "logData": "0x000000000000000000000000000000000000000000001b78c1edc1ced178e2bb",
                    "logDecoded": true,
                    "operation": "EVENT",
                    "revert": false,
                    "status": true,
                    "topics": [
                        "0xddf252ad1be2c89b69c2b068fc378daa952ba7f163c4a11628f55a4df523b3ef",
                        "0x000000000000000000000000140a330d37d05d6e3ba4b6a9a3e25da209890c20",
                        "0x000000000000000000000000feaf7526162e82f10ba579db3a5c084ab5196ffc"
                    ]
                },
                "nodeType": 1
            },
            "3": {
                "invocation": {
                    "address": "0x1e2f15302b90edde696593607b6bd444b64e8f02",
                    "callData": "0x000000000000000000000000feaf7526162e82f10ba579db3a5c084ab5196ffc000000000000000000000000000000000000000000001e862ccf491eafdba696",
                    "decodedMethod": {
                        "callParams": [
                            {
                                "name": "recipient",
                                "type": "address",
                                "value": "0xfeaf7526162e82f10ba579db3a5c084ab5196ffc"
                            },
                            {
                                "decimalAvailable": true,
                                "name": "amount",
                                "type": "uint256",
                                "value": "144,146,087,071,820,432,516,758"
                            }
                        ],
                        "constructorArguments": "",
                        "name": "transfer",
                        "returnParams": [
                            {
                                "name": "",
                                "type": "bool",
                                "value": true
                            }
                        ],
                        "signature": "transfer(address,uint256)"
                    },
                    "errorInfo": "",
                    "fromAddress": "0x140a330d37d05d6e3ba4b6a9a3e25da209890c20",
                    "gasUsed": 228221,
                    "id": 3,
                    "methodDecoded": true,
                    "operation": "CALL",
                    "output": "0x0000000000000000000000000000000000000000000000000000000000000001",
                    "revert": false,
                    "revertMessage": "",
                    "selector": "0xa9059cbb",
                    "status": true,
                    "value": "0"
                },
                "nodeType": 0
            },
            "4": {
                "invocation": {
                    "address": "0x7a250d5630b4cf539739df2c5dacb4c659f2488d",
                    "callData": "0x",
                    "decodedMethod": {
                        "callParams": [],
                        "constructorArguments": "",
                        "name": "WETH",
                        "returnParams": [
                            {
                                "name": "",
                                "type": "address",
                                "value": "0xc02aaa39b223fe8d0a0e5c4f27ead9083c756cc2"
                            }
                        ],
                        "signature": "WETH()"
                    },
                    "errorInfo": "",
                    "fromAddress": "0x1e2f15302b90edde696593607b6bd444b64e8f02",
                    "gasUsed": 275,
                    "id": 4,
                    "methodDecoded": true,
                    "operation": "STATICCALL",
                    "output": "0x000000000000000000000000c02aaa39b223fe8d0a0e5c4f27ead9083c756cc2",
                    "revert": false,
                    "revertMessage": "",
                    "selector": "0xad5c4648",
                    "status": true,
                    "value": "0"
                },
                "nodeType": 0
            },
            "5": {
                "event": {
                    "contract": "0x1e2f15302b90edde696593607b6bd444b64e8f02",
                    "decodedLog": {
                        "name": "Approval",
                        "params": [
                            {
                                "name": "owner",
                                "type": "address",
                                "value": "0x1e2f15302b90edde696593607b6bd444b64e8f02"
                            },
                            {
                                "name": "spender",
                                "type": "address",
                                "value": "0x7a250d5630b4cf539739df2c5dacb4c659f2488d"
                            },
                            {
                                "decimalAvailable": true,
                                "name": "value",
                                "type": "uint256",
                                "value": "1,479,854,786,994,205,020,827"
                            }
                        ],
                        "signature": "Approval(address,address,uint256)"
                    },
                    "id": 5,
                    "logData": "0x000000000000000000000000000000000000000000000050391c582a1ef2d29b",
                    "logDecoded": true,
                    "operation": "EVENT",
                    "revert": false,
                    "status": true,
                    "topics": [
                        "0x8c5be1e5ebec7d5bd14f71427d1e84f3dd0314c0f7b2291e5b200ac8c7c3b925",
                        "0x0000000000000000000000001e2f15302b90edde696593607b6bd444b64e8f02",
                        "0x0000000000000000000000007a250d5630b4cf539739df2c5dacb4c659f2488d"
                    ]
                },
                "nodeType": 1
            },
            "6": {
                "invocation": {
                    "address": "0x7a250d5630b4cf539739df2c5dacb4c659f2488d",
                    "callData": "0x000000000000000000000000000000000000000000000050391c582a1ef2d29b000000000000000000000000000000000000000000000000000000000000000000000000000000000000000000000000000000000000000000000000000000a00000000000000000000000001e2f15302b90edde696593607b6bd444b64e8f02000000000000000000000000000000000000000000000000000000006252d6da00000000000000000000000000000000000000000000000000000000000000020000000000000000000000001e2f15302b90edde696593607b6bd444b64e8f02000000000000000000000000c02aaa39b223fe8d0a0e5c4f27ead9083c756cc2",
                    "decodedMethod": {
                        "callParams": [
                            {
                                "name": "amountIn",
                                "type": "uint256",
                                "value": "1,479,854,786,994,205,020,827"
                            },
                            {
                                "name": "amountOutMin",
                                "type": "uint256",
                                "value": "0"
                            },
                            {
                                "name": "path",
                                "type": "address[]",
                                "value": [
                                    "0x1e2f15302b90edde696593607b6bd444b64e8f02",
                                    "0xc02aaa39b223fe8d0a0e5c4f27ead9083c756cc2"
                                ]
                            },
                            {
                                "name": "to",
                                "type": "address",
                                "value": "0x1e2f15302b90edde696593607b6bd444b64e8f02"
                            },
                            {
                                "name": "deadline",
                                "type": "uint256",
                                "value": "1,649,596,122"
                            }
                        ],
                        "constructorArguments": "",
                        "name": "swapExactTokensForETHSupportingFeeOnTransferTokens",
                        "returnParams": [],
                        "signature": "swapExactTokensForETHSupportingFeeOnTransferTokens(uint256,uint256,address[],address,uint256)"
                    },
                    "errorInfo": "",
                    "fromAddress": "0x1e2f15302b90edde696593607b6bd444b64e8f02",
                    "gasUsed": 133973,
                    "id": 6,
                    "methodDecoded": true,
                    "operation": "CALL",
                    "output": "",
                    "revert": false,
                    "revertMessage": "",
                    "selector": "0x791ac947",
                    "status": true,
                    "value": "0"
                },
                "nodeType": 0
            },
            "7": {
                "invocation": {
                    "address": "0x1e2f15302b90edde696593607b6bd444b64e8f02",
                    "callData": "0x0000000000000000000000001e2f15302b90edde696593607b6bd444b64e8f02000000000000000000000000e6e1f4f9b0303ca3878a110061c0ec9b84fddd03000000000000000000000000000000000000000000000050391c582a1ef2d29b",
                    "decodedMethod": {
                        "callParams": [
                            {
                                "name": "sender",
                                "type": "address",
                                "value": "0x1e2f15302b90edde696593607b6bd444b64e8f02"
                            },
                            {
                                "name": "recipient",
                                "type": "address",
                                "value": "0xe6e1f4f9b0303ca3878a110061c0ec9b84fddd03"
                            },
                            {
                                "decimalAvailable": true,
                                "name": "amount",
                                "type": "uint256",
                                "value": "1,479,854,786,994,205,020,827"
                            }
                        ],
                        "constructorArguments": "",
                        "name": "transferFrom",
                        "returnParams": [
                            {
                                "name": "",
                                "type": "bool",
                                "value": true
                            }
                        ],
                        "signature": "transferFrom(address,address,uint256)"
                    },
                    "errorInfo": "",
                    "fromAddress": "0x7a250d5630b4cf539739df2c5dacb4c659f2488d",
                    "gasUsed": 37303,
                    "id": 7,
                    "methodDecoded": true,
                    "operation": "CALL",
                    "output": "0x0000000000000000000000000000000000000000000000000000000000000001",
                    "revert": false,
                    "revertMessage": "",
                    "selector": "0x23b872dd",
                    "status": true,
                    "value": "0"
                },
                "nodeType": 0
            },
            "8": {
                "event": {
                    "contract": "0x1e2f15302b90edde696593607b6bd444b64e8f02",
                    "decodedLog": {
                        "name": "Transfer",
                        "params": [
                            {
                                "name": "from",
                                "type": "address",
                                "value": "0x1e2f15302b90edde696593607b6bd444b64e8f02"
                            },
                            {
                                "name": "to",
                                "type": "address",
                                "value": "0xe6e1f4f9b0303ca3878a110061c0ec9b84fddd03"
                            },
                            {
                                "decimalAvailable": true,
                                "name": "value",
                                "type": "uint256",
                                "value": "1,331,869,308,294,784,518,745"
                            }
                        ],
                        "signature": "Transfer(address,address,uint256)"
                    },
                    "id": 8,
                    "logData": "0x00000000000000000000000000000000000000000000004833664f591bda8a59",
                    "logDecoded": true,
                    "operation": "EVENT",
                    "revert": false,
                    "status": true,
                    "topics": [
                        "0xddf252ad1be2c89b69c2b068fc378daa952ba7f163c4a11628f55a4df523b3ef",
                        "0x0000000000000000000000001e2f15302b90edde696593607b6bd444b64e8f02",
                        "0x000000000000000000000000e6e1f4f9b0303ca3878a110061c0ec9b84fddd03"
                    ]
                },
                "nodeType": 1
            },
            "9": {
                "event": {
                    "contract": "0x1e2f15302b90edde696593607b6bd444b64e8f02",
                    "decodedLog": {
                        "name": "Approval",
                        "params": [
                            {
                                "name": "owner",
                                "type": "address",
                                "value": "0x1e2f15302b90edde696593607b6bd444b64e8f02"
                            },
                            {
                                "name": "spender",
                                "type": "address",
                                "value": "0x7a250d5630b4cf539739df2c5dacb4c659f2488d"
                            },
                            {
                                "decimalAvailable": true,
                                "name": "value",
                                "type": "uint256",
                                "value": "0"
                            }
                        ],
                        "signature": "Approval(address,address,uint256)"
                    },
                    "id": 9,
                    "logData": "0x0000000000000000000000000000000000000000000000000000000000000000",
                    "logDecoded": true,
                    "operation": "EVENT",
                    "revert": false,
                    "status": true,
                    "topics": [
                        "0x8c5be1e5ebec7d5bd14f71427d1e84f3dd0314c0f7b2291e5b200ac8c7c3b925",
                        "0x0000000000000000000000001e2f15302b90edde696593607b6bd444b64e8f02",
                        "0x0000000000000000000000007a250d5630b4cf539739df2c5dacb4c659f2488d"
                    ]
                },
                "nodeType": 1
            }
        },
        "gasFlame": [
            {
                "children": [
                    {
                        "children": [
                            {
                                "children": [],
                                "depth": 0,
                                "name": "Initial Gas",
                                "value": 21432
                            },
                            {
                                "children": [
                                    {
                                        "children": [],
                                        "depth": 1,
                                        "name": "transfer",
                                        "value": 13113
                                    },
                                    {
                                        "children": [
                                            {
                                                "children": [],
                                                "depth": 2,
                                                "name": "WETH",
                                                "value": 275
                                            },
                                            {
                                                "children": [
                                                    {
                                                        "children": [],
                                                        "depth": 3,
                                                        "name": "transferFrom",
                                                        "value": 37303
                                                    },
                                                    {
                                                        "children": [],
                                                        "depth": 3,
                                                        "name": "getReserves",
                                                        "value": 2504
                                                    },
                                                    {
                                                        "children": [],
                                                        "depth": 3,
                                                        "name": "balanceOf",
                                                        "value": 1699
                                                    },
                                                    {
                                                        "children": [
                                                            {
                                                                "children": [],
                                                                "depth": 4,
                                                                "name": "transfer",
                                                                "value": 29962
                                                            },
                                                            {
                                                                "children": [],
                                                                "depth": 4,
                                                                "name": "balanceOf",
                                                                "value": 1699
                                                            },
                                                            {
                                                                "children": [],
                                                                "depth": 4,
                                                                "name": "balanceOf",
                                                                "value": 534
                                                            }
                                                        ],
                                                        "depth": 3,
                                                        "name": "swap",
                                                        "value": 66018
                                                    },
                                                    {
                                                        "children": [],
                                                        "depth": 3,
                                                        "name": "balanceOf",
                                                        "value": 534
                                                    },
                                                    {
                                                        "children": [
                                                            {
                                                                "children": [],
                                                                "depth": 4,
                                                                "name": "fallback",
                                                                "value": 83
                                                            }
                                                        ],
                                                        "depth": 3,
                                                        "name": "withdraw",
                                                        "value": 9223
                                                    },
                                                    {
                                                        "children": [],
                                                        "depth": 3,
                                                        "name": "fallback",
                                                        "value": 55
                                                    }
                                                ],
                                                "depth": 2,
                                                "name": "swapExactTokensForETHSupportingFeeOnTransferTokens",
                                                "value": 133973
                                            },
                                            {
                                                "children": [],
                                                "depth": 2,
                                                "name": "fallback",
                                                "value": 0
                                            },
                                            {
                                                "children": [],
                                                "depth": 2,
                                                "name": "fallback",
                                                "value": 0
                                            }
                                        ],
                                        "depth": 1,
                                        "name": "transfer",
                                        "value": 228221
                                    }
                                ],
                                "depth": 0,
                                "name": "Executed Gas",
                                "value": 302444
                            }
                        ],
                        "depth": -1,
                        "name": "Actual Gas Used",
                        "value": 266076
                    },
                    {
                        "children": [],
                        "depth": -1,
                        "name": "Refunded Gas",
                        "value": 57800
                    }
                ],
                "depth": -2,
                "name": "Total Gas",
                "value": 323876
            }
        ],
        "isConfirmed": true,
        "mainTrace": [
            {
                "children": [
                    {
                        "children": [
                            {
                                "children": [
                                    {
                                        "children": [],
                                        "depth": 2,
                                        "id": 2,
                                        "order": 2
                                    }
                                ],
                                "depth": 1,
                                "id": 1,
                                "order": 1
                            },
                            {
                                "children": [
                                    {
                                        "children": [],
                                        "depth": 2,
                                        "id": 4,
                                        "order": 4
                                    },
                                    {
                                        "children": [],
                                        "depth": 2,
                                        "id": 5,
                                        "order": 5
                                    },
                                    {
                                        "children": [
                                            {
                                                "children": [
                                                    {
                                                        "children": [],
                                                        "depth": 4,
                                                        "id": 8,
                                                        "order": 8
                                                    },
                                                    {
                                                        "children": [],
                                                        "depth": 4,
                                                        "id": 9,
                                                        "order": 9
                                                    }
                                                ],
                                                "depth": 3,
                                                "id": 7,
                                                "order": 7
                                            },
                                            {
                                                "children": [],
                                                "depth": 3,
                                                "id": 10,
                                                "order": 10
                                            },
                                            {
                                                "children": [],
                                                "depth": 3,
                                                "id": 11,
                                                "order": 11
                                            },
                                            {
                                                "children": [
                                                    {
                                                        "children": [
                                                            {
                                                                "children": [],
                                                                "depth": 5,
                                                                "id": 14,
                                                                "order": 14
                                                            }
                                                        ],
                                                        "depth": 4,
                                                        "id": 13,
                                                        "order": 13
                                                    },
                                                    {
                                                        "children": [],
                                                        "depth": 4,
                                                        "id": 15,
                                                        "order": 15
                                                    },
                                                    {
                                                        "children": [],
                                                        "depth": 4,
                                                        "id": 16,
                                                        "order": 16
                                                    },
                                                    {
                                                        "children": [],
                                                        "depth": 4,
                                                        "id": 17,
                                                        "order": 17
                                                    },
                                                    {
                                                        "children": [],
                                                        "depth": 4,
                                                        "id": 18,
                                                        "order": 18
                                                    }
                                                ],
                                                "depth": 3,
                                                "id": 12,
                                                "order": 12
                                            },
                                            {
                                                "children": [],
                                                "depth": 3,
                                                "id": 19,
                                                "order": 19
                                            },
                                            {
                                                "children": [
                                                    {
                                                        "children": [],
                                                        "depth": 4,
                                                        "id": 21,
                                                        "order": 21
                                                    },
                                                    {
                                                        "children": [],
                                                        "depth": 4,
                                                        "id": 22,
                                                        "order": 22
                                                    }
                                                ],
                                                "depth": 3,
                                                "id": 20,
                                                "order": 20
                                            },
                                            {
                                                "children": [],
                                                "depth": 3,
                                                "id": 23,
                                                "order": 23
                                            }
                                        ],
                                        "depth": 2,
                                        "id": 6,
                                        "order": 6
                                    },
                                    {
                                        "children": [],
                                        "depth": 2,
                                        "id": 24,
                                        "order": 24
                                    },
                                    {
                                        "children": [],
                                        "depth": 2,
                                        "id": 25,
                                        "order": 25
                                    },
                                    {
                                        "children": [],
                                        "depth": 2,
                                        "id": 26,
                                        "order": 26
                                    }
                                ],
                                "depth": 1,
                                "id": 3,
                                "order": 3
                            }
                        ],
                        "depth": 0,
                        "id": 0,
                        "order": 0
                    }
                ],
                "depth": -1,
                "id": -1,
                "order": -1
            }
        ],
        "mainTraceNodeCount": 27,
        "parentIdMap": {
            "0": -1,
            "1": 0,
            "10": 6,
            "11": 6,
            "12": 6,
            "13": 12,
            "14": 13,
            "15": 12,
            "16": 12,
            "17": 12,
            "18": 12,
            "19": 6,
            "2": 1,
            "20": 6,
            "21": 20,
            "22": 20,
            "23": 6,
            "24": 3,
            "25": 3,
            "26": 3,
            "3": 0,
            "4": 3,
            "5": 3,
            "6": 3,
            "7": 6,
            "8": 7,
            "9": 7
        },
        "tidyTrace": [
            {
                "children": [
                    {
                        "children": [
                            {
                                "children": [
                                    {
                                        "children": [],
                                        "depth": 2,
                                        "id": 2,
                                        "order": 2
                                    }
                                ],
                                "depth": 1,
                                "id": 1,
                                "order": 1
                            },
                            {
                                "children": [
                                    {
                                        "children": [],
                                        "depth": 2,
                                        "id": 5,
                                        "order": 5
                                    },
                                    {
                                        "children": [
                                            {
                                                "children": [
                                                    {
                                                        "children": [],
                                                        "depth": 4,
                                                        "id": 8,
                                                        "order": 8
                                                    },
                                                    {
                                                        "children": [],
                                                        "depth": 4,
                                                        "id": 9,
                                                        "order": 9
                                                    }
                                                ],
                                                "depth": 3,
                                                "id": 7,
                                                "order": 7
                                            },
                                            {
                                                "children": [
                                                    {
                                                        "children": [
                                                            {
                                                                "children": [],
                                                                "depth": 5,
                                                                "id": 14,
                                                                "order": 14
                                                            }
                                                        ],
                                                        "depth": 4,
                                                        "id": 13,
                                                        "order": 13
                                                    },
                                                    {
                                                        "children": [],
                                                        "depth": 4,
                                                        "id": 17,
                                                        "order": 17
                                                    },
                                                    {
                                                        "children": [],
                                                        "depth": 4,
                                                        "id": 18,
                                                        "order": 18
                                                    }
                                                ],
                                                "depth": 3,
                                                "id": 12,
                                                "order": 12
                                            },
                                            {
                                                "children": [
                                                    {
                                                        "children": [],
                                                        "depth": 4,
                                                        "id": 21,
                                                        "order": 21
                                                    },
                                                    {
                                                        "children": [],
                                                        "depth": 4,
                                                        "id": 22,
                                                        "order": 22
                                                    }
                                                ],
                                                "depth": 3,
                                                "id": 20,
                                                "order": 20
                                            },
                                            {
                                                "children": [],
                                                "depth": 3,
                                                "id": 23,
                                                "order": 23
                                            }
                                        ],
                                        "depth": 2,
                                        "id": 6,
                                        "order": 6
                                    },
                                    {
                                        "children": [],
                                        "depth": 2,
                                        "id": 24,
                                        "order": 24
                                    },
                                    {
                                        "children": [],
                                        "depth": 2,
                                        "id": 25,
                                        "order": 25
                                    },
                                    {
                                        "children": [],
                                        "depth": 2,
                                        "id": 26,
                                        "order": 26
                                    }
                                ],
                                "depth": 1,
                                "id": 3,
                                "order": 3
                            }
                        ],
                        "depth": 0,
                        "id": 0,
                        "order": 0
                    }
                ],
                "depth": -1,
                "id": -1,
                "order": -1
            }
        ],
        "tidyTraceNodeCount": 21
    },
    "state_change": {
        "stateChanges": [
            {
                "address": "0x140a330d37d05d6e3ba4b6a9a3e25da209890c20",
                "erc": "",
                "slots": [
                    {
                        "current": "0x000000000000000000000000000000000000000000000000000000006252d6da",
                        "key": "0x6b3bc9f7657f983a3cc14fa8f2710d4c489b3791bef9a1e6e725e9d3bf31eebd",
                        "prev": "0x0000000000000000000000000000000000000000000000000000000062497e7b"
                    },
                    {
                        "current": "0x000000000000000000000000000000000000000000000000000000000000bd5a",
                        "key": "0x000000000000000000000000000000000000000000000000000000000000000a",
                        "prev": "0x000000000000000000000000000000000000000000000000000000000000bd52"
                    },
                    {
                        "current": "0x0000000000000000000000000000000000000000000000000000000000000000",
                        "key": "0x6b3bc9f7657f983a3cc14fa8f2710d4c489b3791bef9a1e6e725e9d3bf31eeb9",
                        "prev": "0x0000000000000000000000000000000000000000000021e19e0c9bab24000000"
                    },
                    {
                        "current": "0x0000000000000000000000000000000000000000000000000000000000000000",
                        "key": "0x6b3bc9f7657f983a3cc14fa8f2710d4c489b3791bef9a1e6e725e9d3bf31eeba",
                        "prev": "0x000000000000000000000000000000000000000000001e862ccf491eafdba696"
                    }
                ],
                "storageVariables": [
                    {
                        "name": "totalClaimed",
                        "type": "uint256",
                        "value": {
                            "current": "48474",
                            "prev": "48466",
                            "typeTag": 1
                        }
                    },
                    {
                        "name": "addressToUserPosition",
                        "type": "mapping(address => struct ShiryoinuChef.userPosition)",
                        "value": {
                            "pairs": [
                                {
                                    "key": "0xfeaf7526162e82f10ba579db3a5c084ab5196ffc",
                                    "value": {
                                        "fields": [
                                            {
                                                "name": "amountToken",
                                                "type": "uint256",
                                                "value": {
                                                    "current": "0",
                                                    "prev": "160000000000000000000000",
                                                    "typeTag": 1
                                                }
                                            },
                                            {
                                                "name": "amountTokenReceived",
                                                "type": "uint256",
                                                "value": {
                                                    "current": "0",
                                                    "prev": "144146087071820432516758",
                                                    "typeTag": 1
                                                }
                                            },
                                            {
                                                "name": "lastRewardTimestamp",
                                                "type": "uint256",
                                                "value": {
                                                    "current": "1649596122",
                                                    "prev": "1648983675",
                                                    "typeTag": 1
                                                }
                                            }
                                        ],
                                        "typeTag": 3
                                    }
                                }
                            ],
                            "typeTag": 4
                        }
                    }
                ]
            },
            {
                "address": "0x1e2f15302b90edde696593607b6bd444b64e8f02",
                "erc": "ERC-20",
                "slots": [
                    {
                        "current": "0xe63186ed1240e3820258c84f3b63ece125808d5838c7d235e08644ed48577580",
                        "key": "0x0000000000000000000000000000000000000000000000000000000000000008",
                        "prev": "0xe6319ce529492a0f6929c2a122e965249755bc8f898cfa84d4061f82caf8fda9"
                    },
                    {
                        "current": "0x00000000000000000000000000000000000000000057d18f988a341b6f4b6d60",
                        "key": "0x0000000000000000000000000000000000000000000000000000000000000009",
                        "prev": "0x00000000000000000000000000000000000000000057d140a6e1727e8bf25291"
                    },
                    {
                        "current": "0x0000c5b8cf4a7af89d58cefccaa9445a7f8ce2348c5663dc81b50b6ad3317440",
                        "key": "0xaecf438f79dc3ecd32c22d438dcc51c4f9cd233db56b31639754b8cf86464bb4",
                        "prev": "0x0000165337335a131b0f42103092b969dd0c6e8bd627214377cf3f63192bf04e"
                    },
                    {
                        "current": "0x157d53bb9d1297ed3e44141bf6fb747d260565d250aa842ad7121d33c65f8500",
                        "key": "0x4e68c9c39f2dc2fabe16a431f5b906f40d0a5115913beff902b7c95cb5d166dc",
                        "prev": "0x1585d251651acd164cd6b1dab461d5c4e39f78b96dfed2e9d728d90181efcd5a"
                    },
                    {
                        "current": "0x0007a520696d1623f3430845d28846d1c9cc3e367529aecdd1045597a22b54a9",
                        "key": "0xbb9dc02198bc6264936cf40c95983f6943c79a09670787c9bfe500402386d4f2",
                        "prev": "0x0000000002327fe566257a145d01d560d9e1c5a0e4aa8bfdf81e53c7c4cdaa6c"
                    },
                    {
                        "current": "0x05c1560a8dd26018f24ed4fdcb2630a1c80c491a55aca4e3a0f5428ac040cc37",
                        "key": "0xcb6a58830cf1f0b7ae2777aca2fcf529e3d41a47a528e1eac44423ebafa447ac",
                        "prev": "0x05c141f2dc2428a159f44caf04e243ff0eb251a8cfcbe3dc772a2f2a1eb53a35"
                    }
                ],
                "storageVariables": [
                    {
                        "name": "_rOwned",
                        "type": "mapping(address => uint256)",
                        "value": {
                            "pairs": [
                                {
                                    "key": "0x140a330d37d05d6e3ba4b6a9a3e25da209890c20",
                                    "value": {
                                        "current": "9720003606344381270317692578339549075941602665362846635838118078272770114816",
                                        "prev": "9735012041000192129697823814380579254183859212114211202388499507720737508698",
                                        "typeTag": 1
                                    }
                                },
                                {
                                    "key": "0x1e2f15302b90edde696593607b6bd444b64e8f02",
                                    "value": {
                                        "current": "1364626490788313506391763930613803550645393897149607514380468561258837056",
                                        "prev": "154081908503735135332954302542901777658712383642057243335508799708196942",
                                        "typeTag": 1
                                    }
                                },
                                {
                                    "key": "0xe6e1f4f9b0303ca3878a110061c0ec9b84fddd03",
                                    "value": {
                                        "current": "2603159561139427314638305047765988940566214540992606622139118643742091824183",
                                        "prev": "2603020887421773953016505369888758345475515734107501352184774671384819612213",
                                        "typeTag": 1
                                    }
                                },
                                {
                                    "key": "0xfeaf7526162e82f10ba579db3a5c084ab5196ffc",
                                    "value": {
                                        "current": "13507591421628684838288233981808550747751238240387209819215316447132341417",
                                        "prev": "231398911396170038249191798240029761504101626019357606761426954860",
                                        "typeTag": 1
                                    }
                                }
                            ],
                            "typeTag": 4
                        }
                    },
                    {
                        "name": "_rTotal",
                        "type": "uint256",
                        "value": {
                            "current": "104119461905765555122231270590409607681460771523490234032422929771580525868416",
                            "prev": "104119613530931198268176425143212719610331621105106700194948064559223965023657",
                            "typeTag": 1
                        }
                    },
                    {
                        "name": "_tFeeTotal",
                        "type": "uint256",
                        "value": {
                            "current": "106166169777450167502073184",
                            "prev": "106164713518031579355697809",
                            "typeTag": 1
                        }
                    }
                ]
            },
            {
                "address": "0x773d6e3e85ed29d2c40c42f7cbc8ad3d4ddbeef0",
                "erc": "ERC-20",
                "slots": [
                    {
                        "current": "0x00000000000000000000000000000000000000000000000000000000000ab64a",
                        "key": "0x00f384a08d26a8bcd51fc38db977b2de3d45eb87b1fa0b26cd6bee27703c541a",
                        "prev": "0x00000000000000000000000000000000000000000000000000000000000ab652"
                    },
                    {
                        "current": "0x0000000000000000000000000000000000000000000000000000000000000010",
                        "key": "0x6a1443be4cfbb11e28707f9ea3ee5077b54c8b964d2852f7e8a3b34d52c22527",
                        "prev": "0x0000000000000000000000000000000000000000000000000000000000000008"
                    }
                ],
                "storageVariables": [
                    {
                        "name": "_balances",
                        "type": "mapping(address => uint256)",
                        "value": {
                            "pairs": [
                                {
                                    "key": "0x140a330d37d05d6e3ba4b6a9a3e25da209890c20",
                                    "value": {
                                        "current": "702026",
                                        "prev": "702034",
                                        "typeTag": 1
                                    }
                                },
                                {
                                    "key": "0xfeaf7526162e82f10ba579db3a5c084ab5196ffc",
                                    "value": {
                                        "current": "16",
                                        "prev": "8",
                                        "typeTag": 1
                                    }
                                }
                            ],
                            "typeTag": 4
                        }
                    }
                ]
            },
            {
                "address": "0xc02aaa39b223fe8d0a0e5c4f27ead9083c756cc2",
                "erc": "ERC-20",
                "slots": [
                    {
                        "current": "0x000000000000000000000000000000000000000000000005bec0003c26df7682",
                        "key": "0xadb042beb15e7d1b8eed18261c468d7809bb51dd6e50b8e4884a840ed7b3c36a",
                        "prev": "0x000000000000000000000000000000000000000000000005bed40335cb3eb8b3"
                    }
                ],
                "storageVariables": [
                    {
                        "name": "balanceOf",
                        "type": "mapping(address => uint256)",
                        "value": {
                            "pairs": [
                                {
                                    "key": "0xe6e1f4f9b0303ca3878a110061c0ec9b84fddd03",
                                    "value": {
                                        "current": "105978706689632728706",
                                        "prev": "105984339460394760371",
                                        "typeTag": 1
                                    }
                                }
                            ],
                            "typeTag": 4
                        }
                    }
                ]
            },
            {
                "address": "0xe6e1f4f9b0303ca3878a110061c0ec9b84fddd03",
                "erc": "ERC-20",
                "slots": [
                    {
                        "current": "0x00000000000000000000000000000000008e01b5c15064b02a9ff8869a04bb6a",
                        "key": "0x0000000000000000000000000000000000000000000000000000000000000009",
                        "prev": "0x00000000000000000000000000000000008e0095a5abcba0c56487f22399c2da"
                    },
                    {
                        "current": "0x0000000000000000000000000215f762f0f3fcf3ff90e8cbea75b13c43d3c697",
                        "key": "0x000000000000000000000000000000000000000000000000000000000000000a",
                        "prev": "0x0000000000000000000000000215e8ce6ba7797dca6a58a06294ba89d3de4725"
                    },
                    {
                        "current": "0x6252d6da000000000005bec0003c26df768200000014ae4cd78876ad14920a84",
                        "key": "0x0000000000000000000000000000000000000000000000000000000000000008",
                        "prev": "0x6252d2cd000000000005bed40335cb3eb8b300000014ae0497b5f8b61aa67722"
                    }
                ],
                "storageVariables": [
                    {
                        "name": "reserve0",
                        "type": "uint112",
                        "value": {
                            "current": "25001625643655304420919940",
                            "prev": "25000292879205328126113570",
                            "typeTag": 1
                        }
                    },
                    {
                        "name": "reserve1",
                        "type": "uint112",
                        "value": {
                            "current": "105978706689632728706",
                            "prev": "105984339460394760371",
                            "typeTag": 1
                        }
                    },
                    {
                        "name": "blockTimestampLast",
                        "type": "uint32",
                        "value": {
                            "current": "1649596122",
                            "prev": "1649595085",
                            "typeTag": 1
                        }
                    },
                    {
                        "name": "price0CumulativeLast",
                        "type": "uint256",
                        "value": {
                            "current": "737340836446760704202318120600517482",
                            "prev": "737318010180874690412387173960106714",
                            "typeTag": 1
                        }
                    },
                    {
                        "name": "price1CumulativeLast",
                        "type": "uint256",
                        "value": {
                            "current": "11907847593395502791090919324112881873556063895",
                            "prev": "11906577482417549487072235436634646862559594277",
                            "typeTag": 1
                        }
                    }
                ]
            }
        ]
    }
}