{
    "balance_change": {
        "balanceChanges": [
            {
                "account": "0x54e1ae2a4c55c00d82699d8a27c058f1c55280c6",
                "assets": [
                    {
                        "address": "0xeeeeeeeeeeeeeeeeeeeeeeeeeeeeeeeeeeeeeeee",
                        "amount": "40,000",
                        "iconUrl": "https://assets.blocksec.com/image/1663669189317-3.png",
                        "isERC1155": false,
                        "isERC721": false,
                        "sign": false,
                        "value": ""
                    }
                ]
            },
            {
                "account": "0x976fd26bc177542c3ade3aa28b374f866e7dde4b",
                "assets": [
                    {
                        "address": "0xeeeeeeeeeeeeeeeeeeeeeeeeeeeeeeeeeeeeeeee",
                        "amount": "40,000",
                        "iconUrl": "https://assets.blocksec.com/image/1663669189317-3.png",
                        "isERC1155": false,
                        "isERC721": false,
                        "sign": true,
                        "value": ""
                    }
                ]
            }
        ]
    },
    "profile": {
        "basic_info": {
            "baseFee": "",
            "blockNumber": 4312757,
            "callData": "0xc01a8c840000000000000000000000000000000000000000000000000000000000000009",
            "debugEnable": true,
            "errorInfo": "",
            "eventCount": 2,
            "feeRecipient": "0x90e4be5cd24970a87e23e281f3ad40a89558b433",
            "formatValue": "0",
            "gasLimit": 100000,
            "gasPrice": "21",
            "gasUsed": 79684,
            "intTxnCount": 1,
            "internalRevert": false,
            "internalRevertMessage": "",
            "isContractCreation": false,
            "isFlashloan": false,
            "maxFee": "",
            "nonce": 8,
            "overwritedBlockNumber": -1,
            "priorityFee": "",
            "receiver": "0x54e1ae2a4c55c00d82699d8a27c058f1c55280c6",
            "revertMessage": "",
            "sender": "0xdb38c700b3791babdf0a7d79edaf8e6dcc16fe49",
            "simulationEnable": true,
            "sourceTxnHash": "0x9160a0aedea97b4eb8162527a32cd9e13670687e6a87ef5afd9d4ac58b9e2fbc",
            "status": true,
            "timestamp": "2017-09-26T08:24:07Z",
            "transactionFee": "0.001673364",
            "txnHash": "0x9160a0aedea97b4eb8162527a32cd9e13670687e6a87ef5afd9d4ac58b9e2fbc",
            "txnIndex": 59,
            "type": 0,
            "value": "0"
        },
        "fund_flow": [
            {
                "amount": "40,000",
                "from": "0x54e1ae2a4c55c00d82699d8a27c058f1c55280c6",
                "id": 1,
                "isERC1155": false,
                "isERC721": false,
                "isReverted": false,
                "order": 1,
                "to": "0x976fd26bc177542c3ade3aa28b374f866e7dde4b",
                "token": "0xeeeeeeeeeeeeeeeeeeeeeeeeeeeeeeeeeeeeeeee"
            }
        ],
        "token_infos": [
            {
                "address": "0xc02aaa39b223fe8d0a0e5c4f27ead9083c756cc2",
                "decimals": 18
            },
            {
                "address": "0xeeeeeeeeeeeeeeeeeeeeeeeeeeeeeeeeeeeeeeee",
                "decimals": 18
            }
        ]
    },
    "address_label": {
        "labels": [
            {
                "address": "0xeeeeeeeeeeeeeeeeeeeeeeeeeeeeeeeeeeeeeeee",
                "label": "Ether"
            },
            {
                "address": "0x54e1ae2a4c55c00d82699d8a27c058f1c55280c6",
                "label": "MultiSigWalletWithDailyLimit"
            },
            {
                "address": "0x0000000000000000000000000000000000000001",
                "label": "Precompiled"
            },
            {
                "address": "0x0000000000000000000000000000000000000002",
                "label": "Precompiled"
            },
            {
                "address": "0x0000000000000000000000000000000000000003",
                "label": "Precompiled"
            },
            {
                "address": "0x0000000000000000000000000000000000000004",
                "label": "Precompiled"
            }
        ]
    },
    "trace": {
        "accountLabels": null,
        "dataMap": {
            "-1": {
                "invocation": {
                    "address": "0xdb38c700b3791babdf0a7d79edaf8e6dcc16fe49",
                    "callData": "",
                    "decodedMethod": null,
                    "errorInfo": "",
                    "fromAddress": "",
                    "gasUsed": 0,
                    "id": -1,
                    "methodDecoded": false,
                    "operation": "",
                    "output": "",
                    "revert": false,
                    "revertMessage": "",
                    "selector": "",
                    "status": false,
                    "value": ""
                },
                "nodeType": 0
            },
            "0": {
                "invocation": {
                    "address": "0x54e1ae2a4c55c00d82699d8a27c058f1c55280c6",
                    "callData": "0x0000000000000000000000000000000000000000000000000000000000000009",
                    "decodedMethod": {
                        "callParams": [
                            {
                                "name": "transactionId",
                                "type": "uint256",
                                "value": "9"
                            }
                        ],
                        "constructorArguments": "",
                        "name": "confirmTransaction",
                        "returnParams": [],
                        "signature": "confirmTransaction(uint256)"
                    },
                    "errorInfo": "",
                    "fromAddress": "0xdb38c700b3791babdf0a7d79edaf8e6dcc16fe49",
                    "gasUsed": 79684,
                    "id": 0,
                    "methodDecoded": true,
                    "operation": "CALL",
                    "output": "",
                    "revert": false,
                    "revertMessage": "",
                    "selector": "0xc01a8c84",
                    "status": true,
                    "value": "0"
                },
                "nodeType": 0
            },
            "1": {
                "event": {
                    "contract": "0x54e1ae2a4c55c00d82699d8a27c058f1c55280c6",
                    "decodedLog": {
                        "name": "Confirmation",
                        "params": [
                            {
                                "name": "sender",
                                "type": "address",
                                "value": "0xdb38c700b3791babdf0a7d79edaf8e6dcc16fe49"
                            },
                            {
                                "name": "transactionId",
                                "type": "uint256",
                                "value": "9"
                            }
                        ],
                        "signature": "Confirmation(address,uint256)"
                    },
                    "id": 1,
                    "logData": "0x",
                    "logDecoded": true,
                    "operation": "EVENT",
                    "revert": false,
                    "status": true,
                    "topics": [
                        "0x4a504a94899432a9846e1aa406dceb1bcfd538bb839071d49d1e5e23f5be30ef",
                        "0x000000000000000000000000db38c700b3791babdf0a7d79edaf8e6dcc16fe49",
                        "0x0000000000000000000000000000000000000000000000000000000000000009"
                    ]
                },
                "nodeType": 1
            },
            "2": {
                "invocation": {
                    "address": "0x976fd26bc177542c3ade3aa28b374f866e7dde4b",
                    "callData": "0x",
                    "decodedMethod": null,
                    "errorInfo": "",
                    "fromAddress": "0x54e1ae2a4c55c00d82699d8a27c058f1c55280c6",
                    "gasUsed": 0,
                    "id": 2,
                    "methodDecoded": false,
                    "operation": "CALL",
                    "output": "",
                    "revert": false,
                    "revertMessage": "",
                    "selector": "fallback",
                    "status": true,
                    "value": "40000"
                },
                "nodeType": 0
            },
            "3": {
                "event": {
                    "contract": "0x54e1ae2a4c55c00d82699d8a27c058f1c55280c6",
                    "decodedLog": {
                        "name": "Execution",
                        "params": [
                            {
                                "name": "transactionId",
                                "type": "uint256",
                                "value": "9"
                            }
                        ],
                        "signature": "Execution(uint256)"
                    },
                    "id": 3,
                    "logData": "0x",
                    "logDecoded": true,
                    "operation": "EVENT",
                    "revert": false,
                    "status": true,
                    "topics": [
                        "0x33e13ecb54c3076d8e8bb8c2881800a4d972b792045ffae98fdf46df365fed75",
                        "0x0000000000000000000000000000000000000000000000000000000000000009"
                    ]
                },
                "nodeType": 1
            }
        },
        "gasFlame": [
            {
                "children": [
                    {
                        "children": [
                            {
                                "children": [],
                                "depth": 0,
                                "name": "Initial Gas",
                                "value": 21464
                            },
                            {
                                "children": [
                                    {
                                        "children": [],
                                        "depth": 1,
                                        "name": "fallback",
                                        "value": 0
                                    }
                                ],
                                "depth": 0,
                                "name": "Executed Gas",
                                "value": 58220
                            }
                        ],
                        "depth": -1,
                        "name": "Actual Gas Used",
                        "value": 79684
                    },
                    {
                        "children": [],
                        "depth": -1,
                        "name": "Refunded Gas",
                        "value": 0
                    }
                ],
                "depth": -2,
                "name": "Total Gas",
                "value": 79684
            }
        ],
        "isConfirmed": true,
        "mainTrace": [
            {
                "children": [
                    {
                        "children": [
                            {
                                "children": [],
                                "depth": 1,
                                "id": 1,
                                "order": 1
                            },
                            {
                                "children": [],
                                "depth": 1,
                                "id": 2,
                                "order": 2
                            },
                            {
                                "children": [],
                                "depth": 1,
                                "id": 3,
                                "order": 3
                            }
                        ],
                        "depth": 0,
                        "id": 0,
                        "order": 0
                    }
                ],
                "depth": -1,
                "id": -1,
                "order": -1
            }
        ],
        "mainTraceNodeCount": 4,
        "parentIdMap": {
            "0": -1,
            "1": 0,
            "2": 0,
            "3": 0
        },
        "tidyTrace": [
            {
                "children": [
                    {
                        "children": [
                            {
                                "children": [],
                                "depth": 1,
                                "id": 1,
                                "order": 1
                            },
                            {
                                "children": [],
                                "depth": 1,
                                "id": 2,
                                "order": 2
                            },
                            {
                                "children": [],
                                "depth": 1,
                                "id": 3,
                                "order": 3
                            }
                        ],
                        "depth": 0,
                        "id": 0,
                        "order": 0
                    }
                ],
                "depth": -1,
                "id": -1,
                "order": -1
            }
        ],
        "tidyTraceNodeCount": 4
    },
    "state_change": {
        "stateChanges": [
            {
                "address": "0x54e1ae2a4c55c00d82699d8a27c058f1c55280c6",
                "erc": "",
                "slots": [
                    {
                        "current": "0x0000000000000000000000000000000000000000000000000000000000000001",
                        "key": "0x5dca1b01178baf33927e64e7f96a396a7637eaf805299d75527070abd0ff6270",
                        "prev": "0x0000000000000000000000000000000000000000000000000000000000000000"
                    },
                    {
                        "current": "0x0000000000000000000000000000000000000000000000000000000000000001",
                        "key": "0x324fdf7bfe7bd2828491073f0b7868a9a19ee3eff384c2805040be3e426447f8",
                        "prev": "0x0000000000000000000000000000000000000000000000000000000000000000"
                    }
                ],
                "storageVariables": []
            }
        ]
    }
}