{
    "balance_change": {
        "balanceChanges": [
            {
                "account": "0x341cc72c2fa95b6682edea48afc5890fe9edf470",
                "assets": [
                    {
                        "address": "0x818fc6c2ec5986bc6e2cbf00939d90556ab12ce5",
                        "amount": "2,200,000",
                        "iconUrl": "https://assets.blocksec.com/icon/18c19de04f3f5c2ce79831de9b74b1264795a449aa28f1589d1d090f2945fea1.png",
                        "isERC1155": false,
                        "isERC721": false,
                        "sign": false,
                        "value": ""
                    }
                ]
            },
            {
                "account": "0x4908e92f3671901aa9cb235639b5e20a6f34263f",
                "assets": [
                    {
                        "address": "0x818fc6c2ec5986bc6e2cbf00939d90556ab12ce5",
                        "amount": "2,200,000",
                        "iconUrl": "https://assets.blocksec.com/icon/18c19de04f3f5c2ce79831de9b74b1264795a449aa28f1589d1d090f2945fea1.png",
                        "isERC1155": false,
                        "isERC721": false,
                        "sign": true,
                        "value": ""
                    }
                ]
            }
        ]
    },
    "profile": {
        "basic_info": {
            "baseFee": "",
            "blockNumber": 6088852,
            "callData": "0xa9059cbb0000000000000000000000004908e92f3671901aa9cb235639b5e20a6f34263f00000000000000000000000000000000000000000001d1de3d2d5c712f000000",
            "debugEnable": true,
            "errorInfo": "",
            "eventCount": 1,
            "feeRecipient": "0x4bb96091ee9d802ed039c4d1a5f6216f90f81b01",
            "formatValue": "0",
            "gasLimit": 52068,
            "gasPrice": "41",
            "gasUsed": 52068,
            "intTxnCount": 0,
            "internalRevert": false,
            "internalRevertMessage": "",
            "isContractCreation": false,
            "isFlashloan": false,
            "maxFee": "",
            "nonce": 26,
            "overwritedBlockNumber": -1,
            "priorityFee": "",
            "receiver": "0x818fc6c2ec5986bc6e2cbf00939d90556ab12ce5",
            "revertMessage": "",
            "sender": "0x341cc72c2fa95b6682edea48afc5890fe9edf470",
            "simulationEnable": true,
            "sourceTxnHash": "0x91ea6bc79aa34c85690b9e1d962a2b7ffef64c9b7f2e4b5a1a84e82353893c71",
            "status": true,
            "timestamp": "2018-08-04T20:59:06Z",
            "transactionFee": "0.002134788",
            "txnHash": "0x91ea6bc79aa34c85690b9e1d962a2b7ffef64c9b7f2e4b5a1a84e82353893c71",
            "txnIndex": 3,
            "type": 0,
            "value": "0"
        },
        "fund_flow": [
            {
                "amount": "2,200,000",
                "from": "0x341cc72c2fa95b6682edea48afc5890fe9edf470",
                "id": 1,
                "isERC1155": false,
                "isERC721": false,
                "isReverted": false,
                "order": 1,
                "to": "0x4908e92f3671901aa9cb235639b5e20a6f34263f",
                "token": "0x818fc6c2ec5986bc6e2cbf00939d90556ab12ce5"
            }
        ],
        "token_infos": [
            {
                "address": "0xeeeeeeeeeeeeeeeeeeeeeeeeeeeeeeeeeeeeeeee",
                "decimals": 18
            },
            {
                "address": "0x818fc6c2ec5986bc6e2cbf00939d90556ab12ce5",
                "decimals": 18
            },
            {
                "address": "0xc02aaa39b223fe8d0a0e5c4f27ead9083c756cc2",
                "decimals": 18
            }
        ]
    },
    "address_label": {
        "labels": [
            {
                "address": "0xeeeeeeeeeeeeeeeeeeeeeeeeeeeeeeeeeeeeeeee",
                "label": "Ether"
            },
            {
                "address": "0x4908e92f3671901aa9cb235639b5e20a6f34263f",
                "label": "HITBTC"
            },
            {
                "address": "0x818fc6c2ec5986bc6e2cbf00939d90556ab12ce5",
                "label": "Kin: Old Token"
            },
            {
                "address": "0x0000000000000000000000000000000000000001",
                "label": "Precompiled"
            },
            {
                "address": "0x0000000000000000000000000000000000000002",
                "label": "Precompiled"
            },
            {
                "address": "0x0000000000000000000000000000000000000003",
                "label": "Precompiled"
            },
            {
                "address": "0x0000000000000000000000000000000000000004",
                "label": "Precompiled"
            }
        ]
    },
    "trace": {
        "accountLabels": null,
        "dataMap": {
            "-1": {
                "invocation": {
                    "address": "0x341cc72c2fa95b6682edea48afc5890fe9edf470",
                    "callData": "",
                    "decodedMethod": null,
                    "errorInfo": "",
                    "fromAddress": "",
                    "gasUsed": 0,
                    "id": -1,
                    "methodDecoded": false,
                    "operation": "",
                    "output": "",
                    "revert": false,
                    "revertMessage": "",
                    "selector": "",
                    "status": false,
                    "value": ""
                },
                "nodeType": 0
            },
            "0": {
                "invocation": {
                    "address": "0x818fc6c2ec5986bc6e2cbf00939d90556ab12ce5",
                    "callData": "0x0000000000000000000000004908e92f3671901aa9cb235639b5e20a6f34263f00000000000000000000000000000000000000000001d1de3d2d5c712f000000",
                    "decodedMethod": {
                        "callParams": [
                            {
                                "name": "_to",
                                "type": "address",
                                "value": "0x4908e92f3671901aa9cb235639b5e20a6f34263f"
                            },
                            {
                                "decimalAvailable": true,
                                "name": "_value",
                                "type": "uint256",
                                "value": "2,200,000,000,000,000,000,000,000"
                            }
                        ],
                        "constructorArguments": "",
                        "name": "transfer",
                        "returnParams": [
                            {
                                "name": "",
                                "type": "bool",
                                "value": true
                            }
                        ],
                        "signature": "transfer(address,uint256)"
                    },
                    "errorInfo": "",
                    "fromAddress": "0x341cc72c2fa95b6682edea48afc5890fe9edf470",
                    "gasUsed": 52068,
                    "id": 0,
                    "methodDecoded": true,
                    "operation": "CALL",
                    "output": "0x0000000000000000000000000000000000000000000000000000000000000001",
                    "revert": false,
                    "revertMessage": "",
                    "selector": "0xa9059cbb",
                    "status": true,
                    "value": "0"
                },
                "nodeType": 0
            },
            "1": {
                "event": {
                    "contract": "0x818fc6c2ec5986bc6e2cbf00939d90556ab12ce5",
                    "decodedLog": {
                        "name": "Transfer",
                        "params": [
                            {
                                "name": "from",
                                "type": "address",
                                "value": "0x341cc72c2fa95b6682edea48afc5890fe9edf470"
                            },
                            {
                                "name": "to",
                                "type": "address",
                                "value": "0x4908e92f3671901aa9cb235639b5e20a6f34263f"
                            },
                            {
                                "decimalAvailable": true,
                                "name": "value",
                                "type": "uint256",
                                "value": "2,200,000,000,000,000,000,000,000"
                            }
                        ],
                        "signature": "Transfer(address,address,uint256)"
                    },
                    "id": 1,
                    "logData": "0x00000000000000000000000000000000000000000001d1de3d2d5c712f000000",
                    "logDecoded": true,
                    "operation": "EVENT",
                    "revert": false,
                    "status": true,
                    "topics": [
                        "0xddf252ad1be2c89b69c2b068fc378daa952ba7f163c4a11628f55a4df523b3ef",
                        "0x000000000000000000000000341cc72c2fa95b6682edea48afc5890fe9edf470",
                        "0x0000000000000000000000004908e92f3671901aa9cb235639b5e20a6f34263f"
                    ]
                },
                "nodeType": 1
            }
        },
        "gasFlame": [
            {
                "children": [
                    {
                        "children": [
                            {
                                "children": [],
                                "depth": 0,
                                "name": "Initial Gas",
                                "value": 23320
                            },
                            {
                                "children": [],
                                "depth": 0,
                                "name": "Executed Gas",
                                "value": 28748
                            }
                        ],
                        "depth": -1,
                        "name": "Actual Gas Used",
                        "value": 52068
                    },
                    {
                        "children": [],
                        "depth": -1,
                        "name": "Refunded Gas",
                        "value": 0
                    }
                ],
                "depth": -2,
                "name": "Total Gas",
                "value": 52068
            }
        ],
        "isConfirmed": true,
        "mainTrace": [
            {
                "children": [
                    {
                        "children": [
                            {
                                "children": [],
                                "depth": 1,
                                "id": 1,
                                "order": 1
                            }
                        ],
                        "depth": 0,
                        "id": 0,
                        "order": 0
                    }
                ],
                "depth": -1,
                "id": -1,
                "order": -1
            }
        ],
        "mainTraceNodeCount": 2,
        "parentIdMap": {
            "0": -1,
            "1": 0
        },
        "tidyTrace": [
            {
                "children": [
                    {
                        "children": [
                            {
                                "children": [],
                                "depth": 1,
                                "id": 1,
                                "order": 1
                            }
                        ],
                        "depth": 0,
                        "id": 0,
                        "order": 0
                    }
                ],
                "depth": -1,
                "id": -1,
                "order": -1
            }
        ],
        "tidyTraceNodeCount": 2
    },
    "state_change": {
        "stateChanges": [
            {
                "address": "0x818fc6c2ec5986bc6e2cbf00939d90556ab12ce5",
                "erc": "ERC-20",
                "slots": [
                    {
                        "current": "0x00000000000000000000000000000000000000000004259ab98a04a59acea9ac",
                        "key": "0x894129aef3b571b7a472def08ce2f99708f560866faf3478b98e71165facf178",
                        "prev": "0x00000000000000000000000000000000000000000005f778f6b76116c9cea9ac"
                    },
                    {
                        "current": "0x00000000000000000000000000000000000000000001d1de3d2d5c712f000000",
                        "key": "0x02fdd76de7d4f39150937ca540a6fdc6b3969ad8ffada695a3fa82f8625f00e6",
                        "prev": "0x0000000000000000000000000000000000000000000000000000000000000000"
                    }
                ],
                "storageVariables": [
                    {
                        "name": "balances",
                        "type": "mapping(address => uint256)",
                        "value": {
                            "pairs": [
                                {
                                    "key": "0x341cc72c2fa95b6682edea48afc5890fe9edf470",
                                    "value": {
                                        "current": "5013285006415597958769068",
                                        "prev": "7213285006415597958769068",
                                        "typeTag": 1
                                    }
                                },
                                {
                                    "key": "0x4908e92f3671901aa9cb235639b5e20a6f34263f",
                                    "value": {
                                        "current": "2200000000000000000000000",
                                        "prev": "0",
                                        "typeTag": 1
                                    }
                                }
                            ],
                            "typeTag": 4
                        }
                    }
                ]
            }
        ]
    }
}