{
    "balance_change": {
        "balanceChanges": [
            {
                "account": "0x0000000000000000000000000000000000000000",
                "assets": [
                    {
                        "address": "0xf41e5fbc2f6aac200dd8619e121ce1f05d150077",
                        "amount": "11.5",
                        "iconUrl": "https://assets.blocksec.com/icon/1c612864d59c3eae92849cc980f7c4f747f10710c9a18441c803d9a60b860ae1.png",
                        "isERC1155": false,
                        "isERC721": false,
                        "sign": false,
                        "value": ""
                    }
                ]
            },
            {
                "account": "0x932c151e7d7b74f1c58b528f14b336370bd1e643",
                "assets": [
                    {
                        "address": "0xf41e5fbc2f6aac200dd8619e121ce1f05d150077",
                        "amount": "11.5",
                        "iconUrl": "https://assets.blocksec.com/icon/1c612864d59c3eae92849cc980f7c4f747f10710c9a18441c803d9a60b860ae1.png",
                        "isERC1155": false,
                        "isERC721": false,
                        "sign": true,
                        "value": ""
                    }
                ]
            }
        ]
    },
    "profile": {
        "basic_info": {
            "baseFee": "",
            "blockNumber": 4760781,
            "callData": "0x229ddd9a000000000000000000000000932c151e7d7b74f1c58b528f14b336370bd1e6430000000000000000000000000000000000000000000000009f98351204fe0000000000000000000000000000000000000000000000000000000000000000004039626265346130353766666566633839316237396439653037306231313339623739376134626635346366393030373634656263386533656438363566613733",
            "debugEnable": true,
            "errorInfo": "",
            "eventCount": 3,
            "feeRecipient": "0x2a65aca4d5fc5b5c859090a6c34d164135398226",
            "formatValue": "0",
            "gasLimit": 100000,
            "gasPrice": "40",
            "gasUsed": 73935,
            "intTxnCount": 1,
            "internalRevert": false,
            "internalRevertMessage": "",
            "isContractCreation": false,
            "isFlashloan": false,
            "maxFee": "",
            "nonce": 499,
            "overwritedBlockNumber": -1,
            "priorityFee": "",
            "receiver": "0xa90c69d36d6aef0bcd167b67de055ad25c8f7c3e",
            "revertMessage": "",
            "sender": "0x40410023209bb53a104b395088d9c1595f0c9d13",
            "simulationEnable": true,
            "sourceTxnHash": "0x91a8fea900878d4d6ab233ce49b347c60fa26f0768a22159ccace23329e293d5",
            "status": true,
            "timestamp": "2017-12-19T16:07:20Z",
            "transactionFee": "0.0029574",
            "txnHash": "0x91a8fea900878d4d6ab233ce49b347c60fa26f0768a22159ccace23329e293d5",
            "txnIndex": 41,
            "type": 0,
            "value": "0"
        },
        "fund_flow": [
            {
                "amount": "11.5",
                "from": "0x0000000000000000000000000000000000000000",
                "id": 1,
                "isERC1155": false,
                "isERC721": false,
                "isReverted": false,
                "order": 1,
                "to": "0x932c151e7d7b74f1c58b528f14b336370bd1e643",
                "token": "0xf41e5fbc2f6aac200dd8619e121ce1f05d150077"
            }
        ],
        "token_infos": [
            {
                "address": "0xf41e5fbc2f6aac200dd8619e121ce1f05d150077",
                "decimals": 18
            },
            {
                "address": "0xeeeeeeeeeeeeeeeeeeeeeeeeeeeeeeeeeeeeeeee",
                "decimals": 18
            },
            {
                "address": "0xc02aaa39b223fe8d0a0e5c4f27ead9083c756cc2",
                "decimals": 18
            }
        ]
    },
    "address_label": {
        "labels": [
            {
                "address": "0x0000000000000000000000000000000000000004",
                "label": "Precompiled"
            },
            {
                "address": "0xeeeeeeeeeeeeeeeeeeeeeeeeeeeeeeeeeeeeeeee",
                "label": "Ether"
            },
            {
                "address": "0xa90c69d36d6aef0bcd167b67de055ad25c8f7c3e",
                "label": "CryCash: Deployer"
            },
            {
                "address": "0xf41e5fbc2f6aac200dd8619e121ce1f05d150077",
                "label": "CryCash: CRC Token"
            },
            {
                "address": "0x0000000000000000000000000000000000000001",
                "label": "Precompiled"
            },
            {
                "address": "0x0000000000000000000000000000000000000002",
                "label": "Precompiled"
            },
            {
                "address": "0x0000000000000000000000000000000000000003",
                "label": "Precompiled"
            }
        ]
    },
    "trace": {
        "accountLabels": null,
        "dataMap": {
            "-1": {
                "invocation": {
                    "address": "0x40410023209bb53a104b395088d9c1595f0c9d13",
                    "callData": "",
                    "decodedMethod": null,
                    "errorInfo": "",
                    "fromAddress": "",
                    "gasUsed": 0,
                    "id": -1,
                    "methodDecoded": false,
                    "operation": "",
                    "output": "",
                    "revert": false,
                    "revertMessage": "",
                    "selector": "",
                    "status": false,
                    "value": ""
                },
                "nodeType": 0
            },
            "0": {
                "invocation": {
                    "address": "0xa90c69d36d6aef0bcd167b67de055ad25c8f7c3e",
                    "callData": "0x000000000000000000000000932c151e7d7b74f1c58b528f14b336370bd1e6430000000000000000000000000000000000000000000000009f98351204fe0000000000000000000000000000000000000000000000000000000000000000004039626265346130353766666566633839316237396439653037306231313339623739376134626635346366393030373634656263386533656438363566613733",
                    "decodedMethod": {
                        "callParams": [
                            {
                                "name": "_investor",
                                "type": "address",
                                "value": "0x932c151e7d7b74f1c58b528f14b336370bd1e643"
                            },
                            {
                                "name": "_atlValue",
                                "type": "uint256",
                                "value": "11,500,000,000,000,000,000"
                            },
                            {
                                "name": "_txHash",
                                "type": "string",
                                "value": "9bbe4a057ffefc891b79d9e070b1139b797a4bf54cf900764ebc8e3ed865fa73"
                            }
                        ],
                        "constructorArguments": "",
                        "name": "foreignBuy",
                        "returnParams": [],
                        "signature": "foreignBuy(address,uint256,string)"
                    },
                    "errorInfo": "",
                    "fromAddress": "0x40410023209bb53a104b395088d9c1595f0c9d13",
                    "gasUsed": 73935,
                    "id": 0,
                    "methodDecoded": true,
                    "operation": "CALL",
                    "output": "",
                    "revert": false,
                    "revertMessage": "",
                    "selector": "0x229ddd9a",
                    "status": true,
                    "value": "0"
                },
                "nodeType": 0
            },
            "1": {
                "invocation": {
                    "address": "0xf41e5fbc2f6aac200dd8619e121ce1f05d150077",
                    "callData": "0x000000000000000000000000932c151e7d7b74f1c58b528f14b336370bd1e6430000000000000000000000000000000000000000000000009f98351204fe0000",
                    "decodedMethod": {
                        "callParams": [
                            {
                                "name": "_to",
                                "type": "address",
                                "value": "0x932c151e7d7b74f1c58b528f14b336370bd1e643"
                            },
                            {
                                "name": "_amount",
                                "type": "uint256",
                                "value": "11,500,000,000,000,000,000"
                            }
                        ],
                        "constructorArguments": "",
                        "name": "mint",
                        "returnParams": [
                            {
                                "name": "",
                                "type": "bool",
                                "value": true
                            }
                        ],
                        "signature": "mint(address,uint256)"
                    },
                    "errorInfo": "",
                    "fromAddress": "0xa90c69d36d6aef0bcd167b67de055ad25c8f7c3e",
                    "gasUsed": 30155,
                    "id": 1,
                    "methodDecoded": true,
                    "operation": "CALL",
                    "output": "0x0000000000000000000000000000000000000000000000000000000000000001",
                    "revert": false,
                    "revertMessage": "",
                    "selector": "0x40c10f19",
                    "status": true,
                    "value": "0"
                },
                "nodeType": 0
            },
            "2": {
                "event": {
                    "contract": "0xf41e5fbc2f6aac200dd8619e121ce1f05d150077",
                    "decodedLog": {
                        "name": "Mint",
                        "params": [
                            {
                                "name": "to",
                                "type": "address",
                                "value": "0x932c151e7d7b74f1c58b528f14b336370bd1e643"
                            },
                            {
                                "name": "amount",
                                "type": "uint256",
                                "value": "11,500,000,000,000,000,000"
                            }
                        ],
                        "signature": "Mint(address,uint256)"
                    },
                    "id": 2,
                    "logData": "0x0000000000000000000000000000000000000000000000009f98351204fe0000",
                    "logDecoded": true,
                    "operation": "EVENT",
                    "revert": false,
                    "status": true,
                    "topics": [
                        "0x0f6798a560793a54c3bcfe86a93cde1e73087d944c0ea20544137d4121396885",
                        "0x000000000000000000000000932c151e7d7b74f1c58b528f14b336370bd1e643"
                    ]
                },
                "nodeType": 1
            },
            "3": {
                "event": {
                    "contract": "0xf41e5fbc2f6aac200dd8619e121ce1f05d150077",
                    "decodedLog": {
                        "name": "Transfer",
                        "params": [
                            {
                                "name": "from",
                                "type": "address",
                                "value": "0x0000000000000000000000000000000000000000"
                            },
                            {
                                "name": "to",
                                "type": "address",
                                "value": "0x932c151e7d7b74f1c58b528f14b336370bd1e643"
                            },
                            {
                                "decimalAvailable": true,
                                "name": "value",
                                "type": "uint256",
                                "value": "11,500,000,000,000,000,000"
                            }
                        ],
                        "signature": "Transfer(address,address,uint256)"
                    },
                    "id": 3,
                    "logData": "0x0000000000000000000000000000000000000000000000009f98351204fe0000",
                    "logDecoded": true,
                    "operation": "EVENT",
                    "revert": false,
                    "status": true,
                    "topics": [
                        "0xddf252ad1be2c89b69c2b068fc378daa952ba7f163c4a11628f55a4df523b3ef",
                        "0x0000000000000000000000000000000000000000000000000000000000000000",
                        "0x000000000000000000000000932c151e7d7b74f1c58b528f14b336370bd1e643"
                    ]
                },
                "nodeType": 1
            },
            "4": {
                "event": {
                    "contract": "0xa90c69d36d6aef0bcd167b67de055ad25c8f7c3e",
                    "decodedLog": {
                        "name": "ForeignBuy",
                        "params": [
                            {
                                "name": "investor",
                                "type": "address",
                                "value": "0x932c151e7d7b74f1c58b528f14b336370bd1e643"
                            },
                            {
                                "name": "unlbValue",
                                "type": "uint256",
                                "value": "11,500,000,000,000,000,000"
                            },
                            {
                                "name": "txHash",
                                "type": "string",
                                "value": "9bbe4a057ffefc891b79d9e070b1139b797a4bf54cf900764ebc8e3ed865fa73"
                            }
                        ],
                        "signature": "ForeignBuy(address,uint256,string)"
                    },
                    "id": 4,
                    "logData": "0x000000000000000000000000932c151e7d7b74f1c58b528f14b336370bd1e6430000000000000000000000000000000000000000000000009f98351204fe00000000000000000000000000000000000000000000000000000000000000000060000000000000000000000000000000000000000000000000000000000000004039626265346130353766666566633839316237396439653037306231313339623739376134626635346366393030373634656263386533656438363566613733",
                    "logDecoded": true,
                    "operation": "EVENT",
                    "revert": false,
                    "status": true,
                    "topics": [
                        "0x051c6c5895a9354c55035535c5395df37fcf8d0df19ae9267ef653066a4a313c"
                    ]
                },
                "nodeType": 1
            }
        },
        "gasFlame": [
            {
                "children": [
                    {
                        "children": [
                            {
                                "children": [],
                                "depth": 0,
                                "name": "Initial Gas",
                                "value": 27736
                            },
                            {
                                "children": [
                                    {
                                        "children": [],
                                        "depth": 1,
                                        "name": "mint",
                                        "value": 30155
                                    }
                                ],
                                "depth": 0,
                                "name": "Executed Gas",
                                "value": 46199
                            }
                        ],
                        "depth": -1,
                        "name": "Actual Gas Used",
                        "value": 73935
                    },
                    {
                        "children": [],
                        "depth": -1,
                        "name": "Refunded Gas",
                        "value": 0
                    }
                ],
                "depth": -2,
                "name": "Total Gas",
                "value": 73935
            }
        ],
        "isConfirmed": true,
        "mainTrace": [
            {
                "children": [
                    {
                        "children": [
                            {
                                "children": [
                                    {
                                        "children": [],
                                        "depth": 2,
                                        "id": 2,
                                        "order": 2
                                    },
                                    {
                                        "children": [],
                                        "depth": 2,
                                        "id": 3,
                                        "order": 3
                                    }
                                ],
                                "depth": 1,
                                "id": 1,
                                "order": 1
                            },
                            {
                                "children": [],
                                "depth": 1,
                                "id": 4,
                                "order": 4
                            }
                        ],
                        "depth": 0,
                        "id": 0,
                        "order": 0
                    }
                ],
                "depth": -1,
                "id": -1,
                "order": -1
            }
        ],
        "mainTraceNodeCount": 5,
        "parentIdMap": {
            "0": -1,
            "1": 0,
            "2": 1,
            "3": 1,
            "4": 0
        },
        "tidyTrace": [
            {
                "children": [
                    {
                        "children": [
                            {
                                "children": [
                                    {
                                        "children": [],
                                        "depth": 2,
                                        "id": 2,
                                        "order": 2
                                    },
                                    {
                                        "children": [],
                                        "depth": 2,
                                        "id": 3,
                                        "order": 3
                                    }
                                ],
                                "depth": 1,
                                "id": 1,
                                "order": 1
                            },
                            {
                                "children": [],
                                "depth": 1,
                                "id": 4,
                                "order": 4
                            }
                        ],
                        "depth": 0,
                        "id": 0,
                        "order": 0
                    }
                ],
                "depth": -1,
                "id": -1,
                "order": -1
            }
        ],
        "tidyTraceNodeCount": 5
    },
    "state_change": {
        "stateChanges": [
            {
                "address": "0xa90c69d36d6aef0bcd167b67de055ad25c8f7c3e",
                "erc": "",
                "slots": [
                    {
                        "current": "0x0000000000000000000000000000000000000000000043215c30fd3f511e7e00",
                        "key": "0x0000000000000000000000000000000000000000000000000000000000000003",
                        "prev": "0x000000000000000000000000000000000000000000004320bc98c82d4c207e00"
                    },
                    {
                        "current": "0x0000000000000000000000000000000000000000000043215c30fd3f511e7e00",
                        "key": "0x0000000000000000000000000000000000000000000000000000000000000004",
                        "prev": "0x000000000000000000000000000000000000000000004320bc98c82d4c207e00"
                    }
                ],
                "storageVariables": []
            },
            {
                "address": "0xf41e5fbc2f6aac200dd8619e121ce1f05d150077",
                "erc": "ERC-20",
                "slots": [
                    {
                        "current": "0x0000000000000000000000000000000000000000000000009f98351204fe0000",
                        "key": "0xb64e663dbb993254e52052da12125acbf71d3b09025993c094780e8f9aa41623",
                        "prev": "0x0000000000000000000000000000000000000000000000000000000000000000"
                    },
                    {
                        "current": "0x0000000000000000000000000000000000000000000043215c30fd3f511e7e00",
                        "key": "0x0000000000000000000000000000000000000000000000000000000000000000",
                        "prev": "0x000000000000000000000000000000000000000000004320bc98c82d4c207e00"
                    }
                ],
                "storageVariables": [
                    {
                        "name": "balances",
                        "type": "mapping(address => uint256)",
                        "value": {
                            "pairs": [
                                {
                                    "key": "0x932c151e7d7b74f1c58b528f14b336370bd1e643",
                                    "value": {
                                        "current": "11500000000000000000",
                                        "prev": "0",
                                        "typeTag": 1
                                    }
                                }
                            ],
                            "typeTag": 4
                        }
                    },
                    {
                        "name": "totalSupply",
                        "type": "uint256",
                        "value": {
                            "current": "317013939994597401722368",
                            "prev": "317002439994597401722368",
                            "typeTag": 1
                        }
                    }
                ]
            }
        ]
    }
}