{
    "balance_change": {
        "balanceChanges": [
            {
                "account": "0x0d0707963952f2fba59dd06f2b425ace40b492fe",
                "assets": [
                    {
                        "address": "0xaea46a60368a7bd060eec7df8cba43b7ef41ad85",
                        "amount": "2,500.76",
                        "iconUrl": "https://assets.blocksec.com/icon/d3080f4da7c6089bd3fe04fbe19c7d75d4a0470a84a3ea23f3292998e227fd3d.png",
                        "isERC1155": false,
                        "isERC721": false,
                        "sign": false,
                        "value": "573.9244200000000239"
                    }
                ]
            },
            {
                "account": "0x73be60810f49c9bad39831ad88475a1209430453",
                "assets": [
                    {
                        "address": "0xaea46a60368a7bd060eec7df8cba43b7ef41ad85",
                        "amount": "2,500.76",
                        "iconUrl": "https://assets.blocksec.com/icon/d3080f4da7c6089bd3fe04fbe19c7d75d4a0470a84a3ea23f3292998e227fd3d.png",
                        "isERC1155": false,
                        "isERC721": false,
                        "sign": true,
                        "value": "573.9244200000000239"
                    }
                ]
            }
        ]
    },
    "profile": {
        "basic_info": {
            "baseFee": "32.191005862",
            "blockNumber": 16420236,
            "callData": "0xa9059cbb00000000000000000000000073be60810f49c9bad39831ad88475a120943045300000000000000000000000000000000000000000000008791044267d9dc0000",
            "debugEnable": true,
            "errorInfo": "",
            "eventCount": 1,
            "feeRecipient": "0xdafea492d9c6733ae3d56b7ed1adb60692c98bc5",
            "formatValue": "0",
            "gasLimit": 1000000,
            "gasPrice": "42.191005862",
            "gasUsed": 53942,
            "intTxnCount": 0,
            "internalRevert": false,
            "internalRevertMessage": "",
            "isContractCreation": false,
            "isFlashloan": false,
            "maxFee": "73.988013",
            "nonce": 4365268,
            "overwritedBlockNumber": -1,
            "priorityFee": "10",
            "receiver": "0xaea46a60368a7bd060eec7df8cba43b7ef41ad85",
            "revertMessage": "",
            "sender": "0x0d0707963952f2fba59dd06f2b425ace40b492fe",
            "simulationEnable": true,
            "sourceTxnHash": "0x911c2d3b5a1cad32ec67fd1d73ed5d5a99b986f3234b44e850038d9c5dba00e4",
            "status": true,
            "timestamp": "2023-01-16T15:26:11Z",
            "transactionFee": "0.002275867238208004",
            "txnHash": "0x911c2d3b5a1cad32ec67fd1d73ed5d5a99b986f3234b44e850038d9c5dba00e4",
            "txnIndex": 8,
            "type": 2,
            "value": "0"
        },
        "fund_flow": [
            {
                "amount": "2,500.76",
                "from": "0x0d0707963952f2fba59dd06f2b425ace40b492fe",
                "id": 1,
                "isERC1155": false,
                "isERC721": false,
                "isReverted": false,
                "order": 1,
                "to": "0x73be60810f49c9bad39831ad88475a1209430453",
                "token": "0xaea46a60368a7bd060eec7df8cba43b7ef41ad85"
            }
        ],
        "token_infos": [
            {
                "address": "0xaea46a60368a7bd060eec7df8cba43b7ef41ad85",
                "decimals": 18
            },
            {
                "address": "0xc02aaa39b223fe8d0a0e5c4f27ead9083c756cc2",
                "decimals": 18
            },
            {
                "address": "0xeeeeeeeeeeeeeeeeeeeeeeeeeeeeeeeeeeeeeeee",
                "decimals": 18
            }
        ]
    },
    "address_label": {
        "labels": [
            {
                "address": "0x0000000000000000000000000000000000000001",
                "label": "Precompiled"
            },
            {
                "address": "0x0000000000000000000000000000000000000002",
                "label": "Precompiled"
            },
            {
                "address": "0x0000000000000000000000000000000000000003",
                "label": "Precompiled"
            },
            {
                "address": "0x0000000000000000000000000000000000000004",
                "label": "Precompiled"
            },
            {
                "address": "0xeeeeeeeeeeeeeeeeeeeeeeeeeeeeeeeeeeeeeeee",
                "label": "Ether"
            },
            {
                "address": "0x0d0707963952f2fba59dd06f2b425ace40b492fe",
                "label": "Gate.io"
            },
            {
                "address": "0xaea46a60368a7bd060eec7df8cba43b7ef41ad85",
                "label": "Fetch.ai: FET Token"
            }
        ]
    },
    "trace": {
        "accountLabels": null,
        "dataMap": {
            "-1": {
                "invocation": {
                    "address": "0x0d0707963952f2fba59dd06f2b425ace40b492fe",
                    "callData": "",
                    "decodedMethod": null,
                    "errorInfo": "",
                    "fromAddress": "",
                    "gasUsed": 0,
                    "id": -1,
                    "methodDecoded": false,
                    "operation": "",
                    "output": "",
                    "revert": false,
                    "revertMessage": "",
                    "selector": "",
                    "status": false,
                    "value": ""
                },
                "nodeType": 0
            },
            "0": {
                "invocation": {
                    "address": "0xaea46a60368a7bd060eec7df8cba43b7ef41ad85",
                    "callData": "0x00000000000000000000000073be60810f49c9bad39831ad88475a120943045300000000000000000000000000000000000000000000008791044267d9dc0000",
                    "decodedMethod": {
                        "callParams": [
                            {
                                "name": "recipient",
                                "type": "address",
                                "value": "0x73be60810f49c9bad39831ad88475a1209430453"
                            },
                            {
                                "decimalAvailable": true,
                                "name": "amount",
                                "type": "uint256",
                                "value": "2,500,760,000,000,000,000,000"
                            }
                        ],
                        "constructorArguments": "",
                        "name": "transfer",
                        "returnParams": [
                            {
                                "name": "",
                                "type": "bool",
                                "value": true
                            }
                        ],
                        "signature": "transfer(address,uint256)"
                    },
                    "errorInfo": "",
                    "fromAddress": "0x0d0707963952f2fba59dd06f2b425ace40b492fe",
                    "gasUsed": 53942,
                    "id": 0,
                    "methodDecoded": true,
                    "operation": "CALL",
                    "output": "0x0000000000000000000000000000000000000000000000000000000000000001",
                    "revert": false,
                    "revertMessage": "",
                    "selector": "0xa9059cbb",
                    "status": true,
                    "value": "0"
                },
                "nodeType": 0
            },
            "1": {
                "event": {
                    "contract": "0xaea46a60368a7bd060eec7df8cba43b7ef41ad85",
                    "decodedLog": {
                        "name": "Transfer",
                        "params": [
                            {
                                "name": "from",
                                "type": "address",
                                "value": "0x0d0707963952f2fba59dd06f2b425ace40b492fe"
                            },
                            {
                                "name": "to",
                                "type": "address",
                                "value": "0x73be60810f49c9bad39831ad88475a1209430453"
                            },
                            {
                                "decimalAvailable": true,
                                "name": "value",
                                "type": "uint256",
                                "value": "2,500,760,000,000,000,000,000"
                            }
                        ],
                        "signature": "Transfer(address,address,uint256)"
                    },
                    "id": 1,
                    "logData": "0x00000000000000000000000000000000000000000000008791044267d9dc0000",
                    "logDecoded": true,
                    "operation": "EVENT",
                    "revert": false,
                    "status": true,
                    "topics": [
                        "0xddf252ad1be2c89b69c2b068fc378daa952ba7f163c4a11628f55a4df523b3ef",
                        "0x0000000000000000000000000d0707963952f2fba59dd06f2b425ace40b492fe",
                        "0x00000000000000000000000073be60810f49c9bad39831ad88475a1209430453"
                    ]
                },
                "nodeType": 1
            }
        },
        "gasFlame": [
            {
                "children": [
                    {
                        "children": [
                            {
                                "children": [],
                                "depth": 0,
                                "name": "Initial Gas",
                                "value": 21644
                            },
                            {
                                "children": [],
                                "depth": 0,
                                "name": "Executed Gas",
                                "value": 32298
                            }
                        ],
                        "depth": -1,
                        "name": "Actual Gas Used",
                        "value": 53942
                    },
                    {
                        "children": [],
                        "depth": -1,
                        "name": "Refunded Gas",
                        "value": 0
                    }
                ],
                "depth": -2,
                "name": "Total Gas",
                "value": 53942
            }
        ],
        "isConfirmed": true,
        "mainTrace": [
            {
                "children": [
                    {
                        "children": [
                            {
                                "children": [],
                                "depth": 1,
                                "id": 1,
                                "order": 1
                            }
                        ],
                        "depth": 0,
                        "id": 0,
                        "order": 0
                    }
                ],
                "depth": -1,
                "id": -1,
                "order": -1
            }
        ],
        "mainTraceNodeCount": 2,
        "parentIdMap": {
            "0": -1,
            "1": 0
        },
        "tidyTrace": [
            {
                "children": [
                    {
                        "children": [
                            {
                                "children": [],
                                "depth": 1,
                                "id": 1,
                                "order": 1
                            }
                        ],
                        "depth": 0,
                        "id": 0,
                        "order": 0
                    }
                ],
                "depth": -1,
                "id": -1,
                "order": -1
            }
        ],
        "tidyTraceNodeCount": 2
    },
    "state_change": {
        "stateChanges": [
            {
                "address": "0xaea46a60368a7bd060eec7df8cba43b7ef41ad85",
                "erc": "ERC-20",
                "slots": [
                    {
                        "current": "0x00000000000000000000000000000000000000000000008791044267d9dc0000",
                        "key": "0xe5a5b496846a4e6cf805f46b20e4cbeeae72675b79b8d6ecbca660d59ca5939b",
                        "prev": "0x0000000000000000000000000000000000000000000000000000000000000000"
                    },
                    {
                        "current": "0x000000000000000000000000000000000000000000005e1a4eff72cd5b6c5492",
                        "key": "0x8f3fcd8a87d8a8259bebf9cb6e7e851eb52ed472d13c686b03ef031d54fecb85",
                        "prev": "0x000000000000000000000000000000000000000000005ea1e003b53535485492"
                    }
                ],
                "storageVariables": [
                    {
                        "name": "_balances",
                        "type": "mapping(address => uint256)",
                        "value": {
                            "pairs": [
                                {
                                    "key": "0x0d0707963952f2fba59dd06f2b425ace40b492fe",
                                    "value": {
                                        "current": "444387757130343445714066",
                                        "prev": "446888517130343445714066",
                                        "typeTag": 1
                                    }
                                },
                                {
                                    "key": "0x73be60810f49c9bad39831ad88475a1209430453",
                                    "value": {
                                        "current": "2500760000000000000000",
                                        "prev": "0",
                                        "typeTag": 1
                                    }
                                }
                            ],
                            "typeTag": 4
                        }
                    }
                ]
            }
        ]
    }
}