{
    "balance_change": {
        "balanceChanges": [
            {
                "account": "0x56a285f31601cba88a99df9362bceb3a50f374d8",
                "assets": [
                    {
                        "address": "0xeeeeeeeeeeeeeeeeeeeeeeeeeeeeeeeeeeeeeeee",
                        "amount": "0.27",
                        "iconUrl": "https://assets.blocksec.com/image/1663669189317-3.png",
                        "isERC1155": false,
                        "isERC721": false,
                        "sign": false,
                        "value": ""
                    }
                ]
            },
            {
                "account": "0xd1ceeeefa68a6af0a5f6046132d986066c7f9426",
                "assets": [
                    {
                        "address": "0xeeeeeeeeeeeeeeeeeeeeeeeeeeeeeeeeeeeeeeee",
                        "amount": "0.27",
                        "iconUrl": "https://assets.blocksec.com/image/1663669189317-3.png",
                        "isERC1155": false,
                        "isERC721": false,
                        "sign": true,
                        "value": ""
                    }
                ]
            }
        ]
    },
    "profile": {
        "basic_info": {
            "baseFee": "",
            "blockNumber": 6268140,
            "callData": "0x5e83b4630000000000000000000000000000000000000000000000000000000000000001000000000000000000000000000000000000000000000000000000000000000200000000000000000000000000000000000000000000000000000000005fa5b27a57538b13654d9d5bcb5f4cfe3ba40b6758bf674857a4c72065b45765fddec760f6a572b17146a0a5f4020581a509a309697339511f13d583ce4724eda3de2f468b817aa9263667516025ad2e083e04484a2d851fcc8fe5bb2ca3d387ee87ef",
            "debugEnable": true,
            "errorInfo": "",
            "eventCount": 0,
            "feeRecipient": "0x52bc44d5378309ee2abf1539bf71de1b7d7be3b5",
            "formatValue": "0.27",
            "gasLimit": 100000,
            "gasPrice": "7.1",
            "gasUsed": 81100,
            "intTxnCount": 1,
            "internalRevert": false,
            "internalRevertMessage": "",
            "isContractCreation": false,
            "isFlashloan": false,
            "maxFee": "",
            "nonce": 109,
            "overwritedBlockNumber": -1,
            "priorityFee": "",
            "receiver": "0xd1ceeeefa68a6af0a5f6046132d986066c7f9426",
            "revertMessage": "",
            "sender": "0x56a285f31601cba88a99df9362bceb3a50f374d8",
            "simulationEnable": true,
            "sourceTxnHash": "0x91505907d967c06e50debff0db7f88f16343672b3968de27c6330ba0c5c084a4",
            "status": true,
            "timestamp": "2018-09-04T03:47:09Z",
            "transactionFee": "0.00057581",
            "txnHash": "0x91505907d967c06e50debff0db7f88f16343672b3968de27c6330ba0c5c084a4",
            "txnIndex": 97,
            "type": 0,
            "value": "270000000000000000"
        },
        "fund_flow": [
            {
                "amount": "0.27",
                "from": "0x56a285f31601cba88a99df9362bceb3a50f374d8",
                "id": 1,
                "isERC1155": false,
                "isERC721": false,
                "isReverted": false,
                "order": 1,
                "to": "0xd1ceeeefa68a6af0a5f6046132d986066c7f9426",
                "token": "0xeeeeeeeeeeeeeeeeeeeeeeeeeeeeeeeeeeeeeeee"
            }
        ],
        "token_infos": [
            {
                "address": "0xc02aaa39b223fe8d0a0e5c4f27ead9083c756cc2",
                "decimals": 18
            },
            {
                "address": "0xeeeeeeeeeeeeeeeeeeeeeeeeeeeeeeeeeeeeeeee",
                "decimals": 18
            }
        ]
    },
    "address_label": {
        "labels": [
            {
                "address": "0xeeeeeeeeeeeeeeeeeeeeeeeeeeeeeeeeeeeeeeee",
                "label": "Ether"
            },
            {
                "address": "0xd1ceeeefa68a6af0a5f6046132d986066c7f9426",
                "label": "Dice2Win"
            },
            {
                "address": "0x0000000000000000000000000000000000000001",
                "label": "Precompiled"
            },
            {
                "address": "0x0000000000000000000000000000000000000002",
                "label": "Precompiled"
            },
            {
                "address": "0x0000000000000000000000000000000000000003",
                "label": "Precompiled"
            },
            {
                "address": "0x0000000000000000000000000000000000000004",
                "label": "Precompiled"
            }
        ]
    },
    "trace": {
        "accountLabels": null,
        "dataMap": {
            "-1": {
                "invocation": {
                    "address": "0x56a285f31601cba88a99df9362bceb3a50f374d8",
                    "callData": "",
                    "decodedMethod": null,
                    "errorInfo": "",
                    "fromAddress": "",
                    "gasUsed": 0,
                    "id": -1,
                    "methodDecoded": false,
                    "operation": "",
                    "output": "",
                    "revert": false,
                    "revertMessage": "",
                    "selector": "",
                    "status": false,
                    "value": ""
                },
                "nodeType": 0
            },
            "0": {
                "invocation": {
                    "address": "0xd1ceeeefa68a6af0a5f6046132d986066c7f9426",
                    "callData": "0x0000000000000000000000000000000000000000000000000000000000000001000000000000000000000000000000000000000000000000000000000000000200000000000000000000000000000000000000000000000000000000005fa5b27a57538b13654d9d5bcb5f4cfe3ba40b6758bf674857a4c72065b45765fddec760f6a572b17146a0a5f4020581a509a309697339511f13d583ce4724eda3de2f468b817aa9263667516025ad2e083e04484a2d851fcc8fe5bb2ca3d387ee87ef",
                    "decodedMethod": {
                        "callParams": [
                            {
                                "name": "betMask",
                                "type": "uint256",
                                "value": "1"
                            },
                            {
                                "name": "modulo",
                                "type": "uint256",
                                "value": "2"
                            },
                            {
                                "name": "commitLastBlock",
                                "type": "uint256",
                                "value": "6,268,338"
                            },
                            {
                                "name": "commit",
                                "type": "uint256",
                                "value": "55,336,459,816,216,196,422,712,703,067,924,911,394,610,652,246,365,979,729,437,715,498,312,864,227,015"
                            },
                            {
                                "name": "r",
                                "type": "bytes32",
                                "value": "0x60f6a572b17146a0a5f4020581a509a309697339511f13d583ce4724eda3de2f"
                            },
                            {
                                "name": "s",
                                "type": "bytes32",
                                "value": "0x468b817aa9263667516025ad2e083e04484a2d851fcc8fe5bb2ca3d387ee87ef"
                            }
                        ],
                        "constructorArguments": "",
                        "name": "placeBet",
                        "returnParams": [],
                        "signature": "placeBet(uint256,uint256,uint256,uint256,bytes32,bytes32)"
                    },
                    "errorInfo": "",
                    "fromAddress": "0x56a285f31601cba88a99df9362bceb3a50f374d8",
                    "gasUsed": 81100,
                    "id": 0,
                    "methodDecoded": true,
                    "operation": "CALL",
                    "output": "",
                    "revert": false,
                    "revertMessage": "",
                    "selector": "0x5e83b463",
                    "status": true,
                    "value": "0.27"
                },
                "nodeType": 0
            },
            "1": {
                "invocation": {
                    "address": "0x0000000000000000000000000000000000000001",
                    "callData": "0x1fefb72b19a7ccaa07139b8d213f794777392a2a9a70bea56d9c7519000000000000000000000000000000000000000000000000000000000000001b60f6a572b17146a0a5f4020581a509a309697339511f13d583ce4724eda3de2f468b817aa9263667516025ad2e083e04484a2d851fcc8fe5bb2ca3d387ee87ef",
                    "decodedMethod": {
                        "callParams": [
                            {
                                "name": "hash",
                                "type": "bytes32",
                                "value": "0xbe4087181fefb72b19a7ccaa07139b8d213f794777392a2a9a70bea56d9c7519"
                            },
                            {
                                "name": "v",
                                "type": "uint256",
                                "value": "27"
                            },
                            {
                                "name": "r",
                                "type": "bytes32",
                                "value": "0x60f6a572b17146a0a5f4020581a509a309697339511f13d583ce4724eda3de2f"
                            },
                            {
                                "name": "s",
                                "type": "bytes32",
                                "value": "0x468b817aa9263667516025ad2e083e04484a2d851fcc8fe5bb2ca3d387ee87ef"
                            }
                        ],
                        "constructorArguments": "",
                        "name": "ecrecover",
                        "returnParams": [
                            {
                                "name": "",
                                "type": "address",
                                "value": "0xb00b5a8fe396189ba4bc3bf1d6da03dd2adefe57"
                            }
                        ],
                        "signature": "ecrecover(bytes32,uint256,bytes32,bytes32)"
                    },
                    "errorInfo": "",
                    "fromAddress": "0xd1ceeeefa68a6af0a5f6046132d986066c7f9426",
                    "gasUsed": 3000,
                    "id": 1,
                    "methodDecoded": true,
                    "operation": "CALL",
                    "output": "0x000000000000000000000000b00b5a8fe396189ba4bc3bf1d6da03dd2adefe57",
                    "revert": false,
                    "revertMessage": "",
                    "selector": "0xbe408718",
                    "status": true,
                    "value": "0"
                },
                "nodeType": 0
            }
        },
        "gasFlame": [
            {
                "children": [
                    {
                        "children": [
                            {
                                "children": [],
                                "depth": 0,
                                "name": "Initial Gas",
                                "value": 28504
                            },
                            {
                                "children": [
                                    {
                                        "children": [],
                                        "depth": 1,
                                        "name": "ecrecover",
                                        "value": 3000
                                    }
                                ],
                                "depth": 0,
                                "name": "Executed Gas",
                                "value": 52596
                            }
                        ],
                        "depth": -1,
                        "name": "Actual Gas Used",
                        "value": 81100
                    },
                    {
                        "children": [],
                        "depth": -1,
                        "name": "Refunded Gas",
                        "value": 0
                    }
                ],
                "depth": -2,
                "name": "Total Gas",
                "value": 81100
            }
        ],
        "isConfirmed": true,
        "mainTrace": [
            {
                "children": [
                    {
                        "children": [
                            {
                                "children": [],
                                "depth": 1,
                                "id": 1,
                                "order": 1
                            }
                        ],
                        "depth": 0,
                        "id": 0,
                        "order": 0
                    }
                ],
                "depth": -1,
                "id": -1,
                "order": -1
            }
        ],
        "mainTraceNodeCount": 2,
        "parentIdMap": {
            "0": -1,
            "1": 0
        },
        "tidyTrace": [
            {
                "children": [
                    {
                        "children": [
                            {
                                "children": [],
                                "depth": 1,
                                "id": 1,
                                "order": 1
                            }
                        ],
                        "depth": 0,
                        "id": 0,
                        "order": 0
                    }
                ],
                "depth": -1,
                "id": -1,
                "order": -1
            }
        ],
        "tidyTraceNodeCount": 2
    },
    "state_change": {
        "stateChanges": [
            {
                "address": "0xd1ceeeefa68a6af0a5f6046132d986066c7f9426",
                "erc": "",
                "slots": [
                    {
                        "current": "0x0000000000000000fa42963e629e7942000000000000000009652fe9c0f08000",
                        "key": "0x0000000000000000000000000000000000000000000000000000000000000004",
                        "prev": "0x0000000000000000f2de695d933ef94200000000000000000961a26b1c2a0000"
                    },
                    {
                        "current": "0x00000000000000000000000000000000000000000000000003bf3b91c95b0000",
                        "key": "0x8edfafee0e1c8f79caf40d9cffde50cf839a818ff32ecd625bdabeb554be9da4",
                        "prev": "0x0000000000000000000000000000000000000000000000000000000000000000"
                    },
                    {
                        "current": "0x56a285f31601cba88a99df9362bceb3a50f374d8000000000100005fa4ec0102",
                        "key": "0x8edfafee0e1c8f79caf40d9cffde50cf839a818ff32ecd625bdabeb554be9da5",
                        "prev": "0x0000000000000000000000000000000000000000000000000000000000000000"
                    }
                ],
                "storageVariables": [
                    {
                        "name": "jackpotSize",
                        "type": "uint128",
                        "value": {
                            "current": "677000000000000000",
                            "prev": "676000000000000000",
                            "typeTag": 1
                        }
                    },
                    {
                        "name": "lockedInBets",
                        "type": "uint128",
                        "value": {
                            "current": "18033141052631578946",
                            "prev": "17500541052631578946",
                            "typeTag": 1
                        }
                    },
                    {
                        "name": "bets",
                        "type": "mapping(uint256 => struct Dice2Win.Bet)",
                        "value": {
                            "pairs": [
                                {
                                    "key": "55336459816216196422712703067924911394610652246365979729437715498312864227015",
                                    "value": {
                                        "fields": [
                                            {
                                                "name": "amount",
                                                "type": "uint256",
                                                "value": {
                                                    "current": "270000000000000000",
                                                    "prev": "0",
                                                    "typeTag": 1
                                                }
                                            },
                                            {
                                                "name": "modulo",
                                                "type": "uint8",
                                                "value": {
                                                    "current": "2",
                                                    "prev": "0",
                                                    "typeTag": 1
                                                }
                                            },
                                            {
                                                "name": "rollUnder",
                                                "type": "uint8",
                                                "value": {
                                                    "current": "1",
                                                    "prev": "0",
                                                    "typeTag": 1
                                                }
                                            },
                                            {
                                                "name": "placeBlockNumber",
                                                "type": "uint40",
                                                "value": {
                                                    "current": "6268140",
                                                    "prev": "0",
                                                    "typeTag": 1
                                                }
                                            },
                                            {
                                                "name": "mask",
                                                "type": "uint40",
                                                "value": {
                                                    "current": "1",
                                                    "prev": "0",
                                                    "typeTag": 1
                                                }
                                            },
                                            {
                                                "name": "gambler",
                                                "type": "address",
                                                "value": {
                                                    "current": "0x56a285f31601cba88a99df9362bceb3a50f374d8",
                                                    "prev": "0x0000000000000000000000000000000000000000",
                                                    "typeTag": 1
                                                }
                                            }
                                        ],
                                        "typeTag": 3
                                    }
                                }
                            ],
                            "typeTag": 4
                        }
                    }
                ]
            }
        ]
    }
}