{
    "balance_change": {
        "balanceChanges": [
            {
                "account": "0x6a5ea8d04f14848145eb2c36114140531652c1ee",
                "assets": [
                    {
                        "address": "0xdac17f958d2ee523a2206206994597c13d831ec7",
                        "amount": "42.168601",
                        "iconUrl": "https://assets.blocksec.com/icon/fcea71f3193ce895be44bfdf941f7e4c9381dd587f273c2d1a27f1263d84e4ea.png",
                        "isERC1155": false,
                        "isERC721": false,
                        "sign": false,
                        "value": "42.164384139900000465"
                    }
                ]
            },
            {
                "account": "0x6bbc64386b7d756489974335ada79593404ca6e9",
                "assets": [
                    {
                        "address": "0xdac17f958d2ee523a2206206994597c13d831ec7",
                        "amount": "42.168601",
                        "iconUrl": "https://assets.blocksec.com/icon/fcea71f3193ce895be44bfdf941f7e4c9381dd587f273c2d1a27f1263d84e4ea.png",
                        "isERC1155": false,
                        "isERC721": false,
                        "sign": true,
                        "value": "42.164384139900000465"
                    }
                ]
            }
        ]
    },
    "profile": {
        "basic_info": {
            "baseFee": "4.723489058",
            "blockNumber": 19949507,
            "callData": "0xa9059cbb0000000000000000000000006bbc64386b7d756489974335ada79593404ca6e90000000000000000000000000000000000000000000000000000000002837119",
            "debugEnable": true,
            "errorInfo": "",
            "eventCount": 1,
            "feeRecipient": "0x1f9090aae28b8a3dceadf281b0f12828e676c326",
            "formatValue": "0",
            "gasLimit": 69845,
            "gasPrice": "4.803489058",
            "gasUsed": 58409,
            "intTxnCount": 0,
            "internalRevert": false,
            "internalRevertMessage": "",
            "isContractCreation": false,
            "isFlashloan": false,
            "maxFee": "6.04",
            "nonce": 3,
            "overwritedBlockNumber": -1,
            "priorityFee": "0.08",
            "receiver": "0xdac17f958d2ee523a2206206994597c13d831ec7",
            "revertMessage": "",
            "sender": "0x6a5ea8d04f14848145eb2c36114140531652c1ee",
            "simulationEnable": true,
            "sourceTxnHash": "0x91aa15c3dd2f19e51045cc5c6b2317b2d06cc765f20827a63a3837071175df8c",
            "status": true,
            "timestamp": "2024-05-25T21:14:47Z",
            "transactionFee": "0.000280566992388722",
            "txnHash": "0x91aa15c3dd2f19e51045cc5c6b2317b2d06cc765f20827a63a3837071175df8c",
            "txnIndex": 162,
            "type": 2,
            "value": "0"
        },
        "fund_flow": [
            {
                "amount": "42.168601",
                "from": "0x6a5ea8d04f14848145eb2c36114140531652c1ee",
                "id": 1,
                "isERC1155": false,
                "isERC721": false,
                "isReverted": false,
                "order": 1,
                "to": "0x6bbc64386b7d756489974335ada79593404ca6e9",
                "token": "0xdac17f958d2ee523a2206206994597c13d831ec7"
            }
        ],
        "token_infos": [
            {
                "address": "0xc02aaa39b223fe8d0a0e5c4f27ead9083c756cc2",
                "decimals": 18
            },
            {
                "address": "0xdac17f958d2ee523a2206206994597c13d831ec7",
                "decimals": 6
            },
            {
                "address": "0xeeeeeeeeeeeeeeeeeeeeeeeeeeeeeeeeeeeeeeee",
                "decimals": 18
            }
        ]
    },
    "address_label": {
        "labels": [
            {
                "address": "0xdac17f958d2ee523a2206206994597c13d831ec7",
                "label": "Tether: USDT Stablecoin"
            },
            {
                "address": "0x0000000000000000000000000000000000000001",
                "label": "Precompiled"
            },
            {
                "address": "0x0000000000000000000000000000000000000002",
                "label": "Precompiled"
            },
            {
                "address": "0x0000000000000000000000000000000000000003",
                "label": "Precompiled"
            },
            {
                "address": "0x0000000000000000000000000000000000000004",
                "label": "Precompiled"
            },
            {
                "address": "0xeeeeeeeeeeeeeeeeeeeeeeeeeeeeeeeeeeeeeeee",
                "label": "Ether"
            }
        ]
    },
    "trace": {
        "accountLabels": null,
        "dataMap": {
            "-1": {
                "invocation": {
                    "address": "0x6a5ea8d04f14848145eb2c36114140531652c1ee",
                    "callData": "",
                    "decodedMethod": null,
                    "errorInfo": "",
                    "fromAddress": "",
                    "gasUsed": 0,
                    "id": -1,
                    "methodDecoded": false,
                    "operation": "",
                    "output": "",
                    "revert": false,
                    "revertMessage": "",
                    "selector": "",
                    "status": false,
                    "value": ""
                },
                "nodeType": 0
            },
            "0": {
                "invocation": {
                    "address": "0xdac17f958d2ee523a2206206994597c13d831ec7",
                    "callData": "0x0000000000000000000000006bbc64386b7d756489974335ada79593404ca6e90000000000000000000000000000000000000000000000000000000002837119",
                    "decodedMethod": {
                        "callParams": [
                            {
                                "name": "_to",
                                "type": "address",
                                "value": "0x6bbc64386b7d756489974335ada79593404ca6e9"
                            },
                            {
                                "decimalAvailable": true,
                                "name": "_value",
                                "type": "uint256",
                                "value": "42,168,601"
                            }
                        ],
                        "constructorArguments": "",
                        "name": "transfer",
                        "returnParams": [],
                        "signature": "transfer(address,uint256)"
                    },
                    "errorInfo": "",
                    "fromAddress": "0x6a5ea8d04f14848145eb2c36114140531652c1ee",
                    "gasUsed": 58409,
                    "id": 0,
                    "methodDecoded": true,
                    "operation": "CALL",
                    "output": "",
                    "revert": false,
                    "revertMessage": "",
                    "selector": "0xa9059cbb",
                    "status": true,
                    "value": "0"
                },
                "nodeType": 0
            },
            "1": {
                "event": {
                    "contract": "0xdac17f958d2ee523a2206206994597c13d831ec7",
                    "decodedLog": {
                        "name": "Transfer",
                        "params": [
                            {
                                "name": "from",
                                "type": "address",
                                "value": "0x6a5ea8d04f14848145eb2c36114140531652c1ee"
                            },
                            {
                                "name": "to",
                                "type": "address",
                                "value": "0x6bbc64386b7d756489974335ada79593404ca6e9"
                            },
                            {
                                "decimalAvailable": true,
                                "name": "value",
                                "type": "uint256",
                                "value": "42,168,601"
                            }
                        ],
                        "signature": "Transfer(address,address,uint256)"
                    },
                    "id": 1,
                    "logData": "0x0000000000000000000000000000000000000000000000000000000002837119",
                    "logDecoded": true,
                    "operation": "EVENT",
                    "revert": false,
                    "status": true,
                    "topics": [
                        "0xddf252ad1be2c89b69c2b068fc378daa952ba7f163c4a11628f55a4df523b3ef",
                        "0x0000000000000000000000006a5ea8d04f14848145eb2c36114140531652c1ee",
                        "0x0000000000000000000000006bbc64386b7d756489974335ada79593404ca6e9"
                    ]
                },
                "nodeType": 1
            }
        },
        "gasFlame": [
            {
                "children": [
                    {
                        "children": [
                            {
                                "children": [],
                                "depth": 0,
                                "name": "Initial Gas",
                                "value": 21608
                            },
                            {
                                "children": [],
                                "depth": 0,
                                "name": "Executed Gas",
                                "value": 41601
                            }
                        ],
                        "depth": -1,
                        "name": "Actual Gas Used",
                        "value": 58409
                    },
                    {
                        "children": [],
                        "depth": -1,
                        "name": "Refunded Gas",
                        "value": 4800
                    }
                ],
                "depth": -2,
                "name": "Total Gas",
                "value": 63209
            }
        ],
        "isConfirmed": true,
        "mainTrace": [
            {
                "children": [
                    {
                        "children": [
                            {
                                "children": [],
                                "depth": 1,
                                "id": 1,
                                "order": 1
                            }
                        ],
                        "depth": 0,
                        "id": 0,
                        "order": 0
                    }
                ],
                "depth": -1,
                "id": -1,
                "order": -1
            }
        ],
        "mainTraceNodeCount": 2,
        "parentIdMap": {
            "0": -1,
            "1": 0
        },
        "tidyTrace": [
            {
                "children": [
                    {
                        "children": [
                            {
                                "children": [],
                                "depth": 1,
                                "id": 1,
                                "order": 1
                            }
                        ],
                        "depth": 0,
                        "id": 0,
                        "order": 0
                    }
                ],
                "depth": -1,
                "id": -1,
                "order": -1
            }
        ],
        "tidyTraceNodeCount": 2
    },
    "state_change": {
        "stateChanges": [
            {
                "address": "0xdac17f958d2ee523a2206206994597c13d831ec7",
                "erc": "ERC-20",
                "slots": [
                    {
                        "current": "0x0000000000000000000000000000000000000000000000000000000000000000",
                        "key": "0x7a55427860d15a4d987c97563bd8e5f7aa1f2f65df9862ad79686fc02901409c",
                        "prev": "0x0000000000000000000000000000000000000000000000000000000002837119"
                    },
                    {
                        "current": "0x0000000000000000000000000000000000000000000000000000000002837119",
                        "key": "0xc8ce08849fc8e3bb84cdb215f48c3623e7cd89e2b7fd40007e05b6c892f4a546",
                        "prev": "0x0000000000000000000000000000000000000000000000000000000000000000"
                    }
                ],
                "storageVariables": [
                    {
                        "name": "balances",
                        "type": "mapping(address => uint256)",
                        "value": {
                            "pairs": [
                                {
                                    "key": "0x6a5ea8d04f14848145eb2c36114140531652c1ee",
                                    "value": {
                                        "current": "0",
                                        "prev": "42168601",
                                        "typeTag": 1
                                    }
                                },
                                {
                                    "key": "0x6bbc64386b7d756489974335ada79593404ca6e9",
                                    "value": {
                                        "current": "42168601",
                                        "prev": "0",
                                        "typeTag": 1
                                    }
                                }
                            ],
                            "typeTag": 4
                        }
                    }
                ]
            }
        ]
    }
}