{
    "balance_change": {
        "balanceChanges": [
            {
                "account": "0x55123a00981e30cb824e356fa22852cdf1b9fe32",
                "assets": [
                    {
                        "address": "0x95621da89a78028e389b9353c5b44f6fde9f4656",
                        "amount": "511.2343",
                        "iconUrl": "",
                        "isERC1155": false,
                        "isERC721": false,
                        "sign": true,
                        "value": ""
                    }
                ]
            },
            {
                "account": "0x21af82dc5674beb9bc59d266289756012a983e5e",
                "assets": [
                    {
                        "address": "0x95621da89a78028e389b9353c5b44f6fde9f4656",
                        "amount": "511.2343",
                        "iconUrl": "",
                        "isERC1155": false,
                        "isERC721": false,
                        "sign": false,
                        "value": ""
                    }
                ]
            }
        ]
    },
    "profile": {
        "basic_info": {
            "baseFee": "",
            "blockNumber": 10630015,
            "callData": "0x23b872dd00000000000000000000000021af82dc5674beb9bc59d266289756012a983e5e00000000000000000000000055123a00981e30cb824e356fa22852cdf1b9fe3200000000000000000000000000000000000000000000001bb6cd1736ef7bc000",
            "debugEnable": true,
            "errorInfo": "",
            "eventCount": 1,
            "feeRecipient": "0xc4aeb20798368c48b27280847e187bb332b9bc77",
            "formatValue": "0",
            "gasLimit": 51405,
            "gasPrice": "99",
            "gasUsed": 29700,
            "intTxnCount": 0,
            "internalRevert": false,
            "internalRevertMessage": "",
            "isContractCreation": false,
            "isFlashloan": false,
            "maxFee": "",
            "nonce": 5834,
            "overwritedBlockNumber": -1,
            "priorityFee": "",
            "receiver": "0x95621da89a78028e389b9353c5b44f6fde9f4656",
            "revertMessage": "",
            "sender": "0x55123a00981e30cb824e356fa22852cdf1b9fe32",
            "simulationEnable": true,
            "sourceTxnHash": "0x92cfc805bc89fd3554c19f9619234ee6281b09fcfb32ba9786f7d5f9a1250c03",
            "status": true,
            "timestamp": "2020-08-10T04:26:55Z",
            "transactionFee": "0.0029403",
            "txnHash": "0x92cfc805bc89fd3554c19f9619234ee6281b09fcfb32ba9786f7d5f9a1250c03",
            "txnIndex": 61,
            "type": 0,
            "value": "0"
        },
        "fund_flow": [
            {
                "amount": "511.2343",
                "from": "0x21af82dc5674beb9bc59d266289756012a983e5e",
                "id": 1,
                "isERC1155": false,
                "isERC721": false,
                "isReverted": false,
                "order": 1,
                "to": "0x55123a00981e30cb824e356fa22852cdf1b9fe32",
                "token": "0x95621da89a78028e389b9353c5b44f6fde9f4656"
            }
        ],
        "token_infos": [
            {
                "address": "0xc02aaa39b223fe8d0a0e5c4f27ead9083c756cc2",
                "decimals": 18
            },
            {
                "address": "0xeeeeeeeeeeeeeeeeeeeeeeeeeeeeeeeeeeeeeeee",
                "decimals": 18
            },
            {
                "address": "0x95621da89a78028e389b9353c5b44f6fde9f4656",
                "decimals": 18
            }
        ]
    },
    "address_label": {
        "labels": [
            {
                "address": "0xeeeeeeeeeeeeeeeeeeeeeeeeeeeeeeeeeeeeeeee",
                "label": "Ether"
            },
            {
                "address": "0x95621da89a78028e389b9353c5b44f6fde9f4656",
                "label": "KDC cash (KDC)"
            },
            {
                "address": "0x0000000000000000000000000000000000000001",
                "label": "Precompiled"
            },
            {
                "address": "0x0000000000000000000000000000000000000002",
                "label": "Precompiled"
            },
            {
                "address": "0x0000000000000000000000000000000000000003",
                "label": "Precompiled"
            },
            {
                "address": "0x0000000000000000000000000000000000000004",
                "label": "Precompiled"
            }
        ]
    },
    "trace": {
        "accountLabels": null,
        "dataMap": {
            "-1": {
                "invocation": {
                    "address": "0x55123a00981e30cb824e356fa22852cdf1b9fe32",
                    "callData": "",
                    "decodedMethod": null,
                    "errorInfo": "",
                    "fromAddress": "",
                    "gasUsed": 0,
                    "id": -1,
                    "methodDecoded": false,
                    "operation": "",
                    "output": "",
                    "revert": false,
                    "revertMessage": "",
                    "selector": "",
                    "status": false,
                    "value": ""
                },
                "nodeType": 0
            },
            "0": {
                "invocation": {
                    "address": "0x95621da89a78028e389b9353c5b44f6fde9f4656",
                    "callData": "0x00000000000000000000000021af82dc5674beb9bc59d266289756012a983e5e00000000000000000000000055123a00981e30cb824e356fa22852cdf1b9fe3200000000000000000000000000000000000000000000001bb6cd1736ef7bc000",
                    "decodedMethod": {
                        "callParams": [
                            {
                                "name": "sender",
                                "type": "address",
                                "value": "0x21af82dc5674beb9bc59d266289756012a983e5e"
                            },
                            {
                                "name": "recipient",
                                "type": "address",
                                "value": "0x55123a00981e30cb824e356fa22852cdf1b9fe32"
                            },
                            {
                                "decimalAvailable": true,
                                "name": "amount",
                                "type": "uint256",
                                "value": "511,234,300,000,000,000,000"
                            }
                        ],
                        "constructorArguments": "",
                        "name": "transferFrom",
                        "returnParams": [
                            {
                                "name": "",
                                "type": "bool",
                                "value": true
                            }
                        ],
                        "signature": "transferFrom(address,address,uint256)"
                    },
                    "errorInfo": "",
                    "fromAddress": "0x55123a00981e30cb824e356fa22852cdf1b9fe32",
                    "gasUsed": 29700,
                    "id": 0,
                    "methodDecoded": true,
                    "operation": "CALL",
                    "output": "0x0000000000000000000000000000000000000000000000000000000000000001",
                    "revert": false,
                    "revertMessage": "",
                    "selector": "0x23b872dd",
                    "status": true,
                    "value": "0"
                },
                "nodeType": 0
            },
            "1": {
                "event": {
                    "contract": "0x95621da89a78028e389b9353c5b44f6fde9f4656",
                    "decodedLog": {
                        "name": "Transfer",
                        "params": [
                            {
                                "name": "from",
                                "type": "address",
                                "value": "0x21af82dc5674beb9bc59d266289756012a983e5e"
                            },
                            {
                                "name": "to",
                                "type": "address",
                                "value": "0x55123a00981e30cb824e356fa22852cdf1b9fe32"
                            },
                            {
                                "decimalAvailable": true,
                                "name": "value",
                                "type": "uint256",
                                "value": "511,234,300,000,000,000,000"
                            }
                        ],
                        "signature": "Transfer(address,address,uint256)"
                    },
                    "id": 1,
                    "logData": "0x00000000000000000000000000000000000000000000001bb6cd1736ef7bc000",
                    "logDecoded": true,
                    "operation": "EVENT",
                    "revert": false,
                    "status": true,
                    "topics": [
                        "0xddf252ad1be2c89b69c2b068fc378daa952ba7f163c4a11628f55a4df523b3ef",
                        "0x00000000000000000000000021af82dc5674beb9bc59d266289756012a983e5e",
                        "0x00000000000000000000000055123a00981e30cb824e356fa22852cdf1b9fe32"
                    ]
                },
                "nodeType": 1
            }
        },
        "gasFlame": [
            {
                "children": [
                    {
                        "children": [
                            {
                                "children": [],
                                "depth": 0,
                                "name": "Initial Gas",
                                "value": 22012
                            },
                            {
                                "children": [],
                                "depth": 0,
                                "name": "Executed Gas",
                                "value": 22688
                            }
                        ],
                        "depth": -1,
                        "name": "Actual Gas Used",
                        "value": 29700
                    },
                    {
                        "children": [],
                        "depth": -1,
                        "name": "Refunded Gas",
                        "value": 15000
                    }
                ],
                "depth": -2,
                "name": "Total Gas",
                "value": 44700
            }
        ],
        "isConfirmed": true,
        "mainTrace": [
            {
                "children": [
                    {
                        "children": [
                            {
                                "children": [],
                                "depth": 1,
                                "id": 1,
                                "order": 1
                            }
                        ],
                        "depth": 0,
                        "id": 0,
                        "order": 0
                    }
                ],
                "depth": -1,
                "id": -1,
                "order": -1
            }
        ],
        "mainTraceNodeCount": 2,
        "parentIdMap": {
            "0": -1,
            "1": 0
        },
        "tidyTrace": [
            {
                "children": [
                    {
                        "children": [
                            {
                                "children": [],
                                "depth": 1,
                                "id": 1,
                                "order": 1
                            }
                        ],
                        "depth": 0,
                        "id": 0,
                        "order": 0
                    }
                ],
                "depth": -1,
                "id": -1,
                "order": -1
            }
        ],
        "tidyTraceNodeCount": 2
    },
    "state_change": {
        "stateChanges": [
            {
                "address": "0x95621da89a78028e389b9353c5b44f6fde9f4656",
                "erc": "",
                "slots": [
                    {
                        "current": "0x0000000000000000000000000000000000000000001479e8879f76ed7e820c00",
                        "key": "0x2f7cd05cfcef6828297c10db6d9f5db845f3e5d046ca759c8f8c29420637f2dc",
                        "prev": "0x0000000000000000000000000000000000000000001479ccd0d25fb68f064c00"
                    },
                    {
                        "current": "0x00000000000000000000000000000000000000000000d3a66501b5b6b1844000",
                        "key": "0xcf173043380460db46959cc459b2d78915baa39e88255af3f6ce673916419ffc",
                        "prev": "0x00000000000000000000000000000000000000000000d3c21bcecceda1000000"
                    },
                    {
                        "current": "0x0000000000000000000000000000000000000000000000000000000000000000",
                        "key": "0x7bd3e392c0e34ecbc53379837231b7fcc2abeaf147e82dff93327b22ca9f21da",
                        "prev": "0x00000000000000000000000000000000000000000000001bb6cd1736ef7bc000"
                    }
                ],
                "storageVariables": []
            }
        ]
    }
}