{
    "balance_change": {
        "balanceChanges": [
            {
                "account": "0xea7029909379e9b7957a7be02917115b345767a1",
                "assets": [
                    {
                        "address": "0x5a84969bb663fb64f6d015dcf9f622aedc796750",
                        "amount": "200",
                        "iconUrl": "",
                        "isERC1155": false,
                        "isERC721": false,
                        "sign": false,
                        "value": ""
                    }
                ]
            },
            {
                "account": "0x00eb6b8470988432f06472292ed7d0fb4910ed57",
                "assets": [
                    {
                        "address": "0x5a84969bb663fb64f6d015dcf9f622aedc796750",
                        "amount": "200",
                        "iconUrl": "",
                        "isERC1155": false,
                        "isERC721": false,
                        "sign": true,
                        "value": ""
                    }
                ]
            }
        ]
    },
    "profile": {
        "basic_info": {
            "baseFee": "",
            "blockNumber": 3958067,
            "callData": "0xa9059cbb00000000000000000000000000eb6b8470988432f06472292ed7d0fb4910ed5700000000000000000000000000000000000000000000000ad78ebc5ac6200000",
            "debugEnable": true,
            "errorInfo": "",
            "eventCount": 1,
            "feeRecipient": "0x829bd824b016326a401d083b33d092293333a830",
            "formatValue": "0",
            "gasLimit": 36704,
            "gasPrice": "60",
            "gasUsed": 36703,
            "intTxnCount": 0,
            "internalRevert": false,
            "internalRevertMessage": "",
            "isContractCreation": false,
            "isFlashloan": false,
            "maxFee": "",
            "nonce": 22,
            "overwritedBlockNumber": -1,
            "priorityFee": "",
            "receiver": "0x5a84969bb663fb64f6d015dcf9f622aedc796750",
            "revertMessage": "",
            "sender": "0xea7029909379e9b7957a7be02917115b345767a1",
            "simulationEnable": true,
            "sourceTxnHash": "0x92e16a138da6bb971e3b1c87f5f6630691c695085496b04585dcccea9cc25f97",
            "status": true,
            "timestamp": "2017-07-01T14:01:14Z",
            "transactionFee": "0.00220218",
            "txnHash": "0x92e16a138da6bb971e3b1c87f5f6630691c695085496b04585dcccea9cc25f97",
            "txnIndex": 0,
            "type": 0,
            "value": "0"
        },
        "fund_flow": [
            {
                "amount": "200",
                "from": "0xea7029909379e9b7957a7be02917115b345767a1",
                "id": 1,
                "isERC1155": false,
                "isERC721": false,
                "isReverted": false,
                "order": 1,
                "to": "0x00eb6b8470988432f06472292ed7d0fb4910ed57",
                "token": "0x5a84969bb663fb64f6d015dcf9f622aedc796750"
            }
        ],
        "token_infos": [
            {
                "address": "0xeeeeeeeeeeeeeeeeeeeeeeeeeeeeeeeeeeeeeeee",
                "decimals": 18
            },
            {
                "address": "0x5a84969bb663fb64f6d015dcf9f622aedc796750",
                "decimals": 18
            },
            {
                "address": "0xc02aaa39b223fe8d0a0e5c4f27ead9083c756cc2",
                "decimals": 18
            }
        ]
    },
    "address_label": {
        "labels": [
            {
                "address": "0x0000000000000000000000000000000000000002",
                "label": "Precompiled"
            },
            {
                "address": "0x0000000000000000000000000000000000000003",
                "label": "Precompiled"
            },
            {
                "address": "0x0000000000000000000000000000000000000004",
                "label": "Precompiled"
            },
            {
                "address": "0xeeeeeeeeeeeeeeeeeeeeeeeeeeeeeeeeeeeeeeee",
                "label": "Ether"
            },
            {
                "address": "0x5a84969bb663fb64f6d015dcf9f622aedc796750",
                "label": "iDice Token"
            },
            {
                "address": "0x0000000000000000000000000000000000000001",
                "label": "Precompiled"
            }
        ]
    },
    "trace": {
        "accountLabels": null,
        "dataMap": {
            "-1": {
                "invocation": {
                    "address": "0xea7029909379e9b7957a7be02917115b345767a1",
                    "callData": "",
                    "decodedMethod": null,
                    "errorInfo": "",
                    "fromAddress": "",
                    "gasUsed": 0,
                    "id": -1,
                    "methodDecoded": false,
                    "operation": "",
                    "output": "",
                    "revert": false,
                    "revertMessage": "",
                    "selector": "",
                    "status": false,
                    "value": ""
                },
                "nodeType": 0
            },
            "0": {
                "invocation": {
                    "address": "0x5a84969bb663fb64f6d015dcf9f622aedc796750",
                    "callData": "0x00000000000000000000000000eb6b8470988432f06472292ed7d0fb4910ed5700000000000000000000000000000000000000000000000ad78ebc5ac6200000",
                    "decodedMethod": {
                        "callParams": [
                            {
                                "name": "_to",
                                "type": "address",
                                "value": "0x00eb6b8470988432f06472292ed7d0fb4910ed57"
                            },
                            {
                                "decimalAvailable": true,
                                "name": "_value",
                                "type": "uint256",
                                "value": "200,000,000,000,000,000,000"
                            }
                        ],
                        "constructorArguments": "",
                        "name": "transfer",
                        "returnParams": [
                            {
                                "name": "success",
                                "type": "bool",
                                "value": true
                            }
                        ],
                        "signature": "transfer(address,uint256)"
                    },
                    "errorInfo": "",
                    "fromAddress": "0xea7029909379e9b7957a7be02917115b345767a1",
                    "gasUsed": 36703,
                    "id": 0,
                    "methodDecoded": true,
                    "operation": "CALL",
                    "output": "0x0000000000000000000000000000000000000000000000000000000000000001",
                    "revert": false,
                    "revertMessage": "",
                    "selector": "0xa9059cbb",
                    "status": true,
                    "value": "0"
                },
                "nodeType": 0
            },
            "1": {
                "event": {
                    "contract": "0x5a84969bb663fb64f6d015dcf9f622aedc796750",
                    "decodedLog": {
                        "name": "Transfer",
                        "params": [
                            {
                                "name": "_from",
                                "type": "address",
                                "value": "0xea7029909379e9b7957a7be02917115b345767a1"
                            },
                            {
                                "name": "_to",
                                "type": "address",
                                "value": "0x00eb6b8470988432f06472292ed7d0fb4910ed57"
                            },
                            {
                                "decimalAvailable": true,
                                "name": "_value",
                                "type": "uint256",
                                "value": "200,000,000,000,000,000,000"
                            }
                        ],
                        "signature": "Transfer(address,address,uint256)"
                    },
                    "id": 1,
                    "logData": "0x00000000000000000000000000000000000000000000000ad78ebc5ac6200000",
                    "logDecoded": true,
                    "operation": "EVENT",
                    "revert": false,
                    "status": true,
                    "topics": [
                        "0xddf252ad1be2c89b69c2b068fc378daa952ba7f163c4a11628f55a4df523b3ef",
                        "0x000000000000000000000000ea7029909379e9b7957a7be02917115b345767a1",
                        "0x00000000000000000000000000eb6b8470988432f06472292ed7d0fb4910ed57"
                    ]
                },
                "nodeType": 1
            }
        },
        "gasFlame": [
            {
                "children": [
                    {
                        "children": [
                            {
                                "children": [],
                                "depth": 0,
                                "name": "Initial Gas",
                                "value": 23192
                            },
                            {
                                "children": [],
                                "depth": 0,
                                "name": "Executed Gas",
                                "value": 13511
                            }
                        ],
                        "depth": -1,
                        "name": "Actual Gas Used",
                        "value": 36703
                    },
                    {
                        "children": [],
                        "depth": -1,
                        "name": "Refunded Gas",
                        "value": 0
                    }
                ],
                "depth": -2,
                "name": "Total Gas",
                "value": 36703
            }
        ],
        "isConfirmed": true,
        "mainTrace": [
            {
                "children": [
                    {
                        "children": [
                            {
                                "children": [],
                                "depth": 1,
                                "id": 1,
                                "order": 1
                            }
                        ],
                        "depth": 0,
                        "id": 0,
                        "order": 0
                    }
                ],
                "depth": -1,
                "id": -1,
                "order": -1
            }
        ],
        "mainTraceNodeCount": 2,
        "parentIdMap": {
            "0": -1,
            "1": 0
        },
        "tidyTrace": [
            {
                "children": [
                    {
                        "children": [
                            {
                                "children": [],
                                "depth": 1,
                                "id": 1,
                                "order": 1
                            }
                        ],
                        "depth": 0,
                        "id": 0,
                        "order": 0
                    }
                ],
                "depth": -1,
                "id": -1,
                "order": -1
            }
        ],
        "tidyTraceNodeCount": 2
    },
    "state_change": {
        "stateChanges": [
            {
                "address": "0x5a84969bb663fb64f6d015dcf9f622aedc796750",
                "erc": "ERC-20",
                "slots": [
                    {
                        "current": "0x00000000000000000000000000000000000000000000000b1cf24ddd0b140000",
                        "key": "0x909510bae8499b26a2e8e1e24a775090a5adbef2b943bca890ac0295c5357259",
                        "prev": "0x0000000000000000000000000000000000000000000000004563918244f40000"
                    },
                    {
                        "current": "0x000000000000000000000000000000000000000000000011a3d507f4f81c0000",
                        "key": "0x8e6ba406252f8acb6f1cb7215530dadeaea44c1f6dd0fb1b09d449d122e0c88f",
                        "prev": "0x00000000000000000000000000000000000000000000001c7b63c44fbe3c0000"
                    }
                ],
                "storageVariables": []
            }
        ]
    }
}