{
    "balance_change": {
        "balanceChanges": [
            {
                "account": "0x01690633aa7f434b88b686e6ef5eed8f22f713ad",
                "assets": [
                    {
                        "address": "0x6cb816569ab4665bdc2ba78a64aff87201608bc6",
                        "amount": "2,450,000,000,000",
                        "iconUrl": "",
                        "isERC1155": false,
                        "isERC721": false,
                        "sign": false,
                        "value": ""
                    }
                ]
            },
            {
                "account": "0x4025ebea8e69b00d2cd239f2b593cf94f52e630e",
                "assets": [
                    {
                        "address": "0x6cb816569ab4665bdc2ba78a64aff87201608bc6",
                        "amount": "2,450,000,000,000",
                        "iconUrl": "",
                        "isERC1155": false,
                        "isERC721": false,
                        "sign": true,
                        "value": ""
                    }
                ]
            }
        ]
    },
    "profile": {
        "basic_info": {
            "baseFee": "",
            "blockNumber": 5849540,
            "callData": "0xa9059cbb0000000000000000000000004025ebea8e69b00d2cd239f2b593cf94f52e630e0000000000000000000000000000000000000000000000000000023a6f613400",
            "debugEnable": true,
            "errorInfo": "",
            "eventCount": 1,
            "feeRecipient": "0x9435d50503aee35c8757ae4933f7a0ab56597805",
            "formatValue": "0",
            "gasLimit": 144000,
            "gasPrice": "21",
            "gasUsed": 51397,
            "intTxnCount": 0,
            "internalRevert": false,
            "internalRevertMessage": "",
            "isContractCreation": false,
            "isFlashloan": false,
            "maxFee": "",
            "nonce": 65,
            "overwritedBlockNumber": -1,
            "priorityFee": "",
            "receiver": "0x6cb816569ab4665bdc2ba78a64aff87201608bc6",
            "revertMessage": "",
            "sender": "0x01690633aa7f434b88b686e6ef5eed8f22f713ad",
            "simulationEnable": true,
            "sourceTxnHash": "0x92164762152470696064a8a46b81a64561a651f31e886023e3fbdd957921fa08",
            "status": true,
            "timestamp": "2018-06-25T02:47:53Z",
            "transactionFee": "0.001079337",
            "txnHash": "0x92164762152470696064a8a46b81a64561a651f31e886023e3fbdd957921fa08",
            "txnIndex": 4,
            "type": 0,
            "value": "0"
        },
        "fund_flow": [
            {
                "amount": "2,450,000,000,000",
                "from": "0x01690633aa7f434b88b686e6ef5eed8f22f713ad",
                "id": 1,
                "isERC1155": false,
                "isERC721": false,
                "isReverted": false,
                "order": 1,
                "to": "0x4025ebea8e69b00d2cd239f2b593cf94f52e630e",
                "token": "0x6cb816569ab4665bdc2ba78a64aff87201608bc6"
            }
        ],
        "token_infos": [
            {
                "address": "0xc02aaa39b223fe8d0a0e5c4f27ead9083c756cc2",
                "decimals": 18
            },
            {
                "address": "0xeeeeeeeeeeeeeeeeeeeeeeeeeeeeeeeeeeeeeeee",
                "decimals": 18
            }
        ]
    },
    "address_label": {
        "labels": [
            {
                "address": "0xeeeeeeeeeeeeeeeeeeeeeeeeeeeeeeeeeeeeeeee",
                "label": "Ether"
            },
            {
                "address": "0x6cb816569ab4665bdc2ba78a64aff87201608bc6",
                "label": "Bitmos"
            },
            {
                "address": "0x0000000000000000000000000000000000000001",
                "label": "Precompiled"
            },
            {
                "address": "0x0000000000000000000000000000000000000002",
                "label": "Precompiled"
            },
            {
                "address": "0x0000000000000000000000000000000000000003",
                "label": "Precompiled"
            },
            {
                "address": "0x0000000000000000000000000000000000000004",
                "label": "Precompiled"
            }
        ]
    },
    "trace": {
        "accountLabels": null,
        "dataMap": {
            "-1": {
                "invocation": {
                    "address": "0x01690633aa7f434b88b686e6ef5eed8f22f713ad",
                    "callData": "",
                    "decodedMethod": null,
                    "errorInfo": "",
                    "fromAddress": "",
                    "gasUsed": 0,
                    "id": -1,
                    "methodDecoded": false,
                    "operation": "",
                    "output": "",
                    "revert": false,
                    "revertMessage": "",
                    "selector": "",
                    "status": false,
                    "value": ""
                },
                "nodeType": 0
            },
            "0": {
                "invocation": {
                    "address": "0x6cb816569ab4665bdc2ba78a64aff87201608bc6",
                    "callData": "0x0000000000000000000000004025ebea8e69b00d2cd239f2b593cf94f52e630e0000000000000000000000000000000000000000000000000000023a6f613400",
                    "decodedMethod": {
                        "callParams": [
                            {
                                "name": "_to",
                                "type": "address",
                                "value": "0x4025ebea8e69b00d2cd239f2b593cf94f52e630e"
                            },
                            {
                                "decimalAvailable": true,
                                "name": "_value",
                                "type": "uint256",
                                "value": "2,450,000,000,000"
                            }
                        ],
                        "constructorArguments": "",
                        "name": "transfer",
                        "returnParams": [
                            {
                                "name": "success",
                                "type": "bool",
                                "value": true
                            }
                        ],
                        "signature": "transfer(address,uint256)"
                    },
                    "errorInfo": "",
                    "fromAddress": "0x01690633aa7f434b88b686e6ef5eed8f22f713ad",
                    "gasUsed": 51397,
                    "id": 0,
                    "methodDecoded": true,
                    "operation": "CALL",
                    "output": "0x0000000000000000000000000000000000000000000000000000000000000001",
                    "revert": false,
                    "revertMessage": "",
                    "selector": "0xa9059cbb",
                    "status": true,
                    "value": "0"
                },
                "nodeType": 0
            },
            "1": {
                "event": {
                    "contract": "0x6cb816569ab4665bdc2ba78a64aff87201608bc6",
                    "decodedLog": {
                        "name": "Transfer",
                        "params": [
                            {
                                "name": "_from",
                                "type": "address",
                                "value": "0x01690633aa7f434b88b686e6ef5eed8f22f713ad"
                            },
                            {
                                "name": "_to",
                                "type": "address",
                                "value": "0x4025ebea8e69b00d2cd239f2b593cf94f52e630e"
                            },
                            {
                                "decimalAvailable": true,
                                "name": "_value",
                                "type": "uint256",
                                "value": "2,450,000,000,000"
                            }
                        ],
                        "signature": "Transfer(address,address,uint256)"
                    },
                    "id": 1,
                    "logData": "0x0000000000000000000000000000000000000000000000000000023a6f613400",
                    "logDecoded": true,
                    "operation": "EVENT",
                    "revert": false,
                    "status": true,
                    "topics": [
                        "0xddf252ad1be2c89b69c2b068fc378daa952ba7f163c4a11628f55a4df523b3ef",
                        "0x00000000000000000000000001690633aa7f434b88b686e6ef5eed8f22f713ad",
                        "0x0000000000000000000000004025ebea8e69b00d2cd239f2b593cf94f52e630e"
                    ]
                },
                "nodeType": 1
            }
        },
        "gasFlame": [
            {
                "children": [
                    {
                        "children": [
                            {
                                "children": [],
                                "depth": 0,
                                "name": "Initial Gas",
                                "value": 23128
                            },
                            {
                                "children": [],
                                "depth": 0,
                                "name": "Executed Gas",
                                "value": 28269
                            }
                        ],
                        "depth": -1,
                        "name": "Actual Gas Used",
                        "value": 51397
                    },
                    {
                        "children": [],
                        "depth": -1,
                        "name": "Refunded Gas",
                        "value": 0
                    }
                ],
                "depth": -2,
                "name": "Total Gas",
                "value": 51397
            }
        ],
        "isConfirmed": true,
        "mainTrace": [
            {
                "children": [
                    {
                        "children": [
                            {
                                "children": [],
                                "depth": 1,
                                "id": 1,
                                "order": 1
                            }
                        ],
                        "depth": 0,
                        "id": 0,
                        "order": 0
                    }
                ],
                "depth": -1,
                "id": -1,
                "order": -1
            }
        ],
        "mainTraceNodeCount": 2,
        "parentIdMap": {
            "0": -1,
            "1": 0
        },
        "tidyTrace": [
            {
                "children": [
                    {
                        "children": [
                            {
                                "children": [],
                                "depth": 1,
                                "id": 1,
                                "order": 1
                            }
                        ],
                        "depth": 0,
                        "id": 0,
                        "order": 0
                    }
                ],
                "depth": -1,
                "id": -1,
                "order": -1
            }
        ],
        "tidyTraceNodeCount": 2
    },
    "state_change": {
        "stateChanges": [
            {
                "address": "0x6cb816569ab4665bdc2ba78a64aff87201608bc6",
                "erc": "ERC-20",
                "slots": [
                    {
                        "current": "0x000000000000000000000000000000000000000000000000000019303ea31600",
                        "key": "0xf840041a2cd83c01de7a2d7af73a0ac357de89a741f91a29dfc0e28e0a723cf9",
                        "prev": "0x00000000000000000000000000000000000000000000000000001b6aae044a00"
                    },
                    {
                        "current": "0x0000000000000000000000000000000000000000000000000000023a6f613400",
                        "key": "0x068bbaaae03421d8bba879b5923d7799227fbe92b088ec127bb9ef3af5ad724f",
                        "prev": "0x0000000000000000000000000000000000000000000000000000000000000000"
                    }
                ],
                "storageVariables": [
                    {
                        "name": "balances",
                        "type": "mapping(address => uint256)",
                        "value": {
                            "pairs": [
                                {
                                    "key": "0x01690633aa7f434b88b686e6ef5eed8f22f713ad",
                                    "value": {
                                        "current": "27695000000000",
                                        "prev": "30145000000000",
                                        "typeTag": 1
                                    }
                                },
                                {
                                    "key": "0x4025ebea8e69b00d2cd239f2b593cf94f52e630e",
                                    "value": {
                                        "current": "2450000000000",
                                        "prev": "0",
                                        "typeTag": 1
                                    }
                                }
                            ],
                            "typeTag": 4
                        }
                    }
                ]
            }
        ]
    }
}