{
    "balance_change": {
        "balanceChanges": [
            {
                "account": "0xf6aaada76ea7f044ffa028565b028740dce5389f",
                "assets": [
                    {
                        "address": "0xeeeeeeeeeeeeeeeeeeeeeeeeeeeeeeeeeeeeeeee",
                        "amount": "1.515823024103002204",
                        "iconUrl": "https://assets.blocksec.com/image/1663669189317-3.png",
                        "isERC1155": false,
                        "isERC721": false,
                        "sign": true,
                        "value": "2739.2224848094437777"
                    },
                    {
                        "address": "0xc5102fe9359fd9a28f877a67e36b0f050d81a3cc",
                        "amount": "14,277.807153769295935918",
                        "iconUrl": "https://assets.blocksec.com/icon/26d0303e575fb2e9642a4482716857c39d5708dd377b967f5a4c6c2cc09dfb0d.png",
                        "isERC1155": false,
                        "isERC721": false,
                        "sign": true,
                        "value": "1083.837999"
                    }
                ]
            },
            {
                "account": "0x8d132e304d697dbec65fc41fdab9cf6404e0dd1c",
                "assets": [
                    {
                        "address": "0xc02aaa39b223fe8d0a0e5c4f27ead9083c756cc2",
                        "amount": "1.515823024103002204",
                        "iconUrl": "https://assets.blocksec.com/icon/f1cb2d02c471d545bbc7722daf3277fd852d98e63d118771af7047bd8256c516.png",
                        "isERC1155": false,
                        "isERC721": false,
                        "sign": false,
                        "value": "2739.2224848094437777"
                    },
                    {
                        "address": "0xc5102fe9359fd9a28f877a67e36b0f050d81a3cc",
                        "amount": "14,277.807153769295935918",
                        "iconUrl": "https://assets.blocksec.com/icon/26d0303e575fb2e9642a4482716857c39d5708dd377b967f5a4c6c2cc09dfb0d.png",
                        "isERC1155": false,
                        "isERC721": false,
                        "sign": false,
                        "value": "1083.837999"
                    }
                ]
            },
            {
                "account": "0xc02aaa39b223fe8d0a0e5c4f27ead9083c756cc2",
                "assets": [
                    {
                        "address": "0xc02aaa39b223fe8d0a0e5c4f27ead9083c756cc2",
                        "amount": "1.515823024103002204",
                        "iconUrl": "https://assets.blocksec.com/icon/f1cb2d02c471d545bbc7722daf3277fd852d98e63d118771af7047bd8256c516.png",
                        "isERC1155": false,
                        "isERC721": false,
                        "sign": true,
                        "value": "2739.2224848094437777"
                    },
                    {
                        "address": "0xeeeeeeeeeeeeeeeeeeeeeeeeeeeeeeeeeeeeeeee",
                        "amount": "1.515823024103002204",
                        "iconUrl": "https://assets.blocksec.com/image/1663669189317-3.png",
                        "isERC1155": false,
                        "isERC721": false,
                        "sign": false,
                        "value": "2739.2224848094437777"
                    }
                ]
            }
        ]
    },
    "profile": {
        "basic_info": {
            "baseFee": "121.252693085",
            "blockNumber": 14955494,
            "callData": "0xac9650d8000000000000000000000000000000000000000000000000000000000000002000000000000000000000000000000000000000000000000000000000000000030000000000000000000000000000000000000000000000000000000000000060000000000000000000000000000000000000000000000000000000000000012000000000000000000000000000000000000000000000000000000000000001a00000000000000000000000000000000000000000000000000000000000000084fc6f7865000000000000000000000000000000000000000000000000000000000003d517000000000000000000000000000000000000000000000000000000000000000000000000000000000000000000000000ffffffffffffffffffffffffffffffff00000000000000000000000000000000ffffffffffffffffffffffffffffffff00000000000000000000000000000000000000000000000000000000000000000000000000000000000000000000000000000000000000000000004449404b7c000000000000000000000000000000000000000000000000150949025e04905c000000000000000000000000f6aaada76ea7f044ffa028565b028740dce5389f000000000000000000000000000000000000000000000000000000000000000000000000000000000000000000000000000000000000000000000064df2ab5bb000000000000000000000000c5102fe9359fd9a28f877a67e36b0f050d81a3cc0000000000000000000000000000000000000000000003060060c749edf479ae000000000000000000000000f6aaada76ea7f044ffa028565b028740dce5389f00000000000000000000000000000000000000000000000000000000",
            "debugEnable": true,
            "errorInfo": "",
            "eventCount": 8,
            "feeRecipient": "0x7f101fe45e6649a6fb8f3f8b43ed03d353f2b90c",
            "formatValue": "0",
            "gasLimit": 310285,
            "gasPrice": "122.752693085",
            "gasUsed": 206857,
            "intTxnCount": 14,
            "internalRevert": false,
            "internalRevertMessage": "",
            "isContractCreation": false,
            "isFlashloan": false,
            "maxFee": "160.809631661",
            "nonce": 1934,
            "overwritedBlockNumber": -1,
            "priorityFee": "1.5",
            "receiver": "0xc36442b4a4522e871399cd717abdd847ab11fe88",
            "revertMessage": "",
            "sender": "0xf6aaada76ea7f044ffa028565b028740dce5389f",
            "simulationEnable": true,
            "sourceTxnHash": "0x924798abc22abc560815a1439a819431655fcf00c37c288e0f64672ab417d37d",
            "status": true,
            "timestamp": "2022-06-13T10:25:08Z",
            "transactionFee": "0.025392253833483845",
            "txnHash": "0x924798abc22abc560815a1439a819431655fcf00c37c288e0f64672ab417d37d",
            "txnIndex": 24,
            "type": 2,
            "value": "0"
        },
        "fund_flow": [
            {
                "amount": "1.515823024103002204",
                "from": "0x8d132e304d697dbec65fc41fdab9cf6404e0dd1c",
                "id": 1,
                "isERC1155": false,
                "isERC721": false,
                "isReverted": false,
                "order": 1,
                "to": "0xc36442b4a4522e871399cd717abdd847ab11fe88",
                "token": "0xc02aaa39b223fe8d0a0e5c4f27ead9083c756cc2"
            },
            {
                "amount": "14,277.807153769295935918",
                "from": "0x8d132e304d697dbec65fc41fdab9cf6404e0dd1c",
                "id": 2,
                "isERC1155": false,
                "isERC721": false,
                "isReverted": false,
                "order": 2,
                "to": "0xc36442b4a4522e871399cd717abdd847ab11fe88",
                "token": "0xc5102fe9359fd9a28f877a67e36b0f050d81a3cc"
            },
            {
                "amount": "1.515823024103002204",
                "from": "0xc02aaa39b223fe8d0a0e5c4f27ead9083c756cc2",
                "id": 3,
                "isERC1155": false,
                "isERC721": false,
                "isReverted": false,
                "order": 3,
                "to": "0xc36442b4a4522e871399cd717abdd847ab11fe88",
                "token": "0xeeeeeeeeeeeeeeeeeeeeeeeeeeeeeeeeeeeeeeee"
            },
            {
                "amount": "1.515823024103002204",
                "from": "0xc36442b4a4522e871399cd717abdd847ab11fe88",
                "id": 4,
                "isERC1155": false,
                "isERC721": false,
                "isReverted": false,
                "order": 4,
                "to": "0xc02aaa39b223fe8d0a0e5c4f27ead9083c756cc2",
                "token": "0xc02aaa39b223fe8d0a0e5c4f27ead9083c756cc2"
            },
            {
                "amount": "1.515823024103002204",
                "from": "0xc36442b4a4522e871399cd717abdd847ab11fe88",
                "id": 5,
                "isERC1155": false,
                "isERC721": false,
                "isReverted": false,
                "order": 5,
                "to": "0xf6aaada76ea7f044ffa028565b028740dce5389f",
                "token": "0xeeeeeeeeeeeeeeeeeeeeeeeeeeeeeeeeeeeeeeee"
            },
            {
                "amount": "14,277.807153769295935918",
                "from": "0xc36442b4a4522e871399cd717abdd847ab11fe88",
                "id": 6,
                "isERC1155": false,
                "isERC721": false,
                "isReverted": false,
                "order": 6,
                "to": "0xf6aaada76ea7f044ffa028565b028740dce5389f",
                "token": "0xc5102fe9359fd9a28f877a67e36b0f050d81a3cc"
            }
        ],
        "token_infos": [
            {
                "address": "0xc02aaa39b223fe8d0a0e5c4f27ead9083c756cc2",
                "decimals": 18
            },
            {
                "address": "0xc5102fe9359fd9a28f877a67e36b0f050d81a3cc",
                "decimals": 18
            },
            {
                "address": "0xeeeeeeeeeeeeeeeeeeeeeeeeeeeeeeeeeeeeeeee",
                "decimals": 18
            }
        ]
    },
    "address_label": {
        "labels": [
            {
                "address": "0xc5102fe9359fd9a28f877a67e36b0f050d81a3cc",
                "label": "Hop: HOP Token"
            },
            {
                "address": "0xc02aaa39b223fe8d0a0e5c4f27ead9083c756cc2",
                "label": "Wrapped Ether (WETH)"
            },
            {
                "address": "0x0000000000000000000000000000000000000001",
                "label": "Precompiled"
            },
            {
                "address": "0x0000000000000000000000000000000000000003",
                "label": "Precompiled"
            },
            {
                "address": "0x0000000000000000000000000000000000000004",
                "label": "Precompiled"
            },
            {
                "address": "0xeeeeeeeeeeeeeeeeeeeeeeeeeeeeeeeeeeeeeeee",
                "label": "Ether"
            },
            {
                "address": "0x8d132e304d697dbec65fc41fdab9cf6404e0dd1c",
                "label": "Uniswap V3: HOP"
            },
            {
                "address": "0x0000000000000000000000000000000000000002",
                "label": "Precompiled"
            },
            {
                "address": "0x0000000000000000000000000000000000000000",
                "label": "Null Address"
            },
            {
                "address": "0xc36442b4a4522e871399cd717abdd847ab11fe88",
                "label": "Uniswap V3: Positions NFT"
            }
        ]
    },
    "trace": {
        "accountLabels": null,
        "dataMap": {
            "-1": {
                "invocation": {
                    "address": "0xf6aaada76ea7f044ffa028565b028740dce5389f",
                    "callData": "",
                    "decodedMethod": null,
                    "errorInfo": "",
                    "fromAddress": "",
                    "gasUsed": 0,
                    "id": -1,
                    "methodDecoded": false,
                    "operation": "",
                    "output": "",
                    "revert": false,
                    "revertMessage": "",
                    "selector": "",
                    "status": false,
                    "value": ""
                },
                "nodeType": 0
            },
            "0": {
                "invocation": {
                    "address": "0xc36442b4a4522e871399cd717abdd847ab11fe88",
                    "callData": "0x000000000000000000000000000000000000000000000000000000000000002000000000000000000000000000000000000000000000000000000000000000030000000000000000000000000000000000000000000000000000000000000060000000000000000000000000000000000000000000000000000000000000012000000000000000000000000000000000000000000000000000000000000001a00000000000000000000000000000000000000000000000000000000000000084fc6f7865000000000000000000000000000000000000000000000000000000000003d517000000000000000000000000000000000000000000000000000000000000000000000000000000000000000000000000ffffffffffffffffffffffffffffffff00000000000000000000000000000000ffffffffffffffffffffffffffffffff00000000000000000000000000000000000000000000000000000000000000000000000000000000000000000000000000000000000000000000004449404b7c000000000000000000000000000000000000000000000000150949025e04905c000000000000000000000000f6aaada76ea7f044ffa028565b028740dce5389f000000000000000000000000000000000000000000000000000000000000000000000000000000000000000000000000000000000000000000000064df2ab5bb000000000000000000000000c5102fe9359fd9a28f877a67e36b0f050d81a3cc0000000000000000000000000000000000000000000003060060c749edf479ae000000000000000000000000f6aaada76ea7f044ffa028565b028740dce5389f00000000000000000000000000000000000000000000000000000000",
                    "decodedMethod": {
                        "callParams": [
                            {
                                "name": "data",
                                "type": "bytes[]",
                                "value": [
                                    "0xfc6f7865000000000000000000000000000000000000000000000000000000000003d517000000000000000000000000000000000000000000000000000000000000000000000000000000000000000000000000ffffffffffffffffffffffffffffffff00000000000000000000000000000000ffffffffffffffffffffffffffffffff",
                                    "0x49404b7c000000000000000000000000000000000000000000000000150949025e04905c000000000000000000000000f6aaada76ea7f044ffa028565b028740dce5389f",
                                    "0xdf2ab5bb000000000000000000000000c5102fe9359fd9a28f877a67e36b0f050d81a3cc0000000000000000000000000000000000000000000003060060c749edf479ae000000000000000000000000f6aaada76ea7f044ffa028565b028740dce5389f"
                                ]
                            }
                        ],
                        "constructorArguments": "",
                        "name": "multicall",
                        "returnParams": [
                            {
                                "name": "results",
                                "type": "bytes[]",
                                "value": [
                                    "0x000000000000000000000000000000000000000000000000150949025e04905c0000000000000000000000000000000000000000000003060060c749edf479ae",
                                    "0x",
                                    "0x"
                                ]
                            }
                        ],
                        "signature": "multicall(bytes[])"
                    },
                    "errorInfo": "",
                    "fromAddress": "0xf6aaada76ea7f044ffa028565b028740dce5389f",
                    "gasUsed": 206857,
                    "id": 0,
                    "methodDecoded": true,
                    "operation": "CALL",
                    "output": "0x00000000000000000000000000000000000000000000000000000000000000200000000000000000000000000000000000000000000000000000000000000003000000000000000000000000000000000000000000000000000000000000006000000000000000000000000000000000000000000000000000000000000000c000000000000000000000000000000000000000000000000000000000000000e00000000000000000000000000000000000000000000000000000000000000040000000000000000000000000000000000000000000000000150949025e04905c0000000000000000000000000000000000000000000003060060c749edf479ae00000000000000000000000000000000000000000000000000000000000000000000000000000000000000000000000000000000000000000000000000000000",
                    "revert": false,
                    "revertMessage": "",
                    "selector": "0xac9650d8",
                    "status": true,
                    "value": "0"
                },
                "nodeType": 0
            },
            "1": {
                "invocation": {
                    "address": "0xc36442b4a4522e871399cd717abdd847ab11fe88",
                    "callData": "0x000000000000000000000000000000000000000000000000000000000003d517000000000000000000000000000000000000000000000000000000000000000000000000000000000000000000000000ffffffffffffffffffffffffffffffff00000000000000000000000000000000ffffffffffffffffffffffffffffffff",
                    "decodedMethod": {
                        "callParams": [
                            {
                                "name": "params",
                                "type": "(uint256,address,uint128,uint128)",
                                "value": [
                                    {
                                        "name": "tokenId",
                                        "type": "uint256",
                                        "value": "251,159"
                                    },
                                    {
                                        "name": "recipient",
                                        "type": "address",
                                        "value": "0x0000000000000000000000000000000000000000"
                                    },
                                    {
                                        "name": "amount0Max",
                                        "type": "uint128",
                                        "value": "340,282,366,920,938,463,463,374,607,431,768,211,455"
                                    },
                                    {
                                        "name": "amount1Max",
                                        "type": "uint128",
                                        "value": "340,282,366,920,938,463,463,374,607,431,768,211,455"
                                    }
                                ]
                            }
                        ],
                        "constructorArguments": "",
                        "name": "collect",
                        "returnParams": [
                            {
                                "name": "amount0",
                                "type": "uint256",
                                "value": "1,515,823,024,103,002,204"
                            },
                            {
                                "name": "amount1",
                                "type": "uint256",
                                "value": "14,277,807,153,769,295,935,918"
                            }
                        ],
                        "signature": "collect((uint256,address,uint128,uint128))"
                    },
                    "errorInfo": "",
                    "fromAddress": "0xc36442b4a4522e871399cd717abdd847ab11fe88",
                    "gasUsed": 163063,
                    "id": 1,
                    "methodDecoded": true,
                    "operation": "DELEGATECALL",
                    "output": "0x000000000000000000000000000000000000000000000000150949025e04905c0000000000000000000000000000000000000000000003060060c749edf479ae",
                    "revert": false,
                    "revertMessage": "",
                    "selector": "0xfc6f7865",
                    "status": true,
                    "value": "0"
                },
                "nodeType": 0
            },
            "10": {
                "event": {
                    "contract": "0x8d132e304d697dbec65fc41fdab9cf6404e0dd1c",
                    "decodedLog": {
                        "name": "Collect",
                        "params": [
                            {
                                "name": "owner",
                                "type": "address",
                                "value": "0xc36442b4a4522e871399cd717abdd847ab11fe88"
                            },
                            {
                                "name": "tickLower",
                                "type": "int24",
                                "value": "81,000"
                            },
                            {
                                "name": "tickUpper",
                                "type": "int24",
                                "value": "91,400"
                            },
                            {
                                "name": "recipient",
                                "type": "address",
                                "value": "0xc36442b4a4522e871399cd717abdd847ab11fe88"
                            },
                            {
                                "name": "amount0",
                                "type": "uint128",
                                "value": "1,515,823,024,103,002,204"
                            },
                            {
                                "name": "amount1",
                                "type": "uint128",
                                "value": "14,277,807,153,769,295,935,918"
                            }
                        ],
                        "signature": "Collect(address,address,int24,int24,uint128,uint128)"
                    },
                    "id": 10,
                    "logData": "0x000000000000000000000000c36442b4a4522e871399cd717abdd847ab11fe88000000000000000000000000000000000000000000000000150949025e04905c0000000000000000000000000000000000000000000003060060c749edf479ae",
                    "logDecoded": true,
                    "operation": "EVENT",
                    "revert": false,
                    "status": true,
                    "topics": [
                        "0x70935338e69775456a85ddef226c395fb668b63fa0115f5f20610b388e6ca9c0",
                        "0x000000000000000000000000c36442b4a4522e871399cd717abdd847ab11fe88",
                        "0x0000000000000000000000000000000000000000000000000000000000013c68",
                        "0x0000000000000000000000000000000000000000000000000000000000016508"
                    ]
                },
                "nodeType": 1
            },
            "11": {
                "event": {
                    "contract": "0xc36442b4a4522e871399cd717abdd847ab11fe88",
                    "decodedLog": {
                        "name": "Collect",
                        "params": [
                            {
                                "name": "tokenId",
                                "type": "uint256",
                                "value": "251,159"
                            },
                            {
                                "name": "recipient",
                                "type": "address",
                                "value": "0xc36442b4a4522e871399cd717abdd847ab11fe88"
                            },
                            {
                                "name": "amount0",
                                "type": "uint256",
                                "value": "1,515,823,024,103,002,204"
                            },
                            {
                                "name": "amount1",
                                "type": "uint256",
                                "value": "14,277,807,153,769,295,935,918"
                            }
                        ],
                        "signature": "Collect(uint256,address,uint256,uint256)"
                    },
                    "id": 11,
                    "logData": "0x000000000000000000000000c36442b4a4522e871399cd717abdd847ab11fe88000000000000000000000000000000000000000000000000150949025e04905c0000000000000000000000000000000000000000000003060060c749edf479ae",
                    "logDecoded": true,
                    "operation": "EVENT",
                    "revert": false,
                    "status": true,
                    "topics": [
                        "0x40d0efd1a53d60ecbf40971b9daf7dc90178c3aadc7aab1765632738fa8b8f01",
                        "0x000000000000000000000000000000000000000000000000000000000003d517"
                    ]
                },
                "nodeType": 1
            },
            "12": {
                "invocation": {
                    "address": "0xc36442b4a4522e871399cd717abdd847ab11fe88",
                    "callData": "0x000000000000000000000000000000000000000000000000150949025e04905c000000000000000000000000f6aaada76ea7f044ffa028565b028740dce5389f",
                    "decodedMethod": {
                        "callParams": [
                            {
                                "name": "amountMinimum",
                                "type": "uint256",
                                "value": "1,515,823,024,103,002,204"
                            },
                            {
                                "name": "recipient",
                                "type": "address",
                                "value": "0xf6aaada76ea7f044ffa028565b028740dce5389f"
                            }
                        ],
                        "constructorArguments": "",
                        "name": "unwrapWETH9",
                        "returnParams": [],
                        "signature": "unwrapWETH9(uint256,address)"
                    },
                    "errorInfo": "",
                    "fromAddress": "0xc36442b4a4522e871399cd717abdd847ab11fe88",
                    "gasUsed": 18222,
                    "id": 12,
                    "methodDecoded": true,
                    "operation": "DELEGATECALL",
                    "output": "",
                    "revert": false,
                    "revertMessage": "",
                    "selector": "0x49404b7c",
                    "status": true,
                    "value": "0"
                },
                "nodeType": 0
            },
            "13": {
                "invocation": {
                    "address": "0xc02aaa39b223fe8d0a0e5c4f27ead9083c756cc2",
                    "callData": "0x000000000000000000000000c36442b4a4522e871399cd717abdd847ab11fe88",
                    "decodedMethod": {
                        "callParams": [
                            {
                                "name": "",
                                "type": "address",
                                "value": "0xc36442b4a4522e871399cd717abdd847ab11fe88"
                            }
                        ],
                        "constructorArguments": "",
                        "name": "balanceOf",
                        "returnParams": [
                            {
                                "decimalAvailable": true,
                                "name": "",
                                "type": "uint256",
                                "value": "1,515,823,024,103,002,204"
                            }
                        ],
                        "signature": "balanceOf(address)"
                    },
                    "errorInfo": "",
                    "fromAddress": "0xc36442b4a4522e871399cd717abdd847ab11fe88",
                    "gasUsed": 534,
                    "id": 13,
                    "methodDecoded": true,
                    "operation": "STATICCALL",
                    "output": "0x000000000000000000000000000000000000000000000000150949025e04905c",
                    "revert": false,
                    "revertMessage": "",
                    "selector": "0x70a08231",
                    "status": true,
                    "value": "0"
                },
                "nodeType": 0
            },
            "14": {
                "invocation": {
                    "address": "0xc02aaa39b223fe8d0a0e5c4f27ead9083c756cc2",
                    "callData": "0x000000000000000000000000000000000000000000000000150949025e04905c",
                    "decodedMethod": {
                        "callParams": [
                            {
                                "name": "wad",
                                "type": "uint256",
                                "value": "1,515,823,024,103,002,204"
                            }
                        ],
                        "constructorArguments": "",
                        "name": "withdraw",
                        "returnParams": [],
                        "signature": "withdraw(uint256)"
                    },
                    "errorInfo": "",
                    "fromAddress": "0xc36442b4a4522e871399cd717abdd847ab11fe88",
                    "gasUsed": 9235,
                    "id": 14,
                    "methodDecoded": true,
                    "operation": "CALL",
                    "output": "",
                    "revert": false,
                    "revertMessage": "",
                    "selector": "0x2e1a7d4d",
                    "status": true,
                    "value": "0"
                },
                "nodeType": 0
            },
            "15": {
                "invocation": {
                    "address": "0xc36442b4a4522e871399cd717abdd847ab11fe88",
                    "callData": "0x",
                    "decodedMethod": null,
                    "errorInfo": "",
                    "fromAddress": "0xc02aaa39b223fe8d0a0e5c4f27ead9083c756cc2",
                    "gasUsed": 95,
                    "id": 15,
                    "methodDecoded": false,
                    "operation": "CALL",
                    "output": "",
                    "revert": false,
                    "revertMessage": "",
                    "selector": "fallback",
                    "status": true,
                    "value": "1.515823024103002204"
                },
                "nodeType": 0
            },
            "16": {
                "event": {
                    "contract": "0xc02aaa39b223fe8d0a0e5c4f27ead9083c756cc2",
                    "decodedLog": {
                        "name": "Withdrawal",
                        "params": [
                            {
                                "name": "src",
                                "type": "address",
                                "value": "0xc36442b4a4522e871399cd717abdd847ab11fe88"
                            },
                            {
                                "name": "wad",
                                "type": "uint256",
                                "value": "1,515,823,024,103,002,204"
                            }
                        ],
                        "signature": "Withdrawal(address,uint256)"
                    },
                    "id": 16,
                    "logData": "0x000000000000000000000000000000000000000000000000150949025e04905c",
                    "logDecoded": true,
                    "operation": "EVENT",
                    "revert": false,
                    "status": true,
                    "topics": [
                        "0x7fcf532c15f0a6db0bd6d0e038bea71d30d808c7d98cb3bf7268a95bf5081b65",
                        "0x000000000000000000000000c36442b4a4522e871399cd717abdd847ab11fe88"
                    ]
                },
                "nodeType": 1
            },
            "17": {
                "invocation": {
                    "address": "0xf6aaada76ea7f044ffa028565b028740dce5389f",
                    "callData": "0x",
                    "decodedMethod": null,
                    "errorInfo": "",
                    "fromAddress": "0xc36442b4a4522e871399cd717abdd847ab11fe88",
                    "gasUsed": 0,
                    "id": 17,
                    "methodDecoded": false,
                    "operation": "CALL",
                    "output": "",
                    "revert": false,
                    "revertMessage": "",
                    "selector": "fallback",
                    "status": true,
                    "value": "1.515823024103002204"
                },
                "nodeType": 0
            },
            "18": {
                "invocation": {
                    "address": "0xc36442b4a4522e871399cd717abdd847ab11fe88",
                    "callData": "0x000000000000000000000000c5102fe9359fd9a28f877a67e36b0f050d81a3cc0000000000000000000000000000000000000000000003060060c749edf479ae000000000000000000000000f6aaada76ea7f044ffa028565b028740dce5389f",
                    "decodedMethod": {
                        "callParams": [
                            {
                                "name": "token",
                                "type": "address",
                                "value": "0xc5102fe9359fd9a28f877a67e36b0f050d81a3cc"
                            },
                            {
                                "name": "amountMinimum",
                                "type": "uint256",
                                "value": "14,277,807,153,769,295,935,918"
                            },
                            {
                                "name": "recipient",
                                "type": "address",
                                "value": "0xf6aaada76ea7f044ffa028565b028740dce5389f"
                            }
                        ],
                        "constructorArguments": "",
                        "name": "sweepToken",
                        "returnParams": [],
                        "signature": "sweepToken(address,uint256,address)"
                    },
                    "errorInfo": "",
                    "fromAddress": "0xc36442b4a4522e871399cd717abdd847ab11fe88",
                    "gasUsed": 48021,
                    "id": 18,
                    "methodDecoded": true,
                    "operation": "DELEGATECALL",
                    "output": "",
                    "revert": false,
                    "revertMessage": "",
                    "selector": "0xdf2ab5bb",
                    "status": true,
                    "value": "0"
                },
                "nodeType": 0
            },
            "19": {
                "invocation": {
                    "address": "0xc5102fe9359fd9a28f877a67e36b0f050d81a3cc",
                    "callData": "0x000000000000000000000000c36442b4a4522e871399cd717abdd847ab11fe88",
                    "decodedMethod": {
                        "callParams": [
                            {
                                "name": "account",
                                "type": "address",
                                "value": "0xc36442b4a4522e871399cd717abdd847ab11fe88"
                            }
                        ],
                        "constructorArguments": "",
                        "name": "balanceOf",
                        "returnParams": [
                            {
                                "decimalAvailable": true,
                                "name": "",
                                "type": "uint256",
                                "value": "14,277,807,153,769,295,935,918"
                            }
                        ],
                        "signature": "balanceOf(address)"
                    },
                    "errorInfo": "",
                    "fromAddress": "0xc36442b4a4522e871399cd717abdd847ab11fe88",
                    "gasUsed": 887,
                    "id": 19,
                    "methodDecoded": true,
                    "operation": "STATICCALL",
                    "output": "0x0000000000000000000000000000000000000000000003060060c749edf479ae",
                    "revert": false,
                    "revertMessage": "",
                    "selector": "0x70a08231",
                    "status": true,
                    "value": "0"
                },
                "nodeType": 0
            },
            "2": {
                "invocation": {
                    "address": "0x8d132e304d697dbec65fc41fdab9cf6404e0dd1c",
                    "callData": "0x0000000000000000000000000000000000000000000000000000000000013c6800000000000000000000000000000000000000000000000000000000000165080000000000000000000000000000000000000000000000000000000000000000",
                    "decodedMethod": {
                        "callParams": [
                            {
                                "name": "tickLower",
                                "type": "int24",
                                "value": "81,000"
                            },
                            {
                                "name": "tickUpper",
                                "type": "int24",
                                "value": "91,400"
                            },
                            {
                                "name": "amount",
                                "type": "uint128",
                                "value": "0"
                            }
                        ],
                        "constructorArguments": "",
                        "name": "burn",
                        "returnParams": [
                            {
                                "name": "amount0",
                                "type": "uint256",
                                "value": "0"
                            },
                            {
                                "name": "amount1",
                                "type": "uint256",
                                "value": "0"
                            }
                        ],
                        "signature": "burn(int24,int24,uint128)"
                    },
                    "errorInfo": "",
                    "fromAddress": "0xc36442b4a4522e871399cd717abdd847ab11fe88",
                    "gasUsed": 41672,
                    "id": 2,
                    "methodDecoded": true,
                    "operation": "CALL",
                    "output": "0x00000000000000000000000000000000000000000000000000000000000000000000000000000000000000000000000000000000000000000000000000000000",
                    "revert": false,
                    "revertMessage": "",
                    "selector": "0xa34123a7",
                    "status": true,
                    "value": "0"
                },
                "nodeType": 0
            },
            "20": {
                "invocation": {
                    "address": "0xc5102fe9359fd9a28f877a67e36b0f050d81a3cc",
                    "callData": "0x000000000000000000000000f6aaada76ea7f044ffa028565b028740dce5389f0000000000000000000000000000000000000000000003060060c749edf479ae",
                    "decodedMethod": {
                        "callParams": [
                            {
                                "name": "to",
                                "type": "address",
                                "value": "0xf6aaada76ea7f044ffa028565b028740dce5389f"
                            },
                            {
                                "decimalAvailable": true,
                                "name": "amount",
                                "type": "uint256",
                                "value": "14,277,807,153,769,295,935,918"
                            }
                        ],
                        "constructorArguments": "",
                        "name": "transfer",
                        "returnParams": [
                            {
                                "name": "",
                                "type": "bool",
                                "value": true
                            }
                        ],
                        "signature": "transfer(address,uint256)"
                    },
                    "errorInfo": "",
                    "fromAddress": "0xc36442b4a4522e871399cd717abdd847ab11fe88",
                    "gasUsed": 45186,
                    "id": 20,
                    "methodDecoded": true,
                    "operation": "CALL",
                    "output": "0x0000000000000000000000000000000000000000000000000000000000000001",
                    "revert": false,
                    "revertMessage": "",
                    "selector": "0xa9059cbb",
                    "status": true,
                    "value": "0"
                },
                "nodeType": 0
            },
            "21": {
                "event": {
                    "contract": "0xc5102fe9359fd9a28f877a67e36b0f050d81a3cc",
                    "decodedLog": {
                        "name": "Transfer",
                        "params": [
                            {
                                "name": "from",
                                "type": "address",
                                "value": "0xc36442b4a4522e871399cd717abdd847ab11fe88"
                            },
                            {
                                "name": "to",
                                "type": "address",
                                "value": "0xf6aaada76ea7f044ffa028565b028740dce5389f"
                            },
                            {
                                "decimalAvailable": true,
                                "name": "value",
                                "type": "uint256",
                                "value": "14,277,807,153,769,295,935,918"
                            }
                        ],
                        "signature": "Transfer(address,address,uint256)"
                    },
                    "id": 21,
                    "logData": "0x0000000000000000000000000000000000000000000003060060c749edf479ae",
                    "logDecoded": true,
                    "operation": "EVENT",
                    "revert": false,
                    "status": true,
                    "topics": [
                        "0xddf252ad1be2c89b69c2b068fc378daa952ba7f163c4a11628f55a4df523b3ef",
                        "0x000000000000000000000000c36442b4a4522e871399cd717abdd847ab11fe88",
                        "0x000000000000000000000000f6aaada76ea7f044ffa028565b028740dce5389f"
                    ]
                },
                "nodeType": 1
            },
            "22": {
                "event": {
                    "contract": "0xc5102fe9359fd9a28f877a67e36b0f050d81a3cc",
                    "decodedLog": {
                        "name": "DelegateVotesChanged",
                        "params": [
                            {
                                "name": "delegate",
                                "type": "address",
                                "value": "0x193c74753e5ed222a5932cbe53624063189d842b"
                            },
                            {
                                "name": "previousBalance",
                                "type": "uint256",
                                "value": "390,883,251,721,938,648,630,885"
                            },
                            {
                                "name": "newBalance",
                                "type": "uint256",
                                "value": "405,161,058,875,707,944,566,803"
                            }
                        ],
                        "signature": "DelegateVotesChanged(address,uint256,uint256)"
                    },
                    "id": 22,
                    "logData": "0x0000000000000000000000000000000000000000000052c5d2d334e084ff06650000000000000000000000000000000000000000000055cbd333fc2a72f38013",
                    "logDecoded": true,
                    "operation": "EVENT",
                    "revert": false,
                    "status": true,
                    "topics": [
                        "0xdec2bacdd2f05b59de34da9b523dff8be42e5e38e818c82fdb0bae774387a724",
                        "0x000000000000000000000000193c74753e5ed222a5932cbe53624063189d842b"
                    ]
                },
                "nodeType": 1
            },
            "3": {
                "event": {
                    "contract": "0x8d132e304d697dbec65fc41fdab9cf6404e0dd1c",
                    "decodedLog": {
                        "name": "Burn",
                        "params": [
                            {
                                "name": "owner",
                                "type": "address",
                                "value": "0xc36442b4a4522e871399cd717abdd847ab11fe88"
                            },
                            {
                                "name": "tickLower",
                                "type": "int24",
                                "value": "81,000"
                            },
                            {
                                "name": "tickUpper",
                                "type": "int24",
                                "value": "91,400"
                            },
                            {
                                "name": "amount",
                                "type": "uint128",
                                "value": "0"
                            },
                            {
                                "name": "amount0",
                                "type": "uint256",
                                "value": "0"
                            },
                            {
                                "name": "amount1",
                                "type": "uint256",
                                "value": "0"
                            }
                        ],
                        "signature": "Burn(address,int24,int24,uint128,uint256,uint256)"
                    },
                    "id": 3,
                    "logData": "0x000000000000000000000000000000000000000000000000000000000000000000000000000000000000000000000000000000000000000000000000000000000000000000000000000000000000000000000000000000000000000000000000",
                    "logDecoded": true,
                    "operation": "EVENT",
                    "revert": false,
                    "status": true,
                    "topics": [
                        "0x0c396cd989a39f4459b5fa1aed6a9a8dcdbc45908acfd67e028cd568da98982c",
                        "0x000000000000000000000000c36442b4a4522e871399cd717abdd847ab11fe88",
                        "0x0000000000000000000000000000000000000000000000000000000000013c68",
                        "0x0000000000000000000000000000000000000000000000000000000000016508"
                    ]
                },
                "nodeType": 1
            },
            "4": {
                "invocation": {
                    "address": "0x8d132e304d697dbec65fc41fdab9cf6404e0dd1c",
                    "callData": "0xd63d57fd06ea0eff2e466952d1c3dbd52392f4745f26878095a82de725d17aff",
                    "decodedMethod": {
                        "callParams": [
                            {
                                "name": "",
                                "type": "bytes32",
                                "value": "0xd63d57fd06ea0eff2e466952d1c3dbd52392f4745f26878095a82de725d17aff"
                            }
                        ],
                        "constructorArguments": "",
                        "name": "positions",
                        "returnParams": [
                            {
                                "name": "liquidity",
                                "type": "uint128",
                                "value": "9,855,328,287,948,811,372,305"
                            },
                            {
                                "name": "feeGrowthInside0LastX128",
                                "type": "uint256",
                                "value": "89,714,901,187,759,076,727,073,175,634,186,985"
                            },
                            {
                                "name": "feeGrowthInside1LastX128",
                                "type": "uint256",
                                "value": "672,335,607,979,173,139,309,068,473,135,713,261,146"
                            },
                            {
                                "name": "tokensOwed0",
                                "type": "uint128",
                                "value": "1,515,823,024,103,002,204"
                            },
                            {
                                "name": "tokensOwed1",
                                "type": "uint128",
                                "value": "14,277,807,153,769,295,935,918"
                            }
                        ],
                        "signature": "positions(bytes32)"
                    },
                    "errorInfo": "",
                    "fromAddress": "0xc36442b4a4522e871399cd717abdd847ab11fe88",
                    "gasUsed": 1013,
                    "id": 4,
                    "methodDecoded": true,
                    "operation": "STATICCALL",
                    "output": "0x00000000000000000000000000000000000000000000021642279e1f4f8d8711000000000000000000000000000000000011474940279ff9a7fac5f1d87412e900000000000000000000000000000001f9cf20c52a10b7f8e593d541f46c965a000000000000000000000000000000000000000000000000150949025e04905c0000000000000000000000000000000000000000000003060060c749edf479ae",
                    "revert": false,
                    "revertMessage": "",
                    "selector": "0x514ea4bf",
                    "status": true,
                    "value": "0"
                },
                "nodeType": 0
            },
            "5": {
                "invocation": {
                    "address": "0x8d132e304d697dbec65fc41fdab9cf6404e0dd1c",
                    "callData": "0x000000000000000000000000c36442b4a4522e871399cd717abdd847ab11fe880000000000000000000000000000000000000000000000000000000000013c680000000000000000000000000000000000000000000000000000000000016508000000000000000000000000000000000000000000000000150949025e04905c0000000000000000000000000000000000000000000003060060c749edf479ae",
                    "decodedMethod": {
                        "callParams": [
                            {
                                "name": "recipient",
                                "type": "address",
                                "value": "0xc36442b4a4522e871399cd717abdd847ab11fe88"
                            },
                            {
                                "name": "tickLower",
                                "type": "int24",
                                "value": "81,000"
                            },
                            {
                                "name": "tickUpper",
                                "type": "int24",
                                "value": "91,400"
                            },
                            {
                                "name": "amount0Requested",
                                "type": "uint128",
                                "value": "1,515,823,024,103,002,204"
                            },
                            {
                                "name": "amount1Requested",
                                "type": "uint128",
                                "value": "14,277,807,153,769,295,935,918"
                            }
                        ],
                        "constructorArguments": "",
                        "name": "collect",
                        "returnParams": [
                            {
                                "name": "amount0",
                                "type": "uint128",
                                "value": "1,515,823,024,103,002,204"
                            },
                            {
                                "name": "amount1",
                                "type": "uint128",
                                "value": "14,277,807,153,769,295,935,918"
                            }
                        ],
                        "signature": "collect(address,int24,int24,uint128,uint128)"
                    },
                    "errorInfo": "",
                    "fromAddress": "0xc36442b4a4522e871399cd717abdd847ab11fe88",
                    "gasUsed": 80587,
                    "id": 5,
                    "methodDecoded": true,
                    "operation": "CALL",
                    "output": "0x000000000000000000000000000000000000000000000000150949025e04905c0000000000000000000000000000000000000000000003060060c749edf479ae",
                    "revert": false,
                    "revertMessage": "",
                    "selector": "0x4f1eb3d8",
                    "status": true,
                    "value": "0"
                },
                "nodeType": 0
            },
            "6": {
                "invocation": {
                    "address": "0xc02aaa39b223fe8d0a0e5c4f27ead9083c756cc2",
                    "callData": "0x000000000000000000000000c36442b4a4522e871399cd717abdd847ab11fe88000000000000000000000000000000000000000000000000150949025e04905c",
                    "decodedMethod": {
                        "callParams": [
                            {
                                "name": "dst",
                                "type": "address",
                                "value": "0xc36442b4a4522e871399cd717abdd847ab11fe88"
                            },
                            {
                                "decimalAvailable": true,
                                "name": "wad",
                                "type": "uint256",
                                "value": "1,515,823,024,103,002,204"
                            }
                        ],
                        "constructorArguments": "",
                        "name": "transfer",
                        "returnParams": [
                            {
                                "name": "",
                                "type": "bool",
                                "value": true
                            }
                        ],
                        "signature": "transfer(address,uint256)"
                    },
                    "errorInfo": "",
                    "fromAddress": "0x8d132e304d697dbec65fc41fdab9cf6404e0dd1c",
                    "gasUsed": 29962,
                    "id": 6,
                    "methodDecoded": true,
                    "operation": "CALL",
                    "output": "0x0000000000000000000000000000000000000000000000000000000000000001",
                    "revert": false,
                    "revertMessage": "",
                    "selector": "0xa9059cbb",
                    "status": true,
                    "value": "0"
                },
                "nodeType": 0
            },
            "7": {
                "event": {
                    "contract": "0xc02aaa39b223fe8d0a0e5c4f27ead9083c756cc2",
                    "decodedLog": {
                        "name": "Transfer",
                        "params": [
                            {
                                "name": "src",
                                "type": "address",
                                "value": "0x8d132e304d697dbec65fc41fdab9cf6404e0dd1c"
                            },
                            {
                                "name": "dst",
                                "type": "address",
                                "value": "0xc36442b4a4522e871399cd717abdd847ab11fe88"
                            },
                            {
                                "decimalAvailable": true,
                                "name": "wad",
                                "type": "uint256",
                                "value": "1,515,823,024,103,002,204"
                            }
                        ],
                        "signature": "Transfer(address,address,uint256)"
                    },
                    "id": 7,
                    "logData": "0x000000000000000000000000000000000000000000000000150949025e04905c",
                    "logDecoded": true,
                    "operation": "EVENT",
                    "revert": false,
                    "status": true,
                    "topics": [
                        "0xddf252ad1be2c89b69c2b068fc378daa952ba7f163c4a11628f55a4df523b3ef",
                        "0x0000000000000000000000008d132e304d697dbec65fc41fdab9cf6404e0dd1c",
                        "0x000000000000000000000000c36442b4a4522e871399cd717abdd847ab11fe88"
                    ]
                },
                "nodeType": 1
            },
            "8": {
                "invocation": {
                    "address": "0xc5102fe9359fd9a28f877a67e36b0f050d81a3cc",
                    "callData": "0x000000000000000000000000c36442b4a4522e871399cd717abdd847ab11fe880000000000000000000000000000000000000000000003060060c749edf479ae",
                    "decodedMethod": {
                        "callParams": [
                            {
                                "name": "to",
                                "type": "address",
                                "value": "0xc36442b4a4522e871399cd717abdd847ab11fe88"
                            },
                            {
                                "decimalAvailable": true,
                                "name": "amount",
                                "type": "uint256",
                                "value": "14,277,807,153,769,295,935,918"
                            }
                        ],
                        "constructorArguments": "",
                        "name": "transfer",
                        "returnParams": [
                            {
                                "name": "",
                                "type": "bool",
                                "value": true
                            }
                        ],
                        "signature": "transfer(address,uint256)"
                    },
                    "errorInfo": "",
                    "fromAddress": "0x8d132e304d697dbec65fc41fdab9cf6404e0dd1c",
                    "gasUsed": 35500,
                    "id": 8,
                    "methodDecoded": true,
                    "operation": "CALL",
                    "output": "0x0000000000000000000000000000000000000000000000000000000000000001",
                    "revert": false,
                    "revertMessage": "",
                    "selector": "0xa9059cbb",
                    "status": true,
                    "value": "0"
                },
                "nodeType": 0
            },
            "9": {
                "event": {
                    "contract": "0xc5102fe9359fd9a28f877a67e36b0f050d81a3cc",
                    "decodedLog": {
                        "name": "Transfer",
                        "params": [
                            {
                                "name": "from",
                                "type": "address",
                                "value": "0x8d132e304d697dbec65fc41fdab9cf6404e0dd1c"
                            },
                            {
                                "name": "to",
                                "type": "address",
                                "value": "0xc36442b4a4522e871399cd717abdd847ab11fe88"
                            },
                            {
                                "decimalAvailable": true,
                                "name": "value",
                                "type": "uint256",
                                "value": "14,277,807,153,769,295,935,918"
                            }
                        ],
                        "signature": "Transfer(address,address,uint256)"
                    },
                    "id": 9,
                    "logData": "0x0000000000000000000000000000000000000000000003060060c749edf479ae",
                    "logDecoded": true,
                    "operation": "EVENT",
                    "revert": false,
                    "status": true,
                    "topics": [
                        "0xddf252ad1be2c89b69c2b068fc378daa952ba7f163c4a11628f55a4df523b3ef",
                        "0x0000000000000000000000008d132e304d697dbec65fc41fdab9cf6404e0dd1c",
                        "0x000000000000000000000000c36442b4a4522e871399cd717abdd847ab11fe88"
                    ]
                },
                "nodeType": 1
            }
        },
        "gasFlame": [
            {
                "children": [
                    {
                        "children": [
                            {
                                "children": [],
                                "depth": 0,
                                "name": "Initial Gas",
                                "value": 25232
                            },
                            {
                                "children": [
                                    {
                                        "children": [
                                            {
                                                "children": [],
                                                "depth": 2,
                                                "name": "burn",
                                                "value": 41672
                                            },
                                            {
                                                "children": [],
                                                "depth": 2,
                                                "name": "positions",
                                                "value": 1013
                                            },
                                            {
                                                "children": [
                                                    {
                                                        "children": [],
                                                        "depth": 3,
                                                        "name": "transfer",
                                                        "value": 29962
                                                    },
                                                    {
                                                        "children": [],
                                                        "depth": 3,
                                                        "name": "transfer",
                                                        "value": 35500
                                                    }
                                                ],
                                                "depth": 2,
                                                "name": "collect",
                                                "value": 80587
                                            }
                                        ],
                                        "depth": 1,
                                        "name": "collect",
                                        "value": 163063
                                    },
                                    {
                                        "children": [
                                            {
                                                "children": [],
                                                "depth": 2,
                                                "name": "balanceOf",
                                                "value": 534
                                            },
                                            {
                                                "children": [
                                                    {
                                                        "children": [],
                                                        "depth": 3,
                                                        "name": "fallback",
                                                        "value": 95
                                                    }
                                                ],
                                                "depth": 2,
                                                "name": "withdraw",
                                                "value": 9235
                                            },
                                            {
                                                "children": [],
                                                "depth": 2,
                                                "name": "fallback",
                                                "value": 0
                                            }
                                        ],
                                        "depth": 1,
                                        "name": "unwrapWETH9",
                                        "value": 18222
                                    },
                                    {
                                        "children": [
                                            {
                                                "children": [],
                                                "depth": 2,
                                                "name": "balanceOf",
                                                "value": 887
                                            },
                                            {
                                                "children": [],
                                                "depth": 2,
                                                "name": "transfer",
                                                "value": 45186
                                            }
                                        ],
                                        "depth": 1,
                                        "name": "sweepToken",
                                        "value": 48021
                                    }
                                ],
                                "depth": 0,
                                "name": "Executed Gas",
                                "value": 233339
                            }
                        ],
                        "depth": -1,
                        "name": "Actual Gas Used",
                        "value": 206857
                    },
                    {
                        "children": [],
                        "depth": -1,
                        "name": "Refunded Gas",
                        "value": 51714
                    }
                ],
                "depth": -2,
                "name": "Total Gas",
                "value": 258571
            }
        ],
        "isConfirmed": true,
        "mainTrace": [
            {
                "children": [
                    {
                        "children": [
                            {
                                "children": [
                                    {
                                        "children": [
                                            {
                                                "children": [],
                                                "depth": 3,
                                                "id": 3,
                                                "order": 3
                                            }
                                        ],
                                        "depth": 2,
                                        "id": 2,
                                        "order": 2
                                    },
                                    {
                                        "children": [],
                                        "depth": 2,
                                        "id": 4,
                                        "order": 4
                                    },
                                    {
                                        "children": [
                                            {
                                                "children": [
                                                    {
                                                        "children": [],
                                                        "depth": 4,
                                                        "id": 7,
                                                        "order": 7
                                                    }
                                                ],
                                                "depth": 3,
                                                "id": 6,
                                                "order": 6
                                            },
                                            {
                                                "children": [
                                                    {
                                                        "children": [],
                                                        "depth": 4,
                                                        "id": 9,
                                                        "order": 9
                                                    }
                                                ],
                                                "depth": 3,
                                                "id": 8,
                                                "order": 8
                                            },
                                            {
                                                "children": [],
                                                "depth": 3,
                                                "id": 10,
                                                "order": 10
                                            }
                                        ],
                                        "depth": 2,
                                        "id": 5,
                                        "order": 5
                                    },
                                    {
                                        "children": [],
                                        "depth": 2,
                                        "id": 11,
                                        "order": 11
                                    }
                                ],
                                "depth": 1,
                                "id": 1,
                                "order": 1
                            },
                            {
                                "children": [
                                    {
                                        "children": [],
                                        "depth": 2,
                                        "id": 13,
                                        "order": 13
                                    },
                                    {
                                        "children": [
                                            {
                                                "children": [],
                                                "depth": 3,
                                                "id": 15,
                                                "order": 15
                                            },
                                            {
                                                "children": [],
                                                "depth": 3,
                                                "id": 16,
                                                "order": 16
                                            }
                                        ],
                                        "depth": 2,
                                        "id": 14,
                                        "order": 14
                                    },
                                    {
                                        "children": [],
                                        "depth": 2,
                                        "id": 17,
                                        "order": 17
                                    }
                                ],
                                "depth": 1,
                                "id": 12,
                                "order": 12
                            },
                            {
                                "children": [
                                    {
                                        "children": [],
                                        "depth": 2,
                                        "id": 19,
                                        "order": 19
                                    },
                                    {
                                        "children": [
                                            {
                                                "children": [],
                                                "depth": 3,
                                                "id": 21,
                                                "order": 21
                                            },
                                            {
                                                "children": [],
                                                "depth": 3,
                                                "id": 22,
                                                "order": 22
                                            }
                                        ],
                                        "depth": 2,
                                        "id": 20,
                                        "order": 20
                                    }
                                ],
                                "depth": 1,
                                "id": 18,
                                "order": 18
                            }
                        ],
                        "depth": 0,
                        "id": 0,
                        "order": 0
                    }
                ],
                "depth": -1,
                "id": -1,
                "order": -1
            }
        ],
        "mainTraceNodeCount": 23,
        "parentIdMap": {
            "0": -1,
            "1": 0,
            "10": 5,
            "11": 1,
            "12": 0,
            "13": 12,
            "14": 12,
            "15": 14,
            "16": 14,
            "17": 12,
            "18": 0,
            "19": 18,
            "2": 1,
            "20": 18,
            "21": 20,
            "22": 20,
            "3": 2,
            "4": 1,
            "5": 1,
            "6": 5,
            "7": 6,
            "8": 5,
            "9": 8
        },
        "tidyTrace": [
            {
                "children": [
                    {
                        "children": [
                            {
                                "children": [
                                    {
                                        "children": [
                                            {
                                                "children": [],
                                                "depth": 3,
                                                "id": 3,
                                                "order": 3
                                            }
                                        ],
                                        "depth": 2,
                                        "id": 2,
                                        "order": 2
                                    },
                                    {
                                        "children": [
                                            {
                                                "children": [
                                                    {
                                                        "children": [],
                                                        "depth": 4,
                                                        "id": 7,
                                                        "order": 7
                                                    }
                                                ],
                                                "depth": 3,
                                                "id": 6,
                                                "order": 6
                                            },
                                            {
                                                "children": [
                                                    {
                                                        "children": [],
                                                        "depth": 4,
                                                        "id": 9,
                                                        "order": 9
                                                    }
                                                ],
                                                "depth": 3,
                                                "id": 8,
                                                "order": 8
                                            },
                                            {
                                                "children": [],
                                                "depth": 3,
                                                "id": 10,
                                                "order": 10
                                            }
                                        ],
                                        "depth": 2,
                                        "id": 5,
                                        "order": 5
                                    },
                                    {
                                        "children": [],
                                        "depth": 2,
                                        "id": 11,
                                        "order": 11
                                    }
                                ],
                                "depth": 1,
                                "id": 1,
                                "order": 1
                            },
                            {
                                "children": [
                                    {
                                        "children": [
                                            {
                                                "children": [],
                                                "depth": 3,
                                                "id": 15,
                                                "order": 15
                                            },
                                            {
                                                "children": [],
                                                "depth": 3,
                                                "id": 16,
                                                "order": 16
                                            }
                                        ],
                                        "depth": 2,
                                        "id": 14,
                                        "order": 14
                                    },
                                    {
                                        "children": [],
                                        "depth": 2,
                                        "id": 17,
                                        "order": 17
                                    }
                                ],
                                "depth": 1,
                                "id": 12,
                                "order": 12
                            },
                            {
                                "children": [
                                    {
                                        "children": [
                                            {
                                                "children": [],
                                                "depth": 3,
                                                "id": 21,
                                                "order": 21
                                            },
                                            {
                                                "children": [],
                                                "depth": 3,
                                                "id": 22,
                                                "order": 22
                                            }
                                        ],
                                        "depth": 2,
                                        "id": 20,
                                        "order": 20
                                    }
                                ],
                                "depth": 1,
                                "id": 18,
                                "order": 18
                            }
                        ],
                        "depth": 0,
                        "id": 0,
                        "order": 0
                    }
                ],
                "depth": -1,
                "id": -1,
                "order": -1
            }
        ],
        "tidyTraceNodeCount": 20
    },
    "state_change": {
        "stateChanges": [
            {
                "address": "0x8d132e304d697dbec65fc41fdab9cf6404e0dd1c",
                "erc": "",
                "slots": [
                    {
                        "current": "0x000000000000000000000000000000000011474940279ff9a7fac5f1d87412e9",
                        "key": "0xcf9aa24dd6aa14a6d7fbf671b912b117ade25d97209b6e083328630fe938cb10",
                        "prev": "0x00000000000000000000000000000000000bf7a8298f87639cd8d48fd206a8a6"
                    },
                    {
                        "current": "0x00000000000000000000000000000001f9cf20c52a10b7f8e593d541f46c965a",
                        "key": "0xcf9aa24dd6aa14a6d7fbf671b912b117ade25d97209b6e083328630fe938cb11",
                        "prev": "0x000000000000000000000000000000014eb90e9a61ef0c536a637e5f2dfbc60d"
                    },
                    {
                        "current": "0x0000000000000000000000000000000000000000000000000000000000000000",
                        "key": "0xcf9aa24dd6aa14a6d7fbf671b912b117ade25d97209b6e083328630fe938cb12",
                        "prev": "0x00000000000001a0f420b7541f8e4363000000000000000009f3cfa34b97e8e9"
                    }
                ],
                "storageVariables": []
            },
            {
                "address": "0xc02aaa39b223fe8d0a0e5c4f27ead9083c756cc2",
                "erc": "ERC-20",
                "slots": [
                    {
                        "current": "0x00000000000000000000000000000000000000000000000319b625f685fc43f4",
                        "key": "0xed65eb7e3e57e86a9ee42e49038c0e20b35b6b3d44bfc0398def37bf07d00ac9",
                        "prev": "0x0000000000000000000000000000000000000000000000032ebf6ef8e400d450"
                    }
                ],
                "storageVariables": [
                    {
                        "name": "balanceOf",
                        "type": "mapping(address => uint256)",
                        "value": {
                            "pairs": [
                                {
                                    "key": "0x8d132e304d697dbec65fc41fdab9cf6404e0dd1c",
                                    "value": {
                                        "current": "57192942258578277364",
                                        "prev": "58708765282681279568",
                                        "typeTag": 1
                                    }
                                }
                            ],
                            "typeTag": 4
                        }
                    }
                ]
            },
            {
                "address": "0xc36442b4a4522e871399cd717abdd847ab11fe88",
                "erc": "ERC-721",
                "slots": [
                    {
                        "current": "0x000000000000000000000000000000000011474940279ff9a7fac5f1d87412e9",
                        "key": "0x85c5a083d59fcccab4e9af4cbac2f5dd89c6046f7dce2fd2fb360a1c27ed3287",
                        "prev": "0x00000000000000000000000000000000000bf7a8298f87639cd8d48fd206a8a6"
                    },
                    {
                        "current": "0x00000000000000000000000000000001f9cf20c52a10b7f8e593d541f46c965a",
                        "key": "0x85c5a083d59fcccab4e9af4cbac2f5dd89c6046f7dce2fd2fb360a1c27ed3288",
                        "prev": "0x000000000000000000000000000000014eb90e9a61ef0c536a637e5f2dfbc60d"
                    },
                    {
                        "current": "0x0000000000000000000000000000000000000000000000000000000000000000",
                        "key": "0x85c5a083d59fcccab4e9af4cbac2f5dd89c6046f7dce2fd2fb360a1c27ed3289",
                        "prev": "0x00000000000001a0f420b7541f8e4363000000000000000009f3cfa34b97e8e9"
                    }
                ],
                "storageVariables": [
                    {
                        "name": "_positions",
                        "type": "mapping(uint256 => struct NonfungiblePositionManager.Position)",
                        "value": {
                            "pairs": [
                                {
                                    "key": "251159",
                                    "value": {
                                        "fields": [
                                            {
                                                "name": "feeGrowthInside0LastX128",
                                                "type": "uint256",
                                                "value": {
                                                    "current": "89714901187759076727073175634186985",
                                                    "prev": "62138343809688614802173614176512166",
                                                    "typeTag": 1
                                                }
                                            },
                                            {
                                                "name": "feeGrowthInside1LastX128",
                                                "type": "uint256",
                                                "value": {
                                                    "current": "672335607979173139309068473135713261146",
                                                    "prev": "444923021696171360411945655152494233101",
                                                    "typeTag": 1
                                                }
                                            },
                                            {
                                                "name": "tokensOwed0",
                                                "type": "uint128",
                                                "value": {
                                                    "current": "0",
                                                    "prev": "717145065936906473",
                                                    "typeTag": 1
                                                }
                                            },
                                            {
                                                "name": "tokensOwed1",
                                                "type": "uint128",
                                                "value": {
                                                    "current": "0",
                                                    "prev": "7691436796379617182563",
                                                    "typeTag": 1
                                                }
                                            }
                                        ],
                                        "typeTag": 3
                                    }
                                }
                            ],
                            "typeTag": 4
                        }
                    }
                ]
            },
            {
                "address": "0xc5102fe9359fd9a28f877a67e36b0f050d81a3cc",
                "erc": "ERC-20",
                "slots": [
                    {
                        "current": "0x000000000000000000000000000000000000000000022e12374aeaeb2957d5c6",
                        "key": "0x2e5da376afd4ce2f5f3e9032106458291a1efd808fbdfa5d62b3354a22dd2620",
                        "prev": "0x00000000000000000000000000000000000000000002311837abb235174c4f74"
                    },
                    {
                        "current": "0x0000000000000000000000000000000000000000000003060060c749edfcea78",
                        "key": "0x433f79ed055f783b53565a5b0fee6796f0ccd51869dc7e71fd572650634241ff",
                        "prev": "0x00000000000000000000000000000000000000000000000000000000000870ca"
                    },
                    {
                        "current": "0x000000000000000000000000000000000000000000000000000000000000028d",
                        "key": "0x39ca1456bdd1d0339585b45474ce837835f26b7714675c90a18180dd66b8f1af",
                        "prev": "0x000000000000000000000000000000000000000000000000000000000000028c"
                    },
                    {
                        "current": "0x00000000000000000000000000000000000055cbd333fc2a72f3801300e433e6",
                        "key": "0xfda614075940981430f4a28a2908110ea04a7ef6c70aef4cb1caf0380eee0388",
                        "prev": "0x0000000000000000000000000000000000000000000000000000000000000000"
                    }
                ],
                "storageVariables": [
                    {
                        "name": "_balances",
                        "type": "mapping(address => uint256)",
                        "value": {
                            "pairs": [
                                {
                                    "key": "0x8d132e304d697dbec65fc41fdab9cf6404e0dd1c",
                                    "value": {
                                        "current": "2635416523089704895632838",
                                        "prev": "2649694330243474191568756",
                                        "typeTag": 1
                                    }
                                },
                                {
                                    "key": "0xf6aaada76ea7f044ffa028565b028740dce5389f",
                                    "value": {
                                        "current": "14277807153769296489080",
                                        "prev": "553162",
                                        "typeTag": 1
                                    }
                                }
                            ],
                            "typeTag": 4
                        }
                    },
                    {
                        "name": "_checkpoints",
                        "type": "mapping(address => struct ERC20Votes.Checkpoint[])",
                        "value": {
                            "pairs": [
                                {
                                    "key": "0x193c74753e5ed222a5932cbe53624063189d842b",
                                    "value": {
                                        "elemType": "struct ERC20Votes.Checkpoint",
                                        "elems": [
                                            {
                                                "index": 652,
                                                "value": {
                                                    "fields": [
                                                        {
                                                            "name": "fromBlock",
                                                            "type": "uint32",
                                                            "value": {
                                                                "current": "14955494",
                                                                "prev": "0",
                                                                "typeTag": 1
                                                            }
                                                        },
                                                        {
                                                            "name": "votes",
                                                            "type": "uint224",
                                                            "value": {
                                                                "current": "405161058875707944566803",
                                                                "prev": "0",
                                                                "typeTag": 1
                                                            }
                                                        }
                                                    ],
                                                    "typeTag": 3
                                                }
                                            }
                                        ],
                                        "typeTag": 2
                                    }
                                }
                            ],
                            "typeTag": 4
                        }
                    }
                ]
            }
        ]
    }
}