{
    "balance_change": {
        "balanceChanges": [
            {
                "account": "0xaf8ae6955d07776ab690e565ba6fbc79b8de3a5d",
                "assets": [
                    {
                        "address": "0xa0b86991c6218b36c1d19d4a2e9eb0ce3606eb48",
                        "amount": "206.830146",
                        "iconUrl": "https://assets.blocksec.com/icon/0347a86cc07dbd03fdc5db01a4e5ac7e1217f90e0b6e4bb0f75cbcca09160989.png",
                        "isERC1155": false,
                        "isERC721": false,
                        "sign": false,
                        "value": "206.80946298540000228"
                    }
                ]
            },
            {
                "account": "0x24d697503ceda3e33c6cd9cdcf769702f32b5974",
                "assets": [
                    {
                        "address": "0xa0b86991c6218b36c1d19d4a2e9eb0ce3606eb48",
                        "amount": "206.830146",
                        "iconUrl": "https://assets.blocksec.com/icon/0347a86cc07dbd03fdc5db01a4e5ac7e1217f90e0b6e4bb0f75cbcca09160989.png",
                        "isERC1155": false,
                        "isERC721": false,
                        "sign": true,
                        "value": "206.80946298540000228"
                    }
                ]
            }
        ]
    },
    "profile": {
        "basic_info": {
            "baseFee": "4.178872364",
            "blockNumber": 19885287,
            "callData": "0x55a2ba6800000000000000000000000024d697503ceda3e33c6cd9cdcf769702f32b5974000000000000000000000000a0b86991c6218b36c1d19d4a2e9eb0ce3606eb48000000000000000000000000000000000000000000000000000000000c53fa420000000000000000000000000000000000000000000000000000000021752cda",
            "debugEnable": true,
            "errorInfo": "",
            "eventCount": 2,
            "feeRecipient": "0x95222290dd7278aa3ddd389cc1e1d165cc4bafe5",
            "formatValue": "0",
            "gasLimit": 120000,
            "gasPrice": "6.451268114",
            "gasUsed": 84621,
            "intTxnCount": 2,
            "internalRevert": false,
            "internalRevertMessage": "",
            "isContractCreation": false,
            "isFlashloan": false,
            "maxFee": "10.4045093",
            "nonce": 200354,
            "overwritedBlockNumber": -1,
            "priorityFee": "2.27239575",
            "receiver": "0xc3ca38091061e3e5358a52d74730f16c60ca9c26",
            "revertMessage": "",
            "sender": "0xaf8ae6955d07776ab690e565ba6fbc79b8de3a5d",
            "simulationEnable": true,
            "sourceTxnHash": "0x9204356ce8e240575939e939b2f2ee16d4cc066dc757c23dae2bd56bc5e20064",
            "status": true,
            "timestamp": "2024-05-16T21:41:47Z",
            "transactionFee": "0.000545912759074794",
            "txnHash": "0x9204356ce8e240575939e939b2f2ee16d4cc066dc757c23dae2bd56bc5e20064",
            "txnIndex": 20,
            "type": 2,
            "value": "0"
        },
        "fund_flow": [
            {
                "amount": "206.830146",
                "from": "0xaf8ae6955d07776ab690e565ba6fbc79b8de3a5d",
                "id": 1,
                "isERC1155": false,
                "isERC721": false,
                "isReverted": false,
                "order": 1,
                "to": "0x24d697503ceda3e33c6cd9cdcf769702f32b5974",
                "token": "0xa0b86991c6218b36c1d19d4a2e9eb0ce3606eb48"
            }
        ],
        "token_infos": [
            {
                "address": "0xa0b86991c6218b36c1d19d4a2e9eb0ce3606eb48",
                "decimals": 6
            },
            {
                "address": "0xc02aaa39b223fe8d0a0e5c4f27ead9083c756cc2",
                "decimals": 18
            },
            {
                "address": "0xeeeeeeeeeeeeeeeeeeeeeeeeeeeeeeeeeeeeeeee",
                "decimals": 18
            }
        ]
    },
    "address_label": {
        "labels": [
            {
                "address": "0xc3ca38091061e3e5358a52d74730f16c60ca9c26",
                "label": "Rhino.fi: Transfer Proxy"
            },
            {
                "address": "0xa0b86991c6218b36c1d19d4a2e9eb0ce3606eb48",
                "label": "Circle: USDC Token"
            },
            {
                "address": "0x0000000000000000000000000000000000000001",
                "label": "Precompiled"
            },
            {
                "address": "0x0000000000000000000000000000000000000002",
                "label": "Precompiled"
            },
            {
                "address": "0x0000000000000000000000000000000000000003",
                "label": "Precompiled"
            },
            {
                "address": "0x0000000000000000000000000000000000000004",
                "label": "Precompiled"
            },
            {
                "address": "0xeeeeeeeeeeeeeeeeeeeeeeeeeeeeeeeeeeeeeeee",
                "label": "Ether"
            },
            {
                "address": "0xaf8ae6955d07776ab690e565ba6fbc79b8de3a5d",
                "label": "Rhino.fi"
            },
            {
                "address": "0x43506849d7c04f9138d1a2050bbf3a0c054402dd",
                "label": "FiatTokenV2_2"
            }
        ]
    },
    "trace": {
        "accountLabels": null,
        "dataMap": {
            "-1": {
                "invocation": {
                    "address": "0xaf8ae6955d07776ab690e565ba6fbc79b8de3a5d",
                    "callData": "",
                    "decodedMethod": null,
                    "errorInfo": "",
                    "fromAddress": "",
                    "gasUsed": 0,
                    "id": -1,
                    "methodDecoded": false,
                    "operation": "",
                    "output": "",
                    "revert": false,
                    "revertMessage": "",
                    "selector": "",
                    "status": false,
                    "value": ""
                },
                "nodeType": 0
            },
            "0": {
                "invocation": {
                    "address": "0xc3ca38091061e3e5358a52d74730f16c60ca9c26",
                    "callData": "0x00000000000000000000000024d697503ceda3e33c6cd9cdcf769702f32b5974000000000000000000000000a0b86991c6218b36c1d19d4a2e9eb0ce3606eb48000000000000000000000000000000000000000000000000000000000c53fa420000000000000000000000000000000000000000000000000000000021752cda",
                    "decodedMethod": {
                        "callParams": [
                            {
                                "name": "recipient",
                                "type": "address",
                                "value": "0x24d697503ceda3e33c6cd9cdcf769702f32b5974"
                            },
                            {
                                "name": "erc20",
                                "type": "address",
                                "value": "0xa0b86991c6218b36c1d19d4a2e9eb0ce3606eb48"
                            },
                            {
                                "name": "amount",
                                "type": "uint256",
                                "value": "206,830,146"
                            },
                            {
                                "name": "salt",
                                "type": "uint256",
                                "value": "561,327,322"
                            }
                        ],
                        "constructorArguments": "",
                        "name": "transferERC20",
                        "returnParams": [],
                        "signature": "transferERC20(address,address,uint256,uint256)"
                    },
                    "errorInfo": "",
                    "fromAddress": "0xaf8ae6955d07776ab690e565ba6fbc79b8de3a5d",
                    "gasUsed": 84621,
                    "id": 0,
                    "methodDecoded": true,
                    "operation": "CALL",
                    "output": "",
                    "revert": false,
                    "revertMessage": "",
                    "selector": "0x55a2ba68",
                    "status": true,
                    "value": "0"
                },
                "nodeType": 0
            },
            "1": {
                "event": {
                    "contract": "0xc3ca38091061e3e5358a52d74730f16c60ca9c26",
                    "decodedLog": {
                        "name": "LogRegisteredTransfer",
                        "params": [
                            {
                                "name": "recipient",
                                "type": "address",
                                "value": "0x24d697503ceda3e33c6cd9cdcf769702f32b5974"
                            },
                            {
                                "name": "token",
                                "type": "address",
                                "value": "0xa0b86991c6218b36c1d19d4a2e9eb0ce3606eb48"
                            },
                            {
                                "name": "amount",
                                "type": "uint256",
                                "value": "206,830,146"
                            },
                            {
                                "name": "salt",
                                "type": "uint256",
                                "value": "561,327,322"
                            }
                        ],
                        "signature": "LogRegisteredTransfer(address,address,uint256,uint256)"
                    },
                    "id": 1,
                    "logData": "0x00000000000000000000000024d697503ceda3e33c6cd9cdcf769702f32b5974000000000000000000000000a0b86991c6218b36c1d19d4a2e9eb0ce3606eb48000000000000000000000000000000000000000000000000000000000c53fa420000000000000000000000000000000000000000000000000000000021752cda",
                    "logDecoded": true,
                    "operation": "EVENT",
                    "revert": false,
                    "status": true,
                    "topics": [
                        "0x36c96ccc320eab9b6da1de6cc1e8ebc52a51cb114710b9c7db204cdad3067ce1"
                    ]
                },
                "nodeType": 1
            },
            "2": {
                "invocation": {
                    "address": "0xa0b86991c6218b36c1d19d4a2e9eb0ce3606eb48",
                    "callData": "0x000000000000000000000000af8ae6955d07776ab690e565ba6fbc79b8de3a5d00000000000000000000000024d697503ceda3e33c6cd9cdcf769702f32b5974000000000000000000000000000000000000000000000000000000000c53fa42",
                    "decodedMethod": {
                        "callParams": [
                            {
                                "name": "from",
                                "type": "address",
                                "value": "0xaf8ae6955d07776ab690e565ba6fbc79b8de3a5d"
                            },
                            {
                                "name": "to",
                                "type": "address",
                                "value": "0x24d697503ceda3e33c6cd9cdcf769702f32b5974"
                            },
                            {
                                "decimalAvailable": true,
                                "name": "value",
                                "type": "uint256",
                                "value": "206,830,146"
                            }
                        ],
                        "constructorArguments": "",
                        "name": "transferFrom",
                        "returnParams": [
                            {
                                "name": "",
                                "type": "bool",
                                "value": true
                            }
                        ],
                        "signature": "transferFrom(address,address,uint256)"
                    },
                    "errorInfo": "",
                    "fromAddress": "0xc3ca38091061e3e5358a52d74730f16c60ca9c26",
                    "gasUsed": 31449,
                    "id": 2,
                    "methodDecoded": true,
                    "operation": "CALL",
                    "output": "0x0000000000000000000000000000000000000000000000000000000000000001",
                    "revert": false,
                    "revertMessage": "",
                    "selector": "0x23b872dd",
                    "status": true,
                    "value": "0"
                },
                "nodeType": 0
            },
            "3": {
                "invocation": {
                    "address": "0x43506849d7c04f9138d1a2050bbf3a0c054402dd",
                    "callData": "0x000000000000000000000000af8ae6955d07776ab690e565ba6fbc79b8de3a5d00000000000000000000000024d697503ceda3e33c6cd9cdcf769702f32b5974000000000000000000000000000000000000000000000000000000000c53fa42",
                    "decodedMethod": {
                        "callParams": [
                            {
                                "name": "from",
                                "type": "address",
                                "value": "0xaf8ae6955d07776ab690e565ba6fbc79b8de3a5d"
                            },
                            {
                                "name": "to",
                                "type": "address",
                                "value": "0x24d697503ceda3e33c6cd9cdcf769702f32b5974"
                            },
                            {
                                "decimalAvailable": true,
                                "name": "value",
                                "type": "uint256",
                                "value": "206,830,146"
                            }
                        ],
                        "constructorArguments": "",
                        "name": "transferFrom",
                        "returnParams": [
                            {
                                "name": "",
                                "type": "bool",
                                "value": true
                            }
                        ],
                        "signature": "transferFrom(address,address,uint256)"
                    },
                    "errorInfo": "",
                    "fromAddress": "0xa0b86991c6218b36c1d19d4a2e9eb0ce3606eb48",
                    "gasUsed": 24154,
                    "id": 3,
                    "methodDecoded": true,
                    "operation": "DELEGATECALL",
                    "output": "0x0000000000000000000000000000000000000000000000000000000000000001",
                    "revert": false,
                    "revertMessage": "",
                    "selector": "0x23b872dd",
                    "status": true,
                    "value": "0"
                },
                "nodeType": 0
            },
            "4": {
                "event": {
                    "contract": "0xa0b86991c6218b36c1d19d4a2e9eb0ce3606eb48",
                    "decodedLog": {
                        "name": "Transfer",
                        "params": [
                            {
                                "name": "from",
                                "type": "address",
                                "value": "0xaf8ae6955d07776ab690e565ba6fbc79b8de3a5d"
                            },
                            {
                                "name": "to",
                                "type": "address",
                                "value": "0x24d697503ceda3e33c6cd9cdcf769702f32b5974"
                            },
                            {
                                "decimalAvailable": true,
                                "name": "value",
                                "type": "uint256",
                                "value": "206,830,146"
                            }
                        ],
                        "signature": "Transfer(address,address,uint256)"
                    },
                    "id": 4,
                    "logData": "0x000000000000000000000000000000000000000000000000000000000c53fa42",
                    "logDecoded": true,
                    "operation": "EVENT",
                    "revert": false,
                    "status": true,
                    "topics": [
                        "0xddf252ad1be2c89b69c2b068fc378daa952ba7f163c4a11628f55a4df523b3ef",
                        "0x000000000000000000000000af8ae6955d07776ab690e565ba6fbc79b8de3a5d",
                        "0x00000000000000000000000024d697503ceda3e33c6cd9cdcf769702f32b5974"
                    ]
                },
                "nodeType": 1
            }
        },
        "gasFlame": [
            {
                "children": [
                    {
                        "children": [
                            {
                                "children": [],
                                "depth": 0,
                                "name": "Initial Gas",
                                "value": 22152
                            },
                            {
                                "children": [
                                    {
                                        "children": [
                                            {
                                                "children": [],
                                                "depth": 2,
                                                "name": "transferFrom",
                                                "value": 24154
                                            }
                                        ],
                                        "depth": 1,
                                        "name": "transferFrom",
                                        "value": 31449
                                    }
                                ],
                                "depth": 0,
                                "name": "Executed Gas",
                                "value": 62469
                            }
                        ],
                        "depth": -1,
                        "name": "Actual Gas Used",
                        "value": 84621
                    },
                    {
                        "children": [],
                        "depth": -1,
                        "name": "Refunded Gas",
                        "value": 0
                    }
                ],
                "depth": -2,
                "name": "Total Gas",
                "value": 84621
            }
        ],
        "isConfirmed": true,
        "mainTrace": [
            {
                "children": [
                    {
                        "children": [
                            {
                                "children": [],
                                "depth": 1,
                                "id": 1,
                                "order": 1
                            },
                            {
                                "children": [
                                    {
                                        "children": [
                                            {
                                                "children": [],
                                                "depth": 3,
                                                "id": 4,
                                                "order": 4
                                            }
                                        ],
                                        "depth": 2,
                                        "id": 3,
                                        "order": 3
                                    }
                                ],
                                "depth": 1,
                                "id": 2,
                                "order": 2
                            }
                        ],
                        "depth": 0,
                        "id": 0,
                        "order": 0
                    }
                ],
                "depth": -1,
                "id": -1,
                "order": -1
            }
        ],
        "mainTraceNodeCount": 5,
        "parentIdMap": {
            "0": -1,
            "1": 0,
            "2": 0,
            "3": 2,
            "4": 3
        },
        "tidyTrace": [
            {
                "children": [
                    {
                        "children": [
                            {
                                "children": [],
                                "depth": 1,
                                "id": 1,
                                "order": 1
                            },
                            {
                                "children": [
                                    {
                                        "children": [
                                            {
                                                "children": [],
                                                "depth": 3,
                                                "id": 4,
                                                "order": 4
                                            }
                                        ],
                                        "depth": 2,
                                        "id": 3,
                                        "order": 3
                                    }
                                ],
                                "depth": 1,
                                "id": 2,
                                "order": 2
                            }
                        ],
                        "depth": 0,
                        "id": 0,
                        "order": 0
                    }
                ],
                "depth": -1,
                "id": -1,
                "order": -1
            }
        ],
        "tidyTraceNodeCount": 5
    },
    "state_change": {
        "stateChanges": [
            {
                "address": "0xa0b86991c6218b36c1d19d4a2e9eb0ce3606eb48",
                "erc": "ERC-20",
                "slots": [
                    {
                        "current": "0x0000000000000000000000000000000000000000000000000000001e41571679",
                        "key": "0x5a7c1775d4452f27ab73d29da79e711682e4e8401dbc74501422ef379f33f06d",
                        "prev": "0x0000000000000000000000000000000000000000000000000000001e4dab10bb"
                    },
                    {
                        "current": "0x000000000000000000000000000000000000000000000000000000000d50814c",
                        "key": "0xbf9515b9d132a230b0431b6245f3e4130c02b7b7c2d3689111dfe158d876a3c5",
                        "prev": "0x0000000000000000000000000000000000000000000000000000000000fc870a"
                    },
                    {
                        "current": "0x0000000000000000000000000000000000000000ffffffffffffd5cd75e6679e",
                        "key": "0x940b1fefad042db0a64b2d073aa21f552409caef7558e20b0fd6a360541134d4",
                        "prev": "0x0000000000000000000000000000000000000000ffffffffffffd5cd823a61e0"
                    }
                ],
                "storageVariables": [
                    {
                        "name": "balanceAndBlacklistStates",
                        "type": "mapping(address => uint256)",
                        "value": {
                            "pairs": [
                                {
                                    "key": "0x24d697503ceda3e33c6cd9cdcf769702f32b5974",
                                    "value": {
                                        "current": "223379788",
                                        "prev": "16549642",
                                        "typeTag": 1
                                    }
                                },
                                {
                                    "key": "0xaf8ae6955d07776ab690e565ba6fbc79b8de3a5d",
                                    "value": {
                                        "current": "129945245305",
                                        "prev": "130152075451",
                                        "typeTag": 1
                                    }
                                }
                            ],
                            "typeTag": 4
                        }
                    },
                    {
                        "name": "allowed",
                        "type": "mapping(address => mapping(address => uint256))",
                        "value": {
                            "pairs": [
                                {
                                    "key": "0xaf8ae6955d07776ab690e565ba6fbc79b8de3a5d",
                                    "value": {
                                        "pairs": [
                                            {
                                                "key": "0xc3ca38091061e3e5358a52d74730f16c60ca9c26",
                                                "value": {
                                                    "current": "79228162514264291196990285726",
                                                    "prev": "79228162514264291197197115872",
                                                    "typeTag": 1
                                                }
                                            }
                                        ],
                                        "typeTag": 4
                                    }
                                }
                            ],
                            "typeTag": 4
                        }
                    }
                ]
            },
            {
                "address": "0xc3ca38091061e3e5358a52d74730f16c60ca9c26",
                "erc": "",
                "slots": [
                    {
                        "current": "0x0000000000000000000000000000000000000000000000000000000000000001",
                        "key": "0x489fbdfc7fe31201d8fa66999e4aa03697daa906cf5b0b46e2685207901a4874",
                        "prev": "0x0000000000000000000000000000000000000000000000000000000000000000"
                    }
                ],
                "storageVariables": [
                    {
                        "name": "verifiedFact",
                        "type": "mapping(bytes32 => bool)",
                        "value": {
                            "pairs": [
                                {
                                    "key": "0xf77c23da623a4f138c28c02c3a074b003abfdb48db58b46e8c26c31a7fbb7658",
                                    "value": {
                                        "current": "true",
                                        "prev": "false",
                                        "typeTag": 1
                                    }
                                }
                            ],
                            "typeTag": 4
                        }
                    }
                ]
            }
        ]
    }
}