{
    "balance_change": {
        "balanceChanges": []
    },
    "profile": {
        "basic_info": {
            "baseFee": "18.409763514",
            "blockNumber": 17983778,
            "callData": "0x5e05b33c000000000000000000000000a28e76149d03aa311fef87c81bc0a26d5bf2098a0000000000000000000000007c85e71681ff1d35778eb21cf09c629b465b49a8000000000000000000000000acf63e56fd08970b43401492a02f6f38b6635c9100000000000000000000000000000000000000000000000000000000000019e900000000000000000000000000000000000000000000000004fefa17b72400000000000000000000000000000000000000000000000000000000000064e5d5f300000000000000000000000000000000000000000000000000000000000000000000000000000000000000000000000000000000000000000000000000000000000000000000000000000000000000000000000000000000000000000000232800000000000000000000000000000000000000000000000000000000000112e6",
            "debugEnable": true,
            "errorInfo": "",
            "eventCount": 1,
            "feeRecipient": "0x3bee5122e2a2fbe11287aafb0cb918e22abb5436",
            "formatValue": "0",
            "gasLimit": 38942,
            "gasPrice": "18.509763514",
            "gasUsed": 37696,
            "intTxnCount": 1,
            "internalRevert": false,
            "internalRevertMessage": "",
            "isContractCreation": false,
            "isFlashloan": false,
            "maxFee": "22.91502948",
            "nonce": 108,
            "overwritedBlockNumber": -1,
            "priorityFee": "0.1",
            "receiver": "0x29469395eaf6f95920e59f858042f0e28d98a20b",
            "revertMessage": "",
            "sender": "0xa28e76149d03aa311fef87c81bc0a26d5bf2098a",
            "simulationEnable": true,
            "sourceTxnHash": "0x924296cca6e18a7e0b9ba853abfe153e16272925c1809148f1ff7ed16fb648fb",
            "status": true,
            "timestamp": "2023-08-24T09:50:35Z",
            "transactionFee": "0.000697744045423744",
            "txnHash": "0x924296cca6e18a7e0b9ba853abfe153e16272925c1809148f1ff7ed16fb648fb",
            "txnIndex": 107,
            "type": 2,
            "value": "0"
        },
        "fund_flow": [],
        "token_infos": [
            {
                "address": "0xc02aaa39b223fe8d0a0e5c4f27ead9083c756cc2",
                "decimals": 18
            },
            {
                "address": "0xeeeeeeeeeeeeeeeeeeeeeeeeeeeeeeeeeeeeeeee",
                "decimals": 18
            }
        ]
    },
    "address_label": {
        "labels": [
            {
                "address": "0xacf63e56fd08970b43401492a02f6f38b6635c91",
                "label": "Kanpai Pandas: YKPS Token"
            },
            {
                "address": "0xb258ca5559b11cd702f363796522b04d7722ea56",
                "label": "Blend"
            },
            {
                "address": "0x0000000000000000000000000000000000000001",
                "label": "Precompiled"
            },
            {
                "address": "0x0000000000000000000000000000000000000002",
                "label": "Precompiled"
            },
            {
                "address": "0x0000000000000000000000000000000000000003",
                "label": "Precompiled"
            },
            {
                "address": "0x0000000000000000000000000000000000000004",
                "label": "Precompiled"
            },
            {
                "address": "0xeeeeeeeeeeeeeeeeeeeeeeeeeeeeeeeeeeeeeeee",
                "label": "Ether"
            },
            {
                "address": "0x29469395eaf6f95920e59f858042f0e28d98a20b",
                "label": "Blur: Blend"
            }
        ]
    },
    "trace": {
        "accountLabels": null,
        "dataMap": {
            "-1": {
                "invocation": {
                    "address": "0xa28e76149d03aa311fef87c81bc0a26d5bf2098a",
                    "callData": "",
                    "decodedMethod": null,
                    "errorInfo": "",
                    "fromAddress": "",
                    "gasUsed": 0,
                    "id": -1,
                    "methodDecoded": false,
                    "operation": "",
                    "output": "",
                    "revert": false,
                    "revertMessage": "",
                    "selector": "",
                    "status": false,
                    "value": ""
                },
                "nodeType": 0
            },
            "0": {
                "invocation": {
                    "address": "0x29469395eaf6f95920e59f858042f0e28d98a20b",
                    "callData": "0x000000000000000000000000a28e76149d03aa311fef87c81bc0a26d5bf2098a0000000000000000000000007c85e71681ff1d35778eb21cf09c629b465b49a8000000000000000000000000acf63e56fd08970b43401492a02f6f38b6635c9100000000000000000000000000000000000000000000000000000000000019e900000000000000000000000000000000000000000000000004fefa17b72400000000000000000000000000000000000000000000000000000000000064e5d5f300000000000000000000000000000000000000000000000000000000000000000000000000000000000000000000000000000000000000000000000000000000000000000000000000000000000000000000000000000000000000000000232800000000000000000000000000000000000000000000000000000000000112e6",
                    "decodedMethod": {
                        "callParams": [
                            {
                                "name": "lien",
                                "type": "(address,address,address,uint256,uint256,uint256,uint256,uint256,uint256)",
                                "value": [
                                    {
                                        "name": "lender",
                                        "type": "address",
                                        "value": "0xa28e76149d03aa311fef87c81bc0a26d5bf2098a"
                                    },
                                    {
                                        "name": "borrower",
                                        "type": "address",
                                        "value": "0x7c85e71681ff1d35778eb21cf09c629b465b49a8"
                                    },
                                    {
                                        "name": "collection",
                                        "type": "address",
                                        "value": "0xacf63e56fd08970b43401492a02f6f38b6635c91"
                                    },
                                    {
                                        "name": "tokenId",
                                        "type": "uint256",
                                        "value": "6,633"
                                    },
                                    {
                                        "name": "amount",
                                        "type": "uint256",
                                        "value": "360,000,000,000,000,000"
                                    },
                                    {
                                        "name": "startTime",
                                        "type": "uint256",
                                        "value": "1,692,784,115"
                                    },
                                    {
                                        "name": "rate",
                                        "type": "uint256",
                                        "value": "0"
                                    },
                                    {
                                        "name": "auctionStartBlock",
                                        "type": "uint256",
                                        "value": "0"
                                    },
                                    {
                                        "name": "auctionDuration",
                                        "type": "uint256",
                                        "value": "9,000"
                                    }
                                ]
                            },
                            {
                                "name": "lienId",
                                "type": "uint256",
                                "value": "70,374"
                            }
                        ],
                        "constructorArguments": "",
                        "name": "startAuction",
                        "returnParams": [],
                        "signature": "startAuction((address,address,address,uint256,uint256,uint256,uint256,uint256,uint256),uint256)"
                    },
                    "errorInfo": "",
                    "fromAddress": "0xa28e76149d03aa311fef87c81bc0a26d5bf2098a",
                    "gasUsed": 37696,
                    "id": 0,
                    "methodDecoded": true,
                    "operation": "CALL",
                    "output": "",
                    "revert": false,
                    "revertMessage": "",
                    "selector": "0x5e05b33c",
                    "status": true,
                    "value": "0"
                },
                "nodeType": 0
            },
            "1": {
                "invocation": {
                    "address": "0xb258ca5559b11cd702f363796522b04d7722ea56",
                    "callData": "0x000000000000000000000000a28e76149d03aa311fef87c81bc0a26d5bf2098a0000000000000000000000007c85e71681ff1d35778eb21cf09c629b465b49a8000000000000000000000000acf63e56fd08970b43401492a02f6f38b6635c9100000000000000000000000000000000000000000000000000000000000019e900000000000000000000000000000000000000000000000004fefa17b72400000000000000000000000000000000000000000000000000000000000064e5d5f300000000000000000000000000000000000000000000000000000000000000000000000000000000000000000000000000000000000000000000000000000000000000000000000000000000000000000000000000000000000000000000232800000000000000000000000000000000000000000000000000000000000112e6",
                    "decodedMethod": {
                        "callParams": [
                            {
                                "name": "lien",
                                "type": "(address,address,address,uint256,uint256,uint256,uint256,uint256,uint256)",
                                "value": [
                                    {
                                        "name": "lender",
                                        "type": "address",
                                        "value": "0xa28e76149d03aa311fef87c81bc0a26d5bf2098a"
                                    },
                                    {
                                        "name": "borrower",
                                        "type": "address",
                                        "value": "0x7c85e71681ff1d35778eb21cf09c629b465b49a8"
                                    },
                                    {
                                        "name": "collection",
                                        "type": "address",
                                        "value": "0xacf63e56fd08970b43401492a02f6f38b6635c91"
                                    },
                                    {
                                        "name": "tokenId",
                                        "type": "uint256",
                                        "value": "6,633"
                                    },
                                    {
                                        "name": "amount",
                                        "type": "uint256",
                                        "value": "360,000,000,000,000,000"
                                    },
                                    {
                                        "name": "startTime",
                                        "type": "uint256",
                                        "value": "1,692,784,115"
                                    },
                                    {
                                        "name": "rate",
                                        "type": "uint256",
                                        "value": "0"
                                    },
                                    {
                                        "name": "auctionStartBlock",
                                        "type": "uint256",
                                        "value": "0"
                                    },
                                    {
                                        "name": "auctionDuration",
                                        "type": "uint256",
                                        "value": "9,000"
                                    }
                                ]
                            },
                            {
                                "name": "lienId",
                                "type": "uint256",
                                "value": "70,374"
                            }
                        ],
                        "constructorArguments": "",
                        "name": "startAuction",
                        "returnParams": [],
                        "signature": "startAuction((address,address,address,uint256,uint256,uint256,uint256,uint256,uint256),uint256)"
                    },
                    "errorInfo": "",
                    "fromAddress": "0x29469395eaf6f95920e59f858042f0e28d98a20b",
                    "gasUsed": 9482,
                    "id": 1,
                    "methodDecoded": true,
                    "operation": "DELEGATECALL",
                    "output": "",
                    "revert": false,
                    "revertMessage": "",
                    "selector": "0x5e05b33c",
                    "status": true,
                    "value": "0"
                },
                "nodeType": 0
            },
            "2": {
                "event": {
                    "contract": "0x29469395eaf6f95920e59f858042f0e28d98a20b",
                    "decodedLog": {
                        "name": "StartAuction",
                        "params": [
                            {
                                "name": "loanId",
                                "type": "uint256",
                                "value": "70,374"
                            },
                            {
                                "name": "collateral",
                                "type": "address",
                                "value": "0xacf63e56fd08970b43401492a02f6f38b6635c91"
                            }
                        ],
                        "signature": "StartAuction(uint256,address)"
                    },
                    "id": 2,
                    "logData": "0x00000000000000000000000000000000000000000000000000000000000112e6000000000000000000000000acf63e56fd08970b43401492a02f6f38b6635c91",
                    "logDecoded": true,
                    "operation": "EVENT",
                    "revert": false,
                    "status": true,
                    "topics": [
                        "0xe5095dc360d1a56740c946cccc76520c1a1a57381c950520062adeda68dbf572"
                    ]
                },
                "nodeType": 1
            }
        },
        "gasFlame": [
            {
                "children": [
                    {
                        "children": [
                            {
                                "children": [],
                                "depth": 0,
                                "name": "Initial Gas",
                                "value": 23268
                            },
                            {
                                "children": [
                                    {
                                        "children": [],
                                        "depth": 1,
                                        "name": "startAuction",
                                        "value": 9482
                                    }
                                ],
                                "depth": 0,
                                "name": "Executed Gas",
                                "value": 14428
                            }
                        ],
                        "depth": -1,
                        "name": "Actual Gas Used",
                        "value": 37696
                    },
                    {
                        "children": [],
                        "depth": -1,
                        "name": "Refunded Gas",
                        "value": 0
                    }
                ],
                "depth": -2,
                "name": "Total Gas",
                "value": 37696
            }
        ],
        "isConfirmed": true,
        "mainTrace": [
            {
                "children": [
                    {
                        "children": [
                            {
                                "children": [
                                    {
                                        "children": [],
                                        "depth": 2,
                                        "id": 2,
                                        "order": 2
                                    }
                                ],
                                "depth": 1,
                                "id": 1,
                                "order": 1
                            }
                        ],
                        "depth": 0,
                        "id": 0,
                        "order": 0
                    }
                ],
                "depth": -1,
                "id": -1,
                "order": -1
            }
        ],
        "mainTraceNodeCount": 3,
        "parentIdMap": {
            "0": -1,
            "1": 0,
            "2": 1
        },
        "tidyTrace": [
            {
                "children": [
                    {
                        "children": [
                            {
                                "children": [
                                    {
                                        "children": [],
                                        "depth": 2,
                                        "id": 2,
                                        "order": 2
                                    }
                                ],
                                "depth": 1,
                                "id": 1,
                                "order": 1
                            }
                        ],
                        "depth": 0,
                        "id": 0,
                        "order": 0
                    }
                ],
                "depth": -1,
                "id": -1,
                "order": -1
            }
        ],
        "tidyTraceNodeCount": 3
    },
    "state_change": {
        "stateChanges": [
            {
                "address": "0x29469395eaf6f95920e59f858042f0e28d98a20b",
                "erc": "",
                "slots": [
                    {
                        "current": "0x46b3b7b02f45b209239b605b8080d8060c1117b89c3366aa82233eefd4568689",
                        "key": "0xfff3de7b00215d256ad8544d6df5b72318333f4dee7218fc9d9eec5c6a1e8fa8",
                        "prev": "0xd570c64750f8fc498dcea555df10e1b1d726f8e8d0a06f31e64da51d9d1a1e3d"
                    }
                ],
                "storageVariables": [
                    {
                        "name": "liens",
                        "type": "mapping(uint256 => bytes32)",
                        "value": {
                            "pairs": [
                                {
                                    "key": "70374",
                                    "value": {
                                        "current": "0x46b3b7b02f45b209239b605b8080d8060c1117b89c3366aa82233eefd4568689",
                                        "prev": "0xd570c64750f8fc498dcea555df10e1b1d726f8e8d0a06f31e64da51d9d1a1e3d",
                                        "typeTag": 1
                                    }
                                }
                            ],
                            "typeTag": 4
                        }
                    }
                ]
            }
        ]
    }
}