{
    "balance_change": {
        "balanceChanges": [
            {
                "account": "0x274f3c32c90517975e29dfc209a23f315c1e5fc7",
                "assets": [
                    {
                        "address": "0xd99b8a7fa48e25cce83b81812220a3e03bf64e5f",
                        "amount": "3,206.657900000000344064",
                        "iconUrl": "",
                        "isERC1155": false,
                        "isERC721": false,
                        "sign": false,
                        "value": ""
                    }
                ]
            },
            {
                "account": "0x95debfbd9ca1ffd4f3132e4e4c0bfaec794c01a0",
                "assets": [
                    {
                        "address": "0xd99b8a7fa48e25cce83b81812220a3e03bf64e5f",
                        "amount": "3,206.657900000000344064",
                        "iconUrl": "",
                        "isERC1155": false,
                        "isERC721": false,
                        "sign": true,
                        "value": ""
                    }
                ]
            }
        ]
    },
    "profile": {
        "basic_info": {
            "baseFee": "",
            "blockNumber": 5598938,
            "callData": "0xa9059cbb00000000000000000000000095debfbd9ca1ffd4f3132e4e4c0bfaec794c01a00000000000000000000000000000000000000000000000add5516272c4180000",
            "debugEnable": true,
            "errorInfo": "",
            "eventCount": 1,
            "feeRecipient": "0x52e44f279f4203dcf680395379e5f9990a69f13c",
            "formatValue": "0",
            "gasLimit": 52351,
            "gasPrice": "20",
            "gasUsed": 52351,
            "intTxnCount": 0,
            "internalRevert": false,
            "internalRevertMessage": "",
            "isContractCreation": false,
            "isFlashloan": false,
            "maxFee": "",
            "nonce": 4030,
            "overwritedBlockNumber": -1,
            "priorityFee": "",
            "receiver": "0xd99b8a7fa48e25cce83b81812220a3e03bf64e5f",
            "revertMessage": "",
            "sender": "0x274f3c32c90517975e29dfc209a23f315c1e5fc7",
            "simulationEnable": true,
            "sourceTxnHash": "0x922d6ceab12d12e1166858936c69860dc92dc975c8e0c7f8fc15d1f0a804c789",
            "status": true,
            "timestamp": "2018-05-12T05:00:49Z",
            "transactionFee": "0.00104702",
            "txnHash": "0x922d6ceab12d12e1166858936c69860dc92dc975c8e0c7f8fc15d1f0a804c789",
            "txnIndex": 58,
            "type": 0,
            "value": "0"
        },
        "fund_flow": [
            {
                "amount": "3,206.657900000000344064",
                "from": "0x274f3c32c90517975e29dfc209a23f315c1e5fc7",
                "id": 1,
                "isERC1155": false,
                "isERC721": false,
                "isReverted": false,
                "order": 1,
                "to": "0x95debfbd9ca1ffd4f3132e4e4c0bfaec794c01a0",
                "token": "0xd99b8a7fa48e25cce83b81812220a3e03bf64e5f"
            }
        ],
        "token_infos": [
            {
                "address": "0xd99b8a7fa48e25cce83b81812220a3e03bf64e5f",
                "decimals": 18
            },
            {
                "address": "0xeeeeeeeeeeeeeeeeeeeeeeeeeeeeeeeeeeeeeeee",
                "decimals": 18
            },
            {
                "address": "0xc02aaa39b223fe8d0a0e5c4f27ead9083c756cc2",
                "decimals": 18
            }
        ]
    },
    "address_label": {
        "labels": [
            {
                "address": "0x0000000000000000000000000000000000000002",
                "label": "Precompiled"
            },
            {
                "address": "0x0000000000000000000000000000000000000003",
                "label": "Precompiled"
            },
            {
                "address": "0x0000000000000000000000000000000000000004",
                "label": "Precompiled"
            },
            {
                "address": "0xeeeeeeeeeeeeeeeeeeeeeeeeeeeeeeeeeeeeeeee",
                "label": "Ether"
            },
            {
                "address": "0x274f3c32c90517975e29dfc209a23f315c1e5fc7",
                "label": "Hotbit"
            },
            {
                "address": "0xd99b8a7fa48e25cce83b81812220a3e03bf64e5f",
                "label": "Skrumble Token (SKM)"
            },
            {
                "address": "0x0000000000000000000000000000000000000001",
                "label": "Precompiled"
            }
        ]
    },
    "trace": {
        "accountLabels": null,
        "dataMap": {
            "-1": {
                "invocation": {
                    "address": "0x274f3c32c90517975e29dfc209a23f315c1e5fc7",
                    "callData": "",
                    "decodedMethod": null,
                    "errorInfo": "",
                    "fromAddress": "",
                    "gasUsed": 0,
                    "id": -1,
                    "methodDecoded": false,
                    "operation": "",
                    "output": "",
                    "revert": false,
                    "revertMessage": "",
                    "selector": "",
                    "status": false,
                    "value": ""
                },
                "nodeType": 0
            },
            "0": {
                "invocation": {
                    "address": "0xd99b8a7fa48e25cce83b81812220a3e03bf64e5f",
                    "callData": "0x00000000000000000000000095debfbd9ca1ffd4f3132e4e4c0bfaec794c01a00000000000000000000000000000000000000000000000add5516272c4180000",
                    "decodedMethod": {
                        "callParams": [
                            {
                                "name": "_to",
                                "type": "address",
                                "value": "0x95debfbd9ca1ffd4f3132e4e4c0bfaec794c01a0"
                            },
                            {
                                "decimalAvailable": true,
                                "name": "_value",
                                "type": "uint256",
                                "value": "3,206,657,900,000,000,344,064"
                            }
                        ],
                        "constructorArguments": "",
                        "name": "transfer",
                        "returnParams": [
                            {
                                "name": "",
                                "type": "bool",
                                "value": true
                            }
                        ],
                        "signature": "transfer(address,uint256)"
                    },
                    "errorInfo": "",
                    "fromAddress": "0x274f3c32c90517975e29dfc209a23f315c1e5fc7",
                    "gasUsed": 52351,
                    "id": 0,
                    "methodDecoded": true,
                    "operation": "CALL",
                    "output": "0x0000000000000000000000000000000000000000000000000000000000000001",
                    "revert": false,
                    "revertMessage": "",
                    "selector": "0xa9059cbb",
                    "status": true,
                    "value": "0"
                },
                "nodeType": 0
            },
            "1": {
                "event": {
                    "contract": "0xd99b8a7fa48e25cce83b81812220a3e03bf64e5f",
                    "decodedLog": {
                        "name": "Transfer",
                        "params": [
                            {
                                "name": "from",
                                "type": "address",
                                "value": "0x274f3c32c90517975e29dfc209a23f315c1e5fc7"
                            },
                            {
                                "name": "to",
                                "type": "address",
                                "value": "0x95debfbd9ca1ffd4f3132e4e4c0bfaec794c01a0"
                            },
                            {
                                "decimalAvailable": true,
                                "name": "value",
                                "type": "uint256",
                                "value": "3,206,657,900,000,000,344,064"
                            }
                        ],
                        "signature": "Transfer(address,address,uint256)"
                    },
                    "id": 1,
                    "logData": "0x0000000000000000000000000000000000000000000000add5516272c4180000",
                    "logDecoded": true,
                    "operation": "EVENT",
                    "revert": false,
                    "status": true,
                    "topics": [
                        "0xddf252ad1be2c89b69c2b068fc378daa952ba7f163c4a11628f55a4df523b3ef",
                        "0x000000000000000000000000274f3c32c90517975e29dfc209a23f315c1e5fc7",
                        "0x00000000000000000000000095debfbd9ca1ffd4f3132e4e4c0bfaec794c01a0"
                    ]
                },
                "nodeType": 1
            }
        },
        "gasFlame": [
            {
                "children": [
                    {
                        "children": [
                            {
                                "children": [],
                                "depth": 0,
                                "name": "Initial Gas",
                                "value": 23256
                            },
                            {
                                "children": [],
                                "depth": 0,
                                "name": "Executed Gas",
                                "value": 29095
                            }
                        ],
                        "depth": -1,
                        "name": "Actual Gas Used",
                        "value": 52351
                    },
                    {
                        "children": [],
                        "depth": -1,
                        "name": "Refunded Gas",
                        "value": 0
                    }
                ],
                "depth": -2,
                "name": "Total Gas",
                "value": 52351
            }
        ],
        "isConfirmed": true,
        "mainTrace": [
            {
                "children": [
                    {
                        "children": [
                            {
                                "children": [],
                                "depth": 1,
                                "id": 1,
                                "order": 1
                            }
                        ],
                        "depth": 0,
                        "id": 0,
                        "order": 0
                    }
                ],
                "depth": -1,
                "id": -1,
                "order": -1
            }
        ],
        "mainTraceNodeCount": 2,
        "parentIdMap": {
            "0": -1,
            "1": 0
        },
        "tidyTrace": [
            {
                "children": [
                    {
                        "children": [
                            {
                                "children": [],
                                "depth": 1,
                                "id": 1,
                                "order": 1
                            }
                        ],
                        "depth": 0,
                        "id": 0,
                        "order": 0
                    }
                ],
                "depth": -1,
                "id": -1,
                "order": -1
            }
        ],
        "tidyTraceNodeCount": 2
    },
    "state_change": {
        "stateChanges": [
            {
                "address": "0xd99b8a7fa48e25cce83b81812220a3e03bf64e5f",
                "erc": "ERC-20",
                "slots": [
                    {
                        "current": "0x000000000000000000000000000000000000000000022e415531917b3d7e9ee4",
                        "key": "0x4485cbc32287b26a47a316e3c41b8140596436c063b400bf2f70a88f91421b2e",
                        "prev": "0x000000000000000000000000000000000000000000022eef2a82f3ee01969ee4"
                    },
                    {
                        "current": "0x0000000000000000000000000000000000000000000000add5516272c4180000",
                        "key": "0x1abaefa16800a9cdd4393ace8ca01ab08d95a7b92ed1777ad04fe25dd658a49b",
                        "prev": "0x0000000000000000000000000000000000000000000000000000000000000000"
                    }
                ],
                "storageVariables": [
                    {
                        "name": "balances",
                        "type": "mapping(address => uint256)",
                        "value": {
                            "pairs": [
                                {
                                    "key": "0x274f3c32c90517975e29dfc209a23f315c1e5fc7",
                                    "value": {
                                        "current": "2636285674653778731507428",
                                        "prev": "2639492332553778731851492",
                                        "typeTag": 1
                                    }
                                },
                                {
                                    "key": "0x95debfbd9ca1ffd4f3132e4e4c0bfaec794c01a0",
                                    "value": {
                                        "current": "3206657900000000344064",
                                        "prev": "0",
                                        "typeTag": 1
                                    }
                                }
                            ],
                            "typeTag": 4
                        }
                    }
                ]
            }
        ]
    }
}