{
    "balance_change": {
        "balanceChanges": [
            {
                "account": "0xaff4ebff40a5575d57e5f6edf9f63f961a2ad5c7",
                "assets": [
                    {
                        "address": "0xf8c8c211e976cf65ec8f01b7c70021a3b8bf5575",
                        "amount": "476.31",
                        "iconUrl": "",
                        "isERC1155": false,
                        "isERC721": false,
                        "sign": false,
                        "value": ""
                    }
                ]
            },
            {
                "account": "0x17b1a39ddfb636f2cea132802cd15df94121165c",
                "assets": [
                    {
                        "address": "0xf8c8c211e976cf65ec8f01b7c70021a3b8bf5575",
                        "amount": "476.31",
                        "iconUrl": "",
                        "isERC1155": false,
                        "isERC721": false,
                        "sign": true,
                        "value": ""
                    }
                ]
            }
        ]
    },
    "profile": {
        "basic_info": {
            "baseFee": "",
            "blockNumber": 7685386,
            "callData": "0xa9059cbb00000000000000000000000017b1a39ddfb636f2cea132802cd15df94121165c000000000000000000000000000000000000000000000019d2210d66c64f0000",
            "debugEnable": true,
            "errorInfo": "",
            "eventCount": 1,
            "feeRecipient": "0xea674fdde714fd979de3edf0f56aa9716b898ec8",
            "formatValue": "0",
            "gasLimit": 51925,
            "gasPrice": "8",
            "gasUsed": 51925,
            "intTxnCount": 0,
            "internalRevert": false,
            "internalRevertMessage": "",
            "isContractCreation": false,
            "isFlashloan": false,
            "maxFee": "",
            "nonce": 4376,
            "overwritedBlockNumber": -1,
            "priorityFee": "",
            "receiver": "0xf8c8c211e976cf65ec8f01b7c70021a3b8bf5575",
            "revertMessage": "",
            "sender": "0xaff4ebff40a5575d57e5f6edf9f63f961a2ad5c7",
            "simulationEnable": true,
            "sourceTxnHash": "0x932f766c64e6ccddcf847f9ceafd02a932407d81cd402c8ee4077b21d808d8a1",
            "status": true,
            "timestamp": "2019-05-03T02:25:23Z",
            "transactionFee": "0.0004154",
            "txnHash": "0x932f766c64e6ccddcf847f9ceafd02a932407d81cd402c8ee4077b21d808d8a1",
            "txnIndex": 36,
            "type": 0,
            "value": "0"
        },
        "fund_flow": [
            {
                "amount": "476.31",
                "from": "0xaff4ebff40a5575d57e5f6edf9f63f961a2ad5c7",
                "id": 1,
                "isERC1155": false,
                "isERC721": false,
                "isReverted": false,
                "order": 1,
                "to": "0x17b1a39ddfb636f2cea132802cd15df94121165c",
                "token": "0xf8c8c211e976cf65ec8f01b7c70021a3b8bf5575"
            }
        ],
        "token_infos": [
            {
                "address": "0xc02aaa39b223fe8d0a0e5c4f27ead9083c756cc2",
                "decimals": 18
            },
            {
                "address": "0xf8c8c211e976cf65ec8f01b7c70021a3b8bf5575",
                "decimals": 18
            },
            {
                "address": "0xeeeeeeeeeeeeeeeeeeeeeeeeeeeeeeeeeeeeeeee",
                "decimals": 18
            }
        ]
    },
    "address_label": {
        "labels": [
            {
                "address": "0x0000000000000000000000000000000000000003",
                "label": "Precompiled"
            },
            {
                "address": "0x0000000000000000000000000000000000000004",
                "label": "Precompiled"
            },
            {
                "address": "0xeeeeeeeeeeeeeeeeeeeeeeeeeeeeeeeeeeeeeeee",
                "label": "Ether"
            },
            {
                "address": "0xf8c8c211e976cf65ec8f01b7c70021a3b8bf5575",
                "label": "M (M)"
            },
            {
                "address": "0x0000000000000000000000000000000000000001",
                "label": "Precompiled"
            },
            {
                "address": "0x0000000000000000000000000000000000000002",
                "label": "Precompiled"
            }
        ]
    },
    "trace": {
        "accountLabels": null,
        "dataMap": {
            "-1": {
                "invocation": {
                    "address": "0xaff4ebff40a5575d57e5f6edf9f63f961a2ad5c7",
                    "callData": "",
                    "decodedMethod": null,
                    "errorInfo": "",
                    "fromAddress": "",
                    "gasUsed": 0,
                    "id": -1,
                    "methodDecoded": false,
                    "operation": "",
                    "output": "",
                    "revert": false,
                    "revertMessage": "",
                    "selector": "",
                    "status": false,
                    "value": ""
                },
                "nodeType": 0
            },
            "0": {
                "invocation": {
                    "address": "0xf8c8c211e976cf65ec8f01b7c70021a3b8bf5575",
                    "callData": "0x00000000000000000000000017b1a39ddfb636f2cea132802cd15df94121165c000000000000000000000000000000000000000000000019d2210d66c64f0000",
                    "decodedMethod": {
                        "callParams": [
                            {
                                "name": "_to",
                                "type": "address",
                                "value": "0x17b1a39ddfb636f2cea132802cd15df94121165c"
                            },
                            {
                                "decimalAvailable": true,
                                "name": "_value",
                                "type": "uint256",
                                "value": "476,310,000,000,000,000,000"
                            }
                        ],
                        "constructorArguments": "",
                        "name": "transfer",
                        "returnParams": [
                            {
                                "name": "success",
                                "type": "bool",
                                "value": true
                            }
                        ],
                        "signature": "transfer(address,uint256)"
                    },
                    "errorInfo": "",
                    "fromAddress": "0xaff4ebff40a5575d57e5f6edf9f63f961a2ad5c7",
                    "gasUsed": 51925,
                    "id": 0,
                    "methodDecoded": true,
                    "operation": "CALL",
                    "output": "0x0000000000000000000000000000000000000000000000000000000000000001",
                    "revert": false,
                    "revertMessage": "",
                    "selector": "0xa9059cbb",
                    "status": true,
                    "value": "0"
                },
                "nodeType": 0
            },
            "1": {
                "event": {
                    "contract": "0xf8c8c211e976cf65ec8f01b7c70021a3b8bf5575",
                    "decodedLog": {
                        "name": "Transfer",
                        "params": [
                            {
                                "name": "_from",
                                "type": "address",
                                "value": "0xaff4ebff40a5575d57e5f6edf9f63f961a2ad5c7"
                            },
                            {
                                "name": "_to",
                                "type": "address",
                                "value": "0x17b1a39ddfb636f2cea132802cd15df94121165c"
                            },
                            {
                                "decimalAvailable": true,
                                "name": "_value",
                                "type": "uint256",
                                "value": "476,310,000,000,000,000,000"
                            }
                        ],
                        "signature": "Transfer(address,address,uint256)"
                    },
                    "id": 1,
                    "logData": "0x000000000000000000000000000000000000000000000019d2210d66c64f0000",
                    "logDecoded": true,
                    "operation": "EVENT",
                    "revert": false,
                    "status": true,
                    "topics": [
                        "0xddf252ad1be2c89b69c2b068fc378daa952ba7f163c4a11628f55a4df523b3ef",
                        "0x000000000000000000000000aff4ebff40a5575d57e5f6edf9f63f961a2ad5c7",
                        "0x00000000000000000000000017b1a39ddfb636f2cea132802cd15df94121165c"
                    ]
                },
                "nodeType": 1
            }
        },
        "gasFlame": [
            {
                "children": [
                    {
                        "children": [
                            {
                                "children": [],
                                "depth": 0,
                                "name": "Initial Gas",
                                "value": 23256
                            },
                            {
                                "children": [],
                                "depth": 0,
                                "name": "Executed Gas",
                                "value": 28669
                            }
                        ],
                        "depth": -1,
                        "name": "Actual Gas Used",
                        "value": 51925
                    },
                    {
                        "children": [],
                        "depth": -1,
                        "name": "Refunded Gas",
                        "value": 0
                    }
                ],
                "depth": -2,
                "name": "Total Gas",
                "value": 51925
            }
        ],
        "isConfirmed": true,
        "mainTrace": [
            {
                "children": [
                    {
                        "children": [
                            {
                                "children": [],
                                "depth": 1,
                                "id": 1,
                                "order": 1
                            }
                        ],
                        "depth": 0,
                        "id": 0,
                        "order": 0
                    }
                ],
                "depth": -1,
                "id": -1,
                "order": -1
            }
        ],
        "mainTraceNodeCount": 2,
        "parentIdMap": {
            "0": -1,
            "1": 0
        },
        "tidyTrace": [
            {
                "children": [
                    {
                        "children": [
                            {
                                "children": [],
                                "depth": 1,
                                "id": 1,
                                "order": 1
                            }
                        ],
                        "depth": 0,
                        "id": 0,
                        "order": 0
                    }
                ],
                "depth": -1,
                "id": -1,
                "order": -1
            }
        ],
        "tidyTraceNodeCount": 2
    },
    "state_change": {
        "stateChanges": [
            {
                "address": "0xf8c8c211e976cf65ec8f01b7c70021a3b8bf5575",
                "erc": "ERC-20",
                "slots": [
                    {
                        "current": "0x0000000000000000000000000000000000000000000021215f689cd4e0648000",
                        "key": "0xea45f326537671822f67fbb5c0f94b76c35a75d94ff8ae1ff93f55dc67fd9228",
                        "prev": "0x00000000000000000000000000000000000000000000213b3189aa3ba6b38000"
                    },
                    {
                        "current": "0x000000000000000000000000000000000000000000000019d2210d66c64f0000",
                        "key": "0x6e00a0e99bd53619ec8c3b9e9cca3a245552290d552c2e540ab680312ec8ecca",
                        "prev": "0x0000000000000000000000000000000000000000000000000000000000000000"
                    }
                ],
                "storageVariables": [
                    {
                        "name": "balances",
                        "type": "mapping(address => uint256)",
                        "value": {
                            "pairs": [
                                {
                                    "key": "0x17b1a39ddfb636f2cea132802cd15df94121165c",
                                    "value": {
                                        "current": "476310000000000000000",
                                        "prev": "0",
                                        "typeTag": 1
                                    }
                                },
                                {
                                    "key": "0xaff4ebff40a5575d57e5f6edf9f63f961a2ad5c7",
                                    "value": {
                                        "current": "156453711406400000000000",
                                        "prev": "156930021406400000000000",
                                        "typeTag": 1
                                    }
                                }
                            ],
                            "typeTag": 4
                        }
                    }
                ]
            }
        ]
    }
}