{
    "balance_change": {
        "balanceChanges": [
            {
                "account": "0x8babf0ba311aab914c00e8fda7e8558a8b66de5d",
                "assets": [
                    {
                        "address": "0x68e54af74b22acaccffa04ccaad13be16ed14eac",
                        "amount": "4,947.8",
                        "iconUrl": "",
                        "isERC1155": false,
                        "isERC721": false,
                        "sign": false,
                        "value": ""
                    }
                ]
            },
            {
                "account": "0x801b6fb17f80d21cfb63c634d04b04c1b0923162",
                "assets": [
                    {
                        "address": "0x68e54af74b22acaccffa04ccaad13be16ed14eac",
                        "amount": "4,947.8",
                        "iconUrl": "",
                        "isERC1155": false,
                        "isERC721": false,
                        "sign": true,
                        "value": ""
                    }
                ]
            }
        ]
    },
    "profile": {
        "basic_info": {
            "baseFee": "",
            "blockNumber": 9305559,
            "callData": "0xa9059cbb000000000000000000000000801b6fb17f80d21cfb63c634d04b04c1b092316200000000000000000000000000000000000000000000000000000073332fa700",
            "debugEnable": true,
            "errorInfo": "",
            "eventCount": 1,
            "feeRecipient": "0x5a0b54d5dc17e0aadc383d2db43b0a0d3e029c4c",
            "formatValue": "0",
            "gasLimit": 65000,
            "gasPrice": "35",
            "gasUsed": 36911,
            "intTxnCount": 0,
            "internalRevert": false,
            "internalRevertMessage": "",
            "isContractCreation": false,
            "isFlashloan": false,
            "maxFee": "",
            "nonce": 301376,
            "overwritedBlockNumber": -1,
            "priorityFee": "",
            "receiver": "0x68e54af74b22acaccffa04ccaad13be16ed14eac",
            "revertMessage": "",
            "sender": "0x8babf0ba311aab914c00e8fda7e8558a8b66de5d",
            "simulationEnable": true,
            "sourceTxnHash": "0x931ad52d1f75092d0f95234e38319784de57957bbbe36a5a852139692e67f032",
            "status": true,
            "timestamp": "2020-01-18T13:41:04Z",
            "transactionFee": "0.001291885",
            "txnHash": "0x931ad52d1f75092d0f95234e38319784de57957bbbe36a5a852139692e67f032",
            "txnIndex": 5,
            "type": 0,
            "value": "0"
        },
        "fund_flow": [
            {
                "amount": "4,947.8",
                "from": "0x8babf0ba311aab914c00e8fda7e8558a8b66de5d",
                "id": 1,
                "isERC1155": false,
                "isERC721": false,
                "isReverted": false,
                "order": 1,
                "to": "0x801b6fb17f80d21cfb63c634d04b04c1b0923162",
                "token": "0x68e54af74b22acaccffa04ccaad13be16ed14eac"
            }
        ],
        "token_infos": [
            {
                "address": "0x68e54af74b22acaccffa04ccaad13be16ed14eac",
                "decimals": 8
            },
            {
                "address": "0xc02aaa39b223fe8d0a0e5c4f27ead9083c756cc2",
                "decimals": 18
            },
            {
                "address": "0xeeeeeeeeeeeeeeeeeeeeeeeeeeeeeeeeeeeeeeee",
                "decimals": 18
            }
        ]
    },
    "address_label": {
        "labels": [
            {
                "address": "0xeeeeeeeeeeeeeeeeeeeeeeeeeeeeeeeeeeeeeeee",
                "label": "Ether"
            },
            {
                "address": "0x68e54af74b22acaccffa04ccaad13be16ed14eac",
                "label": "WENI (WENI)"
            },
            {
                "address": "0x0000000000000000000000000000000000000001",
                "label": "Precompiled"
            },
            {
                "address": "0x0000000000000000000000000000000000000002",
                "label": "Precompiled"
            },
            {
                "address": "0x0000000000000000000000000000000000000003",
                "label": "Precompiled"
            },
            {
                "address": "0x0000000000000000000000000000000000000004",
                "label": "Precompiled"
            }
        ]
    },
    "trace": {
        "accountLabels": null,
        "dataMap": {
            "-1": {
                "invocation": {
                    "address": "0x8babf0ba311aab914c00e8fda7e8558a8b66de5d",
                    "callData": "",
                    "decodedMethod": null,
                    "errorInfo": "",
                    "fromAddress": "",
                    "gasUsed": 0,
                    "id": -1,
                    "methodDecoded": false,
                    "operation": "",
                    "output": "",
                    "revert": false,
                    "revertMessage": "",
                    "selector": "",
                    "status": false,
                    "value": ""
                },
                "nodeType": 0
            },
            "0": {
                "invocation": {
                    "address": "0x68e54af74b22acaccffa04ccaad13be16ed14eac",
                    "callData": "0x000000000000000000000000801b6fb17f80d21cfb63c634d04b04c1b092316200000000000000000000000000000000000000000000000000000073332fa700",
                    "decodedMethod": {
                        "callParams": [
                            {
                                "name": "to",
                                "type": "address",
                                "value": "0x801b6fb17f80d21cfb63c634d04b04c1b0923162"
                            },
                            {
                                "decimalAvailable": true,
                                "name": "value",
                                "type": "uint256",
                                "value": "494,780,000,000"
                            }
                        ],
                        "constructorArguments": "",
                        "name": "transfer",
                        "returnParams": [
                            {
                                "name": "",
                                "type": "bool",
                                "value": true
                            }
                        ],
                        "signature": "transfer(address,uint256)"
                    },
                    "errorInfo": "",
                    "fromAddress": "0x8babf0ba311aab914c00e8fda7e8558a8b66de5d",
                    "gasUsed": 36911,
                    "id": 0,
                    "methodDecoded": true,
                    "operation": "CALL",
                    "output": "0x0000000000000000000000000000000000000000000000000000000000000001",
                    "revert": false,
                    "revertMessage": "",
                    "selector": "0xa9059cbb",
                    "status": true,
                    "value": "0"
                },
                "nodeType": 0
            },
            "1": {
                "event": {
                    "contract": "0x68e54af74b22acaccffa04ccaad13be16ed14eac",
                    "decodedLog": {
                        "name": "Transfer",
                        "params": [
                            {
                                "name": "from",
                                "type": "address",
                                "value": "0x8babf0ba311aab914c00e8fda7e8558a8b66de5d"
                            },
                            {
                                "name": "to",
                                "type": "address",
                                "value": "0x801b6fb17f80d21cfb63c634d04b04c1b0923162"
                            },
                            {
                                "decimalAvailable": true,
                                "name": "value",
                                "type": "uint256",
                                "value": "494,780,000,000"
                            }
                        ],
                        "signature": "Transfer(address,address,uint256)"
                    },
                    "id": 1,
                    "logData": "0x00000000000000000000000000000000000000000000000000000073332fa700",
                    "logDecoded": true,
                    "operation": "EVENT",
                    "revert": false,
                    "status": true,
                    "topics": [
                        "0xddf252ad1be2c89b69c2b068fc378daa952ba7f163c4a11628f55a4df523b3ef",
                        "0x0000000000000000000000008babf0ba311aab914c00e8fda7e8558a8b66de5d",
                        "0x000000000000000000000000801b6fb17f80d21cfb63c634d04b04c1b0923162"
                    ]
                },
                "nodeType": 1
            }
        },
        "gasFlame": [
            {
                "children": [
                    {
                        "children": [
                            {
                                "children": [],
                                "depth": 0,
                                "name": "Initial Gas",
                                "value": 21608
                            },
                            {
                                "children": [],
                                "depth": 0,
                                "name": "Executed Gas",
                                "value": 15303
                            }
                        ],
                        "depth": -1,
                        "name": "Actual Gas Used",
                        "value": 36911
                    },
                    {
                        "children": [],
                        "depth": -1,
                        "name": "Refunded Gas",
                        "value": 0
                    }
                ],
                "depth": -2,
                "name": "Total Gas",
                "value": 36911
            }
        ],
        "isConfirmed": true,
        "mainTrace": [
            {
                "children": [
                    {
                        "children": [
                            {
                                "children": [],
                                "depth": 1,
                                "id": 1,
                                "order": 1
                            }
                        ],
                        "depth": 0,
                        "id": 0,
                        "order": 0
                    }
                ],
                "depth": -1,
                "id": -1,
                "order": -1
            }
        ],
        "mainTraceNodeCount": 2,
        "parentIdMap": {
            "0": -1,
            "1": 0
        },
        "tidyTrace": [
            {
                "children": [
                    {
                        "children": [
                            {
                                "children": [],
                                "depth": 1,
                                "id": 1,
                                "order": 1
                            }
                        ],
                        "depth": 0,
                        "id": 0,
                        "order": 0
                    }
                ],
                "depth": -1,
                "id": -1,
                "order": -1
            }
        ],
        "tidyTraceNodeCount": 2
    },
    "state_change": {
        "stateChanges": [
            {
                "address": "0x68e54af74b22acaccffa04ccaad13be16ed14eac",
                "erc": "ERC-20",
                "slots": [
                    {
                        "current": "0x0000000000000000000000000000000000000000000000000030bacc601057d0",
                        "key": "0x47db820357862e7af12742cf5c90fea5fc6e46ffc1b7d66167924661e552a08d",
                        "prev": "0x0000000000000000000000000000000000000000000000000030bb3f933ffed0"
                    },
                    {
                        "current": "0x000000000000000000000000000000000000000000000000000002faf4509000",
                        "key": "0x82f37720a33bffbf8e28f187c8aa8137c70767483eaffbb7e925073fa757be67",
                        "prev": "0x00000000000000000000000000000000000000000000000000000287c120e900"
                    }
                ],
                "storageVariables": [
                    {
                        "name": "_balances",
                        "type": "mapping(address => uint256)",
                        "value": {
                            "pairs": [
                                {
                                    "key": "0x801b6fb17f80d21cfb63c634d04b04c1b0923162",
                                    "value": {
                                        "current": "3276864000000",
                                        "prev": "2782084000000",
                                        "typeTag": 1
                                    }
                                },
                                {
                                    "key": "0x8babf0ba311aab914c00e8fda7e8558a8b66de5d",
                                    "value": {
                                        "current": "13716185829890000",
                                        "prev": "13716680609890000",
                                        "typeTag": 1
                                    }
                                }
                            ],
                            "typeTag": 4
                        }
                    }
                ]
            }
        ]
    }
}