{
    "balance_change": {
        "balanceChanges": [
            {
                "account": "0x793bc84ec41c6b27d9177008301f3feb5a155a38",
                "assets": [
                    {
                        "address": "0xa6dd98031551c23bb4a2fbe2c4d524e8f737c6f7",
                        "amount": "2,621.585784",
                        "iconUrl": "",
                        "isERC1155": false,
                        "isERC721": false,
                        "sign": false,
                        "value": "139.3943197"
                    },
                    {
                        "address": "0xb7dbd33c422c094620fa78577f55af0fc277a005",
                        "amount": "1,610.694596327480713208",
                        "iconUrl": "",
                        "isERC1155": false,
                        "isERC721": false,
                        "sign": true,
                        "value": ""
                    }
                ]
            },
            {
                "account": "0xb7dbd33c422c094620fa78577f55af0fc277a005",
                "assets": [
                    {
                        "address": "0xa6dd98031551c23bb4a2fbe2c4d524e8f737c6f7",
                        "amount": "2,621.585784",
                        "iconUrl": "",
                        "isERC1155": false,
                        "isERC721": false,
                        "sign": true,
                        "value": "139.3943197"
                    }
                ]
            },
            {
                "account": "0x0000000000000000000000000000000000000000",
                "assets": [
                    {
                        "address": "0xb7dbd33c422c094620fa78577f55af0fc277a005",
                        "amount": "1,610.694596327480713208",
                        "iconUrl": "",
                        "isERC1155": false,
                        "isERC721": false,
                        "sign": false,
                        "value": ""
                    }
                ]
            }
        ]
    },
    "profile": {
        "basic_info": {
            "baseFee": "81.637688351",
            "blockNumber": 14111397,
            "callData": "0xa694fc3a00000000000000000000000000000000000000000000008e1dcfacca8def8000",
            "debugEnable": true,
            "errorInfo": "",
            "eventCount": 3,
            "feeRecipient": "0xea674fdde714fd979de3edf0f56aa9716b898ec8",
            "formatValue": "0",
            "gasLimit": 98851,
            "gasPrice": "83.137688351",
            "gasUsed": 88191,
            "intTxnCount": 3,
            "internalRevert": false,
            "internalRevertMessage": "",
            "isContractCreation": false,
            "isFlashloan": false,
            "maxFee": "103.695766084",
            "nonce": 274,
            "overwritedBlockNumber": -1,
            "priorityFee": "1.5",
            "receiver": "0xb7dbd33c422c094620fa78577f55af0fc277a005",
            "revertMessage": "",
            "sender": "0x793bc84ec41c6b27d9177008301f3feb5a155a38",
            "simulationEnable": true,
            "sourceTxnHash": "0x93b410be2f22a79d489cb09c618e6a3e8765813d7f7361c4ae7d1088b01acada",
            "status": true,
            "timestamp": "2022-01-31T04:09:13Z",
            "transactionFee": "0.007331995873363041",
            "txnHash": "0x93b410be2f22a79d489cb09c618e6a3e8765813d7f7361c4ae7d1088b01acada",
            "txnIndex": 192,
            "type": 2,
            "value": "0"
        },
        "fund_flow": [
            {
                "amount": "2,621.585784",
                "from": "0x793bc84ec41c6b27d9177008301f3feb5a155a38",
                "id": 1,
                "isERC1155": false,
                "isERC721": false,
                "isReverted": false,
                "order": 1,
                "to": "0xb7dbd33c422c094620fa78577f55af0fc277a005",
                "token": "0xa6dd98031551c23bb4a2fbe2c4d524e8f737c6f7"
            },
            {
                "amount": "1,610.694596327480713208",
                "from": "0x0000000000000000000000000000000000000000",
                "id": 2,
                "isERC1155": false,
                "isERC721": false,
                "isReverted": false,
                "order": 2,
                "to": "0x793bc84ec41c6b27d9177008301f3feb5a155a38",
                "token": "0xb7dbd33c422c094620fa78577f55af0fc277a005"
            }
        ],
        "token_infos": [
            {
                "address": "0xa6dd98031551c23bb4a2fbe2c4d524e8f737c6f7",
                "decimals": 18
            },
            {
                "address": "0xb7dbd33c422c094620fa78577f55af0fc277a005",
                "decimals": 18
            },
            {
                "address": "0xc02aaa39b223fe8d0a0e5c4f27ead9083c756cc2",
                "decimals": 18
            },
            {
                "address": "0xeeeeeeeeeeeeeeeeeeeeeeeeeeeeeeeeeeeeeeee",
                "decimals": 18
            }
        ]
    },
    "address_label": {
        "labels": [
            {
                "address": "0x0000000000000000000000000000000000000003",
                "label": "Precompiled"
            },
            {
                "address": "0x0000000000000000000000000000000000000004",
                "label": "Precompiled"
            },
            {
                "address": "0xeeeeeeeeeeeeeeeeeeeeeeeeeeeeeeeeeeeeeeee",
                "label": "Ether"
            },
            {
                "address": "0xa6dd98031551c23bb4a2fbe2c4d524e8f737c6f7",
                "label": "Tokenfy (TKNFY)"
            },
            {
                "address": "0xb7dbd33c422c094620fa78577f55af0fc277a005",
                "label": "sTokenfy (sTKNFY)"
            },
            {
                "address": "0x096790edd50bbeeeb58742802ea2de13a850e854",
                "label": "sTokenfy"
            },
            {
                "address": "0x0000000000000000000000000000000000000001",
                "label": "Precompiled"
            },
            {
                "address": "0x0000000000000000000000000000000000000002",
                "label": "Precompiled"
            }
        ]
    },
    "trace": {
        "accountLabels": null,
        "dataMap": {
            "-1": {
                "invocation": {
                    "address": "0x793bc84ec41c6b27d9177008301f3feb5a155a38",
                    "callData": "",
                    "decodedMethod": null,
                    "errorInfo": "",
                    "fromAddress": "",
                    "gasUsed": 0,
                    "id": -1,
                    "methodDecoded": false,
                    "operation": "",
                    "output": "",
                    "revert": false,
                    "revertMessage": "",
                    "selector": "",
                    "status": false,
                    "value": ""
                },
                "nodeType": 0
            },
            "0": {
                "invocation": {
                    "address": "0xb7dbd33c422c094620fa78577f55af0fc277a005",
                    "callData": "0x00000000000000000000000000000000000000000000008e1dcfacca8def8000",
                    "decodedMethod": {
                        "callParams": [
                            {
                                "name": "tokenfyAmount",
                                "type": "uint256",
                                "value": "2,621,585,784,000,000,000,000"
                            }
                        ],
                        "constructorArguments": "",
                        "name": "stake",
                        "returnParams": [],
                        "signature": "stake(uint256)"
                    },
                    "errorInfo": "",
                    "fromAddress": "0x793bc84ec41c6b27d9177008301f3feb5a155a38",
                    "gasUsed": 88191,
                    "id": 0,
                    "methodDecoded": true,
                    "operation": "CALL",
                    "output": "",
                    "revert": false,
                    "revertMessage": "",
                    "selector": "0xa694fc3a",
                    "status": true,
                    "value": "0"
                },
                "nodeType": 0
            },
            "1": {
                "invocation": {
                    "address": "0x096790edd50bbeeeb58742802ea2de13a850e854",
                    "callData": "0x00000000000000000000000000000000000000000000008e1dcfacca8def8000",
                    "decodedMethod": {
                        "callParams": [
                            {
                                "name": "tokenfyAmount",
                                "type": "uint256",
                                "value": "2,621,585,784,000,000,000,000"
                            }
                        ],
                        "constructorArguments": "",
                        "name": "stake",
                        "returnParams": [],
                        "signature": "stake(uint256)"
                    },
                    "errorInfo": "",
                    "fromAddress": "0xb7dbd33c422c094620fa78577f55af0fc277a005",
                    "gasUsed": 69175,
                    "id": 1,
                    "methodDecoded": true,
                    "operation": "DELEGATECALL",
                    "output": "",
                    "revert": false,
                    "revertMessage": "",
                    "selector": "0xa694fc3a",
                    "status": true,
                    "value": "0"
                },
                "nodeType": 0
            },
            "2": {
                "invocation": {
                    "address": "0xa6dd98031551c23bb4a2fbe2c4d524e8f737c6f7",
                    "callData": "0x000000000000000000000000b7dbd33c422c094620fa78577f55af0fc277a005",
                    "decodedMethod": {
                        "callParams": [
                            {
                                "name": "account",
                                "type": "address",
                                "value": "0xb7dbd33c422c094620fa78577f55af0fc277a005"
                            }
                        ],
                        "constructorArguments": "",
                        "name": "balanceOf",
                        "returnParams": [
                            {
                                "decimalAvailable": true,
                                "name": "",
                                "type": "uint256",
                                "value": "244,974,716,501,580,769,018,821,483"
                            }
                        ],
                        "signature": "balanceOf(address)"
                    },
                    "errorInfo": "",
                    "fromAddress": "0xb7dbd33c422c094620fa78577f55af0fc277a005",
                    "gasUsed": 2607,
                    "id": 2,
                    "methodDecoded": true,
                    "operation": "STATICCALL",
                    "output": "0x000000000000000000000000000000000000000000caa369fde370d7eff8bb6b",
                    "revert": false,
                    "revertMessage": "",
                    "selector": "0x70a08231",
                    "status": true,
                    "value": "0"
                },
                "nodeType": 0
            },
            "3": {
                "invocation": {
                    "address": "0xa6dd98031551c23bb4a2fbe2c4d524e8f737c6f7",
                    "callData": "0x000000000000000000000000793bc84ec41c6b27d9177008301f3feb5a155a38000000000000000000000000b7dbd33c422c094620fa78577f55af0fc277a00500000000000000000000000000000000000000000000008e1dcfacca8def8000",
                    "decodedMethod": {
                        "callParams": [
                            {
                                "name": "sender",
                                "type": "address",
                                "value": "0x793bc84ec41c6b27d9177008301f3feb5a155a38"
                            },
                            {
                                "name": "recipient",
                                "type": "address",
                                "value": "0xb7dbd33c422c094620fa78577f55af0fc277a005"
                            },
                            {
                                "decimalAvailable": true,
                                "name": "amount",
                                "type": "uint256",
                                "value": "2,621,585,784,000,000,000,000"
                            }
                        ],
                        "constructorArguments": "",
                        "name": "transferFrom",
                        "returnParams": [
                            {
                                "name": "",
                                "type": "bool",
                                "value": true
                            }
                        ],
                        "signature": "transferFrom(address,address,uint256)"
                    },
                    "errorInfo": "",
                    "fromAddress": "0xb7dbd33c422c094620fa78577f55af0fc277a005",
                    "gasUsed": 22699,
                    "id": 3,
                    "methodDecoded": true,
                    "operation": "CALL",
                    "output": "0x0000000000000000000000000000000000000000000000000000000000000001",
                    "revert": false,
                    "revertMessage": "",
                    "selector": "0x23b872dd",
                    "status": true,
                    "value": "0"
                },
                "nodeType": 0
            },
            "4": {
                "event": {
                    "contract": "0xa6dd98031551c23bb4a2fbe2c4d524e8f737c6f7",
                    "decodedLog": {
                        "name": "Approval",
                        "params": [
                            {
                                "name": "owner",
                                "type": "address",
                                "value": "0x793bc84ec41c6b27d9177008301f3feb5a155a38"
                            },
                            {
                                "name": "spender",
                                "type": "address",
                                "value": "0xb7dbd33c422c094620fa78577f55af0fc277a005"
                            },
                            {
                                "decimalAvailable": true,
                                "name": "value",
                                "type": "uint256",
                                "value": "0"
                            }
                        ],
                        "signature": "Approval(address,address,uint256)"
                    },
                    "id": 4,
                    "logData": "0x0000000000000000000000000000000000000000000000000000000000000000",
                    "logDecoded": true,
                    "operation": "EVENT",
                    "revert": false,
                    "status": true,
                    "topics": [
                        "0x8c5be1e5ebec7d5bd14f71427d1e84f3dd0314c0f7b2291e5b200ac8c7c3b925",
                        "0x000000000000000000000000793bc84ec41c6b27d9177008301f3feb5a155a38",
                        "0x000000000000000000000000b7dbd33c422c094620fa78577f55af0fc277a005"
                    ]
                },
                "nodeType": 1
            },
            "5": {
                "event": {
                    "contract": "0xa6dd98031551c23bb4a2fbe2c4d524e8f737c6f7",
                    "decodedLog": {
                        "name": "Transfer",
                        "params": [
                            {
                                "name": "from",
                                "type": "address",
                                "value": "0x793bc84ec41c6b27d9177008301f3feb5a155a38"
                            },
                            {
                                "name": "to",
                                "type": "address",
                                "value": "0xb7dbd33c422c094620fa78577f55af0fc277a005"
                            },
                            {
                                "decimalAvailable": true,
                                "name": "value",
                                "type": "uint256",
                                "value": "2,621,585,784,000,000,000,000"
                            }
                        ],
                        "signature": "Transfer(address,address,uint256)"
                    },
                    "id": 5,
                    "logData": "0x00000000000000000000000000000000000000000000008e1dcfacca8def8000",
                    "logDecoded": true,
                    "operation": "EVENT",
                    "revert": false,
                    "status": true,
                    "topics": [
                        "0xddf252ad1be2c89b69c2b068fc378daa952ba7f163c4a11628f55a4df523b3ef",
                        "0x000000000000000000000000793bc84ec41c6b27d9177008301f3feb5a155a38",
                        "0x000000000000000000000000b7dbd33c422c094620fa78577f55af0fc277a005"
                    ]
                },
                "nodeType": 1
            },
            "6": {
                "event": {
                    "contract": "0xb7dbd33c422c094620fa78577f55af0fc277a005",
                    "decodedLog": {
                        "name": "Transfer",
                        "params": [
                            {
                                "name": "from",
                                "type": "address",
                                "value": "0x0000000000000000000000000000000000000000"
                            },
                            {
                                "name": "to",
                                "type": "address",
                                "value": "0x793bc84ec41c6b27d9177008301f3feb5a155a38"
                            },
                            {
                                "decimalAvailable": true,
                                "name": "value",
                                "type": "uint256",
                                "value": "1,610,694,596,327,480,713,208"
                            }
                        ],
                        "signature": "Transfer(address,address,uint256)"
                    },
                    "id": 6,
                    "logData": "0x00000000000000000000000000000000000000000000005750e0b988bcaf5ff8",
                    "logDecoded": true,
                    "operation": "EVENT",
                    "revert": false,
                    "status": true,
                    "topics": [
                        "0xddf252ad1be2c89b69c2b068fc378daa952ba7f163c4a11628f55a4df523b3ef",
                        "0x0000000000000000000000000000000000000000000000000000000000000000",
                        "0x000000000000000000000000793bc84ec41c6b27d9177008301f3feb5a155a38"
                    ]
                },
                "nodeType": 1
            }
        },
        "gasFlame": [
            {
                "children": [
                    {
                        "children": [
                            {
                                "children": [],
                                "depth": 0,
                                "name": "Initial Gas",
                                "value": 21288
                            },
                            {
                                "children": [
                                    {
                                        "children": [
                                            {
                                                "children": [],
                                                "depth": 2,
                                                "name": "balanceOf",
                                                "value": 2607
                                            },
                                            {
                                                "children": [],
                                                "depth": 2,
                                                "name": "transferFrom",
                                                "value": 22699
                                            }
                                        ],
                                        "depth": 1,
                                        "name": "stake",
                                        "value": 69175
                                    }
                                ],
                                "depth": 0,
                                "name": "Executed Gas",
                                "value": 76503
                            }
                        ],
                        "depth": -1,
                        "name": "Actual Gas Used",
                        "value": 88191
                    },
                    {
                        "children": [],
                        "depth": -1,
                        "name": "Refunded Gas",
                        "value": 9600
                    }
                ],
                "depth": -2,
                "name": "Total Gas",
                "value": 97791
            }
        ],
        "isConfirmed": true,
        "mainTrace": [
            {
                "children": [
                    {
                        "children": [
                            {
                                "children": [
                                    {
                                        "children": [],
                                        "depth": 2,
                                        "id": 2,
                                        "order": 2
                                    },
                                    {
                                        "children": [
                                            {
                                                "children": [],
                                                "depth": 3,
                                                "id": 4,
                                                "order": 4
                                            },
                                            {
                                                "children": [],
                                                "depth": 3,
                                                "id": 5,
                                                "order": 5
                                            }
                                        ],
                                        "depth": 2,
                                        "id": 3,
                                        "order": 3
                                    },
                                    {
                                        "children": [],
                                        "depth": 2,
                                        "id": 6,
                                        "order": 6
                                    }
                                ],
                                "depth": 1,
                                "id": 1,
                                "order": 1
                            }
                        ],
                        "depth": 0,
                        "id": 0,
                        "order": 0
                    }
                ],
                "depth": -1,
                "id": -1,
                "order": -1
            }
        ],
        "mainTraceNodeCount": 7,
        "parentIdMap": {
            "0": -1,
            "1": 0,
            "2": 1,
            "3": 1,
            "4": 3,
            "5": 3,
            "6": 1
        },
        "tidyTrace": [
            {
                "children": [
                    {
                        "children": [
                            {
                                "children": [
                                    {
                                        "children": [
                                            {
                                                "children": [],
                                                "depth": 3,
                                                "id": 4,
                                                "order": 4
                                            },
                                            {
                                                "children": [],
                                                "depth": 3,
                                                "id": 5,
                                                "order": 5
                                            }
                                        ],
                                        "depth": 2,
                                        "id": 3,
                                        "order": 3
                                    },
                                    {
                                        "children": [],
                                        "depth": 2,
                                        "id": 6,
                                        "order": 6
                                    }
                                ],
                                "depth": 1,
                                "id": 1,
                                "order": 1
                            }
                        ],
                        "depth": 0,
                        "id": 0,
                        "order": 0
                    }
                ],
                "depth": -1,
                "id": -1,
                "order": -1
            }
        ],
        "tidyTraceNodeCount": 6
    },
    "state_change": {
        "stateChanges": [
            {
                "address": "0xa6dd98031551c23bb4a2fbe2c4d524e8f737c6f7",
                "erc": "ERC-20",
                "slots": [
                    {
                        "current": "0x0000000000000000000000000000000000000000000000000000000000000000",
                        "key": "0x693b7bd1af1fe55d119797ff7b5330840d5aa719b97df03dc8a9e179f7261c85",
                        "prev": "0x00000000000000000000000000000000000000000000008e1dcfacca8def8000"
                    },
                    {
                        "current": "0x000000000000000000000000000000000000000000caa3f81bb31da27de83b6b",
                        "key": "0xa22aad2fe486163e161f28fb8a6f3d2f4460d4e822f06d5772ff141419e7e915",
                        "prev": "0x000000000000000000000000000000000000000000caa369fde370d7eff8bb6b"
                    },
                    {
                        "current": "0x0000000000000000000000000000000000000000000000000000000000000000",
                        "key": "0x09f3749955aa849c86d7a6a08233abf1a3fe598dee148a1ea271d3189e9e0f22",
                        "prev": "0x00000000000000000000000000000000000000000000008e1dcfacca8def8000"
                    }
                ],
                "storageVariables": [
                    {
                        "name": "_allowances",
                        "type": "mapping(address => mapping(address => uint256))",
                        "value": {
                            "pairs": [
                                {
                                    "key": "0x793bc84ec41c6b27d9177008301f3feb5a155a38",
                                    "value": {
                                        "pairs": [
                                            {
                                                "key": "0xb7dbd33c422c094620fa78577f55af0fc277a005",
                                                "value": {
                                                    "current": "0",
                                                    "prev": "2621585784000000000000",
                                                    "typeTag": 1
                                                }
                                            }
                                        ],
                                        "typeTag": 4
                                    }
                                }
                            ],
                            "typeTag": 4
                        }
                    },
                    {
                        "name": "_balances",
                        "type": "mapping(address => uint256)",
                        "value": {
                            "pairs": [
                                {
                                    "key": "0x793bc84ec41c6b27d9177008301f3feb5a155a38",
                                    "value": {
                                        "current": "0",
                                        "prev": "2621585784000000000000",
                                        "typeTag": 1
                                    }
                                },
                                {
                                    "key": "0xb7dbd33c422c094620fa78577f55af0fc277a005",
                                    "value": {
                                        "current": "244977338087364769018821483",
                                        "prev": "244974716501580769018821483",
                                        "typeTag": 1
                                    }
                                }
                            ],
                            "typeTag": 4
                        }
                    }
                ]
            },
            {
                "address": "0xb7dbd33c422c094620fa78577f55af0fc277a005",
                "erc": "ERC-20",
                "slots": [
                    {
                        "current": "0x00000000000000000000000000000000000000000000005750e0b988bcaf5ff8",
                        "key": "0x30eadd4a7f2fb9b1f7f5a4d32776c198838fadbed518dadf4508ae6826ab558a",
                        "prev": "0x0000000000000000000000000000000000000000000000000000000000000000"
                    },
                    {
                        "current": "0x0000000000000000000000000000000000000000001ae999908bfd3e48d9f93d",
                        "key": "0x0000000000000000000000000000000000000000000000000000000000000035",
                        "prev": "0x0000000000000000000000000000000000000000001ae9423fab43b58c2a9945"
                    }
                ],
                "storageVariables": [
                    {
                        "name": "_balances",
                        "type": "mapping(address => uint256)",
                        "value": {
                            "pairs": [
                                {
                                    "key": "0x793bc84ec41c6b27d9177008301f3feb5a155a38",
                                    "value": {
                                        "current": "1610694596327480713208",
                                        "prev": "0",
                                        "typeTag": 1
                                    }
                                }
                            ],
                            "typeTag": 4
                        }
                    },
                    {
                        "name": "_totalSupply",
                        "type": "uint256",
                        "value": {
                            "current": "32535215468029270614997309",
                            "prev": "32533604773432943134284101",
                            "typeTag": 1
                        }
                    }
                ]
            }
        ]
    }
}