{
    "balance_change": {
        "balanceChanges": []
    },
    "profile": {
        "basic_info": {
            "baseFee": "",
            "blockNumber": 8018103,
            "callData": "0xef3435880000000000000000000000000000000000000000000000a8742ed08e4552f4000000000000000000000000000000000000000000000000008de025aa0b408b7e0000000000000000000000000000000000000000000000000000000000002710000000000000000000000000000000000000000000000000000000046d24acfa0000000000000000000000000000000000000000000000236542425e8db8f800000000000000000000000000000000000000000000000000000000095eb99c8800000000000000000000000000000000000000000000000000005af3107a4000000000000000000000000000000000000000000000000000000912d4298194530000000000000000000000008dd5fbce2f6a956c3022ba3663759011dd51e73e0000000000000000000000000000000000000000000000000000000000000000000000000000000000000000f080176e8c7976d51296abda87147f5b72a4ab4e00000000000000000000000031c0d9f5381beb93418777a906f118bd7d2b4f5e000000000000000000000000000000000000000000000000000000000000001c000000000000000000000000000000000000000000000000000000000000001b20b147e1b8c2d93f6034452053951c0466f2277e058309903bc8101b588a78c30ae1eb1620300725202b8454ad145a423cf1bcc48792589e348981940ae8ee9aedfca8bdecae1bfb50eba941eb1836a6b912aeec369cae882972d17dca9619e84c420d5790c3df0328f3a192b5b88d22c82e431ecf40d2f5bee03adcabd2e191",
            "debugEnable": true,
            "errorInfo": "",
            "eventCount": 0,
            "feeRecipient": "0x52bc44d5378309ee2abf1539bf71de1b7d7be3b5",
            "formatValue": "0",
            "gasLimit": 400000,
            "gasPrice": "7",
            "gasUsed": 143092,
            "intTxnCount": 2,
            "internalRevert": false,
            "internalRevertMessage": "",
            "isContractCreation": false,
            "isFlashloan": false,
            "maxFee": "",
            "nonce": 3551821,
            "overwritedBlockNumber": -1,
            "priorityFee": "",
            "receiver": "0x2a0c0dbecc7e4d658f48e01e3fa353f44050c208",
            "revertMessage": "",
            "sender": "0xa7a7899d944fe658c4b0a1803bab2f490bd3849e",
            "simulationEnable": true,
            "sourceTxnHash": "0x936baafd5e4da900d12c7097f408ea72e328c46de3db5a98cb4fc2705820f0fd",
            "status": true,
            "timestamp": "2019-06-24T02:39:08Z",
            "transactionFee": "0.001001644",
            "txnHash": "0x936baafd5e4da900d12c7097f408ea72e328c46de3db5a98cb4fc2705820f0fd",
            "txnIndex": 188,
            "type": 0,
            "value": "0"
        },
        "fund_flow": [],
        "token_infos": [
            {
                "address": "0xc02aaa39b223fe8d0a0e5c4f27ead9083c756cc2",
                "decimals": 18
            },
            {
                "address": "0xeeeeeeeeeeeeeeeeeeeeeeeeeeeeeeeeeeeeeeee",
                "decimals": 18
            }
        ]
    },
    "address_label": {
        "labels": [
            {
                "address": "0x0000000000000000000000000000000000000001",
                "label": "Precompiled"
            },
            {
                "address": "0x0000000000000000000000000000000000000002",
                "label": "Precompiled"
            },
            {
                "address": "0x0000000000000000000000000000000000000003",
                "label": "Precompiled"
            },
            {
                "address": "0xa7a7899d944fe658c4b0a1803bab2f490bd3849e",
                "label": "IDEX 2"
            },
            {
                "address": "0x8dd5fbce2f6a956c3022ba3663759011dd51e73e",
                "label": "TrueUSD: Legacy Contract"
            },
            {
                "address": "0x0000000000000000000000000000000000000000",
                "label": "Null Address"
            },
            {
                "address": "0xeeeeeeeeeeeeeeeeeeeeeeeeeeeeeeeeeeeeeeee",
                "label": "Ether"
            },
            {
                "address": "0x2a0c0dbecc7e4d658f48e01e3fa353f44050c208",
                "label": "IDEX"
            },
            {
                "address": "0x0000000000000000000000000000000000000004",
                "label": "Precompiled"
            }
        ]
    },
    "trace": {
        "accountLabels": null,
        "dataMap": {
            "-1": {
                "invocation": {
                    "address": "0xa7a7899d944fe658c4b0a1803bab2f490bd3849e",
                    "callData": "",
                    "decodedMethod": null,
                    "errorInfo": "",
                    "fromAddress": "",
                    "gasUsed": 0,
                    "id": -1,
                    "methodDecoded": false,
                    "operation": "",
                    "output": "",
                    "revert": false,
                    "revertMessage": "",
                    "selector": "",
                    "status": false,
                    "value": ""
                },
                "nodeType": 0
            },
            "0": {
                "invocation": {
                    "address": "0x2a0c0dbecc7e4d658f48e01e3fa353f44050c208",
                    "callData": "0x0000000000000000000000000000000000000000000000a8742ed08e4552f4000000000000000000000000000000000000000000000000008de025aa0b408b7e0000000000000000000000000000000000000000000000000000000000002710000000000000000000000000000000000000000000000000000000046d24acfa0000000000000000000000000000000000000000000000236542425e8db8f800000000000000000000000000000000000000000000000000000000095eb99c8800000000000000000000000000000000000000000000000000005af3107a4000000000000000000000000000000000000000000000000000000912d4298194530000000000000000000000008dd5fbce2f6a956c3022ba3663759011dd51e73e0000000000000000000000000000000000000000000000000000000000000000000000000000000000000000f080176e8c7976d51296abda87147f5b72a4ab4e00000000000000000000000031c0d9f5381beb93418777a906f118bd7d2b4f5e000000000000000000000000000000000000000000000000000000000000001c000000000000000000000000000000000000000000000000000000000000001b20b147e1b8c2d93f6034452053951c0466f2277e058309903bc8101b588a78c30ae1eb1620300725202b8454ad145a423cf1bcc48792589e348981940ae8ee9aedfca8bdecae1bfb50eba941eb1836a6b912aeec369cae882972d17dca9619e84c420d5790c3df0328f3a192b5b88d22c82e431ecf40d2f5bee03adcabd2e191",
                    "decodedMethod": {
                        "callParams": [
                            {
                                "name": "tradeValues",
                                "type": "uint256[8]",
                                "value": [
                                    "3,107,424,862,450,000,000,000",
                                    "10,223,212,566,394,473,342",
                                    "10,000",
                                    "19,010,989,306",
                                    "652,932,509,900,000,000,000",
                                    "40,243,928,200",
                                    "100,000,000,000,000",
                                    "2,553,977,229,120,595"
                                ]
                            },
                            {
                                "name": "tradeAddresses",
                                "type": "address[4]",
                                "value": [
                                    "0x8dd5fbce2f6a956c3022ba3663759011dd51e73e",
                                    "0x0000000000000000000000000000000000000000",
                                    "0xf080176e8c7976d51296abda87147f5b72a4ab4e",
                                    "0x31c0d9f5381beb93418777a906f118bd7d2b4f5e"
                                ]
                            },
                            {
                                "name": "v",
                                "type": "uint8[2]",
                                "value": [
                                    "28",
                                    "27"
                                ]
                            },
                            {
                                "name": "rs",
                                "type": "bytes32[4]",
                                "value": [
                                    "0x20b147e1b8c2d93f6034452053951c0466f2277e058309903bc8101b588a78c3",
                                    "0x0ae1eb1620300725202b8454ad145a423cf1bcc48792589e348981940ae8ee9a",
                                    "0xedfca8bdecae1bfb50eba941eb1836a6b912aeec369cae882972d17dca9619e8",
                                    "0x4c420d5790c3df0328f3a192b5b88d22c82e431ecf40d2f5bee03adcabd2e191"
                                ]
                            }
                        ],
                        "constructorArguments": "",
                        "name": "trade",
                        "returnParams": [
                            {
                                "name": "success",
                                "type": "bool",
                                "value": false
                            }
                        ],
                        "signature": "trade(uint256[8],address[4],uint8[2],bytes32[4])"
                    },
                    "errorInfo": "",
                    "fromAddress": "0xa7a7899d944fe658c4b0a1803bab2f490bd3849e",
                    "gasUsed": 143092,
                    "id": 0,
                    "methodDecoded": true,
                    "operation": "CALL",
                    "output": "0x0000000000000000000000000000000000000000000000000000000000000000",
                    "revert": false,
                    "revertMessage": "",
                    "selector": "0xef343588",
                    "status": true,
                    "value": "0"
                },
                "nodeType": 0
            },
            "1": {
                "invocation": {
                    "address": "0x0000000000000000000000000000000000000001",
                    "callData": "0xb35fa0b1472a658b3d63a145b1dcd62dacbe6d5b44846e454a9227f7000000000000000000000000000000000000000000000000000000000000001c20b147e1b8c2d93f6034452053951c0466f2277e058309903bc8101b588a78c30ae1eb1620300725202b8454ad145a423cf1bcc48792589e348981940ae8ee9a",
                    "decodedMethod": {
                        "callParams": [
                            {
                                "name": "hash",
                                "type": "bytes32",
                                "value": "0x6950602ab35fa0b1472a658b3d63a145b1dcd62dacbe6d5b44846e454a9227f7"
                            },
                            {
                                "name": "v",
                                "type": "uint256",
                                "value": "28"
                            },
                            {
                                "name": "r",
                                "type": "bytes32",
                                "value": "0x20b147e1b8c2d93f6034452053951c0466f2277e058309903bc8101b588a78c3"
                            },
                            {
                                "name": "s",
                                "type": "bytes32",
                                "value": "0x0ae1eb1620300725202b8454ad145a423cf1bcc48792589e348981940ae8ee9a"
                            }
                        ],
                        "constructorArguments": "",
                        "name": "ecrecover",
                        "returnParams": [
                            {
                                "name": "",
                                "type": "address",
                                "value": "0xf080176e8c7976d51296abda87147f5b72a4ab4e"
                            }
                        ],
                        "signature": "ecrecover(bytes32,uint256,bytes32,bytes32)"
                    },
                    "errorInfo": "",
                    "fromAddress": "0x2a0c0dbecc7e4d658f48e01e3fa353f44050c208",
                    "gasUsed": 3000,
                    "id": 1,
                    "methodDecoded": true,
                    "operation": "CALL",
                    "output": "0x000000000000000000000000f080176e8c7976d51296abda87147f5b72a4ab4e",
                    "revert": false,
                    "revertMessage": "",
                    "selector": "0x6950602a",
                    "status": true,
                    "value": "0"
                },
                "nodeType": 0
            },
            "2": {
                "invocation": {
                    "address": "0x0000000000000000000000000000000000000001",
                    "callData": "0x4521127ae95a4afa1e6fb480bf421994f39af877e74b4beb8ba97ed7000000000000000000000000000000000000000000000000000000000000001bedfca8bdecae1bfb50eba941eb1836a6b912aeec369cae882972d17dca9619e84c420d5790c3df0328f3a192b5b88d22c82e431ecf40d2f5bee03adcabd2e191",
                    "decodedMethod": {
                        "callParams": [
                            {
                                "name": "hash",
                                "type": "bytes32",
                                "value": "0x0b2c54c84521127ae95a4afa1e6fb480bf421994f39af877e74b4beb8ba97ed7"
                            },
                            {
                                "name": "v",
                                "type": "uint256",
                                "value": "27"
                            },
                            {
                                "name": "r",
                                "type": "bytes32",
                                "value": "0xedfca8bdecae1bfb50eba941eb1836a6b912aeec369cae882972d17dca9619e8"
                            },
                            {
                                "name": "s",
                                "type": "bytes32",
                                "value": "0x4c420d5790c3df0328f3a192b5b88d22c82e431ecf40d2f5bee03adcabd2e191"
                            }
                        ],
                        "constructorArguments": "",
                        "name": "ecrecover",
                        "returnParams": [
                            {
                                "name": "",
                                "type": "address",
                                "value": "0x31c0d9f5381beb93418777a906f118bd7d2b4f5e"
                            }
                        ],
                        "signature": "ecrecover(bytes32,uint256,bytes32,bytes32)"
                    },
                    "errorInfo": "",
                    "fromAddress": "0x2a0c0dbecc7e4d658f48e01e3fa353f44050c208",
                    "gasUsed": 3000,
                    "id": 2,
                    "methodDecoded": true,
                    "operation": "CALL",
                    "output": "0x00000000000000000000000031c0d9f5381beb93418777a906f118bd7d2b4f5e",
                    "revert": false,
                    "revertMessage": "",
                    "selector": "0x0b2c54c8",
                    "status": true,
                    "value": "0"
                },
                "nodeType": 0
            }
        },
        "gasFlame": [
            {
                "children": [
                    {
                        "children": [
                            {
                                "children": [],
                                "depth": 0,
                                "name": "Initial Gas",
                                "value": 38808
                            },
                            {
                                "children": [
                                    {
                                        "children": [],
                                        "depth": 1,
                                        "name": "ecrecover",
                                        "value": 3000
                                    },
                                    {
                                        "children": [],
                                        "depth": 1,
                                        "name": "ecrecover",
                                        "value": 3000
                                    }
                                ],
                                "depth": 0,
                                "name": "Executed Gas",
                                "value": 104284
                            }
                        ],
                        "depth": -1,
                        "name": "Actual Gas Used",
                        "value": 143092
                    },
                    {
                        "children": [],
                        "depth": -1,
                        "name": "Refunded Gas",
                        "value": 0
                    }
                ],
                "depth": -2,
                "name": "Total Gas",
                "value": 143092
            }
        ],
        "isConfirmed": true,
        "mainTrace": [
            {
                "children": [
                    {
                        "children": [
                            {
                                "children": [],
                                "depth": 1,
                                "id": 1,
                                "order": 1
                            },
                            {
                                "children": [],
                                "depth": 1,
                                "id": 2,
                                "order": 2
                            }
                        ],
                        "depth": 0,
                        "id": 0,
                        "order": 0
                    }
                ],
                "depth": -1,
                "id": -1,
                "order": -1
            }
        ],
        "mainTraceNodeCount": 3,
        "parentIdMap": {
            "0": -1,
            "1": 0,
            "2": 0
        },
        "tidyTrace": [
            {
                "children": [
                    {
                        "children": [
                            {
                                "children": [],
                                "depth": 1,
                                "id": 1,
                                "order": 1
                            },
                            {
                                "children": [],
                                "depth": 1,
                                "id": 2,
                                "order": 2
                            }
                        ],
                        "depth": 0,
                        "id": 0,
                        "order": 0
                    }
                ],
                "depth": -1,
                "id": -1,
                "order": -1
            }
        ],
        "tidyTraceNodeCount": 3
    },
    "state_change": {
        "stateChanges": [
            {
                "address": "0x2a0c0dbecc7e4d658f48e01e3fa353f44050c208",
                "erc": "",
                "slots": [
                    {
                        "current": "0x000000000000000000000000000000000000000000000000b7372956cd79f183",
                        "key": "0x2c6dfac32b3f12d91dfa34c6396e371679e3e1489aeb276f4e75620ea406718a",
                        "prev": "0x000000000000000000000000000000000000000000000000d506c164ce6c2691"
                    },
                    {
                        "current": "0x00000000000000000000000000000000000000000000000000000000007a58b7",
                        "key": "0xaa42025efb75e861b1618f14b5a61c945683f2c0d409315fc8b924c9af9dfaa6",
                        "prev": "0x00000000000000000000000000000000000000000000000000000000007a52e0"
                    },
                    {
                        "current": "0x0000000000000000000000000000000000000000000000cf028e2220a686f753",
                        "key": "0x94d9a07993f38fb5a9f683e30115a1313798ec8954a28090042212943469a2d1",
                        "prev": "0x0000000000000000000000000000000000000000000000ab9e33d79fc04b46d3"
                    },
                    {
                        "current": "0x000000000000000000000000000000000000000000000012ca7cd084bdc19a32",
                        "key": "0x31aea6cb3fe48aaff927608a283f5a8664cbe17d9cd39349765775f38433d905",
                        "prev": "0x000000000000000000000000000000000000000000000012c994d8a7164452b2"
                    },
                    {
                        "current": "0x000000000000000000000000000000000000000000000001ad016ff6f305a665",
                        "key": "0xeb9af02250a23e9e1c7287fa636551d2a691b57faf4e4365afcdaff4462bd11f",
                        "prev": "0x0000000000000000000000000000000000000000000000018f455595b21086b1"
                    },
                    {
                        "current": "0x0000000000000000000000000000000000000000000000098c3b4feb33bf6064",
                        "key": "0x3ccb72d91c5c66cba135a4135963ed23443b8a63817f501517468fcd5097e277",
                        "prev": "0x0000000000000000000000000000000000000000000000098c27d23e73c24b0a"
                    },
                    {
                        "current": "0x00000000000000000000000000000000000000000000000000000000007a58b7",
                        "key": "0x594d85e43f420828a5aa1fcaf07b5c16dde5f5c98776f5b76b747ceec3020c22",
                        "prev": "0x00000000000000000000000000000000000000000000000000000000007a5692"
                    },
                    {
                        "current": "0x0000000000000000000000000000000000000000000000000000000000000001",
                        "key": "0x83b01e5b93bb11773495953517f71822ee882a0add5372ec22650278f99529ae",
                        "prev": "0x0000000000000000000000000000000000000000000000000000000000000000"
                    },
                    {
                        "current": "0x00000000000000000000000000000000000000000000011fec675b863bb50560",
                        "key": "0xdb42aead7b3ecd8b78f4980257ee7ad5d0eb11d69442a960e98d8eca4d7a3ee1",
                        "prev": "0x00000000000000000000000000000000000000000000014351a99de4c96dfd60"
                    },
                    {
                        "current": "0x0000000000000000000000000000000000000000000000236542425e8db8f800",
                        "key": "0x0c99434f14768a6005689477279b4f40dfe1845e0a63188cc2a6760d9616b0f6",
                        "prev": "0x0000000000000000000000000000000000000000000000000000000000000000"
                    }
                ],
                "storageVariables": [
                    {
                        "name": "tokens",
                        "type": "mapping(address => mapping(address => uint256))",
                        "value": {
                            "pairs": [
                                {
                                    "key": "0x0000000000000000000000000000000000000000",
                                    "value": {
                                        "pairs": [
                                            {
                                                "key": "0x034767f3c519f361c5ecf46ebfc08981c629d381",
                                                "value": {
                                                    "current": "176125454723925893220",
                                                    "prev": "176119968518459509514",
                                                    "typeTag": 1
                                                }
                                            },
                                            {
                                                "key": "0x31c0d9f5381beb93418777a906f118bd7d2b4f5e",
                                                "value": {
                                                    "current": "30913112423677666917",
                                                    "prev": "28770495895952197297",
                                                    "typeTag": 1
                                                }
                                            },
                                            {
                                                "key": "0xf080176e8c7976d51296abda87147f5b72a4ab4e",
                                                "value": {
                                                    "current": "13202066285451145603",
                                                    "prev": "15350169018642998929",
                                                    "typeTag": 1
                                                }
                                            }
                                        ],
                                        "typeTag": 4
                                    }
                                },
                                {
                                    "key": "0x8dd5fbce2f6a956c3022ba3663759011dd51e73e",
                                    "value": {
                                        "pairs": [
                                            {
                                                "key": "0x034767f3c519f361c5ecf46ebfc08981c629d381",
                                                "value": {
                                                    "current": "346632159488083335730",
                                                    "prev": "346566866237093335730",
                                                    "typeTag": 1
                                                }
                                            },
                                            {
                                                "key": "0x31c0d9f5381beb93418777a906f118bd7d2b4f5e",
                                                "value": {
                                                    "current": "5311250233902278968672",
                                                    "prev": "5964182743802278968672",
                                                    "typeTag": 1
                                                }
                                            },
                                            {
                                                "key": "0xf080176e8c7976d51296abda87147f5b72a4ab4e",
                                                "value": {
                                                    "current": "3818660145416274114387",
                                                    "prev": "3165792928767264114387",
                                                    "typeTag": 1
                                                }
                                            }
                                        ],
                                        "typeTag": 4
                                    }
                                }
                            ],
                            "typeTag": 4
                        }
                    },
                    {
                        "name": "orderFills",
                        "type": "mapping(bytes32 => uint256)",
                        "value": {
                            "pairs": [
                                {
                                    "key": "0xb96ca4b4257cc7c8022a49bb574c156803de7f417265d6afbef0fde2c8cea7c1",
                                    "value": {
                                        "current": "652932509900000000000",
                                        "prev": "0",
                                        "typeTag": 1
                                    }
                                }
                            ],
                            "typeTag": 4
                        }
                    },
                    {
                        "name": "lastActiveTransaction",
                        "type": "mapping(address => uint256)",
                        "value": {
                            "pairs": [
                                {
                                    "key": "0x31c0d9f5381beb93418777a906f118bd7d2b4f5e",
                                    "value": {
                                        "current": "8018103",
                                        "prev": "8017554",
                                        "typeTag": 1
                                    }
                                },
                                {
                                    "key": "0xf080176e8c7976d51296abda87147f5b72a4ab4e",
                                    "value": {
                                        "current": "8018103",
                                        "prev": "8016608",
                                        "typeTag": 1
                                    }
                                }
                            ],
                            "typeTag": 4
                        }
                    },
                    {
                        "name": "traded",
                        "type": "mapping(bytes32 => bool)",
                        "value": {
                            "pairs": [
                                {
                                    "key": "0xc4ecbbc0b2703e074edff9e6454dbe60d4f3beb5643dde7d1e1fa3509f0740bc",
                                    "value": {
                                        "current": "true",
                                        "prev": "false",
                                        "typeTag": 1
                                    }
                                }
                            ],
                            "typeTag": 4
                        }
                    }
                ]
            }
        ]
    }
}