{
    "balance_change": {
        "balanceChanges": [
            {
                "account": "0x9bd52d32743a67caeed25f5ae64724d1a16447cb",
                "assets": [
                    {
                        "address": "0xba7435a4b4c747e0101780073eeda872a69bdcd4",
                        "amount": "1,794.514432586898282291",
                        "iconUrl": "",
                        "isERC1155": false,
                        "isERC721": false,
                        "sign": false,
                        "value": ""
                    }
                ]
            },
            {
                "account": "0x2a9a8d2b24fc00d3eb5370857316c0ab57e74ecd",
                "assets": [
                    {
                        "address": "0xba7435a4b4c747e0101780073eeda872a69bdcd4",
                        "amount": "1,794.514432586898282291",
                        "iconUrl": "",
                        "isERC1155": false,
                        "isERC721": false,
                        "sign": true,
                        "value": ""
                    }
                ]
            }
        ]
    },
    "profile": {
        "basic_info": {
            "baseFee": "",
            "blockNumber": 5686529,
            "callData": "0xa9059cbb0000000000000000000000002a9a8d2b24fc00d3eb5370857316c0ab57e74ecd00000000000000000000000000000000000000000000006147e3f8b15dbd1733",
            "debugEnable": true,
            "errorInfo": "",
            "eventCount": 1,
            "feeRecipient": "0xea674fdde714fd979de3edf0f56aa9716b898ec8",
            "formatValue": "0",
            "gasLimit": 150000,
            "gasPrice": "5.1",
            "gasUsed": 114099,
            "intTxnCount": 0,
            "internalRevert": false,
            "internalRevertMessage": "",
            "isContractCreation": false,
            "isFlashloan": false,
            "maxFee": "",
            "nonce": 26,
            "overwritedBlockNumber": -1,
            "priorityFee": "",
            "receiver": "0xba7435a4b4c747e0101780073eeda872a69bdcd4",
            "revertMessage": "",
            "sender": "0x9bd52d32743a67caeed25f5ae64724d1a16447cb",
            "simulationEnable": true,
            "sourceTxnHash": "0x93989b08e6c0f43198d32d6b7d5d2fa4c6bd0704d416a29cfd716a334ae4c823",
            "status": true,
            "timestamp": "2018-05-27T16:25:18Z",
            "transactionFee": "0.0005819049",
            "txnHash": "0x93989b08e6c0f43198d32d6b7d5d2fa4c6bd0704d416a29cfd716a334ae4c823",
            "txnIndex": 78,
            "type": 0,
            "value": "0"
        },
        "fund_flow": [
            {
                "amount": "1,794.514432586898282291",
                "from": "0x9bd52d32743a67caeed25f5ae64724d1a16447cb",
                "id": 1,
                "isERC1155": false,
                "isERC721": false,
                "isReverted": false,
                "order": 1,
                "to": "0x2a9a8d2b24fc00d3eb5370857316c0ab57e74ecd",
                "token": "0xba7435a4b4c747e0101780073eeda872a69bdcd4"
            }
        ],
        "token_infos": [
            {
                "address": "0xba7435a4b4c747e0101780073eeda872a69bdcd4",
                "decimals": 18
            },
            {
                "address": "0xc02aaa39b223fe8d0a0e5c4f27ead9083c756cc2",
                "decimals": 18
            },
            {
                "address": "0xeeeeeeeeeeeeeeeeeeeeeeeeeeeeeeeeeeeeeeee",
                "decimals": 18
            }
        ]
    },
    "address_label": {
        "labels": [
            {
                "address": "0xeeeeeeeeeeeeeeeeeeeeeeeeeeeeeeeeeeeeeeee",
                "label": "Ether"
            },
            {
                "address": "0xba7435a4b4c747e0101780073eeda872a69bdcd4",
                "label": "Fake_Phishing391767"
            },
            {
                "address": "0x0000000000000000000000000000000000000001",
                "label": "Precompiled"
            },
            {
                "address": "0x0000000000000000000000000000000000000002",
                "label": "Precompiled"
            },
            {
                "address": "0x0000000000000000000000000000000000000003",
                "label": "Precompiled"
            },
            {
                "address": "0x0000000000000000000000000000000000000004",
                "label": "Precompiled"
            }
        ]
    },
    "trace": {
        "accountLabels": null,
        "dataMap": {
            "-1": {
                "invocation": {
                    "address": "0x9bd52d32743a67caeed25f5ae64724d1a16447cb",
                    "callData": "",
                    "decodedMethod": null,
                    "errorInfo": "",
                    "fromAddress": "",
                    "gasUsed": 0,
                    "id": -1,
                    "methodDecoded": false,
                    "operation": "",
                    "output": "",
                    "revert": false,
                    "revertMessage": "",
                    "selector": "",
                    "status": false,
                    "value": ""
                },
                "nodeType": 0
            },
            "0": {
                "invocation": {
                    "address": "0xba7435a4b4c747e0101780073eeda872a69bdcd4",
                    "callData": "0x0000000000000000000000002a9a8d2b24fc00d3eb5370857316c0ab57e74ecd00000000000000000000000000000000000000000000006147e3f8b15dbd1733",
                    "decodedMethod": {
                        "callParams": [
                            {
                                "name": "recipient",
                                "type": "address",
                                "value": "0x2a9a8d2b24fc00d3eb5370857316c0ab57e74ecd"
                            },
                            {
                                "decimalAvailable": true,
                                "name": "amount",
                                "type": "uint256",
                                "value": "1,794,514,432,586,898,282,291"
                            }
                        ],
                        "constructorArguments": "",
                        "name": "transfer",
                        "returnParams": [
                            {
                                "name": "",
                                "type": "bool",
                                "value": true
                            }
                        ],
                        "signature": "transfer(address,uint256)"
                    },
                    "errorInfo": "",
                    "fromAddress": "0x9bd52d32743a67caeed25f5ae64724d1a16447cb",
                    "gasUsed": 114099,
                    "id": 0,
                    "methodDecoded": true,
                    "operation": "CALL",
                    "output": "0x0000000000000000000000000000000000000000000000000000000000000001",
                    "revert": false,
                    "revertMessage": "",
                    "selector": "0xa9059cbb",
                    "status": true,
                    "value": "0"
                },
                "nodeType": 0
            },
            "1": {
                "event": {
                    "contract": "0xba7435a4b4c747e0101780073eeda872a69bdcd4",
                    "decodedLog": {
                        "name": "Transfer",
                        "params": [
                            {
                                "name": "from",
                                "type": "address",
                                "value": "0x9bd52d32743a67caeed25f5ae64724d1a16447cb"
                            },
                            {
                                "name": "to",
                                "type": "address",
                                "value": "0x2a9a8d2b24fc00d3eb5370857316c0ab57e74ecd"
                            },
                            {
                                "decimalAvailable": true,
                                "name": "value",
                                "type": "uint256",
                                "value": "1,794,514,432,586,898,282,291"
                            }
                        ],
                        "signature": "Transfer(address,address,uint256)"
                    },
                    "id": 1,
                    "logData": "0x00000000000000000000000000000000000000000000006147e3f8b15dbd1733",
                    "logDecoded": true,
                    "operation": "EVENT",
                    "revert": false,
                    "status": true,
                    "topics": [
                        "0xddf252ad1be2c89b69c2b068fc378daa952ba7f163c4a11628f55a4df523b3ef",
                        "0x0000000000000000000000009bd52d32743a67caeed25f5ae64724d1a16447cb",
                        "0x0000000000000000000000002a9a8d2b24fc00d3eb5370857316c0ab57e74ecd"
                    ]
                },
                "nodeType": 1
            }
        },
        "gasFlame": [
            {
                "children": [
                    {
                        "children": [
                            {
                                "children": [],
                                "depth": 0,
                                "name": "Initial Gas",
                                "value": 23320
                            },
                            {
                                "children": [],
                                "depth": 0,
                                "name": "Executed Gas",
                                "value": 90779
                            }
                        ],
                        "depth": -1,
                        "name": "Actual Gas Used",
                        "value": 114099
                    },
                    {
                        "children": [],
                        "depth": -1,
                        "name": "Refunded Gas",
                        "value": 0
                    }
                ],
                "depth": -2,
                "name": "Total Gas",
                "value": 114099
            }
        ],
        "isConfirmed": true,
        "mainTrace": [
            {
                "children": [
                    {
                        "children": [
                            {
                                "children": [],
                                "depth": 1,
                                "id": 1,
                                "order": 1
                            }
                        ],
                        "depth": 0,
                        "id": 0,
                        "order": 0
                    }
                ],
                "depth": -1,
                "id": -1,
                "order": -1
            }
        ],
        "mainTraceNodeCount": 2,
        "parentIdMap": {
            "0": -1,
            "1": 0
        },
        "tidyTrace": [
            {
                "children": [
                    {
                        "children": [
                            {
                                "children": [],
                                "depth": 1,
                                "id": 1,
                                "order": 1
                            }
                        ],
                        "depth": 0,
                        "id": 0,
                        "order": 0
                    }
                ],
                "depth": -1,
                "id": -1,
                "order": -1
            }
        ],
        "tidyTraceNodeCount": 2
    },
    "state_change": {
        "stateChanges": [
            {
                "address": "0xba7435a4b4c747e0101780073eeda872a69bdcd4",
                "erc": "",
                "slots": [
                    {
                        "current": "0x0000000000000000000000000000000000000000e27b201c3c55edb7b63d01b8",
                        "key": "0x0000000000000000000000000000000000000000000000000000000000000004",
                        "prev": "0x0000000000000000000000000000000000000000e27b1e146b8954d131c62714"
                    },
                    {
                        "current": "0x0000000000000000000000000000000000000000000000000000000000000001",
                        "key": "0x6cc185611fee4131256e51767b00bc1f13d889a352d43e998400852a0ff0960c",
                        "prev": "0x0000000000000000000000000000000000000000000000000000000000000000"
                    },
                    {
                        "current": "0x000000000000000000000000000000000000000000010d0a6dc7282e31886c01",
                        "key": "0xbc90dab83fa17b92ade8dee9e3584fbcaa2d9428f345a5012c5004abf4313e76",
                        "prev": "0x000000000000000000000000000000000000000000010b63e3291cd99c0b54ce"
                    },
                    {
                        "current": "0x000000000000000000000000000000000000000000000061463098d56a536e58",
                        "key": "0x65ceec441a0be8dba823abd09086c167e0db5f560475e675a03479d42c2cb520",
                        "prev": "0x0000000000000000000000000000000000000000000000000000000000000000"
                    },
                    {
                        "current": "0x00000000000000000000000000000000000000000000006147094321a65b6d52",
                        "key": "0x0000000000000000000000000000000000000000000000000000000000000005",
                        "prev": "0x000000000000000000000000000000000000000000000061470b4e6521b51839"
                    }
                ],
                "storageVariables": []
            }
        ]
    }
}