{
    "balance_change": {
        "balanceChanges": [
            {
                "account": "0xcd00ca999946df6a2181173dcc85f7685bfa96c5",
                "assets": [
                    {
                        "address": "0x8ee325ae3e54e83956ef2d5952d3c8bc1fa6ec27",
                        "amount": "263.270314831",
                        "iconUrl": "https://assets.blocksec.com/icon/e36a455047a18c541c77fae7bfec69ac8d64a2fc6389409316a850c07be624b2.png",
                        "isERC1155": false,
                        "isERC721": false,
                        "sign": false,
                        "value": "105.28179888851999413"
                    }
                ]
            },
            {
                "account": "0x83668d1ccd29f4467affe7a5388f207b0e979c21",
                "assets": [
                    {
                        "address": "0x8ee325ae3e54e83956ef2d5952d3c8bc1fa6ec27",
                        "amount": "263.270314831",
                        "iconUrl": "https://assets.blocksec.com/icon/e36a455047a18c541c77fae7bfec69ac8d64a2fc6389409316a850c07be624b2.png",
                        "isERC1155": false,
                        "isERC721": false,
                        "sign": true,
                        "value": "105.28179888851999413"
                    }
                ]
            }
        ]
    },
    "profile": {
        "basic_info": {
            "baseFee": "17.717984",
            "blockNumber": 16329866,
            "callData": "0xa9059cbb00000000000000000000000083668d1ccd29f4467affe7a5388f207b0e979c210000000000000000000000000000000000000000000000000000003d4c22334f",
            "debugEnable": true,
            "errorInfo": "",
            "eventCount": 1,
            "feeRecipient": "0x4675c7e5baafbffbca748158becba61ef3b0a263",
            "formatValue": "0",
            "gasLimit": 53149,
            "gasPrice": "18.072325304",
            "gasUsed": 30633,
            "intTxnCount": 0,
            "internalRevert": false,
            "internalRevertMessage": "",
            "isContractCreation": false,
            "isFlashloan": false,
            "maxFee": "21.284397816",
            "nonce": 386,
            "overwritedBlockNumber": -1,
            "priorityFee": "0.354341304",
            "receiver": "0x8ee325ae3e54e83956ef2d5952d3c8bc1fa6ec27",
            "revertMessage": "",
            "sender": "0xcd00ca999946df6a2181173dcc85f7685bfa96c5",
            "simulationEnable": true,
            "sourceTxnHash": "0x93b7aa6a549de3c24a8843ea327c5690b4f0b2393b4ecbc25e93c0e3c3251e18",
            "status": true,
            "timestamp": "2023-01-04T00:33:23Z",
            "transactionFee": "0.000553609541037432",
            "txnHash": "0x93b7aa6a549de3c24a8843ea327c5690b4f0b2393b4ecbc25e93c0e3c3251e18",
            "txnIndex": 121,
            "type": 2,
            "value": "0"
        },
        "fund_flow": [
            {
                "amount": "263.270314831",
                "from": "0xcd00ca999946df6a2181173dcc85f7685bfa96c5",
                "id": 1,
                "isERC1155": false,
                "isERC721": false,
                "isReverted": false,
                "order": 1,
                "to": "0x83668d1ccd29f4467affe7a5388f207b0e979c21",
                "token": "0x8ee325ae3e54e83956ef2d5952d3c8bc1fa6ec27"
            }
        ],
        "token_infos": [
            {
                "address": "0xeeeeeeeeeeeeeeeeeeeeeeeeeeeeeeeeeeeeeeee",
                "decimals": 18
            },
            {
                "address": "0x8ee325ae3e54e83956ef2d5952d3c8bc1fa6ec27",
                "decimals": 9
            },
            {
                "address": "0xc02aaa39b223fe8d0a0e5c4f27ead9083c756cc2",
                "decimals": 18
            }
        ]
    },
    "address_label": {
        "labels": [
            {
                "address": "0xeeeeeeeeeeeeeeeeeeeeeeeeeeeeeeeeeeeeeeee",
                "label": "Ether"
            },
            {
                "address": "0x8ee325ae3e54e83956ef2d5952d3c8bc1fa6ec27",
                "label": "Fable Of The Dragon: TYRANT Token"
            },
            {
                "address": "0x0000000000000000000000000000000000000001",
                "label": "Precompiled"
            },
            {
                "address": "0x0000000000000000000000000000000000000002",
                "label": "Precompiled"
            },
            {
                "address": "0x0000000000000000000000000000000000000003",
                "label": "Precompiled"
            },
            {
                "address": "0x0000000000000000000000000000000000000004",
                "label": "Precompiled"
            }
        ]
    },
    "trace": {
        "accountLabels": null,
        "dataMap": {
            "-1": {
                "invocation": {
                    "address": "0xcd00ca999946df6a2181173dcc85f7685bfa96c5",
                    "callData": "",
                    "decodedMethod": null,
                    "errorInfo": "",
                    "fromAddress": "",
                    "gasUsed": 0,
                    "id": -1,
                    "methodDecoded": false,
                    "operation": "",
                    "output": "",
                    "revert": false,
                    "revertMessage": "",
                    "selector": "",
                    "status": false,
                    "value": ""
                },
                "nodeType": 0
            },
            "0": {
                "invocation": {
                    "address": "0x8ee325ae3e54e83956ef2d5952d3c8bc1fa6ec27",
                    "callData": "0x00000000000000000000000083668d1ccd29f4467affe7a5388f207b0e979c210000000000000000000000000000000000000000000000000000003d4c22334f",
                    "decodedMethod": {
                        "callParams": [
                            {
                                "name": "to",
                                "type": "address",
                                "value": "0x83668d1ccd29f4467affe7a5388f207b0e979c21"
                            },
                            {
                                "decimalAvailable": true,
                                "name": "amount",
                                "type": "uint256",
                                "value": "263,270,314,831"
                            }
                        ],
                        "constructorArguments": "",
                        "name": "transfer",
                        "returnParams": [
                            {
                                "name": "",
                                "type": "bool",
                                "value": true
                            }
                        ],
                        "signature": "transfer(address,uint256)"
                    },
                    "errorInfo": "",
                    "fromAddress": "0xcd00ca999946df6a2181173dcc85f7685bfa96c5",
                    "gasUsed": 30633,
                    "id": 0,
                    "methodDecoded": true,
                    "operation": "CALL",
                    "output": "0x0000000000000000000000000000000000000000000000000000000000000001",
                    "revert": false,
                    "revertMessage": "",
                    "selector": "0xa9059cbb",
                    "status": true,
                    "value": "0"
                },
                "nodeType": 0
            },
            "1": {
                "event": {
                    "contract": "0x8ee325ae3e54e83956ef2d5952d3c8bc1fa6ec27",
                    "decodedLog": {
                        "name": "Transfer",
                        "params": [
                            {
                                "name": "from",
                                "type": "address",
                                "value": "0xcd00ca999946df6a2181173dcc85f7685bfa96c5"
                            },
                            {
                                "name": "to",
                                "type": "address",
                                "value": "0x83668d1ccd29f4467affe7a5388f207b0e979c21"
                            },
                            {
                                "decimalAvailable": true,
                                "name": "value",
                                "type": "uint256",
                                "value": "263,270,314,831"
                            }
                        ],
                        "signature": "Transfer(address,address,uint256)"
                    },
                    "id": 1,
                    "logData": "0x0000000000000000000000000000000000000000000000000000003d4c22334f",
                    "logDecoded": true,
                    "operation": "EVENT",
                    "revert": false,
                    "status": true,
                    "topics": [
                        "0xddf252ad1be2c89b69c2b068fc378daa952ba7f163c4a11628f55a4df523b3ef",
                        "0x000000000000000000000000cd00ca999946df6a2181173dcc85f7685bfa96c5",
                        "0x00000000000000000000000083668d1ccd29f4467affe7a5388f207b0e979c21"
                    ]
                },
                "nodeType": 1
            }
        },
        "gasFlame": [
            {
                "children": [
                    {
                        "children": [
                            {
                                "children": [],
                                "depth": 0,
                                "name": "Initial Gas",
                                "value": 21620
                            },
                            {
                                "children": [],
                                "depth": 0,
                                "name": "Executed Gas",
                                "value": 13813
                            }
                        ],
                        "depth": -1,
                        "name": "Actual Gas Used",
                        "value": 30633
                    },
                    {
                        "children": [],
                        "depth": -1,
                        "name": "Refunded Gas",
                        "value": 4800
                    }
                ],
                "depth": -2,
                "name": "Total Gas",
                "value": 35433
            }
        ],
        "isConfirmed": true,
        "mainTrace": [
            {
                "children": [
                    {
                        "children": [
                            {
                                "children": [],
                                "depth": 1,
                                "id": 1,
                                "order": 1
                            }
                        ],
                        "depth": 0,
                        "id": 0,
                        "order": 0
                    }
                ],
                "depth": -1,
                "id": -1,
                "order": -1
            }
        ],
        "mainTraceNodeCount": 2,
        "parentIdMap": {
            "0": -1,
            "1": 0
        },
        "tidyTrace": [
            {
                "children": [
                    {
                        "children": [
                            {
                                "children": [],
                                "depth": 1,
                                "id": 1,
                                "order": 1
                            }
                        ],
                        "depth": 0,
                        "id": 0,
                        "order": 0
                    }
                ],
                "depth": -1,
                "id": -1,
                "order": -1
            }
        ],
        "tidyTraceNodeCount": 2
    },
    "state_change": {
        "stateChanges": [
            {
                "address": "0x8ee325ae3e54e83956ef2d5952d3c8bc1fa6ec27",
                "erc": "ERC-20",
                "slots": [
                    {
                        "current": "0x0000000000000000000000000000000000000000000000000000000000000000",
                        "key": "0x1d139f395faf9769d644408824be148f4c0c048b5cd05d8823c6627f66895965",
                        "prev": "0x0000000000000000000000000000000000000000000000000000003d4c22334f"
                    },
                    {
                        "current": "0x00000000000000000000000000000000000000000000000000000238af2d90af",
                        "key": "0x37cc4640f8310733dfd671a63ab95cf5d07a6cda880729be00937351835c9483",
                        "prev": "0x000000000000000000000000000000000000000000000000000001fb630b5d60"
                    }
                ],
                "storageVariables": [
                    {
                        "name": "_balances",
                        "type": "mapping(address => uint256)",
                        "value": {
                            "pairs": [
                                {
                                    "key": "0x83668d1ccd29f4467affe7a5388f207b0e979c21",
                                    "value": {
                                        "current": "2442480423087",
                                        "prev": "2179210108256",
                                        "typeTag": 1
                                    }
                                },
                                {
                                    "key": "0xcd00ca999946df6a2181173dcc85f7685bfa96c5",
                                    "value": {
                                        "current": "0",
                                        "prev": "263270314831",
                                        "typeTag": 1
                                    }
                                }
                            ],
                            "typeTag": 4
                        }
                    }
                ]
            }
        ]
    }
}