{
    "balance_change": {
        "balanceChanges": []
    },
    "profile": {
        "basic_info": {
            "baseFee": "11.886188205",
            "blockNumber": 15627071,
            "callData": "0xa22cb4650000000000000000000000001e0049783f008a0085193e00003d00cd54003c710000000000000000000000000000000000000000000000000000000000000001",
            "debugEnable": true,
            "errorInfo": "",
            "eventCount": 1,
            "feeRecipient": "0xf573d99385c05c23b24ed33de616ad16a43a0919",
            "formatValue": "0",
            "gasLimit": 52099,
            "gasPrice": "13.386188205",
            "gasUsed": 51695,
            "intTxnCount": 1,
            "internalRevert": false,
            "internalRevertMessage": "",
            "isContractCreation": false,
            "isFlashloan": false,
            "maxFee": "16.301011983",
            "nonce": 195,
            "overwritedBlockNumber": -1,
            "priorityFee": "1.5",
            "receiver": "0x3e707eadbfdb6faa57f55a6295f40f8f925179ec",
            "revertMessage": "",
            "sender": "0xd52bd683a5ad6fa441aa04165000651df1ff23d4",
            "simulationEnable": true,
            "sourceTxnHash": "0x9487124565a706b5bca3cd4e3f3397f764ba042bf34b641a566071c65f7e06a7",
            "status": true,
            "timestamp": "2022-09-27T20:28:35Z",
            "transactionFee": "0.000691998999257475",
            "txnHash": "0x9487124565a706b5bca3cd4e3f3397f764ba042bf34b641a566071c65f7e06a7",
            "txnIndex": 64,
            "type": 2,
            "value": "0"
        },
        "fund_flow": [],
        "token_infos": [
            {
                "address": "0xc02aaa39b223fe8d0a0e5c4f27ead9083c756cc2",
                "decimals": 18
            },
            {
                "address": "0xeeeeeeeeeeeeeeeeeeeeeeeeeeeeeeeeeeeeeeee",
                "decimals": 18
            }
        ]
    },
    "address_label": {
        "labels": [
            {
                "address": "0x0000000000000000000000000000000000000003",
                "label": "Precompiled"
            },
            {
                "address": "0x0000000000000000000000000000000000000004",
                "label": "Precompiled"
            },
            {
                "address": "0xeeeeeeeeeeeeeeeeeeeeeeeeeeeeeeeeeeeeeeee",
                "label": "Ether"
            },
            {
                "address": "0x1e0049783f008a0085193e00003d00cd54003c71",
                "label": "OpenSea: Conduit"
            },
            {
                "address": "0x935e909fa02f75180b28c52d396022911fcb1892",
                "label": "SignatureDrop"
            },
            {
                "address": "0x0000000000000000000000000000000000000001",
                "label": "Precompiled"
            },
            {
                "address": "0x0000000000000000000000000000000000000002",
                "label": "Precompiled"
            }
        ]
    },
    "trace": {
        "accountLabels": null,
        "dataMap": {
            "-1": {
                "invocation": {
                    "address": "0xd52bd683a5ad6fa441aa04165000651df1ff23d4",
                    "callData": "",
                    "decodedMethod": null,
                    "errorInfo": "",
                    "fromAddress": "",
                    "gasUsed": 0,
                    "id": -1,
                    "methodDecoded": false,
                    "operation": "",
                    "output": "",
                    "revert": false,
                    "revertMessage": "",
                    "selector": "",
                    "status": false,
                    "value": ""
                },
                "nodeType": 0
            },
            "0": {
                "invocation": {
                    "address": "0x3e707eadbfdb6faa57f55a6295f40f8f925179ec",
                    "callData": "0x0000000000000000000000001e0049783f008a0085193e00003d00cd54003c710000000000000000000000000000000000000000000000000000000000000001",
                    "decodedMethod": {
                        "callParams": [
                            {
                                "name": "operator",
                                "type": "address",
                                "value": "0x1e0049783f008a0085193e00003d00cd54003c71"
                            },
                            {
                                "name": "approved",
                                "type": "bool",
                                "value": true
                            }
                        ],
                        "constructorArguments": "",
                        "name": "setApprovalForAll",
                        "returnParams": [],
                        "signature": "setApprovalForAll(address,bool)"
                    },
                    "errorInfo": "",
                    "fromAddress": "0xd52bd683a5ad6fa441aa04165000651df1ff23d4",
                    "gasUsed": 51695,
                    "id": 0,
                    "methodDecoded": true,
                    "operation": "CALL",
                    "output": "",
                    "revert": false,
                    "revertMessage": "",
                    "selector": "0xa22cb465",
                    "status": true,
                    "value": "0"
                },
                "nodeType": 0
            },
            "1": {
                "invocation": {
                    "address": "0x935e909fa02f75180b28c52d396022911fcb1892",
                    "callData": "0x0000000000000000000000001e0049783f008a0085193e00003d00cd54003c710000000000000000000000000000000000000000000000000000000000000001",
                    "decodedMethod": {
                        "callParams": [
                            {
                                "name": "operator",
                                "type": "address",
                                "value": "0x1e0049783f008a0085193e00003d00cd54003c71"
                            },
                            {
                                "name": "approved",
                                "type": "bool",
                                "value": true
                            }
                        ],
                        "constructorArguments": "",
                        "name": "setApprovalForAll",
                        "returnParams": [],
                        "signature": "setApprovalForAll(address,bool)"
                    },
                    "errorInfo": "",
                    "fromAddress": "0x3e707eadbfdb6faa57f55a6295f40f8f925179ec",
                    "gasUsed": 27532,
                    "id": 1,
                    "methodDecoded": true,
                    "operation": "DELEGATECALL",
                    "output": "",
                    "revert": false,
                    "revertMessage": "",
                    "selector": "0xa22cb465",
                    "status": true,
                    "value": "0"
                },
                "nodeType": 0
            },
            "2": {
                "event": {
                    "contract": "0x3e707eadbfdb6faa57f55a6295f40f8f925179ec",
                    "decodedLog": {
                        "name": "ApprovalForAll",
                        "params": [
                            {
                                "name": "owner",
                                "type": "address",
                                "value": "0xd52bd683a5ad6fa441aa04165000651df1ff23d4"
                            },
                            {
                                "name": "operator",
                                "type": "address",
                                "value": "0x1e0049783f008a0085193e00003d00cd54003c71"
                            },
                            {
                                "name": "approved",
                                "type": "bool",
                                "value": true
                            }
                        ],
                        "signature": "ApprovalForAll(address,address,bool)"
                    },
                    "id": 2,
                    "logData": "0x0000000000000000000000000000000000000000000000000000000000000001",
                    "logDecoded": true,
                    "operation": "EVENT",
                    "revert": false,
                    "status": true,
                    "topics": [
                        "0x17307eab39ab6107e8899845ad3d59bd9653f200f220920489ca2b5937696c31",
                        "0x000000000000000000000000d52bd683a5ad6fa441aa04165000651df1ff23d4",
                        "0x0000000000000000000000001e0049783f008a0085193e00003d00cd54003c71"
                    ]
                },
                "nodeType": 1
            }
        },
        "gasFlame": [
            {
                "children": [
                    {
                        "children": [
                            {
                                "children": [],
                                "depth": 0,
                                "name": "Initial Gas",
                                "value": 21488
                            },
                            {
                                "children": [
                                    {
                                        "children": [],
                                        "depth": 1,
                                        "name": "setApprovalForAll",
                                        "value": 27532
                                    }
                                ],
                                "depth": 0,
                                "name": "Executed Gas",
                                "value": 30207
                            }
                        ],
                        "depth": -1,
                        "name": "Actual Gas Used",
                        "value": 51695
                    },
                    {
                        "children": [],
                        "depth": -1,
                        "name": "Refunded Gas",
                        "value": 0
                    }
                ],
                "depth": -2,
                "name": "Total Gas",
                "value": 51695
            }
        ],
        "isConfirmed": true,
        "mainTrace": [
            {
                "children": [
                    {
                        "children": [
                            {
                                "children": [
                                    {
                                        "children": [],
                                        "depth": 2,
                                        "id": 2,
                                        "order": 2
                                    }
                                ],
                                "depth": 1,
                                "id": 1,
                                "order": 1
                            }
                        ],
                        "depth": 0,
                        "id": 0,
                        "order": 0
                    }
                ],
                "depth": -1,
                "id": -1,
                "order": -1
            }
        ],
        "mainTraceNodeCount": 3,
        "parentIdMap": {
            "0": -1,
            "1": 0,
            "2": 1
        },
        "tidyTrace": [
            {
                "children": [
                    {
                        "children": [
                            {
                                "children": [
                                    {
                                        "children": [],
                                        "depth": 2,
                                        "id": 2,
                                        "order": 2
                                    }
                                ],
                                "depth": 1,
                                "id": 1,
                                "order": 1
                            }
                        ],
                        "depth": 0,
                        "id": 0,
                        "order": 0
                    }
                ],
                "depth": -1,
                "id": -1,
                "order": -1
            }
        ],
        "tidyTraceNodeCount": 3
    },
    "state_change": {
        "stateChanges": [
            {
                "address": "0x3e707eadbfdb6faa57f55a6295f40f8f925179ec",
                "erc": "ERC-721",
                "slots": [
                    {
                        "current": "0x0000000000000000000000000000000000000000000000000000000000000001",
                        "key": "0xe129cee4cffd72880c8dccf6db8cb7b9ea0d413ee0fc812968f29c856e491f0a",
                        "prev": "0x0000000000000000000000000000000000000000000000000000000000000000"
                    }
                ],
                "storageVariables": [
                    {
                        "name": "_operatorApprovals",
                        "type": "mapping(address => mapping(address => bool))",
                        "value": {
                            "pairs": [
                                {
                                    "key": "0xd52bd683a5ad6fa441aa04165000651df1ff23d4",
                                    "value": {
                                        "pairs": [
                                            {
                                                "key": "0x1e0049783f008a0085193e00003d00cd54003c71",
                                                "value": {
                                                    "current": "true",
                                                    "prev": "false",
                                                    "typeTag": 1
                                                }
                                            }
                                        ],
                                        "typeTag": 4
                                    }
                                }
                            ],
                            "typeTag": 4
                        }
                    }
                ]
            }
        ]
    }
}