{
    "balance_change": {
        "balanceChanges": [
            {
                "account": "0x4e34408081cc2723771d0fbca3bdf0e9c96f4b3e",
                "assets": [
                    {
                        "address": "0x57e114b691db790c35207b2e685d4a43181e6061",
                        "amount": "800",
                        "iconUrl": "",
                        "isERC1155": false,
                        "isERC721": false,
                        "sign": false,
                        "value": "654.5600000000000307"
                    },
                    {
                        "address": "0xeeeeeeeeeeeeeeeeeeeeeeeeeeeeeeeeeeeeeeee",
                        "amount": "0.214487436684127867",
                        "iconUrl": "https://assets.blocksec.com/image/1663669189317-3.png",
                        "isERC1155": false,
                        "isERC721": false,
                        "sign": true,
                        "value": "639.7795608118609844"
                    }
                ]
            },
            {
                "account": "0xa69babef1ca67a37ffaf7a485dfff3382056e78c",
                "assets": [
                    {
                        "address": "0x57e114b691db790c35207b2e685d4a43181e6061",
                        "amount": "800",
                        "iconUrl": "",
                        "isERC1155": false,
                        "isERC721": false,
                        "sign": true,
                        "value": "654.5600000000000307"
                    },
                    {
                        "address": "0xc02aaa39b223fe8d0a0e5c4f27ead9083c756cc2",
                        "amount": "0.2163807684076952",
                        "iconUrl": "https://assets.blocksec.com/icon/f1cb2d02c471d545bbc7722daf3277fd852d98e63d118771af7047bd8256c516.png",
                        "isERC1155": false,
                        "isERC721": false,
                        "sign": false,
                        "value": "645.42704740657198426"
                    }
                ]
            },
            {
                "account": "0xc02aaa39b223fe8d0a0e5c4f27ead9083c756cc2",
                "assets": [
                    {
                        "address": "0xeeeeeeeeeeeeeeeeeeeeeeeeeeeeeeeeeeeeeeee",
                        "amount": "0.2163807684076952",
                        "iconUrl": "https://assets.blocksec.com/image/1663669189317-3.png",
                        "isERC1155": false,
                        "isERC721": false,
                        "sign": false,
                        "value": "645.42704740657198426"
                    },
                    {
                        "address": "0xc02aaa39b223fe8d0a0e5c4f27ead9083c756cc2",
                        "amount": "0.2163807684076952",
                        "iconUrl": "https://assets.blocksec.com/icon/f1cb2d02c471d545bbc7722daf3277fd852d98e63d118771af7047bd8256c516.png",
                        "isERC1155": false,
                        "isERC721": false,
                        "sign": true,
                        "value": "645.42704740657198426"
                    }
                ]
            },
            {
                "account": "0xf326e4de8f66a0bdc0970b79e0924e33c79f1915",
                "assets": [
                    {
                        "address": "0xeeeeeeeeeeeeeeeeeeeeeeeeeeeeeeeeeeeeeeee",
                        "amount": "0.001893331723567333",
                        "iconUrl": "https://assets.blocksec.com/image/1663669189317-3.png",
                        "isERC1155": false,
                        "isERC721": false,
                        "sign": true,
                        "value": "5.647486666298919862"
                    }
                ]
            }
        ]
    },
    "profile": {
        "basic_info": {
            "baseFee": "16.562299466",
            "blockNumber": 19768999,
            "callData": "0x5f575529000000000000000000000000000000000000000000000000000000000000008000000000000000000000000057e114b691db790c35207b2e685d4a43181e606100000000000000000000000000000000000000000000002b5e3af16b1880000000000000000000000000000000000000000000000000000000000000000000c0000000000000000000000000000000000000000000000000000000000000000f706d6d46656544796e616d696376340000000000000000000000000000000000000000000000000000000000000000000000000000000000000000000000030000000000000000000000000057e114b691db790c35207b2e685d4a43181e6061000000000000000000000000000000000000000000000000000000000000000000000000000000000000000000000000000000000000002b5e3af16b1880000000000000000000000000000000000000000000000000000002eac5aefae50afe00000000000000000000000000000000000000000000000000000000000001200000000000000000000000000000000000000000000000000006b9f9a4d340e5000000000000000000000000f326e4de8f66a0bdc0970b79e0924e33c79f1915000000000000000000000000000000000000000000000000000000000000000100000000000000000000000000000000000000000000000000000000000001e0000000000000000000000000c02aaa39b223fe8d0a0e5c4f27ead9083c756cc200000000000000000000000057e114b691db790c35207b2e685d4a43181e60610000000000000000000000000000000000000000000000000300bd29952aaf6000000000000000000000000000000000000000000000002b5e3af16b18800000000000000000000000000000a69babef1ca67a37ffaf7a485dfff3382056e78c00000000000000000000000074de5d4fcbf63e00296fd95d33236b97940166310000000000000000000000004e34408081cc2723771d0fbca3bdf0e9c96f4b3e00000000000000000000000000000000000000000000000000000000000000000000000000000000000000000000000000000000000000000000000066310d6801ffffffffffffffffffffffffffffffffffffff28fa5dd566310d04000000330000000000000000000000000000000000000000000000000000000000000003000000000000000000000000000000000000000000000000000000000000001bdc64972b01e146784783d7743b103b0fb1011bf2a2c68b60bdd034f03b57cd4c639564cf5711529f7c843130f43ffdc582761e08b7c8a5dc732cd9533ac6786d00000000000000000000000000000000000000000000002b5e3af16b18800000013c",
            "debugEnable": true,
            "errorInfo": "",
            "eventCount": 8,
            "feeRecipient": "0x95222290dd7278aa3ddd389cc1e1d165cc4bafe5",
            "formatValue": "0",
            "gasLimit": 239588,
            "gasPrice": "16.578408525",
            "gasUsed": 190945,
            "intTxnCount": 18,
            "internalRevert": false,
            "internalRevertMessage": "",
            "isContractCreation": false,
            "isFlashloan": false,
            "maxFee": "29.515720272",
            "nonce": 330,
            "overwritedBlockNumber": -1,
            "priorityFee": "0.016109059",
            "receiver": "0x881d40237659c251811cec9c364ef91dc08d300c",
            "revertMessage": "",
            "sender": "0x4e34408081cc2723771d0fbca3bdf0e9c96f4b3e",
            "simulationEnable": true,
            "sourceTxnHash": "0x94424c5cad8b614fc657b051cf1fe767c14b34dcf549ecf5e1910d0c28ae99e5",
            "status": true,
            "timestamp": "2024-04-30T15:24:11Z",
            "transactionFee": "0.003165564215806125",
            "txnHash": "0x94424c5cad8b614fc657b051cf1fe767c14b34dcf549ecf5e1910d0c28ae99e5",
            "txnIndex": 187,
            "type": 2,
            "value": "0"
        },
        "fund_flow": [
            {
                "amount": "800",
                "from": "0x4e34408081cc2723771d0fbca3bdf0e9c96f4b3e",
                "id": 1,
                "isERC1155": false,
                "isERC721": false,
                "isReverted": false,
                "order": 1,
                "to": "0x74de5d4fcbf63e00296fd95d33236b9794016631",
                "token": "0x57e114b691db790c35207b2e685d4a43181e6061"
            },
            {
                "amount": "800",
                "from": "0x74de5d4fcbf63e00296fd95d33236b9794016631",
                "id": 2,
                "isERC1155": false,
                "isERC721": false,
                "isReverted": false,
                "order": 2,
                "to": "0xa69babef1ca67a37ffaf7a485dfff3382056e78c",
                "token": "0x57e114b691db790c35207b2e685d4a43181e6061"
            },
            {
                "amount": "0.2163807684076952",
                "from": "0xa69babef1ca67a37ffaf7a485dfff3382056e78c",
                "id": 3,
                "isERC1155": false,
                "isERC721": false,
                "isReverted": false,
                "order": 3,
                "to": "0x74de5d4fcbf63e00296fd95d33236b9794016631",
                "token": "0xc02aaa39b223fe8d0a0e5c4f27ead9083c756cc2"
            },
            {
                "amount": "0.2163807684076952",
                "from": "0xc02aaa39b223fe8d0a0e5c4f27ead9083c756cc2",
                "id": 4,
                "isERC1155": false,
                "isERC721": false,
                "isReverted": false,
                "order": 4,
                "to": "0x74de5d4fcbf63e00296fd95d33236b9794016631",
                "token": "0xeeeeeeeeeeeeeeeeeeeeeeeeeeeeeeeeeeeeeeee"
            },
            {
                "amount": "0.2163807684076952",
                "from": "0x74de5d4fcbf63e00296fd95d33236b9794016631",
                "id": 5,
                "isERC1155": false,
                "isERC721": false,
                "isReverted": false,
                "order": 5,
                "to": "0xc02aaa39b223fe8d0a0e5c4f27ead9083c756cc2",
                "token": "0xc02aaa39b223fe8d0a0e5c4f27ead9083c756cc2"
            },
            {
                "amount": "0.001893331723567333",
                "from": "0x74de5d4fcbf63e00296fd95d33236b9794016631",
                "id": 6,
                "isERC1155": false,
                "isERC721": false,
                "isReverted": false,
                "order": 6,
                "to": "0xf326e4de8f66a0bdc0970b79e0924e33c79f1915",
                "token": "0xeeeeeeeeeeeeeeeeeeeeeeeeeeeeeeeeeeeeeeee"
            },
            {
                "amount": "0.214487436684127867",
                "from": "0x74de5d4fcbf63e00296fd95d33236b9794016631",
                "id": 7,
                "isERC1155": false,
                "isERC721": false,
                "isReverted": false,
                "order": 7,
                "to": "0x4e34408081cc2723771d0fbca3bdf0e9c96f4b3e",
                "token": "0xeeeeeeeeeeeeeeeeeeeeeeeeeeeeeeeeeeeeeeee"
            }
        ],
        "token_infos": [
            {
                "address": "0x57e114b691db790c35207b2e685d4a43181e6061",
                "decimals": 18
            },
            {
                "address": "0xc02aaa39b223fe8d0a0e5c4f27ead9083c756cc2",
                "decimals": 18
            },
            {
                "address": "0xeeeeeeeeeeeeeeeeeeeeeeeeeeeeeeeeeeeeeeee",
                "decimals": 18
            }
        ]
    },
    "address_label": {
        "labels": [
            {
                "address": "0xf326e4de8f66a0bdc0970b79e0924e33c79f1915",
                "label": "MetaMask: DS Proxy"
            },
            {
                "address": "0x74de5d4fcbf63e00296fd95d33236b9794016631",
                "label": "MetaMask: Swaps Spender"
            },
            {
                "address": "0x0000000000000000000000000000000000000003",
                "label": "Precompiled"
            },
            {
                "address": "0xeeeeeeeeeeeeeeeeeeeeeeeeeeeeeeeeeeeeeeee",
                "label": "Ether"
            },
            {
                "address": "0x1fcc3e6f76f7a96cd2b9d09f1d3c041ca1403c57",
                "label": "NativeOrdersFeature"
            },
            {
                "address": "0xdef1c0ded9bec7f1a1670819833240f027b25eff",
                "label": "0x: Exchange Proxy"
            },
            {
                "address": "0xa69babef1ca67a37ffaf7a485dfff3382056e78c",
                "label": "MEV Bot: 0xA69...78C"
            },
            {
                "address": "0x57e114b691db790c35207b2e685d4a43181e6061",
                "label": "Ethena: ENA Token"
            },
            {
                "address": "0xc02aaa39b223fe8d0a0e5c4f27ead9083c756cc2",
                "label": "Wrapped Ether (WETH)"
            },
            {
                "address": "0x0000000000000000000000000000000000000001",
                "label": "Precompiled"
            },
            {
                "address": "0x881d40237659c251811cec9c364ef91dc08d300c",
                "label": "Metamask: Swap Router"
            },
            {
                "address": "0xd9db270c1b5e3bd161e8c8503c55ceabee709552",
                "label": "Safe: Singleton 1.3.0"
            },
            {
                "address": "0x0000000000000000000000000000000000000002",
                "label": "Precompiled"
            },
            {
                "address": "0x0000000000000000000000000000000000000004",
                "label": "Precompiled"
            }
        ]
    },
    "trace": {
        "accountLabels": null,
        "dataMap": {
            "-1": {
                "invocation": {
                    "address": "0x4e34408081cc2723771d0fbca3bdf0e9c96f4b3e",
                    "callData": "",
                    "decodedMethod": null,
                    "errorInfo": "",
                    "fromAddress": "",
                    "gasUsed": 0,
                    "id": -1,
                    "methodDecoded": false,
                    "operation": "",
                    "output": "",
                    "revert": false,
                    "revertMessage": "",
                    "selector": "",
                    "status": false,
                    "value": ""
                },
                "nodeType": 0
            },
            "0": {
                "invocation": {
                    "address": "0x881d40237659c251811cec9c364ef91dc08d300c",
                    "callData": "0x000000000000000000000000000000000000000000000000000000000000008000000000000000000000000057e114b691db790c35207b2e685d4a43181e606100000000000000000000000000000000000000000000002b5e3af16b1880000000000000000000000000000000000000000000000000000000000000000000c0000000000000000000000000000000000000000000000000000000000000000f706d6d46656544796e616d696376340000000000000000000000000000000000000000000000000000000000000000000000000000000000000000000000030000000000000000000000000057e114b691db790c35207b2e685d4a43181e6061000000000000000000000000000000000000000000000000000000000000000000000000000000000000000000000000000000000000002b5e3af16b1880000000000000000000000000000000000000000000000000000002eac5aefae50afe00000000000000000000000000000000000000000000000000000000000001200000000000000000000000000000000000000000000000000006b9f9a4d340e5000000000000000000000000f326e4de8f66a0bdc0970b79e0924e33c79f1915000000000000000000000000000000000000000000000000000000000000000100000000000000000000000000000000000000000000000000000000000001e0000000000000000000000000c02aaa39b223fe8d0a0e5c4f27ead9083c756cc200000000000000000000000057e114b691db790c35207b2e685d4a43181e60610000000000000000000000000000000000000000000000000300bd29952aaf6000000000000000000000000000000000000000000000002b5e3af16b18800000000000000000000000000000a69babef1ca67a37ffaf7a485dfff3382056e78c00000000000000000000000074de5d4fcbf63e00296fd95d33236b97940166310000000000000000000000004e34408081cc2723771d0fbca3bdf0e9c96f4b3e00000000000000000000000000000000000000000000000000000000000000000000000000000000000000000000000000000000000000000000000066310d6801ffffffffffffffffffffffffffffffffffffff28fa5dd566310d04000000330000000000000000000000000000000000000000000000000000000000000003000000000000000000000000000000000000000000000000000000000000001bdc64972b01e146784783d7743b103b0fb1011bf2a2c68b60bdd034f03b57cd4c639564cf5711529f7c843130f43ffdc582761e08b7c8a5dc732cd9533ac6786d00000000000000000000000000000000000000000000002b5e3af16b18800000013c",
                    "decodedMethod": {
                        "callParams": [
                            {
                                "name": "aggregatorId",
                                "type": "string",
                                "value": "pmmFeeDynamicv4"
                            },
                            {
                                "name": "tokenFrom",
                                "type": "address",
                                "value": "0x57e114b691db790c35207b2e685d4a43181e6061"
                            },
                            {
                                "name": "amount",
                                "type": "uint256",
                                "value": "800,000,000,000,000,000,000"
                            },
                            {
                                "name": "data",
                                "type": "bytes",
                                "value": "0x00000000000000000000000057e114b691db790c35207b2e685d4a43181e6061000000000000000000000000000000000000000000000000000000000000000000000000000000000000000000000000000000000000002b5e3af16b1880000000000000000000000000000000000000000000000000000002eac5aefae50afe00000000000000000000000000000000000000000000000000000000000001200000000000000000000000000000000000000000000000000006b9f9a4d340e5000000000000000000000000f326e4de8f66a0bdc0970b79e0924e33c79f1915000000000000000000000000000000000000000000000000000000000000000100000000000000000000000000000000000000000000000000000000000001e0000000000000000000000000c02aaa39b223fe8d0a0e5c4f27ead9083c756cc200000000000000000000000057e114b691db790c35207b2e685d4a43181e60610000000000000000000000000000000000000000000000000300bd29952aaf6000000000000000000000000000000000000000000000002b5e3af16b18800000000000000000000000000000a69babef1ca67a37ffaf7a485dfff3382056e78c00000000000000000000000074de5d4fcbf63e00296fd95d33236b97940166310000000000000000000000004e34408081cc2723771d0fbca3bdf0e9c96f4b3e00000000000000000000000000000000000000000000000000000000000000000000000000000000000000000000000000000000000000000000000066310d6801ffffffffffffffffffffffffffffffffffffff28fa5dd566310d04000000330000000000000000000000000000000000000000000000000000000000000003000000000000000000000000000000000000000000000000000000000000001bdc64972b01e146784783d7743b103b0fb1011bf2a2c68b60bdd034f03b57cd4c639564cf5711529f7c843130f43ffdc582761e08b7c8a5dc732cd9533ac6786d00000000000000000000000000000000000000000000002b5e3af16b18800000"
                            }
                        ],
                        "constructorArguments": "",
                        "name": "swap",
                        "returnParams": [],
                        "signature": "swap(string,address,uint256,bytes)"
                    },
                    "errorInfo": "",
                    "fromAddress": "0x4e34408081cc2723771d0fbca3bdf0e9c96f4b3e",
                    "gasUsed": 190945,
                    "id": 0,
                    "methodDecoded": true,
                    "operation": "CALL",
                    "output": "",
                    "revert": false,
                    "revertMessage": "",
                    "selector": "0x5f575529",
                    "status": true,
                    "value": "0"
                },
                "nodeType": 0
            },
            "1": {
                "invocation": {
                    "address": "0x57e114b691db790c35207b2e685d4a43181e6061",
                    "callData": "0x0000000000000000000000004e34408081cc2723771d0fbca3bdf0e9c96f4b3e00000000000000000000000074de5d4fcbf63e00296fd95d33236b979401663100000000000000000000000000000000000000000000002b5e3af16b18800000",
                    "decodedMethod": {
                        "callParams": [
                            {
                                "name": "from",
                                "type": "address",
                                "value": "0x4e34408081cc2723771d0fbca3bdf0e9c96f4b3e"
                            },
                            {
                                "name": "to",
                                "type": "address",
                                "value": "0x74de5d4fcbf63e00296fd95d33236b9794016631"
                            },
                            {
                                "decimalAvailable": true,
                                "name": "amount",
                                "type": "uint256",
                                "value": "800,000,000,000,000,000,000"
                            }
                        ],
                        "constructorArguments": "",
                        "name": "transferFrom",
                        "returnParams": [
                            {
                                "name": "",
                                "type": "bool",
                                "value": true
                            }
                        ],
                        "signature": "transferFrom(address,address,uint256)"
                    },
                    "errorInfo": "",
                    "fromAddress": "0x881d40237659c251811cec9c364ef91dc08d300c",
                    "gasUsed": 32145,
                    "id": 1,
                    "methodDecoded": true,
                    "operation": "CALL",
                    "output": "0x0000000000000000000000000000000000000000000000000000000000000001",
                    "revert": false,
                    "revertMessage": "",
                    "selector": "0x23b872dd",
                    "status": true,
                    "value": "0"
                },
                "nodeType": 0
            },
            "10": {
                "event": {
                    "contract": "0x57e114b691db790c35207b2e685d4a43181e6061",
                    "decodedLog": {
                        "name": "Transfer",
                        "params": [
                            {
                                "name": "from",
                                "type": "address",
                                "value": "0x74de5d4fcbf63e00296fd95d33236b9794016631"
                            },
                            {
                                "name": "to",
                                "type": "address",
                                "value": "0xa69babef1ca67a37ffaf7a485dfff3382056e78c"
                            },
                            {
                                "decimalAvailable": true,
                                "name": "value",
                                "type": "uint256",
                                "value": "800,000,000,000,000,000,000"
                            }
                        ],
                        "signature": "Transfer(address,address,uint256)"
                    },
                    "id": 10,
                    "logData": "0x00000000000000000000000000000000000000000000002b5e3af16b18800000",
                    "logDecoded": true,
                    "operation": "EVENT",
                    "revert": false,
                    "status": true,
                    "topics": [
                        "0xddf252ad1be2c89b69c2b068fc378daa952ba7f163c4a11628f55a4df523b3ef",
                        "0x00000000000000000000000074de5d4fcbf63e00296fd95d33236b9794016631",
                        "0x000000000000000000000000a69babef1ca67a37ffaf7a485dfff3382056e78c"
                    ]
                },
                "nodeType": 1
            },
            "11": {
                "invocation": {
                    "address": "0xc02aaa39b223fe8d0a0e5c4f27ead9083c756cc2",
                    "callData": "0x000000000000000000000000a69babef1ca67a37ffaf7a485dfff3382056e78c00000000000000000000000074de5d4fcbf63e00296fd95d33236b97940166310000000000000000000000000000000000000000000000000300bd29952aaf60",
                    "decodedMethod": {
                        "callParams": [
                            {
                                "name": "src",
                                "type": "address",
                                "value": "0xa69babef1ca67a37ffaf7a485dfff3382056e78c"
                            },
                            {
                                "name": "dst",
                                "type": "address",
                                "value": "0x74de5d4fcbf63e00296fd95d33236b9794016631"
                            },
                            {
                                "decimalAvailable": true,
                                "name": "wad",
                                "type": "uint256",
                                "value": "216,380,768,407,695,200"
                            }
                        ],
                        "constructorArguments": "",
                        "name": "transferFrom",
                        "returnParams": [
                            {
                                "name": "",
                                "type": "bool",
                                "value": true
                            }
                        ],
                        "signature": "transferFrom(address,address,uint256)"
                    },
                    "errorInfo": "",
                    "fromAddress": "0xdef1c0ded9bec7f1a1670819833240f027b25eff",
                    "gasUsed": 32125,
                    "id": 11,
                    "methodDecoded": true,
                    "operation": "CALL",
                    "output": "0x0000000000000000000000000000000000000000000000000000000000000001",
                    "revert": false,
                    "revertMessage": "",
                    "selector": "0x23b872dd",
                    "status": true,
                    "value": "0"
                },
                "nodeType": 0
            },
            "12": {
                "event": {
                    "contract": "0xc02aaa39b223fe8d0a0e5c4f27ead9083c756cc2",
                    "decodedLog": {
                        "name": "Transfer",
                        "params": [
                            {
                                "name": "src",
                                "type": "address",
                                "value": "0xa69babef1ca67a37ffaf7a485dfff3382056e78c"
                            },
                            {
                                "name": "dst",
                                "type": "address",
                                "value": "0x74de5d4fcbf63e00296fd95d33236b9794016631"
                            },
                            {
                                "decimalAvailable": true,
                                "name": "wad",
                                "type": "uint256",
                                "value": "216,380,768,407,695,200"
                            }
                        ],
                        "signature": "Transfer(address,address,uint256)"
                    },
                    "id": 12,
                    "logData": "0x0000000000000000000000000000000000000000000000000300bd29952aaf60",
                    "logDecoded": true,
                    "operation": "EVENT",
                    "revert": false,
                    "status": true,
                    "topics": [
                        "0xddf252ad1be2c89b69c2b068fc378daa952ba7f163c4a11628f55a4df523b3ef",
                        "0x000000000000000000000000a69babef1ca67a37ffaf7a485dfff3382056e78c",
                        "0x00000000000000000000000074de5d4fcbf63e00296fd95d33236b9794016631"
                    ]
                },
                "nodeType": 1
            },
            "13": {
                "event": {
                    "contract": "0xdef1c0ded9bec7f1a1670819833240f027b25eff",
                    "decodedLog": {
                        "name": "RfqOrderFilled",
                        "params": [
                            {
                                "name": "orderHash",
                                "type": "bytes32",
                                "value": "0xf898c9b76ff5857ef6eefa496a6aef8a2e37f526d0ac4258eae918d840470a88"
                            },
                            {
                                "name": "maker",
                                "type": "address",
                                "value": "0xa69babef1ca67a37ffaf7a485dfff3382056e78c"
                            },
                            {
                                "name": "taker",
                                "type": "address",
                                "value": "0x74de5d4fcbf63e00296fd95d33236b9794016631"
                            },
                            {
                                "name": "makerToken",
                                "type": "address",
                                "value": "0xc02aaa39b223fe8d0a0e5c4f27ead9083c756cc2"
                            },
                            {
                                "name": "takerToken",
                                "type": "address",
                                "value": "0x57e114b691db790c35207b2e685d4a43181e6061"
                            },
                            {
                                "name": "takerTokenFilledAmount",
                                "type": "uint128",
                                "value": "800,000,000,000,000,000,000"
                            },
                            {
                                "name": "makerTokenFilledAmount",
                                "type": "uint128",
                                "value": "216,380,768,407,695,200"
                            },
                            {
                                "name": "pool",
                                "type": "bytes32",
                                "value": "0x0000000000000000000000000000000000000000000000000000000000000000"
                            }
                        ],
                        "signature": "RfqOrderFilled(bytes32,address,address,address,address,uint128,uint128,bytes32)"
                    },
                    "id": 13,
                    "logData": "0xf898c9b76ff5857ef6eefa496a6aef8a2e37f526d0ac4258eae918d840470a88000000000000000000000000a69babef1ca67a37ffaf7a485dfff3382056e78c00000000000000000000000074de5d4fcbf63e00296fd95d33236b9794016631000000000000000000000000c02aaa39b223fe8d0a0e5c4f27ead9083c756cc200000000000000000000000057e114b691db790c35207b2e685d4a43181e606100000000000000000000000000000000000000000000002b5e3af16b188000000000000000000000000000000000000000000000000000000300bd29952aaf600000000000000000000000000000000000000000000000000000000000000000",
                    "logDecoded": true,
                    "operation": "EVENT",
                    "revert": false,
                    "status": true,
                    "topics": [
                        "0x829fa99d94dc4636925b38632e625736a614c154d55006b7ab6bea979c210c32"
                    ]
                },
                "nodeType": 1
            },
            "14": {
                "invocation": {
                    "address": "0xc02aaa39b223fe8d0a0e5c4f27ead9083c756cc2",
                    "callData": "0x0000000000000000000000000000000000000000000000000006b9f9a4d340e5",
                    "decodedMethod": {
                        "callParams": [
                            {
                                "name": "wad",
                                "type": "uint256",
                                "value": "1,893,331,723,567,333"
                            }
                        ],
                        "constructorArguments": "",
                        "name": "withdraw",
                        "returnParams": [],
                        "signature": "withdraw(uint256)"
                    },
                    "errorInfo": "",
                    "fromAddress": "0x74de5d4fcbf63e00296fd95d33236b9794016631",
                    "gasUsed": 9180,
                    "id": 14,
                    "methodDecoded": true,
                    "operation": "CALL",
                    "output": "",
                    "revert": false,
                    "revertMessage": "",
                    "selector": "0x2e1a7d4d",
                    "status": true,
                    "value": "0"
                },
                "nodeType": 0
            },
            "15": {
                "invocation": {
                    "address": "0x74de5d4fcbf63e00296fd95d33236b9794016631",
                    "callData": "0x",
                    "decodedMethod": null,
                    "errorInfo": "",
                    "fromAddress": "0xc02aaa39b223fe8d0a0e5c4f27ead9083c756cc2",
                    "gasUsed": 40,
                    "id": 15,
                    "methodDecoded": false,
                    "operation": "CALL",
                    "output": "",
                    "revert": false,
                    "revertMessage": "",
                    "selector": "fallback",
                    "status": true,
                    "value": "0.001893331723567333"
                },
                "nodeType": 0
            },
            "16": {
                "event": {
                    "contract": "0xc02aaa39b223fe8d0a0e5c4f27ead9083c756cc2",
                    "decodedLog": {
                        "name": "Withdrawal",
                        "params": [
                            {
                                "name": "src",
                                "type": "address",
                                "value": "0x74de5d4fcbf63e00296fd95d33236b9794016631"
                            },
                            {
                                "name": "wad",
                                "type": "uint256",
                                "value": "1,893,331,723,567,333"
                            }
                        ],
                        "signature": "Withdrawal(address,uint256)"
                    },
                    "id": 16,
                    "logData": "0x0000000000000000000000000000000000000000000000000006b9f9a4d340e5",
                    "logDecoded": true,
                    "operation": "EVENT",
                    "revert": false,
                    "status": true,
                    "topics": [
                        "0x7fcf532c15f0a6db0bd6d0e038bea71d30d808c7d98cb3bf7268a95bf5081b65",
                        "0x00000000000000000000000074de5d4fcbf63e00296fd95d33236b9794016631"
                    ]
                },
                "nodeType": 1
            },
            "17": {
                "invocation": {
                    "address": "0xf326e4de8f66a0bdc0970b79e0924e33c79f1915",
                    "callData": "0x",
                    "decodedMethod": null,
                    "errorInfo": "",
                    "fromAddress": "0x74de5d4fcbf63e00296fd95d33236b9794016631",
                    "gasUsed": 6329,
                    "id": 17,
                    "methodDecoded": false,
                    "operation": "CALL",
                    "output": "",
                    "revert": false,
                    "revertMessage": "",
                    "selector": "fallback",
                    "status": true,
                    "value": "0.001893331723567333"
                },
                "nodeType": 0
            },
            "18": {
                "invocation": {
                    "address": "0xd9db270c1b5e3bd161e8c8503c55ceabee709552",
                    "callData": "0x",
                    "decodedMethod": null,
                    "errorInfo": "",
                    "fromAddress": "0xf326e4de8f66a0bdc0970b79e0924e33c79f1915",
                    "gasUsed": 1504,
                    "id": 18,
                    "methodDecoded": false,
                    "operation": "DELEGATECALL",
                    "output": "",
                    "revert": false,
                    "revertMessage": "",
                    "selector": "fallback",
                    "status": true,
                    "value": "0.001893331723567333"
                },
                "nodeType": 0
            },
            "19": {
                "event": {
                    "contract": "0xf326e4de8f66a0bdc0970b79e0924e33c79f1915",
                    "decodedLog": {
                        "name": "SafeReceived",
                        "params": [
                            {
                                "name": "sender",
                                "type": "address",
                                "value": "0x74de5d4fcbf63e00296fd95d33236b9794016631"
                            },
                            {
                                "name": "value",
                                "type": "uint256",
                                "value": "1,893,331,723,567,333"
                            }
                        ],
                        "signature": "SafeReceived(address,uint256)"
                    },
                    "id": 19,
                    "logData": "0x0000000000000000000000000000000000000000000000000006b9f9a4d340e5",
                    "logDecoded": true,
                    "operation": "EVENT",
                    "revert": false,
                    "status": true,
                    "topics": [
                        "0x3d0ce9bfc3ed7d6862dbb28b2dea94561fe714a1b4d019aa8af39730d1ad7c3d",
                        "0x00000000000000000000000074de5d4fcbf63e00296fd95d33236b9794016631"
                    ]
                },
                "nodeType": 1
            },
            "2": {
                "event": {
                    "contract": "0x57e114b691db790c35207b2e685d4a43181e6061",
                    "decodedLog": {
                        "name": "Transfer",
                        "params": [
                            {
                                "name": "from",
                                "type": "address",
                                "value": "0x4e34408081cc2723771d0fbca3bdf0e9c96f4b3e"
                            },
                            {
                                "name": "to",
                                "type": "address",
                                "value": "0x74de5d4fcbf63e00296fd95d33236b9794016631"
                            },
                            {
                                "decimalAvailable": true,
                                "name": "value",
                                "type": "uint256",
                                "value": "800,000,000,000,000,000,000"
                            }
                        ],
                        "signature": "Transfer(address,address,uint256)"
                    },
                    "id": 2,
                    "logData": "0x00000000000000000000000000000000000000000000002b5e3af16b18800000",
                    "logDecoded": true,
                    "operation": "EVENT",
                    "revert": false,
                    "status": true,
                    "topics": [
                        "0xddf252ad1be2c89b69c2b068fc378daa952ba7f163c4a11628f55a4df523b3ef",
                        "0x0000000000000000000000004e34408081cc2723771d0fbca3bdf0e9c96f4b3e",
                        "0x00000000000000000000000074de5d4fcbf63e00296fd95d33236b9794016631"
                    ]
                },
                "nodeType": 1
            },
            "20": {
                "invocation": {
                    "address": "0x57e114b691db790c35207b2e685d4a43181e6061",
                    "callData": "0x00000000000000000000000074de5d4fcbf63e00296fd95d33236b9794016631",
                    "decodedMethod": {
                        "callParams": [
                            {
                                "name": "account",
                                "type": "address",
                                "value": "0x74de5d4fcbf63e00296fd95d33236b9794016631"
                            }
                        ],
                        "constructorArguments": "",
                        "name": "balanceOf",
                        "returnParams": [
                            {
                                "decimalAvailable": true,
                                "name": "",
                                "type": "uint256",
                                "value": "0"
                            }
                        ],
                        "signature": "balanceOf(address)"
                    },
                    "errorInfo": "",
                    "fromAddress": "0x74de5d4fcbf63e00296fd95d33236b9794016631",
                    "gasUsed": 577,
                    "id": 20,
                    "methodDecoded": true,
                    "operation": "STATICCALL",
                    "output": "0x0000000000000000000000000000000000000000000000000000000000000000",
                    "revert": false,
                    "revertMessage": "",
                    "selector": "0x70a08231",
                    "status": true,
                    "value": "0"
                },
                "nodeType": 0
            },
            "21": {
                "invocation": {
                    "address": "0xc02aaa39b223fe8d0a0e5c4f27ead9083c756cc2",
                    "callData": "0x00000000000000000000000074de5d4fcbf63e00296fd95d33236b9794016631",
                    "decodedMethod": {
                        "callParams": [
                            {
                                "name": "",
                                "type": "address",
                                "value": "0x74de5d4fcbf63e00296fd95d33236b9794016631"
                            }
                        ],
                        "constructorArguments": "",
                        "name": "balanceOf",
                        "returnParams": [
                            {
                                "decimalAvailable": true,
                                "name": "",
                                "type": "uint256",
                                "value": "214,487,436,684,127,867"
                            }
                        ],
                        "signature": "balanceOf(address)"
                    },
                    "errorInfo": "",
                    "fromAddress": "0x74de5d4fcbf63e00296fd95d33236b9794016631",
                    "gasUsed": 534,
                    "id": 21,
                    "methodDecoded": true,
                    "operation": "STATICCALL",
                    "output": "0x00000000000000000000000000000000000000000000000002fa032ff0576e7b",
                    "revert": false,
                    "revertMessage": "",
                    "selector": "0x70a08231",
                    "status": true,
                    "value": "0"
                },
                "nodeType": 0
            },
            "22": {
                "invocation": {
                    "address": "0xc02aaa39b223fe8d0a0e5c4f27ead9083c756cc2",
                    "callData": "0x00000000000000000000000000000000000000000000000002fa032ff0576e7b",
                    "decodedMethod": {
                        "callParams": [
                            {
                                "name": "wad",
                                "type": "uint256",
                                "value": "214,487,436,684,127,867"
                            }
                        ],
                        "constructorArguments": "",
                        "name": "withdraw",
                        "returnParams": [],
                        "signature": "withdraw(uint256)"
                    },
                    "errorInfo": "",
                    "fromAddress": "0x74de5d4fcbf63e00296fd95d33236b9794016631",
                    "gasUsed": 9180,
                    "id": 22,
                    "methodDecoded": true,
                    "operation": "CALL",
                    "output": "",
                    "revert": false,
                    "revertMessage": "",
                    "selector": "0x2e1a7d4d",
                    "status": true,
                    "value": "0"
                },
                "nodeType": 0
            },
            "23": {
                "invocation": {
                    "address": "0x74de5d4fcbf63e00296fd95d33236b9794016631",
                    "callData": "0x",
                    "decodedMethod": null,
                    "errorInfo": "",
                    "fromAddress": "0xc02aaa39b223fe8d0a0e5c4f27ead9083c756cc2",
                    "gasUsed": 40,
                    "id": 23,
                    "methodDecoded": false,
                    "operation": "CALL",
                    "output": "",
                    "revert": false,
                    "revertMessage": "",
                    "selector": "fallback",
                    "status": true,
                    "value": "0.214487436684127867"
                },
                "nodeType": 0
            },
            "24": {
                "event": {
                    "contract": "0xc02aaa39b223fe8d0a0e5c4f27ead9083c756cc2",
                    "decodedLog": {
                        "name": "Withdrawal",
                        "params": [
                            {
                                "name": "src",
                                "type": "address",
                                "value": "0x74de5d4fcbf63e00296fd95d33236b9794016631"
                            },
                            {
                                "name": "wad",
                                "type": "uint256",
                                "value": "214,487,436,684,127,867"
                            }
                        ],
                        "signature": "Withdrawal(address,uint256)"
                    },
                    "id": 24,
                    "logData": "0x00000000000000000000000000000000000000000000000002fa032ff0576e7b",
                    "logDecoded": true,
                    "operation": "EVENT",
                    "revert": false,
                    "status": true,
                    "topics": [
                        "0x7fcf532c15f0a6db0bd6d0e038bea71d30d808c7d98cb3bf7268a95bf5081b65",
                        "0x00000000000000000000000074de5d4fcbf63e00296fd95d33236b9794016631"
                    ]
                },
                "nodeType": 1
            },
            "25": {
                "invocation": {
                    "address": "0x4e34408081cc2723771d0fbca3bdf0e9c96f4b3e",
                    "callData": "0x",
                    "decodedMethod": null,
                    "errorInfo": "",
                    "fromAddress": "0x74de5d4fcbf63e00296fd95d33236b9794016631",
                    "gasUsed": 0,
                    "id": 25,
                    "methodDecoded": false,
                    "operation": "CALL",
                    "output": "",
                    "revert": false,
                    "revertMessage": "",
                    "selector": "fallback",
                    "status": true,
                    "value": "0.214487436684127867"
                },
                "nodeType": 0
            },
            "26": {
                "event": {
                    "contract": "0x881d40237659c251811cec9c364ef91dc08d300c",
                    "decodedLog": {
                        "name": "Swap",
                        "params": [
                            {
                                "name": "aggregatorId",
                                "type": "string",
                                "value": "0x62db2e87ad4360c521a990935f97f7c44833c4f99a8f1c09129331715b07f525"
                            },
                            {
                                "name": "sender",
                                "type": "address",
                                "value": "0x4e34408081cc2723771d0fbca3bdf0e9c96f4b3e"
                            }
                        ],
                        "signature": "Swap(string,address)"
                    },
                    "id": 26,
                    "logData": "0x",
                    "logDecoded": true,
                    "operation": "EVENT",
                    "revert": false,
                    "status": true,
                    "topics": [
                        "0xbeee1e6e7fe307ddcf84b0a16137a4430ad5e2480fc4f4a8e250ab56ccd7630d",
                        "0x62db2e87ad4360c521a990935f97f7c44833c4f99a8f1c09129331715b07f525",
                        "0x0000000000000000000000004e34408081cc2723771d0fbca3bdf0e9c96f4b3e"
                    ]
                },
                "nodeType": 1
            },
            "3": {
                "invocation": {
                    "address": "0x74de5d4fcbf63e00296fd95d33236b9794016631",
                    "callData": "0x0000000000000000000000007bba8bd42a19da78326be908e2cd52604399a7480000000000000000000000000000000000000000000000000000000000000040000000000000000000000000000000000000000000000000000000000000032492f5f0370000000000000000000000004e34408081cc2723771d0fbca3bdf0e9c96f4b3e00000000000000000000000057e114b691db790c35207b2e685d4a43181e6061000000000000000000000000000000000000000000000000000000000000000000000000000000000000000000000000000000000000002b5e3af16b1880000000000000000000000000000000000000000000000000000002eac5aefae50afe00000000000000000000000000000000000000000000000000000000000001200000000000000000000000000000000000000000000000000006b9f9a4d340e5000000000000000000000000f326e4de8f66a0bdc0970b79e0924e33c79f1915000000000000000000000000000000000000000000000000000000000000000100000000000000000000000000000000000000000000000000000000000001e0000000000000000000000000c02aaa39b223fe8d0a0e5c4f27ead9083c756cc200000000000000000000000057e114b691db790c35207b2e685d4a43181e60610000000000000000000000000000000000000000000000000300bd29952aaf6000000000000000000000000000000000000000000000002b5e3af16b18800000000000000000000000000000a69babef1ca67a37ffaf7a485dfff3382056e78c00000000000000000000000074de5d4fcbf63e00296fd95d33236b97940166310000000000000000000000004e34408081cc2723771d0fbca3bdf0e9c96f4b3e00000000000000000000000000000000000000000000000000000000000000000000000000000000000000000000000000000000000000000000000066310d6801ffffffffffffffffffffffffffffffffffffff28fa5dd566310d04000000330000000000000000000000000000000000000000000000000000000000000003000000000000000000000000000000000000000000000000000000000000001bdc64972b01e146784783d7743b103b0fb1011bf2a2c68b60bdd034f03b57cd4c639564cf5711529f7c843130f43ffdc582761e08b7c8a5dc732cd9533ac6786d00000000000000000000000000000000000000000000002b5e3af16b1880000000000000000000000000000000000000000000000000000000000000",
                    "decodedMethod": {
                        "callParams": [
                            {
                                "name": "adapter",
                                "type": "address",
                                "value": "0x7bba8bd42a19da78326be908e2cd52604399a748"
                            },
                            {
                                "name": "data",
                                "type": "bytes",
                                "value": "0x92f5f0370000000000000000000000004e34408081cc2723771d0fbca3bdf0e9c96f4b3e00000000000000000000000057e114b691db790c35207b2e685d4a43181e6061000000000000000000000000000000000000000000000000000000000000000000000000000000000000000000000000000000000000002b5e3af16b1880000000000000000000000000000000000000000000000000000002eac5aefae50afe00000000000000000000000000000000000000000000000000000000000001200000000000000000000000000000000000000000000000000006b9f9a4d340e5000000000000000000000000f326e4de8f66a0bdc0970b79e0924e33c79f1915000000000000000000000000000000000000000000000000000000000000000100000000000000000000000000000000000000000000000000000000000001e0000000000000000000000000c02aaa39b223fe8d0a0e5c4f27ead9083c756cc200000000000000000000000057e114b691db790c35207b2e685d4a43181e60610000000000000000000000000000000000000000000000000300bd29952aaf6000000000000000000000000000000000000000000000002b5e3af16b18800000000000000000000000000000a69babef1ca67a37ffaf7a485dfff3382056e78c00000000000000000000000074de5d4fcbf63e00296fd95d33236b97940166310000000000000000000000004e34408081cc2723771d0fbca3bdf0e9c96f4b3e00000000000000000000000000000000000000000000000000000000000000000000000000000000000000000000000000000000000000000000000066310d6801ffffffffffffffffffffffffffffffffffffff28fa5dd566310d04000000330000000000000000000000000000000000000000000000000000000000000003000000000000000000000000000000000000000000000000000000000000001bdc64972b01e146784783d7743b103b0fb1011bf2a2c68b60bdd034f03b57cd4c639564cf5711529f7c843130f43ffdc582761e08b7c8a5dc732cd9533ac6786d00000000000000000000000000000000000000000000002b5e3af16b18800000"
                            }
                        ],
                        "constructorArguments": "",
                        "name": "swap",
                        "returnParams": [],
                        "signature": "swap(address,bytes)"
                    },
                    "errorInfo": "",
                    "fromAddress": "0x881d40237659c251811cec9c364ef91dc08d300c",
                    "gasUsed": 148703,
                    "id": 3,
                    "methodDecoded": true,
                    "operation": "CALL",
                    "output": "",
                    "revert": false,
                    "revertMessage": "",
                    "selector": "0xe3547335",
                    "status": true,
                    "value": "0"
                },
                "nodeType": 0
            },
            "4": {
                "invocation": {
                    "address": "0x7bba8bd42a19da78326be908e2cd52604399a748",
                    "callData": "0x0000000000000000000000004e34408081cc2723771d0fbca3bdf0e9c96f4b3e00000000000000000000000057e114b691db790c35207b2e685d4a43181e6061000000000000000000000000000000000000000000000000000000000000000000000000000000000000000000000000000000000000002b5e3af16b1880000000000000000000000000000000000000000000000000000002eac5aefae50afe00000000000000000000000000000000000000000000000000000000000001200000000000000000000000000000000000000000000000000006b9f9a4d340e5000000000000000000000000f326e4de8f66a0bdc0970b79e0924e33c79f1915000000000000000000000000000000000000000000000000000000000000000100000000000000000000000000000000000000000000000000000000000001e0000000000000000000000000c02aaa39b223fe8d0a0e5c4f27ead9083c756cc200000000000000000000000057e114b691db790c35207b2e685d4a43181e60610000000000000000000000000000000000000000000000000300bd29952aaf6000000000000000000000000000000000000000000000002b5e3af16b18800000000000000000000000000000a69babef1ca67a37ffaf7a485dfff3382056e78c00000000000000000000000074de5d4fcbf63e00296fd95d33236b97940166310000000000000000000000004e34408081cc2723771d0fbca3bdf0e9c96f4b3e00000000000000000000000000000000000000000000000000000000000000000000000000000000000000000000000000000000000000000000000066310d6801ffffffffffffffffffffffffffffffffffffff28fa5dd566310d04000000330000000000000000000000000000000000000000000000000000000000000003000000000000000000000000000000000000000000000000000000000000001bdc64972b01e146784783d7743b103b0fb1011bf2a2c68b60bdd034f03b57cd4c639564cf5711529f7c843130f43ffdc582761e08b7c8a5dc732cd9533ac6786d00000000000000000000000000000000000000000000002b5e3af16b18800000",
                    "decodedMethod": null,
                    "errorInfo": "",
                    "fromAddress": "0x74de5d4fcbf63e00296fd95d33236b9794016631",
                    "gasUsed": 142872,
                    "id": 4,
                    "methodDecoded": false,
                    "operation": "DELEGATECALL",
                    "output": "",
                    "revert": false,
                    "revertMessage": "",
                    "selector": "0x92f5f037",
                    "status": true,
                    "value": "0"
                },
                "nodeType": 0
            },
            "5": {
                "invocation": {
                    "address": "0x57e114b691db790c35207b2e685d4a43181e6061",
                    "callData": "0x00000000000000000000000074de5d4fcbf63e00296fd95d33236b9794016631000000000000000000000000def1c0ded9bec7f1a1670819833240f027b25eff",
                    "decodedMethod": {
                        "callParams": [
                            {
                                "name": "owner",
                                "type": "address",
                                "value": "0x74de5d4fcbf63e00296fd95d33236b9794016631"
                            },
                            {
                                "name": "spender",
                                "type": "address",
                                "value": "0xdef1c0ded9bec7f1a1670819833240f027b25eff"
                            }
                        ],
                        "constructorArguments": "",
                        "name": "allowance",
                        "returnParams": [
                            {
                                "decimalAvailable": true,
                                "name": "",
                                "type": "uint256",
                                "value": "115,792,089,237,316,195,423,570,985,008,687,907,853,269,984,665,640,564,039,457,584,007,913,129,639,935"
                            }
                        ],
                        "signature": "allowance(address,address)"
                    },
                    "errorInfo": "",
                    "fromAddress": "0x74de5d4fcbf63e00296fd95d33236b9794016631",
                    "gasUsed": 2731,
                    "id": 5,
                    "methodDecoded": true,
                    "operation": "STATICCALL",
                    "output": "0xffffffffffffffffffffffffffffffffffffffffffffffffffffffffffffffff",
                    "revert": false,
                    "revertMessage": "",
                    "selector": "0xdd62ed3e",
                    "status": true,
                    "value": "0"
                },
                "nodeType": 0
            },
            "6": {
                "invocation": {
                    "address": "0xdef1c0ded9bec7f1a1670819833240f027b25eff",
                    "callData": "0x000000000000000000000000c02aaa39b223fe8d0a0e5c4f27ead9083c756cc200000000000000000000000057e114b691db790c35207b2e685d4a43181e60610000000000000000000000000000000000000000000000000300bd29952aaf6000000000000000000000000000000000000000000000002b5e3af16b18800000000000000000000000000000a69babef1ca67a37ffaf7a485dfff3382056e78c00000000000000000000000074de5d4fcbf63e00296fd95d33236b97940166310000000000000000000000004e34408081cc2723771d0fbca3bdf0e9c96f4b3e00000000000000000000000000000000000000000000000000000000000000000000000000000000000000000000000000000000000000000000000066310d6801ffffffffffffffffffffffffffffffffffffff28fa5dd566310d04000000330000000000000000000000000000000000000000000000000000000000000003000000000000000000000000000000000000000000000000000000000000001bdc64972b01e146784783d7743b103b0fb1011bf2a2c68b60bdd034f03b57cd4c639564cf5711529f7c843130f43ffdc582761e08b7c8a5dc732cd9533ac6786d00000000000000000000000000000000000000000000002b5e3af16b18800000",
                    "decodedMethod": {
                        "callParams": [
                            {
                                "name": "order",
                                "type": "(address,address,uint128,uint128,address,address,address,bytes32,uint64,uint256)",
                                "value": [
                                    {
                                        "name": "makerToken",
                                        "type": "address",
                                        "value": "0xc02aaa39b223fe8d0a0e5c4f27ead9083c756cc2"
                                    },
                                    {
                                        "name": "takerToken",
                                        "type": "address",
                                        "value": "0x57e114b691db790c35207b2e685d4a43181e6061"
                                    },
                                    {
                                        "name": "makerAmount",
                                        "type": "uint128",
                                        "value": "216,380,768,407,695,200"
                                    },
                                    {
                                        "name": "takerAmount",
                                        "type": "uint128",
                                        "value": "800,000,000,000,000,000,000"
                                    },
                                    {
                                        "name": "maker",
                                        "type": "address",
                                        "value": "0xa69babef1ca67a37ffaf7a485dfff3382056e78c"
                                    },
                                    {
                                        "name": "taker",
                                        "type": "address",
                                        "value": "0x74de5d4fcbf63e00296fd95d33236b9794016631"
                                    },
                                    {
                                        "name": "txOrigin",
                                        "type": "address",
                                        "value": "0x4e34408081cc2723771d0fbca3bdf0e9c96f4b3e"
                                    },
                                    {
                                        "name": "pool",
                                        "type": "bytes32",
                                        "value": "0x0000000000000000000000000000000000000000000000000000000000000000"
                                    },
                                    {
                                        "name": "expiry",
                                        "type": "uint64",
                                        "value": "1,714,490,728"
                                    },
                                    {
                                        "name": "salt",
                                        "type": "uint256",
                                        "value": "904,625,697,166,532,776,746,648,320,380,374,280,103,671,755,133,770,819,008,358,573,264,643,031,091"
                                    }
                                ]
                            },
                            {
                                "name": "signature",
                                "type": "(uint8,uint8,bytes32,bytes32)",
                                "value": [
                                    {
                                        "name": "signatureType",
                                        "type": "uint8",
                                        "value": "3"
                                    },
                                    {
                                        "name": "v",
                                        "type": "uint8",
                                        "value": "27"
                                    },
                                    {
                                        "name": "r",
                                        "type": "bytes32",
                                        "value": "0xdc64972b01e146784783d7743b103b0fb1011bf2a2c68b60bdd034f03b57cd4c"
                                    },
                                    {
                                        "name": "s",
                                        "type": "bytes32",
                                        "value": "0x639564cf5711529f7c843130f43ffdc582761e08b7c8a5dc732cd9533ac6786d"
                                    }
                                ]
                            },
                            {
                                "name": "takerTokenFillAmount",
                                "type": "uint128",
                                "value": "800,000,000,000,000,000,000"
                            }
                        ],
                        "constructorArguments": "",
                        "name": "fillRfqOrder",
                        "returnParams": [
                            {
                                "name": "takerTokenFilledAmount",
                                "type": "uint128",
                                "value": "800,000,000,000,000,000,000"
                            },
                            {
                                "name": "makerTokenFilledAmount",
                                "type": "uint128",
                                "value": "216,380,768,407,695,200"
                            }
                        ],
                        "signature": "fillRfqOrder((address,address,uint128,uint128,address,address,address,bytes32,uint64,uint256),(uint8,uint8,bytes32,bytes32),uint128)"
                    },
                    "errorInfo": "",
                    "fromAddress": "0x74de5d4fcbf63e00296fd95d33236b9794016631",
                    "gasUsed": 89611,
                    "id": 6,
                    "methodDecoded": true,
                    "operation": "CALL",
                    "output": "0x00000000000000000000000000000000000000000000002b5e3af16b188000000000000000000000000000000000000000000000000000000300bd29952aaf60",
                    "revert": false,
                    "revertMessage": "",
                    "selector": "0xaa77476c",
                    "status": true,
                    "value": "0"
                },
                "nodeType": 0
            },
            "7": {
                "invocation": {
                    "address": "0x1fcc3e6f76f7a96cd2b9d09f1d3c041ca1403c57",
                    "callData": "0x000000000000000000000000c02aaa39b223fe8d0a0e5c4f27ead9083c756cc200000000000000000000000057e114b691db790c35207b2e685d4a43181e60610000000000000000000000000000000000000000000000000300bd29952aaf6000000000000000000000000000000000000000000000002b5e3af16b18800000000000000000000000000000a69babef1ca67a37ffaf7a485dfff3382056e78c00000000000000000000000074de5d4fcbf63e00296fd95d33236b97940166310000000000000000000000004e34408081cc2723771d0fbca3bdf0e9c96f4b3e00000000000000000000000000000000000000000000000000000000000000000000000000000000000000000000000000000000000000000000000066310d6801ffffffffffffffffffffffffffffffffffffff28fa5dd566310d04000000330000000000000000000000000000000000000000000000000000000000000003000000000000000000000000000000000000000000000000000000000000001bdc64972b01e146784783d7743b103b0fb1011bf2a2c68b60bdd034f03b57cd4c639564cf5711529f7c843130f43ffdc582761e08b7c8a5dc732cd9533ac6786d00000000000000000000000000000000000000000000002b5e3af16b18800000",
                    "decodedMethod": {
                        "callParams": [
                            {
                                "name": "order",
                                "type": "(address,address,uint128,uint128,address,address,address,bytes32,uint64,uint256)",
                                "value": [
                                    {
                                        "name": "makerToken",
                                        "type": "address",
                                        "value": "0xc02aaa39b223fe8d0a0e5c4f27ead9083c756cc2"
                                    },
                                    {
                                        "name": "takerToken",
                                        "type": "address",
                                        "value": "0x57e114b691db790c35207b2e685d4a43181e6061"
                                    },
                                    {
                                        "name": "makerAmount",
                                        "type": "uint128",
                                        "value": "216,380,768,407,695,200"
                                    },
                                    {
                                        "name": "takerAmount",
                                        "type": "uint128",
                                        "value": "800,000,000,000,000,000,000"
                                    },
                                    {
                                        "name": "maker",
                                        "type": "address",
                                        "value": "0xa69babef1ca67a37ffaf7a485dfff3382056e78c"
                                    },
                                    {
                                        "name": "taker",
                                        "type": "address",
                                        "value": "0x74de5d4fcbf63e00296fd95d33236b9794016631"
                                    },
                                    {
                                        "name": "txOrigin",
                                        "type": "address",
                                        "value": "0x4e34408081cc2723771d0fbca3bdf0e9c96f4b3e"
                                    },
                                    {
                                        "name": "pool",
                                        "type": "bytes32",
                                        "value": "0x0000000000000000000000000000000000000000000000000000000000000000"
                                    },
                                    {
                                        "name": "expiry",
                                        "type": "uint64",
                                        "value": "1,714,490,728"
                                    },
                                    {
                                        "name": "salt",
                                        "type": "uint256",
                                        "value": "904,625,697,166,532,776,746,648,320,380,374,280,103,671,755,133,770,819,008,358,573,264,643,031,091"
                                    }
                                ]
                            },
                            {
                                "name": "signature",
                                "type": "(uint8,uint8,bytes32,bytes32)",
                                "value": [
                                    {
                                        "name": "signatureType",
                                        "type": "uint8",
                                        "value": "3"
                                    },
                                    {
                                        "name": "v",
                                        "type": "uint8",
                                        "value": "27"
                                    },
                                    {
                                        "name": "r",
                                        "type": "bytes32",
                                        "value": "0xdc64972b01e146784783d7743b103b0fb1011bf2a2c68b60bdd034f03b57cd4c"
                                    },
                                    {
                                        "name": "s",
                                        "type": "bytes32",
                                        "value": "0x639564cf5711529f7c843130f43ffdc582761e08b7c8a5dc732cd9533ac6786d"
                                    }
                                ]
                            },
                            {
                                "name": "takerTokenFillAmount",
                                "type": "uint128",
                                "value": "800,000,000,000,000,000,000"
                            }
                        ],
                        "constructorArguments": "",
                        "name": "fillRfqOrder",
                        "returnParams": [
                            {
                                "name": "takerTokenFilledAmount",
                                "type": "uint128",
                                "value": "800,000,000,000,000,000,000"
                            },
                            {
                                "name": "makerTokenFilledAmount",
                                "type": "uint128",
                                "value": "216,380,768,407,695,200"
                            }
                        ],
                        "signature": "fillRfqOrder((address,address,uint128,uint128,address,address,address,bytes32,uint64,uint256),(uint8,uint8,bytes32,bytes32),uint128)"
                    },
                    "errorInfo": "",
                    "fromAddress": "0xdef1c0ded9bec7f1a1670819833240f027b25eff",
                    "gasUsed": 83781,
                    "id": 7,
                    "methodDecoded": true,
                    "operation": "DELEGATECALL",
                    "output": "0x00000000000000000000000000000000000000000000002b5e3af16b188000000000000000000000000000000000000000000000000000000300bd29952aaf60",
                    "revert": false,
                    "revertMessage": "",
                    "selector": "0xaa77476c",
                    "status": true,
                    "value": "0"
                },
                "nodeType": 0
            },
            "8": {
                "invocation": {
                    "address": "0x0000000000000000000000000000000000000001",
                    "callData": "0x5dc0a502773a3ecbdbf8460db5032048459ef37e09a5ff4b42ceabf5000000000000000000000000000000000000000000000000000000000000001bdc64972b01e146784783d7743b103b0fb1011bf2a2c68b60bdd034f03b57cd4c639564cf5711529f7c843130f43ffdc582761e08b7c8a5dc732cd9533ac6786d",
                    "decodedMethod": {
                        "callParams": [
                            {
                                "name": "hash",
                                "type": "bytes32",
                                "value": "0x5f0dfb9b5dc0a502773a3ecbdbf8460db5032048459ef37e09a5ff4b42ceabf5"
                            },
                            {
                                "name": "v",
                                "type": "uint256",
                                "value": "27"
                            },
                            {
                                "name": "r",
                                "type": "bytes32",
                                "value": "0xdc64972b01e146784783d7743b103b0fb1011bf2a2c68b60bdd034f03b57cd4c"
                            },
                            {
                                "name": "s",
                                "type": "bytes32",
                                "value": "0x639564cf5711529f7c843130f43ffdc582761e08b7c8a5dc732cd9533ac6786d"
                            }
                        ],
                        "constructorArguments": "",
                        "name": "ecrecover",
                        "returnParams": [
                            {
                                "name": "",
                                "type": "address",
                                "value": "0xb691f44f4ba2033d45e05e8a3c509ab776d4c90b"
                            }
                        ],
                        "signature": "ecrecover(bytes32,uint256,bytes32,bytes32)"
                    },
                    "errorInfo": "",
                    "fromAddress": "0xdef1c0ded9bec7f1a1670819833240f027b25eff",
                    "gasUsed": 3000,
                    "id": 8,
                    "methodDecoded": true,
                    "operation": "STATICCALL",
                    "output": "0x000000000000000000000000b691f44f4ba2033d45e05e8a3c509ab776d4c90b",
                    "revert": false,
                    "revertMessage": "",
                    "selector": "0x5f0dfb9b",
                    "status": true,
                    "value": "0"
                },
                "nodeType": 0
            },
            "9": {
                "invocation": {
                    "address": "0x57e114b691db790c35207b2e685d4a43181e6061",
                    "callData": "0x00000000000000000000000074de5d4fcbf63e00296fd95d33236b9794016631000000000000000000000000a69babef1ca67a37ffaf7a485dfff3382056e78c00000000000000000000000000000000000000000000002b5e3af16b18800000",
                    "decodedMethod": {
                        "callParams": [
                            {
                                "name": "from",
                                "type": "address",
                                "value": "0x74de5d4fcbf63e00296fd95d33236b9794016631"
                            },
                            {
                                "name": "to",
                                "type": "address",
                                "value": "0xa69babef1ca67a37ffaf7a485dfff3382056e78c"
                            },
                            {
                                "decimalAvailable": true,
                                "name": "amount",
                                "type": "uint256",
                                "value": "800,000,000,000,000,000,000"
                            }
                        ],
                        "constructorArguments": "",
                        "name": "transferFrom",
                        "returnParams": [
                            {
                                "name": "",
                                "type": "bool",
                                "value": true
                            }
                        ],
                        "signature": "transferFrom(address,address,uint256)"
                    },
                    "errorInfo": "",
                    "fromAddress": "0xdef1c0ded9bec7f1a1670819833240f027b25eff",
                    "gasUsed": 8245,
                    "id": 9,
                    "methodDecoded": true,
                    "operation": "CALL",
                    "output": "0x0000000000000000000000000000000000000000000000000000000000000001",
                    "revert": false,
                    "revertMessage": "",
                    "selector": "0x23b872dd",
                    "status": true,
                    "value": "0"
                },
                "nodeType": 0
            }
        },
        "gasFlame": [
            {
                "children": [
                    {
                        "children": [
                            {
                                "children": [],
                                "depth": 0,
                                "name": "Initial Gas",
                                "value": 29048
                            },
                            {
                                "children": [
                                    {
                                        "children": [],
                                        "depth": 1,
                                        "name": "transferFrom",
                                        "value": 32145
                                    },
                                    {
                                        "children": [
                                            {
                                                "children": [
                                                    {
                                                        "children": [],
                                                        "depth": 3,
                                                        "name": "allowance",
                                                        "value": 2731
                                                    },
                                                    {
                                                        "children": [
                                                            {
                                                                "children": [
                                                                    {
                                                                        "children": [],
                                                                        "depth": 5,
                                                                        "name": "ecrecover",
                                                                        "value": 3000
                                                                    },
                                                                    {
                                                                        "children": [],
                                                                        "depth": 5,
                                                                        "name": "transferFrom",
                                                                        "value": 8245
                                                                    },
                                                                    {
                                                                        "children": [],
                                                                        "depth": 5,
                                                                        "name": "transferFrom",
                                                                        "value": 32125
                                                                    }
                                                                ],
                                                                "depth": 4,
                                                                "name": "fillRfqOrder",
                                                                "value": 83781
                                                            }
                                                        ],
                                                        "depth": 3,
                                                        "name": "fillRfqOrder",
                                                        "value": 89611
                                                    },
                                                    {
                                                        "children": [
                                                            {
                                                                "children": [],
                                                                "depth": 4,
                                                                "name": "fallback",
                                                                "value": 40
                                                            }
                                                        ],
                                                        "depth": 3,
                                                        "name": "withdraw",
                                                        "value": 9180
                                                    },
                                                    {
                                                        "children": [
                                                            {
                                                                "children": [],
                                                                "depth": 4,
                                                                "name": "fallback",
                                                                "value": 1504
                                                            }
                                                        ],
                                                        "depth": 3,
                                                        "name": "fallback",
                                                        "value": 6329
                                                    },
                                                    {
                                                        "children": [],
                                                        "depth": 3,
                                                        "name": "balanceOf",
                                                        "value": 577
                                                    },
                                                    {
                                                        "children": [],
                                                        "depth": 3,
                                                        "name": "balanceOf",
                                                        "value": 534
                                                    },
                                                    {
                                                        "children": [
                                                            {
                                                                "children": [],
                                                                "depth": 4,
                                                                "name": "fallback",
                                                                "value": 40
                                                            }
                                                        ],
                                                        "depth": 3,
                                                        "name": "withdraw",
                                                        "value": 9180
                                                    },
                                                    {
                                                        "children": [],
                                                        "depth": 3,
                                                        "name": "fallback",
                                                        "value": 0
                                                    }
                                                ],
                                                "depth": 2,
                                                "name": "0x92f5f037",
                                                "value": 142872
                                            }
                                        ],
                                        "depth": 1,
                                        "name": "swap",
                                        "value": 148703
                                    }
                                ],
                                "depth": 0,
                                "name": "Executed Gas",
                                "value": 204497
                            }
                        ],
                        "depth": -1,
                        "name": "Actual Gas Used",
                        "value": 190945
                    },
                    {
                        "children": [],
                        "depth": -1,
                        "name": "Refunded Gas",
                        "value": 42600
                    }
                ],
                "depth": -2,
                "name": "Total Gas",
                "value": 233545
            }
        ],
        "isConfirmed": true,
        "mainTrace": [
            {
                "children": [
                    {
                        "children": [
                            {
                                "children": [
                                    {
                                        "children": [],
                                        "depth": 2,
                                        "id": 2,
                                        "order": 2
                                    }
                                ],
                                "depth": 1,
                                "id": 1,
                                "order": 1
                            },
                            {
                                "children": [
                                    {
                                        "children": [
                                            {
                                                "children": [],
                                                "depth": 3,
                                                "id": 5,
                                                "order": 5
                                            },
                                            {
                                                "children": [
                                                    {
                                                        "children": [
                                                            {
                                                                "children": [],
                                                                "depth": 5,
                                                                "id": 8,
                                                                "order": 8
                                                            },
                                                            {
                                                                "children": [
                                                                    {
                                                                        "children": [],
                                                                        "depth": 6,
                                                                        "id": 10,
                                                                        "order": 10
                                                                    }
                                                                ],
                                                                "depth": 5,
                                                                "id": 9,
                                                                "order": 9
                                                            },
                                                            {
                                                                "children": [
                                                                    {
                                                                        "children": [],
                                                                        "depth": 6,
                                                                        "id": 12,
                                                                        "order": 12
                                                                    }
                                                                ],
                                                                "depth": 5,
                                                                "id": 11,
                                                                "order": 11
                                                            },
                                                            {
                                                                "children": [],
                                                                "depth": 5,
                                                                "id": 13,
                                                                "order": 13
                                                            }
                                                        ],
                                                        "depth": 4,
                                                        "id": 7,
                                                        "order": 7
                                                    }
                                                ],
                                                "depth": 3,
                                                "id": 6,
                                                "order": 6
                                            },
                                            {
                                                "children": [
                                                    {
                                                        "children": [],
                                                        "depth": 4,
                                                        "id": 15,
                                                        "order": 15
                                                    },
                                                    {
                                                        "children": [],
                                                        "depth": 4,
                                                        "id": 16,
                                                        "order": 16
                                                    }
                                                ],
                                                "depth": 3,
                                                "id": 14,
                                                "order": 14
                                            },
                                            {
                                                "children": [
                                                    {
                                                        "children": [
                                                            {
                                                                "children": [],
                                                                "depth": 5,
                                                                "id": 19,
                                                                "order": 19
                                                            }
                                                        ],
                                                        "depth": 4,
                                                        "id": 18,
                                                        "order": 18
                                                    }
                                                ],
                                                "depth": 3,
                                                "id": 17,
                                                "order": 17
                                            },
                                            {
                                                "children": [],
                                                "depth": 3,
                                                "id": 20,
                                                "order": 20
                                            },
                                            {
                                                "children": [],
                                                "depth": 3,
                                                "id": 21,
                                                "order": 21
                                            },
                                            {
                                                "children": [
                                                    {
                                                        "children": [],
                                                        "depth": 4,
                                                        "id": 23,
                                                        "order": 23
                                                    },
                                                    {
                                                        "children": [],
                                                        "depth": 4,
                                                        "id": 24,
                                                        "order": 24
                                                    }
                                                ],
                                                "depth": 3,
                                                "id": 22,
                                                "order": 22
                                            },
                                            {
                                                "children": [],
                                                "depth": 3,
                                                "id": 25,
                                                "order": 25
                                            }
                                        ],
                                        "depth": 2,
                                        "id": 4,
                                        "order": 4
                                    }
                                ],
                                "depth": 1,
                                "id": 3,
                                "order": 3
                            },
                            {
                                "children": [],
                                "depth": 1,
                                "id": 26,
                                "order": 26
                            }
                        ],
                        "depth": 0,
                        "id": 0,
                        "order": 0
                    }
                ],
                "depth": -1,
                "id": -1,
                "order": -1
            }
        ],
        "mainTraceNodeCount": 27,
        "parentIdMap": {
            "0": -1,
            "1": 0,
            "10": 9,
            "11": 7,
            "12": 11,
            "13": 7,
            "14": 4,
            "15": 14,
            "16": 14,
            "17": 4,
            "18": 17,
            "19": 18,
            "2": 1,
            "20": 4,
            "21": 4,
            "22": 4,
            "23": 22,
            "24": 22,
            "25": 4,
            "26": 0,
            "3": 0,
            "4": 3,
            "5": 4,
            "6": 4,
            "7": 6,
            "8": 7,
            "9": 7
        },
        "tidyTrace": [
            {
                "children": [
                    {
                        "children": [
                            {
                                "children": [
                                    {
                                        "children": [],
                                        "depth": 2,
                                        "id": 2,
                                        "order": 2
                                    }
                                ],
                                "depth": 1,
                                "id": 1,
                                "order": 1
                            },
                            {
                                "children": [
                                    {
                                        "children": [
                                            {
                                                "children": [
                                                    {
                                                        "children": [
                                                            {
                                                                "children": [
                                                                    {
                                                                        "children": [],
                                                                        "depth": 6,
                                                                        "id": 10,
                                                                        "order": 10
                                                                    }
                                                                ],
                                                                "depth": 5,
                                                                "id": 9,
                                                                "order": 9
                                                            },
                                                            {
                                                                "children": [
                                                                    {
                                                                        "children": [],
                                                                        "depth": 6,
                                                                        "id": 12,
                                                                        "order": 12
                                                                    }
                                                                ],
                                                                "depth": 5,
                                                                "id": 11,
                                                                "order": 11
                                                            },
                                                            {
                                                                "children": [],
                                                                "depth": 5,
                                                                "id": 13,
                                                                "order": 13
                                                            }
                                                        ],
                                                        "depth": 4,
                                                        "id": 7,
                                                        "order": 7
                                                    }
                                                ],
                                                "depth": 3,
                                                "id": 6,
                                                "order": 6
                                            },
                                            {
                                                "children": [
                                                    {
                                                        "children": [],
                                                        "depth": 4,
                                                        "id": 15,
                                                        "order": 15
                                                    },
                                                    {
                                                        "children": [],
                                                        "depth": 4,
                                                        "id": 16,
                                                        "order": 16
                                                    }
                                                ],
                                                "depth": 3,
                                                "id": 14,
                                                "order": 14
                                            },
                                            {
                                                "children": [
                                                    {
                                                        "children": [
                                                            {
                                                                "children": [],
                                                                "depth": 5,
                                                                "id": 19,
                                                                "order": 19
                                                            }
                                                        ],
                                                        "depth": 4,
                                                        "id": 18,
                                                        "order": 18
                                                    }
                                                ],
                                                "depth": 3,
                                                "id": 17,
                                                "order": 17
                                            },
                                            {
                                                "children": [
                                                    {
                                                        "children": [],
                                                        "depth": 4,
                                                        "id": 23,
                                                        "order": 23
                                                    },
                                                    {
                                                        "children": [],
                                                        "depth": 4,
                                                        "id": 24,
                                                        "order": 24
                                                    }
                                                ],
                                                "depth": 3,
                                                "id": 22,
                                                "order": 22
                                            },
                                            {
                                                "children": [],
                                                "depth": 3,
                                                "id": 25,
                                                "order": 25
                                            }
                                        ],
                                        "depth": 2,
                                        "id": 4,
                                        "order": 4
                                    }
                                ],
                                "depth": 1,
                                "id": 3,
                                "order": 3
                            },
                            {
                                "children": [],
                                "depth": 1,
                                "id": 26,
                                "order": 26
                            }
                        ],
                        "depth": 0,
                        "id": 0,
                        "order": 0
                    }
                ],
                "depth": -1,
                "id": -1,
                "order": -1
            }
        ],
        "tidyTraceNodeCount": 23
    },
    "state_change": {
        "stateChanges": [
            {
                "address": "0x57e114b691db790c35207b2e685d4a43181e6061",
                "erc": "ERC-20",
                "slots": [
                    {
                        "current": "0x0000000000000000000000000000000000000000000000283a057bad2f21977a",
                        "key": "0xb2c4bd9632f8a51779abcceb097811ff7180f0c021f979b241121bb0ec277cb8",
                        "prev": "0x00000000000000000000000000000000000000000000005398406d1847a1977a"
                    },
                    {
                        "current": "0x00000000000000000000000000000000000000000000221694ff769b2c0abf79",
                        "key": "0x35d7fb7665514f774d2c2df607e197eb8674b6e63d2638472758647a2e67406a",
                        "prev": "0x0000000000000000000000000000000000000000000021eb36c48530138abf79"
                    }
                ],
                "storageVariables": [
                    {
                        "name": "_balances",
                        "type": "mapping(address => uint256)",
                        "value": {
                            "pairs": [
                                {
                                    "key": "0x4e34408081cc2723771d0fbca3bdf0e9c96f4b3e",
                                    "value": {
                                        "current": "742050646761215727482",
                                        "prev": "1542050646761215727482",
                                        "typeTag": 1
                                    }
                                },
                                {
                                    "key": "0xa69babef1ca67a37ffaf7a485dfff3382056e78c",
                                    "value": {
                                        "current": "160977025217635052863353",
                                        "prev": "160177025217635052863353",
                                        "typeTag": 1
                                    }
                                }
                            ],
                            "typeTag": 4
                        }
                    }
                ]
            },
            {
                "address": "0xc02aaa39b223fe8d0a0e5c4f27ead9083c756cc2",
                "erc": "ERC-20",
                "slots": [
                    {
                        "current": "0x00000000000000000000000000000000000000000000014e3d82b6da3672bc07",
                        "key": "0x75245230289a9f0bf73a6c59aef6651b98b3833a62a3c0bd9ab6b0dec8ed4d8f",
                        "prev": "0x00000000000000000000000000000000000000000000014e40837403cb9d6b67"
                    }
                ],
                "storageVariables": [
                    {
                        "name": "balanceOf",
                        "type": "mapping(address => uint256)",
                        "value": {
                            "pairs": [
                                {
                                    "key": "0xa69babef1ca67a37ffaf7a485dfff3382056e78c",
                                    "value": {
                                        "current": "6165644826650608843783",
                                        "prev": "6165861207419016538983",
                                        "typeTag": 1
                                    }
                                }
                            ],
                            "typeTag": 4
                        }
                    }
                ]
            },
            {
                "address": "0xdef1c0ded9bec7f1a1670819833240f027b25eff",
                "erc": "",
                "slots": [
                    {
                        "current": "0x00000000000000000000000000000000000000000000002b5e3af16b18800000",
                        "key": "0xe34c6ccdf8d3a50dcd8975dfbe8c047389df6eedd05b1bd79457999639b90670",
                        "prev": "0x0000000000000000000000000000000000000000000000000000000000000000"
                    }
                ],
                "storageVariables": []
            }
        ]
    }
}