{
    "balance_change": {
        "balanceChanges": [
            {
                "account": "0xc2539386beb97c0f49781c6e1df3cea46c1d1907",
                "assets": [
                    {
                        "address": "0x514910771af9ca656af840dff83e8264ecf986ca",
                        "amount": "19.574709366573737402",
                        "iconUrl": "https://assets.blocksec.com/icon/f97453a18956674db69f16b525216d646fc76f3c7f90f0cd6147f8534d5af3e9.png",
                        "isERC1155": false,
                        "isERC721": false,
                        "sign": false,
                        "value": "123.71216321840000557"
                    },
                    {
                        "address": "0x370a366f402e2e41cdbbe54ecec12aae0cce1955",
                        "amount": "9,389,044,412.360768137768845516",
                        "iconUrl": "",
                        "isERC1155": false,
                        "isERC721": false,
                        "sign": true,
                        "value": "120.7501519"
                    }
                ]
            },
            {
                "account": "0x2acf35c9a3f4c5c3f4c78ef5fb64c3ee82f07c45",
                "assets": [
                    {
                        "address": "0x514910771af9ca656af840dff83e8264ecf986ca",
                        "amount": "0.171278706957520202",
                        "iconUrl": "https://assets.blocksec.com/icon/f97453a18956674db69f16b525216d646fc76f3c7f90f0cd6147f8534d5af3e9.png",
                        "isERC1155": false,
                        "isERC721": false,
                        "sign": true,
                        "value": "1.0824814282400000487"
                    }
                ]
            },
            {
                "account": "0x9f6facb42177f5af680f9f17cdf750bc7cf55973",
                "assets": [
                    {
                        "address": "0xc02aaa39b223fe8d0a0e5c4f27ead9083c756cc2",
                        "amount": "0.063562811634853077",
                        "iconUrl": "https://assets.blocksec.com/icon/f1cb2d02c471d545bbc7722daf3277fd852d98e63d118771af7047bd8256c516.png",
                        "isERC1155": false,
                        "isERC721": false,
                        "sign": true,
                        "value": "121.72214864333370058"
                    },
                    {
                        "address": "0x370a366f402e2e41cdbbe54ecec12aae0cce1955",
                        "amount": "9,389,044,412.360768137768845516",
                        "iconUrl": "",
                        "isERC1155": false,
                        "isERC721": false,
                        "sign": false,
                        "value": "120.7501519"
                    }
                ]
            },
            {
                "account": "0xc40d16476380e4037e6b1a2594caf6a6cc8da967",
                "assets": [
                    {
                        "address": "0x514910771af9ca656af840dff83e8264ecf986ca",
                        "amount": "19.4034306596162172",
                        "iconUrl": "https://assets.blocksec.com/icon/f97453a18956674db69f16b525216d646fc76f3c7f90f0cd6147f8534d5af3e9.png",
                        "isERC1155": false,
                        "isERC721": false,
                        "sign": true,
                        "value": "122.62968177120000551"
                    },
                    {
                        "address": "0xc02aaa39b223fe8d0a0e5c4f27ead9083c756cc2",
                        "amount": "0.063562811634853077",
                        "iconUrl": "https://assets.blocksec.com/icon/f1cb2d02c471d545bbc7722daf3277fd852d98e63d118771af7047bd8256c516.png",
                        "isERC1155": false,
                        "isERC721": false,
                        "sign": false,
                        "value": "121.72214864333370058"
                    }
                ]
            }
        ]
    },
    "profile": {
        "basic_info": {
            "baseFee": "50.259904397",
            "blockNumber": 17632044,
            "callData": "0x5f5755290000000000000000000000000000000000000000000000000000000000000080000000000000000000000000514910771af9ca656af840dff83e8264ecf986ca0000000000000000000000000000000000000000000000010fa756752823a5ba00000000000000000000000000000000000000000000000000000000000000c000000000000000000000000000000000000000000000000000000000000000136f6e65496e6368563546656544796e616d6963000000000000000000000000000000000000000000000000000000000000000000000000000000000000000220000000000000000000000000514910771af9ca656af840dff83e8264ecf986ca000000000000000000000000370a366f402e2e41cdbbe54ecec12aae0cce19550000000000000000000000000000000000000000000000010d46d5619259187000000000000000000000000000000000000000001dda1acbf7dbf8b2ca6b0cca00000000000000000000000000000000000000000000000000000000000001200000000000000000000000000000000000000000000000000260811395ca8d4a0000000000000000000000002acf35c9a3f4c5c3f4c78ef5fb64c3ee82f07c45000000000000000000000000000000000000000000000000000000000000000000000000000000000000000000000000000000000000000000000000000000e80502b1c5000000000000000000000000514910771af9ca656af840dff83e8264ecf986ca0000000000000000000000000000000000000000000000010d46d5619259187000000000000000000000000000000000000000001dda1acbf7dbf8b2ca6b0cca0000000000000000000000000000000000000000000000000000000000000080000000000000000000000000000000000000000000000000000000000000000200000000000000003b6d0340c40d16476380e4037e6b1a2594caf6a6cc8da96780000000000000003b6d03409f6facb42177f5af680f9f17cdf750bc7cf55973ab4991fe00000000000000000000000000000000000000000000000001f8",
            "debugEnable": true,
            "errorInfo": "",
            "eventCount": 11,
            "feeRecipient": "0xf17d119effa0dcbe24d3fa346860be851150358f",
            "formatValue": "0",
            "gasLimit": 285572,
            "gasPrice": "50.39008173",
            "gasUsed": 223083,
            "intTxnCount": 20,
            "internalRevert": false,
            "internalRevertMessage": "",
            "isContractCreation": false,
            "isFlashloan": false,
            "maxFee": "51.556448102",
            "nonce": 31,
            "overwritedBlockNumber": -1,
            "priorityFee": "0.130177333",
            "receiver": "0x881d40237659c251811cec9c364ef91dc08d300c",
            "revertMessage": "",
            "sender": "0xc2539386beb97c0f49781c6e1df3cea46c1d1907",
            "simulationEnable": true,
            "sourceTxnHash": "0x94cda2751f8e2dea0e02e41ee5ef7a46e7df1d91ee11edfa717ded73e32fe0cf",
            "status": true,
            "timestamp": "2023-07-06T03:09:59Z",
            "transactionFee": "0.01124117060257359",
            "txnHash": "0x94cda2751f8e2dea0e02e41ee5ef7a46e7df1d91ee11edfa717ded73e32fe0cf",
            "txnIndex": 10,
            "type": 2,
            "value": "0"
        },
        "fund_flow": [
            {
                "amount": "19.574709366573737402",
                "from": "0xc2539386beb97c0f49781c6e1df3cea46c1d1907",
                "id": 1,
                "isERC1155": false,
                "isERC721": false,
                "isReverted": false,
                "order": 1,
                "to": "0x74de5d4fcbf63e00296fd95d33236b9794016631",
                "token": "0x514910771af9ca656af840dff83e8264ecf986ca"
            },
            {
                "amount": "19.4034306596162172",
                "from": "0x74de5d4fcbf63e00296fd95d33236b9794016631",
                "id": 2,
                "isERC1155": false,
                "isERC721": false,
                "isReverted": false,
                "order": 2,
                "to": "0xc40d16476380e4037e6b1a2594caf6a6cc8da967",
                "token": "0x514910771af9ca656af840dff83e8264ecf986ca"
            },
            {
                "amount": "0.063562811634853077",
                "from": "0xc40d16476380e4037e6b1a2594caf6a6cc8da967",
                "id": 3,
                "isERC1155": false,
                "isERC721": false,
                "isReverted": false,
                "order": 3,
                "to": "0x9f6facb42177f5af680f9f17cdf750bc7cf55973",
                "token": "0xc02aaa39b223fe8d0a0e5c4f27ead9083c756cc2"
            },
            {
                "amount": "9,389,044,412.360768137768845516",
                "from": "0x9f6facb42177f5af680f9f17cdf750bc7cf55973",
                "id": 4,
                "isERC1155": false,
                "isERC721": false,
                "isReverted": false,
                "order": 4,
                "to": "0x74de5d4fcbf63e00296fd95d33236b9794016631",
                "token": "0x370a366f402e2e41cdbbe54ecec12aae0cce1955"
            },
            {
                "amount": "0.171278706957520202",
                "from": "0x74de5d4fcbf63e00296fd95d33236b9794016631",
                "id": 5,
                "isERC1155": false,
                "isERC721": false,
                "isReverted": false,
                "order": 5,
                "to": "0x2acf35c9a3f4c5c3f4c78ef5fb64c3ee82f07c45",
                "token": "0x514910771af9ca656af840dff83e8264ecf986ca"
            },
            {
                "amount": "9,389,044,412.360768137768845516",
                "from": "0x74de5d4fcbf63e00296fd95d33236b9794016631",
                "id": 6,
                "isERC1155": false,
                "isERC721": false,
                "isReverted": false,
                "order": 6,
                "to": "0xc2539386beb97c0f49781c6e1df3cea46c1d1907",
                "token": "0x370a366f402e2e41cdbbe54ecec12aae0cce1955"
            }
        ],
        "token_infos": [
            {
                "address": "0x370a366f402e2e41cdbbe54ecec12aae0cce1955",
                "decimals": 18
            },
            {
                "address": "0x514910771af9ca656af840dff83e8264ecf986ca",
                "decimals": 18
            },
            {
                "address": "0xc02aaa39b223fe8d0a0e5c4f27ead9083c756cc2",
                "decimals": 18
            },
            {
                "address": "0xeeeeeeeeeeeeeeeeeeeeeeeeeeeeeeeeeeeeeeee",
                "decimals": 18
            }
        ]
    },
    "address_label": {
        "labels": [
            {
                "address": "0x1111111254eeb25477b68fb85ed929f73a960582",
                "label": "Aggregation Router V5"
            },
            {
                "address": "0x2acf35c9a3f4c5c3f4c78ef5fb64c3ee82f07c45",
                "label": "GnosisSafeProxy_2acf_7c45"
            },
            {
                "address": "0x9f6facb42177f5af680f9f17cdf750bc7cf55973",
                "label": "Uniswap V2: TOAD 14"
            },
            {
                "address": "0xf17d119effa0dcbe24d3fa346860be851150358f",
                "label": "GnosisSafeProxy"
            },
            {
                "address": "0x881d40237659c251811cec9c364ef91dc08d300c",
                "label": "Metamask: Swap Router"
            },
            {
                "address": "0xc40d16476380e4037e6b1a2594caf6a6cc8da967",
                "label": "SushiSwap: LINK"
            },
            {
                "address": "0x0000000000000000000000000000000000000002",
                "label": "Precompiled"
            },
            {
                "address": "0x0000000000000000000000000000000000000003",
                "label": "Precompiled"
            },
            {
                "address": "0xeeeeeeeeeeeeeeeeeeeeeeeeeeeeeeeeeeeeeeee",
                "label": "Ether"
            },
            {
                "address": "0x0000000000000000000000000000000000000001",
                "label": "Precompiled"
            },
            {
                "address": "0xc02aaa39b223fe8d0a0e5c4f27ead9083c756cc2",
                "label": "Wrapped Ether (WETH)"
            },
            {
                "address": "0x514910771af9ca656af840dff83e8264ecf986ca",
                "label": "Chainlink: LINK Token"
            },
            {
                "address": "0x74de5d4fcbf63e00296fd95d33236b9794016631",
                "label": "MetaMask: Swaps Spender"
            },
            {
                "address": "0x370a366f402e2e41cdbbe54ecec12aae0cce1955",
                "label": "TOAD KILLER (TOAD)"
            },
            {
                "address": "0x0000000000000000000000000000000000000004",
                "label": "Precompiled"
            }
        ]
    },
    "trace": {
        "accountLabels": null,
        "dataMap": {
            "-1": {
                "invocation": {
                    "address": "0xc2539386beb97c0f49781c6e1df3cea46c1d1907",
                    "callData": "",
                    "decodedMethod": null,
                    "errorInfo": "",
                    "fromAddress": "",
                    "gasUsed": 0,
                    "id": -1,
                    "methodDecoded": false,
                    "operation": "",
                    "output": "",
                    "revert": false,
                    "revertMessage": "",
                    "selector": "",
                    "status": false,
                    "value": ""
                },
                "nodeType": 0
            },
            "0": {
                "invocation": {
                    "address": "0x881d40237659c251811cec9c364ef91dc08d300c",
                    "callData": "0x0000000000000000000000000000000000000000000000000000000000000080000000000000000000000000514910771af9ca656af840dff83e8264ecf986ca0000000000000000000000000000000000000000000000010fa756752823a5ba00000000000000000000000000000000000000000000000000000000000000c000000000000000000000000000000000000000000000000000000000000000136f6e65496e6368563546656544796e616d6963000000000000000000000000000000000000000000000000000000000000000000000000000000000000000220000000000000000000000000514910771af9ca656af840dff83e8264ecf986ca000000000000000000000000370a366f402e2e41cdbbe54ecec12aae0cce19550000000000000000000000000000000000000000000000010d46d5619259187000000000000000000000000000000000000000001dda1acbf7dbf8b2ca6b0cca00000000000000000000000000000000000000000000000000000000000001200000000000000000000000000000000000000000000000000260811395ca8d4a0000000000000000000000002acf35c9a3f4c5c3f4c78ef5fb64c3ee82f07c45000000000000000000000000000000000000000000000000000000000000000000000000000000000000000000000000000000000000000000000000000000e80502b1c5000000000000000000000000514910771af9ca656af840dff83e8264ecf986ca0000000000000000000000000000000000000000000000010d46d5619259187000000000000000000000000000000000000000001dda1acbf7dbf8b2ca6b0cca0000000000000000000000000000000000000000000000000000000000000080000000000000000000000000000000000000000000000000000000000000000200000000000000003b6d0340c40d16476380e4037e6b1a2594caf6a6cc8da96780000000000000003b6d03409f6facb42177f5af680f9f17cdf750bc7cf55973ab4991fe00000000000000000000000000000000000000000000000001f8",
                    "decodedMethod": {
                        "callParams": [
                            {
                                "name": "aggregatorId",
                                "type": "string",
                                "value": "oneInchV5FeeDynamic"
                            },
                            {
                                "name": "tokenFrom",
                                "type": "address",
                                "value": "0x514910771af9ca656af840dff83e8264ecf986ca"
                            },
                            {
                                "name": "amount",
                                "type": "uint256",
                                "value": "19,574,709,366,573,737,402"
                            },
                            {
                                "name": "data",
                                "type": "bytes",
                                "value": "0x000000000000000000000000514910771af9ca656af840dff83e8264ecf986ca000000000000000000000000370a366f402e2e41cdbbe54ecec12aae0cce19550000000000000000000000000000000000000000000000010d46d5619259187000000000000000000000000000000000000000001dda1acbf7dbf8b2ca6b0cca00000000000000000000000000000000000000000000000000000000000001200000000000000000000000000000000000000000000000000260811395ca8d4a0000000000000000000000002acf35c9a3f4c5c3f4c78ef5fb64c3ee82f07c45000000000000000000000000000000000000000000000000000000000000000000000000000000000000000000000000000000000000000000000000000000e80502b1c5000000000000000000000000514910771af9ca656af840dff83e8264ecf986ca0000000000000000000000000000000000000000000000010d46d5619259187000000000000000000000000000000000000000001dda1acbf7dbf8b2ca6b0cca0000000000000000000000000000000000000000000000000000000000000080000000000000000000000000000000000000000000000000000000000000000200000000000000003b6d0340c40d16476380e4037e6b1a2594caf6a6cc8da96780000000000000003b6d03409f6facb42177f5af680f9f17cdf750bc7cf55973ab4991fe000000000000000000000000000000000000000000000000"
                            }
                        ],
                        "constructorArguments": "",
                        "name": "swap",
                        "returnParams": [],
                        "signature": "swap(string,address,uint256,bytes)"
                    },
                    "errorInfo": "",
                    "fromAddress": "0xc2539386beb97c0f49781c6e1df3cea46c1d1907",
                    "gasUsed": 223083,
                    "id": 0,
                    "methodDecoded": true,
                    "operation": "CALL",
                    "output": "",
                    "revert": false,
                    "revertMessage": "",
                    "selector": "0x5f575529",
                    "status": true,
                    "value": "0"
                },
                "nodeType": 0
            },
            "1": {
                "invocation": {
                    "address": "0x514910771af9ca656af840dff83e8264ecf986ca",
                    "callData": "0x000000000000000000000000c2539386beb97c0f49781c6e1df3cea46c1d190700000000000000000000000074de5d4fcbf63e00296fd95d33236b97940166310000000000000000000000000000000000000000000000010fa756752823a5ba",
                    "decodedMethod": {
                        "callParams": [
                            {
                                "name": "_from",
                                "type": "address",
                                "value": "0xc2539386beb97c0f49781c6e1df3cea46c1d1907"
                            },
                            {
                                "name": "_to",
                                "type": "address",
                                "value": "0x74de5d4fcbf63e00296fd95d33236b9794016631"
                            },
                            {
                                "decimalAvailable": true,
                                "name": "_value",
                                "type": "uint256",
                                "value": "19,574,709,366,573,737,402"
                            }
                        ],
                        "constructorArguments": "",
                        "name": "transferFrom",
                        "returnParams": [
                            {
                                "name": "",
                                "type": "bool",
                                "value": true
                            }
                        ],
                        "signature": "transferFrom(address,address,uint256)"
                    },
                    "errorInfo": "",
                    "fromAddress": "0x881d40237659c251811cec9c364ef91dc08d300c",
                    "gasUsed": 35800,
                    "id": 1,
                    "methodDecoded": true,
                    "operation": "CALL",
                    "output": "0x0000000000000000000000000000000000000000000000000000000000000001",
                    "revert": false,
                    "revertMessage": "",
                    "selector": "0x23b872dd",
                    "status": true,
                    "value": "0"
                },
                "nodeType": 0
            },
            "10": {
                "invocation": {
                    "address": "0xc40d16476380e4037e6b1a2594caf6a6cc8da967",
                    "callData": "0x000000000000000000000000000000000000000000000000000000000000000000000000000000000000000000000000000000000000000000e1d20a586ba4d50000000000000000000000009f6facb42177f5af680f9f17cdf750bc7cf5597300000000000000000000000000000000000000000000000000000000000000800000000000000000000000000000000000000000000000000000000000000000",
                    "decodedMethod": {
                        "callParams": [
                            {
                                "name": "amount0Out",
                                "type": "uint256",
                                "value": "0"
                            },
                            {
                                "name": "amount1Out",
                                "type": "uint256",
                                "value": "63,562,811,634,853,077"
                            },
                            {
                                "name": "to",
                                "type": "address",
                                "value": "0x9f6facb42177f5af680f9f17cdf750bc7cf55973"
                            },
                            {
                                "name": "data",
                                "type": "bytes",
                                "value": "0x"
                            }
                        ],
                        "constructorArguments": "",
                        "name": "swap",
                        "returnParams": [],
                        "signature": "swap(uint256,uint256,address,bytes)"
                    },
                    "errorInfo": "",
                    "fromAddress": "0x1111111254eeb25477b68fb85ed929f73a960582",
                    "gasUsed": 48247,
                    "id": 10,
                    "methodDecoded": true,
                    "operation": "CALL",
                    "output": "",
                    "revert": false,
                    "revertMessage": "",
                    "selector": "0x022c0d9f",
                    "status": true,
                    "value": "0"
                },
                "nodeType": 0
            },
            "11": {
                "invocation": {
                    "address": "0xc02aaa39b223fe8d0a0e5c4f27ead9083c756cc2",
                    "callData": "0x0000000000000000000000009f6facb42177f5af680f9f17cdf750bc7cf5597300000000000000000000000000000000000000000000000000e1d20a586ba4d5",
                    "decodedMethod": {
                        "callParams": [
                            {
                                "name": "dst",
                                "type": "address",
                                "value": "0x9f6facb42177f5af680f9f17cdf750bc7cf55973"
                            },
                            {
                                "decimalAvailable": true,
                                "name": "wad",
                                "type": "uint256",
                                "value": "63,562,811,634,853,077"
                            }
                        ],
                        "constructorArguments": "",
                        "name": "transfer",
                        "returnParams": [
                            {
                                "name": "",
                                "type": "bool",
                                "value": true
                            }
                        ],
                        "signature": "transfer(address,uint256)"
                    },
                    "errorInfo": "",
                    "fromAddress": "0xc40d16476380e4037e6b1a2594caf6a6cc8da967",
                    "gasUsed": 12862,
                    "id": 11,
                    "methodDecoded": true,
                    "operation": "CALL",
                    "output": "0x0000000000000000000000000000000000000000000000000000000000000001",
                    "revert": false,
                    "revertMessage": "",
                    "selector": "0xa9059cbb",
                    "status": true,
                    "value": "0"
                },
                "nodeType": 0
            },
            "12": {
                "event": {
                    "contract": "0xc02aaa39b223fe8d0a0e5c4f27ead9083c756cc2",
                    "decodedLog": {
                        "name": "Transfer",
                        "params": [
                            {
                                "name": "src",
                                "type": "address",
                                "value": "0xc40d16476380e4037e6b1a2594caf6a6cc8da967"
                            },
                            {
                                "name": "dst",
                                "type": "address",
                                "value": "0x9f6facb42177f5af680f9f17cdf750bc7cf55973"
                            },
                            {
                                "decimalAvailable": true,
                                "name": "wad",
                                "type": "uint256",
                                "value": "63,562,811,634,853,077"
                            }
                        ],
                        "signature": "Transfer(address,address,uint256)"
                    },
                    "id": 12,
                    "logData": "0x00000000000000000000000000000000000000000000000000e1d20a586ba4d5",
                    "logDecoded": true,
                    "operation": "EVENT",
                    "revert": false,
                    "status": true,
                    "topics": [
                        "0xddf252ad1be2c89b69c2b068fc378daa952ba7f163c4a11628f55a4df523b3ef",
                        "0x000000000000000000000000c40d16476380e4037e6b1a2594caf6a6cc8da967",
                        "0x0000000000000000000000009f6facb42177f5af680f9f17cdf750bc7cf55973"
                    ]
                },
                "nodeType": 1
            },
            "13": {
                "invocation": {
                    "address": "0x514910771af9ca656af840dff83e8264ecf986ca",
                    "callData": "0x000000000000000000000000c40d16476380e4037e6b1a2594caf6a6cc8da967",
                    "decodedMethod": {
                        "callParams": [
                            {
                                "name": "_owner",
                                "type": "address",
                                "value": "0xc40d16476380e4037e6b1a2594caf6a6cc8da967"
                            }
                        ],
                        "constructorArguments": "",
                        "name": "balanceOf",
                        "returnParams": [
                            {
                                "decimalAvailable": true,
                                "name": "balance",
                                "type": "uint256",
                                "value": "116,892,020,173,903,161,995,806"
                            }
                        ],
                        "signature": "balanceOf(address)"
                    },
                    "errorInfo": "",
                    "fromAddress": "0xc40d16476380e4037e6b1a2594caf6a6cc8da967",
                    "gasUsed": 655,
                    "id": 13,
                    "methodDecoded": true,
                    "operation": "STATICCALL",
                    "output": "0x0000000000000000000000000000000000000000000018c0baa703b2fca4321e",
                    "revert": false,
                    "revertMessage": "",
                    "selector": "0x70a08231",
                    "status": true,
                    "value": "0"
                },
                "nodeType": 0
            },
            "14": {
                "invocation": {
                    "address": "0xc02aaa39b223fe8d0a0e5c4f27ead9083c756cc2",
                    "callData": "0x000000000000000000000000c40d16476380e4037e6b1a2594caf6a6cc8da967",
                    "decodedMethod": {
                        "callParams": [
                            {
                                "name": "",
                                "type": "address",
                                "value": "0xc40d16476380e4037e6b1a2594caf6a6cc8da967"
                            }
                        ],
                        "constructorArguments": "",
                        "name": "balanceOf",
                        "returnParams": [
                            {
                                "decimalAvailable": true,
                                "name": "",
                                "type": "uint256",
                                "value": "384,009,692,427,734,224,540"
                            }
                        ],
                        "signature": "balanceOf(address)"
                    },
                    "errorInfo": "",
                    "fromAddress": "0xc40d16476380e4037e6b1a2594caf6a6cc8da967",
                    "gasUsed": 534,
                    "id": 14,
                    "methodDecoded": true,
                    "operation": "STATICCALL",
                    "output": "0x000000000000000000000000000000000000000000000014d1347cb1461c0e9c",
                    "revert": false,
                    "revertMessage": "",
                    "selector": "0x70a08231",
                    "status": true,
                    "value": "0"
                },
                "nodeType": 0
            },
            "15": {
                "event": {
                    "contract": "0xc40d16476380e4037e6b1a2594caf6a6cc8da967",
                    "decodedLog": {
                        "name": "Sync",
                        "params": [
                            {
                                "name": "reserve0",
                                "type": "uint112",
                                "value": "116,892,020,173,903,161,995,806"
                            },
                            {
                                "name": "reserve1",
                                "type": "uint112",
                                "value": "384,009,692,427,734,224,540"
                            }
                        ],
                        "signature": "Sync(uint112,uint112)"
                    },
                    "id": 15,
                    "logData": "0x0000000000000000000000000000000000000000000018c0baa703b2fca4321e000000000000000000000000000000000000000000000014d1347cb1461c0e9c",
                    "logDecoded": true,
                    "operation": "EVENT",
                    "revert": false,
                    "status": true,
                    "topics": [
                        "0x1c411e9a96e071241c2f21f7726b17ae89e3cab4c78be50e062b03a9fffbbad1"
                    ]
                },
                "nodeType": 1
            },
            "16": {
                "event": {
                    "contract": "0xc40d16476380e4037e6b1a2594caf6a6cc8da967",
                    "decodedLog": {
                        "name": "Swap",
                        "params": [
                            {
                                "name": "sender",
                                "type": "address",
                                "value": "0x1111111254eeb25477b68fb85ed929f73a960582"
                            },
                            {
                                "name": "to",
                                "type": "address",
                                "value": "0x9f6facb42177f5af680f9f17cdf750bc7cf55973"
                            },
                            {
                                "name": "amount0In",
                                "type": "uint256",
                                "value": "19,403,430,659,616,217,200"
                            },
                            {
                                "name": "amount1In",
                                "type": "uint256",
                                "value": "0"
                            },
                            {
                                "name": "amount0Out",
                                "type": "uint256",
                                "value": "0"
                            },
                            {
                                "name": "amount1Out",
                                "type": "uint256",
                                "value": "63,562,811,634,853,077"
                            }
                        ],
                        "signature": "Swap(address,uint256,uint256,uint256,uint256,address)"
                    },
                    "id": 16,
                    "logData": "0x0000000000000000000000000000000000000000000000010d46d561925918700000000000000000000000000000000000000000000000000000000000000000000000000000000000000000000000000000000000000000000000000000000000000000000000000000000000000000000000000000000000e1d20a586ba4d5",
                    "logDecoded": true,
                    "operation": "EVENT",
                    "revert": false,
                    "status": true,
                    "topics": [
                        "0xd78ad95fa46c994b6551d0da85fc275fe613ce37657fb8d5e3d130840159d822",
                        "0x0000000000000000000000001111111254eeb25477b68fb85ed929f73a960582",
                        "0x0000000000000000000000009f6facb42177f5af680f9f17cdf750bc7cf55973"
                    ]
                },
                "nodeType": 1
            },
            "17": {
                "invocation": {
                    "address": "0x9f6facb42177f5af680f9f17cdf750bc7cf55973",
                    "callData": "0x",
                    "decodedMethod": {
                        "callParams": [],
                        "constructorArguments": "",
                        "name": "getReserves",
                        "returnParams": [
                            {
                                "name": "_reserve0",
                                "type": "uint112",
                                "value": "26,706,798,115,751,807,412,358,363,349,486"
                            },
                            {
                                "name": "_reserve1",
                                "type": "uint112",
                                "value": "180,196,346,133,050,697,444"
                            },
                            {
                                "name": "_blockTimestampLast",
                                "type": "uint32",
                                "value": "1,688,612,447"
                            }
                        ],
                        "signature": "getReserves()"
                    },
                    "errorInfo": "",
                    "fromAddress": "0x1111111254eeb25477b68fb85ed929f73a960582",
                    "gasUsed": 2504,
                    "id": 17,
                    "methodDecoded": true,
                    "operation": "STATICCALL",
                    "output": "0x000000000000000000000000000000000000015116519fed7e8a28ac55be01ee000000000000000000000000000000000000000000000009c4ba06163bd226e40000000000000000000000000000000000000000000000000000000064a62e5f",
                    "revert": false,
                    "revertMessage": "",
                    "selector": "0x0902f1ac",
                    "status": true,
                    "value": "0"
                },
                "nodeType": 0
            },
            "18": {
                "invocation": {
                    "address": "0x9f6facb42177f5af680f9f17cdf750bc7cf55973",
                    "callData": "0x00000000000000000000000000000000000000001e566f7d78e383132f6dc0cc000000000000000000000000000000000000000000000000000000000000000000000000000000000000000074de5d4fcbf63e00296fd95d33236b979401663100000000000000000000000000000000000000000000000000000000000000800000000000000000000000000000000000000000000000000000000000000000",
                    "decodedMethod": {
                        "callParams": [
                            {
                                "name": "amount0Out",
                                "type": "uint256",
                                "value": "9,389,044,412,360,768,137,768,845,516"
                            },
                            {
                                "name": "amount1Out",
                                "type": "uint256",
                                "value": "0"
                            },
                            {
                                "name": "to",
                                "type": "address",
                                "value": "0x74de5d4fcbf63e00296fd95d33236b9794016631"
                            },
                            {
                                "name": "data",
                                "type": "bytes",
                                "value": "0x"
                            }
                        ],
                        "constructorArguments": "",
                        "name": "swap",
                        "returnParams": [],
                        "signature": "swap(uint256,uint256,address,bytes)"
                    },
                    "errorInfo": "",
                    "fromAddress": "0x1111111254eeb25477b68fb85ed929f73a960582",
                    "gasUsed": 64890,
                    "id": 18,
                    "methodDecoded": true,
                    "operation": "CALL",
                    "output": "",
                    "revert": false,
                    "revertMessage": "",
                    "selector": "0x022c0d9f",
                    "status": true,
                    "value": "0"
                },
                "nodeType": 0
            },
            "19": {
                "invocation": {
                    "address": "0x370a366f402e2e41cdbbe54ecec12aae0cce1955",
                    "callData": "0x00000000000000000000000074de5d4fcbf63e00296fd95d33236b979401663100000000000000000000000000000000000000001e566f7d78e383132f6dc0cc",
                    "decodedMethod": {
                        "callParams": [
                            {
                                "name": "to",
                                "type": "address",
                                "value": "0x74de5d4fcbf63e00296fd95d33236b9794016631"
                            },
                            {
                                "decimalAvailable": true,
                                "name": "amount",
                                "type": "uint256",
                                "value": "9,389,044,412,360,768,137,768,845,516"
                            }
                        ],
                        "constructorArguments": "",
                        "name": "transfer",
                        "returnParams": [
                            {
                                "name": "",
                                "type": "bool",
                                "value": true
                            }
                        ],
                        "signature": "transfer(address,uint256)"
                    },
                    "errorInfo": "",
                    "fromAddress": "0x9f6facb42177f5af680f9f17cdf750bc7cf55973",
                    "gasUsed": 29948,
                    "id": 19,
                    "methodDecoded": true,
                    "operation": "CALL",
                    "output": "0x0000000000000000000000000000000000000000000000000000000000000001",
                    "revert": false,
                    "revertMessage": "",
                    "selector": "0xa9059cbb",
                    "status": true,
                    "value": "0"
                },
                "nodeType": 0
            },
            "2": {
                "event": {
                    "contract": "0x514910771af9ca656af840dff83e8264ecf986ca",
                    "decodedLog": {
                        "name": "Transfer",
                        "params": [
                            {
                                "name": "from",
                                "type": "address",
                                "value": "0xc2539386beb97c0f49781c6e1df3cea46c1d1907"
                            },
                            {
                                "name": "to",
                                "type": "address",
                                "value": "0x74de5d4fcbf63e00296fd95d33236b9794016631"
                            },
                            {
                                "decimalAvailable": true,
                                "name": "value",
                                "type": "uint256",
                                "value": "19,574,709,366,573,737,402"
                            }
                        ],
                        "signature": "Transfer(address,address,uint256)"
                    },
                    "id": 2,
                    "logData": "0x0000000000000000000000000000000000000000000000010fa756752823a5ba",
                    "logDecoded": true,
                    "operation": "EVENT",
                    "revert": false,
                    "status": true,
                    "topics": [
                        "0xddf252ad1be2c89b69c2b068fc378daa952ba7f163c4a11628f55a4df523b3ef",
                        "0x000000000000000000000000c2539386beb97c0f49781c6e1df3cea46c1d1907",
                        "0x00000000000000000000000074de5d4fcbf63e00296fd95d33236b9794016631"
                    ]
                },
                "nodeType": 1
            },
            "20": {
                "event": {
                    "contract": "0x370a366f402e2e41cdbbe54ecec12aae0cce1955",
                    "decodedLog": {
                        "name": "Transfer",
                        "params": [
                            {
                                "name": "from",
                                "type": "address",
                                "value": "0x9f6facb42177f5af680f9f17cdf750bc7cf55973"
                            },
                            {
                                "name": "to",
                                "type": "address",
                                "value": "0x74de5d4fcbf63e00296fd95d33236b9794016631"
                            },
                            {
                                "decimalAvailable": true,
                                "name": "value",
                                "type": "uint256",
                                "value": "9,389,044,412,360,768,137,768,845,516"
                            }
                        ],
                        "signature": "Transfer(address,address,uint256)"
                    },
                    "id": 20,
                    "logData": "0x00000000000000000000000000000000000000001e566f7d78e383132f6dc0cc",
                    "logDecoded": true,
                    "operation": "EVENT",
                    "revert": false,
                    "status": true,
                    "topics": [
                        "0xddf252ad1be2c89b69c2b068fc378daa952ba7f163c4a11628f55a4df523b3ef",
                        "0x0000000000000000000000009f6facb42177f5af680f9f17cdf750bc7cf55973",
                        "0x00000000000000000000000074de5d4fcbf63e00296fd95d33236b9794016631"
                    ]
                },
                "nodeType": 1
            },
            "21": {
                "invocation": {
                    "address": "0x370a366f402e2e41cdbbe54ecec12aae0cce1955",
                    "callData": "0x0000000000000000000000009f6facb42177f5af680f9f17cdf750bc7cf55973",
                    "decodedMethod": {
                        "callParams": [
                            {
                                "name": "account",
                                "type": "address",
                                "value": "0x9f6facb42177f5af680f9f17cdf750bc7cf55973"
                            }
                        ],
                        "constructorArguments": "",
                        "name": "balanceOf",
                        "returnParams": [
                            {
                                "decimalAvailable": true,
                                "name": "",
                                "type": "uint256",
                                "value": "26,697,409,071,339,446,644,220,594,503,970"
                            }
                        ],
                        "signature": "balanceOf(address)"
                    },
                    "errorInfo": "",
                    "fromAddress": "0x9f6facb42177f5af680f9f17cdf750bc7cf55973",
                    "gasUsed": 585,
                    "id": 21,
                    "methodDecoded": true,
                    "operation": "STATICCALL",
                    "output": "0x0000000000000000000000000000000000000150f7fb307005a6a59926504122",
                    "revert": false,
                    "revertMessage": "",
                    "selector": "0x70a08231",
                    "status": true,
                    "value": "0"
                },
                "nodeType": 0
            },
            "22": {
                "invocation": {
                    "address": "0xc02aaa39b223fe8d0a0e5c4f27ead9083c756cc2",
                    "callData": "0x0000000000000000000000009f6facb42177f5af680f9f17cdf750bc7cf55973",
                    "decodedMethod": {
                        "callParams": [
                            {
                                "name": "",
                                "type": "address",
                                "value": "0x9f6facb42177f5af680f9f17cdf750bc7cf55973"
                            }
                        ],
                        "constructorArguments": "",
                        "name": "balanceOf",
                        "returnParams": [
                            {
                                "decimalAvailable": true,
                                "name": "",
                                "type": "uint256",
                                "value": "180,259,908,944,685,550,521"
                            }
                        ],
                        "signature": "balanceOf(address)"
                    },
                    "errorInfo": "",
                    "fromAddress": "0x9f6facb42177f5af680f9f17cdf750bc7cf55973",
                    "gasUsed": 534,
                    "id": 22,
                    "methodDecoded": true,
                    "operation": "STATICCALL",
                    "output": "0x000000000000000000000000000000000000000000000009c59bd820943dcbb9",
                    "revert": false,
                    "revertMessage": "",
                    "selector": "0x70a08231",
                    "status": true,
                    "value": "0"
                },
                "nodeType": 0
            },
            "23": {
                "event": {
                    "contract": "0x9f6facb42177f5af680f9f17cdf750bc7cf55973",
                    "decodedLog": {
                        "name": "Sync",
                        "params": [
                            {
                                "name": "reserve0",
                                "type": "uint112",
                                "value": "26,697,409,071,339,446,644,220,594,503,970"
                            },
                            {
                                "name": "reserve1",
                                "type": "uint112",
                                "value": "180,259,908,944,685,550,521"
                            }
                        ],
                        "signature": "Sync(uint112,uint112)"
                    },
                    "id": 23,
                    "logData": "0x0000000000000000000000000000000000000150f7fb307005a6a59926504122000000000000000000000000000000000000000000000009c59bd820943dcbb9",
                    "logDecoded": true,
                    "operation": "EVENT",
                    "revert": false,
                    "status": true,
                    "topics": [
                        "0x1c411e9a96e071241c2f21f7726b17ae89e3cab4c78be50e062b03a9fffbbad1"
                    ]
                },
                "nodeType": 1
            },
            "24": {
                "event": {
                    "contract": "0x9f6facb42177f5af680f9f17cdf750bc7cf55973",
                    "decodedLog": {
                        "name": "Swap",
                        "params": [
                            {
                                "name": "sender",
                                "type": "address",
                                "value": "0x1111111254eeb25477b68fb85ed929f73a960582"
                            },
                            {
                                "name": "to",
                                "type": "address",
                                "value": "0x74de5d4fcbf63e00296fd95d33236b9794016631"
                            },
                            {
                                "name": "amount0In",
                                "type": "uint256",
                                "value": "0"
                            },
                            {
                                "name": "amount1In",
                                "type": "uint256",
                                "value": "63,562,811,634,853,077"
                            },
                            {
                                "name": "amount0Out",
                                "type": "uint256",
                                "value": "9,389,044,412,360,768,137,768,845,516"
                            },
                            {
                                "name": "amount1Out",
                                "type": "uint256",
                                "value": "0"
                            }
                        ],
                        "signature": "Swap(address,uint256,uint256,uint256,uint256,address)"
                    },
                    "id": 24,
                    "logData": "0x000000000000000000000000000000000000000000000000000000000000000000000000000000000000000000000000000000000000000000e1d20a586ba4d500000000000000000000000000000000000000001e566f7d78e383132f6dc0cc0000000000000000000000000000000000000000000000000000000000000000",
                    "logDecoded": true,
                    "operation": "EVENT",
                    "revert": false,
                    "status": true,
                    "topics": [
                        "0xd78ad95fa46c994b6551d0da85fc275fe613ce37657fb8d5e3d130840159d822",
                        "0x0000000000000000000000001111111254eeb25477b68fb85ed929f73a960582",
                        "0x00000000000000000000000074de5d4fcbf63e00296fd95d33236b9794016631"
                    ]
                },
                "nodeType": 1
            },
            "25": {
                "invocation": {
                    "address": "0x514910771af9ca656af840dff83e8264ecf986ca",
                    "callData": "0x0000000000000000000000002acf35c9a3f4c5c3f4c78ef5fb64c3ee82f07c450000000000000000000000000000000000000000000000000260811395ca8d4a",
                    "decodedMethod": {
                        "callParams": [
                            {
                                "name": "_to",
                                "type": "address",
                                "value": "0x2acf35c9a3f4c5c3f4c78ef5fb64c3ee82f07c45"
                            },
                            {
                                "decimalAvailable": true,
                                "name": "_value",
                                "type": "uint256",
                                "value": "171,278,706,957,520,202"
                            }
                        ],
                        "constructorArguments": "",
                        "name": "transfer",
                        "returnParams": [
                            {
                                "name": "success",
                                "type": "bool",
                                "value": true
                            }
                        ],
                        "signature": "transfer(address,uint256)"
                    },
                    "errorInfo": "",
                    "fromAddress": "0x74de5d4fcbf63e00296fd95d33236b9794016631",
                    "gasUsed": 8545,
                    "id": 25,
                    "methodDecoded": true,
                    "operation": "CALL",
                    "output": "0x0000000000000000000000000000000000000000000000000000000000000001",
                    "revert": false,
                    "revertMessage": "",
                    "selector": "0xa9059cbb",
                    "status": true,
                    "value": "0"
                },
                "nodeType": 0
            },
            "26": {
                "event": {
                    "contract": "0x514910771af9ca656af840dff83e8264ecf986ca",
                    "decodedLog": {
                        "name": "Transfer",
                        "params": [
                            {
                                "name": "from",
                                "type": "address",
                                "value": "0x74de5d4fcbf63e00296fd95d33236b9794016631"
                            },
                            {
                                "name": "to",
                                "type": "address",
                                "value": "0x2acf35c9a3f4c5c3f4c78ef5fb64c3ee82f07c45"
                            },
                            {
                                "decimalAvailable": true,
                                "name": "value",
                                "type": "uint256",
                                "value": "171,278,706,957,520,202"
                            }
                        ],
                        "signature": "Transfer(address,address,uint256)"
                    },
                    "id": 26,
                    "logData": "0x0000000000000000000000000000000000000000000000000260811395ca8d4a",
                    "logDecoded": true,
                    "operation": "EVENT",
                    "revert": false,
                    "status": true,
                    "topics": [
                        "0xddf252ad1be2c89b69c2b068fc378daa952ba7f163c4a11628f55a4df523b3ef",
                        "0x00000000000000000000000074de5d4fcbf63e00296fd95d33236b9794016631",
                        "0x0000000000000000000000002acf35c9a3f4c5c3f4c78ef5fb64c3ee82f07c45"
                    ]
                },
                "nodeType": 1
            },
            "27": {
                "invocation": {
                    "address": "0x514910771af9ca656af840dff83e8264ecf986ca",
                    "callData": "0x00000000000000000000000074de5d4fcbf63e00296fd95d33236b9794016631",
                    "decodedMethod": {
                        "callParams": [
                            {
                                "name": "_owner",
                                "type": "address",
                                "value": "0x74de5d4fcbf63e00296fd95d33236b9794016631"
                            }
                        ],
                        "constructorArguments": "",
                        "name": "balanceOf",
                        "returnParams": [
                            {
                                "decimalAvailable": true,
                                "name": "balance",
                                "type": "uint256",
                                "value": "0"
                            }
                        ],
                        "signature": "balanceOf(address)"
                    },
                    "errorInfo": "",
                    "fromAddress": "0x74de5d4fcbf63e00296fd95d33236b9794016631",
                    "gasUsed": 655,
                    "id": 27,
                    "methodDecoded": true,
                    "operation": "STATICCALL",
                    "output": "0x0000000000000000000000000000000000000000000000000000000000000000",
                    "revert": false,
                    "revertMessage": "",
                    "selector": "0x70a08231",
                    "status": true,
                    "value": "0"
                },
                "nodeType": 0
            },
            "28": {
                "invocation": {
                    "address": "0x370a366f402e2e41cdbbe54ecec12aae0cce1955",
                    "callData": "0x00000000000000000000000074de5d4fcbf63e00296fd95d33236b9794016631",
                    "decodedMethod": {
                        "callParams": [
                            {
                                "name": "account",
                                "type": "address",
                                "value": "0x74de5d4fcbf63e00296fd95d33236b9794016631"
                            }
                        ],
                        "constructorArguments": "",
                        "name": "balanceOf",
                        "returnParams": [
                            {
                                "decimalAvailable": true,
                                "name": "",
                                "type": "uint256",
                                "value": "9,389,044,412,360,768,137,768,845,516"
                            }
                        ],
                        "signature": "balanceOf(address)"
                    },
                    "errorInfo": "",
                    "fromAddress": "0x74de5d4fcbf63e00296fd95d33236b9794016631",
                    "gasUsed": 585,
                    "id": 28,
                    "methodDecoded": true,
                    "operation": "STATICCALL",
                    "output": "0x00000000000000000000000000000000000000001e566f7d78e383132f6dc0cc",
                    "revert": false,
                    "revertMessage": "",
                    "selector": "0x70a08231",
                    "status": true,
                    "value": "0"
                },
                "nodeType": 0
            },
            "29": {
                "invocation": {
                    "address": "0x370a366f402e2e41cdbbe54ecec12aae0cce1955",
                    "callData": "0x000000000000000000000000c2539386beb97c0f49781c6e1df3cea46c1d190700000000000000000000000000000000000000001e566f7d78e383132f6dc0cc",
                    "decodedMethod": {
                        "callParams": [
                            {
                                "name": "to",
                                "type": "address",
                                "value": "0xc2539386beb97c0f49781c6e1df3cea46c1d1907"
                            },
                            {
                                "decimalAvailable": true,
                                "name": "amount",
                                "type": "uint256",
                                "value": "9,389,044,412,360,768,137,768,845,516"
                            }
                        ],
                        "constructorArguments": "",
                        "name": "transfer",
                        "returnParams": [
                            {
                                "name": "",
                                "type": "bool",
                                "value": true
                            }
                        ],
                        "signature": "transfer(address,uint256)"
                    },
                    "errorInfo": "",
                    "fromAddress": "0x74de5d4fcbf63e00296fd95d33236b9794016631",
                    "gasUsed": 25148,
                    "id": 29,
                    "methodDecoded": true,
                    "operation": "CALL",
                    "output": "0x0000000000000000000000000000000000000000000000000000000000000001",
                    "revert": false,
                    "revertMessage": "",
                    "selector": "0xa9059cbb",
                    "status": true,
                    "value": "0"
                },
                "nodeType": 0
            },
            "3": {
                "invocation": {
                    "address": "0x74de5d4fcbf63e00296fd95d33236b9794016631",
                    "callData": "0x0000000000000000000000007cdf68ce9a05413cbb76cb7f80eaf415a826e3130000000000000000000000000000000000000000000000000000000000000040000000000000000000000000000000000000000000000000000000000000024492f5f037000000000000000000000000c2539386beb97c0f49781c6e1df3cea46c1d1907000000000000000000000000514910771af9ca656af840dff83e8264ecf986ca000000000000000000000000370a366f402e2e41cdbbe54ecec12aae0cce19550000000000000000000000000000000000000000000000010d46d5619259187000000000000000000000000000000000000000001dda1acbf7dbf8b2ca6b0cca00000000000000000000000000000000000000000000000000000000000001200000000000000000000000000000000000000000000000000260811395ca8d4a0000000000000000000000002acf35c9a3f4c5c3f4c78ef5fb64c3ee82f07c45000000000000000000000000000000000000000000000000000000000000000000000000000000000000000000000000000000000000000000000000000000e80502b1c5000000000000000000000000514910771af9ca656af840dff83e8264ecf986ca0000000000000000000000000000000000000000000000010d46d5619259187000000000000000000000000000000000000000001dda1acbf7dbf8b2ca6b0cca0000000000000000000000000000000000000000000000000000000000000080000000000000000000000000000000000000000000000000000000000000000200000000000000003b6d0340c40d16476380e4037e6b1a2594caf6a6cc8da96780000000000000003b6d03409f6facb42177f5af680f9f17cdf750bc7cf55973ab4991fe00000000000000000000000000000000000000000000000000000000000000000000000000000000000000000000000000000000",
                    "decodedMethod": {
                        "callParams": [
                            {
                                "name": "adapter",
                                "type": "address",
                                "value": "0x7cdf68ce9a05413cbb76cb7f80eaf415a826e313"
                            },
                            {
                                "name": "data",
                                "type": "bytes",
                                "value": "0x92f5f037000000000000000000000000c2539386beb97c0f49781c6e1df3cea46c1d1907000000000000000000000000514910771af9ca656af840dff83e8264ecf986ca000000000000000000000000370a366f402e2e41cdbbe54ecec12aae0cce19550000000000000000000000000000000000000000000000010d46d5619259187000000000000000000000000000000000000000001dda1acbf7dbf8b2ca6b0cca00000000000000000000000000000000000000000000000000000000000001200000000000000000000000000000000000000000000000000260811395ca8d4a0000000000000000000000002acf35c9a3f4c5c3f4c78ef5fb64c3ee82f07c45000000000000000000000000000000000000000000000000000000000000000000000000000000000000000000000000000000000000000000000000000000e80502b1c5000000000000000000000000514910771af9ca656af840dff83e8264ecf986ca0000000000000000000000000000000000000000000000010d46d5619259187000000000000000000000000000000000000000001dda1acbf7dbf8b2ca6b0cca0000000000000000000000000000000000000000000000000000000000000080000000000000000000000000000000000000000000000000000000000000000200000000000000003b6d0340c40d16476380e4037e6b1a2594caf6a6cc8da96780000000000000003b6d03409f6facb42177f5af680f9f17cdf750bc7cf55973ab4991fe000000000000000000000000000000000000000000000000"
                            }
                        ],
                        "constructorArguments": "",
                        "name": "swap",
                        "returnParams": [],
                        "signature": "swap(address,bytes)"
                    },
                    "errorInfo": "",
                    "fromAddress": "0x881d40237659c251811cec9c364ef91dc08d300c",
                    "gasUsed": 190061,
                    "id": 3,
                    "methodDecoded": true,
                    "operation": "CALL",
                    "output": "",
                    "revert": false,
                    "revertMessage": "",
                    "selector": "0xe3547335",
                    "status": true,
                    "value": "0"
                },
                "nodeType": 0
            },
            "30": {
                "event": {
                    "contract": "0x370a366f402e2e41cdbbe54ecec12aae0cce1955",
                    "decodedLog": {
                        "name": "Transfer",
                        "params": [
                            {
                                "name": "from",
                                "type": "address",
                                "value": "0x74de5d4fcbf63e00296fd95d33236b9794016631"
                            },
                            {
                                "name": "to",
                                "type": "address",
                                "value": "0xc2539386beb97c0f49781c6e1df3cea46c1d1907"
                            },
                            {
                                "decimalAvailable": true,
                                "name": "value",
                                "type": "uint256",
                                "value": "9,389,044,412,360,768,137,768,845,516"
                            }
                        ],
                        "signature": "Transfer(address,address,uint256)"
                    },
                    "id": 30,
                    "logData": "0x00000000000000000000000000000000000000001e566f7d78e383132f6dc0cc",
                    "logDecoded": true,
                    "operation": "EVENT",
                    "revert": false,
                    "status": true,
                    "topics": [
                        "0xddf252ad1be2c89b69c2b068fc378daa952ba7f163c4a11628f55a4df523b3ef",
                        "0x00000000000000000000000074de5d4fcbf63e00296fd95d33236b9794016631",
                        "0x000000000000000000000000c2539386beb97c0f49781c6e1df3cea46c1d1907"
                    ]
                },
                "nodeType": 1
            },
            "31": {
                "event": {
                    "contract": "0x881d40237659c251811cec9c364ef91dc08d300c",
                    "decodedLog": {
                        "name": "Swap",
                        "params": [
                            {
                                "name": "aggregatorId",
                                "type": "string",
                                "value": "0xf35f348d53012d52a5d39f9390d246956ac932d5778d2bb49e359dba4fa0896d"
                            },
                            {
                                "name": "sender",
                                "type": "address",
                                "value": "0xc2539386beb97c0f49781c6e1df3cea46c1d1907"
                            }
                        ],
                        "signature": "Swap(string,address)"
                    },
                    "id": 31,
                    "logData": "0x",
                    "logDecoded": true,
                    "operation": "EVENT",
                    "revert": false,
                    "status": true,
                    "topics": [
                        "0xbeee1e6e7fe307ddcf84b0a16137a4430ad5e2480fc4f4a8e250ab56ccd7630d",
                        "0xf35f348d53012d52a5d39f9390d246956ac932d5778d2bb49e359dba4fa0896d",
                        "0x000000000000000000000000c2539386beb97c0f49781c6e1df3cea46c1d1907"
                    ]
                },
                "nodeType": 1
            },
            "4": {
                "invocation": {
                    "address": "0x7cdf68ce9a05413cbb76cb7f80eaf415a826e313",
                    "callData": "0x000000000000000000000000c2539386beb97c0f49781c6e1df3cea46c1d1907000000000000000000000000514910771af9ca656af840dff83e8264ecf986ca000000000000000000000000370a366f402e2e41cdbbe54ecec12aae0cce19550000000000000000000000000000000000000000000000010d46d5619259187000000000000000000000000000000000000000001dda1acbf7dbf8b2ca6b0cca00000000000000000000000000000000000000000000000000000000000001200000000000000000000000000000000000000000000000000260811395ca8d4a0000000000000000000000002acf35c9a3f4c5c3f4c78ef5fb64c3ee82f07c45000000000000000000000000000000000000000000000000000000000000000000000000000000000000000000000000000000000000000000000000000000e80502b1c5000000000000000000000000514910771af9ca656af840dff83e8264ecf986ca0000000000000000000000000000000000000000000000010d46d5619259187000000000000000000000000000000000000000001dda1acbf7dbf8b2ca6b0cca0000000000000000000000000000000000000000000000000000000000000080000000000000000000000000000000000000000000000000000000000000000200000000000000003b6d0340c40d16476380e4037e6b1a2594caf6a6cc8da96780000000000000003b6d03409f6facb42177f5af680f9f17cdf750bc7cf55973ab4991fe000000000000000000000000000000000000000000000000",
                    "decodedMethod": null,
                    "errorInfo": "",
                    "fromAddress": "0x74de5d4fcbf63e00296fd95d33236b9794016631",
                    "gasUsed": 184849,
                    "id": 4,
                    "methodDecoded": false,
                    "operation": "DELEGATECALL",
                    "output": "",
                    "revert": false,
                    "revertMessage": "",
                    "selector": "0x92f5f037",
                    "status": true,
                    "value": "0"
                },
                "nodeType": 0
            },
            "5": {
                "invocation": {
                    "address": "0x514910771af9ca656af840dff83e8264ecf986ca",
                    "callData": "0x00000000000000000000000074de5d4fcbf63e00296fd95d33236b97940166310000000000000000000000001111111254eeb25477b68fb85ed929f73a960582",
                    "decodedMethod": {
                        "callParams": [
                            {
                                "name": "_owner",
                                "type": "address",
                                "value": "0x74de5d4fcbf63e00296fd95d33236b9794016631"
                            },
                            {
                                "name": "_spender",
                                "type": "address",
                                "value": "0x1111111254eeb25477b68fb85ed929f73a960582"
                            }
                        ],
                        "constructorArguments": "",
                        "name": "allowance",
                        "returnParams": [
                            {
                                "decimalAvailable": true,
                                "name": "remaining",
                                "type": "uint256",
                                "value": "115,792,089,237,316,195,423,570,985,008,687,907,853,269,984,665,640,563,536,517,106,222,533,304,114,602"
                            }
                        ],
                        "signature": "allowance(address,address)"
                    },
                    "errorInfo": "",
                    "fromAddress": "0x74de5d4fcbf63e00296fd95d33236b9794016631",
                    "gasUsed": 2838,
                    "id": 5,
                    "methodDecoded": true,
                    "operation": "STATICCALL",
                    "output": "0xffffffffffffffffffffffffffffffffffffffffffff957f8ac4f30d4bafddaa",
                    "revert": false,
                    "revertMessage": "",
                    "selector": "0xdd62ed3e",
                    "status": true,
                    "value": "0"
                },
                "nodeType": 0
            },
            "6": {
                "invocation": {
                    "address": "0x1111111254eeb25477b68fb85ed929f73a960582",
                    "callData": "0x000000000000000000000000514910771af9ca656af840dff83e8264ecf986ca0000000000000000000000000000000000000000000000010d46d5619259187000000000000000000000000000000000000000001dda1acbf7dbf8b2ca6b0cca0000000000000000000000000000000000000000000000000000000000000080000000000000000000000000000000000000000000000000000000000000000200000000000000003b6d0340c40d16476380e4037e6b1a2594caf6a6cc8da96780000000000000003b6d03409f6facb42177f5af680f9f17cdf750bc7cf55973ab4991fe",
                    "decodedMethod": {
                        "callParams": [
                            {
                                "name": "srcToken",
                                "type": "address",
                                "value": "0x514910771af9ca656af840dff83e8264ecf986ca"
                            },
                            {
                                "name": "amount",
                                "type": "uint256",
                                "value": "19,403,430,659,616,217,200"
                            },
                            {
                                "name": "minReturn",
                                "type": "uint256",
                                "value": "9,238,737,657,572,739,920,970,845,386"
                            },
                            {
                                "name": "pools",
                                "type": "uint256[]",
                                "value": [
                                    "1,457,117,133,538,164,250,980,728,583,427,525,305,860,846,001,974,863,047,015",
                                    "57,896,044,618,658,097,713,242,609,637,673,084,095,970,587,193,366,097,703,495,278,521,926,987,110,771"
                                ]
                            }
                        ],
                        "constructorArguments": "",
                        "name": "unoswap",
                        "returnParams": [
                            {
                                "name": "returnAmount",
                                "type": "uint256",
                                "value": "9,389,044,412,360,768,137,768,845,516"
                            }
                        ],
                        "signature": "unoswap(address,uint256,uint256,uint256[])"
                    },
                    "errorInfo": "",
                    "fromAddress": "0x74de5d4fcbf63e00296fd95d33236b9794016631",
                    "gasUsed": 137703,
                    "id": 6,
                    "methodDecoded": true,
                    "operation": "CALL",
                    "output": "0x00000000000000000000000000000000000000001e566f7d78e383132f6dc0cc",
                    "revert": false,
                    "revertMessage": "",
                    "selector": "0x0502b1c5",
                    "status": true,
                    "value": "0"
                },
                "nodeType": 0
            },
            "7": {
                "invocation": {
                    "address": "0x514910771af9ca656af840dff83e8264ecf986ca",
                    "callData": "0x00000000000000000000000074de5d4fcbf63e00296fd95d33236b9794016631000000000000000000000000c40d16476380e4037e6b1a2594caf6a6cc8da9670000000000000000000000000000000000000000000000010d46d56192591870",
                    "decodedMethod": {
                        "callParams": [
                            {
                                "name": "_from",
                                "type": "address",
                                "value": "0x74de5d4fcbf63e00296fd95d33236b9794016631"
                            },
                            {
                                "name": "_to",
                                "type": "address",
                                "value": "0xc40d16476380e4037e6b1a2594caf6a6cc8da967"
                            },
                            {
                                "decimalAvailable": true,
                                "name": "_value",
                                "type": "uint256",
                                "value": "19,403,430,659,616,217,200"
                            }
                        ],
                        "constructorArguments": "",
                        "name": "transferFrom",
                        "returnParams": [
                            {
                                "name": "",
                                "type": "bool",
                                "value": true
                            }
                        ],
                        "signature": "transferFrom(address,address,uint256)"
                    },
                    "errorInfo": "",
                    "fromAddress": "0x1111111254eeb25477b68fb85ed929f73a960582",
                    "gasUsed": 11900,
                    "id": 7,
                    "methodDecoded": true,
                    "operation": "CALL",
                    "output": "0x0000000000000000000000000000000000000000000000000000000000000001",
                    "revert": false,
                    "revertMessage": "",
                    "selector": "0x23b872dd",
                    "status": true,
                    "value": "0"
                },
                "nodeType": 0
            },
            "8": {
                "event": {
                    "contract": "0x514910771af9ca656af840dff83e8264ecf986ca",
                    "decodedLog": {
                        "name": "Transfer",
                        "params": [
                            {
                                "name": "from",
                                "type": "address",
                                "value": "0x74de5d4fcbf63e00296fd95d33236b9794016631"
                            },
                            {
                                "name": "to",
                                "type": "address",
                                "value": "0xc40d16476380e4037e6b1a2594caf6a6cc8da967"
                            },
                            {
                                "decimalAvailable": true,
                                "name": "value",
                                "type": "uint256",
                                "value": "19,403,430,659,616,217,200"
                            }
                        ],
                        "signature": "Transfer(address,address,uint256)"
                    },
                    "id": 8,
                    "logData": "0x0000000000000000000000000000000000000000000000010d46d56192591870",
                    "logDecoded": true,
                    "operation": "EVENT",
                    "revert": false,
                    "status": true,
                    "topics": [
                        "0xddf252ad1be2c89b69c2b068fc378daa952ba7f163c4a11628f55a4df523b3ef",
                        "0x00000000000000000000000074de5d4fcbf63e00296fd95d33236b9794016631",
                        "0x000000000000000000000000c40d16476380e4037e6b1a2594caf6a6cc8da967"
                    ]
                },
                "nodeType": 1
            },
            "9": {
                "invocation": {
                    "address": "0xc40d16476380e4037e6b1a2594caf6a6cc8da967",
                    "callData": "0x",
                    "decodedMethod": {
                        "callParams": [],
                        "constructorArguments": "",
                        "name": "getReserves",
                        "returnParams": [
                            {
                                "name": "_reserve0",
                                "type": "uint112",
                                "value": "116,872,616,743,243,545,778,606"
                            },
                            {
                                "name": "_reserve1",
                                "type": "uint112",
                                "value": "384,073,255,239,369,077,617"
                            },
                            {
                                "name": "_blockTimestampLast",
                                "type": "uint32",
                                "value": "1,688,612,951"
                            }
                        ],
                        "signature": "getReserves()"
                    },
                    "errorInfo": "",
                    "fromAddress": "0x1111111254eeb25477b68fb85ed929f73a960582",
                    "gasUsed": 2517,
                    "id": 9,
                    "methodDecoded": true,
                    "operation": "STATICCALL",
                    "output": "0x0000000000000000000000000000000000000000000018bfad602e516a4b19ae000000000000000000000000000000000000000000000014d2164ebb9e87b3710000000000000000000000000000000000000000000000000000000064a63057",
                    "revert": false,
                    "revertMessage": "",
                    "selector": "0x0902f1ac",
                    "status": true,
                    "value": "0"
                },
                "nodeType": 0
            }
        },
        "gasFlame": [
            {
                "children": [
                    {
                        "children": [
                            {
                                "children": [],
                                "depth": 0,
                                "name": "Initial Gas",
                                "value": 27108
                            },
                            {
                                "children": [
                                    {
                                        "children": [],
                                        "depth": 1,
                                        "name": "transferFrom",
                                        "value": 35800
                                    },
                                    {
                                        "children": [
                                            {
                                                "children": [
                                                    {
                                                        "children": [],
                                                        "depth": 3,
                                                        "name": "allowance",
                                                        "value": 2838
                                                    },
                                                    {
                                                        "children": [
                                                            {
                                                                "children": [],
                                                                "depth": 4,
                                                                "name": "transferFrom",
                                                                "value": 11900
                                                            },
                                                            {
                                                                "children": [],
                                                                "depth": 4,
                                                                "name": "getReserves",
                                                                "value": 2517
                                                            },
                                                            {
                                                                "children": [
                                                                    {
                                                                        "children": [],
                                                                        "depth": 5,
                                                                        "name": "transfer",
                                                                        "value": 12862
                                                                    },
                                                                    {
                                                                        "children": [],
                                                                        "depth": 5,
                                                                        "name": "balanceOf",
                                                                        "value": 655
                                                                    },
                                                                    {
                                                                        "children": [],
                                                                        "depth": 5,
                                                                        "name": "balanceOf",
                                                                        "value": 534
                                                                    }
                                                                ],
                                                                "depth": 4,
                                                                "name": "swap",
                                                                "value": 48247
                                                            },
                                                            {
                                                                "children": [],
                                                                "depth": 4,
                                                                "name": "getReserves",
                                                                "value": 2504
                                                            },
                                                            {
                                                                "children": [
                                                                    {
                                                                        "children": [],
                                                                        "depth": 5,
                                                                        "name": "transfer",
                                                                        "value": 29948
                                                                    },
                                                                    {
                                                                        "children": [],
                                                                        "depth": 5,
                                                                        "name": "balanceOf",
                                                                        "value": 585
                                                                    },
                                                                    {
                                                                        "children": [],
                                                                        "depth": 5,
                                                                        "name": "balanceOf",
                                                                        "value": 534
                                                                    }
                                                                ],
                                                                "depth": 4,
                                                                "name": "swap",
                                                                "value": 64890
                                                            }
                                                        ],
                                                        "depth": 3,
                                                        "name": "unoswap",
                                                        "value": 137703
                                                    },
                                                    {
                                                        "children": [],
                                                        "depth": 3,
                                                        "name": "transfer",
                                                        "value": 8545
                                                    },
                                                    {
                                                        "children": [],
                                                        "depth": 3,
                                                        "name": "balanceOf",
                                                        "value": 655
                                                    },
                                                    {
                                                        "children": [],
                                                        "depth": 3,
                                                        "name": "balanceOf",
                                                        "value": 585
                                                    },
                                                    {
                                                        "children": [],
                                                        "depth": 3,
                                                        "name": "transfer",
                                                        "value": 25148
                                                    }
                                                ],
                                                "depth": 2,
                                                "name": "0x92f5f037",
                                                "value": 184849
                                            }
                                        ],
                                        "depth": 1,
                                        "name": "swap",
                                        "value": 190061
                                    }
                                ],
                                "depth": 0,
                                "name": "Executed Gas",
                                "value": 248975
                            }
                        ],
                        "depth": -1,
                        "name": "Actual Gas Used",
                        "value": 223083
                    },
                    {
                        "children": [],
                        "depth": -1,
                        "name": "Refunded Gas",
                        "value": 53000
                    }
                ],
                "depth": -2,
                "name": "Total Gas",
                "value": 276083
            }
        ],
        "isConfirmed": true,
        "mainTrace": [
            {
                "children": [
                    {
                        "children": [
                            {
                                "children": [
                                    {
                                        "children": [],
                                        "depth": 2,
                                        "id": 2,
                                        "order": 2
                                    }
                                ],
                                "depth": 1,
                                "id": 1,
                                "order": 1
                            },
                            {
                                "children": [
                                    {
                                        "children": [
                                            {
                                                "children": [],
                                                "depth": 3,
                                                "id": 5,
                                                "order": 5
                                            },
                                            {
                                                "children": [
                                                    {
                                                        "children": [
                                                            {
                                                                "children": [],
                                                                "depth": 5,
                                                                "id": 8,
                                                                "order": 8
                                                            }
                                                        ],
                                                        "depth": 4,
                                                        "id": 7,
                                                        "order": 7
                                                    },
                                                    {
                                                        "children": [],
                                                        "depth": 4,
                                                        "id": 9,
                                                        "order": 9
                                                    },
                                                    {
                                                        "children": [
                                                            {
                                                                "children": [
                                                                    {
                                                                        "children": [],
                                                                        "depth": 6,
                                                                        "id": 12,
                                                                        "order": 12
                                                                    }
                                                                ],
                                                                "depth": 5,
                                                                "id": 11,
                                                                "order": 11
                                                            },
                                                            {
                                                                "children": [],
                                                                "depth": 5,
                                                                "id": 13,
                                                                "order": 13
                                                            },
                                                            {
                                                                "children": [],
                                                                "depth": 5,
                                                                "id": 14,
                                                                "order": 14
                                                            },
                                                            {
                                                                "children": [],
                                                                "depth": 5,
                                                                "id": 15,
                                                                "order": 15
                                                            },
                                                            {
                                                                "children": [],
                                                                "depth": 5,
                                                                "id": 16,
                                                                "order": 16
                                                            }
                                                        ],
                                                        "depth": 4,
                                                        "id": 10,
                                                        "order": 10
                                                    },
                                                    {
                                                        "children": [],
                                                        "depth": 4,
                                                        "id": 17,
                                                        "order": 17
                                                    },
                                                    {
                                                        "children": [
                                                            {
                                                                "children": [
                                                                    {
                                                                        "children": [],
                                                                        "depth": 6,
                                                                        "id": 20,
                                                                        "order": 20
                                                                    }
                                                                ],
                                                                "depth": 5,
                                                                "id": 19,
                                                                "order": 19
                                                            },
                                                            {
                                                                "children": [],
                                                                "depth": 5,
                                                                "id": 21,
                                                                "order": 21
                                                            },
                                                            {
                                                                "children": [],
                                                                "depth": 5,
                                                                "id": 22,
                                                                "order": 22
                                                            },
                                                            {
                                                                "children": [],
                                                                "depth": 5,
                                                                "id": 23,
                                                                "order": 23
                                                            },
                                                            {
                                                                "children": [],
                                                                "depth": 5,
                                                                "id": 24,
                                                                "order": 24
                                                            }
                                                        ],
                                                        "depth": 4,
                                                        "id": 18,
                                                        "order": 18
                                                    }
                                                ],
                                                "depth": 3,
                                                "id": 6,
                                                "order": 6
                                            },
                                            {
                                                "children": [
                                                    {
                                                        "children": [],
                                                        "depth": 4,
                                                        "id": 26,
                                                        "order": 26
                                                    }
                                                ],
                                                "depth": 3,
                                                "id": 25,
                                                "order": 25
                                            },
                                            {
                                                "children": [],
                                                "depth": 3,
                                                "id": 27,
                                                "order": 27
                                            },
                                            {
                                                "children": [],
                                                "depth": 3,
                                                "id": 28,
                                                "order": 28
                                            },
                                            {
                                                "children": [
                                                    {
                                                        "children": [],
                                                        "depth": 4,
                                                        "id": 30,
                                                        "order": 30
                                                    }
                                                ],
                                                "depth": 3,
                                                "id": 29,
                                                "order": 29
                                            }
                                        ],
                                        "depth": 2,
                                        "id": 4,
                                        "order": 4
                                    }
                                ],
                                "depth": 1,
                                "id": 3,
                                "order": 3
                            },
                            {
                                "children": [],
                                "depth": 1,
                                "id": 31,
                                "order": 31
                            }
                        ],
                        "depth": 0,
                        "id": 0,
                        "order": 0
                    }
                ],
                "depth": -1,
                "id": -1,
                "order": -1
            }
        ],
        "mainTraceNodeCount": 32,
        "parentIdMap": {
            "0": -1,
            "1": 0,
            "10": 6,
            "11": 10,
            "12": 11,
            "13": 10,
            "14": 10,
            "15": 10,
            "16": 10,
            "17": 6,
            "18": 6,
            "19": 18,
            "2": 1,
            "20": 19,
            "21": 18,
            "22": 18,
            "23": 18,
            "24": 18,
            "25": 4,
            "26": 25,
            "27": 4,
            "28": 4,
            "29": 4,
            "3": 0,
            "30": 29,
            "31": 0,
            "4": 3,
            "5": 4,
            "6": 4,
            "7": 6,
            "8": 7,
            "9": 6
        },
        "tidyTrace": [
            {
                "children": [
                    {
                        "children": [
                            {
                                "children": [
                                    {
                                        "children": [],
                                        "depth": 2,
                                        "id": 2,
                                        "order": 2
                                    }
                                ],
                                "depth": 1,
                                "id": 1,
                                "order": 1
                            },
                            {
                                "children": [
                                    {
                                        "children": [
                                            {
                                                "children": [
                                                    {
                                                        "children": [
                                                            {
                                                                "children": [],
                                                                "depth": 5,
                                                                "id": 8,
                                                                "order": 8
                                                            }
                                                        ],
                                                        "depth": 4,
                                                        "id": 7,
                                                        "order": 7
                                                    },
                                                    {
                                                        "children": [
                                                            {
                                                                "children": [
                                                                    {
                                                                        "children": [],
                                                                        "depth": 6,
                                                                        "id": 12,
                                                                        "order": 12
                                                                    }
                                                                ],
                                                                "depth": 5,
                                                                "id": 11,
                                                                "order": 11
                                                            },
                                                            {
                                                                "children": [],
                                                                "depth": 5,
                                                                "id": 15,
                                                                "order": 15
                                                            },
                                                            {
                                                                "children": [],
                                                                "depth": 5,
                                                                "id": 16,
                                                                "order": 16
                                                            }
                                                        ],
                                                        "depth": 4,
                                                        "id": 10,
                                                        "order": 10
                                                    },
                                                    {
                                                        "children": [
                                                            {
                                                                "children": [
                                                                    {
                                                                        "children": [],
                                                                        "depth": 6,
                                                                        "id": 20,
                                                                        "order": 20
                                                                    }
                                                                ],
                                                                "depth": 5,
                                                                "id": 19,
                                                                "order": 19
                                                            },
                                                            {
                                                                "children": [],
                                                                "depth": 5,
                                                                "id": 23,
                                                                "order": 23
                                                            },
                                                            {
                                                                "children": [],
                                                                "depth": 5,
                                                                "id": 24,
                                                                "order": 24
                                                            }
                                                        ],
                                                        "depth": 4,
                                                        "id": 18,
                                                        "order": 18
                                                    }
                                                ],
                                                "depth": 3,
                                                "id": 6,
                                                "order": 6
                                            },
                                            {
                                                "children": [
                                                    {
                                                        "children": [],
                                                        "depth": 4,
                                                        "id": 26,
                                                        "order": 26
                                                    }
                                                ],
                                                "depth": 3,
                                                "id": 25,
                                                "order": 25
                                            },
                                            {
                                                "children": [
                                                    {
                                                        "children": [],
                                                        "depth": 4,
                                                        "id": 30,
                                                        "order": 30
                                                    }
                                                ],
                                                "depth": 3,
                                                "id": 29,
                                                "order": 29
                                            }
                                        ],
                                        "depth": 2,
                                        "id": 4,
                                        "order": 4
                                    }
                                ],
                                "depth": 1,
                                "id": 3,
                                "order": 3
                            },
                            {
                                "children": [],
                                "depth": 1,
                                "id": 31,
                                "order": 31
                            }
                        ],
                        "depth": 0,
                        "id": 0,
                        "order": 0
                    }
                ],
                "depth": -1,
                "id": -1,
                "order": -1
            }
        ],
        "tidyTraceNodeCount": 23
    },
    "state_change": {
        "stateChanges": [
            {
                "address": "0x370a366f402e2e41cdbbe54ecec12aae0cce1955",
                "erc": "ERC-20",
                "slots": [
                    {
                        "current": "0x0000000000000000000000000000000000000150f7fb307005a6a59926504122",
                        "key": "0x1d07003f0c3ad8309a7574ef1d39964405d9608a0c0d6a46f13bdb10bc71547e",
                        "prev": "0x000000000000000000000000000000000000015116519fed7e8a28ac55be01ee"
                    },
                    {
                        "current": "0x00000000000000000000000000000000000000001e566f7d78e383132f6dc0cc",
                        "key": "0xd71ee9305fd45db49ecfa33518fdb4ff59582ecdbab376cfc7ee7787579ba410",
                        "prev": "0x0000000000000000000000000000000000000000000000000000000000000000"
                    }
                ],
                "storageVariables": [
                    {
                        "name": "_balances",
                        "type": "mapping(address => uint256)",
                        "value": {
                            "pairs": [
                                {
                                    "key": "0x9f6facb42177f5af680f9f17cdf750bc7cf55973",
                                    "value": {
                                        "current": "26697409071339446644220594503970",
                                        "prev": "26706798115751807412358363349486",
                                        "typeTag": 1
                                    }
                                },
                                {
                                    "key": "0xc2539386beb97c0f49781c6e1df3cea46c1d1907",
                                    "value": {
                                        "current": "9389044412360768137768845516",
                                        "prev": "0",
                                        "typeTag": 1
                                    }
                                }
                            ],
                            "typeTag": 4
                        }
                    }
                ]
            },
            {
                "address": "0x514910771af9ca656af840dff83e8264ecf986ca",
                "erc": "",
                "slots": [
                    {
                        "current": "0x00000000000000000000000000000000000000000000025bcebb278f572cd4ad",
                        "key": "0xe455c63cb16d7ed412c83148ac97c29d7604ba0716338276e2aa652842f86024",
                        "prev": "0x00000000000000000000000000000000000000000000025bcc5aa67bc1624763"
                    },
                    {
                        "current": "0xfffffffffffffffffffffffffffffffffffffffffffffffef058a98ad7dc5a45",
                        "key": "0x427c3a8283af6d26a9839dc35b4883b08b958e1441cc79ff304ab65acd7edbc4",
                        "prev": "0xffffffffffffffffffffffffffffffffffffffffffffffffffffffffffffffff"
                    },
                    {
                        "current": "0x0000000000000000000000000000000000000000000000000000000000000000",
                        "key": "0xe97c2f3c3714e474ce2bd286c84663734434679327ea0ca3e8c415f40a822d4a",
                        "prev": "0x0000000000000000000000000000000000000000000000010fa756752823a5ba"
                    },
                    {
                        "current": "0x0000000000000000000000000000000000000000000018c0baa703b2fca4321e",
                        "key": "0xc6f6ca7a1d101d6304666ca1533c0bcf8a71da806b4db91cb6c3255726dffd23",
                        "prev": "0x0000000000000000000000000000000000000000000018bfad602e516a4b19ae"
                    },
                    {
                        "current": "0xffffffffffffffffffffffffffffffffffffffffffff957e7d7e1dabb956c53a",
                        "key": "0x05d4d069d0680b5ba87e9257ca97200fea5146940e7ab05187b73e298904d7b2",
                        "prev": "0xffffffffffffffffffffffffffffffffffffffffffff957f8ac4f30d4bafddaa"
                    }
                ],
                "storageVariables": [
                    {
                        "name": "allowed",
                        "type": "mapping(address => mapping(address => uint256))",
                        "value": {
                            "pairs": [
                                {
                                    "key": "0x74de5d4fcbf63e00296fd95d33236b9794016631",
                                    "value": {
                                        "pairs": [
                                            {
                                                "key": "0x1111111254eeb25477b68fb85ed929f73a960582",
                                                "value": {
                                                    "current": "115792089237316195423570985008687907853269984665640563536497702791873687897402",
                                                    "prev": "115792089237316195423570985008687907853269984665640563536517106222533304114602",
                                                    "typeTag": 1
                                                }
                                            }
                                        ],
                                        "typeTag": 4
                                    }
                                },
                                {
                                    "key": "0xc2539386beb97c0f49781c6e1df3cea46c1d1907",
                                    "value": {
                                        "pairs": [
                                            {
                                                "key": "0x881d40237659c251811cec9c364ef91dc08d300c",
                                                "value": {
                                                    "current": "115792089237316195423570985008687907853269984665640564039438009298546555902533",
                                                    "prev": "115792089237316195423570985008687907853269984665640564039457584007913129639935",
                                                    "typeTag": 1
                                                }
                                            }
                                        ],
                                        "typeTag": 4
                                    }
                                }
                            ],
                            "typeTag": 4
                        }
                    },
                    {
                        "name": "balances",
                        "type": "mapping(address => uint256)",
                        "value": {
                            "pairs": [
                                {
                                    "key": "0x2acf35c9a3f4c5c3f4c78ef5fb64c3ee82f07c45",
                                    "value": {
                                        "current": "11138283220135914034349",
                                        "prev": "11138111941428956514147",
                                        "typeTag": 1
                                    }
                                },
                                {
                                    "key": "0xc2539386beb97c0f49781c6e1df3cea46c1d1907",
                                    "value": {
                                        "current": "0",
                                        "prev": "19574709366573737402",
                                        "typeTag": 1
                                    }
                                },
                                {
                                    "key": "0xc40d16476380e4037e6b1a2594caf6a6cc8da967",
                                    "value": {
                                        "current": "116892020173903161995806",
                                        "prev": "116872616743243545778606",
                                        "typeTag": 1
                                    }
                                }
                            ],
                            "typeTag": 4
                        }
                    }
                ]
            },
            {
                "address": "0x9f6facb42177f5af680f9f17cdf750bc7cf55973",
                "erc": "ERC-20",
                "slots": [
                    {
                        "current": "0x0000000000000000000000000000000000000001346c7195376ee9b07a43a028",
                        "key": "0x0000000000000000000000000000000000000000000000000000000000000009",
                        "prev": "0x0000000000000000000000000000000000000001345c727f1df809a5fb9ae0d0"
                    },
                    {
                        "current": "0x000000000000000000001f25c7654c9ee152abe21686e817811937e5fa81a63c",
                        "key": "0x000000000000000000000000000000000000000000000000000000000000000a",
                        "prev": "0x000000000000000000001f257cfd0ce0a8cb04bff3ba20c36c9997bca6604894"
                    },
                    {
                        "current": "0x64a63087000000000009c59bd820943dcbb90150f7fb307005a6a59926504122",
                        "key": "0x0000000000000000000000000000000000000000000000000000000000000008",
                        "prev": "0x64a62e5f000000000009c4ba06163bd226e4015116519fed7e8a28ac55be01ee"
                    }
                ],
                "storageVariables": [
                    {
                        "name": "price0CumulativeLast",
                        "type": "uint256",
                        "value": {
                            "current": "95452483393464479234432147496",
                            "prev": "95433144895053858181792587984",
                            "typeTag": 1
                        }
                    },
                    {
                        "name": "price1CumulativeLast",
                        "type": "uint256",
                        "value": {
                            "current": "11653690902652545812837124468999008179996148176627260",
                            "prev": "11653266112505201396993943860963574456059595535173780",
                            "typeTag": 1
                        }
                    },
                    {
                        "name": "reserve0",
                        "type": "uint112",
                        "value": {
                            "current": "26697409071339446644220594503970",
                            "prev": "26706798115751807412358363349486",
                            "typeTag": 1
                        }
                    },
                    {
                        "name": "reserve1",
                        "type": "uint112",
                        "value": {
                            "current": "180259908944685550521",
                            "prev": "180196346133050697444",
                            "typeTag": 1
                        }
                    },
                    {
                        "name": "blockTimestampLast",
                        "type": "uint32",
                        "value": {
                            "current": "1688612999",
                            "prev": "1688612447",
                            "typeTag": 1
                        }
                    }
                ]
            },
            {
                "address": "0xc02aaa39b223fe8d0a0e5c4f27ead9083c756cc2",
                "erc": "ERC-20",
                "slots": [
                    {
                        "current": "0x000000000000000000000000000000000000000000000014d1347cb1461c0e9c",
                        "key": "0x2c196fbcfc9be72b3b648669eb0782622ae443c35716895c2919a6e5fb06a8e3",
                        "prev": "0x000000000000000000000000000000000000000000000014d2164ebb9e87b371"
                    },
                    {
                        "current": "0x000000000000000000000000000000000000000000000009c59bd820943dcbb9",
                        "key": "0x30fe53bd4b2166a8bb1b787b71fa8545f50ffebf73f707887488b5efadfcb68f",
                        "prev": "0x000000000000000000000000000000000000000000000009c4ba06163bd226e4"
                    }
                ],
                "storageVariables": [
                    {
                        "name": "balanceOf",
                        "type": "mapping(address => uint256)",
                        "value": {
                            "pairs": [
                                {
                                    "key": "0x9f6facb42177f5af680f9f17cdf750bc7cf55973",
                                    "value": {
                                        "current": "180259908944685550521",
                                        "prev": "180196346133050697444",
                                        "typeTag": 1
                                    }
                                },
                                {
                                    "key": "0xc40d16476380e4037e6b1a2594caf6a6cc8da967",
                                    "value": {
                                        "current": "384009692427734224540",
                                        "prev": "384073255239369077617",
                                        "typeTag": 1
                                    }
                                }
                            ],
                            "typeTag": 4
                        }
                    }
                ]
            },
            {
                "address": "0xc40d16476380e4037e6b1a2594caf6a6cc8da967",
                "erc": "ERC-20",
                "slots": [
                    {
                        "current": "0x0000000000000000000000000000000c80e18a6f26803ff920667af954f27c12",
                        "key": "0x0000000000000000000000000000000000000000000000000000000000000009",
                        "prev": "0x0000000000000000000000000000000c80e1620d7c30076dc187b1bc9449b8f2"
                    },
                    {
                        "current": "0x0000000000000000000000000003505e7becc4c91f57279baf1e38a249a0834d",
                        "key": "0x000000000000000000000000000000000000000000000000000000000000000a",
                        "prev": "0x0000000000000000000000000003505e42de7a5fee4ff037f0a38c8c9d57a03d"
                    },
                    {
                        "current": "0x64a63087000000000014d1347cb1461c0e9c0000000018c0baa703b2fca4321e",
                        "key": "0x0000000000000000000000000000000000000000000000000000000000000008",
                        "prev": "0x64a63057000000000014d2164ebb9e87b3710000000018bfad602e516a4b19ae"
                    }
                ],
                "storageVariables": [
                    {
                        "name": "reserve0",
                        "type": "uint112",
                        "value": {
                            "current": "116892020173903161995806",
                            "prev": "116872616743243545778606",
                            "typeTag": 1
                        }
                    },
                    {
                        "name": "reserve1",
                        "type": "uint112",
                        "value": {
                            "current": "384009692427734224540",
                            "prev": "384073255239369077617",
                            "typeTag": 1
                        }
                    },
                    {
                        "name": "blockTimestampLast",
                        "type": "uint32",
                        "value": {
                            "current": "1688612999",
                            "prev": "1688612951",
                            "typeTag": 1
                        }
                    },
                    {
                        "name": "price0CumulativeLast",
                        "type": "uint256",
                        "value": {
                            "current": "4254700661083667947505246101130592812050",
                            "prev": "4254699842049442604796133975156666775794",
                            "typeTag": 1
                        }
                    },
                    {
                        "name": "price1CumulativeLast",
                        "type": "uint256",
                        "value": {
                            "current": "73903369737040084373154300952580480886145869",
                            "prev": "73903293896842936172238205176427754668138557",
                            "typeTag": 1
                        }
                    }
                ]
            }
        ]
    }
}