{
    "balance_change": {
        "balanceChanges": [
            {
                "account": "0x1692ed8a4c20910e96b6cf3e37146789a6bddbc8",
                "assets": [
                    {
                        "address": "0xeeeeeeeeeeeeeeeeeeeeeeeeeeeeeeeeeeeeeeee",
                        "amount": "0.000000000000012396",
                        "iconUrl": "https://assets.blocksec.com/image/1663669189317-3.png",
                        "isERC1155": false,
                        "isERC721": false,
                        "sign": false,
                        "value": "0.00000000004373358383999999955"
                    }
                ]
            },
            {
                "account": "0x6f1cdbbb4d53d226cf4b917bf768b94acbab6168",
                "assets": [
                    {
                        "address": "0xeeeeeeeeeeeeeeeeeeeeeeeeeeeeeeeeeeeeeeee",
                        "amount": "0.000000000000012396",
                        "iconUrl": "https://assets.blocksec.com/image/1663669189317-3.png",
                        "isERC1155": false,
                        "isERC721": false,
                        "sign": true,
                        "value": "0.00000000004373358383999999955"
                    },
                    {
                        "address": "0xc18360217d8f7ab5e7c516566761ea12ce7f9d72",
                        "amount": "112.703826489299587533",
                        "iconUrl": "https://assets.blocksec.com/icon/b37674095892c1644fcc49bbf11c03ba967554d2507c28eb7bf37d6043983e4a.png",
                        "isERC1155": false,
                        "isERC721": false,
                        "sign": true,
                        "value": "2982.143249190000096"
                    },
                    {
                        "address": "0xc02aaa39b223fe8d0a0e5c4f27ead9083c756cc2",
                        "amount": "0.856229228669729861",
                        "iconUrl": "https://assets.blocksec.com/icon/f1cb2d02c471d545bbc7722daf3277fd852d98e63d118771af7047bd8256c516.png",
                        "isERC1155": false,
                        "isERC721": false,
                        "sign": false,
                        "value": "3020.8109680227479688"
                    }
                ]
            },
            {
                "account": "0x92560c178ce069cc014138ed3c2f5221ba71f58a",
                "assets": [
                    {
                        "address": "0xc18360217d8f7ab5e7c516566761ea12ce7f9d72",
                        "amount": "112.703826489299587533",
                        "iconUrl": "https://assets.blocksec.com/icon/b37674095892c1644fcc49bbf11c03ba967554d2507c28eb7bf37d6043983e4a.png",
                        "isERC1155": false,
                        "isERC721": false,
                        "sign": false,
                        "value": "2982.143249190000096"
                    },
                    {
                        "address": "0xc02aaa39b223fe8d0a0e5c4f27ead9083c756cc2",
                        "amount": "0.856229228669729861",
                        "iconUrl": "https://assets.blocksec.com/icon/f1cb2d02c471d545bbc7722daf3277fd852d98e63d118771af7047bd8256c516.png",
                        "isERC1155": false,
                        "isERC721": false,
                        "sign": true,
                        "value": "3020.8109680227479688"
                    }
                ]
            }
        ]
    },
    "profile": {
        "basic_info": {
            "baseFee": "4.060720261",
            "blockNumber": 20348777,
            "callData": "0xceb5748e00000000000000000000000092560c178ce069cc014138ed3c2f5221ba71f58a000000000000000000000000c02aaa39b223fe8d0a0e5c4f27ead9083c756cc2000000000000000000000000c18360217d8f7ab5e7c516566761ea12ce7f9d720000000000000000000000000000000000000000000000000000000000000bb80000000000000000000000000000000000000000000000000be1eff26d2a7c450000000000000000000000000000000000000000000000061c146d0fc1f651cc000000000000000000000000000000000000000b7cbe01a7512f8000000000000000000000000000000000000000000000000000000000000000000001367f6a0000000000000000000000000000000000000000000000000000000000000000",
            "debugEnable": true,
            "errorInfo": "",
            "eventCount": 3,
            "feeRecipient": "0x95222290dd7278aa3ddd389cc1e1d165cc4bafe5",
            "formatValue": "0.000000000000012396",
            "gasLimit": 174573,
            "gasPrice": "5.16598988",
            "gasUsed": 108377,
            "intTxnCount": 6,
            "internalRevert": false,
            "internalRevertMessage": "",
            "isContractCreation": false,
            "isFlashloan": false,
            "maxFee": "5.693424653",
            "nonce": 17692,
            "overwritedBlockNumber": -1,
            "priorityFee": "1.105269619",
            "receiver": "0x6f1cdbbb4d53d226cf4b917bf768b94acbab6168",
            "revertMessage": "",
            "sender": "0x1692ed8a4c20910e96b6cf3e37146789a6bddbc8",
            "simulationEnable": true,
            "sourceTxnHash": "0x943d6a2225574974214b0cff3dad8ba2a7d2c5a9a440d6d83138d0f2ad3398c9",
            "status": true,
            "timestamp": "2024-07-20T15:56:11Z",
            "transactionFee": "0.00055987448522476",
            "txnHash": "0x943d6a2225574974214b0cff3dad8ba2a7d2c5a9a440d6d83138d0f2ad3398c9",
            "txnIndex": 80,
            "type": 2,
            "value": "12396"
        },
        "fund_flow": [
            {
                "amount": "0.000000000000012396",
                "from": "0x1692ed8a4c20910e96b6cf3e37146789a6bddbc8",
                "id": 1,
                "isERC1155": false,
                "isERC721": false,
                "isReverted": false,
                "order": 1,
                "to": "0x6f1cdbbb4d53d226cf4b917bf768b94acbab6168",
                "token": "0xeeeeeeeeeeeeeeeeeeeeeeeeeeeeeeeeeeeeeeee"
            },
            {
                "amount": "112.703826489299587533",
                "from": "0x92560c178ce069cc014138ed3c2f5221ba71f58a",
                "id": 2,
                "isERC1155": false,
                "isERC721": false,
                "isReverted": false,
                "order": 2,
                "to": "0x6f1cdbbb4d53d226cf4b917bf768b94acbab6168",
                "token": "0xc18360217d8f7ab5e7c516566761ea12ce7f9d72"
            },
            {
                "amount": "0.856229228669729861",
                "from": "0x6f1cdbbb4d53d226cf4b917bf768b94acbab6168",
                "id": 3,
                "isERC1155": false,
                "isERC721": false,
                "isReverted": false,
                "order": 3,
                "to": "0x92560c178ce069cc014138ed3c2f5221ba71f58a",
                "token": "0xc02aaa39b223fe8d0a0e5c4f27ead9083c756cc2"
            }
        ],
        "token_infos": [
            {
                "address": "0xc02aaa39b223fe8d0a0e5c4f27ead9083c756cc2",
                "decimals": 18
            },
            {
                "address": "0xc18360217d8f7ab5e7c516566761ea12ce7f9d72",
                "decimals": 18
            },
            {
                "address": "0xeeeeeeeeeeeeeeeeeeeeeeeeeeeeeeeeeeeeeeee",
                "decimals": 18
            }
        ]
    },
    "address_label": {
        "labels": [
            {
                "address": "0x0000000000000000000000000000000000000001",
                "label": "Precompiled"
            },
            {
                "address": "0x0000000000000000000000000000000000000002",
                "label": "Precompiled"
            },
            {
                "address": "0x0000000000000000000000000000000000000003",
                "label": "Precompiled"
            },
            {
                "address": "0xc02aaa39b223fe8d0a0e5c4f27ead9083c756cc2",
                "label": "Wrapped Ether (WETH)"
            },
            {
                "address": "0x6f1cdbbb4d53d226cf4b917bf768b94acbab6168",
                "label": "MEV Bot: 0x6f1\u2026168"
            },
            {
                "address": "0xc18360217d8f7ab5e7c516566761ea12ce7f9d72",
                "label": "ENS: ENS Token"
            },
            {
                "address": "0x92560c178ce069cc014138ed3c2f5221ba71f58a",
                "label": "Uniswap V3: ENS 5"
            },
            {
                "address": "0x0000000000000000000000000000000000000004",
                "label": "Precompiled"
            },
            {
                "address": "0xeeeeeeeeeeeeeeeeeeeeeeeeeeeeeeeeeeeeeeee",
                "label": "Ether"
            }
        ]
    },
    "trace": {
        "accountLabels": null,
        "dataMap": {
            "-1": {
                "invocation": {
                    "address": "0x1692ed8a4c20910e96b6cf3e37146789a6bddbc8",
                    "callData": "",
                    "decodedMethod": null,
                    "errorInfo": "",
                    "fromAddress": "",
                    "gasUsed": 0,
                    "id": -1,
                    "methodDecoded": false,
                    "operation": "",
                    "output": "",
                    "revert": false,
                    "revertMessage": "",
                    "selector": "",
                    "status": false,
                    "value": ""
                },
                "nodeType": 0
            },
            "0": {
                "invocation": {
                    "address": "0x6f1cdbbb4d53d226cf4b917bf768b94acbab6168",
                    "callData": "0x00000000000000000000000092560c178ce069cc014138ed3c2f5221ba71f58a000000000000000000000000c02aaa39b223fe8d0a0e5c4f27ead9083c756cc2000000000000000000000000c18360217d8f7ab5e7c516566761ea12ce7f9d720000000000000000000000000000000000000000000000000000000000000bb80000000000000000000000000000000000000000000000000be1eff26d2a7c450000000000000000000000000000000000000000000000061c146d0fc1f651cc000000000000000000000000000000000000000b7cbe01a7512f8000000000000000000000000000000000000000000000000000000000000000000001367f6a0000000000000000000000000000000000000000000000000000000000000000",
                    "decodedMethod": null,
                    "errorInfo": "",
                    "fromAddress": "0x1692ed8a4c20910e96b6cf3e37146789a6bddbc8",
                    "gasUsed": 108377,
                    "id": 0,
                    "methodDecoded": false,
                    "operation": "CALL",
                    "output": "",
                    "revert": false,
                    "revertMessage": "",
                    "selector": "0xceb5748e",
                    "status": true,
                    "value": "0.000000000000012396"
                },
                "nodeType": 0
            },
            "1": {
                "invocation": {
                    "address": "0x92560c178ce069cc014138ed3c2f5221ba71f58a",
                    "callData": "0x0000000000000000000000006f1cdbbb4d53d226cf4b917bf768b94acbab616800000000000000000000000000000000000000000000000000000000000000010000000000000000000000000000000000000000000000000be1eff26d2a7c45000000000000000000000000000000000000000b7cbe01a7512f80000000000000000000000000000000000000000000000000000000000000000000000000a0000000000000000000000000000000000000000000000000000000000000002bc02aaa39b223fe8d0a0e5c4f27ead9083c756cc2000bb8c18360217d8f7ab5e7c516566761ea12ce7f9d72000000000000000000000000000000000000000000",
                    "decodedMethod": {
                        "callParams": [
                            {
                                "name": "recipient",
                                "type": "address",
                                "value": "0x6f1cdbbb4d53d226cf4b917bf768b94acbab6168"
                            },
                            {
                                "name": "zeroForOne",
                                "type": "bool",
                                "value": true
                            },
                            {
                                "name": "amountSpecified",
                                "type": "int256",
                                "value": "856,229,228,669,729,861"
                            },
                            {
                                "name": "sqrtPriceLimitX96",
                                "type": "uint160",
                                "value": "910,115,632,589,304,059,951,656,730,624"
                            },
                            {
                                "name": "data",
                                "type": "bytes",
                                "value": "0xc02aaa39b223fe8d0a0e5c4f27ead9083c756cc2000bb8c18360217d8f7ab5e7c516566761ea12ce7f9d72"
                            }
                        ],
                        "constructorArguments": "",
                        "name": "swap",
                        "returnParams": [
                            {
                                "name": "amount0",
                                "type": "int256",
                                "value": "856,229,228,669,729,861"
                            },
                            {
                                "name": "amount1",
                                "type": "int256",
                                "value": "-112,703,826,489,299,587,533"
                            }
                        ],
                        "signature": "swap(address,bool,int256,uint160,bytes)"
                    },
                    "errorInfo": "",
                    "fromAddress": "0x6f1cdbbb4d53d226cf4b917bf768b94acbab6168",
                    "gasUsed": 80075,
                    "id": 1,
                    "methodDecoded": true,
                    "operation": "CALL",
                    "output": "0x0000000000000000000000000000000000000000000000000be1eff26d2a7c45fffffffffffffffffffffffffffffffffffffffffffffff9e3eb92f03e09ae33",
                    "revert": false,
                    "revertMessage": "",
                    "selector": "0x128acb08",
                    "status": true,
                    "value": "0"
                },
                "nodeType": 0
            },
            "2": {
                "invocation": {
                    "address": "0xc18360217d8f7ab5e7c516566761ea12ce7f9d72",
                    "callData": "0x0000000000000000000000006f1cdbbb4d53d226cf4b917bf768b94acbab61680000000000000000000000000000000000000000000000061c146d0fc1f651cd",
                    "decodedMethod": {
                        "callParams": [
                            {
                                "name": "recipient",
                                "type": "address",
                                "value": "0x6f1cdbbb4d53d226cf4b917bf768b94acbab6168"
                            },
                            {
                                "decimalAvailable": true,
                                "name": "amount",
                                "type": "uint256",
                                "value": "112,703,826,489,299,587,533"
                            }
                        ],
                        "constructorArguments": "",
                        "name": "transfer",
                        "returnParams": [
                            {
                                "name": "",
                                "type": "bool",
                                "value": true
                            }
                        ],
                        "signature": "transfer(address,uint256)"
                    },
                    "errorInfo": "",
                    "fromAddress": "0x92560c178ce069cc014138ed3c2f5221ba71f58a",
                    "gasUsed": 18365,
                    "id": 2,
                    "methodDecoded": true,
                    "operation": "CALL",
                    "output": "0x0000000000000000000000000000000000000000000000000000000000000001",
                    "revert": false,
                    "revertMessage": "",
                    "selector": "0xa9059cbb",
                    "status": true,
                    "value": "0"
                },
                "nodeType": 0
            },
            "3": {
                "event": {
                    "contract": "0xc18360217d8f7ab5e7c516566761ea12ce7f9d72",
                    "decodedLog": {
                        "name": "Transfer",
                        "params": [
                            {
                                "name": "from",
                                "type": "address",
                                "value": "0x92560c178ce069cc014138ed3c2f5221ba71f58a"
                            },
                            {
                                "name": "to",
                                "type": "address",
                                "value": "0x6f1cdbbb4d53d226cf4b917bf768b94acbab6168"
                            },
                            {
                                "decimalAvailable": true,
                                "name": "value",
                                "type": "uint256",
                                "value": "112,703,826,489,299,587,533"
                            }
                        ],
                        "signature": "Transfer(address,address,uint256)"
                    },
                    "id": 3,
                    "logData": "0x0000000000000000000000000000000000000000000000061c146d0fc1f651cd",
                    "logDecoded": true,
                    "operation": "EVENT",
                    "revert": false,
                    "status": true,
                    "topics": [
                        "0xddf252ad1be2c89b69c2b068fc378daa952ba7f163c4a11628f55a4df523b3ef",
                        "0x00000000000000000000000092560c178ce069cc014138ed3c2f5221ba71f58a",
                        "0x0000000000000000000000006f1cdbbb4d53d226cf4b917bf768b94acbab6168"
                    ]
                },
                "nodeType": 1
            },
            "4": {
                "invocation": {
                    "address": "0xc02aaa39b223fe8d0a0e5c4f27ead9083c756cc2",
                    "callData": "0x00000000000000000000000092560c178ce069cc014138ed3c2f5221ba71f58a",
                    "decodedMethod": {
                        "callParams": [
                            {
                                "name": "",
                                "type": "address",
                                "value": "0x92560c178ce069cc014138ed3c2f5221ba71f58a"
                            }
                        ],
                        "constructorArguments": "",
                        "name": "balanceOf",
                        "returnParams": [
                            {
                                "decimalAvailable": true,
                                "name": "",
                                "type": "uint256",
                                "value": "371,491,594,237,959,707,679"
                            }
                        ],
                        "signature": "balanceOf(address)"
                    },
                    "errorInfo": "",
                    "fromAddress": "0x92560c178ce069cc014138ed3c2f5221ba71f58a",
                    "gasUsed": 2534,
                    "id": 4,
                    "methodDecoded": true,
                    "operation": "STATICCALL",
                    "output": "0x000000000000000000000000000000000000000000000014237b44b66d239c1f",
                    "revert": false,
                    "revertMessage": "",
                    "selector": "0x70a08231",
                    "status": true,
                    "value": "0"
                },
                "nodeType": 0
            },
            "5": {
                "invocation": {
                    "address": "0x6f1cdbbb4d53d226cf4b917bf768b94acbab6168",
                    "callData": "0x0000000000000000000000000000000000000000000000000be1eff26d2a7c45fffffffffffffffffffffffffffffffffffffffffffffff9e3eb92f03e09ae330000000000000000000000000000000000000000000000000000000000000060000000000000000000000000000000000000000000000000000000000000002bc02aaa39b223fe8d0a0e5c4f27ead9083c756cc2000bb8c18360217d8f7ab5e7c516566761ea12ce7f9d72000000000000000000000000000000000000000000",
                    "decodedMethod": {
                        "callParams": [
                            {
                                "name": "amount0Delta",
                                "type": "int256",
                                "value": "856,229,228,669,729,861"
                            },
                            {
                                "name": "amount1Delta",
                                "type": "int256",
                                "value": "-112,703,826,489,299,587,533"
                            },
                            {
                                "name": "data",
                                "type": "bytes",
                                "value": "0xc02aaa39b223fe8d0a0e5c4f27ead9083c756cc2000bb8c18360217d8f7ab5e7c516566761ea12ce7f9d72"
                            }
                        ],
                        "constructorArguments": "",
                        "name": "uniswapV3SwapCallback",
                        "returnParams": [],
                        "signature": "uniswapV3SwapCallback(int256,int256,bytes)"
                    },
                    "errorInfo": "",
                    "fromAddress": "0x92560c178ce069cc014138ed3c2f5221ba71f58a",
                    "gasUsed": 13377,
                    "id": 5,
                    "methodDecoded": true,
                    "operation": "CALL",
                    "output": "",
                    "revert": false,
                    "revertMessage": "",
                    "selector": "0xfa461e33",
                    "status": true,
                    "value": "0"
                },
                "nodeType": 0
            },
            "6": {
                "invocation": {
                    "address": "0xc02aaa39b223fe8d0a0e5c4f27ead9083c756cc2",
                    "callData": "0x00000000000000000000000092560c178ce069cc014138ed3c2f5221ba71f58a0000000000000000000000000000000000000000000000000be1eff26d2a7c45",
                    "decodedMethod": {
                        "callParams": [
                            {
                                "name": "dst",
                                "type": "address",
                                "value": "0x92560c178ce069cc014138ed3c2f5221ba71f58a"
                            },
                            {
                                "decimalAvailable": true,
                                "name": "wad",
                                "type": "uint256",
                                "value": "856,229,228,669,729,861"
                            }
                        ],
                        "constructorArguments": "",
                        "name": "transfer",
                        "returnParams": [
                            {
                                "name": "",
                                "type": "bool",
                                "value": true
                            }
                        ],
                        "signature": "transfer(address,uint256)"
                    },
                    "errorInfo": "",
                    "fromAddress": "0x6f1cdbbb4d53d226cf4b917bf768b94acbab6168",
                    "gasUsed": 10862,
                    "id": 6,
                    "methodDecoded": true,
                    "operation": "CALL",
                    "output": "0x0000000000000000000000000000000000000000000000000000000000000001",
                    "revert": false,
                    "revertMessage": "",
                    "selector": "0xa9059cbb",
                    "status": true,
                    "value": "0"
                },
                "nodeType": 0
            },
            "7": {
                "event": {
                    "contract": "0xc02aaa39b223fe8d0a0e5c4f27ead9083c756cc2",
                    "decodedLog": {
                        "name": "Transfer",
                        "params": [
                            {
                                "name": "src",
                                "type": "address",
                                "value": "0x6f1cdbbb4d53d226cf4b917bf768b94acbab6168"
                            },
                            {
                                "name": "dst",
                                "type": "address",
                                "value": "0x92560c178ce069cc014138ed3c2f5221ba71f58a"
                            },
                            {
                                "decimalAvailable": true,
                                "name": "wad",
                                "type": "uint256",
                                "value": "856,229,228,669,729,861"
                            }
                        ],
                        "signature": "Transfer(address,address,uint256)"
                    },
                    "id": 7,
                    "logData": "0x0000000000000000000000000000000000000000000000000be1eff26d2a7c45",
                    "logDecoded": true,
                    "operation": "EVENT",
                    "revert": false,
                    "status": true,
                    "topics": [
                        "0xddf252ad1be2c89b69c2b068fc378daa952ba7f163c4a11628f55a4df523b3ef",
                        "0x0000000000000000000000006f1cdbbb4d53d226cf4b917bf768b94acbab6168",
                        "0x00000000000000000000000092560c178ce069cc014138ed3c2f5221ba71f58a"
                    ]
                },
                "nodeType": 1
            },
            "8": {
                "invocation": {
                    "address": "0xc02aaa39b223fe8d0a0e5c4f27ead9083c756cc2",
                    "callData": "0x00000000000000000000000092560c178ce069cc014138ed3c2f5221ba71f58a",
                    "decodedMethod": {
                        "callParams": [
                            {
                                "name": "",
                                "type": "address",
                                "value": "0x92560c178ce069cc014138ed3c2f5221ba71f58a"
                            }
                        ],
                        "constructorArguments": "",
                        "name": "balanceOf",
                        "returnParams": [
                            {
                                "decimalAvailable": true,
                                "name": "",
                                "type": "uint256",
                                "value": "372,347,823,466,629,437,540"
                            }
                        ],
                        "signature": "balanceOf(address)"
                    },
                    "errorInfo": "",
                    "fromAddress": "0x92560c178ce069cc014138ed3c2f5221ba71f58a",
                    "gasUsed": 534,
                    "id": 8,
                    "methodDecoded": true,
                    "operation": "STATICCALL",
                    "output": "0x0000000000000000000000000000000000000000000000142f5d34a8da4e1864",
                    "revert": false,
                    "revertMessage": "",
                    "selector": "0x70a08231",
                    "status": true,
                    "value": "0"
                },
                "nodeType": 0
            },
            "9": {
                "event": {
                    "contract": "0x92560c178ce069cc014138ed3c2f5221ba71f58a",
                    "decodedLog": {
                        "name": "Swap",
                        "params": [
                            {
                                "name": "sender",
                                "type": "address",
                                "value": "0x6f1cdbbb4d53d226cf4b917bf768b94acbab6168"
                            },
                            {
                                "name": "recipient",
                                "type": "address",
                                "value": "0x6f1cdbbb4d53d226cf4b917bf768b94acbab6168"
                            },
                            {
                                "name": "amount0",
                                "type": "int256",
                                "value": "856,229,228,669,729,861"
                            },
                            {
                                "name": "amount1",
                                "type": "int256",
                                "value": "-112,703,826,489,299,587,533"
                            },
                            {
                                "name": "sqrtPriceX96",
                                "type": "uint160",
                                "value": "910,115,632,589,304,059,951,656,730,624"
                            },
                            {
                                "name": "liquidity",
                                "type": "uint128",
                                "value": "19,409,508,851,914,621,650,818"
                            },
                            {
                                "name": "tick",
                                "type": "int24",
                                "value": "48,827"
                            }
                        ],
                        "signature": "Swap(address,address,int256,int256,uint160,uint128,int24)"
                    },
                    "id": 9,
                    "logData": "0x0000000000000000000000000000000000000000000000000be1eff26d2a7c45fffffffffffffffffffffffffffffffffffffffffffffff9e3eb92f03e09ae33000000000000000000000000000000000000000b7cbe01a7512f80000000000000000000000000000000000000000000000000000000041c310b98d4c2f10782000000000000000000000000000000000000000000000000000000000000bebb",
                    "logDecoded": true,
                    "operation": "EVENT",
                    "revert": false,
                    "status": true,
                    "topics": [
                        "0xc42079f94a6350d7e6235f29174924f928cc2ac818eb64fed8004e115fbcca67",
                        "0x0000000000000000000000006f1cdbbb4d53d226cf4b917bf768b94acbab6168",
                        "0x0000000000000000000000006f1cdbbb4d53d226cf4b917bf768b94acbab6168"
                    ]
                },
                "nodeType": 1
            }
        },
        "gasFlame": [
            {
                "children": [
                    {
                        "children": [
                            {
                                "children": [],
                                "depth": 0,
                                "name": "Initial Gas",
                                "value": 23308
                            },
                            {
                                "children": [
                                    {
                                        "children": [
                                            {
                                                "children": [],
                                                "depth": 2,
                                                "name": "transfer",
                                                "value": 18365
                                            },
                                            {
                                                "children": [],
                                                "depth": 2,
                                                "name": "balanceOf",
                                                "value": 2534
                                            },
                                            {
                                                "children": [
                                                    {
                                                        "children": [],
                                                        "depth": 3,
                                                        "name": "transfer",
                                                        "value": 10862
                                                    }
                                                ],
                                                "depth": 2,
                                                "name": "uniswapV3SwapCallback",
                                                "value": 13377
                                            },
                                            {
                                                "children": [],
                                                "depth": 2,
                                                "name": "balanceOf",
                                                "value": 534
                                            }
                                        ],
                                        "depth": 1,
                                        "name": "swap",
                                        "value": 80075
                                    }
                                ],
                                "depth": 0,
                                "name": "Executed Gas",
                                "value": 85069
                            }
                        ],
                        "depth": -1,
                        "name": "Actual Gas Used",
                        "value": 108377
                    },
                    {
                        "children": [],
                        "depth": -1,
                        "name": "Refunded Gas",
                        "value": 0
                    }
                ],
                "depth": -2,
                "name": "Total Gas",
                "value": 108377
            }
        ],
        "isConfirmed": true,
        "mainTrace": [
            {
                "children": [
                    {
                        "children": [
                            {
                                "children": [
                                    {
                                        "children": [
                                            {
                                                "children": [],
                                                "depth": 3,
                                                "id": 3,
                                                "order": 3
                                            }
                                        ],
                                        "depth": 2,
                                        "id": 2,
                                        "order": 2
                                    },
                                    {
                                        "children": [],
                                        "depth": 2,
                                        "id": 4,
                                        "order": 4
                                    },
                                    {
                                        "children": [
                                            {
                                                "children": [
                                                    {
                                                        "children": [],
                                                        "depth": 4,
                                                        "id": 7,
                                                        "order": 7
                                                    }
                                                ],
                                                "depth": 3,
                                                "id": 6,
                                                "order": 6
                                            }
                                        ],
                                        "depth": 2,
                                        "id": 5,
                                        "order": 5
                                    },
                                    {
                                        "children": [],
                                        "depth": 2,
                                        "id": 8,
                                        "order": 8
                                    },
                                    {
                                        "children": [],
                                        "depth": 2,
                                        "id": 9,
                                        "order": 9
                                    }
                                ],
                                "depth": 1,
                                "id": 1,
                                "order": 1
                            }
                        ],
                        "depth": 0,
                        "id": 0,
                        "order": 0
                    }
                ],
                "depth": -1,
                "id": -1,
                "order": -1
            }
        ],
        "mainTraceNodeCount": 10,
        "parentIdMap": {
            "0": -1,
            "1": 0,
            "2": 1,
            "3": 2,
            "4": 1,
            "5": 1,
            "6": 5,
            "7": 6,
            "8": 1,
            "9": 1
        },
        "tidyTrace": [
            {
                "children": [
                    {
                        "children": [
                            {
                                "children": [
                                    {
                                        "children": [
                                            {
                                                "children": [],
                                                "depth": 3,
                                                "id": 3,
                                                "order": 3
                                            }
                                        ],
                                        "depth": 2,
                                        "id": 2,
                                        "order": 2
                                    },
                                    {
                                        "children": [
                                            {
                                                "children": [
                                                    {
                                                        "children": [],
                                                        "depth": 4,
                                                        "id": 7,
                                                        "order": 7
                                                    }
                                                ],
                                                "depth": 3,
                                                "id": 6,
                                                "order": 6
                                            }
                                        ],
                                        "depth": 2,
                                        "id": 5,
                                        "order": 5
                                    },
                                    {
                                        "children": [],
                                        "depth": 2,
                                        "id": 9,
                                        "order": 9
                                    }
                                ],
                                "depth": 1,
                                "id": 1,
                                "order": 1
                            }
                        ],
                        "depth": 0,
                        "id": 0,
                        "order": 0
                    }
                ],
                "depth": -1,
                "id": -1,
                "order": -1
            }
        ],
        "tidyTraceNodeCount": 8
    },
    "state_change": {
        "stateChanges": [
            {
                "address": "0x92560c178ce069cc014138ed3c2f5221ba71f58a",
                "erc": "",
                "slots": [
                    {
                        "current": "0x00010000b400b4004700bebb000000000000000b7cbe01a7512f800000000000",
                        "key": "0x0000000000000000000000000000000000000000000000000000000000000000",
                        "prev": "0x00010000b400b4004600bec5000000000000000b7e3a8cbb13d15406bae5cf3f"
                    },
                    {
                        "current": "0x01000006b500000000000118a712bf464cbe114bc00003db459bc892669bde1b",
                        "key": "0x000000000000000000000000000000000000000000000000000000000000004f",
                        "prev": "0x01000006b500000000000117fe1d48379d92ffbd2f0003d93342999e66991643"
                    },
                    {
                        "current": "0x000000000000000000000000000000000aaac672cb6974a1ff5580a633a9d70f",
                        "key": "0x0000000000000000000000000000000000000000000000000000000000000001",
                        "prev": "0x000000000000000000000000000000000aaac43a642859211d3a9b440be8925b"
                    }
                ],
                "storageVariables": [
                    {
                        "name": "slot0",
                        "type": "struct UniswapV3Pool.Slot0",
                        "value": {
                            "fields": [
                                {
                                    "name": "sqrtPriceX96",
                                    "type": "uint160",
                                    "value": {
                                        "current": "910115632589304059951656730624",
                                        "prev": "910575681174211599159190212415",
                                        "typeTag": 1
                                    }
                                },
                                {
                                    "name": "tick",
                                    "type": "int24",
                                    "value": {
                                        "current": "48827",
                                        "prev": "48837",
                                        "typeTag": 1
                                    }
                                },
                                {
                                    "name": "observationIndex",
                                    "type": "uint16",
                                    "value": {
                                        "current": "71",
                                        "prev": "70",
                                        "typeTag": 1
                                    }
                                },
                                {
                                    "name": "observationCardinality",
                                    "type": "uint16",
                                    "value": {
                                        "current": "180",
                                        "prev": "180",
                                        "typeTag": 1
                                    }
                                },
                                {
                                    "name": "observationCardinalityNext",
                                    "type": "uint16",
                                    "value": {
                                        "current": "180",
                                        "prev": "180",
                                        "typeTag": 1
                                    }
                                },
                                {
                                    "name": "feeProtocol",
                                    "type": "uint8",
                                    "value": {
                                        "current": "0",
                                        "prev": "0",
                                        "typeTag": 1
                                    }
                                },
                                {
                                    "name": "unlocked",
                                    "type": "bool",
                                    "value": {
                                        "current": "true",
                                        "prev": "true",
                                        "typeTag": 1
                                    }
                                }
                            ],
                            "typeTag": 3
                        }
                    },
                    {
                        "name": "feeGrowthGlobal0X128",
                        "type": "uint256",
                        "value": {
                            "current": "14178995435865074070395829263104857871",
                            "prev": "14178950402313099897007717428186616411",
                            "typeTag": 1
                        }
                    }
                ]
            },
            {
                "address": "0xc02aaa39b223fe8d0a0e5c4f27ead9083c756cc2",
                "erc": "ERC-20",
                "slots": [
                    {
                        "current": "0x00000000000000000000000000000000000000000000000e6d4c9865f23668a3",
                        "key": "0x7e30eb9dc7afa207fc50215e1f206b733ee6736b28e7b0dd2ef6cba16ab88ea0",
                        "prev": "0x00000000000000000000000000000000000000000000000e792e88585f60e4e8"
                    },
                    {
                        "current": "0x0000000000000000000000000000000000000000000000142f5d34a8da4e1864",
                        "key": "0x3445feddb98b2062e71cf5687700481086ec4c4a3d1ebbd1e9d28b960f4e8c63",
                        "prev": "0x000000000000000000000000000000000000000000000014237b44b66d239c1f"
                    }
                ],
                "storageVariables": [
                    {
                        "name": "balanceOf",
                        "type": "mapping(address => uint256)",
                        "value": {
                            "pairs": [
                                {
                                    "key": "0x6f1cdbbb4d53d226cf4b917bf768b94acbab6168",
                                    "value": {
                                        "current": "266130254443920648355",
                                        "prev": "266986483672590378216",
                                        "typeTag": 1
                                    }
                                },
                                {
                                    "key": "0x92560c178ce069cc014138ed3c2f5221ba71f58a",
                                    "value": {
                                        "current": "372347823466629437540",
                                        "prev": "371491594237959707679",
                                        "typeTag": 1
                                    }
                                }
                            ],
                            "typeTag": 4
                        }
                    }
                ]
            },
            {
                "address": "0xc18360217d8f7ab5e7c516566761ea12ce7f9d72",
                "erc": "ERC-20",
                "slots": [
                    {
                        "current": "0x000000000000000000000000000000000000000000000fa5ee6ff3d4e76c2f4a",
                        "key": "0x8b35d4eaad422f218d805cfae496489a3ee6184776d0b93a6219d57a3647fce8",
                        "prev": "0x000000000000000000000000000000000000000000000fac0a8460e4a9628117"
                    },
                    {
                        "current": "0x00000000000000000000000000000000000000000000000b56d639ffabf54887",
                        "key": "0x088aceb73058ac8868ac6c8b117dd323d2a7697b2375e0cdaefced857d4b5f29",
                        "prev": "0x0000000000000000000000000000000000000000000000053ac1ccefe9fef6ba"
                    }
                ],
                "storageVariables": [
                    {
                        "name": "_balances",
                        "type": "mapping(address => uint256)",
                        "value": {
                            "pairs": [
                                {
                                    "key": "0x6f1cdbbb4d53d226cf4b917bf768b94acbab6168",
                                    "value": {
                                        "current": "209171437313347373191",
                                        "prev": "96467610824047785658",
                                        "typeTag": 1
                                    }
                                },
                                {
                                    "key": "0x92560c178ce069cc014138ed3c2f5221ba71f58a",
                                    "value": {
                                        "current": "73896391234405937196874",
                                        "prev": "74009095060895236784407",
                                        "typeTag": 1
                                    }
                                }
                            ],
                            "typeTag": 4
                        }
                    }
                ]
            }
        ]
    }
}