{
    "balance_change": {
        "balanceChanges": [
            {
                "account": "0xbddb1f0896e9b30492f1c4ce7c5139dc7f0115c5",
                "assets": [
                    {
                        "address": "0x01ed05b94d71c34e69d4bd226749d4e2a73fb167",
                        "amount": "94",
                        "iconUrl": "",
                        "isERC1155": false,
                        "isERC721": false,
                        "sign": false,
                        "value": ""
                    }
                ]
            },
            {
                "account": "0xb8afc730a05824d16b9bd378602b15c59d636717",
                "assets": [
                    {
                        "address": "0x01ed05b94d71c34e69d4bd226749d4e2a73fb167",
                        "amount": "94",
                        "iconUrl": "",
                        "isERC1155": false,
                        "isERC721": false,
                        "sign": true,
                        "value": ""
                    }
                ]
            }
        ]
    },
    "profile": {
        "basic_info": {
            "baseFee": "",
            "blockNumber": 10382961,
            "callData": "0xa9059cbb000000000000000000000000b8afc730a05824d16b9bd378602b15c59d636717000000000000000000000000000000000000000000000000000000000000005e",
            "debugEnable": true,
            "errorInfo": "",
            "eventCount": 1,
            "feeRecipient": "0x5a0b54d5dc17e0aadc383d2db43b0a0d3e029c4c",
            "formatValue": "0",
            "gasLimit": 99000,
            "gasPrice": "30.800000233",
            "gasUsed": 36595,
            "intTxnCount": 0,
            "internalRevert": false,
            "internalRevertMessage": "",
            "isContractCreation": false,
            "isFlashloan": false,
            "maxFee": "",
            "nonce": 10,
            "overwritedBlockNumber": -1,
            "priorityFee": "",
            "receiver": "0x01ed05b94d71c34e69d4bd226749d4e2a73fb167",
            "revertMessage": "",
            "sender": "0xbddb1f0896e9b30492f1c4ce7c5139dc7f0115c5",
            "simulationEnable": true,
            "sourceTxnHash": "0x945e70adafdace52ae362b6f7aee9f82d3ad66f76c9f493f89fc399c9c62be82",
            "status": true,
            "timestamp": "2020-07-02T23:29:53Z",
            "transactionFee": "0.001127126008526635",
            "txnHash": "0x945e70adafdace52ae362b6f7aee9f82d3ad66f76c9f493f89fc399c9c62be82",
            "txnIndex": 157,
            "type": 0,
            "value": "0"
        },
        "fund_flow": [
            {
                "amount": "94",
                "from": "0xbddb1f0896e9b30492f1c4ce7c5139dc7f0115c5",
                "id": 1,
                "isERC1155": false,
                "isERC721": false,
                "isReverted": false,
                "order": 1,
                "to": "0xb8afc730a05824d16b9bd378602b15c59d636717",
                "token": "0x01ed05b94d71c34e69d4bd226749d4e2a73fb167"
            }
        ],
        "token_infos": [
            {
                "address": "0x01ed05b94d71c34e69d4bd226749d4e2a73fb167",
                "decimals": 0
            },
            {
                "address": "0xc02aaa39b223fe8d0a0e5c4f27ead9083c756cc2",
                "decimals": 18
            },
            {
                "address": "0xeeeeeeeeeeeeeeeeeeeeeeeeeeeeeeeeeeeeeeee",
                "decimals": 18
            }
        ]
    },
    "address_label": {
        "labels": [
            {
                "address": "0x0000000000000000000000000000000000000004",
                "label": "Precompiled"
            },
            {
                "address": "0xeeeeeeeeeeeeeeeeeeeeeeeeeeeeeeeeeeeeeeee",
                "label": "Ether"
            },
            {
                "address": "0x01ed05b94d71c34e69d4bd226749d4e2a73fb167",
                "label": "QCD"
            },
            {
                "address": "0x0000000000000000000000000000000000000001",
                "label": "Precompiled"
            },
            {
                "address": "0x0000000000000000000000000000000000000002",
                "label": "Precompiled"
            },
            {
                "address": "0x0000000000000000000000000000000000000003",
                "label": "Precompiled"
            }
        ]
    },
    "trace": {
        "accountLabels": null,
        "dataMap": {
            "-1": {
                "invocation": {
                    "address": "0xbddb1f0896e9b30492f1c4ce7c5139dc7f0115c5",
                    "callData": "",
                    "decodedMethod": null,
                    "errorInfo": "",
                    "fromAddress": "",
                    "gasUsed": 0,
                    "id": -1,
                    "methodDecoded": false,
                    "operation": "",
                    "output": "",
                    "revert": false,
                    "revertMessage": "",
                    "selector": "",
                    "status": false,
                    "value": ""
                },
                "nodeType": 0
            },
            "0": {
                "invocation": {
                    "address": "0x01ed05b94d71c34e69d4bd226749d4e2a73fb167",
                    "callData": "0x000000000000000000000000b8afc730a05824d16b9bd378602b15c59d636717000000000000000000000000000000000000000000000000000000000000005e",
                    "decodedMethod": {
                        "callParams": [
                            {
                                "name": "recipient",
                                "type": "address",
                                "value": "0xb8afc730a05824d16b9bd378602b15c59d636717"
                            },
                            {
                                "decimalAvailable": true,
                                "name": "amount",
                                "type": "uint256",
                                "value": "94"
                            }
                        ],
                        "constructorArguments": "",
                        "name": "transfer",
                        "returnParams": [
                            {
                                "name": "",
                                "type": "bool",
                                "value": true
                            }
                        ],
                        "signature": "transfer(address,uint256)"
                    },
                    "errorInfo": "",
                    "fromAddress": "0xbddb1f0896e9b30492f1c4ce7c5139dc7f0115c5",
                    "gasUsed": 36595,
                    "id": 0,
                    "methodDecoded": true,
                    "operation": "CALL",
                    "output": "0x0000000000000000000000000000000000000000000000000000000000000001",
                    "revert": false,
                    "revertMessage": "",
                    "selector": "0xa9059cbb",
                    "status": true,
                    "value": "0"
                },
                "nodeType": 0
            },
            "1": {
                "event": {
                    "contract": "0x01ed05b94d71c34e69d4bd226749d4e2a73fb167",
                    "decodedLog": {
                        "name": "Transfer",
                        "params": [
                            {
                                "name": "from",
                                "type": "address",
                                "value": "0xbddb1f0896e9b30492f1c4ce7c5139dc7f0115c5"
                            },
                            {
                                "name": "to",
                                "type": "address",
                                "value": "0xb8afc730a05824d16b9bd378602b15c59d636717"
                            },
                            {
                                "decimalAvailable": true,
                                "name": "value",
                                "type": "uint256",
                                "value": "94"
                            }
                        ],
                        "signature": "Transfer(address,address,uint256)"
                    },
                    "id": 1,
                    "logData": "0x000000000000000000000000000000000000000000000000000000000000005e",
                    "logDecoded": true,
                    "operation": "EVENT",
                    "revert": false,
                    "status": true,
                    "topics": [
                        "0xddf252ad1be2c89b69c2b068fc378daa952ba7f163c4a11628f55a4df523b3ef",
                        "0x000000000000000000000000bddb1f0896e9b30492f1c4ce7c5139dc7f0115c5",
                        "0x000000000000000000000000b8afc730a05824d16b9bd378602b15c59d636717"
                    ]
                },
                "nodeType": 1
            }
        },
        "gasFlame": [
            {
                "children": [
                    {
                        "children": [
                            {
                                "children": [],
                                "depth": 0,
                                "name": "Initial Gas",
                                "value": 21572
                            },
                            {
                                "children": [],
                                "depth": 0,
                                "name": "Executed Gas",
                                "value": 15023
                            }
                        ],
                        "depth": -1,
                        "name": "Actual Gas Used",
                        "value": 36595
                    },
                    {
                        "children": [],
                        "depth": -1,
                        "name": "Refunded Gas",
                        "value": 0
                    }
                ],
                "depth": -2,
                "name": "Total Gas",
                "value": 36595
            }
        ],
        "isConfirmed": true,
        "mainTrace": [
            {
                "children": [
                    {
                        "children": [
                            {
                                "children": [],
                                "depth": 1,
                                "id": 1,
                                "order": 1
                            }
                        ],
                        "depth": 0,
                        "id": 0,
                        "order": 0
                    }
                ],
                "depth": -1,
                "id": -1,
                "order": -1
            }
        ],
        "mainTraceNodeCount": 2,
        "parentIdMap": {
            "0": -1,
            "1": 0
        },
        "tidyTrace": [
            {
                "children": [
                    {
                        "children": [
                            {
                                "children": [],
                                "depth": 1,
                                "id": 1,
                                "order": 1
                            }
                        ],
                        "depth": 0,
                        "id": 0,
                        "order": 0
                    }
                ],
                "depth": -1,
                "id": -1,
                "order": -1
            }
        ],
        "tidyTraceNodeCount": 2
    },
    "state_change": {
        "stateChanges": [
            {
                "address": "0x01ed05b94d71c34e69d4bd226749d4e2a73fb167",
                "erc": "",
                "slots": [
                    {
                        "current": "0x00000000000000000000000000000000000000000000000000000000000b3c77",
                        "key": "0x2b81fb2917a92a299904e78c9b8cf302b5c6dc8dcff80b8dd56b4b97f1ace529",
                        "prev": "0x00000000000000000000000000000000000000000000000000000000000b3c19"
                    },
                    {
                        "current": "0x000000000000000000000000000000000000000000000000000000000000033e",
                        "key": "0xee1942de3f348bff12d4059a78162438b612f6e743dc58047e63a23dc2f437cd",
                        "prev": "0x000000000000000000000000000000000000000000000000000000000000039c"
                    }
                ],
                "storageVariables": []
            }
        ]
    }
}