{
    "balance_change": {
        "balanceChanges": []
    },
    "profile": {
        "basic_info": {
            "baseFee": "",
            "blockNumber": 11256121,
            "callData": "0x095ea7b3000000000000000000000000e6d4a4b323004d4b83257688939ad8f91161fa3900000000034ab33240a9d92846b1e826ed0ad04f41098822aaaaaaaaaaaaaaa9",
            "debugEnable": true,
            "errorInfo": "",
            "eventCount": 1,
            "feeRecipient": "0xd224ca0c819e8e97ba0136b3b95ceff503b79f53",
            "formatValue": "0",
            "gasLimit": 66664,
            "gasPrice": "38",
            "gasUsed": 44443,
            "intTxnCount": 0,
            "internalRevert": false,
            "internalRevertMessage": "",
            "isContractCreation": false,
            "isFlashloan": false,
            "maxFee": "",
            "nonce": 145,
            "overwritedBlockNumber": -1,
            "priorityFee": "",
            "receiver": "0xd6bd082cac5e76183aa95afdb3c5488447cecfb7",
            "revertMessage": "",
            "sender": "0x2d13c87a615981911e0b60a9ea07ca94ecca4f43",
            "simulationEnable": true,
            "sourceTxnHash": "0x94c967fc97befa7fe1ab2881b1d68b3cac6513d62c6bff37279e834f57129c96",
            "status": true,
            "timestamp": "2020-11-14T13:28:33Z",
            "transactionFee": "0.001688834",
            "txnHash": "0x94c967fc97befa7fe1ab2881b1d68b3cac6513d62c6bff37279e834f57129c96",
            "txnIndex": 97,
            "type": 0,
            "value": "0"
        },
        "fund_flow": [],
        "token_infos": [
            {
                "address": "0xc02aaa39b223fe8d0a0e5c4f27ead9083c756cc2",
                "decimals": 18
            },
            {
                "address": "0xeeeeeeeeeeeeeeeeeeeeeeeeeeeeeeeeeeeeeeee",
                "decimals": 18
            }
        ]
    },
    "address_label": {
        "labels": [
            {
                "address": "0xeeeeeeeeeeeeeeeeeeeeeeeeeeeeeeeeeeeeeeee",
                "label": "Ether"
            },
            {
                "address": "0xd6bd082cac5e76183aa95afdb3c5488447cecfb7",
                "label": "Vox Finance: POPULI Token"
            },
            {
                "address": "0x0000000000000000000000000000000000000001",
                "label": "Precompiled"
            },
            {
                "address": "0x0000000000000000000000000000000000000002",
                "label": "Precompiled"
            },
            {
                "address": "0x0000000000000000000000000000000000000003",
                "label": "Precompiled"
            },
            {
                "address": "0x0000000000000000000000000000000000000004",
                "label": "Precompiled"
            }
        ]
    },
    "trace": {
        "accountLabels": null,
        "dataMap": {
            "-1": {
                "invocation": {
                    "address": "0x2d13c87a615981911e0b60a9ea07ca94ecca4f43",
                    "callData": "",
                    "decodedMethod": null,
                    "errorInfo": "",
                    "fromAddress": "",
                    "gasUsed": 0,
                    "id": -1,
                    "methodDecoded": false,
                    "operation": "",
                    "output": "",
                    "revert": false,
                    "revertMessage": "",
                    "selector": "",
                    "status": false,
                    "value": ""
                },
                "nodeType": 0
            },
            "0": {
                "invocation": {
                    "address": "0xd6bd082cac5e76183aa95afdb3c5488447cecfb7",
                    "callData": "0x000000000000000000000000e6d4a4b323004d4b83257688939ad8f91161fa3900000000034ab33240a9d92846b1e826ed0ad04f41098822aaaaaaaaaaaaaaa9",
                    "decodedMethod": {
                        "callParams": [
                            {
                                "name": "spender",
                                "type": "address",
                                "value": "0xe6d4a4b323004d4b83257688939ad8f91161fa39"
                            },
                            {
                                "decimalAvailable": true,
                                "name": "amount",
                                "type": "uint256",
                                "value": "346,666,666,666,666,666,666,666,666,666,666,666,666,666,666,666,666,666,666,666,666,665"
                            }
                        ],
                        "constructorArguments": "",
                        "name": "approve",
                        "returnParams": [
                            {
                                "name": "",
                                "type": "bool",
                                "value": true
                            }
                        ],
                        "signature": "approve(address,uint256)"
                    },
                    "errorInfo": "",
                    "fromAddress": "0x2d13c87a615981911e0b60a9ea07ca94ecca4f43",
                    "gasUsed": 44443,
                    "id": 0,
                    "methodDecoded": true,
                    "operation": "CALL",
                    "output": "0x0000000000000000000000000000000000000000000000000000000000000001",
                    "revert": false,
                    "revertMessage": "",
                    "selector": "0x095ea7b3",
                    "status": true,
                    "value": "0"
                },
                "nodeType": 0
            },
            "1": {
                "event": {
                    "contract": "0xd6bd082cac5e76183aa95afdb3c5488447cecfb7",
                    "decodedLog": {
                        "name": "Approval",
                        "params": [
                            {
                                "name": "owner",
                                "type": "address",
                                "value": "0x2d13c87a615981911e0b60a9ea07ca94ecca4f43"
                            },
                            {
                                "name": "spender",
                                "type": "address",
                                "value": "0xe6d4a4b323004d4b83257688939ad8f91161fa39"
                            },
                            {
                                "decimalAvailable": true,
                                "name": "value",
                                "type": "uint256",
                                "value": "346,666,666,666,666,666,666,666,666,666,666,666,666,666,666,666,666,666,666,666,666,665"
                            }
                        ],
                        "signature": "Approval(address,address,uint256)"
                    },
                    "id": 1,
                    "logData": "0x00000000034ab33240a9d92846b1e826ed0ad04f41098822aaaaaaaaaaaaaaa9",
                    "logDecoded": true,
                    "operation": "EVENT",
                    "revert": false,
                    "status": true,
                    "topics": [
                        "0x8c5be1e5ebec7d5bd14f71427d1e84f3dd0314c0f7b2291e5b200ac8c7c3b925",
                        "0x0000000000000000000000002d13c87a615981911e0b60a9ea07ca94ecca4f43",
                        "0x000000000000000000000000e6d4a4b323004d4b83257688939ad8f91161fa39"
                    ]
                },
                "nodeType": 1
            }
        },
        "gasFlame": [
            {
                "children": [
                    {
                        "children": [
                            {
                                "children": [],
                                "depth": 0,
                                "name": "Initial Gas",
                                "value": 21884
                            },
                            {
                                "children": [],
                                "depth": 0,
                                "name": "Executed Gas",
                                "value": 22559
                            }
                        ],
                        "depth": -1,
                        "name": "Actual Gas Used",
                        "value": 44443
                    },
                    {
                        "children": [],
                        "depth": -1,
                        "name": "Refunded Gas",
                        "value": 0
                    }
                ],
                "depth": -2,
                "name": "Total Gas",
                "value": 44443
            }
        ],
        "isConfirmed": true,
        "mainTrace": [
            {
                "children": [
                    {
                        "children": [
                            {
                                "children": [],
                                "depth": 1,
                                "id": 1,
                                "order": 1
                            }
                        ],
                        "depth": 0,
                        "id": 0,
                        "order": 0
                    }
                ],
                "depth": -1,
                "id": -1,
                "order": -1
            }
        ],
        "mainTraceNodeCount": 2,
        "parentIdMap": {
            "0": -1,
            "1": 0
        },
        "tidyTrace": [
            {
                "children": [
                    {
                        "children": [
                            {
                                "children": [],
                                "depth": 1,
                                "id": 1,
                                "order": 1
                            }
                        ],
                        "depth": 0,
                        "id": 0,
                        "order": 0
                    }
                ],
                "depth": -1,
                "id": -1,
                "order": -1
            }
        ],
        "tidyTraceNodeCount": 2
    },
    "state_change": {
        "stateChanges": [
            {
                "address": "0xd6bd082cac5e76183aa95afdb3c5488447cecfb7",
                "erc": "ERC-20",
                "slots": [
                    {
                        "current": "0x00000000034ab33240a9d92846b1e826ed0ad04f41098822aaaaaaaaaaaaaaa9",
                        "key": "0xe25f78265543511505f087bf9927b6740a10c54edadedd9b5e31be77e6a69675",
                        "prev": "0x0000000000000000000000000000000000000000000000000000000000000000"
                    }
                ],
                "storageVariables": [
                    {
                        "name": "_allowances",
                        "type": "mapping(address => mapping(address => uint256))",
                        "value": {
                            "pairs": [
                                {
                                    "key": "0x2d13c87a615981911e0b60a9ea07ca94ecca4f43",
                                    "value": {
                                        "pairs": [
                                            {
                                                "key": "0xe6d4a4b323004d4b83257688939ad8f91161fa39",
                                                "value": {
                                                    "current": "346666666666666666666666666666666666666666666666666666666666666665",
                                                    "prev": "0",
                                                    "typeTag": 1
                                                }
                                            }
                                        ],
                                        "typeTag": 4
                                    }
                                }
                            ],
                            "typeTag": 4
                        }
                    }
                ]
            }
        ]
    }
}