{
    "balance_change": {
        "balanceChanges": [
            {
                "account": "0xde4b75991c5b90a7d8338cc0eeb78ef341bcf899",
                "assets": [
                    {
                        "address": "0xeeeeeeeeeeeeeeeeeeeeeeeeeeeeeeeeeeeeeeee",
                        "amount": "0.1",
                        "iconUrl": "https://assets.blocksec.com/image/1663669189317-3.png",
                        "isERC1155": false,
                        "isERC721": false,
                        "sign": false,
                        "value": "59.22549207"
                    }
                ]
            },
            {
                "account": "0x4742cf579331f5ae3b5c1af4fc8f4d3aedc594db",
                "assets": [
                    {
                        "address": "0xeeeeeeeeeeeeeeeeeeeeeeeeeeeeeeeeeeeeeeee",
                        "amount": "0.1",
                        "iconUrl": "https://assets.blocksec.com/image/1663669189317-3.png",
                        "isERC1155": false,
                        "isERC721": false,
                        "sign": true,
                        "value": "59.22549207"
                    }
                ]
            }
        ]
    },
    "profile": {
        "basic_info": {
            "baseFee": "",
            "blockNumber": 11410378,
            "callData": "0x8853b53e000000000000000000000000000000000000000000000000000000000000a630",
            "debugEnable": true,
            "errorInfo": "",
            "eventCount": 2,
            "feeRecipient": "0x1ad91ee08f21be3de0ba2ba6918e714da6b45836",
            "formatValue": "0.1",
            "gasLimit": 362073,
            "gasPrice": "44",
            "gasUsed": 241382,
            "intTxnCount": 1,
            "internalRevert": false,
            "internalRevertMessage": "",
            "isContractCreation": false,
            "isFlashloan": false,
            "maxFee": "",
            "nonce": 0,
            "overwritedBlockNumber": -1,
            "priorityFee": "",
            "receiver": "0xc44c22fbf9386cd90f02ff5418f3e01b2f3086e5",
            "revertMessage": "",
            "sender": "0xde4b75991c5b90a7d8338cc0eeb78ef341bcf899",
            "simulationEnable": true,
            "sourceTxnHash": "0x94fa411b43eb6c89d12a9922037d3c5ce8a6b25d4a7246598f40c7e5b8c4e3c3",
            "status": true,
            "timestamp": "2020-12-08T06:04:05Z",
            "transactionFee": "0.010620808",
            "txnHash": "0x94fa411b43eb6c89d12a9922037d3c5ce8a6b25d4a7246598f40c7e5b8c4e3c3",
            "txnIndex": 10,
            "type": 0,
            "value": "100000000000000000"
        },
        "fund_flow": [
            {
                "amount": "0.1",
                "from": "0xde4b75991c5b90a7d8338cc0eeb78ef341bcf899",
                "id": 1,
                "isERC1155": false,
                "isERC721": false,
                "isReverted": false,
                "order": 1,
                "to": "0xc44c22fbf9386cd90f02ff5418f3e01b2f3086e5",
                "token": "0xeeeeeeeeeeeeeeeeeeeeeeeeeeeeeeeeeeeeeeee"
            },
            {
                "amount": "0.1",
                "from": "0xc44c22fbf9386cd90f02ff5418f3e01b2f3086e5",
                "id": 2,
                "isERC1155": false,
                "isERC721": false,
                "isReverted": false,
                "order": 2,
                "to": "0x4742cf579331f5ae3b5c1af4fc8f4d3aedc594db",
                "token": "0xeeeeeeeeeeeeeeeeeeeeeeeeeeeeeeeeeeeeeeee"
            }
        ],
        "token_infos": [
            {
                "address": "0xeeeeeeeeeeeeeeeeeeeeeeeeeeeeeeeeeeeeeeee",
                "decimals": 18
            },
            {
                "address": "0xc02aaa39b223fe8d0a0e5c4f27ead9083c756cc2",
                "decimals": 18
            }
        ]
    },
    "address_label": {
        "labels": [
            {
                "address": "0x0000000000000000000000000000000000000003",
                "label": "Precompiled"
            },
            {
                "address": "0x0000000000000000000000000000000000000004",
                "label": "Precompiled"
            },
            {
                "address": "0xeeeeeeeeeeeeeeeeeeeeeeeeeeeeeeeeeeeeeeee",
                "label": "Ether"
            },
            {
                "address": "0xc44c22fbf9386cd90f02ff5418f3e01b2f3086e5",
                "label": "Crowdsharing"
            },
            {
                "address": "0x0000000000000000000000000000000000000001",
                "label": "Precompiled"
            },
            {
                "address": "0x0000000000000000000000000000000000000002",
                "label": "Precompiled"
            }
        ]
    },
    "trace": {
        "accountLabels": null,
        "dataMap": {
            "-1": {
                "invocation": {
                    "address": "0xde4b75991c5b90a7d8338cc0eeb78ef341bcf899",
                    "callData": "",
                    "decodedMethod": null,
                    "errorInfo": "",
                    "fromAddress": "",
                    "gasUsed": 0,
                    "id": -1,
                    "methodDecoded": false,
                    "operation": "",
                    "output": "",
                    "revert": false,
                    "revertMessage": "",
                    "selector": "",
                    "status": false,
                    "value": ""
                },
                "nodeType": 0
            },
            "0": {
                "invocation": {
                    "address": "0xc44c22fbf9386cd90f02ff5418f3e01b2f3086e5",
                    "callData": "0x000000000000000000000000000000000000000000000000000000000000a630",
                    "decodedMethod": {
                        "callParams": [
                            {
                                "name": "_referrerID",
                                "type": "uint256",
                                "value": "42,544"
                            }
                        ],
                        "constructorArguments": "",
                        "name": "regUser",
                        "returnParams": [],
                        "signature": "regUser(uint256)"
                    },
                    "errorInfo": "",
                    "fromAddress": "0xde4b75991c5b90a7d8338cc0eeb78ef341bcf899",
                    "gasUsed": 241382,
                    "id": 0,
                    "methodDecoded": true,
                    "operation": "CALL",
                    "output": "",
                    "revert": false,
                    "revertMessage": "",
                    "selector": "0x8853b53e",
                    "status": true,
                    "value": "0.1"
                },
                "nodeType": 0
            },
            "1": {
                "invocation": {
                    "address": "0x4742cf579331f5ae3b5c1af4fc8f4d3aedc594db",
                    "callData": "0x",
                    "decodedMethod": null,
                    "errorInfo": "",
                    "fromAddress": "0xc44c22fbf9386cd90f02ff5418f3e01b2f3086e5",
                    "gasUsed": 0,
                    "id": 1,
                    "methodDecoded": false,
                    "operation": "CALL",
                    "output": "",
                    "revert": false,
                    "revertMessage": "",
                    "selector": "fallback",
                    "status": true,
                    "value": "0.1"
                },
                "nodeType": 0
            },
            "2": {
                "event": {
                    "contract": "0xc44c22fbf9386cd90f02ff5418f3e01b2f3086e5",
                    "decodedLog": {
                        "name": "getSponsorBonusEvent",
                        "params": [
                            {
                                "name": "_sponsor",
                                "type": "address",
                                "value": "0x4742cf579331f5ae3b5c1af4fc8f4d3aedc594db"
                            },
                            {
                                "name": "_user",
                                "type": "address",
                                "value": "0xde4b75991c5b90a7d8338cc0eeb78ef341bcf899"
                            },
                            {
                                "name": "_level",
                                "type": "uint256",
                                "value": "1"
                            },
                            {
                                "name": "_time",
                                "type": "uint256",
                                "value": "1,607,407,445"
                            }
                        ],
                        "signature": "getSponsorBonusEvent(address,address,uint256,uint256)"
                    },
                    "id": 2,
                    "logData": "0x0000000000000000000000000000000000000000000000000000000000000001000000000000000000000000000000000000000000000000000000005fcf1755",
                    "logDecoded": true,
                    "operation": "EVENT",
                    "revert": false,
                    "status": true,
                    "topics": [
                        "0x7a1e253554d0e91f48feec0d195e1965bbcd28feeddc456f1a8481f71dfd3e11",
                        "0x0000000000000000000000004742cf579331f5ae3b5c1af4fc8f4d3aedc594db",
                        "0x000000000000000000000000de4b75991c5b90a7d8338cc0eeb78ef341bcf899"
                    ]
                },
                "nodeType": 1
            },
            "3": {
                "event": {
                    "contract": "0xc44c22fbf9386cd90f02ff5418f3e01b2f3086e5",
                    "decodedLog": {
                        "name": "regLevelEvent",
                        "params": [
                            {
                                "name": "_user",
                                "type": "address",
                                "value": "0xde4b75991c5b90a7d8338cc0eeb78ef341bcf899"
                            },
                            {
                                "name": "_referrer",
                                "type": "address",
                                "value": "0x4742cf579331f5ae3b5c1af4fc8f4d3aedc594db"
                            },
                            {
                                "name": "_time",
                                "type": "uint256",
                                "value": "1,607,407,445"
                            }
                        ],
                        "signature": "regLevelEvent(address,address,uint256)"
                    },
                    "id": 3,
                    "logData": "0x000000000000000000000000000000000000000000000000000000005fcf1755",
                    "logDecoded": true,
                    "operation": "EVENT",
                    "revert": false,
                    "status": true,
                    "topics": [
                        "0x788c06d2405ae89dd3f0528d38be7691289474d72176408bc2c2406dc5e342f1",
                        "0x000000000000000000000000de4b75991c5b90a7d8338cc0eeb78ef341bcf899",
                        "0x0000000000000000000000004742cf579331f5ae3b5c1af4fc8f4d3aedc594db"
                    ]
                },
                "nodeType": 1
            }
        },
        "gasFlame": [
            {
                "children": [
                    {
                        "children": [
                            {
                                "children": [],
                                "depth": 0,
                                "name": "Initial Gas",
                                "value": 21216
                            },
                            {
                                "children": [
                                    {
                                        "children": [],
                                        "depth": 1,
                                        "name": "fallback",
                                        "value": 0
                                    }
                                ],
                                "depth": 0,
                                "name": "Executed Gas",
                                "value": 220166
                            }
                        ],
                        "depth": -1,
                        "name": "Actual Gas Used",
                        "value": 241382
                    },
                    {
                        "children": [],
                        "depth": -1,
                        "name": "Refunded Gas",
                        "value": 0
                    }
                ],
                "depth": -2,
                "name": "Total Gas",
                "value": 241382
            }
        ],
        "isConfirmed": true,
        "mainTrace": [
            {
                "children": [
                    {
                        "children": [
                            {
                                "children": [],
                                "depth": 1,
                                "id": 1,
                                "order": 1
                            },
                            {
                                "children": [],
                                "depth": 1,
                                "id": 2,
                                "order": 2
                            },
                            {
                                "children": [],
                                "depth": 1,
                                "id": 3,
                                "order": 3
                            }
                        ],
                        "depth": 0,
                        "id": 0,
                        "order": 0
                    }
                ],
                "depth": -1,
                "id": -1,
                "order": -1
            }
        ],
        "mainTraceNodeCount": 4,
        "parentIdMap": {
            "0": -1,
            "1": 0,
            "2": 0,
            "3": 0
        },
        "tidyTrace": [
            {
                "children": [
                    {
                        "children": [
                            {
                                "children": [],
                                "depth": 1,
                                "id": 1,
                                "order": 1
                            },
                            {
                                "children": [],
                                "depth": 1,
                                "id": 2,
                                "order": 2
                            },
                            {
                                "children": [],
                                "depth": 1,
                                "id": 3,
                                "order": 3
                            }
                        ],
                        "depth": 0,
                        "id": 0,
                        "order": 0
                    }
                ],
                "depth": -1,
                "id": -1,
                "order": -1
            }
        ],
        "tidyTraceNodeCount": 4
    },
    "state_change": {
        "stateChanges": [
            {
                "address": "0xc44c22fbf9386cd90f02ff5418f3e01b2f3086e5",
                "erc": "",
                "slots": [
                    {
                        "current": "0x000000000000000000000000000000000000000000000000000000000000b10a",
                        "key": "0x000000000000000000000000000000000000000000000000000000000000000b",
                        "prev": "0x000000000000000000000000000000000000000000000000000000000000b109"
                    },
                    {
                        "current": "0x000000000000000000000000000000000000000000000000000000000000b10a",
                        "key": "0x029364d4e3426b3f71b6459f12c68bb7bd8cb85199841c3f650b13e5e7fdf311",
                        "prev": "0x0000000000000000000000000000000000000000000000000000000000000000"
                    },
                    {
                        "current": "0x000000000000000000000000000000000000000000000000000000000000a630",
                        "key": "0x029364d4e3426b3f71b6459f12c68bb7bd8cb85199841c3f650b13e5e7fdf314",
                        "prev": "0x0000000000000000000000000000000000000000000000000000000000000000"
                    },
                    {
                        "current": "0x000000000000000000000000de4b75991c5b90a7d8338cc0eeb78ef341bcf899",
                        "key": "0x945f1cf9709791c777c4eb6babc1d8b7b58fee07dd1364ef76147b081d7405ef",
                        "prev": "0x0000000000000000000000000000000000000000000000000000000000000000"
                    },
                    {
                        "current": "0x000000000000000000000000de4b75991c5b90a7d8338cc0eeb78ef341bcf899",
                        "key": "0x8f45a27ae3c9296235e4000b4354f7c15875546834c4187659d41faf8bffde50",
                        "prev": "0x0000000000000000000000000000000000000000000000000000000000000000"
                    },
                    {
                        "current": "0x0000000000000000000000000000000000000000000000000000000000000001",
                        "key": "0x029364d4e3426b3f71b6459f12c68bb7bd8cb85199841c3f650b13e5e7fdf310",
                        "prev": "0x0000000000000000000000000000000000000000000000000000000000000000"
                    },
                    {
                        "current": "0x00000000000000000000000000000000000000000000000000000000601e3155",
                        "key": "0xae7f7eb8fa5481c729f80d850a89ab9cb598563ec616f8f8e4cbc4bfb3b3ff59",
                        "prev": "0x0000000000000000000000000000000000000000000000000000000000000000"
                    },
                    {
                        "current": "0x0000000000000000000000000000000000000000000000000000000000000001",
                        "key": "0x74a9845206cfc4bde1b443e86783499971e59eef59f1338e71c45cd2c27b0b75",
                        "prev": "0x0000000000000000000000000000000000000000000000000000000000000000"
                    },
                    {
                        "current": "0x000000000000000000000000000000000000000000000000000000000000a630",
                        "key": "0x029364d4e3426b3f71b6459f12c68bb7bd8cb85199841c3f650b13e5e7fdf312",
                        "prev": "0x0000000000000000000000000000000000000000000000000000000000000000"
                    },
                    {
                        "current": "0x0000000000000000000000000000000000000000000000000000000000000001",
                        "key": "0x74a9845206cfc4bde1b443e86783499971e59eef59f1338e71c45cd2c27b0b77",
                        "prev": "0x0000000000000000000000000000000000000000000000000000000000000000"
                    }
                ],
                "storageVariables": [
                    {
                        "name": "userList",
                        "type": "mapping(uint256 => address)",
                        "value": {
                            "pairs": [
                                {
                                    "key": "45322",
                                    "value": {
                                        "current": "0xde4b75991c5b90a7d8338cc0eeb78ef341bcf899",
                                        "prev": "0x0000000000000000000000000000000000000000",
                                        "typeTag": 1
                                    }
                                }
                            ],
                            "typeTag": 4
                        }
                    },
                    {
                        "name": "users",
                        "type": "mapping(address => struct Crowdsharing.UserStruct)",
                        "value": {
                            "pairs": [
                                {
                                    "key": "0x4742cf579331f5ae3b5c1af4fc8f4d3aedc594db",
                                    "value": {
                                        "fields": [
                                            {
                                                "name": "referral",
                                                "type": "address[]",
                                                "value": {
                                                    "elemType": "address",
                                                    "elems": [
                                                        {
                                                            "index": 0,
                                                            "value": {
                                                                "current": "0xde4b75991c5b90a7d8338cc0eeb78ef341bcf899",
                                                                "prev": "0x0000000000000000000000000000000000000000",
                                                                "typeTag": 1
                                                            }
                                                        }
                                                    ],
                                                    "typeTag": 2
                                                }
                                            },
                                            {
                                                "name": "referralCounter",
                                                "type": "uint256",
                                                "value": {
                                                    "current": "1",
                                                    "prev": "0",
                                                    "typeTag": 1
                                                }
                                            }
                                        ],
                                        "typeTag": 3
                                    }
                                },
                                {
                                    "key": "0xde4b75991c5b90a7d8338cc0eeb78ef341bcf899",
                                    "value": {
                                        "fields": [
                                            {
                                                "name": "isExist",
                                                "type": "bool",
                                                "value": {
                                                    "current": "true",
                                                    "prev": "false",
                                                    "typeTag": 1
                                                }
                                            },
                                            {
                                                "name": "id",
                                                "type": "uint256",
                                                "value": {
                                                    "current": "45322",
                                                    "prev": "0",
                                                    "typeTag": 1
                                                }
                                            },
                                            {
                                                "name": "referrerID",
                                                "type": "uint256",
                                                "value": {
                                                    "current": "42544",
                                                    "prev": "0",
                                                    "typeTag": 1
                                                }
                                            },
                                            {
                                                "name": "directSponsor",
                                                "type": "uint256",
                                                "value": {
                                                    "current": "42544",
                                                    "prev": "0",
                                                    "typeTag": 1
                                                }
                                            },
                                            {
                                                "name": "levelExpired",
                                                "type": "mapping(uint256 => uint256)",
                                                "value": {
                                                    "pairs": [
                                                        {
                                                            "key": "1",
                                                            "value": {
                                                                "current": "1612591445",
                                                                "prev": "0",
                                                                "typeTag": 1
                                                            }
                                                        }
                                                    ],
                                                    "typeTag": 4
                                                }
                                            }
                                        ],
                                        "typeTag": 3
                                    }
                                }
                            ],
                            "typeTag": 4
                        }
                    },
                    {
                        "name": "currUserID",
                        "type": "uint256",
                        "value": {
                            "current": "45322",
                            "prev": "45321",
                            "typeTag": 1
                        }
                    }
                ]
            }
        ]
    }
}