{
    "balance_change": {
        "balanceChanges": [
            {
                "account": "0xa49caa463d0d4b3371cf40836769e5d26d384689",
                "assets": [
                    {
                        "address": "0xdac17f958d2ee523a2206206994597c13d831ec7",
                        "amount": "89.18",
                        "iconUrl": "https://assets.blocksec.com/icon/fcea71f3193ce895be44bfdf941f7e4c9381dd587f273c2d1a27f1263d84e4ea.png",
                        "isERC1155": false,
                        "isERC721": false,
                        "sign": false,
                        "value": "89.11757399999999697"
                    }
                ]
            },
            {
                "account": "0xbd9b34ccbb8db0fdecb532b1eaf5d46f5b673fe8",
                "assets": [
                    {
                        "address": "0xdac17f958d2ee523a2206206994597c13d831ec7",
                        "amount": "89.18",
                        "iconUrl": "https://assets.blocksec.com/icon/fcea71f3193ce895be44bfdf941f7e4c9381dd587f273c2d1a27f1263d84e4ea.png",
                        "isERC1155": false,
                        "isERC721": false,
                        "sign": true,
                        "value": "89.11757399999999697"
                    }
                ]
            }
        ]
    },
    "profile": {
        "basic_info": {
            "baseFee": "10.753021839",
            "blockNumber": 20008402,
            "callData": "0xa9059cbb000000000000000000000000bd9b34ccbb8db0fdecb532b1eaf5d46f5b673fe8000000000000000000000000000000000000000000000000000000000550c760",
            "debugEnable": true,
            "errorInfo": "",
            "eventCount": 1,
            "feeRecipient": "0x95222290dd7278aa3ddd389cc1e1d165cc4bafe5",
            "formatValue": "0",
            "gasLimit": 54123,
            "gasPrice": "27.589359583",
            "gasUsed": 41309,
            "intTxnCount": 0,
            "internalRevert": false,
            "internalRevertMessage": "",
            "isContractCreation": false,
            "isFlashloan": false,
            "maxFee": "",
            "nonce": 57,
            "overwritedBlockNumber": -1,
            "priorityFee": "",
            "receiver": "0xdac17f958d2ee523a2206206994597c13d831ec7",
            "revertMessage": "",
            "sender": "0xa49caa463d0d4b3371cf40836769e5d26d384689",
            "simulationEnable": true,
            "sourceTxnHash": "0x943b7a12ec30cca691a190aea9f09efd19ca4a35dda7f2f89499f9e7180752af",
            "status": true,
            "timestamp": "2024-06-03T02:46:23Z",
            "transactionFee": "0.001139688855014147",
            "txnHash": "0x943b7a12ec30cca691a190aea9f09efd19ca4a35dda7f2f89499f9e7180752af",
            "txnIndex": 56,
            "type": 0,
            "value": "0"
        },
        "fund_flow": [
            {
                "amount": "89.18",
                "from": "0xa49caa463d0d4b3371cf40836769e5d26d384689",
                "id": 1,
                "isERC1155": false,
                "isERC721": false,
                "isReverted": false,
                "order": 1,
                "to": "0xbd9b34ccbb8db0fdecb532b1eaf5d46f5b673fe8",
                "token": "0xdac17f958d2ee523a2206206994597c13d831ec7"
            }
        ],
        "token_infos": [
            {
                "address": "0xdac17f958d2ee523a2206206994597c13d831ec7",
                "decimals": 6
            },
            {
                "address": "0xeeeeeeeeeeeeeeeeeeeeeeeeeeeeeeeeeeeeeeee",
                "decimals": 18
            },
            {
                "address": "0xc02aaa39b223fe8d0a0e5c4f27ead9083c756cc2",
                "decimals": 18
            }
        ]
    },
    "address_label": {
        "labels": [
            {
                "address": "0x0000000000000000000000000000000000000004",
                "label": "Precompiled"
            },
            {
                "address": "0xeeeeeeeeeeeeeeeeeeeeeeeeeeeeeeeeeeeeeeee",
                "label": "Ether"
            },
            {
                "address": "0xdac17f958d2ee523a2206206994597c13d831ec7",
                "label": "Tether: USDT Stablecoin"
            },
            {
                "address": "0x0000000000000000000000000000000000000001",
                "label": "Precompiled"
            },
            {
                "address": "0x0000000000000000000000000000000000000002",
                "label": "Precompiled"
            },
            {
                "address": "0x0000000000000000000000000000000000000003",
                "label": "Precompiled"
            }
        ]
    },
    "trace": {
        "accountLabels": null,
        "dataMap": {
            "-1": {
                "invocation": {
                    "address": "0xa49caa463d0d4b3371cf40836769e5d26d384689",
                    "callData": "",
                    "decodedMethod": null,
                    "errorInfo": "",
                    "fromAddress": "",
                    "gasUsed": 0,
                    "id": -1,
                    "methodDecoded": false,
                    "operation": "",
                    "output": "",
                    "revert": false,
                    "revertMessage": "",
                    "selector": "",
                    "status": false,
                    "value": ""
                },
                "nodeType": 0
            },
            "0": {
                "invocation": {
                    "address": "0xdac17f958d2ee523a2206206994597c13d831ec7",
                    "callData": "0x000000000000000000000000bd9b34ccbb8db0fdecb532b1eaf5d46f5b673fe8000000000000000000000000000000000000000000000000000000000550c760",
                    "decodedMethod": {
                        "callParams": [
                            {
                                "name": "_to",
                                "type": "address",
                                "value": "0xbd9b34ccbb8db0fdecb532b1eaf5d46f5b673fe8"
                            },
                            {
                                "decimalAvailable": true,
                                "name": "_value",
                                "type": "uint256",
                                "value": "89,180,000"
                            }
                        ],
                        "constructorArguments": "",
                        "name": "transfer",
                        "returnParams": [],
                        "signature": "transfer(address,uint256)"
                    },
                    "errorInfo": "",
                    "fromAddress": "0xa49caa463d0d4b3371cf40836769e5d26d384689",
                    "gasUsed": 41309,
                    "id": 0,
                    "methodDecoded": true,
                    "operation": "CALL",
                    "output": "",
                    "revert": false,
                    "revertMessage": "",
                    "selector": "0xa9059cbb",
                    "status": true,
                    "value": "0"
                },
                "nodeType": 0
            },
            "1": {
                "event": {
                    "contract": "0xdac17f958d2ee523a2206206994597c13d831ec7",
                    "decodedLog": {
                        "name": "Transfer",
                        "params": [
                            {
                                "name": "from",
                                "type": "address",
                                "value": "0xa49caa463d0d4b3371cf40836769e5d26d384689"
                            },
                            {
                                "name": "to",
                                "type": "address",
                                "value": "0xbd9b34ccbb8db0fdecb532b1eaf5d46f5b673fe8"
                            },
                            {
                                "decimalAvailable": true,
                                "name": "value",
                                "type": "uint256",
                                "value": "89,180,000"
                            }
                        ],
                        "signature": "Transfer(address,address,uint256)"
                    },
                    "id": 1,
                    "logData": "0x000000000000000000000000000000000000000000000000000000000550c760",
                    "logDecoded": true,
                    "operation": "EVENT",
                    "revert": false,
                    "status": true,
                    "topics": [
                        "0xddf252ad1be2c89b69c2b068fc378daa952ba7f163c4a11628f55a4df523b3ef",
                        "0x000000000000000000000000a49caa463d0d4b3371cf40836769e5d26d384689",
                        "0x000000000000000000000000bd9b34ccbb8db0fdecb532b1eaf5d46f5b673fe8"
                    ]
                },
                "nodeType": 1
            }
        },
        "gasFlame": [
            {
                "children": [
                    {
                        "children": [
                            {
                                "children": [],
                                "depth": 0,
                                "name": "Initial Gas",
                                "value": 21608
                            },
                            {
                                "children": [],
                                "depth": 0,
                                "name": "Executed Gas",
                                "value": 24501
                            }
                        ],
                        "depth": -1,
                        "name": "Actual Gas Used",
                        "value": 41309
                    },
                    {
                        "children": [],
                        "depth": -1,
                        "name": "Refunded Gas",
                        "value": 4800
                    }
                ],
                "depth": -2,
                "name": "Total Gas",
                "value": 46109
            }
        ],
        "isConfirmed": true,
        "mainTrace": [
            {
                "children": [
                    {
                        "children": [
                            {
                                "children": [],
                                "depth": 1,
                                "id": 1,
                                "order": 1
                            }
                        ],
                        "depth": 0,
                        "id": 0,
                        "order": 0
                    }
                ],
                "depth": -1,
                "id": -1,
                "order": -1
            }
        ],
        "mainTraceNodeCount": 2,
        "parentIdMap": {
            "0": -1,
            "1": 0
        },
        "tidyTrace": [
            {
                "children": [
                    {
                        "children": [
                            {
                                "children": [],
                                "depth": 1,
                                "id": 1,
                                "order": 1
                            }
                        ],
                        "depth": 0,
                        "id": 0,
                        "order": 0
                    }
                ],
                "depth": -1,
                "id": -1,
                "order": -1
            }
        ],
        "tidyTraceNodeCount": 2
    },
    "state_change": {
        "stateChanges": [
            {
                "address": "0xdac17f958d2ee523a2206206994597c13d831ec7",
                "erc": "ERC-20",
                "slots": [
                    {
                        "current": "0x0000000000000000000000000000000000000000000000000000000000000000",
                        "key": "0x173bc1048ae66bf329de2d967b5be8e5bb1e5e665f41e948ffc350978ae94d08",
                        "prev": "0x000000000000000000000000000000000000000000000000000000000550c760"
                    },
                    {
                        "current": "0x00000000000000000000000000000000000000000000000000000027231a739e",
                        "key": "0x450edb192a00291e1c94ec90088c393cd4ef0ba4e9ea4d468d0a3b492e8b958f",
                        "prev": "0x000000000000000000000000000000000000000000000000000000271dc9ac3e"
                    }
                ],
                "storageVariables": [
                    {
                        "name": "balances",
                        "type": "mapping(address => uint256)",
                        "value": {
                            "pairs": [
                                {
                                    "key": "0xa49caa463d0d4b3371cf40836769e5d26d384689",
                                    "value": {
                                        "current": "0",
                                        "prev": "89180000",
                                        "typeTag": 1
                                    }
                                },
                                {
                                    "key": "0xbd9b34ccbb8db0fdecb532b1eaf5d46f5b673fe8",
                                    "value": {
                                        "current": "168092660638",
                                        "prev": "168003480638",
                                        "typeTag": 1
                                    }
                                }
                            ],
                            "typeTag": 4
                        }
                    }
                ]
            }
        ]
    }
}