{
    "balance_change": {
        "balanceChanges": []
    },
    "profile": {
        "basic_info": {
            "baseFee": "",
            "blockNumber": 8833714,
            "callData": "0xa0712d680000000000000000000000000000000000000000000000000000000000000019",
            "debugEnable": true,
            "errorInfo": "",
            "eventCount": 0,
            "feeRecipient": "0xd224ca0c819e8e97ba0136b3b95ceff503b79f53",
            "formatValue": "0",
            "gasLimit": 1046069,
            "gasPrice": "0.702331947",
            "gasUsed": 946069,
            "intTxnCount": 25,
            "internalRevert": false,
            "internalRevertMessage": "",
            "isContractCreation": false,
            "isFlashloan": false,
            "maxFee": "",
            "nonce": 34223,
            "overwritedBlockNumber": -1,
            "priorityFee": "",
            "receiver": "0x0000000000b3f879cb30fe243b4dfee438691c04",
            "revertMessage": "",
            "sender": "0xe5c99b740572c2dabf7e3a418c4e9df2f793a599",
            "simulationEnable": true,
            "sourceTxnHash": "0x940e6aa650ec8853b08d24c073456f476f390b2462c230ba0ce4480901366112",
            "status": true,
            "timestamp": "2019-10-29T11:13:37Z",
            "transactionFee": "0.000664454482766343",
            "txnHash": "0x940e6aa650ec8853b08d24c073456f476f390b2462c230ba0ce4480901366112",
            "txnIndex": 99,
            "type": 0,
            "value": "0"
        },
        "fund_flow": [],
        "token_infos": [
            {
                "address": "0xc02aaa39b223fe8d0a0e5c4f27ead9083c756cc2",
                "decimals": 18
            },
            {
                "address": "0xeeeeeeeeeeeeeeeeeeeeeeeeeeeeeeeeeeeeeeee",
                "decimals": 18
            }
        ]
    },
    "address_label": {
        "labels": [
            {
                "address": "0x0000000000000000000000000000000000000001",
                "label": "Precompiled"
            },
            {
                "address": "0x0000000000000000000000000000000000000002",
                "label": "Precompiled"
            },
            {
                "address": "0x0000000000000000000000000000000000000003",
                "label": "Precompiled"
            },
            {
                "address": "0x0000000000000000000000000000000000000004",
                "label": "Precompiled"
            },
            {
                "address": "0xeeeeeeeeeeeeeeeeeeeeeeeeeeeeeeeeeeeeeeee",
                "label": "Ether"
            },
            {
                "address": "0x0000000000b3f879cb30fe243b4dfee438691c04",
                "label": "GasToken.io: GST2 Token"
            }
        ]
    },
    "trace": {
        "accountLabels": null,
        "dataMap": {
            "-1": {
                "invocation": {
                    "address": "0xe5c99b740572c2dabf7e3a418c4e9df2f793a599",
                    "callData": "",
                    "decodedMethod": null,
                    "errorInfo": "",
                    "fromAddress": "",
                    "gasUsed": 0,
                    "id": -1,
                    "methodDecoded": false,
                    "operation": "",
                    "output": "",
                    "revert": false,
                    "revertMessage": "",
                    "selector": "",
                    "status": false,
                    "value": ""
                },
                "nodeType": 0
            },
            "0": {
                "invocation": {
                    "address": "0x0000000000b3f879cb30fe243b4dfee438691c04",
                    "callData": "0x0000000000000000000000000000000000000000000000000000000000000019",
                    "decodedMethod": {
                        "callParams": [
                            {
                                "name": "value",
                                "type": "uint256",
                                "value": "25"
                            }
                        ],
                        "constructorArguments": "",
                        "name": "mint",
                        "returnParams": [],
                        "signature": "mint(uint256)"
                    },
                    "errorInfo": "",
                    "fromAddress": "0xe5c99b740572c2dabf7e3a418c4e9df2f793a599",
                    "gasUsed": 946069,
                    "id": 0,
                    "methodDecoded": true,
                    "operation": "CALL",
                    "output": "",
                    "revert": false,
                    "revertMessage": "",
                    "selector": "0xa0712d68",
                    "status": true,
                    "value": "0"
                },
                "nodeType": 0
            },
            "1": {
                "invocation": {
                    "address": "0x0992272a17d245ddbdc569444bc4c79c8979fa0d",
                    "callData": "0x756eb3f879cb30fe243b4dfee438691c043318585733ff6000526016600af3",
                    "decodedMethod": null,
                    "errorInfo": "",
                    "fromAddress": "0x0000000000b3f879cb30fe243b4dfee438691c04",
                    "gasUsed": 4418,
                    "id": 1,
                    "methodDecoded": false,
                    "operation": "CREATE",
                    "output": "0x6eb3f879cb30fe243b4dfee438691c043318585733ff",
                    "revert": false,
                    "revertMessage": "",
                    "selector": "",
                    "status": true,
                    "value": "0"
                },
                "nodeType": 0
            },
            "10": {
                "invocation": {
                    "address": "0x10f8ff14888460f8bb6e05a89d441a17f3c9b4f2",
                    "callData": "0x756eb3f879cb30fe243b4dfee438691c043318585733ff6000526016600af3",
                    "decodedMethod": null,
                    "errorInfo": "",
                    "fromAddress": "0x0000000000b3f879cb30fe243b4dfee438691c04",
                    "gasUsed": 4418,
                    "id": 10,
                    "methodDecoded": false,
                    "operation": "CREATE",
                    "output": "0x6eb3f879cb30fe243b4dfee438691c043318585733ff",
                    "revert": false,
                    "revertMessage": "",
                    "selector": "",
                    "status": true,
                    "value": "0"
                },
                "nodeType": 0
            },
            "11": {
                "invocation": {
                    "address": "0xfbbd1f0c062a44779d259928de218bcdde15653b",
                    "callData": "0x756eb3f879cb30fe243b4dfee438691c043318585733ff6000526016600af3",
                    "decodedMethod": null,
                    "errorInfo": "",
                    "fromAddress": "0x0000000000b3f879cb30fe243b4dfee438691c04",
                    "gasUsed": 4418,
                    "id": 11,
                    "methodDecoded": false,
                    "operation": "CREATE",
                    "output": "0x6eb3f879cb30fe243b4dfee438691c043318585733ff",
                    "revert": false,
                    "revertMessage": "",
                    "selector": "",
                    "status": true,
                    "value": "0"
                },
                "nodeType": 0
            },
            "12": {
                "invocation": {
                    "address": "0xc63c1a058bc8d25086916c441aac8ea756f15c27",
                    "callData": "0x756eb3f879cb30fe243b4dfee438691c043318585733ff6000526016600af3",
                    "decodedMethod": null,
                    "errorInfo": "",
                    "fromAddress": "0x0000000000b3f879cb30fe243b4dfee438691c04",
                    "gasUsed": 4418,
                    "id": 12,
                    "methodDecoded": false,
                    "operation": "CREATE",
                    "output": "0x6eb3f879cb30fe243b4dfee438691c043318585733ff",
                    "revert": false,
                    "revertMessage": "",
                    "selector": "",
                    "status": true,
                    "value": "0"
                },
                "nodeType": 0
            },
            "13": {
                "invocation": {
                    "address": "0x42f57db391318f8594177abaa0f17f6b0f17d3ad",
                    "callData": "0x756eb3f879cb30fe243b4dfee438691c043318585733ff6000526016600af3",
                    "decodedMethod": null,
                    "errorInfo": "",
                    "fromAddress": "0x0000000000b3f879cb30fe243b4dfee438691c04",
                    "gasUsed": 4418,
                    "id": 13,
                    "methodDecoded": false,
                    "operation": "CREATE",
                    "output": "0x6eb3f879cb30fe243b4dfee438691c043318585733ff",
                    "revert": false,
                    "revertMessage": "",
                    "selector": "",
                    "status": true,
                    "value": "0"
                },
                "nodeType": 0
            },
            "14": {
                "invocation": {
                    "address": "0x0bbbd4e44bc8884cee81b787f1a1c0ab38e65d0b",
                    "callData": "0x756eb3f879cb30fe243b4dfee438691c043318585733ff6000526016600af3",
                    "decodedMethod": null,
                    "errorInfo": "",
                    "fromAddress": "0x0000000000b3f879cb30fe243b4dfee438691c04",
                    "gasUsed": 4418,
                    "id": 14,
                    "methodDecoded": false,
                    "operation": "CREATE",
                    "output": "0x6eb3f879cb30fe243b4dfee438691c043318585733ff",
                    "revert": false,
                    "revertMessage": "",
                    "selector": "",
                    "status": true,
                    "value": "0"
                },
                "nodeType": 0
            },
            "15": {
                "invocation": {
                    "address": "0x6823a82d537253459b1ebd94a1c37d5c84176ada",
                    "callData": "0x756eb3f879cb30fe243b4dfee438691c043318585733ff6000526016600af3",
                    "decodedMethod": null,
                    "errorInfo": "",
                    "fromAddress": "0x0000000000b3f879cb30fe243b4dfee438691c04",
                    "gasUsed": 4418,
                    "id": 15,
                    "methodDecoded": false,
                    "operation": "CREATE",
                    "output": "0x6eb3f879cb30fe243b4dfee438691c043318585733ff",
                    "revert": false,
                    "revertMessage": "",
                    "selector": "",
                    "status": true,
                    "value": "0"
                },
                "nodeType": 0
            },
            "16": {
                "invocation": {
                    "address": "0xf300ad9a6f9593f8c6e6d20102acf7148de9c6f2",
                    "callData": "0x756eb3f879cb30fe243b4dfee438691c043318585733ff6000526016600af3",
                    "decodedMethod": null,
                    "errorInfo": "",
                    "fromAddress": "0x0000000000b3f879cb30fe243b4dfee438691c04",
                    "gasUsed": 4418,
                    "id": 16,
                    "methodDecoded": false,
                    "operation": "CREATE",
                    "output": "0x6eb3f879cb30fe243b4dfee438691c043318585733ff",
                    "revert": false,
                    "revertMessage": "",
                    "selector": "",
                    "status": true,
                    "value": "0"
                },
                "nodeType": 0
            },
            "17": {
                "invocation": {
                    "address": "0xdbbbda21677bdd5e79eff3ce80418aa31ec7cceb",
                    "callData": "0x756eb3f879cb30fe243b4dfee438691c043318585733ff6000526016600af3",
                    "decodedMethod": null,
                    "errorInfo": "",
                    "fromAddress": "0x0000000000b3f879cb30fe243b4dfee438691c04",
                    "gasUsed": 4418,
                    "id": 17,
                    "methodDecoded": false,
                    "operation": "CREATE",
                    "output": "0x6eb3f879cb30fe243b4dfee438691c043318585733ff",
                    "revert": false,
                    "revertMessage": "",
                    "selector": "",
                    "status": true,
                    "value": "0"
                },
                "nodeType": 0
            },
            "18": {
                "invocation": {
                    "address": "0xab5bc02cf22d029709a79e4867216dece67d3b01",
                    "callData": "0x756eb3f879cb30fe243b4dfee438691c043318585733ff6000526016600af3",
                    "decodedMethod": null,
                    "errorInfo": "",
                    "fromAddress": "0x0000000000b3f879cb30fe243b4dfee438691c04",
                    "gasUsed": 4418,
                    "id": 18,
                    "methodDecoded": false,
                    "operation": "CREATE",
                    "output": "0x6eb3f879cb30fe243b4dfee438691c043318585733ff",
                    "revert": false,
                    "revertMessage": "",
                    "selector": "",
                    "status": true,
                    "value": "0"
                },
                "nodeType": 0
            },
            "19": {
                "invocation": {
                    "address": "0x8335a92c84047a7cdef105b7c93b09f813502d78",
                    "callData": "0x756eb3f879cb30fe243b4dfee438691c043318585733ff6000526016600af3",
                    "decodedMethod": null,
                    "errorInfo": "",
                    "fromAddress": "0x0000000000b3f879cb30fe243b4dfee438691c04",
                    "gasUsed": 4418,
                    "id": 19,
                    "methodDecoded": false,
                    "operation": "CREATE",
                    "output": "0x6eb3f879cb30fe243b4dfee438691c043318585733ff",
                    "revert": false,
                    "revertMessage": "",
                    "selector": "",
                    "status": true,
                    "value": "0"
                },
                "nodeType": 0
            },
            "2": {
                "invocation": {
                    "address": "0x8bc59acf5635c08157939ceed05e79e0a11d1edd",
                    "callData": "0x756eb3f879cb30fe243b4dfee438691c043318585733ff6000526016600af3",
                    "decodedMethod": null,
                    "errorInfo": "",
                    "fromAddress": "0x0000000000b3f879cb30fe243b4dfee438691c04",
                    "gasUsed": 4418,
                    "id": 2,
                    "methodDecoded": false,
                    "operation": "CREATE",
                    "output": "0x6eb3f879cb30fe243b4dfee438691c043318585733ff",
                    "revert": false,
                    "revertMessage": "",
                    "selector": "",
                    "status": true,
                    "value": "0"
                },
                "nodeType": 0
            },
            "20": {
                "invocation": {
                    "address": "0x0799359361e46033c61fe13a15413bec66e4f97b",
                    "callData": "0x756eb3f879cb30fe243b4dfee438691c043318585733ff6000526016600af3",
                    "decodedMethod": null,
                    "errorInfo": "",
                    "fromAddress": "0x0000000000b3f879cb30fe243b4dfee438691c04",
                    "gasUsed": 4418,
                    "id": 20,
                    "methodDecoded": false,
                    "operation": "CREATE",
                    "output": "0x6eb3f879cb30fe243b4dfee438691c043318585733ff",
                    "revert": false,
                    "revertMessage": "",
                    "selector": "",
                    "status": true,
                    "value": "0"
                },
                "nodeType": 0
            },
            "21": {
                "invocation": {
                    "address": "0x1a238d4426dd3a0ee7c178b81250ebc16a4d27a1",
                    "callData": "0x756eb3f879cb30fe243b4dfee438691c043318585733ff6000526016600af3",
                    "decodedMethod": null,
                    "errorInfo": "",
                    "fromAddress": "0x0000000000b3f879cb30fe243b4dfee438691c04",
                    "gasUsed": 4418,
                    "id": 21,
                    "methodDecoded": false,
                    "operation": "CREATE",
                    "output": "0x6eb3f879cb30fe243b4dfee438691c043318585733ff",
                    "revert": false,
                    "revertMessage": "",
                    "selector": "",
                    "status": true,
                    "value": "0"
                },
                "nodeType": 0
            },
            "22": {
                "invocation": {
                    "address": "0x7c45a0d836abcd448fc954d2484eeb6fd2a682cb",
                    "callData": "0x756eb3f879cb30fe243b4dfee438691c043318585733ff6000526016600af3",
                    "decodedMethod": null,
                    "errorInfo": "",
                    "fromAddress": "0x0000000000b3f879cb30fe243b4dfee438691c04",
                    "gasUsed": 4418,
                    "id": 22,
                    "methodDecoded": false,
                    "operation": "CREATE",
                    "output": "0x6eb3f879cb30fe243b4dfee438691c043318585733ff",
                    "revert": false,
                    "revertMessage": "",
                    "selector": "",
                    "status": true,
                    "value": "0"
                },
                "nodeType": 0
            },
            "23": {
                "invocation": {
                    "address": "0x9c71c25439658907d94552631db10dfebd2c7e68",
                    "callData": "0x756eb3f879cb30fe243b4dfee438691c043318585733ff6000526016600af3",
                    "decodedMethod": null,
                    "errorInfo": "",
                    "fromAddress": "0x0000000000b3f879cb30fe243b4dfee438691c04",
                    "gasUsed": 4418,
                    "id": 23,
                    "methodDecoded": false,
                    "operation": "CREATE",
                    "output": "0x6eb3f879cb30fe243b4dfee438691c043318585733ff",
                    "revert": false,
                    "revertMessage": "",
                    "selector": "",
                    "status": true,
                    "value": "0"
                },
                "nodeType": 0
            },
            "24": {
                "invocation": {
                    "address": "0x1a2f16b5d70c9af90a5ba54d2f4c36bc16d1e5c7",
                    "callData": "0x756eb3f879cb30fe243b4dfee438691c043318585733ff6000526016600af3",
                    "decodedMethod": null,
                    "errorInfo": "",
                    "fromAddress": "0x0000000000b3f879cb30fe243b4dfee438691c04",
                    "gasUsed": 4418,
                    "id": 24,
                    "methodDecoded": false,
                    "operation": "CREATE",
                    "output": "0x6eb3f879cb30fe243b4dfee438691c043318585733ff",
                    "revert": false,
                    "revertMessage": "",
                    "selector": "",
                    "status": true,
                    "value": "0"
                },
                "nodeType": 0
            },
            "25": {
                "invocation": {
                    "address": "0xcd102820bb044ea8c0797740f011a3a995888431",
                    "callData": "0x756eb3f879cb30fe243b4dfee438691c043318585733ff6000526016600af3",
                    "decodedMethod": null,
                    "errorInfo": "",
                    "fromAddress": "0x0000000000b3f879cb30fe243b4dfee438691c04",
                    "gasUsed": 4418,
                    "id": 25,
                    "methodDecoded": false,
                    "operation": "CREATE",
                    "output": "0x6eb3f879cb30fe243b4dfee438691c043318585733ff",
                    "revert": false,
                    "revertMessage": "",
                    "selector": "",
                    "status": true,
                    "value": "0"
                },
                "nodeType": 0
            },
            "3": {
                "invocation": {
                    "address": "0x32c27df0f31cc55ace5a45fe4a912ab2e7dfe01f",
                    "callData": "0x756eb3f879cb30fe243b4dfee438691c043318585733ff6000526016600af3",
                    "decodedMethod": null,
                    "errorInfo": "",
                    "fromAddress": "0x0000000000b3f879cb30fe243b4dfee438691c04",
                    "gasUsed": 4418,
                    "id": 3,
                    "methodDecoded": false,
                    "operation": "CREATE",
                    "output": "0x6eb3f879cb30fe243b4dfee438691c043318585733ff",
                    "revert": false,
                    "revertMessage": "",
                    "selector": "",
                    "status": true,
                    "value": "0"
                },
                "nodeType": 0
            },
            "4": {
                "invocation": {
                    "address": "0x708f4aa9f2c198236e6543d78c2aec239cc0f924",
                    "callData": "0x756eb3f879cb30fe243b4dfee438691c043318585733ff6000526016600af3",
                    "decodedMethod": null,
                    "errorInfo": "",
                    "fromAddress": "0x0000000000b3f879cb30fe243b4dfee438691c04",
                    "gasUsed": 4418,
                    "id": 4,
                    "methodDecoded": false,
                    "operation": "CREATE",
                    "output": "0x6eb3f879cb30fe243b4dfee438691c043318585733ff",
                    "revert": false,
                    "revertMessage": "",
                    "selector": "",
                    "status": true,
                    "value": "0"
                },
                "nodeType": 0
            },
            "5": {
                "invocation": {
                    "address": "0x7e52e94bfc637eced21f55457e60872a1dd0a48c",
                    "callData": "0x756eb3f879cb30fe243b4dfee438691c043318585733ff6000526016600af3",
                    "decodedMethod": null,
                    "errorInfo": "",
                    "fromAddress": "0x0000000000b3f879cb30fe243b4dfee438691c04",
                    "gasUsed": 4418,
                    "id": 5,
                    "methodDecoded": false,
                    "operation": "CREATE",
                    "output": "0x6eb3f879cb30fe243b4dfee438691c043318585733ff",
                    "revert": false,
                    "revertMessage": "",
                    "selector": "",
                    "status": true,
                    "value": "0"
                },
                "nodeType": 0
            },
            "6": {
                "invocation": {
                    "address": "0x678f0c0d06a35386753f36ef425a18fda3ec362d",
                    "callData": "0x756eb3f879cb30fe243b4dfee438691c043318585733ff6000526016600af3",
                    "decodedMethod": null,
                    "errorInfo": "",
                    "fromAddress": "0x0000000000b3f879cb30fe243b4dfee438691c04",
                    "gasUsed": 4418,
                    "id": 6,
                    "methodDecoded": false,
                    "operation": "CREATE",
                    "output": "0x6eb3f879cb30fe243b4dfee438691c043318585733ff",
                    "revert": false,
                    "revertMessage": "",
                    "selector": "",
                    "status": true,
                    "value": "0"
                },
                "nodeType": 0
            },
            "7": {
                "invocation": {
                    "address": "0x0b9e2a4cc2cbd5b5a7ab59c73f1222457fa8b2aa",
                    "callData": "0x756eb3f879cb30fe243b4dfee438691c043318585733ff6000526016600af3",
                    "decodedMethod": null,
                    "errorInfo": "",
                    "fromAddress": "0x0000000000b3f879cb30fe243b4dfee438691c04",
                    "gasUsed": 4418,
                    "id": 7,
                    "methodDecoded": false,
                    "operation": "CREATE",
                    "output": "0x6eb3f879cb30fe243b4dfee438691c043318585733ff",
                    "revert": false,
                    "revertMessage": "",
                    "selector": "",
                    "status": true,
                    "value": "0"
                },
                "nodeType": 0
            },
            "8": {
                "invocation": {
                    "address": "0xfd5b23af72a699bfd4d01abe8a16a108f533a972",
                    "callData": "0x756eb3f879cb30fe243b4dfee438691c043318585733ff6000526016600af3",
                    "decodedMethod": null,
                    "errorInfo": "",
                    "fromAddress": "0x0000000000b3f879cb30fe243b4dfee438691c04",
                    "gasUsed": 4418,
                    "id": 8,
                    "methodDecoded": false,
                    "operation": "CREATE",
                    "output": "0x6eb3f879cb30fe243b4dfee438691c043318585733ff",
                    "revert": false,
                    "revertMessage": "",
                    "selector": "",
                    "status": true,
                    "value": "0"
                },
                "nodeType": 0
            },
            "9": {
                "invocation": {
                    "address": "0xc6699056cb0bad3eb444038c49619c54ffbfcb1e",
                    "callData": "0x756eb3f879cb30fe243b4dfee438691c043318585733ff6000526016600af3",
                    "decodedMethod": null,
                    "errorInfo": "",
                    "fromAddress": "0x0000000000b3f879cb30fe243b4dfee438691c04",
                    "gasUsed": 4418,
                    "id": 9,
                    "methodDecoded": false,
                    "operation": "CREATE",
                    "output": "0x6eb3f879cb30fe243b4dfee438691c043318585733ff",
                    "revert": false,
                    "revertMessage": "",
                    "selector": "",
                    "status": true,
                    "value": "0"
                },
                "nodeType": 0
            }
        },
        "gasFlame": [
            {
                "children": [
                    {
                        "children": [
                            {
                                "children": [],
                                "depth": 0,
                                "name": "Initial Gas",
                                "value": 21464
                            },
                            {
                                "children": [
                                    {
                                        "children": [],
                                        "depth": 1,
                                        "name": "contract creation",
                                        "value": 4418
                                    },
                                    {
                                        "children": [],
                                        "depth": 1,
                                        "name": "contract creation",
                                        "value": 4418
                                    },
                                    {
                                        "children": [],
                                        "depth": 1,
                                        "name": "contract creation",
                                        "value": 4418
                                    },
                                    {
                                        "children": [],
                                        "depth": 1,
                                        "name": "contract creation",
                                        "value": 4418
                                    },
                                    {
                                        "children": [],
                                        "depth": 1,
                                        "name": "contract creation",
                                        "value": 4418
                                    },
                                    {
                                        "children": [],
                                        "depth": 1,
                                        "name": "contract creation",
                                        "value": 4418
                                    },
                                    {
                                        "children": [],
                                        "depth": 1,
                                        "name": "contract creation",
                                        "value": 4418
                                    },
                                    {
                                        "children": [],
                                        "depth": 1,
                                        "name": "contract creation",
                                        "value": 4418
                                    },
                                    {
                                        "children": [],
                                        "depth": 1,
                                        "name": "contract creation",
                                        "value": 4418
                                    },
                                    {
                                        "children": [],
                                        "depth": 1,
                                        "name": "contract creation",
                                        "value": 4418
                                    },
                                    {
                                        "children": [],
                                        "depth": 1,
                                        "name": "contract creation",
                                        "value": 4418
                                    },
                                    {
                                        "children": [],
                                        "depth": 1,
                                        "name": "contract creation",
                                        "value": 4418
                                    },
                                    {
                                        "children": [],
                                        "depth": 1,
                                        "name": "contract creation",
                                        "value": 4418
                                    },
                                    {
                                        "children": [],
                                        "depth": 1,
                                        "name": "contract creation",
                                        "value": 4418
                                    },
                                    {
                                        "children": [],
                                        "depth": 1,
                                        "name": "contract creation",
                                        "value": 4418
                                    },
                                    {
                                        "children": [],
                                        "depth": 1,
                                        "name": "contract creation",
                                        "value": 4418
                                    },
                                    {
                                        "children": [],
                                        "depth": 1,
                                        "name": "contract creation",
                                        "value": 4418
                                    },
                                    {
                                        "children": [],
                                        "depth": 1,
                                        "name": "contract creation",
                                        "value": 4418
                                    },
                                    {
                                        "children": [],
                                        "depth": 1,
                                        "name": "contract creation",
                                        "value": 4418
                                    },
                                    {
                                        "children": [],
                                        "depth": 1,
                                        "name": "contract creation",
                                        "value": 4418
                                    },
                                    {
                                        "children": [],
                                        "depth": 1,
                                        "name": "contract creation",
                                        "value": 4418
                                    },
                                    {
                                        "children": [],
                                        "depth": 1,
                                        "name": "contract creation",
                                        "value": 4418
                                    },
                                    {
                                        "children": [],
                                        "depth": 1,
                                        "name": "contract creation",
                                        "value": 4418
                                    },
                                    {
                                        "children": [],
                                        "depth": 1,
                                        "name": "contract creation",
                                        "value": 4418
                                    },
                                    {
                                        "children": [],
                                        "depth": 1,
                                        "name": "contract creation",
                                        "value": 4418
                                    }
                                ],
                                "depth": 0,
                                "name": "Executed Gas",
                                "value": 924605
                            }
                        ],
                        "depth": -1,
                        "name": "Actual Gas Used",
                        "value": 946069
                    },
                    {
                        "children": [],
                        "depth": -1,
                        "name": "Refunded Gas",
                        "value": 0
                    }
                ],
                "depth": -2,
                "name": "Total Gas",
                "value": 946069
            }
        ],
        "isConfirmed": true,
        "mainTrace": [
            {
                "children": [
                    {
                        "children": [
                            {
                                "children": [],
                                "depth": 1,
                                "id": 1,
                                "order": 1
                            },
                            {
                                "children": [],
                                "depth": 1,
                                "id": 2,
                                "order": 2
                            },
                            {
                                "children": [],
                                "depth": 1,
                                "id": 3,
                                "order": 3
                            },
                            {
                                "children": [],
                                "depth": 1,
                                "id": 4,
                                "order": 4
                            },
                            {
                                "children": [],
                                "depth": 1,
                                "id": 5,
                                "order": 5
                            },
                            {
                                "children": [],
                                "depth": 1,
                                "id": 6,
                                "order": 6
                            },
                            {
                                "children": [],
                                "depth": 1,
                                "id": 7,
                                "order": 7
                            },
                            {
                                "children": [],
                                "depth": 1,
                                "id": 8,
                                "order": 8
                            },
                            {
                                "children": [],
                                "depth": 1,
                                "id": 9,
                                "order": 9
                            },
                            {
                                "children": [],
                                "depth": 1,
                                "id": 10,
                                "order": 10
                            },
                            {
                                "children": [],
                                "depth": 1,
                                "id": 11,
                                "order": 11
                            },
                            {
                                "children": [],
                                "depth": 1,
                                "id": 12,
                                "order": 12
                            },
                            {
                                "children": [],
                                "depth": 1,
                                "id": 13,
                                "order": 13
                            },
                            {
                                "children": [],
                                "depth": 1,
                                "id": 14,
                                "order": 14
                            },
                            {
                                "children": [],
                                "depth": 1,
                                "id": 15,
                                "order": 15
                            },
                            {
                                "children": [],
                                "depth": 1,
                                "id": 16,
                                "order": 16
                            },
                            {
                                "children": [],
                                "depth": 1,
                                "id": 17,
                                "order": 17
                            },
                            {
                                "children": [],
                                "depth": 1,
                                "id": 18,
                                "order": 18
                            },
                            {
                                "children": [],
                                "depth": 1,
                                "id": 19,
                                "order": 19
                            },
                            {
                                "children": [],
                                "depth": 1,
                                "id": 20,
                                "order": 20
                            },
                            {
                                "children": [],
                                "depth": 1,
                                "id": 21,
                                "order": 21
                            },
                            {
                                "children": [],
                                "depth": 1,
                                "id": 22,
                                "order": 22
                            },
                            {
                                "children": [],
                                "depth": 1,
                                "id": 23,
                                "order": 23
                            },
                            {
                                "children": [],
                                "depth": 1,
                                "id": 24,
                                "order": 24
                            },
                            {
                                "children": [],
                                "depth": 1,
                                "id": 25,
                                "order": 25
                            }
                        ],
                        "depth": 0,
                        "id": 0,
                        "order": 0
                    }
                ],
                "depth": -1,
                "id": -1,
                "order": -1
            }
        ],
        "mainTraceNodeCount": 26,
        "parentIdMap": {
            "0": -1,
            "1": 0,
            "10": 0,
            "11": 0,
            "12": 0,
            "13": 0,
            "14": 0,
            "15": 0,
            "16": 0,
            "17": 0,
            "18": 0,
            "19": 0,
            "2": 0,
            "20": 0,
            "21": 0,
            "22": 0,
            "23": 0,
            "24": 0,
            "25": 0,
            "3": 0,
            "4": 0,
            "5": 0,
            "6": 0,
            "7": 0,
            "8": 0,
            "9": 0
        },
        "tidyTrace": [
            {
                "children": [
                    {
                        "children": [
                            {
                                "children": [],
                                "depth": 1,
                                "id": 1,
                                "order": 1
                            },
                            {
                                "children": [],
                                "depth": 1,
                                "id": 2,
                                "order": 2
                            },
                            {
                                "children": [],
                                "depth": 1,
                                "id": 3,
                                "order": 3
                            },
                            {
                                "children": [],
                                "depth": 1,
                                "id": 4,
                                "order": 4
                            },
                            {
                                "children": [],
                                "depth": 1,
                                "id": 5,
                                "order": 5
                            },
                            {
                                "children": [],
                                "depth": 1,
                                "id": 6,
                                "order": 6
                            },
                            {
                                "children": [],
                                "depth": 1,
                                "id": 7,
                                "order": 7
                            },
                            {
                                "children": [],
                                "depth": 1,
                                "id": 8,
                                "order": 8
                            },
                            {
                                "children": [],
                                "depth": 1,
                                "id": 9,
                                "order": 9
                            },
                            {
                                "children": [],
                                "depth": 1,
                                "id": 10,
                                "order": 10
                            },
                            {
                                "children": [],
                                "depth": 1,
                                "id": 11,
                                "order": 11
                            },
                            {
                                "children": [],
                                "depth": 1,
                                "id": 12,
                                "order": 12
                            },
                            {
                                "children": [],
                                "depth": 1,
                                "id": 13,
                                "order": 13
                            },
                            {
                                "children": [],
                                "depth": 1,
                                "id": 14,
                                "order": 14
                            },
                            {
                                "children": [],
                                "depth": 1,
                                "id": 15,
                                "order": 15
                            },
                            {
                                "children": [],
                                "depth": 1,
                                "id": 16,
                                "order": 16
                            },
                            {
                                "children": [],
                                "depth": 1,
                                "id": 17,
                                "order": 17
                            },
                            {
                                "children": [],
                                "depth": 1,
                                "id": 18,
                                "order": 18
                            },
                            {
                                "children": [],
                                "depth": 1,
                                "id": 19,
                                "order": 19
                            },
                            {
                                "children": [],
                                "depth": 1,
                                "id": 20,
                                "order": 20
                            },
                            {
                                "children": [],
                                "depth": 1,
                                "id": 21,
                                "order": 21
                            },
                            {
                                "children": [],
                                "depth": 1,
                                "id": 22,
                                "order": 22
                            },
                            {
                                "children": [],
                                "depth": 1,
                                "id": 23,
                                "order": 23
                            },
                            {
                                "children": [],
                                "depth": 1,
                                "id": 24,
                                "order": 24
                            },
                            {
                                "children": [],
                                "depth": 1,
                                "id": 25,
                                "order": 25
                            }
                        ],
                        "depth": 0,
                        "id": 0,
                        "order": 0
                    }
                ],
                "depth": -1,
                "id": -1,
                "order": -1
            }
        ],
        "tidyTraceNodeCount": 26
    },
    "state_change": {
        "stateChanges": [
            {
                "address": "0x0000000000b3f879cb30fe243b4dfee438691c04",
                "erc": "ERC-20",
                "slots": [
                    {
                        "current": "0x000000000000000000000000000000000000000000000000000000000027faa5",
                        "key": "0x0000000000000000000000000000000000000000000000000000000000000002",
                        "prev": "0x000000000000000000000000000000000000000000000000000000000027fa8c"
                    },
                    {
                        "current": "0x00000000000000000000000000000000000000000000000000000000000013a1",
                        "key": "0xe47e1188f9bd8f7e0df4fdd9cd198db77bb5df07646dc83fff4777c902df52b8",
                        "prev": "0x0000000000000000000000000000000000000000000000000000000000001388"
                    }
                ],
                "storageVariables": [
                    {
                        "name": "s_head",
                        "type": "uint256",
                        "value": {
                            "current": "2620069",
                            "prev": "2620044",
                            "typeTag": 1
                        }
                    },
                    {
                        "name": "s_balances",
                        "type": "mapping(address => uint256)",
                        "value": {
                            "pairs": [
                                {
                                    "key": "0xe5c99b740572c2dabf7e3a418c4e9df2f793a599",
                                    "value": {
                                        "current": "5025",
                                        "prev": "5000",
                                        "typeTag": 1
                                    }
                                }
                            ],
                            "typeTag": 4
                        }
                    }
                ]
            }
        ]
    }
}