{
    "balance_change": {
        "balanceChanges": [
            {
                "account": "0x03749666a817cc15e8d0a3219ec5b9fe1615b9d1",
                "assets": [
                    {
                        "address": "0xe7775a6e9bcf904eb39da2b68c5efb4f9360e08c",
                        "amount": "64.34",
                        "iconUrl": "",
                        "isERC1155": false,
                        "isERC721": false,
                        "sign": false,
                        "value": ""
                    }
                ]
            },
            {
                "account": "0x7c366b60871a8f993b9af2d81e79eb54d2c8f64a",
                "assets": [
                    {
                        "address": "0xe7775a6e9bcf904eb39da2b68c5efb4f9360e08c",
                        "amount": "64.34",
                        "iconUrl": "",
                        "isERC1155": false,
                        "isERC721": false,
                        "sign": true,
                        "value": ""
                    }
                ]
            }
        ]
    },
    "profile": {
        "basic_info": {
            "baseFee": "",
            "blockNumber": 4756851,
            "callData": "0xa9059cbb0000000000000000000000007c366b60871a8f993b9af2d81e79eb54d2c8f64a0000000000000000000000000000000000000000000000000000000003d5c020",
            "debugEnable": true,
            "errorInfo": "",
            "eventCount": 2,
            "feeRecipient": "0xea674fdde714fd979de3edf0f56aa9716b898ec8",
            "formatValue": "0",
            "gasLimit": 166072,
            "gasPrice": "80",
            "gasUsed": 81589,
            "intTxnCount": 8,
            "internalRevert": true,
            "internalRevertMessage": "",
            "isContractCreation": false,
            "isFlashloan": false,
            "maxFee": "",
            "nonce": 342,
            "overwritedBlockNumber": -1,
            "priorityFee": "",
            "receiver": "0xe7775a6e9bcf904eb39da2b68c5efb4f9360e08c",
            "revertMessage": "",
            "sender": "0x03749666a817cc15e8d0a3219ec5b9fe1615b9d1",
            "simulationEnable": true,
            "sourceTxnHash": "0x9453919ea69f57f988f89f789c76f719db1c82933d7848b51f7d7ef3a87f1532",
            "status": true,
            "timestamp": "2017-12-18T23:16:27Z",
            "transactionFee": "0.00652712",
            "txnHash": "0x9453919ea69f57f988f89f789c76f719db1c82933d7848b51f7d7ef3a87f1532",
            "txnIndex": 3,
            "type": 0,
            "value": "0"
        },
        "fund_flow": [
            {
                "amount": "64.34",
                "from": "0x03749666a817cc15e8d0a3219ec5b9fe1615b9d1",
                "id": 1,
                "isERC1155": false,
                "isERC721": false,
                "isReverted": false,
                "order": 1,
                "to": "0x7c366b60871a8f993b9af2d81e79eb54d2c8f64a",
                "token": "0xe7775a6e9bcf904eb39da2b68c5efb4f9360e08c"
            }
        ],
        "token_infos": [
            {
                "address": "0xc02aaa39b223fe8d0a0e5c4f27ead9083c756cc2",
                "decimals": 18
            },
            {
                "address": "0xe7775a6e9bcf904eb39da2b68c5efb4f9360e08c",
                "decimals": 6
            },
            {
                "address": "0xeeeeeeeeeeeeeeeeeeeeeeeeeeeeeeeeeeeeeeee",
                "decimals": 18
            }
        ]
    },
    "address_label": {
        "labels": [
            {
                "address": "0x60bf91ac87fee5a78c28f7b67701fbcfa79c18ec",
                "label": "historyEToken"
            },
            {
                "address": "0xe7775a6e9bcf904eb39da2b68c5efb4f9360e08c",
                "label": "TAAS Token"
            },
            {
                "address": "0x331d077518216c07c87f4f18ba64cd384c411f84",
                "label": "EToken2"
            },
            {
                "address": "0x4e8703a59fec01a97d4d2d76271e4f086dbb52fc",
                "label": "MultiAssetEmitter"
            },
            {
                "address": "0x0000000000000000000000000000000000000001",
                "label": "Precompiled"
            },
            {
                "address": "0x0000000000000000000000000000000000000003",
                "label": "Precompiled"
            },
            {
                "address": "0xeeeeeeeeeeeeeeeeeeeeeeeeeeeeeeeeeeeeeeee",
                "label": "Ether"
            },
            {
                "address": "0x0000000000000000000000000000000000000004",
                "label": "Precompiled"
            },
            {
                "address": "0x0000000000000000000000000000000000000002",
                "label": "Precompiled"
            }
        ]
    },
    "trace": {
        "accountLabels": null,
        "dataMap": {
            "-1": {
                "invocation": {
                    "address": "0x03749666a817cc15e8d0a3219ec5b9fe1615b9d1",
                    "callData": "",
                    "decodedMethod": null,
                    "errorInfo": "",
                    "fromAddress": "",
                    "gasUsed": 0,
                    "id": -1,
                    "methodDecoded": false,
                    "operation": "",
                    "output": "",
                    "revert": false,
                    "revertMessage": "",
                    "selector": "",
                    "status": false,
                    "value": ""
                },
                "nodeType": 0
            },
            "0": {
                "invocation": {
                    "address": "0xe7775a6e9bcf904eb39da2b68c5efb4f9360e08c",
                    "callData": "0x0000000000000000000000007c366b60871a8f993b9af2d81e79eb54d2c8f64a0000000000000000000000000000000000000000000000000000000003d5c020",
                    "decodedMethod": {
                        "callParams": [
                            {
                                "name": "_to",
                                "type": "address",
                                "value": "0x7c366b60871a8f993b9af2d81e79eb54d2c8f64a"
                            },
                            {
                                "decimalAvailable": true,
                                "name": "_value",
                                "type": "uint256",
                                "value": "64,340,000"
                            }
                        ],
                        "constructorArguments": "",
                        "name": "transfer",
                        "returnParams": [
                            {
                                "name": "",
                                "type": "bool",
                                "value": true
                            }
                        ],
                        "signature": "transfer(address,uint256)"
                    },
                    "errorInfo": "",
                    "fromAddress": "0x03749666a817cc15e8d0a3219ec5b9fe1615b9d1",
                    "gasUsed": 81589,
                    "id": 0,
                    "methodDecoded": true,
                    "operation": "CALL",
                    "output": "0x0000000000000000000000000000000000000000000000000000000000000001",
                    "revert": false,
                    "revertMessage": "",
                    "selector": "0xa9059cbb",
                    "status": true,
                    "value": "0"
                },
                "nodeType": 0
            },
            "1": {
                "invocation": {
                    "address": "0xd899c145597897bd9f680ba51c91ebf3389c70cc",
                    "callData": "0x0000000000000000000000007c366b60871a8f993b9af2d81e79eb54d2c8f64a0000000000000000000000000000000000000000000000000000000003d5c020000000000000000000000000000000000000000000000000000000000000008000000000000000000000000003749666a817cc15e8d0a3219ec5b9fe1615b9d10000000000000000000000000000000000000000000000000000000000000000",
                    "decodedMethod": {
                        "callParams": [
                            {
                                "name": "_to",
                                "type": "address",
                                "value": "0x7c366b60871a8f993b9af2d81e79eb54d2c8f64a"
                            },
                            {
                                "name": "_value",
                                "type": "uint256",
                                "value": "64,340,000"
                            },
                            {
                                "name": "_reference",
                                "type": "string",
                                "value": ""
                            },
                            {
                                "name": "_sender",
                                "type": "address",
                                "value": "0x03749666a817cc15e8d0a3219ec5b9fe1615b9d1"
                            }
                        ],
                        "constructorArguments": "",
                        "name": "_performTransferWithReference",
                        "returnParams": [
                            {
                                "name": "",
                                "type": "bool",
                                "value": true
                            }
                        ],
                        "signature": "_performTransferWithReference(address,uint256,string,address)"
                    },
                    "errorInfo": "",
                    "fromAddress": "0xe7775a6e9bcf904eb39da2b68c5efb4f9360e08c",
                    "gasUsed": 54548,
                    "id": 1,
                    "methodDecoded": true,
                    "operation": "CALL",
                    "output": "0x0000000000000000000000000000000000000000000000000000000000000001",
                    "revert": false,
                    "revertMessage": "",
                    "selector": "0x1962df71",
                    "status": true,
                    "value": "0"
                },
                "nodeType": 0
            },
            "10": {
                "event": {
                    "contract": "0xe7775a6e9bcf904eb39da2b68c5efb4f9360e08c",
                    "decodedLog": {
                        "name": "Transfer",
                        "params": [
                            {
                                "name": "from",
                                "type": "address",
                                "value": "0x03749666a817cc15e8d0a3219ec5b9fe1615b9d1"
                            },
                            {
                                "name": "to",
                                "type": "address",
                                "value": "0x7c366b60871a8f993b9af2d81e79eb54d2c8f64a"
                            },
                            {
                                "decimalAvailable": true,
                                "name": "value",
                                "type": "uint256",
                                "value": "64,340,000"
                            }
                        ],
                        "signature": "Transfer(address,address,uint256)"
                    },
                    "id": 10,
                    "logData": "0x0000000000000000000000000000000000000000000000000000000003d5c020",
                    "logDecoded": true,
                    "operation": "EVENT",
                    "revert": false,
                    "status": true,
                    "topics": [
                        "0xddf252ad1be2c89b69c2b068fc378daa952ba7f163c4a11628f55a4df523b3ef",
                        "0x00000000000000000000000003749666a817cc15e8d0a3219ec5b9fe1615b9d1",
                        "0x0000000000000000000000007c366b60871a8f993b9af2d81e79eb54d2c8f64a"
                    ]
                },
                "nodeType": 1
            },
            "2": {
                "invocation": {
                    "address": "0xe7775a6e9bcf904eb39da2b68c5efb4f9360e08c",
                    "callData": "0x00000000000000000000000003749666a817cc15e8d0a3219ec5b9fe1615b9d10000000000000000000000007c366b60871a8f993b9af2d81e79eb54d2c8f64a0000000000000000000000000000000000000000000000000000000003d5c02000000000000000000000000000000000000000000000000000000000000000a000000000000000000000000003749666a817cc15e8d0a3219ec5b9fe1615b9d10000000000000000000000000000000000000000000000000000000000000000",
                    "decodedMethod": {
                        "callParams": [
                            {
                                "name": "_from",
                                "type": "address",
                                "value": "0x03749666a817cc15e8d0a3219ec5b9fe1615b9d1"
                            },
                            {
                                "name": "_to",
                                "type": "address",
                                "value": "0x7c366b60871a8f993b9af2d81e79eb54d2c8f64a"
                            },
                            {
                                "name": "_value",
                                "type": "uint256",
                                "value": "64,340,000"
                            },
                            {
                                "name": "_reference",
                                "type": "string",
                                "value": ""
                            },
                            {
                                "name": "_sender",
                                "type": "address",
                                "value": "0x03749666a817cc15e8d0a3219ec5b9fe1615b9d1"
                            }
                        ],
                        "constructorArguments": "",
                        "name": "_forwardTransferFromWithReference",
                        "returnParams": [
                            {
                                "name": "",
                                "type": "bool",
                                "value": true
                            }
                        ],
                        "signature": "_forwardTransferFromWithReference(address,address,uint256,string,address)"
                    },
                    "errorInfo": "",
                    "fromAddress": "0xd899c145597897bd9f680ba51c91ebf3389c70cc",
                    "gasUsed": 50463,
                    "id": 2,
                    "methodDecoded": true,
                    "operation": "CALL",
                    "output": "0x0000000000000000000000000000000000000000000000000000000000000001",
                    "revert": false,
                    "revertMessage": "",
                    "selector": "0x14cba002",
                    "status": true,
                    "value": "0"
                },
                "nodeType": 0
            },
            "3": {
                "invocation": {
                    "address": "0x331d077518216c07c87f4f18ba64cd384c411f84",
                    "callData": "0x00000000000000000000000003749666a817cc15e8d0a3219ec5b9fe1615b9d10000000000000000000000007c366b60871a8f993b9af2d81e79eb54d2c8f64a0000000000000000000000000000000000000000000000000000000003d5c020544141530000000000000000000000000000000000000000000000000000000000000000000000000000000000000000000000000000000000000000000000c000000000000000000000000003749666a817cc15e8d0a3219ec5b9fe1615b9d10000000000000000000000000000000000000000000000000000000000000000",
                    "decodedMethod": {
                        "callParams": [
                            {
                                "name": "_from",
                                "type": "address",
                                "value": "0x03749666a817cc15e8d0a3219ec5b9fe1615b9d1"
                            },
                            {
                                "name": "_to",
                                "type": "address",
                                "value": "0x7c366b60871a8f993b9af2d81e79eb54d2c8f64a"
                            },
                            {
                                "name": "_value",
                                "type": "uint256",
                                "value": "64,340,000"
                            },
                            {
                                "name": "_symbol",
                                "type": "bytes32",
                                "value": "0x5441415300000000000000000000000000000000000000000000000000000000"
                            },
                            {
                                "name": "_reference",
                                "type": "string",
                                "value": ""
                            },
                            {
                                "name": "_sender",
                                "type": "address",
                                "value": "0x03749666a817cc15e8d0a3219ec5b9fe1615b9d1"
                            }
                        ],
                        "constructorArguments": "",
                        "name": "proxyTransferFromWithReference",
                        "returnParams": [
                            {
                                "name": "",
                                "type": "bool",
                                "value": true
                            }
                        ],
                        "signature": "proxyTransferFromWithReference(address,address,uint256,bytes32,string,address)"
                    },
                    "errorInfo": "",
                    "fromAddress": "0xe7775a6e9bcf904eb39da2b68c5efb4f9360e08c",
                    "gasUsed": 46473,
                    "id": 3,
                    "methodDecoded": true,
                    "operation": "CALL",
                    "output": "0x0000000000000000000000000000000000000000000000000000000000000001",
                    "revert": false,
                    "revertMessage": "",
                    "selector": "0x161ff662",
                    "status": true,
                    "value": "0"
                },
                "nodeType": 0
            },
            "4": {
                "invocation": {
                    "address": "0x60bf91ac87fee5a78c28f7b67701fbcfa79c18ec",
                    "callData": "0x00000000000000000000000003749666a817cc15e8d0a3219ec5b9fe1615b9d10000000000000000000000007c366b60871a8f993b9af2d81e79eb54d2c8f64a54414153000000000000000000000000000000000000000000000000000000000000000000000000000000000000000000000000000000000000000003d5c02000000000000000000000000000000000000000000000000000000000000000a00000000000000000000000000000000000000000000000000000000000000000",
                    "decodedMethod": {
                        "callParams": [
                            {
                                "name": "_from",
                                "type": "address",
                                "value": "0x03749666a817cc15e8d0a3219ec5b9fe1615b9d1"
                            },
                            {
                                "name": "_to",
                                "type": "address",
                                "value": "0x7c366b60871a8f993b9af2d81e79eb54d2c8f64a"
                            },
                            {
                                "name": "_symbol",
                                "type": "bytes32",
                                "value": "0x5441415300000000000000000000000000000000000000000000000000000000"
                            },
                            {
                                "name": "_value",
                                "type": "uint256",
                                "value": "64,340,000"
                            },
                            {
                                "name": "_reference",
                                "type": "string",
                                "value": ""
                            }
                        ],
                        "constructorArguments": "",
                        "name": "emitTransfer",
                        "returnParams": [],
                        "signature": "emitTransfer(address,address,bytes32,uint256,string)"
                    },
                    "errorInfo": "",
                    "fromAddress": "0x331d077518216c07c87f4f18ba64cd384c411f84",
                    "gasUsed": 8102,
                    "id": 4,
                    "methodDecoded": true,
                    "operation": "CALL",
                    "output": "",
                    "revert": false,
                    "revertMessage": "",
                    "selector": "0x515c1457",
                    "status": true,
                    "value": "0"
                },
                "nodeType": 0
            },
            "5": {
                "invocation": {
                    "address": "0x4e8703a59fec01a97d4d2d76271e4f086dbb52fc",
                    "callData": "0x00000000000000000000000003749666a817cc15e8d0a3219ec5b9fe1615b9d10000000000000000000000007c366b60871a8f993b9af2d81e79eb54d2c8f64a54414153000000000000000000000000000000000000000000000000000000000000000000000000000000000000000000000000000000000000000003d5c02000000000000000000000000000000000000000000000000000000000000000a00000000000000000000000000000000000000000000000000000000000000000",
                    "decodedMethod": {
                        "callParams": [
                            {
                                "name": "_from",
                                "type": "address",
                                "value": "0x03749666a817cc15e8d0a3219ec5b9fe1615b9d1"
                            },
                            {
                                "name": "_to",
                                "type": "address",
                                "value": "0x7c366b60871a8f993b9af2d81e79eb54d2c8f64a"
                            },
                            {
                                "name": "_symbol",
                                "type": "bytes32",
                                "value": "0x5441415300000000000000000000000000000000000000000000000000000000"
                            },
                            {
                                "name": "_value",
                                "type": "uint256",
                                "value": "64,340,000"
                            },
                            {
                                "name": "_reference",
                                "type": "string",
                                "value": ""
                            }
                        ],
                        "constructorArguments": "",
                        "name": "emitTransfer",
                        "returnParams": [],
                        "signature": "emitTransfer(address,address,bytes32,uint256,string)"
                    },
                    "errorInfo": "",
                    "fromAddress": "0x60bf91ac87fee5a78c28f7b67701fbcfa79c18ec",
                    "gasUsed": 5948,
                    "id": 5,
                    "methodDecoded": true,
                    "operation": "DELEGATECALL",
                    "output": "",
                    "revert": false,
                    "revertMessage": "",
                    "selector": "0x515c1457",
                    "status": true,
                    "value": "0"
                },
                "nodeType": 0
            },
            "6": {
                "invocation": {
                    "address": "0x60bf91ac87fee5a78c28f7b67701fbcfa79c18ec",
                    "callData": "0x000000000000000000000000331d077518216c07c87f4f18ba64cd384c411f84",
                    "decodedMethod": {
                        "callParams": [
                            {
                                "name": "",
                                "type": "address",
                                "value": "0x331d077518216c07c87f4f18ba64cd384c411f84"
                            }
                        ],
                        "constructorArguments": "",
                        "name": "versions",
                        "returnParams": [
                            {
                                "name": "",
                                "type": "uint256",
                                "value": "2"
                            }
                        ],
                        "signature": "versions(address)"
                    },
                    "errorInfo": "",
                    "fromAddress": "0x60bf91ac87fee5a78c28f7b67701fbcfa79c18ec",
                    "gasUsed": 559,
                    "id": 6,
                    "methodDecoded": true,
                    "operation": "CALL",
                    "output": "0x0000000000000000000000000000000000000000000000000000000000000002",
                    "revert": false,
                    "revertMessage": "",
                    "selector": "0x488725a0",
                    "status": true,
                    "value": "0"
                },
                "nodeType": 0
            },
            "7": {
                "invocation": {
                    "address": "0x0000000000000000000000000000000000000004",
                    "callData": "0x",
                    "decodedMethod": {
                        "callParams": [
                            {
                                "name": "data",
                                "type": "bytes",
                                "value": "0x"
                            }
                        ],
                        "constructorArguments": "",
                        "name": "dataCopy()",
                        "returnParams": [
                            {
                                "name": "data",
                                "type": "bytes",
                                "value": "0x"
                            }
                        ],
                        "signature": "dataCopy(bytes)"
                    },
                    "errorInfo": "out of gas",
                    "fromAddress": "0x60bf91ac87fee5a78c28f7b67701fbcfa79c18ec",
                    "gasUsed": 3,
                    "id": 7,
                    "methodDecoded": true,
                    "operation": "CALL",
                    "output": "",
                    "revert": true,
                    "revertMessage": "",
                    "selector": "0x",
                    "status": false,
                    "value": "0"
                },
                "nodeType": 0
            },
            "8": {
                "event": {
                    "contract": "0x60bf91ac87fee5a78c28f7b67701fbcfa79c18ec",
                    "decodedLog": {
                        "name": "Transfer",
                        "params": [
                            {
                                "name": "from",
                                "type": "address",
                                "value": "0x03749666a817cc15e8d0a3219ec5b9fe1615b9d1"
                            },
                            {
                                "name": "to",
                                "type": "address",
                                "value": "0x7c366b60871a8f993b9af2d81e79eb54d2c8f64a"
                            },
                            {
                                "name": "symbol",
                                "type": "bytes32",
                                "value": "0x5441415300000000000000000000000000000000000000000000000000000000"
                            },
                            {
                                "name": "value",
                                "type": "uint256",
                                "value": "64,340,000"
                            },
                            {
                                "name": "reference",
                                "type": "string",
                                "value": ""
                            },
                            {
                                "name": "version",
                                "type": "uint256",
                                "value": "2"
                            }
                        ],
                        "signature": "Transfer(address,address,bytes32,uint256,string,uint256)"
                    },
                    "id": 8,
                    "logData": "0x0000000000000000000000000000000000000000000000000000000003d5c020000000000000000000000000000000000000000000000000000000000000006000000000000000000000000000000000000000000000000000000000000000020000000000000000000000000000000000000000000000000000000000000000",
                    "logDecoded": true,
                    "operation": "EVENT",
                    "revert": false,
                    "status": true,
                    "topics": [
                        "0x940c4b3549ef0aaff95807dc27f62d88ca15532d1bf535d7d63800f40395d16c",
                        "0x00000000000000000000000003749666a817cc15e8d0a3219ec5b9fe1615b9d1",
                        "0x0000000000000000000000007c366b60871a8f993b9af2d81e79eb54d2c8f64a",
                        "0x5441415300000000000000000000000000000000000000000000000000000000"
                    ]
                },
                "nodeType": 1
            },
            "9": {
                "invocation": {
                    "address": "0xe7775a6e9bcf904eb39da2b68c5efb4f9360e08c",
                    "callData": "0x00000000000000000000000003749666a817cc15e8d0a3219ec5b9fe1615b9d10000000000000000000000007c366b60871a8f993b9af2d81e79eb54d2c8f64a0000000000000000000000000000000000000000000000000000000003d5c020",
                    "decodedMethod": {
                        "callParams": [
                            {
                                "name": "_from",
                                "type": "address",
                                "value": "0x03749666a817cc15e8d0a3219ec5b9fe1615b9d1"
                            },
                            {
                                "name": "_to",
                                "type": "address",
                                "value": "0x7c366b60871a8f993b9af2d81e79eb54d2c8f64a"
                            },
                            {
                                "name": "_value",
                                "type": "uint256",
                                "value": "64,340,000"
                            }
                        ],
                        "constructorArguments": "",
                        "name": "emitTransfer",
                        "returnParams": [],
                        "signature": "emitTransfer(address,address,uint256)"
                    },
                    "errorInfo": "",
                    "fromAddress": "0x331d077518216c07c87f4f18ba64cd384c411f84",
                    "gasUsed": 2771,
                    "id": 9,
                    "methodDecoded": true,
                    "operation": "CALL",
                    "output": "",
                    "revert": false,
                    "revertMessage": "",
                    "selector": "0x23de6651",
                    "status": true,
                    "value": "0"
                },
                "nodeType": 0
            }
        },
        "gasFlame": [
            {
                "children": [
                    {
                        "children": [
                            {
                                "children": [],
                                "depth": 0,
                                "name": "Initial Gas",
                                "value": 23064
                            },
                            {
                                "children": [
                                    {
                                        "children": [
                                            {
                                                "children": [
                                                    {
                                                        "children": [
                                                            {
                                                                "children": [
                                                                    {
                                                                        "children": [
                                                                            {
                                                                                "children": [],
                                                                                "depth": 6,
                                                                                "name": "versions",
                                                                                "value": 559
                                                                            },
                                                                            {
                                                                                "children": [],
                                                                                "depth": 6,
                                                                                "name": "dataCopy()",
                                                                                "value": 3
                                                                            }
                                                                        ],
                                                                        "depth": 5,
                                                                        "name": "emitTransfer",
                                                                        "value": 5948
                                                                    }
                                                                ],
                                                                "depth": 4,
                                                                "name": "emitTransfer",
                                                                "value": 8102
                                                            },
                                                            {
                                                                "children": [],
                                                                "depth": 4,
                                                                "name": "emitTransfer",
                                                                "value": 2771
                                                            }
                                                        ],
                                                        "depth": 3,
                                                        "name": "proxyTransferFromWithReference",
                                                        "value": 46473
                                                    }
                                                ],
                                                "depth": 2,
                                                "name": "_forwardTransferFromWithReference",
                                                "value": 50463
                                            }
                                        ],
                                        "depth": 1,
                                        "name": "_performTransferWithReference",
                                        "value": 54548
                                    }
                                ],
                                "depth": 0,
                                "name": "Executed Gas",
                                "value": 58525
                            }
                        ],
                        "depth": -1,
                        "name": "Actual Gas Used",
                        "value": 81589
                    },
                    {
                        "children": [],
                        "depth": -1,
                        "name": "Refunded Gas",
                        "value": 0
                    }
                ],
                "depth": -2,
                "name": "Total Gas",
                "value": 81589
            }
        ],
        "isConfirmed": true,
        "mainTrace": [
            {
                "children": [
                    {
                        "children": [
                            {
                                "children": [
                                    {
                                        "children": [
                                            {
                                                "children": [
                                                    {
                                                        "children": [
                                                            {
                                                                "children": [
                                                                    {
                                                                        "children": [],
                                                                        "depth": 6,
                                                                        "id": 6,
                                                                        "order": 6
                                                                    },
                                                                    {
                                                                        "children": [],
                                                                        "depth": 6,
                                                                        "id": 7,
                                                                        "order": 7
                                                                    },
                                                                    {
                                                                        "children": [],
                                                                        "depth": 6,
                                                                        "id": 8,
                                                                        "order": 8
                                                                    }
                                                                ],
                                                                "depth": 5,
                                                                "id": 5,
                                                                "order": 5
                                                            }
                                                        ],
                                                        "depth": 4,
                                                        "id": 4,
                                                        "order": 4
                                                    },
                                                    {
                                                        "children": [
                                                            {
                                                                "children": [],
                                                                "depth": 5,
                                                                "id": 10,
                                                                "order": 10
                                                            }
                                                        ],
                                                        "depth": 4,
                                                        "id": 9,
                                                        "order": 9
                                                    }
                                                ],
                                                "depth": 3,
                                                "id": 3,
                                                "order": 3
                                            }
                                        ],
                                        "depth": 2,
                                        "id": 2,
                                        "order": 2
                                    }
                                ],
                                "depth": 1,
                                "id": 1,
                                "order": 1
                            }
                        ],
                        "depth": 0,
                        "id": 0,
                        "order": 0
                    }
                ],
                "depth": -1,
                "id": -1,
                "order": -1
            }
        ],
        "mainTraceNodeCount": 11,
        "parentIdMap": {
            "0": -1,
            "1": 0,
            "10": 9,
            "2": 1,
            "3": 2,
            "4": 3,
            "5": 4,
            "6": 5,
            "7": 5,
            "8": 5,
            "9": 3
        },
        "tidyTrace": [
            {
                "children": [
                    {
                        "children": [
                            {
                                "children": [
                                    {
                                        "children": [
                                            {
                                                "children": [
                                                    {
                                                        "children": [
                                                            {
                                                                "children": [
                                                                    {
                                                                        "children": [],
                                                                        "depth": 6,
                                                                        "id": 6,
                                                                        "order": 6
                                                                    },
                                                                    {
                                                                        "children": [],
                                                                        "depth": 6,
                                                                        "id": 7,
                                                                        "order": 7
                                                                    },
                                                                    {
                                                                        "children": [],
                                                                        "depth": 6,
                                                                        "id": 8,
                                                                        "order": 8
                                                                    }
                                                                ],
                                                                "depth": 5,
                                                                "id": 5,
                                                                "order": 5
                                                            }
                                                        ],
                                                        "depth": 4,
                                                        "id": 4,
                                                        "order": 4
                                                    },
                                                    {
                                                        "children": [
                                                            {
                                                                "children": [],
                                                                "depth": 5,
                                                                "id": 10,
                                                                "order": 10
                                                            }
                                                        ],
                                                        "depth": 4,
                                                        "id": 9,
                                                        "order": 9
                                                    }
                                                ],
                                                "depth": 3,
                                                "id": 3,
                                                "order": 3
                                            }
                                        ],
                                        "depth": 2,
                                        "id": 2,
                                        "order": 2
                                    }
                                ],
                                "depth": 1,
                                "id": 1,
                                "order": 1
                            }
                        ],
                        "depth": 0,
                        "id": 0,
                        "order": 0
                    }
                ],
                "depth": -1,
                "id": -1,
                "order": -1
            }
        ],
        "tidyTraceNodeCount": 11
    },
    "state_change": {
        "stateChanges": [
            {
                "address": "0x331d077518216c07c87f4f18ba64cd384c411f84",
                "erc": "",
                "slots": [
                    {
                        "current": "0x000000000000000000000000000000000000000000000000000000034a05ecd5",
                        "key": "0x971c63d31019b6fc5c54611f4b0656249faa7efc11d7227478f210e929ae4f19",
                        "prev": "0x000000000000000000000000000000000000000000000000000000034ddbacf5"
                    },
                    {
                        "current": "0x0000000000000000000000000000000000000000000000000000000003d5c020",
                        "key": "0x5a0e29d187f5b5d2376f5329ec10a9b270296b15a512c9cc05fbfd94e92d0bf6",
                        "prev": "0x0000000000000000000000000000000000000000000000000000000000000000"
                    }
                ],
                "storageVariables": []
            }
        ]
    }
}