{
    "balance_change": {
        "balanceChanges": [
            {
                "account": "0x762b34974ecdbcf8d9015125a48f7b4b6cbaa205",
                "assets": [
                    {
                        "address": "0x0000000000a39bb272e79075ade125fd351887ac",
                        "amount": "0.1995",
                        "iconUrl": "",
                        "isERC1155": false,
                        "isERC721": false,
                        "sign": true,
                        "value": ""
                    },
                    {
                        "address": "0xd774557b647330c91bf44cfeab205095f7e6c367",
                        "amount": "1",
                        "iconUrl": "https://assets.blocksec.com/nft/icon/nft_9b9458d8-8f17-4355-ada9-a87b1e2a187e.png",
                        "isERC1155": false,
                        "isERC721": true,
                        "sign": false,
                        "tokenID": "5967",
                        "value": ""
                    }
                ]
            },
            {
                "account": "0x5715bd43ae4b8fd0f7f45bf1a24e547d76eda6eb",
                "assets": [
                    {
                        "address": "0x0000000000a39bb272e79075ade125fd351887ac",
                        "amount": "0.21",
                        "iconUrl": "",
                        "isERC1155": false,
                        "isERC721": false,
                        "sign": false,
                        "value": ""
                    },
                    {
                        "address": "0xd774557b647330c91bf44cfeab205095f7e6c367",
                        "amount": "1",
                        "iconUrl": "https://assets.blocksec.com/nft/icon/nft_9b9458d8-8f17-4355-ada9-a87b1e2a187e.png",
                        "isERC1155": false,
                        "isERC721": true,
                        "sign": true,
                        "tokenID": "5967",
                        "value": ""
                    }
                ]
            },
            {
                "account": "0xfca634387cd89128116b80e04c6352a4e7c5a40c",
                "assets": [
                    {
                        "address": "0x0000000000a39bb272e79075ade125fd351887ac",
                        "amount": "0.0105",
                        "iconUrl": "",
                        "isERC1155": false,
                        "isERC721": false,
                        "sign": true,
                        "value": ""
                    }
                ]
            }
        ]
    },
    "profile": {
        "basic_info": {
            "baseFee": "13.872144301",
            "blockNumber": 17616465,
            "callData": "0x9a1fc3a7000000000000000000000000000000000000000000000000000000000000004000000000000000000000000000000000000000000000000000000000000003e000000000000000000000000000000000000000000000000000000000000000e00000000000000000000000000000000000000000000000000000000000000000000000000000000000000000000000000000000000000000000000000000000000000000000000000000000000000000000000000000000000000000000000000000000000000000000000000000000000000000000000000000000000000320000000000000000000000000000000000000000000000000000000000000000000000000000000000000000000000000000000000000000000000000010cce4b000000000000000000000000762b34974ecdbcf8d9015125a48f7b4b6cbaa20500000000000000000000000000000000000000000000000000000000000000010000000000000000000000000000000000b92d5d043faf7cecf7e2ee6aaed232000000000000000000000000d774557b647330c91bf44cfeab205095f7e6c367000000000000000000000000000000000000000000000000000000000000174f00000000000000000000000000000000000000000000000000000000000000010000000000000000000000000000000000a39bb272e79075ade125fd351887ac00000000000000000000000000000000000000000000000002ea11e32ad500000000000000000000000000000000000000000000000000000000000064a300a10000000000000000000000000000000000000000000000000000000064a35c2f00000000000000000000000000000000000000000000000000000000000001a000000000000000000000000000000000ce52c8abfb1a646237d06b96474e15c60000000000000000000000000000000000000000000000000000000000000200000000000000000000000000000000000000000000000000000000000000000100000000000000000000000000000000000000000000000000000000000001f4000000000000000000000000fca634387cd89128116b80e04c6352a4e7c5a40c000000000000000000000000000000000000000000000000000000000000000101000000000000000000000000000000000000000000000000000000000000000000000000000000000000000000000000000000000000000000000000000060000000000000000000000000000000000000000000000000000000000000001b5b0013a27a8687bcdf0088f82812bc1f4476fcca39c0885ec2dd31936e4c13c70a3f4564381dfd1d08d89ed696288d8e08fc8a78003d3493d5f2f1f65209fbde00000000000000000000000000000000000000000000000000000000000000e0000000000000000000000000000000000000000000000000000000000000001ce9f5718221f56ba91253bcec65830d2e861b85d65f8ae7bf4e063e4b362f757f1bc2c9aa7611a3c60ac4f1488040d79af281ddfee3494aaf687bc7d2ee73d73000000000000000000000000000000000000000000000000000000000000002e0000000000000000000000000000000000000000000000000000000000000000000000000000000000000000000000000000000000000000000000000010cce4b0000000000000000000000005715bd43ae4b8fd0f7f45bf1a24e547d76eda6eb00000000000000000000000000000000000000000000000000000000000000000000000000000000000000000000000000b92d5d043faf7cecf7e2ee6aaed232000000000000000000000000d774557b647330c91bf44cfeab205095f7e6c367000000000000000000000000000000000000000000000000000000000000000000000000000000000000000000000000000000000000000000000000000000010000000000000000000000000000000000a39bb272e79075ade125fd351887ac00000000000000000000000000000000000000000000000002ea11e32ad500000000000000000000000000000000000000000000000000000000000064a300a0000000000000000000000000000000000000000000000000000000006684342000000000000000000000000000000000000000000000000000000000000001a000000000000000000000000000000000f6a2b8e6c0b1ec7c1751fb946b05313400000000000000000000000000000000000000000000000000000000000001c00000000000000000000000000000000000000000000000000000000000000000000000000000000000000000000000000000000000000000000000000000000101000000000000000000000000000000000000000000000000000000000000000000000000000000000000000000000000000000000000000000000000000060000000000000000000000000000000000000000000000000000000000000001ce22d58e6f207382bc59a53f5a8ec23db1021b47b8239dbbe547343c321d10b344113e6c95219e3f6b2f803e0fb3eb9f9eea5931d512aca991e4b1e4223c6298d",
            "debugEnable": true,
            "errorInfo": "",
            "eventCount": 4,
            "feeRecipient": "0xa1feaf41d843d53d0f6bed86a8cf592ce21c409e",
            "formatValue": "0",
            "gasLimit": 333379,
            "gasPrice": "13.972144301",
            "gasUsed": 272468,
            "intTxnCount": 15,
            "internalRevert": false,
            "internalRevertMessage": "",
            "isContractCreation": false,
            "isFlashloan": false,
            "maxFee": "18.587239177",
            "nonce": 3101,
            "overwritedBlockNumber": -1,
            "priorityFee": "0.1",
            "receiver": "0x000000000000ad05ccc4f10045630fb830b95127",
            "revertMessage": "",
            "sender": "0x762b34974ecdbcf8d9015125a48f7b4b6cbaa205",
            "simulationEnable": true,
            "sourceTxnHash": "0x94225fa05afe79ade24c6b947000f43925bab0c9a92551b969934ad669be53b9",
            "status": true,
            "timestamp": "2023-07-03T22:39:59Z",
            "transactionFee": "0.003806962213404868",
            "txnHash": "0x94225fa05afe79ade24c6b947000f43925bab0c9a92551b969934ad669be53b9",
            "txnIndex": 130,
            "type": 2,
            "value": "0"
        },
        "fund_flow": [
            {
                "amount": "0.0105",
                "from": "0x5715bd43ae4b8fd0f7f45bf1a24e547d76eda6eb",
                "id": 1,
                "isERC1155": false,
                "isERC721": false,
                "isReverted": false,
                "order": 1,
                "to": "0xfca634387cd89128116b80e04c6352a4e7c5a40c",
                "token": "0x0000000000a39bb272e79075ade125fd351887ac"
            },
            {
                "amount": "0.1995",
                "from": "0x5715bd43ae4b8fd0f7f45bf1a24e547d76eda6eb",
                "id": 2,
                "isERC1155": false,
                "isERC721": false,
                "isReverted": false,
                "order": 2,
                "to": "0x762b34974ecdbcf8d9015125a48f7b4b6cbaa205",
                "token": "0x0000000000a39bb272e79075ade125fd351887ac"
            },
            {
                "amount": "1",
                "from": "0x762b34974ecdbcf8d9015125a48f7b4b6cbaa205",
                "id": 3,
                "isERC1155": false,
                "isERC721": true,
                "isReverted": false,
                "order": 3,
                "to": "0x5715bd43ae4b8fd0f7f45bf1a24e547d76eda6eb",
                "token": "0xd774557b647330c91bf44cfeab205095f7e6c367",
                "tokenID": "5967"
            }
        ],
        "token_infos": [
            {
                "address": "0x0000000000a39bb272e79075ade125fd351887ac",
                "decimals": 18
            },
            {
                "address": "0xc02aaa39b223fe8d0a0e5c4f27ead9083c756cc2",
                "decimals": 18
            },
            {
                "address": "0xeeeeeeeeeeeeeeeeeeeeeeeeeeeeeeeeeeeeeeee",
                "decimals": 18
            }
        ]
    },
    "address_label": {
        "labels": [
            {
                "address": "0x3a35a3102b5c6bd1e4d3237248be071ef53c8331",
                "label": "PolicyManager"
            },
            {
                "address": "0xfca634387cd89128116b80e04c6352a4e7c5a40c",
                "label": "PercentSplitETH"
            },
            {
                "address": "0x0000000000b92d5d043faf7cecf7e2ee6aaed232",
                "label": "SafeCollectionBidPolicyERC721"
            },
            {
                "address": "0xd774557b647330c91bf44cfeab205095f7e6c367",
                "label": "Nakamigos: NKMGS Token"
            },
            {
                "address": "0x0000000000a39bb272e79075ade125fd351887ac",
                "label": "Blur: Bidding"
            },
            {
                "address": "0x0000000000000000000000000000000000000004",
                "label": "Precompiled"
            },
            {
                "address": "0xeeeeeeeeeeeeeeeeeeeeeeeeeeeeeeeeeeeeeeee",
                "label": "Ether"
            },
            {
                "address": "0x000000000000ad05ccc4f10045630fb830b95127",
                "label": "Blur.io: Marketplace"
            },
            {
                "address": "0x000000000000aaeb6d7670e522a718067333cd4e",
                "label": "OperatorFilterRegistry"
            },
            {
                "address": "0x0000000000000000000000000000000000000002",
                "label": "Precompiled"
            },
            {
                "address": "0x0000000000000000000000000000000000000003",
                "label": "Precompiled"
            },
            {
                "address": "0x00000000000111abe46ff893f3b2fdf1f759a8a8",
                "label": "Blur: Execution Delegate"
            },
            {
                "address": "0x983e96c26782a8db500a6fb8ab47a52e1b44862d",
                "label": "BlurExchange"
            },
            {
                "address": "0x02ab0463ca0c98de2d9b6649dcdb4ab667f12da7",
                "label": "Blur Pool"
            },
            {
                "address": "0x0000000000000000000000000000000000000001",
                "label": "Precompiled"
            }
        ]
    },
    "trace": {
        "accountLabels": null,
        "dataMap": {
            "-1": {
                "invocation": {
                    "address": "0x762b34974ecdbcf8d9015125a48f7b4b6cbaa205",
                    "callData": "",
                    "decodedMethod": null,
                    "errorInfo": "",
                    "fromAddress": "",
                    "gasUsed": 0,
                    "id": -1,
                    "methodDecoded": false,
                    "operation": "",
                    "output": "",
                    "revert": false,
                    "revertMessage": "",
                    "selector": "",
                    "status": false,
                    "value": ""
                },
                "nodeType": 0
            },
            "0": {
                "invocation": {
                    "address": "0x000000000000ad05ccc4f10045630fb830b95127",
                    "callData": "0x000000000000000000000000000000000000000000000000000000000000004000000000000000000000000000000000000000000000000000000000000003e000000000000000000000000000000000000000000000000000000000000000e00000000000000000000000000000000000000000000000000000000000000000000000000000000000000000000000000000000000000000000000000000000000000000000000000000000000000000000000000000000000000000000000000000000000000000000000000000000000000000000000000000000000000320000000000000000000000000000000000000000000000000000000000000000000000000000000000000000000000000000000000000000000000000010cce4b000000000000000000000000762b34974ecdbcf8d9015125a48f7b4b6cbaa20500000000000000000000000000000000000000000000000000000000000000010000000000000000000000000000000000b92d5d043faf7cecf7e2ee6aaed232000000000000000000000000d774557b647330c91bf44cfeab205095f7e6c367000000000000000000000000000000000000000000000000000000000000174f00000000000000000000000000000000000000000000000000000000000000010000000000000000000000000000000000a39bb272e79075ade125fd351887ac00000000000000000000000000000000000000000000000002ea11e32ad500000000000000000000000000000000000000000000000000000000000064a300a10000000000000000000000000000000000000000000000000000000064a35c2f00000000000000000000000000000000000000000000000000000000000001a000000000000000000000000000000000ce52c8abfb1a646237d06b96474e15c60000000000000000000000000000000000000000000000000000000000000200000000000000000000000000000000000000000000000000000000000000000100000000000000000000000000000000000000000000000000000000000001f4000000000000000000000000fca634387cd89128116b80e04c6352a4e7c5a40c000000000000000000000000000000000000000000000000000000000000000101000000000000000000000000000000000000000000000000000000000000000000000000000000000000000000000000000000000000000000000000000060000000000000000000000000000000000000000000000000000000000000001b5b0013a27a8687bcdf0088f82812bc1f4476fcca39c0885ec2dd31936e4c13c70a3f4564381dfd1d08d89ed696288d8e08fc8a78003d3493d5f2f1f65209fbde00000000000000000000000000000000000000000000000000000000000000e0000000000000000000000000000000000000000000000000000000000000001ce9f5718221f56ba91253bcec65830d2e861b85d65f8ae7bf4e063e4b362f757f1bc2c9aa7611a3c60ac4f1488040d79af281ddfee3494aaf687bc7d2ee73d73000000000000000000000000000000000000000000000000000000000000002e0000000000000000000000000000000000000000000000000000000000000000000000000000000000000000000000000000000000000000000000000010cce4b0000000000000000000000005715bd43ae4b8fd0f7f45bf1a24e547d76eda6eb00000000000000000000000000000000000000000000000000000000000000000000000000000000000000000000000000b92d5d043faf7cecf7e2ee6aaed232000000000000000000000000d774557b647330c91bf44cfeab205095f7e6c367000000000000000000000000000000000000000000000000000000000000000000000000000000000000000000000000000000000000000000000000000000010000000000000000000000000000000000a39bb272e79075ade125fd351887ac00000000000000000000000000000000000000000000000002ea11e32ad500000000000000000000000000000000000000000000000000000000000064a300a0000000000000000000000000000000000000000000000000000000006684342000000000000000000000000000000000000000000000000000000000000001a000000000000000000000000000000000f6a2b8e6c0b1ec7c1751fb946b05313400000000000000000000000000000000000000000000000000000000000001c00000000000000000000000000000000000000000000000000000000000000000000000000000000000000000000000000000000000000000000000000000000101000000000000000000000000000000000000000000000000000000000000000000000000000000000000000000000000000000000000000000000000000060000000000000000000000000000000000000000000000000000000000000001ce22d58e6f207382bc59a53f5a8ec23db1021b47b8239dbbe547343c321d10b344113e6c95219e3f6b2f803e0fb3eb9f9eea5931d512aca991e4b1e4223c6298d",
                    "decodedMethod": {
                        "callParams": [
                            {
                                "name": "sell",
                                "type": "((address,uint8,address,address,uint256,uint256,address,uint256,uint256,uint256,(uint16,address)[],uint256,bytes),uint8,bytes32,bytes32,bytes,uint8,uint256)",
                                "value": [
                                    {
                                        "name": "order",
                                        "type": "(address,uint8,address,address,uint256,uint256,address,uint256,uint256,uint256,(uint16,address)[],uint256,bytes)",
                                        "value": [
                                            {
                                                "name": "trader",
                                                "type": "address",
                                                "value": "0x762b34974ecdbcf8d9015125a48f7b4b6cbaa205"
                                            },
                                            {
                                                "name": "side",
                                                "type": "uint8",
                                                "value": "1"
                                            },
                                            {
                                                "name": "matchingPolicy",
                                                "type": "address",
                                                "value": "0x0000000000b92d5d043faf7cecf7e2ee6aaed232"
                                            },
                                            {
                                                "name": "collection",
                                                "type": "address",
                                                "value": "0xd774557b647330c91bf44cfeab205095f7e6c367"
                                            },
                                            {
                                                "name": "tokenId",
                                                "type": "uint256",
                                                "value": "5,967"
                                            },
                                            {
                                                "name": "amount",
                                                "type": "uint256",
                                                "value": "1"
                                            },
                                            {
                                                "name": "paymentToken",
                                                "type": "address",
                                                "value": "0x0000000000a39bb272e79075ade125fd351887ac"
                                            },
                                            {
                                                "name": "price",
                                                "type": "uint256",
                                                "value": "210,000,000,000,000,000"
                                            },
                                            {
                                                "name": "listingTime",
                                                "type": "uint256",
                                                "value": "1,688,404,129"
                                            },
                                            {
                                                "name": "expirationTime",
                                                "type": "uint256",
                                                "value": "1,688,427,567"
                                            },
                                            {
                                                "name": "fees",
                                                "type": "(uint16,address)[]",
                                                "value": [
                                                    [
                                                        {
                                                            "name": "rate",
                                                            "type": "uint16",
                                                            "value": "500"
                                                        },
                                                        {
                                                            "name": "recipient",
                                                            "type": "address",
                                                            "value": "0xfca634387cd89128116b80e04c6352a4e7c5a40c"
                                                        }
                                                    ]
                                                ]
                                            },
                                            {
                                                "name": "salt",
                                                "type": "uint256",
                                                "value": "274,250,805,581,741,689,541,928,904,619,966,993,862"
                                            },
                                            {
                                                "name": "extraParams",
                                                "type": "bytes",
                                                "value": "0x01"
                                            }
                                        ]
                                    },
                                    {
                                        "name": "v",
                                        "type": "uint8",
                                        "value": "0"
                                    },
                                    {
                                        "name": "r",
                                        "type": "bytes32",
                                        "value": "0x0000000000000000000000000000000000000000000000000000000000000000"
                                    },
                                    {
                                        "name": "s",
                                        "type": "bytes32",
                                        "value": "0x0000000000000000000000000000000000000000000000000000000000000000"
                                    },
                                    {
                                        "name": "extraSignature",
                                        "type": "bytes",
                                        "value": "0x000000000000000000000000000000000000000000000000000000000000001b5b0013a27a8687bcdf0088f82812bc1f4476fcca39c0885ec2dd31936e4c13c70a3f4564381dfd1d08d89ed696288d8e08fc8a78003d3493d5f2f1f65209fbde"
                                    },
                                    {
                                        "name": "signatureVersion",
                                        "type": "uint8",
                                        "value": "0"
                                    },
                                    {
                                        "name": "blockNumber",
                                        "type": "uint256",
                                        "value": "17,616,459"
                                    }
                                ]
                            },
                            {
                                "name": "buy",
                                "type": "((address,uint8,address,address,uint256,uint256,address,uint256,uint256,uint256,(uint16,address)[],uint256,bytes),uint8,bytes32,bytes32,bytes,uint8,uint256)",
                                "value": [
                                    {
                                        "name": "order",
                                        "type": "(address,uint8,address,address,uint256,uint256,address,uint256,uint256,uint256,(uint16,address)[],uint256,bytes)",
                                        "value": [
                                            {
                                                "name": "trader",
                                                "type": "address",
                                                "value": "0x5715bd43ae4b8fd0f7f45bf1a24e547d76eda6eb"
                                            },
                                            {
                                                "name": "side",
                                                "type": "uint8",
                                                "value": "0"
                                            },
                                            {
                                                "name": "matchingPolicy",
                                                "type": "address",
                                                "value": "0x0000000000b92d5d043faf7cecf7e2ee6aaed232"
                                            },
                                            {
                                                "name": "collection",
                                                "type": "address",
                                                "value": "0xd774557b647330c91bf44cfeab205095f7e6c367"
                                            },
                                            {
                                                "name": "tokenId",
                                                "type": "uint256",
                                                "value": "0"
                                            },
                                            {
                                                "name": "amount",
                                                "type": "uint256",
                                                "value": "1"
                                            },
                                            {
                                                "name": "paymentToken",
                                                "type": "address",
                                                "value": "0x0000000000a39bb272e79075ade125fd351887ac"
                                            },
                                            {
                                                "name": "price",
                                                "type": "uint256",
                                                "value": "210,000,000,000,000,000"
                                            },
                                            {
                                                "name": "listingTime",
                                                "type": "uint256",
                                                "value": "1,688,404,128"
                                            },
                                            {
                                                "name": "expirationTime",
                                                "type": "uint256",
                                                "value": "1,719,940,128"
                                            },
                                            {
                                                "name": "fees",
                                                "type": "(uint16,address)[]",
                                                "value": []
                                            },
                                            {
                                                "name": "salt",
                                                "type": "uint256",
                                                "value": "327,834,989,299,652,615,521,650,795,729,834,553,652"
                                            },
                                            {
                                                "name": "extraParams",
                                                "type": "bytes",
                                                "value": "0x01"
                                            }
                                        ]
                                    },
                                    {
                                        "name": "v",
                                        "type": "uint8",
                                        "value": "28"
                                    },
                                    {
                                        "name": "r",
                                        "type": "bytes32",
                                        "value": "0xe9f5718221f56ba91253bcec65830d2e861b85d65f8ae7bf4e063e4b362f757f"
                                    },
                                    {
                                        "name": "s",
                                        "type": "bytes32",
                                        "value": "0x1bc2c9aa7611a3c60ac4f1488040d79af281ddfee3494aaf687bc7d2ee73d730"
                                    },
                                    {
                                        "name": "extraSignature",
                                        "type": "bytes",
                                        "value": "0x000000000000000000000000000000000000000000000000000000000000001ce22d58e6f207382bc59a53f5a8ec23db1021b47b8239dbbe547343c321d10b344113e6c95219e3f6b2f803e0fb3eb9f9eea5931d512aca991e4b1e4223c6298d"
                                    },
                                    {
                                        "name": "signatureVersion",
                                        "type": "uint8",
                                        "value": "0"
                                    },
                                    {
                                        "name": "blockNumber",
                                        "type": "uint256",
                                        "value": "17,616,459"
                                    }
                                ]
                            }
                        ],
                        "constructorArguments": "",
                        "name": "execute",
                        "returnParams": [],
                        "signature": "execute(((address,uint8,address,address,uint256,uint256,address,uint256,uint256,uint256,(uint16,address)[],uint256,bytes),uint8,bytes32,bytes32,bytes,uint8,uint256),((address,uint8,address,address,uint256,uint256,address,uint256,uint256,uint256,(uint16,address)[],uint256,bytes),uint8,bytes32,bytes32,bytes,uint8,uint256))"
                    },
                    "errorInfo": "",
                    "fromAddress": "0x762b34974ecdbcf8d9015125a48f7b4b6cbaa205",
                    "gasUsed": 272468,
                    "id": 0,
                    "methodDecoded": true,
                    "operation": "CALL",
                    "output": "",
                    "revert": false,
                    "revertMessage": "",
                    "selector": "0x9a1fc3a7",
                    "status": true,
                    "value": "0"
                },
                "nodeType": 0
            },
            "1": {
                "invocation": {
                    "address": "0x983e96c26782a8db500a6fb8ab47a52e1b44862d",
                    "callData": "0x000000000000000000000000000000000000000000000000000000000000004000000000000000000000000000000000000000000000000000000000000003e000000000000000000000000000000000000000000000000000000000000000e00000000000000000000000000000000000000000000000000000000000000000000000000000000000000000000000000000000000000000000000000000000000000000000000000000000000000000000000000000000000000000000000000000000000000000000000000000000000000000000000000000000000000320000000000000000000000000000000000000000000000000000000000000000000000000000000000000000000000000000000000000000000000000010cce4b000000000000000000000000762b34974ecdbcf8d9015125a48f7b4b6cbaa20500000000000000000000000000000000000000000000000000000000000000010000000000000000000000000000000000b92d5d043faf7cecf7e2ee6aaed232000000000000000000000000d774557b647330c91bf44cfeab205095f7e6c367000000000000000000000000000000000000000000000000000000000000174f00000000000000000000000000000000000000000000000000000000000000010000000000000000000000000000000000a39bb272e79075ade125fd351887ac00000000000000000000000000000000000000000000000002ea11e32ad500000000000000000000000000000000000000000000000000000000000064a300a10000000000000000000000000000000000000000000000000000000064a35c2f00000000000000000000000000000000000000000000000000000000000001a000000000000000000000000000000000ce52c8abfb1a646237d06b96474e15c60000000000000000000000000000000000000000000000000000000000000200000000000000000000000000000000000000000000000000000000000000000100000000000000000000000000000000000000000000000000000000000001f4000000000000000000000000fca634387cd89128116b80e04c6352a4e7c5a40c000000000000000000000000000000000000000000000000000000000000000101000000000000000000000000000000000000000000000000000000000000000000000000000000000000000000000000000000000000000000000000000060000000000000000000000000000000000000000000000000000000000000001b5b0013a27a8687bcdf0088f82812bc1f4476fcca39c0885ec2dd31936e4c13c70a3f4564381dfd1d08d89ed696288d8e08fc8a78003d3493d5f2f1f65209fbde00000000000000000000000000000000000000000000000000000000000000e0000000000000000000000000000000000000000000000000000000000000001ce9f5718221f56ba91253bcec65830d2e861b85d65f8ae7bf4e063e4b362f757f1bc2c9aa7611a3c60ac4f1488040d79af281ddfee3494aaf687bc7d2ee73d73000000000000000000000000000000000000000000000000000000000000002e0000000000000000000000000000000000000000000000000000000000000000000000000000000000000000000000000000000000000000000000000010cce4b0000000000000000000000005715bd43ae4b8fd0f7f45bf1a24e547d76eda6eb00000000000000000000000000000000000000000000000000000000000000000000000000000000000000000000000000b92d5d043faf7cecf7e2ee6aaed232000000000000000000000000d774557b647330c91bf44cfeab205095f7e6c367000000000000000000000000000000000000000000000000000000000000000000000000000000000000000000000000000000000000000000000000000000010000000000000000000000000000000000a39bb272e79075ade125fd351887ac00000000000000000000000000000000000000000000000002ea11e32ad500000000000000000000000000000000000000000000000000000000000064a300a0000000000000000000000000000000000000000000000000000000006684342000000000000000000000000000000000000000000000000000000000000001a000000000000000000000000000000000f6a2b8e6c0b1ec7c1751fb946b05313400000000000000000000000000000000000000000000000000000000000001c00000000000000000000000000000000000000000000000000000000000000000000000000000000000000000000000000000000000000000000000000000000101000000000000000000000000000000000000000000000000000000000000000000000000000000000000000000000000000000000000000000000000000060000000000000000000000000000000000000000000000000000000000000001ce22d58e6f207382bc59a53f5a8ec23db1021b47b8239dbbe547343c321d10b344113e6c95219e3f6b2f803e0fb3eb9f9eea5931d512aca991e4b1e4223c6298d",
                    "decodedMethod": {
                        "callParams": [
                            {
                                "name": "sell",
                                "type": "((address,uint8,address,address,uint256,uint256,address,uint256,uint256,uint256,(uint16,address)[],uint256,bytes),uint8,bytes32,bytes32,bytes,uint8,uint256)",
                                "value": [
                                    {
                                        "name": "order",
                                        "type": "(address,uint8,address,address,uint256,uint256,address,uint256,uint256,uint256,(uint16,address)[],uint256,bytes)",
                                        "value": [
                                            {
                                                "name": "trader",
                                                "type": "address",
                                                "value": "0x762b34974ecdbcf8d9015125a48f7b4b6cbaa205"
                                            },
                                            {
                                                "name": "side",
                                                "type": "uint8",
                                                "value": "1"
                                            },
                                            {
                                                "name": "matchingPolicy",
                                                "type": "address",
                                                "value": "0x0000000000b92d5d043faf7cecf7e2ee6aaed232"
                                            },
                                            {
                                                "name": "collection",
                                                "type": "address",
                                                "value": "0xd774557b647330c91bf44cfeab205095f7e6c367"
                                            },
                                            {
                                                "name": "tokenId",
                                                "type": "uint256",
                                                "value": "5,967"
                                            },
                                            {
                                                "name": "amount",
                                                "type": "uint256",
                                                "value": "1"
                                            },
                                            {
                                                "name": "paymentToken",
                                                "type": "address",
                                                "value": "0x0000000000a39bb272e79075ade125fd351887ac"
                                            },
                                            {
                                                "name": "price",
                                                "type": "uint256",
                                                "value": "210,000,000,000,000,000"
                                            },
                                            {
                                                "name": "listingTime",
                                                "type": "uint256",
                                                "value": "1,688,404,129"
                                            },
                                            {
                                                "name": "expirationTime",
                                                "type": "uint256",
                                                "value": "1,688,427,567"
                                            },
                                            {
                                                "name": "fees",
                                                "type": "(uint16,address)[]",
                                                "value": [
                                                    [
                                                        {
                                                            "name": "rate",
                                                            "type": "uint16",
                                                            "value": "500"
                                                        },
                                                        {
                                                            "name": "recipient",
                                                            "type": "address",
                                                            "value": "0xfca634387cd89128116b80e04c6352a4e7c5a40c"
                                                        }
                                                    ]
                                                ]
                                            },
                                            {
                                                "name": "salt",
                                                "type": "uint256",
                                                "value": "274,250,805,581,741,689,541,928,904,619,966,993,862"
                                            },
                                            {
                                                "name": "extraParams",
                                                "type": "bytes",
                                                "value": "0x01"
                                            }
                                        ]
                                    },
                                    {
                                        "name": "v",
                                        "type": "uint8",
                                        "value": "0"
                                    },
                                    {
                                        "name": "r",
                                        "type": "bytes32",
                                        "value": "0x0000000000000000000000000000000000000000000000000000000000000000"
                                    },
                                    {
                                        "name": "s",
                                        "type": "bytes32",
                                        "value": "0x0000000000000000000000000000000000000000000000000000000000000000"
                                    },
                                    {
                                        "name": "extraSignature",
                                        "type": "bytes",
                                        "value": "0x000000000000000000000000000000000000000000000000000000000000001b5b0013a27a8687bcdf0088f82812bc1f4476fcca39c0885ec2dd31936e4c13c70a3f4564381dfd1d08d89ed696288d8e08fc8a78003d3493d5f2f1f65209fbde"
                                    },
                                    {
                                        "name": "signatureVersion",
                                        "type": "uint8",
                                        "value": "0"
                                    },
                                    {
                                        "name": "blockNumber",
                                        "type": "uint256",
                                        "value": "17,616,459"
                                    }
                                ]
                            },
                            {
                                "name": "buy",
                                "type": "((address,uint8,address,address,uint256,uint256,address,uint256,uint256,uint256,(uint16,address)[],uint256,bytes),uint8,bytes32,bytes32,bytes,uint8,uint256)",
                                "value": [
                                    {
                                        "name": "order",
                                        "type": "(address,uint8,address,address,uint256,uint256,address,uint256,uint256,uint256,(uint16,address)[],uint256,bytes)",
                                        "value": [
                                            {
                                                "name": "trader",
                                                "type": "address",
                                                "value": "0x5715bd43ae4b8fd0f7f45bf1a24e547d76eda6eb"
                                            },
                                            {
                                                "name": "side",
                                                "type": "uint8",
                                                "value": "0"
                                            },
                                            {
                                                "name": "matchingPolicy",
                                                "type": "address",
                                                "value": "0x0000000000b92d5d043faf7cecf7e2ee6aaed232"
                                            },
                                            {
                                                "name": "collection",
                                                "type": "address",
                                                "value": "0xd774557b647330c91bf44cfeab205095f7e6c367"
                                            },
                                            {
                                                "name": "tokenId",
                                                "type": "uint256",
                                                "value": "0"
                                            },
                                            {
                                                "name": "amount",
                                                "type": "uint256",
                                                "value": "1"
                                            },
                                            {
                                                "name": "paymentToken",
                                                "type": "address",
                                                "value": "0x0000000000a39bb272e79075ade125fd351887ac"
                                            },
                                            {
                                                "name": "price",
                                                "type": "uint256",
                                                "value": "210,000,000,000,000,000"
                                            },
                                            {
                                                "name": "listingTime",
                                                "type": "uint256",
                                                "value": "1,688,404,128"
                                            },
                                            {
                                                "name": "expirationTime",
                                                "type": "uint256",
                                                "value": "1,719,940,128"
                                            },
                                            {
                                                "name": "fees",
                                                "type": "(uint16,address)[]",
                                                "value": []
                                            },
                                            {
                                                "name": "salt",
                                                "type": "uint256",
                                                "value": "327,834,989,299,652,615,521,650,795,729,834,553,652"
                                            },
                                            {
                                                "name": "extraParams",
                                                "type": "bytes",
                                                "value": "0x01"
                                            }
                                        ]
                                    },
                                    {
                                        "name": "v",
                                        "type": "uint8",
                                        "value": "28"
                                    },
                                    {
                                        "name": "r",
                                        "type": "bytes32",
                                        "value": "0xe9f5718221f56ba91253bcec65830d2e861b85d65f8ae7bf4e063e4b362f757f"
                                    },
                                    {
                                        "name": "s",
                                        "type": "bytes32",
                                        "value": "0x1bc2c9aa7611a3c60ac4f1488040d79af281ddfee3494aaf687bc7d2ee73d730"
                                    },
                                    {
                                        "name": "extraSignature",
                                        "type": "bytes",
                                        "value": "0x000000000000000000000000000000000000000000000000000000000000001ce22d58e6f207382bc59a53f5a8ec23db1021b47b8239dbbe547343c321d10b344113e6c95219e3f6b2f803e0fb3eb9f9eea5931d512aca991e4b1e4223c6298d"
                                    },
                                    {
                                        "name": "signatureVersion",
                                        "type": "uint8",
                                        "value": "0"
                                    },
                                    {
                                        "name": "blockNumber",
                                        "type": "uint256",
                                        "value": "17,616,459"
                                    }
                                ]
                            }
                        ],
                        "constructorArguments": "",
                        "name": "execute",
                        "returnParams": [],
                        "signature": "execute(((address,uint8,address,address,uint256,uint256,address,uint256,uint256,uint256,(uint16,address)[],uint256,bytes),uint8,bytes32,bytes32,bytes,uint8,uint256),((address,uint8,address,address,uint256,uint256,address,uint256,uint256,uint256,(uint16,address)[],uint256,bytes),uint8,bytes32,bytes32,bytes,uint8,uint256))"
                    },
                    "errorInfo": "",
                    "fromAddress": "0x000000000000ad05ccc4f10045630fb830b95127",
                    "gasUsed": 277976,
                    "id": 1,
                    "methodDecoded": true,
                    "operation": "DELEGATECALL",
                    "output": "",
                    "revert": false,
                    "revertMessage": "",
                    "selector": "0x9a1fc3a7",
                    "status": true,
                    "value": "0"
                },
                "nodeType": 0
            },
            "10": {
                "invocation": {
                    "address": "0x0000000000a39bb272e79075ade125fd351887ac",
                    "callData": "0x0000000000000000000000005715bd43ae4b8fd0f7f45bf1a24e547d76eda6eb000000000000000000000000762b34974ecdbcf8d9015125a48f7b4b6cbaa20500000000000000000000000000000000000000000000000002c4c43168b0c000",
                    "decodedMethod": {
                        "callParams": [
                            {
                                "name": "from",
                                "type": "address",
                                "value": "0x5715bd43ae4b8fd0f7f45bf1a24e547d76eda6eb"
                            },
                            {
                                "name": "to",
                                "type": "address",
                                "value": "0x762b34974ecdbcf8d9015125a48f7b4b6cbaa205"
                            },
                            {
                                "decimalAvailable": true,
                                "name": "amount",
                                "type": "uint256",
                                "value": "199,500,000,000,000,000"
                            }
                        ],
                        "constructorArguments": "",
                        "name": "transferFrom",
                        "returnParams": [
                            {
                                "name": "",
                                "type": "bool",
                                "value": true
                            }
                        ],
                        "signature": "transferFrom(address,address,uint256)"
                    },
                    "errorInfo": "",
                    "fromAddress": "0x000000000000ad05ccc4f10045630fb830b95127",
                    "gasUsed": 8598,
                    "id": 10,
                    "methodDecoded": true,
                    "operation": "CALL",
                    "output": "0x0000000000000000000000000000000000000000000000000000000000000001",
                    "revert": false,
                    "revertMessage": "",
                    "selector": "0x23b872dd",
                    "status": true,
                    "value": "0"
                },
                "nodeType": 0
            },
            "11": {
                "invocation": {
                    "address": "0x02ab0463ca0c98de2d9b6649dcdb4ab667f12da7",
                    "callData": "0x0000000000000000000000005715bd43ae4b8fd0f7f45bf1a24e547d76eda6eb000000000000000000000000762b34974ecdbcf8d9015125a48f7b4b6cbaa20500000000000000000000000000000000000000000000000002c4c43168b0c000",
                    "decodedMethod": {
                        "callParams": [
                            {
                                "name": "from",
                                "type": "address",
                                "value": "0x5715bd43ae4b8fd0f7f45bf1a24e547d76eda6eb"
                            },
                            {
                                "name": "to",
                                "type": "address",
                                "value": "0x762b34974ecdbcf8d9015125a48f7b4b6cbaa205"
                            },
                            {
                                "decimalAvailable": true,
                                "name": "amount",
                                "type": "uint256",
                                "value": "199,500,000,000,000,000"
                            }
                        ],
                        "constructorArguments": "",
                        "name": "transferFrom",
                        "returnParams": [
                            {
                                "name": "",
                                "type": "bool",
                                "value": true
                            }
                        ],
                        "signature": "transferFrom(address,address,uint256)"
                    },
                    "errorInfo": "",
                    "fromAddress": "0x0000000000a39bb272e79075ade125fd351887ac",
                    "gasUsed": 8203,
                    "id": 11,
                    "methodDecoded": true,
                    "operation": "DELEGATECALL",
                    "output": "0x0000000000000000000000000000000000000000000000000000000000000001",
                    "revert": false,
                    "revertMessage": "",
                    "selector": "0x23b872dd",
                    "status": true,
                    "value": "0"
                },
                "nodeType": 0
            },
            "12": {
                "event": {
                    "contract": "0x0000000000a39bb272e79075ade125fd351887ac",
                    "decodedLog": {
                        "name": "Transfer",
                        "params": [
                            {
                                "name": "from",
                                "type": "address",
                                "value": "0x5715bd43ae4b8fd0f7f45bf1a24e547d76eda6eb"
                            },
                            {
                                "name": "to",
                                "type": "address",
                                "value": "0x762b34974ecdbcf8d9015125a48f7b4b6cbaa205"
                            },
                            {
                                "decimalAvailable": true,
                                "name": "value",
                                "type": "uint256",
                                "value": "199,500,000,000,000,000"
                            }
                        ],
                        "signature": "Transfer(address,address,uint256)"
                    },
                    "id": 12,
                    "logData": "0x00000000000000000000000000000000000000000000000002c4c43168b0c000",
                    "logDecoded": true,
                    "operation": "EVENT",
                    "revert": false,
                    "status": true,
                    "topics": [
                        "0xddf252ad1be2c89b69c2b068fc378daa952ba7f163c4a11628f55a4df523b3ef",
                        "0x0000000000000000000000005715bd43ae4b8fd0f7f45bf1a24e547d76eda6eb",
                        "0x000000000000000000000000762b34974ecdbcf8d9015125a48f7b4b6cbaa205"
                    ]
                },
                "nodeType": 1
            },
            "13": {
                "invocation": {
                    "address": "0x00000000000111abe46ff893f3b2fdf1f759a8a8",
                    "callData": "0x000000000000000000000000d774557b647330c91bf44cfeab205095f7e6c367000000000000000000000000762b34974ecdbcf8d9015125a48f7b4b6cbaa2050000000000000000000000005715bd43ae4b8fd0f7f45bf1a24e547d76eda6eb000000000000000000000000000000000000000000000000000000000000174f",
                    "decodedMethod": {
                        "callParams": [
                            {
                                "name": "collection",
                                "type": "address",
                                "value": "0xd774557b647330c91bf44cfeab205095f7e6c367"
                            },
                            {
                                "name": "from",
                                "type": "address",
                                "value": "0x762b34974ecdbcf8d9015125a48f7b4b6cbaa205"
                            },
                            {
                                "name": "to",
                                "type": "address",
                                "value": "0x5715bd43ae4b8fd0f7f45bf1a24e547d76eda6eb"
                            },
                            {
                                "name": "tokenId",
                                "type": "uint256",
                                "value": "5,967"
                            }
                        ],
                        "constructorArguments": "",
                        "name": "transferERC721",
                        "returnParams": [],
                        "signature": "transferERC721(address,address,address,uint256)"
                    },
                    "errorInfo": "",
                    "fromAddress": "0x000000000000ad05ccc4f10045630fb830b95127",
                    "gasUsed": 69187,
                    "id": 13,
                    "methodDecoded": true,
                    "operation": "CALL",
                    "output": "",
                    "revert": false,
                    "revertMessage": "",
                    "selector": "0x789f93f6",
                    "status": true,
                    "value": "0"
                },
                "nodeType": 0
            },
            "14": {
                "invocation": {
                    "address": "0xd774557b647330c91bf44cfeab205095f7e6c367",
                    "callData": "0x000000000000000000000000762b34974ecdbcf8d9015125a48f7b4b6cbaa2050000000000000000000000005715bd43ae4b8fd0f7f45bf1a24e547d76eda6eb000000000000000000000000000000000000000000000000000000000000174f",
                    "decodedMethod": {
                        "callParams": [
                            {
                                "name": "from",
                                "type": "address",
                                "value": "0x762b34974ecdbcf8d9015125a48f7b4b6cbaa205"
                            },
                            {
                                "name": "to",
                                "type": "address",
                                "value": "0x5715bd43ae4b8fd0f7f45bf1a24e547d76eda6eb"
                            },
                            {
                                "name": "tokenId",
                                "type": "uint256",
                                "value": "5,967"
                            }
                        ],
                        "constructorArguments": "",
                        "name": "safeTransferFrom",
                        "returnParams": [],
                        "signature": "safeTransferFrom(address,address,uint256)"
                    },
                    "errorInfo": "",
                    "fromAddress": "0x00000000000111abe46ff893f3b2fdf1f759a8a8",
                    "gasUsed": 61266,
                    "id": 14,
                    "methodDecoded": true,
                    "operation": "CALL",
                    "output": "",
                    "revert": false,
                    "revertMessage": "",
                    "selector": "0x42842e0e",
                    "status": true,
                    "value": "0"
                },
                "nodeType": 0
            },
            "15": {
                "invocation": {
                    "address": "0x000000000000aaeb6d7670e522a718067333cd4e",
                    "callData": "0x000000000000000000000000d774557b647330c91bf44cfeab205095f7e6c36700000000000000000000000000000000000111abe46ff893f3b2fdf1f759a8a8",
                    "decodedMethod": {
                        "callParams": [
                            {
                                "name": "registrant",
                                "type": "address",
                                "value": "0xd774557b647330c91bf44cfeab205095f7e6c367"
                            },
                            {
                                "name": "operator",
                                "type": "address",
                                "value": "0x00000000000111abe46ff893f3b2fdf1f759a8a8"
                            }
                        ],
                        "constructorArguments": "",
                        "name": "isOperatorAllowed",
                        "returnParams": [
                            {
                                "name": "",
                                "type": "bool",
                                "value": true
                            }
                        ],
                        "signature": "isOperatorAllowed(address,address)"
                    },
                    "errorInfo": "",
                    "fromAddress": "0xd774557b647330c91bf44cfeab205095f7e6c367",
                    "gasUsed": 7627,
                    "id": 15,
                    "methodDecoded": true,
                    "operation": "STATICCALL",
                    "output": "0x0000000000000000000000000000000000000000000000000000000000000001",
                    "revert": false,
                    "revertMessage": "",
                    "selector": "0xc6171134",
                    "status": true,
                    "value": "0"
                },
                "nodeType": 0
            },
            "16": {
                "invocation": {
                    "address": "0x000000000000aaeb6d7670e522a718067333cd4e",
                    "callData": "0x000000000000000000000000d774557b647330c91bf44cfeab205095f7e6c36700000000000000000000000000000000000111abe46ff893f3b2fdf1f759a8a8",
                    "decodedMethod": {
                        "callParams": [
                            {
                                "name": "registrant",
                                "type": "address",
                                "value": "0xd774557b647330c91bf44cfeab205095f7e6c367"
                            },
                            {
                                "name": "operator",
                                "type": "address",
                                "value": "0x00000000000111abe46ff893f3b2fdf1f759a8a8"
                            }
                        ],
                        "constructorArguments": "",
                        "name": "isOperatorAllowed",
                        "returnParams": [
                            {
                                "name": "",
                                "type": "bool",
                                "value": true
                            }
                        ],
                        "signature": "isOperatorAllowed(address,address)"
                    },
                    "errorInfo": "",
                    "fromAddress": "0xd774557b647330c91bf44cfeab205095f7e6c367",
                    "gasUsed": 1627,
                    "id": 16,
                    "methodDecoded": true,
                    "operation": "STATICCALL",
                    "output": "0x0000000000000000000000000000000000000000000000000000000000000001",
                    "revert": false,
                    "revertMessage": "",
                    "selector": "0xc6171134",
                    "status": true,
                    "value": "0"
                },
                "nodeType": 0
            },
            "17": {
                "invocation": {
                    "address": "0x000000000000aaeb6d7670e522a718067333cd4e",
                    "callData": "0x000000000000000000000000d774557b647330c91bf44cfeab205095f7e6c36700000000000000000000000000000000000111abe46ff893f3b2fdf1f759a8a8",
                    "decodedMethod": {
                        "callParams": [
                            {
                                "name": "registrant",
                                "type": "address",
                                "value": "0xd774557b647330c91bf44cfeab205095f7e6c367"
                            },
                            {
                                "name": "operator",
                                "type": "address",
                                "value": "0x00000000000111abe46ff893f3b2fdf1f759a8a8"
                            }
                        ],
                        "constructorArguments": "",
                        "name": "isOperatorAllowed",
                        "returnParams": [
                            {
                                "name": "",
                                "type": "bool",
                                "value": true
                            }
                        ],
                        "signature": "isOperatorAllowed(address,address)"
                    },
                    "errorInfo": "",
                    "fromAddress": "0xd774557b647330c91bf44cfeab205095f7e6c367",
                    "gasUsed": 1627,
                    "id": 17,
                    "methodDecoded": true,
                    "operation": "STATICCALL",
                    "output": "0x0000000000000000000000000000000000000000000000000000000000000001",
                    "revert": false,
                    "revertMessage": "",
                    "selector": "0xc6171134",
                    "status": true,
                    "value": "0"
                },
                "nodeType": 0
            },
            "18": {
                "event": {
                    "contract": "0xd774557b647330c91bf44cfeab205095f7e6c367",
                    "decodedLog": {
                        "name": "Transfer",
                        "params": [
                            {
                                "name": "from",
                                "type": "address",
                                "value": "0x762b34974ecdbcf8d9015125a48f7b4b6cbaa205"
                            },
                            {
                                "name": "to",
                                "type": "address",
                                "value": "0x5715bd43ae4b8fd0f7f45bf1a24e547d76eda6eb"
                            },
                            {
                                "decimalAvailable": true,
                                "name": "tokenId",
                                "type": "uint256",
                                "value": "5,967"
                            }
                        ],
                        "signature": "Transfer(address,address,uint256)"
                    },
                    "id": 18,
                    "logData": "0x",
                    "logDecoded": true,
                    "operation": "EVENT",
                    "revert": false,
                    "status": true,
                    "topics": [
                        "0xddf252ad1be2c89b69c2b068fc378daa952ba7f163c4a11628f55a4df523b3ef",
                        "0x000000000000000000000000762b34974ecdbcf8d9015125a48f7b4b6cbaa205",
                        "0x0000000000000000000000005715bd43ae4b8fd0f7f45bf1a24e547d76eda6eb",
                        "0x000000000000000000000000000000000000000000000000000000000000174f"
                    ]
                },
                "nodeType": 1
            },
            "19": {
                "event": {
                    "contract": "0x000000000000ad05ccc4f10045630fb830b95127",
                    "decodedLog": {
                        "name": "OrdersMatched",
                        "params": [
                            {
                                "name": "maker",
                                "type": "address",
                                "value": "0x5715bd43ae4b8fd0f7f45bf1a24e547d76eda6eb"
                            },
                            {
                                "name": "taker",
                                "type": "address",
                                "value": "0x762b34974ecdbcf8d9015125a48f7b4b6cbaa205"
                            },
                            {
                                "name": "sell",
                                "type": "(address,uint8,address,address,uint256,uint256,address,uint256,uint256,uint256,(uint16,address)[],uint256,bytes)",
                                "value": [
                                    {
                                        "name": "trader",
                                        "type": "address",
                                        "value": "0x762b34974ecdbcf8d9015125a48f7b4b6cbaa205"
                                    },
                                    {
                                        "name": "side",
                                        "type": "uint8",
                                        "value": "1"
                                    },
                                    {
                                        "name": "matchingPolicy",
                                        "type": "address",
                                        "value": "0x0000000000b92d5d043faf7cecf7e2ee6aaed232"
                                    },
                                    {
                                        "name": "collection",
                                        "type": "address",
                                        "value": "0xd774557b647330c91bf44cfeab205095f7e6c367"
                                    },
                                    {
                                        "name": "tokenId",
                                        "type": "uint256",
                                        "value": "5,967"
                                    },
                                    {
                                        "name": "amount",
                                        "type": "uint256",
                                        "value": "1"
                                    },
                                    {
                                        "name": "paymentToken",
                                        "type": "address",
                                        "value": "0x0000000000a39bb272e79075ade125fd351887ac"
                                    },
                                    {
                                        "name": "price",
                                        "type": "uint256",
                                        "value": "210,000,000,000,000,000"
                                    },
                                    {
                                        "name": "listingTime",
                                        "type": "uint256",
                                        "value": "1,688,404,129"
                                    },
                                    {
                                        "name": "expirationTime",
                                        "type": "uint256",
                                        "value": "1,688,427,567"
                                    },
                                    {
                                        "name": "fees",
                                        "type": "(uint16,address)[]",
                                        "value": [
                                            [
                                                {
                                                    "name": "rate",
                                                    "type": "uint16",
                                                    "value": "500"
                                                },
                                                {
                                                    "name": "recipient",
                                                    "type": "address",
                                                    "value": "0xfca634387cd89128116b80e04c6352a4e7c5a40c"
                                                }
                                            ]
                                        ]
                                    },
                                    {
                                        "name": "salt",
                                        "type": "uint256",
                                        "value": "274,250,805,581,741,689,541,928,904,619,966,993,862"
                                    },
                                    {
                                        "name": "extraParams",
                                        "type": "bytes",
                                        "value": "0x01"
                                    }
                                ]
                            },
                            {
                                "name": "sellHash",
                                "type": "bytes32",
                                "value": "0x57615892a681d7de4ef1b529a53f6a9d3de8075e45a04dc6c3ab4d705bdc09cc"
                            },
                            {
                                "name": "buy",
                                "type": "(address,uint8,address,address,uint256,uint256,address,uint256,uint256,uint256,(uint16,address)[],uint256,bytes)",
                                "value": [
                                    {
                                        "name": "trader",
                                        "type": "address",
                                        "value": "0x5715bd43ae4b8fd0f7f45bf1a24e547d76eda6eb"
                                    },
                                    {
                                        "name": "side",
                                        "type": "uint8",
                                        "value": "0"
                                    },
                                    {
                                        "name": "matchingPolicy",
                                        "type": "address",
                                        "value": "0x0000000000b92d5d043faf7cecf7e2ee6aaed232"
                                    },
                                    {
                                        "name": "collection",
                                        "type": "address",
                                        "value": "0xd774557b647330c91bf44cfeab205095f7e6c367"
                                    },
                                    {
                                        "name": "tokenId",
                                        "type": "uint256",
                                        "value": "0"
                                    },
                                    {
                                        "name": "amount",
                                        "type": "uint256",
                                        "value": "1"
                                    },
                                    {
                                        "name": "paymentToken",
                                        "type": "address",
                                        "value": "0x0000000000a39bb272e79075ade125fd351887ac"
                                    },
                                    {
                                        "name": "price",
                                        "type": "uint256",
                                        "value": "210,000,000,000,000,000"
                                    },
                                    {
                                        "name": "listingTime",
                                        "type": "uint256",
                                        "value": "1,688,404,128"
                                    },
                                    {
                                        "name": "expirationTime",
                                        "type": "uint256",
                                        "value": "1,719,940,128"
                                    },
                                    {
                                        "name": "fees",
                                        "type": "(uint16,address)[]",
                                        "value": []
                                    },
                                    {
                                        "name": "salt",
                                        "type": "uint256",
                                        "value": "327,834,989,299,652,615,521,650,795,729,834,553,652"
                                    },
                                    {
                                        "name": "extraParams",
                                        "type": "bytes",
                                        "value": "0x01"
                                    }
                                ]
                            },
                            {
                                "name": "buyHash",
                                "type": "bytes32",
                                "value": "0x4e26d93e501155fa78ecebdfdce18f8977966b6c50f9b2f902b7ec0319746232"
                            }
                        ],
                        "signature": "OrdersMatched(address,address,(address,uint8,address,address,uint256,uint256,address,uint256,uint256,uint256,(uint16,address)[],uint256,bytes),bytes32,(address,uint8,address,address,uint256,uint256,address,uint256,uint256,uint256,(uint16,address)[],uint256,bytes),bytes32)"
                    },
                    "id": 19,
                    "logData": "0x000000000000000000000000000000000000000000000000000000000000008057615892a681d7de4ef1b529a53f6a9d3de8075e45a04dc6c3ab4d705bdc09cc00000000000000000000000000000000000000000000000000000000000002c04e26d93e501155fa78ecebdfdce18f8977966b6c50f9b2f902b7ec0319746232000000000000000000000000762b34974ecdbcf8d9015125a48f7b4b6cbaa20500000000000000000000000000000000000000000000000000000000000000010000000000000000000000000000000000b92d5d043faf7cecf7e2ee6aaed232000000000000000000000000d774557b647330c91bf44cfeab205095f7e6c367000000000000000000000000000000000000000000000000000000000000174f00000000000000000000000000000000000000000000000000000000000000010000000000000000000000000000000000a39bb272e79075ade125fd351887ac00000000000000000000000000000000000000000000000002ea11e32ad500000000000000000000000000000000000000000000000000000000000064a300a10000000000000000000000000000000000000000000000000000000064a35c2f00000000000000000000000000000000000000000000000000000000000001a000000000000000000000000000000000ce52c8abfb1a646237d06b96474e15c60000000000000000000000000000000000000000000000000000000000000200000000000000000000000000000000000000000000000000000000000000000100000000000000000000000000000000000000000000000000000000000001f4000000000000000000000000fca634387cd89128116b80e04c6352a4e7c5a40c000000000000000000000000000000000000000000000000000000000000000101000000000000000000000000000000000000000000000000000000000000000000000000000000000000005715bd43ae4b8fd0f7f45bf1a24e547d76eda6eb00000000000000000000000000000000000000000000000000000000000000000000000000000000000000000000000000b92d5d043faf7cecf7e2ee6aaed232000000000000000000000000d774557b647330c91bf44cfeab205095f7e6c367000000000000000000000000000000000000000000000000000000000000000000000000000000000000000000000000000000000000000000000000000000010000000000000000000000000000000000a39bb272e79075ade125fd351887ac00000000000000000000000000000000000000000000000002ea11e32ad500000000000000000000000000000000000000000000000000000000000064a300a0000000000000000000000000000000000000000000000000000000006684342000000000000000000000000000000000000000000000000000000000000001a000000000000000000000000000000000f6a2b8e6c0b1ec7c1751fb946b05313400000000000000000000000000000000000000000000000000000000000001c0000000000000000000000000000000000000000000000000000000000000000000000000000000000000000000000000000000000000000000000000000000010100000000000000000000000000000000000000000000000000000000000000",
                    "logDecoded": true,
                    "operation": "EVENT",
                    "revert": false,
                    "status": true,
                    "topics": [
                        "0x61cbb2a3dee0b6064c2e681aadd61677fb4ef319f0b547508d495626f5a62f64",
                        "0x0000000000000000000000005715bd43ae4b8fd0f7f45bf1a24e547d76eda6eb",
                        "0x000000000000000000000000762b34974ecdbcf8d9015125a48f7b4b6cbaa205"
                    ]
                },
                "nodeType": 1
            },
            "2": {
                "invocation": {
                    "address": "0x0000000000000000000000000000000000000001",
                    "callData": "0x4df87fef6c333b5eb834e70b371027944e173a1206ca02d31f6b21c4000000000000000000000000000000000000000000000000000000000000001b5b0013a27a8687bcdf0088f82812bc1f4476fcca39c0885ec2dd31936e4c13c70a3f4564381dfd1d08d89ed696288d8e08fc8a78003d3493d5f2f1f65209fbde",
                    "decodedMethod": {
                        "callParams": [
                            {
                                "name": "hash",
                                "type": "bytes32",
                                "value": "0x639232854df87fef6c333b5eb834e70b371027944e173a1206ca02d31f6b21c4"
                            },
                            {
                                "name": "v",
                                "type": "uint256",
                                "value": "27"
                            },
                            {
                                "name": "r",
                                "type": "bytes32",
                                "value": "0x5b0013a27a8687bcdf0088f82812bc1f4476fcca39c0885ec2dd31936e4c13c7"
                            },
                            {
                                "name": "s",
                                "type": "bytes32",
                                "value": "0x0a3f4564381dfd1d08d89ed696288d8e08fc8a78003d3493d5f2f1f65209fbde"
                            }
                        ],
                        "constructorArguments": "",
                        "name": "ecrecover",
                        "returnParams": [
                            {
                                "name": "",
                                "type": "address",
                                "value": "0xd44feab097e5fee7fd54c9481f56b806f7f3ddc1"
                            }
                        ],
                        "signature": "ecrecover(bytes32,uint256,bytes32,bytes32)"
                    },
                    "errorInfo": "",
                    "fromAddress": "0x000000000000ad05ccc4f10045630fb830b95127",
                    "gasUsed": 3000,
                    "id": 2,
                    "methodDecoded": true,
                    "operation": "STATICCALL",
                    "output": "0x000000000000000000000000d44feab097e5fee7fd54c9481f56b806f7f3ddc1",
                    "revert": false,
                    "revertMessage": "",
                    "selector": "0x63923285",
                    "status": true,
                    "value": "0"
                },
                "nodeType": 0
            },
            "3": {
                "invocation": {
                    "address": "0x0000000000000000000000000000000000000001",
                    "callData": "0xe5de949686dcbdd866a8d15a4a67e64c6e2393b81e4bba383f6b28fd000000000000000000000000000000000000000000000000000000000000001ce22d58e6f207382bc59a53f5a8ec23db1021b47b8239dbbe547343c321d10b344113e6c95219e3f6b2f803e0fb3eb9f9eea5931d512aca991e4b1e4223c6298d",
                    "decodedMethod": {
                        "callParams": [
                            {
                                "name": "hash",
                                "type": "bytes32",
                                "value": "0x2561a455e5de949686dcbdd866a8d15a4a67e64c6e2393b81e4bba383f6b28fd"
                            },
                            {
                                "name": "v",
                                "type": "uint256",
                                "value": "28"
                            },
                            {
                                "name": "r",
                                "type": "bytes32",
                                "value": "0xe22d58e6f207382bc59a53f5a8ec23db1021b47b8239dbbe547343c321d10b34"
                            },
                            {
                                "name": "s",
                                "type": "bytes32",
                                "value": "0x4113e6c95219e3f6b2f803e0fb3eb9f9eea5931d512aca991e4b1e4223c6298d"
                            }
                        ],
                        "constructorArguments": "",
                        "name": "ecrecover",
                        "returnParams": [
                            {
                                "name": "",
                                "type": "address",
                                "value": "0xd44feab097e5fee7fd54c9481f56b806f7f3ddc1"
                            }
                        ],
                        "signature": "ecrecover(bytes32,uint256,bytes32,bytes32)"
                    },
                    "errorInfo": "",
                    "fromAddress": "0x000000000000ad05ccc4f10045630fb830b95127",
                    "gasUsed": 3000,
                    "id": 3,
                    "methodDecoded": true,
                    "operation": "STATICCALL",
                    "output": "0x000000000000000000000000d44feab097e5fee7fd54c9481f56b806f7f3ddc1",
                    "revert": false,
                    "revertMessage": "",
                    "selector": "0x2561a455",
                    "status": true,
                    "value": "0"
                },
                "nodeType": 0
            },
            "4": {
                "invocation": {
                    "address": "0x0000000000000000000000000000000000000001",
                    "callData": "0xf2b1f61998f505eaed941745c8b346006cc7e49470d4f6270f298583000000000000000000000000000000000000000000000000000000000000001ce9f5718221f56ba91253bcec65830d2e861b85d65f8ae7bf4e063e4b362f757f1bc2c9aa7611a3c60ac4f1488040d79af281ddfee3494aaf687bc7d2ee73d730",
                    "decodedMethod": {
                        "callParams": [
                            {
                                "name": "hash",
                                "type": "bytes32",
                                "value": "0xfe649a35f2b1f61998f505eaed941745c8b346006cc7e49470d4f6270f298583"
                            },
                            {
                                "name": "v",
                                "type": "uint256",
                                "value": "28"
                            },
                            {
                                "name": "r",
                                "type": "bytes32",
                                "value": "0xe9f5718221f56ba91253bcec65830d2e861b85d65f8ae7bf4e063e4b362f757f"
                            },
                            {
                                "name": "s",
                                "type": "bytes32",
                                "value": "0x1bc2c9aa7611a3c60ac4f1488040d79af281ddfee3494aaf687bc7d2ee73d730"
                            }
                        ],
                        "constructorArguments": "",
                        "name": "ecrecover",
                        "returnParams": [
                            {
                                "name": "",
                                "type": "address",
                                "value": "0x5715bd43ae4b8fd0f7f45bf1a24e547d76eda6eb"
                            }
                        ],
                        "signature": "ecrecover(bytes32,uint256,bytes32,bytes32)"
                    },
                    "errorInfo": "",
                    "fromAddress": "0x000000000000ad05ccc4f10045630fb830b95127",
                    "gasUsed": 3000,
                    "id": 4,
                    "methodDecoded": true,
                    "operation": "STATICCALL",
                    "output": "0x0000000000000000000000005715bd43ae4b8fd0f7f45bf1a24e547d76eda6eb",
                    "revert": false,
                    "revertMessage": "",
                    "selector": "0xfe649a35",
                    "status": true,
                    "value": "0"
                },
                "nodeType": 0
            },
            "5": {
                "invocation": {
                    "address": "0x3a35a3102b5c6bd1e4d3237248be071ef53c8331",
                    "callData": "0x0000000000000000000000000000000000b92d5d043faf7cecf7e2ee6aaed232",
                    "decodedMethod": {
                        "callParams": [
                            {
                                "name": "policy",
                                "type": "address",
                                "value": "0x0000000000b92d5d043faf7cecf7e2ee6aaed232"
                            }
                        ],
                        "constructorArguments": "",
                        "name": "isPolicyWhitelisted",
                        "returnParams": [
                            {
                                "name": "",
                                "type": "bool",
                                "value": true
                            }
                        ],
                        "signature": "isPolicyWhitelisted(address)"
                    },
                    "errorInfo": "",
                    "fromAddress": "0x000000000000ad05ccc4f10045630fb830b95127",
                    "gasUsed": 2666,
                    "id": 5,
                    "methodDecoded": true,
                    "operation": "STATICCALL",
                    "output": "0x0000000000000000000000000000000000000000000000000000000000000001",
                    "revert": false,
                    "revertMessage": "",
                    "selector": "0x874516cd",
                    "status": true,
                    "value": "0"
                },
                "nodeType": 0
            },
            "6": {
                "invocation": {
                    "address": "0x0000000000b92d5d043faf7cecf7e2ee6aaed232",
                    "callData": "0x000000000000000000000000000000000000000000000000000000000000004000000000000000000000000000000000000000000000000000000000000002400000000000000000000000005715bd43ae4b8fd0f7f45bf1a24e547d76eda6eb00000000000000000000000000000000000000000000000000000000000000000000000000000000000000000000000000b92d5d043faf7cecf7e2ee6aaed232000000000000000000000000d774557b647330c91bf44cfeab205095f7e6c367000000000000000000000000000000000000000000000000000000000000000000000000000000000000000000000000000000000000000000000000000000010000000000000000000000000000000000a39bb272e79075ade125fd351887ac00000000000000000000000000000000000000000000000002ea11e32ad500000000000000000000000000000000000000000000000000000000000064a300a0000000000000000000000000000000000000000000000000000000006684342000000000000000000000000000000000000000000000000000000000000001a000000000000000000000000000000000f6a2b8e6c0b1ec7c1751fb946b05313400000000000000000000000000000000000000000000000000000000000001c0000000000000000000000000000000000000000000000000000000000000000000000000000000000000000000000000000000000000000000000000000000010100000000000000000000000000000000000000000000000000000000000000000000000000000000000000762b34974ecdbcf8d9015125a48f7b4b6cbaa20500000000000000000000000000000000000000000000000000000000000000010000000000000000000000000000000000b92d5d043faf7cecf7e2ee6aaed232000000000000000000000000d774557b647330c91bf44cfeab205095f7e6c367000000000000000000000000000000000000000000000000000000000000174f00000000000000000000000000000000000000000000000000000000000000010000000000000000000000000000000000a39bb272e79075ade125fd351887ac00000000000000000000000000000000000000000000000002ea11e32ad500000000000000000000000000000000000000000000000000000000000064a300a10000000000000000000000000000000000000000000000000000000064a35c2f00000000000000000000000000000000000000000000000000000000000001a000000000000000000000000000000000ce52c8abfb1a646237d06b96474e15c60000000000000000000000000000000000000000000000000000000000000200000000000000000000000000000000000000000000000000000000000000000100000000000000000000000000000000000000000000000000000000000001f4000000000000000000000000fca634387cd89128116b80e04c6352a4e7c5a40c00000000000000000000000000000000000000000000000000000000000000010100000000000000000000000000000000000000000000000000000000000000",
                    "decodedMethod": {
                        "callParams": [
                            {
                                "name": "makerBid",
                                "type": "(address,uint8,address,address,uint256,uint256,address,uint256,uint256,uint256,(uint16,address)[],uint256,bytes)",
                                "value": [
                                    {
                                        "name": "trader",
                                        "type": "address",
                                        "value": "0x5715bd43ae4b8fd0f7f45bf1a24e547d76eda6eb"
                                    },
                                    {
                                        "name": "side",
                                        "type": "uint8",
                                        "value": "0"
                                    },
                                    {
                                        "name": "matchingPolicy",
                                        "type": "address",
                                        "value": "0x0000000000b92d5d043faf7cecf7e2ee6aaed232"
                                    },
                                    {
                                        "name": "collection",
                                        "type": "address",
                                        "value": "0xd774557b647330c91bf44cfeab205095f7e6c367"
                                    },
                                    {
                                        "name": "tokenId",
                                        "type": "uint256",
                                        "value": "0"
                                    },
                                    {
                                        "name": "amount",
                                        "type": "uint256",
                                        "value": "1"
                                    },
                                    {
                                        "name": "paymentToken",
                                        "type": "address",
                                        "value": "0x0000000000a39bb272e79075ade125fd351887ac"
                                    },
                                    {
                                        "name": "price",
                                        "type": "uint256",
                                        "value": "210,000,000,000,000,000"
                                    },
                                    {
                                        "name": "listingTime",
                                        "type": "uint256",
                                        "value": "1,688,404,128"
                                    },
                                    {
                                        "name": "expirationTime",
                                        "type": "uint256",
                                        "value": "1,719,940,128"
                                    },
                                    {
                                        "name": "fees",
                                        "type": "(uint16,address)[]",
                                        "value": []
                                    },
                                    {
                                        "name": "salt",
                                        "type": "uint256",
                                        "value": "327,834,989,299,652,615,521,650,795,729,834,553,652"
                                    },
                                    {
                                        "name": "extraParams",
                                        "type": "bytes",
                                        "value": "0x01"
                                    }
                                ]
                            },
                            {
                                "name": "takerAsk",
                                "type": "(address,uint8,address,address,uint256,uint256,address,uint256,uint256,uint256,(uint16,address)[],uint256,bytes)",
                                "value": [
                                    {
                                        "name": "trader",
                                        "type": "address",
                                        "value": "0x762b34974ecdbcf8d9015125a48f7b4b6cbaa205"
                                    },
                                    {
                                        "name": "side",
                                        "type": "uint8",
                                        "value": "1"
                                    },
                                    {
                                        "name": "matchingPolicy",
                                        "type": "address",
                                        "value": "0x0000000000b92d5d043faf7cecf7e2ee6aaed232"
                                    },
                                    {
                                        "name": "collection",
                                        "type": "address",
                                        "value": "0xd774557b647330c91bf44cfeab205095f7e6c367"
                                    },
                                    {
                                        "name": "tokenId",
                                        "type": "uint256",
                                        "value": "5,967"
                                    },
                                    {
                                        "name": "amount",
                                        "type": "uint256",
                                        "value": "1"
                                    },
                                    {
                                        "name": "paymentToken",
                                        "type": "address",
                                        "value": "0x0000000000a39bb272e79075ade125fd351887ac"
                                    },
                                    {
                                        "name": "price",
                                        "type": "uint256",
                                        "value": "210,000,000,000,000,000"
                                    },
                                    {
                                        "name": "listingTime",
                                        "type": "uint256",
                                        "value": "1,688,404,129"
                                    },
                                    {
                                        "name": "expirationTime",
                                        "type": "uint256",
                                        "value": "1,688,427,567"
                                    },
                                    {
                                        "name": "fees",
                                        "type": "(uint16,address)[]",
                                        "value": [
                                            [
                                                {
                                                    "name": "rate",
                                                    "type": "uint16",
                                                    "value": "500"
                                                },
                                                {
                                                    "name": "recipient",
                                                    "type": "address",
                                                    "value": "0xfca634387cd89128116b80e04c6352a4e7c5a40c"
                                                }
                                            ]
                                        ]
                                    },
                                    {
                                        "name": "salt",
                                        "type": "uint256",
                                        "value": "274,250,805,581,741,689,541,928,904,619,966,993,862"
                                    },
                                    {
                                        "name": "extraParams",
                                        "type": "bytes",
                                        "value": "0x01"
                                    }
                                ]
                            }
                        ],
                        "constructorArguments": "",
                        "name": "canMatchMakerBid",
                        "returnParams": [
                            {
                                "name": "",
                                "type": "bool",
                                "value": true
                            },
                            {
                                "name": "",
                                "type": "uint256",
                                "value": "210,000,000,000,000,000"
                            },
                            {
                                "name": "",
                                "type": "uint256",
                                "value": "5,967"
                            },
                            {
                                "name": "",
                                "type": "uint256",
                                "value": "1"
                            },
                            {
                                "name": "",
                                "type": "uint8",
                                "value": "0"
                            }
                        ],
                        "signature": "canMatchMakerBid((address,uint8,address,address,uint256,uint256,address,uint256,uint256,uint256,(uint16,address)[],uint256,bytes),(address,uint8,address,address,uint256,uint256,address,uint256,uint256,uint256,(uint16,address)[],uint256,bytes))"
                    },
                    "errorInfo": "",
                    "fromAddress": "0x000000000000ad05ccc4f10045630fb830b95127",
                    "gasUsed": 3170,
                    "id": 6,
                    "methodDecoded": true,
                    "operation": "STATICCALL",
                    "output": "0x000000000000000000000000000000000000000000000000000000000000000100000000000000000000000000000000000000000000000002ea11e32ad50000000000000000000000000000000000000000000000000000000000000000174f00000000000000000000000000000000000000000000000000000000000000010000000000000000000000000000000000000000000000000000000000000000",
                    "revert": false,
                    "revertMessage": "",
                    "selector": "0x0813a766",
                    "status": true,
                    "value": "0"
                },
                "nodeType": 0
            },
            "7": {
                "invocation": {
                    "address": "0x0000000000a39bb272e79075ade125fd351887ac",
                    "callData": "0x0000000000000000000000005715bd43ae4b8fd0f7f45bf1a24e547d76eda6eb000000000000000000000000fca634387cd89128116b80e04c6352a4e7c5a40c00000000000000000000000000000000000000000000000000254db1c2244000",
                    "decodedMethod": {
                        "callParams": [
                            {
                                "name": "from",
                                "type": "address",
                                "value": "0x5715bd43ae4b8fd0f7f45bf1a24e547d76eda6eb"
                            },
                            {
                                "name": "to",
                                "type": "address",
                                "value": "0xfca634387cd89128116b80e04c6352a4e7c5a40c"
                            },
                            {
                                "decimalAvailable": true,
                                "name": "amount",
                                "type": "uint256",
                                "value": "10,500,000,000,000,000"
                            }
                        ],
                        "constructorArguments": "",
                        "name": "transferFrom",
                        "returnParams": [
                            {
                                "name": "",
                                "type": "bool",
                                "value": true
                            }
                        ],
                        "signature": "transferFrom(address,address,uint256)"
                    },
                    "errorInfo": "",
                    "fromAddress": "0x000000000000ad05ccc4f10045630fb830b95127",
                    "gasUsed": 17898,
                    "id": 7,
                    "methodDecoded": true,
                    "operation": "CALL",
                    "output": "0x0000000000000000000000000000000000000000000000000000000000000001",
                    "revert": false,
                    "revertMessage": "",
                    "selector": "0x23b872dd",
                    "status": true,
                    "value": "0"
                },
                "nodeType": 0
            },
            "8": {
                "invocation": {
                    "address": "0x02ab0463ca0c98de2d9b6649dcdb4ab667f12da7",
                    "callData": "0x0000000000000000000000005715bd43ae4b8fd0f7f45bf1a24e547d76eda6eb000000000000000000000000fca634387cd89128116b80e04c6352a4e7c5a40c00000000000000000000000000000000000000000000000000254db1c2244000",
                    "decodedMethod": {
                        "callParams": [
                            {
                                "name": "from",
                                "type": "address",
                                "value": "0x5715bd43ae4b8fd0f7f45bf1a24e547d76eda6eb"
                            },
                            {
                                "name": "to",
                                "type": "address",
                                "value": "0xfca634387cd89128116b80e04c6352a4e7c5a40c"
                            },
                            {
                                "decimalAvailable": true,
                                "name": "amount",
                                "type": "uint256",
                                "value": "10,500,000,000,000,000"
                            }
                        ],
                        "constructorArguments": "",
                        "name": "transferFrom",
                        "returnParams": [
                            {
                                "name": "",
                                "type": "bool",
                                "value": true
                            }
                        ],
                        "signature": "transferFrom(address,address,uint256)"
                    },
                    "errorInfo": "",
                    "fromAddress": "0x0000000000a39bb272e79075ade125fd351887ac",
                    "gasUsed": 13003,
                    "id": 8,
                    "methodDecoded": true,
                    "operation": "DELEGATECALL",
                    "output": "0x0000000000000000000000000000000000000000000000000000000000000001",
                    "revert": false,
                    "revertMessage": "",
                    "selector": "0x23b872dd",
                    "status": true,
                    "value": "0"
                },
                "nodeType": 0
            },
            "9": {
                "event": {
                    "contract": "0x0000000000a39bb272e79075ade125fd351887ac",
                    "decodedLog": {
                        "name": "Transfer",
                        "params": [
                            {
                                "name": "from",
                                "type": "address",
                                "value": "0x5715bd43ae4b8fd0f7f45bf1a24e547d76eda6eb"
                            },
                            {
                                "name": "to",
                                "type": "address",
                                "value": "0xfca634387cd89128116b80e04c6352a4e7c5a40c"
                            },
                            {
                                "decimalAvailable": true,
                                "name": "value",
                                "type": "uint256",
                                "value": "10,500,000,000,000,000"
                            }
                        ],
                        "signature": "Transfer(address,address,uint256)"
                    },
                    "id": 9,
                    "logData": "0x00000000000000000000000000000000000000000000000000254db1c2244000",
                    "logDecoded": true,
                    "operation": "EVENT",
                    "revert": false,
                    "status": true,
                    "topics": [
                        "0xddf252ad1be2c89b69c2b068fc378daa952ba7f163c4a11628f55a4df523b3ef",
                        "0x0000000000000000000000005715bd43ae4b8fd0f7f45bf1a24e547d76eda6eb",
                        "0x000000000000000000000000fca634387cd89128116b80e04c6352a4e7c5a40c"
                    ]
                },
                "nodeType": 1
            }
        },
        "gasFlame": [
            {
                "children": [
                    {
                        "children": [
                            {
                                "children": [],
                                "depth": 0,
                                "name": "Initial Gas",
                                "value": 33864
                            },
                            {
                                "children": [
                                    {
                                        "children": [
                                            {
                                                "children": [],
                                                "depth": 2,
                                                "name": "ecrecover",
                                                "value": 3000
                                            },
                                            {
                                                "children": [],
                                                "depth": 2,
                                                "name": "ecrecover",
                                                "value": 3000
                                            },
                                            {
                                                "children": [],
                                                "depth": 2,
                                                "name": "ecrecover",
                                                "value": 3000
                                            },
                                            {
                                                "children": [],
                                                "depth": 2,
                                                "name": "isPolicyWhitelisted",
                                                "value": 2666
                                            },
                                            {
                                                "children": [],
                                                "depth": 2,
                                                "name": "canMatchMakerBid",
                                                "value": 3170
                                            },
                                            {
                                                "children": [
                                                    {
                                                        "children": [],
                                                        "depth": 3,
                                                        "name": "transferFrom",
                                                        "value": 13003
                                                    }
                                                ],
                                                "depth": 2,
                                                "name": "transferFrom",
                                                "value": 17898
                                            },
                                            {
                                                "children": [
                                                    {
                                                        "children": [],
                                                        "depth": 3,
                                                        "name": "transferFrom",
                                                        "value": 8203
                                                    }
                                                ],
                                                "depth": 2,
                                                "name": "transferFrom",
                                                "value": 8598
                                            },
                                            {
                                                "children": [
                                                    {
                                                        "children": [
                                                            {
                                                                "children": [],
                                                                "depth": 4,
                                                                "name": "isOperatorAllowed",
                                                                "value": 7627
                                                            },
                                                            {
                                                                "children": [],
                                                                "depth": 4,
                                                                "name": "isOperatorAllowed",
                                                                "value": 1627
                                                            },
                                                            {
                                                                "children": [],
                                                                "depth": 4,
                                                                "name": "isOperatorAllowed",
                                                                "value": 1627
                                                            }
                                                        ],
                                                        "depth": 3,
                                                        "name": "safeTransferFrom",
                                                        "value": 61266
                                                    }
                                                ],
                                                "depth": 2,
                                                "name": "transferERC721",
                                                "value": 69187
                                            }
                                        ],
                                        "depth": 1,
                                        "name": "execute",
                                        "value": 277976
                                    }
                                ],
                                "depth": 0,
                                "name": "Executed Gas",
                                "value": 283204
                            }
                        ],
                        "depth": -1,
                        "name": "Actual Gas Used",
                        "value": 272468
                    },
                    {
                        "children": [],
                        "depth": -1,
                        "name": "Refunded Gas",
                        "value": 44600
                    }
                ],
                "depth": -2,
                "name": "Total Gas",
                "value": 317068
            }
        ],
        "isConfirmed": true,
        "mainTrace": [
            {
                "children": [
                    {
                        "children": [
                            {
                                "children": [
                                    {
                                        "children": [],
                                        "depth": 2,
                                        "id": 2,
                                        "order": 2
                                    },
                                    {
                                        "children": [],
                                        "depth": 2,
                                        "id": 3,
                                        "order": 3
                                    },
                                    {
                                        "children": [],
                                        "depth": 2,
                                        "id": 4,
                                        "order": 4
                                    },
                                    {
                                        "children": [],
                                        "depth": 2,
                                        "id": 5,
                                        "order": 5
                                    },
                                    {
                                        "children": [],
                                        "depth": 2,
                                        "id": 6,
                                        "order": 6
                                    },
                                    {
                                        "children": [
                                            {
                                                "children": [
                                                    {
                                                        "children": [],
                                                        "depth": 4,
                                                        "id": 9,
                                                        "order": 9
                                                    }
                                                ],
                                                "depth": 3,
                                                "id": 8,
                                                "order": 8
                                            }
                                        ],
                                        "depth": 2,
                                        "id": 7,
                                        "order": 7
                                    },
                                    {
                                        "children": [
                                            {
                                                "children": [
                                                    {
                                                        "children": [],
                                                        "depth": 4,
                                                        "id": 12,
                                                        "order": 12
                                                    }
                                                ],
                                                "depth": 3,
                                                "id": 11,
                                                "order": 11
                                            }
                                        ],
                                        "depth": 2,
                                        "id": 10,
                                        "order": 10
                                    },
                                    {
                                        "children": [
                                            {
                                                "children": [
                                                    {
                                                        "children": [],
                                                        "depth": 4,
                                                        "id": 15,
                                                        "order": 15
                                                    },
                                                    {
                                                        "children": [],
                                                        "depth": 4,
                                                        "id": 16,
                                                        "order": 16
                                                    },
                                                    {
                                                        "children": [],
                                                        "depth": 4,
                                                        "id": 17,
                                                        "order": 17
                                                    },
                                                    {
                                                        "children": [],
                                                        "depth": 4,
                                                        "id": 18,
                                                        "order": 18
                                                    }
                                                ],
                                                "depth": 3,
                                                "id": 14,
                                                "order": 14
                                            }
                                        ],
                                        "depth": 2,
                                        "id": 13,
                                        "order": 13
                                    },
                                    {
                                        "children": [],
                                        "depth": 2,
                                        "id": 19,
                                        "order": 19
                                    }
                                ],
                                "depth": 1,
                                "id": 1,
                                "order": 1
                            }
                        ],
                        "depth": 0,
                        "id": 0,
                        "order": 0
                    }
                ],
                "depth": -1,
                "id": -1,
                "order": -1
            }
        ],
        "mainTraceNodeCount": 20,
        "parentIdMap": {
            "0": -1,
            "1": 0,
            "10": 1,
            "11": 10,
            "12": 11,
            "13": 1,
            "14": 13,
            "15": 14,
            "16": 14,
            "17": 14,
            "18": 14,
            "19": 1,
            "2": 1,
            "3": 1,
            "4": 1,
            "5": 1,
            "6": 1,
            "7": 1,
            "8": 7,
            "9": 8
        },
        "tidyTrace": [
            {
                "children": [
                    {
                        "children": [
                            {
                                "children": [
                                    {
                                        "children": [
                                            {
                                                "children": [
                                                    {
                                                        "children": [],
                                                        "depth": 4,
                                                        "id": 9,
                                                        "order": 9
                                                    }
                                                ],
                                                "depth": 3,
                                                "id": 8,
                                                "order": 8
                                            }
                                        ],
                                        "depth": 2,
                                        "id": 7,
                                        "order": 7
                                    },
                                    {
                                        "children": [
                                            {
                                                "children": [
                                                    {
                                                        "children": [],
                                                        "depth": 4,
                                                        "id": 12,
                                                        "order": 12
                                                    }
                                                ],
                                                "depth": 3,
                                                "id": 11,
                                                "order": 11
                                            }
                                        ],
                                        "depth": 2,
                                        "id": 10,
                                        "order": 10
                                    },
                                    {
                                        "children": [
                                            {
                                                "children": [
                                                    {
                                                        "children": [],
                                                        "depth": 4,
                                                        "id": 18,
                                                        "order": 18
                                                    }
                                                ],
                                                "depth": 3,
                                                "id": 14,
                                                "order": 14
                                            }
                                        ],
                                        "depth": 2,
                                        "id": 13,
                                        "order": 13
                                    },
                                    {
                                        "children": [],
                                        "depth": 2,
                                        "id": 19,
                                        "order": 19
                                    }
                                ],
                                "depth": 1,
                                "id": 1,
                                "order": 1
                            }
                        ],
                        "depth": 0,
                        "id": 0,
                        "order": 0
                    }
                ],
                "depth": -1,
                "id": -1,
                "order": -1
            }
        ],
        "tidyTraceNodeCount": 12
    },
    "state_change": {
        "stateChanges": [
            {
                "address": "0x000000000000ad05ccc4f10045630fb830b95127",
                "erc": "",
                "slots": [
                    {
                        "current": "0x0000000000000000000000000000000000000000000000000000000000000001",
                        "key": "0x0a3593c81c0ff2d755b5e88af42b64ffc57f643c3b1c8bd8b725e877799140d9",
                        "prev": "0x0000000000000000000000000000000000000000000000000000000000000000"
                    },
                    {
                        "current": "0x0000000000000000000000000000000000000000000000000000000000000001",
                        "key": "0xd9398cf826d745d624f8148e8c99b64ddb2305173ca54d9622120571d57cf85e",
                        "prev": "0x0000000000000000000000000000000000000000000000000000000000000000"
                    }
                ],
                "storageVariables": [
                    {
                        "name": "cancelledOrFilled",
                        "type": "mapping(bytes32 => bool)",
                        "value": {
                            "pairs": [
                                {
                                    "key": "0x4e26d93e501155fa78ecebdfdce18f8977966b6c50f9b2f902b7ec0319746232",
                                    "value": {
                                        "current": "true",
                                        "prev": "false",
                                        "typeTag": 1
                                    }
                                },
                                {
                                    "key": "0x57615892a681d7de4ef1b529a53f6a9d3de8075e45a04dc6c3ab4d705bdc09cc",
                                    "value": {
                                        "current": "true",
                                        "prev": "false",
                                        "typeTag": 1
                                    }
                                }
                            ],
                            "typeTag": 4
                        }
                    }
                ]
            },
            {
                "address": "0x0000000000a39bb272e79075ade125fd351887ac",
                "erc": "",
                "slots": [
                    {
                        "current": "0x00000000000000000000000000000000000000000000000000a5e9670f02c000",
                        "key": "0x0fd45f5d0e1f3ba376a91bbfa8b47be0f65173adcb364139b1c6f9b40ad524f2",
                        "prev": "0x000000000000000000000000000000000000000000000000038ffb4a39d7c000"
                    },
                    {
                        "current": "0x000000000000000000000000000000000000000000000000124e6b8e59aa6000",
                        "key": "0xd530674a581e27a6c1ee95ccecde2d1a51044e1ecb40c8d1588df31d81496f51",
                        "prev": "0x00000000000000000000000000000000000000000000000012291ddc97862000"
                    },
                    {
                        "current": "0x00000000000000000000000000000000000000000000000002d710173948a000",
                        "key": "0xca89e03a4a92b3ccf1a5b25043e182aedae9e6481fd3ed2cb6418ddeb397a354",
                        "prev": "0x00000000000000000000000000000000000000000000000000124be5d097e000"
                    }
                ],
                "storageVariables": [
                    {
                        "name": "_balances",
                        "type": "mapping(address => uint256)",
                        "value": {
                            "pairs": [
                                {
                                    "key": "0x5715bd43ae4b8fd0f7f45bf1a24e547d76eda6eb",
                                    "value": {
                                        "current": "46700000000000000",
                                        "prev": "256700000000000000",
                                        "typeTag": 1
                                    }
                                },
                                {
                                    "key": "0x762b34974ecdbcf8d9015125a48f7b4b6cbaa205",
                                    "value": {
                                        "current": "204650000000000000",
                                        "prev": "5150000000000000",
                                        "typeTag": 1
                                    }
                                },
                                {
                                    "key": "0xfca634387cd89128116b80e04c6352a4e7c5a40c",
                                    "value": {
                                        "current": "1319110000000000000",
                                        "prev": "1308610000000000000",
                                        "typeTag": 1
                                    }
                                }
                            ],
                            "typeTag": 4
                        }
                    }
                ]
            },
            {
                "address": "0xd774557b647330c91bf44cfeab205095f7e6c367",
                "erc": "ERC-721",
                "slots": [
                    {
                        "current": "0x0000000000000000000000000000000000000000000000000000000000000000",
                        "key": "0xf817412e6728866ad5395de34bbea006b044a2bd9f89435ee3f7e18abc337156",
                        "prev": "0x0000000000000000000000000000000000000000000000000000000000000001"
                    },
                    {
                        "current": "0x0000000000000000000000000000000000000000000000000000000000000001",
                        "key": "0xcb4d3274765fd5dd0438cd5727c0113c0050e2f0acb09961a64cdf66f6025776",
                        "prev": "0x0000000000000000000000000000000000000000000000000000000000000000"
                    },
                    {
                        "current": "0x000000020000000064a34e3f5715bd43ae4b8fd0f7f45bf1a24e547d76eda6eb",
                        "key": "0x33b318a1d0797e8d5511faa6af1b5bc4e812df1b27831ddb2348176a9f531f45",
                        "prev": "0x0000000200000000642b61ef762b34974ecdbcf8d9015125a48f7b4b6cbaa205"
                    }
                ],
                "storageVariables": [
                    {
                        "name": "_packedAddressData",
                        "type": "mapping(address => uint256)",
                        "value": {
                            "pairs": [
                                {
                                    "key": "0x5715bd43ae4b8fd0f7f45bf1a24e547d76eda6eb",
                                    "value": {
                                        "current": "1",
                                        "prev": "0",
                                        "typeTag": 1
                                    }
                                },
                                {
                                    "key": "0x762b34974ecdbcf8d9015125a48f7b4b6cbaa205",
                                    "value": {
                                        "current": "0",
                                        "prev": "1",
                                        "typeTag": 1
                                    }
                                }
                            ],
                            "typeTag": 4
                        }
                    },
                    {
                        "name": "_packedOwnerships",
                        "type": "mapping(uint256 => uint256)",
                        "value": {
                            "pairs": [
                                {
                                    "key": "5967",
                                    "value": {
                                        "current": "53919893336768914028878487965436977667620245293591488692350515783403",
                                        "prev": "53919893336757427678467703371113520707517794352676979248139714863621",
                                        "typeTag": 1
                                    }
                                }
                            ],
                            "typeTag": 4
                        }
                    }
                ]
            }
        ]
    }
}