{
    "balance_change": {
        "balanceChanges": [
            {
                "account": "0x3b4e07baf31fd6f537d0c1e88de90283cbd204f0",
                "assets": [
                    {
                        "address": "0xc944e90c64b2c07662a292be6244bdf05cda44a7",
                        "amount": "201.45206346",
                        "iconUrl": "https://assets.blocksec.com/icon/f8d36a72b2f5ed286a641364c0a576b61e392b2ace737ab68c9d1e3079cd173b.png",
                        "isERC1155": false,
                        "isERC721": false,
                        "sign": false,
                        "value": ""
                    }
                ]
            },
            {
                "account": "0x6262998ced04146fa42253a5c0af90ca02dfd2a3",
                "assets": [
                    {
                        "address": "0xc944e90c64b2c07662a292be6244bdf05cda44a7",
                        "amount": "201.45206346",
                        "iconUrl": "https://assets.blocksec.com/icon/f8d36a72b2f5ed286a641364c0a576b61e392b2ace737ab68c9d1e3079cd173b.png",
                        "isERC1155": false,
                        "isERC721": false,
                        "sign": true,
                        "value": ""
                    }
                ]
            }
        ]
    },
    "profile": {
        "basic_info": {
            "baseFee": "",
            "blockNumber": 11965489,
            "callData": "0xa9059cbb0000000000000000000000006262998ced04146fa42253a5c0af90ca02dfd2a300000000000000000000000000000000000000000000000aebb58060cabfe800",
            "debugEnable": true,
            "errorInfo": "",
            "eventCount": 1,
            "feeRecipient": "0xea674fdde714fd979de3edf0f56aa9716b898ec8",
            "formatValue": "0",
            "gasLimit": 54231,
            "gasPrice": "85.6",
            "gasUsed": 21154,
            "intTxnCount": 0,
            "internalRevert": false,
            "internalRevertMessage": "",
            "isContractCreation": false,
            "isFlashloan": false,
            "maxFee": "",
            "nonce": 1,
            "overwritedBlockNumber": -1,
            "priorityFee": "",
            "receiver": "0xc944e90c64b2c07662a292be6244bdf05cda44a7",
            "revertMessage": "",
            "sender": "0x3b4e07baf31fd6f537d0c1e88de90283cbd204f0",
            "simulationEnable": true,
            "sourceTxnHash": "0x9466a152fae970750c61729b7a36d5be67c5e6d5e60b228a548af6bd8ee6a5d7",
            "status": true,
            "timestamp": "2021-03-03T13:12:29Z",
            "transactionFee": "0.0018107824",
            "txnHash": "0x9466a152fae970750c61729b7a36d5be67c5e6d5e60b228a548af6bd8ee6a5d7",
            "txnIndex": 111,
            "type": 0,
            "value": "0"
        },
        "fund_flow": [
            {
                "amount": "201.45206346",
                "from": "0x3b4e07baf31fd6f537d0c1e88de90283cbd204f0",
                "id": 1,
                "isERC1155": false,
                "isERC721": false,
                "isReverted": false,
                "order": 1,
                "to": "0x6262998ced04146fa42253a5c0af90ca02dfd2a3",
                "token": "0xc944e90c64b2c07662a292be6244bdf05cda44a7"
            }
        ],
        "token_infos": [
            {
                "address": "0xc02aaa39b223fe8d0a0e5c4f27ead9083c756cc2",
                "decimals": 18
            },
            {
                "address": "0xc944e90c64b2c07662a292be6244bdf05cda44a7",
                "decimals": 18
            },
            {
                "address": "0xeeeeeeeeeeeeeeeeeeeeeeeeeeeeeeeeeeeeeeee",
                "decimals": 18
            }
        ]
    },
    "address_label": {
        "labels": [
            {
                "address": "0x6262998ced04146fa42253a5c0af90ca02dfd2a3",
                "label": "Crypto.com"
            },
            {
                "address": "0x3b4e07baf31fd6f537d0c1e88de90283cbd204f0",
                "label": "CRYPTO.COM"
            },
            {
                "address": "0x0000000000000000000000000000000000000001",
                "label": "Precompiled"
            },
            {
                "address": "0x0000000000000000000000000000000000000002",
                "label": "Precompiled"
            },
            {
                "address": "0x0000000000000000000000000000000000000003",
                "label": "Precompiled"
            },
            {
                "address": "0x0000000000000000000000000000000000000004",
                "label": "Precompiled"
            },
            {
                "address": "0xeeeeeeeeeeeeeeeeeeeeeeeeeeeeeeeeeeeeeeee",
                "label": "Ether"
            },
            {
                "address": "0xc944e90c64b2c07662a292be6244bdf05cda44a7",
                "label": "The Graph: GRT Token"
            }
        ]
    },
    "trace": {
        "accountLabels": null,
        "dataMap": {
            "-1": {
                "invocation": {
                    "address": "0x3b4e07baf31fd6f537d0c1e88de90283cbd204f0",
                    "callData": "",
                    "decodedMethod": null,
                    "errorInfo": "",
                    "fromAddress": "",
                    "gasUsed": 0,
                    "id": -1,
                    "methodDecoded": false,
                    "operation": "",
                    "output": "",
                    "revert": false,
                    "revertMessage": "",
                    "selector": "",
                    "status": false,
                    "value": ""
                },
                "nodeType": 0
            },
            "0": {
                "invocation": {
                    "address": "0xc944e90c64b2c07662a292be6244bdf05cda44a7",
                    "callData": "0x0000000000000000000000006262998ced04146fa42253a5c0af90ca02dfd2a300000000000000000000000000000000000000000000000aebb58060cabfe800",
                    "decodedMethod": {
                        "callParams": [
                            {
                                "name": "recipient",
                                "type": "address",
                                "value": "0x6262998ced04146fa42253a5c0af90ca02dfd2a3"
                            },
                            {
                                "decimalAvailable": true,
                                "name": "amount",
                                "type": "uint256",
                                "value": "201,452,063,460,000,000,000"
                            }
                        ],
                        "constructorArguments": "",
                        "name": "transfer",
                        "returnParams": [
                            {
                                "name": "",
                                "type": "bool",
                                "value": true
                            }
                        ],
                        "signature": "transfer(address,uint256)"
                    },
                    "errorInfo": "",
                    "fromAddress": "0x3b4e07baf31fd6f537d0c1e88de90283cbd204f0",
                    "gasUsed": 21154,
                    "id": 0,
                    "methodDecoded": true,
                    "operation": "CALL",
                    "output": "0x0000000000000000000000000000000000000000000000000000000000000001",
                    "revert": false,
                    "revertMessage": "",
                    "selector": "0xa9059cbb",
                    "status": true,
                    "value": "0"
                },
                "nodeType": 0
            },
            "1": {
                "event": {
                    "contract": "0xc944e90c64b2c07662a292be6244bdf05cda44a7",
                    "decodedLog": {
                        "name": "Transfer",
                        "params": [
                            {
                                "name": "from",
                                "type": "address",
                                "value": "0x3b4e07baf31fd6f537d0c1e88de90283cbd204f0"
                            },
                            {
                                "name": "to",
                                "type": "address",
                                "value": "0x6262998ced04146fa42253a5c0af90ca02dfd2a3"
                            },
                            {
                                "decimalAvailable": true,
                                "name": "value",
                                "type": "uint256",
                                "value": "201,452,063,460,000,000,000"
                            }
                        ],
                        "signature": "Transfer(address,address,uint256)"
                    },
                    "id": 1,
                    "logData": "0x00000000000000000000000000000000000000000000000aebb58060cabfe800",
                    "logDecoded": true,
                    "operation": "EVENT",
                    "revert": false,
                    "status": true,
                    "topics": [
                        "0xddf252ad1be2c89b69c2b068fc378daa952ba7f163c4a11628f55a4df523b3ef",
                        "0x0000000000000000000000003b4e07baf31fd6f537d0c1e88de90283cbd204f0",
                        "0x0000000000000000000000006262998ced04146fa42253a5c0af90ca02dfd2a3"
                    ]
                },
                "nodeType": 1
            }
        },
        "gasFlame": [
            {
                "children": [
                    {
                        "children": [
                            {
                                "children": [],
                                "depth": 0,
                                "name": "Initial Gas",
                                "value": 21656
                            },
                            {
                                "children": [],
                                "depth": 0,
                                "name": "Executed Gas",
                                "value": 14498
                            }
                        ],
                        "depth": -1,
                        "name": "Actual Gas Used",
                        "value": 21154
                    },
                    {
                        "children": [],
                        "depth": -1,
                        "name": "Refunded Gas",
                        "value": 15000
                    }
                ],
                "depth": -2,
                "name": "Total Gas",
                "value": 36154
            }
        ],
        "isConfirmed": true,
        "mainTrace": [
            {
                "children": [
                    {
                        "children": [
                            {
                                "children": [],
                                "depth": 1,
                                "id": 1,
                                "order": 1
                            }
                        ],
                        "depth": 0,
                        "id": 0,
                        "order": 0
                    }
                ],
                "depth": -1,
                "id": -1,
                "order": -1
            }
        ],
        "mainTraceNodeCount": 2,
        "parentIdMap": {
            "0": -1,
            "1": 0
        },
        "tidyTrace": [
            {
                "children": [
                    {
                        "children": [
                            {
                                "children": [],
                                "depth": 1,
                                "id": 1,
                                "order": 1
                            }
                        ],
                        "depth": 0,
                        "id": 0,
                        "order": 0
                    }
                ],
                "depth": -1,
                "id": -1,
                "order": -1
            }
        ],
        "tidyTraceNodeCount": 2
    },
    "state_change": {
        "stateChanges": [
            {
                "address": "0xc944e90c64b2c07662a292be6244bdf05cda44a7",
                "erc": "ERC-20",
                "slots": [
                    {
                        "current": "0x0000000000000000000000000000000000000000000000000000000000000000",
                        "key": "0x7f0a3d192e0c81da8fa972b0885c942f6e5a57217e1c71c27b625f398253bcf0",
                        "prev": "0x00000000000000000000000000000000000000000000000aebb58060cabfe800"
                    },
                    {
                        "current": "0x0000000000000000000000000000000000000000000389afaa7680780e89d873",
                        "key": "0xfbfcf6d95e3a696dfb143b2042812d8bda7111a81f706d4a2550842707f334c0",
                        "prev": "0x0000000000000000000000000000000000000000000389a4bec1001743c9f073"
                    }
                ],
                "storageVariables": [
                    {
                        "name": "_balances",
                        "type": "mapping(address => uint256)",
                        "value": {
                            "pairs": [
                                {
                                    "key": "0x3b4e07baf31fd6f537d0c1e88de90283cbd204f0",
                                    "value": {
                                        "current": "0",
                                        "prev": "201452063460000000000",
                                        "typeTag": 1
                                    }
                                },
                                {
                                    "key": "0x6262998ced04146fa42253a5c0af90ca02dfd2a3",
                                    "value": {
                                        "current": "4276982130356214917879923",
                                        "prev": "4276780678292754917879923",
                                        "typeTag": 1
                                    }
                                }
                            ],
                            "typeTag": 4
                        }
                    }
                ]
            }
        ]
    }
}