{
    "balance_change": {
        "balanceChanges": [
            {
                "account": "0xfbb1b73c4f0bda4f67dca266ce6ef42f520fbb98",
                "assets": [
                    {
                        "address": "0x6531f133e6deebe7f2dce5a0441aa7ef330b4e53",
                        "amount": "10.16707687",
                        "iconUrl": "",
                        "isERC1155": false,
                        "isERC721": false,
                        "sign": true,
                        "value": ""
                    }
                ]
            },
            {
                "account": "0x737168316968bd2494521def49405b1641e481c1",
                "assets": [
                    {
                        "address": "0x6531f133e6deebe7f2dce5a0441aa7ef330b4e53",
                        "amount": "10.16707687",
                        "iconUrl": "",
                        "isERC1155": false,
                        "isERC721": false,
                        "sign": false,
                        "value": ""
                    }
                ]
            }
        ]
    },
    "profile": {
        "basic_info": {
            "baseFee": "",
            "blockNumber": 3417228,
            "callData": "0x23b872dd000000000000000000000000737168316968bd2494521def49405b1641e481c1000000000000000000000000fbb1b73c4f0bda4f67dca266ce6ef42f520fbb98000000000000000000000000000000000000000000000000000000003c99ba67",
            "debugEnable": true,
            "errorInfo": "",
            "eventCount": 2,
            "feeRecipient": "0xea674fdde714fd979de3edf0f56aa9716b898ec8",
            "formatValue": "0",
            "gasLimit": 207819,
            "gasPrice": "20",
            "gasUsed": 57819,
            "intTxnCount": 7,
            "internalRevert": false,
            "internalRevertMessage": "",
            "isContractCreation": false,
            "isFlashloan": false,
            "maxFee": "",
            "nonce": 73687,
            "overwritedBlockNumber": -1,
            "priorityFee": "",
            "receiver": "0x6531f133e6deebe7f2dce5a0441aa7ef330b4e53",
            "revertMessage": "",
            "sender": "0xfbb1b73c4f0bda4f67dca266ce6ef42f520fbb98",
            "simulationEnable": true,
            "sourceTxnHash": "0x9596c7d375d6fa9f35195ab68038b6f73b6181f819dd5a13c718643ee88ca56e",
            "status": true,
            "timestamp": "2017-03-25T17:42:06Z",
            "transactionFee": "0.00115638",
            "txnHash": "0x9596c7d375d6fa9f35195ab68038b6f73b6181f819dd5a13c718643ee88ca56e",
            "txnIndex": 13,
            "type": 0,
            "value": "0"
        },
        "fund_flow": [
            {
                "amount": "10.16707687",
                "from": "0x737168316968bd2494521def49405b1641e481c1",
                "id": 1,
                "isERC1155": false,
                "isERC721": false,
                "isReverted": false,
                "order": 1,
                "to": "0xfbb1b73c4f0bda4f67dca266ce6ef42f520fbb98",
                "token": "0x6531f133e6deebe7f2dce5a0441aa7ef330b4e53"
            }
        ],
        "token_infos": [
            {
                "address": "0xc02aaa39b223fe8d0a0e5c4f27ead9083c756cc2",
                "decimals": 18
            },
            {
                "address": "0xeeeeeeeeeeeeeeeeeeeeeeeeeeeeeeeeeeeeeeee",
                "decimals": 18
            },
            {
                "address": "0x6531f133e6deebe7f2dce5a0441aa7ef330b4e53",
                "decimals": 8
            }
        ]
    },
    "address_label": {
        "labels": [
            {
                "address": "0x0000000000000000000000000000000000000002",
                "label": "Precompiled"
            },
            {
                "address": "0x0000000000000000000000000000000000000004",
                "label": "Precompiled"
            },
            {
                "address": "0x6531f133e6deebe7f2dce5a0441aa7ef330b4e53",
                "label": "Time Token"
            },
            {
                "address": "0x737168316968bd2494521def49405b1641e481c1",
                "label": "BITTREX"
            },
            {
                "address": "0xc7c5d612536d167627b217d08b9ff05da1db75f7",
                "label": "ChronoBankAsset"
            },
            {
                "address": "0xc7edc4d1e16738a65c5ca144cda666d5145a29f3",
                "label": "ChronoBankPlatform"
            },
            {
                "address": "0x0000000000000000000000000000000000000001",
                "label": "Precompiled"
            },
            {
                "address": "0x0000000000000000000000000000000000000003",
                "label": "Precompiled"
            },
            {
                "address": "0xeeeeeeeeeeeeeeeeeeeeeeeeeeeeeeeeeeeeeeee",
                "label": "Ether"
            },
            {
                "address": "0xfbb1b73c4f0bda4f67dca266ce6ef42f520fbb98",
                "label": "Bittrex"
            }
        ]
    },
    "trace": {
        "accountLabels": null,
        "dataMap": {
            "-1": {
                "invocation": {
                    "address": "0xfbb1b73c4f0bda4f67dca266ce6ef42f520fbb98",
                    "callData": "",
                    "decodedMethod": null,
                    "errorInfo": "",
                    "fromAddress": "",
                    "gasUsed": 0,
                    "id": -1,
                    "methodDecoded": false,
                    "operation": "",
                    "output": "",
                    "revert": false,
                    "revertMessage": "",
                    "selector": "",
                    "status": false,
                    "value": ""
                },
                "nodeType": 0
            },
            "0": {
                "invocation": {
                    "address": "0x6531f133e6deebe7f2dce5a0441aa7ef330b4e53",
                    "callData": "0x000000000000000000000000737168316968bd2494521def49405b1641e481c1000000000000000000000000fbb1b73c4f0bda4f67dca266ce6ef42f520fbb98000000000000000000000000000000000000000000000000000000003c99ba67",
                    "decodedMethod": {
                        "callParams": [
                            {
                                "name": "_from",
                                "type": "address",
                                "value": "0x737168316968bd2494521def49405b1641e481c1"
                            },
                            {
                                "name": "_to",
                                "type": "address",
                                "value": "0xfbb1b73c4f0bda4f67dca266ce6ef42f520fbb98"
                            },
                            {
                                "decimalAvailable": true,
                                "name": "_value",
                                "type": "uint256",
                                "value": "1,016,707,687"
                            }
                        ],
                        "constructorArguments": "",
                        "name": "transferFrom",
                        "returnParams": [
                            {
                                "name": "",
                                "type": "bool",
                                "value": true
                            }
                        ],
                        "signature": "transferFrom(address,address,uint256)"
                    },
                    "errorInfo": "",
                    "fromAddress": "0xfbb1b73c4f0bda4f67dca266ce6ef42f520fbb98",
                    "gasUsed": 57819,
                    "id": 0,
                    "methodDecoded": true,
                    "operation": "CALL",
                    "output": "0x0000000000000000000000000000000000000000000000000000000000000001",
                    "revert": false,
                    "revertMessage": "",
                    "selector": "0x23b872dd",
                    "status": true,
                    "value": "0"
                },
                "nodeType": 0
            },
            "1": {
                "invocation": {
                    "address": "0xc7c5d612536d167627b217d08b9ff05da1db75f7",
                    "callData": "0x000000000000000000000000737168316968bd2494521def49405b1641e481c1000000000000000000000000fbb1b73c4f0bda4f67dca266ce6ef42f520fbb98000000000000000000000000000000000000000000000000000000003c99ba6700000000000000000000000000000000000000000000000000000000000000a0000000000000000000000000fbb1b73c4f0bda4f67dca266ce6ef42f520fbb980000000000000000000000000000000000000000000000000000000000000000",
                    "decodedMethod": {
                        "callParams": [
                            {
                                "name": "_from",
                                "type": "address",
                                "value": "0x737168316968bd2494521def49405b1641e481c1"
                            },
                            {
                                "name": "_to",
                                "type": "address",
                                "value": "0xfbb1b73c4f0bda4f67dca266ce6ef42f520fbb98"
                            },
                            {
                                "name": "_value",
                                "type": "uint256",
                                "value": "1,016,707,687"
                            },
                            {
                                "name": "_reference",
                                "type": "string",
                                "value": ""
                            },
                            {
                                "name": "_sender",
                                "type": "address",
                                "value": "0xfbb1b73c4f0bda4f67dca266ce6ef42f520fbb98"
                            }
                        ],
                        "constructorArguments": "",
                        "name": "__transferFromWithReference",
                        "returnParams": [
                            {
                                "name": "",
                                "type": "bool",
                                "value": true
                            }
                        ],
                        "signature": "__transferFromWithReference(address,address,uint256,string,address)"
                    },
                    "errorInfo": "",
                    "fromAddress": "0x6531f133e6deebe7f2dce5a0441aa7ef330b4e53",
                    "gasUsed": 44637,
                    "id": 1,
                    "methodDecoded": true,
                    "operation": "CALL",
                    "output": "0x0000000000000000000000000000000000000000000000000000000000000001",
                    "revert": false,
                    "revertMessage": "",
                    "selector": "0xec698a28",
                    "status": true,
                    "value": "0"
                },
                "nodeType": 0
            },
            "2": {
                "invocation": {
                    "address": "0x6531f133e6deebe7f2dce5a0441aa7ef330b4e53",
                    "callData": "0x000000000000000000000000737168316968bd2494521def49405b1641e481c1000000000000000000000000fbb1b73c4f0bda4f67dca266ce6ef42f520fbb98000000000000000000000000000000000000000000000000000000003c99ba6700000000000000000000000000000000000000000000000000000000000000a0000000000000000000000000fbb1b73c4f0bda4f67dca266ce6ef42f520fbb980000000000000000000000000000000000000000000000000000000000000000",
                    "decodedMethod": {
                        "callParams": [
                            {
                                "name": "_from",
                                "type": "address",
                                "value": "0x737168316968bd2494521def49405b1641e481c1"
                            },
                            {
                                "name": "_to",
                                "type": "address",
                                "value": "0xfbb1b73c4f0bda4f67dca266ce6ef42f520fbb98"
                            },
                            {
                                "name": "_value",
                                "type": "uint256",
                                "value": "1,016,707,687"
                            },
                            {
                                "name": "_reference",
                                "type": "string",
                                "value": ""
                            },
                            {
                                "name": "_sender",
                                "type": "address",
                                "value": "0xfbb1b73c4f0bda4f67dca266ce6ef42f520fbb98"
                            }
                        ],
                        "constructorArguments": "",
                        "name": "__transferFromWithReference",
                        "returnParams": [
                            {
                                "name": "",
                                "type": "bool",
                                "value": true
                            }
                        ],
                        "signature": "__transferFromWithReference(address,address,uint256,string,address)"
                    },
                    "errorInfo": "",
                    "fromAddress": "0xc7c5d612536d167627b217d08b9ff05da1db75f7",
                    "gasUsed": 41398,
                    "id": 2,
                    "methodDecoded": true,
                    "operation": "CALL",
                    "output": "0x0000000000000000000000000000000000000000000000000000000000000001",
                    "revert": false,
                    "revertMessage": "",
                    "selector": "0xec698a28",
                    "status": true,
                    "value": "0"
                },
                "nodeType": 0
            },
            "3": {
                "invocation": {
                    "address": "0xc7edc4d1e16738a65c5ca144cda666d5145a29f3",
                    "callData": "0x000000000000000000000000737168316968bd2494521def49405b1641e481c1000000000000000000000000fbb1b73c4f0bda4f67dca266ce6ef42f520fbb98000000000000000000000000000000000000000000000000000000003c99ba6754494d450000000000000000000000000000000000000000000000000000000000000000000000000000000000000000000000000000000000000000000000c0000000000000000000000000fbb1b73c4f0bda4f67dca266ce6ef42f520fbb980000000000000000000000000000000000000000000000000000000000000000",
                    "decodedMethod": {
                        "callParams": [
                            {
                                "name": "_from",
                                "type": "address",
                                "value": "0x737168316968bd2494521def49405b1641e481c1"
                            },
                            {
                                "name": "_to",
                                "type": "address",
                                "value": "0xfbb1b73c4f0bda4f67dca266ce6ef42f520fbb98"
                            },
                            {
                                "name": "_value",
                                "type": "uint256",
                                "value": "1,016,707,687"
                            },
                            {
                                "name": "_symbol",
                                "type": "bytes32",
                                "value": "0x54494d4500000000000000000000000000000000000000000000000000000000"
                            },
                            {
                                "name": "_reference",
                                "type": "string",
                                "value": ""
                            },
                            {
                                "name": "_sender",
                                "type": "address",
                                "value": "0xfbb1b73c4f0bda4f67dca266ce6ef42f520fbb98"
                            }
                        ],
                        "constructorArguments": "",
                        "name": "proxyTransferFromWithReference",
                        "returnParams": [
                            {
                                "name": "",
                                "type": "bool",
                                "value": true
                            }
                        ],
                        "signature": "proxyTransferFromWithReference(address,address,uint256,bytes32,string,address)"
                    },
                    "errorInfo": "",
                    "fromAddress": "0x6531f133e6deebe7f2dce5a0441aa7ef330b4e53",
                    "gasUsed": 36946,
                    "id": 3,
                    "methodDecoded": true,
                    "operation": "CALL",
                    "output": "0x0000000000000000000000000000000000000000000000000000000000000001",
                    "revert": false,
                    "revertMessage": "",
                    "selector": "0x161ff662",
                    "status": true,
                    "value": "0"
                },
                "nodeType": 0
            },
            "4": {
                "invocation": {
                    "address": "0xf76de79a8cb78158f22dc8e0f3b6f3f6b9cd97d8",
                    "callData": "0x000000000000000000000000737168316968bd2494521def49405b1641e481c1000000000000000000000000fbb1b73c4f0bda4f67dca266ce6ef42f520fbb9854494d4500000000000000000000000000000000000000000000000000000000000000000000000000000000000000000000000000000000000000003c99ba6700000000000000000000000000000000000000000000000000000000000000a00000000000000000000000000000000000000000000000000000000000000000",
                    "decodedMethod": {
                        "callParams": [
                            {
                                "name": "_from",
                                "type": "address",
                                "value": "0x737168316968bd2494521def49405b1641e481c1"
                            },
                            {
                                "name": "_to",
                                "type": "address",
                                "value": "0xfbb1b73c4f0bda4f67dca266ce6ef42f520fbb98"
                            },
                            {
                                "name": "_symbol",
                                "type": "bytes32",
                                "value": "0x54494d4500000000000000000000000000000000000000000000000000000000"
                            },
                            {
                                "name": "_value",
                                "type": "uint256",
                                "value": "1,016,707,687"
                            },
                            {
                                "name": "_reference",
                                "type": "string",
                                "value": ""
                            }
                        ],
                        "constructorArguments": "",
                        "name": "emitTransfer",
                        "returnParams": [],
                        "signature": "emitTransfer(address,address,bytes32,uint256,string)"
                    },
                    "errorInfo": "",
                    "fromAddress": "0xc7edc4d1e16738a65c5ca144cda666d5145a29f3",
                    "gasUsed": 8303,
                    "id": 4,
                    "methodDecoded": true,
                    "operation": "CALL",
                    "output": "",
                    "revert": false,
                    "revertMessage": "",
                    "selector": "0x515c1457",
                    "status": true,
                    "value": "0"
                },
                "nodeType": 0
            },
            "5": {
                "invocation": {
                    "address": "0x07f497bdc6370371bbfb25d6599f5c3b57e55b27",
                    "callData": "0x000000000000000000000000737168316968bd2494521def49405b1641e481c1000000000000000000000000fbb1b73c4f0bda4f67dca266ce6ef42f520fbb9854494d4500000000000000000000000000000000000000000000000000000000000000000000000000000000000000000000000000000000000000003c99ba6700000000000000000000000000000000000000000000000000000000000000a00000000000000000000000000000000000000000000000000000000000000000",
                    "decodedMethod": {
                        "callParams": [
                            {
                                "name": "_from",
                                "type": "address",
                                "value": "0x737168316968bd2494521def49405b1641e481c1"
                            },
                            {
                                "name": "_to",
                                "type": "address",
                                "value": "0xfbb1b73c4f0bda4f67dca266ce6ef42f520fbb98"
                            },
                            {
                                "name": "_symbol",
                                "type": "bytes32",
                                "value": "0x54494d4500000000000000000000000000000000000000000000000000000000"
                            },
                            {
                                "name": "_value",
                                "type": "uint256",
                                "value": "1,016,707,687"
                            },
                            {
                                "name": "_reference",
                                "type": "string",
                                "value": ""
                            }
                        ],
                        "constructorArguments": "",
                        "name": "emitTransfer",
                        "returnParams": [],
                        "signature": "emitTransfer(address,address,bytes32,uint256,string)"
                    },
                    "errorInfo": "",
                    "fromAddress": "0xf76de79a8cb78158f22dc8e0f3b6f3f6b9cd97d8",
                    "gasUsed": 6224,
                    "id": 5,
                    "methodDecoded": true,
                    "operation": "DELEGATECALL",
                    "output": "",
                    "revert": false,
                    "revertMessage": "",
                    "selector": "0x515c1457",
                    "status": true,
                    "value": "0"
                },
                "nodeType": 0
            },
            "6": {
                "invocation": {
                    "address": "0xf76de79a8cb78158f22dc8e0f3b6f3f6b9cd97d8",
                    "callData": "0x000000000000000000000000c7edc4d1e16738a65c5ca144cda666d5145a29f3",
                    "decodedMethod": {
                        "callParams": [
                            {
                                "name": "",
                                "type": "address",
                                "value": "0xc7edc4d1e16738a65c5ca144cda666d5145a29f3"
                            }
                        ],
                        "constructorArguments": "",
                        "name": "versions",
                        "returnParams": [
                            {
                                "name": "",
                                "type": "uint8",
                                "value": "1"
                            }
                        ],
                        "signature": "versions(address)"
                    },
                    "errorInfo": "",
                    "fromAddress": "0xf76de79a8cb78158f22dc8e0f3b6f3f6b9cd97d8",
                    "gasUsed": 623,
                    "id": 6,
                    "methodDecoded": true,
                    "operation": "CALL",
                    "output": "0x0000000000000000000000000000000000000000000000000000000000000001",
                    "revert": false,
                    "revertMessage": "",
                    "selector": "0x488725a0",
                    "status": true,
                    "value": "0"
                },
                "nodeType": 0
            },
            "7": {
                "event": {
                    "contract": "0xf76de79a8cb78158f22dc8e0f3b6f3f6b9cd97d8",
                    "decodedLog": {
                        "name": "Transfer",
                        "params": [
                            {
                                "name": "from",
                                "type": "address",
                                "value": "0x737168316968bd2494521def49405b1641e481c1"
                            },
                            {
                                "name": "to",
                                "type": "address",
                                "value": "0xfbb1b73c4f0bda4f67dca266ce6ef42f520fbb98"
                            },
                            {
                                "name": "symbol",
                                "type": "bytes32",
                                "value": "0x54494d4500000000000000000000000000000000000000000000000000000000"
                            },
                            {
                                "name": "value",
                                "type": "uint256",
                                "value": "1,016,707,687"
                            },
                            {
                                "name": "reference",
                                "type": "string",
                                "value": ""
                            },
                            {
                                "name": "version",
                                "type": "uint256",
                                "value": "1"
                            }
                        ],
                        "signature": "Transfer(address,address,bytes32,uint256,string,uint256)"
                    },
                    "id": 7,
                    "logData": "0x000000000000000000000000000000000000000000000000000000003c99ba67000000000000000000000000000000000000000000000000000000000000006000000000000000000000000000000000000000000000000000000000000000010000000000000000000000000000000000000000000000000000000000000000",
                    "logDecoded": true,
                    "operation": "EVENT",
                    "revert": false,
                    "status": true,
                    "topics": [
                        "0x940c4b3549ef0aaff95807dc27f62d88ca15532d1bf535d7d63800f40395d16c",
                        "0x000000000000000000000000737168316968bd2494521def49405b1641e481c1",
                        "0x000000000000000000000000fbb1b73c4f0bda4f67dca266ce6ef42f520fbb98",
                        "0x54494d4500000000000000000000000000000000000000000000000000000000"
                    ]
                },
                "nodeType": 1
            },
            "8": {
                "invocation": {
                    "address": "0x6531f133e6deebe7f2dce5a0441aa7ef330b4e53",
                    "callData": "0x000000000000000000000000737168316968bd2494521def49405b1641e481c1000000000000000000000000fbb1b73c4f0bda4f67dca266ce6ef42f520fbb98000000000000000000000000000000000000000000000000000000003c99ba67",
                    "decodedMethod": {
                        "callParams": [
                            {
                                "name": "_from",
                                "type": "address",
                                "value": "0x737168316968bd2494521def49405b1641e481c1"
                            },
                            {
                                "name": "_to",
                                "type": "address",
                                "value": "0xfbb1b73c4f0bda4f67dca266ce6ef42f520fbb98"
                            },
                            {
                                "name": "_value",
                                "type": "uint256",
                                "value": "1,016,707,687"
                            }
                        ],
                        "constructorArguments": "",
                        "name": "emitTransfer",
                        "returnParams": [],
                        "signature": "emitTransfer(address,address,uint256)"
                    },
                    "errorInfo": "",
                    "fromAddress": "0xc7edc4d1e16738a65c5ca144cda666d5145a29f3",
                    "gasUsed": 2727,
                    "id": 8,
                    "methodDecoded": true,
                    "operation": "CALL",
                    "output": "",
                    "revert": false,
                    "revertMessage": "",
                    "selector": "0x23de6651",
                    "status": true,
                    "value": "0"
                },
                "nodeType": 0
            },
            "9": {
                "event": {
                    "contract": "0x6531f133e6deebe7f2dce5a0441aa7ef330b4e53",
                    "decodedLog": {
                        "name": "Transfer",
                        "params": [
                            {
                                "name": "from",
                                "type": "address",
                                "value": "0x737168316968bd2494521def49405b1641e481c1"
                            },
                            {
                                "name": "to",
                                "type": "address",
                                "value": "0xfbb1b73c4f0bda4f67dca266ce6ef42f520fbb98"
                            },
                            {
                                "decimalAvailable": true,
                                "name": "value",
                                "type": "uint256",
                                "value": "1,016,707,687"
                            }
                        ],
                        "signature": "Transfer(address,address,uint256)"
                    },
                    "id": 9,
                    "logData": "0x000000000000000000000000000000000000000000000000000000003c99ba67",
                    "logDecoded": true,
                    "operation": "EVENT",
                    "revert": false,
                    "status": true,
                    "topics": [
                        "0xddf252ad1be2c89b69c2b068fc378daa952ba7f163c4a11628f55a4df523b3ef",
                        "0x000000000000000000000000737168316968bd2494521def49405b1641e481c1",
                        "0x000000000000000000000000fbb1b73c4f0bda4f67dca266ce6ef42f520fbb98"
                    ]
                },
                "nodeType": 1
            }
        },
        "gasFlame": [
            {
                "children": [
                    {
                        "children": [
                            {
                                "children": [],
                                "depth": 0,
                                "name": "Initial Gas",
                                "value": 24472
                            },
                            {
                                "children": [
                                    {
                                        "children": [
                                            {
                                                "children": [
                                                    {
                                                        "children": [
                                                            {
                                                                "children": [
                                                                    {
                                                                        "children": [
                                                                            {
                                                                                "children": [],
                                                                                "depth": 6,
                                                                                "name": "versions",
                                                                                "value": 623
                                                                            }
                                                                        ],
                                                                        "depth": 5,
                                                                        "name": "emitTransfer",
                                                                        "value": 6224
                                                                    }
                                                                ],
                                                                "depth": 4,
                                                                "name": "emitTransfer",
                                                                "value": 8303
                                                            },
                                                            {
                                                                "children": [],
                                                                "depth": 4,
                                                                "name": "emitTransfer",
                                                                "value": 2727
                                                            }
                                                        ],
                                                        "depth": 3,
                                                        "name": "proxyTransferFromWithReference",
                                                        "value": 36946
                                                    }
                                                ],
                                                "depth": 2,
                                                "name": "__transferFromWithReference",
                                                "value": 41398
                                            }
                                        ],
                                        "depth": 1,
                                        "name": "__transferFromWithReference",
                                        "value": 44637
                                    }
                                ],
                                "depth": 0,
                                "name": "Executed Gas",
                                "value": 48347
                            }
                        ],
                        "depth": -1,
                        "name": "Actual Gas Used",
                        "value": 57819
                    },
                    {
                        "children": [],
                        "depth": -1,
                        "name": "Refunded Gas",
                        "value": 15000
                    }
                ],
                "depth": -2,
                "name": "Total Gas",
                "value": 72819
            }
        ],
        "isConfirmed": true,
        "mainTrace": [
            {
                "children": [
                    {
                        "children": [
                            {
                                "children": [
                                    {
                                        "children": [
                                            {
                                                "children": [
                                                    {
                                                        "children": [
                                                            {
                                                                "children": [
                                                                    {
                                                                        "children": [],
                                                                        "depth": 6,
                                                                        "id": 6,
                                                                        "order": 6
                                                                    },
                                                                    {
                                                                        "children": [],
                                                                        "depth": 6,
                                                                        "id": 7,
                                                                        "order": 7
                                                                    }
                                                                ],
                                                                "depth": 5,
                                                                "id": 5,
                                                                "order": 5
                                                            }
                                                        ],
                                                        "depth": 4,
                                                        "id": 4,
                                                        "order": 4
                                                    },
                                                    {
                                                        "children": [
                                                            {
                                                                "children": [],
                                                                "depth": 5,
                                                                "id": 9,
                                                                "order": 9
                                                            }
                                                        ],
                                                        "depth": 4,
                                                        "id": 8,
                                                        "order": 8
                                                    }
                                                ],
                                                "depth": 3,
                                                "id": 3,
                                                "order": 3
                                            }
                                        ],
                                        "depth": 2,
                                        "id": 2,
                                        "order": 2
                                    }
                                ],
                                "depth": 1,
                                "id": 1,
                                "order": 1
                            }
                        ],
                        "depth": 0,
                        "id": 0,
                        "order": 0
                    }
                ],
                "depth": -1,
                "id": -1,
                "order": -1
            }
        ],
        "mainTraceNodeCount": 10,
        "parentIdMap": {
            "0": -1,
            "1": 0,
            "2": 1,
            "3": 2,
            "4": 3,
            "5": 4,
            "6": 5,
            "7": 5,
            "8": 3,
            "9": 8
        },
        "tidyTrace": [
            {
                "children": [
                    {
                        "children": [
                            {
                                "children": [
                                    {
                                        "children": [
                                            {
                                                "children": [
                                                    {
                                                        "children": [
                                                            {
                                                                "children": [
                                                                    {
                                                                        "children": [],
                                                                        "depth": 6,
                                                                        "id": 6,
                                                                        "order": 6
                                                                    },
                                                                    {
                                                                        "children": [],
                                                                        "depth": 6,
                                                                        "id": 7,
                                                                        "order": 7
                                                                    }
                                                                ],
                                                                "depth": 5,
                                                                "id": 5,
                                                                "order": 5
                                                            }
                                                        ],
                                                        "depth": 4,
                                                        "id": 4,
                                                        "order": 4
                                                    },
                                                    {
                                                        "children": [
                                                            {
                                                                "children": [],
                                                                "depth": 5,
                                                                "id": 9,
                                                                "order": 9
                                                            }
                                                        ],
                                                        "depth": 4,
                                                        "id": 8,
                                                        "order": 8
                                                    }
                                                ],
                                                "depth": 3,
                                                "id": 3,
                                                "order": 3
                                            }
                                        ],
                                        "depth": 2,
                                        "id": 2,
                                        "order": 2
                                    }
                                ],
                                "depth": 1,
                                "id": 1,
                                "order": 1
                            }
                        ],
                        "depth": 0,
                        "id": 0,
                        "order": 0
                    }
                ],
                "depth": -1,
                "id": -1,
                "order": -1
            }
        ],
        "tidyTraceNodeCount": 10
    },
    "state_change": {
        "stateChanges": [
            {
                "address": "0xc7edc4d1e16738a65c5ca144cda666d5145a29f3",
                "erc": "",
                "slots": [
                    {
                        "current": "0x0000000000000000000000000000000000000000000000000000000000000000",
                        "key": "0x4e033c94dd631e8217b2c88dcb5bf99a66206103be15696b96d5cf77c844a781",
                        "prev": "0x000000000000000000000000000000000000000000000000000000003c99ba67"
                    },
                    {
                        "current": "0x00000000000000000000000000000000000000000000000000000240ee9b5ea9",
                        "key": "0x27b359eefebcdb4865c4c6640d62f5356ba0233f03c9f47fad752c01adcc256e",
                        "prev": "0x00000000000000000000000000000000000000000000000000000240b201a442"
                    },
                    {
                        "current": "0x3ffffffffffffffffffffffffffffffffffffffffffffffffffffffda2b196be",
                        "key": "0xd289e0d9726711cda28eee3f587dd02e984fa53a9a3fc03616aaa14e24446a7c",
                        "prev": "0x3ffffffffffffffffffffffffffffffffffffffffffffffffffffffddf4b5125"
                    }
                ],
                "storageVariables": []
            }
        ]
    }
}