{
    "balance_change": {
        "balanceChanges": [
            {
                "account": "0xeb2629a2734e272bcc07bda959863f316f4bd4cf",
                "assets": [
                    {
                        "address": "0xa47c8bf37f92abed4a126bda807a7b7498661acd",
                        "amount": "493.2735426",
                        "iconUrl": "",
                        "isERC1155": false,
                        "isERC721": false,
                        "sign": false,
                        "value": "497.1342123"
                    }
                ]
            },
            {
                "account": "0x3dbf69e27505fd9487c1170329e069232a0153ca",
                "assets": [
                    {
                        "address": "0xa47c8bf37f92abed4a126bda807a7b7498661acd",
                        "amount": "493.2735426",
                        "iconUrl": "",
                        "isERC1155": false,
                        "isERC721": false,
                        "sign": true,
                        "value": "497.1342123"
                    }
                ]
            }
        ]
    },
    "profile": {
        "basic_info": {
            "baseFee": "74.532820978",
            "blockNumber": 14295446,
            "callData": "0xa9059cbb0000000000000000000000003dbf69e27505fd9487c1170329e069232a0153ca00000000000000000000000000000000000000000000001abd8ba984fb83d000",
            "debugEnable": true,
            "errorInfo": "",
            "eventCount": 1,
            "feeRecipient": "0x00192fb10df37c9fb26829eb2cc623cd1bf599e8",
            "formatValue": "0",
            "gasLimit": 250000,
            "gasPrice": "76.532820978",
            "gasUsed": 34725,
            "intTxnCount": 0,
            "internalRevert": false,
            "internalRevertMessage": "",
            "isContractCreation": false,
            "isFlashloan": false,
            "maxFee": "185",
            "nonce": 4808288,
            "overwritedBlockNumber": -1,
            "priorityFee": "2",
            "receiver": "0xa47c8bf37f92abed4a126bda807a7b7498661acd",
            "revertMessage": "",
            "sender": "0xeb2629a2734e272bcc07bda959863f316f4bd4cf",
            "simulationEnable": true,
            "sourceTxnHash": "0x955253f4a69b18f723307e8e31ef68478aa8fc698c2397e329e769ec1c0a8f43",
            "status": true,
            "timestamp": "2022-02-28T15:27:35Z",
            "transactionFee": "0.00265760220846105",
            "txnHash": "0x955253f4a69b18f723307e8e31ef68478aa8fc698c2397e329e769ec1c0a8f43",
            "txnIndex": 49,
            "type": 2,
            "value": "0"
        },
        "fund_flow": [
            {
                "amount": "493.2735426",
                "from": "0xeb2629a2734e272bcc07bda959863f316f4bd4cf",
                "id": 1,
                "isERC1155": false,
                "isERC721": false,
                "isReverted": false,
                "order": 1,
                "to": "0x3dbf69e27505fd9487c1170329e069232a0153ca",
                "token": "0xa47c8bf37f92abed4a126bda807a7b7498661acd"
            }
        ],
        "token_infos": [
            {
                "address": "0xa47c8bf37f92abed4a126bda807a7b7498661acd",
                "decimals": 18
            },
            {
                "address": "0xc02aaa39b223fe8d0a0e5c4f27ead9083c756cc2",
                "decimals": 18
            },
            {
                "address": "0xeeeeeeeeeeeeeeeeeeeeeeeeeeeeeeeeeeeeeeee",
                "decimals": 18
            }
        ]
    },
    "address_label": {
        "labels": [
            {
                "address": "0x0000000000000000000000000000000000000002",
                "label": "Precompiled"
            },
            {
                "address": "0x0000000000000000000000000000000000000003",
                "label": "Precompiled"
            },
            {
                "address": "0x0000000000000000000000000000000000000004",
                "label": "Precompiled"
            },
            {
                "address": "0xeeeeeeeeeeeeeeeeeeeeeeeeeeeeeeeeeeeeeeee",
                "label": "Ether"
            },
            {
                "address": "0xeb2629a2734e272bcc07bda959863f316f4bd4cf",
                "label": "Coinbase 6"
            },
            {
                "address": "0xa47c8bf37f92abed4a126bda807a7b7498661acd",
                "label": "Terra: USTC Token"
            },
            {
                "address": "0x0000000000000000000000000000000000000001",
                "label": "Precompiled"
            }
        ]
    },
    "trace": {
        "accountLabels": null,
        "dataMap": {
            "-1": {
                "invocation": {
                    "address": "0xeb2629a2734e272bcc07bda959863f316f4bd4cf",
                    "callData": "",
                    "decodedMethod": null,
                    "errorInfo": "",
                    "fromAddress": "",
                    "gasUsed": 0,
                    "id": -1,
                    "methodDecoded": false,
                    "operation": "",
                    "output": "",
                    "revert": false,
                    "revertMessage": "",
                    "selector": "",
                    "status": false,
                    "value": ""
                },
                "nodeType": 0
            },
            "0": {
                "invocation": {
                    "address": "0xa47c8bf37f92abed4a126bda807a7b7498661acd",
                    "callData": "0x0000000000000000000000003dbf69e27505fd9487c1170329e069232a0153ca00000000000000000000000000000000000000000000001abd8ba984fb83d000",
                    "decodedMethod": {
                        "callParams": [
                            {
                                "name": "recipient",
                                "type": "address",
                                "value": "0x3dbf69e27505fd9487c1170329e069232a0153ca"
                            },
                            {
                                "decimalAvailable": true,
                                "name": "amount",
                                "type": "uint256",
                                "value": "493,273,542,600,000,000,000"
                            }
                        ],
                        "constructorArguments": "",
                        "name": "transfer",
                        "returnParams": [
                            {
                                "name": "",
                                "type": "bool",
                                "value": true
                            }
                        ],
                        "signature": "transfer(address,uint256)"
                    },
                    "errorInfo": "",
                    "fromAddress": "0xeb2629a2734e272bcc07bda959863f316f4bd4cf",
                    "gasUsed": 34725,
                    "id": 0,
                    "methodDecoded": true,
                    "operation": "CALL",
                    "output": "0x0000000000000000000000000000000000000000000000000000000000000001",
                    "revert": false,
                    "revertMessage": "",
                    "selector": "0xa9059cbb",
                    "status": true,
                    "value": "0"
                },
                "nodeType": 0
            },
            "1": {
                "event": {
                    "contract": "0xa47c8bf37f92abed4a126bda807a7b7498661acd",
                    "decodedLog": {
                        "name": "Transfer",
                        "params": [
                            {
                                "name": "from",
                                "type": "address",
                                "value": "0xeb2629a2734e272bcc07bda959863f316f4bd4cf"
                            },
                            {
                                "name": "to",
                                "type": "address",
                                "value": "0x3dbf69e27505fd9487c1170329e069232a0153ca"
                            },
                            {
                                "decimalAvailable": true,
                                "name": "value",
                                "type": "uint256",
                                "value": "493,273,542,600,000,000,000"
                            }
                        ],
                        "signature": "Transfer(address,address,uint256)"
                    },
                    "id": 1,
                    "logData": "0x00000000000000000000000000000000000000000000001abd8ba984fb83d000",
                    "logDecoded": true,
                    "operation": "EVENT",
                    "revert": false,
                    "status": true,
                    "topics": [
                        "0xddf252ad1be2c89b69c2b068fc378daa952ba7f163c4a11628f55a4df523b3ef",
                        "0x000000000000000000000000eb2629a2734e272bcc07bda959863f316f4bd4cf",
                        "0x0000000000000000000000003dbf69e27505fd9487c1170329e069232a0153ca"
                    ]
                },
                "nodeType": 1
            }
        },
        "gasFlame": [
            {
                "children": [
                    {
                        "children": [
                            {
                                "children": [],
                                "depth": 0,
                                "name": "Initial Gas",
                                "value": 21656
                            },
                            {
                                "children": [],
                                "depth": 0,
                                "name": "Executed Gas",
                                "value": 13069
                            }
                        ],
                        "depth": -1,
                        "name": "Actual Gas Used",
                        "value": 34725
                    },
                    {
                        "children": [],
                        "depth": -1,
                        "name": "Refunded Gas",
                        "value": 0
                    }
                ],
                "depth": -2,
                "name": "Total Gas",
                "value": 34725
            }
        ],
        "isConfirmed": true,
        "mainTrace": [
            {
                "children": [
                    {
                        "children": [
                            {
                                "children": [],
                                "depth": 1,
                                "id": 1,
                                "order": 1
                            }
                        ],
                        "depth": 0,
                        "id": 0,
                        "order": 0
                    }
                ],
                "depth": -1,
                "id": -1,
                "order": -1
            }
        ],
        "mainTraceNodeCount": 2,
        "parentIdMap": {
            "0": -1,
            "1": 0
        },
        "tidyTrace": [
            {
                "children": [
                    {
                        "children": [
                            {
                                "children": [],
                                "depth": 1,
                                "id": 1,
                                "order": 1
                            }
                        ],
                        "depth": 0,
                        "id": 0,
                        "order": 0
                    }
                ],
                "depth": -1,
                "id": -1,
                "order": -1
            }
        ],
        "tidyTraceNodeCount": 2
    },
    "state_change": {
        "stateChanges": [
            {
                "address": "0xa47c8bf37f92abed4a126bda807a7b7498661acd",
                "erc": "ERC-20",
                "slots": [
                    {
                        "current": "0x000000000000000000000000000000000000000000009877ea0bee78faa8a126",
                        "key": "0x0d4dfe2c8e99982743bdae77267e3e6708242f24026ca5ed0fb9f0ee17fdc69d",
                        "prev": "0x000000000000000000000000000000000000000000009892a79797fdf62c7126"
                    },
                    {
                        "current": "0x00000000000000000000000000000000000000000000001c17c37cb8b7edb000",
                        "key": "0xe40fcb3d829d676cd3d77664ed51666e39c4944ae70c1076fcf1197f4375a24a",
                        "prev": "0x0000000000000000000000000000000000000000000000015a37d333bc69e000"
                    }
                ],
                "storageVariables": [
                    {
                        "name": "_balances",
                        "type": "mapping(address => uint256)",
                        "value": {
                            "pairs": [
                                {
                                    "key": "0x3dbf69e27505fd9487c1170329e069232a0153ca",
                                    "value": {
                                        "current": "518221183480000000000",
                                        "prev": "24947640880000000000",
                                        "typeTag": 1
                                    }
                                },
                                {
                                    "key": "0xeb2629a2734e272bcc07bda959863f316f4bd4cf",
                                    "value": {
                                        "current": "720011732776390496919846",
                                        "prev": "720505006318990496919846",
                                        "typeTag": 1
                                    }
                                }
                            ],
                            "typeTag": 4
                        }
                    }
                ]
            }
        ]
    }
}