{
    "balance_change": {
        "balanceChanges": [
            {
                "account": "0x7ab1e4943088ea8597858b6888f62ebc4663046b",
                "assets": [
                    {
                        "address": "0x36d10c6800d569bb8c4fe284a05ffe3b752f972c",
                        "amount": "22.2",
                        "iconUrl": "",
                        "isERC1155": false,
                        "isERC721": false,
                        "sign": false,
                        "value": ""
                    }
                ]
            },
            {
                "account": "0x3e770e1e2cf8dead0f4fe854b1bf4b53fffccea0",
                "assets": [
                    {
                        "address": "0x36d10c6800d569bb8c4fe284a05ffe3b752f972c",
                        "amount": "22.2",
                        "iconUrl": "",
                        "isERC1155": false,
                        "isERC721": false,
                        "sign": true,
                        "value": ""
                    }
                ]
            }
        ]
    },
    "profile": {
        "basic_info": {
            "baseFee": "",
            "blockNumber": 6529041,
            "callData": "0xa9059cbb0000000000000000000000003e770e1e2cf8dead0f4fe854b1bf4b53fffccea000000000000000000000000000000000000000000000000134163e611dac0000",
            "debugEnable": true,
            "errorInfo": "",
            "eventCount": 1,
            "feeRecipient": "0x5a0b54d5dc17e0aadc383d2db43b0a0d3e029c4c",
            "formatValue": "0",
            "gasLimit": 60000,
            "gasPrice": "10",
            "gasUsed": 52380,
            "intTxnCount": 0,
            "internalRevert": false,
            "internalRevertMessage": "",
            "isContractCreation": false,
            "isFlashloan": false,
            "maxFee": "",
            "nonce": 1986,
            "overwritedBlockNumber": -1,
            "priorityFee": "",
            "receiver": "0x36d10c6800d569bb8c4fe284a05ffe3b752f972c",
            "revertMessage": "",
            "sender": "0x7ab1e4943088ea8597858b6888f62ebc4663046b",
            "simulationEnable": true,
            "sourceTxnHash": "0x9544b862f28e243cbad247e9f3385742494ecda01c9c4bebbaefd65222314052",
            "status": true,
            "timestamp": "2018-10-17T01:21:10Z",
            "transactionFee": "0.0005238",
            "txnHash": "0x9544b862f28e243cbad247e9f3385742494ecda01c9c4bebbaefd65222314052",
            "txnIndex": 61,
            "type": 0,
            "value": "0"
        },
        "fund_flow": [
            {
                "amount": "22.2",
                "from": "0x7ab1e4943088ea8597858b6888f62ebc4663046b",
                "id": 1,
                "isERC1155": false,
                "isERC721": false,
                "isReverted": false,
                "order": 1,
                "to": "0x3e770e1e2cf8dead0f4fe854b1bf4b53fffccea0",
                "token": "0x36d10c6800d569bb8c4fe284a05ffe3b752f972c"
            }
        ],
        "token_infos": [
            {
                "address": "0x36d10c6800d569bb8c4fe284a05ffe3b752f972c",
                "decimals": 18
            },
            {
                "address": "0xc02aaa39b223fe8d0a0e5c4f27ead9083c756cc2",
                "decimals": 18
            },
            {
                "address": "0xeeeeeeeeeeeeeeeeeeeeeeeeeeeeeeeeeeeeeeee",
                "decimals": 18
            }
        ]
    },
    "address_label": {
        "labels": [
            {
                "address": "0x7ab1e4943088ea8597858b6888f62ebc4663046b",
                "label": "MDsquare: Deployer"
            },
            {
                "address": "0x0000000000000000000000000000000000000001",
                "label": "Precompiled"
            },
            {
                "address": "0x0000000000000000000000000000000000000002",
                "label": "Precompiled"
            },
            {
                "address": "0x0000000000000000000000000000000000000003",
                "label": "Precompiled"
            },
            {
                "address": "0x0000000000000000000000000000000000000004",
                "label": "Precompiled"
            },
            {
                "address": "0xeeeeeeeeeeeeeeeeeeeeeeeeeeeeeeeeeeeeeeee",
                "label": "Ether"
            },
            {
                "address": "0x36d10c6800d569bb8c4fe284a05ffe3b752f972c",
                "label": "We Show Token"
            }
        ]
    },
    "trace": {
        "accountLabels": null,
        "dataMap": {
            "-1": {
                "invocation": {
                    "address": "0x7ab1e4943088ea8597858b6888f62ebc4663046b",
                    "callData": "",
                    "decodedMethod": null,
                    "errorInfo": "",
                    "fromAddress": "",
                    "gasUsed": 0,
                    "id": -1,
                    "methodDecoded": false,
                    "operation": "",
                    "output": "",
                    "revert": false,
                    "revertMessage": "",
                    "selector": "",
                    "status": false,
                    "value": ""
                },
                "nodeType": 0
            },
            "0": {
                "invocation": {
                    "address": "0x36d10c6800d569bb8c4fe284a05ffe3b752f972c",
                    "callData": "0x0000000000000000000000003e770e1e2cf8dead0f4fe854b1bf4b53fffccea000000000000000000000000000000000000000000000000134163e611dac0000",
                    "decodedMethod": {
                        "callParams": [
                            {
                                "name": "_to",
                                "type": "address",
                                "value": "0x3e770e1e2cf8dead0f4fe854b1bf4b53fffccea0"
                            },
                            {
                                "decimalAvailable": true,
                                "name": "_value",
                                "type": "uint256",
                                "value": "22,200,000,000,000,000,000"
                            }
                        ],
                        "constructorArguments": "",
                        "name": "transfer",
                        "returnParams": [
                            {
                                "name": "",
                                "type": "bool",
                                "value": true
                            }
                        ],
                        "signature": "transfer(address,uint256)"
                    },
                    "errorInfo": "",
                    "fromAddress": "0x7ab1e4943088ea8597858b6888f62ebc4663046b",
                    "gasUsed": 52380,
                    "id": 0,
                    "methodDecoded": true,
                    "operation": "CALL",
                    "output": "0x0000000000000000000000000000000000000000000000000000000000000001",
                    "revert": false,
                    "revertMessage": "",
                    "selector": "0xa9059cbb",
                    "status": true,
                    "value": "0"
                },
                "nodeType": 0
            },
            "1": {
                "event": {
                    "contract": "0x36d10c6800d569bb8c4fe284a05ffe3b752f972c",
                    "decodedLog": {
                        "name": "Transfer",
                        "params": [
                            {
                                "name": "from",
                                "type": "address",
                                "value": "0x7ab1e4943088ea8597858b6888f62ebc4663046b"
                            },
                            {
                                "name": "to",
                                "type": "address",
                                "value": "0x3e770e1e2cf8dead0f4fe854b1bf4b53fffccea0"
                            },
                            {
                                "decimalAvailable": true,
                                "name": "value",
                                "type": "uint256",
                                "value": "22,200,000,000,000,000,000"
                            }
                        ],
                        "signature": "Transfer(address,address,uint256)"
                    },
                    "id": 1,
                    "logData": "0x00000000000000000000000000000000000000000000000134163e611dac0000",
                    "logDecoded": true,
                    "operation": "EVENT",
                    "revert": false,
                    "status": true,
                    "topics": [
                        "0xddf252ad1be2c89b69c2b068fc378daa952ba7f163c4a11628f55a4df523b3ef",
                        "0x0000000000000000000000007ab1e4943088ea8597858b6888f62ebc4663046b",
                        "0x0000000000000000000000003e770e1e2cf8dead0f4fe854b1bf4b53fffccea0"
                    ]
                },
                "nodeType": 1
            }
        },
        "gasFlame": [
            {
                "children": [
                    {
                        "children": [
                            {
                                "children": [],
                                "depth": 0,
                                "name": "Initial Gas",
                                "value": 23256
                            },
                            {
                                "children": [],
                                "depth": 0,
                                "name": "Executed Gas",
                                "value": 29124
                            }
                        ],
                        "depth": -1,
                        "name": "Actual Gas Used",
                        "value": 52380
                    },
                    {
                        "children": [],
                        "depth": -1,
                        "name": "Refunded Gas",
                        "value": 0
                    }
                ],
                "depth": -2,
                "name": "Total Gas",
                "value": 52380
            }
        ],
        "isConfirmed": true,
        "mainTrace": [
            {
                "children": [
                    {
                        "children": [
                            {
                                "children": [],
                                "depth": 1,
                                "id": 1,
                                "order": 1
                            }
                        ],
                        "depth": 0,
                        "id": 0,
                        "order": 0
                    }
                ],
                "depth": -1,
                "id": -1,
                "order": -1
            }
        ],
        "mainTraceNodeCount": 2,
        "parentIdMap": {
            "0": -1,
            "1": 0
        },
        "tidyTrace": [
            {
                "children": [
                    {
                        "children": [
                            {
                                "children": [],
                                "depth": 1,
                                "id": 1,
                                "order": 1
                            }
                        ],
                        "depth": 0,
                        "id": 0,
                        "order": 0
                    }
                ],
                "depth": -1,
                "id": -1,
                "order": -1
            }
        ],
        "tidyTraceNodeCount": 2
    },
    "state_change": {
        "stateChanges": [
            {
                "address": "0x36d10c6800d569bb8c4fe284a05ffe3b752f972c",
                "erc": "ERC-20",
                "slots": [
                    {
                        "current": "0x0000000000000000000000000000000000000000000003c7c0f0c361be3c4a00",
                        "key": "0xf6476937ba2f7a7f9affd479f5fa0e4b032b43d3a0ef42b9a4c2f65b694bfa83",
                        "prev": "0x0000000000000000000000000000000000000000000003c8f50701c2dbe84a00"
                    },
                    {
                        "current": "0x00000000000000000000000000000000000000000000000134163e611dac0000",
                        "key": "0x83f93ade9c7a54c8317b971f1b420ae487796d3d5af6802dc571cdd9844ad295",
                        "prev": "0x0000000000000000000000000000000000000000000000000000000000000000"
                    }
                ],
                "storageVariables": [
                    {
                        "name": "balances",
                        "type": "mapping(address => uint256)",
                        "value": {
                            "pairs": [
                                {
                                    "key": "0x3e770e1e2cf8dead0f4fe854b1bf4b53fffccea0",
                                    "value": {
                                        "current": "22200000000000000000",
                                        "prev": "0",
                                        "typeTag": 1
                                    }
                                },
                                {
                                    "key": "0x7ab1e4943088ea8597858b6888f62ebc4663046b",
                                    "value": {
                                        "current": "17851904346151400000000",
                                        "prev": "17874104346151400000000",
                                        "typeTag": 1
                                    }
                                }
                            ],
                            "typeTag": 4
                        }
                    }
                ]
            }
        ]
    }
}