{
    "balance_change": {
        "balanceChanges": [
            {
                "account": "0x947c4efaf086821ed8f5d3980d466808f3fe4808",
                "assets": [
                    {
                        "address": "0x1c9922314ed1415c95b9fd453c3818fd41867d0b",
                        "amount": "151,576.09",
                        "iconUrl": "",
                        "isERC1155": false,
                        "isERC721": false,
                        "sign": false,
                        "value": "1103.396202"
                    },
                    {
                        "address": "0xdac17f958d2ee523a2206206994597c13d831ec7",
                        "amount": "558.33339",
                        "iconUrl": "https://assets.blocksec.com/icon/fcea71f3193ce895be44bfdf941f7e4c9381dd587f273c2d1a27f1263d84e4ea.png",
                        "isERC1155": false,
                        "isERC721": false,
                        "sign": true,
                        "value": "558.3518038"
                    }
                ]
            },
            {
                "account": "0x06da0fd433c1a5d7a4faa01111c044910a184553",
                "assets": [
                    {
                        "address": "0xc02aaa39b223fe8d0a0e5c4f27ead9083c756cc2",
                        "amount": "0.370303526548160956",
                        "iconUrl": "https://assets.blocksec.com/icon/f1cb2d02c471d545bbc7722daf3277fd852d98e63d118771af7047bd8256c516.png",
                        "isERC1155": false,
                        "isERC721": false,
                        "sign": true,
                        "value": "558.06222657655998654"
                    },
                    {
                        "address": "0xdac17f958d2ee523a2206206994597c13d831ec7",
                        "amount": "558.33339",
                        "iconUrl": "https://assets.blocksec.com/icon/fcea71f3193ce895be44bfdf941f7e4c9381dd587f273c2d1a27f1263d84e4ea.png",
                        "isERC1155": false,
                        "isERC721": false,
                        "sign": false,
                        "value": "558.3518038"
                    }
                ]
            },
            {
                "account": "0xdbaa04796cb5c05d02b8a41b702d9b67c13c9fa9",
                "assets": [
                    {
                        "address": "0xc02aaa39b223fe8d0a0e5c4f27ead9083c756cc2",
                        "amount": "0.370303526548160956",
                        "iconUrl": "https://assets.blocksec.com/icon/f1cb2d02c471d545bbc7722daf3277fd852d98e63d118771af7047bd8256c516.png",
                        "isERC1155": false,
                        "isERC721": false,
                        "sign": false,
                        "value": "558.06222657655998654"
                    },
                    {
                        "address": "0x1c9922314ed1415c95b9fd453c3818fd41867d0b",
                        "amount": "151,576.09",
                        "iconUrl": "",
                        "isERC1155": false,
                        "isERC721": false,
                        "sign": true,
                        "value": "1103.396202"
                    }
                ]
            }
        ]
    },
    "profile": {
        "basic_info": {
            "baseFee": "6.439988059",
            "blockNumber": 15490120,
            "callData": "0x38ed1739000000000000000000000000000000000000000000002018f4d05274df29000000000000000000000000000000000000000000000000000000000000211d1b1b00000000000000000000000000000000000000000000000000000000000000a0000000000000000000000000947c4efaf086821ed8f5d3980d466808f3fe48080000000000000000000000000000000000000000000000000000000063188b7400000000000000000000000000000000000000000000000000000000000000030000000000000000000000001c9922314ed1415c95b9fd453c3818fd41867d0b000000000000000000000000c02aaa39b223fe8d0a0e5c4f27ead9083c756cc2000000000000000000000000dac17f958d2ee523a2206206994597c13d831ec7",
            "debugEnable": true,
            "errorInfo": "",
            "eventCount": 8,
            "feeRecipient": "0xea674fdde714fd979de3edf0f56aa9716b898ec8",
            "formatValue": "0",
            "gasLimit": 220430,
            "gasPrice": "7.214035249",
            "gasUsed": 175454,
            "intTxnCount": 11,
            "internalRevert": false,
            "internalRevertMessage": "",
            "isContractCreation": false,
            "isFlashloan": false,
            "maxFee": "7.214035249",
            "nonce": 421,
            "overwritedBlockNumber": -1,
            "priorityFee": "1",
            "receiver": "0xd9e1ce17f2641f24ae83637ab66a2cca9c378b9f",
            "revertMessage": "",
            "sender": "0x947c4efaf086821ed8f5d3980d466808f3fe4808",
            "simulationEnable": true,
            "sourceTxnHash": "0x958665f1fbfc27a7e69d0787e76e8d65e9b4ce5c09accee6f481d408bdf5167f",
            "status": true,
            "timestamp": "2022-09-07T11:46:41Z",
            "transactionFee": "0.001265731340578046",
            "txnHash": "0x958665f1fbfc27a7e69d0787e76e8d65e9b4ce5c09accee6f481d408bdf5167f",
            "txnIndex": 46,
            "type": 2,
            "value": "0"
        },
        "fund_flow": [
            {
                "amount": "151,576.09",
                "from": "0x947c4efaf086821ed8f5d3980d466808f3fe4808",
                "id": 1,
                "isERC1155": false,
                "isERC721": false,
                "isReverted": false,
                "order": 1,
                "to": "0xdbaa04796cb5c05d02b8a41b702d9b67c13c9fa9",
                "token": "0x1c9922314ed1415c95b9fd453c3818fd41867d0b"
            },
            {
                "amount": "0.370303526548160956",
                "from": "0xdbaa04796cb5c05d02b8a41b702d9b67c13c9fa9",
                "id": 2,
                "isERC1155": false,
                "isERC721": false,
                "isReverted": false,
                "order": 2,
                "to": "0x06da0fd433c1a5d7a4faa01111c044910a184553",
                "token": "0xc02aaa39b223fe8d0a0e5c4f27ead9083c756cc2"
            },
            {
                "amount": "558.33339",
                "from": "0x06da0fd433c1a5d7a4faa01111c044910a184553",
                "id": 3,
                "isERC1155": false,
                "isERC721": false,
                "isReverted": false,
                "order": 3,
                "to": "0x947c4efaf086821ed8f5d3980d466808f3fe4808",
                "token": "0xdac17f958d2ee523a2206206994597c13d831ec7"
            }
        ],
        "token_infos": [
            {
                "address": "0x1c9922314ed1415c95b9fd453c3818fd41867d0b",
                "decimals": 18
            },
            {
                "address": "0xc02aaa39b223fe8d0a0e5c4f27ead9083c756cc2",
                "decimals": 18
            },
            {
                "address": "0xdac17f958d2ee523a2206206994597c13d831ec7",
                "decimals": 6
            },
            {
                "address": "0xeeeeeeeeeeeeeeeeeeeeeeeeeeeeeeeeeeeeeeee",
                "decimals": 18
            }
        ]
    },
    "address_label": {
        "labels": [
            {
                "address": "0xeeeeeeeeeeeeeeeeeeeeeeeeeeeeeeeeeeeeeeee",
                "label": "Ether"
            },
            {
                "address": "0x06da0fd433c1a5d7a4faa01111c044910a184553",
                "label": "SushiSwap: USDT"
            },
            {
                "address": "0x0000000000000000000000000000000000000001",
                "label": "Precompiled"
            },
            {
                "address": "0x0000000000000000000000000000000000000002",
                "label": "Precompiled"
            },
            {
                "address": "0x0000000000000000000000000000000000000003",
                "label": "Precompiled"
            },
            {
                "address": "0xd9e1ce17f2641f24ae83637ab66a2cca9c378b9f",
                "label": "SushiSwap: Router"
            },
            {
                "address": "0xc02aaa39b223fe8d0a0e5c4f27ead9083c756cc2",
                "label": "Wrapped Ether (WETH)"
            },
            {
                "address": "0xdac17f958d2ee523a2206206994597c13d831ec7",
                "label": "Tether: USDT Stablecoin"
            },
            {
                "address": "0x1c9922314ed1415c95b9fd453c3818fd41867d0b",
                "label": "Tower: TOWER Token"
            },
            {
                "address": "0xdbaa04796cb5c05d02b8a41b702d9b67c13c9fa9",
                "label": "SushiSwap: TOWER"
            },
            {
                "address": "0x0000000000000000000000000000000000000004",
                "label": "Precompiled"
            }
        ]
    },
    "trace": {
        "accountLabels": null,
        "dataMap": {
            "-1": {
                "invocation": {
                    "address": "0x947c4efaf086821ed8f5d3980d466808f3fe4808",
                    "callData": "",
                    "decodedMethod": null,
                    "errorInfo": "",
                    "fromAddress": "",
                    "gasUsed": 0,
                    "id": -1,
                    "methodDecoded": false,
                    "operation": "",
                    "output": "",
                    "revert": false,
                    "revertMessage": "",
                    "selector": "",
                    "status": false,
                    "value": ""
                },
                "nodeType": 0
            },
            "0": {
                "invocation": {
                    "address": "0xd9e1ce17f2641f24ae83637ab66a2cca9c378b9f",
                    "callData": "0x000000000000000000000000000000000000000000002018f4d05274df29000000000000000000000000000000000000000000000000000000000000211d1b1b00000000000000000000000000000000000000000000000000000000000000a0000000000000000000000000947c4efaf086821ed8f5d3980d466808f3fe48080000000000000000000000000000000000000000000000000000000063188b7400000000000000000000000000000000000000000000000000000000000000030000000000000000000000001c9922314ed1415c95b9fd453c3818fd41867d0b000000000000000000000000c02aaa39b223fe8d0a0e5c4f27ead9083c756cc2000000000000000000000000dac17f958d2ee523a2206206994597c13d831ec7",
                    "decodedMethod": {
                        "callParams": [
                            {
                                "name": "amountIn",
                                "type": "uint256",
                                "value": "151,576,090,000,000,000,000,000"
                            },
                            {
                                "name": "amountOutMin",
                                "type": "uint256",
                                "value": "555,555,611"
                            },
                            {
                                "name": "path",
                                "type": "address[]",
                                "value": [
                                    "0x1c9922314ed1415c95b9fd453c3818fd41867d0b",
                                    "0xc02aaa39b223fe8d0a0e5c4f27ead9083c756cc2",
                                    "0xdac17f958d2ee523a2206206994597c13d831ec7"
                                ]
                            },
                            {
                                "name": "to",
                                "type": "address",
                                "value": "0x947c4efaf086821ed8f5d3980d466808f3fe4808"
                            },
                            {
                                "name": "deadline",
                                "type": "uint256",
                                "value": "1,662,552,948"
                            }
                        ],
                        "constructorArguments": "",
                        "name": "swapExactTokensForTokens",
                        "returnParams": [
                            {
                                "name": "amounts",
                                "type": "uint256[]",
                                "value": [
                                    "151,576,090,000,000,000,000,000",
                                    "370,303,526,548,160,956",
                                    "558,333,390"
                                ]
                            }
                        ],
                        "signature": "swapExactTokensForTokens(uint256,uint256,address[],address,uint256)"
                    },
                    "errorInfo": "",
                    "fromAddress": "0x947c4efaf086821ed8f5d3980d466808f3fe4808",
                    "gasUsed": 175454,
                    "id": 0,
                    "methodDecoded": true,
                    "operation": "CALL",
                    "output": "0x00000000000000000000000000000000000000000000000000000000000000200000000000000000000000000000000000000000000000000000000000000003000000000000000000000000000000000000000000002018f4d05274df290000000000000000000000000000000000000000000000000000052395186efa41bc0000000000000000000000000000000000000000000000000000000021477dce",
                    "revert": false,
                    "revertMessage": "",
                    "selector": "0x38ed1739",
                    "status": true,
                    "value": "0"
                },
                "nodeType": 0
            },
            "1": {
                "invocation": {
                    "address": "0xdbaa04796cb5c05d02b8a41b702d9b67c13c9fa9",
                    "callData": "0x",
                    "decodedMethod": {
                        "callParams": [],
                        "constructorArguments": "",
                        "name": "getReserves",
                        "returnParams": [
                            {
                                "name": "_reserve0",
                                "type": "uint112",
                                "value": "16,745,550,274,751,663,897,639,049"
                            },
                            {
                                "name": "_reserve1",
                                "type": "uint112",
                                "value": "41,403,128,070,631,673,103"
                            },
                            {
                                "name": "_blockTimestampLast",
                                "type": "uint32",
                                "value": "1,662,541,128"
                            }
                        ],
                        "signature": "getReserves()"
                    },
                    "errorInfo": "",
                    "fromAddress": "0xd9e1ce17f2641f24ae83637ab66a2cca9c378b9f",
                    "gasUsed": 2517,
                    "id": 1,
                    "methodDecoded": true,
                    "operation": "STATICCALL",
                    "output": "0x0000000000000000000000000000000000000000000dda02197026d75088f8890000000000000000000000000000000000000000000000023e95759df8014d0f0000000000000000000000000000000000000000000000000000000063185d48",
                    "revert": false,
                    "revertMessage": "",
                    "selector": "0x0902f1ac",
                    "status": true,
                    "value": "0"
                },
                "nodeType": 0
            },
            "10": {
                "invocation": {
                    "address": "0xc02aaa39b223fe8d0a0e5c4f27ead9083c756cc2",
                    "callData": "0x000000000000000000000000dbaa04796cb5c05d02b8a41b702d9b67c13c9fa9",
                    "decodedMethod": {
                        "callParams": [
                            {
                                "name": "",
                                "type": "address",
                                "value": "0xdbaa04796cb5c05d02b8a41b702d9b67c13c9fa9"
                            }
                        ],
                        "constructorArguments": "",
                        "name": "balanceOf",
                        "returnParams": [
                            {
                                "decimalAvailable": true,
                                "name": "",
                                "type": "uint256",
                                "value": "41,032,824,544,083,512,147"
                            }
                        ],
                        "signature": "balanceOf(address)"
                    },
                    "errorInfo": "",
                    "fromAddress": "0xdbaa04796cb5c05d02b8a41b702d9b67c13c9fa9",
                    "gasUsed": 534,
                    "id": 10,
                    "methodDecoded": true,
                    "operation": "STATICCALL",
                    "output": "0x0000000000000000000000000000000000000000000000023971e08589070b53",
                    "revert": false,
                    "revertMessage": "",
                    "selector": "0x70a08231",
                    "status": true,
                    "value": "0"
                },
                "nodeType": 0
            },
            "11": {
                "event": {
                    "contract": "0xdbaa04796cb5c05d02b8a41b702d9b67c13c9fa9",
                    "decodedLog": {
                        "name": "Sync",
                        "params": [
                            {
                                "name": "reserve0",
                                "type": "uint112",
                                "value": "16,897,126,364,751,663,897,639,049"
                            },
                            {
                                "name": "reserve1",
                                "type": "uint112",
                                "value": "41,032,824,544,083,512,147"
                            }
                        ],
                        "signature": "Sync(uint112,uint112)"
                    },
                    "id": 11,
                    "logData": "0x0000000000000000000000000000000000000000000dfa1b0e40794c2fb1f8890000000000000000000000000000000000000000000000023971e08589070b53",
                    "logDecoded": true,
                    "operation": "EVENT",
                    "revert": false,
                    "status": true,
                    "topics": [
                        "0x1c411e9a96e071241c2f21f7726b17ae89e3cab4c78be50e062b03a9fffbbad1"
                    ]
                },
                "nodeType": 1
            },
            "12": {
                "event": {
                    "contract": "0xdbaa04796cb5c05d02b8a41b702d9b67c13c9fa9",
                    "decodedLog": {
                        "name": "Swap",
                        "params": [
                            {
                                "name": "sender",
                                "type": "address",
                                "value": "0xd9e1ce17f2641f24ae83637ab66a2cca9c378b9f"
                            },
                            {
                                "name": "to",
                                "type": "address",
                                "value": "0x06da0fd433c1a5d7a4faa01111c044910a184553"
                            },
                            {
                                "name": "amount0In",
                                "type": "uint256",
                                "value": "151,576,090,000,000,000,000,000"
                            },
                            {
                                "name": "amount1In",
                                "type": "uint256",
                                "value": "0"
                            },
                            {
                                "name": "amount0Out",
                                "type": "uint256",
                                "value": "0"
                            },
                            {
                                "name": "amount1Out",
                                "type": "uint256",
                                "value": "370,303,526,548,160,956"
                            }
                        ],
                        "signature": "Swap(address,uint256,uint256,uint256,uint256,address)"
                    },
                    "id": 12,
                    "logData": "0x000000000000000000000000000000000000000000002018f4d05274df29000000000000000000000000000000000000000000000000000000000000000000000000000000000000000000000000000000000000000000000000000000000000000000000000000000000000000000000000000000000000052395186efa41bc",
                    "logDecoded": true,
                    "operation": "EVENT",
                    "revert": false,
                    "status": true,
                    "topics": [
                        "0xd78ad95fa46c994b6551d0da85fc275fe613ce37657fb8d5e3d130840159d822",
                        "0x000000000000000000000000d9e1ce17f2641f24ae83637ab66a2cca9c378b9f",
                        "0x00000000000000000000000006da0fd433c1a5d7a4faa01111c044910a184553"
                    ]
                },
                "nodeType": 1
            },
            "13": {
                "invocation": {
                    "address": "0x06da0fd433c1a5d7a4faa01111c044910a184553",
                    "callData": "0x00000000000000000000000000000000000000000000000000000000000000000000000000000000000000000000000000000000000000000000000021477dce000000000000000000000000947c4efaf086821ed8f5d3980d466808f3fe480800000000000000000000000000000000000000000000000000000000000000800000000000000000000000000000000000000000000000000000000000000000",
                    "decodedMethod": {
                        "callParams": [
                            {
                                "name": "amount0Out",
                                "type": "uint256",
                                "value": "0"
                            },
                            {
                                "name": "amount1Out",
                                "type": "uint256",
                                "value": "558,333,390"
                            },
                            {
                                "name": "to",
                                "type": "address",
                                "value": "0x947c4efaf086821ed8f5d3980d466808f3fe4808"
                            },
                            {
                                "name": "data",
                                "type": "bytes",
                                "value": "0x"
                            }
                        ],
                        "constructorArguments": "",
                        "name": "swap",
                        "returnParams": [],
                        "signature": "swap(uint256,uint256,address,bytes)"
                    },
                    "errorInfo": "",
                    "fromAddress": "0xd9e1ce17f2641f24ae83637ab66a2cca9c378b9f",
                    "gasUsed": 60135,
                    "id": 13,
                    "methodDecoded": true,
                    "operation": "CALL",
                    "output": "",
                    "revert": false,
                    "revertMessage": "",
                    "selector": "0x022c0d9f",
                    "status": true,
                    "value": "0"
                },
                "nodeType": 0
            },
            "14": {
                "invocation": {
                    "address": "0xdac17f958d2ee523a2206206994597c13d831ec7",
                    "callData": "0x000000000000000000000000947c4efaf086821ed8f5d3980d466808f3fe48080000000000000000000000000000000000000000000000000000000021477dce",
                    "decodedMethod": {
                        "callParams": [
                            {
                                "name": "_to",
                                "type": "address",
                                "value": "0x947c4efaf086821ed8f5d3980d466808f3fe4808"
                            },
                            {
                                "decimalAvailable": true,
                                "name": "_value",
                                "type": "uint256",
                                "value": "558,333,390"
                            }
                        ],
                        "constructorArguments": "",
                        "name": "transfer",
                        "returnParams": [],
                        "signature": "transfer(address,uint256)"
                    },
                    "errorInfo": "",
                    "fromAddress": "0x06da0fd433c1a5d7a4faa01111c044910a184553",
                    "gasUsed": 24501,
                    "id": 14,
                    "methodDecoded": true,
                    "operation": "CALL",
                    "output": "",
                    "revert": false,
                    "revertMessage": "",
                    "selector": "0xa9059cbb",
                    "status": true,
                    "value": "0"
                },
                "nodeType": 0
            },
            "15": {
                "event": {
                    "contract": "0xdac17f958d2ee523a2206206994597c13d831ec7",
                    "decodedLog": {
                        "name": "Transfer",
                        "params": [
                            {
                                "name": "from",
                                "type": "address",
                                "value": "0x06da0fd433c1a5d7a4faa01111c044910a184553"
                            },
                            {
                                "name": "to",
                                "type": "address",
                                "value": "0x947c4efaf086821ed8f5d3980d466808f3fe4808"
                            },
                            {
                                "decimalAvailable": true,
                                "name": "value",
                                "type": "uint256",
                                "value": "558,333,390"
                            }
                        ],
                        "signature": "Transfer(address,address,uint256)"
                    },
                    "id": 15,
                    "logData": "0x0000000000000000000000000000000000000000000000000000000021477dce",
                    "logDecoded": true,
                    "operation": "EVENT",
                    "revert": false,
                    "status": true,
                    "topics": [
                        "0xddf252ad1be2c89b69c2b068fc378daa952ba7f163c4a11628f55a4df523b3ef",
                        "0x00000000000000000000000006da0fd433c1a5d7a4faa01111c044910a184553",
                        "0x000000000000000000000000947c4efaf086821ed8f5d3980d466808f3fe4808"
                    ]
                },
                "nodeType": 1
            },
            "16": {
                "invocation": {
                    "address": "0xc02aaa39b223fe8d0a0e5c4f27ead9083c756cc2",
                    "callData": "0x00000000000000000000000006da0fd433c1a5d7a4faa01111c044910a184553",
                    "decodedMethod": {
                        "callParams": [
                            {
                                "name": "",
                                "type": "address",
                                "value": "0x06da0fd433c1a5d7a4faa01111c044910a184553"
                            }
                        ],
                        "constructorArguments": "",
                        "name": "balanceOf",
                        "returnParams": [
                            {
                                "decimalAvailable": true,
                                "name": "",
                                "type": "uint256",
                                "value": "7,188,532,449,980,293,727,548"
                            }
                        ],
                        "signature": "balanceOf(address)"
                    },
                    "errorInfo": "",
                    "fromAddress": "0x06da0fd433c1a5d7a4faa01111c044910a184553",
                    "gasUsed": 534,
                    "id": 16,
                    "methodDecoded": true,
                    "operation": "STATICCALL",
                    "output": "0x000000000000000000000000000000000000000000000185b0ed90c7a3e2453c",
                    "revert": false,
                    "revertMessage": "",
                    "selector": "0x70a08231",
                    "status": true,
                    "value": "0"
                },
                "nodeType": 0
            },
            "17": {
                "invocation": {
                    "address": "0xdac17f958d2ee523a2206206994597c13d831ec7",
                    "callData": "0x00000000000000000000000006da0fd433c1a5d7a4faa01111c044910a184553",
                    "decodedMethod": {
                        "callParams": [
                            {
                                "name": "who",
                                "type": "address",
                                "value": "0x06da0fd433c1a5d7a4faa01111c044910a184553"
                            }
                        ],
                        "constructorArguments": "",
                        "name": "balanceOf",
                        "returnParams": [
                            {
                                "decimalAvailable": true,
                                "name": "",
                                "type": "uint256",
                                "value": "10,870,723,768,032"
                            }
                        ],
                        "signature": "balanceOf(address)"
                    },
                    "errorInfo": "",
                    "fromAddress": "0x06da0fd433c1a5d7a4faa01111c044910a184553",
                    "gasUsed": 1031,
                    "id": 17,
                    "methodDecoded": true,
                    "operation": "STATICCALL",
                    "output": "0x000000000000000000000000000000000000000000000000000009e309a0eee0",
                    "revert": false,
                    "revertMessage": "",
                    "selector": "0x70a08231",
                    "status": true,
                    "value": "0"
                },
                "nodeType": 0
            },
            "18": {
                "event": {
                    "contract": "0x06da0fd433c1a5d7a4faa01111c044910a184553",
                    "decodedLog": {
                        "name": "Sync",
                        "params": [
                            {
                                "name": "reserve0",
                                "type": "uint112",
                                "value": "7,188,532,449,980,293,727,548"
                            },
                            {
                                "name": "reserve1",
                                "type": "uint112",
                                "value": "10,870,723,768,032"
                            }
                        ],
                        "signature": "Sync(uint112,uint112)"
                    },
                    "id": 18,
                    "logData": "0x000000000000000000000000000000000000000000000185b0ed90c7a3e2453c000000000000000000000000000000000000000000000000000009e309a0eee0",
                    "logDecoded": true,
                    "operation": "EVENT",
                    "revert": false,
                    "status": true,
                    "topics": [
                        "0x1c411e9a96e071241c2f21f7726b17ae89e3cab4c78be50e062b03a9fffbbad1"
                    ]
                },
                "nodeType": 1
            },
            "19": {
                "event": {
                    "contract": "0x06da0fd433c1a5d7a4faa01111c044910a184553",
                    "decodedLog": {
                        "name": "Swap",
                        "params": [
                            {
                                "name": "sender",
                                "type": "address",
                                "value": "0xd9e1ce17f2641f24ae83637ab66a2cca9c378b9f"
                            },
                            {
                                "name": "to",
                                "type": "address",
                                "value": "0x947c4efaf086821ed8f5d3980d466808f3fe4808"
                            },
                            {
                                "name": "amount0In",
                                "type": "uint256",
                                "value": "370,303,526,548,160,956"
                            },
                            {
                                "name": "amount1In",
                                "type": "uint256",
                                "value": "0"
                            },
                            {
                                "name": "amount0Out",
                                "type": "uint256",
                                "value": "0"
                            },
                            {
                                "name": "amount1Out",
                                "type": "uint256",
                                "value": "558,333,390"
                            }
                        ],
                        "signature": "Swap(address,uint256,uint256,uint256,uint256,address)"
                    },
                    "id": 19,
                    "logData": "0x000000000000000000000000000000000000000000000000052395186efa41bc000000000000000000000000000000000000000000000000000000000000000000000000000000000000000000000000000000000000000000000000000000000000000000000000000000000000000000000000000000000000000021477dce",
                    "logDecoded": true,
                    "operation": "EVENT",
                    "revert": false,
                    "status": true,
                    "topics": [
                        "0xd78ad95fa46c994b6551d0da85fc275fe613ce37657fb8d5e3d130840159d822",
                        "0x000000000000000000000000d9e1ce17f2641f24ae83637ab66a2cca9c378b9f",
                        "0x000000000000000000000000947c4efaf086821ed8f5d3980d466808f3fe4808"
                    ]
                },
                "nodeType": 1
            },
            "2": {
                "invocation": {
                    "address": "0x06da0fd433c1a5d7a4faa01111c044910a184553",
                    "callData": "0x",
                    "decodedMethod": {
                        "callParams": [],
                        "constructorArguments": "",
                        "name": "getReserves",
                        "returnParams": [
                            {
                                "name": "_reserve0",
                                "type": "uint112",
                                "value": "7,188,162,146,453,745,566,592"
                            },
                            {
                                "name": "_reserve1",
                                "type": "uint112",
                                "value": "10,871,282,101,422"
                            },
                            {
                                "name": "_blockTimestampLast",
                                "type": "uint32",
                                "value": "1,662,550,957"
                            }
                        ],
                        "signature": "getReserves()"
                    },
                    "errorInfo": "",
                    "fromAddress": "0xd9e1ce17f2641f24ae83637ab66a2cca9c378b9f",
                    "gasUsed": 2517,
                    "id": 2,
                    "methodDecoded": true,
                    "operation": "STATICCALL",
                    "output": "0x000000000000000000000000000000000000000000000185abc9fbaf34e80380000000000000000000000000000000000000000000000000000009e32ae86cae00000000000000000000000000000000000000000000000000000000631883ad",
                    "revert": false,
                    "revertMessage": "",
                    "selector": "0x0902f1ac",
                    "status": true,
                    "value": "0"
                },
                "nodeType": 0
            },
            "3": {
                "invocation": {
                    "address": "0x1c9922314ed1415c95b9fd453c3818fd41867d0b",
                    "callData": "0x000000000000000000000000947c4efaf086821ed8f5d3980d466808f3fe4808000000000000000000000000dbaa04796cb5c05d02b8a41b702d9b67c13c9fa9000000000000000000000000000000000000000000002018f4d05274df290000",
                    "decodedMethod": {
                        "callParams": [
                            {
                                "name": "sender",
                                "type": "address",
                                "value": "0x947c4efaf086821ed8f5d3980d466808f3fe4808"
                            },
                            {
                                "name": "recipient",
                                "type": "address",
                                "value": "0xdbaa04796cb5c05d02b8a41b702d9b67c13c9fa9"
                            },
                            {
                                "decimalAvailable": true,
                                "name": "amount",
                                "type": "uint256",
                                "value": "151,576,090,000,000,000,000,000"
                            }
                        ],
                        "constructorArguments": "",
                        "name": "transferFrom",
                        "returnParams": [
                            {
                                "name": "",
                                "type": "bool",
                                "value": true
                            }
                        ],
                        "signature": "transferFrom(address,address,uint256)"
                    },
                    "errorInfo": "",
                    "fromAddress": "0xd9e1ce17f2641f24ae83637ab66a2cca9c378b9f",
                    "gasUsed": 23277,
                    "id": 3,
                    "methodDecoded": true,
                    "operation": "CALL",
                    "output": "0x0000000000000000000000000000000000000000000000000000000000000001",
                    "revert": false,
                    "revertMessage": "",
                    "selector": "0x23b872dd",
                    "status": true,
                    "value": "0"
                },
                "nodeType": 0
            },
            "4": {
                "event": {
                    "contract": "0x1c9922314ed1415c95b9fd453c3818fd41867d0b",
                    "decodedLog": {
                        "name": "Approval",
                        "params": [
                            {
                                "name": "_owner",
                                "type": "address",
                                "value": "0x947c4efaf086821ed8f5d3980d466808f3fe4808"
                            },
                            {
                                "name": "_spender",
                                "type": "address",
                                "value": "0xd9e1ce17f2641f24ae83637ab66a2cca9c378b9f"
                            },
                            {
                                "decimalAvailable": true,
                                "name": "_value",
                                "type": "uint256",
                                "value": "115,792,089,237,316,195,423,570,985,008,687,907,853,269,984,665,640,563,887,881,494,007,913,129,639,935"
                            }
                        ],
                        "signature": "Approval(address,address,uint256)"
                    },
                    "id": 4,
                    "logData": "0xffffffffffffffffffffffffffffffffffffffffffffdfe70b2fad8b20d6ffff",
                    "logDecoded": true,
                    "operation": "EVENT",
                    "revert": false,
                    "status": true,
                    "topics": [
                        "0x8c5be1e5ebec7d5bd14f71427d1e84f3dd0314c0f7b2291e5b200ac8c7c3b925",
                        "0x000000000000000000000000947c4efaf086821ed8f5d3980d466808f3fe4808",
                        "0x000000000000000000000000d9e1ce17f2641f24ae83637ab66a2cca9c378b9f"
                    ]
                },
                "nodeType": 1
            },
            "5": {
                "event": {
                    "contract": "0x1c9922314ed1415c95b9fd453c3818fd41867d0b",
                    "decodedLog": {
                        "name": "Transfer",
                        "params": [
                            {
                                "name": "_from",
                                "type": "address",
                                "value": "0x947c4efaf086821ed8f5d3980d466808f3fe4808"
                            },
                            {
                                "name": "_to",
                                "type": "address",
                                "value": "0xdbaa04796cb5c05d02b8a41b702d9b67c13c9fa9"
                            },
                            {
                                "decimalAvailable": true,
                                "name": "_value",
                                "type": "uint256",
                                "value": "151,576,090,000,000,000,000,000"
                            }
                        ],
                        "signature": "Transfer(address,address,uint256)"
                    },
                    "id": 5,
                    "logData": "0x000000000000000000000000000000000000000000002018f4d05274df290000",
                    "logDecoded": true,
                    "operation": "EVENT",
                    "revert": false,
                    "status": true,
                    "topics": [
                        "0xddf252ad1be2c89b69c2b068fc378daa952ba7f163c4a11628f55a4df523b3ef",
                        "0x000000000000000000000000947c4efaf086821ed8f5d3980d466808f3fe4808",
                        "0x000000000000000000000000dbaa04796cb5c05d02b8a41b702d9b67c13c9fa9"
                    ]
                },
                "nodeType": 1
            },
            "6": {
                "invocation": {
                    "address": "0xdbaa04796cb5c05d02b8a41b702d9b67c13c9fa9",
                    "callData": "0x0000000000000000000000000000000000000000000000000000000000000000000000000000000000000000000000000000000000000000052395186efa41bc00000000000000000000000006da0fd433c1a5d7a4faa01111c044910a18455300000000000000000000000000000000000000000000000000000000000000800000000000000000000000000000000000000000000000000000000000000000",
                    "decodedMethod": {
                        "callParams": [
                            {
                                "name": "amount0Out",
                                "type": "uint256",
                                "value": "0"
                            },
                            {
                                "name": "amount1Out",
                                "type": "uint256",
                                "value": "370,303,526,548,160,956"
                            },
                            {
                                "name": "to",
                                "type": "address",
                                "value": "0x06da0fd433c1a5d7a4faa01111c044910a184553"
                            },
                            {
                                "name": "data",
                                "type": "bytes",
                                "value": "0x"
                            }
                        ],
                        "constructorArguments": "",
                        "name": "swap",
                        "returnParams": [],
                        "signature": "swap(uint256,uint256,address,bytes)"
                    },
                    "errorInfo": "",
                    "fromAddress": "0xd9e1ce17f2641f24ae83637ab66a2cca9c378b9f",
                    "gasUsed": 48079,
                    "id": 6,
                    "methodDecoded": true,
                    "operation": "CALL",
                    "output": "",
                    "revert": false,
                    "revertMessage": "",
                    "selector": "0x022c0d9f",
                    "status": true,
                    "value": "0"
                },
                "nodeType": 0
            },
            "7": {
                "invocation": {
                    "address": "0xc02aaa39b223fe8d0a0e5c4f27ead9083c756cc2",
                    "callData": "0x00000000000000000000000006da0fd433c1a5d7a4faa01111c044910a184553000000000000000000000000000000000000000000000000052395186efa41bc",
                    "decodedMethod": {
                        "callParams": [
                            {
                                "name": "dst",
                                "type": "address",
                                "value": "0x06da0fd433c1a5d7a4faa01111c044910a184553"
                            },
                            {
                                "decimalAvailable": true,
                                "name": "wad",
                                "type": "uint256",
                                "value": "370,303,526,548,160,956"
                            }
                        ],
                        "constructorArguments": "",
                        "name": "transfer",
                        "returnParams": [
                            {
                                "name": "",
                                "type": "bool",
                                "value": true
                            }
                        ],
                        "signature": "transfer(address,uint256)"
                    },
                    "errorInfo": "",
                    "fromAddress": "0xdbaa04796cb5c05d02b8a41b702d9b67c13c9fa9",
                    "gasUsed": 12862,
                    "id": 7,
                    "methodDecoded": true,
                    "operation": "CALL",
                    "output": "0x0000000000000000000000000000000000000000000000000000000000000001",
                    "revert": false,
                    "revertMessage": "",
                    "selector": "0xa9059cbb",
                    "status": true,
                    "value": "0"
                },
                "nodeType": 0
            },
            "8": {
                "event": {
                    "contract": "0xc02aaa39b223fe8d0a0e5c4f27ead9083c756cc2",
                    "decodedLog": {
                        "name": "Transfer",
                        "params": [
                            {
                                "name": "src",
                                "type": "address",
                                "value": "0xdbaa04796cb5c05d02b8a41b702d9b67c13c9fa9"
                            },
                            {
                                "name": "dst",
                                "type": "address",
                                "value": "0x06da0fd433c1a5d7a4faa01111c044910a184553"
                            },
                            {
                                "decimalAvailable": true,
                                "name": "wad",
                                "type": "uint256",
                                "value": "370,303,526,548,160,956"
                            }
                        ],
                        "signature": "Transfer(address,address,uint256)"
                    },
                    "id": 8,
                    "logData": "0x000000000000000000000000000000000000000000000000052395186efa41bc",
                    "logDecoded": true,
                    "operation": "EVENT",
                    "revert": false,
                    "status": true,
                    "topics": [
                        "0xddf252ad1be2c89b69c2b068fc378daa952ba7f163c4a11628f55a4df523b3ef",
                        "0x000000000000000000000000dbaa04796cb5c05d02b8a41b702d9b67c13c9fa9",
                        "0x00000000000000000000000006da0fd433c1a5d7a4faa01111c044910a184553"
                    ]
                },
                "nodeType": 1
            },
            "9": {
                "invocation": {
                    "address": "0x1c9922314ed1415c95b9fd453c3818fd41867d0b",
                    "callData": "0x000000000000000000000000dbaa04796cb5c05d02b8a41b702d9b67c13c9fa9",
                    "decodedMethod": {
                        "callParams": [
                            {
                                "name": "account",
                                "type": "address",
                                "value": "0xdbaa04796cb5c05d02b8a41b702d9b67c13c9fa9"
                            }
                        ],
                        "constructorArguments": "",
                        "name": "balanceOf",
                        "returnParams": [
                            {
                                "decimalAvailable": true,
                                "name": "",
                                "type": "uint256",
                                "value": "16,897,126,364,751,663,897,639,049"
                            }
                        ],
                        "signature": "balanceOf(address)"
                    },
                    "errorInfo": "",
                    "fromAddress": "0xdbaa04796cb5c05d02b8a41b702d9b67c13c9fa9",
                    "gasUsed": 487,
                    "id": 9,
                    "methodDecoded": true,
                    "operation": "STATICCALL",
                    "output": "0x0000000000000000000000000000000000000000000dfa1b0e40794c2fb1f889",
                    "revert": false,
                    "revertMessage": "",
                    "selector": "0x70a08231",
                    "status": true,
                    "value": "0"
                },
                "nodeType": 0
            }
        },
        "gasFlame": [
            {
                "children": [
                    {
                        "children": [
                            {
                                "children": [],
                                "depth": 0,
                                "name": "Initial Gas",
                                "value": 23392
                            },
                            {
                                "children": [
                                    {
                                        "children": [],
                                        "depth": 1,
                                        "name": "getReserves",
                                        "value": 2517
                                    },
                                    {
                                        "children": [],
                                        "depth": 1,
                                        "name": "getReserves",
                                        "value": 2517
                                    },
                                    {
                                        "children": [],
                                        "depth": 1,
                                        "name": "transferFrom",
                                        "value": 23277
                                    },
                                    {
                                        "children": [
                                            {
                                                "children": [],
                                                "depth": 2,
                                                "name": "transfer",
                                                "value": 12862
                                            },
                                            {
                                                "children": [],
                                                "depth": 2,
                                                "name": "balanceOf",
                                                "value": 487
                                            },
                                            {
                                                "children": [],
                                                "depth": 2,
                                                "name": "balanceOf",
                                                "value": 534
                                            }
                                        ],
                                        "depth": 1,
                                        "name": "swap",
                                        "value": 48079
                                    },
                                    {
                                        "children": [
                                            {
                                                "children": [],
                                                "depth": 2,
                                                "name": "transfer",
                                                "value": 24501
                                            },
                                            {
                                                "children": [],
                                                "depth": 2,
                                                "name": "balanceOf",
                                                "value": 534
                                            },
                                            {
                                                "children": [],
                                                "depth": 2,
                                                "name": "balanceOf",
                                                "value": 1031
                                            }
                                        ],
                                        "depth": 1,
                                        "name": "swap",
                                        "value": 60135
                                    }
                                ],
                                "depth": 0,
                                "name": "Executed Gas",
                                "value": 157662
                            }
                        ],
                        "depth": -1,
                        "name": "Actual Gas Used",
                        "value": 175454
                    },
                    {
                        "children": [],
                        "depth": -1,
                        "name": "Refunded Gas",
                        "value": 5600
                    }
                ],
                "depth": -2,
                "name": "Total Gas",
                "value": 181054
            }
        ],
        "isConfirmed": true,
        "mainTrace": [
            {
                "children": [
                    {
                        "children": [
                            {
                                "children": [],
                                "depth": 1,
                                "id": 1,
                                "order": 1
                            },
                            {
                                "children": [],
                                "depth": 1,
                                "id": 2,
                                "order": 2
                            },
                            {
                                "children": [
                                    {
                                        "children": [],
                                        "depth": 2,
                                        "id": 4,
                                        "order": 4
                                    },
                                    {
                                        "children": [],
                                        "depth": 2,
                                        "id": 5,
                                        "order": 5
                                    }
                                ],
                                "depth": 1,
                                "id": 3,
                                "order": 3
                            },
                            {
                                "children": [
                                    {
                                        "children": [
                                            {
                                                "children": [],
                                                "depth": 3,
                                                "id": 8,
                                                "order": 8
                                            }
                                        ],
                                        "depth": 2,
                                        "id": 7,
                                        "order": 7
                                    },
                                    {
                                        "children": [],
                                        "depth": 2,
                                        "id": 9,
                                        "order": 9
                                    },
                                    {
                                        "children": [],
                                        "depth": 2,
                                        "id": 10,
                                        "order": 10
                                    },
                                    {
                                        "children": [],
                                        "depth": 2,
                                        "id": 11,
                                        "order": 11
                                    },
                                    {
                                        "children": [],
                                        "depth": 2,
                                        "id": 12,
                                        "order": 12
                                    }
                                ],
                                "depth": 1,
                                "id": 6,
                                "order": 6
                            },
                            {
                                "children": [
                                    {
                                        "children": [
                                            {
                                                "children": [],
                                                "depth": 3,
                                                "id": 15,
                                                "order": 15
                                            }
                                        ],
                                        "depth": 2,
                                        "id": 14,
                                        "order": 14
                                    },
                                    {
                                        "children": [],
                                        "depth": 2,
                                        "id": 16,
                                        "order": 16
                                    },
                                    {
                                        "children": [],
                                        "depth": 2,
                                        "id": 17,
                                        "order": 17
                                    },
                                    {
                                        "children": [],
                                        "depth": 2,
                                        "id": 18,
                                        "order": 18
                                    },
                                    {
                                        "children": [],
                                        "depth": 2,
                                        "id": 19,
                                        "order": 19
                                    }
                                ],
                                "depth": 1,
                                "id": 13,
                                "order": 13
                            }
                        ],
                        "depth": 0,
                        "id": 0,
                        "order": 0
                    }
                ],
                "depth": -1,
                "id": -1,
                "order": -1
            }
        ],
        "mainTraceNodeCount": 20,
        "parentIdMap": {
            "0": -1,
            "1": 0,
            "10": 6,
            "11": 6,
            "12": 6,
            "13": 0,
            "14": 13,
            "15": 14,
            "16": 13,
            "17": 13,
            "18": 13,
            "19": 13,
            "2": 0,
            "3": 0,
            "4": 3,
            "5": 3,
            "6": 0,
            "7": 6,
            "8": 7,
            "9": 6
        },
        "tidyTrace": [
            {
                "children": [
                    {
                        "children": [
                            {
                                "children": [
                                    {
                                        "children": [],
                                        "depth": 2,
                                        "id": 4,
                                        "order": 4
                                    },
                                    {
                                        "children": [],
                                        "depth": 2,
                                        "id": 5,
                                        "order": 5
                                    }
                                ],
                                "depth": 1,
                                "id": 3,
                                "order": 3
                            },
                            {
                                "children": [
                                    {
                                        "children": [
                                            {
                                                "children": [],
                                                "depth": 3,
                                                "id": 8,
                                                "order": 8
                                            }
                                        ],
                                        "depth": 2,
                                        "id": 7,
                                        "order": 7
                                    },
                                    {
                                        "children": [],
                                        "depth": 2,
                                        "id": 11,
                                        "order": 11
                                    },
                                    {
                                        "children": [],
                                        "depth": 2,
                                        "id": 12,
                                        "order": 12
                                    }
                                ],
                                "depth": 1,
                                "id": 6,
                                "order": 6
                            },
                            {
                                "children": [
                                    {
                                        "children": [
                                            {
                                                "children": [],
                                                "depth": 3,
                                                "id": 15,
                                                "order": 15
                                            }
                                        ],
                                        "depth": 2,
                                        "id": 14,
                                        "order": 14
                                    },
                                    {
                                        "children": [],
                                        "depth": 2,
                                        "id": 18,
                                        "order": 18
                                    },
                                    {
                                        "children": [],
                                        "depth": 2,
                                        "id": 19,
                                        "order": 19
                                    }
                                ],
                                "depth": 1,
                                "id": 13,
                                "order": 13
                            }
                        ],
                        "depth": 0,
                        "id": 0,
                        "order": 0
                    }
                ],
                "depth": -1,
                "id": -1,
                "order": -1
            }
        ],
        "tidyTraceNodeCount": 14
    },
    "state_change": {
        "stateChanges": [
            {
                "address": "0x06da0fd433c1a5d7a4faa01111c044910a184553",
                "erc": "ERC-20",
                "slots": [
                    {
                        "current": "0x0000000000000000000000a3f957a7a433add4fc53431bda2d5fe819ccd4df0e",
                        "key": "0x000000000000000000000000000000000000000000000000000000000000000a",
                        "prev": "0x0000000000000000000000a3f932175ceb9d063898444b202e025133f8128416"
                    },
                    {
                        "current": "0x631884a1000000000000000009e309a0eee0000000000185b0ed90c7a3e2453c",
                        "key": "0x0000000000000000000000000000000000000000000000000000000000000008",
                        "prev": "0x631883ad000000000000000009e32ae86cae000000000185abc9fbaf34e80380"
                    },
                    {
                        "current": "0x0000000000000000000000000000000000002430e937474ac1540688c181d4c2",
                        "key": "0x0000000000000000000000000000000000000000000000000000000000000009",
                        "prev": "0x0000000000000000000000000000000000002430e30656dfdcd66fd38b84d03e"
                    }
                ],
                "storageVariables": [
                    {
                        "name": "price0CumulativeLast",
                        "type": "uint256",
                        "value": {
                            "current": "734041874367020285784139751347394",
                            "prev": "734039958293182240969481177583678",
                            "typeTag": 1
                        }
                    },
                    {
                        "name": "price1CumulativeLast",
                        "type": "uint256",
                        "value": {
                            "current": "239648260355331335866946750707820415848759371816718",
                            "prev": "239647422659333976322898373059218189188186449806358",
                            "typeTag": 1
                        }
                    },
                    {
                        "name": "reserve0",
                        "type": "uint112",
                        "value": {
                            "current": "7188532449980293727548",
                            "prev": "7188162146453745566592",
                            "typeTag": 1
                        }
                    },
                    {
                        "name": "reserve1",
                        "type": "uint112",
                        "value": {
                            "current": "10870723768032",
                            "prev": "10871282101422",
                            "typeTag": 1
                        }
                    },
                    {
                        "name": "blockTimestampLast",
                        "type": "uint32",
                        "value": {
                            "current": "1662551201",
                            "prev": "1662550957",
                            "typeTag": 1
                        }
                    }
                ]
            },
            {
                "address": "0x1c9922314ed1415c95b9fd453c3818fd41867d0b",
                "erc": "ERC-20",
                "slots": [
                    {
                        "current": "0xffffffffffffffffffffffffffffffffffffffffffffdfe70b2fad8b20d6ffff",
                        "key": "0x648b3078455e546fbd735f9d75e4e38375dec58cef7fd4862fdd59e205e1cf6f",
                        "prev": "0xffffffffffffffffffffffffffffffffffffffffffffffffffffffffffffffff"
                    },
                    {
                        "current": "0x00000000000000000000000000000000000000000000000000093bb85628e12a",
                        "key": "0x9d4c671f1350cca76503cd8c7d2973b9c5561a9f02080dfee6dbf5dede1685ac",
                        "prev": "0x000000000000000000000000000000000000000000002018f4d98e2d3551e12a"
                    },
                    {
                        "current": "0x0000000000000000000000000000000000000000000dfa1b0e40794c2fb1f889",
                        "key": "0x862a5184bd4ceaf69081264700e3353331a5d8a20d564514790333e8c4b0f683",
                        "prev": "0x0000000000000000000000000000000000000000000dda02197026d75088f889"
                    }
                ],
                "storageVariables": [
                    {
                        "name": "_allowances",
                        "type": "mapping(address => mapping(address => uint256))",
                        "value": {
                            "pairs": [
                                {
                                    "key": "0x947c4efaf086821ed8f5d3980d466808f3fe4808",
                                    "value": {
                                        "pairs": [
                                            {
                                                "key": "0xd9e1ce17f2641f24ae83637ab66a2cca9c378b9f",
                                                "value": {
                                                    "current": "115792089237316195423570985008687907853269984665640563887881494007913129639935",
                                                    "prev": "115792089237316195423570985008687907853269984665640564039457584007913129639935",
                                                    "typeTag": 1
                                                }
                                            }
                                        ],
                                        "typeTag": 4
                                    }
                                }
                            ],
                            "typeTag": 4
                        }
                    },
                    {
                        "name": "_balances",
                        "type": "mapping(address => uint256)",
                        "value": {
                            "pairs": [
                                {
                                    "key": "0x947c4efaf086821ed8f5d3980d466808f3fe4808",
                                    "value": {
                                        "current": "2598937695936810",
                                        "prev": "151576092598937695936810",
                                        "typeTag": 1
                                    }
                                },
                                {
                                    "key": "0xdbaa04796cb5c05d02b8a41b702d9b67c13c9fa9",
                                    "value": {
                                        "current": "16897126364751663897639049",
                                        "prev": "16745550274751663897639049",
                                        "typeTag": 1
                                    }
                                }
                            ],
                            "typeTag": 4
                        }
                    }
                ]
            },
            {
                "address": "0xc02aaa39b223fe8d0a0e5c4f27ead9083c756cc2",
                "erc": "ERC-20",
                "slots": [
                    {
                        "current": "0x0000000000000000000000000000000000000000000000023971e08589070b53",
                        "key": "0x4a631cdbed6f496c800ba66024176e6cd2739bec52a3e3316307f3983c2f63c0",
                        "prev": "0x0000000000000000000000000000000000000000000000023e95759df8014d0f"
                    },
                    {
                        "current": "0x000000000000000000000000000000000000000000000185b0ed90c7a3e2453c",
                        "key": "0x05e950c03214daf5e318e3c0401e87e5c3b14177b9a9993d2e5f6176bb0f752a",
                        "prev": "0x000000000000000000000000000000000000000000000185abc9fbaf34e80380"
                    }
                ],
                "storageVariables": [
                    {
                        "name": "balanceOf",
                        "type": "mapping(address => uint256)",
                        "value": {
                            "pairs": [
                                {
                                    "key": "0x06da0fd433c1a5d7a4faa01111c044910a184553",
                                    "value": {
                                        "current": "7188532449980293727548",
                                        "prev": "7188162146453745566592",
                                        "typeTag": 1
                                    }
                                },
                                {
                                    "key": "0xdbaa04796cb5c05d02b8a41b702d9b67c13c9fa9",
                                    "value": {
                                        "current": "41032824544083512147",
                                        "prev": "41403128070631673103",
                                        "typeTag": 1
                                    }
                                }
                            ],
                            "typeTag": 4
                        }
                    }
                ]
            },
            {
                "address": "0xdac17f958d2ee523a2206206994597c13d831ec7",
                "erc": "ERC-20",
                "slots": [
                    {
                        "current": "0x000000000000000000000000000000000000000000000000000009e309a0eee0",
                        "key": "0x1572aaefe0b2199f071561b88893f3a8e7cdfabcde8e36f23fcc9ea63b8e0c8c",
                        "prev": "0x000000000000000000000000000000000000000000000000000009e32ae86cae"
                    },
                    {
                        "current": "0x00000000000000000000000000000000000000000000000000000000236a9096",
                        "key": "0x7a6adbf389accf64ac230d1d4f1e7b97d9a0fab318a09f8aac99a5d59924a1a6",
                        "prev": "0x00000000000000000000000000000000000000000000000000000000022312c8"
                    }
                ],
                "storageVariables": [
                    {
                        "name": "balances",
                        "type": "mapping(address => uint256)",
                        "value": {
                            "pairs": [
                                {
                                    "key": "0x06da0fd433c1a5d7a4faa01111c044910a184553",
                                    "value": {
                                        "current": "10870723768032",
                                        "prev": "10871282101422",
                                        "typeTag": 1
                                    }
                                },
                                {
                                    "key": "0x947c4efaf086821ed8f5d3980d466808f3fe4808",
                                    "value": {
                                        "current": "594186390",
                                        "prev": "35853000",
                                        "typeTag": 1
                                    }
                                }
                            ],
                            "typeTag": 4
                        }
                    }
                ]
            },
            {
                "address": "0xdbaa04796cb5c05d02b8a41b702d9b67c13c9fa9",
                "erc": "ERC-20",
                "slots": [
                    {
                        "current": "0x00000000000000000000000000000000015bb4f3ad14c97dc9c19c0a02831675",
                        "key": "0x0000000000000000000000000000000000000000000000000000000000000009",
                        "prev": "0x00000000000000000000000000000000015bae937ab9f09e7a9d0ab6b956b6fd"
                    },
                    {
                        "current": "0x00000000000000000000000005cff7a946b365f7bfb539e546019fef2ec8c2bc",
                        "key": "0x000000000000000000000000000000000000000000000000000000000000000a",
                        "prev": "0x00000000000000000000000005cf04d462bd9b8d35678017e469b39d1f0d79c5"
                    },
                    {
                        "current": "0x631884a10000000000023971e08589070b530000000dfa1b0e40794c2fb1f889",
                        "key": "0x0000000000000000000000000000000000000000000000000000000000000008",
                        "prev": "0x63185d480000000000023e95759df8014d0f0000000dda02197026d75088f889"
                    }
                ],
                "storageVariables": [
                    {
                        "name": "price1CumulativeLast",
                        "type": "uint256",
                        "value": {
                            "current": "33182782446537640025664335429157113799639614140",
                            "prev": "33161628830469393545776602072590967710174509509",
                            "typeTag": 1
                        }
                    },
                    {
                        "name": "reserve0",
                        "type": "uint112",
                        "value": {
                            "current": "16897126364751663897639049",
                            "prev": "16745550274751663897639049",
                            "typeTag": 1
                        }
                    },
                    {
                        "name": "reserve1",
                        "type": "uint112",
                        "value": {
                            "current": "41032824544083512147",
                            "prev": "41403128070631673103",
                            "typeTag": 1
                        }
                    },
                    {
                        "name": "blockTimestampLast",
                        "type": "uint32",
                        "value": {
                            "current": "1662551201",
                            "prev": "1662541128",
                            "typeTag": 1
                        }
                    },
                    {
                        "name": "price0CumulativeLast",
                        "type": "uint256",
                        "value": {
                            "current": "1805397149649770185539556086848362101",
                            "prev": "1805267833704468940820962265508787965",
                            "typeTag": 1
                        }
                    }
                ]
            }
        ]
    }
}