{
    "balance_change": {
        "balanceChanges": [
            {
                "account": "0x9a3a349ff48aa7821247e2acbfd7d5a6a8b130ba",
                "assets": [
                    {
                        "address": "0x21ab6c9fac80c59d401b37cb43f81ea9dde7fe34",
                        "amount": "776",
                        "iconUrl": "",
                        "isERC1155": false,
                        "isERC721": false,
                        "sign": false,
                        "value": ""
                    }
                ]
            },
            {
                "account": "0xb1c792e03117b54bbfa5955e14e300e95a91efb9",
                "assets": [
                    {
                        "address": "0x21ab6c9fac80c59d401b37cb43f81ea9dde7fe34",
                        "amount": "776",
                        "iconUrl": "",
                        "isERC1155": false,
                        "isERC721": false,
                        "sign": true,
                        "value": ""
                    }
                ]
            }
        ]
    },
    "profile": {
        "basic_info": {
            "baseFee": "",
            "blockNumber": 7758126,
            "callData": "0xa9059cbb000000000000000000000000b1c792e03117b54bbfa5955e14e300e95a91efb90000000000000000000000000000000000000000000000000000001211520800",
            "debugEnable": true,
            "errorInfo": "",
            "eventCount": 1,
            "feeRecipient": "0x2a65aca4d5fc5b5c859090a6c34d164135398226",
            "formatValue": "0",
            "gasLimit": 55000,
            "gasPrice": "40",
            "gasUsed": 51936,
            "intTxnCount": 0,
            "internalRevert": false,
            "internalRevertMessage": "",
            "isContractCreation": false,
            "isFlashloan": false,
            "maxFee": "",
            "nonce": 21655,
            "overwritedBlockNumber": -1,
            "priorityFee": "",
            "receiver": "0x21ab6c9fac80c59d401b37cb43f81ea9dde7fe34",
            "revertMessage": "",
            "sender": "0x9a3a349ff48aa7821247e2acbfd7d5a6a8b130ba",
            "simulationEnable": true,
            "sourceTxnHash": "0x95a674720a31f58fc21857dcebcca1da1e898bd65171c9a0dea3f45b109d42ea",
            "status": true,
            "timestamp": "2019-05-14T11:05:52Z",
            "transactionFee": "0.00207744",
            "txnHash": "0x95a674720a31f58fc21857dcebcca1da1e898bd65171c9a0dea3f45b109d42ea",
            "txnIndex": 1,
            "type": 0,
            "value": "0"
        },
        "fund_flow": [
            {
                "amount": "776",
                "from": "0x9a3a349ff48aa7821247e2acbfd7d5a6a8b130ba",
                "id": 1,
                "isERC1155": false,
                "isERC721": false,
                "isReverted": false,
                "order": 1,
                "to": "0xb1c792e03117b54bbfa5955e14e300e95a91efb9",
                "token": "0x21ab6c9fac80c59d401b37cb43f81ea9dde7fe34"
            }
        ],
        "token_infos": [
            {
                "address": "0x21ab6c9fac80c59d401b37cb43f81ea9dde7fe34",
                "decimals": 8
            },
            {
                "address": "0xc02aaa39b223fe8d0a0e5c4f27ead9083c756cc2",
                "decimals": 18
            },
            {
                "address": "0xeeeeeeeeeeeeeeeeeeeeeeeeeeeeeeeeeeeeeeee",
                "decimals": 18
            }
        ]
    },
    "address_label": {
        "labels": [
            {
                "address": "0x21ab6c9fac80c59d401b37cb43f81ea9dde7fe34",
                "label": "Baer Chain: BRC Token"
            },
            {
                "address": "0x0000000000000000000000000000000000000001",
                "label": "Precompiled"
            },
            {
                "address": "0x0000000000000000000000000000000000000002",
                "label": "Precompiled"
            },
            {
                "address": "0x0000000000000000000000000000000000000003",
                "label": "Precompiled"
            },
            {
                "address": "0x0000000000000000000000000000000000000004",
                "label": "Precompiled"
            },
            {
                "address": "0xeeeeeeeeeeeeeeeeeeeeeeeeeeeeeeeeeeeeeeee",
                "label": "Ether"
            },
            {
                "address": "0xb1c792e03117b54bbfa5955e14e300e95a91efb9",
                "label": "ZB.COM"
            }
        ]
    },
    "trace": {
        "accountLabels": null,
        "dataMap": {
            "-1": {
                "invocation": {
                    "address": "0x9a3a349ff48aa7821247e2acbfd7d5a6a8b130ba",
                    "callData": "",
                    "decodedMethod": null,
                    "errorInfo": "",
                    "fromAddress": "",
                    "gasUsed": 0,
                    "id": -1,
                    "methodDecoded": false,
                    "operation": "",
                    "output": "",
                    "revert": false,
                    "revertMessage": "",
                    "selector": "",
                    "status": false,
                    "value": ""
                },
                "nodeType": 0
            },
            "0": {
                "invocation": {
                    "address": "0x21ab6c9fac80c59d401b37cb43f81ea9dde7fe34",
                    "callData": "0x000000000000000000000000b1c792e03117b54bbfa5955e14e300e95a91efb90000000000000000000000000000000000000000000000000000001211520800",
                    "decodedMethod": {
                        "callParams": [
                            {
                                "name": "_to",
                                "type": "address",
                                "value": "0xb1c792e03117b54bbfa5955e14e300e95a91efb9"
                            },
                            {
                                "decimalAvailable": true,
                                "name": "_amount",
                                "type": "uint256",
                                "value": "77,600,000,000"
                            }
                        ],
                        "constructorArguments": "",
                        "name": "transfer",
                        "returnParams": [
                            {
                                "name": "success",
                                "type": "bool",
                                "value": true
                            }
                        ],
                        "signature": "transfer(address,uint256)"
                    },
                    "errorInfo": "",
                    "fromAddress": "0x9a3a349ff48aa7821247e2acbfd7d5a6a8b130ba",
                    "gasUsed": 51936,
                    "id": 0,
                    "methodDecoded": true,
                    "operation": "CALL",
                    "output": "0x0000000000000000000000000000000000000000000000000000000000000001",
                    "revert": false,
                    "revertMessage": "",
                    "selector": "0xa9059cbb",
                    "status": true,
                    "value": "0"
                },
                "nodeType": 0
            },
            "1": {
                "event": {
                    "contract": "0x21ab6c9fac80c59d401b37cb43f81ea9dde7fe34",
                    "decodedLog": {
                        "name": "Transfer",
                        "params": [
                            {
                                "name": "_from",
                                "type": "address",
                                "value": "0x9a3a349ff48aa7821247e2acbfd7d5a6a8b130ba"
                            },
                            {
                                "name": "_to",
                                "type": "address",
                                "value": "0xb1c792e03117b54bbfa5955e14e300e95a91efb9"
                            },
                            {
                                "decimalAvailable": true,
                                "name": "_value",
                                "type": "uint256",
                                "value": "77,600,000,000"
                            }
                        ],
                        "signature": "Transfer(address,address,uint256)"
                    },
                    "id": 1,
                    "logData": "0x0000000000000000000000000000000000000000000000000000001211520800",
                    "logDecoded": true,
                    "operation": "EVENT",
                    "revert": false,
                    "status": true,
                    "topics": [
                        "0xddf252ad1be2c89b69c2b068fc378daa952ba7f163c4a11628f55a4df523b3ef",
                        "0x0000000000000000000000009a3a349ff48aa7821247e2acbfd7d5a6a8b130ba",
                        "0x000000000000000000000000b1c792e03117b54bbfa5955e14e300e95a91efb9"
                    ]
                },
                "nodeType": 1
            }
        },
        "gasFlame": [
            {
                "children": [
                    {
                        "children": [
                            {
                                "children": [],
                                "depth": 0,
                                "name": "Initial Gas",
                                "value": 23000
                            },
                            {
                                "children": [],
                                "depth": 0,
                                "name": "Executed Gas",
                                "value": 28936
                            }
                        ],
                        "depth": -1,
                        "name": "Actual Gas Used",
                        "value": 51936
                    },
                    {
                        "children": [],
                        "depth": -1,
                        "name": "Refunded Gas",
                        "value": 0
                    }
                ],
                "depth": -2,
                "name": "Total Gas",
                "value": 51936
            }
        ],
        "isConfirmed": true,
        "mainTrace": [
            {
                "children": [
                    {
                        "children": [
                            {
                                "children": [],
                                "depth": 1,
                                "id": 1,
                                "order": 1
                            }
                        ],
                        "depth": 0,
                        "id": 0,
                        "order": 0
                    }
                ],
                "depth": -1,
                "id": -1,
                "order": -1
            }
        ],
        "mainTraceNodeCount": 2,
        "parentIdMap": {
            "0": -1,
            "1": 0
        },
        "tidyTrace": [
            {
                "children": [
                    {
                        "children": [
                            {
                                "children": [],
                                "depth": 1,
                                "id": 1,
                                "order": 1
                            }
                        ],
                        "depth": 0,
                        "id": 0,
                        "order": 0
                    }
                ],
                "depth": -1,
                "id": -1,
                "order": -1
            }
        ],
        "tidyTraceNodeCount": 2
    },
    "state_change": {
        "stateChanges": [
            {
                "address": "0x21ab6c9fac80c59d401b37cb43f81ea9dde7fe34",
                "erc": "ERC-20",
                "slots": [
                    {
                        "current": "0x0000000000000000000000000000000000000000000000000000001211520800",
                        "key": "0x6a80d69653e634e3207f0ed27ab3d2b97a9e2c321db0c420bb02885acaf15507",
                        "prev": "0x0000000000000000000000000000000000000000000000000000000000000000"
                    },
                    {
                        "current": "0x00000000000000000000000000000000000000000000000000002749b55ba415",
                        "key": "0xc0dec12e774e61703c17ec16d95066f0727ad69f8a182f4e5aba229fc8fd4ad3",
                        "prev": "0x0000000000000000000000000000000000000000000000000000275bc6adac15"
                    }
                ],
                "storageVariables": [
                    {
                        "name": "balances",
                        "type": "mapping(address => uint256)",
                        "value": {
                            "pairs": [
                                {
                                    "key": "0x9a3a349ff48aa7821247e2acbfd7d5a6a8b130ba",
                                    "value": {
                                        "current": "43197528777749",
                                        "prev": "43275128777749",
                                        "typeTag": 1
                                    }
                                },
                                {
                                    "key": "0xb1c792e03117b54bbfa5955e14e300e95a91efb9",
                                    "value": {
                                        "current": "77600000000",
                                        "prev": "0",
                                        "typeTag": 1
                                    }
                                }
                            ],
                            "typeTag": 4
                        }
                    }
                ]
            }
        ]
    }
}