{
    "balance_change": {
        "balanceChanges": [
            {
                "account": "0x8c942411d2ef31b53e292ad2fdffee908aba4539",
                "assets": [
                    {
                        "address": "0x6b0d7b8357bb851de9f1953199c39c7bc4675796",
                        "amount": "280,250",
                        "iconUrl": "",
                        "isERC1155": false,
                        "isERC721": false,
                        "sign": false,
                        "value": ""
                    }
                ]
            },
            {
                "account": "0xabe6bc371cf936ef52653d50137e6ac8e06b8de3",
                "assets": [
                    {
                        "address": "0x6b0d7b8357bb851de9f1953199c39c7bc4675796",
                        "amount": "280,250",
                        "iconUrl": "",
                        "isERC1155": false,
                        "isERC721": false,
                        "sign": true,
                        "value": ""
                    }
                ]
            }
        ]
    },
    "profile": {
        "basic_info": {
            "baseFee": "",
            "blockNumber": 7409809,
            "callData": "0xa9059cbb000000000000000000000000abe6bc371cf936ef52653d50137e6ac8e06b8de3000000000000000000000000000000000000000000003b5862087bdcf6a80000",
            "debugEnable": true,
            "errorInfo": "",
            "eventCount": 1,
            "feeRecipient": "0x84a0d77c693adabe0ebc48f88b3ffff010577051",
            "formatValue": "0",
            "gasLimit": 144000,
            "gasPrice": "21",
            "gasUsed": 52906,
            "intTxnCount": 0,
            "internalRevert": false,
            "internalRevertMessage": "",
            "isContractCreation": false,
            "isFlashloan": false,
            "maxFee": "",
            "nonce": 1405,
            "overwritedBlockNumber": -1,
            "priorityFee": "",
            "receiver": "0x6b0d7b8357bb851de9f1953199c39c7bc4675796",
            "revertMessage": "",
            "sender": "0x8c942411d2ef31b53e292ad2fdffee908aba4539",
            "simulationEnable": true,
            "sourceTxnHash": "0x9540f4398245edcb0f1b9ea53318da84b9120fc9ec7f3f1b1d9db66bfcecea9c",
            "status": true,
            "timestamp": "2019-03-21T03:37:11Z",
            "transactionFee": "0.001111026",
            "txnHash": "0x9540f4398245edcb0f1b9ea53318da84b9120fc9ec7f3f1b1d9db66bfcecea9c",
            "txnIndex": 31,
            "type": 0,
            "value": "0"
        },
        "fund_flow": [
            {
                "amount": "280,250",
                "from": "0x8c942411d2ef31b53e292ad2fdffee908aba4539",
                "id": 1,
                "isERC1155": false,
                "isERC721": false,
                "isReverted": false,
                "order": 1,
                "to": "0xabe6bc371cf936ef52653d50137e6ac8e06b8de3",
                "token": "0x6b0d7b8357bb851de9f1953199c39c7bc4675796"
            }
        ],
        "token_infos": [
            {
                "address": "0xc02aaa39b223fe8d0a0e5c4f27ead9083c756cc2",
                "decimals": 18
            },
            {
                "address": "0xeeeeeeeeeeeeeeeeeeeeeeeeeeeeeeeeeeeeeeee",
                "decimals": 18
            },
            {
                "address": "0x6b0d7b8357bb851de9f1953199c39c7bc4675796",
                "decimals": 18
            }
        ]
    },
    "address_label": {
        "labels": [
            {
                "address": "0xeeeeeeeeeeeeeeeeeeeeeeeeeeeeeeeeeeeeeeee",
                "label": "Ether"
            },
            {
                "address": "0x6b0d7b8357bb851de9f1953199c39c7bc4675796",
                "label": "Sun Chain: SUNC Token"
            },
            {
                "address": "0x0000000000000000000000000000000000000001",
                "label": "Precompiled"
            },
            {
                "address": "0x0000000000000000000000000000000000000002",
                "label": "Precompiled"
            },
            {
                "address": "0x0000000000000000000000000000000000000003",
                "label": "Precompiled"
            },
            {
                "address": "0x0000000000000000000000000000000000000004",
                "label": "Precompiled"
            }
        ]
    },
    "trace": {
        "accountLabels": null,
        "dataMap": {
            "-1": {
                "invocation": {
                    "address": "0x8c942411d2ef31b53e292ad2fdffee908aba4539",
                    "callData": "",
                    "decodedMethod": null,
                    "errorInfo": "",
                    "fromAddress": "",
                    "gasUsed": 0,
                    "id": -1,
                    "methodDecoded": false,
                    "operation": "",
                    "output": "",
                    "revert": false,
                    "revertMessage": "",
                    "selector": "",
                    "status": false,
                    "value": ""
                },
                "nodeType": 0
            },
            "0": {
                "invocation": {
                    "address": "0x6b0d7b8357bb851de9f1953199c39c7bc4675796",
                    "callData": "0x000000000000000000000000abe6bc371cf936ef52653d50137e6ac8e06b8de3000000000000000000000000000000000000000000003b5862087bdcf6a80000",
                    "decodedMethod": {
                        "callParams": [
                            {
                                "name": "_to",
                                "type": "address",
                                "value": "0xabe6bc371cf936ef52653d50137e6ac8e06b8de3"
                            },
                            {
                                "decimalAvailable": true,
                                "name": "_value",
                                "type": "uint256",
                                "value": "280,250,000,000,000,000,000,000"
                            }
                        ],
                        "constructorArguments": "",
                        "name": "transfer",
                        "returnParams": [],
                        "signature": "transfer(address,uint256)"
                    },
                    "errorInfo": "",
                    "fromAddress": "0x8c942411d2ef31b53e292ad2fdffee908aba4539",
                    "gasUsed": 52906,
                    "id": 0,
                    "methodDecoded": true,
                    "operation": "CALL",
                    "output": "",
                    "revert": false,
                    "revertMessage": "",
                    "selector": "0xa9059cbb",
                    "status": true,
                    "value": "0"
                },
                "nodeType": 0
            },
            "1": {
                "event": {
                    "contract": "0x6b0d7b8357bb851de9f1953199c39c7bc4675796",
                    "decodedLog": {
                        "name": "Transfer",
                        "params": [
                            {
                                "name": "from",
                                "type": "address",
                                "value": "0x8c942411d2ef31b53e292ad2fdffee908aba4539"
                            },
                            {
                                "name": "to",
                                "type": "address",
                                "value": "0xabe6bc371cf936ef52653d50137e6ac8e06b8de3"
                            },
                            {
                                "decimalAvailable": true,
                                "name": "value",
                                "type": "uint256",
                                "value": "280,250,000,000,000,000,000,000"
                            }
                        ],
                        "signature": "Transfer(address,address,uint256)"
                    },
                    "id": 1,
                    "logData": "0x000000000000000000000000000000000000000000003b5862087bdcf6a80000",
                    "logDecoded": true,
                    "operation": "EVENT",
                    "revert": false,
                    "status": true,
                    "topics": [
                        "0xddf252ad1be2c89b69c2b068fc378daa952ba7f163c4a11628f55a4df523b3ef",
                        "0x0000000000000000000000008c942411d2ef31b53e292ad2fdffee908aba4539",
                        "0x000000000000000000000000abe6bc371cf936ef52653d50137e6ac8e06b8de3"
                    ]
                },
                "nodeType": 1
            }
        },
        "gasFlame": [
            {
                "children": [
                    {
                        "children": [
                            {
                                "children": [],
                                "depth": 0,
                                "name": "Initial Gas",
                                "value": 23320
                            },
                            {
                                "children": [],
                                "depth": 0,
                                "name": "Executed Gas",
                                "value": 29586
                            }
                        ],
                        "depth": -1,
                        "name": "Actual Gas Used",
                        "value": 52906
                    },
                    {
                        "children": [],
                        "depth": -1,
                        "name": "Refunded Gas",
                        "value": 0
                    }
                ],
                "depth": -2,
                "name": "Total Gas",
                "value": 52906
            }
        ],
        "isConfirmed": true,
        "mainTrace": [
            {
                "children": [
                    {
                        "children": [
                            {
                                "children": [],
                                "depth": 1,
                                "id": 1,
                                "order": 1
                            }
                        ],
                        "depth": 0,
                        "id": 0,
                        "order": 0
                    }
                ],
                "depth": -1,
                "id": -1,
                "order": -1
            }
        ],
        "mainTraceNodeCount": 2,
        "parentIdMap": {
            "0": -1,
            "1": 0
        },
        "tidyTrace": [
            {
                "children": [
                    {
                        "children": [
                            {
                                "children": [],
                                "depth": 1,
                                "id": 1,
                                "order": 1
                            }
                        ],
                        "depth": 0,
                        "id": 0,
                        "order": 0
                    }
                ],
                "depth": -1,
                "id": -1,
                "order": -1
            }
        ],
        "tidyTraceNodeCount": 2
    },
    "state_change": {
        "stateChanges": [
            {
                "address": "0x6b0d7b8357bb851de9f1953199c39c7bc4675796",
                "erc": "",
                "slots": [
                    {
                        "current": "0x00000000000000000000000000000000000000000008f123f3f861e9cf288000",
                        "key": "0xce5412ada877653daa5dc7d931888877915c71c5339d41ec8b9edc54332c86b9",
                        "prev": "0x000000000000000000000000000000000000000000092c7c5600ddc6c5d08000"
                    },
                    {
                        "current": "0x000000000000000000000000000000000000000000003b5862087bdcf6a80000",
                        "key": "0xa5c5043f9d69f92e331280fa832adcfb53ef8c63ae915247e67fe253264ce0eb",
                        "prev": "0x0000000000000000000000000000000000000000000000000000000000000000"
                    }
                ],
                "storageVariables": [
                    {
                        "name": "balanceOf",
                        "type": "mapping(address => uint256)",
                        "value": {
                            "pairs": [
                                {
                                    "key": "0x8c942411d2ef31b53e292ad2fdffee908aba4539",
                                    "value": {
                                        "current": "10810160095240000000000000",
                                        "prev": "11090410095240000000000000",
                                        "typeTag": 1
                                    }
                                },
                                {
                                    "key": "0xabe6bc371cf936ef52653d50137e6ac8e06b8de3",
                                    "value": {
                                        "current": "280250000000000000000000",
                                        "prev": "0",
                                        "typeTag": 1
                                    }
                                }
                            ],
                            "typeTag": 4
                        }
                    }
                ]
            }
        ]
    }
}