{
    "balance_change": {
        "balanceChanges": [
            {
                "account": "0x28c6c06298d514db089934071355e5743bf21d60",
                "assets": [
                    {
                        "address": "0x5b7533812759b45c2b44c19e320ba2cd2681b542",
                        "amount": "12,258",
                        "iconUrl": "https://assets.blocksec.com/icon/f44f51cd1fc83a13b27bd7681d74f1f997012607855c370a318cd98669a4bbd6.png",
                        "isERC1155": false,
                        "isERC721": false,
                        "sign": false,
                        "value": "7492.0895999999995776"
                    }
                ]
            },
            {
                "account": "0x3aff86656a65f3d81b3e0b4c4f8d4199f3b3fbde",
                "assets": [
                    {
                        "address": "0x5b7533812759b45c2b44c19e320ba2cd2681b542",
                        "amount": "12,258",
                        "iconUrl": "https://assets.blocksec.com/icon/f44f51cd1fc83a13b27bd7681d74f1f997012607855c370a318cd98669a4bbd6.png",
                        "isERC1155": false,
                        "isERC721": false,
                        "sign": true,
                        "value": "7492.0895999999995776"
                    }
                ]
            }
        ]
    },
    "profile": {
        "basic_info": {
            "baseFee": "12.883775069",
            "blockNumber": 20091041,
            "callData": "0xa9059cbb0000000000000000000000003aff86656a65f3d81b3e0b4c4f8d4199f3b3fbde0000000000000000000000000000000000000000000000000000011d675fa200",
            "debugEnable": true,
            "errorInfo": "",
            "eventCount": 1,
            "feeRecipient": "0x1f9090aae28b8a3dceadf281b0f12828e676c326",
            "formatValue": "0",
            "gasLimit": 207128,
            "gasPrice": "15.883775069",
            "gasUsed": 53918,
            "intTxnCount": 0,
            "internalRevert": false,
            "internalRevertMessage": "",
            "isContractCreation": false,
            "isFlashloan": false,
            "maxFee": "102",
            "nonce": 9920411,
            "overwritedBlockNumber": -1,
            "priorityFee": "3",
            "receiver": "0x5b7533812759b45c2b44c19e320ba2cd2681b542",
            "revertMessage": "",
            "sender": "0x28c6c06298d514db089934071355e5743bf21d60",
            "simulationEnable": true,
            "sourceTxnHash": "0x9628b553dc0fd1e4e120c2ccc433da804e1d842b6cb9b4515b31ab701082ff30",
            "status": true,
            "timestamp": "2024-06-14T15:48:23Z",
            "transactionFee": "0.000856421384170342",
            "txnHash": "0x9628b553dc0fd1e4e120c2ccc433da804e1d842b6cb9b4515b31ab701082ff30",
            "txnIndex": 69,
            "type": 2,
            "value": "0"
        },
        "fund_flow": [
            {
                "amount": "12,258",
                "from": "0x28c6c06298d514db089934071355e5743bf21d60",
                "id": 1,
                "isERC1155": false,
                "isERC721": false,
                "isReverted": false,
                "order": 1,
                "to": "0x3aff86656a65f3d81b3e0b4c4f8d4199f3b3fbde",
                "token": "0x5b7533812759b45c2b44c19e320ba2cd2681b542"
            }
        ],
        "token_infos": [
            {
                "address": "0x5b7533812759b45c2b44c19e320ba2cd2681b542",
                "decimals": 8
            },
            {
                "address": "0xc02aaa39b223fe8d0a0e5c4f27ead9083c756cc2",
                "decimals": 18
            },
            {
                "address": "0xeeeeeeeeeeeeeeeeeeeeeeeeeeeeeeeeeeeeeeee",
                "decimals": 18
            }
        ]
    },
    "address_label": {
        "labels": [
            {
                "address": "0x0000000000000000000000000000000000000004",
                "label": "Precompiled"
            },
            {
                "address": "0xeeeeeeeeeeeeeeeeeeeeeeeeeeeeeeeeeeeeeeee",
                "label": "Ether"
            },
            {
                "address": "0x28c6c06298d514db089934071355e5743bf21d60",
                "label": "Binance 14"
            },
            {
                "address": "0x5b7533812759b45c2b44c19e320ba2cd2681b542",
                "label": "SingularityNET: AGIX Token"
            },
            {
                "address": "0x0000000000000000000000000000000000000001",
                "label": "Precompiled"
            },
            {
                "address": "0x0000000000000000000000000000000000000002",
                "label": "Precompiled"
            },
            {
                "address": "0x0000000000000000000000000000000000000003",
                "label": "Precompiled"
            }
        ]
    },
    "trace": {
        "accountLabels": null,
        "dataMap": {
            "-1": {
                "invocation": {
                    "address": "0x28c6c06298d514db089934071355e5743bf21d60",
                    "callData": "",
                    "decodedMethod": null,
                    "errorInfo": "",
                    "fromAddress": "",
                    "gasUsed": 0,
                    "id": -1,
                    "methodDecoded": false,
                    "operation": "",
                    "output": "",
                    "revert": false,
                    "revertMessage": "",
                    "selector": "",
                    "status": false,
                    "value": ""
                },
                "nodeType": 0
            },
            "0": {
                "invocation": {
                    "address": "0x5b7533812759b45c2b44c19e320ba2cd2681b542",
                    "callData": "0x0000000000000000000000003aff86656a65f3d81b3e0b4c4f8d4199f3b3fbde0000000000000000000000000000000000000000000000000000011d675fa200",
                    "decodedMethod": {
                        "callParams": [
                            {
                                "name": "recipient",
                                "type": "address",
                                "value": "0x3aff86656a65f3d81b3e0b4c4f8d4199f3b3fbde"
                            },
                            {
                                "decimalAvailable": true,
                                "name": "amount",
                                "type": "uint256",
                                "value": "1,225,800,000,000"
                            }
                        ],
                        "constructorArguments": "",
                        "name": "transfer",
                        "returnParams": [
                            {
                                "name": "",
                                "type": "bool",
                                "value": true
                            }
                        ],
                        "signature": "transfer(address,uint256)"
                    },
                    "errorInfo": "",
                    "fromAddress": "0x28c6c06298d514db089934071355e5743bf21d60",
                    "gasUsed": 53918,
                    "id": 0,
                    "methodDecoded": true,
                    "operation": "CALL",
                    "output": "0x0000000000000000000000000000000000000000000000000000000000000001",
                    "revert": false,
                    "revertMessage": "",
                    "selector": "0xa9059cbb",
                    "status": true,
                    "value": "0"
                },
                "nodeType": 0
            },
            "1": {
                "event": {
                    "contract": "0x5b7533812759b45c2b44c19e320ba2cd2681b542",
                    "decodedLog": {
                        "name": "Transfer",
                        "params": [
                            {
                                "name": "from",
                                "type": "address",
                                "value": "0x28c6c06298d514db089934071355e5743bf21d60"
                            },
                            {
                                "name": "to",
                                "type": "address",
                                "value": "0x3aff86656a65f3d81b3e0b4c4f8d4199f3b3fbde"
                            },
                            {
                                "decimalAvailable": true,
                                "name": "value",
                                "type": "uint256",
                                "value": "1,225,800,000,000"
                            }
                        ],
                        "signature": "Transfer(address,address,uint256)"
                    },
                    "id": 1,
                    "logData": "0x0000000000000000000000000000000000000000000000000000011d675fa200",
                    "logDecoded": true,
                    "operation": "EVENT",
                    "revert": false,
                    "status": true,
                    "topics": [
                        "0xddf252ad1be2c89b69c2b068fc378daa952ba7f163c4a11628f55a4df523b3ef",
                        "0x00000000000000000000000028c6c06298d514db089934071355e5743bf21d60",
                        "0x0000000000000000000000003aff86656a65f3d81b3e0b4c4f8d4199f3b3fbde"
                    ]
                },
                "nodeType": 1
            }
        },
        "gasFlame": [
            {
                "children": [
                    {
                        "children": [
                            {
                                "children": [],
                                "depth": 0,
                                "name": "Initial Gas",
                                "value": 21620
                            },
                            {
                                "children": [],
                                "depth": 0,
                                "name": "Executed Gas",
                                "value": 32298
                            }
                        ],
                        "depth": -1,
                        "name": "Actual Gas Used",
                        "value": 53918
                    },
                    {
                        "children": [],
                        "depth": -1,
                        "name": "Refunded Gas",
                        "value": 0
                    }
                ],
                "depth": -2,
                "name": "Total Gas",
                "value": 53918
            }
        ],
        "isConfirmed": true,
        "mainTrace": [
            {
                "children": [
                    {
                        "children": [
                            {
                                "children": [],
                                "depth": 1,
                                "id": 1,
                                "order": 1
                            }
                        ],
                        "depth": 0,
                        "id": 0,
                        "order": 0
                    }
                ],
                "depth": -1,
                "id": -1,
                "order": -1
            }
        ],
        "mainTraceNodeCount": 2,
        "parentIdMap": {
            "0": -1,
            "1": 0
        },
        "tidyTrace": [
            {
                "children": [
                    {
                        "children": [
                            {
                                "children": [],
                                "depth": 1,
                                "id": 1,
                                "order": 1
                            }
                        ],
                        "depth": 0,
                        "id": 0,
                        "order": 0
                    }
                ],
                "depth": -1,
                "id": -1,
                "order": -1
            }
        ],
        "tidyTraceNodeCount": 2
    },
    "state_change": {
        "stateChanges": [
            {
                "address": "0x5b7533812759b45c2b44c19e320ba2cd2681b542",
                "erc": "ERC-20",
                "slots": [
                    {
                        "current": "0x00000000000000000000000000000000000000000000000000023091b319fa12",
                        "key": "0x83bdb921ef22306a5d1cd2076713b14c9c19f333dd4229674ec19884e7413404",
                        "prev": "0x000000000000000000000000000000000000000000000000000231af1a799c12"
                    },
                    {
                        "current": "0x0000000000000000000000000000000000000000000000000000011d675fa200",
                        "key": "0x711016a1cb7a38349b6d9cb8682a094d3cb4a265d087efb4599b23f33f405fd3",
                        "prev": "0x0000000000000000000000000000000000000000000000000000000000000000"
                    }
                ],
                "storageVariables": [
                    {
                        "name": "_balances",
                        "type": "mapping(address => uint256)",
                        "value": {
                            "pairs": [
                                {
                                    "key": "0x28c6c06298d514db089934071355e5743bf21d60",
                                    "value": {
                                        "current": "616352286636562",
                                        "prev": "617578086636562",
                                        "typeTag": 1
                                    }
                                },
                                {
                                    "key": "0x3aff86656a65f3d81b3e0b4c4f8d4199f3b3fbde",
                                    "value": {
                                        "current": "1225800000000",
                                        "prev": "0",
                                        "typeTag": 1
                                    }
                                }
                            ],
                            "typeTag": 4
                        }
                    }
                ]
            }
        ]
    }
}