{
    "balance_change": {
        "balanceChanges": [
            {
                "account": "0x925ea5af075bde17811e4bcdc198dc5d3675e466",
                "assets": [
                    {
                        "address": "0x4672bad527107471cb5067a887f4656d585a8a31",
                        "amount": "1,485.68",
                        "iconUrl": "",
                        "isERC1155": false,
                        "isERC721": false,
                        "sign": false,
                        "value": ""
                    }
                ]
            },
            {
                "account": "0xdcd1a6af99159e010da00c7be5e74ccbd0f18aa3",
                "assets": [
                    {
                        "address": "0x4672bad527107471cb5067a887f4656d585a8a31",
                        "amount": "1,485.68",
                        "iconUrl": "",
                        "isERC1155": false,
                        "isERC721": false,
                        "sign": true,
                        "value": ""
                    }
                ]
            }
        ]
    },
    "profile": {
        "basic_info": {
            "baseFee": "",
            "blockNumber": 7174100,
            "callData": "0xa9059cbb000000000000000000000000dcd1a6af99159e010da00c7be5e74ccbd0f18aa300000000000000000000000000000000000000000000005089f3a887ae580000",
            "debugEnable": true,
            "errorInfo": "",
            "eventCount": 1,
            "feeRecipient": "0x5a0b54d5dc17e0aadc383d2db43b0a0d3e029c4c",
            "formatValue": "0",
            "gasLimit": 36721,
            "gasPrice": "8",
            "gasUsed": 36721,
            "intTxnCount": 0,
            "internalRevert": false,
            "internalRevertMessage": "",
            "isContractCreation": false,
            "isFlashloan": false,
            "maxFee": "",
            "nonce": 315987,
            "overwritedBlockNumber": -1,
            "priorityFee": "",
            "receiver": "0x4672bad527107471cb5067a887f4656d585a8a31",
            "revertMessage": "",
            "sender": "0x925ea5af075bde17811e4bcdc198dc5d3675e466",
            "simulationEnable": true,
            "sourceTxnHash": "0x96c49eda606184a5d180897900fe4adf4953f7b2c9dbc87e08709b5f07f40610",
            "status": true,
            "timestamp": "2019-02-04T16:12:03Z",
            "transactionFee": "0.000293768",
            "txnHash": "0x96c49eda606184a5d180897900fe4adf4953f7b2c9dbc87e08709b5f07f40610",
            "txnIndex": 104,
            "type": 0,
            "value": "0"
        },
        "fund_flow": [
            {
                "amount": "1,485.68",
                "from": "0x925ea5af075bde17811e4bcdc198dc5d3675e466",
                "id": 1,
                "isERC1155": false,
                "isERC721": false,
                "isReverted": false,
                "order": 1,
                "to": "0xdcd1a6af99159e010da00c7be5e74ccbd0f18aa3",
                "token": "0x4672bad527107471cb5067a887f4656d585a8a31"
            }
        ],
        "token_infos": [
            {
                "address": "0x4672bad527107471cb5067a887f4656d585a8a31",
                "decimals": 18
            },
            {
                "address": "0xc02aaa39b223fe8d0a0e5c4f27ead9083c756cc2",
                "decimals": 18
            },
            {
                "address": "0xeeeeeeeeeeeeeeeeeeeeeeeeeeeeeeeeeeeeeeee",
                "decimals": 18
            }
        ]
    },
    "address_label": {
        "labels": [
            {
                "address": "0xeeeeeeeeeeeeeeeeeeeeeeeeeeeeeeeeeeeeeeee",
                "label": "Ether"
            },
            {
                "address": "0x4672bad527107471cb5067a887f4656d585a8a31",
                "label": "Dropil (DROP)"
            },
            {
                "address": "0x0000000000000000000000000000000000000001",
                "label": "Precompiled"
            },
            {
                "address": "0x0000000000000000000000000000000000000002",
                "label": "Precompiled"
            },
            {
                "address": "0x0000000000000000000000000000000000000003",
                "label": "Precompiled"
            },
            {
                "address": "0x0000000000000000000000000000000000000004",
                "label": "Precompiled"
            }
        ]
    },
    "trace": {
        "accountLabels": null,
        "dataMap": {
            "-1": {
                "invocation": {
                    "address": "0x925ea5af075bde17811e4bcdc198dc5d3675e466",
                    "callData": "",
                    "decodedMethod": null,
                    "errorInfo": "",
                    "fromAddress": "",
                    "gasUsed": 0,
                    "id": -1,
                    "methodDecoded": false,
                    "operation": "",
                    "output": "",
                    "revert": false,
                    "revertMessage": "",
                    "selector": "",
                    "status": false,
                    "value": ""
                },
                "nodeType": 0
            },
            "0": {
                "invocation": {
                    "address": "0x4672bad527107471cb5067a887f4656d585a8a31",
                    "callData": "0x000000000000000000000000dcd1a6af99159e010da00c7be5e74ccbd0f18aa300000000000000000000000000000000000000000000005089f3a887ae580000",
                    "decodedMethod": {
                        "callParams": [
                            {
                                "name": "to",
                                "type": "address",
                                "value": "0xdcd1a6af99159e010da00c7be5e74ccbd0f18aa3"
                            },
                            {
                                "decimalAvailable": true,
                                "name": "tokens",
                                "type": "uint256",
                                "value": "1,485,680,000,000,000,000,000"
                            }
                        ],
                        "constructorArguments": "",
                        "name": "transfer",
                        "returnParams": [
                            {
                                "name": "success",
                                "type": "bool",
                                "value": true
                            }
                        ],
                        "signature": "transfer(address,uint256)"
                    },
                    "errorInfo": "",
                    "fromAddress": "0x925ea5af075bde17811e4bcdc198dc5d3675e466",
                    "gasUsed": 36721,
                    "id": 0,
                    "methodDecoded": true,
                    "operation": "CALL",
                    "output": "0x0000000000000000000000000000000000000000000000000000000000000001",
                    "revert": false,
                    "revertMessage": "",
                    "selector": "0xa9059cbb",
                    "status": true,
                    "value": "0"
                },
                "nodeType": 0
            },
            "1": {
                "event": {
                    "contract": "0x4672bad527107471cb5067a887f4656d585a8a31",
                    "decodedLog": {
                        "name": "Transfer",
                        "params": [
                            {
                                "name": "from",
                                "type": "address",
                                "value": "0x925ea5af075bde17811e4bcdc198dc5d3675e466"
                            },
                            {
                                "name": "to",
                                "type": "address",
                                "value": "0xdcd1a6af99159e010da00c7be5e74ccbd0f18aa3"
                            },
                            {
                                "decimalAvailable": true,
                                "name": "tokens",
                                "type": "uint256",
                                "value": "1,485,680,000,000,000,000,000"
                            }
                        ],
                        "signature": "Transfer(address,address,uint256)"
                    },
                    "id": 1,
                    "logData": "0x00000000000000000000000000000000000000000000005089f3a887ae580000",
                    "logDecoded": true,
                    "operation": "EVENT",
                    "revert": false,
                    "status": true,
                    "topics": [
                        "0xddf252ad1be2c89b69c2b068fc378daa952ba7f163c4a11628f55a4df523b3ef",
                        "0x000000000000000000000000925ea5af075bde17811e4bcdc198dc5d3675e466",
                        "0x000000000000000000000000dcd1a6af99159e010da00c7be5e74ccbd0f18aa3"
                    ]
                },
                "nodeType": 1
            }
        },
        "gasFlame": [
            {
                "children": [
                    {
                        "children": [
                            {
                                "children": [],
                                "depth": 0,
                                "name": "Initial Gas",
                                "value": 23256
                            },
                            {
                                "children": [],
                                "depth": 0,
                                "name": "Executed Gas",
                                "value": 13465
                            }
                        ],
                        "depth": -1,
                        "name": "Actual Gas Used",
                        "value": 36721
                    },
                    {
                        "children": [],
                        "depth": -1,
                        "name": "Refunded Gas",
                        "value": 0
                    }
                ],
                "depth": -2,
                "name": "Total Gas",
                "value": 36721
            }
        ],
        "isConfirmed": true,
        "mainTrace": [
            {
                "children": [
                    {
                        "children": [
                            {
                                "children": [],
                                "depth": 1,
                                "id": 1,
                                "order": 1
                            }
                        ],
                        "depth": 0,
                        "id": 0,
                        "order": 0
                    }
                ],
                "depth": -1,
                "id": -1,
                "order": -1
            }
        ],
        "mainTraceNodeCount": 2,
        "parentIdMap": {
            "0": -1,
            "1": 0
        },
        "tidyTrace": [
            {
                "children": [
                    {
                        "children": [
                            {
                                "children": [],
                                "depth": 1,
                                "id": 1,
                                "order": 1
                            }
                        ],
                        "depth": 0,
                        "id": 0,
                        "order": 0
                    }
                ],
                "depth": -1,
                "id": -1,
                "order": -1
            }
        ],
        "tidyTraceNodeCount": 2
    },
    "state_change": {
        "stateChanges": [
            {
                "address": "0x4672bad527107471cb5067a887f4656d585a8a31",
                "erc": "ERC-20",
                "slots": [
                    {
                        "current": "0x000000000000000000000000000000000000000000bee6514dbd8727673cf812",
                        "key": "0x21761dd2378177dfe63291454369ce1c3b8b2b5d2f81ddfb1d9be453a5328228",
                        "prev": "0x000000000000000000000000000000000000000000bee6a1d7b12faf1594f812"
                    },
                    {
                        "current": "0x0000000000000000000000000000000000000000000011b89c3f953633790000",
                        "key": "0xd631303d290bf29bbd433e67193a89cb1f58db669426b9cb4471667cd20e902d",
                        "prev": "0x000000000000000000000000000000000000000000001168124becae85210000"
                    }
                ],
                "storageVariables": [
                    {
                        "name": "balances",
                        "type": "mapping(address => uint256)",
                        "value": {
                            "pairs": [
                                {
                                    "key": "0x925ea5af075bde17811e4bcdc198dc5d3675e466",
                                    "value": {
                                        "current": "230783549805891646891292690",
                                        "prev": "230785035485891646891292690",
                                        "typeTag": 1
                                    }
                                },
                                {
                                    "key": "0xdcd1a6af99159e010da00c7be5e74ccbd0f18aa3",
                                    "value": {
                                        "current": "83685690000000000000000",
                                        "prev": "82200010000000000000000",
                                        "typeTag": 1
                                    }
                                }
                            ],
                            "typeTag": 4
                        }
                    }
                ]
            }
        ]
    }
}