{
    "balance_change": {
        "balanceChanges": [
            {
                "account": "0x5c985e89dde482efe97ea9f1950ad149eb73829b",
                "assets": [
                    {
                        "address": "0x8e870d67f660d95d5be530380d0ec0bd388289e1",
                        "amount": "22,004",
                        "iconUrl": "https://assets.blocksec.com/icon/df4a16322c8ca2faeeb21a6d029f24de2efeb58e57edadd9ecbfa6a35afa986d.png",
                        "isERC1155": false,
                        "isERC721": false,
                        "sign": false,
                        "value": ""
                    }
                ]
            },
            {
                "account": "0xf41465a5e2a03c2affaa37fc3fac6234c929d7be",
                "assets": [
                    {
                        "address": "0x8e870d67f660d95d5be530380d0ec0bd388289e1",
                        "amount": "22,004",
                        "iconUrl": "https://assets.blocksec.com/icon/df4a16322c8ca2faeeb21a6d029f24de2efeb58e57edadd9ecbfa6a35afa986d.png",
                        "isERC1155": false,
                        "isERC721": false,
                        "sign": true,
                        "value": ""
                    }
                ]
            }
        ]
    },
    "profile": {
        "basic_info": {
            "baseFee": "",
            "blockNumber": 10057948,
            "callData": "0xa9059cbb000000000000000000000000f41465a5e2a03c2affaa37fc3fac6234c929d7be0000000000000000000000000000000000000000000004a8d6d7c9cfbf500000",
            "debugEnable": true,
            "errorInfo": "",
            "eventCount": 1,
            "feeRecipient": "0x06b8c5883ec71bc3f4b332081519f23834c8706e",
            "formatValue": "0",
            "gasLimit": 140000,
            "gasPrice": "81",
            "gasUsed": 58157,
            "intTxnCount": 1,
            "internalRevert": false,
            "internalRevertMessage": "",
            "isContractCreation": false,
            "isFlashloan": false,
            "maxFee": "",
            "nonce": 149660,
            "overwritedBlockNumber": -1,
            "priorityFee": "",
            "receiver": "0x8e870d67f660d95d5be530380d0ec0bd388289e1",
            "revertMessage": "",
            "sender": "0x5c985e89dde482efe97ea9f1950ad149eb73829b",
            "simulationEnable": true,
            "sourceTxnHash": "0x9623551dd7998dd54495d8196bf6243807f75996fe08ff51c181a29725eb9b61",
            "status": true,
            "timestamp": "2020-05-13T13:02:43Z",
            "transactionFee": "0.004710717",
            "txnHash": "0x9623551dd7998dd54495d8196bf6243807f75996fe08ff51c181a29725eb9b61",
            "txnIndex": 20,
            "type": 0,
            "value": "0"
        },
        "fund_flow": [
            {
                "amount": "22,004",
                "from": "0x5c985e89dde482efe97ea9f1950ad149eb73829b",
                "id": 1,
                "isERC1155": false,
                "isERC721": false,
                "isReverted": false,
                "order": 1,
                "to": "0xf41465a5e2a03c2affaa37fc3fac6234c929d7be",
                "token": "0x8e870d67f660d95d5be530380d0ec0bd388289e1"
            }
        ],
        "token_infos": [
            {
                "address": "0xc02aaa39b223fe8d0a0e5c4f27ead9083c756cc2",
                "decimals": 18
            },
            {
                "address": "0xeeeeeeeeeeeeeeeeeeeeeeeeeeeeeeeeeeeeeeee",
                "decimals": 18
            },
            {
                "address": "0x8e870d67f660d95d5be530380d0ec0bd388289e1",
                "decimals": 18
            }
        ]
    },
    "address_label": {
        "labels": [
            {
                "address": "0x86eee0422322710866af89e9cae3f7383d55310a",
                "label": "Paxos Standard (PAX)"
            },
            {
                "address": "0x0000000000000000000000000000000000000001",
                "label": "Precompiled"
            },
            {
                "address": "0x0000000000000000000000000000000000000002",
                "label": "Precompiled"
            },
            {
                "address": "0x0000000000000000000000000000000000000003",
                "label": "Precompiled"
            },
            {
                "address": "0x0000000000000000000000000000000000000004",
                "label": "Precompiled"
            },
            {
                "address": "0xeeeeeeeeeeeeeeeeeeeeeeeeeeeeeeeeeeeeeeee",
                "label": "Ether"
            },
            {
                "address": "0x5c985e89dde482efe97ea9f1950ad149eb73829b",
                "label": "HTX 5"
            },
            {
                "address": "0x8e870d67f660d95d5be530380d0ec0bd388289e1",
                "label": "Paxos: USDP Token"
            }
        ]
    },
    "trace": {
        "accountLabels": null,
        "dataMap": {
            "-1": {
                "invocation": {
                    "address": "0x5c985e89dde482efe97ea9f1950ad149eb73829b",
                    "callData": "",
                    "decodedMethod": null,
                    "errorInfo": "",
                    "fromAddress": "",
                    "gasUsed": 0,
                    "id": -1,
                    "methodDecoded": false,
                    "operation": "",
                    "output": "",
                    "revert": false,
                    "revertMessage": "",
                    "selector": "",
                    "status": false,
                    "value": ""
                },
                "nodeType": 0
            },
            "0": {
                "invocation": {
                    "address": "0x8e870d67f660d95d5be530380d0ec0bd388289e1",
                    "callData": "0x000000000000000000000000f41465a5e2a03c2affaa37fc3fac6234c929d7be0000000000000000000000000000000000000000000004a8d6d7c9cfbf500000",
                    "decodedMethod": {
                        "callParams": [
                            {
                                "name": "_to",
                                "type": "address",
                                "value": "0xf41465a5e2a03c2affaa37fc3fac6234c929d7be"
                            },
                            {
                                "decimalAvailable": true,
                                "name": "_value",
                                "type": "uint256",
                                "value": "22,004,000,000,000,000,000,000"
                            }
                        ],
                        "constructorArguments": "",
                        "name": "transfer",
                        "returnParams": [
                            {
                                "name": "",
                                "type": "bool",
                                "value": true
                            }
                        ],
                        "signature": "transfer(address,uint256)"
                    },
                    "errorInfo": "",
                    "fromAddress": "0x5c985e89dde482efe97ea9f1950ad149eb73829b",
                    "gasUsed": 58157,
                    "id": 0,
                    "methodDecoded": true,
                    "operation": "CALL",
                    "output": "0x0000000000000000000000000000000000000000000000000000000000000001",
                    "revert": false,
                    "revertMessage": "",
                    "selector": "0xa9059cbb",
                    "status": true,
                    "value": "0"
                },
                "nodeType": 0
            },
            "1": {
                "invocation": {
                    "address": "0x86eee0422322710866af89e9cae3f7383d55310a",
                    "callData": "0x000000000000000000000000f41465a5e2a03c2affaa37fc3fac6234c929d7be0000000000000000000000000000000000000000000004a8d6d7c9cfbf500000",
                    "decodedMethod": {
                        "callParams": [
                            {
                                "name": "_to",
                                "type": "address",
                                "value": "0xf41465a5e2a03c2affaa37fc3fac6234c929d7be"
                            },
                            {
                                "decimalAvailable": true,
                                "name": "_value",
                                "type": "uint256",
                                "value": "22,004,000,000,000,000,000,000"
                            }
                        ],
                        "constructorArguments": "",
                        "name": "transfer",
                        "returnParams": [
                            {
                                "name": "",
                                "type": "bool",
                                "value": true
                            }
                        ],
                        "signature": "transfer(address,uint256)"
                    },
                    "errorInfo": "",
                    "fromAddress": "0x8e870d67f660d95d5be530380d0ec0bd388289e1",
                    "gasUsed": 33719,
                    "id": 1,
                    "methodDecoded": true,
                    "operation": "DELEGATECALL",
                    "output": "0x0000000000000000000000000000000000000000000000000000000000000001",
                    "revert": false,
                    "revertMessage": "",
                    "selector": "0xa9059cbb",
                    "status": true,
                    "value": "0"
                },
                "nodeType": 0
            },
            "2": {
                "event": {
                    "contract": "0x8e870d67f660d95d5be530380d0ec0bd388289e1",
                    "decodedLog": {
                        "name": "Transfer",
                        "params": [
                            {
                                "name": "from",
                                "type": "address",
                                "value": "0x5c985e89dde482efe97ea9f1950ad149eb73829b"
                            },
                            {
                                "name": "to",
                                "type": "address",
                                "value": "0xf41465a5e2a03c2affaa37fc3fac6234c929d7be"
                            },
                            {
                                "decimalAvailable": true,
                                "name": "value",
                                "type": "uint256",
                                "value": "22,004,000,000,000,000,000,000"
                            }
                        ],
                        "signature": "Transfer(address,address,uint256)"
                    },
                    "id": 2,
                    "logData": "0x0000000000000000000000000000000000000000000004a8d6d7c9cfbf500000",
                    "logDecoded": true,
                    "operation": "EVENT",
                    "revert": false,
                    "status": true,
                    "topics": [
                        "0xddf252ad1be2c89b69c2b068fc378daa952ba7f163c4a11628f55a4df523b3ef",
                        "0x0000000000000000000000005c985e89dde482efe97ea9f1950ad149eb73829b",
                        "0x000000000000000000000000f41465a5e2a03c2affaa37fc3fac6234c929d7be"
                    ]
                },
                "nodeType": 1
            }
        },
        "gasFlame": [
            {
                "children": [
                    {
                        "children": [
                            {
                                "children": [],
                                "depth": 0,
                                "name": "Initial Gas",
                                "value": 21656
                            },
                            {
                                "children": [
                                    {
                                        "children": [],
                                        "depth": 1,
                                        "name": "transfer",
                                        "value": 33719
                                    }
                                ],
                                "depth": 0,
                                "name": "Executed Gas",
                                "value": 36501
                            }
                        ],
                        "depth": -1,
                        "name": "Actual Gas Used",
                        "value": 58157
                    },
                    {
                        "children": [],
                        "depth": -1,
                        "name": "Refunded Gas",
                        "value": 0
                    }
                ],
                "depth": -2,
                "name": "Total Gas",
                "value": 58157
            }
        ],
        "isConfirmed": true,
        "mainTrace": [
            {
                "children": [
                    {
                        "children": [
                            {
                                "children": [
                                    {
                                        "children": [],
                                        "depth": 2,
                                        "id": 2,
                                        "order": 2
                                    }
                                ],
                                "depth": 1,
                                "id": 1,
                                "order": 1
                            }
                        ],
                        "depth": 0,
                        "id": 0,
                        "order": 0
                    }
                ],
                "depth": -1,
                "id": -1,
                "order": -1
            }
        ],
        "mainTraceNodeCount": 3,
        "parentIdMap": {
            "0": -1,
            "1": 0,
            "2": 1
        },
        "tidyTrace": [
            {
                "children": [
                    {
                        "children": [
                            {
                                "children": [
                                    {
                                        "children": [],
                                        "depth": 2,
                                        "id": 2,
                                        "order": 2
                                    }
                                ],
                                "depth": 1,
                                "id": 1,
                                "order": 1
                            }
                        ],
                        "depth": 0,
                        "id": 0,
                        "order": 0
                    }
                ],
                "depth": -1,
                "id": -1,
                "order": -1
            }
        ],
        "tidyTraceNodeCount": 3
    },
    "state_change": {
        "stateChanges": [
            {
                "address": "0x8e870d67f660d95d5be530380d0ec0bd388289e1",
                "erc": "ERC-20",
                "slots": [
                    {
                        "current": "0x000000000000000000000000000000000000000000001027d93dc53eb9b5fc00",
                        "key": "0x9d16da4c80f803033532e1797ffcdb27d7539a8aa10c759acc5c87048ca895a1",
                        "prev": "0x0000000000000000000000000000000000000000000014d0b0158f0e7905fc00"
                    },
                    {
                        "current": "0x0000000000000000000000000000000000000000000004a8d6d7c9cfbf500000",
                        "key": "0xfa7c31faa2f25c4e398c92dcd23faa4ea0f476df42011109aad372f3a45ae962",
                        "prev": "0x0000000000000000000000000000000000000000000000000000000000000000"
                    }
                ],
                "storageVariables": [
                    {
                        "name": "balances",
                        "type": "mapping(address => uint256)",
                        "value": {
                            "pairs": [
                                {
                                    "key": "0x5c985e89dde482efe97ea9f1950ad149eb73829b",
                                    "value": {
                                        "current": "76292940629542000000000",
                                        "prev": "98296940629542000000000",
                                        "typeTag": 1
                                    }
                                },
                                {
                                    "key": "0xf41465a5e2a03c2affaa37fc3fac6234c929d7be",
                                    "value": {
                                        "current": "22004000000000000000000",
                                        "prev": "0",
                                        "typeTag": 1
                                    }
                                }
                            ],
                            "typeTag": 4
                        }
                    }
                ]
            }
        ]
    }
}