{
    "balance_change": {
        "balanceChanges": []
    },
    "profile": {
        "basic_info": {
            "baseFee": "15.833612691",
            "blockNumber": 17675154,
            "callData": "0xfb3bdb410000000000000000000000000000000000000000000000000000005017ff70000000000000000000000000000000000000000000000000000000000000000080000000000000000000000000543667139b25c371809d79ef65fa1f0a0a624fd600000000000000000000000000000000000000000000000000000000680e4ff20000000000000000000000000000000000000000000000000000000000000002000000000000000000000000c02aaa39b223fe8d0a0e5c4f27ead9083c756cc20000000000000000000000009459ea2dac369336816ba44641c951c0d714fa07",
            "debugEnable": true,
            "errorInfo": "execution reverted",
            "eventCount": 0,
            "feeRecipient": "0x333333f332a06ecb5d20d35da44ba07986d6e203",
            "formatValue": "0.15",
            "gasLimit": 800000,
            "gasPrice": "35.833612691",
            "gasUsed": 31478,
            "intTxnCount": 1,
            "internalRevert": true,
            "internalRevertMessage": "",
            "isContractCreation": false,
            "isFlashloan": false,
            "maxFee": "200",
            "nonce": 392,
            "overwritedBlockNumber": -1,
            "priorityFee": "20",
            "receiver": "0x7a250d5630b4cf539739df2c5dacb4c659f2488d",
            "revertMessage": "'UniswapV2Router: EXCESSIVE_INPUT_AMOUNT",
            "sender": "0x543667139b25c371809d79ef65fa1f0a0a624fd6",
            "simulationEnable": true,
            "sourceTxnHash": "0x965b42d2f3bbffa1b2a777f281fde940c6fbd9419e2474611aa6d5dd5dc22f84",
            "status": false,
            "timestamp": "2023-07-12T04:37:11Z",
            "transactionFee": "0.001127970460287298",
            "txnHash": "0x965b42d2f3bbffa1b2a777f281fde940c6fbd9419e2474611aa6d5dd5dc22f84",
            "txnIndex": 87,
            "type": 2,
            "value": "150000000000000000"
        },
        "fund_flow": [],
        "token_infos": [
            {
                "address": "0xc02aaa39b223fe8d0a0e5c4f27ead9083c756cc2",
                "decimals": 18
            },
            {
                "address": "0xeeeeeeeeeeeeeeeeeeeeeeeeeeeeeeeeeeeeeeee",
                "decimals": 18
            }
        ]
    },
    "address_label": {
        "labels": [
            {
                "address": "0x7a250d5630b4cf539739df2c5dacb4c659f2488d",
                "label": "Uniswap V2: Router 2"
            },
            {
                "address": "0xc02aaa39b223fe8d0a0e5c4f27ead9083c756cc2",
                "label": "Wrapped Ether (WETH)"
            },
            {
                "address": "0xf8f7c10b97419630c9f7d039d47b7185f1b5140c",
                "label": "Uniswap V2: PEPE6.9 8"
            },
            {
                "address": "0x0000000000000000000000000000000000000002",
                "label": "Precompiled"
            },
            {
                "address": "0x0000000000000000000000000000000000000003",
                "label": "Precompiled"
            },
            {
                "address": "0x0000000000000000000000000000000000000004",
                "label": "Precompiled"
            },
            {
                "address": "0xeeeeeeeeeeeeeeeeeeeeeeeeeeeeeeeeeeeeeeee",
                "label": "Ether"
            },
            {
                "address": "0x9459ea2dac369336816ba44641c951c0d714fa07",
                "label": "Pepe 6.9 (PEPE6.9)"
            },
            {
                "address": "0x0000000000000000000000000000000000000001",
                "label": "Precompiled"
            }
        ]
    },
    "trace": {
        "accountLabels": null,
        "dataMap": {
            "-1": {
                "invocation": {
                    "address": "0x543667139b25c371809d79ef65fa1f0a0a624fd6",
                    "callData": "",
                    "decodedMethod": null,
                    "errorInfo": "",
                    "fromAddress": "",
                    "gasUsed": 0,
                    "id": -1,
                    "methodDecoded": false,
                    "operation": "",
                    "output": "",
                    "revert": false,
                    "revertMessage": "",
                    "selector": "",
                    "status": false,
                    "value": ""
                },
                "nodeType": 0
            },
            "0": {
                "invocation": {
                    "address": "0x7a250d5630b4cf539739df2c5dacb4c659f2488d",
                    "callData": "0x0000000000000000000000000000000000000000000000000000005017ff70000000000000000000000000000000000000000000000000000000000000000080000000000000000000000000543667139b25c371809d79ef65fa1f0a0a624fd600000000000000000000000000000000000000000000000000000000680e4ff20000000000000000000000000000000000000000000000000000000000000002000000000000000000000000c02aaa39b223fe8d0a0e5c4f27ead9083c756cc20000000000000000000000009459ea2dac369336816ba44641c951c0d714fa07",
                    "decodedMethod": {
                        "callParams": [
                            {
                                "name": "amountOut",
                                "type": "uint256",
                                "value": "344,000,000,000"
                            },
                            {
                                "name": "path",
                                "type": "address[]",
                                "value": [
                                    "0xc02aaa39b223fe8d0a0e5c4f27ead9083c756cc2",
                                    "0x9459ea2dac369336816ba44641c951c0d714fa07"
                                ]
                            },
                            {
                                "name": "to",
                                "type": "address",
                                "value": "0x543667139b25c371809d79ef65fa1f0a0a624fd6"
                            },
                            {
                                "name": "deadline",
                                "type": "uint256",
                                "value": "1,745,768,434"
                            }
                        ],
                        "constructorArguments": "",
                        "name": "swapETHForExactTokens",
                        "returnParams": [],
                        "signature": "swapETHForExactTokens(uint256,address[],address,uint256)"
                    },
                    "errorInfo": "execution reverted",
                    "fromAddress": "0x543667139b25c371809d79ef65fa1f0a0a624fd6",
                    "gasUsed": 31478,
                    "id": 0,
                    "methodDecoded": true,
                    "operation": "CALL",
                    "output": "0x08c379a000000000000000000000000000000000000000000000000000000000000000200000000000000000000000000000000000000000000000000000000000000027556e69737761705632526f757465723a204558434553534956455f494e5055545f414d4f554e5400000000000000000000000000000000000000000000000000",
                    "revert": true,
                    "revertMessage": "'UniswapV2Router: EXCESSIVE_INPUT_AMOUNT",
                    "selector": "0xfb3bdb41",
                    "status": false,
                    "value": "0.15"
                },
                "nodeType": 0
            },
            "1": {
                "invocation": {
                    "address": "0xf8f7c10b97419630c9f7d039d47b7185f1b5140c",
                    "callData": "0x",
                    "decodedMethod": {
                        "callParams": [],
                        "constructorArguments": "",
                        "name": "getReserves",
                        "returnParams": [
                            {
                                "name": "_reserve0",
                                "type": "uint112",
                                "value": "12,573,770,845,569"
                            },
                            {
                                "name": "_reserve1",
                                "type": "uint112",
                                "value": "8,643,980,292,814,600,514"
                            },
                            {
                                "name": "_blockTimestampLast",
                                "type": "uint32",
                                "value": "1,689,136,631"
                            }
                        ],
                        "signature": "getReserves()"
                    },
                    "errorInfo": "",
                    "fromAddress": "0x7a250d5630b4cf539739df2c5dacb4c659f2488d",
                    "gasUsed": 2504,
                    "id": 1,
                    "methodDecoded": true,
                    "operation": "STATICCALL",
                    "output": "0x00000000000000000000000000000000000000000000000000000b6f8f250d8100000000000000000000000000000000000000000000000077f596474eb0f9420000000000000000000000000000000000000000000000000000000064ae2df7",
                    "revert": true,
                    "revertMessage": "",
                    "selector": "0x0902f1ac",
                    "status": true,
                    "value": "0"
                },
                "nodeType": 0
            }
        },
        "gasFlame": [
            {
                "children": [
                    {
                        "children": [
                            {
                                "children": [],
                                "depth": 0,
                                "name": "Initial Gas",
                                "value": 22800
                            },
                            {
                                "children": [
                                    {
                                        "children": [],
                                        "depth": 1,
                                        "name": "getReserves",
                                        "value": 2504
                                    }
                                ],
                                "depth": 0,
                                "name": "Executed Gas",
                                "value": 8678
                            }
                        ],
                        "depth": -1,
                        "name": "Actual Gas Used",
                        "value": 31478
                    },
                    {
                        "children": [],
                        "depth": -1,
                        "name": "Refunded Gas",
                        "value": 0
                    }
                ],
                "depth": -2,
                "name": "Total Gas",
                "value": 31478
            }
        ],
        "isConfirmed": true,
        "mainTrace": [
            {
                "children": [
                    {
                        "children": [
                            {
                                "children": [],
                                "depth": 1,
                                "id": 1,
                                "order": 1
                            }
                        ],
                        "depth": 0,
                        "id": 0,
                        "order": 0
                    }
                ],
                "depth": -1,
                "id": -1,
                "order": -1
            }
        ],
        "mainTraceNodeCount": 2,
        "parentIdMap": {
            "0": -1,
            "1": 0
        },
        "tidyTrace": [
            {
                "children": [
                    {
                        "children": [],
                        "depth": 0,
                        "id": 0,
                        "order": 0
                    }
                ],
                "depth": -1,
                "id": -1,
                "order": -1
            }
        ],
        "tidyTraceNodeCount": 1
    },
    "state_change": {
        "stateChanges": []
    }
}