{
    "balance_change": {
        "balanceChanges": [
            {
                "account": "0xcc221f71d29121552093f13c3964fd93cab16d8f",
                "assets": [
                    {
                        "address": "0x960b236a07cf122663c4303350609a66a7b288c0",
                        "amount": "7.75380248",
                        "iconUrl": "",
                        "isERC1155": false,
                        "isERC721": false,
                        "sign": false,
                        "value": ""
                    }
                ]
            },
            {
                "account": "0xe306bd9cbfcbecedfc00aefb7d8c3d5bc8b99fe6",
                "assets": [
                    {
                        "address": "0x960b236a07cf122663c4303350609a66a7b288c0",
                        "amount": "7.75380248",
                        "iconUrl": "",
                        "isERC1155": false,
                        "isERC721": false,
                        "sign": true,
                        "value": ""
                    }
                ]
            }
        ]
    },
    "profile": {
        "basic_info": {
            "baseFee": "",
            "blockNumber": 4183732,
            "callData": "0xa9059cbb000000000000000000000000e306bd9cbfcbecedfc00aefb7d8c3d5bc8b99fe60000000000000000000000000000000000000000000000006b9b0a462ef16000",
            "debugEnable": true,
            "errorInfo": "",
            "eventCount": 1,
            "feeRecipient": "0x1e9939daaad6924ad004c2560e90804164900341",
            "formatValue": "0",
            "gasLimit": 120000,
            "gasPrice": "23.1",
            "gasUsed": 106321,
            "intTxnCount": 1,
            "internalRevert": false,
            "internalRevertMessage": "",
            "isContractCreation": false,
            "isFlashloan": false,
            "maxFee": "",
            "nonce": 2,
            "overwritedBlockNumber": -1,
            "priorityFee": "",
            "receiver": "0x960b236a07cf122663c4303350609a66a7b288c0",
            "revertMessage": "",
            "sender": "0xcc221f71d29121552093f13c3964fd93cab16d8f",
            "simulationEnable": true,
            "sourceTxnHash": "0x960921091ec6b31c8a45e840e61e0fdd2f056a210bceab5d5d611d9e7528fdc9",
            "status": true,
            "timestamp": "2017-08-21T00:26:24Z",
            "transactionFee": "0.0024560151",
            "txnHash": "0x960921091ec6b31c8a45e840e61e0fdd2f056a210bceab5d5d611d9e7528fdc9",
            "txnIndex": 14,
            "type": 0,
            "value": "0"
        },
        "fund_flow": [
            {
                "amount": "7.75380248",
                "from": "0xcc221f71d29121552093f13c3964fd93cab16d8f",
                "id": 1,
                "isERC1155": false,
                "isERC721": false,
                "isReverted": false,
                "order": 1,
                "to": "0xe306bd9cbfcbecedfc00aefb7d8c3d5bc8b99fe6",
                "token": "0x960b236a07cf122663c4303350609a66a7b288c0"
            }
        ],
        "token_infos": [
            {
                "address": "0x960b236a07cf122663c4303350609a66a7b288c0",
                "decimals": 18
            },
            {
                "address": "0xc02aaa39b223fe8d0a0e5c4f27ead9083c756cc2",
                "decimals": 18
            },
            {
                "address": "0xeeeeeeeeeeeeeeeeeeeeeeeeeeeeeeeeeeeeeeee",
                "decimals": 18
            }
        ]
    },
    "address_label": {
        "labels": [
            {
                "address": "0x0000000000000000000000000000000000000002",
                "label": "Precompiled"
            },
            {
                "address": "0x0000000000000000000000000000000000000003",
                "label": "Precompiled"
            },
            {
                "address": "0x0000000000000000000000000000000000000004",
                "label": "Precompiled"
            },
            {
                "address": "0xeeeeeeeeeeeeeeeeeeeeeeeeeeeeeeeeeeeeeeee",
                "label": "Ether"
            },
            {
                "address": "0x960b236a07cf122663c4303350609a66a7b288c0",
                "label": "Aragon: Old ANT Token"
            },
            {
                "address": "0xd39902f046b5885d70e9e66594b65f84d4d1c952",
                "label": "ANPlaceholder"
            },
            {
                "address": "0x0000000000000000000000000000000000000001",
                "label": "Precompiled"
            }
        ]
    },
    "trace": {
        "accountLabels": null,
        "dataMap": {
            "-1": {
                "invocation": {
                    "address": "0xcc221f71d29121552093f13c3964fd93cab16d8f",
                    "callData": "",
                    "decodedMethod": null,
                    "errorInfo": "",
                    "fromAddress": "",
                    "gasUsed": 0,
                    "id": -1,
                    "methodDecoded": false,
                    "operation": "",
                    "output": "",
                    "revert": false,
                    "revertMessage": "",
                    "selector": "",
                    "status": false,
                    "value": ""
                },
                "nodeType": 0
            },
            "0": {
                "invocation": {
                    "address": "0x960b236a07cf122663c4303350609a66a7b288c0",
                    "callData": "0x000000000000000000000000e306bd9cbfcbecedfc00aefb7d8c3d5bc8b99fe60000000000000000000000000000000000000000000000006b9b0a462ef16000",
                    "decodedMethod": {
                        "callParams": [
                            {
                                "name": "_to",
                                "type": "address",
                                "value": "0xe306bd9cbfcbecedfc00aefb7d8c3d5bc8b99fe6"
                            },
                            {
                                "decimalAvailable": true,
                                "name": "_value",
                                "type": "uint256",
                                "value": "7,753,802,480,000,000,000"
                            }
                        ],
                        "constructorArguments": "",
                        "name": "transfer",
                        "returnParams": [
                            {
                                "name": "success",
                                "type": "bool",
                                "value": true
                            }
                        ],
                        "signature": "transfer(address,uint256)"
                    },
                    "errorInfo": "",
                    "fromAddress": "0xcc221f71d29121552093f13c3964fd93cab16d8f",
                    "gasUsed": 106321,
                    "id": 0,
                    "methodDecoded": true,
                    "operation": "CALL",
                    "output": "0x0000000000000000000000000000000000000000000000000000000000000001",
                    "revert": false,
                    "revertMessage": "",
                    "selector": "0xa9059cbb",
                    "status": true,
                    "value": "0"
                },
                "nodeType": 0
            },
            "1": {
                "invocation": {
                    "address": "0xd39902f046b5885d70e9e66594b65f84d4d1c952",
                    "callData": "0x000000000000000000000000cc221f71d29121552093f13c3964fd93cab16d8f000000000000000000000000e306bd9cbfcbecedfc00aefb7d8c3d5bc8b99fe60000000000000000000000000000000000000000000000006b9b0a462ef16000",
                    "decodedMethod": {
                        "callParams": [
                            {
                                "name": "_from",
                                "type": "address",
                                "value": "0xcc221f71d29121552093f13c3964fd93cab16d8f"
                            },
                            {
                                "name": "_to",
                                "type": "address",
                                "value": "0xe306bd9cbfcbecedfc00aefb7d8c3d5bc8b99fe6"
                            },
                            {
                                "name": "_amount",
                                "type": "uint256",
                                "value": "7,753,802,480,000,000,000"
                            }
                        ],
                        "constructorArguments": "",
                        "name": "onTransfer",
                        "returnParams": [
                            {
                                "name": "",
                                "type": "bool",
                                "value": true
                            }
                        ],
                        "signature": "onTransfer(address,address,uint256)"
                    },
                    "errorInfo": "",
                    "fromAddress": "0x960b236a07cf122663c4303350609a66a7b288c0",
                    "gasUsed": 372,
                    "id": 1,
                    "methodDecoded": true,
                    "operation": "CALL",
                    "output": "0x0000000000000000000000000000000000000000000000000000000000000001",
                    "revert": false,
                    "revertMessage": "",
                    "selector": "0x4a393149",
                    "status": true,
                    "value": "0"
                },
                "nodeType": 0
            },
            "2": {
                "event": {
                    "contract": "0x960b236a07cf122663c4303350609a66a7b288c0",
                    "decodedLog": {
                        "name": "Transfer",
                        "params": [
                            {
                                "name": "from",
                                "type": "address",
                                "value": "0xcc221f71d29121552093f13c3964fd93cab16d8f"
                            },
                            {
                                "name": "to",
                                "type": "address",
                                "value": "0xe306bd9cbfcbecedfc00aefb7d8c3d5bc8b99fe6"
                            },
                            {
                                "decimalAvailable": true,
                                "name": "value",
                                "type": "uint256",
                                "value": "7,753,802,480,000,000,000"
                            }
                        ],
                        "signature": "Transfer(address,address,uint256)"
                    },
                    "id": 2,
                    "logData": "0x0000000000000000000000000000000000000000000000006b9b0a462ef16000",
                    "logDecoded": true,
                    "operation": "EVENT",
                    "revert": false,
                    "status": true,
                    "topics": [
                        "0xddf252ad1be2c89b69c2b068fc378daa952ba7f163c4a11628f55a4df523b3ef",
                        "0x000000000000000000000000cc221f71d29121552093f13c3964fd93cab16d8f",
                        "0x000000000000000000000000e306bd9cbfcbecedfc00aefb7d8c3d5bc8b99fe6"
                    ]
                },
                "nodeType": 1
            }
        },
        "gasFlame": [
            {
                "children": [
                    {
                        "children": [
                            {
                                "children": [],
                                "depth": 0,
                                "name": "Initial Gas",
                                "value": 23192
                            },
                            {
                                "children": [
                                    {
                                        "children": [],
                                        "depth": 1,
                                        "name": "onTransfer",
                                        "value": 372
                                    }
                                ],
                                "depth": 0,
                                "name": "Executed Gas",
                                "value": 83129
                            }
                        ],
                        "depth": -1,
                        "name": "Actual Gas Used",
                        "value": 106321
                    },
                    {
                        "children": [],
                        "depth": -1,
                        "name": "Refunded Gas",
                        "value": 0
                    }
                ],
                "depth": -2,
                "name": "Total Gas",
                "value": 106321
            }
        ],
        "isConfirmed": true,
        "mainTrace": [
            {
                "children": [
                    {
                        "children": [
                            {
                                "children": [],
                                "depth": 1,
                                "id": 1,
                                "order": 1
                            },
                            {
                                "children": [],
                                "depth": 1,
                                "id": 2,
                                "order": 2
                            }
                        ],
                        "depth": 0,
                        "id": 0,
                        "order": 0
                    }
                ],
                "depth": -1,
                "id": -1,
                "order": -1
            }
        ],
        "mainTraceNodeCount": 3,
        "parentIdMap": {
            "0": -1,
            "1": 0,
            "2": 0
        },
        "tidyTrace": [
            {
                "children": [
                    {
                        "children": [
                            {
                                "children": [],
                                "depth": 1,
                                "id": 1,
                                "order": 1
                            },
                            {
                                "children": [],
                                "depth": 1,
                                "id": 2,
                                "order": 2
                            }
                        ],
                        "depth": 0,
                        "id": 0,
                        "order": 0
                    }
                ],
                "depth": -1,
                "id": -1,
                "order": -1
            }
        ],
        "tidyTraceNodeCount": 3
    },
    "state_change": {
        "stateChanges": [
            {
                "address": "0x960b236a07cf122663c4303350609a66a7b288c0",
                "erc": "ERC-20",
                "slots": [
                    {
                        "current": "0x0000000000000000000000000000000000000000000000000000000000000002",
                        "key": "0x07442d78e6577be1d4a159c776d27c4f70c9b2b95c2bd0b9044c3784ce7ee167",
                        "prev": "0x0000000000000000000000000000000000000000000000000000000000000001"
                    },
                    {
                        "current": "0x00000000000000000000000000000000000000000000000000000000003fd6b4",
                        "key": "0x8d60e9e17c2be18f522ca8ba102f5d133edc2b06c8b5ace48c0004a064ce3b20",
                        "prev": "0x0000000000000000000000000000000000000000000000000000000000000000"
                    },
                    {
                        "current": "0x0000000000000000000000000000000000000000000000000000000000000001",
                        "key": "0x467d8795f62a83f2e8b121f701e1034860089547482e350372c7c598338803da",
                        "prev": "0x0000000000000000000000000000000000000000000000000000000000000000"
                    },
                    {
                        "current": "0x00000000000000006b9b0a462ef16000000000000000000000000000003fd6b4",
                        "key": "0xcb1448e8b57780993637ff47d6ad1cafc87b9a6834b2fe762aaef408be1451bf",
                        "prev": "0x0000000000000000000000000000000000000000000000000000000000000000"
                    }
                ],
                "storageVariables": []
            }
        ]
    }
}