{
    "balance_change": {
        "balanceChanges": [
            {
                "account": "0x0000000000000000000000000000000000000000",
                "assets": [
                    {
                        "address": "0x845a5797c0aa839d945b69346eea6c8b5dd5b396",
                        "amount": "1",
                        "iconUrl": "",
                        "isERC1155": false,
                        "isERC721": true,
                        "sign": false,
                        "tokenID": "1177",
                        "value": ""
                    }
                ]
            },
            {
                "account": "0x919c8bef08d14a8b6fc1413cfcc04b0925d9096e",
                "assets": [
                    {
                        "address": "0x845a5797c0aa839d945b69346eea6c8b5dd5b396",
                        "amount": "1",
                        "iconUrl": "",
                        "isERC1155": false,
                        "isERC721": true,
                        "sign": true,
                        "tokenID": "1177",
                        "value": ""
                    }
                ]
            }
        ]
    },
    "profile": {
        "basic_info": {
            "baseFee": "26.307755024",
            "blockNumber": 15264388,
            "callData": "0x97254e550000000000000000000000000000000000000000000000000000000000000020000000000000000000000000000000000000000000000000000000000000000aa86af00de4846fa05d0091d1c21b81b45505f75b7a6d64381e6c289931ec340606fe72a7d545f818ce48714215d31d8edc0ee7d5c0e6d1fd581466410e2180e0657ed421eb8159d3454daec5659511e3a672cc44f6c2ec9e8bfd02cdec3227e4d4c3e43d373661f99379cb1e4e70f1e1948c0f36136a57ce776ffc1fb9af3e9c06ed5a4debc767ac7a823784723626732e2f499228cbe47b40113d1dd671ae849d10118c05b3e0f91f7bffcbf4b6cd7809733564bee7cffe0b2ceb0c54f12ed8147c12d84504243e7912cb845dab632ae57b6563a176437e4cf1f36fbb18d7008707cf27c636c0e0efade545428ac5b44a926808efb0275bcfb8670aa704a98ae0d1ca15bf9f53c1411ee02e3230de62e553063ce506143b70797243797ee0c6fbbf69d68013cbd5ab8cdd23527f8a4bb579ebdb680bbb78101262a33b1bfe8a",
            "debugEnable": true,
            "errorInfo": "",
            "eventCount": 1,
            "feeRecipient": "0x829bd824b016326a401d083b33d092293333a830",
            "formatValue": "0",
            "gasLimit": 177665,
            "gasPrice": "27.807755024",
            "gasUsed": 177665,
            "intTxnCount": 0,
            "internalRevert": false,
            "internalRevertMessage": "",
            "isContractCreation": false,
            "isFlashloan": false,
            "maxFee": "54.298406366",
            "nonce": 1,
            "overwritedBlockNumber": -1,
            "priorityFee": "1.5",
            "receiver": "0x845a5797c0aa839d945b69346eea6c8b5dd5b396",
            "revertMessage": "",
            "sender": "0x919c8bef08d14a8b6fc1413cfcc04b0925d9096e",
            "simulationEnable": true,
            "sourceTxnHash": "0x9637f6485dce19db751f2c221b77dff92cd522bbaeef2dea476d6a0f12042ad9",
            "status": true,
            "timestamp": "2022-08-02T17:19:54Z",
            "transactionFee": "0.00494046479633896",
            "txnHash": "0x9637f6485dce19db751f2c221b77dff92cd522bbaeef2dea476d6a0f12042ad9",
            "txnIndex": 43,
            "type": 2,
            "value": "0"
        },
        "fund_flow": [
            {
                "amount": "1",
                "from": "0x0000000000000000000000000000000000000000",
                "id": 1,
                "isERC1155": false,
                "isERC721": true,
                "isReverted": false,
                "order": 1,
                "to": "0x919c8bef08d14a8b6fc1413cfcc04b0925d9096e",
                "token": "0x845a5797c0aa839d945b69346eea6c8b5dd5b396",
                "tokenID": "1177"
            }
        ],
        "token_infos": [
            {
                "address": "0xc02aaa39b223fe8d0a0e5c4f27ead9083c756cc2",
                "decimals": 18
            },
            {
                "address": "0xeeeeeeeeeeeeeeeeeeeeeeeeeeeeeeeeeeeeeeee",
                "decimals": 18
            }
        ]
    },
    "address_label": {
        "labels": [
            {
                "address": "0xeeeeeeeeeeeeeeeeeeeeeeeeeeeeeeeeeeeeeeee",
                "label": "Ether"
            },
            {
                "address": "0x0000000000000000000000000000000000000001",
                "label": "Precompiled"
            },
            {
                "address": "0x0000000000000000000000000000000000000002",
                "label": "Precompiled"
            },
            {
                "address": "0x0000000000000000000000000000000000000003",
                "label": "Precompiled"
            },
            {
                "address": "0x0000000000000000000000000000000000000004",
                "label": "Precompiled"
            }
        ]
    },
    "trace": {
        "accountLabels": null,
        "dataMap": {
            "-1": {
                "invocation": {
                    "address": "0x919c8bef08d14a8b6fc1413cfcc04b0925d9096e",
                    "callData": "",
                    "decodedMethod": null,
                    "errorInfo": "",
                    "fromAddress": "",
                    "gasUsed": 0,
                    "id": -1,
                    "methodDecoded": false,
                    "operation": "",
                    "output": "",
                    "revert": false,
                    "revertMessage": "",
                    "selector": "",
                    "status": false,
                    "value": ""
                },
                "nodeType": 0
            },
            "0": {
                "invocation": {
                    "address": "0x845a5797c0aa839d945b69346eea6c8b5dd5b396",
                    "callData": "0x0000000000000000000000000000000000000000000000000000000000000020000000000000000000000000000000000000000000000000000000000000000aa86af00de4846fa05d0091d1c21b81b45505f75b7a6d64381e6c289931ec340606fe72a7d545f818ce48714215d31d8edc0ee7d5c0e6d1fd581466410e2180e0657ed421eb8159d3454daec5659511e3a672cc44f6c2ec9e8bfd02cdec3227e4d4c3e43d373661f99379cb1e4e70f1e1948c0f36136a57ce776ffc1fb9af3e9c06ed5a4debc767ac7a823784723626732e2f499228cbe47b40113d1dd671ae849d10118c05b3e0f91f7bffcbf4b6cd7809733564bee7cffe0b2ceb0c54f12ed8147c12d84504243e7912cb845dab632ae57b6563a176437e4cf1f36fbb18d7008707cf27c636c0e0efade545428ac5b44a926808efb0275bcfb8670aa704a98ae0d1ca15bf9f53c1411ee02e3230de62e553063ce506143b70797243797ee0c6fbbf69d68013cbd5ab8cdd23527f8a4bb579ebdb680bbb78101262a33b1bfe8a",
                    "decodedMethod": {
                        "callParams": [
                            {
                                "name": "merkleProof",
                                "type": "bytes32[]",
                                "value": [
                                    "0xa86af00de4846fa05d0091d1c21b81b45505f75b7a6d64381e6c289931ec3406",
                                    "0x06fe72a7d545f818ce48714215d31d8edc0ee7d5c0e6d1fd581466410e2180e0",
                                    "0x657ed421eb8159d3454daec5659511e3a672cc44f6c2ec9e8bfd02cdec3227e4",
                                    "0xd4c3e43d373661f99379cb1e4e70f1e1948c0f36136a57ce776ffc1fb9af3e9c",
                                    "0x06ed5a4debc767ac7a823784723626732e2f499228cbe47b40113d1dd671ae84",
                                    "0x9d10118c05b3e0f91f7bffcbf4b6cd7809733564bee7cffe0b2ceb0c54f12ed8",
                                    "0x147c12d84504243e7912cb845dab632ae57b6563a176437e4cf1f36fbb18d700",
                                    "0x8707cf27c636c0e0efade545428ac5b44a926808efb0275bcfb8670aa704a98a",
                                    "0xe0d1ca15bf9f53c1411ee02e3230de62e553063ce506143b70797243797ee0c6",
                                    "0xfbbf69d68013cbd5ab8cdd23527f8a4bb579ebdb680bbb78101262a33b1bfe8a"
                                ]
                            }
                        ],
                        "constructorArguments": "",
                        "name": "whiteListMint",
                        "returnParams": [],
                        "signature": "whiteListMint(bytes32[])"
                    },
                    "errorInfo": "",
                    "fromAddress": "0x919c8bef08d14a8b6fc1413cfcc04b0925d9096e",
                    "gasUsed": 177665,
                    "id": 0,
                    "methodDecoded": true,
                    "operation": "CALL",
                    "output": "0x0000000000000000000000000000000000000000000000000000000000000499",
                    "revert": false,
                    "revertMessage": "",
                    "selector": "0x97254e55",
                    "status": true,
                    "value": "0"
                },
                "nodeType": 0
            },
            "1": {
                "event": {
                    "contract": "0x845a5797c0aa839d945b69346eea6c8b5dd5b396",
                    "decodedLog": {
                        "name": "Transfer",
                        "params": [
                            {
                                "name": "from",
                                "type": "address",
                                "value": "0x0000000000000000000000000000000000000000"
                            },
                            {
                                "name": "to",
                                "type": "address",
                                "value": "0x919c8bef08d14a8b6fc1413cfcc04b0925d9096e"
                            },
                            {
                                "decimalAvailable": true,
                                "name": "tokenId",
                                "type": "uint256",
                                "value": "1,177"
                            }
                        ],
                        "signature": "Transfer(address,address,uint256)"
                    },
                    "id": 1,
                    "logData": "0x",
                    "logDecoded": true,
                    "operation": "EVENT",
                    "revert": false,
                    "status": true,
                    "topics": [
                        "0xddf252ad1be2c89b69c2b068fc378daa952ba7f163c4a11628f55a4df523b3ef",
                        "0x0000000000000000000000000000000000000000000000000000000000000000",
                        "0x000000000000000000000000919c8bef08d14a8b6fc1413cfcc04b0925d9096e",
                        "0x0000000000000000000000000000000000000000000000000000000000000499"
                    ]
                },
                "nodeType": 1
            }
        },
        "gasFlame": [
            {
                "children": [
                    {
                        "children": [
                            {
                                "children": [],
                                "depth": 0,
                                "name": "Initial Gas",
                                "value": 26440
                            },
                            {
                                "children": [],
                                "depth": 0,
                                "name": "Executed Gas",
                                "value": 151225
                            }
                        ],
                        "depth": -1,
                        "name": "Actual Gas Used",
                        "value": 177665
                    },
                    {
                        "children": [],
                        "depth": -1,
                        "name": "Refunded Gas",
                        "value": 0
                    }
                ],
                "depth": -2,
                "name": "Total Gas",
                "value": 177665
            }
        ],
        "isConfirmed": true,
        "mainTrace": [
            {
                "children": [
                    {
                        "children": [
                            {
                                "children": [],
                                "depth": 1,
                                "id": 1,
                                "order": 1
                            }
                        ],
                        "depth": 0,
                        "id": 0,
                        "order": 0
                    }
                ],
                "depth": -1,
                "id": -1,
                "order": -1
            }
        ],
        "mainTraceNodeCount": 2,
        "parentIdMap": {
            "0": -1,
            "1": 0
        },
        "tidyTrace": [
            {
                "children": [
                    {
                        "children": [
                            {
                                "children": [],
                                "depth": 1,
                                "id": 1,
                                "order": 1
                            }
                        ],
                        "depth": 0,
                        "id": 0,
                        "order": 0
                    }
                ],
                "depth": -1,
                "id": -1,
                "order": -1
            }
        ],
        "tidyTraceNodeCount": 2
    },
    "state_change": {
        "stateChanges": [
            {
                "address": "0x845a5797c0aa839d945b69346eea6c8b5dd5b396",
                "erc": "",
                "slots": [
                    {
                        "current": "0x0000000000000000000000000000000000000000000000000000000000000499",
                        "key": "0x000000000000000000000000000000000000000000000000000000000000000f",
                        "prev": "0x0000000000000000000000000000000000000000000000000000000000000498"
                    },
                    {
                        "current": "0x0000000000000000000000000000000000000000000000000000000000000002",
                        "key": "0x63217566651ae09fd76af8f00be561634061fb7f8edc69948fd1382a97bbf2f1",
                        "prev": "0x0000000000000000000000000000000000000000000000000000000000000001"
                    },
                    {
                        "current": "0x0000000000000000000000000000000000000000000000000000000000000499",
                        "key": "0x717a82abaf9607fc7a1e097b97384f8f6b004106f0af7033d1bafcad27e46157",
                        "prev": "0x0000000000000000000000000000000000000000000000000000000000000000"
                    },
                    {
                        "current": "0x0000000000000000000000000000000000000000000000000000000000000499",
                        "key": "0x0000000000000000000000000000000000000000000000000000000000000002",
                        "prev": "0x0000000000000000000000000000000000000000000000000000000000000498"
                    },
                    {
                        "current": "0x0000000000000000000000000000000000000000000000000000000000000499",
                        "key": "0x405787fa12a823e0f2b7631cc41b3ba8828b3321ca811111fa75cd3aa3bb63fe",
                        "prev": "0x0000000000000000000000000000000000000000000000000000000000000000"
                    },
                    {
                        "current": "0x000000000000000000000000919c8bef08d14a8b6fc1413cfcc04b0925d9096e",
                        "key": "0x405787fa12a823e0f2b7631cc41b3ba8828b3321ca811111fa75cd3aa3bb63ff",
                        "prev": "0x0000000000000000000000000000000000000000000000000000000000000000"
                    },
                    {
                        "current": "0x0000000000000000000000000000000000000000000000000000000000000499",
                        "key": "0xde8c94d081f9b3eb4880641bad70ab2e8028fe6e8b0d1b659c2f0aabe26f010b",
                        "prev": "0x0000000000000000000000000000000000000000000000000000000000000000"
                    },
                    {
                        "current": "0x0000000000000000000000000000000000000000000000000000000000000002",
                        "key": "0xb133be80519b1e03a7b4dd829c1825f3fad433eb483a150ff102d7956e2dfc92",
                        "prev": "0x0000000000000000000000000000000000000000000000000000000000000000"
                    },
                    {
                        "current": "0x0000000000000000000000000000000000000000000000000000000000000002",
                        "key": "0x82409107378ac23219f4b045a9c23e6285bc39b15972b767e1da8831b87356f3",
                        "prev": "0x0000000000000000000000000000000000000000000000000000000000000001"
                    },
                    {
                        "current": "0x0000000000000000000000000000000000000000000000000000000000000002",
                        "key": "0x56a965a1542d3db08341c253bbb795c0e49c017feaad1f6e137800f459002060",
                        "prev": "0x0000000000000000000000000000000000000000000000000000000000000001"
                    }
                ],
                "storageVariables": []
            }
        ]
    }
}