{
    "balance_change": {
        "balanceChanges": [
            {
                "account": "0x0000000000000000000000000000000000000000",
                "assets": [
                    {
                        "address": "0xd5d5f935f652c557e42641c68a60ee4de05257e6",
                        "amount": "999.870315",
                        "iconUrl": "",
                        "isERC1155": false,
                        "isERC721": false,
                        "sign": false,
                        "value": ""
                    }
                ]
            },
            {
                "account": "0x53462b88e07f7ba59724f712daa91054f0d983ae",
                "assets": [
                    {
                        "address": "0xd5d5f935f652c557e42641c68a60ee4de05257e6",
                        "amount": "999.870315",
                        "iconUrl": "",
                        "isERC1155": false,
                        "isERC721": false,
                        "sign": true,
                        "value": ""
                    }
                ]
            }
        ]
    },
    "profile": {
        "basic_info": {
            "baseFee": "",
            "blockNumber": 7375337,
            "callData": "0x40c10f1900000000000000000000000053462b88e07f7ba59724f712daa91054f0d983ae000000000000000000000000000000000000000000000000000000003b98cf6b",
            "debugEnable": true,
            "errorInfo": "",
            "eventCount": 2,
            "feeRecipient": "0x52bc44d5378309ee2abf1539bf71de1b7d7be3b5",
            "formatValue": "0",
            "gasLimit": 100000,
            "gasPrice": "15",
            "gasUsed": 39397,
            "intTxnCount": 0,
            "internalRevert": false,
            "internalRevertMessage": "",
            "isContractCreation": false,
            "isFlashloan": false,
            "maxFee": "",
            "nonce": 175648,
            "overwritedBlockNumber": -1,
            "priorityFee": "",
            "receiver": "0xd5d5f935f652c557e42641c68a60ee4de05257e6",
            "revertMessage": "",
            "sender": "0x2c4c97388c10667d904a012539ca5759dd2b6ef2",
            "simulationEnable": true,
            "sourceTxnHash": "0x97d73d36ac34454e3fe6ff28ee47ad35b6a7bacca85231c558c35441e4accd06",
            "status": true,
            "timestamp": "2019-03-15T18:54:12Z",
            "transactionFee": "0.000590955",
            "txnHash": "0x97d73d36ac34454e3fe6ff28ee47ad35b6a7bacca85231c558c35441e4accd06",
            "txnIndex": 2,
            "type": 0,
            "value": "0"
        },
        "fund_flow": [
            {
                "amount": "999.870315",
                "from": "0x0000000000000000000000000000000000000000",
                "id": 1,
                "isERC1155": false,
                "isERC721": false,
                "isReverted": false,
                "order": 1,
                "to": "0x53462b88e07f7ba59724f712daa91054f0d983ae",
                "token": "0xd5d5f935f652c557e42641c68a60ee4de05257e6"
            }
        ],
        "token_infos": [
            {
                "address": "0xc02aaa39b223fe8d0a0e5c4f27ead9083c756cc2",
                "decimals": 18
            },
            {
                "address": "0xd5d5f935f652c557e42641c68a60ee4de05257e6",
                "decimals": 6
            },
            {
                "address": "0xeeeeeeeeeeeeeeeeeeeeeeeeeeeeeeeeeeeeeeee",
                "decimals": 18
            }
        ]
    },
    "address_label": {
        "labels": [
            {
                "address": "0xeeeeeeeeeeeeeeeeeeeeeeeeeeeeeeeeeeeeeeee",
                "label": "Ether"
            },
            {
                "address": "0xd5d5f935f652c557e42641c68a60ee4de05257e6",
                "label": "SRX"
            },
            {
                "address": "0x0000000000000000000000000000000000000001",
                "label": "Precompiled"
            },
            {
                "address": "0x0000000000000000000000000000000000000002",
                "label": "Precompiled"
            },
            {
                "address": "0x0000000000000000000000000000000000000003",
                "label": "Precompiled"
            },
            {
                "address": "0x0000000000000000000000000000000000000004",
                "label": "Precompiled"
            }
        ]
    },
    "trace": {
        "accountLabels": null,
        "dataMap": {
            "-1": {
                "invocation": {
                    "address": "0x2c4c97388c10667d904a012539ca5759dd2b6ef2",
                    "callData": "",
                    "decodedMethod": null,
                    "errorInfo": "",
                    "fromAddress": "",
                    "gasUsed": 0,
                    "id": -1,
                    "methodDecoded": false,
                    "operation": "",
                    "output": "",
                    "revert": false,
                    "revertMessage": "",
                    "selector": "",
                    "status": false,
                    "value": ""
                },
                "nodeType": 0
            },
            "0": {
                "invocation": {
                    "address": "0xd5d5f935f652c557e42641c68a60ee4de05257e6",
                    "callData": "0x00000000000000000000000053462b88e07f7ba59724f712daa91054f0d983ae000000000000000000000000000000000000000000000000000000003b98cf6b",
                    "decodedMethod": {
                        "callParams": [
                            {
                                "name": "to",
                                "type": "address",
                                "value": "0x53462b88e07f7ba59724f712daa91054f0d983ae"
                            },
                            {
                                "name": "amount",
                                "type": "uint256",
                                "value": "999,870,315"
                            }
                        ],
                        "constructorArguments": "",
                        "name": "mint",
                        "returnParams": [],
                        "signature": "mint(address,uint256)"
                    },
                    "errorInfo": "",
                    "fromAddress": "0x2c4c97388c10667d904a012539ca5759dd2b6ef2",
                    "gasUsed": 39397,
                    "id": 0,
                    "methodDecoded": true,
                    "operation": "CALL",
                    "output": "0x0000000000000000000000000000000000000000000000000000000000000001",
                    "revert": false,
                    "revertMessage": "",
                    "selector": "0x40c10f19",
                    "status": true,
                    "value": "0"
                },
                "nodeType": 0
            },
            "1": {
                "event": {
                    "contract": "0xd5d5f935f652c557e42641c68a60ee4de05257e6",
                    "decodedLog": {
                        "name": "Mint",
                        "params": [
                            {
                                "name": "to",
                                "type": "address",
                                "value": "0x53462b88e07f7ba59724f712daa91054f0d983ae"
                            },
                            {
                                "name": "amount",
                                "type": "uint256",
                                "value": "999,870,315"
                            }
                        ],
                        "signature": "Mint(address,uint256)"
                    },
                    "id": 1,
                    "logData": "0x000000000000000000000000000000000000000000000000000000003b98cf6b",
                    "logDecoded": true,
                    "operation": "EVENT",
                    "revert": false,
                    "status": true,
                    "topics": [
                        "0x0f6798a560793a54c3bcfe86a93cde1e73087d944c0ea20544137d4121396885",
                        "0x00000000000000000000000053462b88e07f7ba59724f712daa91054f0d983ae"
                    ]
                },
                "nodeType": 1
            },
            "2": {
                "event": {
                    "contract": "0xd5d5f935f652c557e42641c68a60ee4de05257e6",
                    "decodedLog": {
                        "name": "Transfer",
                        "params": [
                            {
                                "name": "from",
                                "type": "address",
                                "value": "0x0000000000000000000000000000000000000000"
                            },
                            {
                                "name": "to",
                                "type": "address",
                                "value": "0x53462b88e07f7ba59724f712daa91054f0d983ae"
                            },
                            {
                                "decimalAvailable": true,
                                "name": "value",
                                "type": "uint256",
                                "value": "999,870,315"
                            }
                        ],
                        "signature": "Transfer(address,address,uint256)"
                    },
                    "id": 2,
                    "logData": "0x000000000000000000000000000000000000000000000000000000003b98cf6b",
                    "logDecoded": true,
                    "operation": "EVENT",
                    "revert": false,
                    "status": true,
                    "topics": [
                        "0xddf252ad1be2c89b69c2b068fc378daa952ba7f163c4a11628f55a4df523b3ef",
                        "0x0000000000000000000000000000000000000000000000000000000000000000",
                        "0x00000000000000000000000053462b88e07f7ba59724f712daa91054f0d983ae"
                    ]
                },
                "nodeType": 1
            }
        },
        "gasFlame": [
            {
                "children": [
                    {
                        "children": [
                            {
                                "children": [],
                                "depth": 0,
                                "name": "Initial Gas",
                                "value": 23064
                            },
                            {
                                "children": [],
                                "depth": 0,
                                "name": "Executed Gas",
                                "value": 16333
                            }
                        ],
                        "depth": -1,
                        "name": "Actual Gas Used",
                        "value": 39397
                    },
                    {
                        "children": [],
                        "depth": -1,
                        "name": "Refunded Gas",
                        "value": 0
                    }
                ],
                "depth": -2,
                "name": "Total Gas",
                "value": 39397
            }
        ],
        "isConfirmed": true,
        "mainTrace": [
            {
                "children": [
                    {
                        "children": [
                            {
                                "children": [],
                                "depth": 1,
                                "id": 1,
                                "order": 1
                            },
                            {
                                "children": [],
                                "depth": 1,
                                "id": 2,
                                "order": 2
                            }
                        ],
                        "depth": 0,
                        "id": 0,
                        "order": 0
                    }
                ],
                "depth": -1,
                "id": -1,
                "order": -1
            }
        ],
        "mainTraceNodeCount": 3,
        "parentIdMap": {
            "0": -1,
            "1": 0,
            "2": 0
        },
        "tidyTrace": [
            {
                "children": [
                    {
                        "children": [
                            {
                                "children": [],
                                "depth": 1,
                                "id": 1,
                                "order": 1
                            },
                            {
                                "children": [],
                                "depth": 1,
                                "id": 2,
                                "order": 2
                            }
                        ],
                        "depth": 0,
                        "id": 0,
                        "order": 0
                    }
                ],
                "depth": -1,
                "id": -1,
                "order": -1
            }
        ],
        "tidyTraceNodeCount": 3
    },
    "state_change": {
        "stateChanges": [
            {
                "address": "0xd5d5f935f652c557e42641c68a60ee4de05257e6",
                "erc": "",
                "slots": [
                    {
                        "current": "0x00000000000000000000000000000000000000000000000000007c975a906496",
                        "key": "0x0000000000000000000000000000000000000000000000000000000000000001",
                        "prev": "0x00000000000000000000000000000000000000000000000000007c971ef7952b"
                    },
                    {
                        "current": "0x00000000000000000000000000000000000000000000000000000000ee633dc7",
                        "key": "0xd65a0a5d1aaeddc6b2aa0ca463e09d2aec380929310c030bf474f8c496be2939",
                        "prev": "0x00000000000000000000000000000000000000000000000000000000b2ca6e5c"
                    }
                ],
                "storageVariables": []
            }
        ]
    }
}