{
    "balance_change": {
        "balanceChanges": [
            {
                "account": "0xfa95e64f992c6f8f61c7e6faf76da474b5910597",
                "assets": [
                    {
                        "address": "0xe13cf110176e0dd6590536cd391b8a3522475f82",
                        "amount": "678.638128257",
                        "iconUrl": "",
                        "isERC1155": false,
                        "isERC721": false,
                        "sign": true,
                        "value": "10.03604355"
                    },
                    {
                        "address": "0x12970e6868f88f6557b76120662c1b3e50a646bf",
                        "amount": "87,317,112.992095838647256042",
                        "iconUrl": "",
                        "isERC1155": false,
                        "isERC721": false,
                        "sign": false,
                        "value": "10.70808209"
                    }
                ]
            },
            {
                "account": "0x77fca8cb4d4be5d196e44fc5403d33caee13cf29",
                "assets": [
                    {
                        "address": "0xc02aaa39b223fe8d0a0e5c4f27ead9083c756cc2",
                        "amount": "0.003265019699241864",
                        "iconUrl": "https://assets.blocksec.com/icon/f1cb2d02c471d545bbc7722daf3277fd852d98e63d118771af7047bd8256c516.png",
                        "isERC1155": false,
                        "isERC721": false,
                        "sign": true,
                        "value": "10.739020696248806835"
                    },
                    {
                        "address": "0xe13cf110176e0dd6590536cd391b8a3522475f82",
                        "amount": "678.638128257",
                        "iconUrl": "",
                        "isERC1155": false,
                        "isERC721": false,
                        "sign": false,
                        "value": "10.03604355"
                    }
                ]
            },
            {
                "account": "0xcbe856765eeec3fdc505ddebf9dc612da995e593",
                "assets": [
                    {
                        "address": "0xc02aaa39b223fe8d0a0e5c4f27ead9083c756cc2",
                        "amount": "0.003265019699241864",
                        "iconUrl": "https://assets.blocksec.com/icon/f1cb2d02c471d545bbc7722daf3277fd852d98e63d118771af7047bd8256c516.png",
                        "isERC1155": false,
                        "isERC721": false,
                        "sign": false,
                        "value": "10.739020696248806835"
                    },
                    {
                        "address": "0x12970e6868f88f6557b76120662c1b3e50a646bf",
                        "amount": "87,317,112.992095838647256042",
                        "iconUrl": "",
                        "isERC1155": false,
                        "isERC721": false,
                        "sign": true,
                        "value": "10.70808209"
                    }
                ]
            }
        ]
    },
    "profile": {
        "basic_info": {
            "baseFee": "1.183537208",
            "blockNumber": 20408420,
            "callData": "0x3593564c000000000000000000000000000000000000000000000000000000000000006000000000000000000000000000000000000000000000000000000000000000a00000000000000000000000000000000000000000000000000000000066a6d9db00000000000000000000000000000000000000000000000000000000000000020a080000000000000000000000000000000000000000000000000000000000000000000000000000000000000000000000000000000000000000000000000002000000000000000000000000000000000000000000000000000000000000004000000000000000000000000000000000000000000000000000000000000001c0000000000000000000000000000000000000000000000000000000000000016000000000000000000000000012970e6868f88f6557b76120662c1b3e50a646bf000000000000000000000000ffffffffffffffffffffffffffffffffffffffff0000000000000000000000000000000000000000000000000000000066ce648b00000000000000000000000000000000000000000000000000000000000000000000000000000000000000003fc91a3afd70395cd496c647d5a6cc9d4b2b7fad0000000000000000000000000000000000000000000000000000000066a6de9300000000000000000000000000000000000000000000000000000000000000e00000000000000000000000000000000000000000000000000000000000000041b780de526664ee85c2b9d2d93ef0e3b5e4466ff6236fe017d85a8a229162fc54218af8376a124da849b64be8c99524e3159544e86e24bf817d06cc284c3300631b0000000000000000000000000000000000000000000000000000000000000000000000000000000000000000000000000000000000000000000000000001200000000000000000000000000000000000000000000000000000000000000001000000000000000000000000000000000000000000483a1e2e1863484c9683ea0000000000000000000000000000000000000000000000000000009d38bda91800000000000000000000000000000000000000000000000000000000000000a00000000000000000000000000000000000000000000000000000000000000001000000000000000000000000000000000000000000000000000000000000000300000000000000000000000012970e6868f88f6557b76120662c1b3e50a646bf000000000000000000000000c02aaa39b223fe8d0a0e5c4f27ead9083c756cc2000000000000000000000000e13cf110176e0dd6590536cd391b8a3522475f82",
            "debugEnable": true,
            "errorInfo": "",
            "eventCount": 8,
            "feeRecipient": "0x95222290dd7278aa3ddd389cc1e1d165cc4bafe5",
            "formatValue": "0",
            "gasLimit": 335106,
            "gasPrice": "1.283537208",
            "gasUsed": 261841,
            "intTxnCount": 18,
            "internalRevert": false,
            "internalRevertMessage": "",
            "isContractCreation": false,
            "isFlashloan": false,
            "maxFee": "1.422064518",
            "nonce": 62,
            "overwritedBlockNumber": -1,
            "priorityFee": "0.1",
            "receiver": "0x3fc91a3afd70395cd496c647d5a6cc9d4b2b7fad",
            "revertMessage": "",
            "sender": "0xfa95e64f992c6f8f61c7e6faf76da474b5910597",
            "simulationEnable": true,
            "sourceTxnHash": "0x97a85d495039fb2908e76272bd01b169d66ba53963d9003ef5035b542abc7b44",
            "status": true,
            "timestamp": "2024-07-28T23:44:23Z",
            "transactionFee": "0.000336082666079928",
            "txnHash": "0x97a85d495039fb2908e76272bd01b169d66ba53963d9003ef5035b542abc7b44",
            "txnIndex": 56,
            "type": 2,
            "value": "0"
        },
        "fund_flow": [
            {
                "amount": "87,317,112.992095838647256042",
                "from": "0xfa95e64f992c6f8f61c7e6faf76da474b5910597",
                "id": 1,
                "isERC1155": false,
                "isERC721": false,
                "isReverted": false,
                "order": 1,
                "to": "0xcbe856765eeec3fdc505ddebf9dc612da995e593",
                "token": "0x12970e6868f88f6557b76120662c1b3e50a646bf"
            },
            {
                "amount": "0.003265019699241864",
                "from": "0xcbe856765eeec3fdc505ddebf9dc612da995e593",
                "id": 2,
                "isERC1155": false,
                "isERC721": false,
                "isReverted": false,
                "order": 2,
                "to": "0x77fca8cb4d4be5d196e44fc5403d33caee13cf29",
                "token": "0xc02aaa39b223fe8d0a0e5c4f27ead9083c756cc2"
            },
            {
                "amount": "678.638128257",
                "from": "0x77fca8cb4d4be5d196e44fc5403d33caee13cf29",
                "id": 3,
                "isERC1155": false,
                "isERC721": false,
                "isReverted": false,
                "order": 3,
                "to": "0xfa95e64f992c6f8f61c7e6faf76da474b5910597",
                "token": "0xe13cf110176e0dd6590536cd391b8a3522475f82"
            }
        ],
        "token_infos": [
            {
                "address": "0xeeeeeeeeeeeeeeeeeeeeeeeeeeeeeeeeeeeeeeee",
                "decimals": 18
            },
            {
                "address": "0x12970e6868f88f6557b76120662c1b3e50a646bf",
                "decimals": 18
            },
            {
                "address": "0xc02aaa39b223fe8d0a0e5c4f27ead9083c756cc2",
                "decimals": 18
            },
            {
                "address": "0xe13cf110176e0dd6590536cd391b8a3522475f82",
                "decimals": 9
            }
        ]
    },
    "address_label": {
        "labels": [
            {
                "address": "0xeeeeeeeeeeeeeeeeeeeeeeeeeeeeeeeeeeeeeeee",
                "label": "Ether"
            },
            {
                "address": "0x000000000022d473030f116ddee9f6b43ac78ba3",
                "label": "Permit2"
            },
            {
                "address": "0xe13cf110176e0dd6590536cd391b8a3522475f82",
                "label": "Rent AI: RENT Token"
            },
            {
                "address": "0xc02aaa39b223fe8d0a0e5c4f27ead9083c756cc2",
                "label": "Wrapped Ether (WETH)"
            },
            {
                "address": "0xcbe856765eeec3fdc505ddebf9dc612da995e593",
                "label": "Uniswap V2: LADYS"
            },
            {
                "address": "0x12970e6868f88f6557b76120662c1b3e50a646bf",
                "label": "Milady (LADYS)"
            },
            {
                "address": "0x77fca8cb4d4be5d196e44fc5403d33caee13cf29",
                "label": "Uniswap V2: RENT 5"
            },
            {
                "address": "0x3fc91a3afd70395cd496c647d5a6cc9d4b2b7fad",
                "label": "Uniswap: Universal Router"
            },
            {
                "address": "0x0000000000000000000000000000000000000001",
                "label": "Precompiled"
            },
            {
                "address": "0x0000000000000000000000000000000000000002",
                "label": "Precompiled"
            },
            {
                "address": "0x0000000000000000000000000000000000000003",
                "label": "Precompiled"
            },
            {
                "address": "0x0000000000000000000000000000000000000004",
                "label": "Precompiled"
            }
        ]
    },
    "trace": {
        "accountLabels": null,
        "dataMap": {
            "-1": {
                "invocation": {
                    "address": "0xfa95e64f992c6f8f61c7e6faf76da474b5910597",
                    "callData": "",
                    "decodedMethod": null,
                    "errorInfo": "",
                    "fromAddress": "",
                    "gasUsed": 0,
                    "id": -1,
                    "methodDecoded": false,
                    "operation": "",
                    "output": "",
                    "revert": false,
                    "revertMessage": "",
                    "selector": "",
                    "status": false,
                    "value": ""
                },
                "nodeType": 0
            },
            "0": {
                "invocation": {
                    "address": "0x3fc91a3afd70395cd496c647d5a6cc9d4b2b7fad",
                    "callData": "0x000000000000000000000000000000000000000000000000000000000000006000000000000000000000000000000000000000000000000000000000000000a00000000000000000000000000000000000000000000000000000000066a6d9db00000000000000000000000000000000000000000000000000000000000000020a080000000000000000000000000000000000000000000000000000000000000000000000000000000000000000000000000000000000000000000000000002000000000000000000000000000000000000000000000000000000000000004000000000000000000000000000000000000000000000000000000000000001c0000000000000000000000000000000000000000000000000000000000000016000000000000000000000000012970e6868f88f6557b76120662c1b3e50a646bf000000000000000000000000ffffffffffffffffffffffffffffffffffffffff0000000000000000000000000000000000000000000000000000000066ce648b00000000000000000000000000000000000000000000000000000000000000000000000000000000000000003fc91a3afd70395cd496c647d5a6cc9d4b2b7fad0000000000000000000000000000000000000000000000000000000066a6de9300000000000000000000000000000000000000000000000000000000000000e00000000000000000000000000000000000000000000000000000000000000041b780de526664ee85c2b9d2d93ef0e3b5e4466ff6236fe017d85a8a229162fc54218af8376a124da849b64be8c99524e3159544e86e24bf817d06cc284c3300631b0000000000000000000000000000000000000000000000000000000000000000000000000000000000000000000000000000000000000000000000000001200000000000000000000000000000000000000000000000000000000000000001000000000000000000000000000000000000000000483a1e2e1863484c9683ea0000000000000000000000000000000000000000000000000000009d38bda91800000000000000000000000000000000000000000000000000000000000000a00000000000000000000000000000000000000000000000000000000000000001000000000000000000000000000000000000000000000000000000000000000300000000000000000000000012970e6868f88f6557b76120662c1b3e50a646bf000000000000000000000000c02aaa39b223fe8d0a0e5c4f27ead9083c756cc2000000000000000000000000e13cf110176e0dd6590536cd391b8a3522475f82",
                    "decodedMethod": {
                        "callParams": [
                            {
                                "name": "commands",
                                "type": "bytes",
                                "value": "0x0a08"
                            },
                            {
                                "name": "inputs",
                                "type": "bytes[]",
                                "value": [
                                    "0x00000000000000000000000012970e6868f88f6557b76120662c1b3e50a646bf000000000000000000000000ffffffffffffffffffffffffffffffffffffffff0000000000000000000000000000000000000000000000000000000066ce648b00000000000000000000000000000000000000000000000000000000000000000000000000000000000000003fc91a3afd70395cd496c647d5a6cc9d4b2b7fad0000000000000000000000000000000000000000000000000000000066a6de9300000000000000000000000000000000000000000000000000000000000000e00000000000000000000000000000000000000000000000000000000000000041b780de526664ee85c2b9d2d93ef0e3b5e4466ff6236fe017d85a8a229162fc54218af8376a124da849b64be8c99524e3159544e86e24bf817d06cc284c3300631b00000000000000000000000000000000000000000000000000000000000000",
                                    "0x0000000000000000000000000000000000000000000000000000000000000001000000000000000000000000000000000000000000483a1e2e1863484c9683ea0000000000000000000000000000000000000000000000000000009d38bda91800000000000000000000000000000000000000000000000000000000000000a00000000000000000000000000000000000000000000000000000000000000001000000000000000000000000000000000000000000000000000000000000000300000000000000000000000012970e6868f88f6557b76120662c1b3e50a646bf000000000000000000000000c02aaa39b223fe8d0a0e5c4f27ead9083c756cc2000000000000000000000000e13cf110176e0dd6590536cd391b8a3522475f82"
                                ]
                            },
                            {
                                "name": "deadline",
                                "type": "uint256",
                                "value": "1,722,210,779"
                            }
                        ],
                        "constructorArguments": "",
                        "name": "execute",
                        "returnParams": [],
                        "signature": "execute(bytes,bytes[],uint256)"
                    },
                    "errorInfo": "",
                    "fromAddress": "0xfa95e64f992c6f8f61c7e6faf76da474b5910597",
                    "gasUsed": 261841,
                    "id": 0,
                    "methodDecoded": true,
                    "operation": "CALL",
                    "output": "",
                    "revert": false,
                    "revertMessage": "",
                    "selector": "0x3593564c",
                    "status": true,
                    "value": "0"
                },
                "nodeType": 0
            },
            "1": {
                "invocation": {
                    "address": "0x000000000022d473030f116ddee9f6b43ac78ba3",
                    "callData": "0x000000000000000000000000fa95e64f992c6f8f61c7e6faf76da474b591059700000000000000000000000012970e6868f88f6557b76120662c1b3e50a646bf000000000000000000000000ffffffffffffffffffffffffffffffffffffffff0000000000000000000000000000000000000000000000000000000066ce648b00000000000000000000000000000000000000000000000000000000000000000000000000000000000000003fc91a3afd70395cd496c647d5a6cc9d4b2b7fad0000000000000000000000000000000000000000000000000000000066a6de9300000000000000000000000000000000000000000000000000000000000001000000000000000000000000000000000000000000000000000000000000000041b780de526664ee85c2b9d2d93ef0e3b5e4466ff6236fe017d85a8a229162fc54218af8376a124da849b64be8c99524e3159544e86e24bf817d06cc284c3300631b00000000000000000000000000000000000000000000000000000000000000",
                    "decodedMethod": {
                        "callParams": [
                            {
                                "name": "owner",
                                "type": "address",
                                "value": "0xfa95e64f992c6f8f61c7e6faf76da474b5910597"
                            },
                            {
                                "name": "permitSingle",
                                "type": "((address,uint160,uint48,uint48),address,uint256)",
                                "value": [
                                    {
                                        "name": "details",
                                        "type": "(address,uint160,uint48,uint48)",
                                        "value": [
                                            {
                                                "name": "token",
                                                "type": "address",
                                                "value": "0x12970e6868f88f6557b76120662c1b3e50a646bf"
                                            },
                                            {
                                                "name": "amount",
                                                "type": "uint160",
                                                "value": "1,461,501,637,330,902,918,203,684,832,716,283,019,655,932,542,975"
                                            },
                                            {
                                                "name": "expiration",
                                                "type": "uint48",
                                                "value": "1,724,802,187"
                                            },
                                            {
                                                "name": "nonce",
                                                "type": "uint48",
                                                "value": "0"
                                            }
                                        ]
                                    },
                                    {
                                        "name": "spender",
                                        "type": "address",
                                        "value": "0x3fc91a3afd70395cd496c647d5a6cc9d4b2b7fad"
                                    },
                                    {
                                        "name": "sigDeadline",
                                        "type": "uint256",
                                        "value": "1,722,211,987"
                                    }
                                ]
                            },
                            {
                                "name": "signature",
                                "type": "bytes",
                                "value": "0xb780de526664ee85c2b9d2d93ef0e3b5e4466ff6236fe017d85a8a229162fc54218af8376a124da849b64be8c99524e3159544e86e24bf817d06cc284c3300631b"
                            }
                        ],
                        "constructorArguments": "",
                        "name": "permit",
                        "returnParams": [],
                        "signature": "permit(address,((address,uint160,uint48,uint48),address,uint256),bytes)"
                    },
                    "errorInfo": "",
                    "fromAddress": "0x3fc91a3afd70395cd496c647d5a6cc9d4b2b7fad",
                    "gasUsed": 30786,
                    "id": 1,
                    "methodDecoded": true,
                    "operation": "CALL",
                    "output": "",
                    "revert": false,
                    "revertMessage": "",
                    "selector": "0x2b67b570",
                    "status": true,
                    "value": "0"
                },
                "nodeType": 0
            },
            "10": {
                "invocation": {
                    "address": "0xcbe856765eeec3fdc505ddebf9dc612da995e593",
                    "callData": "0x0000000000000000000000000000000000000000000000000000000000000000000000000000000000000000000000000000000000000000000b9984a35ba38800000000000000000000000077fca8cb4d4be5d196e44fc5403d33caee13cf2900000000000000000000000000000000000000000000000000000000000000800000000000000000000000000000000000000000000000000000000000000000",
                    "decodedMethod": {
                        "callParams": [
                            {
                                "name": "amount0Out",
                                "type": "uint256",
                                "value": "0"
                            },
                            {
                                "name": "amount1Out",
                                "type": "uint256",
                                "value": "3,265,019,699,241,864"
                            },
                            {
                                "name": "to",
                                "type": "address",
                                "value": "0x77fca8cb4d4be5d196e44fc5403d33caee13cf29"
                            },
                            {
                                "name": "data",
                                "type": "bytes",
                                "value": "0x"
                            }
                        ],
                        "constructorArguments": "",
                        "name": "swap",
                        "returnParams": [],
                        "signature": "swap(uint256,uint256,address,bytes)"
                    },
                    "errorInfo": "",
                    "fromAddress": "0x3fc91a3afd70395cd496c647d5a6cc9d4b2b7fad",
                    "gasUsed": 47801,
                    "id": 10,
                    "methodDecoded": true,
                    "operation": "CALL",
                    "output": "",
                    "revert": false,
                    "revertMessage": "",
                    "selector": "0x022c0d9f",
                    "status": true,
                    "value": "0"
                },
                "nodeType": 0
            },
            "11": {
                "invocation": {
                    "address": "0xc02aaa39b223fe8d0a0e5c4f27ead9083c756cc2",
                    "callData": "0x00000000000000000000000077fca8cb4d4be5d196e44fc5403d33caee13cf29000000000000000000000000000000000000000000000000000b9984a35ba388",
                    "decodedMethod": {
                        "callParams": [
                            {
                                "name": "dst",
                                "type": "address",
                                "value": "0x77fca8cb4d4be5d196e44fc5403d33caee13cf29"
                            },
                            {
                                "decimalAvailable": true,
                                "name": "wad",
                                "type": "uint256",
                                "value": "3,265,019,699,241,864"
                            }
                        ],
                        "constructorArguments": "",
                        "name": "transfer",
                        "returnParams": [
                            {
                                "name": "",
                                "type": "bool",
                                "value": true
                            }
                        ],
                        "signature": "transfer(address,uint256)"
                    },
                    "errorInfo": "",
                    "fromAddress": "0xcbe856765eeec3fdc505ddebf9dc612da995e593",
                    "gasUsed": 12862,
                    "id": 11,
                    "methodDecoded": true,
                    "operation": "CALL",
                    "output": "0x0000000000000000000000000000000000000000000000000000000000000001",
                    "revert": false,
                    "revertMessage": "",
                    "selector": "0xa9059cbb",
                    "status": true,
                    "value": "0"
                },
                "nodeType": 0
            },
            "12": {
                "event": {
                    "contract": "0xc02aaa39b223fe8d0a0e5c4f27ead9083c756cc2",
                    "decodedLog": {
                        "name": "Transfer",
                        "params": [
                            {
                                "name": "src",
                                "type": "address",
                                "value": "0xcbe856765eeec3fdc505ddebf9dc612da995e593"
                            },
                            {
                                "name": "dst",
                                "type": "address",
                                "value": "0x77fca8cb4d4be5d196e44fc5403d33caee13cf29"
                            },
                            {
                                "decimalAvailable": true,
                                "name": "wad",
                                "type": "uint256",
                                "value": "3,265,019,699,241,864"
                            }
                        ],
                        "signature": "Transfer(address,address,uint256)"
                    },
                    "id": 12,
                    "logData": "0x000000000000000000000000000000000000000000000000000b9984a35ba388",
                    "logDecoded": true,
                    "operation": "EVENT",
                    "revert": false,
                    "status": true,
                    "topics": [
                        "0xddf252ad1be2c89b69c2b068fc378daa952ba7f163c4a11628f55a4df523b3ef",
                        "0x000000000000000000000000cbe856765eeec3fdc505ddebf9dc612da995e593",
                        "0x00000000000000000000000077fca8cb4d4be5d196e44fc5403d33caee13cf29"
                    ]
                },
                "nodeType": 1
            },
            "13": {
                "invocation": {
                    "address": "0x12970e6868f88f6557b76120662c1b3e50a646bf",
                    "callData": "0x000000000000000000000000cbe856765eeec3fdc505ddebf9dc612da995e593",
                    "decodedMethod": {
                        "callParams": [
                            {
                                "name": "account",
                                "type": "address",
                                "value": "0xcbe856765eeec3fdc505ddebf9dc612da995e593"
                            }
                        ],
                        "constructorArguments": "",
                        "name": "balanceOf",
                        "returnParams": [
                            {
                                "decimalAvailable": true,
                                "name": "",
                                "type": "uint256",
                                "value": "14,434,341,432,695,571,637,547,001,361,264"
                            }
                        ],
                        "signature": "balanceOf(address)"
                    },
                    "errorInfo": "",
                    "fromAddress": "0xcbe856765eeec3fdc505ddebf9dc612da995e593",
                    "gasUsed": 582,
                    "id": 13,
                    "methodDecoded": true,
                    "operation": "STATICCALL",
                    "output": "0x00000000000000000000000000000000000000b62fdf635a4da97f8d64c6b370",
                    "revert": false,
                    "revertMessage": "",
                    "selector": "0x70a08231",
                    "status": true,
                    "value": "0"
                },
                "nodeType": 0
            },
            "14": {
                "invocation": {
                    "address": "0xc02aaa39b223fe8d0a0e5c4f27ead9083c756cc2",
                    "callData": "0x000000000000000000000000cbe856765eeec3fdc505ddebf9dc612da995e593",
                    "decodedMethod": {
                        "callParams": [
                            {
                                "name": "",
                                "type": "address",
                                "value": "0xcbe856765eeec3fdc505ddebf9dc612da995e593"
                            }
                        ],
                        "constructorArguments": "",
                        "name": "balanceOf",
                        "returnParams": [
                            {
                                "decimalAvailable": true,
                                "name": "",
                                "type": "uint256",
                                "value": "541,359,330,524,559,148,604"
                            }
                        ],
                        "signature": "balanceOf(address)"
                    },
                    "errorInfo": "",
                    "fromAddress": "0xcbe856765eeec3fdc505ddebf9dc612da995e593",
                    "gasUsed": 534,
                    "id": 14,
                    "methodDecoded": true,
                    "operation": "STATICCALL",
                    "output": "0x00000000000000000000000000000000000000000000001d58deb2de0fa1863c",
                    "revert": false,
                    "revertMessage": "",
                    "selector": "0x70a08231",
                    "status": true,
                    "value": "0"
                },
                "nodeType": 0
            },
            "15": {
                "event": {
                    "contract": "0xcbe856765eeec3fdc505ddebf9dc612da995e593",
                    "decodedLog": {
                        "name": "Sync",
                        "params": [
                            {
                                "name": "reserve0",
                                "type": "uint112",
                                "value": "14,434,341,432,695,571,637,547,001,361,264"
                            },
                            {
                                "name": "reserve1",
                                "type": "uint112",
                                "value": "541,359,330,524,559,148,604"
                            }
                        ],
                        "signature": "Sync(uint112,uint112)"
                    },
                    "id": 15,
                    "logData": "0x00000000000000000000000000000000000000b62fdf635a4da97f8d64c6b37000000000000000000000000000000000000000000000001d58deb2de0fa1863c",
                    "logDecoded": true,
                    "operation": "EVENT",
                    "revert": false,
                    "status": true,
                    "topics": [
                        "0x1c411e9a96e071241c2f21f7726b17ae89e3cab4c78be50e062b03a9fffbbad1"
                    ]
                },
                "nodeType": 1
            },
            "16": {
                "event": {
                    "contract": "0xcbe856765eeec3fdc505ddebf9dc612da995e593",
                    "decodedLog": {
                        "name": "Swap",
                        "params": [
                            {
                                "name": "sender",
                                "type": "address",
                                "value": "0x3fc91a3afd70395cd496c647d5a6cc9d4b2b7fad"
                            },
                            {
                                "name": "to",
                                "type": "address",
                                "value": "0x77fca8cb4d4be5d196e44fc5403d33caee13cf29"
                            },
                            {
                                "name": "amount0In",
                                "type": "uint256",
                                "value": "87,317,112,992,095,838,647,256,042"
                            },
                            {
                                "name": "amount1In",
                                "type": "uint256",
                                "value": "0"
                            },
                            {
                                "name": "amount0Out",
                                "type": "uint256",
                                "value": "0"
                            },
                            {
                                "name": "amount1Out",
                                "type": "uint256",
                                "value": "3,265,019,699,241,864"
                            }
                        ],
                        "signature": "Swap(address,uint256,uint256,uint256,uint256,address)"
                    },
                    "id": 16,
                    "logData": "0x000000000000000000000000000000000000000000483a1e2e1863484c9683ea00000000000000000000000000000000000000000000000000000000000000000000000000000000000000000000000000000000000000000000000000000000000000000000000000000000000000000000000000000000000b9984a35ba388",
                    "logDecoded": true,
                    "operation": "EVENT",
                    "revert": false,
                    "status": true,
                    "topics": [
                        "0xd78ad95fa46c994b6551d0da85fc275fe613ce37657fb8d5e3d130840159d822",
                        "0x0000000000000000000000003fc91a3afd70395cd496c647d5a6cc9d4b2b7fad",
                        "0x00000000000000000000000077fca8cb4d4be5d196e44fc5403d33caee13cf29"
                    ]
                },
                "nodeType": 1
            },
            "17": {
                "invocation": {
                    "address": "0x77fca8cb4d4be5d196e44fc5403d33caee13cf29",
                    "callData": "0x",
                    "decodedMethod": {
                        "callParams": [],
                        "constructorArguments": "",
                        "name": "getReserves",
                        "returnParams": [
                            {
                                "name": "_reserve0",
                                "type": "uint112",
                                "value": "12,646,601,547,212,598,947"
                            },
                            {
                                "name": "_reserve1",
                                "type": "uint112",
                                "value": "2,775,998,933,339,155"
                            },
                            {
                                "name": "_blockTimestampLast",
                                "type": "uint32",
                                "value": "1,722,209,963"
                            }
                        ],
                        "signature": "getReserves()"
                    },
                    "errorInfo": "",
                    "fromAddress": "0x3fc91a3afd70395cd496c647d5a6cc9d4b2b7fad",
                    "gasUsed": 2504,
                    "id": 17,
                    "methodDecoded": true,
                    "operation": "STATICCALL",
                    "output": "0x000000000000000000000000000000000000000000000000af81c11a45832ea30000000000000000000000000000000000000000000000000009dcc19e518c130000000000000000000000000000000000000000000000000000000066a6d6ab",
                    "revert": false,
                    "revertMessage": "",
                    "selector": "0x0902f1ac",
                    "status": true,
                    "value": "0"
                },
                "nodeType": 0
            },
            "18": {
                "invocation": {
                    "address": "0xc02aaa39b223fe8d0a0e5c4f27ead9083c756cc2",
                    "callData": "0x00000000000000000000000077fca8cb4d4be5d196e44fc5403d33caee13cf29",
                    "decodedMethod": {
                        "callParams": [
                            {
                                "name": "",
                                "type": "address",
                                "value": "0x77fca8cb4d4be5d196e44fc5403d33caee13cf29"
                            }
                        ],
                        "constructorArguments": "",
                        "name": "balanceOf",
                        "returnParams": [
                            {
                                "decimalAvailable": true,
                                "name": "",
                                "type": "uint256",
                                "value": "12,649,866,566,911,840,811"
                            }
                        ],
                        "signature": "balanceOf(address)"
                    },
                    "errorInfo": "",
                    "fromAddress": "0x3fc91a3afd70395cd496c647d5a6cc9d4b2b7fad",
                    "gasUsed": 534,
                    "id": 18,
                    "methodDecoded": true,
                    "operation": "STATICCALL",
                    "output": "0x000000000000000000000000000000000000000000000000af8d5a9ee8ded22b",
                    "revert": false,
                    "revertMessage": "",
                    "selector": "0x70a08231",
                    "status": true,
                    "value": "0"
                },
                "nodeType": 0
            },
            "19": {
                "invocation": {
                    "address": "0x77fca8cb4d4be5d196e44fc5403d33caee13cf29",
                    "callData": "0x0000000000000000000000000000000000000000000000000000000000000000000000000000000000000000000000000000000000000000000000a652ee5e01000000000000000000000000fa95e64f992c6f8f61c7e6faf76da474b591059700000000000000000000000000000000000000000000000000000000000000800000000000000000000000000000000000000000000000000000000000000000",
                    "decodedMethod": {
                        "callParams": [
                            {
                                "name": "amount0Out",
                                "type": "uint256",
                                "value": "0"
                            },
                            {
                                "name": "amount1Out",
                                "type": "uint256",
                                "value": "714,355,924,481"
                            },
                            {
                                "name": "to",
                                "type": "address",
                                "value": "0xfa95e64f992c6f8f61c7e6faf76da474b5910597"
                            },
                            {
                                "name": "data",
                                "type": "bytes",
                                "value": "0x"
                            }
                        ],
                        "constructorArguments": "",
                        "name": "swap",
                        "returnParams": [],
                        "signature": "swap(uint256,uint256,address,bytes)"
                    },
                    "errorInfo": "",
                    "fromAddress": "0x3fc91a3afd70395cd496c647d5a6cc9d4b2b7fad",
                    "gasUsed": 99959,
                    "id": 19,
                    "methodDecoded": true,
                    "operation": "CALL",
                    "output": "",
                    "revert": false,
                    "revertMessage": "",
                    "selector": "0x022c0d9f",
                    "status": true,
                    "value": "0"
                },
                "nodeType": 0
            },
            "2": {
                "invocation": {
                    "address": "0x0000000000000000000000000000000000000001",
                    "callData": "0x96316e5292c236fdb7405dabdb00d3d8fae301b93c2ef5ef8c266005000000000000000000000000000000000000000000000000000000000000001bb780de526664ee85c2b9d2d93ef0e3b5e4466ff6236fe017d85a8a229162fc54218af8376a124da849b64be8c99524e3159544e86e24bf817d06cc284c330063",
                    "decodedMethod": {
                        "callParams": [
                            {
                                "name": "hash",
                                "type": "bytes32",
                                "value": "0x42c803ba96316e5292c236fdb7405dabdb00d3d8fae301b93c2ef5ef8c266005"
                            },
                            {
                                "name": "v",
                                "type": "uint256",
                                "value": "27"
                            },
                            {
                                "name": "r",
                                "type": "bytes32",
                                "value": "0xb780de526664ee85c2b9d2d93ef0e3b5e4466ff6236fe017d85a8a229162fc54"
                            },
                            {
                                "name": "s",
                                "type": "bytes32",
                                "value": "0x218af8376a124da849b64be8c99524e3159544e86e24bf817d06cc284c330063"
                            }
                        ],
                        "constructorArguments": "",
                        "name": "ecrecover",
                        "returnParams": [
                            {
                                "name": "",
                                "type": "address",
                                "value": "0xfa95e64f992c6f8f61c7e6faf76da474b5910597"
                            }
                        ],
                        "signature": "ecrecover(bytes32,uint256,bytes32,bytes32)"
                    },
                    "errorInfo": "",
                    "fromAddress": "0x000000000022d473030f116ddee9f6b43ac78ba3",
                    "gasUsed": 3000,
                    "id": 2,
                    "methodDecoded": true,
                    "operation": "STATICCALL",
                    "output": "0x000000000000000000000000fa95e64f992c6f8f61c7e6faf76da474b5910597",
                    "revert": false,
                    "revertMessage": "",
                    "selector": "0x42c803ba",
                    "status": true,
                    "value": "0"
                },
                "nodeType": 0
            },
            "20": {
                "invocation": {
                    "address": "0xe13cf110176e0dd6590536cd391b8a3522475f82",
                    "callData": "0x000000000000000000000000fa95e64f992c6f8f61c7e6faf76da474b5910597000000000000000000000000000000000000000000000000000000a652ee5e01",
                    "decodedMethod": {
                        "callParams": [
                            {
                                "name": "recipient",
                                "type": "address",
                                "value": "0xfa95e64f992c6f8f61c7e6faf76da474b5910597"
                            },
                            {
                                "decimalAvailable": true,
                                "name": "amount",
                                "type": "uint256",
                                "value": "714,355,924,481"
                            }
                        ],
                        "constructorArguments": "",
                        "name": "transfer",
                        "returnParams": [
                            {
                                "name": "",
                                "type": "bool",
                                "value": true
                            }
                        ],
                        "signature": "transfer(address,uint256)"
                    },
                    "errorInfo": "",
                    "fromAddress": "0x77fca8cb4d4be5d196e44fc5403d33caee13cf29",
                    "gasUsed": 65448,
                    "id": 20,
                    "methodDecoded": true,
                    "operation": "CALL",
                    "output": "0x0000000000000000000000000000000000000000000000000000000000000001",
                    "revert": false,
                    "revertMessage": "",
                    "selector": "0xa9059cbb",
                    "status": true,
                    "value": "0"
                },
                "nodeType": 0
            },
            "21": {
                "event": {
                    "contract": "0xe13cf110176e0dd6590536cd391b8a3522475f82",
                    "decodedLog": {
                        "name": "Transfer",
                        "params": [
                            {
                                "name": "from",
                                "type": "address",
                                "value": "0x77fca8cb4d4be5d196e44fc5403d33caee13cf29"
                            },
                            {
                                "name": "to",
                                "type": "address",
                                "value": "0xfa95e64f992c6f8f61c7e6faf76da474b5910597"
                            },
                            {
                                "decimalAvailable": true,
                                "name": "value",
                                "type": "uint256",
                                "value": "678,638,128,257"
                            }
                        ],
                        "signature": "Transfer(address,address,uint256)"
                    },
                    "id": 21,
                    "logData": "0x0000000000000000000000000000000000000000000000000000009e01fc0c81",
                    "logDecoded": true,
                    "operation": "EVENT",
                    "revert": false,
                    "status": true,
                    "topics": [
                        "0xddf252ad1be2c89b69c2b068fc378daa952ba7f163c4a11628f55a4df523b3ef",
                        "0x00000000000000000000000077fca8cb4d4be5d196e44fc5403d33caee13cf29",
                        "0x000000000000000000000000fa95e64f992c6f8f61c7e6faf76da474b5910597"
                    ]
                },
                "nodeType": 1
            },
            "22": {
                "invocation": {
                    "address": "0xc02aaa39b223fe8d0a0e5c4f27ead9083c756cc2",
                    "callData": "0x00000000000000000000000077fca8cb4d4be5d196e44fc5403d33caee13cf29",
                    "decodedMethod": {
                        "callParams": [
                            {
                                "name": "",
                                "type": "address",
                                "value": "0x77fca8cb4d4be5d196e44fc5403d33caee13cf29"
                            }
                        ],
                        "constructorArguments": "",
                        "name": "balanceOf",
                        "returnParams": [
                            {
                                "decimalAvailable": true,
                                "name": "",
                                "type": "uint256",
                                "value": "12,649,866,566,911,840,811"
                            }
                        ],
                        "signature": "balanceOf(address)"
                    },
                    "errorInfo": "",
                    "fromAddress": "0x77fca8cb4d4be5d196e44fc5403d33caee13cf29",
                    "gasUsed": 534,
                    "id": 22,
                    "methodDecoded": true,
                    "operation": "STATICCALL",
                    "output": "0x000000000000000000000000000000000000000000000000af8d5a9ee8ded22b",
                    "revert": false,
                    "revertMessage": "",
                    "selector": "0x70a08231",
                    "status": true,
                    "value": "0"
                },
                "nodeType": 0
            },
            "23": {
                "invocation": {
                    "address": "0xe13cf110176e0dd6590536cd391b8a3522475f82",
                    "callData": "0x00000000000000000000000077fca8cb4d4be5d196e44fc5403d33caee13cf29",
                    "decodedMethod": {
                        "callParams": [
                            {
                                "name": "account",
                                "type": "address",
                                "value": "0x77fca8cb4d4be5d196e44fc5403d33caee13cf29"
                            }
                        ],
                        "constructorArguments": "",
                        "name": "balanceOf",
                        "returnParams": [
                            {
                                "decimalAvailable": true,
                                "name": "",
                                "type": "uint256",
                                "value": "2,775,284,577,414,674"
                            }
                        ],
                        "signature": "balanceOf(address)"
                    },
                    "errorInfo": "",
                    "fromAddress": "0x77fca8cb4d4be5d196e44fc5403d33caee13cf29",
                    "gasUsed": 2654,
                    "id": 23,
                    "methodDecoded": true,
                    "operation": "STATICCALL",
                    "output": "0x0000000000000000000000000000000000000000000000000009dc1b4b632e12",
                    "revert": false,
                    "revertMessage": "",
                    "selector": "0x70a08231",
                    "status": true,
                    "value": "0"
                },
                "nodeType": 0
            },
            "24": {
                "event": {
                    "contract": "0x77fca8cb4d4be5d196e44fc5403d33caee13cf29",
                    "decodedLog": {
                        "name": "Sync",
                        "params": [
                            {
                                "name": "reserve0",
                                "type": "uint112",
                                "value": "12,649,866,566,911,840,811"
                            },
                            {
                                "name": "reserve1",
                                "type": "uint112",
                                "value": "2,775,284,577,414,674"
                            }
                        ],
                        "signature": "Sync(uint112,uint112)"
                    },
                    "id": 24,
                    "logData": "0x000000000000000000000000000000000000000000000000af8d5a9ee8ded22b0000000000000000000000000000000000000000000000000009dc1b4b632e12",
                    "logDecoded": true,
                    "operation": "EVENT",
                    "revert": false,
                    "status": true,
                    "topics": [
                        "0x1c411e9a96e071241c2f21f7726b17ae89e3cab4c78be50e062b03a9fffbbad1"
                    ]
                },
                "nodeType": 1
            },
            "25": {
                "event": {
                    "contract": "0x77fca8cb4d4be5d196e44fc5403d33caee13cf29",
                    "decodedLog": {
                        "name": "Swap",
                        "params": [
                            {
                                "name": "sender",
                                "type": "address",
                                "value": "0x3fc91a3afd70395cd496c647d5a6cc9d4b2b7fad"
                            },
                            {
                                "name": "to",
                                "type": "address",
                                "value": "0xfa95e64f992c6f8f61c7e6faf76da474b5910597"
                            },
                            {
                                "name": "amount0In",
                                "type": "uint256",
                                "value": "3,265,019,699,241,864"
                            },
                            {
                                "name": "amount1In",
                                "type": "uint256",
                                "value": "0"
                            },
                            {
                                "name": "amount0Out",
                                "type": "uint256",
                                "value": "0"
                            },
                            {
                                "name": "amount1Out",
                                "type": "uint256",
                                "value": "714,355,924,481"
                            }
                        ],
                        "signature": "Swap(address,uint256,uint256,uint256,uint256,address)"
                    },
                    "id": 25,
                    "logData": "0x000000000000000000000000000000000000000000000000000b9984a35ba38800000000000000000000000000000000000000000000000000000000000000000000000000000000000000000000000000000000000000000000000000000000000000000000000000000000000000000000000000000000000000a652ee5e01",
                    "logDecoded": true,
                    "operation": "EVENT",
                    "revert": false,
                    "status": true,
                    "topics": [
                        "0xd78ad95fa46c994b6551d0da85fc275fe613ce37657fb8d5e3d130840159d822",
                        "0x0000000000000000000000003fc91a3afd70395cd496c647d5a6cc9d4b2b7fad",
                        "0x000000000000000000000000fa95e64f992c6f8f61c7e6faf76da474b5910597"
                    ]
                },
                "nodeType": 1
            },
            "26": {
                "invocation": {
                    "address": "0xe13cf110176e0dd6590536cd391b8a3522475f82",
                    "callData": "0x000000000000000000000000fa95e64f992c6f8f61c7e6faf76da474b5910597",
                    "decodedMethod": {
                        "callParams": [
                            {
                                "name": "account",
                                "type": "address",
                                "value": "0xfa95e64f992c6f8f61c7e6faf76da474b5910597"
                            }
                        ],
                        "constructorArguments": "",
                        "name": "balanceOf",
                        "returnParams": [
                            {
                                "decimalAvailable": true,
                                "name": "",
                                "type": "uint256",
                                "value": "27,701,419,790,093"
                            }
                        ],
                        "signature": "balanceOf(address)"
                    },
                    "errorInfo": "",
                    "fromAddress": "0x3fc91a3afd70395cd496c647d5a6cc9d4b2b7fad",
                    "gasUsed": 2654,
                    "id": 26,
                    "methodDecoded": true,
                    "operation": "STATICCALL",
                    "output": "0x00000000000000000000000000000000000000000000000000001931bd494f0d",
                    "revert": false,
                    "revertMessage": "",
                    "selector": "0x70a08231",
                    "status": true,
                    "value": "0"
                },
                "nodeType": 0
            },
            "3": {
                "event": {
                    "contract": "0x000000000022d473030f116ddee9f6b43ac78ba3",
                    "decodedLog": {
                        "name": "Permit",
                        "params": [
                            {
                                "name": "owner",
                                "type": "address",
                                "value": "0xfa95e64f992c6f8f61c7e6faf76da474b5910597"
                            },
                            {
                                "name": "token",
                                "type": "address",
                                "value": "0x12970e6868f88f6557b76120662c1b3e50a646bf"
                            },
                            {
                                "name": "spender",
                                "type": "address",
                                "value": "0x3fc91a3afd70395cd496c647d5a6cc9d4b2b7fad"
                            },
                            {
                                "name": "amount",
                                "type": "uint160",
                                "value": "1,461,501,637,330,902,918,203,684,832,716,283,019,655,932,542,975"
                            },
                            {
                                "name": "expiration",
                                "type": "uint48",
                                "value": "1,724,802,187"
                            },
                            {
                                "name": "nonce",
                                "type": "uint48",
                                "value": "0"
                            }
                        ],
                        "signature": "Permit(address,address,address,uint160,uint48,uint48)"
                    },
                    "id": 3,
                    "logData": "0x000000000000000000000000ffffffffffffffffffffffffffffffffffffffff0000000000000000000000000000000000000000000000000000000066ce648b0000000000000000000000000000000000000000000000000000000000000000",
                    "logDecoded": true,
                    "operation": "EVENT",
                    "revert": false,
                    "status": true,
                    "topics": [
                        "0xc6a377bfc4eb120024a8ac08eef205be16b817020812c73223e81d1bdb9708ec",
                        "0x000000000000000000000000fa95e64f992c6f8f61c7e6faf76da474b5910597",
                        "0x00000000000000000000000012970e6868f88f6557b76120662c1b3e50a646bf",
                        "0x0000000000000000000000003fc91a3afd70395cd496c647d5a6cc9d4b2b7fad"
                    ]
                },
                "nodeType": 1
            },
            "4": {
                "invocation": {
                    "address": "0x000000000022d473030f116ddee9f6b43ac78ba3",
                    "callData": "0x000000000000000000000000fa95e64f992c6f8f61c7e6faf76da474b5910597000000000000000000000000cbe856765eeec3fdc505ddebf9dc612da995e593000000000000000000000000000000000000000000483a1e2e1863484c9683ea00000000000000000000000012970e6868f88f6557b76120662c1b3e50a646bf",
                    "decodedMethod": {
                        "callParams": [
                            {
                                "name": "from",
                                "type": "address",
                                "value": "0xfa95e64f992c6f8f61c7e6faf76da474b5910597"
                            },
                            {
                                "name": "to",
                                "type": "address",
                                "value": "0xcbe856765eeec3fdc505ddebf9dc612da995e593"
                            },
                            {
                                "name": "amount",
                                "type": "uint160",
                                "value": "87,317,112,992,095,838,647,256,042"
                            },
                            {
                                "name": "token",
                                "type": "address",
                                "value": "0x12970e6868f88f6557b76120662c1b3e50a646bf"
                            }
                        ],
                        "constructorArguments": "",
                        "name": "transferFrom",
                        "returnParams": [],
                        "signature": "transferFrom(address,address,uint160,address)"
                    },
                    "errorInfo": "",
                    "fromAddress": "0x3fc91a3afd70395cd496c647d5a6cc9d4b2b7fad",
                    "gasUsed": 25489,
                    "id": 4,
                    "methodDecoded": true,
                    "operation": "CALL",
                    "output": "",
                    "revert": false,
                    "revertMessage": "",
                    "selector": "0x36c78516",
                    "status": true,
                    "value": "0"
                },
                "nodeType": 0
            },
            "5": {
                "invocation": {
                    "address": "0x12970e6868f88f6557b76120662c1b3e50a646bf",
                    "callData": "0x000000000000000000000000fa95e64f992c6f8f61c7e6faf76da474b5910597000000000000000000000000cbe856765eeec3fdc505ddebf9dc612da995e593000000000000000000000000000000000000000000483a1e2e1863484c9683ea",
                    "decodedMethod": {
                        "callParams": [
                            {
                                "name": "from",
                                "type": "address",
                                "value": "0xfa95e64f992c6f8f61c7e6faf76da474b5910597"
                            },
                            {
                                "name": "to",
                                "type": "address",
                                "value": "0xcbe856765eeec3fdc505ddebf9dc612da995e593"
                            },
                            {
                                "decimalAvailable": true,
                                "name": "amount",
                                "type": "uint256",
                                "value": "87,317,112,992,095,838,647,256,042"
                            }
                        ],
                        "constructorArguments": "",
                        "name": "transferFrom",
                        "returnParams": [
                            {
                                "name": "",
                                "type": "bool",
                                "value": true
                            }
                        ],
                        "signature": "transferFrom(address,address,uint256)"
                    },
                    "errorInfo": "",
                    "fromAddress": "0x000000000022d473030f116ddee9f6b43ac78ba3",
                    "gasUsed": 21782,
                    "id": 5,
                    "methodDecoded": true,
                    "operation": "CALL",
                    "output": "0x0000000000000000000000000000000000000000000000000000000000000001",
                    "revert": false,
                    "revertMessage": "",
                    "selector": "0x23b872dd",
                    "status": true,
                    "value": "0"
                },
                "nodeType": 0
            },
            "6": {
                "event": {
                    "contract": "0x12970e6868f88f6557b76120662c1b3e50a646bf",
                    "decodedLog": {
                        "name": "Transfer",
                        "params": [
                            {
                                "name": "from",
                                "type": "address",
                                "value": "0xfa95e64f992c6f8f61c7e6faf76da474b5910597"
                            },
                            {
                                "name": "to",
                                "type": "address",
                                "value": "0xcbe856765eeec3fdc505ddebf9dc612da995e593"
                            },
                            {
                                "decimalAvailable": true,
                                "name": "value",
                                "type": "uint256",
                                "value": "87,317,112,992,095,838,647,256,042"
                            }
                        ],
                        "signature": "Transfer(address,address,uint256)"
                    },
                    "id": 6,
                    "logData": "0x000000000000000000000000000000000000000000483a1e2e1863484c9683ea",
                    "logDecoded": true,
                    "operation": "EVENT",
                    "revert": false,
                    "status": true,
                    "topics": [
                        "0xddf252ad1be2c89b69c2b068fc378daa952ba7f163c4a11628f55a4df523b3ef",
                        "0x000000000000000000000000fa95e64f992c6f8f61c7e6faf76da474b5910597",
                        "0x000000000000000000000000cbe856765eeec3fdc505ddebf9dc612da995e593"
                    ]
                },
                "nodeType": 1
            },
            "7": {
                "invocation": {
                    "address": "0xe13cf110176e0dd6590536cd391b8a3522475f82",
                    "callData": "0x000000000000000000000000fa95e64f992c6f8f61c7e6faf76da474b5910597",
                    "decodedMethod": {
                        "callParams": [
                            {
                                "name": "account",
                                "type": "address",
                                "value": "0xfa95e64f992c6f8f61c7e6faf76da474b5910597"
                            }
                        ],
                        "constructorArguments": "",
                        "name": "balanceOf",
                        "returnParams": [
                            {
                                "decimalAvailable": true,
                                "name": "",
                                "type": "uint256",
                                "value": "27,022,781,661,836"
                            }
                        ],
                        "signature": "balanceOf(address)"
                    },
                    "errorInfo": "",
                    "fromAddress": "0x3fc91a3afd70395cd496c647d5a6cc9d4b2b7fad",
                    "gasUsed": 6654,
                    "id": 7,
                    "methodDecoded": true,
                    "operation": "STATICCALL",
                    "output": "0x00000000000000000000000000000000000000000000000000001893bb4d428c",
                    "revert": false,
                    "revertMessage": "",
                    "selector": "0x70a08231",
                    "status": true,
                    "value": "0"
                },
                "nodeType": 0
            },
            "8": {
                "invocation": {
                    "address": "0xcbe856765eeec3fdc505ddebf9dc612da995e593",
                    "callData": "0x",
                    "decodedMethod": {
                        "callParams": [],
                        "constructorArguments": "",
                        "name": "getReserves",
                        "returnParams": [
                            {
                                "name": "_reserve0",
                                "type": "uint112",
                                "value": "14,434,254,115,582,579,541,708,354,105,222"
                            },
                            {
                                "name": "_reserve1",
                                "type": "uint112",
                                "value": "541,362,595,544,258,390,468"
                            },
                            {
                                "name": "_blockTimestampLast",
                                "type": "uint32",
                                "value": "1,722,207,095"
                            }
                        ],
                        "signature": "getReserves()"
                    },
                    "errorInfo": "",
                    "fromAddress": "0x3fc91a3afd70395cd496c647d5a6cc9d4b2b7fad",
                    "gasUsed": 2504,
                    "id": 8,
                    "methodDecoded": true,
                    "operation": "STATICCALL",
                    "output": "0x00000000000000000000000000000000000000b62f97293c1f911c4518302f8600000000000000000000000000000000000000000000001d58ea4c62b2fd29c40000000000000000000000000000000000000000000000000000000066a6cb77",
                    "revert": false,
                    "revertMessage": "",
                    "selector": "0x0902f1ac",
                    "status": true,
                    "value": "0"
                },
                "nodeType": 0
            },
            "9": {
                "invocation": {
                    "address": "0x12970e6868f88f6557b76120662c1b3e50a646bf",
                    "callData": "0x000000000000000000000000cbe856765eeec3fdc505ddebf9dc612da995e593",
                    "decodedMethod": {
                        "callParams": [
                            {
                                "name": "account",
                                "type": "address",
                                "value": "0xcbe856765eeec3fdc505ddebf9dc612da995e593"
                            }
                        ],
                        "constructorArguments": "",
                        "name": "balanceOf",
                        "returnParams": [
                            {
                                "decimalAvailable": true,
                                "name": "",
                                "type": "uint256",
                                "value": "14,434,341,432,695,571,637,547,001,361,264"
                            }
                        ],
                        "signature": "balanceOf(address)"
                    },
                    "errorInfo": "",
                    "fromAddress": "0x3fc91a3afd70395cd496c647d5a6cc9d4b2b7fad",
                    "gasUsed": 582,
                    "id": 9,
                    "methodDecoded": true,
                    "operation": "STATICCALL",
                    "output": "0x00000000000000000000000000000000000000b62fdf635a4da97f8d64c6b370",
                    "revert": false,
                    "revertMessage": "",
                    "selector": "0x70a08231",
                    "status": true,
                    "value": "0"
                },
                "nodeType": 0
            }
        },
        "gasFlame": [
            {
                "children": [
                    {
                        "children": [
                            {
                                "children": [],
                                "depth": 0,
                                "name": "Initial Gas",
                                "value": 27676
                            },
                            {
                                "children": [
                                    {
                                        "children": [
                                            {
                                                "children": [],
                                                "depth": 2,
                                                "name": "ecrecover",
                                                "value": 3000
                                            }
                                        ],
                                        "depth": 1,
                                        "name": "permit",
                                        "value": 30786
                                    },
                                    {
                                        "children": [
                                            {
                                                "children": [],
                                                "depth": 2,
                                                "name": "transferFrom",
                                                "value": 21782
                                            }
                                        ],
                                        "depth": 1,
                                        "name": "transferFrom",
                                        "value": 25489
                                    },
                                    {
                                        "children": [],
                                        "depth": 1,
                                        "name": "balanceOf",
                                        "value": 6654
                                    },
                                    {
                                        "children": [],
                                        "depth": 1,
                                        "name": "getReserves",
                                        "value": 2504
                                    },
                                    {
                                        "children": [],
                                        "depth": 1,
                                        "name": "balanceOf",
                                        "value": 582
                                    },
                                    {
                                        "children": [
                                            {
                                                "children": [],
                                                "depth": 2,
                                                "name": "transfer",
                                                "value": 12862
                                            },
                                            {
                                                "children": [],
                                                "depth": 2,
                                                "name": "balanceOf",
                                                "value": 582
                                            },
                                            {
                                                "children": [],
                                                "depth": 2,
                                                "name": "balanceOf",
                                                "value": 534
                                            }
                                        ],
                                        "depth": 1,
                                        "name": "swap",
                                        "value": 47801
                                    },
                                    {
                                        "children": [],
                                        "depth": 1,
                                        "name": "getReserves",
                                        "value": 2504
                                    },
                                    {
                                        "children": [],
                                        "depth": 1,
                                        "name": "balanceOf",
                                        "value": 534
                                    },
                                    {
                                        "children": [
                                            {
                                                "children": [],
                                                "depth": 2,
                                                "name": "transfer",
                                                "value": 65448
                                            },
                                            {
                                                "children": [],
                                                "depth": 2,
                                                "name": "balanceOf",
                                                "value": 534
                                            },
                                            {
                                                "children": [],
                                                "depth": 2,
                                                "name": "balanceOf",
                                                "value": 2654
                                            }
                                        ],
                                        "depth": 1,
                                        "name": "swap",
                                        "value": 99959
                                    },
                                    {
                                        "children": [],
                                        "depth": 1,
                                        "name": "balanceOf",
                                        "value": 2654
                                    }
                                ],
                                "depth": 0,
                                "name": "Executed Gas",
                                "value": 247365
                            }
                        ],
                        "depth": -1,
                        "name": "Actual Gas Used",
                        "value": 261841
                    },
                    {
                        "children": [],
                        "depth": -1,
                        "name": "Refunded Gas",
                        "value": 13200
                    }
                ],
                "depth": -2,
                "name": "Total Gas",
                "value": 275041
            }
        ],
        "isConfirmed": true,
        "mainTrace": [
            {
                "children": [
                    {
                        "children": [
                            {
                                "children": [
                                    {
                                        "children": [],
                                        "depth": 2,
                                        "id": 2,
                                        "order": 2
                                    },
                                    {
                                        "children": [],
                                        "depth": 2,
                                        "id": 3,
                                        "order": 3
                                    }
                                ],
                                "depth": 1,
                                "id": 1,
                                "order": 1
                            },
                            {
                                "children": [
                                    {
                                        "children": [
                                            {
                                                "children": [],
                                                "depth": 3,
                                                "id": 6,
                                                "order": 6
                                            }
                                        ],
                                        "depth": 2,
                                        "id": 5,
                                        "order": 5
                                    }
                                ],
                                "depth": 1,
                                "id": 4,
                                "order": 4
                            },
                            {
                                "children": [],
                                "depth": 1,
                                "id": 7,
                                "order": 7
                            },
                            {
                                "children": [],
                                "depth": 1,
                                "id": 8,
                                "order": 8
                            },
                            {
                                "children": [],
                                "depth": 1,
                                "id": 9,
                                "order": 9
                            },
                            {
                                "children": [
                                    {
                                        "children": [
                                            {
                                                "children": [],
                                                "depth": 3,
                                                "id": 12,
                                                "order": 12
                                            }
                                        ],
                                        "depth": 2,
                                        "id": 11,
                                        "order": 11
                                    },
                                    {
                                        "children": [],
                                        "depth": 2,
                                        "id": 13,
                                        "order": 13
                                    },
                                    {
                                        "children": [],
                                        "depth": 2,
                                        "id": 14,
                                        "order": 14
                                    },
                                    {
                                        "children": [],
                                        "depth": 2,
                                        "id": 15,
                                        "order": 15
                                    },
                                    {
                                        "children": [],
                                        "depth": 2,
                                        "id": 16,
                                        "order": 16
                                    }
                                ],
                                "depth": 1,
                                "id": 10,
                                "order": 10
                            },
                            {
                                "children": [],
                                "depth": 1,
                                "id": 17,
                                "order": 17
                            },
                            {
                                "children": [],
                                "depth": 1,
                                "id": 18,
                                "order": 18
                            },
                            {
                                "children": [
                                    {
                                        "children": [
                                            {
                                                "children": [],
                                                "depth": 3,
                                                "id": 21,
                                                "order": 21
                                            }
                                        ],
                                        "depth": 2,
                                        "id": 20,
                                        "order": 20
                                    },
                                    {
                                        "children": [],
                                        "depth": 2,
                                        "id": 22,
                                        "order": 22
                                    },
                                    {
                                        "children": [],
                                        "depth": 2,
                                        "id": 23,
                                        "order": 23
                                    },
                                    {
                                        "children": [],
                                        "depth": 2,
                                        "id": 24,
                                        "order": 24
                                    },
                                    {
                                        "children": [],
                                        "depth": 2,
                                        "id": 25,
                                        "order": 25
                                    }
                                ],
                                "depth": 1,
                                "id": 19,
                                "order": 19
                            },
                            {
                                "children": [],
                                "depth": 1,
                                "id": 26,
                                "order": 26
                            }
                        ],
                        "depth": 0,
                        "id": 0,
                        "order": 0
                    }
                ],
                "depth": -1,
                "id": -1,
                "order": -1
            }
        ],
        "mainTraceNodeCount": 27,
        "parentIdMap": {
            "0": -1,
            "1": 0,
            "10": 0,
            "11": 10,
            "12": 11,
            "13": 10,
            "14": 10,
            "15": 10,
            "16": 10,
            "17": 0,
            "18": 0,
            "19": 0,
            "2": 1,
            "20": 19,
            "21": 20,
            "22": 19,
            "23": 19,
            "24": 19,
            "25": 19,
            "26": 0,
            "3": 1,
            "4": 0,
            "5": 4,
            "6": 5,
            "7": 0,
            "8": 0,
            "9": 0
        },
        "tidyTrace": [
            {
                "children": [
                    {
                        "children": [
                            {
                                "children": [
                                    {
                                        "children": [],
                                        "depth": 2,
                                        "id": 3,
                                        "order": 3
                                    }
                                ],
                                "depth": 1,
                                "id": 1,
                                "order": 1
                            },
                            {
                                "children": [
                                    {
                                        "children": [
                                            {
                                                "children": [],
                                                "depth": 3,
                                                "id": 6,
                                                "order": 6
                                            }
                                        ],
                                        "depth": 2,
                                        "id": 5,
                                        "order": 5
                                    }
                                ],
                                "depth": 1,
                                "id": 4,
                                "order": 4
                            },
                            {
                                "children": [
                                    {
                                        "children": [
                                            {
                                                "children": [],
                                                "depth": 3,
                                                "id": 12,
                                                "order": 12
                                            }
                                        ],
                                        "depth": 2,
                                        "id": 11,
                                        "order": 11
                                    },
                                    {
                                        "children": [],
                                        "depth": 2,
                                        "id": 15,
                                        "order": 15
                                    },
                                    {
                                        "children": [],
                                        "depth": 2,
                                        "id": 16,
                                        "order": 16
                                    }
                                ],
                                "depth": 1,
                                "id": 10,
                                "order": 10
                            },
                            {
                                "children": [
                                    {
                                        "children": [
                                            {
                                                "children": [],
                                                "depth": 3,
                                                "id": 21,
                                                "order": 21
                                            }
                                        ],
                                        "depth": 2,
                                        "id": 20,
                                        "order": 20
                                    },
                                    {
                                        "children": [],
                                        "depth": 2,
                                        "id": 24,
                                        "order": 24
                                    },
                                    {
                                        "children": [],
                                        "depth": 2,
                                        "id": 25,
                                        "order": 25
                                    }
                                ],
                                "depth": 1,
                                "id": 19,
                                "order": 19
                            }
                        ],
                        "depth": 0,
                        "id": 0,
                        "order": 0
                    }
                ],
                "depth": -1,
                "id": -1,
                "order": -1
            }
        ],
        "tidyTraceNodeCount": 16
    },
    "state_change": {
        "stateChanges": [
            {
                "address": "0x000000000022d473030f116ddee9f6b43ac78ba3",
                "erc": "",
                "slots": [
                    {
                        "current": "0x000000000001000066ce648bffffffffffffffffffffffffffffffffffffffff",
                        "key": "0xca746b027e48d4c250a01834dc37b4d413884a49c05364ff6010f4e8dc620616",
                        "prev": "0x0000000000000000000000000000000000000000000000000000000000000000"
                    }
                ],
                "storageVariables": [
                    {
                        "name": "allowance",
                        "type": "mapping(address => mapping(address => mapping(address => struct IAllowanceTransfer.PackedAllowance)))",
                        "value": {
                            "pairs": [
                                {
                                    "key": "0xfa95e64f992c6f8f61c7e6faf76da474b5910597",
                                    "value": {
                                        "pairs": [
                                            {
                                                "key": "0x12970e6868f88f6557b76120662c1b3e50a646bf",
                                                "value": {
                                                    "pairs": [
                                                        {
                                                            "key": "0x3fc91a3afd70395cd496c647d5a6cc9d4b2b7fad",
                                                            "value": {
                                                                "fields": [
                                                                    {
                                                                        "name": "amount",
                                                                        "type": "uint160",
                                                                        "value": {
                                                                            "current": "1461501637330902918203684832716283019655932542975",
                                                                            "prev": "0",
                                                                            "typeTag": 1
                                                                        }
                                                                    },
                                                                    {
                                                                        "name": "expiration",
                                                                        "type": "uint48",
                                                                        "value": {
                                                                            "current": "1724802187",
                                                                            "prev": "0",
                                                                            "typeTag": 1
                                                                        }
                                                                    },
                                                                    {
                                                                        "name": "nonce",
                                                                        "type": "uint48",
                                                                        "value": {
                                                                            "current": "1",
                                                                            "prev": "0",
                                                                            "typeTag": 1
                                                                        }
                                                                    }
                                                                ],
                                                                "typeTag": 3
                                                            }
                                                        }
                                                    ],
                                                    "typeTag": 4
                                                }
                                            }
                                        ],
                                        "typeTag": 4
                                    }
                                }
                            ],
                            "typeTag": 4
                        }
                    }
                ]
            },
            {
                "address": "0x12970e6868f88f6557b76120662c1b3e50a646bf",
                "erc": "ERC-20",
                "slots": [
                    {
                        "current": "0x0000000000000000000000000000000000000000000000000000000000000000",
                        "key": "0x100ab237dbe2c5b235f27bf540338219edc8d7c809af4667adcc11b766cc8359",
                        "prev": "0x000000000000000000000000000000000000000000483a1e2e1863484c9683ea"
                    },
                    {
                        "current": "0x00000000000000000000000000000000000000b62fdf635a4da97f8d64c6b370",
                        "key": "0xb81d6752d479b317ac20f92d56b514cc5f530241f273109f0dbde81294d89bc2",
                        "prev": "0x00000000000000000000000000000000000000b62f97293c1f911c4518302f86"
                    }
                ],
                "storageVariables": [
                    {
                        "name": "_balances",
                        "type": "mapping(address => uint256)",
                        "value": {
                            "pairs": [
                                {
                                    "key": "0xcbe856765eeec3fdc505ddebf9dc612da995e593",
                                    "value": {
                                        "current": "14434341432695571637547001361264",
                                        "prev": "14434254115582579541708354105222",
                                        "typeTag": 1
                                    }
                                },
                                {
                                    "key": "0xfa95e64f992c6f8f61c7e6faf76da474b5910597",
                                    "value": {
                                        "current": "0",
                                        "prev": "87317112992095838647256042",
                                        "typeTag": 1
                                    }
                                }
                            ],
                            "typeTag": 4
                        }
                    }
                ]
            },
            {
                "address": "0x77fca8cb4d4be5d196e44fc5403d33caee13cf29",
                "erc": "ERC-20",
                "slots": [
                    {
                        "current": "0x000000000000000000000000009a3d8a34b3ab001a68dc182b14dd24bd873d2c",
                        "key": "0x000000000000000000000000000000000000000000000000000000000000000a",
                        "prev": "0x000000000000000000000000009a3d7559ff7b9a13e0d9109f7e03aff4496b0c"
                    },
                    {
                        "current": "0x66a6d7d70000000000000009dc1b4b632e12000000000000af8d5a9ee8ded22b",
                        "key": "0x0000000000000000000000000000000000000000000000000000000000000008",
                        "prev": "0x66a6d6ab0000000000000009dcc19e518c13000000000000af81c11a45832ea3"
                    },
                    {
                        "current": "0x0000000000000000000000000000000003af4534a0f5d957ad74025f545b7428",
                        "key": "0x0000000000000000000000000000000000000000000000000000000000000009",
                        "prev": "0x0000000000000000000000000000000003af3458f9785574a033a0afc67e1308"
                    }
                ],
                "storageVariables": [
                    {
                        "name": "price0CumulativeLast",
                        "type": "uint256",
                        "value": {
                            "current": "4897739593540259928821995006909445160",
                            "prev": "4897397672183275692213792557666013960",
                            "typeTag": 1
                        }
                    },
                    {
                        "name": "price1CumulativeLast",
                        "type": "uint256",
                        "value": {
                            "current": "3439675639034933647058864496748080210825919788",
                            "prev": "3439668542680317356096379602937360014388062988",
                            "typeTag": 1
                        }
                    },
                    {
                        "name": "reserve0",
                        "type": "uint112",
                        "value": {
                            "current": "12649866566911840811",
                            "prev": "12646601547212598947",
                            "typeTag": 1
                        }
                    },
                    {
                        "name": "reserve1",
                        "type": "uint112",
                        "value": {
                            "current": "2775284577414674",
                            "prev": "2775998933339155",
                            "typeTag": 1
                        }
                    },
                    {
                        "name": "blockTimestampLast",
                        "type": "uint32",
                        "value": {
                            "current": "1722210263",
                            "prev": "1722209963",
                            "typeTag": 1
                        }
                    }
                ]
            },
            {
                "address": "0xc02aaa39b223fe8d0a0e5c4f27ead9083c756cc2",
                "erc": "ERC-20",
                "slots": [
                    {
                        "current": "0x00000000000000000000000000000000000000000000001d58deb2de0fa1863c",
                        "key": "0x03c0fc055f505774ade109ad19ed1e40d47fcd9627fce7237f5f79c2a189edce",
                        "prev": "0x00000000000000000000000000000000000000000000001d58ea4c62b2fd29c4"
                    },
                    {
                        "current": "0x000000000000000000000000000000000000000000000000af8d5a9ee8ded22b",
                        "key": "0xf1c54aac99178a5eb54317821da9019d38395c2c8af817b28e638c16d5fc51ef",
                        "prev": "0x000000000000000000000000000000000000000000000000af81c11a45832ea3"
                    }
                ],
                "storageVariables": [
                    {
                        "name": "balanceOf",
                        "type": "mapping(address => uint256)",
                        "value": {
                            "pairs": [
                                {
                                    "key": "0x77fca8cb4d4be5d196e44fc5403d33caee13cf29",
                                    "value": {
                                        "current": "12649866566911840811",
                                        "prev": "12646601547212598947",
                                        "typeTag": 1
                                    }
                                },
                                {
                                    "key": "0xcbe856765eeec3fdc505ddebf9dc612da995e593",
                                    "value": {
                                        "current": "541359330524559148604",
                                        "prev": "541362595544258390468",
                                        "typeTag": 1
                                    }
                                }
                            ],
                            "typeTag": 4
                        }
                    }
                ]
            },
            {
                "address": "0xcbe856765eeec3fdc505ddebf9dc612da995e593",
                "erc": "ERC-20",
                "slots": [
                    {
                        "current": "0x0000000000000000000000000000000000000054d6601421dbd863d9459b1290",
                        "key": "0x0000000000000000000000000000000000000000000000000000000000000009",
                        "prev": "0x0000000000000000000000000000000000000054d461c34fe31628a08427f330"
                    },
                    {
                        "current": "0x000000000000000000001c30060f92ae5a80cc37650558f20cfd0f5e2e8c95f4",
                        "key": "0x000000000000000000000000000000000000000000000000000000000000000a",
                        "prev": "0x000000000000000000001c2fb93ce069452f14462ae492aec7b9119b6cf16f14"
                    },
                    {
                        "current": "0x66a6d7d700000000001d58deb2de0fa1863c00b62fdf635a4da97f8d64c6b370",
                        "key": "0x0000000000000000000000000000000000000000000000000000000000000008",
                        "prev": "0x66a6cb7700000000001d58ea4c62b2fd29c400b62f97293c1f911c4518302f86"
                    }
                ],
                "storageVariables": [
                    {
                        "name": "price0CumulativeLast",
                        "type": "uint256",
                        "value": {
                            "current": "6721511595250568940264988807824",
                            "prev": "6720894661419952383827137524528",
                            "typeTag": 1
                        }
                    },
                    {
                        "name": "price1CumulativeLast",
                        "type": "uint256",
                        "value": {
                            "current": "10546230416213321555911140485249833108505289208665588",
                            "prev": "10545791834228752535410820427795228610348374209687316",
                            "typeTag": 1
                        }
                    },
                    {
                        "name": "reserve0",
                        "type": "uint112",
                        "value": {
                            "current": "14434341432695571637547001361264",
                            "prev": "14434254115582579541708354105222",
                            "typeTag": 1
                        }
                    },
                    {
                        "name": "reserve1",
                        "type": "uint112",
                        "value": {
                            "current": "541359330524559148604",
                            "prev": "541362595544258390468",
                            "typeTag": 1
                        }
                    },
                    {
                        "name": "blockTimestampLast",
                        "type": "uint32",
                        "value": {
                            "current": "1722210263",
                            "prev": "1722207095",
                            "typeTag": 1
                        }
                    }
                ]
            },
            {
                "address": "0xe13cf110176e0dd6590536cd391b8a3522475f82",
                "erc": "ERC-20",
                "slots": [
                    {
                        "current": "0x470c1ae1b57bd074f2fc8cbea45a30b17cbcd844a60eecf95d906c21e748481c",
                        "key": "0xd19232b02ffbb11aaa0473d498296a9345130b920fdaddca7fc0ef0ebfb67bbd",
                        "prev": "0x4710c95f3e0474846ca178e3c9b65ebcde9c4c5346aadc402abef3db83c9753a"
                    },
                    {
                        "current": "0x00b58b453482da6de7961e828bff536c99e3a3c1c5d8cce982f4603ae1f45886",
                        "key": "0x100ab237dbe2c5b235f27bf540338219edc8d7c809af4667adcc11b766cc8359",
                        "prev": "0x00b118b459343e362b645843efc0cff683cffee9a9672e8012a9baf216e63868"
                    },
                    {
                        "current": "0x0033cd073dc3146b3d8e778c7e4f3b1976ab8e148461ca4ef3053d3fe05b91e8",
                        "key": "0xeb19590cfbbee8da391d79152cfd7a3fb1cc638d5fecfb531824926b21c29af8",
                        "prev": "0x0033911a90890c93801b51a5f53190842adfbede0037797196215acf0ee884e8"
                    }
                ],
                "storageVariables": [
                    {
                        "name": "_rOwned",
                        "type": "mapping(address => uint256)",
                        "value": {
                            "pairs": [
                                {
                                    "key": "0x77fca8cb4d4be5d196e44fc5403d33caee13cf29",
                                    "value": {
                                        "current": "32135599944694729884374939298038363630907001696072563682552727647224169252892",
                                        "prev": "32143871621190200830473451169275784535130134538072034918432773747556437554490",
                                        "typeTag": 1
                                    }
                                },
                                {
                                    "key": "0xe13cf110176e0dd6590536cd391b8a3522475f82",
                                    "value": {
                                        "current": "91524253528717287311180183794669158299993434670807747694540583409846817256",
                                        "prev": "91110669703944318966700776813775230943761836010373452250461606596053599464",
                                        "typeTag": 1
                                    }
                                },
                                {
                                    "key": "0xfa95e64f992c6f8f61c7e6faf76da474b5910597",
                                    "value": {
                                        "current": "320760527233480552669308712276385263414607754486012616228329711993317775494",
                                        "prev": "312902434562782574915276248019858286547706511146975675792362588474842691688",
                                        "typeTag": 1
                                    }
                                }
                            ],
                            "typeTag": 4
                        }
                    }
                ]
            }
        ]
    }
}