{
    "balance_change": {
        "balanceChanges": []
    },
    "profile": {
        "basic_info": {
            "baseFee": "2.978279364",
            "blockNumber": 20525715,
            "callData": "0xef16e845000000000000000000000000000000000000000000000000000000000000004000000000000000000000000000000000000000000000000000000000000001e0000000000000000000000000000000000000000000000000000000000000018000000000000000000000000000000000000000000000000000000000000000200000000000000000000000000000000000000000000000000000000000000000000000000000000000000000000000633b68f5d8d3a86593ebb815b4663bcbe0302e31382e302d64657600000000000000000000000000000000000000000000000000000000000000000000000000000000000000000000000000000000000000000000000000000000000000000000000000000000000000000000000000c000000000000000000000000000000000000000000000000000000000000000e000000000000000000000000000000000000000000000000000000000000000000000000000000000000000000000000000000000000000000000000000000041d69125693720b7ca58edc5640a342003a233464ecbb94d6c40ae971f2e8857db2ca07a79e270aa5b2a1f71a01faf2b3d3e9cf00c98fec21ef6cca89770cf42b41b000000000000000000000000000000000000000000000000000000000000000000000000000000000000000000000000000000000000000000000000000000",
            "debugEnable": true,
            "errorInfo": "",
            "eventCount": 3,
            "feeRecipient": "0x95222290dd7278aa3ddd389cc1e1d165cc4bafe5",
            "formatValue": "0",
            "gasLimit": 3000000,
            "gasPrice": "5.978279364",
            "gasUsed": 153881,
            "intTxnCount": 7,
            "internalRevert": false,
            "internalRevertMessage": "",
            "isContractCreation": false,
            "isFlashloan": false,
            "maxFee": "33",
            "nonce": 283386,
            "overwritedBlockNumber": -1,
            "priorityFee": "3",
            "receiver": "0x68d30f47f19c07bccef4ac7fae2dc12fca3e0dc9",
            "revertMessage": "",
            "sender": "0x000000633b68f5d8d3a86593ebb815b4663bcbe0",
            "simulationEnable": true,
            "sourceTxnHash": "0x9726db5d337504887830ced72ffab9c8b9d3bc1fc4250aa3dc6bb11ebe62a188",
            "status": true,
            "timestamp": "2024-08-14T08:36:23Z",
            "transactionFee": "0.000919943606811684",
            "txnHash": "0x9726db5d337504887830ced72ffab9c8b9d3bc1fc4250aa3dc6bb11ebe62a188",
            "txnIndex": 19,
            "type": 3,
            "value": "0"
        },
        "fund_flow": [],
        "token_infos": [
            {
                "address": "0xeeeeeeeeeeeeeeeeeeeeeeeeeeeeeeeeeeeeeeee",
                "decimals": 18
            },
            {
                "address": "0xc02aaa39b223fe8d0a0e5c4f27ead9083c756cc2",
                "decimals": 18
            }
        ]
    },
    "address_label": {
        "labels": [
            {
                "address": "0xeeeeeeeeeeeeeeeeeeeeeeeeeeeeeeeeeeeeeeee",
                "label": "Ether"
            },
            {
                "address": "0x000000633b68f5d8d3a86593ebb815b4663bcbe0",
                "label": "Taikobeat Proposer"
            },
            {
                "address": "0x68d30f47f19c07bccef4ac7fae2dc12fca3e0dc9",
                "label": "Taiko: LabProver"
            },
            {
                "address": "0xba1d90bcfa74163bfe09e8ef609b346507d83231",
                "label": "MainnetTaikoL1"
            },
            {
                "address": "0x6e997f1f22c40ba37f633b08f3b07e10ed43155a",
                "label": "TierRouter"
            },
            {
                "address": "0x0000000000000000000000000000000000000004",
                "label": "Precompiled"
            },
            {
                "address": "0x06a9ab27c7e2255df1815e6cc0168d7755feb19a",
                "label": "Taiko: L1"
            },
            {
                "address": "0x3a1a900680baadb889202faf12915f7e47b71ddd",
                "label": "TierProviderV2"
            },
            {
                "address": "0xce5a119479337a153ca3bd1b2bf9755c78f2b15a",
                "label": "MainnetProverSet"
            },
            {
                "address": "0x0000000000000000000000000000000000000001",
                "label": "Precompiled"
            },
            {
                "address": "0x0000000000000000000000000000000000000002",
                "label": "Precompiled"
            },
            {
                "address": "0x0000000000000000000000000000000000000003",
                "label": "Precompiled"
            }
        ]
    },
    "trace": {
        "accountLabels": null,
        "dataMap": {
            "-1": {
                "invocation": {
                    "address": "0x000000633b68f5d8d3a86593ebb815b4663bcbe0",
                    "callData": "",
                    "decodedMethod": null,
                    "errorInfo": "",
                    "fromAddress": "",
                    "gasUsed": 0,
                    "id": -1,
                    "methodDecoded": false,
                    "operation": "",
                    "output": "",
                    "revert": false,
                    "revertMessage": "",
                    "selector": "",
                    "status": false,
                    "value": ""
                },
                "nodeType": 0
            },
            "0": {
                "invocation": {
                    "address": "0x68d30f47f19c07bccef4ac7fae2dc12fca3e0dc9",
                    "callData": "0x000000000000000000000000000000000000000000000000000000000000004000000000000000000000000000000000000000000000000000000000000001e0000000000000000000000000000000000000000000000000000000000000018000000000000000000000000000000000000000000000000000000000000000200000000000000000000000000000000000000000000000000000000000000000000000000000000000000000000000633b68f5d8d3a86593ebb815b4663bcbe0302e31382e302d64657600000000000000000000000000000000000000000000000000000000000000000000000000000000000000000000000000000000000000000000000000000000000000000000000000000000000000000000000000c000000000000000000000000000000000000000000000000000000000000000e000000000000000000000000000000000000000000000000000000000000000000000000000000000000000000000000000000000000000000000000000000041d69125693720b7ca58edc5640a342003a233464ecbb94d6c40ae971f2e8857db2ca07a79e270aa5b2a1f71a01faf2b3d3e9cf00c98fec21ef6cca89770cf42b41b000000000000000000000000000000000000000000000000000000000000000000000000000000000000000000000000000000000000000000000000000000",
                    "decodedMethod": {
                        "callParams": [
                            {
                                "name": "_params",
                                "type": "bytes",
                                "value": "0x00000000000000000000000000000000000000000000000000000000000000200000000000000000000000000000000000000000000000000000000000000000000000000000000000000000000000633b68f5d8d3a86593ebb815b4663bcbe0302e31382e302d64657600000000000000000000000000000000000000000000000000000000000000000000000000000000000000000000000000000000000000000000000000000000000000000000000000000000000000000000000000c000000000000000000000000000000000000000000000000000000000000000e000000000000000000000000000000000000000000000000000000000000000000000000000000000000000000000000000000000000000000000000000000041d69125693720b7ca58edc5640a342003a233464ecbb94d6c40ae971f2e8857db2ca07a79e270aa5b2a1f71a01faf2b3d3e9cf00c98fec21ef6cca89770cf42b41b00000000000000000000000000000000000000000000000000000000000000"
                            },
                            {
                                "name": "_txList",
                                "type": "bytes",
                                "value": "0x"
                            }
                        ],
                        "constructorArguments": "",
                        "name": "proposeBlock",
                        "returnParams": [],
                        "signature": "proposeBlock(bytes,bytes)"
                    },
                    "errorInfo": "",
                    "fromAddress": "0x000000633b68f5d8d3a86593ebb815b4663bcbe0",
                    "gasUsed": 153881,
                    "id": 0,
                    "methodDecoded": true,
                    "operation": "CALL",
                    "output": "",
                    "revert": false,
                    "revertMessage": "",
                    "selector": "0xef16e845",
                    "status": true,
                    "value": "0"
                },
                "nodeType": 0
            },
            "1": {
                "invocation": {
                    "address": "0xce5a119479337a153ca3bd1b2bf9755c78f2b15a",
                    "callData": "0x000000000000000000000000000000000000000000000000000000000000004000000000000000000000000000000000000000000000000000000000000001e0000000000000000000000000000000000000000000000000000000000000018000000000000000000000000000000000000000000000000000000000000000200000000000000000000000000000000000000000000000000000000000000000000000000000000000000000000000633b68f5d8d3a86593ebb815b4663bcbe0302e31382e302d64657600000000000000000000000000000000000000000000000000000000000000000000000000000000000000000000000000000000000000000000000000000000000000000000000000000000000000000000000000c000000000000000000000000000000000000000000000000000000000000000e000000000000000000000000000000000000000000000000000000000000000000000000000000000000000000000000000000000000000000000000000000041d69125693720b7ca58edc5640a342003a233464ecbb94d6c40ae971f2e8857db2ca07a79e270aa5b2a1f71a01faf2b3d3e9cf00c98fec21ef6cca89770cf42b41b000000000000000000000000000000000000000000000000000000000000000000000000000000000000000000000000000000000000000000000000000000",
                    "decodedMethod": {
                        "callParams": [
                            {
                                "name": "_params",
                                "type": "bytes",
                                "value": "0x00000000000000000000000000000000000000000000000000000000000000200000000000000000000000000000000000000000000000000000000000000000000000000000000000000000000000633b68f5d8d3a86593ebb815b4663bcbe0302e31382e302d64657600000000000000000000000000000000000000000000000000000000000000000000000000000000000000000000000000000000000000000000000000000000000000000000000000000000000000000000000000c000000000000000000000000000000000000000000000000000000000000000e000000000000000000000000000000000000000000000000000000000000000000000000000000000000000000000000000000000000000000000000000000041d69125693720b7ca58edc5640a342003a233464ecbb94d6c40ae971f2e8857db2ca07a79e270aa5b2a1f71a01faf2b3d3e9cf00c98fec21ef6cca89770cf42b41b00000000000000000000000000000000000000000000000000000000000000"
                            },
                            {
                                "name": "_txList",
                                "type": "bytes",
                                "value": "0x"
                            }
                        ],
                        "constructorArguments": "",
                        "name": "proposeBlock",
                        "returnParams": [],
                        "signature": "proposeBlock(bytes,bytes)"
                    },
                    "errorInfo": "",
                    "fromAddress": "0x68d30f47f19c07bccef4ac7fae2dc12fca3e0dc9",
                    "gasUsed": 124581,
                    "id": 1,
                    "methodDecoded": true,
                    "operation": "DELEGATECALL",
                    "output": "",
                    "revert": false,
                    "revertMessage": "",
                    "selector": "0xef16e845",
                    "status": true,
                    "value": "0"
                },
                "nodeType": 0
            },
            "10": {
                "event": {
                    "contract": "0x06a9ab27c7e2255df1815e6cc0168d7755feb19a",
                    "decodedLog": {
                        "name": "StateVariablesUpdated",
                        "params": [
                            {
                                "name": "slotB",
                                "type": "(uint64,uint64,bool,uint8,uint16,uint32,uint64)",
                                "value": [
                                    {
                                        "name": "numBlocks",
                                        "type": "uint64",
                                        "value": "284,906"
                                    },
                                    {
                                        "name": "lastVerifiedBlockId",
                                        "type": "uint64",
                                        "value": "281,164"
                                    },
                                    {
                                        "name": "provingPaused",
                                        "type": "bool",
                                        "value": false
                                    },
                                    {
                                        "name": "__reservedB1",
                                        "type": "uint8",
                                        "value": "0"
                                    },
                                    {
                                        "name": "__reservedB2",
                                        "type": "uint16",
                                        "value": "0"
                                    },
                                    {
                                        "name": "__reservedB3",
                                        "type": "uint32",
                                        "value": "0"
                                    },
                                    {
                                        "name": "lastUnpausedAt",
                                        "type": "uint64",
                                        "value": "1,716,571,955"
                                    }
                                ]
                            }
                        ],
                        "signature": "StateVariablesUpdated((uint64,uint64,bool,uint8,uint16,uint32,uint64))"
                    },
                    "id": 10,
                    "logData": "0x00000000000000000000000000000000000000000000000000000000000458ea0000000000000000000000000000000000000000000000000000000000044a4c0000000000000000000000000000000000000000000000000000000000000000000000000000000000000000000000000000000000000000000000000000000000000000000000000000000000000000000000000000000000000000000000000000000000000000000000000000000000000000000000000000000000000000000000000000000000000000000000000000000000000000000000006650cf33",
                    "logDecoded": true,
                    "operation": "EVENT",
                    "revert": false,
                    "status": true,
                    "topics": [
                        "0xdf66aee38ea9fe523cfd238705d455a354305a646748dbb931898b51cee4727b"
                    ]
                },
                "nodeType": 1
            },
            "2": {
                "invocation": {
                    "address": "0x06a9ab27c7e2255df1815e6cc0168d7755feb19a",
                    "callData": "0x000000000000000000000000000000000000000000000000000000000000004000000000000000000000000000000000000000000000000000000000000001e0000000000000000000000000000000000000000000000000000000000000018000000000000000000000000000000000000000000000000000000000000000200000000000000000000000000000000000000000000000000000000000000000000000000000000000000000000000633b68f5d8d3a86593ebb815b4663bcbe0302e31382e302d64657600000000000000000000000000000000000000000000000000000000000000000000000000000000000000000000000000000000000000000000000000000000000000000000000000000000000000000000000000c000000000000000000000000000000000000000000000000000000000000000e000000000000000000000000000000000000000000000000000000000000000000000000000000000000000000000000000000000000000000000000000000041d69125693720b7ca58edc5640a342003a233464ecbb94d6c40ae971f2e8857db2ca07a79e270aa5b2a1f71a01faf2b3d3e9cf00c98fec21ef6cca89770cf42b41b000000000000000000000000000000000000000000000000000000000000000000000000000000000000000000000000000000000000000000000000000000",
                    "decodedMethod": {
                        "callParams": [
                            {
                                "name": "_params",
                                "type": "bytes",
                                "value": "0x00000000000000000000000000000000000000000000000000000000000000200000000000000000000000000000000000000000000000000000000000000000000000000000000000000000000000633b68f5d8d3a86593ebb815b4663bcbe0302e31382e302d64657600000000000000000000000000000000000000000000000000000000000000000000000000000000000000000000000000000000000000000000000000000000000000000000000000000000000000000000000000c000000000000000000000000000000000000000000000000000000000000000e000000000000000000000000000000000000000000000000000000000000000000000000000000000000000000000000000000000000000000000000000000041d69125693720b7ca58edc5640a342003a233464ecbb94d6c40ae971f2e8857db2ca07a79e270aa5b2a1f71a01faf2b3d3e9cf00c98fec21ef6cca89770cf42b41b00000000000000000000000000000000000000000000000000000000000000"
                            },
                            {
                                "name": "_txList",
                                "type": "bytes",
                                "value": "0x"
                            }
                        ],
                        "constructorArguments": "",
                        "name": "proposeBlock",
                        "returnParams": [],
                        "signature": "proposeBlock(bytes,bytes)"
                    },
                    "errorInfo": "",
                    "fromAddress": "0x68d30f47f19c07bccef4ac7fae2dc12fca3e0dc9",
                    "gasUsed": 115263,
                    "id": 2,
                    "methodDecoded": true,
                    "operation": "CALL",
                    "output": "0xa9bdf1520bc809ab1be30339b7142329d97c73ff770ab742533f6d6068e2e881fd0a75704aebf40d815b387e220f60ccc6a1e31192d27551d8303f9d17b54ea401a5f44ea116f6017167397de4b6bc0bc01536b2de091db23966911ba3c27b38302e31382e302d64657600000000000000000000000000000000000000000000569e75fc77c1a856f6daaf9e69d8a9566ca34aa47f9133711ce065a571af0cfd000000000000000000000000000000633b68f5d8d3a86593ebb815b4663bcbe000000000000000000000000000000000000000000000000000000000000458e9000000000000000000000000000000000000000000000000000000000e4e1c000000000000000000000000000000000000000000000000000000000066bc6c87000000000000000000000000000000000000000000000000000000000139329200000000000000000000000000000000000000000000000000000000000000c800000000000000000000000000000000000000000000000000000000000000012520e95864ad4b1a1ae52315eec8bc517815940ef7be4a0a9c9d6b666a356ed300000000000000000000000068d30f47f19c07bccef4ac7fae2dc12fca3e0dc900000000000000000000000000000000000000000000000000000000000001e00000000000000000000000000000000000000000000000000000000000000000",
                    "revert": false,
                    "revertMessage": "",
                    "selector": "0xef16e845",
                    "status": true,
                    "value": "0"
                },
                "nodeType": 0
            },
            "3": {
                "invocation": {
                    "address": "0xba1d90bcfa74163bfe09e8ef609b346507d83231",
                    "callData": "0x000000000000000000000000000000000000000000000000000000000000004000000000000000000000000000000000000000000000000000000000000001e0000000000000000000000000000000000000000000000000000000000000018000000000000000000000000000000000000000000000000000000000000000200000000000000000000000000000000000000000000000000000000000000000000000000000000000000000000000633b68f5d8d3a86593ebb815b4663bcbe0302e31382e302d64657600000000000000000000000000000000000000000000000000000000000000000000000000000000000000000000000000000000000000000000000000000000000000000000000000000000000000000000000000c000000000000000000000000000000000000000000000000000000000000000e000000000000000000000000000000000000000000000000000000000000000000000000000000000000000000000000000000000000000000000000000000041d69125693720b7ca58edc5640a342003a233464ecbb94d6c40ae971f2e8857db2ca07a79e270aa5b2a1f71a01faf2b3d3e9cf00c98fec21ef6cca89770cf42b41b000000000000000000000000000000000000000000000000000000000000000000000000000000000000000000000000000000000000000000000000000000",
                    "decodedMethod": {
                        "callParams": [
                            {
                                "name": "_params",
                                "type": "bytes",
                                "value": "0x00000000000000000000000000000000000000000000000000000000000000200000000000000000000000000000000000000000000000000000000000000000000000000000000000000000000000633b68f5d8d3a86593ebb815b4663bcbe0302e31382e302d64657600000000000000000000000000000000000000000000000000000000000000000000000000000000000000000000000000000000000000000000000000000000000000000000000000000000000000000000000000c000000000000000000000000000000000000000000000000000000000000000e000000000000000000000000000000000000000000000000000000000000000000000000000000000000000000000000000000000000000000000000000000041d69125693720b7ca58edc5640a342003a233464ecbb94d6c40ae971f2e8857db2ca07a79e270aa5b2a1f71a01faf2b3d3e9cf00c98fec21ef6cca89770cf42b41b00000000000000000000000000000000000000000000000000000000000000"
                            },
                            {
                                "name": "_txList",
                                "type": "bytes",
                                "value": "0x"
                            }
                        ],
                        "constructorArguments": "",
                        "name": "proposeBlock",
                        "returnParams": [
                            {
                                "name": "meta_",
                                "type": "(bytes32,bytes32,bytes32,bytes32,bytes32,address,uint64,uint32,uint64,uint64,uint16,bool,bytes32,address)",
                                "value": [
                                    {
                                        "name": "l1Hash",
                                        "type": "bytes32",
                                        "value": "0xa9bdf1520bc809ab1be30339b7142329d97c73ff770ab742533f6d6068e2e881"
                                    },
                                    {
                                        "name": "difficulty",
                                        "type": "bytes32",
                                        "value": "0xfd0a75704aebf40d815b387e220f60ccc6a1e31192d27551d8303f9d17b54ea4"
                                    },
                                    {
                                        "name": "blobHash",
                                        "type": "bytes32",
                                        "value": "0x01a5f44ea116f6017167397de4b6bc0bc01536b2de091db23966911ba3c27b38"
                                    },
                                    {
                                        "name": "extraData",
                                        "type": "bytes32",
                                        "value": "0x302e31382e302d64657600000000000000000000000000000000000000000000"
                                    },
                                    {
                                        "name": "depositsHash",
                                        "type": "bytes32",
                                        "value": "0x569e75fc77c1a856f6daaf9e69d8a9566ca34aa47f9133711ce065a571af0cfd"
                                    },
                                    {
                                        "name": "coinbase",
                                        "type": "address",
                                        "value": "0x000000633b68f5d8d3a86593ebb815b4663bcbe0"
                                    },
                                    {
                                        "name": "id",
                                        "type": "uint64",
                                        "value": "284,905"
                                    },
                                    {
                                        "name": "gasLimit",
                                        "type": "uint32",
                                        "value": "240,000,000"
                                    },
                                    {
                                        "name": "timestamp",
                                        "type": "uint64",
                                        "value": "1,723,624,583"
                                    },
                                    {
                                        "name": "l1Height",
                                        "type": "uint64",
                                        "value": "20,525,714"
                                    },
                                    {
                                        "name": "minTier",
                                        "type": "uint16",
                                        "value": "200"
                                    },
                                    {
                                        "name": "blobUsed",
                                        "type": "bool",
                                        "value": true
                                    },
                                    {
                                        "name": "parentMetaHash",
                                        "type": "bytes32",
                                        "value": "0x2520e95864ad4b1a1ae52315eec8bc517815940ef7be4a0a9c9d6b666a356ed3"
                                    },
                                    {
                                        "name": "sender",
                                        "type": "address",
                                        "value": "0x68d30f47f19c07bccef4ac7fae2dc12fca3e0dc9"
                                    }
                                ]
                            },
                            {
                                "name": "deposits_",
                                "type": "(address,uint96,uint64)[]",
                                "value": []
                            }
                        ],
                        "signature": "proposeBlock(bytes,bytes)"
                    },
                    "errorInfo": "",
                    "fromAddress": "0x06a9ab27c7e2255df1815e6cc0168d7755feb19a",
                    "gasUsed": 110239,
                    "id": 3,
                    "methodDecoded": true,
                    "operation": "DELEGATECALL",
                    "output": "0xa9bdf1520bc809ab1be30339b7142329d97c73ff770ab742533f6d6068e2e881fd0a75704aebf40d815b387e220f60ccc6a1e31192d27551d8303f9d17b54ea401a5f44ea116f6017167397de4b6bc0bc01536b2de091db23966911ba3c27b38302e31382e302d64657600000000000000000000000000000000000000000000569e75fc77c1a856f6daaf9e69d8a9566ca34aa47f9133711ce065a571af0cfd000000000000000000000000000000633b68f5d8d3a86593ebb815b4663bcbe000000000000000000000000000000000000000000000000000000000000458e9000000000000000000000000000000000000000000000000000000000e4e1c000000000000000000000000000000000000000000000000000000000066bc6c87000000000000000000000000000000000000000000000000000000000139329200000000000000000000000000000000000000000000000000000000000000c800000000000000000000000000000000000000000000000000000000000000012520e95864ad4b1a1ae52315eec8bc517815940ef7be4a0a9c9d6b666a356ed300000000000000000000000068d30f47f19c07bccef4ac7fae2dc12fca3e0dc900000000000000000000000000000000000000000000000000000000000001e00000000000000000000000000000000000000000000000000000000000000000",
                    "revert": false,
                    "revertMessage": "",
                    "selector": "0xef16e845",
                    "status": true,
                    "value": "0"
                },
                "nodeType": 0
            },
            "4": {
                "invocation": {
                    "address": "0x06a9ab27c7e2255df1815e6cc0168d7755feb19a",
                    "callData": "0x746965725f726f757465720000000000000000000000000000000000000000000000000000000000000000000000000000000000000000000000000000000000",
                    "decodedMethod": {
                        "callParams": [
                            {
                                "name": "_name",
                                "type": "bytes32",
                                "value": "0x746965725f726f75746572000000000000000000000000000000000000000000"
                            },
                            {
                                "name": "_allowZeroAddress",
                                "type": "bool",
                                "value": false
                            }
                        ],
                        "constructorArguments": "",
                        "name": "resolve",
                        "returnParams": [
                            {
                                "name": "",
                                "type": "address",
                                "value": "0x6e997f1f22c40ba37f633b08f3b07e10ed43155a"
                            }
                        ],
                        "signature": "resolve(bytes32,bool)"
                    },
                    "errorInfo": "",
                    "fromAddress": "0x06a9ab27c7e2255df1815e6cc0168d7755feb19a",
                    "gasUsed": 1350,
                    "id": 4,
                    "methodDecoded": true,
                    "operation": "STATICCALL",
                    "output": "0x0000000000000000000000006e997f1f22c40ba37f633b08f3b07e10ed43155a",
                    "revert": false,
                    "revertMessage": "",
                    "selector": "0xa86f9d9e",
                    "status": true,
                    "value": "0"
                },
                "nodeType": 0
            },
            "5": {
                "invocation": {
                    "address": "0xba1d90bcfa74163bfe09e8ef609b346507d83231",
                    "callData": "0x746965725f726f757465720000000000000000000000000000000000000000000000000000000000000000000000000000000000000000000000000000000000",
                    "decodedMethod": {
                        "callParams": [
                            {
                                "name": "_name",
                                "type": "bytes32",
                                "value": "0x746965725f726f75746572000000000000000000000000000000000000000000"
                            },
                            {
                                "name": "_allowZeroAddress",
                                "type": "bool",
                                "value": false
                            }
                        ],
                        "constructorArguments": "",
                        "name": "resolve",
                        "returnParams": [
                            {
                                "name": "",
                                "type": "address",
                                "value": "0x6e997f1f22c40ba37f633b08f3b07e10ed43155a"
                            }
                        ],
                        "signature": "resolve(bytes32,bool)"
                    },
                    "errorInfo": "",
                    "fromAddress": "0x06a9ab27c7e2255df1815e6cc0168d7755feb19a",
                    "gasUsed": 955,
                    "id": 5,
                    "methodDecoded": true,
                    "operation": "DELEGATECALL",
                    "output": "0x0000000000000000000000006e997f1f22c40ba37f633b08f3b07e10ed43155a",
                    "revert": false,
                    "revertMessage": "",
                    "selector": "0xa86f9d9e",
                    "status": true,
                    "value": "0"
                },
                "nodeType": 0
            },
            "6": {
                "invocation": {
                    "address": "0x6e997f1f22c40ba37f633b08f3b07e10ed43155a",
                    "callData": "0x00000000000000000000000000000000000000000000000000000000000458e9",
                    "decodedMethod": {
                        "callParams": [
                            {
                                "name": "",
                                "type": "uint256",
                                "value": "284,905"
                            }
                        ],
                        "constructorArguments": "",
                        "name": "getProvider",
                        "returnParams": [
                            {
                                "name": "",
                                "type": "address",
                                "value": "0x3a1a900680baadb889202faf12915f7e47b71ddd"
                            }
                        ],
                        "signature": "getProvider(uint256)"
                    },
                    "errorInfo": "",
                    "fromAddress": "0x06a9ab27c7e2255df1815e6cc0168d7755feb19a",
                    "gasUsed": 259,
                    "id": 6,
                    "methodDecoded": true,
                    "operation": "STATICCALL",
                    "output": "0x0000000000000000000000003a1a900680baadb889202faf12915f7e47b71ddd",
                    "revert": false,
                    "revertMessage": "",
                    "selector": "0x5c42d079",
                    "status": true,
                    "value": "0"
                },
                "nodeType": 0
            },
            "7": {
                "invocation": {
                    "address": "0x3a1a900680baadb889202faf12915f7e47b71ddd",
                    "callData": "0xfd0a75704aebf40d815b387e220f60ccc6a1e31192d27551d8303f9d17b54ea4",
                    "decodedMethod": {
                        "callParams": [
                            {
                                "name": "",
                                "type": "uint256",
                                "value": "114,453,629,693,940,956,472,454,414,797,709,969,489,030,587,114,989,732,060,615,627,271,669,881,851,556"
                            }
                        ],
                        "constructorArguments": "",
                        "name": "getMinTier",
                        "returnParams": [
                            {
                                "name": "",
                                "type": "uint16",
                                "value": "200"
                            }
                        ],
                        "signature": "getMinTier(uint256)"
                    },
                    "errorInfo": "",
                    "fromAddress": "0x06a9ab27c7e2255df1815e6cc0168d7755feb19a",
                    "gasUsed": 281,
                    "id": 7,
                    "methodDecoded": true,
                    "operation": "STATICCALL",
                    "output": "0x00000000000000000000000000000000000000000000000000000000000000c8",
                    "revert": false,
                    "revertMessage": "",
                    "selector": "0x59ab4e23",
                    "status": true,
                    "value": "0"
                },
                "nodeType": 0
            },
            "8": {
                "event": {
                    "contract": "0x06a9ab27c7e2255df1815e6cc0168d7755feb19a",
                    "decodedLog": {
                        "name": "BondDebited",
                        "params": [
                            {
                                "name": "user",
                                "type": "address",
                                "value": "0x68d30f47f19c07bccef4ac7fae2dc12fca3e0dc9"
                            },
                            {
                                "name": "amount",
                                "type": "uint256",
                                "value": "125,000,000,000,000,000,000"
                            }
                        ],
                        "signature": "BondDebited(address,uint256)"
                    },
                    "id": 8,
                    "logData": "0x000000000000000000000000000000000000000000000006c6b935b8bbd40000",
                    "logDecoded": true,
                    "operation": "EVENT",
                    "revert": false,
                    "status": true,
                    "topics": [
                        "0x85f32beeaff2d0019a8d196f06790c9a652191759c46643311344fd38920423c",
                        "0x00000000000000000000000068d30f47f19c07bccef4ac7fae2dc12fca3e0dc9"
                    ]
                },
                "nodeType": 1
            },
            "9": {
                "event": {
                    "contract": "0x06a9ab27c7e2255df1815e6cc0168d7755feb19a",
                    "decodedLog": {
                        "name": "BlockProposed",
                        "params": [
                            {
                                "name": "blockId",
                                "type": "uint256",
                                "value": "284,905"
                            },
                            {
                                "name": "assignedProver",
                                "type": "address",
                                "value": "0x68d30f47f19c07bccef4ac7fae2dc12fca3e0dc9"
                            },
                            {
                                "name": "livenessBond",
                                "type": "uint96",
                                "value": "125,000,000,000,000,000,000"
                            },
                            {
                                "name": "meta",
                                "type": "(bytes32,bytes32,bytes32,bytes32,bytes32,address,uint64,uint32,uint64,uint64,uint16,bool,bytes32,address)",
                                "value": [
                                    {
                                        "name": "l1Hash",
                                        "type": "bytes32",
                                        "value": "0xa9bdf1520bc809ab1be30339b7142329d97c73ff770ab742533f6d6068e2e881"
                                    },
                                    {
                                        "name": "difficulty",
                                        "type": "bytes32",
                                        "value": "0xfd0a75704aebf40d815b387e220f60ccc6a1e31192d27551d8303f9d17b54ea4"
                                    },
                                    {
                                        "name": "blobHash",
                                        "type": "bytes32",
                                        "value": "0x01a5f44ea116f6017167397de4b6bc0bc01536b2de091db23966911ba3c27b38"
                                    },
                                    {
                                        "name": "extraData",
                                        "type": "bytes32",
                                        "value": "0x302e31382e302d64657600000000000000000000000000000000000000000000"
                                    },
                                    {
                                        "name": "depositsHash",
                                        "type": "bytes32",
                                        "value": "0x569e75fc77c1a856f6daaf9e69d8a9566ca34aa47f9133711ce065a571af0cfd"
                                    },
                                    {
                                        "name": "coinbase",
                                        "type": "address",
                                        "value": "0x000000633b68f5d8d3a86593ebb815b4663bcbe0"
                                    },
                                    {
                                        "name": "id",
                                        "type": "uint64",
                                        "value": "284,905"
                                    },
                                    {
                                        "name": "gasLimit",
                                        "type": "uint32",
                                        "value": "240,000,000"
                                    },
                                    {
                                        "name": "timestamp",
                                        "type": "uint64",
                                        "value": "1,723,624,583"
                                    },
                                    {
                                        "name": "l1Height",
                                        "type": "uint64",
                                        "value": "20,525,714"
                                    },
                                    {
                                        "name": "minTier",
                                        "type": "uint16",
                                        "value": "200"
                                    },
                                    {
                                        "name": "blobUsed",
                                        "type": "bool",
                                        "value": true
                                    },
                                    {
                                        "name": "parentMetaHash",
                                        "type": "bytes32",
                                        "value": "0x2520e95864ad4b1a1ae52315eec8bc517815940ef7be4a0a9c9d6b666a356ed3"
                                    },
                                    {
                                        "name": "sender",
                                        "type": "address",
                                        "value": "0x68d30f47f19c07bccef4ac7fae2dc12fca3e0dc9"
                                    }
                                ]
                            },
                            {
                                "name": "depositsProcessed",
                                "type": "(address,uint96,uint64)[]",
                                "value": []
                            }
                        ],
                        "signature": "BlockProposed(uint256,address,uint96,(bytes32,bytes32,bytes32,bytes32,bytes32,address,uint64,uint32,uint64,uint64,uint16,bool,bytes32,address),(address,uint96,uint64)[])"
                    },
                    "id": 9,
                    "logData": "0x000000000000000000000000000000000000000000000006c6b935b8bbd40000a9bdf1520bc809ab1be30339b7142329d97c73ff770ab742533f6d6068e2e881fd0a75704aebf40d815b387e220f60ccc6a1e31192d27551d8303f9d17b54ea401a5f44ea116f6017167397de4b6bc0bc01536b2de091db23966911ba3c27b38302e31382e302d64657600000000000000000000000000000000000000000000569e75fc77c1a856f6daaf9e69d8a9566ca34aa47f9133711ce065a571af0cfd000000000000000000000000000000633b68f5d8d3a86593ebb815b4663bcbe000000000000000000000000000000000000000000000000000000000000458e9000000000000000000000000000000000000000000000000000000000e4e1c000000000000000000000000000000000000000000000000000000000066bc6c87000000000000000000000000000000000000000000000000000000000139329200000000000000000000000000000000000000000000000000000000000000c800000000000000000000000000000000000000000000000000000000000000012520e95864ad4b1a1ae52315eec8bc517815940ef7be4a0a9c9d6b666a356ed300000000000000000000000068d30f47f19c07bccef4ac7fae2dc12fca3e0dc900000000000000000000000000000000000000000000000000000000000002000000000000000000000000000000000000000000000000000000000000000000",
                    "logDecoded": true,
                    "operation": "EVENT",
                    "revert": false,
                    "status": true,
                    "topics": [
                        "0xcda4e564245eb15494bc6da29f6a42e1941cf57f5314bf35bab8a1fca0a9c60a",
                        "0x00000000000000000000000000000000000000000000000000000000000458e9",
                        "0x00000000000000000000000068d30f47f19c07bccef4ac7fae2dc12fca3e0dc9"
                    ]
                },
                "nodeType": 1
            }
        },
        "gasFlame": [
            {
                "children": [
                    {
                        "children": [
                            {
                                "children": [],
                                "depth": 0,
                                "name": "Initial Gas",
                                "value": 24324
                            },
                            {
                                "children": [
                                    {
                                        "children": [
                                            {
                                                "children": [
                                                    {
                                                        "children": [
                                                            {
                                                                "children": [
                                                                    {
                                                                        "children": [],
                                                                        "depth": 5,
                                                                        "name": "resolve",
                                                                        "value": 955
                                                                    }
                                                                ],
                                                                "depth": 4,
                                                                "name": "resolve",
                                                                "value": 1350
                                                            },
                                                            {
                                                                "children": [],
                                                                "depth": 4,
                                                                "name": "getProvider",
                                                                "value": 259
                                                            },
                                                            {
                                                                "children": [],
                                                                "depth": 4,
                                                                "name": "getMinTier",
                                                                "value": 281
                                                            }
                                                        ],
                                                        "depth": 3,
                                                        "name": "proposeBlock",
                                                        "value": 110239
                                                    }
                                                ],
                                                "depth": 2,
                                                "name": "proposeBlock",
                                                "value": 115263
                                            }
                                        ],
                                        "depth": 1,
                                        "name": "proposeBlock",
                                        "value": 124581
                                    }
                                ],
                                "depth": 0,
                                "name": "Executed Gas",
                                "value": 129557
                            }
                        ],
                        "depth": -1,
                        "name": "Actual Gas Used",
                        "value": 153881
                    },
                    {
                        "children": [],
                        "depth": -1,
                        "name": "Refunded Gas",
                        "value": 0
                    }
                ],
                "depth": -2,
                "name": "Total Gas",
                "value": 153881
            }
        ],
        "isConfirmed": true,
        "mainTrace": [
            {
                "children": [
                    {
                        "children": [
                            {
                                "children": [
                                    {
                                        "children": [
                                            {
                                                "children": [
                                                    {
                                                        "children": [
                                                            {
                                                                "children": [],
                                                                "depth": 5,
                                                                "id": 5,
                                                                "order": 5
                                                            }
                                                        ],
                                                        "depth": 4,
                                                        "id": 4,
                                                        "order": 4
                                                    },
                                                    {
                                                        "children": [],
                                                        "depth": 4,
                                                        "id": 6,
                                                        "order": 6
                                                    },
                                                    {
                                                        "children": [],
                                                        "depth": 4,
                                                        "id": 7,
                                                        "order": 7
                                                    },
                                                    {
                                                        "children": [],
                                                        "depth": 4,
                                                        "id": 8,
                                                        "order": 8
                                                    },
                                                    {
                                                        "children": [],
                                                        "depth": 4,
                                                        "id": 9,
                                                        "order": 9
                                                    },
                                                    {
                                                        "children": [],
                                                        "depth": 4,
                                                        "id": 10,
                                                        "order": 10
                                                    }
                                                ],
                                                "depth": 3,
                                                "id": 3,
                                                "order": 3
                                            }
                                        ],
                                        "depth": 2,
                                        "id": 2,
                                        "order": 2
                                    }
                                ],
                                "depth": 1,
                                "id": 1,
                                "order": 1
                            }
                        ],
                        "depth": 0,
                        "id": 0,
                        "order": 0
                    }
                ],
                "depth": -1,
                "id": -1,
                "order": -1
            }
        ],
        "mainTraceNodeCount": 11,
        "parentIdMap": {
            "0": -1,
            "1": 0,
            "10": 3,
            "2": 1,
            "3": 2,
            "4": 3,
            "5": 4,
            "6": 3,
            "7": 3,
            "8": 3,
            "9": 3
        },
        "tidyTrace": [
            {
                "children": [
                    {
                        "children": [
                            {
                                "children": [
                                    {
                                        "children": [
                                            {
                                                "children": [
                                                    {
                                                        "children": [],
                                                        "depth": 4,
                                                        "id": 8,
                                                        "order": 8
                                                    },
                                                    {
                                                        "children": [],
                                                        "depth": 4,
                                                        "id": 9,
                                                        "order": 9
                                                    },
                                                    {
                                                        "children": [],
                                                        "depth": 4,
                                                        "id": 10,
                                                        "order": 10
                                                    }
                                                ],
                                                "depth": 3,
                                                "id": 3,
                                                "order": 3
                                            }
                                        ],
                                        "depth": 2,
                                        "id": 2,
                                        "order": 2
                                    }
                                ],
                                "depth": 1,
                                "id": 1,
                                "order": 1
                            }
                        ],
                        "depth": 0,
                        "id": 0,
                        "order": 0
                    }
                ],
                "depth": -1,
                "id": -1,
                "order": -1
            }
        ],
        "tidyTraceNodeCount": 7
    },
    "state_change": {
        "stateChanges": [
            {
                "address": "0x06a9ab27c7e2255df1815e6cc0168d7755feb19a",
                "erc": "",
                "slots": [
                    {
                        "current": "0x1028c16666b78695f62437ca7067f28edfb72377a5bcdc58265d533411132b6b",
                        "key": "0x0240511b734011eac87e1cbf5750459f5f01137f227ee468e0bd7ab58d16c8b7",
                        "prev": "0x0000000000000000000000000000000000000000000000000000000000000000"
                    },
                    {
                        "current": "0x00000006c6b935b8bbd400000000000000000000000000000000000000000000",
                        "key": "0x0240511b734011eac87e1cbf5750459f5f01137f227ee468e0bd7ab58d16c8b8",
                        "prev": "0x0000000000000000000000000000000000000000000000000000000000000000"
                    },
                    {
                        "current": "0x000000000000000100000000013932930000000066bc6c8700000000000458e9",
                        "key": "0x0240511b734011eac87e1cbf5750459f5f01137f227ee468e0bd7ab58d16c8b9",
                        "prev": "0x0000000000000000000000000000000000000000000000000000000000000000"
                    },
                    {
                        "current": "0x000000006650cf3300000000000000000000000000044a4c00000000000458ea",
                        "key": "0x0000000000000000000000000000000000000000000000000000000000000100",
                        "prev": "0x000000006650cf3300000000000000000000000000044a4c00000000000458e9"
                    },
                    {
                        "current": "0x00000000000000000000000000000000000000000004fbd7e78ac5e483a00000",
                        "key": "0xd3261c54692ebd9a15c613e88b3175f34e3d6dc8a6f220561ca7b4fb97aa8787",
                        "prev": "0x00000000000000000000000000000000000000000004fbdeae43fb9d3f740000"
                    }
                ],
                "storageVariables": [
                    {
                        "name": "state",
                        "type": "struct TaikoData.State",
                        "value": {
                            "fields": [
                                {
                                    "name": "blocks",
                                    "type": "mapping(uint64 => struct TaikoData.Block)",
                                    "value": {
                                        "pairs": [
                                            {
                                                "key": "284905",
                                                "value": {
                                                    "fields": [
                                                        {
                                                            "name": "metaHash",
                                                            "type": "bytes32",
                                                            "value": {
                                                                "current": "0x1028c16666b78695f62437ca7067f28edfb72377a5bcdc58265d533411132b6b",
                                                                "prev": "0x0000000000000000000000000000000000000000000000000000000000000000",
                                                                "typeTag": 1
                                                            }
                                                        },
                                                        {
                                                            "name": "assignedProver",
                                                            "type": "address",
                                                            "value": {
                                                                "current": "0x0000000000000000000000000000000000000000",
                                                                "prev": "0x0000000000000000000000000000000000000000",
                                                                "typeTag": 1
                                                            }
                                                        },
                                                        {
                                                            "name": "livenessBond",
                                                            "type": "uint96",
                                                            "value": {
                                                                "current": "125000000000000000000",
                                                                "prev": "0",
                                                                "typeTag": 1
                                                            }
                                                        },
                                                        {
                                                            "name": "blockId",
                                                            "type": "uint64",
                                                            "value": {
                                                                "current": "284905",
                                                                "prev": "0",
                                                                "typeTag": 1
                                                            }
                                                        },
                                                        {
                                                            "name": "proposedAt",
                                                            "type": "uint64",
                                                            "value": {
                                                                "current": "1723624583",
                                                                "prev": "0",
                                                                "typeTag": 1
                                                            }
                                                        },
                                                        {
                                                            "name": "proposedIn",
                                                            "type": "uint64",
                                                            "value": {
                                                                "current": "20525715",
                                                                "prev": "0",
                                                                "typeTag": 1
                                                            }
                                                        },
                                                        {
                                                            "name": "nextTransitionId",
                                                            "type": "uint32",
                                                            "value": {
                                                                "current": "1",
                                                                "prev": "0",
                                                                "typeTag": 1
                                                            }
                                                        },
                                                        {
                                                            "name": "verifiedTransitionId",
                                                            "type": "uint32",
                                                            "value": {
                                                                "current": "0",
                                                                "prev": "0",
                                                                "typeTag": 1
                                                            }
                                                        }
                                                    ],
                                                    "typeTag": 3
                                                }
                                            }
                                        ],
                                        "typeTag": 4
                                    }
                                },
                                {
                                    "name": "slotB",
                                    "type": "struct TaikoData.SlotB",
                                    "value": {
                                        "fields": [
                                            {
                                                "name": "numBlocks",
                                                "type": "uint64",
                                                "value": {
                                                    "current": "284906",
                                                    "prev": "284905",
                                                    "typeTag": 1
                                                }
                                            },
                                            {
                                                "name": "lastVerifiedBlockId",
                                                "type": "uint64",
                                                "value": {
                                                    "current": "281164",
                                                    "prev": "281164",
                                                    "typeTag": 1
                                                }
                                            },
                                            {
                                                "name": "provingPaused",
                                                "type": "bool",
                                                "value": {
                                                    "current": "false",
                                                    "prev": "false",
                                                    "typeTag": 1
                                                }
                                            },
                                            {
                                                "name": "__reservedB1",
                                                "type": "uint8",
                                                "value": {
                                                    "current": "0",
                                                    "prev": "0",
                                                    "typeTag": 1
                                                }
                                            },
                                            {
                                                "name": "__reservedB2",
                                                "type": "uint16",
                                                "value": {
                                                    "current": "0",
                                                    "prev": "0",
                                                    "typeTag": 1
                                                }
                                            },
                                            {
                                                "name": "__reservedB3",
                                                "type": "uint32",
                                                "value": {
                                                    "current": "0",
                                                    "prev": "0",
                                                    "typeTag": 1
                                                }
                                            },
                                            {
                                                "name": "lastUnpausedAt",
                                                "type": "uint64",
                                                "value": {
                                                    "current": "1716571955",
                                                    "prev": "1716571955",
                                                    "typeTag": 1
                                                }
                                            }
                                        ],
                                        "typeTag": 3
                                    }
                                },
                                {
                                    "name": "bondBalance",
                                    "type": "mapping(address => uint256)",
                                    "value": {
                                        "pairs": [
                                            {
                                                "key": "0x68d30f47f19c07bccef4ac7fae2dc12fca3e0dc9",
                                                "value": {
                                                    "current": "6025000000000000000000000",
                                                    "prev": "6025125000000000000000000",
                                                    "typeTag": 1
                                                }
                                            }
                                        ],
                                        "typeTag": 4
                                    }
                                }
                            ],
                            "typeTag": 3
                        }
                    }
                ]
            }
        ]
    }
}