{
    "balance_change": {
        "balanceChanges": [
            {
                "account": "0xbc30e90dc528ece58c1a51b6fb6d572838416489",
                "assets": [
                    {
                        "address": "0xa7ed29b253d8b4e3109ce07c80fc570f81b63696",
                        "amount": "5.816092603672099006",
                        "iconUrl": "https://assets.blocksec.com/icon/e838ac89f87e35a5c948c29c4256c5927beb7e953e10b77a2a44cbcb8cf89086.png",
                        "isERC1155": false,
                        "isERC721": false,
                        "sign": false,
                        "value": "1621.118871"
                    },
                    {
                        "address": "0x07150e919b4de5fd6a63de1f9384828396f25fdc",
                        "amount": "3,456.435724189",
                        "iconUrl": "",
                        "isERC1155": false,
                        "isERC721": false,
                        "sign": true,
                        "value": "1535.735486"
                    }
                ]
            },
            {
                "account": "0x0379da7a5895d13037b6937b109fa8607a659adf",
                "assets": [
                    {
                        "address": "0xa7ed29b253d8b4e3109ce07c80fc570f81b63696",
                        "amount": "5.816092603672099006",
                        "iconUrl": "https://assets.blocksec.com/icon/e838ac89f87e35a5c948c29c4256c5927beb7e953e10b77a2a44cbcb8cf89086.png",
                        "isERC1155": false,
                        "isERC721": false,
                        "sign": true,
                        "value": "1621.118871"
                    },
                    {
                        "address": "0x6b175474e89094c44da98b954eedeac495271d0f",
                        "amount": "1,612.877502368860015088",
                        "iconUrl": "https://assets.blocksec.com/icon/39aead569b9c011cb6f69734d9abbc9ab6a80049fe93bbd12bb473a3e0e859a3.png",
                        "isERC1155": false,
                        "isERC721": false,
                        "sign": false,
                        "value": "1621.118871"
                    }
                ]
            },
            {
                "account": "0xa478c2975ab1ea89e8196811f51a7b7ade33eb11",
                "assets": [
                    {
                        "address": "0x6b175474e89094c44da98b954eedeac495271d0f",
                        "amount": "1,612.877502368860015088",
                        "iconUrl": "https://assets.blocksec.com/icon/39aead569b9c011cb6f69734d9abbc9ab6a80049fe93bbd12bb473a3e0e859a3.png",
                        "isERC1155": false,
                        "isERC721": false,
                        "sign": true,
                        "value": "1621.118871"
                    },
                    {
                        "address": "0xc02aaa39b223fe8d0a0e5c4f27ead9083c756cc2",
                        "amount": "2.710316256967253053",
                        "iconUrl": "https://assets.blocksec.com/icon/f1cb2d02c471d545bbc7722daf3277fd852d98e63d118771af7047bd8256c516.png",
                        "isERC1155": false,
                        "isERC721": false,
                        "sign": false,
                        "value": "1615.979894"
                    }
                ]
            },
            {
                "account": "0xde5b7ff5b10cc5f8c95a2e2b643e3abf5179c987",
                "assets": [
                    {
                        "address": "0xc02aaa39b223fe8d0a0e5c4f27ead9083c756cc2",
                        "amount": "2.710316256967253053",
                        "iconUrl": "https://assets.blocksec.com/icon/f1cb2d02c471d545bbc7722daf3277fd852d98e63d118771af7047bd8256c516.png",
                        "isERC1155": false,
                        "isERC721": false,
                        "sign": true,
                        "value": "1615.979894"
                    },
                    {
                        "address": "0x07150e919b4de5fd6a63de1f9384828396f25fdc",
                        "amount": "3,456.435724189",
                        "iconUrl": "",
                        "isERC1155": false,
                        "isERC721": false,
                        "sign": false,
                        "value": "1535.735486"
                    }
                ]
            }
        ]
    },
    "profile": {
        "basic_info": {
            "baseFee": "",
            "blockNumber": 11406100,
            "callData": "0x38ed173900000000000000000000000000000000000000000000000050b6e96876a6f8be000000000000000000000000000000000000000000000000000003186b59620d00000000000000000000000000000000000000000000000000000000000000a0000000000000000000000000bc30e90dc528ece58c1a51b6fb6d572838416489000000000000000000000000000000000000000000000000000000005fce3a1d0000000000000000000000000000000000000000000000000000000000000004000000000000000000000000a7ed29b253d8b4e3109ce07c80fc570f81b636960000000000000000000000006b175474e89094c44da98b954eedeac495271d0f000000000000000000000000c02aaa39b223fe8d0a0e5c4f27ead9083c756cc200000000000000000000000007150e919b4de5fd6a63de1f9384828396f25fdc",
            "debugEnable": true,
            "errorInfo": "",
            "eventCount": 11,
            "feeRecipient": "0x5a0b54d5dc17e0aadc383d2db43b0a0d3e029c4c",
            "formatValue": "0",
            "gasLimit": 286284,
            "gasPrice": "45",
            "gasUsed": 230670,
            "intTxnCount": 18,
            "internalRevert": false,
            "internalRevertMessage": "",
            "isContractCreation": false,
            "isFlashloan": false,
            "maxFee": "",
            "nonce": 551,
            "overwritedBlockNumber": -1,
            "priorityFee": "",
            "receiver": "0x7a250d5630b4cf539739df2c5dacb4c659f2488d",
            "revertMessage": "",
            "sender": "0xbc30e90dc528ece58c1a51b6fb6d572838416489",
            "simulationEnable": true,
            "sourceTxnHash": "0x97467e6cbb85be67a30de4a3fae6c47fbf16eacb0dc5c8421ba9aa6fd52fa1ff",
            "status": true,
            "timestamp": "2020-12-07T14:02:28Z",
            "transactionFee": "0.01038015",
            "txnHash": "0x97467e6cbb85be67a30de4a3fae6c47fbf16eacb0dc5c8421ba9aa6fd52fa1ff",
            "txnIndex": 61,
            "type": 0,
            "value": "0"
        },
        "fund_flow": [
            {
                "amount": "5.816092603672099006",
                "from": "0xbc30e90dc528ece58c1a51b6fb6d572838416489",
                "id": 1,
                "isERC1155": false,
                "isERC721": false,
                "isReverted": false,
                "order": 1,
                "to": "0x0379da7a5895d13037b6937b109fa8607a659adf",
                "token": "0xa7ed29b253d8b4e3109ce07c80fc570f81b63696"
            },
            {
                "amount": "1,612.877502368860015088",
                "from": "0x0379da7a5895d13037b6937b109fa8607a659adf",
                "id": 2,
                "isERC1155": false,
                "isERC721": false,
                "isReverted": false,
                "order": 2,
                "to": "0xa478c2975ab1ea89e8196811f51a7b7ade33eb11",
                "token": "0x6b175474e89094c44da98b954eedeac495271d0f"
            },
            {
                "amount": "2.710316256967253053",
                "from": "0xa478c2975ab1ea89e8196811f51a7b7ade33eb11",
                "id": 3,
                "isERC1155": false,
                "isERC721": false,
                "isReverted": false,
                "order": 3,
                "to": "0xde5b7ff5b10cc5f8c95a2e2b643e3abf5179c987",
                "token": "0xc02aaa39b223fe8d0a0e5c4f27ead9083c756cc2"
            },
            {
                "amount": "3,456.435724189",
                "from": "0xde5b7ff5b10cc5f8c95a2e2b643e3abf5179c987",
                "id": 4,
                "isERC1155": false,
                "isERC721": false,
                "isReverted": false,
                "order": 4,
                "to": "0xbc30e90dc528ece58c1a51b6fb6d572838416489",
                "token": "0x07150e919b4de5fd6a63de1f9384828396f25fdc"
            }
        ],
        "token_infos": [
            {
                "address": "0x07150e919b4de5fd6a63de1f9384828396f25fdc",
                "decimals": 9
            },
            {
                "address": "0x6b175474e89094c44da98b954eedeac495271d0f",
                "decimals": 18
            },
            {
                "address": "0xa7ed29b253d8b4e3109ce07c80fc570f81b63696",
                "decimals": 18
            },
            {
                "address": "0xc02aaa39b223fe8d0a0e5c4f27ead9083c756cc2",
                "decimals": 18
            },
            {
                "address": "0xeeeeeeeeeeeeeeeeeeeeeeeeeeeeeeeeeeeeeeee",
                "decimals": 18
            }
        ]
    },
    "address_label": {
        "labels": [
            {
                "address": "0xeeeeeeeeeeeeeeeeeeeeeeeeeeeeeeeeeeeeeeee",
                "label": "Ether"
            },
            {
                "address": "0x0379da7a5895d13037b6937b109fa8607a659adf",
                "label": "Uniswap V2: DAI-BAS"
            },
            {
                "address": "0x0000000000000000000000000000000000000002",
                "label": "Precompiled"
            },
            {
                "address": "0x6b175474e89094c44da98b954eedeac495271d0f",
                "label": "Sky: Dai Stablecoin"
            },
            {
                "address": "0xde5b7ff5b10cc5f8c95a2e2b643e3abf5179c987",
                "label": "Uniswap V2: BASE 9"
            },
            {
                "address": "0xa478c2975ab1ea89e8196811f51a7b7ade33eb11",
                "label": "Uniswap V2: DAI"
            },
            {
                "address": "0xc1a6a5d5e772869c30e96969c01e0a0f0505f08e",
                "label": "BaseToken"
            },
            {
                "address": "0x0000000000000000000000000000000000000001",
                "label": "Precompiled"
            },
            {
                "address": "0x0000000000000000000000000000000000000004",
                "label": "Precompiled"
            },
            {
                "address": "0x07150e919b4de5fd6a63de1f9384828396f25fdc",
                "label": "Base Protocol: BASE Token"
            },
            {
                "address": "0x7a250d5630b4cf539739df2c5dacb4c659f2488d",
                "label": "Uniswap V2: Router 2"
            },
            {
                "address": "0xa7ed29b253d8b4e3109ce07c80fc570f81b63696",
                "label": "Basis Cash: BAS Token"
            },
            {
                "address": "0xc02aaa39b223fe8d0a0e5c4f27ead9083c756cc2",
                "label": "Wrapped Ether (WETH)"
            },
            {
                "address": "0x0000000000000000000000000000000000000003",
                "label": "Precompiled"
            }
        ]
    },
    "trace": {
        "accountLabels": null,
        "dataMap": {
            "-1": {
                "invocation": {
                    "address": "0xbc30e90dc528ece58c1a51b6fb6d572838416489",
                    "callData": "",
                    "decodedMethod": null,
                    "errorInfo": "",
                    "fromAddress": "",
                    "gasUsed": 0,
                    "id": -1,
                    "methodDecoded": false,
                    "operation": "",
                    "output": "",
                    "revert": false,
                    "revertMessage": "",
                    "selector": "",
                    "status": false,
                    "value": ""
                },
                "nodeType": 0
            },
            "0": {
                "invocation": {
                    "address": "0x7a250d5630b4cf539739df2c5dacb4c659f2488d",
                    "callData": "0x00000000000000000000000000000000000000000000000050b6e96876a6f8be000000000000000000000000000000000000000000000000000003186b59620d00000000000000000000000000000000000000000000000000000000000000a0000000000000000000000000bc30e90dc528ece58c1a51b6fb6d572838416489000000000000000000000000000000000000000000000000000000005fce3a1d0000000000000000000000000000000000000000000000000000000000000004000000000000000000000000a7ed29b253d8b4e3109ce07c80fc570f81b636960000000000000000000000006b175474e89094c44da98b954eedeac495271d0f000000000000000000000000c02aaa39b223fe8d0a0e5c4f27ead9083c756cc200000000000000000000000007150e919b4de5fd6a63de1f9384828396f25fdc",
                    "decodedMethod": {
                        "callParams": [
                            {
                                "name": "amountIn",
                                "type": "uint256",
                                "value": "5,816,092,603,672,099,006"
                            },
                            {
                                "name": "amountOutMin",
                                "type": "uint256",
                                "value": "3,403,415,118,349"
                            },
                            {
                                "name": "path",
                                "type": "address[]",
                                "value": [
                                    "0xa7ed29b253d8b4e3109ce07c80fc570f81b63696",
                                    "0x6b175474e89094c44da98b954eedeac495271d0f",
                                    "0xc02aaa39b223fe8d0a0e5c4f27ead9083c756cc2",
                                    "0x07150e919b4de5fd6a63de1f9384828396f25fdc"
                                ]
                            },
                            {
                                "name": "to",
                                "type": "address",
                                "value": "0xbc30e90dc528ece58c1a51b6fb6d572838416489"
                            },
                            {
                                "name": "deadline",
                                "type": "uint256",
                                "value": "1,607,350,813"
                            }
                        ],
                        "constructorArguments": "",
                        "name": "swapExactTokensForTokens",
                        "returnParams": [
                            {
                                "name": "amounts",
                                "type": "uint256[]",
                                "value": [
                                    "5,816,092,603,672,099,006",
                                    "1,612,877,502,368,860,015,088",
                                    "2,710,316,256,967,253,053",
                                    "3,456,435,724,189"
                                ]
                            }
                        ],
                        "signature": "swapExactTokensForTokens(uint256,uint256,address[],address,uint256)"
                    },
                    "errorInfo": "",
                    "fromAddress": "0xbc30e90dc528ece58c1a51b6fb6d572838416489",
                    "gasUsed": 230670,
                    "id": 0,
                    "methodDecoded": true,
                    "operation": "CALL",
                    "output": "0x0000000000000000000000000000000000000000000000000000000000000020000000000000000000000000000000000000000000000000000000000000000400000000000000000000000000000000000000000000000050b6e96876a6f8be0000000000000000000000000000000000000000000000576f2bf703632709f0000000000000000000000000000000000000000000000000259cfa469d7fdc3d00000000000000000000000000000000000000000000000000000324c39f9f9d",
                    "revert": false,
                    "revertMessage": "",
                    "selector": "0x38ed1739",
                    "status": true,
                    "value": "0"
                },
                "nodeType": 0
            },
            "1": {
                "invocation": {
                    "address": "0x0379da7a5895d13037b6937b109fa8607a659adf",
                    "callData": "0x",
                    "decodedMethod": {
                        "callParams": [],
                        "constructorArguments": "",
                        "name": "getReserves",
                        "returnParams": [
                            {
                                "name": "_reserve0",
                                "type": "uint112",
                                "value": "5,382,392,704,993,072,843,466,555"
                            },
                            {
                                "name": "_reserve1",
                                "type": "uint112",
                                "value": "19,345,070,142,996,590,232,901"
                            },
                            {
                                "name": "_blockTimestampLast",
                                "type": "uint32",
                                "value": "1,607,349,574"
                            }
                        ],
                        "signature": "getReserves()"
                    },
                    "errorInfo": "",
                    "fromAddress": "0x7a250d5630b4cf539739df2c5dacb4c659f2488d",
                    "gasUsed": 1204,
                    "id": 1,
                    "methodDecoded": true,
                    "operation": "STATICCALL",
                    "output": "0x0000000000000000000000000000000000000000000473c417dbb47594d2273b000000000000000000000000000000000000000000000418b2c7507b26e20545000000000000000000000000000000000000000000000000000000005fce3546",
                    "revert": false,
                    "revertMessage": "",
                    "selector": "0x0902f1ac",
                    "status": true,
                    "value": "0"
                },
                "nodeType": 0
            },
            "10": {
                "invocation": {
                    "address": "0x6b175474e89094c44da98b954eedeac495271d0f",
                    "callData": "0x0000000000000000000000000379da7a5895d13037b6937b109fa8607a659adf",
                    "decodedMethod": {
                        "callParams": [
                            {
                                "name": "",
                                "type": "address",
                                "value": "0x0379da7a5895d13037b6937b109fa8607a659adf"
                            }
                        ],
                        "constructorArguments": "",
                        "name": "balanceOf",
                        "returnParams": [
                            {
                                "decimalAvailable": true,
                                "name": "",
                                "type": "uint256",
                                "value": "5,380,779,827,490,703,983,451,467"
                            }
                        ],
                        "signature": "balanceOf(address)"
                    },
                    "errorInfo": "",
                    "fromAddress": "0x0379da7a5895d13037b6937b109fa8607a659adf",
                    "gasUsed": 1302,
                    "id": 10,
                    "methodDecoded": true,
                    "operation": "STATICCALL",
                    "output": "0x00000000000000000000000000000000000000000004736ca8afbd7231ab1d4b",
                    "revert": false,
                    "revertMessage": "",
                    "selector": "0x70a08231",
                    "status": true,
                    "value": "0"
                },
                "nodeType": 0
            },
            "11": {
                "invocation": {
                    "address": "0xa7ed29b253d8b4e3109ce07c80fc570f81b63696",
                    "callData": "0x0000000000000000000000000379da7a5895d13037b6937b109fa8607a659adf",
                    "decodedMethod": {
                        "callParams": [
                            {
                                "name": "account",
                                "type": "address",
                                "value": "0x0379da7a5895d13037b6937b109fa8607a659adf"
                            }
                        ],
                        "constructorArguments": "",
                        "name": "balanceOf",
                        "returnParams": [
                            {
                                "decimalAvailable": true,
                                "name": "",
                                "type": "uint256",
                                "value": "19,350,886,235,600,262,331,907"
                            }
                        ],
                        "signature": "balanceOf(address)"
                    },
                    "errorInfo": "",
                    "fromAddress": "0x0379da7a5895d13037b6937b109fa8607a659adf",
                    "gasUsed": 1241,
                    "id": 11,
                    "methodDecoded": true,
                    "operation": "STATICCALL",
                    "output": "0x000000000000000000000000000000000000000000000419037e39e39d88fe03",
                    "revert": false,
                    "revertMessage": "",
                    "selector": "0x70a08231",
                    "status": true,
                    "value": "0"
                },
                "nodeType": 0
            },
            "12": {
                "event": {
                    "contract": "0x0379da7a5895d13037b6937b109fa8607a659adf",
                    "decodedLog": {
                        "name": "Sync",
                        "params": [
                            {
                                "name": "reserve0",
                                "type": "uint112",
                                "value": "5,380,779,827,490,703,983,451,467"
                            },
                            {
                                "name": "reserve1",
                                "type": "uint112",
                                "value": "19,350,886,235,600,262,331,907"
                            }
                        ],
                        "signature": "Sync(uint112,uint112)"
                    },
                    "id": 12,
                    "logData": "0x00000000000000000000000000000000000000000004736ca8afbd7231ab1d4b000000000000000000000000000000000000000000000419037e39e39d88fe03",
                    "logDecoded": true,
                    "operation": "EVENT",
                    "revert": false,
                    "status": true,
                    "topics": [
                        "0x1c411e9a96e071241c2f21f7726b17ae89e3cab4c78be50e062b03a9fffbbad1"
                    ]
                },
                "nodeType": 1
            },
            "13": {
                "event": {
                    "contract": "0x0379da7a5895d13037b6937b109fa8607a659adf",
                    "decodedLog": {
                        "name": "Swap",
                        "params": [
                            {
                                "name": "sender",
                                "type": "address",
                                "value": "0x7a250d5630b4cf539739df2c5dacb4c659f2488d"
                            },
                            {
                                "name": "to",
                                "type": "address",
                                "value": "0xa478c2975ab1ea89e8196811f51a7b7ade33eb11"
                            },
                            {
                                "name": "amount0In",
                                "type": "uint256",
                                "value": "0"
                            },
                            {
                                "name": "amount1In",
                                "type": "uint256",
                                "value": "5,816,092,603,672,099,006"
                            },
                            {
                                "name": "amount0Out",
                                "type": "uint256",
                                "value": "1,612,877,502,368,860,015,088"
                            },
                            {
                                "name": "amount1Out",
                                "type": "uint256",
                                "value": "0"
                            }
                        ],
                        "signature": "Swap(address,uint256,uint256,uint256,uint256,address)"
                    },
                    "id": 13,
                    "logData": "0x000000000000000000000000000000000000000000000000000000000000000000000000000000000000000000000000000000000000000050b6e96876a6f8be0000000000000000000000000000000000000000000000576f2bf703632709f00000000000000000000000000000000000000000000000000000000000000000",
                    "logDecoded": true,
                    "operation": "EVENT",
                    "revert": false,
                    "status": true,
                    "topics": [
                        "0xd78ad95fa46c994b6551d0da85fc275fe613ce37657fb8d5e3d130840159d822",
                        "0x0000000000000000000000007a250d5630b4cf539739df2c5dacb4c659f2488d",
                        "0x000000000000000000000000a478c2975ab1ea89e8196811f51a7b7ade33eb11"
                    ]
                },
                "nodeType": 1
            },
            "14": {
                "invocation": {
                    "address": "0xa478c2975ab1ea89e8196811f51a7b7ade33eb11",
                    "callData": "0x0000000000000000000000000000000000000000000000000000000000000000000000000000000000000000000000000000000000000000259cfa469d7fdc3d000000000000000000000000de5b7ff5b10cc5f8c95a2e2b643e3abf5179c98700000000000000000000000000000000000000000000000000000000000000800000000000000000000000000000000000000000000000000000000000000000",
                    "decodedMethod": {
                        "callParams": [
                            {
                                "name": "amount0Out",
                                "type": "uint256",
                                "value": "0"
                            },
                            {
                                "name": "amount1Out",
                                "type": "uint256",
                                "value": "2,710,316,256,967,253,053"
                            },
                            {
                                "name": "to",
                                "type": "address",
                                "value": "0xde5b7ff5b10cc5f8c95a2e2b643e3abf5179c987"
                            },
                            {
                                "name": "data",
                                "type": "bytes",
                                "value": "0x"
                            }
                        ],
                        "constructorArguments": "",
                        "name": "swap",
                        "returnParams": [],
                        "signature": "swap(uint256,uint256,address,bytes)"
                    },
                    "errorInfo": "",
                    "fromAddress": "0x7a250d5630b4cf539739df2c5dacb4c659f2488d",
                    "gasUsed": 56721,
                    "id": 14,
                    "methodDecoded": true,
                    "operation": "CALL",
                    "output": "",
                    "revert": false,
                    "revertMessage": "",
                    "selector": "0x022c0d9f",
                    "status": true,
                    "value": "0"
                },
                "nodeType": 0
            },
            "15": {
                "invocation": {
                    "address": "0xc02aaa39b223fe8d0a0e5c4f27ead9083c756cc2",
                    "callData": "0x000000000000000000000000de5b7ff5b10cc5f8c95a2e2b643e3abf5179c987000000000000000000000000000000000000000000000000259cfa469d7fdc3d",
                    "decodedMethod": {
                        "callParams": [
                            {
                                "name": "dst",
                                "type": "address",
                                "value": "0xde5b7ff5b10cc5f8c95a2e2b643e3abf5179c987"
                            },
                            {
                                "decimalAvailable": true,
                                "name": "wad",
                                "type": "uint256",
                                "value": "2,710,316,256,967,253,053"
                            }
                        ],
                        "constructorArguments": "",
                        "name": "transfer",
                        "returnParams": [
                            {
                                "name": "",
                                "type": "bool",
                                "value": true
                            }
                        ],
                        "signature": "transfer(address,uint256)"
                    },
                    "errorInfo": "",
                    "fromAddress": "0xa478c2975ab1ea89e8196811f51a7b7ade33eb11",
                    "gasUsed": 15162,
                    "id": 15,
                    "methodDecoded": true,
                    "operation": "CALL",
                    "output": "0x0000000000000000000000000000000000000000000000000000000000000001",
                    "revert": false,
                    "revertMessage": "",
                    "selector": "0xa9059cbb",
                    "status": true,
                    "value": "0"
                },
                "nodeType": 0
            },
            "16": {
                "event": {
                    "contract": "0xc02aaa39b223fe8d0a0e5c4f27ead9083c756cc2",
                    "decodedLog": {
                        "name": "Transfer",
                        "params": [
                            {
                                "name": "src",
                                "type": "address",
                                "value": "0xa478c2975ab1ea89e8196811f51a7b7ade33eb11"
                            },
                            {
                                "name": "dst",
                                "type": "address",
                                "value": "0xde5b7ff5b10cc5f8c95a2e2b643e3abf5179c987"
                            },
                            {
                                "decimalAvailable": true,
                                "name": "wad",
                                "type": "uint256",
                                "value": "2,710,316,256,967,253,053"
                            }
                        ],
                        "signature": "Transfer(address,address,uint256)"
                    },
                    "id": 16,
                    "logData": "0x000000000000000000000000000000000000000000000000259cfa469d7fdc3d",
                    "logDecoded": true,
                    "operation": "EVENT",
                    "revert": false,
                    "status": true,
                    "topics": [
                        "0xddf252ad1be2c89b69c2b068fc378daa952ba7f163c4a11628f55a4df523b3ef",
                        "0x000000000000000000000000a478c2975ab1ea89e8196811f51a7b7ade33eb11",
                        "0x000000000000000000000000de5b7ff5b10cc5f8c95a2e2b643e3abf5179c987"
                    ]
                },
                "nodeType": 1
            },
            "17": {
                "invocation": {
                    "address": "0x6b175474e89094c44da98b954eedeac495271d0f",
                    "callData": "0x000000000000000000000000a478c2975ab1ea89e8196811f51a7b7ade33eb11",
                    "decodedMethod": {
                        "callParams": [
                            {
                                "name": "",
                                "type": "address",
                                "value": "0xa478c2975ab1ea89e8196811f51a7b7ade33eb11"
                            }
                        ],
                        "constructorArguments": "",
                        "name": "balanceOf",
                        "returnParams": [
                            {
                                "decimalAvailable": true,
                                "name": "",
                                "type": "uint256",
                                "value": "61,076,531,510,049,328,183,064,079"
                            }
                        ],
                        "signature": "balanceOf(address)"
                    },
                    "errorInfo": "",
                    "fromAddress": "0xa478c2975ab1ea89e8196811f51a7b7ade33eb11",
                    "gasUsed": 1302,
                    "id": 17,
                    "methodDecoded": true,
                    "operation": "STATICCALL",
                    "output": "0x0000000000000000000000000000000000000000003285756855712b0933360f",
                    "revert": false,
                    "revertMessage": "",
                    "selector": "0x70a08231",
                    "status": true,
                    "value": "0"
                },
                "nodeType": 0
            },
            "18": {
                "invocation": {
                    "address": "0xc02aaa39b223fe8d0a0e5c4f27ead9083c756cc2",
                    "callData": "0x000000000000000000000000a478c2975ab1ea89e8196811f51a7b7ade33eb11",
                    "decodedMethod": {
                        "callParams": [
                            {
                                "name": "",
                                "type": "address",
                                "value": "0xa478c2975ab1ea89e8196811f51a7b7ade33eb11"
                            }
                        ],
                        "constructorArguments": "",
                        "name": "balanceOf",
                        "returnParams": [
                            {
                                "decimalAvailable": true,
                                "name": "",
                                "type": "uint256",
                                "value": "102,940,512,176,161,132,388,501"
                            }
                        ],
                        "signature": "balanceOf(address)"
                    },
                    "errorInfo": "",
                    "fromAddress": "0xa478c2975ab1ea89e8196811f51a7b7ade33eb11",
                    "gasUsed": 1234,
                    "id": 18,
                    "methodDecoded": true,
                    "operation": "STATICCALL",
                    "output": "0x0000000000000000000000000000000000000000000015cc6a95b60299a82095",
                    "revert": false,
                    "revertMessage": "",
                    "selector": "0x70a08231",
                    "status": true,
                    "value": "0"
                },
                "nodeType": 0
            },
            "19": {
                "event": {
                    "contract": "0xa478c2975ab1ea89e8196811f51a7b7ade33eb11",
                    "decodedLog": {
                        "name": "Sync",
                        "params": [
                            {
                                "name": "reserve0",
                                "type": "uint112",
                                "value": "61,076,531,510,049,328,183,064,079"
                            },
                            {
                                "name": "reserve1",
                                "type": "uint112",
                                "value": "102,940,512,176,161,132,388,501"
                            }
                        ],
                        "signature": "Sync(uint112,uint112)"
                    },
                    "id": 19,
                    "logData": "0x0000000000000000000000000000000000000000003285756855712b0933360f0000000000000000000000000000000000000000000015cc6a95b60299a82095",
                    "logDecoded": true,
                    "operation": "EVENT",
                    "revert": false,
                    "status": true,
                    "topics": [
                        "0x1c411e9a96e071241c2f21f7726b17ae89e3cab4c78be50e062b03a9fffbbad1"
                    ]
                },
                "nodeType": 1
            },
            "2": {
                "invocation": {
                    "address": "0xa478c2975ab1ea89e8196811f51a7b7ade33eb11",
                    "callData": "0x",
                    "decodedMethod": {
                        "callParams": [],
                        "constructorArguments": "",
                        "name": "getReserves",
                        "returnParams": [
                            {
                                "name": "_reserve0",
                                "type": "uint112",
                                "value": "61,074,918,632,546,959,323,048,991"
                            },
                            {
                                "name": "_reserve1",
                                "type": "uint112",
                                "value": "102,943,222,492,418,099,641,554"
                            },
                            {
                                "name": "_blockTimestampLast",
                                "type": "uint32",
                                "value": "1,607,349,735"
                            }
                        ],
                        "signature": "getReserves()"
                    },
                    "errorInfo": "",
                    "fromAddress": "0x7a250d5630b4cf539739df2c5dacb4c659f2488d",
                    "gasUsed": 1204,
                    "id": 2,
                    "methodDecoded": true,
                    "operation": "STATICCALL",
                    "output": "0x00000000000000000000000000000000000000000032851df9297a27a60c2c1f0000000000000000000000000000000000000000000015cc9032b0493727fcd2000000000000000000000000000000000000000000000000000000005fce35e7",
                    "revert": false,
                    "revertMessage": "",
                    "selector": "0x0902f1ac",
                    "status": true,
                    "value": "0"
                },
                "nodeType": 0
            },
            "20": {
                "event": {
                    "contract": "0xa478c2975ab1ea89e8196811f51a7b7ade33eb11",
                    "decodedLog": {
                        "name": "Swap",
                        "params": [
                            {
                                "name": "sender",
                                "type": "address",
                                "value": "0x7a250d5630b4cf539739df2c5dacb4c659f2488d"
                            },
                            {
                                "name": "to",
                                "type": "address",
                                "value": "0xde5b7ff5b10cc5f8c95a2e2b643e3abf5179c987"
                            },
                            {
                                "name": "amount0In",
                                "type": "uint256",
                                "value": "1,612,877,502,368,860,015,088"
                            },
                            {
                                "name": "amount1In",
                                "type": "uint256",
                                "value": "0"
                            },
                            {
                                "name": "amount0Out",
                                "type": "uint256",
                                "value": "0"
                            },
                            {
                                "name": "amount1Out",
                                "type": "uint256",
                                "value": "2,710,316,256,967,253,053"
                            }
                        ],
                        "signature": "Swap(address,uint256,uint256,uint256,uint256,address)"
                    },
                    "id": 20,
                    "logData": "0x0000000000000000000000000000000000000000000000576f2bf703632709f000000000000000000000000000000000000000000000000000000000000000000000000000000000000000000000000000000000000000000000000000000000000000000000000000000000000000000000000000000000259cfa469d7fdc3d",
                    "logDecoded": true,
                    "operation": "EVENT",
                    "revert": false,
                    "status": true,
                    "topics": [
                        "0xd78ad95fa46c994b6551d0da85fc275fe613ce37657fb8d5e3d130840159d822",
                        "0x0000000000000000000000007a250d5630b4cf539739df2c5dacb4c659f2488d",
                        "0x000000000000000000000000de5b7ff5b10cc5f8c95a2e2b643e3abf5179c987"
                    ]
                },
                "nodeType": 1
            },
            "21": {
                "invocation": {
                    "address": "0xde5b7ff5b10cc5f8c95a2e2b643e3abf5179c987",
                    "callData": "0x00000000000000000000000000000000000000000000000000000324c39f9f9d0000000000000000000000000000000000000000000000000000000000000000000000000000000000000000bc30e90dc528ece58c1a51b6fb6d57283841648900000000000000000000000000000000000000000000000000000000000000800000000000000000000000000000000000000000000000000000000000000000",
                    "decodedMethod": {
                        "callParams": [
                            {
                                "name": "amount0Out",
                                "type": "uint256",
                                "value": "3,456,435,724,189"
                            },
                            {
                                "name": "amount1Out",
                                "type": "uint256",
                                "value": "0"
                            },
                            {
                                "name": "to",
                                "type": "address",
                                "value": "0xbc30e90dc528ece58c1a51b6fb6d572838416489"
                            },
                            {
                                "name": "data",
                                "type": "bytes",
                                "value": "0x"
                            }
                        ],
                        "constructorArguments": "",
                        "name": "swap",
                        "returnParams": [],
                        "signature": "swap(uint256,uint256,address,bytes)"
                    },
                    "errorInfo": "",
                    "fromAddress": "0x7a250d5630b4cf539739df2c5dacb4c659f2488d",
                    "gasUsed": 68556,
                    "id": 21,
                    "methodDecoded": true,
                    "operation": "CALL",
                    "output": "",
                    "revert": false,
                    "revertMessage": "",
                    "selector": "0x022c0d9f",
                    "status": true,
                    "value": "0"
                },
                "nodeType": 0
            },
            "22": {
                "invocation": {
                    "address": "0x07150e919b4de5fd6a63de1f9384828396f25fdc",
                    "callData": "0x000000000000000000000000bc30e90dc528ece58c1a51b6fb6d57283841648900000000000000000000000000000000000000000000000000000324c39f9f9d",
                    "decodedMethod": {
                        "callParams": [
                            {
                                "name": "to",
                                "type": "address",
                                "value": "0xbc30e90dc528ece58c1a51b6fb6d572838416489"
                            },
                            {
                                "decimalAvailable": true,
                                "name": "value",
                                "type": "uint256",
                                "value": "3,456,435,724,189"
                            }
                        ],
                        "constructorArguments": "",
                        "name": "transfer",
                        "returnParams": [
                            {
                                "name": "",
                                "type": "bool",
                                "value": true
                            }
                        ],
                        "signature": "transfer(address,uint256)"
                    },
                    "errorInfo": "",
                    "fromAddress": "0xde5b7ff5b10cc5f8c95a2e2b643e3abf5179c987",
                    "gasUsed": 35216,
                    "id": 22,
                    "methodDecoded": true,
                    "operation": "CALL",
                    "output": "0x0000000000000000000000000000000000000000000000000000000000000001",
                    "revert": false,
                    "revertMessage": "",
                    "selector": "0xa9059cbb",
                    "status": true,
                    "value": "0"
                },
                "nodeType": 0
            },
            "23": {
                "invocation": {
                    "address": "0xc1a6a5d5e772869c30e96969c01e0a0f0505f08e",
                    "callData": "0x000000000000000000000000bc30e90dc528ece58c1a51b6fb6d57283841648900000000000000000000000000000000000000000000000000000324c39f9f9d",
                    "decodedMethod": {
                        "callParams": [
                            {
                                "name": "to",
                                "type": "address",
                                "value": "0xbc30e90dc528ece58c1a51b6fb6d572838416489"
                            },
                            {
                                "decimalAvailable": true,
                                "name": "value",
                                "type": "uint256",
                                "value": "3,456,435,724,189"
                            }
                        ],
                        "constructorArguments": "",
                        "name": "transfer",
                        "returnParams": [
                            {
                                "name": "",
                                "type": "bool",
                                "value": true
                            }
                        ],
                        "signature": "transfer(address,uint256)"
                    },
                    "errorInfo": "",
                    "fromAddress": "0x07150e919b4de5fd6a63de1f9384828396f25fdc",
                    "gasUsed": 32437,
                    "id": 23,
                    "methodDecoded": true,
                    "operation": "DELEGATECALL",
                    "output": "0x0000000000000000000000000000000000000000000000000000000000000001",
                    "revert": false,
                    "revertMessage": "",
                    "selector": "0xa9059cbb",
                    "status": true,
                    "value": "0"
                },
                "nodeType": 0
            },
            "24": {
                "event": {
                    "contract": "0x07150e919b4de5fd6a63de1f9384828396f25fdc",
                    "decodedLog": {
                        "name": "Transfer",
                        "params": [
                            {
                                "name": "from",
                                "type": "address",
                                "value": "0xde5b7ff5b10cc5f8c95a2e2b643e3abf5179c987"
                            },
                            {
                                "name": "to",
                                "type": "address",
                                "value": "0xbc30e90dc528ece58c1a51b6fb6d572838416489"
                            },
                            {
                                "decimalAvailable": true,
                                "name": "value",
                                "type": "uint256",
                                "value": "3,456,435,724,189"
                            }
                        ],
                        "signature": "Transfer(address,address,uint256)"
                    },
                    "id": 24,
                    "logData": "0x00000000000000000000000000000000000000000000000000000324c39f9f9d",
                    "logDecoded": true,
                    "operation": "EVENT",
                    "revert": false,
                    "status": true,
                    "topics": [
                        "0xddf252ad1be2c89b69c2b068fc378daa952ba7f163c4a11628f55a4df523b3ef",
                        "0x000000000000000000000000de5b7ff5b10cc5f8c95a2e2b643e3abf5179c987",
                        "0x000000000000000000000000bc30e90dc528ece58c1a51b6fb6d572838416489"
                    ]
                },
                "nodeType": 1
            },
            "25": {
                "invocation": {
                    "address": "0x07150e919b4de5fd6a63de1f9384828396f25fdc",
                    "callData": "0x000000000000000000000000de5b7ff5b10cc5f8c95a2e2b643e3abf5179c987",
                    "decodedMethod": {
                        "callParams": [
                            {
                                "name": "who",
                                "type": "address",
                                "value": "0xde5b7ff5b10cc5f8c95a2e2b643e3abf5179c987"
                            }
                        ],
                        "constructorArguments": "",
                        "name": "balanceOf",
                        "returnParams": [
                            {
                                "decimalAvailable": true,
                                "name": "",
                                "type": "uint256",
                                "value": "4,443,097,806,889,273"
                            }
                        ],
                        "signature": "balanceOf(address)"
                    },
                    "errorInfo": "",
                    "fromAddress": "0xde5b7ff5b10cc5f8c95a2e2b643e3abf5179c987",
                    "gasUsed": 5099,
                    "id": 25,
                    "methodDecoded": true,
                    "operation": "STATICCALL",
                    "output": "0x000000000000000000000000000000000000000000000000000fc8f9527b6139",
                    "revert": false,
                    "revertMessage": "",
                    "selector": "0x70a08231",
                    "status": true,
                    "value": "0"
                },
                "nodeType": 0
            },
            "26": {
                "invocation": {
                    "address": "0xc1a6a5d5e772869c30e96969c01e0a0f0505f08e",
                    "callData": "0x000000000000000000000000de5b7ff5b10cc5f8c95a2e2b643e3abf5179c987",
                    "decodedMethod": {
                        "callParams": [
                            {
                                "name": "who",
                                "type": "address",
                                "value": "0xde5b7ff5b10cc5f8c95a2e2b643e3abf5179c987"
                            }
                        ],
                        "constructorArguments": "",
                        "name": "balanceOf",
                        "returnParams": [
                            {
                                "decimalAvailable": true,
                                "name": "",
                                "type": "uint256",
                                "value": "4,443,097,806,889,273"
                            }
                        ],
                        "signature": "balanceOf(address)"
                    },
                    "errorInfo": "",
                    "fromAddress": "0x07150e919b4de5fd6a63de1f9384828396f25fdc",
                    "gasUsed": 2323,
                    "id": 26,
                    "methodDecoded": true,
                    "operation": "DELEGATECALL",
                    "output": "0x000000000000000000000000000000000000000000000000000fc8f9527b6139",
                    "revert": false,
                    "revertMessage": "",
                    "selector": "0x70a08231",
                    "status": true,
                    "value": "0"
                },
                "nodeType": 0
            },
            "27": {
                "invocation": {
                    "address": "0xc02aaa39b223fe8d0a0e5c4f27ead9083c756cc2",
                    "callData": "0x000000000000000000000000de5b7ff5b10cc5f8c95a2e2b643e3abf5179c987",
                    "decodedMethod": {
                        "callParams": [
                            {
                                "name": "",
                                "type": "address",
                                "value": "0xde5b7ff5b10cc5f8c95a2e2b643e3abf5179c987"
                            }
                        ],
                        "constructorArguments": "",
                        "name": "balanceOf",
                        "returnParams": [
                            {
                                "decimalAvailable": true,
                                "name": "",
                                "type": "uint256",
                                "value": "3,476,252,014,901,304,151,449"
                            }
                        ],
                        "signature": "balanceOf(address)"
                    },
                    "errorInfo": "",
                    "fromAddress": "0xde5b7ff5b10cc5f8c95a2e2b643e3abf5179c987",
                    "gasUsed": 1234,
                    "id": 27,
                    "methodDecoded": true,
                    "operation": "STATICCALL",
                    "output": "0x0000000000000000000000000000000000000000000000bc72b015948826cd99",
                    "revert": false,
                    "revertMessage": "",
                    "selector": "0x70a08231",
                    "status": true,
                    "value": "0"
                },
                "nodeType": 0
            },
            "28": {
                "event": {
                    "contract": "0xde5b7ff5b10cc5f8c95a2e2b643e3abf5179c987",
                    "decodedLog": {
                        "name": "Sync",
                        "params": [
                            {
                                "name": "reserve0",
                                "type": "uint112",
                                "value": "4,443,097,806,889,273"
                            },
                            {
                                "name": "reserve1",
                                "type": "uint112",
                                "value": "3,476,252,014,901,304,151,449"
                            }
                        ],
                        "signature": "Sync(uint112,uint112)"
                    },
                    "id": 28,
                    "logData": "0x000000000000000000000000000000000000000000000000000fc8f9527b61390000000000000000000000000000000000000000000000bc72b015948826cd99",
                    "logDecoded": true,
                    "operation": "EVENT",
                    "revert": false,
                    "status": true,
                    "topics": [
                        "0x1c411e9a96e071241c2f21f7726b17ae89e3cab4c78be50e062b03a9fffbbad1"
                    ]
                },
                "nodeType": 1
            },
            "29": {
                "event": {
                    "contract": "0xde5b7ff5b10cc5f8c95a2e2b643e3abf5179c987",
                    "decodedLog": {
                        "name": "Swap",
                        "params": [
                            {
                                "name": "sender",
                                "type": "address",
                                "value": "0x7a250d5630b4cf539739df2c5dacb4c659f2488d"
                            },
                            {
                                "name": "to",
                                "type": "address",
                                "value": "0xbc30e90dc528ece58c1a51b6fb6d572838416489"
                            },
                            {
                                "name": "amount0In",
                                "type": "uint256",
                                "value": "0"
                            },
                            {
                                "name": "amount1In",
                                "type": "uint256",
                                "value": "2,710,316,256,967,253,053"
                            },
                            {
                                "name": "amount0Out",
                                "type": "uint256",
                                "value": "3,456,435,724,189"
                            },
                            {
                                "name": "amount1Out",
                                "type": "uint256",
                                "value": "0"
                            }
                        ],
                        "signature": "Swap(address,uint256,uint256,uint256,uint256,address)"
                    },
                    "id": 29,
                    "logData": "0x0000000000000000000000000000000000000000000000000000000000000000000000000000000000000000000000000000000000000000259cfa469d7fdc3d00000000000000000000000000000000000000000000000000000324c39f9f9d0000000000000000000000000000000000000000000000000000000000000000",
                    "logDecoded": true,
                    "operation": "EVENT",
                    "revert": false,
                    "status": true,
                    "topics": [
                        "0xd78ad95fa46c994b6551d0da85fc275fe613ce37657fb8d5e3d130840159d822",
                        "0x0000000000000000000000007a250d5630b4cf539739df2c5dacb4c659f2488d",
                        "0x000000000000000000000000bc30e90dc528ece58c1a51b6fb6d572838416489"
                    ]
                },
                "nodeType": 1
            },
            "3": {
                "invocation": {
                    "address": "0xde5b7ff5b10cc5f8c95a2e2b643e3abf5179c987",
                    "callData": "0x",
                    "decodedMethod": {
                        "callParams": [],
                        "constructorArguments": "",
                        "name": "getReserves",
                        "returnParams": [
                            {
                                "name": "_reserve0",
                                "type": "uint112",
                                "value": "4,446,554,242,613,462"
                            },
                            {
                                "name": "_reserve1",
                                "type": "uint112",
                                "value": "3,473,541,698,644,336,898,396"
                            },
                            {
                                "name": "_blockTimestampLast",
                                "type": "uint32",
                                "value": "1,607,349,748"
                            }
                        ],
                        "signature": "getReserves()"
                    },
                    "errorInfo": "",
                    "fromAddress": "0x7a250d5630b4cf539739df2c5dacb4c659f2488d",
                    "gasUsed": 1204,
                    "id": 3,
                    "methodDecoded": true,
                    "operation": "STATICCALL",
                    "output": "0x000000000000000000000000000000000000000000000000000fcc1e161b00d60000000000000000000000000000000000000000000000bc4d131b4deaa6f15c000000000000000000000000000000000000000000000000000000005fce35f4",
                    "revert": false,
                    "revertMessage": "",
                    "selector": "0x0902f1ac",
                    "status": true,
                    "value": "0"
                },
                "nodeType": 0
            },
            "4": {
                "invocation": {
                    "address": "0xa7ed29b253d8b4e3109ce07c80fc570f81b63696",
                    "callData": "0x000000000000000000000000bc30e90dc528ece58c1a51b6fb6d5728384164890000000000000000000000000379da7a5895d13037b6937b109fa8607a659adf00000000000000000000000000000000000000000000000050b6e96876a6f8be",
                    "decodedMethod": {
                        "callParams": [
                            {
                                "name": "sender",
                                "type": "address",
                                "value": "0xbc30e90dc528ece58c1a51b6fb6d572838416489"
                            },
                            {
                                "name": "recipient",
                                "type": "address",
                                "value": "0x0379da7a5895d13037b6937b109fa8607a659adf"
                            },
                            {
                                "decimalAvailable": true,
                                "name": "amount",
                                "type": "uint256",
                                "value": "5,816,092,603,672,099,006"
                            }
                        ],
                        "constructorArguments": "",
                        "name": "transferFrom",
                        "returnParams": [
                            {
                                "name": "",
                                "type": "bool",
                                "value": true
                            }
                        ],
                        "signature": "transferFrom(address,address,uint256)"
                    },
                    "errorInfo": "",
                    "fromAddress": "0x7a250d5630b4cf539739df2c5dacb4c659f2488d",
                    "gasUsed": 23105,
                    "id": 4,
                    "methodDecoded": true,
                    "operation": "CALL",
                    "output": "0x0000000000000000000000000000000000000000000000000000000000000001",
                    "revert": false,
                    "revertMessage": "",
                    "selector": "0x23b872dd",
                    "status": true,
                    "value": "0"
                },
                "nodeType": 0
            },
            "5": {
                "event": {
                    "contract": "0xa7ed29b253d8b4e3109ce07c80fc570f81b63696",
                    "decodedLog": {
                        "name": "Transfer",
                        "params": [
                            {
                                "name": "from",
                                "type": "address",
                                "value": "0xbc30e90dc528ece58c1a51b6fb6d572838416489"
                            },
                            {
                                "name": "to",
                                "type": "address",
                                "value": "0x0379da7a5895d13037b6937b109fa8607a659adf"
                            },
                            {
                                "decimalAvailable": true,
                                "name": "value",
                                "type": "uint256",
                                "value": "5,816,092,603,672,099,006"
                            }
                        ],
                        "signature": "Transfer(address,address,uint256)"
                    },
                    "id": 5,
                    "logData": "0x00000000000000000000000000000000000000000000000050b6e96876a6f8be",
                    "logDecoded": true,
                    "operation": "EVENT",
                    "revert": false,
                    "status": true,
                    "topics": [
                        "0xddf252ad1be2c89b69c2b068fc378daa952ba7f163c4a11628f55a4df523b3ef",
                        "0x000000000000000000000000bc30e90dc528ece58c1a51b6fb6d572838416489",
                        "0x0000000000000000000000000379da7a5895d13037b6937b109fa8607a659adf"
                    ]
                },
                "nodeType": 1
            },
            "6": {
                "event": {
                    "contract": "0xa7ed29b253d8b4e3109ce07c80fc570f81b63696",
                    "decodedLog": {
                        "name": "Approval",
                        "params": [
                            {
                                "name": "owner",
                                "type": "address",
                                "value": "0xbc30e90dc528ece58c1a51b6fb6d572838416489"
                            },
                            {
                                "name": "spender",
                                "type": "address",
                                "value": "0x7a250d5630b4cf539739df2c5dacb4c659f2488d"
                            },
                            {
                                "decimalAvailable": true,
                                "name": "value",
                                "type": "uint256",
                                "value": "115,792,089,237,316,195,423,570,985,008,687,907,853,269,984,665,640,564,039,340,010,017,226,599,424,594"
                            }
                        ],
                        "signature": "Approval(address,address,uint256)"
                    },
                    "id": 6,
                    "logData": "0xfffffffffffffffffffffffffffffffffffffffffffffff9a05546678047e252",
                    "logDecoded": true,
                    "operation": "EVENT",
                    "revert": false,
                    "status": true,
                    "topics": [
                        "0x8c5be1e5ebec7d5bd14f71427d1e84f3dd0314c0f7b2291e5b200ac8c7c3b925",
                        "0x000000000000000000000000bc30e90dc528ece58c1a51b6fb6d572838416489",
                        "0x0000000000000000000000007a250d5630b4cf539739df2c5dacb4c659f2488d"
                    ]
                },
                "nodeType": 1
            },
            "7": {
                "invocation": {
                    "address": "0x0379da7a5895d13037b6937b109fa8607a659adf",
                    "callData": "0x0000000000000000000000000000000000000000000000576f2bf703632709f00000000000000000000000000000000000000000000000000000000000000000000000000000000000000000a478c2975ab1ea89e8196811f51a7b7ade33eb1100000000000000000000000000000000000000000000000000000000000000800000000000000000000000000000000000000000000000000000000000000000",
                    "decodedMethod": {
                        "callParams": [
                            {
                                "name": "amount0Out",
                                "type": "uint256",
                                "value": "1,612,877,502,368,860,015,088"
                            },
                            {
                                "name": "amount1Out",
                                "type": "uint256",
                                "value": "0"
                            },
                            {
                                "name": "to",
                                "type": "address",
                                "value": "0xa478c2975ab1ea89e8196811f51a7b7ade33eb11"
                            },
                            {
                                "name": "data",
                                "type": "bytes",
                                "value": "0x"
                            }
                        ],
                        "constructorArguments": "",
                        "name": "swap",
                        "returnParams": [],
                        "signature": "swap(uint256,uint256,address,bytes)"
                    },
                    "errorInfo": "",
                    "fromAddress": "0x7a250d5630b4cf539739df2c5dacb4c659f2488d",
                    "gasUsed": 56940,
                    "id": 7,
                    "methodDecoded": true,
                    "operation": "CALL",
                    "output": "",
                    "revert": false,
                    "revertMessage": "",
                    "selector": "0x022c0d9f",
                    "status": true,
                    "value": "0"
                },
                "nodeType": 0
            },
            "8": {
                "invocation": {
                    "address": "0x6b175474e89094c44da98b954eedeac495271d0f",
                    "callData": "0x000000000000000000000000a478c2975ab1ea89e8196811f51a7b7ade33eb110000000000000000000000000000000000000000000000576f2bf703632709f0",
                    "decodedMethod": {
                        "callParams": [
                            {
                                "name": "dst",
                                "type": "address",
                                "value": "0xa478c2975ab1ea89e8196811f51a7b7ade33eb11"
                            },
                            {
                                "decimalAvailable": true,
                                "name": "wad",
                                "type": "uint256",
                                "value": "1,612,877,502,368,860,015,088"
                            }
                        ],
                        "constructorArguments": "",
                        "name": "transfer",
                        "returnParams": [
                            {
                                "name": "",
                                "type": "bool",
                                "value": true
                            }
                        ],
                        "signature": "transfer(address,uint256)"
                    },
                    "errorInfo": "",
                    "fromAddress": "0x0379da7a5895d13037b6937b109fa8607a659adf",
                    "gasUsed": 15374,
                    "id": 8,
                    "methodDecoded": true,
                    "operation": "CALL",
                    "output": "0x0000000000000000000000000000000000000000000000000000000000000001",
                    "revert": false,
                    "revertMessage": "",
                    "selector": "0xa9059cbb",
                    "status": true,
                    "value": "0"
                },
                "nodeType": 0
            },
            "9": {
                "event": {
                    "contract": "0x6b175474e89094c44da98b954eedeac495271d0f",
                    "decodedLog": {
                        "name": "Transfer",
                        "params": [
                            {
                                "name": "src",
                                "type": "address",
                                "value": "0x0379da7a5895d13037b6937b109fa8607a659adf"
                            },
                            {
                                "name": "dst",
                                "type": "address",
                                "value": "0xa478c2975ab1ea89e8196811f51a7b7ade33eb11"
                            },
                            {
                                "decimalAvailable": true,
                                "name": "wad",
                                "type": "uint256",
                                "value": "1,612,877,502,368,860,015,088"
                            }
                        ],
                        "signature": "Transfer(address,address,uint256)"
                    },
                    "id": 9,
                    "logData": "0x0000000000000000000000000000000000000000000000576f2bf703632709f0",
                    "logDecoded": true,
                    "operation": "EVENT",
                    "revert": false,
                    "status": true,
                    "topics": [
                        "0xddf252ad1be2c89b69c2b068fc378daa952ba7f163c4a11628f55a4df523b3ef",
                        "0x0000000000000000000000000379da7a5895d13037b6937b109fa8607a659adf",
                        "0x000000000000000000000000a478c2975ab1ea89e8196811f51a7b7ade33eb11"
                    ]
                },
                "nodeType": 1
            }
        },
        "gasFlame": [
            {
                "children": [
                    {
                        "children": [
                            {
                                "children": [],
                                "depth": 0,
                                "name": "Initial Gas",
                                "value": 23784
                            },
                            {
                                "children": [
                                    {
                                        "children": [],
                                        "depth": 1,
                                        "name": "getReserves",
                                        "value": 1204
                                    },
                                    {
                                        "children": [],
                                        "depth": 1,
                                        "name": "getReserves",
                                        "value": 1204
                                    },
                                    {
                                        "children": [],
                                        "depth": 1,
                                        "name": "getReserves",
                                        "value": 1204
                                    },
                                    {
                                        "children": [],
                                        "depth": 1,
                                        "name": "transferFrom",
                                        "value": 23105
                                    },
                                    {
                                        "children": [
                                            {
                                                "children": [],
                                                "depth": 2,
                                                "name": "transfer",
                                                "value": 15374
                                            },
                                            {
                                                "children": [],
                                                "depth": 2,
                                                "name": "balanceOf",
                                                "value": 1302
                                            },
                                            {
                                                "children": [],
                                                "depth": 2,
                                                "name": "balanceOf",
                                                "value": 1241
                                            }
                                        ],
                                        "depth": 1,
                                        "name": "swap",
                                        "value": 56940
                                    },
                                    {
                                        "children": [
                                            {
                                                "children": [],
                                                "depth": 2,
                                                "name": "transfer",
                                                "value": 15162
                                            },
                                            {
                                                "children": [],
                                                "depth": 2,
                                                "name": "balanceOf",
                                                "value": 1302
                                            },
                                            {
                                                "children": [],
                                                "depth": 2,
                                                "name": "balanceOf",
                                                "value": 1234
                                            }
                                        ],
                                        "depth": 1,
                                        "name": "swap",
                                        "value": 56721
                                    },
                                    {
                                        "children": [
                                            {
                                                "children": [
                                                    {
                                                        "children": [],
                                                        "depth": 3,
                                                        "name": "transfer",
                                                        "value": 32437
                                                    }
                                                ],
                                                "depth": 2,
                                                "name": "transfer",
                                                "value": 35216
                                            },
                                            {
                                                "children": [
                                                    {
                                                        "children": [],
                                                        "depth": 3,
                                                        "name": "balanceOf",
                                                        "value": 2323
                                                    }
                                                ],
                                                "depth": 2,
                                                "name": "balanceOf",
                                                "value": 5099
                                            },
                                            {
                                                "children": [],
                                                "depth": 2,
                                                "name": "balanceOf",
                                                "value": 1234
                                            }
                                        ],
                                        "depth": 1,
                                        "name": "swap",
                                        "value": 68556
                                    }
                                ],
                                "depth": 0,
                                "name": "Executed Gas",
                                "value": 234486
                            }
                        ],
                        "depth": -1,
                        "name": "Actual Gas Used",
                        "value": 230670
                    },
                    {
                        "children": [],
                        "depth": -1,
                        "name": "Refunded Gas",
                        "value": 27600
                    }
                ],
                "depth": -2,
                "name": "Total Gas",
                "value": 258270
            }
        ],
        "isConfirmed": true,
        "mainTrace": [
            {
                "children": [
                    {
                        "children": [
                            {
                                "children": [],
                                "depth": 1,
                                "id": 1,
                                "order": 1
                            },
                            {
                                "children": [],
                                "depth": 1,
                                "id": 2,
                                "order": 2
                            },
                            {
                                "children": [],
                                "depth": 1,
                                "id": 3,
                                "order": 3
                            },
                            {
                                "children": [
                                    {
                                        "children": [],
                                        "depth": 2,
                                        "id": 5,
                                        "order": 5
                                    },
                                    {
                                        "children": [],
                                        "depth": 2,
                                        "id": 6,
                                        "order": 6
                                    }
                                ],
                                "depth": 1,
                                "id": 4,
                                "order": 4
                            },
                            {
                                "children": [
                                    {
                                        "children": [
                                            {
                                                "children": [],
                                                "depth": 3,
                                                "id": 9,
                                                "order": 9
                                            }
                                        ],
                                        "depth": 2,
                                        "id": 8,
                                        "order": 8
                                    },
                                    {
                                        "children": [],
                                        "depth": 2,
                                        "id": 10,
                                        "order": 10
                                    },
                                    {
                                        "children": [],
                                        "depth": 2,
                                        "id": 11,
                                        "order": 11
                                    },
                                    {
                                        "children": [],
                                        "depth": 2,
                                        "id": 12,
                                        "order": 12
                                    },
                                    {
                                        "children": [],
                                        "depth": 2,
                                        "id": 13,
                                        "order": 13
                                    }
                                ],
                                "depth": 1,
                                "id": 7,
                                "order": 7
                            },
                            {
                                "children": [
                                    {
                                        "children": [
                                            {
                                                "children": [],
                                                "depth": 3,
                                                "id": 16,
                                                "order": 16
                                            }
                                        ],
                                        "depth": 2,
                                        "id": 15,
                                        "order": 15
                                    },
                                    {
                                        "children": [],
                                        "depth": 2,
                                        "id": 17,
                                        "order": 17
                                    },
                                    {
                                        "children": [],
                                        "depth": 2,
                                        "id": 18,
                                        "order": 18
                                    },
                                    {
                                        "children": [],
                                        "depth": 2,
                                        "id": 19,
                                        "order": 19
                                    },
                                    {
                                        "children": [],
                                        "depth": 2,
                                        "id": 20,
                                        "order": 20
                                    }
                                ],
                                "depth": 1,
                                "id": 14,
                                "order": 14
                            },
                            {
                                "children": [
                                    {
                                        "children": [
                                            {
                                                "children": [
                                                    {
                                                        "children": [],
                                                        "depth": 4,
                                                        "id": 24,
                                                        "order": 24
                                                    }
                                                ],
                                                "depth": 3,
                                                "id": 23,
                                                "order": 23
                                            }
                                        ],
                                        "depth": 2,
                                        "id": 22,
                                        "order": 22
                                    },
                                    {
                                        "children": [
                                            {
                                                "children": [],
                                                "depth": 3,
                                                "id": 26,
                                                "order": 26
                                            }
                                        ],
                                        "depth": 2,
                                        "id": 25,
                                        "order": 25
                                    },
                                    {
                                        "children": [],
                                        "depth": 2,
                                        "id": 27,
                                        "order": 27
                                    },
                                    {
                                        "children": [],
                                        "depth": 2,
                                        "id": 28,
                                        "order": 28
                                    },
                                    {
                                        "children": [],
                                        "depth": 2,
                                        "id": 29,
                                        "order": 29
                                    }
                                ],
                                "depth": 1,
                                "id": 21,
                                "order": 21
                            }
                        ],
                        "depth": 0,
                        "id": 0,
                        "order": 0
                    }
                ],
                "depth": -1,
                "id": -1,
                "order": -1
            }
        ],
        "mainTraceNodeCount": 30,
        "parentIdMap": {
            "0": -1,
            "1": 0,
            "10": 7,
            "11": 7,
            "12": 7,
            "13": 7,
            "14": 0,
            "15": 14,
            "16": 15,
            "17": 14,
            "18": 14,
            "19": 14,
            "2": 0,
            "20": 14,
            "21": 0,
            "22": 21,
            "23": 22,
            "24": 23,
            "25": 21,
            "26": 25,
            "27": 21,
            "28": 21,
            "29": 21,
            "3": 0,
            "4": 0,
            "5": 4,
            "6": 4,
            "7": 0,
            "8": 7,
            "9": 8
        },
        "tidyTrace": [
            {
                "children": [
                    {
                        "children": [
                            {
                                "children": [
                                    {
                                        "children": [],
                                        "depth": 2,
                                        "id": 5,
                                        "order": 5
                                    },
                                    {
                                        "children": [],
                                        "depth": 2,
                                        "id": 6,
                                        "order": 6
                                    }
                                ],
                                "depth": 1,
                                "id": 4,
                                "order": 4
                            },
                            {
                                "children": [
                                    {
                                        "children": [
                                            {
                                                "children": [],
                                                "depth": 3,
                                                "id": 9,
                                                "order": 9
                                            }
                                        ],
                                        "depth": 2,
                                        "id": 8,
                                        "order": 8
                                    },
                                    {
                                        "children": [],
                                        "depth": 2,
                                        "id": 12,
                                        "order": 12
                                    },
                                    {
                                        "children": [],
                                        "depth": 2,
                                        "id": 13,
                                        "order": 13
                                    }
                                ],
                                "depth": 1,
                                "id": 7,
                                "order": 7
                            },
                            {
                                "children": [
                                    {
                                        "children": [
                                            {
                                                "children": [],
                                                "depth": 3,
                                                "id": 16,
                                                "order": 16
                                            }
                                        ],
                                        "depth": 2,
                                        "id": 15,
                                        "order": 15
                                    },
                                    {
                                        "children": [],
                                        "depth": 2,
                                        "id": 19,
                                        "order": 19
                                    },
                                    {
                                        "children": [],
                                        "depth": 2,
                                        "id": 20,
                                        "order": 20
                                    }
                                ],
                                "depth": 1,
                                "id": 14,
                                "order": 14
                            },
                            {
                                "children": [
                                    {
                                        "children": [
                                            {
                                                "children": [
                                                    {
                                                        "children": [],
                                                        "depth": 4,
                                                        "id": 24,
                                                        "order": 24
                                                    }
                                                ],
                                                "depth": 3,
                                                "id": 23,
                                                "order": 23
                                            }
                                        ],
                                        "depth": 2,
                                        "id": 22,
                                        "order": 22
                                    },
                                    {
                                        "children": [],
                                        "depth": 2,
                                        "id": 28,
                                        "order": 28
                                    },
                                    {
                                        "children": [],
                                        "depth": 2,
                                        "id": 29,
                                        "order": 29
                                    }
                                ],
                                "depth": 1,
                                "id": 21,
                                "order": 21
                            }
                        ],
                        "depth": 0,
                        "id": 0,
                        "order": 0
                    }
                ],
                "depth": -1,
                "id": -1,
                "order": -1
            }
        ],
        "tidyTraceNodeCount": 20
    },
    "state_change": {
        "stateChanges": [
            {
                "address": "0x0379da7a5895d13037b6937b109fa8607a659adf",
                "erc": "ERC-20",
                "slots": [
                    {
                        "current": "0x5fce35f4000000000419037e39e39d88fe0300000004736ca8afbd7231ab1d4b",
                        "key": "0x0000000000000000000000000000000000000000000000000000000000000008",
                        "prev": "0x5fce3546000000000418b2c7507b26e205450000000473c417dbb47594d2273b"
                    },
                    {
                        "current": "0x000000000000000000000000000000003e73317b777d9b830d2d7afac8040b04",
                        "key": "0x0000000000000000000000000000000000000000000000000000000000000009",
                        "prev": "0x000000000000000000000000000000003e7291628b9cf7cf3aa2385ba3c795ca"
                    },
                    {
                        "current": "0x00000000000000000000000000000be587a0150644d0dd645b06c322aa5be1c0",
                        "key": "0x000000000000000000000000000000000000000000000000000000000000000a",
                        "prev": "0x00000000000000000000000000000be4ca83f009dd168913254c5455ec78ef18"
                    }
                ],
                "storageVariables": [
                    {
                        "name": "reserve0",
                        "type": "uint112",
                        "value": {
                            "current": "5380779827490703983451467",
                            "prev": "5382392704993072843466555",
                            "typeTag": 1
                        }
                    },
                    {
                        "name": "reserve1",
                        "type": "uint112",
                        "value": {
                            "current": "19350886235600262331907",
                            "prev": "19345070142996590232901",
                            "typeTag": 1
                        }
                    },
                    {
                        "name": "blockTimestampLast",
                        "type": "uint32",
                        "value": {
                            "current": "1607349748",
                            "prev": "1607349574",
                            "typeTag": 1
                        }
                    },
                    {
                        "name": "price0CumulativeLast",
                        "type": "uint256",
                        "value": {
                            "current": "83010253497511423764151102826468346628",
                            "prev": "83007006337498389400054210968567649738",
                            "typeTag": 1
                        }
                    },
                    {
                        "name": "price1CumulativeLast",
                        "type": "uint256",
                        "value": {
                            "current": "1036340084247613218595741480964303403868608",
                            "prev": "1036088714021933485621143425017557942857496",
                            "typeTag": 1
                        }
                    }
                ]
            },
            {
                "address": "0x07150e919b4de5fd6a63de1f9384828396f25fdc",
                "erc": "ERC-20",
                "slots": [
                    {
                        "current": "0x000000000000000000000000000000076f1b0ecd69c544e40f959ba197a34ddd",
                        "key": "0xa51a86ae130108db154f96d6e54b8e375589b3ef6df741340614d8ae0e326b32",
                        "prev": "0x00000000000000000000000000000007709610345639afdd5ed33dc99321070d"
                    },
                    {
                        "current": "0x00000000000000000000000000000000017b0166ec746af94f3da227fb7db930",
                        "key": "0x7ff2f544a5c09e3e52a435a552b5fbd2601ad0028728084f04041a18892d2093",
                        "prev": "0x0000000000000000000000000000000000000000000000000000000000000000"
                    }
                ],
                "storageVariables": [
                    {
                        "name": "_shareBalances",
                        "type": "mapping(address => uint256)",
                        "value": {
                            "pairs": [
                                {
                                    "key": "0xbc30e90dc528ece58c1a51b6fb6d572838416489",
                                    "value": {
                                        "current": "1967908946246082660555006532076288304",
                                        "prev": "0",
                                        "typeTag": 1
                                    }
                                },
                                {
                                    "key": "0xde5b7ff5b10cc5f8c95a2e2b643e3abf5179c987",
                                    "value": {
                                        "current": "2529661368222117522775097073958018829789",
                                        "prev": "2531629277168363605435652080490095118093",
                                        "typeTag": 1
                                    }
                                }
                            ],
                            "typeTag": 4
                        }
                    }
                ]
            },
            {
                "address": "0x6b175474e89094c44da98b954eedeac495271d0f",
                "erc": "ERC-20",
                "slots": [
                    {
                        "current": "0x00000000000000000000000000000000000000000004736ca8afbd7231ab1d4b",
                        "key": "0x19a1d7f851521d65868bf795feb84e7020f22954e9d974b541388c8c4eaf8f3e",
                        "prev": "0x0000000000000000000000000000000000000000000473c417dbb47594d2273b"
                    },
                    {
                        "current": "0x0000000000000000000000000000000000000000003285756855712b0933360f",
                        "key": "0xd86cc1e239204d48eb0055f151744c4bb3d2337612287be803ae8247e95a67d2",
                        "prev": "0x00000000000000000000000000000000000000000032851df9297a27a60c2c1f"
                    }
                ],
                "storageVariables": [
                    {
                        "name": "balanceOf",
                        "type": "mapping(address => uint256)",
                        "value": {
                            "pairs": [
                                {
                                    "key": "0x0379da7a5895d13037b6937b109fa8607a659adf",
                                    "value": {
                                        "current": "5380779827490703983451467",
                                        "prev": "5382392704993072843466555",
                                        "typeTag": 1
                                    }
                                },
                                {
                                    "key": "0xa478c2975ab1ea89e8196811f51a7b7ade33eb11",
                                    "value": {
                                        "current": "61076531510049328183064079",
                                        "prev": "61074918632546959323048991",
                                        "typeTag": 1
                                    }
                                }
                            ],
                            "typeTag": 4
                        }
                    }
                ]
            },
            {
                "address": "0xa478c2975ab1ea89e8196811f51a7b7ade33eb11",
                "erc": "ERC-20",
                "slots": [
                    {
                        "current": "0x00000000000000000000000000000000deb0dedb06bd088e69e6ee7e8aeff0ee",
                        "key": "0x0000000000000000000000000000000000000000000000000000000000000009",
                        "prev": "0x00000000000000000000000000000000deb0d93f039a282fc329b082fbbc5eeb"
                    },
                    {
                        "current": "0x0000000000000000000000000001707009c448a470c663b8c4c7fb62edd6b94f",
                        "key": "0x000000000000000000000000000000000000000000000000000000000000000a",
                        "prev": "0x0000000000000000000000000001706feba38c1dd67637dae04141df2adb46a2"
                    },
                    {
                        "current": "0x5fce35f40000000015cc6a95b60299a820950000003285756855712b0933360f",
                        "key": "0x0000000000000000000000000000000000000000000000000000000000000008",
                        "prev": "0x5fce35e70000000015cc9032b0493727fcd200000032851df9297a27a60c2c1f"
                    }
                ],
                "storageVariables": [
                    {
                        "name": "price0CumulativeLast",
                        "type": "uint256",
                        "value": {
                            "current": "296006979359338492186826389608266199278",
                            "prev": "296006865586726503639805739420270485227",
                            "typeTag": 1
                        }
                    },
                    {
                        "name": "price1CumulativeLast",
                        "type": "uint256",
                        "value": {
                            "current": "32095445830198424023209158857731029371107663",
                            "prev": "32095405783381293665742329157036055056828066",
                            "typeTag": 1
                        }
                    },
                    {
                        "name": "reserve0",
                        "type": "uint112",
                        "value": {
                            "current": "61076531510049328183064079",
                            "prev": "61074918632546959323048991",
                            "typeTag": 1
                        }
                    },
                    {
                        "name": "reserve1",
                        "type": "uint112",
                        "value": {
                            "current": "102940512176161132388501",
                            "prev": "102943222492418099641554",
                            "typeTag": 1
                        }
                    },
                    {
                        "name": "blockTimestampLast",
                        "type": "uint32",
                        "value": {
                            "current": "1607349748",
                            "prev": "1607349735",
                            "typeTag": 1
                        }
                    }
                ]
            },
            {
                "address": "0xa7ed29b253d8b4e3109ce07c80fc570f81b63696",
                "erc": "ERC-20",
                "slots": [
                    {
                        "current": "0x0000000000000000000000000000000000000000000000000000000000000000",
                        "key": "0xb950515586fbb3dacf8876b6926169644b919a08941b39776a8ea902a22677a9",
                        "prev": "0x00000000000000000000000000000000000000000000000050b6e96876a6f8be"
                    },
                    {
                        "current": "0x000000000000000000000000000000000000000000000419037e39e39d88fe03",
                        "key": "0xa336005d271c1269ed4536ba2947dbf550cd22fc5e7574ba7e9f1bc400f7b709",
                        "prev": "0x000000000000000000000000000000000000000000000418b2c7507b26e20545"
                    },
                    {
                        "current": "0xfffffffffffffffffffffffffffffffffffffffffffffff9a05546678047e252",
                        "key": "0x4ac1e91f2adb76dd2bb9fbf448657aa4794717cbc28bb129fee00834bc1d146d",
                        "prev": "0xfffffffffffffffffffffffffffffffffffffffffffffff9f10c2fcff6eedb10"
                    }
                ],
                "storageVariables": [
                    {
                        "name": "_balances",
                        "type": "mapping(address => uint256)",
                        "value": {
                            "pairs": [
                                {
                                    "key": "0x0379da7a5895d13037b6937b109fa8607a659adf",
                                    "value": {
                                        "current": "19350886235600262331907",
                                        "prev": "19345070142996590232901",
                                        "typeTag": 1
                                    }
                                },
                                {
                                    "key": "0xbc30e90dc528ece58c1a51b6fb6d572838416489",
                                    "value": {
                                        "current": "0",
                                        "prev": "5816092603672099006",
                                        "typeTag": 1
                                    }
                                }
                            ],
                            "typeTag": 4
                        }
                    },
                    {
                        "name": "_allowances",
                        "type": "mapping(address => mapping(address => uint256))",
                        "value": {
                            "pairs": [
                                {
                                    "key": "0xbc30e90dc528ece58c1a51b6fb6d572838416489",
                                    "value": {
                                        "pairs": [
                                            {
                                                "key": "0x7a250d5630b4cf539739df2c5dacb4c659f2488d",
                                                "value": {
                                                    "current": "115792089237316195423570985008687907853269984665640564039340010017226599424594",
                                                    "prev": "115792089237316195423570985008687907853269984665640564039345826109830271523600",
                                                    "typeTag": 1
                                                }
                                            }
                                        ],
                                        "typeTag": 4
                                    }
                                }
                            ],
                            "typeTag": 4
                        }
                    }
                ]
            },
            {
                "address": "0xc02aaa39b223fe8d0a0e5c4f27ead9083c756cc2",
                "erc": "ERC-20",
                "slots": [
                    {
                        "current": "0x0000000000000000000000000000000000000000000015cc6a95b60299a82095",
                        "key": "0xa535fbd0ab3e0ad4ee444570368f3d474545b71fcc49228fe96a6406676fc126",
                        "prev": "0x0000000000000000000000000000000000000000000015cc9032b0493727fcd2"
                    },
                    {
                        "current": "0x0000000000000000000000000000000000000000000000bc72b015948826cd99",
                        "key": "0x4c4d5a98f20b9098e8767a3dcfc8369c94ba01a4cd4bf7a460d16e4dcbb536a5",
                        "prev": "0x0000000000000000000000000000000000000000000000bc4d131b4deaa6f15c"
                    }
                ],
                "storageVariables": [
                    {
                        "name": "balanceOf",
                        "type": "mapping(address => uint256)",
                        "value": {
                            "pairs": [
                                {
                                    "key": "0xa478c2975ab1ea89e8196811f51a7b7ade33eb11",
                                    "value": {
                                        "current": "102940512176161132388501",
                                        "prev": "102943222492418099641554",
                                        "typeTag": 1
                                    }
                                },
                                {
                                    "key": "0xde5b7ff5b10cc5f8c95a2e2b643e3abf5179c987",
                                    "value": {
                                        "current": "3476252014901304151449",
                                        "prev": "3473541698644336898396",
                                        "typeTag": 1
                                    }
                                }
                            ],
                            "typeTag": 4
                        }
                    }
                ]
            },
            {
                "address": "0xde5b7ff5b10cc5f8c95a2e2b643e3abf5179c987",
                "erc": "ERC-20",
                "slots": [
                    {
                        "current": "0x5fce35f40000000000bc72b015948826cd99000000000000000fc8f9527b6139",
                        "key": "0x0000000000000000000000000000000000000000000000000000000000000008",
                        "prev": "0x5fce35f40000000000bc4d131b4deaa6f15c000000000000000fcc1e161b00d6"
                    }
                ],
                "storageVariables": [
                    {
                        "name": "reserve0",
                        "type": "uint112",
                        "value": {
                            "current": "4443097806889273",
                            "prev": "4446554242613462",
                            "typeTag": 1
                        }
                    },
                    {
                        "name": "reserve1",
                        "type": "uint112",
                        "value": {
                            "current": "3476252014901304151449",
                            "prev": "3473541698644336898396",
                            "typeTag": 1
                        }
                    },
                    {
                        "name": "blockTimestampLast",
                        "type": "uint32",
                        "value": {
                            "current": "1607349748",
                            "prev": "1607349748",
                            "typeTag": 1
                        }
                    }
                ]
            }
        ]
    }
}