{
    "balance_change": {
        "balanceChanges": [
            {
                "account": "0xf16e9b0d03470827a95cdfd0cb8a8a3b46969b91",
                "assets": [
                    {
                        "address": "0x491604c0fdf08347dd1fa4ee062a822a5dd06b5d",
                        "amount": "2,518.8602425",
                        "iconUrl": "",
                        "isERC1155": false,
                        "isERC721": false,
                        "sign": false,
                        "value": "389.0599729"
                    }
                ]
            },
            {
                "account": "0x974d133a89efb3870eb59451358fd0871d1b2d9d",
                "assets": [
                    {
                        "address": "0x491604c0fdf08347dd1fa4ee062a822a5dd06b5d",
                        "amount": "2,518.8602425",
                        "iconUrl": "",
                        "isERC1155": false,
                        "isERC721": false,
                        "sign": true,
                        "value": "389.0599729"
                    }
                ]
            }
        ]
    },
    "profile": {
        "basic_info": {
            "baseFee": "6.947158813",
            "blockNumber": 15525749,
            "callData": "0xa9059cbb000000000000000000000000974d133a89efb3870eb59451358fd0871d1b2d9d0000000000000000000000000000000000000000000000888c353d0f6ac9a800",
            "debugEnable": true,
            "errorInfo": "",
            "eventCount": 1,
            "feeRecipient": "0x829bd824b016326a401d083b33d092293333a830",
            "formatValue": "0",
            "gasLimit": 100000,
            "gasPrice": "7.947158813",
            "gasUsed": 51832,
            "intTxnCount": 0,
            "internalRevert": false,
            "internalRevertMessage": "",
            "isContractCreation": false,
            "isFlashloan": false,
            "maxFee": "27.333639114",
            "nonce": 1021306,
            "overwritedBlockNumber": -1,
            "priorityFee": "1",
            "receiver": "0x491604c0fdf08347dd1fa4ee062a822a5dd06b5d",
            "revertMessage": "",
            "sender": "0xf16e9b0d03470827a95cdfd0cb8a8a3b46969b91",
            "simulationEnable": true,
            "sourceTxnHash": "0x9779fefb4c707ab739a50a8b2725f96526cc40e0f226002688e0aacbe27f2539",
            "status": true,
            "timestamp": "2022-09-13T07:48:15Z",
            "transactionFee": "0.000411917135595416",
            "txnHash": "0x9779fefb4c707ab739a50a8b2725f96526cc40e0f226002688e0aacbe27f2539",
            "txnIndex": 180,
            "type": 2,
            "value": "0"
        },
        "fund_flow": [
            {
                "amount": "2,518.8602425",
                "from": "0xf16e9b0d03470827a95cdfd0cb8a8a3b46969b91",
                "id": 1,
                "isERC1155": false,
                "isERC721": false,
                "isReverted": false,
                "order": 1,
                "to": "0x974d133a89efb3870eb59451358fd0871d1b2d9d",
                "token": "0x491604c0fdf08347dd1fa4ee062a822a5dd06b5d"
            }
        ],
        "token_infos": [
            {
                "address": "0xeeeeeeeeeeeeeeeeeeeeeeeeeeeeeeeeeeeeeeee",
                "decimals": 18
            },
            {
                "address": "0x491604c0fdf08347dd1fa4ee062a822a5dd06b5d",
                "decimals": 18
            },
            {
                "address": "0xc02aaa39b223fe8d0a0e5c4f27ead9083c756cc2",
                "decimals": 18
            }
        ]
    },
    "address_label": {
        "labels": [
            {
                "address": "0xeeeeeeeeeeeeeeeeeeeeeeeeeeeeeeeeeeeeeeee",
                "label": "Ether"
            },
            {
                "address": "0xf16e9b0d03470827a95cdfd0cb8a8a3b46969b91",
                "label": "KuCoin 9"
            },
            {
                "address": "0x491604c0fdf08347dd1fa4ee062a822a5dd06b5d",
                "label": "Cartesi: CTSI Token"
            },
            {
                "address": "0x0000000000000000000000000000000000000001",
                "label": "Precompiled"
            },
            {
                "address": "0x0000000000000000000000000000000000000002",
                "label": "Precompiled"
            },
            {
                "address": "0x0000000000000000000000000000000000000003",
                "label": "Precompiled"
            },
            {
                "address": "0x0000000000000000000000000000000000000004",
                "label": "Precompiled"
            }
        ]
    },
    "trace": {
        "accountLabels": null,
        "dataMap": {
            "-1": {
                "invocation": {
                    "address": "0xf16e9b0d03470827a95cdfd0cb8a8a3b46969b91",
                    "callData": "",
                    "decodedMethod": null,
                    "errorInfo": "",
                    "fromAddress": "",
                    "gasUsed": 0,
                    "id": -1,
                    "methodDecoded": false,
                    "operation": "",
                    "output": "",
                    "revert": false,
                    "revertMessage": "",
                    "selector": "",
                    "status": false,
                    "value": ""
                },
                "nodeType": 0
            },
            "0": {
                "invocation": {
                    "address": "0x491604c0fdf08347dd1fa4ee062a822a5dd06b5d",
                    "callData": "0x000000000000000000000000974d133a89efb3870eb59451358fd0871d1b2d9d0000000000000000000000000000000000000000000000888c353d0f6ac9a800",
                    "decodedMethod": {
                        "callParams": [
                            {
                                "name": "recipient",
                                "type": "address",
                                "value": "0x974d133a89efb3870eb59451358fd0871d1b2d9d"
                            },
                            {
                                "decimalAvailable": true,
                                "name": "amount",
                                "type": "uint256",
                                "value": "2,518,860,242,500,000,000,000"
                            }
                        ],
                        "constructorArguments": "",
                        "name": "transfer",
                        "returnParams": [
                            {
                                "name": "",
                                "type": "bool",
                                "value": true
                            }
                        ],
                        "signature": "transfer(address,uint256)"
                    },
                    "errorInfo": "",
                    "fromAddress": "0xf16e9b0d03470827a95cdfd0cb8a8a3b46969b91",
                    "gasUsed": 51832,
                    "id": 0,
                    "methodDecoded": true,
                    "operation": "CALL",
                    "output": "0x0000000000000000000000000000000000000000000000000000000000000001",
                    "revert": false,
                    "revertMessage": "",
                    "selector": "0xa9059cbb",
                    "status": true,
                    "value": "0"
                },
                "nodeType": 0
            },
            "1": {
                "event": {
                    "contract": "0x491604c0fdf08347dd1fa4ee062a822a5dd06b5d",
                    "decodedLog": {
                        "name": "Transfer",
                        "params": [
                            {
                                "name": "from",
                                "type": "address",
                                "value": "0xf16e9b0d03470827a95cdfd0cb8a8a3b46969b91"
                            },
                            {
                                "name": "to",
                                "type": "address",
                                "value": "0x974d133a89efb3870eb59451358fd0871d1b2d9d"
                            },
                            {
                                "decimalAvailable": true,
                                "name": "value",
                                "type": "uint256",
                                "value": "2,518,860,242,500,000,000,000"
                            }
                        ],
                        "signature": "Transfer(address,address,uint256)"
                    },
                    "id": 1,
                    "logData": "0x0000000000000000000000000000000000000000000000888c353d0f6ac9a800",
                    "logDecoded": true,
                    "operation": "EVENT",
                    "revert": false,
                    "status": true,
                    "topics": [
                        "0xddf252ad1be2c89b69c2b068fc378daa952ba7f163c4a11628f55a4df523b3ef",
                        "0x000000000000000000000000f16e9b0d03470827a95cdfd0cb8a8a3b46969b91",
                        "0x000000000000000000000000974d133a89efb3870eb59451358fd0871d1b2d9d"
                    ]
                },
                "nodeType": 1
            }
        },
        "gasFlame": [
            {
                "children": [
                    {
                        "children": [
                            {
                                "children": [],
                                "depth": 0,
                                "name": "Initial Gas",
                                "value": 21656
                            },
                            {
                                "children": [],
                                "depth": 0,
                                "name": "Executed Gas",
                                "value": 30176
                            }
                        ],
                        "depth": -1,
                        "name": "Actual Gas Used",
                        "value": 51832
                    },
                    {
                        "children": [],
                        "depth": -1,
                        "name": "Refunded Gas",
                        "value": 0
                    }
                ],
                "depth": -2,
                "name": "Total Gas",
                "value": 51832
            }
        ],
        "isConfirmed": true,
        "mainTrace": [
            {
                "children": [
                    {
                        "children": [
                            {
                                "children": [],
                                "depth": 1,
                                "id": 1,
                                "order": 1
                            }
                        ],
                        "depth": 0,
                        "id": 0,
                        "order": 0
                    }
                ],
                "depth": -1,
                "id": -1,
                "order": -1
            }
        ],
        "mainTraceNodeCount": 2,
        "parentIdMap": {
            "0": -1,
            "1": 0
        },
        "tidyTrace": [
            {
                "children": [
                    {
                        "children": [
                            {
                                "children": [],
                                "depth": 1,
                                "id": 1,
                                "order": 1
                            }
                        ],
                        "depth": 0,
                        "id": 0,
                        "order": 0
                    }
                ],
                "depth": -1,
                "id": -1,
                "order": -1
            }
        ],
        "tidyTraceNodeCount": 2
    },
    "state_change": {
        "stateChanges": [
            {
                "address": "0x491604c0fdf08347dd1fa4ee062a822a5dd06b5d",
                "erc": "ERC-20",
                "slots": [
                    {
                        "current": "0x000000000000000000000000000000000000000000002d0a709b6e0046f93bf8",
                        "key": "0xe22997ad676795e3318786248f6e5790f07b3bc90ff54b119652dd6b4e49e832",
                        "prev": "0x000000000000000000000000000000000000000000002d92fcd0ab0fb1c2e3f8"
                    },
                    {
                        "current": "0x0000000000000000000000000000000000000000000000888c353d0f6ac9a800",
                        "key": "0xdf9611aa2c6c398a997c06ff2e16c4b152b1cab5cc468c28ee51b8593a71d40c",
                        "prev": "0x0000000000000000000000000000000000000000000000000000000000000000"
                    }
                ],
                "storageVariables": [
                    {
                        "name": "_balances",
                        "type": "mapping(address => uint256)",
                        "value": {
                            "pairs": [
                                {
                                    "key": "0x974d133a89efb3870eb59451358fd0871d1b2d9d",
                                    "value": {
                                        "current": "2518860242500000000000",
                                        "prev": "0",
                                        "typeTag": 1
                                    }
                                },
                                {
                                    "key": "0xf16e9b0d03470827a95cdfd0cb8a8a3b46969b91",
                                    "value": {
                                        "current": "212699073369972238007288",
                                        "prev": "215217933612472238007288",
                                        "typeTag": 1
                                    }
                                }
                            ],
                            "typeTag": 4
                        }
                    }
                ]
            }
        ]
    }
}