{
    "balance_change": {
        "balanceChanges": [
            {
                "account": "0xae6a4264c6ca1a04dcb5e42f1017595d62d28b68",
                "assets": [
                    {
                        "address": "0x9d39a5de30e57443bff2a8307a4256c8797a3497",
                        "amount": "9,753.013151918011607851",
                        "iconUrl": "",
                        "isERC1155": false,
                        "isERC721": false,
                        "sign": false,
                        "value": "9782.272191455998943"
                    },
                    {
                        "address": "0x81a3b889b718be0503698e18f836bf44a0a8be22",
                        "amount": "975,301.3151918011607851",
                        "iconUrl": "",
                        "isERC1155": false,
                        "isERC721": false,
                        "sign": true,
                        "value": ""
                    }
                ]
            },
            {
                "account": "0xc6ade8a68026d582ab37b879d188caf7e405dd09",
                "assets": [
                    {
                        "address": "0x9d39a5de30e57443bff2a8307a4256c8797a3497",
                        "amount": "9,753.013151918011607851",
                        "iconUrl": "",
                        "isERC1155": false,
                        "isERC721": false,
                        "sign": true,
                        "value": "9782.272191455998943"
                    }
                ]
            },
            {
                "account": "0x0000000000000000000000000000000000000000",
                "assets": [
                    {
                        "address": "0x81a3b889b718be0503698e18f836bf44a0a8be22",
                        "amount": "975,301.3151918011607851",
                        "iconUrl": "",
                        "isERC1155": false,
                        "isERC721": false,
                        "sign": false,
                        "value": ""
                    }
                ]
            }
        ]
    },
    "profile": {
        "basic_info": {
            "baseFee": "68.455810024",
            "blockNumber": 19435187,
            "callData": "0x47e7ef240000000000000000000000009d39a5de30e57443bff2a8307a4256c8797a3497000000000000000000000000000000000000000000000210b63f3bfdb9f66b2b",
            "debugEnable": true,
            "errorInfo": "",
            "eventCount": 4,
            "feeRecipient": "0x95222290dd7278aa3ddd389cc1e1d165cc4bafe5",
            "formatValue": "0",
            "gasLimit": 241168,
            "gasPrice": "68.504310024",
            "gasUsed": 148145,
            "intTxnCount": 8,
            "internalRevert": false,
            "internalRevertMessage": "",
            "isContractCreation": false,
            "isFlashloan": false,
            "maxFee": "89.977587294",
            "nonce": 1185,
            "overwritedBlockNumber": -1,
            "priorityFee": "0.0485",
            "receiver": "0xc6ade8a68026d582ab37b879d188caf7e405dd09",
            "revertMessage": "",
            "sender": "0xae6a4264c6ca1a04dcb5e42f1017595d62d28b68",
            "simulationEnable": true,
            "sourceTxnHash": "0x97350dde5b7852c85e6d1dfba94dde9b299a6e9a62f36cf742b2f9fd6368394a",
            "status": true,
            "timestamp": "2024-03-14T19:03:11Z",
            "transactionFee": "0.01014857100850548",
            "txnHash": "0x97350dde5b7852c85e6d1dfba94dde9b299a6e9a62f36cf742b2f9fd6368394a",
            "txnIndex": 184,
            "type": 2,
            "value": "0"
        },
        "fund_flow": [
            {
                "amount": "9,753.013151918011607851",
                "from": "0xae6a4264c6ca1a04dcb5e42f1017595d62d28b68",
                "id": 1,
                "isERC1155": false,
                "isERC721": false,
                "isReverted": false,
                "order": 1,
                "to": "0xc6ade8a68026d582ab37b879d188caf7e405dd09",
                "token": "0x9d39a5de30e57443bff2a8307a4256c8797a3497"
            },
            {
                "amount": "975,301.3151918011607851",
                "from": "0x0000000000000000000000000000000000000000",
                "id": 2,
                "isERC1155": false,
                "isERC721": false,
                "isReverted": false,
                "order": 2,
                "to": "0xae6a4264c6ca1a04dcb5e42f1017595d62d28b68",
                "token": "0x81a3b889b718be0503698e18f836bf44a0a8be22"
            }
        ],
        "token_infos": [
            {
                "address": "0x81a3b889b718be0503698e18f836bf44a0a8be22",
                "decimals": 18
            },
            {
                "address": "0x9d39a5de30e57443bff2a8307a4256c8797a3497",
                "decimals": 18
            },
            {
                "address": "0xc02aaa39b223fe8d0a0e5c4f27ead9083c756cc2",
                "decimals": 18
            },
            {
                "address": "0xeeeeeeeeeeeeeeeeeeeeeeeeeeeeeeeeeeeeeeee",
                "decimals": 18
            }
        ]
    },
    "address_label": {
        "labels": [
            {
                "address": "0xa92299289361fdcbb4ce9acbb512a84bd5fab37d",
                "label": "BlackwingVault"
            },
            {
                "address": "0x0000000000000000000000000000000000000002",
                "label": "Precompiled"
            },
            {
                "address": "0x0000000000000000000000000000000000000003",
                "label": "Precompiled"
            },
            {
                "address": "0x0000000000000000000000000000000000000004",
                "label": "Precompiled"
            },
            {
                "address": "0x81a3b889b718be0503698e18f836bf44a0a8be22",
                "label": "blvtSUSDE"
            },
            {
                "address": "0xc6ade8a68026d582ab37b879d188caf7e405dd09",
                "label": "TransparentUpgradeableProxy"
            },
            {
                "address": "0x010bd3cfe12cd3f57b7b0dcf23a7a8eb26845ec7",
                "label": "BlackwingVaultToken"
            },
            {
                "address": "0x0000000000000000000000000000000000000001",
                "label": "Precompiled"
            },
            {
                "address": "0xeeeeeeeeeeeeeeeeeeeeeeeeeeeeeeeeeeeeeeee",
                "label": "Ether"
            },
            {
                "address": "0x9d39a5de30e57443bff2a8307a4256c8797a3497",
                "label": "Ethena: sUSDe Token"
            },
            {
                "address": "0x3b7df0cd432c8f3b01b969ad8d2a2a1405b1c04f",
                "label": "BlackwingNoopDeployer"
            }
        ]
    },
    "trace": {
        "accountLabels": null,
        "dataMap": {
            "-1": {
                "invocation": {
                    "address": "0xae6a4264c6ca1a04dcb5e42f1017595d62d28b68",
                    "callData": "",
                    "decodedMethod": null,
                    "errorInfo": "",
                    "fromAddress": "",
                    "gasUsed": 0,
                    "id": -1,
                    "methodDecoded": false,
                    "operation": "",
                    "output": "",
                    "revert": false,
                    "revertMessage": "",
                    "selector": "",
                    "status": false,
                    "value": ""
                },
                "nodeType": 0
            },
            "0": {
                "invocation": {
                    "address": "0xc6ade8a68026d582ab37b879d188caf7e405dd09",
                    "callData": "0x0000000000000000000000009d39a5de30e57443bff2a8307a4256c8797a3497000000000000000000000000000000000000000000000210b63f3bfdb9f66b2b",
                    "decodedMethod": {
                        "callParams": [
                            {
                                "name": "asset",
                                "type": "address",
                                "value": "0x9d39a5de30e57443bff2a8307a4256c8797a3497"
                            },
                            {
                                "name": "amount",
                                "type": "uint256",
                                "value": "9,753,013,151,918,011,607,851"
                            }
                        ],
                        "constructorArguments": "",
                        "name": "deposit",
                        "returnParams": [],
                        "signature": "deposit(address,uint256)"
                    },
                    "errorInfo": "",
                    "fromAddress": "0xae6a4264c6ca1a04dcb5e42f1017595d62d28b68",
                    "gasUsed": 148145,
                    "id": 0,
                    "methodDecoded": true,
                    "operation": "CALL",
                    "output": "",
                    "revert": false,
                    "revertMessage": "",
                    "selector": "0x47e7ef24",
                    "status": true,
                    "value": "0"
                },
                "nodeType": 0
            },
            "1": {
                "invocation": {
                    "address": "0xa92299289361fdcbb4ce9acbb512a84bd5fab37d",
                    "callData": "0x0000000000000000000000009d39a5de30e57443bff2a8307a4256c8797a3497000000000000000000000000000000000000000000000210b63f3bfdb9f66b2b",
                    "decodedMethod": {
                        "callParams": [
                            {
                                "name": "asset",
                                "type": "address",
                                "value": "0x9d39a5de30e57443bff2a8307a4256c8797a3497"
                            },
                            {
                                "name": "amount",
                                "type": "uint256",
                                "value": "9,753,013,151,918,011,607,851"
                            }
                        ],
                        "constructorArguments": "",
                        "name": "deposit",
                        "returnParams": [],
                        "signature": "deposit(address,uint256)"
                    },
                    "errorInfo": "",
                    "fromAddress": "0xc6ade8a68026d582ab37b879d188caf7e405dd09",
                    "gasUsed": 131117,
                    "id": 1,
                    "methodDecoded": true,
                    "operation": "DELEGATECALL",
                    "output": "",
                    "revert": false,
                    "revertMessage": "",
                    "selector": "0x47e7ef24",
                    "status": true,
                    "value": "0"
                },
                "nodeType": 0
            },
            "10": {
                "invocation": {
                    "address": "0x010bd3cfe12cd3f57b7b0dcf23a7a8eb26845ec7",
                    "callData": "0x000000000000000000000000ae6a4264c6ca1a04dcb5e42f1017595d62d28b6800000000000000000000000000000000000000000000ce8730b36f1ca441dccc",
                    "decodedMethod": {
                        "callParams": [
                            {
                                "name": "to",
                                "type": "address",
                                "value": "0xae6a4264c6ca1a04dcb5e42f1017595d62d28b68"
                            },
                            {
                                "name": "amount",
                                "type": "uint256",
                                "value": "975,301,315,191,801,160,785,100"
                            }
                        ],
                        "constructorArguments": "",
                        "name": "mint",
                        "returnParams": [],
                        "signature": "mint(address,uint256)"
                    },
                    "errorInfo": "",
                    "fromAddress": "0x81a3b889b718be0503698e18f836bf44a0a8be22",
                    "gasUsed": 30897,
                    "id": 10,
                    "methodDecoded": true,
                    "operation": "DELEGATECALL",
                    "output": "",
                    "revert": false,
                    "revertMessage": "",
                    "selector": "0x40c10f19",
                    "status": true,
                    "value": "0"
                },
                "nodeType": 0
            },
            "11": {
                "event": {
                    "contract": "0x81a3b889b718be0503698e18f836bf44a0a8be22",
                    "decodedLog": {
                        "name": "Transfer",
                        "params": [
                            {
                                "name": "from",
                                "type": "address",
                                "value": "0x0000000000000000000000000000000000000000"
                            },
                            {
                                "name": "to",
                                "type": "address",
                                "value": "0xae6a4264c6ca1a04dcb5e42f1017595d62d28b68"
                            },
                            {
                                "decimalAvailable": true,
                                "name": "value",
                                "type": "uint256",
                                "value": "975,301,315,191,801,160,785,100"
                            }
                        ],
                        "signature": "Transfer(address,address,uint256)"
                    },
                    "id": 11,
                    "logData": "0x00000000000000000000000000000000000000000000ce8730b36f1ca441dccc",
                    "logDecoded": true,
                    "operation": "EVENT",
                    "revert": false,
                    "status": true,
                    "topics": [
                        "0xddf252ad1be2c89b69c2b068fc378daa952ba7f163c4a11628f55a4df523b3ef",
                        "0x0000000000000000000000000000000000000000000000000000000000000000",
                        "0x000000000000000000000000ae6a4264c6ca1a04dcb5e42f1017595d62d28b68"
                    ]
                },
                "nodeType": 1
            },
            "12": {
                "event": {
                    "contract": "0xc6ade8a68026d582ab37b879d188caf7e405dd09",
                    "decodedLog": {
                        "name": "BalanceChange",
                        "params": [
                            {
                                "name": "isDeposit",
                                "type": "bool",
                                "value": true
                            },
                            {
                                "name": "asset",
                                "type": "address",
                                "value": "0x9d39a5de30e57443bff2a8307a4256c8797a3497"
                            },
                            {
                                "name": "user",
                                "type": "address",
                                "value": "0xae6a4264c6ca1a04dcb5e42f1017595d62d28b68"
                            },
                            {
                                "name": "amount",
                                "type": "uint256",
                                "value": "9,753,013,151,918,011,607,851"
                            }
                        ],
                        "signature": "BalanceChange(bool,address,address,uint256)"
                    },
                    "id": 12,
                    "logData": "0x00000000000000000000000000000000000000000000000000000000000000010000000000000000000000009d39a5de30e57443bff2a8307a4256c8797a3497000000000000000000000000ae6a4264c6ca1a04dcb5e42f1017595d62d28b68000000000000000000000000000000000000000000000210b63f3bfdb9f66b2b",
                    "logDecoded": true,
                    "operation": "EVENT",
                    "revert": false,
                    "status": true,
                    "topics": [
                        "0xd34c461d783a9885b01b2fa71160857f48963a0ed4514e902adbda302ea80100"
                    ]
                },
                "nodeType": 1
            },
            "2": {
                "invocation": {
                    "address": "0x81a3b889b718be0503698e18f836bf44a0a8be22",
                    "callData": "0x",
                    "decodedMethod": {
                        "callParams": [],
                        "constructorArguments": "",
                        "name": "totalSupply",
                        "returnParams": [
                            {
                                "name": "",
                                "type": "uint256",
                                "value": "18,089,129,749,901,158,867,692,000"
                            }
                        ],
                        "signature": "totalSupply()"
                    },
                    "errorInfo": "",
                    "fromAddress": "0xc6ade8a68026d582ab37b879d188caf7e405dd09",
                    "gasUsed": 7526,
                    "id": 2,
                    "methodDecoded": true,
                    "operation": "STATICCALL",
                    "output": "0x0000000000000000000000000000000000000000000ef685b04c12288ffa69e0",
                    "revert": false,
                    "revertMessage": "",
                    "selector": "0x18160ddd",
                    "status": true,
                    "value": "0"
                },
                "nodeType": 0
            },
            "3": {
                "invocation": {
                    "address": "0x010bd3cfe12cd3f57b7b0dcf23a7a8eb26845ec7",
                    "callData": "0x",
                    "decodedMethod": {
                        "callParams": [],
                        "constructorArguments": "",
                        "name": "totalSupply",
                        "returnParams": [
                            {
                                "name": "",
                                "type": "uint256",
                                "value": "18,089,129,749,901,158,867,692,000"
                            }
                        ],
                        "signature": "totalSupply()"
                    },
                    "errorInfo": "",
                    "fromAddress": "0x81a3b889b718be0503698e18f836bf44a0a8be22",
                    "gasUsed": 2581,
                    "id": 3,
                    "methodDecoded": true,
                    "operation": "DELEGATECALL",
                    "output": "0x0000000000000000000000000000000000000000000ef685b04c12288ffa69e0",
                    "revert": false,
                    "revertMessage": "",
                    "selector": "0x18160ddd",
                    "status": true,
                    "value": "0"
                },
                "nodeType": 0
            },
            "4": {
                "invocation": {
                    "address": "0x3b7df0cd432c8f3b01b969ad8d2a2a1405b1c04f",
                    "callData": "0x0000000000000000000000009d39a5de30e57443bff2a8307a4256c8797a3497",
                    "decodedMethod": {
                        "callParams": [
                            {
                                "name": "asset",
                                "type": "address",
                                "value": "0x9d39a5de30e57443bff2a8307a4256c8797a3497"
                            }
                        ],
                        "constructorArguments": "",
                        "name": "totalDeployedAmount",
                        "returnParams": [
                            {
                                "name": "",
                                "type": "uint256",
                                "value": "0"
                            }
                        ],
                        "signature": "totalDeployedAmount(address)"
                    },
                    "errorInfo": "",
                    "fromAddress": "0xc6ade8a68026d582ab37b879d188caf7e405dd09",
                    "gasUsed": 709,
                    "id": 4,
                    "methodDecoded": true,
                    "operation": "STATICCALL",
                    "output": "0x0000000000000000000000000000000000000000000000000000000000000000",
                    "revert": false,
                    "revertMessage": "",
                    "selector": "0x8635a1f1",
                    "status": true,
                    "value": "0"
                },
                "nodeType": 0
            },
            "5": {
                "invocation": {
                    "address": "0x9d39a5de30e57443bff2a8307a4256c8797a3497",
                    "callData": "0x000000000000000000000000c6ade8a68026d582ab37b879d188caf7e405dd09",
                    "decodedMethod": {
                        "callParams": [
                            {
                                "name": "account",
                                "type": "address",
                                "value": "0xc6ade8a68026d582ab37b879d188caf7e405dd09"
                            }
                        ],
                        "constructorArguments": "",
                        "name": "balanceOf",
                        "returnParams": [
                            {
                                "decimalAvailable": true,
                                "name": "",
                                "type": "uint256",
                                "value": "180,891,297,499,011,588,676,920"
                            }
                        ],
                        "signature": "balanceOf(address)"
                    },
                    "errorInfo": "",
                    "fromAddress": "0xc6ade8a68026d582ab37b879d188caf7e405dd09",
                    "gasUsed": 2569,
                    "id": 5,
                    "methodDecoded": true,
                    "operation": "STATICCALL",
                    "output": "0x00000000000000000000000000000000000000000000264e230b002e7c51dd38",
                    "revert": false,
                    "revertMessage": "",
                    "selector": "0x70a08231",
                    "status": true,
                    "value": "0"
                },
                "nodeType": 0
            },
            "6": {
                "invocation": {
                    "address": "0x9d39a5de30e57443bff2a8307a4256c8797a3497",
                    "callData": "0x000000000000000000000000ae6a4264c6ca1a04dcb5e42f1017595d62d28b68000000000000000000000000c6ade8a68026d582ab37b879d188caf7e405dd09000000000000000000000000000000000000000000000210b63f3bfdb9f66b2b",
                    "decodedMethod": {
                        "callParams": [
                            {
                                "name": "from",
                                "type": "address",
                                "value": "0xae6a4264c6ca1a04dcb5e42f1017595d62d28b68"
                            },
                            {
                                "name": "to",
                                "type": "address",
                                "value": "0xc6ade8a68026d582ab37b879d188caf7e405dd09"
                            },
                            {
                                "decimalAvailable": true,
                                "name": "amount",
                                "type": "uint256",
                                "value": "9,753,013,151,918,011,607,851"
                            }
                        ],
                        "constructorArguments": "",
                        "name": "transferFrom",
                        "returnParams": [
                            {
                                "name": "",
                                "type": "bool",
                                "value": true
                            }
                        ],
                        "signature": "transferFrom(address,address,uint256)"
                    },
                    "errorInfo": "",
                    "fromAddress": "0xc6ade8a68026d582ab37b879d188caf7e405dd09",
                    "gasUsed": 22571,
                    "id": 6,
                    "methodDecoded": true,
                    "operation": "CALL",
                    "output": "0x0000000000000000000000000000000000000000000000000000000000000001",
                    "revert": false,
                    "revertMessage": "",
                    "selector": "0x23b872dd",
                    "status": true,
                    "value": "0"
                },
                "nodeType": 0
            },
            "7": {
                "event": {
                    "contract": "0x9d39a5de30e57443bff2a8307a4256c8797a3497",
                    "decodedLog": {
                        "name": "Approval",
                        "params": [
                            {
                                "name": "owner",
                                "type": "address",
                                "value": "0xae6a4264c6ca1a04dcb5e42f1017595d62d28b68"
                            },
                            {
                                "name": "spender",
                                "type": "address",
                                "value": "0xc6ade8a68026d582ab37b879d188caf7e405dd09"
                            },
                            {
                                "decimalAvailable": true,
                                "name": "value",
                                "type": "uint256",
                                "value": "0"
                            }
                        ],
                        "signature": "Approval(address,address,uint256)"
                    },
                    "id": 7,
                    "logData": "0x0000000000000000000000000000000000000000000000000000000000000000",
                    "logDecoded": true,
                    "operation": "EVENT",
                    "revert": false,
                    "status": true,
                    "topics": [
                        "0x8c5be1e5ebec7d5bd14f71427d1e84f3dd0314c0f7b2291e5b200ac8c7c3b925",
                        "0x000000000000000000000000ae6a4264c6ca1a04dcb5e42f1017595d62d28b68",
                        "0x000000000000000000000000c6ade8a68026d582ab37b879d188caf7e405dd09"
                    ]
                },
                "nodeType": 1
            },
            "8": {
                "event": {
                    "contract": "0x9d39a5de30e57443bff2a8307a4256c8797a3497",
                    "decodedLog": {
                        "name": "Transfer",
                        "params": [
                            {
                                "name": "from",
                                "type": "address",
                                "value": "0xae6a4264c6ca1a04dcb5e42f1017595d62d28b68"
                            },
                            {
                                "name": "to",
                                "type": "address",
                                "value": "0xc6ade8a68026d582ab37b879d188caf7e405dd09"
                            },
                            {
                                "decimalAvailable": true,
                                "name": "value",
                                "type": "uint256",
                                "value": "9,753,013,151,918,011,607,851"
                            }
                        ],
                        "signature": "Transfer(address,address,uint256)"
                    },
                    "id": 8,
                    "logData": "0x000000000000000000000000000000000000000000000210b63f3bfdb9f66b2b",
                    "logDecoded": true,
                    "operation": "EVENT",
                    "revert": false,
                    "status": true,
                    "topics": [
                        "0xddf252ad1be2c89b69c2b068fc378daa952ba7f163c4a11628f55a4df523b3ef",
                        "0x000000000000000000000000ae6a4264c6ca1a04dcb5e42f1017595d62d28b68",
                        "0x000000000000000000000000c6ade8a68026d582ab37b879d188caf7e405dd09"
                    ]
                },
                "nodeType": 1
            },
            "9": {
                "invocation": {
                    "address": "0x81a3b889b718be0503698e18f836bf44a0a8be22",
                    "callData": "0x000000000000000000000000ae6a4264c6ca1a04dcb5e42f1017595d62d28b6800000000000000000000000000000000000000000000ce8730b36f1ca441dccc",
                    "decodedMethod": {
                        "callParams": [
                            {
                                "name": "to",
                                "type": "address",
                                "value": "0xae6a4264c6ca1a04dcb5e42f1017595d62d28b68"
                            },
                            {
                                "name": "amount",
                                "type": "uint256",
                                "value": "975,301,315,191,801,160,785,100"
                            }
                        ],
                        "constructorArguments": "",
                        "name": "mint",
                        "returnParams": [],
                        "signature": "mint(address,uint256)"
                    },
                    "errorInfo": "",
                    "fromAddress": "0xc6ade8a68026d582ab37b879d188caf7e405dd09",
                    "gasUsed": 31345,
                    "id": 9,
                    "methodDecoded": true,
                    "operation": "CALL",
                    "output": "",
                    "revert": false,
                    "revertMessage": "",
                    "selector": "0x40c10f19",
                    "status": true,
                    "value": "0"
                },
                "nodeType": 0
            }
        },
        "gasFlame": [
            {
                "children": [
                    {
                        "children": [
                            {
                                "children": [],
                                "depth": 0,
                                "name": "Initial Gas",
                                "value": 21680
                            },
                            {
                                "children": [
                                    {
                                        "children": [
                                            {
                                                "children": [
                                                    {
                                                        "children": [],
                                                        "depth": 3,
                                                        "name": "totalSupply",
                                                        "value": 2581
                                                    }
                                                ],
                                                "depth": 2,
                                                "name": "totalSupply",
                                                "value": 7526
                                            },
                                            {
                                                "children": [],
                                                "depth": 2,
                                                "name": "totalDeployedAmount",
                                                "value": 709
                                            },
                                            {
                                                "children": [],
                                                "depth": 2,
                                                "name": "balanceOf",
                                                "value": 2569
                                            },
                                            {
                                                "children": [],
                                                "depth": 2,
                                                "name": "transferFrom",
                                                "value": 22571
                                            },
                                            {
                                                "children": [
                                                    {
                                                        "children": [],
                                                        "depth": 3,
                                                        "name": "mint",
                                                        "value": 30897
                                                    }
                                                ],
                                                "depth": 2,
                                                "name": "mint",
                                                "value": 31345
                                            }
                                        ],
                                        "depth": 1,
                                        "name": "deposit",
                                        "value": 131117
                                    }
                                ],
                                "depth": 0,
                                "name": "Executed Gas",
                                "value": 136065
                            }
                        ],
                        "depth": -1,
                        "name": "Actual Gas Used",
                        "value": 148145
                    },
                    {
                        "children": [],
                        "depth": -1,
                        "name": "Refunded Gas",
                        "value": 9600
                    }
                ],
                "depth": -2,
                "name": "Total Gas",
                "value": 157745
            }
        ],
        "isConfirmed": true,
        "mainTrace": [
            {
                "children": [
                    {
                        "children": [
                            {
                                "children": [
                                    {
                                        "children": [
                                            {
                                                "children": [],
                                                "depth": 3,
                                                "id": 3,
                                                "order": 3
                                            }
                                        ],
                                        "depth": 2,
                                        "id": 2,
                                        "order": 2
                                    },
                                    {
                                        "children": [],
                                        "depth": 2,
                                        "id": 4,
                                        "order": 4
                                    },
                                    {
                                        "children": [],
                                        "depth": 2,
                                        "id": 5,
                                        "order": 5
                                    },
                                    {
                                        "children": [
                                            {
                                                "children": [],
                                                "depth": 3,
                                                "id": 7,
                                                "order": 7
                                            },
                                            {
                                                "children": [],
                                                "depth": 3,
                                                "id": 8,
                                                "order": 8
                                            }
                                        ],
                                        "depth": 2,
                                        "id": 6,
                                        "order": 6
                                    },
                                    {
                                        "children": [
                                            {
                                                "children": [
                                                    {
                                                        "children": [],
                                                        "depth": 4,
                                                        "id": 11,
                                                        "order": 11
                                                    }
                                                ],
                                                "depth": 3,
                                                "id": 10,
                                                "order": 10
                                            }
                                        ],
                                        "depth": 2,
                                        "id": 9,
                                        "order": 9
                                    },
                                    {
                                        "children": [],
                                        "depth": 2,
                                        "id": 12,
                                        "order": 12
                                    }
                                ],
                                "depth": 1,
                                "id": 1,
                                "order": 1
                            }
                        ],
                        "depth": 0,
                        "id": 0,
                        "order": 0
                    }
                ],
                "depth": -1,
                "id": -1,
                "order": -1
            }
        ],
        "mainTraceNodeCount": 13,
        "parentIdMap": {
            "0": -1,
            "1": 0,
            "10": 9,
            "11": 10,
            "12": 1,
            "2": 1,
            "3": 2,
            "4": 1,
            "5": 1,
            "6": 1,
            "7": 6,
            "8": 6,
            "9": 1
        },
        "tidyTrace": [
            {
                "children": [
                    {
                        "children": [
                            {
                                "children": [
                                    {
                                        "children": [
                                            {
                                                "children": [],
                                                "depth": 3,
                                                "id": 7,
                                                "order": 7
                                            },
                                            {
                                                "children": [],
                                                "depth": 3,
                                                "id": 8,
                                                "order": 8
                                            }
                                        ],
                                        "depth": 2,
                                        "id": 6,
                                        "order": 6
                                    },
                                    {
                                        "children": [
                                            {
                                                "children": [
                                                    {
                                                        "children": [],
                                                        "depth": 4,
                                                        "id": 11,
                                                        "order": 11
                                                    }
                                                ],
                                                "depth": 3,
                                                "id": 10,
                                                "order": 10
                                            }
                                        ],
                                        "depth": 2,
                                        "id": 9,
                                        "order": 9
                                    },
                                    {
                                        "children": [],
                                        "depth": 2,
                                        "id": 12,
                                        "order": 12
                                    }
                                ],
                                "depth": 1,
                                "id": 1,
                                "order": 1
                            }
                        ],
                        "depth": 0,
                        "id": 0,
                        "order": 0
                    }
                ],
                "depth": -1,
                "id": -1,
                "order": -1
            }
        ],
        "tidyTraceNodeCount": 9
    },
    "state_change": {
        "stateChanges": [
            {
                "address": "0x81a3b889b718be0503698e18f836bf44a0a8be22",
                "erc": "ERC-20",
                "slots": [
                    {
                        "current": "0x0000000000000000000000000000000000000000000fc50ce0ff8145343c46ac",
                        "key": "0x52c63247e1f47db19d5ce0460030c497f067ca4cebf71ba98eeadabe20bace02",
                        "prev": "0x0000000000000000000000000000000000000000000ef685b04c12288ffa69e0"
                    },
                    {
                        "current": "0x00000000000000000000000000000000000000000000ce8730b36f1ca441dccc",
                        "key": "0x15f0fd798dc5f11c3d159c28a87a84d7608ac475c1dde68c3e4d8a4b068534fc",
                        "prev": "0x0000000000000000000000000000000000000000000000000000000000000000"
                    }
                ],
                "storageVariables": []
            },
            {
                "address": "0x9d39a5de30e57443bff2a8307a4256c8797a3497",
                "erc": "ERC-20",
                "slots": [
                    {
                        "current": "0x0000000000000000000000000000000000000000000000000000000000000000",
                        "key": "0x3fdc07f99f9ca58d43a2dd93fe672d55869bc52303bb93a5b9661e1e2ca38fe9",
                        "prev": "0x000000000000000000000000000000000000000000000210b63f3bfdb9f66b2b"
                    },
                    {
                        "current": "0x00000000000000000000000000000000000000000000285ed94a3c2c36484863",
                        "key": "0x21250f0492308ddd14549b6c8fac0906668175f52e63461ec3575e870e166e22",
                        "prev": "0x00000000000000000000000000000000000000000000264e230b002e7c51dd38"
                    },
                    {
                        "current": "0x0000000000000000000000000000000000000000000000000000000000000000",
                        "key": "0x3e537eb977ac20810479e37a12edfa0427b4f329494687b52f00cef9ef053fda",
                        "prev": "0x000000000000000000000000000000000000000000000210b63f3bfdb9f66b2b"
                    }
                ],
                "storageVariables": [
                    {
                        "name": "_allowances",
                        "type": "mapping(address => mapping(address => uint256))",
                        "value": {
                            "pairs": [
                                {
                                    "key": "0xae6a4264c6ca1a04dcb5e42f1017595d62d28b68",
                                    "value": {
                                        "pairs": [
                                            {
                                                "key": "0xc6ade8a68026d582ab37b879d188caf7e405dd09",
                                                "value": {
                                                    "current": "0",
                                                    "prev": "9753013151918011607851",
                                                    "typeTag": 1
                                                }
                                            }
                                        ],
                                        "typeTag": 4
                                    }
                                }
                            ],
                            "typeTag": 4
                        }
                    },
                    {
                        "name": "_balances",
                        "type": "mapping(address => uint256)",
                        "value": {
                            "pairs": [
                                {
                                    "key": "0xae6a4264c6ca1a04dcb5e42f1017595d62d28b68",
                                    "value": {
                                        "current": "0",
                                        "prev": "9753013151918011607851",
                                        "typeTag": 1
                                    }
                                },
                                {
                                    "key": "0xc6ade8a68026d582ab37b879d188caf7e405dd09",
                                    "value": {
                                        "current": "190644310650929600284771",
                                        "prev": "180891297499011588676920",
                                        "typeTag": 1
                                    }
                                }
                            ],
                            "typeTag": 4
                        }
                    }
                ]
            },
            {
                "address": "0xc6ade8a68026d582ab37b879d188caf7e405dd09",
                "erc": "",
                "slots": [
                    {
                        "current": "0x0000000000000000000000000000000000000000000000000000000000000001",
                        "key": "0x04d4a3352b140577aa466046bf413a5a04b2511d5a0c35b9ab5b7d342a9c83ec",
                        "prev": "0x0000000000000000000000000000000000000000000000000000000000000000"
                    },
                    {
                        "current": "0x0000000000000000000000000000000000000000000000000000000001288eb3",
                        "key": "0x04d4a3352b140577aa466046bf413a5a04b2511d5a0c35b9ab5b7d342a9c83ed",
                        "prev": "0x0000000000000000000000000000000000000000000000000000000000000000"
                    }
                ],
                "storageVariables": [
                    {
                        "name": "users",
                        "type": "mapping(address => struct UserInfo)",
                        "value": {
                            "pairs": [
                                {
                                    "key": "0xae6a4264c6ca1a04dcb5e42f1017595d62d28b68",
                                    "value": {
                                        "fields": [
                                            {
                                                "name": "isValue",
                                                "type": "bool",
                                                "value": {
                                                    "current": "true",
                                                    "prev": "false",
                                                    "typeTag": 1
                                                }
                                            },
                                            {
                                                "name": "lastDepositBlock",
                                                "type": "uint256",
                                                "value": {
                                                    "current": "19435187",
                                                    "prev": "0",
                                                    "typeTag": 1
                                                }
                                            }
                                        ],
                                        "typeTag": 3
                                    }
                                }
                            ],
                            "typeTag": 4
                        }
                    }
                ]
            }
        ]
    }
}