{
    "balance_change": {
        "balanceChanges": [
            {
                "account": "0x0005abcbb9533cf6f9370505ffef25393e0d2852",
                "assets": [
                    {
                        "address": "0xc02aaa39b223fe8d0a0e5c4f27ead9083c756cc2",
                        "amount": "45",
                        "iconUrl": "https://assets.blocksec.com/icon/f1cb2d02c471d545bbc7722daf3277fd852d98e63d118771af7047bd8256c516.png",
                        "isERC1155": false,
                        "isERC721": false,
                        "sign": false,
                        "value": ""
                    }
                ]
            },
            {
                "account": "0x14fbca95be7e99c15cc2996c6c9d841e54b79425",
                "assets": [
                    {
                        "address": "0xc02aaa39b223fe8d0a0e5c4f27ead9083c756cc2",
                        "amount": "45",
                        "iconUrl": "https://assets.blocksec.com/icon/f1cb2d02c471d545bbc7722daf3277fd852d98e63d118771af7047bd8256c516.png",
                        "isERC1155": false,
                        "isERC721": false,
                        "sign": true,
                        "value": ""
                    }
                ]
            }
        ]
    },
    "profile": {
        "basic_info": {
            "baseFee": "",
            "blockNumber": 6744662,
            "callData": "0x1b33d41200000000000000000000000000000000000000000000000270801d946c940000000000000000000000000000c02aaa39b223fe8d0a0e5c4f27ead9083c756cc200000000000000000000000000000000000000000000015d4fd17f660a63000000000000000000000000000089d24a6b4ccb1b6faa2625fe562bdd9a232603590000000000000000000000000000000000000000000000000000000000026009",
            "debugEnable": true,
            "errorInfo": "",
            "eventCount": 4,
            "feeRecipient": "0x829bd824b016326a401d083b33d092293333a830",
            "formatValue": "0",
            "gasLimit": 342225,
            "gasPrice": "16.5",
            "gasUsed": 242225,
            "intTxnCount": 1,
            "internalRevert": false,
            "internalRevertMessage": "",
            "isContractCreation": false,
            "isFlashloan": false,
            "maxFee": "",
            "nonce": 50193,
            "overwritedBlockNumber": -1,
            "priorityFee": "",
            "receiver": "0x14fbca95be7e99c15cc2996c6c9d841e54b79425",
            "revertMessage": "",
            "sender": "0x0005abcbb9533cf6f9370505ffef25393e0d2852",
            "simulationEnable": true,
            "sourceTxnHash": "0x98b2fabdbb5cb75bbe1745290fa5a335a689e89d54269ee0385d786de86e6b08",
            "status": true,
            "timestamp": "2018-11-21T08:48:07Z",
            "transactionFee": "0.0039967125",
            "txnHash": "0x98b2fabdbb5cb75bbe1745290fa5a335a689e89d54269ee0385d786de86e6b08",
            "txnIndex": 38,
            "type": 0,
            "value": "0"
        },
        "fund_flow": [
            {
                "amount": "45",
                "from": "0x0005abcbb9533cf6f9370505ffef25393e0d2852",
                "id": 1,
                "isERC1155": false,
                "isERC721": false,
                "isReverted": false,
                "order": 1,
                "to": "0x14fbca95be7e99c15cc2996c6c9d841e54b79425",
                "token": "0xc02aaa39b223fe8d0a0e5c4f27ead9083c756cc2"
            }
        ],
        "token_infos": [
            {
                "address": "0xc02aaa39b223fe8d0a0e5c4f27ead9083c756cc2",
                "decimals": 18
            },
            {
                "address": "0xeeeeeeeeeeeeeeeeeeeeeeeeeeeeeeeeeeeeeeee",
                "decimals": 18
            }
        ]
    },
    "address_label": {
        "labels": [
            {
                "address": "0x14fbca95be7e99c15cc2996c6c9d841e54b79425",
                "label": "OasisDex: Old Contract 1"
            },
            {
                "address": "0x0000000000000000000000000000000000000001",
                "label": "Precompiled"
            },
            {
                "address": "0x0000000000000000000000000000000000000002",
                "label": "Precompiled"
            },
            {
                "address": "0x0000000000000000000000000000000000000003",
                "label": "Precompiled"
            },
            {
                "address": "0x0000000000000000000000000000000000000004",
                "label": "Precompiled"
            },
            {
                "address": "0xeeeeeeeeeeeeeeeeeeeeeeeeeeeeeeeeeeeeeeee",
                "label": "Ether"
            },
            {
                "address": "0xc02aaa39b223fe8d0a0e5c4f27ead9083c756cc2",
                "label": "Wrapped Ether (WETH)"
            },
            {
                "address": "0x89d24a6b4ccb1b6faa2625fe562bdd9a23260359",
                "label": "Sai Stablecoin"
            }
        ]
    },
    "trace": {
        "accountLabels": null,
        "dataMap": {
            "-1": {
                "invocation": {
                    "address": "0x0005abcbb9533cf6f9370505ffef25393e0d2852",
                    "callData": "",
                    "decodedMethod": null,
                    "errorInfo": "",
                    "fromAddress": "",
                    "gasUsed": 0,
                    "id": -1,
                    "methodDecoded": false,
                    "operation": "",
                    "output": "",
                    "revert": false,
                    "revertMessage": "",
                    "selector": "",
                    "status": false,
                    "value": ""
                },
                "nodeType": 0
            },
            "0": {
                "invocation": {
                    "address": "0x14fbca95be7e99c15cc2996c6c9d841e54b79425",
                    "callData": "0x00000000000000000000000000000000000000000000000270801d946c940000000000000000000000000000c02aaa39b223fe8d0a0e5c4f27ead9083c756cc200000000000000000000000000000000000000000000015d4fd17f660a63000000000000000000000000000089d24a6b4ccb1b6faa2625fe562bdd9a232603590000000000000000000000000000000000000000000000000000000000026009",
                    "decodedMethod": {
                        "callParams": [
                            {
                                "name": "pay_amt",
                                "type": "uint256",
                                "value": "45,000,000,000,000,000,000"
                            },
                            {
                                "name": "pay_gem",
                                "type": "address",
                                "value": "0xc02aaa39b223fe8d0a0e5c4f27ead9083c756cc2"
                            },
                            {
                                "name": "buy_amt",
                                "type": "uint256",
                                "value": "6,443,665,200,000,000,000,000"
                            },
                            {
                                "name": "buy_gem",
                                "type": "address",
                                "value": "0x89d24a6b4ccb1b6faa2625fe562bdd9a23260359"
                            },
                            {
                                "name": "pos",
                                "type": "uint256",
                                "value": "155,657"
                            }
                        ],
                        "constructorArguments": "",
                        "name": "offer",
                        "returnParams": [
                            {
                                "name": "",
                                "type": "uint256",
                                "value": "155,666"
                            }
                        ],
                        "signature": "offer(uint256,address,uint256,address,uint256)"
                    },
                    "errorInfo": "",
                    "fromAddress": "0x0005abcbb9533cf6f9370505ffef25393e0d2852",
                    "gasUsed": 242225,
                    "id": 0,
                    "methodDecoded": true,
                    "operation": "CALL",
                    "output": "0x0000000000000000000000000000000000000000000000000000000000026012",
                    "revert": false,
                    "revertMessage": "",
                    "selector": "0x1b33d412",
                    "status": true,
                    "value": "0"
                },
                "nodeType": 0
            },
            "1": {
                "invocation": {
                    "address": "0xc02aaa39b223fe8d0a0e5c4f27ead9083c756cc2",
                    "callData": "0x0000000000000000000000000005abcbb9533cf6f9370505ffef25393e0d285200000000000000000000000014fbca95be7e99c15cc2996c6c9d841e54b7942500000000000000000000000000000000000000000000000270801d946c940000",
                    "decodedMethod": {
                        "callParams": [
                            {
                                "name": "src",
                                "type": "address",
                                "value": "0x0005abcbb9533cf6f9370505ffef25393e0d2852"
                            },
                            {
                                "name": "dst",
                                "type": "address",
                                "value": "0x14fbca95be7e99c15cc2996c6c9d841e54b79425"
                            },
                            {
                                "decimalAvailable": true,
                                "name": "wad",
                                "type": "uint256",
                                "value": "45,000,000,000,000,000,000"
                            }
                        ],
                        "constructorArguments": "",
                        "name": "transferFrom",
                        "returnParams": [
                            {
                                "name": "",
                                "type": "bool",
                                "value": true
                            }
                        ],
                        "signature": "transferFrom(address,address,uint256)"
                    },
                    "errorInfo": "",
                    "fromAddress": "0x14fbca95be7e99c15cc2996c6c9d841e54b79425",
                    "gasUsed": 13625,
                    "id": 1,
                    "methodDecoded": true,
                    "operation": "CALL",
                    "output": "0x0000000000000000000000000000000000000000000000000000000000000001",
                    "revert": false,
                    "revertMessage": "",
                    "selector": "0x23b872dd",
                    "status": true,
                    "value": "0"
                },
                "nodeType": 0
            },
            "2": {
                "event": {
                    "contract": "0xc02aaa39b223fe8d0a0e5c4f27ead9083c756cc2",
                    "decodedLog": {
                        "name": "Transfer",
                        "params": [
                            {
                                "name": "src",
                                "type": "address",
                                "value": "0x0005abcbb9533cf6f9370505ffef25393e0d2852"
                            },
                            {
                                "name": "dst",
                                "type": "address",
                                "value": "0x14fbca95be7e99c15cc2996c6c9d841e54b79425"
                            },
                            {
                                "decimalAvailable": true,
                                "name": "wad",
                                "type": "uint256",
                                "value": "45,000,000,000,000,000,000"
                            }
                        ],
                        "signature": "Transfer(address,address,uint256)"
                    },
                    "id": 2,
                    "logData": "0x00000000000000000000000000000000000000000000000270801d946c940000",
                    "logDecoded": true,
                    "operation": "EVENT",
                    "revert": false,
                    "status": true,
                    "topics": [
                        "0xddf252ad1be2c89b69c2b068fc378daa952ba7f163c4a11628f55a4df523b3ef",
                        "0x0000000000000000000000000005abcbb9533cf6f9370505ffef25393e0d2852",
                        "0x00000000000000000000000014fbca95be7e99c15cc2996c6c9d841e54b79425"
                    ]
                },
                "nodeType": 1
            },
            "3": {
                "event": {
                    "contract": "0x14fbca95be7e99c15cc2996c6c9d841e54b79425",
                    "decodedLog": {
                        "name": "LogItemUpdate",
                        "params": [
                            {
                                "name": "id",
                                "type": "uint256",
                                "value": "155,666"
                            }
                        ],
                        "signature": "LogItemUpdate(uint256)"
                    },
                    "id": 3,
                    "logData": "0x0000000000000000000000000000000000000000000000000000000000026012",
                    "logDecoded": true,
                    "operation": "EVENT",
                    "revert": false,
                    "status": true,
                    "topics": [
                        "0xa2c251311b1a7a475913900a2a73dc9789a21b04bc737e050bbc506dd4eb3488"
                    ]
                },
                "nodeType": 1
            },
            "4": {
                "event": {
                    "contract": "0x14fbca95be7e99c15cc2996c6c9d841e54b79425",
                    "decodedLog": {
                        "name": "LogMake",
                        "params": [
                            {
                                "name": "id",
                                "type": "bytes32",
                                "value": "0x0000000000000000000000000000000000000000000000000000000000026012"
                            },
                            {
                                "name": "pair",
                                "type": "bytes32",
                                "value": "0x9dd48110dcc444fdc242510c09bbbbe21a5975cac061d82f7b843bce061ba391"
                            },
                            {
                                "name": "maker",
                                "type": "address",
                                "value": "0x0005abcbb9533cf6f9370505ffef25393e0d2852"
                            },
                            {
                                "name": "pay_gem",
                                "type": "address",
                                "value": "0xc02aaa39b223fe8d0a0e5c4f27ead9083c756cc2"
                            },
                            {
                                "name": "buy_gem",
                                "type": "address",
                                "value": "0x89d24a6b4ccb1b6faa2625fe562bdd9a23260359"
                            },
                            {
                                "name": "pay_amt",
                                "type": "uint128",
                                "value": "45,000,000,000,000,000,000"
                            },
                            {
                                "name": "buy_amt",
                                "type": "uint128",
                                "value": "6,443,665,200,000,000,000,000"
                            },
                            {
                                "name": "timestamp",
                                "type": "uint64",
                                "value": "1,542,790,087"
                            }
                        ],
                        "signature": "LogMake(bytes32,bytes32,address,address,address,uint128,uint128,uint64)"
                    },
                    "id": 4,
                    "logData": "0x000000000000000000000000c02aaa39b223fe8d0a0e5c4f27ead9083c756cc200000000000000000000000089d24a6b4ccb1b6faa2625fe562bdd9a2326035900000000000000000000000000000000000000000000000270801d946c94000000000000000000000000000000000000000000000000015d4fd17f660a630000000000000000000000000000000000000000000000000000000000005bf51bc7",
                    "logDecoded": true,
                    "operation": "EVENT",
                    "revert": false,
                    "status": true,
                    "topics": [
                        "0x773ff502687307abfa024ac9f62f9752a0d210dac2ffd9a29e38e12e2ea82c82",
                        "0x0000000000000000000000000000000000000000000000000000000000026012",
                        "0x9dd48110dcc444fdc242510c09bbbbe21a5975cac061d82f7b843bce061ba391",
                        "0x0000000000000000000000000005abcbb9533cf6f9370505ffef25393e0d2852"
                    ]
                },
                "nodeType": 1
            },
            "5": {
                "event": {
                    "contract": "0x14fbca95be7e99c15cc2996c6c9d841e54b79425",
                    "decodedLog": {
                        "name": "LogSortedOffer",
                        "params": [
                            {
                                "name": "id",
                                "type": "uint256",
                                "value": "155,666"
                            }
                        ],
                        "signature": "LogSortedOffer(uint256)"
                    },
                    "id": 5,
                    "logData": "0x0000000000000000000000000000000000000000000000000000000000026012",
                    "logDecoded": true,
                    "operation": "EVENT",
                    "revert": false,
                    "status": true,
                    "topics": [
                        "0x20fb9bad86c18f7e22e8065258790d9416a7d2df8ff05f80f82c46d38b925acd"
                    ]
                },
                "nodeType": 1
            }
        },
        "gasFlame": [
            {
                "children": [
                    {
                        "children": [
                            {
                                "children": [],
                                "depth": 0,
                                "name": "Initial Gas",
                                "value": 25624
                            },
                            {
                                "children": [
                                    {
                                        "children": [],
                                        "depth": 1,
                                        "name": "transferFrom",
                                        "value": 13625
                                    }
                                ],
                                "depth": 0,
                                "name": "Executed Gas",
                                "value": 216601
                            }
                        ],
                        "depth": -1,
                        "name": "Actual Gas Used",
                        "value": 242225
                    },
                    {
                        "children": [],
                        "depth": -1,
                        "name": "Refunded Gas",
                        "value": 0
                    }
                ],
                "depth": -2,
                "name": "Total Gas",
                "value": 242225
            }
        ],
        "isConfirmed": true,
        "mainTrace": [
            {
                "children": [
                    {
                        "children": [
                            {
                                "children": [
                                    {
                                        "children": [],
                                        "depth": 2,
                                        "id": 2,
                                        "order": 2
                                    }
                                ],
                                "depth": 1,
                                "id": 1,
                                "order": 1
                            },
                            {
                                "children": [],
                                "depth": 1,
                                "id": 3,
                                "order": 3
                            },
                            {
                                "children": [],
                                "depth": 1,
                                "id": 4,
                                "order": 4
                            },
                            {
                                "children": [],
                                "depth": 1,
                                "id": 5,
                                "order": 5
                            }
                        ],
                        "depth": 0,
                        "id": 0,
                        "order": 0
                    }
                ],
                "depth": -1,
                "id": -1,
                "order": -1
            }
        ],
        "mainTraceNodeCount": 6,
        "parentIdMap": {
            "0": -1,
            "1": 0,
            "2": 1,
            "3": 0,
            "4": 0,
            "5": 0
        },
        "tidyTrace": [
            {
                "children": [
                    {
                        "children": [
                            {
                                "children": [
                                    {
                                        "children": [],
                                        "depth": 2,
                                        "id": 2,
                                        "order": 2
                                    }
                                ],
                                "depth": 1,
                                "id": 1,
                                "order": 1
                            },
                            {
                                "children": [],
                                "depth": 1,
                                "id": 3,
                                "order": 3
                            },
                            {
                                "children": [],
                                "depth": 1,
                                "id": 4,
                                "order": 4
                            },
                            {
                                "children": [],
                                "depth": 1,
                                "id": 5,
                                "order": 5
                            }
                        ],
                        "depth": 0,
                        "id": 0,
                        "order": 0
                    }
                ],
                "depth": -1,
                "id": -1,
                "order": -1
            }
        ],
        "tidyTraceNodeCount": 6
    },
    "state_change": {
        "stateChanges": [
            {
                "address": "0x14fbca95be7e99c15cc2996c6c9d841e54b79425",
                "erc": "",
                "slots": [
                    {
                        "current": "0x00000000000000000000000089d24a6b4ccb1b6faa2625fe562bdd9a23260359",
                        "key": "0x468f84f16b2c9e73e1390a53c402570e6a54eb67f91acde66023e9131acfe951",
                        "prev": "0x0000000000000000000000000000000000000000000000000000000000000000"
                    },
                    {
                        "current": "0x000000000000000000000000c02aaa39b223fe8d0a0e5c4f27ead9083c756cc2",
                        "key": "0x468f84f16b2c9e73e1390a53c402570e6a54eb67f91acde66023e9131acfe94f",
                        "prev": "0x0000000000000000000000000000000000000000000000000000000000000000"
                    },
                    {
                        "current": "0x0000000000000000000000000000000000000000000000000000000000026012",
                        "key": "0x8c07c9babdfd0bb897730af48caa55c54bd2fbbcd38cbb40bbccf88cef5cfd60",
                        "prev": "0x0000000000000000000000000000000000000000000000000000000000024ee3"
                    },
                    {
                        "current": "0x0000000000000000000000000000000000000000000000000000000000026012",
                        "key": "0x50f65035b64b446a931c4276bd8301d02afc2a401ff26adf32b24b5ef4cd77ac",
                        "prev": "0x000000000000000000000000000000000000000000000000000000000002600f"
                    },
                    {
                        "current": "0x0000000000000000000000000000000000000000000000000000000000024ee3",
                        "key": "0xb5c9cc63925bb87c4991e70d93c0da3a4cad6b5e7768c5f5dcabc32ab662423a",
                        "prev": "0x0000000000000000000000000000000000000000000000000000000000000000"
                    },
                    {
                        "current": "0x000000000000000000000000000000000000000000000000000000000000003f",
                        "key": "0xcc9bd740ec949c1c5f14f207591d901e2f99f59fc9709ff11e2a59fbbccfa000",
                        "prev": "0x000000000000000000000000000000000000000000000000000000000000003e"
                    },
                    {
                        "current": "0x00000000000000000000000000000000000000000000015d4fd17f660a630000",
                        "key": "0x468f84f16b2c9e73e1390a53c402570e6a54eb67f91acde66023e9131acfe950",
                        "prev": "0x0000000000000000000000000000000000000000000000000000000000000000"
                    },
                    {
                        "current": "0x00000000000000005bf51bc70005abcbb9533cf6f9370505ffef25393e0d2852",
                        "key": "0x468f84f16b2c9e73e1390a53c402570e6a54eb67f91acde66023e9131acfe952",
                        "prev": "0x0000000000000000000000000000000000000000000000000000000000000000"
                    },
                    {
                        "current": "0x0000000000000000000000000000000000000000000000000000000000026012",
                        "key": "0x0000000000000000000000000000000000000000000000000000000000000002",
                        "prev": "0x0000000000000000000000000000000000000000000000000000000000026011"
                    },
                    {
                        "current": "0x00000000000000000000000000000000000000000000000270801d946c940000",
                        "key": "0x468f84f16b2c9e73e1390a53c402570e6a54eb67f91acde66023e9131acfe94e",
                        "prev": "0x0000000000000000000000000000000000000000000000000000000000000000"
                    },
                    {
                        "current": "0x000000000000000000000000000000000000000000000000000000000002600f",
                        "key": "0xb5c9cc63925bb87c4991e70d93c0da3a4cad6b5e7768c5f5dcabc32ab6624239",
                        "prev": "0x0000000000000000000000000000000000000000000000000000000000000000"
                    }
                ],
                "storageVariables": [
                    {
                        "name": "_rank",
                        "type": "mapping(uint256 => struct MatchingMarket.sortInfo)",
                        "value": {
                            "pairs": [
                                {
                                    "key": "151267",
                                    "value": {
                                        "fields": [
                                            {
                                                "name": "next",
                                                "type": "uint256",
                                                "value": {
                                                    "current": "155666",
                                                    "prev": "155663",
                                                    "typeTag": 1
                                                }
                                            }
                                        ],
                                        "typeTag": 3
                                    }
                                },
                                {
                                    "key": "155663",
                                    "value": {
                                        "fields": [
                                            {
                                                "name": "prev",
                                                "type": "uint256",
                                                "value": {
                                                    "current": "155666",
                                                    "prev": "151267",
                                                    "typeTag": 1
                                                }
                                            }
                                        ],
                                        "typeTag": 3
                                    }
                                },
                                {
                                    "key": "155666",
                                    "value": {
                                        "fields": [
                                            {
                                                "name": "next",
                                                "type": "uint256",
                                                "value": {
                                                    "current": "155663",
                                                    "prev": "0",
                                                    "typeTag": 1
                                                }
                                            },
                                            {
                                                "name": "prev",
                                                "type": "uint256",
                                                "value": {
                                                    "current": "151267",
                                                    "prev": "0",
                                                    "typeTag": 1
                                                }
                                            }
                                        ],
                                        "typeTag": 3
                                    }
                                }
                            ],
                            "typeTag": 4
                        }
                    },
                    {
                        "name": "offers",
                        "type": "mapping(uint256 => struct SimpleMarket.OfferInfo)",
                        "value": {
                            "pairs": [
                                {
                                    "key": "155666",
                                    "value": {
                                        "fields": [
                                            {
                                                "name": "pay_amt",
                                                "type": "uint256",
                                                "value": {
                                                    "current": "45000000000000000000",
                                                    "prev": "0",
                                                    "typeTag": 1
                                                }
                                            },
                                            {
                                                "name": "pay_gem",
                                                "type": "contract ERC20",
                                                "value": {
                                                    "current": "0xc02aaa39b223fe8d0a0e5c4f27ead9083c756cc2",
                                                    "prev": "0x0000000000000000000000000000000000000000",
                                                    "typeTag": 1
                                                }
                                            },
                                            {
                                                "name": "buy_amt",
                                                "type": "uint256",
                                                "value": {
                                                    "current": "6443665200000000000000",
                                                    "prev": "0",
                                                    "typeTag": 1
                                                }
                                            },
                                            {
                                                "name": "buy_gem",
                                                "type": "contract ERC20",
                                                "value": {
                                                    "current": "0x89d24a6b4ccb1b6faa2625fe562bdd9a23260359",
                                                    "prev": "0x0000000000000000000000000000000000000000",
                                                    "typeTag": 1
                                                }
                                            },
                                            {
                                                "name": "owner",
                                                "type": "address",
                                                "value": {
                                                    "current": "0x0005abcbb9533cf6f9370505ffef25393e0d2852",
                                                    "prev": "0x0000000000000000000000000000000000000000",
                                                    "typeTag": 1
                                                }
                                            },
                                            {
                                                "name": "timestamp",
                                                "type": "uint64",
                                                "value": {
                                                    "current": "1542790087",
                                                    "prev": "0",
                                                    "typeTag": 1
                                                }
                                            }
                                        ],
                                        "typeTag": 3
                                    }
                                }
                            ],
                            "typeTag": 4
                        }
                    },
                    {
                        "name": "_span",
                        "type": "mapping(address => mapping(address => uint256))",
                        "value": {
                            "pairs": [
                                {
                                    "key": "0xc02aaa39b223fe8d0a0e5c4f27ead9083c756cc2",
                                    "value": {
                                        "pairs": [
                                            {
                                                "key": "0x89d24a6b4ccb1b6faa2625fe562bdd9a23260359",
                                                "value": {
                                                    "current": "63",
                                                    "prev": "62",
                                                    "typeTag": 1
                                                }
                                            }
                                        ],
                                        "typeTag": 4
                                    }
                                }
                            ],
                            "typeTag": 4
                        }
                    },
                    {
                        "name": "last_offer_id",
                        "type": "uint256",
                        "value": {
                            "current": "155666",
                            "prev": "155665",
                            "typeTag": 1
                        }
                    }
                ]
            },
            {
                "address": "0xc02aaa39b223fe8d0a0e5c4f27ead9083c756cc2",
                "erc": "ERC-20",
                "slots": [
                    {
                        "current": "0x000000000000000000000000000000000000000000000017ba2b38ada2c1de16",
                        "key": "0xbe7d54b788410e0c60694159d9b155a834d03174f6bf21027162c5cc3b163872",
                        "prev": "0x00000000000000000000000000000000000000000000001a2aab56420f55de16"
                    },
                    {
                        "current": "0x000000000000000000000000000000000000000000000149591e939d2de189db",
                        "key": "0x832e1a35f35565a2f1345ed8ea1974659286dba97b08d51eae6ca45f9e05ec02",
                        "prev": "0x000000000000000000000000000000000000000000000146e89e7608c14d89db"
                    }
                ],
                "storageVariables": [
                    {
                        "name": "balanceOf",
                        "type": "mapping(address => uint256)",
                        "value": {
                            "pairs": [
                                {
                                    "key": "0x0005abcbb9533cf6f9370505ffef25393e0d2852",
                                    "value": {
                                        "current": "437689991928783953430",
                                        "prev": "482689991928783953430",
                                        "typeTag": 1
                                    }
                                },
                                {
                                    "key": "0x14fbca95be7e99c15cc2996c6c9d841e54b79425",
                                    "value": {
                                        "current": "6075400532672408291803",
                                        "prev": "6030400532672408291803",
                                        "typeTag": 1
                                    }
                                }
                            ],
                            "typeTag": 4
                        }
                    }
                ]
            }
        ]
    }
}