{
    "balance_change": {
        "balanceChanges": [
            {
                "account": "0x95b564f3b3bae3f206aa418667ba000afafacc8a",
                "assets": [
                    {
                        "address": "0x4a220e6096b25eadb88358cb44068a3248254675",
                        "amount": "14.44639988",
                        "iconUrl": "https://assets.blocksec.com/icon/2517ae4798f8af07582abbcc7e22fbabe148d0b4c36e1004952431a198138ad8.png",
                        "isERC1155": false,
                        "isERC721": false,
                        "sign": false,
                        "value": "2024.9518711795998193"
                    }
                ]
            },
            {
                "account": "0x71cab70e2551e3fcd47194b767b58aaa25e06b69",
                "assets": [
                    {
                        "address": "0x4a220e6096b25eadb88358cb44068a3248254675",
                        "amount": "14.44639988",
                        "iconUrl": "https://assets.blocksec.com/icon/2517ae4798f8af07582abbcc7e22fbabe148d0b4c36e1004952431a198138ad8.png",
                        "isERC1155": false,
                        "isERC721": false,
                        "sign": true,
                        "value": "2024.9518711795998193"
                    }
                ]
            }
        ]
    },
    "profile": {
        "basic_info": {
            "baseFee": "31.03387509",
            "blockNumber": 16422409,
            "callData": "0xa9059cbb00000000000000000000000071cab70e2551e3fcd47194b767b58aaa25e06b69000000000000000000000000000000000000000000000000c87bec268aa55000",
            "debugEnable": true,
            "errorInfo": "",
            "eventCount": 1,
            "feeRecipient": "0x388c818ca8b9251b393131c08a736a67ccb19297",
            "formatValue": "0",
            "gasLimit": 250000,
            "gasPrice": "33.03387509",
            "gasUsed": 34857,
            "intTxnCount": 0,
            "internalRevert": false,
            "internalRevertMessage": "",
            "isContractCreation": false,
            "isFlashloan": false,
            "maxFee": "83.75948475",
            "nonce": 273799,
            "overwritedBlockNumber": -1,
            "priorityFee": "2",
            "receiver": "0x4a220e6096b25eadb88358cb44068a3248254675",
            "revertMessage": "",
            "sender": "0x95b564f3b3bae3f206aa418667ba000afafacc8a",
            "simulationEnable": true,
            "sourceTxnHash": "0x98bfa6974bbc534356461699de76d9c4c2c1f1945c5b788e997fed313b852327",
            "status": true,
            "timestamp": "2023-01-16T22:42:59Z",
            "transactionFee": "0.00115146178401213",
            "txnHash": "0x98bfa6974bbc534356461699de76d9c4c2c1f1945c5b788e997fed313b852327",
            "txnIndex": 25,
            "type": 2,
            "value": "0"
        },
        "fund_flow": [
            {
                "amount": "14.44639988",
                "from": "0x95b564f3b3bae3f206aa418667ba000afafacc8a",
                "id": 1,
                "isERC1155": false,
                "isERC721": false,
                "isReverted": false,
                "order": 1,
                "to": "0x71cab70e2551e3fcd47194b767b58aaa25e06b69",
                "token": "0x4a220e6096b25eadb88358cb44068a3248254675"
            }
        ],
        "token_infos": [
            {
                "address": "0x4a220e6096b25eadb88358cb44068a3248254675",
                "decimals": 18
            },
            {
                "address": "0xc02aaa39b223fe8d0a0e5c4f27ead9083c756cc2",
                "decimals": 18
            },
            {
                "address": "0xeeeeeeeeeeeeeeeeeeeeeeeeeeeeeeeeeeeeeeee",
                "decimals": 18
            }
        ]
    },
    "address_label": {
        "labels": [
            {
                "address": "0x95b564f3b3bae3f206aa418667ba000afafacc8a",
                "label": "Bitvavo: Hot 2"
            },
            {
                "address": "0x388c818ca8b9251b393131c08a736a67ccb19297",
                "label": "LidoExecutionLayerRewardsVault"
            },
            {
                "address": "0x0000000000000000000000000000000000000001",
                "label": "Precompiled"
            },
            {
                "address": "0x0000000000000000000000000000000000000002",
                "label": "Precompiled"
            },
            {
                "address": "0x0000000000000000000000000000000000000003",
                "label": "Precompiled"
            },
            {
                "address": "0x0000000000000000000000000000000000000004",
                "label": "Precompiled"
            },
            {
                "address": "0xeeeeeeeeeeeeeeeeeeeeeeeeeeeeeeeeeeeeeeee",
                "label": "Ether"
            },
            {
                "address": "0x4a220e6096b25eadb88358cb44068a3248254675",
                "label": "Quant: QNT Token"
            }
        ]
    },
    "trace": {
        "accountLabels": null,
        "dataMap": {
            "-1": {
                "invocation": {
                    "address": "0x95b564f3b3bae3f206aa418667ba000afafacc8a",
                    "callData": "",
                    "decodedMethod": null,
                    "errorInfo": "",
                    "fromAddress": "",
                    "gasUsed": 0,
                    "id": -1,
                    "methodDecoded": false,
                    "operation": "",
                    "output": "",
                    "revert": false,
                    "revertMessage": "",
                    "selector": "",
                    "status": false,
                    "value": ""
                },
                "nodeType": 0
            },
            "0": {
                "invocation": {
                    "address": "0x4a220e6096b25eadb88358cb44068a3248254675",
                    "callData": "0x00000000000000000000000071cab70e2551e3fcd47194b767b58aaa25e06b69000000000000000000000000000000000000000000000000c87bec268aa55000",
                    "decodedMethod": {
                        "callParams": [
                            {
                                "name": "_to",
                                "type": "address",
                                "value": "0x71cab70e2551e3fcd47194b767b58aaa25e06b69"
                            },
                            {
                                "decimalAvailable": true,
                                "name": "_value",
                                "type": "uint256",
                                "value": "14,446,399,880,000,000,000"
                            }
                        ],
                        "constructorArguments": "",
                        "name": "transfer",
                        "returnParams": [
                            {
                                "name": "",
                                "type": "bool",
                                "value": true
                            }
                        ],
                        "signature": "transfer(address,uint256)"
                    },
                    "errorInfo": "",
                    "fromAddress": "0x95b564f3b3bae3f206aa418667ba000afafacc8a",
                    "gasUsed": 34857,
                    "id": 0,
                    "methodDecoded": true,
                    "operation": "CALL",
                    "output": "0x0000000000000000000000000000000000000000000000000000000000000001",
                    "revert": false,
                    "revertMessage": "",
                    "selector": "0xa9059cbb",
                    "status": true,
                    "value": "0"
                },
                "nodeType": 0
            },
            "1": {
                "event": {
                    "contract": "0x4a220e6096b25eadb88358cb44068a3248254675",
                    "decodedLog": {
                        "name": "Transfer",
                        "params": [
                            {
                                "name": "from",
                                "type": "address",
                                "value": "0x95b564f3b3bae3f206aa418667ba000afafacc8a"
                            },
                            {
                                "name": "to",
                                "type": "address",
                                "value": "0x71cab70e2551e3fcd47194b767b58aaa25e06b69"
                            },
                            {
                                "decimalAvailable": true,
                                "name": "value",
                                "type": "uint256",
                                "value": "14,446,399,880,000,000,000"
                            }
                        ],
                        "signature": "Transfer(address,address,uint256)"
                    },
                    "id": 1,
                    "logData": "0x000000000000000000000000000000000000000000000000c87bec268aa55000",
                    "logDecoded": true,
                    "operation": "EVENT",
                    "revert": false,
                    "status": true,
                    "topics": [
                        "0xddf252ad1be2c89b69c2b068fc378daa952ba7f163c4a11628f55a4df523b3ef",
                        "0x00000000000000000000000095b564f3b3bae3f206aa418667ba000afafacc8a",
                        "0x00000000000000000000000071cab70e2551e3fcd47194b767b58aaa25e06b69"
                    ]
                },
                "nodeType": 1
            }
        },
        "gasFlame": [
            {
                "children": [
                    {
                        "children": [
                            {
                                "children": [],
                                "depth": 0,
                                "name": "Initial Gas",
                                "value": 21644
                            },
                            {
                                "children": [],
                                "depth": 0,
                                "name": "Executed Gas",
                                "value": 13213
                            }
                        ],
                        "depth": -1,
                        "name": "Actual Gas Used",
                        "value": 34857
                    },
                    {
                        "children": [],
                        "depth": -1,
                        "name": "Refunded Gas",
                        "value": 0
                    }
                ],
                "depth": -2,
                "name": "Total Gas",
                "value": 34857
            }
        ],
        "isConfirmed": true,
        "mainTrace": [
            {
                "children": [
                    {
                        "children": [
                            {
                                "children": [],
                                "depth": 1,
                                "id": 1,
                                "order": 1
                            }
                        ],
                        "depth": 0,
                        "id": 0,
                        "order": 0
                    }
                ],
                "depth": -1,
                "id": -1,
                "order": -1
            }
        ],
        "mainTraceNodeCount": 2,
        "parentIdMap": {
            "0": -1,
            "1": 0
        },
        "tidyTrace": [
            {
                "children": [
                    {
                        "children": [
                            {
                                "children": [],
                                "depth": 1,
                                "id": 1,
                                "order": 1
                            }
                        ],
                        "depth": 0,
                        "id": 0,
                        "order": 0
                    }
                ],
                "depth": -1,
                "id": -1,
                "order": -1
            }
        ],
        "tidyTraceNodeCount": 2
    },
    "state_change": {
        "stateChanges": [
            {
                "address": "0x4a220e6096b25eadb88358cb44068a3248254675",
                "erc": "ERC-20",
                "slots": [
                    {
                        "current": "0x0000000000000000000000000000000000000000000000a501c39df687c77961",
                        "key": "0x59d2b8842110e5d9e5a3c11b7ca2cffa43b22e96cca2a87097d9c6e3e6c2dba0",
                        "prev": "0x0000000000000000000000000000000000000000000000a5ca3f8a1d126cc961"
                    },
                    {
                        "current": "0x000000000000000000000000000000000000000000000000c9df319ee82f5000",
                        "key": "0x2cfd620f78bb7bd265a3f45738e728a9f31794da71717e20e8760329925dc08c",
                        "prev": "0x000000000000000000000000000000000000000000000000016345785d8a0000"
                    }
                ],
                "storageVariables": [
                    {
                        "name": "balances",
                        "type": "mapping(address => uint256)",
                        "value": {
                            "pairs": [
                                {
                                    "key": "0x71cab70e2551e3fcd47194b767b58aaa25e06b69",
                                    "value": {
                                        "current": "14546399880000000000",
                                        "prev": "100000000000000000",
                                        "typeTag": 1
                                    }
                                },
                                {
                                    "key": "0x95b564f3b3bae3f206aa418667ba000afafacc8a",
                                    "value": {
                                        "current": "3043839891058738035041",
                                        "prev": "3058286290938738035041",
                                        "typeTag": 1
                                    }
                                }
                            ],
                            "typeTag": 4
                        }
                    }
                ]
            }
        ]
    }
}