{
    "balance_change": {
        "balanceChanges": [
            {
                "account": "0xb64f5f385f32f5556d50bcd947248ffda66a9814",
                "assets": [
                    {
                        "address": "0x7d1afa7b718fb893db30a3abc0cfc608aacfebb0",
                        "amount": "800",
                        "iconUrl": "https://assets.blocksec.com/icon/5dc5187d80083e1e6ca5ca29581f660fdc3ebdf47eef117c3dfa3a0c07ab7d33.png",
                        "isERC1155": false,
                        "isERC721": false,
                        "sign": false,
                        "value": ""
                    },
                    {
                        "address": "0xa91ac63d040deb1b7a5e4d4134ad23eb0ba07e14",
                        "amount": "2.633351451020286485",
                        "iconUrl": "",
                        "isERC1155": false,
                        "isERC721": false,
                        "sign": true,
                        "value": "16.72822718"
                    }
                ]
            },
            {
                "account": "0x819f3450da6f110ba6ea52195b3beafa246062de",
                "assets": [
                    {
                        "address": "0x7d1afa7b718fb893db30a3abc0cfc608aacfebb0",
                        "amount": "800",
                        "iconUrl": "https://assets.blocksec.com/icon/5dc5187d80083e1e6ca5ca29581f660fdc3ebdf47eef117c3dfa3a0c07ab7d33.png",
                        "isERC1155": false,
                        "isERC721": false,
                        "sign": true,
                        "value": ""
                    },
                    {
                        "address": "0xc02aaa39b223fe8d0a0e5c4f27ead9083c756cc2",
                        "amount": "0.046182756544590038",
                        "iconUrl": "https://assets.blocksec.com/icon/f1cb2d02c471d545bbc7722daf3277fd852d98e63d118771af7047bd8256c516.png",
                        "isERC1155": false,
                        "isERC721": false,
                        "sign": false,
                        "value": "16.85485882"
                    }
                ]
            },
            {
                "account": "0x9e98deac1a416c9ce3c892bd8eef586f1291ca35",
                "assets": [
                    {
                        "address": "0xc02aaa39b223fe8d0a0e5c4f27ead9083c756cc2",
                        "amount": "0.046182756544590038",
                        "iconUrl": "https://assets.blocksec.com/icon/f1cb2d02c471d545bbc7722daf3277fd852d98e63d118771af7047bd8256c516.png",
                        "isERC1155": false,
                        "isERC721": false,
                        "sign": true,
                        "value": "16.85485882"
                    },
                    {
                        "address": "0xa91ac63d040deb1b7a5e4d4134ad23eb0ba07e14",
                        "amount": "2.633351451020286485",
                        "iconUrl": "",
                        "isERC1155": false,
                        "isERC721": false,
                        "sign": false,
                        "value": "16.72822718"
                    }
                ]
            }
        ]
    },
    "profile": {
        "basic_info": {
            "baseFee": "",
            "blockNumber": 10867567,
            "callData": "0x38ed173900000000000000000000000000000000000000000000002b5e3af16b1880000000000000000000000000000000000000000000000000000024823290e83102c800000000000000000000000000000000000000000000000000000000000000a0000000000000000000000000b64f5f385f32f5556d50bcd947248ffda66a9814000000000000000000000000000000000000000000000000000000005f60e7b300000000000000000000000000000000000000000000000000000000000000030000000000000000000000007d1afa7b718fb893db30a3abc0cfc608aacfebb0000000000000000000000000c02aaa39b223fe8d0a0e5c4f27ead9083c756cc2000000000000000000000000a91ac63d040deb1b7a5e4d4134ad23eb0ba07e14",
            "debugEnable": true,
            "errorInfo": "",
            "eventCount": 8,
            "feeRecipient": "0x8565fc13217af7482adb7180c5ef6c2c458842ce",
            "formatValue": "0",
            "gasLimit": 221380,
            "gasPrice": "200",
            "gasUsed": 175715,
            "intTxnCount": 11,
            "internalRevert": false,
            "internalRevertMessage": "",
            "isContractCreation": false,
            "isFlashloan": false,
            "maxFee": "",
            "nonce": 20,
            "overwritedBlockNumber": -1,
            "priorityFee": "",
            "receiver": "0x7a250d5630b4cf539739df2c5dacb4c659f2488d",
            "revertMessage": "",
            "sender": "0xb64f5f385f32f5556d50bcd947248ffda66a9814",
            "simulationEnable": true,
            "sourceTxnHash": "0x988ea5d32ecb1624b7a2cea556932c06483a77f991cd64839f500b848956137f",
            "status": true,
            "timestamp": "2020-09-15T15:51:39Z",
            "transactionFee": "0.035143",
            "txnHash": "0x988ea5d32ecb1624b7a2cea556932c06483a77f991cd64839f500b848956137f",
            "txnIndex": 149,
            "type": 0,
            "value": "0"
        },
        "fund_flow": [
            {
                "amount": "800",
                "from": "0xb64f5f385f32f5556d50bcd947248ffda66a9814",
                "id": 1,
                "isERC1155": false,
                "isERC721": false,
                "isReverted": false,
                "order": 1,
                "to": "0x819f3450da6f110ba6ea52195b3beafa246062de",
                "token": "0x7d1afa7b718fb893db30a3abc0cfc608aacfebb0"
            },
            {
                "amount": "0.046182756544590038",
                "from": "0x819f3450da6f110ba6ea52195b3beafa246062de",
                "id": 2,
                "isERC1155": false,
                "isERC721": false,
                "isReverted": false,
                "order": 2,
                "to": "0x9e98deac1a416c9ce3c892bd8eef586f1291ca35",
                "token": "0xc02aaa39b223fe8d0a0e5c4f27ead9083c756cc2"
            },
            {
                "amount": "2.633351451020286485",
                "from": "0x9e98deac1a416c9ce3c892bd8eef586f1291ca35",
                "id": 3,
                "isERC1155": false,
                "isERC721": false,
                "isReverted": false,
                "order": 3,
                "to": "0xb64f5f385f32f5556d50bcd947248ffda66a9814",
                "token": "0xa91ac63d040deb1b7a5e4d4134ad23eb0ba07e14"
            }
        ],
        "token_infos": [
            {
                "address": "0xa91ac63d040deb1b7a5e4d4134ad23eb0ba07e14",
                "decimals": 18
            },
            {
                "address": "0xc02aaa39b223fe8d0a0e5c4f27ead9083c756cc2",
                "decimals": 18
            },
            {
                "address": "0xeeeeeeeeeeeeeeeeeeeeeeeeeeeeeeeeeeeeeeee",
                "decimals": 18
            },
            {
                "address": "0x7d1afa7b718fb893db30a3abc0cfc608aacfebb0",
                "decimals": 18
            }
        ]
    },
    "address_label": {
        "labels": [
            {
                "address": "0x9e98deac1a416c9ce3c892bd8eef586f1291ca35",
                "label": "Uniswap V2: BEL 5"
            },
            {
                "address": "0x0000000000000000000000000000000000000002",
                "label": "Precompiled"
            },
            {
                "address": "0x0000000000000000000000000000000000000003",
                "label": "Precompiled"
            },
            {
                "address": "0xa91ac63d040deb1b7a5e4d4134ad23eb0ba07e14",
                "label": "Bella: BEL Token"
            },
            {
                "address": "0x7a250d5630b4cf539739df2c5dacb4c659f2488d",
                "label": "Uniswap V2: Router 2"
            },
            {
                "address": "0x7d1afa7b718fb893db30a3abc0cfc608aacfebb0",
                "label": "Polygon (Matic): Old Matic Token"
            },
            {
                "address": "0x0000000000000000000000000000000000000001",
                "label": "Precompiled"
            },
            {
                "address": "0x0000000000000000000000000000000000000004",
                "label": "Precompiled"
            },
            {
                "address": "0xeeeeeeeeeeeeeeeeeeeeeeeeeeeeeeeeeeeeeeee",
                "label": "Ether"
            },
            {
                "address": "0x819f3450da6f110ba6ea52195b3beafa246062de",
                "label": "Uniswap V2: MATIC"
            },
            {
                "address": "0xc02aaa39b223fe8d0a0e5c4f27ead9083c756cc2",
                "label": "Wrapped Ether (WETH)"
            }
        ]
    },
    "trace": {
        "accountLabels": null,
        "dataMap": {
            "-1": {
                "invocation": {
                    "address": "0xb64f5f385f32f5556d50bcd947248ffda66a9814",
                    "callData": "",
                    "decodedMethod": null,
                    "errorInfo": "",
                    "fromAddress": "",
                    "gasUsed": 0,
                    "id": -1,
                    "methodDecoded": false,
                    "operation": "",
                    "output": "",
                    "revert": false,
                    "revertMessage": "",
                    "selector": "",
                    "status": false,
                    "value": ""
                },
                "nodeType": 0
            },
            "0": {
                "invocation": {
                    "address": "0x7a250d5630b4cf539739df2c5dacb4c659f2488d",
                    "callData": "0x00000000000000000000000000000000000000000000002b5e3af16b1880000000000000000000000000000000000000000000000000000024823290e83102c800000000000000000000000000000000000000000000000000000000000000a0000000000000000000000000b64f5f385f32f5556d50bcd947248ffda66a9814000000000000000000000000000000000000000000000000000000005f60e7b300000000000000000000000000000000000000000000000000000000000000030000000000000000000000007d1afa7b718fb893db30a3abc0cfc608aacfebb0000000000000000000000000c02aaa39b223fe8d0a0e5c4f27ead9083c756cc2000000000000000000000000a91ac63d040deb1b7a5e4d4134ad23eb0ba07e14",
                    "decodedMethod": {
                        "callParams": [
                            {
                                "name": "amountIn",
                                "type": "uint256",
                                "value": "800,000,000,000,000,000,000"
                            },
                            {
                                "name": "amountOutMin",
                                "type": "uint256",
                                "value": "2,630,720,730,289,996,488"
                            },
                            {
                                "name": "path",
                                "type": "address[]",
                                "value": [
                                    "0x7d1afa7b718fb893db30a3abc0cfc608aacfebb0",
                                    "0xc02aaa39b223fe8d0a0e5c4f27ead9083c756cc2",
                                    "0xa91ac63d040deb1b7a5e4d4134ad23eb0ba07e14"
                                ]
                            },
                            {
                                "name": "to",
                                "type": "address",
                                "value": "0xb64f5f385f32f5556d50bcd947248ffda66a9814"
                            },
                            {
                                "name": "deadline",
                                "type": "uint256",
                                "value": "1,600,186,291"
                            }
                        ],
                        "constructorArguments": "",
                        "name": "swapExactTokensForTokens",
                        "returnParams": [
                            {
                                "name": "amounts",
                                "type": "uint256[]",
                                "value": [
                                    "800,000,000,000,000,000,000",
                                    "46,182,756,544,590,038",
                                    "2,633,351,451,020,286,485"
                                ]
                            }
                        ],
                        "signature": "swapExactTokensForTokens(uint256,uint256,address[],address,uint256)"
                    },
                    "errorInfo": "",
                    "fromAddress": "0xb64f5f385f32f5556d50bcd947248ffda66a9814",
                    "gasUsed": 175715,
                    "id": 0,
                    "methodDecoded": true,
                    "operation": "CALL",
                    "output": "0x0000000000000000000000000000000000000000000000000000000000000020000000000000000000000000000000000000000000000000000000000000000300000000000000000000000000000000000000000000002b5e3af16b1880000000000000000000000000000000000000000000000000000000a412f8ee96b0d6000000000000000000000000000000000000000000000000248b8b314ed2da15",
                    "revert": false,
                    "revertMessage": "",
                    "selector": "0x38ed1739",
                    "status": true,
                    "value": "0"
                },
                "nodeType": 0
            },
            "1": {
                "invocation": {
                    "address": "0x819f3450da6f110ba6ea52195b3beafa246062de",
                    "callData": "0x",
                    "decodedMethod": {
                        "callParams": [],
                        "constructorArguments": "",
                        "name": "getReserves",
                        "returnParams": [
                            {
                                "name": "_reserve0",
                                "type": "uint112",
                                "value": "1,847,207,087,236,926,443,102,204"
                            },
                            {
                                "name": "_reserve1",
                                "type": "uint112",
                                "value": "107,003,448,550,556,959,778"
                            },
                            {
                                "name": "_blockTimestampLast",
                                "type": "uint32",
                                "value": "1,600,184,372"
                            }
                        ],
                        "signature": "getReserves()"
                    },
                    "errorInfo": "",
                    "fromAddress": "0x7a250d5630b4cf539739df2c5dacb4c659f2488d",
                    "gasUsed": 1204,
                    "id": 1,
                    "methodDecoded": true,
                    "operation": "STATICCALL",
                    "output": "0x0000000000000000000000000000000000000000000187294bfe67634a2c1ffc000000000000000000000000000000000000000000000005ccf89d8735bc0422000000000000000000000000000000000000000000000000000000005f60e034",
                    "revert": false,
                    "revertMessage": "",
                    "selector": "0x0902f1ac",
                    "status": true,
                    "value": "0"
                },
                "nodeType": 0
            },
            "10": {
                "invocation": {
                    "address": "0xc02aaa39b223fe8d0a0e5c4f27ead9083c756cc2",
                    "callData": "0x000000000000000000000000819f3450da6f110ba6ea52195b3beafa246062de",
                    "decodedMethod": {
                        "callParams": [
                            {
                                "name": "",
                                "type": "address",
                                "value": "0x819f3450da6f110ba6ea52195b3beafa246062de"
                            }
                        ],
                        "constructorArguments": "",
                        "name": "balanceOf",
                        "returnParams": [
                            {
                                "decimalAvailable": true,
                                "name": "",
                                "type": "uint256",
                                "value": "106,957,265,794,012,369,740"
                            }
                        ],
                        "signature": "balanceOf(address)"
                    },
                    "errorInfo": "",
                    "fromAddress": "0x819f3450da6f110ba6ea52195b3beafa246062de",
                    "gasUsed": 1234,
                    "id": 10,
                    "methodDecoded": true,
                    "operation": "STATICCALL",
                    "output": "0x000000000000000000000000000000000000000000000005cc548a8e4725534c",
                    "revert": false,
                    "revertMessage": "",
                    "selector": "0x70a08231",
                    "status": true,
                    "value": "0"
                },
                "nodeType": 0
            },
            "11": {
                "event": {
                    "contract": "0x819f3450da6f110ba6ea52195b3beafa246062de",
                    "decodedLog": {
                        "name": "Sync",
                        "params": [
                            {
                                "name": "reserve0",
                                "type": "uint112",
                                "value": "1,848,007,087,236,926,443,102,204"
                            },
                            {
                                "name": "reserve1",
                                "type": "uint112",
                                "value": "106,957,265,794,012,369,740"
                            }
                        ],
                        "signature": "Sync(uint112,uint112)"
                    },
                    "id": 11,
                    "logData": "0x000000000000000000000000000000000000000000018754aa3958ce62ac1ffc000000000000000000000000000000000000000000000005cc548a8e4725534c",
                    "logDecoded": true,
                    "operation": "EVENT",
                    "revert": false,
                    "status": true,
                    "topics": [
                        "0x1c411e9a96e071241c2f21f7726b17ae89e3cab4c78be50e062b03a9fffbbad1"
                    ]
                },
                "nodeType": 1
            },
            "12": {
                "event": {
                    "contract": "0x819f3450da6f110ba6ea52195b3beafa246062de",
                    "decodedLog": {
                        "name": "Swap",
                        "params": [
                            {
                                "name": "sender",
                                "type": "address",
                                "value": "0x7a250d5630b4cf539739df2c5dacb4c659f2488d"
                            },
                            {
                                "name": "to",
                                "type": "address",
                                "value": "0x9e98deac1a416c9ce3c892bd8eef586f1291ca35"
                            },
                            {
                                "name": "amount0In",
                                "type": "uint256",
                                "value": "800,000,000,000,000,000,000"
                            },
                            {
                                "name": "amount1In",
                                "type": "uint256",
                                "value": "0"
                            },
                            {
                                "name": "amount0Out",
                                "type": "uint256",
                                "value": "0"
                            },
                            {
                                "name": "amount1Out",
                                "type": "uint256",
                                "value": "46,182,756,544,590,038"
                            }
                        ],
                        "signature": "Swap(address,uint256,uint256,uint256,uint256,address)"
                    },
                    "id": 12,
                    "logData": "0x00000000000000000000000000000000000000000000002b5e3af16b188000000000000000000000000000000000000000000000000000000000000000000000000000000000000000000000000000000000000000000000000000000000000000000000000000000000000000000000000000000000000000a412f8ee96b0d6",
                    "logDecoded": true,
                    "operation": "EVENT",
                    "revert": false,
                    "status": true,
                    "topics": [
                        "0xd78ad95fa46c994b6551d0da85fc275fe613ce37657fb8d5e3d130840159d822",
                        "0x0000000000000000000000007a250d5630b4cf539739df2c5dacb4c659f2488d",
                        "0x0000000000000000000000009e98deac1a416c9ce3c892bd8eef586f1291ca35"
                    ]
                },
                "nodeType": 1
            },
            "13": {
                "invocation": {
                    "address": "0x9e98deac1a416c9ce3c892bd8eef586f1291ca35",
                    "callData": "0x000000000000000000000000000000000000000000000000248b8b314ed2da150000000000000000000000000000000000000000000000000000000000000000000000000000000000000000b64f5f385f32f5556d50bcd947248ffda66a981400000000000000000000000000000000000000000000000000000000000000800000000000000000000000000000000000000000000000000000000000000000",
                    "decodedMethod": {
                        "callParams": [
                            {
                                "name": "amount0Out",
                                "type": "uint256",
                                "value": "2,633,351,451,020,286,485"
                            },
                            {
                                "name": "amount1Out",
                                "type": "uint256",
                                "value": "0"
                            },
                            {
                                "name": "to",
                                "type": "address",
                                "value": "0xb64f5f385f32f5556d50bcd947248ffda66a9814"
                            },
                            {
                                "name": "data",
                                "type": "bytes",
                                "value": "0x"
                            }
                        ],
                        "constructorArguments": "",
                        "name": "swap",
                        "returnParams": [],
                        "signature": "swap(uint256,uint256,address,bytes)"
                    },
                    "errorInfo": "",
                    "fromAddress": "0x7a250d5630b4cf539739df2c5dacb4c659f2488d",
                    "gasUsed": 73620,
                    "id": 13,
                    "methodDecoded": true,
                    "operation": "CALL",
                    "output": "",
                    "revert": false,
                    "revertMessage": "",
                    "selector": "0x022c0d9f",
                    "status": true,
                    "value": "0"
                },
                "nodeType": 0
            },
            "14": {
                "invocation": {
                    "address": "0xa91ac63d040deb1b7a5e4d4134ad23eb0ba07e14",
                    "callData": "0x000000000000000000000000b64f5f385f32f5556d50bcd947248ffda66a9814000000000000000000000000000000000000000000000000248b8b314ed2da15",
                    "decodedMethod": {
                        "callParams": [
                            {
                                "name": "to",
                                "type": "address",
                                "value": "0xb64f5f385f32f5556d50bcd947248ffda66a9814"
                            },
                            {
                                "decimalAvailable": true,
                                "name": "value",
                                "type": "uint256",
                                "value": "2,633,351,451,020,286,485"
                            }
                        ],
                        "constructorArguments": "",
                        "name": "transfer",
                        "returnParams": [
                            {
                                "name": "",
                                "type": "bool",
                                "value": true
                            }
                        ],
                        "signature": "transfer(address,uint256)"
                    },
                    "errorInfo": "",
                    "fromAddress": "0x9e98deac1a416c9ce3c892bd8eef586f1291ca35",
                    "gasUsed": 32172,
                    "id": 14,
                    "methodDecoded": true,
                    "operation": "CALL",
                    "output": "0x0000000000000000000000000000000000000000000000000000000000000001",
                    "revert": false,
                    "revertMessage": "",
                    "selector": "0xa9059cbb",
                    "status": true,
                    "value": "0"
                },
                "nodeType": 0
            },
            "15": {
                "event": {
                    "contract": "0xa91ac63d040deb1b7a5e4d4134ad23eb0ba07e14",
                    "decodedLog": {
                        "name": "Transfer",
                        "params": [
                            {
                                "name": "from",
                                "type": "address",
                                "value": "0x9e98deac1a416c9ce3c892bd8eef586f1291ca35"
                            },
                            {
                                "name": "to",
                                "type": "address",
                                "value": "0xb64f5f385f32f5556d50bcd947248ffda66a9814"
                            },
                            {
                                "decimalAvailable": true,
                                "name": "value",
                                "type": "uint256",
                                "value": "2,633,351,451,020,286,485"
                            }
                        ],
                        "signature": "Transfer(address,address,uint256)"
                    },
                    "id": 15,
                    "logData": "0x000000000000000000000000000000000000000000000000248b8b314ed2da15",
                    "logDecoded": true,
                    "operation": "EVENT",
                    "revert": false,
                    "status": true,
                    "topics": [
                        "0xddf252ad1be2c89b69c2b068fc378daa952ba7f163c4a11628f55a4df523b3ef",
                        "0x0000000000000000000000009e98deac1a416c9ce3c892bd8eef586f1291ca35",
                        "0x000000000000000000000000b64f5f385f32f5556d50bcd947248ffda66a9814"
                    ]
                },
                "nodeType": 1
            },
            "16": {
                "invocation": {
                    "address": "0xa91ac63d040deb1b7a5e4d4134ad23eb0ba07e14",
                    "callData": "0x0000000000000000000000009e98deac1a416c9ce3c892bd8eef586f1291ca35",
                    "decodedMethod": {
                        "callParams": [
                            {
                                "name": "owner",
                                "type": "address",
                                "value": "0x9e98deac1a416c9ce3c892bd8eef586f1291ca35"
                            }
                        ],
                        "constructorArguments": "",
                        "name": "balanceOf",
                        "returnParams": [
                            {
                                "decimalAvailable": true,
                                "name": "",
                                "type": "uint256",
                                "value": "3,429,087,899,321,036,276,411"
                            }
                        ],
                        "signature": "balanceOf(address)"
                    },
                    "errorInfo": "",
                    "fromAddress": "0x9e98deac1a416c9ce3c892bd8eef586f1291ca35",
                    "gasUsed": 1191,
                    "id": 16,
                    "methodDecoded": true,
                    "operation": "STATICCALL",
                    "output": "0x0000000000000000000000000000000000000000000000b9e4277c589cd182bb",
                    "revert": false,
                    "revertMessage": "",
                    "selector": "0x70a08231",
                    "status": true,
                    "value": "0"
                },
                "nodeType": 0
            },
            "17": {
                "invocation": {
                    "address": "0xc02aaa39b223fe8d0a0e5c4f27ead9083c756cc2",
                    "callData": "0x0000000000000000000000009e98deac1a416c9ce3c892bd8eef586f1291ca35",
                    "decodedMethod": {
                        "callParams": [
                            {
                                "name": "",
                                "type": "address",
                                "value": "0x9e98deac1a416c9ce3c892bd8eef586f1291ca35"
                            }
                        ],
                        "constructorArguments": "",
                        "name": "balanceOf",
                        "returnParams": [
                            {
                                "decimalAvailable": true,
                                "name": "",
                                "type": "uint256",
                                "value": "60,003,860,402,760,804,718"
                            }
                        ],
                        "signature": "balanceOf(address)"
                    },
                    "errorInfo": "",
                    "fromAddress": "0x9e98deac1a416c9ce3c892bd8eef586f1291ca35",
                    "gasUsed": 1234,
                    "id": 17,
                    "methodDecoded": true,
                    "operation": "STATICCALL",
                    "output": "0x00000000000000000000000000000000000000000000000340b8891f4aaf696e",
                    "revert": false,
                    "revertMessage": "",
                    "selector": "0x70a08231",
                    "status": true,
                    "value": "0"
                },
                "nodeType": 0
            },
            "18": {
                "event": {
                    "contract": "0x9e98deac1a416c9ce3c892bd8eef586f1291ca35",
                    "decodedLog": {
                        "name": "Sync",
                        "params": [
                            {
                                "name": "reserve0",
                                "type": "uint112",
                                "value": "3,429,087,899,321,036,276,411"
                            },
                            {
                                "name": "reserve1",
                                "type": "uint112",
                                "value": "60,003,860,402,760,804,718"
                            }
                        ],
                        "signature": "Sync(uint112,uint112)"
                    },
                    "id": 18,
                    "logData": "0x0000000000000000000000000000000000000000000000b9e4277c589cd182bb00000000000000000000000000000000000000000000000340b8891f4aaf696e",
                    "logDecoded": true,
                    "operation": "EVENT",
                    "revert": false,
                    "status": true,
                    "topics": [
                        "0x1c411e9a96e071241c2f21f7726b17ae89e3cab4c78be50e062b03a9fffbbad1"
                    ]
                },
                "nodeType": 1
            },
            "19": {
                "event": {
                    "contract": "0x9e98deac1a416c9ce3c892bd8eef586f1291ca35",
                    "decodedLog": {
                        "name": "Swap",
                        "params": [
                            {
                                "name": "sender",
                                "type": "address",
                                "value": "0x7a250d5630b4cf539739df2c5dacb4c659f2488d"
                            },
                            {
                                "name": "to",
                                "type": "address",
                                "value": "0xb64f5f385f32f5556d50bcd947248ffda66a9814"
                            },
                            {
                                "name": "amount0In",
                                "type": "uint256",
                                "value": "0"
                            },
                            {
                                "name": "amount1In",
                                "type": "uint256",
                                "value": "46,182,756,544,590,038"
                            },
                            {
                                "name": "amount0Out",
                                "type": "uint256",
                                "value": "2,633,351,451,020,286,485"
                            },
                            {
                                "name": "amount1Out",
                                "type": "uint256",
                                "value": "0"
                            }
                        ],
                        "signature": "Swap(address,uint256,uint256,uint256,uint256,address)"
                    },
                    "id": 19,
                    "logData": "0x000000000000000000000000000000000000000000000000000000000000000000000000000000000000000000000000000000000000000000a412f8ee96b0d6000000000000000000000000000000000000000000000000248b8b314ed2da150000000000000000000000000000000000000000000000000000000000000000",
                    "logDecoded": true,
                    "operation": "EVENT",
                    "revert": false,
                    "status": true,
                    "topics": [
                        "0xd78ad95fa46c994b6551d0da85fc275fe613ce37657fb8d5e3d130840159d822",
                        "0x0000000000000000000000007a250d5630b4cf539739df2c5dacb4c659f2488d",
                        "0x000000000000000000000000b64f5f385f32f5556d50bcd947248ffda66a9814"
                    ]
                },
                "nodeType": 1
            },
            "2": {
                "invocation": {
                    "address": "0x9e98deac1a416c9ce3c892bd8eef586f1291ca35",
                    "callData": "0x",
                    "decodedMethod": {
                        "callParams": [],
                        "constructorArguments": "",
                        "name": "getReserves",
                        "returnParams": [
                            {
                                "name": "_reserve0",
                                "type": "uint112",
                                "value": "3,431,721,250,772,056,562,896"
                            },
                            {
                                "name": "_reserve1",
                                "type": "uint112",
                                "value": "59,957,677,646,216,214,680"
                            },
                            {
                                "name": "_blockTimestampLast",
                                "type": "uint32",
                                "value": "1,600,185,039"
                            }
                        ],
                        "signature": "getReserves()"
                    },
                    "errorInfo": "",
                    "fromAddress": "0x7a250d5630b4cf539739df2c5dacb4c659f2488d",
                    "gasUsed": 1204,
                    "id": 2,
                    "methodDecoded": true,
                    "operation": "STATICCALL",
                    "output": "0x0000000000000000000000000000000000000000000000ba08b30789eba45cd0000000000000000000000000000000000000000000000003401476265c18b898000000000000000000000000000000000000000000000000000000005f60e2cf",
                    "revert": false,
                    "revertMessage": "",
                    "selector": "0x0902f1ac",
                    "status": true,
                    "value": "0"
                },
                "nodeType": 0
            },
            "3": {
                "invocation": {
                    "address": "0x7d1afa7b718fb893db30a3abc0cfc608aacfebb0",
                    "callData": "0x000000000000000000000000b64f5f385f32f5556d50bcd947248ffda66a9814000000000000000000000000819f3450da6f110ba6ea52195b3beafa246062de00000000000000000000000000000000000000000000002b5e3af16b18800000",
                    "decodedMethod": {
                        "callParams": [
                            {
                                "name": "from",
                                "type": "address",
                                "value": "0xb64f5f385f32f5556d50bcd947248ffda66a9814"
                            },
                            {
                                "name": "to",
                                "type": "address",
                                "value": "0x819f3450da6f110ba6ea52195b3beafa246062de"
                            },
                            {
                                "decimalAvailable": true,
                                "name": "value",
                                "type": "uint256",
                                "value": "800,000,000,000,000,000,000"
                            }
                        ],
                        "constructorArguments": "",
                        "name": "transferFrom",
                        "returnParams": [
                            {
                                "name": "",
                                "type": "bool",
                                "value": true
                            }
                        ],
                        "signature": "transferFrom(address,address,uint256)"
                    },
                    "errorInfo": "",
                    "fromAddress": "0x7a250d5630b4cf539739df2c5dacb4c659f2488d",
                    "gasUsed": 24761,
                    "id": 3,
                    "methodDecoded": true,
                    "operation": "CALL",
                    "output": "0x0000000000000000000000000000000000000000000000000000000000000001",
                    "revert": false,
                    "revertMessage": "",
                    "selector": "0x23b872dd",
                    "status": true,
                    "value": "0"
                },
                "nodeType": 0
            },
            "4": {
                "event": {
                    "contract": "0x7d1afa7b718fb893db30a3abc0cfc608aacfebb0",
                    "decodedLog": {
                        "name": "Transfer",
                        "params": [
                            {
                                "name": "from",
                                "type": "address",
                                "value": "0xb64f5f385f32f5556d50bcd947248ffda66a9814"
                            },
                            {
                                "name": "to",
                                "type": "address",
                                "value": "0x819f3450da6f110ba6ea52195b3beafa246062de"
                            },
                            {
                                "decimalAvailable": true,
                                "name": "value",
                                "type": "uint256",
                                "value": "800,000,000,000,000,000,000"
                            }
                        ],
                        "signature": "Transfer(address,address,uint256)"
                    },
                    "id": 4,
                    "logData": "0x00000000000000000000000000000000000000000000002b5e3af16b18800000",
                    "logDecoded": true,
                    "operation": "EVENT",
                    "revert": false,
                    "status": true,
                    "topics": [
                        "0xddf252ad1be2c89b69c2b068fc378daa952ba7f163c4a11628f55a4df523b3ef",
                        "0x000000000000000000000000b64f5f385f32f5556d50bcd947248ffda66a9814",
                        "0x000000000000000000000000819f3450da6f110ba6ea52195b3beafa246062de"
                    ]
                },
                "nodeType": 1
            },
            "5": {
                "event": {
                    "contract": "0x7d1afa7b718fb893db30a3abc0cfc608aacfebb0",
                    "decodedLog": {
                        "name": "Approval",
                        "params": [
                            {
                                "name": "owner",
                                "type": "address",
                                "value": "0xb64f5f385f32f5556d50bcd947248ffda66a9814"
                            },
                            {
                                "name": "spender",
                                "type": "address",
                                "value": "0x7a250d5630b4cf539739df2c5dacb4c659f2488d"
                            },
                            {
                                "decimalAvailable": true,
                                "name": "value",
                                "type": "uint256",
                                "value": "115,792,089,237,316,195,423,570,985,008,687,907,853,269,984,665,640,564,038,657,584,007,913,129,639,935"
                            }
                        ],
                        "signature": "Approval(address,address,uint256)"
                    },
                    "id": 5,
                    "logData": "0xffffffffffffffffffffffffffffffffffffffffffffffd4a1c50e94e77fffff",
                    "logDecoded": true,
                    "operation": "EVENT",
                    "revert": false,
                    "status": true,
                    "topics": [
                        "0x8c5be1e5ebec7d5bd14f71427d1e84f3dd0314c0f7b2291e5b200ac8c7c3b925",
                        "0x000000000000000000000000b64f5f385f32f5556d50bcd947248ffda66a9814",
                        "0x0000000000000000000000007a250d5630b4cf539739df2c5dacb4c659f2488d"
                    ]
                },
                "nodeType": 1
            },
            "6": {
                "invocation": {
                    "address": "0x819f3450da6f110ba6ea52195b3beafa246062de",
                    "callData": "0x000000000000000000000000000000000000000000000000000000000000000000000000000000000000000000000000000000000000000000a412f8ee96b0d60000000000000000000000009e98deac1a416c9ce3c892bd8eef586f1291ca3500000000000000000000000000000000000000000000000000000000000000800000000000000000000000000000000000000000000000000000000000000000",
                    "decodedMethod": {
                        "callParams": [
                            {
                                "name": "amount0Out",
                                "type": "uint256",
                                "value": "0"
                            },
                            {
                                "name": "amount1Out",
                                "type": "uint256",
                                "value": "46,182,756,544,590,038"
                            },
                            {
                                "name": "to",
                                "type": "address",
                                "value": "0x9e98deac1a416c9ce3c892bd8eef586f1291ca35"
                            },
                            {
                                "name": "data",
                                "type": "bytes",
                                "value": "0x"
                            }
                        ],
                        "constructorArguments": "",
                        "name": "swap",
                        "returnParams": [],
                        "signature": "swap(uint256,uint256,address,bytes)"
                    },
                    "errorInfo": "",
                    "fromAddress": "0x7a250d5630b4cf539739df2c5dacb4c659f2488d",
                    "gasUsed": 56750,
                    "id": 6,
                    "methodDecoded": true,
                    "operation": "CALL",
                    "output": "",
                    "revert": false,
                    "revertMessage": "",
                    "selector": "0x022c0d9f",
                    "status": true,
                    "value": "0"
                },
                "nodeType": 0
            },
            "7": {
                "invocation": {
                    "address": "0xc02aaa39b223fe8d0a0e5c4f27ead9083c756cc2",
                    "callData": "0x0000000000000000000000009e98deac1a416c9ce3c892bd8eef586f1291ca3500000000000000000000000000000000000000000000000000a412f8ee96b0d6",
                    "decodedMethod": {
                        "callParams": [
                            {
                                "name": "dst",
                                "type": "address",
                                "value": "0x9e98deac1a416c9ce3c892bd8eef586f1291ca35"
                            },
                            {
                                "decimalAvailable": true,
                                "name": "wad",
                                "type": "uint256",
                                "value": "46,182,756,544,590,038"
                            }
                        ],
                        "constructorArguments": "",
                        "name": "transfer",
                        "returnParams": [
                            {
                                "name": "",
                                "type": "bool",
                                "value": true
                            }
                        ],
                        "signature": "transfer(address,uint256)"
                    },
                    "errorInfo": "",
                    "fromAddress": "0x819f3450da6f110ba6ea52195b3beafa246062de",
                    "gasUsed": 15162,
                    "id": 7,
                    "methodDecoded": true,
                    "operation": "CALL",
                    "output": "0x0000000000000000000000000000000000000000000000000000000000000001",
                    "revert": false,
                    "revertMessage": "",
                    "selector": "0xa9059cbb",
                    "status": true,
                    "value": "0"
                },
                "nodeType": 0
            },
            "8": {
                "event": {
                    "contract": "0xc02aaa39b223fe8d0a0e5c4f27ead9083c756cc2",
                    "decodedLog": {
                        "name": "Transfer",
                        "params": [
                            {
                                "name": "src",
                                "type": "address",
                                "value": "0x819f3450da6f110ba6ea52195b3beafa246062de"
                            },
                            {
                                "name": "dst",
                                "type": "address",
                                "value": "0x9e98deac1a416c9ce3c892bd8eef586f1291ca35"
                            },
                            {
                                "decimalAvailable": true,
                                "name": "wad",
                                "type": "uint256",
                                "value": "46,182,756,544,590,038"
                            }
                        ],
                        "signature": "Transfer(address,address,uint256)"
                    },
                    "id": 8,
                    "logData": "0x00000000000000000000000000000000000000000000000000a412f8ee96b0d6",
                    "logDecoded": true,
                    "operation": "EVENT",
                    "revert": false,
                    "status": true,
                    "topics": [
                        "0xddf252ad1be2c89b69c2b068fc378daa952ba7f163c4a11628f55a4df523b3ef",
                        "0x000000000000000000000000819f3450da6f110ba6ea52195b3beafa246062de",
                        "0x0000000000000000000000009e98deac1a416c9ce3c892bd8eef586f1291ca35"
                    ]
                },
                "nodeType": 1
            },
            "9": {
                "invocation": {
                    "address": "0x7d1afa7b718fb893db30a3abc0cfc608aacfebb0",
                    "callData": "0x000000000000000000000000819f3450da6f110ba6ea52195b3beafa246062de",
                    "decodedMethod": {
                        "callParams": [
                            {
                                "name": "owner",
                                "type": "address",
                                "value": "0x819f3450da6f110ba6ea52195b3beafa246062de"
                            }
                        ],
                        "constructorArguments": "",
                        "name": "balanceOf",
                        "returnParams": [
                            {
                                "decimalAvailable": true,
                                "name": "",
                                "type": "uint256",
                                "value": "1,848,007,087,236,926,443,102,204"
                            }
                        ],
                        "signature": "balanceOf(address)"
                    },
                    "errorInfo": "",
                    "fromAddress": "0x819f3450da6f110ba6ea52195b3beafa246062de",
                    "gasUsed": 1331,
                    "id": 9,
                    "methodDecoded": true,
                    "operation": "STATICCALL",
                    "output": "0x000000000000000000000000000000000000000000018754aa3958ce62ac1ffc",
                    "revert": false,
                    "revertMessage": "",
                    "selector": "0x70a08231",
                    "status": true,
                    "value": "0"
                },
                "nodeType": 0
            }
        },
        "gasFlame": [
            {
                "children": [
                    {
                        "children": [
                            {
                                "children": [],
                                "depth": 0,
                                "name": "Initial Gas",
                                "value": 23428
                            },
                            {
                                "children": [
                                    {
                                        "children": [],
                                        "depth": 1,
                                        "name": "getReserves",
                                        "value": 1204
                                    },
                                    {
                                        "children": [],
                                        "depth": 1,
                                        "name": "getReserves",
                                        "value": 1204
                                    },
                                    {
                                        "children": [],
                                        "depth": 1,
                                        "name": "transferFrom",
                                        "value": 24761
                                    },
                                    {
                                        "children": [
                                            {
                                                "children": [],
                                                "depth": 2,
                                                "name": "transfer",
                                                "value": 15162
                                            },
                                            {
                                                "children": [],
                                                "depth": 2,
                                                "name": "balanceOf",
                                                "value": 1331
                                            },
                                            {
                                                "children": [],
                                                "depth": 2,
                                                "name": "balanceOf",
                                                "value": 1234
                                            }
                                        ],
                                        "depth": 1,
                                        "name": "swap",
                                        "value": 56750
                                    },
                                    {
                                        "children": [
                                            {
                                                "children": [],
                                                "depth": 2,
                                                "name": "transfer",
                                                "value": 32172
                                            },
                                            {
                                                "children": [],
                                                "depth": 2,
                                                "name": "balanceOf",
                                                "value": 1191
                                            },
                                            {
                                                "children": [],
                                                "depth": 2,
                                                "name": "balanceOf",
                                                "value": 1234
                                            }
                                        ],
                                        "depth": 1,
                                        "name": "swap",
                                        "value": 73620
                                    }
                                ],
                                "depth": 0,
                                "name": "Executed Gas",
                                "value": 175687
                            }
                        ],
                        "depth": -1,
                        "name": "Actual Gas Used",
                        "value": 175715
                    },
                    {
                        "children": [],
                        "depth": -1,
                        "name": "Refunded Gas",
                        "value": 23400
                    }
                ],
                "depth": -2,
                "name": "Total Gas",
                "value": 199115
            }
        ],
        "isConfirmed": true,
        "mainTrace": [
            {
                "children": [
                    {
                        "children": [
                            {
                                "children": [],
                                "depth": 1,
                                "id": 1,
                                "order": 1
                            },
                            {
                                "children": [],
                                "depth": 1,
                                "id": 2,
                                "order": 2
                            },
                            {
                                "children": [
                                    {
                                        "children": [],
                                        "depth": 2,
                                        "id": 4,
                                        "order": 4
                                    },
                                    {
                                        "children": [],
                                        "depth": 2,
                                        "id": 5,
                                        "order": 5
                                    }
                                ],
                                "depth": 1,
                                "id": 3,
                                "order": 3
                            },
                            {
                                "children": [
                                    {
                                        "children": [
                                            {
                                                "children": [],
                                                "depth": 3,
                                                "id": 8,
                                                "order": 8
                                            }
                                        ],
                                        "depth": 2,
                                        "id": 7,
                                        "order": 7
                                    },
                                    {
                                        "children": [],
                                        "depth": 2,
                                        "id": 9,
                                        "order": 9
                                    },
                                    {
                                        "children": [],
                                        "depth": 2,
                                        "id": 10,
                                        "order": 10
                                    },
                                    {
                                        "children": [],
                                        "depth": 2,
                                        "id": 11,
                                        "order": 11
                                    },
                                    {
                                        "children": [],
                                        "depth": 2,
                                        "id": 12,
                                        "order": 12
                                    }
                                ],
                                "depth": 1,
                                "id": 6,
                                "order": 6
                            },
                            {
                                "children": [
                                    {
                                        "children": [
                                            {
                                                "children": [],
                                                "depth": 3,
                                                "id": 15,
                                                "order": 15
                                            }
                                        ],
                                        "depth": 2,
                                        "id": 14,
                                        "order": 14
                                    },
                                    {
                                        "children": [],
                                        "depth": 2,
                                        "id": 16,
                                        "order": 16
                                    },
                                    {
                                        "children": [],
                                        "depth": 2,
                                        "id": 17,
                                        "order": 17
                                    },
                                    {
                                        "children": [],
                                        "depth": 2,
                                        "id": 18,
                                        "order": 18
                                    },
                                    {
                                        "children": [],
                                        "depth": 2,
                                        "id": 19,
                                        "order": 19
                                    }
                                ],
                                "depth": 1,
                                "id": 13,
                                "order": 13
                            }
                        ],
                        "depth": 0,
                        "id": 0,
                        "order": 0
                    }
                ],
                "depth": -1,
                "id": -1,
                "order": -1
            }
        ],
        "mainTraceNodeCount": 20,
        "parentIdMap": {
            "0": -1,
            "1": 0,
            "10": 6,
            "11": 6,
            "12": 6,
            "13": 0,
            "14": 13,
            "15": 14,
            "16": 13,
            "17": 13,
            "18": 13,
            "19": 13,
            "2": 0,
            "3": 0,
            "4": 3,
            "5": 3,
            "6": 0,
            "7": 6,
            "8": 7,
            "9": 6
        },
        "tidyTrace": [
            {
                "children": [
                    {
                        "children": [
                            {
                                "children": [
                                    {
                                        "children": [],
                                        "depth": 2,
                                        "id": 4,
                                        "order": 4
                                    },
                                    {
                                        "children": [],
                                        "depth": 2,
                                        "id": 5,
                                        "order": 5
                                    }
                                ],
                                "depth": 1,
                                "id": 3,
                                "order": 3
                            },
                            {
                                "children": [
                                    {
                                        "children": [
                                            {
                                                "children": [],
                                                "depth": 3,
                                                "id": 8,
                                                "order": 8
                                            }
                                        ],
                                        "depth": 2,
                                        "id": 7,
                                        "order": 7
                                    },
                                    {
                                        "children": [],
                                        "depth": 2,
                                        "id": 11,
                                        "order": 11
                                    },
                                    {
                                        "children": [],
                                        "depth": 2,
                                        "id": 12,
                                        "order": 12
                                    }
                                ],
                                "depth": 1,
                                "id": 6,
                                "order": 6
                            },
                            {
                                "children": [
                                    {
                                        "children": [
                                            {
                                                "children": [],
                                                "depth": 3,
                                                "id": 15,
                                                "order": 15
                                            }
                                        ],
                                        "depth": 2,
                                        "id": 14,
                                        "order": 14
                                    },
                                    {
                                        "children": [],
                                        "depth": 2,
                                        "id": 18,
                                        "order": 18
                                    },
                                    {
                                        "children": [],
                                        "depth": 2,
                                        "id": 19,
                                        "order": 19
                                    }
                                ],
                                "depth": 1,
                                "id": 13,
                                "order": 13
                            }
                        ],
                        "depth": 0,
                        "id": 0,
                        "order": 0
                    }
                ],
                "depth": -1,
                "id": -1,
                "order": -1
            }
        ],
        "tidyTraceNodeCount": 14
    },
    "state_change": {
        "stateChanges": [
            {
                "address": "0x7d1afa7b718fb893db30a3abc0cfc608aacfebb0",
                "erc": "ERC-20",
                "slots": [
                    {
                        "current": "0xffffffffffffffffffffffffffffffffffffffffffffffd4a1c50e94e77fffff",
                        "key": "0xdbb6e7af977e9d946b47ec6eb02633c61214ab658cfb3b8b8e60bc6530530f8a",
                        "prev": "0xffffffffffffffffffffffffffffffffffffffffffffffffffffffffffffffff"
                    },
                    {
                        "current": "0x0000000000000000000000000000000000000000000000000000000000000000",
                        "key": "0x4b6374808047dce79057726f495c0240fe49a3846b44436c57a4b4c7c0a92bda",
                        "prev": "0x00000000000000000000000000000000000000000000002b5e3af16b18800000"
                    },
                    {
                        "current": "0x000000000000000000000000000000000000000000018754aa3958ce62ac1ffc",
                        "key": "0x30b42b6465edfb5d785f640df67a445d9d11a09fa831f4afd124091188f0ec18",
                        "prev": "0x0000000000000000000000000000000000000000000187294bfe67634a2c1ffc"
                    }
                ],
                "storageVariables": [
                    {
                        "name": "_allowed",
                        "type": "mapping(address => mapping(address => uint256))",
                        "value": {
                            "pairs": [
                                {
                                    "key": "0xb64f5f385f32f5556d50bcd947248ffda66a9814",
                                    "value": {
                                        "pairs": [
                                            {
                                                "key": "0x7a250d5630b4cf539739df2c5dacb4c659f2488d",
                                                "value": {
                                                    "current": "115792089237316195423570985008687907853269984665640564038657584007913129639935",
                                                    "prev": "115792089237316195423570985008687907853269984665640564039457584007913129639935",
                                                    "typeTag": 1
                                                }
                                            }
                                        ],
                                        "typeTag": 4
                                    }
                                }
                            ],
                            "typeTag": 4
                        }
                    },
                    {
                        "name": "_balances",
                        "type": "mapping(address => uint256)",
                        "value": {
                            "pairs": [
                                {
                                    "key": "0x819f3450da6f110ba6ea52195b3beafa246062de",
                                    "value": {
                                        "current": "1848007087236926443102204",
                                        "prev": "1847207087236926443102204",
                                        "typeTag": 1
                                    }
                                },
                                {
                                    "key": "0xb64f5f385f32f5556d50bcd947248ffda66a9814",
                                    "value": {
                                        "current": "0",
                                        "prev": "800000000000000000000",
                                        "typeTag": 1
                                    }
                                }
                            ],
                            "typeTag": 4
                        }
                    }
                ]
            },
            {
                "address": "0x819f3450da6f110ba6ea52195b3beafa246062de",
                "erc": "ERC-20",
                "slots": [
                    {
                        "current": "0x5f60e30b000000000005cc548a8e4725534c000000018754aa3958ce62ac1ffc",
                        "key": "0x0000000000000000000000000000000000000000000000000000000000000008",
                        "prev": "0x5f60e034000000000005ccf89d8735bc04220000000187294bfe67634a2c1ffc"
                    },
                    {
                        "current": "0x0000000000000000000000000000000003345fde511dd545033667a16ee65018",
                        "key": "0x0000000000000000000000000000000000000000000000000000000000000009",
                        "prev": "0x00000000000000000000000000000000033455166589a3d475adc8d6c0cd0ac8"
                    },
                    {
                        "current": "0x0000000000000000000000000020151f830613b594ac4e038368ad1cfd4ce059",
                        "key": "0x000000000000000000000000000000000000000000000000000000000000000a",
                        "prev": "0x0000000000000000000000000020146002a08ab38fce4886f1924efb177f4b31"
                    }
                ],
                "storageVariables": [
                    {
                        "name": "reserve0",
                        "type": "uint112",
                        "value": {
                            "current": "1848007087236926443102204",
                            "prev": "1847207087236926443102204",
                            "typeTag": 1
                        }
                    },
                    {
                        "name": "reserve1",
                        "type": "uint112",
                        "value": {
                            "current": "106957265794012369740",
                            "prev": "107003448550556959778",
                            "typeTag": 1
                        }
                    },
                    {
                        "name": "blockTimestampLast",
                        "type": "uint32",
                        "value": {
                            "current": "1600185099",
                            "prev": "1600184372",
                            "typeTag": 1
                        }
                    },
                    {
                        "name": "price0CumulativeLast",
                        "type": "uint256",
                        "value": {
                            "current": "4259627866667335512183681252657090584",
                            "prev": "4259409203258826855365631579110836936",
                            "typeTag": 1
                        }
                    },
                    {
                        "name": "price1CumulativeLast",
                        "type": "uint256",
                        "value": {
                            "current": "715463927271342435868247334907889442179833945",
                            "prev": "715398762670876243362103719835032448709643057",
                            "typeTag": 1
                        }
                    }
                ]
            },
            {
                "address": "0x9e98deac1a416c9ce3c892bd8eef586f1291ca35",
                "erc": "ERC-20",
                "slots": [
                    {
                        "current": "0x00000000000000000000000000000000021509f60a383d58c231a20ee07a8eec",
                        "key": "0x0000000000000000000000000000000000000000000000000000000000000009",
                        "prev": "0x000000000000000000000000000000000213fd98e4ea12c6fa93030e51233a7c"
                    },
                    {
                        "current": "0x0000000000000000000000000000000e89f037eaa8e5df56c39e034dcf578a39",
                        "key": "0x000000000000000000000000000000000000000000000000000000000000000a",
                        "prev": "0x0000000000000000000000000000000e7c861327986b101864b45cd1197ea9c1"
                    },
                    {
                        "current": "0x5f60e30b00000000000340b8891f4aaf696e0000000000b9e4277c589cd182bb",
                        "key": "0x0000000000000000000000000000000000000000000000000000000000000008",
                        "prev": "0x5f60e2cf000000000003401476265c18b8980000000000ba08b30789eba45cd0"
                    }
                ],
                "storageVariables": [
                    {
                        "name": "price1CumulativeLast",
                        "type": "uint256",
                        "value": {
                            "current": "4947304657685909931236560803823397341753",
                            "prev": "4929473564652363683630972213577580980673",
                            "typeTag": 1
                        }
                    },
                    {
                        "name": "reserve0",
                        "type": "uint112",
                        "value": {
                            "current": "3429087899321036276411",
                            "prev": "3431721250772056562896",
                            "typeTag": 1
                        }
                    },
                    {
                        "name": "reserve1",
                        "type": "uint112",
                        "value": {
                            "current": "60003860402760804718",
                            "prev": "59957677646216214680",
                            "typeTag": 1
                        }
                    },
                    {
                        "name": "blockTimestampLast",
                        "type": "uint32",
                        "value": {
                            "current": "1600185099",
                            "prev": "1600185039",
                            "typeTag": 1
                        }
                    },
                    {
                        "name": "price0CumulativeLast",
                        "type": "uint256",
                        "value": {
                            "current": "2767696260576314145841565238373813996",
                            "prev": "2762253195037979065710562259392215676",
                            "typeTag": 1
                        }
                    }
                ]
            },
            {
                "address": "0xa91ac63d040deb1b7a5e4d4134ad23eb0ba07e14",
                "erc": "ERC-20",
                "slots": [
                    {
                        "current": "0x0000000000000000000000000000000000000000000000b9e4277c589cd182bb",
                        "key": "0x45b47b63bbd70d1c5a3755dc57b00dc8c2708017de78bfb5c6f2fbe930b42cae",
                        "prev": "0x0000000000000000000000000000000000000000000000ba08b30789eba45cd0"
                    },
                    {
                        "current": "0x000000000000000000000000000000000000000000000000248b8b314ed2da15",
                        "key": "0x4b6374808047dce79057726f495c0240fe49a3846b44436c57a4b4c7c0a92bda",
                        "prev": "0x0000000000000000000000000000000000000000000000000000000000000000"
                    }
                ],
                "storageVariables": [
                    {
                        "name": "_balances",
                        "type": "mapping(address => uint256)",
                        "value": {
                            "pairs": [
                                {
                                    "key": "0x9e98deac1a416c9ce3c892bd8eef586f1291ca35",
                                    "value": {
                                        "current": "3429087899321036276411",
                                        "prev": "3431721250772056562896",
                                        "typeTag": 1
                                    }
                                },
                                {
                                    "key": "0xb64f5f385f32f5556d50bcd947248ffda66a9814",
                                    "value": {
                                        "current": "2633351451020286485",
                                        "prev": "0",
                                        "typeTag": 1
                                    }
                                }
                            ],
                            "typeTag": 4
                        }
                    }
                ]
            },
            {
                "address": "0xc02aaa39b223fe8d0a0e5c4f27ead9083c756cc2",
                "erc": "ERC-20",
                "slots": [
                    {
                        "current": "0x000000000000000000000000000000000000000000000005cc548a8e4725534c",
                        "key": "0xacf950720d90965f4f3af49c5c6ef227acd601326d701fa496d86420fdb445b2",
                        "prev": "0x000000000000000000000000000000000000000000000005ccf89d8735bc0422"
                    },
                    {
                        "current": "0x00000000000000000000000000000000000000000000000340b8891f4aaf696e",
                        "key": "0x1bc55523f52519c97ad98ee6cc9e0db226d7cd2941f019de588d8a3aa0ed5cd2",
                        "prev": "0x000000000000000000000000000000000000000000000003401476265c18b898"
                    }
                ],
                "storageVariables": [
                    {
                        "name": "balanceOf",
                        "type": "mapping(address => uint256)",
                        "value": {
                            "pairs": [
                                {
                                    "key": "0x819f3450da6f110ba6ea52195b3beafa246062de",
                                    "value": {
                                        "current": "106957265794012369740",
                                        "prev": "107003448550556959778",
                                        "typeTag": 1
                                    }
                                },
                                {
                                    "key": "0x9e98deac1a416c9ce3c892bd8eef586f1291ca35",
                                    "value": {
                                        "current": "60003860402760804718",
                                        "prev": "59957677646216214680",
                                        "typeTag": 1
                                    }
                                }
                            ],
                            "typeTag": 4
                        }
                    }
                ]
            }
        ]
    }
}