{
    "balance_change": {
        "balanceChanges": [
            {
                "account": "0x21a9e21252875165f181dc173d28f386451e8b1b",
                "assets": [
                    {
                        "address": "0xc02aaa39b223fe8d0a0e5c4f27ead9083c756cc2",
                        "amount": "3.573018873943353261",
                        "iconUrl": "https://assets.blocksec.com/icon/f1cb2d02c471d545bbc7722daf3277fd852d98e63d118771af7047bd8256c516.png",
                        "isERC1155": false,
                        "isERC721": false,
                        "sign": false,
                        "value": "4403.673718"
                    },
                    {
                        "address": "0x69a95185ee2a045cdc4bcd1b1df10710395e4e23",
                        "amount": "651.9084",
                        "iconUrl": "https://assets.blocksec.com/icon/03bd8e4fcfe8f9f205d1aee94ea7f37b4186965a2a691169ce7aba7c292421e9.png",
                        "isERC1155": false,
                        "isERC721": false,
                        "sign": true,
                        "value": "4403.673718"
                    }
                ]
            },
            {
                "account": "0x70a3944215de6fa1463a098ba182634df90bb9f4",
                "assets": [
                    {
                        "address": "0xc02aaa39b223fe8d0a0e5c4f27ead9083c756cc2",
                        "amount": "3.456201415569868808",
                        "iconUrl": "https://assets.blocksec.com/icon/f1cb2d02c471d545bbc7722daf3277fd852d98e63d118771af7047bd8256c516.png",
                        "isERC1155": false,
                        "isERC721": false,
                        "sign": true,
                        "value": "4259.698556"
                    },
                    {
                        "address": "0x69a95185ee2a045cdc4bcd1b1df10710395e4e23",
                        "amount": "651.9084",
                        "iconUrl": "https://assets.blocksec.com/icon/03bd8e4fcfe8f9f205d1aee94ea7f37b4186965a2a691169ce7aba7c292421e9.png",
                        "isERC1155": false,
                        "isERC721": false,
                        "sign": false,
                        "value": "4403.673718"
                    }
                ]
            },
            {
                "account": "0xefacb3fb194d5e80e569b3ac50669cf22e48f63b",
                "assets": [
                    {
                        "address": "0xc02aaa39b223fe8d0a0e5c4f27ead9083c756cc2",
                        "amount": "0.116817458373484453",
                        "iconUrl": "https://assets.blocksec.com/icon/f1cb2d02c471d545bbc7722daf3277fd852d98e63d118771af7047bd8256c516.png",
                        "isERC1155": false,
                        "isERC721": false,
                        "sign": true,
                        "value": "143.975162"
                    }
                ]
            }
        ]
    },
    "profile": {
        "basic_info": {
            "baseFee": "",
            "blockNumber": 11681775,
            "callData": "0xa5d754d100000000000000000000000069a95185ee2a045cdc4bcd1b1df10710395e4e2300000000000000000000000070a3944215de6fa1463a098ba182634df90bb9f400000000000000000000000000000000000000000000002a3bc1e141678c4ff5",
            "debugEnable": true,
            "errorInfo": "",
            "eventCount": 5,
            "feeRecipient": "0x04668ec2f57cc15c381b461b9fedab5d451c8f7f",
            "formatValue": "0",
            "gasLimit": 350000,
            "gasPrice": "78",
            "gasUsed": 90458,
            "intTxnCount": 9,
            "internalRevert": false,
            "internalRevertMessage": "",
            "isContractCreation": false,
            "isFlashloan": false,
            "maxFee": "",
            "nonce": 935,
            "overwritedBlockNumber": -1,
            "priorityFee": "",
            "receiver": "0x21a9e21252875165f181dc173d28f386451e8b1b",
            "revertMessage": "",
            "sender": "0xb9ce805e792ac6ab5055054d1a43954b8d1647c9",
            "simulationEnable": true,
            "sourceTxnHash": "0x980ea088965058432b0009278afa12475422dd537cb260c8e2393a0bc5a6e4e9",
            "status": true,
            "timestamp": "2021-01-18T21:54:03Z",
            "transactionFee": "0.007055724",
            "txnHash": "0x980ea088965058432b0009278afa12475422dd537cb260c8e2393a0bc5a6e4e9",
            "txnIndex": 16,
            "type": 0,
            "value": "0"
        },
        "fund_flow": [
            {
                "amount": "0.116817458373484453",
                "from": "0x21a9e21252875165f181dc173d28f386451e8b1b",
                "id": 1,
                "isERC1155": false,
                "isERC721": false,
                "isReverted": false,
                "order": 1,
                "to": "0xefacb3fb194d5e80e569b3ac50669cf22e48f63b",
                "token": "0xc02aaa39b223fe8d0a0e5c4f27ead9083c756cc2"
            },
            {
                "amount": "3.456201415569868808",
                "from": "0x21a9e21252875165f181dc173d28f386451e8b1b",
                "id": 2,
                "isERC1155": false,
                "isERC721": false,
                "isReverted": false,
                "order": 2,
                "to": "0x70a3944215de6fa1463a098ba182634df90bb9f4",
                "token": "0xc02aaa39b223fe8d0a0e5c4f27ead9083c756cc2"
            },
            {
                "amount": "651.9084",
                "from": "0x70a3944215de6fa1463a098ba182634df90bb9f4",
                "id": 3,
                "isERC1155": false,
                "isERC721": false,
                "isReverted": false,
                "order": 3,
                "to": "0x21a9e21252875165f181dc173d28f386451e8b1b",
                "token": "0x69a95185ee2a045cdc4bcd1b1df10710395e4e23"
            }
        ],
        "token_infos": [
            {
                "address": "0x69a95185ee2a045cdc4bcd1b1df10710395e4e23",
                "decimals": 18
            },
            {
                "address": "0xc02aaa39b223fe8d0a0e5c4f27ead9083c756cc2",
                "decimals": 18
            },
            {
                "address": "0xeeeeeeeeeeeeeeeeeeeeeeeeeeeeeeeeeeeeeeee",
                "decimals": 18
            }
        ]
    },
    "address_label": {
        "labels": [
            {
                "address": "0x69a95185ee2a045cdc4bcd1b1df10710395e4e23",
                "label": "Poolz Finance: POOLZ Token"
            },
            {
                "address": "0xc02aaa39b223fe8d0a0e5c4f27ead9083c756cc2",
                "label": "Wrapped Ether (WETH)"
            },
            {
                "address": "0x70a3944215de6fa1463a098ba182634df90bb9f4",
                "label": "Uniswap V2: POOLZ 9"
            },
            {
                "address": "0x0000000000000000000000000000000000000001",
                "label": "Precompiled"
            },
            {
                "address": "0x0000000000000000000000000000000000000002",
                "label": "Precompiled"
            },
            {
                "address": "0x0000000000000000000000000000000000000003",
                "label": "Precompiled"
            },
            {
                "address": "0x0000000000000000000000000000000000000004",
                "label": "Precompiled"
            },
            {
                "address": "0xeeeeeeeeeeeeeeeeeeeeeeeeeeeeeeeeeeeeeeee",
                "label": "Ether"
            }
        ]
    },
    "trace": {
        "accountLabels": null,
        "dataMap": {
            "-1": {
                "invocation": {
                    "address": "0xb9ce805e792ac6ab5055054d1a43954b8d1647c9",
                    "callData": "",
                    "decodedMethod": null,
                    "errorInfo": "",
                    "fromAddress": "",
                    "gasUsed": 0,
                    "id": -1,
                    "methodDecoded": false,
                    "operation": "",
                    "output": "",
                    "revert": false,
                    "revertMessage": "",
                    "selector": "",
                    "status": false,
                    "value": ""
                },
                "nodeType": 0
            },
            "0": {
                "invocation": {
                    "address": "0x21a9e21252875165f181dc173d28f386451e8b1b",
                    "callData": "0x00000000000000000000000069a95185ee2a045cdc4bcd1b1df10710395e4e2300000000000000000000000070a3944215de6fa1463a098ba182634df90bb9f400000000000000000000000000000000000000000000002a3bc1e141678c4ff5",
                    "decodedMethod": {
                        "callParams": [
                            {
                                "name": "_uniV3Router",
                                "type": "address",
                                "value": "0x69a95185ee2a045cdc4bcd1b1df10710395e4e23"
                            }
                        ],
                        "constructorArguments": "",
                        "name": "updateUniV3Router",
                        "returnParams": [],
                        "signature": "updateUniV3Router(address)"
                    },
                    "errorInfo": "",
                    "fromAddress": "0xb9ce805e792ac6ab5055054d1a43954b8d1647c9",
                    "gasUsed": 90458,
                    "id": 0,
                    "methodDecoded": true,
                    "operation": "CALL",
                    "output": "",
                    "revert": false,
                    "revertMessage": "",
                    "selector": "0xa5d754d1",
                    "status": true,
                    "value": "0"
                },
                "nodeType": 0
            },
            "1": {
                "invocation": {
                    "address": "0xc02aaa39b223fe8d0a0e5c4f27ead9083c756cc2",
                    "callData": "0x00000000000000000000000021a9e21252875165f181dc173d28f386451e8b1b",
                    "decodedMethod": {
                        "callParams": [
                            {
                                "name": "",
                                "type": "address",
                                "value": "0x21a9e21252875165f181dc173d28f386451e8b1b"
                            }
                        ],
                        "constructorArguments": "",
                        "name": "balanceOf",
                        "returnParams": [
                            {
                                "decimalAvailable": true,
                                "name": "",
                                "type": "uint256",
                                "value": "3,573,018,873,943,353,261"
                            }
                        ],
                        "signature": "balanceOf(address)"
                    },
                    "errorInfo": "",
                    "fromAddress": "0x21a9e21252875165f181dc173d28f386451e8b1b",
                    "gasUsed": 1234,
                    "id": 1,
                    "methodDecoded": true,
                    "operation": "STATICCALL",
                    "output": "0x0000000000000000000000000000000000000000000000003195e9bc3528e7ad",
                    "revert": false,
                    "revertMessage": "",
                    "selector": "0x70a08231",
                    "status": true,
                    "value": "0"
                },
                "nodeType": 0
            },
            "10": {
                "event": {
                    "contract": "0x69a95185ee2a045cdc4bcd1b1df10710395e4e23",
                    "decodedLog": {
                        "name": "Transfer",
                        "params": [
                            {
                                "name": "from",
                                "type": "address",
                                "value": "0x70a3944215de6fa1463a098ba182634df90bb9f4"
                            },
                            {
                                "name": "to",
                                "type": "address",
                                "value": "0x21a9e21252875165f181dc173d28f386451e8b1b"
                            },
                            {
                                "decimalAvailable": true,
                                "name": "value",
                                "type": "uint256",
                                "value": "651,908,400,000,000,000,000"
                            }
                        ],
                        "signature": "Transfer(address,address,uint256)"
                    },
                    "id": 10,
                    "logData": "0x000000000000000000000000000000000000000000000023570be3d75d430000",
                    "logDecoded": true,
                    "operation": "EVENT",
                    "revert": false,
                    "status": true,
                    "topics": [
                        "0xddf252ad1be2c89b69c2b068fc378daa952ba7f163c4a11628f55a4df523b3ef",
                        "0x00000000000000000000000070a3944215de6fa1463a098ba182634df90bb9f4",
                        "0x00000000000000000000000021a9e21252875165f181dc173d28f386451e8b1b"
                    ]
                },
                "nodeType": 1
            },
            "11": {
                "invocation": {
                    "address": "0x69a95185ee2a045cdc4bcd1b1df10710395e4e23",
                    "callData": "0x00000000000000000000000070a3944215de6fa1463a098ba182634df90bb9f4",
                    "decodedMethod": {
                        "callParams": [
                            {
                                "name": "account",
                                "type": "address",
                                "value": "0x70a3944215de6fa1463a098ba182634df90bb9f4"
                            }
                        ],
                        "constructorArguments": "",
                        "name": "balanceOf",
                        "returnParams": [
                            {
                                "decimalAvailable": true,
                                "name": "",
                                "type": "uint256",
                                "value": "43,351,592,005,596,840,790,793"
                            }
                        ],
                        "signature": "balanceOf(address)"
                    },
                    "errorInfo": "",
                    "fromAddress": "0x70a3944215de6fa1463a098ba182634df90bb9f4",
                    "gasUsed": 1224,
                    "id": 11,
                    "methodDecoded": true,
                    "operation": "STATICCALL",
                    "output": "0x00000000000000000000000000000000000000000000092e1831ea830fb90b09",
                    "revert": false,
                    "revertMessage": "",
                    "selector": "0x70a08231",
                    "status": true,
                    "value": "0"
                },
                "nodeType": 0
            },
            "12": {
                "invocation": {
                    "address": "0xc02aaa39b223fe8d0a0e5c4f27ead9083c756cc2",
                    "callData": "0x00000000000000000000000070a3944215de6fa1463a098ba182634df90bb9f4",
                    "decodedMethod": {
                        "callParams": [
                            {
                                "name": "",
                                "type": "address",
                                "value": "0x70a3944215de6fa1463a098ba182634df90bb9f4"
                            }
                        ],
                        "constructorArguments": "",
                        "name": "balanceOf",
                        "returnParams": [
                            {
                                "decimalAvailable": true,
                                "name": "",
                                "type": "uint256",
                                "value": "232,602,409,925,815,104,921"
                            }
                        ],
                        "signature": "balanceOf(address)"
                    },
                    "errorInfo": "",
                    "fromAddress": "0x70a3944215de6fa1463a098ba182634df90bb9f4",
                    "gasUsed": 1234,
                    "id": 12,
                    "methodDecoded": true,
                    "operation": "STATICCALL",
                    "output": "0x00000000000000000000000000000000000000000000000c9c01c3727800f599",
                    "revert": false,
                    "revertMessage": "",
                    "selector": "0x70a08231",
                    "status": true,
                    "value": "0"
                },
                "nodeType": 0
            },
            "13": {
                "event": {
                    "contract": "0x70a3944215de6fa1463a098ba182634df90bb9f4",
                    "decodedLog": {
                        "name": "Sync",
                        "params": [
                            {
                                "name": "reserve0",
                                "type": "uint112",
                                "value": "43,351,592,005,596,840,790,793"
                            },
                            {
                                "name": "reserve1",
                                "type": "uint112",
                                "value": "232,602,409,925,815,104,921"
                            }
                        ],
                        "signature": "Sync(uint112,uint112)"
                    },
                    "id": 13,
                    "logData": "0x00000000000000000000000000000000000000000000092e1831ea830fb90b0900000000000000000000000000000000000000000000000c9c01c3727800f599",
                    "logDecoded": true,
                    "operation": "EVENT",
                    "revert": false,
                    "status": true,
                    "topics": [
                        "0x1c411e9a96e071241c2f21f7726b17ae89e3cab4c78be50e062b03a9fffbbad1"
                    ]
                },
                "nodeType": 1
            },
            "14": {
                "event": {
                    "contract": "0x70a3944215de6fa1463a098ba182634df90bb9f4",
                    "decodedLog": {
                        "name": "Swap",
                        "params": [
                            {
                                "name": "sender",
                                "type": "address",
                                "value": "0x21a9e21252875165f181dc173d28f386451e8b1b"
                            },
                            {
                                "name": "to",
                                "type": "address",
                                "value": "0x21a9e21252875165f181dc173d28f386451e8b1b"
                            },
                            {
                                "name": "amount0In",
                                "type": "uint256",
                                "value": "0"
                            },
                            {
                                "name": "amount1In",
                                "type": "uint256",
                                "value": "3,456,201,415,569,868,808"
                            },
                            {
                                "name": "amount0Out",
                                "type": "uint256",
                                "value": "651,908,400,000,000,000,000"
                            },
                            {
                                "name": "amount1Out",
                                "type": "uint256",
                                "value": "0"
                            }
                        ],
                        "signature": "Swap(address,uint256,uint256,uint256,uint256,address)"
                    },
                    "id": 14,
                    "logData": "0x00000000000000000000000000000000000000000000000000000000000000000000000000000000000000000000000000000000000000002ff6e4e02f3e8808000000000000000000000000000000000000000000000023570be3d75d4300000000000000000000000000000000000000000000000000000000000000000000",
                    "logDecoded": true,
                    "operation": "EVENT",
                    "revert": false,
                    "status": true,
                    "topics": [
                        "0xd78ad95fa46c994b6551d0da85fc275fe613ce37657fb8d5e3d130840159d822",
                        "0x00000000000000000000000021a9e21252875165f181dc173d28f386451e8b1b",
                        "0x00000000000000000000000021a9e21252875165f181dc173d28f386451e8b1b"
                    ]
                },
                "nodeType": 1
            },
            "2": {
                "invocation": {
                    "address": "0x69a95185ee2a045cdc4bcd1b1df10710395e4e23",
                    "callData": "0x00000000000000000000000021a9e21252875165f181dc173d28f386451e8b1b",
                    "decodedMethod": {
                        "callParams": [
                            {
                                "name": "account",
                                "type": "address",
                                "value": "0x21a9e21252875165f181dc173d28f386451e8b1b"
                            }
                        ],
                        "constructorArguments": "",
                        "name": "balanceOf",
                        "returnParams": [
                            {
                                "decimalAvailable": true,
                                "name": "",
                                "type": "uint256",
                                "value": "127,160,821,485,570,445,301"
                            }
                        ],
                        "signature": "balanceOf(address)"
                    },
                    "errorInfo": "",
                    "fromAddress": "0x21a9e21252875165f181dc173d28f386451e8b1b",
                    "gasUsed": 1224,
                    "id": 2,
                    "methodDecoded": true,
                    "operation": "STATICCALL",
                    "output": "0x000000000000000000000000000000000000000000000006e4b5fd6a0a494ff5",
                    "revert": false,
                    "revertMessage": "",
                    "selector": "0x70a08231",
                    "status": true,
                    "value": "0"
                },
                "nodeType": 0
            },
            "3": {
                "invocation": {
                    "address": "0x70a3944215de6fa1463a098ba182634df90bb9f4",
                    "callData": "0x",
                    "decodedMethod": {
                        "callParams": [],
                        "constructorArguments": "",
                        "name": "getReserves",
                        "returnParams": [
                            {
                                "name": "_reserve0",
                                "type": "uint112",
                                "value": "44,003,500,405,596,840,790,793"
                            },
                            {
                                "name": "_reserve1",
                                "type": "uint112",
                                "value": "229,146,208,510,245,236,113"
                            },
                            {
                                "name": "_blockTimestampLast",
                                "type": "uint32",
                                "value": "1,611,006,843"
                            }
                        ],
                        "signature": "getReserves()"
                    },
                    "errorInfo": "",
                    "fromAddress": "0x21a9e21252875165f181dc173d28f386451e8b1b",
                    "gasUsed": 1204,
                    "id": 3,
                    "methodDecoded": true,
                    "operation": "STATICCALL",
                    "output": "0x0000000000000000000000000000000000000000000009516f3dce5a6cfc0b0900000000000000000000000000000000000000000000000c6c0ade9248c26d91000000000000000000000000000000000000000000000000000000006006037b",
                    "revert": false,
                    "revertMessage": "",
                    "selector": "0x0902f1ac",
                    "status": true,
                    "value": "0"
                },
                "nodeType": 0
            },
            "4": {
                "invocation": {
                    "address": "0xc02aaa39b223fe8d0a0e5c4f27ead9083c756cc2",
                    "callData": "0x000000000000000000000000efacb3fb194d5e80e569b3ac50669cf22e48f63b000000000000000000000000000000000000000000000000019f04dc05ea5fa5",
                    "decodedMethod": {
                        "callParams": [
                            {
                                "name": "dst",
                                "type": "address",
                                "value": "0xefacb3fb194d5e80e569b3ac50669cf22e48f63b"
                            },
                            {
                                "decimalAvailable": true,
                                "name": "wad",
                                "type": "uint256",
                                "value": "116,817,458,373,484,453"
                            }
                        ],
                        "constructorArguments": "",
                        "name": "transfer",
                        "returnParams": [
                            {
                                "name": "",
                                "type": "bool",
                                "value": true
                            }
                        ],
                        "signature": "transfer(address,uint256)"
                    },
                    "errorInfo": "",
                    "fromAddress": "0x21a9e21252875165f181dc173d28f386451e8b1b",
                    "gasUsed": 15162,
                    "id": 4,
                    "methodDecoded": true,
                    "operation": "CALL",
                    "output": "0x0000000000000000000000000000000000000000000000000000000000000001",
                    "revert": false,
                    "revertMessage": "",
                    "selector": "0xa9059cbb",
                    "status": true,
                    "value": "0"
                },
                "nodeType": 0
            },
            "5": {
                "event": {
                    "contract": "0xc02aaa39b223fe8d0a0e5c4f27ead9083c756cc2",
                    "decodedLog": {
                        "name": "Transfer",
                        "params": [
                            {
                                "name": "src",
                                "type": "address",
                                "value": "0x21a9e21252875165f181dc173d28f386451e8b1b"
                            },
                            {
                                "name": "dst",
                                "type": "address",
                                "value": "0xefacb3fb194d5e80e569b3ac50669cf22e48f63b"
                            },
                            {
                                "decimalAvailable": true,
                                "name": "wad",
                                "type": "uint256",
                                "value": "116,817,458,373,484,453"
                            }
                        ],
                        "signature": "Transfer(address,address,uint256)"
                    },
                    "id": 5,
                    "logData": "0x000000000000000000000000000000000000000000000000019f04dc05ea5fa5",
                    "logDecoded": true,
                    "operation": "EVENT",
                    "revert": false,
                    "status": true,
                    "topics": [
                        "0xddf252ad1be2c89b69c2b068fc378daa952ba7f163c4a11628f55a4df523b3ef",
                        "0x00000000000000000000000021a9e21252875165f181dc173d28f386451e8b1b",
                        "0x000000000000000000000000efacb3fb194d5e80e569b3ac50669cf22e48f63b"
                    ]
                },
                "nodeType": 1
            },
            "6": {
                "invocation": {
                    "address": "0xc02aaa39b223fe8d0a0e5c4f27ead9083c756cc2",
                    "callData": "0x00000000000000000000000070a3944215de6fa1463a098ba182634df90bb9f40000000000000000000000000000000000000000000000002ff6e4e02f3e8808",
                    "decodedMethod": {
                        "callParams": [
                            {
                                "name": "dst",
                                "type": "address",
                                "value": "0x70a3944215de6fa1463a098ba182634df90bb9f4"
                            },
                            {
                                "decimalAvailable": true,
                                "name": "wad",
                                "type": "uint256",
                                "value": "3,456,201,415,569,868,808"
                            }
                        ],
                        "constructorArguments": "",
                        "name": "transfer",
                        "returnParams": [
                            {
                                "name": "",
                                "type": "bool",
                                "value": true
                            }
                        ],
                        "signature": "transfer(address,uint256)"
                    },
                    "errorInfo": "",
                    "fromAddress": "0x21a9e21252875165f181dc173d28f386451e8b1b",
                    "gasUsed": 10962,
                    "id": 6,
                    "methodDecoded": true,
                    "operation": "CALL",
                    "output": "0x0000000000000000000000000000000000000000000000000000000000000001",
                    "revert": false,
                    "revertMessage": "",
                    "selector": "0xa9059cbb",
                    "status": true,
                    "value": "0"
                },
                "nodeType": 0
            },
            "7": {
                "event": {
                    "contract": "0xc02aaa39b223fe8d0a0e5c4f27ead9083c756cc2",
                    "decodedLog": {
                        "name": "Transfer",
                        "params": [
                            {
                                "name": "src",
                                "type": "address",
                                "value": "0x21a9e21252875165f181dc173d28f386451e8b1b"
                            },
                            {
                                "name": "dst",
                                "type": "address",
                                "value": "0x70a3944215de6fa1463a098ba182634df90bb9f4"
                            },
                            {
                                "decimalAvailable": true,
                                "name": "wad",
                                "type": "uint256",
                                "value": "3,456,201,415,569,868,808"
                            }
                        ],
                        "signature": "Transfer(address,address,uint256)"
                    },
                    "id": 7,
                    "logData": "0x0000000000000000000000000000000000000000000000002ff6e4e02f3e8808",
                    "logDecoded": true,
                    "operation": "EVENT",
                    "revert": false,
                    "status": true,
                    "topics": [
                        "0xddf252ad1be2c89b69c2b068fc378daa952ba7f163c4a11628f55a4df523b3ef",
                        "0x00000000000000000000000021a9e21252875165f181dc173d28f386451e8b1b",
                        "0x00000000000000000000000070a3944215de6fa1463a098ba182634df90bb9f4"
                    ]
                },
                "nodeType": 1
            },
            "8": {
                "invocation": {
                    "address": "0x70a3944215de6fa1463a098ba182634df90bb9f4",
                    "callData": "0x000000000000000000000000000000000000000000000023570be3d75d430000000000000000000000000000000000000000000000000000000000000000000000000000000000000000000021a9e21252875165f181dc173d28f386451e8b1b00000000000000000000000000000000000000000000000000000000000000800000000000000000000000000000000000000000000000000000000000000000",
                    "decodedMethod": {
                        "callParams": [
                            {
                                "name": "amount0Out",
                                "type": "uint256",
                                "value": "651,908,400,000,000,000,000"
                            },
                            {
                                "name": "amount1Out",
                                "type": "uint256",
                                "value": "0"
                            },
                            {
                                "name": "to",
                                "type": "address",
                                "value": "0x21a9e21252875165f181dc173d28f386451e8b1b"
                            },
                            {
                                "name": "data",
                                "type": "bytes",
                                "value": "0x"
                            }
                        ],
                        "constructorArguments": "",
                        "name": "swap",
                        "returnParams": [],
                        "signature": "swap(uint256,uint256,address,bytes)"
                    },
                    "errorInfo": "",
                    "fromAddress": "0x21a9e21252875165f181dc173d28f386451e8b1b",
                    "gasUsed": 44171,
                    "id": 8,
                    "methodDecoded": true,
                    "operation": "CALL",
                    "output": "",
                    "revert": false,
                    "revertMessage": "",
                    "selector": "0x022c0d9f",
                    "status": true,
                    "value": "0"
                },
                "nodeType": 0
            },
            "9": {
                "invocation": {
                    "address": "0x69a95185ee2a045cdc4bcd1b1df10710395e4e23",
                    "callData": "0x00000000000000000000000021a9e21252875165f181dc173d28f386451e8b1b000000000000000000000000000000000000000000000023570be3d75d430000",
                    "decodedMethod": {
                        "callParams": [
                            {
                                "name": "recipient",
                                "type": "address",
                                "value": "0x21a9e21252875165f181dc173d28f386451e8b1b"
                            },
                            {
                                "decimalAvailable": true,
                                "name": "amount",
                                "type": "uint256",
                                "value": "651,908,400,000,000,000,000"
                            }
                        ],
                        "constructorArguments": "",
                        "name": "transfer",
                        "returnParams": [
                            {
                                "name": "",
                                "type": "bool",
                                "value": true
                            }
                        ],
                        "signature": "transfer(address,uint256)"
                    },
                    "errorInfo": "",
                    "fromAddress": "0x70a3944215de6fa1463a098ba182634df90bb9f4",
                    "gasUsed": 14706,
                    "id": 9,
                    "methodDecoded": true,
                    "operation": "CALL",
                    "output": "0x0000000000000000000000000000000000000000000000000000000000000001",
                    "revert": false,
                    "revertMessage": "",
                    "selector": "0xa9059cbb",
                    "status": true,
                    "value": "0"
                },
                "nodeType": 0
            }
        },
        "gasFlame": [
            {
                "children": [
                    {
                        "children": [
                            {
                                "children": [],
                                "depth": 0,
                                "name": "Initial Gas",
                                "value": 22036
                            },
                            {
                                "children": [
                                    {
                                        "children": [],
                                        "depth": 1,
                                        "name": "balanceOf",
                                        "value": 1234
                                    },
                                    {
                                        "children": [],
                                        "depth": 1,
                                        "name": "balanceOf",
                                        "value": 1224
                                    },
                                    {
                                        "children": [],
                                        "depth": 1,
                                        "name": "getReserves",
                                        "value": 1204
                                    },
                                    {
                                        "children": [],
                                        "depth": 1,
                                        "name": "transfer",
                                        "value": 15162
                                    },
                                    {
                                        "children": [],
                                        "depth": 1,
                                        "name": "transfer",
                                        "value": 10962
                                    },
                                    {
                                        "children": [
                                            {
                                                "children": [],
                                                "depth": 2,
                                                "name": "transfer",
                                                "value": 14706
                                            },
                                            {
                                                "children": [],
                                                "depth": 2,
                                                "name": "balanceOf",
                                                "value": 1224
                                            },
                                            {
                                                "children": [],
                                                "depth": 2,
                                                "name": "balanceOf",
                                                "value": 1234
                                            }
                                        ],
                                        "depth": 1,
                                        "name": "swap",
                                        "value": 44171
                                    }
                                ],
                                "depth": 0,
                                "name": "Executed Gas",
                                "value": 87622
                            }
                        ],
                        "depth": -1,
                        "name": "Actual Gas Used",
                        "value": 90458
                    },
                    {
                        "children": [],
                        "depth": -1,
                        "name": "Refunded Gas",
                        "value": 19200
                    }
                ],
                "depth": -2,
                "name": "Total Gas",
                "value": 109658
            }
        ],
        "isConfirmed": true,
        "mainTrace": [
            {
                "children": [
                    {
                        "children": [
                            {
                                "children": [],
                                "depth": 1,
                                "id": 1,
                                "order": 1
                            },
                            {
                                "children": [],
                                "depth": 1,
                                "id": 2,
                                "order": 2
                            },
                            {
                                "children": [],
                                "depth": 1,
                                "id": 3,
                                "order": 3
                            },
                            {
                                "children": [
                                    {
                                        "children": [],
                                        "depth": 2,
                                        "id": 5,
                                        "order": 5
                                    }
                                ],
                                "depth": 1,
                                "id": 4,
                                "order": 4
                            },
                            {
                                "children": [
                                    {
                                        "children": [],
                                        "depth": 2,
                                        "id": 7,
                                        "order": 7
                                    }
                                ],
                                "depth": 1,
                                "id": 6,
                                "order": 6
                            },
                            {
                                "children": [
                                    {
                                        "children": [
                                            {
                                                "children": [],
                                                "depth": 3,
                                                "id": 10,
                                                "order": 10
                                            }
                                        ],
                                        "depth": 2,
                                        "id": 9,
                                        "order": 9
                                    },
                                    {
                                        "children": [],
                                        "depth": 2,
                                        "id": 11,
                                        "order": 11
                                    },
                                    {
                                        "children": [],
                                        "depth": 2,
                                        "id": 12,
                                        "order": 12
                                    },
                                    {
                                        "children": [],
                                        "depth": 2,
                                        "id": 13,
                                        "order": 13
                                    },
                                    {
                                        "children": [],
                                        "depth": 2,
                                        "id": 14,
                                        "order": 14
                                    }
                                ],
                                "depth": 1,
                                "id": 8,
                                "order": 8
                            }
                        ],
                        "depth": 0,
                        "id": 0,
                        "order": 0
                    }
                ],
                "depth": -1,
                "id": -1,
                "order": -1
            }
        ],
        "mainTraceNodeCount": 15,
        "parentIdMap": {
            "0": -1,
            "1": 0,
            "10": 9,
            "11": 8,
            "12": 8,
            "13": 8,
            "14": 8,
            "2": 0,
            "3": 0,
            "4": 0,
            "5": 4,
            "6": 0,
            "7": 6,
            "8": 0,
            "9": 8
        },
        "tidyTrace": [
            {
                "children": [
                    {
                        "children": [
                            {
                                "children": [
                                    {
                                        "children": [],
                                        "depth": 2,
                                        "id": 5,
                                        "order": 5
                                    }
                                ],
                                "depth": 1,
                                "id": 4,
                                "order": 4
                            },
                            {
                                "children": [
                                    {
                                        "children": [],
                                        "depth": 2,
                                        "id": 7,
                                        "order": 7
                                    }
                                ],
                                "depth": 1,
                                "id": 6,
                                "order": 6
                            },
                            {
                                "children": [
                                    {
                                        "children": [
                                            {
                                                "children": [],
                                                "depth": 3,
                                                "id": 10,
                                                "order": 10
                                            }
                                        ],
                                        "depth": 2,
                                        "id": 9,
                                        "order": 9
                                    },
                                    {
                                        "children": [],
                                        "depth": 2,
                                        "id": 13,
                                        "order": 13
                                    },
                                    {
                                        "children": [],
                                        "depth": 2,
                                        "id": 14,
                                        "order": 14
                                    }
                                ],
                                "depth": 1,
                                "id": 8,
                                "order": 8
                            }
                        ],
                        "depth": 0,
                        "id": 0,
                        "order": 0
                    }
                ],
                "depth": -1,
                "id": -1,
                "order": -1
            }
        ],
        "tidyTraceNodeCount": 10
    },
    "state_change": {
        "stateChanges": [
            {
                "address": "0x69a95185ee2a045cdc4bcd1b1df10710395e4e23",
                "erc": "ERC-20",
                "slots": [
                    {
                        "current": "0x00000000000000000000000000000000000000000000092e1831ea830fb90b09",
                        "key": "0xf6b7ca5668dfb9163f25a89c2aed22ccf4dccd6c312189d292c9ae105e10e2a1",
                        "prev": "0x0000000000000000000000000000000000000000000009516f3dce5a6cfc0b09"
                    },
                    {
                        "current": "0x00000000000000000000000000000000000000000000002a3bc1e141678c4ff5",
                        "key": "0xdf91cec0afa0abed2e8e0cfe5a8e8b629f6af29be4bbf7c723bac43be8703992",
                        "prev": "0x000000000000000000000000000000000000000000000006e4b5fd6a0a494ff5"
                    }
                ],
                "storageVariables": [
                    {
                        "name": "_balances",
                        "type": "mapping(address => uint256)",
                        "value": {
                            "pairs": [
                                {
                                    "key": "0x21a9e21252875165f181dc173d28f386451e8b1b",
                                    "value": {
                                        "current": "779069221485570445301",
                                        "prev": "127160821485570445301",
                                        "typeTag": 1
                                    }
                                },
                                {
                                    "key": "0x70a3944215de6fa1463a098ba182634df90bb9f4",
                                    "value": {
                                        "current": "43351592005596840790793",
                                        "prev": "44003500405596840790793",
                                        "typeTag": 1
                                    }
                                }
                            ],
                            "typeTag": 4
                        }
                    }
                ]
            },
            {
                "address": "0x70a3944215de6fa1463a098ba182634df90bb9f4",
                "erc": "ERC-20",
                "slots": [
                    {
                        "current": "0x6006037b00000000000c9c01c3727800f59900000000092e1831ea830fb90b09",
                        "key": "0x0000000000000000000000000000000000000000000000000000000000000008",
                        "prev": "0x6006037b00000000000c6c0ade9248c26d910000000009516f3dce5a6cfc0b09"
                    }
                ],
                "storageVariables": [
                    {
                        "name": "reserve0",
                        "type": "uint112",
                        "value": {
                            "current": "43351592005596840790793",
                            "prev": "44003500405596840790793",
                            "typeTag": 1
                        }
                    },
                    {
                        "name": "reserve1",
                        "type": "uint112",
                        "value": {
                            "current": "232602409925815104921",
                            "prev": "229146208510245236113",
                            "typeTag": 1
                        }
                    },
                    {
                        "name": "blockTimestampLast",
                        "type": "uint32",
                        "value": {
                            "current": "1611006843",
                            "prev": "1611006843",
                            "typeTag": 1
                        }
                    }
                ]
            },
            {
                "address": "0xc02aaa39b223fe8d0a0e5c4f27ead9083c756cc2",
                "erc": "ERC-20",
                "slots": [
                    {
                        "current": "0x0000000000000000000000000000000000000000000000002e0a9933bfecb1c5",
                        "key": "0x5deeb1a82bd83f45d4db62c3d33b0581a9963e01a6d84098c1050a4620868cc7",
                        "prev": "0x0000000000000000000000000000000000000000000000002c6b9457ba025220"
                    },
                    {
                        "current": "0x0000000000000000000000000000000000000000000000000000000000000000",
                        "key": "0xe7c6b13c5c2af1c924b7c09f16ac51f777766a105678983afd5414e15a410a1c",
                        "prev": "0x0000000000000000000000000000000000000000000000003195e9bc3528e7ad"
                    },
                    {
                        "current": "0x00000000000000000000000000000000000000000000000c9c01c3727800f599",
                        "key": "0xee71c803a0ebf452ee7e84c3173083740aae742efc663dbee46ef35d1342eb86",
                        "prev": "0x00000000000000000000000000000000000000000000000c6c0ade9248c26d91"
                    }
                ],
                "storageVariables": [
                    {
                        "name": "balanceOf",
                        "type": "mapping(address => uint256)",
                        "value": {
                            "pairs": [
                                {
                                    "key": "0x21a9e21252875165f181dc173d28f386451e8b1b",
                                    "value": {
                                        "current": "0",
                                        "prev": "3573018873943353261",
                                        "typeTag": 1
                                    }
                                },
                                {
                                    "key": "0x70a3944215de6fa1463a098ba182634df90bb9f4",
                                    "value": {
                                        "current": "232602409925815104921",
                                        "prev": "229146208510245236113",
                                        "typeTag": 1
                                    }
                                },
                                {
                                    "key": "0xefacb3fb194d5e80e569b3ac50669cf22e48f63b",
                                    "value": {
                                        "current": "3317632523054133701",
                                        "prev": "3200815064680649248",
                                        "typeTag": 1
                                    }
                                }
                            ],
                            "typeTag": 4
                        }
                    }
                ]
            }
        ]
    }
}