{
    "balance_change": {
        "balanceChanges": [
            {
                "account": "0xb01d8124071c6c0ca2d8a135f2e706ae81cb43ac",
                "assets": [
                    {
                        "address": "0x4e3fbd56cd56c3e72c1403e103b45db9da5b9d2b",
                        "amount": "4.031985561882597378",
                        "iconUrl": "https://assets.blocksec.com/icon/c870022230e65319e25914ab58f92928989e1731491307605ba26c0ea334b989.png",
                        "isERC1155": false,
                        "isERC721": false,
                        "sign": true,
                        "value": "93.92113131"
                    },
                    {
                        "address": "0x6c3f90f043a72fa612cbac8115ee7e52bde6e490",
                        "amount": "98.149192311786193001",
                        "iconUrl": "",
                        "isERC1155": false,
                        "isERC721": false,
                        "sign": true,
                        "value": "100.3794428"
                    },
                    {
                        "address": "0xd533a949740bb3306d119cc777fa900ba034cd52",
                        "amount": "37.333199647061086842",
                        "iconUrl": "",
                        "isERC1155": false,
                        "isERC721": false,
                        "sign": true,
                        "value": "77.64405162"
                    }
                ]
            },
            {
                "account": "0x3fe65692bfcd0e6cf84cb1e7d24108e434a7587e",
                "assets": [
                    {
                        "address": "0xd533a949740bb3306d119cc777fa900ba034cd52",
                        "amount": "37.333199647061086842",
                        "iconUrl": "",
                        "isERC1155": false,
                        "isERC721": false,
                        "sign": false,
                        "value": "77.64405162"
                    }
                ]
            },
            {
                "account": "0x0000000000000000000000000000000000000000",
                "assets": [
                    {
                        "address": "0x4e3fbd56cd56c3e72c1403e103b45db9da5b9d2b",
                        "amount": "4.031985561882597378",
                        "iconUrl": "https://assets.blocksec.com/icon/c870022230e65319e25914ab58f92928989e1731491307605ba26c0ea334b989.png",
                        "isERC1155": false,
                        "isERC721": false,
                        "sign": false,
                        "value": "93.92113131"
                    }
                ]
            },
            {
                "account": "0x7091dbb7fcba54569ef1387ac89eb2a5c9f6d2ea",
                "assets": [
                    {
                        "address": "0x6c3f90f043a72fa612cbac8115ee7e52bde6e490",
                        "amount": "98.149192311786193001",
                        "iconUrl": "",
                        "isERC1155": false,
                        "isERC721": false,
                        "sign": false,
                        "value": "100.3794428"
                    }
                ]
            }
        ]
    },
    "profile": {
        "basic_info": {
            "baseFee": "43.789182663",
            "blockNumber": 14695237,
            "callData": "0x7050ccd9000000000000000000000000b01d8124071c6c0ca2d8a135f2e706ae81cb43ac0000000000000000000000000000000000000000000000000000000000000001",
            "debugEnable": true,
            "errorInfo": "",
            "eventCount": 5,
            "feeRecipient": "0xea674fdde714fd979de3edf0f56aa9716b898ec8",
            "formatValue": "0",
            "gasLimit": 298570,
            "gasPrice": "45.289182663",
            "gasUsed": 188780,
            "intTxnCount": 13,
            "internalRevert": false,
            "internalRevertMessage": "",
            "isContractCreation": false,
            "isFlashloan": false,
            "maxFee": "71.68",
            "nonce": 3823,
            "overwritedBlockNumber": -1,
            "priorityFee": "1.5",
            "receiver": "0x3fe65692bfcd0e6cf84cb1e7d24108e434a7587e",
            "revertMessage": "",
            "sender": "0xb01d8124071c6c0ca2d8a135f2e706ae81cb43ac",
            "simulationEnable": true,
            "sourceTxnHash": "0x994c60b7bc11353e4a8957e1740e31debe1db4911a9dbd2ea0d267cdcc9b0361",
            "status": true,
            "timestamp": "2022-05-02T00:48:39Z",
            "transactionFee": "0.00854969190312114",
            "txnHash": "0x994c60b7bc11353e4a8957e1740e31debe1db4911a9dbd2ea0d267cdcc9b0361",
            "txnIndex": 163,
            "type": 2,
            "value": "0"
        },
        "fund_flow": [
            {
                "amount": "37.333199647061086842",
                "from": "0x3fe65692bfcd0e6cf84cb1e7d24108e434a7587e",
                "id": 1,
                "isERC1155": false,
                "isERC721": false,
                "isReverted": false,
                "order": 1,
                "to": "0xb01d8124071c6c0ca2d8a135f2e706ae81cb43ac",
                "token": "0xd533a949740bb3306d119cc777fa900ba034cd52"
            },
            {
                "amount": "4.031985561882597378",
                "from": "0x0000000000000000000000000000000000000000",
                "id": 2,
                "isERC1155": false,
                "isERC721": false,
                "isReverted": false,
                "order": 2,
                "to": "0xb01d8124071c6c0ca2d8a135f2e706ae81cb43ac",
                "token": "0x4e3fbd56cd56c3e72c1403e103b45db9da5b9d2b"
            },
            {
                "amount": "98.149192311786193001",
                "from": "0x7091dbb7fcba54569ef1387ac89eb2a5c9f6d2ea",
                "id": 3,
                "isERC1155": false,
                "isERC721": false,
                "isReverted": false,
                "order": 3,
                "to": "0xb01d8124071c6c0ca2d8a135f2e706ae81cb43ac",
                "token": "0x6c3f90f043a72fa612cbac8115ee7e52bde6e490"
            }
        ],
        "token_infos": [
            {
                "address": "0xc02aaa39b223fe8d0a0e5c4f27ead9083c756cc2",
                "decimals": 18
            },
            {
                "address": "0xd533a949740bb3306d119cc777fa900ba034cd52",
                "decimals": 18
            },
            {
                "address": "0xeeeeeeeeeeeeeeeeeeeeeeeeeeeeeeeeeeeeeeee",
                "decimals": 18
            },
            {
                "address": "0x4e3fbd56cd56c3e72c1403e103b45db9da5b9d2b",
                "decimals": 18
            },
            {
                "address": "0x6c3f90f043a72fa612cbac8115ee7e52bde6e490",
                "decimals": 18
            }
        ]
    },
    "address_label": {
        "labels": [
            {
                "address": "0x0000000000000000000000000000000000000002",
                "label": "Precompiled"
            },
            {
                "address": "0x0000000000000000000000000000000000000003",
                "label": "Precompiled"
            },
            {
                "address": "0xd533a949740bb3306d119cc777fa900ba034cd52",
                "label": "Curve.fi: CRV Token"
            },
            {
                "address": "0x7091dbb7fcba54569ef1387ac89eb2a5c9f6d2ea",
                "label": "Convex Finance: Virtual Balance Reward Pool"
            },
            {
                "address": "0x4e3fbd56cd56c3e72c1403e103b45db9da5b9d2b",
                "label": "Convex Finance: CVX Token"
            },
            {
                "address": "0xf403c135812408bfbe8713b5a23a04b3d48aae31",
                "label": "Convex Finance: Booster"
            },
            {
                "address": "0x0000000000000000000000000000000000000001",
                "label": "Precompiled"
            },
            {
                "address": "0x0000000000000000000000000000000000000004",
                "label": "Precompiled"
            },
            {
                "address": "0xeeeeeeeeeeeeeeeeeeeeeeeeeeeeeeeeeeeeeeee",
                "label": "Ether"
            },
            {
                "address": "0x6c3f90f043a72fa612cbac8115ee7e52bde6e490",
                "label": "Curve.fi: 3CRV Token"
            },
            {
                "address": "0x3fe65692bfcd0e6cf84cb1e7d24108e434a7587e",
                "label": "Convex Finance: cvxCRV Rewards"
            }
        ]
    },
    "trace": {
        "accountLabels": null,
        "dataMap": {
            "-1": {
                "invocation": {
                    "address": "0xb01d8124071c6c0ca2d8a135f2e706ae81cb43ac",
                    "callData": "",
                    "decodedMethod": null,
                    "errorInfo": "",
                    "fromAddress": "",
                    "gasUsed": 0,
                    "id": -1,
                    "methodDecoded": false,
                    "operation": "",
                    "output": "",
                    "revert": false,
                    "revertMessage": "",
                    "selector": "",
                    "status": false,
                    "value": ""
                },
                "nodeType": 0
            },
            "0": {
                "invocation": {
                    "address": "0x3fe65692bfcd0e6cf84cb1e7d24108e434a7587e",
                    "callData": "0x000000000000000000000000b01d8124071c6c0ca2d8a135f2e706ae81cb43ac0000000000000000000000000000000000000000000000000000000000000001",
                    "decodedMethod": {
                        "callParams": [
                            {
                                "name": "_account",
                                "type": "address",
                                "value": "0xb01d8124071c6c0ca2d8a135f2e706ae81cb43ac"
                            },
                            {
                                "name": "_claimExtras",
                                "type": "bool",
                                "value": true
                            }
                        ],
                        "constructorArguments": "",
                        "name": "getReward",
                        "returnParams": [
                            {
                                "name": "",
                                "type": "bool",
                                "value": true
                            }
                        ],
                        "signature": "getReward(address,bool)"
                    },
                    "errorInfo": "",
                    "fromAddress": "0xb01d8124071c6c0ca2d8a135f2e706ae81cb43ac",
                    "gasUsed": 188780,
                    "id": 0,
                    "methodDecoded": true,
                    "operation": "CALL",
                    "output": "0x0000000000000000000000000000000000000000000000000000000000000001",
                    "revert": false,
                    "revertMessage": "",
                    "selector": "0x7050ccd9",
                    "status": true,
                    "value": "0"
                },
                "nodeType": 0
            },
            "1": {
                "invocation": {
                    "address": "0xd533a949740bb3306d119cc777fa900ba034cd52",
                    "callData": "0x000000000000000000000000b01d8124071c6c0ca2d8a135f2e706ae81cb43ac000000000000000000000000000000000000000000000002061a2b477bd0927a",
                    "decodedMethod": {
                        "callParams": [
                            {
                                "name": "recipient",
                                "type": "address",
                                "value": "0xb01d8124071c6c0ca2d8a135f2e706ae81cb43ac"
                            },
                            {
                                "decimalAvailable": true,
                                "name": "amount",
                                "type": "uint256",
                                "value": "37,333,199,647,061,086,842"
                            }
                        ],
                        "constructorArguments": "",
                        "name": "transfer",
                        "returnParams": [
                            {
                                "name": "",
                                "type": "bool",
                                "value": true
                            }
                        ],
                        "signature": "transfer(address,uint256)"
                    },
                    "errorInfo": "",
                    "fromAddress": "0x3fe65692bfcd0e6cf84cb1e7d24108e434a7587e",
                    "gasUsed": 12581,
                    "id": 1,
                    "methodDecoded": true,
                    "operation": "CALL",
                    "output": "0x0000000000000000000000000000000000000000000000000000000000000001",
                    "revert": false,
                    "revertMessage": "",
                    "selector": "0xa9059cbb",
                    "status": true,
                    "value": "0"
                },
                "nodeType": 0
            },
            "10": {
                "invocation": {
                    "address": "0x3fe65692bfcd0e6cf84cb1e7d24108e434a7587e",
                    "callData": "0x",
                    "decodedMethod": {
                        "callParams": [],
                        "constructorArguments": "",
                        "name": "totalSupply",
                        "returnParams": [
                            {
                                "name": "",
                                "type": "uint256",
                                "value": "173,436,618,103,400,776,115,620,999"
                            }
                        ],
                        "signature": "totalSupply()"
                    },
                    "errorInfo": "",
                    "fromAddress": "0x7091dbb7fcba54569ef1387ac89eb2a5c9f6d2ea",
                    "gasUsed": 367,
                    "id": 10,
                    "methodDecoded": true,
                    "operation": "STATICCALL",
                    "output": "0x0000000000000000000000000000000000000000008f76a1e824d9bc4ec70c87",
                    "revert": false,
                    "revertMessage": "",
                    "selector": "0x18160ddd",
                    "status": true,
                    "value": "0"
                },
                "nodeType": 0
            },
            "11": {
                "invocation": {
                    "address": "0x3fe65692bfcd0e6cf84cb1e7d24108e434a7587e",
                    "callData": "0x",
                    "decodedMethod": {
                        "callParams": [],
                        "constructorArguments": "",
                        "name": "totalSupply",
                        "returnParams": [
                            {
                                "name": "",
                                "type": "uint256",
                                "value": "173,436,618,103,400,776,115,620,999"
                            }
                        ],
                        "signature": "totalSupply()"
                    },
                    "errorInfo": "",
                    "fromAddress": "0x7091dbb7fcba54569ef1387ac89eb2a5c9f6d2ea",
                    "gasUsed": 367,
                    "id": 11,
                    "methodDecoded": true,
                    "operation": "STATICCALL",
                    "output": "0x0000000000000000000000000000000000000000008f76a1e824d9bc4ec70c87",
                    "revert": false,
                    "revertMessage": "",
                    "selector": "0x18160ddd",
                    "status": true,
                    "value": "0"
                },
                "nodeType": 0
            },
            "12": {
                "invocation": {
                    "address": "0x3fe65692bfcd0e6cf84cb1e7d24108e434a7587e",
                    "callData": "0x000000000000000000000000b01d8124071c6c0ca2d8a135f2e706ae81cb43ac",
                    "decodedMethod": {
                        "callParams": [
                            {
                                "name": "account",
                                "type": "address",
                                "value": "0xb01d8124071c6c0ca2d8a135f2e706ae81cb43ac"
                            }
                        ],
                        "constructorArguments": "",
                        "name": "balanceOf",
                        "returnParams": [
                            {
                                "decimalAvailable": true,
                                "name": "",
                                "type": "uint256",
                                "value": "0"
                            }
                        ],
                        "signature": "balanceOf(address)"
                    },
                    "errorInfo": "",
                    "fromAddress": "0x7091dbb7fcba54569ef1387ac89eb2a5c9f6d2ea",
                    "gasUsed": 510,
                    "id": 12,
                    "methodDecoded": true,
                    "operation": "STATICCALL",
                    "output": "0x0000000000000000000000000000000000000000000000000000000000000000",
                    "revert": false,
                    "revertMessage": "",
                    "selector": "0x70a08231",
                    "status": true,
                    "value": "0"
                },
                "nodeType": 0
            },
            "13": {
                "invocation": {
                    "address": "0x3fe65692bfcd0e6cf84cb1e7d24108e434a7587e",
                    "callData": "0x",
                    "decodedMethod": {
                        "callParams": [],
                        "constructorArguments": "",
                        "name": "totalSupply",
                        "returnParams": [
                            {
                                "name": "",
                                "type": "uint256",
                                "value": "173,436,618,103,400,776,115,620,999"
                            }
                        ],
                        "signature": "totalSupply()"
                    },
                    "errorInfo": "",
                    "fromAddress": "0x7091dbb7fcba54569ef1387ac89eb2a5c9f6d2ea",
                    "gasUsed": 367,
                    "id": 13,
                    "methodDecoded": true,
                    "operation": "STATICCALL",
                    "output": "0x0000000000000000000000000000000000000000008f76a1e824d9bc4ec70c87",
                    "revert": false,
                    "revertMessage": "",
                    "selector": "0x18160ddd",
                    "status": true,
                    "value": "0"
                },
                "nodeType": 0
            },
            "14": {
                "invocation": {
                    "address": "0x3fe65692bfcd0e6cf84cb1e7d24108e434a7587e",
                    "callData": "0x",
                    "decodedMethod": {
                        "callParams": [],
                        "constructorArguments": "",
                        "name": "totalSupply",
                        "returnParams": [
                            {
                                "name": "",
                                "type": "uint256",
                                "value": "173,436,618,103,400,776,115,620,999"
                            }
                        ],
                        "signature": "totalSupply()"
                    },
                    "errorInfo": "",
                    "fromAddress": "0x7091dbb7fcba54569ef1387ac89eb2a5c9f6d2ea",
                    "gasUsed": 367,
                    "id": 14,
                    "methodDecoded": true,
                    "operation": "STATICCALL",
                    "output": "0x0000000000000000000000000000000000000000008f76a1e824d9bc4ec70c87",
                    "revert": false,
                    "revertMessage": "",
                    "selector": "0x18160ddd",
                    "status": true,
                    "value": "0"
                },
                "nodeType": 0
            },
            "15": {
                "invocation": {
                    "address": "0x3fe65692bfcd0e6cf84cb1e7d24108e434a7587e",
                    "callData": "0x000000000000000000000000b01d8124071c6c0ca2d8a135f2e706ae81cb43ac",
                    "decodedMethod": {
                        "callParams": [
                            {
                                "name": "account",
                                "type": "address",
                                "value": "0xb01d8124071c6c0ca2d8a135f2e706ae81cb43ac"
                            }
                        ],
                        "constructorArguments": "",
                        "name": "balanceOf",
                        "returnParams": [
                            {
                                "decimalAvailable": true,
                                "name": "",
                                "type": "uint256",
                                "value": "0"
                            }
                        ],
                        "signature": "balanceOf(address)"
                    },
                    "errorInfo": "",
                    "fromAddress": "0x7091dbb7fcba54569ef1387ac89eb2a5c9f6d2ea",
                    "gasUsed": 510,
                    "id": 15,
                    "methodDecoded": true,
                    "operation": "STATICCALL",
                    "output": "0x0000000000000000000000000000000000000000000000000000000000000000",
                    "revert": false,
                    "revertMessage": "",
                    "selector": "0x70a08231",
                    "status": true,
                    "value": "0"
                },
                "nodeType": 0
            },
            "16": {
                "invocation": {
                    "address": "0x6c3f90f043a72fa612cbac8115ee7e52bde6e490",
                    "callData": "0x000000000000000000000000b01d8124071c6c0ca2d8a135f2e706ae81cb43ac0000000000000000000000000000000000000000000000055217fa640f844069",
                    "decodedMethod": {
                        "callParams": [
                            {
                                "name": "recipient",
                                "type": "address",
                                "value": "0xb01d8124071c6c0ca2d8a135f2e706ae81cb43ac"
                            },
                            {
                                "decimalAvailable": true,
                                "name": "amount",
                                "type": "uint256",
                                "value": "98,149,192,311,786,193,001"
                            }
                        ],
                        "constructorArguments": "",
                        "name": "transfer",
                        "returnParams": [
                            {
                                "name": "",
                                "type": "bool",
                                "value": true
                            }
                        ],
                        "signature": "transfer(address,uint256)"
                    },
                    "errorInfo": "",
                    "fromAddress": "0x7091dbb7fcba54569ef1387ac89eb2a5c9f6d2ea",
                    "gasUsed": 12370,
                    "id": 16,
                    "methodDecoded": true,
                    "operation": "CALL",
                    "output": "0x0000000000000000000000000000000000000000000000000000000000000001",
                    "revert": false,
                    "revertMessage": "",
                    "selector": "0xa9059cbb",
                    "status": true,
                    "value": "0"
                },
                "nodeType": 0
            },
            "17": {
                "event": {
                    "contract": "0x6c3f90f043a72fa612cbac8115ee7e52bde6e490",
                    "decodedLog": {
                        "name": "Transfer",
                        "params": [
                            {
                                "name": "from",
                                "type": "address",
                                "value": "0x7091dbb7fcba54569ef1387ac89eb2a5c9f6d2ea"
                            },
                            {
                                "name": "to",
                                "type": "address",
                                "value": "0xb01d8124071c6c0ca2d8a135f2e706ae81cb43ac"
                            },
                            {
                                "decimalAvailable": true,
                                "name": "value",
                                "type": "uint256",
                                "value": "98,149,192,311,786,193,001"
                            }
                        ],
                        "signature": "Transfer(address,address,uint256)"
                    },
                    "id": 17,
                    "logData": "0x0000000000000000000000000000000000000000000000055217fa640f844069",
                    "logDecoded": true,
                    "operation": "EVENT",
                    "revert": false,
                    "status": true,
                    "topics": [
                        "0xddf252ad1be2c89b69c2b068fc378daa952ba7f163c4a11628f55a4df523b3ef",
                        "0x0000000000000000000000007091dbb7fcba54569ef1387ac89eb2a5c9f6d2ea",
                        "0x000000000000000000000000b01d8124071c6c0ca2d8a135f2e706ae81cb43ac"
                    ]
                },
                "nodeType": 1
            },
            "18": {
                "event": {
                    "contract": "0x7091dbb7fcba54569ef1387ac89eb2a5c9f6d2ea",
                    "decodedLog": {
                        "name": "RewardPaid",
                        "params": [
                            {
                                "name": "user",
                                "type": "address",
                                "value": "0xb01d8124071c6c0ca2d8a135f2e706ae81cb43ac"
                            },
                            {
                                "name": "reward",
                                "type": "uint256",
                                "value": "98,149,192,311,786,193,001"
                            }
                        ],
                        "signature": "RewardPaid(address,uint256)"
                    },
                    "id": 18,
                    "logData": "0x0000000000000000000000000000000000000000000000055217fa640f844069",
                    "logDecoded": true,
                    "operation": "EVENT",
                    "revert": false,
                    "status": true,
                    "topics": [
                        "0xe2403640ba68fed3a2f88b7557551d1993f84b99bb10ff833f0cf8db0c5e0486",
                        "0x000000000000000000000000b01d8124071c6c0ca2d8a135f2e706ae81cb43ac"
                    ]
                },
                "nodeType": 1
            },
            "2": {
                "event": {
                    "contract": "0xd533a949740bb3306d119cc777fa900ba034cd52",
                    "decodedLog": {
                        "name": "Transfer",
                        "params": [
                            {
                                "name": "from",
                                "type": "address",
                                "value": "0x3fe65692bfcd0e6cf84cb1e7d24108e434a7587e"
                            },
                            {
                                "name": "to",
                                "type": "address",
                                "value": "0xb01d8124071c6c0ca2d8a135f2e706ae81cb43ac"
                            },
                            {
                                "decimalAvailable": true,
                                "name": "value",
                                "type": "uint256",
                                "value": "37,333,199,647,061,086,842"
                            }
                        ],
                        "signature": "Transfer(address,address,uint256)"
                    },
                    "id": 2,
                    "logData": "0x000000000000000000000000000000000000000000000002061a2b477bd0927a",
                    "logDecoded": true,
                    "operation": "EVENT",
                    "revert": false,
                    "status": true,
                    "topics": [
                        "0xddf252ad1be2c89b69c2b068fc378daa952ba7f163c4a11628f55a4df523b3ef",
                        "0x0000000000000000000000003fe65692bfcd0e6cf84cb1e7d24108e434a7587e",
                        "0x000000000000000000000000b01d8124071c6c0ca2d8a135f2e706ae81cb43ac"
                    ]
                },
                "nodeType": 1
            },
            "3": {
                "invocation": {
                    "address": "0xf403c135812408bfbe8713b5a23a04b3d48aae31",
                    "callData": "0x0000000000000000000000000000000000000000000000000000000000000000000000000000000000000000b01d8124071c6c0ca2d8a135f2e706ae81cb43ac000000000000000000000000000000000000000000000002061a2b477bd0927a",
                    "decodedMethod": {
                        "callParams": [
                            {
                                "name": "_pid",
                                "type": "uint256",
                                "value": "0"
                            },
                            {
                                "name": "_address",
                                "type": "address",
                                "value": "0xb01d8124071c6c0ca2d8a135f2e706ae81cb43ac"
                            },
                            {
                                "name": "_amount",
                                "type": "uint256",
                                "value": "37,333,199,647,061,086,842"
                            }
                        ],
                        "constructorArguments": "",
                        "name": "rewardClaimed",
                        "returnParams": [
                            {
                                "name": "",
                                "type": "bool",
                                "value": true
                            }
                        ],
                        "signature": "rewardClaimed(uint256,address,uint256)"
                    },
                    "errorInfo": "",
                    "fromAddress": "0x3fe65692bfcd0e6cf84cb1e7d24108e434a7587e",
                    "gasUsed": 48959,
                    "id": 3,
                    "methodDecoded": true,
                    "operation": "CALL",
                    "output": "0x0000000000000000000000000000000000000000000000000000000000000001",
                    "revert": false,
                    "revertMessage": "",
                    "selector": "0x71192b17",
                    "status": true,
                    "value": "0"
                },
                "nodeType": 0
            },
            "4": {
                "invocation": {
                    "address": "0x4e3fbd56cd56c3e72c1403e103b45db9da5b9d2b",
                    "callData": "0x000000000000000000000000b01d8124071c6c0ca2d8a135f2e706ae81cb43ac000000000000000000000000000000000000000000000002061a2b477bd0927a",
                    "decodedMethod": {
                        "callParams": [
                            {
                                "name": "_to",
                                "type": "address",
                                "value": "0xb01d8124071c6c0ca2d8a135f2e706ae81cb43ac"
                            },
                            {
                                "name": "_amount",
                                "type": "uint256",
                                "value": "37,333,199,647,061,086,842"
                            }
                        ],
                        "constructorArguments": "",
                        "name": "mint",
                        "returnParams": [],
                        "signature": "mint(address,uint256)"
                    },
                    "errorInfo": "",
                    "fromAddress": "0xf403c135812408bfbe8713b5a23a04b3d48aae31",
                    "gasUsed": 39097,
                    "id": 4,
                    "methodDecoded": true,
                    "operation": "CALL",
                    "output": "",
                    "revert": false,
                    "revertMessage": "",
                    "selector": "0x40c10f19",
                    "status": true,
                    "value": "0"
                },
                "nodeType": 0
            },
            "5": {
                "event": {
                    "contract": "0x4e3fbd56cd56c3e72c1403e103b45db9da5b9d2b",
                    "decodedLog": {
                        "name": "Transfer",
                        "params": [
                            {
                                "name": "from",
                                "type": "address",
                                "value": "0x0000000000000000000000000000000000000000"
                            },
                            {
                                "name": "to",
                                "type": "address",
                                "value": "0xb01d8124071c6c0ca2d8a135f2e706ae81cb43ac"
                            },
                            {
                                "decimalAvailable": true,
                                "name": "value",
                                "type": "uint256",
                                "value": "4,031,985,561,882,597,378"
                            }
                        ],
                        "signature": "Transfer(address,address,uint256)"
                    },
                    "id": 5,
                    "logData": "0x00000000000000000000000000000000000000000000000037f47d8193841802",
                    "logDecoded": true,
                    "operation": "EVENT",
                    "revert": false,
                    "status": true,
                    "topics": [
                        "0xddf252ad1be2c89b69c2b068fc378daa952ba7f163c4a11628f55a4df523b3ef",
                        "0x0000000000000000000000000000000000000000000000000000000000000000",
                        "0x000000000000000000000000b01d8124071c6c0ca2d8a135f2e706ae81cb43ac"
                    ]
                },
                "nodeType": 1
            },
            "6": {
                "event": {
                    "contract": "0x3fe65692bfcd0e6cf84cb1e7d24108e434a7587e",
                    "decodedLog": {
                        "name": "RewardPaid",
                        "params": [
                            {
                                "name": "user",
                                "type": "address",
                                "value": "0xb01d8124071c6c0ca2d8a135f2e706ae81cb43ac"
                            },
                            {
                                "name": "reward",
                                "type": "uint256",
                                "value": "37,333,199,647,061,086,842"
                            }
                        ],
                        "signature": "RewardPaid(address,uint256)"
                    },
                    "id": 6,
                    "logData": "0x000000000000000000000000000000000000000000000002061a2b477bd0927a",
                    "logDecoded": true,
                    "operation": "EVENT",
                    "revert": false,
                    "status": true,
                    "topics": [
                        "0xe2403640ba68fed3a2f88b7557551d1993f84b99bb10ff833f0cf8db0c5e0486",
                        "0x000000000000000000000000b01d8124071c6c0ca2d8a135f2e706ae81cb43ac"
                    ]
                },
                "nodeType": 1
            },
            "7": {
                "invocation": {
                    "address": "0x7091dbb7fcba54569ef1387ac89eb2a5c9f6d2ea",
                    "callData": "0x000000000000000000000000b01d8124071c6c0ca2d8a135f2e706ae81cb43ac",
                    "decodedMethod": {
                        "callParams": [
                            {
                                "name": "_account",
                                "type": "address",
                                "value": "0xb01d8124071c6c0ca2d8a135f2e706ae81cb43ac"
                            }
                        ],
                        "constructorArguments": "",
                        "name": "getReward",
                        "returnParams": [],
                        "signature": "getReward(address)"
                    },
                    "errorInfo": "",
                    "fromAddress": "0x3fe65692bfcd0e6cf84cb1e7d24108e434a7587e",
                    "gasUsed": 58745,
                    "id": 7,
                    "methodDecoded": true,
                    "operation": "CALL",
                    "output": "",
                    "revert": false,
                    "revertMessage": "",
                    "selector": "0xc00007b0",
                    "status": true,
                    "value": "0"
                },
                "nodeType": 0
            },
            "8": {
                "invocation": {
                    "address": "0x3fe65692bfcd0e6cf84cb1e7d24108e434a7587e",
                    "callData": "0x",
                    "decodedMethod": {
                        "callParams": [],
                        "constructorArguments": "",
                        "name": "totalSupply",
                        "returnParams": [
                            {
                                "name": "",
                                "type": "uint256",
                                "value": "173,436,618,103,400,776,115,620,999"
                            }
                        ],
                        "signature": "totalSupply()"
                    },
                    "errorInfo": "",
                    "fromAddress": "0x7091dbb7fcba54569ef1387ac89eb2a5c9f6d2ea",
                    "gasUsed": 367,
                    "id": 8,
                    "methodDecoded": true,
                    "operation": "STATICCALL",
                    "output": "0x0000000000000000000000000000000000000000008f76a1e824d9bc4ec70c87",
                    "revert": false,
                    "revertMessage": "",
                    "selector": "0x18160ddd",
                    "status": true,
                    "value": "0"
                },
                "nodeType": 0
            },
            "9": {
                "invocation": {
                    "address": "0x3fe65692bfcd0e6cf84cb1e7d24108e434a7587e",
                    "callData": "0x",
                    "decodedMethod": {
                        "callParams": [],
                        "constructorArguments": "",
                        "name": "totalSupply",
                        "returnParams": [
                            {
                                "name": "",
                                "type": "uint256",
                                "value": "173,436,618,103,400,776,115,620,999"
                            }
                        ],
                        "signature": "totalSupply()"
                    },
                    "errorInfo": "",
                    "fromAddress": "0x7091dbb7fcba54569ef1387ac89eb2a5c9f6d2ea",
                    "gasUsed": 367,
                    "id": 9,
                    "methodDecoded": true,
                    "operation": "STATICCALL",
                    "output": "0x0000000000000000000000000000000000000000008f76a1e824d9bc4ec70c87",
                    "revert": false,
                    "revertMessage": "",
                    "selector": "0x18160ddd",
                    "status": true,
                    "value": "0"
                },
                "nodeType": 0
            }
        },
        "gasFlame": [
            {
                "children": [
                    {
                        "children": [
                            {
                                "children": [],
                                "depth": 0,
                                "name": "Initial Gas",
                                "value": 21572
                            },
                            {
                                "children": [
                                    {
                                        "children": [],
                                        "depth": 1,
                                        "name": "transfer",
                                        "value": 12581
                                    },
                                    {
                                        "children": [
                                            {
                                                "children": [],
                                                "depth": 2,
                                                "name": "mint",
                                                "value": 39097
                                            }
                                        ],
                                        "depth": 1,
                                        "name": "rewardClaimed",
                                        "value": 48959
                                    },
                                    {
                                        "children": [
                                            {
                                                "children": [],
                                                "depth": 2,
                                                "name": "totalSupply",
                                                "value": 367
                                            },
                                            {
                                                "children": [],
                                                "depth": 2,
                                                "name": "totalSupply",
                                                "value": 367
                                            },
                                            {
                                                "children": [],
                                                "depth": 2,
                                                "name": "totalSupply",
                                                "value": 367
                                            },
                                            {
                                                "children": [],
                                                "depth": 2,
                                                "name": "totalSupply",
                                                "value": 367
                                            },
                                            {
                                                "children": [],
                                                "depth": 2,
                                                "name": "balanceOf",
                                                "value": 510
                                            },
                                            {
                                                "children": [],
                                                "depth": 2,
                                                "name": "totalSupply",
                                                "value": 367
                                            },
                                            {
                                                "children": [],
                                                "depth": 2,
                                                "name": "totalSupply",
                                                "value": 367
                                            },
                                            {
                                                "children": [],
                                                "depth": 2,
                                                "name": "balanceOf",
                                                "value": 510
                                            },
                                            {
                                                "children": [],
                                                "depth": 2,
                                                "name": "transfer",
                                                "value": 12370
                                            }
                                        ],
                                        "depth": 1,
                                        "name": "getReward",
                                        "value": 58745
                                    }
                                ],
                                "depth": 0,
                                "name": "Executed Gas",
                                "value": 176808
                            }
                        ],
                        "depth": -1,
                        "name": "Actual Gas Used",
                        "value": 188780
                    },
                    {
                        "children": [],
                        "depth": -1,
                        "name": "Refunded Gas",
                        "value": 9600
                    }
                ],
                "depth": -2,
                "name": "Total Gas",
                "value": 198380
            }
        ],
        "isConfirmed": true,
        "mainTrace": [
            {
                "children": [
                    {
                        "children": [
                            {
                                "children": [
                                    {
                                        "children": [],
                                        "depth": 2,
                                        "id": 2,
                                        "order": 2
                                    }
                                ],
                                "depth": 1,
                                "id": 1,
                                "order": 1
                            },
                            {
                                "children": [
                                    {
                                        "children": [
                                            {
                                                "children": [],
                                                "depth": 3,
                                                "id": 5,
                                                "order": 5
                                            }
                                        ],
                                        "depth": 2,
                                        "id": 4,
                                        "order": 4
                                    }
                                ],
                                "depth": 1,
                                "id": 3,
                                "order": 3
                            },
                            {
                                "children": [],
                                "depth": 1,
                                "id": 6,
                                "order": 6
                            },
                            {
                                "children": [
                                    {
                                        "children": [],
                                        "depth": 2,
                                        "id": 8,
                                        "order": 8
                                    },
                                    {
                                        "children": [],
                                        "depth": 2,
                                        "id": 9,
                                        "order": 9
                                    },
                                    {
                                        "children": [],
                                        "depth": 2,
                                        "id": 10,
                                        "order": 10
                                    },
                                    {
                                        "children": [],
                                        "depth": 2,
                                        "id": 11,
                                        "order": 11
                                    },
                                    {
                                        "children": [],
                                        "depth": 2,
                                        "id": 12,
                                        "order": 12
                                    },
                                    {
                                        "children": [],
                                        "depth": 2,
                                        "id": 13,
                                        "order": 13
                                    },
                                    {
                                        "children": [],
                                        "depth": 2,
                                        "id": 14,
                                        "order": 14
                                    },
                                    {
                                        "children": [],
                                        "depth": 2,
                                        "id": 15,
                                        "order": 15
                                    },
                                    {
                                        "children": [
                                            {
                                                "children": [],
                                                "depth": 3,
                                                "id": 17,
                                                "order": 17
                                            }
                                        ],
                                        "depth": 2,
                                        "id": 16,
                                        "order": 16
                                    },
                                    {
                                        "children": [],
                                        "depth": 2,
                                        "id": 18,
                                        "order": 18
                                    }
                                ],
                                "depth": 1,
                                "id": 7,
                                "order": 7
                            }
                        ],
                        "depth": 0,
                        "id": 0,
                        "order": 0
                    }
                ],
                "depth": -1,
                "id": -1,
                "order": -1
            }
        ],
        "mainTraceNodeCount": 19,
        "parentIdMap": {
            "0": -1,
            "1": 0,
            "10": 7,
            "11": 7,
            "12": 7,
            "13": 7,
            "14": 7,
            "15": 7,
            "16": 7,
            "17": 16,
            "18": 7,
            "2": 1,
            "3": 0,
            "4": 3,
            "5": 4,
            "6": 0,
            "7": 0,
            "8": 7,
            "9": 7
        },
        "tidyTrace": [
            {
                "children": [
                    {
                        "children": [
                            {
                                "children": [
                                    {
                                        "children": [],
                                        "depth": 2,
                                        "id": 2,
                                        "order": 2
                                    }
                                ],
                                "depth": 1,
                                "id": 1,
                                "order": 1
                            },
                            {
                                "children": [
                                    {
                                        "children": [
                                            {
                                                "children": [],
                                                "depth": 3,
                                                "id": 5,
                                                "order": 5
                                            }
                                        ],
                                        "depth": 2,
                                        "id": 4,
                                        "order": 4
                                    }
                                ],
                                "depth": 1,
                                "id": 3,
                                "order": 3
                            },
                            {
                                "children": [],
                                "depth": 1,
                                "id": 6,
                                "order": 6
                            },
                            {
                                "children": [
                                    {
                                        "children": [
                                            {
                                                "children": [],
                                                "depth": 3,
                                                "id": 17,
                                                "order": 17
                                            }
                                        ],
                                        "depth": 2,
                                        "id": 16,
                                        "order": 16
                                    },
                                    {
                                        "children": [],
                                        "depth": 2,
                                        "id": 18,
                                        "order": 18
                                    }
                                ],
                                "depth": 1,
                                "id": 7,
                                "order": 7
                            }
                        ],
                        "depth": 0,
                        "id": 0,
                        "order": 0
                    }
                ],
                "depth": -1,
                "id": -1,
                "order": -1
            }
        ],
        "tidyTraceNodeCount": 11
    },
    "state_change": {
        "stateChanges": [
            {
                "address": "0x3fe65692bfcd0e6cf84cb1e7d24108e434a7587e",
                "erc": "",
                "slots": [
                    {
                        "current": "0x0000000000000000000000000000000000000000000000000000000000000000",
                        "key": "0x8c9cd6863dadf378c467a05e2ea62673272b110012383993e4551c0df3a635a5",
                        "prev": "0x000000000000000000000000000000000000000000000002061a2b477bd0927a"
                    },
                    {
                        "current": "0x00000000000000000000000000000000000000000000000002fb7835ab2e911c",
                        "key": "0x0000000000000000000000000000000000000000000000000000000000000008",
                        "prev": "0x00000000000000000000000000000000000000000000000002fb77df10b382da"
                    },
                    {
                        "current": "0x00000000000000000000000000000000000000000000000000000000626f2a67",
                        "key": "0x0000000000000000000000000000000000000000000000000000000000000007",
                        "prev": "0x00000000000000000000000000000000000000000000000000000000626f2a05"
                    },
                    {
                        "current": "0x00000000000000000000000000000000000000000000000002fb7835ab2e911c",
                        "key": "0x1b9a8082e593f92f719bc8b27a73ee03f5f9d3ef1fd7d0ada5421bb92483066c",
                        "prev": "0x00000000000000000000000000000000000000000000000002fb77df10b382da"
                    }
                ],
                "storageVariables": [
                    {
                        "name": "rewards",
                        "type": "mapping(address => uint256)",
                        "value": {
                            "pairs": [
                                {
                                    "key": "0xb01d8124071c6c0ca2d8a135f2e706ae81cb43ac",
                                    "value": {
                                        "current": "0",
                                        "prev": "37333199647061086842",
                                        "typeTag": 1
                                    }
                                }
                            ],
                            "typeTag": 4
                        }
                    },
                    {
                        "name": "rewardPerTokenStored",
                        "type": "uint256",
                        "value": {
                            "current": "214897579130786076",
                            "prev": "214897207171842778",
                            "typeTag": 1
                        }
                    },
                    {
                        "name": "lastUpdateTime",
                        "type": "uint256",
                        "value": {
                            "current": "1651452519",
                            "prev": "1651452421",
                            "typeTag": 1
                        }
                    },
                    {
                        "name": "userRewardPerTokenPaid",
                        "type": "mapping(address => uint256)",
                        "value": {
                            "pairs": [
                                {
                                    "key": "0xb01d8124071c6c0ca2d8a135f2e706ae81cb43ac",
                                    "value": {
                                        "current": "214897579130786076",
                                        "prev": "214897207171842778",
                                        "typeTag": 1
                                    }
                                }
                            ],
                            "typeTag": 4
                        }
                    }
                ]
            },
            {
                "address": "0x4e3fbd56cd56c3e72c1403e103b45db9da5b9d2b",
                "erc": "ERC-20",
                "slots": [
                    {
                        "current": "0x00000000000000000000000000000000000000000049db61592fecbd0af0341c",
                        "key": "0x0000000000000000000000000000000000000000000000000000000000000002",
                        "prev": "0x00000000000000000000000000000000000000000049db61213b6f3b776c1c1a"
                    },
                    {
                        "current": "0x00000000000000000000000000000000000000000000000037f47d8193841802",
                        "key": "0x53171564f083cd9935dd8ccea0bd0ca255cdfd7b18454641186ddef9bd197a06",
                        "prev": "0x0000000000000000000000000000000000000000000000000000000000000000"
                    }
                ],
                "storageVariables": [
                    {
                        "name": "_totalSupply",
                        "type": "uint256",
                        "value": {
                            "current": "89287578852407021839332380",
                            "prev": "89287574820421459956735002",
                            "typeTag": 1
                        }
                    },
                    {
                        "name": "_balances",
                        "type": "mapping(address => uint256)",
                        "value": {
                            "pairs": [
                                {
                                    "key": "0xb01d8124071c6c0ca2d8a135f2e706ae81cb43ac",
                                    "value": {
                                        "current": "4031985561882597378",
                                        "prev": "0",
                                        "typeTag": 1
                                    }
                                }
                            ],
                            "typeTag": 4
                        }
                    }
                ]
            },
            {
                "address": "0x6c3f90f043a72fa612cbac8115ee7e52bde6e490",
                "erc": "",
                "slots": [
                    {
                        "current": "0x000000000000000000000000000000000000000000025bfc49a1d52843aeeb82",
                        "key": "0x236f81088fe5818a7dd6010ccfc0b92372430aa0dbaea493c652bca7984afaa4",
                        "prev": "0x000000000000000000000000000000000000000000025c019bb9cf8c53332beb"
                    },
                    {
                        "current": "0x00000000000000000000000000000000000000000000003739d63aeb23c9ceec",
                        "key": "0x1cf8339d6d0991ee097aebf9c42a7cad9fcc3ff6f107b7a9c6409b32dcd056c5",
                        "prev": "0x000000000000000000000000000000000000000000000031e7be408714458e83"
                    }
                ],
                "storageVariables": []
            },
            {
                "address": "0x7091dbb7fcba54569ef1387ac89eb2a5c9f6d2ea",
                "erc": "",
                "slots": [
                    {
                        "current": "0x0000000000000000000000000000000000000000000000000000000000000000",
                        "key": "0x743c52937182805d0d508a1769e092ca294be875bc90e38daad48174fc7810ae",
                        "prev": "0x0000000000000000000000000000000000000000000000055217fa640f844069"
                    },
                    {
                        "current": "0x000000000000000000000000000000000000000000000000032bd509d0b38413",
                        "key": "0x0000000000000000000000000000000000000000000000000000000000000006",
                        "prev": "0x000000000000000000000000000000000000000000000000032bd4a699ee964b"
                    },
                    {
                        "current": "0x00000000000000000000000000000000000000000000000000000000626f2a67",
                        "key": "0x0000000000000000000000000000000000000000000000000000000000000005",
                        "prev": "0x00000000000000000000000000000000000000000000000000000000626f2a05"
                    },
                    {
                        "current": "0x000000000000000000000000000000000000000000000000032bd509d0b38413",
                        "key": "0x357460219ed2968b826ab7f2dbef54e5f4bd018de0de5d7c15f2ad3d6eb6d524",
                        "prev": "0x000000000000000000000000000000000000000000000000032bd4a699ee964b"
                    }
                ],
                "storageVariables": [
                    {
                        "name": "lastUpdateTime",
                        "type": "uint256",
                        "value": {
                            "current": "1651452519",
                            "prev": "1651452421",
                            "typeTag": 1
                        }
                    },
                    {
                        "name": "userRewardPerTokenPaid",
                        "type": "mapping(address => uint256)",
                        "value": {
                            "pairs": [
                                {
                                    "key": "0xb01d8124071c6c0ca2d8a135f2e706ae81cb43ac",
                                    "value": {
                                        "current": "228510444245189651",
                                        "prev": "228510018124551755",
                                        "typeTag": 1
                                    }
                                }
                            ],
                            "typeTag": 4
                        }
                    },
                    {
                        "name": "rewards",
                        "type": "mapping(address => uint256)",
                        "value": {
                            "pairs": [
                                {
                                    "key": "0xb01d8124071c6c0ca2d8a135f2e706ae81cb43ac",
                                    "value": {
                                        "current": "0",
                                        "prev": "98149192311786193001",
                                        "typeTag": 1
                                    }
                                }
                            ],
                            "typeTag": 4
                        }
                    },
                    {
                        "name": "rewardPerTokenStored",
                        "type": "uint256",
                        "value": {
                            "current": "228510444245189651",
                            "prev": "228510018124551755",
                            "typeTag": 1
                        }
                    }
                ]
            },
            {
                "address": "0xd533a949740bb3306d119cc777fa900ba034cd52",
                "erc": "",
                "slots": [
                    {
                        "current": "0x0000000000000000000000000000000000000000000192a2251a1c4f84517c8b",
                        "key": "0x7f6f177f87cac5edee95d555da4fffebac25b51bc5274b8e86057831769d9ea1",
                        "prev": "0x0000000000000000000000000000000000000000000192a42b34479700220f05"
                    },
                    {
                        "current": "0x00000000000000000000000000000000000000000000000fd0138c9cbe2504a0",
                        "key": "0x1cf8339d6d0991ee097aebf9c42a7cad9fcc3ff6f107b7a9c6409b32dcd056c5",
                        "prev": "0x00000000000000000000000000000000000000000000000dc9f9615542547226"
                    }
                ],
                "storageVariables": []
            }
        ]
    }
}