{
    "balance_change": {
        "balanceChanges": [
            {
                "account": "0x2e3381202988d535e8185e7089f633f7c9998e83",
                "assets": [
                    {
                        "address": "0xeeeeeeeeeeeeeeeeeeeeeeeeeeeeeeeeeeeeeeee",
                        "amount": "1.217964396",
                        "iconUrl": "https://assets.blocksec.com/image/1663669189317-3.png",
                        "isERC1155": false,
                        "isERC721": false,
                        "sign": false,
                        "value": "4568.361542"
                    }
                ]
            },
            {
                "account": "0x2d9fd51e896ff0352cb6d697d13d04c2cb85ca83",
                "assets": [
                    {
                        "address": "0xc02aaa39b223fe8d0a0e5c4f27ead9083c756cc2",
                        "amount": "1.217964396",
                        "iconUrl": "https://assets.blocksec.com/icon/f1cb2d02c471d545bbc7722daf3277fd852d98e63d118771af7047bd8256c516.png",
                        "isERC1155": false,
                        "isERC721": false,
                        "sign": true,
                        "value": "4568.361542"
                    },
                    {
                        "address": "0x8b0e42f366ba502d787bb134478adfae966c8798",
                        "amount": "205,242.844939015519187941",
                        "iconUrl": "",
                        "isERC1155": false,
                        "isERC721": false,
                        "sign": false,
                        "value": "4493.375167"
                    }
                ]
            },
            {
                "account": "0x5f0bee213e5dc3f7b7ca2a9d0b854468974802c4",
                "assets": [
                    {
                        "address": "0x8b0e42f366ba502d787bb134478adfae966c8798",
                        "amount": "205,242.844939015519187941",
                        "iconUrl": "",
                        "isERC1155": false,
                        "isERC721": false,
                        "sign": true,
                        "value": "4493.375167"
                    }
                ]
            },
            {
                "account": "0xc02aaa39b223fe8d0a0e5c4f27ead9083c756cc2",
                "assets": [
                    {
                        "address": "0xeeeeeeeeeeeeeeeeeeeeeeeeeeeeeeeeeeeeeeee",
                        "amount": "1.217964396",
                        "iconUrl": "https://assets.blocksec.com/image/1663669189317-3.png",
                        "isERC1155": false,
                        "isERC721": false,
                        "sign": true,
                        "value": "4568.361542"
                    },
                    {
                        "address": "0xc02aaa39b223fe8d0a0e5c4f27ead9083c756cc2",
                        "amount": "1.217964396",
                        "iconUrl": "https://assets.blocksec.com/icon/f1cb2d02c471d545bbc7722daf3277fd852d98e63d118771af7047bd8256c516.png",
                        "isERC1155": false,
                        "isERC721": false,
                        "sign": false,
                        "value": "4568.361542"
                    }
                ]
            }
        ]
    },
    "profile": {
        "basic_info": {
            "baseFee": "",
            "blockNumber": 12440596,
            "callData": "0x4997adb60000000000000000000000000000000000000000000000000000000060a01616000000000000000000000000000000000000000000002a9583644c0035b3bd9d0000000000000000000000005f0bee213e5dc3f7b7ca2a9d0b854468974802c400000000000000000000000000000000000000000000000000000000000000800000000000000000000000000000000000000000000000000000000000000002000000000000000000000000c02aaa39b223fe8d0a0e5c4f27ead9083c756cc20000000000000000000000008b0e42f366ba502d787bb134478adfae966c8798",
            "debugEnable": true,
            "errorInfo": "",
            "eventCount": 5,
            "feeRecipient": "0xbcc817f057950b0df41206c5d7125e6225cae18e",
            "formatValue": "1.217964396",
            "gasLimit": 158752,
            "gasPrice": "123",
            "gasUsed": 101890,
            "intTxnCount": 7,
            "internalRevert": false,
            "internalRevertMessage": "",
            "isContractCreation": false,
            "isFlashloan": false,
            "maxFee": "",
            "nonce": 69701,
            "overwritedBlockNumber": -1,
            "priorityFee": "",
            "receiver": "0x33e7e9bac33ee273d7c81de3fc772fc65364810f",
            "revertMessage": "",
            "sender": "0x2e3381202988d535e8185e7089f633f7c9998e83",
            "simulationEnable": true,
            "sourceTxnHash": "0x990961cf7af27ba36963f450e2e81e6eb6edfffeb1f9e759a05b37ca2dd230d9",
            "status": true,
            "timestamp": "2021-05-15T18:22:23Z",
            "transactionFee": "0.01253247",
            "txnHash": "0x990961cf7af27ba36963f450e2e81e6eb6edfffeb1f9e759a05b37ca2dd230d9",
            "txnIndex": 24,
            "type": 0,
            "value": "1217964396000000000"
        },
        "fund_flow": [
            {
                "amount": "1.217964396",
                "from": "0x2e3381202988d535e8185e7089f633f7c9998e83",
                "id": 1,
                "isERC1155": false,
                "isERC721": false,
                "isReverted": false,
                "order": 1,
                "to": "0x33e7e9bac33ee273d7c81de3fc772fc65364810f",
                "token": "0xeeeeeeeeeeeeeeeeeeeeeeeeeeeeeeeeeeeeeeee"
            },
            {
                "amount": "1.217964396",
                "from": "0x33e7e9bac33ee273d7c81de3fc772fc65364810f",
                "id": 2,
                "isERC1155": false,
                "isERC721": false,
                "isReverted": false,
                "order": 2,
                "to": "0xc02aaa39b223fe8d0a0e5c4f27ead9083c756cc2",
                "token": "0xeeeeeeeeeeeeeeeeeeeeeeeeeeeeeeeeeeeeeeee"
            },
            {
                "amount": "1.217964396",
                "from": "0xc02aaa39b223fe8d0a0e5c4f27ead9083c756cc2",
                "id": 3,
                "isERC1155": false,
                "isERC721": false,
                "isReverted": false,
                "order": 3,
                "to": "0x33e7e9bac33ee273d7c81de3fc772fc65364810f",
                "token": "0xc02aaa39b223fe8d0a0e5c4f27ead9083c756cc2"
            },
            {
                "amount": "1.217964396",
                "from": "0x33e7e9bac33ee273d7c81de3fc772fc65364810f",
                "id": 4,
                "isERC1155": false,
                "isERC721": false,
                "isReverted": false,
                "order": 4,
                "to": "0x2d9fd51e896ff0352cb6d697d13d04c2cb85ca83",
                "token": "0xc02aaa39b223fe8d0a0e5c4f27ead9083c756cc2"
            },
            {
                "amount": "205,242.844939015519187941",
                "from": "0x2d9fd51e896ff0352cb6d697d13d04c2cb85ca83",
                "id": 5,
                "isERC1155": false,
                "isERC721": false,
                "isReverted": false,
                "order": 5,
                "to": "0x5f0bee213e5dc3f7b7ca2a9d0b854468974802c4",
                "token": "0x8b0e42f366ba502d787bb134478adfae966c8798"
            }
        ],
        "token_infos": [
            {
                "address": "0x8b0e42f366ba502d787bb134478adfae966c8798",
                "decimals": 18
            },
            {
                "address": "0xc02aaa39b223fe8d0a0e5c4f27ead9083c756cc2",
                "decimals": 18
            },
            {
                "address": "0xeeeeeeeeeeeeeeeeeeeeeeeeeeeeeeeeeeeeeeee",
                "decimals": 18
            }
        ]
    },
    "address_label": {
        "labels": [
            {
                "address": "0x2d9fd51e896ff0352cb6d697d13d04c2cb85ca83",
                "label": "Uniswap V2: LABS 7"
            },
            {
                "address": "0x0000000000000000000000000000000000000001",
                "label": "Precompiled"
            },
            {
                "address": "0xeeeeeeeeeeeeeeeeeeeeeeeeeeeeeeeeeeeeeeee",
                "label": "Ether"
            },
            {
                "address": "0x8b0e42f366ba502d787bb134478adfae966c8798",
                "label": "Labs Group: LABS Token"
            },
            {
                "address": "0x0000000000000000000000000000000000000002",
                "label": "Precompiled"
            },
            {
                "address": "0x0000000000000000000000000000000000000003",
                "label": "Precompiled"
            },
            {
                "address": "0x0000000000000000000000000000000000000004",
                "label": "Precompiled"
            },
            {
                "address": "0xc02aaa39b223fe8d0a0e5c4f27ead9083c756cc2",
                "label": "Wrapped Ether (WETH)"
            },
            {
                "address": "0x5f0bee213e5dc3f7b7ca2a9d0b854468974802c4",
                "label": "KUCOIN"
            }
        ]
    },
    "trace": {
        "accountLabels": null,
        "dataMap": {
            "-1": {
                "invocation": {
                    "address": "0x2e3381202988d535e8185e7089f633f7c9998e83",
                    "callData": "",
                    "decodedMethod": null,
                    "errorInfo": "",
                    "fromAddress": "",
                    "gasUsed": 0,
                    "id": -1,
                    "methodDecoded": false,
                    "operation": "",
                    "output": "",
                    "revert": false,
                    "revertMessage": "",
                    "selector": "",
                    "status": false,
                    "value": ""
                },
                "nodeType": 0
            },
            "0": {
                "invocation": {
                    "address": "0x33e7e9bac33ee273d7c81de3fc772fc65364810f",
                    "callData": "0x0000000000000000000000000000000000000000000000000000000060a01616000000000000000000000000000000000000000000002a9583644c0035b3bd9d0000000000000000000000005f0bee213e5dc3f7b7ca2a9d0b854468974802c400000000000000000000000000000000000000000000000000000000000000800000000000000000000000000000000000000000000000000000000000000002000000000000000000000000c02aaa39b223fe8d0a0e5c4f27ead9083c756cc20000000000000000000000008b0e42f366ba502d787bb134478adfae966c8798",
                    "decodedMethod": null,
                    "errorInfo": "",
                    "fromAddress": "0x2e3381202988d535e8185e7089f633f7c9998e83",
                    "gasUsed": 101890,
                    "id": 0,
                    "methodDecoded": false,
                    "operation": "CALL",
                    "output": "0x0000000000000000000000000000000000000000000000000000000000000020000000000000000000000000000000000000000000000000000000000000000200000000000000000000000000000000000000000000000010e7142a44a73800000000000000000000000000000000000000000000002b763ca6b0d6578bb3e5",
                    "revert": false,
                    "revertMessage": "",
                    "selector": "0x4997adb6",
                    "status": true,
                    "value": "1.217964396"
                },
                "nodeType": 0
            },
            "1": {
                "invocation": {
                    "address": "0x2d9fd51e896ff0352cb6d697d13d04c2cb85ca83",
                    "callData": "0x",
                    "decodedMethod": {
                        "callParams": [],
                        "constructorArguments": "",
                        "name": "getReserves",
                        "returnParams": [
                            {
                                "name": "_reserve0",
                                "type": "uint112",
                                "value": "38,882,335,561,576,625,623,760,594"
                            },
                            {
                                "name": "_reserve1",
                                "type": "uint112",
                                "value": "228,831,362,759,572,550,339"
                            },
                            {
                                "name": "_blockTimestampLast",
                                "type": "uint32",
                                "value": "1,621,102,900"
                            }
                        ],
                        "signature": "getReserves()"
                    },
                    "errorInfo": "",
                    "fromAddress": "0x33e7e9bac33ee273d7c81de3fc772fc65364810f",
                    "gasUsed": 2504,
                    "id": 1,
                    "methodDecoded": true,
                    "operation": "STATICCALL",
                    "output": "0x0000000000000000000000000000000000000000002029a7a265530e29937ed200000000000000000000000000000000000000000000000c67ac500780df72c30000000000000000000000000000000000000000000000000000000060a01134",
                    "revert": false,
                    "revertMessage": "",
                    "selector": "0x0902f1ac",
                    "status": true,
                    "value": "0"
                },
                "nodeType": 0
            },
            "10": {
                "invocation": {
                    "address": "0xc02aaa39b223fe8d0a0e5c4f27ead9083c756cc2",
                    "callData": "0x0000000000000000000000002d9fd51e896ff0352cb6d697d13d04c2cb85ca83",
                    "decodedMethod": {
                        "callParams": [
                            {
                                "name": "",
                                "type": "address",
                                "value": "0x2d9fd51e896ff0352cb6d697d13d04c2cb85ca83"
                            }
                        ],
                        "constructorArguments": "",
                        "name": "balanceOf",
                        "returnParams": [
                            {
                                "decimalAvailable": true,
                                "name": "",
                                "type": "uint256",
                                "value": "230,049,327,155,572,550,339"
                            }
                        ],
                        "signature": "balanceOf(address)"
                    },
                    "errorInfo": "",
                    "fromAddress": "0x2d9fd51e896ff0352cb6d697d13d04c2cb85ca83",
                    "gasUsed": 534,
                    "id": 10,
                    "methodDecoded": true,
                    "operation": "STATICCALL",
                    "output": "0x00000000000000000000000000000000000000000000000c78936431c586aac3",
                    "revert": false,
                    "revertMessage": "",
                    "selector": "0x70a08231",
                    "status": true,
                    "value": "0"
                },
                "nodeType": 0
            },
            "11": {
                "event": {
                    "contract": "0x2d9fd51e896ff0352cb6d697d13d04c2cb85ca83",
                    "decodedLog": {
                        "name": "Sync",
                        "params": [
                            {
                                "name": "reserve0",
                                "type": "uint112",
                                "value": "38,677,092,716,637,610,104,572,653"
                            },
                            {
                                "name": "reserve1",
                                "type": "uint112",
                                "value": "230,049,327,155,572,550,339"
                            }
                        ],
                        "signature": "Sync(uint112,uint112)"
                    },
                    "id": 11,
                    "logData": "0x0000000000000000000000000000000000000000001ffe3165bea237d207caed00000000000000000000000000000000000000000000000c78936431c586aac3",
                    "logDecoded": true,
                    "operation": "EVENT",
                    "revert": false,
                    "status": true,
                    "topics": [
                        "0x1c411e9a96e071241c2f21f7726b17ae89e3cab4c78be50e062b03a9fffbbad1"
                    ]
                },
                "nodeType": 1
            },
            "12": {
                "event": {
                    "contract": "0x2d9fd51e896ff0352cb6d697d13d04c2cb85ca83",
                    "decodedLog": {
                        "name": "Swap",
                        "params": [
                            {
                                "name": "sender",
                                "type": "address",
                                "value": "0x33e7e9bac33ee273d7c81de3fc772fc65364810f"
                            },
                            {
                                "name": "to",
                                "type": "address",
                                "value": "0x5f0bee213e5dc3f7b7ca2a9d0b854468974802c4"
                            },
                            {
                                "name": "amount0In",
                                "type": "uint256",
                                "value": "0"
                            },
                            {
                                "name": "amount1In",
                                "type": "uint256",
                                "value": "1,217,964,396,000,000,000"
                            },
                            {
                                "name": "amount0Out",
                                "type": "uint256",
                                "value": "205,242,844,939,015,519,187,941"
                            },
                            {
                                "name": "amount1Out",
                                "type": "uint256",
                                "value": "0"
                            }
                        ],
                        "signature": "Swap(address,uint256,uint256,uint256,uint256,address)"
                    },
                    "id": 12,
                    "logData": "0x000000000000000000000000000000000000000000000000000000000000000000000000000000000000000000000000000000000000000010e7142a44a73800000000000000000000000000000000000000000000002b763ca6b0d6578bb3e50000000000000000000000000000000000000000000000000000000000000000",
                    "logDecoded": true,
                    "operation": "EVENT",
                    "revert": false,
                    "status": true,
                    "topics": [
                        "0xd78ad95fa46c994b6551d0da85fc275fe613ce37657fb8d5e3d130840159d822",
                        "0x00000000000000000000000033e7e9bac33ee273d7c81de3fc772fc65364810f",
                        "0x0000000000000000000000005f0bee213e5dc3f7b7ca2a9d0b854468974802c4"
                    ]
                },
                "nodeType": 1
            },
            "2": {
                "invocation": {
                    "address": "0xc02aaa39b223fe8d0a0e5c4f27ead9083c756cc2",
                    "callData": "0x",
                    "decodedMethod": {
                        "callParams": [],
                        "constructorArguments": "",
                        "name": "deposit",
                        "returnParams": [],
                        "signature": "deposit()"
                    },
                    "errorInfo": "",
                    "fromAddress": "0x33e7e9bac33ee273d7c81de3fc772fc65364810f",
                    "gasUsed": 23974,
                    "id": 2,
                    "methodDecoded": true,
                    "operation": "CALL",
                    "output": "",
                    "revert": false,
                    "revertMessage": "",
                    "selector": "0xd0e30db0",
                    "status": true,
                    "value": "1.217964396"
                },
                "nodeType": 0
            },
            "3": {
                "event": {
                    "contract": "0xc02aaa39b223fe8d0a0e5c4f27ead9083c756cc2",
                    "decodedLog": {
                        "name": "Deposit",
                        "params": [
                            {
                                "name": "dst",
                                "type": "address",
                                "value": "0x33e7e9bac33ee273d7c81de3fc772fc65364810f"
                            },
                            {
                                "name": "wad",
                                "type": "uint256",
                                "value": "1,217,964,396,000,000,000"
                            }
                        ],
                        "signature": "Deposit(address,uint256)"
                    },
                    "id": 3,
                    "logData": "0x00000000000000000000000000000000000000000000000010e7142a44a73800",
                    "logDecoded": true,
                    "operation": "EVENT",
                    "revert": false,
                    "status": true,
                    "topics": [
                        "0xe1fffcc4923d04b559f4d29a8bfc6cda04eb5b0d3c460751c2402c5c5cc9109c",
                        "0x00000000000000000000000033e7e9bac33ee273d7c81de3fc772fc65364810f"
                    ]
                },
                "nodeType": 1
            },
            "4": {
                "invocation": {
                    "address": "0xc02aaa39b223fe8d0a0e5c4f27ead9083c756cc2",
                    "callData": "0x0000000000000000000000002d9fd51e896ff0352cb6d697d13d04c2cb85ca8300000000000000000000000000000000000000000000000010e7142a44a73800",
                    "decodedMethod": {
                        "callParams": [
                            {
                                "name": "dst",
                                "type": "address",
                                "value": "0x2d9fd51e896ff0352cb6d697d13d04c2cb85ca83"
                            },
                            {
                                "decimalAvailable": true,
                                "name": "wad",
                                "type": "uint256",
                                "value": "1,217,964,396,000,000,000"
                            }
                        ],
                        "constructorArguments": "",
                        "name": "transfer",
                        "returnParams": [
                            {
                                "name": "",
                                "type": "bool",
                                "value": true
                            }
                        ],
                        "signature": "transfer(address,uint256)"
                    },
                    "errorInfo": "",
                    "fromAddress": "0x33e7e9bac33ee273d7c81de3fc772fc65364810f",
                    "gasUsed": 8062,
                    "id": 4,
                    "methodDecoded": true,
                    "operation": "CALL",
                    "output": "0x0000000000000000000000000000000000000000000000000000000000000001",
                    "revert": false,
                    "revertMessage": "",
                    "selector": "0xa9059cbb",
                    "status": true,
                    "value": "0"
                },
                "nodeType": 0
            },
            "5": {
                "event": {
                    "contract": "0xc02aaa39b223fe8d0a0e5c4f27ead9083c756cc2",
                    "decodedLog": {
                        "name": "Transfer",
                        "params": [
                            {
                                "name": "src",
                                "type": "address",
                                "value": "0x33e7e9bac33ee273d7c81de3fc772fc65364810f"
                            },
                            {
                                "name": "dst",
                                "type": "address",
                                "value": "0x2d9fd51e896ff0352cb6d697d13d04c2cb85ca83"
                            },
                            {
                                "decimalAvailable": true,
                                "name": "wad",
                                "type": "uint256",
                                "value": "1,217,964,396,000,000,000"
                            }
                        ],
                        "signature": "Transfer(address,address,uint256)"
                    },
                    "id": 5,
                    "logData": "0x00000000000000000000000000000000000000000000000010e7142a44a73800",
                    "logDecoded": true,
                    "operation": "EVENT",
                    "revert": false,
                    "status": true,
                    "topics": [
                        "0xddf252ad1be2c89b69c2b068fc378daa952ba7f163c4a11628f55a4df523b3ef",
                        "0x00000000000000000000000033e7e9bac33ee273d7c81de3fc772fc65364810f",
                        "0x0000000000000000000000002d9fd51e896ff0352cb6d697d13d04c2cb85ca83"
                    ]
                },
                "nodeType": 1
            },
            "6": {
                "invocation": {
                    "address": "0x2d9fd51e896ff0352cb6d697d13d04c2cb85ca83",
                    "callData": "0x000000000000000000000000000000000000000000002b763ca6b0d6578bb3e500000000000000000000000000000000000000000000000000000000000000000000000000000000000000005f0bee213e5dc3f7b7ca2a9d0b854468974802c400000000000000000000000000000000000000000000000000000000000000800000000000000000000000000000000000000000000000000000000000000000",
                    "decodedMethod": {
                        "callParams": [
                            {
                                "name": "amount0Out",
                                "type": "uint256",
                                "value": "205,242,844,939,015,519,187,941"
                            },
                            {
                                "name": "amount1Out",
                                "type": "uint256",
                                "value": "0"
                            },
                            {
                                "name": "to",
                                "type": "address",
                                "value": "0x5f0bee213e5dc3f7b7ca2a9d0b854468974802c4"
                            },
                            {
                                "name": "data",
                                "type": "bytes",
                                "value": "0x"
                            }
                        ],
                        "constructorArguments": "",
                        "name": "swap",
                        "returnParams": [],
                        "signature": "swap(uint256,uint256,address,bytes)"
                    },
                    "errorInfo": "",
                    "fromAddress": "0x33e7e9bac33ee273d7c81de3fc772fc65364810f",
                    "gasUsed": 47932,
                    "id": 6,
                    "methodDecoded": true,
                    "operation": "CALL",
                    "output": "",
                    "revert": false,
                    "revertMessage": "",
                    "selector": "0x022c0d9f",
                    "status": true,
                    "value": "0"
                },
                "nodeType": 0
            },
            "7": {
                "invocation": {
                    "address": "0x8b0e42f366ba502d787bb134478adfae966c8798",
                    "callData": "0x0000000000000000000000005f0bee213e5dc3f7b7ca2a9d0b854468974802c4000000000000000000000000000000000000000000002b763ca6b0d6578bb3e5",
                    "decodedMethod": {
                        "callParams": [
                            {
                                "name": "recipient",
                                "type": "address",
                                "value": "0x5f0bee213e5dc3f7b7ca2a9d0b854468974802c4"
                            },
                            {
                                "decimalAvailable": true,
                                "name": "amount",
                                "type": "uint256",
                                "value": "205,242,844,939,015,519,187,941"
                            }
                        ],
                        "constructorArguments": "",
                        "name": "transfer",
                        "returnParams": [
                            {
                                "name": "",
                                "type": "bool",
                                "value": true
                            }
                        ],
                        "signature": "transfer(address,uint256)"
                    },
                    "errorInfo": "",
                    "fromAddress": "0x2d9fd51e896ff0352cb6d697d13d04c2cb85ca83",
                    "gasUsed": 13017,
                    "id": 7,
                    "methodDecoded": true,
                    "operation": "CALL",
                    "output": "0x0000000000000000000000000000000000000000000000000000000000000001",
                    "revert": false,
                    "revertMessage": "",
                    "selector": "0xa9059cbb",
                    "status": true,
                    "value": "0"
                },
                "nodeType": 0
            },
            "8": {
                "event": {
                    "contract": "0x8b0e42f366ba502d787bb134478adfae966c8798",
                    "decodedLog": {
                        "name": "Transfer",
                        "params": [
                            {
                                "name": "from",
                                "type": "address",
                                "value": "0x2d9fd51e896ff0352cb6d697d13d04c2cb85ca83"
                            },
                            {
                                "name": "to",
                                "type": "address",
                                "value": "0x5f0bee213e5dc3f7b7ca2a9d0b854468974802c4"
                            },
                            {
                                "decimalAvailable": true,
                                "name": "amount",
                                "type": "uint256",
                                "value": "205,242,844,939,015,519,187,941"
                            }
                        ],
                        "signature": "Transfer(address,address,uint256)"
                    },
                    "id": 8,
                    "logData": "0x000000000000000000000000000000000000000000002b763ca6b0d6578bb3e5",
                    "logDecoded": true,
                    "operation": "EVENT",
                    "revert": false,
                    "status": true,
                    "topics": [
                        "0xddf252ad1be2c89b69c2b068fc378daa952ba7f163c4a11628f55a4df523b3ef",
                        "0x0000000000000000000000002d9fd51e896ff0352cb6d697d13d04c2cb85ca83",
                        "0x0000000000000000000000005f0bee213e5dc3f7b7ca2a9d0b854468974802c4"
                    ]
                },
                "nodeType": 1
            },
            "9": {
                "invocation": {
                    "address": "0x8b0e42f366ba502d787bb134478adfae966c8798",
                    "callData": "0x0000000000000000000000002d9fd51e896ff0352cb6d697d13d04c2cb85ca83",
                    "decodedMethod": {
                        "callParams": [
                            {
                                "name": "",
                                "type": "address",
                                "value": "0x2d9fd51e896ff0352cb6d697d13d04c2cb85ca83"
                            }
                        ],
                        "constructorArguments": "",
                        "name": "balanceOf",
                        "returnParams": [
                            {
                                "decimalAvailable": true,
                                "name": "",
                                "type": "uint256",
                                "value": "38,677,092,716,637,610,104,572,653"
                            }
                        ],
                        "signature": "balanceOf(address)"
                    },
                    "errorInfo": "",
                    "fromAddress": "0x2d9fd51e896ff0352cb6d697d13d04c2cb85ca83",
                    "gasUsed": 558,
                    "id": 9,
                    "methodDecoded": true,
                    "operation": "STATICCALL",
                    "output": "0x0000000000000000000000000000000000000000001ffe3165bea237d207caed",
                    "revert": false,
                    "revertMessage": "",
                    "selector": "0x70a08231",
                    "status": true,
                    "value": "0"
                },
                "nodeType": 0
            }
        },
        "gasFlame": [
            {
                "children": [
                    {
                        "children": [
                            {
                                "children": [],
                                "depth": 0,
                                "name": "Initial Gas",
                                "value": 22860
                            },
                            {
                                "children": [
                                    {
                                        "children": [],
                                        "depth": 1,
                                        "name": "getReserves",
                                        "value": 2504
                                    },
                                    {
                                        "children": [],
                                        "depth": 1,
                                        "name": "deposit",
                                        "value": 23974
                                    },
                                    {
                                        "children": [],
                                        "depth": 1,
                                        "name": "transfer",
                                        "value": 8062
                                    },
                                    {
                                        "children": [
                                            {
                                                "children": [],
                                                "depth": 2,
                                                "name": "transfer",
                                                "value": 13017
                                            },
                                            {
                                                "children": [],
                                                "depth": 2,
                                                "name": "balanceOf",
                                                "value": 558
                                            },
                                            {
                                                "children": [],
                                                "depth": 2,
                                                "name": "balanceOf",
                                                "value": 534
                                            }
                                        ],
                                        "depth": 1,
                                        "name": "swap",
                                        "value": 47932
                                    }
                                ],
                                "depth": 0,
                                "name": "Executed Gas",
                                "value": 101730
                            }
                        ],
                        "depth": -1,
                        "name": "Actual Gas Used",
                        "value": 101890
                    },
                    {
                        "children": [],
                        "depth": -1,
                        "name": "Refunded Gas",
                        "value": 22700
                    }
                ],
                "depth": -2,
                "name": "Total Gas",
                "value": 124590
            }
        ],
        "isConfirmed": true,
        "mainTrace": [
            {
                "children": [
                    {
                        "children": [
                            {
                                "children": [],
                                "depth": 1,
                                "id": 1,
                                "order": 1
                            },
                            {
                                "children": [
                                    {
                                        "children": [],
                                        "depth": 2,
                                        "id": 3,
                                        "order": 3
                                    }
                                ],
                                "depth": 1,
                                "id": 2,
                                "order": 2
                            },
                            {
                                "children": [
                                    {
                                        "children": [],
                                        "depth": 2,
                                        "id": 5,
                                        "order": 5
                                    }
                                ],
                                "depth": 1,
                                "id": 4,
                                "order": 4
                            },
                            {
                                "children": [
                                    {
                                        "children": [
                                            {
                                                "children": [],
                                                "depth": 3,
                                                "id": 8,
                                                "order": 8
                                            }
                                        ],
                                        "depth": 2,
                                        "id": 7,
                                        "order": 7
                                    },
                                    {
                                        "children": [],
                                        "depth": 2,
                                        "id": 9,
                                        "order": 9
                                    },
                                    {
                                        "children": [],
                                        "depth": 2,
                                        "id": 10,
                                        "order": 10
                                    },
                                    {
                                        "children": [],
                                        "depth": 2,
                                        "id": 11,
                                        "order": 11
                                    },
                                    {
                                        "children": [],
                                        "depth": 2,
                                        "id": 12,
                                        "order": 12
                                    }
                                ],
                                "depth": 1,
                                "id": 6,
                                "order": 6
                            }
                        ],
                        "depth": 0,
                        "id": 0,
                        "order": 0
                    }
                ],
                "depth": -1,
                "id": -1,
                "order": -1
            }
        ],
        "mainTraceNodeCount": 13,
        "parentIdMap": {
            "0": -1,
            "1": 0,
            "10": 6,
            "11": 6,
            "12": 6,
            "2": 0,
            "3": 2,
            "4": 0,
            "5": 4,
            "6": 0,
            "7": 6,
            "8": 7,
            "9": 6
        },
        "tidyTrace": [
            {
                "children": [
                    {
                        "children": [
                            {
                                "children": [
                                    {
                                        "children": [],
                                        "depth": 2,
                                        "id": 3,
                                        "order": 3
                                    }
                                ],
                                "depth": 1,
                                "id": 2,
                                "order": 2
                            },
                            {
                                "children": [
                                    {
                                        "children": [],
                                        "depth": 2,
                                        "id": 5,
                                        "order": 5
                                    }
                                ],
                                "depth": 1,
                                "id": 4,
                                "order": 4
                            },
                            {
                                "children": [
                                    {
                                        "children": [
                                            {
                                                "children": [],
                                                "depth": 3,
                                                "id": 8,
                                                "order": 8
                                            }
                                        ],
                                        "depth": 2,
                                        "id": 7,
                                        "order": 7
                                    },
                                    {
                                        "children": [],
                                        "depth": 2,
                                        "id": 11,
                                        "order": 11
                                    },
                                    {
                                        "children": [],
                                        "depth": 2,
                                        "id": 12,
                                        "order": 12
                                    }
                                ],
                                "depth": 1,
                                "id": 6,
                                "order": 6
                            }
                        ],
                        "depth": 0,
                        "id": 0,
                        "order": 0
                    }
                ],
                "depth": -1,
                "id": -1,
                "order": -1
            }
        ],
        "tidyTraceNodeCount": 10
    },
    "state_change": {
        "stateChanges": [
            {
                "address": "0x2d9fd51e896ff0352cb6d697d13d04c2cb85ca83",
                "erc": "ERC-20",
                "slots": [
                    {
                        "current": "0x00000000000000000000000000000000007726418ee29a6d41c261ed8b9a4788",
                        "key": "0x0000000000000000000000000000000000000000000000000000000000000009",
                        "prev": "0x0000000000000000000000000000000000772630f929c53b686323dff5fdd51b"
                    },
                    {
                        "current": "0x000000000000000000000000004f892ce7cab7e0fa251aa909f921b549a306b5",
                        "key": "0x000000000000000000000000000000000000000000000000000000000000000a",
                        "prev": "0x000000000000000000000000004f88bd6b0c4d380992c720e18571dd7e7f3b91"
                    },
                    {
                        "current": "0x60a0115f00000000000c78936431c586aac30000001ffe3165bea237d207caed",
                        "key": "0x0000000000000000000000000000000000000000000000000000000000000008",
                        "prev": "0x60a0113400000000000c67ac500780df72c30000002029a7a265530e29937ed2"
                    }
                ],
                "storageVariables": [
                    {
                        "name": "price0CumulativeLast",
                        "type": "uint256",
                        "value": {
                            "current": "618659251781964568189011982013843336",
                            "prev": "618657937794648742155486373890348315",
                            "typeTag": 1
                        }
                    },
                    {
                        "name": "price1CumulativeLast",
                        "type": "uint256",
                        "value": {
                            "current": "1773708534384955400485883489304543221977908917",
                            "prev": "1773670597229255975662664096879903110665812881",
                            "typeTag": 1
                        }
                    },
                    {
                        "name": "reserve0",
                        "type": "uint112",
                        "value": {
                            "current": "38677092716637610104572653",
                            "prev": "38882335561576625623760594",
                            "typeTag": 1
                        }
                    },
                    {
                        "name": "reserve1",
                        "type": "uint112",
                        "value": {
                            "current": "230049327155572550339",
                            "prev": "228831362759572550339",
                            "typeTag": 1
                        }
                    },
                    {
                        "name": "blockTimestampLast",
                        "type": "uint32",
                        "value": {
                            "current": "1621102943",
                            "prev": "1621102900",
                            "typeTag": 1
                        }
                    }
                ]
            },
            {
                "address": "0x8b0e42f366ba502d787bb134478adfae966c8798",
                "erc": "ERC-20",
                "slots": [
                    {
                        "current": "0x0000000000000000000000000000000000000000001ffe3165bea237d207caed",
                        "key": "0x63377ec2f0ec76edec2fa5e640ff1dba7925c99b35ab832ae9b68b39d7c03eff",
                        "prev": "0x0000000000000000000000000000000000000000002029a7a265530e29937ed2"
                    },
                    {
                        "current": "0x000000000000000000000000000000000000000000005954c864b4f62012591d",
                        "key": "0x8c5a212e6c8d9c5e9eb9c6251490ca1a0aeb0afcf56d66074dcc831b3f1e8134",
                        "prev": "0x000000000000000000000000000000000000000000002dde8bbe041fc886a538"
                    }
                ],
                "storageVariables": [
                    {
                        "name": "balanceOf",
                        "type": "mapping(address => uint256)",
                        "value": {
                            "pairs": [
                                {
                                    "key": "0x2d9fd51e896ff0352cb6d697d13d04c2cb85ca83",
                                    "value": {
                                        "current": "38677092716637610104572653",
                                        "prev": "38882335561576625623760594",
                                        "typeTag": 1
                                    }
                                },
                                {
                                    "key": "0x5f0bee213e5dc3f7b7ca2a9d0b854468974802c4",
                                    "value": {
                                        "current": "421854583342864476035357",
                                        "prev": "216611738403848956847416",
                                        "typeTag": 1
                                    }
                                }
                            ],
                            "typeTag": 4
                        }
                    }
                ]
            },
            {
                "address": "0xc02aaa39b223fe8d0a0e5c4f27ead9083c756cc2",
                "erc": "ERC-20",
                "slots": [
                    {
                        "current": "0x00000000000000000000000000000000000000000000000c78936431c586aac3",
                        "key": "0x2a2b13013700d39938b885260e4ce178c0ace9f2b61eb4b14312eb6dce3fceac",
                        "prev": "0x00000000000000000000000000000000000000000000000c67ac500780df72c3"
                    }
                ],
                "storageVariables": [
                    {
                        "name": "balanceOf",
                        "type": "mapping(address => uint256)",
                        "value": {
                            "pairs": [
                                {
                                    "key": "0x2d9fd51e896ff0352cb6d697d13d04c2cb85ca83",
                                    "value": {
                                        "current": "230049327155572550339",
                                        "prev": "228831362759572550339",
                                        "typeTag": 1
                                    }
                                }
                            ],
                            "typeTag": 4
                        }
                    }
                ]
            }
        ]
    }
}