{
    "balance_change": {
        "balanceChanges": [
            {
                "account": "0x2f415e2056cdbc707ad0a3e55b70d5497801cc53",
                "assets": [
                    {
                        "address": "0xeeeeeeeeeeeeeeeeeeeeeeeeeeeeeeeeeeeeeeee",
                        "amount": "0.016543788665239987",
                        "iconUrl": "https://assets.blocksec.com/image/1663669189317-3.png",
                        "isERC1155": false,
                        "isERC721": false,
                        "sign": false,
                        "value": "26.969849727720700603"
                    },
                    {
                        "address": "0x5f7b4821aa44efbde83a04d58638d7b0fd76a23c",
                        "amount": "1,700,000",
                        "iconUrl": "",
                        "isERC1155": false,
                        "isERC721": false,
                        "sign": true,
                        "value": ""
                    }
                ]
            },
            {
                "account": "0xdb5889e35e379ef0498aae126fc2cce1fbd23216",
                "assets": [
                    {
                        "address": "0xeeeeeeeeeeeeeeeeeeeeeeeeeeeeeeeeeeeeeeee",
                        "amount": "0.000072010117654476",
                        "iconUrl": "https://assets.blocksec.com/image/1663669189317-3.png",
                        "isERC1155": false,
                        "isERC721": false,
                        "sign": true,
                        "value": "0.117391613894206502615"
                    }
                ]
            },
            {
                "account": "0x4838b106fce9647bdf1e7877bf73ce8b0bad5f97",
                "assets": [
                    {
                        "address": "0xeeeeeeeeeeeeeeeeeeeeeeeeeeeeeeeeeeeeeeee",
                        "amount": "0.008",
                        "iconUrl": "https://assets.blocksec.com/image/1663669189317-3.png",
                        "isERC1155": false,
                        "isERC721": false,
                        "sign": true,
                        "value": "13.041680000000000291"
                    }
                ]
            },
            {
                "account": "0x5f7b4821aa44efbde83a04d58638d7b0fd76a23c",
                "assets": [
                    {
                        "address": "0x5f7b4821aa44efbde83a04d58638d7b0fd76a23c",
                        "amount": "300,000",
                        "iconUrl": "",
                        "isERC1155": false,
                        "isERC721": false,
                        "sign": true,
                        "value": ""
                    }
                ]
            },
            {
                "account": "0xbc5e56c8b5a9c7bdb74ffb1a63adc5131cb44e9a",
                "assets": [
                    {
                        "address": "0xc02aaa39b223fe8d0a0e5c4f27ead9083c756cc2",
                        "amount": "0.008471778547585511",
                        "iconUrl": "https://assets.blocksec.com/icon/f1cb2d02c471d545bbc7722daf3277fd852d98e63d118771af7047bd8256c516.png",
                        "isERC1155": false,
                        "isERC721": false,
                        "sign": true,
                        "value": "13.8107781067350803075"
                    },
                    {
                        "address": "0x5f7b4821aa44efbde83a04d58638d7b0fd76a23c",
                        "amount": "2,000,000",
                        "iconUrl": "",
                        "isERC1155": false,
                        "isERC721": false,
                        "sign": false,
                        "value": ""
                    }
                ]
            },
            {
                "account": "0xc02aaa39b223fe8d0a0e5c4f27ead9083c756cc2",
                "assets": [
                    {
                        "address": "0xeeeeeeeeeeeeeeeeeeeeeeeeeeeeeeeeeeeeeeee",
                        "amount": "0.008471778547585511",
                        "iconUrl": "https://assets.blocksec.com/image/1663669189317-3.png",
                        "isERC1155": false,
                        "isERC721": false,
                        "sign": true,
                        "value": "13.8107781067350803075"
                    },
                    {
                        "address": "0xc02aaa39b223fe8d0a0e5c4f27ead9083c756cc2",
                        "amount": "0.008471778547585511",
                        "iconUrl": "https://assets.blocksec.com/icon/f1cb2d02c471d545bbc7722daf3277fd852d98e63d118771af7047bd8256c516.png",
                        "isERC1155": false,
                        "isERC721": false,
                        "sign": false,
                        "value": "13.8107781067350803075"
                    }
                ]
            }
        ]
    },
    "profile": {
        "basic_info": {
            "baseFee": "10.574767449",
            "blockNumber": 18055745,
            "callData": "0x0162e2d000000000000000000000000000000000000000000000000000000000000000e000000000000000000000000000000000000000000000000000000000000001600000000000000000000000007a250d5630b4cf539739df2c5dacb4c659f2488d000000000000000000000000000000000000000000000000000000000000001e000000000000000000000000000000000000000000000000000000000000000200000000000000000000000000000000000000000000000000000000000000340000000000000000000000000000000000000000000000000000000064f4715b000000000000000000000000000000000000000000000000000000000000000300000000000000000000000000000000000000000000000000071afd498d00000000000000000000000000000000000000000000000000000000000000000000000000000000000000000000000000000000000000000000001c6bf5263400000000000000000000000000000000000000000000000000000000000000000002000000000000000000000000c02aaa39b223fe8d0a0e5c4f27ead9083c756cc20000000000000000000000005f7b4821aa44efbde83a04d58638d7b0fd76a23c",
            "debugEnable": true,
            "errorInfo": "",
            "eventCount": 9,
            "feeRecipient": "0x4838b106fce9647bdf1e7877bf73ce8b0bad5f97",
            "formatValue": "0.078",
            "gasLimit": 340223,
            "gasPrice": "10.574767449",
            "gasUsed": 192019,
            "intTxnCount": 14,
            "internalRevert": false,
            "internalRevertMessage": "",
            "isContractCreation": false,
            "isFlashloan": false,
            "maxFee": "10.574767449",
            "nonce": 134,
            "overwritedBlockNumber": -1,
            "priorityFee": "0",
            "receiver": "0xdb5889e35e379ef0498aae126fc2cce1fbd23216",
            "revertMessage": "",
            "sender": "0x2f415e2056cdbc707ad0a3e55b70d5497801cc53",
            "simulationEnable": true,
            "sourceTxnHash": "0x99de7c5d12da4fd92fbc347acd2d0c1268852a32cfa596e2aea43a7afb3dc33e",
            "status": true,
            "timestamp": "2023-09-03T11:43:23Z",
            "transactionFee": "0.002030556270789531",
            "txnHash": "0x99de7c5d12da4fd92fbc347acd2d0c1268852a32cfa596e2aea43a7afb3dc33e",
            "txnIndex": 3,
            "type": 2,
            "value": "78000000000000000"
        },
        "fund_flow": [
            {
                "amount": "0.078",
                "from": "0x2f415e2056cdbc707ad0a3e55b70d5497801cc53",
                "id": 1,
                "isERC1155": false,
                "isERC721": false,
                "isReverted": false,
                "order": 1,
                "to": "0xdb5889e35e379ef0498aae126fc2cce1fbd23216",
                "token": "0xeeeeeeeeeeeeeeeeeeeeeeeeeeeeeeeeeeeeeeee"
            },
            {
                "amount": "0.008",
                "from": "0xdb5889e35e379ef0498aae126fc2cce1fbd23216",
                "id": 2,
                "isERC1155": false,
                "isERC721": false,
                "isReverted": false,
                "order": 2,
                "to": "0x4838b106fce9647bdf1e7877bf73ce8b0bad5f97",
                "token": "0xeeeeeeeeeeeeeeeeeeeeeeeeeeeeeeeeeeeeeeee"
            },
            {
                "amount": "0.008471778547585511",
                "from": "0xdb5889e35e379ef0498aae126fc2cce1fbd23216",
                "id": 3,
                "isERC1155": false,
                "isERC721": false,
                "isReverted": false,
                "order": 3,
                "to": "0xc02aaa39b223fe8d0a0e5c4f27ead9083c756cc2",
                "token": "0xeeeeeeeeeeeeeeeeeeeeeeeeeeeeeeeeeeeeeeee"
            },
            {
                "amount": "0.008471778547585511",
                "from": "0xc02aaa39b223fe8d0a0e5c4f27ead9083c756cc2",
                "id": 4,
                "isERC1155": false,
                "isERC721": false,
                "isReverted": false,
                "order": 4,
                "to": "0xdb5889e35e379ef0498aae126fc2cce1fbd23216",
                "token": "0xc02aaa39b223fe8d0a0e5c4f27ead9083c756cc2"
            },
            {
                "amount": "0.008471778547585511",
                "from": "0xdb5889e35e379ef0498aae126fc2cce1fbd23216",
                "id": 5,
                "isERC1155": false,
                "isERC721": false,
                "isReverted": false,
                "order": 5,
                "to": "0xbc5e56c8b5a9c7bdb74ffb1a63adc5131cb44e9a",
                "token": "0xc02aaa39b223fe8d0a0e5c4f27ead9083c756cc2"
            },
            {
                "amount": "300,000",
                "from": "0xbc5e56c8b5a9c7bdb74ffb1a63adc5131cb44e9a",
                "id": 6,
                "isERC1155": false,
                "isERC721": false,
                "isReverted": false,
                "order": 6,
                "to": "0x5f7b4821aa44efbde83a04d58638d7b0fd76a23c",
                "token": "0x5f7b4821aa44efbde83a04d58638d7b0fd76a23c"
            },
            {
                "amount": "1,700,000",
                "from": "0xbc5e56c8b5a9c7bdb74ffb1a63adc5131cb44e9a",
                "id": 7,
                "isERC1155": false,
                "isERC721": false,
                "isReverted": false,
                "order": 7,
                "to": "0x2f415e2056cdbc707ad0a3e55b70d5497801cc53",
                "token": "0x5f7b4821aa44efbde83a04d58638d7b0fd76a23c"
            },
            {
                "amount": "0.061456211334760013",
                "from": "0xdb5889e35e379ef0498aae126fc2cce1fbd23216",
                "id": 8,
                "isERC1155": false,
                "isERC721": false,
                "isReverted": false,
                "order": 8,
                "to": "0x2f415e2056cdbc707ad0a3e55b70d5497801cc53",
                "token": "0xeeeeeeeeeeeeeeeeeeeeeeeeeeeeeeeeeeeeeeee"
            }
        ],
        "token_infos": [
            {
                "address": "0x5f7b4821aa44efbde83a04d58638d7b0fd76a23c",
                "decimals": 9
            },
            {
                "address": "0xc02aaa39b223fe8d0a0e5c4f27ead9083c756cc2",
                "decimals": 18
            },
            {
                "address": "0xeeeeeeeeeeeeeeeeeeeeeeeeeeeeeeeeeeeeeeee",
                "decimals": 18
            }
        ]
    },
    "address_label": {
        "labels": [
            {
                "address": "0x5f7b4821aa44efbde83a04d58638d7b0fd76a23c",
                "label": "D-LUM"
            },
            {
                "address": "0x0000000000000000000000000000000000000001",
                "label": "Precompiled"
            },
            {
                "address": "0x0000000000000000000000000000000000000003",
                "label": "Precompiled"
            },
            {
                "address": "0xeeeeeeeeeeeeeeeeeeeeeeeeeeeeeeeeeeeeeeee",
                "label": "Ether"
            },
            {
                "address": "0xbc5e56c8b5a9c7bdb74ffb1a63adc5131cb44e9a",
                "label": "Uniswap V2: D-LUM"
            },
            {
                "address": "0x4838b106fce9647bdf1e7877bf73ce8b0bad5f97",
                "label": "Titan Builder"
            },
            {
                "address": "0x0000000000000000000000000000000000000004",
                "label": "Precompiled"
            },
            {
                "address": "0xc02aaa39b223fe8d0a0e5c4f27ead9083c756cc2",
                "label": "Wrapped Ether (WETH)"
            },
            {
                "address": "0xdb5889e35e379ef0498aae126fc2cce1fbd23216",
                "label": "Banana Gun: Router"
            },
            {
                "address": "0x0000000000000000000000000000000000000002",
                "label": "Precompiled"
            }
        ]
    },
    "trace": {
        "accountLabels": null,
        "dataMap": {
            "-1": {
                "invocation": {
                    "address": "0x2f415e2056cdbc707ad0a3e55b70d5497801cc53",
                    "callData": "",
                    "decodedMethod": null,
                    "errorInfo": "",
                    "fromAddress": "",
                    "gasUsed": 0,
                    "id": -1,
                    "methodDecoded": false,
                    "operation": "",
                    "output": "",
                    "revert": false,
                    "revertMessage": "",
                    "selector": "",
                    "status": false,
                    "value": ""
                },
                "nodeType": 0
            },
            "0": {
                "invocation": {
                    "address": "0xdb5889e35e379ef0498aae126fc2cce1fbd23216",
                    "callData": "0x00000000000000000000000000000000000000000000000000000000000000e000000000000000000000000000000000000000000000000000000000000001600000000000000000000000007a250d5630b4cf539739df2c5dacb4c659f2488d000000000000000000000000000000000000000000000000000000000000001e000000000000000000000000000000000000000000000000000000000000000200000000000000000000000000000000000000000000000000000000000000340000000000000000000000000000000000000000000000000000000064f4715b000000000000000000000000000000000000000000000000000000000000000300000000000000000000000000000000000000000000000000071afd498d00000000000000000000000000000000000000000000000000000000000000000000000000000000000000000000000000000000000000000000001c6bf5263400000000000000000000000000000000000000000000000000000000000000000002000000000000000000000000c02aaa39b223fe8d0a0e5c4f27ead9083c756cc20000000000000000000000005f7b4821aa44efbde83a04d58638d7b0fd76a23c",
                    "decodedMethod": null,
                    "errorInfo": "",
                    "fromAddress": "0x2f415e2056cdbc707ad0a3e55b70d5497801cc53",
                    "gasUsed": 192019,
                    "id": 0,
                    "methodDecoded": false,
                    "operation": "CALL",
                    "output": "",
                    "revert": false,
                    "revertMessage": "",
                    "selector": "0x0162e2d0",
                    "status": true,
                    "value": "0.078"
                },
                "nodeType": 0
            },
            "1": {
                "invocation": {
                    "address": "0x4838b106fce9647bdf1e7877bf73ce8b0bad5f97",
                    "callData": "0x",
                    "decodedMethod": null,
                    "errorInfo": "",
                    "fromAddress": "0xdb5889e35e379ef0498aae126fc2cce1fbd23216",
                    "gasUsed": 0,
                    "id": 1,
                    "methodDecoded": false,
                    "operation": "CALL",
                    "output": "",
                    "revert": false,
                    "revertMessage": "",
                    "selector": "fallback",
                    "status": true,
                    "value": "0.008"
                },
                "nodeType": 0
            },
            "10": {
                "invocation": {
                    "address": "0xc6265979793435b496e28e61af1500c22c3ba277",
                    "callData": "0x000000000000000000000000000000000000000000000000000000000000008000000000000000000000000000000000000000000000000000000000000000e00000000000000000000000002f415e2056cdbc707ad0a3e55b70d5497801cc530000000000000000000000007a250d5630b4cf539739df2c5dacb4c659f2488d0000000000000000000000000000000000000000000000000000000000000002000000000000000000000000000000000000000000000000001e1909a6f1d1e700000000000000000000000000000000000000000000000000071afd498d00000000000000000000000000000000000000000000000000000000000000000002000000000000000000000000c02aaa39b223fe8d0a0e5c4f27ead9083c756cc20000000000000000000000005f7b4821aa44efbde83a04d58638d7b0fd76a23c",
                    "decodedMethod": null,
                    "errorInfo": "",
                    "fromAddress": "0xdb5889e35e379ef0498aae126fc2cce1fbd23216",
                    "gasUsed": 94668,
                    "id": 10,
                    "methodDecoded": false,
                    "operation": "CALL",
                    "output": "",
                    "revert": false,
                    "revertMessage": "",
                    "selector": "0x7039ff4a",
                    "status": true,
                    "value": "0"
                },
                "nodeType": 0
            },
            "11": {
                "invocation": {
                    "address": "0xbc5e56c8b5a9c7bdb74ffb1a63adc5131cb44e9a",
                    "callData": "0x00000000000000000000000000000000000000000000000000071afd498d000000000000000000000000000000000000000000000000000000000000000000000000000000000000000000002f415e2056cdbc707ad0a3e55b70d5497801cc5300000000000000000000000000000000000000000000000000000000000000800000000000000000000000000000000000000000000000000000000000000000",
                    "decodedMethod": {
                        "callParams": [
                            {
                                "name": "amount0Out",
                                "type": "uint256",
                                "value": "2,000,000,000,000,000"
                            },
                            {
                                "name": "amount1Out",
                                "type": "uint256",
                                "value": "0"
                            },
                            {
                                "name": "to",
                                "type": "address",
                                "value": "0x2f415e2056cdbc707ad0a3e55b70d5497801cc53"
                            },
                            {
                                "name": "data",
                                "type": "bytes",
                                "value": "0x"
                            }
                        ],
                        "constructorArguments": "",
                        "name": "swap",
                        "returnParams": [],
                        "signature": "swap(uint256,uint256,address,bytes)"
                    },
                    "errorInfo": "",
                    "fromAddress": "0xc6265979793435b496e28e61af1500c22c3ba277",
                    "gasUsed": 91381,
                    "id": 11,
                    "methodDecoded": true,
                    "operation": "CALL",
                    "output": "",
                    "revert": false,
                    "revertMessage": "",
                    "selector": "0x022c0d9f",
                    "status": true,
                    "value": "0"
                },
                "nodeType": 0
            },
            "12": {
                "invocation": {
                    "address": "0x5f7b4821aa44efbde83a04d58638d7b0fd76a23c",
                    "callData": "0x0000000000000000000000002f415e2056cdbc707ad0a3e55b70d5497801cc5300000000000000000000000000000000000000000000000000071afd498d0000",
                    "decodedMethod": {
                        "callParams": [
                            {
                                "name": "recipient",
                                "type": "address",
                                "value": "0x2f415e2056cdbc707ad0a3e55b70d5497801cc53"
                            },
                            {
                                "decimalAvailable": true,
                                "name": "amount",
                                "type": "uint256",
                                "value": "2,000,000,000,000,000"
                            }
                        ],
                        "constructorArguments": "",
                        "name": "transfer",
                        "returnParams": [
                            {
                                "name": "",
                                "type": "bool",
                                "value": true
                            }
                        ],
                        "signature": "transfer(address,uint256)"
                    },
                    "errorInfo": "",
                    "fromAddress": "0xbc5e56c8b5a9c7bdb74ffb1a63adc5131cb44e9a",
                    "gasUsed": 69022,
                    "id": 12,
                    "methodDecoded": true,
                    "operation": "CALL",
                    "output": "0x0000000000000000000000000000000000000000000000000000000000000001",
                    "revert": false,
                    "revertMessage": "",
                    "selector": "0xa9059cbb",
                    "status": true,
                    "value": "0"
                },
                "nodeType": 0
            },
            "13": {
                "event": {
                    "contract": "0x5f7b4821aa44efbde83a04d58638d7b0fd76a23c",
                    "decodedLog": {
                        "name": "Transfer",
                        "params": [
                            {
                                "name": "from",
                                "type": "address",
                                "value": "0xbc5e56c8b5a9c7bdb74ffb1a63adc5131cb44e9a"
                            },
                            {
                                "name": "to",
                                "type": "address",
                                "value": "0x5f7b4821aa44efbde83a04d58638d7b0fd76a23c"
                            },
                            {
                                "decimalAvailable": true,
                                "name": "value",
                                "type": "uint256",
                                "value": "300,000,000,000,000"
                            }
                        ],
                        "signature": "Transfer(address,address,uint256)"
                    },
                    "id": 13,
                    "logData": "0x000000000000000000000000000000000000000000000000000110d9316ec000",
                    "logDecoded": true,
                    "operation": "EVENT",
                    "revert": false,
                    "status": true,
                    "topics": [
                        "0xddf252ad1be2c89b69c2b068fc378daa952ba7f163c4a11628f55a4df523b3ef",
                        "0x000000000000000000000000bc5e56c8b5a9c7bdb74ffb1a63adc5131cb44e9a",
                        "0x0000000000000000000000005f7b4821aa44efbde83a04d58638d7b0fd76a23c"
                    ]
                },
                "nodeType": 1
            },
            "14": {
                "event": {
                    "contract": "0x5f7b4821aa44efbde83a04d58638d7b0fd76a23c",
                    "decodedLog": {
                        "name": "Transfer",
                        "params": [
                            {
                                "name": "from",
                                "type": "address",
                                "value": "0xbc5e56c8b5a9c7bdb74ffb1a63adc5131cb44e9a"
                            },
                            {
                                "name": "to",
                                "type": "address",
                                "value": "0x2f415e2056cdbc707ad0a3e55b70d5497801cc53"
                            },
                            {
                                "decimalAvailable": true,
                                "name": "value",
                                "type": "uint256",
                                "value": "1,700,000,000,000,000"
                            }
                        ],
                        "signature": "Transfer(address,address,uint256)"
                    },
                    "id": 14,
                    "logData": "0x00000000000000000000000000000000000000000000000000060a24181e4000",
                    "logDecoded": true,
                    "operation": "EVENT",
                    "revert": false,
                    "status": true,
                    "topics": [
                        "0xddf252ad1be2c89b69c2b068fc378daa952ba7f163c4a11628f55a4df523b3ef",
                        "0x000000000000000000000000bc5e56c8b5a9c7bdb74ffb1a63adc5131cb44e9a",
                        "0x0000000000000000000000002f415e2056cdbc707ad0a3e55b70d5497801cc53"
                    ]
                },
                "nodeType": 1
            },
            "15": {
                "invocation": {
                    "address": "0x5f7b4821aa44efbde83a04d58638d7b0fd76a23c",
                    "callData": "0x000000000000000000000000bc5e56c8b5a9c7bdb74ffb1a63adc5131cb44e9a",
                    "decodedMethod": {
                        "callParams": [
                            {
                                "name": "account",
                                "type": "address",
                                "value": "0xbc5e56c8b5a9c7bdb74ffb1a63adc5131cb44e9a"
                            }
                        ],
                        "constructorArguments": "",
                        "name": "balanceOf",
                        "returnParams": [
                            {
                                "decimalAvailable": true,
                                "name": "",
                                "type": "uint256",
                                "value": "74,750,000,000,000,000"
                            }
                        ],
                        "signature": "balanceOf(address)"
                    },
                    "errorInfo": "",
                    "fromAddress": "0xbc5e56c8b5a9c7bdb74ffb1a63adc5131cb44e9a",
                    "gasUsed": 918,
                    "id": 15,
                    "methodDecoded": true,
                    "operation": "STATICCALL",
                    "output": "0x000000000000000000000000000000000000000000000000010990ba9cf5e000",
                    "revert": false,
                    "revertMessage": "",
                    "selector": "0x70a08231",
                    "status": true,
                    "value": "0"
                },
                "nodeType": 0
            },
            "16": {
                "invocation": {
                    "address": "0xc02aaa39b223fe8d0a0e5c4f27ead9083c756cc2",
                    "callData": "0x000000000000000000000000bc5e56c8b5a9c7bdb74ffb1a63adc5131cb44e9a",
                    "decodedMethod": {
                        "callParams": [
                            {
                                "name": "",
                                "type": "address",
                                "value": "0xbc5e56c8b5a9c7bdb74ffb1a63adc5131cb44e9a"
                            }
                        ],
                        "constructorArguments": "",
                        "name": "balanceOf",
                        "returnParams": [
                            {
                                "decimalAvailable": true,
                                "name": "",
                                "type": "uint256",
                                "value": "324,154,603,593,945,935"
                            }
                        ],
                        "signature": "balanceOf(address)"
                    },
                    "errorInfo": "",
                    "fromAddress": "0xbc5e56c8b5a9c7bdb74ffb1a63adc5131cb44e9a",
                    "gasUsed": 534,
                    "id": 16,
                    "methodDecoded": true,
                    "operation": "STATICCALL",
                    "output": "0x000000000000000000000000000000000000000000000000047fa0e4ff86534f",
                    "revert": false,
                    "revertMessage": "",
                    "selector": "0x70a08231",
                    "status": true,
                    "value": "0"
                },
                "nodeType": 0
            },
            "17": {
                "event": {
                    "contract": "0xbc5e56c8b5a9c7bdb74ffb1a63adc5131cb44e9a",
                    "decodedLog": {
                        "name": "Sync",
                        "params": [
                            {
                                "name": "reserve0",
                                "type": "uint112",
                                "value": "74,750,000,000,000,000"
                            },
                            {
                                "name": "reserve1",
                                "type": "uint112",
                                "value": "324,154,603,593,945,935"
                            }
                        ],
                        "signature": "Sync(uint112,uint112)"
                    },
                    "id": 17,
                    "logData": "0x000000000000000000000000000000000000000000000000010990ba9cf5e000000000000000000000000000000000000000000000000000047fa0e4ff86534f",
                    "logDecoded": true,
                    "operation": "EVENT",
                    "revert": false,
                    "status": true,
                    "topics": [
                        "0x1c411e9a96e071241c2f21f7726b17ae89e3cab4c78be50e062b03a9fffbbad1"
                    ]
                },
                "nodeType": 1
            },
            "18": {
                "event": {
                    "contract": "0xbc5e56c8b5a9c7bdb74ffb1a63adc5131cb44e9a",
                    "decodedLog": {
                        "name": "Swap",
                        "params": [
                            {
                                "name": "sender",
                                "type": "address",
                                "value": "0xc6265979793435b496e28e61af1500c22c3ba277"
                            },
                            {
                                "name": "to",
                                "type": "address",
                                "value": "0x2f415e2056cdbc707ad0a3e55b70d5497801cc53"
                            },
                            {
                                "name": "amount0In",
                                "type": "uint256",
                                "value": "0"
                            },
                            {
                                "name": "amount1In",
                                "type": "uint256",
                                "value": "8,471,778,547,585,511"
                            },
                            {
                                "name": "amount0Out",
                                "type": "uint256",
                                "value": "2,000,000,000,000,000"
                            },
                            {
                                "name": "amount1Out",
                                "type": "uint256",
                                "value": "0"
                            }
                        ],
                        "signature": "Swap(address,uint256,uint256,uint256,uint256,address)"
                    },
                    "id": 18,
                    "logData": "0x0000000000000000000000000000000000000000000000000000000000000000000000000000000000000000000000000000000000000000001e1909a6f1d1e700000000000000000000000000000000000000000000000000071afd498d00000000000000000000000000000000000000000000000000000000000000000000",
                    "logDecoded": true,
                    "operation": "EVENT",
                    "revert": false,
                    "status": true,
                    "topics": [
                        "0xd78ad95fa46c994b6551d0da85fc275fe613ce37657fb8d5e3d130840159d822",
                        "0x000000000000000000000000c6265979793435b496e28e61af1500c22c3ba277",
                        "0x0000000000000000000000002f415e2056cdbc707ad0a3e55b70d5497801cc53"
                    ]
                },
                "nodeType": 1
            },
            "19": {
                "invocation": {
                    "address": "0x5f7b4821aa44efbde83a04d58638d7b0fd76a23c",
                    "callData": "0x0000000000000000000000002f415e2056cdbc707ad0a3e55b70d5497801cc53",
                    "decodedMethod": {
                        "callParams": [
                            {
                                "name": "account",
                                "type": "address",
                                "value": "0x2f415e2056cdbc707ad0a3e55b70d5497801cc53"
                            }
                        ],
                        "constructorArguments": "",
                        "name": "balanceOf",
                        "returnParams": [
                            {
                                "decimalAvailable": true,
                                "name": "",
                                "type": "uint256",
                                "value": "1,700,000,000,000,000"
                            }
                        ],
                        "signature": "balanceOf(address)"
                    },
                    "errorInfo": "",
                    "fromAddress": "0xdb5889e35e379ef0498aae126fc2cce1fbd23216",
                    "gasUsed": 918,
                    "id": 19,
                    "methodDecoded": true,
                    "operation": "STATICCALL",
                    "output": "0x00000000000000000000000000000000000000000000000000060a24181e4000",
                    "revert": false,
                    "revertMessage": "",
                    "selector": "0x70a08231",
                    "status": true,
                    "value": "0"
                },
                "nodeType": 0
            },
            "2": {
                "invocation": {
                    "address": "0xc6265979793435b496e28e61af1500c22c3ba277",
                    "callData": "0x00000000000000000000000000000000000000000000000000071afd498d000000000000000000000000000000000000000000000000000000000000000000600000000000000000000000007a250d5630b4cf539739df2c5dacb4c659f2488d0000000000000000000000000000000000000000000000000000000000000002000000000000000000000000c02aaa39b223fe8d0a0e5c4f27ead9083c756cc20000000000000000000000005f7b4821aa44efbde83a04d58638d7b0fd76a23c",
                    "decodedMethod": null,
                    "errorInfo": "",
                    "fromAddress": "0xdb5889e35e379ef0498aae126fc2cce1fbd23216",
                    "gasUsed": 9164,
                    "id": 2,
                    "methodDecoded": false,
                    "operation": "STATICCALL",
                    "output": "0x00000000000000000000000000000000000000000000000000000000000000200000000000000000000000000000000000000000000000000000000000000002000000000000000000000000000000000000000000000000001e1909a6f1d1e700000000000000000000000000000000000000000000000000071afd498d0000",
                    "revert": false,
                    "revertMessage": "",
                    "selector": "0x64f54837",
                    "status": true,
                    "value": "0"
                },
                "nodeType": 0
            },
            "20": {
                "event": {
                    "contract": "0xdb5889e35e379ef0498aae126fc2cce1fbd23216",
                    "decodedLog": null,
                    "id": 20,
                    "logData": "0x0000000000000000000000000000000000000000000000000000417e297ba7cc0000000000000000000000000000000000000000000000000000000000000034",
                    "logDecoded": false,
                    "operation": "EVENT",
                    "revert": false,
                    "status": true,
                    "topics": [
                        "0x6cb8c9cbcedb37b7d125170f5d929dbbdb3203c8fd4d60356b496fa31f77fd00"
                    ]
                },
                "nodeType": 1
            },
            "21": {
                "event": {
                    "contract": "0xdb5889e35e379ef0498aae126fc2cce1fbd23216",
                    "decodedLog": null,
                    "id": 21,
                    "logData": "0x0000000000000000000000000000000000000000000000000000417e297ba7cc0000000000000000000000002f415e2056cdbc707ad0a3e55b70d5497801cc53",
                    "logDecoded": false,
                    "operation": "EVENT",
                    "revert": false,
                    "status": true,
                    "topics": [
                        "0x0c2a2f565c7774c59e49ef6b3c255329f4d254147e06e724d3a8569bb7bd21ad"
                    ]
                },
                "nodeType": 1
            },
            "22": {
                "invocation": {
                    "address": "0x2f415e2056cdbc707ad0a3e55b70d5497801cc53",
                    "callData": "0x",
                    "decodedMethod": null,
                    "errorInfo": "",
                    "fromAddress": "0xdb5889e35e379ef0498aae126fc2cce1fbd23216",
                    "gasUsed": 0,
                    "id": 22,
                    "methodDecoded": false,
                    "operation": "CALL",
                    "output": "",
                    "revert": false,
                    "revertMessage": "",
                    "selector": "fallback",
                    "status": true,
                    "value": "0.061456211334760013"
                },
                "nodeType": 0
            },
            "23": {
                "event": {
                    "contract": "0xdb5889e35e379ef0498aae126fc2cce1fbd23216",
                    "decodedLog": null,
                    "id": 23,
                    "logData": "0x000000000000000000000000000000000000000000000000001e1909a6f1d1e700000000000000000000000000000000000000000000000000060a24181e400000000000000000000000000000000000000000000000000000071afd498d0000",
                    "logDecoded": false,
                    "operation": "EVENT",
                    "revert": false,
                    "status": true,
                    "topics": [
                        "0x9f849d23f4955d98202378ea318f2b0c7533695d3c9fb2a3931f0f919fa8c420"
                    ]
                },
                "nodeType": 1
            },
            "3": {
                "invocation": {
                    "address": "0xbc5e56c8b5a9c7bdb74ffb1a63adc5131cb44e9a",
                    "callData": "0x",
                    "decodedMethod": {
                        "callParams": [],
                        "constructorArguments": "",
                        "name": "getReserves",
                        "returnParams": [
                            {
                                "name": "_reserve0",
                                "type": "uint112",
                                "value": "76,750,000,000,000,000"
                            },
                            {
                                "name": "_reserve1",
                                "type": "uint112",
                                "value": "315,682,825,046,360,424"
                            },
                            {
                                "name": "_blockTimestampLast",
                                "type": "uint32",
                                "value": "1,693,741,403"
                            }
                        ],
                        "signature": "getReserves()"
                    },
                    "errorInfo": "",
                    "fromAddress": "0xc6265979793435b496e28e61af1500c22c3ba277",
                    "gasUsed": 2504,
                    "id": 3,
                    "methodDecoded": true,
                    "operation": "STATICCALL",
                    "output": "0x0000000000000000000000000000000000000000000000000110abb7e682e000000000000000000000000000000000000000000000000000046187db589481680000000000000000000000000000000000000000000000000000000064f4715b",
                    "revert": false,
                    "revertMessage": "",
                    "selector": "0x0902f1ac",
                    "status": true,
                    "value": "0"
                },
                "nodeType": 0
            },
            "4": {
                "invocation": {
                    "address": "0xc02aaa39b223fe8d0a0e5c4f27ead9083c756cc2",
                    "callData": "0x",
                    "decodedMethod": {
                        "callParams": [],
                        "constructorArguments": "",
                        "name": "deposit",
                        "returnParams": [],
                        "signature": "deposit()"
                    },
                    "errorInfo": "",
                    "fromAddress": "0xdb5889e35e379ef0498aae126fc2cce1fbd23216",
                    "gasUsed": 23974,
                    "id": 4,
                    "methodDecoded": true,
                    "operation": "CALL",
                    "output": "",
                    "revert": false,
                    "revertMessage": "",
                    "selector": "0xd0e30db0",
                    "status": true,
                    "value": "0.008471778547585511"
                },
                "nodeType": 0
            },
            "5": {
                "event": {
                    "contract": "0xc02aaa39b223fe8d0a0e5c4f27ead9083c756cc2",
                    "decodedLog": {
                        "name": "Deposit",
                        "params": [
                            {
                                "name": "dst",
                                "type": "address",
                                "value": "0xdb5889e35e379ef0498aae126fc2cce1fbd23216"
                            },
                            {
                                "name": "wad",
                                "type": "uint256",
                                "value": "8,471,778,547,585,511"
                            }
                        ],
                        "signature": "Deposit(address,uint256)"
                    },
                    "id": 5,
                    "logData": "0x000000000000000000000000000000000000000000000000001e1909a6f1d1e7",
                    "logDecoded": true,
                    "operation": "EVENT",
                    "revert": false,
                    "status": true,
                    "topics": [
                        "0xe1fffcc4923d04b559f4d29a8bfc6cda04eb5b0d3c460751c2402c5c5cc9109c",
                        "0x000000000000000000000000db5889e35e379ef0498aae126fc2cce1fbd23216"
                    ]
                },
                "nodeType": 1
            },
            "6": {
                "invocation": {
                    "address": "0xc6265979793435b496e28e61af1500c22c3ba277",
                    "callData": "0x0000000000000000000000007a250d5630b4cf539739df2c5dacb4c659f2488d000000000000000000000000c02aaa39b223fe8d0a0e5c4f27ead9083c756cc20000000000000000000000005f7b4821aa44efbde83a04d58638d7b0fd76a23c",
                    "decodedMethod": null,
                    "errorInfo": "",
                    "fromAddress": "0xdb5889e35e379ef0498aae126fc2cce1fbd23216",
                    "gasUsed": 1419,
                    "id": 6,
                    "methodDecoded": false,
                    "operation": "STATICCALL",
                    "output": "0x000000000000000000000000bc5e56c8b5a9c7bdb74ffb1a63adc5131cb44e9a",
                    "revert": false,
                    "revertMessage": "",
                    "selector": "0x88813e1f",
                    "status": true,
                    "value": "0"
                },
                "nodeType": 0
            },
            "7": {
                "invocation": {
                    "address": "0xc02aaa39b223fe8d0a0e5c4f27ead9083c756cc2",
                    "callData": "0x000000000000000000000000bc5e56c8b5a9c7bdb74ffb1a63adc5131cb44e9a000000000000000000000000000000000000000000000000001e1909a6f1d1e7",
                    "decodedMethod": {
                        "callParams": [
                            {
                                "name": "dst",
                                "type": "address",
                                "value": "0xbc5e56c8b5a9c7bdb74ffb1a63adc5131cb44e9a"
                            },
                            {
                                "decimalAvailable": true,
                                "name": "wad",
                                "type": "uint256",
                                "value": "8,471,778,547,585,511"
                            }
                        ],
                        "constructorArguments": "",
                        "name": "transfer",
                        "returnParams": [
                            {
                                "name": "",
                                "type": "bool",
                                "value": true
                            }
                        ],
                        "signature": "transfer(address,uint256)"
                    },
                    "errorInfo": "",
                    "fromAddress": "0xdb5889e35e379ef0498aae126fc2cce1fbd23216",
                    "gasUsed": 8062,
                    "id": 7,
                    "methodDecoded": true,
                    "operation": "CALL",
                    "output": "0x0000000000000000000000000000000000000000000000000000000000000001",
                    "revert": false,
                    "revertMessage": "",
                    "selector": "0xa9059cbb",
                    "status": true,
                    "value": "0"
                },
                "nodeType": 0
            },
            "8": {
                "event": {
                    "contract": "0xc02aaa39b223fe8d0a0e5c4f27ead9083c756cc2",
                    "decodedLog": {
                        "name": "Transfer",
                        "params": [
                            {
                                "name": "src",
                                "type": "address",
                                "value": "0xdb5889e35e379ef0498aae126fc2cce1fbd23216"
                            },
                            {
                                "name": "dst",
                                "type": "address",
                                "value": "0xbc5e56c8b5a9c7bdb74ffb1a63adc5131cb44e9a"
                            },
                            {
                                "decimalAvailable": true,
                                "name": "wad",
                                "type": "uint256",
                                "value": "8,471,778,547,585,511"
                            }
                        ],
                        "signature": "Transfer(address,address,uint256)"
                    },
                    "id": 8,
                    "logData": "0x000000000000000000000000000000000000000000000000001e1909a6f1d1e7",
                    "logDecoded": true,
                    "operation": "EVENT",
                    "revert": false,
                    "status": true,
                    "topics": [
                        "0xddf252ad1be2c89b69c2b068fc378daa952ba7f163c4a11628f55a4df523b3ef",
                        "0x000000000000000000000000db5889e35e379ef0498aae126fc2cce1fbd23216",
                        "0x000000000000000000000000bc5e56c8b5a9c7bdb74ffb1a63adc5131cb44e9a"
                    ]
                },
                "nodeType": 1
            },
            "9": {
                "invocation": {
                    "address": "0x5f7b4821aa44efbde83a04d58638d7b0fd76a23c",
                    "callData": "0x0000000000000000000000002f415e2056cdbc707ad0a3e55b70d5497801cc53",
                    "decodedMethod": {
                        "callParams": [
                            {
                                "name": "account",
                                "type": "address",
                                "value": "0x2f415e2056cdbc707ad0a3e55b70d5497801cc53"
                            }
                        ],
                        "constructorArguments": "",
                        "name": "balanceOf",
                        "returnParams": [
                            {
                                "decimalAvailable": true,
                                "name": "",
                                "type": "uint256",
                                "value": "0"
                            }
                        ],
                        "signature": "balanceOf(address)"
                    },
                    "errorInfo": "",
                    "fromAddress": "0xdb5889e35e379ef0498aae126fc2cce1fbd23216",
                    "gasUsed": 2918,
                    "id": 9,
                    "methodDecoded": true,
                    "operation": "STATICCALL",
                    "output": "0x0000000000000000000000000000000000000000000000000000000000000000",
                    "revert": false,
                    "revertMessage": "",
                    "selector": "0x70a08231",
                    "status": true,
                    "value": "0"
                },
                "nodeType": 0
            }
        },
        "gasFlame": [
            {
                "children": [
                    {
                        "children": [
                            {
                                "children": [],
                                "depth": 0,
                                "name": "Initial Gas",
                                "value": 23840
                            },
                            {
                                "children": [
                                    {
                                        "children": [],
                                        "depth": 1,
                                        "name": "fallback",
                                        "value": 0
                                    },
                                    {
                                        "children": [
                                            {
                                                "children": [],
                                                "depth": 2,
                                                "name": "getReserves",
                                                "value": 2504
                                            }
                                        ],
                                        "depth": 1,
                                        "name": "0x64f54837",
                                        "value": 9164
                                    },
                                    {
                                        "children": [],
                                        "depth": 1,
                                        "name": "deposit",
                                        "value": 23974
                                    },
                                    {
                                        "children": [],
                                        "depth": 1,
                                        "name": "0x88813e1f",
                                        "value": 1419
                                    },
                                    {
                                        "children": [],
                                        "depth": 1,
                                        "name": "transfer",
                                        "value": 8062
                                    },
                                    {
                                        "children": [],
                                        "depth": 1,
                                        "name": "balanceOf",
                                        "value": 2918
                                    },
                                    {
                                        "children": [
                                            {
                                                "children": [
                                                    {
                                                        "children": [],
                                                        "depth": 3,
                                                        "name": "transfer",
                                                        "value": 69022
                                                    },
                                                    {
                                                        "children": [],
                                                        "depth": 3,
                                                        "name": "balanceOf",
                                                        "value": 918
                                                    },
                                                    {
                                                        "children": [],
                                                        "depth": 3,
                                                        "name": "balanceOf",
                                                        "value": 534
                                                    }
                                                ],
                                                "depth": 2,
                                                "name": "swap",
                                                "value": 91381
                                            }
                                        ],
                                        "depth": 1,
                                        "name": "0x7039ff4a",
                                        "value": 94668
                                    },
                                    {
                                        "children": [],
                                        "depth": 1,
                                        "name": "balanceOf",
                                        "value": 918
                                    },
                                    {
                                        "children": [],
                                        "depth": 1,
                                        "name": "fallback",
                                        "value": 0
                                    }
                                ],
                                "depth": 0,
                                "name": "Executed Gas",
                                "value": 190879
                            }
                        ],
                        "depth": -1,
                        "name": "Actual Gas Used",
                        "value": 192019
                    },
                    {
                        "children": [],
                        "depth": -1,
                        "name": "Refunded Gas",
                        "value": 22700
                    }
                ],
                "depth": -2,
                "name": "Total Gas",
                "value": 214719
            }
        ],
        "isConfirmed": true,
        "mainTrace": [
            {
                "children": [
                    {
                        "children": [
                            {
                                "children": [],
                                "depth": 1,
                                "id": 1,
                                "order": 1
                            },
                            {
                                "children": [
                                    {
                                        "children": [],
                                        "depth": 2,
                                        "id": 3,
                                        "order": 3
                                    }
                                ],
                                "depth": 1,
                                "id": 2,
                                "order": 2
                            },
                            {
                                "children": [
                                    {
                                        "children": [],
                                        "depth": 2,
                                        "id": 5,
                                        "order": 5
                                    }
                                ],
                                "depth": 1,
                                "id": 4,
                                "order": 4
                            },
                            {
                                "children": [],
                                "depth": 1,
                                "id": 6,
                                "order": 6
                            },
                            {
                                "children": [
                                    {
                                        "children": [],
                                        "depth": 2,
                                        "id": 8,
                                        "order": 8
                                    }
                                ],
                                "depth": 1,
                                "id": 7,
                                "order": 7
                            },
                            {
                                "children": [],
                                "depth": 1,
                                "id": 9,
                                "order": 9
                            },
                            {
                                "children": [
                                    {
                                        "children": [
                                            {
                                                "children": [
                                                    {
                                                        "children": [],
                                                        "depth": 4,
                                                        "id": 13,
                                                        "order": 13
                                                    },
                                                    {
                                                        "children": [],
                                                        "depth": 4,
                                                        "id": 14,
                                                        "order": 14
                                                    }
                                                ],
                                                "depth": 3,
                                                "id": 12,
                                                "order": 12
                                            },
                                            {
                                                "children": [],
                                                "depth": 3,
                                                "id": 15,
                                                "order": 15
                                            },
                                            {
                                                "children": [],
                                                "depth": 3,
                                                "id": 16,
                                                "order": 16
                                            },
                                            {
                                                "children": [],
                                                "depth": 3,
                                                "id": 17,
                                                "order": 17
                                            },
                                            {
                                                "children": [],
                                                "depth": 3,
                                                "id": 18,
                                                "order": 18
                                            }
                                        ],
                                        "depth": 2,
                                        "id": 11,
                                        "order": 11
                                    }
                                ],
                                "depth": 1,
                                "id": 10,
                                "order": 10
                            },
                            {
                                "children": [],
                                "depth": 1,
                                "id": 19,
                                "order": 19
                            },
                            {
                                "children": [],
                                "depth": 1,
                                "id": 20,
                                "order": 20
                            },
                            {
                                "children": [],
                                "depth": 1,
                                "id": 21,
                                "order": 21
                            },
                            {
                                "children": [],
                                "depth": 1,
                                "id": 22,
                                "order": 22
                            },
                            {
                                "children": [],
                                "depth": 1,
                                "id": 23,
                                "order": 23
                            }
                        ],
                        "depth": 0,
                        "id": 0,
                        "order": 0
                    }
                ],
                "depth": -1,
                "id": -1,
                "order": -1
            }
        ],
        "mainTraceNodeCount": 24,
        "parentIdMap": {
            "0": -1,
            "1": 0,
            "10": 0,
            "11": 10,
            "12": 11,
            "13": 12,
            "14": 12,
            "15": 11,
            "16": 11,
            "17": 11,
            "18": 11,
            "19": 0,
            "2": 0,
            "20": 0,
            "21": 0,
            "22": 0,
            "23": 0,
            "3": 2,
            "4": 0,
            "5": 4,
            "6": 0,
            "7": 0,
            "8": 7,
            "9": 0
        },
        "tidyTrace": [
            {
                "children": [
                    {
                        "children": [
                            {
                                "children": [],
                                "depth": 1,
                                "id": 1,
                                "order": 1
                            },
                            {
                                "children": [
                                    {
                                        "children": [],
                                        "depth": 2,
                                        "id": 5,
                                        "order": 5
                                    }
                                ],
                                "depth": 1,
                                "id": 4,
                                "order": 4
                            },
                            {
                                "children": [
                                    {
                                        "children": [],
                                        "depth": 2,
                                        "id": 8,
                                        "order": 8
                                    }
                                ],
                                "depth": 1,
                                "id": 7,
                                "order": 7
                            },
                            {
                                "children": [
                                    {
                                        "children": [
                                            {
                                                "children": [
                                                    {
                                                        "children": [],
                                                        "depth": 4,
                                                        "id": 13,
                                                        "order": 13
                                                    },
                                                    {
                                                        "children": [],
                                                        "depth": 4,
                                                        "id": 14,
                                                        "order": 14
                                                    }
                                                ],
                                                "depth": 3,
                                                "id": 12,
                                                "order": 12
                                            },
                                            {
                                                "children": [],
                                                "depth": 3,
                                                "id": 17,
                                                "order": 17
                                            },
                                            {
                                                "children": [],
                                                "depth": 3,
                                                "id": 18,
                                                "order": 18
                                            }
                                        ],
                                        "depth": 2,
                                        "id": 11,
                                        "order": 11
                                    }
                                ],
                                "depth": 1,
                                "id": 10,
                                "order": 10
                            },
                            {
                                "children": [],
                                "depth": 1,
                                "id": 20,
                                "order": 20
                            },
                            {
                                "children": [],
                                "depth": 1,
                                "id": 21,
                                "order": 21
                            },
                            {
                                "children": [],
                                "depth": 1,
                                "id": 22,
                                "order": 22
                            },
                            {
                                "children": [],
                                "depth": 1,
                                "id": 23,
                                "order": 23
                            }
                        ],
                        "depth": 0,
                        "id": 0,
                        "order": 0
                    }
                ],
                "depth": -1,
                "id": -1,
                "order": -1
            }
        ],
        "tidyTraceNodeCount": 17
    },
    "state_change": {
        "stateChanges": [
            {
                "address": "0x5f7b4821aa44efbde83a04d58638d7b0fd76a23c",
                "erc": "ERC-20",
                "slots": [
                    {
                        "current": "0x00000000000000000000000000000000000000000000000000060a24181e4000",
                        "key": "0x2cb1733a09ee464c659b8af388292cf9a072aff1a71a76f6770b5d791bbc423a",
                        "prev": "0x0000000000000000000000000000000000000000000000000000000000000000"
                    },
                    {
                        "current": "0x0000000000000000000000000000000000000000000000000000000000000003",
                        "key": "0x000000000000000000000000000000000000000000000000000000000000000e",
                        "prev": "0x0000000000000000000000000000000000000000000000000000000000000002"
                    },
                    {
                        "current": "0x0000000000000000000000000000000000000000000000000035d2d84058e000",
                        "key": "0xc79d0fbfbcfb9fa9b906392dc1ba5152175a359b0a114bcbb25a7818a3353ae3",
                        "prev": "0x0000000000000000000000000000000000000000000000000034c1ff0eea2000"
                    },
                    {
                        "current": "0x000000000000000000000000000000000000000000000000010990ba9cf5e000",
                        "key": "0x48fae11e56f99ec623357e5f0b77f7bb70ddc7618ad1dc5e2c08ce34f1668967",
                        "prev": "0x0000000000000000000000000000000000000000000000000110abb7e682e000"
                    }
                ],
                "storageVariables": [
                    {
                        "name": "_balances",
                        "type": "mapping(address => uint256)",
                        "value": {
                            "pairs": [
                                {
                                    "key": "0x2f415e2056cdbc707ad0a3e55b70d5497801cc53",
                                    "value": {
                                        "current": "1700000000000000",
                                        "prev": "0",
                                        "typeTag": 1
                                    }
                                },
                                {
                                    "key": "0x5f7b4821aa44efbde83a04d58638d7b0fd76a23c",
                                    "value": {
                                        "current": "15150000000000000",
                                        "prev": "14850000000000000",
                                        "typeTag": 1
                                    }
                                },
                                {
                                    "key": "0xbc5e56c8b5a9c7bdb74ffb1a63adc5131cb44e9a",
                                    "value": {
                                        "current": "74750000000000000",
                                        "prev": "76750000000000000",
                                        "typeTag": 1
                                    }
                                }
                            ],
                            "typeTag": 4
                        }
                    },
                    {
                        "name": "_buyCount",
                        "type": "uint256",
                        "value": {
                            "current": "3",
                            "prev": "2",
                            "typeTag": 1
                        }
                    }
                ]
            },
            {
                "address": "0xbc5e56c8b5a9c7bdb74ffb1a63adc5131cb44e9a",
                "erc": "ERC-20",
                "slots": [
                    {
                        "current": "0x64f4715b000000000000047fa0e4ff86534f000000000000010990ba9cf5e000",
                        "key": "0x0000000000000000000000000000000000000000000000000000000000000008",
                        "prev": "0x64f4715b000000000000046187db589481680000000000000110abb7e682e000"
                    }
                ],
                "storageVariables": [
                    {
                        "name": "reserve0",
                        "type": "uint112",
                        "value": {
                            "current": "74750000000000000",
                            "prev": "76750000000000000",
                            "typeTag": 1
                        }
                    },
                    {
                        "name": "reserve1",
                        "type": "uint112",
                        "value": {
                            "current": "324154603593945935",
                            "prev": "315682825046360424",
                            "typeTag": 1
                        }
                    },
                    {
                        "name": "blockTimestampLast",
                        "type": "uint32",
                        "value": {
                            "current": "1693741403",
                            "prev": "1693741403",
                            "typeTag": 1
                        }
                    }
                ]
            },
            {
                "address": "0xc02aaa39b223fe8d0a0e5c4f27ead9083c756cc2",
                "erc": "ERC-20",
                "slots": [
                    {
                        "current": "0x000000000000000000000000000000000000000000000000047fa0e4ff86534f",
                        "key": "0x009aef41b40f811010a9cc2252851c68b43733f05edbc847a191f629cce92cf4",
                        "prev": "0x000000000000000000000000000000000000000000000000046187db58948168"
                    }
                ],
                "storageVariables": [
                    {
                        "name": "balanceOf",
                        "type": "mapping(address => uint256)",
                        "value": {
                            "pairs": [
                                {
                                    "key": "0xbc5e56c8b5a9c7bdb74ffb1a63adc5131cb44e9a",
                                    "value": {
                                        "current": "324154603593945935",
                                        "prev": "315682825046360424",
                                        "typeTag": 1
                                    }
                                }
                            ],
                            "typeTag": 4
                        }
                    }
                ]
            },
            {
                "address": "0xdb5889e35e379ef0498aae126fc2cce1fbd23216",
                "erc": "",
                "slots": [
                    {
                        "current": "0x000000000000000000000000000000000000000000000000165cb3ad2e48c6c8",
                        "key": "0x0000000000000000000000000000000000000000000000000000000000000000",
                        "prev": "0x000000000000000000000000000000000000000000000000165c722f04cd1efc"
                    }
                ],
                "storageVariables": []
            }
        ]
    }
}