{
    "balance_change": {
        "balanceChanges": [
            {
                "account": "0x407dc8877e24990bda5a31a2a0c87e54a23f996c",
                "assets": [
                    {
                        "address": "0xbd5fb504d4482ef4366dfa0c0edfb85ed50a9bbb",
                        "amount": "1",
                        "iconUrl": "",
                        "isERC1155": false,
                        "isERC721": true,
                        "sign": true,
                        "tokenID": "3396",
                        "value": ""
                    },
                    {
                        "address": "0xeeeeeeeeeeeeeeeeeeeeeeeeeeeeeeeeeeeeeeee",
                        "amount": "0.06",
                        "iconUrl": "https://assets.blocksec.com/image/1663669189317-3.png",
                        "isERC1155": false,
                        "isERC721": false,
                        "sign": false,
                        "value": "78.92159999999999399"
                    }
                ]
            },
            {
                "account": "0x0000a26b00c1f0df003000390027140000faa719",
                "assets": [
                    {
                        "address": "0xeeeeeeeeeeeeeeeeeeeeeeeeeeeeeeeeeeeeeeee",
                        "amount": "0.0015",
                        "iconUrl": "https://assets.blocksec.com/image/1663669189317-3.png",
                        "isERC1155": false,
                        "isERC721": false,
                        "sign": true,
                        "value": "1.9730399999999998499"
                    }
                ]
            },
            {
                "account": "0x61f4d52f301c7bad9091f05282b14b5413026c5a",
                "assets": [
                    {
                        "address": "0xeeeeeeeeeeeeeeeeeeeeeeeeeeeeeeeeeeeeeeee",
                        "amount": "0.0045",
                        "iconUrl": "https://assets.blocksec.com/image/1663669189317-3.png",
                        "isERC1155": false,
                        "isERC721": false,
                        "sign": true,
                        "value": "5.9191199999999995498"
                    }
                ]
            },
            {
                "account": "0xb69ee4f5124965d0e73f846bc0873abe7ff143f6",
                "assets": [
                    {
                        "address": "0xbd5fb504d4482ef4366dfa0c0edfb85ed50a9bbb",
                        "amount": "1",
                        "iconUrl": "",
                        "isERC1155": false,
                        "isERC721": true,
                        "sign": false,
                        "tokenID": "3396",
                        "value": ""
                    },
                    {
                        "address": "0xeeeeeeeeeeeeeeeeeeeeeeeeeeeeeeeeeeeeeeee",
                        "amount": "0.054",
                        "iconUrl": "https://assets.blocksec.com/image/1663669189317-3.png",
                        "isERC1155": false,
                        "isERC721": false,
                        "sign": true,
                        "value": "71.029439999999994595"
                    }
                ]
            }
        ]
    },
    "profile": {
        "basic_info": {
            "baseFee": "24.931321634",
            "blockNumber": 15706362,
            "callData": "0xfb0f3ee100000000000000000000000000000000000000000000000000000000000000200000000000000000000000000000000000000000000000000000000000000000000000000000000000000000000000000000000000000000000000000000000000000000000000000000000000000000000000000000000000bfd8b6c1df0000000000000000000000000000b69ee4f5124965d0e73f846bc0873abe7ff143f6000000000000000000000000004c00500000ad104d7dbd00e3ae0a5c00560c00000000000000000000000000bd5fb504d4482ef4366dfa0c0edfb85ed50a9bbb0000000000000000000000000000000000000000000000000000000000000d4400000000000000000000000000000000000000000000000000000000000000010000000000000000000000000000000000000000000000000000000000000002000000000000000000000000000000000000000000000000000000006341f88300000000000000000000000000000000000000000000000000000000636ae5130000000000000000000000000000000000000000000000000000000000000000360c6ebe00000000000000000000000000000000000000009291b3e7d475188c0000007b02230091a7ed01230072f7006a004d60a8d4e71d599b8104250f00000000007b02230091a7ed01230072f7006a004d60a8d4e71d599b8104250f00000000000000000000000000000000000000000000000000000000000000000002000000000000000000000000000000000000000000000000000000000000024000000000000000000000000000000000000000000000000000000000000002e000000000000000000000000000000000000000000000000000000000000000020000000000000000000000000000000000000000000000000005543df729c0000000000000000000000000000000a26b00c1f0df003000390027140000faa719000000000000000000000000000000000000000000000000000ffcb9e57d400000000000000000000000000061f4d52f301c7bad9091f05282b14b5413026c5a00000000000000000000000000000000000000000000000000000000000000417b0b8f4235566c43044c05a1e2526cb03ecc5b2264ca48b2bed052bd7fcf026a5b21accce86004f23fb50a1c30c9a8df3b6b37a4e83b3c97c42a5b8eb91fde821c00000000000000000000000000000000000000000000000000000000000000",
            "debugEnable": true,
            "errorInfo": "",
            "eventCount": 3,
            "feeRecipient": "0xa0b319a07521c43c4961a1a76977a5ccd46c3122",
            "formatValue": "0.06",
            "gasLimit": 186169,
            "gasPrice": "26.431321634",
            "gasUsed": 143742,
            "intTxnCount": 7,
            "internalRevert": false,
            "internalRevertMessage": "",
            "isContractCreation": false,
            "isFlashloan": false,
            "maxFee": "35.38150537",
            "nonce": 268,
            "overwritedBlockNumber": -1,
            "priorityFee": "1.5",
            "receiver": "0x00000000006c3852cbef3e08e8df289169ede581",
            "revertMessage": "",
            "sender": "0x407dc8877e24990bda5a31a2a0c87e54a23f996c",
            "simulationEnable": true,
            "sourceTxnHash": "0x999bf51d6333d7a1bca9970fcd443f8f6b8e958a0f12265fd98b67be261473e2",
            "status": true,
            "timestamp": "2022-10-08T22:29:11Z",
            "transactionFee": "0.003799291034314428",
            "txnHash": "0x999bf51d6333d7a1bca9970fcd443f8f6b8e958a0f12265fd98b67be261473e2",
            "txnIndex": 34,
            "type": 2,
            "value": "60000000000000000"
        },
        "fund_flow": [
            {
                "amount": "0.06",
                "from": "0x407dc8877e24990bda5a31a2a0c87e54a23f996c",
                "id": 1,
                "isERC1155": false,
                "isERC721": false,
                "isReverted": false,
                "order": 1,
                "to": "0x00000000006c3852cbef3e08e8df289169ede581",
                "token": "0xeeeeeeeeeeeeeeeeeeeeeeeeeeeeeeeeeeeeeeee"
            },
            {
                "amount": "1",
                "from": "0xb69ee4f5124965d0e73f846bc0873abe7ff143f6",
                "id": 2,
                "isERC1155": false,
                "isERC721": true,
                "isReverted": false,
                "order": 2,
                "to": "0x407dc8877e24990bda5a31a2a0c87e54a23f996c",
                "token": "0xbd5fb504d4482ef4366dfa0c0edfb85ed50a9bbb",
                "tokenID": "3396"
            },
            {
                "amount": "0.0015",
                "from": "0x00000000006c3852cbef3e08e8df289169ede581",
                "id": 3,
                "isERC1155": false,
                "isERC721": false,
                "isReverted": false,
                "order": 3,
                "to": "0x0000a26b00c1f0df003000390027140000faa719",
                "token": "0xeeeeeeeeeeeeeeeeeeeeeeeeeeeeeeeeeeeeeeee"
            },
            {
                "amount": "0.0045",
                "from": "0x00000000006c3852cbef3e08e8df289169ede581",
                "id": 4,
                "isERC1155": false,
                "isERC721": false,
                "isReverted": false,
                "order": 4,
                "to": "0x61f4d52f301c7bad9091f05282b14b5413026c5a",
                "token": "0xeeeeeeeeeeeeeeeeeeeeeeeeeeeeeeeeeeeeeeee"
            },
            {
                "amount": "0.054",
                "from": "0x00000000006c3852cbef3e08e8df289169ede581",
                "id": 5,
                "isERC1155": false,
                "isERC721": false,
                "isReverted": false,
                "order": 5,
                "to": "0xb69ee4f5124965d0e73f846bc0873abe7ff143f6",
                "token": "0xeeeeeeeeeeeeeeeeeeeeeeeeeeeeeeeeeeeeeeee"
            }
        ],
        "token_infos": [
            {
                "address": "0xc02aaa39b223fe8d0a0e5c4f27ead9083c756cc2",
                "decimals": 18
            },
            {
                "address": "0xeeeeeeeeeeeeeeeeeeeeeeeeeeeeeeeeeeeeeeee",
                "decimals": 18
            }
        ]
    },
    "address_label": {
        "labels": [
            {
                "address": "0x1e0049783f008a0085193e00003d00cd54003c71",
                "label": "OpenSea: Conduit"
            },
            {
                "address": "0xbd5fb504d4482ef4366dfa0c0edfb85ed50a9bbb",
                "label": "CornTown: CORN Token"
            },
            {
                "address": "0x0000000000000000000000000000000000000000",
                "label": "Null Address"
            },
            {
                "address": "0x0000000000000000000000000000000000000001",
                "label": "Precompiled"
            },
            {
                "address": "0x0000000000000000000000000000000000000002",
                "label": "Precompiled"
            },
            {
                "address": "0x0000000000000000000000000000000000000003",
                "label": "Precompiled"
            },
            {
                "address": "0x0000000000000000000000000000000000000004",
                "label": "Precompiled"
            },
            {
                "address": "0xeeeeeeeeeeeeeeeeeeeeeeeeeeeeeeeeeeeeeeee",
                "label": "Ether"
            },
            {
                "address": "0x0000a26b00c1f0df003000390027140000faa719",
                "label": "OpenSea: Fees 3"
            },
            {
                "address": "0x004c00500000ad104d7dbd00e3ae0a5c00560c00",
                "label": "OpenSea: Pausable Zone"
            },
            {
                "address": "0x00000000006c3852cbef3e08e8df289169ede581",
                "label": "Seaport 1.1"
            },
            {
                "address": "0xa0b319a07521c43c4961a1a76977a5ccd46c3122",
                "label": "GnosisSafeProxy"
            }
        ]
    },
    "trace": {
        "accountLabels": null,
        "dataMap": {
            "-1": {
                "invocation": {
                    "address": "0x407dc8877e24990bda5a31a2a0c87e54a23f996c",
                    "callData": "",
                    "decodedMethod": null,
                    "errorInfo": "",
                    "fromAddress": "",
                    "gasUsed": 0,
                    "id": -1,
                    "methodDecoded": false,
                    "operation": "",
                    "output": "",
                    "revert": false,
                    "revertMessage": "",
                    "selector": "",
                    "status": false,
                    "value": ""
                },
                "nodeType": 0
            },
            "0": {
                "invocation": {
                    "address": "0x00000000006c3852cbef3e08e8df289169ede581",
                    "callData": "0x00000000000000000000000000000000000000000000000000000000000000200000000000000000000000000000000000000000000000000000000000000000000000000000000000000000000000000000000000000000000000000000000000000000000000000000000000000000000000000000000000bfd8b6c1df0000000000000000000000000000b69ee4f5124965d0e73f846bc0873abe7ff143f6000000000000000000000000004c00500000ad104d7dbd00e3ae0a5c00560c00000000000000000000000000bd5fb504d4482ef4366dfa0c0edfb85ed50a9bbb0000000000000000000000000000000000000000000000000000000000000d4400000000000000000000000000000000000000000000000000000000000000010000000000000000000000000000000000000000000000000000000000000002000000000000000000000000000000000000000000000000000000006341f88300000000000000000000000000000000000000000000000000000000636ae5130000000000000000000000000000000000000000000000000000000000000000360c6ebe00000000000000000000000000000000000000009291b3e7d475188c0000007b02230091a7ed01230072f7006a004d60a8d4e71d599b8104250f00000000007b02230091a7ed01230072f7006a004d60a8d4e71d599b8104250f00000000000000000000000000000000000000000000000000000000000000000002000000000000000000000000000000000000000000000000000000000000024000000000000000000000000000000000000000000000000000000000000002e000000000000000000000000000000000000000000000000000000000000000020000000000000000000000000000000000000000000000000005543df729c0000000000000000000000000000000a26b00c1f0df003000390027140000faa719000000000000000000000000000000000000000000000000000ffcb9e57d400000000000000000000000000061f4d52f301c7bad9091f05282b14b5413026c5a00000000000000000000000000000000000000000000000000000000000000417b0b8f4235566c43044c05a1e2526cb03ecc5b2264ca48b2bed052bd7fcf026a5b21accce86004f23fb50a1c30c9a8df3b6b37a4e83b3c97c42a5b8eb91fde821c00000000000000000000000000000000000000000000000000000000000000",
                    "decodedMethod": {
                        "callParams": [
                            {
                                "name": "parameters",
                                "type": "(address,uint256,uint256,address,address,address,uint256,uint256,uint8,uint256,uint256,bytes32,uint256,bytes32,bytes32,uint256,(uint256,address)[],bytes)",
                                "value": [
                                    {
                                        "name": "considerationToken",
                                        "type": "address",
                                        "value": "0x0000000000000000000000000000000000000000"
                                    },
                                    {
                                        "name": "considerationIdentifier",
                                        "type": "uint256",
                                        "value": "0"
                                    },
                                    {
                                        "name": "considerationAmount",
                                        "type": "uint256",
                                        "value": "54,000,000,000,000,000"
                                    },
                                    {
                                        "name": "offerer",
                                        "type": "address",
                                        "value": "0xb69ee4f5124965d0e73f846bc0873abe7ff143f6"
                                    },
                                    {
                                        "name": "zone",
                                        "type": "address",
                                        "value": "0x004c00500000ad104d7dbd00e3ae0a5c00560c00"
                                    },
                                    {
                                        "name": "offerToken",
                                        "type": "address",
                                        "value": "0xbd5fb504d4482ef4366dfa0c0edfb85ed50a9bbb"
                                    },
                                    {
                                        "name": "offerIdentifier",
                                        "type": "uint256",
                                        "value": "3,396"
                                    },
                                    {
                                        "name": "offerAmount",
                                        "type": "uint256",
                                        "value": "1"
                                    },
                                    {
                                        "name": "basicOrderType",
                                        "type": "uint8",
                                        "value": "2"
                                    },
                                    {
                                        "name": "startTime",
                                        "type": "uint256",
                                        "value": "1,665,267,843"
                                    },
                                    {
                                        "name": "endTime",
                                        "type": "uint256",
                                        "value": "1,667,949,843"
                                    },
                                    {
                                        "name": "zoneHash",
                                        "type": "bytes32",
                                        "value": "0x0000000000000000000000000000000000000000000000000000000000000000"
                                    },
                                    {
                                        "name": "salt",
                                        "type": "uint256",
                                        "value": "24,446,860,302,761,739,304,752,683,030,156,737,591,518,664,810,215,442,929,810,944,108,844,696,279,180"
                                    },
                                    {
                                        "name": "offererConduitKey",
                                        "type": "bytes32",
                                        "value": "0x0000007b02230091a7ed01230072f7006a004d60a8d4e71d599b8104250f0000"
                                    },
                                    {
                                        "name": "fulfillerConduitKey",
                                        "type": "bytes32",
                                        "value": "0x0000007b02230091a7ed01230072f7006a004d60a8d4e71d599b8104250f0000"
                                    },
                                    {
                                        "name": "totalOriginalAdditionalRecipients",
                                        "type": "uint256",
                                        "value": "2"
                                    },
                                    {
                                        "name": "additionalRecipients",
                                        "type": "(uint256,address)[]",
                                        "value": [
                                            [
                                                {
                                                    "name": "amount",
                                                    "type": "uint256",
                                                    "value": "1,500,000,000,000,000"
                                                },
                                                {
                                                    "name": "recipient",
                                                    "type": "address",
                                                    "value": "0x0000a26b00c1f0df003000390027140000faa719"
                                                }
                                            ],
                                            [
                                                {
                                                    "name": "amount",
                                                    "type": "uint256",
                                                    "value": "4,500,000,000,000,000"
                                                },
                                                {
                                                    "name": "recipient",
                                                    "type": "address",
                                                    "value": "0x61f4d52f301c7bad9091f05282b14b5413026c5a"
                                                }
                                            ]
                                        ]
                                    },
                                    {
                                        "name": "signature",
                                        "type": "bytes",
                                        "value": "0x7b0b8f4235566c43044c05a1e2526cb03ecc5b2264ca48b2bed052bd7fcf026a5b21accce86004f23fb50a1c30c9a8df3b6b37a4e83b3c97c42a5b8eb91fde821c"
                                    }
                                ]
                            }
                        ],
                        "constructorArguments": "",
                        "name": "fulfillBasicOrder",
                        "returnParams": [
                            {
                                "name": "fulfilled",
                                "type": "bool",
                                "value": true
                            }
                        ],
                        "signature": "fulfillBasicOrder((address,uint256,uint256,address,address,address,uint256,uint256,uint8,uint256,uint256,bytes32,uint256,bytes32,bytes32,uint256,(uint256,address)[],bytes))"
                    },
                    "errorInfo": "",
                    "fromAddress": "0x407dc8877e24990bda5a31a2a0c87e54a23f996c",
                    "gasUsed": 143742,
                    "id": 0,
                    "methodDecoded": true,
                    "operation": "CALL",
                    "output": "0x0000000000000000000000000000000000000000000000000000000000000001",
                    "revert": false,
                    "revertMessage": "",
                    "selector": "0xfb0f3ee1",
                    "status": true,
                    "value": "0.06"
                },
                "nodeType": 0
            },
            "1": {
                "event": {
                    "contract": "0x00000000006c3852cbef3e08e8df289169ede581",
                    "decodedLog": {
                        "name": "OrderFulfilled",
                        "params": [
                            {
                                "name": "offerer",
                                "type": "address",
                                "value": "0xb69ee4f5124965d0e73f846bc0873abe7ff143f6"
                            },
                            {
                                "name": "zone",
                                "type": "address",
                                "value": "0x004c00500000ad104d7dbd00e3ae0a5c00560c00"
                            },
                            {
                                "name": "orderHash",
                                "type": "bytes32",
                                "value": "0x24355c5664675a56d5c43655af3f232cf5214f9a57933d144c43f11c9edb3a57"
                            },
                            {
                                "name": "recipient",
                                "type": "address",
                                "value": "0x407dc8877e24990bda5a31a2a0c87e54a23f996c"
                            },
                            {
                                "name": "offer",
                                "type": "(uint8,address,uint256,uint256)[]",
                                "value": [
                                    [
                                        {
                                            "name": "itemType",
                                            "type": "uint8",
                                            "value": "2"
                                        },
                                        {
                                            "name": "token",
                                            "type": "address",
                                            "value": "0xbd5fb504d4482ef4366dfa0c0edfb85ed50a9bbb"
                                        },
                                        {
                                            "name": "identifier",
                                            "type": "uint256",
                                            "value": "3,396"
                                        },
                                        {
                                            "name": "amount",
                                            "type": "uint256",
                                            "value": "1"
                                        }
                                    ]
                                ]
                            },
                            {
                                "name": "consideration",
                                "type": "(uint8,address,uint256,uint256,address)[]",
                                "value": [
                                    [
                                        {
                                            "name": "itemType",
                                            "type": "uint8",
                                            "value": "0"
                                        },
                                        {
                                            "name": "token",
                                            "type": "address",
                                            "value": "0x0000000000000000000000000000000000000000"
                                        },
                                        {
                                            "name": "identifier",
                                            "type": "uint256",
                                            "value": "0"
                                        },
                                        {
                                            "name": "amount",
                                            "type": "uint256",
                                            "value": "54,000,000,000,000,000"
                                        },
                                        {
                                            "name": "recipient",
                                            "type": "address",
                                            "value": "0xb69ee4f5124965d0e73f846bc0873abe7ff143f6"
                                        }
                                    ],
                                    [
                                        {
                                            "name": "itemType",
                                            "type": "uint8",
                                            "value": "0"
                                        },
                                        {
                                            "name": "token",
                                            "type": "address",
                                            "value": "0x0000000000000000000000000000000000000000"
                                        },
                                        {
                                            "name": "identifier",
                                            "type": "uint256",
                                            "value": "0"
                                        },
                                        {
                                            "name": "amount",
                                            "type": "uint256",
                                            "value": "1,500,000,000,000,000"
                                        },
                                        {
                                            "name": "recipient",
                                            "type": "address",
                                            "value": "0x0000a26b00c1f0df003000390027140000faa719"
                                        }
                                    ],
                                    [
                                        {
                                            "name": "itemType",
                                            "type": "uint8",
                                            "value": "0"
                                        },
                                        {
                                            "name": "token",
                                            "type": "address",
                                            "value": "0x0000000000000000000000000000000000000000"
                                        },
                                        {
                                            "name": "identifier",
                                            "type": "uint256",
                                            "value": "0"
                                        },
                                        {
                                            "name": "amount",
                                            "type": "uint256",
                                            "value": "4,500,000,000,000,000"
                                        },
                                        {
                                            "name": "recipient",
                                            "type": "address",
                                            "value": "0x61f4d52f301c7bad9091f05282b14b5413026c5a"
                                        }
                                    ]
                                ]
                            }
                        ],
                        "signature": "OrderFulfilled(bytes32,address,address,address,(uint8,address,uint256,uint256)[],(uint8,address,uint256,uint256,address)[])"
                    },
                    "id": 1,
                    "logData": "0x24355c5664675a56d5c43655af3f232cf5214f9a57933d144c43f11c9edb3a57000000000000000000000000407dc8877e24990bda5a31a2a0c87e54a23f996c0000000000000000000000000000000000000000000000000000000000000080000000000000000000000000000000000000000000000000000000000000012000000000000000000000000000000000000000000000000000000000000000010000000000000000000000000000000000000000000000000000000000000002000000000000000000000000bd5fb504d4482ef4366dfa0c0edfb85ed50a9bbb0000000000000000000000000000000000000000000000000000000000000d440000000000000000000000000000000000000000000000000000000000000001000000000000000000000000000000000000000000000000000000000000000300000000000000000000000000000000000000000000000000000000000000000000000000000000000000000000000000000000000000000000000000000000000000000000000000000000000000000000000000000000000000000000000000000000000000000000000000000000000000000000000000bfd8b6c1df0000000000000000000000000000b69ee4f5124965d0e73f846bc0873abe7ff143f60000000000000000000000000000000000000000000000000000000000000000000000000000000000000000000000000000000000000000000000000000000000000000000000000000000000000000000000000000000000000000000000000000000000000000000000000000000000000000000000000005543df729c0000000000000000000000000000000a26b00c1f0df003000390027140000faa719000000000000000000000000000000000000000000000000000000000000000000000000000000000000000000000000000000000000000000000000000000000000000000000000000000000000000000000000000000000000000000000000000000000000000000000000000000000000000000000000000ffcb9e57d400000000000000000000000000061f4d52f301c7bad9091f05282b14b5413026c5a",
                    "logDecoded": true,
                    "operation": "EVENT",
                    "revert": false,
                    "status": true,
                    "topics": [
                        "0x9d9af8e38d66c62e2c12f0225249fd9d721c54b83f48d9352c97c6cacdcb6f31",
                        "0x000000000000000000000000b69ee4f5124965d0e73f846bc0873abe7ff143f6",
                        "0x000000000000000000000000004c00500000ad104d7dbd00e3ae0a5c00560c00"
                    ]
                },
                "nodeType": 1
            },
            "10": {
                "invocation": {
                    "address": "0xb69ee4f5124965d0e73f846bc0873abe7ff143f6",
                    "callData": "0x",
                    "decodedMethod": null,
                    "errorInfo": "",
                    "fromAddress": "0x00000000006c3852cbef3e08e8df289169ede581",
                    "gasUsed": 0,
                    "id": 10,
                    "methodDecoded": false,
                    "operation": "CALL",
                    "output": "",
                    "revert": false,
                    "revertMessage": "",
                    "selector": "fallback",
                    "status": true,
                    "value": "0.054"
                },
                "nodeType": 0
            },
            "2": {
                "invocation": {
                    "address": "0x004c00500000ad104d7dbd00e3ae0a5c00560c00",
                    "callData": "0x24355c5664675a56d5c43655af3f232cf5214f9a57933d144c43f11c9edb3a57000000000000000000000000407dc8877e24990bda5a31a2a0c87e54a23f996c000000000000000000000000b69ee4f5124965d0e73f846bc0873abe7ff143f60000000000000000000000000000000000000000000000000000000000000000",
                    "decodedMethod": {
                        "callParams": [
                            {
                                "name": "orderHash",
                                "type": "bytes32",
                                "value": "0x24355c5664675a56d5c43655af3f232cf5214f9a57933d144c43f11c9edb3a57"
                            },
                            {
                                "name": "caller",
                                "type": "address",
                                "value": "0x407dc8877e24990bda5a31a2a0c87e54a23f996c"
                            },
                            {
                                "name": "offerer",
                                "type": "address",
                                "value": "0xb69ee4f5124965d0e73f846bc0873abe7ff143f6"
                            },
                            {
                                "name": "zoneHash",
                                "type": "bytes32",
                                "value": "0x0000000000000000000000000000000000000000000000000000000000000000"
                            }
                        ],
                        "constructorArguments": "",
                        "name": "isValidOrder",
                        "returnParams": [
                            {
                                "name": "validOrderMagicValue",
                                "type": "bytes4",
                                "value": "0x0e1d31dc"
                            }
                        ],
                        "signature": "isValidOrder(bytes32,address,address,bytes32)"
                    },
                    "errorInfo": "",
                    "fromAddress": "0x00000000006c3852cbef3e08e8df289169ede581",
                    "gasUsed": 257,
                    "id": 2,
                    "methodDecoded": true,
                    "operation": "STATICCALL",
                    "output": "0x0e1d31dc00000000000000000000000000000000000000000000000000000000",
                    "revert": false,
                    "revertMessage": "",
                    "selector": "0x0e1d31dc",
                    "status": true,
                    "value": "0"
                },
                "nodeType": 0
            },
            "3": {
                "invocation": {
                    "address": "0x0000000000000000000000000000000000000001",
                    "callData": "0x6e47502cf7a7798872e7afc824fd3af2eeded6bd5368a1c7df52048d000000000000000000000000000000000000000000000000000000000000001c7b0b8f4235566c43044c05a1e2526cb03ecc5b2264ca48b2bed052bd7fcf026a5b21accce86004f23fb50a1c30c9a8df3b6b37a4e83b3c97c42a5b8eb91fde82",
                    "decodedMethod": {
                        "callParams": [
                            {
                                "name": "hash",
                                "type": "bytes32",
                                "value": "0x321e27bf6e47502cf7a7798872e7afc824fd3af2eeded6bd5368a1c7df52048d"
                            },
                            {
                                "name": "v",
                                "type": "uint256",
                                "value": "28"
                            },
                            {
                                "name": "r",
                                "type": "bytes32",
                                "value": "0x7b0b8f4235566c43044c05a1e2526cb03ecc5b2264ca48b2bed052bd7fcf026a"
                            },
                            {
                                "name": "s",
                                "type": "bytes32",
                                "value": "0x5b21accce86004f23fb50a1c30c9a8df3b6b37a4e83b3c97c42a5b8eb91fde82"
                            }
                        ],
                        "constructorArguments": "",
                        "name": "ecrecover",
                        "returnParams": [
                            {
                                "name": "",
                                "type": "address",
                                "value": "0xb69ee4f5124965d0e73f846bc0873abe7ff143f6"
                            }
                        ],
                        "signature": "ecrecover(bytes32,uint256,bytes32,bytes32)"
                    },
                    "errorInfo": "",
                    "fromAddress": "0x00000000006c3852cbef3e08e8df289169ede581",
                    "gasUsed": 3000,
                    "id": 3,
                    "methodDecoded": true,
                    "operation": "STATICCALL",
                    "output": "0x000000000000000000000000b69ee4f5124965d0e73f846bc0873abe7ff143f6",
                    "revert": false,
                    "revertMessage": "",
                    "selector": "0x321e27bf",
                    "status": true,
                    "value": "0"
                },
                "nodeType": 0
            },
            "4": {
                "invocation": {
                    "address": "0x1e0049783f008a0085193e00003d00cd54003c71",
                    "callData": "0x000000000000000000000000000000000000000000000000000000000000002000000000000000000000000000000000000000000000000000000000000000010000000000000000000000000000000000000000000000000000000000000002000000000000000000000000bd5fb504d4482ef4366dfa0c0edfb85ed50a9bbb000000000000000000000000b69ee4f5124965d0e73f846bc0873abe7ff143f6000000000000000000000000407dc8877e24990bda5a31a2a0c87e54a23f996c0000000000000000000000000000000000000000000000000000000000000d440000000000000000000000000000000000000000000000000000000000000001",
                    "decodedMethod": {
                        "callParams": [
                            {
                                "name": "transfers",
                                "type": "(uint8,address,address,address,uint256,uint256)[]",
                                "value": [
                                    [
                                        {
                                            "name": "itemType",
                                            "type": "uint8",
                                            "value": "2"
                                        },
                                        {
                                            "name": "token",
                                            "type": "address",
                                            "value": "0xbd5fb504d4482ef4366dfa0c0edfb85ed50a9bbb"
                                        },
                                        {
                                            "name": "from",
                                            "type": "address",
                                            "value": "0xb69ee4f5124965d0e73f846bc0873abe7ff143f6"
                                        },
                                        {
                                            "name": "to",
                                            "type": "address",
                                            "value": "0x407dc8877e24990bda5a31a2a0c87e54a23f996c"
                                        },
                                        {
                                            "name": "identifier",
                                            "type": "uint256",
                                            "value": "3,396"
                                        },
                                        {
                                            "name": "amount",
                                            "type": "uint256",
                                            "value": "1"
                                        }
                                    ]
                                ]
                            }
                        ],
                        "constructorArguments": "",
                        "name": "execute",
                        "returnParams": [
                            {
                                "name": "magicValue",
                                "type": "bytes4",
                                "value": "0x4ce34aa2"
                            }
                        ],
                        "signature": "execute((uint8,address,address,address,uint256,uint256)[])"
                    },
                    "errorInfo": "",
                    "fromAddress": "0x00000000006c3852cbef3e08e8df289169ede581",
                    "gasUsed": 42528,
                    "id": 4,
                    "methodDecoded": true,
                    "operation": "CALL",
                    "output": "0x4ce34aa200000000000000000000000000000000000000000000000000000000",
                    "revert": false,
                    "revertMessage": "",
                    "selector": "0x4ce34aa2",
                    "status": true,
                    "value": "0"
                },
                "nodeType": 0
            },
            "5": {
                "invocation": {
                    "address": "0xbd5fb504d4482ef4366dfa0c0edfb85ed50a9bbb",
                    "callData": "0x000000000000000000000000b69ee4f5124965d0e73f846bc0873abe7ff143f6000000000000000000000000407dc8877e24990bda5a31a2a0c87e54a23f996c0000000000000000000000000000000000000000000000000000000000000d44",
                    "decodedMethod": {
                        "callParams": [
                            {
                                "name": "from",
                                "type": "address",
                                "value": "0xb69ee4f5124965d0e73f846bc0873abe7ff143f6"
                            },
                            {
                                "name": "to",
                                "type": "address",
                                "value": "0x407dc8877e24990bda5a31a2a0c87e54a23f996c"
                            },
                            {
                                "decimalAvailable": true,
                                "name": "tokenId",
                                "type": "uint256",
                                "value": "3,396"
                            }
                        ],
                        "constructorArguments": "",
                        "name": "transferFrom",
                        "returnParams": [],
                        "signature": "transferFrom(address,address,uint256)"
                    },
                    "errorInfo": "",
                    "fromAddress": "0x1e0049783f008a0085193e00003d00cd54003c71",
                    "gasUsed": 36412,
                    "id": 5,
                    "methodDecoded": true,
                    "operation": "CALL",
                    "output": "",
                    "revert": false,
                    "revertMessage": "",
                    "selector": "0x23b872dd",
                    "status": true,
                    "value": "0"
                },
                "nodeType": 0
            },
            "6": {
                "event": {
                    "contract": "0xbd5fb504d4482ef4366dfa0c0edfb85ed50a9bbb",
                    "decodedLog": {
                        "name": "Approval",
                        "params": [
                            {
                                "name": "owner",
                                "type": "address",
                                "value": "0xb69ee4f5124965d0e73f846bc0873abe7ff143f6"
                            },
                            {
                                "name": "approved",
                                "type": "address",
                                "value": "0x0000000000000000000000000000000000000000"
                            },
                            {
                                "decimalAvailable": true,
                                "name": "tokenId",
                                "type": "uint256",
                                "value": "3,396"
                            }
                        ],
                        "signature": "Approval(address,address,uint256)"
                    },
                    "id": 6,
                    "logData": "0x",
                    "logDecoded": true,
                    "operation": "EVENT",
                    "revert": false,
                    "status": true,
                    "topics": [
                        "0x8c5be1e5ebec7d5bd14f71427d1e84f3dd0314c0f7b2291e5b200ac8c7c3b925",
                        "0x000000000000000000000000b69ee4f5124965d0e73f846bc0873abe7ff143f6",
                        "0x0000000000000000000000000000000000000000000000000000000000000000",
                        "0x0000000000000000000000000000000000000000000000000000000000000d44"
                    ]
                },
                "nodeType": 1
            },
            "7": {
                "event": {
                    "contract": "0xbd5fb504d4482ef4366dfa0c0edfb85ed50a9bbb",
                    "decodedLog": {
                        "name": "Transfer",
                        "params": [
                            {
                                "name": "from",
                                "type": "address",
                                "value": "0xb69ee4f5124965d0e73f846bc0873abe7ff143f6"
                            },
                            {
                                "name": "to",
                                "type": "address",
                                "value": "0x407dc8877e24990bda5a31a2a0c87e54a23f996c"
                            },
                            {
                                "decimalAvailable": true,
                                "name": "tokenId",
                                "type": "uint256",
                                "value": "3,396"
                            }
                        ],
                        "signature": "Transfer(address,address,uint256)"
                    },
                    "id": 7,
                    "logData": "0x",
                    "logDecoded": true,
                    "operation": "EVENT",
                    "revert": false,
                    "status": true,
                    "topics": [
                        "0xddf252ad1be2c89b69c2b068fc378daa952ba7f163c4a11628f55a4df523b3ef",
                        "0x000000000000000000000000b69ee4f5124965d0e73f846bc0873abe7ff143f6",
                        "0x000000000000000000000000407dc8877e24990bda5a31a2a0c87e54a23f996c",
                        "0x0000000000000000000000000000000000000000000000000000000000000d44"
                    ]
                },
                "nodeType": 1
            },
            "8": {
                "invocation": {
                    "address": "0x0000a26b00c1f0df003000390027140000faa719",
                    "callData": "0x",
                    "decodedMethod": null,
                    "errorInfo": "",
                    "fromAddress": "0x00000000006c3852cbef3e08e8df289169ede581",
                    "gasUsed": 85,
                    "id": 8,
                    "methodDecoded": false,
                    "operation": "CALL",
                    "output": "",
                    "revert": false,
                    "revertMessage": "",
                    "selector": "fallback",
                    "status": true,
                    "value": "0.0015"
                },
                "nodeType": 0
            },
            "9": {
                "invocation": {
                    "address": "0x61f4d52f301c7bad9091f05282b14b5413026c5a",
                    "callData": "0x",
                    "decodedMethod": null,
                    "errorInfo": "",
                    "fromAddress": "0x00000000006c3852cbef3e08e8df289169ede581",
                    "gasUsed": 0,
                    "id": 9,
                    "methodDecoded": false,
                    "operation": "CALL",
                    "output": "",
                    "revert": false,
                    "revertMessage": "",
                    "selector": "fallback",
                    "status": true,
                    "value": "0.0045"
                },
                "nodeType": 0
            }
        },
        "gasFlame": [
            {
                "children": [
                    {
                        "children": [
                            {
                                "children": [],
                                "depth": 0,
                                "name": "Initial Gas",
                                "value": 27588
                            },
                            {
                                "children": [
                                    {
                                        "children": [],
                                        "depth": 1,
                                        "name": "isValidOrder",
                                        "value": 257
                                    },
                                    {
                                        "children": [],
                                        "depth": 1,
                                        "name": "ecrecover",
                                        "value": 3000
                                    },
                                    {
                                        "children": [
                                            {
                                                "children": [],
                                                "depth": 2,
                                                "name": "transferFrom",
                                                "value": 36412
                                            }
                                        ],
                                        "depth": 1,
                                        "name": "execute",
                                        "value": 42528
                                    },
                                    {
                                        "children": [],
                                        "depth": 1,
                                        "name": "fallback",
                                        "value": 85
                                    },
                                    {
                                        "children": [],
                                        "depth": 1,
                                        "name": "fallback",
                                        "value": 0
                                    },
                                    {
                                        "children": [],
                                        "depth": 1,
                                        "name": "fallback",
                                        "value": 0
                                    }
                                ],
                                "depth": 0,
                                "name": "Executed Gas",
                                "value": 123754
                            }
                        ],
                        "depth": -1,
                        "name": "Actual Gas Used",
                        "value": 143742
                    },
                    {
                        "children": [],
                        "depth": -1,
                        "name": "Refunded Gas",
                        "value": 7600
                    }
                ],
                "depth": -2,
                "name": "Total Gas",
                "value": 151342
            }
        ],
        "isConfirmed": true,
        "mainTrace": [
            {
                "children": [
                    {
                        "children": [
                            {
                                "children": [],
                                "depth": 1,
                                "id": 1,
                                "order": 1
                            },
                            {
                                "children": [],
                                "depth": 1,
                                "id": 2,
                                "order": 2
                            },
                            {
                                "children": [],
                                "depth": 1,
                                "id": 3,
                                "order": 3
                            },
                            {
                                "children": [
                                    {
                                        "children": [
                                            {
                                                "children": [],
                                                "depth": 3,
                                                "id": 6,
                                                "order": 6
                                            },
                                            {
                                                "children": [],
                                                "depth": 3,
                                                "id": 7,
                                                "order": 7
                                            }
                                        ],
                                        "depth": 2,
                                        "id": 5,
                                        "order": 5
                                    }
                                ],
                                "depth": 1,
                                "id": 4,
                                "order": 4
                            },
                            {
                                "children": [],
                                "depth": 1,
                                "id": 8,
                                "order": 8
                            },
                            {
                                "children": [],
                                "depth": 1,
                                "id": 9,
                                "order": 9
                            },
                            {
                                "children": [],
                                "depth": 1,
                                "id": 10,
                                "order": 10
                            }
                        ],
                        "depth": 0,
                        "id": 0,
                        "order": 0
                    }
                ],
                "depth": -1,
                "id": -1,
                "order": -1
            }
        ],
        "mainTraceNodeCount": 11,
        "parentIdMap": {
            "0": -1,
            "1": 0,
            "10": 0,
            "2": 0,
            "3": 0,
            "4": 0,
            "5": 4,
            "6": 5,
            "7": 5,
            "8": 0,
            "9": 0
        },
        "tidyTrace": [
            {
                "children": [
                    {
                        "children": [
                            {
                                "children": [],
                                "depth": 1,
                                "id": 1,
                                "order": 1
                            },
                            {
                                "children": [
                                    {
                                        "children": [
                                            {
                                                "children": [],
                                                "depth": 3,
                                                "id": 6,
                                                "order": 6
                                            },
                                            {
                                                "children": [],
                                                "depth": 3,
                                                "id": 7,
                                                "order": 7
                                            }
                                        ],
                                        "depth": 2,
                                        "id": 5,
                                        "order": 5
                                    }
                                ],
                                "depth": 1,
                                "id": 4,
                                "order": 4
                            },
                            {
                                "children": [],
                                "depth": 1,
                                "id": 8,
                                "order": 8
                            },
                            {
                                "children": [],
                                "depth": 1,
                                "id": 9,
                                "order": 9
                            },
                            {
                                "children": [],
                                "depth": 1,
                                "id": 10,
                                "order": 10
                            }
                        ],
                        "depth": 0,
                        "id": 0,
                        "order": 0
                    }
                ],
                "depth": -1,
                "id": -1,
                "order": -1
            }
        ],
        "tidyTraceNodeCount": 9
    },
    "state_change": {
        "stateChanges": [
            {
                "address": "0x00000000006c3852cbef3e08e8df289169ede581",
                "erc": "",
                "slots": [
                    {
                        "current": "0x0000000000000000000000000000010000000000000000000000000000010001",
                        "key": "0xadc0c267e8e83c9ef8bdc73550dd1c5f7dceb5d85ee3fcc7160b3a18ce44b10b",
                        "prev": "0x0000000000000000000000000000000000000000000000000000000000000000"
                    }
                ],
                "storageVariables": [
                    {
                        "name": "_orderStatus",
                        "type": "mapping(bytes32 => struct OrderStatus)",
                        "value": {
                            "pairs": [
                                {
                                    "key": "0x24355c5664675a56d5c43655af3f232cf5214f9a57933d144c43f11c9edb3a57",
                                    "value": {
                                        "fields": [
                                            {
                                                "name": "isValidated",
                                                "type": "bool",
                                                "value": {
                                                    "current": "true",
                                                    "prev": "false",
                                                    "typeTag": 1
                                                }
                                            },
                                            {
                                                "name": "isCancelled",
                                                "type": "bool",
                                                "value": {
                                                    "current": "false",
                                                    "prev": "false",
                                                    "typeTag": 1
                                                }
                                            },
                                            {
                                                "name": "numerator",
                                                "type": "uint120",
                                                "value": {
                                                    "current": "1",
                                                    "prev": "0",
                                                    "typeTag": 1
                                                }
                                            },
                                            {
                                                "name": "denominator",
                                                "type": "uint120",
                                                "value": {
                                                    "current": "1",
                                                    "prev": "0",
                                                    "typeTag": 1
                                                }
                                            }
                                        ],
                                        "typeTag": 3
                                    }
                                }
                            ],
                            "typeTag": 4
                        }
                    }
                ]
            },
            {
                "address": "0xbd5fb504d4482ef4366dfa0c0edfb85ed50a9bbb",
                "erc": "ERC-721",
                "slots": [
                    {
                        "current": "0x0000000000000000000000000000000000000000000000000000000000000008",
                        "key": "0xf1f038590c6dcb4c687b41da9c46d0cf7e4d3dcd47f364fe54da760dddfcbf78",
                        "prev": "0x0000000000000000000000000000000000000000000000000000000000000007"
                    },
                    {
                        "current": "0x00000000000000006341f9b7407dc8877e24990bda5a31a2a0c87e54a23f996c",
                        "key": "0xfe9ec1bdd4bc9e1a3d9679c478566207b9f9d18f01e2d6ce5688f3f6e4807006",
                        "prev": "0x0000000000000000633c96e3b69ee4f5124965d0e73f846bc0873abe7ff143f6"
                    },
                    {
                        "current": "0x0000000000000000000000000000000000000000000000000000000000000000",
                        "key": "0xb6c129381f00eabec92203d248a6826775878e2c302b42f9b6ca95ee56923947",
                        "prev": "0x0000000000000000000000000000000000000000000000000000000000000001"
                    }
                ],
                "storageVariables": [
                    {
                        "name": "_ownerships",
                        "type": "mapping(uint256 => struct IERC721A.TokenOwnership)",
                        "value": {
                            "pairs": [
                                {
                                    "key": "3396",
                                    "value": {
                                        "fields": [
                                            {
                                                "name": "addr",
                                                "type": "address",
                                                "value": {
                                                    "current": "0x407dc8877e24990bda5a31a2a0c87e54a23f996c",
                                                    "prev": "0xb69ee4f5124965d0e73f846bc0873abe7ff143f6",
                                                    "typeTag": 1
                                                }
                                            },
                                            {
                                                "name": "startTimestamp",
                                                "type": "uint64",
                                                "value": {
                                                    "current": "1665268151",
                                                    "prev": "1664915171",
                                                    "typeTag": 1
                                                }
                                            },
                                            {
                                                "name": "burned",
                                                "type": "bool",
                                                "value": {
                                                    "current": "false",
                                                    "prev": "false",
                                                    "typeTag": 1
                                                }
                                            }
                                        ],
                                        "typeTag": 3
                                    }
                                }
                            ],
                            "typeTag": 4
                        }
                    },
                    {
                        "name": "_addressData",
                        "type": "mapping(address => struct IERC721A.AddressData)",
                        "value": {
                            "pairs": [
                                {
                                    "key": "0x407dc8877e24990bda5a31a2a0c87e54a23f996c",
                                    "value": {
                                        "fields": [
                                            {
                                                "name": "balance",
                                                "type": "uint64",
                                                "value": {
                                                    "current": "8",
                                                    "prev": "7",
                                                    "typeTag": 1
                                                }
                                            },
                                            {
                                                "name": "numberMinted",
                                                "type": "uint64",
                                                "value": {
                                                    "current": "0",
                                                    "prev": "0",
                                                    "typeTag": 1
                                                }
                                            },
                                            {
                                                "name": "numberBurned",
                                                "type": "uint64",
                                                "value": {
                                                    "current": "0",
                                                    "prev": "0",
                                                    "typeTag": 1
                                                }
                                            },
                                            {
                                                "name": "aux",
                                                "type": "uint64",
                                                "value": {
                                                    "current": "0",
                                                    "prev": "0",
                                                    "typeTag": 1
                                                }
                                            }
                                        ],
                                        "typeTag": 3
                                    }
                                },
                                {
                                    "key": "0xb69ee4f5124965d0e73f846bc0873abe7ff143f6",
                                    "value": {
                                        "fields": [
                                            {
                                                "name": "balance",
                                                "type": "uint64",
                                                "value": {
                                                    "current": "0",
                                                    "prev": "1",
                                                    "typeTag": 1
                                                }
                                            },
                                            {
                                                "name": "numberMinted",
                                                "type": "uint64",
                                                "value": {
                                                    "current": "0",
                                                    "prev": "0",
                                                    "typeTag": 1
                                                }
                                            },
                                            {
                                                "name": "numberBurned",
                                                "type": "uint64",
                                                "value": {
                                                    "current": "0",
                                                    "prev": "0",
                                                    "typeTag": 1
                                                }
                                            },
                                            {
                                                "name": "aux",
                                                "type": "uint64",
                                                "value": {
                                                    "current": "0",
                                                    "prev": "0",
                                                    "typeTag": 1
                                                }
                                            }
                                        ],
                                        "typeTag": 3
                                    }
                                }
                            ],
                            "typeTag": 4
                        }
                    }
                ]
            }
        ]
    }
}