{
    "balance_change": {
        "balanceChanges": [
            {
                "account": "0x85b306fc24cf5ceceaa1ff5fec293b366b6d1bf5",
                "assets": [
                    {
                        "address": "0xc528c28fec0a90c083328bc45f587ee215760a0f",
                        "amount": "4,914.320120381736823347",
                        "iconUrl": "",
                        "isERC1155": false,
                        "isERC721": false,
                        "sign": true,
                        "value": ""
                    }
                ]
            },
            {
                "account": "0xf636c42a52090f190aa14e2fa7a827eaddc0b8ab",
                "assets": [
                    {
                        "address": "0xc528c28fec0a90c083328bc45f587ee215760a0f",
                        "amount": "4,914.320120381736823347",
                        "iconUrl": "",
                        "isERC1155": false,
                        "isERC721": false,
                        "sign": false,
                        "value": ""
                    }
                ]
            }
        ]
    },
    "profile": {
        "basic_info": {
            "baseFee": "",
            "blockNumber": 5707792,
            "callData": "0x2d923501000000000000000000000000c528c28fec0a90c083328bc45f587ee215760a0f0000000000000000000000000000000000000000000000000000000000000040000000000000000000000000000000000000000000000000000000000000000100000000000000000000000085b306fc24cf5ceceaa1ff5fec293b366b6d1bf5",
            "debugEnable": true,
            "errorInfo": "",
            "eventCount": 2,
            "feeRecipient": "0xb2930b35844a230f00e51431acae96fe543a0347",
            "formatValue": "0",
            "gasLimit": 180083,
            "gasPrice": "41",
            "gasUsed": 105055,
            "intTxnCount": 4,
            "internalRevert": false,
            "internalRevertMessage": "",
            "isContractCreation": false,
            "isFlashloan": false,
            "maxFee": "",
            "nonce": 51,
            "overwritedBlockNumber": -1,
            "priorityFee": "",
            "receiver": "0xf636c42a52090f190aa14e2fa7a827eaddc0b8ab",
            "revertMessage": "",
            "sender": "0x85b306fc24cf5ceceaa1ff5fec293b366b6d1bf5",
            "simulationEnable": true,
            "sourceTxnHash": "0x9997b0d7dcce96ad123186d79a7ca1e87e72b8a8c5270f53e6bb33f7512a8860",
            "status": true,
            "timestamp": "2018-05-31T10:33:45Z",
            "transactionFee": "0.004307255",
            "txnHash": "0x9997b0d7dcce96ad123186d79a7ca1e87e72b8a8c5270f53e6bb33f7512a8860",
            "txnIndex": 61,
            "type": 0,
            "value": "0"
        },
        "fund_flow": [
            {
                "amount": "4,914.320120381736823347",
                "from": "0xf636c42a52090f190aa14e2fa7a827eaddc0b8ab",
                "id": 1,
                "isERC1155": false,
                "isERC721": false,
                "isReverted": false,
                "order": 1,
                "to": "0x85b306fc24cf5ceceaa1ff5fec293b366b6d1bf5",
                "token": "0xc528c28fec0a90c083328bc45f587ee215760a0f"
            }
        ],
        "token_infos": [
            {
                "address": "0xc02aaa39b223fe8d0a0e5c4f27ead9083c756cc2",
                "decimals": 18
            },
            {
                "address": "0xc528c28fec0a90c083328bc45f587ee215760a0f",
                "decimals": 18
            },
            {
                "address": "0xeeeeeeeeeeeeeeeeeeeeeeeeeeeeeeeeeeeeeeee",
                "decimals": 18
            }
        ]
    },
    "address_label": {
        "labels": [
            {
                "address": "0xeeeeeeeeeeeeeeeeeeeeeeeeeeeeeeeeeeeeeeee",
                "label": "Ether"
            },
            {
                "address": "0xc528c28fec0a90c083328bc45f587ee215760a0f",
                "label": "Endor Protocol Token"
            },
            {
                "address": "0x0000000000000000000000000000000000000001",
                "label": "Precompiled"
            },
            {
                "address": "0x0000000000000000000000000000000000000002",
                "label": "Precompiled"
            },
            {
                "address": "0x0000000000000000000000000000000000000003",
                "label": "Precompiled"
            },
            {
                "address": "0x0000000000000000000000000000000000000004",
                "label": "Precompiled"
            }
        ]
    },
    "trace": {
        "accountLabels": null,
        "dataMap": {
            "-1": {
                "invocation": {
                    "address": "0x85b306fc24cf5ceceaa1ff5fec293b366b6d1bf5",
                    "callData": "",
                    "decodedMethod": null,
                    "errorInfo": "",
                    "fromAddress": "",
                    "gasUsed": 0,
                    "id": -1,
                    "methodDecoded": false,
                    "operation": "",
                    "output": "",
                    "revert": false,
                    "revertMessage": "",
                    "selector": "",
                    "status": false,
                    "value": ""
                },
                "nodeType": 0
            },
            "0": {
                "invocation": {
                    "address": "0xf636c42a52090f190aa14e2fa7a827eaddc0b8ab",
                    "callData": "0x000000000000000000000000c528c28fec0a90c083328bc45f587ee215760a0f0000000000000000000000000000000000000000000000000000000000000040000000000000000000000000000000000000000000000000000000000000000100000000000000000000000085b306fc24cf5ceceaa1ff5fec293b366b6d1bf5",
                    "decodedMethod": null,
                    "errorInfo": "",
                    "fromAddress": "0x85b306fc24cf5ceceaa1ff5fec293b366b6d1bf5",
                    "gasUsed": 105055,
                    "id": 0,
                    "methodDecoded": false,
                    "operation": "CALL",
                    "output": "",
                    "revert": false,
                    "revertMessage": "",
                    "selector": "0x2d923501",
                    "status": true,
                    "value": "0"
                },
                "nodeType": 0
            },
            "1": {
                "invocation": {
                    "address": "0xf6d9fd6cf182432e2a734711b982d06da6563bf3",
                    "callData": "0x0000000000000000000000000000000000000000000000000000000000000000000000000000000000000000c528c28fec0a90c083328bc45f587ee215760a0f0000000000000000000000000000000000000000000000000000000000000060000000000000000000000000000000000000000000000000000000000000000100000000000000000000000085b306fc24cf5ceceaa1ff5fec293b366b6d1bf5",
                    "decodedMethod": null,
                    "errorInfo": "",
                    "fromAddress": "0xf636c42a52090f190aa14e2fa7a827eaddc0b8ab",
                    "gasUsed": 67694,
                    "id": 1,
                    "methodDecoded": false,
                    "operation": "DELEGATECALL",
                    "output": "",
                    "revert": false,
                    "revertMessage": "",
                    "selector": "0x392a4fa2",
                    "status": true,
                    "value": "0"
                },
                "nodeType": 0
            },
            "2": {
                "invocation": {
                    "address": "0xc528c28fec0a90c083328bc45f587ee215760a0f",
                    "callData": "0x000000000000000000000000f636c42a52090f190aa14e2fa7a827eaddc0b8ab",
                    "decodedMethod": {
                        "callParams": [
                            {
                                "name": "_owner",
                                "type": "address",
                                "value": "0xf636c42a52090f190aa14e2fa7a827eaddc0b8ab"
                            }
                        ],
                        "constructorArguments": "",
                        "name": "balanceOf",
                        "returnParams": [
                            {
                                "decimalAvailable": true,
                                "name": "",
                                "type": "uint256",
                                "value": "512,016,201,413,693,422,563,658"
                            }
                        ],
                        "signature": "balanceOf(address)"
                    },
                    "errorInfo": "",
                    "fromAddress": "0xf636c42a52090f190aa14e2fa7a827eaddc0b8ab",
                    "gasUsed": 713,
                    "id": 2,
                    "methodDecoded": true,
                    "operation": "CALL",
                    "output": "0x000000000000000000000000000000000000000000006c6c743287a79799f14a",
                    "revert": false,
                    "revertMessage": "",
                    "selector": "0x70a08231",
                    "status": true,
                    "value": "0"
                },
                "nodeType": 0
            },
            "3": {
                "invocation": {
                    "address": "0x54dba5b3ede1280c95c441f70c87c61a12f0dc68",
                    "callData": "0x",
                    "decodedMethod": null,
                    "errorInfo": "",
                    "fromAddress": "0xf636c42a52090f190aa14e2fa7a827eaddc0b8ab",
                    "gasUsed": 729,
                    "id": 3,
                    "methodDecoded": false,
                    "operation": "CALL",
                    "output": "0x000000000000000000000000000000000000000000000000002386f26fc10000",
                    "revert": false,
                    "revertMessage": "",
                    "selector": "0x9592619c",
                    "status": true,
                    "value": "0"
                },
                "nodeType": 0
            },
            "4": {
                "invocation": {
                    "address": "0xc528c28fec0a90c083328bc45f587ee215760a0f",
                    "callData": "0x00000000000000000000000085b306fc24cf5ceceaa1ff5fec293b366b6d1bf500000000000000000000000000000000000000000000010a67e4504da4512a33",
                    "decodedMethod": {
                        "callParams": [
                            {
                                "name": "_to",
                                "type": "address",
                                "value": "0x85b306fc24cf5ceceaa1ff5fec293b366b6d1bf5"
                            },
                            {
                                "decimalAvailable": true,
                                "name": "_value",
                                "type": "uint256",
                                "value": "4,914,320,120,381,736,823,347"
                            }
                        ],
                        "constructorArguments": "",
                        "name": "transfer",
                        "returnParams": [
                            {
                                "name": "",
                                "type": "bool",
                                "value": true
                            }
                        ],
                        "signature": "transfer(address,uint256)"
                    },
                    "errorInfo": "",
                    "fromAddress": "0xf636c42a52090f190aa14e2fa7a827eaddc0b8ab",
                    "gasUsed": 28697,
                    "id": 4,
                    "methodDecoded": true,
                    "operation": "CALL",
                    "output": "0x0000000000000000000000000000000000000000000000000000000000000001",
                    "revert": false,
                    "revertMessage": "",
                    "selector": "0xa9059cbb",
                    "status": true,
                    "value": "0"
                },
                "nodeType": 0
            },
            "5": {
                "event": {
                    "contract": "0xc528c28fec0a90c083328bc45f587ee215760a0f",
                    "decodedLog": {
                        "name": "Transfer",
                        "params": [
                            {
                                "name": "from",
                                "type": "address",
                                "value": "0xf636c42a52090f190aa14e2fa7a827eaddc0b8ab"
                            },
                            {
                                "name": "to",
                                "type": "address",
                                "value": "0x85b306fc24cf5ceceaa1ff5fec293b366b6d1bf5"
                            },
                            {
                                "decimalAvailable": true,
                                "name": "value",
                                "type": "uint256",
                                "value": "4,914,320,120,381,736,823,347"
                            }
                        ],
                        "signature": "Transfer(address,address,uint256)"
                    },
                    "id": 5,
                    "logData": "0x00000000000000000000000000000000000000000000010a67e4504da4512a33",
                    "logDecoded": true,
                    "operation": "EVENT",
                    "revert": false,
                    "status": true,
                    "topics": [
                        "0xddf252ad1be2c89b69c2b068fc378daa952ba7f163c4a11628f55a4df523b3ef",
                        "0x000000000000000000000000f636c42a52090f190aa14e2fa7a827eaddc0b8ab",
                        "0x00000000000000000000000085b306fc24cf5ceceaa1ff5fec293b366b6d1bf5"
                    ]
                },
                "nodeType": 1
            },
            "6": {
                "event": {
                    "contract": "0xf636c42a52090f190aa14e2fa7a827eaddc0b8ab",
                    "decodedLog": null,
                    "id": 6,
                    "logData": "0x000000000000000000000000c528c28fec0a90c083328bc45f587ee215760a0f00000000000000000000000085b306fc24cf5ceceaa1ff5fec293b366b6d1bf500000000000000000000000000000000000000000000010a67e4504da4512a330000000000000000000000000000000000000000000000000000000000000001000000000000000000000000000000000000000000006b620c4e3759f348c717",
                    "logDecoded": false,
                    "operation": "EVENT",
                    "revert": false,
                    "status": true,
                    "topics": [
                        "0x92f60d5ba7fa0cbaae3ecdbd464cc4c53e7fc7d32c0086dc39b86da20e262a67"
                    ]
                },
                "nodeType": 1
            }
        },
        "gasFlame": [
            {
                "children": [
                    {
                        "children": [
                            {
                                "children": [],
                                "depth": 0,
                                "name": "Initial Gas",
                                "value": 24472
                            },
                            {
                                "children": [
                                    {
                                        "children": [
                                            {
                                                "children": [],
                                                "depth": 2,
                                                "name": "balanceOf",
                                                "value": 713
                                            },
                                            {
                                                "children": [],
                                                "depth": 2,
                                                "name": "0x9592619c",
                                                "value": 729
                                            },
                                            {
                                                "children": [],
                                                "depth": 2,
                                                "name": "transfer",
                                                "value": 28697
                                            }
                                        ],
                                        "depth": 1,
                                        "name": "0x392a4fa2",
                                        "value": 67694
                                    }
                                ],
                                "depth": 0,
                                "name": "Executed Gas",
                                "value": 95583
                            }
                        ],
                        "depth": -1,
                        "name": "Actual Gas Used",
                        "value": 105055
                    },
                    {
                        "children": [],
                        "depth": -1,
                        "name": "Refunded Gas",
                        "value": 15000
                    }
                ],
                "depth": -2,
                "name": "Total Gas",
                "value": 120055
            }
        ],
        "isConfirmed": true,
        "mainTrace": [
            {
                "children": [
                    {
                        "children": [
                            {
                                "children": [
                                    {
                                        "children": [],
                                        "depth": 2,
                                        "id": 2,
                                        "order": 2
                                    },
                                    {
                                        "children": [],
                                        "depth": 2,
                                        "id": 3,
                                        "order": 3
                                    },
                                    {
                                        "children": [
                                            {
                                                "children": [],
                                                "depth": 3,
                                                "id": 5,
                                                "order": 5
                                            }
                                        ],
                                        "depth": 2,
                                        "id": 4,
                                        "order": 4
                                    },
                                    {
                                        "children": [],
                                        "depth": 2,
                                        "id": 6,
                                        "order": 6
                                    }
                                ],
                                "depth": 1,
                                "id": 1,
                                "order": 1
                            }
                        ],
                        "depth": 0,
                        "id": 0,
                        "order": 0
                    }
                ],
                "depth": -1,
                "id": -1,
                "order": -1
            }
        ],
        "mainTraceNodeCount": 7,
        "parentIdMap": {
            "0": -1,
            "1": 0,
            "2": 1,
            "3": 1,
            "4": 1,
            "5": 4,
            "6": 1
        },
        "tidyTrace": [
            {
                "children": [
                    {
                        "children": [
                            {
                                "children": [
                                    {
                                        "children": [],
                                        "depth": 2,
                                        "id": 2,
                                        "order": 2
                                    },
                                    {
                                        "children": [],
                                        "depth": 2,
                                        "id": 3,
                                        "order": 3
                                    },
                                    {
                                        "children": [
                                            {
                                                "children": [],
                                                "depth": 3,
                                                "id": 5,
                                                "order": 5
                                            }
                                        ],
                                        "depth": 2,
                                        "id": 4,
                                        "order": 4
                                    },
                                    {
                                        "children": [],
                                        "depth": 2,
                                        "id": 6,
                                        "order": 6
                                    }
                                ],
                                "depth": 1,
                                "id": 1,
                                "order": 1
                            }
                        ],
                        "depth": 0,
                        "id": 0,
                        "order": 0
                    }
                ],
                "depth": -1,
                "id": -1,
                "order": -1
            }
        ],
        "tidyTraceNodeCount": 7
    },
    "state_change": {
        "stateChanges": [
            {
                "address": "0xc528c28fec0a90c083328bc45f587ee215760a0f",
                "erc": "ERC-20",
                "slots": [
                    {
                        "current": "0x00000000000000000000000000000000000000000000010a67e4504da4512a33",
                        "key": "0xc85b6c9448ecff6f6efda56a139e54526bfde7b198429f18ba75f218e822a458",
                        "prev": "0x0000000000000000000000000000000000000000000000000000000000000000"
                    },
                    {
                        "current": "0x000000000000000000000000000000000000000000006b620c4e3759f348c717",
                        "key": "0xb2cf9faa2460e973f89c6e4d0d2ca55f413a0f996d4763ec0b3884df718be856",
                        "prev": "0x000000000000000000000000000000000000000000006c6c743287a79799f14a"
                    }
                ],
                "storageVariables": [
                    {
                        "name": "balances",
                        "type": "mapping(address => uint256)",
                        "value": {
                            "pairs": [
                                {
                                    "key": "0x85b306fc24cf5ceceaa1ff5fec293b366b6d1bf5",
                                    "value": {
                                        "current": "4914320120381736823347",
                                        "prev": "0",
                                        "typeTag": 1
                                    }
                                },
                                {
                                    "key": "0xf636c42a52090f190aa14e2fa7a827eaddc0b8ab",
                                    "value": {
                                        "current": "507101881293311685740311",
                                        "prev": "512016201413693422563658",
                                        "typeTag": 1
                                    }
                                }
                            ],
                            "typeTag": 4
                        }
                    }
                ]
            },
            {
                "address": "0xf636c42a52090f190aa14e2fa7a827eaddc0b8ab",
                "erc": "",
                "slots": [
                    {
                        "current": "0x00000000000000000000000000000000000000000000010a67e4504da4512a33",
                        "key": "0x19f74c5ca40de95425fb7a19440bd5455f2a833f2cbbe6f4b517379529317461",
                        "prev": "0x0000000000000000000000000000000000000000000000000000000000000000"
                    },
                    {
                        "current": "0x0000000000000000000000000000000000000000000016b6a30ba1f85b4338e9",
                        "key": "0x1ece8c6a22e757f7b887513c195101b24720c9c34aacb2f30b3d888b90d943af",
                        "prev": "0x0000000000000000000000000000000000000000000015ac3b2751aab6f20eb6"
                    }
                ],
                "storageVariables": []
            }
        ]
    }
}