{
    "balance_change": {
        "balanceChanges": [
            {
                "account": "0x4f8397904a3f3d6976ecd2dece2010d17e295613",
                "assets": [
                    {
                        "address": "0xeeeeeeeeeeeeeeeeeeeeeeeeeeeeeeeeeeeeeeee",
                        "amount": "0.1",
                        "iconUrl": "https://assets.blocksec.com/image/1663669189317-3.png",
                        "isERC1155": false,
                        "isERC721": false,
                        "sign": false,
                        "value": ""
                    }
                ]
            },
            {
                "account": "0x999999c60566e0a78df17f71886333e1dace0bae",
                "assets": [
                    {
                        "address": "0xeeeeeeeeeeeeeeeeeeeeeeeeeeeeeeeeeeeeeeee",
                        "amount": "0.1",
                        "iconUrl": "https://assets.blocksec.com/image/1663669189317-3.png",
                        "isERC1155": false,
                        "isERC721": false,
                        "sign": true,
                        "value": ""
                    }
                ]
            }
        ]
    },
    "profile": {
        "basic_info": {
            "baseFee": "",
            "blockNumber": 7871512,
            "callData": "0x403a0a780000000000000000000000000000000000000000000000000000000000000040000000000000000000000000000000000000000000000000000000000000000d0000000000000000000000000000000000000000000000000000000000781d0a9943ae83e26b0a1567dc40040108729cdbd3076f51610c38467f8f1b42a08c8455c118690db1b71cd7ceed2dedf2d32388b28193ff522fb5134528db9e28c26627a46093744f2ea08e6a822a0a1667c344de1d8faedbc470a782da105d5832d70000000000000000000000000000000000000000000000000000000000000000",
            "debugEnable": true,
            "errorInfo": "",
            "eventCount": 1,
            "feeRecipient": "0x829bd824b016326a401d083b33d092293333a830",
            "formatValue": "0.1",
            "gasLimit": 150000,
            "gasPrice": "7.4",
            "gasUsed": 82843,
            "intTxnCount": 1,
            "internalRevert": false,
            "internalRevertMessage": "",
            "isContractCreation": false,
            "isFlashloan": false,
            "maxFee": "",
            "nonce": 27924,
            "overwritedBlockNumber": -1,
            "priorityFee": "",
            "receiver": "0x999999c60566e0a78df17f71886333e1dace0bae",
            "revertMessage": "",
            "sender": "0x4f8397904a3f3d6976ecd2dece2010d17e295613",
            "simulationEnable": true,
            "sourceTxnHash": "0x9a4b8a82bfd6a8872243a668702bb128c3c0333a69b0714d584499f71756a709",
            "status": true,
            "timestamp": "2019-06-01T04:08:51Z",
            "transactionFee": "0.0006130382",
            "txnHash": "0x9a4b8a82bfd6a8872243a668702bb128c3c0333a69b0714d584499f71756a709",
            "txnIndex": 14,
            "type": 0,
            "value": "100000000000000000"
        },
        "fund_flow": [
            {
                "amount": "0.1",
                "from": "0x4f8397904a3f3d6976ecd2dece2010d17e295613",
                "id": 1,
                "isERC1155": false,
                "isERC721": false,
                "isReverted": false,
                "order": 1,
                "to": "0x999999c60566e0a78df17f71886333e1dace0bae",
                "token": "0xeeeeeeeeeeeeeeeeeeeeeeeeeeeeeeeeeeeeeeee"
            }
        ],
        "token_infos": [
            {
                "address": "0xc02aaa39b223fe8d0a0e5c4f27ead9083c756cc2",
                "decimals": 18
            },
            {
                "address": "0xeeeeeeeeeeeeeeeeeeeeeeeeeeeeeeeeeeeeeeee",
                "decimals": 18
            }
        ]
    },
    "address_label": {
        "labels": [
            {
                "address": "0x999999c60566e0a78df17f71886333e1dace0bae",
                "label": "FCK.com: Dice"
            },
            {
                "address": "0x0000000000000000000000000000000000000001",
                "label": "Precompiled"
            },
            {
                "address": "0x0000000000000000000000000000000000000002",
                "label": "Precompiled"
            },
            {
                "address": "0x0000000000000000000000000000000000000003",
                "label": "Precompiled"
            },
            {
                "address": "0x0000000000000000000000000000000000000004",
                "label": "Precompiled"
            },
            {
                "address": "0xeeeeeeeeeeeeeeeeeeeeeeeeeeeeeeeeeeeeeeee",
                "label": "Ether"
            }
        ]
    },
    "trace": {
        "accountLabels": null,
        "dataMap": {
            "-1": {
                "invocation": {
                    "address": "0x4f8397904a3f3d6976ecd2dece2010d17e295613",
                    "callData": "",
                    "decodedMethod": null,
                    "errorInfo": "",
                    "fromAddress": "",
                    "gasUsed": 0,
                    "id": -1,
                    "methodDecoded": false,
                    "operation": "",
                    "output": "",
                    "revert": false,
                    "revertMessage": "",
                    "selector": "",
                    "status": false,
                    "value": ""
                },
                "nodeType": 0
            },
            "0": {
                "invocation": {
                    "address": "0x999999c60566e0a78df17f71886333e1dace0bae",
                    "callData": "0x0000000000000000000000000000000000000000000000000000000000000040000000000000000000000000000000000000000000000000000000000000000d0000000000000000000000000000000000000000000000000000000000781d0a9943ae83e26b0a1567dc40040108729cdbd3076f51610c38467f8f1b42a08c8455c118690db1b71cd7ceed2dedf2d32388b28193ff522fb5134528db9e28c26627a46093744f2ea08e6a822a0a1667c344de1d8faedbc470a782da105d5832d70000000000000000000000000000000000000000000000000000000000000000",
                    "decodedMethod": {
                        "callParams": [
                            {
                                "name": "betMask",
                                "type": "uint256",
                                "value": "64"
                            },
                            {
                                "name": "modulo",
                                "type": "uint256",
                                "value": "13"
                            },
                            {
                                "name": "commitLastBlock",
                                "type": "uint256",
                                "value": "7,871,754"
                            },
                            {
                                "name": "commit",
                                "type": "uint256",
                                "value": "69,323,449,046,041,875,493,781,998,095,056,212,482,930,364,458,115,961,111,192,654,341,076,844,317,828"
                            },
                            {
                                "name": "r",
                                "type": "bytes32",
                                "value": "0x55c118690db1b71cd7ceed2dedf2d32388b28193ff522fb5134528db9e28c266"
                            },
                            {
                                "name": "s",
                                "type": "bytes32",
                                "value": "0x27a46093744f2ea08e6a822a0a1667c344de1d8faedbc470a782da105d5832d7"
                            },
                            {
                                "name": "source",
                                "type": "uint256",
                                "value": "0"
                            }
                        ],
                        "constructorArguments": "",
                        "name": "placeBet",
                        "returnParams": [],
                        "signature": "placeBet(uint256,uint256,uint256,uint256,bytes32,bytes32,uint256)"
                    },
                    "errorInfo": "",
                    "fromAddress": "0x4f8397904a3f3d6976ecd2dece2010d17e295613",
                    "gasUsed": 82843,
                    "id": 0,
                    "methodDecoded": true,
                    "operation": "CALL",
                    "output": "",
                    "revert": false,
                    "revertMessage": "",
                    "selector": "0x403a0a78",
                    "status": true,
                    "value": "0.1"
                },
                "nodeType": 0
            },
            "1": {
                "invocation": {
                    "address": "0x0000000000000000000000000000000000000001",
                    "callData": "0x1768ce85470ed67521c9670585e7689b28dd25ff3f8373e067f9bc5c000000000000000000000000000000000000000000000000000000000000001b55c118690db1b71cd7ceed2dedf2d32388b28193ff522fb5134528db9e28c26627a46093744f2ea08e6a822a0a1667c344de1d8faedbc470a782da105d5832d7",
                    "decodedMethod": {
                        "callParams": [
                            {
                                "name": "hash",
                                "type": "bytes32",
                                "value": "0x876791311768ce85470ed67521c9670585e7689b28dd25ff3f8373e067f9bc5c"
                            },
                            {
                                "name": "v",
                                "type": "uint256",
                                "value": "27"
                            },
                            {
                                "name": "r",
                                "type": "bytes32",
                                "value": "0x55c118690db1b71cd7ceed2dedf2d32388b28193ff522fb5134528db9e28c266"
                            },
                            {
                                "name": "s",
                                "type": "bytes32",
                                "value": "0x27a46093744f2ea08e6a822a0a1667c344de1d8faedbc470a782da105d5832d7"
                            }
                        ],
                        "constructorArguments": "",
                        "name": "ecrecover",
                        "returnParams": [
                            {
                                "name": "",
                                "type": "address",
                                "value": "0x336417d90c5135701823a50c687450fe92bd1bf8"
                            }
                        ],
                        "signature": "ecrecover(bytes32,uint256,bytes32,bytes32)"
                    },
                    "errorInfo": "",
                    "fromAddress": "0x999999c60566e0a78df17f71886333e1dace0bae",
                    "gasUsed": 3000,
                    "id": 1,
                    "methodDecoded": true,
                    "operation": "STATICCALL",
                    "output": "0x000000000000000000000000336417d90c5135701823a50c687450fe92bd1bf8",
                    "revert": false,
                    "revertMessage": "",
                    "selector": "0x87679131",
                    "status": true,
                    "value": "0"
                },
                "nodeType": 0
            },
            "2": {
                "event": {
                    "contract": "0x999999c60566e0a78df17f71886333e1dace0bae",
                    "decodedLog": {
                        "name": "Commit",
                        "params": [
                            {
                                "name": "commit",
                                "type": "uint256",
                                "value": "69,323,449,046,041,875,493,781,998,095,056,212,482,930,364,458,115,961,111,192,654,341,076,844,317,828"
                            },
                            {
                                "name": "source",
                                "type": "uint256",
                                "value": "0"
                            }
                        ],
                        "signature": "Commit(uint256,uint256)"
                    },
                    "id": 2,
                    "logData": "0x9943ae83e26b0a1567dc40040108729cdbd3076f51610c38467f8f1b42a08c840000000000000000000000000000000000000000000000000000000000000000",
                    "logDecoded": true,
                    "operation": "EVENT",
                    "revert": false,
                    "status": true,
                    "topics": [
                        "0xacafc53544c2ca5cd4dbfda9282c25a35859f0d4ceb77a8275dca1660b1ed3ad"
                    ]
                },
                "nodeType": 1
            }
        },
        "gasFlame": [
            {
                "children": [
                    {
                        "children": [
                            {
                                "children": [],
                                "depth": 0,
                                "name": "Initial Gas",
                                "value": 28632
                            },
                            {
                                "children": [
                                    {
                                        "children": [],
                                        "depth": 1,
                                        "name": "ecrecover",
                                        "value": 3000
                                    }
                                ],
                                "depth": 0,
                                "name": "Executed Gas",
                                "value": 54211
                            }
                        ],
                        "depth": -1,
                        "name": "Actual Gas Used",
                        "value": 82843
                    },
                    {
                        "children": [],
                        "depth": -1,
                        "name": "Refunded Gas",
                        "value": 0
                    }
                ],
                "depth": -2,
                "name": "Total Gas",
                "value": 82843
            }
        ],
        "isConfirmed": true,
        "mainTrace": [
            {
                "children": [
                    {
                        "children": [
                            {
                                "children": [],
                                "depth": 1,
                                "id": 1,
                                "order": 1
                            },
                            {
                                "children": [],
                                "depth": 1,
                                "id": 2,
                                "order": 2
                            }
                        ],
                        "depth": 0,
                        "id": 0,
                        "order": 0
                    }
                ],
                "depth": -1,
                "id": -1,
                "order": -1
            }
        ],
        "mainTraceNodeCount": 3,
        "parentIdMap": {
            "0": -1,
            "1": 0,
            "2": 0
        },
        "tidyTrace": [
            {
                "children": [
                    {
                        "children": [
                            {
                                "children": [],
                                "depth": 1,
                                "id": 2,
                                "order": 2
                            }
                        ],
                        "depth": 0,
                        "id": 0,
                        "order": 0
                    }
                ],
                "depth": -1,
                "id": -1,
                "order": -1
            }
        ],
        "tidyTraceNodeCount": 2
    },
    "state_change": {
        "stateChanges": [
            {
                "address": "0x999999c60566e0a78df17f71886333e1dace0bae",
                "erc": "",
                "slots": [
                    {
                        "current": "0x0000000000000000000000000000000000000000000000000000400000781c18",
                        "key": "0xf4576c91bc693cd220f485c9814f0574e6c26eb19eb7ea38a21aca9e94163620",
                        "prev": "0x0000000000000000000000000000000000000000000000000000000000000000"
                    },
                    {
                        "current": "0x4f8397904a3f3d6976ecd2dece2010d17e295613010d0000016345785d8a0000",
                        "key": "0xf4576c91bc693cd220f485c9814f0574e6c26eb19eb7ea38a21aca9e9416361f",
                        "prev": "0x0000000000000000000000000000000000000000000000000000000000000000"
                    },
                    {
                        "current": "0x000000000000000011af14b7fb7d400000000000000000000146d98337560000",
                        "key": "0x0000000000000000000000000000000000000000000000000000000000000004",
                        "prev": "0x00000000000000000000000000000000000000000000000001434c04928f8000"
                    }
                ],
                "storageVariables": [
                    {
                        "name": "bets",
                        "type": "mapping(uint256 => struct FckDice.Bet)",
                        "value": {
                            "pairs": [
                                {
                                    "key": "69323449046041875493781998095056212482930364458115961111192654341076844317828",
                                    "value": {
                                        "fields": [
                                            {
                                                "name": "amount",
                                                "type": "uint80",
                                                "value": {
                                                    "current": "100000000000000000",
                                                    "prev": "0",
                                                    "typeTag": 1
                                                }
                                            },
                                            {
                                                "name": "modulo",
                                                "type": "uint8",
                                                "value": {
                                                    "current": "13",
                                                    "prev": "0",
                                                    "typeTag": 1
                                                }
                                            },
                                            {
                                                "name": "rollUnder",
                                                "type": "uint8",
                                                "value": {
                                                    "current": "1",
                                                    "prev": "0",
                                                    "typeTag": 1
                                                }
                                            },
                                            {
                                                "name": "gambler",
                                                "type": "address payable",
                                                "value": {
                                                    "current": "0x4f8397904a3f3d6976ecd2dece2010d17e295613",
                                                    "prev": "0x0000000000000000000000000000000000000000",
                                                    "typeTag": 1
                                                }
                                            },
                                            {
                                                "name": "placeBlockNumber",
                                                "type": "uint40",
                                                "value": {
                                                    "current": "7871512",
                                                    "prev": "0",
                                                    "typeTag": 1
                                                }
                                            },
                                            {
                                                "name": "mask",
                                                "type": "uint216",
                                                "value": {
                                                    "current": "64",
                                                    "prev": "0",
                                                    "typeTag": 1
                                                }
                                            }
                                        ],
                                        "typeTag": 3
                                    }
                                }
                            ],
                            "typeTag": 4
                        }
                    },
                    {
                        "name": "jackpotSize",
                        "type": "uint128",
                        "value": {
                            "current": "92000000000000000",
                            "prev": "91000000000000000",
                            "typeTag": 1
                        }
                    },
                    {
                        "name": "lockedInBets",
                        "type": "uint128",
                        "value": {
                            "current": "1274260000000000000",
                            "prev": "0",
                            "typeTag": 1
                        }
                    }
                ]
            }
        ]
    }
}