{
    "balance_change": {
        "balanceChanges": [
            {
                "account": "0xec12b70887e24a8cd5c8a0407083c7f420216d6c",
                "assets": [
                    {
                        "address": "0x08ceed1e8db59acbb687a5752f0a7db815cfda5e",
                        "amount": "76.1801483146558",
                        "iconUrl": "",
                        "isERC1155": false,
                        "isERC721": false,
                        "sign": false,
                        "value": ""
                    }
                ]
            },
            {
                "account": "0x7c0c95fc3393eaeae54350c814ed446ce0954781",
                "assets": [
                    {
                        "address": "0x08ceed1e8db59acbb687a5752f0a7db815cfda5e",
                        "amount": "76.1801483146558",
                        "iconUrl": "",
                        "isERC1155": false,
                        "isERC721": false,
                        "sign": true,
                        "value": ""
                    }
                ]
            }
        ]
    },
    "profile": {
        "basic_info": {
            "baseFee": "",
            "blockNumber": 6980792,
            "callData": "0xa9059cbb0000000000000000000000007c0c95fc3393eaeae54350c814ed446ce095478100000000000000000000000000000000000000000000000421364145bfa1bac0",
            "debugEnable": true,
            "errorInfo": "",
            "eventCount": 1,
            "feeRecipient": "0x35f61dfb08ada13eba64bf156b80df3d5b3a738d",
            "formatValue": "0",
            "gasLimit": 37473,
            "gasPrice": "21",
            "gasUsed": 22473,
            "intTxnCount": 0,
            "internalRevert": false,
            "internalRevertMessage": "",
            "isContractCreation": false,
            "isFlashloan": false,
            "maxFee": "",
            "nonce": 0,
            "overwritedBlockNumber": -1,
            "priorityFee": "",
            "receiver": "0x08ceed1e8db59acbb687a5752f0a7db815cfda5e",
            "revertMessage": "",
            "sender": "0xec12b70887e24a8cd5c8a0407083c7f420216d6c",
            "simulationEnable": true,
            "sourceTxnHash": "0x9a679fc30eb1ba3c8b819e6f80dca03abadde1c7cde2160ed097c058f54c486b",
            "status": true,
            "timestamp": "2018-12-30T16:22:24Z",
            "transactionFee": "0.000471933",
            "txnHash": "0x9a679fc30eb1ba3c8b819e6f80dca03abadde1c7cde2160ed097c058f54c486b",
            "txnIndex": 13,
            "type": 0,
            "value": "0"
        },
        "fund_flow": [
            {
                "amount": "76.1801483146558",
                "from": "0xec12b70887e24a8cd5c8a0407083c7f420216d6c",
                "id": 1,
                "isERC1155": false,
                "isERC721": false,
                "isReverted": false,
                "order": 1,
                "to": "0x7c0c95fc3393eaeae54350c814ed446ce0954781",
                "token": "0x08ceed1e8db59acbb687a5752f0a7db815cfda5e"
            }
        ],
        "token_infos": [
            {
                "address": "0x08ceed1e8db59acbb687a5752f0a7db815cfda5e",
                "decimals": 18
            },
            {
                "address": "0xc02aaa39b223fe8d0a0e5c4f27ead9083c756cc2",
                "decimals": 18
            },
            {
                "address": "0xeeeeeeeeeeeeeeeeeeeeeeeeeeeeeeeeeeeeeeee",
                "decimals": 18
            }
        ]
    },
    "address_label": {
        "labels": [
            {
                "address": "0xeeeeeeeeeeeeeeeeeeeeeeeeeeeeeeeeeeeeeeee",
                "label": "Ether"
            },
            {
                "address": "0x08ceed1e8db59acbb687a5752f0a7db815cfda5e",
                "label": "Electronic Energy Coin"
            },
            {
                "address": "0x7c0c95fc3393eaeae54350c814ed446ce0954781",
                "label": "TIDEX"
            },
            {
                "address": "0x0000000000000000000000000000000000000001",
                "label": "Precompiled"
            },
            {
                "address": "0x0000000000000000000000000000000000000002",
                "label": "Precompiled"
            },
            {
                "address": "0x0000000000000000000000000000000000000003",
                "label": "Precompiled"
            },
            {
                "address": "0x0000000000000000000000000000000000000004",
                "label": "Precompiled"
            }
        ]
    },
    "trace": {
        "accountLabels": null,
        "dataMap": {
            "-1": {
                "invocation": {
                    "address": "0xec12b70887e24a8cd5c8a0407083c7f420216d6c",
                    "callData": "",
                    "decodedMethod": null,
                    "errorInfo": "",
                    "fromAddress": "",
                    "gasUsed": 0,
                    "id": -1,
                    "methodDecoded": false,
                    "operation": "",
                    "output": "",
                    "revert": false,
                    "revertMessage": "",
                    "selector": "",
                    "status": false,
                    "value": ""
                },
                "nodeType": 0
            },
            "0": {
                "invocation": {
                    "address": "0x08ceed1e8db59acbb687a5752f0a7db815cfda5e",
                    "callData": "0x0000000000000000000000007c0c95fc3393eaeae54350c814ed446ce095478100000000000000000000000000000000000000000000000421364145bfa1bac0",
                    "decodedMethod": {
                        "callParams": [
                            {
                                "name": "_to",
                                "type": "address",
                                "value": "0x7c0c95fc3393eaeae54350c814ed446ce0954781"
                            },
                            {
                                "decimalAvailable": true,
                                "name": "_value",
                                "type": "uint256",
                                "value": "76,180,148,314,655,800,000"
                            }
                        ],
                        "constructorArguments": "",
                        "name": "transfer",
                        "returnParams": [
                            {
                                "name": "",
                                "type": "bool",
                                "value": true
                            }
                        ],
                        "signature": "transfer(address,uint256)"
                    },
                    "errorInfo": "",
                    "fromAddress": "0xec12b70887e24a8cd5c8a0407083c7f420216d6c",
                    "gasUsed": 22473,
                    "id": 0,
                    "methodDecoded": true,
                    "operation": "CALL",
                    "output": "0x0000000000000000000000000000000000000000000000000000000000000001",
                    "revert": false,
                    "revertMessage": "",
                    "selector": "0xa9059cbb",
                    "status": true,
                    "value": "0"
                },
                "nodeType": 0
            },
            "1": {
                "event": {
                    "contract": "0x08ceed1e8db59acbb687a5752f0a7db815cfda5e",
                    "decodedLog": {
                        "name": "Transfer",
                        "params": [
                            {
                                "name": "from",
                                "type": "address",
                                "value": "0xec12b70887e24a8cd5c8a0407083c7f420216d6c"
                            },
                            {
                                "name": "to",
                                "type": "address",
                                "value": "0x7c0c95fc3393eaeae54350c814ed446ce0954781"
                            },
                            {
                                "decimalAvailable": true,
                                "name": "value",
                                "type": "uint256",
                                "value": "76,180,148,314,655,800,000"
                            }
                        ],
                        "signature": "Transfer(address,address,uint256)"
                    },
                    "id": 1,
                    "logData": "0x00000000000000000000000000000000000000000000000421364145bfa1bac0",
                    "logDecoded": true,
                    "operation": "EVENT",
                    "revert": false,
                    "status": true,
                    "topics": [
                        "0xddf252ad1be2c89b69c2b068fc378daa952ba7f163c4a11628f55a4df523b3ef",
                        "0x000000000000000000000000ec12b70887e24a8cd5c8a0407083c7f420216d6c",
                        "0x0000000000000000000000007c0c95fc3393eaeae54350c814ed446ce0954781"
                    ]
                },
                "nodeType": 1
            }
        },
        "gasFlame": [
            {
                "children": [
                    {
                        "children": [
                            {
                                "children": [],
                                "depth": 0,
                                "name": "Initial Gas",
                                "value": 23384
                            },
                            {
                                "children": [],
                                "depth": 0,
                                "name": "Executed Gas",
                                "value": 14089
                            }
                        ],
                        "depth": -1,
                        "name": "Actual Gas Used",
                        "value": 22473
                    },
                    {
                        "children": [],
                        "depth": -1,
                        "name": "Refunded Gas",
                        "value": 15000
                    }
                ],
                "depth": -2,
                "name": "Total Gas",
                "value": 37473
            }
        ],
        "isConfirmed": true,
        "mainTrace": [
            {
                "children": [
                    {
                        "children": [
                            {
                                "children": [],
                                "depth": 1,
                                "id": 1,
                                "order": 1
                            }
                        ],
                        "depth": 0,
                        "id": 0,
                        "order": 0
                    }
                ],
                "depth": -1,
                "id": -1,
                "order": -1
            }
        ],
        "mainTraceNodeCount": 2,
        "parentIdMap": {
            "0": -1,
            "1": 0
        },
        "tidyTrace": [
            {
                "children": [
                    {
                        "children": [
                            {
                                "children": [],
                                "depth": 1,
                                "id": 1,
                                "order": 1
                            }
                        ],
                        "depth": 0,
                        "id": 0,
                        "order": 0
                    }
                ],
                "depth": -1,
                "id": -1,
                "order": -1
            }
        ],
        "tidyTraceNodeCount": 2
    },
    "state_change": {
        "stateChanges": [
            {
                "address": "0x08ceed1e8db59acbb687a5752f0a7db815cfda5e",
                "erc": "ERC-20",
                "slots": [
                    {
                        "current": "0x00000000000000000000000000000000000000000000000801cb068d504ec920",
                        "key": "0xe5c629151c503fdc8095da7583faea8250abe9c38356fd4eb440efc10f4b42d4",
                        "prev": "0x000000000000000000000000000000000000000000000003e094c54790ad0e60"
                    },
                    {
                        "current": "0x0000000000000000000000000000000000000000000000000000000000000000",
                        "key": "0xbcb6eeb200b787e9a19275b1ff19917e0095d8a23d1dee51ba275db1ddcf2b7f",
                        "prev": "0x00000000000000000000000000000000000000000000000421364145bfa1bac0"
                    }
                ],
                "storageVariables": [
                    {
                        "name": "balances",
                        "type": "mapping(address => uint256)",
                        "value": {
                            "pairs": [
                                {
                                    "key": "0x7c0c95fc3393eaeae54350c814ed446ce0954781",
                                    "value": {
                                        "current": "147703156807994100000",
                                        "prev": "71523008493338300000",
                                        "typeTag": 1
                                    }
                                },
                                {
                                    "key": "0xec12b70887e24a8cd5c8a0407083c7f420216d6c",
                                    "value": {
                                        "current": "0",
                                        "prev": "76180148314655800000",
                                        "typeTag": 1
                                    }
                                }
                            ],
                            "typeTag": 4
                        }
                    }
                ]
            }
        ]
    }
}