{
    "balance_change": {
        "balanceChanges": [
            {
                "account": "0x24968999f3d3995169b909e046effed85d4d5c6f",
                "assets": [
                    {
                        "address": "0x155697df0d39e18f719fa58e25a53a65ccb4864e",
                        "amount": "525",
                        "iconUrl": "",
                        "isERC1155": false,
                        "isERC721": false,
                        "sign": false,
                        "value": ""
                    }
                ]
            },
            {
                "account": "0x0000000000000000000000000000000000000000",
                "assets": [
                    {
                        "address": "0x155697df0d39e18f719fa58e25a53a65ccb4864e",
                        "amount": "525",
                        "iconUrl": "",
                        "isERC1155": false,
                        "isERC721": false,
                        "sign": true,
                        "value": ""
                    }
                ]
            }
        ]
    },
    "profile": {
        "basic_info": {
            "baseFee": "",
            "blockNumber": 9610881,
            "callData": "0x9bd9bbc60000000000000000000000009876c59712130f0110120964ae0f42102a9d17d900000000000000000000000000000000000000000000001c75d6ae6e48140000000000000000000000000000000000000000000000000000000000000000006000000000000000000000000000000000000000000000000000000000000000200000000000000000000000000000000000000000000000000000000000000000",
            "debugEnable": true,
            "errorInfo": "",
            "eventCount": 5,
            "feeRecipient": "0x652d38d814bcdf3e0f750a0faf272ee96c1f67ed",
            "formatValue": "0",
            "gasLimit": 250000,
            "gasPrice": "5",
            "gasUsed": 98507,
            "intTxnCount": 5,
            "internalRevert": false,
            "internalRevertMessage": "",
            "isContractCreation": false,
            "isFlashloan": false,
            "maxFee": "",
            "nonce": 34,
            "overwritedBlockNumber": -1,
            "priorityFee": "",
            "receiver": "0x155697df0d39e18f719fa58e25a53a65ccb4864e",
            "revertMessage": "",
            "sender": "0x24968999f3d3995169b909e046effed85d4d5c6f",
            "simulationEnable": true,
            "sourceTxnHash": "0x9a675ef3c30c592fa7fca33b2b6c4df8ca7c029ba553059a80d46a237f5cd190",
            "status": true,
            "timestamp": "2020-03-05T11:11:58Z",
            "transactionFee": "0.000492535",
            "txnHash": "0x9a675ef3c30c592fa7fca33b2b6c4df8ca7c029ba553059a80d46a237f5cd190",
            "txnIndex": 31,
            "type": 0,
            "value": "0"
        },
        "fund_flow": [
            {
                "amount": "525",
                "from": "0x24968999f3d3995169b909e046effed85d4d5c6f",
                "id": 1,
                "isERC1155": false,
                "isERC721": false,
                "isReverted": false,
                "order": 1,
                "to": "0x9876c59712130f0110120964ae0f42102a9d17d9",
                "token": "0x155697df0d39e18f719fa58e25a53a65ccb4864e"
            },
            {
                "amount": "525",
                "from": "0x9876c59712130f0110120964ae0f42102a9d17d9",
                "id": 2,
                "isERC1155": false,
                "isERC721": false,
                "isReverted": false,
                "order": 2,
                "to": "0x0000000000000000000000000000000000000000",
                "token": "0x155697df0d39e18f719fa58e25a53a65ccb4864e"
            }
        ],
        "token_infos": [
            {
                "address": "0xeeeeeeeeeeeeeeeeeeeeeeeeeeeeeeeeeeeeeeee",
                "decimals": 18
            },
            {
                "address": "0x155697df0d39e18f719fa58e25a53a65ccb4864e",
                "decimals": 18
            },
            {
                "address": "0xc02aaa39b223fe8d0a0e5c4f27ead9083c756cc2",
                "decimals": 18
            }
        ]
    },
    "address_label": {
        "labels": [
            {
                "address": "0x0000000000000000000000000000000000000000",
                "label": "Null Address"
            },
            {
                "address": "0x0000000000000000000000000000000000000001",
                "label": "Precompiled"
            },
            {
                "address": "0x0000000000000000000000000000000000000002",
                "label": "Precompiled"
            },
            {
                "address": "0x0000000000000000000000000000000000000003",
                "label": "Precompiled"
            },
            {
                "address": "0x0000000000000000000000000000000000000004",
                "label": "Precompiled"
            },
            {
                "address": "0xeeeeeeeeeeeeeeeeeeeeeeeeeeeeeeeeeeeeeeee",
                "label": "Ether"
            },
            {
                "address": "0x155697df0d39e18f719fa58e25a53a65ccb4864e",
                "label": "HMIO (HMIO)"
            },
            {
                "address": "0x1820a4b7618bde71dce8cdc73aab6c95905fad24",
                "label": "ERC1820Registry"
            }
        ]
    },
    "trace": {
        "accountLabels": null,
        "dataMap": {
            "-1": {
                "invocation": {
                    "address": "0x24968999f3d3995169b909e046effed85d4d5c6f",
                    "callData": "",
                    "decodedMethod": null,
                    "errorInfo": "",
                    "fromAddress": "",
                    "gasUsed": 0,
                    "id": -1,
                    "methodDecoded": false,
                    "operation": "",
                    "output": "",
                    "revert": false,
                    "revertMessage": "",
                    "selector": "",
                    "status": false,
                    "value": ""
                },
                "nodeType": 0
            },
            "0": {
                "invocation": {
                    "address": "0x155697df0d39e18f719fa58e25a53a65ccb4864e",
                    "callData": "0x0000000000000000000000009876c59712130f0110120964ae0f42102a9d17d900000000000000000000000000000000000000000000001c75d6ae6e48140000000000000000000000000000000000000000000000000000000000000000006000000000000000000000000000000000000000000000000000000000000000200000000000000000000000000000000000000000000000000000000000000000",
                    "decodedMethod": {
                        "callParams": [
                            {
                                "name": "recipient",
                                "type": "address",
                                "value": "0x9876c59712130f0110120964ae0f42102a9d17d9"
                            },
                            {
                                "name": "amount",
                                "type": "uint256",
                                "value": "525,000,000,000,000,000,000"
                            },
                            {
                                "name": "data",
                                "type": "bytes",
                                "value": "0x0000000000000000000000000000000000000000000000000000000000000000"
                            }
                        ],
                        "constructorArguments": "",
                        "name": "send",
                        "returnParams": [],
                        "signature": "send(address,uint256,bytes)"
                    },
                    "errorInfo": "",
                    "fromAddress": "0x24968999f3d3995169b909e046effed85d4d5c6f",
                    "gasUsed": 98507,
                    "id": 0,
                    "methodDecoded": true,
                    "operation": "CALL",
                    "output": "",
                    "revert": false,
                    "revertMessage": "",
                    "selector": "0x9bd9bbc6",
                    "status": true,
                    "value": "0"
                },
                "nodeType": 0
            },
            "1": {
                "invocation": {
                    "address": "0x1820a4b7618bde71dce8cdc73aab6c95905fad24",
                    "callData": "0x00000000000000000000000024968999f3d3995169b909e046effed85d4d5c6f29ddb589b1fb5fc7cf394961c1adf5f8c6454761adf795e67fe149f658abe895",
                    "decodedMethod": {
                        "callParams": [
                            {
                                "name": "_addr",
                                "type": "address",
                                "value": "0x24968999f3d3995169b909e046effed85d4d5c6f"
                            },
                            {
                                "name": "_interfaceHash",
                                "type": "bytes32",
                                "value": "0x29ddb589b1fb5fc7cf394961c1adf5f8c6454761adf795e67fe149f658abe895"
                            }
                        ],
                        "constructorArguments": "",
                        "name": "getInterfaceImplementer",
                        "returnParams": [
                            {
                                "name": "",
                                "type": "address",
                                "value": "0x0000000000000000000000000000000000000000"
                            }
                        ],
                        "signature": "getInterfaceImplementer(address,bytes32)"
                    },
                    "errorInfo": "",
                    "fromAddress": "0x155697df0d39e18f719fa58e25a53a65ccb4864e",
                    "gasUsed": 1642,
                    "id": 1,
                    "methodDecoded": true,
                    "operation": "STATICCALL",
                    "output": "0x0000000000000000000000000000000000000000000000000000000000000000",
                    "revert": false,
                    "revertMessage": "",
                    "selector": "0xaabbb8ca",
                    "status": true,
                    "value": "0"
                },
                "nodeType": 0
            },
            "10": {
                "event": {
                    "contract": "0x9876c59712130f0110120964ae0f42102a9d17d9",
                    "decodedLog": null,
                    "id": 10,
                    "logData": "0x00000000000000000000000024968999f3d3995169b909e046effed85d4d5c6f000000000000000000000000000000000000000000000000000000000000000000000000000000000000000000000000000000000000001c75d6ae6e48140000",
                    "logDecoded": false,
                    "operation": "EVENT",
                    "revert": false,
                    "status": true,
                    "topics": [
                        "0xbf53b2b01fae8d7b12ac793227f41c0e7ef9d6ff0306c6e6483aa0affa16baa2"
                    ]
                },
                "nodeType": 1
            },
            "2": {
                "event": {
                    "contract": "0x155697df0d39e18f719fa58e25a53a65ccb4864e",
                    "decodedLog": {
                        "name": "Sent",
                        "params": [
                            {
                                "name": "operator",
                                "type": "address",
                                "value": "0x24968999f3d3995169b909e046effed85d4d5c6f"
                            },
                            {
                                "name": "from",
                                "type": "address",
                                "value": "0x24968999f3d3995169b909e046effed85d4d5c6f"
                            },
                            {
                                "name": "to",
                                "type": "address",
                                "value": "0x9876c59712130f0110120964ae0f42102a9d17d9"
                            },
                            {
                                "name": "amount",
                                "type": "uint256",
                                "value": "525,000,000,000,000,000,000"
                            },
                            {
                                "name": "data",
                                "type": "bytes",
                                "value": "0x0000000000000000000000000000000000000000000000000000000000000000"
                            },
                            {
                                "name": "operatorData",
                                "type": "bytes",
                                "value": "0x"
                            }
                        ],
                        "signature": "Sent(address,address,address,uint256,bytes,bytes)"
                    },
                    "id": 2,
                    "logData": "0x00000000000000000000000000000000000000000000001c75d6ae6e48140000000000000000000000000000000000000000000000000000000000000000006000000000000000000000000000000000000000000000000000000000000000a0000000000000000000000000000000000000000000000000000000000000002000000000000000000000000000000000000000000000000000000000000000000000000000000000000000000000000000000000000000000000000000000000",
                    "logDecoded": true,
                    "operation": "EVENT",
                    "revert": false,
                    "status": true,
                    "topics": [
                        "0x06b541ddaa720db2b10a4d0cdac39b8d360425fc073085fac19bc82614677987",
                        "0x00000000000000000000000024968999f3d3995169b909e046effed85d4d5c6f",
                        "0x00000000000000000000000024968999f3d3995169b909e046effed85d4d5c6f",
                        "0x0000000000000000000000009876c59712130f0110120964ae0f42102a9d17d9"
                    ]
                },
                "nodeType": 1
            },
            "3": {
                "event": {
                    "contract": "0x155697df0d39e18f719fa58e25a53a65ccb4864e",
                    "decodedLog": {
                        "name": "Transfer",
                        "params": [
                            {
                                "name": "from",
                                "type": "address",
                                "value": "0x24968999f3d3995169b909e046effed85d4d5c6f"
                            },
                            {
                                "name": "to",
                                "type": "address",
                                "value": "0x9876c59712130f0110120964ae0f42102a9d17d9"
                            },
                            {
                                "decimalAvailable": true,
                                "name": "value",
                                "type": "uint256",
                                "value": "525,000,000,000,000,000,000"
                            }
                        ],
                        "signature": "Transfer(address,address,uint256)"
                    },
                    "id": 3,
                    "logData": "0x00000000000000000000000000000000000000000000001c75d6ae6e48140000",
                    "logDecoded": true,
                    "operation": "EVENT",
                    "revert": false,
                    "status": true,
                    "topics": [
                        "0xddf252ad1be2c89b69c2b068fc378daa952ba7f163c4a11628f55a4df523b3ef",
                        "0x00000000000000000000000024968999f3d3995169b909e046effed85d4d5c6f",
                        "0x0000000000000000000000009876c59712130f0110120964ae0f42102a9d17d9"
                    ]
                },
                "nodeType": 1
            },
            "4": {
                "invocation": {
                    "address": "0x1820a4b7618bde71dce8cdc73aab6c95905fad24",
                    "callData": "0x0000000000000000000000009876c59712130f0110120964ae0f42102a9d17d9b281fc8c12954d22544db45de3159a39272895b169a852b314f9cc762e44c53b",
                    "decodedMethod": {
                        "callParams": [
                            {
                                "name": "_addr",
                                "type": "address",
                                "value": "0x9876c59712130f0110120964ae0f42102a9d17d9"
                            },
                            {
                                "name": "_interfaceHash",
                                "type": "bytes32",
                                "value": "0xb281fc8c12954d22544db45de3159a39272895b169a852b314f9cc762e44c53b"
                            }
                        ],
                        "constructorArguments": "",
                        "name": "getInterfaceImplementer",
                        "returnParams": [
                            {
                                "name": "",
                                "type": "address",
                                "value": "0x9876c59712130f0110120964ae0f42102a9d17d9"
                            }
                        ],
                        "signature": "getInterfaceImplementer(address,bytes32)"
                    },
                    "errorInfo": "",
                    "fromAddress": "0x155697df0d39e18f719fa58e25a53a65ccb4864e",
                    "gasUsed": 1642,
                    "id": 4,
                    "methodDecoded": true,
                    "operation": "STATICCALL",
                    "output": "0x0000000000000000000000009876c59712130f0110120964ae0f42102a9d17d9",
                    "revert": false,
                    "revertMessage": "",
                    "selector": "0xaabbb8ca",
                    "status": true,
                    "value": "0"
                },
                "nodeType": 0
            },
            "5": {
                "invocation": {
                    "address": "0x9876c59712130f0110120964ae0f42102a9d17d9",
                    "callData": "0x00000000000000000000000024968999f3d3995169b909e046effed85d4d5c6f00000000000000000000000024968999f3d3995169b909e046effed85d4d5c6f0000000000000000000000009876c59712130f0110120964ae0f42102a9d17d900000000000000000000000000000000000000000000001c75d6ae6e4814000000000000000000000000000000000000000000000000000000000000000000c00000000000000000000000000000000000000000000000000000000000000100000000000000000000000000000000000000000000000000000000000000002000000000000000000000000000000000000000000000000000000000000000000000000000000000000000000000000000000000000000000000000000000000",
                    "decodedMethod": {
                        "callParams": [
                            {
                                "name": "",
                                "type": "address",
                                "value": "0x24968999f3d3995169b909e046effed85d4d5c6f"
                            },
                            {
                                "name": "",
                                "type": "address",
                                "value": "0x24968999f3d3995169b909e046effed85d4d5c6f"
                            },
                            {
                                "name": "",
                                "type": "address",
                                "value": "0x9876c59712130f0110120964ae0f42102a9d17d9"
                            },
                            {
                                "name": "",
                                "type": "uint256",
                                "value": "525,000,000,000,000,000,000"
                            },
                            {
                                "name": "",
                                "type": "bytes",
                                "value": "0x0000000000000000000000000000000000000000000000000000000000000000"
                            },
                            {
                                "name": "",
                                "type": "bytes",
                                "value": "0x"
                            }
                        ],
                        "constructorArguments": "",
                        "name": "tokensReceived",
                        "returnParams": [],
                        "signature": "tokensReceived(address,address,address,uint256,bytes,bytes)"
                    },
                    "errorInfo": "",
                    "fromAddress": "0x155697df0d39e18f719fa58e25a53a65ccb4864e",
                    "gasUsed": 52698,
                    "id": 5,
                    "methodDecoded": true,
                    "operation": "CALL",
                    "output": "",
                    "revert": false,
                    "revertMessage": "",
                    "selector": "0x0023de29",
                    "status": true,
                    "value": "0"
                },
                "nodeType": 0
            },
            "6": {
                "invocation": {
                    "address": "0x155697df0d39e18f719fa58e25a53a65ccb4864e",
                    "callData": "0x00000000000000000000000000000000000000000000001c75d6ae6e48140000000000000000000000000000000000000000000000000000000000000000004000000000000000000000000000000000000000000000000000000000000000000000000000000000000000000000000000000000000000000000000000000000",
                    "decodedMethod": {
                        "callParams": [
                            {
                                "name": "amount",
                                "type": "uint256",
                                "value": "525,000,000,000,000,000,000"
                            },
                            {
                                "name": "data",
                                "type": "bytes",
                                "value": "0x"
                            }
                        ],
                        "constructorArguments": "",
                        "name": "burn",
                        "returnParams": [],
                        "signature": "burn(uint256,bytes)"
                    },
                    "errorInfo": "",
                    "fromAddress": "0x9876c59712130f0110120964ae0f42102a9d17d9",
                    "gasUsed": 17357,
                    "id": 6,
                    "methodDecoded": true,
                    "operation": "CALL",
                    "output": "",
                    "revert": false,
                    "revertMessage": "",
                    "selector": "0xfe9d9303",
                    "status": true,
                    "value": "0"
                },
                "nodeType": 0
            },
            "7": {
                "invocation": {
                    "address": "0x1820a4b7618bde71dce8cdc73aab6c95905fad24",
                    "callData": "0x0000000000000000000000009876c59712130f0110120964ae0f42102a9d17d929ddb589b1fb5fc7cf394961c1adf5f8c6454761adf795e67fe149f658abe895",
                    "decodedMethod": {
                        "callParams": [
                            {
                                "name": "_addr",
                                "type": "address",
                                "value": "0x9876c59712130f0110120964ae0f42102a9d17d9"
                            },
                            {
                                "name": "_interfaceHash",
                                "type": "bytes32",
                                "value": "0x29ddb589b1fb5fc7cf394961c1adf5f8c6454761adf795e67fe149f658abe895"
                            }
                        ],
                        "constructorArguments": "",
                        "name": "getInterfaceImplementer",
                        "returnParams": [
                            {
                                "name": "",
                                "type": "address",
                                "value": "0x0000000000000000000000000000000000000000"
                            }
                        ],
                        "signature": "getInterfaceImplementer(address,bytes32)"
                    },
                    "errorInfo": "",
                    "fromAddress": "0x155697df0d39e18f719fa58e25a53a65ccb4864e",
                    "gasUsed": 1642,
                    "id": 7,
                    "methodDecoded": true,
                    "operation": "STATICCALL",
                    "output": "0x0000000000000000000000000000000000000000000000000000000000000000",
                    "revert": false,
                    "revertMessage": "",
                    "selector": "0xaabbb8ca",
                    "status": true,
                    "value": "0"
                },
                "nodeType": 0
            },
            "8": {
                "event": {
                    "contract": "0x155697df0d39e18f719fa58e25a53a65ccb4864e",
                    "decodedLog": {
                        "name": "Burned",
                        "params": [
                            {
                                "name": "operator",
                                "type": "address",
                                "value": "0x9876c59712130f0110120964ae0f42102a9d17d9"
                            },
                            {
                                "name": "from",
                                "type": "address",
                                "value": "0x9876c59712130f0110120964ae0f42102a9d17d9"
                            },
                            {
                                "name": "amount",
                                "type": "uint256",
                                "value": "525,000,000,000,000,000,000"
                            },
                            {
                                "name": "data",
                                "type": "bytes",
                                "value": "0x"
                            },
                            {
                                "name": "operatorData",
                                "type": "bytes",
                                "value": "0x"
                            }
                        ],
                        "signature": "Burned(address,address,uint256,bytes,bytes)"
                    },
                    "id": 8,
                    "logData": "0x00000000000000000000000000000000000000000000001c75d6ae6e481400000000000000000000000000000000000000000000000000000000000000000060000000000000000000000000000000000000000000000000000000000000008000000000000000000000000000000000000000000000000000000000000000000000000000000000000000000000000000000000000000000000000000000000",
                    "logDecoded": true,
                    "operation": "EVENT",
                    "revert": false,
                    "status": true,
                    "topics": [
                        "0xa78a9be3a7b862d26933ad85fb11d80ef66b8f972d7cbba06621d583943a4098",
                        "0x0000000000000000000000009876c59712130f0110120964ae0f42102a9d17d9",
                        "0x0000000000000000000000009876c59712130f0110120964ae0f42102a9d17d9"
                    ]
                },
                "nodeType": 1
            },
            "9": {
                "event": {
                    "contract": "0x155697df0d39e18f719fa58e25a53a65ccb4864e",
                    "decodedLog": {
                        "name": "Transfer",
                        "params": [
                            {
                                "name": "from",
                                "type": "address",
                                "value": "0x9876c59712130f0110120964ae0f42102a9d17d9"
                            },
                            {
                                "name": "to",
                                "type": "address",
                                "value": "0x0000000000000000000000000000000000000000"
                            },
                            {
                                "decimalAvailable": true,
                                "name": "value",
                                "type": "uint256",
                                "value": "525,000,000,000,000,000,000"
                            }
                        ],
                        "signature": "Transfer(address,address,uint256)"
                    },
                    "id": 9,
                    "logData": "0x00000000000000000000000000000000000000000000001c75d6ae6e48140000",
                    "logDecoded": true,
                    "operation": "EVENT",
                    "revert": false,
                    "status": true,
                    "topics": [
                        "0xddf252ad1be2c89b69c2b068fc378daa952ba7f163c4a11628f55a4df523b3ef",
                        "0x0000000000000000000000009876c59712130f0110120964ae0f42102a9d17d9",
                        "0x0000000000000000000000000000000000000000000000000000000000000000"
                    ]
                },
                "nodeType": 1
            }
        },
        "gasFlame": [
            {
                "children": [
                    {
                        "children": [
                            {
                                "children": [],
                                "depth": 0,
                                "name": "Initial Gas",
                                "value": 22052
                            },
                            {
                                "children": [
                                    {
                                        "children": [],
                                        "depth": 1,
                                        "name": "getInterfaceImplementer",
                                        "value": 1642
                                    },
                                    {
                                        "children": [],
                                        "depth": 1,
                                        "name": "getInterfaceImplementer",
                                        "value": 1642
                                    },
                                    {
                                        "children": [
                                            {
                                                "children": [
                                                    {
                                                        "children": [],
                                                        "depth": 3,
                                                        "name": "getInterfaceImplementer",
                                                        "value": 1642
                                                    }
                                                ],
                                                "depth": 2,
                                                "name": "burn",
                                                "value": 17357
                                            }
                                        ],
                                        "depth": 1,
                                        "name": "tokensReceived",
                                        "value": 52698
                                    }
                                ],
                                "depth": 0,
                                "name": "Executed Gas",
                                "value": 95655
                            }
                        ],
                        "depth": -1,
                        "name": "Actual Gas Used",
                        "value": 98507
                    },
                    {
                        "children": [],
                        "depth": -1,
                        "name": "Refunded Gas",
                        "value": 19200
                    }
                ],
                "depth": -2,
                "name": "Total Gas",
                "value": 117707
            }
        ],
        "isConfirmed": true,
        "mainTrace": [
            {
                "children": [
                    {
                        "children": [
                            {
                                "children": [],
                                "depth": 1,
                                "id": 1,
                                "order": 1
                            },
                            {
                                "children": [],
                                "depth": 1,
                                "id": 2,
                                "order": 2
                            },
                            {
                                "children": [],
                                "depth": 1,
                                "id": 3,
                                "order": 3
                            },
                            {
                                "children": [],
                                "depth": 1,
                                "id": 4,
                                "order": 4
                            },
                            {
                                "children": [
                                    {
                                        "children": [
                                            {
                                                "children": [],
                                                "depth": 3,
                                                "id": 7,
                                                "order": 7
                                            },
                                            {
                                                "children": [],
                                                "depth": 3,
                                                "id": 8,
                                                "order": 8
                                            },
                                            {
                                                "children": [],
                                                "depth": 3,
                                                "id": 9,
                                                "order": 9
                                            }
                                        ],
                                        "depth": 2,
                                        "id": 6,
                                        "order": 6
                                    },
                                    {
                                        "children": [],
                                        "depth": 2,
                                        "id": 10,
                                        "order": 10
                                    }
                                ],
                                "depth": 1,
                                "id": 5,
                                "order": 5
                            }
                        ],
                        "depth": 0,
                        "id": 0,
                        "order": 0
                    }
                ],
                "depth": -1,
                "id": -1,
                "order": -1
            }
        ],
        "mainTraceNodeCount": 11,
        "parentIdMap": {
            "0": -1,
            "1": 0,
            "10": 5,
            "2": 0,
            "3": 0,
            "4": 0,
            "5": 0,
            "6": 5,
            "7": 6,
            "8": 6,
            "9": 6
        },
        "tidyTrace": [
            {
                "children": [
                    {
                        "children": [
                            {
                                "children": [],
                                "depth": 1,
                                "id": 2,
                                "order": 2
                            },
                            {
                                "children": [],
                                "depth": 1,
                                "id": 3,
                                "order": 3
                            },
                            {
                                "children": [
                                    {
                                        "children": [
                                            {
                                                "children": [],
                                                "depth": 3,
                                                "id": 8,
                                                "order": 8
                                            },
                                            {
                                                "children": [],
                                                "depth": 3,
                                                "id": 9,
                                                "order": 9
                                            }
                                        ],
                                        "depth": 2,
                                        "id": 6,
                                        "order": 6
                                    },
                                    {
                                        "children": [],
                                        "depth": 2,
                                        "id": 10,
                                        "order": 10
                                    }
                                ],
                                "depth": 1,
                                "id": 5,
                                "order": 5
                            }
                        ],
                        "depth": 0,
                        "id": 0,
                        "order": 0
                    }
                ],
                "depth": -1,
                "id": -1,
                "order": -1
            }
        ],
        "tidyTraceNodeCount": 8
    },
    "state_change": {
        "stateChanges": [
            {
                "address": "0x155697df0d39e18f719fa58e25a53a65ccb4864e",
                "erc": "",
                "slots": [
                    {
                        "current": "0x0000000000000000000000000000000000000000005011003a4b9a6fb6f80000",
                        "key": "0x0000000000000000000000000000000000000000000000000000000000000001",
                        "prev": "0x00000000000000000000000000000000000000000050111cb02248ddff0c0000"
                    },
                    {
                        "current": "0x000000000000000000000000000000000000000000000038a76602edc93c0000",
                        "key": "0x43f842f9856c62379d79128d94be73823cfdb16a87089b7e21d3b3a7c9ed6433",
                        "prev": "0x0000000000000000000000000000000000000000000000551d3cb15c11500000"
                    }
                ],
                "storageVariables": []
            },
            {
                "address": "0x9876c59712130f0110120964ae0f42102a9d17d9",
                "erc": "",
                "slots": [
                    {
                        "current": "0x0000000000000000000000000000000000000000000000000000000000000f36",
                        "key": "0xc2575a0e9e593c00f959f8c92f12db2869c3395a3b0502d05e2516446f71f85c",
                        "prev": "0x0000000000000000000000000000000000000000000000000000000000000f37"
                    },
                    {
                        "current": "0x00000000000000000000000000000000000000000000000000000000000017da",
                        "key": "0xc2575a0e9e593c00f959f8c92f12db2869c3395a3b0502d05e2516446f71f85d",
                        "prev": "0x00000000000000000000000000000000000000000000000000000000000017d9"
                    },
                    {
                        "current": "0x0000000000000000000000000000000000000000000000000000000000000023",
                        "key": "0x91ad62b5dd2d3729f45c76e70adc5cc6134067a40a36426892919bb548ab6389",
                        "prev": "0x0000000000000000000000000000000000000000000000000000000000000022"
                    }
                ],
                "storageVariables": []
            }
        ]
    }
}