{
    "balance_change": {
        "balanceChanges": [
            {
                "account": "0x96ac607638435cae93329fd8ba703e920fc34bf3",
                "assets": [
                    {
                        "address": "0x03cb0021808442ad5efb61197966aef72a1def96",
                        "amount": "0.1",
                        "iconUrl": "",
                        "isERC1155": false,
                        "isERC721": false,
                        "sign": false,
                        "value": ""
                    }
                ]
            },
            {
                "account": "0x196301b5673714fa91640fe2df34b5c05be7ab19",
                "assets": [
                    {
                        "address": "0x03cb0021808442ad5efb61197966aef72a1def96",
                        "amount": "0.091",
                        "iconUrl": "",
                        "isERC1155": false,
                        "isERC721": false,
                        "sign": true,
                        "value": ""
                    }
                ]
            },
            {
                "account": "0x62a364f7cba3be8fc9dcfdde12cabec8244af381",
                "assets": [
                    {
                        "address": "0x03cb0021808442ad5efb61197966aef72a1def96",
                        "amount": "0.009",
                        "iconUrl": "",
                        "isERC1155": false,
                        "isERC721": false,
                        "sign": true,
                        "value": ""
                    }
                ]
            }
        ]
    },
    "profile": {
        "basic_info": {
            "baseFee": "",
            "blockNumber": 7481943,
            "callData": "0x31c26b11000000000000000000000000000000000000000000000000016345785d8a00000000000000000000000000000000000000000000000000000000000000000001",
            "debugEnable": true,
            "errorInfo": "",
            "eventCount": 2,
            "feeRecipient": "0xb2930b35844a230f00e51431acae96fe543a0347",
            "formatValue": "0",
            "gasLimit": 1000000,
            "gasPrice": "8.719891186",
            "gasUsed": 124338,
            "intTxnCount": 3,
            "internalRevert": false,
            "internalRevertMessage": "",
            "isContractCreation": false,
            "isFlashloan": false,
            "maxFee": "",
            "nonce": 74,
            "overwritedBlockNumber": -1,
            "priorityFee": "",
            "receiver": "0x196301b5673714fa91640fe2df34b5c05be7ab19",
            "revertMessage": "",
            "sender": "0x96ac607638435cae93329fd8ba703e920fc34bf3",
            "simulationEnable": true,
            "sourceTxnHash": "0x9a78e5a046ed792081b38f3478e4bbe2a4bdedc0ec752f3849ef8dfc64b7c518",
            "status": true,
            "timestamp": "2019-04-01T10:11:23Z",
            "transactionFee": "0.001084213830284868",
            "txnHash": "0x9a78e5a046ed792081b38f3478e4bbe2a4bdedc0ec752f3849ef8dfc64b7c518",
            "txnIndex": 37,
            "type": 0,
            "value": "0"
        },
        "fund_flow": [
            {
                "amount": "0.1",
                "from": "0x96ac607638435cae93329fd8ba703e920fc34bf3",
                "id": 1,
                "isERC1155": false,
                "isERC721": false,
                "isReverted": false,
                "order": 1,
                "to": "0x196301b5673714fa91640fe2df34b5c05be7ab19",
                "token": "0x03cb0021808442ad5efb61197966aef72a1def96"
            },
            {
                "amount": "0.009",
                "from": "0x196301b5673714fa91640fe2df34b5c05be7ab19",
                "id": 2,
                "isERC1155": false,
                "isERC721": false,
                "isReverted": false,
                "order": 2,
                "to": "0x62a364f7cba3be8fc9dcfdde12cabec8244af381",
                "token": "0x03cb0021808442ad5efb61197966aef72a1def96"
            }
        ],
        "token_infos": [
            {
                "address": "0x03cb0021808442ad5efb61197966aef72a1def96",
                "decimals": 18
            },
            {
                "address": "0xc02aaa39b223fe8d0a0e5c4f27ead9083c756cc2",
                "decimals": 18
            },
            {
                "address": "0xeeeeeeeeeeeeeeeeeeeeeeeeeeeeeeeeeeeeeeee",
                "decimals": 18
            }
        ]
    },
    "address_label": {
        "labels": [
            {
                "address": "0xeeeeeeeeeeeeeeeeeeeeeeeeeeeeeeeeeeeeeeee",
                "label": "Ether"
            },
            {
                "address": "0x03cb0021808442ad5efb61197966aef72a1def96",
                "label": "coToken (coToken)"
            },
            {
                "address": "0x0000000000000000000000000000000000000001",
                "label": "Precompiled"
            },
            {
                "address": "0x0000000000000000000000000000000000000002",
                "label": "Precompiled"
            },
            {
                "address": "0x0000000000000000000000000000000000000003",
                "label": "Precompiled"
            },
            {
                "address": "0x0000000000000000000000000000000000000004",
                "label": "Precompiled"
            }
        ]
    },
    "trace": {
        "accountLabels": null,
        "dataMap": {
            "-1": {
                "invocation": {
                    "address": "0x96ac607638435cae93329fd8ba703e920fc34bf3",
                    "callData": "",
                    "decodedMethod": null,
                    "errorInfo": "",
                    "fromAddress": "",
                    "gasUsed": 0,
                    "id": -1,
                    "methodDecoded": false,
                    "operation": "",
                    "output": "",
                    "revert": false,
                    "revertMessage": "",
                    "selector": "",
                    "status": false,
                    "value": ""
                },
                "nodeType": 0
            },
            "0": {
                "invocation": {
                    "address": "0x196301b5673714fa91640fe2df34b5c05be7ab19",
                    "callData": "0x000000000000000000000000000000000000000000000000016345785d8a00000000000000000000000000000000000000000000000000000000000000000001",
                    "decodedMethod": {
                        "callParams": [
                            {
                                "name": "qty",
                                "type": "uint256",
                                "value": "100,000,000,000,000,000"
                            },
                            {
                                "name": "boost_",
                                "type": "bool",
                                "value": true
                            }
                        ],
                        "constructorArguments": "",
                        "name": "buy",
                        "returnParams": [],
                        "signature": "buy(uint256,bool)"
                    },
                    "errorInfo": "",
                    "fromAddress": "0x96ac607638435cae93329fd8ba703e920fc34bf3",
                    "gasUsed": 124338,
                    "id": 0,
                    "methodDecoded": true,
                    "operation": "CALL",
                    "output": "",
                    "revert": false,
                    "revertMessage": "",
                    "selector": "0x31c26b11",
                    "status": true,
                    "value": "0"
                },
                "nodeType": 0
            },
            "1": {
                "invocation": {
                    "address": "0x03cb0021808442ad5efb61197966aef72a1def96",
                    "callData": "0x00000000000000000000000096ac607638435cae93329fd8ba703e920fc34bf3000000000000000000000000000000000000000000000000016345785d8a0000",
                    "decodedMethod": {
                        "callParams": [
                            {
                                "name": "_to",
                                "type": "address",
                                "value": "0x96ac607638435cae93329fd8ba703e920fc34bf3"
                            },
                            {
                                "name": "_value",
                                "type": "uint256",
                                "value": "100,000,000,000,000,000"
                            }
                        ],
                        "constructorArguments": "",
                        "name": "deduct",
                        "returnParams": [
                            {
                                "name": "success",
                                "type": "bool",
                                "value": true
                            }
                        ],
                        "signature": "deduct(address,uint256)"
                    },
                    "errorInfo": "",
                    "fromAddress": "0x196301b5673714fa91640fe2df34b5c05be7ab19",
                    "gasUsed": 14038,
                    "id": 1,
                    "methodDecoded": true,
                    "operation": "CALL",
                    "output": "0x0000000000000000000000000000000000000000000000000000000000000001",
                    "revert": false,
                    "revertMessage": "",
                    "selector": "0x47055321",
                    "status": true,
                    "value": "0"
                },
                "nodeType": 0
            },
            "2": {
                "event": {
                    "contract": "0x03cb0021808442ad5efb61197966aef72a1def96",
                    "decodedLog": {
                        "name": "Transfer",
                        "params": [
                            {
                                "name": "from",
                                "type": "address",
                                "value": "0x96ac607638435cae93329fd8ba703e920fc34bf3"
                            },
                            {
                                "name": "to",
                                "type": "address",
                                "value": "0x196301b5673714fa91640fe2df34b5c05be7ab19"
                            },
                            {
                                "decimalAvailable": true,
                                "name": "value",
                                "type": "uint256",
                                "value": "100,000,000,000,000,000"
                            }
                        ],
                        "signature": "Transfer(address,address,uint256)"
                    },
                    "id": 2,
                    "logData": "0x000000000000000000000000000000000000000000000000016345785d8a0000",
                    "logDecoded": true,
                    "operation": "EVENT",
                    "revert": false,
                    "status": true,
                    "topics": [
                        "0xddf252ad1be2c89b69c2b068fc378daa952ba7f163c4a11628f55a4df523b3ef",
                        "0x00000000000000000000000096ac607638435cae93329fd8ba703e920fc34bf3",
                        "0x000000000000000000000000196301b5673714fa91640fe2df34b5c05be7ab19"
                    ]
                },
                "nodeType": 1
            },
            "3": {
                "invocation": {
                    "address": "0x62a364f7cba3be8fc9dcfdde12cabec8244af381",
                    "callData": "0xcb166df3a9e7e4a3a7a7b42cf1cdf46e546e5d92ff5022116550fefcfd862853000000000000000000000000000000000000000000000000001550f7dca70000000000000000000000000000000000000000000000000000000aa87bee538000",
                    "decodedMethod": null,
                    "errorInfo": "",
                    "fromAddress": "0x196301b5673714fa91640fe2df34b5c05be7ab19",
                    "gasUsed": 33340,
                    "id": 3,
                    "methodDecoded": false,
                    "operation": "CALL",
                    "output": "",
                    "revert": false,
                    "revertMessage": "",
                    "selector": "0x7f2dc9b5",
                    "status": true,
                    "value": "0"
                },
                "nodeType": 0
            },
            "4": {
                "invocation": {
                    "address": "0x03cb0021808442ad5efb61197966aef72a1def96",
                    "callData": "0x000000000000000000000000196301b5673714fa91640fe2df34b5c05be7ab19000000000000000000000000000000000000000000000000001ff973cafa8000",
                    "decodedMethod": {
                        "callParams": [
                            {
                                "name": "_to",
                                "type": "address",
                                "value": "0x196301b5673714fa91640fe2df34b5c05be7ab19"
                            },
                            {
                                "name": "_value",
                                "type": "uint256",
                                "value": "9,000,000,000,000,000"
                            }
                        ],
                        "constructorArguments": "",
                        "name": "deduct",
                        "returnParams": [
                            {
                                "name": "success",
                                "type": "bool",
                                "value": true
                            }
                        ],
                        "signature": "deduct(address,uint256)"
                    },
                    "errorInfo": "",
                    "fromAddress": "0x62a364f7cba3be8fc9dcfdde12cabec8244af381",
                    "gasUsed": 14038,
                    "id": 4,
                    "methodDecoded": true,
                    "operation": "CALL",
                    "output": "0x0000000000000000000000000000000000000000000000000000000000000001",
                    "revert": false,
                    "revertMessage": "",
                    "selector": "0x47055321",
                    "status": true,
                    "value": "0"
                },
                "nodeType": 0
            },
            "5": {
                "event": {
                    "contract": "0x03cb0021808442ad5efb61197966aef72a1def96",
                    "decodedLog": {
                        "name": "Transfer",
                        "params": [
                            {
                                "name": "from",
                                "type": "address",
                                "value": "0x196301b5673714fa91640fe2df34b5c05be7ab19"
                            },
                            {
                                "name": "to",
                                "type": "address",
                                "value": "0x62a364f7cba3be8fc9dcfdde12cabec8244af381"
                            },
                            {
                                "decimalAvailable": true,
                                "name": "value",
                                "type": "uint256",
                                "value": "9,000,000,000,000,000"
                            }
                        ],
                        "signature": "Transfer(address,address,uint256)"
                    },
                    "id": 5,
                    "logData": "0x000000000000000000000000000000000000000000000000001ff973cafa8000",
                    "logDecoded": true,
                    "operation": "EVENT",
                    "revert": false,
                    "status": true,
                    "topics": [
                        "0xddf252ad1be2c89b69c2b068fc378daa952ba7f163c4a11628f55a4df523b3ef",
                        "0x000000000000000000000000196301b5673714fa91640fe2df34b5c05be7ab19",
                        "0x00000000000000000000000062a364f7cba3be8fc9dcfdde12cabec8244af381"
                    ]
                },
                "nodeType": 1
            }
        },
        "gasFlame": [
            {
                "children": [
                    {
                        "children": [
                            {
                                "children": [],
                                "depth": 0,
                                "name": "Initial Gas",
                                "value": 21976
                            },
                            {
                                "children": [
                                    {
                                        "children": [],
                                        "depth": 1,
                                        "name": "deduct",
                                        "value": 14038
                                    },
                                    {
                                        "children": [
                                            {
                                                "children": [],
                                                "depth": 2,
                                                "name": "deduct",
                                                "value": 14038
                                            }
                                        ],
                                        "depth": 1,
                                        "name": "0x7f2dc9b5",
                                        "value": 33340
                                    }
                                ],
                                "depth": 0,
                                "name": "Executed Gas",
                                "value": 102362
                            }
                        ],
                        "depth": -1,
                        "name": "Actual Gas Used",
                        "value": 124338
                    },
                    {
                        "children": [],
                        "depth": -1,
                        "name": "Refunded Gas",
                        "value": 0
                    }
                ],
                "depth": -2,
                "name": "Total Gas",
                "value": 124338
            }
        ],
        "isConfirmed": true,
        "mainTrace": [
            {
                "children": [
                    {
                        "children": [
                            {
                                "children": [
                                    {
                                        "children": [],
                                        "depth": 2,
                                        "id": 2,
                                        "order": 2
                                    }
                                ],
                                "depth": 1,
                                "id": 1,
                                "order": 1
                            },
                            {
                                "children": [
                                    {
                                        "children": [
                                            {
                                                "children": [],
                                                "depth": 3,
                                                "id": 5,
                                                "order": 5
                                            }
                                        ],
                                        "depth": 2,
                                        "id": 4,
                                        "order": 4
                                    }
                                ],
                                "depth": 1,
                                "id": 3,
                                "order": 3
                            }
                        ],
                        "depth": 0,
                        "id": 0,
                        "order": 0
                    }
                ],
                "depth": -1,
                "id": -1,
                "order": -1
            }
        ],
        "mainTraceNodeCount": 6,
        "parentIdMap": {
            "0": -1,
            "1": 0,
            "2": 1,
            "3": 0,
            "4": 3,
            "5": 4
        },
        "tidyTrace": [
            {
                "children": [
                    {
                        "children": [
                            {
                                "children": [
                                    {
                                        "children": [],
                                        "depth": 2,
                                        "id": 2,
                                        "order": 2
                                    }
                                ],
                                "depth": 1,
                                "id": 1,
                                "order": 1
                            },
                            {
                                "children": [
                                    {
                                        "children": [
                                            {
                                                "children": [],
                                                "depth": 3,
                                                "id": 5,
                                                "order": 5
                                            }
                                        ],
                                        "depth": 2,
                                        "id": 4,
                                        "order": 4
                                    }
                                ],
                                "depth": 1,
                                "id": 3,
                                "order": 3
                            }
                        ],
                        "depth": 0,
                        "id": 0,
                        "order": 0
                    }
                ],
                "depth": -1,
                "id": -1,
                "order": -1
            }
        ],
        "tidyTraceNodeCount": 6
    },
    "state_change": {
        "stateChanges": [
            {
                "address": "0x03cb0021808442ad5efb61197966aef72a1def96",
                "erc": "",
                "slots": [
                    {
                        "current": "0x000000000000000000000000000000000000000000000000003cd95a0b7fabe5",
                        "key": "0x0748b2735a4f809d01184fcba2295d899744eaf563926d770ef7932a790ccaa9",
                        "prev": "0x00000000000000000000000000000000000000000000000001a01ed26909abe5"
                    },
                    {
                        "current": "0x000000000000000000000000000000000000000000000029b84ce31fd48dbee1",
                        "key": "0xfb4987c02ef65eda29b35ddf370abd5256b92ce60de22431ba7d8cc2f2201ad1",
                        "prev": "0x000000000000000000000000000000000000000000000029b709971b41fe3ee1"
                    },
                    {
                        "current": "0x00000000000000000000000000000000000000000000002ee100c2964f088000",
                        "key": "0x2ae1781e2b15e18335d21665ed35f55f4489bb9a28dc7e5c8dd1f7abd6dbaf1c",
                        "prev": "0x00000000000000000000000000000000000000000000002ee0e0c922840e0000"
                    }
                ],
                "storageVariables": []
            },
            {
                "address": "0x196301b5673714fa91640fe2df34b5c05be7ab19",
                "erc": "",
                "slots": [
                    {
                        "current": "0x0000000000000000000000000000000000000000000000000000000000722a57",
                        "key": "0x0000000000000000000000000000000000000000000000000000000000000005",
                        "prev": "0x0000000000000000000000000000000000000000000000000000000000722a46"
                    },
                    {
                        "current": "0x000000000000000000000000000000000000000000000000273936e8ffaaab83",
                        "key": "0xa8021223935d38ff74c2829efef1f51d86e30782bff90517e19a58056d616010",
                        "prev": "0x0000000000000000000000000000000000000000000000002735a96a5ae42b83"
                    },
                    {
                        "current": "0x000b53fda6be23f8ad0c000b54017b85e6c10000000c83fe1cc9a7fc0000000c",
                        "key": "0x0000000000000000000000000000000000000000000000000000000000000008",
                        "prev": "0x000b53fda6be23f8ad0c000b54017b85e6c10000000c829ad7514a720000000c"
                    },
                    {
                        "current": "0x00000000000000000000000000084f737b9023c4000000209ed569264f6f4000",
                        "key": "0x0000000000000000000000000000000000000000000000000000000000000007",
                        "prev": "0x00000000000000000000000000084e87951d66ae000000209eaac73696214000"
                    },
                    {
                        "current": "0x0000000000000000000000000000000000000000000005963aed4200e8124000",
                        "key": "0x000000000000000000000000000000000000000000000000000000000000000f",
                        "prev": "0x0000000000000000000000000000000000000000000005963989fc888a884000"
                    },
                    {
                        "current": "0x00000000000000005ca1e3cb96ac607638435cae93329fd8ba703e920fc34bf3",
                        "key": "0x0000000000000000000000000000000000000000000000000000000000000004",
                        "prev": "0x00000000000000005ca1e2c23c0a9ec538ef463bb3f4bc0091453eabd7c90778"
                    },
                    {
                        "current": "0x0000000000000000000000000000000000000000000000004330d8d2f5b08000",
                        "key": "0xb7eb1c05e2cebbfb57fe9d4b55132d2ff2a199af7aa8be457f128717c5e53873",
                        "prev": "0x0000000000000000000000000000000000000000000000004307a2af7e4b8000"
                    },
                    {
                        "current": "0x000000000000000000000000000000000000000000000000061b31ab352c0000",
                        "key": "0xef519e01998c13e39886636af82e23ca0d50fbb5c85dfefa67b50da69a5fb783",
                        "prev": "0x00000000000000000000000000000000000000000000000004b7ec32d7a20000"
                    },
                    {
                        "current": "0x000000110f7a85984f2f0000000000005ca20bdc000000005ca156c800000001",
                        "key": "0x0000000000000000000000000000000000000000000000000000000000000006",
                        "prev": "0x000000110f7a85984f2f0000000000005ca20b78000000005ca156c800000001"
                    }
                ],
                "storageVariables": []
            },
            {
                "address": "0x62a364f7cba3be8fc9dcfdde12cabec8244af381",
                "erc": "",
                "slots": [
                    {
                        "current": "0x00000000000000000000000000000000000000000000000003d0ecda64564000",
                        "key": "0x7be0a9e040ba01ea8b8f0b074f1b3b5d8259cb02dda03d30417d5f2f089503f7",
                        "prev": "0x00000000000000000000000000000000000000000000000003c6445e7602c000"
                    },
                    {
                        "current": "0x00000000000000000000000000000000000000000000000001d2d39a937c8000",
                        "key": "0x717081991cc9199b1f2378d1325507385f15b1e1616f328f504033f66a86f999",
                        "prev": "0x00000000000000000000000000000000000000000000000001bd82a2b6d58000"
                    },
                    {
                        "current": "0x000000000000000000000000000000000000000000000000008207818ec78000",
                        "key": "0x0efcf292b9c21b510a5362ba9344097656bba64349dc8ce98cb666cfcb01ce2f",
                        "prev": "0x000000000000000000000000000000000000000000000000006cb689b2208000"
                    }
                ],
                "storageVariables": []
            }
        ]
    }
}