{
    "balance_change": {
        "balanceChanges": [
            {
                "account": "0x98f9165e486a502a935bc99cfde6f39d7453dbd6",
                "assets": [
                    {
                        "address": "0x923c90b98ee834d118c85ddf44906ee1769df648",
                        "amount": "25,000,000",
                        "iconUrl": "",
                        "isERC1155": false,
                        "isERC721": false,
                        "sign": true,
                        "value": ""
                    }
                ]
            },
            {
                "account": "0x923c90b98ee834d118c85ddf44906ee1769df648",
                "assets": [
                    {
                        "address": "0x923c90b98ee834d118c85ddf44906ee1769df648",
                        "amount": "37,500,000",
                        "iconUrl": "",
                        "isERC1155": false,
                        "isERC721": false,
                        "sign": false,
                        "value": ""
                    }
                ]
            },
            {
                "account": "0xf9c43a5bc197bfd4a5b1b126a12c533f8b29093e",
                "assets": [
                    {
                        "address": "0x923c90b98ee834d118c85ddf44906ee1769df648",
                        "amount": "12,500,000",
                        "iconUrl": "",
                        "isERC1155": false,
                        "isERC721": false,
                        "sign": true,
                        "value": ""
                    }
                ]
            }
        ]
    },
    "profile": {
        "basic_info": {
            "baseFee": "",
            "blockNumber": 9179894,
            "callData": "0x069f5bdd000000000000000000000000f9c43a5bc197bfd4a5b1b126a12c533f8b29093e",
            "debugEnable": true,
            "errorInfo": "",
            "eventCount": 2,
            "feeRecipient": "0x5a0b54d5dc17e0aadc383d2db43b0a0d3e029c4c",
            "formatValue": "0",
            "gasLimit": 65396,
            "gasPrice": "1",
            "gasUsed": 60396,
            "intTxnCount": 0,
            "internalRevert": false,
            "internalRevertMessage": "",
            "isContractCreation": false,
            "isFlashloan": false,
            "maxFee": "",
            "nonce": 35,
            "overwritedBlockNumber": -1,
            "priorityFee": "",
            "receiver": "0x923c90b98ee834d118c85ddf44906ee1769df648",
            "revertMessage": "",
            "sender": "0x98f9165e486a502a935bc99cfde6f39d7453dbd6",
            "simulationEnable": true,
            "sourceTxnHash": "0x9ad02b85aebf2cf5d5c32746fdb69b4d6cef78077636e1c305b346692b2f4daf",
            "status": true,
            "timestamp": "2019-12-29T07:54:45Z",
            "transactionFee": "0.000060396",
            "txnHash": "0x9ad02b85aebf2cf5d5c32746fdb69b4d6cef78077636e1c305b346692b2f4daf",
            "txnIndex": 45,
            "type": 0,
            "value": "0"
        },
        "fund_flow": [
            {
                "amount": "12,500,000",
                "from": "0x923c90b98ee834d118c85ddf44906ee1769df648",
                "id": 1,
                "isERC1155": false,
                "isERC721": false,
                "isReverted": false,
                "order": 1,
                "to": "0xf9c43a5bc197bfd4a5b1b126a12c533f8b29093e",
                "token": "0x923c90b98ee834d118c85ddf44906ee1769df648"
            },
            {
                "amount": "25,000,000",
                "from": "0x923c90b98ee834d118c85ddf44906ee1769df648",
                "id": 2,
                "isERC1155": false,
                "isERC721": false,
                "isReverted": false,
                "order": 2,
                "to": "0x98f9165e486a502a935bc99cfde6f39d7453dbd6",
                "token": "0x923c90b98ee834d118c85ddf44906ee1769df648"
            }
        ],
        "token_infos": [
            {
                "address": "0x923c90b98ee834d118c85ddf44906ee1769df648",
                "decimals": 6
            },
            {
                "address": "0xc02aaa39b223fe8d0a0e5c4f27ead9083c756cc2",
                "decimals": 18
            },
            {
                "address": "0xeeeeeeeeeeeeeeeeeeeeeeeeeeeeeeeeeeeeeeee",
                "decimals": 18
            }
        ]
    },
    "address_label": {
        "labels": [
            {
                "address": "0x923c90b98ee834d118c85ddf44906ee1769df648",
                "label": "Qitcoin (QTC)"
            },
            {
                "address": "0x0000000000000000000000000000000000000001",
                "label": "Precompiled"
            },
            {
                "address": "0x0000000000000000000000000000000000000002",
                "label": "Precompiled"
            },
            {
                "address": "0x0000000000000000000000000000000000000003",
                "label": "Precompiled"
            },
            {
                "address": "0x0000000000000000000000000000000000000004",
                "label": "Precompiled"
            },
            {
                "address": "0xeeeeeeeeeeeeeeeeeeeeeeeeeeeeeeeeeeeeeeee",
                "label": "Ether"
            }
        ]
    },
    "trace": {
        "accountLabels": null,
        "dataMap": {
            "-1": {
                "invocation": {
                    "address": "0x98f9165e486a502a935bc99cfde6f39d7453dbd6",
                    "callData": "",
                    "decodedMethod": null,
                    "errorInfo": "",
                    "fromAddress": "",
                    "gasUsed": 0,
                    "id": -1,
                    "methodDecoded": false,
                    "operation": "",
                    "output": "",
                    "revert": false,
                    "revertMessage": "",
                    "selector": "",
                    "status": false,
                    "value": ""
                },
                "nodeType": 0
            },
            "0": {
                "invocation": {
                    "address": "0x923c90b98ee834d118c85ddf44906ee1769df648",
                    "callData": "0x000000000000000000000000f9c43a5bc197bfd4a5b1b126a12c533f8b29093e",
                    "decodedMethod": {
                        "callParams": [
                            {
                                "name": "_refer",
                                "type": "address",
                                "value": "0xf9c43a5bc197bfd4a5b1b126a12c533f8b29093e"
                            }
                        ],
                        "constructorArguments": "",
                        "name": "getAirdrop",
                        "returnParams": [
                            {
                                "name": "success",
                                "type": "bool",
                                "value": true
                            }
                        ],
                        "signature": "getAirdrop(address)"
                    },
                    "errorInfo": "",
                    "fromAddress": "0x98f9165e486a502a935bc99cfde6f39d7453dbd6",
                    "gasUsed": 60396,
                    "id": 0,
                    "methodDecoded": true,
                    "operation": "CALL",
                    "output": "0x0000000000000000000000000000000000000000000000000000000000000001",
                    "revert": false,
                    "revertMessage": "",
                    "selector": "0x069f5bdd",
                    "status": true,
                    "value": "0"
                },
                "nodeType": 0
            },
            "1": {
                "event": {
                    "contract": "0x923c90b98ee834d118c85ddf44906ee1769df648",
                    "decodedLog": {
                        "name": "Transfer",
                        "params": [
                            {
                                "name": "from",
                                "type": "address",
                                "value": "0x923c90b98ee834d118c85ddf44906ee1769df648"
                            },
                            {
                                "name": "to",
                                "type": "address",
                                "value": "0xf9c43a5bc197bfd4a5b1b126a12c533f8b29093e"
                            },
                            {
                                "decimalAvailable": true,
                                "name": "tokens",
                                "type": "uint256",
                                "value": "12,500,000,000,000"
                            }
                        ],
                        "signature": "Transfer(address,address,uint256)"
                    },
                    "id": 1,
                    "logData": "0x00000000000000000000000000000000000000000000000000000b5e620f4800",
                    "logDecoded": true,
                    "operation": "EVENT",
                    "revert": false,
                    "status": true,
                    "topics": [
                        "0xddf252ad1be2c89b69c2b068fc378daa952ba7f163c4a11628f55a4df523b3ef",
                        "0x000000000000000000000000923c90b98ee834d118c85ddf44906ee1769df648",
                        "0x000000000000000000000000f9c43a5bc197bfd4a5b1b126a12c533f8b29093e"
                    ]
                },
                "nodeType": 1
            },
            "2": {
                "event": {
                    "contract": "0x923c90b98ee834d118c85ddf44906ee1769df648",
                    "decodedLog": {
                        "name": "Transfer",
                        "params": [
                            {
                                "name": "from",
                                "type": "address",
                                "value": "0x923c90b98ee834d118c85ddf44906ee1769df648"
                            },
                            {
                                "name": "to",
                                "type": "address",
                                "value": "0x98f9165e486a502a935bc99cfde6f39d7453dbd6"
                            },
                            {
                                "decimalAvailable": true,
                                "name": "tokens",
                                "type": "uint256",
                                "value": "25,000,000,000,000"
                            }
                        ],
                        "signature": "Transfer(address,address,uint256)"
                    },
                    "id": 2,
                    "logData": "0x000000000000000000000000000000000000000000000000000016bcc41e9000",
                    "logDecoded": true,
                    "operation": "EVENT",
                    "revert": false,
                    "status": true,
                    "topics": [
                        "0xddf252ad1be2c89b69c2b068fc378daa952ba7f163c4a11628f55a4df523b3ef",
                        "0x000000000000000000000000923c90b98ee834d118c85ddf44906ee1769df648",
                        "0x00000000000000000000000098f9165e486a502a935bc99cfde6f39d7453dbd6"
                    ]
                },
                "nodeType": 1
            }
        },
        "gasFlame": [
            {
                "children": [
                    {
                        "children": [
                            {
                                "children": [],
                                "depth": 0,
                                "name": "Initial Gas",
                                "value": 21432
                            },
                            {
                                "children": [],
                                "depth": 0,
                                "name": "Executed Gas",
                                "value": 38964
                            }
                        ],
                        "depth": -1,
                        "name": "Actual Gas Used",
                        "value": 60396
                    },
                    {
                        "children": [],
                        "depth": -1,
                        "name": "Refunded Gas",
                        "value": 0
                    }
                ],
                "depth": -2,
                "name": "Total Gas",
                "value": 60396
            }
        ],
        "isConfirmed": true,
        "mainTrace": [
            {
                "children": [
                    {
                        "children": [
                            {
                                "children": [],
                                "depth": 1,
                                "id": 1,
                                "order": 1
                            },
                            {
                                "children": [],
                                "depth": 1,
                                "id": 2,
                                "order": 2
                            }
                        ],
                        "depth": 0,
                        "id": 0,
                        "order": 0
                    }
                ],
                "depth": -1,
                "id": -1,
                "order": -1
            }
        ],
        "mainTraceNodeCount": 3,
        "parentIdMap": {
            "0": -1,
            "1": 0,
            "2": 0
        },
        "tidyTrace": [
            {
                "children": [
                    {
                        "children": [
                            {
                                "children": [],
                                "depth": 1,
                                "id": 1,
                                "order": 1
                            },
                            {
                                "children": [],
                                "depth": 1,
                                "id": 2,
                                "order": 2
                            }
                        ],
                        "depth": 0,
                        "id": 0,
                        "order": 0
                    }
                ],
                "depth": -1,
                "id": -1,
                "order": -1
            }
        ],
        "tidyTraceNodeCount": 3
    },
    "state_change": {
        "stateChanges": [
            {
                "address": "0x923c90b98ee834d118c85ddf44906ee1769df648",
                "erc": "ERC-20",
                "slots": [
                    {
                        "current": "0x00000000000000000000000000000000000000000000000000000000000058dc",
                        "key": "0x000000000000000000000000000000000000000000000000000000000000000b",
                        "prev": "0x00000000000000000000000000000000000000000000000000000000000058db"
                    },
                    {
                        "current": "0x000000000000000000000000000000000000000000000005365a38f476831cb3",
                        "key": "0xd47b7a6c191130aee8766331d37dfea5161e485881d7e0cb3469e5ff7cf7fdee",
                        "prev": "0x000000000000000000000000000000000000000000000005365a5b0f9cb0f4b3"
                    },
                    {
                        "current": "0x0000000000000000000000000000000000000000000000000015265d466363de",
                        "key": "0xa3376cfb88374044697f3c50cf12a0842bd64693deeb4e14d73866ad52b2a5ca",
                        "prev": "0x00000000000000000000000000000000000000000000000000151afee4541bde"
                    },
                    {
                        "current": "0x0000000000000000000000000000000000000000000000000000f96c0a4780f8",
                        "key": "0xb55e9d427de0fc8c1793721bedf87bd88b3755bb86f0de9143fb185468e9d0b8",
                        "prev": "0x0000000000000000000000000000000000000000000000000000e2af4628f0f8"
                    }
                ],
                "storageVariables": [
                    {
                        "name": "aTot",
                        "type": "uint256",
                        "value": {
                            "current": "22748",
                            "prev": "22747",
                            "typeTag": 1
                        }
                    },
                    {
                        "name": "balances",
                        "type": "mapping(address => uint256)",
                        "value": {
                            "pairs": [
                                {
                                    "key": "0x923c90b98ee834d118c85ddf44906ee1769df648",
                                    "value": {
                                        "current": "96150225817111305395",
                                        "prev": "96150263317111305395",
                                        "typeTag": 1
                                    }
                                },
                                {
                                    "key": "0x98f9165e486a502a935bc99cfde6f39d7453dbd6",
                                    "value": {
                                        "current": "274242424242424",
                                        "prev": "249242424242424",
                                        "typeTag": 1
                                    }
                                },
                                {
                                    "key": "0xf9c43a5bc197bfd4a5b1b126a12c533f8b29093e",
                                    "value": {
                                        "current": "5953156565656542",
                                        "prev": "5940656565656542",
                                        "typeTag": 1
                                    }
                                }
                            ],
                            "typeTag": 4
                        }
                    }
                ]
            }
        ]
    }
}