{
    "balance_change": {
        "balanceChanges": [
            {
                "account": "0xefc7ae123554285cfeb04801f17e75563bc95520",
                "assets": [
                    {
                        "address": "0xf6e31bf1862ebe8583dff6b9f0a9c772e264cfae",
                        "amount": "30",
                        "iconUrl": "",
                        "isERC1155": false,
                        "isERC721": false,
                        "sign": false,
                        "value": ""
                    }
                ]
            },
            {
                "account": "0xe6010ba26116bac392015087205f99f62b8055af",
                "assets": [
                    {
                        "address": "0xf6e31bf1862ebe8583dff6b9f0a9c772e264cfae",
                        "amount": "30",
                        "iconUrl": "",
                        "isERC1155": false,
                        "isERC721": false,
                        "sign": true,
                        "value": ""
                    }
                ]
            }
        ]
    },
    "profile": {
        "basic_info": {
            "baseFee": "",
            "blockNumber": 10760868,
            "callData": "0xa9059cbb000000000000000000000000e6010ba26116bac392015087205f99f62b8055af0000000000000000000000000000000000000000000000000429d069189e0000",
            "debugEnable": true,
            "errorInfo": "",
            "eventCount": 1,
            "feeRecipient": "0x4c549990a7ef3fea8784406c1eecc98bf4211fa5",
            "formatValue": "0",
            "gasLimit": 60000,
            "gasPrice": "300.000001459",
            "gasUsed": 56266,
            "intTxnCount": 0,
            "internalRevert": false,
            "internalRevertMessage": "",
            "isContractCreation": false,
            "isFlashloan": false,
            "maxFee": "",
            "nonce": 131,
            "overwritedBlockNumber": -1,
            "priorityFee": "",
            "receiver": "0xf6e31bf1862ebe8583dff6b9f0a9c772e264cfae",
            "revertMessage": "",
            "sender": "0xefc7ae123554285cfeb04801f17e75563bc95520",
            "simulationEnable": true,
            "sourceTxnHash": "0x9ad1521dfa3b318f4e6dfc118420d19d7380f3a0365efec65d01b60b7593042b",
            "status": true,
            "timestamp": "2020-08-30T07:28:07Z",
            "transactionFee": "0.016879800082092094",
            "txnHash": "0x9ad1521dfa3b318f4e6dfc118420d19d7380f3a0365efec65d01b60b7593042b",
            "txnIndex": 281,
            "type": 0,
            "value": "0"
        },
        "fund_flow": [
            {
                "amount": "30",
                "from": "0xefc7ae123554285cfeb04801f17e75563bc95520",
                "id": 1,
                "isERC1155": false,
                "isERC721": false,
                "isReverted": false,
                "order": 1,
                "to": "0xe6010ba26116bac392015087205f99f62b8055af",
                "token": "0xf6e31bf1862ebe8583dff6b9f0a9c772e264cfae"
            }
        ],
        "token_infos": [
            {
                "address": "0xc02aaa39b223fe8d0a0e5c4f27ead9083c756cc2",
                "decimals": 18
            },
            {
                "address": "0xf6e31bf1862ebe8583dff6b9f0a9c772e264cfae",
                "decimals": 16
            },
            {
                "address": "0xeeeeeeeeeeeeeeeeeeeeeeeeeeeeeeeeeeeeeeee",
                "decimals": 18
            }
        ]
    },
    "address_label": {
        "labels": [
            {
                "address": "0x0000000000000000000000000000000000000004",
                "label": "Precompiled"
            },
            {
                "address": "0xeeeeeeeeeeeeeeeeeeeeeeeeeeeeeeeeeeeeeeee",
                "label": "Ether"
            },
            {
                "address": "0xf6e31bf1862ebe8583dff6b9f0a9c772e264cfae",
                "label": "PRT"
            },
            {
                "address": "0x0000000000000000000000000000000000000001",
                "label": "Precompiled"
            },
            {
                "address": "0x0000000000000000000000000000000000000002",
                "label": "Precompiled"
            },
            {
                "address": "0x0000000000000000000000000000000000000003",
                "label": "Precompiled"
            }
        ]
    },
    "trace": {
        "accountLabels": null,
        "dataMap": {
            "-1": {
                "invocation": {
                    "address": "0xefc7ae123554285cfeb04801f17e75563bc95520",
                    "callData": "",
                    "decodedMethod": null,
                    "errorInfo": "",
                    "fromAddress": "",
                    "gasUsed": 0,
                    "id": -1,
                    "methodDecoded": false,
                    "operation": "",
                    "output": "",
                    "revert": false,
                    "revertMessage": "",
                    "selector": "",
                    "status": false,
                    "value": ""
                },
                "nodeType": 0
            },
            "0": {
                "invocation": {
                    "address": "0xf6e31bf1862ebe8583dff6b9f0a9c772e264cfae",
                    "callData": "0x000000000000000000000000e6010ba26116bac392015087205f99f62b8055af0000000000000000000000000000000000000000000000000429d069189e0000",
                    "decodedMethod": {
                        "callParams": [
                            {
                                "name": "_to",
                                "type": "address",
                                "value": "0xe6010ba26116bac392015087205f99f62b8055af"
                            },
                            {
                                "decimalAvailable": true,
                                "name": "_value",
                                "type": "uint256",
                                "value": "300,000,000,000,000,000"
                            }
                        ],
                        "constructorArguments": "",
                        "name": "transfer",
                        "returnParams": [],
                        "signature": "transfer(address,uint256)"
                    },
                    "errorInfo": "",
                    "fromAddress": "0xefc7ae123554285cfeb04801f17e75563bc95520",
                    "gasUsed": 56266,
                    "id": 0,
                    "methodDecoded": true,
                    "operation": "CALL",
                    "output": "",
                    "revert": false,
                    "revertMessage": "",
                    "selector": "0xa9059cbb",
                    "status": true,
                    "value": "0"
                },
                "nodeType": 0
            },
            "1": {
                "event": {
                    "contract": "0xf6e31bf1862ebe8583dff6b9f0a9c772e264cfae",
                    "decodedLog": {
                        "name": "Transfer",
                        "params": [
                            {
                                "name": "from",
                                "type": "address",
                                "value": "0xefc7ae123554285cfeb04801f17e75563bc95520"
                            },
                            {
                                "name": "to",
                                "type": "address",
                                "value": "0xe6010ba26116bac392015087205f99f62b8055af"
                            },
                            {
                                "decimalAvailable": true,
                                "name": "value",
                                "type": "uint256",
                                "value": "300,000,000,000,000,000"
                            }
                        ],
                        "signature": "Transfer(address,address,uint256)"
                    },
                    "id": 1,
                    "logData": "0x0000000000000000000000000000000000000000000000000429d069189e0000",
                    "logDecoded": true,
                    "operation": "EVENT",
                    "revert": false,
                    "status": true,
                    "topics": [
                        "0xddf252ad1be2c89b69c2b068fc378daa952ba7f163c4a11628f55a4df523b3ef",
                        "0x000000000000000000000000efc7ae123554285cfeb04801f17e75563bc95520",
                        "0x000000000000000000000000e6010ba26116bac392015087205f99f62b8055af"
                    ]
                },
                "nodeType": 1
            }
        },
        "gasFlame": [
            {
                "children": [
                    {
                        "children": [
                            {
                                "children": [],
                                "depth": 0,
                                "name": "Initial Gas",
                                "value": 21632
                            },
                            {
                                "children": [],
                                "depth": 0,
                                "name": "Executed Gas",
                                "value": 34634
                            }
                        ],
                        "depth": -1,
                        "name": "Actual Gas Used",
                        "value": 56266
                    },
                    {
                        "children": [],
                        "depth": -1,
                        "name": "Refunded Gas",
                        "value": 0
                    }
                ],
                "depth": -2,
                "name": "Total Gas",
                "value": 56266
            }
        ],
        "isConfirmed": true,
        "mainTrace": [
            {
                "children": [
                    {
                        "children": [
                            {
                                "children": [],
                                "depth": 1,
                                "id": 1,
                                "order": 1
                            }
                        ],
                        "depth": 0,
                        "id": 0,
                        "order": 0
                    }
                ],
                "depth": -1,
                "id": -1,
                "order": -1
            }
        ],
        "mainTraceNodeCount": 2,
        "parentIdMap": {
            "0": -1,
            "1": 0
        },
        "tidyTrace": [
            {
                "children": [
                    {
                        "children": [
                            {
                                "children": [],
                                "depth": 1,
                                "id": 1,
                                "order": 1
                            }
                        ],
                        "depth": 0,
                        "id": 0,
                        "order": 0
                    }
                ],
                "depth": -1,
                "id": -1,
                "order": -1
            }
        ],
        "tidyTraceNodeCount": 2
    },
    "state_change": {
        "stateChanges": [
            {
                "address": "0xf6e31bf1862ebe8583dff6b9f0a9c772e264cfae",
                "erc": "ERC-20",
                "slots": [
                    {
                        "current": "0x0000000000000000000000000000000000000000000000000429d069189e0000",
                        "key": "0x538a66b31027206a1bcb0a793909fce14a2599e9b84c211aab45730c657678b3",
                        "prev": "0x0000000000000000000000000000000000000000000000000000000000000000"
                    },
                    {
                        "current": "0x000000000000000000000000000000000000000000083e5822cd0573bc960000",
                        "key": "0x6ec9c5c27e3af54b3a601a14ccdc362bd3f51db89269c3547d0863877dc7c18a",
                        "prev": "0x000000000000000000000000000000000000000000083e5826f6d5dcd5340000"
                    }
                ],
                "storageVariables": [
                    {
                        "name": "balances",
                        "type": "mapping(address => uint256)",
                        "value": {
                            "pairs": [
                                {
                                    "key": "0xe6010ba26116bac392015087205f99f62b8055af",
                                    "value": {
                                        "current": "300000000000000000",
                                        "prev": "0",
                                        "typeTag": 1
                                    }
                                },
                                {
                                    "key": "0xefc7ae123554285cfeb04801f17e75563bc95520",
                                    "value": {
                                        "current": "9965819100000000000000000",
                                        "prev": "9965819400000000000000000",
                                        "typeTag": 1
                                    }
                                }
                            ],
                            "typeTag": 4
                        }
                    }
                ]
            }
        ]
    }
}