{
    "balance_change": {
        "balanceChanges": [
            {
                "account": "0x6c6b111520a7b6b33c92945401372c958e67ac7d",
                "assets": [
                    {
                        "address": "0x6b3595068778dd592e39a122f4f5a5cf09c90fe2",
                        "amount": "15,000",
                        "iconUrl": "https://assets.blocksec.com/icon/bb0cf8c867431b5b96b5fc72143d2d0ff0fb06e17664ccb128080b416f067159.png",
                        "isERC1155": false,
                        "isERC721": false,
                        "sign": false,
                        "value": ""
                    }
                ]
            },
            {
                "account": "0x6292c1b03b623fc03f2eb0d223706506e2257fc0",
                "assets": [
                    {
                        "address": "0x6b3595068778dd592e39a122f4f5a5cf09c90fe2",
                        "amount": "15,000",
                        "iconUrl": "https://assets.blocksec.com/icon/bb0cf8c867431b5b96b5fc72143d2d0ff0fb06e17664ccb128080b416f067159.png",
                        "isERC1155": false,
                        "isERC721": false,
                        "sign": true,
                        "value": ""
                    }
                ]
            }
        ]
    },
    "profile": {
        "basic_info": {
            "baseFee": "",
            "blockNumber": 11041108,
            "callData": "0xa9059cbb0000000000000000000000006292c1b03b623fc03f2eb0d223706506e2257fc000000000000000000000000000000000000000000000032d26d12e980b600000",
            "debugEnable": true,
            "errorInfo": "",
            "eventCount": 1,
            "feeRecipient": "0xea674fdde714fd979de3edf0f56aa9716b898ec8",
            "formatValue": "0",
            "gasLimit": 60000,
            "gasPrice": "82.000001561",
            "gasUsed": 36181,
            "intTxnCount": 0,
            "internalRevert": false,
            "internalRevertMessage": "",
            "isContractCreation": false,
            "isFlashloan": false,
            "maxFee": "",
            "nonce": 2559,
            "overwritedBlockNumber": -1,
            "priorityFee": "",
            "receiver": "0x6b3595068778dd592e39a122f4f5a5cf09c90fe2",
            "revertMessage": "",
            "sender": "0x6c6b111520a7b6b33c92945401372c958e67ac7d",
            "simulationEnable": true,
            "sourceTxnHash": "0x9b16c53cb23e338c72dbbf6c42220cb6407e85df995a5c9a56b51158e0c09488",
            "status": true,
            "timestamp": "2020-10-12T13:42:30Z",
            "transactionFee": "0.002966842056478541",
            "txnHash": "0x9b16c53cb23e338c72dbbf6c42220cb6407e85df995a5c9a56b51158e0c09488",
            "txnIndex": 152,
            "type": 0,
            "value": "0"
        },
        "fund_flow": [
            {
                "amount": "15,000",
                "from": "0x6c6b111520a7b6b33c92945401372c958e67ac7d",
                "id": 1,
                "isERC1155": false,
                "isERC721": false,
                "isReverted": false,
                "order": 1,
                "to": "0x6292c1b03b623fc03f2eb0d223706506e2257fc0",
                "token": "0x6b3595068778dd592e39a122f4f5a5cf09c90fe2"
            }
        ],
        "token_infos": [
            {
                "address": "0xeeeeeeeeeeeeeeeeeeeeeeeeeeeeeeeeeeeeeeee",
                "decimals": 18
            },
            {
                "address": "0x6b3595068778dd592e39a122f4f5a5cf09c90fe2",
                "decimals": 18
            },
            {
                "address": "0xc02aaa39b223fe8d0a0e5c4f27ead9083c756cc2",
                "decimals": 18
            }
        ]
    },
    "address_label": {
        "labels": [
            {
                "address": "0x0000000000000000000000000000000000000002",
                "label": "Precompiled"
            },
            {
                "address": "0x0000000000000000000000000000000000000003",
                "label": "Precompiled"
            },
            {
                "address": "0x0000000000000000000000000000000000000004",
                "label": "Precompiled"
            },
            {
                "address": "0xeeeeeeeeeeeeeeeeeeeeeeeeeeeeeeeeeeeeeeee",
                "label": "Ether"
            },
            {
                "address": "0x6292c1b03b623fc03f2eb0d223706506e2257fc0",
                "label": "HUOBI"
            },
            {
                "address": "0x6b3595068778dd592e39a122f4f5a5cf09c90fe2",
                "label": "SushiSwap: SUSHI Token"
            },
            {
                "address": "0x0000000000000000000000000000000000000001",
                "label": "Precompiled"
            }
        ]
    },
    "trace": {
        "accountLabels": null,
        "dataMap": {
            "-1": {
                "invocation": {
                    "address": "0x6c6b111520a7b6b33c92945401372c958e67ac7d",
                    "callData": "",
                    "decodedMethod": null,
                    "errorInfo": "",
                    "fromAddress": "",
                    "gasUsed": 0,
                    "id": -1,
                    "methodDecoded": false,
                    "operation": "",
                    "output": "",
                    "revert": false,
                    "revertMessage": "",
                    "selector": "",
                    "status": false,
                    "value": ""
                },
                "nodeType": 0
            },
            "0": {
                "invocation": {
                    "address": "0x6b3595068778dd592e39a122f4f5a5cf09c90fe2",
                    "callData": "0x0000000000000000000000006292c1b03b623fc03f2eb0d223706506e2257fc000000000000000000000000000000000000000000000032d26d12e980b600000",
                    "decodedMethod": {
                        "callParams": [
                            {
                                "name": "recipient",
                                "type": "address",
                                "value": "0x6292c1b03b623fc03f2eb0d223706506e2257fc0"
                            },
                            {
                                "decimalAvailable": true,
                                "name": "amount",
                                "type": "uint256",
                                "value": "15,000,000,000,000,000,000,000"
                            }
                        ],
                        "constructorArguments": "",
                        "name": "transfer",
                        "returnParams": [
                            {
                                "name": "",
                                "type": "bool",
                                "value": true
                            }
                        ],
                        "signature": "transfer(address,uint256)"
                    },
                    "errorInfo": "",
                    "fromAddress": "0x6c6b111520a7b6b33c92945401372c958e67ac7d",
                    "gasUsed": 36181,
                    "id": 0,
                    "methodDecoded": true,
                    "operation": "CALL",
                    "output": "0x0000000000000000000000000000000000000000000000000000000000000001",
                    "revert": false,
                    "revertMessage": "",
                    "selector": "0xa9059cbb",
                    "status": true,
                    "value": "0"
                },
                "nodeType": 0
            },
            "1": {
                "event": {
                    "contract": "0x6b3595068778dd592e39a122f4f5a5cf09c90fe2",
                    "decodedLog": {
                        "name": "Transfer",
                        "params": [
                            {
                                "name": "from",
                                "type": "address",
                                "value": "0x6c6b111520a7b6b33c92945401372c958e67ac7d"
                            },
                            {
                                "name": "to",
                                "type": "address",
                                "value": "0x6292c1b03b623fc03f2eb0d223706506e2257fc0"
                            },
                            {
                                "decimalAvailable": true,
                                "name": "value",
                                "type": "uint256",
                                "value": "15,000,000,000,000,000,000,000"
                            }
                        ],
                        "signature": "Transfer(address,address,uint256)"
                    },
                    "id": 1,
                    "logData": "0x00000000000000000000000000000000000000000000032d26d12e980b600000",
                    "logDecoded": true,
                    "operation": "EVENT",
                    "revert": false,
                    "status": true,
                    "topics": [
                        "0xddf252ad1be2c89b69c2b068fc378daa952ba7f163c4a11628f55a4df523b3ef",
                        "0x0000000000000000000000006c6b111520a7b6b33c92945401372c958e67ac7d",
                        "0x0000000000000000000000006292c1b03b623fc03f2eb0d223706506e2257fc0"
                    ]
                },
                "nodeType": 1
            }
        },
        "gasFlame": [
            {
                "children": [
                    {
                        "children": [
                            {
                                "children": [],
                                "depth": 0,
                                "name": "Initial Gas",
                                "value": 21656
                            },
                            {
                                "children": [],
                                "depth": 0,
                                "name": "Executed Gas",
                                "value": 14525
                            }
                        ],
                        "depth": -1,
                        "name": "Actual Gas Used",
                        "value": 36181
                    },
                    {
                        "children": [],
                        "depth": -1,
                        "name": "Refunded Gas",
                        "value": 0
                    }
                ],
                "depth": -2,
                "name": "Total Gas",
                "value": 36181
            }
        ],
        "isConfirmed": true,
        "mainTrace": [
            {
                "children": [
                    {
                        "children": [
                            {
                                "children": [],
                                "depth": 1,
                                "id": 1,
                                "order": 1
                            }
                        ],
                        "depth": 0,
                        "id": 0,
                        "order": 0
                    }
                ],
                "depth": -1,
                "id": -1,
                "order": -1
            }
        ],
        "mainTraceNodeCount": 2,
        "parentIdMap": {
            "0": -1,
            "1": 0
        },
        "tidyTrace": [
            {
                "children": [
                    {
                        "children": [
                            {
                                "children": [],
                                "depth": 1,
                                "id": 1,
                                "order": 1
                            }
                        ],
                        "depth": 0,
                        "id": 0,
                        "order": 0
                    }
                ],
                "depth": -1,
                "id": -1,
                "order": -1
            }
        ],
        "tidyTraceNodeCount": 2
    },
    "state_change": {
        "stateChanges": [
            {
                "address": "0x6b3595068778dd592e39a122f4f5a5cf09c90fe2",
                "erc": "ERC-20",
                "slots": [
                    {
                        "current": "0x0000000000000000000000000000000000000000000002f6b1af2441377ac000",
                        "key": "0xfc76b597bab93b69d7e3ac05319aa61bd641e176266e227417ca6d355c2cd1f5",
                        "prev": "0x000000000000000000000000000000000000000000000623d88052d942dac000"
                    },
                    {
                        "current": "0x00000000000000000000000000000000000000000000032d26d12e9826ea3f07",
                        "key": "0x444c3d8cbd1ab3be3d49d2d3e8f56c6cfb5b03c9b2294feb3cbc8af7f2bc82db",
                        "prev": "0x000000000000000000000000000000000000000000000000000000001b8a3f07"
                    }
                ],
                "storageVariables": [
                    {
                        "name": "_balances",
                        "type": "mapping(address => uint256)",
                        "value": {
                            "pairs": [
                                {
                                    "key": "0x6292c1b03b623fc03f2eb0d223706506e2257fc0",
                                    "value": {
                                        "current": "15000000000000462044935",
                                        "prev": "462044935",
                                        "typeTag": 1
                                    }
                                },
                                {
                                    "key": "0x6c6b111520a7b6b33c92945401372c958e67ac7d",
                                    "value": {
                                        "current": "13995435500000000000000",
                                        "prev": "28995435500000000000000",
                                        "typeTag": 1
                                    }
                                }
                            ],
                            "typeTag": 4
                        }
                    }
                ]
            }
        ]
    }
}