{
    "balance_change": {
        "balanceChanges": [
            {
                "account": "0x80ed3fd282807b251c69042492617b66d033a0ee",
                "assets": [
                    {
                        "address": "0x6a8b632d25933ba39660e2e3d03ee481fed638ed",
                        "amount": "1",
                        "iconUrl": "",
                        "isERC1155": false,
                        "isERC721": true,
                        "sign": true,
                        "tokenID": "5026",
                        "value": ""
                    },
                    {
                        "address": "0x6a8b632d25933ba39660e2e3d03ee481fed638ed",
                        "amount": "1",
                        "iconUrl": "",
                        "isERC1155": false,
                        "isERC721": true,
                        "sign": true,
                        "tokenID": "5027",
                        "value": ""
                    }
                ]
            },
            {
                "account": "0x0000000000000000000000000000000000000000",
                "assets": [
                    {
                        "address": "0x6a8b632d25933ba39660e2e3d03ee481fed638ed",
                        "amount": "1",
                        "iconUrl": "",
                        "isERC1155": false,
                        "isERC721": true,
                        "sign": false,
                        "tokenID": "5026",
                        "value": ""
                    },
                    {
                        "address": "0x6a8b632d25933ba39660e2e3d03ee481fed638ed",
                        "amount": "1",
                        "iconUrl": "",
                        "isERC1155": false,
                        "isERC721": true,
                        "sign": false,
                        "tokenID": "5027",
                        "value": ""
                    }
                ]
            }
        ]
    },
    "profile": {
        "basic_info": {
            "baseFee": "16.773076964",
            "blockNumber": 15362036,
            "callData": "0xa0712d680000000000000000000000000000000000000000000000000000000000000002",
            "debugEnable": true,
            "errorInfo": "",
            "eventCount": 2,
            "feeRecipient": "0x829bd824b016326a401d083b33d092293333a830",
            "formatValue": "0",
            "gasLimit": 172665,
            "gasPrice": "17.773076964",
            "gasUsed": 115110,
            "intTxnCount": 0,
            "internalRevert": false,
            "internalRevertMessage": "",
            "isContractCreation": false,
            "isFlashloan": false,
            "maxFee": "24.56693246",
            "nonce": 200,
            "overwritedBlockNumber": -1,
            "priorityFee": "1",
            "receiver": "0x6a8b632d25933ba39660e2e3d03ee481fed638ed",
            "revertMessage": "",
            "sender": "0x80ed3fd282807b251c69042492617b66d033a0ee",
            "simulationEnable": true,
            "sourceTxnHash": "0x9b15080a2302ba2a96cc0e6302243e7e00cc547ebe1facdbab824f80f724354a",
            "status": true,
            "timestamp": "2022-08-18T01:08:20Z",
            "transactionFee": "0.00204585888932604",
            "txnHash": "0x9b15080a2302ba2a96cc0e6302243e7e00cc547ebe1facdbab824f80f724354a",
            "txnIndex": 186,
            "type": 2,
            "value": "0"
        },
        "fund_flow": [
            {
                "amount": "1",
                "from": "0x0000000000000000000000000000000000000000",
                "id": 1,
                "isERC1155": false,
                "isERC721": true,
                "isReverted": false,
                "order": 1,
                "to": "0x80ed3fd282807b251c69042492617b66d033a0ee",
                "token": "0x6a8b632d25933ba39660e2e3d03ee481fed638ed",
                "tokenID": "5026"
            },
            {
                "amount": "1",
                "from": "0x0000000000000000000000000000000000000000",
                "id": 2,
                "isERC1155": false,
                "isERC721": true,
                "isReverted": false,
                "order": 2,
                "to": "0x80ed3fd282807b251c69042492617b66d033a0ee",
                "token": "0x6a8b632d25933ba39660e2e3d03ee481fed638ed",
                "tokenID": "5027"
            }
        ],
        "token_infos": [
            {
                "address": "0xc02aaa39b223fe8d0a0e5c4f27ead9083c756cc2",
                "decimals": 18
            },
            {
                "address": "0xeeeeeeeeeeeeeeeeeeeeeeeeeeeeeeeeeeeeeeee",
                "decimals": 18
            }
        ]
    },
    "address_label": {
        "labels": [
            {
                "address": "0x0000000000000000000000000000000000000003",
                "label": "Precompiled"
            },
            {
                "address": "0x0000000000000000000000000000000000000004",
                "label": "Precompiled"
            },
            {
                "address": "0xeeeeeeeeeeeeeeeeeeeeeeeeeeeeeeeeeeeeeeee",
                "label": "Ether"
            },
            {
                "address": "0x6a8b632d25933ba39660e2e3d03ee481fed638ed",
                "label": "MoonApes"
            },
            {
                "address": "0x0000000000000000000000000000000000000001",
                "label": "Precompiled"
            },
            {
                "address": "0x0000000000000000000000000000000000000002",
                "label": "Precompiled"
            }
        ]
    },
    "trace": {
        "accountLabels": null,
        "dataMap": {
            "-1": {
                "invocation": {
                    "address": "0x80ed3fd282807b251c69042492617b66d033a0ee",
                    "callData": "",
                    "decodedMethod": null,
                    "errorInfo": "",
                    "fromAddress": "",
                    "gasUsed": 0,
                    "id": -1,
                    "methodDecoded": false,
                    "operation": "",
                    "output": "",
                    "revert": false,
                    "revertMessage": "",
                    "selector": "",
                    "status": false,
                    "value": ""
                },
                "nodeType": 0
            },
            "0": {
                "invocation": {
                    "address": "0x6a8b632d25933ba39660e2e3d03ee481fed638ed",
                    "callData": "0x0000000000000000000000000000000000000000000000000000000000000002",
                    "decodedMethod": {
                        "callParams": [
                            {
                                "name": "count",
                                "type": "uint256",
                                "value": "2"
                            }
                        ],
                        "constructorArguments": "",
                        "name": "mint",
                        "returnParams": [],
                        "signature": "mint(uint256)"
                    },
                    "errorInfo": "",
                    "fromAddress": "0x80ed3fd282807b251c69042492617b66d033a0ee",
                    "gasUsed": 115110,
                    "id": 0,
                    "methodDecoded": true,
                    "operation": "CALL",
                    "output": "",
                    "revert": false,
                    "revertMessage": "",
                    "selector": "0xa0712d68",
                    "status": true,
                    "value": "0"
                },
                "nodeType": 0
            },
            "1": {
                "event": {
                    "contract": "0x6a8b632d25933ba39660e2e3d03ee481fed638ed",
                    "decodedLog": {
                        "name": "Transfer",
                        "params": [
                            {
                                "name": "from",
                                "type": "address",
                                "value": "0x0000000000000000000000000000000000000000"
                            },
                            {
                                "name": "to",
                                "type": "address",
                                "value": "0x80ed3fd282807b251c69042492617b66d033a0ee"
                            },
                            {
                                "decimalAvailable": true,
                                "name": "tokenId",
                                "type": "uint256",
                                "value": "5,026"
                            }
                        ],
                        "signature": "Transfer(address,address,uint256)"
                    },
                    "id": 1,
                    "logData": "0x",
                    "logDecoded": true,
                    "operation": "EVENT",
                    "revert": false,
                    "status": true,
                    "topics": [
                        "0xddf252ad1be2c89b69c2b068fc378daa952ba7f163c4a11628f55a4df523b3ef",
                        "0x0000000000000000000000000000000000000000000000000000000000000000",
                        "0x00000000000000000000000080ed3fd282807b251c69042492617b66d033a0ee",
                        "0x00000000000000000000000000000000000000000000000000000000000013a2"
                    ]
                },
                "nodeType": 1
            },
            "2": {
                "event": {
                    "contract": "0x6a8b632d25933ba39660e2e3d03ee481fed638ed",
                    "decodedLog": {
                        "name": "Transfer",
                        "params": [
                            {
                                "name": "from",
                                "type": "address",
                                "value": "0x0000000000000000000000000000000000000000"
                            },
                            {
                                "name": "to",
                                "type": "address",
                                "value": "0x80ed3fd282807b251c69042492617b66d033a0ee"
                            },
                            {
                                "decimalAvailable": true,
                                "name": "tokenId",
                                "type": "uint256",
                                "value": "5,027"
                            }
                        ],
                        "signature": "Transfer(address,address,uint256)"
                    },
                    "id": 2,
                    "logData": "0x",
                    "logDecoded": true,
                    "operation": "EVENT",
                    "revert": false,
                    "status": true,
                    "topics": [
                        "0xddf252ad1be2c89b69c2b068fc378daa952ba7f163c4a11628f55a4df523b3ef",
                        "0x0000000000000000000000000000000000000000000000000000000000000000",
                        "0x00000000000000000000000080ed3fd282807b251c69042492617b66d033a0ee",
                        "0x00000000000000000000000000000000000000000000000000000000000013a3"
                    ]
                },
                "nodeType": 1
            }
        },
        "gasFlame": [
            {
                "children": [
                    {
                        "children": [
                            {
                                "children": [],
                                "depth": 0,
                                "name": "Initial Gas",
                                "value": 21204
                            },
                            {
                                "children": [],
                                "depth": 0,
                                "name": "Executed Gas",
                                "value": 93906
                            }
                        ],
                        "depth": -1,
                        "name": "Actual Gas Used",
                        "value": 115110
                    },
                    {
                        "children": [],
                        "depth": -1,
                        "name": "Refunded Gas",
                        "value": 0
                    }
                ],
                "depth": -2,
                "name": "Total Gas",
                "value": 115110
            }
        ],
        "isConfirmed": true,
        "mainTrace": [
            {
                "children": [
                    {
                        "children": [
                            {
                                "children": [],
                                "depth": 1,
                                "id": 1,
                                "order": 1
                            },
                            {
                                "children": [],
                                "depth": 1,
                                "id": 2,
                                "order": 2
                            }
                        ],
                        "depth": 0,
                        "id": 0,
                        "order": 0
                    }
                ],
                "depth": -1,
                "id": -1,
                "order": -1
            }
        ],
        "mainTraceNodeCount": 3,
        "parentIdMap": {
            "0": -1,
            "1": 0,
            "2": 0
        },
        "tidyTrace": [
            {
                "children": [
                    {
                        "children": [
                            {
                                "children": [],
                                "depth": 1,
                                "id": 1,
                                "order": 1
                            },
                            {
                                "children": [],
                                "depth": 1,
                                "id": 2,
                                "order": 2
                            }
                        ],
                        "depth": 0,
                        "id": 0,
                        "order": 0
                    }
                ],
                "depth": -1,
                "id": -1,
                "order": -1
            }
        ],
        "tidyTraceNodeCount": 3
    },
    "state_change": {
        "stateChanges": [
            {
                "address": "0x6a8b632d25933ba39660e2e3d03ee481fed638ed",
                "erc": "ERC-721",
                "slots": [
                    {
                        "current": "0x0000000000000000000000000000000000000000000000020000000000000002",
                        "key": "0x7a41eacd9f1379a4916e24766245d6821ec935a194fae0f0474b69ec71a2eb53",
                        "prev": "0x0000000000000000000000000000000000000000000000000000000000000000"
                    },
                    {
                        "current": "0x000000000000000062fd910480ed3fd282807b251c69042492617b66d033a0ee",
                        "key": "0x062bbe077e0b6a9acb3b27d41b9bf97ecc118def574690297456989920be9086",
                        "prev": "0x0000000000000000000000000000000000000000000000000000000000000000"
                    },
                    {
                        "current": "0x00000000000000000000000000000000000000000000000000000000000013a4",
                        "key": "0x0000000000000000000000000000000000000000000000000000000000000000",
                        "prev": "0x00000000000000000000000000000000000000000000000000000000000013a2"
                    },
                    {
                        "current": "0x0000000000000000000000000000000000000000000000000000000000000002",
                        "key": "0xf820ff4c096c38a4c5988a8895d1708197aea3f17249415a8779995d8d7a918f",
                        "prev": "0x0000000000000000000000000000000000000000000000000000000000000000"
                    }
                ],
                "storageVariables": [
                    {
                        "name": "_currentIndex",
                        "type": "uint256",
                        "value": {
                            "current": "5028",
                            "prev": "5026",
                            "typeTag": 1
                        }
                    },
                    {
                        "name": "_mintedFreeAmount",
                        "type": "mapping(address => uint256)",
                        "value": {
                            "pairs": [
                                {
                                    "key": "0x80ed3fd282807b251c69042492617b66d033a0ee",
                                    "value": {
                                        "current": "2",
                                        "prev": "0",
                                        "typeTag": 1
                                    }
                                }
                            ],
                            "typeTag": 4
                        }
                    },
                    {
                        "name": "_packedAddressData",
                        "type": "mapping(address => uint256)",
                        "value": {
                            "pairs": [
                                {
                                    "key": "0x80ed3fd282807b251c69042492617b66d033a0ee",
                                    "value": {
                                        "current": "36893488147419103234",
                                        "prev": "0",
                                        "typeTag": 1
                                    }
                                }
                            ],
                            "typeTag": 4
                        }
                    },
                    {
                        "name": "_packedOwnerships",
                        "type": "mapping(uint256 => uint256)",
                        "value": {
                            "pairs": [
                                {
                                    "key": "5026",
                                    "value": {
                                        "current": "2427239851340481524902895616739778590021414575970234638574",
                                        "prev": "0",
                                        "typeTag": 1
                                    }
                                }
                            ],
                            "typeTag": 4
                        }
                    }
                ]
            }
        ]
    }
}