{
    "balance_change": {
        "balanceChanges": [
            {
                "account": "0xa477898c41554efe828fb522f87382d0f5d8746f",
                "assets": [
                    {
                        "address": "0xeeeeeeeeeeeeeeeeeeeeeeeeeeeeeeeeeeeeeeee",
                        "amount": "0.009318000001484",
                        "iconUrl": "https://assets.blocksec.com/image/1663669189317-3.png",
                        "isERC1155": false,
                        "isERC721": false,
                        "sign": false,
                        "value": "17.286287701855150848"
                    }
                ]
            },
            {
                "account": "0xd19d4b5d358258f05d7b411e21a1460d11b0876f",
                "assets": [
                    {
                        "address": "0xeeeeeeeeeeeeeeeeeeeeeeeeeeeeeeeeeeeeeeee",
                        "amount": "0.009318000001484",
                        "iconUrl": "https://assets.blocksec.com/image/1663669189317-3.png",
                        "isERC1155": false,
                        "isERC721": false,
                        "sign": true,
                        "value": "17.286287701855150848"
                    }
                ]
            }
        ]
    },
    "profile": {
        "basic_info": {
            "baseFee": "14.624627049",
            "blockNumber": 17825648,
            "callData": "0x9f3ce55a000000000000000000000000a477898c41554efe828fb522f87382d0f5d8746f00000000000000000000000000000000000000000000000000012138252084e000000000000000000000000000000000000000000000000000000000000000600000000000000000000000000000000000000000000000000000000000000000",
            "debugEnable": true,
            "errorInfo": "",
            "eventCount": 1,
            "feeRecipient": "0xe43cc5b6ff052f5aa931a4f9ef2bfa0c500014ca",
            "formatValue": "0.009318000001484",
            "gasLimit": 99319,
            "gasPrice": "14.724627049",
            "gasUsed": 65671,
            "intTxnCount": 1,
            "internalRevert": false,
            "internalRevertMessage": "",
            "isContractCreation": false,
            "isFlashloan": false,
            "maxFee": "20.572395728",
            "nonce": 33,
            "overwritedBlockNumber": -1,
            "priorityFee": "0.1",
            "receiver": "0xd19d4b5d358258f05d7b411e21a1460d11b0876f",
            "revertMessage": "",
            "sender": "0xa477898c41554efe828fb522f87382d0f5d8746f",
            "simulationEnable": true,
            "sourceTxnHash": "0x9cf9279a296eafcb34f41ed105b7d671dbf1794627265d40f8c5f5500425be59",
            "status": true,
            "timestamp": "2023-08-02T06:53:11Z",
            "transactionFee": "0.000966980982934879",
            "txnHash": "0x9cf9279a296eafcb34f41ed105b7d671dbf1794627265d40f8c5f5500425be59",
            "txnIndex": 106,
            "type": 2,
            "value": "9318000001484000"
        },
        "fund_flow": [
            {
                "amount": "0.009318000001484",
                "from": "0xa477898c41554efe828fb522f87382d0f5d8746f",
                "id": 1,
                "isERC1155": false,
                "isERC721": false,
                "isReverted": false,
                "order": 1,
                "to": "0xd19d4b5d358258f05d7b411e21a1460d11b0876f",
                "token": "0xeeeeeeeeeeeeeeeeeeeeeeeeeeeeeeeeeeeeeeee"
            }
        ],
        "token_infos": [
            {
                "address": "0xc02aaa39b223fe8d0a0e5c4f27ead9083c756cc2",
                "decimals": 18
            },
            {
                "address": "0xeeeeeeeeeeeeeeeeeeeeeeeeeeeeeeeeeeeeeeee",
                "decimals": 18
            }
        ]
    },
    "address_label": {
        "labels": [
            {
                "address": "0x4c8d4ce72afaa417d1f7e833725fdb4e793cd6b3",
                "label": "ZkEvmV2"
            },
            {
                "address": "0xd19d4b5d358258f05d7b411e21a1460d11b0876f",
                "label": "Linea: L1 Message Service"
            },
            {
                "address": "0x0000000000000000000000000000000000000001",
                "label": "Precompiled"
            },
            {
                "address": "0x0000000000000000000000000000000000000002",
                "label": "Precompiled"
            },
            {
                "address": "0x0000000000000000000000000000000000000003",
                "label": "Precompiled"
            },
            {
                "address": "0x0000000000000000000000000000000000000004",
                "label": "Precompiled"
            },
            {
                "address": "0xeeeeeeeeeeeeeeeeeeeeeeeeeeeeeeeeeeeeeeee",
                "label": "Ether"
            }
        ]
    },
    "trace": {
        "accountLabels": null,
        "dataMap": {
            "-1": {
                "invocation": {
                    "address": "0xa477898c41554efe828fb522f87382d0f5d8746f",
                    "callData": "",
                    "decodedMethod": null,
                    "errorInfo": "",
                    "fromAddress": "",
                    "gasUsed": 0,
                    "id": -1,
                    "methodDecoded": false,
                    "operation": "",
                    "output": "",
                    "revert": false,
                    "revertMessage": "",
                    "selector": "",
                    "status": false,
                    "value": ""
                },
                "nodeType": 0
            },
            "0": {
                "invocation": {
                    "address": "0xd19d4b5d358258f05d7b411e21a1460d11b0876f",
                    "callData": "0x000000000000000000000000a477898c41554efe828fb522f87382d0f5d8746f00000000000000000000000000000000000000000000000000012138252084e000000000000000000000000000000000000000000000000000000000000000600000000000000000000000000000000000000000000000000000000000000000",
                    "decodedMethod": {
                        "callParams": [
                            {
                                "name": "_to",
                                "type": "address",
                                "value": "0xa477898c41554efe828fb522f87382d0f5d8746f"
                            },
                            {
                                "name": "_fee",
                                "type": "uint256",
                                "value": "318,000,001,484,000"
                            },
                            {
                                "name": "_calldata",
                                "type": "bytes",
                                "value": "0x"
                            }
                        ],
                        "constructorArguments": "",
                        "name": "sendMessage",
                        "returnParams": [],
                        "signature": "sendMessage(address,uint256,bytes)"
                    },
                    "errorInfo": "",
                    "fromAddress": "0xa477898c41554efe828fb522f87382d0f5d8746f",
                    "gasUsed": 65671,
                    "id": 0,
                    "methodDecoded": true,
                    "operation": "CALL",
                    "output": "",
                    "revert": false,
                    "revertMessage": "",
                    "selector": "0x9f3ce55a",
                    "status": true,
                    "value": "0.009318000001484"
                },
                "nodeType": 0
            },
            "1": {
                "invocation": {
                    "address": "0x4c8d4ce72afaa417d1f7e833725fdb4e793cd6b3",
                    "callData": "0x000000000000000000000000a477898c41554efe828fb522f87382d0f5d8746f00000000000000000000000000000000000000000000000000012138252084e000000000000000000000000000000000000000000000000000000000000000600000000000000000000000000000000000000000000000000000000000000000",
                    "decodedMethod": {
                        "callParams": [
                            {
                                "name": "_to",
                                "type": "address",
                                "value": "0xa477898c41554efe828fb522f87382d0f5d8746f"
                            },
                            {
                                "name": "_fee",
                                "type": "uint256",
                                "value": "318,000,001,484,000"
                            },
                            {
                                "name": "_calldata",
                                "type": "bytes",
                                "value": "0x"
                            }
                        ],
                        "constructorArguments": "",
                        "name": "sendMessage",
                        "returnParams": [],
                        "signature": "sendMessage(address,uint256,bytes)"
                    },
                    "errorInfo": "",
                    "fromAddress": "0xd19d4b5d358258f05d7b411e21a1460d11b0876f",
                    "gasUsed": 36587,
                    "id": 1,
                    "methodDecoded": true,
                    "operation": "DELEGATECALL",
                    "output": "",
                    "revert": false,
                    "revertMessage": "",
                    "selector": "0x9f3ce55a",
                    "status": true,
                    "value": "0.009318000001484"
                },
                "nodeType": 0
            },
            "2": {
                "event": {
                    "contract": "0xd19d4b5d358258f05d7b411e21a1460d11b0876f",
                    "decodedLog": {
                        "name": "MessageSent",
                        "params": [
                            {
                                "name": "_from",
                                "type": "address",
                                "value": "0xa477898c41554efe828fb522f87382d0f5d8746f"
                            },
                            {
                                "name": "_to",
                                "type": "address",
                                "value": "0xa477898c41554efe828fb522f87382d0f5d8746f"
                            },
                            {
                                "name": "_messageHash",
                                "type": "bytes32",
                                "value": "0xc0dae19eb0c4d2ca8f675a4e362816919ee86c2cf1756d9a7063eea36be22e65"
                            },
                            {
                                "name": "_fee",
                                "type": "uint256",
                                "value": "318,000,001,484,000"
                            },
                            {
                                "name": "_value",
                                "type": "uint256",
                                "value": "9,000,000,000,000,000"
                            },
                            {
                                "name": "_nonce",
                                "type": "uint256",
                                "value": "125,848"
                            },
                            {
                                "name": "_calldata",
                                "type": "bytes",
                                "value": "0x"
                            }
                        ],
                        "signature": "MessageSent(address,address,uint256,uint256,uint256,bytes,bytes32)"
                    },
                    "id": 2,
                    "logData": "0x00000000000000000000000000000000000000000000000000012138252084e0000000000000000000000000000000000000000000000000001ff973cafa8000000000000000000000000000000000000000000000000000000000000001eb9800000000000000000000000000000000000000000000000000000000000000800000000000000000000000000000000000000000000000000000000000000000",
                    "logDecoded": true,
                    "operation": "EVENT",
                    "revert": false,
                    "status": true,
                    "topics": [
                        "0xe856c2b8bd4eb0027ce32eeaf595c21b0b6b4644b326e5b7bd80a1cf8db72e6c",
                        "0x000000000000000000000000a477898c41554efe828fb522f87382d0f5d8746f",
                        "0x000000000000000000000000a477898c41554efe828fb522f87382d0f5d8746f",
                        "0xc0dae19eb0c4d2ca8f675a4e362816919ee86c2cf1756d9a7063eea36be22e65"
                    ]
                },
                "nodeType": 1
            }
        },
        "gasFlame": [
            {
                "children": [
                    {
                        "children": [
                            {
                                "children": [],
                                "depth": 0,
                                "name": "Initial Gas",
                                "value": 21912
                            },
                            {
                                "children": [
                                    {
                                        "children": [],
                                        "depth": 1,
                                        "name": "sendMessage",
                                        "value": 36587
                                    }
                                ],
                                "depth": 0,
                                "name": "Executed Gas",
                                "value": 43759
                            }
                        ],
                        "depth": -1,
                        "name": "Actual Gas Used",
                        "value": 65671
                    },
                    {
                        "children": [],
                        "depth": -1,
                        "name": "Refunded Gas",
                        "value": 0
                    }
                ],
                "depth": -2,
                "name": "Total Gas",
                "value": 65671
            }
        ],
        "isConfirmed": true,
        "mainTrace": [
            {
                "children": [
                    {
                        "children": [
                            {
                                "children": [
                                    {
                                        "children": [],
                                        "depth": 2,
                                        "id": 2,
                                        "order": 2
                                    }
                                ],
                                "depth": 1,
                                "id": 1,
                                "order": 1
                            }
                        ],
                        "depth": 0,
                        "id": 0,
                        "order": 0
                    }
                ],
                "depth": -1,
                "id": -1,
                "order": -1
            }
        ],
        "mainTraceNodeCount": 3,
        "parentIdMap": {
            "0": -1,
            "1": 0,
            "2": 1
        },
        "tidyTrace": [
            {
                "children": [
                    {
                        "children": [
                            {
                                "children": [
                                    {
                                        "children": [],
                                        "depth": 2,
                                        "id": 2,
                                        "order": 2
                                    }
                                ],
                                "depth": 1,
                                "id": 1,
                                "order": 1
                            }
                        ],
                        "depth": 0,
                        "id": 0,
                        "order": 0
                    }
                ],
                "depth": -1,
                "id": -1,
                "order": -1
            }
        ],
        "tidyTraceNodeCount": 3
    },
    "state_change": {
        "stateChanges": [
            {
                "address": "0xd19d4b5d358258f05d7b411e21a1460d11b0876f",
                "erc": "",
                "slots": [
                    {
                        "current": "0x0000000000000000000000000000000000000000000000000000000000000001",
                        "key": "0x16414efe0a01552b914ea6d4ae90f4255143d88178ca72d8dbec94ca7be8023d",
                        "prev": "0x0000000000000000000000000000000000000000000000000000000000000000"
                    },
                    {
                        "current": "0x000000000000000000000000000000000000000000000000000000000001eb99",
                        "key": "0x00000000000000000000000000000000000000000000000000000000000000e4",
                        "prev": "0x000000000000000000000000000000000000000000000000000000000001eb98"
                    }
                ],
                "storageVariables": [
                    {
                        "name": "outboxL1L2MessageStatus",
                        "type": "mapping(bytes32 => uint256)",
                        "value": {
                            "pairs": [
                                {
                                    "key": "0xc0dae19eb0c4d2ca8f675a4e362816919ee86c2cf1756d9a7063eea36be22e65",
                                    "value": {
                                        "current": "1",
                                        "prev": "0",
                                        "typeTag": 1
                                    }
                                }
                            ],
                            "typeTag": 4
                        }
                    },
                    {
                        "name": "nextMessageNumber",
                        "type": "uint256",
                        "value": {
                            "current": "125849",
                            "prev": "125848",
                            "typeTag": 1
                        }
                    }
                ]
            }
        ]
    }
}