{
    "balance_change": {
        "balanceChanges": []
    },
    "profile": {
        "basic_info": {
            "baseFee": "29.381442226",
            "blockNumber": 16429441,
            "callData": "0x095ea7b30000000000000000000000005fdcca53617f4d2b9134b29090c87d01058e27e900000000000000000000000000000000000000000000000d480ed9ef32b40000",
            "debugEnable": true,
            "errorInfo": "",
            "eventCount": 1,
            "feeRecipient": "0x7f396ef9f10c7beb11d01f2ea4a99a5787993474",
            "formatValue": "0",
            "gasLimit": 46395,
            "gasPrice": "30.881442226",
            "gasUsed": 46395,
            "intTxnCount": 0,
            "internalRevert": false,
            "internalRevertMessage": "",
            "isContractCreation": false,
            "isFlashloan": false,
            "maxFee": "43.134730823",
            "nonce": 4,
            "overwritedBlockNumber": -1,
            "priorityFee": "1.5",
            "receiver": "0xf57e7e7c23978c3caec3c3548e3d615c346e79ff",
            "revertMessage": "",
            "sender": "0x97850d28714a9ebf57ed05855c38b1c91a230d17",
            "simulationEnable": true,
            "sourceTxnHash": "0x9c1197b0d785c5f595330071c3f36cf4b2c3ad3de62e4efca2d0ff9715c88393",
            "status": true,
            "timestamp": "2023-01-17T22:14:35Z",
            "transactionFee": "0.00143274451207527",
            "txnHash": "0x9c1197b0d785c5f595330071c3f36cf4b2c3ad3de62e4efca2d0ff9715c88393",
            "txnIndex": 97,
            "type": 2,
            "value": "0"
        },
        "fund_flow": [],
        "token_infos": [
            {
                "address": "0xc02aaa39b223fe8d0a0e5c4f27ead9083c756cc2",
                "decimals": 18
            },
            {
                "address": "0xeeeeeeeeeeeeeeeeeeeeeeeeeeeeeeeeeeeeeeee",
                "decimals": 18
            }
        ]
    },
    "address_label": {
        "labels": [
            {
                "address": "0xeeeeeeeeeeeeeeeeeeeeeeeeeeeeeeeeeeeeeeee",
                "label": "Ether"
            },
            {
                "address": "0x5fdcca53617f4d2b9134b29090c87d01058e27e9",
                "label": "Immutable X: Bridge"
            },
            {
                "address": "0xf57e7e7c23978c3caec3c3548e3d615c346e79ff",
                "label": "IMMUTABLE X: IMX Token"
            },
            {
                "address": "0x7f396ef9f10c7beb11d01f2ea4a99a5787993474",
                "label": "GnosisSafeProxy"
            },
            {
                "address": "0x0000000000000000000000000000000000000001",
                "label": "Precompiled"
            },
            {
                "address": "0x0000000000000000000000000000000000000002",
                "label": "Precompiled"
            },
            {
                "address": "0x0000000000000000000000000000000000000003",
                "label": "Precompiled"
            },
            {
                "address": "0x0000000000000000000000000000000000000004",
                "label": "Precompiled"
            }
        ]
    },
    "trace": {
        "accountLabels": null,
        "dataMap": {
            "-1": {
                "invocation": {
                    "address": "0x97850d28714a9ebf57ed05855c38b1c91a230d17",
                    "callData": "",
                    "decodedMethod": null,
                    "errorInfo": "",
                    "fromAddress": "",
                    "gasUsed": 0,
                    "id": -1,
                    "methodDecoded": false,
                    "operation": "",
                    "output": "",
                    "revert": false,
                    "revertMessage": "",
                    "selector": "",
                    "status": false,
                    "value": ""
                },
                "nodeType": 0
            },
            "0": {
                "invocation": {
                    "address": "0xf57e7e7c23978c3caec3c3548e3d615c346e79ff",
                    "callData": "0x0000000000000000000000005fdcca53617f4d2b9134b29090c87d01058e27e900000000000000000000000000000000000000000000000d480ed9ef32b40000",
                    "decodedMethod": {
                        "callParams": [
                            {
                                "name": "spender",
                                "type": "address",
                                "value": "0x5fdcca53617f4d2b9134b29090c87d01058e27e9"
                            },
                            {
                                "decimalAvailable": true,
                                "name": "amount",
                                "type": "uint256",
                                "value": "245,000,000,000,000,000,000"
                            }
                        ],
                        "constructorArguments": "",
                        "name": "approve",
                        "returnParams": [
                            {
                                "name": "",
                                "type": "bool",
                                "value": true
                            }
                        ],
                        "signature": "approve(address,uint256)"
                    },
                    "errorInfo": "",
                    "fromAddress": "0x97850d28714a9ebf57ed05855c38b1c91a230d17",
                    "gasUsed": 46395,
                    "id": 0,
                    "methodDecoded": true,
                    "operation": "CALL",
                    "output": "0x0000000000000000000000000000000000000000000000000000000000000001",
                    "revert": false,
                    "revertMessage": "",
                    "selector": "0x095ea7b3",
                    "status": true,
                    "value": "0"
                },
                "nodeType": 0
            },
            "1": {
                "event": {
                    "contract": "0xf57e7e7c23978c3caec3c3548e3d615c346e79ff",
                    "decodedLog": {
                        "name": "Approval",
                        "params": [
                            {
                                "name": "owner",
                                "type": "address",
                                "value": "0x97850d28714a9ebf57ed05855c38b1c91a230d17"
                            },
                            {
                                "name": "spender",
                                "type": "address",
                                "value": "0x5fdcca53617f4d2b9134b29090c87d01058e27e9"
                            },
                            {
                                "decimalAvailable": true,
                                "name": "value",
                                "type": "uint256",
                                "value": "245,000,000,000,000,000,000"
                            }
                        ],
                        "signature": "Approval(address,address,uint256)"
                    },
                    "id": 1,
                    "logData": "0x00000000000000000000000000000000000000000000000d480ed9ef32b40000",
                    "logDecoded": true,
                    "operation": "EVENT",
                    "revert": false,
                    "status": true,
                    "topics": [
                        "0x8c5be1e5ebec7d5bd14f71427d1e84f3dd0314c0f7b2291e5b200ac8c7c3b925",
                        "0x00000000000000000000000097850d28714a9ebf57ed05855c38b1c91a230d17",
                        "0x0000000000000000000000005fdcca53617f4d2b9134b29090c87d01058e27e9"
                    ]
                },
                "nodeType": 1
            }
        },
        "gasFlame": [
            {
                "children": [
                    {
                        "children": [
                            {
                                "children": [],
                                "depth": 0,
                                "name": "Initial Gas",
                                "value": 21644
                            },
                            {
                                "children": [],
                                "depth": 0,
                                "name": "Executed Gas",
                                "value": 24751
                            }
                        ],
                        "depth": -1,
                        "name": "Actual Gas Used",
                        "value": 46395
                    },
                    {
                        "children": [],
                        "depth": -1,
                        "name": "Refunded Gas",
                        "value": 0
                    }
                ],
                "depth": -2,
                "name": "Total Gas",
                "value": 46395
            }
        ],
        "isConfirmed": true,
        "mainTrace": [
            {
                "children": [
                    {
                        "children": [
                            {
                                "children": [],
                                "depth": 1,
                                "id": 1,
                                "order": 1
                            }
                        ],
                        "depth": 0,
                        "id": 0,
                        "order": 0
                    }
                ],
                "depth": -1,
                "id": -1,
                "order": -1
            }
        ],
        "mainTraceNodeCount": 2,
        "parentIdMap": {
            "0": -1,
            "1": 0
        },
        "tidyTrace": [
            {
                "children": [
                    {
                        "children": [
                            {
                                "children": [],
                                "depth": 1,
                                "id": 1,
                                "order": 1
                            }
                        ],
                        "depth": 0,
                        "id": 0,
                        "order": 0
                    }
                ],
                "depth": -1,
                "id": -1,
                "order": -1
            }
        ],
        "tidyTraceNodeCount": 2
    },
    "state_change": {
        "stateChanges": [
            {
                "address": "0xf57e7e7c23978c3caec3c3548e3d615c346e79ff",
                "erc": "ERC-20",
                "slots": [
                    {
                        "current": "0x00000000000000000000000000000000000000000000000d480ed9ef32b40000",
                        "key": "0x2e3721ca4ad0b160e273d642f79ab1576e5c5c5df050497149149a807fd92f3b",
                        "prev": "0x0000000000000000000000000000000000000000000000000000000000000000"
                    }
                ],
                "storageVariables": [
                    {
                        "name": "_allowances",
                        "type": "mapping(address => mapping(address => uint256))",
                        "value": {
                            "pairs": [
                                {
                                    "key": "0x97850d28714a9ebf57ed05855c38b1c91a230d17",
                                    "value": {
                                        "pairs": [
                                            {
                                                "key": "0x5fdcca53617f4d2b9134b29090c87d01058e27e9",
                                                "value": {
                                                    "current": "245000000000000000000",
                                                    "prev": "0",
                                                    "typeTag": 1
                                                }
                                            }
                                        ],
                                        "typeTag": 4
                                    }
                                }
                            ],
                            "typeTag": 4
                        }
                    }
                ]
            }
        ]
    }
}