{
    "balance_change": {
        "balanceChanges": [
            {
                "account": "0x4e7afc9fdad8f1235f43983dafa8bab704664dbd",
                "assets": [
                    {
                        "address": "0x9e9801bace260f58407c15e6e515c45918756e0f",
                        "amount": "198",
                        "iconUrl": "",
                        "isERC1155": false,
                        "isERC721": false,
                        "sign": false,
                        "value": ""
                    }
                ]
            },
            {
                "account": "0x7d344a41b45f2f68c285325537cb13d97f1272e5",
                "assets": [
                    {
                        "address": "0x9e9801bace260f58407c15e6e515c45918756e0f",
                        "amount": "198",
                        "iconUrl": "",
                        "isERC1155": false,
                        "isERC721": false,
                        "sign": true,
                        "value": ""
                    }
                ]
            }
        ]
    },
    "profile": {
        "basic_info": {
            "baseFee": "",
            "blockNumber": 8107832,
            "callData": "0xa9059cbb0000000000000000000000007d344a41b45f2f68c285325537cb13d97f1272e5000000000000000000000000000000000000000000000000000000049c2c0600",
            "debugEnable": true,
            "errorInfo": "",
            "eventCount": 1,
            "feeRecipient": "0xea674fdde714fd979de3edf0f56aa9716b898ec8",
            "formatValue": "0",
            "gasLimit": 92256,
            "gasPrice": "4.4",
            "gasUsed": 36808,
            "intTxnCount": 0,
            "internalRevert": false,
            "internalRevertMessage": "",
            "isContractCreation": false,
            "isFlashloan": false,
            "maxFee": "",
            "nonce": 79798,
            "overwritedBlockNumber": -1,
            "priorityFee": "",
            "receiver": "0x9e9801bace260f58407c15e6e515c45918756e0f",
            "revertMessage": "",
            "sender": "0x4e7afc9fdad8f1235f43983dafa8bab704664dbd",
            "simulationEnable": true,
            "sourceTxnHash": "0x9c6f86c2bef7b2e54b0a42b5b9b2a4939e1126fe5b3a7c2797e5d9d3223912f6",
            "status": true,
            "timestamp": "2019-07-08T02:07:15Z",
            "transactionFee": "0.0001619552",
            "txnHash": "0x9c6f86c2bef7b2e54b0a42b5b9b2a4939e1126fe5b3a7c2797e5d9d3223912f6",
            "txnIndex": 78,
            "type": 0,
            "value": "0"
        },
        "fund_flow": [
            {
                "amount": "198",
                "from": "0x4e7afc9fdad8f1235f43983dafa8bab704664dbd",
                "id": 1,
                "isERC1155": false,
                "isERC721": false,
                "isReverted": false,
                "order": 1,
                "to": "0x7d344a41b45f2f68c285325537cb13d97f1272e5",
                "token": "0x9e9801bace260f58407c15e6e515c45918756e0f"
            }
        ],
        "token_infos": [
            {
                "address": "0x9e9801bace260f58407c15e6e515c45918756e0f",
                "decimals": 8
            },
            {
                "address": "0xc02aaa39b223fe8d0a0e5c4f27ead9083c756cc2",
                "decimals": 18
            },
            {
                "address": "0xeeeeeeeeeeeeeeeeeeeeeeeeeeeeeeeeeeeeeeee",
                "decimals": 18
            }
        ]
    },
    "address_label": {
        "labels": [
            {
                "address": "0x0000000000000000000000000000000000000002",
                "label": "Precompiled"
            },
            {
                "address": "0x0000000000000000000000000000000000000003",
                "label": "Precompiled"
            },
            {
                "address": "0x0000000000000000000000000000000000000004",
                "label": "Precompiled"
            },
            {
                "address": "0xeeeeeeeeeeeeeeeeeeeeeeeeeeeeeeeeeeeeeeee",
                "label": "Ether"
            },
            {
                "address": "0x9e9801bace260f58407c15e6e515c45918756e0f",
                "label": "WorldUnitedCoins (WUC)"
            },
            {
                "address": "0x0000000000000000000000000000000000000001",
                "label": "Precompiled"
            }
        ]
    },
    "trace": {
        "accountLabels": null,
        "dataMap": {
            "-1": {
                "invocation": {
                    "address": "0x4e7afc9fdad8f1235f43983dafa8bab704664dbd",
                    "callData": "",
                    "decodedMethod": null,
                    "errorInfo": "",
                    "fromAddress": "",
                    "gasUsed": 0,
                    "id": -1,
                    "methodDecoded": false,
                    "operation": "",
                    "output": "",
                    "revert": false,
                    "revertMessage": "",
                    "selector": "",
                    "status": false,
                    "value": ""
                },
                "nodeType": 0
            },
            "0": {
                "invocation": {
                    "address": "0x9e9801bace260f58407c15e6e515c45918756e0f",
                    "callData": "0x0000000000000000000000007d344a41b45f2f68c285325537cb13d97f1272e5000000000000000000000000000000000000000000000000000000049c2c0600",
                    "decodedMethod": {
                        "callParams": [
                            {
                                "name": "to",
                                "type": "address",
                                "value": "0x7d344a41b45f2f68c285325537cb13d97f1272e5"
                            },
                            {
                                "decimalAvailable": true,
                                "name": "tokens",
                                "type": "uint256",
                                "value": "19,800,000,000"
                            }
                        ],
                        "constructorArguments": "",
                        "name": "transfer",
                        "returnParams": [
                            {
                                "name": "success",
                                "type": "bool",
                                "value": true
                            }
                        ],
                        "signature": "transfer(address,uint256)"
                    },
                    "errorInfo": "",
                    "fromAddress": "0x4e7afc9fdad8f1235f43983dafa8bab704664dbd",
                    "gasUsed": 36808,
                    "id": 0,
                    "methodDecoded": true,
                    "operation": "CALL",
                    "output": "0x0000000000000000000000000000000000000000000000000000000000000001",
                    "revert": false,
                    "revertMessage": "",
                    "selector": "0xa9059cbb",
                    "status": true,
                    "value": "0"
                },
                "nodeType": 0
            },
            "1": {
                "event": {
                    "contract": "0x9e9801bace260f58407c15e6e515c45918756e0f",
                    "decodedLog": {
                        "name": "Transfer",
                        "params": [
                            {
                                "name": "from",
                                "type": "address",
                                "value": "0x4e7afc9fdad8f1235f43983dafa8bab704664dbd"
                            },
                            {
                                "name": "to",
                                "type": "address",
                                "value": "0x7d344a41b45f2f68c285325537cb13d97f1272e5"
                            },
                            {
                                "decimalAvailable": true,
                                "name": "tokens",
                                "type": "uint256",
                                "value": "19,800,000,000"
                            }
                        ],
                        "signature": "Transfer(address,address,uint256)"
                    },
                    "id": 1,
                    "logData": "0x000000000000000000000000000000000000000000000000000000049c2c0600",
                    "logDecoded": true,
                    "operation": "EVENT",
                    "revert": false,
                    "status": true,
                    "topics": [
                        "0xddf252ad1be2c89b69c2b068fc378daa952ba7f163c4a11628f55a4df523b3ef",
                        "0x0000000000000000000000004e7afc9fdad8f1235f43983dafa8bab704664dbd",
                        "0x0000000000000000000000007d344a41b45f2f68c285325537cb13d97f1272e5"
                    ]
                },
                "nodeType": 1
            }
        },
        "gasFlame": [
            {
                "children": [
                    {
                        "children": [
                            {
                                "children": [],
                                "depth": 0,
                                "name": "Initial Gas",
                                "value": 23064
                            },
                            {
                                "children": [],
                                "depth": 0,
                                "name": "Executed Gas",
                                "value": 13744
                            }
                        ],
                        "depth": -1,
                        "name": "Actual Gas Used",
                        "value": 36808
                    },
                    {
                        "children": [],
                        "depth": -1,
                        "name": "Refunded Gas",
                        "value": 0
                    }
                ],
                "depth": -2,
                "name": "Total Gas",
                "value": 36808
            }
        ],
        "isConfirmed": true,
        "mainTrace": [
            {
                "children": [
                    {
                        "children": [
                            {
                                "children": [],
                                "depth": 1,
                                "id": 1,
                                "order": 1
                            }
                        ],
                        "depth": 0,
                        "id": 0,
                        "order": 0
                    }
                ],
                "depth": -1,
                "id": -1,
                "order": -1
            }
        ],
        "mainTraceNodeCount": 2,
        "parentIdMap": {
            "0": -1,
            "1": 0
        },
        "tidyTrace": [
            {
                "children": [
                    {
                        "children": [
                            {
                                "children": [],
                                "depth": 1,
                                "id": 1,
                                "order": 1
                            }
                        ],
                        "depth": 0,
                        "id": 0,
                        "order": 0
                    }
                ],
                "depth": -1,
                "id": -1,
                "order": -1
            }
        ],
        "tidyTraceNodeCount": 2
    },
    "state_change": {
        "stateChanges": [
            {
                "address": "0x9e9801bace260f58407c15e6e515c45918756e0f",
                "erc": "ERC-20",
                "slots": [
                    {
                        "current": "0x0000000000000000000000000000000000000000000000000000b67f3b7ab10b",
                        "key": "0xf8ffdd89eca289a639f55bbf497ea35361392754127be7070f497927964a415a",
                        "prev": "0x0000000000000000000000000000000000000000000000000000b683d7a6b70b"
                    },
                    {
                        "current": "0x00000000000000000000000000000000000000000000000000000008cd0e3a00",
                        "key": "0x4036f5448c0f67ac23dfc969d7c17b3ee87f3fa80b01321b5f362527ac278cd0",
                        "prev": "0x0000000000000000000000000000000000000000000000000000000430e23400"
                    }
                ],
                "storageVariables": [
                    {
                        "name": "balances",
                        "type": "mapping(address => uint256)",
                        "value": {
                            "pairs": [
                                {
                                    "key": "0x4e7afc9fdad8f1235f43983dafa8bab704664dbd",
                                    "value": {
                                        "current": "200657574998283",
                                        "prev": "200677374998283",
                                        "typeTag": 1
                                    }
                                },
                                {
                                    "key": "0x7d344a41b45f2f68c285325537cb13d97f1272e5",
                                    "value": {
                                        "current": "37800000000",
                                        "prev": "18000000000",
                                        "typeTag": 1
                                    }
                                }
                            ],
                            "typeTag": 4
                        }
                    }
                ]
            }
        ]
    }
}