{
    "balance_change": {
        "balanceChanges": [
            {
                "account": "0x49d1e6bce3874b071291a32ecbc977b4a0f22755",
                "assets": [
                    {
                        "address": "0xa0b86991c6218b36c1d19d4a2e9eb0ce3606eb48",
                        "amount": "1,988.308165",
                        "iconUrl": "https://assets.blocksec.com/icon/0347a86cc07dbd03fdc5db01a4e5ac7e1217f90e0b6e4bb0f75cbcca09160989.png",
                        "isERC1155": false,
                        "isERC721": false,
                        "sign": false,
                        "value": "1988.308165"
                    }
                ]
            },
            {
                "account": "0x1715a3e4a142d8b698131108995174f37aeba10d",
                "assets": [
                    {
                        "address": "0xa0b86991c6218b36c1d19d4a2e9eb0ce3606eb48",
                        "amount": "1,988.308165",
                        "iconUrl": "https://assets.blocksec.com/icon/0347a86cc07dbd03fdc5db01a4e5ac7e1217f90e0b6e4bb0f75cbcca09160989.png",
                        "isERC1155": false,
                        "isERC721": false,
                        "sign": true,
                        "value": "1988.308165"
                    }
                ]
            }
        ]
    },
    "profile": {
        "basic_info": {
            "baseFee": "19.373089468",
            "blockNumber": 17424406,
            "callData": "0xad58bdd1000000000000000000000000a0b86991c6218b36c1d19d4a2e9eb0ce3606eb4800000000000000000000000049d1e6bce3874b071291a32ecbc977b4a0f227550000000000000000000000000000000000000000000000000000000076832cc5",
            "debugEnable": true,
            "errorInfo": "",
            "eventCount": 3,
            "feeRecipient": "0xdafea492d9c6733ae3d56b7ed1adb60692c98bc5",
            "formatValue": "0",
            "gasLimit": 232232,
            "gasPrice": "19.673089468",
            "gasUsed": 199578,
            "intTxnCount": 9,
            "internalRevert": false,
            "internalRevertMessage": "",
            "isContractCreation": false,
            "isFlashloan": false,
            "maxFee": "31.082727904",
            "nonce": 8,
            "overwritedBlockNumber": -1,
            "priorityFee": "0.3",
            "receiver": "0x1715a3e4a142d8b698131108995174f37aeba10d",
            "revertMessage": "",
            "sender": "0x49d1e6bce3874b071291a32ecbc977b4a0f22755",
            "simulationEnable": true,
            "sourceTxnHash": "0x9c11f52032178a228480e84515bc3da065f635ab9b113c31b6684bd437370f3f",
            "status": true,
            "timestamp": "2023-06-06T22:37:23Z",
            "transactionFee": "0.003926315849844504",
            "txnHash": "0x9c11f52032178a228480e84515bc3da065f635ab9b113c31b6684bd437370f3f",
            "txnIndex": 73,
            "type": 2,
            "value": "0"
        },
        "fund_flow": [
            {
                "amount": "1,988.308165",
                "from": "0x49d1e6bce3874b071291a32ecbc977b4a0f22755",
                "id": 1,
                "isERC1155": false,
                "isERC721": false,
                "isReverted": false,
                "order": 1,
                "to": "0x1715a3e4a142d8b698131108995174f37aeba10d",
                "token": "0xa0b86991c6218b36c1d19d4a2e9eb0ce3606eb48"
            }
        ],
        "token_infos": [
            {
                "address": "0xc02aaa39b223fe8d0a0e5c4f27ead9083c756cc2",
                "decimals": 18
            },
            {
                "address": "0xeeeeeeeeeeeeeeeeeeeeeeeeeeeeeeeeeeeeeeee",
                "decimals": 18
            },
            {
                "address": "0xa0b86991c6218b36c1d19d4a2e9eb0ce3606eb48",
                "decimals": 6
            }
        ]
    },
    "address_label": {
        "labels": [
            {
                "address": "0xd0764fae29e0a6a96ff685f71cfc685456d5636c",
                "label": "PulseChain: Foreign AMB Proxy"
            },
            {
                "address": "0xa0b86991c6218b36c1d19d4a2e9eb0ce3606eb48",
                "label": "Circle: USDC Token"
            },
            {
                "address": "0x0000000000000000000000000000000000000003",
                "label": "Precompiled"
            },
            {
                "address": "0xeeeeeeeeeeeeeeeeeeeeeeeeeeeeeeeeeeeeeeee",
                "label": "Ether"
            },
            {
                "address": "0xe98699957d3504acd57fff861e4b77b57eb02467",
                "label": "ForeignAMB"
            },
            {
                "address": "0x1715a3e4a142d8b698131108995174f37aeba10d",
                "label": "PulseChain: Omnibridge Proxy"
            },
            {
                "address": "0x0000000000000000000000000000000000000002",
                "label": "Precompiled"
            },
            {
                "address": "0x0000000000000000000000000000000000000004",
                "label": "Precompiled"
            },
            {
                "address": "0xa2327a938febf5fec13bacfb16ae10ecbc4cbdcf",
                "label": "FiatTokenV2_1"
            },
            {
                "address": "0xb7df1e00ae030e966e635ede273625240546b873",
                "label": "ForeignOmnibridge"
            },
            {
                "address": "0x0000000000000000000000000000000000000001",
                "label": "Precompiled"
            }
        ]
    },
    "trace": {
        "accountLabels": null,
        "dataMap": {
            "-1": {
                "invocation": {
                    "address": "0x49d1e6bce3874b071291a32ecbc977b4a0f22755",
                    "callData": "",
                    "decodedMethod": null,
                    "errorInfo": "",
                    "fromAddress": "",
                    "gasUsed": 0,
                    "id": -1,
                    "methodDecoded": false,
                    "operation": "",
                    "output": "",
                    "revert": false,
                    "revertMessage": "",
                    "selector": "",
                    "status": false,
                    "value": ""
                },
                "nodeType": 0
            },
            "0": {
                "invocation": {
                    "address": "0x1715a3e4a142d8b698131108995174f37aeba10d",
                    "callData": "0x000000000000000000000000a0b86991c6218b36c1d19d4a2e9eb0ce3606eb4800000000000000000000000049d1e6bce3874b071291a32ecbc977b4a0f227550000000000000000000000000000000000000000000000000000000076832cc5",
                    "decodedMethod": {
                        "callParams": [
                            {
                                "name": "token",
                                "type": "address",
                                "value": "0xa0b86991c6218b36c1d19d4a2e9eb0ce3606eb48"
                            },
                            {
                                "name": "_receiver",
                                "type": "address",
                                "value": "0x49d1e6bce3874b071291a32ecbc977b4a0f22755"
                            },
                            {
                                "name": "_value",
                                "type": "uint256",
                                "value": "1,988,308,165"
                            }
                        ],
                        "constructorArguments": "",
                        "name": "relayTokens",
                        "returnParams": [],
                        "signature": "relayTokens(address,address,uint256)"
                    },
                    "errorInfo": "",
                    "fromAddress": "0x49d1e6bce3874b071291a32ecbc977b4a0f22755",
                    "gasUsed": 199578,
                    "id": 0,
                    "methodDecoded": true,
                    "operation": "CALL",
                    "output": "",
                    "revert": false,
                    "revertMessage": "",
                    "selector": "0xad58bdd1",
                    "status": true,
                    "value": "0"
                },
                "nodeType": 0
            },
            "1": {
                "invocation": {
                    "address": "0xb7df1e00ae030e966e635ede273625240546b873",
                    "callData": "0x000000000000000000000000a0b86991c6218b36c1d19d4a2e9eb0ce3606eb4800000000000000000000000049d1e6bce3874b071291a32ecbc977b4a0f227550000000000000000000000000000000000000000000000000000000076832cc5",
                    "decodedMethod": {
                        "callParams": [
                            {
                                "name": "token",
                                "type": "address",
                                "value": "0xa0b86991c6218b36c1d19d4a2e9eb0ce3606eb48"
                            },
                            {
                                "name": "_receiver",
                                "type": "address",
                                "value": "0x49d1e6bce3874b071291a32ecbc977b4a0f22755"
                            },
                            {
                                "name": "_value",
                                "type": "uint256",
                                "value": "1,988,308,165"
                            }
                        ],
                        "constructorArguments": "",
                        "name": "relayTokens",
                        "returnParams": [],
                        "signature": "relayTokens(address,address,uint256)"
                    },
                    "errorInfo": "",
                    "fromAddress": "0x1715a3e4a142d8b698131108995174f37aeba10d",
                    "gasUsed": 201980,
                    "id": 1,
                    "methodDecoded": true,
                    "operation": "DELEGATECALL",
                    "output": "",
                    "revert": false,
                    "revertMessage": "",
                    "selector": "0xad58bdd1",
                    "status": true,
                    "value": "0"
                },
                "nodeType": 0
            },
            "10": {
                "invocation": {
                    "address": "0xe98699957d3504acd57fff861e4b77b57eb02467",
                    "callData": "0x0000000000000000000000004fd0aaa7506f3d9cb8274bdb946ec42a1b8751ef000000000000000000000000000000000000000000000000000000000000006000000000000000000000000000000000000000000000000000000000001e84800000000000000000000000000000000000000000000000000000000000000064125e4cfb000000000000000000000000a0b86991c6218b36c1d19d4a2e9eb0ce3606eb4800000000000000000000000049d1e6bce3874b071291a32ecbc977b4a0f227550000000000000000000000000000000000000000000000000000000076832cc500000000000000000000000000000000000000000000000000000000",
                    "decodedMethod": {
                        "callParams": [
                            {
                                "name": "_contract",
                                "type": "address",
                                "value": "0x4fd0aaa7506f3d9cb8274bdb946ec42a1b8751ef"
                            },
                            {
                                "name": "_data",
                                "type": "bytes",
                                "value": "0x125e4cfb000000000000000000000000a0b86991c6218b36c1d19d4a2e9eb0ce3606eb4800000000000000000000000049d1e6bce3874b071291a32ecbc977b4a0f227550000000000000000000000000000000000000000000000000000000076832cc5"
                            },
                            {
                                "name": "_gas",
                                "type": "uint256",
                                "value": "2,000,000"
                            }
                        ],
                        "constructorArguments": "",
                        "name": "requireToPassMessage",
                        "returnParams": [
                            {
                                "name": "",
                                "type": "bytes32",
                                "value": "0x00050000809822368a3e57b54d6426d420b1294d3262f4f5000000000001bb6b"
                            }
                        ],
                        "signature": "requireToPassMessage(address,bytes,uint256)"
                    },
                    "errorInfo": "",
                    "fromAddress": "0xd0764fae29e0a6a96ff685f71cfc685456d5636c",
                    "gasUsed": 25839,
                    "id": 10,
                    "methodDecoded": true,
                    "operation": "DELEGATECALL",
                    "output": "0x00050000809822368a3e57b54d6426d420b1294d3262f4f5000000000001bb6b",
                    "revert": false,
                    "revertMessage": "",
                    "selector": "0xdc8601b3",
                    "status": true,
                    "value": "0"
                },
                "nodeType": 0
            },
            "11": {
                "event": {
                    "contract": "0xd0764fae29e0a6a96ff685f71cfc685456d5636c",
                    "decodedLog": {
                        "name": "UserRequestForAffirmation",
                        "params": [
                            {
                                "name": "messageId",
                                "type": "bytes32",
                                "value": "0x00050000809822368a3e57b54d6426d420b1294d3262f4f5000000000001bb6b"
                            },
                            {
                                "name": "encodedData",
                                "type": "bytes",
                                "value": "0x00050000809822368a3e57b54d6426d420b1294d3262f4f5000000000001bb6b1715a3e4a142d8b698131108995174f37aeba10d4fd0aaa7506f3d9cb8274bdb946ec42a1b8751ef001e8480010200010171125e4cfb000000000000000000000000a0b86991c6218b36c1d19d4a2e9eb0ce3606eb4800000000000000000000000049d1e6bce3874b071291a32ecbc977b4a0f227550000000000000000000000000000000000000000000000000000000076832cc5"
                            }
                        ],
                        "signature": "UserRequestForAffirmation(bytes32,bytes)"
                    },
                    "id": 11,
                    "logData": "0x000000000000000000000000000000000000000000000000000000000000002000000000000000000000000000000000000000000000000000000000000000b600050000809822368a3e57b54d6426d420b1294d3262f4f5000000000001bb6b1715a3e4a142d8b698131108995174f37aeba10d4fd0aaa7506f3d9cb8274bdb946ec42a1b8751ef001e8480010200010171125e4cfb000000000000000000000000a0b86991c6218b36c1d19d4a2e9eb0ce3606eb4800000000000000000000000049d1e6bce3874b071291a32ecbc977b4a0f227550000000000000000000000000000000000000000000000000000000076832cc500000000000000000000",
                    "logDecoded": true,
                    "operation": "EVENT",
                    "revert": false,
                    "status": true,
                    "topics": [
                        "0x482515ce3d9494a37ce83f18b72b363449458435fafdd7a53ddea7460fe01b58",
                        "0x00050000809822368a3e57b54d6426d420b1294d3262f4f5000000000001bb6b"
                    ]
                },
                "nodeType": 1
            },
            "12": {
                "event": {
                    "contract": "0x1715a3e4a142d8b698131108995174f37aeba10d",
                    "decodedLog": {
                        "name": "TokensBridgingInitiated",
                        "params": [
                            {
                                "name": "token",
                                "type": "address",
                                "value": "0xa0b86991c6218b36c1d19d4a2e9eb0ce3606eb48"
                            },
                            {
                                "name": "sender",
                                "type": "address",
                                "value": "0x49d1e6bce3874b071291a32ecbc977b4a0f22755"
                            },
                            {
                                "name": "messageId",
                                "type": "bytes32",
                                "value": "0x00050000809822368a3e57b54d6426d420b1294d3262f4f5000000000001bb6b"
                            },
                            {
                                "name": "value",
                                "type": "uint256",
                                "value": "1,988,308,165"
                            }
                        ],
                        "signature": "TokensBridgingInitiated(address,address,uint256,bytes32)"
                    },
                    "id": 12,
                    "logData": "0x0000000000000000000000000000000000000000000000000000000076832cc5",
                    "logDecoded": true,
                    "operation": "EVENT",
                    "revert": false,
                    "status": true,
                    "topics": [
                        "0x59a9a8027b9c87b961e254899821c9a276b5efc35d1f7409ea4f291470f1629a",
                        "0x000000000000000000000000a0b86991c6218b36c1d19d4a2e9eb0ce3606eb48",
                        "0x00000000000000000000000049d1e6bce3874b071291a32ecbc977b4a0f22755",
                        "0x00050000809822368a3e57b54d6426d420b1294d3262f4f5000000000001bb6b"
                    ]
                },
                "nodeType": 1
            },
            "2": {
                "invocation": {
                    "address": "0xa0b86991c6218b36c1d19d4a2e9eb0ce3606eb48",
                    "callData": "0x0000000000000000000000001715a3e4a142d8b698131108995174f37aeba10d",
                    "decodedMethod": {
                        "callParams": [
                            {
                                "name": "account",
                                "type": "address",
                                "value": "0x1715a3e4a142d8b698131108995174f37aeba10d"
                            }
                        ],
                        "constructorArguments": "",
                        "name": "balanceOf",
                        "returnParams": [
                            {
                                "decimalAvailable": true,
                                "name": "",
                                "type": "uint256",
                                "value": "34,842,794,010,187"
                            }
                        ],
                        "signature": "balanceOf(address)"
                    },
                    "errorInfo": "",
                    "fromAddress": "0x1715a3e4a142d8b698131108995174f37aeba10d",
                    "gasUsed": 9815,
                    "id": 2,
                    "methodDecoded": true,
                    "operation": "STATICCALL",
                    "output": "0x00000000000000000000000000000000000000000000000000001fb0785c264b",
                    "revert": false,
                    "revertMessage": "",
                    "selector": "0x70a08231",
                    "status": true,
                    "value": "0"
                },
                "nodeType": 0
            },
            "3": {
                "invocation": {
                    "address": "0xa2327a938febf5fec13bacfb16ae10ecbc4cbdcf",
                    "callData": "0x0000000000000000000000001715a3e4a142d8b698131108995174f37aeba10d",
                    "decodedMethod": {
                        "callParams": [
                            {
                                "name": "account",
                                "type": "address",
                                "value": "0x1715a3e4a142d8b698131108995174f37aeba10d"
                            }
                        ],
                        "constructorArguments": "",
                        "name": "balanceOf",
                        "returnParams": [
                            {
                                "decimalAvailable": true,
                                "name": "",
                                "type": "uint256",
                                "value": "34,842,794,010,187"
                            }
                        ],
                        "signature": "balanceOf(address)"
                    },
                    "errorInfo": "",
                    "fromAddress": "0xa0b86991c6218b36c1d19d4a2e9eb0ce3606eb48",
                    "gasUsed": 2529,
                    "id": 3,
                    "methodDecoded": true,
                    "operation": "DELEGATECALL",
                    "output": "0x00000000000000000000000000000000000000000000000000001fb0785c264b",
                    "revert": false,
                    "revertMessage": "",
                    "selector": "0x70a08231",
                    "status": true,
                    "value": "0"
                },
                "nodeType": 0
            },
            "4": {
                "invocation": {
                    "address": "0xa0b86991c6218b36c1d19d4a2e9eb0ce3606eb48",
                    "callData": "0x00000000000000000000000049d1e6bce3874b071291a32ecbc977b4a0f227550000000000000000000000001715a3e4a142d8b698131108995174f37aeba10d0000000000000000000000000000000000000000000000000000000076832cc5",
                    "decodedMethod": {
                        "callParams": [
                            {
                                "name": "from",
                                "type": "address",
                                "value": "0x49d1e6bce3874b071291a32ecbc977b4a0f22755"
                            },
                            {
                                "name": "to",
                                "type": "address",
                                "value": "0x1715a3e4a142d8b698131108995174f37aeba10d"
                            },
                            {
                                "decimalAvailable": true,
                                "name": "value",
                                "type": "uint256",
                                "value": "1,988,308,165"
                            }
                        ],
                        "constructorArguments": "",
                        "name": "transferFrom",
                        "returnParams": [
                            {
                                "name": "",
                                "type": "bool",
                                "value": true
                            }
                        ],
                        "signature": "transferFrom(address,address,uint256)"
                    },
                    "errorInfo": "",
                    "fromAddress": "0x1715a3e4a142d8b698131108995174f37aeba10d",
                    "gasUsed": 24392,
                    "id": 4,
                    "methodDecoded": true,
                    "operation": "CALL",
                    "output": "0x0000000000000000000000000000000000000000000000000000000000000001",
                    "revert": false,
                    "revertMessage": "",
                    "selector": "0x23b872dd",
                    "status": true,
                    "value": "0"
                },
                "nodeType": 0
            },
            "5": {
                "invocation": {
                    "address": "0xa2327a938febf5fec13bacfb16ae10ecbc4cbdcf",
                    "callData": "0x00000000000000000000000049d1e6bce3874b071291a32ecbc977b4a0f227550000000000000000000000001715a3e4a142d8b698131108995174f37aeba10d0000000000000000000000000000000000000000000000000000000076832cc5",
                    "decodedMethod": {
                        "callParams": [
                            {
                                "name": "from",
                                "type": "address",
                                "value": "0x49d1e6bce3874b071291a32ecbc977b4a0f22755"
                            },
                            {
                                "name": "to",
                                "type": "address",
                                "value": "0x1715a3e4a142d8b698131108995174f37aeba10d"
                            },
                            {
                                "decimalAvailable": true,
                                "name": "value",
                                "type": "uint256",
                                "value": "1,988,308,165"
                            }
                        ],
                        "constructorArguments": "",
                        "name": "transferFrom",
                        "returnParams": [
                            {
                                "name": "",
                                "type": "bool",
                                "value": true
                            }
                        ],
                        "signature": "transferFrom(address,address,uint256)"
                    },
                    "errorInfo": "",
                    "fromAddress": "0xa0b86991c6218b36c1d19d4a2e9eb0ce3606eb48",
                    "gasUsed": 23597,
                    "id": 5,
                    "methodDecoded": true,
                    "operation": "DELEGATECALL",
                    "output": "0x0000000000000000000000000000000000000000000000000000000000000001",
                    "revert": false,
                    "revertMessage": "",
                    "selector": "0x23b872dd",
                    "status": true,
                    "value": "0"
                },
                "nodeType": 0
            },
            "6": {
                "event": {
                    "contract": "0xa0b86991c6218b36c1d19d4a2e9eb0ce3606eb48",
                    "decodedLog": {
                        "name": "Transfer",
                        "params": [
                            {
                                "name": "from",
                                "type": "address",
                                "value": "0x49d1e6bce3874b071291a32ecbc977b4a0f22755"
                            },
                            {
                                "name": "to",
                                "type": "address",
                                "value": "0x1715a3e4a142d8b698131108995174f37aeba10d"
                            },
                            {
                                "decimalAvailable": true,
                                "name": "value",
                                "type": "uint256",
                                "value": "1,988,308,165"
                            }
                        ],
                        "signature": "Transfer(address,address,uint256)"
                    },
                    "id": 6,
                    "logData": "0x0000000000000000000000000000000000000000000000000000000076832cc5",
                    "logDecoded": true,
                    "operation": "EVENT",
                    "revert": false,
                    "status": true,
                    "topics": [
                        "0xddf252ad1be2c89b69c2b068fc378daa952ba7f163c4a11628f55a4df523b3ef",
                        "0x00000000000000000000000049d1e6bce3874b071291a32ecbc977b4a0f22755",
                        "0x0000000000000000000000001715a3e4a142d8b698131108995174f37aeba10d"
                    ]
                },
                "nodeType": 1
            },
            "7": {
                "invocation": {
                    "address": "0xa0b86991c6218b36c1d19d4a2e9eb0ce3606eb48",
                    "callData": "0x0000000000000000000000001715a3e4a142d8b698131108995174f37aeba10d",
                    "decodedMethod": {
                        "callParams": [
                            {
                                "name": "account",
                                "type": "address",
                                "value": "0x1715a3e4a142d8b698131108995174f37aeba10d"
                            }
                        ],
                        "constructorArguments": "",
                        "name": "balanceOf",
                        "returnParams": [
                            {
                                "decimalAvailable": true,
                                "name": "",
                                "type": "uint256",
                                "value": "34,844,782,318,352"
                            }
                        ],
                        "signature": "balanceOf(address)"
                    },
                    "errorInfo": "",
                    "fromAddress": "0x1715a3e4a142d8b698131108995174f37aeba10d",
                    "gasUsed": 1315,
                    "id": 7,
                    "methodDecoded": true,
                    "operation": "STATICCALL",
                    "output": "0x00000000000000000000000000000000000000000000000000001fb0eedf5310",
                    "revert": false,
                    "revertMessage": "",
                    "selector": "0x70a08231",
                    "status": true,
                    "value": "0"
                },
                "nodeType": 0
            },
            "8": {
                "invocation": {
                    "address": "0xa2327a938febf5fec13bacfb16ae10ecbc4cbdcf",
                    "callData": "0x0000000000000000000000001715a3e4a142d8b698131108995174f37aeba10d",
                    "decodedMethod": {
                        "callParams": [
                            {
                                "name": "account",
                                "type": "address",
                                "value": "0x1715a3e4a142d8b698131108995174f37aeba10d"
                            }
                        ],
                        "constructorArguments": "",
                        "name": "balanceOf",
                        "returnParams": [
                            {
                                "decimalAvailable": true,
                                "name": "",
                                "type": "uint256",
                                "value": "34,844,782,318,352"
                            }
                        ],
                        "signature": "balanceOf(address)"
                    },
                    "errorInfo": "",
                    "fromAddress": "0xa0b86991c6218b36c1d19d4a2e9eb0ce3606eb48",
                    "gasUsed": 529,
                    "id": 8,
                    "methodDecoded": true,
                    "operation": "DELEGATECALL",
                    "output": "0x00000000000000000000000000000000000000000000000000001fb0eedf5310",
                    "revert": false,
                    "revertMessage": "",
                    "selector": "0x70a08231",
                    "status": true,
                    "value": "0"
                },
                "nodeType": 0
            },
            "9": {
                "invocation": {
                    "address": "0xd0764fae29e0a6a96ff685f71cfc685456d5636c",
                    "callData": "0x0000000000000000000000004fd0aaa7506f3d9cb8274bdb946ec42a1b8751ef000000000000000000000000000000000000000000000000000000000000006000000000000000000000000000000000000000000000000000000000001e84800000000000000000000000000000000000000000000000000000000000000064125e4cfb000000000000000000000000a0b86991c6218b36c1d19d4a2e9eb0ce3606eb4800000000000000000000000049d1e6bce3874b071291a32ecbc977b4a0f227550000000000000000000000000000000000000000000000000000000076832cc500000000000000000000000000000000000000000000000000000000",
                    "decodedMethod": {
                        "callParams": [
                            {
                                "name": "_contract",
                                "type": "address",
                                "value": "0x4fd0aaa7506f3d9cb8274bdb946ec42a1b8751ef"
                            },
                            {
                                "name": "_data",
                                "type": "bytes",
                                "value": "0x125e4cfb000000000000000000000000a0b86991c6218b36c1d19d4a2e9eb0ce3606eb4800000000000000000000000049d1e6bce3874b071291a32ecbc977b4a0f227550000000000000000000000000000000000000000000000000000000076832cc5"
                            },
                            {
                                "name": "_gas",
                                "type": "uint256",
                                "value": "2,000,000"
                            }
                        ],
                        "constructorArguments": "",
                        "name": "requireToPassMessage",
                        "returnParams": [
                            {
                                "name": "",
                                "type": "bytes32",
                                "value": "0x00050000809822368a3e57b54d6426d420b1294d3262f4f5000000000001bb6b"
                            }
                        ],
                        "signature": "requireToPassMessage(address,bytes,uint256)"
                    },
                    "errorInfo": "",
                    "fromAddress": "0x1715a3e4a142d8b698131108995174f37aeba10d",
                    "gasUsed": 31087,
                    "id": 9,
                    "methodDecoded": true,
                    "operation": "CALL",
                    "output": "0x00050000809822368a3e57b54d6426d420b1294d3262f4f5000000000001bb6b",
                    "revert": false,
                    "revertMessage": "",
                    "selector": "0xdc8601b3",
                    "status": true,
                    "value": "0"
                },
                "nodeType": 0
            }
        },
        "gasFlame": [
            {
                "children": [
                    {
                        "children": [
                            {
                                "children": [],
                                "depth": 0,
                                "name": "Initial Gas",
                                "value": 21976
                            },
                            {
                                "children": [
                                    {
                                        "children": [
                                            {
                                                "children": [
                                                    {
                                                        "children": [],
                                                        "depth": 3,
                                                        "name": "balanceOf",
                                                        "value": 2529
                                                    }
                                                ],
                                                "depth": 2,
                                                "name": "balanceOf",
                                                "value": 9815
                                            },
                                            {
                                                "children": [
                                                    {
                                                        "children": [],
                                                        "depth": 3,
                                                        "name": "transferFrom",
                                                        "value": 23597
                                                    }
                                                ],
                                                "depth": 2,
                                                "name": "transferFrom",
                                                "value": 24392
                                            },
                                            {
                                                "children": [
                                                    {
                                                        "children": [],
                                                        "depth": 3,
                                                        "name": "balanceOf",
                                                        "value": 529
                                                    }
                                                ],
                                                "depth": 2,
                                                "name": "balanceOf",
                                                "value": 1315
                                            },
                                            {
                                                "children": [
                                                    {
                                                        "children": [],
                                                        "depth": 3,
                                                        "name": "requireToPassMessage",
                                                        "value": 25839
                                                    }
                                                ],
                                                "depth": 2,
                                                "name": "requireToPassMessage",
                                                "value": 31087
                                            }
                                        ],
                                        "depth": 1,
                                        "name": "relayTokens",
                                        "value": 201980
                                    }
                                ],
                                "depth": 0,
                                "name": "Executed Gas",
                                "value": 207102
                            }
                        ],
                        "depth": -1,
                        "name": "Actual Gas Used",
                        "value": 199578
                    },
                    {
                        "children": [],
                        "depth": -1,
                        "name": "Refunded Gas",
                        "value": 29500
                    }
                ],
                "depth": -2,
                "name": "Total Gas",
                "value": 229078
            }
        ],
        "isConfirmed": true,
        "mainTrace": [
            {
                "children": [
                    {
                        "children": [
                            {
                                "children": [
                                    {
                                        "children": [
                                            {
                                                "children": [],
                                                "depth": 3,
                                                "id": 3,
                                                "order": 3
                                            }
                                        ],
                                        "depth": 2,
                                        "id": 2,
                                        "order": 2
                                    },
                                    {
                                        "children": [
                                            {
                                                "children": [
                                                    {
                                                        "children": [],
                                                        "depth": 4,
                                                        "id": 6,
                                                        "order": 6
                                                    }
                                                ],
                                                "depth": 3,
                                                "id": 5,
                                                "order": 5
                                            }
                                        ],
                                        "depth": 2,
                                        "id": 4,
                                        "order": 4
                                    },
                                    {
                                        "children": [
                                            {
                                                "children": [],
                                                "depth": 3,
                                                "id": 8,
                                                "order": 8
                                            }
                                        ],
                                        "depth": 2,
                                        "id": 7,
                                        "order": 7
                                    },
                                    {
                                        "children": [
                                            {
                                                "children": [
                                                    {
                                                        "children": [],
                                                        "depth": 4,
                                                        "id": 11,
                                                        "order": 11
                                                    }
                                                ],
                                                "depth": 3,
                                                "id": 10,
                                                "order": 10
                                            }
                                        ],
                                        "depth": 2,
                                        "id": 9,
                                        "order": 9
                                    },
                                    {
                                        "children": [],
                                        "depth": 2,
                                        "id": 12,
                                        "order": 12
                                    }
                                ],
                                "depth": 1,
                                "id": 1,
                                "order": 1
                            }
                        ],
                        "depth": 0,
                        "id": 0,
                        "order": 0
                    }
                ],
                "depth": -1,
                "id": -1,
                "order": -1
            }
        ],
        "mainTraceNodeCount": 13,
        "parentIdMap": {
            "0": -1,
            "1": 0,
            "10": 9,
            "11": 10,
            "12": 1,
            "2": 1,
            "3": 2,
            "4": 1,
            "5": 4,
            "6": 5,
            "7": 1,
            "8": 7,
            "9": 1
        },
        "tidyTrace": [
            {
                "children": [
                    {
                        "children": [
                            {
                                "children": [
                                    {
                                        "children": [
                                            {
                                                "children": [
                                                    {
                                                        "children": [],
                                                        "depth": 4,
                                                        "id": 6,
                                                        "order": 6
                                                    }
                                                ],
                                                "depth": 3,
                                                "id": 5,
                                                "order": 5
                                            }
                                        ],
                                        "depth": 2,
                                        "id": 4,
                                        "order": 4
                                    },
                                    {
                                        "children": [
                                            {
                                                "children": [
                                                    {
                                                        "children": [],
                                                        "depth": 4,
                                                        "id": 11,
                                                        "order": 11
                                                    }
                                                ],
                                                "depth": 3,
                                                "id": 10,
                                                "order": 10
                                            }
                                        ],
                                        "depth": 2,
                                        "id": 9,
                                        "order": 9
                                    },
                                    {
                                        "children": [],
                                        "depth": 2,
                                        "id": 12,
                                        "order": 12
                                    }
                                ],
                                "depth": 1,
                                "id": 1,
                                "order": 1
                            }
                        ],
                        "depth": 0,
                        "id": 0,
                        "order": 0
                    }
                ],
                "depth": -1,
                "id": -1,
                "order": -1
            }
        ],
        "tidyTraceNodeCount": 9
    },
    "state_change": {
        "stateChanges": [
            {
                "address": "0x1715a3e4a142d8b698131108995174f37aeba10d",
                "erc": "",
                "slots": [
                    {
                        "current": "0x000000000000000000000000000000000000000000000000000000f764d4bd09",
                        "key": "0x7cb7074d31947ffb59be13df5bc9184118c7206abeaa097ddd0c113aba7d1cc6",
                        "prev": "0x000000000000000000000000000000000000000000000000000000f6ee519044"
                    },
                    {
                        "current": "0x00000000000000000000000000000000000000000000000000001fb0eedf5310",
                        "key": "0x76ecfa7fbed0429da164c7e1c4f44da128bb51dc761005b5b0e414dd9d38da2e",
                        "prev": "0x00000000000000000000000000000000000000000000000000001fb0785c264b"
                    },
                    {
                        "current": "0x000000000000000000000000a0b86991c6218b36c1d19d4a2e9eb0ce3606eb48",
                        "key": "0x9d20fdae95c98d751200bb6504ec927eecc5b7a6b4a543c258dfd40675713795",
                        "prev": "0x0000000000000000000000000000000000000000000000000000000000000000"
                    },
                    {
                        "current": "0x00000000000000000000000049d1e6bce3874b071291a32ecbc977b4a0f22755",
                        "key": "0x365c2f412591c7e1273c78e3bd1dcf5538d89e52eb4565a345bde044cde5522a",
                        "prev": "0x0000000000000000000000000000000000000000000000000000000000000000"
                    },
                    {
                        "current": "0x0000000000000000000000000000000000000000000000000000000076832cc5",
                        "key": "0x8fd547d419893d7e2f73724e34b8ef478eb6163af3c08c50ce8bf6ce045a2228",
                        "prev": "0x0000000000000000000000000000000000000000000000000000000000000000"
                    }
                ],
                "storageVariables": [
                    {
                        "name": "uintStorage",
                        "type": "mapping(bytes32 => uint256)",
                        "value": {
                            "pairs": [
                                {
                                    "key": "0x3a221cbdd9ccbad4c125a176626f29a34c723a606c6aa559b7d6eb535ceb79d4",
                                    "value": {
                                        "current": "1062548585737",
                                        "prev": "1060560277572",
                                        "typeTag": 1
                                    }
                                },
                                {
                                    "key": "0xa65a1d44561299d420b285e3cff7d438862dfc2bd7b1fab99df3d8c31e5d3fe0",
                                    "value": {
                                        "current": "1988308165",
                                        "prev": "0",
                                        "typeTag": 1
                                    }
                                },
                                {
                                    "key": "0xec66f1906e7ebbfa6aa124b77331dcb4b9ce52a3084e0f7898f532df29e50af2",
                                    "value": {
                                        "current": "34844782318352",
                                        "prev": "34842794010187",
                                        "typeTag": 1
                                    }
                                }
                            ],
                            "typeTag": 4
                        }
                    },
                    {
                        "name": "addressStorage",
                        "type": "mapping(bytes32 => address)",
                        "value": {
                            "pairs": [
                                {
                                    "key": "0x042f1201cf448c2ffac0f770b3f45a63b4c85cf61633f045fe415338888b2af5",
                                    "value": {
                                        "current": "0x49d1e6bce3874b071291a32ecbc977b4a0f22755",
                                        "prev": "0x0000000000000000000000000000000000000000",
                                        "typeTag": 1
                                    }
                                },
                                {
                                    "key": "0xff7d16b9f4381d3dc087b1af7fd643397cd7c648f9c76263b0c7fbff945dc316",
                                    "value": {
                                        "current": "0xa0b86991c6218b36c1d19d4a2e9eb0ce3606eb48",
                                        "prev": "0x0000000000000000000000000000000000000000",
                                        "typeTag": 1
                                    }
                                }
                            ],
                            "typeTag": 4
                        }
                    }
                ]
            },
            {
                "address": "0xa0b86991c6218b36c1d19d4a2e9eb0ce3606eb48",
                "erc": "ERC-20",
                "slots": [
                    {
                        "current": "0x0000000000000000000000000000000000000000000000000000000000000000",
                        "key": "0x2cb3846df71e85b61253651a07ac5577705f738f3d0785bfcc9f64377147f99a",
                        "prev": "0x0000000000000000000000000000000000000000000000000000000076832cc5"
                    },
                    {
                        "current": "0x00000000000000000000000000000000000000000000000000001fb0eedf5310",
                        "key": "0xd792d42cb8c78a3f48dfab5653ab58302a95e298bd95f52e02fd0e88845d12c6",
                        "prev": "0x00000000000000000000000000000000000000000000000000001fb0785c264b"
                    },
                    {
                        "current": "0x0000000000000000000000000000000000000000000000000000000000000000",
                        "key": "0xfaad0311be30d6d8753e36d56edc69e60a0271fe28cdf13e515bda6ab444beb9",
                        "prev": "0x0000000000000000000000000000000000000000000000000000000076832cc5"
                    }
                ],
                "storageVariables": [
                    {
                        "name": "balances",
                        "type": "mapping(address => uint256)",
                        "value": {
                            "pairs": [
                                {
                                    "key": "0x1715a3e4a142d8b698131108995174f37aeba10d",
                                    "value": {
                                        "current": "34844782318352",
                                        "prev": "34842794010187",
                                        "typeTag": 1
                                    }
                                },
                                {
                                    "key": "0x49d1e6bce3874b071291a32ecbc977b4a0f22755",
                                    "value": {
                                        "current": "0",
                                        "prev": "1988308165",
                                        "typeTag": 1
                                    }
                                }
                            ],
                            "typeTag": 4
                        }
                    },
                    {
                        "name": "allowed",
                        "type": "mapping(address => mapping(address => uint256))",
                        "value": {
                            "pairs": [
                                {
                                    "key": "0x49d1e6bce3874b071291a32ecbc977b4a0f22755",
                                    "value": {
                                        "pairs": [
                                            {
                                                "key": "0x1715a3e4a142d8b698131108995174f37aeba10d",
                                                "value": {
                                                    "current": "0",
                                                    "prev": "1988308165",
                                                    "typeTag": 1
                                                }
                                            }
                                        ],
                                        "typeTag": 4
                                    }
                                }
                            ],
                            "typeTag": 4
                        }
                    }
                ]
            },
            {
                "address": "0xd0764fae29e0a6a96ff685f71cfc685456d5636c",
                "erc": "",
                "slots": [
                    {
                        "current": "0x000000000000000000000000000000000000000000000000000000000001bb6c",
                        "key": "0xa9b0f75b23e377b9b22d27feaca5d8a12329c0049ebce1dc695b905f3aa4cd00",
                        "prev": "0x000000000000000000000000000000000000000000000000000000000001bb6b"
                    }
                ],
                "storageVariables": []
            }
        ]
    }
}