{
    "balance_change": {
        "balanceChanges": [
            {
                "account": "0x62d63efdfdc7804666725f4cc8cb45c1a41a0809",
                "assets": [
                    {
                        "address": "0x92f419fb7a750aed295b0ddf536276bf5a40124f",
                        "amount": "41.107207523500935747",
                        "iconUrl": "",
                        "isERC1155": false,
                        "isERC721": false,
                        "sign": false,
                        "value": "1423.204268"
                    }
                ]
            },
            {
                "account": "0x3cc936b795a188f0e246cbb2d74c5bd190aecf18",
                "assets": [
                    {
                        "address": "0x92f419fb7a750aed295b0ddf536276bf5a40124f",
                        "amount": "41.107207523500935747",
                        "iconUrl": "",
                        "isERC1155": false,
                        "isERC721": false,
                        "sign": true,
                        "value": "1423.204268"
                    }
                ]
            }
        ]
    },
    "profile": {
        "basic_info": {
            "baseFee": "19.671009174",
            "blockNumber": 19605615,
            "callData": "0xa9059cbb0000000000000000000000003cc936b795a188f0e246cbb2d74c5bd190aecf180000000000000000000000000000000000000000000000023a7a23728289ca43",
            "debugEnable": true,
            "errorInfo": "",
            "eventCount": 1,
            "feeRecipient": "0x1f9090aae28b8a3dceadf281b0f12828e676c326",
            "formatValue": "0",
            "gasLimit": 82711,
            "gasPrice": "43",
            "gasUsed": 47039,
            "intTxnCount": 0,
            "internalRevert": false,
            "internalRevertMessage": "",
            "isContractCreation": false,
            "isFlashloan": false,
            "maxFee": "",
            "nonce": 53964,
            "overwritedBlockNumber": -1,
            "priorityFee": "",
            "receiver": "0x92f419fb7a750aed295b0ddf536276bf5a40124f",
            "revertMessage": "",
            "sender": "0x62d63efdfdc7804666725f4cc8cb45c1a41a0809",
            "simulationEnable": true,
            "sourceTxnHash": "0x9d97cbf23be6c3e4b1a9e2c3527462c93ae1c15c032f12c3c97330a02ee5ca72",
            "status": true,
            "timestamp": "2024-04-07T18:31:47Z",
            "transactionFee": "0.002022677",
            "txnHash": "0x9d97cbf23be6c3e4b1a9e2c3527462c93ae1c15c032f12c3c97330a02ee5ca72",
            "txnIndex": 17,
            "type": 0,
            "value": "0"
        },
        "fund_flow": [
            {
                "amount": "41.107207523500935747",
                "from": "0x62d63efdfdc7804666725f4cc8cb45c1a41a0809",
                "id": 1,
                "isERC1155": false,
                "isERC721": false,
                "isReverted": false,
                "order": 1,
                "to": "0x3cc936b795a188f0e246cbb2d74c5bd190aecf18",
                "token": "0x92f419fb7a750aed295b0ddf536276bf5a40124f"
            }
        ],
        "token_infos": [
            {
                "address": "0x92f419fb7a750aed295b0ddf536276bf5a40124f",
                "decimals": 18
            },
            {
                "address": "0xc02aaa39b223fe8d0a0e5c4f27ead9083c756cc2",
                "decimals": 18
            },
            {
                "address": "0xeeeeeeeeeeeeeeeeeeeeeeeeeeeeeeeeeeeeeeee",
                "decimals": 18
            }
        ]
    },
    "address_label": {
        "labels": [
            {
                "address": "0xeeeeeeeeeeeeeeeeeeeeeeeeeeeeeeeeeeeeeeee",
                "label": "Ether"
            },
            {
                "address": "0x3cc936b795a188f0e246cbb2d74c5bd190aecf18",
                "label": "MEXC 3"
            },
            {
                "address": "0x92f419fb7a750aed295b0ddf536276bf5a40124f",
                "label": "Ta\u03c4su: TATSU Token"
            },
            {
                "address": "0x0000000000000000000000000000000000000001",
                "label": "Precompiled"
            },
            {
                "address": "0x0000000000000000000000000000000000000002",
                "label": "Precompiled"
            },
            {
                "address": "0x0000000000000000000000000000000000000003",
                "label": "Precompiled"
            },
            {
                "address": "0x0000000000000000000000000000000000000004",
                "label": "Precompiled"
            }
        ]
    },
    "trace": {
        "accountLabels": null,
        "dataMap": {
            "-1": {
                "invocation": {
                    "address": "0x62d63efdfdc7804666725f4cc8cb45c1a41a0809",
                    "callData": "",
                    "decodedMethod": null,
                    "errorInfo": "",
                    "fromAddress": "",
                    "gasUsed": 0,
                    "id": -1,
                    "methodDecoded": false,
                    "operation": "",
                    "output": "",
                    "revert": false,
                    "revertMessage": "",
                    "selector": "",
                    "status": false,
                    "value": ""
                },
                "nodeType": 0
            },
            "0": {
                "invocation": {
                    "address": "0x92f419fb7a750aed295b0ddf536276bf5a40124f",
                    "callData": "0x0000000000000000000000003cc936b795a188f0e246cbb2d74c5bd190aecf180000000000000000000000000000000000000000000000023a7a23728289ca43",
                    "decodedMethod": {
                        "callParams": [
                            {
                                "name": "to",
                                "type": "address",
                                "value": "0x3cc936b795a188f0e246cbb2d74c5bd190aecf18"
                            },
                            {
                                "decimalAvailable": true,
                                "name": "value",
                                "type": "uint256",
                                "value": "41,107,207,523,500,935,747"
                            }
                        ],
                        "constructorArguments": "",
                        "name": "transfer",
                        "returnParams": [
                            {
                                "name": "",
                                "type": "bool",
                                "value": true
                            }
                        ],
                        "signature": "transfer(address,uint256)"
                    },
                    "errorInfo": "",
                    "fromAddress": "0x62d63efdfdc7804666725f4cc8cb45c1a41a0809",
                    "gasUsed": 47039,
                    "id": 0,
                    "methodDecoded": true,
                    "operation": "CALL",
                    "output": "0x0000000000000000000000000000000000000000000000000000000000000001",
                    "revert": false,
                    "revertMessage": "",
                    "selector": "0xa9059cbb",
                    "status": true,
                    "value": "0"
                },
                "nodeType": 0
            },
            "1": {
                "event": {
                    "contract": "0x92f419fb7a750aed295b0ddf536276bf5a40124f",
                    "decodedLog": {
                        "name": "Transfer",
                        "params": [
                            {
                                "name": "from",
                                "type": "address",
                                "value": "0x62d63efdfdc7804666725f4cc8cb45c1a41a0809"
                            },
                            {
                                "name": "to",
                                "type": "address",
                                "value": "0x3cc936b795a188f0e246cbb2d74c5bd190aecf18"
                            },
                            {
                                "decimalAvailable": true,
                                "name": "value",
                                "type": "uint256",
                                "value": "41,107,207,523,500,935,747"
                            }
                        ],
                        "signature": "Transfer(address,address,uint256)"
                    },
                    "id": 1,
                    "logData": "0x0000000000000000000000000000000000000000000000023a7a23728289ca43",
                    "logDecoded": true,
                    "operation": "EVENT",
                    "revert": false,
                    "status": true,
                    "topics": [
                        "0xddf252ad1be2c89b69c2b068fc378daa952ba7f163c4a11628f55a4df523b3ef",
                        "0x00000000000000000000000062d63efdfdc7804666725f4cc8cb45c1a41a0809",
                        "0x0000000000000000000000003cc936b795a188f0e246cbb2d74c5bd190aecf18"
                    ]
                },
                "nodeType": 1
            }
        },
        "gasFlame": [
            {
                "children": [
                    {
                        "children": [
                            {
                                "children": [],
                                "depth": 0,
                                "name": "Initial Gas",
                                "value": 21668
                            },
                            {
                                "children": [],
                                "depth": 0,
                                "name": "Executed Gas",
                                "value": 32971
                            }
                        ],
                        "depth": -1,
                        "name": "Actual Gas Used",
                        "value": 47039
                    },
                    {
                        "children": [],
                        "depth": -1,
                        "name": "Refunded Gas",
                        "value": 7600
                    }
                ],
                "depth": -2,
                "name": "Total Gas",
                "value": 54639
            }
        ],
        "isConfirmed": true,
        "mainTrace": [
            {
                "children": [
                    {
                        "children": [
                            {
                                "children": [],
                                "depth": 1,
                                "id": 1,
                                "order": 1
                            }
                        ],
                        "depth": 0,
                        "id": 0,
                        "order": 0
                    }
                ],
                "depth": -1,
                "id": -1,
                "order": -1
            }
        ],
        "mainTraceNodeCount": 2,
        "parentIdMap": {
            "0": -1,
            "1": 0
        },
        "tidyTrace": [
            {
                "children": [
                    {
                        "children": [
                            {
                                "children": [],
                                "depth": 1,
                                "id": 1,
                                "order": 1
                            }
                        ],
                        "depth": 0,
                        "id": 0,
                        "order": 0
                    }
                ],
                "depth": -1,
                "id": -1,
                "order": -1
            }
        ],
        "tidyTraceNodeCount": 2
    },
    "state_change": {
        "stateChanges": [
            {
                "address": "0x92f419fb7a750aed295b0ddf536276bf5a40124f",
                "erc": "ERC-20",
                "slots": [
                    {
                        "current": "0x0000000000000000000000000000000000000000000000000000000000000000",
                        "key": "0xff493687dcc2bd0bff1a9bc18370b025bb98b610e8e5dbc0b96f24d3594437aa",
                        "prev": "0x0000000000000000000000000000000000000000000000023a7a23728289ca43"
                    },
                    {
                        "current": "0x0000000000000000000000000000000000000000000018d7378b8cfc589ad4f0",
                        "key": "0x4607078311849528faaa44d104d98b4d71f7b8064f38cc86f59c49d1fb6627d3",
                        "prev": "0x0000000000000000000000000000000000000000000018d4fd116989d6110aad"
                    }
                ],
                "storageVariables": [
                    {
                        "name": "_balances",
                        "type": "mapping(address => uint256)",
                        "value": {
                            "pairs": [
                                {
                                    "key": "0x3cc936b795a188f0e246cbb2d74c5bd190aecf18",
                                    "value": {
                                        "current": "117306848012428333733104",
                                        "prev": "117265740804904832797357",
                                        "typeTag": 1
                                    }
                                },
                                {
                                    "key": "0x62d63efdfdc7804666725f4cc8cb45c1a41a0809",
                                    "value": {
                                        "current": "0",
                                        "prev": "41107207523500935747",
                                        "typeTag": 1
                                    }
                                }
                            ],
                            "typeTag": 4
                        }
                    }
                ]
            }
        ]
    }
}