{
    "balance_change": {
        "balanceChanges": [
            {
                "account": "0x675174aaae082fb2615c0b3989f3dd86714454ae",
                "assets": [
                    {
                        "address": "0xeeeeeeeeeeeeeeeeeeeeeeeeeeeeeeeeeeeeeeee",
                        "amount": "0.07567007845792345",
                        "iconUrl": "https://assets.blocksec.com/image/1663669189317-3.png",
                        "isERC1155": false,
                        "isERC721": false,
                        "sign": false,
                        "value": "94.97729897906900688"
                    },
                    {
                        "address": "0xaa0c5b3567fd1bac8a2a11eb16c3f81a49eea90f",
                        "amount": "311,792.8909368",
                        "iconUrl": "",
                        "isERC1155": false,
                        "isERC721": false,
                        "sign": true,
                        "value": "88.43923966"
                    }
                ]
            },
            {
                "account": "0x27eb76bb1c63d7abd24a5b14da7426737c8477cd",
                "assets": [
                    {
                        "address": "0xc02aaa39b223fe8d0a0e5c4f27ead9083c756cc2",
                        "amount": "0.074913377673344216",
                        "iconUrl": "https://assets.blocksec.com/icon/f1cb2d02c471d545bbc7722daf3277fd852d98e63d118771af7047bd8256c516.png",
                        "isERC1155": false,
                        "isERC721": false,
                        "sign": true,
                        "value": "94.027525982500506814"
                    },
                    {
                        "address": "0xaa0c5b3567fd1bac8a2a11eb16c3f81a49eea90f",
                        "amount": "328,203.0430913",
                        "iconUrl": "",
                        "isERC1155": false,
                        "isERC721": false,
                        "sign": false,
                        "value": "93.11285688"
                    }
                ]
            },
            {
                "account": "0x382ffce2287252f930e1c8dc9328dac5bf282ba1",
                "assets": [
                    {
                        "address": "0xeeeeeeeeeeeeeeeeeeeeeeeeeeeeeeeeeeeeeeee",
                        "amount": "0.000756700784579234",
                        "iconUrl": "https://assets.blocksec.com/image/1663669189317-3.png",
                        "isERC1155": false,
                        "isERC721": false,
                        "sign": true,
                        "value": "0.9497729897906900688"
                    }
                ]
            },
            {
                "account": "0xaa0c5b3567fd1bac8a2a11eb16c3f81a49eea90f",
                "assets": [
                    {
                        "address": "0xaa0c5b3567fd1bac8a2a11eb16c3f81a49eea90f",
                        "amount": "16,410.1521545",
                        "iconUrl": "",
                        "isERC1155": false,
                        "isERC721": false,
                        "sign": true,
                        "value": "4.6551576"
                    }
                ]
            },
            {
                "account": "0xc02aaa39b223fe8d0a0e5c4f27ead9083c756cc2",
                "assets": [
                    {
                        "address": "0xeeeeeeeeeeeeeeeeeeeeeeeeeeeeeeeeeeeeeeee",
                        "amount": "0.074913377673344216",
                        "iconUrl": "https://assets.blocksec.com/image/1663669189317-3.png",
                        "isERC1155": false,
                        "isERC721": false,
                        "sign": true,
                        "value": "94.027525982500506814"
                    },
                    {
                        "address": "0xc02aaa39b223fe8d0a0e5c4f27ead9083c756cc2",
                        "amount": "0.074913377673344216",
                        "iconUrl": "https://assets.blocksec.com/icon/f1cb2d02c471d545bbc7722daf3277fd852d98e63d118771af7047bd8256c516.png",
                        "isERC1155": false,
                        "isERC721": false,
                        "sign": false,
                        "value": "94.027525982500506814"
                    }
                ]
            }
        ]
    },
    "profile": {
        "basic_info": {
            "baseFee": "14.979813907",
            "blockNumber": 16120748,
            "callData": "0x5cf5402600000000000000000000000000000000000000000000000000000000000000c0000000000000000000000000eeeeeeeeeeeeeeeeeeeeeeeeeeeeeeeeeeeeeeee000000000000000000000000eeeeeeeeeeeeeeeeeeeeeeeeeeeeeeeeeeeeeeee000000000000000000000000000000000000000000000000010a2551f124f4d8000000000000000000000000aa0c5b3567fd1bac8a2a11eb16c3f81a49eea90f0000000000000000000000000000000000000000000000000002b037217752a20000000000000000000000000000000000000000000000000000000000000128d9627aa40000000000000000000000000000000000000000000000000000000000000080000000000000000000000000000000000000000000000000010a2551f124f4d8000000000000000000000000000000000000000000000000000002e53b87bda100000000000000000000000000000000000000000000000000000000000000000000000000000000000000000000000000000000000000000000000000000002000000000000000000000000eeeeeeeeeeeeeeeeeeeeeeeeeeeeeeeeeeeeeeee000000000000000000000000aa0c5b3567fd1bac8a2a11eb16c3f81a49eea90f869584cd000000000000000000000000382ffce2287252f930e1c8dc9328dac5bf282ba100000000000000000000000000000000000000000000001452ae46b8638e49de000000000000000000000000000000000000000000000000",
            "debugEnable": true,
            "errorInfo": "",
            "eventCount": 7,
            "feeRecipient": "0xe688b84b23f322a994a53dbf8e15fa82cdb71127",
            "formatValue": "0.07567007845792345",
            "gasLimit": 314664,
            "gasPrice": "16.979813907",
            "gasUsed": 235831,
            "intTxnCount": 14,
            "internalRevert": false,
            "internalRevertMessage": "",
            "isContractCreation": false,
            "isFlashloan": false,
            "maxFee": "21",
            "nonce": 46,
            "overwritedBlockNumber": -1,
            "priorityFee": "2",
            "receiver": "0xe66b31678d6c16e9ebf358268a790b763c133750",
            "revertMessage": "",
            "sender": "0x675174aaae082fb2615c0b3989f3dd86714454ae",
            "simulationEnable": true,
            "sourceTxnHash": "0x9d8fd850cbc4873269dacaa2ea38ce119ea73a31ae6b80a682abf37acb37250e",
            "status": true,
            "timestamp": "2022-12-05T19:43:35Z",
            "transactionFee": "0.004004366493501717",
            "txnHash": "0x9d8fd850cbc4873269dacaa2ea38ce119ea73a31ae6b80a682abf37acb37250e",
            "txnIndex": 75,
            "type": 2,
            "value": "75670078457923450"
        },
        "fund_flow": [
            {
                "amount": "0.07567007845792345",
                "from": "0x675174aaae082fb2615c0b3989f3dd86714454ae",
                "id": 1,
                "isERC1155": false,
                "isERC721": false,
                "isReverted": false,
                "order": 1,
                "to": "0xe66b31678d6c16e9ebf358268a790b763c133750",
                "token": "0xeeeeeeeeeeeeeeeeeeeeeeeeeeeeeeeeeeeeeeee"
            },
            {
                "amount": "0.000756700784579234",
                "from": "0xe66b31678d6c16e9ebf358268a790b763c133750",
                "id": 2,
                "isERC1155": false,
                "isERC721": false,
                "isReverted": false,
                "order": 2,
                "to": "0x382ffce2287252f930e1c8dc9328dac5bf282ba1",
                "token": "0xeeeeeeeeeeeeeeeeeeeeeeeeeeeeeeeeeeeeeeee"
            },
            {
                "amount": "0.074913377673344216",
                "from": "0xe66b31678d6c16e9ebf358268a790b763c133750",
                "id": 3,
                "isERC1155": false,
                "isERC721": false,
                "isReverted": false,
                "order": 3,
                "to": "0xdef1c0ded9bec7f1a1670819833240f027b25eff",
                "token": "0xeeeeeeeeeeeeeeeeeeeeeeeeeeeeeeeeeeeeeeee"
            },
            {
                "amount": "0.074913377673344216",
                "from": "0xdef1c0ded9bec7f1a1670819833240f027b25eff",
                "id": 4,
                "isERC1155": false,
                "isERC721": false,
                "isReverted": false,
                "order": 4,
                "to": "0xc02aaa39b223fe8d0a0e5c4f27ead9083c756cc2",
                "token": "0xeeeeeeeeeeeeeeeeeeeeeeeeeeeeeeeeeeeeeeee"
            },
            {
                "amount": "0.074913377673344216",
                "from": "0xc02aaa39b223fe8d0a0e5c4f27ead9083c756cc2",
                "id": 5,
                "isERC1155": false,
                "isERC721": false,
                "isReverted": false,
                "order": 5,
                "to": "0xdef1c0ded9bec7f1a1670819833240f027b25eff",
                "token": "0xc02aaa39b223fe8d0a0e5c4f27ead9083c756cc2"
            },
            {
                "amount": "0.074913377673344216",
                "from": "0xdef1c0ded9bec7f1a1670819833240f027b25eff",
                "id": 6,
                "isERC1155": false,
                "isERC721": false,
                "isReverted": false,
                "order": 6,
                "to": "0x27eb76bb1c63d7abd24a5b14da7426737c8477cd",
                "token": "0xc02aaa39b223fe8d0a0e5c4f27ead9083c756cc2"
            },
            {
                "amount": "311,792.8909368",
                "from": "0x27eb76bb1c63d7abd24a5b14da7426737c8477cd",
                "id": 7,
                "isERC1155": false,
                "isERC721": false,
                "isReverted": false,
                "order": 7,
                "to": "0xe66b31678d6c16e9ebf358268a790b763c133750",
                "token": "0xaa0c5b3567fd1bac8a2a11eb16c3f81a49eea90f"
            },
            {
                "amount": "16,410.1521545",
                "from": "0x27eb76bb1c63d7abd24a5b14da7426737c8477cd",
                "id": 8,
                "isERC1155": false,
                "isERC721": false,
                "isReverted": false,
                "order": 8,
                "to": "0xaa0c5b3567fd1bac8a2a11eb16c3f81a49eea90f",
                "token": "0xaa0c5b3567fd1bac8a2a11eb16c3f81a49eea90f"
            },
            {
                "amount": "311,792.8909368",
                "from": "0xe66b31678d6c16e9ebf358268a790b763c133750",
                "id": 9,
                "isERC1155": false,
                "isERC721": false,
                "isReverted": false,
                "order": 9,
                "to": "0x675174aaae082fb2615c0b3989f3dd86714454ae",
                "token": "0xaa0c5b3567fd1bac8a2a11eb16c3f81a49eea90f"
            }
        ],
        "token_infos": [
            {
                "address": "0xaa0c5b3567fd1bac8a2a11eb16c3f81a49eea90f",
                "decimals": 7
            },
            {
                "address": "0xc02aaa39b223fe8d0a0e5c4f27ead9083c756cc2",
                "decimals": 18
            },
            {
                "address": "0xeeeeeeeeeeeeeeeeeeeeeeeeeeeeeeeeeeeeeeee",
                "decimals": 18
            }
        ]
    },
    "address_label": {
        "labels": [
            {
                "address": "0xaa0c5b3567fd1bac8a2a11eb16c3f81a49eea90f",
                "label": "MetamonkeyAi (MMAI)"
            },
            {
                "address": "0x0000000000000000000000000000000000000004",
                "label": "Precompiled"
            },
            {
                "address": "0xeeeeeeeeeeeeeeeeeeeeeeeeeeeeeeeeeeeeeeee",
                "label": "Ether"
            },
            {
                "address": "0x382ffce2287252f930e1c8dc9328dac5bf282ba1",
                "label": "Coinbase Fees"
            },
            {
                "address": "0x27eb76bb1c63d7abd24a5b14da7426737c8477cd",
                "label": "Uniswap V2: MMAI 7"
            },
            {
                "address": "0xc02aaa39b223fe8d0a0e5c4f27ead9083c756cc2",
                "label": "Wrapped Ether (WETH)"
            },
            {
                "address": "0xe66b31678d6c16e9ebf358268a790b763c133750",
                "label": "0x: Coinbase Wallet Proxy"
            },
            {
                "address": "0xdef1c0ded9bec7f1a1670819833240f027b25eff",
                "label": "0x: Exchange Proxy"
            },
            {
                "address": "0xf9b30557afcf76ea82c04015d80057fa2147dfa9",
                "label": "UniswapFeature"
            },
            {
                "address": "0x0000000000000000000000000000000000000001",
                "label": "Precompiled"
            },
            {
                "address": "0x0000000000000000000000000000000000000002",
                "label": "Precompiled"
            },
            {
                "address": "0x0000000000000000000000000000000000000003",
                "label": "Precompiled"
            }
        ]
    },
    "trace": {
        "accountLabels": null,
        "dataMap": {
            "-1": {
                "invocation": {
                    "address": "0x675174aaae082fb2615c0b3989f3dd86714454ae",
                    "callData": "",
                    "decodedMethod": null,
                    "errorInfo": "",
                    "fromAddress": "",
                    "gasUsed": 0,
                    "id": -1,
                    "methodDecoded": false,
                    "operation": "",
                    "output": "",
                    "revert": false,
                    "revertMessage": "",
                    "selector": "",
                    "status": false,
                    "value": ""
                },
                "nodeType": 0
            },
            "0": {
                "invocation": {
                    "address": "0xe66b31678d6c16e9ebf358268a790b763c133750",
                    "callData": "0x00000000000000000000000000000000000000000000000000000000000000c0000000000000000000000000eeeeeeeeeeeeeeeeeeeeeeeeeeeeeeeeeeeeeeee000000000000000000000000eeeeeeeeeeeeeeeeeeeeeeeeeeeeeeeeeeeeeeee000000000000000000000000000000000000000000000000010a2551f124f4d8000000000000000000000000aa0c5b3567fd1bac8a2a11eb16c3f81a49eea90f0000000000000000000000000000000000000000000000000002b037217752a20000000000000000000000000000000000000000000000000000000000000128d9627aa40000000000000000000000000000000000000000000000000000000000000080000000000000000000000000000000000000000000000000010a2551f124f4d8000000000000000000000000000000000000000000000000000002e53b87bda100000000000000000000000000000000000000000000000000000000000000000000000000000000000000000000000000000000000000000000000000000002000000000000000000000000eeeeeeeeeeeeeeeeeeeeeeeeeeeeeeeeeeeeeeee000000000000000000000000aa0c5b3567fd1bac8a2a11eb16c3f81a49eea90f869584cd000000000000000000000000382ffce2287252f930e1c8dc9328dac5bf282ba100000000000000000000000000000000000000000000001452ae46b8638e49de000000000000000000000000000000000000000000000000",
                    "decodedMethod": null,
                    "errorInfo": "",
                    "fromAddress": "0x675174aaae082fb2615c0b3989f3dd86714454ae",
                    "gasUsed": 235831,
                    "id": 0,
                    "methodDecoded": false,
                    "operation": "CALL",
                    "output": "0x000000000000000000000000000000000000000000000000000002fc28420ac1",
                    "revert": false,
                    "revertMessage": "",
                    "selector": "0x5cf54026",
                    "status": true,
                    "value": "0.07567007845792345"
                },
                "nodeType": 0
            },
            "1": {
                "invocation": {
                    "address": "0x382ffce2287252f930e1c8dc9328dac5bf282ba1",
                    "callData": "0x",
                    "decodedMethod": null,
                    "errorInfo": "",
                    "fromAddress": "0xe66b31678d6c16e9ebf358268a790b763c133750",
                    "gasUsed": 0,
                    "id": 1,
                    "methodDecoded": false,
                    "operation": "CALL",
                    "output": "",
                    "revert": false,
                    "revertMessage": "",
                    "selector": "fallback",
                    "status": true,
                    "value": "0.000756700784579234"
                },
                "nodeType": 0
            },
            "10": {
                "invocation": {
                    "address": "0xaa0c5b3567fd1bac8a2a11eb16c3f81a49eea90f",
                    "callData": "0x000000000000000000000000e66b31678d6c16e9ebf358268a790b763c133750000000000000000000000000000000000000000000000000000002fc28420ac1",
                    "decodedMethod": {
                        "callParams": [
                            {
                                "name": "to",
                                "type": "address",
                                "value": "0xe66b31678d6c16e9ebf358268a790b763c133750"
                            },
                            {
                                "decimalAvailable": true,
                                "name": "amount",
                                "type": "uint256",
                                "value": "3,282,030,430,913"
                            }
                        ],
                        "constructorArguments": "",
                        "name": "transfer",
                        "returnParams": [
                            {
                                "name": "",
                                "type": "bool",
                                "value": true
                            }
                        ],
                        "signature": "transfer(address,uint256)"
                    },
                    "errorInfo": "",
                    "fromAddress": "0x27eb76bb1c63d7abd24a5b14da7426737c8477cd",
                    "gasUsed": 138941,
                    "id": 10,
                    "methodDecoded": true,
                    "operation": "CALL",
                    "output": "0x0000000000000000000000000000000000000000000000000000000000000001",
                    "revert": false,
                    "revertMessage": "",
                    "selector": "0xa9059cbb",
                    "status": true,
                    "value": "0"
                },
                "nodeType": 0
            },
            "11": {
                "invocation": {
                    "address": "0x27eb76bb1c63d7abd24a5b14da7426737c8477cd",
                    "callData": "0x",
                    "decodedMethod": {
                        "callParams": [],
                        "constructorArguments": "",
                        "name": "getReserves",
                        "returnParams": [
                            {
                                "name": "_reserve0",
                                "type": "uint112",
                                "value": "33,056,205,307,870,170"
                            },
                            {
                                "name": "_reserve1",
                                "type": "uint112",
                                "value": "752,180,047,772,909,200,646"
                            },
                            {
                                "name": "_blockTimestampLast",
                                "type": "uint32",
                                "value": "1,670,268,095"
                            }
                        ],
                        "signature": "getReserves()"
                    },
                    "errorInfo": "",
                    "fromAddress": "0xaa0c5b3567fd1bac8a2a11eb16c3f81a49eea90f",
                    "gasUsed": 504,
                    "id": 11,
                    "methodDecoded": true,
                    "operation": "STATICCALL",
                    "output": "0x000000000000000000000000000000000000000000000000007570718eff7bda000000000000000000000000000000000000000000000028c698583a909a650600000000000000000000000000000000000000000000000000000000638e44bf",
                    "revert": false,
                    "revertMessage": "",
                    "selector": "0x0902f1ac",
                    "status": true,
                    "value": "0"
                },
                "nodeType": 0
            },
            "12": {
                "event": {
                    "contract": "0xaa0c5b3567fd1bac8a2a11eb16c3f81a49eea90f",
                    "decodedLog": {
                        "name": "Transfer",
                        "params": [
                            {
                                "name": "from",
                                "type": "address",
                                "value": "0x27eb76bb1c63d7abd24a5b14da7426737c8477cd"
                            },
                            {
                                "name": "to",
                                "type": "address",
                                "value": "0xe66b31678d6c16e9ebf358268a790b763c133750"
                            },
                            {
                                "decimalAvailable": true,
                                "name": "value",
                                "type": "uint256",
                                "value": "3,117,928,909,368"
                            }
                        ],
                        "signature": "Transfer(address,address,uint256)"
                    },
                    "id": 12,
                    "logData": "0x000000000000000000000000000000000000000000000000000002d5f30b8a38",
                    "logDecoded": true,
                    "operation": "EVENT",
                    "revert": false,
                    "status": true,
                    "topics": [
                        "0xddf252ad1be2c89b69c2b068fc378daa952ba7f163c4a11628f55a4df523b3ef",
                        "0x00000000000000000000000027eb76bb1c63d7abd24a5b14da7426737c8477cd",
                        "0x000000000000000000000000e66b31678d6c16e9ebf358268a790b763c133750"
                    ]
                },
                "nodeType": 1
            },
            "13": {
                "event": {
                    "contract": "0xaa0c5b3567fd1bac8a2a11eb16c3f81a49eea90f",
                    "decodedLog": {
                        "name": "Transfer",
                        "params": [
                            {
                                "name": "from",
                                "type": "address",
                                "value": "0x27eb76bb1c63d7abd24a5b14da7426737c8477cd"
                            },
                            {
                                "name": "to",
                                "type": "address",
                                "value": "0xaa0c5b3567fd1bac8a2a11eb16c3f81a49eea90f"
                            },
                            {
                                "decimalAvailable": true,
                                "name": "value",
                                "type": "uint256",
                                "value": "164,101,521,545"
                            }
                        ],
                        "signature": "Transfer(address,address,uint256)"
                    },
                    "id": 13,
                    "logData": "0x0000000000000000000000000000000000000000000000000000002635368089",
                    "logDecoded": true,
                    "operation": "EVENT",
                    "revert": false,
                    "status": true,
                    "topics": [
                        "0xddf252ad1be2c89b69c2b068fc378daa952ba7f163c4a11628f55a4df523b3ef",
                        "0x00000000000000000000000027eb76bb1c63d7abd24a5b14da7426737c8477cd",
                        "0x000000000000000000000000aa0c5b3567fd1bac8a2a11eb16c3f81a49eea90f"
                    ]
                },
                "nodeType": 1
            },
            "14": {
                "invocation": {
                    "address": "0xaa0c5b3567fd1bac8a2a11eb16c3f81a49eea90f",
                    "callData": "0x00000000000000000000000027eb76bb1c63d7abd24a5b14da7426737c8477cd",
                    "decodedMethod": {
                        "callParams": [
                            {
                                "name": "account",
                                "type": "address",
                                "value": "0x27eb76bb1c63d7abd24a5b14da7426737c8477cd"
                            }
                        ],
                        "constructorArguments": "",
                        "name": "balanceOf",
                        "returnParams": [
                            {
                                "decimalAvailable": true,
                                "name": "",
                                "type": "uint256",
                                "value": "33,052,923,277,439,257"
                            }
                        ],
                        "signature": "balanceOf(address)"
                    },
                    "errorInfo": "",
                    "fromAddress": "0x27eb76bb1c63d7abd24a5b14da7426737c8477cd",
                    "gasUsed": 894,
                    "id": 14,
                    "methodDecoded": true,
                    "operation": "STATICCALL",
                    "output": "0x00000000000000000000000000000000000000000000000000756d7566bd7119",
                    "revert": false,
                    "revertMessage": "",
                    "selector": "0x70a08231",
                    "status": true,
                    "value": "0"
                },
                "nodeType": 0
            },
            "15": {
                "invocation": {
                    "address": "0xc02aaa39b223fe8d0a0e5c4f27ead9083c756cc2",
                    "callData": "0x00000000000000000000000027eb76bb1c63d7abd24a5b14da7426737c8477cd",
                    "decodedMethod": {
                        "callParams": [
                            {
                                "name": "",
                                "type": "address",
                                "value": "0x27eb76bb1c63d7abd24a5b14da7426737c8477cd"
                            }
                        ],
                        "constructorArguments": "",
                        "name": "balanceOf",
                        "returnParams": [
                            {
                                "decimalAvailable": true,
                                "name": "",
                                "type": "uint256",
                                "value": "752,254,961,150,582,544,862"
                            }
                        ],
                        "signature": "balanceOf(address)"
                    },
                    "errorInfo": "",
                    "fromAddress": "0x27eb76bb1c63d7abd24a5b14da7426737c8477cd",
                    "gasUsed": 534,
                    "id": 15,
                    "methodDecoded": true,
                    "operation": "STATICCALL",
                    "output": "0x000000000000000000000000000000000000000000000028c7a27d8c81bf59de",
                    "revert": false,
                    "revertMessage": "",
                    "selector": "0x70a08231",
                    "status": true,
                    "value": "0"
                },
                "nodeType": 0
            },
            "16": {
                "event": {
                    "contract": "0x27eb76bb1c63d7abd24a5b14da7426737c8477cd",
                    "decodedLog": {
                        "name": "Sync",
                        "params": [
                            {
                                "name": "reserve0",
                                "type": "uint112",
                                "value": "33,052,923,277,439,257"
                            },
                            {
                                "name": "reserve1",
                                "type": "uint112",
                                "value": "752,254,961,150,582,544,862"
                            }
                        ],
                        "signature": "Sync(uint112,uint112)"
                    },
                    "id": 16,
                    "logData": "0x00000000000000000000000000000000000000000000000000756d7566bd7119000000000000000000000000000000000000000000000028c7a27d8c81bf59de",
                    "logDecoded": true,
                    "operation": "EVENT",
                    "revert": false,
                    "status": true,
                    "topics": [
                        "0x1c411e9a96e071241c2f21f7726b17ae89e3cab4c78be50e062b03a9fffbbad1"
                    ]
                },
                "nodeType": 1
            },
            "17": {
                "event": {
                    "contract": "0x27eb76bb1c63d7abd24a5b14da7426737c8477cd",
                    "decodedLog": {
                        "name": "Swap",
                        "params": [
                            {
                                "name": "sender",
                                "type": "address",
                                "value": "0xdef1c0ded9bec7f1a1670819833240f027b25eff"
                            },
                            {
                                "name": "to",
                                "type": "address",
                                "value": "0xe66b31678d6c16e9ebf358268a790b763c133750"
                            },
                            {
                                "name": "amount0In",
                                "type": "uint256",
                                "value": "0"
                            },
                            {
                                "name": "amount1In",
                                "type": "uint256",
                                "value": "74,913,377,673,344,216"
                            },
                            {
                                "name": "amount0Out",
                                "type": "uint256",
                                "value": "3,282,030,430,913"
                            },
                            {
                                "name": "amount1Out",
                                "type": "uint256",
                                "value": "0"
                            }
                        ],
                        "signature": "Swap(address,uint256,uint256,uint256,uint256,address)"
                    },
                    "id": 17,
                    "logData": "0x0000000000000000000000000000000000000000000000000000000000000000000000000000000000000000000000000000000000000000010a2551f124f4d8000000000000000000000000000000000000000000000000000002fc28420ac10000000000000000000000000000000000000000000000000000000000000000",
                    "logDecoded": true,
                    "operation": "EVENT",
                    "revert": false,
                    "status": true,
                    "topics": [
                        "0xd78ad95fa46c994b6551d0da85fc275fe613ce37657fb8d5e3d130840159d822",
                        "0x000000000000000000000000def1c0ded9bec7f1a1670819833240f027b25eff",
                        "0x000000000000000000000000e66b31678d6c16e9ebf358268a790b763c133750"
                    ]
                },
                "nodeType": 1
            },
            "18": {
                "invocation": {
                    "address": "0xaa0c5b3567fd1bac8a2a11eb16c3f81a49eea90f",
                    "callData": "0x000000000000000000000000e66b31678d6c16e9ebf358268a790b763c133750",
                    "decodedMethod": {
                        "callParams": [
                            {
                                "name": "account",
                                "type": "address",
                                "value": "0xe66b31678d6c16e9ebf358268a790b763c133750"
                            }
                        ],
                        "constructorArguments": "",
                        "name": "balanceOf",
                        "returnParams": [
                            {
                                "decimalAvailable": true,
                                "name": "",
                                "type": "uint256",
                                "value": "3,117,928,909,368"
                            }
                        ],
                        "signature": "balanceOf(address)"
                    },
                    "errorInfo": "",
                    "fromAddress": "0xe66b31678d6c16e9ebf358268a790b763c133750",
                    "gasUsed": 894,
                    "id": 18,
                    "methodDecoded": true,
                    "operation": "STATICCALL",
                    "output": "0x000000000000000000000000000000000000000000000000000002d5f30b8a38",
                    "revert": false,
                    "revertMessage": "",
                    "selector": "0x70a08231",
                    "status": true,
                    "value": "0"
                },
                "nodeType": 0
            },
            "19": {
                "invocation": {
                    "address": "0xaa0c5b3567fd1bac8a2a11eb16c3f81a49eea90f",
                    "callData": "0x000000000000000000000000675174aaae082fb2615c0b3989f3dd86714454ae000000000000000000000000000000000000000000000000000002d5f30b8a38",
                    "decodedMethod": {
                        "callParams": [
                            {
                                "name": "to",
                                "type": "address",
                                "value": "0x675174aaae082fb2615c0b3989f3dd86714454ae"
                            },
                            {
                                "decimalAvailable": true,
                                "name": "amount",
                                "type": "uint256",
                                "value": "3,117,928,909,368"
                            }
                        ],
                        "constructorArguments": "",
                        "name": "transfer",
                        "returnParams": [
                            {
                                "name": "",
                                "type": "bool",
                                "value": true
                            }
                        ],
                        "signature": "transfer(address,uint256)"
                    },
                    "errorInfo": "",
                    "fromAddress": "0xe66b31678d6c16e9ebf358268a790b763c133750",
                    "gasUsed": 29980,
                    "id": 19,
                    "methodDecoded": true,
                    "operation": "CALL",
                    "output": "0x0000000000000000000000000000000000000000000000000000000000000001",
                    "revert": false,
                    "revertMessage": "",
                    "selector": "0xa9059cbb",
                    "status": true,
                    "value": "0"
                },
                "nodeType": 0
            },
            "2": {
                "invocation": {
                    "address": "0xdef1c0ded9bec7f1a1670819833240f027b25eff",
                    "callData": "0x0000000000000000000000000000000000000000000000000000000000000080000000000000000000000000000000000000000000000000010a2551f124f4d8000000000000000000000000000000000000000000000000000002e53b87bda100000000000000000000000000000000000000000000000000000000000000000000000000000000000000000000000000000000000000000000000000000002000000000000000000000000eeeeeeeeeeeeeeeeeeeeeeeeeeeeeeeeeeeeeeee000000000000000000000000aa0c5b3567fd1bac8a2a11eb16c3f81a49eea90f869584cd000000000000000000000000382ffce2287252f930e1c8dc9328dac5bf282ba100000000000000000000000000000000000000000000001452ae46b8638e49de",
                    "decodedMethod": {
                        "callParams": [
                            {
                                "name": "tokens",
                                "type": "address[]",
                                "value": [
                                    "0xeeeeeeeeeeeeeeeeeeeeeeeeeeeeeeeeeeeeeeee",
                                    "0xaa0c5b3567fd1bac8a2a11eb16c3f81a49eea90f"
                                ]
                            },
                            {
                                "name": "sellAmount",
                                "type": "uint256",
                                "value": "74,913,377,673,344,216"
                            },
                            {
                                "name": "minBuyAmount",
                                "type": "uint256",
                                "value": "3,183,569,517,985"
                            },
                            {
                                "name": "isSushi",
                                "type": "bool",
                                "value": false
                            }
                        ],
                        "constructorArguments": "",
                        "name": "sellToUniswap",
                        "returnParams": [
                            {
                                "name": "buyAmount",
                                "type": "uint256",
                                "value": "3,282,030,430,913"
                            }
                        ],
                        "signature": "sellToUniswap(address[],uint256,uint256,bool)"
                    },
                    "errorInfo": "",
                    "fromAddress": "0xe66b31678d6c16e9ebf358268a790b763c133750",
                    "gasUsed": 212019,
                    "id": 2,
                    "methodDecoded": true,
                    "operation": "CALL",
                    "output": "0x000000000000000000000000000000000000000000000000000002fc28420ac1",
                    "revert": false,
                    "revertMessage": "",
                    "selector": "0xd9627aa4",
                    "status": true,
                    "value": "0.074913377673344216"
                },
                "nodeType": 0
            },
            "20": {
                "invocation": {
                    "address": "0x27eb76bb1c63d7abd24a5b14da7426737c8477cd",
                    "callData": "0x",
                    "decodedMethod": {
                        "callParams": [],
                        "constructorArguments": "",
                        "name": "getReserves",
                        "returnParams": [
                            {
                                "name": "_reserve0",
                                "type": "uint112",
                                "value": "33,052,923,277,439,257"
                            },
                            {
                                "name": "_reserve1",
                                "type": "uint112",
                                "value": "752,254,961,150,582,544,862"
                            },
                            {
                                "name": "_blockTimestampLast",
                                "type": "uint32",
                                "value": "1,670,269,415"
                            }
                        ],
                        "signature": "getReserves()"
                    },
                    "errorInfo": "",
                    "fromAddress": "0xaa0c5b3567fd1bac8a2a11eb16c3f81a49eea90f",
                    "gasUsed": 504,
                    "id": 20,
                    "methodDecoded": true,
                    "operation": "STATICCALL",
                    "output": "0x00000000000000000000000000000000000000000000000000756d7566bd7119000000000000000000000000000000000000000000000028c7a27d8c81bf59de00000000000000000000000000000000000000000000000000000000638e49e7",
                    "revert": false,
                    "revertMessage": "",
                    "selector": "0x0902f1ac",
                    "status": true,
                    "value": "0"
                },
                "nodeType": 0
            },
            "21": {
                "event": {
                    "contract": "0xaa0c5b3567fd1bac8a2a11eb16c3f81a49eea90f",
                    "decodedLog": {
                        "name": "Transfer",
                        "params": [
                            {
                                "name": "from",
                                "type": "address",
                                "value": "0xe66b31678d6c16e9ebf358268a790b763c133750"
                            },
                            {
                                "name": "to",
                                "type": "address",
                                "value": "0x675174aaae082fb2615c0b3989f3dd86714454ae"
                            },
                            {
                                "decimalAvailable": true,
                                "name": "value",
                                "type": "uint256",
                                "value": "3,117,928,909,368"
                            }
                        ],
                        "signature": "Transfer(address,address,uint256)"
                    },
                    "id": 21,
                    "logData": "0x000000000000000000000000000000000000000000000000000002d5f30b8a38",
                    "logDecoded": true,
                    "operation": "EVENT",
                    "revert": false,
                    "status": true,
                    "topics": [
                        "0xddf252ad1be2c89b69c2b068fc378daa952ba7f163c4a11628f55a4df523b3ef",
                        "0x000000000000000000000000e66b31678d6c16e9ebf358268a790b763c133750",
                        "0x000000000000000000000000675174aaae082fb2615c0b3989f3dd86714454ae"
                    ]
                },
                "nodeType": 1
            },
            "3": {
                "invocation": {
                    "address": "0xf9b30557afcf76ea82c04015d80057fa2147dfa9",
                    "callData": "0x0000000000000000000000000000000000000000000000000000000000000080000000000000000000000000000000000000000000000000010a2551f124f4d8000000000000000000000000000000000000000000000000000002e53b87bda100000000000000000000000000000000000000000000000000000000000000000000000000000000000000000000000000000000000000000000000000000002000000000000000000000000eeeeeeeeeeeeeeeeeeeeeeeeeeeeeeeeeeeeeeee000000000000000000000000aa0c5b3567fd1bac8a2a11eb16c3f81a49eea90f869584cd000000000000000000000000382ffce2287252f930e1c8dc9328dac5bf282ba100000000000000000000000000000000000000000000001452ae46b8638e49de",
                    "decodedMethod": {
                        "callParams": [
                            {
                                "name": "tokens",
                                "type": "address[]",
                                "value": [
                                    "0xeeeeeeeeeeeeeeeeeeeeeeeeeeeeeeeeeeeeeeee",
                                    "0xaa0c5b3567fd1bac8a2a11eb16c3f81a49eea90f"
                                ]
                            },
                            {
                                "name": "sellAmount",
                                "type": "uint256",
                                "value": "74,913,377,673,344,216"
                            },
                            {
                                "name": "minBuyAmount",
                                "type": "uint256",
                                "value": "3,183,569,517,985"
                            },
                            {
                                "name": "isSushi",
                                "type": "bool",
                                "value": false
                            }
                        ],
                        "constructorArguments": "",
                        "name": "sellToUniswap",
                        "returnParams": [
                            {
                                "name": "buyAmount",
                                "type": "uint256",
                                "value": "3,282,030,430,913"
                            }
                        ],
                        "signature": "sellToUniswap(address[],uint256,uint256,bool)"
                    },
                    "errorInfo": "",
                    "fromAddress": "0xdef1c0ded9bec7f1a1670819833240f027b25eff",
                    "gasUsed": 206265,
                    "id": 3,
                    "methodDecoded": true,
                    "operation": "DELEGATECALL",
                    "output": "0x000000000000000000000000000000000000000000000000000002fc28420ac1",
                    "revert": false,
                    "revertMessage": "",
                    "selector": "0xd9627aa4",
                    "status": true,
                    "value": "0.074913377673344216"
                },
                "nodeType": 0
            },
            "4": {
                "invocation": {
                    "address": "0xc02aaa39b223fe8d0a0e5c4f27ead9083c756cc2",
                    "callData": "0x",
                    "decodedMethod": {
                        "callParams": [],
                        "constructorArguments": "",
                        "name": "deposit",
                        "returnParams": [],
                        "signature": "deposit()"
                    },
                    "errorInfo": "",
                    "fromAddress": "0xdef1c0ded9bec7f1a1670819833240f027b25eff",
                    "gasUsed": 6874,
                    "id": 4,
                    "methodDecoded": true,
                    "operation": "CALL",
                    "output": "",
                    "revert": false,
                    "revertMessage": "",
                    "selector": "0xd0e30db0",
                    "status": true,
                    "value": "0.074913377673344216"
                },
                "nodeType": 0
            },
            "5": {
                "event": {
                    "contract": "0xc02aaa39b223fe8d0a0e5c4f27ead9083c756cc2",
                    "decodedLog": {
                        "name": "Deposit",
                        "params": [
                            {
                                "name": "dst",
                                "type": "address",
                                "value": "0xdef1c0ded9bec7f1a1670819833240f027b25eff"
                            },
                            {
                                "name": "wad",
                                "type": "uint256",
                                "value": "74,913,377,673,344,216"
                            }
                        ],
                        "signature": "Deposit(address,uint256)"
                    },
                    "id": 5,
                    "logData": "0x000000000000000000000000000000000000000000000000010a2551f124f4d8",
                    "logDecoded": true,
                    "operation": "EVENT",
                    "revert": false,
                    "status": true,
                    "topics": [
                        "0xe1fffcc4923d04b559f4d29a8bfc6cda04eb5b0d3c460751c2402c5c5cc9109c",
                        "0x000000000000000000000000def1c0ded9bec7f1a1670819833240f027b25eff"
                    ]
                },
                "nodeType": 1
            },
            "6": {
                "invocation": {
                    "address": "0xc02aaa39b223fe8d0a0e5c4f27ead9083c756cc2",
                    "callData": "0x00000000000000000000000027eb76bb1c63d7abd24a5b14da7426737c8477cd000000000000000000000000000000000000000000000000010a2551f124f4d8",
                    "decodedMethod": {
                        "callParams": [
                            {
                                "name": "dst",
                                "type": "address",
                                "value": "0x27eb76bb1c63d7abd24a5b14da7426737c8477cd"
                            },
                            {
                                "decimalAvailable": true,
                                "name": "wad",
                                "type": "uint256",
                                "value": "74,913,377,673,344,216"
                            }
                        ],
                        "constructorArguments": "",
                        "name": "transfer",
                        "returnParams": [
                            {
                                "name": "",
                                "type": "bool",
                                "value": true
                            }
                        ],
                        "signature": "transfer(address,uint256)"
                    },
                    "errorInfo": "",
                    "fromAddress": "0xdef1c0ded9bec7f1a1670819833240f027b25eff",
                    "gasUsed": 8062,
                    "id": 6,
                    "methodDecoded": true,
                    "operation": "CALL",
                    "output": "0x0000000000000000000000000000000000000000000000000000000000000001",
                    "revert": false,
                    "revertMessage": "",
                    "selector": "0xa9059cbb",
                    "status": true,
                    "value": "0"
                },
                "nodeType": 0
            },
            "7": {
                "event": {
                    "contract": "0xc02aaa39b223fe8d0a0e5c4f27ead9083c756cc2",
                    "decodedLog": {
                        "name": "Transfer",
                        "params": [
                            {
                                "name": "src",
                                "type": "address",
                                "value": "0xdef1c0ded9bec7f1a1670819833240f027b25eff"
                            },
                            {
                                "name": "dst",
                                "type": "address",
                                "value": "0x27eb76bb1c63d7abd24a5b14da7426737c8477cd"
                            },
                            {
                                "decimalAvailable": true,
                                "name": "wad",
                                "type": "uint256",
                                "value": "74,913,377,673,344,216"
                            }
                        ],
                        "signature": "Transfer(address,address,uint256)"
                    },
                    "id": 7,
                    "logData": "0x000000000000000000000000000000000000000000000000010a2551f124f4d8",
                    "logDecoded": true,
                    "operation": "EVENT",
                    "revert": false,
                    "status": true,
                    "topics": [
                        "0xddf252ad1be2c89b69c2b068fc378daa952ba7f163c4a11628f55a4df523b3ef",
                        "0x000000000000000000000000def1c0ded9bec7f1a1670819833240f027b25eff",
                        "0x00000000000000000000000027eb76bb1c63d7abd24a5b14da7426737c8477cd"
                    ]
                },
                "nodeType": 1
            },
            "8": {
                "invocation": {
                    "address": "0x27eb76bb1c63d7abd24a5b14da7426737c8477cd",
                    "callData": "0x",
                    "decodedMethod": {
                        "callParams": [],
                        "constructorArguments": "",
                        "name": "getReserves",
                        "returnParams": [
                            {
                                "name": "_reserve0",
                                "type": "uint112",
                                "value": "33,056,205,307,870,170"
                            },
                            {
                                "name": "_reserve1",
                                "type": "uint112",
                                "value": "752,180,047,772,909,200,646"
                            },
                            {
                                "name": "_blockTimestampLast",
                                "type": "uint32",
                                "value": "1,670,268,095"
                            }
                        ],
                        "signature": "getReserves()"
                    },
                    "errorInfo": "",
                    "fromAddress": "0xdef1c0ded9bec7f1a1670819833240f027b25eff",
                    "gasUsed": 2504,
                    "id": 8,
                    "methodDecoded": true,
                    "operation": "STATICCALL",
                    "output": "0x000000000000000000000000000000000000000000000000007570718eff7bda000000000000000000000000000000000000000000000028c698583a909a650600000000000000000000000000000000000000000000000000000000638e44bf",
                    "revert": false,
                    "revertMessage": "",
                    "selector": "0x0902f1ac",
                    "status": true,
                    "value": "0"
                },
                "nodeType": 0
            },
            "9": {
                "invocation": {
                    "address": "0x27eb76bb1c63d7abd24a5b14da7426737c8477cd",
                    "callData": "0x000000000000000000000000000000000000000000000000000002fc28420ac10000000000000000000000000000000000000000000000000000000000000000000000000000000000000000e66b31678d6c16e9ebf358268a790b763c13375000000000000000000000000000000000000000000000000000000000000000800000000000000000000000000000000000000000000000000000000000000000",
                    "decodedMethod": {
                        "callParams": [
                            {
                                "name": "amount0Out",
                                "type": "uint256",
                                "value": "3,282,030,430,913"
                            },
                            {
                                "name": "amount1Out",
                                "type": "uint256",
                                "value": "0"
                            },
                            {
                                "name": "to",
                                "type": "address",
                                "value": "0xe66b31678d6c16e9ebf358268a790b763c133750"
                            },
                            {
                                "name": "data",
                                "type": "bytes",
                                "value": "0x"
                            }
                        ],
                        "constructorArguments": "",
                        "name": "swap",
                        "returnParams": [],
                        "signature": "swap(uint256,uint256,address,bytes)"
                    },
                    "errorInfo": "",
                    "fromAddress": "0xdef1c0ded9bec7f1a1670819833240f027b25eff",
                    "gasUsed": 174192,
                    "id": 9,
                    "methodDecoded": true,
                    "operation": "CALL",
                    "output": "",
                    "revert": false,
                    "revertMessage": "",
                    "selector": "0x022c0d9f",
                    "status": true,
                    "value": "0"
                },
                "nodeType": 0
            }
        },
        "gasFlame": [
            {
                "children": [
                    {
                        "children": [
                            {
                                "children": [],
                                "depth": 0,
                                "name": "Initial Gas",
                                "value": 25292
                            },
                            {
                                "children": [
                                    {
                                        "children": [],
                                        "depth": 1,
                                        "name": "fallback",
                                        "value": 0
                                    },
                                    {
                                        "children": [
                                            {
                                                "children": [
                                                    {
                                                        "children": [],
                                                        "depth": 3,
                                                        "name": "deposit",
                                                        "value": 6874
                                                    },
                                                    {
                                                        "children": [],
                                                        "depth": 3,
                                                        "name": "transfer",
                                                        "value": 8062
                                                    },
                                                    {
                                                        "children": [],
                                                        "depth": 3,
                                                        "name": "getReserves",
                                                        "value": 2504
                                                    },
                                                    {
                                                        "children": [
                                                            {
                                                                "children": [
                                                                    {
                                                                        "children": [],
                                                                        "depth": 5,
                                                                        "name": "getReserves",
                                                                        "value": 504
                                                                    }
                                                                ],
                                                                "depth": 4,
                                                                "name": "transfer",
                                                                "value": 138941
                                                            },
                                                            {
                                                                "children": [],
                                                                "depth": 4,
                                                                "name": "balanceOf",
                                                                "value": 894
                                                            },
                                                            {
                                                                "children": [],
                                                                "depth": 4,
                                                                "name": "balanceOf",
                                                                "value": 534
                                                            }
                                                        ],
                                                        "depth": 3,
                                                        "name": "swap",
                                                        "value": 174192
                                                    }
                                                ],
                                                "depth": 2,
                                                "name": "sellToUniswap",
                                                "value": 206265
                                            }
                                        ],
                                        "depth": 1,
                                        "name": "sellToUniswap",
                                        "value": 212019
                                    },
                                    {
                                        "children": [],
                                        "depth": 1,
                                        "name": "balanceOf",
                                        "value": 894
                                    },
                                    {
                                        "children": [
                                            {
                                                "children": [],
                                                "depth": 2,
                                                "name": "getReserves",
                                                "value": 504
                                            }
                                        ],
                                        "depth": 1,
                                        "name": "transfer",
                                        "value": 29980
                                    }
                                ],
                                "depth": 0,
                                "name": "Executed Gas",
                                "value": 269496
                            }
                        ],
                        "depth": -1,
                        "name": "Actual Gas Used",
                        "value": 235831
                    },
                    {
                        "children": [],
                        "depth": -1,
                        "name": "Refunded Gas",
                        "value": 58957
                    }
                ],
                "depth": -2,
                "name": "Total Gas",
                "value": 294788
            }
        ],
        "isConfirmed": true,
        "mainTrace": [
            {
                "children": [
                    {
                        "children": [
                            {
                                "children": [],
                                "depth": 1,
                                "id": 1,
                                "order": 1
                            },
                            {
                                "children": [
                                    {
                                        "children": [
                                            {
                                                "children": [
                                                    {
                                                        "children": [],
                                                        "depth": 4,
                                                        "id": 5,
                                                        "order": 5
                                                    }
                                                ],
                                                "depth": 3,
                                                "id": 4,
                                                "order": 4
                                            },
                                            {
                                                "children": [
                                                    {
                                                        "children": [],
                                                        "depth": 4,
                                                        "id": 7,
                                                        "order": 7
                                                    }
                                                ],
                                                "depth": 3,
                                                "id": 6,
                                                "order": 6
                                            },
                                            {
                                                "children": [],
                                                "depth": 3,
                                                "id": 8,
                                                "order": 8
                                            },
                                            {
                                                "children": [
                                                    {
                                                        "children": [
                                                            {
                                                                "children": [],
                                                                "depth": 5,
                                                                "id": 11,
                                                                "order": 11
                                                            },
                                                            {
                                                                "children": [],
                                                                "depth": 5,
                                                                "id": 12,
                                                                "order": 12
                                                            },
                                                            {
                                                                "children": [],
                                                                "depth": 5,
                                                                "id": 13,
                                                                "order": 13
                                                            }
                                                        ],
                                                        "depth": 4,
                                                        "id": 10,
                                                        "order": 10
                                                    },
                                                    {
                                                        "children": [],
                                                        "depth": 4,
                                                        "id": 14,
                                                        "order": 14
                                                    },
                                                    {
                                                        "children": [],
                                                        "depth": 4,
                                                        "id": 15,
                                                        "order": 15
                                                    },
                                                    {
                                                        "children": [],
                                                        "depth": 4,
                                                        "id": 16,
                                                        "order": 16
                                                    },
                                                    {
                                                        "children": [],
                                                        "depth": 4,
                                                        "id": 17,
                                                        "order": 17
                                                    }
                                                ],
                                                "depth": 3,
                                                "id": 9,
                                                "order": 9
                                            }
                                        ],
                                        "depth": 2,
                                        "id": 3,
                                        "order": 3
                                    }
                                ],
                                "depth": 1,
                                "id": 2,
                                "order": 2
                            },
                            {
                                "children": [],
                                "depth": 1,
                                "id": 18,
                                "order": 18
                            },
                            {
                                "children": [
                                    {
                                        "children": [],
                                        "depth": 2,
                                        "id": 20,
                                        "order": 20
                                    },
                                    {
                                        "children": [],
                                        "depth": 2,
                                        "id": 21,
                                        "order": 21
                                    }
                                ],
                                "depth": 1,
                                "id": 19,
                                "order": 19
                            }
                        ],
                        "depth": 0,
                        "id": 0,
                        "order": 0
                    }
                ],
                "depth": -1,
                "id": -1,
                "order": -1
            }
        ],
        "mainTraceNodeCount": 22,
        "parentIdMap": {
            "0": -1,
            "1": 0,
            "10": 9,
            "11": 10,
            "12": 10,
            "13": 10,
            "14": 9,
            "15": 9,
            "16": 9,
            "17": 9,
            "18": 0,
            "19": 0,
            "2": 0,
            "20": 19,
            "21": 19,
            "3": 2,
            "4": 3,
            "5": 4,
            "6": 3,
            "7": 6,
            "8": 3,
            "9": 3
        },
        "tidyTrace": [
            {
                "children": [
                    {
                        "children": [
                            {
                                "children": [],
                                "depth": 1,
                                "id": 1,
                                "order": 1
                            },
                            {
                                "children": [
                                    {
                                        "children": [
                                            {
                                                "children": [
                                                    {
                                                        "children": [],
                                                        "depth": 4,
                                                        "id": 5,
                                                        "order": 5
                                                    }
                                                ],
                                                "depth": 3,
                                                "id": 4,
                                                "order": 4
                                            },
                                            {
                                                "children": [
                                                    {
                                                        "children": [],
                                                        "depth": 4,
                                                        "id": 7,
                                                        "order": 7
                                                    }
                                                ],
                                                "depth": 3,
                                                "id": 6,
                                                "order": 6
                                            },
                                            {
                                                "children": [
                                                    {
                                                        "children": [
                                                            {
                                                                "children": [],
                                                                "depth": 5,
                                                                "id": 12,
                                                                "order": 12
                                                            },
                                                            {
                                                                "children": [],
                                                                "depth": 5,
                                                                "id": 13,
                                                                "order": 13
                                                            }
                                                        ],
                                                        "depth": 4,
                                                        "id": 10,
                                                        "order": 10
                                                    },
                                                    {
                                                        "children": [],
                                                        "depth": 4,
                                                        "id": 16,
                                                        "order": 16
                                                    },
                                                    {
                                                        "children": [],
                                                        "depth": 4,
                                                        "id": 17,
                                                        "order": 17
                                                    }
                                                ],
                                                "depth": 3,
                                                "id": 9,
                                                "order": 9
                                            }
                                        ],
                                        "depth": 2,
                                        "id": 3,
                                        "order": 3
                                    }
                                ],
                                "depth": 1,
                                "id": 2,
                                "order": 2
                            },
                            {
                                "children": [
                                    {
                                        "children": [],
                                        "depth": 2,
                                        "id": 21,
                                        "order": 21
                                    }
                                ],
                                "depth": 1,
                                "id": 19,
                                "order": 19
                            }
                        ],
                        "depth": 0,
                        "id": 0,
                        "order": 0
                    }
                ],
                "depth": -1,
                "id": -1,
                "order": -1
            }
        ],
        "tidyTraceNodeCount": 16
    },
    "state_change": {
        "stateChanges": [
            {
                "address": "0x27eb76bb1c63d7abd24a5b14da7426737c8477cd",
                "erc": "ERC-20",
                "slots": [
                    {
                        "current": "0x638e49e7000000000028c7a27d8c81bf59de00000000000000756d7566bd7119",
                        "key": "0x0000000000000000000000000000000000000000000000000000000000000008",
                        "prev": "0x638e44bf000000000028c698583a909a6506000000000000007570718eff7bda"
                    },
                    {
                        "current": "0x00000000000000000000000000285a7d306e6d0d03269a87539bf1b2f193e2c3",
                        "key": "0x0000000000000000000000000000000000000000000000000000000000000009",
                        "prev": "0x000000000000000000000000002858b2e021a401a5f7ad562dc7b690d75ed3bb"
                    },
                    {
                        "current": "0x00000000000000000000000000000000017262c1b30cb4c7017413203b98a2ba",
                        "key": "0x000000000000000000000000000000000000000000000000000000000000000a",
                        "prev": "0x00000000000000000000000000000000017253e7efb2ea43b32201b99782187a"
                    }
                ],
                "storageVariables": [
                    {
                        "name": "reserve0",
                        "type": "uint112",
                        "value": {
                            "current": "33052923277439257",
                            "prev": "33056205307870170",
                            "typeTag": 1
                        }
                    },
                    {
                        "name": "reserve1",
                        "type": "uint112",
                        "value": {
                            "current": "752254961150582544862",
                            "prev": "752180047772909200646",
                            "typeTag": 1
                        }
                    },
                    {
                        "name": "blockTimestampLast",
                        "type": "uint32",
                        "value": {
                            "current": "1670269415",
                            "prev": "1670268095",
                            "typeTag": 1
                        }
                    },
                    {
                        "name": "price0CumulativeLast",
                        "type": "uint256",
                        "value": {
                            "current": "899912513347256730870385411103661495353074371",
                            "prev": "899756557286275052333244202237515532326589371",
                            "typeTag": 1
                        }
                    },
                    {
                        "name": "price1CumulativeLast",
                        "type": "uint256",
                        "value": {
                            "current": "1923152860247586904104845803087504058",
                            "prev": "1922851653543742532053056604780763258",
                            "typeTag": 1
                        }
                    }
                ]
            },
            {
                "address": "0xaa0c5b3567fd1bac8a2a11eb16c3f81a49eea90f",
                "erc": "ERC-20",
                "slots": [
                    {
                        "current": "0x00000000000000000000000000000000000000000000000000756d7566bd7119",
                        "key": "0xc34cd07898777ef78396dac9c28f18b4da93fbd7a44a983e65a3ba2ed73b9f04",
                        "prev": "0x000000000000000000000000000000000000000000000000007570718eff7bda"
                    },
                    {
                        "current": "0x00000000000000000000000000000000000000000000000000000cacc8e9d28c",
                        "key": "0x7aedf37783706eecdbb1ea16f66a6d93d506e4225fa2475862729037ef76f55e",
                        "prev": "0x000000000000000000000000000000000000000000000000000009d6d5de4854"
                    },
                    {
                        "current": "0x00000000000000000000000000000000000000000000000000001529d7fc22b6",
                        "key": "0x8ab072680b2bcbf397b251b1397d8efa960b992ec341816f8574b0d0a42921f2",
                        "prev": "0x00000000000000000000000000000000000000000000000000001503a2c5a22d"
                    },
                    {
                        "current": "0x0000000000000000000000000000000000000000000000000000038887c0c877",
                        "key": "0x0000000000000000000000000000000000000000000000000000000000000017",
                        "prev": "0x00000000000000000000000000000000000000000000000000000380e382aec2"
                    },
                    {
                        "current": "0x00000000000000000000000000000000000000000000000000000e221f0321e4",
                        "key": "0x0000000000000000000000000000000000000000000000000000000000000019",
                        "prev": "0x00000000000000000000000000000000000000000000000000000e038e0abb10"
                    }
                ],
                "storageVariables": [
                    {
                        "name": "_aiFeeTokens",
                        "type": "uint256",
                        "value": {
                            "current": "15539711975908",
                            "prev": "15408430758672",
                            "typeTag": 1
                        }
                    },
                    {
                        "name": "_balances",
                        "type": "mapping(address => uint256)",
                        "value": {
                            "pairs": [
                                {
                                    "key": "0x27eb76bb1c63d7abd24a5b14da7426737c8477cd",
                                    "value": {
                                        "current": "33052923277439257",
                                        "prev": "33056205307870170",
                                        "typeTag": 1
                                    }
                                },
                                {
                                    "key": "0x675174aaae082fb2615c0b3989f3dd86714454ae",
                                    "value": {
                                        "current": "13936244675212",
                                        "prev": "10818315765844",
                                        "typeTag": 1
                                    }
                                },
                                {
                                    "key": "0xaa0c5b3567fd1bac8a2a11eb16c3f81a49eea90f",
                                    "value": {
                                        "current": "23269461467830",
                                        "prev": "23105359946285",
                                        "typeTag": 1
                                    }
                                }
                            ],
                            "typeTag": 4
                        }
                    },
                    {
                        "name": "_marketingFeeTokensToSwap",
                        "type": "uint256",
                        "value": {
                            "current": "3884927993975",
                            "prev": "3852107689666",
                            "typeTag": 1
                        }
                    }
                ]
            },
            {
                "address": "0xc02aaa39b223fe8d0a0e5c4f27ead9083c756cc2",
                "erc": "ERC-20",
                "slots": [
                    {
                        "current": "0x000000000000000000000000000000000000000000000028c7a27d8c81bf59de",
                        "key": "0xd3ff9063b6c8cd31a549149d7adc5f63107373bcd58485e513cd3a15b9088896",
                        "prev": "0x000000000000000000000000000000000000000000000028c698583a909a6506"
                    }
                ],
                "storageVariables": [
                    {
                        "name": "balanceOf",
                        "type": "mapping(address => uint256)",
                        "value": {
                            "pairs": [
                                {
                                    "key": "0x27eb76bb1c63d7abd24a5b14da7426737c8477cd",
                                    "value": {
                                        "current": "752254961150582544862",
                                        "prev": "752180047772909200646",
                                        "typeTag": 1
                                    }
                                }
                            ],
                            "typeTag": 4
                        }
                    }
                ]
            }
        ]
    }
}