{
    "balance_change": {
        "balanceChanges": [
            {
                "account": "0x989282dce0b235156282de732512dd9ef1f65558",
                "assets": [
                    {
                        "address": "0xbff7021e82f14aa8156c7f90ec8c339e1e2be31b",
                        "amount": "7,177",
                        "iconUrl": "",
                        "isERC1155": false,
                        "isERC721": false,
                        "sign": false,
                        "value": ""
                    }
                ]
            },
            {
                "account": "0xb39904b44d500da87a59a080f7ee3c91e4327a10",
                "assets": [
                    {
                        "address": "0xbff7021e82f14aa8156c7f90ec8c339e1e2be31b",
                        "amount": "7,177",
                        "iconUrl": "",
                        "isERC1155": false,
                        "isERC721": false,
                        "sign": true,
                        "value": ""
                    }
                ]
            }
        ]
    },
    "profile": {
        "basic_info": {
            "baseFee": "",
            "blockNumber": 9571028,
            "callData": "0xa9059cbb000000000000000000000000b39904b44d500da87a59a080f7ee3c91e4327a10000000000000000000000000000000000000000000000000000000a71a40e900",
            "debugEnable": true,
            "errorInfo": "",
            "eventCount": 1,
            "feeRecipient": "0x5a0b54d5dc17e0aadc383d2db43b0a0d3e029c4c",
            "formatValue": "0",
            "gasLimit": 52110,
            "gasPrice": "7",
            "gasUsed": 52110,
            "intTxnCount": 0,
            "internalRevert": false,
            "internalRevertMessage": "",
            "isContractCreation": false,
            "isFlashloan": false,
            "maxFee": "",
            "nonce": 22352,
            "overwritedBlockNumber": -1,
            "priorityFee": "",
            "receiver": "0xbff7021e82f14aa8156c7f90ec8c339e1e2be31b",
            "revertMessage": "",
            "sender": "0x989282dce0b235156282de732512dd9ef1f65558",
            "simulationEnable": true,
            "sourceTxnHash": "0x9d8de8d46b52de2c98c6912cc6e002f8f8ee7ed2906a20f0d535e506c951d630",
            "status": true,
            "timestamp": "2020-02-28T08:30:32Z",
            "transactionFee": "0.00036477",
            "txnHash": "0x9d8de8d46b52de2c98c6912cc6e002f8f8ee7ed2906a20f0d535e506c951d630",
            "txnIndex": 113,
            "type": 0,
            "value": "0"
        },
        "fund_flow": [
            {
                "amount": "7,177",
                "from": "0x989282dce0b235156282de732512dd9ef1f65558",
                "id": 1,
                "isERC1155": false,
                "isERC721": false,
                "isReverted": false,
                "order": 1,
                "to": "0xb39904b44d500da87a59a080f7ee3c91e4327a10",
                "token": "0xbff7021e82f14aa8156c7f90ec8c339e1e2be31b"
            }
        ],
        "token_infos": [
            {
                "address": "0xeeeeeeeeeeeeeeeeeeeeeeeeeeeeeeeeeeeeeeee",
                "decimals": 18
            },
            {
                "address": "0xbff7021e82f14aa8156c7f90ec8c339e1e2be31b",
                "decimals": 8
            },
            {
                "address": "0xc02aaa39b223fe8d0a0e5c4f27ead9083c756cc2",
                "decimals": 18
            }
        ]
    },
    "address_label": {
        "labels": [
            {
                "address": "0x0000000000000000000000000000000000000003",
                "label": "Precompiled"
            },
            {
                "address": "0x0000000000000000000000000000000000000004",
                "label": "Precompiled"
            },
            {
                "address": "0xeeeeeeeeeeeeeeeeeeeeeeeeeeeeeeeeeeeeeeee",
                "label": "Ether"
            },
            {
                "address": "0xbff7021e82f14aa8156c7f90ec8c339e1e2be31b",
                "label": "Eternal Token (ETE)"
            },
            {
                "address": "0x0000000000000000000000000000000000000001",
                "label": "Precompiled"
            },
            {
                "address": "0x0000000000000000000000000000000000000002",
                "label": "Precompiled"
            }
        ]
    },
    "trace": {
        "accountLabels": null,
        "dataMap": {
            "-1": {
                "invocation": {
                    "address": "0x989282dce0b235156282de732512dd9ef1f65558",
                    "callData": "",
                    "decodedMethod": null,
                    "errorInfo": "",
                    "fromAddress": "",
                    "gasUsed": 0,
                    "id": -1,
                    "methodDecoded": false,
                    "operation": "",
                    "output": "",
                    "revert": false,
                    "revertMessage": "",
                    "selector": "",
                    "status": false,
                    "value": ""
                },
                "nodeType": 0
            },
            "0": {
                "invocation": {
                    "address": "0xbff7021e82f14aa8156c7f90ec8c339e1e2be31b",
                    "callData": "0x000000000000000000000000b39904b44d500da87a59a080f7ee3c91e4327a10000000000000000000000000000000000000000000000000000000a71a40e900",
                    "decodedMethod": {
                        "callParams": [
                            {
                                "name": "_to",
                                "type": "address",
                                "value": "0xb39904b44d500da87a59a080f7ee3c91e4327a10"
                            },
                            {
                                "decimalAvailable": true,
                                "name": "_value",
                                "type": "uint256",
                                "value": "717,700,000,000"
                            }
                        ],
                        "constructorArguments": "",
                        "name": "transfer",
                        "returnParams": [
                            {
                                "name": "",
                                "type": "bool",
                                "value": true
                            }
                        ],
                        "signature": "transfer(address,uint256)"
                    },
                    "errorInfo": "",
                    "fromAddress": "0x989282dce0b235156282de732512dd9ef1f65558",
                    "gasUsed": 52110,
                    "id": 0,
                    "methodDecoded": true,
                    "operation": "CALL",
                    "output": "0x0000000000000000000000000000000000000000000000000000000000000001",
                    "revert": false,
                    "revertMessage": "",
                    "selector": "0xa9059cbb",
                    "status": true,
                    "value": "0"
                },
                "nodeType": 0
            },
            "1": {
                "event": {
                    "contract": "0xbff7021e82f14aa8156c7f90ec8c339e1e2be31b",
                    "decodedLog": {
                        "name": "Transfer",
                        "params": [
                            {
                                "name": "from",
                                "type": "address",
                                "value": "0x989282dce0b235156282de732512dd9ef1f65558"
                            },
                            {
                                "name": "to",
                                "type": "address",
                                "value": "0xb39904b44d500da87a59a080f7ee3c91e4327a10"
                            },
                            {
                                "decimalAvailable": true,
                                "name": "value",
                                "type": "uint256",
                                "value": "717,700,000,000"
                            }
                        ],
                        "signature": "Transfer(address,address,uint256)"
                    },
                    "id": 1,
                    "logData": "0x000000000000000000000000000000000000000000000000000000a71a40e900",
                    "logDecoded": true,
                    "operation": "EVENT",
                    "revert": false,
                    "status": true,
                    "topics": [
                        "0xddf252ad1be2c89b69c2b068fc378daa952ba7f163c4a11628f55a4df523b3ef",
                        "0x000000000000000000000000989282dce0b235156282de732512dd9ef1f65558",
                        "0x000000000000000000000000b39904b44d500da87a59a080f7ee3c91e4327a10"
                    ]
                },
                "nodeType": 1
            }
        },
        "gasFlame": [
            {
                "children": [
                    {
                        "children": [
                            {
                                "children": [],
                                "depth": 0,
                                "name": "Initial Gas",
                                "value": 21608
                            },
                            {
                                "children": [],
                                "depth": 0,
                                "name": "Executed Gas",
                                "value": 30502
                            }
                        ],
                        "depth": -1,
                        "name": "Actual Gas Used",
                        "value": 52110
                    },
                    {
                        "children": [],
                        "depth": -1,
                        "name": "Refunded Gas",
                        "value": 0
                    }
                ],
                "depth": -2,
                "name": "Total Gas",
                "value": 52110
            }
        ],
        "isConfirmed": true,
        "mainTrace": [
            {
                "children": [
                    {
                        "children": [
                            {
                                "children": [],
                                "depth": 1,
                                "id": 1,
                                "order": 1
                            }
                        ],
                        "depth": 0,
                        "id": 0,
                        "order": 0
                    }
                ],
                "depth": -1,
                "id": -1,
                "order": -1
            }
        ],
        "mainTraceNodeCount": 2,
        "parentIdMap": {
            "0": -1,
            "1": 0
        },
        "tidyTrace": [
            {
                "children": [
                    {
                        "children": [
                            {
                                "children": [],
                                "depth": 1,
                                "id": 1,
                                "order": 1
                            }
                        ],
                        "depth": 0,
                        "id": 0,
                        "order": 0
                    }
                ],
                "depth": -1,
                "id": -1,
                "order": -1
            }
        ],
        "tidyTraceNodeCount": 2
    },
    "state_change": {
        "stateChanges": [
            {
                "address": "0xbff7021e82f14aa8156c7f90ec8c339e1e2be31b",
                "erc": "ERC-20",
                "slots": [
                    {
                        "current": "0x0000000000000000000000000000000000000000000000000002dbf20c25416c",
                        "key": "0x728f8ae85adadb429a3cd38ba6382c6c2bb0878ab0f945edab73a50839a415ea",
                        "prev": "0x0000000000000000000000000000000000000000000000000002dc9926662a6c"
                    },
                    {
                        "current": "0x000000000000000000000000000000000000000000000000000000a71a40e900",
                        "key": "0x9379b91e3dbb4c7795a3a770ebfc9ee30e5899737c6023ef1c2a4b5fd72e39d7",
                        "prev": "0x0000000000000000000000000000000000000000000000000000000000000000"
                    }
                ],
                "storageVariables": [
                    {
                        "name": "balances",
                        "type": "mapping(address => uint256)",
                        "value": {
                            "pairs": [
                                {
                                    "key": "0x989282dce0b235156282de732512dd9ef1f65558",
                                    "value": {
                                        "current": "804782585758060",
                                        "prev": "805500285758060",
                                        "typeTag": 1
                                    }
                                },
                                {
                                    "key": "0xb39904b44d500da87a59a080f7ee3c91e4327a10",
                                    "value": {
                                        "current": "717700000000",
                                        "prev": "0",
                                        "typeTag": 1
                                    }
                                }
                            ],
                            "typeTag": 4
                        }
                    }
                ]
            }
        ]
    }
}