{
    "balance_change": {
        "balanceChanges": [
            {
                "account": "0x8f01fb597066df7eb467a5e51291e6ebde017bf1",
                "assets": [
                    {
                        "address": "0x17ef75aa22dd5f6c2763b8304ab24f40ee54d48a",
                        "amount": "1,000",
                        "iconUrl": "",
                        "isERC1155": false,
                        "isERC721": false,
                        "sign": false,
                        "value": "27.81081354"
                    }
                ]
            },
            {
                "account": "0x6eed9cef248e5fda7805451221f8d759250b5401",
                "assets": [
                    {
                        "address": "0x17ef75aa22dd5f6c2763b8304ab24f40ee54d48a",
                        "amount": "1,000",
                        "iconUrl": "",
                        "isERC1155": false,
                        "isERC721": false,
                        "sign": true,
                        "value": "27.81081354"
                    }
                ]
            }
        ]
    },
    "profile": {
        "basic_info": {
            "baseFee": "22.304112177",
            "blockNumber": 14281290,
            "callData": "0xa9059cbb0000000000000000000000006eed9cef248e5fda7805451221f8d759250b540100000000000000000000000000000000000000000000003635c9adc5dea00000",
            "debugEnable": true,
            "errorInfo": "",
            "eventCount": 1,
            "feeRecipient": "0x829bd824b016326a401d083b33d092293333a830",
            "formatValue": "0",
            "gasLimit": 80856,
            "gasPrice": "24.304112177",
            "gasUsed": 53904,
            "intTxnCount": 0,
            "internalRevert": false,
            "internalRevertMessage": "",
            "isContractCreation": false,
            "isFlashloan": false,
            "maxFee": "35.01434681",
            "nonce": 14,
            "overwritedBlockNumber": -1,
            "priorityFee": "2",
            "receiver": "0x17ef75aa22dd5f6c2763b8304ab24f40ee54d48a",
            "revertMessage": "",
            "sender": "0x8f01fb597066df7eb467a5e51291e6ebde017bf1",
            "simulationEnable": true,
            "sourceTxnHash": "0x9d7b461a7ebc2631f958a792587d961b02956d9e0f5057eb726636be3be71690",
            "status": true,
            "timestamp": "2022-02-26T10:54:04Z",
            "transactionFee": "0.001310088862789008",
            "txnHash": "0x9d7b461a7ebc2631f958a792587d961b02956d9e0f5057eb726636be3be71690",
            "txnIndex": 38,
            "type": 2,
            "value": "0"
        },
        "fund_flow": [
            {
                "amount": "1,000",
                "from": "0x8f01fb597066df7eb467a5e51291e6ebde017bf1",
                "id": 1,
                "isERC1155": false,
                "isERC721": false,
                "isReverted": false,
                "order": 1,
                "to": "0x6eed9cef248e5fda7805451221f8d759250b5401",
                "token": "0x17ef75aa22dd5f6c2763b8304ab24f40ee54d48a"
            }
        ],
        "token_infos": [
            {
                "address": "0x17ef75aa22dd5f6c2763b8304ab24f40ee54d48a",
                "decimals": 18
            },
            {
                "address": "0xc02aaa39b223fe8d0a0e5c4f27ead9083c756cc2",
                "decimals": 18
            },
            {
                "address": "0xeeeeeeeeeeeeeeeeeeeeeeeeeeeeeeeeeeeeeeee",
                "decimals": 18
            }
        ]
    },
    "address_label": {
        "labels": [
            {
                "address": "0x0000000000000000000000000000000000000004",
                "label": "Precompiled"
            },
            {
                "address": "0xeeeeeeeeeeeeeeeeeeeeeeeeeeeeeeeeeeeeeeee",
                "label": "Ether"
            },
            {
                "address": "0x17ef75aa22dd5f6c2763b8304ab24f40ee54d48a",
                "label": "Revolution Populi: RVP Token"
            },
            {
                "address": "0x0000000000000000000000000000000000000001",
                "label": "Precompiled"
            },
            {
                "address": "0x0000000000000000000000000000000000000002",
                "label": "Precompiled"
            },
            {
                "address": "0x0000000000000000000000000000000000000003",
                "label": "Precompiled"
            }
        ]
    },
    "trace": {
        "accountLabels": null,
        "dataMap": {
            "-1": {
                "invocation": {
                    "address": "0x8f01fb597066df7eb467a5e51291e6ebde017bf1",
                    "callData": "",
                    "decodedMethod": null,
                    "errorInfo": "",
                    "fromAddress": "",
                    "gasUsed": 0,
                    "id": -1,
                    "methodDecoded": false,
                    "operation": "",
                    "output": "",
                    "revert": false,
                    "revertMessage": "",
                    "selector": "",
                    "status": false,
                    "value": ""
                },
                "nodeType": 0
            },
            "0": {
                "invocation": {
                    "address": "0x17ef75aa22dd5f6c2763b8304ab24f40ee54d48a",
                    "callData": "0x0000000000000000000000006eed9cef248e5fda7805451221f8d759250b540100000000000000000000000000000000000000000000003635c9adc5dea00000",
                    "decodedMethod": {
                        "callParams": [
                            {
                                "name": "recipient",
                                "type": "address",
                                "value": "0x6eed9cef248e5fda7805451221f8d759250b5401"
                            },
                            {
                                "decimalAvailable": true,
                                "name": "amount",
                                "type": "uint256",
                                "value": "1,000,000,000,000,000,000,000"
                            }
                        ],
                        "constructorArguments": "",
                        "name": "transfer",
                        "returnParams": [
                            {
                                "name": "",
                                "type": "bool",
                                "value": true
                            }
                        ],
                        "signature": "transfer(address,uint256)"
                    },
                    "errorInfo": "",
                    "fromAddress": "0x8f01fb597066df7eb467a5e51291e6ebde017bf1",
                    "gasUsed": 53904,
                    "id": 0,
                    "methodDecoded": true,
                    "operation": "CALL",
                    "output": "0x0000000000000000000000000000000000000000000000000000000000000001",
                    "revert": false,
                    "revertMessage": "",
                    "selector": "0xa9059cbb",
                    "status": true,
                    "value": "0"
                },
                "nodeType": 0
            },
            "1": {
                "event": {
                    "contract": "0x17ef75aa22dd5f6c2763b8304ab24f40ee54d48a",
                    "decodedLog": {
                        "name": "Transfer",
                        "params": [
                            {
                                "name": "from",
                                "type": "address",
                                "value": "0x8f01fb597066df7eb467a5e51291e6ebde017bf1"
                            },
                            {
                                "name": "to",
                                "type": "address",
                                "value": "0x6eed9cef248e5fda7805451221f8d759250b5401"
                            },
                            {
                                "decimalAvailable": true,
                                "name": "value",
                                "type": "uint256",
                                "value": "1,000,000,000,000,000,000,000"
                            }
                        ],
                        "signature": "Transfer(address,address,uint256)"
                    },
                    "id": 1,
                    "logData": "0x00000000000000000000000000000000000000000000003635c9adc5dea00000",
                    "logDecoded": true,
                    "operation": "EVENT",
                    "revert": false,
                    "status": true,
                    "topics": [
                        "0xddf252ad1be2c89b69c2b068fc378daa952ba7f163c4a11628f55a4df523b3ef",
                        "0x0000000000000000000000008f01fb597066df7eb467a5e51291e6ebde017bf1",
                        "0x0000000000000000000000006eed9cef248e5fda7805451221f8d759250b5401"
                    ]
                },
                "nodeType": 1
            }
        },
        "gasFlame": [
            {
                "children": [
                    {
                        "children": [
                            {
                                "children": [],
                                "depth": 0,
                                "name": "Initial Gas",
                                "value": 21644
                            },
                            {
                                "children": [],
                                "depth": 0,
                                "name": "Executed Gas",
                                "value": 32260
                            }
                        ],
                        "depth": -1,
                        "name": "Actual Gas Used",
                        "value": 53904
                    },
                    {
                        "children": [],
                        "depth": -1,
                        "name": "Refunded Gas",
                        "value": 0
                    }
                ],
                "depth": -2,
                "name": "Total Gas",
                "value": 53904
            }
        ],
        "isConfirmed": true,
        "mainTrace": [
            {
                "children": [
                    {
                        "children": [
                            {
                                "children": [],
                                "depth": 1,
                                "id": 1,
                                "order": 1
                            }
                        ],
                        "depth": 0,
                        "id": 0,
                        "order": 0
                    }
                ],
                "depth": -1,
                "id": -1,
                "order": -1
            }
        ],
        "mainTraceNodeCount": 2,
        "parentIdMap": {
            "0": -1,
            "1": 0
        },
        "tidyTrace": [
            {
                "children": [
                    {
                        "children": [
                            {
                                "children": [],
                                "depth": 1,
                                "id": 1,
                                "order": 1
                            }
                        ],
                        "depth": 0,
                        "id": 0,
                        "order": 0
                    }
                ],
                "depth": -1,
                "id": -1,
                "order": -1
            }
        ],
        "tidyTraceNodeCount": 2
    },
    "state_change": {
        "stateChanges": [
            {
                "address": "0x17ef75aa22dd5f6c2763b8304ab24f40ee54d48a",
                "erc": "ERC-20",
                "slots": [
                    {
                        "current": "0x00000000000000000000000000000000000000000000359757161efe4f932f68",
                        "key": "0xc3e06c5b6080b7289e771aabc8ff25e4eecf9d067f6584f14a170046d9e700c4",
                        "prev": "0x0000000000000000000000000000000000000000000035cd8cdfccc42e332f68"
                    },
                    {
                        "current": "0x00000000000000000000000000000000000000000000003635c9adc5dea00000",
                        "key": "0x413563a8ebbd83b2490d774e9e7d772f6809a1a983d05147355fe30dc1bcbd51",
                        "prev": "0x0000000000000000000000000000000000000000000000000000000000000000"
                    }
                ],
                "storageVariables": [
                    {
                        "name": "_balances",
                        "type": "mapping(address => uint256)",
                        "value": {
                            "pairs": [
                                {
                                    "key": "0x6eed9cef248e5fda7805451221f8d759250b5401",
                                    "value": {
                                        "current": "1000000000000000000000",
                                        "prev": "0",
                                        "typeTag": 1
                                    }
                                },
                                {
                                    "key": "0x8f01fb597066df7eb467a5e51291e6ebde017bf1",
                                    "value": {
                                        "current": "253077157184429731557224",
                                        "prev": "254077157184429731557224",
                                        "typeTag": 1
                                    }
                                }
                            ],
                            "typeTag": 4
                        }
                    }
                ]
            }
        ]
    }
}