{
    "balance_change": {
        "balanceChanges": [
            {
                "account": "0x15652636f3898f550b257b89926d5566821c32e1",
                "assets": [
                    {
                        "address": "0xa0b86991c6218b36c1d19d4a2e9eb0ce3606eb48",
                        "amount": "1,181.52572",
                        "iconUrl": "https://assets.blocksec.com/icon/0347a86cc07dbd03fdc5db01a4e5ac7e1217f90e0b6e4bb0f75cbcca09160989.png",
                        "isERC1155": false,
                        "isERC721": false,
                        "sign": false,
                        "value": "1181.171262284000039"
                    }
                ]
            },
            {
                "account": "0x684cab58299b44373a186109e10fa6abd34dcc12",
                "assets": [
                    {
                        "address": "0xa0b86991c6218b36c1d19d4a2e9eb0ce3606eb48",
                        "amount": "1,181.52572",
                        "iconUrl": "https://assets.blocksec.com/icon/0347a86cc07dbd03fdc5db01a4e5ac7e1217f90e0b6e4bb0f75cbcca09160989.png",
                        "isERC1155": false,
                        "isERC721": false,
                        "sign": true,
                        "value": "1181.171262284000039"
                    }
                ]
            }
        ]
    },
    "profile": {
        "basic_info": {
            "baseFee": "11.086525117",
            "blockNumber": 18191948,
            "callData": "0x44b8be680000000000000000000000001231deb6f5749ef6ce6943a275a1d3e7486f4eae000000000000000000000000684cab58299b44373a186109e10fa6abd34dcc12000000000000000000000000a0b86991c6218b36c1d19d4a2e9eb0ce3606eb480000000000000000000000000000000000000000000000000000000046a58cac0000000000000000000000000000000000000000000000000000000046a58cac0000000000000000000000000000000000000000000000000000000000000001000000000000000000000000000000000000000000000000000000000000a4b100000000000000000000000000000000000000000000000000015a6b64da608d0000000000000000000000000000000000000000000000000009d2e1d7b63f4200000000000000000000000000000000000000000000000000000000001115960000000000000000000000000000000000000000000000000000000000000180ffffffffffffffffffffffffffffffffffffffffffffffffffffffffffffffff0000000000000000000000000000000000000000000000000000000000000000",
            "debugEnable": true,
            "errorInfo": "",
            "eventCount": 2,
            "feeRecipient": "0x4838b106fce9647bdf1e7877bf73ce8b0bad5f97",
            "formatValue": "0",
            "gasLimit": 250000,
            "gasPrice": "11.655071117",
            "gasUsed": 133546,
            "intTxnCount": 3,
            "internalRevert": false,
            "internalRevertMessage": "",
            "isContractCreation": false,
            "isFlashloan": false,
            "maxFee": "24.64",
            "nonce": 96132,
            "overwritedBlockNumber": -1,
            "priorityFee": "0.568546",
            "receiver": "0x5c7bcd6e7de5423a257d81b442095a1a6ced35c5",
            "revertMessage": "",
            "sender": "0x15652636f3898f550b257b89926d5566821c32e1",
            "simulationEnable": true,
            "sourceTxnHash": "0x9dcf02f649eb912d3f38c780841c79939279dff5223166dd70bca1c1aa01ddd7",
            "status": true,
            "timestamp": "2023-09-22T14:22:59Z",
            "transactionFee": "0.001556488127390882",
            "txnHash": "0x9dcf02f649eb912d3f38c780841c79939279dff5223166dd70bca1c1aa01ddd7",
            "txnIndex": 78,
            "type": 2,
            "value": "0"
        },
        "fund_flow": [
            {
                "amount": "1,181.52572",
                "from": "0x15652636f3898f550b257b89926d5566821c32e1",
                "id": 1,
                "isERC1155": false,
                "isERC721": false,
                "isReverted": false,
                "order": 1,
                "to": "0x684cab58299b44373a186109e10fa6abd34dcc12",
                "token": "0xa0b86991c6218b36c1d19d4a2e9eb0ce3606eb48"
            }
        ],
        "token_infos": [
            {
                "address": "0xa0b86991c6218b36c1d19d4a2e9eb0ce3606eb48",
                "decimals": 6
            },
            {
                "address": "0xc02aaa39b223fe8d0a0e5c4f27ead9083c756cc2",
                "decimals": 18
            },
            {
                "address": "0xeeeeeeeeeeeeeeeeeeeeeeeeeeeeeeeeeeeeeeee",
                "decimals": 18
            }
        ]
    },
    "address_label": {
        "labels": [
            {
                "address": "0x0000000000000000000000000000000000000002",
                "label": "Precompiled"
            },
            {
                "address": "0xa2327a938febf5fec13bacfb16ae10ecbc4cbdcf",
                "label": "FiatTokenV2_1"
            },
            {
                "address": "0x15652636f3898f550b257b89926d5566821c32e1",
                "label": "ACROSS PROTOCOL"
            },
            {
                "address": "0x326510c1bf9d85fb73d0ab8d20aa5bbe9c7561e9",
                "label": "Ethereum_SpokePool"
            },
            {
                "address": "0x5c7bcd6e7de5423a257d81b442095a1a6ced35c5",
                "label": "Across Protocol: Ethereum Spoke Pool V2"
            },
            {
                "address": "0x1231deb6f5749ef6ce6943a275a1d3e7486f4eae",
                "label": "LI.FI: LiFi Diamond"
            },
            {
                "address": "0xa0b86991c6218b36c1d19d4a2e9eb0ce3606eb48",
                "label": "Circle: USDC Token"
            },
            {
                "address": "0x0000000000000000000000000000000000000001",
                "label": "Precompiled"
            },
            {
                "address": "0x0000000000000000000000000000000000000003",
                "label": "Precompiled"
            },
            {
                "address": "0xeeeeeeeeeeeeeeeeeeeeeeeeeeeeeeeeeeeeeeee",
                "label": "Ether"
            },
            {
                "address": "0x0000000000000000000000000000000000000004",
                "label": "Precompiled"
            }
        ]
    },
    "trace": {
        "accountLabels": null,
        "dataMap": {
            "-1": {
                "invocation": {
                    "address": "0x15652636f3898f550b257b89926d5566821c32e1",
                    "callData": "",
                    "decodedMethod": null,
                    "errorInfo": "",
                    "fromAddress": "",
                    "gasUsed": 0,
                    "id": -1,
                    "methodDecoded": false,
                    "operation": "",
                    "output": "",
                    "revert": false,
                    "revertMessage": "",
                    "selector": "",
                    "status": false,
                    "value": ""
                },
                "nodeType": 0
            },
            "0": {
                "invocation": {
                    "address": "0x5c7bcd6e7de5423a257d81b442095a1a6ced35c5",
                    "callData": "0x0000000000000000000000001231deb6f5749ef6ce6943a275a1d3e7486f4eae000000000000000000000000684cab58299b44373a186109e10fa6abd34dcc12000000000000000000000000a0b86991c6218b36c1d19d4a2e9eb0ce3606eb480000000000000000000000000000000000000000000000000000000046a58cac0000000000000000000000000000000000000000000000000000000046a58cac0000000000000000000000000000000000000000000000000000000000000001000000000000000000000000000000000000000000000000000000000000a4b100000000000000000000000000000000000000000000000000015a6b64da608d0000000000000000000000000000000000000000000000000009d2e1d7b63f4200000000000000000000000000000000000000000000000000000000001115960000000000000000000000000000000000000000000000000000000000000180ffffffffffffffffffffffffffffffffffffffffffffffffffffffffffffffff0000000000000000000000000000000000000000000000000000000000000000",
                    "decodedMethod": {
                        "callParams": [
                            {
                                "name": "depositor",
                                "type": "address",
                                "value": "0x1231deb6f5749ef6ce6943a275a1d3e7486f4eae"
                            },
                            {
                                "name": "recipient",
                                "type": "address",
                                "value": "0x684cab58299b44373a186109e10fa6abd34dcc12"
                            },
                            {
                                "name": "destinationToken",
                                "type": "address",
                                "value": "0xa0b86991c6218b36c1d19d4a2e9eb0ce3606eb48"
                            },
                            {
                                "name": "amount",
                                "type": "uint256",
                                "value": "1,185,254,572"
                            },
                            {
                                "name": "maxTokensToSend",
                                "type": "uint256",
                                "value": "1,185,254,572"
                            },
                            {
                                "name": "repaymentChainId",
                                "type": "uint256",
                                "value": "1"
                            },
                            {
                                "name": "originChainId",
                                "type": "uint256",
                                "value": "42,161"
                            },
                            {
                                "name": "realizedLpFeePct",
                                "type": "int64",
                                "value": "380,892,276,744,333"
                            },
                            {
                                "name": "relayerFeePct",
                                "type": "int64",
                                "value": "2,765,142,218,915,650"
                            },
                            {
                                "name": "depositId",
                                "type": "uint32",
                                "value": "1,119,638"
                            },
                            {
                                "name": "message",
                                "type": "bytes",
                                "value": "0x"
                            },
                            {
                                "name": "maxCount",
                                "type": "uint256",
                                "value": "115,792,089,237,316,195,423,570,985,008,687,907,853,269,984,665,640,564,039,457,584,007,913,129,639,935"
                            }
                        ],
                        "constructorArguments": "",
                        "name": "fillRelay",
                        "returnParams": [],
                        "signature": "fillRelay(address,address,address,uint256,uint256,uint256,uint256,int64,int64,uint32,bytes,uint256)"
                    },
                    "errorInfo": "",
                    "fromAddress": "0x15652636f3898f550b257b89926d5566821c32e1",
                    "gasUsed": 133546,
                    "id": 0,
                    "methodDecoded": true,
                    "operation": "CALL",
                    "output": "",
                    "revert": false,
                    "revertMessage": "",
                    "selector": "0x44b8be68",
                    "status": true,
                    "value": "0"
                },
                "nodeType": 0
            },
            "1": {
                "invocation": {
                    "address": "0x326510c1bf9d85fb73d0ab8d20aa5bbe9c7561e9",
                    "callData": "0x0000000000000000000000001231deb6f5749ef6ce6943a275a1d3e7486f4eae000000000000000000000000684cab58299b44373a186109e10fa6abd34dcc12000000000000000000000000a0b86991c6218b36c1d19d4a2e9eb0ce3606eb480000000000000000000000000000000000000000000000000000000046a58cac0000000000000000000000000000000000000000000000000000000046a58cac0000000000000000000000000000000000000000000000000000000000000001000000000000000000000000000000000000000000000000000000000000a4b100000000000000000000000000000000000000000000000000015a6b64da608d0000000000000000000000000000000000000000000000000009d2e1d7b63f4200000000000000000000000000000000000000000000000000000000001115960000000000000000000000000000000000000000000000000000000000000180ffffffffffffffffffffffffffffffffffffffffffffffffffffffffffffffff0000000000000000000000000000000000000000000000000000000000000000",
                    "decodedMethod": {
                        "callParams": [
                            {
                                "name": "depositor",
                                "type": "address",
                                "value": "0x1231deb6f5749ef6ce6943a275a1d3e7486f4eae"
                            },
                            {
                                "name": "recipient",
                                "type": "address",
                                "value": "0x684cab58299b44373a186109e10fa6abd34dcc12"
                            },
                            {
                                "name": "destinationToken",
                                "type": "address",
                                "value": "0xa0b86991c6218b36c1d19d4a2e9eb0ce3606eb48"
                            },
                            {
                                "name": "amount",
                                "type": "uint256",
                                "value": "1,185,254,572"
                            },
                            {
                                "name": "maxTokensToSend",
                                "type": "uint256",
                                "value": "1,185,254,572"
                            },
                            {
                                "name": "repaymentChainId",
                                "type": "uint256",
                                "value": "1"
                            },
                            {
                                "name": "originChainId",
                                "type": "uint256",
                                "value": "42,161"
                            },
                            {
                                "name": "realizedLpFeePct",
                                "type": "int64",
                                "value": "380,892,276,744,333"
                            },
                            {
                                "name": "relayerFeePct",
                                "type": "int64",
                                "value": "2,765,142,218,915,650"
                            },
                            {
                                "name": "depositId",
                                "type": "uint32",
                                "value": "1,119,638"
                            },
                            {
                                "name": "message",
                                "type": "bytes",
                                "value": "0x"
                            },
                            {
                                "name": "maxCount",
                                "type": "uint256",
                                "value": "115,792,089,237,316,195,423,570,985,008,687,907,853,269,984,665,640,564,039,457,584,007,913,129,639,935"
                            }
                        ],
                        "constructorArguments": "",
                        "name": "fillRelay",
                        "returnParams": [],
                        "signature": "fillRelay(address,address,address,uint256,uint256,uint256,uint256,int64,int64,uint32,bytes,uint256)"
                    },
                    "errorInfo": "",
                    "fromAddress": "0x5c7bcd6e7de5423a257d81b442095a1a6ced35c5",
                    "gasUsed": 107190,
                    "id": 1,
                    "methodDecoded": true,
                    "operation": "DELEGATECALL",
                    "output": "",
                    "revert": false,
                    "revertMessage": "",
                    "selector": "0x44b8be68",
                    "status": true,
                    "value": "0"
                },
                "nodeType": 0
            },
            "2": {
                "invocation": {
                    "address": "0xa0b86991c6218b36c1d19d4a2e9eb0ce3606eb48",
                    "callData": "0x00000000000000000000000015652636f3898f550b257b89926d5566821c32e1000000000000000000000000684cab58299b44373a186109e10fa6abd34dcc1200000000000000000000000000000000000000000000000000000000466ca6d8",
                    "decodedMethod": {
                        "callParams": [
                            {
                                "name": "from",
                                "type": "address",
                                "value": "0x15652636f3898f550b257b89926d5566821c32e1"
                            },
                            {
                                "name": "to",
                                "type": "address",
                                "value": "0x684cab58299b44373a186109e10fa6abd34dcc12"
                            },
                            {
                                "decimalAvailable": true,
                                "name": "value",
                                "type": "uint256",
                                "value": "1,181,525,720"
                            }
                        ],
                        "constructorArguments": "",
                        "name": "transferFrom",
                        "returnParams": [
                            {
                                "name": "",
                                "type": "bool",
                                "value": true
                            }
                        ],
                        "signature": "transferFrom(address,address,uint256)"
                    },
                    "errorInfo": "",
                    "fromAddress": "0x5c7bcd6e7de5423a257d81b442095a1a6ced35c5",
                    "gasUsed": 51992,
                    "id": 2,
                    "methodDecoded": true,
                    "operation": "CALL",
                    "output": "0x0000000000000000000000000000000000000000000000000000000000000001",
                    "revert": false,
                    "revertMessage": "",
                    "selector": "0x23b872dd",
                    "status": true,
                    "value": "0"
                },
                "nodeType": 0
            },
            "3": {
                "invocation": {
                    "address": "0xa2327a938febf5fec13bacfb16ae10ecbc4cbdcf",
                    "callData": "0x00000000000000000000000015652636f3898f550b257b89926d5566821c32e1000000000000000000000000684cab58299b44373a186109e10fa6abd34dcc1200000000000000000000000000000000000000000000000000000000466ca6d8",
                    "decodedMethod": {
                        "callParams": [
                            {
                                "name": "from",
                                "type": "address",
                                "value": "0x15652636f3898f550b257b89926d5566821c32e1"
                            },
                            {
                                "name": "to",
                                "type": "address",
                                "value": "0x684cab58299b44373a186109e10fa6abd34dcc12"
                            },
                            {
                                "decimalAvailable": true,
                                "name": "value",
                                "type": "uint256",
                                "value": "1,181,525,720"
                            }
                        ],
                        "constructorArguments": "",
                        "name": "transferFrom",
                        "returnParams": [
                            {
                                "name": "",
                                "type": "bool",
                                "value": true
                            }
                        ],
                        "signature": "transferFrom(address,address,uint256)"
                    },
                    "errorInfo": "",
                    "fromAddress": "0xa0b86991c6218b36c1d19d4a2e9eb0ce3606eb48",
                    "gasUsed": 44697,
                    "id": 3,
                    "methodDecoded": true,
                    "operation": "DELEGATECALL",
                    "output": "0x0000000000000000000000000000000000000000000000000000000000000001",
                    "revert": false,
                    "revertMessage": "",
                    "selector": "0x23b872dd",
                    "status": true,
                    "value": "0"
                },
                "nodeType": 0
            },
            "4": {
                "event": {
                    "contract": "0xa0b86991c6218b36c1d19d4a2e9eb0ce3606eb48",
                    "decodedLog": {
                        "name": "Transfer",
                        "params": [
                            {
                                "name": "from",
                                "type": "address",
                                "value": "0x15652636f3898f550b257b89926d5566821c32e1"
                            },
                            {
                                "name": "to",
                                "type": "address",
                                "value": "0x684cab58299b44373a186109e10fa6abd34dcc12"
                            },
                            {
                                "decimalAvailable": true,
                                "name": "value",
                                "type": "uint256",
                                "value": "1,181,525,720"
                            }
                        ],
                        "signature": "Transfer(address,address,uint256)"
                    },
                    "id": 4,
                    "logData": "0x00000000000000000000000000000000000000000000000000000000466ca6d8",
                    "logDecoded": true,
                    "operation": "EVENT",
                    "revert": false,
                    "status": true,
                    "topics": [
                        "0xddf252ad1be2c89b69c2b068fc378daa952ba7f163c4a11628f55a4df523b3ef",
                        "0x00000000000000000000000015652636f3898f550b257b89926d5566821c32e1",
                        "0x000000000000000000000000684cab58299b44373a186109e10fa6abd34dcc12"
                    ]
                },
                "nodeType": 1
            },
            "5": {
                "event": {
                    "contract": "0x5c7bcd6e7de5423a257d81b442095a1a6ced35c5",
                    "decodedLog": {
                        "name": "FilledRelay",
                        "params": [
                            {
                                "name": "originChainId",
                                "type": "uint256",
                                "value": "42,161"
                            },
                            {
                                "name": "depositId",
                                "type": "uint32",
                                "value": "1,119,638"
                            },
                            {
                                "name": "depositor",
                                "type": "address",
                                "value": "0x1231deb6f5749ef6ce6943a275a1d3e7486f4eae"
                            },
                            {
                                "name": "amount",
                                "type": "uint256",
                                "value": "1,185,254,572"
                            },
                            {
                                "name": "totalFilledAmount",
                                "type": "uint256",
                                "value": "1,185,254,572"
                            },
                            {
                                "name": "fillAmount",
                                "type": "uint256",
                                "value": "1,185,254,572"
                            },
                            {
                                "name": "repaymentChainId",
                                "type": "uint256",
                                "value": "1"
                            },
                            {
                                "name": "destinationChainId",
                                "type": "uint256",
                                "value": "1"
                            },
                            {
                                "name": "relayerFeePct",
                                "type": "int64",
                                "value": "2,765,142,218,915,650"
                            },
                            {
                                "name": "realizedLpFeePct",
                                "type": "int64",
                                "value": "380,892,276,744,333"
                            },
                            {
                                "name": "destinationToken",
                                "type": "address",
                                "value": "0xa0b86991c6218b36c1d19d4a2e9eb0ce3606eb48"
                            },
                            {
                                "name": "relayer",
                                "type": "address",
                                "value": "0x15652636f3898f550b257b89926d5566821c32e1"
                            },
                            {
                                "name": "recipient",
                                "type": "address",
                                "value": "0x684cab58299b44373a186109e10fa6abd34dcc12"
                            },
                            {
                                "name": "message",
                                "type": "bytes",
                                "value": "0x"
                            },
                            {
                                "name": "updatableRelayData",
                                "type": "(address,bytes,int64,bool,int256)",
                                "value": [
                                    {
                                        "name": "recipient",
                                        "type": "address",
                                        "value": "0x684cab58299b44373a186109e10fa6abd34dcc12"
                                    },
                                    {
                                        "name": "message",
                                        "type": "bytes",
                                        "value": "0x"
                                    },
                                    {
                                        "name": "relayerFeePct",
                                        "type": "int64",
                                        "value": "2,765,142,218,915,650"
                                    },
                                    {
                                        "name": "isSlowRelay",
                                        "type": "bool",
                                        "value": false
                                    },
                                    {
                                        "name": "payoutAdjustmentPct",
                                        "type": "int256",
                                        "value": "0"
                                    }
                                ]
                            }
                        ],
                        "signature": "FilledRelay(uint256,uint256,uint256,uint256,uint256,uint256,int64,int64,uint32,address,address,address,address,bytes,(address,bytes,int64,bool,int256))"
                    },
                    "id": 5,
                    "logData": "0x0000000000000000000000000000000000000000000000000000000046a58cac0000000000000000000000000000000000000000000000000000000046a58cac0000000000000000000000000000000000000000000000000000000046a58cac000000000000000000000000000000000000000000000000000000000000000100000000000000000000000000000000000000000000000000000000000000010000000000000000000000000000000000000000000000000009d2e1d7b63f4200000000000000000000000000000000000000000000000000015a6b64da608d000000000000000000000000a0b86991c6218b36c1d19d4a2e9eb0ce3606eb4800000000000000000000000015652636f3898f550b257b89926d5566821c32e1000000000000000000000000684cab58299b44373a186109e10fa6abd34dcc12000000000000000000000000000000000000000000000000000000000000018000000000000000000000000000000000000000000000000000000000000001a00000000000000000000000000000000000000000000000000000000000000000000000000000000000000000684cab58299b44373a186109e10fa6abd34dcc1200000000000000000000000000000000000000000000000000000000000000a00000000000000000000000000000000000000000000000000009d2e1d7b63f42000000000000000000000000000000000000000000000000000000000000000000000000000000000000000000000000000000000000000000000000000000000000000000000000000000000000000000000000000000000000000000000000",
                    "logDecoded": true,
                    "operation": "EVENT",
                    "revert": false,
                    "status": true,
                    "topics": [
                        "0x8ab9dc6c19fe88e69bc70221b339c84332752fdd49591b7c51e66bae3947b73c",
                        "0x000000000000000000000000000000000000000000000000000000000000a4b1",
                        "0x0000000000000000000000000000000000000000000000000000000000111596",
                        "0x0000000000000000000000001231deb6f5749ef6ce6943a275a1d3e7486f4eae"
                    ]
                },
                "nodeType": 1
            }
        },
        "gasFlame": [
            {
                "children": [
                    {
                        "children": [
                            {
                                "children": [],
                                "depth": 0,
                                "name": "Initial Gas",
                                "value": 24192
                            },
                            {
                                "children": [
                                    {
                                        "children": [
                                            {
                                                "children": [
                                                    {
                                                        "children": [],
                                                        "depth": 3,
                                                        "name": "transferFrom",
                                                        "value": 44697
                                                    }
                                                ],
                                                "depth": 2,
                                                "name": "transferFrom",
                                                "value": 51992
                                            }
                                        ],
                                        "depth": 1,
                                        "name": "fillRelay",
                                        "value": 107190
                                    }
                                ],
                                "depth": 0,
                                "name": "Executed Gas",
                                "value": 112154
                            }
                        ],
                        "depth": -1,
                        "name": "Actual Gas Used",
                        "value": 133546
                    },
                    {
                        "children": [],
                        "depth": -1,
                        "name": "Refunded Gas",
                        "value": 2800
                    }
                ],
                "depth": -2,
                "name": "Total Gas",
                "value": 136346
            }
        ],
        "isConfirmed": true,
        "mainTrace": [
            {
                "children": [
                    {
                        "children": [
                            {
                                "children": [
                                    {
                                        "children": [
                                            {
                                                "children": [
                                                    {
                                                        "children": [],
                                                        "depth": 4,
                                                        "id": 4,
                                                        "order": 4
                                                    }
                                                ],
                                                "depth": 3,
                                                "id": 3,
                                                "order": 3
                                            }
                                        ],
                                        "depth": 2,
                                        "id": 2,
                                        "order": 2
                                    },
                                    {
                                        "children": [],
                                        "depth": 2,
                                        "id": 5,
                                        "order": 5
                                    }
                                ],
                                "depth": 1,
                                "id": 1,
                                "order": 1
                            }
                        ],
                        "depth": 0,
                        "id": 0,
                        "order": 0
                    }
                ],
                "depth": -1,
                "id": -1,
                "order": -1
            }
        ],
        "mainTraceNodeCount": 6,
        "parentIdMap": {
            "0": -1,
            "1": 0,
            "2": 1,
            "3": 2,
            "4": 3,
            "5": 1
        },
        "tidyTrace": [
            {
                "children": [
                    {
                        "children": [
                            {
                                "children": [
                                    {
                                        "children": [
                                            {
                                                "children": [
                                                    {
                                                        "children": [],
                                                        "depth": 4,
                                                        "id": 4,
                                                        "order": 4
                                                    }
                                                ],
                                                "depth": 3,
                                                "id": 3,
                                                "order": 3
                                            }
                                        ],
                                        "depth": 2,
                                        "id": 2,
                                        "order": 2
                                    },
                                    {
                                        "children": [],
                                        "depth": 2,
                                        "id": 5,
                                        "order": 5
                                    }
                                ],
                                "depth": 1,
                                "id": 1,
                                "order": 1
                            }
                        ],
                        "depth": 0,
                        "id": 0,
                        "order": 0
                    }
                ],
                "depth": -1,
                "id": -1,
                "order": -1
            }
        ],
        "tidyTraceNodeCount": 6
    },
    "state_change": {
        "stateChanges": [
            {
                "address": "0x5c7bcd6e7de5423a257d81b442095a1a6ced35c5",
                "erc": "",
                "slots": [
                    {
                        "current": "0x00000000000000000000000000000000000000000000000000009260456855b9",
                        "key": "0x18f452ad2bf024eccf8adb096c8319aca7930b3e7fcfd59afce622bff5c94b58",
                        "prev": "0x0000000000000000000000000000000000000000000000000000925ffec9ac8c"
                    },
                    {
                        "current": "0x0000000000000000000000000000000000000000000000000000000046a58cac",
                        "key": "0x8b141deaef70a6d5735d5b9a28a808e30bc5ac12c319410b75e45d5dbb047875",
                        "prev": "0x0000000000000000000000000000000000000000000000000000000000000000"
                    }
                ],
                "storageVariables": [
                    {
                        "name": "fillCounter",
                        "type": "mapping(address => uint256)",
                        "value": {
                            "pairs": [
                                {
                                    "key": "0xa0b86991c6218b36c1d19d4a2e9eb0ce3606eb48",
                                    "value": {
                                        "current": "160942178981305",
                                        "prev": "160940994178188",
                                        "typeTag": 1
                                    }
                                }
                            ],
                            "typeTag": 4
                        }
                    },
                    {
                        "name": "relayFills",
                        "type": "mapping(bytes32 => uint256)",
                        "value": {
                            "pairs": [
                                {
                                    "key": "0x12de82dc767b5f6882cc6dc95dfceb86728712c4f2cf35f410be015798f05c6c",
                                    "value": {
                                        "current": "1185254572",
                                        "prev": "0",
                                        "typeTag": 1
                                    }
                                }
                            ],
                            "typeTag": 4
                        }
                    }
                ]
            },
            {
                "address": "0xa0b86991c6218b36c1d19d4a2e9eb0ce3606eb48",
                "erc": "ERC-20",
                "slots": [
                    {
                        "current": "0x0000000000000000000000000000000000000000000845951613f91e0ea31ded",
                        "key": "0x5b30ae9d94376ce25ea5c3cd8873ad0534cbfcf03bca5484db05f591b5f26e64",
                        "prev": "0x0000000000000000000000000000000000000000000845951613f91e550fc4c5"
                    },
                    {
                        "current": "0x0000000000000000000000000000000000000000000000000000000642fa005d",
                        "key": "0xe3640931dce4b69a31e8673adb3f083501237552db0bbc40a1f0d0fea70123ed",
                        "prev": "0x000000000000000000000000000000000000000000000000000000068966a735"
                    },
                    {
                        "current": "0x00000000000000000000000000000000000000000000000000000000466ca6d8",
                        "key": "0xd9191126ef96478751c4401bf56cfe205a91751c52f32c8b46994c358d613dc4",
                        "prev": "0x0000000000000000000000000000000000000000000000000000000000000000"
                    }
                ],
                "storageVariables": [
                    {
                        "name": "allowed",
                        "type": "mapping(address => mapping(address => uint256))",
                        "value": {
                            "pairs": [
                                {
                                    "key": "0x15652636f3898f550b257b89926d5566821c32e1",
                                    "value": {
                                        "pairs": [
                                            {
                                                "key": "0x5c7bcd6e7de5423a257d81b442095a1a6ced35c5",
                                                "value": {
                                                    "current": "9999999999991022522408429",
                                                    "prev": "9999999999991023703934149",
                                                    "typeTag": 1
                                                }
                                            }
                                        ],
                                        "typeTag": 4
                                    }
                                }
                            ],
                            "typeTag": 4
                        }
                    },
                    {
                        "name": "balances",
                        "type": "mapping(address => uint256)",
                        "value": {
                            "pairs": [
                                {
                                    "key": "0x15652636f3898f550b257b89926d5566821c32e1",
                                    "value": {
                                        "current": "26893484125",
                                        "prev": "28075009845",
                                        "typeTag": 1
                                    }
                                },
                                {
                                    "key": "0x684cab58299b44373a186109e10fa6abd34dcc12",
                                    "value": {
                                        "current": "1181525720",
                                        "prev": "0",
                                        "typeTag": 1
                                    }
                                }
                            ],
                            "typeTag": 4
                        }
                    }
                ]
            }
        ]
    }
}