{
    "balance_change": {
        "balanceChanges": [
            {
                "account": "0xc2225f94caf8059f38b8b949c3c311e149074608",
                "assets": [
                    {
                        "address": "0x03cb0021808442ad5efb61197966aef72a1def96",
                        "amount": "0.002",
                        "iconUrl": "",
                        "isERC1155": false,
                        "isERC721": false,
                        "sign": false,
                        "value": ""
                    }
                ]
            },
            {
                "account": "0x105631c6cddba84d12fa916f0045b1f97ec9c268",
                "assets": [
                    {
                        "address": "0x03cb0021808442ad5efb61197966aef72a1def96",
                        "amount": "0.00182",
                        "iconUrl": "",
                        "isERC1155": false,
                        "isERC721": false,
                        "sign": true,
                        "value": ""
                    }
                ]
            },
            {
                "account": "0x62a364f7cba3be8fc9dcfdde12cabec8244af381",
                "assets": [
                    {
                        "address": "0x03cb0021808442ad5efb61197966aef72a1def96",
                        "amount": "0.00018",
                        "iconUrl": "",
                        "isERC1155": false,
                        "isERC721": false,
                        "sign": true,
                        "value": ""
                    }
                ]
            }
        ]
    },
    "profile": {
        "basic_info": {
            "baseFee": "",
            "blockNumber": 6975143,
            "callData": "0xd96a094a00000000000000000000000000000000000000000000000000071afd498d0000",
            "debugEnable": true,
            "errorInfo": "",
            "eventCount": 2,
            "feeRecipient": "0x52bc44d5378309ee2abf1539bf71de1b7d7be3b5",
            "formatValue": "0",
            "gasLimit": 1000000,
            "gasPrice": "10",
            "gasUsed": 149081,
            "intTxnCount": 3,
            "internalRevert": false,
            "internalRevertMessage": "",
            "isContractCreation": false,
            "isFlashloan": false,
            "maxFee": "",
            "nonce": 83,
            "overwritedBlockNumber": -1,
            "priorityFee": "",
            "receiver": "0x105631c6cddba84d12fa916f0045b1f97ec9c268",
            "revertMessage": "",
            "sender": "0xc2225f94caf8059f38b8b949c3c311e149074608",
            "simulationEnable": true,
            "sourceTxnHash": "0x9d3b59a4c32648b9f9d7bef26cfc99f2ec85b3f6beb1d33f02e8dccb3a6b3da0",
            "status": true,
            "timestamp": "2018-12-29T17:39:04Z",
            "transactionFee": "0.00149081",
            "txnHash": "0x9d3b59a4c32648b9f9d7bef26cfc99f2ec85b3f6beb1d33f02e8dccb3a6b3da0",
            "txnIndex": 6,
            "type": 0,
            "value": "0"
        },
        "fund_flow": [
            {
                "amount": "0.002",
                "from": "0xc2225f94caf8059f38b8b949c3c311e149074608",
                "id": 1,
                "isERC1155": false,
                "isERC721": false,
                "isReverted": false,
                "order": 1,
                "to": "0x105631c6cddba84d12fa916f0045b1f97ec9c268",
                "token": "0x03cb0021808442ad5efb61197966aef72a1def96"
            },
            {
                "amount": "0.00018",
                "from": "0x105631c6cddba84d12fa916f0045b1f97ec9c268",
                "id": 2,
                "isERC1155": false,
                "isERC721": false,
                "isReverted": false,
                "order": 2,
                "to": "0x62a364f7cba3be8fc9dcfdde12cabec8244af381",
                "token": "0x03cb0021808442ad5efb61197966aef72a1def96"
            }
        ],
        "token_infos": [
            {
                "address": "0x03cb0021808442ad5efb61197966aef72a1def96",
                "decimals": 18
            },
            {
                "address": "0xc02aaa39b223fe8d0a0e5c4f27ead9083c756cc2",
                "decimals": 18
            },
            {
                "address": "0xeeeeeeeeeeeeeeeeeeeeeeeeeeeeeeeeeeeeeeee",
                "decimals": 18
            }
        ]
    },
    "address_label": {
        "labels": [
            {
                "address": "0x0000000000000000000000000000000000000003",
                "label": "Precompiled"
            },
            {
                "address": "0x0000000000000000000000000000000000000004",
                "label": "Precompiled"
            },
            {
                "address": "0xeeeeeeeeeeeeeeeeeeeeeeeeeeeeeeeeeeeeeeee",
                "label": "Ether"
            },
            {
                "address": "0x03cb0021808442ad5efb61197966aef72a1def96",
                "label": "coToken (coToken)"
            },
            {
                "address": "0x0000000000000000000000000000000000000001",
                "label": "Precompiled"
            },
            {
                "address": "0x0000000000000000000000000000000000000002",
                "label": "Precompiled"
            }
        ]
    },
    "trace": {
        "accountLabels": null,
        "dataMap": {
            "-1": {
                "invocation": {
                    "address": "0xc2225f94caf8059f38b8b949c3c311e149074608",
                    "callData": "",
                    "decodedMethod": null,
                    "errorInfo": "",
                    "fromAddress": "",
                    "gasUsed": 0,
                    "id": -1,
                    "methodDecoded": false,
                    "operation": "",
                    "output": "",
                    "revert": false,
                    "revertMessage": "",
                    "selector": "",
                    "status": false,
                    "value": ""
                },
                "nodeType": 0
            },
            "0": {
                "invocation": {
                    "address": "0x105631c6cddba84d12fa916f0045b1f97ec9c268",
                    "callData": "0x00000000000000000000000000000000000000000000000000071afd498d0000",
                    "decodedMethod": {
                        "callParams": [
                            {
                                "name": "amount",
                                "type": "uint256",
                                "value": "2,000,000,000,000,000"
                            }
                        ],
                        "constructorArguments": "",
                        "name": "buy",
                        "returnParams": [],
                        "signature": "buy(uint256)"
                    },
                    "errorInfo": "",
                    "fromAddress": "0xc2225f94caf8059f38b8b949c3c311e149074608",
                    "gasUsed": 149081,
                    "id": 0,
                    "methodDecoded": true,
                    "operation": "CALL",
                    "output": "",
                    "revert": false,
                    "revertMessage": "",
                    "selector": "0xd96a094a",
                    "status": true,
                    "value": "0"
                },
                "nodeType": 0
            },
            "1": {
                "invocation": {
                    "address": "0x03cb0021808442ad5efb61197966aef72a1def96",
                    "callData": "0x000000000000000000000000c2225f94caf8059f38b8b949c3c311e14907460800000000000000000000000000000000000000000000000000071afd498d0000",
                    "decodedMethod": {
                        "callParams": [
                            {
                                "name": "_to",
                                "type": "address",
                                "value": "0xc2225f94caf8059f38b8b949c3c311e149074608"
                            },
                            {
                                "name": "_value",
                                "type": "uint256",
                                "value": "2,000,000,000,000,000"
                            }
                        ],
                        "constructorArguments": "",
                        "name": "deduct",
                        "returnParams": [
                            {
                                "name": "success",
                                "type": "bool",
                                "value": true
                            }
                        ],
                        "signature": "deduct(address,uint256)"
                    },
                    "errorInfo": "",
                    "fromAddress": "0x105631c6cddba84d12fa916f0045b1f97ec9c268",
                    "gasUsed": 14038,
                    "id": 1,
                    "methodDecoded": true,
                    "operation": "CALL",
                    "output": "0x0000000000000000000000000000000000000000000000000000000000000001",
                    "revert": false,
                    "revertMessage": "",
                    "selector": "0x47055321",
                    "status": true,
                    "value": "0"
                },
                "nodeType": 0
            },
            "2": {
                "event": {
                    "contract": "0x03cb0021808442ad5efb61197966aef72a1def96",
                    "decodedLog": {
                        "name": "Transfer",
                        "params": [
                            {
                                "name": "from",
                                "type": "address",
                                "value": "0xc2225f94caf8059f38b8b949c3c311e149074608"
                            },
                            {
                                "name": "to",
                                "type": "address",
                                "value": "0x105631c6cddba84d12fa916f0045b1f97ec9c268"
                            },
                            {
                                "decimalAvailable": true,
                                "name": "value",
                                "type": "uint256",
                                "value": "2,000,000,000,000,000"
                            }
                        ],
                        "signature": "Transfer(address,address,uint256)"
                    },
                    "id": 2,
                    "logData": "0x00000000000000000000000000000000000000000000000000071afd498d0000",
                    "logDecoded": true,
                    "operation": "EVENT",
                    "revert": false,
                    "status": true,
                    "topics": [
                        "0xddf252ad1be2c89b69c2b068fc378daa952ba7f163c4a11628f55a4df523b3ef",
                        "0x000000000000000000000000c2225f94caf8059f38b8b949c3c311e149074608",
                        "0x000000000000000000000000105631c6cddba84d12fa916f0045b1f97ec9c268"
                    ]
                },
                "nodeType": 1
            },
            "3": {
                "invocation": {
                    "address": "0x62a364f7cba3be8fc9dcfdde12cabec8244af381",
                    "callData": "0x1c67ba448c7a853617be449c73cf54631e7768f09c6215586afc05ed1bc66d6900000000000000000000000000000000000000000000000000006d23ad5f800000000000000000000000000000000000000000000000000000003691d6afc000",
                    "decodedMethod": null,
                    "errorInfo": "",
                    "fromAddress": "0x105631c6cddba84d12fa916f0045b1f97ec9c268",
                    "gasUsed": 33340,
                    "id": 3,
                    "methodDecoded": false,
                    "operation": "CALL",
                    "output": "",
                    "revert": false,
                    "revertMessage": "",
                    "selector": "0x7f2dc9b5",
                    "status": true,
                    "value": "0"
                },
                "nodeType": 0
            },
            "4": {
                "invocation": {
                    "address": "0x03cb0021808442ad5efb61197966aef72a1def96",
                    "callData": "0x000000000000000000000000105631c6cddba84d12fa916f0045b1f97ec9c2680000000000000000000000000000000000000000000000000000a3b5840f4000",
                    "decodedMethod": {
                        "callParams": [
                            {
                                "name": "_to",
                                "type": "address",
                                "value": "0x105631c6cddba84d12fa916f0045b1f97ec9c268"
                            },
                            {
                                "name": "_value",
                                "type": "uint256",
                                "value": "180,000,000,000,000"
                            }
                        ],
                        "constructorArguments": "",
                        "name": "deduct",
                        "returnParams": [
                            {
                                "name": "success",
                                "type": "bool",
                                "value": true
                            }
                        ],
                        "signature": "deduct(address,uint256)"
                    },
                    "errorInfo": "",
                    "fromAddress": "0x62a364f7cba3be8fc9dcfdde12cabec8244af381",
                    "gasUsed": 14038,
                    "id": 4,
                    "methodDecoded": true,
                    "operation": "CALL",
                    "output": "0x0000000000000000000000000000000000000000000000000000000000000001",
                    "revert": false,
                    "revertMessage": "",
                    "selector": "0x47055321",
                    "status": true,
                    "value": "0"
                },
                "nodeType": 0
            },
            "5": {
                "event": {
                    "contract": "0x03cb0021808442ad5efb61197966aef72a1def96",
                    "decodedLog": {
                        "name": "Transfer",
                        "params": [
                            {
                                "name": "from",
                                "type": "address",
                                "value": "0x105631c6cddba84d12fa916f0045b1f97ec9c268"
                            },
                            {
                                "name": "to",
                                "type": "address",
                                "value": "0x62a364f7cba3be8fc9dcfdde12cabec8244af381"
                            },
                            {
                                "decimalAvailable": true,
                                "name": "value",
                                "type": "uint256",
                                "value": "180,000,000,000,000"
                            }
                        ],
                        "signature": "Transfer(address,address,uint256)"
                    },
                    "id": 5,
                    "logData": "0x0000000000000000000000000000000000000000000000000000a3b5840f4000",
                    "logDecoded": true,
                    "operation": "EVENT",
                    "revert": false,
                    "status": true,
                    "topics": [
                        "0xddf252ad1be2c89b69c2b068fc378daa952ba7f163c4a11628f55a4df523b3ef",
                        "0x000000000000000000000000105631c6cddba84d12fa916f0045b1f97ec9c268",
                        "0x00000000000000000000000062a364f7cba3be8fc9dcfdde12cabec8244af381"
                    ]
                },
                "nodeType": 1
            }
        },
        "gasFlame": [
            {
                "children": [
                    {
                        "children": [
                            {
                                "children": [],
                                "depth": 0,
                                "name": "Initial Gas",
                                "value": 21720
                            },
                            {
                                "children": [
                                    {
                                        "children": [],
                                        "depth": 1,
                                        "name": "deduct",
                                        "value": 14038
                                    },
                                    {
                                        "children": [
                                            {
                                                "children": [],
                                                "depth": 2,
                                                "name": "deduct",
                                                "value": 14038
                                            }
                                        ],
                                        "depth": 1,
                                        "name": "0x7f2dc9b5",
                                        "value": 33340
                                    }
                                ],
                                "depth": 0,
                                "name": "Executed Gas",
                                "value": 127361
                            }
                        ],
                        "depth": -1,
                        "name": "Actual Gas Used",
                        "value": 149081
                    },
                    {
                        "children": [],
                        "depth": -1,
                        "name": "Refunded Gas",
                        "value": 0
                    }
                ],
                "depth": -2,
                "name": "Total Gas",
                "value": 149081
            }
        ],
        "isConfirmed": true,
        "mainTrace": [
            {
                "children": [
                    {
                        "children": [
                            {
                                "children": [
                                    {
                                        "children": [],
                                        "depth": 2,
                                        "id": 2,
                                        "order": 2
                                    }
                                ],
                                "depth": 1,
                                "id": 1,
                                "order": 1
                            },
                            {
                                "children": [
                                    {
                                        "children": [
                                            {
                                                "children": [],
                                                "depth": 3,
                                                "id": 5,
                                                "order": 5
                                            }
                                        ],
                                        "depth": 2,
                                        "id": 4,
                                        "order": 4
                                    }
                                ],
                                "depth": 1,
                                "id": 3,
                                "order": 3
                            }
                        ],
                        "depth": 0,
                        "id": 0,
                        "order": 0
                    }
                ],
                "depth": -1,
                "id": -1,
                "order": -1
            }
        ],
        "mainTraceNodeCount": 6,
        "parentIdMap": {
            "0": -1,
            "1": 0,
            "2": 1,
            "3": 0,
            "4": 3,
            "5": 4
        },
        "tidyTrace": [
            {
                "children": [
                    {
                        "children": [
                            {
                                "children": [
                                    {
                                        "children": [],
                                        "depth": 2,
                                        "id": 2,
                                        "order": 2
                                    }
                                ],
                                "depth": 1,
                                "id": 1,
                                "order": 1
                            },
                            {
                                "children": [
                                    {
                                        "children": [
                                            {
                                                "children": [],
                                                "depth": 3,
                                                "id": 5,
                                                "order": 5
                                            }
                                        ],
                                        "depth": 2,
                                        "id": 4,
                                        "order": 4
                                    }
                                ],
                                "depth": 1,
                                "id": 3,
                                "order": 3
                            }
                        ],
                        "depth": 0,
                        "id": 0,
                        "order": 0
                    }
                ],
                "depth": -1,
                "id": -1,
                "order": -1
            }
        ],
        "tidyTraceNodeCount": 6
    },
    "state_change": {
        "stateChanges": [
            {
                "address": "0x03cb0021808442ad5efb61197966aef72a1def96",
                "erc": "",
                "slots": [
                    {
                        "current": "0x0000000000000000000000000000000000000000000000001c17bfd3d75e5316",
                        "key": "0x493eab9d10213c35a808858ce8668cf065602ea3a8189aff8c1b8fc67b798517",
                        "prev": "0x0000000000000000000000000000000000000000000000001c1edad120eb5316"
                    },
                    {
                        "current": "0x00000000000000000000000000000000000000000000006e77a5dab6bc19a451",
                        "key": "0x2a71b876ef1f9c4b8447a29f9cde472c80227b8618a02ea4659c6713f31d06d7",
                        "prev": "0x00000000000000000000000000000000000000000000006e779f636ef69be451"
                    },
                    {
                        "current": "0x00000000000000000000000000000000000000000000000804b9f0415a698000",
                        "key": "0x2ae1781e2b15e18335d21665ed35f55f4489bb9a28dc7e5c8dd1f7abd6dbaf1c",
                        "prev": "0x00000000000000000000000000000000000000000000000804b94c8bd65a4000"
                    }
                ],
                "storageVariables": []
            },
            {
                "address": "0x105631c6cddba84d12fa916f0045b1f97ec9c268",
                "erc": "",
                "slots": [
                    {
                        "current": "0x00000000000000000000000000000000000000000000000033c39f3cd4350000",
                        "key": "0x5cd204f7110b08ab554d1420549ad7f662704f6644a95a4f5083ca2f7f6510db",
                        "prev": "0x00000000000000000000000000000000000000000000000033bc843f8aa80000"
                    },
                    {
                        "current": "0x0007c11600a9e5fd7ce30007c1199f201e40000000083d81cba3400700000009",
                        "key": "0x0000000000000000000000000000000000000000000000000000000000000008",
                        "prev": "0x0007c11600a9e5fd7ce30007c1199f201e40000000083d7ab0a5f67a00000009"
                    },
                    {
                        "current": "0x00000000000000000000000000000000000000000000000000000000006a6ea7",
                        "key": "0x0000000000000000000000000000000000000000000000000000000000000004",
                        "prev": "0x00000000000000000000000000000000000000000000000000000000006a6ea5"
                    },
                    {
                        "current": "0x0000000000000000000000000000000000000000000001fe7a05508ba02c0000",
                        "key": "0x000000000000000000000000000000000000000000000000000000000000000e",
                        "prev": "0x0000000000000000000000000000000000000000000001fe79fe358e569f0000"
                    },
                    {
                        "current": "0x000000000000000000000000000578b670affb69000000219b82062261730000",
                        "key": "0x0000000000000000000000000000000000000000000000000000000000000007",
                        "prev": "0x000000000000000000000000000578b1b8e0e326000000219b812bdb06b40000"
                    },
                    {
                        "current": "0x001e000bad9bcaa27dc00000000000005c27b19f000000005c26e86300000002",
                        "key": "0x0000000000000000000000000000000000000000000000000000000000000006",
                        "prev": "0x001e000bad9bcaa27dc00000000000005c27b19a000000005c26e86300000002"
                    },
                    {
                        "current": "0x00000000000000005c27b138c2225f94caf8059f38b8b949c3c311e149074608",
                        "key": "0x0000000000000000000000000000000000000000000000000000000000000003",
                        "prev": "0x00000000000000005c27b12aa84242e40cca0c3b8461686d491bf3408646a960"
                    },
                    {
                        "current": "0x00000000000000000000000000000000000000000000003fb266f12baf0a8000",
                        "key": "0x127044a6432f2f1d14813694921b666bcb3871fb180b70d98066120dfccda6d0",
                        "prev": "0x00000000000000000000000000000000000000000000003fb2663b458e160000"
                    },
                    {
                        "current": "0x000000000000000000000000000000000000000000000000065bf04cdb8f0000",
                        "key": "0xb37d8be5c69aaaee282818b86615f009fc46acf8f924e10205243db06ffea194",
                        "prev": "0x000000000000000000000000000000000000000000000000065bc101aa07c000"
                    }
                ],
                "storageVariables": []
            },
            {
                "address": "0x62a364f7cba3be8fc9dcfdde12cabec8244af381",
                "erc": "",
                "slots": [
                    {
                        "current": "0x0000000000000000000000000000000000000000000000000b207ea978034000",
                        "key": "0xa39e6a95964fef82ff6a8f1dd251781fced933559845d1dd98c28ad290445059",
                        "prev": "0x0000000000000000000000000000000000000000000000000b201185caa3c000"
                    },
                    {
                        "current": "0x00000000000000000000000000000000000000000000000002d1213c0c824000",
                        "key": "0x5086d1b0cc243d4dd58f1780b842add1d81a37e33a7841ab4abb04f22c19c276",
                        "prev": "0x00000000000000000000000000000000000000000000000002d0eaaa35d28000"
                    },
                    {
                        "current": "0x0000000000000000000000000000000000000000000000000728fcb2496a4000",
                        "key": "0xdaa93fd43b97b9c84c14233efe85faf40bdc3d8546d744fa774e724738d078a1",
                        "prev": "0x00000000000000000000000000000000000000000000000007288f8e9c0ac000"
                    }
                ],
                "storageVariables": []
            }
        ]
    }
}