{
    "balance_change": {
        "balanceChanges": [
            {
                "account": "0x86bd4499209916811c364e2807f84d8410763dfb",
                "assets": [
                    {
                        "address": "0xf3b3cad094b89392fce5fafd40bc03b80f2bc624",
                        "amount": "178,726",
                        "iconUrl": "",
                        "isERC1155": false,
                        "isERC721": false,
                        "sign": false,
                        "value": ""
                    }
                ]
            },
            {
                "account": "0x274f3c32c90517975e29dfc209a23f315c1e5fc7",
                "assets": [
                    {
                        "address": "0xf3b3cad094b89392fce5fafd40bc03b80f2bc624",
                        "amount": "178,726",
                        "iconUrl": "",
                        "isERC1155": false,
                        "isERC721": false,
                        "sign": true,
                        "value": ""
                    }
                ]
            }
        ]
    },
    "profile": {
        "basic_info": {
            "baseFee": "",
            "blockNumber": 7868676,
            "callData": "0xa9059cbb000000000000000000000000274f3c32c90517975e29dfc209a23f315c1e5fc70000000000000000000000000000000000000000000025d8c180f51180d80000",
            "debugEnable": true,
            "errorInfo": "",
            "eventCount": 1,
            "feeRecipient": "0x5a0b54d5dc17e0aadc383d2db43b0a0d3e029c4c",
            "formatValue": "0",
            "gasLimit": 45000,
            "gasPrice": "40",
            "gasUsed": 22594,
            "intTxnCount": 0,
            "internalRevert": false,
            "internalRevertMessage": "",
            "isContractCreation": false,
            "isFlashloan": false,
            "maxFee": "",
            "nonce": 119,
            "overwritedBlockNumber": -1,
            "priorityFee": "",
            "receiver": "0xf3b3cad094b89392fce5fafd40bc03b80f2bc624",
            "revertMessage": "",
            "sender": "0x86bd4499209916811c364e2807f84d8410763dfb",
            "simulationEnable": true,
            "sourceTxnHash": "0x9d0fb5ebf84bdbe924bfb19e45f453dc823ecfb23a4ae3ba639fc6bc67da050a",
            "status": true,
            "timestamp": "2019-05-31T17:37:28Z",
            "transactionFee": "0.00090376",
            "txnHash": "0x9d0fb5ebf84bdbe924bfb19e45f453dc823ecfb23a4ae3ba639fc6bc67da050a",
            "txnIndex": 2,
            "type": 0,
            "value": "0"
        },
        "fund_flow": [
            {
                "amount": "178,726",
                "from": "0x86bd4499209916811c364e2807f84d8410763dfb",
                "id": 1,
                "isERC1155": false,
                "isERC721": false,
                "isReverted": false,
                "order": 1,
                "to": "0x274f3c32c90517975e29dfc209a23f315c1e5fc7",
                "token": "0xf3b3cad094b89392fce5fafd40bc03b80f2bc624"
            }
        ],
        "token_infos": [
            {
                "address": "0xc02aaa39b223fe8d0a0e5c4f27ead9083c756cc2",
                "decimals": 18
            },
            {
                "address": "0xf3b3cad094b89392fce5fafd40bc03b80f2bc624",
                "decimals": 18
            },
            {
                "address": "0xeeeeeeeeeeeeeeeeeeeeeeeeeeeeeeeeeeeeeeee",
                "decimals": 18
            }
        ]
    },
    "address_label": {
        "labels": [
            {
                "address": "0x274f3c32c90517975e29dfc209a23f315c1e5fc7",
                "label": "Hotbit"
            },
            {
                "address": "0x86bd4499209916811c364e2807f84d8410763dfb",
                "label": "HOTBIT"
            },
            {
                "address": "0xf3b3cad094b89392fce5fafd40bc03b80f2bc624",
                "label": "PATRON (PAT)"
            },
            {
                "address": "0x0000000000000000000000000000000000000001",
                "label": "Precompiled"
            },
            {
                "address": "0x0000000000000000000000000000000000000002",
                "label": "Precompiled"
            },
            {
                "address": "0x0000000000000000000000000000000000000003",
                "label": "Precompiled"
            },
            {
                "address": "0x0000000000000000000000000000000000000004",
                "label": "Precompiled"
            },
            {
                "address": "0xeeeeeeeeeeeeeeeeeeeeeeeeeeeeeeeeeeeeeeee",
                "label": "Ether"
            }
        ]
    },
    "trace": {
        "accountLabels": null,
        "dataMap": {
            "-1": {
                "invocation": {
                    "address": "0x86bd4499209916811c364e2807f84d8410763dfb",
                    "callData": "",
                    "decodedMethod": null,
                    "errorInfo": "",
                    "fromAddress": "",
                    "gasUsed": 0,
                    "id": -1,
                    "methodDecoded": false,
                    "operation": "",
                    "output": "",
                    "revert": false,
                    "revertMessage": "",
                    "selector": "",
                    "status": false,
                    "value": ""
                },
                "nodeType": 0
            },
            "0": {
                "invocation": {
                    "address": "0xf3b3cad094b89392fce5fafd40bc03b80f2bc624",
                    "callData": "0x000000000000000000000000274f3c32c90517975e29dfc209a23f315c1e5fc70000000000000000000000000000000000000000000025d8c180f51180d80000",
                    "decodedMethod": {
                        "callParams": [
                            {
                                "name": "_to",
                                "type": "address",
                                "value": "0x274f3c32c90517975e29dfc209a23f315c1e5fc7"
                            },
                            {
                                "decimalAvailable": true,
                                "name": "_value",
                                "type": "uint256",
                                "value": "178,726,000,000,000,000,000,000"
                            }
                        ],
                        "constructorArguments": "",
                        "name": "transfer",
                        "returnParams": [
                            {
                                "name": "success",
                                "type": "bool",
                                "value": true
                            }
                        ],
                        "signature": "transfer(address,uint256)"
                    },
                    "errorInfo": "",
                    "fromAddress": "0x86bd4499209916811c364e2807f84d8410763dfb",
                    "gasUsed": 22594,
                    "id": 0,
                    "methodDecoded": true,
                    "operation": "CALL",
                    "output": "0x0000000000000000000000000000000000000000000000000000000000000001",
                    "revert": false,
                    "revertMessage": "",
                    "selector": "0xa9059cbb",
                    "status": true,
                    "value": "0"
                },
                "nodeType": 0
            },
            "1": {
                "event": {
                    "contract": "0xf3b3cad094b89392fce5fafd40bc03b80f2bc624",
                    "decodedLog": {
                        "name": "Transfer",
                        "params": [
                            {
                                "name": "_from",
                                "type": "address",
                                "value": "0x86bd4499209916811c364e2807f84d8410763dfb"
                            },
                            {
                                "name": "_to",
                                "type": "address",
                                "value": "0x274f3c32c90517975e29dfc209a23f315c1e5fc7"
                            },
                            {
                                "decimalAvailable": true,
                                "name": "_value",
                                "type": "uint256",
                                "value": "178,726,000,000,000,000,000,000"
                            }
                        ],
                        "signature": "Transfer(address,address,uint256)"
                    },
                    "id": 1,
                    "logData": "0x0000000000000000000000000000000000000000000025d8c180f51180d80000",
                    "logDecoded": true,
                    "operation": "EVENT",
                    "revert": false,
                    "status": true,
                    "topics": [
                        "0xddf252ad1be2c89b69c2b068fc378daa952ba7f163c4a11628f55a4df523b3ef",
                        "0x00000000000000000000000086bd4499209916811c364e2807f84d8410763dfb",
                        "0x000000000000000000000000274f3c32c90517975e29dfc209a23f315c1e5fc7"
                    ]
                },
                "nodeType": 1
            }
        },
        "gasFlame": [
            {
                "children": [
                    {
                        "children": [
                            {
                                "children": [],
                                "depth": 0,
                                "name": "Initial Gas",
                                "value": 23320
                            },
                            {
                                "children": [],
                                "depth": 0,
                                "name": "Executed Gas",
                                "value": 14274
                            }
                        ],
                        "depth": -1,
                        "name": "Actual Gas Used",
                        "value": 22594
                    },
                    {
                        "children": [],
                        "depth": -1,
                        "name": "Refunded Gas",
                        "value": 15000
                    }
                ],
                "depth": -2,
                "name": "Total Gas",
                "value": 37594
            }
        ],
        "isConfirmed": true,
        "mainTrace": [
            {
                "children": [
                    {
                        "children": [
                            {
                                "children": [],
                                "depth": 1,
                                "id": 1,
                                "order": 1
                            }
                        ],
                        "depth": 0,
                        "id": 0,
                        "order": 0
                    }
                ],
                "depth": -1,
                "id": -1,
                "order": -1
            }
        ],
        "mainTraceNodeCount": 2,
        "parentIdMap": {
            "0": -1,
            "1": 0
        },
        "tidyTrace": [
            {
                "children": [
                    {
                        "children": [
                            {
                                "children": [],
                                "depth": 1,
                                "id": 1,
                                "order": 1
                            }
                        ],
                        "depth": 0,
                        "id": 0,
                        "order": 0
                    }
                ],
                "depth": -1,
                "id": -1,
                "order": -1
            }
        ],
        "tidyTraceNodeCount": 2
    },
    "state_change": {
        "stateChanges": [
            {
                "address": "0xf3b3cad094b89392fce5fafd40bc03b80f2bc624",
                "erc": "ERC-20",
                "slots": [
                    {
                        "current": "0x0000000000000000000000000000000000000000000000000000000000000000",
                        "key": "0x22d5c61380147e2f8cf9f0657a8acdc038d5baf7f47a8c66e8800bba1d3bb2e3",
                        "prev": "0x0000000000000000000000000000000000000000000025d8c180f51180d80000"
                    },
                    {
                        "current": "0x000000000000000000000000000000000000000000040d9ff18bdc8f3b2261d3",
                        "key": "0x89f5594d7e152e39c228ef81ca3512f4f88927861d7d88d2fff85962614be1ac",
                        "prev": "0x00000000000000000000000000000000000000000003e7c7300ae77dba4a61d3"
                    }
                ],
                "storageVariables": [
                    {
                        "name": "balances",
                        "type": "mapping(address => uint256)",
                        "value": {
                            "pairs": [
                                {
                                    "key": "0x274f3c32c90517975e29dfc209a23f315c1e5fc7",
                                    "value": {
                                        "current": "4900044480291234539266515",
                                        "prev": "4721318480291234539266515",
                                        "typeTag": 1
                                    }
                                },
                                {
                                    "key": "0x86bd4499209916811c364e2807f84d8410763dfb",
                                    "value": {
                                        "current": "0",
                                        "prev": "178726000000000000000000",
                                        "typeTag": 1
                                    }
                                }
                            ],
                            "typeTag": 4
                        }
                    }
                ]
            }
        ]
    }
}