{
    "balance_change": {
        "balanceChanges": [
            {
                "account": "0x59384d4e49171d7eeb7ea7a962df5376b35283e8",
                "assets": [
                    {
                        "address": "0xd48b633045af65ff636f3c6edd744748351e020d",
                        "amount": "1",
                        "iconUrl": "",
                        "isERC1155": false,
                        "isERC721": false,
                        "sign": false,
                        "value": ""
                    }
                ]
            },
            {
                "account": "0xe4eaeceaef1ae033e93df1ac91082d1a5748846b",
                "assets": [
                    {
                        "address": "0xd48b633045af65ff636f3c6edd744748351e020d",
                        "amount": "1",
                        "iconUrl": "",
                        "isERC1155": false,
                        "isERC721": false,
                        "sign": true,
                        "value": ""
                    }
                ]
            }
        ]
    },
    "profile": {
        "basic_info": {
            "baseFee": "",
            "blockNumber": 6480166,
            "callData": "0x19fb361f00000000000000000000000059384d4e49171d7eeb7ea7a962df5376b35283e8000000000000000000000000e4eaeceaef1ae033e93df1ac91082d1a5748846b0000000000000000000000000000000000000000000000004563918244f40000000000000000000000000000000000000000000000000000000000000000008000000000000000000000000000000000000000000000000000000000000000400000000000000000000000009b363f165a255500d9bfd091c620d4c7fdf0e069000000000000000000004e200000007530000000000000000000000000000000",
            "debugEnable": true,
            "errorInfo": "",
            "eventCount": 5,
            "feeRecipient": "0x5a0b54d5dc17e0aadc383d2db43b0a0d3e029c4c",
            "formatValue": "0",
            "gasLimit": 405042,
            "gasPrice": "6",
            "gasUsed": 236151,
            "intTxnCount": 8,
            "internalRevert": false,
            "internalRevertMessage": "",
            "isContractCreation": false,
            "isFlashloan": false,
            "maxFee": "",
            "nonce": 427,
            "overwritedBlockNumber": -1,
            "priorityFee": "",
            "receiver": "0xd48b633045af65ff636f3c6edd744748351e020d",
            "revertMessage": "",
            "sender": "0x59384d4e49171d7eeb7ea7a962df5376b35283e8",
            "simulationEnable": true,
            "sourceTxnHash": "0x9d75d82f3df7a50c1e70aafbba20f2640359ae7ffc668fb0ee9fdf36fd18ac30",
            "status": true,
            "timestamp": "2018-10-09T02:24:44Z",
            "transactionFee": "0.001416906",
            "txnHash": "0x9d75d82f3df7a50c1e70aafbba20f2640359ae7ffc668fb0ee9fdf36fd18ac30",
            "txnIndex": 71,
            "type": 0,
            "value": "0"
        },
        "fund_flow": [
            {
                "amount": "4",
                "from": "0xe4eaeceaef1ae033e93df1ac91082d1a5748846b",
                "id": 1,
                "isERC1155": false,
                "isERC721": false,
                "isReverted": false,
                "order": 1,
                "to": "0x59384d4e49171d7eeb7ea7a962df5376b35283e8",
                "token": "0xd48b633045af65ff636f3c6edd744748351e020d"
            },
            {
                "amount": "5",
                "from": "0x59384d4e49171d7eeb7ea7a962df5376b35283e8",
                "id": 2,
                "isERC1155": false,
                "isERC721": false,
                "isReverted": false,
                "order": 2,
                "to": "0xe4eaeceaef1ae033e93df1ac91082d1a5748846b",
                "token": "0xd48b633045af65ff636f3c6edd744748351e020d"
            }
        ],
        "token_infos": [
            {
                "address": "0xd48b633045af65ff636f3c6edd744748351e020d",
                "decimals": 18
            },
            {
                "address": "0xeeeeeeeeeeeeeeeeeeeeeeeeeeeeeeeeeeeeeeee",
                "decimals": 18
            },
            {
                "address": "0xc02aaa39b223fe8d0a0e5c4f27ead9083c756cc2",
                "decimals": 18
            }
        ]
    },
    "address_label": {
        "labels": [
            {
                "address": "0x0000000000000000000000000000000000000004",
                "label": "Precompiled"
            },
            {
                "address": "0xeeeeeeeeeeeeeeeeeeeeeeeeeeeeeeeeeeeeeeee",
                "label": "Ether"
            },
            {
                "address": "0xd48b633045af65ff636f3c6edd744748351e020d",
                "label": "Zethr Token"
            },
            {
                "address": "0x0000000000000000000000000000000000000001",
                "label": "Precompiled"
            },
            {
                "address": "0x0000000000000000000000000000000000000002",
                "label": "Precompiled"
            },
            {
                "address": "0x0000000000000000000000000000000000000003",
                "label": "Precompiled"
            }
        ]
    },
    "trace": {
        "accountLabels": null,
        "dataMap": {
            "-1": {
                "invocation": {
                    "address": "0x59384d4e49171d7eeb7ea7a962df5376b35283e8",
                    "callData": "",
                    "decodedMethod": null,
                    "errorInfo": "",
                    "fromAddress": "",
                    "gasUsed": 0,
                    "id": -1,
                    "methodDecoded": false,
                    "operation": "",
                    "output": "",
                    "revert": false,
                    "revertMessage": "",
                    "selector": "",
                    "status": false,
                    "value": ""
                },
                "nodeType": 0
            },
            "0": {
                "invocation": {
                    "address": "0xd48b633045af65ff636f3c6edd744748351e020d",
                    "callData": "0x00000000000000000000000059384d4e49171d7eeb7ea7a962df5376b35283e8000000000000000000000000e4eaeceaef1ae033e93df1ac91082d1a5748846b0000000000000000000000000000000000000000000000004563918244f40000000000000000000000000000000000000000000000000000000000000000008000000000000000000000000000000000000000000000000000000000000000400000000000000000000000009b363f165a255500d9bfd091c620d4c7fdf0e069000000000000000000004e200000007530000000000000000000000000000000",
                    "decodedMethod": {
                        "callParams": [
                            {
                                "name": "_from",
                                "type": "address",
                                "value": "0x59384d4e49171d7eeb7ea7a962df5376b35283e8"
                            },
                            {
                                "name": "_to",
                                "type": "address",
                                "value": "0xe4eaeceaef1ae033e93df1ac91082d1a5748846b"
                            },
                            {
                                "name": "_amountOfTokens",
                                "type": "uint256",
                                "value": "5,000,000,000,000,000,000"
                            },
                            {
                                "name": "_data",
                                "type": "bytes",
                                "value": "0x0000000000000000000000009b363f165a255500d9bfd091c620d4c7fdf0e069000000000000000000004e200000007530000000000000000000000000000000"
                            }
                        ],
                        "constructorArguments": "",
                        "name": "transferTo",
                        "returnParams": [],
                        "signature": "transferTo(address,address,uint256,bytes)"
                    },
                    "errorInfo": "",
                    "fromAddress": "0x59384d4e49171d7eeb7ea7a962df5376b35283e8",
                    "gasUsed": 236151,
                    "id": 0,
                    "methodDecoded": true,
                    "operation": "CALL",
                    "output": "",
                    "revert": false,
                    "revertMessage": "",
                    "selector": "0x19fb361f",
                    "status": true,
                    "value": "0"
                },
                "nodeType": 0
            },
            "1": {
                "invocation": {
                    "address": "0xe4eaeceaef1ae033e93df1ac91082d1a5748846b",
                    "callData": "0x00000000000000000000000059384d4e49171d7eeb7ea7a962df5376b35283e80000000000000000000000000000000000000000000000004563918244f40000000000000000000000000000000000000000000000000000000000000000006000000000000000000000000000000000000000000000000000000000000000400000000000000000000000009b363f165a255500d9bfd091c620d4c7fdf0e069000000000000000000004e200000007530000000000000000000000000000000",
                    "decodedMethod": {
                        "callParams": [
                            {
                                "name": "_from",
                                "type": "address",
                                "value": "0x59384d4e49171d7eeb7ea7a962df5376b35283e8"
                            },
                            {
                                "name": "_value",
                                "type": "uint256",
                                "value": "5,000,000,000,000,000,000"
                            },
                            {
                                "name": "_data",
                                "type": "bytes",
                                "value": "0x0000000000000000000000009b363f165a255500d9bfd091c620d4c7fdf0e069000000000000000000004e200000007530000000000000000000000000000000"
                            }
                        ],
                        "constructorArguments": "",
                        "name": "tokenFallback",
                        "returnParams": [],
                        "signature": "tokenFallback(address,uint256,bytes)"
                    },
                    "errorInfo": "",
                    "fromAddress": "0xd48b633045af65ff636f3c6edd744748351e020d",
                    "gasUsed": 197248,
                    "id": 1,
                    "methodDecoded": true,
                    "operation": "CALL",
                    "output": "0x0000000000000000000000000000000000000000000000000000000000000000",
                    "revert": false,
                    "revertMessage": "",
                    "selector": "0xc0ee0b8a",
                    "status": true,
                    "value": "0"
                },
                "nodeType": 0
            },
            "10": {
                "event": {
                    "contract": "0xd48b633045af65ff636f3c6edd744748351e020d",
                    "decodedLog": {
                        "name": "Transfer",
                        "params": [
                            {
                                "name": "from",
                                "type": "address",
                                "value": "0xe4eaeceaef1ae033e93df1ac91082d1a5748846b"
                            },
                            {
                                "name": "to",
                                "type": "address",
                                "value": "0x59384d4e49171d7eeb7ea7a962df5376b35283e8"
                            },
                            {
                                "decimalAvailable": true,
                                "name": "tokens",
                                "type": "uint256",
                                "value": "4,000,000,000,000,000,000"
                            }
                        ],
                        "signature": "Transfer(address,address,uint256)"
                    },
                    "id": 10,
                    "logData": "0x0000000000000000000000000000000000000000000000003782dace9d900000",
                    "logDecoded": true,
                    "operation": "EVENT",
                    "revert": false,
                    "status": true,
                    "topics": [
                        "0xddf252ad1be2c89b69c2b068fc378daa952ba7f163c4a11628f55a4df523b3ef",
                        "0x000000000000000000000000e4eaeceaef1ae033e93df1ac91082d1a5748846b",
                        "0x00000000000000000000000059384d4e49171d7eeb7ea7a962df5376b35283e8"
                    ]
                },
                "nodeType": 1
            },
            "11": {
                "event": {
                    "contract": "0x9b363f165a255500d9bfd091c620d4c7fdf0e069",
                    "decodedLog": {
                        "name": "Result",
                        "params": [
                            {
                                "name": "player",
                                "type": "address",
                                "value": "0x59384d4e49171d7eeb7ea7a962df5376b35283e8"
                            },
                            {
                                "name": "amountWagered",
                                "type": "uint256",
                                "value": "5,000,000,000,000,000,000"
                            },
                            {
                                "name": "amountOffset",
                                "type": "int256",
                                "value": "1,000,000,000,000,000,000"
                            }
                        ],
                        "signature": "Result(address,uint256,int256)"
                    },
                    "id": 11,
                    "logData": "0x00000000000000000000000059384d4e49171d7eeb7ea7a962df5376b35283e80000000000000000000000000000000000000000000000004563918244f400000000000000000000000000000000000000000000000000000de0b6b3a7640000",
                    "logDecoded": true,
                    "operation": "EVENT",
                    "revert": false,
                    "status": true,
                    "topics": [
                        "0xf0f6fad6fe832d6020e4a67f95a01da773273bfa73d22830d8e5103bb2949434"
                    ]
                },
                "nodeType": 1
            },
            "12": {
                "event": {
                    "contract": "0x9b363f165a255500d9bfd091c620d4c7fdf0e069",
                    "decodedLog": {
                        "name": "Wager",
                        "params": [
                            {
                                "name": "player",
                                "type": "address",
                                "value": "0x59384d4e49171d7eeb7ea7a962df5376b35283e8"
                            },
                            {
                                "name": "amount",
                                "type": "uint256",
                                "value": "5,000,000,000,000,000,000"
                            },
                            {
                                "name": "data",
                                "type": "bytes",
                                "value": "0x000000000000000000004e200000007530000000000000000000000000000000"
                            }
                        ],
                        "signature": "Wager(address,uint256,bytes)"
                    },
                    "id": 12,
                    "logData": "0x00000000000000000000000059384d4e49171d7eeb7ea7a962df5376b35283e80000000000000000000000000000000000000000000000004563918244f4000000000000000000000000000000000000000000000000000000000000000000600000000000000000000000000000000000000000000000000000000000000020000000000000000000004e200000007530000000000000000000000000000000",
                    "logDecoded": true,
                    "operation": "EVENT",
                    "revert": false,
                    "status": true,
                    "topics": [
                        "0x6655c9fc001d8f4610b21ee4bc30f262d337013abfa2dd88dff64454b8d54a16"
                    ]
                },
                "nodeType": 1
            },
            "13": {
                "event": {
                    "contract": "0xd48b633045af65ff636f3c6edd744748351e020d",
                    "decodedLog": {
                        "name": "Transfer",
                        "params": [
                            {
                                "name": "from",
                                "type": "address",
                                "value": "0x59384d4e49171d7eeb7ea7a962df5376b35283e8"
                            },
                            {
                                "name": "to",
                                "type": "address",
                                "value": "0xe4eaeceaef1ae033e93df1ac91082d1a5748846b"
                            },
                            {
                                "decimalAvailable": true,
                                "name": "tokens",
                                "type": "uint256",
                                "value": "5,000,000,000,000,000,000"
                            }
                        ],
                        "signature": "Transfer(address,address,uint256)"
                    },
                    "id": 13,
                    "logData": "0x0000000000000000000000000000000000000000000000004563918244f40000",
                    "logDecoded": true,
                    "operation": "EVENT",
                    "revert": false,
                    "status": true,
                    "topics": [
                        "0xddf252ad1be2c89b69c2b068fc378daa952ba7f163c4a11628f55a4df523b3ef",
                        "0x00000000000000000000000059384d4e49171d7eeb7ea7a962df5376b35283e8",
                        "0x000000000000000000000000e4eaeceaef1ae033e93df1ac91082d1a5748846b"
                    ]
                },
                "nodeType": 1
            },
            "2": {
                "invocation": {
                    "address": "0xd48b633045af65ff636f3c6edd744748351e020d",
                    "callData": "0x00000000000000000000000059384d4e49171d7eeb7ea7a962df5376b35283e8",
                    "decodedMethod": {
                        "callParams": [
                            {
                                "name": "user",
                                "type": "address",
                                "value": "0x59384d4e49171d7eeb7ea7a962df5376b35283e8"
                            }
                        ],
                        "constructorArguments": "",
                        "name": "getUserAverageDividendRate",
                        "returnParams": [
                            {
                                "name": "",
                                "type": "uint256",
                                "value": "327,686,432,167,823,208,320"
                            }
                        ],
                        "signature": "getUserAverageDividendRate(address)"
                    },
                    "errorInfo": "",
                    "fromAddress": "0xe4eaeceaef1ae033e93df1ac91082d1a5748846b",
                    "gasUsed": 2262,
                    "id": 2,
                    "methodDecoded": true,
                    "operation": "CALL",
                    "output": "0x000000000000000000000000000000000000000000000011c39011e6463cef80",
                    "revert": false,
                    "revertMessage": "",
                    "selector": "0xf8ead7cf",
                    "status": true,
                    "value": "0"
                },
                "nodeType": 0
            },
            "3": {
                "invocation": {
                    "address": "0x9b363f165a255500d9bfd091c620d4c7fdf0e069",
                    "callData": "0x00000000000000000000000059384d4e49171d7eeb7ea7a962df5376b35283e80000000000000000000000000000000000000000000000004563918244f40000000000000000000000000000000000000000000000000000000000000000000300000000000000000000000000000000000000000000000000000000000000800000000000000000000000000000000000000000000000000000000000000020000000000000000000004e200000007530000000000000000000000000000000",
                    "decodedMethod": {
                        "callParams": [
                            {
                                "name": "_player",
                                "type": "address",
                                "value": "0x59384d4e49171d7eeb7ea7a962df5376b35283e8"
                            },
                            {
                                "name": "_tokenCount",
                                "type": "uint256",
                                "value": "5,000,000,000,000,000,000"
                            },
                            {
                                "name": "_tier",
                                "type": "uint256",
                                "value": "3"
                            },
                            {
                                "name": "_data",
                                "type": "bytes",
                                "value": "0x000000000000000000004e200000007530000000000000000000000000000000"
                            }
                        ],
                        "constructorArguments": "",
                        "name": "execute",
                        "returnParams": [],
                        "signature": "execute(address,uint256,uint256,bytes)"
                    },
                    "errorInfo": "",
                    "fromAddress": "0xe4eaeceaef1ae033e93df1ac91082d1a5748846b",
                    "gasUsed": 182777,
                    "id": 3,
                    "methodDecoded": true,
                    "operation": "CALL",
                    "output": "",
                    "revert": false,
                    "revertMessage": "",
                    "selector": "0x82916381",
                    "status": true,
                    "value": "0"
                },
                "nodeType": 0
            },
            "4": {
                "invocation": {
                    "address": "0x1c0e678b1a8f705eada1b4412e1ebea533c56516",
                    "callData": "0x000000000000000000000000e4eaeceaef1ae033e93df1ac91082d1a5748846b",
                    "decodedMethod": null,
                    "errorInfo": "",
                    "fromAddress": "0x9b363f165a255500d9bfd091c620d4c7fdf0e069",
                    "gasUsed": 756,
                    "id": 4,
                    "methodDecoded": false,
                    "operation": "CALL",
                    "output": "0x0000000000000000000000000000000000000000000000000000000000000001",
                    "revert": false,
                    "revertMessage": "",
                    "selector": "0x17ff5dc9",
                    "status": true,
                    "value": "0"
                },
                "nodeType": 0
            },
            "5": {
                "invocation": {
                    "address": "0xe4eaeceaef1ae033e93df1ac91082d1a5748846b",
                    "callData": "0x0000000000000000000000009b363f165a255500d9bfd091c620d4c7fdf0e069",
                    "decodedMethod": null,
                    "errorInfo": "",
                    "fromAddress": "0x9b363f165a255500d9bfd091c620d4c7fdf0e069",
                    "gasUsed": 1921,
                    "id": 5,
                    "methodDecoded": false,
                    "operation": "CALL",
                    "output": "0x00000000000000000000000000000000000000000000003635c9adc5dea00000",
                    "revert": false,
                    "revertMessage": "",
                    "selector": "0x5cf6bcbd",
                    "status": true,
                    "value": "0"
                },
                "nodeType": 0
            },
            "6": {
                "event": {
                    "contract": "0x9b363f165a255500d9bfd091c620d4c7fdf0e069",
                    "decodedLog": {
                        "name": "WheelResult",
                        "params": [
                            {
                                "name": "_blockNumber",
                                "type": "uint256",
                                "value": "6,480,159"
                            },
                            {
                                "name": "_target",
                                "type": "address",
                                "value": "0x59384d4e49171d7eeb7ea7a962df5376b35283e8"
                            },
                            {
                                "name": "_bets",
                                "type": "uint40[5]",
                                "value": [
                                    "20,000",
                                    "30,000",
                                    "0",
                                    "0",
                                    "0"
                                ]
                            },
                            {
                                "name": "_winAmount",
                                "type": "uint256",
                                "value": "4,000,000,000,000,000,000"
                            },
                            {
                                "name": "_lossAmount",
                                "type": "uint256",
                                "value": "2,970,000,000,000,000,000"
                            },
                            {
                                "name": "_winCategory",
                                "type": "uint256",
                                "value": "2"
                            }
                        ],
                        "signature": "WheelResult(uint256,address,uint40[5],uint256,uint256,uint256)"
                    },
                    "id": 6,
                    "logData": "0x000000000000000000000000000000000000000000000000000000000062e11f00000000000000000000000059384d4e49171d7eeb7ea7a962df5376b35283e80000000000000000000000000000000000000000000000000000000000004e2000000000000000000000000000000000000000000000000000000000000075300000000000000000000000000000000000000000000000000000000000000000000000000000000000000000000000000000000000000000000000000000000000000000000000000000000000000000000000000000000000000000000000000000000000000000000000000000000000000000000000003782dace9d90000000000000000000000000000000000000000000000000000029378f43a6e900000000000000000000000000000000000000000000000000000000000000000002",
                    "logDecoded": true,
                    "operation": "EVENT",
                    "revert": false,
                    "status": true,
                    "topics": [
                        "0xb207a48fe715a6c856b1d4aa4729a7ab7432faa0bc2ecb364d1092dbf0fc3014"
                    ]
                },
                "nodeType": 1
            },
            "7": {
                "invocation": {
                    "address": "0x1c0e678b1a8f705eada1b4412e1ebea533c56516",
                    "callData": "0x0000000000000000000000000000000000000000000000000000000000000003",
                    "decodedMethod": null,
                    "errorInfo": "",
                    "fromAddress": "0x9b363f165a255500d9bfd091c620d4c7fdf0e069",
                    "gasUsed": 887,
                    "id": 7,
                    "methodDecoded": false,
                    "operation": "CALL",
                    "output": "0x000000000000000000000000e4eaeceaef1ae033e93df1ac91082d1a5748846b",
                    "revert": false,
                    "revertMessage": "",
                    "selector": "0x3cb3d027",
                    "status": true,
                    "value": "0"
                },
                "nodeType": 0
            },
            "8": {
                "invocation": {
                    "address": "0xe4eaeceaef1ae033e93df1ac91082d1a5748846b",
                    "callData": "0x0000000000000000000000000000000000000000000000003782dace9d90000000000000000000000000000059384d4e49171d7eeb7ea7a962df5376b35283e8000000000000000000000000000000000000000000000000006a94d74f430000000000000000000000000000959009defc9dd73fefb4e2972c737cb0034915150000000000000000000000000000000000000000000000004563918244f40000",
                    "decodedMethod": null,
                    "errorInfo": "",
                    "fromAddress": "0x9b363f165a255500d9bfd091c620d4c7fdf0e069",
                    "gasUsed": 60946,
                    "id": 8,
                    "methodDecoded": false,
                    "operation": "CALL",
                    "output": "",
                    "revert": false,
                    "revertMessage": "",
                    "selector": "0xa8ffa37f",
                    "status": true,
                    "value": "0"
                },
                "nodeType": 0
            },
            "9": {
                "invocation": {
                    "address": "0xd48b633045af65ff636f3c6edd744748351e020d",
                    "callData": "0x00000000000000000000000059384d4e49171d7eeb7ea7a962df5376b35283e80000000000000000000000000000000000000000000000003782dace9d900000",
                    "decodedMethod": {
                        "callParams": [
                            {
                                "name": "_toAddress",
                                "type": "address",
                                "value": "0x59384d4e49171d7eeb7ea7a962df5376b35283e8"
                            },
                            {
                                "decimalAvailable": true,
                                "name": "_amountOfTokens",
                                "type": "uint256",
                                "value": "4,000,000,000,000,000,000"
                            }
                        ],
                        "constructorArguments": "",
                        "name": "transfer",
                        "returnParams": [
                            {
                                "name": "",
                                "type": "bool",
                                "value": true
                            }
                        ],
                        "signature": "transfer(address,uint256)"
                    },
                    "errorInfo": "",
                    "fromAddress": "0xe4eaeceaef1ae033e93df1ac91082d1a5748846b",
                    "gasUsed": 41065,
                    "id": 9,
                    "methodDecoded": true,
                    "operation": "CALL",
                    "output": "0x0000000000000000000000000000000000000000000000000000000000000001",
                    "revert": false,
                    "revertMessage": "",
                    "selector": "0xa9059cbb",
                    "status": true,
                    "value": "0"
                },
                "nodeType": 0
            }
        },
        "gasFlame": [
            {
                "children": [
                    {
                        "children": [
                            {
                                "children": [],
                                "depth": 0,
                                "name": "Initial Gas",
                                "value": 26712
                            },
                            {
                                "children": [
                                    {
                                        "children": [
                                            {
                                                "children": [],
                                                "depth": 2,
                                                "name": "getUserAverageDividendRate",
                                                "value": 2262
                                            },
                                            {
                                                "children": [
                                                    {
                                                        "children": [],
                                                        "depth": 3,
                                                        "name": "0x17ff5dc9",
                                                        "value": 756
                                                    },
                                                    {
                                                        "children": [],
                                                        "depth": 3,
                                                        "name": "0x5cf6bcbd",
                                                        "value": 1921
                                                    },
                                                    {
                                                        "children": [],
                                                        "depth": 3,
                                                        "name": "0x3cb3d027",
                                                        "value": 887
                                                    },
                                                    {
                                                        "children": [
                                                            {
                                                                "children": [],
                                                                "depth": 4,
                                                                "name": "transfer",
                                                                "value": 41065
                                                            }
                                                        ],
                                                        "depth": 3,
                                                        "name": "0xa8ffa37f",
                                                        "value": 60946
                                                    }
                                                ],
                                                "depth": 2,
                                                "name": "execute",
                                                "value": 182777
                                            }
                                        ],
                                        "depth": 1,
                                        "name": "tokenFallback",
                                        "value": 197248
                                    }
                                ],
                                "depth": 0,
                                "name": "Executed Gas",
                                "value": 239439
                            }
                        ],
                        "depth": -1,
                        "name": "Actual Gas Used",
                        "value": 236151
                    },
                    {
                        "children": [],
                        "depth": -1,
                        "name": "Refunded Gas",
                        "value": 30000
                    }
                ],
                "depth": -2,
                "name": "Total Gas",
                "value": 266151
            }
        ],
        "isConfirmed": true,
        "mainTrace": [
            {
                "children": [
                    {
                        "children": [
                            {
                                "children": [
                                    {
                                        "children": [],
                                        "depth": 2,
                                        "id": 2,
                                        "order": 2
                                    },
                                    {
                                        "children": [
                                            {
                                                "children": [],
                                                "depth": 3,
                                                "id": 4,
                                                "order": 4
                                            },
                                            {
                                                "children": [],
                                                "depth": 3,
                                                "id": 5,
                                                "order": 5
                                            },
                                            {
                                                "children": [],
                                                "depth": 3,
                                                "id": 6,
                                                "order": 6
                                            },
                                            {
                                                "children": [],
                                                "depth": 3,
                                                "id": 7,
                                                "order": 7
                                            },
                                            {
                                                "children": [
                                                    {
                                                        "children": [
                                                            {
                                                                "children": [],
                                                                "depth": 5,
                                                                "id": 10,
                                                                "order": 10
                                                            }
                                                        ],
                                                        "depth": 4,
                                                        "id": 9,
                                                        "order": 9
                                                    }
                                                ],
                                                "depth": 3,
                                                "id": 8,
                                                "order": 8
                                            },
                                            {
                                                "children": [],
                                                "depth": 3,
                                                "id": 11,
                                                "order": 11
                                            },
                                            {
                                                "children": [],
                                                "depth": 3,
                                                "id": 12,
                                                "order": 12
                                            }
                                        ],
                                        "depth": 2,
                                        "id": 3,
                                        "order": 3
                                    }
                                ],
                                "depth": 1,
                                "id": 1,
                                "order": 1
                            },
                            {
                                "children": [],
                                "depth": 1,
                                "id": 13,
                                "order": 13
                            }
                        ],
                        "depth": 0,
                        "id": 0,
                        "order": 0
                    }
                ],
                "depth": -1,
                "id": -1,
                "order": -1
            }
        ],
        "mainTraceNodeCount": 14,
        "parentIdMap": {
            "0": -1,
            "1": 0,
            "10": 9,
            "11": 3,
            "12": 3,
            "13": 0,
            "2": 1,
            "3": 1,
            "4": 3,
            "5": 3,
            "6": 3,
            "7": 3,
            "8": 3,
            "9": 8
        },
        "tidyTrace": [
            {
                "children": [
                    {
                        "children": [
                            {
                                "children": [
                                    {
                                        "children": [],
                                        "depth": 2,
                                        "id": 2,
                                        "order": 2
                                    },
                                    {
                                        "children": [
                                            {
                                                "children": [],
                                                "depth": 3,
                                                "id": 4,
                                                "order": 4
                                            },
                                            {
                                                "children": [],
                                                "depth": 3,
                                                "id": 5,
                                                "order": 5
                                            },
                                            {
                                                "children": [],
                                                "depth": 3,
                                                "id": 6,
                                                "order": 6
                                            },
                                            {
                                                "children": [],
                                                "depth": 3,
                                                "id": 7,
                                                "order": 7
                                            },
                                            {
                                                "children": [
                                                    {
                                                        "children": [
                                                            {
                                                                "children": [],
                                                                "depth": 5,
                                                                "id": 10,
                                                                "order": 10
                                                            }
                                                        ],
                                                        "depth": 4,
                                                        "id": 9,
                                                        "order": 9
                                                    }
                                                ],
                                                "depth": 3,
                                                "id": 8,
                                                "order": 8
                                            },
                                            {
                                                "children": [],
                                                "depth": 3,
                                                "id": 11,
                                                "order": 11
                                            },
                                            {
                                                "children": [],
                                                "depth": 3,
                                                "id": 12,
                                                "order": 12
                                            }
                                        ],
                                        "depth": 2,
                                        "id": 3,
                                        "order": 3
                                    }
                                ],
                                "depth": 1,
                                "id": 1,
                                "order": 1
                            },
                            {
                                "children": [],
                                "depth": 1,
                                "id": 13,
                                "order": 13
                            }
                        ],
                        "depth": 0,
                        "id": 0,
                        "order": 0
                    }
                ],
                "depth": -1,
                "id": -1,
                "order": -1
            }
        ],
        "tidyTraceNodeCount": 14
    },
    "state_change": {
        "stateChanges": [
            {
                "address": "0x9b363f165a255500d9bfd091c620d4c7fdf0e069",
                "erc": "",
                "slots": [
                    {
                        "current": "0x0000000000000000000000000000000000000300000062e1260000000000c350",
                        "key": "0x77b02d3052a5cd55cdebddabc776edee5f1422adc00ef1f382e7cf09adc69a72",
                        "prev": "0x0000000000000000000000000000000000000300000062e11f0000000000c350"
                    },
                    {
                        "current": "0x0000000000000000000000000000000000000000000000000000000000000000",
                        "key": "0x290decd9548b62a8d60345a988386fc84ba6bc95484008f6362f93160ef3e60d",
                        "prev": "0x00000000000000000000000059384d4e49171d7eeb7ea7a962df5376b35283e8"
                    },
                    {
                        "current": "0x00000000000000000000000000000000000000000000000000000000000000ac",
                        "key": "0xfa08c1e6147215a331af56f99c2e0cbde8cf8c46d0bab67acea6536362357331",
                        "prev": "0x00000000000000000000000000000000000000000000000000000000000000aa"
                    },
                    {
                        "current": "0x00000000000000000000000000000000000000000000000000000000000000ad",
                        "key": "0x0000000000000000000000000000000000000000000000000000000000000000",
                        "prev": "0x00000000000000000000000000000000000000000000000000000000000000ac"
                    },
                    {
                        "current": "0x00000000000000000000000059384d4e49171d7eeb7ea7a962df5376b35283e8",
                        "key": "0x290decd9548b62a8d60345a988386fc84ba6bc95484008f6362f93160ef3e60f",
                        "prev": "0x0000000000000000000000000000000000000000000000000000000000000000"
                    },
                    {
                        "current": "0x00000000000000000000000000000000000000000000000000000000000000ad",
                        "key": "0x0000000000000000000000000000000000000000000000000000000000000002",
                        "prev": "0x00000000000000000000000000000000000000000000000000000000000000ac"
                    }
                ],
                "storageVariables": []
            },
            {
                "address": "0xd48b633045af65ff636f3c6edd744748351e020d",
                "erc": "",
                "slots": [
                    {
                        "current": "0x00000000000000000000000000000000000000000000032f1d142f0731a8725d",
                        "key": "0x68b57d89db5695cee2ef36606ddaaca0655e4636922bfc3f7aa5d499fb9fd419",
                        "prev": "0x00000000000000000000000000000000000000000000032f0f3378538a44725d"
                    },
                    {
                        "current": "0x0000000000000000000000000000000000000000000001bf6f3864147980bece",
                        "key": "0x76692cb9650a285b5070553454a143c4b50d8a85c37db1dd0abf1a09d21cc738",
                        "prev": "0x0000000000000000000000000000000000000000000001c071f35017c5afce4a"
                    },
                    {
                        "current": "0x0000000000000000000000000000000000000000000037dc602d8c6d9965a1f1",
                        "key": "0x9851cd2b587b05d2327339c31c13e66fa087a92d386a788f03ddd897a8a5d76c",
                        "prev": "0x0000000000000000000000000000000000000000000037db5d72a06a4d369275"
                    },
                    {
                        "current": "0x000000000000000000000000000000000782f923c2ac8f75f83ff2e294232dd3",
                        "key": "0x8042c78c58c1ff5eb5ad34474520950881136cf5f88518ffceaf5f962a56268f",
                        "prev": "0x000000000000000000000000000000000787511aa3b1e923acaf969d0be87063"
                    },
                    {
                        "current": "0x00000000000000000000000000000000f013d0e7017f82280e22835350b8a0f8",
                        "key": "0x078333691ec567999f5df3e43a8d6d60d191beae52ec5668621746e3561198af",
                        "prev": "0x00000000000000000000000000000000f00f78f0207a287a59b2df98d8f35e68"
                    },
                    {
                        "current": "0x00000000000000000000000000000000000000000000001930c54751c9a1e8c0",
                        "key": "0xfdbe42c03a9cfcc8bc33ba2da74b49f6bdd05d8be86dcb72ac71882ddc30a887",
                        "prev": "0x0000000000000000000000000000000000000000000000193ea5fe057105e8c0"
                    }
                ],
                "storageVariables": [
                    {
                        "name": "payoutsTo_",
                        "type": "mapping(address => int256)",
                        "value": {
                            "pairs": [
                                {
                                    "key": "0x59384d4e49171d7eeb7ea7a962df5376b35283e8",
                                    "value": {
                                        "current": "9984647715329640588102042418210352595",
                                        "prev": "10007201032167871436776300255837188195",
                                        "typeTag": 1
                                    }
                                },
                                {
                                    "key": "0xe4eaeceaef1ae033e93df1ac91082d1a5748846b",
                                    "value": {
                                        "current": "319117609672058704799809398870229164280",
                                        "prev": "319095056355220473951135141032602328680",
                                        "typeTag": 1
                                    }
                                }
                            ],
                            "typeTag": 4
                        }
                    },
                    {
                        "name": "frontTokenBalanceLedger_",
                        "type": "mapping(address => uint256)",
                        "value": {
                            "pairs": [
                                {
                                    "key": "0x59384d4e49171d7eeb7ea7a962df5376b35283e8",
                                    "value": {
                                        "current": "464682895343572084928",
                                        "prev": "465682895343572084928",
                                        "typeTag": 1
                                    }
                                },
                                {
                                    "key": "0xe4eaeceaef1ae033e93df1ac91082d1a5748846b",
                                    "value": {
                                        "current": "15036191771507863089757",
                                        "prev": "15035191771507863089757",
                                        "typeTag": 1
                                    }
                                }
                            ],
                            "typeTag": 4
                        }
                    },
                    {
                        "name": "dividendTokenBalanceLedger_",
                        "type": "mapping(address => uint256)",
                        "value": {
                            "pairs": [
                                {
                                    "key": "0x59384d4e49171d7eeb7ea7a962df5376b35283e8",
                                    "value": {
                                        "current": "8253708866524175974094",
                                        "prev": "8272352339630536773194",
                                        "typeTag": 1
                                    }
                                },
                                {
                                    "key": "0xe4eaeceaef1ae033e93df1ac91082d1a5748846b",
                                    "value": {
                                        "current": "263795370603850534068721",
                                        "prev": "263776727130744173269621",
                                        "typeTag": 1
                                    }
                                }
                            ],
                            "typeTag": 4
                        }
                    }
                ]
            },
            {
                "address": "0xe4eaeceaef1ae033e93df1ac91082d1a5748846b",
                "erc": "",
                "slots": [
                    {
                        "current": "0x00000000000000000000000000000000000000000000000016c2734f97a40000",
                        "key": "0x0000000000000000000000000000000000000000000000000000000000000009",
                        "prev": "0x0000000000000000000000000000000000000000000000001657de7848610000"
                    },
                    {
                        "current": "0x00000000000000000000000000000000000000000000028bda2d8f61743c725d",
                        "key": "0x0000000000000000000000000000000000000000000000000000000000000008",
                        "prev": "0x00000000000000000000000000000000000000000000028bccb76d851c1b725d"
                    }
                ],
                "storageVariables": []
            }
        ]
    }
}