{
    "balance_change": {
        "balanceChanges": [
            {
                "account": "0xeeae2f503445ce80180bb394621ef4e7bbcc654c",
                "assets": [
                    {
                        "address": "0xcadb96858fe496bb6309622f9023ba2defb5d540",
                        "amount": "4,926.4317",
                        "iconUrl": "",
                        "isERC1155": false,
                        "isERC721": false,
                        "sign": false,
                        "value": ""
                    }
                ]
            },
            {
                "account": "0x8f20a07e0541ca2db9152d7e521aee5d639b211d",
                "assets": [
                    {
                        "address": "0xcadb96858fe496bb6309622f9023ba2defb5d540",
                        "amount": "4,926.4317",
                        "iconUrl": "",
                        "isERC1155": false,
                        "isERC721": false,
                        "sign": true,
                        "value": ""
                    }
                ]
            }
        ]
    },
    "profile": {
        "basic_info": {
            "baseFee": "",
            "blockNumber": 10346660,
            "callData": "0xa9059cbb0000000000000000000000008f20a07e0541ca2db9152d7e521aee5d639b211d00000000000000000000000000000000000000000000010b0ff949cbd3c14000",
            "debugEnable": true,
            "errorInfo": "",
            "eventCount": 1,
            "feeRecipient": "0xea674fdde714fd979de3edf0f56aa9716b898ec8",
            "formatValue": "0",
            "gasLimit": 120000,
            "gasPrice": "35",
            "gasUsed": 23853,
            "intTxnCount": 0,
            "internalRevert": false,
            "internalRevertMessage": "",
            "isContractCreation": false,
            "isFlashloan": false,
            "maxFee": "",
            "nonce": 4,
            "overwritedBlockNumber": -1,
            "priorityFee": "",
            "receiver": "0xcadb96858fe496bb6309622f9023ba2defb5d540",
            "revertMessage": "",
            "sender": "0xeeae2f503445ce80180bb394621ef4e7bbcc654c",
            "simulationEnable": true,
            "sourceTxnHash": "0x9d27f6566deaca583052d5029c94167d47c80cdbe6251a1527e265538fcf3a95",
            "status": true,
            "timestamp": "2020-06-27T07:55:35Z",
            "transactionFee": "0.000834855",
            "txnHash": "0x9d27f6566deaca583052d5029c94167d47c80cdbe6251a1527e265538fcf3a95",
            "txnIndex": 122,
            "type": 0,
            "value": "0"
        },
        "fund_flow": [
            {
                "amount": "4,926.4317",
                "from": "0xeeae2f503445ce80180bb394621ef4e7bbcc654c",
                "id": 1,
                "isERC1155": false,
                "isERC721": false,
                "isReverted": false,
                "order": 1,
                "to": "0x8f20a07e0541ca2db9152d7e521aee5d639b211d",
                "token": "0xcadb96858fe496bb6309622f9023ba2defb5d540"
            }
        ],
        "token_infos": [
            {
                "address": "0xeeeeeeeeeeeeeeeeeeeeeeeeeeeeeeeeeeeeeeee",
                "decimals": 18
            },
            {
                "address": "0xc02aaa39b223fe8d0a0e5c4f27ead9083c756cc2",
                "decimals": 18
            },
            {
                "address": "0xcadb96858fe496bb6309622f9023ba2defb5d540",
                "decimals": 18
            }
        ]
    },
    "address_label": {
        "labels": [
            {
                "address": "0x0000000000000000000000000000000000000001",
                "label": "Precompiled"
            },
            {
                "address": "0x0000000000000000000000000000000000000002",
                "label": "Precompiled"
            },
            {
                "address": "0x0000000000000000000000000000000000000003",
                "label": "Precompiled"
            },
            {
                "address": "0x0000000000000000000000000000000000000004",
                "label": "Precompiled"
            },
            {
                "address": "0xeeeeeeeeeeeeeeeeeeeeeeeeeeeeeeeeeeeeeeee",
                "label": "Ether"
            },
            {
                "address": "0xcadb96858fe496bb6309622f9023ba2defb5d540",
                "label": "SBToken (SBC)"
            }
        ]
    },
    "trace": {
        "accountLabels": null,
        "dataMap": {
            "-1": {
                "invocation": {
                    "address": "0xeeae2f503445ce80180bb394621ef4e7bbcc654c",
                    "callData": "",
                    "decodedMethod": null,
                    "errorInfo": "",
                    "fromAddress": "",
                    "gasUsed": 0,
                    "id": -1,
                    "methodDecoded": false,
                    "operation": "",
                    "output": "",
                    "revert": false,
                    "revertMessage": "",
                    "selector": "",
                    "status": false,
                    "value": ""
                },
                "nodeType": 0
            },
            "0": {
                "invocation": {
                    "address": "0xcadb96858fe496bb6309622f9023ba2defb5d540",
                    "callData": "0x0000000000000000000000008f20a07e0541ca2db9152d7e521aee5d639b211d00000000000000000000000000000000000000000000010b0ff949cbd3c14000",
                    "decodedMethod": {
                        "callParams": [
                            {
                                "name": "_to",
                                "type": "address",
                                "value": "0x8f20a07e0541ca2db9152d7e521aee5d639b211d"
                            },
                            {
                                "decimalAvailable": true,
                                "name": "_value",
                                "type": "uint256",
                                "value": "4,926,431,700,000,000,000,000"
                            }
                        ],
                        "constructorArguments": "",
                        "name": "transfer",
                        "returnParams": [
                            {
                                "name": "success",
                                "type": "bool",
                                "value": true
                            }
                        ],
                        "signature": "transfer(address,uint256)"
                    },
                    "errorInfo": "",
                    "fromAddress": "0xeeae2f503445ce80180bb394621ef4e7bbcc654c",
                    "gasUsed": 23853,
                    "id": 0,
                    "methodDecoded": true,
                    "operation": "CALL",
                    "output": "0x0000000000000000000000000000000000000000000000000000000000000001",
                    "revert": false,
                    "revertMessage": "",
                    "selector": "0xa9059cbb",
                    "status": true,
                    "value": "0"
                },
                "nodeType": 0
            },
            "1": {
                "event": {
                    "contract": "0xcadb96858fe496bb6309622f9023ba2defb5d540",
                    "decodedLog": {
                        "name": "Transfer",
                        "params": [
                            {
                                "name": "_from",
                                "type": "address",
                                "value": "0xeeae2f503445ce80180bb394621ef4e7bbcc654c"
                            },
                            {
                                "name": "_to",
                                "type": "address",
                                "value": "0x8f20a07e0541ca2db9152d7e521aee5d639b211d"
                            },
                            {
                                "decimalAvailable": true,
                                "name": "_value",
                                "type": "uint256",
                                "value": "4,926,431,700,000,000,000,000"
                            }
                        ],
                        "signature": "Transfer(address,address,uint256)"
                    },
                    "id": 1,
                    "logData": "0x00000000000000000000000000000000000000000000010b0ff949cbd3c14000",
                    "logDecoded": true,
                    "operation": "EVENT",
                    "revert": false,
                    "status": true,
                    "topics": [
                        "0xddf252ad1be2c89b69c2b068fc378daa952ba7f163c4a11628f55a4df523b3ef",
                        "0x000000000000000000000000eeae2f503445ce80180bb394621ef4e7bbcc654c",
                        "0x0000000000000000000000008f20a07e0541ca2db9152d7e521aee5d639b211d"
                    ]
                },
                "nodeType": 1
            }
        },
        "gasFlame": [
            {
                "children": [
                    {
                        "children": [
                            {
                                "children": [],
                                "depth": 0,
                                "name": "Initial Gas",
                                "value": 21668
                            },
                            {
                                "children": [],
                                "depth": 0,
                                "name": "Executed Gas",
                                "value": 17185
                            }
                        ],
                        "depth": -1,
                        "name": "Actual Gas Used",
                        "value": 23853
                    },
                    {
                        "children": [],
                        "depth": -1,
                        "name": "Refunded Gas",
                        "value": 15000
                    }
                ],
                "depth": -2,
                "name": "Total Gas",
                "value": 38853
            }
        ],
        "isConfirmed": true,
        "mainTrace": [
            {
                "children": [
                    {
                        "children": [
                            {
                                "children": [],
                                "depth": 1,
                                "id": 1,
                                "order": 1
                            }
                        ],
                        "depth": 0,
                        "id": 0,
                        "order": 0
                    }
                ],
                "depth": -1,
                "id": -1,
                "order": -1
            }
        ],
        "mainTraceNodeCount": 2,
        "parentIdMap": {
            "0": -1,
            "1": 0
        },
        "tidyTrace": [
            {
                "children": [
                    {
                        "children": [
                            {
                                "children": [],
                                "depth": 1,
                                "id": 1,
                                "order": 1
                            }
                        ],
                        "depth": 0,
                        "id": 0,
                        "order": 0
                    }
                ],
                "depth": -1,
                "id": -1,
                "order": -1
            }
        ],
        "tidyTraceNodeCount": 2
    },
    "state_change": {
        "stateChanges": [
            {
                "address": "0xcadb96858fe496bb6309622f9023ba2defb5d540",
                "erc": "ERC-20",
                "slots": [
                    {
                        "current": "0x00000000000000000000000000000000000000000020a0a89a14b53f99b6e9e5",
                        "key": "0x3183f040bd98ff65aa0eeaa3a395ffa6ee1d9967035bc5a26694df7ffe9f5fcb",
                        "prev": "0x000000000000000000000000000000000000000000209f9d8a1b6b73c5f5a9e5"
                    },
                    {
                        "current": "0x0000000000000000000000000000000000000000000000000000000000000000",
                        "key": "0x0efabbdfe7c67c54e630bac54e5b19a6a83c6735808866b3d97a36fade18bc58",
                        "prev": "0x00000000000000000000000000000000000000000000010b0ff949cbd3c14000"
                    }
                ],
                "storageVariables": [
                    {
                        "name": "balances",
                        "type": "mapping(address => uint256)",
                        "value": {
                            "pairs": [
                                {
                                    "key": "0x8f20a07e0541ca2db9152d7e521aee5d639b211d",
                                    "value": {
                                        "current": "39444315020629926171044325",
                                        "prev": "39439388588929926171044325",
                                        "typeTag": 1
                                    }
                                },
                                {
                                    "key": "0xeeae2f503445ce80180bb394621ef4e7bbcc654c",
                                    "value": {
                                        "current": "0",
                                        "prev": "4926431700000000000000",
                                        "typeTag": 1
                                    }
                                }
                            ],
                            "typeTag": 4
                        }
                    }
                ]
            }
        ]
    }
}