{
    "balance_change": {
        "balanceChanges": [
            {
                "account": "0xd551234ae421e3bcba99a0da6d736074f22192ff",
                "assets": [
                    {
                        "address": "0xbbbbca6a901c926f240b89eacb641d8aec7aeafd",
                        "amount": "22,785",
                        "iconUrl": "https://assets.blocksec.com/icon/b44c7803f30d044afb35b86db54944b24bd583cd9e51110a0bd435181df22ae6.png",
                        "isERC1155": false,
                        "isERC721": false,
                        "sign": false,
                        "value": ""
                    }
                ]
            },
            {
                "account": "0x63825c174ab367968ec60f061753d3bbd36a0d8f",
                "assets": [
                    {
                        "address": "0xbbbbca6a901c926f240b89eacb641d8aec7aeafd",
                        "amount": "22,785",
                        "iconUrl": "https://assets.blocksec.com/icon/b44c7803f30d044afb35b86db54944b24bd583cd9e51110a0bd435181df22ae6.png",
                        "isERC1155": false,
                        "isERC721": false,
                        "sign": true,
                        "value": ""
                    }
                ]
            }
        ]
    },
    "profile": {
        "basic_info": {
            "baseFee": "",
            "blockNumber": 8786346,
            "callData": "0xa9059cbb00000000000000000000000063825c174ab367968ec60f061753d3bbd36a0d8f0000000000000000000000000000000000000000000004d32d652be56b640000",
            "debugEnable": true,
            "errorInfo": "",
            "eventCount": 1,
            "feeRecipient": "0xb2930b35844a230f00e51431acae96fe543a0347",
            "formatValue": "0",
            "gasLimit": 207128,
            "gasPrice": "40",
            "gasUsed": 36679,
            "intTxnCount": 0,
            "internalRevert": false,
            "internalRevertMessage": "",
            "isContractCreation": false,
            "isFlashloan": false,
            "maxFee": "",
            "nonce": 1770885,
            "overwritedBlockNumber": -1,
            "priorityFee": "",
            "receiver": "0xbbbbca6a901c926f240b89eacb641d8aec7aeafd",
            "revertMessage": "",
            "sender": "0xd551234ae421e3bcba99a0da6d736074f22192ff",
            "simulationEnable": true,
            "sourceTxnHash": "0x9dd04c3b53f6560aaa8fa054b5a1600aae8a4922ab89c0abfeae0d88b22cfba8",
            "status": true,
            "timestamp": "2019-10-21T21:42:23Z",
            "transactionFee": "0.00146716",
            "txnHash": "0x9dd04c3b53f6560aaa8fa054b5a1600aae8a4922ab89c0abfeae0d88b22cfba8",
            "txnIndex": 6,
            "type": 0,
            "value": "0"
        },
        "fund_flow": [
            {
                "amount": "22,785",
                "from": "0xd551234ae421e3bcba99a0da6d736074f22192ff",
                "id": 1,
                "isERC1155": false,
                "isERC721": false,
                "isReverted": false,
                "order": 1,
                "to": "0x63825c174ab367968ec60f061753d3bbd36a0d8f",
                "token": "0xbbbbca6a901c926f240b89eacb641d8aec7aeafd"
            }
        ],
        "token_infos": [
            {
                "address": "0xbbbbca6a901c926f240b89eacb641d8aec7aeafd",
                "decimals": 18
            },
            {
                "address": "0xc02aaa39b223fe8d0a0e5c4f27ead9083c756cc2",
                "decimals": 18
            },
            {
                "address": "0xeeeeeeeeeeeeeeeeeeeeeeeeeeeeeeeeeeeeeeee",
                "decimals": 18
            }
        ]
    },
    "address_label": {
        "labels": [
            {
                "address": "0xeeeeeeeeeeeeeeeeeeeeeeeeeeeeeeeeeeeeeeee",
                "label": "Ether"
            },
            {
                "address": "0x63825c174ab367968ec60f061753d3bbd36a0d8f",
                "label": "Kyber: Reserve"
            },
            {
                "address": "0xd551234ae421e3bcba99a0da6d736074f22192ff",
                "label": "Binance 2"
            },
            {
                "address": "0xbbbbca6a901c926f240b89eacb641d8aec7aeafd",
                "label": "Loopring: LRC Token"
            },
            {
                "address": "0x0000000000000000000000000000000000000001",
                "label": "Precompiled"
            },
            {
                "address": "0x0000000000000000000000000000000000000002",
                "label": "Precompiled"
            },
            {
                "address": "0x0000000000000000000000000000000000000003",
                "label": "Precompiled"
            },
            {
                "address": "0x0000000000000000000000000000000000000004",
                "label": "Precompiled"
            }
        ]
    },
    "trace": {
        "accountLabels": null,
        "dataMap": {
            "-1": {
                "invocation": {
                    "address": "0xd551234ae421e3bcba99a0da6d736074f22192ff",
                    "callData": "",
                    "decodedMethod": null,
                    "errorInfo": "",
                    "fromAddress": "",
                    "gasUsed": 0,
                    "id": -1,
                    "methodDecoded": false,
                    "operation": "",
                    "output": "",
                    "revert": false,
                    "revertMessage": "",
                    "selector": "",
                    "status": false,
                    "value": ""
                },
                "nodeType": 0
            },
            "0": {
                "invocation": {
                    "address": "0xbbbbca6a901c926f240b89eacb641d8aec7aeafd",
                    "callData": "0x00000000000000000000000063825c174ab367968ec60f061753d3bbd36a0d8f0000000000000000000000000000000000000000000004d32d652be56b640000",
                    "decodedMethod": {
                        "callParams": [
                            {
                                "name": "_to",
                                "type": "address",
                                "value": "0x63825c174ab367968ec60f061753d3bbd36a0d8f"
                            },
                            {
                                "decimalAvailable": true,
                                "name": "_value",
                                "type": "uint256",
                                "value": "22,785,000,000,000,000,000,000"
                            }
                        ],
                        "constructorArguments": "",
                        "name": "transfer",
                        "returnParams": [
                            {
                                "name": "",
                                "type": "bool",
                                "value": true
                            }
                        ],
                        "signature": "transfer(address,uint256)"
                    },
                    "errorInfo": "",
                    "fromAddress": "0xd551234ae421e3bcba99a0da6d736074f22192ff",
                    "gasUsed": 36679,
                    "id": 0,
                    "methodDecoded": true,
                    "operation": "CALL",
                    "output": "0x0000000000000000000000000000000000000000000000000000000000000001",
                    "revert": false,
                    "revertMessage": "",
                    "selector": "0xa9059cbb",
                    "status": true,
                    "value": "0"
                },
                "nodeType": 0
            },
            "1": {
                "event": {
                    "contract": "0xbbbbca6a901c926f240b89eacb641d8aec7aeafd",
                    "decodedLog": {
                        "name": "Transfer",
                        "params": [
                            {
                                "name": "from",
                                "type": "address",
                                "value": "0xd551234ae421e3bcba99a0da6d736074f22192ff"
                            },
                            {
                                "name": "to",
                                "type": "address",
                                "value": "0x63825c174ab367968ec60f061753d3bbd36a0d8f"
                            },
                            {
                                "decimalAvailable": true,
                                "name": "value",
                                "type": "uint256",
                                "value": "22,785,000,000,000,000,000,000"
                            }
                        ],
                        "signature": "Transfer(address,address,uint256)"
                    },
                    "id": 1,
                    "logData": "0x0000000000000000000000000000000000000000000004d32d652be56b640000",
                    "logDecoded": true,
                    "operation": "EVENT",
                    "revert": false,
                    "status": true,
                    "topics": [
                        "0xddf252ad1be2c89b69c2b068fc378daa952ba7f163c4a11628f55a4df523b3ef",
                        "0x000000000000000000000000d551234ae421e3bcba99a0da6d736074f22192ff",
                        "0x00000000000000000000000063825c174ab367968ec60f061753d3bbd36a0d8f"
                    ]
                },
                "nodeType": 1
            }
        },
        "gasFlame": [
            {
                "children": [
                    {
                        "children": [
                            {
                                "children": [],
                                "depth": 0,
                                "name": "Initial Gas",
                                "value": 23320
                            },
                            {
                                "children": [],
                                "depth": 0,
                                "name": "Executed Gas",
                                "value": 13359
                            }
                        ],
                        "depth": -1,
                        "name": "Actual Gas Used",
                        "value": 36679
                    },
                    {
                        "children": [],
                        "depth": -1,
                        "name": "Refunded Gas",
                        "value": 0
                    }
                ],
                "depth": -2,
                "name": "Total Gas",
                "value": 36679
            }
        ],
        "isConfirmed": true,
        "mainTrace": [
            {
                "children": [
                    {
                        "children": [
                            {
                                "children": [],
                                "depth": 1,
                                "id": 1,
                                "order": 1
                            }
                        ],
                        "depth": 0,
                        "id": 0,
                        "order": 0
                    }
                ],
                "depth": -1,
                "id": -1,
                "order": -1
            }
        ],
        "mainTraceNodeCount": 2,
        "parentIdMap": {
            "0": -1,
            "1": 0
        },
        "tidyTrace": [
            {
                "children": [
                    {
                        "children": [
                            {
                                "children": [],
                                "depth": 1,
                                "id": 1,
                                "order": 1
                            }
                        ],
                        "depth": 0,
                        "id": 0,
                        "order": 0
                    }
                ],
                "depth": -1,
                "id": -1,
                "order": -1
            }
        ],
        "tidyTraceNodeCount": 2
    },
    "state_change": {
        "stateChanges": [
            {
                "address": "0xbbbbca6a901c926f240b89eacb641d8aec7aeafd",
                "erc": "ERC-20",
                "slots": [
                    {
                        "current": "0x0000000000000000000000000000000000000000000063144cf4c22af3b12800",
                        "key": "0xd8a2d997c829e5fb34fd28799da940d8710277910bb394057710bcdfe67feb2f",
                        "prev": "0x0000000000000000000000000000000000000000000067e77a59ee105f152800"
                    },
                    {
                        "current": "0x000000000000000000000000000000000000000000000b5fe196ecc16bfc466c",
                        "key": "0x019c7256272716f09fbbb25bb850233f4655716514b6a00ffc9b71d4d41c3b97",
                        "prev": "0x00000000000000000000000000000000000000000000068cb431c0dc0098466c"
                    }
                ],
                "storageVariables": [
                    {
                        "name": "balances",
                        "type": "mapping(address => uint256)",
                        "value": {
                            "pairs": [
                                {
                                    "key": "0x63825c174ab367968ec60f061753d3bbd36a0d8f",
                                    "value": {
                                        "current": "53714727438789029676652",
                                        "prev": "30929727438789029676652",
                                        "typeTag": 1
                                    }
                                },
                                {
                                    "key": "0xd551234ae421e3bcba99a0da6d736074f22192ff",
                                    "value": {
                                        "current": "467888761956100000000000",
                                        "prev": "490673761956100000000000",
                                        "typeTag": 1
                                    }
                                }
                            ],
                            "typeTag": 4
                        }
                    }
                ]
            }
        ]
    }
}