{
    "balance_change": {
        "balanceChanges": [
            {
                "account": "0x1fc4b4bdf5162aa5e357041945c9333b2818adad",
                "assets": [
                    {
                        "address": "0x949d48eca67b17269629c7194f4b727d4ef9e5d6",
                        "amount": "23,828.400316198975206287",
                        "iconUrl": "",
                        "isERC1155": false,
                        "isERC721": false,
                        "sign": false,
                        "value": "17027.3987"
                    },
                    {
                        "address": "0xc02aaa39b223fe8d0a0e5c4f27ead9083c756cc2",
                        "amount": "12.704738474009614513",
                        "iconUrl": "https://assets.blocksec.com/icon/f1cb2d02c471d545bbc7722daf3277fd852d98e63d118771af7047bd8256c516.png",
                        "isERC1155": false,
                        "isERC721": false,
                        "sign": true,
                        "value": "17057.89005936080127"
                    }
                ]
            },
            {
                "account": "0xccb63225a7b19dcf66717e4d40c9a72b39331d61",
                "assets": [
                    {
                        "address": "0x949d48eca67b17269629c7194f4b727d4ef9e5d6",
                        "amount": "23,828.400316198975206287",
                        "iconUrl": "",
                        "isERC1155": false,
                        "isERC721": false,
                        "sign": true,
                        "value": "17027.3987"
                    },
                    {
                        "address": "0xc02aaa39b223fe8d0a0e5c4f27ead9083c756cc2",
                        "amount": "12.704738474009614513",
                        "iconUrl": "https://assets.blocksec.com/icon/f1cb2d02c471d545bbc7722daf3277fd852d98e63d118771af7047bd8256c516.png",
                        "isERC1155": false,
                        "isERC721": false,
                        "sign": false,
                        "value": "17057.89005936080127"
                    }
                ]
            }
        ]
    },
    "profile": {
        "basic_info": {
            "baseFee": "26.90293165",
            "blockNumber": 15819907,
            "callData": "0x72ad401c00000000000000000000000000000000000000000000050bbd7bbf4ead90738f000000000000000000000000000000000000000000000000b04bc8d71d35ef3b00000000000000000000000000000000000000000000000000000000000000a0000000000000000000000000000000000000000000000000000000006356e212000000000000000000000000000000000000000000000000000001837856e1030000000000000000000000000000000000000000000000000000000000000002000000000000000000000000949d48eca67b17269629c7194f4b727d4ef9e5d6000000000000000000000000c02aaa39b223fe8d0a0e5c4f27ead9083c756cc2",
            "debugEnable": true,
            "errorInfo": "",
            "eventCount": 5,
            "feeRecipient": "0xdafea492d9c6733ae3d56b7ed1adb60692c98bc5",
            "formatValue": "0",
            "gasLimit": 200000,
            "gasPrice": "64.48413064",
            "gasUsed": 104581,
            "intTxnCount": 6,
            "internalRevert": false,
            "internalRevertMessage": "",
            "isContractCreation": false,
            "isFlashloan": false,
            "maxFee": "64.48413064",
            "nonce": 2873,
            "overwritedBlockNumber": -1,
            "priorityFee": "64.48413064",
            "receiver": "0x1fc4b4bdf5162aa5e357041945c9333b2818adad",
            "revertMessage": "",
            "sender": "0x8eef2ab1a94849f944f3cc3a9038dec67def69d4",
            "simulationEnable": true,
            "sourceTxnHash": "0x9e6691d14e95a24ec79b6795eb4fd4c8326e41adfaee083d84ba5ec6eadef661",
            "status": true,
            "timestamp": "2022-10-24T19:03:35Z",
            "transactionFee": "0.00674381486646184",
            "txnHash": "0x9e6691d14e95a24ec79b6795eb4fd4c8326e41adfaee083d84ba5ec6eadef661",
            "txnIndex": 1,
            "type": 2,
            "value": "0"
        },
        "fund_flow": [
            {
                "amount": "23,828.400316198975206287",
                "from": "0x1fc4b4bdf5162aa5e357041945c9333b2818adad",
                "id": 1,
                "isERC1155": false,
                "isERC721": false,
                "isReverted": false,
                "order": 1,
                "to": "0xccb63225a7b19dcf66717e4d40c9a72b39331d61",
                "token": "0x949d48eca67b17269629c7194f4b727d4ef9e5d6"
            },
            {
                "amount": "12.704738474009614513",
                "from": "0xccb63225a7b19dcf66717e4d40c9a72b39331d61",
                "id": 2,
                "isERC1155": false,
                "isERC721": false,
                "isReverted": false,
                "order": 2,
                "to": "0x1fc4b4bdf5162aa5e357041945c9333b2818adad",
                "token": "0xc02aaa39b223fe8d0a0e5c4f27ead9083c756cc2"
            }
        ],
        "token_infos": [
            {
                "address": "0x949d48eca67b17269629c7194f4b727d4ef9e5d6",
                "decimals": 18
            },
            {
                "address": "0xc02aaa39b223fe8d0a0e5c4f27ead9083c756cc2",
                "decimals": 18
            },
            {
                "address": "0xeeeeeeeeeeeeeeeeeeeeeeeeeeeeeeeeeeeeeeee",
                "decimals": 18
            }
        ]
    },
    "address_label": {
        "labels": [
            {
                "address": "0x0000000000000000000000000000000000000002",
                "label": "Precompiled"
            },
            {
                "address": "0x0000000000000000000000000000000000000003",
                "label": "Precompiled"
            },
            {
                "address": "0x0000000000000000000000000000000000000004",
                "label": "Precompiled"
            },
            {
                "address": "0xeeeeeeeeeeeeeeeeeeeeeeeeeeeeeeeeeeeeeeee",
                "label": "Ether"
            },
            {
                "address": "0x949d48eca67b17269629c7194f4b727d4ef9e5d6",
                "label": "Merit Circle: Old MC Token"
            },
            {
                "address": "0xc02aaa39b223fe8d0a0e5c4f27ead9083c756cc2",
                "label": "Wrapped Ether (WETH)"
            },
            {
                "address": "0xccb63225a7b19dcf66717e4d40c9a72b39331d61",
                "label": "Uniswap V2: MC 6"
            },
            {
                "address": "0x0000000000000000000000000000000000000001",
                "label": "Precompiled"
            }
        ]
    },
    "trace": {
        "accountLabels": null,
        "dataMap": {
            "-1": {
                "invocation": {
                    "address": "0x8eef2ab1a94849f944f3cc3a9038dec67def69d4",
                    "callData": "",
                    "decodedMethod": null,
                    "errorInfo": "",
                    "fromAddress": "",
                    "gasUsed": 0,
                    "id": -1,
                    "methodDecoded": false,
                    "operation": "",
                    "output": "",
                    "revert": false,
                    "revertMessage": "",
                    "selector": "",
                    "status": false,
                    "value": ""
                },
                "nodeType": 0
            },
            "0": {
                "invocation": {
                    "address": "0x1fc4b4bdf5162aa5e357041945c9333b2818adad",
                    "callData": "0x00000000000000000000000000000000000000000000050bbd7bbf4ead90738f000000000000000000000000000000000000000000000000b04bc8d71d35ef3b00000000000000000000000000000000000000000000000000000000000000a0000000000000000000000000000000000000000000000000000000006356e212000000000000000000000000000000000000000000000000000001837856e1030000000000000000000000000000000000000000000000000000000000000002000000000000000000000000949d48eca67b17269629c7194f4b727d4ef9e5d6000000000000000000000000c02aaa39b223fe8d0a0e5c4f27ead9083c756cc2",
                    "decodedMethod": null,
                    "errorInfo": "",
                    "fromAddress": "0x8eef2ab1a94849f944f3cc3a9038dec67def69d4",
                    "gasUsed": 104581,
                    "id": 0,
                    "methodDecoded": false,
                    "operation": "CALL",
                    "output": "0x0000000000000000000000000000000000000000000000000000000000000020000000000000000000000000000000000000000000000000000000000000000200000000000000000000000000000000000000000000050bbd7bbf4ead90738f000000000000000000000000000000000000000000000000b0504c545b94d8b1",
                    "revert": false,
                    "revertMessage": "",
                    "selector": "0x72ad401c",
                    "status": true,
                    "value": "0"
                },
                "nodeType": 0
            },
            "1": {
                "invocation": {
                    "address": "0xccb63225a7b19dcf66717e4d40c9a72b39331d61",
                    "callData": "0x",
                    "decodedMethod": {
                        "callParams": [],
                        "constructorArguments": "",
                        "name": "getReserves",
                        "returnParams": [
                            {
                                "name": "_reserve0",
                                "type": "uint112",
                                "value": "14,643,340,710,531,118,269,760,350"
                            },
                            {
                                "name": "_reserve1",
                                "type": "uint112",
                                "value": "7,843,679,981,286,181,347,224"
                            },
                            {
                                "name": "_blockTimestampLast",
                                "type": "uint32",
                                "value": "1,666,637,831"
                            }
                        ],
                        "signature": "getReserves()"
                    },
                    "errorInfo": "",
                    "fromAddress": "0x1fc4b4bdf5162aa5e357041945c9333b2818adad",
                    "gasUsed": 2504,
                    "id": 1,
                    "methodDecoded": true,
                    "operation": "STATICCALL",
                    "output": "0x0000000000000000000000000000000000000000000c1cd9172da3e0e504835e0000000000000000000000000000000000000000000001a934ed2961d56c9f98000000000000000000000000000000000000000000000000000000006356e007",
                    "revert": false,
                    "revertMessage": "",
                    "selector": "0x0902f1ac",
                    "status": true,
                    "value": "0"
                },
                "nodeType": 0
            },
            "10": {
                "event": {
                    "contract": "0xccb63225a7b19dcf66717e4d40c9a72b39331d61",
                    "decodedLog": {
                        "name": "Sync",
                        "params": [
                            {
                                "name": "reserve0",
                                "type": "uint112",
                                "value": "14,667,169,110,847,317,244,966,637"
                            },
                            {
                                "name": "reserve1",
                                "type": "uint112",
                                "value": "7,830,975,242,812,171,732,711"
                            }
                        ],
                        "signature": "Sync(uint112,uint112)"
                    },
                    "id": 10,
                    "logData": "0x0000000000000000000000000000000000000000000c21e4d4a9632f9294f6ed0000000000000000000000000000000000000000000001a8849cdd0d79d7c6e7",
                    "logDecoded": true,
                    "operation": "EVENT",
                    "revert": false,
                    "status": true,
                    "topics": [
                        "0x1c411e9a96e071241c2f21f7726b17ae89e3cab4c78be50e062b03a9fffbbad1"
                    ]
                },
                "nodeType": 1
            },
            "11": {
                "event": {
                    "contract": "0xccb63225a7b19dcf66717e4d40c9a72b39331d61",
                    "decodedLog": {
                        "name": "Swap",
                        "params": [
                            {
                                "name": "sender",
                                "type": "address",
                                "value": "0x1fc4b4bdf5162aa5e357041945c9333b2818adad"
                            },
                            {
                                "name": "to",
                                "type": "address",
                                "value": "0x1fc4b4bdf5162aa5e357041945c9333b2818adad"
                            },
                            {
                                "name": "amount0In",
                                "type": "uint256",
                                "value": "23,828,400,316,198,975,206,287"
                            },
                            {
                                "name": "amount1In",
                                "type": "uint256",
                                "value": "0"
                            },
                            {
                                "name": "amount0Out",
                                "type": "uint256",
                                "value": "0"
                            },
                            {
                                "name": "amount1Out",
                                "type": "uint256",
                                "value": "12,704,738,474,009,614,513"
                            }
                        ],
                        "signature": "Swap(address,uint256,uint256,uint256,uint256,address)"
                    },
                    "id": 11,
                    "logData": "0x00000000000000000000000000000000000000000000050bbd7bbf4ead90738f00000000000000000000000000000000000000000000000000000000000000000000000000000000000000000000000000000000000000000000000000000000000000000000000000000000000000000000000000000000b0504c545b94d8b1",
                    "logDecoded": true,
                    "operation": "EVENT",
                    "revert": false,
                    "status": true,
                    "topics": [
                        "0xd78ad95fa46c994b6551d0da85fc275fe613ce37657fb8d5e3d130840159d822",
                        "0x0000000000000000000000001fc4b4bdf5162aa5e357041945c9333b2818adad",
                        "0x0000000000000000000000001fc4b4bdf5162aa5e357041945c9333b2818adad"
                    ]
                },
                "nodeType": 1
            },
            "2": {
                "invocation": {
                    "address": "0x949d48eca67b17269629c7194f4b727d4ef9e5d6",
                    "callData": "0x000000000000000000000000ccb63225a7b19dcf66717e4d40c9a72b39331d6100000000000000000000000000000000000000000000050bbd7bbf4ead90738f",
                    "decodedMethod": {
                        "callParams": [
                            {
                                "name": "recipient",
                                "type": "address",
                                "value": "0xccb63225a7b19dcf66717e4d40c9a72b39331d61"
                            },
                            {
                                "decimalAvailable": true,
                                "name": "amount",
                                "type": "uint256",
                                "value": "23,828,400,316,198,975,206,287"
                            }
                        ],
                        "constructorArguments": "",
                        "name": "transfer",
                        "returnParams": [
                            {
                                "name": "",
                                "type": "bool",
                                "value": true
                            }
                        ],
                        "signature": "transfer(address,uint256)"
                    },
                    "errorInfo": "",
                    "fromAddress": "0x1fc4b4bdf5162aa5e357041945c9333b2818adad",
                    "gasUsed": 17428,
                    "id": 2,
                    "methodDecoded": true,
                    "operation": "CALL",
                    "output": "0x0000000000000000000000000000000000000000000000000000000000000001",
                    "revert": false,
                    "revertMessage": "",
                    "selector": "0xa9059cbb",
                    "status": true,
                    "value": "0"
                },
                "nodeType": 0
            },
            "3": {
                "event": {
                    "contract": "0x949d48eca67b17269629c7194f4b727d4ef9e5d6",
                    "decodedLog": {
                        "name": "Transfer",
                        "params": [
                            {
                                "name": "from",
                                "type": "address",
                                "value": "0x1fc4b4bdf5162aa5e357041945c9333b2818adad"
                            },
                            {
                                "name": "to",
                                "type": "address",
                                "value": "0xccb63225a7b19dcf66717e4d40c9a72b39331d61"
                            },
                            {
                                "decimalAvailable": true,
                                "name": "value",
                                "type": "uint256",
                                "value": "23,828,400,316,198,975,206,287"
                            }
                        ],
                        "signature": "Transfer(address,address,uint256)"
                    },
                    "id": 3,
                    "logData": "0x00000000000000000000000000000000000000000000050bbd7bbf4ead90738f",
                    "logDecoded": true,
                    "operation": "EVENT",
                    "revert": false,
                    "status": true,
                    "topics": [
                        "0xddf252ad1be2c89b69c2b068fc378daa952ba7f163c4a11628f55a4df523b3ef",
                        "0x0000000000000000000000001fc4b4bdf5162aa5e357041945c9333b2818adad",
                        "0x000000000000000000000000ccb63225a7b19dcf66717e4d40c9a72b39331d61"
                    ]
                },
                "nodeType": 1
            },
            "4": {
                "event": {
                    "contract": "0x1fc4b4bdf5162aa5e357041945c9333b2818adad",
                    "decodedLog": null,
                    "id": 4,
                    "logData": "0x000000000000000000000000000000000000000000000000b0504c545b94d8b1000000000000000000000000000000000000000000000000000001837856e103",
                    "logDecoded": false,
                    "operation": "EVENT",
                    "revert": false,
                    "status": true,
                    "topics": [
                        "0x78022a5b8f2bad82c9f8c4993b308b26598c06308838ce4b1bb45aae258edabc"
                    ]
                },
                "nodeType": 1
            },
            "5": {
                "invocation": {
                    "address": "0xccb63225a7b19dcf66717e4d40c9a72b39331d61",
                    "callData": "0x0000000000000000000000000000000000000000000000000000000000000000000000000000000000000000000000000000000000000000b0504c545b94d8b10000000000000000000000001fc4b4bdf5162aa5e357041945c9333b2818adad00000000000000000000000000000000000000000000000000000000000000800000000000000000000000000000000000000000000000000000000000000000",
                    "decodedMethod": {
                        "callParams": [
                            {
                                "name": "amount0Out",
                                "type": "uint256",
                                "value": "0"
                            },
                            {
                                "name": "amount1Out",
                                "type": "uint256",
                                "value": "12,704,738,474,009,614,513"
                            },
                            {
                                "name": "to",
                                "type": "address",
                                "value": "0x1fc4b4bdf5162aa5e357041945c9333b2818adad"
                            },
                            {
                                "name": "data",
                                "type": "bytes",
                                "value": "0x"
                            }
                        ],
                        "constructorArguments": "",
                        "name": "swap",
                        "returnParams": [],
                        "signature": "swap(uint256,uint256,address,bytes)"
                    },
                    "errorInfo": "",
                    "fromAddress": "0x1fc4b4bdf5162aa5e357041945c9333b2818adad",
                    "gasUsed": 47802,
                    "id": 5,
                    "methodDecoded": true,
                    "operation": "CALL",
                    "output": "",
                    "revert": false,
                    "revertMessage": "",
                    "selector": "0x022c0d9f",
                    "status": true,
                    "value": "0"
                },
                "nodeType": 0
            },
            "6": {
                "invocation": {
                    "address": "0xc02aaa39b223fe8d0a0e5c4f27ead9083c756cc2",
                    "callData": "0x0000000000000000000000001fc4b4bdf5162aa5e357041945c9333b2818adad000000000000000000000000000000000000000000000000b0504c545b94d8b1",
                    "decodedMethod": {
                        "callParams": [
                            {
                                "name": "dst",
                                "type": "address",
                                "value": "0x1fc4b4bdf5162aa5e357041945c9333b2818adad"
                            },
                            {
                                "decimalAvailable": true,
                                "name": "wad",
                                "type": "uint256",
                                "value": "12,704,738,474,009,614,513"
                            }
                        ],
                        "constructorArguments": "",
                        "name": "transfer",
                        "returnParams": [
                            {
                                "name": "",
                                "type": "bool",
                                "value": true
                            }
                        ],
                        "signature": "transfer(address,uint256)"
                    },
                    "errorInfo": "",
                    "fromAddress": "0xccb63225a7b19dcf66717e4d40c9a72b39331d61",
                    "gasUsed": 12862,
                    "id": 6,
                    "methodDecoded": true,
                    "operation": "CALL",
                    "output": "0x0000000000000000000000000000000000000000000000000000000000000001",
                    "revert": false,
                    "revertMessage": "",
                    "selector": "0xa9059cbb",
                    "status": true,
                    "value": "0"
                },
                "nodeType": 0
            },
            "7": {
                "event": {
                    "contract": "0xc02aaa39b223fe8d0a0e5c4f27ead9083c756cc2",
                    "decodedLog": {
                        "name": "Transfer",
                        "params": [
                            {
                                "name": "src",
                                "type": "address",
                                "value": "0xccb63225a7b19dcf66717e4d40c9a72b39331d61"
                            },
                            {
                                "name": "dst",
                                "type": "address",
                                "value": "0x1fc4b4bdf5162aa5e357041945c9333b2818adad"
                            },
                            {
                                "decimalAvailable": true,
                                "name": "wad",
                                "type": "uint256",
                                "value": "12,704,738,474,009,614,513"
                            }
                        ],
                        "signature": "Transfer(address,address,uint256)"
                    },
                    "id": 7,
                    "logData": "0x000000000000000000000000000000000000000000000000b0504c545b94d8b1",
                    "logDecoded": true,
                    "operation": "EVENT",
                    "revert": false,
                    "status": true,
                    "topics": [
                        "0xddf252ad1be2c89b69c2b068fc378daa952ba7f163c4a11628f55a4df523b3ef",
                        "0x000000000000000000000000ccb63225a7b19dcf66717e4d40c9a72b39331d61",
                        "0x0000000000000000000000001fc4b4bdf5162aa5e357041945c9333b2818adad"
                    ]
                },
                "nodeType": 1
            },
            "8": {
                "invocation": {
                    "address": "0x949d48eca67b17269629c7194f4b727d4ef9e5d6",
                    "callData": "0x000000000000000000000000ccb63225a7b19dcf66717e4d40c9a72b39331d61",
                    "decodedMethod": {
                        "callParams": [
                            {
                                "name": "account",
                                "type": "address",
                                "value": "0xccb63225a7b19dcf66717e4d40c9a72b39331d61"
                            }
                        ],
                        "constructorArguments": "",
                        "name": "balanceOf",
                        "returnParams": [
                            {
                                "decimalAvailable": true,
                                "name": "",
                                "type": "uint256",
                                "value": "14,667,169,110,847,317,244,966,637"
                            }
                        ],
                        "signature": "balanceOf(address)"
                    },
                    "errorInfo": "",
                    "fromAddress": "0xccb63225a7b19dcf66717e4d40c9a72b39331d61",
                    "gasUsed": 583,
                    "id": 8,
                    "methodDecoded": true,
                    "operation": "STATICCALL",
                    "output": "0x0000000000000000000000000000000000000000000c21e4d4a9632f9294f6ed",
                    "revert": false,
                    "revertMessage": "",
                    "selector": "0x70a08231",
                    "status": true,
                    "value": "0"
                },
                "nodeType": 0
            },
            "9": {
                "invocation": {
                    "address": "0xc02aaa39b223fe8d0a0e5c4f27ead9083c756cc2",
                    "callData": "0x000000000000000000000000ccb63225a7b19dcf66717e4d40c9a72b39331d61",
                    "decodedMethod": {
                        "callParams": [
                            {
                                "name": "",
                                "type": "address",
                                "value": "0xccb63225a7b19dcf66717e4d40c9a72b39331d61"
                            }
                        ],
                        "constructorArguments": "",
                        "name": "balanceOf",
                        "returnParams": [
                            {
                                "decimalAvailable": true,
                                "name": "",
                                "type": "uint256",
                                "value": "7,830,975,242,812,171,732,711"
                            }
                        ],
                        "signature": "balanceOf(address)"
                    },
                    "errorInfo": "",
                    "fromAddress": "0xccb63225a7b19dcf66717e4d40c9a72b39331d61",
                    "gasUsed": 534,
                    "id": 9,
                    "methodDecoded": true,
                    "operation": "STATICCALL",
                    "output": "0x0000000000000000000000000000000000000000000001a8849cdd0d79d7c6e7",
                    "revert": false,
                    "revertMessage": "",
                    "selector": "0x70a08231",
                    "status": true,
                    "value": "0"
                },
                "nodeType": 0
            }
        },
        "gasFlame": [
            {
                "children": [
                    {
                        "children": [
                            {
                                "children": [],
                                "depth": 0,
                                "name": "Initial Gas",
                                "value": 22928
                            },
                            {
                                "children": [
                                    {
                                        "children": [],
                                        "depth": 1,
                                        "name": "getReserves",
                                        "value": 2504
                                    },
                                    {
                                        "children": [],
                                        "depth": 1,
                                        "name": "transfer",
                                        "value": 17428
                                    },
                                    {
                                        "children": [
                                            {
                                                "children": [],
                                                "depth": 2,
                                                "name": "transfer",
                                                "value": 12862
                                            },
                                            {
                                                "children": [],
                                                "depth": 2,
                                                "name": "balanceOf",
                                                "value": 583
                                            },
                                            {
                                                "children": [],
                                                "depth": 2,
                                                "name": "balanceOf",
                                                "value": 534
                                            }
                                        ],
                                        "depth": 1,
                                        "name": "swap",
                                        "value": 47802
                                    }
                                ],
                                "depth": 0,
                                "name": "Executed Gas",
                                "value": 84453
                            }
                        ],
                        "depth": -1,
                        "name": "Actual Gas Used",
                        "value": 104581
                    },
                    {
                        "children": [],
                        "depth": -1,
                        "name": "Refunded Gas",
                        "value": 2800
                    }
                ],
                "depth": -2,
                "name": "Total Gas",
                "value": 107381
            }
        ],
        "isConfirmed": true,
        "mainTrace": [
            {
                "children": [
                    {
                        "children": [
                            {
                                "children": [],
                                "depth": 1,
                                "id": 1,
                                "order": 1
                            },
                            {
                                "children": [
                                    {
                                        "children": [],
                                        "depth": 2,
                                        "id": 3,
                                        "order": 3
                                    }
                                ],
                                "depth": 1,
                                "id": 2,
                                "order": 2
                            },
                            {
                                "children": [],
                                "depth": 1,
                                "id": 4,
                                "order": 4
                            },
                            {
                                "children": [
                                    {
                                        "children": [
                                            {
                                                "children": [],
                                                "depth": 3,
                                                "id": 7,
                                                "order": 7
                                            }
                                        ],
                                        "depth": 2,
                                        "id": 6,
                                        "order": 6
                                    },
                                    {
                                        "children": [],
                                        "depth": 2,
                                        "id": 8,
                                        "order": 8
                                    },
                                    {
                                        "children": [],
                                        "depth": 2,
                                        "id": 9,
                                        "order": 9
                                    },
                                    {
                                        "children": [],
                                        "depth": 2,
                                        "id": 10,
                                        "order": 10
                                    },
                                    {
                                        "children": [],
                                        "depth": 2,
                                        "id": 11,
                                        "order": 11
                                    }
                                ],
                                "depth": 1,
                                "id": 5,
                                "order": 5
                            }
                        ],
                        "depth": 0,
                        "id": 0,
                        "order": 0
                    }
                ],
                "depth": -1,
                "id": -1,
                "order": -1
            }
        ],
        "mainTraceNodeCount": 12,
        "parentIdMap": {
            "0": -1,
            "1": 0,
            "10": 5,
            "11": 5,
            "2": 0,
            "3": 2,
            "4": 0,
            "5": 0,
            "6": 5,
            "7": 6,
            "8": 5,
            "9": 5
        },
        "tidyTrace": [
            {
                "children": [
                    {
                        "children": [
                            {
                                "children": [
                                    {
                                        "children": [],
                                        "depth": 2,
                                        "id": 3,
                                        "order": 3
                                    }
                                ],
                                "depth": 1,
                                "id": 2,
                                "order": 2
                            },
                            {
                                "children": [],
                                "depth": 1,
                                "id": 4,
                                "order": 4
                            },
                            {
                                "children": [
                                    {
                                        "children": [
                                            {
                                                "children": [],
                                                "depth": 3,
                                                "id": 7,
                                                "order": 7
                                            }
                                        ],
                                        "depth": 2,
                                        "id": 6,
                                        "order": 6
                                    },
                                    {
                                        "children": [],
                                        "depth": 2,
                                        "id": 10,
                                        "order": 10
                                    },
                                    {
                                        "children": [],
                                        "depth": 2,
                                        "id": 11,
                                        "order": 11
                                    }
                                ],
                                "depth": 1,
                                "id": 5,
                                "order": 5
                            }
                        ],
                        "depth": 0,
                        "id": 0,
                        "order": 0
                    }
                ],
                "depth": -1,
                "id": -1,
                "order": -1
            }
        ],
        "tidyTraceNodeCount": 9
    },
    "state_change": {
        "stateChanges": [
            {
                "address": "0x949d48eca67b17269629c7194f4b727d4ef9e5d6",
                "erc": "ERC-20",
                "slots": [
                    {
                        "current": "0x00000000000000000000000000000000000000000000013eb4661ee98485114d",
                        "key": "0xfabc0064aef2013959527a7c897c1b0986c079b99a12a1368331069d7598fbf5",
                        "prev": "0x00000000000000000000000000000000000000000000064a71e1de38321584dc"
                    },
                    {
                        "current": "0x0000000000000000000000000000000000000000000c21e4d4a9632f9294f6ed",
                        "key": "0x40e0186d76e7e3140e8cb8ea3e58b2004453659ae684588b16ed398c2357f14b",
                        "prev": "0x0000000000000000000000000000000000000000000c1cd9172da3e0e504835e"
                    }
                ],
                "storageVariables": [
                    {
                        "name": "_balances",
                        "type": "mapping(address => uint256)",
                        "value": {
                            "pairs": [
                                {
                                    "key": "0x1fc4b4bdf5162aa5e357041945c9333b2818adad",
                                    "value": {
                                        "current": "5879063726802388455757",
                                        "prev": "29707464043001363662044",
                                        "typeTag": 1
                                    }
                                },
                                {
                                    "key": "0xccb63225a7b19dcf66717e4d40c9a72b39331d61",
                                    "value": {
                                        "current": "14667169110847317244966637",
                                        "prev": "14643340710531118269760350",
                                        "typeTag": 1
                                    }
                                }
                            ],
                            "typeTag": 4
                        }
                    }
                ]
            },
            {
                "address": "0xc02aaa39b223fe8d0a0e5c4f27ead9083c756cc2",
                "erc": "ERC-20",
                "slots": [
                    {
                        "current": "0x0000000000000000000000000000000000000000000001a8849cdd0d79d7c6e7",
                        "key": "0x239e531bf05da9829df96478ed136912e9830c75b5fc001180d074dcd18dfcee",
                        "prev": "0x0000000000000000000000000000000000000000000001a934ed2961d56c9f98"
                    },
                    {
                        "current": "0x000000000000000000000000000000000000000000000000b5051ae0307c69f1",
                        "key": "0x0d9407fb8ca512419813314d6e8062e203f469f894c8dd643b582bfe3b46446e",
                        "prev": "0x00000000000000000000000000000000000000000000000004b4ce8bd4e79140"
                    }
                ],
                "storageVariables": [
                    {
                        "name": "balanceOf",
                        "type": "mapping(address => uint256)",
                        "value": {
                            "pairs": [
                                {
                                    "key": "0x1fc4b4bdf5162aa5e357041945c9333b2818adad",
                                    "value": {
                                        "current": "13043861445936966129",
                                        "prev": "339122971927351616",
                                        "typeTag": 1
                                    }
                                },
                                {
                                    "key": "0xccb63225a7b19dcf66717e4d40c9a72b39331d61",
                                    "value": {
                                        "current": "7830975242812171732711",
                                        "prev": "7843679981286181347224",
                                        "typeTag": 1
                                    }
                                }
                            ],
                            "typeTag": 4
                        }
                    }
                ]
            },
            {
                "address": "0xccb63225a7b19dcf66717e4d40c9a72b39331d61",
                "erc": "ERC-20",
                "slots": [
                    {
                        "current": "0x00000000000000000000000000000000634b928a01f73c06db19844d55a147b9",
                        "key": "0x0000000000000000000000000000000000000000000000000000000000000009",
                        "prev": "0x00000000000000000000000000000000634b5de1fa52cea74e08cdaf9e571d39"
                    },
                    {
                        "current": "0x000000000000000000000000000a3d2f94e1e527cd928fc85b3ca5a275fd5189",
                        "key": "0x000000000000000000000000000000000000000000000000000000000000000a",
                        "prev": "0x000000000000000000000000000a3d24a4898a796116f3cb8e2e45f184f6be89"
                    },
                    {
                        "current": "0x6356e1870000000001a8849cdd0d79d7c6e70000000c21e4d4a9632f9294f6ed",
                        "key": "0x0000000000000000000000000000000000000000000000000000000000000008",
                        "prev": "0x6356e0070000000001a934ed2961d56c9f980000000c1cd9172da3e0e504835e"
                    }
                ],
                "storageVariables": [
                    {
                        "name": "reserve0",
                        "type": "uint112",
                        "value": {
                            "current": "14667169110847317244966637",
                            "prev": "14643340710531118269760350",
                            "typeTag": 1
                        }
                    },
                    {
                        "name": "reserve1",
                        "type": "uint112",
                        "value": {
                            "current": "7830975242812171732711",
                            "prev": "7843679981286181347224",
                            "typeTag": 1
                        }
                    },
                    {
                        "name": "blockTimestampLast",
                        "type": "uint32",
                        "value": {
                            "current": "1666638215",
                            "prev": "1666637831",
                            "typeTag": 1
                        }
                    },
                    {
                        "name": "price0CumulativeLast",
                        "type": "uint256",
                        "value": {
                            "current": "131985966012993716757700560932453828537",
                            "prev": "131984898014997849070711440353065901369",
                            "typeTag": 1
                        }
                    },
                    {
                        "name": "price1CumulativeLast",
                        "type": "uint256",
                        "value": {
                            "current": "228337492597046885225652891591395787379921289",
                            "prev": "228333770299897327771722230609975974588497545",
                            "typeTag": 1
                        }
                    }
                ]
            }
        ]
    }
}