{
    "balance_change": {
        "balanceChanges": [
            {
                "account": "0x2c169dfe5fbba12957bdd0ba47d9cedbfe260ca7",
                "assets": [
                    {
                        "address": "0xeeeeeeeeeeeeeeeeeeeeeeeeeeeeeeeeeeeeeeee",
                        "amount": "0.004006384482438518",
                        "iconUrl": "https://assets.blocksec.com/image/1663669189317-3.png",
                        "isERC1155": false,
                        "isERC721": false,
                        "sign": true,
                        "value": "6.9994341369677397446"
                    }
                ]
            },
            {
                "account": "0xc662c410c0ecf747543f5ba90660f6abebd9c8c4",
                "assets": [
                    {
                        "address": "0xeeeeeeeeeeeeeeeeeeeeeeeeeeeeeeeeeeeeeeee",
                        "amount": "0.004006384482438518",
                        "iconUrl": "https://assets.blocksec.com/image/1663669189317-3.png",
                        "isERC1155": false,
                        "isERC721": false,
                        "sign": false,
                        "value": "6.9994341369677397446"
                    }
                ]
            }
        ]
    },
    "profile": {
        "basic_info": {
            "baseFee": "15.128079633",
            "blockNumber": 17453491,
            "callData": "0x775526410000000000000000000000000000000000000000000000000000000000000060f2dc382234233e211de331df32c485f98aabe11faabc43ad0f0dae644cfb1323000000000000000000000000000000000000000000000000000000000000076200000000000000000000000000000000000000000000000000000000000000550002e811ec09caf4b20e470ffb5ef01552237d61e8b785e4a7b5e22a055eec600102785848a6c91d86cd513524e07260b6821e904a8742a6accafb70595e51d700000000000000000000000000000000000000000000000000000000000133f20644b957e4bcdd3678a011b4cd6d507ebad2f3585c2f510a6d27e848d6b300d7017c0bc29d31e9a7d14671610a7626264ce9ce8e3ed066a4775adf9b123de9dd000000000000000000000000000000000000000000000000000000000000000e073314940630fd6dcda0d772d4c972c4e0a9946bef9dabf4ef84eda8ef542b82000000000000000000000000ae0ee0a63a2ce6baeeffe56e7714fb4efe48d41900000000000000000000000000000000000000000000000000000000000000040000000000000000000000000000000000000000000000000000000000000000000000000000000000000000b432f7bff09506cab924ae4adb205f0eef26e967000000000000000000000000000000000000000000000000016345785d8a00000000000000000000000000000000000000000000000000000000000000000000073314940630fd6dcda0d772d4c972c4e0a9946bef9dabf4ef84eda8ef542b82000000000000000000000000ae0ee0a63a2ce6baeeffe56e7714fb4efe48d4190000000000000000000000000000000000000000000000000000000000000004000000000000000000000000000000000000000000000000000000000000000000000000000000000000000080f57a38321510e48c3012bf86869b010729990a00000000000000000000000000000000000000000000000000470de4df82000000000000000000000000000000000000000000000000000000000000000000000000000000000000000000000000000000000000000000000000000000000040000000000000000000000000ae0ee0a63a2ce6baeeffe56e7714fb4efe48d419073314940630fd6dcda0d772d4c972c4e0a9946bef9dabf4ef84eda8ef542b820000000000000000000000000000000000000000000000000000000000099b2c02d757788a8d8d6f21d1cd40bce38a8222d70654214e96ff95d8086e684fbee5000000000000000000000000000000000000000000000000000000000000000300bedcf4696c8df2787d8f35dc3201b9ec519965f1934cf5945af17eca46c50b000000000000000000000000000000000000000000000000002e2f6e5e1480000000000000000000000000000000000000000000000000000000000000000000000000000000000000000000ae0ee0a63a2ce6baeeffe56e7714fb4efe48d419073314940630fd6dcda0d772d4c972c4e0a9946bef9dabf4ef84eda8ef542b820000000000000000000000000000000000000000000000000000000000099b2d02d757788a8d8d6f21d1cd40bce38a8222d70654214e96ff95d8086e684fbee5000000000000000000000000000000000000000000000000000000000000000307d4cff78194ae21fdc9499b27df2d2be7e128f8ada03ee3a890f53c074214480000000000000000000000000000000000000000000000000026f1190c6dbe000000000000000000000000000000000000000000000000000000000000000000000000000000000000000000ae0ee0a63a2ce6baeeffe56e7714fb4efe48d419073314940630fd6dcda0d772d4c972c4e0a9946bef9dabf4ef84eda8ef542b820000000000000000000000000000000000000000000000000000000000099b2e02d757788a8d8d6f21d1cd40bce38a8222d70654214e96ff95d8086e684fbee5000000000000000000000000000000000000000000000000000000000000000303c110575ea481199b372d45f25cf395809f65301ae7b5ddcb26f6631567e8b5000000000000000000000000000000000000000000000000002e2f6e5e1480000000000000000000000000000000000000000000000000000000000000000000000000000000000000000000ae0ee0a63a2ce6baeeffe56e7714fb4efe48d419073314940630fd6dcda0d772d4c972c4e0a9946bef9dabf4ef84eda8ef542b820000000000000000000000000000000000000000000000000000000000099b2f02d757788a8d8d6f21d1cd40bce38a8222d70654214e96ff95d8086e684fbee500000000000000000000000000000000000000000000000000000000000000030685a2abac3cf701516e49ab9e1c7ce7564945e1c0b492dc98918d7d4734689f000000000000000000000000000000000000000000000000000fa1c6d50300000000000000000000000000000000000000000000000000000000000000000000000000000000000000000000ae0ee0a63a2ce6baeeffe56e7714fb4efe48d419073314940630fd6dcda0d772d4c972c4e0a9946bef9dabf4ef84eda8ef542b820000000000000000000000000000000000000000000000000000000000099b3002d757788a8d8d6f21d1cd40bce38a8222d70654214e96ff95d8086e684fbee50000000000000000000000000000000000000000000000000000000000000003001e436b9fdccf28b8f7a9451633cee91838f7905dc1acde28716202045d83ef000000000000000000000000000000000000000000000000002386f26fc100000000000000000000000000000000000000000000000000000000000000000000000000000000000000000000ae0ee0a63a2ce6baeeffe56e7714fb4efe48d419073314940630fd6dcda0d772d4c972c4e0a9946bef9dabf4ef84eda8ef542b820000000000000000000000000000000000000000000000000000000000099b3102d757788a8d8d6f21d1cd40bce38a8222d70654214e96ff95d8086e684fbee5000000000000000000000000000000000000000000000000000000000000000301ee6045d11b33211450858e3c8b3e85cf8bdcbf0f4bb077a7e3287a9d77a492000000000000000000000000000000000000000000000000028a2587c9e580000000000000000000000000000000000000000000000000000000000000000000000000000000000000000000ae0ee0a63a2ce6baeeffe56e7714fb4efe48d419073314940630fd6dcda0d772d4c972c4e0a9946bef9dabf4ef84eda8ef542b820000000000000000000000000000000000000000000000000000000000099b3202d757788a8d8d6f21d1cd40bce38a8222d70654214e96ff95d8086e684fbee5000000000000000000000000000000000000000000000000000000000000000306fcdef1f7f3cc5b27b8cbc8a932d5e646fac3ee73d2c406a2c24342ad6f9910000000000000000000000000000000000000000000000000002e2f6e5e1480000000000000000000000000000000000000000000000000000000000000000000000000000000000000000000ae0ee0a63a2ce6baeeffe56e7714fb4efe48d419073314940630fd6dcda0d772d4c972c4e0a9946bef9dabf4ef84eda8ef542b820000000000000000000000000000000000000000000000000000000000099b3302d757788a8d8d6f21d1cd40bce38a8222d70654214e96ff95d8086e684fbee500000000000000000000000000000000000000000000000000000000000000030778d0055b12df7e0171dec6330791ce807e21a0ca1897d41225da0b92c6448e000000000000000000000000000000000000000000000000001550f7dca700000000000000000000000000000000000000000000000000000000000000000000",
            "debugEnable": true,
            "errorInfo": "",
            "eventCount": 12,
            "feeRecipient": "0x4675c7e5baafbffbca748158becba61ef3b0a263",
            "formatValue": "0",
            "gasLimit": 5500000,
            "gasPrice": "16.128079633",
            "gasUsed": 211164,
            "intTxnCount": 5,
            "internalRevert": false,
            "internalRevertMessage": "",
            "isContractCreation": false,
            "isFlashloan": false,
            "maxFee": "150",
            "nonce": 78834,
            "overwritedBlockNumber": -1,
            "priorityFee": "1",
            "receiver": "0xc662c410c0ecf747543f5ba90660f6abebd9c8c4",
            "revertMessage": "",
            "sender": "0x2c169dfe5fbba12957bdd0ba47d9cedbfe260ca7",
            "simulationEnable": true,
            "sourceTxnHash": "0x9ed0c60914d42586e962d7d639ba7474e7a704db6a40ef8468fdf482a45b32a5",
            "status": true,
            "timestamp": "2023-06-11T01:02:11Z",
            "transactionFee": "0.003405669807622812",
            "txnHash": "0x9ed0c60914d42586e962d7d639ba7474e7a704db6a40ef8468fdf482a45b32a5",
            "txnIndex": 76,
            "type": 2,
            "value": "0"
        },
        "fund_flow": [
            {
                "amount": "0.004006384482438518",
                "from": "0xc662c410c0ecf747543f5ba90660f6abebd9c8c4",
                "id": 1,
                "isERC1155": false,
                "isERC721": false,
                "isReverted": false,
                "order": 1,
                "to": "0x2c169dfe5fbba12957bdd0ba47d9cedbfe260ca7",
                "token": "0xeeeeeeeeeeeeeeeeeeeeeeeeeeeeeeeeeeeeeeee"
            }
        ],
        "token_infos": [
            {
                "address": "0xc02aaa39b223fe8d0a0e5c4f27ead9083c756cc2",
                "decimals": 18
            },
            {
                "address": "0xeeeeeeeeeeeeeeeeeeeeeeeeeeeeeeeeeeeeeeee",
                "decimals": 18
            }
        ]
    },
    "address_label": {
        "labels": [
            {
                "address": "0xd4c4044aca68ebbcb81b13cc2699e1bca2d3f458",
                "label": "CallProxy"
            },
            {
                "address": "0x2c169dfe5fbba12957bdd0ba47d9cedbfe260ca7",
                "label": "StarkNet: Operator"
            },
            {
                "address": "0x47312450b3ac8b5b8e247a6bb6d523e7605bdb60",
                "label": "Starkware: SHARP Verifier"
            },
            {
                "address": "0x0000000000000000000000000000000000000001",
                "label": "Precompiled"
            },
            {
                "address": "0x0000000000000000000000000000000000000002",
                "label": "Precompiled"
            },
            {
                "address": "0x0000000000000000000000000000000000000004",
                "label": "Precompiled"
            },
            {
                "address": "0xc662c410c0ecf747543f5ba90660f6abebd9c8c4",
                "label": "Starknet: Core Contract"
            },
            {
                "address": "0x16938e4b59297060484fa56a12594d8d6f4177e8",
                "label": "Starknet"
            },
            {
                "address": "0x6cb3ee90c50a38a0e4662bb7e7e6e40b91361bf6",
                "label": "GpsStatementVerifier"
            },
            {
                "address": "0x0000000000000000000000000000000000000003",
                "label": "Precompiled"
            },
            {
                "address": "0xeeeeeeeeeeeeeeeeeeeeeeeeeeeeeeeeeeeeeeee",
                "label": "Ether"
            }
        ]
    },
    "trace": {
        "accountLabels": null,
        "dataMap": {
            "-1": {
                "invocation": {
                    "address": "0x2c169dfe5fbba12957bdd0ba47d9cedbfe260ca7",
                    "callData": "",
                    "decodedMethod": null,
                    "errorInfo": "",
                    "fromAddress": "",
                    "gasUsed": 0,
                    "id": -1,
                    "methodDecoded": false,
                    "operation": "",
                    "output": "",
                    "revert": false,
                    "revertMessage": "",
                    "selector": "",
                    "status": false,
                    "value": ""
                },
                "nodeType": 0
            },
            "0": {
                "invocation": {
                    "address": "0xc662c410c0ecf747543f5ba90660f6abebd9c8c4",
                    "callData": "0x0000000000000000000000000000000000000000000000000000000000000060f2dc382234233e211de331df32c485f98aabe11faabc43ad0f0dae644cfb1323000000000000000000000000000000000000000000000000000000000000076200000000000000000000000000000000000000000000000000000000000000550002e811ec09caf4b20e470ffb5ef01552237d61e8b785e4a7b5e22a055eec600102785848a6c91d86cd513524e07260b6821e904a8742a6accafb70595e51d700000000000000000000000000000000000000000000000000000000000133f20644b957e4bcdd3678a011b4cd6d507ebad2f3585c2f510a6d27e848d6b300d7017c0bc29d31e9a7d14671610a7626264ce9ce8e3ed066a4775adf9b123de9dd000000000000000000000000000000000000000000000000000000000000000e073314940630fd6dcda0d772d4c972c4e0a9946bef9dabf4ef84eda8ef542b82000000000000000000000000ae0ee0a63a2ce6baeeffe56e7714fb4efe48d41900000000000000000000000000000000000000000000000000000000000000040000000000000000000000000000000000000000000000000000000000000000000000000000000000000000b432f7bff09506cab924ae4adb205f0eef26e967000000000000000000000000000000000000000000000000016345785d8a00000000000000000000000000000000000000000000000000000000000000000000073314940630fd6dcda0d772d4c972c4e0a9946bef9dabf4ef84eda8ef542b82000000000000000000000000ae0ee0a63a2ce6baeeffe56e7714fb4efe48d4190000000000000000000000000000000000000000000000000000000000000004000000000000000000000000000000000000000000000000000000000000000000000000000000000000000080f57a38321510e48c3012bf86869b010729990a00000000000000000000000000000000000000000000000000470de4df82000000000000000000000000000000000000000000000000000000000000000000000000000000000000000000000000000000000000000000000000000000000040000000000000000000000000ae0ee0a63a2ce6baeeffe56e7714fb4efe48d419073314940630fd6dcda0d772d4c972c4e0a9946bef9dabf4ef84eda8ef542b820000000000000000000000000000000000000000000000000000000000099b2c02d757788a8d8d6f21d1cd40bce38a8222d70654214e96ff95d8086e684fbee5000000000000000000000000000000000000000000000000000000000000000300bedcf4696c8df2787d8f35dc3201b9ec519965f1934cf5945af17eca46c50b000000000000000000000000000000000000000000000000002e2f6e5e1480000000000000000000000000000000000000000000000000000000000000000000000000000000000000000000ae0ee0a63a2ce6baeeffe56e7714fb4efe48d419073314940630fd6dcda0d772d4c972c4e0a9946bef9dabf4ef84eda8ef542b820000000000000000000000000000000000000000000000000000000000099b2d02d757788a8d8d6f21d1cd40bce38a8222d70654214e96ff95d8086e684fbee5000000000000000000000000000000000000000000000000000000000000000307d4cff78194ae21fdc9499b27df2d2be7e128f8ada03ee3a890f53c074214480000000000000000000000000000000000000000000000000026f1190c6dbe000000000000000000000000000000000000000000000000000000000000000000000000000000000000000000ae0ee0a63a2ce6baeeffe56e7714fb4efe48d419073314940630fd6dcda0d772d4c972c4e0a9946bef9dabf4ef84eda8ef542b820000000000000000000000000000000000000000000000000000000000099b2e02d757788a8d8d6f21d1cd40bce38a8222d70654214e96ff95d8086e684fbee5000000000000000000000000000000000000000000000000000000000000000303c110575ea481199b372d45f25cf395809f65301ae7b5ddcb26f6631567e8b5000000000000000000000000000000000000000000000000002e2f6e5e1480000000000000000000000000000000000000000000000000000000000000000000000000000000000000000000ae0ee0a63a2ce6baeeffe56e7714fb4efe48d419073314940630fd6dcda0d772d4c972c4e0a9946bef9dabf4ef84eda8ef542b820000000000000000000000000000000000000000000000000000000000099b2f02d757788a8d8d6f21d1cd40bce38a8222d70654214e96ff95d8086e684fbee500000000000000000000000000000000000000000000000000000000000000030685a2abac3cf701516e49ab9e1c7ce7564945e1c0b492dc98918d7d4734689f000000000000000000000000000000000000000000000000000fa1c6d50300000000000000000000000000000000000000000000000000000000000000000000000000000000000000000000ae0ee0a63a2ce6baeeffe56e7714fb4efe48d419073314940630fd6dcda0d772d4c972c4e0a9946bef9dabf4ef84eda8ef542b820000000000000000000000000000000000000000000000000000000000099b3002d757788a8d8d6f21d1cd40bce38a8222d70654214e96ff95d8086e684fbee50000000000000000000000000000000000000000000000000000000000000003001e436b9fdccf28b8f7a9451633cee91838f7905dc1acde28716202045d83ef000000000000000000000000000000000000000000000000002386f26fc100000000000000000000000000000000000000000000000000000000000000000000000000000000000000000000ae0ee0a63a2ce6baeeffe56e7714fb4efe48d419073314940630fd6dcda0d772d4c972c4e0a9946bef9dabf4ef84eda8ef542b820000000000000000000000000000000000000000000000000000000000099b3102d757788a8d8d6f21d1cd40bce38a8222d70654214e96ff95d8086e684fbee5000000000000000000000000000000000000000000000000000000000000000301ee6045d11b33211450858e3c8b3e85cf8bdcbf0f4bb077a7e3287a9d77a492000000000000000000000000000000000000000000000000028a2587c9e580000000000000000000000000000000000000000000000000000000000000000000000000000000000000000000ae0ee0a63a2ce6baeeffe56e7714fb4efe48d419073314940630fd6dcda0d772d4c972c4e0a9946bef9dabf4ef84eda8ef542b820000000000000000000000000000000000000000000000000000000000099b3202d757788a8d8d6f21d1cd40bce38a8222d70654214e96ff95d8086e684fbee5000000000000000000000000000000000000000000000000000000000000000306fcdef1f7f3cc5b27b8cbc8a932d5e646fac3ee73d2c406a2c24342ad6f9910000000000000000000000000000000000000000000000000002e2f6e5e1480000000000000000000000000000000000000000000000000000000000000000000000000000000000000000000ae0ee0a63a2ce6baeeffe56e7714fb4efe48d419073314940630fd6dcda0d772d4c972c4e0a9946bef9dabf4ef84eda8ef542b820000000000000000000000000000000000000000000000000000000000099b3302d757788a8d8d6f21d1cd40bce38a8222d70654214e96ff95d8086e684fbee500000000000000000000000000000000000000000000000000000000000000030778d0055b12df7e0171dec6330791ce807e21a0ca1897d41225da0b92c6448e000000000000000000000000000000000000000000000000001550f7dca700000000000000000000000000000000000000000000000000000000000000000000",
                    "decodedMethod": {
                        "callParams": [
                            {
                                "name": "programOutput",
                                "type": "uint256[]",
                                "value": [
                                    "5,135,382,458,834,877,515,875,313,985,727,328,092,394,146,581,640,474,575,207,589,158,162,721,888",
                                    "456,677,132,400,841,353,096,414,654,953,006,561,627,345,803,324,536,849,717,058,697,968,301,789,655",
                                    "78,834",
                                    "2,835,301,884,582,941,450,912,079,974,464,091,785,651,893,024,701,710,391,779,017,839,059,238,322,391",
                                    "671,483,050,609,816,861,429,812,414,688,707,376,174,032,882,875,357,307,847,551,691,140,236,175,837",
                                    "14",
                                    "3,256,441,166,037,631,918,262,930,812,410,838,598,500,200,462,657,642,943,867,372,734,773,841,898,370",
                                    "993,696,174,272,377,493,693,496,825,928,908,586,134,624,850,969",
                                    "4",
                                    "0",
                                    "1,028,754,958,056,563,381,175,357,941,349,051,307,254,329,305,447",
                                    "100,000,000,000,000,000",
                                    "0",
                                    "3,256,441,166,037,631,918,262,930,812,410,838,598,500,200,462,657,642,943,867,372,734,773,841,898,370",
                                    "993,696,174,272,377,493,693,496,825,928,908,586,134,624,850,969",
                                    "4",
                                    "0",
                                    "736,225,148,060,358,464,743,399,264,453,991,158,712,376,072,458",
                                    "20,000,000,000,000,000",
                                    "0",
                                    "64",
                                    "993,696,174,272,377,493,693,496,825,928,908,586,134,624,850,969",
                                    "3,256,441,166,037,631,918,262,930,812,410,838,598,500,200,462,657,642,943,867,372,734,773,841,898,370",
                                    "629,548",
                                    "1,285,101,517,810,983,806,491,589,552,491,143,496,277,809,242,732,141,897,358,598,292,095,611,420,389",
                                    "3",
                                    "337,225,915,833,621,079,933,627,359,051,850,746,232,801,605,670,579,063,462,909,758,286,183,449,867",
                                    "13,000,000,000,000,000",
                                    "0",
                                    "993,696,174,272,377,493,693,496,825,928,908,586,134,624,850,969",
                                    "3,256,441,166,037,631,918,262,930,812,410,838,598,500,200,462,657,642,943,867,372,734,773,841,898,370",
                                    "629,549",
                                    "1,285,101,517,810,983,806,491,589,552,491,143,496,277,809,242,732,141,897,358,598,292,095,611,420,389",
                                    "3",
                                    "3,542,196,852,062,943,743,848,597,972,324,821,177,624,972,317,739,938,453,028,341,127,227,279,283,272",
                                    "10,961,139,000,000,000",
                                    "0",
                                    "993,696,174,272,377,493,693,496,825,928,908,586,134,624,850,969",
                                    "3,256,441,166,037,631,918,262,930,812,410,838,598,500,200,462,657,642,943,867,372,734,773,841,898,370",
                                    "629,550",
                                    "1,285,101,517,810,983,806,491,589,552,491,143,496,277,809,242,732,141,897,358,598,292,095,611,420,389",
                                    "3",
                                    "1,698,052,812,675,964,591,291,481,615,578,520,588,349,222,837,811,361,583,000,310,260,581,263,730,869",
                                    "13,000,000,000,000,000",
                                    "0",
                                    "993,696,174,272,377,493,693,496,825,928,908,586,134,624,850,969",
                                    "3,256,441,166,037,631,918,262,930,812,410,838,598,500,200,462,657,642,943,867,372,734,773,841,898,370",
                                    "629,551",
                                    "1,285,101,517,810,983,806,491,589,552,491,143,496,277,809,242,732,141,897,358,598,292,095,611,420,389",
                                    "3",
                                    "2,949,990,462,312,977,257,489,858,447,075,843,902,329,352,850,541,085,440,710,440,261,425,846,053,023",
                                    "4,400,000,000,000,000",
                                    "0",
                                    "993,696,174,272,377,493,693,496,825,928,908,586,134,624,850,969",
                                    "3,256,441,166,037,631,918,262,930,812,410,838,598,500,200,462,657,642,943,867,372,734,773,841,898,370",
                                    "629,552",
                                    "1,285,101,517,810,983,806,491,589,552,491,143,496,277,809,242,732,141,897,358,598,292,095,611,420,389",
                                    "3",
                                    "53,470,730,498,369,900,527,593,230,375,929,451,295,740,764,481,384,165,871,246,231,688,844,248,047",
                                    "10,000,000,000,000,000",
                                    "0",
                                    "993,696,174,272,377,493,693,496,825,928,908,586,134,624,850,969",
                                    "3,256,441,166,037,631,918,262,930,812,410,838,598,500,200,462,657,642,943,867,372,734,773,841,898,370",
                                    "629,553",
                                    "1,285,101,517,810,983,806,491,589,552,491,143,496,277,809,242,732,141,897,358,598,292,095,611,420,389",
                                    "3",
                                    "873,486,899,907,592,062,304,984,190,735,791,938,998,292,935,341,568,478,720,962,829,173,292,246,162",
                                    "183,000,000,000,000,000",
                                    "0",
                                    "993,696,174,272,377,493,693,496,825,928,908,586,134,624,850,969",
                                    "3,256,441,166,037,631,918,262,930,812,410,838,598,500,200,462,657,642,943,867,372,734,773,841,898,370",
                                    "629,554",
                                    "1,285,101,517,810,983,806,491,589,552,491,143,496,277,809,242,732,141,897,358,598,292,095,611,420,389",
                                    "3",
                                    "3,160,661,262,972,314,301,302,089,258,334,868,821,547,126,296,337,416,360,421,973,516,143,509,346,576",
                                    "13,000,000,000,000,000",
                                    "0",
                                    "993,696,174,272,377,493,693,496,825,928,908,586,134,624,850,969",
                                    "3,256,441,166,037,631,918,262,930,812,410,838,598,500,200,462,657,642,943,867,372,734,773,841,898,370",
                                    "629,555",
                                    "1,285,101,517,810,983,806,491,589,552,491,143,496,277,809,242,732,141,897,358,598,292,095,611,420,389",
                                    "3",
                                    "3,379,647,295,487,319,061,665,014,582,369,273,119,314,133,081,826,169,256,921,826,714,012,451,488,910",
                                    "6,000,000,000,000,000",
                                    "0"
                                ]
                            },
                            {
                                "name": "onchainDataHash",
                                "type": "uint256",
                                "value": "109,848,803,131,326,054,663,224,096,038,242,715,853,790,681,371,247,604,894,404,378,916,446,956,884,771"
                            },
                            {
                                "name": "onchainDataSize",
                                "type": "uint256",
                                "value": "1,890"
                            }
                        ],
                        "constructorArguments": "",
                        "name": "updateState",
                        "returnParams": [],
                        "signature": "updateState(uint256[],uint256,uint256)"
                    },
                    "errorInfo": "",
                    "fromAddress": "0x2c169dfe5fbba12957bdd0ba47d9cedbfe260ca7",
                    "gasUsed": 211164,
                    "id": 0,
                    "methodDecoded": true,
                    "operation": "CALL",
                    "output": "",
                    "revert": false,
                    "revertMessage": "",
                    "selector": "0x77552641",
                    "status": true,
                    "value": "0"
                },
                "nodeType": 0
            },
            "1": {
                "invocation": {
                    "address": "0x16938e4b59297060484fa56a12594d8d6f4177e8",
                    "callData": "0x0000000000000000000000000000000000000000000000000000000000000060f2dc382234233e211de331df32c485f98aabe11faabc43ad0f0dae644cfb1323000000000000000000000000000000000000000000000000000000000000076200000000000000000000000000000000000000000000000000000000000000550002e811ec09caf4b20e470ffb5ef01552237d61e8b785e4a7b5e22a055eec600102785848a6c91d86cd513524e07260b6821e904a8742a6accafb70595e51d700000000000000000000000000000000000000000000000000000000000133f20644b957e4bcdd3678a011b4cd6d507ebad2f3585c2f510a6d27e848d6b300d7017c0bc29d31e9a7d14671610a7626264ce9ce8e3ed066a4775adf9b123de9dd000000000000000000000000000000000000000000000000000000000000000e073314940630fd6dcda0d772d4c972c4e0a9946bef9dabf4ef84eda8ef542b82000000000000000000000000ae0ee0a63a2ce6baeeffe56e7714fb4efe48d41900000000000000000000000000000000000000000000000000000000000000040000000000000000000000000000000000000000000000000000000000000000000000000000000000000000b432f7bff09506cab924ae4adb205f0eef26e967000000000000000000000000000000000000000000000000016345785d8a00000000000000000000000000000000000000000000000000000000000000000000073314940630fd6dcda0d772d4c972c4e0a9946bef9dabf4ef84eda8ef542b82000000000000000000000000ae0ee0a63a2ce6baeeffe56e7714fb4efe48d4190000000000000000000000000000000000000000000000000000000000000004000000000000000000000000000000000000000000000000000000000000000000000000000000000000000080f57a38321510e48c3012bf86869b010729990a00000000000000000000000000000000000000000000000000470de4df82000000000000000000000000000000000000000000000000000000000000000000000000000000000000000000000000000000000000000000000000000000000040000000000000000000000000ae0ee0a63a2ce6baeeffe56e7714fb4efe48d419073314940630fd6dcda0d772d4c972c4e0a9946bef9dabf4ef84eda8ef542b820000000000000000000000000000000000000000000000000000000000099b2c02d757788a8d8d6f21d1cd40bce38a8222d70654214e96ff95d8086e684fbee5000000000000000000000000000000000000000000000000000000000000000300bedcf4696c8df2787d8f35dc3201b9ec519965f1934cf5945af17eca46c50b000000000000000000000000000000000000000000000000002e2f6e5e1480000000000000000000000000000000000000000000000000000000000000000000000000000000000000000000ae0ee0a63a2ce6baeeffe56e7714fb4efe48d419073314940630fd6dcda0d772d4c972c4e0a9946bef9dabf4ef84eda8ef542b820000000000000000000000000000000000000000000000000000000000099b2d02d757788a8d8d6f21d1cd40bce38a8222d70654214e96ff95d8086e684fbee5000000000000000000000000000000000000000000000000000000000000000307d4cff78194ae21fdc9499b27df2d2be7e128f8ada03ee3a890f53c074214480000000000000000000000000000000000000000000000000026f1190c6dbe000000000000000000000000000000000000000000000000000000000000000000000000000000000000000000ae0ee0a63a2ce6baeeffe56e7714fb4efe48d419073314940630fd6dcda0d772d4c972c4e0a9946bef9dabf4ef84eda8ef542b820000000000000000000000000000000000000000000000000000000000099b2e02d757788a8d8d6f21d1cd40bce38a8222d70654214e96ff95d8086e684fbee5000000000000000000000000000000000000000000000000000000000000000303c110575ea481199b372d45f25cf395809f65301ae7b5ddcb26f6631567e8b5000000000000000000000000000000000000000000000000002e2f6e5e1480000000000000000000000000000000000000000000000000000000000000000000000000000000000000000000ae0ee0a63a2ce6baeeffe56e7714fb4efe48d419073314940630fd6dcda0d772d4c972c4e0a9946bef9dabf4ef84eda8ef542b820000000000000000000000000000000000000000000000000000000000099b2f02d757788a8d8d6f21d1cd40bce38a8222d70654214e96ff95d8086e684fbee500000000000000000000000000000000000000000000000000000000000000030685a2abac3cf701516e49ab9e1c7ce7564945e1c0b492dc98918d7d4734689f000000000000000000000000000000000000000000000000000fa1c6d50300000000000000000000000000000000000000000000000000000000000000000000000000000000000000000000ae0ee0a63a2ce6baeeffe56e7714fb4efe48d419073314940630fd6dcda0d772d4c972c4e0a9946bef9dabf4ef84eda8ef542b820000000000000000000000000000000000000000000000000000000000099b3002d757788a8d8d6f21d1cd40bce38a8222d70654214e96ff95d8086e684fbee50000000000000000000000000000000000000000000000000000000000000003001e436b9fdccf28b8f7a9451633cee91838f7905dc1acde28716202045d83ef000000000000000000000000000000000000000000000000002386f26fc100000000000000000000000000000000000000000000000000000000000000000000000000000000000000000000ae0ee0a63a2ce6baeeffe56e7714fb4efe48d419073314940630fd6dcda0d772d4c972c4e0a9946bef9dabf4ef84eda8ef542b820000000000000000000000000000000000000000000000000000000000099b3102d757788a8d8d6f21d1cd40bce38a8222d70654214e96ff95d8086e684fbee5000000000000000000000000000000000000000000000000000000000000000301ee6045d11b33211450858e3c8b3e85cf8bdcbf0f4bb077a7e3287a9d77a492000000000000000000000000000000000000000000000000028a2587c9e580000000000000000000000000000000000000000000000000000000000000000000000000000000000000000000ae0ee0a63a2ce6baeeffe56e7714fb4efe48d419073314940630fd6dcda0d772d4c972c4e0a9946bef9dabf4ef84eda8ef542b820000000000000000000000000000000000000000000000000000000000099b3202d757788a8d8d6f21d1cd40bce38a8222d70654214e96ff95d8086e684fbee5000000000000000000000000000000000000000000000000000000000000000306fcdef1f7f3cc5b27b8cbc8a932d5e646fac3ee73d2c406a2c24342ad6f9910000000000000000000000000000000000000000000000000002e2f6e5e1480000000000000000000000000000000000000000000000000000000000000000000000000000000000000000000ae0ee0a63a2ce6baeeffe56e7714fb4efe48d419073314940630fd6dcda0d772d4c972c4e0a9946bef9dabf4ef84eda8ef542b820000000000000000000000000000000000000000000000000000000000099b3302d757788a8d8d6f21d1cd40bce38a8222d70654214e96ff95d8086e684fbee500000000000000000000000000000000000000000000000000000000000000030778d0055b12df7e0171dec6330791ce807e21a0ca1897d41225da0b92c6448e000000000000000000000000000000000000000000000000001550f7dca700000000000000000000000000000000000000000000000000000000000000000000",
                    "decodedMethod": {
                        "callParams": [
                            {
                                "name": "programOutput",
                                "type": "uint256[]",
                                "value": [
                                    "5,135,382,458,834,877,515,875,313,985,727,328,092,394,146,581,640,474,575,207,589,158,162,721,888",
                                    "456,677,132,400,841,353,096,414,654,953,006,561,627,345,803,324,536,849,717,058,697,968,301,789,655",
                                    "78,834",
                                    "2,835,301,884,582,941,450,912,079,974,464,091,785,651,893,024,701,710,391,779,017,839,059,238,322,391",
                                    "671,483,050,609,816,861,429,812,414,688,707,376,174,032,882,875,357,307,847,551,691,140,236,175,837",
                                    "14",
                                    "3,256,441,166,037,631,918,262,930,812,410,838,598,500,200,462,657,642,943,867,372,734,773,841,898,370",
                                    "993,696,174,272,377,493,693,496,825,928,908,586,134,624,850,969",
                                    "4",
                                    "0",
                                    "1,028,754,958,056,563,381,175,357,941,349,051,307,254,329,305,447",
                                    "100,000,000,000,000,000",
                                    "0",
                                    "3,256,441,166,037,631,918,262,930,812,410,838,598,500,200,462,657,642,943,867,372,734,773,841,898,370",
                                    "993,696,174,272,377,493,693,496,825,928,908,586,134,624,850,969",
                                    "4",
                                    "0",
                                    "736,225,148,060,358,464,743,399,264,453,991,158,712,376,072,458",
                                    "20,000,000,000,000,000",
                                    "0",
                                    "64",
                                    "993,696,174,272,377,493,693,496,825,928,908,586,134,624,850,969",
                                    "3,256,441,166,037,631,918,262,930,812,410,838,598,500,200,462,657,642,943,867,372,734,773,841,898,370",
                                    "629,548",
                                    "1,285,101,517,810,983,806,491,589,552,491,143,496,277,809,242,732,141,897,358,598,292,095,611,420,389",
                                    "3",
                                    "337,225,915,833,621,079,933,627,359,051,850,746,232,801,605,670,579,063,462,909,758,286,183,449,867",
                                    "13,000,000,000,000,000",
                                    "0",
                                    "993,696,174,272,377,493,693,496,825,928,908,586,134,624,850,969",
                                    "3,256,441,166,037,631,918,262,930,812,410,838,598,500,200,462,657,642,943,867,372,734,773,841,898,370",
                                    "629,549",
                                    "1,285,101,517,810,983,806,491,589,552,491,143,496,277,809,242,732,141,897,358,598,292,095,611,420,389",
                                    "3",
                                    "3,542,196,852,062,943,743,848,597,972,324,821,177,624,972,317,739,938,453,028,341,127,227,279,283,272",
                                    "10,961,139,000,000,000",
                                    "0",
                                    "993,696,174,272,377,493,693,496,825,928,908,586,134,624,850,969",
                                    "3,256,441,166,037,631,918,262,930,812,410,838,598,500,200,462,657,642,943,867,372,734,773,841,898,370",
                                    "629,550",
                                    "1,285,101,517,810,983,806,491,589,552,491,143,496,277,809,242,732,141,897,358,598,292,095,611,420,389",
                                    "3",
                                    "1,698,052,812,675,964,591,291,481,615,578,520,588,349,222,837,811,361,583,000,310,260,581,263,730,869",
                                    "13,000,000,000,000,000",
                                    "0",
                                    "993,696,174,272,377,493,693,496,825,928,908,586,134,624,850,969",
                                    "3,256,441,166,037,631,918,262,930,812,410,838,598,500,200,462,657,642,943,867,372,734,773,841,898,370",
                                    "629,551",
                                    "1,285,101,517,810,983,806,491,589,552,491,143,496,277,809,242,732,141,897,358,598,292,095,611,420,389",
                                    "3",
                                    "2,949,990,462,312,977,257,489,858,447,075,843,902,329,352,850,541,085,440,710,440,261,425,846,053,023",
                                    "4,400,000,000,000,000",
                                    "0",
                                    "993,696,174,272,377,493,693,496,825,928,908,586,134,624,850,969",
                                    "3,256,441,166,037,631,918,262,930,812,410,838,598,500,200,462,657,642,943,867,372,734,773,841,898,370",
                                    "629,552",
                                    "1,285,101,517,810,983,806,491,589,552,491,143,496,277,809,242,732,141,897,358,598,292,095,611,420,389",
                                    "3",
                                    "53,470,730,498,369,900,527,593,230,375,929,451,295,740,764,481,384,165,871,246,231,688,844,248,047",
                                    "10,000,000,000,000,000",
                                    "0",
                                    "993,696,174,272,377,493,693,496,825,928,908,586,134,624,850,969",
                                    "3,256,441,166,037,631,918,262,930,812,410,838,598,500,200,462,657,642,943,867,372,734,773,841,898,370",
                                    "629,553",
                                    "1,285,101,517,810,983,806,491,589,552,491,143,496,277,809,242,732,141,897,358,598,292,095,611,420,389",
                                    "3",
                                    "873,486,899,907,592,062,304,984,190,735,791,938,998,292,935,341,568,478,720,962,829,173,292,246,162",
                                    "183,000,000,000,000,000",
                                    "0",
                                    "993,696,174,272,377,493,693,496,825,928,908,586,134,624,850,969",
                                    "3,256,441,166,037,631,918,262,930,812,410,838,598,500,200,462,657,642,943,867,372,734,773,841,898,370",
                                    "629,554",
                                    "1,285,101,517,810,983,806,491,589,552,491,143,496,277,809,242,732,141,897,358,598,292,095,611,420,389",
                                    "3",
                                    "3,160,661,262,972,314,301,302,089,258,334,868,821,547,126,296,337,416,360,421,973,516,143,509,346,576",
                                    "13,000,000,000,000,000",
                                    "0",
                                    "993,696,174,272,377,493,693,496,825,928,908,586,134,624,850,969",
                                    "3,256,441,166,037,631,918,262,930,812,410,838,598,500,200,462,657,642,943,867,372,734,773,841,898,370",
                                    "629,555",
                                    "1,285,101,517,810,983,806,491,589,552,491,143,496,277,809,242,732,141,897,358,598,292,095,611,420,389",
                                    "3",
                                    "3,379,647,295,487,319,061,665,014,582,369,273,119,314,133,081,826,169,256,921,826,714,012,451,488,910",
                                    "6,000,000,000,000,000",
                                    "0"
                                ]
                            },
                            {
                                "name": "onchainDataHash",
                                "type": "uint256",
                                "value": "109,848,803,131,326,054,663,224,096,038,242,715,853,790,681,371,247,604,894,404,378,916,446,956,884,771"
                            },
                            {
                                "name": "onchainDataSize",
                                "type": "uint256",
                                "value": "1,890"
                            }
                        ],
                        "constructorArguments": "",
                        "name": "updateState",
                        "returnParams": [],
                        "signature": "updateState(uint256[],uint256,uint256)"
                    },
                    "errorInfo": "",
                    "fromAddress": "0xc662c410c0ecf747543f5ba90660f6abebd9c8c4",
                    "gasUsed": 195592,
                    "id": 1,
                    "methodDecoded": true,
                    "operation": "DELEGATECALL",
                    "output": "",
                    "revert": false,
                    "revertMessage": "",
                    "selector": "0x77552641",
                    "status": true,
                    "value": "0"
                },
                "nodeType": 0
            },
            "10": {
                "event": {
                    "contract": "0xc662c410c0ecf747543f5ba90660f6abebd9c8c4",
                    "decodedLog": {
                        "name": "ConsumedMessageToL2",
                        "params": [
                            {
                                "name": "fromAddress",
                                "type": "address",
                                "value": "0xae0ee0a63a2ce6baeeffe56e7714fb4efe48d419"
                            },
                            {
                                "name": "toAddress",
                                "type": "uint256",
                                "value": "3,256,441,166,037,631,918,262,930,812,410,838,598,500,200,462,657,642,943,867,372,734,773,841,898,370"
                            },
                            {
                                "name": "selector",
                                "type": "uint256",
                                "value": "1,285,101,517,810,983,806,491,589,552,491,143,496,277,809,242,732,141,897,358,598,292,095,611,420,389"
                            },
                            {
                                "name": "payload",
                                "type": "uint256[]",
                                "value": [
                                    "1,698,052,812,675,964,591,291,481,615,578,520,588,349,222,837,811,361,583,000,310,260,581,263,730,869",
                                    "13,000,000,000,000,000",
                                    "0"
                                ]
                            },
                            {
                                "name": "nonce",
                                "type": "uint256",
                                "value": "629,550"
                            }
                        ],
                        "signature": "ConsumedMessageToL2(address,uint256,uint256,uint256[],uint256)"
                    },
                    "id": 10,
                    "logData": "0x00000000000000000000000000000000000000000000000000000000000000400000000000000000000000000000000000000000000000000000000000099b2e000000000000000000000000000000000000000000000000000000000000000303c110575ea481199b372d45f25cf395809f65301ae7b5ddcb26f6631567e8b5000000000000000000000000000000000000000000000000002e2f6e5e1480000000000000000000000000000000000000000000000000000000000000000000",
                    "logDecoded": true,
                    "operation": "EVENT",
                    "revert": false,
                    "status": true,
                    "topics": [
                        "0x9592d37825c744e33fa80c469683bbd04d336241bb600b574758efd182abe26a",
                        "0x000000000000000000000000ae0ee0a63a2ce6baeeffe56e7714fb4efe48d419",
                        "0x073314940630fd6dcda0d772d4c972c4e0a9946bef9dabf4ef84eda8ef542b82",
                        "0x02d757788a8d8d6f21d1cd40bce38a8222d70654214e96ff95d8086e684fbee5"
                    ]
                },
                "nodeType": 1
            },
            "11": {
                "event": {
                    "contract": "0xc662c410c0ecf747543f5ba90660f6abebd9c8c4",
                    "decodedLog": {
                        "name": "ConsumedMessageToL2",
                        "params": [
                            {
                                "name": "fromAddress",
                                "type": "address",
                                "value": "0xae0ee0a63a2ce6baeeffe56e7714fb4efe48d419"
                            },
                            {
                                "name": "toAddress",
                                "type": "uint256",
                                "value": "3,256,441,166,037,631,918,262,930,812,410,838,598,500,200,462,657,642,943,867,372,734,773,841,898,370"
                            },
                            {
                                "name": "selector",
                                "type": "uint256",
                                "value": "1,285,101,517,810,983,806,491,589,552,491,143,496,277,809,242,732,141,897,358,598,292,095,611,420,389"
                            },
                            {
                                "name": "payload",
                                "type": "uint256[]",
                                "value": [
                                    "2,949,990,462,312,977,257,489,858,447,075,843,902,329,352,850,541,085,440,710,440,261,425,846,053,023",
                                    "4,400,000,000,000,000",
                                    "0"
                                ]
                            },
                            {
                                "name": "nonce",
                                "type": "uint256",
                                "value": "629,551"
                            }
                        ],
                        "signature": "ConsumedMessageToL2(address,uint256,uint256,uint256[],uint256)"
                    },
                    "id": 11,
                    "logData": "0x00000000000000000000000000000000000000000000000000000000000000400000000000000000000000000000000000000000000000000000000000099b2f00000000000000000000000000000000000000000000000000000000000000030685a2abac3cf701516e49ab9e1c7ce7564945e1c0b492dc98918d7d4734689f000000000000000000000000000000000000000000000000000fa1c6d50300000000000000000000000000000000000000000000000000000000000000000000",
                    "logDecoded": true,
                    "operation": "EVENT",
                    "revert": false,
                    "status": true,
                    "topics": [
                        "0x9592d37825c744e33fa80c469683bbd04d336241bb600b574758efd182abe26a",
                        "0x000000000000000000000000ae0ee0a63a2ce6baeeffe56e7714fb4efe48d419",
                        "0x073314940630fd6dcda0d772d4c972c4e0a9946bef9dabf4ef84eda8ef542b82",
                        "0x02d757788a8d8d6f21d1cd40bce38a8222d70654214e96ff95d8086e684fbee5"
                    ]
                },
                "nodeType": 1
            },
            "12": {
                "event": {
                    "contract": "0xc662c410c0ecf747543f5ba90660f6abebd9c8c4",
                    "decodedLog": {
                        "name": "ConsumedMessageToL2",
                        "params": [
                            {
                                "name": "fromAddress",
                                "type": "address",
                                "value": "0xae0ee0a63a2ce6baeeffe56e7714fb4efe48d419"
                            },
                            {
                                "name": "toAddress",
                                "type": "uint256",
                                "value": "3,256,441,166,037,631,918,262,930,812,410,838,598,500,200,462,657,642,943,867,372,734,773,841,898,370"
                            },
                            {
                                "name": "selector",
                                "type": "uint256",
                                "value": "1,285,101,517,810,983,806,491,589,552,491,143,496,277,809,242,732,141,897,358,598,292,095,611,420,389"
                            },
                            {
                                "name": "payload",
                                "type": "uint256[]",
                                "value": [
                                    "53,470,730,498,369,900,527,593,230,375,929,451,295,740,764,481,384,165,871,246,231,688,844,248,047",
                                    "10,000,000,000,000,000",
                                    "0"
                                ]
                            },
                            {
                                "name": "nonce",
                                "type": "uint256",
                                "value": "629,552"
                            }
                        ],
                        "signature": "ConsumedMessageToL2(address,uint256,uint256,uint256[],uint256)"
                    },
                    "id": 12,
                    "logData": "0x00000000000000000000000000000000000000000000000000000000000000400000000000000000000000000000000000000000000000000000000000099b300000000000000000000000000000000000000000000000000000000000000003001e436b9fdccf28b8f7a9451633cee91838f7905dc1acde28716202045d83ef000000000000000000000000000000000000000000000000002386f26fc100000000000000000000000000000000000000000000000000000000000000000000",
                    "logDecoded": true,
                    "operation": "EVENT",
                    "revert": false,
                    "status": true,
                    "topics": [
                        "0x9592d37825c744e33fa80c469683bbd04d336241bb600b574758efd182abe26a",
                        "0x000000000000000000000000ae0ee0a63a2ce6baeeffe56e7714fb4efe48d419",
                        "0x073314940630fd6dcda0d772d4c972c4e0a9946bef9dabf4ef84eda8ef542b82",
                        "0x02d757788a8d8d6f21d1cd40bce38a8222d70654214e96ff95d8086e684fbee5"
                    ]
                },
                "nodeType": 1
            },
            "13": {
                "event": {
                    "contract": "0xc662c410c0ecf747543f5ba90660f6abebd9c8c4",
                    "decodedLog": {
                        "name": "ConsumedMessageToL2",
                        "params": [
                            {
                                "name": "fromAddress",
                                "type": "address",
                                "value": "0xae0ee0a63a2ce6baeeffe56e7714fb4efe48d419"
                            },
                            {
                                "name": "toAddress",
                                "type": "uint256",
                                "value": "3,256,441,166,037,631,918,262,930,812,410,838,598,500,200,462,657,642,943,867,372,734,773,841,898,370"
                            },
                            {
                                "name": "selector",
                                "type": "uint256",
                                "value": "1,285,101,517,810,983,806,491,589,552,491,143,496,277,809,242,732,141,897,358,598,292,095,611,420,389"
                            },
                            {
                                "name": "payload",
                                "type": "uint256[]",
                                "value": [
                                    "873,486,899,907,592,062,304,984,190,735,791,938,998,292,935,341,568,478,720,962,829,173,292,246,162",
                                    "183,000,000,000,000,000",
                                    "0"
                                ]
                            },
                            {
                                "name": "nonce",
                                "type": "uint256",
                                "value": "629,553"
                            }
                        ],
                        "signature": "ConsumedMessageToL2(address,uint256,uint256,uint256[],uint256)"
                    },
                    "id": 13,
                    "logData": "0x00000000000000000000000000000000000000000000000000000000000000400000000000000000000000000000000000000000000000000000000000099b31000000000000000000000000000000000000000000000000000000000000000301ee6045d11b33211450858e3c8b3e85cf8bdcbf0f4bb077a7e3287a9d77a492000000000000000000000000000000000000000000000000028a2587c9e580000000000000000000000000000000000000000000000000000000000000000000",
                    "logDecoded": true,
                    "operation": "EVENT",
                    "revert": false,
                    "status": true,
                    "topics": [
                        "0x9592d37825c744e33fa80c469683bbd04d336241bb600b574758efd182abe26a",
                        "0x000000000000000000000000ae0ee0a63a2ce6baeeffe56e7714fb4efe48d419",
                        "0x073314940630fd6dcda0d772d4c972c4e0a9946bef9dabf4ef84eda8ef542b82",
                        "0x02d757788a8d8d6f21d1cd40bce38a8222d70654214e96ff95d8086e684fbee5"
                    ]
                },
                "nodeType": 1
            },
            "14": {
                "event": {
                    "contract": "0xc662c410c0ecf747543f5ba90660f6abebd9c8c4",
                    "decodedLog": {
                        "name": "ConsumedMessageToL2",
                        "params": [
                            {
                                "name": "fromAddress",
                                "type": "address",
                                "value": "0xae0ee0a63a2ce6baeeffe56e7714fb4efe48d419"
                            },
                            {
                                "name": "toAddress",
                                "type": "uint256",
                                "value": "3,256,441,166,037,631,918,262,930,812,410,838,598,500,200,462,657,642,943,867,372,734,773,841,898,370"
                            },
                            {
                                "name": "selector",
                                "type": "uint256",
                                "value": "1,285,101,517,810,983,806,491,589,552,491,143,496,277,809,242,732,141,897,358,598,292,095,611,420,389"
                            },
                            {
                                "name": "payload",
                                "type": "uint256[]",
                                "value": [
                                    "3,160,661,262,972,314,301,302,089,258,334,868,821,547,126,296,337,416,360,421,973,516,143,509,346,576",
                                    "13,000,000,000,000,000",
                                    "0"
                                ]
                            },
                            {
                                "name": "nonce",
                                "type": "uint256",
                                "value": "629,554"
                            }
                        ],
                        "signature": "ConsumedMessageToL2(address,uint256,uint256,uint256[],uint256)"
                    },
                    "id": 14,
                    "logData": "0x00000000000000000000000000000000000000000000000000000000000000400000000000000000000000000000000000000000000000000000000000099b32000000000000000000000000000000000000000000000000000000000000000306fcdef1f7f3cc5b27b8cbc8a932d5e646fac3ee73d2c406a2c24342ad6f9910000000000000000000000000000000000000000000000000002e2f6e5e1480000000000000000000000000000000000000000000000000000000000000000000",
                    "logDecoded": true,
                    "operation": "EVENT",
                    "revert": false,
                    "status": true,
                    "topics": [
                        "0x9592d37825c744e33fa80c469683bbd04d336241bb600b574758efd182abe26a",
                        "0x000000000000000000000000ae0ee0a63a2ce6baeeffe56e7714fb4efe48d419",
                        "0x073314940630fd6dcda0d772d4c972c4e0a9946bef9dabf4ef84eda8ef542b82",
                        "0x02d757788a8d8d6f21d1cd40bce38a8222d70654214e96ff95d8086e684fbee5"
                    ]
                },
                "nodeType": 1
            },
            "15": {
                "event": {
                    "contract": "0xc662c410c0ecf747543f5ba90660f6abebd9c8c4",
                    "decodedLog": {
                        "name": "ConsumedMessageToL2",
                        "params": [
                            {
                                "name": "fromAddress",
                                "type": "address",
                                "value": "0xae0ee0a63a2ce6baeeffe56e7714fb4efe48d419"
                            },
                            {
                                "name": "toAddress",
                                "type": "uint256",
                                "value": "3,256,441,166,037,631,918,262,930,812,410,838,598,500,200,462,657,642,943,867,372,734,773,841,898,370"
                            },
                            {
                                "name": "selector",
                                "type": "uint256",
                                "value": "1,285,101,517,810,983,806,491,589,552,491,143,496,277,809,242,732,141,897,358,598,292,095,611,420,389"
                            },
                            {
                                "name": "payload",
                                "type": "uint256[]",
                                "value": [
                                    "3,379,647,295,487,319,061,665,014,582,369,273,119,314,133,081,826,169,256,921,826,714,012,451,488,910",
                                    "6,000,000,000,000,000",
                                    "0"
                                ]
                            },
                            {
                                "name": "nonce",
                                "type": "uint256",
                                "value": "629,555"
                            }
                        ],
                        "signature": "ConsumedMessageToL2(address,uint256,uint256,uint256[],uint256)"
                    },
                    "id": 15,
                    "logData": "0x00000000000000000000000000000000000000000000000000000000000000400000000000000000000000000000000000000000000000000000000000099b3300000000000000000000000000000000000000000000000000000000000000030778d0055b12df7e0171dec6330791ce807e21a0ca1897d41225da0b92c6448e000000000000000000000000000000000000000000000000001550f7dca700000000000000000000000000000000000000000000000000000000000000000000",
                    "logDecoded": true,
                    "operation": "EVENT",
                    "revert": false,
                    "status": true,
                    "topics": [
                        "0x9592d37825c744e33fa80c469683bbd04d336241bb600b574758efd182abe26a",
                        "0x000000000000000000000000ae0ee0a63a2ce6baeeffe56e7714fb4efe48d419",
                        "0x073314940630fd6dcda0d772d4c972c4e0a9946bef9dabf4ef84eda8ef542b82",
                        "0x02d757788a8d8d6f21d1cd40bce38a8222d70654214e96ff95d8086e684fbee5"
                    ]
                },
                "nodeType": 1
            },
            "16": {
                "invocation": {
                    "address": "0x2c169dfe5fbba12957bdd0ba47d9cedbfe260ca7",
                    "callData": "0x",
                    "decodedMethod": null,
                    "errorInfo": "",
                    "fromAddress": "0xc662c410c0ecf747543f5ba90660f6abebd9c8c4",
                    "gasUsed": 0,
                    "id": 16,
                    "methodDecoded": false,
                    "operation": "CALL",
                    "output": "",
                    "revert": false,
                    "revertMessage": "",
                    "selector": "fallback",
                    "status": true,
                    "value": "0.004006384482438518"
                },
                "nodeType": 0
            },
            "17": {
                "event": {
                    "contract": "0xc662c410c0ecf747543f5ba90660f6abebd9c8c4",
                    "decodedLog": {
                        "name": "LogStateUpdate",
                        "params": [
                            {
                                "name": "globalRoot",
                                "type": "uint256",
                                "value": "456,677,132,400,841,353,096,414,654,953,006,561,627,345,803,324,536,849,717,058,697,968,301,789,655"
                            },
                            {
                                "name": "blockNumber",
                                "type": "int256",
                                "value": "78,834"
                            },
                            {
                                "name": "blockHash",
                                "type": "uint256",
                                "value": "2,835,301,884,582,941,450,912,079,974,464,091,785,651,893,024,701,710,391,779,017,839,059,238,322,391"
                            }
                        ],
                        "signature": "LogStateUpdate(uint256,int256,uint256)"
                    },
                    "id": 17,
                    "logData": "0x0102785848a6c91d86cd513524e07260b6821e904a8742a6accafb70595e51d700000000000000000000000000000000000000000000000000000000000133f20644b957e4bcdd3678a011b4cd6d507ebad2f3585c2f510a6d27e848d6b300d7",
                    "logDecoded": true,
                    "operation": "EVENT",
                    "revert": false,
                    "status": true,
                    "topics": [
                        "0xd342ddf7a308dec111745b00315c14b7efb2bdae570a6856e088ed0c65a3576c"
                    ]
                },
                "nodeType": 1
            },
            "2": {
                "invocation": {
                    "address": "0x47312450b3ac8b5b8e247a6bb6d523e7605bdb60",
                    "callData": "0x6761148def40c8ca440d9aff98829f83f1c8ae64cf43b9d08f5a3955b327432d",
                    "decodedMethod": {
                        "callParams": [
                            {
                                "name": "fact",
                                "type": "bytes32",
                                "value": "0x6761148def40c8ca440d9aff98829f83f1c8ae64cf43b9d08f5a3955b327432d"
                            }
                        ],
                        "constructorArguments": "",
                        "name": "isValid",
                        "returnParams": [
                            {
                                "name": "",
                                "type": "bool",
                                "value": true
                            }
                        ],
                        "signature": "isValid(bytes32)"
                    },
                    "errorInfo": "",
                    "fromAddress": "0xc662c410c0ecf747543f5ba90660f6abebd9c8c4",
                    "gasUsed": 12994,
                    "id": 2,
                    "methodDecoded": true,
                    "operation": "STATICCALL",
                    "output": "0x0000000000000000000000000000000000000000000000000000000000000001",
                    "revert": false,
                    "revertMessage": "",
                    "selector": "0x6a938567",
                    "status": true,
                    "value": "0"
                },
                "nodeType": 0
            },
            "3": {
                "invocation": {
                    "address": "0xd4c4044aca68ebbcb81b13cc2699e1bca2d3f458",
                    "callData": "0x6761148def40c8ca440d9aff98829f83f1c8ae64cf43b9d08f5a3955b327432d",
                    "decodedMethod": {
                        "callParams": [
                            {
                                "name": "fact",
                                "type": "bytes32",
                                "value": "0x6761148def40c8ca440d9aff98829f83f1c8ae64cf43b9d08f5a3955b327432d"
                            }
                        ],
                        "constructorArguments": "",
                        "name": "isValid",
                        "returnParams": [
                            {
                                "name": "",
                                "type": "bool",
                                "value": true
                            }
                        ],
                        "signature": "isValid(bytes32)"
                    },
                    "errorInfo": "",
                    "fromAddress": "0x47312450b3ac8b5b8e247a6bb6d523e7605bdb60",
                    "gasUsed": 7886,
                    "id": 3,
                    "methodDecoded": true,
                    "operation": "DELEGATECALL",
                    "output": "0x0000000000000000000000000000000000000000000000000000000000000001",
                    "revert": false,
                    "revertMessage": "",
                    "selector": "0x6a938567",
                    "status": true,
                    "value": "0"
                },
                "nodeType": 0
            },
            "4": {
                "invocation": {
                    "address": "0x6cb3ee90c50a38a0e4662bb7e7e6e40b91361bf6",
                    "callData": "0x6761148def40c8ca440d9aff98829f83f1c8ae64cf43b9d08f5a3955b327432d",
                    "decodedMethod": {
                        "callParams": [
                            {
                                "name": "fact",
                                "type": "bytes32",
                                "value": "0x6761148def40c8ca440d9aff98829f83f1c8ae64cf43b9d08f5a3955b327432d"
                            }
                        ],
                        "constructorArguments": "",
                        "name": "isValid",
                        "returnParams": [
                            {
                                "name": "",
                                "type": "bool",
                                "value": true
                            }
                        ],
                        "signature": "isValid(bytes32)"
                    },
                    "errorInfo": "",
                    "fromAddress": "0x47312450b3ac8b5b8e247a6bb6d523e7605bdb60",
                    "gasUsed": 2528,
                    "id": 4,
                    "methodDecoded": true,
                    "operation": "STATICCALL",
                    "output": "0x0000000000000000000000000000000000000000000000000000000000000001",
                    "revert": false,
                    "revertMessage": "",
                    "selector": "0x6a938567",
                    "status": true,
                    "value": "0"
                },
                "nodeType": 0
            },
            "5": {
                "event": {
                    "contract": "0xc662c410c0ecf747543f5ba90660f6abebd9c8c4",
                    "decodedLog": {
                        "name": "LogStateTransitionFact",
                        "params": [
                            {
                                "name": "stateTransitionFact",
                                "type": "bytes32",
                                "value": "0x3a4eca1df87f7fd4adae17acefdcdef065fcba42a64782104eee038e3d7c7847"
                            }
                        ],
                        "signature": "LogStateTransitionFact(bytes32)"
                    },
                    "id": 5,
                    "logData": "0x3a4eca1df87f7fd4adae17acefdcdef065fcba42a64782104eee038e3d7c7847",
                    "logDecoded": true,
                    "operation": "EVENT",
                    "revert": false,
                    "status": true,
                    "topics": [
                        "0x9866f8ddfe70bb512b2f2b28b49d4017c43f7ba775f1a20c61c13eea8cdac111"
                    ]
                },
                "nodeType": 1
            },
            "6": {
                "event": {
                    "contract": "0xc662c410c0ecf747543f5ba90660f6abebd9c8c4",
                    "decodedLog": {
                        "name": "LogMessageToL1",
                        "params": [
                            {
                                "name": "fromAddress",
                                "type": "uint256",
                                "value": "3,256,441,166,037,631,918,262,930,812,410,838,598,500,200,462,657,642,943,867,372,734,773,841,898,370"
                            },
                            {
                                "name": "toAddress",
                                "type": "address",
                                "value": "0xae0ee0a63a2ce6baeeffe56e7714fb4efe48d419"
                            },
                            {
                                "name": "payload",
                                "type": "uint256[]",
                                "value": [
                                    "0",
                                    "1,028,754,958,056,563,381,175,357,941,349,051,307,254,329,305,447",
                                    "100,000,000,000,000,000",
                                    "0"
                                ]
                            }
                        ],
                        "signature": "LogMessageToL1(uint256,address,uint256[])"
                    },
                    "id": 6,
                    "logData": "0x000000000000000000000000000000000000000000000000000000000000002000000000000000000000000000000000000000000000000000000000000000040000000000000000000000000000000000000000000000000000000000000000000000000000000000000000b432f7bff09506cab924ae4adb205f0eef26e967000000000000000000000000000000000000000000000000016345785d8a00000000000000000000000000000000000000000000000000000000000000000000",
                    "logDecoded": true,
                    "operation": "EVENT",
                    "revert": false,
                    "status": true,
                    "topics": [
                        "0x4264ac208b5fde633ccdd42e0f12c3d6d443a4f3779bbf886925b94665b63a22",
                        "0x073314940630fd6dcda0d772d4c972c4e0a9946bef9dabf4ef84eda8ef542b82",
                        "0x000000000000000000000000ae0ee0a63a2ce6baeeffe56e7714fb4efe48d419"
                    ]
                },
                "nodeType": 1
            },
            "7": {
                "event": {
                    "contract": "0xc662c410c0ecf747543f5ba90660f6abebd9c8c4",
                    "decodedLog": {
                        "name": "LogMessageToL1",
                        "params": [
                            {
                                "name": "fromAddress",
                                "type": "uint256",
                                "value": "3,256,441,166,037,631,918,262,930,812,410,838,598,500,200,462,657,642,943,867,372,734,773,841,898,370"
                            },
                            {
                                "name": "toAddress",
                                "type": "address",
                                "value": "0xae0ee0a63a2ce6baeeffe56e7714fb4efe48d419"
                            },
                            {
                                "name": "payload",
                                "type": "uint256[]",
                                "value": [
                                    "0",
                                    "736,225,148,060,358,464,743,399,264,453,991,158,712,376,072,458",
                                    "20,000,000,000,000,000",
                                    "0"
                                ]
                            }
                        ],
                        "signature": "LogMessageToL1(uint256,address,uint256[])"
                    },
                    "id": 7,
                    "logData": "0x00000000000000000000000000000000000000000000000000000000000000200000000000000000000000000000000000000000000000000000000000000004000000000000000000000000000000000000000000000000000000000000000000000000000000000000000080f57a38321510e48c3012bf86869b010729990a00000000000000000000000000000000000000000000000000470de4df8200000000000000000000000000000000000000000000000000000000000000000000",
                    "logDecoded": true,
                    "operation": "EVENT",
                    "revert": false,
                    "status": true,
                    "topics": [
                        "0x4264ac208b5fde633ccdd42e0f12c3d6d443a4f3779bbf886925b94665b63a22",
                        "0x073314940630fd6dcda0d772d4c972c4e0a9946bef9dabf4ef84eda8ef542b82",
                        "0x000000000000000000000000ae0ee0a63a2ce6baeeffe56e7714fb4efe48d419"
                    ]
                },
                "nodeType": 1
            },
            "8": {
                "event": {
                    "contract": "0xc662c410c0ecf747543f5ba90660f6abebd9c8c4",
                    "decodedLog": {
                        "name": "ConsumedMessageToL2",
                        "params": [
                            {
                                "name": "fromAddress",
                                "type": "address",
                                "value": "0xae0ee0a63a2ce6baeeffe56e7714fb4efe48d419"
                            },
                            {
                                "name": "toAddress",
                                "type": "uint256",
                                "value": "3,256,441,166,037,631,918,262,930,812,410,838,598,500,200,462,657,642,943,867,372,734,773,841,898,370"
                            },
                            {
                                "name": "selector",
                                "type": "uint256",
                                "value": "1,285,101,517,810,983,806,491,589,552,491,143,496,277,809,242,732,141,897,358,598,292,095,611,420,389"
                            },
                            {
                                "name": "payload",
                                "type": "uint256[]",
                                "value": [
                                    "337,225,915,833,621,079,933,627,359,051,850,746,232,801,605,670,579,063,462,909,758,286,183,449,867",
                                    "13,000,000,000,000,000",
                                    "0"
                                ]
                            },
                            {
                                "name": "nonce",
                                "type": "uint256",
                                "value": "629,548"
                            }
                        ],
                        "signature": "ConsumedMessageToL2(address,uint256,uint256,uint256[],uint256)"
                    },
                    "id": 8,
                    "logData": "0x00000000000000000000000000000000000000000000000000000000000000400000000000000000000000000000000000000000000000000000000000099b2c000000000000000000000000000000000000000000000000000000000000000300bedcf4696c8df2787d8f35dc3201b9ec519965f1934cf5945af17eca46c50b000000000000000000000000000000000000000000000000002e2f6e5e1480000000000000000000000000000000000000000000000000000000000000000000",
                    "logDecoded": true,
                    "operation": "EVENT",
                    "revert": false,
                    "status": true,
                    "topics": [
                        "0x9592d37825c744e33fa80c469683bbd04d336241bb600b574758efd182abe26a",
                        "0x000000000000000000000000ae0ee0a63a2ce6baeeffe56e7714fb4efe48d419",
                        "0x073314940630fd6dcda0d772d4c972c4e0a9946bef9dabf4ef84eda8ef542b82",
                        "0x02d757788a8d8d6f21d1cd40bce38a8222d70654214e96ff95d8086e684fbee5"
                    ]
                },
                "nodeType": 1
            },
            "9": {
                "event": {
                    "contract": "0xc662c410c0ecf747543f5ba90660f6abebd9c8c4",
                    "decodedLog": {
                        "name": "ConsumedMessageToL2",
                        "params": [
                            {
                                "name": "fromAddress",
                                "type": "address",
                                "value": "0xae0ee0a63a2ce6baeeffe56e7714fb4efe48d419"
                            },
                            {
                                "name": "toAddress",
                                "type": "uint256",
                                "value": "3,256,441,166,037,631,918,262,930,812,410,838,598,500,200,462,657,642,943,867,372,734,773,841,898,370"
                            },
                            {
                                "name": "selector",
                                "type": "uint256",
                                "value": "1,285,101,517,810,983,806,491,589,552,491,143,496,277,809,242,732,141,897,358,598,292,095,611,420,389"
                            },
                            {
                                "name": "payload",
                                "type": "uint256[]",
                                "value": [
                                    "3,542,196,852,062,943,743,848,597,972,324,821,177,624,972,317,739,938,453,028,341,127,227,279,283,272",
                                    "10,961,139,000,000,000",
                                    "0"
                                ]
                            },
                            {
                                "name": "nonce",
                                "type": "uint256",
                                "value": "629,549"
                            }
                        ],
                        "signature": "ConsumedMessageToL2(address,uint256,uint256,uint256[],uint256)"
                    },
                    "id": 9,
                    "logData": "0x00000000000000000000000000000000000000000000000000000000000000400000000000000000000000000000000000000000000000000000000000099b2d000000000000000000000000000000000000000000000000000000000000000307d4cff78194ae21fdc9499b27df2d2be7e128f8ada03ee3a890f53c074214480000000000000000000000000000000000000000000000000026f1190c6dbe000000000000000000000000000000000000000000000000000000000000000000",
                    "logDecoded": true,
                    "operation": "EVENT",
                    "revert": false,
                    "status": true,
                    "topics": [
                        "0x9592d37825c744e33fa80c469683bbd04d336241bb600b574758efd182abe26a",
                        "0x000000000000000000000000ae0ee0a63a2ce6baeeffe56e7714fb4efe48d419",
                        "0x073314940630fd6dcda0d772d4c972c4e0a9946bef9dabf4ef84eda8ef542b82",
                        "0x02d757788a8d8d6f21d1cd40bce38a8222d70654214e96ff95d8086e684fbee5"
                    ]
                },
                "nodeType": 1
            }
        },
        "gasFlame": [
            {
                "children": [
                    {
                        "children": [
                            {
                                "children": [],
                                "depth": 0,
                                "name": "Initial Gas",
                                "value": 48392
                            },
                            {
                                "children": [
                                    {
                                        "children": [
                                            {
                                                "children": [
                                                    {
                                                        "children": [
                                                            {
                                                                "children": [],
                                                                "depth": 4,
                                                                "name": "isValid",
                                                                "value": 2528
                                                            }
                                                        ],
                                                        "depth": 3,
                                                        "name": "isValid",
                                                        "value": 7886
                                                    }
                                                ],
                                                "depth": 2,
                                                "name": "isValid",
                                                "value": 12994
                                            },
                                            {
                                                "children": [],
                                                "depth": 2,
                                                "name": "fallback",
                                                "value": 0
                                            }
                                        ],
                                        "depth": 1,
                                        "name": "updateState",
                                        "value": 195592
                                    }
                                ],
                                "depth": 0,
                                "name": "Executed Gas",
                                "value": 201172
                            }
                        ],
                        "depth": -1,
                        "name": "Actual Gas Used",
                        "value": 211164
                    },
                    {
                        "children": [],
                        "depth": -1,
                        "name": "Refunded Gas",
                        "value": 38400
                    }
                ],
                "depth": -2,
                "name": "Total Gas",
                "value": 249564
            }
        ],
        "isConfirmed": true,
        "mainTrace": [
            {
                "children": [
                    {
                        "children": [
                            {
                                "children": [
                                    {
                                        "children": [
                                            {
                                                "children": [
                                                    {
                                                        "children": [],
                                                        "depth": 4,
                                                        "id": 4,
                                                        "order": 4
                                                    }
                                                ],
                                                "depth": 3,
                                                "id": 3,
                                                "order": 3
                                            }
                                        ],
                                        "depth": 2,
                                        "id": 2,
                                        "order": 2
                                    },
                                    {
                                        "children": [],
                                        "depth": 2,
                                        "id": 5,
                                        "order": 5
                                    },
                                    {
                                        "children": [],
                                        "depth": 2,
                                        "id": 6,
                                        "order": 6
                                    },
                                    {
                                        "children": [],
                                        "depth": 2,
                                        "id": 7,
                                        "order": 7
                                    },
                                    {
                                        "children": [],
                                        "depth": 2,
                                        "id": 8,
                                        "order": 8
                                    },
                                    {
                                        "children": [],
                                        "depth": 2,
                                        "id": 9,
                                        "order": 9
                                    },
                                    {
                                        "children": [],
                                        "depth": 2,
                                        "id": 10,
                                        "order": 10
                                    },
                                    {
                                        "children": [],
                                        "depth": 2,
                                        "id": 11,
                                        "order": 11
                                    },
                                    {
                                        "children": [],
                                        "depth": 2,
                                        "id": 12,
                                        "order": 12
                                    },
                                    {
                                        "children": [],
                                        "depth": 2,
                                        "id": 13,
                                        "order": 13
                                    },
                                    {
                                        "children": [],
                                        "depth": 2,
                                        "id": 14,
                                        "order": 14
                                    },
                                    {
                                        "children": [],
                                        "depth": 2,
                                        "id": 15,
                                        "order": 15
                                    },
                                    {
                                        "children": [],
                                        "depth": 2,
                                        "id": 16,
                                        "order": 16
                                    },
                                    {
                                        "children": [],
                                        "depth": 2,
                                        "id": 17,
                                        "order": 17
                                    }
                                ],
                                "depth": 1,
                                "id": 1,
                                "order": 1
                            }
                        ],
                        "depth": 0,
                        "id": 0,
                        "order": 0
                    }
                ],
                "depth": -1,
                "id": -1,
                "order": -1
            }
        ],
        "mainTraceNodeCount": 18,
        "parentIdMap": {
            "0": -1,
            "1": 0,
            "10": 1,
            "11": 1,
            "12": 1,
            "13": 1,
            "14": 1,
            "15": 1,
            "16": 1,
            "17": 1,
            "2": 1,
            "3": 2,
            "4": 3,
            "5": 1,
            "6": 1,
            "7": 1,
            "8": 1,
            "9": 1
        },
        "tidyTrace": [
            {
                "children": [
                    {
                        "children": [
                            {
                                "children": [
                                    {
                                        "children": [],
                                        "depth": 2,
                                        "id": 5,
                                        "order": 5
                                    },
                                    {
                                        "children": [],
                                        "depth": 2,
                                        "id": 6,
                                        "order": 6
                                    },
                                    {
                                        "children": [],
                                        "depth": 2,
                                        "id": 7,
                                        "order": 7
                                    },
                                    {
                                        "children": [],
                                        "depth": 2,
                                        "id": 8,
                                        "order": 8
                                    },
                                    {
                                        "children": [],
                                        "depth": 2,
                                        "id": 9,
                                        "order": 9
                                    },
                                    {
                                        "children": [],
                                        "depth": 2,
                                        "id": 10,
                                        "order": 10
                                    },
                                    {
                                        "children": [],
                                        "depth": 2,
                                        "id": 11,
                                        "order": 11
                                    },
                                    {
                                        "children": [],
                                        "depth": 2,
                                        "id": 12,
                                        "order": 12
                                    },
                                    {
                                        "children": [],
                                        "depth": 2,
                                        "id": 13,
                                        "order": 13
                                    },
                                    {
                                        "children": [],
                                        "depth": 2,
                                        "id": 14,
                                        "order": 14
                                    },
                                    {
                                        "children": [],
                                        "depth": 2,
                                        "id": 15,
                                        "order": 15
                                    },
                                    {
                                        "children": [],
                                        "depth": 2,
                                        "id": 16,
                                        "order": 16
                                    },
                                    {
                                        "children": [],
                                        "depth": 2,
                                        "id": 17,
                                        "order": 17
                                    }
                                ],
                                "depth": 1,
                                "id": 1,
                                "order": 1
                            }
                        ],
                        "depth": 0,
                        "id": 0,
                        "order": 0
                    }
                ],
                "depth": -1,
                "id": -1,
                "order": -1
            }
        ],
        "tidyTraceNodeCount": 15
    },
    "state_change": {
        "stateChanges": [
            {
                "address": "0xc662c410c0ecf747543f5ba90660f6abebd9c8c4",
                "erc": "",
                "slots": [
                    {
                        "current": "0x0000000000000000000000000000000000000000000000000000000000000001",
                        "key": "0xe1227da652322f1bb00eb84ebdf45907da76b8b08610aa3f849aa0879a209eaa",
                        "prev": "0x0000000000000000000000000000000000000000000000000000000000000000"
                    },
                    {
                        "current": "0x0000000000000000000000000000000000000000000000000000000000000000",
                        "key": "0x29bafafd49a627d7d633e50de230f9e8e749f47d3a8f32125f9570cccdea54ee",
                        "prev": "0x0000000000000000000000000000000000000000000000000001c3ee7d1a4f84"
                    },
                    {
                        "current": "0x0000000000000000000000000000000000000000000000000000000000000000",
                        "key": "0x1fdb59d5dd718c652deed3b752f2343a37af6ac30440cf29ae01aa4a4450c483",
                        "prev": "0x0000000000000000000000000000000000000000000000000001c3ee7d1a4f75"
                    },
                    {
                        "current": "0x0102785848a6c91d86cd513524e07260b6821e904a8742a6accafb70595e51d7",
                        "key": "0x71a8ef1b1265359d77973c3524afac225c0a0d829a0d4da5cac3b34532019fec",
                        "prev": "0x0002e811ec09caf4b20e470ffb5ef01552237d61e8b785e4a7b5e22a055eec60"
                    },
                    {
                        "current": "0x0000000000000000000000000000000000000000000000000000000000000000",
                        "key": "0x89e24cc2c833df58ddab65e5455280df1973698f2bb37eeca5c23b5342107c69",
                        "prev": "0x0000000000000000000000000000000000000000000000000001d1b77e022201"
                    },
                    {
                        "current": "0x0644b957e4bcdd3678a011b4cd6d507ebad2f3585c2f510a6d27e848d6b300d7",
                        "key": "0x71a8ef1b1265359d77973c3524afac225c0a0d829a0d4da5cac3b34532019fee",
                        "prev": "0x06e7974dff8183f5560b6951c31938ad35642be28f50d9ebfb1f467c66e03fd1"
                    },
                    {
                        "current": "0x0000000000000000000000000000000000000000000000000000000000000001",
                        "key": "0x16c3fe7ba5e8b3b3a248bef98395e12af269a5bc98a529d54a15af49adfc37e7",
                        "prev": "0x0000000000000000000000000000000000000000000000000000000000000000"
                    },
                    {
                        "current": "0x00000000000000000000000000000000000000000000000000000000000133f2",
                        "key": "0x71a8ef1b1265359d77973c3524afac225c0a0d829a0d4da5cac3b34532019fed",
                        "prev": "0x00000000000000000000000000000000000000000000000000000000000133f1"
                    },
                    {
                        "current": "0x0000000000000000000000000000000000000000000000000000000000000000",
                        "key": "0x50c2c266c908faf182dedcd7008eca0a9971be11a7f70f4ff0f0a1ec7de00257",
                        "prev": "0x0000000000000000000000000000000000000000000000000001d27aa748ce71"
                    },
                    {
                        "current": "0x0000000000000000000000000000000000000000000000000000000000000000",
                        "key": "0x1296f442efe93f1ea672d68a9fea0b36dcb13ecd486a276c5da29511c07af921",
                        "prev": "0x0000000000000000000000000000000000000000000000000001c3ee7d1a4f85"
                    },
                    {
                        "current": "0x0000000000000000000000000000000000000000000000000000000000000000",
                        "key": "0x6ae9de856b8daa98352156fe79f0a10977c68a44a035c84198cd7274047564f7",
                        "prev": "0x0000000000000000000000000000000000000000000000000001c3ee7d1a4f85"
                    },
                    {
                        "current": "0x0000000000000000000000000000000000000000000000000000000000000000",
                        "key": "0x5608471bffce0465d0c8d43809750e660b1ece4728890eee71bbb72dbec97e07",
                        "prev": "0x0000000000000000000000000000000000000000000000000001c3ee7d1a4f84"
                    },
                    {
                        "current": "0x0000000000000000000000000000000000000000000000000000000000000000",
                        "key": "0x2a708f92c1442f713c5343f518b7a0421c89ddce7908192360238427e918c682",
                        "prev": "0x0000000000000000000000000000000000000000000000000001c3ee7d1a4f85"
                    }
                ],
                "storageVariables": []
            }
        ]
    }
}