{
    "balance_change": {
        "balanceChanges": [
            {
                "account": "0x01e9a223e37cad58072d3ee4c05de66f05a6bf2b",
                "assets": [
                    {
                        "address": "0xc18360217d8f7ab5e7c516566761ea12ce7f9d72",
                        "amount": "1,009.58",
                        "iconUrl": "https://assets.blocksec.com/icon/b37674095892c1644fcc49bbf11c03ba967554d2507c28eb7bf37d6043983e4a.png",
                        "isERC1155": false,
                        "isERC721": false,
                        "sign": false,
                        "value": "14760.059599999999211"
                    }
                ]
            },
            {
                "account": "0xd1305fbda97c035f86fdaa7785fb568c203174e1",
                "assets": [
                    {
                        "address": "0xc18360217d8f7ab5e7c516566761ea12ce7f9d72",
                        "amount": "1,009.58",
                        "iconUrl": "https://assets.blocksec.com/icon/b37674095892c1644fcc49bbf11c03ba967554d2507c28eb7bf37d6043983e4a.png",
                        "isERC1155": false,
                        "isERC721": false,
                        "sign": true,
                        "value": "14760.059599999999211"
                    }
                ]
            }
        ]
    },
    "profile": {
        "basic_info": {
            "baseFee": "22.934637654",
            "blockNumber": 17060175,
            "callData": "0xa9059cbb000000000000000000000000d1305fbda97c035f86fdaa7785fb568c203174e1000000000000000000000000000000000000000000000036babcad0412de0000",
            "debugEnable": true,
            "errorInfo": "",
            "eventCount": 1,
            "feeRecipient": "0x388c818ca8b9251b393131c08a736a67ccb19297",
            "formatValue": "0",
            "gasLimit": 300000,
            "gasPrice": "27.934637654",
            "gasUsed": 40009,
            "intTxnCount": 0,
            "internalRevert": false,
            "internalRevertMessage": "",
            "isContractCreation": false,
            "isFlashloan": false,
            "maxFee": "200",
            "nonce": 1340,
            "overwritedBlockNumber": -1,
            "priorityFee": "5",
            "receiver": "0xc18360217d8f7ab5e7c516566761ea12ce7f9d72",
            "revertMessage": "",
            "sender": "0x01e9a223e37cad58072d3ee4c05de66f05a6bf2b",
            "simulationEnable": true,
            "sourceTxnHash": "0x9ec726ad9ef872ca0bfd815512af2608f9aeb2f1be8fe2d43eeb7d61f90504e1",
            "status": true,
            "timestamp": "2023-04-16T14:57:47Z",
            "transactionFee": "0.001117636917898886",
            "txnHash": "0x9ec726ad9ef872ca0bfd815512af2608f9aeb2f1be8fe2d43eeb7d61f90504e1",
            "txnIndex": 15,
            "type": 2,
            "value": "0"
        },
        "fund_flow": [
            {
                "amount": "1,009.58",
                "from": "0x01e9a223e37cad58072d3ee4c05de66f05a6bf2b",
                "id": 1,
                "isERC1155": false,
                "isERC721": false,
                "isReverted": false,
                "order": 1,
                "to": "0xd1305fbda97c035f86fdaa7785fb568c203174e1",
                "token": "0xc18360217d8f7ab5e7c516566761ea12ce7f9d72"
            }
        ],
        "token_infos": [
            {
                "address": "0xc02aaa39b223fe8d0a0e5c4f27ead9083c756cc2",
                "decimals": 18
            },
            {
                "address": "0xc18360217d8f7ab5e7c516566761ea12ce7f9d72",
                "decimals": 18
            },
            {
                "address": "0xeeeeeeeeeeeeeeeeeeeeeeeeeeeeeeeeeeeeeeee",
                "decimals": 18
            }
        ]
    },
    "address_label": {
        "labels": [
            {
                "address": "0x0000000000000000000000000000000000000001",
                "label": "Precompiled"
            },
            {
                "address": "0x0000000000000000000000000000000000000002",
                "label": "Precompiled"
            },
            {
                "address": "0x0000000000000000000000000000000000000003",
                "label": "Precompiled"
            },
            {
                "address": "0x0000000000000000000000000000000000000004",
                "label": "Precompiled"
            },
            {
                "address": "0xeeeeeeeeeeeeeeeeeeeeeeeeeeeeeeeeeeeeeeee",
                "label": "Ether"
            },
            {
                "address": "0xc18360217d8f7ab5e7c516566761ea12ce7f9d72",
                "label": "ENS: ENS Token"
            },
            {
                "address": "0xd1305fbda97c035f86fdaa7785fb568c203174e1",
                "label": "OKX"
            },
            {
                "address": "0x388c818ca8b9251b393131c08a736a67ccb19297",
                "label": "LidoExecutionLayerRewardsVault"
            }
        ]
    },
    "trace": {
        "accountLabels": null,
        "dataMap": {
            "-1": {
                "invocation": {
                    "address": "0x01e9a223e37cad58072d3ee4c05de66f05a6bf2b",
                    "callData": "",
                    "decodedMethod": null,
                    "errorInfo": "",
                    "fromAddress": "",
                    "gasUsed": 0,
                    "id": -1,
                    "methodDecoded": false,
                    "operation": "",
                    "output": "",
                    "revert": false,
                    "revertMessage": "",
                    "selector": "",
                    "status": false,
                    "value": ""
                },
                "nodeType": 0
            },
            "0": {
                "invocation": {
                    "address": "0xc18360217d8f7ab5e7c516566761ea12ce7f9d72",
                    "callData": "0x000000000000000000000000d1305fbda97c035f86fdaa7785fb568c203174e1000000000000000000000000000000000000000000000036babcad0412de0000",
                    "decodedMethod": {
                        "callParams": [
                            {
                                "name": "recipient",
                                "type": "address",
                                "value": "0xd1305fbda97c035f86fdaa7785fb568c203174e1"
                            },
                            {
                                "decimalAvailable": true,
                                "name": "amount",
                                "type": "uint256",
                                "value": "1,009,580,000,000,000,000,000"
                            }
                        ],
                        "constructorArguments": "",
                        "name": "transfer",
                        "returnParams": [
                            {
                                "name": "",
                                "type": "bool",
                                "value": true
                            }
                        ],
                        "signature": "transfer(address,uint256)"
                    },
                    "errorInfo": "",
                    "fromAddress": "0x01e9a223e37cad58072d3ee4c05de66f05a6bf2b",
                    "gasUsed": 40009,
                    "id": 0,
                    "methodDecoded": true,
                    "operation": "CALL",
                    "output": "0x0000000000000000000000000000000000000000000000000000000000000001",
                    "revert": false,
                    "revertMessage": "",
                    "selector": "0xa9059cbb",
                    "status": true,
                    "value": "0"
                },
                "nodeType": 0
            },
            "1": {
                "event": {
                    "contract": "0xc18360217d8f7ab5e7c516566761ea12ce7f9d72",
                    "decodedLog": {
                        "name": "Transfer",
                        "params": [
                            {
                                "name": "from",
                                "type": "address",
                                "value": "0x01e9a223e37cad58072d3ee4c05de66f05a6bf2b"
                            },
                            {
                                "name": "to",
                                "type": "address",
                                "value": "0xd1305fbda97c035f86fdaa7785fb568c203174e1"
                            },
                            {
                                "decimalAvailable": true,
                                "name": "value",
                                "type": "uint256",
                                "value": "1,009,580,000,000,000,000,000"
                            }
                        ],
                        "signature": "Transfer(address,address,uint256)"
                    },
                    "id": 1,
                    "logData": "0x000000000000000000000000000000000000000000000036babcad0412de0000",
                    "logDecoded": true,
                    "operation": "EVENT",
                    "revert": false,
                    "status": true,
                    "topics": [
                        "0xddf252ad1be2c89b69c2b068fc378daa952ba7f163c4a11628f55a4df523b3ef",
                        "0x00000000000000000000000001e9a223e37cad58072d3ee4c05de66f05a6bf2b",
                        "0x000000000000000000000000d1305fbda97c035f86fdaa7785fb568c203174e1"
                    ]
                },
                "nodeType": 1
            }
        },
        "gasFlame": [
            {
                "children": [
                    {
                        "children": [
                            {
                                "children": [],
                                "depth": 0,
                                "name": "Initial Gas",
                                "value": 21644
                            },
                            {
                                "children": [],
                                "depth": 0,
                                "name": "Executed Gas",
                                "value": 18365
                            }
                        ],
                        "depth": -1,
                        "name": "Actual Gas Used",
                        "value": 40009
                    },
                    {
                        "children": [],
                        "depth": -1,
                        "name": "Refunded Gas",
                        "value": 0
                    }
                ],
                "depth": -2,
                "name": "Total Gas",
                "value": 40009
            }
        ],
        "isConfirmed": true,
        "mainTrace": [
            {
                "children": [
                    {
                        "children": [
                            {
                                "children": [],
                                "depth": 1,
                                "id": 1,
                                "order": 1
                            }
                        ],
                        "depth": 0,
                        "id": 0,
                        "order": 0
                    }
                ],
                "depth": -1,
                "id": -1,
                "order": -1
            }
        ],
        "mainTraceNodeCount": 2,
        "parentIdMap": {
            "0": -1,
            "1": 0
        },
        "tidyTrace": [
            {
                "children": [
                    {
                        "children": [
                            {
                                "children": [],
                                "depth": 1,
                                "id": 1,
                                "order": 1
                            }
                        ],
                        "depth": 0,
                        "id": 0,
                        "order": 0
                    }
                ],
                "depth": -1,
                "id": -1,
                "order": -1
            }
        ],
        "tidyTraceNodeCount": 2
    },
    "state_change": {
        "stateChanges": [
            {
                "address": "0xc18360217d8f7ab5e7c516566761ea12ce7f9d72",
                "erc": "ERC-20",
                "slots": [
                    {
                        "current": "0x0000000000000000000000000000000000000000000000000008bd2cc17d24a0",
                        "key": "0xf04cd9062cc16e8150a6ff9c3798253df66129705769c835df2fa7053362fc9f",
                        "prev": "0x000000000000000000000000000000000000000000000036bac56a30d45b24a0"
                    },
                    {
                        "current": "0x000000000000000000000000000000000000000000000036babcad0412de0001",
                        "key": "0x367ed5bfaa8e3eea72fa3c6fc1d3c46d1d029b09d3a975a947341b7a994e4ee4",
                        "prev": "0x0000000000000000000000000000000000000000000000000000000000000001"
                    }
                ],
                "storageVariables": [
                    {
                        "name": "_balances",
                        "type": "mapping(address => uint256)",
                        "value": {
                            "pairs": [
                                {
                                    "key": "0x01e9a223e37cad58072d3ee4c05de66f05a6bf2b",
                                    "value": {
                                        "current": "2459799736100000",
                                        "prev": "1009582459799736100000",
                                        "typeTag": 1
                                    }
                                },
                                {
                                    "key": "0xd1305fbda97c035f86fdaa7785fb568c203174e1",
                                    "value": {
                                        "current": "1009580000000000000001",
                                        "prev": "1",
                                        "typeTag": 1
                                    }
                                }
                            ],
                            "typeTag": 4
                        }
                    }
                ]
            }
        ]
    }
}