{
    "balance_change": {
        "balanceChanges": [
            {
                "account": "0x1edb579fa02220960b221ae771fe4ce21c18dd40",
                "assets": [
                    {
                        "address": "0x2ab05b915c30093679165bcdba9c26d8cd8bee99",
                        "amount": "98",
                        "iconUrl": "",
                        "isERC1155": false,
                        "isERC721": false,
                        "sign": false,
                        "value": ""
                    }
                ]
            },
            {
                "account": "0xc6bd3edd07e294cb66b8318356d688b3516ea950",
                "assets": [
                    {
                        "address": "0x2ab05b915c30093679165bcdba9c26d8cd8bee99",
                        "amount": "98",
                        "iconUrl": "",
                        "isERC1155": false,
                        "isERC721": false,
                        "sign": true,
                        "value": ""
                    }
                ]
            }
        ]
    },
    "profile": {
        "basic_info": {
            "baseFee": "",
            "blockNumber": 8143708,
            "callData": "0xa9059cbb000000000000000000000000c6bd3edd07e294cb66b8318356d688b3516ea9500000000000000000000000000000000000000000000000055005f0c614480000",
            "debugEnable": true,
            "errorInfo": "",
            "eventCount": 1,
            "feeRecipient": "0xea674fdde714fd979de3edf0f56aa9716b898ec8",
            "formatValue": "0",
            "gasLimit": 200000,
            "gasPrice": "6.1",
            "gasUsed": 22901,
            "intTxnCount": 0,
            "internalRevert": false,
            "internalRevertMessage": "",
            "isContractCreation": false,
            "isFlashloan": false,
            "maxFee": "",
            "nonce": 0,
            "overwritedBlockNumber": -1,
            "priorityFee": "",
            "receiver": "0x2ab05b915c30093679165bcdba9c26d8cd8bee99",
            "revertMessage": "",
            "sender": "0x1edb579fa02220960b221ae771fe4ce21c18dd40",
            "simulationEnable": true,
            "sourceTxnHash": "0x9eb0ebe5768233e1f58b1641e71785fd64ac7d34be8e314575ad8b97d9e536e4",
            "status": true,
            "timestamp": "2019-07-13T16:18:26Z",
            "transactionFee": "0.0001396961",
            "txnHash": "0x9eb0ebe5768233e1f58b1641e71785fd64ac7d34be8e314575ad8b97d9e536e4",
            "txnIndex": 221,
            "type": 0,
            "value": "0"
        },
        "fund_flow": [
            {
                "amount": "98",
                "from": "0x1edb579fa02220960b221ae771fe4ce21c18dd40",
                "id": 1,
                "isERC1155": false,
                "isERC721": false,
                "isReverted": false,
                "order": 1,
                "to": "0xc6bd3edd07e294cb66b8318356d688b3516ea950",
                "token": "0x2ab05b915c30093679165bcdba9c26d8cd8bee99"
            }
        ],
        "token_infos": [
            {
                "address": "0x2ab05b915c30093679165bcdba9c26d8cd8bee99",
                "decimals": 18
            },
            {
                "address": "0xc02aaa39b223fe8d0a0e5c4f27ead9083c756cc2",
                "decimals": 18
            },
            {
                "address": "0xeeeeeeeeeeeeeeeeeeeeeeeeeeeeeeeeeeeeeeee",
                "decimals": 18
            }
        ]
    },
    "address_label": {
        "labels": [
            {
                "address": "0xeeeeeeeeeeeeeeeeeeeeeeeeeeeeeeeeeeeeeeee",
                "label": "Ether"
            },
            {
                "address": "0x2ab05b915c30093679165bcdba9c26d8cd8bee99",
                "label": "Bitcherry: BCHC Token"
            },
            {
                "address": "0x0000000000000000000000000000000000000001",
                "label": "Precompiled"
            },
            {
                "address": "0x0000000000000000000000000000000000000002",
                "label": "Precompiled"
            },
            {
                "address": "0x0000000000000000000000000000000000000003",
                "label": "Precompiled"
            },
            {
                "address": "0x0000000000000000000000000000000000000004",
                "label": "Precompiled"
            }
        ]
    },
    "trace": {
        "accountLabels": null,
        "dataMap": {
            "-1": {
                "invocation": {
                    "address": "0x1edb579fa02220960b221ae771fe4ce21c18dd40",
                    "callData": "",
                    "decodedMethod": null,
                    "errorInfo": "",
                    "fromAddress": "",
                    "gasUsed": 0,
                    "id": -1,
                    "methodDecoded": false,
                    "operation": "",
                    "output": "",
                    "revert": false,
                    "revertMessage": "",
                    "selector": "",
                    "status": false,
                    "value": ""
                },
                "nodeType": 0
            },
            "0": {
                "invocation": {
                    "address": "0x2ab05b915c30093679165bcdba9c26d8cd8bee99",
                    "callData": "0x000000000000000000000000c6bd3edd07e294cb66b8318356d688b3516ea9500000000000000000000000000000000000000000000000055005f0c614480000",
                    "decodedMethod": {
                        "callParams": [
                            {
                                "name": "_to",
                                "type": "address",
                                "value": "0xc6bd3edd07e294cb66b8318356d688b3516ea950"
                            },
                            {
                                "decimalAvailable": true,
                                "name": "_value",
                                "type": "uint256",
                                "value": "98,000,000,000,000,000,000"
                            }
                        ],
                        "constructorArguments": "",
                        "name": "transfer",
                        "returnParams": [],
                        "signature": "transfer(address,uint256)"
                    },
                    "errorInfo": "",
                    "fromAddress": "0x1edb579fa02220960b221ae771fe4ce21c18dd40",
                    "gasUsed": 22901,
                    "id": 0,
                    "methodDecoded": true,
                    "operation": "CALL",
                    "output": "",
                    "revert": false,
                    "revertMessage": "",
                    "selector": "0xa9059cbb",
                    "status": true,
                    "value": "0"
                },
                "nodeType": 0
            },
            "1": {
                "event": {
                    "contract": "0x2ab05b915c30093679165bcdba9c26d8cd8bee99",
                    "decodedLog": {
                        "name": "Transfer",
                        "params": [
                            {
                                "name": "from",
                                "type": "address",
                                "value": "0x1edb579fa02220960b221ae771fe4ce21c18dd40"
                            },
                            {
                                "name": "to",
                                "type": "address",
                                "value": "0xc6bd3edd07e294cb66b8318356d688b3516ea950"
                            },
                            {
                                "decimalAvailable": true,
                                "name": "value",
                                "type": "uint256",
                                "value": "98,000,000,000,000,000,000"
                            }
                        ],
                        "signature": "Transfer(address,address,uint256)"
                    },
                    "id": 1,
                    "logData": "0x0000000000000000000000000000000000000000000000055005f0c614480000",
                    "logDecoded": true,
                    "operation": "EVENT",
                    "revert": false,
                    "status": true,
                    "topics": [
                        "0xddf252ad1be2c89b69c2b068fc378daa952ba7f163c4a11628f55a4df523b3ef",
                        "0x0000000000000000000000001edb579fa02220960b221ae771fe4ce21c18dd40",
                        "0x000000000000000000000000c6bd3edd07e294cb66b8318356d688b3516ea950"
                    ]
                },
                "nodeType": 1
            }
        },
        "gasFlame": [
            {
                "children": [
                    {
                        "children": [
                            {
                                "children": [],
                                "depth": 0,
                                "name": "Initial Gas",
                                "value": 23256
                            },
                            {
                                "children": [],
                                "depth": 0,
                                "name": "Executed Gas",
                                "value": 14645
                            }
                        ],
                        "depth": -1,
                        "name": "Actual Gas Used",
                        "value": 22901
                    },
                    {
                        "children": [],
                        "depth": -1,
                        "name": "Refunded Gas",
                        "value": 15000
                    }
                ],
                "depth": -2,
                "name": "Total Gas",
                "value": 37901
            }
        ],
        "isConfirmed": true,
        "mainTrace": [
            {
                "children": [
                    {
                        "children": [
                            {
                                "children": [],
                                "depth": 1,
                                "id": 1,
                                "order": 1
                            }
                        ],
                        "depth": 0,
                        "id": 0,
                        "order": 0
                    }
                ],
                "depth": -1,
                "id": -1,
                "order": -1
            }
        ],
        "mainTraceNodeCount": 2,
        "parentIdMap": {
            "0": -1,
            "1": 0
        },
        "tidyTrace": [
            {
                "children": [
                    {
                        "children": [
                            {
                                "children": [],
                                "depth": 1,
                                "id": 1,
                                "order": 1
                            }
                        ],
                        "depth": 0,
                        "id": 0,
                        "order": 0
                    }
                ],
                "depth": -1,
                "id": -1,
                "order": -1
            }
        ],
        "tidyTraceNodeCount": 2
    },
    "state_change": {
        "stateChanges": [
            {
                "address": "0x2ab05b915c30093679165bcdba9c26d8cd8bee99",
                "erc": "",
                "slots": [
                    {
                        "current": "0x0000000000000000000000000000000000000000000000000000000000000000",
                        "key": "0x17b4657560762c4633810fd7995f3cd08093228db45c861dd10b174da8f9ab53",
                        "prev": "0x0000000000000000000000000000000000000000000000055005f0c614480000"
                    },
                    {
                        "current": "0x0000000000000000000000000000000000000000000288431f39bad95006d000",
                        "key": "0x275e1fe8d8286ea87a7552bd9820264f2feaa1a81d8c85c650592d2838aa4677",
                        "prev": "0x00000000000000000000000000000000000000000002883dcf33ca133bbed000"
                    }
                ],
                "storageVariables": [
                    {
                        "name": "balanceOf",
                        "type": "mapping(address => uint256)",
                        "value": {
                            "pairs": [
                                {
                                    "key": "0x1edb579fa02220960b221ae771fe4ce21c18dd40",
                                    "value": {
                                        "current": "0",
                                        "prev": "98000000000000000000",
                                        "typeTag": 1
                                    }
                                },
                                {
                                    "key": "0xc6bd3edd07e294cb66b8318356d688b3516ea950",
                                    "value": {
                                        "current": "3061331662787400000000000",
                                        "prev": "3061233662787400000000000",
                                        "typeTag": 1
                                    }
                                }
                            ],
                            "typeTag": 4
                        }
                    }
                ]
            }
        ]
    }
}