{
    "balance_change": {
        "balanceChanges": [
            {
                "account": "0x2abf33485edf704511dfa42dfb8afa71a0450a8e",
                "assets": [
                    {
                        "address": "0x49d56ee5004900229d64a86a0a1318a46f5a2564",
                        "amount": "1",
                        "iconUrl": "",
                        "isERC1155": false,
                        "isERC721": true,
                        "sign": false,
                        "tokenID": "711",
                        "value": ""
                    },
                    {
                        "address": "0x49d56ee5004900229d64a86a0a1318a46f5a2564",
                        "amount": "1",
                        "iconUrl": "",
                        "isERC1155": false,
                        "isERC721": true,
                        "sign": false,
                        "tokenID": "712",
                        "value": ""
                    },
                    {
                        "address": "0x49d56ee5004900229d64a86a0a1318a46f5a2564",
                        "amount": "1",
                        "iconUrl": "",
                        "isERC1155": false,
                        "isERC721": true,
                        "sign": false,
                        "tokenID": "713",
                        "value": ""
                    },
                    {
                        "address": "0x49d56ee5004900229d64a86a0a1318a46f5a2564",
                        "amount": "1",
                        "iconUrl": "",
                        "isERC1155": false,
                        "isERC721": true,
                        "sign": false,
                        "tokenID": "710",
                        "value": ""
                    },
                    {
                        "address": "0x49d56ee5004900229d64a86a0a1318a46f5a2564",
                        "amount": "1",
                        "iconUrl": "",
                        "isERC1155": false,
                        "isERC721": true,
                        "sign": false,
                        "tokenID": "714",
                        "value": ""
                    }
                ]
            },
            {
                "account": "0x58e3497bac7f708dd67fec302e801d9ffdedee57",
                "assets": [
                    {
                        "address": "0x49d56ee5004900229d64a86a0a1318a46f5a2564",
                        "amount": "1",
                        "iconUrl": "",
                        "isERC1155": false,
                        "isERC721": true,
                        "sign": true,
                        "tokenID": "712",
                        "value": ""
                    },
                    {
                        "address": "0x49d56ee5004900229d64a86a0a1318a46f5a2564",
                        "amount": "1",
                        "iconUrl": "",
                        "isERC1155": false,
                        "isERC721": true,
                        "sign": true,
                        "tokenID": "713",
                        "value": ""
                    },
                    {
                        "address": "0x49d56ee5004900229d64a86a0a1318a46f5a2564",
                        "amount": "1",
                        "iconUrl": "",
                        "isERC1155": false,
                        "isERC721": true,
                        "sign": true,
                        "tokenID": "710",
                        "value": ""
                    },
                    {
                        "address": "0x49d56ee5004900229d64a86a0a1318a46f5a2564",
                        "amount": "1",
                        "iconUrl": "",
                        "isERC1155": false,
                        "isERC721": true,
                        "sign": true,
                        "tokenID": "714",
                        "value": ""
                    },
                    {
                        "address": "0x49d56ee5004900229d64a86a0a1318a46f5a2564",
                        "amount": "1",
                        "iconUrl": "",
                        "isERC1155": false,
                        "isERC721": true,
                        "sign": true,
                        "tokenID": "711",
                        "value": ""
                    }
                ]
            }
        ]
    },
    "profile": {
        "basic_info": {
            "baseFee": "1.784470741",
            "blockNumber": 15383325,
            "callData": "0xce9c095d00000000000000000000000049d56ee5004900229d64a86a0a1318a46f5a25640000000000000000000000005b6ac51d9b1cede0068a1b26533cace807f883ee0000000000000000000000002abf33485edf704511dfa42dfb8afa71a0450a8e000000000000000000000000000000000000000000000000000000000000000100000000000000000000000000000000000000000000000000002d79883d20000000000000000000000000000000000000000000000000000000000000000000000000000000000000000000000000000000000000000000000197029be367010000000000000000000000000000000000000000000000000000000000000100000000000000000000000000000000000000000000000000000000000000000500000000000000000000000000000000000000000000000000000000000002c600000000000000000000000000000000000000000000000000000000000002ca00000000000000000000000000000000000000000000000000000000000002c700000000000000000000000000000000000000000000000000000000000002c800000000000000000000000000000000000000000000000000000000000002c9",
            "debugEnable": true,
            "errorInfo": "",
            "eventCount": 12,
            "feeRecipient": "0x1ad91ee08f21be3de0ba2ba6918e714da6b45836",
            "formatValue": "0",
            "gasLimit": 667178,
            "gasPrice": "4.284470741",
            "gasUsed": 550482,
            "intTxnCount": 23,
            "internalRevert": false,
            "internalRevertMessage": "",
            "isContractCreation": false,
            "isFlashloan": false,
            "maxFee": "6.1232931",
            "nonce": 846,
            "overwritedBlockNumber": -1,
            "priorityFee": "2.5",
            "receiver": "0xb16c1342e617a5b6e4b631eb114483fdb289c0a4",
            "revertMessage": "",
            "sender": "0x2abf33485edf704511dfa42dfb8afa71a0450a8e",
            "simulationEnable": true,
            "sourceTxnHash": "0x9ed2c18393ddf38fd6bac6dbb30e5bbdde8501438e145b7a88c8aeb59e85efaa",
            "status": true,
            "timestamp": "2022-08-21T09:57:26Z",
            "transactionFee": "0.002358524022447162",
            "txnHash": "0x9ed2c18393ddf38fd6bac6dbb30e5bbdde8501438e145b7a88c8aeb59e85efaa",
            "txnIndex": 12,
            "type": 2,
            "value": "0"
        },
        "fund_flow": [
            {
                "amount": "1",
                "from": "0x2abf33485edf704511dfa42dfb8afa71a0450a8e",
                "id": 1,
                "isERC1155": false,
                "isERC721": true,
                "isReverted": false,
                "order": 1,
                "to": "0x58e3497bac7f708dd67fec302e801d9ffdedee57",
                "token": "0x49d56ee5004900229d64a86a0a1318a46f5a2564",
                "tokenID": "710"
            },
            {
                "amount": "1",
                "from": "0x2abf33485edf704511dfa42dfb8afa71a0450a8e",
                "id": 2,
                "isERC1155": false,
                "isERC721": true,
                "isReverted": false,
                "order": 2,
                "to": "0x58e3497bac7f708dd67fec302e801d9ffdedee57",
                "token": "0x49d56ee5004900229d64a86a0a1318a46f5a2564",
                "tokenID": "714"
            },
            {
                "amount": "1",
                "from": "0x2abf33485edf704511dfa42dfb8afa71a0450a8e",
                "id": 3,
                "isERC1155": false,
                "isERC721": true,
                "isReverted": false,
                "order": 3,
                "to": "0x58e3497bac7f708dd67fec302e801d9ffdedee57",
                "token": "0x49d56ee5004900229d64a86a0a1318a46f5a2564",
                "tokenID": "711"
            },
            {
                "amount": "1",
                "from": "0x2abf33485edf704511dfa42dfb8afa71a0450a8e",
                "id": 4,
                "isERC1155": false,
                "isERC721": true,
                "isReverted": false,
                "order": 4,
                "to": "0x58e3497bac7f708dd67fec302e801d9ffdedee57",
                "token": "0x49d56ee5004900229d64a86a0a1318a46f5a2564",
                "tokenID": "712"
            },
            {
                "amount": "1",
                "from": "0x2abf33485edf704511dfa42dfb8afa71a0450a8e",
                "id": 5,
                "isERC1155": false,
                "isERC721": true,
                "isReverted": false,
                "order": 5,
                "to": "0x58e3497bac7f708dd67fec302e801d9ffdedee57",
                "token": "0x49d56ee5004900229d64a86a0a1318a46f5a2564",
                "tokenID": "713"
            }
        ],
        "token_infos": [
            {
                "address": "0xeeeeeeeeeeeeeeeeeeeeeeeeeeeeeeeeeeeeeeee",
                "decimals": 18
            },
            {
                "address": "0xc02aaa39b223fe8d0a0e5c4f27ead9083c756cc2",
                "decimals": 18
            }
        ]
    },
    "address_label": {
        "labels": [
            {
                "address": "0xeeeeeeeeeeeeeeeeeeeeeeeeeeeeeeeeeeeeeeee",
                "label": "Ether"
            },
            {
                "address": "0x5b6ac51d9b1cede0068a1b26533cace807f883ee",
                "label": "sudoswap: Linear Curve"
            },
            {
                "address": "0xcd80c916b1194beb48abf007d0b79a7238436d56",
                "label": "LSSVMPairMissingEnumerableETH"
            },
            {
                "address": "0x0000000000000000000000000000000000000001",
                "label": "Precompiled"
            },
            {
                "address": "0x0000000000000000000000000000000000000003",
                "label": "Precompiled"
            },
            {
                "address": "0xb16c1342e617a5b6e4b631eb114483fdb289c0a4",
                "label": "sudoswap: Pair Factory"
            },
            {
                "address": "0x49d56ee5004900229d64a86a0a1318a46f5a2564",
                "label": "TheMatrix"
            },
            {
                "address": "0x0000000000000000000000000000000000000002",
                "label": "Precompiled"
            },
            {
                "address": "0x0000000000000000000000000000000000000004",
                "label": "Precompiled"
            }
        ]
    },
    "trace": {
        "accountLabels": null,
        "dataMap": {
            "-1": {
                "invocation": {
                    "address": "0x2abf33485edf704511dfa42dfb8afa71a0450a8e",
                    "callData": "",
                    "decodedMethod": null,
                    "errorInfo": "",
                    "fromAddress": "",
                    "gasUsed": 0,
                    "id": -1,
                    "methodDecoded": false,
                    "operation": "",
                    "output": "",
                    "revert": false,
                    "revertMessage": "",
                    "selector": "",
                    "status": false,
                    "value": ""
                },
                "nodeType": 0
            },
            "0": {
                "invocation": {
                    "address": "0xb16c1342e617a5b6e4b631eb114483fdb289c0a4",
                    "callData": "0x00000000000000000000000049d56ee5004900229d64a86a0a1318a46f5a25640000000000000000000000005b6ac51d9b1cede0068a1b26533cace807f883ee0000000000000000000000002abf33485edf704511dfa42dfb8afa71a0450a8e000000000000000000000000000000000000000000000000000000000000000100000000000000000000000000000000000000000000000000002d79883d20000000000000000000000000000000000000000000000000000000000000000000000000000000000000000000000000000000000000000000000197029be367010000000000000000000000000000000000000000000000000000000000000100000000000000000000000000000000000000000000000000000000000000000500000000000000000000000000000000000000000000000000000000000002c600000000000000000000000000000000000000000000000000000000000002ca00000000000000000000000000000000000000000000000000000000000002c700000000000000000000000000000000000000000000000000000000000002c800000000000000000000000000000000000000000000000000000000000002c9",
                    "decodedMethod": {
                        "callParams": [
                            {
                                "name": "_nft",
                                "type": "address",
                                "value": "0x49d56ee5004900229d64a86a0a1318a46f5a2564"
                            },
                            {
                                "name": "_bondingCurve",
                                "type": "address",
                                "value": "0x5b6ac51d9b1cede0068a1b26533cace807f883ee"
                            },
                            {
                                "name": "_assetRecipient",
                                "type": "address",
                                "value": "0x2abf33485edf704511dfa42dfb8afa71a0450a8e"
                            },
                            {
                                "name": "_poolType",
                                "type": "uint8",
                                "value": "1"
                            },
                            {
                                "name": "_delta",
                                "type": "uint128",
                                "value": "50,000,000,000,000"
                            },
                            {
                                "name": "_fee",
                                "type": "uint96",
                                "value": "0"
                            },
                            {
                                "name": "_spotPrice",
                                "type": "uint128",
                                "value": "447,512,437,810,945"
                            },
                            {
                                "name": "_initialNFTIDs",
                                "type": "uint256[]",
                                "value": [
                                    "710",
                                    "714",
                                    "711",
                                    "712",
                                    "713"
                                ]
                            }
                        ],
                        "constructorArguments": "",
                        "name": "createPairETH",
                        "returnParams": [
                            {
                                "name": "pair",
                                "type": "address",
                                "value": "0x58e3497bac7f708dd67fec302e801d9ffdedee57"
                            }
                        ],
                        "signature": "createPairETH(address,address,address,uint8,uint128,uint96,uint128,uint256[])"
                    },
                    "errorInfo": "",
                    "fromAddress": "0x2abf33485edf704511dfa42dfb8afa71a0450a8e",
                    "gasUsed": 550482,
                    "id": 0,
                    "methodDecoded": true,
                    "operation": "CALL",
                    "output": "0x00000000000000000000000058e3497bac7f708dd67fec302e801d9ffdedee57",
                    "revert": false,
                    "revertMessage": "",
                    "selector": "0xce9c095d",
                    "status": true,
                    "value": "0"
                },
                "nodeType": 0
            },
            "1": {
                "invocation": {
                    "address": "0x49d56ee5004900229d64a86a0a1318a46f5a2564",
                    "callData": "0x780e9d6300000000000000000000000000000000000000000000000000000000",
                    "decodedMethod": {
                        "callParams": [
                            {
                                "name": "interfaceId",
                                "type": "bytes4",
                                "value": "0x780e9d63"
                            }
                        ],
                        "constructorArguments": "",
                        "name": "supportsInterface",
                        "returnParams": [
                            {
                                "name": "",
                                "type": "bool",
                                "value": false
                            }
                        ],
                        "signature": "supportsInterface(bytes4)"
                    },
                    "errorInfo": "",
                    "fromAddress": "0xb16c1342e617a5b6e4b631eb114483fdb289c0a4",
                    "gasUsed": 820,
                    "id": 1,
                    "methodDecoded": true,
                    "operation": "STATICCALL",
                    "output": "0x0000000000000000000000000000000000000000000000000000000000000000",
                    "revert": false,
                    "revertMessage": "",
                    "selector": "0x01ffc9a7",
                    "status": true,
                    "value": "0"
                },
                "nodeType": 0
            },
            "10": {
                "invocation": {
                    "address": "0x49d56ee5004900229d64a86a0a1318a46f5a2564",
                    "callData": "0x0000000000000000000000002abf33485edf704511dfa42dfb8afa71a0450a8e00000000000000000000000058e3497bac7f708dd67fec302e801d9ffdedee5700000000000000000000000000000000000000000000000000000000000002c6",
                    "decodedMethod": {
                        "callParams": [
                            {
                                "name": "from",
                                "type": "address",
                                "value": "0x2abf33485edf704511dfa42dfb8afa71a0450a8e"
                            },
                            {
                                "name": "to",
                                "type": "address",
                                "value": "0x58e3497bac7f708dd67fec302e801d9ffdedee57"
                            },
                            {
                                "name": "tokenId",
                                "type": "uint256",
                                "value": "710"
                            }
                        ],
                        "constructorArguments": "",
                        "name": "safeTransferFrom",
                        "returnParams": [],
                        "signature": "safeTransferFrom(address,address,uint256)"
                    },
                    "errorInfo": "",
                    "fromAddress": "0xb16c1342e617a5b6e4b631eb114483fdb289c0a4",
                    "gasUsed": 113716,
                    "id": 10,
                    "methodDecoded": true,
                    "operation": "CALL",
                    "output": "",
                    "revert": false,
                    "revertMessage": "",
                    "selector": "0x42842e0e",
                    "status": true,
                    "value": "0"
                },
                "nodeType": 0
            },
            "11": {
                "event": {
                    "contract": "0x49d56ee5004900229d64a86a0a1318a46f5a2564",
                    "decodedLog": {
                        "name": "Approval",
                        "params": [
                            {
                                "name": "owner",
                                "type": "address",
                                "value": "0x2abf33485edf704511dfa42dfb8afa71a0450a8e"
                            },
                            {
                                "name": "approved",
                                "type": "address",
                                "value": "0x0000000000000000000000000000000000000000"
                            },
                            {
                                "decimalAvailable": true,
                                "name": "tokenId",
                                "type": "uint256",
                                "value": "710"
                            }
                        ],
                        "signature": "Approval(address,address,uint256)"
                    },
                    "id": 11,
                    "logData": "0x",
                    "logDecoded": true,
                    "operation": "EVENT",
                    "revert": false,
                    "status": true,
                    "topics": [
                        "0x8c5be1e5ebec7d5bd14f71427d1e84f3dd0314c0f7b2291e5b200ac8c7c3b925",
                        "0x0000000000000000000000002abf33485edf704511dfa42dfb8afa71a0450a8e",
                        "0x0000000000000000000000000000000000000000000000000000000000000000",
                        "0x00000000000000000000000000000000000000000000000000000000000002c6"
                    ]
                },
                "nodeType": 1
            },
            "12": {
                "event": {
                    "contract": "0x49d56ee5004900229d64a86a0a1318a46f5a2564",
                    "decodedLog": {
                        "name": "Transfer",
                        "params": [
                            {
                                "name": "from",
                                "type": "address",
                                "value": "0x2abf33485edf704511dfa42dfb8afa71a0450a8e"
                            },
                            {
                                "name": "to",
                                "type": "address",
                                "value": "0x58e3497bac7f708dd67fec302e801d9ffdedee57"
                            },
                            {
                                "decimalAvailable": true,
                                "name": "tokenId",
                                "type": "uint256",
                                "value": "710"
                            }
                        ],
                        "signature": "Transfer(address,address,uint256)"
                    },
                    "id": 12,
                    "logData": "0x",
                    "logDecoded": true,
                    "operation": "EVENT",
                    "revert": false,
                    "status": true,
                    "topics": [
                        "0xddf252ad1be2c89b69c2b068fc378daa952ba7f163c4a11628f55a4df523b3ef",
                        "0x0000000000000000000000002abf33485edf704511dfa42dfb8afa71a0450a8e",
                        "0x00000000000000000000000058e3497bac7f708dd67fec302e801d9ffdedee57",
                        "0x00000000000000000000000000000000000000000000000000000000000002c6"
                    ]
                },
                "nodeType": 1
            },
            "13": {
                "invocation": {
                    "address": "0x58e3497bac7f708dd67fec302e801d9ffdedee57",
                    "callData": "0x000000000000000000000000b16c1342e617a5b6e4b631eb114483fdb289c0a40000000000000000000000002abf33485edf704511dfa42dfb8afa71a0450a8e00000000000000000000000000000000000000000000000000000000000002c600000000000000000000000000000000000000000000000000000000000000800000000000000000000000000000000000000000000000000000000000000000",
                    "decodedMethod": {
                        "callParams": [
                            {
                                "name": "",
                                "type": "address",
                                "value": "0xb16c1342e617a5b6e4b631eb114483fdb289c0a4"
                            },
                            {
                                "name": "",
                                "type": "address",
                                "value": "0x2abf33485edf704511dfa42dfb8afa71a0450a8e"
                            },
                            {
                                "name": "id",
                                "type": "uint256",
                                "value": "710"
                            },
                            {
                                "name": "",
                                "type": "bytes",
                                "value": "0x"
                            }
                        ],
                        "constructorArguments": "",
                        "name": "onERC721Received",
                        "returnParams": [
                            {
                                "name": "",
                                "type": "bytes4",
                                "value": "0x150b7a02"
                            }
                        ],
                        "signature": "onERC721Received(address,address,uint256,bytes)"
                    },
                    "errorInfo": "",
                    "fromAddress": "0x49d56ee5004900229d64a86a0a1318a46f5a2564",
                    "gasUsed": 68119,
                    "id": 13,
                    "methodDecoded": true,
                    "operation": "CALL",
                    "output": "0x150b7a0200000000000000000000000000000000000000000000000000000000",
                    "revert": false,
                    "revertMessage": "",
                    "selector": "0x150b7a02",
                    "status": true,
                    "value": "0"
                },
                "nodeType": 0
            },
            "14": {
                "invocation": {
                    "address": "0xcd80c916b1194beb48abf007d0b79a7238436d56",
                    "callData": "0x000000000000000000000000b16c1342e617a5b6e4b631eb114483fdb289c0a40000000000000000000000002abf33485edf704511dfa42dfb8afa71a0450a8e00000000000000000000000000000000000000000000000000000000000002c600000000000000000000000000000000000000000000000000000000000000800000000000000000000000000000000000000000000000000000000000000000b16c1342e617a5b6e4b631eb114483fdb289c0a45b6ac51d9b1cede0068a1b26533cace807f883ee49d56ee5004900229d64a86a0a1318a46f5a256401",
                    "decodedMethod": {
                        "callParams": [
                            {
                                "name": "",
                                "type": "address",
                                "value": "0xb16c1342e617a5b6e4b631eb114483fdb289c0a4"
                            },
                            {
                                "name": "",
                                "type": "address",
                                "value": "0x2abf33485edf704511dfa42dfb8afa71a0450a8e"
                            },
                            {
                                "name": "id",
                                "type": "uint256",
                                "value": "710"
                            },
                            {
                                "name": "",
                                "type": "bytes",
                                "value": "0x"
                            }
                        ],
                        "constructorArguments": "",
                        "name": "onERC721Received",
                        "returnParams": [
                            {
                                "name": "",
                                "type": "bytes4",
                                "value": "0x150b7a02"
                            }
                        ],
                        "signature": "onERC721Received(address,address,uint256,bytes)"
                    },
                    "errorInfo": "",
                    "fromAddress": "0x58e3497bac7f708dd67fec302e801d9ffdedee57",
                    "gasUsed": 67898,
                    "id": 14,
                    "methodDecoded": true,
                    "operation": "DELEGATECALL",
                    "output": "0x150b7a0200000000000000000000000000000000000000000000000000000000",
                    "revert": false,
                    "revertMessage": "",
                    "selector": "0x150b7a02",
                    "status": true,
                    "value": "0"
                },
                "nodeType": 0
            },
            "15": {
                "invocation": {
                    "address": "0x49d56ee5004900229d64a86a0a1318a46f5a2564",
                    "callData": "0x0000000000000000000000002abf33485edf704511dfa42dfb8afa71a0450a8e00000000000000000000000058e3497bac7f708dd67fec302e801d9ffdedee5700000000000000000000000000000000000000000000000000000000000002ca",
                    "decodedMethod": {
                        "callParams": [
                            {
                                "name": "from",
                                "type": "address",
                                "value": "0x2abf33485edf704511dfa42dfb8afa71a0450a8e"
                            },
                            {
                                "name": "to",
                                "type": "address",
                                "value": "0x58e3497bac7f708dd67fec302e801d9ffdedee57"
                            },
                            {
                                "name": "tokenId",
                                "type": "uint256",
                                "value": "714"
                            }
                        ],
                        "constructorArguments": "",
                        "name": "safeTransferFrom",
                        "returnParams": [],
                        "signature": "safeTransferFrom(address,address,uint256)"
                    },
                    "errorInfo": "",
                    "fromAddress": "0xb16c1342e617a5b6e4b631eb114483fdb289c0a4",
                    "gasUsed": 63116,
                    "id": 15,
                    "methodDecoded": true,
                    "operation": "CALL",
                    "output": "",
                    "revert": false,
                    "revertMessage": "",
                    "selector": "0x42842e0e",
                    "status": true,
                    "value": "0"
                },
                "nodeType": 0
            },
            "16": {
                "event": {
                    "contract": "0x49d56ee5004900229d64a86a0a1318a46f5a2564",
                    "decodedLog": {
                        "name": "Approval",
                        "params": [
                            {
                                "name": "owner",
                                "type": "address",
                                "value": "0x2abf33485edf704511dfa42dfb8afa71a0450a8e"
                            },
                            {
                                "name": "approved",
                                "type": "address",
                                "value": "0x0000000000000000000000000000000000000000"
                            },
                            {
                                "decimalAvailable": true,
                                "name": "tokenId",
                                "type": "uint256",
                                "value": "714"
                            }
                        ],
                        "signature": "Approval(address,address,uint256)"
                    },
                    "id": 16,
                    "logData": "0x",
                    "logDecoded": true,
                    "operation": "EVENT",
                    "revert": false,
                    "status": true,
                    "topics": [
                        "0x8c5be1e5ebec7d5bd14f71427d1e84f3dd0314c0f7b2291e5b200ac8c7c3b925",
                        "0x0000000000000000000000002abf33485edf704511dfa42dfb8afa71a0450a8e",
                        "0x0000000000000000000000000000000000000000000000000000000000000000",
                        "0x00000000000000000000000000000000000000000000000000000000000002ca"
                    ]
                },
                "nodeType": 1
            },
            "17": {
                "event": {
                    "contract": "0x49d56ee5004900229d64a86a0a1318a46f5a2564",
                    "decodedLog": {
                        "name": "Transfer",
                        "params": [
                            {
                                "name": "from",
                                "type": "address",
                                "value": "0x2abf33485edf704511dfa42dfb8afa71a0450a8e"
                            },
                            {
                                "name": "to",
                                "type": "address",
                                "value": "0x58e3497bac7f708dd67fec302e801d9ffdedee57"
                            },
                            {
                                "decimalAvailable": true,
                                "name": "tokenId",
                                "type": "uint256",
                                "value": "714"
                            }
                        ],
                        "signature": "Transfer(address,address,uint256)"
                    },
                    "id": 17,
                    "logData": "0x",
                    "logDecoded": true,
                    "operation": "EVENT",
                    "revert": false,
                    "status": true,
                    "topics": [
                        "0xddf252ad1be2c89b69c2b068fc378daa952ba7f163c4a11628f55a4df523b3ef",
                        "0x0000000000000000000000002abf33485edf704511dfa42dfb8afa71a0450a8e",
                        "0x00000000000000000000000058e3497bac7f708dd67fec302e801d9ffdedee57",
                        "0x00000000000000000000000000000000000000000000000000000000000002ca"
                    ]
                },
                "nodeType": 1
            },
            "18": {
                "invocation": {
                    "address": "0x58e3497bac7f708dd67fec302e801d9ffdedee57",
                    "callData": "0x000000000000000000000000b16c1342e617a5b6e4b631eb114483fdb289c0a40000000000000000000000002abf33485edf704511dfa42dfb8afa71a0450a8e00000000000000000000000000000000000000000000000000000000000002ca00000000000000000000000000000000000000000000000000000000000000800000000000000000000000000000000000000000000000000000000000000000",
                    "decodedMethod": {
                        "callParams": [
                            {
                                "name": "",
                                "type": "address",
                                "value": "0xb16c1342e617a5b6e4b631eb114483fdb289c0a4"
                            },
                            {
                                "name": "",
                                "type": "address",
                                "value": "0x2abf33485edf704511dfa42dfb8afa71a0450a8e"
                            },
                            {
                                "name": "id",
                                "type": "uint256",
                                "value": "714"
                            },
                            {
                                "name": "",
                                "type": "bytes",
                                "value": "0x"
                            }
                        ],
                        "constructorArguments": "",
                        "name": "onERC721Received",
                        "returnParams": [
                            {
                                "name": "",
                                "type": "bytes4",
                                "value": "0x150b7a02"
                            }
                        ],
                        "signature": "onERC721Received(address,address,uint256,bytes)"
                    },
                    "errorInfo": "",
                    "fromAddress": "0x49d56ee5004900229d64a86a0a1318a46f5a2564",
                    "gasUsed": 46219,
                    "id": 18,
                    "methodDecoded": true,
                    "operation": "CALL",
                    "output": "0x150b7a0200000000000000000000000000000000000000000000000000000000",
                    "revert": false,
                    "revertMessage": "",
                    "selector": "0x150b7a02",
                    "status": true,
                    "value": "0"
                },
                "nodeType": 0
            },
            "19": {
                "invocation": {
                    "address": "0xcd80c916b1194beb48abf007d0b79a7238436d56",
                    "callData": "0x000000000000000000000000b16c1342e617a5b6e4b631eb114483fdb289c0a40000000000000000000000002abf33485edf704511dfa42dfb8afa71a0450a8e00000000000000000000000000000000000000000000000000000000000002ca00000000000000000000000000000000000000000000000000000000000000800000000000000000000000000000000000000000000000000000000000000000b16c1342e617a5b6e4b631eb114483fdb289c0a45b6ac51d9b1cede0068a1b26533cace807f883ee49d56ee5004900229d64a86a0a1318a46f5a256401",
                    "decodedMethod": {
                        "callParams": [
                            {
                                "name": "",
                                "type": "address",
                                "value": "0xb16c1342e617a5b6e4b631eb114483fdb289c0a4"
                            },
                            {
                                "name": "",
                                "type": "address",
                                "value": "0x2abf33485edf704511dfa42dfb8afa71a0450a8e"
                            },
                            {
                                "name": "id",
                                "type": "uint256",
                                "value": "714"
                            },
                            {
                                "name": "",
                                "type": "bytes",
                                "value": "0x"
                            }
                        ],
                        "constructorArguments": "",
                        "name": "onERC721Received",
                        "returnParams": [
                            {
                                "name": "",
                                "type": "bytes4",
                                "value": "0x150b7a02"
                            }
                        ],
                        "signature": "onERC721Received(address,address,uint256,bytes)"
                    },
                    "errorInfo": "",
                    "fromAddress": "0x58e3497bac7f708dd67fec302e801d9ffdedee57",
                    "gasUsed": 45998,
                    "id": 19,
                    "methodDecoded": true,
                    "operation": "DELEGATECALL",
                    "output": "0x150b7a0200000000000000000000000000000000000000000000000000000000",
                    "revert": false,
                    "revertMessage": "",
                    "selector": "0x150b7a02",
                    "status": true,
                    "value": "0"
                },
                "nodeType": 0
            },
            "2": {
                "invocation": {
                    "address": "0x58e3497bac7f708dd67fec302e801d9ffdedee57",
                    "callData": "0x60723d8160093d39f33d3d3d3d363d3d37603d6035363936603d013d73cd80c916b1194beb48abf007d0b79a7238436d565af43d3d93803e603357fd5bf3b16c1342e617a5b6e4b631eb114483fdb289c0a45b6ac51d9b1cede0068a1b26533cace807f883ee49d56ee5004900229d64a86a0a1318a46f5a256401",
                    "decodedMethod": null,
                    "errorInfo": "",
                    "fromAddress": "0xb16c1342e617a5b6e4b631eb114483fdb289c0a4",
                    "gasUsed": 22840,
                    "id": 2,
                    "methodDecoded": false,
                    "operation": "CREATE",
                    "output": "0x3d3d3d3d363d3d37603d6035363936603d013d73cd80c916b1194beb48abf007d0b79a7238436d565af43d3d93803e603357fd5bf3b16c1342e617a5b6e4b631eb114483fdb289c0a45b6ac51d9b1cede0068a1b26533cace807f883ee49d56ee5004900229d64a86a0a1318a46f5a256401",
                    "revert": false,
                    "revertMessage": "",
                    "selector": "",
                    "status": true,
                    "value": "0"
                },
                "nodeType": 0
            },
            "20": {
                "invocation": {
                    "address": "0x49d56ee5004900229d64a86a0a1318a46f5a2564",
                    "callData": "0x0000000000000000000000002abf33485edf704511dfa42dfb8afa71a0450a8e00000000000000000000000058e3497bac7f708dd67fec302e801d9ffdedee5700000000000000000000000000000000000000000000000000000000000002c7",
                    "decodedMethod": {
                        "callParams": [
                            {
                                "name": "from",
                                "type": "address",
                                "value": "0x2abf33485edf704511dfa42dfb8afa71a0450a8e"
                            },
                            {
                                "name": "to",
                                "type": "address",
                                "value": "0x58e3497bac7f708dd67fec302e801d9ffdedee57"
                            },
                            {
                                "name": "tokenId",
                                "type": "uint256",
                                "value": "711"
                            }
                        ],
                        "constructorArguments": "",
                        "name": "safeTransferFrom",
                        "returnParams": [],
                        "signature": "safeTransferFrom(address,address,uint256)"
                    },
                    "errorInfo": "",
                    "fromAddress": "0xb16c1342e617a5b6e4b631eb114483fdb289c0a4",
                    "gasUsed": 63116,
                    "id": 20,
                    "methodDecoded": true,
                    "operation": "CALL",
                    "output": "",
                    "revert": false,
                    "revertMessage": "",
                    "selector": "0x42842e0e",
                    "status": true,
                    "value": "0"
                },
                "nodeType": 0
            },
            "21": {
                "event": {
                    "contract": "0x49d56ee5004900229d64a86a0a1318a46f5a2564",
                    "decodedLog": {
                        "name": "Approval",
                        "params": [
                            {
                                "name": "owner",
                                "type": "address",
                                "value": "0x2abf33485edf704511dfa42dfb8afa71a0450a8e"
                            },
                            {
                                "name": "approved",
                                "type": "address",
                                "value": "0x0000000000000000000000000000000000000000"
                            },
                            {
                                "decimalAvailable": true,
                                "name": "tokenId",
                                "type": "uint256",
                                "value": "711"
                            }
                        ],
                        "signature": "Approval(address,address,uint256)"
                    },
                    "id": 21,
                    "logData": "0x",
                    "logDecoded": true,
                    "operation": "EVENT",
                    "revert": false,
                    "status": true,
                    "topics": [
                        "0x8c5be1e5ebec7d5bd14f71427d1e84f3dd0314c0f7b2291e5b200ac8c7c3b925",
                        "0x0000000000000000000000002abf33485edf704511dfa42dfb8afa71a0450a8e",
                        "0x0000000000000000000000000000000000000000000000000000000000000000",
                        "0x00000000000000000000000000000000000000000000000000000000000002c7"
                    ]
                },
                "nodeType": 1
            },
            "22": {
                "event": {
                    "contract": "0x49d56ee5004900229d64a86a0a1318a46f5a2564",
                    "decodedLog": {
                        "name": "Transfer",
                        "params": [
                            {
                                "name": "from",
                                "type": "address",
                                "value": "0x2abf33485edf704511dfa42dfb8afa71a0450a8e"
                            },
                            {
                                "name": "to",
                                "type": "address",
                                "value": "0x58e3497bac7f708dd67fec302e801d9ffdedee57"
                            },
                            {
                                "decimalAvailable": true,
                                "name": "tokenId",
                                "type": "uint256",
                                "value": "711"
                            }
                        ],
                        "signature": "Transfer(address,address,uint256)"
                    },
                    "id": 22,
                    "logData": "0x",
                    "logDecoded": true,
                    "operation": "EVENT",
                    "revert": false,
                    "status": true,
                    "topics": [
                        "0xddf252ad1be2c89b69c2b068fc378daa952ba7f163c4a11628f55a4df523b3ef",
                        "0x0000000000000000000000002abf33485edf704511dfa42dfb8afa71a0450a8e",
                        "0x00000000000000000000000058e3497bac7f708dd67fec302e801d9ffdedee57",
                        "0x00000000000000000000000000000000000000000000000000000000000002c7"
                    ]
                },
                "nodeType": 1
            },
            "23": {
                "invocation": {
                    "address": "0x58e3497bac7f708dd67fec302e801d9ffdedee57",
                    "callData": "0x000000000000000000000000b16c1342e617a5b6e4b631eb114483fdb289c0a40000000000000000000000002abf33485edf704511dfa42dfb8afa71a0450a8e00000000000000000000000000000000000000000000000000000000000002c700000000000000000000000000000000000000000000000000000000000000800000000000000000000000000000000000000000000000000000000000000000",
                    "decodedMethod": {
                        "callParams": [
                            {
                                "name": "",
                                "type": "address",
                                "value": "0xb16c1342e617a5b6e4b631eb114483fdb289c0a4"
                            },
                            {
                                "name": "",
                                "type": "address",
                                "value": "0x2abf33485edf704511dfa42dfb8afa71a0450a8e"
                            },
                            {
                                "name": "id",
                                "type": "uint256",
                                "value": "711"
                            },
                            {
                                "name": "",
                                "type": "bytes",
                                "value": "0x"
                            }
                        ],
                        "constructorArguments": "",
                        "name": "onERC721Received",
                        "returnParams": [
                            {
                                "name": "",
                                "type": "bytes4",
                                "value": "0x150b7a02"
                            }
                        ],
                        "signature": "onERC721Received(address,address,uint256,bytes)"
                    },
                    "errorInfo": "",
                    "fromAddress": "0x49d56ee5004900229d64a86a0a1318a46f5a2564",
                    "gasUsed": 46219,
                    "id": 23,
                    "methodDecoded": true,
                    "operation": "CALL",
                    "output": "0x150b7a0200000000000000000000000000000000000000000000000000000000",
                    "revert": false,
                    "revertMessage": "",
                    "selector": "0x150b7a02",
                    "status": true,
                    "value": "0"
                },
                "nodeType": 0
            },
            "24": {
                "invocation": {
                    "address": "0xcd80c916b1194beb48abf007d0b79a7238436d56",
                    "callData": "0x000000000000000000000000b16c1342e617a5b6e4b631eb114483fdb289c0a40000000000000000000000002abf33485edf704511dfa42dfb8afa71a0450a8e00000000000000000000000000000000000000000000000000000000000002c700000000000000000000000000000000000000000000000000000000000000800000000000000000000000000000000000000000000000000000000000000000b16c1342e617a5b6e4b631eb114483fdb289c0a45b6ac51d9b1cede0068a1b26533cace807f883ee49d56ee5004900229d64a86a0a1318a46f5a256401",
                    "decodedMethod": {
                        "callParams": [
                            {
                                "name": "",
                                "type": "address",
                                "value": "0xb16c1342e617a5b6e4b631eb114483fdb289c0a4"
                            },
                            {
                                "name": "",
                                "type": "address",
                                "value": "0x2abf33485edf704511dfa42dfb8afa71a0450a8e"
                            },
                            {
                                "name": "id",
                                "type": "uint256",
                                "value": "711"
                            },
                            {
                                "name": "",
                                "type": "bytes",
                                "value": "0x"
                            }
                        ],
                        "constructorArguments": "",
                        "name": "onERC721Received",
                        "returnParams": [
                            {
                                "name": "",
                                "type": "bytes4",
                                "value": "0x150b7a02"
                            }
                        ],
                        "signature": "onERC721Received(address,address,uint256,bytes)"
                    },
                    "errorInfo": "",
                    "fromAddress": "0x58e3497bac7f708dd67fec302e801d9ffdedee57",
                    "gasUsed": 45998,
                    "id": 24,
                    "methodDecoded": true,
                    "operation": "DELEGATECALL",
                    "output": "0x150b7a0200000000000000000000000000000000000000000000000000000000",
                    "revert": false,
                    "revertMessage": "",
                    "selector": "0x150b7a02",
                    "status": true,
                    "value": "0"
                },
                "nodeType": 0
            },
            "25": {
                "invocation": {
                    "address": "0x49d56ee5004900229d64a86a0a1318a46f5a2564",
                    "callData": "0x0000000000000000000000002abf33485edf704511dfa42dfb8afa71a0450a8e00000000000000000000000058e3497bac7f708dd67fec302e801d9ffdedee5700000000000000000000000000000000000000000000000000000000000002c8",
                    "decodedMethod": {
                        "callParams": [
                            {
                                "name": "from",
                                "type": "address",
                                "value": "0x2abf33485edf704511dfa42dfb8afa71a0450a8e"
                            },
                            {
                                "name": "to",
                                "type": "address",
                                "value": "0x58e3497bac7f708dd67fec302e801d9ffdedee57"
                            },
                            {
                                "name": "tokenId",
                                "type": "uint256",
                                "value": "712"
                            }
                        ],
                        "constructorArguments": "",
                        "name": "safeTransferFrom",
                        "returnParams": [],
                        "signature": "safeTransferFrom(address,address,uint256)"
                    },
                    "errorInfo": "",
                    "fromAddress": "0xb16c1342e617a5b6e4b631eb114483fdb289c0a4",
                    "gasUsed": 63116,
                    "id": 25,
                    "methodDecoded": true,
                    "operation": "CALL",
                    "output": "",
                    "revert": false,
                    "revertMessage": "",
                    "selector": "0x42842e0e",
                    "status": true,
                    "value": "0"
                },
                "nodeType": 0
            },
            "26": {
                "event": {
                    "contract": "0x49d56ee5004900229d64a86a0a1318a46f5a2564",
                    "decodedLog": {
                        "name": "Approval",
                        "params": [
                            {
                                "name": "owner",
                                "type": "address",
                                "value": "0x2abf33485edf704511dfa42dfb8afa71a0450a8e"
                            },
                            {
                                "name": "approved",
                                "type": "address",
                                "value": "0x0000000000000000000000000000000000000000"
                            },
                            {
                                "decimalAvailable": true,
                                "name": "tokenId",
                                "type": "uint256",
                                "value": "712"
                            }
                        ],
                        "signature": "Approval(address,address,uint256)"
                    },
                    "id": 26,
                    "logData": "0x",
                    "logDecoded": true,
                    "operation": "EVENT",
                    "revert": false,
                    "status": true,
                    "topics": [
                        "0x8c5be1e5ebec7d5bd14f71427d1e84f3dd0314c0f7b2291e5b200ac8c7c3b925",
                        "0x0000000000000000000000002abf33485edf704511dfa42dfb8afa71a0450a8e",
                        "0x0000000000000000000000000000000000000000000000000000000000000000",
                        "0x00000000000000000000000000000000000000000000000000000000000002c8"
                    ]
                },
                "nodeType": 1
            },
            "27": {
                "event": {
                    "contract": "0x49d56ee5004900229d64a86a0a1318a46f5a2564",
                    "decodedLog": {
                        "name": "Transfer",
                        "params": [
                            {
                                "name": "from",
                                "type": "address",
                                "value": "0x2abf33485edf704511dfa42dfb8afa71a0450a8e"
                            },
                            {
                                "name": "to",
                                "type": "address",
                                "value": "0x58e3497bac7f708dd67fec302e801d9ffdedee57"
                            },
                            {
                                "decimalAvailable": true,
                                "name": "tokenId",
                                "type": "uint256",
                                "value": "712"
                            }
                        ],
                        "signature": "Transfer(address,address,uint256)"
                    },
                    "id": 27,
                    "logData": "0x",
                    "logDecoded": true,
                    "operation": "EVENT",
                    "revert": false,
                    "status": true,
                    "topics": [
                        "0xddf252ad1be2c89b69c2b068fc378daa952ba7f163c4a11628f55a4df523b3ef",
                        "0x0000000000000000000000002abf33485edf704511dfa42dfb8afa71a0450a8e",
                        "0x00000000000000000000000058e3497bac7f708dd67fec302e801d9ffdedee57",
                        "0x00000000000000000000000000000000000000000000000000000000000002c8"
                    ]
                },
                "nodeType": 1
            },
            "28": {
                "invocation": {
                    "address": "0x58e3497bac7f708dd67fec302e801d9ffdedee57",
                    "callData": "0x000000000000000000000000b16c1342e617a5b6e4b631eb114483fdb289c0a40000000000000000000000002abf33485edf704511dfa42dfb8afa71a0450a8e00000000000000000000000000000000000000000000000000000000000002c800000000000000000000000000000000000000000000000000000000000000800000000000000000000000000000000000000000000000000000000000000000",
                    "decodedMethod": {
                        "callParams": [
                            {
                                "name": "",
                                "type": "address",
                                "value": "0xb16c1342e617a5b6e4b631eb114483fdb289c0a4"
                            },
                            {
                                "name": "",
                                "type": "address",
                                "value": "0x2abf33485edf704511dfa42dfb8afa71a0450a8e"
                            },
                            {
                                "name": "id",
                                "type": "uint256",
                                "value": "712"
                            },
                            {
                                "name": "",
                                "type": "bytes",
                                "value": "0x"
                            }
                        ],
                        "constructorArguments": "",
                        "name": "onERC721Received",
                        "returnParams": [
                            {
                                "name": "",
                                "type": "bytes4",
                                "value": "0x150b7a02"
                            }
                        ],
                        "signature": "onERC721Received(address,address,uint256,bytes)"
                    },
                    "errorInfo": "",
                    "fromAddress": "0x49d56ee5004900229d64a86a0a1318a46f5a2564",
                    "gasUsed": 46219,
                    "id": 28,
                    "methodDecoded": true,
                    "operation": "CALL",
                    "output": "0x150b7a0200000000000000000000000000000000000000000000000000000000",
                    "revert": false,
                    "revertMessage": "",
                    "selector": "0x150b7a02",
                    "status": true,
                    "value": "0"
                },
                "nodeType": 0
            },
            "29": {
                "invocation": {
                    "address": "0xcd80c916b1194beb48abf007d0b79a7238436d56",
                    "callData": "0x000000000000000000000000b16c1342e617a5b6e4b631eb114483fdb289c0a40000000000000000000000002abf33485edf704511dfa42dfb8afa71a0450a8e00000000000000000000000000000000000000000000000000000000000002c800000000000000000000000000000000000000000000000000000000000000800000000000000000000000000000000000000000000000000000000000000000b16c1342e617a5b6e4b631eb114483fdb289c0a45b6ac51d9b1cede0068a1b26533cace807f883ee49d56ee5004900229d64a86a0a1318a46f5a256401",
                    "decodedMethod": {
                        "callParams": [
                            {
                                "name": "",
                                "type": "address",
                                "value": "0xb16c1342e617a5b6e4b631eb114483fdb289c0a4"
                            },
                            {
                                "name": "",
                                "type": "address",
                                "value": "0x2abf33485edf704511dfa42dfb8afa71a0450a8e"
                            },
                            {
                                "name": "id",
                                "type": "uint256",
                                "value": "712"
                            },
                            {
                                "name": "",
                                "type": "bytes",
                                "value": "0x"
                            }
                        ],
                        "constructorArguments": "",
                        "name": "onERC721Received",
                        "returnParams": [
                            {
                                "name": "",
                                "type": "bytes4",
                                "value": "0x150b7a02"
                            }
                        ],
                        "signature": "onERC721Received(address,address,uint256,bytes)"
                    },
                    "errorInfo": "",
                    "fromAddress": "0x58e3497bac7f708dd67fec302e801d9ffdedee57",
                    "gasUsed": 45998,
                    "id": 29,
                    "methodDecoded": true,
                    "operation": "DELEGATECALL",
                    "output": "0x150b7a0200000000000000000000000000000000000000000000000000000000",
                    "revert": false,
                    "revertMessage": "",
                    "selector": "0x150b7a02",
                    "status": true,
                    "value": "0"
                },
                "nodeType": 0
            },
            "3": {
                "invocation": {
                    "address": "0x58e3497bac7f708dd67fec302e801d9ffdedee57",
                    "callData": "0x0000000000000000000000002abf33485edf704511dfa42dfb8afa71a0450a8e0000000000000000000000002abf33485edf704511dfa42dfb8afa71a0450a8e00000000000000000000000000000000000000000000000000002d79883d20000000000000000000000000000000000000000000000000000000000000000000000000000000000000000000000000000000000000000000000197029be36701",
                    "decodedMethod": {
                        "callParams": [
                            {
                                "name": "_owner",
                                "type": "address",
                                "value": "0x2abf33485edf704511dfa42dfb8afa71a0450a8e"
                            },
                            {
                                "name": "_assetRecipient",
                                "type": "address",
                                "value": "0x2abf33485edf704511dfa42dfb8afa71a0450a8e"
                            },
                            {
                                "name": "_delta",
                                "type": "uint128",
                                "value": "50,000,000,000,000"
                            },
                            {
                                "name": "_fee",
                                "type": "uint96",
                                "value": "0"
                            },
                            {
                                "name": "_spotPrice",
                                "type": "uint128",
                                "value": "447,512,437,810,945"
                            }
                        ],
                        "constructorArguments": "",
                        "name": "initialize",
                        "returnParams": [],
                        "signature": "initialize(address,address,uint128,uint96,uint128)"
                    },
                    "errorInfo": "",
                    "fromAddress": "0xb16c1342e617a5b6e4b631eb114483fdb289c0a4",
                    "gasUsed": 96724,
                    "id": 3,
                    "methodDecoded": true,
                    "operation": "CALL",
                    "output": "",
                    "revert": false,
                    "revertMessage": "",
                    "selector": "0xfd17aef9",
                    "status": true,
                    "value": "0"
                },
                "nodeType": 0
            },
            "30": {
                "invocation": {
                    "address": "0x49d56ee5004900229d64a86a0a1318a46f5a2564",
                    "callData": "0x0000000000000000000000002abf33485edf704511dfa42dfb8afa71a0450a8e00000000000000000000000058e3497bac7f708dd67fec302e801d9ffdedee5700000000000000000000000000000000000000000000000000000000000002c9",
                    "decodedMethod": {
                        "callParams": [
                            {
                                "name": "from",
                                "type": "address",
                                "value": "0x2abf33485edf704511dfa42dfb8afa71a0450a8e"
                            },
                            {
                                "name": "to",
                                "type": "address",
                                "value": "0x58e3497bac7f708dd67fec302e801d9ffdedee57"
                            },
                            {
                                "name": "tokenId",
                                "type": "uint256",
                                "value": "713"
                            }
                        ],
                        "constructorArguments": "",
                        "name": "safeTransferFrom",
                        "returnParams": [],
                        "signature": "safeTransferFrom(address,address,uint256)"
                    },
                    "errorInfo": "",
                    "fromAddress": "0xb16c1342e617a5b6e4b631eb114483fdb289c0a4",
                    "gasUsed": 63116,
                    "id": 30,
                    "methodDecoded": true,
                    "operation": "CALL",
                    "output": "",
                    "revert": false,
                    "revertMessage": "",
                    "selector": "0x42842e0e",
                    "status": true,
                    "value": "0"
                },
                "nodeType": 0
            },
            "31": {
                "event": {
                    "contract": "0x49d56ee5004900229d64a86a0a1318a46f5a2564",
                    "decodedLog": {
                        "name": "Approval",
                        "params": [
                            {
                                "name": "owner",
                                "type": "address",
                                "value": "0x2abf33485edf704511dfa42dfb8afa71a0450a8e"
                            },
                            {
                                "name": "approved",
                                "type": "address",
                                "value": "0x0000000000000000000000000000000000000000"
                            },
                            {
                                "decimalAvailable": true,
                                "name": "tokenId",
                                "type": "uint256",
                                "value": "713"
                            }
                        ],
                        "signature": "Approval(address,address,uint256)"
                    },
                    "id": 31,
                    "logData": "0x",
                    "logDecoded": true,
                    "operation": "EVENT",
                    "revert": false,
                    "status": true,
                    "topics": [
                        "0x8c5be1e5ebec7d5bd14f71427d1e84f3dd0314c0f7b2291e5b200ac8c7c3b925",
                        "0x0000000000000000000000002abf33485edf704511dfa42dfb8afa71a0450a8e",
                        "0x0000000000000000000000000000000000000000000000000000000000000000",
                        "0x00000000000000000000000000000000000000000000000000000000000002c9"
                    ]
                },
                "nodeType": 1
            },
            "32": {
                "event": {
                    "contract": "0x49d56ee5004900229d64a86a0a1318a46f5a2564",
                    "decodedLog": {
                        "name": "Transfer",
                        "params": [
                            {
                                "name": "from",
                                "type": "address",
                                "value": "0x2abf33485edf704511dfa42dfb8afa71a0450a8e"
                            },
                            {
                                "name": "to",
                                "type": "address",
                                "value": "0x58e3497bac7f708dd67fec302e801d9ffdedee57"
                            },
                            {
                                "decimalAvailable": true,
                                "name": "tokenId",
                                "type": "uint256",
                                "value": "713"
                            }
                        ],
                        "signature": "Transfer(address,address,uint256)"
                    },
                    "id": 32,
                    "logData": "0x",
                    "logDecoded": true,
                    "operation": "EVENT",
                    "revert": false,
                    "status": true,
                    "topics": [
                        "0xddf252ad1be2c89b69c2b068fc378daa952ba7f163c4a11628f55a4df523b3ef",
                        "0x0000000000000000000000002abf33485edf704511dfa42dfb8afa71a0450a8e",
                        "0x00000000000000000000000058e3497bac7f708dd67fec302e801d9ffdedee57",
                        "0x00000000000000000000000000000000000000000000000000000000000002c9"
                    ]
                },
                "nodeType": 1
            },
            "33": {
                "invocation": {
                    "address": "0x58e3497bac7f708dd67fec302e801d9ffdedee57",
                    "callData": "0x000000000000000000000000b16c1342e617a5b6e4b631eb114483fdb289c0a40000000000000000000000002abf33485edf704511dfa42dfb8afa71a0450a8e00000000000000000000000000000000000000000000000000000000000002c900000000000000000000000000000000000000000000000000000000000000800000000000000000000000000000000000000000000000000000000000000000",
                    "decodedMethod": {
                        "callParams": [
                            {
                                "name": "",
                                "type": "address",
                                "value": "0xb16c1342e617a5b6e4b631eb114483fdb289c0a4"
                            },
                            {
                                "name": "",
                                "type": "address",
                                "value": "0x2abf33485edf704511dfa42dfb8afa71a0450a8e"
                            },
                            {
                                "name": "id",
                                "type": "uint256",
                                "value": "713"
                            },
                            {
                                "name": "",
                                "type": "bytes",
                                "value": "0x"
                            }
                        ],
                        "constructorArguments": "",
                        "name": "onERC721Received",
                        "returnParams": [
                            {
                                "name": "",
                                "type": "bytes4",
                                "value": "0x150b7a02"
                            }
                        ],
                        "signature": "onERC721Received(address,address,uint256,bytes)"
                    },
                    "errorInfo": "",
                    "fromAddress": "0x49d56ee5004900229d64a86a0a1318a46f5a2564",
                    "gasUsed": 46219,
                    "id": 33,
                    "methodDecoded": true,
                    "operation": "CALL",
                    "output": "0x150b7a0200000000000000000000000000000000000000000000000000000000",
                    "revert": false,
                    "revertMessage": "",
                    "selector": "0x150b7a02",
                    "status": true,
                    "value": "0"
                },
                "nodeType": 0
            },
            "34": {
                "invocation": {
                    "address": "0xcd80c916b1194beb48abf007d0b79a7238436d56",
                    "callData": "0x000000000000000000000000b16c1342e617a5b6e4b631eb114483fdb289c0a40000000000000000000000002abf33485edf704511dfa42dfb8afa71a0450a8e00000000000000000000000000000000000000000000000000000000000002c900000000000000000000000000000000000000000000000000000000000000800000000000000000000000000000000000000000000000000000000000000000b16c1342e617a5b6e4b631eb114483fdb289c0a45b6ac51d9b1cede0068a1b26533cace807f883ee49d56ee5004900229d64a86a0a1318a46f5a256401",
                    "decodedMethod": {
                        "callParams": [
                            {
                                "name": "",
                                "type": "address",
                                "value": "0xb16c1342e617a5b6e4b631eb114483fdb289c0a4"
                            },
                            {
                                "name": "",
                                "type": "address",
                                "value": "0x2abf33485edf704511dfa42dfb8afa71a0450a8e"
                            },
                            {
                                "name": "id",
                                "type": "uint256",
                                "value": "713"
                            },
                            {
                                "name": "",
                                "type": "bytes",
                                "value": "0x"
                            }
                        ],
                        "constructorArguments": "",
                        "name": "onERC721Received",
                        "returnParams": [
                            {
                                "name": "",
                                "type": "bytes4",
                                "value": "0x150b7a02"
                            }
                        ],
                        "signature": "onERC721Received(address,address,uint256,bytes)"
                    },
                    "errorInfo": "",
                    "fromAddress": "0x58e3497bac7f708dd67fec302e801d9ffdedee57",
                    "gasUsed": 45998,
                    "id": 34,
                    "methodDecoded": true,
                    "operation": "DELEGATECALL",
                    "output": "0x150b7a0200000000000000000000000000000000000000000000000000000000",
                    "revert": false,
                    "revertMessage": "",
                    "selector": "0x150b7a02",
                    "status": true,
                    "value": "0"
                },
                "nodeType": 0
            },
            "35": {
                "event": {
                    "contract": "0xb16c1342e617a5b6e4b631eb114483fdb289c0a4",
                    "decodedLog": {
                        "name": "NewPair",
                        "params": [
                            {
                                "name": "poolAddress",
                                "type": "address",
                                "value": "0x58e3497bac7f708dd67fec302e801d9ffdedee57"
                            }
                        ],
                        "signature": "NewPair(address)"
                    },
                    "id": 35,
                    "logData": "0x00000000000000000000000058e3497bac7f708dd67fec302e801d9ffdedee57",
                    "logDecoded": true,
                    "operation": "EVENT",
                    "revert": false,
                    "status": true,
                    "topics": [
                        "0xf5bdc103c3e68a20d5f97d2d46792d3fdddfa4efeb6761f8141e6a7b936ca66c"
                    ]
                },
                "nodeType": 1
            },
            "4": {
                "invocation": {
                    "address": "0xcd80c916b1194beb48abf007d0b79a7238436d56",
                    "callData": "0x0000000000000000000000002abf33485edf704511dfa42dfb8afa71a0450a8e0000000000000000000000002abf33485edf704511dfa42dfb8afa71a0450a8e00000000000000000000000000000000000000000000000000002d79883d20000000000000000000000000000000000000000000000000000000000000000000000000000000000000000000000000000000000000000000000197029be36701b16c1342e617a5b6e4b631eb114483fdb289c0a45b6ac51d9b1cede0068a1b26533cace807f883ee49d56ee5004900229d64a86a0a1318a46f5a256401",
                    "decodedMethod": {
                        "callParams": [
                            {
                                "name": "_owner",
                                "type": "address",
                                "value": "0x2abf33485edf704511dfa42dfb8afa71a0450a8e"
                            },
                            {
                                "name": "_assetRecipient",
                                "type": "address",
                                "value": "0x2abf33485edf704511dfa42dfb8afa71a0450a8e"
                            },
                            {
                                "name": "_delta",
                                "type": "uint128",
                                "value": "50,000,000,000,000"
                            },
                            {
                                "name": "_fee",
                                "type": "uint96",
                                "value": "0"
                            },
                            {
                                "name": "_spotPrice",
                                "type": "uint128",
                                "value": "447,512,437,810,945"
                            }
                        ],
                        "constructorArguments": "",
                        "name": "initialize",
                        "returnParams": [],
                        "signature": "initialize(address,address,uint128,uint96,uint128)"
                    },
                    "errorInfo": "",
                    "fromAddress": "0x58e3497bac7f708dd67fec302e801d9ffdedee57",
                    "gasUsed": 94006,
                    "id": 4,
                    "methodDecoded": true,
                    "operation": "DELEGATECALL",
                    "output": "",
                    "revert": false,
                    "revertMessage": "",
                    "selector": "0xfd17aef9",
                    "status": true,
                    "value": "0"
                },
                "nodeType": 0
            },
            "5": {
                "invocation": {
                    "address": "0x5b6ac51d9b1cede0068a1b26533cace807f883ee",
                    "callData": "0x00000000000000000000000000000000000000000000000000002d79883d2000",
                    "decodedMethod": {
                        "callParams": [
                            {
                                "name": "",
                                "type": "uint128",
                                "value": "50,000,000,000,000"
                            }
                        ],
                        "constructorArguments": "",
                        "name": "validateDelta",
                        "returnParams": [
                            {
                                "name": "valid",
                                "type": "bool",
                                "value": true
                            }
                        ],
                        "signature": "validateDelta(uint128)"
                    },
                    "errorInfo": "",
                    "fromAddress": "0x58e3497bac7f708dd67fec302e801d9ffdedee57",
                    "gasUsed": 361,
                    "id": 5,
                    "methodDecoded": true,
                    "operation": "STATICCALL",
                    "output": "0x0000000000000000000000000000000000000000000000000000000000000001",
                    "revert": false,
                    "revertMessage": "",
                    "selector": "0x0ae67ccc",
                    "status": true,
                    "value": "0"
                },
                "nodeType": 0
            },
            "6": {
                "invocation": {
                    "address": "0x5b6ac51d9b1cede0068a1b26533cace807f883ee",
                    "callData": "0x000000000000000000000000000000000000000000000000000197029be36701",
                    "decodedMethod": {
                        "callParams": [
                            {
                                "name": "",
                                "type": "uint128",
                                "value": "447,512,437,810,945"
                            }
                        ],
                        "constructorArguments": "",
                        "name": "validateSpotPrice",
                        "returnParams": [
                            {
                                "name": "",
                                "type": "bool",
                                "value": true
                            }
                        ],
                        "signature": "validateSpotPrice(uint128)"
                    },
                    "errorInfo": "",
                    "fromAddress": "0x58e3497bac7f708dd67fec302e801d9ffdedee57",
                    "gasUsed": 405,
                    "id": 6,
                    "methodDecoded": true,
                    "operation": "STATICCALL",
                    "output": "0x0000000000000000000000000000000000000000000000000000000000000001",
                    "revert": false,
                    "revertMessage": "",
                    "selector": "0xa1bbb2e8",
                    "status": true,
                    "value": "0"
                },
                "nodeType": 0
            },
            "7": {
                "invocation": {
                    "address": "0x58e3497bac7f708dd67fec302e801d9ffdedee57",
                    "callData": "0x",
                    "decodedMethod": null,
                    "errorInfo": "",
                    "fromAddress": "0xb16c1342e617a5b6e4b631eb114483fdb289c0a4",
                    "gasUsed": 1490,
                    "id": 7,
                    "methodDecoded": false,
                    "operation": "CALL",
                    "output": "",
                    "revert": false,
                    "revertMessage": "",
                    "selector": "fallback",
                    "status": true,
                    "value": "0"
                },
                "nodeType": 0
            },
            "8": {
                "invocation": {
                    "address": "0xcd80c916b1194beb48abf007d0b79a7238436d56",
                    "callData": "0xe617a5b6e4b631eb114483fdb289c0a45b6ac51d9b1cede0068a1b26533cace807f883ee49d56ee5004900229d64a86a0a1318a46f5a256401",
                    "decodedMethod": null,
                    "errorInfo": "",
                    "fromAddress": "0x58e3497bac7f708dd67fec302e801d9ffdedee57",
                    "gasUsed": 1308,
                    "id": 8,
                    "methodDecoded": false,
                    "operation": "DELEGATECALL",
                    "output": "",
                    "revert": false,
                    "revertMessage": "",
                    "selector": "0xb16c1342",
                    "status": true,
                    "value": "0"
                },
                "nodeType": 0
            },
            "9": {
                "event": {
                    "contract": "0x58e3497bac7f708dd67fec302e801d9ffdedee57",
                    "decodedLog": {
                        "name": "TokenDeposit",
                        "params": [
                            {
                                "name": "amount",
                                "type": "uint256",
                                "value": "0"
                            }
                        ],
                        "signature": "TokenDeposit(uint256)"
                    },
                    "id": 9,
                    "logData": "0x0000000000000000000000000000000000000000000000000000000000000000",
                    "logDecoded": true,
                    "operation": "EVENT",
                    "revert": false,
                    "status": true,
                    "topics": [
                        "0xf1b3be8dace0fecfbdb6fb0fa1cc014c612bcb1b46db027c1ece5fc11fff09d6"
                    ]
                },
                "nodeType": 1
            }
        },
        "gasFlame": [
            {
                "children": [
                    {
                        "children": [
                            {
                                "children": [],
                                "depth": 0,
                                "name": "Initial Gas",
                                "value": 23852
                            },
                            {
                                "children": [
                                    {
                                        "children": [],
                                        "depth": 1,
                                        "name": "supportsInterface",
                                        "value": 820
                                    },
                                    {
                                        "children": [],
                                        "depth": 1,
                                        "name": "contract creation",
                                        "value": 22840
                                    },
                                    {
                                        "children": [
                                            {
                                                "children": [
                                                    {
                                                        "children": [],
                                                        "depth": 3,
                                                        "name": "validateDelta",
                                                        "value": 361
                                                    },
                                                    {
                                                        "children": [],
                                                        "depth": 3,
                                                        "name": "validateSpotPrice",
                                                        "value": 405
                                                    }
                                                ],
                                                "depth": 2,
                                                "name": "initialize",
                                                "value": 94006
                                            }
                                        ],
                                        "depth": 1,
                                        "name": "initialize",
                                        "value": 96724
                                    },
                                    {
                                        "children": [
                                            {
                                                "children": [],
                                                "depth": 2,
                                                "name": "0xb16c1342",
                                                "value": 1308
                                            }
                                        ],
                                        "depth": 1,
                                        "name": "fallback",
                                        "value": 1490
                                    },
                                    {
                                        "children": [
                                            {
                                                "children": [
                                                    {
                                                        "children": [],
                                                        "depth": 3,
                                                        "name": "onERC721Received",
                                                        "value": 67898
                                                    }
                                                ],
                                                "depth": 2,
                                                "name": "onERC721Received",
                                                "value": 68119
                                            }
                                        ],
                                        "depth": 1,
                                        "name": "safeTransferFrom",
                                        "value": 113716
                                    },
                                    {
                                        "children": [
                                            {
                                                "children": [
                                                    {
                                                        "children": [],
                                                        "depth": 3,
                                                        "name": "onERC721Received",
                                                        "value": 45998
                                                    }
                                                ],
                                                "depth": 2,
                                                "name": "onERC721Received",
                                                "value": 46219
                                            }
                                        ],
                                        "depth": 1,
                                        "name": "safeTransferFrom",
                                        "value": 63116
                                    },
                                    {
                                        "children": [
                                            {
                                                "children": [
                                                    {
                                                        "children": [],
                                                        "depth": 3,
                                                        "name": "onERC721Received",
                                                        "value": 45998
                                                    }
                                                ],
                                                "depth": 2,
                                                "name": "onERC721Received",
                                                "value": 46219
                                            }
                                        ],
                                        "depth": 1,
                                        "name": "safeTransferFrom",
                                        "value": 63116
                                    },
                                    {
                                        "children": [
                                            {
                                                "children": [
                                                    {
                                                        "children": [],
                                                        "depth": 3,
                                                        "name": "onERC721Received",
                                                        "value": 45998
                                                    }
                                                ],
                                                "depth": 2,
                                                "name": "onERC721Received",
                                                "value": 46219
                                            }
                                        ],
                                        "depth": 1,
                                        "name": "safeTransferFrom",
                                        "value": 63116
                                    },
                                    {
                                        "children": [
                                            {
                                                "children": [
                                                    {
                                                        "children": [],
                                                        "depth": 3,
                                                        "name": "onERC721Received",
                                                        "value": 45998
                                                    }
                                                ],
                                                "depth": 2,
                                                "name": "onERC721Received",
                                                "value": 46219
                                            }
                                        ],
                                        "depth": 1,
                                        "name": "safeTransferFrom",
                                        "value": 63116
                                    }
                                ],
                                "depth": 0,
                                "name": "Executed Gas",
                                "value": 531430
                            }
                        ],
                        "depth": -1,
                        "name": "Actual Gas Used",
                        "value": 550482
                    },
                    {
                        "children": [],
                        "depth": -1,
                        "name": "Refunded Gas",
                        "value": 4800
                    }
                ],
                "depth": -2,
                "name": "Total Gas",
                "value": 555282
            }
        ],
        "isConfirmed": true,
        "mainTrace": [
            {
                "children": [
                    {
                        "children": [
                            {
                                "children": [],
                                "depth": 1,
                                "id": 1,
                                "order": 1
                            },
                            {
                                "children": [],
                                "depth": 1,
                                "id": 2,
                                "order": 2
                            },
                            {
                                "children": [
                                    {
                                        "children": [
                                            {
                                                "children": [],
                                                "depth": 3,
                                                "id": 5,
                                                "order": 5
                                            },
                                            {
                                                "children": [],
                                                "depth": 3,
                                                "id": 6,
                                                "order": 6
                                            }
                                        ],
                                        "depth": 2,
                                        "id": 4,
                                        "order": 4
                                    }
                                ],
                                "depth": 1,
                                "id": 3,
                                "order": 3
                            },
                            {
                                "children": [
                                    {
                                        "children": [
                                            {
                                                "children": [],
                                                "depth": 3,
                                                "id": 9,
                                                "order": 9
                                            }
                                        ],
                                        "depth": 2,
                                        "id": 8,
                                        "order": 8
                                    }
                                ],
                                "depth": 1,
                                "id": 7,
                                "order": 7
                            },
                            {
                                "children": [
                                    {
                                        "children": [],
                                        "depth": 2,
                                        "id": 11,
                                        "order": 11
                                    },
                                    {
                                        "children": [],
                                        "depth": 2,
                                        "id": 12,
                                        "order": 12
                                    },
                                    {
                                        "children": [
                                            {
                                                "children": [],
                                                "depth": 3,
                                                "id": 14,
                                                "order": 14
                                            }
                                        ],
                                        "depth": 2,
                                        "id": 13,
                                        "order": 13
                                    }
                                ],
                                "depth": 1,
                                "id": 10,
                                "order": 10
                            },
                            {
                                "children": [
                                    {
                                        "children": [],
                                        "depth": 2,
                                        "id": 16,
                                        "order": 16
                                    },
                                    {
                                        "children": [],
                                        "depth": 2,
                                        "id": 17,
                                        "order": 17
                                    },
                                    {
                                        "children": [
                                            {
                                                "children": [],
                                                "depth": 3,
                                                "id": 19,
                                                "order": 19
                                            }
                                        ],
                                        "depth": 2,
                                        "id": 18,
                                        "order": 18
                                    }
                                ],
                                "depth": 1,
                                "id": 15,
                                "order": 15
                            },
                            {
                                "children": [
                                    {
                                        "children": [],
                                        "depth": 2,
                                        "id": 21,
                                        "order": 21
                                    },
                                    {
                                        "children": [],
                                        "depth": 2,
                                        "id": 22,
                                        "order": 22
                                    },
                                    {
                                        "children": [
                                            {
                                                "children": [],
                                                "depth": 3,
                                                "id": 24,
                                                "order": 24
                                            }
                                        ],
                                        "depth": 2,
                                        "id": 23,
                                        "order": 23
                                    }
                                ],
                                "depth": 1,
                                "id": 20,
                                "order": 20
                            },
                            {
                                "children": [
                                    {
                                        "children": [],
                                        "depth": 2,
                                        "id": 26,
                                        "order": 26
                                    },
                                    {
                                        "children": [],
                                        "depth": 2,
                                        "id": 27,
                                        "order": 27
                                    },
                                    {
                                        "children": [
                                            {
                                                "children": [],
                                                "depth": 3,
                                                "id": 29,
                                                "order": 29
                                            }
                                        ],
                                        "depth": 2,
                                        "id": 28,
                                        "order": 28
                                    }
                                ],
                                "depth": 1,
                                "id": 25,
                                "order": 25
                            },
                            {
                                "children": [
                                    {
                                        "children": [],
                                        "depth": 2,
                                        "id": 31,
                                        "order": 31
                                    },
                                    {
                                        "children": [],
                                        "depth": 2,
                                        "id": 32,
                                        "order": 32
                                    },
                                    {
                                        "children": [
                                            {
                                                "children": [],
                                                "depth": 3,
                                                "id": 34,
                                                "order": 34
                                            }
                                        ],
                                        "depth": 2,
                                        "id": 33,
                                        "order": 33
                                    }
                                ],
                                "depth": 1,
                                "id": 30,
                                "order": 30
                            },
                            {
                                "children": [],
                                "depth": 1,
                                "id": 35,
                                "order": 35
                            }
                        ],
                        "depth": 0,
                        "id": 0,
                        "order": 0
                    }
                ],
                "depth": -1,
                "id": -1,
                "order": -1
            }
        ],
        "mainTraceNodeCount": 36,
        "parentIdMap": {
            "0": -1,
            "1": 0,
            "10": 0,
            "11": 10,
            "12": 10,
            "13": 10,
            "14": 13,
            "15": 0,
            "16": 15,
            "17": 15,
            "18": 15,
            "19": 18,
            "2": 0,
            "20": 0,
            "21": 20,
            "22": 20,
            "23": 20,
            "24": 23,
            "25": 0,
            "26": 25,
            "27": 25,
            "28": 25,
            "29": 28,
            "3": 0,
            "30": 0,
            "31": 30,
            "32": 30,
            "33": 30,
            "34": 33,
            "35": 0,
            "4": 3,
            "5": 4,
            "6": 4,
            "7": 0,
            "8": 7,
            "9": 8
        },
        "tidyTrace": [
            {
                "children": [
                    {
                        "children": [
                            {
                                "children": [],
                                "depth": 1,
                                "id": 2,
                                "order": 2
                            },
                            {
                                "children": [
                                    {
                                        "children": [],
                                        "depth": 2,
                                        "id": 4,
                                        "order": 4
                                    }
                                ],
                                "depth": 1,
                                "id": 3,
                                "order": 3
                            },
                            {
                                "children": [
                                    {
                                        "children": [
                                            {
                                                "children": [],
                                                "depth": 3,
                                                "id": 9,
                                                "order": 9
                                            }
                                        ],
                                        "depth": 2,
                                        "id": 8,
                                        "order": 8
                                    }
                                ],
                                "depth": 1,
                                "id": 7,
                                "order": 7
                            },
                            {
                                "children": [
                                    {
                                        "children": [],
                                        "depth": 2,
                                        "id": 11,
                                        "order": 11
                                    },
                                    {
                                        "children": [],
                                        "depth": 2,
                                        "id": 12,
                                        "order": 12
                                    },
                                    {
                                        "children": [
                                            {
                                                "children": [],
                                                "depth": 3,
                                                "id": 14,
                                                "order": 14
                                            }
                                        ],
                                        "depth": 2,
                                        "id": 13,
                                        "order": 13
                                    }
                                ],
                                "depth": 1,
                                "id": 10,
                                "order": 10
                            },
                            {
                                "children": [
                                    {
                                        "children": [],
                                        "depth": 2,
                                        "id": 16,
                                        "order": 16
                                    },
                                    {
                                        "children": [],
                                        "depth": 2,
                                        "id": 17,
                                        "order": 17
                                    },
                                    {
                                        "children": [
                                            {
                                                "children": [],
                                                "depth": 3,
                                                "id": 19,
                                                "order": 19
                                            }
                                        ],
                                        "depth": 2,
                                        "id": 18,
                                        "order": 18
                                    }
                                ],
                                "depth": 1,
                                "id": 15,
                                "order": 15
                            },
                            {
                                "children": [
                                    {
                                        "children": [],
                                        "depth": 2,
                                        "id": 21,
                                        "order": 21
                                    },
                                    {
                                        "children": [],
                                        "depth": 2,
                                        "id": 22,
                                        "order": 22
                                    },
                                    {
                                        "children": [
                                            {
                                                "children": [],
                                                "depth": 3,
                                                "id": 24,
                                                "order": 24
                                            }
                                        ],
                                        "depth": 2,
                                        "id": 23,
                                        "order": 23
                                    }
                                ],
                                "depth": 1,
                                "id": 20,
                                "order": 20
                            },
                            {
                                "children": [
                                    {
                                        "children": [],
                                        "depth": 2,
                                        "id": 26,
                                        "order": 26
                                    },
                                    {
                                        "children": [],
                                        "depth": 2,
                                        "id": 27,
                                        "order": 27
                                    },
                                    {
                                        "children": [
                                            {
                                                "children": [],
                                                "depth": 3,
                                                "id": 29,
                                                "order": 29
                                            }
                                        ],
                                        "depth": 2,
                                        "id": 28,
                                        "order": 28
                                    }
                                ],
                                "depth": 1,
                                "id": 25,
                                "order": 25
                            },
                            {
                                "children": [
                                    {
                                        "children": [],
                                        "depth": 2,
                                        "id": 31,
                                        "order": 31
                                    },
                                    {
                                        "children": [],
                                        "depth": 2,
                                        "id": 32,
                                        "order": 32
                                    },
                                    {
                                        "children": [
                                            {
                                                "children": [],
                                                "depth": 3,
                                                "id": 34,
                                                "order": 34
                                            }
                                        ],
                                        "depth": 2,
                                        "id": 33,
                                        "order": 33
                                    }
                                ],
                                "depth": 1,
                                "id": 30,
                                "order": 30
                            },
                            {
                                "children": [],
                                "depth": 1,
                                "id": 35,
                                "order": 35
                            }
                        ],
                        "depth": 0,
                        "id": 0,
                        "order": 0
                    }
                ],
                "depth": -1,
                "id": -1,
                "order": -1
            }
        ],
        "tidyTraceNodeCount": 33
    },
    "state_change": {
        "stateChanges": [
            {
                "address": "0x49d56ee5004900229d64a86a0a1318a46f5a2564",
                "erc": "ERC-721",
                "slots": [
                    {
                        "current": "0x0000000000000000000000000000000000000000000000000000000000000000",
                        "key": "0xf0c9194d50fde1fe26c7b7af794cdf5776f8c2f9e396abca2fa4a0247ce4d1cc",
                        "prev": "0x0000000000000000000000000000000000000000000000000000000000000005"
                    },
                    {
                        "current": "0x00000000000000000000000058e3497bac7f708dd67fec302e801d9ffdedee57",
                        "key": "0xbd91f9939df62cde5a3fe5709a6de4ad5502f54329f701fb46655de587bfe213",
                        "prev": "0x0000000000000000000000002abf33485edf704511dfa42dfb8afa71a0450a8e"
                    },
                    {
                        "current": "0x00000000000000000000000058e3497bac7f708dd67fec302e801d9ffdedee57",
                        "key": "0x7b98a4a6556239ae20352d680d475d687b4bd0d6ce6f3ec34588cbc9d0ea8a9b",
                        "prev": "0x0000000000000000000000002abf33485edf704511dfa42dfb8afa71a0450a8e"
                    },
                    {
                        "current": "0x00000000000000000000000058e3497bac7f708dd67fec302e801d9ffdedee57",
                        "key": "0xafea738da5b0be4643b496c1f525e618cd3a162ddc3079b9e3ed4ab8c465692f",
                        "prev": "0x0000000000000000000000002abf33485edf704511dfa42dfb8afa71a0450a8e"
                    },
                    {
                        "current": "0x00000000000000000000000058e3497bac7f708dd67fec302e801d9ffdedee57",
                        "key": "0xfa3362ac20e00041a1730a153494ee2c0fe6c68b128871fd8110002950d38a8a",
                        "prev": "0x0000000000000000000000002abf33485edf704511dfa42dfb8afa71a0450a8e"
                    },
                    {
                        "current": "0x0000000000000000000000000000000000000000000000000000000000000005",
                        "key": "0xa7ac324d5d1c008ba0bb0474d1ca70eb8a6c55d2606c0e726ae288ced78e9f3c",
                        "prev": "0x0000000000000000000000000000000000000000000000000000000000000000"
                    },
                    {
                        "current": "0x00000000000000000000000058e3497bac7f708dd67fec302e801d9ffdedee57",
                        "key": "0x304192ec26b8df15b683fa0f3c045ffa8e08117e3ceb0304ea30afeac1b68eb8",
                        "prev": "0x0000000000000000000000002abf33485edf704511dfa42dfb8afa71a0450a8e"
                    }
                ],
                "storageVariables": [
                    {
                        "name": "_balances",
                        "type": "mapping(address => uint256)",
                        "value": {
                            "pairs": [
                                {
                                    "key": "0x2abf33485edf704511dfa42dfb8afa71a0450a8e",
                                    "value": {
                                        "current": "0",
                                        "prev": "5",
                                        "typeTag": 1
                                    }
                                },
                                {
                                    "key": "0x58e3497bac7f708dd67fec302e801d9ffdedee57",
                                    "value": {
                                        "current": "5",
                                        "prev": "0",
                                        "typeTag": 1
                                    }
                                }
                            ],
                            "typeTag": 4
                        }
                    },
                    {
                        "name": "_owners",
                        "type": "mapping(uint256 => address)",
                        "value": {
                            "pairs": [
                                {
                                    "key": "710",
                                    "value": {
                                        "current": "0x58e3497bac7f708dd67fec302e801d9ffdedee57",
                                        "prev": "0x2abf33485edf704511dfa42dfb8afa71a0450a8e",
                                        "typeTag": 1
                                    }
                                },
                                {
                                    "key": "711",
                                    "value": {
                                        "current": "0x58e3497bac7f708dd67fec302e801d9ffdedee57",
                                        "prev": "0x2abf33485edf704511dfa42dfb8afa71a0450a8e",
                                        "typeTag": 1
                                    }
                                },
                                {
                                    "key": "712",
                                    "value": {
                                        "current": "0x58e3497bac7f708dd67fec302e801d9ffdedee57",
                                        "prev": "0x2abf33485edf704511dfa42dfb8afa71a0450a8e",
                                        "typeTag": 1
                                    }
                                },
                                {
                                    "key": "713",
                                    "value": {
                                        "current": "0x58e3497bac7f708dd67fec302e801d9ffdedee57",
                                        "prev": "0x2abf33485edf704511dfa42dfb8afa71a0450a8e",
                                        "typeTag": 1
                                    }
                                },
                                {
                                    "key": "714",
                                    "value": {
                                        "current": "0x58e3497bac7f708dd67fec302e801d9ffdedee57",
                                        "prev": "0x2abf33485edf704511dfa42dfb8afa71a0450a8e",
                                        "typeTag": 1
                                    }
                                }
                            ],
                            "typeTag": 4
                        }
                    }
                ]
            },
            {
                "address": "0x58e3497bac7f708dd67fec302e801d9ffdedee57",
                "erc": "",
                "slots": [
                    {
                        "current": "0x0000000000000000000000002abf33485edf704511dfa42dfb8afa71a0450a8e",
                        "key": "0x0000000000000000000000000000000000000000000000000000000000000000",
                        "prev": "0x0000000000000000000000000000000000000000000000000000000000000000"
                    },
                    {
                        "current": "0x0000000000000000000000000000000000000000000000000000000000000005",
                        "key": "0x0000000000000000000000000000000000000000000000000000000000000004",
                        "prev": "0x0000000000000000000000000000000000000000000000000000000000000000"
                    },
                    {
                        "current": "0x0000000000000000000000000000000000000000000000000000000000000002",
                        "key": "0xd8a4e169fc2d70f3170f1b76fc0a8cf074619e0a783555b7f4795c9bf91b8ce4",
                        "prev": "0x0000000000000000000000000000000000000000000000000000000000000000"
                    },
                    {
                        "current": "0x00000000000000000000000000000000000000000000000000000000000002c9",
                        "key": "0x8a35acfbc15ff81a39ae7d344fd709f28e8600b4aa8c65c6b64bfe7fe36bd19f",
                        "prev": "0x0000000000000000000000000000000000000000000000000000000000000000"
                    },
                    {
                        "current": "0x0000000000000000000000000000000000000000000000000000000000000004",
                        "key": "0x83c5f8cc10e7304183e64d8c69b83123dfefa48324879465f57a5e811fdf21a5",
                        "prev": "0x0000000000000000000000000000000000000000000000000000000000000000"
                    },
                    {
                        "current": "0x0000000000000000000000000000000000000000000000000000000000000001",
                        "key": "0x0000000000000000000000000000000000000000000000000000000000000001",
                        "prev": "0x0000000000000000000000000000000000000000000000000000000000000000"
                    },
                    {
                        "current": "0x2abf33485edf704511dfa42dfb8afa71a0450a8e000000000000000000000000",
                        "key": "0x0000000000000000000000000000000000000000000000000000000000000003",
                        "prev": "0x0000000000000000000000000000000000000000000000000000000000000000"
                    },
                    {
                        "current": "0x00000000000000000000000000000000000000000000000000000000000002c6",
                        "key": "0x8a35acfbc15ff81a39ae7d344fd709f28e8600b4aa8c65c6b64bfe7fe36bd19b",
                        "prev": "0x0000000000000000000000000000000000000000000000000000000000000000"
                    },
                    {
                        "current": "0x00000000000000000000000000000000000000000000000000000000000002ca",
                        "key": "0x8a35acfbc15ff81a39ae7d344fd709f28e8600b4aa8c65c6b64bfe7fe36bd19c",
                        "prev": "0x0000000000000000000000000000000000000000000000000000000000000000"
                    },
                    {
                        "current": "0x00000000000000000000000000000000000000000000000000000000000002c7",
                        "key": "0x8a35acfbc15ff81a39ae7d344fd709f28e8600b4aa8c65c6b64bfe7fe36bd19d",
                        "prev": "0x0000000000000000000000000000000000000000000000000000000000000000"
                    },
                    {
                        "current": "0x00000000000000000000000000000000000000000000000000000000000002c8",
                        "key": "0x8a35acfbc15ff81a39ae7d344fd709f28e8600b4aa8c65c6b64bfe7fe36bd19e",
                        "prev": "0x0000000000000000000000000000000000000000000000000000000000000000"
                    },
                    {
                        "current": "0x000000000000000000002d79883d20000000000000000000000197029be36701",
                        "key": "0x0000000000000000000000000000000000000000000000000000000000000002",
                        "prev": "0x0000000000000000000000000000000000000000000000000000000000000000"
                    },
                    {
                        "current": "0x0000000000000000000000000000000000000000000000000000000000000001",
                        "key": "0x6ba00d4ccf993029ffbaa5b03d97a8f30788c8ad2e281722243ed543cb284810",
                        "prev": "0x0000000000000000000000000000000000000000000000000000000000000000"
                    },
                    {
                        "current": "0x0000000000000000000000000000000000000000000000000000000000000003",
                        "key": "0x0725634fa984f3e0ba293c33a49dd598793172999a1f23a354c8516de11895c4",
                        "prev": "0x0000000000000000000000000000000000000000000000000000000000000000"
                    },
                    {
                        "current": "0x0000000000000000000000000000000000000000000000000000000000000005",
                        "key": "0x2b6bd0f312626f78f9a5428152620c7ad27beb153bf55002add86027216afd65",
                        "prev": "0x0000000000000000000000000000000000000000000000000000000000000000"
                    }
                ],
                "storageVariables": [
                    {
                        "name": "_status",
                        "type": "uint256",
                        "value": {
                            "current": "1",
                            "prev": "0",
                            "typeTag": 1
                        }
                    },
                    {
                        "name": "spotPrice",
                        "type": "uint128",
                        "value": {
                            "current": "447512437810945",
                            "prev": "0",
                            "typeTag": 1
                        }
                    },
                    {
                        "name": "delta",
                        "type": "uint128",
                        "value": {
                            "current": "50000000000000",
                            "prev": "0",
                            "typeTag": 1
                        }
                    },
                    {
                        "name": "_owner",
                        "type": "address",
                        "value": {
                            "current": "0x2abf33485edf704511dfa42dfb8afa71a0450a8e",
                            "prev": "0x0000000000000000000000000000000000000000",
                            "typeTag": 1
                        }
                    },
                    {
                        "name": "fee",
                        "type": "uint96",
                        "value": {
                            "current": "0",
                            "prev": "0",
                            "typeTag": 1
                        }
                    },
                    {
                        "name": "assetRecipient",
                        "type": "address payable",
                        "value": {
                            "current": "0x2abf33485edf704511dfa42dfb8afa71a0450a8e",
                            "prev": "0x0000000000000000000000000000000000000000",
                            "typeTag": 1
                        }
                    },
                    {
                        "name": "idSet",
                        "type": "struct EnumerableSet.UintSet",
                        "value": {
                            "fields": [
                                {
                                    "name": "_inner",
                                    "type": "struct EnumerableSet.Set",
                                    "value": {
                                        "fields": [
                                            {
                                                "name": "_values",
                                                "type": "bytes32[]",
                                                "value": {
                                                    "elemType": "bytes32",
                                                    "elems": [
                                                        {
                                                            "index": 0,
                                                            "value": {
                                                                "current": "0x00000000000000000000000000000000000000000000000000000000000002c6",
                                                                "prev": "0x0000000000000000000000000000000000000000000000000000000000000000",
                                                                "typeTag": 1
                                                            }
                                                        },
                                                        {
                                                            "index": 1,
                                                            "value": {
                                                                "current": "0x00000000000000000000000000000000000000000000000000000000000002ca",
                                                                "prev": "0x0000000000000000000000000000000000000000000000000000000000000000",
                                                                "typeTag": 1
                                                            }
                                                        },
                                                        {
                                                            "index": 2,
                                                            "value": {
                                                                "current": "0x00000000000000000000000000000000000000000000000000000000000002c7",
                                                                "prev": "0x0000000000000000000000000000000000000000000000000000000000000000",
                                                                "typeTag": 1
                                                            }
                                                        },
                                                        {
                                                            "index": 3,
                                                            "value": {
                                                                "current": "0x00000000000000000000000000000000000000000000000000000000000002c8",
                                                                "prev": "0x0000000000000000000000000000000000000000000000000000000000000000",
                                                                "typeTag": 1
                                                            }
                                                        },
                                                        {
                                                            "index": 4,
                                                            "value": {
                                                                "current": "0x00000000000000000000000000000000000000000000000000000000000002c9",
                                                                "prev": "0x0000000000000000000000000000000000000000000000000000000000000000",
                                                                "typeTag": 1
                                                            }
                                                        }
                                                    ],
                                                    "typeTag": 2
                                                }
                                            },
                                            {
                                                "name": "_indexes",
                                                "type": "mapping(bytes32 => uint256)",
                                                "value": {
                                                    "pairs": [
                                                        {
                                                            "key": "0x00000000000000000000000000000000000000000000000000000000000002c6",
                                                            "value": {
                                                                "current": "1",
                                                                "prev": "0",
                                                                "typeTag": 1
                                                            }
                                                        },
                                                        {
                                                            "key": "0x00000000000000000000000000000000000000000000000000000000000002c7",
                                                            "value": {
                                                                "current": "3",
                                                                "prev": "0",
                                                                "typeTag": 1
                                                            }
                                                        },
                                                        {
                                                            "key": "0x00000000000000000000000000000000000000000000000000000000000002c8",
                                                            "value": {
                                                                "current": "4",
                                                                "prev": "0",
                                                                "typeTag": 1
                                                            }
                                                        },
                                                        {
                                                            "key": "0x00000000000000000000000000000000000000000000000000000000000002c9",
                                                            "value": {
                                                                "current": "5",
                                                                "prev": "0",
                                                                "typeTag": 1
                                                            }
                                                        },
                                                        {
                                                            "key": "0x00000000000000000000000000000000000000000000000000000000000002ca",
                                                            "value": {
                                                                "current": "2",
                                                                "prev": "0",
                                                                "typeTag": 1
                                                            }
                                                        }
                                                    ],
                                                    "typeTag": 4
                                                }
                                            }
                                        ],
                                        "typeTag": 3
                                    }
                                }
                            ],
                            "typeTag": 3
                        }
                    }
                ]
            }
        ]
    }
}