{
    "balance_change": {
        "balanceChanges": [
            {
                "account": "0x96022557ed42728143eb77a4b42343cb4c47ab56",
                "assets": [
                    {
                        "address": "0x48c276e8d03813224bb1e55f953adb6d02fd3e02",
                        "amount": "39,398,083,848.102476081113675462",
                        "iconUrl": "",
                        "isERC1155": false,
                        "isERC721": false,
                        "sign": false,
                        "value": "12192.60523"
                    },
                    {
                        "address": "0x8e6cd950ad6ba651f6dd608dc70e5886b1aa6b24",
                        "amount": "1,022,000,000",
                        "iconUrl": "",
                        "isERC1155": false,
                        "isERC721": false,
                        "sign": true,
                        "value": "12057.4659"
                    }
                ]
            },
            {
                "account": "0xa5e9c917b4b821e4e0a5bbefce078ab6540d6b5e",
                "assets": [
                    {
                        "address": "0xc02aaa39b223fe8d0a0e5c4f27ead9083c756cc2",
                        "amount": "3.168409909656583087",
                        "iconUrl": "https://assets.blocksec.com/icon/f1cb2d02c471d545bbc7722daf3277fd852d98e63d118771af7047bd8256c516.png",
                        "isERC1155": false,
                        "isERC721": false,
                        "sign": true,
                        "value": "12192.60523"
                    },
                    {
                        "address": "0x8e6cd950ad6ba651f6dd608dc70e5886b1aa6b24",
                        "amount": "1,022,000,000",
                        "iconUrl": "",
                        "isERC1155": false,
                        "isERC721": false,
                        "sign": false,
                        "value": "12057.4659"
                    }
                ]
            },
            {
                "account": "0xdf60e6416fcf8c955fddf01148753a911f7a5905",
                "assets": [
                    {
                        "address": "0x48c276e8d03813224bb1e55f953adb6d02fd3e02",
                        "amount": "39,398,083,848.102476081113675462",
                        "iconUrl": "",
                        "isERC1155": false,
                        "isERC721": false,
                        "sign": true,
                        "value": "12192.60523"
                    },
                    {
                        "address": "0xc02aaa39b223fe8d0a0e5c4f27ead9083c756cc2",
                        "amount": "3.168409909656583087",
                        "iconUrl": "https://assets.blocksec.com/icon/f1cb2d02c471d545bbc7722daf3277fd852d98e63d118771af7047bd8256c516.png",
                        "isERC1155": false,
                        "isERC721": false,
                        "sign": false,
                        "value": "12192.60523"
                    }
                ]
            }
        ]
    },
    "profile": {
        "basic_info": {
            "baseFee": "74.847487212",
            "blockNumber": 13452070,
            "callData": "0x8803dbee0000000000000000000000000000000000000000034d60eb03961ca8be00000000000000000000000000000000000000000000007ff0471d04d72856bd758a3f00000000000000000000000000000000000000000000000000000000000000a000000000000000000000000096022557ed42728143eb77a4b42343cb4c47ab5600000000000000000000000000000000000000000000000000000000616f8c14000000000000000000000000000000000000000000000000000000000000000300000000000000000000000048c276e8d03813224bb1e55f953adb6d02fd3e02000000000000000000000000c02aaa39b223fe8d0a0e5c4f27ead9083c756cc20000000000000000000000008e6cd950ad6ba651f6dd608dc70e5886b1aa6b24",
            "debugEnable": true,
            "errorInfo": "",
            "eventCount": 8,
            "feeRecipient": "0xb7e390864a90b7b923c9f9310c6f98aafe43f707",
            "formatValue": "0",
            "gasLimit": 204106,
            "gasPrice": "83.235105616",
            "gasUsed": 162028,
            "intTxnCount": 11,
            "internalRevert": false,
            "internalRevertMessage": "",
            "isContractCreation": false,
            "isFlashloan": false,
            "maxFee": "",
            "nonce": 329,
            "overwritedBlockNumber": -1,
            "priorityFee": "",
            "receiver": "0x7a250d5630b4cf539739df2c5dacb4c659f2488d",
            "revertMessage": "",
            "sender": "0x96022557ed42728143eb77a4b42343cb4c47ab56",
            "simulationEnable": true,
            "sourceTxnHash": "0x9eadeb20e453ac26287c3eefed89196961643e8a15135e421f73cb8cc1f43222",
            "status": true,
            "timestamp": "2021-10-20T02:55:41Z",
            "transactionFee": "0.013486417692749248",
            "txnHash": "0x9eadeb20e453ac26287c3eefed89196961643e8a15135e421f73cb8cc1f43222",
            "txnIndex": 2,
            "type": 0,
            "value": "0"
        },
        "fund_flow": [
            {
                "amount": "39,398,083,848.102476081113675462",
                "from": "0x96022557ed42728143eb77a4b42343cb4c47ab56",
                "id": 1,
                "isERC1155": false,
                "isERC721": false,
                "isReverted": false,
                "order": 1,
                "to": "0xdf60e6416fcf8c955fddf01148753a911f7a5905",
                "token": "0x48c276e8d03813224bb1e55f953adb6d02fd3e02"
            },
            {
                "amount": "3.168409909656583087",
                "from": "0xdf60e6416fcf8c955fddf01148753a911f7a5905",
                "id": 2,
                "isERC1155": false,
                "isERC721": false,
                "isReverted": false,
                "order": 2,
                "to": "0xa5e9c917b4b821e4e0a5bbefce078ab6540d6b5e",
                "token": "0xc02aaa39b223fe8d0a0e5c4f27ead9083c756cc2"
            },
            {
                "amount": "1,022,000,000",
                "from": "0xa5e9c917b4b821e4e0a5bbefce078ab6540d6b5e",
                "id": 3,
                "isERC1155": false,
                "isERC721": false,
                "isReverted": false,
                "order": 3,
                "to": "0x96022557ed42728143eb77a4b42343cb4c47ab56",
                "token": "0x8e6cd950ad6ba651f6dd608dc70e5886b1aa6b24"
            }
        ],
        "token_infos": [
            {
                "address": "0x48c276e8d03813224bb1e55f953adb6d02fd3e02",
                "decimals": 18
            },
            {
                "address": "0x8e6cd950ad6ba651f6dd608dc70e5886b1aa6b24",
                "decimals": 18
            },
            {
                "address": "0xc02aaa39b223fe8d0a0e5c4f27ead9083c756cc2",
                "decimals": 18
            },
            {
                "address": "0xeeeeeeeeeeeeeeeeeeeeeeeeeeeeeeeeeeeeeeee",
                "decimals": 18
            }
        ]
    },
    "address_label": {
        "labels": [
            {
                "address": "0x7a250d5630b4cf539739df2c5dacb4c659f2488d",
                "label": "Uniswap V2: Router 2"
            },
            {
                "address": "0x8e6cd950ad6ba651f6dd608dc70e5886b1aa6b24",
                "label": "StarLink: STARL Token"
            },
            {
                "address": "0x0000000000000000000000000000000000000003",
                "label": "Precompiled"
            },
            {
                "address": "0x0000000000000000000000000000000000000004",
                "label": "Precompiled"
            },
            {
                "address": "0xeeeeeeeeeeeeeeeeeeeeeeeeeeeeeeeeeeeeeeee",
                "label": "Ether"
            },
            {
                "address": "0xc02aaa39b223fe8d0a0e5c4f27ead9083c756cc2",
                "label": "Wrapped Ether (WETH)"
            },
            {
                "address": "0x48c276e8d03813224bb1e55f953adb6d02fd3e02",
                "label": "Kuma Inu: KUMA Token"
            },
            {
                "address": "0xdf60e6416fcf8c955fddf01148753a911f7a5905",
                "label": "Uniswap V2: KUMA 3"
            },
            {
                "address": "0x0000000000000000000000000000000000000001",
                "label": "Precompiled"
            },
            {
                "address": "0x0000000000000000000000000000000000000002",
                "label": "Precompiled"
            },
            {
                "address": "0xa5e9c917b4b821e4e0a5bbefce078ab6540d6b5e",
                "label": "Uniswap V2: STARL"
            }
        ]
    },
    "trace": {
        "accountLabels": null,
        "dataMap": {
            "-1": {
                "invocation": {
                    "address": "0x96022557ed42728143eb77a4b42343cb4c47ab56",
                    "callData": "",
                    "decodedMethod": null,
                    "errorInfo": "",
                    "fromAddress": "",
                    "gasUsed": 0,
                    "id": -1,
                    "methodDecoded": false,
                    "operation": "",
                    "output": "",
                    "revert": false,
                    "revertMessage": "",
                    "selector": "",
                    "status": false,
                    "value": ""
                },
                "nodeType": 0
            },
            "0": {
                "invocation": {
                    "address": "0x7a250d5630b4cf539739df2c5dacb4c659f2488d",
                    "callData": "0x0000000000000000000000000000000000000000034d60eb03961ca8be00000000000000000000000000000000000000000000007ff0471d04d72856bd758a3f00000000000000000000000000000000000000000000000000000000000000a000000000000000000000000096022557ed42728143eb77a4b42343cb4c47ab5600000000000000000000000000000000000000000000000000000000616f8c14000000000000000000000000000000000000000000000000000000000000000300000000000000000000000048c276e8d03813224bb1e55f953adb6d02fd3e02000000000000000000000000c02aaa39b223fe8d0a0e5c4f27ead9083c756cc20000000000000000000000008e6cd950ad6ba651f6dd608dc70e5886b1aa6b24",
                    "decodedMethod": {
                        "callParams": [
                            {
                                "name": "amountOut",
                                "type": "uint256",
                                "value": "1,022,000,000,000,000,000,000,000,000"
                            },
                            {
                                "name": "amountInMax",
                                "type": "uint256",
                                "value": "39,595,074,267,342,988,461,519,243,839"
                            },
                            {
                                "name": "path",
                                "type": "address[]",
                                "value": [
                                    "0x48c276e8d03813224bb1e55f953adb6d02fd3e02",
                                    "0xc02aaa39b223fe8d0a0e5c4f27ead9083c756cc2",
                                    "0x8e6cd950ad6ba651f6dd608dc70e5886b1aa6b24"
                                ]
                            },
                            {
                                "name": "to",
                                "type": "address",
                                "value": "0x96022557ed42728143eb77a4b42343cb4c47ab56"
                            },
                            {
                                "name": "deadline",
                                "type": "uint256",
                                "value": "1,634,700,308"
                            }
                        ],
                        "constructorArguments": "",
                        "name": "swapTokensForExactTokens",
                        "returnParams": [
                            {
                                "name": "amounts",
                                "type": "uint256[]",
                                "value": [
                                    "39,398,083,848,102,476,081,113,675,462",
                                    "3,168,409,909,656,583,087",
                                    "1,022,000,000,000,000,000,000,000,000"
                                ]
                            }
                        ],
                        "signature": "swapTokensForExactTokens(uint256,uint256,address[],address,uint256)"
                    },
                    "errorInfo": "",
                    "fromAddress": "0x96022557ed42728143eb77a4b42343cb4c47ab56",
                    "gasUsed": 162028,
                    "id": 0,
                    "methodDecoded": true,
                    "operation": "CALL",
                    "output": "0x0000000000000000000000000000000000000000000000000000000000000020000000000000000000000000000000000000000000000000000000000000000300000000000000000000000000000000000000007f4d54c4fe72be6d3be136c60000000000000000000000000000000000000000000000002bf874069fe87baf0000000000000000000000000000000000000000034d60eb03961ca8be000000",
                    "revert": false,
                    "revertMessage": "",
                    "selector": "0x8803dbee",
                    "status": true,
                    "value": "0"
                },
                "nodeType": 0
            },
            "1": {
                "invocation": {
                    "address": "0xa5e9c917b4b821e4e0a5bbefce078ab6540d6b5e",
                    "callData": "0x",
                    "decodedMethod": {
                        "callParams": [],
                        "constructorArguments": "",
                        "name": "getReserves",
                        "returnParams": [
                            {
                                "name": "_reserve0",
                                "type": "uint112",
                                "value": "397,335,964,288,060,039,018,046,093,154"
                            },
                            {
                                "name": "_reserve1",
                                "type": "uint112",
                                "value": "1,224,968,724,569,684,814,314"
                            },
                            {
                                "name": "_blockTimestampLast",
                                "type": "uint32",
                                "value": "1,634,697,137"
                            }
                        ],
                        "signature": "getReserves()"
                    },
                    "errorInfo": "",
                    "fromAddress": "0x7a250d5630b4cf539739df2c5dacb4c659f2488d",
                    "gasUsed": 2504,
                    "id": 1,
                    "methodDecoded": true,
                    "operation": "STATICCALL",
                    "output": "0x000000000000000000000000000000000000000503dc9b38630a3dcb514cf76200000000000000000000000000000000000000000000004267db24d56b61a9ea00000000000000000000000000000000000000000000000000000000616f7fb1",
                    "revert": false,
                    "revertMessage": "",
                    "selector": "0x0902f1ac",
                    "status": true,
                    "value": "0"
                },
                "nodeType": 0
            },
            "10": {
                "invocation": {
                    "address": "0xc02aaa39b223fe8d0a0e5c4f27ead9083c756cc2",
                    "callData": "0x000000000000000000000000df60e6416fcf8c955fddf01148753a911f7a5905",
                    "decodedMethod": {
                        "callParams": [
                            {
                                "name": "",
                                "type": "address",
                                "value": "0xdf60e6416fcf8c955fddf01148753a911f7a5905"
                            }
                        ],
                        "constructorArguments": "",
                        "name": "balanceOf",
                        "returnParams": [
                            {
                                "decimalAvailable": true,
                                "name": "",
                                "type": "uint256",
                                "value": "1,375,035,403,039,327,703,809"
                            }
                        ],
                        "signature": "balanceOf(address)"
                    },
                    "errorInfo": "",
                    "fromAddress": "0xdf60e6416fcf8c955fddf01148753a911f7a5905",
                    "gasUsed": 534,
                    "id": 10,
                    "methodDecoded": true,
                    "operation": "STATICCALL",
                    "output": "0x00000000000000000000000000000000000000000000004a8a7315d08134d301",
                    "revert": false,
                    "revertMessage": "",
                    "selector": "0x70a08231",
                    "status": true,
                    "value": "0"
                },
                "nodeType": 0
            },
            "11": {
                "event": {
                    "contract": "0xdf60e6416fcf8c955fddf01148753a911f7a5905",
                    "decodedLog": {
                        "name": "Sync",
                        "params": [
                            {
                                "name": "reserve0",
                                "type": "uint112",
                                "value": "17,086,194,541,001,531,505,123,683,152,998"
                            },
                            {
                                "name": "reserve1",
                                "type": "uint112",
                                "value": "1,375,035,403,039,327,703,809"
                            }
                        ],
                        "signature": "Sync(uint112,uint112)"
                    },
                    "id": 11,
                    "logData": "0x00000000000000000000000000000000000000d7a878dddb30fb680b5ef3346600000000000000000000000000000000000000000000004a8a7315d08134d301",
                    "logDecoded": true,
                    "operation": "EVENT",
                    "revert": false,
                    "status": true,
                    "topics": [
                        "0x1c411e9a96e071241c2f21f7726b17ae89e3cab4c78be50e062b03a9fffbbad1"
                    ]
                },
                "nodeType": 1
            },
            "12": {
                "event": {
                    "contract": "0xdf60e6416fcf8c955fddf01148753a911f7a5905",
                    "decodedLog": {
                        "name": "Swap",
                        "params": [
                            {
                                "name": "sender",
                                "type": "address",
                                "value": "0x7a250d5630b4cf539739df2c5dacb4c659f2488d"
                            },
                            {
                                "name": "to",
                                "type": "address",
                                "value": "0xa5e9c917b4b821e4e0a5bbefce078ab6540d6b5e"
                            },
                            {
                                "name": "amount0In",
                                "type": "uint256",
                                "value": "39,398,083,848,102,476,081,113,675,462"
                            },
                            {
                                "name": "amount1In",
                                "type": "uint256",
                                "value": "0"
                            },
                            {
                                "name": "amount0Out",
                                "type": "uint256",
                                "value": "0"
                            },
                            {
                                "name": "amount1Out",
                                "type": "uint256",
                                "value": "3,168,409,909,656,583,087"
                            }
                        ],
                        "signature": "Swap(address,uint256,uint256,uint256,uint256,address)"
                    },
                    "id": 12,
                    "logData": "0x00000000000000000000000000000000000000007f4d54c4fe72be6d3be136c6000000000000000000000000000000000000000000000000000000000000000000000000000000000000000000000000000000000000000000000000000000000000000000000000000000000000000000000000000000002bf874069fe87baf",
                    "logDecoded": true,
                    "operation": "EVENT",
                    "revert": false,
                    "status": true,
                    "topics": [
                        "0xd78ad95fa46c994b6551d0da85fc275fe613ce37657fb8d5e3d130840159d822",
                        "0x0000000000000000000000007a250d5630b4cf539739df2c5dacb4c659f2488d",
                        "0x000000000000000000000000a5e9c917b4b821e4e0a5bbefce078ab6540d6b5e"
                    ]
                },
                "nodeType": 1
            },
            "13": {
                "invocation": {
                    "address": "0xa5e9c917b4b821e4e0a5bbefce078ab6540d6b5e",
                    "callData": "0x0000000000000000000000000000000000000000034d60eb03961ca8be000000000000000000000000000000000000000000000000000000000000000000000000000000000000000000000096022557ed42728143eb77a4b42343cb4c47ab5600000000000000000000000000000000000000000000000000000000000000800000000000000000000000000000000000000000000000000000000000000000",
                    "decodedMethod": {
                        "callParams": [
                            {
                                "name": "amount0Out",
                                "type": "uint256",
                                "value": "1,022,000,000,000,000,000,000,000,000"
                            },
                            {
                                "name": "amount1Out",
                                "type": "uint256",
                                "value": "0"
                            },
                            {
                                "name": "to",
                                "type": "address",
                                "value": "0x96022557ed42728143eb77a4b42343cb4c47ab56"
                            },
                            {
                                "name": "data",
                                "type": "bytes",
                                "value": "0x"
                            }
                        ],
                        "constructorArguments": "",
                        "name": "swap",
                        "returnParams": [],
                        "signature": "swap(uint256,uint256,address,bytes)"
                    },
                    "errorInfo": "",
                    "fromAddress": "0x7a250d5630b4cf539739df2c5dacb4c659f2488d",
                    "gasUsed": 49011,
                    "id": 13,
                    "methodDecoded": true,
                    "operation": "CALL",
                    "output": "",
                    "revert": false,
                    "revertMessage": "",
                    "selector": "0x022c0d9f",
                    "status": true,
                    "value": "0"
                },
                "nodeType": 0
            },
            "14": {
                "invocation": {
                    "address": "0x8e6cd950ad6ba651f6dd608dc70e5886b1aa6b24",
                    "callData": "0x00000000000000000000000096022557ed42728143eb77a4b42343cb4c47ab560000000000000000000000000000000000000000034d60eb03961ca8be000000",
                    "decodedMethod": {
                        "callParams": [
                            {
                                "name": "recipient",
                                "type": "address",
                                "value": "0x96022557ed42728143eb77a4b42343cb4c47ab56"
                            },
                            {
                                "decimalAvailable": true,
                                "name": "amount",
                                "type": "uint256",
                                "value": "1,022,000,000,000,000,000,000,000,000"
                            }
                        ],
                        "constructorArguments": "",
                        "name": "transfer",
                        "returnParams": [
                            {
                                "name": "",
                                "type": "bool",
                                "value": true
                            }
                        ],
                        "signature": "transfer(address,uint256)"
                    },
                    "errorInfo": "",
                    "fromAddress": "0xa5e9c917b4b821e4e0a5bbefce078ab6540d6b5e",
                    "gasUsed": 13791,
                    "id": 14,
                    "methodDecoded": true,
                    "operation": "CALL",
                    "output": "0x0000000000000000000000000000000000000000000000000000000000000001",
                    "revert": false,
                    "revertMessage": "",
                    "selector": "0xa9059cbb",
                    "status": true,
                    "value": "0"
                },
                "nodeType": 0
            },
            "15": {
                "event": {
                    "contract": "0x8e6cd950ad6ba651f6dd608dc70e5886b1aa6b24",
                    "decodedLog": {
                        "name": "Transfer",
                        "params": [
                            {
                                "name": "from",
                                "type": "address",
                                "value": "0xa5e9c917b4b821e4e0a5bbefce078ab6540d6b5e"
                            },
                            {
                                "name": "to",
                                "type": "address",
                                "value": "0x96022557ed42728143eb77a4b42343cb4c47ab56"
                            },
                            {
                                "decimalAvailable": true,
                                "name": "value",
                                "type": "uint256",
                                "value": "1,022,000,000,000,000,000,000,000,000"
                            }
                        ],
                        "signature": "Transfer(address,address,uint256)"
                    },
                    "id": 15,
                    "logData": "0x0000000000000000000000000000000000000000034d60eb03961ca8be000000",
                    "logDecoded": true,
                    "operation": "EVENT",
                    "revert": false,
                    "status": true,
                    "topics": [
                        "0xddf252ad1be2c89b69c2b068fc378daa952ba7f163c4a11628f55a4df523b3ef",
                        "0x000000000000000000000000a5e9c917b4b821e4e0a5bbefce078ab6540d6b5e",
                        "0x00000000000000000000000096022557ed42728143eb77a4b42343cb4c47ab56"
                    ]
                },
                "nodeType": 1
            },
            "16": {
                "invocation": {
                    "address": "0x8e6cd950ad6ba651f6dd608dc70e5886b1aa6b24",
                    "callData": "0x000000000000000000000000a5e9c917b4b821e4e0a5bbefce078ab6540d6b5e",
                    "decodedMethod": {
                        "callParams": [
                            {
                                "name": "account",
                                "type": "address",
                                "value": "0xa5e9c917b4b821e4e0a5bbefce078ab6540d6b5e"
                            }
                        ],
                        "constructorArguments": "",
                        "name": "balanceOf",
                        "returnParams": [
                            {
                                "decimalAvailable": true,
                                "name": "",
                                "type": "uint256",
                                "value": "396,313,964,288,060,039,018,046,093,154"
                            }
                        ],
                        "signature": "balanceOf(address)"
                    },
                    "errorInfo": "",
                    "fromAddress": "0xa5e9c917b4b821e4e0a5bbefce078ab6540d6b5e",
                    "gasUsed": 863,
                    "id": 16,
                    "methodDecoded": true,
                    "operation": "STATICCALL",
                    "output": "0x0000000000000000000000000000000000000005008f3a4d5f742122934cf762",
                    "revert": false,
                    "revertMessage": "",
                    "selector": "0x70a08231",
                    "status": true,
                    "value": "0"
                },
                "nodeType": 0
            },
            "17": {
                "invocation": {
                    "address": "0xc02aaa39b223fe8d0a0e5c4f27ead9083c756cc2",
                    "callData": "0x000000000000000000000000a5e9c917b4b821e4e0a5bbefce078ab6540d6b5e",
                    "decodedMethod": {
                        "callParams": [
                            {
                                "name": "",
                                "type": "address",
                                "value": "0xa5e9c917b4b821e4e0a5bbefce078ab6540d6b5e"
                            }
                        ],
                        "constructorArguments": "",
                        "name": "balanceOf",
                        "returnParams": [
                            {
                                "decimalAvailable": true,
                                "name": "",
                                "type": "uint256",
                                "value": "1,228,137,134,479,341,397,401"
                            }
                        ],
                        "signature": "balanceOf(address)"
                    },
                    "errorInfo": "",
                    "fromAddress": "0xa5e9c917b4b821e4e0a5bbefce078ab6540d6b5e",
                    "gasUsed": 534,
                    "id": 17,
                    "methodDecoded": true,
                    "operation": "STATICCALL",
                    "output": "0x00000000000000000000000000000000000000000000004293d398dc0b4a2599",
                    "revert": false,
                    "revertMessage": "",
                    "selector": "0x70a08231",
                    "status": true,
                    "value": "0"
                },
                "nodeType": 0
            },
            "18": {
                "event": {
                    "contract": "0xa5e9c917b4b821e4e0a5bbefce078ab6540d6b5e",
                    "decodedLog": {
                        "name": "Sync",
                        "params": [
                            {
                                "name": "reserve0",
                                "type": "uint112",
                                "value": "396,313,964,288,060,039,018,046,093,154"
                            },
                            {
                                "name": "reserve1",
                                "type": "uint112",
                                "value": "1,228,137,134,479,341,397,401"
                            }
                        ],
                        "signature": "Sync(uint112,uint112)"
                    },
                    "id": 18,
                    "logData": "0x0000000000000000000000000000000000000005008f3a4d5f742122934cf76200000000000000000000000000000000000000000000004293d398dc0b4a2599",
                    "logDecoded": true,
                    "operation": "EVENT",
                    "revert": false,
                    "status": true,
                    "topics": [
                        "0x1c411e9a96e071241c2f21f7726b17ae89e3cab4c78be50e062b03a9fffbbad1"
                    ]
                },
                "nodeType": 1
            },
            "19": {
                "event": {
                    "contract": "0xa5e9c917b4b821e4e0a5bbefce078ab6540d6b5e",
                    "decodedLog": {
                        "name": "Swap",
                        "params": [
                            {
                                "name": "sender",
                                "type": "address",
                                "value": "0x7a250d5630b4cf539739df2c5dacb4c659f2488d"
                            },
                            {
                                "name": "to",
                                "type": "address",
                                "value": "0x96022557ed42728143eb77a4b42343cb4c47ab56"
                            },
                            {
                                "name": "amount0In",
                                "type": "uint256",
                                "value": "0"
                            },
                            {
                                "name": "amount1In",
                                "type": "uint256",
                                "value": "3,168,409,909,656,583,087"
                            },
                            {
                                "name": "amount0Out",
                                "type": "uint256",
                                "value": "1,022,000,000,000,000,000,000,000,000"
                            },
                            {
                                "name": "amount1Out",
                                "type": "uint256",
                                "value": "0"
                            }
                        ],
                        "signature": "Swap(address,uint256,uint256,uint256,uint256,address)"
                    },
                    "id": 19,
                    "logData": "0x00000000000000000000000000000000000000000000000000000000000000000000000000000000000000000000000000000000000000002bf874069fe87baf0000000000000000000000000000000000000000034d60eb03961ca8be0000000000000000000000000000000000000000000000000000000000000000000000",
                    "logDecoded": true,
                    "operation": "EVENT",
                    "revert": false,
                    "status": true,
                    "topics": [
                        "0xd78ad95fa46c994b6551d0da85fc275fe613ce37657fb8d5e3d130840159d822",
                        "0x0000000000000000000000007a250d5630b4cf539739df2c5dacb4c659f2488d",
                        "0x00000000000000000000000096022557ed42728143eb77a4b42343cb4c47ab56"
                    ]
                },
                "nodeType": 1
            },
            "2": {
                "invocation": {
                    "address": "0xdf60e6416fcf8c955fddf01148753a911f7a5905",
                    "callData": "0x",
                    "decodedMethod": {
                        "callParams": [],
                        "constructorArguments": "",
                        "name": "getReserves",
                        "returnParams": [
                            {
                                "name": "_reserve0",
                                "type": "uint112",
                                "value": "17,046,796,457,153,429,029,042,569,477,536"
                            },
                            {
                                "name": "_reserve1",
                                "type": "uint112",
                                "value": "1,378,203,812,948,984,286,896"
                            },
                            {
                                "name": "_blockTimestampLast",
                                "type": "uint32",
                                "value": "1,634,698,508"
                            }
                        ],
                        "signature": "getReserves()"
                    },
                    "errorInfo": "",
                    "fromAddress": "0x7a250d5630b4cf539739df2c5dacb4c659f2488d",
                    "gasUsed": 2504,
                    "id": 2,
                    "methodDecoded": true,
                    "operation": "STATICCALL",
                    "output": "0x00000000000000000000000000000000000000d7292b89163288a99e2311fda000000000000000000000000000000000000000000000004ab66b89d7211d4eb000000000000000000000000000000000000000000000000000000000616f850c",
                    "revert": false,
                    "revertMessage": "",
                    "selector": "0x0902f1ac",
                    "status": true,
                    "value": "0"
                },
                "nodeType": 0
            },
            "3": {
                "invocation": {
                    "address": "0x48c276e8d03813224bb1e55f953adb6d02fd3e02",
                    "callData": "0x00000000000000000000000096022557ed42728143eb77a4b42343cb4c47ab56000000000000000000000000df60e6416fcf8c955fddf01148753a911f7a590500000000000000000000000000000000000000007f4d54c4fe72be6d3be136c6",
                    "decodedMethod": {
                        "callParams": [
                            {
                                "name": "sender",
                                "type": "address",
                                "value": "0x96022557ed42728143eb77a4b42343cb4c47ab56"
                            },
                            {
                                "name": "recipient",
                                "type": "address",
                                "value": "0xdf60e6416fcf8c955fddf01148753a911f7a5905"
                            },
                            {
                                "decimalAvailable": true,
                                "name": "amount",
                                "type": "uint256",
                                "value": "39,398,083,848,102,476,081,113,675,462"
                            }
                        ],
                        "constructorArguments": "",
                        "name": "transferFrom",
                        "returnParams": [
                            {
                                "name": "",
                                "type": "bool",
                                "value": true
                            }
                        ],
                        "signature": "transferFrom(address,address,uint256)"
                    },
                    "errorInfo": "",
                    "fromAddress": "0x7a250d5630b4cf539739df2c5dacb4c659f2488d",
                    "gasUsed": 21648,
                    "id": 3,
                    "methodDecoded": true,
                    "operation": "CALL",
                    "output": "0x0000000000000000000000000000000000000000000000000000000000000001",
                    "revert": false,
                    "revertMessage": "",
                    "selector": "0x23b872dd",
                    "status": true,
                    "value": "0"
                },
                "nodeType": 0
            },
            "4": {
                "event": {
                    "contract": "0x48c276e8d03813224bb1e55f953adb6d02fd3e02",
                    "decodedLog": {
                        "name": "Transfer",
                        "params": [
                            {
                                "name": "from",
                                "type": "address",
                                "value": "0x96022557ed42728143eb77a4b42343cb4c47ab56"
                            },
                            {
                                "name": "to",
                                "type": "address",
                                "value": "0xdf60e6416fcf8c955fddf01148753a911f7a5905"
                            },
                            {
                                "decimalAvailable": true,
                                "name": "value",
                                "type": "uint256",
                                "value": "39,398,083,848,102,476,081,113,675,462"
                            }
                        ],
                        "signature": "Transfer(address,address,uint256)"
                    },
                    "id": 4,
                    "logData": "0x00000000000000000000000000000000000000007f4d54c4fe72be6d3be136c6",
                    "logDecoded": true,
                    "operation": "EVENT",
                    "revert": false,
                    "status": true,
                    "topics": [
                        "0xddf252ad1be2c89b69c2b068fc378daa952ba7f163c4a11628f55a4df523b3ef",
                        "0x00000000000000000000000096022557ed42728143eb77a4b42343cb4c47ab56",
                        "0x000000000000000000000000df60e6416fcf8c955fddf01148753a911f7a5905"
                    ]
                },
                "nodeType": 1
            },
            "5": {
                "event": {
                    "contract": "0x48c276e8d03813224bb1e55f953adb6d02fd3e02",
                    "decodedLog": {
                        "name": "Approval",
                        "params": [
                            {
                                "name": "owner",
                                "type": "address",
                                "value": "0x96022557ed42728143eb77a4b42343cb4c47ab56"
                            },
                            {
                                "name": "spender",
                                "type": "address",
                                "value": "0x7a250d5630b4cf539739df2c5dacb4c659f2488d"
                            },
                            {
                                "decimalAvailable": true,
                                "name": "value",
                                "type": "uint256",
                                "value": "115,792,089,237,316,195,423,570,985,008,687,907,853,269,984,665,536,739,097,465,780,540,779,587,928,428"
                            }
                        ],
                        "signature": "Approval(address,address,uint256)"
                    },
                    "id": 5,
                    "logData": "0xfffffffffffffffffffffffffffffffffffffffeb0860558b71b4bbe464f816c",
                    "logDecoded": true,
                    "operation": "EVENT",
                    "revert": false,
                    "status": true,
                    "topics": [
                        "0x8c5be1e5ebec7d5bd14f71427d1e84f3dd0314c0f7b2291e5b200ac8c7c3b925",
                        "0x00000000000000000000000096022557ed42728143eb77a4b42343cb4c47ab56",
                        "0x0000000000000000000000007a250d5630b4cf539739df2c5dacb4c659f2488d"
                    ]
                },
                "nodeType": 1
            },
            "6": {
                "invocation": {
                    "address": "0xdf60e6416fcf8c955fddf01148753a911f7a5905",
                    "callData": "0x00000000000000000000000000000000000000000000000000000000000000000000000000000000000000000000000000000000000000002bf874069fe87baf000000000000000000000000a5e9c917b4b821e4e0a5bbefce078ab6540d6b5e00000000000000000000000000000000000000000000000000000000000000800000000000000000000000000000000000000000000000000000000000000000",
                    "decodedMethod": {
                        "callParams": [
                            {
                                "name": "amount0Out",
                                "type": "uint256",
                                "value": "0"
                            },
                            {
                                "name": "amount1Out",
                                "type": "uint256",
                                "value": "3,168,409,909,656,583,087"
                            },
                            {
                                "name": "to",
                                "type": "address",
                                "value": "0xa5e9c917b4b821e4e0a5bbefce078ab6540d6b5e"
                            },
                            {
                                "name": "data",
                                "type": "bytes",
                                "value": "0x"
                            }
                        ],
                        "constructorArguments": "",
                        "name": "swap",
                        "returnParams": [],
                        "signature": "swap(uint256,uint256,address,bytes)"
                    },
                    "errorInfo": "",
                    "fromAddress": "0x7a250d5630b4cf539739df2c5dacb4c659f2488d",
                    "gasUsed": 48149,
                    "id": 6,
                    "methodDecoded": true,
                    "operation": "CALL",
                    "output": "",
                    "revert": false,
                    "revertMessage": "",
                    "selector": "0x022c0d9f",
                    "status": true,
                    "value": "0"
                },
                "nodeType": 0
            },
            "7": {
                "invocation": {
                    "address": "0xc02aaa39b223fe8d0a0e5c4f27ead9083c756cc2",
                    "callData": "0x000000000000000000000000a5e9c917b4b821e4e0a5bbefce078ab6540d6b5e0000000000000000000000000000000000000000000000002bf874069fe87baf",
                    "decodedMethod": {
                        "callParams": [
                            {
                                "name": "dst",
                                "type": "address",
                                "value": "0xa5e9c917b4b821e4e0a5bbefce078ab6540d6b5e"
                            },
                            {
                                "decimalAvailable": true,
                                "name": "wad",
                                "type": "uint256",
                                "value": "3,168,409,909,656,583,087"
                            }
                        ],
                        "constructorArguments": "",
                        "name": "transfer",
                        "returnParams": [
                            {
                                "name": "",
                                "type": "bool",
                                "value": true
                            }
                        ],
                        "signature": "transfer(address,uint256)"
                    },
                    "errorInfo": "",
                    "fromAddress": "0xdf60e6416fcf8c955fddf01148753a911f7a5905",
                    "gasUsed": 12862,
                    "id": 7,
                    "methodDecoded": true,
                    "operation": "CALL",
                    "output": "0x0000000000000000000000000000000000000000000000000000000000000001",
                    "revert": false,
                    "revertMessage": "",
                    "selector": "0xa9059cbb",
                    "status": true,
                    "value": "0"
                },
                "nodeType": 0
            },
            "8": {
                "event": {
                    "contract": "0xc02aaa39b223fe8d0a0e5c4f27ead9083c756cc2",
                    "decodedLog": {
                        "name": "Transfer",
                        "params": [
                            {
                                "name": "src",
                                "type": "address",
                                "value": "0xdf60e6416fcf8c955fddf01148753a911f7a5905"
                            },
                            {
                                "name": "dst",
                                "type": "address",
                                "value": "0xa5e9c917b4b821e4e0a5bbefce078ab6540d6b5e"
                            },
                            {
                                "decimalAvailable": true,
                                "name": "wad",
                                "type": "uint256",
                                "value": "3,168,409,909,656,583,087"
                            }
                        ],
                        "signature": "Transfer(address,address,uint256)"
                    },
                    "id": 8,
                    "logData": "0x0000000000000000000000000000000000000000000000002bf874069fe87baf",
                    "logDecoded": true,
                    "operation": "EVENT",
                    "revert": false,
                    "status": true,
                    "topics": [
                        "0xddf252ad1be2c89b69c2b068fc378daa952ba7f163c4a11628f55a4df523b3ef",
                        "0x000000000000000000000000df60e6416fcf8c955fddf01148753a911f7a5905",
                        "0x000000000000000000000000a5e9c917b4b821e4e0a5bbefce078ab6540d6b5e"
                    ]
                },
                "nodeType": 1
            },
            "9": {
                "invocation": {
                    "address": "0x48c276e8d03813224bb1e55f953adb6d02fd3e02",
                    "callData": "0x000000000000000000000000df60e6416fcf8c955fddf01148753a911f7a5905",
                    "decodedMethod": {
                        "callParams": [
                            {
                                "name": "account",
                                "type": "address",
                                "value": "0xdf60e6416fcf8c955fddf01148753a911f7a5905"
                            }
                        ],
                        "constructorArguments": "",
                        "name": "balanceOf",
                        "returnParams": [
                            {
                                "decimalAvailable": true,
                                "name": "",
                                "type": "uint256",
                                "value": "17,086,194,541,001,531,505,123,683,152,998"
                            }
                        ],
                        "signature": "balanceOf(address)"
                    },
                    "errorInfo": "",
                    "fromAddress": "0xdf60e6416fcf8c955fddf01148753a911f7a5905",
                    "gasUsed": 930,
                    "id": 9,
                    "methodDecoded": true,
                    "operation": "STATICCALL",
                    "output": "0x00000000000000000000000000000000000000d7a878dddb30fb680b5ef33466",
                    "revert": false,
                    "revertMessage": "",
                    "selector": "0x70a08231",
                    "status": true,
                    "value": "0"
                },
                "nodeType": 0
            }
        },
        "gasFlame": [
            {
                "children": [
                    {
                        "children": [
                            {
                                "children": [],
                                "depth": 0,
                                "name": "Initial Gas",
                                "value": 23500
                            },
                            {
                                "children": [
                                    {
                                        "children": [],
                                        "depth": 1,
                                        "name": "getReserves",
                                        "value": 2504
                                    },
                                    {
                                        "children": [],
                                        "depth": 1,
                                        "name": "getReserves",
                                        "value": 2504
                                    },
                                    {
                                        "children": [],
                                        "depth": 1,
                                        "name": "transferFrom",
                                        "value": 21648
                                    },
                                    {
                                        "children": [
                                            {
                                                "children": [],
                                                "depth": 2,
                                                "name": "transfer",
                                                "value": 12862
                                            },
                                            {
                                                "children": [],
                                                "depth": 2,
                                                "name": "balanceOf",
                                                "value": 930
                                            },
                                            {
                                                "children": [],
                                                "depth": 2,
                                                "name": "balanceOf",
                                                "value": 534
                                            }
                                        ],
                                        "depth": 1,
                                        "name": "swap",
                                        "value": 48149
                                    },
                                    {
                                        "children": [
                                            {
                                                "children": [],
                                                "depth": 2,
                                                "name": "transfer",
                                                "value": 13791
                                            },
                                            {
                                                "children": [],
                                                "depth": 2,
                                                "name": "balanceOf",
                                                "value": 863
                                            },
                                            {
                                                "children": [],
                                                "depth": 2,
                                                "name": "balanceOf",
                                                "value": 534
                                            }
                                        ],
                                        "depth": 1,
                                        "name": "swap",
                                        "value": 49011
                                    }
                                ],
                                "depth": 0,
                                "name": "Executed Gas",
                                "value": 144128
                            }
                        ],
                        "depth": -1,
                        "name": "Actual Gas Used",
                        "value": 162028
                    },
                    {
                        "children": [],
                        "depth": -1,
                        "name": "Refunded Gas",
                        "value": 5600
                    }
                ],
                "depth": -2,
                "name": "Total Gas",
                "value": 167628
            }
        ],
        "isConfirmed": true,
        "mainTrace": [
            {
                "children": [
                    {
                        "children": [
                            {
                                "children": [],
                                "depth": 1,
                                "id": 1,
                                "order": 1
                            },
                            {
                                "children": [],
                                "depth": 1,
                                "id": 2,
                                "order": 2
                            },
                            {
                                "children": [
                                    {
                                        "children": [],
                                        "depth": 2,
                                        "id": 4,
                                        "order": 4
                                    },
                                    {
                                        "children": [],
                                        "depth": 2,
                                        "id": 5,
                                        "order": 5
                                    }
                                ],
                                "depth": 1,
                                "id": 3,
                                "order": 3
                            },
                            {
                                "children": [
                                    {
                                        "children": [
                                            {
                                                "children": [],
                                                "depth": 3,
                                                "id": 8,
                                                "order": 8
                                            }
                                        ],
                                        "depth": 2,
                                        "id": 7,
                                        "order": 7
                                    },
                                    {
                                        "children": [],
                                        "depth": 2,
                                        "id": 9,
                                        "order": 9
                                    },
                                    {
                                        "children": [],
                                        "depth": 2,
                                        "id": 10,
                                        "order": 10
                                    },
                                    {
                                        "children": [],
                                        "depth": 2,
                                        "id": 11,
                                        "order": 11
                                    },
                                    {
                                        "children": [],
                                        "depth": 2,
                                        "id": 12,
                                        "order": 12
                                    }
                                ],
                                "depth": 1,
                                "id": 6,
                                "order": 6
                            },
                            {
                                "children": [
                                    {
                                        "children": [
                                            {
                                                "children": [],
                                                "depth": 3,
                                                "id": 15,
                                                "order": 15
                                            }
                                        ],
                                        "depth": 2,
                                        "id": 14,
                                        "order": 14
                                    },
                                    {
                                        "children": [],
                                        "depth": 2,
                                        "id": 16,
                                        "order": 16
                                    },
                                    {
                                        "children": [],
                                        "depth": 2,
                                        "id": 17,
                                        "order": 17
                                    },
                                    {
                                        "children": [],
                                        "depth": 2,
                                        "id": 18,
                                        "order": 18
                                    },
                                    {
                                        "children": [],
                                        "depth": 2,
                                        "id": 19,
                                        "order": 19
                                    }
                                ],
                                "depth": 1,
                                "id": 13,
                                "order": 13
                            }
                        ],
                        "depth": 0,
                        "id": 0,
                        "order": 0
                    }
                ],
                "depth": -1,
                "id": -1,
                "order": -1
            }
        ],
        "mainTraceNodeCount": 20,
        "parentIdMap": {
            "0": -1,
            "1": 0,
            "10": 6,
            "11": 6,
            "12": 6,
            "13": 0,
            "14": 13,
            "15": 14,
            "16": 13,
            "17": 13,
            "18": 13,
            "19": 13,
            "2": 0,
            "3": 0,
            "4": 3,
            "5": 3,
            "6": 0,
            "7": 6,
            "8": 7,
            "9": 6
        },
        "tidyTrace": [
            {
                "children": [
                    {
                        "children": [
                            {
                                "children": [
                                    {
                                        "children": [],
                                        "depth": 2,
                                        "id": 4,
                                        "order": 4
                                    },
                                    {
                                        "children": [],
                                        "depth": 2,
                                        "id": 5,
                                        "order": 5
                                    }
                                ],
                                "depth": 1,
                                "id": 3,
                                "order": 3
                            },
                            {
                                "children": [
                                    {
                                        "children": [
                                            {
                                                "children": [],
                                                "depth": 3,
                                                "id": 8,
                                                "order": 8
                                            }
                                        ],
                                        "depth": 2,
                                        "id": 7,
                                        "order": 7
                                    },
                                    {
                                        "children": [],
                                        "depth": 2,
                                        "id": 11,
                                        "order": 11
                                    },
                                    {
                                        "children": [],
                                        "depth": 2,
                                        "id": 12,
                                        "order": 12
                                    }
                                ],
                                "depth": 1,
                                "id": 6,
                                "order": 6
                            },
                            {
                                "children": [
                                    {
                                        "children": [
                                            {
                                                "children": [],
                                                "depth": 3,
                                                "id": 15,
                                                "order": 15
                                            }
                                        ],
                                        "depth": 2,
                                        "id": 14,
                                        "order": 14
                                    },
                                    {
                                        "children": [],
                                        "depth": 2,
                                        "id": 18,
                                        "order": 18
                                    },
                                    {
                                        "children": [],
                                        "depth": 2,
                                        "id": 19,
                                        "order": 19
                                    }
                                ],
                                "depth": 1,
                                "id": 13,
                                "order": 13
                            }
                        ],
                        "depth": 0,
                        "id": 0,
                        "order": 0
                    }
                ],
                "depth": -1,
                "id": -1,
                "order": -1
            }
        ],
        "tidyTraceNodeCount": 14
    },
    "state_change": {
        "stateChanges": [
            {
                "address": "0x48c276e8d03813224bb1e55f953adb6d02fd3e02",
                "erc": "ERC-20",
                "slots": [
                    {
                        "current": "0x000000000000000000000000000000000000000235589aff962f0d7edb1eed81",
                        "key": "0x769e04fd451019ee0f2e7e94977db1bde928b221db67feec42df5408eabffa66",
                        "prev": "0x0000000000000000000000000000000000000002b4a5efc494a1cbec17002447"
                    },
                    {
                        "current": "0x00000000000000000000000000000000000000d7a878dddb30fb680b5ef33466",
                        "key": "0x77e89267b00cc0639e608d86fdedde903e5f255aca1d13b8535c2df3783d7ebb",
                        "prev": "0x00000000000000000000000000000000000000d7292b89163288a99e2311fda0"
                    },
                    {
                        "current": "0xfffffffffffffffffffffffffffffffffffffffeb0860558b71b4bbe464f816c",
                        "key": "0xf128bb8c68b458389fec5ef3adefb277625a4ce3f99c36d5af74dc3c9476c489",
                        "prev": "0xffffffffffffffffffffffffffffffffffffffff2fd35a1db58e0a2b8230b832"
                    }
                ],
                "storageVariables": [
                    {
                        "name": "_balances",
                        "type": "mapping(address => uint256)",
                        "value": {
                            "pairs": [
                                {
                                    "key": "0x96022557ed42728143eb77a4b42343cb4c47ab56",
                                    "value": {
                                        "current": "174966147980366035186261880193",
                                        "prev": "214364231828468511267375555655",
                                        "typeTag": 1
                                    }
                                },
                                {
                                    "key": "0xdf60e6416fcf8c955fddf01148753a911f7a5905",
                                    "value": {
                                        "current": "17086194541001531505123683152998",
                                        "prev": "17046796457153429029042569477536",
                                        "typeTag": 1
                                    }
                                }
                            ],
                            "typeTag": 4
                        }
                    },
                    {
                        "name": "_allowances",
                        "type": "mapping(address => mapping(address => uint256))",
                        "value": {
                            "pairs": [
                                {
                                    "key": "0x96022557ed42728143eb77a4b42343cb4c47ab56",
                                    "value": {
                                        "pairs": [
                                            {
                                                "key": "0x7a250d5630b4cf539739df2c5dacb4c659f2488d",
                                                "value": {
                                                    "current": "115792089237316195423570985008687907853269984665536739097465780540779587928428",
                                                    "prev": "115792089237316195423570985008687907853269984665576137181313883016860701603890",
                                                    "typeTag": 1
                                                }
                                            }
                                        ],
                                        "typeTag": 4
                                    }
                                }
                            ],
                            "typeTag": 4
                        }
                    }
                ]
            },
            {
                "address": "0x8e6cd950ad6ba651f6dd608dc70e5886b1aa6b24",
                "erc": "ERC-20",
                "slots": [
                    {
                        "current": "0x0000000000000000000000000000000000000005008f3a4d5f742122934cf762",
                        "key": "0x801e468f816a77ade5eb221e2cfe2a6becc01a439592548950ac2bd41673d12c",
                        "prev": "0x000000000000000000000000000000000000000503dc9b38630a3dcb514cf762"
                    },
                    {
                        "current": "0x0000000000000000000000000000000000000000069b7f55e8f8fba28e467dae",
                        "key": "0xed2b1e58fa275318c62f6b4c7ab1f8ad6fa78d24a3d711730736cf111a716784",
                        "prev": "0x0000000000000000000000000000000000000000034e1e6ae562def9d0467dae"
                    }
                ],
                "storageVariables": [
                    {
                        "name": "_balances",
                        "type": "mapping(address => uint256)",
                        "value": {
                            "pairs": [
                                {
                                    "key": "0x96022557ed42728143eb77a4b42343cb4c47ab56",
                                    "value": {
                                        "current": "2044894886272352931295952302",
                                        "prev": "1022894886272352931295952302",
                                        "typeTag": 1
                                    }
                                },
                                {
                                    "key": "0xa5e9c917b4b821e4e0a5bbefce078ab6540d6b5e",
                                    "value": {
                                        "current": "396313964288060039018046093154",
                                        "prev": "397335964288060039018046093154",
                                        "typeTag": 1
                                    }
                                }
                            ],
                            "typeTag": 4
                        }
                    }
                ]
            },
            {
                "address": "0xa5e9c917b4b821e4e0a5bbefce078ab6540d6b5e",
                "erc": "ERC-20",
                "slots": [
                    {
                        "current": "0x00000000000000000000001c5f93499dd2b9b1ecd4a28ee9eba6a09a22c70029",
                        "key": "0x000000000000000000000000000000000000000000000000000000000000000a",
                        "prev": "0x00000000000000000000001c5f294139f6e525e8c392fe7f6fab18fb29036951"
                    },
                    {
                        "current": "0x616f852d00000000004293d398dc0b4a25990005008f3a4d5f742122934cf762",
                        "key": "0x0000000000000000000000000000000000000000000000000000000000000008",
                        "prev": "0x616f7fb100000000004267db24d56b61a9ea000503dc9b38630a3dcb514cf762"
                    },
                    {
                        "current": "0x00000000000000000000000000000000000007b08ad0f76c423e421780870c68",
                        "key": "0x0000000000000000000000000000000000000000000000000000000000000009",
                        "prev": "0x00000000000000000000000000000000000007b04232564c3bbd127a701cc098"
                    }
                ],
                "storageVariables": [
                    {
                        "name": "price1CumulativeLast",
                        "type": "uint256",
                        "value": {
                            "current": "41467684590939037153976288521416430495413324677161",
                            "prev": "41465319981069546590797961497460829324624045238609",
                            "typeTag": 1
                        }
                    },
                    {
                        "name": "reserve0",
                        "type": "uint112",
                        "value": {
                            "current": "396313964288060039018046093154",
                            "prev": "397335964288060039018046093154",
                            "typeTag": 1
                        }
                    },
                    {
                        "name": "reserve1",
                        "type": "uint112",
                        "value": {
                            "current": "1228137134479341397401",
                            "prev": "1224968724569684814314",
                            "typeTag": 1
                        }
                    },
                    {
                        "name": "blockTimestampLast",
                        "type": "uint32",
                        "value": {
                            "current": "1634698541",
                            "prev": "1634697137",
                            "typeTag": 1
                        }
                    },
                    {
                        "name": "price0CumulativeLast",
                        "type": "uint256",
                        "value": {
                            "current": "155963985384419584800533619608680",
                            "prev": "155941510692541180583616391725208",
                            "typeTag": 1
                        }
                    }
                ]
            },
            {
                "address": "0xc02aaa39b223fe8d0a0e5c4f27ead9083c756cc2",
                "erc": "ERC-20",
                "slots": [
                    {
                        "current": "0x00000000000000000000000000000000000000000000004a8a7315d08134d301",
                        "key": "0x3048ce868078b6627faa210fb15630415c799b76b7e32356f11f31653c49e41f",
                        "prev": "0x00000000000000000000000000000000000000000000004ab66b89d7211d4eb0"
                    },
                    {
                        "current": "0x00000000000000000000000000000000000000000000004293d398dc0b4a2599",
                        "key": "0x9cf2ae40707ed24a5a59d6a08b659b2d783f4acb72ca3c63daa67da97f772f98",
                        "prev": "0x00000000000000000000000000000000000000000000004267db24d56b61a9ea"
                    }
                ],
                "storageVariables": [
                    {
                        "name": "balanceOf",
                        "type": "mapping(address => uint256)",
                        "value": {
                            "pairs": [
                                {
                                    "key": "0xa5e9c917b4b821e4e0a5bbefce078ab6540d6b5e",
                                    "value": {
                                        "current": "1228137134479341397401",
                                        "prev": "1224968724569684814314",
                                        "typeTag": 1
                                    }
                                },
                                {
                                    "key": "0xdf60e6416fcf8c955fddf01148753a911f7a5905",
                                    "value": {
                                        "current": "1375035403039327703809",
                                        "prev": "1378203812948984286896",
                                        "typeTag": 1
                                    }
                                }
                            ],
                            "typeTag": 4
                        }
                    }
                ]
            },
            {
                "address": "0xdf60e6416fcf8c955fddf01148753a911f7a5905",
                "erc": "ERC-20",
                "slots": [
                    {
                        "current": "0x616f852d00000000004a8a7315d08134d30100d7a878dddb30fb680b5ef33466",
                        "key": "0x0000000000000000000000000000000000000000000000000000000000000008",
                        "prev": "0x616f850c00000000004ab66b89d7211d4eb000d7292b89163288a99e2311fda0"
                    },
                    {
                        "current": "0x00000000000000000000000000000000000000090f64fa133d296c6eb6fad472",
                        "key": "0x0000000000000000000000000000000000000000000000000000000000000009",
                        "prev": "0x00000000000000000000000000000000000000090f598496199cbe11637d990e"
                    },
                    {
                        "current": "0x000000000000000000001c2c15f5d140456a4805641558f78e4b440eab556c70",
                        "key": "0x000000000000000000000000000000000000000000000000000000000000000a",
                        "prev": "0x000000000000000000001c2c1596c84cfa063aa9660ba0b6a57e7a1845736fbb"
                    }
                ],
                "storageVariables": [
                    {
                        "name": "reserve0",
                        "type": "uint112",
                        "value": {
                            "current": "17086194541001531505123683152998",
                            "prev": "17046796457153429029042569477536",
                            "typeTag": 1
                        }
                    },
                    {
                        "name": "reserve1",
                        "type": "uint112",
                        "value": {
                            "current": "1375035403039327703809",
                            "prev": "1378203812948984286896",
                            "typeTag": 1
                        }
                    },
                    {
                        "name": "blockTimestampLast",
                        "type": "uint32",
                        "value": {
                            "current": "1634698541",
                            "prev": "1634698508",
                            "typeTag": 1
                        }
                    },
                    {
                        "name": "price0CumulativeLast",
                        "type": "uint256",
                        "value": {
                            "current": "717817811304176705035153626226",
                            "prev": "717803958294877825148125026574",
                            "typeTag": 1
                        }
                    },
                    {
                        "name": "price1CumulativeLast",
                        "type": "uint256",
                        "value": {
                            "current": "10540475179147570886514421967099304440292136839375984",
                            "prev": "10540473059797089911889024070659037106607509130670011",
                            "typeTag": 1
                        }
                    }
                ]
            }
        ]
    }
}