{
    "balance_change": {
        "balanceChanges": [
            {
                "account": "0x4f8397904a3f3d6976ecd2dece2010d17e295613",
                "assets": [
                    {
                        "address": "0xeeeeeeeeeeeeeeeeeeeeeeeeeeeeeeeeeeeeeeee",
                        "amount": "0.1",
                        "iconUrl": "https://assets.blocksec.com/image/1663669189317-3.png",
                        "isERC1155": false,
                        "isERC721": false,
                        "sign": false,
                        "value": ""
                    }
                ]
            },
            {
                "account": "0x999999c60566e0a78df17f71886333e1dace0bae",
                "assets": [
                    {
                        "address": "0xeeeeeeeeeeeeeeeeeeeeeeeeeeeeeeeeeeeeeeee",
                        "amount": "0.1",
                        "iconUrl": "https://assets.blocksec.com/image/1663669189317-3.png",
                        "isERC1155": false,
                        "isERC721": false,
                        "sign": true,
                        "value": ""
                    }
                ]
            }
        ]
    },
    "profile": {
        "basic_info": {
            "baseFee": "",
            "blockNumber": 7573712,
            "callData": "0x403a0a780000000000000000000000000000000000000000000000000000000000000007000000000000000000000000000000000000000000000000000000000000000400000000000000000000000000000000000000000000000000000000007391c260d5ae30cd4ad7a64f33127629f1762101f49700b7bafd52d79e01d9d2a372e46b6ee7d8a7d9d3475729598590a60a8ca999b064e1b7dafa002c36298ad4b6641c6c69d2f0fbe4acf21ec6422a94a0ef99d95e6fc41ee6871db9f645739dd6bb0000000000000000000000000000000000000000000000000000000000000000",
            "debugEnable": true,
            "errorInfo": "",
            "eventCount": 1,
            "feeRecipient": "0x04668ec2f57cc15c381b461b9fedab5d451c8f7f",
            "formatValue": "0.1",
            "gasLimit": 150000,
            "gasPrice": "7.5",
            "gasUsed": 82715,
            "intTxnCount": 1,
            "internalRevert": false,
            "internalRevertMessage": "",
            "isContractCreation": false,
            "isFlashloan": false,
            "maxFee": "",
            "nonce": 14352,
            "overwritedBlockNumber": -1,
            "priorityFee": "",
            "receiver": "0x999999c60566e0a78df17f71886333e1dace0bae",
            "revertMessage": "",
            "sender": "0x4f8397904a3f3d6976ecd2dece2010d17e295613",
            "simulationEnable": true,
            "sourceTxnHash": "0x9ee857a2488aaeaef6ffb27e4f4db259b1567b0ebd1a051d71530bbda67abf71",
            "status": true,
            "timestamp": "2019-04-15T16:56:11Z",
            "transactionFee": "0.0006203625",
            "txnHash": "0x9ee857a2488aaeaef6ffb27e4f4db259b1567b0ebd1a051d71530bbda67abf71",
            "txnIndex": 8,
            "type": 0,
            "value": "100000000000000000"
        },
        "fund_flow": [
            {
                "amount": "0.1",
                "from": "0x4f8397904a3f3d6976ecd2dece2010d17e295613",
                "id": 1,
                "isERC1155": false,
                "isERC721": false,
                "isReverted": false,
                "order": 1,
                "to": "0x999999c60566e0a78df17f71886333e1dace0bae",
                "token": "0xeeeeeeeeeeeeeeeeeeeeeeeeeeeeeeeeeeeeeeee"
            }
        ],
        "token_infos": [
            {
                "address": "0xc02aaa39b223fe8d0a0e5c4f27ead9083c756cc2",
                "decimals": 18
            },
            {
                "address": "0xeeeeeeeeeeeeeeeeeeeeeeeeeeeeeeeeeeeeeeee",
                "decimals": 18
            }
        ]
    },
    "address_label": {
        "labels": [
            {
                "address": "0x0000000000000000000000000000000000000003",
                "label": "Precompiled"
            },
            {
                "address": "0x0000000000000000000000000000000000000004",
                "label": "Precompiled"
            },
            {
                "address": "0xeeeeeeeeeeeeeeeeeeeeeeeeeeeeeeeeeeeeeeee",
                "label": "Ether"
            },
            {
                "address": "0x999999c60566e0a78df17f71886333e1dace0bae",
                "label": "FCK.com: Dice"
            },
            {
                "address": "0x0000000000000000000000000000000000000001",
                "label": "Precompiled"
            },
            {
                "address": "0x0000000000000000000000000000000000000002",
                "label": "Precompiled"
            }
        ]
    },
    "trace": {
        "accountLabels": null,
        "dataMap": {
            "-1": {
                "invocation": {
                    "address": "0x4f8397904a3f3d6976ecd2dece2010d17e295613",
                    "callData": "",
                    "decodedMethod": null,
                    "errorInfo": "",
                    "fromAddress": "",
                    "gasUsed": 0,
                    "id": -1,
                    "methodDecoded": false,
                    "operation": "",
                    "output": "",
                    "revert": false,
                    "revertMessage": "",
                    "selector": "",
                    "status": false,
                    "value": ""
                },
                "nodeType": 0
            },
            "0": {
                "invocation": {
                    "address": "0x999999c60566e0a78df17f71886333e1dace0bae",
                    "callData": "0x0000000000000000000000000000000000000000000000000000000000000007000000000000000000000000000000000000000000000000000000000000000400000000000000000000000000000000000000000000000000000000007391c260d5ae30cd4ad7a64f33127629f1762101f49700b7bafd52d79e01d9d2a372e46b6ee7d8a7d9d3475729598590a60a8ca999b064e1b7dafa002c36298ad4b6641c6c69d2f0fbe4acf21ec6422a94a0ef99d95e6fc41ee6871db9f645739dd6bb0000000000000000000000000000000000000000000000000000000000000000",
                    "decodedMethod": {
                        "callParams": [
                            {
                                "name": "betMask",
                                "type": "uint256",
                                "value": "7"
                            },
                            {
                                "name": "modulo",
                                "type": "uint256",
                                "value": "4"
                            },
                            {
                                "name": "commitLastBlock",
                                "type": "uint256",
                                "value": "7,573,954"
                            },
                            {
                                "name": "commit",
                                "type": "uint256",
                                "value": "43,799,574,108,352,958,889,355,120,979,891,463,347,065,584,231,323,924,616,624,524,059,714,064,184,036"
                            },
                            {
                                "name": "r",
                                "type": "bytes32",
                                "value": "0x6b6ee7d8a7d9d3475729598590a60a8ca999b064e1b7dafa002c36298ad4b664"
                            },
                            {
                                "name": "s",
                                "type": "bytes32",
                                "value": "0x1c6c69d2f0fbe4acf21ec6422a94a0ef99d95e6fc41ee6871db9f645739dd6bb"
                            },
                            {
                                "name": "source",
                                "type": "uint256",
                                "value": "0"
                            }
                        ],
                        "constructorArguments": "",
                        "name": "placeBet",
                        "returnParams": [],
                        "signature": "placeBet(uint256,uint256,uint256,uint256,bytes32,bytes32,uint256)"
                    },
                    "errorInfo": "",
                    "fromAddress": "0x4f8397904a3f3d6976ecd2dece2010d17e295613",
                    "gasUsed": 82715,
                    "id": 0,
                    "methodDecoded": true,
                    "operation": "CALL",
                    "output": "",
                    "revert": false,
                    "revertMessage": "",
                    "selector": "0x403a0a78",
                    "status": true,
                    "value": "0.1"
                },
                "nodeType": 0
            },
            "1": {
                "invocation": {
                    "address": "0x0000000000000000000000000000000000000001",
                    "callData": "0x85b0b529f1a7f146f8a17274d8546a46d3974ecd1a40161f552ea0f2000000000000000000000000000000000000000000000000000000000000001b6b6ee7d8a7d9d3475729598590a60a8ca999b064e1b7dafa002c36298ad4b6641c6c69d2f0fbe4acf21ec6422a94a0ef99d95e6fc41ee6871db9f645739dd6bb",
                    "decodedMethod": {
                        "callParams": [
                            {
                                "name": "hash",
                                "type": "bytes32",
                                "value": "0x691c9f3a85b0b529f1a7f146f8a17274d8546a46d3974ecd1a40161f552ea0f2"
                            },
                            {
                                "name": "v",
                                "type": "uint256",
                                "value": "27"
                            },
                            {
                                "name": "r",
                                "type": "bytes32",
                                "value": "0x6b6ee7d8a7d9d3475729598590a60a8ca999b064e1b7dafa002c36298ad4b664"
                            },
                            {
                                "name": "s",
                                "type": "bytes32",
                                "value": "0x1c6c69d2f0fbe4acf21ec6422a94a0ef99d95e6fc41ee6871db9f645739dd6bb"
                            }
                        ],
                        "constructorArguments": "",
                        "name": "ecrecover",
                        "returnParams": [
                            {
                                "name": "",
                                "type": "address",
                                "value": "0x336417d90c5135701823a50c687450fe92bd1bf8"
                            }
                        ],
                        "signature": "ecrecover(bytes32,uint256,bytes32,bytes32)"
                    },
                    "errorInfo": "",
                    "fromAddress": "0x999999c60566e0a78df17f71886333e1dace0bae",
                    "gasUsed": 3000,
                    "id": 1,
                    "methodDecoded": true,
                    "operation": "STATICCALL",
                    "output": "0x000000000000000000000000336417d90c5135701823a50c687450fe92bd1bf8",
                    "revert": false,
                    "revertMessage": "",
                    "selector": "0x691c9f3a",
                    "status": true,
                    "value": "0"
                },
                "nodeType": 0
            },
            "2": {
                "event": {
                    "contract": "0x999999c60566e0a78df17f71886333e1dace0bae",
                    "decodedLog": {
                        "name": "Commit",
                        "params": [
                            {
                                "name": "commit",
                                "type": "uint256",
                                "value": "43,799,574,108,352,958,889,355,120,979,891,463,347,065,584,231,323,924,616,624,524,059,714,064,184,036"
                            },
                            {
                                "name": "source",
                                "type": "uint256",
                                "value": "0"
                            }
                        ],
                        "signature": "Commit(uint256,uint256)"
                    },
                    "id": 2,
                    "logData": "0x60d5ae30cd4ad7a64f33127629f1762101f49700b7bafd52d79e01d9d2a372e40000000000000000000000000000000000000000000000000000000000000000",
                    "logDecoded": true,
                    "operation": "EVENT",
                    "revert": false,
                    "status": true,
                    "topics": [
                        "0xacafc53544c2ca5cd4dbfda9282c25a35859f0d4ceb77a8275dca1660b1ed3ad"
                    ]
                },
                "nodeType": 1
            }
        },
        "gasFlame": [
            {
                "children": [
                    {
                        "children": [
                            {
                                "children": [],
                                "depth": 0,
                                "name": "Initial Gas",
                                "value": 28504
                            },
                            {
                                "children": [
                                    {
                                        "children": [],
                                        "depth": 1,
                                        "name": "ecrecover",
                                        "value": 3000
                                    }
                                ],
                                "depth": 0,
                                "name": "Executed Gas",
                                "value": 54211
                            }
                        ],
                        "depth": -1,
                        "name": "Actual Gas Used",
                        "value": 82715
                    },
                    {
                        "children": [],
                        "depth": -1,
                        "name": "Refunded Gas",
                        "value": 0
                    }
                ],
                "depth": -2,
                "name": "Total Gas",
                "value": 82715
            }
        ],
        "isConfirmed": true,
        "mainTrace": [
            {
                "children": [
                    {
                        "children": [
                            {
                                "children": [],
                                "depth": 1,
                                "id": 1,
                                "order": 1
                            },
                            {
                                "children": [],
                                "depth": 1,
                                "id": 2,
                                "order": 2
                            }
                        ],
                        "depth": 0,
                        "id": 0,
                        "order": 0
                    }
                ],
                "depth": -1,
                "id": -1,
                "order": -1
            }
        ],
        "mainTraceNodeCount": 3,
        "parentIdMap": {
            "0": -1,
            "1": 0,
            "2": 0
        },
        "tidyTrace": [
            {
                "children": [
                    {
                        "children": [
                            {
                                "children": [],
                                "depth": 1,
                                "id": 2,
                                "order": 2
                            }
                        ],
                        "depth": 0,
                        "id": 0,
                        "order": 0
                    }
                ],
                "depth": -1,
                "id": -1,
                "order": -1
            }
        ],
        "tidyTraceNodeCount": 2
    },
    "state_change": {
        "stateChanges": [
            {
                "address": "0x999999c60566e0a78df17f71886333e1dace0bae",
                "erc": "",
                "slots": [
                    {
                        "current": "0x4f8397904a3f3d6976ecd2dece2010d17e29561303040000016345785d8a0000",
                        "key": "0x462b3999dfc056ef7f68b049a66312fce0193285cdc958c3ecdcea3e4ccb5df0",
                        "prev": "0x0000000000000000000000000000000000000000000000000000000000000000"
                    },
                    {
                        "current": "0x000000000000000001d050e4ebd85555000000000000000004fefa17b7240000",
                        "key": "0x0000000000000000000000000000000000000000000000000000000000000004",
                        "prev": "0x00000000000000000000000000000000000000000000000004fb6c99125d8000"
                    },
                    {
                        "current": "0x00000000000000000000000000000000000000000000000000000700007390d0",
                        "key": "0x462b3999dfc056ef7f68b049a66312fce0193285cdc958c3ecdcea3e4ccb5df1",
                        "prev": "0x0000000000000000000000000000000000000000000000000000000000000000"
                    }
                ],
                "storageVariables": [
                    {
                        "name": "bets",
                        "type": "mapping(uint256 => struct FckDice.Bet)",
                        "value": {
                            "pairs": [
                                {
                                    "key": "43799574108352958889355120979891463347065584231323924616624524059714064184036",
                                    "value": {
                                        "fields": [
                                            {
                                                "name": "amount",
                                                "type": "uint80",
                                                "value": {
                                                    "current": "100000000000000000",
                                                    "prev": "0",
                                                    "typeTag": 1
                                                }
                                            },
                                            {
                                                "name": "modulo",
                                                "type": "uint8",
                                                "value": {
                                                    "current": "4",
                                                    "prev": "0",
                                                    "typeTag": 1
                                                }
                                            },
                                            {
                                                "name": "rollUnder",
                                                "type": "uint8",
                                                "value": {
                                                    "current": "3",
                                                    "prev": "0",
                                                    "typeTag": 1
                                                }
                                            },
                                            {
                                                "name": "gambler",
                                                "type": "address payable",
                                                "value": {
                                                    "current": "0x4f8397904a3f3d6976ecd2dece2010d17e295613",
                                                    "prev": "0x0000000000000000000000000000000000000000",
                                                    "typeTag": 1
                                                }
                                            },
                                            {
                                                "name": "placeBlockNumber",
                                                "type": "uint40",
                                                "value": {
                                                    "current": "7573712",
                                                    "prev": "0",
                                                    "typeTag": 1
                                                }
                                            },
                                            {
                                                "name": "mask",
                                                "type": "uint216",
                                                "value": {
                                                    "current": "7",
                                                    "prev": "0",
                                                    "typeTag": 1
                                                }
                                            }
                                        ],
                                        "typeTag": 3
                                    }
                                }
                            ],
                            "typeTag": 4
                        }
                    },
                    {
                        "name": "jackpotSize",
                        "type": "uint128",
                        "value": {
                            "current": "360000000000000000",
                            "prev": "359000000000000000",
                            "typeTag": 1
                        }
                    },
                    {
                        "name": "lockedInBets",
                        "type": "uint128",
                        "value": {
                            "current": "130693333333333333",
                            "prev": "0",
                            "typeTag": 1
                        }
                    }
                ]
            }
        ]
    }
}