{
    "balance_change": {
        "balanceChanges": [
            {
                "account": "0x6baed02eccfa8e3633e3663ed9f4018c2956663c",
                "assets": [
                    {
                        "address": "0x20e95253e54490d8d30ea41574b24f741ee70201",
                        "amount": "0.026450499514487316",
                        "iconUrl": "",
                        "isERC1155": false,
                        "isERC721": false,
                        "sign": false,
                        "value": "3358075.058"
                    }
                ]
            },
            {
                "account": "0x94235659cf8b805b2c658f9ea2d6d6ddbb17c8d7",
                "assets": [
                    {
                        "address": "0x9813037ee2218799597d83d4a5b6f3b6778218d9",
                        "amount": "55.323819978046103183",
                        "iconUrl": "",
                        "isERC1155": false,
                        "isERC721": false,
                        "sign": true,
                        "value": "120.3888301"
                    },
                    {
                        "address": "0x20e95253e54490d8d30ea41574b24f741ee70201",
                        "amount": "0.026450499514487316",
                        "iconUrl": "",
                        "isERC1155": false,
                        "isERC721": false,
                        "sign": true,
                        "value": "3358075.058"
                    }
                ]
            },
            {
                "account": "0x0000000000000000000000000000000000000000",
                "assets": [
                    {
                        "address": "0x9813037ee2218799597d83d4a5b6f3b6778218d9",
                        "amount": "63.622392974753018658",
                        "iconUrl": "",
                        "isERC1155": false,
                        "isERC721": false,
                        "sign": false,
                        "value": "134.5548027"
                    }
                ]
            },
            {
                "account": "0x34ad2d8a212cb7d6909d9b523bb5847aa236cb25",
                "assets": [
                    {
                        "address": "0x9813037ee2218799597d83d4a5b6f3b6778218d9",
                        "amount": "0.553238199780461031",
                        "iconUrl": "",
                        "isERC1155": false,
                        "isERC721": false,
                        "sign": true,
                        "value": "1.48797626"
                    }
                ]
            },
            {
                "account": "0x44c652d679d99bb406167de9651d2535850fb479",
                "assets": [
                    {
                        "address": "0x9813037ee2218799597d83d4a5b6f3b6778218d9",
                        "amount": "5.532381997804610318",
                        "iconUrl": "",
                        "isERC1155": false,
                        "isERC721": false,
                        "sign": true,
                        "value": "14.56726131"
                    }
                ]
            },
            {
                "account": "0x526684cde5e9ed50703469e1e21e388ad084e0f8",
                "assets": [
                    {
                        "address": "0x9813037ee2218799597d83d4a5b6f3b6778218d9",
                        "amount": "1.659714599341383095",
                        "iconUrl": "",
                        "isERC1155": false,
                        "isERC721": false,
                        "sign": true,
                        "value": "4.4427494"
                    }
                ]
            },
            {
                "account": "0x68d494e06f70d1dd13f9faacd122799d4044412b",
                "assets": [
                    {
                        "address": "0x9813037ee2218799597d83d4a5b6f3b6778218d9",
                        "amount": "0.553238199780461031",
                        "iconUrl": "",
                        "isERC1155": false,
                        "isERC721": false,
                        "sign": true,
                        "value": "1.48797626"
                    }
                ]
            }
        ]
    },
    "profile": {
        "basic_info": {
            "baseFee": "76.273952296",
            "blockNumber": 13435639,
            "callData": "0xe2bbb1580000000000000000000000000000000000000000000000000000000000000003000000000000000000000000000000000000000000000000005df896d3b15214",
            "debugEnable": true,
            "errorInfo": "",
            "eventCount": 7,
            "feeRecipient": "0x2a20380dca5bc24d052acfbf79ba23e988ad0050",
            "formatValue": "0",
            "gasLimit": 208059,
            "gasPrice": "78.273952296",
            "gasUsed": 198271,
            "intTxnCount": 7,
            "internalRevert": false,
            "internalRevertMessage": "",
            "isContractCreation": false,
            "isFlashloan": false,
            "maxFee": "113.169873234",
            "nonce": 56,
            "overwritedBlockNumber": -1,
            "priorityFee": "2",
            "receiver": "0x94235659cf8b805b2c658f9ea2d6d6ddbb17c8d7",
            "revertMessage": "",
            "sender": "0x6baed02eccfa8e3633e3663ed9f4018c2956663c",
            "simulationEnable": true,
            "sourceTxnHash": "0x9eb15ea1d26af0774177821ac6e4938379a05d69c17018609c06fb65aaaab61b",
            "status": true,
            "timestamp": "2021-10-17T13:15:32Z",
            "transactionFee": "0.015519454795680216",
            "txnHash": "0x9eb15ea1d26af0774177821ac6e4938379a05d69c17018609c06fb65aaaab61b",
            "txnIndex": 18,
            "type": 2,
            "value": "0"
        },
        "fund_flow": [
            {
                "amount": "5.532381997804610318",
                "from": "0x0000000000000000000000000000000000000000",
                "id": 1,
                "isERC1155": false,
                "isERC721": false,
                "isReverted": false,
                "order": 1,
                "to": "0x44c652d679d99bb406167de9651d2535850fb479",
                "token": "0x9813037ee2218799597d83d4a5b6f3b6778218d9"
            },
            {
                "amount": "0.553238199780461031",
                "from": "0x0000000000000000000000000000000000000000",
                "id": 2,
                "isERC1155": false,
                "isERC721": false,
                "isReverted": false,
                "order": 2,
                "to": "0x34ad2d8a212cb7d6909d9b523bb5847aa236cb25",
                "token": "0x9813037ee2218799597d83d4a5b6f3b6778218d9"
            },
            {
                "amount": "1.659714599341383095",
                "from": "0x0000000000000000000000000000000000000000",
                "id": 3,
                "isERC1155": false,
                "isERC721": false,
                "isReverted": false,
                "order": 3,
                "to": "0x526684cde5e9ed50703469e1e21e388ad084e0f8",
                "token": "0x9813037ee2218799597d83d4a5b6f3b6778218d9"
            },
            {
                "amount": "0.553238199780461031",
                "from": "0x0000000000000000000000000000000000000000",
                "id": 4,
                "isERC1155": false,
                "isERC721": false,
                "isReverted": false,
                "order": 4,
                "to": "0x68d494e06f70d1dd13f9faacd122799d4044412b",
                "token": "0x9813037ee2218799597d83d4a5b6f3b6778218d9"
            },
            {
                "amount": "55.323819978046103183",
                "from": "0x0000000000000000000000000000000000000000",
                "id": 5,
                "isERC1155": false,
                "isERC721": false,
                "isReverted": false,
                "order": 5,
                "to": "0x94235659cf8b805b2c658f9ea2d6d6ddbb17c8d7",
                "token": "0x9813037ee2218799597d83d4a5b6f3b6778218d9"
            },
            {
                "amount": "0.026450499514487316",
                "from": "0x6baed02eccfa8e3633e3663ed9f4018c2956663c",
                "id": 6,
                "isERC1155": false,
                "isERC721": false,
                "isReverted": false,
                "order": 6,
                "to": "0x94235659cf8b805b2c658f9ea2d6d6ddbb17c8d7",
                "token": "0x20e95253e54490d8d30ea41574b24f741ee70201"
            }
        ],
        "token_infos": [
            {
                "address": "0xeeeeeeeeeeeeeeeeeeeeeeeeeeeeeeeeeeeeeeee",
                "decimals": 18
            },
            {
                "address": "0x20e95253e54490d8d30ea41574b24f741ee70201",
                "decimals": 18
            },
            {
                "address": "0x9813037ee2218799597d83d4a5b6f3b6778218d9",
                "decimals": 18
            },
            {
                "address": "0xc02aaa39b223fe8d0a0e5c4f27ead9083c756cc2",
                "decimals": 18
            }
        ]
    },
    "address_label": {
        "labels": [
            {
                "address": "0x0000000000000000000000000000000000000004",
                "label": "Precompiled"
            },
            {
                "address": "0xeeeeeeeeeeeeeeeeeeeeeeeeeeeeeeeeeeeeeeee",
                "label": "Ether"
            },
            {
                "address": "0x9813037ee2218799597d83d4a5b6f3b6778218d9",
                "label": "ShibaSwap: BONE Token"
            },
            {
                "address": "0x20e95253e54490d8d30ea41574b24f741ee70201",
                "label": "ShibaSwap LP Token (SSLP)"
            },
            {
                "address": "0x94235659cf8b805b2c658f9ea2d6d6ddbb17c8d7",
                "label": "Shiba Inu: Migrator"
            },
            {
                "address": "0x0000000000000000000000000000000000000001",
                "label": "Precompiled"
            },
            {
                "address": "0x0000000000000000000000000000000000000002",
                "label": "Precompiled"
            },
            {
                "address": "0x0000000000000000000000000000000000000003",
                "label": "Precompiled"
            }
        ]
    },
    "trace": {
        "accountLabels": null,
        "dataMap": {
            "-1": {
                "invocation": {
                    "address": "0x6baed02eccfa8e3633e3663ed9f4018c2956663c",
                    "callData": "",
                    "decodedMethod": null,
                    "errorInfo": "",
                    "fromAddress": "",
                    "gasUsed": 0,
                    "id": -1,
                    "methodDecoded": false,
                    "operation": "",
                    "output": "",
                    "revert": false,
                    "revertMessage": "",
                    "selector": "",
                    "status": false,
                    "value": ""
                },
                "nodeType": 0
            },
            "0": {
                "invocation": {
                    "address": "0x94235659cf8b805b2c658f9ea2d6d6ddbb17c8d7",
                    "callData": "0x0000000000000000000000000000000000000000000000000000000000000003000000000000000000000000000000000000000000000000005df896d3b15214",
                    "decodedMethod": {
                        "callParams": [
                            {
                                "name": "_pid",
                                "type": "uint256",
                                "value": "3"
                            },
                            {
                                "name": "_amount",
                                "type": "uint256",
                                "value": "26,450,499,514,487,316"
                            }
                        ],
                        "constructorArguments": "",
                        "name": "deposit",
                        "returnParams": [],
                        "signature": "deposit(uint256,uint256)"
                    },
                    "errorInfo": "",
                    "fromAddress": "0x6baed02eccfa8e3633e3663ed9f4018c2956663c",
                    "gasUsed": 198271,
                    "id": 0,
                    "methodDecoded": true,
                    "operation": "CALL",
                    "output": "",
                    "revert": false,
                    "revertMessage": "",
                    "selector": "0xe2bbb158",
                    "status": true,
                    "value": "0"
                },
                "nodeType": 0
            },
            "1": {
                "invocation": {
                    "address": "0x20e95253e54490d8d30ea41574b24f741ee70201",
                    "callData": "0x00000000000000000000000094235659cf8b805b2c658f9ea2d6d6ddbb17c8d7",
                    "decodedMethod": {
                        "callParams": [
                            {
                                "name": "",
                                "type": "address",
                                "value": "0x94235659cf8b805b2c658f9ea2d6d6ddbb17c8d7"
                            }
                        ],
                        "constructorArguments": "",
                        "name": "balanceOf",
                        "returnParams": [
                            {
                                "decimalAvailable": true,
                                "name": "",
                                "type": "uint256",
                                "value": "257,093,577,065,392,512"
                            }
                        ],
                        "signature": "balanceOf(address)"
                    },
                    "errorInfo": "",
                    "fromAddress": "0x94235659cf8b805b2c658f9ea2d6d6ddbb17c8d7",
                    "gasUsed": 2535,
                    "id": 1,
                    "methodDecoded": true,
                    "operation": "STATICCALL",
                    "output": "0x0000000000000000000000000000000000000000000000000391613f07046980",
                    "revert": false,
                    "revertMessage": "",
                    "selector": "0x70a08231",
                    "status": true,
                    "value": "0"
                },
                "nodeType": 0
            },
            "10": {
                "invocation": {
                    "address": "0x9813037ee2218799597d83d4a5b6f3b6778218d9",
                    "callData": "0x00000000000000000000000094235659cf8b805b2c658f9ea2d6d6ddbb17c8d7000000000000000000000000000000000000000000000002ffc5b126e118de8f",
                    "decodedMethod": {
                        "callParams": [
                            {
                                "name": "_to",
                                "type": "address",
                                "value": "0x94235659cf8b805b2c658f9ea2d6d6ddbb17c8d7"
                            },
                            {
                                "name": "_amount",
                                "type": "uint256",
                                "value": "55,323,819,978,046,103,183"
                            }
                        ],
                        "constructorArguments": "",
                        "name": "mint",
                        "returnParams": [],
                        "signature": "mint(address,uint256)"
                    },
                    "errorInfo": "",
                    "fromAddress": "0x94235659cf8b805b2c658f9ea2d6d6ddbb17c8d7",
                    "gasUsed": 10343,
                    "id": 10,
                    "methodDecoded": true,
                    "operation": "CALL",
                    "output": "",
                    "revert": false,
                    "revertMessage": "",
                    "selector": "0x40c10f19",
                    "status": true,
                    "value": "0"
                },
                "nodeType": 0
            },
            "11": {
                "event": {
                    "contract": "0x9813037ee2218799597d83d4a5b6f3b6778218d9",
                    "decodedLog": {
                        "name": "Transfer",
                        "params": [
                            {
                                "name": "from",
                                "type": "address",
                                "value": "0x0000000000000000000000000000000000000000"
                            },
                            {
                                "name": "to",
                                "type": "address",
                                "value": "0x94235659cf8b805b2c658f9ea2d6d6ddbb17c8d7"
                            },
                            {
                                "decimalAvailable": true,
                                "name": "value",
                                "type": "uint256",
                                "value": "55,323,819,978,046,103,183"
                            }
                        ],
                        "signature": "Transfer(address,address,uint256)"
                    },
                    "id": 11,
                    "logData": "0x000000000000000000000000000000000000000000000002ffc5b126e118de8f",
                    "logDecoded": true,
                    "operation": "EVENT",
                    "revert": false,
                    "status": true,
                    "topics": [
                        "0xddf252ad1be2c89b69c2b068fc378daa952ba7f163c4a11628f55a4df523b3ef",
                        "0x0000000000000000000000000000000000000000000000000000000000000000",
                        "0x00000000000000000000000094235659cf8b805b2c658f9ea2d6d6ddbb17c8d7"
                    ]
                },
                "nodeType": 1
            },
            "12": {
                "invocation": {
                    "address": "0x20e95253e54490d8d30ea41574b24f741ee70201",
                    "callData": "0x0000000000000000000000006baed02eccfa8e3633e3663ed9f4018c2956663c00000000000000000000000094235659cf8b805b2c658f9ea2d6d6ddbb17c8d7000000000000000000000000000000000000000000000000005df896d3b15214",
                    "decodedMethod": {
                        "callParams": [
                            {
                                "name": "from",
                                "type": "address",
                                "value": "0x6baed02eccfa8e3633e3663ed9f4018c2956663c"
                            },
                            {
                                "name": "to",
                                "type": "address",
                                "value": "0x94235659cf8b805b2c658f9ea2d6d6ddbb17c8d7"
                            },
                            {
                                "decimalAvailable": true,
                                "name": "value",
                                "type": "uint256",
                                "value": "26,450,499,514,487,316"
                            }
                        ],
                        "constructorArguments": "",
                        "name": "transferFrom",
                        "returnParams": [
                            {
                                "name": "",
                                "type": "bool",
                                "value": true
                            }
                        ],
                        "signature": "transferFrom(address,address,uint256)"
                    },
                    "errorInfo": "",
                    "fromAddress": "0x94235659cf8b805b2c658f9ea2d6d6ddbb17c8d7",
                    "gasUsed": 13018,
                    "id": 12,
                    "methodDecoded": true,
                    "operation": "CALL",
                    "output": "0x0000000000000000000000000000000000000000000000000000000000000001",
                    "revert": false,
                    "revertMessage": "",
                    "selector": "0x23b872dd",
                    "status": true,
                    "value": "0"
                },
                "nodeType": 0
            },
            "13": {
                "event": {
                    "contract": "0x20e95253e54490d8d30ea41574b24f741ee70201",
                    "decodedLog": {
                        "name": "Transfer",
                        "params": [
                            {
                                "name": "from",
                                "type": "address",
                                "value": "0x6baed02eccfa8e3633e3663ed9f4018c2956663c"
                            },
                            {
                                "name": "to",
                                "type": "address",
                                "value": "0x94235659cf8b805b2c658f9ea2d6d6ddbb17c8d7"
                            },
                            {
                                "decimalAvailable": true,
                                "name": "value",
                                "type": "uint256",
                                "value": "26,450,499,514,487,316"
                            }
                        ],
                        "signature": "Transfer(address,address,uint256)"
                    },
                    "id": 13,
                    "logData": "0x000000000000000000000000000000000000000000000000005df896d3b15214",
                    "logDecoded": true,
                    "operation": "EVENT",
                    "revert": false,
                    "status": true,
                    "topics": [
                        "0xddf252ad1be2c89b69c2b068fc378daa952ba7f163c4a11628f55a4df523b3ef",
                        "0x0000000000000000000000006baed02eccfa8e3633e3663ed9f4018c2956663c",
                        "0x00000000000000000000000094235659cf8b805b2c658f9ea2d6d6ddbb17c8d7"
                    ]
                },
                "nodeType": 1
            },
            "14": {
                "event": {
                    "contract": "0x94235659cf8b805b2c658f9ea2d6d6ddbb17c8d7",
                    "decodedLog": {
                        "name": "Deposit",
                        "params": [
                            {
                                "name": "user",
                                "type": "address",
                                "value": "0x6baed02eccfa8e3633e3663ed9f4018c2956663c"
                            },
                            {
                                "name": "pid",
                                "type": "uint256",
                                "value": "3"
                            },
                            {
                                "name": "amount",
                                "type": "uint256",
                                "value": "26,450,499,514,487,316"
                            }
                        ],
                        "signature": "Deposit(address,uint256,uint256)"
                    },
                    "id": 14,
                    "logData": "0x000000000000000000000000000000000000000000000000005df896d3b15214",
                    "logDecoded": true,
                    "operation": "EVENT",
                    "revert": false,
                    "status": true,
                    "topics": [
                        "0x90890809c654f11d6e72a28fa60149770a0d11ec6c92319d6ceb2bb0a4ea1a15",
                        "0x0000000000000000000000006baed02eccfa8e3633e3663ed9f4018c2956663c",
                        "0x0000000000000000000000000000000000000000000000000000000000000003"
                    ]
                },
                "nodeType": 1
            },
            "2": {
                "invocation": {
                    "address": "0x9813037ee2218799597d83d4a5b6f3b6778218d9",
                    "callData": "0x00000000000000000000000044c652d679d99bb406167de9651d2535850fb4790000000000000000000000000000000000000000000000004cc6f81d7ce8e30e",
                    "decodedMethod": {
                        "callParams": [
                            {
                                "name": "_to",
                                "type": "address",
                                "value": "0x44c652d679d99bb406167de9651d2535850fb479"
                            },
                            {
                                "name": "_amount",
                                "type": "uint256",
                                "value": "5,532,381,997,804,610,318"
                            }
                        ],
                        "constructorArguments": "",
                        "name": "mint",
                        "returnParams": [],
                        "signature": "mint(address,uint256)"
                    },
                    "errorInfo": "",
                    "fromAddress": "0x94235659cf8b805b2c658f9ea2d6d6ddbb17c8d7",
                    "gasUsed": 17143,
                    "id": 2,
                    "methodDecoded": true,
                    "operation": "CALL",
                    "output": "",
                    "revert": false,
                    "revertMessage": "",
                    "selector": "0x40c10f19",
                    "status": true,
                    "value": "0"
                },
                "nodeType": 0
            },
            "3": {
                "event": {
                    "contract": "0x9813037ee2218799597d83d4a5b6f3b6778218d9",
                    "decodedLog": {
                        "name": "Transfer",
                        "params": [
                            {
                                "name": "from",
                                "type": "address",
                                "value": "0x0000000000000000000000000000000000000000"
                            },
                            {
                                "name": "to",
                                "type": "address",
                                "value": "0x44c652d679d99bb406167de9651d2535850fb479"
                            },
                            {
                                "decimalAvailable": true,
                                "name": "value",
                                "type": "uint256",
                                "value": "5,532,381,997,804,610,318"
                            }
                        ],
                        "signature": "Transfer(address,address,uint256)"
                    },
                    "id": 3,
                    "logData": "0x0000000000000000000000000000000000000000000000004cc6f81d7ce8e30e",
                    "logDecoded": true,
                    "operation": "EVENT",
                    "revert": false,
                    "status": true,
                    "topics": [
                        "0xddf252ad1be2c89b69c2b068fc378daa952ba7f163c4a11628f55a4df523b3ef",
                        "0x0000000000000000000000000000000000000000000000000000000000000000",
                        "0x00000000000000000000000044c652d679d99bb406167de9651d2535850fb479"
                    ]
                },
                "nodeType": 1
            },
            "4": {
                "invocation": {
                    "address": "0x9813037ee2218799597d83d4a5b6f3b6778218d9",
                    "callData": "0x00000000000000000000000034ad2d8a212cb7d6909d9b523bb5847aa236cb2500000000000000000000000000000000000000000000000007ad7f36261749e7",
                    "decodedMethod": {
                        "callParams": [
                            {
                                "name": "_to",
                                "type": "address",
                                "value": "0x34ad2d8a212cb7d6909d9b523bb5847aa236cb25"
                            },
                            {
                                "name": "_amount",
                                "type": "uint256",
                                "value": "553,238,199,780,461,031"
                            }
                        ],
                        "constructorArguments": "",
                        "name": "mint",
                        "returnParams": [],
                        "signature": "mint(address,uint256)"
                    },
                    "errorInfo": "",
                    "fromAddress": "0x94235659cf8b805b2c658f9ea2d6d6ddbb17c8d7",
                    "gasUsed": 10343,
                    "id": 4,
                    "methodDecoded": true,
                    "operation": "CALL",
                    "output": "",
                    "revert": false,
                    "revertMessage": "",
                    "selector": "0x40c10f19",
                    "status": true,
                    "value": "0"
                },
                "nodeType": 0
            },
            "5": {
                "event": {
                    "contract": "0x9813037ee2218799597d83d4a5b6f3b6778218d9",
                    "decodedLog": {
                        "name": "Transfer",
                        "params": [
                            {
                                "name": "from",
                                "type": "address",
                                "value": "0x0000000000000000000000000000000000000000"
                            },
                            {
                                "name": "to",
                                "type": "address",
                                "value": "0x34ad2d8a212cb7d6909d9b523bb5847aa236cb25"
                            },
                            {
                                "decimalAvailable": true,
                                "name": "value",
                                "type": "uint256",
                                "value": "553,238,199,780,461,031"
                            }
                        ],
                        "signature": "Transfer(address,address,uint256)"
                    },
                    "id": 5,
                    "logData": "0x00000000000000000000000000000000000000000000000007ad7f36261749e7",
                    "logDecoded": true,
                    "operation": "EVENT",
                    "revert": false,
                    "status": true,
                    "topics": [
                        "0xddf252ad1be2c89b69c2b068fc378daa952ba7f163c4a11628f55a4df523b3ef",
                        "0x0000000000000000000000000000000000000000000000000000000000000000",
                        "0x00000000000000000000000034ad2d8a212cb7d6909d9b523bb5847aa236cb25"
                    ]
                },
                "nodeType": 1
            },
            "6": {
                "invocation": {
                    "address": "0x9813037ee2218799597d83d4a5b6f3b6778218d9",
                    "callData": "0x000000000000000000000000526684cde5e9ed50703469e1e21e388ad084e0f800000000000000000000000000000000000000000000000017087da27245ddb7",
                    "decodedMethod": {
                        "callParams": [
                            {
                                "name": "_to",
                                "type": "address",
                                "value": "0x526684cde5e9ed50703469e1e21e388ad084e0f8"
                            },
                            {
                                "name": "_amount",
                                "type": "uint256",
                                "value": "1,659,714,599,341,383,095"
                            }
                        ],
                        "constructorArguments": "",
                        "name": "mint",
                        "returnParams": [],
                        "signature": "mint(address,uint256)"
                    },
                    "errorInfo": "",
                    "fromAddress": "0x94235659cf8b805b2c658f9ea2d6d6ddbb17c8d7",
                    "gasUsed": 10343,
                    "id": 6,
                    "methodDecoded": true,
                    "operation": "CALL",
                    "output": "",
                    "revert": false,
                    "revertMessage": "",
                    "selector": "0x40c10f19",
                    "status": true,
                    "value": "0"
                },
                "nodeType": 0
            },
            "7": {
                "event": {
                    "contract": "0x9813037ee2218799597d83d4a5b6f3b6778218d9",
                    "decodedLog": {
                        "name": "Transfer",
                        "params": [
                            {
                                "name": "from",
                                "type": "address",
                                "value": "0x0000000000000000000000000000000000000000"
                            },
                            {
                                "name": "to",
                                "type": "address",
                                "value": "0x526684cde5e9ed50703469e1e21e388ad084e0f8"
                            },
                            {
                                "decimalAvailable": true,
                                "name": "value",
                                "type": "uint256",
                                "value": "1,659,714,599,341,383,095"
                            }
                        ],
                        "signature": "Transfer(address,address,uint256)"
                    },
                    "id": 7,
                    "logData": "0x00000000000000000000000000000000000000000000000017087da27245ddb7",
                    "logDecoded": true,
                    "operation": "EVENT",
                    "revert": false,
                    "status": true,
                    "topics": [
                        "0xddf252ad1be2c89b69c2b068fc378daa952ba7f163c4a11628f55a4df523b3ef",
                        "0x0000000000000000000000000000000000000000000000000000000000000000",
                        "0x000000000000000000000000526684cde5e9ed50703469e1e21e388ad084e0f8"
                    ]
                },
                "nodeType": 1
            },
            "8": {
                "invocation": {
                    "address": "0x9813037ee2218799597d83d4a5b6f3b6778218d9",
                    "callData": "0x00000000000000000000000068d494e06f70d1dd13f9faacd122799d4044412b00000000000000000000000000000000000000000000000007ad7f36261749e7",
                    "decodedMethod": {
                        "callParams": [
                            {
                                "name": "_to",
                                "type": "address",
                                "value": "0x68d494e06f70d1dd13f9faacd122799d4044412b"
                            },
                            {
                                "name": "_amount",
                                "type": "uint256",
                                "value": "553,238,199,780,461,031"
                            }
                        ],
                        "constructorArguments": "",
                        "name": "mint",
                        "returnParams": [],
                        "signature": "mint(address,uint256)"
                    },
                    "errorInfo": "",
                    "fromAddress": "0x94235659cf8b805b2c658f9ea2d6d6ddbb17c8d7",
                    "gasUsed": 10343,
                    "id": 8,
                    "methodDecoded": true,
                    "operation": "CALL",
                    "output": "",
                    "revert": false,
                    "revertMessage": "",
                    "selector": "0x40c10f19",
                    "status": true,
                    "value": "0"
                },
                "nodeType": 0
            },
            "9": {
                "event": {
                    "contract": "0x9813037ee2218799597d83d4a5b6f3b6778218d9",
                    "decodedLog": {
                        "name": "Transfer",
                        "params": [
                            {
                                "name": "from",
                                "type": "address",
                                "value": "0x0000000000000000000000000000000000000000"
                            },
                            {
                                "name": "to",
                                "type": "address",
                                "value": "0x68d494e06f70d1dd13f9faacd122799d4044412b"
                            },
                            {
                                "decimalAvailable": true,
                                "name": "value",
                                "type": "uint256",
                                "value": "553,238,199,780,461,031"
                            }
                        ],
                        "signature": "Transfer(address,address,uint256)"
                    },
                    "id": 9,
                    "logData": "0x00000000000000000000000000000000000000000000000007ad7f36261749e7",
                    "logDecoded": true,
                    "operation": "EVENT",
                    "revert": false,
                    "status": true,
                    "topics": [
                        "0xddf252ad1be2c89b69c2b068fc378daa952ba7f163c4a11628f55a4df523b3ef",
                        "0x0000000000000000000000000000000000000000000000000000000000000000",
                        "0x00000000000000000000000068d494e06f70d1dd13f9faacd122799d4044412b"
                    ]
                },
                "nodeType": 1
            }
        },
        "gasFlame": [
            {
                "children": [
                    {
                        "children": [
                            {
                                "children": [],
                                "depth": 0,
                                "name": "Initial Gas",
                                "value": 21416
                            },
                            {
                                "children": [
                                    {
                                        "children": [],
                                        "depth": 1,
                                        "name": "balanceOf",
                                        "value": 2535
                                    },
                                    {
                                        "children": [],
                                        "depth": 1,
                                        "name": "mint",
                                        "value": 17143
                                    },
                                    {
                                        "children": [],
                                        "depth": 1,
                                        "name": "mint",
                                        "value": 10343
                                    },
                                    {
                                        "children": [],
                                        "depth": 1,
                                        "name": "mint",
                                        "value": 10343
                                    },
                                    {
                                        "children": [],
                                        "depth": 1,
                                        "name": "mint",
                                        "value": 10343
                                    },
                                    {
                                        "children": [],
                                        "depth": 1,
                                        "name": "mint",
                                        "value": 10343
                                    },
                                    {
                                        "children": [],
                                        "depth": 1,
                                        "name": "transferFrom",
                                        "value": 13018
                                    }
                                ],
                                "depth": 0,
                                "name": "Executed Gas",
                                "value": 184455
                            }
                        ],
                        "depth": -1,
                        "name": "Actual Gas Used",
                        "value": 198271
                    },
                    {
                        "children": [],
                        "depth": -1,
                        "name": "Refunded Gas",
                        "value": 7600
                    }
                ],
                "depth": -2,
                "name": "Total Gas",
                "value": 205871
            }
        ],
        "isConfirmed": true,
        "mainTrace": [
            {
                "children": [
                    {
                        "children": [
                            {
                                "children": [],
                                "depth": 1,
                                "id": 1,
                                "order": 1
                            },
                            {
                                "children": [
                                    {
                                        "children": [],
                                        "depth": 2,
                                        "id": 3,
                                        "order": 3
                                    }
                                ],
                                "depth": 1,
                                "id": 2,
                                "order": 2
                            },
                            {
                                "children": [
                                    {
                                        "children": [],
                                        "depth": 2,
                                        "id": 5,
                                        "order": 5
                                    }
                                ],
                                "depth": 1,
                                "id": 4,
                                "order": 4
                            },
                            {
                                "children": [
                                    {
                                        "children": [],
                                        "depth": 2,
                                        "id": 7,
                                        "order": 7
                                    }
                                ],
                                "depth": 1,
                                "id": 6,
                                "order": 6
                            },
                            {
                                "children": [
                                    {
                                        "children": [],
                                        "depth": 2,
                                        "id": 9,
                                        "order": 9
                                    }
                                ],
                                "depth": 1,
                                "id": 8,
                                "order": 8
                            },
                            {
                                "children": [
                                    {
                                        "children": [],
                                        "depth": 2,
                                        "id": 11,
                                        "order": 11
                                    }
                                ],
                                "depth": 1,
                                "id": 10,
                                "order": 10
                            },
                            {
                                "children": [
                                    {
                                        "children": [],
                                        "depth": 2,
                                        "id": 13,
                                        "order": 13
                                    }
                                ],
                                "depth": 1,
                                "id": 12,
                                "order": 12
                            },
                            {
                                "children": [],
                                "depth": 1,
                                "id": 14,
                                "order": 14
                            }
                        ],
                        "depth": 0,
                        "id": 0,
                        "order": 0
                    }
                ],
                "depth": -1,
                "id": -1,
                "order": -1
            }
        ],
        "mainTraceNodeCount": 15,
        "parentIdMap": {
            "0": -1,
            "1": 0,
            "10": 0,
            "11": 10,
            "12": 0,
            "13": 12,
            "14": 0,
            "2": 0,
            "3": 2,
            "4": 0,
            "5": 4,
            "6": 0,
            "7": 6,
            "8": 0,
            "9": 8
        },
        "tidyTrace": [
            {
                "children": [
                    {
                        "children": [
                            {
                                "children": [
                                    {
                                        "children": [],
                                        "depth": 2,
                                        "id": 3,
                                        "order": 3
                                    }
                                ],
                                "depth": 1,
                                "id": 2,
                                "order": 2
                            },
                            {
                                "children": [
                                    {
                                        "children": [],
                                        "depth": 2,
                                        "id": 5,
                                        "order": 5
                                    }
                                ],
                                "depth": 1,
                                "id": 4,
                                "order": 4
                            },
                            {
                                "children": [
                                    {
                                        "children": [],
                                        "depth": 2,
                                        "id": 7,
                                        "order": 7
                                    }
                                ],
                                "depth": 1,
                                "id": 6,
                                "order": 6
                            },
                            {
                                "children": [
                                    {
                                        "children": [],
                                        "depth": 2,
                                        "id": 9,
                                        "order": 9
                                    }
                                ],
                                "depth": 1,
                                "id": 8,
                                "order": 8
                            },
                            {
                                "children": [
                                    {
                                        "children": [],
                                        "depth": 2,
                                        "id": 11,
                                        "order": 11
                                    }
                                ],
                                "depth": 1,
                                "id": 10,
                                "order": 10
                            },
                            {
                                "children": [
                                    {
                                        "children": [],
                                        "depth": 2,
                                        "id": 13,
                                        "order": 13
                                    }
                                ],
                                "depth": 1,
                                "id": 12,
                                "order": 12
                            },
                            {
                                "children": [],
                                "depth": 1,
                                "id": 14,
                                "order": 14
                            }
                        ],
                        "depth": 0,
                        "id": 0,
                        "order": 0
                    }
                ],
                "depth": -1,
                "id": -1,
                "order": -1
            }
        ],
        "tidyTraceNodeCount": 14
    },
    "state_change": {
        "stateChanges": [
            {
                "address": "0x20e95253e54490d8d30ea41574b24f741ee70201",
                "erc": "ERC-20",
                "slots": [
                    {
                        "current": "0x0000000000000000000000000000000000000000000000000000000000000000",
                        "key": "0x8411b2a76f2db2c39a2a39a9474ec76c7fe34e20816e22744d222ee6e2703940",
                        "prev": "0x000000000000000000000000000000000000000000000000005df896d3b15214"
                    },
                    {
                        "current": "0x00000000000000000000000000000000000000000000000003ef59d5dab5bb94",
                        "key": "0xb2bb4fee71111e4fdf83648b27dc6f647095961df544cc25ee416568ea0ef0f1",
                        "prev": "0x0000000000000000000000000000000000000000000000000391613f07046980"
                    }
                ],
                "storageVariables": [
                    {
                        "name": "balanceOf",
                        "type": "mapping(address => uint256)",
                        "value": {
                            "pairs": [
                                {
                                    "key": "0x6baed02eccfa8e3633e3663ed9f4018c2956663c",
                                    "value": {
                                        "current": "0",
                                        "prev": "26450499514487316",
                                        "typeTag": 1
                                    }
                                },
                                {
                                    "key": "0x94235659cf8b805b2c658f9ea2d6d6ddbb17c8d7",
                                    "value": {
                                        "current": "283544076579879828",
                                        "prev": "257093577065392512",
                                        "typeTag": 1
                                    }
                                }
                            ],
                            "typeTag": 4
                        }
                    }
                ]
            },
            {
                "address": "0x94235659cf8b805b2c658f9ea2d6d6ddbb17c8d7",
                "erc": "",
                "slots": [
                    {
                        "current": "0x00000000000000000000000000000000000000000000000a462f5ba16d8a4e9b",
                        "key": "0x8d1108e10bcb7c27dddfc02ed9d693a074039d026cf4ea4240b40f7d581ac811",
                        "prev": "0x00000000000000000000000000000000000000000000000a462e97eabc14e252"
                    },
                    {
                        "current": "0x0000000000000000000000000000000000000000000000000000000000cd02f7",
                        "key": "0x8d1108e10bcb7c27dddfc02ed9d693a074039d026cf4ea4240b40f7d581ac810",
                        "prev": "0x0000000000000000000000000000000000000000000000000000000000cd02eb"
                    },
                    {
                        "current": "0x00000000000000000000000000000000000000000004258caada11e6025cd2ce",
                        "key": "0x872044fa3045353003189ab8937a19aca165f024aae022185da1729e85f76504",
                        "prev": "0x0000000000000000000000000000000000000000000000000000000000000000"
                    },
                    {
                        "current": "0x000000000000000000000000000000000000000000000000005df896d3b15214",
                        "key": "0x872044fa3045353003189ab8937a19aca165f024aae022185da1729e85f76503",
                        "prev": "0x0000000000000000000000000000000000000000000000000000000000000000"
                    }
                ],
                "storageVariables": [
                    {
                        "name": "userInfo",
                        "type": "mapping(uint256 => mapping(address => struct TopDog.UserInfo))",
                        "value": {
                            "pairs": [
                                {
                                    "key": "3",
                                    "value": {
                                        "pairs": [
                                            {
                                                "key": "0x6baed02eccfa8e3633e3663ed9f4018c2956663c",
                                                "value": {
                                                    "fields": [
                                                        {
                                                            "name": "amount",
                                                            "type": "uint256",
                                                            "value": {
                                                                "current": "26450499514487316",
                                                                "prev": "0",
                                                                "typeTag": 1
                                                            }
                                                        },
                                                        {
                                                            "name": "rewardDebt",
                                                            "type": "uint256",
                                                            "value": {
                                                                "current": "5013025693667223859417806",
                                                                "prev": "0",
                                                                "typeTag": 1
                                                            }
                                                        }
                                                    ],
                                                    "typeTag": 3
                                                }
                                            }
                                        ],
                                        "typeTag": 4
                                    }
                                }
                            ],
                            "typeTag": 4
                        }
                    },
                    {
                        "name": "poolInfo",
                        "type": "struct TopDog.PoolInfo[]",
                        "value": {
                            "elemType": "struct TopDog.PoolInfo",
                            "elems": [
                                {
                                    "index": 3,
                                    "value": {
                                        "fields": [
                                            {
                                                "name": "lastRewardBlock",
                                                "type": "uint256",
                                                "value": {
                                                    "current": "13435639",
                                                    "prev": "13435627",
                                                    "typeTag": 1
                                                }
                                            },
                                            {
                                                "name": "accBonePerShare",
                                                "type": "uint256",
                                                "value": {
                                                    "current": "189524802392541515419",
                                                    "prev": "189524587203112788562",
                                                    "typeTag": 1
                                                }
                                            }
                                        ],
                                        "typeTag": 3
                                    }
                                }
                            ],
                            "typeTag": 2
                        }
                    }
                ]
            },
            {
                "address": "0x9813037ee2218799597d83d4a5b6f3b6778218d9",
                "erc": "ERC-20",
                "slots": [
                    {
                        "current": "0x00000000000000000000000000000000000000000000065ca67f664e3f32d3d3",
                        "key": "0x763057f078aa7e7e23cb501c0e655994f94ad9e73cf50517be6c1f31e2346652",
                        "prev": "0x00000000000000000000000000000000000000000000065c9ed1e718191b89ec"
                    },
                    {
                        "current": "0x00000000000000000000000000000000000000000007fd9687d3f3c78ce670a7",
                        "key": "0x08719e687e359a4458db506599159c4fb125964b68d346e1860bec165c2d5e12",
                        "prev": "0x00000000000000000000000000000000000000000007fd93880e42a0abcd9218"
                    },
                    {
                        "current": "0x0000000000000000000000000000000000000000008a4c3ae1a091b16e7352f3",
                        "key": "0x0000000000000000000000000000000000000000000000000000000000000002",
                        "prev": "0x0000000000000000000000000000000000000000008a4c376eb06c5e51fd1fd1"
                    },
                    {
                        "current": "0x000000000000000000000000000000000000000000004329d182d6a148f1e80a",
                        "key": "0xf99b9b7944c440555589dfbe339ba3e81b891b1b8152a55e2238ae6fb5c692f5",
                        "prev": "0x00000000000000000000000000000000000000000000432984bbde83cc0904fc"
                    },
                    {
                        "current": "0x000000000000000000000000000000000000000000000654319010d43e37a532",
                        "key": "0x8f146d4177128efc00537c107d186b6584b3c210b8fe27e565598332404b2cf8",
                        "prev": "0x00000000000000000000000000000000000000000000065429e2919e18205b4b"
                    },
                    {
                        "current": "0x000000000000000000000000000000000000000000001315e59d7c371638398e",
                        "key": "0x70b005a35284ed6ce9f0b87be7bfc0c975e05167ba94565db5eeadf6c37c25e1",
                        "prev": "0x000000000000000000000000000000000000000000001315ce94fe94a3f25bd7"
                    }
                ],
                "storageVariables": [
                    {
                        "name": "_totalSupply",
                        "type": "uint256",
                        "value": {
                            "current": "167191749128828040355468019",
                            "prev": "167191685506435065602449361",
                            "typeTag": 1
                        }
                    },
                    {
                        "name": "_balances",
                        "type": "mapping(address => uint256)",
                        "value": {
                            "pairs": [
                                {
                                    "key": "0x34ad2d8a212cb7d6909d9b523bb5847aa236cb25",
                                    "value": {
                                        "current": "29887296772417741366578",
                                        "prev": "29886743534217960905547",
                                        "typeTag": 1
                                    }
                                },
                                {
                                    "key": "0x44c652d679d99bb406167de9651d2535850fb479",
                                    "value": {
                                        "current": "317169967724177422149642",
                                        "prev": "317164435342179617539324",
                                        "typeTag": 1
                                    }
                                },
                                {
                                    "key": "0x526684cde5e9ed50703469e1e21e388ad084e0f8",
                                    "value": {
                                        "current": "90128890317253226543502",
                                        "prev": "90127230602653885160407",
                                        "typeTag": 1
                                    }
                                },
                                {
                                    "key": "0x68d494e06f70d1dd13f9faacd122799d4044412b",
                                    "value": {
                                        "current": "30043296772417742099411",
                                        "prev": "30042743534217961638380",
                                        "typeTag": 1
                                    }
                                },
                                {
                                    "key": "0x94235659cf8b805b2c658f9ea2d6d6ddbb17c8d7",
                                    "value": {
                                        "current": "9660016256513934488924327",
                                        "prev": "9659960932693956442821144",
                                        "typeTag": 1
                                    }
                                }
                            ],
                            "typeTag": 4
                        }
                    }
                ]
            }
        ]
    }
}