{
    "balance_change": {
        "balanceChanges": [
            {
                "account": "0x492a0ea68897bb9214c0f2b26726bcd489534312",
                "assets": [
                    {
                        "address": "0xcc8fa225d80b9c7d42f96e9570156c65d6caaa25",
                        "amount": "3,470",
                        "iconUrl": "https://assets.blocksec.com/icon/fc2a01d842c57a6a1fac3bd31569aeef596b047fed4623ea8486a1bc2aefb50d.png",
                        "isERC1155": false,
                        "isERC721": false,
                        "sign": true,
                        "value": "0.50718142"
                    }
                ]
            },
            {
                "account": "0x1a2a1c938ce3ec39b6d47113c7955baa9dd454f2",
                "assets": [
                    {
                        "address": "0xcc8fa225d80b9c7d42f96e9570156c65d6caaa25",
                        "amount": "3,470",
                        "iconUrl": "https://assets.blocksec.com/icon/fc2a01d842c57a6a1fac3bd31569aeef596b047fed4623ea8486a1bc2aefb50d.png",
                        "isERC1155": false,
                        "isERC721": false,
                        "sign": false,
                        "value": "0.50718142"
                    }
                ]
            }
        ]
    },
    "profile": {
        "basic_info": {
            "baseFee": "25.06690071",
            "blockNumber": 13047459,
            "callData": "0x993e1c4200000000000000000000000000000000000000000000000000000000000a3799000000000000000000000000492a0ea68897bb9214c0f2b26726bcd489534312000000000000000000000000cc8fa225d80b9c7d42f96e9570156c65d6caaa250000000000000000000000000000000000000000000000000000000000000d8e00000000000000000000000000000000000000000000000000000000000000a00000000000000000000000000000000000000000000000000000000000000210011d1347615c7abcfbedb60e0cf10407b02394fa9428fdcf3446751e0526ebdf1c7cef07f8aef16d21e05060c08b85903580a492c0083e2770e6a5afe3810325521b01b56801fbd29316e4fffbeb6df22d66d7281a9d8d2698405d257e6325563a93f52078178e4d88a3a33c9d0bcadb2888a736742c96fdc0150f512d02e5434456e11c01a352a9287196f36cfe1087bb6816bb0e5fcd4ee6262d1dd7600770fd4bf81edc55d6a7961f5744b14550bdef1c5250dd43bc153b5958aa21cc0bbe9e5cf1a5261b01e8cccf15ef83272f353f691f788a8758f9b54264bda90f7ab4584dd8149eaac03e378e376c8d851d171b1cbeb40f2c1fab46e0bfd319d19cf291e8c25bd059541c011e4556333849589244ad8565e1b57d719e167488e1c6dee6907d027be8c01442783ed477c12eb043b024f436b6be330b9e1e8c96bb1c0f9e6feac0fa4d1cdab81b015081c2c8b3a0a87c10e784e8ef818ba2bef9c72701cf34bb634532cffc2dbcce75d4edb00b27e705ceb27d605040c5ef50c2b7aa1058da4e292f3894d2f0526c1c010b41b4578103d8790ec35bf61d8437a2281ff0d180fd47a7e5a51958f1f4b5040efa4136a764fa34f254d232d0b10c52369ce7fe14d91b71858239d9e43d5c8e1c01f0969bef995bb8a4338d92aeb33b69f8acf6fb7bddc3ce3301b8fddb88907cb030297e617d23ba95a299de0613858ba639fa9e5b75e124112a84e1371f4ec8541b00000000000000000000000000000000",
            "debugEnable": true,
            "errorInfo": "",
            "eventCount": 2,
            "feeRecipient": "0x0708f87a089a91c65d48721aa941084648562287",
            "formatValue": "0",
            "gasLimit": 293188,
            "gasPrice": "28.06690071",
            "gasUsed": 212365,
            "intTxnCount": 25,
            "internalRevert": false,
            "internalRevertMessage": "",
            "isContractCreation": false,
            "isFlashloan": false,
            "maxFee": "32.384281364",
            "nonce": 18,
            "overwritedBlockNumber": -1,
            "priorityFee": "3",
            "receiver": "0x1a2a1c938ce3ec39b6d47113c7955baa9dd454f2",
            "revertMessage": "",
            "sender": "0x492a0ea68897bb9214c0f2b26726bcd489534312",
            "simulationEnable": true,
            "sourceTxnHash": "0x9ecd572afbf5f10e083d4009cde20ae55da6602bdc538e5215453c37ea8ea830",
            "status": true,
            "timestamp": "2021-08-18T05:50:09Z",
            "transactionFee": "0.00596042736927915",
            "txnHash": "0x9ecd572afbf5f10e083d4009cde20ae55da6602bdc538e5215453c37ea8ea830",
            "txnIndex": 162,
            "type": 2,
            "value": "0"
        },
        "fund_flow": [
            {
                "amount": "3,470",
                "from": "0x1a2a1c938ce3ec39b6d47113c7955baa9dd454f2",
                "id": 1,
                "isERC1155": false,
                "isERC721": false,
                "isReverted": false,
                "order": 1,
                "to": "0x492a0ea68897bb9214c0f2b26726bcd489534312",
                "token": "0xcc8fa225d80b9c7d42f96e9570156c65d6caaa25"
            }
        ],
        "token_infos": [
            {
                "address": "0xc02aaa39b223fe8d0a0e5c4f27ead9083c756cc2",
                "decimals": 18
            },
            {
                "address": "0xcc8fa225d80b9c7d42f96e9570156c65d6caaa25",
                "decimals": 0
            },
            {
                "address": "0xeeeeeeeeeeeeeeeeeeeeeeeeeeeeeeeeeeeeeeee",
                "decimals": 18
            }
        ]
    },
    "address_label": {
        "labels": [
            {
                "address": "0x1a2a1c938ce3ec39b6d47113c7955baa9dd454f2",
                "label": "Axie Infinity: Ronin Bridge"
            },
            {
                "address": "0x8407dc57739bcda7aa53ca6f12f82f9d51c2f21e",
                "label": "MainchainGatewayManager"
            },
            {
                "address": "0x0000000000000000000000000000000000000002",
                "label": "Precompiled"
            },
            {
                "address": "0x0000000000000000000000000000000000000003",
                "label": "Precompiled"
            },
            {
                "address": "0x0000000000000000000000000000000000000004",
                "label": "Precompiled"
            },
            {
                "address": "0xeeeeeeeeeeeeeeeeeeeeeeeeeeeeeeeeeeeeeeee",
                "label": "Ether"
            },
            {
                "address": "0xcc8fa225d80b9c7d42f96e9570156c65d6caaa25",
                "label": "Axie Infinity: SLP Token"
            },
            {
                "address": "0xc02aaa39b223fe8d0a0e5c4f27ead9083c756cc2",
                "label": "Wrapped Ether (WETH)"
            },
            {
                "address": "0x33e71e649abdc09f650ad44139674828a2075ad2",
                "label": "Registry"
            },
            {
                "address": "0x42b19dca30fd612b1757682c074497847f2b57e0",
                "label": "MainchainValidator"
            },
            {
                "address": "0x0000000000000000000000000000000000000001",
                "label": "Precompiled"
            }
        ]
    },
    "trace": {
        "accountLabels": null,
        "dataMap": {
            "-1": {
                "invocation": {
                    "address": "0x492a0ea68897bb9214c0f2b26726bcd489534312",
                    "callData": "",
                    "decodedMethod": null,
                    "errorInfo": "",
                    "fromAddress": "",
                    "gasUsed": 0,
                    "id": -1,
                    "methodDecoded": false,
                    "operation": "",
                    "output": "",
                    "revert": false,
                    "revertMessage": "",
                    "selector": "",
                    "status": false,
                    "value": ""
                },
                "nodeType": 0
            },
            "0": {
                "invocation": {
                    "address": "0x1a2a1c938ce3ec39b6d47113c7955baa9dd454f2",
                    "callData": "0x00000000000000000000000000000000000000000000000000000000000a3799000000000000000000000000492a0ea68897bb9214c0f2b26726bcd489534312000000000000000000000000cc8fa225d80b9c7d42f96e9570156c65d6caaa250000000000000000000000000000000000000000000000000000000000000d8e00000000000000000000000000000000000000000000000000000000000000a00000000000000000000000000000000000000000000000000000000000000210011d1347615c7abcfbedb60e0cf10407b02394fa9428fdcf3446751e0526ebdf1c7cef07f8aef16d21e05060c08b85903580a492c0083e2770e6a5afe3810325521b01b56801fbd29316e4fffbeb6df22d66d7281a9d8d2698405d257e6325563a93f52078178e4d88a3a33c9d0bcadb2888a736742c96fdc0150f512d02e5434456e11c01a352a9287196f36cfe1087bb6816bb0e5fcd4ee6262d1dd7600770fd4bf81edc55d6a7961f5744b14550bdef1c5250dd43bc153b5958aa21cc0bbe9e5cf1a5261b01e8cccf15ef83272f353f691f788a8758f9b54264bda90f7ab4584dd8149eaac03e378e376c8d851d171b1cbeb40f2c1fab46e0bfd319d19cf291e8c25bd059541c011e4556333849589244ad8565e1b57d719e167488e1c6dee6907d027be8c01442783ed477c12eb043b024f436b6be330b9e1e8c96bb1c0f9e6feac0fa4d1cdab81b015081c2c8b3a0a87c10e784e8ef818ba2bef9c72701cf34bb634532cffc2dbcce75d4edb00b27e705ceb27d605040c5ef50c2b7aa1058da4e292f3894d2f0526c1c010b41b4578103d8790ec35bf61d8437a2281ff0d180fd47a7e5a51958f1f4b5040efa4136a764fa34f254d232d0b10c52369ce7fe14d91b71858239d9e43d5c8e1c01f0969bef995bb8a4338d92aeb33b69f8acf6fb7bddc3ce3301b8fddb88907cb030297e617d23ba95a299de0613858ba639fa9e5b75e124112a84e1371f4ec8541b00000000000000000000000000000000",
                    "decodedMethod": {
                        "callParams": [
                            {
                                "name": "_withdrawalId",
                                "type": "uint256",
                                "value": "669,593"
                            },
                            {
                                "name": "_user",
                                "type": "address",
                                "value": "0x492a0ea68897bb9214c0f2b26726bcd489534312"
                            },
                            {
                                "name": "_token",
                                "type": "address",
                                "value": "0xcc8fa225d80b9c7d42f96e9570156c65d6caaa25"
                            },
                            {
                                "name": "_amount",
                                "type": "uint256",
                                "value": "3,470"
                            },
                            {
                                "name": "_signatures",
                                "type": "bytes",
                                "value": "0x011d1347615c7abcfbedb60e0cf10407b02394fa9428fdcf3446751e0526ebdf1c7cef07f8aef16d21e05060c08b85903580a492c0083e2770e6a5afe3810325521b01b56801fbd29316e4fffbeb6df22d66d7281a9d8d2698405d257e6325563a93f52078178e4d88a3a33c9d0bcadb2888a736742c96fdc0150f512d02e5434456e11c01a352a9287196f36cfe1087bb6816bb0e5fcd4ee6262d1dd7600770fd4bf81edc55d6a7961f5744b14550bdef1c5250dd43bc153b5958aa21cc0bbe9e5cf1a5261b01e8cccf15ef83272f353f691f788a8758f9b54264bda90f7ab4584dd8149eaac03e378e376c8d851d171b1cbeb40f2c1fab46e0bfd319d19cf291e8c25bd059541c011e4556333849589244ad8565e1b57d719e167488e1c6dee6907d027be8c01442783ed477c12eb043b024f436b6be330b9e1e8c96bb1c0f9e6feac0fa4d1cdab81b015081c2c8b3a0a87c10e784e8ef818ba2bef9c72701cf34bb634532cffc2dbcce75d4edb00b27e705ceb27d605040c5ef50c2b7aa1058da4e292f3894d2f0526c1c010b41b4578103d8790ec35bf61d8437a2281ff0d180fd47a7e5a51958f1f4b5040efa4136a764fa34f254d232d0b10c52369ce7fe14d91b71858239d9e43d5c8e1c01f0969bef995bb8a4338d92aeb33b69f8acf6fb7bddc3ce3301b8fddb88907cb030297e617d23ba95a299de0613858ba639fa9e5b75e124112a84e1371f4ec8541b"
                            }
                        ],
                        "constructorArguments": "",
                        "name": "withdrawERC20For",
                        "returnParams": [],
                        "signature": "withdrawERC20For(uint256,address,address,uint256,bytes)"
                    },
                    "errorInfo": "",
                    "fromAddress": "0x492a0ea68897bb9214c0f2b26726bcd489534312",
                    "gasUsed": 212365,
                    "id": 0,
                    "methodDecoded": true,
                    "operation": "CALL",
                    "output": "",
                    "revert": false,
                    "revertMessage": "",
                    "selector": "0x993e1c42",
                    "status": true,
                    "value": "0"
                },
                "nodeType": 0
            },
            "1": {
                "invocation": {
                    "address": "0x8407dc57739bcda7aa53ca6f12f82f9d51c2f21e",
                    "callData": "0x00000000000000000000000000000000000000000000000000000000000a3799000000000000000000000000492a0ea68897bb9214c0f2b26726bcd489534312000000000000000000000000cc8fa225d80b9c7d42f96e9570156c65d6caaa250000000000000000000000000000000000000000000000000000000000000d8e00000000000000000000000000000000000000000000000000000000000000a00000000000000000000000000000000000000000000000000000000000000210011d1347615c7abcfbedb60e0cf10407b02394fa9428fdcf3446751e0526ebdf1c7cef07f8aef16d21e05060c08b85903580a492c0083e2770e6a5afe3810325521b01b56801fbd29316e4fffbeb6df22d66d7281a9d8d2698405d257e6325563a93f52078178e4d88a3a33c9d0bcadb2888a736742c96fdc0150f512d02e5434456e11c01a352a9287196f36cfe1087bb6816bb0e5fcd4ee6262d1dd7600770fd4bf81edc55d6a7961f5744b14550bdef1c5250dd43bc153b5958aa21cc0bbe9e5cf1a5261b01e8cccf15ef83272f353f691f788a8758f9b54264bda90f7ab4584dd8149eaac03e378e376c8d851d171b1cbeb40f2c1fab46e0bfd319d19cf291e8c25bd059541c011e4556333849589244ad8565e1b57d719e167488e1c6dee6907d027be8c01442783ed477c12eb043b024f436b6be330b9e1e8c96bb1c0f9e6feac0fa4d1cdab81b015081c2c8b3a0a87c10e784e8ef818ba2bef9c72701cf34bb634532cffc2dbcce75d4edb00b27e705ceb27d605040c5ef50c2b7aa1058da4e292f3894d2f0526c1c010b41b4578103d8790ec35bf61d8437a2281ff0d180fd47a7e5a51958f1f4b5040efa4136a764fa34f254d232d0b10c52369ce7fe14d91b71858239d9e43d5c8e1c01f0969bef995bb8a4338d92aeb33b69f8acf6fb7bddc3ce3301b8fddb88907cb030297e617d23ba95a299de0613858ba639fa9e5b75e124112a84e1371f4ec8541b00000000000000000000000000000000",
                    "decodedMethod": {
                        "callParams": [
                            {
                                "name": "_withdrawalId",
                                "type": "uint256",
                                "value": "669,593"
                            },
                            {
                                "name": "_user",
                                "type": "address",
                                "value": "0x492a0ea68897bb9214c0f2b26726bcd489534312"
                            },
                            {
                                "name": "_token",
                                "type": "address",
                                "value": "0xcc8fa225d80b9c7d42f96e9570156c65d6caaa25"
                            },
                            {
                                "name": "_amount",
                                "type": "uint256",
                                "value": "3,470"
                            },
                            {
                                "name": "_signatures",
                                "type": "bytes",
                                "value": "0x011d1347615c7abcfbedb60e0cf10407b02394fa9428fdcf3446751e0526ebdf1c7cef07f8aef16d21e05060c08b85903580a492c0083e2770e6a5afe3810325521b01b56801fbd29316e4fffbeb6df22d66d7281a9d8d2698405d257e6325563a93f52078178e4d88a3a33c9d0bcadb2888a736742c96fdc0150f512d02e5434456e11c01a352a9287196f36cfe1087bb6816bb0e5fcd4ee6262d1dd7600770fd4bf81edc55d6a7961f5744b14550bdef1c5250dd43bc153b5958aa21cc0bbe9e5cf1a5261b01e8cccf15ef83272f353f691f788a8758f9b54264bda90f7ab4584dd8149eaac03e378e376c8d851d171b1cbeb40f2c1fab46e0bfd319d19cf291e8c25bd059541c011e4556333849589244ad8565e1b57d719e167488e1c6dee6907d027be8c01442783ed477c12eb043b024f436b6be330b9e1e8c96bb1c0f9e6feac0fa4d1cdab81b015081c2c8b3a0a87c10e784e8ef818ba2bef9c72701cf34bb634532cffc2dbcce75d4edb00b27e705ceb27d605040c5ef50c2b7aa1058da4e292f3894d2f0526c1c010b41b4578103d8790ec35bf61d8437a2281ff0d180fd47a7e5a51958f1f4b5040efa4136a764fa34f254d232d0b10c52369ce7fe14d91b71858239d9e43d5c8e1c01f0969bef995bb8a4338d92aeb33b69f8acf6fb7bddc3ce3301b8fddb88907cb030297e617d23ba95a299de0613858ba639fa9e5b75e124112a84e1371f4ec8541b"
                            }
                        ],
                        "constructorArguments": "",
                        "name": "withdrawERC20For",
                        "returnParams": [],
                        "signature": "withdrawERC20For(uint256,address,address,uint256,bytes)"
                    },
                    "errorInfo": "",
                    "fromAddress": "0x1a2a1c938ce3ec39b6d47113c7955baa9dd454f2",
                    "gasUsed": 176257,
                    "id": 1,
                    "methodDecoded": true,
                    "operation": "DELEGATECALL",
                    "output": "",
                    "revert": false,
                    "revertMessage": "",
                    "selector": "0x993e1c42",
                    "status": true,
                    "value": "0"
                },
                "nodeType": 0
            },
            "10": {
                "invocation": {
                    "address": "0x42b19dca30fd612b1757682c074497847f2b57e0",
                    "callData": "0x00000000000000000000000070bb1fb41c8c42f6ddd53a708e2b82209495e455",
                    "decodedMethod": {
                        "callParams": [
                            {
                                "name": "_addr",
                                "type": "address",
                                "value": "0x70bb1fb41c8c42f6ddd53a708e2b82209495e455"
                            }
                        ],
                        "constructorArguments": "",
                        "name": "isValidator",
                        "returnParams": [
                            {
                                "name": "",
                                "type": "bool",
                                "value": true
                            }
                        ],
                        "signature": "isValidator(address)"
                    },
                    "errorInfo": "",
                    "fromAddress": "0x1a2a1c938ce3ec39b6d47113c7955baa9dd454f2",
                    "gasUsed": 2545,
                    "id": 10,
                    "methodDecoded": true,
                    "operation": "STATICCALL",
                    "output": "0x0000000000000000000000000000000000000000000000000000000000000001",
                    "revert": false,
                    "revertMessage": "",
                    "selector": "0xfacd743b",
                    "status": true,
                    "value": "0"
                },
                "nodeType": 0
            },
            "11": {
                "invocation": {
                    "address": "0x0000000000000000000000000000000000000001",
                    "callData": "0x30436656cb19adc4e22932a558ee2546e9f0b34df1cb044ed1c0b335000000000000000000000000000000000000000000000000000000000000001ce8cccf15ef83272f353f691f788a8758f9b54264bda90f7ab4584dd8149eaac03e378e376c8d851d171b1cbeb40f2c1fab46e0bfd319d19cf291e8c25bd05954",
                    "decodedMethod": {
                        "callParams": [
                            {
                                "name": "hash",
                                "type": "bytes32",
                                "value": "0x07b6401f30436656cb19adc4e22932a558ee2546e9f0b34df1cb044ed1c0b335"
                            },
                            {
                                "name": "v",
                                "type": "uint256",
                                "value": "28"
                            },
                            {
                                "name": "r",
                                "type": "bytes32",
                                "value": "0xe8cccf15ef83272f353f691f788a8758f9b54264bda90f7ab4584dd8149eaac0"
                            },
                            {
                                "name": "s",
                                "type": "bytes32",
                                "value": "0x3e378e376c8d851d171b1cbeb40f2c1fab46e0bfd319d19cf291e8c25bd05954"
                            }
                        ],
                        "constructorArguments": "",
                        "name": "ecrecover",
                        "returnParams": [
                            {
                                "name": "",
                                "type": "address",
                                "value": "0x9d5d175c7d7dfdc7038420eb2725d4601a41b751"
                            }
                        ],
                        "signature": "ecrecover(bytes32,uint256,bytes32,bytes32)"
                    },
                    "errorInfo": "",
                    "fromAddress": "0x1a2a1c938ce3ec39b6d47113c7955baa9dd454f2",
                    "gasUsed": 3000,
                    "id": 11,
                    "methodDecoded": true,
                    "operation": "STATICCALL",
                    "output": "0x0000000000000000000000009d5d175c7d7dfdc7038420eb2725d4601a41b751",
                    "revert": false,
                    "revertMessage": "",
                    "selector": "0x07b6401f",
                    "status": true,
                    "value": "0"
                },
                "nodeType": 0
            },
            "12": {
                "invocation": {
                    "address": "0x42b19dca30fd612b1757682c074497847f2b57e0",
                    "callData": "0x0000000000000000000000009d5d175c7d7dfdc7038420eb2725d4601a41b751",
                    "decodedMethod": {
                        "callParams": [
                            {
                                "name": "_addr",
                                "type": "address",
                                "value": "0x9d5d175c7d7dfdc7038420eb2725d4601a41b751"
                            }
                        ],
                        "constructorArguments": "",
                        "name": "isValidator",
                        "returnParams": [
                            {
                                "name": "",
                                "type": "bool",
                                "value": true
                            }
                        ],
                        "signature": "isValidator(address)"
                    },
                    "errorInfo": "",
                    "fromAddress": "0x1a2a1c938ce3ec39b6d47113c7955baa9dd454f2",
                    "gasUsed": 2545,
                    "id": 12,
                    "methodDecoded": true,
                    "operation": "STATICCALL",
                    "output": "0x0000000000000000000000000000000000000000000000000000000000000001",
                    "revert": false,
                    "revertMessage": "",
                    "selector": "0xfacd743b",
                    "status": true,
                    "value": "0"
                },
                "nodeType": 0
            },
            "13": {
                "invocation": {
                    "address": "0x0000000000000000000000000000000000000001",
                    "callData": "0x30436656cb19adc4e22932a558ee2546e9f0b34df1cb044ed1c0b335000000000000000000000000000000000000000000000000000000000000001b1e4556333849589244ad8565e1b57d719e167488e1c6dee6907d027be8c01442783ed477c12eb043b024f436b6be330b9e1e8c96bb1c0f9e6feac0fa4d1cdab8",
                    "decodedMethod": {
                        "callParams": [
                            {
                                "name": "hash",
                                "type": "bytes32",
                                "value": "0x07b6401f30436656cb19adc4e22932a558ee2546e9f0b34df1cb044ed1c0b335"
                            },
                            {
                                "name": "v",
                                "type": "uint256",
                                "value": "27"
                            },
                            {
                                "name": "r",
                                "type": "bytes32",
                                "value": "0x1e4556333849589244ad8565e1b57d719e167488e1c6dee6907d027be8c01442"
                            },
                            {
                                "name": "s",
                                "type": "bytes32",
                                "value": "0x783ed477c12eb043b024f436b6be330b9e1e8c96bb1c0f9e6feac0fa4d1cdab8"
                            }
                        ],
                        "constructorArguments": "",
                        "name": "ecrecover",
                        "returnParams": [
                            {
                                "name": "",
                                "type": "address",
                                "value": "0x9edeb211cde35d6e8a0c732f9e0c786725e72fe9"
                            }
                        ],
                        "signature": "ecrecover(bytes32,uint256,bytes32,bytes32)"
                    },
                    "errorInfo": "",
                    "fromAddress": "0x1a2a1c938ce3ec39b6d47113c7955baa9dd454f2",
                    "gasUsed": 3000,
                    "id": 13,
                    "methodDecoded": true,
                    "operation": "STATICCALL",
                    "output": "0x0000000000000000000000009edeb211cde35d6e8a0c732f9e0c786725e72fe9",
                    "revert": false,
                    "revertMessage": "",
                    "selector": "0x07b6401f",
                    "status": true,
                    "value": "0"
                },
                "nodeType": 0
            },
            "14": {
                "invocation": {
                    "address": "0x42b19dca30fd612b1757682c074497847f2b57e0",
                    "callData": "0x0000000000000000000000009edeb211cde35d6e8a0c732f9e0c786725e72fe9",
                    "decodedMethod": {
                        "callParams": [
                            {
                                "name": "_addr",
                                "type": "address",
                                "value": "0x9edeb211cde35d6e8a0c732f9e0c786725e72fe9"
                            }
                        ],
                        "constructorArguments": "",
                        "name": "isValidator",
                        "returnParams": [
                            {
                                "name": "",
                                "type": "bool",
                                "value": true
                            }
                        ],
                        "signature": "isValidator(address)"
                    },
                    "errorInfo": "",
                    "fromAddress": "0x1a2a1c938ce3ec39b6d47113c7955baa9dd454f2",
                    "gasUsed": 2545,
                    "id": 14,
                    "methodDecoded": true,
                    "operation": "STATICCALL",
                    "output": "0x0000000000000000000000000000000000000000000000000000000000000001",
                    "revert": false,
                    "revertMessage": "",
                    "selector": "0xfacd743b",
                    "status": true,
                    "value": "0"
                },
                "nodeType": 0
            },
            "15": {
                "invocation": {
                    "address": "0x0000000000000000000000000000000000000001",
                    "callData": "0x30436656cb19adc4e22932a558ee2546e9f0b34df1cb044ed1c0b335000000000000000000000000000000000000000000000000000000000000001c5081c2c8b3a0a87c10e784e8ef818ba2bef9c72701cf34bb634532cffc2dbcce75d4edb00b27e705ceb27d605040c5ef50c2b7aa1058da4e292f3894d2f0526c",
                    "decodedMethod": {
                        "callParams": [
                            {
                                "name": "hash",
                                "type": "bytes32",
                                "value": "0x07b6401f30436656cb19adc4e22932a558ee2546e9f0b34df1cb044ed1c0b335"
                            },
                            {
                                "name": "v",
                                "type": "uint256",
                                "value": "28"
                            },
                            {
                                "name": "r",
                                "type": "bytes32",
                                "value": "0x5081c2c8b3a0a87c10e784e8ef818ba2bef9c72701cf34bb634532cffc2dbcce"
                            },
                            {
                                "name": "s",
                                "type": "bytes32",
                                "value": "0x75d4edb00b27e705ceb27d605040c5ef50c2b7aa1058da4e292f3894d2f0526c"
                            }
                        ],
                        "constructorArguments": "",
                        "name": "ecrecover",
                        "returnParams": [
                            {
                                "name": "",
                                "type": "address",
                                "value": "0xe70cbf18114822c0e32c6b35d2478f02a8ac78a9"
                            }
                        ],
                        "signature": "ecrecover(bytes32,uint256,bytes32,bytes32)"
                    },
                    "errorInfo": "",
                    "fromAddress": "0x1a2a1c938ce3ec39b6d47113c7955baa9dd454f2",
                    "gasUsed": 3000,
                    "id": 15,
                    "methodDecoded": true,
                    "operation": "STATICCALL",
                    "output": "0x000000000000000000000000e70cbf18114822c0e32c6b35d2478f02a8ac78a9",
                    "revert": false,
                    "revertMessage": "",
                    "selector": "0x07b6401f",
                    "status": true,
                    "value": "0"
                },
                "nodeType": 0
            },
            "16": {
                "invocation": {
                    "address": "0x42b19dca30fd612b1757682c074497847f2b57e0",
                    "callData": "0x000000000000000000000000e70cbf18114822c0e32c6b35d2478f02a8ac78a9",
                    "decodedMethod": {
                        "callParams": [
                            {
                                "name": "_addr",
                                "type": "address",
                                "value": "0xe70cbf18114822c0e32c6b35d2478f02a8ac78a9"
                            }
                        ],
                        "constructorArguments": "",
                        "name": "isValidator",
                        "returnParams": [
                            {
                                "name": "",
                                "type": "bool",
                                "value": true
                            }
                        ],
                        "signature": "isValidator(address)"
                    },
                    "errorInfo": "",
                    "fromAddress": "0x1a2a1c938ce3ec39b6d47113c7955baa9dd454f2",
                    "gasUsed": 2545,
                    "id": 16,
                    "methodDecoded": true,
                    "operation": "STATICCALL",
                    "output": "0x0000000000000000000000000000000000000000000000000000000000000001",
                    "revert": false,
                    "revertMessage": "",
                    "selector": "0xfacd743b",
                    "status": true,
                    "value": "0"
                },
                "nodeType": 0
            },
            "17": {
                "invocation": {
                    "address": "0x0000000000000000000000000000000000000001",
                    "callData": "0x30436656cb19adc4e22932a558ee2546e9f0b34df1cb044ed1c0b335000000000000000000000000000000000000000000000000000000000000001c0b41b4578103d8790ec35bf61d8437a2281ff0d180fd47a7e5a51958f1f4b5040efa4136a764fa34f254d232d0b10c52369ce7fe14d91b71858239d9e43d5c8e",
                    "decodedMethod": {
                        "callParams": [
                            {
                                "name": "hash",
                                "type": "bytes32",
                                "value": "0x07b6401f30436656cb19adc4e22932a558ee2546e9f0b34df1cb044ed1c0b335"
                            },
                            {
                                "name": "v",
                                "type": "uint256",
                                "value": "28"
                            },
                            {
                                "name": "r",
                                "type": "bytes32",
                                "value": "0x0b41b4578103d8790ec35bf61d8437a2281ff0d180fd47a7e5a51958f1f4b504"
                            },
                            {
                                "name": "s",
                                "type": "bytes32",
                                "value": "0x0efa4136a764fa34f254d232d0b10c52369ce7fe14d91b71858239d9e43d5c8e"
                            }
                        ],
                        "constructorArguments": "",
                        "name": "ecrecover",
                        "returnParams": [
                            {
                                "name": "",
                                "type": "address",
                                "value": "0xee11d2016e9f2fae606b2f12986811f4abbe6215"
                            }
                        ],
                        "signature": "ecrecover(bytes32,uint256,bytes32,bytes32)"
                    },
                    "errorInfo": "",
                    "fromAddress": "0x1a2a1c938ce3ec39b6d47113c7955baa9dd454f2",
                    "gasUsed": 3000,
                    "id": 17,
                    "methodDecoded": true,
                    "operation": "STATICCALL",
                    "output": "0x000000000000000000000000ee11d2016e9f2fae606b2f12986811f4abbe6215",
                    "revert": false,
                    "revertMessage": "",
                    "selector": "0x07b6401f",
                    "status": true,
                    "value": "0"
                },
                "nodeType": 0
            },
            "18": {
                "invocation": {
                    "address": "0x42b19dca30fd612b1757682c074497847f2b57e0",
                    "callData": "0x000000000000000000000000ee11d2016e9f2fae606b2f12986811f4abbe6215",
                    "decodedMethod": {
                        "callParams": [
                            {
                                "name": "_addr",
                                "type": "address",
                                "value": "0xee11d2016e9f2fae606b2f12986811f4abbe6215"
                            }
                        ],
                        "constructorArguments": "",
                        "name": "isValidator",
                        "returnParams": [
                            {
                                "name": "",
                                "type": "bool",
                                "value": true
                            }
                        ],
                        "signature": "isValidator(address)"
                    },
                    "errorInfo": "",
                    "fromAddress": "0x1a2a1c938ce3ec39b6d47113c7955baa9dd454f2",
                    "gasUsed": 2545,
                    "id": 18,
                    "methodDecoded": true,
                    "operation": "STATICCALL",
                    "output": "0x0000000000000000000000000000000000000000000000000000000000000001",
                    "revert": false,
                    "revertMessage": "",
                    "selector": "0xfacd743b",
                    "status": true,
                    "value": "0"
                },
                "nodeType": 0
            },
            "19": {
                "invocation": {
                    "address": "0x0000000000000000000000000000000000000001",
                    "callData": "0x30436656cb19adc4e22932a558ee2546e9f0b34df1cb044ed1c0b335000000000000000000000000000000000000000000000000000000000000001bf0969bef995bb8a4338d92aeb33b69f8acf6fb7bddc3ce3301b8fddb88907cb030297e617d23ba95a299de0613858ba639fa9e5b75e124112a84e1371f4ec854",
                    "decodedMethod": {
                        "callParams": [
                            {
                                "name": "hash",
                                "type": "bytes32",
                                "value": "0x07b6401f30436656cb19adc4e22932a558ee2546e9f0b34df1cb044ed1c0b335"
                            },
                            {
                                "name": "v",
                                "type": "uint256",
                                "value": "27"
                            },
                            {
                                "name": "r",
                                "type": "bytes32",
                                "value": "0xf0969bef995bb8a4338d92aeb33b69f8acf6fb7bddc3ce3301b8fddb88907cb0"
                            },
                            {
                                "name": "s",
                                "type": "bytes32",
                                "value": "0x30297e617d23ba95a299de0613858ba639fa9e5b75e124112a84e1371f4ec854"
                            }
                        ],
                        "constructorArguments": "",
                        "name": "ecrecover",
                        "returnParams": [
                            {
                                "name": "",
                                "type": "address",
                                "value": "0xf224beff587362a88d859e899d0d80c080e1e812"
                            }
                        ],
                        "signature": "ecrecover(bytes32,uint256,bytes32,bytes32)"
                    },
                    "errorInfo": "",
                    "fromAddress": "0x1a2a1c938ce3ec39b6d47113c7955baa9dd454f2",
                    "gasUsed": 3000,
                    "id": 19,
                    "methodDecoded": true,
                    "operation": "STATICCALL",
                    "output": "0x000000000000000000000000f224beff587362a88d859e899d0d80c080e1e812",
                    "revert": false,
                    "revertMessage": "",
                    "selector": "0x07b6401f",
                    "status": true,
                    "value": "0"
                },
                "nodeType": 0
            },
            "2": {
                "invocation": {
                    "address": "0x33e71e649abdc09f650ad44139674828a2075ad2",
                    "callData": "0x000000000000000000000000cc8fa225d80b9c7d42f96e9570156c65d6caaa2500000000000000000000000000000000000000000000000000000000000000140000000000000000000000000000000000000000000000000000000000000001",
                    "decodedMethod": {
                        "callParams": [
                            {
                                "name": "_token",
                                "type": "address",
                                "value": "0xcc8fa225d80b9c7d42f96e9570156c65d6caaa25"
                            },
                            {
                                "name": "_standard",
                                "type": "uint32",
                                "value": "20"
                            },
                            {
                                "name": "_isMainchain",
                                "type": "bool",
                                "value": true
                            }
                        ],
                        "constructorArguments": "",
                        "name": "isTokenMapped",
                        "returnParams": [
                            {
                                "name": "",
                                "type": "bool",
                                "value": true
                            }
                        ],
                        "signature": "isTokenMapped(address,uint32,bool)"
                    },
                    "errorInfo": "",
                    "fromAddress": "0x1a2a1c938ce3ec39b6d47113c7955baa9dd454f2",
                    "gasUsed": 5215,
                    "id": 2,
                    "methodDecoded": true,
                    "operation": "STATICCALL",
                    "output": "0x0000000000000000000000000000000000000000000000000000000000000001",
                    "revert": false,
                    "revertMessage": "",
                    "selector": "0x3579e67a",
                    "status": true,
                    "value": "0"
                },
                "nodeType": 0
            },
            "20": {
                "invocation": {
                    "address": "0x42b19dca30fd612b1757682c074497847f2b57e0",
                    "callData": "0x000000000000000000000000f224beff587362a88d859e899d0d80c080e1e812",
                    "decodedMethod": {
                        "callParams": [
                            {
                                "name": "_addr",
                                "type": "address",
                                "value": "0xf224beff587362a88d859e899d0d80c080e1e812"
                            }
                        ],
                        "constructorArguments": "",
                        "name": "isValidator",
                        "returnParams": [
                            {
                                "name": "",
                                "type": "bool",
                                "value": true
                            }
                        ],
                        "signature": "isValidator(address)"
                    },
                    "errorInfo": "",
                    "fromAddress": "0x1a2a1c938ce3ec39b6d47113c7955baa9dd454f2",
                    "gasUsed": 2545,
                    "id": 20,
                    "methodDecoded": true,
                    "operation": "STATICCALL",
                    "output": "0x0000000000000000000000000000000000000000000000000000000000000001",
                    "revert": false,
                    "revertMessage": "",
                    "selector": "0xfacd743b",
                    "status": true,
                    "value": "0"
                },
                "nodeType": 0
            },
            "21": {
                "invocation": {
                    "address": "0x42b19dca30fd612b1757682c074497847f2b57e0",
                    "callData": "0x0000000000000000000000000000000000000000000000000000000000000008",
                    "decodedMethod": {
                        "callParams": [
                            {
                                "name": "_voteCount",
                                "type": "uint256",
                                "value": "8"
                            }
                        ],
                        "constructorArguments": "",
                        "name": "checkThreshold",
                        "returnParams": [
                            {
                                "name": "",
                                "type": "bool",
                                "value": true
                            }
                        ],
                        "signature": "checkThreshold(uint256)"
                    },
                    "errorInfo": "",
                    "fromAddress": "0x1a2a1c938ce3ec39b6d47113c7955baa9dd454f2",
                    "gasUsed": 6872,
                    "id": 21,
                    "methodDecoded": true,
                    "operation": "STATICCALL",
                    "output": "0x0000000000000000000000000000000000000000000000000000000000000001",
                    "revert": false,
                    "revertMessage": "",
                    "selector": "0xdafae408",
                    "status": true,
                    "value": "0"
                },
                "nodeType": 0
            },
            "22": {
                "invocation": {
                    "address": "0x33e71e649abdc09f650ad44139674828a2075ad2",
                    "callData": "0x",
                    "decodedMethod": {
                        "callParams": [],
                        "constructorArguments": "",
                        "name": "WETH_TOKEN",
                        "returnParams": [
                            {
                                "name": "",
                                "type": "string",
                                "value": "WETH_TOKEN"
                            }
                        ],
                        "signature": "WETH_TOKEN()"
                    },
                    "errorInfo": "",
                    "fromAddress": "0x1a2a1c938ce3ec39b6d47113c7955baa9dd454f2",
                    "gasUsed": 668,
                    "id": 22,
                    "methodDecoded": true,
                    "operation": "STATICCALL",
                    "output": "0x0000000000000000000000000000000000000000000000000000000000000020000000000000000000000000000000000000000000000000000000000000000a574554485f544f4b454e00000000000000000000000000000000000000000000",
                    "revert": false,
                    "revertMessage": "",
                    "selector": "0x37d277d4",
                    "status": true,
                    "value": "0"
                },
                "nodeType": 0
            },
            "23": {
                "invocation": {
                    "address": "0x33e71e649abdc09f650ad44139674828a2075ad2",
                    "callData": "0x0000000000000000000000000000000000000000000000000000000000000020000000000000000000000000000000000000000000000000000000000000000a574554485f544f4b454e00000000000000000000000000000000000000000000",
                    "decodedMethod": {
                        "callParams": [
                            {
                                "name": "_name",
                                "type": "string",
                                "value": "WETH_TOKEN"
                            }
                        ],
                        "constructorArguments": "",
                        "name": "getContract",
                        "returnParams": [
                            {
                                "name": "_address",
                                "type": "address",
                                "value": "0xc02aaa39b223fe8d0a0e5c4f27ead9083c756cc2"
                            }
                        ],
                        "signature": "getContract(string)"
                    },
                    "errorInfo": "",
                    "fromAddress": "0x1a2a1c938ce3ec39b6d47113c7955baa9dd454f2",
                    "gasUsed": 3205,
                    "id": 23,
                    "methodDecoded": true,
                    "operation": "STATICCALL",
                    "output": "0x000000000000000000000000c02aaa39b223fe8d0a0e5c4f27ead9083c756cc2",
                    "revert": false,
                    "revertMessage": "",
                    "selector": "0x35817773",
                    "status": true,
                    "value": "0"
                },
                "nodeType": 0
            },
            "24": {
                "invocation": {
                    "address": "0xcc8fa225d80b9c7d42f96e9570156c65d6caaa25",
                    "callData": "0x0000000000000000000000001a2a1c938ce3ec39b6d47113c7955baa9dd454f2",
                    "decodedMethod": {
                        "callParams": [
                            {
                                "name": "",
                                "type": "address",
                                "value": "0x1a2a1c938ce3ec39b6d47113c7955baa9dd454f2"
                            }
                        ],
                        "constructorArguments": "",
                        "name": "balanceOf",
                        "returnParams": [
                            {
                                "decimalAvailable": true,
                                "name": "",
                                "type": "uint256",
                                "value": "271,390"
                            }
                        ],
                        "signature": "balanceOf(address)"
                    },
                    "errorInfo": "",
                    "fromAddress": "0x1a2a1c938ce3ec39b6d47113c7955baa9dd454f2",
                    "gasUsed": 2447,
                    "id": 24,
                    "methodDecoded": true,
                    "operation": "STATICCALL",
                    "output": "0x000000000000000000000000000000000000000000000000000000000004241e",
                    "revert": false,
                    "revertMessage": "",
                    "selector": "0x70a08231",
                    "status": true,
                    "value": "0"
                },
                "nodeType": 0
            },
            "25": {
                "invocation": {
                    "address": "0xcc8fa225d80b9c7d42f96e9570156c65d6caaa25",
                    "callData": "0x000000000000000000000000492a0ea68897bb9214c0f2b26726bcd4895343120000000000000000000000000000000000000000000000000000000000000d8e",
                    "decodedMethod": {
                        "callParams": [
                            {
                                "name": "_to",
                                "type": "address",
                                "value": "0x492a0ea68897bb9214c0f2b26726bcd489534312"
                            },
                            {
                                "decimalAvailable": true,
                                "name": "_value",
                                "type": "uint256",
                                "value": "3,470"
                            }
                        ],
                        "constructorArguments": "",
                        "name": "transfer",
                        "returnParams": [
                            {
                                "name": "_success",
                                "type": "bool",
                                "value": true
                            }
                        ],
                        "signature": "transfer(address,uint256)"
                    },
                    "errorInfo": "",
                    "fromAddress": "0x1a2a1c938ce3ec39b6d47113c7955baa9dd454f2",
                    "gasUsed": 10851,
                    "id": 25,
                    "methodDecoded": true,
                    "operation": "CALL",
                    "output": "0x0000000000000000000000000000000000000000000000000000000000000001",
                    "revert": false,
                    "revertMessage": "",
                    "selector": "0xa9059cbb",
                    "status": true,
                    "value": "0"
                },
                "nodeType": 0
            },
            "26": {
                "event": {
                    "contract": "0xcc8fa225d80b9c7d42f96e9570156c65d6caaa25",
                    "decodedLog": {
                        "name": "Transfer",
                        "params": [
                            {
                                "name": "_from",
                                "type": "address",
                                "value": "0x1a2a1c938ce3ec39b6d47113c7955baa9dd454f2"
                            },
                            {
                                "name": "_to",
                                "type": "address",
                                "value": "0x492a0ea68897bb9214c0f2b26726bcd489534312"
                            },
                            {
                                "decimalAvailable": true,
                                "name": "_value",
                                "type": "uint256",
                                "value": "3,470"
                            }
                        ],
                        "signature": "Transfer(address,address,uint256)"
                    },
                    "id": 26,
                    "logData": "0x0000000000000000000000000000000000000000000000000000000000000d8e",
                    "logDecoded": true,
                    "operation": "EVENT",
                    "revert": false,
                    "status": true,
                    "topics": [
                        "0xddf252ad1be2c89b69c2b068fc378daa952ba7f163c4a11628f55a4df523b3ef",
                        "0x0000000000000000000000001a2a1c938ce3ec39b6d47113c7955baa9dd454f2",
                        "0x000000000000000000000000492a0ea68897bb9214c0f2b26726bcd489534312"
                    ]
                },
                "nodeType": 1
            },
            "27": {
                "event": {
                    "contract": "0x1a2a1c938ce3ec39b6d47113c7955baa9dd454f2",
                    "decodedLog": {
                        "name": "TokenWithdrew",
                        "params": [
                            {
                                "name": "_withdrawId",
                                "type": "uint256",
                                "value": "669,593"
                            },
                            {
                                "name": "_owner",
                                "type": "address",
                                "value": "0x492a0ea68897bb9214c0f2b26726bcd489534312"
                            },
                            {
                                "name": "_tokenAddress",
                                "type": "address",
                                "value": "0xcc8fa225d80b9c7d42f96e9570156c65d6caaa25"
                            },
                            {
                                "name": "_tokenNumber",
                                "type": "uint256",
                                "value": "3,470"
                            }
                        ],
                        "signature": "TokenWithdrew(uint256,address,address,uint256)"
                    },
                    "id": 27,
                    "logData": "0x0000000000000000000000000000000000000000000000000000000000000d8e",
                    "logDecoded": true,
                    "operation": "EVENT",
                    "revert": false,
                    "status": true,
                    "topics": [
                        "0x86174ea401f083b9bb1bdebca3068f27fb023c7091365ed2a8a02b8d75cf0e52",
                        "0x00000000000000000000000000000000000000000000000000000000000a3799",
                        "0x000000000000000000000000492a0ea68897bb9214c0f2b26726bcd489534312",
                        "0x000000000000000000000000cc8fa225d80b9c7d42f96e9570156c65d6caaa25"
                    ]
                },
                "nodeType": 1
            },
            "3": {
                "invocation": {
                    "address": "0x33e71e649abdc09f650ad44139674828a2075ad2",
                    "callData": "0x",
                    "decodedMethod": {
                        "callParams": [],
                        "constructorArguments": "",
                        "name": "VALIDATOR",
                        "returnParams": [
                            {
                                "name": "",
                                "type": "string",
                                "value": "VALIDATOR"
                            }
                        ],
                        "signature": "VALIDATOR()"
                    },
                    "errorInfo": "",
                    "fromAddress": "0x1a2a1c938ce3ec39b6d47113c7955baa9dd454f2",
                    "gasUsed": 690,
                    "id": 3,
                    "methodDecoded": true,
                    "operation": "STATICCALL",
                    "output": "0x0000000000000000000000000000000000000000000000000000000000000020000000000000000000000000000000000000000000000000000000000000000956414c494441544f520000000000000000000000000000000000000000000000",
                    "revert": false,
                    "revertMessage": "",
                    "selector": "0x393df8cb",
                    "status": true,
                    "value": "0"
                },
                "nodeType": 0
            },
            "4": {
                "invocation": {
                    "address": "0x33e71e649abdc09f650ad44139674828a2075ad2",
                    "callData": "0x0000000000000000000000000000000000000000000000000000000000000020000000000000000000000000000000000000000000000000000000000000000956414c494441544f520000000000000000000000000000000000000000000000",
                    "decodedMethod": {
                        "callParams": [
                            {
                                "name": "_name",
                                "type": "string",
                                "value": "VALIDATOR"
                            }
                        ],
                        "constructorArguments": "",
                        "name": "getContract",
                        "returnParams": [
                            {
                                "name": "_address",
                                "type": "address",
                                "value": "0x42b19dca30fd612b1757682c074497847f2b57e0"
                            }
                        ],
                        "signature": "getContract(string)"
                    },
                    "errorInfo": "",
                    "fromAddress": "0x1a2a1c938ce3ec39b6d47113c7955baa9dd454f2",
                    "gasUsed": 3205,
                    "id": 4,
                    "methodDecoded": true,
                    "operation": "STATICCALL",
                    "output": "0x00000000000000000000000042b19dca30fd612b1757682c074497847f2b57e0",
                    "revert": false,
                    "revertMessage": "",
                    "selector": "0x35817773",
                    "status": true,
                    "value": "0"
                },
                "nodeType": 0
            },
            "5": {
                "invocation": {
                    "address": "0x0000000000000000000000000000000000000001",
                    "callData": "0x30436656cb19adc4e22932a558ee2546e9f0b34df1cb044ed1c0b335000000000000000000000000000000000000000000000000000000000000001b1d1347615c7abcfbedb60e0cf10407b02394fa9428fdcf3446751e0526ebdf1c7cef07f8aef16d21e05060c08b85903580a492c0083e2770e6a5afe381032552",
                    "decodedMethod": {
                        "callParams": [
                            {
                                "name": "hash",
                                "type": "bytes32",
                                "value": "0x07b6401f30436656cb19adc4e22932a558ee2546e9f0b34df1cb044ed1c0b335"
                            },
                            {
                                "name": "v",
                                "type": "uint256",
                                "value": "27"
                            },
                            {
                                "name": "r",
                                "type": "bytes32",
                                "value": "0x1d1347615c7abcfbedb60e0cf10407b02394fa9428fdcf3446751e0526ebdf1c"
                            },
                            {
                                "name": "s",
                                "type": "bytes32",
                                "value": "0x7cef07f8aef16d21e05060c08b85903580a492c0083e2770e6a5afe381032552"
                            }
                        ],
                        "constructorArguments": "",
                        "name": "ecrecover",
                        "returnParams": [
                            {
                                "name": "",
                                "type": "address",
                                "value": "0x11360eacdedd59bc433afad4fc8f0417d1fbebab"
                            }
                        ],
                        "signature": "ecrecover(bytes32,uint256,bytes32,bytes32)"
                    },
                    "errorInfo": "",
                    "fromAddress": "0x1a2a1c938ce3ec39b6d47113c7955baa9dd454f2",
                    "gasUsed": 3000,
                    "id": 5,
                    "methodDecoded": true,
                    "operation": "STATICCALL",
                    "output": "0x00000000000000000000000011360eacdedd59bc433afad4fc8f0417d1fbebab",
                    "revert": false,
                    "revertMessage": "",
                    "selector": "0x07b6401f",
                    "status": true,
                    "value": "0"
                },
                "nodeType": 0
            },
            "6": {
                "invocation": {
                    "address": "0x42b19dca30fd612b1757682c074497847f2b57e0",
                    "callData": "0x00000000000000000000000011360eacdedd59bc433afad4fc8f0417d1fbebab",
                    "decodedMethod": {
                        "callParams": [
                            {
                                "name": "_addr",
                                "type": "address",
                                "value": "0x11360eacdedd59bc433afad4fc8f0417d1fbebab"
                            }
                        ],
                        "constructorArguments": "",
                        "name": "isValidator",
                        "returnParams": [
                            {
                                "name": "",
                                "type": "bool",
                                "value": true
                            }
                        ],
                        "signature": "isValidator(address)"
                    },
                    "errorInfo": "",
                    "fromAddress": "0x1a2a1c938ce3ec39b6d47113c7955baa9dd454f2",
                    "gasUsed": 2545,
                    "id": 6,
                    "methodDecoded": true,
                    "operation": "STATICCALL",
                    "output": "0x0000000000000000000000000000000000000000000000000000000000000001",
                    "revert": false,
                    "revertMessage": "",
                    "selector": "0xfacd743b",
                    "status": true,
                    "value": "0"
                },
                "nodeType": 0
            },
            "7": {
                "invocation": {
                    "address": "0x0000000000000000000000000000000000000001",
                    "callData": "0x30436656cb19adc4e22932a558ee2546e9f0b34df1cb044ed1c0b335000000000000000000000000000000000000000000000000000000000000001cb56801fbd29316e4fffbeb6df22d66d7281a9d8d2698405d257e6325563a93f52078178e4d88a3a33c9d0bcadb2888a736742c96fdc0150f512d02e5434456e1",
                    "decodedMethod": {
                        "callParams": [
                            {
                                "name": "hash",
                                "type": "bytes32",
                                "value": "0x07b6401f30436656cb19adc4e22932a558ee2546e9f0b34df1cb044ed1c0b335"
                            },
                            {
                                "name": "v",
                                "type": "uint256",
                                "value": "28"
                            },
                            {
                                "name": "r",
                                "type": "bytes32",
                                "value": "0xb56801fbd29316e4fffbeb6df22d66d7281a9d8d2698405d257e6325563a93f5"
                            },
                            {
                                "name": "s",
                                "type": "bytes32",
                                "value": "0x2078178e4d88a3a33c9d0bcadb2888a736742c96fdc0150f512d02e5434456e1"
                            }
                        ],
                        "constructorArguments": "",
                        "name": "ecrecover",
                        "returnParams": [
                            {
                                "name": "",
                                "type": "address",
                                "value": "0x1a15a5e25811fe1349d636a5053a0e59d53961c9"
                            }
                        ],
                        "signature": "ecrecover(bytes32,uint256,bytes32,bytes32)"
                    },
                    "errorInfo": "",
                    "fromAddress": "0x1a2a1c938ce3ec39b6d47113c7955baa9dd454f2",
                    "gasUsed": 3000,
                    "id": 7,
                    "methodDecoded": true,
                    "operation": "STATICCALL",
                    "output": "0x0000000000000000000000001a15a5e25811fe1349d636a5053a0e59d53961c9",
                    "revert": false,
                    "revertMessage": "",
                    "selector": "0x07b6401f",
                    "status": true,
                    "value": "0"
                },
                "nodeType": 0
            },
            "8": {
                "invocation": {
                    "address": "0x42b19dca30fd612b1757682c074497847f2b57e0",
                    "callData": "0x0000000000000000000000001a15a5e25811fe1349d636a5053a0e59d53961c9",
                    "decodedMethod": {
                        "callParams": [
                            {
                                "name": "_addr",
                                "type": "address",
                                "value": "0x1a15a5e25811fe1349d636a5053a0e59d53961c9"
                            }
                        ],
                        "constructorArguments": "",
                        "name": "isValidator",
                        "returnParams": [
                            {
                                "name": "",
                                "type": "bool",
                                "value": true
                            }
                        ],
                        "signature": "isValidator(address)"
                    },
                    "errorInfo": "",
                    "fromAddress": "0x1a2a1c938ce3ec39b6d47113c7955baa9dd454f2",
                    "gasUsed": 2545,
                    "id": 8,
                    "methodDecoded": true,
                    "operation": "STATICCALL",
                    "output": "0x0000000000000000000000000000000000000000000000000000000000000001",
                    "revert": false,
                    "revertMessage": "",
                    "selector": "0xfacd743b",
                    "status": true,
                    "value": "0"
                },
                "nodeType": 0
            },
            "9": {
                "invocation": {
                    "address": "0x0000000000000000000000000000000000000001",
                    "callData": "0x30436656cb19adc4e22932a558ee2546e9f0b34df1cb044ed1c0b335000000000000000000000000000000000000000000000000000000000000001ba352a9287196f36cfe1087bb6816bb0e5fcd4ee6262d1dd7600770fd4bf81edc55d6a7961f5744b14550bdef1c5250dd43bc153b5958aa21cc0bbe9e5cf1a526",
                    "decodedMethod": {
                        "callParams": [
                            {
                                "name": "hash",
                                "type": "bytes32",
                                "value": "0x07b6401f30436656cb19adc4e22932a558ee2546e9f0b34df1cb044ed1c0b335"
                            },
                            {
                                "name": "v",
                                "type": "uint256",
                                "value": "27"
                            },
                            {
                                "name": "r",
                                "type": "bytes32",
                                "value": "0xa352a9287196f36cfe1087bb6816bb0e5fcd4ee6262d1dd7600770fd4bf81edc"
                            },
                            {
                                "name": "s",
                                "type": "bytes32",
                                "value": "0x55d6a7961f5744b14550bdef1c5250dd43bc153b5958aa21cc0bbe9e5cf1a526"
                            }
                        ],
                        "constructorArguments": "",
                        "name": "ecrecover",
                        "returnParams": [
                            {
                                "name": "",
                                "type": "address",
                                "value": "0x70bb1fb41c8c42f6ddd53a708e2b82209495e455"
                            }
                        ],
                        "signature": "ecrecover(bytes32,uint256,bytes32,bytes32)"
                    },
                    "errorInfo": "",
                    "fromAddress": "0x1a2a1c938ce3ec39b6d47113c7955baa9dd454f2",
                    "gasUsed": 3000,
                    "id": 9,
                    "methodDecoded": true,
                    "operation": "STATICCALL",
                    "output": "0x00000000000000000000000070bb1fb41c8c42f6ddd53a708e2b82209495e455",
                    "revert": false,
                    "revertMessage": "",
                    "selector": "0x07b6401f",
                    "status": true,
                    "value": "0"
                },
                "nodeType": 0
            }
        },
        "gasFlame": [
            {
                "children": [
                    {
                        "children": [
                            {
                                "children": [],
                                "depth": 0,
                                "name": "Initial Gas",
                                "value": 30920
                            },
                            {
                                "children": [
                                    {
                                        "children": [
                                            {
                                                "children": [],
                                                "depth": 2,
                                                "name": "isTokenMapped",
                                                "value": 5215
                                            },
                                            {
                                                "children": [],
                                                "depth": 2,
                                                "name": "VALIDATOR",
                                                "value": 690
                                            },
                                            {
                                                "children": [],
                                                "depth": 2,
                                                "name": "getContract",
                                                "value": 3205
                                            },
                                            {
                                                "children": [],
                                                "depth": 2,
                                                "name": "ecrecover",
                                                "value": 3000
                                            },
                                            {
                                                "children": [],
                                                "depth": 2,
                                                "name": "isValidator",
                                                "value": 2545
                                            },
                                            {
                                                "children": [],
                                                "depth": 2,
                                                "name": "ecrecover",
                                                "value": 3000
                                            },
                                            {
                                                "children": [],
                                                "depth": 2,
                                                "name": "isValidator",
                                                "value": 2545
                                            },
                                            {
                                                "children": [],
                                                "depth": 2,
                                                "name": "ecrecover",
                                                "value": 3000
                                            },
                                            {
                                                "children": [],
                                                "depth": 2,
                                                "name": "isValidator",
                                                "value": 2545
                                            },
                                            {
                                                "children": [],
                                                "depth": 2,
                                                "name": "ecrecover",
                                                "value": 3000
                                            },
                                            {
                                                "children": [],
                                                "depth": 2,
                                                "name": "isValidator",
                                                "value": 2545
                                            },
                                            {
                                                "children": [],
                                                "depth": 2,
                                                "name": "ecrecover",
                                                "value": 3000
                                            },
                                            {
                                                "children": [],
                                                "depth": 2,
                                                "name": "isValidator",
                                                "value": 2545
                                            },
                                            {
                                                "children": [],
                                                "depth": 2,
                                                "name": "ecrecover",
                                                "value": 3000
                                            },
                                            {
                                                "children": [],
                                                "depth": 2,
                                                "name": "isValidator",
                                                "value": 2545
                                            },
                                            {
                                                "children": [],
                                                "depth": 2,
                                                "name": "ecrecover",
                                                "value": 3000
                                            },
                                            {
                                                "children": [],
                                                "depth": 2,
                                                "name": "isValidator",
                                                "value": 2545
                                            },
                                            {
                                                "children": [],
                                                "depth": 2,
                                                "name": "ecrecover",
                                                "value": 3000
                                            },
                                            {
                                                "children": [],
                                                "depth": 2,
                                                "name": "isValidator",
                                                "value": 2545
                                            },
                                            {
                                                "children": [],
                                                "depth": 2,
                                                "name": "checkThreshold",
                                                "value": 6872
                                            },
                                            {
                                                "children": [],
                                                "depth": 2,
                                                "name": "WETH_TOKEN",
                                                "value": 668
                                            },
                                            {
                                                "children": [],
                                                "depth": 2,
                                                "name": "getContract",
                                                "value": 3205
                                            },
                                            {
                                                "children": [],
                                                "depth": 2,
                                                "name": "balanceOf",
                                                "value": 2447
                                            },
                                            {
                                                "children": [],
                                                "depth": 2,
                                                "name": "transfer",
                                                "value": 10851
                                            }
                                        ],
                                        "depth": 1,
                                        "name": "withdrawERC20For",
                                        "value": 176257
                                    }
                                ],
                                "depth": 0,
                                "name": "Executed Gas",
                                "value": 181445
                            }
                        ],
                        "depth": -1,
                        "name": "Actual Gas Used",
                        "value": 212365
                    },
                    {
                        "children": [],
                        "depth": -1,
                        "name": "Refunded Gas",
                        "value": 0
                    }
                ],
                "depth": -2,
                "name": "Total Gas",
                "value": 212365
            }
        ],
        "isConfirmed": true,
        "mainTrace": [
            {
                "children": [
                    {
                        "children": [
                            {
                                "children": [
                                    {
                                        "children": [],
                                        "depth": 2,
                                        "id": 2,
                                        "order": 2
                                    },
                                    {
                                        "children": [],
                                        "depth": 2,
                                        "id": 3,
                                        "order": 3
                                    },
                                    {
                                        "children": [],
                                        "depth": 2,
                                        "id": 4,
                                        "order": 4
                                    },
                                    {
                                        "children": [],
                                        "depth": 2,
                                        "id": 5,
                                        "order": 5
                                    },
                                    {
                                        "children": [],
                                        "depth": 2,
                                        "id": 6,
                                        "order": 6
                                    },
                                    {
                                        "children": [],
                                        "depth": 2,
                                        "id": 7,
                                        "order": 7
                                    },
                                    {
                                        "children": [],
                                        "depth": 2,
                                        "id": 8,
                                        "order": 8
                                    },
                                    {
                                        "children": [],
                                        "depth": 2,
                                        "id": 9,
                                        "order": 9
                                    },
                                    {
                                        "children": [],
                                        "depth": 2,
                                        "id": 10,
                                        "order": 10
                                    },
                                    {
                                        "children": [],
                                        "depth": 2,
                                        "id": 11,
                                        "order": 11
                                    },
                                    {
                                        "children": [],
                                        "depth": 2,
                                        "id": 12,
                                        "order": 12
                                    },
                                    {
                                        "children": [],
                                        "depth": 2,
                                        "id": 13,
                                        "order": 13
                                    },
                                    {
                                        "children": [],
                                        "depth": 2,
                                        "id": 14,
                                        "order": 14
                                    },
                                    {
                                        "children": [],
                                        "depth": 2,
                                        "id": 15,
                                        "order": 15
                                    },
                                    {
                                        "children": [],
                                        "depth": 2,
                                        "id": 16,
                                        "order": 16
                                    },
                                    {
                                        "children": [],
                                        "depth": 2,
                                        "id": 17,
                                        "order": 17
                                    },
                                    {
                                        "children": [],
                                        "depth": 2,
                                        "id": 18,
                                        "order": 18
                                    },
                                    {
                                        "children": [],
                                        "depth": 2,
                                        "id": 19,
                                        "order": 19
                                    },
                                    {
                                        "children": [],
                                        "depth": 2,
                                        "id": 20,
                                        "order": 20
                                    },
                                    {
                                        "children": [],
                                        "depth": 2,
                                        "id": 21,
                                        "order": 21
                                    },
                                    {
                                        "children": [],
                                        "depth": 2,
                                        "id": 22,
                                        "order": 22
                                    },
                                    {
                                        "children": [],
                                        "depth": 2,
                                        "id": 23,
                                        "order": 23
                                    },
                                    {
                                        "children": [],
                                        "depth": 2,
                                        "id": 24,
                                        "order": 24
                                    },
                                    {
                                        "children": [
                                            {
                                                "children": [],
                                                "depth": 3,
                                                "id": 26,
                                                "order": 26
                                            }
                                        ],
                                        "depth": 2,
                                        "id": 25,
                                        "order": 25
                                    },
                                    {
                                        "children": [],
                                        "depth": 2,
                                        "id": 27,
                                        "order": 27
                                    }
                                ],
                                "depth": 1,
                                "id": 1,
                                "order": 1
                            }
                        ],
                        "depth": 0,
                        "id": 0,
                        "order": 0
                    }
                ],
                "depth": -1,
                "id": -1,
                "order": -1
            }
        ],
        "mainTraceNodeCount": 28,
        "parentIdMap": {
            "0": -1,
            "1": 0,
            "10": 1,
            "11": 1,
            "12": 1,
            "13": 1,
            "14": 1,
            "15": 1,
            "16": 1,
            "17": 1,
            "18": 1,
            "19": 1,
            "2": 1,
            "20": 1,
            "21": 1,
            "22": 1,
            "23": 1,
            "24": 1,
            "25": 1,
            "26": 25,
            "27": 1,
            "3": 1,
            "4": 1,
            "5": 1,
            "6": 1,
            "7": 1,
            "8": 1,
            "9": 1
        },
        "tidyTrace": [
            {
                "children": [
                    {
                        "children": [
                            {
                                "children": [
                                    {
                                        "children": [
                                            {
                                                "children": [],
                                                "depth": 3,
                                                "id": 26,
                                                "order": 26
                                            }
                                        ],
                                        "depth": 2,
                                        "id": 25,
                                        "order": 25
                                    },
                                    {
                                        "children": [],
                                        "depth": 2,
                                        "id": 27,
                                        "order": 27
                                    }
                                ],
                                "depth": 1,
                                "id": 1,
                                "order": 1
                            }
                        ],
                        "depth": 0,
                        "id": 0,
                        "order": 0
                    }
                ],
                "depth": -1,
                "id": -1,
                "order": -1
            }
        ],
        "tidyTraceNodeCount": 5
    },
    "state_change": {
        "stateChanges": [
            {
                "address": "0x1a2a1c938ce3ec39b6d47113c7955baa9dd454f2",
                "erc": "",
                "slots": [
                    {
                        "current": "0x000000000000000000000000492a0ea68897bb9214c0f2b26726bcd489534312",
                        "key": "0x6c396f7734c928304765ad3521a8c421c8098a6699970e2f244d32c1e7abf0e5",
                        "prev": "0x0000000000000000000000000000000000000000000000000000000000000000"
                    },
                    {
                        "current": "0x000000000000000000000000cc8fa225d80b9c7d42f96e9570156c65d6caaa25",
                        "key": "0x6c396f7734c928304765ad3521a8c421c8098a6699970e2f244d32c1e7abf0e6",
                        "prev": "0x0000000000000000000000000000000000000000000000000000000000000000"
                    },
                    {
                        "current": "0x0000000000000000000000000000000000000000000000000000000000000d8e",
                        "key": "0x6c396f7734c928304765ad3521a8c421c8098a6699970e2f244d32c1e7abf0e7",
                        "prev": "0x0000000000000000000000000000000000000000000000000000000000000000"
                    }
                ],
                "storageVariables": [
                    {
                        "name": "withdrawals",
                        "type": "mapping(uint256 => struct MainchainGatewayStorage.WithdrawalEntry)",
                        "value": {
                            "pairs": [
                                {
                                    "key": "669593",
                                    "value": {
                                        "fields": [
                                            {
                                                "name": "owner",
                                                "type": "address",
                                                "value": {
                                                    "current": "0x492a0ea68897bb9214c0f2b26726bcd489534312",
                                                    "prev": "0x0000000000000000000000000000000000000000",
                                                    "typeTag": 1
                                                }
                                            },
                                            {
                                                "name": "tokenAddress",
                                                "type": "address",
                                                "value": {
                                                    "current": "0xcc8fa225d80b9c7d42f96e9570156c65d6caaa25",
                                                    "prev": "0x0000000000000000000000000000000000000000",
                                                    "typeTag": 1
                                                }
                                            },
                                            {
                                                "name": "tokenNumber",
                                                "type": "uint256",
                                                "value": {
                                                    "current": "3470",
                                                    "prev": "0",
                                                    "typeTag": 1
                                                }
                                            }
                                        ],
                                        "typeTag": 3
                                    }
                                }
                            ],
                            "typeTag": 4
                        }
                    }
                ]
            },
            {
                "address": "0xcc8fa225d80b9c7d42f96e9570156c65d6caaa25",
                "erc": "ERC-20",
                "slots": [
                    {
                        "current": "0x0000000000000000000000000000000000000000000000000000000000041690",
                        "key": "0x289df3907b8344a85ec86ea46c78c2dba862b17abb050488973a6c090d318cb7",
                        "prev": "0x000000000000000000000000000000000000000000000000000000000004241e"
                    },
                    {
                        "current": "0x0000000000000000000000000000000000000000000000000000000000000d8f",
                        "key": "0xe60f9a82f801243c770c1eeb055cd653814a8d69af0d4f027d9b91d5ba8c6376",
                        "prev": "0x0000000000000000000000000000000000000000000000000000000000000001"
                    }
                ],
                "storageVariables": [
                    {
                        "name": "balanceOf",
                        "type": "mapping(address => uint256)",
                        "value": {
                            "pairs": [
                                {
                                    "key": "0x1a2a1c938ce3ec39b6d47113c7955baa9dd454f2",
                                    "value": {
                                        "current": "267920",
                                        "prev": "271390",
                                        "typeTag": 1
                                    }
                                },
                                {
                                    "key": "0x492a0ea68897bb9214c0f2b26726bcd489534312",
                                    "value": {
                                        "current": "3471",
                                        "prev": "1",
                                        "typeTag": 1
                                    }
                                }
                            ],
                            "typeTag": 4
                        }
                    }
                ]
            }
        ]
    }
}