{
    "balance_change": {
        "balanceChanges": [
            {
                "account": "0x6e31eb0bb26298f30580a5f6bc1fb1dbf661a793",
                "assets": [
                    {
                        "address": "0xeeeeeeeeeeeeeeeeeeeeeeeeeeeeeeeeeeeeeeee",
                        "amount": "0.101782347702379162",
                        "iconUrl": "https://assets.blocksec.com/image/1663669189317-3.png",
                        "isERC1155": false,
                        "isERC721": false,
                        "sign": false,
                        "value": ""
                    },
                    {
                        "address": "0x43f11c02439e2736800433b4594994bd43cd066d",
                        "amount": "3,164,972.714703117",
                        "iconUrl": "",
                        "isERC1155": false,
                        "isERC721": false,
                        "sign": true,
                        "value": "461.0008203"
                    }
                ]
            },
            {
                "account": "0x382ffce2287252f930e1c8dc9328dac5bf282ba1",
                "assets": [
                    {
                        "address": "0xeeeeeeeeeeeeeeeeeeeeeeeeeeeeeeeeeeeeeeee",
                        "amount": "0.001017823477023791",
                        "iconUrl": "https://assets.blocksec.com/image/1663669189317-3.png",
                        "isERC1155": false,
                        "isERC721": false,
                        "sign": true,
                        "value": ""
                    }
                ]
            },
            {
                "account": "0xb11d15da84a206670beba4e8172c69e653516e80",
                "assets": [
                    {
                        "address": "0x43f11c02439e2736800433b4594994bd43cd066d",
                        "amount": "3,164,972.714703117",
                        "iconUrl": "",
                        "isERC1155": false,
                        "isERC721": false,
                        "sign": false,
                        "value": "461.0008203"
                    },
                    {
                        "address": "0xc02aaa39b223fe8d0a0e5c4f27ead9083c756cc2",
                        "amount": "0.100764524225355371",
                        "iconUrl": "https://assets.blocksec.com/icon/f1cb2d02c471d545bbc7722daf3277fd852d98e63d118771af7047bd8256c516.png",
                        "isERC1155": false,
                        "isERC721": false,
                        "sign": true,
                        "value": "438.3282234"
                    }
                ]
            },
            {
                "account": "0xc02aaa39b223fe8d0a0e5c4f27ead9083c756cc2",
                "assets": [
                    {
                        "address": "0xeeeeeeeeeeeeeeeeeeeeeeeeeeeeeeeeeeeeeeee",
                        "amount": "0.100764524225355371",
                        "iconUrl": "https://assets.blocksec.com/image/1663669189317-3.png",
                        "isERC1155": false,
                        "isERC721": false,
                        "sign": true,
                        "value": ""
                    },
                    {
                        "address": "0xc02aaa39b223fe8d0a0e5c4f27ead9083c756cc2",
                        "amount": "0.100764524225355371",
                        "iconUrl": "https://assets.blocksec.com/icon/f1cb2d02c471d545bbc7722daf3277fd852d98e63d118771af7047bd8256c516.png",
                        "isERC1155": false,
                        "isERC721": false,
                        "sign": false,
                        "value": "438.3282234"
                    }
                ]
            }
        ]
    },
    "profile": {
        "basic_info": {
            "baseFee": "81.238037587",
            "blockNumber": 13759809,
            "callData": "0x5cf5402600000000000000000000000000000000000000000000000000000000000000c0000000000000000000000000eeeeeeeeeeeeeeeeeeeeeeeeeeeeeeeeeeeeeeee000000000000000000000000eeeeeeeeeeeeeeeeeeeeeeeeeeeeeeeeeeeeeeee0000000000000000000000000000000000000000000000000165fccd0869de6b00000000000000000000000043f11c02439e2736800433b4594994bd43cd066d00000000000000000000000000000000000000000000000000039db47ecac42f00000000000000000000000000000000000000000000000000000000000001083598d8ab0000000000000000000000000000000000000000000000000000000000000060000000000000000000000000000000000000000000000000000ae82b8e26f4c70000000000000000000000000000000000000000000000000000000000000000000000000000000000000000000000000000000000000000000000000000002bc02aaa39b223fe8d0a0e5c4f27ead9083c756cc2000bb843f11c02439e2736800433b4594994bd43cd066d000000000000000000000000000000000000000000869584cd000000000000000000000000382ffce2287252f930e1c8dc9328dac5bf282ba100000000000000000000000000000000000000000000003289d7c7c161af9889000000000000000000000000000000000000000000000000",
            "debugEnable": true,
            "errorInfo": "",
            "eventCount": 5,
            "feeRecipient": "0x00192fb10df37c9fb26829eb2cc623cd1bf599e8",
            "formatValue": "0.101782347702379162",
            "gasLimit": 400704,
            "gasPrice": "180",
            "gasUsed": 303159,
            "intTxnCount": 13,
            "internalRevert": false,
            "internalRevertMessage": "",
            "isContractCreation": false,
            "isFlashloan": false,
            "maxFee": "",
            "nonce": 9,
            "overwritedBlockNumber": -1,
            "priorityFee": "",
            "receiver": "0xe66b31678d6c16e9ebf358268a790b763c133750",
            "revertMessage": "",
            "sender": "0x6e31eb0bb26298f30580a5f6bc1fb1dbf661a793",
            "simulationEnable": true,
            "sourceTxnHash": "0x9f2479c16d9b180301ec7459a821db23535161161fb1364756ea840846f54f6d",
            "status": true,
            "timestamp": "2021-12-07T17:23:25Z",
            "transactionFee": "0.05456862",
            "txnHash": "0x9f2479c16d9b180301ec7459a821db23535161161fb1364756ea840846f54f6d",
            "txnIndex": 2,
            "type": 0,
            "value": "101782347702379162"
        },
        "fund_flow": [
            {
                "amount": "0.101782347702379162",
                "from": "0x6e31eb0bb26298f30580a5f6bc1fb1dbf661a793",
                "id": 1,
                "isERC1155": false,
                "isERC721": false,
                "isReverted": false,
                "order": 1,
                "to": "0xe66b31678d6c16e9ebf358268a790b763c133750",
                "token": "0xeeeeeeeeeeeeeeeeeeeeeeeeeeeeeeeeeeeeeeee"
            },
            {
                "amount": "0.001017823477023791",
                "from": "0xe66b31678d6c16e9ebf358268a790b763c133750",
                "id": 2,
                "isERC1155": false,
                "isERC721": false,
                "isReverted": false,
                "order": 2,
                "to": "0x382ffce2287252f930e1c8dc9328dac5bf282ba1",
                "token": "0xeeeeeeeeeeeeeeeeeeeeeeeeeeeeeeeeeeeeeeee"
            },
            {
                "amount": "0.100764524225355371",
                "from": "0xe66b31678d6c16e9ebf358268a790b763c133750",
                "id": 3,
                "isERC1155": false,
                "isERC721": false,
                "isReverted": false,
                "order": 3,
                "to": "0xdef1c0ded9bec7f1a1670819833240f027b25eff",
                "token": "0xeeeeeeeeeeeeeeeeeeeeeeeeeeeeeeeeeeeeeeee"
            },
            {
                "amount": "0.100764524225355371",
                "from": "0xdef1c0ded9bec7f1a1670819833240f027b25eff",
                "id": 4,
                "isERC1155": false,
                "isERC721": false,
                "isReverted": false,
                "order": 4,
                "to": "0xc02aaa39b223fe8d0a0e5c4f27ead9083c756cc2",
                "token": "0xeeeeeeeeeeeeeeeeeeeeeeeeeeeeeeeeeeeeeeee"
            },
            {
                "amount": "0.100764524225355371",
                "from": "0xc02aaa39b223fe8d0a0e5c4f27ead9083c756cc2",
                "id": 5,
                "isERC1155": false,
                "isERC721": false,
                "isReverted": false,
                "order": 5,
                "to": "0xdef1c0ded9bec7f1a1670819833240f027b25eff",
                "token": "0xc02aaa39b223fe8d0a0e5c4f27ead9083c756cc2"
            },
            {
                "amount": "3,164,972.714703117",
                "from": "0xb11d15da84a206670beba4e8172c69e653516e80",
                "id": 6,
                "isERC1155": false,
                "isERC721": false,
                "isReverted": false,
                "order": 6,
                "to": "0xe66b31678d6c16e9ebf358268a790b763c133750",
                "token": "0x43f11c02439e2736800433b4594994bd43cd066d"
            },
            {
                "amount": "0.100764524225355371",
                "from": "0xdef1c0ded9bec7f1a1670819833240f027b25eff",
                "id": 7,
                "isERC1155": false,
                "isERC721": false,
                "isReverted": false,
                "order": 7,
                "to": "0xb11d15da84a206670beba4e8172c69e653516e80",
                "token": "0xc02aaa39b223fe8d0a0e5c4f27ead9083c756cc2"
            },
            {
                "amount": "3,164,972.714703117",
                "from": "0xe66b31678d6c16e9ebf358268a790b763c133750",
                "id": 8,
                "isERC1155": false,
                "isERC721": false,
                "isReverted": false,
                "order": 8,
                "to": "0x6e31eb0bb26298f30580a5f6bc1fb1dbf661a793",
                "token": "0x43f11c02439e2736800433b4594994bd43cd066d"
            }
        ],
        "token_infos": [
            {
                "address": "0x43f11c02439e2736800433b4594994bd43cd066d",
                "decimals": 9
            },
            {
                "address": "0xc02aaa39b223fe8d0a0e5c4f27ead9083c756cc2",
                "decimals": 18
            },
            {
                "address": "0xeeeeeeeeeeeeeeeeeeeeeeeeeeeeeeeeeeeeeeee",
                "decimals": 18
            }
        ]
    },
    "address_label": {
        "labels": [
            {
                "address": "0xb11d15da84a206670beba4e8172c69e653516e80",
                "label": "Uniswap V3: FLOKI 4"
            },
            {
                "address": "0xc02aaa39b223fe8d0a0e5c4f27ead9083c756cc2",
                "label": "Wrapped Ether (WETH)"
            },
            {
                "address": "0x43f11c02439e2736800433b4594994bd43cd066d",
                "label": "Floki Inu: Old - FLOKI Token"
            },
            {
                "address": "0xdef1c0ded9bec7f1a1670819833240f027b25eff",
                "label": "0x: Exchange Proxy"
            },
            {
                "address": "0x0000000000000000000000000000000000000002",
                "label": "Precompiled"
            },
            {
                "address": "0x382ffce2287252f930e1c8dc9328dac5bf282ba1",
                "label": "Coinbase Fees"
            },
            {
                "address": "0xeeeeeeeeeeeeeeeeeeeeeeeeeeeeeeeeeeeeeeee",
                "label": "Ether"
            },
            {
                "address": "0xe66b31678d6c16e9ebf358268a790b763c133750",
                "label": "0x: Coinbase Wallet Proxy"
            },
            {
                "address": "0x0000000000000000000000000000000000000001",
                "label": "Precompiled"
            },
            {
                "address": "0x0000000000000000000000000000000000000003",
                "label": "Precompiled"
            },
            {
                "address": "0x0000000000000000000000000000000000000004",
                "label": "Precompiled"
            },
            {
                "address": "0x0d53497746e70c8cc2e5e8d2ac5f0a33f93c9353",
                "label": "UniswapV3Feature"
            },
            {
                "address": "0x0000000000000000000000000000000000000000",
                "label": "Null Address"
            }
        ]
    },
    "trace": {
        "accountLabels": null,
        "dataMap": {
            "-1": {
                "invocation": {
                    "address": "0x6e31eb0bb26298f30580a5f6bc1fb1dbf661a793",
                    "callData": "",
                    "decodedMethod": null,
                    "errorInfo": "",
                    "fromAddress": "",
                    "gasUsed": 0,
                    "id": -1,
                    "methodDecoded": false,
                    "operation": "",
                    "output": "",
                    "revert": false,
                    "revertMessage": "",
                    "selector": "",
                    "status": false,
                    "value": ""
                },
                "nodeType": 0
            },
            "0": {
                "invocation": {
                    "address": "0xe66b31678d6c16e9ebf358268a790b763c133750",
                    "callData": "0x00000000000000000000000000000000000000000000000000000000000000c0000000000000000000000000eeeeeeeeeeeeeeeeeeeeeeeeeeeeeeeeeeeeeeee000000000000000000000000eeeeeeeeeeeeeeeeeeeeeeeeeeeeeeeeeeeeeeee0000000000000000000000000000000000000000000000000165fccd0869de6b00000000000000000000000043f11c02439e2736800433b4594994bd43cd066d00000000000000000000000000000000000000000000000000039db47ecac42f00000000000000000000000000000000000000000000000000000000000001083598d8ab0000000000000000000000000000000000000000000000000000000000000060000000000000000000000000000000000000000000000000000ae82b8e26f4c70000000000000000000000000000000000000000000000000000000000000000000000000000000000000000000000000000000000000000000000000000002bc02aaa39b223fe8d0a0e5c4f27ead9083c756cc2000bb843f11c02439e2736800433b4594994bd43cd066d000000000000000000000000000000000000000000869584cd000000000000000000000000382ffce2287252f930e1c8dc9328dac5bf282ba100000000000000000000000000000000000000000000003289d7c7c161af9889000000000000000000000000000000000000000000000000",
                    "decodedMethod": null,
                    "errorInfo": "",
                    "fromAddress": "0x6e31eb0bb26298f30580a5f6bc1fb1dbf661a793",
                    "gasUsed": 303159,
                    "id": 0,
                    "methodDecoded": false,
                    "operation": "CALL",
                    "output": "0x000000000000000000000000000000000000000000000000000b3e86a262390d",
                    "revert": false,
                    "revertMessage": "",
                    "selector": "0x5cf54026",
                    "status": true,
                    "value": "0.101782347702379162"
                },
                "nodeType": 0
            },
            "1": {
                "invocation": {
                    "address": "0x382ffce2287252f930e1c8dc9328dac5bf282ba1",
                    "callData": "0x",
                    "decodedMethod": null,
                    "errorInfo": "",
                    "fromAddress": "0xe66b31678d6c16e9ebf358268a790b763c133750",
                    "gasUsed": 0,
                    "id": 1,
                    "methodDecoded": false,
                    "operation": "CALL",
                    "output": "",
                    "revert": false,
                    "revertMessage": "",
                    "selector": "fallback",
                    "status": true,
                    "value": "0.001017823477023791"
                },
                "nodeType": 0
            },
            "10": {
                "invocation": {
                    "address": "0xdef1c0ded9bec7f1a1670819833240f027b25eff",
                    "callData": "0xfffffffffffffffffffffffffffffffffffffffffffffffffff4c1795d9dc6f30000000000000000000000000000000000000000000000000165fccd0869de6b00000000000000000000000000000000000000000000000000000000000000600000000000000000000000000000000000000000000000000000000000000080000000000000000000000000c02aaa39b223fe8d0a0e5c4f27ead9083c756cc200000000000000000000000043f11c02439e2736800433b4594994bd43cd066d0000000000000000000000000000000000000000000000000000000000000bb8000000000000000000000000def1c0ded9bec7f1a1670819833240f027b25eff",
                    "decodedMethod": {
                        "callParams": [
                            {
                                "name": "amount0Delta",
                                "type": "int256",
                                "value": "-3,164,972,714,703,117"
                            },
                            {
                                "name": "amount1Delta",
                                "type": "int256",
                                "value": "100,764,524,225,355,371"
                            },
                            {
                                "name": "data",
                                "type": "bytes",
                                "value": "0x000000000000000000000000c02aaa39b223fe8d0a0e5c4f27ead9083c756cc200000000000000000000000043f11c02439e2736800433b4594994bd43cd066d0000000000000000000000000000000000000000000000000000000000000bb8000000000000000000000000def1c0ded9bec7f1a1670819833240f027b25eff"
                            }
                        ],
                        "constructorArguments": "",
                        "name": "uniswapV3SwapCallback",
                        "returnParams": [],
                        "signature": "uniswapV3SwapCallback(int256,int256,bytes)"
                    },
                    "errorInfo": "",
                    "fromAddress": "0xb11d15da84a206670beba4e8172c69e653516e80",
                    "gasUsed": 10744,
                    "id": 10,
                    "methodDecoded": true,
                    "operation": "CALL",
                    "output": "",
                    "revert": false,
                    "revertMessage": "",
                    "selector": "0xfa461e33",
                    "status": true,
                    "value": "0"
                },
                "nodeType": 0
            },
            "11": {
                "invocation": {
                    "address": "0x0d53497746e70c8cc2e5e8d2ac5f0a33f93c9353",
                    "callData": "0xfffffffffffffffffffffffffffffffffffffffffffffffffff4c1795d9dc6f30000000000000000000000000000000000000000000000000165fccd0869de6b00000000000000000000000000000000000000000000000000000000000000600000000000000000000000000000000000000000000000000000000000000080000000000000000000000000c02aaa39b223fe8d0a0e5c4f27ead9083c756cc200000000000000000000000043f11c02439e2736800433b4594994bd43cd066d0000000000000000000000000000000000000000000000000000000000000bb8000000000000000000000000def1c0ded9bec7f1a1670819833240f027b25eff",
                    "decodedMethod": {
                        "callParams": [
                            {
                                "name": "amount0Delta",
                                "type": "int256",
                                "value": "-3,164,972,714,703,117"
                            },
                            {
                                "name": "amount1Delta",
                                "type": "int256",
                                "value": "100,764,524,225,355,371"
                            },
                            {
                                "name": "data",
                                "type": "bytes",
                                "value": "0x000000000000000000000000c02aaa39b223fe8d0a0e5c4f27ead9083c756cc200000000000000000000000043f11c02439e2736800433b4594994bd43cd066d0000000000000000000000000000000000000000000000000000000000000bb8000000000000000000000000def1c0ded9bec7f1a1670819833240f027b25eff"
                            }
                        ],
                        "constructorArguments": "",
                        "name": "uniswapV3SwapCallback",
                        "returnParams": [],
                        "signature": "uniswapV3SwapCallback(int256,int256,bytes)"
                    },
                    "errorInfo": "",
                    "fromAddress": "0xdef1c0ded9bec7f1a1670819833240f027b25eff",
                    "gasUsed": 7572,
                    "id": 11,
                    "methodDecoded": true,
                    "operation": "DELEGATECALL",
                    "output": "",
                    "revert": false,
                    "revertMessage": "",
                    "selector": "0xfa461e33",
                    "status": true,
                    "value": "0"
                },
                "nodeType": 0
            },
            "12": {
                "invocation": {
                    "address": "0xc02aaa39b223fe8d0a0e5c4f27ead9083c756cc2",
                    "callData": "0x000000000000000000000000b11d15da84a206670beba4e8172c69e653516e800000000000000000000000000000000000000000000000000165fccd0869de6b",
                    "decodedMethod": {
                        "callParams": [
                            {
                                "name": "dst",
                                "type": "address",
                                "value": "0xb11d15da84a206670beba4e8172c69e653516e80"
                            },
                            {
                                "decimalAvailable": true,
                                "name": "wad",
                                "type": "uint256",
                                "value": "100,764,524,225,355,371"
                            }
                        ],
                        "constructorArguments": "",
                        "name": "transfer",
                        "returnParams": [
                            {
                                "name": "",
                                "type": "bool",
                                "value": true
                            }
                        ],
                        "signature": "transfer(address,uint256)"
                    },
                    "errorInfo": "",
                    "fromAddress": "0xdef1c0ded9bec7f1a1670819833240f027b25eff",
                    "gasUsed": 6062,
                    "id": 12,
                    "methodDecoded": true,
                    "operation": "CALL",
                    "output": "0x0000000000000000000000000000000000000000000000000000000000000001",
                    "revert": false,
                    "revertMessage": "",
                    "selector": "0xa9059cbb",
                    "status": true,
                    "value": "0"
                },
                "nodeType": 0
            },
            "13": {
                "event": {
                    "contract": "0xc02aaa39b223fe8d0a0e5c4f27ead9083c756cc2",
                    "decodedLog": {
                        "name": "Transfer",
                        "params": [
                            {
                                "name": "src",
                                "type": "address",
                                "value": "0xdef1c0ded9bec7f1a1670819833240f027b25eff"
                            },
                            {
                                "name": "dst",
                                "type": "address",
                                "value": "0xb11d15da84a206670beba4e8172c69e653516e80"
                            },
                            {
                                "decimalAvailable": true,
                                "name": "wad",
                                "type": "uint256",
                                "value": "100,764,524,225,355,371"
                            }
                        ],
                        "signature": "Transfer(address,address,uint256)"
                    },
                    "id": 13,
                    "logData": "0x0000000000000000000000000000000000000000000000000165fccd0869de6b",
                    "logDecoded": true,
                    "operation": "EVENT",
                    "revert": false,
                    "status": true,
                    "topics": [
                        "0xddf252ad1be2c89b69c2b068fc378daa952ba7f163c4a11628f55a4df523b3ef",
                        "0x000000000000000000000000def1c0ded9bec7f1a1670819833240f027b25eff",
                        "0x000000000000000000000000b11d15da84a206670beba4e8172c69e653516e80"
                    ]
                },
                "nodeType": 1
            },
            "14": {
                "invocation": {
                    "address": "0xc02aaa39b223fe8d0a0e5c4f27ead9083c756cc2",
                    "callData": "0x000000000000000000000000b11d15da84a206670beba4e8172c69e653516e80",
                    "decodedMethod": {
                        "callParams": [
                            {
                                "name": "",
                                "type": "address",
                                "value": "0xb11d15da84a206670beba4e8172c69e653516e80"
                            }
                        ],
                        "constructorArguments": "",
                        "name": "balanceOf",
                        "returnParams": [
                            {
                                "decimalAvailable": true,
                                "name": "",
                                "type": "uint256",
                                "value": "19,305,864,541,685,262,940"
                            }
                        ],
                        "signature": "balanceOf(address)"
                    },
                    "errorInfo": "",
                    "fromAddress": "0xb11d15da84a206670beba4e8172c69e653516e80",
                    "gasUsed": 534,
                    "id": 14,
                    "methodDecoded": true,
                    "operation": "STATICCALL",
                    "output": "0x0000000000000000000000000000000000000000000000010bec358388f5aa5c",
                    "revert": false,
                    "revertMessage": "",
                    "selector": "0x70a08231",
                    "status": true,
                    "value": "0"
                },
                "nodeType": 0
            },
            "15": {
                "event": {
                    "contract": "0xb11d15da84a206670beba4e8172c69e653516e80",
                    "decodedLog": {
                        "name": "Swap",
                        "params": [
                            {
                                "name": "sender",
                                "type": "address",
                                "value": "0xdef1c0ded9bec7f1a1670819833240f027b25eff"
                            },
                            {
                                "name": "recipient",
                                "type": "address",
                                "value": "0xe66b31678d6c16e9ebf358268a790b763c133750"
                            },
                            {
                                "name": "amount0",
                                "type": "int256",
                                "value": "-3,164,972,714,703,117"
                            },
                            {
                                "name": "amount1",
                                "type": "int256",
                                "value": "100,764,524,225,355,371"
                            },
                            {
                                "name": "sqrtPriceX96",
                                "type": "uint160",
                                "value": "446,578,807,903,500,420,263,625,599,661"
                            },
                            {
                                "name": "liquidity",
                                "type": "uint128",
                                "value": "19,158,783,243,582,768,747"
                            },
                            {
                                "name": "tick",
                                "type": "int24",
                                "value": "34,587"
                            }
                        ],
                        "signature": "Swap(address,address,int256,int256,uint160,uint128,int24)"
                    },
                    "id": 15,
                    "logData": "0xfffffffffffffffffffffffffffffffffffffffffffffffffff4c1795d9dc6f30000000000000000000000000000000000000000000000000165fccd0869de6b0000000000000000000000000000000000000005a2f954f5bf8332aa01ebaaad00000000000000000000000000000000000000000000000109e1abda3a75066b000000000000000000000000000000000000000000000000000000000000871b",
                    "logDecoded": true,
                    "operation": "EVENT",
                    "revert": false,
                    "status": true,
                    "topics": [
                        "0xc42079f94a6350d7e6235f29174924f928cc2ac818eb64fed8004e115fbcca67",
                        "0x000000000000000000000000def1c0ded9bec7f1a1670819833240f027b25eff",
                        "0x000000000000000000000000e66b31678d6c16e9ebf358268a790b763c133750"
                    ]
                },
                "nodeType": 1
            },
            "16": {
                "invocation": {
                    "address": "0x43f11c02439e2736800433b4594994bd43cd066d",
                    "callData": "0x000000000000000000000000e66b31678d6c16e9ebf358268a790b763c133750",
                    "decodedMethod": {
                        "callParams": [
                            {
                                "name": "account",
                                "type": "address",
                                "value": "0xe66b31678d6c16e9ebf358268a790b763c133750"
                            }
                        ],
                        "constructorArguments": "",
                        "name": "balanceOf",
                        "returnParams": [
                            {
                                "decimalAvailable": true,
                                "name": "",
                                "type": "uint256",
                                "value": "3,164,972,714,703,117"
                            }
                        ],
                        "signature": "balanceOf(address)"
                    },
                    "errorInfo": "",
                    "fromAddress": "0xe66b31678d6c16e9ebf358268a790b763c133750",
                    "gasUsed": 11924,
                    "id": 16,
                    "methodDecoded": true,
                    "operation": "STATICCALL",
                    "output": "0x000000000000000000000000000000000000000000000000000b3e86a262390d",
                    "revert": false,
                    "revertMessage": "",
                    "selector": "0x70a08231",
                    "status": true,
                    "value": "0"
                },
                "nodeType": 0
            },
            "17": {
                "invocation": {
                    "address": "0x43f11c02439e2736800433b4594994bd43cd066d",
                    "callData": "0x0000000000000000000000006e31eb0bb26298f30580a5f6bc1fb1dbf661a793000000000000000000000000000000000000000000000000000b3e86a262390d",
                    "decodedMethod": {
                        "callParams": [
                            {
                                "name": "recipient",
                                "type": "address",
                                "value": "0x6e31eb0bb26298f30580a5f6bc1fb1dbf661a793"
                            },
                            {
                                "decimalAvailable": true,
                                "name": "amount",
                                "type": "uint256",
                                "value": "3,164,972,714,703,117"
                            }
                        ],
                        "constructorArguments": "",
                        "name": "transfer",
                        "returnParams": [
                            {
                                "name": "",
                                "type": "bool",
                                "value": true
                            }
                        ],
                        "signature": "transfer(address,uint256)"
                    },
                    "errorInfo": "",
                    "fromAddress": "0xe66b31678d6c16e9ebf358268a790b763c133750",
                    "gasUsed": 55442,
                    "id": 17,
                    "methodDecoded": true,
                    "operation": "CALL",
                    "output": "0x0000000000000000000000000000000000000000000000000000000000000001",
                    "revert": false,
                    "revertMessage": "",
                    "selector": "0xa9059cbb",
                    "status": true,
                    "value": "0"
                },
                "nodeType": 0
            },
            "18": {
                "event": {
                    "contract": "0x43f11c02439e2736800433b4594994bd43cd066d",
                    "decodedLog": {
                        "name": "Transfer",
                        "params": [
                            {
                                "name": "from",
                                "type": "address",
                                "value": "0xe66b31678d6c16e9ebf358268a790b763c133750"
                            },
                            {
                                "name": "to",
                                "type": "address",
                                "value": "0x6e31eb0bb26298f30580a5f6bc1fb1dbf661a793"
                            },
                            {
                                "decimalAvailable": true,
                                "name": "value",
                                "type": "uint256",
                                "value": "3,164,972,714,703,117"
                            }
                        ],
                        "signature": "Transfer(address,address,uint256)"
                    },
                    "id": 18,
                    "logData": "0x000000000000000000000000000000000000000000000000000b3e86a262390d",
                    "logDecoded": true,
                    "operation": "EVENT",
                    "revert": false,
                    "status": true,
                    "topics": [
                        "0xddf252ad1be2c89b69c2b068fc378daa952ba7f163c4a11628f55a4df523b3ef",
                        "0x000000000000000000000000e66b31678d6c16e9ebf358268a790b763c133750",
                        "0x0000000000000000000000006e31eb0bb26298f30580a5f6bc1fb1dbf661a793"
                    ]
                },
                "nodeType": 1
            },
            "2": {
                "invocation": {
                    "address": "0xdef1c0ded9bec7f1a1670819833240f027b25eff",
                    "callData": "0x0000000000000000000000000000000000000000000000000000000000000060000000000000000000000000000000000000000000000000000ae82b8e26f4c70000000000000000000000000000000000000000000000000000000000000000000000000000000000000000000000000000000000000000000000000000002bc02aaa39b223fe8d0a0e5c4f27ead9083c756cc2000bb843f11c02439e2736800433b4594994bd43cd066d000000000000000000000000000000000000000000869584cd000000000000000000000000382ffce2287252f930e1c8dc9328dac5bf282ba100000000000000000000000000000000000000000000003289d7c7c161af9889",
                    "decodedMethod": {
                        "callParams": [
                            {
                                "name": "encodedPath",
                                "type": "bytes",
                                "value": "0xc02aaa39b223fe8d0a0e5c4f27ead9083c756cc2000bb843f11c02439e2736800433b4594994bd43cd066d"
                            },
                            {
                                "name": "minBuyAmount",
                                "type": "uint256",
                                "value": "3,070,023,533,262,023"
                            },
                            {
                                "name": "recipient",
                                "type": "address",
                                "value": "0x0000000000000000000000000000000000000000"
                            }
                        ],
                        "constructorArguments": "",
                        "name": "sellEthForTokenToUniswapV3",
                        "returnParams": [
                            {
                                "name": "buyAmount",
                                "type": "uint256",
                                "value": "3,164,972,714,703,117"
                            }
                        ],
                        "signature": "sellEthForTokenToUniswapV3(bytes,uint256,address)"
                    },
                    "errorInfo": "",
                    "fromAddress": "0xe66b31678d6c16e9ebf358268a790b763c133750",
                    "gasUsed": 212389,
                    "id": 2,
                    "methodDecoded": true,
                    "operation": "CALL",
                    "output": "0x000000000000000000000000000000000000000000000000000b3e86a262390d",
                    "revert": false,
                    "revertMessage": "",
                    "selector": "0x3598d8ab",
                    "status": true,
                    "value": "0.100764524225355371"
                },
                "nodeType": 0
            },
            "3": {
                "invocation": {
                    "address": "0x0d53497746e70c8cc2e5e8d2ac5f0a33f93c9353",
                    "callData": "0x0000000000000000000000000000000000000000000000000000000000000060000000000000000000000000000000000000000000000000000ae82b8e26f4c70000000000000000000000000000000000000000000000000000000000000000000000000000000000000000000000000000000000000000000000000000002bc02aaa39b223fe8d0a0e5c4f27ead9083c756cc2000bb843f11c02439e2736800433b4594994bd43cd066d000000000000000000000000000000000000000000869584cd000000000000000000000000382ffce2287252f930e1c8dc9328dac5bf282ba100000000000000000000000000000000000000000000003289d7c7c161af9889",
                    "decodedMethod": {
                        "callParams": [
                            {
                                "name": "encodedPath",
                                "type": "bytes",
                                "value": "0xc02aaa39b223fe8d0a0e5c4f27ead9083c756cc2000bb843f11c02439e2736800433b4594994bd43cd066d"
                            },
                            {
                                "name": "minBuyAmount",
                                "type": "uint256",
                                "value": "3,070,023,533,262,023"
                            },
                            {
                                "name": "recipient",
                                "type": "address",
                                "value": "0x0000000000000000000000000000000000000000"
                            }
                        ],
                        "constructorArguments": "",
                        "name": "sellEthForTokenToUniswapV3",
                        "returnParams": [
                            {
                                "name": "buyAmount",
                                "type": "uint256",
                                "value": "3,164,972,714,703,117"
                            }
                        ],
                        "signature": "sellEthForTokenToUniswapV3(bytes,uint256,address)"
                    },
                    "errorInfo": "",
                    "fromAddress": "0xdef1c0ded9bec7f1a1670819833240f027b25eff",
                    "gasUsed": 206647,
                    "id": 3,
                    "methodDecoded": true,
                    "operation": "DELEGATECALL",
                    "output": "0x000000000000000000000000000000000000000000000000000b3e86a262390d",
                    "revert": false,
                    "revertMessage": "",
                    "selector": "0x3598d8ab",
                    "status": true,
                    "value": "0.100764524225355371"
                },
                "nodeType": 0
            },
            "4": {
                "invocation": {
                    "address": "0xc02aaa39b223fe8d0a0e5c4f27ead9083c756cc2",
                    "callData": "0x",
                    "decodedMethod": {
                        "callParams": [],
                        "constructorArguments": "",
                        "name": "deposit",
                        "returnParams": [],
                        "signature": "deposit()"
                    },
                    "errorInfo": "",
                    "fromAddress": "0xdef1c0ded9bec7f1a1670819833240f027b25eff",
                    "gasUsed": 6874,
                    "id": 4,
                    "methodDecoded": true,
                    "operation": "CALL",
                    "output": "",
                    "revert": false,
                    "revertMessage": "",
                    "selector": "0xd0e30db0",
                    "status": true,
                    "value": "0.100764524225355371"
                },
                "nodeType": 0
            },
            "5": {
                "event": {
                    "contract": "0xc02aaa39b223fe8d0a0e5c4f27ead9083c756cc2",
                    "decodedLog": {
                        "name": "Deposit",
                        "params": [
                            {
                                "name": "dst",
                                "type": "address",
                                "value": "0xdef1c0ded9bec7f1a1670819833240f027b25eff"
                            },
                            {
                                "name": "wad",
                                "type": "uint256",
                                "value": "100,764,524,225,355,371"
                            }
                        ],
                        "signature": "Deposit(address,uint256)"
                    },
                    "id": 5,
                    "logData": "0x0000000000000000000000000000000000000000000000000165fccd0869de6b",
                    "logDecoded": true,
                    "operation": "EVENT",
                    "revert": false,
                    "status": true,
                    "topics": [
                        "0xe1fffcc4923d04b559f4d29a8bfc6cda04eb5b0d3c460751c2402c5c5cc9109c",
                        "0x000000000000000000000000def1c0ded9bec7f1a1670819833240f027b25eff"
                    ]
                },
                "nodeType": 1
            },
            "6": {
                "invocation": {
                    "address": "0xb11d15da84a206670beba4e8172c69e653516e80",
                    "callData": "0x000000000000000000000000e66b31678d6c16e9ebf358268a790b763c13375000000000000000000000000000000000000000000000000000000000000000000000000000000000000000000000000000000000000000000165fccd0869de6b000000000000000000000000fffd8963efd1fc6a506488495d951d5263988d2500000000000000000000000000000000000000000000000000000000000000a00000000000000000000000000000000000000000000000000000000000000080000000000000000000000000c02aaa39b223fe8d0a0e5c4f27ead9083c756cc200000000000000000000000043f11c02439e2736800433b4594994bd43cd066d0000000000000000000000000000000000000000000000000000000000000bb8000000000000000000000000def1c0ded9bec7f1a1670819833240f027b25eff",
                    "decodedMethod": {
                        "callParams": [
                            {
                                "name": "recipient",
                                "type": "address",
                                "value": "0xe66b31678d6c16e9ebf358268a790b763c133750"
                            },
                            {
                                "name": "zeroForOne",
                                "type": "bool",
                                "value": false
                            },
                            {
                                "name": "amountSpecified",
                                "type": "int256",
                                "value": "100,764,524,225,355,371"
                            },
                            {
                                "name": "sqrtPriceLimitX96",
                                "type": "uint160",
                                "value": "1,461,446,703,485,210,103,287,273,052,203,988,822,378,723,970,341"
                            },
                            {
                                "name": "data",
                                "type": "bytes",
                                "value": "0x000000000000000000000000c02aaa39b223fe8d0a0e5c4f27ead9083c756cc200000000000000000000000043f11c02439e2736800433b4594994bd43cd066d0000000000000000000000000000000000000000000000000000000000000bb8000000000000000000000000def1c0ded9bec7f1a1670819833240f027b25eff"
                            }
                        ],
                        "constructorArguments": "",
                        "name": "swap",
                        "returnParams": [
                            {
                                "name": "amount0",
                                "type": "int256",
                                "value": "-3,164,972,714,703,117"
                            },
                            {
                                "name": "amount1",
                                "type": "int256",
                                "value": "100,764,524,225,355,371"
                            }
                        ],
                        "signature": "swap(address,bool,int256,uint160,bytes)"
                    },
                    "errorInfo": "",
                    "fromAddress": "0xdef1c0ded9bec7f1a1670819833240f027b25eff",
                    "gasUsed": 184588,
                    "id": 6,
                    "methodDecoded": true,
                    "operation": "CALL",
                    "output": "0xfffffffffffffffffffffffffffffffffffffffffffffffffff4c1795d9dc6f30000000000000000000000000000000000000000000000000165fccd0869de6b",
                    "revert": false,
                    "revertMessage": "",
                    "selector": "0x128acb08",
                    "status": true,
                    "value": "0"
                },
                "nodeType": 0
            },
            "7": {
                "invocation": {
                    "address": "0x43f11c02439e2736800433b4594994bd43cd066d",
                    "callData": "0x000000000000000000000000e66b31678d6c16e9ebf358268a790b763c133750000000000000000000000000000000000000000000000000000b3e86a262390d",
                    "decodedMethod": {
                        "callParams": [
                            {
                                "name": "recipient",
                                "type": "address",
                                "value": "0xe66b31678d6c16e9ebf358268a790b763c133750"
                            },
                            {
                                "decimalAvailable": true,
                                "name": "amount",
                                "type": "uint256",
                                "value": "3,164,972,714,703,117"
                            }
                        ],
                        "constructorArguments": "",
                        "name": "transfer",
                        "returnParams": [
                            {
                                "name": "",
                                "type": "bool",
                                "value": true
                            }
                        ],
                        "signature": "transfer(address,uint256)"
                    },
                    "errorInfo": "",
                    "fromAddress": "0xb11d15da84a206670beba4e8172c69e653516e80",
                    "gasUsed": 127542,
                    "id": 7,
                    "methodDecoded": true,
                    "operation": "CALL",
                    "output": "0x0000000000000000000000000000000000000000000000000000000000000001",
                    "revert": false,
                    "revertMessage": "",
                    "selector": "0xa9059cbb",
                    "status": true,
                    "value": "0"
                },
                "nodeType": 0
            },
            "8": {
                "event": {
                    "contract": "0x43f11c02439e2736800433b4594994bd43cd066d",
                    "decodedLog": {
                        "name": "Transfer",
                        "params": [
                            {
                                "name": "from",
                                "type": "address",
                                "value": "0xb11d15da84a206670beba4e8172c69e653516e80"
                            },
                            {
                                "name": "to",
                                "type": "address",
                                "value": "0xe66b31678d6c16e9ebf358268a790b763c133750"
                            },
                            {
                                "decimalAvailable": true,
                                "name": "value",
                                "type": "uint256",
                                "value": "3,164,972,714,703,117"
                            }
                        ],
                        "signature": "Transfer(address,address,uint256)"
                    },
                    "id": 8,
                    "logData": "0x000000000000000000000000000000000000000000000000000b3e86a262390d",
                    "logDecoded": true,
                    "operation": "EVENT",
                    "revert": false,
                    "status": true,
                    "topics": [
                        "0xddf252ad1be2c89b69c2b068fc378daa952ba7f163c4a11628f55a4df523b3ef",
                        "0x000000000000000000000000b11d15da84a206670beba4e8172c69e653516e80",
                        "0x000000000000000000000000e66b31678d6c16e9ebf358268a790b763c133750"
                    ]
                },
                "nodeType": 1
            },
            "9": {
                "invocation": {
                    "address": "0xc02aaa39b223fe8d0a0e5c4f27ead9083c756cc2",
                    "callData": "0x000000000000000000000000b11d15da84a206670beba4e8172c69e653516e80",
                    "decodedMethod": {
                        "callParams": [
                            {
                                "name": "",
                                "type": "address",
                                "value": "0xb11d15da84a206670beba4e8172c69e653516e80"
                            }
                        ],
                        "constructorArguments": "",
                        "name": "balanceOf",
                        "returnParams": [
                            {
                                "decimalAvailable": true,
                                "name": "",
                                "type": "uint256",
                                "value": "19,205,100,017,459,907,569"
                            }
                        ],
                        "signature": "balanceOf(address)"
                    },
                    "errorInfo": "",
                    "fromAddress": "0xb11d15da84a206670beba4e8172c69e653516e80",
                    "gasUsed": 2534,
                    "id": 9,
                    "methodDecoded": true,
                    "operation": "STATICCALL",
                    "output": "0x0000000000000000000000000000000000000000000000010a8638b6808bcbf1",
                    "revert": false,
                    "revertMessage": "",
                    "selector": "0x70a08231",
                    "status": true,
                    "value": "0"
                },
                "nodeType": 0
            }
        },
        "gasFlame": [
            {
                "children": [
                    {
                        "children": [
                            {
                                "children": [],
                                "depth": 0,
                                "name": "Initial Gas",
                                "value": 25104
                            },
                            {
                                "children": [
                                    {
                                        "children": [],
                                        "depth": 1,
                                        "name": "fallback",
                                        "value": 0
                                    },
                                    {
                                        "children": [
                                            {
                                                "children": [
                                                    {
                                                        "children": [],
                                                        "depth": 3,
                                                        "name": "deposit",
                                                        "value": 6874
                                                    },
                                                    {
                                                        "children": [
                                                            {
                                                                "children": [],
                                                                "depth": 4,
                                                                "name": "transfer",
                                                                "value": 127542
                                                            },
                                                            {
                                                                "children": [],
                                                                "depth": 4,
                                                                "name": "balanceOf",
                                                                "value": 2534
                                                            },
                                                            {
                                                                "children": [
                                                                    {
                                                                        "children": [
                                                                            {
                                                                                "children": [],
                                                                                "depth": 6,
                                                                                "name": "transfer",
                                                                                "value": 6062
                                                                            }
                                                                        ],
                                                                        "depth": 5,
                                                                        "name": "uniswapV3SwapCallback",
                                                                        "value": 7572
                                                                    }
                                                                ],
                                                                "depth": 4,
                                                                "name": "uniswapV3SwapCallback",
                                                                "value": 10744
                                                            },
                                                            {
                                                                "children": [],
                                                                "depth": 4,
                                                                "name": "balanceOf",
                                                                "value": 534
                                                            }
                                                        ],
                                                        "depth": 3,
                                                        "name": "swap",
                                                        "value": 184588
                                                    }
                                                ],
                                                "depth": 2,
                                                "name": "sellEthForTokenToUniswapV3",
                                                "value": 206647
                                            }
                                        ],
                                        "depth": 1,
                                        "name": "sellEthForTokenToUniswapV3",
                                        "value": 212389
                                    },
                                    {
                                        "children": [],
                                        "depth": 1,
                                        "name": "balanceOf",
                                        "value": 11924
                                    },
                                    {
                                        "children": [],
                                        "depth": 1,
                                        "name": "transfer",
                                        "value": 55442
                                    }
                                ],
                                "depth": 0,
                                "name": "Executed Gas",
                                "value": 306355
                            }
                        ],
                        "depth": -1,
                        "name": "Actual Gas Used",
                        "value": 303159
                    },
                    {
                        "children": [],
                        "depth": -1,
                        "name": "Refunded Gas",
                        "value": 28300
                    }
                ],
                "depth": -2,
                "name": "Total Gas",
                "value": 331459
            }
        ],
        "isConfirmed": true,
        "mainTrace": [
            {
                "children": [
                    {
                        "children": [
                            {
                                "children": [],
                                "depth": 1,
                                "id": 1,
                                "order": 1
                            },
                            {
                                "children": [
                                    {
                                        "children": [
                                            {
                                                "children": [
                                                    {
                                                        "children": [],
                                                        "depth": 4,
                                                        "id": 5,
                                                        "order": 5
                                                    }
                                                ],
                                                "depth": 3,
                                                "id": 4,
                                                "order": 4
                                            },
                                            {
                                                "children": [
                                                    {
                                                        "children": [
                                                            {
                                                                "children": [],
                                                                "depth": 5,
                                                                "id": 8,
                                                                "order": 8
                                                            }
                                                        ],
                                                        "depth": 4,
                                                        "id": 7,
                                                        "order": 7
                                                    },
                                                    {
                                                        "children": [],
                                                        "depth": 4,
                                                        "id": 9,
                                                        "order": 9
                                                    },
                                                    {
                                                        "children": [
                                                            {
                                                                "children": [
                                                                    {
                                                                        "children": [
                                                                            {
                                                                                "children": [],
                                                                                "depth": 7,
                                                                                "id": 13,
                                                                                "order": 13
                                                                            }
                                                                        ],
                                                                        "depth": 6,
                                                                        "id": 12,
                                                                        "order": 12
                                                                    }
                                                                ],
                                                                "depth": 5,
                                                                "id": 11,
                                                                "order": 11
                                                            }
                                                        ],
                                                        "depth": 4,
                                                        "id": 10,
                                                        "order": 10
                                                    },
                                                    {
                                                        "children": [],
                                                        "depth": 4,
                                                        "id": 14,
                                                        "order": 14
                                                    },
                                                    {
                                                        "children": [],
                                                        "depth": 4,
                                                        "id": 15,
                                                        "order": 15
                                                    }
                                                ],
                                                "depth": 3,
                                                "id": 6,
                                                "order": 6
                                            }
                                        ],
                                        "depth": 2,
                                        "id": 3,
                                        "order": 3
                                    }
                                ],
                                "depth": 1,
                                "id": 2,
                                "order": 2
                            },
                            {
                                "children": [],
                                "depth": 1,
                                "id": 16,
                                "order": 16
                            },
                            {
                                "children": [
                                    {
                                        "children": [],
                                        "depth": 2,
                                        "id": 18,
                                        "order": 18
                                    }
                                ],
                                "depth": 1,
                                "id": 17,
                                "order": 17
                            }
                        ],
                        "depth": 0,
                        "id": 0,
                        "order": 0
                    }
                ],
                "depth": -1,
                "id": -1,
                "order": -1
            }
        ],
        "mainTraceNodeCount": 19,
        "parentIdMap": {
            "0": -1,
            "1": 0,
            "10": 6,
            "11": 10,
            "12": 11,
            "13": 12,
            "14": 6,
            "15": 6,
            "16": 0,
            "17": 0,
            "18": 17,
            "2": 0,
            "3": 2,
            "4": 3,
            "5": 4,
            "6": 3,
            "7": 6,
            "8": 7,
            "9": 6
        },
        "tidyTrace": [
            {
                "children": [
                    {
                        "children": [
                            {
                                "children": [],
                                "depth": 1,
                                "id": 1,
                                "order": 1
                            },
                            {
                                "children": [
                                    {
                                        "children": [
                                            {
                                                "children": [
                                                    {
                                                        "children": [],
                                                        "depth": 4,
                                                        "id": 5,
                                                        "order": 5
                                                    }
                                                ],
                                                "depth": 3,
                                                "id": 4,
                                                "order": 4
                                            },
                                            {
                                                "children": [
                                                    {
                                                        "children": [
                                                            {
                                                                "children": [],
                                                                "depth": 5,
                                                                "id": 8,
                                                                "order": 8
                                                            }
                                                        ],
                                                        "depth": 4,
                                                        "id": 7,
                                                        "order": 7
                                                    },
                                                    {
                                                        "children": [
                                                            {
                                                                "children": [
                                                                    {
                                                                        "children": [
                                                                            {
                                                                                "children": [],
                                                                                "depth": 7,
                                                                                "id": 13,
                                                                                "order": 13
                                                                            }
                                                                        ],
                                                                        "depth": 6,
                                                                        "id": 12,
                                                                        "order": 12
                                                                    }
                                                                ],
                                                                "depth": 5,
                                                                "id": 11,
                                                                "order": 11
                                                            }
                                                        ],
                                                        "depth": 4,
                                                        "id": 10,
                                                        "order": 10
                                                    },
                                                    {
                                                        "children": [],
                                                        "depth": 4,
                                                        "id": 15,
                                                        "order": 15
                                                    }
                                                ],
                                                "depth": 3,
                                                "id": 6,
                                                "order": 6
                                            }
                                        ],
                                        "depth": 2,
                                        "id": 3,
                                        "order": 3
                                    }
                                ],
                                "depth": 1,
                                "id": 2,
                                "order": 2
                            },
                            {
                                "children": [
                                    {
                                        "children": [],
                                        "depth": 2,
                                        "id": 18,
                                        "order": 18
                                    }
                                ],
                                "depth": 1,
                                "id": 17,
                                "order": 17
                            }
                        ],
                        "depth": 0,
                        "id": 0,
                        "order": 0
                    }
                ],
                "depth": -1,
                "id": -1,
                "order": -1
            }
        ],
        "tidyTraceNodeCount": 16
    },
    "state_change": {
        "stateChanges": [
            {
                "address": "0x43f11c02439e2736800433b4594994bd43cd066d",
                "erc": "ERC-20",
                "slots": [
                    {
                        "current": "0x000c7e80b00f3c60319dbcee91296c5a2aeb663744a33c4a2f29449de98194e2",
                        "key": "0xd4e5f25a8e1e4bc2b9be0e1c98620a8ddd49456d1b3fa2ad965e1950ea8a58e3",
                        "prev": "0x000c83a76f4a380c759534a2678e423c6b44cf2ea70d13c874cea2e8c31d1bad"
                    },
                    {
                        "current": "0x0000146c546054aaca4c031f5d072df524be30a9300f6bde36d813453610283d",
                        "key": "0x848a4a9b2e8e6ebdaa61f0747c2ca70c8a007280d5a6930c3524eaf1bc6e1be4",
                        "prev": "0x00000f45952558fe86548b6b86a25812e464c7b1cda5945ff132b4fa5c74a172"
                    }
                ],
                "storageVariables": [
                    {
                        "name": "_rOwned",
                        "type": "mapping(address => uint256)",
                        "value": {
                            "pairs": [
                                {
                                    "key": "0x6e31eb0bb26298f30580a5f6bc1fb1dbf661a793",
                                    "value": {
                                        "current": "140955487036527942678027879154141395517835900830639255502323339311982653",
                                        "prev": "105402138417275846703111032431218901611947844587471323115423276555608434",
                                        "typeTag": 1
                                    }
                                },
                                {
                                    "key": "0xb11d15da84a206670beba4e8172c69e653516e80",
                                    "value": {
                                        "current": "22075254231440614131136389005554895589643289492211629972313586800191968482",
                                        "prev": "22110807580059866227111305852277818083549177548454797904700486862948342701",
                                        "typeTag": 1
                                    }
                                }
                            ],
                            "typeTag": 4
                        }
                    }
                ]
            },
            {
                "address": "0xb11d15da84a206670beba4e8172c69e653516e80",
                "erc": "",
                "slots": [
                    {
                        "current": "0x01000000000000000000b0670774d4216a9867e62500001ec57abf3761af988d",
                        "key": "0x000000000000000000000000000000000000000000000000000000000000003a",
                        "prev": "0x01000000000000000000b00e0a6fd296a0b0f47dc300001e90cbc62761af3643"
                    },
                    {
                        "current": "0x000000000000000000000000000000020ed0b81da1d919659fd180d1a2e2c432",
                        "key": "0x0000000000000000000000000000000000000000000000000000000000000002",
                        "prev": "0x000000000000000000000000000000020ecfaf663a5e201b2b7cd7121d07e111"
                    },
                    {
                        "current": "0x00010000500050003200871b0000000000000005a2f954f5bf8332aa01ebaaad",
                        "key": "0x0000000000000000000000000000000000000000000000000000000000000000",
                        "prev": "0x0001000050005000310087080000000000000005a1a1aede6989941f004a719e"
                    }
                ],
                "storageVariables": []
            },
            {
                "address": "0xc02aaa39b223fe8d0a0e5c4f27ead9083c756cc2",
                "erc": "ERC-20",
                "slots": [
                    {
                        "current": "0x0000000000000000000000000000000000000000000000010bec358388f5aa5c",
                        "key": "0xdf865badf5e430f1ae4d48be8663588b374214b4b448422f4cd10ae375300ac0",
                        "prev": "0x0000000000000000000000000000000000000000000000010a8638b6808bcbf1"
                    }
                ],
                "storageVariables": [
                    {
                        "name": "balanceOf",
                        "type": "mapping(address => uint256)",
                        "value": {
                            "pairs": [
                                {
                                    "key": "0xb11d15da84a206670beba4e8172c69e653516e80",
                                    "value": {
                                        "current": "19305864541685262940",
                                        "prev": "19205100017459907569",
                                        "typeTag": 1
                                    }
                                }
                            ],
                            "typeTag": 4
                        }
                    }
                ]
            }
        ]
    }
}