{
    "balance_change": {
        "balanceChanges": [
            {
                "account": "0x17fe6bde983e057e805bae3d3b68af8e1b039696",
                "assets": [
                    {
                        "address": "0xeeeeeeeeeeeeeeeeeeeeeeeeeeeeeeeeeeeeeeee",
                        "amount": "0.15",
                        "iconUrl": "https://assets.blocksec.com/image/1663669189317-3.png",
                        "isERC1155": false,
                        "isERC721": false,
                        "sign": false,
                        "value": "440.91289049999998043"
                    },
                    {
                        "address": "0x9515dc155712c39d9959bcf4bc6e0adf77577767",
                        "amount": "1",
                        "iconUrl": "",
                        "isERC1155": false,
                        "isERC721": true,
                        "sign": true,
                        "tokenID": "4404",
                        "value": ""
                    }
                ]
            },
            {
                "account": "0x9515dc155712c39d9959bcf4bc6e0adf77577767",
                "assets": [
                    {
                        "address": "0xeeeeeeeeeeeeeeeeeeeeeeeeeeeeeeeeeeeeeeee",
                        "amount": "0.15",
                        "iconUrl": "https://assets.blocksec.com/image/1663669189317-3.png",
                        "isERC1155": false,
                        "isERC721": false,
                        "sign": true,
                        "value": "440.91289049999998043"
                    }
                ]
            },
            {
                "account": "0x0000000000000000000000000000000000000000",
                "assets": [
                    {
                        "address": "0x9515dc155712c39d9959bcf4bc6e0adf77577767",
                        "amount": "1",
                        "iconUrl": "",
                        "isERC1155": false,
                        "isERC721": true,
                        "sign": false,
                        "tokenID": "4404",
                        "value": ""
                    }
                ]
            }
        ]
    },
    "profile": {
        "basic_info": {
            "baseFee": "26.981459816",
            "blockNumber": 14829795,
            "callData": "0xff0e32f90000000000000000000000000000000000000000000000000000000000000060000000000000000000000000000000000000000000000000000000000000000100000000000000000000000000000000000000000000000000000000000000010000000000000000000000000000000000000000000000000000000000000041bd8a84f6a91639323303fa9a4efe5f13b6e475377f6ee2e7e7f7c5d15e747be1557eaa6e3a58f1cd4e7049b956a923d3edbf9f028020967560dc5ede676b3d321c00000000000000000000000000000000000000000000000000000000000000",
            "debugEnable": true,
            "errorInfo": "",
            "eventCount": 2,
            "feeRecipient": "0x2a20380dca5bc24d052acfbf79ba23e988ad0050",
            "formatValue": "0.15",
            "gasLimit": 164153,
            "gasPrice": "28.481459816",
            "gasUsed": 163377,
            "intTxnCount": 1,
            "internalRevert": false,
            "internalRevertMessage": "",
            "isContractCreation": false,
            "isFlashloan": false,
            "maxFee": "38.388871514",
            "nonce": 9,
            "overwritedBlockNumber": -1,
            "priorityFee": "1.5",
            "receiver": "0x9515dc155712c39d9959bcf4bc6e0adf77577767",
            "revertMessage": "",
            "sender": "0x17fe6bde983e057e805bae3d3b68af8e1b039696",
            "simulationEnable": true,
            "sourceTxnHash": "0x9fa125c15d303a7134c0f137a144de1641973015076c53ea8b2dff5926d17e5a",
            "status": true,
            "timestamp": "2022-05-23T13:16:18Z",
            "transactionFee": "0.004653215460358632",
            "txnHash": "0x9fa125c15d303a7134c0f137a144de1641973015076c53ea8b2dff5926d17e5a",
            "txnIndex": 341,
            "type": 2,
            "value": "150000000000000000"
        },
        "fund_flow": [
            {
                "amount": "0.15",
                "from": "0x17fe6bde983e057e805bae3d3b68af8e1b039696",
                "id": 1,
                "isERC1155": false,
                "isERC721": false,
                "isReverted": false,
                "order": 1,
                "to": "0x9515dc155712c39d9959bcf4bc6e0adf77577767",
                "token": "0xeeeeeeeeeeeeeeeeeeeeeeeeeeeeeeeeeeeeeeee"
            },
            {
                "amount": "1",
                "from": "0x0000000000000000000000000000000000000000",
                "id": 2,
                "isERC1155": false,
                "isERC721": true,
                "isReverted": false,
                "order": 2,
                "to": "0x17fe6bde983e057e805bae3d3b68af8e1b039696",
                "token": "0x9515dc155712c39d9959bcf4bc6e0adf77577767",
                "tokenID": "4404"
            }
        ],
        "token_infos": [
            {
                "address": "0xeeeeeeeeeeeeeeeeeeeeeeeeeeeeeeeeeeeeeeee",
                "decimals": 18
            },
            {
                "address": "0xc02aaa39b223fe8d0a0e5c4f27ead9083c756cc2",
                "decimals": 18
            }
        ]
    },
    "address_label": {
        "labels": [
            {
                "address": "0x0000000000000000000000000000000000000004",
                "label": "Precompiled"
            },
            {
                "address": "0xeeeeeeeeeeeeeeeeeeeeeeeeeeeeeeeeeeeeeeee",
                "label": "Ether"
            },
            {
                "address": "0x9515dc155712c39d9959bcf4bc6e0adf77577767",
                "label": "AmazingPandaverse"
            },
            {
                "address": "0x0000000000000000000000000000000000000001",
                "label": "Precompiled"
            },
            {
                "address": "0x0000000000000000000000000000000000000002",
                "label": "Precompiled"
            },
            {
                "address": "0x0000000000000000000000000000000000000003",
                "label": "Precompiled"
            }
        ]
    },
    "trace": {
        "accountLabels": null,
        "dataMap": {
            "-1": {
                "invocation": {
                    "address": "0x17fe6bde983e057e805bae3d3b68af8e1b039696",
                    "callData": "",
                    "decodedMethod": null,
                    "errorInfo": "",
                    "fromAddress": "",
                    "gasUsed": 0,
                    "id": -1,
                    "methodDecoded": false,
                    "operation": "",
                    "output": "",
                    "revert": false,
                    "revertMessage": "",
                    "selector": "",
                    "status": false,
                    "value": ""
                },
                "nodeType": 0
            },
            "0": {
                "invocation": {
                    "address": "0x9515dc155712c39d9959bcf4bc6e0adf77577767",
                    "callData": "0x0000000000000000000000000000000000000000000000000000000000000060000000000000000000000000000000000000000000000000000000000000000100000000000000000000000000000000000000000000000000000000000000010000000000000000000000000000000000000000000000000000000000000041bd8a84f6a91639323303fa9a4efe5f13b6e475377f6ee2e7e7f7c5d15e747be1557eaa6e3a58f1cd4e7049b956a923d3edbf9f028020967560dc5ede676b3d321c00000000000000000000000000000000000000000000000000000000000000",
                    "decodedMethod": {
                        "callParams": [
                            {
                                "name": "signature",
                                "type": "bytes",
                                "value": "0xbd8a84f6a91639323303fa9a4efe5f13b6e475377f6ee2e7e7f7c5d15e747be1557eaa6e3a58f1cd4e7049b956a923d3edbf9f028020967560dc5ede676b3d321c"
                            },
                            {
                                "name": "numberOfTokens",
                                "type": "uint16",
                                "value": "1"
                            },
                            {
                                "name": "approvedLimit",
                                "type": "uint256",
                                "value": "1"
                            }
                        ],
                        "constructorArguments": "",
                        "name": "buyPresale",
                        "returnParams": [],
                        "signature": "buyPresale(bytes,uint16,uint256)"
                    },
                    "errorInfo": "",
                    "fromAddress": "0x17fe6bde983e057e805bae3d3b68af8e1b039696",
                    "gasUsed": 163377,
                    "id": 0,
                    "methodDecoded": true,
                    "operation": "CALL",
                    "output": "",
                    "revert": false,
                    "revertMessage": "",
                    "selector": "0xff0e32f9",
                    "status": true,
                    "value": "0.15"
                },
                "nodeType": 0
            },
            "1": {
                "invocation": {
                    "address": "0x0000000000000000000000000000000000000001",
                    "callData": "0x541c9af28203731d6a86855c0dfe3da9d6d1bb63d7b3722876b49d1e000000000000000000000000000000000000000000000000000000000000001cbd8a84f6a91639323303fa9a4efe5f13b6e475377f6ee2e7e7f7c5d15e747be1557eaa6e3a58f1cd4e7049b956a923d3edbf9f028020967560dc5ede676b3d32",
                    "decodedMethod": {
                        "callParams": [
                            {
                                "name": "hash",
                                "type": "bytes32",
                                "value": "0x04832bb9541c9af28203731d6a86855c0dfe3da9d6d1bb63d7b3722876b49d1e"
                            },
                            {
                                "name": "v",
                                "type": "uint256",
                                "value": "28"
                            },
                            {
                                "name": "r",
                                "type": "bytes32",
                                "value": "0xbd8a84f6a91639323303fa9a4efe5f13b6e475377f6ee2e7e7f7c5d15e747be1"
                            },
                            {
                                "name": "s",
                                "type": "bytes32",
                                "value": "0x557eaa6e3a58f1cd4e7049b956a923d3edbf9f028020967560dc5ede676b3d32"
                            }
                        ],
                        "constructorArguments": "",
                        "name": "ecrecover",
                        "returnParams": [
                            {
                                "name": "",
                                "type": "address",
                                "value": "0xdf174521dff3677f8d19f1279f778a1f794c6b2c"
                            }
                        ],
                        "signature": "ecrecover(bytes32,uint256,bytes32,bytes32)"
                    },
                    "errorInfo": "",
                    "fromAddress": "0x9515dc155712c39d9959bcf4bc6e0adf77577767",
                    "gasUsed": 3000,
                    "id": 1,
                    "methodDecoded": true,
                    "operation": "STATICCALL",
                    "output": "0x000000000000000000000000df174521dff3677f8d19f1279f778a1f794c6b2c",
                    "revert": false,
                    "revertMessage": "",
                    "selector": "0x04832bb9",
                    "status": true,
                    "value": "0"
                },
                "nodeType": 0
            },
            "2": {
                "event": {
                    "contract": "0x9515dc155712c39d9959bcf4bc6e0adf77577767",
                    "decodedLog": {
                        "name": "Transfer",
                        "params": [
                            {
                                "name": "from",
                                "type": "address",
                                "value": "0x0000000000000000000000000000000000000000"
                            },
                            {
                                "name": "to",
                                "type": "address",
                                "value": "0x17fe6bde983e057e805bae3d3b68af8e1b039696"
                            },
                            {
                                "decimalAvailable": true,
                                "name": "tokenId",
                                "type": "uint256",
                                "value": "4,404"
                            }
                        ],
                        "signature": "Transfer(address,address,uint256)"
                    },
                    "id": 2,
                    "logData": "0x",
                    "logDecoded": true,
                    "operation": "EVENT",
                    "revert": false,
                    "status": true,
                    "topics": [
                        "0xddf252ad1be2c89b69c2b068fc378daa952ba7f163c4a11628f55a4df523b3ef",
                        "0x0000000000000000000000000000000000000000000000000000000000000000",
                        "0x00000000000000000000000017fe6bde983e057e805bae3d3b68af8e1b039696",
                        "0x0000000000000000000000000000000000000000000000000000000000001134"
                    ]
                },
                "nodeType": 1
            },
            "3": {
                "event": {
                    "contract": "0x9515dc155712c39d9959bcf4bc6e0adf77577767",
                    "decodedLog": {
                        "name": "BuyPresale",
                        "params": [
                            {
                                "name": "buyer",
                                "type": "address",
                                "value": "0x17fe6bde983e057e805bae3d3b68af8e1b039696"
                            },
                            {
                                "name": "numberOfTokens",
                                "type": "uint16",
                                "value": "1"
                            }
                        ],
                        "signature": "BuyPresale(address,uint16)"
                    },
                    "id": 3,
                    "logData": "0x00000000000000000000000017fe6bde983e057e805bae3d3b68af8e1b0396960000000000000000000000000000000000000000000000000000000000000001",
                    "logDecoded": true,
                    "operation": "EVENT",
                    "revert": false,
                    "status": true,
                    "topics": [
                        "0x8e27e019812e2c3ec56472216ccb68136125853162bcdaf9f66b0eb221fcf939"
                    ]
                },
                "nodeType": 1
            }
        },
        "gasFlame": [
            {
                "children": [
                    {
                        "children": [
                            {
                                "children": [],
                                "depth": 0,
                                "name": "Initial Gas",
                                "value": 22788
                            },
                            {
                                "children": [
                                    {
                                        "children": [],
                                        "depth": 1,
                                        "name": "ecrecover",
                                        "value": 3000
                                    }
                                ],
                                "depth": 0,
                                "name": "Executed Gas",
                                "value": 140589
                            }
                        ],
                        "depth": -1,
                        "name": "Actual Gas Used",
                        "value": 163377
                    },
                    {
                        "children": [],
                        "depth": -1,
                        "name": "Refunded Gas",
                        "value": 0
                    }
                ],
                "depth": -2,
                "name": "Total Gas",
                "value": 163377
            }
        ],
        "isConfirmed": true,
        "mainTrace": [
            {
                "children": [
                    {
                        "children": [
                            {
                                "children": [],
                                "depth": 1,
                                "id": 1,
                                "order": 1
                            },
                            {
                                "children": [],
                                "depth": 1,
                                "id": 2,
                                "order": 2
                            },
                            {
                                "children": [],
                                "depth": 1,
                                "id": 3,
                                "order": 3
                            }
                        ],
                        "depth": 0,
                        "id": 0,
                        "order": 0
                    }
                ],
                "depth": -1,
                "id": -1,
                "order": -1
            }
        ],
        "mainTraceNodeCount": 4,
        "parentIdMap": {
            "0": -1,
            "1": 0,
            "2": 0,
            "3": 0
        },
        "tidyTrace": [
            {
                "children": [
                    {
                        "children": [
                            {
                                "children": [],
                                "depth": 1,
                                "id": 2,
                                "order": 2
                            },
                            {
                                "children": [],
                                "depth": 1,
                                "id": 3,
                                "order": 3
                            }
                        ],
                        "depth": 0,
                        "id": 0,
                        "order": 0
                    }
                ],
                "depth": -1,
                "id": -1,
                "order": -1
            }
        ],
        "tidyTraceNodeCount": 3
    },
    "state_change": {
        "stateChanges": [
            {
                "address": "0x9515dc155712c39d9959bcf4bc6e0adf77577767",
                "erc": "ERC-721",
                "slots": [
                    {
                        "current": "0x0000000000000000000000000000000000000000000000000000000000002122",
                        "key": "0x44d4958f4899b45ef7e8f0132d87113dba6fd80d606b076abe77b1d21a275e51",
                        "prev": "0x0000000000000000000000000000000000000000000000000000000000000000"
                    },
                    {
                        "current": "0x0000000000000000000000000000000000000000000000000000000000001134",
                        "key": "0x5a2e484b002a2c8c5dd184cfa9962ad1c3e6af19fb47e3fb8a57987a47665aa6",
                        "prev": "0x0000000000000000000000000000000000000000000000000000000000000000"
                    },
                    {
                        "current": "0x0000000000000000000000000000000000000000000000000000000000000001",
                        "key": "0xa586bbb3151aa087bb763158def5c4cb483bbdf6c8e6f0dc1607bafb7b7ca78a",
                        "prev": "0x0000000000000000000000000000000000000000000000000000000000000000"
                    },
                    {
                        "current": "0x00000000000000000000000017fe6bde983e057e805bae3d3b68af8e1b039696",
                        "key": "0xf4cde1aba1a6c4bd97896a045e20d9e357e3ec654e9bfbc36d25a374a9087479",
                        "prev": "0x0000000000000000000000000000000000000000000000000000000000000000"
                    },
                    {
                        "current": "0x0000000000000000000000000000000000000000000000000000000000000001",
                        "key": "0x581d42de8a43506426421b9b78c8893bfa5693fc532f1b3ec1a4ad404058efb7",
                        "prev": "0x0000000000000000000000000000000000000000000000000000000000000000"
                    },
                    {
                        "current": "0x0000000000000000000000000000000000000000000000000000000197019701",
                        "key": "0x0000000000000000000000000000000000000000000000000000000000000008",
                        "prev": "0x0000000000000000000000000000000000000000000000000000000196019601"
                    }
                ],
                "storageVariables": [
                    {
                        "name": "_owners",
                        "type": "mapping(uint256 => address)",
                        "value": {
                            "pairs": [
                                {
                                    "key": "4404",
                                    "value": {
                                        "current": "0x17fe6bde983e057e805bae3d3b68af8e1b039696",
                                        "prev": "0x0000000000000000000000000000000000000000",
                                        "typeTag": 1
                                    }
                                }
                            ],
                            "typeTag": 4
                        }
                    },
                    {
                        "name": "presaleMinted",
                        "type": "mapping(address => uint256)",
                        "value": {
                            "pairs": [
                                {
                                    "key": "0x17fe6bde983e057e805bae3d3b68af8e1b039696",
                                    "value": {
                                        "current": "1",
                                        "prev": "0",
                                        "typeTag": 1
                                    }
                                }
                            ],
                            "typeTag": 4
                        }
                    },
                    {
                        "name": "presaleActive",
                        "type": "bool",
                        "value": {
                            "current": "true",
                            "prev": "true",
                            "typeTag": 1
                        }
                    },
                    {
                        "name": "totalSupply",
                        "type": "uint16",
                        "value": {
                            "current": "407",
                            "prev": "406",
                            "typeTag": 1
                        }
                    },
                    {
                        "name": "presaleTotalSupply",
                        "type": "uint16",
                        "value": {
                            "current": "407",
                            "prev": "406",
                            "typeTag": 1
                        }
                    },
                    {
                        "name": "indexUpdated",
                        "type": "mapping(uint16 => uint16)",
                        "value": {
                            "pairs": [
                                {
                                    "key": "4403",
                                    "value": {
                                        "current": "8482",
                                        "prev": "0",
                                        "typeTag": 1
                                    }
                                }
                            ],
                            "typeTag": 4
                        }
                    },
                    {
                        "name": "_ownedTokens",
                        "type": "mapping(address => mapping(uint256 => uint256))",
                        "value": {
                            "pairs": [
                                {
                                    "key": "0x17fe6bde983e057e805bae3d3b68af8e1b039696",
                                    "value": {
                                        "pairs": [
                                            {
                                                "key": "0",
                                                "value": {
                                                    "current": "4404",
                                                    "prev": "0",
                                                    "typeTag": 1
                                                }
                                            }
                                        ],
                                        "typeTag": 4
                                    }
                                }
                            ],
                            "typeTag": 4
                        }
                    },
                    {
                        "name": "_balances",
                        "type": "mapping(address => uint256)",
                        "value": {
                            "pairs": [
                                {
                                    "key": "0x17fe6bde983e057e805bae3d3b68af8e1b039696",
                                    "value": {
                                        "current": "1",
                                        "prev": "0",
                                        "typeTag": 1
                                    }
                                }
                            ],
                            "typeTag": 4
                        }
                    }
                ]
            }
        ]
    }
}