{
    "balance_change": {
        "balanceChanges": [
            {
                "account": "0x9176032b42f3e8878fe4c6118aaee03411307383",
                "assets": [
                    {
                        "address": "0xeeeeeeeeeeeeeeeeeeeeeeeeeeeeeeeeeeeeeeee",
                        "amount": "1",
                        "iconUrl": "https://assets.blocksec.com/image/1663669189317-3.png",
                        "isERC1155": false,
                        "isERC721": false,
                        "sign": false,
                        "value": "2157.9200000000000728"
                    },
                    {
                        "address": "0x6296e92241e0df33798c1ed1886638a33259e9f8",
                        "amount": "59,453.584685847248259394",
                        "iconUrl": "",
                        "isERC1155": false,
                        "isERC721": false,
                        "sign": true,
                        "value": "1280.892147"
                    }
                ]
            },
            {
                "account": "0x142bc93b8730fa9b59b68ffb8d980f86e6b7d475",
                "assets": [
                    {
                        "address": "0xc02aaa39b223fe8d0a0e5c4f27ead9083c756cc2",
                        "amount": "0.9925",
                        "iconUrl": "https://assets.blocksec.com/icon/f1cb2d02c471d545bbc7722daf3277fd852d98e63d118771af7047bd8256c516.png",
                        "isERC1155": false,
                        "isERC721": false,
                        "sign": true,
                        "value": "2141.7356000000000722"
                    },
                    {
                        "address": "0x6296e92241e0df33798c1ed1886638a33259e9f8",
                        "amount": "59,453.584685847248259395",
                        "iconUrl": "",
                        "isERC1155": false,
                        "isERC721": false,
                        "sign": false,
                        "value": "1280.892147"
                    }
                ]
            },
            {
                "account": "0xc02aaa39b223fe8d0a0e5c4f27ead9083c756cc2",
                "assets": [
                    {
                        "address": "0xeeeeeeeeeeeeeeeeeeeeeeeeeeeeeeeeeeeeeeee",
                        "amount": "0.9925",
                        "iconUrl": "https://assets.blocksec.com/image/1663669189317-3.png",
                        "isERC1155": false,
                        "isERC721": false,
                        "sign": true,
                        "value": "2141.7356000000000722"
                    },
                    {
                        "address": "0xc02aaa39b223fe8d0a0e5c4f27ead9083c756cc2",
                        "amount": "0.9925",
                        "iconUrl": "https://assets.blocksec.com/icon/f1cb2d02c471d545bbc7722daf3277fd852d98e63d118771af7047bd8256c516.png",
                        "isERC1155": false,
                        "isERC721": false,
                        "sign": false,
                        "value": "2141.7356000000000722"
                    }
                ]
            },
            {
                "account": "0xf081470f5c6fbccf48cc4e5b82dd926409dcdd67",
                "assets": [
                    {
                        "address": "0x6296e92241e0df33798c1ed1886638a33259e9f8",
                        "amount": "0.000000000000000001",
                        "iconUrl": "",
                        "isERC1155": false,
                        "isERC721": false,
                        "sign": true,
                        "value": ""
                    }
                ]
            },
            {
                "account": "0xfe7139b9562fd258b1d1cd53fed9f74fc9f9a8b5",
                "assets": [
                    {
                        "address": "0xeeeeeeeeeeeeeeeeeeeeeeeeeeeeeeeeeeeeeeee",
                        "amount": "0.0075",
                        "iconUrl": "https://assets.blocksec.com/image/1663669189317-3.png",
                        "isERC1155": false,
                        "isERC721": false,
                        "sign": true,
                        "value": "16.184400000000000546"
                    }
                ]
            }
        ]
    },
    "profile": {
        "basic_info": {
            "baseFee": "38.090377927",
            "blockNumber": 18701302,
            "callData": "0xe21fd0e90000000000000000000000000000000000000000000000000000000000000020000000000000000000000000f081470f5c6fbccf48cc4e5b82dd926409dcdd67000000000000000000000000000000000000000000000000000000000000000000000000000000000000000000000000000000000000000000000000000000a000000000000000000000000000000000000000000000000000000000000003c000000000000000000000000000000000000000000000000000000000000006000000000000000000000000000000000000000000000000000000000000000300000000000000000000000000000000000000000000000000000000000000002000000000000000000000000000000000000000000000000000000000000000c0000000000000000000000000eeeeeeeeeeeeeeeeeeeeeeeeeeeeeeeeeeeeeeee0000000000000000000000006296e92241e0df33798c1ed1886638a33259e9f80000000000000000000000009176032b42f3e8878fe4c6118aaee0341130738300000000000000000000000000000000000000000000000000000000656ba14300000000000000000000000000000000000000000000000000000000000002a00000000000000000000000000000000000000000000000000000000000000001000000000000000000000000000000000000000000000000000000000000002000000000000000000000000000000000000000000000000000000000000000010000000000000000000000000000000000000000000000000000000000000020000000000000000000000000000000000000000000000000000000000000004059361199000000000000000000000000000000000000000000000000000000000000000000000000000000000000000000000000000000000000000000000100000000000000000000000000142bc93b8730fa9b59b68ffb8d980f86e6b7d475000000000000000000000000c02aaa39b223fe8d0a0e5c4f27ead9083c756cc20000000000000000000000006296e92241e0df33798c1ed1886638a33259e9f8000000000000000000000000f081470f5c6fbccf48cc4e5b82dd926409dcdd670000000000000000000000000000000000000000000000000dc6117dd3934000000000000000000000000000000000000000000000000000000000000000001e000000000000000000000000000000000000000000000000000000000000271000000000000000000000000000000000000000000000000000000000000000320000000000000000000000000000000000000000000000000000000000000020000000000000000000d55ab51c9599ea0000000000000cb787560b69bbce7935000000000000000000000000eeeeeeeeeeeeeeeeeeeeeeeeeeeeeeeeeeeeeeee0000000000000000000000006296e92241e0df33798c1ed1886638a33259e9f80000000000000000000000000000000000000000000000000000000000000160000000000000000000000000000000000000000000000000000000000000018000000000000000000000000000000000000000000000000000000000000001a000000000000000000000000000000000000000000000000000000000000001e00000000000000000000000009176032b42f3e8878fe4c6118aaee034113073830000000000000000000000000000000000000000000000000de0b6b3a7640000000000000000000000000000000000000000000000000c96f92ec8bd28022b3100000000000000000000000000000000000000000000000000000000000000800000000000000000000000000000000000000000000000000000000000000220000000000000000000000000000000000000000000000000000000000000000000000000000000000000000000000000000000000000000000000000000000000000000000000000000000000000000000000000000000000000000000000001000000000000000000000000fe7139b9562fd258b1d1cd53fed9f74fc9f9a8b50000000000000000000000000000000000000000000000000000000000000001000000000000000000000000000000000000000000000000000000000000004b000000000000000000000000000000000000000000000000000000000000000000000000000000000000000000000000000000000000000000000000000001f87b22536f75726365223a22436f696e5363616e222c22416d6f756e74496e555344223a22323135392e383838323433393233383432222c22416d6f756e744f7574555344223a22313739372e37373032363331313439303034222c22526566657272616c223a22222c22466c616773223a302c22496e74656772697479496e666f223a7b224b65794944223a2231222c225369676e6174757265223a22636e62447243757364642f714569744141302b4c414b5863667342655a576444486245657549694e41543048464c72634a547132544d572f523951684e675161663032324e6e7663672f5866466a3736687656324a4d394962364f577275526f7a447147646e6e624e67446a6c7073442b7946773967726530484a612f6a764f4659623037786461782b3679727a7474394e496b37483736745654383538686e4a4b6135634542712b5444387972463550637865346e4d58436c324253544b664142474a753963514671714d68714e4979724d766b5a6631686e7346434b6141726e71623473697769576a316d5a366b736332704d6c706f4739534d4b6a554a6450797358684479797a4f6b71544372666a586a4f4b71452b424278712b6c5533497159744e483142456477664d36365a4d2f4859593234595845613238746d357a656b3263355a6a585948537655654d62793531773d3d227d7d0000000000000000",
            "debugEnable": true,
            "errorInfo": "",
            "eventCount": 11,
            "feeRecipient": "0x95222290dd7278aa3ddd389cc1e1d165cc4bafe5",
            "formatValue": "1",
            "gasLimit": 315205,
            "gasPrice": "38.190377927",
            "gasUsed": 246655,
            "intTxnCount": 20,
            "internalRevert": false,
            "internalRevertMessage": "",
            "isContractCreation": false,
            "isFlashloan": false,
            "maxFee": "41.6948288",
            "nonce": 64,
            "overwritedBlockNumber": -1,
            "priorityFee": "0.1",
            "receiver": "0x6131b5fae19ea4f9d964eac0408e4408b66337b5",
            "revertMessage": "",
            "sender": "0x9176032b42f3e8878fe4c6118aaee03411307383",
            "simulationEnable": true,
            "sourceTxnHash": "0x9f4c12bd3155a961d070d17f0eb1362d71e377b43b553f9ccee3f0f7fbf76751",
            "status": true,
            "timestamp": "2023-12-02T21:07:35Z",
            "transactionFee": "0.009419847667584185",
            "txnHash": "0x9f4c12bd3155a961d070d17f0eb1362d71e377b43b553f9ccee3f0f7fbf76751",
            "txnIndex": 20,
            "type": 2,
            "value": "1000000000000000000"
        },
        "fund_flow": [
            {
                "amount": "1",
                "from": "0x9176032b42f3e8878fe4c6118aaee03411307383",
                "id": 1,
                "isERC1155": false,
                "isERC721": false,
                "isReverted": false,
                "order": 1,
                "to": "0x6131b5fae19ea4f9d964eac0408e4408b66337b5",
                "token": "0xeeeeeeeeeeeeeeeeeeeeeeeeeeeeeeeeeeeeeeee"
            },
            {
                "amount": "0.0075",
                "from": "0x6131b5fae19ea4f9d964eac0408e4408b66337b5",
                "id": 2,
                "isERC1155": false,
                "isERC721": false,
                "isReverted": false,
                "order": 2,
                "to": "0xfe7139b9562fd258b1d1cd53fed9f74fc9f9a8b5",
                "token": "0xeeeeeeeeeeeeeeeeeeeeeeeeeeeeeeeeeeeeeeee"
            },
            {
                "amount": "0.9925",
                "from": "0x6131b5fae19ea4f9d964eac0408e4408b66337b5",
                "id": 3,
                "isERC1155": false,
                "isERC721": false,
                "isReverted": false,
                "order": 3,
                "to": "0xf081470f5c6fbccf48cc4e5b82dd926409dcdd67",
                "token": "0xeeeeeeeeeeeeeeeeeeeeeeeeeeeeeeeeeeeeeeee"
            },
            {
                "amount": "0.9925",
                "from": "0xf081470f5c6fbccf48cc4e5b82dd926409dcdd67",
                "id": 4,
                "isERC1155": false,
                "isERC721": false,
                "isReverted": false,
                "order": 4,
                "to": "0xc02aaa39b223fe8d0a0e5c4f27ead9083c756cc2",
                "token": "0xeeeeeeeeeeeeeeeeeeeeeeeeeeeeeeeeeeeeeeee"
            },
            {
                "amount": "0.9925",
                "from": "0xc02aaa39b223fe8d0a0e5c4f27ead9083c756cc2",
                "id": 5,
                "isERC1155": false,
                "isERC721": false,
                "isReverted": false,
                "order": 5,
                "to": "0xf081470f5c6fbccf48cc4e5b82dd926409dcdd67",
                "token": "0xc02aaa39b223fe8d0a0e5c4f27ead9083c756cc2"
            },
            {
                "amount": "0.9925",
                "from": "0xf081470f5c6fbccf48cc4e5b82dd926409dcdd67",
                "id": 6,
                "isERC1155": false,
                "isERC721": false,
                "isReverted": false,
                "order": 6,
                "to": "0x142bc93b8730fa9b59b68ffb8d980f86e6b7d475",
                "token": "0xc02aaa39b223fe8d0a0e5c4f27ead9083c756cc2"
            },
            {
                "amount": "59,453.584685847248259395",
                "from": "0x142bc93b8730fa9b59b68ffb8d980f86e6b7d475",
                "id": 7,
                "isERC1155": false,
                "isERC721": false,
                "isReverted": false,
                "order": 7,
                "to": "0xf081470f5c6fbccf48cc4e5b82dd926409dcdd67",
                "token": "0x6296e92241e0df33798c1ed1886638a33259e9f8"
            },
            {
                "amount": "59,453.584685847248259394",
                "from": "0xf081470f5c6fbccf48cc4e5b82dd926409dcdd67",
                "id": 8,
                "isERC1155": false,
                "isERC721": false,
                "isReverted": false,
                "order": 8,
                "to": "0x9176032b42f3e8878fe4c6118aaee03411307383",
                "token": "0x6296e92241e0df33798c1ed1886638a33259e9f8"
            }
        ],
        "token_infos": [
            {
                "address": "0xeeeeeeeeeeeeeeeeeeeeeeeeeeeeeeeeeeeeeeee",
                "decimals": 18
            },
            {
                "address": "0x6296e92241e0df33798c1ed1886638a33259e9f8",
                "decimals": 18
            },
            {
                "address": "0xc02aaa39b223fe8d0a0e5c4f27ead9083c756cc2",
                "decimals": 18
            }
        ]
    },
    "address_label": {
        "labels": [
            {
                "address": "0xc02aaa39b223fe8d0a0e5c4f27ead9083c756cc2",
                "label": "Wrapped Ether (WETH)"
            },
            {
                "address": "0x6131b5fae19ea4f9d964eac0408e4408b66337b5",
                "label": "KyberSwap: Meta Aggregation Router v2"
            },
            {
                "address": "0x0000000000000000000000000000000000000001",
                "label": "Precompiled"
            },
            {
                "address": "0x0000000000000000000000000000000000000002",
                "label": "Precompiled"
            },
            {
                "address": "0x0000000000000000000000000000000000000004",
                "label": "Precompiled"
            },
            {
                "address": "0x0000000000000000000000000000000000000003",
                "label": "Precompiled"
            },
            {
                "address": "0xeeeeeeeeeeeeeeeeeeeeeeeeeeeeeeeeeeeeeeee",
                "label": "Ether"
            },
            {
                "address": "0xf081470f5c6fbccf48cc4e5b82dd926409dcdd67",
                "label": "Kyber Network 0xf08147"
            },
            {
                "address": "0x0000000000000000000000000000000000000000",
                "label": "Null Address"
            },
            {
                "address": "0x142bc93b8730fa9b59b68ffb8d980f86e6b7d475",
                "label": "UNI-V2"
            },
            {
                "address": "0x6296e92241e0df33798c1ed1886638a33259e9f8",
                "label": "JESUSGROK"
            }
        ]
    },
    "trace": {
        "accountLabels": null,
        "dataMap": {
            "-1": {
                "invocation": {
                    "address": "0x9176032b42f3e8878fe4c6118aaee03411307383",
                    "callData": "",
                    "decodedMethod": null,
                    "errorInfo": "",
                    "fromAddress": "",
                    "gasUsed": 0,
                    "id": -1,
                    "methodDecoded": false,
                    "operation": "",
                    "output": "",
                    "revert": false,
                    "revertMessage": "",
                    "selector": "",
                    "status": false,
                    "value": ""
                },
                "nodeType": 0
            },
            "0": {
                "invocation": {
                    "address": "0x6131b5fae19ea4f9d964eac0408e4408b66337b5",
                    "callData": "0x0000000000000000000000000000000000000000000000000000000000000020000000000000000000000000f081470f5c6fbccf48cc4e5b82dd926409dcdd67000000000000000000000000000000000000000000000000000000000000000000000000000000000000000000000000000000000000000000000000000000a000000000000000000000000000000000000000000000000000000000000003c000000000000000000000000000000000000000000000000000000000000006000000000000000000000000000000000000000000000000000000000000000300000000000000000000000000000000000000000000000000000000000000002000000000000000000000000000000000000000000000000000000000000000c0000000000000000000000000eeeeeeeeeeeeeeeeeeeeeeeeeeeeeeeeeeeeeeee0000000000000000000000006296e92241e0df33798c1ed1886638a33259e9f80000000000000000000000009176032b42f3e8878fe4c6118aaee0341130738300000000000000000000000000000000000000000000000000000000656ba14300000000000000000000000000000000000000000000000000000000000002a00000000000000000000000000000000000000000000000000000000000000001000000000000000000000000000000000000000000000000000000000000002000000000000000000000000000000000000000000000000000000000000000010000000000000000000000000000000000000000000000000000000000000020000000000000000000000000000000000000000000000000000000000000004059361199000000000000000000000000000000000000000000000000000000000000000000000000000000000000000000000000000000000000000000000100000000000000000000000000142bc93b8730fa9b59b68ffb8d980f86e6b7d475000000000000000000000000c02aaa39b223fe8d0a0e5c4f27ead9083c756cc20000000000000000000000006296e92241e0df33798c1ed1886638a33259e9f8000000000000000000000000f081470f5c6fbccf48cc4e5b82dd926409dcdd670000000000000000000000000000000000000000000000000dc6117dd3934000000000000000000000000000000000000000000000000000000000000000001e000000000000000000000000000000000000000000000000000000000000271000000000000000000000000000000000000000000000000000000000000000320000000000000000000000000000000000000000000000000000000000000020000000000000000000d55ab51c9599ea0000000000000cb787560b69bbce7935000000000000000000000000eeeeeeeeeeeeeeeeeeeeeeeeeeeeeeeeeeeeeeee0000000000000000000000006296e92241e0df33798c1ed1886638a33259e9f80000000000000000000000000000000000000000000000000000000000000160000000000000000000000000000000000000000000000000000000000000018000000000000000000000000000000000000000000000000000000000000001a000000000000000000000000000000000000000000000000000000000000001e00000000000000000000000009176032b42f3e8878fe4c6118aaee034113073830000000000000000000000000000000000000000000000000de0b6b3a7640000000000000000000000000000000000000000000000000c96f92ec8bd28022b3100000000000000000000000000000000000000000000000000000000000000800000000000000000000000000000000000000000000000000000000000000220000000000000000000000000000000000000000000000000000000000000000000000000000000000000000000000000000000000000000000000000000000000000000000000000000000000000000000000000000000000000000000000001000000000000000000000000fe7139b9562fd258b1d1cd53fed9f74fc9f9a8b50000000000000000000000000000000000000000000000000000000000000001000000000000000000000000000000000000000000000000000000000000004b000000000000000000000000000000000000000000000000000000000000000000000000000000000000000000000000000000000000000000000000000001f87b22536f75726365223a22436f696e5363616e222c22416d6f756e74496e555344223a22323135392e383838323433393233383432222c22416d6f756e744f7574555344223a22313739372e37373032363331313439303034222c22526566657272616c223a22222c22466c616773223a302c22496e74656772697479496e666f223a7b224b65794944223a2231222c225369676e6174757265223a22636e62447243757364642f714569744141302b4c414b5863667342655a576444486245657549694e41543048464c72634a547132544d572f523951684e675161663032324e6e7663672f5866466a3736687656324a4d394962364f577275526f7a447147646e6e624e67446a6c7073442b7946773967726530484a612f6a764f4659623037786461782b3679727a7474394e496b37483736745654383538686e4a4b6135634542712b5444387972463550637865346e4d58436c324253544b664142474a753963514671714d68714e4979724d766b5a6631686e7346434b6141726e71623473697769576a316d5a366b736332704d6c706f4739534d4b6a554a6450797358684479797a4f6b71544372666a586a4f4b71452b424278712b6c5533497159744e483142456477664d36365a4d2f4859593234595845613238746d357a656b3263355a6a585948537655654d62793531773d3d227d7d0000000000000000",
                    "decodedMethod": {
                        "callParams": [
                            {
                                "name": "execution",
                                "type": "(address,address,bytes,(address,address,address[],uint256[],address[],uint256[],address,uint256,uint256,uint256,bytes),bytes)",
                                "value": [
                                    {
                                        "name": "callTarget",
                                        "type": "address",
                                        "value": "0xf081470f5c6fbccf48cc4e5b82dd926409dcdd67"
                                    },
                                    {
                                        "name": "approveTarget",
                                        "type": "address",
                                        "value": "0x0000000000000000000000000000000000000000"
                                    },
                                    {
                                        "name": "targetData",
                                        "type": "bytes",
                                        "value": "0x000000000000000000000000000000000000000000000000000000000000002000000000000000000000000000000000000000000000000000000000000000c0000000000000000000000000eeeeeeeeeeeeeeeeeeeeeeeeeeeeeeeeeeeeeeee0000000000000000000000006296e92241e0df33798c1ed1886638a33259e9f80000000000000000000000009176032b42f3e8878fe4c6118aaee0341130738300000000000000000000000000000000000000000000000000000000656ba14300000000000000000000000000000000000000000000000000000000000002a00000000000000000000000000000000000000000000000000000000000000001000000000000000000000000000000000000000000000000000000000000002000000000000000000000000000000000000000000000000000000000000000010000000000000000000000000000000000000000000000000000000000000020000000000000000000000000000000000000000000000000000000000000004059361199000000000000000000000000000000000000000000000000000000000000000000000000000000000000000000000000000000000000000000000100000000000000000000000000142bc93b8730fa9b59b68ffb8d980f86e6b7d475000000000000000000000000c02aaa39b223fe8d0a0e5c4f27ead9083c756cc20000000000000000000000006296e92241e0df33798c1ed1886638a33259e9f8000000000000000000000000f081470f5c6fbccf48cc4e5b82dd926409dcdd670000000000000000000000000000000000000000000000000dc6117dd3934000000000000000000000000000000000000000000000000000000000000000001e000000000000000000000000000000000000000000000000000000000000271000000000000000000000000000000000000000000000000000000000000000320000000000000000000000000000000000000000000000000000000000000020000000000000000000d55ab51c9599ea0000000000000cb787560b69bbce7935"
                                    },
                                    {
                                        "name": "desc",
                                        "type": "(address,address,address[],uint256[],address[],uint256[],address,uint256,uint256,uint256,bytes)",
                                        "value": [
                                            {
                                                "name": "srcToken",
                                                "type": "address",
                                                "value": "0xeeeeeeeeeeeeeeeeeeeeeeeeeeeeeeeeeeeeeeee"
                                            },
                                            {
                                                "name": "dstToken",
                                                "type": "address",
                                                "value": "0x6296e92241e0df33798c1ed1886638a33259e9f8"
                                            },
                                            {
                                                "name": "srcReceivers",
                                                "type": "address[]",
                                                "value": []
                                            },
                                            {
                                                "name": "srcAmounts",
                                                "type": "uint256[]",
                                                "value": []
                                            },
                                            {
                                                "name": "feeReceivers",
                                                "type": "address[]",
                                                "value": [
                                                    "0xfe7139b9562fd258b1d1cd53fed9f74fc9f9a8b5"
                                                ]
                                            },
                                            {
                                                "name": "feeAmounts",
                                                "type": "uint256[]",
                                                "value": [
                                                    "75"
                                                ]
                                            },
                                            {
                                                "name": "dstReceiver",
                                                "type": "address",
                                                "value": "0x9176032b42f3e8878fe4c6118aaee03411307383"
                                            },
                                            {
                                                "name": "amount",
                                                "type": "uint256",
                                                "value": "1,000,000,000,000,000,000"
                                            },
                                            {
                                                "name": "minReturnAmount",
                                                "type": "uint256",
                                                "value": "59,453,364,914,971,293,657,905"
                                            },
                                            {
                                                "name": "flags",
                                                "type": "uint256",
                                                "value": "128"
                                            },
                                            {
                                                "name": "permit",
                                                "type": "bytes",
                                                "value": "0x"
                                            }
                                        ]
                                    },
                                    {
                                        "name": "clientData",
                                        "type": "bytes",
                                        "value": "0x7b22536f75726365223a22436f696e5363616e222c22416d6f756e74496e555344223a22323135392e383838323433393233383432222c22416d6f756e744f7574555344223a22313739372e37373032363331313439303034222c22526566657272616c223a22222c22466c616773223a302c22496e74656772697479496e666f223a7b224b65794944223a2231222c225369676e6174757265223a22636e62447243757364642f714569744141302b4c414b5863667342655a576444486245657549694e41543048464c72634a547132544d572f523951684e675161663032324e6e7663672f5866466a3736687656324a4d394962364f577275526f7a447147646e6e624e67446a6c7073442b7946773967726530484a612f6a764f4659623037786461782b3679727a7474394e496b37483736745654383538686e4a4b6135634542712b5444387972463550637865346e4d58436c324253544b664142474a753963514671714d68714e4979724d766b5a6631686e7346434b6141726e71623473697769576a316d5a366b736332704d6c706f4739534d4b6a554a6450797358684479797a4f6b71544372666a586a4f4b71452b424278712b6c5533497159744e483142456477664d36365a4d2f4859593234595845613238746d357a656b3263355a6a585948537655654d62793531773d3d227d7d"
                                    }
                                ]
                            }
                        ],
                        "constructorArguments": "",
                        "name": "swap",
                        "returnParams": [
                            {
                                "name": "returnAmount",
                                "type": "uint256",
                                "value": "59,453,584,685,847,248,259,394"
                            },
                            {
                                "name": "gasUsed",
                                "type": "uint256",
                                "value": "212,384"
                            }
                        ],
                        "signature": "swap((address,address,bytes,(address,address,address[],uint256[],address[],uint256[],address,uint256,uint256,uint256,bytes),bytes))"
                    },
                    "errorInfo": "",
                    "fromAddress": "0x9176032b42f3e8878fe4c6118aaee03411307383",
                    "gasUsed": 246655,
                    "id": 0,
                    "methodDecoded": true,
                    "operation": "CALL",
                    "output": "0x000000000000000000000000000000000000000000000c96fc3b912fa94249420000000000000000000000000000000000000000000000000000000000033da0",
                    "revert": false,
                    "revertMessage": "",
                    "selector": "0xe21fd0e9",
                    "status": true,
                    "value": "1"
                },
                "nodeType": 0
            },
            "1": {
                "invocation": {
                    "address": "0xfe7139b9562fd258b1d1cd53fed9f74fc9f9a8b5",
                    "callData": "0x",
                    "decodedMethod": null,
                    "errorInfo": "",
                    "fromAddress": "0x6131b5fae19ea4f9d964eac0408e4408b66337b5",
                    "gasUsed": 0,
                    "id": 1,
                    "methodDecoded": false,
                    "operation": "CALL",
                    "output": "",
                    "revert": false,
                    "revertMessage": "",
                    "selector": "fallback",
                    "status": true,
                    "value": "0.0075"
                },
                "nodeType": 0
            },
            "10": {
                "invocation": {
                    "address": "0xc02aaa39b223fe8d0a0e5c4f27ead9083c756cc2",
                    "callData": "0x000000000000000000000000142bc93b8730fa9b59b68ffb8d980f86e6b7d4750000000000000000000000000000000000000000000000000dc6117dd3934000",
                    "decodedMethod": {
                        "callParams": [
                            {
                                "name": "dst",
                                "type": "address",
                                "value": "0x142bc93b8730fa9b59b68ffb8d980f86e6b7d475"
                            },
                            {
                                "decimalAvailable": true,
                                "name": "wad",
                                "type": "uint256",
                                "value": "992,500,000,000,000,000"
                            }
                        ],
                        "constructorArguments": "",
                        "name": "transfer",
                        "returnParams": [
                            {
                                "name": "",
                                "type": "bool",
                                "value": true
                            }
                        ],
                        "signature": "transfer(address,uint256)"
                    },
                    "errorInfo": "",
                    "fromAddress": "0xf081470f5c6fbccf48cc4e5b82dd926409dcdd67",
                    "gasUsed": 8062,
                    "id": 10,
                    "methodDecoded": true,
                    "operation": "CALL",
                    "output": "0x0000000000000000000000000000000000000000000000000000000000000001",
                    "revert": false,
                    "revertMessage": "",
                    "selector": "0xa9059cbb",
                    "status": true,
                    "value": "0"
                },
                "nodeType": 0
            },
            "11": {
                "event": {
                    "contract": "0xc02aaa39b223fe8d0a0e5c4f27ead9083c756cc2",
                    "decodedLog": {
                        "name": "Transfer",
                        "params": [
                            {
                                "name": "src",
                                "type": "address",
                                "value": "0xf081470f5c6fbccf48cc4e5b82dd926409dcdd67"
                            },
                            {
                                "name": "dst",
                                "type": "address",
                                "value": "0x142bc93b8730fa9b59b68ffb8d980f86e6b7d475"
                            },
                            {
                                "decimalAvailable": true,
                                "name": "wad",
                                "type": "uint256",
                                "value": "992,500,000,000,000,000"
                            }
                        ],
                        "signature": "Transfer(address,address,uint256)"
                    },
                    "id": 11,
                    "logData": "0x0000000000000000000000000000000000000000000000000dc6117dd3934000",
                    "logDecoded": true,
                    "operation": "EVENT",
                    "revert": false,
                    "status": true,
                    "topics": [
                        "0xddf252ad1be2c89b69c2b068fc378daa952ba7f163c4a11628f55a4df523b3ef",
                        "0x000000000000000000000000f081470f5c6fbccf48cc4e5b82dd926409dcdd67",
                        "0x000000000000000000000000142bc93b8730fa9b59b68ffb8d980f86e6b7d475"
                    ]
                },
                "nodeType": 1
            },
            "12": {
                "invocation": {
                    "address": "0x142bc93b8730fa9b59b68ffb8d980f86e6b7d475",
                    "callData": "0x",
                    "decodedMethod": {
                        "callParams": [],
                        "constructorArguments": "",
                        "name": "getReserves",
                        "returnParams": [
                            {
                                "name": "_reserve0",
                                "type": "uint112",
                                "value": "450,981,497,948,431,785,438,573"
                            },
                            {
                                "name": "_reserve1",
                                "type": "uint112",
                                "value": "6,516,439,363,556,178,577"
                            },
                            {
                                "name": "_blockTimestampLast",
                                "type": "uint32",
                                "value": "1,701,551,255"
                            }
                        ],
                        "signature": "getReserves()"
                    },
                    "errorInfo": "",
                    "fromAddress": "0xf081470f5c6fbccf48cc4e5b82dd926409dcdd67",
                    "gasUsed": 2504,
                    "id": 12,
                    "methodDecoded": true,
                    "operation": "STATICCALL",
                    "output": "0x000000000000000000000000000000000000000000005f7fc188a5b7a87cad6d0000000000000000000000000000000000000000000000005a6f0b1359237a9100000000000000000000000000000000000000000000000000000000656b9c97",
                    "revert": false,
                    "revertMessage": "",
                    "selector": "0x0902f1ac",
                    "status": true,
                    "value": "0"
                },
                "nodeType": 0
            },
            "13": {
                "invocation": {
                    "address": "0xc02aaa39b223fe8d0a0e5c4f27ead9083c756cc2",
                    "callData": "0x000000000000000000000000142bc93b8730fa9b59b68ffb8d980f86e6b7d475",
                    "decodedMethod": {
                        "callParams": [
                            {
                                "name": "",
                                "type": "address",
                                "value": "0x142bc93b8730fa9b59b68ffb8d980f86e6b7d475"
                            }
                        ],
                        "constructorArguments": "",
                        "name": "balanceOf",
                        "returnParams": [
                            {
                                "decimalAvailable": true,
                                "name": "",
                                "type": "uint256",
                                "value": "7,508,939,363,556,178,577"
                            }
                        ],
                        "signature": "balanceOf(address)"
                    },
                    "errorInfo": "",
                    "fromAddress": "0xf081470f5c6fbccf48cc4e5b82dd926409dcdd67",
                    "gasUsed": 534,
                    "id": 13,
                    "methodDecoded": true,
                    "operation": "STATICCALL",
                    "output": "0x00000000000000000000000000000000000000000000000068351c912cb6ba91",
                    "revert": false,
                    "revertMessage": "",
                    "selector": "0x70a08231",
                    "status": true,
                    "value": "0"
                },
                "nodeType": 0
            },
            "14": {
                "invocation": {
                    "address": "0xcde3eb49d53d932c605efbc1bc425c6affa5eac2",
                    "callData": "0x0000000000000000000000000000000000000000000000000dc6117dd39340000000000000000000000000000000000000000000000000005a6f0b1359237a91000000000000000000000000000000000000000000005f7fc188a5b7a87cad6d00000000000000000000000000000000000000000000000000000000000000320000000000000000000000000000000000000000000000000000000000000032000000000000000000000000000000000000000000000000000000000000001e0000000000000000000000000000000000000000000000000000000000002710",
                    "decodedMethod": null,
                    "errorInfo": "",
                    "fromAddress": "0xf081470f5c6fbccf48cc4e5b82dd926409dcdd67",
                    "gasUsed": 1515,
                    "id": 14,
                    "methodDecoded": false,
                    "operation": "STATICCALL",
                    "output": "0x000000000000000000000000000000000000000000000c96fc3b912fa9424943",
                    "revert": false,
                    "revertMessage": "",
                    "selector": "0xf87576e8",
                    "status": true,
                    "value": "0"
                },
                "nodeType": 0
            },
            "15": {
                "invocation": {
                    "address": "0x142bc93b8730fa9b59b68ffb8d980f86e6b7d475",
                    "callData": "0x000000000000000000000000000000000000000000000c96fc3b912fa94249430000000000000000000000000000000000000000000000000000000000000000000000000000000000000000f081470f5c6fbccf48cc4e5b82dd926409dcdd6700000000000000000000000000000000000000000000000000000000000000800000000000000000000000000000000000000000000000000000000000000000",
                    "decodedMethod": {
                        "callParams": [
                            {
                                "name": "amount0Out",
                                "type": "uint256",
                                "value": "59,453,584,685,847,248,259,395"
                            },
                            {
                                "name": "amount1Out",
                                "type": "uint256",
                                "value": "0"
                            },
                            {
                                "name": "to",
                                "type": "address",
                                "value": "0xf081470f5c6fbccf48cc4e5b82dd926409dcdd67"
                            },
                            {
                                "name": "data",
                                "type": "bytes",
                                "value": "0x"
                            }
                        ],
                        "constructorArguments": "",
                        "name": "swap",
                        "returnParams": [],
                        "signature": "swap(uint256,uint256,address,bytes)"
                    },
                    "errorInfo": "",
                    "fromAddress": "0xf081470f5c6fbccf48cc4e5b82dd926409dcdd67",
                    "gasUsed": 70699,
                    "id": 15,
                    "methodDecoded": true,
                    "operation": "CALL",
                    "output": "",
                    "revert": false,
                    "revertMessage": "",
                    "selector": "0x022c0d9f",
                    "status": true,
                    "value": "0"
                },
                "nodeType": 0
            },
            "16": {
                "invocation": {
                    "address": "0x6296e92241e0df33798c1ed1886638a33259e9f8",
                    "callData": "0x000000000000000000000000f081470f5c6fbccf48cc4e5b82dd926409dcdd67000000000000000000000000000000000000000000000c96fc3b912fa9424943",
                    "decodedMethod": {
                        "callParams": [
                            {
                                "name": "recipient",
                                "type": "address",
                                "value": "0xf081470f5c6fbccf48cc4e5b82dd926409dcdd67"
                            },
                            {
                                "decimalAvailable": true,
                                "name": "amount",
                                "type": "uint256",
                                "value": "59,453,584,685,847,248,259,395"
                            }
                        ],
                        "constructorArguments": "",
                        "name": "transfer",
                        "returnParams": [
                            {
                                "name": "",
                                "type": "bool",
                                "value": true
                            }
                        ],
                        "signature": "transfer(address,uint256)"
                    },
                    "errorInfo": "",
                    "fromAddress": "0x142bc93b8730fa9b59b68ffb8d980f86e6b7d475",
                    "gasUsed": 48619,
                    "id": 16,
                    "methodDecoded": true,
                    "operation": "CALL",
                    "output": "0x0000000000000000000000000000000000000000000000000000000000000001",
                    "revert": false,
                    "revertMessage": "",
                    "selector": "0xa9059cbb",
                    "status": true,
                    "value": "0"
                },
                "nodeType": 0
            },
            "17": {
                "event": {
                    "contract": "0x6296e92241e0df33798c1ed1886638a33259e9f8",
                    "decodedLog": {
                        "name": "Transfer",
                        "params": [
                            {
                                "name": "from",
                                "type": "address",
                                "value": "0x142bc93b8730fa9b59b68ffb8d980f86e6b7d475"
                            },
                            {
                                "name": "to",
                                "type": "address",
                                "value": "0xf081470f5c6fbccf48cc4e5b82dd926409dcdd67"
                            },
                            {
                                "decimalAvailable": true,
                                "name": "value",
                                "type": "uint256",
                                "value": "59,453,584,685,847,248,259,395"
                            }
                        ],
                        "signature": "Transfer(address,address,uint256)"
                    },
                    "id": 17,
                    "logData": "0x000000000000000000000000000000000000000000000c96fc3b912fa9424943",
                    "logDecoded": true,
                    "operation": "EVENT",
                    "revert": false,
                    "status": true,
                    "topics": [
                        "0xddf252ad1be2c89b69c2b068fc378daa952ba7f163c4a11628f55a4df523b3ef",
                        "0x000000000000000000000000142bc93b8730fa9b59b68ffb8d980f86e6b7d475",
                        "0x000000000000000000000000f081470f5c6fbccf48cc4e5b82dd926409dcdd67"
                    ]
                },
                "nodeType": 1
            },
            "18": {
                "invocation": {
                    "address": "0x6296e92241e0df33798c1ed1886638a33259e9f8",
                    "callData": "0x000000000000000000000000142bc93b8730fa9b59b68ffb8d980f86e6b7d475",
                    "decodedMethod": {
                        "callParams": [
                            {
                                "name": "account",
                                "type": "address",
                                "value": "0x142bc93b8730fa9b59b68ffb8d980f86e6b7d475"
                            }
                        ],
                        "constructorArguments": "",
                        "name": "balanceOf",
                        "returnParams": [
                            {
                                "decimalAvailable": true,
                                "name": "",
                                "type": "uint256",
                                "value": "391,527,913,262,584,537,179,178"
                            }
                        ],
                        "signature": "balanceOf(address)"
                    },
                    "errorInfo": "",
                    "fromAddress": "0x142bc93b8730fa9b59b68ffb8d980f86e6b7d475",
                    "gasUsed": 639,
                    "id": 18,
                    "methodDecoded": true,
                    "operation": "STATICCALL",
                    "output": "0x0000000000000000000000000000000000000000000052e8c54d1487ff3a642a",
                    "revert": false,
                    "revertMessage": "",
                    "selector": "0x70a08231",
                    "status": true,
                    "value": "0"
                },
                "nodeType": 0
            },
            "19": {
                "invocation": {
                    "address": "0xc02aaa39b223fe8d0a0e5c4f27ead9083c756cc2",
                    "callData": "0x000000000000000000000000142bc93b8730fa9b59b68ffb8d980f86e6b7d475",
                    "decodedMethod": {
                        "callParams": [
                            {
                                "name": "",
                                "type": "address",
                                "value": "0x142bc93b8730fa9b59b68ffb8d980f86e6b7d475"
                            }
                        ],
                        "constructorArguments": "",
                        "name": "balanceOf",
                        "returnParams": [
                            {
                                "decimalAvailable": true,
                                "name": "",
                                "type": "uint256",
                                "value": "7,508,939,363,556,178,577"
                            }
                        ],
                        "signature": "balanceOf(address)"
                    },
                    "errorInfo": "",
                    "fromAddress": "0x142bc93b8730fa9b59b68ffb8d980f86e6b7d475",
                    "gasUsed": 534,
                    "id": 19,
                    "methodDecoded": true,
                    "operation": "STATICCALL",
                    "output": "0x00000000000000000000000000000000000000000000000068351c912cb6ba91",
                    "revert": false,
                    "revertMessage": "",
                    "selector": "0x70a08231",
                    "status": true,
                    "value": "0"
                },
                "nodeType": 0
            },
            "2": {
                "event": {
                    "contract": "0x6131b5fae19ea4f9d964eac0408e4408b66337b5",
                    "decodedLog": {
                        "name": "Fee",
                        "params": [
                            {
                                "name": "token",
                                "type": "address",
                                "value": "0xeeeeeeeeeeeeeeeeeeeeeeeeeeeeeeeeeeeeeeee"
                            },
                            {
                                "name": "totalAmount",
                                "type": "uint256",
                                "value": "1,000,000,000,000,000,000"
                            },
                            {
                                "name": "totalFee",
                                "type": "uint256",
                                "value": "7,500,000,000,000,000"
                            },
                            {
                                "name": "recipients",
                                "type": "address[]",
                                "value": [
                                    "0xfe7139b9562fd258b1d1cd53fed9f74fc9f9a8b5"
                                ]
                            },
                            {
                                "name": "amounts",
                                "type": "uint256[]",
                                "value": [
                                    "75"
                                ]
                            },
                            {
                                "name": "isBps",
                                "type": "bool",
                                "value": true
                            }
                        ],
                        "signature": "Fee(address,uint256,uint256,address[],uint256[],bool)"
                    },
                    "id": 2,
                    "logData": "0x000000000000000000000000eeeeeeeeeeeeeeeeeeeeeeeeeeeeeeeeeeeeeeee0000000000000000000000000000000000000000000000000de0b6b3a7640000000000000000000000000000000000000000000000000000001aa535d3d0c00000000000000000000000000000000000000000000000000000000000000000c0000000000000000000000000000000000000000000000000000000000000010000000000000000000000000000000000000000000000000000000000000000010000000000000000000000000000000000000000000000000000000000000001000000000000000000000000fe7139b9562fd258b1d1cd53fed9f74fc9f9a8b50000000000000000000000000000000000000000000000000000000000000001000000000000000000000000000000000000000000000000000000000000004b",
                    "logDecoded": true,
                    "operation": "EVENT",
                    "revert": false,
                    "status": true,
                    "topics": [
                        "0x4c39b7ce5f4f514f45cb6f82b171b8b0b7f2cbf488ad28e4eff451588e2f014b"
                    ]
                },
                "nodeType": 1
            },
            "20": {
                "event": {
                    "contract": "0x142bc93b8730fa9b59b68ffb8d980f86e6b7d475",
                    "decodedLog": {
                        "name": "Sync",
                        "params": [
                            {
                                "name": "reserve0",
                                "type": "uint112",
                                "value": "391,527,913,262,584,537,179,178"
                            },
                            {
                                "name": "reserve1",
                                "type": "uint112",
                                "value": "7,508,939,363,556,178,577"
                            }
                        ],
                        "signature": "Sync(uint112,uint112)"
                    },
                    "id": 20,
                    "logData": "0x0000000000000000000000000000000000000000000052e8c54d1487ff3a642a00000000000000000000000000000000000000000000000068351c912cb6ba91",
                    "logDecoded": true,
                    "operation": "EVENT",
                    "revert": false,
                    "status": true,
                    "topics": [
                        "0x1c411e9a96e071241c2f21f7726b17ae89e3cab4c78be50e062b03a9fffbbad1"
                    ]
                },
                "nodeType": 1
            },
            "21": {
                "event": {
                    "contract": "0x142bc93b8730fa9b59b68ffb8d980f86e6b7d475",
                    "decodedLog": {
                        "name": "Swap",
                        "params": [
                            {
                                "name": "sender",
                                "type": "address",
                                "value": "0xf081470f5c6fbccf48cc4e5b82dd926409dcdd67"
                            },
                            {
                                "name": "to",
                                "type": "address",
                                "value": "0xf081470f5c6fbccf48cc4e5b82dd926409dcdd67"
                            },
                            {
                                "name": "amount0In",
                                "type": "uint256",
                                "value": "0"
                            },
                            {
                                "name": "amount1In",
                                "type": "uint256",
                                "value": "992,500,000,000,000,000"
                            },
                            {
                                "name": "amount0Out",
                                "type": "uint256",
                                "value": "59,453,584,685,847,248,259,395"
                            },
                            {
                                "name": "amount1Out",
                                "type": "uint256",
                                "value": "0"
                            }
                        ],
                        "signature": "Swap(address,uint256,uint256,uint256,uint256,address)"
                    },
                    "id": 21,
                    "logData": "0x00000000000000000000000000000000000000000000000000000000000000000000000000000000000000000000000000000000000000000dc6117dd3934000000000000000000000000000000000000000000000000c96fc3b912fa94249430000000000000000000000000000000000000000000000000000000000000000",
                    "logDecoded": true,
                    "operation": "EVENT",
                    "revert": false,
                    "status": true,
                    "topics": [
                        "0xd78ad95fa46c994b6551d0da85fc275fe613ce37657fb8d5e3d130840159d822",
                        "0x000000000000000000000000f081470f5c6fbccf48cc4e5b82dd926409dcdd67",
                        "0x000000000000000000000000f081470f5c6fbccf48cc4e5b82dd926409dcdd67"
                    ]
                },
                "nodeType": 1
            },
            "22": {
                "event": {
                    "contract": "0xf081470f5c6fbccf48cc4e5b82dd926409dcdd67",
                    "decodedLog": {
                        "name": "Exchange",
                        "params": [
                            {
                                "name": "pair",
                                "type": "address",
                                "value": "0x142bc93b8730fa9b59b68ffb8d980f86e6b7d475"
                            },
                            {
                                "name": "amountOut",
                                "type": "uint256",
                                "value": "59,453,584,685,847,248,259,395"
                            },
                            {
                                "name": "output",
                                "type": "address",
                                "value": "0x6296e92241e0df33798c1ed1886638a33259e9f8"
                            }
                        ],
                        "signature": "Exchange(address,uint256,address)"
                    },
                    "id": 22,
                    "logData": "0x000000000000000000000000142bc93b8730fa9b59b68ffb8d980f86e6b7d475000000000000000000000000000000000000000000000c96fc3b912fa94249430000000000000000000000006296e92241e0df33798c1ed1886638a33259e9f8",
                    "logDecoded": true,
                    "operation": "EVENT",
                    "revert": false,
                    "status": true,
                    "topics": [
                        "0xddac40937f35385a34f721af292e5a83fc5b840f722bff57c2fc71adba708c48"
                    ]
                },
                "nodeType": 1
            },
            "23": {
                "invocation": {
                    "address": "0x6296e92241e0df33798c1ed1886638a33259e9f8",
                    "callData": "0x000000000000000000000000f081470f5c6fbccf48cc4e5b82dd926409dcdd67",
                    "decodedMethod": {
                        "callParams": [
                            {
                                "name": "account",
                                "type": "address",
                                "value": "0xf081470f5c6fbccf48cc4e5b82dd926409dcdd67"
                            }
                        ],
                        "constructorArguments": "",
                        "name": "balanceOf",
                        "returnParams": [
                            {
                                "decimalAvailable": true,
                                "name": "",
                                "type": "uint256",
                                "value": "59,453,584,685,847,248,259,395"
                            }
                        ],
                        "signature": "balanceOf(address)"
                    },
                    "errorInfo": "",
                    "fromAddress": "0xf081470f5c6fbccf48cc4e5b82dd926409dcdd67",
                    "gasUsed": 639,
                    "id": 23,
                    "methodDecoded": true,
                    "operation": "STATICCALL",
                    "output": "0x000000000000000000000000000000000000000000000c96fc3b912fa9424943",
                    "revert": false,
                    "revertMessage": "",
                    "selector": "0x70a08231",
                    "status": true,
                    "value": "0"
                },
                "nodeType": 0
            },
            "24": {
                "invocation": {
                    "address": "0xc02aaa39b223fe8d0a0e5c4f27ead9083c756cc2",
                    "callData": "0x000000000000000000000000f081470f5c6fbccf48cc4e5b82dd926409dcdd67",
                    "decodedMethod": {
                        "callParams": [
                            {
                                "name": "",
                                "type": "address",
                                "value": "0xf081470f5c6fbccf48cc4e5b82dd926409dcdd67"
                            }
                        ],
                        "constructorArguments": "",
                        "name": "balanceOf",
                        "returnParams": [
                            {
                                "decimalAvailable": true,
                                "name": "",
                                "type": "uint256",
                                "value": "1"
                            }
                        ],
                        "signature": "balanceOf(address)"
                    },
                    "errorInfo": "",
                    "fromAddress": "0xf081470f5c6fbccf48cc4e5b82dd926409dcdd67",
                    "gasUsed": 534,
                    "id": 24,
                    "methodDecoded": true,
                    "operation": "STATICCALL",
                    "output": "0x0000000000000000000000000000000000000000000000000000000000000001",
                    "revert": false,
                    "revertMessage": "",
                    "selector": "0x70a08231",
                    "status": true,
                    "value": "0"
                },
                "nodeType": 0
            },
            "25": {
                "invocation": {
                    "address": "0x6296e92241e0df33798c1ed1886638a33259e9f8",
                    "callData": "0x0000000000000000000000009176032b42f3e8878fe4c6118aaee03411307383000000000000000000000000000000000000000000000c96fc3b912fa9424942",
                    "decodedMethod": {
                        "callParams": [
                            {
                                "name": "recipient",
                                "type": "address",
                                "value": "0x9176032b42f3e8878fe4c6118aaee03411307383"
                            },
                            {
                                "decimalAvailable": true,
                                "name": "amount",
                                "type": "uint256",
                                "value": "59,453,584,685,847,248,259,394"
                            }
                        ],
                        "constructorArguments": "",
                        "name": "transfer",
                        "returnParams": [
                            {
                                "name": "",
                                "type": "bool",
                                "value": true
                            }
                        ],
                        "signature": "transfer(address,uint256)"
                    },
                    "errorInfo": "",
                    "fromAddress": "0xf081470f5c6fbccf48cc4e5b82dd926409dcdd67",
                    "gasUsed": 26859,
                    "id": 25,
                    "methodDecoded": true,
                    "operation": "CALL",
                    "output": "0x0000000000000000000000000000000000000000000000000000000000000001",
                    "revert": false,
                    "revertMessage": "",
                    "selector": "0xa9059cbb",
                    "status": true,
                    "value": "0"
                },
                "nodeType": 0
            },
            "26": {
                "event": {
                    "contract": "0x6296e92241e0df33798c1ed1886638a33259e9f8",
                    "decodedLog": {
                        "name": "Transfer",
                        "params": [
                            {
                                "name": "from",
                                "type": "address",
                                "value": "0xf081470f5c6fbccf48cc4e5b82dd926409dcdd67"
                            },
                            {
                                "name": "to",
                                "type": "address",
                                "value": "0x9176032b42f3e8878fe4c6118aaee03411307383"
                            },
                            {
                                "decimalAvailable": true,
                                "name": "value",
                                "type": "uint256",
                                "value": "59,453,584,685,847,248,259,394"
                            }
                        ],
                        "signature": "Transfer(address,address,uint256)"
                    },
                    "id": 26,
                    "logData": "0x000000000000000000000000000000000000000000000c96fc3b912fa9424942",
                    "logDecoded": true,
                    "operation": "EVENT",
                    "revert": false,
                    "status": true,
                    "topics": [
                        "0xddf252ad1be2c89b69c2b068fc378daa952ba7f163c4a11628f55a4df523b3ef",
                        "0x000000000000000000000000f081470f5c6fbccf48cc4e5b82dd926409dcdd67",
                        "0x0000000000000000000000009176032b42f3e8878fe4c6118aaee03411307383"
                    ]
                },
                "nodeType": 1
            },
            "27": {
                "invocation": {
                    "address": "0x6296e92241e0df33798c1ed1886638a33259e9f8",
                    "callData": "0x0000000000000000000000006131b5fae19ea4f9d964eac0408e4408b66337b5",
                    "decodedMethod": {
                        "callParams": [
                            {
                                "name": "account",
                                "type": "address",
                                "value": "0x6131b5fae19ea4f9d964eac0408e4408b66337b5"
                            }
                        ],
                        "constructorArguments": "",
                        "name": "balanceOf",
                        "returnParams": [
                            {
                                "decimalAvailable": true,
                                "name": "",
                                "type": "uint256",
                                "value": "0"
                            }
                        ],
                        "signature": "balanceOf(address)"
                    },
                    "errorInfo": "",
                    "fromAddress": "0x6131b5fae19ea4f9d964eac0408e4408b66337b5",
                    "gasUsed": 639,
                    "id": 27,
                    "methodDecoded": true,
                    "operation": "STATICCALL",
                    "output": "0x0000000000000000000000000000000000000000000000000000000000000000",
                    "revert": false,
                    "revertMessage": "",
                    "selector": "0x70a08231",
                    "status": true,
                    "value": "0"
                },
                "nodeType": 0
            },
            "28": {
                "invocation": {
                    "address": "0x6296e92241e0df33798c1ed1886638a33259e9f8",
                    "callData": "0x0000000000000000000000009176032b42f3e8878fe4c6118aaee03411307383",
                    "decodedMethod": {
                        "callParams": [
                            {
                                "name": "account",
                                "type": "address",
                                "value": "0x9176032b42f3e8878fe4c6118aaee03411307383"
                            }
                        ],
                        "constructorArguments": "",
                        "name": "balanceOf",
                        "returnParams": [
                            {
                                "decimalAvailable": true,
                                "name": "",
                                "type": "uint256",
                                "value": "59,453,584,685,847,248,259,394"
                            }
                        ],
                        "signature": "balanceOf(address)"
                    },
                    "errorInfo": "",
                    "fromAddress": "0x6131b5fae19ea4f9d964eac0408e4408b66337b5",
                    "gasUsed": 639,
                    "id": 28,
                    "methodDecoded": true,
                    "operation": "STATICCALL",
                    "output": "0x000000000000000000000000000000000000000000000c96fc3b912fa9424942",
                    "revert": false,
                    "revertMessage": "",
                    "selector": "0x70a08231",
                    "status": true,
                    "value": "0"
                },
                "nodeType": 0
            },
            "29": {
                "event": {
                    "contract": "0x6131b5fae19ea4f9d964eac0408e4408b66337b5",
                    "decodedLog": {
                        "name": "Swapped",
                        "params": [
                            {
                                "name": "sender",
                                "type": "address",
                                "value": "0x9176032b42f3e8878fe4c6118aaee03411307383"
                            },
                            {
                                "name": "srcToken",
                                "type": "address",
                                "value": "0xeeeeeeeeeeeeeeeeeeeeeeeeeeeeeeeeeeeeeeee"
                            },
                            {
                                "name": "dstToken",
                                "type": "address",
                                "value": "0x6296e92241e0df33798c1ed1886638a33259e9f8"
                            },
                            {
                                "name": "dstReceiver",
                                "type": "address",
                                "value": "0x9176032b42f3e8878fe4c6118aaee03411307383"
                            },
                            {
                                "name": "spentAmount",
                                "type": "uint256",
                                "value": "992,500,000,000,000,000"
                            },
                            {
                                "name": "returnAmount",
                                "type": "uint256",
                                "value": "59,453,584,685,847,248,259,394"
                            }
                        ],
                        "signature": "Swapped(address,address,address,address,uint256,uint256)"
                    },
                    "id": 29,
                    "logData": "0x0000000000000000000000009176032b42f3e8878fe4c6118aaee03411307383000000000000000000000000eeeeeeeeeeeeeeeeeeeeeeeeeeeeeeeeeeeeeeee0000000000000000000000006296e92241e0df33798c1ed1886638a33259e9f80000000000000000000000009176032b42f3e8878fe4c6118aaee034113073830000000000000000000000000000000000000000000000000dc6117dd3934000000000000000000000000000000000000000000000000c96fc3b912fa9424942",
                    "logDecoded": true,
                    "operation": "EVENT",
                    "revert": false,
                    "status": true,
                    "topics": [
                        "0xd6d4f5681c246c9f42c203e287975af1601f8df8035a9251f79aab5c8f09e2f8"
                    ]
                },
                "nodeType": 1
            },
            "3": {
                "invocation": {
                    "address": "0x6296e92241e0df33798c1ed1886638a33259e9f8",
                    "callData": "0x0000000000000000000000009176032b42f3e8878fe4c6118aaee03411307383",
                    "decodedMethod": {
                        "callParams": [
                            {
                                "name": "account",
                                "type": "address",
                                "value": "0x9176032b42f3e8878fe4c6118aaee03411307383"
                            }
                        ],
                        "constructorArguments": "",
                        "name": "balanceOf",
                        "returnParams": [
                            {
                                "decimalAvailable": true,
                                "name": "",
                                "type": "uint256",
                                "value": "0"
                            }
                        ],
                        "signature": "balanceOf(address)"
                    },
                    "errorInfo": "",
                    "fromAddress": "0x6131b5fae19ea4f9d964eac0408e4408b66337b5",
                    "gasUsed": 2639,
                    "id": 3,
                    "methodDecoded": true,
                    "operation": "STATICCALL",
                    "output": "0x0000000000000000000000000000000000000000000000000000000000000000",
                    "revert": false,
                    "revertMessage": "",
                    "selector": "0x70a08231",
                    "status": true,
                    "value": "0"
                },
                "nodeType": 0
            },
            "30": {
                "event": {
                    "contract": "0x6131b5fae19ea4f9d964eac0408e4408b66337b5",
                    "decodedLog": {
                        "name": "Exchange",
                        "params": [
                            {
                                "name": "pair",
                                "type": "address",
                                "value": "0xf081470f5c6fbccf48cc4e5b82dd926409dcdd67"
                            },
                            {
                                "name": "amountOut",
                                "type": "uint256",
                                "value": "59,453,584,685,847,248,259,394"
                            },
                            {
                                "name": "output",
                                "type": "address",
                                "value": "0x6296e92241e0df33798c1ed1886638a33259e9f8"
                            }
                        ],
                        "signature": "Exchange(address,uint256,address)"
                    },
                    "id": 30,
                    "logData": "0x000000000000000000000000f081470f5c6fbccf48cc4e5b82dd926409dcdd67000000000000000000000000000000000000000000000c96fc3b912fa94249420000000000000000000000006296e92241e0df33798c1ed1886638a33259e9f8",
                    "logDecoded": true,
                    "operation": "EVENT",
                    "revert": false,
                    "status": true,
                    "topics": [
                        "0xddac40937f35385a34f721af292e5a83fc5b840f722bff57c2fc71adba708c48"
                    ]
                },
                "nodeType": 1
            },
            "31": {
                "event": {
                    "contract": "0x6131b5fae19ea4f9d964eac0408e4408b66337b5",
                    "decodedLog": {
                        "name": "ClientData",
                        "params": [
                            {
                                "name": "clientData",
                                "type": "bytes",
                                "value": "0x7b22536f75726365223a22436f696e5363616e222c22416d6f756e74496e555344223a22323135392e383838323433393233383432222c22416d6f756e744f7574555344223a22313739372e37373032363331313439303034222c22526566657272616c223a22222c22466c616773223a302c22496e74656772697479496e666f223a7b224b65794944223a2231222c225369676e6174757265223a22636e62447243757364642f714569744141302b4c414b5863667342655a576444486245657549694e41543048464c72634a547132544d572f523951684e675161663032324e6e7663672f5866466a3736687656324a4d394962364f577275526f7a447147646e6e624e67446a6c7073442b7946773967726530484a612f6a764f4659623037786461782b3679727a7474394e496b37483736745654383538686e4a4b6135634542712b5444387972463550637865346e4d58436c324253544b664142474a753963514671714d68714e4979724d766b5a6631686e7346434b6141726e71623473697769576a316d5a366b736332704d6c706f4739534d4b6a554a6450797358684479797a4f6b71544372666a586a4f4b71452b424278712b6c5533497159744e483142456477664d36365a4d2f4859593234595845613238746d357a656b3263355a6a585948537655654d62793531773d3d227d7d"
                            }
                        ],
                        "signature": "ClientData(bytes)"
                    },
                    "id": 31,
                    "logData": "0x000000000000000000000000000000000000000000000000000000000000002000000000000000000000000000000000000000000000000000000000000001f87b22536f75726365223a22436f696e5363616e222c22416d6f756e74496e555344223a22323135392e383838323433393233383432222c22416d6f756e744f7574555344223a22313739372e37373032363331313439303034222c22526566657272616c223a22222c22466c616773223a302c22496e74656772697479496e666f223a7b224b65794944223a2231222c225369676e6174757265223a22636e62447243757364642f714569744141302b4c414b5863667342655a576444486245657549694e41543048464c72634a547132544d572f523951684e675161663032324e6e7663672f5866466a3736687656324a4d394962364f577275526f7a447147646e6e624e67446a6c7073442b7946773967726530484a612f6a764f4659623037786461782b3679727a7474394e496b37483736745654383538686e4a4b6135634542712b5444387972463550637865346e4d58436c324253544b664142474a753963514671714d68714e4979724d766b5a6631686e7346434b6141726e71623473697769576a316d5a366b736332704d6c706f4739534d4b6a554a6450797358684479797a4f6b71544372666a586a4f4b71452b424278712b6c5533497159744e483142456477664d36365a4d2f4859593234595845613238746d357a656b3263355a6a585948537655654d62793531773d3d227d7d0000000000000000",
                    "logDecoded": true,
                    "operation": "EVENT",
                    "revert": false,
                    "status": true,
                    "topics": [
                        "0x095e66fa4dd6a6f7b43fb8444a7bd0edb870508c7abf639bc216efb0bcff9779"
                    ]
                },
                "nodeType": 1
            },
            "4": {
                "invocation": {
                    "address": "0x6296e92241e0df33798c1ed1886638a33259e9f8",
                    "callData": "0x0000000000000000000000006131b5fae19ea4f9d964eac0408e4408b66337b5",
                    "decodedMethod": {
                        "callParams": [
                            {
                                "name": "account",
                                "type": "address",
                                "value": "0x6131b5fae19ea4f9d964eac0408e4408b66337b5"
                            }
                        ],
                        "constructorArguments": "",
                        "name": "balanceOf",
                        "returnParams": [
                            {
                                "decimalAvailable": true,
                                "name": "",
                                "type": "uint256",
                                "value": "0"
                            }
                        ],
                        "signature": "balanceOf(address)"
                    },
                    "errorInfo": "",
                    "fromAddress": "0x6131b5fae19ea4f9d964eac0408e4408b66337b5",
                    "gasUsed": 2639,
                    "id": 4,
                    "methodDecoded": true,
                    "operation": "STATICCALL",
                    "output": "0x0000000000000000000000000000000000000000000000000000000000000000",
                    "revert": false,
                    "revertMessage": "",
                    "selector": "0x70a08231",
                    "status": true,
                    "value": "0"
                },
                "nodeType": 0
            },
            "5": {
                "invocation": {
                    "address": "0xf081470f5c6fbccf48cc4e5b82dd926409dcdd67",
                    "callData": "0x00000000000000000000000000000000000000000000000000000000000000200000000000000000000000000000000000000000000000000000000000000300000000000000000000000000000000000000000000000000000000000000002000000000000000000000000000000000000000000000000000000000000000c0000000000000000000000000eeeeeeeeeeeeeeeeeeeeeeeeeeeeeeeeeeeeeeee0000000000000000000000006296e92241e0df33798c1ed1886638a33259e9f80000000000000000000000009176032b42f3e8878fe4c6118aaee0341130738300000000000000000000000000000000000000000000000000000000656ba14300000000000000000000000000000000000000000000000000000000000002a00000000000000000000000000000000000000000000000000000000000000001000000000000000000000000000000000000000000000000000000000000002000000000000000000000000000000000000000000000000000000000000000010000000000000000000000000000000000000000000000000000000000000020000000000000000000000000000000000000000000000000000000000000004059361199000000000000000000000000000000000000000000000000000000000000000000000000000000000000000000000000000000000000000000000100000000000000000000000000142bc93b8730fa9b59b68ffb8d980f86e6b7d475000000000000000000000000c02aaa39b223fe8d0a0e5c4f27ead9083c756cc20000000000000000000000006296e92241e0df33798c1ed1886638a33259e9f8000000000000000000000000f081470f5c6fbccf48cc4e5b82dd926409dcdd670000000000000000000000000000000000000000000000000dc6117dd3934000000000000000000000000000000000000000000000000000000000000000001e000000000000000000000000000000000000000000000000000000000000271000000000000000000000000000000000000000000000000000000000000000320000000000000000000000000000000000000000000000000000000000000020000000000000000000d55ab51c9599ea0000000000000cb787560b69bbce7935",
                    "decodedMethod": {
                        "callParams": [
                            {
                                "name": "callerCallData",
                                "type": "bytes",
                                "value": "0x000000000000000000000000000000000000000000000000000000000000002000000000000000000000000000000000000000000000000000000000000000c0000000000000000000000000eeeeeeeeeeeeeeeeeeeeeeeeeeeeeeeeeeeeeeee0000000000000000000000006296e92241e0df33798c1ed1886638a33259e9f80000000000000000000000009176032b42f3e8878fe4c6118aaee0341130738300000000000000000000000000000000000000000000000000000000656ba14300000000000000000000000000000000000000000000000000000000000002a00000000000000000000000000000000000000000000000000000000000000001000000000000000000000000000000000000000000000000000000000000002000000000000000000000000000000000000000000000000000000000000000010000000000000000000000000000000000000000000000000000000000000020000000000000000000000000000000000000000000000000000000000000004059361199000000000000000000000000000000000000000000000000000000000000000000000000000000000000000000000000000000000000000000000100000000000000000000000000142bc93b8730fa9b59b68ffb8d980f86e6b7d475000000000000000000000000c02aaa39b223fe8d0a0e5c4f27ead9083c756cc20000000000000000000000006296e92241e0df33798c1ed1886638a33259e9f8000000000000000000000000f081470f5c6fbccf48cc4e5b82dd926409dcdd670000000000000000000000000000000000000000000000000dc6117dd3934000000000000000000000000000000000000000000000000000000000000000001e000000000000000000000000000000000000000000000000000000000000271000000000000000000000000000000000000000000000000000000000000000320000000000000000000000000000000000000000000000000000000000000020000000000000000000d55ab51c9599ea0000000000000cb787560b69bbce7935"
                            }
                        ],
                        "constructorArguments": "",
                        "name": "callBytes",
                        "returnParams": [],
                        "signature": "callBytes(bytes)"
                    },
                    "errorInfo": "",
                    "fromAddress": "0x6131b5fae19ea4f9d964eac0408e4408b66337b5",
                    "gasUsed": 158610,
                    "id": 5,
                    "methodDecoded": true,
                    "operation": "CALL",
                    "output": "",
                    "revert": false,
                    "revertMessage": "",
                    "selector": "0xd9c45357",
                    "status": true,
                    "value": "0.9925"
                },
                "nodeType": 0
            },
            "6": {
                "invocation": {
                    "address": "0xc02aaa39b223fe8d0a0e5c4f27ead9083c756cc2",
                    "callData": "0x",
                    "decodedMethod": {
                        "callParams": [],
                        "constructorArguments": "",
                        "name": "deposit",
                        "returnParams": [],
                        "signature": "deposit()"
                    },
                    "errorInfo": "",
                    "fromAddress": "0xf081470f5c6fbccf48cc4e5b82dd926409dcdd67",
                    "gasUsed": 6874,
                    "id": 6,
                    "methodDecoded": true,
                    "operation": "CALL",
                    "output": "",
                    "revert": false,
                    "revertMessage": "",
                    "selector": "0xd0e30db0",
                    "status": true,
                    "value": "0.9925"
                },
                "nodeType": 0
            },
            "7": {
                "event": {
                    "contract": "0xc02aaa39b223fe8d0a0e5c4f27ead9083c756cc2",
                    "decodedLog": {
                        "name": "Deposit",
                        "params": [
                            {
                                "name": "dst",
                                "type": "address",
                                "value": "0xf081470f5c6fbccf48cc4e5b82dd926409dcdd67"
                            },
                            {
                                "name": "wad",
                                "type": "uint256",
                                "value": "992,500,000,000,000,000"
                            }
                        ],
                        "signature": "Deposit(address,uint256)"
                    },
                    "id": 7,
                    "logData": "0x0000000000000000000000000000000000000000000000000dc6117dd3934000",
                    "logDecoded": true,
                    "operation": "EVENT",
                    "revert": false,
                    "status": true,
                    "topics": [
                        "0xe1fffcc4923d04b559f4d29a8bfc6cda04eb5b0d3c460751c2402c5c5cc9109c",
                        "0x000000000000000000000000f081470f5c6fbccf48cc4e5b82dd926409dcdd67"
                    ]
                },
                "nodeType": 1
            },
            "8": {
                "invocation": {
                    "address": "0x9f52c30f29bfc5514d79a587d61ace79ebde82da",
                    "callData": "0x000000000000000000000000000000000000000000000000000000000000004000000000000000000000000000000000000000000000000000000000000000000000000000000000000000000000000000000000000000000000000000000100000000000000000000000000142bc93b8730fa9b59b68ffb8d980f86e6b7d475000000000000000000000000c02aaa39b223fe8d0a0e5c4f27ead9083c756cc20000000000000000000000006296e92241e0df33798c1ed1886638a33259e9f8000000000000000000000000f081470f5c6fbccf48cc4e5b82dd926409dcdd670000000000000000000000000000000000000000000000000dc6117dd3934000000000000000000000000000000000000000000000000000000000000000001e00000000000000000000000000000000000000000000000000000000000027100000000000000000000000000000000000000000000000000000000000000032",
                    "decodedMethod": null,
                    "errorInfo": "",
                    "fromAddress": "0xf081470f5c6fbccf48cc4e5b82dd926409dcdd67",
                    "gasUsed": 96981,
                    "id": 8,
                    "methodDecoded": false,
                    "operation": "DELEGATECALL",
                    "output": "0x000000000000000000000000000000000000000000000c96fc3b912fa9424942",
                    "revert": false,
                    "revertMessage": "",
                    "selector": "0x59361199",
                    "status": true,
                    "value": "0.9925"
                },
                "nodeType": 0
            },
            "9": {
                "invocation": {
                    "address": "0xc02aaa39b223fe8d0a0e5c4f27ead9083c756cc2",
                    "callData": "0x000000000000000000000000f081470f5c6fbccf48cc4e5b82dd926409dcdd67",
                    "decodedMethod": {
                        "callParams": [
                            {
                                "name": "",
                                "type": "address",
                                "value": "0xf081470f5c6fbccf48cc4e5b82dd926409dcdd67"
                            }
                        ],
                        "constructorArguments": "",
                        "name": "balanceOf",
                        "returnParams": [
                            {
                                "decimalAvailable": true,
                                "name": "",
                                "type": "uint256",
                                "value": "992,500,000,000,000,001"
                            }
                        ],
                        "signature": "balanceOf(address)"
                    },
                    "errorInfo": "",
                    "fromAddress": "0xf081470f5c6fbccf48cc4e5b82dd926409dcdd67",
                    "gasUsed": 534,
                    "id": 9,
                    "methodDecoded": true,
                    "operation": "STATICCALL",
                    "output": "0x0000000000000000000000000000000000000000000000000dc6117dd3934001",
                    "revert": false,
                    "revertMessage": "",
                    "selector": "0x70a08231",
                    "status": true,
                    "value": "0"
                },
                "nodeType": 0
            }
        },
        "gasFlame": [
            {
                "children": [
                    {
                        "children": [
                            {
                                "children": [],
                                "depth": 0,
                                "name": "Initial Gas",
                                "value": 39460
                            },
                            {
                                "children": [
                                    {
                                        "children": [],
                                        "depth": 1,
                                        "name": "fallback",
                                        "value": 0
                                    },
                                    {
                                        "children": [],
                                        "depth": 1,
                                        "name": "balanceOf",
                                        "value": 2639
                                    },
                                    {
                                        "children": [],
                                        "depth": 1,
                                        "name": "balanceOf",
                                        "value": 2639
                                    },
                                    {
                                        "children": [
                                            {
                                                "children": [],
                                                "depth": 2,
                                                "name": "deposit",
                                                "value": 6874
                                            },
                                            {
                                                "children": [
                                                    {
                                                        "children": [],
                                                        "depth": 3,
                                                        "name": "balanceOf",
                                                        "value": 534
                                                    },
                                                    {
                                                        "children": [],
                                                        "depth": 3,
                                                        "name": "transfer",
                                                        "value": 8062
                                                    },
                                                    {
                                                        "children": [],
                                                        "depth": 3,
                                                        "name": "getReserves",
                                                        "value": 2504
                                                    },
                                                    {
                                                        "children": [],
                                                        "depth": 3,
                                                        "name": "balanceOf",
                                                        "value": 534
                                                    },
                                                    {
                                                        "children": [],
                                                        "depth": 3,
                                                        "name": "0xf87576e8",
                                                        "value": 1515
                                                    },
                                                    {
                                                        "children": [
                                                            {
                                                                "children": [],
                                                                "depth": 4,
                                                                "name": "transfer",
                                                                "value": 48619
                                                            },
                                                            {
                                                                "children": [],
                                                                "depth": 4,
                                                                "name": "balanceOf",
                                                                "value": 639
                                                            },
                                                            {
                                                                "children": [],
                                                                "depth": 4,
                                                                "name": "balanceOf",
                                                                "value": 534
                                                            }
                                                        ],
                                                        "depth": 3,
                                                        "name": "swap",
                                                        "value": 70699
                                                    }
                                                ],
                                                "depth": 2,
                                                "name": "0x59361199",
                                                "value": 96981
                                            },
                                            {
                                                "children": [],
                                                "depth": 2,
                                                "name": "balanceOf",
                                                "value": 639
                                            },
                                            {
                                                "children": [],
                                                "depth": 2,
                                                "name": "balanceOf",
                                                "value": 534
                                            },
                                            {
                                                "children": [],
                                                "depth": 2,
                                                "name": "transfer",
                                                "value": 26859
                                            }
                                        ],
                                        "depth": 1,
                                        "name": "callBytes",
                                        "value": 158610
                                    },
                                    {
                                        "children": [],
                                        "depth": 1,
                                        "name": "balanceOf",
                                        "value": 639
                                    },
                                    {
                                        "children": [],
                                        "depth": 1,
                                        "name": "balanceOf",
                                        "value": 639
                                    }
                                ],
                                "depth": 0,
                                "name": "Executed Gas",
                                "value": 212795
                            }
                        ],
                        "depth": -1,
                        "name": "Actual Gas Used",
                        "value": 246655
                    },
                    {
                        "children": [],
                        "depth": -1,
                        "name": "Refunded Gas",
                        "value": 5600
                    }
                ],
                "depth": -2,
                "name": "Total Gas",
                "value": 252255
            }
        ],
        "isConfirmed": true,
        "mainTrace": [
            {
                "children": [
                    {
                        "children": [
                            {
                                "children": [],
                                "depth": 1,
                                "id": 1,
                                "order": 1
                            },
                            {
                                "children": [],
                                "depth": 1,
                                "id": 2,
                                "order": 2
                            },
                            {
                                "children": [],
                                "depth": 1,
                                "id": 3,
                                "order": 3
                            },
                            {
                                "children": [],
                                "depth": 1,
                                "id": 4,
                                "order": 4
                            },
                            {
                                "children": [
                                    {
                                        "children": [
                                            {
                                                "children": [],
                                                "depth": 3,
                                                "id": 7,
                                                "order": 7
                                            }
                                        ],
                                        "depth": 2,
                                        "id": 6,
                                        "order": 6
                                    },
                                    {
                                        "children": [
                                            {
                                                "children": [],
                                                "depth": 3,
                                                "id": 9,
                                                "order": 9
                                            },
                                            {
                                                "children": [
                                                    {
                                                        "children": [],
                                                        "depth": 4,
                                                        "id": 11,
                                                        "order": 11
                                                    }
                                                ],
                                                "depth": 3,
                                                "id": 10,
                                                "order": 10
                                            },
                                            {
                                                "children": [],
                                                "depth": 3,
                                                "id": 12,
                                                "order": 12
                                            },
                                            {
                                                "children": [],
                                                "depth": 3,
                                                "id": 13,
                                                "order": 13
                                            },
                                            {
                                                "children": [],
                                                "depth": 3,
                                                "id": 14,
                                                "order": 14
                                            },
                                            {
                                                "children": [
                                                    {
                                                        "children": [
                                                            {
                                                                "children": [],
                                                                "depth": 5,
                                                                "id": 17,
                                                                "order": 17
                                                            }
                                                        ],
                                                        "depth": 4,
                                                        "id": 16,
                                                        "order": 16
                                                    },
                                                    {
                                                        "children": [],
                                                        "depth": 4,
                                                        "id": 18,
                                                        "order": 18
                                                    },
                                                    {
                                                        "children": [],
                                                        "depth": 4,
                                                        "id": 19,
                                                        "order": 19
                                                    },
                                                    {
                                                        "children": [],
                                                        "depth": 4,
                                                        "id": 20,
                                                        "order": 20
                                                    },
                                                    {
                                                        "children": [],
                                                        "depth": 4,
                                                        "id": 21,
                                                        "order": 21
                                                    }
                                                ],
                                                "depth": 3,
                                                "id": 15,
                                                "order": 15
                                            },
                                            {
                                                "children": [],
                                                "depth": 3,
                                                "id": 22,
                                                "order": 22
                                            }
                                        ],
                                        "depth": 2,
                                        "id": 8,
                                        "order": 8
                                    },
                                    {
                                        "children": [],
                                        "depth": 2,
                                        "id": 23,
                                        "order": 23
                                    },
                                    {
                                        "children": [],
                                        "depth": 2,
                                        "id": 24,
                                        "order": 24
                                    },
                                    {
                                        "children": [
                                            {
                                                "children": [],
                                                "depth": 3,
                                                "id": 26,
                                                "order": 26
                                            }
                                        ],
                                        "depth": 2,
                                        "id": 25,
                                        "order": 25
                                    }
                                ],
                                "depth": 1,
                                "id": 5,
                                "order": 5
                            },
                            {
                                "children": [],
                                "depth": 1,
                                "id": 27,
                                "order": 27
                            },
                            {
                                "children": [],
                                "depth": 1,
                                "id": 28,
                                "order": 28
                            },
                            {
                                "children": [],
                                "depth": 1,
                                "id": 29,
                                "order": 29
                            },
                            {
                                "children": [],
                                "depth": 1,
                                "id": 30,
                                "order": 30
                            },
                            {
                                "children": [],
                                "depth": 1,
                                "id": 31,
                                "order": 31
                            }
                        ],
                        "depth": 0,
                        "id": 0,
                        "order": 0
                    }
                ],
                "depth": -1,
                "id": -1,
                "order": -1
            }
        ],
        "mainTraceNodeCount": 32,
        "parentIdMap": {
            "0": -1,
            "1": 0,
            "10": 8,
            "11": 10,
            "12": 8,
            "13": 8,
            "14": 8,
            "15": 8,
            "16": 15,
            "17": 16,
            "18": 15,
            "19": 15,
            "2": 0,
            "20": 15,
            "21": 15,
            "22": 8,
            "23": 5,
            "24": 5,
            "25": 5,
            "26": 25,
            "27": 0,
            "28": 0,
            "29": 0,
            "3": 0,
            "30": 0,
            "31": 0,
            "4": 0,
            "5": 0,
            "6": 5,
            "7": 6,
            "8": 5,
            "9": 8
        },
        "tidyTrace": [
            {
                "children": [
                    {
                        "children": [
                            {
                                "children": [],
                                "depth": 1,
                                "id": 1,
                                "order": 1
                            },
                            {
                                "children": [],
                                "depth": 1,
                                "id": 2,
                                "order": 2
                            },
                            {
                                "children": [
                                    {
                                        "children": [
                                            {
                                                "children": [],
                                                "depth": 3,
                                                "id": 7,
                                                "order": 7
                                            }
                                        ],
                                        "depth": 2,
                                        "id": 6,
                                        "order": 6
                                    },
                                    {
                                        "children": [
                                            {
                                                "children": [
                                                    {
                                                        "children": [],
                                                        "depth": 4,
                                                        "id": 11,
                                                        "order": 11
                                                    }
                                                ],
                                                "depth": 3,
                                                "id": 10,
                                                "order": 10
                                            },
                                            {
                                                "children": [
                                                    {
                                                        "children": [
                                                            {
                                                                "children": [],
                                                                "depth": 5,
                                                                "id": 17,
                                                                "order": 17
                                                            }
                                                        ],
                                                        "depth": 4,
                                                        "id": 16,
                                                        "order": 16
                                                    },
                                                    {
                                                        "children": [],
                                                        "depth": 4,
                                                        "id": 20,
                                                        "order": 20
                                                    },
                                                    {
                                                        "children": [],
                                                        "depth": 4,
                                                        "id": 21,
                                                        "order": 21
                                                    }
                                                ],
                                                "depth": 3,
                                                "id": 15,
                                                "order": 15
                                            },
                                            {
                                                "children": [],
                                                "depth": 3,
                                                "id": 22,
                                                "order": 22
                                            }
                                        ],
                                        "depth": 2,
                                        "id": 8,
                                        "order": 8
                                    },
                                    {
                                        "children": [
                                            {
                                                "children": [],
                                                "depth": 3,
                                                "id": 26,
                                                "order": 26
                                            }
                                        ],
                                        "depth": 2,
                                        "id": 25,
                                        "order": 25
                                    }
                                ],
                                "depth": 1,
                                "id": 5,
                                "order": 5
                            },
                            {
                                "children": [],
                                "depth": 1,
                                "id": 29,
                                "order": 29
                            },
                            {
                                "children": [],
                                "depth": 1,
                                "id": 30,
                                "order": 30
                            },
                            {
                                "children": [],
                                "depth": 1,
                                "id": 31,
                                "order": 31
                            }
                        ],
                        "depth": 0,
                        "id": 0,
                        "order": 0
                    }
                ],
                "depth": -1,
                "id": -1,
                "order": -1
            }
        ],
        "tidyTraceNodeCount": 20
    },
    "state_change": {
        "stateChanges": [
            {
                "address": "0x142bc93b8730fa9b59b68ffb8d980f86e6b7d475",
                "erc": "ERC-20",
                "slots": [
                    {
                        "current": "0x656b9c9700000000000068351c912cb6ba910000000052e8c54d1487ff3a642a",
                        "key": "0x0000000000000000000000000000000000000000000000000000000000000008",
                        "prev": "0x656b9c970000000000005a6f0b1359237a91000000005f7fc188a5b7a87cad6d"
                    }
                ],
                "storageVariables": [
                    {
                        "name": "reserve0",
                        "type": "uint112",
                        "value": {
                            "current": "391527913262584537179178",
                            "prev": "450981497948431785438573",
                            "typeTag": 1
                        }
                    },
                    {
                        "name": "reserve1",
                        "type": "uint112",
                        "value": {
                            "current": "7508939363556178577",
                            "prev": "6516439363556178577",
                            "typeTag": 1
                        }
                    },
                    {
                        "name": "blockTimestampLast",
                        "type": "uint32",
                        "value": {
                            "current": "1701551255",
                            "prev": "1701551255",
                            "typeTag": 1
                        }
                    }
                ]
            },
            {
                "address": "0x6296e92241e0df33798c1ed1886638a33259e9f8",
                "erc": "ERC-20",
                "slots": [
                    {
                        "current": "0x0000000000000000000000000000000000000000000052e8c54d1487ff3a642a",
                        "key": "0x78041752806676b48127a2ddf6eb8c7dba28df86a96b22883359dd1b0a59e4ce",
                        "prev": "0x000000000000000000000000000000000000000000005f7fc188a5b7a87cad6d"
                    },
                    {
                        "current": "0x0000000000000000000000000000000000000000000000000000000000000001",
                        "key": "0x83a5ef50f025e0546bdc02478438776bb2931c0384c6eb124d85fce08565a337",
                        "prev": "0x0000000000000000000000000000000000000000000000000000000000000000"
                    },
                    {
                        "current": "0x000000000000000000000000000000000000000000000c96fc3b912fa9424942",
                        "key": "0xbe0b49373da7653685f78974da9c7a8683bdd6bc4adae7850d533af9d2dfc3a9",
                        "prev": "0x0000000000000000000000000000000000000000000000000000000000000000"
                    }
                ],
                "storageVariables": [
                    {
                        "name": "_balances",
                        "type": "mapping(address => uint256)",
                        "value": {
                            "pairs": [
                                {
                                    "key": "0x142bc93b8730fa9b59b68ffb8d980f86e6b7d475",
                                    "value": {
                                        "current": "391527913262584537179178",
                                        "prev": "450981497948431785438573",
                                        "typeTag": 1
                                    }
                                },
                                {
                                    "key": "0x9176032b42f3e8878fe4c6118aaee03411307383",
                                    "value": {
                                        "current": "59453584685847248259394",
                                        "prev": "0",
                                        "typeTag": 1
                                    }
                                },
                                {
                                    "key": "0xf081470f5c6fbccf48cc4e5b82dd926409dcdd67",
                                    "value": {
                                        "current": "1",
                                        "prev": "0",
                                        "typeTag": 1
                                    }
                                }
                            ],
                            "typeTag": 4
                        }
                    }
                ]
            },
            {
                "address": "0xc02aaa39b223fe8d0a0e5c4f27ead9083c756cc2",
                "erc": "ERC-20",
                "slots": [
                    {
                        "current": "0x00000000000000000000000000000000000000000000000068351c912cb6ba91",
                        "key": "0x3997183f1582121e0fc1f1ab5a91069e611de6c5a9c13daa553e4f2ccf81c4e5",
                        "prev": "0x0000000000000000000000000000000000000000000000005a6f0b1359237a91"
                    }
                ],
                "storageVariables": [
                    {
                        "name": "balanceOf",
                        "type": "mapping(address => uint256)",
                        "value": {
                            "pairs": [
                                {
                                    "key": "0x142bc93b8730fa9b59b68ffb8d980f86e6b7d475",
                                    "value": {
                                        "current": "7508939363556178577",
                                        "prev": "6516439363556178577",
                                        "typeTag": 1
                                    }
                                }
                            ],
                            "typeTag": 4
                        }
                    }
                ]
            }
        ]
    }
}