{
    "balance_change": {
        "balanceChanges": [
            {
                "account": "0xcf0697240463c242f2fa3e4101fab6f7d29b44fc",
                "assets": [
                    {
                        "address": "0xf970b8e36e23f7fc3fd752eea86f8be8d83375a6",
                        "amount": "87,801",
                        "iconUrl": "https://assets.blocksec.com/icon/de43016ccd8991bd2101b0fd6cf71b0a707890ac33ed5f11b8eb5486d13b3b05.png",
                        "isERC1155": false,
                        "isERC721": false,
                        "sign": false,
                        "value": ""
                    }
                ]
            },
            {
                "account": "0x3f5ce5fbfe3e9af3971dd833d26ba9b5c936f0be",
                "assets": [
                    {
                        "address": "0xf970b8e36e23f7fc3fd752eea86f8be8d83375a6",
                        "amount": "87,801",
                        "iconUrl": "https://assets.blocksec.com/icon/de43016ccd8991bd2101b0fd6cf71b0a707890ac33ed5f11b8eb5486d13b3b05.png",
                        "isERC1155": false,
                        "isERC721": false,
                        "sign": true,
                        "value": ""
                    }
                ]
            }
        ]
    },
    "profile": {
        "basic_info": {
            "baseFee": "",
            "blockNumber": 7327932,
            "callData": "0xa9059cbb0000000000000000000000003f5ce5fbfe3e9af3971dd833d26ba9b5c936f0be000000000000000000000000000000000000000000001297b3a5b65d68440000",
            "debugEnable": true,
            "errorInfo": "",
            "eventCount": 1,
            "feeRecipient": "0x5a0b54d5dc17e0aadc383d2db43b0a0d3e029c4c",
            "formatValue": "0",
            "gasLimit": 74380,
            "gasPrice": "20",
            "gasUsed": 22190,
            "intTxnCount": 0,
            "internalRevert": false,
            "internalRevertMessage": "",
            "isContractCreation": false,
            "isFlashloan": false,
            "maxFee": "",
            "nonce": 6845,
            "overwritedBlockNumber": -1,
            "priorityFee": "",
            "receiver": "0xf970b8e36e23f7fc3fd752eea86f8be8d83375a6",
            "revertMessage": "",
            "sender": "0xcf0697240463c242f2fa3e4101fab6f7d29b44fc",
            "simulationEnable": true,
            "sourceTxnHash": "0x9fe3f7774720ffddabe97bf058ed2b2fb550052f21d0e768a31624a6527d9755",
            "status": true,
            "timestamp": "2019-03-08T09:53:11Z",
            "transactionFee": "0.0004438",
            "txnHash": "0x9fe3f7774720ffddabe97bf058ed2b2fb550052f21d0e768a31624a6527d9755",
            "txnIndex": 23,
            "type": 0,
            "value": "0"
        },
        "fund_flow": [
            {
                "amount": "87,801",
                "from": "0xcf0697240463c242f2fa3e4101fab6f7d29b44fc",
                "id": 1,
                "isERC1155": false,
                "isERC721": false,
                "isReverted": false,
                "order": 1,
                "to": "0x3f5ce5fbfe3e9af3971dd833d26ba9b5c936f0be",
                "token": "0xf970b8e36e23f7fc3fd752eea86f8be8d83375a6"
            }
        ],
        "token_infos": [
            {
                "address": "0xc02aaa39b223fe8d0a0e5c4f27ead9083c756cc2",
                "decimals": 18
            },
            {
                "address": "0xf970b8e36e23f7fc3fd752eea86f8be8d83375a6",
                "decimals": 18
            },
            {
                "address": "0xeeeeeeeeeeeeeeeeeeeeeeeeeeeeeeeeeeeeeeee",
                "decimals": 18
            }
        ]
    },
    "address_label": {
        "labels": [
            {
                "address": "0xeeeeeeeeeeeeeeeeeeeeeeeeeeeeeeeeeeeeeeee",
                "label": "Ether"
            },
            {
                "address": "0xf970b8e36e23f7fc3fd752eea86f8be8d83375a6",
                "label": "RCN: RipioCreditNetwork Token"
            },
            {
                "address": "0x3f5ce5fbfe3e9af3971dd833d26ba9b5c936f0be",
                "label": "Binance"
            },
            {
                "address": "0x0000000000000000000000000000000000000001",
                "label": "Precompiled"
            },
            {
                "address": "0x0000000000000000000000000000000000000002",
                "label": "Precompiled"
            },
            {
                "address": "0x0000000000000000000000000000000000000003",
                "label": "Precompiled"
            },
            {
                "address": "0x0000000000000000000000000000000000000004",
                "label": "Precompiled"
            }
        ]
    },
    "trace": {
        "accountLabels": null,
        "dataMap": {
            "-1": {
                "invocation": {
                    "address": "0xcf0697240463c242f2fa3e4101fab6f7d29b44fc",
                    "callData": "",
                    "decodedMethod": null,
                    "errorInfo": "",
                    "fromAddress": "",
                    "gasUsed": 0,
                    "id": -1,
                    "methodDecoded": false,
                    "operation": "",
                    "output": "",
                    "revert": false,
                    "revertMessage": "",
                    "selector": "",
                    "status": false,
                    "value": ""
                },
                "nodeType": 0
            },
            "0": {
                "invocation": {
                    "address": "0xf970b8e36e23f7fc3fd752eea86f8be8d83375a6",
                    "callData": "0x0000000000000000000000003f5ce5fbfe3e9af3971dd833d26ba9b5c936f0be000000000000000000000000000000000000000000001297b3a5b65d68440000",
                    "decodedMethod": {
                        "callParams": [
                            {
                                "name": "_to",
                                "type": "address",
                                "value": "0x3f5ce5fbfe3e9af3971dd833d26ba9b5c936f0be"
                            },
                            {
                                "decimalAvailable": true,
                                "name": "_value",
                                "type": "uint256",
                                "value": "87,801,000,000,000,000,000,000"
                            }
                        ],
                        "constructorArguments": "",
                        "name": "transfer",
                        "returnParams": [
                            {
                                "name": "success",
                                "type": "bool",
                                "value": true
                            }
                        ],
                        "signature": "transfer(address,uint256)"
                    },
                    "errorInfo": "",
                    "fromAddress": "0xcf0697240463c242f2fa3e4101fab6f7d29b44fc",
                    "gasUsed": 22190,
                    "id": 0,
                    "methodDecoded": true,
                    "operation": "CALL",
                    "output": "0x0000000000000000000000000000000000000000000000000000000000000001",
                    "revert": false,
                    "revertMessage": "",
                    "selector": "0xa9059cbb",
                    "status": true,
                    "value": "0"
                },
                "nodeType": 0
            },
            "1": {
                "event": {
                    "contract": "0xf970b8e36e23f7fc3fd752eea86f8be8d83375a6",
                    "decodedLog": {
                        "name": "Transfer",
                        "params": [
                            {
                                "name": "_from",
                                "type": "address",
                                "value": "0xcf0697240463c242f2fa3e4101fab6f7d29b44fc"
                            },
                            {
                                "name": "_to",
                                "type": "address",
                                "value": "0x3f5ce5fbfe3e9af3971dd833d26ba9b5c936f0be"
                            },
                            {
                                "decimalAvailable": true,
                                "name": "_value",
                                "type": "uint256",
                                "value": "87,801,000,000,000,000,000,000"
                            }
                        ],
                        "signature": "Transfer(address,address,uint256)"
                    },
                    "id": 1,
                    "logData": "0x000000000000000000000000000000000000000000001297b3a5b65d68440000",
                    "logDecoded": true,
                    "operation": "EVENT",
                    "revert": false,
                    "status": true,
                    "topics": [
                        "0xddf252ad1be2c89b69c2b068fc378daa952ba7f163c4a11628f55a4df523b3ef",
                        "0x000000000000000000000000cf0697240463c242f2fa3e4101fab6f7d29b44fc",
                        "0x0000000000000000000000003f5ce5fbfe3e9af3971dd833d26ba9b5c936f0be"
                    ]
                },
                "nodeType": 1
            }
        },
        "gasFlame": [
            {
                "children": [
                    {
                        "children": [
                            {
                                "children": [],
                                "depth": 0,
                                "name": "Initial Gas",
                                "value": 23320
                            },
                            {
                                "children": [],
                                "depth": 0,
                                "name": "Executed Gas",
                                "value": 13870
                            }
                        ],
                        "depth": -1,
                        "name": "Actual Gas Used",
                        "value": 22190
                    },
                    {
                        "children": [],
                        "depth": -1,
                        "name": "Refunded Gas",
                        "value": 15000
                    }
                ],
                "depth": -2,
                "name": "Total Gas",
                "value": 37190
            }
        ],
        "isConfirmed": true,
        "mainTrace": [
            {
                "children": [
                    {
                        "children": [
                            {
                                "children": [],
                                "depth": 1,
                                "id": 1,
                                "order": 1
                            }
                        ],
                        "depth": 0,
                        "id": 0,
                        "order": 0
                    }
                ],
                "depth": -1,
                "id": -1,
                "order": -1
            }
        ],
        "mainTraceNodeCount": 2,
        "parentIdMap": {
            "0": -1,
            "1": 0
        },
        "tidyTrace": [
            {
                "children": [
                    {
                        "children": [
                            {
                                "children": [],
                                "depth": 1,
                                "id": 1,
                                "order": 1
                            }
                        ],
                        "depth": 0,
                        "id": 0,
                        "order": 0
                    }
                ],
                "depth": -1,
                "id": -1,
                "order": -1
            }
        ],
        "tidyTraceNodeCount": 2
    },
    "state_change": {
        "stateChanges": [
            {
                "address": "0xf970b8e36e23f7fc3fd752eea86f8be8d83375a6",
                "erc": "ERC-20",
                "slots": [
                    {
                        "current": "0x0000000000000000000000000000000000000000000000000000000000000000",
                        "key": "0x12d7be0208cebb114045ebc9668987fd7a1e38bd55091830c793c75765aa22ad",
                        "prev": "0x000000000000000000000000000000000000000000001297b3a5b65d68440000"
                    },
                    {
                        "current": "0x00000000000000000000000000000000000000000003005844cde392b6c51e6c",
                        "key": "0x70571e0937d308e48dbe6a59e67c45883ee934fe35a8749f1652cd54e334aac8",
                        "prev": "0x00000000000000000000000000000000000000000002edc091282d354e811e6c"
                    }
                ],
                "storageVariables": [
                    {
                        "name": "balances",
                        "type": "mapping(address => uint256)",
                        "value": {
                            "pairs": [
                                {
                                    "key": "0x3f5ce5fbfe3e9af3971dd833d26ba9b5c936f0be",
                                    "value": {
                                        "current": "3628405730191358040546924",
                                        "prev": "3540604730191358040546924",
                                        "typeTag": 1
                                    }
                                },
                                {
                                    "key": "0xcf0697240463c242f2fa3e4101fab6f7d29b44fc",
                                    "value": {
                                        "current": "0",
                                        "prev": "87801000000000000000000",
                                        "typeTag": 1
                                    }
                                }
                            ],
                            "typeTag": 4
                        }
                    }
                ]
            }
        ]
    }
}