{
    "balance_change": {
        "balanceChanges": [
            {
                "account": "0x5ef3f2723f8e8c45af15df67dbdfa8a8ff2c3e8f",
                "assets": [
                    {
                        "address": "0x111111111117dc0aa78b770fa6a738034120c302",
                        "amount": "83,320.8837",
                        "iconUrl": "https://assets.blocksec.com/icon/ca85cbb46dd840dad943ce8d71a6933f6860da2d672e673851deb5beb229ca96.png",
                        "isERC1155": false,
                        "isERC721": false,
                        "sign": false,
                        "value": "207694.5717"
                    }
                ]
            },
            {
                "account": "0x16b3cfa3bf78dd9574f4d097f26b3c09ff7844ec",
                "assets": [
                    {
                        "address": "0x111111111117dc0aa78b770fa6a738034120c302",
                        "amount": "83,320.8837",
                        "iconUrl": "https://assets.blocksec.com/icon/ca85cbb46dd840dad943ce8d71a6933f6860da2d672e673851deb5beb229ca96.png",
                        "isERC1155": false,
                        "isERC721": false,
                        "sign": true,
                        "value": "207694.5717"
                    }
                ]
            }
        ]
    },
    "profile": {
        "basic_info": {
            "baseFee": "179.86792093",
            "blockNumber": 13995252,
            "callData": "0xa9059cbb00000000000000000000000016b3cfa3bf78dd9574f4d097f26b3c09ff7844ec0000000000000000000000000000000000000000000011a4d58b403036e34000",
            "debugEnable": true,
            "errorInfo": "",
            "eventCount": 1,
            "feeRecipient": "0xea674fdde714fd979de3edf0f56aa9716b898ec8",
            "formatValue": "0",
            "gasLimit": 77463,
            "gasPrice": "181.36792093",
            "gasUsed": 46842,
            "intTxnCount": 0,
            "internalRevert": false,
            "internalRevertMessage": "",
            "isContractCreation": false,
            "isFlashloan": false,
            "maxFee": "233.83872162",
            "nonce": 390,
            "overwritedBlockNumber": -1,
            "priorityFee": "1.5",
            "receiver": "0x111111111117dc0aa78b770fa6a738034120c302",
            "revertMessage": "",
            "sender": "0x5ef3f2723f8e8c45af15df67dbdfa8a8ff2c3e8f",
            "simulationEnable": true,
            "sourceTxnHash": "0x9fe721670253b5ca0792dc668a0ea8b388ef35980f858470d6a134f358010fdc",
            "status": true,
            "timestamp": "2022-01-13T05:17:30Z",
            "transactionFee": "0.00849563615220306",
            "txnHash": "0x9fe721670253b5ca0792dc668a0ea8b388ef35980f858470d6a134f358010fdc",
            "txnIndex": 183,
            "type": 2,
            "value": "0"
        },
        "fund_flow": [
            {
                "amount": "83,320.8837",
                "from": "0x5ef3f2723f8e8c45af15df67dbdfa8a8ff2c3e8f",
                "id": 1,
                "isERC1155": false,
                "isERC721": false,
                "isReverted": false,
                "order": 1,
                "to": "0x16b3cfa3bf78dd9574f4d097f26b3c09ff7844ec",
                "token": "0x111111111117dc0aa78b770fa6a738034120c302"
            }
        ],
        "token_infos": [
            {
                "address": "0x111111111117dc0aa78b770fa6a738034120c302",
                "decimals": 18
            },
            {
                "address": "0xc02aaa39b223fe8d0a0e5c4f27ead9083c756cc2",
                "decimals": 18
            },
            {
                "address": "0xeeeeeeeeeeeeeeeeeeeeeeeeeeeeeeeeeeeeeeee",
                "decimals": 18
            }
        ]
    },
    "address_label": {
        "labels": [
            {
                "address": "0x0000000000000000000000000000000000000004",
                "label": "Precompiled"
            },
            {
                "address": "0xeeeeeeeeeeeeeeeeeeeeeeeeeeeeeeeeeeeeeeee",
                "label": "Ether"
            },
            {
                "address": "0x111111111117dc0aa78b770fa6a738034120c302",
                "label": "1inch: 1INCH Token"
            },
            {
                "address": "0x0000000000000000000000000000000000000001",
                "label": "Precompiled"
            },
            {
                "address": "0x0000000000000000000000000000000000000002",
                "label": "Precompiled"
            },
            {
                "address": "0x0000000000000000000000000000000000000003",
                "label": "Precompiled"
            }
        ]
    },
    "trace": {
        "accountLabels": null,
        "dataMap": {
            "-1": {
                "invocation": {
                    "address": "0x5ef3f2723f8e8c45af15df67dbdfa8a8ff2c3e8f",
                    "callData": "",
                    "decodedMethod": null,
                    "errorInfo": "",
                    "fromAddress": "",
                    "gasUsed": 0,
                    "id": -1,
                    "methodDecoded": false,
                    "operation": "",
                    "output": "",
                    "revert": false,
                    "revertMessage": "",
                    "selector": "",
                    "status": false,
                    "value": ""
                },
                "nodeType": 0
            },
            "0": {
                "invocation": {
                    "address": "0x111111111117dc0aa78b770fa6a738034120c302",
                    "callData": "0x00000000000000000000000016b3cfa3bf78dd9574f4d097f26b3c09ff7844ec0000000000000000000000000000000000000000000011a4d58b403036e34000",
                    "decodedMethod": {
                        "callParams": [
                            {
                                "name": "recipient",
                                "type": "address",
                                "value": "0x16b3cfa3bf78dd9574f4d097f26b3c09ff7844ec"
                            },
                            {
                                "decimalAvailable": true,
                                "name": "amount",
                                "type": "uint256",
                                "value": "83,320,883,700,000,000,000,000"
                            }
                        ],
                        "constructorArguments": "",
                        "name": "transfer",
                        "returnParams": [
                            {
                                "name": "",
                                "type": "bool",
                                "value": true
                            }
                        ],
                        "signature": "transfer(address,uint256)"
                    },
                    "errorInfo": "",
                    "fromAddress": "0x5ef3f2723f8e8c45af15df67dbdfa8a8ff2c3e8f",
                    "gasUsed": 46842,
                    "id": 0,
                    "methodDecoded": true,
                    "operation": "CALL",
                    "output": "0x0000000000000000000000000000000000000000000000000000000000000001",
                    "revert": false,
                    "revertMessage": "",
                    "selector": "0xa9059cbb",
                    "status": true,
                    "value": "0"
                },
                "nodeType": 0
            },
            "1": {
                "event": {
                    "contract": "0x111111111117dc0aa78b770fa6a738034120c302",
                    "decodedLog": {
                        "name": "Transfer",
                        "params": [
                            {
                                "name": "from",
                                "type": "address",
                                "value": "0x5ef3f2723f8e8c45af15df67dbdfa8a8ff2c3e8f"
                            },
                            {
                                "name": "to",
                                "type": "address",
                                "value": "0x16b3cfa3bf78dd9574f4d097f26b3c09ff7844ec"
                            },
                            {
                                "decimalAvailable": true,
                                "name": "value",
                                "type": "uint256",
                                "value": "83,320,883,700,000,000,000,000"
                            }
                        ],
                        "signature": "Transfer(address,address,uint256)"
                    },
                    "id": 1,
                    "logData": "0x0000000000000000000000000000000000000000000011a4d58b403036e34000",
                    "logDecoded": true,
                    "operation": "EVENT",
                    "revert": false,
                    "status": true,
                    "topics": [
                        "0xddf252ad1be2c89b69c2b068fc378daa952ba7f163c4a11628f55a4df523b3ef",
                        "0x0000000000000000000000005ef3f2723f8e8c45af15df67dbdfa8a8ff2c3e8f",
                        "0x00000000000000000000000016b3cfa3bf78dd9574f4d097f26b3c09ff7844ec"
                    ]
                },
                "nodeType": 1
            }
        },
        "gasFlame": [
            {
                "children": [
                    {
                        "children": [
                            {
                                "children": [],
                                "depth": 0,
                                "name": "Initial Gas",
                                "value": 21668
                            },
                            {
                                "children": [],
                                "depth": 0,
                                "name": "Executed Gas",
                                "value": 29974
                            }
                        ],
                        "depth": -1,
                        "name": "Actual Gas Used",
                        "value": 46842
                    },
                    {
                        "children": [],
                        "depth": -1,
                        "name": "Refunded Gas",
                        "value": 4800
                    }
                ],
                "depth": -2,
                "name": "Total Gas",
                "value": 51642
            }
        ],
        "isConfirmed": true,
        "mainTrace": [
            {
                "children": [
                    {
                        "children": [
                            {
                                "children": [],
                                "depth": 1,
                                "id": 1,
                                "order": 1
                            }
                        ],
                        "depth": 0,
                        "id": 0,
                        "order": 0
                    }
                ],
                "depth": -1,
                "id": -1,
                "order": -1
            }
        ],
        "mainTraceNodeCount": 2,
        "parentIdMap": {
            "0": -1,
            "1": 0
        },
        "tidyTrace": [
            {
                "children": [
                    {
                        "children": [
                            {
                                "children": [],
                                "depth": 1,
                                "id": 1,
                                "order": 1
                            }
                        ],
                        "depth": 0,
                        "id": 0,
                        "order": 0
                    }
                ],
                "depth": -1,
                "id": -1,
                "order": -1
            }
        ],
        "tidyTraceNodeCount": 2
    },
    "state_change": {
        "stateChanges": [
            {
                "address": "0x111111111117dc0aa78b770fa6a738034120c302",
                "erc": "ERC-20",
                "slots": [
                    {
                        "current": "0x0000000000000000000000000000000000000000000011a4d58b403036e34000",
                        "key": "0x72ac75efa9bc587e242dc2b7362c1c5db29323dcfbc77a317bd719b01a1421b3",
                        "prev": "0x0000000000000000000000000000000000000000000000000000000000000000"
                    },
                    {
                        "current": "0x0000000000000000000000000000000000000000000000000000000000000000",
                        "key": "0x121d9310bca30f95e604c96c9eb4277004c1cae7469ced57ca24fa76b2027f71",
                        "prev": "0x0000000000000000000000000000000000000000000011a4d58b403036e34000"
                    }
                ],
                "storageVariables": [
                    {
                        "name": "_balances",
                        "type": "mapping(address => uint256)",
                        "value": {
                            "pairs": [
                                {
                                    "key": "0x16b3cfa3bf78dd9574f4d097f26b3c09ff7844ec",
                                    "value": {
                                        "current": "83320883700000000000000",
                                        "prev": "0",
                                        "typeTag": 1
                                    }
                                },
                                {
                                    "key": "0x5ef3f2723f8e8c45af15df67dbdfa8a8ff2c3e8f",
                                    "value": {
                                        "current": "0",
                                        "prev": "83320883700000000000000",
                                        "typeTag": 1
                                    }
                                }
                            ],
                            "typeTag": 4
                        }
                    }
                ]
            }
        ]
    }
}