{
    "balance_change": {
        "balanceChanges": [
            {
                "account": "0x87bd5a0baddb682bee234ebeb771b33636ed5667",
                "assets": [
                    {
                        "address": "0xa0b86991c6218b36c1d19d4a2e9eb0ce3606eb48",
                        "amount": "2,000",
                        "iconUrl": "https://assets.blocksec.com/icon/0347a86cc07dbd03fdc5db01a4e5ac7e1217f90e0b6e4bb0f75cbcca09160989.png",
                        "isERC1155": false,
                        "isERC721": false,
                        "sign": false,
                        "value": "2000.0712"
                    }
                ]
            },
            {
                "account": "0x0000000000000000000000000000000000000000",
                "assets": [
                    {
                        "address": "0x1b84765de8b7566e4ceaf4d0fd3c5af52d3dde4f",
                        "amount": "1,997.305524606176869231",
                        "iconUrl": "",
                        "isERC1155": false,
                        "isERC721": false,
                        "sign": false,
                        "value": ""
                    }
                ]
            },
            {
                "account": "0x1116898dda4015ed8ddefb84b6e8bc24528af2d8",
                "assets": [
                    {
                        "address": "0xa0b86991c6218b36c1d19d4a2e9eb0ce3606eb48",
                        "amount": "2,000",
                        "iconUrl": "https://assets.blocksec.com/icon/0347a86cc07dbd03fdc5db01a4e5ac7e1217f90e0b6e4bb0f75cbcca09160989.png",
                        "isERC1155": false,
                        "isERC721": false,
                        "sign": true,
                        "value": "2000.0712"
                    }
                ]
            },
            {
                "account": "0x2796317b0ff8538f253012862c06787adfb8ceb6",
                "assets": [
                    {
                        "address": "0x1b84765de8b7566e4ceaf4d0fd3c5af52d3dde4f",
                        "amount": "1,997.305524606176869231",
                        "iconUrl": "",
                        "isERC1155": false,
                        "isERC721": false,
                        "sign": true,
                        "value": ""
                    }
                ]
            }
        ]
    },
    "profile": {
        "basic_info": {
            "baseFee": "32.607114773",
            "blockNumber": 14386259,
            "callData": "0x8054ae3b00000000000000000000000087bd5a0baddb682bee234ebeb771b33636ed5667000000000000000000000000000000000000000000000000000000000000a86a0000000000000000000000001b84765de8b7566e4ceaf4d0fd3c5af52d3dde4f00000000000000000000000000000000000000000000000000000000000001400000000000000000000000000000000000000000000000000000000076f88b0000000000000000000000000000000000000000000000000000000000622f8732000000000000000000000000000000000000000000000000000000000000000000000000000000000000000000000000000000000000000000000000000000020000000000000000000000000000000000000000000000000000000076796d95000000000000000000000000000000000000000000000000000000006230d65a0000000000000000000000000000000000000000000000000000000000000003000000000000000000000000000000000000000000000000000000000000000000000000000000000000000000000000000000000000000000000000773594000000000000000000000000000000000000000000000000000000000000000000",
            "debugEnable": true,
            "errorInfo": "",
            "eventCount": 7,
            "feeRecipient": "0x829bd824b016326a401d083b33d092293333a830",
            "formatValue": "0",
            "gasLimit": 300924,
            "gasPrice": "34.107114773",
            "gasUsed": 252424,
            "intTxnCount": 21,
            "internalRevert": false,
            "internalRevertMessage": "",
            "isContractCreation": false,
            "isFlashloan": false,
            "maxFee": "36.735787369",
            "nonce": 27,
            "overwritedBlockNumber": -1,
            "priorityFee": "1.5",
            "receiver": "0x6571d6be3d8460cf5f7d6711cd9961860029d85f",
            "revertMessage": "",
            "sender": "0x87bd5a0baddb682bee234ebeb771b33636ed5667",
            "simulationEnable": true,
            "sourceTxnHash": "0x9f596d8beb626e076164341b24491c0b9325e294a48db2e3416695ec047a7f63",
            "status": true,
            "timestamp": "2022-03-14T18:09:36Z",
            "transactionFee": "0.008609454339459752",
            "txnHash": "0x9f596d8beb626e076164341b24491c0b9325e294a48db2e3416695ec047a7f63",
            "txnIndex": 85,
            "type": 2,
            "value": "0"
        },
        "fund_flow": [
            {
                "amount": "2,000",
                "from": "0x87bd5a0baddb682bee234ebeb771b33636ed5667",
                "id": 1,
                "isERC1155": false,
                "isERC721": false,
                "isReverted": false,
                "order": 1,
                "to": "0x6571d6be3d8460cf5f7d6711cd9961860029d85f",
                "token": "0xa0b86991c6218b36c1d19d4a2e9eb0ce3606eb48"
            },
            {
                "amount": "2,000",
                "from": "0x6571d6be3d8460cf5f7d6711cd9961860029d85f",
                "id": 2,
                "isERC1155": false,
                "isERC721": false,
                "isReverted": false,
                "order": 2,
                "to": "0x1116898dda4015ed8ddefb84b6e8bc24528af2d8",
                "token": "0xa0b86991c6218b36c1d19d4a2e9eb0ce3606eb48"
            },
            {
                "amount": "1,997.305524606176869231",
                "from": "0x0000000000000000000000000000000000000000",
                "id": 3,
                "isERC1155": false,
                "isERC721": false,
                "isReverted": false,
                "order": 3,
                "to": "0x6571d6be3d8460cf5f7d6711cd9961860029d85f",
                "token": "0x1b84765de8b7566e4ceaf4d0fd3c5af52d3dde4f"
            },
            {
                "amount": "1,997.305524606176869231",
                "from": "0x6571d6be3d8460cf5f7d6711cd9961860029d85f",
                "id": 4,
                "isERC1155": false,
                "isERC721": false,
                "isReverted": false,
                "order": 4,
                "to": "0x2796317b0ff8538f253012862c06787adfb8ceb6",
                "token": "0x1b84765de8b7566e4ceaf4d0fd3c5af52d3dde4f"
            }
        ],
        "token_infos": [
            {
                "address": "0xa0b86991c6218b36c1d19d4a2e9eb0ce3606eb48",
                "decimals": 6
            },
            {
                "address": "0xc02aaa39b223fe8d0a0e5c4f27ead9083c756cc2",
                "decimals": 18
            },
            {
                "address": "0xeeeeeeeeeeeeeeeeeeeeeeeeeeeeeeeeeeeeeeee",
                "decimals": 18
            },
            {
                "address": "0x1b84765de8b7566e4ceaf4d0fd3c5af52d3dde4f",
                "decimals": 18
            }
        ]
    },
    "address_label": {
        "labels": [
            {
                "address": "0xeeeeeeeeeeeeeeeeeeeeeeeeeeeeeeeeeeeeeeee",
                "label": "Ether"
            },
            {
                "address": "0x2796317b0ff8538f253012862c06787adfb8ceb6",
                "label": "Synapse: Bridge"
            },
            {
                "address": "0xa0b86991c6218b36c1d19d4a2e9eb0ce3606eb48",
                "label": "Circle: USDC Token"
            },
            {
                "address": "0x0000000000000000000000000000000000000002",
                "label": "Precompiled"
            },
            {
                "address": "0x1b84765de8b7566e4ceaf4d0fd3c5af52d3dde4f",
                "label": "nUSD (nUSD)"
            },
            {
                "address": "0x11199a9ee50127f335b84a1eeb961d8a85147f5f",
                "label": "SwapUtils"
            },
            {
                "address": "0x0000000000000000000000000000000000000003",
                "label": "Precompiled"
            },
            {
                "address": "0x6571d6be3d8460cf5f7d6711cd9961860029d85f",
                "label": "Synapse: Bridge Zap 3"
            },
            {
                "address": "0x5a5fff6f753d7c11a56a52fe47a177a87e431655",
                "label": "SwapFlashLoan"
            },
            {
                "address": "0x0000000000000000000000000000000000000001",
                "label": "Precompiled"
            },
            {
                "address": "0x1116898dda4015ed8ddefb84b6e8bc24528af2d8",
                "label": "Synapse: Stable Liquidity Pool"
            },
            {
                "address": "0xa2327a938febf5fec13bacfb16ae10ecbc4cbdcf",
                "label": "FiatTokenV2_1"
            },
            {
                "address": "0x31fe393815822edacbd81c2262467402199efd0d",
                "label": "Synapse: Bridge Implementation"
            },
            {
                "address": "0x6c8c6e68604e78b549c96907bfe9ebdaac04e3b3",
                "label": "Nerve LP Token (Target) (nerveLPTo...)"
            },
            {
                "address": "0x0000000000000000000000000000000000000004",
                "label": "Precompiled"
            }
        ]
    },
    "trace": {
        "accountLabels": null,
        "dataMap": {
            "-1": {
                "invocation": {
                    "address": "0x87bd5a0baddb682bee234ebeb771b33636ed5667",
                    "callData": "",
                    "decodedMethod": null,
                    "errorInfo": "",
                    "fromAddress": "",
                    "gasUsed": 0,
                    "id": -1,
                    "methodDecoded": false,
                    "operation": "",
                    "output": "",
                    "revert": false,
                    "revertMessage": "",
                    "selector": "",
                    "status": false,
                    "value": ""
                },
                "nodeType": 0
            },
            "0": {
                "invocation": {
                    "address": "0x6571d6be3d8460cf5f7d6711cd9961860029d85f",
                    "callData": "0x00000000000000000000000087bd5a0baddb682bee234ebeb771b33636ed5667000000000000000000000000000000000000000000000000000000000000a86a0000000000000000000000001b84765de8b7566e4ceaf4d0fd3c5af52d3dde4f00000000000000000000000000000000000000000000000000000000000001400000000000000000000000000000000000000000000000000000000076f88b0000000000000000000000000000000000000000000000000000000000622f8732000000000000000000000000000000000000000000000000000000000000000000000000000000000000000000000000000000000000000000000000000000020000000000000000000000000000000000000000000000000000000076796d95000000000000000000000000000000000000000000000000000000006230d65a0000000000000000000000000000000000000000000000000000000000000003000000000000000000000000000000000000000000000000000000000000000000000000000000000000000000000000000000000000000000000000773594000000000000000000000000000000000000000000000000000000000000000000",
                    "decodedMethod": {
                        "callParams": [
                            {
                                "name": "to",
                                "type": "address",
                                "value": "0x87bd5a0baddb682bee234ebeb771b33636ed5667"
                            },
                            {
                                "name": "chainId",
                                "type": "uint256",
                                "value": "43,114"
                            },
                            {
                                "name": "token",
                                "type": "address",
                                "value": "0x1b84765de8b7566e4ceaf4d0fd3c5af52d3dde4f"
                            },
                            {
                                "name": "liquidityAmounts",
                                "type": "uint256[]",
                                "value": [
                                    "0",
                                    "2,000,000,000",
                                    "0"
                                ]
                            },
                            {
                                "name": "minToMint",
                                "type": "uint256",
                                "value": "1,996,000,000"
                            },
                            {
                                "name": "liqDeadline",
                                "type": "uint256",
                                "value": "1,647,281,970"
                            },
                            {
                                "name": "tokenIndexFrom",
                                "type": "uint8",
                                "value": "0"
                            },
                            {
                                "name": "tokenIndexTo",
                                "type": "uint8",
                                "value": "2"
                            },
                            {
                                "name": "minDy",
                                "type": "uint256",
                                "value": "1,987,669,397"
                            },
                            {
                                "name": "swapDeadline",
                                "type": "uint256",
                                "value": "1,647,367,770"
                            }
                        ],
                        "constructorArguments": "",
                        "name": "zapAndDepositAndSwap",
                        "returnParams": [],
                        "signature": "zapAndDepositAndSwap(address,uint256,address,uint256[],uint256,uint256,uint8,uint8,uint256,uint256)"
                    },
                    "errorInfo": "",
                    "fromAddress": "0x87bd5a0baddb682bee234ebeb771b33636ed5667",
                    "gasUsed": 252424,
                    "id": 0,
                    "methodDecoded": true,
                    "operation": "CALL",
                    "output": "",
                    "revert": false,
                    "revertMessage": "",
                    "selector": "0x8054ae3b",
                    "status": true,
                    "value": "0"
                },
                "nodeType": 0
            },
            "1": {
                "invocation": {
                    "address": "0xa0b86991c6218b36c1d19d4a2e9eb0ce3606eb48",
                    "callData": "0x00000000000000000000000087bd5a0baddb682bee234ebeb771b33636ed56670000000000000000000000006571d6be3d8460cf5f7d6711cd9961860029d85f0000000000000000000000000000000000000000000000000000000077359400",
                    "decodedMethod": {
                        "callParams": [
                            {
                                "name": "from",
                                "type": "address",
                                "value": "0x87bd5a0baddb682bee234ebeb771b33636ed5667"
                            },
                            {
                                "name": "to",
                                "type": "address",
                                "value": "0x6571d6be3d8460cf5f7d6711cd9961860029d85f"
                            },
                            {
                                "decimalAvailable": true,
                                "name": "value",
                                "type": "uint256",
                                "value": "2,000,000,000"
                            }
                        ],
                        "constructorArguments": "",
                        "name": "transferFrom",
                        "returnParams": [
                            {
                                "name": "",
                                "type": "bool",
                                "value": true
                            }
                        ],
                        "signature": "transferFrom(address,address,uint256)"
                    },
                    "errorInfo": "",
                    "fromAddress": "0x6571d6be3d8460cf5f7d6711cd9961860029d85f",
                    "gasUsed": 49992,
                    "id": 1,
                    "methodDecoded": true,
                    "operation": "CALL",
                    "output": "0x0000000000000000000000000000000000000000000000000000000000000001",
                    "revert": false,
                    "revertMessage": "",
                    "selector": "0x23b872dd",
                    "status": true,
                    "value": "0"
                },
                "nodeType": 0
            },
            "10": {
                "invocation": {
                    "address": "0xa2327a938febf5fec13bacfb16ae10ecbc4cbdcf",
                    "callData": "0x0000000000000000000000001116898dda4015ed8ddefb84b6e8bc24528af2d8",
                    "decodedMethod": {
                        "callParams": [
                            {
                                "name": "account",
                                "type": "address",
                                "value": "0x1116898dda4015ed8ddefb84b6e8bc24528af2d8"
                            }
                        ],
                        "constructorArguments": "",
                        "name": "balanceOf",
                        "returnParams": [
                            {
                                "decimalAvailable": true,
                                "name": "",
                                "type": "uint256",
                                "value": "17,893,592,308,097"
                            }
                        ],
                        "signature": "balanceOf(address)"
                    },
                    "errorInfo": "",
                    "fromAddress": "0xa0b86991c6218b36c1d19d4a2e9eb0ce3606eb48",
                    "gasUsed": 2529,
                    "id": 10,
                    "methodDecoded": true,
                    "operation": "DELEGATECALL",
                    "output": "0x000000000000000000000000000000000000000000000000000010462d369981",
                    "revert": false,
                    "revertMessage": "",
                    "selector": "0x70a08231",
                    "status": true,
                    "value": "0"
                },
                "nodeType": 0
            },
            "11": {
                "invocation": {
                    "address": "0xa0b86991c6218b36c1d19d4a2e9eb0ce3606eb48",
                    "callData": "0x0000000000000000000000006571d6be3d8460cf5f7d6711cd9961860029d85f0000000000000000000000001116898dda4015ed8ddefb84b6e8bc24528af2d80000000000000000000000000000000000000000000000000000000077359400",
                    "decodedMethod": {
                        "callParams": [
                            {
                                "name": "from",
                                "type": "address",
                                "value": "0x6571d6be3d8460cf5f7d6711cd9961860029d85f"
                            },
                            {
                                "name": "to",
                                "type": "address",
                                "value": "0x1116898dda4015ed8ddefb84b6e8bc24528af2d8"
                            },
                            {
                                "decimalAvailable": true,
                                "name": "value",
                                "type": "uint256",
                                "value": "2,000,000,000"
                            }
                        ],
                        "constructorArguments": "",
                        "name": "transferFrom",
                        "returnParams": [
                            {
                                "name": "",
                                "type": "bool",
                                "value": true
                            }
                        ],
                        "signature": "transferFrom(address,address,uint256)"
                    },
                    "errorInfo": "",
                    "fromAddress": "0x1116898dda4015ed8ddefb84b6e8bc24528af2d8",
                    "gasUsed": 15592,
                    "id": 11,
                    "methodDecoded": true,
                    "operation": "CALL",
                    "output": "0x0000000000000000000000000000000000000000000000000000000000000001",
                    "revert": false,
                    "revertMessage": "",
                    "selector": "0x23b872dd",
                    "status": true,
                    "value": "0"
                },
                "nodeType": 0
            },
            "12": {
                "invocation": {
                    "address": "0xa2327a938febf5fec13bacfb16ae10ecbc4cbdcf",
                    "callData": "0x0000000000000000000000006571d6be3d8460cf5f7d6711cd9961860029d85f0000000000000000000000001116898dda4015ed8ddefb84b6e8bc24528af2d80000000000000000000000000000000000000000000000000000000077359400",
                    "decodedMethod": {
                        "callParams": [
                            {
                                "name": "from",
                                "type": "address",
                                "value": "0x6571d6be3d8460cf5f7d6711cd9961860029d85f"
                            },
                            {
                                "name": "to",
                                "type": "address",
                                "value": "0x1116898dda4015ed8ddefb84b6e8bc24528af2d8"
                            },
                            {
                                "decimalAvailable": true,
                                "name": "value",
                                "type": "uint256",
                                "value": "2,000,000,000"
                            }
                        ],
                        "constructorArguments": "",
                        "name": "transferFrom",
                        "returnParams": [
                            {
                                "name": "",
                                "type": "bool",
                                "value": true
                            }
                        ],
                        "signature": "transferFrom(address,address,uint256)"
                    },
                    "errorInfo": "",
                    "fromAddress": "0xa0b86991c6218b36c1d19d4a2e9eb0ce3606eb48",
                    "gasUsed": 14797,
                    "id": 12,
                    "methodDecoded": true,
                    "operation": "DELEGATECALL",
                    "output": "0x0000000000000000000000000000000000000000000000000000000000000001",
                    "revert": false,
                    "revertMessage": "",
                    "selector": "0x23b872dd",
                    "status": true,
                    "value": "0"
                },
                "nodeType": 0
            },
            "13": {
                "event": {
                    "contract": "0xa0b86991c6218b36c1d19d4a2e9eb0ce3606eb48",
                    "decodedLog": {
                        "name": "Transfer",
                        "params": [
                            {
                                "name": "from",
                                "type": "address",
                                "value": "0x6571d6be3d8460cf5f7d6711cd9961860029d85f"
                            },
                            {
                                "name": "to",
                                "type": "address",
                                "value": "0x1116898dda4015ed8ddefb84b6e8bc24528af2d8"
                            },
                            {
                                "decimalAvailable": true,
                                "name": "value",
                                "type": "uint256",
                                "value": "2,000,000,000"
                            }
                        ],
                        "signature": "Transfer(address,address,uint256)"
                    },
                    "id": 13,
                    "logData": "0x0000000000000000000000000000000000000000000000000000000077359400",
                    "logDecoded": true,
                    "operation": "EVENT",
                    "revert": false,
                    "status": true,
                    "topics": [
                        "0xddf252ad1be2c89b69c2b068fc378daa952ba7f163c4a11628f55a4df523b3ef",
                        "0x0000000000000000000000006571d6be3d8460cf5f7d6711cd9961860029d85f",
                        "0x0000000000000000000000001116898dda4015ed8ddefb84b6e8bc24528af2d8"
                    ]
                },
                "nodeType": 1
            },
            "14": {
                "invocation": {
                    "address": "0xa0b86991c6218b36c1d19d4a2e9eb0ce3606eb48",
                    "callData": "0x0000000000000000000000001116898dda4015ed8ddefb84b6e8bc24528af2d8",
                    "decodedMethod": {
                        "callParams": [
                            {
                                "name": "account",
                                "type": "address",
                                "value": "0x1116898dda4015ed8ddefb84b6e8bc24528af2d8"
                            }
                        ],
                        "constructorArguments": "",
                        "name": "balanceOf",
                        "returnParams": [
                            {
                                "decimalAvailable": true,
                                "name": "",
                                "type": "uint256",
                                "value": "17,895,592,308,097"
                            }
                        ],
                        "signature": "balanceOf(address)"
                    },
                    "errorInfo": "",
                    "fromAddress": "0x1116898dda4015ed8ddefb84b6e8bc24528af2d8",
                    "gasUsed": 1315,
                    "id": 14,
                    "methodDecoded": true,
                    "operation": "STATICCALL",
                    "output": "0x00000000000000000000000000000000000000000000000000001046a46c2d81",
                    "revert": false,
                    "revertMessage": "",
                    "selector": "0x70a08231",
                    "status": true,
                    "value": "0"
                },
                "nodeType": 0
            },
            "15": {
                "invocation": {
                    "address": "0xa2327a938febf5fec13bacfb16ae10ecbc4cbdcf",
                    "callData": "0x0000000000000000000000001116898dda4015ed8ddefb84b6e8bc24528af2d8",
                    "decodedMethod": {
                        "callParams": [
                            {
                                "name": "account",
                                "type": "address",
                                "value": "0x1116898dda4015ed8ddefb84b6e8bc24528af2d8"
                            }
                        ],
                        "constructorArguments": "",
                        "name": "balanceOf",
                        "returnParams": [
                            {
                                "decimalAvailable": true,
                                "name": "",
                                "type": "uint256",
                                "value": "17,895,592,308,097"
                            }
                        ],
                        "signature": "balanceOf(address)"
                    },
                    "errorInfo": "",
                    "fromAddress": "0xa0b86991c6218b36c1d19d4a2e9eb0ce3606eb48",
                    "gasUsed": 529,
                    "id": 15,
                    "methodDecoded": true,
                    "operation": "DELEGATECALL",
                    "output": "0x00000000000000000000000000000000000000000000000000001046a46c2d81",
                    "revert": false,
                    "revertMessage": "",
                    "selector": "0x70a08231",
                    "status": true,
                    "value": "0"
                },
                "nodeType": 0
            },
            "16": {
                "invocation": {
                    "address": "0x1b84765de8b7566e4ceaf4d0fd3c5af52d3dde4f",
                    "callData": "0x0000000000000000000000006571d6be3d8460cf5f7d6711cd9961860029d85f00000000000000000000000000000000000000000000006c462ea8737c643b6f",
                    "decodedMethod": {
                        "callParams": [
                            {
                                "name": "recipient",
                                "type": "address",
                                "value": "0x6571d6be3d8460cf5f7d6711cd9961860029d85f"
                            },
                            {
                                "name": "amount",
                                "type": "uint256",
                                "value": "1,997,305,524,606,176,869,231"
                            }
                        ],
                        "constructorArguments": "",
                        "name": "mint",
                        "returnParams": [],
                        "signature": "mint(address,uint256)"
                    },
                    "errorInfo": "",
                    "fromAddress": "0x1116898dda4015ed8ddefb84b6e8bc24528af2d8",
                    "gasUsed": 30070,
                    "id": 16,
                    "methodDecoded": true,
                    "operation": "CALL",
                    "output": "",
                    "revert": false,
                    "revertMessage": "",
                    "selector": "0x40c10f19",
                    "status": true,
                    "value": "0"
                },
                "nodeType": 0
            },
            "17": {
                "invocation": {
                    "address": "0x6c8c6e68604e78b549c96907bfe9ebdaac04e3b3",
                    "callData": "0x0000000000000000000000006571d6be3d8460cf5f7d6711cd9961860029d85f00000000000000000000000000000000000000000000006c462ea8737c643b6f",
                    "decodedMethod": {
                        "callParams": [
                            {
                                "name": "recipient",
                                "type": "address",
                                "value": "0x6571d6be3d8460cf5f7d6711cd9961860029d85f"
                            },
                            {
                                "name": "amount",
                                "type": "uint256",
                                "value": "1,997,305,524,606,176,869,231"
                            }
                        ],
                        "constructorArguments": "",
                        "name": "mint",
                        "returnParams": [],
                        "signature": "mint(address,uint256)"
                    },
                    "errorInfo": "",
                    "fromAddress": "0x1b84765de8b7566e4ceaf4d0fd3c5af52d3dde4f",
                    "gasUsed": 29895,
                    "id": 17,
                    "methodDecoded": true,
                    "operation": "DELEGATECALL",
                    "output": "",
                    "revert": false,
                    "revertMessage": "",
                    "selector": "0x40c10f19",
                    "status": true,
                    "value": "0"
                },
                "nodeType": 0
            },
            "18": {
                "event": {
                    "contract": "0x1b84765de8b7566e4ceaf4d0fd3c5af52d3dde4f",
                    "decodedLog": {
                        "name": "Transfer",
                        "params": [
                            {
                                "name": "from",
                                "type": "address",
                                "value": "0x0000000000000000000000000000000000000000"
                            },
                            {
                                "name": "to",
                                "type": "address",
                                "value": "0x6571d6be3d8460cf5f7d6711cd9961860029d85f"
                            },
                            {
                                "decimalAvailable": true,
                                "name": "value",
                                "type": "uint256",
                                "value": "1,997,305,524,606,176,869,231"
                            }
                        ],
                        "signature": "Transfer(address,address,uint256)"
                    },
                    "id": 18,
                    "logData": "0x00000000000000000000000000000000000000000000006c462ea8737c643b6f",
                    "logDecoded": true,
                    "operation": "EVENT",
                    "revert": false,
                    "status": true,
                    "topics": [
                        "0xddf252ad1be2c89b69c2b068fc378daa952ba7f163c4a11628f55a4df523b3ef",
                        "0x0000000000000000000000000000000000000000000000000000000000000000",
                        "0x0000000000000000000000006571d6be3d8460cf5f7d6711cd9961860029d85f"
                    ]
                },
                "nodeType": 1
            },
            "19": {
                "event": {
                    "contract": "0x1116898dda4015ed8ddefb84b6e8bc24528af2d8",
                    "decodedLog": {
                        "name": "AddLiquidity",
                        "params": [
                            {
                                "name": "provider",
                                "type": "address",
                                "value": "0x6571d6be3d8460cf5f7d6711cd9961860029d85f"
                            },
                            {
                                "name": "tokenAmounts",
                                "type": "uint256[]",
                                "value": [
                                    "0",
                                    "2,000,000,000",
                                    "0"
                                ]
                            },
                            {
                                "name": "fees",
                                "type": "uint256[]",
                                "value": [
                                    "28,491,673,133,508,150",
                                    "46,346",
                                    "17,849"
                                ]
                            },
                            {
                                "name": "invariant",
                                "type": "uint256",
                                "value": "46,825,656,967,156,639,609,895,323"
                            },
                            {
                                "name": "lpTokenSupply",
                                "type": "uint256",
                                "value": "46,768,497,339,575,906,666,242,920"
                            }
                        ],
                        "signature": "AddLiquidity(address,uint256[],uint256[],uint256,uint256)"
                    },
                    "id": 19,
                    "logData": "0x0000000000000000000000000000000000000000000000000000000000000080000000000000000000000000000000000000000000000000000000000000010000000000000000000000000000000000000000000026bbb7f35a099139fbb99b00000000000000000000000000000000000000000026af9d522b4193b24363680000000000000000000000000000000000000000000000000000000000000003000000000000000000000000000000000000000000000000000000000000000000000000000000000000000000000000000000000000000000000000773594000000000000000000000000000000000000000000000000000000000000000000000000000000000000000000000000000000000000000000000000000000000300000000000000000000000000000000000000000000000000653906982de636000000000000000000000000000000000000000000000000000000000000b50a00000000000000000000000000000000000000000000000000000000000045b9",
                    "logDecoded": true,
                    "operation": "EVENT",
                    "revert": false,
                    "status": true,
                    "topics": [
                        "0x189c623b666b1b45b83d7178f39b8c087cb09774317ca2f53c2d3c3726f222a2",
                        "0x0000000000000000000000006571d6be3d8460cf5f7d6711cd9961860029d85f"
                    ]
                },
                "nodeType": 1
            },
            "2": {
                "invocation": {
                    "address": "0xa2327a938febf5fec13bacfb16ae10ecbc4cbdcf",
                    "callData": "0x00000000000000000000000087bd5a0baddb682bee234ebeb771b33636ed56670000000000000000000000006571d6be3d8460cf5f7d6711cd9961860029d85f0000000000000000000000000000000000000000000000000000000077359400",
                    "decodedMethod": {
                        "callParams": [
                            {
                                "name": "from",
                                "type": "address",
                                "value": "0x87bd5a0baddb682bee234ebeb771b33636ed5667"
                            },
                            {
                                "name": "to",
                                "type": "address",
                                "value": "0x6571d6be3d8460cf5f7d6711cd9961860029d85f"
                            },
                            {
                                "decimalAvailable": true,
                                "name": "value",
                                "type": "uint256",
                                "value": "2,000,000,000"
                            }
                        ],
                        "constructorArguments": "",
                        "name": "transferFrom",
                        "returnParams": [
                            {
                                "name": "",
                                "type": "bool",
                                "value": true
                            }
                        ],
                        "signature": "transferFrom(address,address,uint256)"
                    },
                    "errorInfo": "",
                    "fromAddress": "0xa0b86991c6218b36c1d19d4a2e9eb0ce3606eb48",
                    "gasUsed": 42697,
                    "id": 2,
                    "methodDecoded": true,
                    "operation": "DELEGATECALL",
                    "output": "0x0000000000000000000000000000000000000000000000000000000000000001",
                    "revert": false,
                    "revertMessage": "",
                    "selector": "0x23b872dd",
                    "status": true,
                    "value": "0"
                },
                "nodeType": 0
            },
            "20": {
                "invocation": {
                    "address": "0x1b84765de8b7566e4ceaf4d0fd3c5af52d3dde4f",
                    "callData": "0x0000000000000000000000006571d6be3d8460cf5f7d6711cd9961860029d85f0000000000000000000000002796317b0ff8538f253012862c06787adfb8ceb6",
                    "decodedMethod": {
                        "callParams": [
                            {
                                "name": "owner",
                                "type": "address",
                                "value": "0x6571d6be3d8460cf5f7d6711cd9961860029d85f"
                            },
                            {
                                "name": "spender",
                                "type": "address",
                                "value": "0x2796317b0ff8538f253012862c06787adfb8ceb6"
                            }
                        ],
                        "constructorArguments": "",
                        "name": "allowance",
                        "returnParams": [
                            {
                                "decimalAvailable": true,
                                "name": "",
                                "type": "uint256",
                                "value": "115,792,089,237,316,195,423,570,985,008,687,907,853,269,984,665,639,840,823,873,812,831,459,587,569,806"
                            }
                        ],
                        "signature": "allowance(address,address)"
                    },
                    "errorInfo": "",
                    "fromAddress": "0x6571d6be3d8460cf5f7d6711cd9961860029d85f",
                    "gasUsed": 2770,
                    "id": 20,
                    "methodDecoded": true,
                    "operation": "STATICCALL",
                    "output": "0xfffffffffffffffffffffffffffffffffffffffffda9c524a51e73ac135eb88e",
                    "revert": false,
                    "revertMessage": "",
                    "selector": "0xdd62ed3e",
                    "status": true,
                    "value": "0"
                },
                "nodeType": 0
            },
            "21": {
                "invocation": {
                    "address": "0x6c8c6e68604e78b549c96907bfe9ebdaac04e3b3",
                    "callData": "0x0000000000000000000000006571d6be3d8460cf5f7d6711cd9961860029d85f0000000000000000000000002796317b0ff8538f253012862c06787adfb8ceb6",
                    "decodedMethod": {
                        "callParams": [
                            {
                                "name": "owner",
                                "type": "address",
                                "value": "0x6571d6be3d8460cf5f7d6711cd9961860029d85f"
                            },
                            {
                                "name": "spender",
                                "type": "address",
                                "value": "0x2796317b0ff8538f253012862c06787adfb8ceb6"
                            }
                        ],
                        "constructorArguments": "",
                        "name": "allowance",
                        "returnParams": [
                            {
                                "decimalAvailable": true,
                                "name": "",
                                "type": "uint256",
                                "value": "115,792,089,237,316,195,423,570,985,008,687,907,853,269,984,665,639,840,823,873,812,831,459,587,569,806"
                            }
                        ],
                        "signature": "allowance(address,address)"
                    },
                    "errorInfo": "",
                    "fromAddress": "0x1b84765de8b7566e4ceaf4d0fd3c5af52d3dde4f",
                    "gasUsed": 2592,
                    "id": 21,
                    "methodDecoded": true,
                    "operation": "DELEGATECALL",
                    "output": "0xfffffffffffffffffffffffffffffffffffffffffda9c524a51e73ac135eb88e",
                    "revert": false,
                    "revertMessage": "",
                    "selector": "0xdd62ed3e",
                    "status": true,
                    "value": "0"
                },
                "nodeType": 0
            },
            "22": {
                "invocation": {
                    "address": "0x2796317b0ff8538f253012862c06787adfb8ceb6",
                    "callData": "0x00000000000000000000000087bd5a0baddb682bee234ebeb771b33636ed5667000000000000000000000000000000000000000000000000000000000000a86a0000000000000000000000001b84765de8b7566e4ceaf4d0fd3c5af52d3dde4f00000000000000000000000000000000000000000000006c462ea8737c643b6f000000000000000000000000000000000000000000000000000000000000000000000000000000000000000000000000000000000000000000000000000000020000000000000000000000000000000000000000000000000000000076796d95000000000000000000000000000000000000000000000000000000006230d65a",
                    "decodedMethod": {
                        "callParams": [
                            {
                                "name": "to",
                                "type": "address",
                                "value": "0x87bd5a0baddb682bee234ebeb771b33636ed5667"
                            },
                            {
                                "name": "chainId",
                                "type": "uint256",
                                "value": "43,114"
                            },
                            {
                                "name": "token",
                                "type": "address",
                                "value": "0x1b84765de8b7566e4ceaf4d0fd3c5af52d3dde4f"
                            },
                            {
                                "name": "amount",
                                "type": "uint256",
                                "value": "1,997,305,524,606,176,869,231"
                            },
                            {
                                "name": "tokenIndexFrom",
                                "type": "uint8",
                                "value": "0"
                            },
                            {
                                "name": "tokenIndexTo",
                                "type": "uint8",
                                "value": "2"
                            },
                            {
                                "name": "minDy",
                                "type": "uint256",
                                "value": "1,987,669,397"
                            },
                            {
                                "name": "deadline",
                                "type": "uint256",
                                "value": "1,647,367,770"
                            }
                        ],
                        "constructorArguments": "",
                        "name": "depositAndSwap",
                        "returnParams": [],
                        "signature": "depositAndSwap(address,uint256,address,uint256,uint8,uint8,uint256,uint256)"
                    },
                    "errorInfo": "",
                    "fromAddress": "0x6571d6be3d8460cf5f7d6711cd9961860029d85f",
                    "gasUsed": 33465,
                    "id": 22,
                    "methodDecoded": true,
                    "operation": "CALL",
                    "output": "",
                    "revert": false,
                    "revertMessage": "",
                    "selector": "0xa2a2af0b",
                    "status": true,
                    "value": "0"
                },
                "nodeType": 0
            },
            "23": {
                "invocation": {
                    "address": "0x31fe393815822edacbd81c2262467402199efd0d",
                    "callData": "0x00000000000000000000000087bd5a0baddb682bee234ebeb771b33636ed5667000000000000000000000000000000000000000000000000000000000000a86a0000000000000000000000001b84765de8b7566e4ceaf4d0fd3c5af52d3dde4f00000000000000000000000000000000000000000000006c462ea8737c643b6f000000000000000000000000000000000000000000000000000000000000000000000000000000000000000000000000000000000000000000000000000000020000000000000000000000000000000000000000000000000000000076796d95000000000000000000000000000000000000000000000000000000006230d65a",
                    "decodedMethod": {
                        "callParams": [
                            {
                                "name": "to",
                                "type": "address",
                                "value": "0x87bd5a0baddb682bee234ebeb771b33636ed5667"
                            },
                            {
                                "name": "chainId",
                                "type": "uint256",
                                "value": "43,114"
                            },
                            {
                                "name": "token",
                                "type": "address",
                                "value": "0x1b84765de8b7566e4ceaf4d0fd3c5af52d3dde4f"
                            },
                            {
                                "name": "amount",
                                "type": "uint256",
                                "value": "1,997,305,524,606,176,869,231"
                            },
                            {
                                "name": "tokenIndexFrom",
                                "type": "uint8",
                                "value": "0"
                            },
                            {
                                "name": "tokenIndexTo",
                                "type": "uint8",
                                "value": "2"
                            },
                            {
                                "name": "minDy",
                                "type": "uint256",
                                "value": "1,987,669,397"
                            },
                            {
                                "name": "deadline",
                                "type": "uint256",
                                "value": "1,647,367,770"
                            }
                        ],
                        "constructorArguments": "",
                        "name": "depositAndSwap",
                        "returnParams": [],
                        "signature": "depositAndSwap(address,uint256,address,uint256,uint8,uint8,uint256,uint256)"
                    },
                    "errorInfo": "",
                    "fromAddress": "0x2796317b0ff8538f253012862c06787adfb8ceb6",
                    "gasUsed": 26232,
                    "id": 23,
                    "methodDecoded": true,
                    "operation": "DELEGATECALL",
                    "output": "",
                    "revert": false,
                    "revertMessage": "",
                    "selector": "0xa2a2af0b",
                    "status": true,
                    "value": "0"
                },
                "nodeType": 0
            },
            "24": {
                "event": {
                    "contract": "0x2796317b0ff8538f253012862c06787adfb8ceb6",
                    "decodedLog": {
                        "name": "TokenDepositAndSwap",
                        "params": [
                            {
                                "name": "to",
                                "type": "address",
                                "value": "0x87bd5a0baddb682bee234ebeb771b33636ed5667"
                            },
                            {
                                "name": "chainId",
                                "type": "uint256",
                                "value": "43,114"
                            },
                            {
                                "name": "token",
                                "type": "address",
                                "value": "0x1b84765de8b7566e4ceaf4d0fd3c5af52d3dde4f"
                            },
                            {
                                "name": "amount",
                                "type": "uint256",
                                "value": "1,997,305,524,606,176,869,231"
                            },
                            {
                                "name": "tokenIndexFrom",
                                "type": "uint8",
                                "value": "0"
                            },
                            {
                                "name": "tokenIndexTo",
                                "type": "uint8",
                                "value": "2"
                            },
                            {
                                "name": "minDy",
                                "type": "uint256",
                                "value": "1,987,669,397"
                            },
                            {
                                "name": "deadline",
                                "type": "uint256",
                                "value": "1,647,367,770"
                            }
                        ],
                        "signature": "TokenDepositAndSwap(address,uint256,address,uint256,uint8,uint8,uint256,uint256)"
                    },
                    "id": 24,
                    "logData": "0x000000000000000000000000000000000000000000000000000000000000a86a0000000000000000000000001b84765de8b7566e4ceaf4d0fd3c5af52d3dde4f00000000000000000000000000000000000000000000006c462ea8737c643b6f000000000000000000000000000000000000000000000000000000000000000000000000000000000000000000000000000000000000000000000000000000020000000000000000000000000000000000000000000000000000000076796d95000000000000000000000000000000000000000000000000000000006230d65a",
                    "logDecoded": true,
                    "operation": "EVENT",
                    "revert": false,
                    "status": true,
                    "topics": [
                        "0x79c15604b92ef54d3f61f0c40caab8857927ca3d5092367163b4562c1699eb5f",
                        "0x00000000000000000000000087bd5a0baddb682bee234ebeb771b33636ed5667"
                    ]
                },
                "nodeType": 1
            },
            "25": {
                "invocation": {
                    "address": "0x1b84765de8b7566e4ceaf4d0fd3c5af52d3dde4f",
                    "callData": "0x0000000000000000000000006571d6be3d8460cf5f7d6711cd9961860029d85f0000000000000000000000002796317b0ff8538f253012862c06787adfb8ceb600000000000000000000000000000000000000000000006c462ea8737c643b6f",
                    "decodedMethod": {
                        "callParams": [
                            {
                                "name": "sender",
                                "type": "address",
                                "value": "0x6571d6be3d8460cf5f7d6711cd9961860029d85f"
                            },
                            {
                                "name": "recipient",
                                "type": "address",
                                "value": "0x2796317b0ff8538f253012862c06787adfb8ceb6"
                            },
                            {
                                "decimalAvailable": true,
                                "name": "amount",
                                "type": "uint256",
                                "value": "1,997,305,524,606,176,869,231"
                            }
                        ],
                        "constructorArguments": "",
                        "name": "transferFrom",
                        "returnParams": [
                            {
                                "name": "",
                                "type": "bool",
                                "value": true
                            }
                        ],
                        "signature": "transferFrom(address,address,uint256)"
                    },
                    "errorInfo": "",
                    "fromAddress": "0x2796317b0ff8538f253012862c06787adfb8ceb6",
                    "gasUsed": 13777,
                    "id": 25,
                    "methodDecoded": true,
                    "operation": "CALL",
                    "output": "0x0000000000000000000000000000000000000000000000000000000000000001",
                    "revert": false,
                    "revertMessage": "",
                    "selector": "0x23b872dd",
                    "status": true,
                    "value": "0"
                },
                "nodeType": 0
            },
            "26": {
                "invocation": {
                    "address": "0x6c8c6e68604e78b549c96907bfe9ebdaac04e3b3",
                    "callData": "0x0000000000000000000000006571d6be3d8460cf5f7d6711cd9961860029d85f0000000000000000000000002796317b0ff8538f253012862c06787adfb8ceb600000000000000000000000000000000000000000000006c462ea8737c643b6f",
                    "decodedMethod": {
                        "callParams": [
                            {
                                "name": "sender",
                                "type": "address",
                                "value": "0x6571d6be3d8460cf5f7d6711cd9961860029d85f"
                            },
                            {
                                "name": "recipient",
                                "type": "address",
                                "value": "0x2796317b0ff8538f253012862c06787adfb8ceb6"
                            },
                            {
                                "decimalAvailable": true,
                                "name": "amount",
                                "type": "uint256",
                                "value": "1,997,305,524,606,176,869,231"
                            }
                        ],
                        "constructorArguments": "",
                        "name": "transferFrom",
                        "returnParams": [
                            {
                                "name": "",
                                "type": "bool",
                                "value": true
                            }
                        ],
                        "signature": "transferFrom(address,address,uint256)"
                    },
                    "errorInfo": "",
                    "fromAddress": "0x1b84765de8b7566e4ceaf4d0fd3c5af52d3dde4f",
                    "gasUsed": 13593,
                    "id": 26,
                    "methodDecoded": true,
                    "operation": "DELEGATECALL",
                    "output": "0x0000000000000000000000000000000000000000000000000000000000000001",
                    "revert": false,
                    "revertMessage": "",
                    "selector": "0x23b872dd",
                    "status": true,
                    "value": "0"
                },
                "nodeType": 0
            },
            "27": {
                "event": {
                    "contract": "0x1b84765de8b7566e4ceaf4d0fd3c5af52d3dde4f",
                    "decodedLog": {
                        "name": "Transfer",
                        "params": [
                            {
                                "name": "from",
                                "type": "address",
                                "value": "0x6571d6be3d8460cf5f7d6711cd9961860029d85f"
                            },
                            {
                                "name": "to",
                                "type": "address",
                                "value": "0x2796317b0ff8538f253012862c06787adfb8ceb6"
                            },
                            {
                                "decimalAvailable": true,
                                "name": "value",
                                "type": "uint256",
                                "value": "1,997,305,524,606,176,869,231"
                            }
                        ],
                        "signature": "Transfer(address,address,uint256)"
                    },
                    "id": 27,
                    "logData": "0x00000000000000000000000000000000000000000000006c462ea8737c643b6f",
                    "logDecoded": true,
                    "operation": "EVENT",
                    "revert": false,
                    "status": true,
                    "topics": [
                        "0xddf252ad1be2c89b69c2b068fc378daa952ba7f163c4a11628f55a4df523b3ef",
                        "0x0000000000000000000000006571d6be3d8460cf5f7d6711cd9961860029d85f",
                        "0x0000000000000000000000002796317b0ff8538f253012862c06787adfb8ceb6"
                    ]
                },
                "nodeType": 1
            },
            "28": {
                "event": {
                    "contract": "0x1b84765de8b7566e4ceaf4d0fd3c5af52d3dde4f",
                    "decodedLog": {
                        "name": "Approval",
                        "params": [
                            {
                                "name": "owner",
                                "type": "address",
                                "value": "0x6571d6be3d8460cf5f7d6711cd9961860029d85f"
                            },
                            {
                                "name": "spender",
                                "type": "address",
                                "value": "0x2796317b0ff8538f253012862c06787adfb8ceb6"
                            },
                            {
                                "decimalAvailable": true,
                                "name": "value",
                                "type": "uint256",
                                "value": "115,792,089,237,316,195,423,570,985,008,687,907,853,269,984,665,639,840,821,876,507,306,853,410,700,575"
                            }
                        ],
                        "signature": "Approval(address,address,uint256)"
                    },
                    "id": 28,
                    "logData": "0xfffffffffffffffffffffffffffffffffffffffffda9c4b85eefcb3896fa7d1f",
                    "logDecoded": true,
                    "operation": "EVENT",
                    "revert": false,
                    "status": true,
                    "topics": [
                        "0x8c5be1e5ebec7d5bd14f71427d1e84f3dd0314c0f7b2291e5b200ac8c7c3b925",
                        "0x0000000000000000000000006571d6be3d8460cf5f7d6711cd9961860029d85f",
                        "0x0000000000000000000000002796317b0ff8538f253012862c06787adfb8ceb6"
                    ]
                },
                "nodeType": 1
            },
            "3": {
                "event": {
                    "contract": "0xa0b86991c6218b36c1d19d4a2e9eb0ce3606eb48",
                    "decodedLog": {
                        "name": "Transfer",
                        "params": [
                            {
                                "name": "from",
                                "type": "address",
                                "value": "0x87bd5a0baddb682bee234ebeb771b33636ed5667"
                            },
                            {
                                "name": "to",
                                "type": "address",
                                "value": "0x6571d6be3d8460cf5f7d6711cd9961860029d85f"
                            },
                            {
                                "decimalAvailable": true,
                                "name": "value",
                                "type": "uint256",
                                "value": "2,000,000,000"
                            }
                        ],
                        "signature": "Transfer(address,address,uint256)"
                    },
                    "id": 3,
                    "logData": "0x0000000000000000000000000000000000000000000000000000000077359400",
                    "logDecoded": true,
                    "operation": "EVENT",
                    "revert": false,
                    "status": true,
                    "topics": [
                        "0xddf252ad1be2c89b69c2b068fc378daa952ba7f163c4a11628f55a4df523b3ef",
                        "0x00000000000000000000000087bd5a0baddb682bee234ebeb771b33636ed5667",
                        "0x0000000000000000000000006571d6be3d8460cf5f7d6711cd9961860029d85f"
                    ]
                },
                "nodeType": 1
            },
            "4": {
                "invocation": {
                    "address": "0x1116898dda4015ed8ddefb84b6e8bc24528af2d8",
                    "callData": "0x00000000000000000000000000000000000000000000000000000000000000600000000000000000000000000000000000000000000000000000000076f88b0000000000000000000000000000000000000000000000000000000000622f87320000000000000000000000000000000000000000000000000000000000000003000000000000000000000000000000000000000000000000000000000000000000000000000000000000000000000000000000000000000000000000773594000000000000000000000000000000000000000000000000000000000000000000",
                    "decodedMethod": {
                        "callParams": [
                            {
                                "name": "amounts",
                                "type": "uint256[]",
                                "value": [
                                    "0",
                                    "2,000,000,000",
                                    "0"
                                ]
                            },
                            {
                                "name": "minToMint",
                                "type": "uint256",
                                "value": "1,996,000,000"
                            },
                            {
                                "name": "deadline",
                                "type": "uint256",
                                "value": "1,647,281,970"
                            }
                        ],
                        "constructorArguments": "",
                        "name": "addLiquidity",
                        "returnParams": [
                            {
                                "name": "",
                                "type": "uint256",
                                "value": "1,997,305,524,606,176,869,231"
                            }
                        ],
                        "signature": "addLiquidity(uint256[],uint256,uint256)"
                    },
                    "errorInfo": "",
                    "fromAddress": "0x6571d6be3d8460cf5f7d6711cd9961860029d85f",
                    "gasUsed": 167328,
                    "id": 4,
                    "methodDecoded": true,
                    "operation": "CALL",
                    "output": "0x00000000000000000000000000000000000000000000006c462ea8737c643b6f",
                    "revert": false,
                    "revertMessage": "",
                    "selector": "0x4d49e87d",
                    "status": true,
                    "value": "0"
                },
                "nodeType": 0
            },
            "5": {
                "invocation": {
                    "address": "0x5a5fff6f753d7c11a56a52fe47a177a87e431655",
                    "callData": "0x00000000000000000000000000000000000000000000000000000000000000600000000000000000000000000000000000000000000000000000000076f88b0000000000000000000000000000000000000000000000000000000000622f87320000000000000000000000000000000000000000000000000000000000000003000000000000000000000000000000000000000000000000000000000000000000000000000000000000000000000000000000000000000000000000773594000000000000000000000000000000000000000000000000000000000000000000",
                    "decodedMethod": {
                        "callParams": [
                            {
                                "name": "amounts",
                                "type": "uint256[]",
                                "value": [
                                    "0",
                                    "2,000,000,000",
                                    "0"
                                ]
                            },
                            {
                                "name": "minToMint",
                                "type": "uint256",
                                "value": "1,996,000,000"
                            },
                            {
                                "name": "deadline",
                                "type": "uint256",
                                "value": "1,647,281,970"
                            }
                        ],
                        "constructorArguments": "",
                        "name": "addLiquidity",
                        "returnParams": [
                            {
                                "name": "",
                                "type": "uint256",
                                "value": "1,997,305,524,606,176,869,231"
                            }
                        ],
                        "signature": "addLiquidity(uint256[],uint256,uint256)"
                    },
                    "errorInfo": "",
                    "fromAddress": "0x1116898dda4015ed8ddefb84b6e8bc24528af2d8",
                    "gasUsed": 164620,
                    "id": 5,
                    "methodDecoded": true,
                    "operation": "DELEGATECALL",
                    "output": "0x00000000000000000000000000000000000000000000006c462ea8737c643b6f",
                    "revert": false,
                    "revertMessage": "",
                    "selector": "0x4d49e87d",
                    "status": true,
                    "value": "0"
                },
                "nodeType": 0
            },
            "6": {
                "invocation": {
                    "address": "0x11199a9ee50127f335b84a1eeb961d8a85147f5f",
                    "callData": "0x00000000000000000000000000000000000000000000000000000000000000c900000000000000000000000000000000000000000000000000000000000000600000000000000000000000000000000000000000000000000000000076f88b000000000000000000000000000000000000000000000000000000000000000003000000000000000000000000000000000000000000000000000000000000000000000000000000000000000000000000000000000000000000000000773594000000000000000000000000000000000000000000000000000000000000000000",
                    "decodedMethod": null,
                    "errorInfo": "",
                    "fromAddress": "0x1116898dda4015ed8ddefb84b6e8bc24528af2d8",
                    "gasUsed": 153659,
                    "id": 6,
                    "methodDecoded": false,
                    "operation": "DELEGATECALL",
                    "output": "0x00000000000000000000000000000000000000000000006c462ea8737c643b6f",
                    "revert": false,
                    "revertMessage": "",
                    "selector": "0x40370edf",
                    "status": true,
                    "value": "0"
                },
                "nodeType": 0
            },
            "7": {
                "invocation": {
                    "address": "0x1b84765de8b7566e4ceaf4d0fd3c5af52d3dde4f",
                    "callData": "0x",
                    "decodedMethod": {
                        "callParams": [],
                        "constructorArguments": "",
                        "name": "totalSupply",
                        "returnParams": [
                            {
                                "name": "",
                                "type": "uint256",
                                "value": "46,766,500,034,051,300,489,373,689"
                            }
                        ],
                        "signature": "totalSupply()"
                    },
                    "errorInfo": "",
                    "fromAddress": "0x1116898dda4015ed8ddefb84b6e8bc24528af2d8",
                    "gasUsed": 5032,
                    "id": 7,
                    "methodDecoded": true,
                    "operation": "STATICCALL",
                    "output": "0x00000000000000000000000000000000000000000026af310bfc992035df27f9",
                    "revert": false,
                    "revertMessage": "",
                    "selector": "0x18160ddd",
                    "status": true,
                    "value": "0"
                },
                "nodeType": 0
            },
            "8": {
                "invocation": {
                    "address": "0x6c8c6e68604e78b549c96907bfe9ebdaac04e3b3",
                    "callData": "0x",
                    "decodedMethod": {
                        "callParams": [],
                        "constructorArguments": "",
                        "name": "totalSupply",
                        "returnParams": [
                            {
                                "name": "",
                                "type": "uint256",
                                "value": "46,766,500,034,051,300,489,373,689"
                            }
                        ],
                        "signature": "totalSupply()"
                    },
                    "errorInfo": "",
                    "fromAddress": "0x1b84765de8b7566e4ceaf4d0fd3c5af52d3dde4f",
                    "gasUsed": 2366,
                    "id": 8,
                    "methodDecoded": true,
                    "operation": "DELEGATECALL",
                    "output": "0x00000000000000000000000000000000000000000026af310bfc992035df27f9",
                    "revert": false,
                    "revertMessage": "",
                    "selector": "0x18160ddd",
                    "status": true,
                    "value": "0"
                },
                "nodeType": 0
            },
            "9": {
                "invocation": {
                    "address": "0xa0b86991c6218b36c1d19d4a2e9eb0ce3606eb48",
                    "callData": "0x0000000000000000000000001116898dda4015ed8ddefb84b6e8bc24528af2d8",
                    "decodedMethod": {
                        "callParams": [
                            {
                                "name": "account",
                                "type": "address",
                                "value": "0x1116898dda4015ed8ddefb84b6e8bc24528af2d8"
                            }
                        ],
                        "constructorArguments": "",
                        "name": "balanceOf",
                        "returnParams": [
                            {
                                "decimalAvailable": true,
                                "name": "",
                                "type": "uint256",
                                "value": "17,893,592,308,097"
                            }
                        ],
                        "signature": "balanceOf(address)"
                    },
                    "errorInfo": "",
                    "fromAddress": "0x1116898dda4015ed8ddefb84b6e8bc24528af2d8",
                    "gasUsed": 3315,
                    "id": 9,
                    "methodDecoded": true,
                    "operation": "STATICCALL",
                    "output": "0x000000000000000000000000000000000000000000000000000010462d369981",
                    "revert": false,
                    "revertMessage": "",
                    "selector": "0x70a08231",
                    "status": true,
                    "value": "0"
                },
                "nodeType": 0
            }
        },
        "gasFlame": [
            {
                "children": [
                    {
                        "children": [
                            {
                                "children": [],
                                "depth": 0,
                                "name": "Initial Gas",
                                "value": 23624
                            },
                            {
                                "children": [
                                    {
                                        "children": [
                                            {
                                                "children": [],
                                                "depth": 2,
                                                "name": "transferFrom",
                                                "value": 42697
                                            }
                                        ],
                                        "depth": 1,
                                        "name": "transferFrom",
                                        "value": 49992
                                    },
                                    {
                                        "children": [
                                            {
                                                "children": [
                                                    {
                                                        "children": [
                                                            {
                                                                "children": [
                                                                    {
                                                                        "children": [],
                                                                        "depth": 5,
                                                                        "name": "totalSupply",
                                                                        "value": 2366
                                                                    }
                                                                ],
                                                                "depth": 4,
                                                                "name": "totalSupply",
                                                                "value": 5032
                                                            },
                                                            {
                                                                "children": [
                                                                    {
                                                                        "children": [],
                                                                        "depth": 5,
                                                                        "name": "balanceOf",
                                                                        "value": 2529
                                                                    }
                                                                ],
                                                                "depth": 4,
                                                                "name": "balanceOf",
                                                                "value": 3315
                                                            },
                                                            {
                                                                "children": [
                                                                    {
                                                                        "children": [],
                                                                        "depth": 5,
                                                                        "name": "transferFrom",
                                                                        "value": 14797
                                                                    }
                                                                ],
                                                                "depth": 4,
                                                                "name": "transferFrom",
                                                                "value": 15592
                                                            },
                                                            {
                                                                "children": [
                                                                    {
                                                                        "children": [],
                                                                        "depth": 5,
                                                                        "name": "balanceOf",
                                                                        "value": 529
                                                                    }
                                                                ],
                                                                "depth": 4,
                                                                "name": "balanceOf",
                                                                "value": 1315
                                                            },
                                                            {
                                                                "children": [
                                                                    {
                                                                        "children": [],
                                                                        "depth": 5,
                                                                        "name": "mint",
                                                                        "value": 29895
                                                                    }
                                                                ],
                                                                "depth": 4,
                                                                "name": "mint",
                                                                "value": 30070
                                                            }
                                                        ],
                                                        "depth": 3,
                                                        "name": "0x40370edf",
                                                        "value": 153659
                                                    }
                                                ],
                                                "depth": 2,
                                                "name": "addLiquidity",
                                                "value": 164620
                                            }
                                        ],
                                        "depth": 1,
                                        "name": "addLiquidity",
                                        "value": 167328
                                    },
                                    {
                                        "children": [
                                            {
                                                "children": [],
                                                "depth": 2,
                                                "name": "allowance",
                                                "value": 2592
                                            }
                                        ],
                                        "depth": 1,
                                        "name": "allowance",
                                        "value": 2770
                                    },
                                    {
                                        "children": [
                                            {
                                                "children": [
                                                    {
                                                        "children": [
                                                            {
                                                                "children": [],
                                                                "depth": 4,
                                                                "name": "transferFrom",
                                                                "value": 13593
                                                            }
                                                        ],
                                                        "depth": 3,
                                                        "name": "transferFrom",
                                                        "value": 13777
                                                    }
                                                ],
                                                "depth": 2,
                                                "name": "depositAndSwap",
                                                "value": 26232
                                            }
                                        ],
                                        "depth": 1,
                                        "name": "depositAndSwap",
                                        "value": 33465
                                    }
                                ],
                                "depth": 0,
                                "name": "Executed Gas",
                                "value": 274200
                            }
                        ],
                        "depth": -1,
                        "name": "Actual Gas Used",
                        "value": 252424
                    },
                    {
                        "children": [],
                        "depth": -1,
                        "name": "Refunded Gas",
                        "value": 45400
                    }
                ],
                "depth": -2,
                "name": "Total Gas",
                "value": 297824
            }
        ],
        "isConfirmed": true,
        "mainTrace": [
            {
                "children": [
                    {
                        "children": [
                            {
                                "children": [
                                    {
                                        "children": [
                                            {
                                                "children": [],
                                                "depth": 3,
                                                "id": 3,
                                                "order": 3
                                            }
                                        ],
                                        "depth": 2,
                                        "id": 2,
                                        "order": 2
                                    }
                                ],
                                "depth": 1,
                                "id": 1,
                                "order": 1
                            },
                            {
                                "children": [
                                    {
                                        "children": [
                                            {
                                                "children": [
                                                    {
                                                        "children": [
                                                            {
                                                                "children": [],
                                                                "depth": 5,
                                                                "id": 8,
                                                                "order": 8
                                                            }
                                                        ],
                                                        "depth": 4,
                                                        "id": 7,
                                                        "order": 7
                                                    },
                                                    {
                                                        "children": [
                                                            {
                                                                "children": [],
                                                                "depth": 5,
                                                                "id": 10,
                                                                "order": 10
                                                            }
                                                        ],
                                                        "depth": 4,
                                                        "id": 9,
                                                        "order": 9
                                                    },
                                                    {
                                                        "children": [
                                                            {
                                                                "children": [
                                                                    {
                                                                        "children": [],
                                                                        "depth": 6,
                                                                        "id": 13,
                                                                        "order": 13
                                                                    }
                                                                ],
                                                                "depth": 5,
                                                                "id": 12,
                                                                "order": 12
                                                            }
                                                        ],
                                                        "depth": 4,
                                                        "id": 11,
                                                        "order": 11
                                                    },
                                                    {
                                                        "children": [
                                                            {
                                                                "children": [],
                                                                "depth": 5,
                                                                "id": 15,
                                                                "order": 15
                                                            }
                                                        ],
                                                        "depth": 4,
                                                        "id": 14,
                                                        "order": 14
                                                    },
                                                    {
                                                        "children": [
                                                            {
                                                                "children": [
                                                                    {
                                                                        "children": [],
                                                                        "depth": 6,
                                                                        "id": 18,
                                                                        "order": 18
                                                                    }
                                                                ],
                                                                "depth": 5,
                                                                "id": 17,
                                                                "order": 17
                                                            }
                                                        ],
                                                        "depth": 4,
                                                        "id": 16,
                                                        "order": 16
                                                    },
                                                    {
                                                        "children": [],
                                                        "depth": 4,
                                                        "id": 19,
                                                        "order": 19
                                                    }
                                                ],
                                                "depth": 3,
                                                "id": 6,
                                                "order": 6
                                            }
                                        ],
                                        "depth": 2,
                                        "id": 5,
                                        "order": 5
                                    }
                                ],
                                "depth": 1,
                                "id": 4,
                                "order": 4
                            },
                            {
                                "children": [
                                    {
                                        "children": [],
                                        "depth": 2,
                                        "id": 21,
                                        "order": 21
                                    }
                                ],
                                "depth": 1,
                                "id": 20,
                                "order": 20
                            },
                            {
                                "children": [
                                    {
                                        "children": [
                                            {
                                                "children": [],
                                                "depth": 3,
                                                "id": 24,
                                                "order": 24
                                            },
                                            {
                                                "children": [
                                                    {
                                                        "children": [
                                                            {
                                                                "children": [],
                                                                "depth": 5,
                                                                "id": 27,
                                                                "order": 27
                                                            },
                                                            {
                                                                "children": [],
                                                                "depth": 5,
                                                                "id": 28,
                                                                "order": 28
                                                            }
                                                        ],
                                                        "depth": 4,
                                                        "id": 26,
                                                        "order": 26
                                                    }
                                                ],
                                                "depth": 3,
                                                "id": 25,
                                                "order": 25
                                            }
                                        ],
                                        "depth": 2,
                                        "id": 23,
                                        "order": 23
                                    }
                                ],
                                "depth": 1,
                                "id": 22,
                                "order": 22
                            }
                        ],
                        "depth": 0,
                        "id": 0,
                        "order": 0
                    }
                ],
                "depth": -1,
                "id": -1,
                "order": -1
            }
        ],
        "mainTraceNodeCount": 29,
        "parentIdMap": {
            "0": -1,
            "1": 0,
            "10": 9,
            "11": 6,
            "12": 11,
            "13": 12,
            "14": 6,
            "15": 14,
            "16": 6,
            "17": 16,
            "18": 17,
            "19": 6,
            "2": 1,
            "20": 0,
            "21": 20,
            "22": 0,
            "23": 22,
            "24": 23,
            "25": 23,
            "26": 25,
            "27": 26,
            "28": 26,
            "3": 2,
            "4": 0,
            "5": 4,
            "6": 5,
            "7": 6,
            "8": 7,
            "9": 6
        },
        "tidyTrace": [
            {
                "children": [
                    {
                        "children": [
                            {
                                "children": [
                                    {
                                        "children": [
                                            {
                                                "children": [],
                                                "depth": 3,
                                                "id": 3,
                                                "order": 3
                                            }
                                        ],
                                        "depth": 2,
                                        "id": 2,
                                        "order": 2
                                    }
                                ],
                                "depth": 1,
                                "id": 1,
                                "order": 1
                            },
                            {
                                "children": [
                                    {
                                        "children": [
                                            {
                                                "children": [
                                                    {
                                                        "children": [
                                                            {
                                                                "children": [
                                                                    {
                                                                        "children": [],
                                                                        "depth": 6,
                                                                        "id": 13,
                                                                        "order": 13
                                                                    }
                                                                ],
                                                                "depth": 5,
                                                                "id": 12,
                                                                "order": 12
                                                            }
                                                        ],
                                                        "depth": 4,
                                                        "id": 11,
                                                        "order": 11
                                                    },
                                                    {
                                                        "children": [
                                                            {
                                                                "children": [
                                                                    {
                                                                        "children": [],
                                                                        "depth": 6,
                                                                        "id": 18,
                                                                        "order": 18
                                                                    }
                                                                ],
                                                                "depth": 5,
                                                                "id": 17,
                                                                "order": 17
                                                            }
                                                        ],
                                                        "depth": 4,
                                                        "id": 16,
                                                        "order": 16
                                                    },
                                                    {
                                                        "children": [],
                                                        "depth": 4,
                                                        "id": 19,
                                                        "order": 19
                                                    }
                                                ],
                                                "depth": 3,
                                                "id": 6,
                                                "order": 6
                                            }
                                        ],
                                        "depth": 2,
                                        "id": 5,
                                        "order": 5
                                    }
                                ],
                                "depth": 1,
                                "id": 4,
                                "order": 4
                            },
                            {
                                "children": [
                                    {
                                        "children": [
                                            {
                                                "children": [],
                                                "depth": 3,
                                                "id": 24,
                                                "order": 24
                                            },
                                            {
                                                "children": [
                                                    {
                                                        "children": [
                                                            {
                                                                "children": [],
                                                                "depth": 5,
                                                                "id": 27,
                                                                "order": 27
                                                            },
                                                            {
                                                                "children": [],
                                                                "depth": 5,
                                                                "id": 28,
                                                                "order": 28
                                                            }
                                                        ],
                                                        "depth": 4,
                                                        "id": 26,
                                                        "order": 26
                                                    }
                                                ],
                                                "depth": 3,
                                                "id": 25,
                                                "order": 25
                                            }
                                        ],
                                        "depth": 2,
                                        "id": 23,
                                        "order": 23
                                    }
                                ],
                                "depth": 1,
                                "id": 22,
                                "order": 22
                            }
                        ],
                        "depth": 0,
                        "id": 0,
                        "order": 0
                    }
                ],
                "depth": -1,
                "id": -1,
                "order": -1
            }
        ],
        "tidyTraceNodeCount": 21
    },
    "state_change": {
        "stateChanges": [
            {
                "address": "0x1116898dda4015ed8ddefb84b6e8bc24528af2d8",
                "erc": "",
                "slots": [
                    {
                        "current": "0x0000000000000000000000000000000000000000000eb70395a06afd39ba760e",
                        "key": "0xf2192e1030363415d7b4fb0406540a0060e8e2fc8982f3f32289379e11fa6546",
                        "prev": "0x0000000000000000000000000000000000000000000eb7039605a403d1e85c44"
                    },
                    {
                        "current": "0x00000000000000000000000000000000000000000000000000001045ef5f447d",
                        "key": "0xf2192e1030363415d7b4fb0406540a0060e8e2fc8982f3f32289379e11fa6547",
                        "prev": "0x00000000000000000000000000000000000000000000000000001045782a6587"
                    },
                    {
                        "current": "0x00000000000000000000000000000000000000000000000000000a22c497a399",
                        "key": "0xf2192e1030363415d7b4fb0406540a0060e8e2fc8982f3f32289379e11fa6548",
                        "prev": "0x00000000000000000000000000000000000000000000000000000a22c497e952"
                    }
                ],
                "storageVariables": []
            },
            {
                "address": "0x1b84765de8b7566e4ceaf4d0fd3c5af52d3dde4f",
                "erc": "ERC-20",
                "slots": [
                    {
                        "current": "0x00000000000000000000000000000000000000000026af9d522b4193b2436368",
                        "key": "0x0000000000000000000000000000000000000000000000000000000000000035",
                        "prev": "0x00000000000000000000000000000000000000000026af310bfc992035df27f9"
                    },
                    {
                        "current": "0x0000000000000000000000000000000000000000002697843fd33cdc56780850",
                        "key": "0xf5fe63b84456eb64f66476d51fe0acb5662424f5aef434b3dda156cb4a4dc817",
                        "prev": "0x000000000000000000000000000000000000000000269717f9a49468da13cce1"
                    },
                    {
                        "current": "0xfffffffffffffffffffffffffffffffffffffffffda9c4b85eefcb3896fa7d1f",
                        "key": "0x170ff87352ab37c01f1dfe9dc0a0e20779ca78527478941ddb6675db0072ff9c",
                        "prev": "0xfffffffffffffffffffffffffffffffffffffffffda9c524a51e73ac135eb88e"
                    }
                ],
                "storageVariables": [
                    {
                        "name": "_allowances",
                        "type": "mapping(address => mapping(address => uint256))",
                        "value": {
                            "pairs": [
                                {
                                    "key": "0x6571d6be3d8460cf5f7d6711cd9961860029d85f",
                                    "value": {
                                        "pairs": [
                                            {
                                                "key": "0x2796317b0ff8538f253012862c06787adfb8ceb6",
                                                "value": {
                                                    "current": "115792089237316195423570985008687907853269984665639840821876507306853410700575",
                                                    "prev": "115792089237316195423570985008687907853269984665639840823873812831459587569806",
                                                    "typeTag": 1
                                                }
                                            }
                                        ],
                                        "typeTag": 4
                                    }
                                }
                            ],
                            "typeTag": 4
                        }
                    },
                    {
                        "name": "_totalSupply",
                        "type": "uint256",
                        "value": {
                            "current": "46768497339575906666242920",
                            "prev": "46766500034051300489373689",
                            "typeTag": 1
                        }
                    },
                    {
                        "name": "_balances",
                        "type": "mapping(address => uint256)",
                        "value": {
                            "pairs": [
                                {
                                    "key": "0x2796317b0ff8538f253012862c06787adfb8ceb6",
                                    "value": {
                                        "current": "46654698053573516243503184",
                                        "prev": "46652700748048910066633953",
                                        "typeTag": 1
                                    }
                                }
                            ],
                            "typeTag": 4
                        }
                    }
                ]
            },
            {
                "address": "0xa0b86991c6218b36c1d19d4a2e9eb0ce3606eb48",
                "erc": "ERC-20",
                "slots": [
                    {
                        "current": "0x00000000000000000000000000000000000000000000000000000000773c1ab7",
                        "key": "0x5c797757e6f401b283980acd169c60c346fe8a8533f8026f2f91d38cd0964dd2",
                        "prev": "0x00000000000000000000000000000000000000000000000000000000ee71aeb7"
                    },
                    {
                        "current": "0x000000000000000000000000000000000000000000000000000000001dcd6500",
                        "key": "0xb7394a534383b3ea6a872fddd3ea6ca76a057257466ea8a7880de6120ee1b719",
                        "prev": "0x000000000000000000000000000000000000000000000000000000009502f900"
                    },
                    {
                        "current": "0x00000000000000000000000000000000000000000000000000001046a46c2d81",
                        "key": "0x6fdfda878d67c4aa958ad6cffdbbbb6352a1897d2a7bace8757d47dc134499b5",
                        "prev": "0x000000000000000000000000000000000000000000000000000010462d369981"
                    },
                    {
                        "current": "0xfffffffffffffffffffffffffffffffffffffffffffffffffffe1cbd6a830347",
                        "key": "0x0563b0f64683442ee4e97ac1a3fb2984669d7f1e8f9bc385c16a2f70258d7e93",
                        "prev": "0xfffffffffffffffffffffffffffffffffffffffffffffffffffe1cbde1b89747"
                    }
                ],
                "storageVariables": [
                    {
                        "name": "allowed",
                        "type": "mapping(address => mapping(address => uint256))",
                        "value": {
                            "pairs": [
                                {
                                    "key": "0x6571d6be3d8460cf5f7d6711cd9961860029d85f",
                                    "value": {
                                        "pairs": [
                                            {
                                                "key": "0x1116898dda4015ed8ddefb84b6e8bc24528af2d8",
                                                "value": {
                                                    "current": "115792089237316195423570985008687907853269984665640564039457583476563037586247",
                                                    "prev": "115792089237316195423570985008687907853269984665640564039457583476565037586247",
                                                    "typeTag": 1
                                                }
                                            }
                                        ],
                                        "typeTag": 4
                                    }
                                },
                                {
                                    "key": "0x87bd5a0baddb682bee234ebeb771b33636ed5667",
                                    "value": {
                                        "pairs": [
                                            {
                                                "key": "0x6571d6be3d8460cf5f7d6711cd9961860029d85f",
                                                "value": {
                                                    "current": "500000000",
                                                    "prev": "2500000000",
                                                    "typeTag": 1
                                                }
                                            }
                                        ],
                                        "typeTag": 4
                                    }
                                }
                            ],
                            "typeTag": 4
                        }
                    },
                    {
                        "name": "balances",
                        "type": "mapping(address => uint256)",
                        "value": {
                            "pairs": [
                                {
                                    "key": "0x1116898dda4015ed8ddefb84b6e8bc24528af2d8",
                                    "value": {
                                        "current": "17895592308097",
                                        "prev": "17893592308097",
                                        "typeTag": 1
                                    }
                                },
                                {
                                    "key": "0x87bd5a0baddb682bee234ebeb771b33636ed5667",
                                    "value": {
                                        "current": "2000427703",
                                        "prev": "4000427703",
                                        "typeTag": 1
                                    }
                                }
                            ],
                            "typeTag": 4
                        }
                    }
                ]
            }
        ]
    }
}