{
    "balance_change": {
        "balanceChanges": [
            {
                "account": "0xb7f830845e9f385372ae6fb160aa968908f5bfbc",
                "assets": [
                    {
                        "address": "0x95ad61b0a150d79219dcf64e1e6cc01f0b64c4ce",
                        "amount": "601,539.94395397",
                        "iconUrl": "https://assets.blocksec.com/icon/56235cdcac277d59ed89deae8cb8e206f4c4384e75186903e74565b748deabf5.png",
                        "isERC1155": false,
                        "isERC721": false,
                        "sign": false,
                        "value": "4.90268761"
                    }
                ]
            },
            {
                "account": "0xbdcb30933e2743ef5b303580e6c1f0c9922e10ed",
                "assets": [
                    {
                        "address": "0x95ad61b0a150d79219dcf64e1e6cc01f0b64c4ce",
                        "amount": "601,539.94395397",
                        "iconUrl": "https://assets.blocksec.com/icon/56235cdcac277d59ed89deae8cb8e206f4c4384e75186903e74565b748deabf5.png",
                        "isERC1155": false,
                        "isERC721": false,
                        "sign": true,
                        "value": "4.90268761"
                    }
                ]
            }
        ]
    },
    "profile": {
        "basic_info": {
            "baseFee": "",
            "blockNumber": 12953286,
            "callData": "0xa9059cbb000000000000000000000000bdcb30933e2743ef5b303580e6c1f0c9922e10ed000000000000000000000000000000000000000000007f618bb33aeb7f577400",
            "debugEnable": true,
            "errorInfo": "",
            "eventCount": 1,
            "feeRecipient": "0xea674fdde714fd979de3edf0f56aa9716b898ec8",
            "formatValue": "0",
            "gasLimit": 34795,
            "gasPrice": "53",
            "gasUsed": 34795,
            "intTxnCount": 0,
            "internalRevert": false,
            "internalRevertMessage": "",
            "isContractCreation": false,
            "isFlashloan": false,
            "maxFee": "",
            "nonce": 90614,
            "overwritedBlockNumber": -1,
            "priorityFee": "",
            "receiver": "0x95ad61b0a150d79219dcf64e1e6cc01f0b64c4ce",
            "revertMessage": "",
            "sender": "0xb7f830845e9f385372ae6fb160aa968908f5bfbc",
            "simulationEnable": true,
            "sourceTxnHash": "0x9f8dbe6787947a0d60670fa2ee7198c01a9b1bbd0b05a953fb449b552d9c979a",
            "status": true,
            "timestamp": "2021-08-03T16:12:07Z",
            "transactionFee": "0.001844135",
            "txnHash": "0x9f8dbe6787947a0d60670fa2ee7198c01a9b1bbd0b05a953fb449b552d9c979a",
            "txnIndex": 187,
            "type": 0,
            "value": "0"
        },
        "fund_flow": [
            {
                "amount": "601,539.94395397",
                "from": "0xb7f830845e9f385372ae6fb160aa968908f5bfbc",
                "id": 1,
                "isERC1155": false,
                "isERC721": false,
                "isReverted": false,
                "order": 1,
                "to": "0xbdcb30933e2743ef5b303580e6c1f0c9922e10ed",
                "token": "0x95ad61b0a150d79219dcf64e1e6cc01f0b64c4ce"
            }
        ],
        "token_infos": [
            {
                "address": "0x95ad61b0a150d79219dcf64e1e6cc01f0b64c4ce",
                "decimals": 18
            },
            {
                "address": "0xc02aaa39b223fe8d0a0e5c4f27ead9083c756cc2",
                "decimals": 18
            },
            {
                "address": "0xeeeeeeeeeeeeeeeeeeeeeeeeeeeeeeeeeeeeeeee",
                "decimals": 18
            }
        ]
    },
    "address_label": {
        "labels": [
            {
                "address": "0x0000000000000000000000000000000000000001",
                "label": "Precompiled"
            },
            {
                "address": "0x0000000000000000000000000000000000000002",
                "label": "Precompiled"
            },
            {
                "address": "0x0000000000000000000000000000000000000003",
                "label": "Precompiled"
            },
            {
                "address": "0x0000000000000000000000000000000000000004",
                "label": "Precompiled"
            },
            {
                "address": "0xeeeeeeeeeeeeeeeeeeeeeeeeeeeeeeeeeeeeeeee",
                "label": "Ether"
            },
            {
                "address": "0x95ad61b0a150d79219dcf64e1e6cc01f0b64c4ce",
                "label": "Shiba Inu: SHIB Token"
            },
            {
                "address": "0xbdcb30933e2743ef5b303580e6c1f0c9922e10ed",
                "label": "BINANCE"
            }
        ]
    },
    "trace": {
        "accountLabels": null,
        "dataMap": {
            "-1": {
                "invocation": {
                    "address": "0xb7f830845e9f385372ae6fb160aa968908f5bfbc",
                    "callData": "",
                    "decodedMethod": null,
                    "errorInfo": "",
                    "fromAddress": "",
                    "gasUsed": 0,
                    "id": -1,
                    "methodDecoded": false,
                    "operation": "",
                    "output": "",
                    "revert": false,
                    "revertMessage": "",
                    "selector": "",
                    "status": false,
                    "value": ""
                },
                "nodeType": 0
            },
            "0": {
                "invocation": {
                    "address": "0x95ad61b0a150d79219dcf64e1e6cc01f0b64c4ce",
                    "callData": "0x000000000000000000000000bdcb30933e2743ef5b303580e6c1f0c9922e10ed000000000000000000000000000000000000000000007f618bb33aeb7f577400",
                    "decodedMethod": {
                        "callParams": [
                            {
                                "name": "recipient",
                                "type": "address",
                                "value": "0xbdcb30933e2743ef5b303580e6c1f0c9922e10ed"
                            },
                            {
                                "decimalAvailable": true,
                                "name": "amount",
                                "type": "uint256",
                                "value": "601,539,943,953,970,000,000,000"
                            }
                        ],
                        "constructorArguments": "",
                        "name": "transfer",
                        "returnParams": [
                            {
                                "name": "",
                                "type": "bool",
                                "value": true
                            }
                        ],
                        "signature": "transfer(address,uint256)"
                    },
                    "errorInfo": "",
                    "fromAddress": "0xb7f830845e9f385372ae6fb160aa968908f5bfbc",
                    "gasUsed": 34795,
                    "id": 0,
                    "methodDecoded": true,
                    "operation": "CALL",
                    "output": "0x0000000000000000000000000000000000000000000000000000000000000001",
                    "revert": false,
                    "revertMessage": "",
                    "selector": "0xa9059cbb",
                    "status": true,
                    "value": "0"
                },
                "nodeType": 0
            },
            "1": {
                "event": {
                    "contract": "0x95ad61b0a150d79219dcf64e1e6cc01f0b64c4ce",
                    "decodedLog": {
                        "name": "Transfer",
                        "params": [
                            {
                                "name": "from",
                                "type": "address",
                                "value": "0xb7f830845e9f385372ae6fb160aa968908f5bfbc"
                            },
                            {
                                "name": "to",
                                "type": "address",
                                "value": "0xbdcb30933e2743ef5b303580e6c1f0c9922e10ed"
                            },
                            {
                                "decimalAvailable": true,
                                "name": "value",
                                "type": "uint256",
                                "value": "601,539,943,953,970,000,000,000"
                            }
                        ],
                        "signature": "Transfer(address,address,uint256)"
                    },
                    "id": 1,
                    "logData": "0x000000000000000000000000000000000000000000007f618bb33aeb7f577400",
                    "logDecoded": true,
                    "operation": "EVENT",
                    "revert": false,
                    "status": true,
                    "topics": [
                        "0xddf252ad1be2c89b69c2b068fc378daa952ba7f163c4a11628f55a4df523b3ef",
                        "0x000000000000000000000000b7f830845e9f385372ae6fb160aa968908f5bfbc",
                        "0x000000000000000000000000bdcb30933e2743ef5b303580e6c1f0c9922e10ed"
                    ]
                },
                "nodeType": 1
            }
        },
        "gasFlame": [
            {
                "children": [
                    {
                        "children": [
                            {
                                "children": [],
                                "depth": 0,
                                "name": "Initial Gas",
                                "value": 21668
                            },
                            {
                                "children": [],
                                "depth": 0,
                                "name": "Executed Gas",
                                "value": 13127
                            }
                        ],
                        "depth": -1,
                        "name": "Actual Gas Used",
                        "value": 34795
                    },
                    {
                        "children": [],
                        "depth": -1,
                        "name": "Refunded Gas",
                        "value": 0
                    }
                ],
                "depth": -2,
                "name": "Total Gas",
                "value": 34795
            }
        ],
        "isConfirmed": true,
        "mainTrace": [
            {
                "children": [
                    {
                        "children": [
                            {
                                "children": [],
                                "depth": 1,
                                "id": 1,
                                "order": 1
                            }
                        ],
                        "depth": 0,
                        "id": 0,
                        "order": 0
                    }
                ],
                "depth": -1,
                "id": -1,
                "order": -1
            }
        ],
        "mainTraceNodeCount": 2,
        "parentIdMap": {
            "0": -1,
            "1": 0
        },
        "tidyTrace": [
            {
                "children": [
                    {
                        "children": [
                            {
                                "children": [],
                                "depth": 1,
                                "id": 1,
                                "order": 1
                            }
                        ],
                        "depth": 0,
                        "id": 0,
                        "order": 0
                    }
                ],
                "depth": -1,
                "id": -1,
                "order": -1
            }
        ],
        "tidyTraceNodeCount": 2
    },
    "state_change": {
        "stateChanges": [
            {
                "address": "0x95ad61b0a150d79219dcf64e1e6cc01f0b64c4ce",
                "erc": "ERC-20",
                "slots": [
                    {
                        "current": "0x00000000000000000000000000000000000000000086bfaacb31d61ba2129800",
                        "key": "0x4fb61ca843b26532b8f1c65c60c62580f7a27249f5ba9cab5610e6043422ebb9",
                        "prev": "0x000000000000000000000000000000000000000000873f0c56e51107216a0c00"
                    },
                    {
                        "current": "0x0000000000000000000000000000000000000000000298ee35269474d91c6c00",
                        "key": "0x588e846a6f95816b79c0838987466473e7c545f97df007d6b144053d6ebaee59",
                        "prev": "0x00000000000000000000000000000000000000000002198ca973598959c4f800"
                    }
                ],
                "storageVariables": [
                    {
                        "name": "_balances",
                        "type": "mapping(address => uint256)",
                        "value": {
                            "pairs": [
                                {
                                    "key": "0xb7f830845e9f385372ae6fb160aa968908f5bfbc",
                                    "value": {
                                        "current": "162901182414800220000000000",
                                        "prev": "163502722358754190000000000",
                                        "typeTag": 1
                                    }
                                },
                                {
                                    "key": "0xbdcb30933e2743ef5b303580e6c1f0c9922e10ed",
                                    "value": {
                                        "current": "3140045499626750000000000",
                                        "prev": "2538505555672780000000000",
                                        "typeTag": 1
                                    }
                                }
                            ],
                            "typeTag": 4
                        }
                    }
                ]
            }
        ]
    }
}