{
    "balance_change": {
        "balanceChanges": [
            {
                "account": "0x5f3cb118b93237b2b0ec7205ec43807e5d4d63e6",
                "assets": [
                    {
                        "address": "0xeeeeeeeeeeeeeeeeeeeeeeeeeeeeeeeeeeeeeeee",
                        "amount": "2.45",
                        "iconUrl": "https://assets.blocksec.com/image/1663669189317-3.png",
                        "isERC1155": false,
                        "isERC721": false,
                        "sign": false,
                        "value": "4177.45825"
                    }
                ]
            },
            {
                "account": "0xcda72070e455bb31c7690a170224ce43623d0b6f",
                "assets": [
                    {
                        "address": "0xeeeeeeeeeeeeeeeeeeeeeeeeeeeeeeeeeeeeeeee",
                        "amount": "0.25",
                        "iconUrl": "https://assets.blocksec.com/image/1663669189317-3.png",
                        "isERC1155": false,
                        "isERC721": false,
                        "sign": true,
                        "value": "426.27125"
                    }
                ]
            },
            {
                "account": "0x484a12a27e8c95718e0b60d14369bfeaa426aff3",
                "assets": [
                    {
                        "address": "0xeeeeeeeeeeeeeeeeeeeeeeeeeeeeeeeeeeeeeeee",
                        "amount": "2.2",
                        "iconUrl": "https://assets.blocksec.com/image/1663669189317-3.png",
                        "isERC1155": false,
                        "isERC721": false,
                        "sign": true,
                        "value": "3751.187"
                    }
                ]
            }
        ]
    },
    "profile": {
        "basic_info": {
            "baseFee": "",
            "blockNumber": 12095449,
            "callData": "0x9979ef450000000000000000000000000000000000000000000000000000000000002a67",
            "debugEnable": true,
            "errorInfo": "",
            "eventCount": 1,
            "feeRecipient": "0xc8f595e2084db484f8a80109101d58625223b7c9",
            "formatValue": "2.45",
            "gasLimit": 69424,
            "gasPrice": "111",
            "gasUsed": 62543,
            "intTxnCount": 2,
            "internalRevert": false,
            "internalRevertMessage": "",
            "isContractCreation": false,
            "isFlashloan": false,
            "maxFee": "",
            "nonce": 250,
            "overwritedBlockNumber": -1,
            "priorityFee": "",
            "receiver": "0xcda72070e455bb31c7690a170224ce43623d0b6f",
            "revertMessage": "",
            "sender": "0x5f3cb118b93237b2b0ec7205ec43807e5d4d63e6",
            "simulationEnable": true,
            "sourceTxnHash": "0x9f029055108f4bf961fb61817b8e18ae0a6a6422f4b743225135397bd2fc5b87",
            "status": true,
            "timestamp": "2021-03-23T13:32:43Z",
            "transactionFee": "0.006942273",
            "txnHash": "0x9f029055108f4bf961fb61817b8e18ae0a6a6422f4b743225135397bd2fc5b87",
            "txnIndex": 35,
            "type": 0,
            "value": "2450000000000000000"
        },
        "fund_flow": [
            {
                "amount": "2.45",
                "from": "0x5f3cb118b93237b2b0ec7205ec43807e5d4d63e6",
                "id": 1,
                "isERC1155": false,
                "isERC721": false,
                "isReverted": false,
                "order": 1,
                "to": "0xcda72070e455bb31c7690a170224ce43623d0b6f",
                "token": "0xeeeeeeeeeeeeeeeeeeeeeeeeeeeeeeeeeeeeeeee"
            },
            {
                "amount": "2.2",
                "from": "0xcda72070e455bb31c7690a170224ce43623d0b6f",
                "id": 2,
                "isERC1155": false,
                "isERC721": false,
                "isReverted": false,
                "order": 2,
                "to": "0x484a12a27e8c95718e0b60d14369bfeaa426aff3",
                "token": "0xeeeeeeeeeeeeeeeeeeeeeeeeeeeeeeeeeeeeeeee"
            }
        ],
        "token_infos": [
            {
                "address": "0xc02aaa39b223fe8d0a0e5c4f27ead9083c756cc2",
                "decimals": 18
            },
            {
                "address": "0xeeeeeeeeeeeeeeeeeeeeeeeeeeeeeeeeeeeeeeee",
                "decimals": 18
            }
        ]
    },
    "address_label": {
        "labels": [
            {
                "address": "0x0000000000000000000000000000000000000003",
                "label": "Precompiled"
            },
            {
                "address": "0x0000000000000000000000000000000000000004",
                "label": "Precompiled"
            },
            {
                "address": "0xeeeeeeeeeeeeeeeeeeeeeeeeeeeeeeeeeeeeeeee",
                "label": "Ether"
            },
            {
                "address": "0xcda72070e455bb31c7690a170224ce43623d0b6f",
                "label": "Foundation: Market"
            },
            {
                "address": "0x0000000000000000000000000000000000000001",
                "label": "Precompiled"
            },
            {
                "address": "0x0000000000000000000000000000000000000002",
                "label": "Precompiled"
            }
        ]
    },
    "trace": {
        "accountLabels": null,
        "dataMap": {
            "-1": {
                "invocation": {
                    "address": "0x5f3cb118b93237b2b0ec7205ec43807e5d4d63e6",
                    "callData": "",
                    "decodedMethod": null,
                    "errorInfo": "",
                    "fromAddress": "",
                    "gasUsed": 0,
                    "id": -1,
                    "methodDecoded": false,
                    "operation": "",
                    "output": "",
                    "revert": false,
                    "revertMessage": "",
                    "selector": "",
                    "status": false,
                    "value": ""
                },
                "nodeType": 0
            },
            "0": {
                "invocation": {
                    "address": "0xcda72070e455bb31c7690a170224ce43623d0b6f",
                    "callData": "0x0000000000000000000000000000000000000000000000000000000000002a67",
                    "decodedMethod": {
                        "callParams": [
                            {
                                "name": "auctionId",
                                "type": "uint256",
                                "value": "10,855"
                            }
                        ],
                        "constructorArguments": "",
                        "name": "placeBid",
                        "returnParams": [],
                        "signature": "placeBid(uint256)"
                    },
                    "errorInfo": "",
                    "fromAddress": "0x5f3cb118b93237b2b0ec7205ec43807e5d4d63e6",
                    "gasUsed": 62543,
                    "id": 0,
                    "methodDecoded": true,
                    "operation": "CALL",
                    "output": "",
                    "revert": false,
                    "revertMessage": "",
                    "selector": "0x9979ef45",
                    "status": true,
                    "value": "2.45"
                },
                "nodeType": 0
            },
            "1": {
                "invocation": {
                    "address": "0xd61b9032250ee321ef480203e41b938c2a2ac132",
                    "callData": "0x0000000000000000000000000000000000000000000000000000000000002a67",
                    "decodedMethod": {
                        "callParams": [
                            {
                                "name": "auctionId",
                                "type": "uint256",
                                "value": "10,855"
                            }
                        ],
                        "constructorArguments": "",
                        "name": "placeBid",
                        "returnParams": [],
                        "signature": "placeBid(uint256)"
                    },
                    "errorInfo": "",
                    "fromAddress": "0xcda72070e455bb31c7690a170224ce43623d0b6f",
                    "gasUsed": 38554,
                    "id": 1,
                    "methodDecoded": true,
                    "operation": "DELEGATECALL",
                    "output": "",
                    "revert": false,
                    "revertMessage": "",
                    "selector": "0x9979ef45",
                    "status": true,
                    "value": "2.45"
                },
                "nodeType": 0
            },
            "2": {
                "invocation": {
                    "address": "0x484a12a27e8c95718e0b60d14369bfeaa426aff3",
                    "callData": "0x",
                    "decodedMethod": null,
                    "errorInfo": "",
                    "fromAddress": "0xcda72070e455bb31c7690a170224ce43623d0b6f",
                    "gasUsed": 0,
                    "id": 2,
                    "methodDecoded": false,
                    "operation": "CALL",
                    "output": "",
                    "revert": false,
                    "revertMessage": "",
                    "selector": "fallback",
                    "status": true,
                    "value": "2.2"
                },
                "nodeType": 0
            },
            "3": {
                "event": {
                    "contract": "0xcda72070e455bb31c7690a170224ce43623d0b6f",
                    "decodedLog": {
                        "name": "ReserveAuctionBidPlaced",
                        "params": [
                            {
                                "name": "auctionId",
                                "type": "uint256",
                                "value": "10,855"
                            },
                            {
                                "name": "bidder",
                                "type": "address",
                                "value": "0x5f3cb118b93237b2b0ec7205ec43807e5d4d63e6"
                            },
                            {
                                "name": "amount",
                                "type": "uint256",
                                "value": "2,450,000,000,000,000,000"
                            },
                            {
                                "name": "endTime",
                                "type": "uint256",
                                "value": "1,616,507,263"
                            }
                        ],
                        "signature": "ReserveAuctionBidPlaced(uint256,address,uint256,uint256)"
                    },
                    "id": 3,
                    "logData": "0x00000000000000000000000000000000000000000000000022002604f3b50000000000000000000000000000000000000000000000000000000000006059f17f",
                    "logDecoded": true,
                    "operation": "EVENT",
                    "revert": false,
                    "status": true,
                    "topics": [
                        "0x26ea3ebbda62eb1baef13e1c237dddd956c87f80b2801f2616d806d52557b121",
                        "0x0000000000000000000000000000000000000000000000000000000000002a67",
                        "0x0000000000000000000000005f3cb118b93237b2b0ec7205ec43807e5d4d63e6"
                    ]
                },
                "nodeType": 1
            }
        },
        "gasFlame": [
            {
                "children": [
                    {
                        "children": [
                            {
                                "children": [],
                                "depth": 0,
                                "name": "Initial Gas",
                                "value": 21216
                            },
                            {
                                "children": [
                                    {
                                        "children": [
                                            {
                                                "children": [],
                                                "depth": 2,
                                                "name": "fallback",
                                                "value": 0
                                            }
                                        ],
                                        "depth": 1,
                                        "name": "placeBid",
                                        "value": 38554
                                    }
                                ],
                                "depth": 0,
                                "name": "Executed Gas",
                                "value": 41327
                            }
                        ],
                        "depth": -1,
                        "name": "Actual Gas Used",
                        "value": 62543
                    },
                    {
                        "children": [],
                        "depth": -1,
                        "name": "Refunded Gas",
                        "value": 0
                    }
                ],
                "depth": -2,
                "name": "Total Gas",
                "value": 62543
            }
        ],
        "isConfirmed": true,
        "mainTrace": [
            {
                "children": [
                    {
                        "children": [
                            {
                                "children": [
                                    {
                                        "children": [],
                                        "depth": 2,
                                        "id": 2,
                                        "order": 2
                                    },
                                    {
                                        "children": [],
                                        "depth": 2,
                                        "id": 3,
                                        "order": 3
                                    }
                                ],
                                "depth": 1,
                                "id": 1,
                                "order": 1
                            }
                        ],
                        "depth": 0,
                        "id": 0,
                        "order": 0
                    }
                ],
                "depth": -1,
                "id": -1,
                "order": -1
            }
        ],
        "mainTraceNodeCount": 4,
        "parentIdMap": {
            "0": -1,
            "1": 0,
            "2": 1,
            "3": 1
        },
        "tidyTrace": [
            {
                "children": [
                    {
                        "children": [
                            {
                                "children": [
                                    {
                                        "children": [],
                                        "depth": 2,
                                        "id": 2,
                                        "order": 2
                                    },
                                    {
                                        "children": [],
                                        "depth": 2,
                                        "id": 3,
                                        "order": 3
                                    }
                                ],
                                "depth": 1,
                                "id": 1,
                                "order": 1
                            }
                        ],
                        "depth": 0,
                        "id": 0,
                        "order": 0
                    }
                ],
                "depth": -1,
                "id": -1,
                "order": -1
            }
        ],
        "tidyTraceNodeCount": 4
    },
    "state_change": {
        "stateChanges": [
            {
                "address": "0xcda72070e455bb31c7690a170224ce43623d0b6f",
                "erc": "",
                "slots": [
                    {
                        "current": "0x00000000000000000000000000000000000000000000000022002604f3b50000",
                        "key": "0xf7e91ef732bbbd3ae3fd29a4c343705af7af81ee03041c95c11e16383b468c7f",
                        "prev": "0x0000000000000000000000000000000000000000000000001e87f85809dc0000"
                    },
                    {
                        "current": "0x0000000000000000000000005f3cb118b93237b2b0ec7205ec43807e5d4d63e6",
                        "key": "0xf7e91ef732bbbd3ae3fd29a4c343705af7af81ee03041c95c11e16383b468c7e",
                        "prev": "0x000000000000000000000000484a12a27e8c95718e0b60d14369bfeaa426aff3"
                    },
                    {
                        "current": "0x000000000000000000000000000000000000000000000000000000006059f17f",
                        "key": "0xf7e91ef732bbbd3ae3fd29a4c343705af7af81ee03041c95c11e16383b468c7d",
                        "prev": "0x000000000000000000000000000000000000000000000000000000006059f04b"
                    }
                ],
                "storageVariables": []
            }
        ]
    }
}