{
    "balance_change": {
        "balanceChanges": [
            {
                "account": "0x0000000000000000000000000000000000000000",
                "assets": [
                    {
                        "address": "0x78b7fada55a64dd895d8c8c35779dd8b67fa8a05",
                        "amount": "892.613588040847348125",
                        "iconUrl": "https://assets.blocksec.com/icon/3de62bb3e63a883f754c33d1a91cb7d53ea76fc265f1cbddfa24463b71d0b906.png",
                        "isERC1155": false,
                        "isERC721": false,
                        "sign": false,
                        "value": ""
                    }
                ]
            },
            {
                "account": "0xa9cd27f51cca37fffa87f3967f9046fd612f4ce8",
                "assets": [
                    {
                        "address": "0x78b7fada55a64dd895d8c8c35779dd8b67fa8a05",
                        "amount": "892.613588040847348125",
                        "iconUrl": "https://assets.blocksec.com/icon/3de62bb3e63a883f754c33d1a91cb7d53ea76fc265f1cbddfa24463b71d0b906.png",
                        "isERC1155": false,
                        "isERC721": false,
                        "sign": true,
                        "value": ""
                    }
                ]
            }
        ]
    },
    "profile": {
        "basic_info": {
            "baseFee": "",
            "blockNumber": 4463756,
            "callData": "0x229ddd9a000000000000000000000000a9cd27f51cca37fffa87f3967f9046fd612f4ce8000000000000000000000000000000000000000000000028b9201b80286965a30000000000000000000000000000000000000000000000000000000000000060000000000000000000000000000000000000000000000000000000000000004064646534336562336231356433353531333665666266353665396135643435623339663630636563663733396538623937393433656661663235663732306562",
            "debugEnable": true,
            "errorInfo": "",
            "eventCount": 2,
            "feeRecipient": "0xea674fdde714fd979de3edf0f56aa9716b898ec8",
            "formatValue": "0",
            "gasLimit": 53830,
            "gasPrice": "8",
            "gasUsed": 53830,
            "intTxnCount": 1,
            "internalRevert": false,
            "internalRevertMessage": "",
            "isContractCreation": false,
            "isFlashloan": false,
            "maxFee": "",
            "nonce": 4498,
            "overwritedBlockNumber": -1,
            "priorityFee": "",
            "receiver": "0xf46ede17c0bab20d87cd079a2632f71433a407b9",
            "revertMessage": "",
            "sender": "0x80e4568c84678367c30efa125bdd9ab6d65f2216",
            "simulationEnable": true,
            "sourceTxnHash": "0xa0caf82b74bcf0b874ddbf50c2840bce7a040fa330a690da56074d0a2ddc4d9d",
            "status": true,
            "timestamp": "2017-10-31T11:32:18Z",
            "transactionFee": "0.00043064",
            "txnHash": "0xa0caf82b74bcf0b874ddbf50c2840bce7a040fa330a690da56074d0a2ddc4d9d",
            "txnIndex": 49,
            "type": 0,
            "value": "0"
        },
        "fund_flow": [
            {
                "amount": "892.613588040847348125",
                "from": "0x0000000000000000000000000000000000000000",
                "id": 1,
                "isERC1155": false,
                "isERC721": false,
                "isReverted": false,
                "order": 1,
                "to": "0xa9cd27f51cca37fffa87f3967f9046fd612f4ce8",
                "token": "0x78b7fada55a64dd895d8c8c35779dd8b67fa8a05"
            }
        ],
        "token_infos": [
            {
                "address": "0xeeeeeeeeeeeeeeeeeeeeeeeeeeeeeeeeeeeeeeee",
                "decimals": 18
            },
            {
                "address": "0x78b7fada55a64dd895d8c8c35779dd8b67fa8a05",
                "decimals": 18
            },
            {
                "address": "0xc02aaa39b223fe8d0a0e5c4f27ead9083c756cc2",
                "decimals": 18
            }
        ]
    },
    "address_label": {
        "labels": [
            {
                "address": "0x0000000000000000000000000000000000000004",
                "label": "Precompiled"
            },
            {
                "address": "0xeeeeeeeeeeeeeeeeeeeeeeeeeeeeeeeeeeeeeeee",
                "label": "Ether"
            },
            {
                "address": "0xf46ede17c0bab20d87cd079a2632f71433a407b9",
                "label": "Atlant: Token Sale"
            },
            {
                "address": "0x78b7fada55a64dd895d8c8c35779dd8b67fa8a05",
                "label": "Atlant: ATL Token"
            },
            {
                "address": "0x0000000000000000000000000000000000000001",
                "label": "Precompiled"
            },
            {
                "address": "0x0000000000000000000000000000000000000002",
                "label": "Precompiled"
            },
            {
                "address": "0x0000000000000000000000000000000000000003",
                "label": "Precompiled"
            }
        ]
    },
    "trace": {
        "accountLabels": null,
        "dataMap": {
            "-1": {
                "invocation": {
                    "address": "0x80e4568c84678367c30efa125bdd9ab6d65f2216",
                    "callData": "",
                    "decodedMethod": null,
                    "errorInfo": "",
                    "fromAddress": "",
                    "gasUsed": 0,
                    "id": -1,
                    "methodDecoded": false,
                    "operation": "",
                    "output": "",
                    "revert": false,
                    "revertMessage": "",
                    "selector": "",
                    "status": false,
                    "value": ""
                },
                "nodeType": 0
            },
            "0": {
                "invocation": {
                    "address": "0xf46ede17c0bab20d87cd079a2632f71433a407b9",
                    "callData": "0x000000000000000000000000a9cd27f51cca37fffa87f3967f9046fd612f4ce8000000000000000000000000000000000000000000000028b9201b80286965a30000000000000000000000000000000000000000000000000000000000000060000000000000000000000000000000000000000000000000000000000000004064646534336562336231356433353531333665666266353665396135643435623339663630636563663733396538623937393433656661663235663732306562",
                    "decodedMethod": {
                        "callParams": [
                            {
                                "name": "_investor",
                                "type": "address",
                                "value": "0xa9cd27f51cca37fffa87f3967f9046fd612f4ce8"
                            },
                            {
                                "name": "_atlValue",
                                "type": "uint256",
                                "value": "751,209,455,281,901,233,571"
                            },
                            {
                                "name": "_txHash",
                                "type": "string",
                                "value": "dde43eb3b15d355136efbf56e9a5d45b39f60cecf739e8b97943efaf25f720eb"
                            }
                        ],
                        "constructorArguments": "",
                        "name": "foreignBuy",
                        "returnParams": [],
                        "signature": "foreignBuy(address,uint256,string)"
                    },
                    "errorInfo": "",
                    "fromAddress": "0x80e4568c84678367c30efa125bdd9ab6d65f2216",
                    "gasUsed": 53830,
                    "id": 0,
                    "methodDecoded": true,
                    "operation": "CALL",
                    "output": "",
                    "revert": false,
                    "revertMessage": "",
                    "selector": "0x229ddd9a",
                    "status": true,
                    "value": "0"
                },
                "nodeType": 0
            },
            "1": {
                "invocation": {
                    "address": "0x78b7fada55a64dd895d8c8c35779dd8b67fa8a05",
                    "callData": "0x000000000000000000000000a9cd27f51cca37fffa87f3967f9046fd612f4ce80000000000000000000000000000000000000000000000306380810dbd92519d",
                    "decodedMethod": {
                        "callParams": [
                            {
                                "name": "_holder",
                                "type": "address",
                                "value": "0xa9cd27f51cca37fffa87f3967f9046fd612f4ce8"
                            },
                            {
                                "name": "_value",
                                "type": "uint256",
                                "value": "892,613,588,040,847,348,125"
                            }
                        ],
                        "constructorArguments": "",
                        "name": "mint",
                        "returnParams": [],
                        "signature": "mint(address,uint256)"
                    },
                    "errorInfo": "",
                    "fromAddress": "0xf46ede17c0bab20d87cd079a2632f71433a407b9",
                    "gasUsed": 13272,
                    "id": 1,
                    "methodDecoded": true,
                    "operation": "CALL",
                    "output": "",
                    "revert": false,
                    "revertMessage": "",
                    "selector": "0x40c10f19",
                    "status": true,
                    "value": "0"
                },
                "nodeType": 0
            },
            "2": {
                "event": {
                    "contract": "0x78b7fada55a64dd895d8c8c35779dd8b67fa8a05",
                    "decodedLog": {
                        "name": "Transfer",
                        "params": [
                            {
                                "name": "from",
                                "type": "address",
                                "value": "0x0000000000000000000000000000000000000000"
                            },
                            {
                                "name": "to",
                                "type": "address",
                                "value": "0xa9cd27f51cca37fffa87f3967f9046fd612f4ce8"
                            },
                            {
                                "decimalAvailable": true,
                                "name": "value",
                                "type": "uint256",
                                "value": "892,613,588,040,847,348,125"
                            }
                        ],
                        "signature": "Transfer(address,address,uint256)"
                    },
                    "id": 2,
                    "logData": "0x0000000000000000000000000000000000000000000000306380810dbd92519d",
                    "logDecoded": true,
                    "operation": "EVENT",
                    "revert": false,
                    "status": true,
                    "topics": [
                        "0xddf252ad1be2c89b69c2b068fc378daa952ba7f163c4a11628f55a4df523b3ef",
                        "0x0000000000000000000000000000000000000000000000000000000000000000",
                        "0x000000000000000000000000a9cd27f51cca37fffa87f3967f9046fd612f4ce8"
                    ]
                },
                "nodeType": 1
            },
            "3": {
                "event": {
                    "contract": "0xf46ede17c0bab20d87cd079a2632f71433a407b9",
                    "decodedLog": {
                        "name": "ForeignBuy",
                        "params": [
                            {
                                "name": "holder",
                                "type": "address",
                                "value": "0xa9cd27f51cca37fffa87f3967f9046fd612f4ce8"
                            },
                            {
                                "name": "atlValue",
                                "type": "uint256",
                                "value": "892,613,588,040,847,348,125"
                            },
                            {
                                "name": "txHash",
                                "type": "string",
                                "value": "dde43eb3b15d355136efbf56e9a5d45b39f60cecf739e8b97943efaf25f720eb"
                            }
                        ],
                        "signature": "ForeignBuy(address,uint256,string)"
                    },
                    "id": 3,
                    "logData": "0x000000000000000000000000a9cd27f51cca37fffa87f3967f9046fd612f4ce80000000000000000000000000000000000000000000000306380810dbd92519d0000000000000000000000000000000000000000000000000000000000000060000000000000000000000000000000000000000000000000000000000000004064646534336562336231356433353531333665666266353665396135643435623339663630636563663733396538623937393433656661663235663732306562",
                    "logDecoded": true,
                    "operation": "EVENT",
                    "revert": false,
                    "status": true,
                    "topics": [
                        "0x051c6c5895a9354c55035535c5395df37fcf8d0df19ae9267ef653066a4a313c"
                    ]
                },
                "nodeType": 1
            }
        },
        "gasFlame": [
            {
                "children": [
                    {
                        "children": [
                            {
                                "children": [],
                                "depth": 0,
                                "name": "Initial Gas",
                                "value": 28120
                            },
                            {
                                "children": [
                                    {
                                        "children": [],
                                        "depth": 1,
                                        "name": "mint",
                                        "value": 13272
                                    }
                                ],
                                "depth": 0,
                                "name": "Executed Gas",
                                "value": 25710
                            }
                        ],
                        "depth": -1,
                        "name": "Actual Gas Used",
                        "value": 53830
                    },
                    {
                        "children": [],
                        "depth": -1,
                        "name": "Refunded Gas",
                        "value": 0
                    }
                ],
                "depth": -2,
                "name": "Total Gas",
                "value": 53830
            }
        ],
        "isConfirmed": true,
        "mainTrace": [
            {
                "children": [
                    {
                        "children": [
                            {
                                "children": [
                                    {
                                        "children": [],
                                        "depth": 2,
                                        "id": 2,
                                        "order": 2
                                    }
                                ],
                                "depth": 1,
                                "id": 1,
                                "order": 1
                            },
                            {
                                "children": [],
                                "depth": 1,
                                "id": 3,
                                "order": 3
                            }
                        ],
                        "depth": 0,
                        "id": 0,
                        "order": 0
                    }
                ],
                "depth": -1,
                "id": -1,
                "order": -1
            }
        ],
        "mainTraceNodeCount": 4,
        "parentIdMap": {
            "0": -1,
            "1": 0,
            "2": 1,
            "3": 0
        },
        "tidyTrace": [
            {
                "children": [
                    {
                        "children": [
                            {
                                "children": [
                                    {
                                        "children": [],
                                        "depth": 2,
                                        "id": 2,
                                        "order": 2
                                    }
                                ],
                                "depth": 1,
                                "id": 1,
                                "order": 1
                            },
                            {
                                "children": [],
                                "depth": 1,
                                "id": 3,
                                "order": 3
                            }
                        ],
                        "depth": 0,
                        "id": 0,
                        "order": 0
                    }
                ],
                "depth": -1,
                "id": -1,
                "order": -1
            }
        ],
        "tidyTraceNodeCount": 4
    },
    "state_change": {
        "stateChanges": [
            {
                "address": "0x78b7fada55a64dd895d8c8c35779dd8b67fa8a05",
                "erc": "ERC-20",
                "slots": [
                    {
                        "current": "0x0000000000000000000000000000000000000000000a4133819570b2629641db",
                        "key": "0x0000000000000000000000000000000000000000000000000000000000000000",
                        "prev": "0x0000000000000000000000000000000000000000000a41031e14efa4a503f03e"
                    },
                    {
                        "current": "0x00000000000000000000000000000000000000000002195bc493661b81eb9c46",
                        "key": "0xa4ff8195752d4186b8b50d00d9f925031adc93076611e71c4b6914e6bd1ab4a7",
                        "prev": "0x00000000000000000000000000000000000000000002192b6112e50dc4594aa9"
                    }
                ],
                "storageVariables": [
                    {
                        "name": "totalSupply",
                        "type": "uint256",
                        "value": {
                            "current": "12397162138973891756179931",
                            "prev": "12396269525385850908831806",
                            "typeTag": 1
                        }
                    },
                    {
                        "name": "balances",
                        "type": "mapping(address => uint256)",
                        "value": {
                            "pairs": [
                                {
                                    "key": "0xa9cd27f51cca37fffa87f3967f9046fd612f4ce8",
                                    "value": {
                                        "current": "2537603619789228389145670",
                                        "prev": "2536711006201187541797545",
                                        "typeTag": 1
                                    }
                                }
                            ],
                            "typeTag": 4
                        }
                    }
                ]
            },
            {
                "address": "0xf46ede17c0bab20d87cd079a2632f71433a407b9",
                "erc": "",
                "slots": [
                    {
                        "current": "0x00000000000000000000000000000000000000000005f3ce88f1eaca1e25e03f",
                        "key": "0x0000000000000000000000000000000000000000000000000000000000000004",
                        "prev": "0x00000000000000000000000000000000000000000005f39e257169bc60938ea2"
                    }
                ],
                "storageVariables": [
                    {
                        "name": "tokensSold",
                        "type": "uint256",
                        "value": {
                            "current": "7195974050616066183651391",
                            "prev": "7195081437028025336303266",
                            "typeTag": 1
                        }
                    }
                ]
            }
        ]
    }
}