{
    "balance_change": {
        "balanceChanges": [
            {
                "account": "0x955acd8e9b08ad301ad511891d40f7b8589c568c",
                "assets": [
                    {
                        "address": "0x595832f8fc6bf59c85c527fec3740a1b7a361269",
                        "amount": "50,365.546",
                        "iconUrl": "https://assets.blocksec.com/icon/4871495d66ea41542a18e784ab8e96068997c15fa8d90dfbdc9cf905a3828065.png",
                        "isERC1155": false,
                        "isERC721": false,
                        "sign": false,
                        "value": "9318.031125"
                    }
                ]
            },
            {
                "account": "0x3f5ce5fbfe3e9af3971dd833d26ba9b5c936f0be",
                "assets": [
                    {
                        "address": "0x595832f8fc6bf59c85c527fec3740a1b7a361269",
                        "amount": "50,365.546",
                        "iconUrl": "https://assets.blocksec.com/icon/4871495d66ea41542a18e784ab8e96068997c15fa8d90dfbdc9cf905a3828065.png",
                        "isERC1155": false,
                        "isERC721": false,
                        "sign": true,
                        "value": "9318.031125"
                    }
                ]
            }
        ]
    },
    "profile": {
        "basic_info": {
            "baseFee": "",
            "blockNumber": 11915754,
            "callData": "0xa9059cbb0000000000000000000000003f5ce5fbfe3e9af3971dd833d26ba9b5c936f0be0000000000000000000000000000000000000000000000000000000bba053e10",
            "debugEnable": true,
            "errorInfo": "",
            "eventCount": 1,
            "feeRecipient": "0x5a0b54d5dc17e0aadc383d2db43b0a0d3e029c4c",
            "formatValue": "0",
            "gasLimit": 73652,
            "gasPrice": "190",
            "gasUsed": 21826,
            "intTxnCount": 0,
            "internalRevert": false,
            "internalRevertMessage": "",
            "isContractCreation": false,
            "isFlashloan": false,
            "maxFee": "",
            "nonce": 3,
            "overwritedBlockNumber": -1,
            "priorityFee": "",
            "receiver": "0x595832f8fc6bf59c85c527fec3740a1b7a361269",
            "revertMessage": "",
            "sender": "0x955acd8e9b08ad301ad511891d40f7b8589c568c",
            "simulationEnable": true,
            "sourceTxnHash": "0xa0a66fe7cd59c6314d401f0ef8d15d35066e05f1a08fa5d8a2051881871b603e",
            "status": true,
            "timestamp": "2021-02-23T21:16:06Z",
            "transactionFee": "0.00414694",
            "txnHash": "0xa0a66fe7cd59c6314d401f0ef8d15d35066e05f1a08fa5d8a2051881871b603e",
            "txnIndex": 90,
            "type": 0,
            "value": "0"
        },
        "fund_flow": [
            {
                "amount": "50,365.546",
                "from": "0x955acd8e9b08ad301ad511891d40f7b8589c568c",
                "id": 1,
                "isERC1155": false,
                "isERC721": false,
                "isReverted": false,
                "order": 1,
                "to": "0x3f5ce5fbfe3e9af3971dd833d26ba9b5c936f0be",
                "token": "0x595832f8fc6bf59c85c527fec3740a1b7a361269"
            }
        ],
        "token_infos": [
            {
                "address": "0x595832f8fc6bf59c85c527fec3740a1b7a361269",
                "decimals": 6
            },
            {
                "address": "0xc02aaa39b223fe8d0a0e5c4f27ead9083c756cc2",
                "decimals": 18
            },
            {
                "address": "0xeeeeeeeeeeeeeeeeeeeeeeeeeeeeeeeeeeeeeeee",
                "decimals": 18
            }
        ]
    },
    "address_label": {
        "labels": [
            {
                "address": "0x0000000000000000000000000000000000000001",
                "label": "Precompiled"
            },
            {
                "address": "0x0000000000000000000000000000000000000002",
                "label": "Precompiled"
            },
            {
                "address": "0x0000000000000000000000000000000000000003",
                "label": "Precompiled"
            },
            {
                "address": "0x0000000000000000000000000000000000000004",
                "label": "Precompiled"
            },
            {
                "address": "0xeeeeeeeeeeeeeeeeeeeeeeeeeeeeeeeeeeeeeeee",
                "label": "Ether"
            },
            {
                "address": "0x595832f8fc6bf59c85c527fec3740a1b7a361269",
                "label": "PowerLedger: POWR Token"
            },
            {
                "address": "0x3f5ce5fbfe3e9af3971dd833d26ba9b5c936f0be",
                "label": "Binance"
            },
            {
                "address": "0x955acd8e9b08ad301ad511891d40f7b8589c568c",
                "label": "BINANCE"
            }
        ]
    },
    "trace": {
        "accountLabels": null,
        "dataMap": {
            "-1": {
                "invocation": {
                    "address": "0x955acd8e9b08ad301ad511891d40f7b8589c568c",
                    "callData": "",
                    "decodedMethod": null,
                    "errorInfo": "",
                    "fromAddress": "",
                    "gasUsed": 0,
                    "id": -1,
                    "methodDecoded": false,
                    "operation": "",
                    "output": "",
                    "revert": false,
                    "revertMessage": "",
                    "selector": "",
                    "status": false,
                    "value": ""
                },
                "nodeType": 0
            },
            "0": {
                "invocation": {
                    "address": "0x595832f8fc6bf59c85c527fec3740a1b7a361269",
                    "callData": "0x0000000000000000000000003f5ce5fbfe3e9af3971dd833d26ba9b5c936f0be0000000000000000000000000000000000000000000000000000000bba053e10",
                    "decodedMethod": {
                        "callParams": [
                            {
                                "name": "_to",
                                "type": "address",
                                "value": "0x3f5ce5fbfe3e9af3971dd833d26ba9b5c936f0be"
                            },
                            {
                                "decimalAvailable": true,
                                "name": "_value",
                                "type": "uint256",
                                "value": "50,365,546,000"
                            }
                        ],
                        "constructorArguments": "",
                        "name": "transfer",
                        "returnParams": [
                            {
                                "name": "",
                                "type": "bool",
                                "value": true
                            }
                        ],
                        "signature": "transfer(address,uint256)"
                    },
                    "errorInfo": "",
                    "fromAddress": "0x955acd8e9b08ad301ad511891d40f7b8589c568c",
                    "gasUsed": 21826,
                    "id": 0,
                    "methodDecoded": true,
                    "operation": "CALL",
                    "output": "0x0000000000000000000000000000000000000000000000000000000000000001",
                    "revert": false,
                    "revertMessage": "",
                    "selector": "0xa9059cbb",
                    "status": true,
                    "value": "0"
                },
                "nodeType": 0
            },
            "1": {
                "event": {
                    "contract": "0x595832f8fc6bf59c85c527fec3740a1b7a361269",
                    "decodedLog": {
                        "name": "Transfer",
                        "params": [
                            {
                                "name": "from",
                                "type": "address",
                                "value": "0x955acd8e9b08ad301ad511891d40f7b8589c568c"
                            },
                            {
                                "name": "to",
                                "type": "address",
                                "value": "0x3f5ce5fbfe3e9af3971dd833d26ba9b5c936f0be"
                            },
                            {
                                "decimalAvailable": true,
                                "name": "value",
                                "type": "uint256",
                                "value": "50,365,546,000"
                            }
                        ],
                        "signature": "Transfer(address,address,uint256)"
                    },
                    "id": 1,
                    "logData": "0x0000000000000000000000000000000000000000000000000000000bba053e10",
                    "logDecoded": true,
                    "operation": "EVENT",
                    "revert": false,
                    "status": true,
                    "topics": [
                        "0xddf252ad1be2c89b69c2b068fc378daa952ba7f163c4a11628f55a4df523b3ef",
                        "0x000000000000000000000000955acd8e9b08ad301ad511891d40f7b8589c568c",
                        "0x0000000000000000000000003f5ce5fbfe3e9af3971dd833d26ba9b5c936f0be"
                    ]
                },
                "nodeType": 1
            }
        },
        "gasFlame": [
            {
                "children": [
                    {
                        "children": [
                            {
                                "children": [],
                                "depth": 0,
                                "name": "Initial Gas",
                                "value": 21620
                            },
                            {
                                "children": [],
                                "depth": 0,
                                "name": "Executed Gas",
                                "value": 15206
                            }
                        ],
                        "depth": -1,
                        "name": "Actual Gas Used",
                        "value": 21826
                    },
                    {
                        "children": [],
                        "depth": -1,
                        "name": "Refunded Gas",
                        "value": 15000
                    }
                ],
                "depth": -2,
                "name": "Total Gas",
                "value": 36826
            }
        ],
        "isConfirmed": true,
        "mainTrace": [
            {
                "children": [
                    {
                        "children": [
                            {
                                "children": [],
                                "depth": 1,
                                "id": 1,
                                "order": 1
                            }
                        ],
                        "depth": 0,
                        "id": 0,
                        "order": 0
                    }
                ],
                "depth": -1,
                "id": -1,
                "order": -1
            }
        ],
        "mainTraceNodeCount": 2,
        "parentIdMap": {
            "0": -1,
            "1": 0
        },
        "tidyTrace": [
            {
                "children": [
                    {
                        "children": [
                            {
                                "children": [],
                                "depth": 1,
                                "id": 1,
                                "order": 1
                            }
                        ],
                        "depth": 0,
                        "id": 0,
                        "order": 0
                    }
                ],
                "depth": -1,
                "id": -1,
                "order": -1
            }
        ],
        "tidyTraceNodeCount": 2
    },
    "state_change": {
        "stateChanges": [
            {
                "address": "0x595832f8fc6bf59c85c527fec3740a1b7a361269",
                "erc": "ERC-20",
                "slots": [
                    {
                        "current": "0x0000000000000000000000000000000000000000000000000000000000000000",
                        "key": "0x411d2057a28ac69df7acba96528ef4954d506fe1bf73f67f9ec015757023140e",
                        "prev": "0x0000000000000000000000000000000000000000000000000000000bba053e10"
                    },
                    {
                        "current": "0x000000000000000000000000000000000000000000000000000002adaf691faa",
                        "key": "0x94722b8224a09e66096a21233cb81502abc4895d374fc3f1bf153481ba2b210a",
                        "prev": "0x000000000000000000000000000000000000000000000000000002a1f563e19a"
                    }
                ],
                "storageVariables": []
            }
        ]
    }
}