{
    "balance_change": {
        "balanceChanges": [
            {
                "account": "0x30d8ad7cbfaca59d423b2346b81dbbda36e4f1c3",
                "assets": [
                    {
                        "address": "0xf1ca9cb74685755965c7458528a36934df52a3ef",
                        "amount": "10",
                        "iconUrl": "",
                        "isERC1155": false,
                        "isERC721": false,
                        "sign": false,
                        "value": ""
                    }
                ]
            },
            {
                "account": "0x0a0f71fcc33101d26c9b12231fc6e01279cc7b32",
                "assets": [
                    {
                        "address": "0xf1ca9cb74685755965c7458528a36934df52a3ef",
                        "amount": "10",
                        "iconUrl": "",
                        "isERC1155": false,
                        "isERC721": false,
                        "sign": true,
                        "value": ""
                    }
                ]
            }
        ]
    },
    "profile": {
        "basic_info": {
            "baseFee": "",
            "blockNumber": 6090435,
            "callData": "0xa9059cbb0000000000000000000000000a0f71fcc33101d26c9b12231fc6e01279cc7b320000000000000000000000000000000000000000000000008ac7230489e80000",
            "debugEnable": true,
            "errorInfo": "",
            "eventCount": 1,
            "feeRecipient": "0x829bd824b016326a401d083b33d092293333a830",
            "formatValue": "0",
            "gasLimit": 90000,
            "gasPrice": "1.6",
            "gasUsed": 52376,
            "intTxnCount": 0,
            "internalRevert": false,
            "internalRevertMessage": "",
            "isContractCreation": false,
            "isFlashloan": false,
            "maxFee": "",
            "nonce": 94478,
            "overwritedBlockNumber": -1,
            "priorityFee": "",
            "receiver": "0xf1ca9cb74685755965c7458528a36934df52a3ef",
            "revertMessage": "",
            "sender": "0x30d8ad7cbfaca59d423b2346b81dbbda36e4f1c3",
            "simulationEnable": true,
            "sourceTxnHash": "0xa05cc72fb85bf60a0b49fdc0532353968fcda1a237a33ba9b7c3340c29d48b91",
            "status": true,
            "timestamp": "2018-08-05T03:18:27Z",
            "transactionFee": "0.0000838016",
            "txnHash": "0xa05cc72fb85bf60a0b49fdc0532353968fcda1a237a33ba9b7c3340c29d48b91",
            "txnIndex": 66,
            "type": 0,
            "value": "0"
        },
        "fund_flow": [
            {
                "amount": "10",
                "from": "0x30d8ad7cbfaca59d423b2346b81dbbda36e4f1c3",
                "id": 1,
                "isERC1155": false,
                "isERC721": false,
                "isReverted": false,
                "order": 1,
                "to": "0x0a0f71fcc33101d26c9b12231fc6e01279cc7b32",
                "token": "0xf1ca9cb74685755965c7458528a36934df52a3ef"
            }
        ],
        "token_infos": [
            {
                "address": "0xc02aaa39b223fe8d0a0e5c4f27ead9083c756cc2",
                "decimals": 18
            },
            {
                "address": "0xf1ca9cb74685755965c7458528a36934df52a3ef",
                "decimals": 18
            },
            {
                "address": "0xeeeeeeeeeeeeeeeeeeeeeeeeeeeeeeeeeeeeeeee",
                "decimals": 18
            }
        ]
    },
    "address_label": {
        "labels": [
            {
                "address": "0x0000000000000000000000000000000000000004",
                "label": "Precompiled"
            },
            {
                "address": "0xeeeeeeeeeeeeeeeeeeeeeeeeeeeeeeeeeeeeeeee",
                "label": "Ether"
            },
            {
                "address": "0xf1ca9cb74685755965c7458528a36934df52a3ef",
                "label": "Avinoc.com: AVINOC Token"
            },
            {
                "address": "0x0000000000000000000000000000000000000001",
                "label": "Precompiled"
            },
            {
                "address": "0x0000000000000000000000000000000000000002",
                "label": "Precompiled"
            },
            {
                "address": "0x0000000000000000000000000000000000000003",
                "label": "Precompiled"
            }
        ]
    },
    "trace": {
        "accountLabels": null,
        "dataMap": {
            "-1": {
                "invocation": {
                    "address": "0x30d8ad7cbfaca59d423b2346b81dbbda36e4f1c3",
                    "callData": "",
                    "decodedMethod": null,
                    "errorInfo": "",
                    "fromAddress": "",
                    "gasUsed": 0,
                    "id": -1,
                    "methodDecoded": false,
                    "operation": "",
                    "output": "",
                    "revert": false,
                    "revertMessage": "",
                    "selector": "",
                    "status": false,
                    "value": ""
                },
                "nodeType": 0
            },
            "0": {
                "invocation": {
                    "address": "0xf1ca9cb74685755965c7458528a36934df52a3ef",
                    "callData": "0x0000000000000000000000000a0f71fcc33101d26c9b12231fc6e01279cc7b320000000000000000000000000000000000000000000000008ac7230489e80000",
                    "decodedMethod": {
                        "callParams": [
                            {
                                "name": "_to",
                                "type": "address",
                                "value": "0x0a0f71fcc33101d26c9b12231fc6e01279cc7b32"
                            },
                            {
                                "decimalAvailable": true,
                                "name": "_value",
                                "type": "uint256",
                                "value": "10,000,000,000,000,000,000"
                            }
                        ],
                        "constructorArguments": "",
                        "name": "transfer",
                        "returnParams": [
                            {
                                "name": "success",
                                "type": "bool",
                                "value": true
                            }
                        ],
                        "signature": "transfer(address,uint256)"
                    },
                    "errorInfo": "",
                    "fromAddress": "0x30d8ad7cbfaca59d423b2346b81dbbda36e4f1c3",
                    "gasUsed": 52376,
                    "id": 0,
                    "methodDecoded": true,
                    "operation": "CALL",
                    "output": "0x0000000000000000000000000000000000000000000000000000000000000001",
                    "revert": false,
                    "revertMessage": "",
                    "selector": "0xa9059cbb",
                    "status": true,
                    "value": "0"
                },
                "nodeType": 0
            },
            "1": {
                "event": {
                    "contract": "0xf1ca9cb74685755965c7458528a36934df52a3ef",
                    "decodedLog": {
                        "name": "Transfer",
                        "params": [
                            {
                                "name": "from",
                                "type": "address",
                                "value": "0x30d8ad7cbfaca59d423b2346b81dbbda36e4f1c3"
                            },
                            {
                                "name": "to",
                                "type": "address",
                                "value": "0x0a0f71fcc33101d26c9b12231fc6e01279cc7b32"
                            },
                            {
                                "decimalAvailable": true,
                                "name": "value",
                                "type": "uint256",
                                "value": "10,000,000,000,000,000,000"
                            }
                        ],
                        "signature": "Transfer(address,address,uint256)"
                    },
                    "id": 1,
                    "logData": "0x0000000000000000000000000000000000000000000000008ac7230489e80000",
                    "logDecoded": true,
                    "operation": "EVENT",
                    "revert": false,
                    "status": true,
                    "topics": [
                        "0xddf252ad1be2c89b69c2b068fc378daa952ba7f163c4a11628f55a4df523b3ef",
                        "0x00000000000000000000000030d8ad7cbfaca59d423b2346b81dbbda36e4f1c3",
                        "0x0000000000000000000000000a0f71fcc33101d26c9b12231fc6e01279cc7b32"
                    ]
                },
                "nodeType": 1
            }
        },
        "gasFlame": [
            {
                "children": [
                    {
                        "children": [
                            {
                                "children": [],
                                "depth": 0,
                                "name": "Initial Gas",
                                "value": 23192
                            },
                            {
                                "children": [],
                                "depth": 0,
                                "name": "Executed Gas",
                                "value": 29184
                            }
                        ],
                        "depth": -1,
                        "name": "Actual Gas Used",
                        "value": 52376
                    },
                    {
                        "children": [],
                        "depth": -1,
                        "name": "Refunded Gas",
                        "value": 0
                    }
                ],
                "depth": -2,
                "name": "Total Gas",
                "value": 52376
            }
        ],
        "isConfirmed": true,
        "mainTrace": [
            {
                "children": [
                    {
                        "children": [
                            {
                                "children": [],
                                "depth": 1,
                                "id": 1,
                                "order": 1
                            }
                        ],
                        "depth": 0,
                        "id": 0,
                        "order": 0
                    }
                ],
                "depth": -1,
                "id": -1,
                "order": -1
            }
        ],
        "mainTraceNodeCount": 2,
        "parentIdMap": {
            "0": -1,
            "1": 0
        },
        "tidyTrace": [
            {
                "children": [
                    {
                        "children": [
                            {
                                "children": [],
                                "depth": 1,
                                "id": 1,
                                "order": 1
                            }
                        ],
                        "depth": 0,
                        "id": 0,
                        "order": 0
                    }
                ],
                "depth": -1,
                "id": -1,
                "order": -1
            }
        ],
        "tidyTraceNodeCount": 2
    },
    "state_change": {
        "stateChanges": [
            {
                "address": "0xf1ca9cb74685755965c7458528a36934df52a3ef",
                "erc": "ERC-20",
                "slots": [
                    {
                        "current": "0x0000000000000000000000000000000000000000013d8902d35c9689fc380e22",
                        "key": "0x4749bb0bc52aef32589df372181f2bc8e538b9105a40e1fbcf78b1fa8ce19bd2",
                        "prev": "0x0000000000000000000000000000000000000000013d89035e23b98e86200e22"
                    },
                    {
                        "current": "0x0000000000000000000000000000000000000000000000008ac7230489e80000",
                        "key": "0x36386dbc51aa497fb5fd30cbc53a2638dd3f1a99806aa5de79ad996b316c768e",
                        "prev": "0x0000000000000000000000000000000000000000000000000000000000000000"
                    }
                ],
                "storageVariables": [
                    {
                        "name": "balances",
                        "type": "mapping(address => uint256)",
                        "value": {
                            "pairs": [
                                {
                                    "key": "0x0a0f71fcc33101d26c9b12231fc6e01279cc7b32",
                                    "value": {
                                        "current": "10000000000000000000",
                                        "prev": "0",
                                        "typeTag": 1
                                    }
                                },
                                {
                                    "key": "0x30d8ad7cbfaca59d423b2346b81dbbda36e4f1c3",
                                    "value": {
                                        "current": "383876501149692296441630242",
                                        "prev": "383876511149692296441630242",
                                        "typeTag": 1
                                    }
                                }
                            ],
                            "typeTag": 4
                        }
                    }
                ]
            }
        ]
    }
}