{
    "balance_change": {
        "balanceChanges": [
            {
                "account": "0x74b06683d99437ca7df2aa960ba247414e2b245b",
                "assets": [
                    {
                        "address": "0xe6b75a1960f91bfa7010dec8543685ead67f8cff",
                        "amount": "259.35",
                        "iconUrl": "",
                        "isERC1155": false,
                        "isERC721": false,
                        "sign": false,
                        "value": ""
                    }
                ]
            },
            {
                "account": "0xa03b2426eecfdf2d8cb0696d2dddd8b775beeae6",
                "assets": [
                    {
                        "address": "0xe6b75a1960f91bfa7010dec8543685ead67f8cff",
                        "amount": "259.35",
                        "iconUrl": "",
                        "isERC1155": false,
                        "isERC721": false,
                        "sign": true,
                        "value": ""
                    }
                ]
            }
        ]
    },
    "profile": {
        "basic_info": {
            "baseFee": "",
            "blockNumber": 8378858,
            "callData": "0xa9059cbb000000000000000000000000a03b2426eecfdf2d8cb0696d2dddd8b775beeae600000000000000000000000000000000000000000000000e0f344ae7a18f0000",
            "debugEnable": true,
            "errorInfo": "",
            "eventCount": 1,
            "feeRecipient": "0x5a0b54d5dc17e0aadc383d2db43b0a0d3e029c4c",
            "formatValue": "0",
            "gasLimit": 100000,
            "gasPrice": "12",
            "gasUsed": 37976,
            "intTxnCount": 0,
            "internalRevert": false,
            "internalRevertMessage": "",
            "isContractCreation": false,
            "isFlashloan": false,
            "maxFee": "",
            "nonce": 19383,
            "overwritedBlockNumber": -1,
            "priorityFee": "",
            "receiver": "0xe6b75a1960f91bfa7010dec8543685ead67f8cff",
            "revertMessage": "",
            "sender": "0x74b06683d99437ca7df2aa960ba247414e2b245b",
            "simulationEnable": true,
            "sourceTxnHash": "0xa0b80ac9af3964357fc3e29cc4ba7ed54b17bf40232f244796941250504c85f9",
            "status": true,
            "timestamp": "2019-08-19T05:07:56Z",
            "transactionFee": "0.000455712",
            "txnHash": "0xa0b80ac9af3964357fc3e29cc4ba7ed54b17bf40232f244796941250504c85f9",
            "txnIndex": 114,
            "type": 0,
            "value": "0"
        },
        "fund_flow": [
            {
                "amount": "259.35",
                "from": "0x74b06683d99437ca7df2aa960ba247414e2b245b",
                "id": 1,
                "isERC1155": false,
                "isERC721": false,
                "isReverted": false,
                "order": 1,
                "to": "0xa03b2426eecfdf2d8cb0696d2dddd8b775beeae6",
                "token": "0xe6b75a1960f91bfa7010dec8543685ead67f8cff"
            }
        ],
        "token_infos": [
            {
                "address": "0xc02aaa39b223fe8d0a0e5c4f27ead9083c756cc2",
                "decimals": 18
            },
            {
                "address": "0xe6b75a1960f91bfa7010dec8543685ead67f8cff",
                "decimals": 18
            },
            {
                "address": "0xeeeeeeeeeeeeeeeeeeeeeeeeeeeeeeeeeeeeeeee",
                "decimals": 18
            }
        ]
    },
    "address_label": {
        "labels": [
            {
                "address": "0xeeeeeeeeeeeeeeeeeeeeeeeeeeeeeeeeeeeeeeee",
                "label": "Ether"
            },
            {
                "address": "0xe6b75a1960f91bfa7010dec8543685ead67f8cff",
                "label": "Sea Cucumber Chain (SCC)"
            },
            {
                "address": "0x0000000000000000000000000000000000000001",
                "label": "Precompiled"
            },
            {
                "address": "0x0000000000000000000000000000000000000002",
                "label": "Precompiled"
            },
            {
                "address": "0x0000000000000000000000000000000000000003",
                "label": "Precompiled"
            },
            {
                "address": "0x0000000000000000000000000000000000000004",
                "label": "Precompiled"
            }
        ]
    },
    "trace": {
        "accountLabels": null,
        "dataMap": {
            "-1": {
                "invocation": {
                    "address": "0x74b06683d99437ca7df2aa960ba247414e2b245b",
                    "callData": "",
                    "decodedMethod": null,
                    "errorInfo": "",
                    "fromAddress": "",
                    "gasUsed": 0,
                    "id": -1,
                    "methodDecoded": false,
                    "operation": "",
                    "output": "",
                    "revert": false,
                    "revertMessage": "",
                    "selector": "",
                    "status": false,
                    "value": ""
                },
                "nodeType": 0
            },
            "0": {
                "invocation": {
                    "address": "0xe6b75a1960f91bfa7010dec8543685ead67f8cff",
                    "callData": "0x000000000000000000000000a03b2426eecfdf2d8cb0696d2dddd8b775beeae600000000000000000000000000000000000000000000000e0f344ae7a18f0000",
                    "decodedMethod": {
                        "callParams": [
                            {
                                "name": "_to",
                                "type": "address",
                                "value": "0xa03b2426eecfdf2d8cb0696d2dddd8b775beeae6"
                            },
                            {
                                "decimalAvailable": true,
                                "name": "_value",
                                "type": "uint256",
                                "value": "259,350,000,000,000,000,000"
                            }
                        ],
                        "constructorArguments": "",
                        "name": "transfer",
                        "returnParams": [
                            {
                                "name": "",
                                "type": "bool",
                                "value": true
                            }
                        ],
                        "signature": "transfer(address,uint256)"
                    },
                    "errorInfo": "",
                    "fromAddress": "0x74b06683d99437ca7df2aa960ba247414e2b245b",
                    "gasUsed": 37976,
                    "id": 0,
                    "methodDecoded": true,
                    "operation": "CALL",
                    "output": "0x0000000000000000000000000000000000000000000000000000000000000001",
                    "revert": false,
                    "revertMessage": "",
                    "selector": "0xa9059cbb",
                    "status": true,
                    "value": "0"
                },
                "nodeType": 0
            },
            "1": {
                "event": {
                    "contract": "0xe6b75a1960f91bfa7010dec8543685ead67f8cff",
                    "decodedLog": {
                        "name": "Transfer",
                        "params": [
                            {
                                "name": "from",
                                "type": "address",
                                "value": "0x74b06683d99437ca7df2aa960ba247414e2b245b"
                            },
                            {
                                "name": "to",
                                "type": "address",
                                "value": "0xa03b2426eecfdf2d8cb0696d2dddd8b775beeae6"
                            },
                            {
                                "decimalAvailable": true,
                                "name": "value",
                                "type": "uint256",
                                "value": "259,350,000,000,000,000,000"
                            }
                        ],
                        "signature": "Transfer(address,address,uint256)"
                    },
                    "id": 1,
                    "logData": "0x00000000000000000000000000000000000000000000000e0f344ae7a18f0000",
                    "logDecoded": true,
                    "operation": "EVENT",
                    "revert": false,
                    "status": true,
                    "topics": [
                        "0xddf252ad1be2c89b69c2b068fc378daa952ba7f163c4a11628f55a4df523b3ef",
                        "0x00000000000000000000000074b06683d99437ca7df2aa960ba247414e2b245b",
                        "0x000000000000000000000000a03b2426eecfdf2d8cb0696d2dddd8b775beeae6"
                    ]
                },
                "nodeType": 1
            }
        },
        "gasFlame": [
            {
                "children": [
                    {
                        "children": [
                            {
                                "children": [],
                                "depth": 0,
                                "name": "Initial Gas",
                                "value": 23256
                            },
                            {
                                "children": [],
                                "depth": 0,
                                "name": "Executed Gas",
                                "value": 14720
                            }
                        ],
                        "depth": -1,
                        "name": "Actual Gas Used",
                        "value": 37976
                    },
                    {
                        "children": [],
                        "depth": -1,
                        "name": "Refunded Gas",
                        "value": 0
                    }
                ],
                "depth": -2,
                "name": "Total Gas",
                "value": 37976
            }
        ],
        "isConfirmed": true,
        "mainTrace": [
            {
                "children": [
                    {
                        "children": [
                            {
                                "children": [],
                                "depth": 1,
                                "id": 1,
                                "order": 1
                            }
                        ],
                        "depth": 0,
                        "id": 0,
                        "order": 0
                    }
                ],
                "depth": -1,
                "id": -1,
                "order": -1
            }
        ],
        "mainTraceNodeCount": 2,
        "parentIdMap": {
            "0": -1,
            "1": 0
        },
        "tidyTrace": [
            {
                "children": [
                    {
                        "children": [
                            {
                                "children": [],
                                "depth": 1,
                                "id": 1,
                                "order": 1
                            }
                        ],
                        "depth": 0,
                        "id": 0,
                        "order": 0
                    }
                ],
                "depth": -1,
                "id": -1,
                "order": -1
            }
        ],
        "tidyTraceNodeCount": 2
    },
    "state_change": {
        "stateChanges": [
            {
                "address": "0xe6b75a1960f91bfa7010dec8543685ead67f8cff",
                "erc": "ERC-20",
                "slots": [
                    {
                        "current": "0x000000000000000000000000000000000000000000007175d43918fb02a2d400",
                        "key": "0x94c76b6c50f3796a44ab51254deeefa1643b3764f7504b8b6d0740d0f5c50966",
                        "prev": "0x000000000000000000000000000000000000000000007183e36d63e2a431d400"
                    },
                    {
                        "current": "0x00000000000000000000000000000000000000000000007f0355e94546f8cad0",
                        "key": "0x337493a4f58e0e6f81ebadbf55b67dbf05fb476a8bdd1aa39f5a2d8682b61e95",
                        "prev": "0x000000000000000000000000000000000000000000000070f4219e5da569cad0"
                    }
                ],
                "storageVariables": [
                    {
                        "name": "balances",
                        "type": "mapping(address => uint256)",
                        "value": {
                            "pairs": [
                                {
                                    "key": "0x74b06683d99437ca7df2aa960ba247414e2b245b",
                                    "value": {
                                        "current": "535800973902370000000000",
                                        "prev": "536060323902370000000000",
                                        "typeTag": 1
                                    }
                                },
                                {
                                    "key": "0xa03b2426eecfdf2d8cb0696d2dddd8b775beeae6",
                                    "value": {
                                        "current": "2342976851999999970000",
                                        "prev": "2083626851999999970000",
                                        "typeTag": 1
                                    }
                                }
                            ],
                            "typeTag": 4
                        }
                    }
                ]
            }
        ]
    }
}