{
    "balance_change": {
        "balanceChanges": []
    },
    "profile": {
        "basic_info": {
            "baseFee": "",
            "blockNumber": 5885928,
            "callData": "0xef3435880000000000000000000000000000000000000000000000000700c442c0bd98f800000000000000000000000000000000000000000000019993b0f3dc2a59e895000000000000000000000000000000000000000000000000000000000000271000000000000000000000000000000000000000000000000000000001a6ebf0580000000000000000000000000000000000000000000000000162c050bc3ad035000000000000000000000000000000000000000000000000000000000000000100000000000000000000000000000000000000000000000000038d7ea4c68000000000000000000000000000000000000000000000000000016345785d8a000000000000000000000000000000000000000000000000000000000000000000000000000000000000000000004d8fc1453a0f359e99c9675954e656d80d996fbf000000000000000000000000c16dccf82bb73ea85389d18cd630b65f37e694a10000000000000000000000000cc2d5b60c71237b9e662b65fd8f198a8cf641e9000000000000000000000000000000000000000000000000000000000000001c000000000000000000000000000000000000000000000000000000000000001c73b63c889b7e5b4b5ddfe43e22637ea151916a33cf204b675e0e34f961a0066d7bfa1b3a570e625c04e96dd8e7db29958eb090644bccbf790343c0b8e47a73842fd82c4de4fecd4d853e79204cebb1182d0412aa36b47bc3146c5d23da1e894668e0c13eea5e1ed439eb08c7e52098602f0c2b9f6eaa7878fd6bd1589248715b",
            "debugEnable": true,
            "errorInfo": "",
            "eventCount": 0,
            "feeRecipient": "0xadf055c6222d75c5f7fe90e021f481e8c55f0afd",
            "formatValue": "0",
            "gasLimit": 210000,
            "gasPrice": "88",
            "gasUsed": 157900,
            "intTxnCount": 2,
            "internalRevert": false,
            "internalRevertMessage": "",
            "isContractCreation": false,
            "isFlashloan": false,
            "maxFee": "",
            "nonce": 598003,
            "overwritedBlockNumber": -1,
            "priorityFee": "",
            "receiver": "0x2a0c0dbecc7e4d658f48e01e3fa353f44050c208",
            "revertMessage": "",
            "sender": "0xa7a7899d944fe658c4b0a1803bab2f490bd3849e",
            "simulationEnable": true,
            "sourceTxnHash": "0xa0b5bcabdc4fbab4d4829094b9b3d4f2c2908acb4ce429ef89e047e2da862a95",
            "status": true,
            "timestamp": "2018-07-01T10:03:44Z",
            "transactionFee": "0.0138952",
            "txnHash": "0xa0b5bcabdc4fbab4d4829094b9b3d4f2c2908acb4ce429ef89e047e2da862a95",
            "txnIndex": 52,
            "type": 0,
            "value": "0"
        },
        "fund_flow": [],
        "token_infos": [
            {
                "address": "0xc02aaa39b223fe8d0a0e5c4f27ead9083c756cc2",
                "decimals": 18
            },
            {
                "address": "0xeeeeeeeeeeeeeeeeeeeeeeeeeeeeeeeeeeeeeeee",
                "decimals": 18
            }
        ]
    },
    "address_label": {
        "labels": [
            {
                "address": "0x4d8fc1453a0f359e99c9675954e656d80d996fbf",
                "label": "Bee: BEE Token"
            },
            {
                "address": "0x2a0c0dbecc7e4d658f48e01e3fa353f44050c208",
                "label": "IDEX"
            },
            {
                "address": "0x0000000000000000000000000000000000000002",
                "label": "Precompiled"
            },
            {
                "address": "0x0000000000000000000000000000000000000003",
                "label": "Precompiled"
            },
            {
                "address": "0xeeeeeeeeeeeeeeeeeeeeeeeeeeeeeeeeeeeeeeee",
                "label": "Ether"
            },
            {
                "address": "0xa7a7899d944fe658c4b0a1803bab2f490bd3849e",
                "label": "IDEX 2"
            },
            {
                "address": "0x0000000000000000000000000000000000000000",
                "label": "Null Address"
            },
            {
                "address": "0x0000000000000000000000000000000000000001",
                "label": "Precompiled"
            },
            {
                "address": "0x0000000000000000000000000000000000000004",
                "label": "Precompiled"
            }
        ]
    },
    "trace": {
        "accountLabels": null,
        "dataMap": {
            "-1": {
                "invocation": {
                    "address": "0xa7a7899d944fe658c4b0a1803bab2f490bd3849e",
                    "callData": "",
                    "decodedMethod": null,
                    "errorInfo": "",
                    "fromAddress": "",
                    "gasUsed": 0,
                    "id": -1,
                    "methodDecoded": false,
                    "operation": "",
                    "output": "",
                    "revert": false,
                    "revertMessage": "",
                    "selector": "",
                    "status": false,
                    "value": ""
                },
                "nodeType": 0
            },
            "0": {
                "invocation": {
                    "address": "0x2a0c0dbecc7e4d658f48e01e3fa353f44050c208",
                    "callData": "0x0000000000000000000000000000000000000000000000000700c442c0bd98f800000000000000000000000000000000000000000000019993b0f3dc2a59e895000000000000000000000000000000000000000000000000000000000000271000000000000000000000000000000000000000000000000000000001a6ebf0580000000000000000000000000000000000000000000000000162c050bc3ad035000000000000000000000000000000000000000000000000000000000000000100000000000000000000000000000000000000000000000000038d7ea4c68000000000000000000000000000000000000000000000000000016345785d8a000000000000000000000000000000000000000000000000000000000000000000000000000000000000000000004d8fc1453a0f359e99c9675954e656d80d996fbf000000000000000000000000c16dccf82bb73ea85389d18cd630b65f37e694a10000000000000000000000000cc2d5b60c71237b9e662b65fd8f198a8cf641e9000000000000000000000000000000000000000000000000000000000000001c000000000000000000000000000000000000000000000000000000000000001c73b63c889b7e5b4b5ddfe43e22637ea151916a33cf204b675e0e34f961a0066d7bfa1b3a570e625c04e96dd8e7db29958eb090644bccbf790343c0b8e47a73842fd82c4de4fecd4d853e79204cebb1182d0412aa36b47bc3146c5d23da1e894668e0c13eea5e1ed439eb08c7e52098602f0c2b9f6eaa7878fd6bd1589248715b",
                    "decodedMethod": {
                        "callParams": [
                            {
                                "name": "tradeValues",
                                "type": "uint256[8]",
                                "value": [
                                    "504,618,949,246,032,120",
                                    "7,555,360,600,193,611,982,997",
                                    "10,000",
                                    "7,095,447,640",
                                    "99,853,594,743,459,893",
                                    "1",
                                    "1,000,000,000,000,000",
                                    "100,000,000,000,000,000"
                                ]
                            },
                            {
                                "name": "tradeAddresses",
                                "type": "address[4]",
                                "value": [
                                    "0x0000000000000000000000000000000000000000",
                                    "0x4d8fc1453a0f359e99c9675954e656d80d996fbf",
                                    "0xc16dccf82bb73ea85389d18cd630b65f37e694a1",
                                    "0x0cc2d5b60c71237b9e662b65fd8f198a8cf641e9"
                                ]
                            },
                            {
                                "name": "v",
                                "type": "uint8[2]",
                                "value": [
                                    "28",
                                    "28"
                                ]
                            },
                            {
                                "name": "rs",
                                "type": "bytes32[4]",
                                "value": [
                                    "0x73b63c889b7e5b4b5ddfe43e22637ea151916a33cf204b675e0e34f961a0066d",
                                    "0x7bfa1b3a570e625c04e96dd8e7db29958eb090644bccbf790343c0b8e47a7384",
                                    "0x2fd82c4de4fecd4d853e79204cebb1182d0412aa36b47bc3146c5d23da1e8946",
                                    "0x68e0c13eea5e1ed439eb08c7e52098602f0c2b9f6eaa7878fd6bd1589248715b"
                                ]
                            }
                        ],
                        "constructorArguments": "",
                        "name": "trade",
                        "returnParams": [
                            {
                                "name": "success",
                                "type": "bool",
                                "value": false
                            }
                        ],
                        "signature": "trade(uint256[8],address[4],uint8[2],bytes32[4])"
                    },
                    "errorInfo": "",
                    "fromAddress": "0xa7a7899d944fe658c4b0a1803bab2f490bd3849e",
                    "gasUsed": 157900,
                    "id": 0,
                    "methodDecoded": true,
                    "operation": "CALL",
                    "output": "0x0000000000000000000000000000000000000000000000000000000000000000",
                    "revert": false,
                    "revertMessage": "",
                    "selector": "0xef343588",
                    "status": true,
                    "value": "0"
                },
                "nodeType": 0
            },
            "1": {
                "invocation": {
                    "address": "0x0000000000000000000000000000000000000001",
                    "callData": "0xde490a62385a90d6f89b39aec6510973dc044980188f4f85f5924a01000000000000000000000000000000000000000000000000000000000000001c73b63c889b7e5b4b5ddfe43e22637ea151916a33cf204b675e0e34f961a0066d7bfa1b3a570e625c04e96dd8e7db29958eb090644bccbf790343c0b8e47a7384",
                    "decodedMethod": {
                        "callParams": [
                            {
                                "name": "hash",
                                "type": "bytes32",
                                "value": "0xece364acde490a62385a90d6f89b39aec6510973dc044980188f4f85f5924a01"
                            },
                            {
                                "name": "v",
                                "type": "uint256",
                                "value": "28"
                            },
                            {
                                "name": "r",
                                "type": "bytes32",
                                "value": "0x73b63c889b7e5b4b5ddfe43e22637ea151916a33cf204b675e0e34f961a0066d"
                            },
                            {
                                "name": "s",
                                "type": "bytes32",
                                "value": "0x7bfa1b3a570e625c04e96dd8e7db29958eb090644bccbf790343c0b8e47a7384"
                            }
                        ],
                        "constructorArguments": "",
                        "name": "ecrecover",
                        "returnParams": [
                            {
                                "name": "",
                                "type": "address",
                                "value": "0xc16dccf82bb73ea85389d18cd630b65f37e694a1"
                            }
                        ],
                        "signature": "ecrecover(bytes32,uint256,bytes32,bytes32)"
                    },
                    "errorInfo": "",
                    "fromAddress": "0x2a0c0dbecc7e4d658f48e01e3fa353f44050c208",
                    "gasUsed": 3000,
                    "id": 1,
                    "methodDecoded": true,
                    "operation": "CALL",
                    "output": "0x000000000000000000000000c16dccf82bb73ea85389d18cd630b65f37e694a1",
                    "revert": false,
                    "revertMessage": "",
                    "selector": "0xece364ac",
                    "status": true,
                    "value": "0"
                },
                "nodeType": 0
            },
            "2": {
                "invocation": {
                    "address": "0x0000000000000000000000000000000000000001",
                    "callData": "0x2511f86fd340bd6acea0d1149c26490d302ae1f86a18faa649b168df000000000000000000000000000000000000000000000000000000000000001c2fd82c4de4fecd4d853e79204cebb1182d0412aa36b47bc3146c5d23da1e894668e0c13eea5e1ed439eb08c7e52098602f0c2b9f6eaa7878fd6bd1589248715b",
                    "decodedMethod": {
                        "callParams": [
                            {
                                "name": "hash",
                                "type": "bytes32",
                                "value": "0x00e7b0122511f86fd340bd6acea0d1149c26490d302ae1f86a18faa649b168df"
                            },
                            {
                                "name": "v",
                                "type": "uint256",
                                "value": "28"
                            },
                            {
                                "name": "r",
                                "type": "bytes32",
                                "value": "0x2fd82c4de4fecd4d853e79204cebb1182d0412aa36b47bc3146c5d23da1e8946"
                            },
                            {
                                "name": "s",
                                "type": "bytes32",
                                "value": "0x68e0c13eea5e1ed439eb08c7e52098602f0c2b9f6eaa7878fd6bd1589248715b"
                            }
                        ],
                        "constructorArguments": "",
                        "name": "ecrecover",
                        "returnParams": [
                            {
                                "name": "",
                                "type": "address",
                                "value": "0x0cc2d5b60c71237b9e662b65fd8f198a8cf641e9"
                            }
                        ],
                        "signature": "ecrecover(bytes32,uint256,bytes32,bytes32)"
                    },
                    "errorInfo": "",
                    "fromAddress": "0x2a0c0dbecc7e4d658f48e01e3fa353f44050c208",
                    "gasUsed": 3000,
                    "id": 2,
                    "methodDecoded": true,
                    "operation": "CALL",
                    "output": "0x0000000000000000000000000cc2d5b60c71237b9e662b65fd8f198a8cf641e9",
                    "revert": false,
                    "revertMessage": "",
                    "selector": "0x00e7b012",
                    "status": true,
                    "value": "0"
                },
                "nodeType": 0
            }
        },
        "gasFlame": [
            {
                "children": [
                    {
                        "children": [
                            {
                                "children": [],
                                "depth": 0,
                                "name": "Initial Gas",
                                "value": 38616
                            },
                            {
                                "children": [
                                    {
                                        "children": [],
                                        "depth": 1,
                                        "name": "ecrecover",
                                        "value": 3000
                                    },
                                    {
                                        "children": [],
                                        "depth": 1,
                                        "name": "ecrecover",
                                        "value": 3000
                                    }
                                ],
                                "depth": 0,
                                "name": "Executed Gas",
                                "value": 119284
                            }
                        ],
                        "depth": -1,
                        "name": "Actual Gas Used",
                        "value": 157900
                    },
                    {
                        "children": [],
                        "depth": -1,
                        "name": "Refunded Gas",
                        "value": 0
                    }
                ],
                "depth": -2,
                "name": "Total Gas",
                "value": 157900
            }
        ],
        "isConfirmed": true,
        "mainTrace": [
            {
                "children": [
                    {
                        "children": [
                            {
                                "children": [],
                                "depth": 1,
                                "id": 1,
                                "order": 1
                            },
                            {
                                "children": [],
                                "depth": 1,
                                "id": 2,
                                "order": 2
                            }
                        ],
                        "depth": 0,
                        "id": 0,
                        "order": 0
                    }
                ],
                "depth": -1,
                "id": -1,
                "order": -1
            }
        ],
        "mainTraceNodeCount": 3,
        "parentIdMap": {
            "0": -1,
            "1": 0,
            "2": 0
        },
        "tidyTrace": [
            {
                "children": [
                    {
                        "children": [
                            {
                                "children": [],
                                "depth": 1,
                                "id": 1,
                                "order": 1
                            },
                            {
                                "children": [],
                                "depth": 1,
                                "id": 2,
                                "order": 2
                            }
                        ],
                        "depth": 0,
                        "id": 0,
                        "order": 0
                    }
                ],
                "depth": -1,
                "id": -1,
                "order": -1
            }
        ],
        "tidyTraceNodeCount": 3
    },
    "state_change": {
        "stateChanges": [
            {
                "address": "0x2a0c0dbecc7e4d658f48e01e3fa353f44050c208",
                "erc": "",
                "slots": [
                    {
                        "current": "0x0000000000000000000000000000000000000000000000000162c050bc3ad035",
                        "key": "0x48e88e9772ba51be08ae300fb0dc83d5e35213cf362c64c452cb6859f160051a",
                        "prev": "0x0000000000000000000000000000000000000000000000000000000000000000"
                    },
                    {
                        "current": "0x000000000000000000000000000000000000000000000000000000000059cfe8",
                        "key": "0x0cfae0289311a28d3bdbf72656c72f454e3b695ea88a4e0cac0c2d442c8073f2",
                        "prev": "0x000000000000000000000000000000000000000000000000000000000059c686"
                    },
                    {
                        "current": "0x0000000000000000000000000000000000000000000000000000000000000001",
                        "key": "0x76ce09f39f3da87496627e0eabfb6f57d758ce4e8931a46bd328616f355bbb16",
                        "prev": "0x0000000000000000000000000000000000000000000000000000000000000000"
                    },
                    {
                        "current": "0x00000000000000000000000000000000000000000000002869f0e5d1b1914b78",
                        "key": "0x3ccb72d91c5c66cba135a4135963ed23443b8a63817f501517468fcd5097e277",
                        "prev": "0x00000000000000000000000000000000000000000000002869f08b00b785f8d5"
                    },
                    {
                        "current": "0x000000000000000000000000000000000000000000000048f12c0af4c6b24005",
                        "key": "0x5e9e81458f57f858a3c6df6502422abbffb058c37ad77a7ca7b3e43df7245585",
                        "prev": "0x0000000000000000000000000000000000000000000000000000000000000000"
                    },
                    {
                        "current": "0x000000000000000000000000000000000000000000000000000000000059cfe8",
                        "key": "0xaa19d828da1e68a8e28aa216bc4375c3b98d45d1b60a411cef8bba021e84a993",
                        "prev": "0x000000000000000000000000000000000000000000000000000000000059cf9c"
                    },
                    {
                        "current": "0x00000000000000000000000000000000000000000000000013cf953f12a8e7b1",
                        "key": "0xa315e5470fd17e7f996417668a1efd574a1b260be7a26b24855f38bf16790c2f",
                        "prev": "0x000000000000000000000000000000000000000000000000126d2fbf50796a20"
                    },
                    {
                        "current": "0x0000000000000000000000000000000000000000000000000163ca9ffed92fcb",
                        "key": "0x3f9bfc1d1ca059a74706a4cf3150ca442a588d4b7a50c02d94e80a90e3037039",
                        "prev": "0x00000000000000000000000000000000000000000000000002c68af0bb140000"
                    },
                    {
                        "current": "0x00000000000000000000000000000000000000000000014887b8e7afbf5af6c8",
                        "key": "0xb23fbf2910fdf0ba4b6196582cee9b1d780ff1b489c8f8523b96555b456f4381",
                        "prev": "0x00000000000000000000000000000000000000000000019993b0f3dc2a59e895"
                    },
                    {
                        "current": "0x0000000000000000000000000000000000000000000004711190223660b9e294",
                        "key": "0x37b1ffa9cc09a992c0186db06637f73f5f457674a65481dc937e85585a05f38a",
                        "prev": "0x000000000000000000000000000000000000000000000468f6c420febc6d30cd"
                    }
                ],
                "storageVariables": [
                    {
                        "name": "orderFills",
                        "type": "mapping(bytes32 => uint256)",
                        "value": {
                            "pairs": [
                                {
                                    "key": "0xe600a24d6424ecd2d8c80d054fbc5849938a681940a45f0e28c102bc6f3f381b",
                                    "value": {
                                        "current": "99853594743459893",
                                        "prev": "0",
                                        "typeTag": 1
                                    }
                                }
                            ],
                            "typeTag": 4
                        }
                    },
                    {
                        "name": "tokens",
                        "type": "mapping(address => mapping(address => uint256))",
                        "value": {
                            "pairs": [
                                {
                                    "key": "0x0000000000000000000000000000000000000000",
                                    "value": {
                                        "pairs": [
                                            {
                                                "key": "0x034767f3c519f361c5ecf46ebfc08981c629d381",
                                                "value": {
                                                    "current": "745503617005565070200",
                                                    "prev": "745503517151970326741",
                                                    "typeTag": 1
                                                }
                                            },
                                            {
                                                "key": "0x0cc2d5b60c71237b9e662b65fd8f198a8cf641e9",
                                                "value": {
                                                    "current": "100146405256540107",
                                                    "prev": "200000000000000000",
                                                    "typeTag": 1
                                                }
                                            },
                                            {
                                                "key": "0xc16dccf82bb73ea85389d18cd630b65f37e694a1",
                                                "value": {
                                                    "current": "1427523705028274097",
                                                    "prev": "1327769963879557664",
                                                    "typeTag": 1
                                                }
                                            }
                                        ],
                                        "typeTag": 4
                                    }
                                },
                                {
                                    "key": "0x4d8fc1453a0f359e99c9675954e656d80d996fbf",
                                    "value": {
                                        "pairs": [
                                            {
                                                "key": "0x034767f3c519f361c5ecf46ebfc08981c629d381",
                                                "value": {
                                                    "current": "20975213560919997670036",
                                                    "prev": "20825708688651594838221",
                                                    "typeTag": 1
                                                }
                                            },
                                            {
                                                "key": "0x0cc2d5b60c71237b9e662b65fd8f198a8cf641e9",
                                                "value": {
                                                    "current": "1345543850415625486341",
                                                    "prev": "0",
                                                    "typeTag": 1
                                                }
                                            },
                                            {
                                                "key": "0xc16dccf82bb73ea85389d18cd630b65f37e694a1",
                                                "value": {
                                                    "current": "6060311877509583664840",
                                                    "prev": "7555360600193611982997",
                                                    "typeTag": 1
                                                }
                                            }
                                        ],
                                        "typeTag": 4
                                    }
                                }
                            ],
                            "typeTag": 4
                        }
                    },
                    {
                        "name": "lastActiveTransaction",
                        "type": "mapping(address => uint256)",
                        "value": {
                            "pairs": [
                                {
                                    "key": "0x0cc2d5b60c71237b9e662b65fd8f198a8cf641e9",
                                    "value": {
                                        "current": "5885928",
                                        "prev": "5885852",
                                        "typeTag": 1
                                    }
                                },
                                {
                                    "key": "0xc16dccf82bb73ea85389d18cd630b65f37e694a1",
                                    "value": {
                                        "current": "5885928",
                                        "prev": "5883526",
                                        "typeTag": 1
                                    }
                                }
                            ],
                            "typeTag": 4
                        }
                    },
                    {
                        "name": "traded",
                        "type": "mapping(bytes32 => bool)",
                        "value": {
                            "pairs": [
                                {
                                    "key": "0x946bda8ab6cc664288101c29e0824eadece75d26406b9e526ca34a6247e7df6c",
                                    "value": {
                                        "current": "true",
                                        "prev": "false",
                                        "typeTag": 1
                                    }
                                }
                            ],
                            "typeTag": 4
                        }
                    }
                ]
            }
        ]
    }
}