{
    "balance_change": {
        "balanceChanges": [
            {
                "account": "0xd0a067af1111e8499a2635b5ce445f239c9aba29",
                "assets": [
                    {
                        "address": "0x0ada190c81b814548ddc2f6adc4a689ce7c1fe73",
                        "amount": "51.647868285225158443",
                        "iconUrl": "",
                        "isERC1155": false,
                        "isERC721": false,
                        "sign": false,
                        "value": "1517.156813"
                    }
                ]
            },
            {
                "account": "0x3b09b9adfe11f92225b4c55de89fa81456595cd9",
                "assets": [
                    {
                        "address": "0x0ada190c81b814548ddc2f6adc4a689ce7c1fe73",
                        "amount": "51.647868285225158443",
                        "iconUrl": "",
                        "isERC1155": false,
                        "isERC721": false,
                        "sign": true,
                        "value": "1517.156813"
                    }
                ]
            }
        ]
    },
    "profile": {
        "basic_info": {
            "baseFee": "",
            "blockNumber": 12403665,
            "callData": "0x4000aea00000000000000000000000003b09b9adfe11f92225b4c55de89fa81456595cd9000000000000000000000000000000000000000000000002ccc216903302472b00000000000000000000000000000000000000000000000000000000000000600000000000000000000000000000000000000000000000000000000000000024a694fc3a000000000000000000000000000000000000000000000002ccc216903302472b00000000000000000000000000000000000000000000000000000000",
            "debugEnable": true,
            "errorInfo": "",
            "eventCount": 3,
            "feeRecipient": "0x1ad91ee08f21be3de0ba2ba6918e714da6b45836",
            "formatValue": "0",
            "gasLimit": 125967,
            "gasPrice": "114",
            "gasUsed": 68452,
            "intTxnCount": 1,
            "internalRevert": false,
            "internalRevertMessage": "",
            "isContractCreation": false,
            "isFlashloan": false,
            "maxFee": "",
            "nonce": 196,
            "overwritedBlockNumber": -1,
            "priorityFee": "",
            "receiver": "0x0ada190c81b814548ddc2f6adc4a689ce7c1fe73",
            "revertMessage": "",
            "sender": "0xd0a067af1111e8499a2635b5ce445f239c9aba29",
            "simulationEnable": true,
            "sourceTxnHash": "0xa0695bfaacd812fcfaa98d15ebfa182f0b9fc1421dae9d027b222719545c0130",
            "status": true,
            "timestamp": "2021-05-10T01:33:11Z",
            "transactionFee": "0.007803528",
            "txnHash": "0xa0695bfaacd812fcfaa98d15ebfa182f0b9fc1421dae9d027b222719545c0130",
            "txnIndex": 73,
            "type": 0,
            "value": "0"
        },
        "fund_flow": [
            {
                "amount": "51.647868285225158443",
                "from": "0xd0a067af1111e8499a2635b5ce445f239c9aba29",
                "id": 1,
                "isERC1155": false,
                "isERC721": false,
                "isReverted": false,
                "order": 1,
                "to": "0x3b09b9adfe11f92225b4c55de89fa81456595cd9",
                "token": "0x0ada190c81b814548ddc2f6adc4a689ce7c1fe73"
            }
        ],
        "token_infos": [
            {
                "address": "0x0ada190c81b814548ddc2f6adc4a689ce7c1fe73",
                "decimals": 18
            },
            {
                "address": "0xc02aaa39b223fe8d0a0e5c4f27ead9083c756cc2",
                "decimals": 18
            },
            {
                "address": "0xeeeeeeeeeeeeeeeeeeeeeeeeeeeeeeeeeeeeeeee",
                "decimals": 18
            }
        ]
    },
    "address_label": {
        "labels": [
            {
                "address": "0x0000000000000000000000000000000000000002",
                "label": "Precompiled"
            },
            {
                "address": "0x0000000000000000000000000000000000000003",
                "label": "Precompiled"
            },
            {
                "address": "0x0000000000000000000000000000000000000004",
                "label": "Precompiled"
            },
            {
                "address": "0xeeeeeeeeeeeeeeeeeeeeeeeeeeeeeeeeeeeeeeee",
                "label": "Ether"
            },
            {
                "address": "0x0ada190c81b814548ddc2f6adc4a689ce7c1fe73",
                "label": "yAxis: YAXIS Token"
            },
            {
                "address": "0x3b09b9adfe11f92225b4c55de89fa81456595cd9",
                "label": "Rewards"
            },
            {
                "address": "0x0000000000000000000000000000000000000001",
                "label": "Precompiled"
            }
        ]
    },
    "trace": {
        "accountLabels": null,
        "dataMap": {
            "-1": {
                "invocation": {
                    "address": "0xd0a067af1111e8499a2635b5ce445f239c9aba29",
                    "callData": "",
                    "decodedMethod": null,
                    "errorInfo": "",
                    "fromAddress": "",
                    "gasUsed": 0,
                    "id": -1,
                    "methodDecoded": false,
                    "operation": "",
                    "output": "",
                    "revert": false,
                    "revertMessage": "",
                    "selector": "",
                    "status": false,
                    "value": ""
                },
                "nodeType": 0
            },
            "0": {
                "invocation": {
                    "address": "0x0ada190c81b814548ddc2f6adc4a689ce7c1fe73",
                    "callData": "0x0000000000000000000000003b09b9adfe11f92225b4c55de89fa81456595cd9000000000000000000000000000000000000000000000002ccc216903302472b00000000000000000000000000000000000000000000000000000000000000600000000000000000000000000000000000000000000000000000000000000024a694fc3a000000000000000000000000000000000000000000000002ccc216903302472b00000000000000000000000000000000000000000000000000000000",
                    "decodedMethod": {
                        "callParams": [
                            {
                                "name": "_to",
                                "type": "address",
                                "value": "0x3b09b9adfe11f92225b4c55de89fa81456595cd9"
                            },
                            {
                                "name": "_value",
                                "type": "uint256",
                                "value": "51,647,868,285,225,158,443"
                            },
                            {
                                "name": "_data",
                                "type": "bytes",
                                "value": "0xa694fc3a000000000000000000000000000000000000000000000002ccc216903302472b"
                            }
                        ],
                        "constructorArguments": "",
                        "name": "transferAndCall",
                        "returnParams": [
                            {
                                "name": "success",
                                "type": "bool",
                                "value": true
                            }
                        ],
                        "signature": "transferAndCall(address,uint256,bytes)"
                    },
                    "errorInfo": "",
                    "fromAddress": "0xd0a067af1111e8499a2635b5ce445f239c9aba29",
                    "gasUsed": 68452,
                    "id": 0,
                    "methodDecoded": true,
                    "operation": "CALL",
                    "output": "0x0000000000000000000000000000000000000000000000000000000000000001",
                    "revert": false,
                    "revertMessage": "",
                    "selector": "0x4000aea0",
                    "status": true,
                    "value": "0"
                },
                "nodeType": 0
            },
            "1": {
                "event": {
                    "contract": "0x0ada190c81b814548ddc2f6adc4a689ce7c1fe73",
                    "decodedLog": {
                        "name": "Transfer",
                        "params": [
                            {
                                "name": "from",
                                "type": "address",
                                "value": "0xd0a067af1111e8499a2635b5ce445f239c9aba29"
                            },
                            {
                                "name": "to",
                                "type": "address",
                                "value": "0x3b09b9adfe11f92225b4c55de89fa81456595cd9"
                            },
                            {
                                "decimalAvailable": true,
                                "name": "value",
                                "type": "uint256",
                                "value": "51,647,868,285,225,158,443"
                            }
                        ],
                        "signature": "Transfer(address,address,uint256)"
                    },
                    "id": 1,
                    "logData": "0x000000000000000000000000000000000000000000000002ccc216903302472b",
                    "logDecoded": true,
                    "operation": "EVENT",
                    "revert": false,
                    "status": true,
                    "topics": [
                        "0xddf252ad1be2c89b69c2b068fc378daa952ba7f163c4a11628f55a4df523b3ef",
                        "0x000000000000000000000000d0a067af1111e8499a2635b5ce445f239c9aba29",
                        "0x0000000000000000000000003b09b9adfe11f92225b4c55de89fa81456595cd9"
                    ]
                },
                "nodeType": 1
            },
            "2": {
                "event": {
                    "contract": "0x0ada190c81b814548ddc2f6adc4a689ce7c1fe73",
                    "decodedLog": {
                        "name": "Transfer",
                        "params": [
                            {
                                "name": "from",
                                "type": "address",
                                "value": "0xd0a067af1111e8499a2635b5ce445f239c9aba29"
                            },
                            {
                                "name": "to",
                                "type": "address",
                                "value": "0x3b09b9adfe11f92225b4c55de89fa81456595cd9"
                            },
                            {
                                "name": "value",
                                "type": "uint256",
                                "value": "51,647,868,285,225,158,443"
                            },
                            {
                                "name": "data",
                                "type": "bytes",
                                "value": "0xa694fc3a000000000000000000000000000000000000000000000002ccc216903302472b"
                            }
                        ],
                        "signature": "Transfer(address,address,uint256,bytes)"
                    },
                    "id": 2,
                    "logData": "0x000000000000000000000000000000000000000000000002ccc216903302472b00000000000000000000000000000000000000000000000000000000000000400000000000000000000000000000000000000000000000000000000000000024a694fc3a000000000000000000000000000000000000000000000002ccc216903302472b00000000000000000000000000000000000000000000000000000000",
                    "logDecoded": true,
                    "operation": "EVENT",
                    "revert": false,
                    "status": true,
                    "topics": [
                        "0xe19260aff97b920c7df27010903aeb9c8d2be5d310a2c67824cf3f15396e4c16",
                        "0x000000000000000000000000d0a067af1111e8499a2635b5ce445f239c9aba29",
                        "0x0000000000000000000000003b09b9adfe11f92225b4c55de89fa81456595cd9"
                    ]
                },
                "nodeType": 1
            },
            "3": {
                "invocation": {
                    "address": "0x3b09b9adfe11f92225b4c55de89fa81456595cd9",
                    "callData": "0x000000000000000000000000d0a067af1111e8499a2635b5ce445f239c9aba29000000000000000000000000000000000000000000000002ccc216903302472b00000000000000000000000000000000000000000000000000000000000000600000000000000000000000000000000000000000000000000000000000000024a694fc3a000000000000000000000000000000000000000000000002ccc216903302472b00000000000000000000000000000000000000000000000000000000",
                    "decodedMethod": {
                        "callParams": [
                            {
                                "name": "sender",
                                "type": "address",
                                "value": "0xd0a067af1111e8499a2635b5ce445f239c9aba29"
                            },
                            {
                                "name": "amount",
                                "type": "uint256",
                                "value": "51,647,868,285,225,158,443"
                            },
                            {
                                "name": "",
                                "type": "bytes",
                                "value": "0xa694fc3a000000000000000000000000000000000000000000000002ccc216903302472b"
                            }
                        ],
                        "constructorArguments": "",
                        "name": "onTokenTransfer",
                        "returnParams": [],
                        "signature": "onTokenTransfer(address,uint256,bytes)"
                    },
                    "errorInfo": "",
                    "fromAddress": "0x0ada190c81b814548ddc2f6adc4a689ce7c1fe73",
                    "gasUsed": 40829,
                    "id": 3,
                    "methodDecoded": true,
                    "operation": "CALL",
                    "output": "",
                    "revert": false,
                    "revertMessage": "",
                    "selector": "0xa4c0ed36",
                    "status": true,
                    "value": "0"
                },
                "nodeType": 0
            },
            "4": {
                "event": {
                    "contract": "0x3b09b9adfe11f92225b4c55de89fa81456595cd9",
                    "decodedLog": {
                        "name": "Staked",
                        "params": [
                            {
                                "name": "user",
                                "type": "address",
                                "value": "0xd0a067af1111e8499a2635b5ce445f239c9aba29"
                            },
                            {
                                "name": "amount",
                                "type": "uint256",
                                "value": "51,647,868,285,225,158,443"
                            }
                        ],
                        "signature": "Staked(address,uint256)"
                    },
                    "id": 4,
                    "logData": "0x000000000000000000000000000000000000000000000002ccc216903302472b",
                    "logDecoded": true,
                    "operation": "EVENT",
                    "revert": false,
                    "status": true,
                    "topics": [
                        "0x9e71bc8eea02a63969f509818f2dafb9254532904319f9dbda79b67bd34a5f3d",
                        "0x000000000000000000000000d0a067af1111e8499a2635b5ce445f239c9aba29"
                    ]
                },
                "nodeType": 1
            }
        },
        "gasFlame": [
            {
                "children": [
                    {
                        "children": [
                            {
                                "children": [],
                                "depth": 0,
                                "name": "Initial Gas",
                                "value": 22348
                            },
                            {
                                "children": [
                                    {
                                        "children": [],
                                        "depth": 1,
                                        "name": "onTokenTransfer",
                                        "value": 40829
                                    }
                                ],
                                "depth": 0,
                                "name": "Executed Gas",
                                "value": 61104
                            }
                        ],
                        "depth": -1,
                        "name": "Actual Gas Used",
                        "value": 68452
                    },
                    {
                        "children": [],
                        "depth": -1,
                        "name": "Refunded Gas",
                        "value": 15000
                    }
                ],
                "depth": -2,
                "name": "Total Gas",
                "value": 83452
            }
        ],
        "isConfirmed": true,
        "mainTrace": [
            {
                "children": [
                    {
                        "children": [
                            {
                                "children": [],
                                "depth": 1,
                                "id": 1,
                                "order": 1
                            },
                            {
                                "children": [],
                                "depth": 1,
                                "id": 2,
                                "order": 2
                            },
                            {
                                "children": [
                                    {
                                        "children": [],
                                        "depth": 2,
                                        "id": 4,
                                        "order": 4
                                    }
                                ],
                                "depth": 1,
                                "id": 3,
                                "order": 3
                            }
                        ],
                        "depth": 0,
                        "id": 0,
                        "order": 0
                    }
                ],
                "depth": -1,
                "id": -1,
                "order": -1
            }
        ],
        "mainTraceNodeCount": 5,
        "parentIdMap": {
            "0": -1,
            "1": 0,
            "2": 0,
            "3": 0,
            "4": 3
        },
        "tidyTrace": [
            {
                "children": [
                    {
                        "children": [
                            {
                                "children": [],
                                "depth": 1,
                                "id": 1,
                                "order": 1
                            },
                            {
                                "children": [],
                                "depth": 1,
                                "id": 2,
                                "order": 2
                            },
                            {
                                "children": [
                                    {
                                        "children": [],
                                        "depth": 2,
                                        "id": 4,
                                        "order": 4
                                    }
                                ],
                                "depth": 1,
                                "id": 3,
                                "order": 3
                            }
                        ],
                        "depth": 0,
                        "id": 0,
                        "order": 0
                    }
                ],
                "depth": -1,
                "id": -1,
                "order": -1
            }
        ],
        "tidyTraceNodeCount": 5
    },
    "state_change": {
        "stateChanges": [
            {
                "address": "0x0ada190c81b814548ddc2f6adc4a689ce7c1fe73",
                "erc": "ERC-20",
                "slots": [
                    {
                        "current": "0x0000000000000000000000000000000000000000000000000000000000000000",
                        "key": "0x747b194350c6dd461cc64e22b5d18f9aab4be482e9c55ad9a703230b685c04ce",
                        "prev": "0x000000000000000000000000000000000000000000000002ccc216903302472b"
                    },
                    {
                        "current": "0x000000000000000000000000000000000000000000015cbfbd3c82524e74e8cf",
                        "key": "0xc7870c39ad90d945393663116614c0be92d29585266cc5d311c262953b5103c6",
                        "prev": "0x000000000000000000000000000000000000000000015cbcf07a6bc21b72a1a4"
                    }
                ],
                "storageVariables": [
                    {
                        "name": "_balances",
                        "type": "mapping(address => uint256)",
                        "value": {
                            "pairs": [
                                {
                                    "key": "0x3b09b9adfe11f92225b4c55de89fa81456595cd9",
                                    "value": {
                                        "current": "1646920500073776844957903",
                                        "prev": "1646868852205491619799460",
                                        "typeTag": 1
                                    }
                                },
                                {
                                    "key": "0xd0a067af1111e8499a2635b5ce445f239c9aba29",
                                    "value": {
                                        "current": "0",
                                        "prev": "51647868285225158443",
                                        "typeTag": 1
                                    }
                                }
                            ],
                            "typeTag": 4
                        }
                    }
                ]
            },
            {
                "address": "0x3b09b9adfe11f92225b4c55de89fa81456595cd9",
                "erc": "",
                "slots": [
                    {
                        "current": "0x000000000000000000000000000000000000000000000000034a7bb89f660290",
                        "key": "0x0000000000000000000000000000000000000000000000000000000000000007",
                        "prev": "0x000000000000000000000000000000000000000000000000034a5073ccbaa1de"
                    },
                    {
                        "current": "0x0000000000000000000000000000000000000000000000000000000060988d57",
                        "key": "0x0000000000000000000000000000000000000000000000000000000000000006",
                        "prev": "0x0000000000000000000000000000000000000000000000000000000060988b66"
                    },
                    {
                        "current": "0x0000000000000000000000000000000000000000000000002be56ae7e969d36b",
                        "key": "0xd7094a2a540677c0eab332c74b0d9f4b338fa238b63123230ddad2c37bc61163",
                        "prev": "0x000000000000000000000000000000000000000000000000189e354740a2e392"
                    },
                    {
                        "current": "0x000000000000000000000000000000000000000000000000034a7bb89f660290",
                        "key": "0x95fc0919badf7a2605180ab42307abb4f324b17f04b9fd5a5d004469358ee820",
                        "prev": "0x0000000000000000000000000000000000000000000000000336b43ff05d34ec"
                    },
                    {
                        "current": "0x00000000000000000000000000000000000000000000c36887e650a4e702b0ef",
                        "key": "0x0000000000000000000000000000000000000000000000000000000000000000",
                        "prev": "0x00000000000000000000000000000000000000000000c365bb243a14b40069c4"
                    },
                    {
                        "current": "0x000000000000000000000000000000000000000000000010537a8890a5fc2d1e",
                        "key": "0x5311d8512efbae1b03373564b3cf966aa9ea48a8b9276f5ea192371e6a67f512",
                        "prev": "0x00000000000000000000000000000000000000000000000d86b8720072f9e5f3"
                    }
                ],
                "storageVariables": [
                    {
                        "name": "_balances",
                        "type": "mapping(address => uint256)",
                        "value": {
                            "pairs": [
                                {
                                    "key": "0xd0a067af1111e8499a2635b5ce445f239c9aba29",
                                    "value": {
                                        "current": "301163175586500979998",
                                        "prev": "249515307301275821555",
                                        "typeTag": 1
                                    }
                                }
                            ],
                            "typeTag": 4
                        }
                    },
                    {
                        "name": "rewardPerTokenStored",
                        "type": "uint256",
                        "value": {
                            "current": "237137963268833936",
                            "prev": "237090388676616670",
                            "typeTag": 1
                        }
                    },
                    {
                        "name": "lastUpdateTime",
                        "type": "uint256",
                        "value": {
                            "current": "1620610391",
                            "prev": "1620609894",
                            "typeTag": 1
                        }
                    },
                    {
                        "name": "rewards",
                        "type": "mapping(address => uint256)",
                        "value": {
                            "pairs": [
                                {
                                    "key": "0xd0a067af1111e8499a2635b5ce445f239c9aba29",
                                    "value": {
                                        "current": "3163051857583657835",
                                        "prev": "1773913883373921170",
                                        "typeTag": 1
                                    }
                                }
                            ],
                            "typeTag": 4
                        }
                    },
                    {
                        "name": "userRewardPerTokenPaid",
                        "type": "mapping(address => uint256)",
                        "value": {
                            "pairs": [
                                {
                                    "key": "0xd0a067af1111e8499a2635b5ce445f239c9aba29",
                                    "value": {
                                        "current": "237137963268833936",
                                        "prev": "231570617564738796",
                                        "typeTag": 1
                                    }
                                }
                            ],
                            "typeTag": 4
                        }
                    },
                    {
                        "name": "_totalSupply",
                        "type": "uint256",
                        "value": {
                            "current": "922789718146355554332911",
                            "prev": "922738070278070329174468",
                            "typeTag": 1
                        }
                    }
                ]
            }
        ]
    }
}