{
    "balance_change": {
        "balanceChanges": []
    },
    "profile": {
        "basic_info": {
            "baseFee": "",
            "blockNumber": 12042417,
            "callData": "0x68eec3f6000000000000000000000000000000000000000000000000000000000000004000000000000000000000000000000000000000000000000000000000000000c00000000000000000000000000000000000000000000000000000000000000003000000000000000000000000000018bbb8df8de9e3eaf772db1c4eec228ef06c000000000000000000000000000f7f22bfc28d940d4b68e13213ab17cf107790000000000000000000000000f809e07870dca762b9536d61a4fbef1a171780920000000000000000000000000000000000000000000000000000000000000002000000000000000000000000000000000000000000000000000000000000004000000000000000000000000000000000000000000000000000000000000002c0000000000000000000000000000000000000000000000000000000000000000200000000000000000000000000000000000000000000000000000000000000000000000000000000000000003ea6f88ec8f7b24bb3ad206fa80124210e8e28f3000000000000000000000000000000000000000000000000000000000000008000000000000000000000000000000000000000000000000000000000000001e0740dbaad8f8441b71affe4d6e3f7e0e83c774fa7b25ad1f8947c5f83d8ce2bb000000000000000000000000000000000000000000000000000000000055d98a000000000000000000000000000000000000000000000001e35f3ce59dd7100000000000000000000000000000000000000000000000000000000000000000000000000000000000000000000000000000000000000000000002386f26fc10000000000000000000000000000000018bbb8df8de9e3eaf772db1c4eec228ef06c000000000000000000000000f809e07870dca762b9536d61a4fbef1a1717809200000000000000000000000000000000000000000000000000000000604f305700000000000000000000000000000000000000000000000000000000055d98a000000000000000000000000000000000000000000000001e371005ed5b79000000000000000000000000000000000000000000000000000000071afd498d00000000000000000000000000000000000000000000000000000000000000000000d95d86ae7d273137d68197d818631c67d9e21498b14dae1ee869899a9f25f38652f2787f938e64e53a65d7195a5e6315dfb5fc9777c8c4da74a59a5e5ca9fe5f1c01000000000000000000000000000000000000000000000000000000000000000000000000000000000000000000000000000000000000000000000000000200000000000000000000000000000000000000000000000000000000000000010000000000000000000000003ea6f88ec8f7b24bb3ad206fa80124210e8e28f3000000000000000000000000000000000000000000000000000000000000008000000000000000000000000000000000000000000000000000000000000001e06f0e525eeb6cd4ace2d4606385d1a4d6c8d3fcfe1403b1da044c164cef3e0f61000000000000000000000000000000000000000000000000000000000bebc20000000000000000000000000000000000000000000000001e371005ed5b790000000000000000000000000000000000000000000000000000000000000000000000000000000000000000000000000000000000000000000000038d7ea4c68000000000000000000000000000000f7f22bfc28d940d4b68e13213ab17cf107790000000000000000000000000f809e07870dca762b9536d61a4fbef1a1717809200000000000000000000000000000000000000000000000000000000604f30b400000000000000000000000000000000000000000000000000000000055d98a000000000000000000000000000000000000000000000001e371005ed5b7900000000000000000000000000000000000000000000000000000001c6bf5263400000000000000000000000000000000000000000000000000000000000000000015ca8934622d6c592489266b2b082111f9f7474c2f1df8bd57406cf7530c0a53464ee89af9499a9f519df998eedc98de318b228a983864b96b126a4613fb4c66e1c01000000000000000000000000000000000000000000000000000000000000",
            "debugEnable": true,
            "errorInfo": "",
            "eventCount": 7,
            "feeRecipient": "0x829bd824b016326a401d083b33d092293333a830",
            "formatValue": "0",
            "gasLimit": 335151,
            "gasPrice": "171.123456789",
            "gasUsed": 269831,
            "intTxnCount": 8,
            "internalRevert": false,
            "internalRevertMessage": "",
            "isContractCreation": false,
            "isFlashloan": false,
            "maxFee": "",
            "nonce": 335457,
            "overwritedBlockNumber": -1,
            "priorityFee": "",
            "receiver": "0x07abe965500a49370d331ecd613c7ac47dd6e547",
            "revertMessage": "",
            "sender": "0xf809e07870dca762b9536d61a4fbef1a17178092",
            "simulationEnable": true,
            "sourceTxnHash": "0xa0ee324c42d212ac20c0441ca143d33d88b194244664441d532b4bcedf0cff1f",
            "status": true,
            "timestamp": "2021-03-15T09:40:44Z",
            "transactionFee": "0.046174413468832659",
            "txnHash": "0xa0ee324c42d212ac20c0441ca143d33d88b194244664441d532b4bcedf0cff1f",
            "txnIndex": 192,
            "type": 0,
            "value": "0"
        },
        "fund_flow": [],
        "token_infos": [
            {
                "address": "0xc02aaa39b223fe8d0a0e5c4f27ead9083c756cc2",
                "decimals": 18
            },
            {
                "address": "0xeeeeeeeeeeeeeeeeeeeeeeeeeeeeeeeeeeeeeeee",
                "decimals": 18
            }
        ]
    },
    "address_label": {
        "labels": [
            {
                "address": "0xeeeeeeeeeeeeeeeeeeeeeeeeeeeeeeeeeeeeeeee",
                "label": "Ether"
            },
            {
                "address": "0x3ea6f88ec8f7b24bb3ad206fa80124210e8e28f3",
                "label": "P1Orders"
            },
            {
                "address": "0x0000000000000000000000000000000000000003",
                "label": "Precompiled"
            },
            {
                "address": "0x0000000000000000000000000000000000000004",
                "label": "Precompiled"
            },
            {
                "address": "0x07abe965500a49370d331ecd613c7ac47dd6e547",
                "label": "PerpetualProxy"
            },
            {
                "address": "0xe883b3efdae637fc599b467478a23199778f2ccf",
                "label": "PerpetualV1"
            },
            {
                "address": "0xe0f30cb149faadc7247e953746be9bbbb6b5751f",
                "label": "MedianBTCUSD"
            },
            {
                "address": "0x4525d2b71f7f018c9ebddfcd336852a85404e75b",
                "label": "P1FundingOracle"
            },
            {
                "address": "0x538038e526517680735568f9c5342c6e68bbda12",
                "label": "P1MakerOracle"
            },
            {
                "address": "0x0000000000000000000000000000000000000001",
                "label": "Precompiled"
            },
            {
                "address": "0x0000000000000000000000000000000000000002",
                "label": "Precompiled"
            }
        ]
    },
    "trace": {
        "accountLabels": null,
        "dataMap": {
            "-1": {
                "invocation": {
                    "address": "0xf809e07870dca762b9536d61a4fbef1a17178092",
                    "callData": "",
                    "decodedMethod": null,
                    "errorInfo": "",
                    "fromAddress": "",
                    "gasUsed": 0,
                    "id": -1,
                    "methodDecoded": false,
                    "operation": "",
                    "output": "",
                    "revert": false,
                    "revertMessage": "",
                    "selector": "",
                    "status": false,
                    "value": ""
                },
                "nodeType": 0
            },
            "0": {
                "invocation": {
                    "address": "0x07abe965500a49370d331ecd613c7ac47dd6e547",
                    "callData": "0x000000000000000000000000000000000000000000000000000000000000004000000000000000000000000000000000000000000000000000000000000000c00000000000000000000000000000000000000000000000000000000000000003000000000000000000000000000018bbb8df8de9e3eaf772db1c4eec228ef06c000000000000000000000000000f7f22bfc28d940d4b68e13213ab17cf107790000000000000000000000000f809e07870dca762b9536d61a4fbef1a171780920000000000000000000000000000000000000000000000000000000000000002000000000000000000000000000000000000000000000000000000000000004000000000000000000000000000000000000000000000000000000000000002c0000000000000000000000000000000000000000000000000000000000000000200000000000000000000000000000000000000000000000000000000000000000000000000000000000000003ea6f88ec8f7b24bb3ad206fa80124210e8e28f3000000000000000000000000000000000000000000000000000000000000008000000000000000000000000000000000000000000000000000000000000001e0740dbaad8f8441b71affe4d6e3f7e0e83c774fa7b25ad1f8947c5f83d8ce2bb000000000000000000000000000000000000000000000000000000000055d98a000000000000000000000000000000000000000000000001e35f3ce59dd7100000000000000000000000000000000000000000000000000000000000000000000000000000000000000000000000000000000000000000000002386f26fc10000000000000000000000000000000018bbb8df8de9e3eaf772db1c4eec228ef06c000000000000000000000000f809e07870dca762b9536d61a4fbef1a1717809200000000000000000000000000000000000000000000000000000000604f305700000000000000000000000000000000000000000000000000000000055d98a000000000000000000000000000000000000000000000001e371005ed5b79000000000000000000000000000000000000000000000000000000071afd498d00000000000000000000000000000000000000000000000000000000000000000000d95d86ae7d273137d68197d818631c67d9e21498b14dae1ee869899a9f25f38652f2787f938e64e53a65d7195a5e6315dfb5fc9777c8c4da74a59a5e5ca9fe5f1c01000000000000000000000000000000000000000000000000000000000000000000000000000000000000000000000000000000000000000000000000000200000000000000000000000000000000000000000000000000000000000000010000000000000000000000003ea6f88ec8f7b24bb3ad206fa80124210e8e28f3000000000000000000000000000000000000000000000000000000000000008000000000000000000000000000000000000000000000000000000000000001e06f0e525eeb6cd4ace2d4606385d1a4d6c8d3fcfe1403b1da044c164cef3e0f61000000000000000000000000000000000000000000000000000000000bebc20000000000000000000000000000000000000000000000001e371005ed5b790000000000000000000000000000000000000000000000000000000000000000000000000000000000000000000000000000000000000000000000038d7ea4c68000000000000000000000000000000f7f22bfc28d940d4b68e13213ab17cf107790000000000000000000000000f809e07870dca762b9536d61a4fbef1a1717809200000000000000000000000000000000000000000000000000000000604f30b400000000000000000000000000000000000000000000000000000000055d98a000000000000000000000000000000000000000000000001e371005ed5b7900000000000000000000000000000000000000000000000000000001c6bf5263400000000000000000000000000000000000000000000000000000000000000000015ca8934622d6c592489266b2b082111f9f7474c2f1df8bd57406cf7530c0a53464ee89af9499a9f519df998eedc98de318b228a983864b96b126a4613fb4c66e1c01000000000000000000000000000000000000000000000000000000000000",
                    "decodedMethod": {
                        "callParams": [
                            {
                                "name": "accounts",
                                "type": "address[]",
                                "value": [
                                    "0x000018bbb8df8de9e3eaf772db1c4eec228ef06c",
                                    "0x000f7f22bfc28d940d4b68e13213ab17cf107790",
                                    "0xf809e07870dca762b9536d61a4fbef1a17178092"
                                ]
                            },
                            {
                                "name": "trades",
                                "type": "(uint256,uint256,address,bytes)[]",
                                "value": [
                                    [
                                        {
                                            "name": "takerIndex",
                                            "type": "uint256",
                                            "value": "2"
                                        },
                                        {
                                            "name": "makerIndex",
                                            "type": "uint256",
                                            "value": "0"
                                        },
                                        {
                                            "name": "trader",
                                            "type": "address",
                                            "value": "0x3ea6f88ec8f7b24bb3ad206fa80124210e8e28f3"
                                        },
                                        {
                                            "name": "data",
                                            "type": "bytes",
                                            "value": "0x740dbaad8f8441b71affe4d6e3f7e0e83c774fa7b25ad1f8947c5f83d8ce2bb000000000000000000000000000000000000000000000000000000000055d98a000000000000000000000000000000000000000000000001e35f3ce59dd7100000000000000000000000000000000000000000000000000000000000000000000000000000000000000000000000000000000000000000000002386f26fc10000000000000000000000000000000018bbb8df8de9e3eaf772db1c4eec228ef06c000000000000000000000000f809e07870dca762b9536d61a4fbef1a1717809200000000000000000000000000000000000000000000000000000000604f305700000000000000000000000000000000000000000000000000000000055d98a000000000000000000000000000000000000000000000001e371005ed5b79000000000000000000000000000000000000000000000000000000071afd498d00000000000000000000000000000000000000000000000000000000000000000000d95d86ae7d273137d68197d818631c67d9e21498b14dae1ee869899a9f25f38652f2787f938e64e53a65d7195a5e6315dfb5fc9777c8c4da74a59a5e5ca9fe5f1c01000000000000000000000000000000000000000000000000000000000000"
                                        }
                                    ],
                                    [
                                        {
                                            "name": "takerIndex",
                                            "type": "uint256",
                                            "value": "2"
                                        },
                                        {
                                            "name": "makerIndex",
                                            "type": "uint256",
                                            "value": "1"
                                        },
                                        {
                                            "name": "trader",
                                            "type": "address",
                                            "value": "0x3ea6f88ec8f7b24bb3ad206fa80124210e8e28f3"
                                        },
                                        {
                                            "name": "data",
                                            "type": "bytes",
                                            "value": "0x6f0e525eeb6cd4ace2d4606385d1a4d6c8d3fcfe1403b1da044c164cef3e0f61000000000000000000000000000000000000000000000000000000000bebc20000000000000000000000000000000000000000000000001e371005ed5b790000000000000000000000000000000000000000000000000000000000000000000000000000000000000000000000000000000000000000000000038d7ea4c68000000000000000000000000000000f7f22bfc28d940d4b68e13213ab17cf107790000000000000000000000000f809e07870dca762b9536d61a4fbef1a1717809200000000000000000000000000000000000000000000000000000000604f30b400000000000000000000000000000000000000000000000000000000055d98a000000000000000000000000000000000000000000000001e371005ed5b7900000000000000000000000000000000000000000000000000000001c6bf5263400000000000000000000000000000000000000000000000000000000000000000015ca8934622d6c592489266b2b082111f9f7474c2f1df8bd57406cf7530c0a53464ee89af9499a9f519df998eedc98de318b228a983864b96b126a4613fb4c66e1c01000000000000000000000000000000000000000000000000000000000000"
                                        }
                                    ]
                                ]
                            }
                        ],
                        "constructorArguments": "",
                        "name": "trade",
                        "returnParams": [],
                        "signature": "trade(address[],(uint256,uint256,address,bytes)[])"
                    },
                    "errorInfo": "",
                    "fromAddress": "0xf809e07870dca762b9536d61a4fbef1a17178092",
                    "gasUsed": 269831,
                    "id": 0,
                    "methodDecoded": true,
                    "operation": "CALL",
                    "output": "",
                    "revert": false,
                    "revertMessage": "",
                    "selector": "0x68eec3f6",
                    "status": true,
                    "value": "0"
                },
                "nodeType": 0
            },
            "1": {
                "invocation": {
                    "address": "0xe883b3efdae637fc599b467478a23199778f2ccf",
                    "callData": "0x000000000000000000000000000000000000000000000000000000000000004000000000000000000000000000000000000000000000000000000000000000c00000000000000000000000000000000000000000000000000000000000000003000000000000000000000000000018bbb8df8de9e3eaf772db1c4eec228ef06c000000000000000000000000000f7f22bfc28d940d4b68e13213ab17cf107790000000000000000000000000f809e07870dca762b9536d61a4fbef1a171780920000000000000000000000000000000000000000000000000000000000000002000000000000000000000000000000000000000000000000000000000000004000000000000000000000000000000000000000000000000000000000000002c0000000000000000000000000000000000000000000000000000000000000000200000000000000000000000000000000000000000000000000000000000000000000000000000000000000003ea6f88ec8f7b24bb3ad206fa80124210e8e28f3000000000000000000000000000000000000000000000000000000000000008000000000000000000000000000000000000000000000000000000000000001e0740dbaad8f8441b71affe4d6e3f7e0e83c774fa7b25ad1f8947c5f83d8ce2bb000000000000000000000000000000000000000000000000000000000055d98a000000000000000000000000000000000000000000000001e35f3ce59dd7100000000000000000000000000000000000000000000000000000000000000000000000000000000000000000000000000000000000000000000002386f26fc10000000000000000000000000000000018bbb8df8de9e3eaf772db1c4eec228ef06c000000000000000000000000f809e07870dca762b9536d61a4fbef1a1717809200000000000000000000000000000000000000000000000000000000604f305700000000000000000000000000000000000000000000000000000000055d98a000000000000000000000000000000000000000000000001e371005ed5b79000000000000000000000000000000000000000000000000000000071afd498d00000000000000000000000000000000000000000000000000000000000000000000d95d86ae7d273137d68197d818631c67d9e21498b14dae1ee869899a9f25f38652f2787f938e64e53a65d7195a5e6315dfb5fc9777c8c4da74a59a5e5ca9fe5f1c01000000000000000000000000000000000000000000000000000000000000000000000000000000000000000000000000000000000000000000000000000200000000000000000000000000000000000000000000000000000000000000010000000000000000000000003ea6f88ec8f7b24bb3ad206fa80124210e8e28f3000000000000000000000000000000000000000000000000000000000000008000000000000000000000000000000000000000000000000000000000000001e06f0e525eeb6cd4ace2d4606385d1a4d6c8d3fcfe1403b1da044c164cef3e0f61000000000000000000000000000000000000000000000000000000000bebc20000000000000000000000000000000000000000000000001e371005ed5b790000000000000000000000000000000000000000000000000000000000000000000000000000000000000000000000000000000000000000000000038d7ea4c68000000000000000000000000000000f7f22bfc28d940d4b68e13213ab17cf107790000000000000000000000000f809e07870dca762b9536d61a4fbef1a1717809200000000000000000000000000000000000000000000000000000000604f30b400000000000000000000000000000000000000000000000000000000055d98a000000000000000000000000000000000000000000000001e371005ed5b7900000000000000000000000000000000000000000000000000000001c6bf5263400000000000000000000000000000000000000000000000000000000000000000015ca8934622d6c592489266b2b082111f9f7474c2f1df8bd57406cf7530c0a53464ee89af9499a9f519df998eedc98de318b228a983864b96b126a4613fb4c66e1c01000000000000000000000000000000000000000000000000000000000000",
                    "decodedMethod": {
                        "callParams": [
                            {
                                "name": "accounts",
                                "type": "address[]",
                                "value": [
                                    "0x000018bbb8df8de9e3eaf772db1c4eec228ef06c",
                                    "0x000f7f22bfc28d940d4b68e13213ab17cf107790",
                                    "0xf809e07870dca762b9536d61a4fbef1a17178092"
                                ]
                            },
                            {
                                "name": "trades",
                                "type": "(uint256,uint256,address,bytes)[]",
                                "value": [
                                    [
                                        {
                                            "name": "takerIndex",
                                            "type": "uint256",
                                            "value": "2"
                                        },
                                        {
                                            "name": "makerIndex",
                                            "type": "uint256",
                                            "value": "0"
                                        },
                                        {
                                            "name": "trader",
                                            "type": "address",
                                            "value": "0x3ea6f88ec8f7b24bb3ad206fa80124210e8e28f3"
                                        },
                                        {
                                            "name": "data",
                                            "type": "bytes",
                                            "value": "0x740dbaad8f8441b71affe4d6e3f7e0e83c774fa7b25ad1f8947c5f83d8ce2bb000000000000000000000000000000000000000000000000000000000055d98a000000000000000000000000000000000000000000000001e35f3ce59dd7100000000000000000000000000000000000000000000000000000000000000000000000000000000000000000000000000000000000000000000002386f26fc10000000000000000000000000000000018bbb8df8de9e3eaf772db1c4eec228ef06c000000000000000000000000f809e07870dca762b9536d61a4fbef1a1717809200000000000000000000000000000000000000000000000000000000604f305700000000000000000000000000000000000000000000000000000000055d98a000000000000000000000000000000000000000000000001e371005ed5b79000000000000000000000000000000000000000000000000000000071afd498d00000000000000000000000000000000000000000000000000000000000000000000d95d86ae7d273137d68197d818631c67d9e21498b14dae1ee869899a9f25f38652f2787f938e64e53a65d7195a5e6315dfb5fc9777c8c4da74a59a5e5ca9fe5f1c01000000000000000000000000000000000000000000000000000000000000"
                                        }
                                    ],
                                    [
                                        {
                                            "name": "takerIndex",
                                            "type": "uint256",
                                            "value": "2"
                                        },
                                        {
                                            "name": "makerIndex",
                                            "type": "uint256",
                                            "value": "1"
                                        },
                                        {
                                            "name": "trader",
                                            "type": "address",
                                            "value": "0x3ea6f88ec8f7b24bb3ad206fa80124210e8e28f3"
                                        },
                                        {
                                            "name": "data",
                                            "type": "bytes",
                                            "value": "0x6f0e525eeb6cd4ace2d4606385d1a4d6c8d3fcfe1403b1da044c164cef3e0f61000000000000000000000000000000000000000000000000000000000bebc20000000000000000000000000000000000000000000000001e371005ed5b790000000000000000000000000000000000000000000000000000000000000000000000000000000000000000000000000000000000000000000000038d7ea4c68000000000000000000000000000000f7f22bfc28d940d4b68e13213ab17cf107790000000000000000000000000f809e07870dca762b9536d61a4fbef1a1717809200000000000000000000000000000000000000000000000000000000604f30b400000000000000000000000000000000000000000000000000000000055d98a000000000000000000000000000000000000000000000001e371005ed5b7900000000000000000000000000000000000000000000000000000001c6bf5263400000000000000000000000000000000000000000000000000000000000000000015ca8934622d6c592489266b2b082111f9f7474c2f1df8bd57406cf7530c0a53464ee89af9499a9f519df998eedc98de318b228a983864b96b126a4613fb4c66e1c01000000000000000000000000000000000000000000000000000000000000"
                                        }
                                    ]
                                ]
                            }
                        ],
                        "constructorArguments": "",
                        "name": "trade",
                        "returnParams": [],
                        "signature": "trade(address[],(uint256,uint256,address,bytes)[])"
                    },
                    "errorInfo": "",
                    "fromAddress": "0x07abe965500a49370d331ecd613c7ac47dd6e547",
                    "gasUsed": 239080,
                    "id": 1,
                    "methodDecoded": true,
                    "operation": "DELEGATECALL",
                    "output": "",
                    "revert": false,
                    "revertMessage": "",
                    "selector": "0x68eec3f6",
                    "status": true,
                    "value": "0"
                },
                "nodeType": 0
            },
            "10": {
                "event": {
                    "contract": "0x3ea6f88ec8f7b24bb3ad206fa80124210e8e28f3",
                    "decodedLog": {
                        "name": "LogOrderFilled",
                        "params": [
                            {
                                "name": "orderHash",
                                "type": "bytes32",
                                "value": "0xa7190a0cb288cc9016573b6677a2dedae3fc8fb2e5ce90143a419e021f324603"
                            },
                            {
                                "name": "flags",
                                "type": "bytes32",
                                "value": "0x740dbaad8f8441b71affe4d6e3f7e0e83c774fa7b25ad1f8947c5f83d8ce2bb0"
                            },
                            {
                                "name": "triggerPrice",
                                "type": "uint256",
                                "value": "0"
                            },
                            {
                                "name": "fill",
                                "type": "(uint256,uint256,uint256,bool)",
                                "value": [
                                    {
                                        "name": "amount",
                                        "type": "uint256",
                                        "value": "90,020,000"
                                    },
                                    {
                                        "name": "price",
                                        "type": "uint256",
                                        "value": "557,370,000,000,000,000,000"
                                    },
                                    {
                                        "name": "fee",
                                        "type": "uint256",
                                        "value": "2,000,000,000,000,000"
                                    },
                                    {
                                        "name": "isNegativeFee",
                                        "type": "bool",
                                        "value": false
                                    }
                                ]
                            }
                        ],
                        "signature": "LogOrderFilled(bytes32,bytes32,uint256,(uint256,uint256,uint256,bool))"
                    },
                    "id": 10,
                    "logData": "0xa7190a0cb288cc9016573b6677a2dedae3fc8fb2e5ce90143a419e021f324603740dbaad8f8441b71affe4d6e3f7e0e83c774fa7b25ad1f8947c5f83d8ce2bb0000000000000000000000000000000000000000000000000000000000000000000000000000000000000000000000000000000000000000000000000055d98a000000000000000000000000000000000000000000000001e371005ed5b79000000000000000000000000000000000000000000000000000000071afd498d00000000000000000000000000000000000000000000000000000000000000000000",
                    "logDecoded": true,
                    "operation": "EVENT",
                    "revert": false,
                    "status": true,
                    "topics": [
                        "0x5760b5a80923536b02524ebe3b1f92cc973195ac25559c60564e8db9e02d15ad"
                    ]
                },
                "nodeType": 1
            },
            "11": {
                "event": {
                    "contract": "0x07abe965500a49370d331ecd613c7ac47dd6e547",
                    "decodedLog": {
                        "name": "LogTrade",
                        "params": [
                            {
                                "name": "maker",
                                "type": "address",
                                "value": "0x000018bbb8df8de9e3eaf772db1c4eec228ef06c"
                            },
                            {
                                "name": "taker",
                                "type": "address",
                                "value": "0xf809e07870dca762b9536d61a4fbef1a17178092"
                            },
                            {
                                "name": "trader",
                                "type": "address",
                                "value": "0x3ea6f88ec8f7b24bb3ad206fa80124210e8e28f3"
                            },
                            {
                                "name": "marginAmount",
                                "type": "uint256",
                                "value": "50,074,098,505"
                            },
                            {
                                "name": "positionAmount",
                                "type": "uint256",
                                "value": "90,020,000"
                            },
                            {
                                "name": "isBuy",
                                "type": "bool",
                                "value": true
                            },
                            {
                                "name": "makerBalance",
                                "type": "bytes32",
                                "value": "0x010000000000000000000311363280de000000000000000000000000aa15b598"
                            },
                            {
                                "name": "takerBalance",
                                "type": "bytes32",
                                "value": "0x010000000000000000000003497609f3010000000000000000000000055d98a0"
                            }
                        ],
                        "signature": "LogTrade(address,address,address,uint256,uint256,bool,bytes32,bytes32)"
                    },
                    "id": 11,
                    "logData": "0x0000000000000000000000003ea6f88ec8f7b24bb3ad206fa80124210e8e28f30000000000000000000000000000000000000000000000000000000ba8a61b4900000000000000000000000000000000000000000000000000000000055d98a00000000000000000000000000000000000000000000000000000000000000001010000000000000000000311363280de000000000000000000000000aa15b598010000000000000000000003497609f3010000000000000000000000055d98a0",
                    "logDecoded": true,
                    "operation": "EVENT",
                    "revert": false,
                    "status": true,
                    "topics": [
                        "0x5171a2ba3550a103fd09ca39b7dcfdf328a5acef18e290c7802d69c8ba73d8d9",
                        "0x000000000000000000000000000018bbb8df8de9e3eaf772db1c4eec228ef06c",
                        "0x000000000000000000000000f809e07870dca762b9536d61a4fbef1a17178092"
                    ]
                },
                "nodeType": 1
            },
            "12": {
                "invocation": {
                    "address": "0x3ea6f88ec8f7b24bb3ad206fa80124210e8e28f3",
                    "callData": "0x000000000000000000000000f809e07870dca762b9536d61a4fbef1a17178092000000000000000000000000000f7f22bfc28d940d4b68e13213ab17cf107790000000000000000000000000f809e07870dca762b9536d61a4fbef1a1717809200000000000000000000000000000000000000000000001e49181064a823400000000000000000000000000000000000000000000000000000000000000000c0000000000000000000000000000000000000000000000000000000000000000100000000000000000000000000000000000000000000000000000000000001e06f0e525eeb6cd4ace2d4606385d1a4d6c8d3fcfe1403b1da044c164cef3e0f61000000000000000000000000000000000000000000000000000000000bebc20000000000000000000000000000000000000000000000001e371005ed5b790000000000000000000000000000000000000000000000000000000000000000000000000000000000000000000000000000000000000000000000038d7ea4c68000000000000000000000000000000f7f22bfc28d940d4b68e13213ab17cf107790000000000000000000000000f809e07870dca762b9536d61a4fbef1a1717809200000000000000000000000000000000000000000000000000000000604f30b400000000000000000000000000000000000000000000000000000000055d98a000000000000000000000000000000000000000000000001e371005ed5b7900000000000000000000000000000000000000000000000000000001c6bf5263400000000000000000000000000000000000000000000000000000000000000000015ca8934622d6c592489266b2b082111f9f7474c2f1df8bd57406cf7530c0a53464ee89af9499a9f519df998eedc98de318b228a983864b96b126a4613fb4c66e1c01000000000000000000000000000000000000000000000000000000000000",
                    "decodedMethod": {
                        "callParams": [
                            {
                                "name": "sender",
                                "type": "address",
                                "value": "0xf809e07870dca762b9536d61a4fbef1a17178092"
                            },
                            {
                                "name": "maker",
                                "type": "address",
                                "value": "0x000f7f22bfc28d940d4b68e13213ab17cf107790"
                            },
                            {
                                "name": "taker",
                                "type": "address",
                                "value": "0xf809e07870dca762b9536d61a4fbef1a17178092"
                            },
                            {
                                "name": "price",
                                "type": "uint256",
                                "value": "558,669,300,000,000,000,000"
                            },
                            {
                                "name": "data",
                                "type": "bytes",
                                "value": "0x6f0e525eeb6cd4ace2d4606385d1a4d6c8d3fcfe1403b1da044c164cef3e0f61000000000000000000000000000000000000000000000000000000000bebc20000000000000000000000000000000000000000000000001e371005ed5b790000000000000000000000000000000000000000000000000000000000000000000000000000000000000000000000000000000000000000000000038d7ea4c68000000000000000000000000000000f7f22bfc28d940d4b68e13213ab17cf107790000000000000000000000000f809e07870dca762b9536d61a4fbef1a1717809200000000000000000000000000000000000000000000000000000000604f30b400000000000000000000000000000000000000000000000000000000055d98a000000000000000000000000000000000000000000000001e371005ed5b7900000000000000000000000000000000000000000000000000000001c6bf5263400000000000000000000000000000000000000000000000000000000000000000015ca8934622d6c592489266b2b082111f9f7474c2f1df8bd57406cf7530c0a53464ee89af9499a9f519df998eedc98de318b228a983864b96b126a4613fb4c66e1c01000000000000000000000000000000000000000000000000000000000000"
                            },
                            {
                                "name": "",
                                "type": "bytes32",
                                "value": "0x0000000000000000000000000000000000000000000000000000000000000001"
                            }
                        ],
                        "constructorArguments": "",
                        "name": "trade",
                        "returnParams": [
                            {
                                "name": "",
                                "type": "(uint256,uint256,bool,bytes32)",
                                "value": [
                                    {
                                        "name": "marginAmount",
                                        "type": "uint256",
                                        "value": "50,149,360,176"
                                    },
                                    {
                                        "name": "positionAmount",
                                        "type": "uint256",
                                        "value": "90,020,000"
                                    },
                                    {
                                        "name": "isBuy",
                                        "type": "bool",
                                        "value": false
                                    },
                                    {
                                        "name": "traderFlags",
                                        "type": "bytes32",
                                        "value": "0x0000000000000000000000000000000000000000000000000000000000000001"
                                    }
                                ]
                            }
                        ],
                        "signature": "trade(address,address,address,uint256,bytes,bytes32)"
                    },
                    "errorInfo": "",
                    "fromAddress": "0x07abe965500a49370d331ecd613c7ac47dd6e547",
                    "gasUsed": 42843,
                    "id": 12,
                    "methodDecoded": true,
                    "operation": "CALL",
                    "output": "0x0000000000000000000000000000000000000000000000000000000bad22823000000000000000000000000000000000000000000000000000000000055d98a000000000000000000000000000000000000000000000000000000000000000000000000000000000000000000000000000000000000000000000000000000001",
                    "revert": false,
                    "revertMessage": "",
                    "selector": "0x970c2ba1",
                    "status": true,
                    "value": "0"
                },
                "nodeType": 0
            },
            "13": {
                "invocation": {
                    "address": "0x0000000000000000000000000000000000000001",
                    "callData": "0xff5a43b32ec70bb76d8f70a76a8f0f9996c5814394257039ca8ae884000000000000000000000000000000000000000000000000000000000000001c5ca8934622d6c592489266b2b082111f9f7474c2f1df8bd57406cf7530c0a53464ee89af9499a9f519df998eedc98de318b228a983864b96b126a4613fb4c66e",
                    "decodedMethod": {
                        "callParams": [
                            {
                                "name": "hash",
                                "type": "bytes32",
                                "value": "0x05d41390ff5a43b32ec70bb76d8f70a76a8f0f9996c5814394257039ca8ae884"
                            },
                            {
                                "name": "v",
                                "type": "uint256",
                                "value": "28"
                            },
                            {
                                "name": "r",
                                "type": "bytes32",
                                "value": "0x5ca8934622d6c592489266b2b082111f9f7474c2f1df8bd57406cf7530c0a534"
                            },
                            {
                                "name": "s",
                                "type": "bytes32",
                                "value": "0x64ee89af9499a9f519df998eedc98de318b228a983864b96b126a4613fb4c66e"
                            }
                        ],
                        "constructorArguments": "",
                        "name": "ecrecover",
                        "returnParams": [
                            {
                                "name": "",
                                "type": "address",
                                "value": "0x000f7f22bfc28d940d4b68e13213ab17cf107790"
                            }
                        ],
                        "signature": "ecrecover(bytes32,uint256,bytes32,bytes32)"
                    },
                    "errorInfo": "",
                    "fromAddress": "0x3ea6f88ec8f7b24bb3ad206fa80124210e8e28f3",
                    "gasUsed": 3000,
                    "id": 13,
                    "methodDecoded": true,
                    "operation": "STATICCALL",
                    "output": "0x000000000000000000000000000f7f22bfc28d940d4b68e13213ab17cf107790",
                    "revert": false,
                    "revertMessage": "",
                    "selector": "0x05d41390",
                    "status": true,
                    "value": "0"
                },
                "nodeType": 0
            },
            "14": {
                "event": {
                    "contract": "0x3ea6f88ec8f7b24bb3ad206fa80124210e8e28f3",
                    "decodedLog": {
                        "name": "LogOrderFilled",
                        "params": [
                            {
                                "name": "orderHash",
                                "type": "bytes32",
                                "value": "0xb1f452cef196cef8e22c3cc52498a8e85a06ec41b18be18dc75ce503d4f6e4e8"
                            },
                            {
                                "name": "flags",
                                "type": "bytes32",
                                "value": "0x6f0e525eeb6cd4ace2d4606385d1a4d6c8d3fcfe1403b1da044c164cef3e0f61"
                            },
                            {
                                "name": "triggerPrice",
                                "type": "uint256",
                                "value": "0"
                            },
                            {
                                "name": "fill",
                                "type": "(uint256,uint256,uint256,bool)",
                                "value": [
                                    {
                                        "name": "amount",
                                        "type": "uint256",
                                        "value": "90,020,000"
                                    },
                                    {
                                        "name": "price",
                                        "type": "uint256",
                                        "value": "557,370,000,000,000,000,000"
                                    },
                                    {
                                        "name": "fee",
                                        "type": "uint256",
                                        "value": "500,000,000,000,000"
                                    },
                                    {
                                        "name": "isNegativeFee",
                                        "type": "bool",
                                        "value": true
                                    }
                                ]
                            }
                        ],
                        "signature": "LogOrderFilled(bytes32,bytes32,uint256,(uint256,uint256,uint256,bool))"
                    },
                    "id": 14,
                    "logData": "0xb1f452cef196cef8e22c3cc52498a8e85a06ec41b18be18dc75ce503d4f6e4e86f0e525eeb6cd4ace2d4606385d1a4d6c8d3fcfe1403b1da044c164cef3e0f61000000000000000000000000000000000000000000000000000000000000000000000000000000000000000000000000000000000000000000000000055d98a000000000000000000000000000000000000000000000001e371005ed5b7900000000000000000000000000000000000000000000000000000001c6bf526340000000000000000000000000000000000000000000000000000000000000000001",
                    "logDecoded": true,
                    "operation": "EVENT",
                    "revert": false,
                    "status": true,
                    "topics": [
                        "0x5760b5a80923536b02524ebe3b1f92cc973195ac25559c60564e8db9e02d15ad"
                    ]
                },
                "nodeType": 1
            },
            "15": {
                "event": {
                    "contract": "0x07abe965500a49370d331ecd613c7ac47dd6e547",
                    "decodedLog": {
                        "name": "LogTrade",
                        "params": [
                            {
                                "name": "maker",
                                "type": "address",
                                "value": "0x000f7f22bfc28d940d4b68e13213ab17cf107790"
                            },
                            {
                                "name": "taker",
                                "type": "address",
                                "value": "0xf809e07870dca762b9536d61a4fbef1a17178092"
                            },
                            {
                                "name": "trader",
                                "type": "address",
                                "value": "0x3ea6f88ec8f7b24bb3ad206fa80124210e8e28f3"
                            },
                            {
                                "name": "marginAmount",
                                "type": "uint256",
                                "value": "50,149,360,176"
                            },
                            {
                                "name": "positionAmount",
                                "type": "uint256",
                                "value": "90,020,000"
                            },
                            {
                                "name": "isBuy",
                                "type": "bool",
                                "value": false
                            },
                            {
                                "name": "makerBalance",
                                "type": "bytes32",
                                "value": "0x010000000000000000000316dbdf8de3000000000000000000000000f96de072"
                            },
                            {
                                "name": "takerBalance",
                                "type": "bytes32",
                                "value": "0x01000000000000000000000ef6988c2300000000000000000000000000000000"
                            }
                        ],
                        "signature": "LogTrade(address,address,address,uint256,uint256,bool,bytes32,bytes32)"
                    },
                    "id": 15,
                    "logData": "0x0000000000000000000000003ea6f88ec8f7b24bb3ad206fa80124210e8e28f30000000000000000000000000000000000000000000000000000000bad22823000000000000000000000000000000000000000000000000000000000055d98a00000000000000000000000000000000000000000000000000000000000000000010000000000000000000316dbdf8de3000000000000000000000000f96de07201000000000000000000000ef6988c2300000000000000000000000000000000",
                    "logDecoded": true,
                    "operation": "EVENT",
                    "revert": false,
                    "status": true,
                    "topics": [
                        "0x5171a2ba3550a103fd09ca39b7dcfdf328a5acef18e290c7802d69c8ba73d8d9",
                        "0x000000000000000000000000000f7f22bfc28d940d4b68e13213ab17cf107790",
                        "0x000000000000000000000000f809e07870dca762b9536d61a4fbef1a17178092"
                    ]
                },
                "nodeType": 1
            },
            "2": {
                "invocation": {
                    "address": "0x538038e526517680735568f9c5342c6e68bbda12",
                    "callData": "0x",
                    "decodedMethod": {
                        "callParams": [],
                        "constructorArguments": "",
                        "name": "getPrice",
                        "returnParams": [
                            {
                                "name": "",
                                "type": "uint256",
                                "value": "558,669,300,000,000,000,000"
                            }
                        ],
                        "signature": "getPrice()"
                    },
                    "errorInfo": "",
                    "fromAddress": "0x07abe965500a49370d331ecd613c7ac47dd6e547",
                    "gasUsed": 7183,
                    "id": 2,
                    "methodDecoded": true,
                    "operation": "STATICCALL",
                    "output": "0x00000000000000000000000000000000000000000000001e49181064a8234000",
                    "revert": false,
                    "revertMessage": "",
                    "selector": "0x98d5fdca",
                    "status": true,
                    "value": "0"
                },
                "nodeType": 0
            },
            "3": {
                "invocation": {
                    "address": "0xe0f30cb149faadc7247e953746be9bbbb6b5751f",
                    "callData": "0x",
                    "decodedMethod": {
                        "callParams": [],
                        "constructorArguments": "",
                        "name": "read",
                        "returnParams": [
                            {
                                "name": "",
                                "type": "uint256",
                                "value": "55,866,930,000,000,000,000,000"
                            }
                        ],
                        "signature": "read()"
                    },
                    "errorInfo": "",
                    "fromAddress": "0x538038e526517680735568f9c5342c6e68bbda12",
                    "gasUsed": 2830,
                    "id": 3,
                    "methodDecoded": true,
                    "operation": "STATICCALL",
                    "output": "0x000000000000000000000000000000000000000000000bd48d666751adc50000",
                    "revert": false,
                    "revertMessage": "",
                    "selector": "0x57de26a4",
                    "status": true,
                    "value": "0"
                },
                "nodeType": 0
            },
            "4": {
                "invocation": {
                    "address": "0x4525d2b71f7f018c9ebddfcd336852a85404e75b",
                    "callData": "0x000000000000000000000000000000000000000000000000000000000000029a",
                    "decodedMethod": {
                        "callParams": [
                            {
                                "name": "timeDelta",
                                "type": "uint256",
                                "value": "666"
                            }
                        ],
                        "constructorArguments": "",
                        "name": "getFunding",
                        "returnParams": [
                            {
                                "name": "",
                                "type": "bool",
                                "value": true
                            },
                            {
                                "name": "",
                                "type": "uint256",
                                "value": "22,561,292,118,672"
                            }
                        ],
                        "signature": "getFunding(uint256)"
                    },
                    "errorInfo": "",
                    "fromAddress": "0x07abe965500a49370d331ecd613c7ac47dd6e547",
                    "gasUsed": 1841,
                    "id": 4,
                    "methodDecoded": true,
                    "operation": "STATICCALL",
                    "output": "0x000000000000000000000000000000000000000000000000000000000000000100000000000000000000000000000000000000000000000000001484f5cd6a90",
                    "revert": false,
                    "revertMessage": "",
                    "selector": "0xebed4bd4",
                    "status": true,
                    "value": "0"
                },
                "nodeType": 0
            },
            "5": {
                "event": {
                    "contract": "0x07abe965500a49370d331ecd613c7ac47dd6e547",
                    "decodedLog": {
                        "name": "LogIndex",
                        "params": [
                            {
                                "name": "index",
                                "type": "bytes32",
                                "value": "0x0000000000000000000000604f2b9c010000000000000007cd6c1e76430a1103"
                            }
                        ],
                        "signature": "LogIndex(bytes32)"
                    },
                    "id": 5,
                    "logData": "0x0000000000000000000000604f2b9c010000000000000007cd6c1e76430a1103",
                    "logDecoded": true,
                    "operation": "EVENT",
                    "revert": false,
                    "status": true,
                    "topics": [
                        "0x995e61c355733308eab39a59e1e1ac167274cdd1ad707fe4d13e127a01076428"
                    ]
                },
                "nodeType": 1
            },
            "6": {
                "event": {
                    "contract": "0x07abe965500a49370d331ecd613c7ac47dd6e547",
                    "decodedLog": {
                        "name": "LogAccountSettled",
                        "params": [
                            {
                                "name": "account",
                                "type": "address",
                                "value": "0x000018bbb8df8de9e3eaf772db1c4eec228ef06c"
                            },
                            {
                                "name": "isPositive",
                                "type": "bool",
                                "value": true
                            },
                            {
                                "name": "amount",
                                "type": "uint256",
                                "value": "34,832,357"
                            },
                            {
                                "name": "balance",
                                "type": "bytes32",
                                "value": "0x0100000000000000000003058d8c6595000000000000000000000000a4b81cf8"
                            }
                        ],
                        "signature": "LogAccountSettled(address,bool,uint256,bytes32)"
                    },
                    "id": 6,
                    "logData": "0x00000000000000000000000000000000000000000000000000000000000000010000000000000000000000000000000000000000000000000000000002137fe50100000000000000000003058d8c6595000000000000000000000000a4b81cf8",
                    "logDecoded": true,
                    "operation": "EVENT",
                    "revert": false,
                    "status": true,
                    "topics": [
                        "0x022694ffbbd957d26de6b85c040be68ec582d13d40114b29130581793a1bf31e",
                        "0x000000000000000000000000000018bbb8df8de9e3eaf772db1c4eec228ef06c"
                    ]
                },
                "nodeType": 1
            },
            "7": {
                "event": {
                    "contract": "0x07abe965500a49370d331ecd613c7ac47dd6e547",
                    "decodedLog": {
                        "name": "LogAccountSettled",
                        "params": [
                            {
                                "name": "account",
                                "type": "address",
                                "value": "0x000f7f22bfc28d940d4b68e13213ab17cf107790"
                            },
                            {
                                "name": "isPositive",
                                "type": "bool",
                                "value": true
                            },
                            {
                                "name": "amount",
                                "type": "uint256",
                                "value": "61,323,118"
                            },
                            {
                                "name": "balance",
                                "type": "bytes32",
                                "value": "0x01000000000000000000032289021013000000000000000000000000fecb7912"
                            }
                        ],
                        "signature": "LogAccountSettled(address,bool,uint256,bytes32)"
                    },
                    "id": 7,
                    "logData": "0x00000000000000000000000000000000000000000000000000000000000000010000000000000000000000000000000000000000000000000000000003a7b76e01000000000000000000032289021013000000000000000000000000fecb7912",
                    "logDecoded": true,
                    "operation": "EVENT",
                    "revert": false,
                    "status": true,
                    "topics": [
                        "0x022694ffbbd957d26de6b85c040be68ec582d13d40114b29130581793a1bf31e",
                        "0x000000000000000000000000000f7f22bfc28d940d4b68e13213ab17cf107790"
                    ]
                },
                "nodeType": 1
            },
            "8": {
                "invocation": {
                    "address": "0x3ea6f88ec8f7b24bb3ad206fa80124210e8e28f3",
                    "callData": "0x000000000000000000000000f809e07870dca762b9536d61a4fbef1a17178092000000000000000000000000000018bbb8df8de9e3eaf772db1c4eec228ef06c000000000000000000000000f809e07870dca762b9536d61a4fbef1a1717809200000000000000000000000000000000000000000000001e49181064a823400000000000000000000000000000000000000000000000000000000000000000c0000000000000000000000000000000000000000000000000000000000000000000000000000000000000000000000000000000000000000000000000000001e0740dbaad8f8441b71affe4d6e3f7e0e83c774fa7b25ad1f8947c5f83d8ce2bb000000000000000000000000000000000000000000000000000000000055d98a000000000000000000000000000000000000000000000001e35f3ce59dd7100000000000000000000000000000000000000000000000000000000000000000000000000000000000000000000000000000000000000000000002386f26fc10000000000000000000000000000000018bbb8df8de9e3eaf772db1c4eec228ef06c000000000000000000000000f809e07870dca762b9536d61a4fbef1a1717809200000000000000000000000000000000000000000000000000000000604f305700000000000000000000000000000000000000000000000000000000055d98a000000000000000000000000000000000000000000000001e371005ed5b79000000000000000000000000000000000000000000000000000000071afd498d00000000000000000000000000000000000000000000000000000000000000000000d95d86ae7d273137d68197d818631c67d9e21498b14dae1ee869899a9f25f38652f2787f938e64e53a65d7195a5e6315dfb5fc9777c8c4da74a59a5e5ca9fe5f1c01000000000000000000000000000000000000000000000000000000000000",
                    "decodedMethod": {
                        "callParams": [
                            {
                                "name": "sender",
                                "type": "address",
                                "value": "0xf809e07870dca762b9536d61a4fbef1a17178092"
                            },
                            {
                                "name": "maker",
                                "type": "address",
                                "value": "0x000018bbb8df8de9e3eaf772db1c4eec228ef06c"
                            },
                            {
                                "name": "taker",
                                "type": "address",
                                "value": "0xf809e07870dca762b9536d61a4fbef1a17178092"
                            },
                            {
                                "name": "price",
                                "type": "uint256",
                                "value": "558,669,300,000,000,000,000"
                            },
                            {
                                "name": "data",
                                "type": "bytes",
                                "value": "0x740dbaad8f8441b71affe4d6e3f7e0e83c774fa7b25ad1f8947c5f83d8ce2bb000000000000000000000000000000000000000000000000000000000055d98a000000000000000000000000000000000000000000000001e35f3ce59dd7100000000000000000000000000000000000000000000000000000000000000000000000000000000000000000000000000000000000000000000002386f26fc10000000000000000000000000000000018bbb8df8de9e3eaf772db1c4eec228ef06c000000000000000000000000f809e07870dca762b9536d61a4fbef1a1717809200000000000000000000000000000000000000000000000000000000604f305700000000000000000000000000000000000000000000000000000000055d98a000000000000000000000000000000000000000000000001e371005ed5b79000000000000000000000000000000000000000000000000000000071afd498d00000000000000000000000000000000000000000000000000000000000000000000d95d86ae7d273137d68197d818631c67d9e21498b14dae1ee869899a9f25f38652f2787f938e64e53a65d7195a5e6315dfb5fc9777c8c4da74a59a5e5ca9fe5f1c01000000000000000000000000000000000000000000000000000000000000"
                            },
                            {
                                "name": "",
                                "type": "bytes32",
                                "value": "0x0000000000000000000000000000000000000000000000000000000000000000"
                            }
                        ],
                        "constructorArguments": "",
                        "name": "trade",
                        "returnParams": [
                            {
                                "name": "",
                                "type": "(uint256,uint256,bool,bytes32)",
                                "value": [
                                    {
                                        "name": "marginAmount",
                                        "type": "uint256",
                                        "value": "50,074,098,505"
                                    },
                                    {
                                        "name": "positionAmount",
                                        "type": "uint256",
                                        "value": "90,020,000"
                                    },
                                    {
                                        "name": "isBuy",
                                        "type": "bool",
                                        "value": true
                                    },
                                    {
                                        "name": "traderFlags",
                                        "type": "bytes32",
                                        "value": "0x0000000000000000000000000000000000000000000000000000000000000001"
                                    }
                                ]
                            }
                        ],
                        "signature": "trade(address,address,address,uint256,bytes,bytes32)"
                    },
                    "errorInfo": "",
                    "fromAddress": "0x07abe965500a49370d331ecd613c7ac47dd6e547",
                    "gasUsed": 42897,
                    "id": 8,
                    "methodDecoded": true,
                    "operation": "CALL",
                    "output": "0x0000000000000000000000000000000000000000000000000000000ba8a61b4900000000000000000000000000000000000000000000000000000000055d98a000000000000000000000000000000000000000000000000000000000000000010000000000000000000000000000000000000000000000000000000000000001",
                    "revert": false,
                    "revertMessage": "",
                    "selector": "0x970c2ba1",
                    "status": true,
                    "value": "0"
                },
                "nodeType": 0
            },
            "9": {
                "invocation": {
                    "address": "0x0000000000000000000000000000000000000001",
                    "callData": "0xbd643b534404b1615aee3614dbd48df7dca784dc1a41f42aaf21de94000000000000000000000000000000000000000000000000000000000000001cd95d86ae7d273137d68197d818631c67d9e21498b14dae1ee869899a9f25f38652f2787f938e64e53a65d7195a5e6315dfb5fc9777c8c4da74a59a5e5ca9fe5f",
                    "decodedMethod": {
                        "callParams": [
                            {
                                "name": "hash",
                                "type": "bytes32",
                                "value": "0x9878f553bd643b534404b1615aee3614dbd48df7dca784dc1a41f42aaf21de94"
                            },
                            {
                                "name": "v",
                                "type": "uint256",
                                "value": "28"
                            },
                            {
                                "name": "r",
                                "type": "bytes32",
                                "value": "0xd95d86ae7d273137d68197d818631c67d9e21498b14dae1ee869899a9f25f386"
                            },
                            {
                                "name": "s",
                                "type": "bytes32",
                                "value": "0x52f2787f938e64e53a65d7195a5e6315dfb5fc9777c8c4da74a59a5e5ca9fe5f"
                            }
                        ],
                        "constructorArguments": "",
                        "name": "ecrecover",
                        "returnParams": [
                            {
                                "name": "",
                                "type": "address",
                                "value": "0x000018bbb8df8de9e3eaf772db1c4eec228ef06c"
                            }
                        ],
                        "signature": "ecrecover(bytes32,uint256,bytes32,bytes32)"
                    },
                    "errorInfo": "",
                    "fromAddress": "0x3ea6f88ec8f7b24bb3ad206fa80124210e8e28f3",
                    "gasUsed": 3000,
                    "id": 9,
                    "methodDecoded": true,
                    "operation": "STATICCALL",
                    "output": "0x000000000000000000000000000018bbb8df8de9e3eaf772db1c4eec228ef06c",
                    "revert": false,
                    "revertMessage": "",
                    "selector": "0x9878f553",
                    "status": true,
                    "value": "0"
                },
                "nodeType": 0
            }
        },
        "gasFlame": [
            {
                "children": [
                    {
                        "children": [
                            {
                                "children": [],
                                "depth": 0,
                                "name": "Initial Gas",
                                "value": 32856
                            },
                            {
                                "children": [
                                    {
                                        "children": [
                                            {
                                                "children": [
                                                    {
                                                        "children": [],
                                                        "depth": 3,
                                                        "name": "read",
                                                        "value": 2830
                                                    }
                                                ],
                                                "depth": 2,
                                                "name": "getPrice",
                                                "value": 7183
                                            },
                                            {
                                                "children": [],
                                                "depth": 2,
                                                "name": "getFunding",
                                                "value": 1841
                                            },
                                            {
                                                "children": [
                                                    {
                                                        "children": [],
                                                        "depth": 3,
                                                        "name": "ecrecover",
                                                        "value": 3000
                                                    }
                                                ],
                                                "depth": 2,
                                                "name": "trade",
                                                "value": 42897
                                            },
                                            {
                                                "children": [
                                                    {
                                                        "children": [],
                                                        "depth": 3,
                                                        "name": "ecrecover",
                                                        "value": 3000
                                                    }
                                                ],
                                                "depth": 2,
                                                "name": "trade",
                                                "value": 42843
                                            }
                                        ],
                                        "depth": 1,
                                        "name": "trade",
                                        "value": 239080
                                    }
                                ],
                                "depth": 0,
                                "name": "Executed Gas",
                                "value": 241175
                            }
                        ],
                        "depth": -1,
                        "name": "Actual Gas Used",
                        "value": 269831
                    },
                    {
                        "children": [],
                        "depth": -1,
                        "name": "Refunded Gas",
                        "value": 4200
                    }
                ],
                "depth": -2,
                "name": "Total Gas",
                "value": 274031
            }
        ],
        "isConfirmed": true,
        "mainTrace": [
            {
                "children": [
                    {
                        "children": [
                            {
                                "children": [
                                    {
                                        "children": [
                                            {
                                                "children": [],
                                                "depth": 3,
                                                "id": 3,
                                                "order": 3
                                            }
                                        ],
                                        "depth": 2,
                                        "id": 2,
                                        "order": 2
                                    },
                                    {
                                        "children": [],
                                        "depth": 2,
                                        "id": 4,
                                        "order": 4
                                    },
                                    {
                                        "children": [],
                                        "depth": 2,
                                        "id": 5,
                                        "order": 5
                                    },
                                    {
                                        "children": [],
                                        "depth": 2,
                                        "id": 6,
                                        "order": 6
                                    },
                                    {
                                        "children": [],
                                        "depth": 2,
                                        "id": 7,
                                        "order": 7
                                    },
                                    {
                                        "children": [
                                            {
                                                "children": [],
                                                "depth": 3,
                                                "id": 9,
                                                "order": 9
                                            },
                                            {
                                                "children": [],
                                                "depth": 3,
                                                "id": 10,
                                                "order": 10
                                            }
                                        ],
                                        "depth": 2,
                                        "id": 8,
                                        "order": 8
                                    },
                                    {
                                        "children": [],
                                        "depth": 2,
                                        "id": 11,
                                        "order": 11
                                    },
                                    {
                                        "children": [
                                            {
                                                "children": [],
                                                "depth": 3,
                                                "id": 13,
                                                "order": 13
                                            },
                                            {
                                                "children": [],
                                                "depth": 3,
                                                "id": 14,
                                                "order": 14
                                            }
                                        ],
                                        "depth": 2,
                                        "id": 12,
                                        "order": 12
                                    },
                                    {
                                        "children": [],
                                        "depth": 2,
                                        "id": 15,
                                        "order": 15
                                    }
                                ],
                                "depth": 1,
                                "id": 1,
                                "order": 1
                            }
                        ],
                        "depth": 0,
                        "id": 0,
                        "order": 0
                    }
                ],
                "depth": -1,
                "id": -1,
                "order": -1
            }
        ],
        "mainTraceNodeCount": 16,
        "parentIdMap": {
            "0": -1,
            "1": 0,
            "10": 8,
            "11": 1,
            "12": 1,
            "13": 12,
            "14": 12,
            "15": 1,
            "2": 1,
            "3": 2,
            "4": 1,
            "5": 1,
            "6": 1,
            "7": 1,
            "8": 1,
            "9": 8
        },
        "tidyTrace": [
            {
                "children": [
                    {
                        "children": [
                            {
                                "children": [
                                    {
                                        "children": [],
                                        "depth": 2,
                                        "id": 5,
                                        "order": 5
                                    },
                                    {
                                        "children": [],
                                        "depth": 2,
                                        "id": 6,
                                        "order": 6
                                    },
                                    {
                                        "children": [],
                                        "depth": 2,
                                        "id": 7,
                                        "order": 7
                                    },
                                    {
                                        "children": [
                                            {
                                                "children": [],
                                                "depth": 3,
                                                "id": 10,
                                                "order": 10
                                            }
                                        ],
                                        "depth": 2,
                                        "id": 8,
                                        "order": 8
                                    },
                                    {
                                        "children": [],
                                        "depth": 2,
                                        "id": 11,
                                        "order": 11
                                    },
                                    {
                                        "children": [
                                            {
                                                "children": [],
                                                "depth": 3,
                                                "id": 14,
                                                "order": 14
                                            }
                                        ],
                                        "depth": 2,
                                        "id": 12,
                                        "order": 12
                                    },
                                    {
                                        "children": [],
                                        "depth": 2,
                                        "id": 15,
                                        "order": 15
                                    }
                                ],
                                "depth": 1,
                                "id": 1,
                                "order": 1
                            }
                        ],
                        "depth": 0,
                        "id": 0,
                        "order": 0
                    }
                ],
                "depth": -1,
                "id": -1,
                "order": -1
            }
        ],
        "tidyTraceNodeCount": 11
    },
    "state_change": {
        "stateChanges": [
            {
                "address": "0x07abe965500a49370d331ecd613c7ac47dd6e547",
                "erc": "",
                "slots": [
                    {
                        "current": "0x00000000000000000000000000000000000007cd6c1e76430a110301604f2b9c",
                        "key": "0x0000000000000000000000000000000000000000000000000000000000000008",
                        "prev": "0x00000000000000000000000000000000000007cd3f56eaaee61f7001604f2902"
                    },
                    {
                        "current": "0x00000000000000000000000000000000000007cd6c1e76430a110301604f2b9c",
                        "key": "0x4a4e99213c1c4ba3135d86b34a78d5284f4b56b1235ab72b6d01ed021c3548ca",
                        "prev": "0x00000000000000000000000000000000000007cd3f56eaaee61f7001604f2902"
                    },
                    {
                        "current": "0x0000000000000000000000aa15b5980000000000000000000311363280de0001",
                        "key": "0x98978bb1cbc4fa10ee4b07626171bc9e0c1171a3fdd4f2d2adce3b9fa8129113",
                        "prev": "0x0000000000000000000000a4b81cf800000000000000000003058b78e5b00001"
                    },
                    {
                        "current": "0x00000000000000000000000000000000000007cd6c1e76430a110301604f2b9c",
                        "key": "0x498ad221096d3cc1e97c01442a62115adb4abdbd7bb56037b9362a99f16a5701",
                        "prev": "0x00000000000000000000000000000000000007cd39275d2af6aee301604f28a6"
                    },
                    {
                        "current": "0x0000000000000000000000f96de0720000000000000000000316dbdf8de30001",
                        "key": "0xe4bfc1ae8a562d1a542dce50eb8f420426ed9ffe6157c65a03e89b6379d26e33",
                        "prev": "0x0000000000000000000000fecb79120000000000000000000322855a58a50001"
                    },
                    {
                        "current": "0x00000000000000000000000000000000000007cd6c1e76430a110301604f2b9c",
                        "key": "0xde48744a191e15faa66fc530ea8c538c3c8175637132934f62e387802f5fd4aa",
                        "prev": "0x00000000000000000000000000000000000007cd3f56eaaee61f7001604f2902"
                    },
                    {
                        "current": "0x000000000000000000000000000000000000000000000000000ef6988c230001",
                        "key": "0xbe03428c26654030c11dd26ac2a3ca5153bbd4c39d7241712f31b3de7ad97209",
                        "prev": "0x000000000000000000000000000000000000000000000000000ef21c253c0001"
                    }
                ],
                "storageVariables": [
                    {
                        "name": "_LOCAL_INDEXES_",
                        "type": "mapping(address => struct P1Types.Index)",
                        "value": {
                            "pairs": [
                                {
                                    "key": "0x000018bbb8df8de9e3eaf772db1c4eec228ef06c",
                                    "value": {
                                        "fields": [
                                            {
                                                "name": "timestamp",
                                                "type": "uint32",
                                                "value": {
                                                    "current": "1615801244",
                                                    "prev": "1615800578",
                                                    "typeTag": 1
                                                }
                                            },
                                            {
                                                "name": "isPositive",
                                                "type": "bool",
                                                "value": {
                                                    "current": "true",
                                                    "prev": "true",
                                                    "typeTag": 1
                                                }
                                            },
                                            {
                                                "name": "value",
                                                "type": "uint128",
                                                "value": {
                                                    "current": "143929448084506546435",
                                                    "prev": "143916843783231512432",
                                                    "typeTag": 1
                                                }
                                            }
                                        ],
                                        "typeTag": 3
                                    }
                                },
                                {
                                    "key": "0x000f7f22bfc28d940d4b68e13213ab17cf107790",
                                    "value": {
                                        "fields": [
                                            {
                                                "name": "timestamp",
                                                "type": "uint32",
                                                "value": {
                                                    "current": "1615801244",
                                                    "prev": "1615800486",
                                                    "typeTag": 1
                                                }
                                            },
                                            {
                                                "name": "isPositive",
                                                "type": "bool",
                                                "value": {
                                                    "current": "true",
                                                    "prev": "true",
                                                    "typeTag": 1
                                                }
                                            },
                                            {
                                                "name": "value",
                                                "type": "uint128",
                                                "value": {
                                                    "current": "143929448084506546435",
                                                    "prev": "143915102648520847075",
                                                    "typeTag": 1
                                                }
                                            }
                                        ],
                                        "typeTag": 3
                                    }
                                },
                                {
                                    "key": "0xf809e07870dca762b9536d61a4fbef1a17178092",
                                    "value": {
                                        "fields": [
                                            {
                                                "name": "timestamp",
                                                "type": "uint32",
                                                "value": {
                                                    "current": "1615801244",
                                                    "prev": "1615800578",
                                                    "typeTag": 1
                                                }
                                            },
                                            {
                                                "name": "isPositive",
                                                "type": "bool",
                                                "value": {
                                                    "current": "true",
                                                    "prev": "true",
                                                    "typeTag": 1
                                                }
                                            },
                                            {
                                                "name": "value",
                                                "type": "uint128",
                                                "value": {
                                                    "current": "143929448084506546435",
                                                    "prev": "143916843783231512432",
                                                    "typeTag": 1
                                                }
                                            }
                                        ],
                                        "typeTag": 3
                                    }
                                }
                            ],
                            "typeTag": 4
                        }
                    },
                    {
                        "name": "_BALANCES_",
                        "type": "mapping(address => struct P1Types.Balance)",
                        "value": {
                            "pairs": [
                                {
                                    "key": "0x000018bbb8df8de9e3eaf772db1c4eec228ef06c",
                                    "value": {
                                        "fields": [
                                            {
                                                "name": "marginIsPositive",
                                                "type": "bool",
                                                "value": {
                                                    "current": "true",
                                                    "prev": "true",
                                                    "typeTag": 1
                                                }
                                            },
                                            {
                                                "name": "positionIsPositive",
                                                "type": "bool",
                                                "value": {
                                                    "current": "false",
                                                    "prev": "false",
                                                    "typeTag": 1
                                                }
                                            },
                                            {
                                                "name": "margin",
                                                "type": "uint120",
                                                "value": {
                                                    "current": "3372458606814",
                                                    "prev": "3322349675952",
                                                    "typeTag": 1
                                                }
                                            },
                                            {
                                                "name": "position",
                                                "type": "uint120",
                                                "value": {
                                                    "current": "2853549464",
                                                    "prev": "2763529464",
                                                    "typeTag": 1
                                                }
                                            }
                                        ],
                                        "typeTag": 3
                                    }
                                },
                                {
                                    "key": "0x000f7f22bfc28d940d4b68e13213ab17cf107790",
                                    "value": {
                                        "fields": [
                                            {
                                                "name": "marginIsPositive",
                                                "type": "bool",
                                                "value": {
                                                    "current": "true",
                                                    "prev": "true",
                                                    "typeTag": 1
                                                }
                                            },
                                            {
                                                "name": "positionIsPositive",
                                                "type": "bool",
                                                "value": {
                                                    "current": "false",
                                                    "prev": "false",
                                                    "typeTag": 1
                                                }
                                            },
                                            {
                                                "name": "margin",
                                                "type": "uint120",
                                                "value": {
                                                    "current": "3396713024995",
                                                    "prev": "3446801062053",
                                                    "typeTag": 1
                                                }
                                            },
                                            {
                                                "name": "position",
                                                "type": "uint120",
                                                "value": {
                                                    "current": "4184727666",
                                                    "prev": "4274747666",
                                                    "typeTag": 1
                                                }
                                            }
                                        ],
                                        "typeTag": 3
                                    }
                                },
                                {
                                    "key": "0xf809e07870dca762b9536d61a4fbef1a17178092",
                                    "value": {
                                        "fields": [
                                            {
                                                "name": "marginIsPositive",
                                                "type": "bool",
                                                "value": {
                                                    "current": "true",
                                                    "prev": "true",
                                                    "typeTag": 1
                                                }
                                            },
                                            {
                                                "name": "positionIsPositive",
                                                "type": "bool",
                                                "value": {
                                                    "current": "false",
                                                    "prev": "false",
                                                    "typeTag": 1
                                                }
                                            },
                                            {
                                                "name": "margin",
                                                "type": "uint120",
                                                "value": {
                                                    "current": "64266734627",
                                                    "prev": "64191472956",
                                                    "typeTag": 1
                                                }
                                            },
                                            {
                                                "name": "position",
                                                "type": "uint120",
                                                "value": {
                                                    "current": "0",
                                                    "prev": "0",
                                                    "typeTag": 1
                                                }
                                            }
                                        ],
                                        "typeTag": 3
                                    }
                                }
                            ],
                            "typeTag": 4
                        }
                    },
                    {
                        "name": "_GLOBAL_INDEX_",
                        "type": "struct P1Types.Index",
                        "value": {
                            "fields": [
                                {
                                    "name": "timestamp",
                                    "type": "uint32",
                                    "value": {
                                        "current": "1615801244",
                                        "prev": "1615800578",
                                        "typeTag": 1
                                    }
                                },
                                {
                                    "name": "isPositive",
                                    "type": "bool",
                                    "value": {
                                        "current": "true",
                                        "prev": "true",
                                        "typeTag": 1
                                    }
                                },
                                {
                                    "name": "value",
                                    "type": "uint128",
                                    "value": {
                                        "current": "143929448084506546435",
                                        "prev": "143916843783231512432",
                                        "typeTag": 1
                                    }
                                }
                            ],
                            "typeTag": 3
                        }
                    }
                ]
            },
            {
                "address": "0x3ea6f88ec8f7b24bb3ad206fa80124210e8e28f3",
                "erc": "",
                "slots": [
                    {
                        "current": "0x00000000000000000000000000000000000000000000000000000000055d98a0",
                        "key": "0xabe814db3c36eca1692210ead81433043ccb572825af1118e04eb089441c4f54",
                        "prev": "0x0000000000000000000000000000000000000000000000000000000000000000"
                    },
                    {
                        "current": "0x00000000000000000000000000000000000000000000000000000000055d98a0",
                        "key": "0x6598be8e8652f6082a5c4ba891313d222c6e90b6ce606ad16928db9571a52962",
                        "prev": "0x0000000000000000000000000000000000000000000000000000000000000000"
                    }
                ],
                "storageVariables": [
                    {
                        "name": "_FILLED_AMOUNT_",
                        "type": "mapping(bytes32 => uint256)",
                        "value": {
                            "pairs": [
                                {
                                    "key": "0xa7190a0cb288cc9016573b6677a2dedae3fc8fb2e5ce90143a419e021f324603",
                                    "value": {
                                        "current": "90020000",
                                        "prev": "0",
                                        "typeTag": 1
                                    }
                                },
                                {
                                    "key": "0xb1f452cef196cef8e22c3cc52498a8e85a06ec41b18be18dc75ce503d4f6e4e8",
                                    "value": {
                                        "current": "90020000",
                                        "prev": "0",
                                        "typeTag": 1
                                    }
                                }
                            ],
                            "typeTag": 4
                        }
                    }
                ]
            }
        ]
    }
}