{
    "balance_change": {
        "balanceChanges": []
    },
    "profile": {
        "basic_info": {
            "baseFee": "",
            "blockNumber": 9695331,
            "callData": "0x71b773440000000000000000000000000000000000000000000000000000000000000040000000000000000000000000000000000000000000000000000000005e7205bd0000000000000000000000000000000000000000000000000000000000000041535724628cb7d303acd7046b57c212903db921f4aeb9fda57d52f90e61f3a41d013217c038bc154f97d3078f5227d1f60a7f07284258766f1f2cecad7578eb3e0000000000000000000000000000000000000000000000000000000000000000",
            "debugEnable": true,
            "errorInfo": "",
            "eventCount": 1,
            "feeRecipient": "0xea674fdde714fd979de3edf0f56aa9716b898ec8",
            "formatValue": "0",
            "gasLimit": 58890,
            "gasPrice": "7.5",
            "gasUsed": 39260,
            "intTxnCount": 1,
            "internalRevert": false,
            "internalRevertMessage": "",
            "isContractCreation": false,
            "isFlashloan": false,
            "maxFee": "",
            "nonce": 295,
            "overwritedBlockNumber": -1,
            "priorityFee": "",
            "receiver": "0x5e07b6f1b98a11f7e04e7ffa8707b63f1c177753",
            "revertMessage": "",
            "sender": "0xb397d34d09fd5108632194d9d65da5ca2c4bbf35",
            "simulationEnable": true,
            "sourceTxnHash": "0xa0a9d7e86399353035b7f697920135448b01f3baa9a8709e81ba86b4beda81ff",
            "status": true,
            "timestamp": "2020-03-18T11:31:32Z",
            "transactionFee": "0.00029445",
            "txnHash": "0xa0a9d7e86399353035b7f697920135448b01f3baa9a8709e81ba86b4beda81ff",
            "txnIndex": 103,
            "type": 0,
            "value": "0"
        },
        "fund_flow": [],
        "token_infos": [
            {
                "address": "0xc02aaa39b223fe8d0a0e5c4f27ead9083c756cc2",
                "decimals": 18
            },
            {
                "address": "0xeeeeeeeeeeeeeeeeeeeeeeeeeeeeeeeeeeeeeeee",
                "decimals": 18
            }
        ]
    },
    "address_label": {
        "labels": [
            {
                "address": "0xeeeeeeeeeeeeeeeeeeeeeeeeeeeeeeeeeeeeeeee",
                "label": "Ether"
            },
            {
                "address": "0x5e07b6f1b98a11f7e04e7ffa8707b63f1c177753",
                "label": "MCH: Daily Action 3"
            },
            {
                "address": "0x0000000000000000000000000000000000000001",
                "label": "Precompiled"
            },
            {
                "address": "0x0000000000000000000000000000000000000002",
                "label": "Precompiled"
            },
            {
                "address": "0x0000000000000000000000000000000000000003",
                "label": "Precompiled"
            },
            {
                "address": "0x0000000000000000000000000000000000000004",
                "label": "Precompiled"
            }
        ]
    },
    "trace": {
        "accountLabels": null,
        "dataMap": {
            "-1": {
                "invocation": {
                    "address": "0xb397d34d09fd5108632194d9d65da5ca2c4bbf35",
                    "callData": "",
                    "decodedMethod": null,
                    "errorInfo": "",
                    "fromAddress": "",
                    "gasUsed": 0,
                    "id": -1,
                    "methodDecoded": false,
                    "operation": "",
                    "output": "",
                    "revert": false,
                    "revertMessage": "",
                    "selector": "",
                    "status": false,
                    "value": ""
                },
                "nodeType": 0
            },
            "0": {
                "invocation": {
                    "address": "0x5e07b6f1b98a11f7e04e7ffa8707b63f1c177753",
                    "callData": "0x0000000000000000000000000000000000000000000000000000000000000040000000000000000000000000000000000000000000000000000000005e7205bd0000000000000000000000000000000000000000000000000000000000000041535724628cb7d303acd7046b57c212903db921f4aeb9fda57d52f90e61f3a41d013217c038bc154f97d3078f5227d1f60a7f07284258766f1f2cecad7578eb3e0000000000000000000000000000000000000000000000000000000000000000",
                    "decodedMethod": {
                        "callParams": [
                            {
                                "name": "_signature",
                                "type": "bytes",
                                "value": "0x535724628cb7d303acd7046b57c212903db921f4aeb9fda57d52f90e61f3a41d013217c038bc154f97d3078f5227d1f60a7f07284258766f1f2cecad7578eb3e00"
                            },
                            {
                                "name": "_time",
                                "type": "int64",
                                "value": "1,584,530,877"
                            }
                        ],
                        "constructorArguments": "",
                        "name": "requestDailyActionReward",
                        "returnParams": [],
                        "signature": "requestDailyActionReward(bytes,int64)"
                    },
                    "errorInfo": "",
                    "fromAddress": "0xb397d34d09fd5108632194d9d65da5ca2c4bbf35",
                    "gasUsed": 39260,
                    "id": 0,
                    "methodDecoded": true,
                    "operation": "CALL",
                    "output": "",
                    "revert": false,
                    "revertMessage": "",
                    "selector": "0x71b77344",
                    "status": true,
                    "value": "0"
                },
                "nodeType": 0
            },
            "1": {
                "invocation": {
                    "address": "0x0000000000000000000000000000000000000001",
                    "callData": "0xacd803f36aecf85e586c6d8c2c81a8d3b85c21da5eec47d97a330c24000000000000000000000000000000000000000000000000000000000000001b535724628cb7d303acd7046b57c212903db921f4aeb9fda57d52f90e61f3a41d013217c038bc154f97d3078f5227d1f60a7f07284258766f1f2cecad7578eb3e",
                    "decodedMethod": {
                        "callParams": [
                            {
                                "name": "hash",
                                "type": "bytes32",
                                "value": "0xb5a1420cacd803f36aecf85e586c6d8c2c81a8d3b85c21da5eec47d97a330c24"
                            },
                            {
                                "name": "v",
                                "type": "uint256",
                                "value": "27"
                            },
                            {
                                "name": "r",
                                "type": "bytes32",
                                "value": "0x535724628cb7d303acd7046b57c212903db921f4aeb9fda57d52f90e61f3a41d"
                            },
                            {
                                "name": "s",
                                "type": "bytes32",
                                "value": "0x013217c038bc154f97d3078f5227d1f60a7f07284258766f1f2cecad7578eb3e"
                            }
                        ],
                        "constructorArguments": "",
                        "name": "ecrecover",
                        "returnParams": [
                            {
                                "name": "",
                                "type": "address",
                                "value": "0x984e7b0f2cb06b847dd465eec65a3a41c1e27c06"
                            }
                        ],
                        "signature": "ecrecover(bytes32,uint256,bytes32,bytes32)"
                    },
                    "errorInfo": "",
                    "fromAddress": "0x5e07b6f1b98a11f7e04e7ffa8707b63f1c177753",
                    "gasUsed": 3000,
                    "id": 1,
                    "methodDecoded": true,
                    "operation": "STATICCALL",
                    "output": "0x000000000000000000000000984e7b0f2cb06b847dd465eec65a3a41c1e27c06",
                    "revert": false,
                    "revertMessage": "",
                    "selector": "0xb5a1420c",
                    "status": true,
                    "value": "0"
                },
                "nodeType": 0
            },
            "2": {
                "event": {
                    "contract": "0x5e07b6f1b98a11f7e04e7ffa8707b63f1c177753",
                    "decodedLog": {
                        "name": "Action",
                        "params": [
                            {
                                "name": "user",
                                "type": "address",
                                "value": "0xb397d34d09fd5108632194d9d65da5ca2c4bbf35"
                            },
                            {
                                "name": "at",
                                "type": "int64",
                                "value": "1,584,530,877"
                            }
                        ],
                        "signature": "Action(address,int64)"
                    },
                    "id": 2,
                    "logData": "0x000000000000000000000000000000000000000000000000000000005e7205bd",
                    "logDecoded": true,
                    "operation": "EVENT",
                    "revert": false,
                    "status": true,
                    "topics": [
                        "0x708861da4aa6afa7c59ec1b6595bfacef3b852515c06faafba359c70bc640e8c",
                        "0x000000000000000000000000b397d34d09fd5108632194d9d65da5ca2c4bbf35"
                    ]
                },
                "nodeType": 1
            }
        },
        "gasFlame": [
            {
                "children": [
                    {
                        "children": [
                            {
                                "children": [],
                                "depth": 0,
                                "name": "Initial Gas",
                                "value": 22672
                            },
                            {
                                "children": [
                                    {
                                        "children": [],
                                        "depth": 1,
                                        "name": "ecrecover",
                                        "value": 3000
                                    }
                                ],
                                "depth": 0,
                                "name": "Executed Gas",
                                "value": 16588
                            }
                        ],
                        "depth": -1,
                        "name": "Actual Gas Used",
                        "value": 39260
                    },
                    {
                        "children": [],
                        "depth": -1,
                        "name": "Refunded Gas",
                        "value": 0
                    }
                ],
                "depth": -2,
                "name": "Total Gas",
                "value": 39260
            }
        ],
        "isConfirmed": true,
        "mainTrace": [
            {
                "children": [
                    {
                        "children": [
                            {
                                "children": [],
                                "depth": 1,
                                "id": 1,
                                "order": 1
                            },
                            {
                                "children": [],
                                "depth": 1,
                                "id": 2,
                                "order": 2
                            }
                        ],
                        "depth": 0,
                        "id": 0,
                        "order": 0
                    }
                ],
                "depth": -1,
                "id": -1,
                "order": -1
            }
        ],
        "mainTraceNodeCount": 3,
        "parentIdMap": {
            "0": -1,
            "1": 0,
            "2": 0
        },
        "tidyTrace": [
            {
                "children": [
                    {
                        "children": [
                            {
                                "children": [],
                                "depth": 1,
                                "id": 2,
                                "order": 2
                            }
                        ],
                        "depth": 0,
                        "id": 0,
                        "order": 0
                    }
                ],
                "depth": -1,
                "id": -1,
                "order": -1
            }
        ],
        "tidyTraceNodeCount": 2
    },
    "state_change": {
        "stateChanges": [
            {
                "address": "0x5e07b6f1b98a11f7e04e7ffa8707b63f1c177753",
                "erc": "",
                "slots": [
                    {
                        "current": "0x00000000000000000000000000000000000000000000000000000000000047a3",
                        "key": "0x5269942ad8e286a102c77dce239eafb5e96ab937fd866046bffbb0e59f53c078",
                        "prev": "0x00000000000000000000000000000000000000000000000000000000000047a2"
                    }
                ],
                "storageVariables": [
                    {
                        "name": "lastActionDate",
                        "type": "mapping(address => int64)",
                        "value": {
                            "pairs": [
                                {
                                    "key": "0xb397d34d09fd5108632194d9d65da5ca2c4bbf35",
                                    "value": {
                                        "current": "18339",
                                        "prev": "18338",
                                        "typeTag": 1
                                    }
                                }
                            ],
                            "typeTag": 4
                        }
                    }
                ]
            }
        ]
    }
}