{
    "balance_change": {
        "balanceChanges": [
            {
                "account": "0x401e33a77785537ce6e9cc9d5df0b6dc8f228c51",
                "assets": [
                    {
                        "address": "0xdecd5780a9d50a96f34ce7e9e636903f6f3b47f5",
                        "amount": "2,000",
                        "iconUrl": "",
                        "isERC1155": false,
                        "isERC721": false,
                        "sign": false,
                        "value": ""
                    }
                ]
            },
            {
                "account": "0x38008d3ca35b8b22c90b9dec2825ca5cf1642b3d",
                "assets": [
                    {
                        "address": "0xdecd5780a9d50a96f34ce7e9e636903f6f3b47f5",
                        "amount": "2,000",
                        "iconUrl": "",
                        "isERC1155": false,
                        "isERC721": false,
                        "sign": true,
                        "value": ""
                    }
                ]
            }
        ]
    },
    "profile": {
        "basic_info": {
            "baseFee": "",
            "blockNumber": 6413863,
            "callData": "0xa9059cbb00000000000000000000000038008d3ca35b8b22c90b9dec2825ca5cf1642b3d0000000000000000000000000000000000000000000000000000002e90edd000",
            "debugEnable": true,
            "errorInfo": "",
            "eventCount": 1,
            "feeRecipient": "0x52bc44d5378309ee2abf1539bf71de1b7d7be3b5",
            "formatValue": "0",
            "gasLimit": 60000,
            "gasPrice": "10",
            "gasUsed": 21280,
            "intTxnCount": 0,
            "internalRevert": false,
            "internalRevertMessage": "",
            "isContractCreation": false,
            "isFlashloan": false,
            "maxFee": "",
            "nonce": 0,
            "overwritedBlockNumber": -1,
            "priorityFee": "",
            "receiver": "0xdecd5780a9d50a96f34ce7e9e636903f6f3b47f5",
            "revertMessage": "",
            "sender": "0x401e33a77785537ce6e9cc9d5df0b6dc8f228c51",
            "simulationEnable": true,
            "sourceTxnHash": "0xa0a6b1d58042451e48a8189d7bfbe123bd43eed35ea46b65a8ae73590cd09553",
            "status": true,
            "timestamp": "2018-09-28T07:25:51Z",
            "transactionFee": "0.0002128",
            "txnHash": "0xa0a6b1d58042451e48a8189d7bfbe123bd43eed35ea46b65a8ae73590cd09553",
            "txnIndex": 47,
            "type": 0,
            "value": "0"
        },
        "fund_flow": [
            {
                "amount": "2,000",
                "from": "0x401e33a77785537ce6e9cc9d5df0b6dc8f228c51",
                "id": 1,
                "isERC1155": false,
                "isERC721": false,
                "isReverted": false,
                "order": 1,
                "to": "0x38008d3ca35b8b22c90b9dec2825ca5cf1642b3d",
                "token": "0xdecd5780a9d50a96f34ce7e9e636903f6f3b47f5"
            }
        ],
        "token_infos": [
            {
                "address": "0xc02aaa39b223fe8d0a0e5c4f27ead9083c756cc2",
                "decimals": 18
            },
            {
                "address": "0xdecd5780a9d50a96f34ce7e9e636903f6f3b47f5",
                "decimals": 8
            },
            {
                "address": "0xeeeeeeeeeeeeeeeeeeeeeeeeeeeeeeeeeeeeeeee",
                "decimals": 18
            }
        ]
    },
    "address_label": {
        "labels": [
            {
                "address": "0x0000000000000000000000000000000000000003",
                "label": "Precompiled"
            },
            {
                "address": "0x0000000000000000000000000000000000000004",
                "label": "Precompiled"
            },
            {
                "address": "0xeeeeeeeeeeeeeeeeeeeeeeeeeeeeeeeeeeeeeeee",
                "label": "Ether"
            },
            {
                "address": "0xdecd5780a9d50a96f34ce7e9e636903f6f3b47f5",
                "label": "WalletChain (WEC)"
            },
            {
                "address": "0x0000000000000000000000000000000000000001",
                "label": "Precompiled"
            },
            {
                "address": "0x0000000000000000000000000000000000000002",
                "label": "Precompiled"
            }
        ]
    },
    "trace": {
        "accountLabels": null,
        "dataMap": {
            "-1": {
                "invocation": {
                    "address": "0x401e33a77785537ce6e9cc9d5df0b6dc8f228c51",
                    "callData": "",
                    "decodedMethod": null,
                    "errorInfo": "",
                    "fromAddress": "",
                    "gasUsed": 0,
                    "id": -1,
                    "methodDecoded": false,
                    "operation": "",
                    "output": "",
                    "revert": false,
                    "revertMessage": "",
                    "selector": "",
                    "status": false,
                    "value": ""
                },
                "nodeType": 0
            },
            "0": {
                "invocation": {
                    "address": "0xdecd5780a9d50a96f34ce7e9e636903f6f3b47f5",
                    "callData": "0x00000000000000000000000038008d3ca35b8b22c90b9dec2825ca5cf1642b3d0000000000000000000000000000000000000000000000000000002e90edd000",
                    "decodedMethod": {
                        "callParams": [
                            {
                                "name": "_to",
                                "type": "address",
                                "value": "0x38008d3ca35b8b22c90b9dec2825ca5cf1642b3d"
                            },
                            {
                                "decimalAvailable": true,
                                "name": "_value",
                                "type": "uint256",
                                "value": "200,000,000,000"
                            }
                        ],
                        "constructorArguments": "",
                        "name": "transfer",
                        "returnParams": [
                            {
                                "name": "success",
                                "type": "bool",
                                "value": true
                            }
                        ],
                        "signature": "transfer(address,uint256)"
                    },
                    "errorInfo": "",
                    "fromAddress": "0x401e33a77785537ce6e9cc9d5df0b6dc8f228c51",
                    "gasUsed": 21280,
                    "id": 0,
                    "methodDecoded": true,
                    "operation": "CALL",
                    "output": "0x0000000000000000000000000000000000000000000000000000000000000001",
                    "revert": false,
                    "revertMessage": "",
                    "selector": "0xa9059cbb",
                    "status": true,
                    "value": "0"
                },
                "nodeType": 0
            },
            "1": {
                "event": {
                    "contract": "0xdecd5780a9d50a96f34ce7e9e636903f6f3b47f5",
                    "decodedLog": {
                        "name": "Transfer",
                        "params": [
                            {
                                "name": "_from",
                                "type": "address",
                                "value": "0x401e33a77785537ce6e9cc9d5df0b6dc8f228c51"
                            },
                            {
                                "name": "_to",
                                "type": "address",
                                "value": "0x38008d3ca35b8b22c90b9dec2825ca5cf1642b3d"
                            },
                            {
                                "decimalAvailable": true,
                                "name": "_value",
                                "type": "uint256",
                                "value": "200,000,000,000"
                            }
                        ],
                        "signature": "Transfer(address,address,uint256)"
                    },
                    "id": 1,
                    "logData": "0x0000000000000000000000000000000000000000000000000000002e90edd000",
                    "logDecoded": true,
                    "operation": "EVENT",
                    "revert": false,
                    "status": true,
                    "topics": [
                        "0xddf252ad1be2c89b69c2b068fc378daa952ba7f163c4a11628f55a4df523b3ef",
                        "0x000000000000000000000000401e33a77785537ce6e9cc9d5df0b6dc8f228c51",
                        "0x00000000000000000000000038008d3ca35b8b22c90b9dec2825ca5cf1642b3d"
                    ]
                },
                "nodeType": 1
            }
        },
        "gasFlame": [
            {
                "children": [
                    {
                        "children": [
                            {
                                "children": [],
                                "depth": 0,
                                "name": "Initial Gas",
                                "value": 23000
                            },
                            {
                                "children": [],
                                "depth": 0,
                                "name": "Executed Gas",
                                "value": 13280
                            }
                        ],
                        "depth": -1,
                        "name": "Actual Gas Used",
                        "value": 21280
                    },
                    {
                        "children": [],
                        "depth": -1,
                        "name": "Refunded Gas",
                        "value": 15000
                    }
                ],
                "depth": -2,
                "name": "Total Gas",
                "value": 36280
            }
        ],
        "isConfirmed": true,
        "mainTrace": [
            {
                "children": [
                    {
                        "children": [
                            {
                                "children": [],
                                "depth": 1,
                                "id": 1,
                                "order": 1
                            }
                        ],
                        "depth": 0,
                        "id": 0,
                        "order": 0
                    }
                ],
                "depth": -1,
                "id": -1,
                "order": -1
            }
        ],
        "mainTraceNodeCount": 2,
        "parentIdMap": {
            "0": -1,
            "1": 0
        },
        "tidyTrace": [
            {
                "children": [
                    {
                        "children": [
                            {
                                "children": [],
                                "depth": 1,
                                "id": 1,
                                "order": 1
                            }
                        ],
                        "depth": 0,
                        "id": 0,
                        "order": 0
                    }
                ],
                "depth": -1,
                "id": -1,
                "order": -1
            }
        ],
        "tidyTraceNodeCount": 2
    },
    "state_change": {
        "stateChanges": [
            {
                "address": "0xdecd5780a9d50a96f34ce7e9e636903f6f3b47f5",
                "erc": "ERC-20",
                "slots": [
                    {
                        "current": "0x0000000000000000000000000000000000000000000000000000000000000000",
                        "key": "0x3ab1ee902598468c8c783f69460c342f9339fce5195ca5e3a783be9be0192faa",
                        "prev": "0x0000000000000000000000000000000000000000000000000000002e90edd000"
                    },
                    {
                        "current": "0x000000000000000000000000000000000000000000000000000e868804a19dd3",
                        "key": "0x9bac6b40890f83bd5b50d3e1e8ca3722bc4efa893aa3827c293d8ebf82a6a8ff",
                        "prev": "0x000000000000000000000000000000000000000000000000000e865973b3cdd3"
                    }
                ],
                "storageVariables": [
                    {
                        "name": "balances",
                        "type": "mapping(address => uint256)",
                        "value": {
                            "pairs": [
                                {
                                    "key": "0x38008d3ca35b8b22c90b9dec2825ca5cf1642b3d",
                                    "value": {
                                        "current": "4088568425323987",
                                        "prev": "4088368425323987",
                                        "typeTag": 1
                                    }
                                },
                                {
                                    "key": "0x401e33a77785537ce6e9cc9d5df0b6dc8f228c51",
                                    "value": {
                                        "current": "0",
                                        "prev": "200000000000",
                                        "typeTag": 1
                                    }
                                }
                            ],
                            "typeTag": 4
                        }
                    }
                ]
            }
        ]
    }
}