{
    "balance_change": {
        "balanceChanges": []
    },
    "profile": {
        "basic_info": {
            "baseFee": "",
            "blockNumber": 10705975,
            "callData": "0x38ed17390000000000000000000000000000000000000000000001cd38233c1cdc45fc6c0000000000000000000000000000000000000000000000028fc408868ba0efca00000000000000000000000000000000000000000000000000000000000000a0000000000000000000000000e72f5f91e693e36684270299b73575540141dd2a000000000000000000000000000000000000000000000000000000005f403ffc000000000000000000000000000000000000000000000000000000000000000200000000000000000000000057ab1ec28d129707052df4df418d58a2d46d5f5100000000000000000000000068a118ef45063051eac49c7e647ce5ace48a68a5",
            "debugEnable": true,
            "errorInfo": "execution reverted",
            "eventCount": 0,
            "feeRecipient": "0xd224ca0c819e8e97ba0136b3b95ceff503b79f53",
            "formatValue": "0",
            "gasLimit": 214420,
            "gasPrice": "107",
            "gasUsed": 29054,
            "intTxnCount": 1,
            "internalRevert": true,
            "internalRevertMessage": "",
            "isContractCreation": false,
            "isFlashloan": false,
            "maxFee": "",
            "nonce": 5,
            "overwritedBlockNumber": -1,
            "priorityFee": "",
            "receiver": "0x7a250d5630b4cf539739df2c5dacb4c659f2488d",
            "revertMessage": "+UniswapV2Router: INSUFFICIENT_OUTPUT_AMOUNT",
            "sender": "0xe72f5f91e693e36684270299b73575540141dd2a",
            "simulationEnable": true,
            "sourceTxnHash": "0xa0d393ab66a9b6f46da78284636f1b2c21dc57495d99b48c8005518262f5982c",
            "status": false,
            "timestamp": "2020-08-21T21:25:12Z",
            "transactionFee": "0.003108778",
            "txnHash": "0xa0d393ab66a9b6f46da78284636f1b2c21dc57495d99b48c8005518262f5982c",
            "txnIndex": 105,
            "type": 0,
            "value": "0"
        },
        "fund_flow": [],
        "token_infos": [
            {
                "address": "0xc02aaa39b223fe8d0a0e5c4f27ead9083c756cc2",
                "decimals": 18
            },
            {
                "address": "0xeeeeeeeeeeeeeeeeeeeeeeeeeeeeeeeeeeeeeeee",
                "decimals": 18
            }
        ]
    },
    "address_label": {
        "labels": [
            {
                "address": "0x7a250d5630b4cf539739df2c5dacb4c659f2488d",
                "label": "Uniswap V2: Router 2"
            },
            {
                "address": "0x0000000000000000000000000000000000000003",
                "label": "Precompiled"
            },
            {
                "address": "0x0000000000000000000000000000000000000004",
                "label": "Precompiled"
            },
            {
                "address": "0x0000000000000000000000000000000000000001",
                "label": "Precompiled"
            },
            {
                "address": "0x0000000000000000000000000000000000000002",
                "label": "Precompiled"
            },
            {
                "address": "0xeeeeeeeeeeeeeeeeeeeeeeeeeeeeeeeeeeeeeeee",
                "label": "Ether"
            },
            {
                "address": "0xaad22f5543fcdaa694b68f94be177b561836ae57",
                "label": "Uniswap V2: sUSD-$BASED"
            },
            {
                "address": "0x57ab1ec28d129707052df4df418d58a2d46d5f51",
                "label": "Synthetix: Proxy sUSD Token"
            },
            {
                "address": "0x68a118ef45063051eac49c7e647ce5ace48a68a5",
                "label": "Based.Money: $BASED Token v1.5"
            }
        ]
    },
    "trace": {
        "accountLabels": null,
        "dataMap": {
            "-1": {
                "invocation": {
                    "address": "0xe72f5f91e693e36684270299b73575540141dd2a",
                    "callData": "",
                    "decodedMethod": null,
                    "errorInfo": "",
                    "fromAddress": "",
                    "gasUsed": 0,
                    "id": -1,
                    "methodDecoded": false,
                    "operation": "",
                    "output": "",
                    "revert": false,
                    "revertMessage": "",
                    "selector": "",
                    "status": false,
                    "value": ""
                },
                "nodeType": 0
            },
            "0": {
                "invocation": {
                    "address": "0x7a250d5630b4cf539739df2c5dacb4c659f2488d",
                    "callData": "0x0000000000000000000000000000000000000000000001cd38233c1cdc45fc6c0000000000000000000000000000000000000000000000028fc408868ba0efca00000000000000000000000000000000000000000000000000000000000000a0000000000000000000000000e72f5f91e693e36684270299b73575540141dd2a000000000000000000000000000000000000000000000000000000005f403ffc000000000000000000000000000000000000000000000000000000000000000200000000000000000000000057ab1ec28d129707052df4df418d58a2d46d5f5100000000000000000000000068a118ef45063051eac49c7e647ce5ace48a68a5",
                    "decodedMethod": {
                        "callParams": [
                            {
                                "name": "amountIn",
                                "type": "uint256",
                                "value": "8,507,994,160,965,064,457,324"
                            },
                            {
                                "name": "amountOutMin",
                                "type": "uint256",
                                "value": "47,252,902,564,239,306,698"
                            },
                            {
                                "name": "path",
                                "type": "address[]",
                                "value": [
                                    "0x57ab1ec28d129707052df4df418d58a2d46d5f51",
                                    "0x68a118ef45063051eac49c7e647ce5ace48a68a5"
                                ]
                            },
                            {
                                "name": "to",
                                "type": "address",
                                "value": "0xe72f5f91e693e36684270299b73575540141dd2a"
                            },
                            {
                                "name": "deadline",
                                "type": "uint256",
                                "value": "1,598,046,204"
                            }
                        ],
                        "constructorArguments": "",
                        "name": "swapExactTokensForTokens",
                        "returnParams": [],
                        "signature": "swapExactTokensForTokens(uint256,uint256,address[],address,uint256)"
                    },
                    "errorInfo": "execution reverted",
                    "fromAddress": "0xe72f5f91e693e36684270299b73575540141dd2a",
                    "gasUsed": 29054,
                    "id": 0,
                    "methodDecoded": true,
                    "operation": "CALL",
                    "output": "0x08c379a00000000000000000000000000000000000000000000000000000000000000020000000000000000000000000000000000000000000000000000000000000002b556e69737761705632526f757465723a20494e53554646494349454e545f4f55545055545f414d4f554e54000000000000000000000000000000000000000000",
                    "revert": true,
                    "revertMessage": "+UniswapV2Router: INSUFFICIENT_OUTPUT_AMOUNT",
                    "selector": "0x38ed1739",
                    "status": false,
                    "value": "0"
                },
                "nodeType": 0
            },
            "1": {
                "invocation": {
                    "address": "0xaad22f5543fcdaa694b68f94be177b561836ae57",
                    "callData": "0x",
                    "decodedMethod": {
                        "callParams": [],
                        "constructorArguments": "",
                        "name": "getReserves",
                        "returnParams": [
                            {
                                "name": "_reserve0",
                                "type": "uint112",
                                "value": "4,712,991,955,824,275,200,215,363"
                            },
                            {
                                "name": "_reserve1",
                                "type": "uint112",
                                "value": "25,349,555,835,586,169,582,479"
                            },
                            {
                                "name": "_blockTimestampLast",
                                "type": "uint32",
                                "value": "1,598,045,066"
                            }
                        ],
                        "signature": "getReserves()"
                    },
                    "errorInfo": "",
                    "fromAddress": "0x7a250d5630b4cf539739df2c5dacb4c659f2488d",
                    "gasUsed": 1204,
                    "id": 1,
                    "methodDecoded": true,
                    "operation": "STATICCALL",
                    "output": "0x00000000000000000000000000000000000000000003e603ce4d889be41d094300000000000000000000000000000000000000000000055e33c1c4c33c1cb38f000000000000000000000000000000000000000000000000000000005f403b8a",
                    "revert": true,
                    "revertMessage": "",
                    "selector": "0x0902f1ac",
                    "status": true,
                    "value": "0"
                },
                "nodeType": 0
            }
        },
        "gasFlame": [
            {
                "children": [
                    {
                        "children": [
                            {
                                "children": [],
                                "depth": 0,
                                "name": "Initial Gas",
                                "value": 23108
                            },
                            {
                                "children": [
                                    {
                                        "children": [],
                                        "depth": 1,
                                        "name": "getReserves",
                                        "value": 1204
                                    }
                                ],
                                "depth": 0,
                                "name": "Executed Gas",
                                "value": 5946
                            }
                        ],
                        "depth": -1,
                        "name": "Actual Gas Used",
                        "value": 29054
                    },
                    {
                        "children": [],
                        "depth": -1,
                        "name": "Refunded Gas",
                        "value": 0
                    }
                ],
                "depth": -2,
                "name": "Total Gas",
                "value": 29054
            }
        ],
        "isConfirmed": true,
        "mainTrace": [
            {
                "children": [
                    {
                        "children": [
                            {
                                "children": [],
                                "depth": 1,
                                "id": 1,
                                "order": 1
                            }
                        ],
                        "depth": 0,
                        "id": 0,
                        "order": 0
                    }
                ],
                "depth": -1,
                "id": -1,
                "order": -1
            }
        ],
        "mainTraceNodeCount": 2,
        "parentIdMap": {
            "0": -1,
            "1": 0
        },
        "tidyTrace": [
            {
                "children": [
                    {
                        "children": [],
                        "depth": 0,
                        "id": 0,
                        "order": 0
                    }
                ],
                "depth": -1,
                "id": -1,
                "order": -1
            }
        ],
        "tidyTraceNodeCount": 1
    },
    "state_change": {
        "stateChanges": []
    }
}