{
    "balance_change": {
        "balanceChanges": []
    },
    "profile": {
        "basic_info": {
            "baseFee": "1.259564365",
            "blockNumber": 20705930,
            "callData": "0x38ed173900000000000000000000000000000000000000000000000006ce4de1adb48ca80000000000000000000000000000000000000000000000000368dc300c43634800000000000000000000000000000000000000000000000000000000000000a00000000000000000000000003229378620b8318f3012fb32d63363e5d5b229470000000000000000000000000000000000000000000000000000000066dd9a650000000000000000000000000000000000000000000000000000000000000002000000000000000000000000bb376e82b796ec9d5ba68b10b33f79cbe612dc07000000000000000000000000c02aaa39b223fe8d0a0e5c4f27ead9083c756cc2",
            "debugEnable": true,
            "errorInfo": "execution reverted",
            "eventCount": 0,
            "feeRecipient": "0x1f9090aae28b8a3dceadf281b0f12828e676c326",
            "formatValue": "0",
            "gasLimit": 300000,
            "gasPrice": "1.770664365",
            "gasUsed": 31618,
            "intTxnCount": 1,
            "internalRevert": true,
            "internalRevertMessage": "",
            "isContractCreation": false,
            "isFlashloan": false,
            "maxFee": "30",
            "nonce": 193,
            "overwritedBlockNumber": -1,
            "priorityFee": "0.5111",
            "receiver": "0x7a250d5630b4cf539739df2c5dacb4c659f2488d",
            "revertMessage": "+UniswapV2Router: INSUFFICIENT_OUTPUT_AMOUNT",
            "sender": "0x3229378620b8318f3012fb32d63363e5d5b22947",
            "simulationEnable": true,
            "sourceTxnHash": "0xa02bebff1b9355e40f79c970ec34345d3bc5d4c4eb92db36adf44579deadef5b",
            "status": false,
            "timestamp": "2024-09-08T12:36:35Z",
            "transactionFee": "0.00005598486589257",
            "txnHash": "0xa02bebff1b9355e40f79c970ec34345d3bc5d4c4eb92db36adf44579deadef5b",
            "txnIndex": 45,
            "type": 2,
            "value": "0"
        },
        "fund_flow": [],
        "token_infos": [
            {
                "address": "0xc02aaa39b223fe8d0a0e5c4f27ead9083c756cc2",
                "decimals": 18
            },
            {
                "address": "0xeeeeeeeeeeeeeeeeeeeeeeeeeeeeeeeeeeeeeeee",
                "decimals": 18
            }
        ]
    },
    "address_label": {
        "labels": [
            {
                "address": "0x7a250d5630b4cf539739df2c5dacb4c659f2488d",
                "label": "Uniswap V2: Router 2"
            },
            {
                "address": "0xc02aaa39b223fe8d0a0e5c4f27ead9083c756cc2",
                "label": "Wrapped Ether (WETH)"
            },
            {
                "address": "0x0000000000000000000000000000000000000001",
                "label": "Precompiled"
            },
            {
                "address": "0x0000000000000000000000000000000000000002",
                "label": "Precompiled"
            },
            {
                "address": "0x0000000000000000000000000000000000000004",
                "label": "Precompiled"
            },
            {
                "address": "0xeeeeeeeeeeeeeeeeeeeeeeeeeeeeeeeeeeeeeeee",
                "label": "Ether"
            },
            {
                "address": "0x6eddab7a9d289389246205847e2725ab4a5e23e0",
                "label": "Uniswap V2: D.O.G.E"
            },
            {
                "address": "0xbb376e82b796ec9d5ba68b10b33f79cbe612dc07",
                "label": "D.O.G.E"
            },
            {
                "address": "0x0000000000000000000000000000000000000003",
                "label": "Precompiled"
            }
        ]
    },
    "trace": {
        "accountLabels": null,
        "dataMap": {
            "-1": {
                "invocation": {
                    "address": "0x3229378620b8318f3012fb32d63363e5d5b22947",
                    "callData": "",
                    "decodedMethod": null,
                    "errorInfo": "",
                    "fromAddress": "",
                    "gasUsed": 0,
                    "id": -1,
                    "methodDecoded": false,
                    "operation": "",
                    "output": "",
                    "revert": false,
                    "revertMessage": "",
                    "selector": "",
                    "status": false,
                    "value": ""
                },
                "nodeType": 0
            },
            "0": {
                "invocation": {
                    "address": "0x7a250d5630b4cf539739df2c5dacb4c659f2488d",
                    "callData": "0x00000000000000000000000000000000000000000000000006ce4de1adb48ca80000000000000000000000000000000000000000000000000368dc300c43634800000000000000000000000000000000000000000000000000000000000000a00000000000000000000000003229378620b8318f3012fb32d63363e5d5b229470000000000000000000000000000000000000000000000000000000066dd9a650000000000000000000000000000000000000000000000000000000000000002000000000000000000000000bb376e82b796ec9d5ba68b10b33f79cbe612dc07000000000000000000000000c02aaa39b223fe8d0a0e5c4f27ead9083c756cc2",
                    "decodedMethod": {
                        "callParams": [
                            {
                                "name": "amountIn",
                                "type": "uint256",
                                "value": "490,415,041,107,233,960"
                            },
                            {
                                "name": "amountOutMin",
                                "type": "uint256",
                                "value": "245,688,278,613,975,880"
                            },
                            {
                                "name": "path",
                                "type": "address[]",
                                "value": [
                                    "0xbb376e82b796ec9d5ba68b10b33f79cbe612dc07",
                                    "0xc02aaa39b223fe8d0a0e5c4f27ead9083c756cc2"
                                ]
                            },
                            {
                                "name": "to",
                                "type": "address",
                                "value": "0x3229378620b8318f3012fb32d63363e5d5b22947"
                            },
                            {
                                "name": "deadline",
                                "type": "uint256",
                                "value": "1,725,799,013"
                            }
                        ],
                        "constructorArguments": "",
                        "name": "swapExactTokensForTokens",
                        "returnParams": [],
                        "signature": "swapExactTokensForTokens(uint256,uint256,address[],address,uint256)"
                    },
                    "errorInfo": "execution reverted",
                    "fromAddress": "0x3229378620b8318f3012fb32d63363e5d5b22947",
                    "gasUsed": 31618,
                    "id": 0,
                    "methodDecoded": true,
                    "operation": "CALL",
                    "output": "0x08c379a00000000000000000000000000000000000000000000000000000000000000020000000000000000000000000000000000000000000000000000000000000002b556e69737761705632526f757465723a20494e53554646494349454e545f4f55545055545f414d4f554e54000000000000000000000000000000000000000000",
                    "revert": true,
                    "revertMessage": "+UniswapV2Router: INSUFFICIENT_OUTPUT_AMOUNT",
                    "selector": "0x38ed1739",
                    "status": false,
                    "value": "0"
                },
                "nodeType": 0
            },
            "1": {
                "invocation": {
                    "address": "0x6eddab7a9d289389246205847e2725ab4a5e23e0",
                    "callData": "0x",
                    "decodedMethod": {
                        "callParams": [],
                        "constructorArguments": "",
                        "name": "getReserves",
                        "returnParams": [
                            {
                                "name": "_reserve0",
                                "type": "uint112",
                                "value": "36,489,369,930,996,801,168"
                            },
                            {
                                "name": "_reserve1",
                                "type": "uint112",
                                "value": "16,891,954,974,734,179,357"
                            },
                            {
                                "name": "_blockTimestampLast",
                                "type": "uint32",
                                "value": "1,725,798,983"
                            }
                        ],
                        "signature": "getReserves()"
                    },
                    "errorInfo": "",
                    "fromAddress": "0x7a250d5630b4cf539739df2c5dacb4c659f2488d",
                    "gasUsed": 2504,
                    "id": 1,
                    "methodDecoded": true,
                    "operation": "STATICCALL",
                    "output": "0x000000000000000000000000000000000000000000000001fa64489f8ee25e90000000000000000000000000000000000000000000000000ea6c478d56ec5c1d0000000000000000000000000000000000000000000000000000000066dd9a47",
                    "revert": true,
                    "revertMessage": "",
                    "selector": "0x0902f1ac",
                    "status": true,
                    "value": "0"
                },
                "nodeType": 0
            }
        },
        "gasFlame": [
            {
                "children": [
                    {
                        "children": [
                            {
                                "children": [],
                                "depth": 0,
                                "name": "Initial Gas",
                                "value": 23072
                            },
                            {
                                "children": [
                                    {
                                        "children": [],
                                        "depth": 1,
                                        "name": "getReserves",
                                        "value": 2504
                                    }
                                ],
                                "depth": 0,
                                "name": "Executed Gas",
                                "value": 8546
                            }
                        ],
                        "depth": -1,
                        "name": "Actual Gas Used",
                        "value": 31618
                    },
                    {
                        "children": [],
                        "depth": -1,
                        "name": "Refunded Gas",
                        "value": 0
                    }
                ],
                "depth": -2,
                "name": "Total Gas",
                "value": 31618
            }
        ],
        "isConfirmed": true,
        "mainTrace": [
            {
                "children": [
                    {
                        "children": [
                            {
                                "children": [],
                                "depth": 1,
                                "id": 1,
                                "order": 1
                            }
                        ],
                        "depth": 0,
                        "id": 0,
                        "order": 0
                    }
                ],
                "depth": -1,
                "id": -1,
                "order": -1
            }
        ],
        "mainTraceNodeCount": 2,
        "parentIdMap": {
            "0": -1,
            "1": 0
        },
        "tidyTrace": [
            {
                "children": [
                    {
                        "children": [],
                        "depth": 0,
                        "id": 0,
                        "order": 0
                    }
                ],
                "depth": -1,
                "id": -1,
                "order": -1
            }
        ],
        "tidyTraceNodeCount": 1
    },
    "state_change": {
        "stateChanges": []
    }
}