{
    "balance_change": {
        "balanceChanges": [
            {
                "account": "0x4f09597dc4a0a5a02667fa2389f063869337d210",
                "assets": [
                    {
                        "address": "0x26166d50556a829d0527beac492ad38a80d3101c",
                        "amount": "1,711",
                        "iconUrl": "",
                        "isERC1155": false,
                        "isERC721": false,
                        "sign": false,
                        "value": ""
                    }
                ]
            },
            {
                "account": "0x3e76d035c40f1a19a732bc1e9486d24ca4e288ff",
                "assets": [
                    {
                        "address": "0x26166d50556a829d0527beac492ad38a80d3101c",
                        "amount": "1,711",
                        "iconUrl": "",
                        "isERC1155": false,
                        "isERC721": false,
                        "sign": true,
                        "value": ""
                    }
                ]
            }
        ]
    },
    "profile": {
        "basic_info": {
            "baseFee": "",
            "blockNumber": 10125069,
            "callData": "0xa9059cbb0000000000000000000000003e76d035c40f1a19a732bc1e9486d24ca4e288ff00000000000000000000000000000000000000000000005cc0e51abbc55c0000",
            "debugEnable": true,
            "errorInfo": "",
            "eventCount": 1,
            "feeRecipient": "0x5a0b54d5dc17e0aadc383d2db43b0a0d3e029c4c",
            "formatValue": "0",
            "gasLimit": 60000,
            "gasPrice": "35",
            "gasUsed": 42213,
            "intTxnCount": 0,
            "internalRevert": false,
            "internalRevertMessage": "",
            "isContractCreation": false,
            "isFlashloan": false,
            "maxFee": "",
            "nonce": 27055,
            "overwritedBlockNumber": -1,
            "priorityFee": "",
            "receiver": "0x26166d50556a829d0527beac492ad38a80d3101c",
            "revertMessage": "",
            "sender": "0x4f09597dc4a0a5a02667fa2389f063869337d210",
            "simulationEnable": true,
            "sourceTxnHash": "0xa1251e33be04f83d2b2e1e74f8733fe61488637be837a13a0c86dd5e14eacd3a",
            "status": true,
            "timestamp": "2020-05-23T23:17:12Z",
            "transactionFee": "0.001477455",
            "txnHash": "0xa1251e33be04f83d2b2e1e74f8733fe61488637be837a13a0c86dd5e14eacd3a",
            "txnIndex": 11,
            "type": 0,
            "value": "0"
        },
        "fund_flow": [
            {
                "amount": "1,711",
                "from": "0x4f09597dc4a0a5a02667fa2389f063869337d210",
                "id": 1,
                "isERC1155": false,
                "isERC721": false,
                "isReverted": false,
                "order": 1,
                "to": "0x3e76d035c40f1a19a732bc1e9486d24ca4e288ff",
                "token": "0x26166d50556a829d0527beac492ad38a80d3101c"
            }
        ],
        "token_infos": [
            {
                "address": "0x26166d50556a829d0527beac492ad38a80d3101c",
                "decimals": 18
            },
            {
                "address": "0xc02aaa39b223fe8d0a0e5c4f27ead9083c756cc2",
                "decimals": 18
            },
            {
                "address": "0xeeeeeeeeeeeeeeeeeeeeeeeeeeeeeeeeeeeeeeee",
                "decimals": 18
            }
        ]
    },
    "address_label": {
        "labels": [
            {
                "address": "0x0000000000000000000000000000000000000004",
                "label": "Precompiled"
            },
            {
                "address": "0xeeeeeeeeeeeeeeeeeeeeeeeeeeeeeeeeeeeeeeee",
                "label": "Ether"
            },
            {
                "address": "0x26166d50556a829d0527beac492ad38a80d3101c",
                "label": "LNG (LNG)"
            },
            {
                "address": "0x0000000000000000000000000000000000000001",
                "label": "Precompiled"
            },
            {
                "address": "0x0000000000000000000000000000000000000002",
                "label": "Precompiled"
            },
            {
                "address": "0x0000000000000000000000000000000000000003",
                "label": "Precompiled"
            }
        ]
    },
    "trace": {
        "accountLabels": null,
        "dataMap": {
            "-1": {
                "invocation": {
                    "address": "0x4f09597dc4a0a5a02667fa2389f063869337d210",
                    "callData": "",
                    "decodedMethod": null,
                    "errorInfo": "",
                    "fromAddress": "",
                    "gasUsed": 0,
                    "id": -1,
                    "methodDecoded": false,
                    "operation": "",
                    "output": "",
                    "revert": false,
                    "revertMessage": "",
                    "selector": "",
                    "status": false,
                    "value": ""
                },
                "nodeType": 0
            },
            "0": {
                "invocation": {
                    "address": "0x26166d50556a829d0527beac492ad38a80d3101c",
                    "callData": "0x0000000000000000000000003e76d035c40f1a19a732bc1e9486d24ca4e288ff00000000000000000000000000000000000000000000005cc0e51abbc55c0000",
                    "decodedMethod": {
                        "callParams": [
                            {
                                "name": "recipient",
                                "type": "address",
                                "value": "0x3e76d035c40f1a19a732bc1e9486d24ca4e288ff"
                            },
                            {
                                "decimalAvailable": true,
                                "name": "amount",
                                "type": "uint256",
                                "value": "1,711,000,000,000,000,000,000"
                            }
                        ],
                        "constructorArguments": "",
                        "name": "transfer",
                        "returnParams": [
                            {
                                "name": "",
                                "type": "bool",
                                "value": true
                            }
                        ],
                        "signature": "transfer(address,uint256)"
                    },
                    "errorInfo": "",
                    "fromAddress": "0x4f09597dc4a0a5a02667fa2389f063869337d210",
                    "gasUsed": 42213,
                    "id": 0,
                    "methodDecoded": true,
                    "operation": "CALL",
                    "output": "0x0000000000000000000000000000000000000000000000000000000000000001",
                    "revert": false,
                    "revertMessage": "",
                    "selector": "0xa9059cbb",
                    "status": true,
                    "value": "0"
                },
                "nodeType": 0
            },
            "1": {
                "event": {
                    "contract": "0x26166d50556a829d0527beac492ad38a80d3101c",
                    "decodedLog": {
                        "name": "Transfer",
                        "params": [
                            {
                                "name": "from",
                                "type": "address",
                                "value": "0x4f09597dc4a0a5a02667fa2389f063869337d210"
                            },
                            {
                                "name": "to",
                                "type": "address",
                                "value": "0x3e76d035c40f1a19a732bc1e9486d24ca4e288ff"
                            },
                            {
                                "decimalAvailable": true,
                                "name": "value",
                                "type": "uint256",
                                "value": "1,711,000,000,000,000,000,000"
                            }
                        ],
                        "signature": "Transfer(address,address,uint256)"
                    },
                    "id": 1,
                    "logData": "0x00000000000000000000000000000000000000000000005cc0e51abbc55c0000",
                    "logDecoded": true,
                    "operation": "EVENT",
                    "revert": false,
                    "status": true,
                    "topics": [
                        "0xddf252ad1be2c89b69c2b068fc378daa952ba7f163c4a11628f55a4df523b3ef",
                        "0x0000000000000000000000004f09597dc4a0a5a02667fa2389f063869337d210",
                        "0x0000000000000000000000003e76d035c40f1a19a732bc1e9486d24ca4e288ff"
                    ]
                },
                "nodeType": 1
            }
        },
        "gasFlame": [
            {
                "children": [
                    {
                        "children": [
                            {
                                "children": [],
                                "depth": 0,
                                "name": "Initial Gas",
                                "value": 21644
                            },
                            {
                                "children": [],
                                "depth": 0,
                                "name": "Executed Gas",
                                "value": 20569
                            }
                        ],
                        "depth": -1,
                        "name": "Actual Gas Used",
                        "value": 42213
                    },
                    {
                        "children": [],
                        "depth": -1,
                        "name": "Refunded Gas",
                        "value": 0
                    }
                ],
                "depth": -2,
                "name": "Total Gas",
                "value": 42213
            }
        ],
        "isConfirmed": true,
        "mainTrace": [
            {
                "children": [
                    {
                        "children": [
                            {
                                "children": [],
                                "depth": 1,
                                "id": 1,
                                "order": 1
                            }
                        ],
                        "depth": 0,
                        "id": 0,
                        "order": 0
                    }
                ],
                "depth": -1,
                "id": -1,
                "order": -1
            }
        ],
        "mainTraceNodeCount": 2,
        "parentIdMap": {
            "0": -1,
            "1": 0
        },
        "tidyTrace": [
            {
                "children": [
                    {
                        "children": [
                            {
                                "children": [],
                                "depth": 1,
                                "id": 1,
                                "order": 1
                            }
                        ],
                        "depth": 0,
                        "id": 0,
                        "order": 0
                    }
                ],
                "depth": -1,
                "id": -1,
                "order": -1
            }
        ],
        "tidyTraceNodeCount": 2
    },
    "state_change": {
        "stateChanges": [
            {
                "address": "0x26166d50556a829d0527beac492ad38a80d3101c",
                "erc": "",
                "slots": [
                    {
                        "current": "0x0000000000000000000000000000000000000000000001008355581296fd0900",
                        "key": "0x90bf26ab2ef62fce7871a62948469bd9b8fcedd12f19ae61a3c463efeea6832c",
                        "prev": "0x0000000000000000000000000000000000000000000000a3c2703d56d1a10900"
                    },
                    {
                        "current": "0x000000000000000000000000000000000000000000079673f657be77ff3b6100",
                        "key": "0xe3cda68b85259404689b017a427ae82f5d26c6a81087fe5df9d7be5dd0be0ae9",
                        "prev": "0x0000000000000000000000000000000000000000000796d0b73cd933c4976100"
                    }
                ],
                "storageVariables": []
            }
        ]
    }
}