{
    "balance_change": {
        "balanceChanges": [
            {
                "account": "0x5523985926aa12ba58dc5ad00ddca99678d7227e",
                "assets": [
                    {
                        "address": "0x2260fac5e5542a773aa44fbcfedf7c193bc2c599",
                        "amount": "0.00002",
                        "iconUrl": "https://assets.blocksec.com/icon/878f2983cb21c5816eb5879d9b6f7a3fe2eb6fce7560c367a0315527852a8a84.png",
                        "isERC1155": false,
                        "isERC721": false,
                        "sign": true,
                        "value": "1.16176"
                    }
                ]
            },
            {
                "account": "0x9e2cf2dfbe925b3228ff1bc9d957848763069a9f",
                "assets": [
                    {
                        "address": "0x2260fac5e5542a773aa44fbcfedf7c193bc2c599",
                        "amount": "0.0042836",
                        "iconUrl": "https://assets.blocksec.com/icon/878f2983cb21c5816eb5879d9b6f7a3fe2eb6fce7560c367a0315527852a8a84.png",
                        "isERC1155": false,
                        "isERC721": false,
                        "sign": true,
                        "value": "248.82575680000000001"
                    }
                ]
            },
            {
                "account": "0xb8f275fbf7a959f4bce59999a2ef122a099e81a8",
                "assets": [
                    {
                        "address": "0x2260fac5e5542a773aa44fbcfedf7c193bc2c599",
                        "amount": "0.0043036",
                        "iconUrl": "https://assets.blocksec.com/icon/878f2983cb21c5816eb5879d9b6f7a3fe2eb6fce7560c367a0315527852a8a84.png",
                        "isERC1155": false,
                        "isERC721": false,
                        "sign": false,
                        "value": "249.9875168"
                    }
                ]
            }
        ]
    },
    "profile": {
        "basic_info": {
            "baseFee": "2.086005904",
            "blockNumber": 20732734,
            "callData": "0x84d61c970000000000000000000000000000000000000000000000000000000000000060000000000000000000000000b8f275fbf7a959f4bce59999a2ef122a099e81a800000000000000000000000000000000000000000000000000000000000001e00000000000000000000000000000000000000000000000000000000000000144c23a4c8800000000000000000000000000000000000000000000000000000000000007d0781e8b089344630f6cd33b77960b8e812bbb953a23a43a9d294ca9d2896e6f8d2e097dcf4425785a116d2205c30f393666576b130fe9dbdd7adbe4d569418cab0000000000000000000000009e2cf2dfbe925b3228ff1bc9d957848763069a9f00000000000000000000000000000000000000000000000000000000000691180000000000000000000000002260fac5e5542a773aa44fbcfedf7c193bc2c59900000000000000000000000000000000000000000000000000000000000000000000000000000000000000000000000000000000000000000000000000000120000000000000000000000000000000000000000000000000000000000000000000000000000000000000000000000000000000000000000000000000000000000000000000000000000000000000000000000000000000000000000000000000000000000000000000000000000000000000000000000000000000415baab9dcc19ab57c4f67b03025411fc61a83f2881a4710680d98a9c46e3fae1559a27f2f6294544c58ee40555eda1fc23cbf5a098338573d5055869dd413de241c00000000000000000000000000000000000000000000000000000000000000",
            "debugEnable": true,
            "errorInfo": "",
            "eventCount": 3,
            "feeRecipient": "0x4838b106fce9647bdf1e7877bf73ce8b0bad5f97",
            "formatValue": "0",
            "gasLimit": 361250,
            "gasPrice": "2.087005904",
            "gasUsed": 139943,
            "intTxnCount": 6,
            "internalRevert": false,
            "internalRevertMessage": "",
            "isContractCreation": false,
            "isFlashloan": false,
            "maxFee": "2.988015922",
            "nonce": 52397,
            "overwritedBlockNumber": -1,
            "priorityFee": "0.001",
            "receiver": "0x5523985926aa12ba58dc5ad00ddca99678d7227e",
            "revertMessage": "",
            "sender": "0xd99ac0681b904991169a4f398b9043781adbe0c3",
            "simulationEnable": true,
            "sourceTxnHash": "0xa1e5e31170955c7ecc7ca902478f69838f716da9dbc9424bfb956683d83f8e9f",
            "status": true,
            "timestamp": "2024-09-12T06:26:35Z",
            "transactionFee": "0.000292061867223472",
            "txnHash": "0xa1e5e31170955c7ecc7ca902478f69838f716da9dbc9424bfb956683d83f8e9f",
            "txnIndex": 125,
            "type": 2,
            "value": "0"
        },
        "fund_flow": [
            {
                "amount": "0.00002",
                "from": "0xb8f275fbf7a959f4bce59999a2ef122a099e81a8",
                "id": 1,
                "isERC1155": false,
                "isERC721": false,
                "isReverted": false,
                "order": 1,
                "to": "0x5523985926aa12ba58dc5ad00ddca99678d7227e",
                "token": "0x2260fac5e5542a773aa44fbcfedf7c193bc2c599"
            },
            {
                "amount": "0.0042836",
                "from": "0xb8f275fbf7a959f4bce59999a2ef122a099e81a8",
                "id": 2,
                "isERC1155": false,
                "isERC721": false,
                "isReverted": false,
                "order": 2,
                "to": "0x9e2cf2dfbe925b3228ff1bc9d957848763069a9f",
                "token": "0x2260fac5e5542a773aa44fbcfedf7c193bc2c599"
            }
        ],
        "token_infos": [
            {
                "address": "0x2260fac5e5542a773aa44fbcfedf7c193bc2c599",
                "decimals": 8
            },
            {
                "address": "0xc02aaa39b223fe8d0a0e5c4f27ead9083c756cc2",
                "decimals": 18
            },
            {
                "address": "0xeeeeeeeeeeeeeeeeeeeeeeeeeeeeeeeeeeeeeeee",
                "decimals": 18
            }
        ]
    },
    "address_label": {
        "labels": [
            {
                "address": "0x2260fac5e5542a773aa44fbcfedf7c193bc2c599",
                "label": "Wrapped BTC: WBTC Token"
            },
            {
                "address": "0x326adbe46d7e6c1b3927e9309b96df478bda6d16",
                "label": "Portal"
            },
            {
                "address": "0x0000000000000000000000000000000000000002",
                "label": "Precompiled"
            },
            {
                "address": "0x0000000000000000000000000000000000000003",
                "label": "Precompiled"
            },
            {
                "address": "0x0000000000000000000000000000000000000004",
                "label": "Precompiled"
            },
            {
                "address": "0x5523985926aa12ba58dc5ad00ddca99678d7227e",
                "label": "TransparentUpgradeableProxy_5523_227e"
            },
            {
                "address": "0x7057ab3fb2bee9c18e0cde4240de4ff7f159e365",
                "label": "BridgeV2"
            },
            {
                "address": "0xb8f275fbf7a959f4bce59999a2ef122a099e81a8",
                "label": "Symbiosis Finance: Portal"
            },
            {
                "address": "0x0000000000000000000000000000000000000000",
                "label": "Null Address"
            },
            {
                "address": "0x0000000000000000000000000000000000000001",
                "label": "Precompiled"
            },
            {
                "address": "0xeeeeeeeeeeeeeeeeeeeeeeeeeeeeeeeeeeeeeeee",
                "label": "Ether"
            }
        ]
    },
    "trace": {
        "accountLabels": null,
        "dataMap": {
            "-1": {
                "invocation": {
                    "address": "0xd99ac0681b904991169a4f398b9043781adbe0c3",
                    "callData": "",
                    "decodedMethod": null,
                    "errorInfo": "",
                    "fromAddress": "",
                    "gasUsed": 0,
                    "id": -1,
                    "methodDecoded": false,
                    "operation": "",
                    "output": "",
                    "revert": false,
                    "revertMessage": "",
                    "selector": "",
                    "status": false,
                    "value": ""
                },
                "nodeType": 0
            },
            "0": {
                "invocation": {
                    "address": "0x5523985926aa12ba58dc5ad00ddca99678d7227e",
                    "callData": "0x0000000000000000000000000000000000000000000000000000000000000060000000000000000000000000b8f275fbf7a959f4bce59999a2ef122a099e81a800000000000000000000000000000000000000000000000000000000000001e00000000000000000000000000000000000000000000000000000000000000144c23a4c8800000000000000000000000000000000000000000000000000000000000007d0781e8b089344630f6cd33b77960b8e812bbb953a23a43a9d294ca9d2896e6f8d2e097dcf4425785a116d2205c30f393666576b130fe9dbdd7adbe4d569418cab0000000000000000000000009e2cf2dfbe925b3228ff1bc9d957848763069a9f00000000000000000000000000000000000000000000000000000000000691180000000000000000000000002260fac5e5542a773aa44fbcfedf7c193bc2c59900000000000000000000000000000000000000000000000000000000000000000000000000000000000000000000000000000000000000000000000000000120000000000000000000000000000000000000000000000000000000000000000000000000000000000000000000000000000000000000000000000000000000000000000000000000000000000000000000000000000000000000000000000000000000000000000000000000000000000000000000000000000000415baab9dcc19ab57c4f67b03025411fc61a83f2881a4710680d98a9c46e3fae1559a27f2f6294544c58ee40555eda1fc23cbf5a098338573d5055869dd413de241c00000000000000000000000000000000000000000000000000000000000000",
                    "decodedMethod": {
                        "callParams": [
                            {
                                "name": "_callData",
                                "type": "bytes",
                                "value": "0xc23a4c8800000000000000000000000000000000000000000000000000000000000007d0781e8b089344630f6cd33b77960b8e812bbb953a23a43a9d294ca9d2896e6f8d2e097dcf4425785a116d2205c30f393666576b130fe9dbdd7adbe4d569418cab0000000000000000000000009e2cf2dfbe925b3228ff1bc9d957848763069a9f00000000000000000000000000000000000000000000000000000000000691180000000000000000000000002260fac5e5542a773aa44fbcfedf7c193bc2c5990000000000000000000000000000000000000000000000000000000000000000000000000000000000000000000000000000000000000000000000000000012000000000000000000000000000000000000000000000000000000000000000000000000000000000000000000000000000000000000000000000000000000000"
                            },
                            {
                                "name": "_receiveSide",
                                "type": "address",
                                "value": "0xb8f275fbf7a959f4bce59999a2ef122a099e81a8"
                            },
                            {
                                "name": "signature",
                                "type": "bytes",
                                "value": "0x5baab9dcc19ab57c4f67b03025411fc61a83f2881a4710680d98a9c46e3fae1559a27f2f6294544c58ee40555eda1fc23cbf5a098338573d5055869dd413de241c"
                            }
                        ],
                        "constructorArguments": "",
                        "name": "receiveRequestV2Signed",
                        "returnParams": [],
                        "signature": "receiveRequestV2Signed(bytes,address,bytes)"
                    },
                    "errorInfo": "",
                    "fromAddress": "0xd99ac0681b904991169a4f398b9043781adbe0c3",
                    "gasUsed": 139943,
                    "id": 0,
                    "methodDecoded": true,
                    "operation": "CALL",
                    "output": "",
                    "revert": false,
                    "revertMessage": "",
                    "selector": "0x84d61c97",
                    "status": true,
                    "value": "0"
                },
                "nodeType": 0
            },
            "1": {
                "invocation": {
                    "address": "0x7057ab3fb2bee9c18e0cde4240de4ff7f159e365",
                    "callData": "0x0000000000000000000000000000000000000000000000000000000000000060000000000000000000000000b8f275fbf7a959f4bce59999a2ef122a099e81a800000000000000000000000000000000000000000000000000000000000001e00000000000000000000000000000000000000000000000000000000000000144c23a4c8800000000000000000000000000000000000000000000000000000000000007d0781e8b089344630f6cd33b77960b8e812bbb953a23a43a9d294ca9d2896e6f8d2e097dcf4425785a116d2205c30f393666576b130fe9dbdd7adbe4d569418cab0000000000000000000000009e2cf2dfbe925b3228ff1bc9d957848763069a9f00000000000000000000000000000000000000000000000000000000000691180000000000000000000000002260fac5e5542a773aa44fbcfedf7c193bc2c59900000000000000000000000000000000000000000000000000000000000000000000000000000000000000000000000000000000000000000000000000000120000000000000000000000000000000000000000000000000000000000000000000000000000000000000000000000000000000000000000000000000000000000000000000000000000000000000000000000000000000000000000000000000000000000000000000000000000000000000000000000000000000415baab9dcc19ab57c4f67b03025411fc61a83f2881a4710680d98a9c46e3fae1559a27f2f6294544c58ee40555eda1fc23cbf5a098338573d5055869dd413de241c00000000000000000000000000000000000000000000000000000000000000",
                    "decodedMethod": {
                        "callParams": [
                            {
                                "name": "_callData",
                                "type": "bytes",
                                "value": "0xc23a4c8800000000000000000000000000000000000000000000000000000000000007d0781e8b089344630f6cd33b77960b8e812bbb953a23a43a9d294ca9d2896e6f8d2e097dcf4425785a116d2205c30f393666576b130fe9dbdd7adbe4d569418cab0000000000000000000000009e2cf2dfbe925b3228ff1bc9d957848763069a9f00000000000000000000000000000000000000000000000000000000000691180000000000000000000000002260fac5e5542a773aa44fbcfedf7c193bc2c5990000000000000000000000000000000000000000000000000000000000000000000000000000000000000000000000000000000000000000000000000000012000000000000000000000000000000000000000000000000000000000000000000000000000000000000000000000000000000000000000000000000000000000"
                            },
                            {
                                "name": "_receiveSide",
                                "type": "address",
                                "value": "0xb8f275fbf7a959f4bce59999a2ef122a099e81a8"
                            },
                            {
                                "name": "signature",
                                "type": "bytes",
                                "value": "0x5baab9dcc19ab57c4f67b03025411fc61a83f2881a4710680d98a9c46e3fae1559a27f2f6294544c58ee40555eda1fc23cbf5a098338573d5055869dd413de241c"
                            }
                        ],
                        "constructorArguments": "",
                        "name": "receiveRequestV2Signed",
                        "returnParams": [],
                        "signature": "receiveRequestV2Signed(bytes,address,bytes)"
                    },
                    "errorInfo": "",
                    "fromAddress": "0x5523985926aa12ba58dc5ad00ddca99678d7227e",
                    "gasUsed": 106542,
                    "id": 1,
                    "methodDecoded": true,
                    "operation": "DELEGATECALL",
                    "output": "",
                    "revert": false,
                    "revertMessage": "",
                    "selector": "0x84d61c97",
                    "status": true,
                    "value": "0"
                },
                "nodeType": 0
            },
            "2": {
                "invocation": {
                    "address": "0x0000000000000000000000000000000000000001",
                    "callData": "0x7dd4aa52bc36d67d30d6d6eda58bd8a066ae83c79cfbf36f565fce7f000000000000000000000000000000000000000000000000000000000000001c5baab9dcc19ab57c4f67b03025411fc61a83f2881a4710680d98a9c46e3fae1559a27f2f6294544c58ee40555eda1fc23cbf5a098338573d5055869dd413de24",
                    "decodedMethod": {
                        "callParams": [
                            {
                                "name": "hash",
                                "type": "bytes32",
                                "value": "0x11b81d1d7dd4aa52bc36d67d30d6d6eda58bd8a066ae83c79cfbf36f565fce7f"
                            },
                            {
                                "name": "v",
                                "type": "uint256",
                                "value": "28"
                            },
                            {
                                "name": "r",
                                "type": "bytes32",
                                "value": "0x5baab9dcc19ab57c4f67b03025411fc61a83f2881a4710680d98a9c46e3fae15"
                            },
                            {
                                "name": "s",
                                "type": "bytes32",
                                "value": "0x59a27f2f6294544c58ee40555eda1fc23cbf5a098338573d5055869dd413de24"
                            }
                        ],
                        "constructorArguments": "",
                        "name": "ecrecover",
                        "returnParams": [
                            {
                                "name": "",
                                "type": "address",
                                "value": "0x634d178bfa01c42b5292fa8fcbb99c4cf1e73972"
                            }
                        ],
                        "signature": "ecrecover(bytes32,uint256,bytes32,bytes32)"
                    },
                    "errorInfo": "",
                    "fromAddress": "0x5523985926aa12ba58dc5ad00ddca99678d7227e",
                    "gasUsed": 3000,
                    "id": 2,
                    "methodDecoded": true,
                    "operation": "STATICCALL",
                    "output": "0x000000000000000000000000634d178bfa01c42b5292fa8fcbb99c4cf1e73972",
                    "revert": false,
                    "revertMessage": "",
                    "selector": "0x11b81d1d",
                    "status": true,
                    "value": "0"
                },
                "nodeType": 0
            },
            "3": {
                "invocation": {
                    "address": "0xb8f275fbf7a959f4bce59999a2ef122a099e81a8",
                    "callData": "0x00000000000000000000000000000000000000000000000000000000000007d0781e8b089344630f6cd33b77960b8e812bbb953a23a43a9d294ca9d2896e6f8d2e097dcf4425785a116d2205c30f393666576b130fe9dbdd7adbe4d569418cab0000000000000000000000009e2cf2dfbe925b3228ff1bc9d957848763069a9f00000000000000000000000000000000000000000000000000000000000691180000000000000000000000002260fac5e5542a773aa44fbcfedf7c193bc2c5990000000000000000000000000000000000000000000000000000000000000000000000000000000000000000000000000000000000000000000000000000012000000000000000000000000000000000000000000000000000000000000000000000000000000000000000000000000000000000000000000000000000000000",
                    "decodedMethod": {
                        "callParams": [
                            {
                                "name": "_stableBridgingFee",
                                "type": "uint256",
                                "value": "2,000"
                            },
                            {
                                "name": "_crossChainID",
                                "type": "bytes32",
                                "value": "0x781e8b089344630f6cd33b77960b8e812bbb953a23a43a9d294ca9d2896e6f8d"
                            },
                            {
                                "name": "_externalID",
                                "type": "bytes32",
                                "value": "0x2e097dcf4425785a116d2205c30f393666576b130fe9dbdd7adbe4d569418cab"
                            },
                            {
                                "name": "_to",
                                "type": "address",
                                "value": "0x9e2cf2dfbe925b3228ff1bc9d957848763069a9f"
                            },
                            {
                                "name": "_amount",
                                "type": "uint256",
                                "value": "430,360"
                            },
                            {
                                "name": "_rToken",
                                "type": "address",
                                "value": "0x2260fac5e5542a773aa44fbcfedf7c193bc2c599"
                            },
                            {
                                "name": "_finalReceiveSide",
                                "type": "address",
                                "value": "0x0000000000000000000000000000000000000000"
                            },
                            {
                                "name": "_finalCalldata",
                                "type": "bytes",
                                "value": "0x"
                            },
                            {
                                "name": "_finalOffset",
                                "type": "uint256",
                                "value": "0"
                            }
                        ],
                        "constructorArguments": "",
                        "name": "metaUnsynthesize",
                        "returnParams": [],
                        "signature": "metaUnsynthesize(uint256,bytes32,bytes32,address,uint256,address,address,bytes,uint256)"
                    },
                    "errorInfo": "",
                    "fromAddress": "0x5523985926aa12ba58dc5ad00ddca99678d7227e",
                    "gasUsed": 89859,
                    "id": 3,
                    "methodDecoded": true,
                    "operation": "CALL",
                    "output": "",
                    "revert": false,
                    "revertMessage": "",
                    "selector": "0xc23a4c88",
                    "status": true,
                    "value": "0"
                },
                "nodeType": 0
            },
            "4": {
                "invocation": {
                    "address": "0x326adbe46d7e6c1b3927e9309b96df478bda6d16",
                    "callData": "0x00000000000000000000000000000000000000000000000000000000000007d0781e8b089344630f6cd33b77960b8e812bbb953a23a43a9d294ca9d2896e6f8d2e097dcf4425785a116d2205c30f393666576b130fe9dbdd7adbe4d569418cab0000000000000000000000009e2cf2dfbe925b3228ff1bc9d957848763069a9f00000000000000000000000000000000000000000000000000000000000691180000000000000000000000002260fac5e5542a773aa44fbcfedf7c193bc2c5990000000000000000000000000000000000000000000000000000000000000000000000000000000000000000000000000000000000000000000000000000012000000000000000000000000000000000000000000000000000000000000000000000000000000000000000000000000000000000000000000000000000000000",
                    "decodedMethod": {
                        "callParams": [
                            {
                                "name": "_stableBridgingFee",
                                "type": "uint256",
                                "value": "2,000"
                            },
                            {
                                "name": "_crossChainID",
                                "type": "bytes32",
                                "value": "0x781e8b089344630f6cd33b77960b8e812bbb953a23a43a9d294ca9d2896e6f8d"
                            },
                            {
                                "name": "_externalID",
                                "type": "bytes32",
                                "value": "0x2e097dcf4425785a116d2205c30f393666576b130fe9dbdd7adbe4d569418cab"
                            },
                            {
                                "name": "_to",
                                "type": "address",
                                "value": "0x9e2cf2dfbe925b3228ff1bc9d957848763069a9f"
                            },
                            {
                                "name": "_amount",
                                "type": "uint256",
                                "value": "430,360"
                            },
                            {
                                "name": "_rToken",
                                "type": "address",
                                "value": "0x2260fac5e5542a773aa44fbcfedf7c193bc2c599"
                            },
                            {
                                "name": "_finalReceiveSide",
                                "type": "address",
                                "value": "0x0000000000000000000000000000000000000000"
                            },
                            {
                                "name": "_finalCalldata",
                                "type": "bytes",
                                "value": "0x"
                            },
                            {
                                "name": "_finalOffset",
                                "type": "uint256",
                                "value": "0"
                            }
                        ],
                        "constructorArguments": "",
                        "name": "metaUnsynthesize",
                        "returnParams": [],
                        "signature": "metaUnsynthesize(uint256,bytes32,bytes32,address,uint256,address,address,bytes,uint256)"
                    },
                    "errorInfo": "",
                    "fromAddress": "0xb8f275fbf7a959f4bce59999a2ef122a099e81a8",
                    "gasUsed": 82480,
                    "id": 4,
                    "methodDecoded": true,
                    "operation": "DELEGATECALL",
                    "output": "",
                    "revert": false,
                    "revertMessage": "",
                    "selector": "0xc23a4c88",
                    "status": true,
                    "value": "0"
                },
                "nodeType": 0
            },
            "5": {
                "invocation": {
                    "address": "0x2260fac5e5542a773aa44fbcfedf7c193bc2c599",
                    "callData": "0x0000000000000000000000005523985926aa12ba58dc5ad00ddca99678d7227e00000000000000000000000000000000000000000000000000000000000007d0",
                    "decodedMethod": {
                        "callParams": [
                            {
                                "name": "_to",
                                "type": "address",
                                "value": "0x5523985926aa12ba58dc5ad00ddca99678d7227e"
                            },
                            {
                                "decimalAvailable": true,
                                "name": "_value",
                                "type": "uint256",
                                "value": "2,000"
                            }
                        ],
                        "constructorArguments": "",
                        "name": "transfer",
                        "returnParams": [
                            {
                                "name": "",
                                "type": "bool",
                                "value": true
                            }
                        ],
                        "signature": "transfer(address,uint256)"
                    },
                    "errorInfo": "",
                    "fromAddress": "0xb8f275fbf7a959f4bce59999a2ef122a099e81a8",
                    "gasUsed": 15703,
                    "id": 5,
                    "methodDecoded": true,
                    "operation": "CALL",
                    "output": "0x0000000000000000000000000000000000000000000000000000000000000001",
                    "revert": false,
                    "revertMessage": "",
                    "selector": "0xa9059cbb",
                    "status": true,
                    "value": "0"
                },
                "nodeType": 0
            },
            "6": {
                "event": {
                    "contract": "0x2260fac5e5542a773aa44fbcfedf7c193bc2c599",
                    "decodedLog": {
                        "name": "Transfer",
                        "params": [
                            {
                                "name": "from",
                                "type": "address",
                                "value": "0xb8f275fbf7a959f4bce59999a2ef122a099e81a8"
                            },
                            {
                                "name": "to",
                                "type": "address",
                                "value": "0x5523985926aa12ba58dc5ad00ddca99678d7227e"
                            },
                            {
                                "decimalAvailable": true,
                                "name": "value",
                                "type": "uint256",
                                "value": "2,000"
                            }
                        ],
                        "signature": "Transfer(address,address,uint256)"
                    },
                    "id": 6,
                    "logData": "0x00000000000000000000000000000000000000000000000000000000000007d0",
                    "logDecoded": true,
                    "operation": "EVENT",
                    "revert": false,
                    "status": true,
                    "topics": [
                        "0xddf252ad1be2c89b69c2b068fc378daa952ba7f163c4a11628f55a4df523b3ef",
                        "0x000000000000000000000000b8f275fbf7a959f4bce59999a2ef122a099e81a8",
                        "0x0000000000000000000000005523985926aa12ba58dc5ad00ddca99678d7227e"
                    ]
                },
                "nodeType": 1
            },
            "7": {
                "invocation": {
                    "address": "0x2260fac5e5542a773aa44fbcfedf7c193bc2c599",
                    "callData": "0x0000000000000000000000009e2cf2dfbe925b3228ff1bc9d957848763069a9f0000000000000000000000000000000000000000000000000000000000068948",
                    "decodedMethod": {
                        "callParams": [
                            {
                                "name": "_to",
                                "type": "address",
                                "value": "0x9e2cf2dfbe925b3228ff1bc9d957848763069a9f"
                            },
                            {
                                "decimalAvailable": true,
                                "name": "_value",
                                "type": "uint256",
                                "value": "428,360"
                            }
                        ],
                        "constructorArguments": "",
                        "name": "transfer",
                        "returnParams": [
                            {
                                "name": "",
                                "type": "bool",
                                "value": true
                            }
                        ],
                        "signature": "transfer(address,uint256)"
                    },
                    "errorInfo": "",
                    "fromAddress": "0xb8f275fbf7a959f4bce59999a2ef122a099e81a8",
                    "gasUsed": 26003,
                    "id": 7,
                    "methodDecoded": true,
                    "operation": "CALL",
                    "output": "0x0000000000000000000000000000000000000000000000000000000000000001",
                    "revert": false,
                    "revertMessage": "",
                    "selector": "0xa9059cbb",
                    "status": true,
                    "value": "0"
                },
                "nodeType": 0
            },
            "8": {
                "event": {
                    "contract": "0x2260fac5e5542a773aa44fbcfedf7c193bc2c599",
                    "decodedLog": {
                        "name": "Transfer",
                        "params": [
                            {
                                "name": "from",
                                "type": "address",
                                "value": "0xb8f275fbf7a959f4bce59999a2ef122a099e81a8"
                            },
                            {
                                "name": "to",
                                "type": "address",
                                "value": "0x9e2cf2dfbe925b3228ff1bc9d957848763069a9f"
                            },
                            {
                                "decimalAvailable": true,
                                "name": "value",
                                "type": "uint256",
                                "value": "428,360"
                            }
                        ],
                        "signature": "Transfer(address,address,uint256)"
                    },
                    "id": 8,
                    "logData": "0x0000000000000000000000000000000000000000000000000000000000068948",
                    "logDecoded": true,
                    "operation": "EVENT",
                    "revert": false,
                    "status": true,
                    "topics": [
                        "0xddf252ad1be2c89b69c2b068fc378daa952ba7f163c4a11628f55a4df523b3ef",
                        "0x000000000000000000000000b8f275fbf7a959f4bce59999a2ef122a099e81a8",
                        "0x0000000000000000000000009e2cf2dfbe925b3228ff1bc9d957848763069a9f"
                    ]
                },
                "nodeType": 1
            },
            "9": {
                "event": {
                    "contract": "0xb8f275fbf7a959f4bce59999a2ef122a099e81a8",
                    "decodedLog": {
                        "name": "BurnCompleted",
                        "params": [
                            {
                                "name": "id",
                                "type": "bytes32",
                                "value": "0x2e097dcf4425785a116d2205c30f393666576b130fe9dbdd7adbe4d569418cab"
                            },
                            {
                                "name": "crossChainID",
                                "type": "bytes32",
                                "value": "0x781e8b089344630f6cd33b77960b8e812bbb953a23a43a9d294ca9d2896e6f8d"
                            },
                            {
                                "name": "to",
                                "type": "address",
                                "value": "0xb8f275fbf7a959f4bce59999a2ef122a099e81a8"
                            },
                            {
                                "name": "amount",
                                "type": "uint256",
                                "value": "428,360"
                            },
                            {
                                "name": "bridgingFee",
                                "type": "uint256",
                                "value": "2,000"
                            },
                            {
                                "name": "token",
                                "type": "address",
                                "value": "0x2260fac5e5542a773aa44fbcfedf7c193bc2c599"
                            }
                        ],
                        "signature": "BurnCompleted(bytes32,bytes32,address,uint256,uint256,address)"
                    },
                    "id": 9,
                    "logData": "0x000000000000000000000000000000000000000000000000000000000006894800000000000000000000000000000000000000000000000000000000000007d00000000000000000000000002260fac5e5542a773aa44fbcfedf7c193bc2c599",
                    "logDecoded": true,
                    "operation": "EVENT",
                    "revert": false,
                    "status": true,
                    "topics": [
                        "0xaeef64b7687b985665b6620c7fa271b6f051a3fbe2bfc366fb9c964602eb6d26",
                        "0x2e097dcf4425785a116d2205c30f393666576b130fe9dbdd7adbe4d569418cab",
                        "0x781e8b089344630f6cd33b77960b8e812bbb953a23a43a9d294ca9d2896e6f8d",
                        "0x000000000000000000000000b8f275fbf7a959f4bce59999a2ef122a099e81a8"
                    ]
                },
                "nodeType": 1
            }
        },
        "gasFlame": [
            {
                "children": [
                    {
                        "children": [
                            {
                                "children": [],
                                "depth": 0,
                                "name": "Initial Gas",
                                "value": 25968
                            },
                            {
                                "children": [
                                    {
                                        "children": [
                                            {
                                                "children": [],
                                                "depth": 2,
                                                "name": "ecrecover",
                                                "value": 3000
                                            },
                                            {
                                                "children": [
                                                    {
                                                        "children": [
                                                            {
                                                                "children": [],
                                                                "depth": 4,
                                                                "name": "transfer",
                                                                "value": 15703
                                                            },
                                                            {
                                                                "children": [],
                                                                "depth": 4,
                                                                "name": "transfer",
                                                                "value": 26003
                                                            }
                                                        ],
                                                        "depth": 3,
                                                        "name": "metaUnsynthesize",
                                                        "value": 82480
                                                    }
                                                ],
                                                "depth": 2,
                                                "name": "metaUnsynthesize",
                                                "value": 89859
                                            }
                                        ],
                                        "depth": 1,
                                        "name": "receiveRequestV2Signed",
                                        "value": 106542
                                    }
                                ],
                                "depth": 0,
                                "name": "Executed Gas",
                                "value": 113975
                            }
                        ],
                        "depth": -1,
                        "name": "Actual Gas Used",
                        "value": 139943
                    },
                    {
                        "children": [],
                        "depth": -1,
                        "name": "Refunded Gas",
                        "value": 0
                    }
                ],
                "depth": -2,
                "name": "Total Gas",
                "value": 139943
            }
        ],
        "isConfirmed": true,
        "mainTrace": [
            {
                "children": [
                    {
                        "children": [
                            {
                                "children": [
                                    {
                                        "children": [],
                                        "depth": 2,
                                        "id": 2,
                                        "order": 2
                                    },
                                    {
                                        "children": [
                                            {
                                                "children": [
                                                    {
                                                        "children": [
                                                            {
                                                                "children": [],
                                                                "depth": 5,
                                                                "id": 6,
                                                                "order": 6
                                                            }
                                                        ],
                                                        "depth": 4,
                                                        "id": 5,
                                                        "order": 5
                                                    },
                                                    {
                                                        "children": [
                                                            {
                                                                "children": [],
                                                                "depth": 5,
                                                                "id": 8,
                                                                "order": 8
                                                            }
                                                        ],
                                                        "depth": 4,
                                                        "id": 7,
                                                        "order": 7
                                                    },
                                                    {
                                                        "children": [],
                                                        "depth": 4,
                                                        "id": 9,
                                                        "order": 9
                                                    }
                                                ],
                                                "depth": 3,
                                                "id": 4,
                                                "order": 4
                                            }
                                        ],
                                        "depth": 2,
                                        "id": 3,
                                        "order": 3
                                    }
                                ],
                                "depth": 1,
                                "id": 1,
                                "order": 1
                            }
                        ],
                        "depth": 0,
                        "id": 0,
                        "order": 0
                    }
                ],
                "depth": -1,
                "id": -1,
                "order": -1
            }
        ],
        "mainTraceNodeCount": 10,
        "parentIdMap": {
            "0": -1,
            "1": 0,
            "2": 1,
            "3": 1,
            "4": 3,
            "5": 4,
            "6": 5,
            "7": 4,
            "8": 7,
            "9": 4
        },
        "tidyTrace": [
            {
                "children": [
                    {
                        "children": [
                            {
                                "children": [
                                    {
                                        "children": [
                                            {
                                                "children": [
                                                    {
                                                        "children": [
                                                            {
                                                                "children": [],
                                                                "depth": 5,
                                                                "id": 6,
                                                                "order": 6
                                                            }
                                                        ],
                                                        "depth": 4,
                                                        "id": 5,
                                                        "order": 5
                                                    },
                                                    {
                                                        "children": [
                                                            {
                                                                "children": [],
                                                                "depth": 5,
                                                                "id": 8,
                                                                "order": 8
                                                            }
                                                        ],
                                                        "depth": 4,
                                                        "id": 7,
                                                        "order": 7
                                                    },
                                                    {
                                                        "children": [],
                                                        "depth": 4,
                                                        "id": 9,
                                                        "order": 9
                                                    }
                                                ],
                                                "depth": 3,
                                                "id": 4,
                                                "order": 4
                                            }
                                        ],
                                        "depth": 2,
                                        "id": 3,
                                        "order": 3
                                    }
                                ],
                                "depth": 1,
                                "id": 1,
                                "order": 1
                            }
                        ],
                        "depth": 0,
                        "id": 0,
                        "order": 0
                    }
                ],
                "depth": -1,
                "id": -1,
                "order": -1
            }
        ],
        "tidyTraceNodeCount": 9
    },
    "state_change": {
        "stateChanges": [
            {
                "address": "0x2260fac5e5542a773aa44fbcfedf7c193bc2c599",
                "erc": "ERC-20",
                "slots": [
                    {
                        "current": "0x000000000000000000000000000000000000000000000000000000000003a980",
                        "key": "0x5e52ae863078737bd7f182f1e52ef7f64d2fdd288d5fe4dcf077174b3070fa56",
                        "prev": "0x000000000000000000000000000000000000000000000000000000000003a1b0"
                    },
                    {
                        "current": "0x0000000000000000000000000000000000000000000000000000000001ebe7e2",
                        "key": "0x17abc82e592b6d254cea9ea70ae463cbde42edaea383a0cc515c21e0d03eb53d",
                        "prev": "0x0000000000000000000000000000000000000000000000000000000001f278fa"
                    },
                    {
                        "current": "0x0000000000000000000000000000000000000000000000000000000000068948",
                        "key": "0xcbdb8ae8d51a87573c4a529b339a4c6fecb3a0fa866d2d2ba75c30ecb3270702",
                        "prev": "0x0000000000000000000000000000000000000000000000000000000000000000"
                    }
                ],
                "storageVariables": [
                    {
                        "name": "balances",
                        "type": "mapping(address => uint256)",
                        "value": {
                            "pairs": [
                                {
                                    "key": "0x5523985926aa12ba58dc5ad00ddca99678d7227e",
                                    "value": {
                                        "current": "240000",
                                        "prev": "238000",
                                        "typeTag": 1
                                    }
                                },
                                {
                                    "key": "0x9e2cf2dfbe925b3228ff1bc9d957848763069a9f",
                                    "value": {
                                        "current": "428360",
                                        "prev": "0",
                                        "typeTag": 1
                                    }
                                },
                                {
                                    "key": "0xb8f275fbf7a959f4bce59999a2ef122a099e81a8",
                                    "value": {
                                        "current": "32237538",
                                        "prev": "32667898",
                                        "typeTag": 1
                                    }
                                }
                            ],
                            "typeTag": 4
                        }
                    }
                ]
            },
            {
                "address": "0xb8f275fbf7a959f4bce59999a2ef122a099e81a8",
                "erc": "",
                "slots": [
                    {
                        "current": "0x0000000000000000000000000000000000000000000000000000000001ebe7e2",
                        "key": "0x86523ca1fe2eca69e77742f6da17aef15dfc2b68def2dab5a75ab845479f24d5",
                        "prev": "0x0000000000000000000000000000000000000000000000000000000001f278fa"
                    },
                    {
                        "current": "0x0000000000000000000000000000000000000000000000000000000000000001",
                        "key": "0x749607ac4d5ff59f6a56d4ee329c72f070f1c17686e210b7c298eec579e91ef2",
                        "prev": "0x0000000000000000000000000000000000000000000000000000000000000000"
                    }
                ],
                "storageVariables": [
                    {
                        "name": "balanceOf",
                        "type": "mapping(address => uint256)",
                        "value": {
                            "pairs": [
                                {
                                    "key": "0x2260fac5e5542a773aa44fbcfedf7c193bc2c599",
                                    "value": {
                                        "current": "32237538",
                                        "prev": "32667898",
                                        "typeTag": 1
                                    }
                                }
                            ],
                            "typeTag": 4
                        }
                    },
                    {
                        "name": "unsynthesizeStates",
                        "type": "mapping(bytes32 => enum Portal.UnsynthesizeState)",
                        "value": {
                            "pairs": [
                                {
                                    "key": "0x2e097dcf4425785a116d2205c30f393666576b130fe9dbdd7adbe4d569418cab",
                                    "value": {
                                        "current": "1",
                                        "prev": "0",
                                        "typeTag": 1
                                    }
                                }
                            ],
                            "typeTag": 4
                        }
                    }
                ]
            }
        ]
    }
}