{
    "balance_change": {
        "balanceChanges": [
            {
                "account": "0x4f428aa5f29f0b2bd2131067cfe879bb83227a6e",
                "assets": [
                    {
                        "address": "0xdd8a513d11bd563e009f8e561c488ba7969470e1",
                        "amount": "11,501",
                        "iconUrl": "",
                        "isERC1155": false,
                        "isERC721": false,
                        "sign": false,
                        "value": ""
                    }
                ]
            },
            {
                "account": "0x9570ebde9e6c6b7e7a47743796c6ae2c55329c01",
                "assets": [
                    {
                        "address": "0xdd8a513d11bd563e009f8e561c488ba7969470e1",
                        "amount": "11,501",
                        "iconUrl": "",
                        "isERC1155": false,
                        "isERC721": false,
                        "sign": true,
                        "value": ""
                    }
                ]
            }
        ]
    },
    "profile": {
        "basic_info": {
            "baseFee": "",
            "blockNumber": 10371412,
            "callData": "0xa9059cbb0000000000000000000000009570ebde9e6c6b7e7a47743796c6ae2c55329c0100000000000000000000000000000000000000000000026f7870051727940000",
            "debugEnable": true,
            "errorInfo": "",
            "eventCount": 1,
            "feeRecipient": "0x829bd824b016326a401d083b33d092293333a830",
            "formatValue": "0",
            "gasLimit": 60000,
            "gasPrice": "47.000001459",
            "gasUsed": 25695,
            "intTxnCount": 0,
            "internalRevert": false,
            "internalRevertMessage": "",
            "isContractCreation": false,
            "isFlashloan": false,
            "maxFee": "",
            "nonce": 1,
            "overwritedBlockNumber": -1,
            "priorityFee": "",
            "receiver": "0xdd8a513d11bd563e009f8e561c488ba7969470e1",
            "revertMessage": "",
            "sender": "0x4f428aa5f29f0b2bd2131067cfe879bb83227a6e",
            "simulationEnable": true,
            "sourceTxnHash": "0xa1365a791b6ced966be2e6f1282e2b1226af22faef81c32e59451b35258b32c4",
            "status": true,
            "timestamp": "2020-07-01T04:29:56Z",
            "transactionFee": "0.001207665037489005",
            "txnHash": "0xa1365a791b6ced966be2e6f1282e2b1226af22faef81c32e59451b35258b32c4",
            "txnIndex": 118,
            "type": 0,
            "value": "0"
        },
        "fund_flow": [
            {
                "amount": "11,501",
                "from": "0x4f428aa5f29f0b2bd2131067cfe879bb83227a6e",
                "id": 1,
                "isERC1155": false,
                "isERC721": false,
                "isReverted": false,
                "order": 1,
                "to": "0x9570ebde9e6c6b7e7a47743796c6ae2c55329c01",
                "token": "0xdd8a513d11bd563e009f8e561c488ba7969470e1"
            }
        ],
        "token_infos": [
            {
                "address": "0xc02aaa39b223fe8d0a0e5c4f27ead9083c756cc2",
                "decimals": 18
            },
            {
                "address": "0xdd8a513d11bd563e009f8e561c488ba7969470e1",
                "decimals": 18
            },
            {
                "address": "0xeeeeeeeeeeeeeeeeeeeeeeeeeeeeeeeeeeeeeeee",
                "decimals": 18
            }
        ]
    },
    "address_label": {
        "labels": [
            {
                "address": "0xeeeeeeeeeeeeeeeeeeeeeeeeeeeeeeeeeeeeeeee",
                "label": "Ether"
            },
            {
                "address": "0xdd8a513d11bd563e009f8e561c488ba7969470e1",
                "label": "DCCB (DCCB)"
            },
            {
                "address": "0x0000000000000000000000000000000000000001",
                "label": "Precompiled"
            },
            {
                "address": "0x0000000000000000000000000000000000000002",
                "label": "Precompiled"
            },
            {
                "address": "0x0000000000000000000000000000000000000003",
                "label": "Precompiled"
            },
            {
                "address": "0x0000000000000000000000000000000000000004",
                "label": "Precompiled"
            }
        ]
    },
    "trace": {
        "accountLabels": null,
        "dataMap": {
            "-1": {
                "invocation": {
                    "address": "0x4f428aa5f29f0b2bd2131067cfe879bb83227a6e",
                    "callData": "",
                    "decodedMethod": null,
                    "errorInfo": "",
                    "fromAddress": "",
                    "gasUsed": 0,
                    "id": -1,
                    "methodDecoded": false,
                    "operation": "",
                    "output": "",
                    "revert": false,
                    "revertMessage": "",
                    "selector": "",
                    "status": false,
                    "value": ""
                },
                "nodeType": 0
            },
            "0": {
                "invocation": {
                    "address": "0xdd8a513d11bd563e009f8e561c488ba7969470e1",
                    "callData": "0x0000000000000000000000009570ebde9e6c6b7e7a47743796c6ae2c55329c0100000000000000000000000000000000000000000000026f7870051727940000",
                    "decodedMethod": {
                        "callParams": [
                            {
                                "name": "_to",
                                "type": "address",
                                "value": "0x9570ebde9e6c6b7e7a47743796c6ae2c55329c01"
                            },
                            {
                                "decimalAvailable": true,
                                "name": "_value",
                                "type": "uint256",
                                "value": "11,501,000,000,000,000,000,000"
                            }
                        ],
                        "constructorArguments": "",
                        "name": "transfer",
                        "returnParams": [
                            {
                                "name": "success",
                                "type": "bool",
                                "value": true
                            }
                        ],
                        "signature": "transfer(address,uint256)"
                    },
                    "errorInfo": "",
                    "fromAddress": "0x4f428aa5f29f0b2bd2131067cfe879bb83227a6e",
                    "gasUsed": 25695,
                    "id": 0,
                    "methodDecoded": true,
                    "operation": "CALL",
                    "output": "0x0000000000000000000000000000000000000000000000000000000000000001",
                    "revert": false,
                    "revertMessage": "",
                    "selector": "0xa9059cbb",
                    "status": true,
                    "value": "0"
                },
                "nodeType": 0
            },
            "1": {
                "event": {
                    "contract": "0xdd8a513d11bd563e009f8e561c488ba7969470e1",
                    "decodedLog": {
                        "name": "Transfer",
                        "params": [
                            {
                                "name": "from",
                                "type": "address",
                                "value": "0x4f428aa5f29f0b2bd2131067cfe879bb83227a6e"
                            },
                            {
                                "name": "to",
                                "type": "address",
                                "value": "0x9570ebde9e6c6b7e7a47743796c6ae2c55329c01"
                            },
                            {
                                "decimalAvailable": true,
                                "name": "value",
                                "type": "uint256",
                                "value": "11,501,000,000,000,000,000,000"
                            }
                        ],
                        "signature": "Transfer(address,address,uint256)"
                    },
                    "id": 1,
                    "logData": "0x00000000000000000000000000000000000000000000026f7870051727940000",
                    "logDecoded": true,
                    "operation": "EVENT",
                    "revert": false,
                    "status": true,
                    "topics": [
                        "0xddf252ad1be2c89b69c2b068fc378daa952ba7f163c4a11628f55a4df523b3ef",
                        "0x0000000000000000000000004f428aa5f29f0b2bd2131067cfe879bb83227a6e",
                        "0x0000000000000000000000009570ebde9e6c6b7e7a47743796c6ae2c55329c01"
                    ]
                },
                "nodeType": 1
            }
        },
        "gasFlame": [
            {
                "children": [
                    {
                        "children": [
                            {
                                "children": [],
                                "depth": 0,
                                "name": "Initial Gas",
                                "value": 21656
                            },
                            {
                                "children": [],
                                "depth": 0,
                                "name": "Executed Gas",
                                "value": 19039
                            }
                        ],
                        "depth": -1,
                        "name": "Actual Gas Used",
                        "value": 25695
                    },
                    {
                        "children": [],
                        "depth": -1,
                        "name": "Refunded Gas",
                        "value": 15000
                    }
                ],
                "depth": -2,
                "name": "Total Gas",
                "value": 40695
            }
        ],
        "isConfirmed": true,
        "mainTrace": [
            {
                "children": [
                    {
                        "children": [
                            {
                                "children": [],
                                "depth": 1,
                                "id": 1,
                                "order": 1
                            }
                        ],
                        "depth": 0,
                        "id": 0,
                        "order": 0
                    }
                ],
                "depth": -1,
                "id": -1,
                "order": -1
            }
        ],
        "mainTraceNodeCount": 2,
        "parentIdMap": {
            "0": -1,
            "1": 0
        },
        "tidyTrace": [
            {
                "children": [
                    {
                        "children": [
                            {
                                "children": [],
                                "depth": 1,
                                "id": 1,
                                "order": 1
                            }
                        ],
                        "depth": 0,
                        "id": 0,
                        "order": 0
                    }
                ],
                "depth": -1,
                "id": -1,
                "order": -1
            }
        ],
        "tidyTraceNodeCount": 2
    },
    "state_change": {
        "stateChanges": [
            {
                "address": "0xdd8a513d11bd563e009f8e561c488ba7969470e1",
                "erc": "ERC-20",
                "slots": [
                    {
                        "current": "0x0000000000000000000000000000000000000000000000000000000000000000",
                        "key": "0xcecc29fbb20f6bdcb725bd9b30e5438aada163e73f33b2453fcc60eef4c7064e",
                        "prev": "0x00000000000000000000000000000000000000000000026f7870051727940000"
                    },
                    {
                        "current": "0x000000000000000000000000000000000000000000088a2c437abe0d5f4cc000",
                        "key": "0x35279f6916392109e730dc4545638482b1aed8e97305afaf9c5278d8ff3a6038",
                        "prev": "0x0000000000000000000000000000000000000000000887bccb0ab8f637b8c000"
                    }
                ],
                "storageVariables": [
                    {
                        "name": "balanceOf",
                        "type": "mapping(address => uint256)",
                        "value": {
                            "pairs": [
                                {
                                    "key": "0x4f428aa5f29f0b2bd2131067cfe879bb83227a6e",
                                    "value": {
                                        "current": "0",
                                        "prev": "11501000000000000000000",
                                        "typeTag": 1
                                    }
                                },
                                {
                                    "key": "0x9570ebde9e6c6b7e7a47743796c6ae2c55329c01",
                                    "value": {
                                        "current": "10323909650700000000000000",
                                        "prev": "10312408650700000000000000",
                                        "typeTag": 1
                                    }
                                }
                            ],
                            "typeTag": 4
                        }
                    }
                ]
            }
        ]
    }
}