{
    "balance_change": {
        "balanceChanges": [
            {
                "account": "0xf04dc2f4822a3a08d2451883cfc6584a15b476b3",
                "assets": [
                    {
                        "address": "0x5382069bab09032965554ef185929b273d860825",
                        "amount": "190",
                        "iconUrl": "",
                        "isERC1155": false,
                        "isERC721": false,
                        "sign": false,
                        "value": ""
                    }
                ]
            },
            {
                "account": "0x7a1711d278782c979014e11e05e761252501e771",
                "assets": [
                    {
                        "address": "0x5382069bab09032965554ef185929b273d860825",
                        "amount": "190",
                        "iconUrl": "",
                        "isERC1155": false,
                        "isERC721": false,
                        "sign": true,
                        "value": ""
                    }
                ]
            }
        ]
    },
    "profile": {
        "basic_info": {
            "baseFee": "",
            "blockNumber": 9108227,
            "callData": "0xa9059cbb0000000000000000000000007a1711d278782c979014e11e05e761252501e77100000000000000000000000000000000000000000000000a4cc799563c380000",
            "debugEnable": true,
            "errorInfo": "",
            "eventCount": 1,
            "feeRecipient": "0x829bd824b016326a401d083b33d092293333a830",
            "formatValue": "0",
            "gasLimit": 393660,
            "gasPrice": "15.4",
            "gasUsed": 39366,
            "intTxnCount": 0,
            "internalRevert": false,
            "internalRevertMessage": "",
            "isContractCreation": false,
            "isFlashloan": false,
            "maxFee": "",
            "nonce": 1175,
            "overwritedBlockNumber": -1,
            "priorityFee": "",
            "receiver": "0x5382069bab09032965554ef185929b273d860825",
            "revertMessage": "",
            "sender": "0xf04dc2f4822a3a08d2451883cfc6584a15b476b3",
            "simulationEnable": true,
            "sourceTxnHash": "0xa150600c953cc318bf7d51b2bbb9c988dbf92ef9476eeda775e3e5d5fa1f33b0",
            "status": true,
            "timestamp": "2019-12-15T02:11:14Z",
            "transactionFee": "0.0006062364",
            "txnHash": "0xa150600c953cc318bf7d51b2bbb9c988dbf92ef9476eeda775e3e5d5fa1f33b0",
            "txnIndex": 25,
            "type": 0,
            "value": "0"
        },
        "fund_flow": [
            {
                "amount": "190",
                "from": "0xf04dc2f4822a3a08d2451883cfc6584a15b476b3",
                "id": 1,
                "isERC1155": false,
                "isERC721": false,
                "isReverted": false,
                "order": 1,
                "to": "0x7a1711d278782c979014e11e05e761252501e771",
                "token": "0x5382069bab09032965554ef185929b273d860825"
            }
        ],
        "token_infos": [
            {
                "address": "0x5382069bab09032965554ef185929b273d860825",
                "decimals": 18
            },
            {
                "address": "0xc02aaa39b223fe8d0a0e5c4f27ead9083c756cc2",
                "decimals": 18
            },
            {
                "address": "0xeeeeeeeeeeeeeeeeeeeeeeeeeeeeeeeeeeeeeeee",
                "decimals": 18
            }
        ]
    },
    "address_label": {
        "labels": [
            {
                "address": "0xeeeeeeeeeeeeeeeeeeeeeeeeeeeeeeeeeeeeeeee",
                "label": "Ether"
            },
            {
                "address": "0x7a1711d278782c979014e11e05e761252501e771",
                "label": "KUCOIN"
            },
            {
                "address": "0x5382069bab09032965554ef185929b273d860825",
                "label": "TheForbiddenForest (ForestPlus)"
            },
            {
                "address": "0x0000000000000000000000000000000000000001",
                "label": "Precompiled"
            },
            {
                "address": "0x0000000000000000000000000000000000000002",
                "label": "Precompiled"
            },
            {
                "address": "0x0000000000000000000000000000000000000003",
                "label": "Precompiled"
            },
            {
                "address": "0x0000000000000000000000000000000000000004",
                "label": "Precompiled"
            }
        ]
    },
    "trace": {
        "accountLabels": null,
        "dataMap": {
            "-1": {
                "invocation": {
                    "address": "0xf04dc2f4822a3a08d2451883cfc6584a15b476b3",
                    "callData": "",
                    "decodedMethod": null,
                    "errorInfo": "",
                    "fromAddress": "",
                    "gasUsed": 0,
                    "id": -1,
                    "methodDecoded": false,
                    "operation": "",
                    "output": "",
                    "revert": false,
                    "revertMessage": "",
                    "selector": "",
                    "status": false,
                    "value": ""
                },
                "nodeType": 0
            },
            "0": {
                "invocation": {
                    "address": "0x5382069bab09032965554ef185929b273d860825",
                    "callData": "0x0000000000000000000000007a1711d278782c979014e11e05e761252501e77100000000000000000000000000000000000000000000000a4cc799563c380000",
                    "decodedMethod": {
                        "callParams": [
                            {
                                "name": "_to",
                                "type": "address",
                                "value": "0x7a1711d278782c979014e11e05e761252501e771"
                            },
                            {
                                "decimalAvailable": true,
                                "name": "_value",
                                "type": "uint256",
                                "value": "190,000,000,000,000,000,000"
                            }
                        ],
                        "constructorArguments": "",
                        "name": "transfer",
                        "returnParams": [
                            {
                                "name": "success",
                                "type": "bool",
                                "value": true
                            }
                        ],
                        "signature": "transfer(address,uint256)"
                    },
                    "errorInfo": "",
                    "fromAddress": "0xf04dc2f4822a3a08d2451883cfc6584a15b476b3",
                    "gasUsed": 39366,
                    "id": 0,
                    "methodDecoded": true,
                    "operation": "CALL",
                    "output": "0x0000000000000000000000000000000000000000000000000000000000000001",
                    "revert": false,
                    "revertMessage": "",
                    "selector": "0xa9059cbb",
                    "status": true,
                    "value": "0"
                },
                "nodeType": 0
            },
            "1": {
                "event": {
                    "contract": "0x5382069bab09032965554ef185929b273d860825",
                    "decodedLog": {
                        "name": "Transfer",
                        "params": [
                            {
                                "name": "from",
                                "type": "address",
                                "value": "0xf04dc2f4822a3a08d2451883cfc6584a15b476b3"
                            },
                            {
                                "name": "to",
                                "type": "address",
                                "value": "0x7a1711d278782c979014e11e05e761252501e771"
                            },
                            {
                                "decimalAvailable": true,
                                "name": "value",
                                "type": "uint256",
                                "value": "190,000,000,000,000,000,000"
                            }
                        ],
                        "signature": "Transfer(address,address,uint256)"
                    },
                    "id": 1,
                    "logData": "0x00000000000000000000000000000000000000000000000a4cc799563c380000",
                    "logDecoded": true,
                    "operation": "EVENT",
                    "revert": false,
                    "status": true,
                    "topics": [
                        "0xddf252ad1be2c89b69c2b068fc378daa952ba7f163c4a11628f55a4df523b3ef",
                        "0x000000000000000000000000f04dc2f4822a3a08d2451883cfc6584a15b476b3",
                        "0x0000000000000000000000007a1711d278782c979014e11e05e761252501e771"
                    ]
                },
                "nodeType": 1
            }
        },
        "gasFlame": [
            {
                "children": [
                    {
                        "children": [
                            {
                                "children": [],
                                "depth": 0,
                                "name": "Initial Gas",
                                "value": 21644
                            },
                            {
                                "children": [],
                                "depth": 0,
                                "name": "Executed Gas",
                                "value": 17722
                            }
                        ],
                        "depth": -1,
                        "name": "Actual Gas Used",
                        "value": 39366
                    },
                    {
                        "children": [],
                        "depth": -1,
                        "name": "Refunded Gas",
                        "value": 0
                    }
                ],
                "depth": -2,
                "name": "Total Gas",
                "value": 39366
            }
        ],
        "isConfirmed": true,
        "mainTrace": [
            {
                "children": [
                    {
                        "children": [
                            {
                                "children": [],
                                "depth": 1,
                                "id": 1,
                                "order": 1
                            }
                        ],
                        "depth": 0,
                        "id": 0,
                        "order": 0
                    }
                ],
                "depth": -1,
                "id": -1,
                "order": -1
            }
        ],
        "mainTraceNodeCount": 2,
        "parentIdMap": {
            "0": -1,
            "1": 0
        },
        "tidyTrace": [
            {
                "children": [
                    {
                        "children": [
                            {
                                "children": [],
                                "depth": 1,
                                "id": 1,
                                "order": 1
                            }
                        ],
                        "depth": 0,
                        "id": 0,
                        "order": 0
                    }
                ],
                "depth": -1,
                "id": -1,
                "order": -1
            }
        ],
        "tidyTraceNodeCount": 2
    },
    "state_change": {
        "stateChanges": [
            {
                "address": "0x5382069bab09032965554ef185929b273d860825",
                "erc": "ERC-20",
                "slots": [
                    {
                        "current": "0x00000000000000000000000000000000000000000000001e6f41aa3c8b9fb000",
                        "key": "0xde3728025a8a36b7abb39ad655289909b5e3b0960362a24c76d58650f43594ca",
                        "prev": "0x000000000000000000000000000000000000000000000028bc094392c7d7b000"
                    },
                    {
                        "current": "0x0000000000000000000000000000000000000000000000130e0adbac55ce0000",
                        "key": "0xdbc1f0194413b88edfbf399e71b26eaf36e2668a116950de48c3608db41acc60",
                        "prev": "0x000000000000000000000000000000000000000000000008c143425619960000"
                    }
                ],
                "storageVariables": [
                    {
                        "name": "balanceOf",
                        "type": "mapping(address => uint256)",
                        "value": {
                            "pairs": [
                                {
                                    "key": "0x7a1711d278782c979014e11e05e761252501e771",
                                    "value": {
                                        "current": "351500000000000000000",
                                        "prev": "161500000000000000000",
                                        "typeTag": 1
                                    }
                                },
                                {
                                    "key": "0xf04dc2f4822a3a08d2451883cfc6584a15b476b3",
                                    "value": {
                                        "current": "561419198200000000000",
                                        "prev": "751419198200000000000",
                                        "typeTag": 1
                                    }
                                }
                            ],
                            "typeTag": 4
                        }
                    }
                ]
            }
        ]
    }
}