{
    "balance_change": {
        "balanceChanges": [
            {
                "account": "0xb074baa94c47c00b9f1310b6b05e08ed293fa9f0",
                "assets": [
                    {
                        "address": "0x3930e4ddb4d24ef2f4cb54c1f009a3694b708428",
                        "amount": "50,000",
                        "iconUrl": "",
                        "isERC1155": false,
                        "isERC721": false,
                        "sign": false,
                        "value": ""
                    }
                ]
            },
            {
                "account": "0x374088f9ed5c9a182cd44c4fff480bd6f1396fbd",
                "assets": [
                    {
                        "address": "0x3930e4ddb4d24ef2f4cb54c1f009a3694b708428",
                        "amount": "50,000",
                        "iconUrl": "",
                        "isERC1155": false,
                        "isERC721": false,
                        "sign": true,
                        "value": ""
                    }
                ]
            }
        ]
    },
    "profile": {
        "basic_info": {
            "baseFee": "",
            "blockNumber": 7014616,
            "callData": "0xa9059cbb000000000000000000000000374088f9ed5c9a182cd44c4fff480bd6f1396fbd0000000000000000000000000000000000000000000000000000048c27395000",
            "debugEnable": true,
            "errorInfo": "",
            "eventCount": 1,
            "feeRecipient": "0xea674fdde714fd979de3edf0f56aa9716b898ec8",
            "formatValue": "0",
            "gasLimit": 36791,
            "gasPrice": "1.1",
            "gasUsed": 21791,
            "intTxnCount": 0,
            "internalRevert": false,
            "internalRevertMessage": "",
            "isContractCreation": false,
            "isFlashloan": false,
            "maxFee": "",
            "nonce": 1,
            "overwritedBlockNumber": -1,
            "priorityFee": "",
            "receiver": "0x3930e4ddb4d24ef2f4cb54c1f009a3694b708428",
            "revertMessage": "",
            "sender": "0xb074baa94c47c00b9f1310b6b05e08ed293fa9f0",
            "simulationEnable": true,
            "sourceTxnHash": "0xa1c66f25d82e43e04a877eb11963097dbf1a9ba6f81b07aeebae19f4224daad4",
            "status": true,
            "timestamp": "2019-01-05T13:10:39Z",
            "transactionFee": "0.0000239701",
            "txnHash": "0xa1c66f25d82e43e04a877eb11963097dbf1a9ba6f81b07aeebae19f4224daad4",
            "txnIndex": 44,
            "type": 0,
            "value": "0"
        },
        "fund_flow": [
            {
                "amount": "50,000",
                "from": "0xb074baa94c47c00b9f1310b6b05e08ed293fa9f0",
                "id": 1,
                "isERC1155": false,
                "isERC721": false,
                "isReverted": false,
                "order": 1,
                "to": "0x374088f9ed5c9a182cd44c4fff480bd6f1396fbd",
                "token": "0x3930e4ddb4d24ef2f4cb54c1f009a3694b708428"
            }
        ],
        "token_infos": [
            {
                "address": "0x3930e4ddb4d24ef2f4cb54c1f009a3694b708428",
                "decimals": 8
            },
            {
                "address": "0xc02aaa39b223fe8d0a0e5c4f27ead9083c756cc2",
                "decimals": 18
            },
            {
                "address": "0xeeeeeeeeeeeeeeeeeeeeeeeeeeeeeeeeeeeeeeee",
                "decimals": 18
            }
        ]
    },
    "address_label": {
        "labels": [
            {
                "address": "0x0000000000000000000000000000000000000001",
                "label": "Precompiled"
            },
            {
                "address": "0x0000000000000000000000000000000000000002",
                "label": "Precompiled"
            },
            {
                "address": "0x0000000000000000000000000000000000000003",
                "label": "Precompiled"
            },
            {
                "address": "0x0000000000000000000000000000000000000004",
                "label": "Precompiled"
            },
            {
                "address": "0xeeeeeeeeeeeeeeeeeeeeeeeeeeeeeeeeeeeeeeee",
                "label": "Ether"
            },
            {
                "address": "0x3930e4ddb4d24ef2f4cb54c1f009a3694b708428",
                "label": "GameFanz (GFN)"
            }
        ]
    },
    "trace": {
        "accountLabels": null,
        "dataMap": {
            "-1": {
                "invocation": {
                    "address": "0xb074baa94c47c00b9f1310b6b05e08ed293fa9f0",
                    "callData": "",
                    "decodedMethod": null,
                    "errorInfo": "",
                    "fromAddress": "",
                    "gasUsed": 0,
                    "id": -1,
                    "methodDecoded": false,
                    "operation": "",
                    "output": "",
                    "revert": false,
                    "revertMessage": "",
                    "selector": "",
                    "status": false,
                    "value": ""
                },
                "nodeType": 0
            },
            "0": {
                "invocation": {
                    "address": "0x3930e4ddb4d24ef2f4cb54c1f009a3694b708428",
                    "callData": "0x000000000000000000000000374088f9ed5c9a182cd44c4fff480bd6f1396fbd0000000000000000000000000000000000000000000000000000048c27395000",
                    "decodedMethod": {
                        "callParams": [
                            {
                                "name": "to",
                                "type": "address",
                                "value": "0x374088f9ed5c9a182cd44c4fff480bd6f1396fbd"
                            },
                            {
                                "decimalAvailable": true,
                                "name": "value",
                                "type": "uint256",
                                "value": "5,000,000,000,000"
                            }
                        ],
                        "constructorArguments": "",
                        "name": "transfer",
                        "returnParams": [
                            {
                                "name": "success",
                                "type": "bool",
                                "value": true
                            }
                        ],
                        "signature": "transfer(address,uint256)"
                    },
                    "errorInfo": "",
                    "fromAddress": "0xb074baa94c47c00b9f1310b6b05e08ed293fa9f0",
                    "gasUsed": 21791,
                    "id": 0,
                    "methodDecoded": true,
                    "operation": "CALL",
                    "output": "0x0000000000000000000000000000000000000000000000000000000000000001",
                    "revert": false,
                    "revertMessage": "",
                    "selector": "0xa9059cbb",
                    "status": true,
                    "value": "0"
                },
                "nodeType": 0
            },
            "1": {
                "event": {
                    "contract": "0x3930e4ddb4d24ef2f4cb54c1f009a3694b708428",
                    "decodedLog": {
                        "name": "Transfer",
                        "params": [
                            {
                                "name": "from",
                                "type": "address",
                                "value": "0xb074baa94c47c00b9f1310b6b05e08ed293fa9f0"
                            },
                            {
                                "name": "to",
                                "type": "address",
                                "value": "0x374088f9ed5c9a182cd44c4fff480bd6f1396fbd"
                            },
                            {
                                "decimalAvailable": true,
                                "name": "value",
                                "type": "uint256",
                                "value": "5,000,000,000,000"
                            }
                        ],
                        "signature": "Transfer(address,address,uint256)"
                    },
                    "id": 1,
                    "logData": "0x0000000000000000000000000000000000000000000000000000048c27395000",
                    "logDecoded": true,
                    "operation": "EVENT",
                    "revert": false,
                    "status": true,
                    "topics": [
                        "0xddf252ad1be2c89b69c2b068fc378daa952ba7f163c4a11628f55a4df523b3ef",
                        "0x000000000000000000000000b074baa94c47c00b9f1310b6b05e08ed293fa9f0",
                        "0x000000000000000000000000374088f9ed5c9a182cd44c4fff480bd6f1396fbd"
                    ]
                },
                "nodeType": 1
            }
        },
        "gasFlame": [
            {
                "children": [
                    {
                        "children": [
                            {
                                "children": [],
                                "depth": 0,
                                "name": "Initial Gas",
                                "value": 23128
                            },
                            {
                                "children": [],
                                "depth": 0,
                                "name": "Executed Gas",
                                "value": 13663
                            }
                        ],
                        "depth": -1,
                        "name": "Actual Gas Used",
                        "value": 21791
                    },
                    {
                        "children": [],
                        "depth": -1,
                        "name": "Refunded Gas",
                        "value": 15000
                    }
                ],
                "depth": -2,
                "name": "Total Gas",
                "value": 36791
            }
        ],
        "isConfirmed": true,
        "mainTrace": [
            {
                "children": [
                    {
                        "children": [
                            {
                                "children": [],
                                "depth": 1,
                                "id": 1,
                                "order": 1
                            }
                        ],
                        "depth": 0,
                        "id": 0,
                        "order": 0
                    }
                ],
                "depth": -1,
                "id": -1,
                "order": -1
            }
        ],
        "mainTraceNodeCount": 2,
        "parentIdMap": {
            "0": -1,
            "1": 0
        },
        "tidyTrace": [
            {
                "children": [
                    {
                        "children": [
                            {
                                "children": [],
                                "depth": 1,
                                "id": 1,
                                "order": 1
                            }
                        ],
                        "depth": 0,
                        "id": 0,
                        "order": 0
                    }
                ],
                "depth": -1,
                "id": -1,
                "order": -1
            }
        ],
        "tidyTraceNodeCount": 2
    },
    "state_change": {
        "stateChanges": [
            {
                "address": "0x3930e4ddb4d24ef2f4cb54c1f009a3694b708428",
                "erc": "ERC-20",
                "slots": [
                    {
                        "current": "0x0000000000000000000000000000000000000000000000000000000000000000",
                        "key": "0x3c3bf1d2c25915e01f0accefa729b4a39deeb9370ad3eacdd183c11dbcad204a",
                        "prev": "0x0000000000000000000000000000000000000000000000000000048c27395000"
                    },
                    {
                        "current": "0x000000000000000000000000000000000000000000000000000afa56b05b2000",
                        "key": "0x107e4812b10934f79f195c25a1fd958db2fc89c20020937d351af9b1c3274ab7",
                        "prev": "0x000000000000000000000000000000000000000000000000000af5ca8921d000"
                    }
                ],
                "storageVariables": [
                    {
                        "name": "_balances",
                        "type": "mapping(address => uint256)",
                        "value": {
                            "pairs": [
                                {
                                    "key": "0x374088f9ed5c9a182cd44c4fff480bd6f1396fbd",
                                    "value": {
                                        "current": "3090000000000000",
                                        "prev": "3085000000000000",
                                        "typeTag": 1
                                    }
                                },
                                {
                                    "key": "0xb074baa94c47c00b9f1310b6b05e08ed293fa9f0",
                                    "value": {
                                        "current": "0",
                                        "prev": "5000000000000",
                                        "typeTag": 1
                                    }
                                }
                            ],
                            "typeTag": 4
                        }
                    }
                ]
            }
        ]
    }
}