{
    "balance_change": {
        "balanceChanges": [
            {
                "account": "0x10eadc31887d2dc74e67e8314b522566651f6b51",
                "assets": [
                    {
                        "address": "0xc14830e53aa344e8c14603a91229a0b925b0b262",
                        "amount": "400",
                        "iconUrl": "",
                        "isERC1155": false,
                        "isERC721": false,
                        "sign": false,
                        "value": ""
                    }
                ]
            },
            {
                "account": "0x0861fca546225fbf8806986d211c8398f7457734",
                "assets": [
                    {
                        "address": "0xc14830e53aa344e8c14603a91229a0b925b0b262",
                        "amount": "400",
                        "iconUrl": "",
                        "isERC1155": false,
                        "isERC721": false,
                        "sign": true,
                        "value": ""
                    }
                ]
            }
        ]
    },
    "profile": {
        "basic_info": {
            "baseFee": "",
            "blockNumber": 6600897,
            "callData": "0xa9059cbb0000000000000000000000000861fca546225fbf8806986d211c8398f745773400000000000000000000000000000000000000000000000000000009502f9000",
            "debugEnable": true,
            "errorInfo": "",
            "eventCount": 1,
            "feeRecipient": "0x829bd824b016326a401d083b33d092293333a830",
            "formatValue": "0",
            "gasLimit": 36897,
            "gasPrice": "7.5300001",
            "gasUsed": 21897,
            "intTxnCount": 0,
            "internalRevert": false,
            "internalRevertMessage": "",
            "isContractCreation": false,
            "isFlashloan": false,
            "maxFee": "",
            "nonce": 1,
            "overwritedBlockNumber": -1,
            "priorityFee": "",
            "receiver": "0xc14830e53aa344e8c14603a91229a0b925b0b262",
            "revertMessage": "",
            "sender": "0x10eadc31887d2dc74e67e8314b522566651f6b51",
            "simulationEnable": true,
            "sourceTxnHash": "0xa29d33609e0603dbb995bfc52e8dcad799bbaf01f30cbe659e6d7d4435b19cb3",
            "status": true,
            "timestamp": "2018-10-28T19:01:54Z",
            "transactionFee": "0.0001648844121897",
            "txnHash": "0xa29d33609e0603dbb995bfc52e8dcad799bbaf01f30cbe659e6d7d4435b19cb3",
            "txnIndex": 61,
            "type": 0,
            "value": "0"
        },
        "fund_flow": [
            {
                "amount": "400",
                "from": "0x10eadc31887d2dc74e67e8314b522566651f6b51",
                "id": 1,
                "isERC1155": false,
                "isERC721": false,
                "isReverted": false,
                "order": 1,
                "to": "0x0861fca546225fbf8806986d211c8398f7457734",
                "token": "0xc14830e53aa344e8c14603a91229a0b925b0b262"
            }
        ],
        "token_infos": [
            {
                "address": "0xc02aaa39b223fe8d0a0e5c4f27ead9083c756cc2",
                "decimals": 18
            },
            {
                "address": "0xc14830e53aa344e8c14603a91229a0b925b0b262",
                "decimals": 8
            },
            {
                "address": "0xeeeeeeeeeeeeeeeeeeeeeeeeeeeeeeeeeeeeeeee",
                "decimals": 18
            }
        ]
    },
    "address_label": {
        "labels": [
            {
                "address": "0xeeeeeeeeeeeeeeeeeeeeeeeeeeeeeeeeeeeeeeee",
                "label": "Ether"
            },
            {
                "address": "0x0861fca546225fbf8806986d211c8398f7457734",
                "label": "LAToken"
            },
            {
                "address": "0xc14830e53aa344e8c14603a91229a0b925b0b262",
                "label": "Populous: XBRL Token"
            },
            {
                "address": "0x0000000000000000000000000000000000000001",
                "label": "Precompiled"
            },
            {
                "address": "0x0000000000000000000000000000000000000002",
                "label": "Precompiled"
            },
            {
                "address": "0x0000000000000000000000000000000000000003",
                "label": "Precompiled"
            },
            {
                "address": "0x0000000000000000000000000000000000000004",
                "label": "Precompiled"
            }
        ]
    },
    "trace": {
        "accountLabels": null,
        "dataMap": {
            "-1": {
                "invocation": {
                    "address": "0x10eadc31887d2dc74e67e8314b522566651f6b51",
                    "callData": "",
                    "decodedMethod": null,
                    "errorInfo": "",
                    "fromAddress": "",
                    "gasUsed": 0,
                    "id": -1,
                    "methodDecoded": false,
                    "operation": "",
                    "output": "",
                    "revert": false,
                    "revertMessage": "",
                    "selector": "",
                    "status": false,
                    "value": ""
                },
                "nodeType": 0
            },
            "0": {
                "invocation": {
                    "address": "0xc14830e53aa344e8c14603a91229a0b925b0b262",
                    "callData": "0x0000000000000000000000000861fca546225fbf8806986d211c8398f745773400000000000000000000000000000000000000000000000000000009502f9000",
                    "decodedMethod": {
                        "callParams": [
                            {
                                "name": "_to",
                                "type": "address",
                                "value": "0x0861fca546225fbf8806986d211c8398f7457734"
                            },
                            {
                                "decimalAvailable": true,
                                "name": "_value",
                                "type": "uint256",
                                "value": "40,000,000,000"
                            }
                        ],
                        "constructorArguments": "",
                        "name": "transfer",
                        "returnParams": [
                            {
                                "name": "",
                                "type": "bool",
                                "value": true
                            }
                        ],
                        "signature": "transfer(address,uint256)"
                    },
                    "errorInfo": "",
                    "fromAddress": "0x10eadc31887d2dc74e67e8314b522566651f6b51",
                    "gasUsed": 21897,
                    "id": 0,
                    "methodDecoded": true,
                    "operation": "CALL",
                    "output": "0x0000000000000000000000000000000000000000000000000000000000000001",
                    "revert": false,
                    "revertMessage": "",
                    "selector": "0xa9059cbb",
                    "status": true,
                    "value": "0"
                },
                "nodeType": 0
            },
            "1": {
                "event": {
                    "contract": "0xc14830e53aa344e8c14603a91229a0b925b0b262",
                    "decodedLog": {
                        "name": "Transfer",
                        "params": [
                            {
                                "name": "from",
                                "type": "address",
                                "value": "0x10eadc31887d2dc74e67e8314b522566651f6b51"
                            },
                            {
                                "name": "to",
                                "type": "address",
                                "value": "0x0861fca546225fbf8806986d211c8398f7457734"
                            },
                            {
                                "decimalAvailable": true,
                                "name": "value",
                                "type": "uint256",
                                "value": "40,000,000,000"
                            }
                        ],
                        "signature": "Transfer(address,address,uint256)"
                    },
                    "id": 1,
                    "logData": "0x00000000000000000000000000000000000000000000000000000009502f9000",
                    "logDecoded": true,
                    "operation": "EVENT",
                    "revert": false,
                    "status": true,
                    "topics": [
                        "0xddf252ad1be2c89b69c2b068fc378daa952ba7f163c4a11628f55a4df523b3ef",
                        "0x00000000000000000000000010eadc31887d2dc74e67e8314b522566651f6b51",
                        "0x0000000000000000000000000861fca546225fbf8806986d211c8398f7457734"
                    ]
                },
                "nodeType": 1
            }
        },
        "gasFlame": [
            {
                "children": [
                    {
                        "children": [
                            {
                                "children": [],
                                "depth": 0,
                                "name": "Initial Gas",
                                "value": 23064
                            },
                            {
                                "children": [],
                                "depth": 0,
                                "name": "Executed Gas",
                                "value": 13833
                            }
                        ],
                        "depth": -1,
                        "name": "Actual Gas Used",
                        "value": 21897
                    },
                    {
                        "children": [],
                        "depth": -1,
                        "name": "Refunded Gas",
                        "value": 15000
                    }
                ],
                "depth": -2,
                "name": "Total Gas",
                "value": 36897
            }
        ],
        "isConfirmed": true,
        "mainTrace": [
            {
                "children": [
                    {
                        "children": [
                            {
                                "children": [],
                                "depth": 1,
                                "id": 1,
                                "order": 1
                            }
                        ],
                        "depth": 0,
                        "id": 0,
                        "order": 0
                    }
                ],
                "depth": -1,
                "id": -1,
                "order": -1
            }
        ],
        "mainTraceNodeCount": 2,
        "parentIdMap": {
            "0": -1,
            "1": 0
        },
        "tidyTrace": [
            {
                "children": [
                    {
                        "children": [
                            {
                                "children": [],
                                "depth": 1,
                                "id": 1,
                                "order": 1
                            }
                        ],
                        "depth": 0,
                        "id": 0,
                        "order": 0
                    }
                ],
                "depth": -1,
                "id": -1,
                "order": -1
            }
        ],
        "tidyTraceNodeCount": 2
    },
    "state_change": {
        "stateChanges": [
            {
                "address": "0xc14830e53aa344e8c14603a91229a0b925b0b262",
                "erc": "ERC-20",
                "slots": [
                    {
                        "current": "0x0000000000000000000000000000000000000000000000000000000000000000",
                        "key": "0x4ba11e58669f48edd92a1c8fe8003dada77bcecc70f6ca745442065bd077873d",
                        "prev": "0x00000000000000000000000000000000000000000000000000000009502f9000"
                    },
                    {
                        "current": "0x000000000000000000000000000000000000000000000000000015c69d3dd854",
                        "key": "0xb39ab44c980adff770a0ae93c16206b6c50a9913d791281909dbdcf347a14706",
                        "prev": "0x000000000000000000000000000000000000000000000000000015bd4d0e4854"
                    }
                ],
                "storageVariables": [
                    {
                        "name": "balances",
                        "type": "mapping(address => uint256)",
                        "value": {
                            "pairs": [
                                {
                                    "key": "0x0861fca546225fbf8806986d211c8398f7457734",
                                    "value": {
                                        "current": "23942785783892",
                                        "prev": "23902785783892",
                                        "typeTag": 1
                                    }
                                },
                                {
                                    "key": "0x10eadc31887d2dc74e67e8314b522566651f6b51",
                                    "value": {
                                        "current": "0",
                                        "prev": "40000000000",
                                        "typeTag": 1
                                    }
                                }
                            ],
                            "typeTag": 4
                        }
                    }
                ]
            }
        ]
    }
}