{
    "balance_change": {
        "balanceChanges": []
    },
    "profile": {
        "basic_info": {
            "baseFee": "11.815454588",
            "blockNumber": 14820842,
            "callData": "0x5ef2c7f0c3bb864e9d219b56d213f80c97120d70ea999f49ac340b5727d1d5046487f883642321a096cf9fb91699fbaac24ebe392d93fdfa04c8d609bcc77897f6d5124f000000000000000000000000000000000000000000000000000000000000000000000000000000000000000000000000000000000000000000000000000000000000000000000000000000000000000000000000000000000000000000000000",
            "debugEnable": true,
            "errorInfo": "",
            "eventCount": 2,
            "feeRecipient": "0xea674fdde714fd979de3edf0f56aa9716b898ec8",
            "formatValue": "0",
            "gasLimit": 39719,
            "gasPrice": "12.162590621",
            "gasUsed": 34919,
            "intTxnCount": 0,
            "internalRevert": false,
            "internalRevertMessage": "",
            "isContractCreation": false,
            "isFlashloan": false,
            "maxFee": "12.162590621",
            "nonce": 191,
            "overwritedBlockNumber": -1,
            "priorityFee": "1",
            "receiver": "0x00000000000c2e074ec69a0dfb2997ba6c7d2e1e",
            "revertMessage": "",
            "sender": "0x1e9f72c28b227cbb56577dc6f693b95237ac0bfe",
            "simulationEnable": true,
            "sourceTxnHash": "0xa28060fa1170de2a8406f6b36e89e1ea756b2fc49426256c4ed37939664b8f79",
            "status": true,
            "timestamp": "2022-05-22T02:21:46Z",
            "transactionFee": "0.000424705501894699",
            "txnHash": "0xa28060fa1170de2a8406f6b36e89e1ea756b2fc49426256c4ed37939664b8f79",
            "txnIndex": 162,
            "type": 2,
            "value": "0"
        },
        "fund_flow": [],
        "token_infos": [
            {
                "address": "0xc02aaa39b223fe8d0a0e5c4f27ead9083c756cc2",
                "decimals": 18
            },
            {
                "address": "0xeeeeeeeeeeeeeeeeeeeeeeeeeeeeeeeeeeeeeeee",
                "decimals": 18
            }
        ]
    },
    "address_label": {
        "labels": [
            {
                "address": "0x00000000000c2e074ec69a0dfb2997ba6c7d2e1e",
                "label": "ENS: Registry with Fallback"
            },
            {
                "address": "0x0000000000000000000000000000000000000000",
                "label": "Null Address"
            },
            {
                "address": "0x0000000000000000000000000000000000000001",
                "label": "Precompiled"
            },
            {
                "address": "0x0000000000000000000000000000000000000002",
                "label": "Precompiled"
            },
            {
                "address": "0x0000000000000000000000000000000000000003",
                "label": "Precompiled"
            },
            {
                "address": "0x0000000000000000000000000000000000000004",
                "label": "Precompiled"
            },
            {
                "address": "0xeeeeeeeeeeeeeeeeeeeeeeeeeeeeeeeeeeeeeeee",
                "label": "Ether"
            }
        ]
    },
    "trace": {
        "accountLabels": null,
        "dataMap": {
            "-1": {
                "invocation": {
                    "address": "0x1e9f72c28b227cbb56577dc6f693b95237ac0bfe",
                    "callData": "",
                    "decodedMethod": null,
                    "errorInfo": "",
                    "fromAddress": "",
                    "gasUsed": 0,
                    "id": -1,
                    "methodDecoded": false,
                    "operation": "",
                    "output": "",
                    "revert": false,
                    "revertMessage": "",
                    "selector": "",
                    "status": false,
                    "value": ""
                },
                "nodeType": 0
            },
            "0": {
                "invocation": {
                    "address": "0x00000000000c2e074ec69a0dfb2997ba6c7d2e1e",
                    "callData": "0xc3bb864e9d219b56d213f80c97120d70ea999f49ac340b5727d1d5046487f883642321a096cf9fb91699fbaac24ebe392d93fdfa04c8d609bcc77897f6d5124f000000000000000000000000000000000000000000000000000000000000000000000000000000000000000000000000000000000000000000000000000000000000000000000000000000000000000000000000000000000000000000000000",
                    "decodedMethod": {
                        "callParams": [
                            {
                                "name": "node",
                                "type": "bytes32",
                                "value": "0xc3bb864e9d219b56d213f80c97120d70ea999f49ac340b5727d1d5046487f883"
                            },
                            {
                                "name": "label",
                                "type": "bytes32",
                                "value": "0x642321a096cf9fb91699fbaac24ebe392d93fdfa04c8d609bcc77897f6d5124f"
                            },
                            {
                                "name": "owner",
                                "type": "address",
                                "value": "0x0000000000000000000000000000000000000000"
                            },
                            {
                                "name": "resolver",
                                "type": "address",
                                "value": "0x0000000000000000000000000000000000000000"
                            },
                            {
                                "name": "ttl",
                                "type": "uint64",
                                "value": "0"
                            }
                        ],
                        "constructorArguments": "",
                        "name": "setSubnodeRecord",
                        "returnParams": [],
                        "signature": "setSubnodeRecord(bytes32,bytes32,address,address,uint64)"
                    },
                    "errorInfo": "",
                    "fromAddress": "0x1e9f72c28b227cbb56577dc6f693b95237ac0bfe",
                    "gasUsed": 34919,
                    "id": 0,
                    "methodDecoded": true,
                    "operation": "CALL",
                    "output": "",
                    "revert": false,
                    "revertMessage": "",
                    "selector": "0x5ef2c7f0",
                    "status": true,
                    "value": "0"
                },
                "nodeType": 0
            },
            "1": {
                "event": {
                    "contract": "0x00000000000c2e074ec69a0dfb2997ba6c7d2e1e",
                    "decodedLog": {
                        "name": "NewOwner",
                        "params": [
                            {
                                "name": "node",
                                "type": "bytes32",
                                "value": "0xc3bb864e9d219b56d213f80c97120d70ea999f49ac340b5727d1d5046487f883"
                            },
                            {
                                "name": "label",
                                "type": "bytes32",
                                "value": "0x642321a096cf9fb91699fbaac24ebe392d93fdfa04c8d609bcc77897f6d5124f"
                            },
                            {
                                "name": "owner",
                                "type": "address",
                                "value": "0x0000000000000000000000000000000000000000"
                            }
                        ],
                        "signature": "NewOwner(bytes32,bytes32,address)"
                    },
                    "id": 1,
                    "logData": "0x0000000000000000000000000000000000000000000000000000000000000000",
                    "logDecoded": true,
                    "operation": "EVENT",
                    "revert": false,
                    "status": true,
                    "topics": [
                        "0xce0457fe73731f824cc272376169235128c118b49d344817417c6d108d155e82",
                        "0xc3bb864e9d219b56d213f80c97120d70ea999f49ac340b5727d1d5046487f883",
                        "0x642321a096cf9fb91699fbaac24ebe392d93fdfa04c8d609bcc77897f6d5124f"
                    ]
                },
                "nodeType": 1
            },
            "2": {
                "event": {
                    "contract": "0x00000000000c2e074ec69a0dfb2997ba6c7d2e1e",
                    "decodedLog": {
                        "name": "NewResolver",
                        "params": [
                            {
                                "name": "node",
                                "type": "bytes32",
                                "value": "0x85c804e8e6d8ee6faad5309b5e50fc27890c30d3f937dac8b645eab78e7069f0"
                            },
                            {
                                "name": "resolver",
                                "type": "address",
                                "value": "0x0000000000000000000000000000000000000000"
                            }
                        ],
                        "signature": "NewResolver(bytes32,address)"
                    },
                    "id": 2,
                    "logData": "0x0000000000000000000000000000000000000000000000000000000000000000",
                    "logDecoded": true,
                    "operation": "EVENT",
                    "revert": false,
                    "status": true,
                    "topics": [
                        "0x335721b01866dc23fbee8b6b2c7b1e14d6f05c28cd35a2c934239f94095602a0",
                        "0x85c804e8e6d8ee6faad5309b5e50fc27890c30d3f937dac8b645eab78e7069f0"
                    ]
                },
                "nodeType": 1
            }
        },
        "gasFlame": [
            {
                "children": [
                    {
                        "children": [
                            {
                                "children": [],
                                "depth": 0,
                                "name": "Initial Gas",
                                "value": 22472
                            },
                            {
                                "children": [],
                                "depth": 0,
                                "name": "Executed Gas",
                                "value": 17247
                            }
                        ],
                        "depth": -1,
                        "name": "Actual Gas Used",
                        "value": 34919
                    },
                    {
                        "children": [],
                        "depth": -1,
                        "name": "Refunded Gas",
                        "value": 4800
                    }
                ],
                "depth": -2,
                "name": "Total Gas",
                "value": 39719
            }
        ],
        "isConfirmed": true,
        "mainTrace": [
            {
                "children": [
                    {
                        "children": [
                            {
                                "children": [],
                                "depth": 1,
                                "id": 1,
                                "order": 1
                            },
                            {
                                "children": [],
                                "depth": 1,
                                "id": 2,
                                "order": 2
                            }
                        ],
                        "depth": 0,
                        "id": 0,
                        "order": 0
                    }
                ],
                "depth": -1,
                "id": -1,
                "order": -1
            }
        ],
        "mainTraceNodeCount": 3,
        "parentIdMap": {
            "0": -1,
            "1": 0,
            "2": 0
        },
        "tidyTrace": [
            {
                "children": [
                    {
                        "children": [
                            {
                                "children": [],
                                "depth": 1,
                                "id": 1,
                                "order": 1
                            },
                            {
                                "children": [],
                                "depth": 1,
                                "id": 2,
                                "order": 2
                            }
                        ],
                        "depth": 0,
                        "id": 0,
                        "order": 0
                    }
                ],
                "depth": -1,
                "id": -1,
                "order": -1
            }
        ],
        "tidyTraceNodeCount": 3
    },
    "state_change": {
        "stateChanges": [
            {
                "address": "0x00000000000c2e074ec69a0dfb2997ba6c7d2e1e",
                "erc": "",
                "slots": [
                    {
                        "current": "0x00000000000000000000000000000000000c2e074ec69a0dfb2997ba6c7d2e1e",
                        "key": "0xf823f4d103581d39c41b514a3963651425f252c6b2408e41297f1c8bed5605d5",
                        "prev": "0x0000000000000000000000001e9f72c28b227cbb56577dc6f693b95237ac0bfe"
                    },
                    {
                        "current": "0x0000000000000000000000000000000000000000000000000000000000000000",
                        "key": "0xf823f4d103581d39c41b514a3963651425f252c6b2408e41297f1c8bed5605d6",
                        "prev": "0x0000000000000000000000004976fb03c32e5b8cfe2b6ccb31c09ba78ebaba41"
                    }
                ],
                "storageVariables": [
                    {
                        "name": "records",
                        "type": "mapping(bytes32 => struct ENSRegistry.Record)",
                        "value": {
                            "pairs": [
                                {
                                    "key": "0x85c804e8e6d8ee6faad5309b5e50fc27890c30d3f937dac8b645eab78e7069f0",
                                    "value": {
                                        "fields": [
                                            {
                                                "name": "owner",
                                                "type": "address",
                                                "value": {
                                                    "current": "0x00000000000c2e074ec69a0dfb2997ba6c7d2e1e",
                                                    "prev": "0x1e9f72c28b227cbb56577dc6f693b95237ac0bfe",
                                                    "typeTag": 1
                                                }
                                            },
                                            {
                                                "name": "resolver",
                                                "type": "address",
                                                "value": {
                                                    "current": "0x0000000000000000000000000000000000000000",
                                                    "prev": "0x4976fb03c32e5b8cfe2b6ccb31c09ba78ebaba41",
                                                    "typeTag": 1
                                                }
                                            },
                                            {
                                                "name": "ttl",
                                                "type": "uint64",
                                                "value": {
                                                    "current": "0",
                                                    "prev": "0",
                                                    "typeTag": 1
                                                }
                                            }
                                        ],
                                        "typeTag": 3
                                    }
                                }
                            ],
                            "typeTag": 4
                        }
                    }
                ]
            }
        ]
    }
}