{
    "balance_change": {
        "balanceChanges": [
            {
                "account": "0x7d73c88941c8447d65b49c4b8210473a98b246df",
                "assets": [
                    {
                        "address": "0xa1f410f13b6007fca76833ee7eb58478d47bc5ef",
                        "amount": "5,778.229342",
                        "iconUrl": "",
                        "isERC1155": false,
                        "isERC721": false,
                        "sign": false,
                        "value": "162.36824451019999987"
                    }
                ]
            },
            {
                "account": "0x5cadcf74a14a6aa67e95e418625b82831b241b58",
                "assets": [
                    {
                        "address": "0xa1f410f13b6007fca76833ee7eb58478d47bc5ef",
                        "amount": "5,778.229342",
                        "iconUrl": "",
                        "isERC1155": false,
                        "isERC721": false,
                        "sign": true,
                        "value": "162.36824451019999987"
                    }
                ]
            }
        ]
    },
    "profile": {
        "basic_info": {
            "baseFee": "13.323643542",
            "blockNumber": 18860989,
            "callData": "0x8dbdbe6d0000000000000000000000000000000000000000000000000000000000000000000000000000000000000000000000000000000000000000000000015868c85e0000000000000000000000007d73c88941c8447d65b49c4b8210473a98b246df",
            "debugEnable": true,
            "errorInfo": "",
            "eventCount": 3,
            "feeRecipient": "0x4838b106fce9647bdf1e7877bf73ce8b0bad5f97",
            "formatValue": "0",
            "gasLimit": 92912,
            "gasPrice": "13.341835835",
            "gasUsed": 83126,
            "intTxnCount": 1,
            "internalRevert": false,
            "internalRevertMessage": "",
            "isContractCreation": false,
            "isFlashloan": false,
            "maxFee": "13.341835835",
            "nonce": 34,
            "overwritedBlockNumber": -1,
            "priorityFee": "13.341835835",
            "receiver": "0x5cadcf74a14a6aa67e95e418625b82831b241b58",
            "revertMessage": "",
            "sender": "0x7d73c88941c8447d65b49c4b8210473a98b246df",
            "simulationEnable": true,
            "sourceTxnHash": "0xa263aae8d52a3e4b6615d13e955145f4c456e133a1bf5a4a610ee666e615d70a",
            "status": true,
            "timestamp": "2023-12-25T06:31:11Z",
            "transactionFee": "0.00110905344562021",
            "txnHash": "0xa263aae8d52a3e4b6615d13e955145f4c456e133a1bf5a4a610ee666e615d70a",
            "txnIndex": 17,
            "type": 2,
            "value": "0"
        },
        "fund_flow": [
            {
                "amount": "5,778.229342",
                "from": "0x7d73c88941c8447d65b49c4b8210473a98b246df",
                "id": 1,
                "isERC1155": false,
                "isERC721": false,
                "isReverted": false,
                "order": 1,
                "to": "0x5cadcf74a14a6aa67e95e418625b82831b241b58",
                "token": "0xa1f410f13b6007fca76833ee7eb58478d47bc5ef"
            }
        ],
        "token_infos": [
            {
                "address": "0xeeeeeeeeeeeeeeeeeeeeeeeeeeeeeeeeeeeeeeee",
                "decimals": 18
            },
            {
                "address": "0xa1f410f13b6007fca76833ee7eb58478d47bc5ef",
                "decimals": 6
            },
            {
                "address": "0xc02aaa39b223fe8d0a0e5c4f27ead9083c756cc2",
                "decimals": 18
            }
        ]
    },
    "address_label": {
        "labels": [
            {
                "address": "0x0000000000000000000000000000000000000001",
                "label": "Precompiled"
            },
            {
                "address": "0x0000000000000000000000000000000000000002",
                "label": "Precompiled"
            },
            {
                "address": "0x0000000000000000000000000000000000000003",
                "label": "Precompiled"
            },
            {
                "address": "0x0000000000000000000000000000000000000004",
                "label": "Precompiled"
            },
            {
                "address": "0xeeeeeeeeeeeeeeeeeeeeeeeeeeeeeeeeeeeeeeee",
                "label": "Ether"
            },
            {
                "address": "0xa1f410f13b6007fca76833ee7eb58478d47bc5ef",
                "label": "Rejuve AI: RJV Token"
            },
            {
                "address": "0x5cadcf74a14a6aa67e95e418625b82831b241b58",
                "label": "SDAOTokenStaking"
            }
        ]
    },
    "trace": {
        "accountLabels": null,
        "dataMap": {
            "-1": {
                "invocation": {
                    "address": "0x7d73c88941c8447d65b49c4b8210473a98b246df",
                    "callData": "",
                    "decodedMethod": null,
                    "errorInfo": "",
                    "fromAddress": "",
                    "gasUsed": 0,
                    "id": -1,
                    "methodDecoded": false,
                    "operation": "",
                    "output": "",
                    "revert": false,
                    "revertMessage": "",
                    "selector": "",
                    "status": false,
                    "value": ""
                },
                "nodeType": 0
            },
            "0": {
                "invocation": {
                    "address": "0x5cadcf74a14a6aa67e95e418625b82831b241b58",
                    "callData": "0x0000000000000000000000000000000000000000000000000000000000000000000000000000000000000000000000000000000000000000000000015868c85e0000000000000000000000007d73c88941c8447d65b49c4b8210473a98b246df",
                    "decodedMethod": {
                        "callParams": [
                            {
                                "name": "_pid",
                                "type": "uint256",
                                "value": "0"
                            },
                            {
                                "name": "_amount",
                                "type": "uint256",
                                "value": "5,778,229,342"
                            },
                            {
                                "name": "_to",
                                "type": "address",
                                "value": "0x7d73c88941c8447d65b49c4b8210473a98b246df"
                            }
                        ],
                        "constructorArguments": "",
                        "name": "deposit",
                        "returnParams": [],
                        "signature": "deposit(uint256,uint256,address)"
                    },
                    "errorInfo": "",
                    "fromAddress": "0x7d73c88941c8447d65b49c4b8210473a98b246df",
                    "gasUsed": 83126,
                    "id": 0,
                    "methodDecoded": true,
                    "operation": "CALL",
                    "output": "",
                    "revert": false,
                    "revertMessage": "",
                    "selector": "0x8dbdbe6d",
                    "status": true,
                    "value": "0"
                },
                "nodeType": 0
            },
            "1": {
                "event": {
                    "contract": "0x5cadcf74a14a6aa67e95e418625b82831b241b58",
                    "decodedLog": {
                        "name": "LogUpdatePool",
                        "params": [
                            {
                                "name": "pid",
                                "type": "uint256",
                                "value": "0"
                            },
                            {
                                "name": "lastRewardBlock",
                                "type": "uint256",
                                "value": "18,860,989"
                            },
                            {
                                "name": "lpSupply",
                                "type": "uint256",
                                "value": "36,940,052,003,553"
                            },
                            {
                                "name": "accRewardsPerShare",
                                "type": "uint256",
                                "value": "71,707,220,394,661,043"
                            }
                        ],
                        "signature": "LogUpdatePool(uint256,uint256,uint256,uint256)"
                    },
                    "id": 1,
                    "logData": "0x00000000000000000000000000000000000000000000000000000000011fcbbd00000000000000000000000000000000000000000000000000002198c6ad7ae100000000000000000000000000000000000000000000000000fec156477454b3",
                    "logDecoded": true,
                    "operation": "EVENT",
                    "revert": false,
                    "status": true,
                    "topics": [
                        "0xcb7325664a4a3b7c7223eefc492a97ca4fdf94d46884621e5a8fae5a04b2b9d2",
                        "0x0000000000000000000000000000000000000000000000000000000000000000"
                    ]
                },
                "nodeType": 1
            },
            "2": {
                "invocation": {
                    "address": "0xa1f410f13b6007fca76833ee7eb58478d47bc5ef",
                    "callData": "0x0000000000000000000000007d73c88941c8447d65b49c4b8210473a98b246df0000000000000000000000005cadcf74a14a6aa67e95e418625b82831b241b58000000000000000000000000000000000000000000000000000000015868c85e",
                    "decodedMethod": {
                        "callParams": [
                            {
                                "name": "from",
                                "type": "address",
                                "value": "0x7d73c88941c8447d65b49c4b8210473a98b246df"
                            },
                            {
                                "name": "to",
                                "type": "address",
                                "value": "0x5cadcf74a14a6aa67e95e418625b82831b241b58"
                            },
                            {
                                "decimalAvailable": true,
                                "name": "amount",
                                "type": "uint256",
                                "value": "5,778,229,342"
                            }
                        ],
                        "constructorArguments": "",
                        "name": "transferFrom",
                        "returnParams": [
                            {
                                "name": "",
                                "type": "bool",
                                "value": true
                            }
                        ],
                        "signature": "transferFrom(address,address,uint256)"
                    },
                    "errorInfo": "",
                    "fromAddress": "0x5cadcf74a14a6aa67e95e418625b82831b241b58",
                    "gasUsed": 17430,
                    "id": 2,
                    "methodDecoded": true,
                    "operation": "CALL",
                    "output": "0x0000000000000000000000000000000000000000000000000000000000000001",
                    "revert": false,
                    "revertMessage": "",
                    "selector": "0x23b872dd",
                    "status": true,
                    "value": "0"
                },
                "nodeType": 0
            },
            "3": {
                "event": {
                    "contract": "0xa1f410f13b6007fca76833ee7eb58478d47bc5ef",
                    "decodedLog": {
                        "name": "Transfer",
                        "params": [
                            {
                                "name": "from",
                                "type": "address",
                                "value": "0x7d73c88941c8447d65b49c4b8210473a98b246df"
                            },
                            {
                                "name": "to",
                                "type": "address",
                                "value": "0x5cadcf74a14a6aa67e95e418625b82831b241b58"
                            },
                            {
                                "decimalAvailable": true,
                                "name": "value",
                                "type": "uint256",
                                "value": "5,778,229,342"
                            }
                        ],
                        "signature": "Transfer(address,address,uint256)"
                    },
                    "id": 3,
                    "logData": "0x000000000000000000000000000000000000000000000000000000015868c85e",
                    "logDecoded": true,
                    "operation": "EVENT",
                    "revert": false,
                    "status": true,
                    "topics": [
                        "0xddf252ad1be2c89b69c2b068fc378daa952ba7f163c4a11628f55a4df523b3ef",
                        "0x0000000000000000000000007d73c88941c8447d65b49c4b8210473a98b246df",
                        "0x0000000000000000000000005cadcf74a14a6aa67e95e418625b82831b241b58"
                    ]
                },
                "nodeType": 1
            },
            "4": {
                "event": {
                    "contract": "0x5cadcf74a14a6aa67e95e418625b82831b241b58",
                    "decodedLog": {
                        "name": "Deposit",
                        "params": [
                            {
                                "name": "user",
                                "type": "address",
                                "value": "0x7d73c88941c8447d65b49c4b8210473a98b246df"
                            },
                            {
                                "name": "pid",
                                "type": "uint256",
                                "value": "0"
                            },
                            {
                                "name": "to",
                                "type": "address",
                                "value": "0x7d73c88941c8447d65b49c4b8210473a98b246df"
                            },
                            {
                                "name": "amount",
                                "type": "uint256",
                                "value": "5,778,229,342"
                            }
                        ],
                        "signature": "Deposit(address,uint256,uint256,address)"
                    },
                    "id": 4,
                    "logData": "0x000000000000000000000000000000000000000000000000000000015868c85e",
                    "logDecoded": true,
                    "operation": "EVENT",
                    "revert": false,
                    "status": true,
                    "topics": [
                        "0x02d7e648dd130fc184d383e55bb126ac4c9c60e8f94bf05acdf557ba2d540b47",
                        "0x0000000000000000000000007d73c88941c8447d65b49c4b8210473a98b246df",
                        "0x0000000000000000000000000000000000000000000000000000000000000000",
                        "0x0000000000000000000000007d73c88941c8447d65b49c4b8210473a98b246df"
                    ]
                },
                "nodeType": 1
            }
        },
        "gasFlame": [
            {
                "children": [
                    {
                        "children": [
                            {
                                "children": [],
                                "depth": 0,
                                "name": "Initial Gas",
                                "value": 21748
                            },
                            {
                                "children": [
                                    {
                                        "children": [],
                                        "depth": 1,
                                        "name": "transferFrom",
                                        "value": 17430
                                    }
                                ],
                                "depth": 0,
                                "name": "Executed Gas",
                                "value": 68978
                            }
                        ],
                        "depth": -1,
                        "name": "Actual Gas Used",
                        "value": 83126
                    },
                    {
                        "children": [],
                        "depth": -1,
                        "name": "Refunded Gas",
                        "value": 7600
                    }
                ],
                "depth": -2,
                "name": "Total Gas",
                "value": 90726
            }
        ],
        "isConfirmed": true,
        "mainTrace": [
            {
                "children": [
                    {
                        "children": [
                            {
                                "children": [],
                                "depth": 1,
                                "id": 1,
                                "order": 1
                            },
                            {
                                "children": [
                                    {
                                        "children": [],
                                        "depth": 2,
                                        "id": 3,
                                        "order": 3
                                    }
                                ],
                                "depth": 1,
                                "id": 2,
                                "order": 2
                            },
                            {
                                "children": [],
                                "depth": 1,
                                "id": 4,
                                "order": 4
                            }
                        ],
                        "depth": 0,
                        "id": 0,
                        "order": 0
                    }
                ],
                "depth": -1,
                "id": -1,
                "order": -1
            }
        ],
        "mainTraceNodeCount": 5,
        "parentIdMap": {
            "0": -1,
            "1": 0,
            "2": 0,
            "3": 2,
            "4": 0
        },
        "tidyTrace": [
            {
                "children": [
                    {
                        "children": [
                            {
                                "children": [],
                                "depth": 1,
                                "id": 1,
                                "order": 1
                            },
                            {
                                "children": [
                                    {
                                        "children": [],
                                        "depth": 2,
                                        "id": 3,
                                        "order": 3
                                    }
                                ],
                                "depth": 1,
                                "id": 2,
                                "order": 2
                            },
                            {
                                "children": [],
                                "depth": 1,
                                "id": 4,
                                "order": 4
                            }
                        ],
                        "depth": 0,
                        "id": 0,
                        "order": 0
                    }
                ],
                "depth": -1,
                "id": -1,
                "order": -1
            }
        ],
        "tidyTraceNodeCount": 5
    },
    "state_change": {
        "stateChanges": [
            {
                "address": "0x5cadcf74a14a6aa67e95e418625b82831b241b58",
                "erc": "",
                "slots": [
                    {
                        "current": "0x00000000000000000000000000000000000000000000000000fec156477454b3",
                        "key": "0x405787fa12a823e0f2b7631cc41b3ba8828b3321ca811111fa75cd3aa3bb5ad0",
                        "prev": "0x00000000000000000000000000000000000000000000000000febdeadf46e359"
                    },
                    {
                        "current": "0x00000000000000000000000000000000000000000000000000000000011fcbbd",
                        "key": "0x405787fa12a823e0f2b7631cc41b3ba8828b3321ca811111fa75cd3aa3bb5ad1",
                        "prev": "0x00000000000000000000000000000000000000000000000000000000011fcb9f"
                    },
                    {
                        "current": "0x0000000000000000000000000000000000000000000000000000001fe3a18531",
                        "key": "0x0bd9afb91fe69ce644c053a9bd04cdaee01a3b60a4fc5f2cca3b8a5f1330d4a4",
                        "prev": "0x0000000000000000000000000000000000000000000000000000001e8b38bcd3"
                    },
                    {
                        "current": "0x00000000000000000000000000000000000000000000000000000002495ca46b",
                        "key": "0x0bd9afb91fe69ce644c053a9bd04cdaee01a3b60a4fc5f2cca3b8a5f1330d4a5",
                        "prev": "0x0000000000000000000000000000000000000000000000000000000230aa4dcf"
                    },
                    {
                        "current": "0x0000000000000000000000000000000000000000000000000000219a1f16433f",
                        "key": "0x405787fa12a823e0f2b7631cc41b3ba8828b3321ca811111fa75cd3aa3bb5acf",
                        "prev": "0x00000000000000000000000000000000000000000000000000002198c6ad7ae1"
                    }
                ],
                "storageVariables": []
            },
            {
                "address": "0xa1f410f13b6007fca76833ee7eb58478d47bc5ef",
                "erc": "ERC-20",
                "slots": [
                    {
                        "current": "0x0000000000000000000000000000000000000000000000000000000000000000",
                        "key": "0xb6655d17fc6a103c6604d2e0c392b288b7f4c6fc0586c32910aa39544fc13e34",
                        "prev": "0x000000000000000000000000000000000000000000000000000000015868c85e"
                    },
                    {
                        "current": "0x000000000000000000000000000000000000000000000000000020fd576e124a",
                        "key": "0x2e4f80baf839c8527580f4d29b2270fd0956d1b3dd2ac96ccbb36bb2d934f24c",
                        "prev": "0x000000000000000000000000000000000000000000000000000020fbff0549ec"
                    }
                ],
                "storageVariables": [
                    {
                        "name": "_balances",
                        "type": "mapping(address => uint256)",
                        "value": {
                            "pairs": [
                                {
                                    "key": "0x5cadcf74a14a6aa67e95e418625b82831b241b58",
                                    "value": {
                                        "current": "36272465646154",
                                        "prev": "36266687416812",
                                        "typeTag": 1
                                    }
                                },
                                {
                                    "key": "0x7d73c88941c8447d65b49c4b8210473a98b246df",
                                    "value": {
                                        "current": "0",
                                        "prev": "5778229342",
                                        "typeTag": 1
                                    }
                                }
                            ],
                            "typeTag": 4
                        }
                    }
                ]
            }
        ]
    }
}