{
    "balance_change": {
        "balanceChanges": [
            {
                "account": "0xcdd37ada79f589c15bd4f8fd2083dc88e34a2af2",
                "assets": [
                    {
                        "address": "0x35e78b3982e87ecfd5b3f3265b601c046cdbe232",
                        "amount": "1,050.95181732",
                        "iconUrl": "",
                        "isERC1155": false,
                        "isERC721": false,
                        "sign": true,
                        "value": "134.1543999"
                    }
                ]
            },
            {
                "account": "0x5007c26c6549e3bdbbb3e3d24bbd4e34f876718f",
                "assets": [
                    {
                        "address": "0x35e78b3982e87ecfd5b3f3265b601c046cdbe232",
                        "amount": "1,050.95181732",
                        "iconUrl": "",
                        "isERC1155": false,
                        "isERC721": false,
                        "sign": false,
                        "value": "134.1543999"
                    }
                ]
            }
        ]
    },
    "profile": {
        "basic_info": {
            "baseFee": "23.320014121",
            "blockNumber": 15897662,
            "callData": "0x79c76e1a00000000000000000000000035e78b3982e87ecfd5b3f3265b601c046cdbe232",
            "debugEnable": true,
            "errorInfo": "",
            "eventCount": 1,
            "feeRecipient": "0x95222290dd7278aa3ddd389cc1e1d165cc4bafe5",
            "formatValue": "0",
            "gasLimit": 40717,
            "gasPrice": "30.164742341",
            "gasUsed": 35786,
            "intTxnCount": 2,
            "internalRevert": false,
            "internalRevertMessage": "",
            "isContractCreation": false,
            "isFlashloan": false,
            "maxFee": "",
            "nonce": 169498,
            "overwritedBlockNumber": -1,
            "priorityFee": "",
            "receiver": "0x5007c26c6549e3bdbbb3e3d24bbd4e34f876718f",
            "revertMessage": "",
            "sender": "0xcdd37ada79f589c15bd4f8fd2083dc88e34a2af2",
            "simulationEnable": true,
            "sourceTxnHash": "0xa2fecff7e7764243aca305642e9893d32116ff7339aaf02344c01a9efe5ef319",
            "status": true,
            "timestamp": "2022-11-04T15:51:35Z",
            "transactionFee": "0.001079475469415026",
            "txnHash": "0xa2fecff7e7764243aca305642e9893d32116ff7339aaf02344c01a9efe5ef319",
            "txnIndex": 16,
            "type": 0,
            "value": "0"
        },
        "fund_flow": [
            {
                "amount": "1,050.95181732",
                "from": "0x5007c26c6549e3bdbbb3e3d24bbd4e34f876718f",
                "id": 1,
                "isERC1155": false,
                "isERC721": false,
                "isReverted": false,
                "order": 1,
                "to": "0xcdd37ada79f589c15bd4f8fd2083dc88e34a2af2",
                "token": "0x35e78b3982e87ecfd5b3f3265b601c046cdbe232"
            }
        ],
        "token_infos": [
            {
                "address": "0x35e78b3982e87ecfd5b3f3265b601c046cdbe232",
                "decimals": 18
            },
            {
                "address": "0xc02aaa39b223fe8d0a0e5c4f27ead9083c756cc2",
                "decimals": 18
            },
            {
                "address": "0xeeeeeeeeeeeeeeeeeeeeeeeeeeeeeeeeeeeeeeee",
                "decimals": 18
            }
        ]
    },
    "address_label": {
        "labels": [
            {
                "address": "0x0000000000000000000000000000000000000004",
                "label": "Precompiled"
            },
            {
                "address": "0xeeeeeeeeeeeeeeeeeeeeeeeeeeeeeeeeeeeeeeee",
                "label": "Ether"
            },
            {
                "address": "0x35e78b3982e87ecfd5b3f3265b601c046cdbe232",
                "label": "SideShift: XAI Token"
            },
            {
                "address": "0xcdd37ada79f589c15bd4f8fd2083dc88e34a2af2",
                "label": "SideShift: Hot Wallet"
            },
            {
                "address": "0x5007c26c6549e3bdbbb3e3d24bbd4e34f876718f",
                "label": "SIDESHIFT"
            },
            {
                "address": "0x0000000000000000000000000000000000000001",
                "label": "Precompiled"
            },
            {
                "address": "0x0000000000000000000000000000000000000002",
                "label": "Precompiled"
            },
            {
                "address": "0x0000000000000000000000000000000000000003",
                "label": "Precompiled"
            }
        ]
    },
    "trace": {
        "accountLabels": null,
        "dataMap": {
            "-1": {
                "invocation": {
                    "address": "0xcdd37ada79f589c15bd4f8fd2083dc88e34a2af2",
                    "callData": "",
                    "decodedMethod": null,
                    "errorInfo": "",
                    "fromAddress": "",
                    "gasUsed": 0,
                    "id": -1,
                    "methodDecoded": false,
                    "operation": "",
                    "output": "",
                    "revert": false,
                    "revertMessage": "",
                    "selector": "",
                    "status": false,
                    "value": ""
                },
                "nodeType": 0
            },
            "0": {
                "invocation": {
                    "address": "0x5007c26c6549e3bdbbb3e3d24bbd4e34f876718f",
                    "callData": "0x00000000000000000000000035e78b3982e87ecfd5b3f3265b601c046cdbe232",
                    "decodedMethod": {
                        "callParams": [
                            {
                                "name": "to",
                                "type": "address",
                                "value": "0x35e78b3982e87ecfd5b3f3265b601c046cdbe232"
                            }
                        ],
                        "constructorArguments": "",
                        "name": "flush",
                        "returnParams": [],
                        "signature": "flush(address)"
                    },
                    "errorInfo": "",
                    "fromAddress": "0xcdd37ada79f589c15bd4f8fd2083dc88e34a2af2",
                    "gasUsed": 35786,
                    "id": 0,
                    "methodDecoded": true,
                    "operation": "CALL",
                    "output": "",
                    "revert": false,
                    "revertMessage": "",
                    "selector": "0x79c76e1a",
                    "status": true,
                    "value": "0"
                },
                "nodeType": 0
            },
            "1": {
                "invocation": {
                    "address": "0x35e78b3982e87ecfd5b3f3265b601c046cdbe232",
                    "callData": "0x0000000000000000000000005007c26c6549e3bdbbb3e3d24bbd4e34f876718f",
                    "decodedMethod": {
                        "callParams": [
                            {
                                "name": "account",
                                "type": "address",
                                "value": "0x5007c26c6549e3bdbbb3e3d24bbd4e34f876718f"
                            }
                        ],
                        "constructorArguments": "",
                        "name": "balanceOf",
                        "returnParams": [
                            {
                                "decimalAvailable": true,
                                "name": "",
                                "type": "uint256",
                                "value": "1,050,951,817,320,000,000,000"
                            }
                        ],
                        "signature": "balanceOf(address)"
                    },
                    "errorInfo": "",
                    "fromAddress": "0x5007c26c6549e3bdbbb3e3d24bbd4e34f876718f",
                    "gasUsed": 2490,
                    "id": 1,
                    "methodDecoded": true,
                    "operation": "CALL",
                    "output": "0x000000000000000000000000000000000000000000000038f8e2e5abd1d21000",
                    "revert": false,
                    "revertMessage": "",
                    "selector": "0x70a08231",
                    "status": true,
                    "value": "0"
                },
                "nodeType": 0
            },
            "2": {
                "invocation": {
                    "address": "0x35e78b3982e87ecfd5b3f3265b601c046cdbe232",
                    "callData": "0x000000000000000000000000cdd37ada79f589c15bd4f8fd2083dc88e34a2af2000000000000000000000000000000000000000000000038f8e2e5abd1d21000",
                    "decodedMethod": {
                        "callParams": [
                            {
                                "name": "recipient",
                                "type": "address",
                                "value": "0xcdd37ada79f589c15bd4f8fd2083dc88e34a2af2"
                            },
                            {
                                "decimalAvailable": true,
                                "name": "amount",
                                "type": "uint256",
                                "value": "1,050,951,817,320,000,000,000"
                            }
                        ],
                        "constructorArguments": "",
                        "name": "transfer",
                        "returnParams": [
                            {
                                "name": "",
                                "type": "bool",
                                "value": true
                            }
                        ],
                        "signature": "transfer(address,uint256)"
                    },
                    "errorInfo": "",
                    "fromAddress": "0x5007c26c6549e3bdbbb3e3d24bbd4e34f876718f",
                    "gasUsed": 10945,
                    "id": 2,
                    "methodDecoded": true,
                    "operation": "CALL",
                    "output": "0x0000000000000000000000000000000000000000000000000000000000000001",
                    "revert": false,
                    "revertMessage": "",
                    "selector": "0xa9059cbb",
                    "status": true,
                    "value": "0"
                },
                "nodeType": 0
            },
            "3": {
                "event": {
                    "contract": "0x35e78b3982e87ecfd5b3f3265b601c046cdbe232",
                    "decodedLog": {
                        "name": "Transfer",
                        "params": [
                            {
                                "name": "from",
                                "type": "address",
                                "value": "0x5007c26c6549e3bdbbb3e3d24bbd4e34f876718f"
                            },
                            {
                                "name": "to",
                                "type": "address",
                                "value": "0xcdd37ada79f589c15bd4f8fd2083dc88e34a2af2"
                            },
                            {
                                "decimalAvailable": true,
                                "name": "value",
                                "type": "uint256",
                                "value": "1,050,951,817,320,000,000,000"
                            }
                        ],
                        "signature": "Transfer(address,address,uint256)"
                    },
                    "id": 3,
                    "logData": "0x000000000000000000000000000000000000000000000038f8e2e5abd1d21000",
                    "logDecoded": true,
                    "operation": "EVENT",
                    "revert": false,
                    "status": true,
                    "topics": [
                        "0xddf252ad1be2c89b69c2b068fc378daa952ba7f163c4a11628f55a4df523b3ef",
                        "0x0000000000000000000000005007c26c6549e3bdbbb3e3d24bbd4e34f876718f",
                        "0x000000000000000000000000cdd37ada79f589c15bd4f8fd2083dc88e34a2af2"
                    ]
                },
                "nodeType": 1
            }
        },
        "gasFlame": [
            {
                "children": [
                    {
                        "children": [
                            {
                                "children": [],
                                "depth": 0,
                                "name": "Initial Gas",
                                "value": 21432
                            },
                            {
                                "children": [
                                    {
                                        "children": [],
                                        "depth": 1,
                                        "name": "balanceOf",
                                        "value": 2490
                                    },
                                    {
                                        "children": [],
                                        "depth": 1,
                                        "name": "transfer",
                                        "value": 10945
                                    }
                                ],
                                "depth": 0,
                                "name": "Executed Gas",
                                "value": 19154
                            }
                        ],
                        "depth": -1,
                        "name": "Actual Gas Used",
                        "value": 35786
                    },
                    {
                        "children": [],
                        "depth": -1,
                        "name": "Refunded Gas",
                        "value": 4800
                    }
                ],
                "depth": -2,
                "name": "Total Gas",
                "value": 40586
            }
        ],
        "isConfirmed": true,
        "mainTrace": [
            {
                "children": [
                    {
                        "children": [
                            {
                                "children": [],
                                "depth": 1,
                                "id": 1,
                                "order": 1
                            },
                            {
                                "children": [
                                    {
                                        "children": [],
                                        "depth": 2,
                                        "id": 3,
                                        "order": 3
                                    }
                                ],
                                "depth": 1,
                                "id": 2,
                                "order": 2
                            }
                        ],
                        "depth": 0,
                        "id": 0,
                        "order": 0
                    }
                ],
                "depth": -1,
                "id": -1,
                "order": -1
            }
        ],
        "mainTraceNodeCount": 4,
        "parentIdMap": {
            "0": -1,
            "1": 0,
            "2": 0,
            "3": 2
        },
        "tidyTrace": [
            {
                "children": [
                    {
                        "children": [
                            {
                                "children": [],
                                "depth": 1,
                                "id": 1,
                                "order": 1
                            },
                            {
                                "children": [
                                    {
                                        "children": [],
                                        "depth": 2,
                                        "id": 3,
                                        "order": 3
                                    }
                                ],
                                "depth": 1,
                                "id": 2,
                                "order": 2
                            }
                        ],
                        "depth": 0,
                        "id": 0,
                        "order": 0
                    }
                ],
                "depth": -1,
                "id": -1,
                "order": -1
            }
        ],
        "tidyTraceNodeCount": 4
    },
    "state_change": {
        "stateChanges": [
            {
                "address": "0x35e78b3982e87ecfd5b3f3265b601c046cdbe232",
                "erc": "ERC-20",
                "slots": [
                    {
                        "current": "0x0000000000000000000000000000000000000000000000000000000000000000",
                        "key": "0x47932ae1cf5faef75f6ede712ec6d59c74d649cb1db1c54f49b0f20d1e6ffb91",
                        "prev": "0x000000000000000000000000000000000000000000000038f8e2e5abd1d21000"
                    },
                    {
                        "current": "0x00000000000000000000000000000000000000000000809b0bbdd1aea49018fc",
                        "key": "0xeaeb93ae543943c87e2ecda9432409b91647754b04ba3d35a500c24881f0f879",
                        "prev": "0x00000000000000000000000000000000000000000000806212daec02d2be08fc"
                    }
                ],
                "storageVariables": [
                    {
                        "name": "_balances",
                        "type": "mapping(address => uint256)",
                        "value": {
                            "pairs": [
                                {
                                    "key": "0x5007c26c6549e3bdbbb3e3d24bbd4e34f876718f",
                                    "value": {
                                        "current": "0",
                                        "prev": "1050951817320000000000",
                                        "typeTag": 1
                                    }
                                },
                                {
                                    "key": "0xcdd37ada79f589c15bd4f8fd2083dc88e34a2af2",
                                    "value": {
                                        "current": "607323001201592598796540",
                                        "prev": "606272049384272598796540",
                                        "typeTag": 1
                                    }
                                }
                            ],
                            "typeTag": 4
                        }
                    }
                ]
            }
        ]
    }
}