{
    "balance_change": {
        "balanceChanges": []
    },
    "profile": {
        "basic_info": {
            "baseFee": "",
            "blockNumber": 7389337,
            "callData": "0xf907fc5b0000000000000000000000002ed94a05637a18876771915d193cbd98f69db3d70000000000000000000000000000000000000000000000000000000000000000",
            "debugEnable": true,
            "errorInfo": "",
            "eventCount": 0,
            "feeRecipient": "0xea674fdde714fd979de3edf0f56aa9716b898ec8",
            "formatValue": "0",
            "gasLimit": 695836,
            "gasPrice": "3",
            "gasUsed": 390251,
            "intTxnCount": 2,
            "internalRevert": false,
            "internalRevertMessage": "",
            "isContractCreation": false,
            "isFlashloan": false,
            "maxFee": "",
            "nonce": 264,
            "overwritedBlockNumber": -1,
            "priorityFee": "",
            "receiver": "0x13552c7cc9ce39af665955412faa08f0e6555a29",
            "revertMessage": "",
            "sender": "0xe9536bbc53d795745708e0a06f14de5ccd880fd5",
            "simulationEnable": true,
            "sourceTxnHash": "0xa27ab5afb7c3300b6d65f60a30fafaec878c0889ca314c0742c4fb9d592b2e37",
            "status": true,
            "timestamp": "2019-03-17T23:12:03Z",
            "transactionFee": "0.001170753",
            "txnHash": "0xa27ab5afb7c3300b6d65f60a30fafaec878c0889ca314c0742c4fb9d592b2e37",
            "txnIndex": 21,
            "type": 0,
            "value": "0"
        },
        "fund_flow": [],
        "token_infos": [
            {
                "address": "0xc02aaa39b223fe8d0a0e5c4f27ead9083c756cc2",
                "decimals": 18
            },
            {
                "address": "0xeeeeeeeeeeeeeeeeeeeeeeeeeeeeeeeeeeeeeeee",
                "decimals": 18
            }
        ]
    },
    "address_label": {
        "labels": [
            {
                "address": "0x0000000000000000000000000000000000000003",
                "label": "Precompiled"
            },
            {
                "address": "0x0000000000000000000000000000000000000004",
                "label": "Precompiled"
            },
            {
                "address": "0xeeeeeeeeeeeeeeeeeeeeeeeeeeeeeeeeeeeeeeee",
                "label": "Ether"
            },
            {
                "address": "0xab4e1802c61e12fd7b10a69a226f5d727c76a8aa",
                "label": "ODF"
            },
            {
                "address": "0x0000000000000000000000000000000000000001",
                "label": "Precompiled"
            },
            {
                "address": "0x0000000000000000000000000000000000000002",
                "label": "Precompiled"
            }
        ]
    },
    "trace": {
        "accountLabels": null,
        "dataMap": {
            "-1": {
                "invocation": {
                    "address": "0xe9536bbc53d795745708e0a06f14de5ccd880fd5",
                    "callData": "",
                    "decodedMethod": null,
                    "errorInfo": "",
                    "fromAddress": "",
                    "gasUsed": 0,
                    "id": -1,
                    "methodDecoded": false,
                    "operation": "",
                    "output": "",
                    "revert": false,
                    "revertMessage": "",
                    "selector": "",
                    "status": false,
                    "value": ""
                },
                "nodeType": 0
            },
            "0": {
                "invocation": {
                    "address": "0x13552c7cc9ce39af665955412faa08f0e6555a29",
                    "callData": "0x0000000000000000000000002ed94a05637a18876771915d193cbd98f69db3d70000000000000000000000000000000000000000000000000000000000000000",
                    "decodedMethod": null,
                    "errorInfo": "",
                    "fromAddress": "0xe9536bbc53d795745708e0a06f14de5ccd880fd5",
                    "gasUsed": 390251,
                    "id": 0,
                    "methodDecoded": false,
                    "operation": "CALL",
                    "output": "",
                    "revert": false,
                    "revertMessage": "",
                    "selector": "0xf907fc5b",
                    "status": true,
                    "value": "0"
                },
                "nodeType": 0
            },
            "1": {
                "invocation": {
                    "address": "0xab4e1802c61e12fd7b10a69a226f5d727c76a8aa",
                    "callData": "0x000000000000000000000000e9536bbc53d795745708e0a06f14de5ccd880fd5",
                    "decodedMethod": {
                        "callParams": [
                            {
                                "name": "account",
                                "type": "address",
                                "value": "0xe9536bbc53d795745708e0a06f14de5ccd880fd5"
                            }
                        ],
                        "constructorArguments": "",
                        "name": "balanceOf",
                        "returnParams": [
                            {
                                "decimalAvailable": true,
                                "name": "",
                                "type": "uint256",
                                "value": "190,000,000,000,000,000,000"
                            }
                        ],
                        "signature": "balanceOf(address)"
                    },
                    "errorInfo": "",
                    "fromAddress": "0x13552c7cc9ce39af665955412faa08f0e6555a29",
                    "gasUsed": 664,
                    "id": 1,
                    "methodDecoded": true,
                    "operation": "CALL",
                    "output": "0x00000000000000000000000000000000000000000000000a4cc799563c380000",
                    "revert": false,
                    "revertMessage": "",
                    "selector": "0x70a08231",
                    "status": true,
                    "value": "0"
                },
                "nodeType": 0
            },
            "2": {
                "invocation": {
                    "address": "0xab4e1802c61e12fd7b10a69a226f5d727c76a8aa",
                    "callData": "0x00000000000000000000000013552c7cc9ce39af665955412faa08f0e6555a29",
                    "decodedMethod": {
                        "callParams": [
                            {
                                "name": "account",
                                "type": "address",
                                "value": "0x13552c7cc9ce39af665955412faa08f0e6555a29"
                            }
                        ],
                        "constructorArguments": "",
                        "name": "balanceOf",
                        "returnParams": [
                            {
                                "decimalAvailable": true,
                                "name": "",
                                "type": "uint256",
                                "value": "93,030,000,000,000,000,000,000"
                            }
                        ],
                        "signature": "balanceOf(address)"
                    },
                    "errorInfo": "",
                    "fromAddress": "0x13552c7cc9ce39af665955412faa08f0e6555a29",
                    "gasUsed": 664,
                    "id": 2,
                    "methodDecoded": true,
                    "operation": "CALL",
                    "output": "0x0000000000000000000000000000000000000000000013b32a9989ef7dd80000",
                    "revert": false,
                    "revertMessage": "",
                    "selector": "0x70a08231",
                    "status": true,
                    "value": "0"
                },
                "nodeType": 0
            }
        },
        "gasFlame": [
            {
                "children": [
                    {
                        "children": [
                            {
                                "children": [],
                                "depth": 0,
                                "name": "Initial Gas",
                                "value": 22808
                            },
                            {
                                "children": [
                                    {
                                        "children": [],
                                        "depth": 1,
                                        "name": "balanceOf",
                                        "value": 664
                                    },
                                    {
                                        "children": [],
                                        "depth": 1,
                                        "name": "balanceOf",
                                        "value": 664
                                    }
                                ],
                                "depth": 0,
                                "name": "Executed Gas",
                                "value": 367443
                            }
                        ],
                        "depth": -1,
                        "name": "Actual Gas Used",
                        "value": 390251
                    },
                    {
                        "children": [],
                        "depth": -1,
                        "name": "Refunded Gas",
                        "value": 0
                    }
                ],
                "depth": -2,
                "name": "Total Gas",
                "value": 390251
            }
        ],
        "isConfirmed": true,
        "mainTrace": [
            {
                "children": [
                    {
                        "children": [
                            {
                                "children": [],
                                "depth": 1,
                                "id": 1,
                                "order": 1
                            },
                            {
                                "children": [],
                                "depth": 1,
                                "id": 2,
                                "order": 2
                            }
                        ],
                        "depth": 0,
                        "id": 0,
                        "order": 0
                    }
                ],
                "depth": -1,
                "id": -1,
                "order": -1
            }
        ],
        "mainTraceNodeCount": 3,
        "parentIdMap": {
            "0": -1,
            "1": 0,
            "2": 0
        },
        "tidyTrace": [
            {
                "children": [
                    {
                        "children": [
                            {
                                "children": [],
                                "depth": 1,
                                "id": 1,
                                "order": 1
                            },
                            {
                                "children": [],
                                "depth": 1,
                                "id": 2,
                                "order": 2
                            }
                        ],
                        "depth": 0,
                        "id": 0,
                        "order": 0
                    }
                ],
                "depth": -1,
                "id": -1,
                "order": -1
            }
        ],
        "tidyTraceNodeCount": 3
    },
    "state_change": {
        "stateChanges": [
            {
                "address": "0x13552c7cc9ce39af665955412faa08f0e6555a29",
                "erc": "",
                "slots": [
                    {
                        "current": "0x0000000000000000000000000000000000000000000001d7693e269e0ce00000",
                        "key": "0x030bdac80bcaaba6709e88f1a9bb4b1cb6899664c8171c4d2e81231f8d4a4894",
                        "prev": "0x0000000000000000000000000000000000000000000001d6de77039982f80000"
                    },
                    {
                        "current": "0x0000000000000000000000000000000000000000000000000000000000042f2b",
                        "key": "0xbdc6d4f9a2b88d475ab9bbae8db6fa0600aca241b975a52f3c1c8911b71da767",
                        "prev": "0x0000000000000000000000000000000000000000000000000000000000042f2a"
                    },
                    {
                        "current": "0x00000000000000000000000000000000000000000000000657b3801b80b40000",
                        "key": "0x4f25f0b7b76d617190ece277d541ed5ef6825639d3131b4908991869b7c7f1ed",
                        "prev": "0x0000000000000000000000000000000000000000000000062e115c008a880000"
                    },
                    {
                        "current": "0x0000000000000000000000000000000000000000000000000000000000001c89",
                        "key": "0xe72bd470740f5b286fae307665e789c5b7c8b895e80f7ff47175e4c03295de8d",
                        "prev": "0x0000000000000000000000000000000000000000000000000000000000001c88"
                    },
                    {
                        "current": "0x000000000000000000000000000000000000000000000000000000000000d23c",
                        "key": "0x602b7f0f265ebc8e4000f0c7510f668f1d07d9c0dd4ee0a2a090b73d23b1ba6d",
                        "prev": "0x000000000000000000000000000000000000000000000000000000000000d23b"
                    },
                    {
                        "current": "0x0000000000000000000000000000000000000000000000000000000000000006",
                        "key": "0x0b402484891ca58dec530ae7b8d0c2f7381249b9d1c520d5d65ba063c3e38576",
                        "prev": "0x0000000000000000000000000000000000000000000000000000000000000005"
                    },
                    {
                        "current": "0x00000000000000000000000000000000000000000000089deaf1048b43500000",
                        "key": "0x4f25f0b7b76d617190ece277d541ed5ef6825639d3131b4908991869b7c7f1e7",
                        "prev": "0x00000000000000000000000000000000000000000000089db36e29bca5c00000"
                    },
                    {
                        "current": "0x000000000000000000000000000000000000000000000000000000000001be8b",
                        "key": "0x0000000000000000000000000000000000000000000000000000000000000049",
                        "prev": "0x000000000000000000000000000000000000000000000000000000000001be8a"
                    },
                    {
                        "current": "0x000000000000000000000000000000000000000000000000000000000000de62",
                        "key": "0x4f25f0b7b76d617190ece277d541ed5ef6825639d3131b4908991869b7c7f1ef",
                        "prev": "0x000000000000000000000000000000000000000000000000000000000000de61"
                    },
                    {
                        "current": "0x0000000000000000000000000000000000000000001276e8e300eba8a1600000",
                        "key": "0x0000000000000000000000000000000000000000000000000000000000000046",
                        "prev": "0x0000000000000000000000000000000000000000001276de0b722f4ddb400000"
                    },
                    {
                        "current": "0x000000000000000000000000000000000000000000000002017a67f731740000",
                        "key": "0xbdc6d4f9a2b88d475ab9bbae8db6fa0600aca241b975a52f3c1c8911b71da765",
                        "prev": "0x000000000000000000000000000000000000000000000001d7d843dc3b480000"
                    },
                    {
                        "current": "0x0000000000000000000000000000000000000000000000000000000000075fea",
                        "key": "0x2d3d1c9680bbdec853995b6859c48c938bd9c76a8e98a938491cbf18b6665bf5",
                        "prev": "0x0000000000000000000000000000000000000000000000000000000000075fe9"
                    },
                    {
                        "current": "0x000000000000000000000000000000000000000000000000000000000000086d",
                        "key": "0x030bdac80bcaaba6709e88f1a9bb4b1cb6899664c8171c4d2e81231f8d4a489c",
                        "prev": "0x000000000000000000000000000000000000000000000000000000000000086c"
                    },
                    {
                        "current": "0x00000000000000000000000000000000000000000000000000000000000000f9",
                        "key": "0xba47b934233658636e4c886d88795a61e864021acd5898da07397aaf93f917ad",
                        "prev": "0x0000000000000000000000000000000000000000000000000000000000000000"
                    },
                    {
                        "current": "0x00000000000000000000000000000000000000000000002a48acab6204b00000",
                        "key": "0x0b402484891ca58dec530ae7b8d0c2f7381249b9d1c520d5d65ba063c3e38579",
                        "prev": "0x000000000000000000000000000000000000000000000035203b67bccad00000"
                    },
                    {
                        "current": "0x000000000000000000000000000000000000000000000003782dace9d9000000",
                        "key": "0x4f25f0b7b76d617190ece277d541ed5ef6825639d3131b4908991869b7c7f1ec",
                        "prev": "0x00000000000000000000000000000000000000000000000340aad21b3b700000"
                    },
                    {
                        "current": "0x000000000000000000000000000000000000000000000353884a7772fbf00000",
                        "key": "0xe72bd470740f5b286fae307665e789c5b7c8b895e80f7ff47175e4c03295de85",
                        "prev": "0x00000000000000000000000000000000000000000000035335062f3d0f980000"
                    },
                    {
                        "current": "0x0000000000000000000000000000000000000000000000007ce66c50e2840000",
                        "key": "0x030bdac80bcaaba6709e88f1a9bb4b1cb6899664c8171c4d2e81231f8d4a489a",
                        "prev": "0x00000000000000000000000000000000000000000000000053444835ec580000"
                    },
                    {
                        "current": "0x0000000000000000000000000000000000000000000000000000000000085315",
                        "key": "0xcf23cc7089fed28926e3cca2bfa1d6811ea4ce7e8c64119a740cf101b3530817",
                        "prev": "0x0000000000000000000000000000000000000000000000000000000000085314"
                    },
                    {
                        "current": "0x000000000000000000000000000000000000000000000000000000000000c639",
                        "key": "0x91b5e945d9fa3bddd9631b7163f053cecec04da224c4f42981d446d12705ec00",
                        "prev": "0x000000000000000000000000000000000000000000000000000000000000c638"
                    },
                    {
                        "current": "0x000000000000000000000000000000000000000000000000000000000000d93d",
                        "key": "0x045c5b52c8e8cc3208cbe27c7a20c0c588ff2b86580889da13bb6a41843184c1",
                        "prev": "0x000000000000000000000000000000000000000000000000000000000000d93c"
                    },
                    {
                        "current": "0x00000000000000000000000000000000000000000000ccae6823a7ad4e500000",
                        "key": "0x0000000000000000000000000000000000000000000000000000000000000047",
                        "prev": "0x00000000000000000000000000000000000000000000ccaddd5c84a8c4680000"
                    },
                    {
                        "current": "0x000000000000000000000000000000000000000000000000000000005c9025c3",
                        "key": "0x0000000000000000000000000000000000000000000000000000000000000017",
                        "prev": "0x000000000000000000000000000000000000000000000000000000005c902595"
                    },
                    {
                        "current": "0x000000000000000000000000000000000000000000000000f9ccd8a1c5080000",
                        "key": "0xe72bd470740f5b286fae307665e789c5b7c8b895e80f7ff47175e4c03295de8a",
                        "prev": "0x000000000000000000000000000000000000000000000000a688906bd8b00000"
                    },
                    {
                        "current": "0x00000000000000000000000000000000000000000000000029a2241af62c0000",
                        "key": "0xe72bd470740f5b286fae307665e789c5b7c8b895e80f7ff47175e4c03295de8b",
                        "prev": "0x0000000000000000000000000000000000000000000000001bc16d674ec80000"
                    },
                    {
                        "current": "0x0000000000000000000000000000000000000000000000000000000000000075",
                        "key": "0x0b402484891ca58dec530ae7b8d0c2f7381249b9d1c520d5d65ba063c3e3857b",
                        "prev": "0x0000000000000000000000000000000000000000000000000000000000000074"
                    },
                    {
                        "current": "0x000000000000000000000000000000000000000000000000000000000001be8b",
                        "key": "0x7d09db68c339992f8df3c05f44aa60f98589be8d60116cb2b20e9fe56bf20910",
                        "prev": "0x0000000000000000000000000000000000000000000000000000000000000000"
                    },
                    {
                        "current": "0x000000000000000000000000000000000000000000000008ac7230489e800000",
                        "key": "0x3f1fe2de90f409cb686bd2ace6dffe7e42f98afffaf2fb953bf87b34681be85f",
                        "prev": "0x0000000000000000000000000000000000000000000000000000000000000000"
                    },
                    {
                        "current": "0x000000000000000000000000000000000000000000000001a055690d9db80000",
                        "key": "0x030bdac80bcaaba6709e88f1a9bb4b1cb6899664c8171c4d2e81231f8d4a4899",
                        "prev": "0x000000000000000000000000000000000000000000000001158e460913d00000"
                    }
                ],
                "storageVariables": []
            }
        ]
    }
}