{
    "balance_change": {
        "balanceChanges": []
    },
    "profile": {
        "basic_info": {
            "baseFee": "",
            "blockNumber": 4538085,
            "callData": "0x278b8c0e00000000000000000000000078b7fada55a64dd895d8c8c35779dd8b67fa8a0500000000000000000000000000000000000000000000001b1ae4d6e2ef50000000000000000000000000000000000000000000000000000000000000000000000000000000000000000000000000000000000000000000000214e8348c4f00000000000000000000000000000000000000000000000000000000000000455826000000000000000000000000000000000000000000000000000000005ec02d8b000000000000000000000000000000000000000000000000000000000000001b5f829a067bf03ef0cbe09def77a6ccd98de5d7a8339345149a23304d442b566a315bb16e21d8a066809050e02c18b297235712d0d7e042ee450490939032900f",
            "debugEnable": true,
            "errorInfo": "",
            "eventCount": 1,
            "feeRecipient": "0x52bc44d5378309ee2abf1539bf71de1b7d7be3b5",
            "formatValue": "0",
            "gasLimit": 250000,
            "gasPrice": "4",
            "gasUsed": 59290,
            "intTxnCount": 2,
            "internalRevert": false,
            "internalRevertMessage": "",
            "isContractCreation": false,
            "isFlashloan": false,
            "maxFee": "",
            "nonce": 37,
            "overwritedBlockNumber": -1,
            "priorityFee": "",
            "receiver": "0x8d12a197cb00d4747a1fe03395095ce2a5cc6819",
            "revertMessage": "",
            "sender": "0x4cf41e83e956ce40aaefd2b15a70da091b9cef1d",
            "simulationEnable": true,
            "sourceTxnHash": "0xa2cc83f778920f405f3149ba3347c57a4718abbfb11540228fbb0b857b4667e0",
            "status": true,
            "timestamp": "2017-11-12T10:07:06Z",
            "transactionFee": "0.00023716",
            "txnHash": "0xa2cc83f778920f405f3149ba3347c57a4718abbfb11540228fbb0b857b4667e0",
            "txnIndex": 44,
            "type": 0,
            "value": "0"
        },
        "fund_flow": [],
        "token_infos": [
            {
                "address": "0xc02aaa39b223fe8d0a0e5c4f27ead9083c756cc2",
                "decimals": 18
            },
            {
                "address": "0xeeeeeeeeeeeeeeeeeeeeeeeeeeeeeeeeeeeeeeee",
                "decimals": 18
            }
        ]
    },
    "address_label": {
        "labels": [
            {
                "address": "0x0000000000000000000000000000000000000001",
                "label": "Precompiled"
            },
            {
                "address": "0x0000000000000000000000000000000000000003",
                "label": "Precompiled"
            },
            {
                "address": "0x0000000000000000000000000000000000000004",
                "label": "Precompiled"
            },
            {
                "address": "0xeeeeeeeeeeeeeeeeeeeeeeeeeeeeeeeeeeeeeeee",
                "label": "Ether"
            },
            {
                "address": "0x8d12a197cb00d4747a1fe03395095ce2a5cc6819",
                "label": "EtherDelta"
            },
            {
                "address": "0x0000000000000000000000000000000000000002",
                "label": "Precompiled"
            },
            {
                "address": "0x78b7fada55a64dd895d8c8c35779dd8b67fa8a05",
                "label": "Atlant: ATL Token"
            },
            {
                "address": "0x0000000000000000000000000000000000000000",
                "label": "Null Address"
            }
        ]
    },
    "trace": {
        "accountLabels": null,
        "dataMap": {
            "-1": {
                "invocation": {
                    "address": "0x4cf41e83e956ce40aaefd2b15a70da091b9cef1d",
                    "callData": "",
                    "decodedMethod": null,
                    "errorInfo": "",
                    "fromAddress": "",
                    "gasUsed": 0,
                    "id": -1,
                    "methodDecoded": false,
                    "operation": "",
                    "output": "",
                    "revert": false,
                    "revertMessage": "",
                    "selector": "",
                    "status": false,
                    "value": ""
                },
                "nodeType": 0
            },
            "0": {
                "invocation": {
                    "address": "0x8d12a197cb00d4747a1fe03395095ce2a5cc6819",
                    "callData": "0x00000000000000000000000078b7fada55a64dd895d8c8c35779dd8b67fa8a0500000000000000000000000000000000000000000000001b1ae4d6e2ef50000000000000000000000000000000000000000000000000000000000000000000000000000000000000000000000000000000000000000000000214e8348c4f00000000000000000000000000000000000000000000000000000000000000455826000000000000000000000000000000000000000000000000000000005ec02d8b000000000000000000000000000000000000000000000000000000000000001b5f829a067bf03ef0cbe09def77a6ccd98de5d7a8339345149a23304d442b566a315bb16e21d8a066809050e02c18b297235712d0d7e042ee450490939032900f",
                    "decodedMethod": {
                        "callParams": [
                            {
                                "name": "tokenGet",
                                "type": "address",
                                "value": "0x78b7fada55a64dd895d8c8c35779dd8b67fa8a05"
                            },
                            {
                                "name": "amountGet",
                                "type": "uint256",
                                "value": "500,000,000,000,000,000,000"
                            },
                            {
                                "name": "tokenGive",
                                "type": "address",
                                "value": "0x0000000000000000000000000000000000000000"
                            },
                            {
                                "name": "amountGive",
                                "type": "uint256",
                                "value": "150,000,000,000,000,000"
                            },
                            {
                                "name": "expires",
                                "type": "uint256",
                                "value": "4,544,550"
                            },
                            {
                                "name": "nonce",
                                "type": "uint256",
                                "value": "1,589,652,875"
                            },
                            {
                                "name": "v",
                                "type": "uint8",
                                "value": "27"
                            },
                            {
                                "name": "r",
                                "type": "bytes32",
                                "value": "0x5f829a067bf03ef0cbe09def77a6ccd98de5d7a8339345149a23304d442b566a"
                            },
                            {
                                "name": "s",
                                "type": "bytes32",
                                "value": "0x315bb16e21d8a066809050e02c18b297235712d0d7e042ee450490939032900f"
                            }
                        ],
                        "constructorArguments": "",
                        "name": "cancelOrder",
                        "returnParams": [],
                        "signature": "cancelOrder(address,uint256,address,uint256,uint256,uint256,uint8,bytes32,bytes32)"
                    },
                    "errorInfo": "",
                    "fromAddress": "0x4cf41e83e956ce40aaefd2b15a70da091b9cef1d",
                    "gasUsed": 59290,
                    "id": 0,
                    "methodDecoded": true,
                    "operation": "CALL",
                    "output": "",
                    "revert": false,
                    "revertMessage": "",
                    "selector": "0x278b8c0e",
                    "status": true,
                    "value": "0"
                },
                "nodeType": 0
            },
            "1": {
                "invocation": {
                    "address": "0x0000000000000000000000000000000000000002",
                    "callData": "0xcb00d4747a1fe03395095ce2a5cc681978b7fada55a64dd895d8c8c35779dd8b67fa8a0500000000000000000000000000000000000000000000001b1ae4d6e2ef50000000000000000000000000000000000000000000000000000000000000000000000000000000000000000000000214e8348c4f00000000000000000000000000000000000000000000000000000000000000455826000000000000000000000000000000000000000000000000000000005ec02d8b",
                    "decodedMethod": {
                        "callParams": [
                            {
                                "name": "data",
                                "type": "bytes",
                                "value": "0x8d12a197cb00d4747a1fe03395095ce2a5cc681978b7fada55a64dd895d8c8c35779dd8b67fa8a0500000000000000000000000000000000000000000000001b1ae4d6e2ef50000000000000000000000000000000000000000000000000000000000000000000000000000000000000000000000214e8348c4f00000000000000000000000000000000000000000000000000000000000000455826000000000000000000000000000000000000000000000000000000005ec02d8b"
                            }
                        ],
                        "constructorArguments": "",
                        "name": "sha256hash",
                        "returnParams": [
                            {
                                "name": "hash",
                                "type": "bytes32",
                                "value": "0xbac2f15d02ec959f4bd753142721211ea938257f1785de13cce8bbf0c6f06a0c"
                            }
                        ],
                        "signature": "sha256hash(bytes)"
                    },
                    "errorInfo": "",
                    "fromAddress": "0x8d12a197cb00d4747a1fe03395095ce2a5cc6819",
                    "gasUsed": 132,
                    "id": 1,
                    "methodDecoded": true,
                    "operation": "CALL",
                    "output": "0xbac2f15d02ec959f4bd753142721211ea938257f1785de13cce8bbf0c6f06a0c",
                    "revert": false,
                    "revertMessage": "",
                    "selector": "0x8d12a197",
                    "status": true,
                    "value": "0"
                },
                "nodeType": 0
            },
            "2": {
                "invocation": {
                    "address": "0x0000000000000000000000000000000000000001",
                    "callData": "0x8e0faae76fe007846ce9308c46e66367abd9b823f22878001f3e24e1000000000000000000000000000000000000000000000000000000000000001b5f829a067bf03ef0cbe09def77a6ccd98de5d7a8339345149a23304d442b566a315bb16e21d8a066809050e02c18b297235712d0d7e042ee450490939032900f",
                    "decodedMethod": {
                        "callParams": [
                            {
                                "name": "hash",
                                "type": "bytes32",
                                "value": "0x36a71a7f8e0faae76fe007846ce9308c46e66367abd9b823f22878001f3e24e1"
                            },
                            {
                                "name": "v",
                                "type": "uint256",
                                "value": "27"
                            },
                            {
                                "name": "r",
                                "type": "bytes32",
                                "value": "0x5f829a067bf03ef0cbe09def77a6ccd98de5d7a8339345149a23304d442b566a"
                            },
                            {
                                "name": "s",
                                "type": "bytes32",
                                "value": "0x315bb16e21d8a066809050e02c18b297235712d0d7e042ee450490939032900f"
                            }
                        ],
                        "constructorArguments": "",
                        "name": "ecrecover",
                        "returnParams": [
                            {
                                "name": "",
                                "type": "address",
                                "value": "0x4cf41e83e956ce40aaefd2b15a70da091b9cef1d"
                            }
                        ],
                        "signature": "ecrecover(bytes32,uint256,bytes32,bytes32)"
                    },
                    "errorInfo": "",
                    "fromAddress": "0x8d12a197cb00d4747a1fe03395095ce2a5cc6819",
                    "gasUsed": 3000,
                    "id": 2,
                    "methodDecoded": true,
                    "operation": "CALL",
                    "output": "0x0000000000000000000000004cf41e83e956ce40aaefd2b15a70da091b9cef1d",
                    "revert": false,
                    "revertMessage": "",
                    "selector": "0x36a71a7f",
                    "status": true,
                    "value": "0"
                },
                "nodeType": 0
            },
            "3": {
                "event": {
                    "contract": "0x8d12a197cb00d4747a1fe03395095ce2a5cc6819",
                    "decodedLog": {
                        "name": "Cancel",
                        "params": [
                            {
                                "name": "tokenGet",
                                "type": "address",
                                "value": "0x78b7fada55a64dd895d8c8c35779dd8b67fa8a05"
                            },
                            {
                                "name": "amountGet",
                                "type": "uint256",
                                "value": "500,000,000,000,000,000,000"
                            },
                            {
                                "name": "tokenGive",
                                "type": "address",
                                "value": "0x0000000000000000000000000000000000000000"
                            },
                            {
                                "name": "amountGive",
                                "type": "uint256",
                                "value": "150,000,000,000,000,000"
                            },
                            {
                                "name": "expires",
                                "type": "uint256",
                                "value": "4,544,550"
                            },
                            {
                                "name": "nonce",
                                "type": "uint256",
                                "value": "1,589,652,875"
                            },
                            {
                                "name": "user",
                                "type": "address",
                                "value": "0x4cf41e83e956ce40aaefd2b15a70da091b9cef1d"
                            },
                            {
                                "name": "v",
                                "type": "uint8",
                                "value": "27"
                            },
                            {
                                "name": "r",
                                "type": "bytes32",
                                "value": "0x5f829a067bf03ef0cbe09def77a6ccd98de5d7a8339345149a23304d442b566a"
                            },
                            {
                                "name": "s",
                                "type": "bytes32",
                                "value": "0x315bb16e21d8a066809050e02c18b297235712d0d7e042ee450490939032900f"
                            }
                        ],
                        "signature": "Cancel(address,uint256,address,uint256,uint256,uint256,address,uint8,bytes32,bytes32)"
                    },
                    "id": 3,
                    "logData": "0x00000000000000000000000078b7fada55a64dd895d8c8c35779dd8b67fa8a0500000000000000000000000000000000000000000000001b1ae4d6e2ef50000000000000000000000000000000000000000000000000000000000000000000000000000000000000000000000000000000000000000000000214e8348c4f00000000000000000000000000000000000000000000000000000000000000455826000000000000000000000000000000000000000000000000000000005ec02d8b0000000000000000000000004cf41e83e956ce40aaefd2b15a70da091b9cef1d000000000000000000000000000000000000000000000000000000000000001b5f829a067bf03ef0cbe09def77a6ccd98de5d7a8339345149a23304d442b566a315bb16e21d8a066809050e02c18b297235712d0d7e042ee450490939032900f",
                    "logDecoded": true,
                    "operation": "EVENT",
                    "revert": false,
                    "status": true,
                    "topics": [
                        "0x1e0b760c386003e9cb9bcf4fcf3997886042859d9b6ed6320e804597fcdb28b0"
                    ]
                },
                "nodeType": 1
            }
        },
        "gasFlame": [
            {
                "children": [
                    {
                        "children": [
                            {
                                "children": [],
                                "depth": 0,
                                "name": "Initial Gas",
                                "value": 29144
                            },
                            {
                                "children": [
                                    {
                                        "children": [],
                                        "depth": 1,
                                        "name": "sha256hash",
                                        "value": 132
                                    },
                                    {
                                        "children": [],
                                        "depth": 1,
                                        "name": "ecrecover",
                                        "value": 3000
                                    }
                                ],
                                "depth": 0,
                                "name": "Executed Gas",
                                "value": 30146
                            }
                        ],
                        "depth": -1,
                        "name": "Actual Gas Used",
                        "value": 59290
                    },
                    {
                        "children": [],
                        "depth": -1,
                        "name": "Refunded Gas",
                        "value": 0
                    }
                ],
                "depth": -2,
                "name": "Total Gas",
                "value": 59290
            }
        ],
        "isConfirmed": true,
        "mainTrace": [
            {
                "children": [
                    {
                        "children": [
                            {
                                "children": [],
                                "depth": 1,
                                "id": 1,
                                "order": 1
                            },
                            {
                                "children": [],
                                "depth": 1,
                                "id": 2,
                                "order": 2
                            },
                            {
                                "children": [],
                                "depth": 1,
                                "id": 3,
                                "order": 3
                            }
                        ],
                        "depth": 0,
                        "id": 0,
                        "order": 0
                    }
                ],
                "depth": -1,
                "id": -1,
                "order": -1
            }
        ],
        "mainTraceNodeCount": 4,
        "parentIdMap": {
            "0": -1,
            "1": 0,
            "2": 0,
            "3": 0
        },
        "tidyTrace": [
            {
                "children": [
                    {
                        "children": [
                            {
                                "children": [],
                                "depth": 1,
                                "id": 1,
                                "order": 1
                            },
                            {
                                "children": [],
                                "depth": 1,
                                "id": 2,
                                "order": 2
                            },
                            {
                                "children": [],
                                "depth": 1,
                                "id": 3,
                                "order": 3
                            }
                        ],
                        "depth": 0,
                        "id": 0,
                        "order": 0
                    }
                ],
                "depth": -1,
                "id": -1,
                "order": -1
            }
        ],
        "tidyTraceNodeCount": 4
    },
    "state_change": {
        "stateChanges": [
            {
                "address": "0x8d12a197cb00d4747a1fe03395095ce2a5cc6819",
                "erc": "",
                "slots": [
                    {
                        "current": "0x00000000000000000000000000000000000000000000001b1ae4d6e2ef500000",
                        "key": "0x9bdac0cca520f464181e630d66584aceec5421088050a8515a6a95d76f0a7544",
                        "prev": "0x0000000000000000000000000000000000000000000000000000000000000000"
                    }
                ],
                "storageVariables": []
            }
        ]
    }
}