{
    "balance_change": {
        "balanceChanges": [
            {
                "account": "0xecf2f51f448a572d0e977eae47ffd491e4d58954",
                "assets": [
                    {
                        "address": "0x6b3595068778dd592e39a122f4f5a5cf09c90fe2",
                        "amount": "16.1282673",
                        "iconUrl": "https://assets.blocksec.com/icon/bb0cf8c867431b5b96b5fc72143d2d0ff0fb06e17664ccb128080b416f067159.png",
                        "isERC1155": false,
                        "isERC721": false,
                        "sign": false,
                        "value": ""
                    }
                ]
            },
            {
                "account": "0xf78f74a0f9104aa62864b93802260c3469167a9a",
                "assets": [
                    {
                        "address": "0x6b3595068778dd592e39a122f4f5a5cf09c90fe2",
                        "amount": "16.1282673",
                        "iconUrl": "https://assets.blocksec.com/icon/bb0cf8c867431b5b96b5fc72143d2d0ff0fb06e17664ccb128080b416f067159.png",
                        "isERC1155": false,
                        "isERC721": false,
                        "sign": true,
                        "value": ""
                    }
                ]
            }
        ]
    },
    "profile": {
        "basic_info": {
            "baseFee": "",
            "blockNumber": 12280149,
            "callData": "0xa9059cbb000000000000000000000000f78f74a0f9104aa62864b93802260c3469167a9a000000000000000000000000000000000000000000000000dfd31da87b0c6800",
            "debugEnable": true,
            "errorInfo": "",
            "eventCount": 1,
            "feeRecipient": "0xea674fdde714fd979de3edf0f56aa9716b898ec8",
            "formatValue": "0",
            "gasLimit": 52198,
            "gasPrice": "167",
            "gasUsed": 34569,
            "intTxnCount": 0,
            "internalRevert": false,
            "internalRevertMessage": "",
            "isContractCreation": false,
            "isFlashloan": false,
            "maxFee": "",
            "nonce": 0,
            "overwritedBlockNumber": -1,
            "priorityFee": "",
            "receiver": "0x6b3595068778dd592e39a122f4f5a5cf09c90fe2",
            "revertMessage": "",
            "sender": "0xecf2f51f448a572d0e977eae47ffd491e4d58954",
            "simulationEnable": true,
            "sourceTxnHash": "0xa279a69ad2a27f77a340ebe4f8b9d0032b31b419722c72f5df9f6fe9a9fc72a4",
            "status": true,
            "timestamp": "2021-04-20T23:48:00Z",
            "transactionFee": "0.005773023",
            "txnHash": "0xa279a69ad2a27f77a340ebe4f8b9d0032b31b419722c72f5df9f6fe9a9fc72a4",
            "txnIndex": 106,
            "type": 0,
            "value": "0"
        },
        "fund_flow": [
            {
                "amount": "16.1282673",
                "from": "0xecf2f51f448a572d0e977eae47ffd491e4d58954",
                "id": 1,
                "isERC1155": false,
                "isERC721": false,
                "isReverted": false,
                "order": 1,
                "to": "0xf78f74a0f9104aa62864b93802260c3469167a9a",
                "token": "0x6b3595068778dd592e39a122f4f5a5cf09c90fe2"
            }
        ],
        "token_infos": [
            {
                "address": "0x6b3595068778dd592e39a122f4f5a5cf09c90fe2",
                "decimals": 18
            },
            {
                "address": "0xc02aaa39b223fe8d0a0e5c4f27ead9083c756cc2",
                "decimals": 18
            },
            {
                "address": "0xeeeeeeeeeeeeeeeeeeeeeeeeeeeeeeeeeeeeeeee",
                "decimals": 18
            }
        ]
    },
    "address_label": {
        "labels": [
            {
                "address": "0x0000000000000000000000000000000000000003",
                "label": "Precompiled"
            },
            {
                "address": "0x0000000000000000000000000000000000000004",
                "label": "Precompiled"
            },
            {
                "address": "0xeeeeeeeeeeeeeeeeeeeeeeeeeeeeeeeeeeeeeeee",
                "label": "Ether"
            },
            {
                "address": "0x6b3595068778dd592e39a122f4f5a5cf09c90fe2",
                "label": "SushiSwap: SUSHI Token"
            },
            {
                "address": "0x0000000000000000000000000000000000000001",
                "label": "Precompiled"
            },
            {
                "address": "0x0000000000000000000000000000000000000002",
                "label": "Precompiled"
            }
        ]
    },
    "trace": {
        "accountLabels": null,
        "dataMap": {
            "-1": {
                "invocation": {
                    "address": "0xecf2f51f448a572d0e977eae47ffd491e4d58954",
                    "callData": "",
                    "decodedMethod": null,
                    "errorInfo": "",
                    "fromAddress": "",
                    "gasUsed": 0,
                    "id": -1,
                    "methodDecoded": false,
                    "operation": "",
                    "output": "",
                    "revert": false,
                    "revertMessage": "",
                    "selector": "",
                    "status": false,
                    "value": ""
                },
                "nodeType": 0
            },
            "0": {
                "invocation": {
                    "address": "0x6b3595068778dd592e39a122f4f5a5cf09c90fe2",
                    "callData": "0x000000000000000000000000f78f74a0f9104aa62864b93802260c3469167a9a000000000000000000000000000000000000000000000000dfd31da87b0c6800",
                    "decodedMethod": {
                        "callParams": [
                            {
                                "name": "recipient",
                                "type": "address",
                                "value": "0xf78f74a0f9104aa62864b93802260c3469167a9a"
                            },
                            {
                                "decimalAvailable": true,
                                "name": "amount",
                                "type": "uint256",
                                "value": "16,128,267,300,000,000,000"
                            }
                        ],
                        "constructorArguments": "",
                        "name": "transfer",
                        "returnParams": [
                            {
                                "name": "",
                                "type": "bool",
                                "value": true
                            }
                        ],
                        "signature": "transfer(address,uint256)"
                    },
                    "errorInfo": "",
                    "fromAddress": "0xecf2f51f448a572d0e977eae47ffd491e4d58954",
                    "gasUsed": 34569,
                    "id": 0,
                    "methodDecoded": true,
                    "operation": "CALL",
                    "output": "0x0000000000000000000000000000000000000000000000000000000000000001",
                    "revert": false,
                    "revertMessage": "",
                    "selector": "0xa9059cbb",
                    "status": true,
                    "value": "0"
                },
                "nodeType": 0
            },
            "1": {
                "event": {
                    "contract": "0x6b3595068778dd592e39a122f4f5a5cf09c90fe2",
                    "decodedLog": {
                        "name": "Transfer",
                        "params": [
                            {
                                "name": "from",
                                "type": "address",
                                "value": "0xecf2f51f448a572d0e977eae47ffd491e4d58954"
                            },
                            {
                                "name": "to",
                                "type": "address",
                                "value": "0xf78f74a0f9104aa62864b93802260c3469167a9a"
                            },
                            {
                                "decimalAvailable": true,
                                "name": "value",
                                "type": "uint256",
                                "value": "16,128,267,300,000,000,000"
                            }
                        ],
                        "signature": "Transfer(address,address,uint256)"
                    },
                    "id": 1,
                    "logData": "0x000000000000000000000000000000000000000000000000dfd31da87b0c6800",
                    "logDecoded": true,
                    "operation": "EVENT",
                    "revert": false,
                    "status": true,
                    "topics": [
                        "0xddf252ad1be2c89b69c2b068fc378daa952ba7f163c4a11628f55a4df523b3ef",
                        "0x000000000000000000000000ecf2f51f448a572d0e977eae47ffd491e4d58954",
                        "0x000000000000000000000000f78f74a0f9104aa62864b93802260c3469167a9a"
                    ]
                },
                "nodeType": 1
            }
        },
        "gasFlame": [
            {
                "children": [
                    {
                        "children": [
                            {
                                "children": [],
                                "depth": 0,
                                "name": "Initial Gas",
                                "value": 21644
                            },
                            {
                                "children": [],
                                "depth": 0,
                                "name": "Executed Gas",
                                "value": 12925
                            }
                        ],
                        "depth": -1,
                        "name": "Actual Gas Used",
                        "value": 34569
                    },
                    {
                        "children": [],
                        "depth": -1,
                        "name": "Refunded Gas",
                        "value": 0
                    }
                ],
                "depth": -2,
                "name": "Total Gas",
                "value": 34569
            }
        ],
        "isConfirmed": true,
        "mainTrace": [
            {
                "children": [
                    {
                        "children": [
                            {
                                "children": [],
                                "depth": 1,
                                "id": 1,
                                "order": 1
                            }
                        ],
                        "depth": 0,
                        "id": 0,
                        "order": 0
                    }
                ],
                "depth": -1,
                "id": -1,
                "order": -1
            }
        ],
        "mainTraceNodeCount": 2,
        "parentIdMap": {
            "0": -1,
            "1": 0
        },
        "tidyTrace": [
            {
                "children": [
                    {
                        "children": [
                            {
                                "children": [],
                                "depth": 1,
                                "id": 1,
                                "order": 1
                            }
                        ],
                        "depth": 0,
                        "id": 0,
                        "order": 0
                    }
                ],
                "depth": -1,
                "id": -1,
                "order": -1
            }
        ],
        "tidyTraceNodeCount": 2
    },
    "state_change": {
        "stateChanges": [
            {
                "address": "0x6b3595068778dd592e39a122f4f5a5cf09c90fe2",
                "erc": "ERC-20",
                "slots": [
                    {
                        "current": "0x00000000000000000000000000000000000000000000000000000009502f9000",
                        "key": "0x4c4b0fd03564d70892fdcabab83d8c1ae0d264150cf82c7a9dac4eae9d8d6fd9",
                        "prev": "0x000000000000000000000000000000000000000000000000dfd31db1cb3bf800"
                    },
                    {
                        "current": "0x00000000000000000000000000000000000000000000000d81ac94fd2042e800",
                        "key": "0xf80f0c2a86c0c697ed2832398c7bde87e424648564bd6cd597d16026726e294f",
                        "prev": "0x00000000000000000000000000000000000000000000000ca1d97754a5368000"
                    }
                ],
                "storageVariables": [
                    {
                        "name": "_balances",
                        "type": "mapping(address => uint256)",
                        "value": {
                            "pairs": [
                                {
                                    "key": "0xecf2f51f448a572d0e977eae47ffd491e4d58954",
                                    "value": {
                                        "current": "40000000000",
                                        "prev": "16128267340000000000",
                                        "typeTag": 1
                                    }
                                },
                                {
                                    "key": "0xf78f74a0f9104aa62864b93802260c3469167a9a",
                                    "value": {
                                        "current": "249151680100000000000",
                                        "prev": "233023412800000000000",
                                        "typeTag": 1
                                    }
                                }
                            ],
                            "typeTag": 4
                        }
                    }
                ]
            }
        ]
    }
}