{
    "balance_change": {
        "balanceChanges": [
            {
                "account": "0x4998ac1e5c85214c097a1025142e4a794fff0818",
                "assets": [
                    {
                        "address": "0xc24ee3a1b395c600eb74eb8293c203c123abf71f",
                        "amount": "0.000024676154618881",
                        "iconUrl": "",
                        "isERC1155": false,
                        "isERC721": false,
                        "sign": true,
                        "value": "0.00000619"
                    },
                    {
                        "address": "0x28f72434d130029254fd04d772077d3bf08c032a",
                        "amount": "1.65631348032885487",
                        "iconUrl": "",
                        "isERC1155": false,
                        "isERC721": false,
                        "sign": true,
                        "value": ""
                    }
                ]
            },
            {
                "account": "0xeec92c01c5ba99620cc801f8c3d50af7ddeffd49",
                "assets": [
                    {
                        "address": "0xc24ee3a1b395c600eb74eb8293c203c123abf71f",
                        "amount": "0.008052491240666863",
                        "iconUrl": "",
                        "isERC1155": false,
                        "isERC721": false,
                        "sign": true,
                        "value": "0.00345513"
                    },
                    {
                        "address": "0x28f72434d130029254fd04d772077d3bf08c032a",
                        "amount": "1.65631348032885487",
                        "iconUrl": "",
                        "isERC1155": false,
                        "isERC721": false,
                        "sign": false,
                        "value": ""
                    }
                ]
            },
            {
                "account": "0x0000000000000000000000000000000000000000",
                "assets": [
                    {
                        "address": "0xc24ee3a1b395c600eb74eb8293c203c123abf71f",
                        "amount": "0.009693529284120631",
                        "iconUrl": "",
                        "isERC1155": false,
                        "isERC721": false,
                        "sign": false,
                        "value": "1.54438646"
                    }
                ]
            },
            {
                "account": "0x1de847ccfdaa592513ea3c38b1d881b686ab6e50",
                "assets": [
                    {
                        "address": "0xc24ee3a1b395c600eb74eb8293c203c123abf71f",
                        "amount": "0.000080769230769231",
                        "iconUrl": "",
                        "isERC1155": false,
                        "isERC721": false,
                        "sign": true,
                        "value": "0.00005955"
                    }
                ]
            },
            {
                "account": "0x2d2e288135f99425174b84a8112dd1cf7f752a48",
                "assets": [
                    {
                        "address": "0xc24ee3a1b395c600eb74eb8293c203c123abf71f",
                        "amount": "0.000807692307692318",
                        "iconUrl": "",
                        "isERC1155": false,
                        "isERC721": false,
                        "sign": true,
                        "value": "0.00074173"
                    }
                ]
            },
            {
                "account": "0x609ea6ab15c6b02a8264f428ef8a69dcbfc90cc5",
                "assets": [
                    {
                        "address": "0xc24ee3a1b395c600eb74eb8293c203c123abf71f",
                        "amount": "0.000000488636725126",
                        "iconUrl": "",
                        "isERC1155": false,
                        "isERC721": false,
                        "sign": true,
                        "value": "0.01253964"
                    }
                ]
            },
            {
                "account": "0x8311df31483815bfe8fcf8c2162c73a2deda3076",
                "assets": [
                    {
                        "address": "0xc24ee3a1b395c600eb74eb8293c203c123abf71f",
                        "amount": "0.000000488636725126",
                        "iconUrl": "",
                        "isERC1155": false,
                        "isERC721": false,
                        "sign": true,
                        "value": "0.01253964"
                    }
                ]
            },
            {
                "account": "0xa0a7b8ded38b169fc5282c07b850e64234f0207a",
                "assets": [
                    {
                        "address": "0xc24ee3a1b395c600eb74eb8293c203c123abf71f",
                        "amount": "0.000726923076923086",
                        "iconUrl": "",
                        "isERC1155": false,
                        "isERC721": false,
                        "sign": true,
                        "value": "0.00057692"
                    }
                ]
            }
        ]
    },
    "profile": {
        "basic_info": {
            "baseFee": "",
            "blockNumber": 11620916,
            "callData": "0x3003bb05000000000000000000000000000000000000000000000000000000000000000300000000000000000000000000000000000000000000000016fc6855b7b13d56",
            "debugEnable": true,
            "errorInfo": "",
            "eventCount": 10,
            "feeRecipient": "0x5a0b54d5dc17e0aadc383d2db43b0a0d3e029c4c",
            "formatValue": "0",
            "gasLimit": 220683,
            "gasPrice": "58",
            "gasUsed": 190683,
            "intTxnCount": 10,
            "internalRevert": false,
            "internalRevertMessage": "",
            "isContractCreation": false,
            "isFlashloan": false,
            "maxFee": "",
            "nonce": 95,
            "overwritedBlockNumber": -1,
            "priorityFee": "",
            "receiver": "0xeec92c01c5ba99620cc801f8c3d50af7ddeffd49",
            "revertMessage": "",
            "sender": "0x4998ac1e5c85214c097a1025142e4a794fff0818",
            "simulationEnable": true,
            "sourceTxnHash": "0xa262f0c12c1337609e16c903d641bd2872c5dc18798fa2ba64d04c7efeb2af92",
            "status": true,
            "timestamp": "2021-01-09T13:47:06Z",
            "transactionFee": "0.011059614",
            "txnHash": "0xa262f0c12c1337609e16c903d641bd2872c5dc18798fa2ba64d04c7efeb2af92",
            "txnIndex": 96,
            "type": 0,
            "value": "0"
        },
        "fund_flow": [
            {
                "amount": "0.000807692307692318",
                "from": "0x0000000000000000000000000000000000000000",
                "id": 1,
                "isERC1155": false,
                "isERC721": false,
                "isReverted": false,
                "order": 1,
                "to": "0x2d2e288135f99425174b84a8112dd1cf7f752a48",
                "token": "0xc24ee3a1b395c600eb74eb8293c203c123abf71f"
            },
            {
                "amount": "0.000726923076923086",
                "from": "0x0000000000000000000000000000000000000000",
                "id": 2,
                "isERC1155": false,
                "isERC721": false,
                "isReverted": false,
                "order": 2,
                "to": "0xa0a7b8ded38b169fc5282c07b850e64234f0207a",
                "token": "0xc24ee3a1b395c600eb74eb8293c203c123abf71f"
            },
            {
                "amount": "0.000080769230769231",
                "from": "0x0000000000000000000000000000000000000000",
                "id": 3,
                "isERC1155": false,
                "isERC721": false,
                "isReverted": false,
                "order": 3,
                "to": "0x1de847ccfdaa592513ea3c38b1d881b686ab6e50",
                "token": "0xc24ee3a1b395c600eb74eb8293c203c123abf71f"
            },
            {
                "amount": "0.008076923076923181",
                "from": "0x0000000000000000000000000000000000000000",
                "id": 4,
                "isERC1155": false,
                "isERC721": false,
                "isReverted": false,
                "order": 4,
                "to": "0xeec92c01c5ba99620cc801f8c3d50af7ddeffd49",
                "token": "0xc24ee3a1b395c600eb74eb8293c203c123abf71f"
            },
            {
                "amount": "0.000024431836256318",
                "from": "0xeec92c01c5ba99620cc801f8c3d50af7ddeffd49",
                "id": 5,
                "isERC1155": false,
                "isERC721": false,
                "isReverted": false,
                "order": 5,
                "to": "0x4998ac1e5c85214c097a1025142e4a794fff0818",
                "token": "0xc24ee3a1b395c600eb74eb8293c203c123abf71f"
            },
            {
                "amount": "0.000000244318362563",
                "from": "0x0000000000000000000000000000000000000000",
                "id": 6,
                "isERC1155": false,
                "isERC721": false,
                "isReverted": false,
                "order": 6,
                "to": "0x4998ac1e5c85214c097a1025142e4a794fff0818",
                "token": "0xc24ee3a1b395c600eb74eb8293c203c123abf71f"
            },
            {
                "amount": "0.000000488636725126",
                "from": "0x0000000000000000000000000000000000000000",
                "id": 7,
                "isERC1155": false,
                "isERC721": false,
                "isReverted": false,
                "order": 7,
                "to": "0x609ea6ab15c6b02a8264f428ef8a69dcbfc90cc5",
                "token": "0xc24ee3a1b395c600eb74eb8293c203c123abf71f"
            },
            {
                "amount": "0.000000488636725126",
                "from": "0x0000000000000000000000000000000000000000",
                "id": 8,
                "isERC1155": false,
                "isERC721": false,
                "isReverted": false,
                "order": 8,
                "to": "0x8311df31483815bfe8fcf8c2162c73a2deda3076",
                "token": "0xc24ee3a1b395c600eb74eb8293c203c123abf71f"
            },
            {
                "amount": "1.65631348032885487",
                "from": "0xeec92c01c5ba99620cc801f8c3d50af7ddeffd49",
                "id": 9,
                "isERC1155": false,
                "isERC721": false,
                "isReverted": false,
                "order": 9,
                "to": "0x4998ac1e5c85214c097a1025142e4a794fff0818",
                "token": "0x28f72434d130029254fd04d772077d3bf08c032a"
            }
        ],
        "token_infos": [
            {
                "address": "0xeeeeeeeeeeeeeeeeeeeeeeeeeeeeeeeeeeeeeeee",
                "decimals": 18
            },
            {
                "address": "0x28f72434d130029254fd04d772077d3bf08c032a",
                "decimals": 18
            },
            {
                "address": "0xc02aaa39b223fe8d0a0e5c4f27ead9083c756cc2",
                "decimals": 18
            },
            {
                "address": "0xc24ee3a1b395c600eb74eb8293c203c123abf71f",
                "decimals": 18
            }
        ]
    },
    "address_label": {
        "labels": [
            {
                "address": "0x28f72434d130029254fd04d772077d3bf08c032a",
                "label": "SunflowerSwap LP Token (SLP)"
            },
            {
                "address": "0xc24ee3a1b395c600eb74eb8293c203c123abf71f",
                "label": "RoseToken (ROSE)"
            },
            {
                "address": "0xeec92c01c5ba99620cc801f8c3d50af7ddeffd49",
                "label": "RoseMaster"
            },
            {
                "address": "0x0000000000000000000000000000000000000001",
                "label": "Precompiled"
            },
            {
                "address": "0x0000000000000000000000000000000000000002",
                "label": "Precompiled"
            },
            {
                "address": "0x0000000000000000000000000000000000000003",
                "label": "Precompiled"
            },
            {
                "address": "0x0000000000000000000000000000000000000004",
                "label": "Precompiled"
            },
            {
                "address": "0xeeeeeeeeeeeeeeeeeeeeeeeeeeeeeeeeeeeeeeee",
                "label": "Ether"
            }
        ]
    },
    "trace": {
        "accountLabels": null,
        "dataMap": {
            "-1": {
                "invocation": {
                    "address": "0x4998ac1e5c85214c097a1025142e4a794fff0818",
                    "callData": "",
                    "decodedMethod": null,
                    "errorInfo": "",
                    "fromAddress": "",
                    "gasUsed": 0,
                    "id": -1,
                    "methodDecoded": false,
                    "operation": "",
                    "output": "",
                    "revert": false,
                    "revertMessage": "",
                    "selector": "",
                    "status": false,
                    "value": ""
                },
                "nodeType": 0
            },
            "0": {
                "invocation": {
                    "address": "0xeec92c01c5ba99620cc801f8c3d50af7ddeffd49",
                    "callData": "0x000000000000000000000000000000000000000000000000000000000000000300000000000000000000000000000000000000000000000016fc6855b7b13d56",
                    "decodedMethod": {
                        "callParams": [
                            {
                                "name": "_pid",
                                "type": "uint256",
                                "value": "3"
                            },
                            {
                                "name": "_amount",
                                "type": "uint256",
                                "value": "1,656,313,480,328,854,870"
                            }
                        ],
                        "constructorArguments": "",
                        "name": "withdraw1",
                        "returnParams": [],
                        "signature": "withdraw1(uint256,uint256)"
                    },
                    "errorInfo": "",
                    "fromAddress": "0x4998ac1e5c85214c097a1025142e4a794fff0818",
                    "gasUsed": 190683,
                    "id": 0,
                    "methodDecoded": true,
                    "operation": "CALL",
                    "output": "",
                    "revert": false,
                    "revertMessage": "",
                    "selector": "0x3003bb05",
                    "status": true,
                    "value": "0"
                },
                "nodeType": 0
            },
            "1": {
                "invocation": {
                    "address": "0xc24ee3a1b395c600eb74eb8293c203c123abf71f",
                    "callData": "0x0000000000000000000000002d2e288135f99425174b84a8112dd1cf7f752a480000000000000000000000000000000000000000000000000002de9785167b1e",
                    "decodedMethod": {
                        "callParams": [
                            {
                                "name": "_to",
                                "type": "address",
                                "value": "0x2d2e288135f99425174b84a8112dd1cf7f752a48"
                            },
                            {
                                "name": "_amount",
                                "type": "uint256",
                                "value": "807,692,307,692,318"
                            }
                        ],
                        "constructorArguments": "",
                        "name": "mint",
                        "returnParams": [],
                        "signature": "mint(address,uint256)"
                    },
                    "errorInfo": "",
                    "fromAddress": "0xeec92c01c5ba99620cc801f8c3d50af7ddeffd49",
                    "gasUsed": 15096,
                    "id": 1,
                    "methodDecoded": true,
                    "operation": "CALL",
                    "output": "",
                    "revert": false,
                    "revertMessage": "",
                    "selector": "0x40c10f19",
                    "status": true,
                    "value": "0"
                },
                "nodeType": 0
            },
            "10": {
                "invocation": {
                    "address": "0xc24ee3a1b395c600eb74eb8293c203c123abf71f",
                    "callData": "0x0000000000000000000000004998ac1e5c85214c097a1025142e4a794fff0818000000000000000000000000000000000000000000000000000016387aebd83e",
                    "decodedMethod": {
                        "callParams": [
                            {
                                "name": "recipient",
                                "type": "address",
                                "value": "0x4998ac1e5c85214c097a1025142e4a794fff0818"
                            },
                            {
                                "decimalAvailable": true,
                                "name": "amount",
                                "type": "uint256",
                                "value": "24,431,836,256,318"
                            }
                        ],
                        "constructorArguments": "",
                        "name": "transfer",
                        "returnParams": [
                            {
                                "name": "",
                                "type": "bool",
                                "value": true
                            }
                        ],
                        "signature": "transfer(address,uint256)"
                    },
                    "errorInfo": "",
                    "fromAddress": "0xeec92c01c5ba99620cc801f8c3d50af7ddeffd49",
                    "gasUsed": 10323,
                    "id": 10,
                    "methodDecoded": true,
                    "operation": "CALL",
                    "output": "0x0000000000000000000000000000000000000000000000000000000000000001",
                    "revert": false,
                    "revertMessage": "",
                    "selector": "0xa9059cbb",
                    "status": true,
                    "value": "0"
                },
                "nodeType": 0
            },
            "11": {
                "event": {
                    "contract": "0xc24ee3a1b395c600eb74eb8293c203c123abf71f",
                    "decodedLog": {
                        "name": "Transfer",
                        "params": [
                            {
                                "name": "from",
                                "type": "address",
                                "value": "0xeec92c01c5ba99620cc801f8c3d50af7ddeffd49"
                            },
                            {
                                "name": "to",
                                "type": "address",
                                "value": "0x4998ac1e5c85214c097a1025142e4a794fff0818"
                            },
                            {
                                "decimalAvailable": true,
                                "name": "value",
                                "type": "uint256",
                                "value": "24,431,836,256,318"
                            }
                        ],
                        "signature": "Transfer(address,address,uint256)"
                    },
                    "id": 11,
                    "logData": "0x000000000000000000000000000000000000000000000000000016387aebd83e",
                    "logDecoded": true,
                    "operation": "EVENT",
                    "revert": false,
                    "status": true,
                    "topics": [
                        "0xddf252ad1be2c89b69c2b068fc378daa952ba7f163c4a11628f55a4df523b3ef",
                        "0x000000000000000000000000eec92c01c5ba99620cc801f8c3d50af7ddeffd49",
                        "0x0000000000000000000000004998ac1e5c85214c097a1025142e4a794fff0818"
                    ]
                },
                "nodeType": 1
            },
            "12": {
                "invocation": {
                    "address": "0xc24ee3a1b395c600eb74eb8293c203c123abf71f",
                    "callData": "0x0000000000000000000000004998ac1e5c85214c097a1025142e4a794fff081800000000000000000000000000000000000000000000000000000038e2825bc3",
                    "decodedMethod": {
                        "callParams": [
                            {
                                "name": "_to",
                                "type": "address",
                                "value": "0x4998ac1e5c85214c097a1025142e4a794fff0818"
                            },
                            {
                                "name": "_amount",
                                "type": "uint256",
                                "value": "244,318,362,563"
                            }
                        ],
                        "constructorArguments": "",
                        "name": "mint",
                        "returnParams": [],
                        "signature": "mint(address,uint256)"
                    },
                    "errorInfo": "",
                    "fromAddress": "0xeec92c01c5ba99620cc801f8c3d50af7ddeffd49",
                    "gasUsed": 6696,
                    "id": 12,
                    "methodDecoded": true,
                    "operation": "CALL",
                    "output": "",
                    "revert": false,
                    "revertMessage": "",
                    "selector": "0x40c10f19",
                    "status": true,
                    "value": "0"
                },
                "nodeType": 0
            },
            "13": {
                "event": {
                    "contract": "0xc24ee3a1b395c600eb74eb8293c203c123abf71f",
                    "decodedLog": {
                        "name": "Transfer",
                        "params": [
                            {
                                "name": "from",
                                "type": "address",
                                "value": "0x0000000000000000000000000000000000000000"
                            },
                            {
                                "name": "to",
                                "type": "address",
                                "value": "0x4998ac1e5c85214c097a1025142e4a794fff0818"
                            },
                            {
                                "decimalAvailable": true,
                                "name": "value",
                                "type": "uint256",
                                "value": "244,318,362,563"
                            }
                        ],
                        "signature": "Transfer(address,address,uint256)"
                    },
                    "id": 13,
                    "logData": "0x00000000000000000000000000000000000000000000000000000038e2825bc3",
                    "logDecoded": true,
                    "operation": "EVENT",
                    "revert": false,
                    "status": true,
                    "topics": [
                        "0xddf252ad1be2c89b69c2b068fc378daa952ba7f163c4a11628f55a4df523b3ef",
                        "0x0000000000000000000000000000000000000000000000000000000000000000",
                        "0x0000000000000000000000004998ac1e5c85214c097a1025142e4a794fff0818"
                    ]
                },
                "nodeType": 1
            },
            "14": {
                "invocation": {
                    "address": "0xc24ee3a1b395c600eb74eb8293c203c123abf71f",
                    "callData": "0x000000000000000000000000609ea6ab15c6b02a8264f428ef8a69dcbfc90cc500000000000000000000000000000000000000000000000000000071c504b786",
                    "decodedMethod": {
                        "callParams": [
                            {
                                "name": "_to",
                                "type": "address",
                                "value": "0x609ea6ab15c6b02a8264f428ef8a69dcbfc90cc5"
                            },
                            {
                                "name": "_amount",
                                "type": "uint256",
                                "value": "488,636,725,126"
                            }
                        ],
                        "constructorArguments": "",
                        "name": "mint",
                        "returnParams": [],
                        "signature": "mint(address,uint256)"
                    },
                    "errorInfo": "",
                    "fromAddress": "0xeec92c01c5ba99620cc801f8c3d50af7ddeffd49",
                    "gasUsed": 10896,
                    "id": 14,
                    "methodDecoded": true,
                    "operation": "CALL",
                    "output": "",
                    "revert": false,
                    "revertMessage": "",
                    "selector": "0x40c10f19",
                    "status": true,
                    "value": "0"
                },
                "nodeType": 0
            },
            "15": {
                "event": {
                    "contract": "0xc24ee3a1b395c600eb74eb8293c203c123abf71f",
                    "decodedLog": {
                        "name": "Transfer",
                        "params": [
                            {
                                "name": "from",
                                "type": "address",
                                "value": "0x0000000000000000000000000000000000000000"
                            },
                            {
                                "name": "to",
                                "type": "address",
                                "value": "0x609ea6ab15c6b02a8264f428ef8a69dcbfc90cc5"
                            },
                            {
                                "decimalAvailable": true,
                                "name": "value",
                                "type": "uint256",
                                "value": "488,636,725,126"
                            }
                        ],
                        "signature": "Transfer(address,address,uint256)"
                    },
                    "id": 15,
                    "logData": "0x00000000000000000000000000000000000000000000000000000071c504b786",
                    "logDecoded": true,
                    "operation": "EVENT",
                    "revert": false,
                    "status": true,
                    "topics": [
                        "0xddf252ad1be2c89b69c2b068fc378daa952ba7f163c4a11628f55a4df523b3ef",
                        "0x0000000000000000000000000000000000000000000000000000000000000000",
                        "0x000000000000000000000000609ea6ab15c6b02a8264f428ef8a69dcbfc90cc5"
                    ]
                },
                "nodeType": 1
            },
            "16": {
                "invocation": {
                    "address": "0xc24ee3a1b395c600eb74eb8293c203c123abf71f",
                    "callData": "0x0000000000000000000000008311df31483815bfe8fcf8c2162c73a2deda307600000000000000000000000000000000000000000000000000000071c504b786",
                    "decodedMethod": {
                        "callParams": [
                            {
                                "name": "_to",
                                "type": "address",
                                "value": "0x8311df31483815bfe8fcf8c2162c73a2deda3076"
                            },
                            {
                                "name": "_amount",
                                "type": "uint256",
                                "value": "488,636,725,126"
                            }
                        ],
                        "constructorArguments": "",
                        "name": "mint",
                        "returnParams": [],
                        "signature": "mint(address,uint256)"
                    },
                    "errorInfo": "",
                    "fromAddress": "0xeec92c01c5ba99620cc801f8c3d50af7ddeffd49",
                    "gasUsed": 10896,
                    "id": 16,
                    "methodDecoded": true,
                    "operation": "CALL",
                    "output": "",
                    "revert": false,
                    "revertMessage": "",
                    "selector": "0x40c10f19",
                    "status": true,
                    "value": "0"
                },
                "nodeType": 0
            },
            "17": {
                "event": {
                    "contract": "0xc24ee3a1b395c600eb74eb8293c203c123abf71f",
                    "decodedLog": {
                        "name": "Transfer",
                        "params": [
                            {
                                "name": "from",
                                "type": "address",
                                "value": "0x0000000000000000000000000000000000000000"
                            },
                            {
                                "name": "to",
                                "type": "address",
                                "value": "0x8311df31483815bfe8fcf8c2162c73a2deda3076"
                            },
                            {
                                "decimalAvailable": true,
                                "name": "value",
                                "type": "uint256",
                                "value": "488,636,725,126"
                            }
                        ],
                        "signature": "Transfer(address,address,uint256)"
                    },
                    "id": 17,
                    "logData": "0x00000000000000000000000000000000000000000000000000000071c504b786",
                    "logDecoded": true,
                    "operation": "EVENT",
                    "revert": false,
                    "status": true,
                    "topics": [
                        "0xddf252ad1be2c89b69c2b068fc378daa952ba7f163c4a11628f55a4df523b3ef",
                        "0x0000000000000000000000000000000000000000000000000000000000000000",
                        "0x0000000000000000000000008311df31483815bfe8fcf8c2162c73a2deda3076"
                    ]
                },
                "nodeType": 1
            },
            "18": {
                "invocation": {
                    "address": "0x28f72434d130029254fd04d772077d3bf08c032a",
                    "callData": "0x0000000000000000000000004998ac1e5c85214c097a1025142e4a794fff081800000000000000000000000000000000000000000000000016fc6855b7b13d56",
                    "decodedMethod": {
                        "callParams": [
                            {
                                "name": "to",
                                "type": "address",
                                "value": "0x4998ac1e5c85214c097a1025142e4a794fff0818"
                            },
                            {
                                "decimalAvailable": true,
                                "name": "value",
                                "type": "uint256",
                                "value": "1,656,313,480,328,854,870"
                            }
                        ],
                        "constructorArguments": "",
                        "name": "transfer",
                        "returnParams": [
                            {
                                "name": "",
                                "type": "bool",
                                "value": true
                            }
                        ],
                        "signature": "transfer(address,uint256)"
                    },
                    "errorInfo": "",
                    "fromAddress": "0xeec92c01c5ba99620cc801f8c3d50af7ddeffd49",
                    "gasUsed": 29376,
                    "id": 18,
                    "methodDecoded": true,
                    "operation": "CALL",
                    "output": "0x0000000000000000000000000000000000000000000000000000000000000001",
                    "revert": false,
                    "revertMessage": "",
                    "selector": "0xa9059cbb",
                    "status": true,
                    "value": "0"
                },
                "nodeType": 0
            },
            "19": {
                "event": {
                    "contract": "0x28f72434d130029254fd04d772077d3bf08c032a",
                    "decodedLog": {
                        "name": "Transfer",
                        "params": [
                            {
                                "name": "from",
                                "type": "address",
                                "value": "0xeec92c01c5ba99620cc801f8c3d50af7ddeffd49"
                            },
                            {
                                "name": "to",
                                "type": "address",
                                "value": "0x4998ac1e5c85214c097a1025142e4a794fff0818"
                            },
                            {
                                "decimalAvailable": true,
                                "name": "value",
                                "type": "uint256",
                                "value": "1,656,313,480,328,854,870"
                            }
                        ],
                        "signature": "Transfer(address,address,uint256)"
                    },
                    "id": 19,
                    "logData": "0x00000000000000000000000000000000000000000000000016fc6855b7b13d56",
                    "logDecoded": true,
                    "operation": "EVENT",
                    "revert": false,
                    "status": true,
                    "topics": [
                        "0xddf252ad1be2c89b69c2b068fc378daa952ba7f163c4a11628f55a4df523b3ef",
                        "0x000000000000000000000000eec92c01c5ba99620cc801f8c3d50af7ddeffd49",
                        "0x0000000000000000000000004998ac1e5c85214c097a1025142e4a794fff0818"
                    ]
                },
                "nodeType": 1
            },
            "2": {
                "event": {
                    "contract": "0xc24ee3a1b395c600eb74eb8293c203c123abf71f",
                    "decodedLog": {
                        "name": "Transfer",
                        "params": [
                            {
                                "name": "from",
                                "type": "address",
                                "value": "0x0000000000000000000000000000000000000000"
                            },
                            {
                                "name": "to",
                                "type": "address",
                                "value": "0x2d2e288135f99425174b84a8112dd1cf7f752a48"
                            },
                            {
                                "decimalAvailable": true,
                                "name": "value",
                                "type": "uint256",
                                "value": "807,692,307,692,318"
                            }
                        ],
                        "signature": "Transfer(address,address,uint256)"
                    },
                    "id": 2,
                    "logData": "0x0000000000000000000000000000000000000000000000000002de9785167b1e",
                    "logDecoded": true,
                    "operation": "EVENT",
                    "revert": false,
                    "status": true,
                    "topics": [
                        "0xddf252ad1be2c89b69c2b068fc378daa952ba7f163c4a11628f55a4df523b3ef",
                        "0x0000000000000000000000000000000000000000000000000000000000000000",
                        "0x0000000000000000000000002d2e288135f99425174b84a8112dd1cf7f752a48"
                    ]
                },
                "nodeType": 1
            },
            "20": {
                "event": {
                    "contract": "0xeec92c01c5ba99620cc801f8c3d50af7ddeffd49",
                    "decodedLog": {
                        "name": "Withdraw1",
                        "params": [
                            {
                                "name": "user",
                                "type": "address",
                                "value": "0x4998ac1e5c85214c097a1025142e4a794fff0818"
                            },
                            {
                                "name": "pid",
                                "type": "uint256",
                                "value": "3"
                            },
                            {
                                "name": "amount",
                                "type": "uint256",
                                "value": "1,656,313,480,328,854,870"
                            }
                        ],
                        "signature": "Withdraw1(address,uint256,uint256)"
                    },
                    "id": 20,
                    "logData": "0x00000000000000000000000000000000000000000000000016fc6855b7b13d56",
                    "logDecoded": true,
                    "operation": "EVENT",
                    "revert": false,
                    "status": true,
                    "topics": [
                        "0xf3184301b3e337dfbeb9976020a7a5c2b619e9bbed16496592d144621652472d",
                        "0x0000000000000000000000004998ac1e5c85214c097a1025142e4a794fff0818",
                        "0x0000000000000000000000000000000000000000000000000000000000000003"
                    ]
                },
                "nodeType": 1
            },
            "3": {
                "invocation": {
                    "address": "0xc24ee3a1b395c600eb74eb8293c203c123abf71f",
                    "callData": "0x000000000000000000000000a0a7b8ded38b169fc5282c07b850e64234f0207a00000000000000000000000000000000000000000000000000029521f7c76ece",
                    "decodedMethod": {
                        "callParams": [
                            {
                                "name": "_to",
                                "type": "address",
                                "value": "0xa0a7b8ded38b169fc5282c07b850e64234f0207a"
                            },
                            {
                                "name": "_amount",
                                "type": "uint256",
                                "value": "726,923,076,923,086"
                            }
                        ],
                        "constructorArguments": "",
                        "name": "mint",
                        "returnParams": [],
                        "signature": "mint(address,uint256)"
                    },
                    "errorInfo": "",
                    "fromAddress": "0xeec92c01c5ba99620cc801f8c3d50af7ddeffd49",
                    "gasUsed": 10896,
                    "id": 3,
                    "methodDecoded": true,
                    "operation": "CALL",
                    "output": "",
                    "revert": false,
                    "revertMessage": "",
                    "selector": "0x40c10f19",
                    "status": true,
                    "value": "0"
                },
                "nodeType": 0
            },
            "4": {
                "event": {
                    "contract": "0xc24ee3a1b395c600eb74eb8293c203c123abf71f",
                    "decodedLog": {
                        "name": "Transfer",
                        "params": [
                            {
                                "name": "from",
                                "type": "address",
                                "value": "0x0000000000000000000000000000000000000000"
                            },
                            {
                                "name": "to",
                                "type": "address",
                                "value": "0xa0a7b8ded38b169fc5282c07b850e64234f0207a"
                            },
                            {
                                "decimalAvailable": true,
                                "name": "value",
                                "type": "uint256",
                                "value": "726,923,076,923,086"
                            }
                        ],
                        "signature": "Transfer(address,address,uint256)"
                    },
                    "id": 4,
                    "logData": "0x00000000000000000000000000000000000000000000000000029521f7c76ece",
                    "logDecoded": true,
                    "operation": "EVENT",
                    "revert": false,
                    "status": true,
                    "topics": [
                        "0xddf252ad1be2c89b69c2b068fc378daa952ba7f163c4a11628f55a4df523b3ef",
                        "0x0000000000000000000000000000000000000000000000000000000000000000",
                        "0x000000000000000000000000a0a7b8ded38b169fc5282c07b850e64234f0207a"
                    ]
                },
                "nodeType": 1
            },
            "5": {
                "invocation": {
                    "address": "0xc24ee3a1b395c600eb74eb8293c203c123abf71f",
                    "callData": "0x0000000000000000000000001de847ccfdaa592513ea3c38b1d881b686ab6e50000000000000000000000000000000000000000000000000000049758d4f0c4f",
                    "decodedMethod": {
                        "callParams": [
                            {
                                "name": "_to",
                                "type": "address",
                                "value": "0x1de847ccfdaa592513ea3c38b1d881b686ab6e50"
                            },
                            {
                                "name": "_amount",
                                "type": "uint256",
                                "value": "80,769,230,769,231"
                            }
                        ],
                        "constructorArguments": "",
                        "name": "mint",
                        "returnParams": [],
                        "signature": "mint(address,uint256)"
                    },
                    "errorInfo": "",
                    "fromAddress": "0xeec92c01c5ba99620cc801f8c3d50af7ddeffd49",
                    "gasUsed": 10896,
                    "id": 5,
                    "methodDecoded": true,
                    "operation": "CALL",
                    "output": "",
                    "revert": false,
                    "revertMessage": "",
                    "selector": "0x40c10f19",
                    "status": true,
                    "value": "0"
                },
                "nodeType": 0
            },
            "6": {
                "event": {
                    "contract": "0xc24ee3a1b395c600eb74eb8293c203c123abf71f",
                    "decodedLog": {
                        "name": "Transfer",
                        "params": [
                            {
                                "name": "from",
                                "type": "address",
                                "value": "0x0000000000000000000000000000000000000000"
                            },
                            {
                                "name": "to",
                                "type": "address",
                                "value": "0x1de847ccfdaa592513ea3c38b1d881b686ab6e50"
                            },
                            {
                                "decimalAvailable": true,
                                "name": "value",
                                "type": "uint256",
                                "value": "80,769,230,769,231"
                            }
                        ],
                        "signature": "Transfer(address,address,uint256)"
                    },
                    "id": 6,
                    "logData": "0x000000000000000000000000000000000000000000000000000049758d4f0c4f",
                    "logDecoded": true,
                    "operation": "EVENT",
                    "revert": false,
                    "status": true,
                    "topics": [
                        "0xddf252ad1be2c89b69c2b068fc378daa952ba7f163c4a11628f55a4df523b3ef",
                        "0x0000000000000000000000000000000000000000000000000000000000000000",
                        "0x0000000000000000000000001de847ccfdaa592513ea3c38b1d881b686ab6e50"
                    ]
                },
                "nodeType": 1
            },
            "7": {
                "invocation": {
                    "address": "0xc24ee3a1b395c600eb74eb8293c203c123abf71f",
                    "callData": "0x000000000000000000000000eec92c01c5ba99620cc801f8c3d50af7ddeffd49000000000000000000000000000000000000000000000000001cb1eb32e0cf2d",
                    "decodedMethod": {
                        "callParams": [
                            {
                                "name": "_to",
                                "type": "address",
                                "value": "0xeec92c01c5ba99620cc801f8c3d50af7ddeffd49"
                            },
                            {
                                "name": "_amount",
                                "type": "uint256",
                                "value": "8,076,923,076,923,181"
                            }
                        ],
                        "constructorArguments": "",
                        "name": "mint",
                        "returnParams": [],
                        "signature": "mint(address,uint256)"
                    },
                    "errorInfo": "",
                    "fromAddress": "0xeec92c01c5ba99620cc801f8c3d50af7ddeffd49",
                    "gasUsed": 10896,
                    "id": 7,
                    "methodDecoded": true,
                    "operation": "CALL",
                    "output": "",
                    "revert": false,
                    "revertMessage": "",
                    "selector": "0x40c10f19",
                    "status": true,
                    "value": "0"
                },
                "nodeType": 0
            },
            "8": {
                "event": {
                    "contract": "0xc24ee3a1b395c600eb74eb8293c203c123abf71f",
                    "decodedLog": {
                        "name": "Transfer",
                        "params": [
                            {
                                "name": "from",
                                "type": "address",
                                "value": "0x0000000000000000000000000000000000000000"
                            },
                            {
                                "name": "to",
                                "type": "address",
                                "value": "0xeec92c01c5ba99620cc801f8c3d50af7ddeffd49"
                            },
                            {
                                "decimalAvailable": true,
                                "name": "value",
                                "type": "uint256",
                                "value": "8,076,923,076,923,181"
                            }
                        ],
                        "signature": "Transfer(address,address,uint256)"
                    },
                    "id": 8,
                    "logData": "0x000000000000000000000000000000000000000000000000001cb1eb32e0cf2d",
                    "logDecoded": true,
                    "operation": "EVENT",
                    "revert": false,
                    "status": true,
                    "topics": [
                        "0xddf252ad1be2c89b69c2b068fc378daa952ba7f163c4a11628f55a4df523b3ef",
                        "0x0000000000000000000000000000000000000000000000000000000000000000",
                        "0x000000000000000000000000eec92c01c5ba99620cc801f8c3d50af7ddeffd49"
                    ]
                },
                "nodeType": 1
            },
            "9": {
                "invocation": {
                    "address": "0xc24ee3a1b395c600eb74eb8293c203c123abf71f",
                    "callData": "0x000000000000000000000000eec92c01c5ba99620cc801f8c3d50af7ddeffd49",
                    "decodedMethod": {
                        "callParams": [
                            {
                                "name": "account",
                                "type": "address",
                                "value": "0xeec92c01c5ba99620cc801f8c3d50af7ddeffd49"
                            }
                        ],
                        "constructorArguments": "",
                        "name": "balanceOf",
                        "returnParams": [
                            {
                                "decimalAvailable": true,
                                "name": "",
                                "type": "uint256",
                                "value": "192,452,103,912,253,927,192"
                            }
                        ],
                        "signature": "balanceOf(address)"
                    },
                    "errorInfo": "",
                    "fromAddress": "0xeec92c01c5ba99620cc801f8c3d50af7ddeffd49",
                    "gasUsed": 1168,
                    "id": 9,
                    "methodDecoded": true,
                    "operation": "STATICCALL",
                    "output": "0x00000000000000000000000000000000000000000000000a6ecf38da6e75af18",
                    "revert": false,
                    "revertMessage": "",
                    "selector": "0x70a08231",
                    "status": true,
                    "value": "0"
                },
                "nodeType": 0
            }
        },
        "gasFlame": [
            {
                "children": [
                    {
                        "children": [
                            {
                                "children": [],
                                "depth": 0,
                                "name": "Initial Gas",
                                "value": 21428
                            },
                            {
                                "children": [
                                    {
                                        "children": [],
                                        "depth": 1,
                                        "name": "mint",
                                        "value": 15096
                                    },
                                    {
                                        "children": [],
                                        "depth": 1,
                                        "name": "mint",
                                        "value": 10896
                                    },
                                    {
                                        "children": [],
                                        "depth": 1,
                                        "name": "mint",
                                        "value": 10896
                                    },
                                    {
                                        "children": [],
                                        "depth": 1,
                                        "name": "mint",
                                        "value": 10896
                                    },
                                    {
                                        "children": [],
                                        "depth": 1,
                                        "name": "balanceOf",
                                        "value": 1168
                                    },
                                    {
                                        "children": [],
                                        "depth": 1,
                                        "name": "transfer",
                                        "value": 10323
                                    },
                                    {
                                        "children": [],
                                        "depth": 1,
                                        "name": "mint",
                                        "value": 6696
                                    },
                                    {
                                        "children": [],
                                        "depth": 1,
                                        "name": "mint",
                                        "value": 10896
                                    },
                                    {
                                        "children": [],
                                        "depth": 1,
                                        "name": "mint",
                                        "value": 10896
                                    },
                                    {
                                        "children": [],
                                        "depth": 1,
                                        "name": "transfer",
                                        "value": 29376
                                    }
                                ],
                                "depth": 0,
                                "name": "Executed Gas",
                                "value": 199255
                            }
                        ],
                        "depth": -1,
                        "name": "Actual Gas Used",
                        "value": 190683
                    },
                    {
                        "children": [],
                        "depth": -1,
                        "name": "Refunded Gas",
                        "value": 30000
                    }
                ],
                "depth": -2,
                "name": "Total Gas",
                "value": 220683
            }
        ],
        "isConfirmed": true,
        "mainTrace": [
            {
                "children": [
                    {
                        "children": [
                            {
                                "children": [
                                    {
                                        "children": [],
                                        "depth": 2,
                                        "id": 2,
                                        "order": 2
                                    }
                                ],
                                "depth": 1,
                                "id": 1,
                                "order": 1
                            },
                            {
                                "children": [
                                    {
                                        "children": [],
                                        "depth": 2,
                                        "id": 4,
                                        "order": 4
                                    }
                                ],
                                "depth": 1,
                                "id": 3,
                                "order": 3
                            },
                            {
                                "children": [
                                    {
                                        "children": [],
                                        "depth": 2,
                                        "id": 6,
                                        "order": 6
                                    }
                                ],
                                "depth": 1,
                                "id": 5,
                                "order": 5
                            },
                            {
                                "children": [
                                    {
                                        "children": [],
                                        "depth": 2,
                                        "id": 8,
                                        "order": 8
                                    }
                                ],
                                "depth": 1,
                                "id": 7,
                                "order": 7
                            },
                            {
                                "children": [],
                                "depth": 1,
                                "id": 9,
                                "order": 9
                            },
                            {
                                "children": [
                                    {
                                        "children": [],
                                        "depth": 2,
                                        "id": 11,
                                        "order": 11
                                    }
                                ],
                                "depth": 1,
                                "id": 10,
                                "order": 10
                            },
                            {
                                "children": [
                                    {
                                        "children": [],
                                        "depth": 2,
                                        "id": 13,
                                        "order": 13
                                    }
                                ],
                                "depth": 1,
                                "id": 12,
                                "order": 12
                            },
                            {
                                "children": [
                                    {
                                        "children": [],
                                        "depth": 2,
                                        "id": 15,
                                        "order": 15
                                    }
                                ],
                                "depth": 1,
                                "id": 14,
                                "order": 14
                            },
                            {
                                "children": [
                                    {
                                        "children": [],
                                        "depth": 2,
                                        "id": 17,
                                        "order": 17
                                    }
                                ],
                                "depth": 1,
                                "id": 16,
                                "order": 16
                            },
                            {
                                "children": [
                                    {
                                        "children": [],
                                        "depth": 2,
                                        "id": 19,
                                        "order": 19
                                    }
                                ],
                                "depth": 1,
                                "id": 18,
                                "order": 18
                            },
                            {
                                "children": [],
                                "depth": 1,
                                "id": 20,
                                "order": 20
                            }
                        ],
                        "depth": 0,
                        "id": 0,
                        "order": 0
                    }
                ],
                "depth": -1,
                "id": -1,
                "order": -1
            }
        ],
        "mainTraceNodeCount": 21,
        "parentIdMap": {
            "0": -1,
            "1": 0,
            "10": 0,
            "11": 10,
            "12": 0,
            "13": 12,
            "14": 0,
            "15": 14,
            "16": 0,
            "17": 16,
            "18": 0,
            "19": 18,
            "2": 1,
            "20": 0,
            "3": 0,
            "4": 3,
            "5": 0,
            "6": 5,
            "7": 0,
            "8": 7,
            "9": 0
        },
        "tidyTrace": [
            {
                "children": [
                    {
                        "children": [
                            {
                                "children": [
                                    {
                                        "children": [],
                                        "depth": 2,
                                        "id": 2,
                                        "order": 2
                                    }
                                ],
                                "depth": 1,
                                "id": 1,
                                "order": 1
                            },
                            {
                                "children": [
                                    {
                                        "children": [],
                                        "depth": 2,
                                        "id": 4,
                                        "order": 4
                                    }
                                ],
                                "depth": 1,
                                "id": 3,
                                "order": 3
                            },
                            {
                                "children": [
                                    {
                                        "children": [],
                                        "depth": 2,
                                        "id": 6,
                                        "order": 6
                                    }
                                ],
                                "depth": 1,
                                "id": 5,
                                "order": 5
                            },
                            {
                                "children": [
                                    {
                                        "children": [],
                                        "depth": 2,
                                        "id": 8,
                                        "order": 8
                                    }
                                ],
                                "depth": 1,
                                "id": 7,
                                "order": 7
                            },
                            {
                                "children": [
                                    {
                                        "children": [],
                                        "depth": 2,
                                        "id": 11,
                                        "order": 11
                                    }
                                ],
                                "depth": 1,
                                "id": 10,
                                "order": 10
                            },
                            {
                                "children": [
                                    {
                                        "children": [],
                                        "depth": 2,
                                        "id": 13,
                                        "order": 13
                                    }
                                ],
                                "depth": 1,
                                "id": 12,
                                "order": 12
                            },
                            {
                                "children": [
                                    {
                                        "children": [],
                                        "depth": 2,
                                        "id": 15,
                                        "order": 15
                                    }
                                ],
                                "depth": 1,
                                "id": 14,
                                "order": 14
                            },
                            {
                                "children": [
                                    {
                                        "children": [],
                                        "depth": 2,
                                        "id": 17,
                                        "order": 17
                                    }
                                ],
                                "depth": 1,
                                "id": 16,
                                "order": 16
                            },
                            {
                                "children": [
                                    {
                                        "children": [],
                                        "depth": 2,
                                        "id": 19,
                                        "order": 19
                                    }
                                ],
                                "depth": 1,
                                "id": 18,
                                "order": 18
                            },
                            {
                                "children": [],
                                "depth": 1,
                                "id": 20,
                                "order": 20
                            }
                        ],
                        "depth": 0,
                        "id": 0,
                        "order": 0
                    }
                ],
                "depth": -1,
                "id": -1,
                "order": -1
            }
        ],
        "tidyTraceNodeCount": 20
    },
    "state_change": {
        "stateChanges": [
            {
                "address": "0x28f72434d130029254fd04d772077d3bf08c032a",
                "erc": "ERC-20",
                "slots": [
                    {
                        "current": "0x00000000000000000000000000000000000000000000001d761adb57f4b03485",
                        "key": "0x67e9929a2516f6b97788b8a75be8a43bc9a9201f964f84a0256b6bcc69a91621",
                        "prev": "0x00000000000000000000000000000000000000000000001d8d1743adac6171db"
                    },
                    {
                        "current": "0x00000000000000000000000000000000000000000000000016fc6855b7b13d56",
                        "key": "0x0e8a9fee628aa5972e6754a4b2ecb03c8fc2eb3a0f4495e7bcf739f57537001b",
                        "prev": "0x0000000000000000000000000000000000000000000000000000000000000000"
                    }
                ],
                "storageVariables": [
                    {
                        "name": "balanceOf",
                        "type": "mapping(address => uint256)",
                        "value": {
                            "pairs": [
                                {
                                    "key": "0x4998ac1e5c85214c097a1025142e4a794fff0818",
                                    "value": {
                                        "current": "1656313480328854870",
                                        "prev": "0",
                                        "typeTag": 1
                                    }
                                },
                                {
                                    "key": "0xeec92c01c5ba99620cc801f8c3d50af7ddeffd49",
                                    "value": {
                                        "current": "543465933754260796549",
                                        "prev": "545122247234589651419",
                                        "typeTag": 1
                                    }
                                }
                            ],
                            "typeTag": 4
                        }
                    }
                ]
            },
            {
                "address": "0xc24ee3a1b395c600eb74eb8293c203c123abf71f",
                "erc": "ERC-20",
                "slots": [
                    {
                        "current": "0x00000000000000000000000000000000000000000000000a6ecf22a1f389d6da",
                        "key": "0x2ad200baa892d1f4f4688606ae38e0ab8a5e79d3d0c0f0827aeca91f293621bc",
                        "prev": "0x00000000000000000000000000000000000000000000000a6eb286ef3b94dfeb"
                    },
                    {
                        "current": "0x000000000000000000000000000000000000000000000000000d62d1d698f8b7",
                        "key": "0x63658e2f076603d80708838729dd688451cf14593b61b566ed4d459989a318c9",
                        "prev": "0x000000000000000000000000000000000000000000000000000d4c60792ac4b6"
                    },
                    {
                        "current": "0x00000000000000000000000000000000000000000000000001378691a7ed50b9",
                        "key": "0xe3fa60a5e0476b2486c844f17536908093f4f97bf39cb4ef7c4f617bf867594b",
                        "prev": "0x0000000000000000000000000000000000000000000000000137861fe2e89933"
                    },
                    {
                        "current": "0x00000000000000000000000000000000000000000000000001a14644ab8b7f61",
                        "key": "0xcb38c744ca7f6a8a61acbcdca666ed90fa4446c68a101944f7dd81ea319de9dc",
                        "prev": "0x00000000000000000000000000000000000000000000000001a145d2e686c7db"
                    },
                    {
                        "current": "0x000000000000000000000000000000000000000000000078d4c5e7dd5625fce0",
                        "key": "0x0000000000000000000000000000000000000000000000000000000000000002",
                        "prev": "0x000000000000000000000000000000000000000000000078d4a377a6ac8c6ca9"
                    },
                    {
                        "current": "0x00000000000000000000000000000000000000000000000056767fdef680b823",
                        "key": "0x7a4dff0831a31d24ada06e9727b00f4b72c9c519dd06e92e7896d963784f59d2",
                        "prev": "0x0000000000000000000000000000000000000000000000005673a147716a3d05"
                    },
                    {
                        "current": "0x00000000000000000000000000000000000000000000000048218454820504e1",
                        "key": "0x9188f66aac399c2c32b2ba38b24dc9661f61ec93f04950e877f59fef3b95f48f",
                        "prev": "0x000000000000000000000000000000000000000000000000481eef328a3d9613"
                    },
                    {
                        "current": "0x000000000000000000000000000000000000000000000000f98814a6c89d844c",
                        "key": "0x6079d8cdd621bfb7d05de3d988bd2346e65d777b636efd826e0aeee19b2aaad4",
                        "prev": "0x000000000000000000000000000000000000000000000000f987cb313b4e77fd"
                    }
                ],
                "storageVariables": [
                    {
                        "name": "_balances",
                        "type": "mapping(address => uint256)",
                        "value": {
                            "pairs": [
                                {
                                    "key": "0x1de847ccfdaa592513ea3c38b1d881b686ab6e50",
                                    "value": {
                                        "current": "17980644218839598156",
                                        "prev": "17980563449608828925",
                                        "typeTag": 1
                                    }
                                },
                                {
                                    "key": "0x2d2e288135f99425174b84a8112dd1cf7f752a48",
                                    "value": {
                                        "current": "6230307730108758051",
                                        "prev": "6229500037801065733",
                                        "typeTag": 1
                                    }
                                },
                                {
                                    "key": "0x4998ac1e5c85214c097a1025142e4a794fff0818",
                                    "value": {
                                        "current": "3767828085274807",
                                        "prev": "3743151930655926",
                                        "typeTag": 1
                                    }
                                },
                                {
                                    "key": "0x609ea6ab15c6b02a8264f428ef8a69dcbfc90cc5",
                                    "value": {
                                        "current": "87686677902741689",
                                        "prev": "87686189266016563",
                                        "typeTag": 1
                                    }
                                },
                                {
                                    "key": "0x8311df31483815bfe8fcf8c2162c73a2deda3076",
                                    "value": {
                                        "current": "117452326038110049",
                                        "prev": "117451837401384923",
                                        "typeTag": 1
                                    }
                                },
                                {
                                    "key": "0xa0a7b8ded38b169fc5282c07b850e64234f0207a",
                                    "value": {
                                        "current": "5197580943455749345",
                                        "prev": "5196854020378826259",
                                        "typeTag": 1
                                    }
                                },
                                {
                                    "key": "0xeec92c01c5ba99620cc801f8c3d50af7ddeffd49",
                                    "value": {
                                        "current": "192452079480417670874",
                                        "prev": "192444026989177004011",
                                        "typeTag": 1
                                    }
                                }
                            ],
                            "typeTag": 4
                        }
                    },
                    {
                        "name": "_totalSupply",
                        "type": "uint256",
                        "value": {
                            "current": "2228941204289418034400",
                            "prev": "2228931510760133913769",
                            "typeTag": 1
                        }
                    }
                ]
            },
            {
                "address": "0xeec92c01c5ba99620cc801f8c3d50af7ddeffd49",
                "erc": "",
                "slots": [
                    {
                        "current": "0x00000000000000000000000000000000000000000000001d97f267d8ed73611b",
                        "key": "0xa66cc928b5edb82af9bd49922954155ab7b0942694bea4ce44661d9a8736c69b",
                        "prev": "0x00000000000000000000000000000000000000000000001daeeed02ea5249e71"
                    },
                    {
                        "current": "0x0000000000000000000000000000000000000000000000000000000000000000",
                        "key": "0x127e9ed80e89831acdce9eb1719eea4751456f1c8164bc3bc56f6364673501b0",
                        "prev": "0x00000000000000000000000000000000000000000000000005d298a0f8ec6c49"
                    },
                    {
                        "current": "0x0000000000000000000000000000000000000000000000000000003afb80d4b3",
                        "key": "0xa66cc928b5edb82af9bd49922954155ab7b0942694bea4ce44661d9a8736c69a",
                        "prev": "0x0000000000000000000000000000000000000000000000000000003afa9fc0a7"
                    },
                    {
                        "current": "0x0000000000000000000000000000000000000000000000000000000000b15234",
                        "key": "0xa66cc928b5edb82af9bd49922954155ab7b0942694bea4ce44661d9a8736c699",
                        "prev": "0x0000000000000000000000000000000000000000000000000000000000b15225"
                    },
                    {
                        "current": "0x0000000000000000000000000000000000000000000000000000000000000000",
                        "key": "0x127e9ed80e89831acdce9eb1719eea4751456f1c8164bc3bc56f6364673501af",
                        "prev": "0x00000000000000000000000000000000000000000000000016fc6855b7b13d56"
                    }
                ],
                "storageVariables": [
                    {
                        "name": "poolInfo1",
                        "type": "struct RoseMaster.PoolInfo1[]",
                        "value": {
                            "elemType": "struct RoseMaster.PoolInfo1",
                            "elems": [
                                {
                                    "index": 3,
                                    "value": {
                                        "fields": [
                                            {
                                                "name": "lastRewardBlock",
                                                "type": "uint256",
                                                "value": {
                                                    "current": "11620916",
                                                    "prev": "11620901",
                                                    "typeTag": 1
                                                }
                                            },
                                            {
                                                "name": "accRosePerShare",
                                                "type": "uint256",
                                                "value": {
                                                    "current": "253327627443",
                                                    "prev": "253312876711",
                                                    "typeTag": 1
                                                }
                                            },
                                            {
                                                "name": "totalAmount",
                                                "type": "uint256",
                                                "value": {
                                                    "current": "545904505963062452507",
                                                    "prev": "547560819443391307377",
                                                    "typeTag": 1
                                                }
                                            }
                                        ],
                                        "typeTag": 3
                                    }
                                }
                            ],
                            "typeTag": 2
                        }
                    },
                    {
                        "name": "userInfo1",
                        "type": "mapping(uint256 => mapping(address => struct RoseMaster.UserInfo))",
                        "value": {
                            "pairs": [
                                {
                                    "key": "3",
                                    "value": {
                                        "pairs": [
                                            {
                                                "key": "0x4998ac1e5c85214c097a1025142e4a794fff0818",
                                                "value": {
                                                    "fields": [
                                                        {
                                                            "name": "amount",
                                                            "type": "uint256",
                                                            "value": {
                                                                "current": "0",
                                                                "prev": "1656313480328854870",
                                                                "typeTag": 1
                                                            }
                                                        },
                                                        {
                                                            "name": "rewardDebt",
                                                            "type": "uint256",
                                                            "value": {
                                                                "current": "0",
                                                                "prev": "419565532437310537",
                                                                "typeTag": 1
                                                            }
                                                        }
                                                    ],
                                                    "typeTag": 3
                                                }
                                            }
                                        ],
                                        "typeTag": 4
                                    }
                                }
                            ],
                            "typeTag": 4
                        }
                    }
                ]
            }
        ]
    }
}