{
    "balance_change": {
        "balanceChanges": []
    },
    "profile": {
        "basic_info": {
            "baseFee": "1.237574014",
            "blockNumber": 20404207,
            "callData": "0x095ea7b30000000000000000000000007223442cad8e9ca474fc40109ab981608f8c4273000000000000000000000000000000000000000000000000000aa8a9f149fa36",
            "debugEnable": true,
            "errorInfo": "",
            "eventCount": 1,
            "feeRecipient": "0x388c818ca8b9251b393131c08a736a67ccb19297",
            "formatValue": "0",
            "gasLimit": 51591,
            "gasPrice": "1.737574014",
            "gasUsed": 51199,
            "intTxnCount": 1,
            "internalRevert": false,
            "internalRevertMessage": "",
            "isContractCreation": false,
            "isFlashloan": false,
            "maxFee": "4.15909095",
            "nonce": 16,
            "overwritedBlockNumber": -1,
            "priorityFee": "0.5",
            "receiver": "0x35fa164735182de50811e8e2e824cfb9b6118ac2",
            "revertMessage": "",
            "sender": "0xc487b22131f61b5f73ecf98be30d2dd9a3592dc6",
            "simulationEnable": true,
            "sourceTxnHash": "0xa2ecfeaf563dbd12e39e2930d3e6f299d52c01e385ffb011434dffd93a523489",
            "status": true,
            "timestamp": "2024-07-28T09:39:47Z",
            "transactionFee": "0.000088962051942786",
            "txnHash": "0xa2ecfeaf563dbd12e39e2930d3e6f299d52c01e385ffb011434dffd93a523489",
            "txnIndex": 38,
            "type": 2,
            "value": "0"
        },
        "fund_flow": [],
        "token_infos": [
            {
                "address": "0xc02aaa39b223fe8d0a0e5c4f27ead9083c756cc2",
                "decimals": 18
            },
            {
                "address": "0xeeeeeeeeeeeeeeeeeeeeeeeeeeeeeeeeeeeeeeee",
                "decimals": 18
            }
        ]
    },
    "address_label": {
        "labels": [
            {
                "address": "0x35fa164735182de50811e8e2e824cfb9b6118ac2",
                "label": "ether.fi: eETH Token"
            },
            {
                "address": "0x388c818ca8b9251b393131c08a736a67ccb19297",
                "label": "LidoExecutionLayerRewardsVault"
            },
            {
                "address": "0xeeeeeeeeeeeeeeeeeeeeeeeeeeeeeeeeeeeeeeee",
                "label": "Ether"
            },
            {
                "address": "0x7223442cad8e9ca474fc40109ab981608f8c4273",
                "label": "ether.fi: weETHk Token"
            },
            {
                "address": "0x0000000000000000000000000000000000000002",
                "label": "Precompiled"
            },
            {
                "address": "0x0000000000000000000000000000000000000003",
                "label": "Precompiled"
            },
            {
                "address": "0x0000000000000000000000000000000000000004",
                "label": "Precompiled"
            },
            {
                "address": "0x1b47a665364bc15c28b05f449b53354d0ceff72f",
                "label": "EETH"
            },
            {
                "address": "0x0000000000000000000000000000000000000001",
                "label": "Precompiled"
            }
        ]
    },
    "trace": {
        "accountLabels": null,
        "dataMap": {
            "-1": {
                "invocation": {
                    "address": "0xc487b22131f61b5f73ecf98be30d2dd9a3592dc6",
                    "callData": "",
                    "decodedMethod": null,
                    "errorInfo": "",
                    "fromAddress": "",
                    "gasUsed": 0,
                    "id": -1,
                    "methodDecoded": false,
                    "operation": "",
                    "output": "",
                    "revert": false,
                    "revertMessage": "",
                    "selector": "",
                    "status": false,
                    "value": ""
                },
                "nodeType": 0
            },
            "0": {
                "invocation": {
                    "address": "0x35fa164735182de50811e8e2e824cfb9b6118ac2",
                    "callData": "0x0000000000000000000000007223442cad8e9ca474fc40109ab981608f8c4273000000000000000000000000000000000000000000000000000aa8a9f149fa36",
                    "decodedMethod": {
                        "callParams": [
                            {
                                "name": "_spender",
                                "type": "address",
                                "value": "0x7223442cad8e9ca474fc40109ab981608f8c4273"
                            },
                            {
                                "decimalAvailable": true,
                                "name": "_amount",
                                "type": "uint256",
                                "value": "3,000,197,618,203,190"
                            }
                        ],
                        "constructorArguments": "",
                        "name": "approve",
                        "returnParams": [
                            {
                                "name": "",
                                "type": "bool",
                                "value": true
                            }
                        ],
                        "signature": "approve(address,uint256)"
                    },
                    "errorInfo": "",
                    "fromAddress": "0xc487b22131f61b5f73ecf98be30d2dd9a3592dc6",
                    "gasUsed": 51199,
                    "id": 0,
                    "methodDecoded": true,
                    "operation": "CALL",
                    "output": "0x0000000000000000000000000000000000000000000000000000000000000001",
                    "revert": false,
                    "revertMessage": "",
                    "selector": "0x095ea7b3",
                    "status": true,
                    "value": "0"
                },
                "nodeType": 0
            },
            "1": {
                "invocation": {
                    "address": "0x1b47a665364bc15c28b05f449b53354d0ceff72f",
                    "callData": "0x0000000000000000000000007223442cad8e9ca474fc40109ab981608f8c4273000000000000000000000000000000000000000000000000000aa8a9f149fa36",
                    "decodedMethod": {
                        "callParams": [
                            {
                                "name": "_spender",
                                "type": "address",
                                "value": "0x7223442cad8e9ca474fc40109ab981608f8c4273"
                            },
                            {
                                "decimalAvailable": true,
                                "name": "_amount",
                                "type": "uint256",
                                "value": "3,000,197,618,203,190"
                            }
                        ],
                        "constructorArguments": "",
                        "name": "approve",
                        "returnParams": [
                            {
                                "name": "",
                                "type": "bool",
                                "value": true
                            }
                        ],
                        "signature": "approve(address,uint256)"
                    },
                    "errorInfo": "",
                    "fromAddress": "0x35fa164735182de50811e8e2e824cfb9b6118ac2",
                    "gasUsed": 24666,
                    "id": 1,
                    "methodDecoded": true,
                    "operation": "DELEGATECALL",
                    "output": "0x0000000000000000000000000000000000000000000000000000000000000001",
                    "revert": false,
                    "revertMessage": "",
                    "selector": "0x095ea7b3",
                    "status": true,
                    "value": "0"
                },
                "nodeType": 0
            },
            "2": {
                "event": {
                    "contract": "0x35fa164735182de50811e8e2e824cfb9b6118ac2",
                    "decodedLog": {
                        "name": "Approval",
                        "params": [
                            {
                                "name": "owner",
                                "type": "address",
                                "value": "0xc487b22131f61b5f73ecf98be30d2dd9a3592dc6"
                            },
                            {
                                "name": "spender",
                                "type": "address",
                                "value": "0x7223442cad8e9ca474fc40109ab981608f8c4273"
                            },
                            {
                                "decimalAvailable": true,
                                "name": "value",
                                "type": "uint256",
                                "value": "3,000,197,618,203,190"
                            }
                        ],
                        "signature": "Approval(address,address,uint256)"
                    },
                    "id": 2,
                    "logData": "0x000000000000000000000000000000000000000000000000000aa8a9f149fa36",
                    "logDecoded": true,
                    "operation": "EVENT",
                    "revert": false,
                    "status": true,
                    "topics": [
                        "0x8c5be1e5ebec7d5bd14f71427d1e84f3dd0314c0f7b2291e5b200ac8c7c3b925",
                        "0x000000000000000000000000c487b22131f61b5f73ecf98be30d2dd9a3592dc6",
                        "0x0000000000000000000000007223442cad8e9ca474fc40109ab981608f8c4273"
                    ]
                },
                "nodeType": 1
            }
        },
        "gasFlame": [
            {
                "children": [
                    {
                        "children": [
                            {
                                "children": [],
                                "depth": 0,
                                "name": "Initial Gas",
                                "value": 21644
                            },
                            {
                                "children": [
                                    {
                                        "children": [],
                                        "depth": 1,
                                        "name": "approve",
                                        "value": 24666
                                    }
                                ],
                                "depth": 0,
                                "name": "Executed Gas",
                                "value": 29555
                            }
                        ],
                        "depth": -1,
                        "name": "Actual Gas Used",
                        "value": 51199
                    },
                    {
                        "children": [],
                        "depth": -1,
                        "name": "Refunded Gas",
                        "value": 0
                    }
                ],
                "depth": -2,
                "name": "Total Gas",
                "value": 51199
            }
        ],
        "isConfirmed": true,
        "mainTrace": [
            {
                "children": [
                    {
                        "children": [
                            {
                                "children": [
                                    {
                                        "children": [],
                                        "depth": 2,
                                        "id": 2,
                                        "order": 2
                                    }
                                ],
                                "depth": 1,
                                "id": 1,
                                "order": 1
                            }
                        ],
                        "depth": 0,
                        "id": 0,
                        "order": 0
                    }
                ],
                "depth": -1,
                "id": -1,
                "order": -1
            }
        ],
        "mainTraceNodeCount": 3,
        "parentIdMap": {
            "0": -1,
            "1": 0,
            "2": 1
        },
        "tidyTrace": [
            {
                "children": [
                    {
                        "children": [
                            {
                                "children": [
                                    {
                                        "children": [],
                                        "depth": 2,
                                        "id": 2,
                                        "order": 2
                                    }
                                ],
                                "depth": 1,
                                "id": 1,
                                "order": 1
                            }
                        ],
                        "depth": 0,
                        "id": 0,
                        "order": 0
                    }
                ],
                "depth": -1,
                "id": -1,
                "order": -1
            }
        ],
        "tidyTraceNodeCount": 3
    },
    "state_change": {
        "stateChanges": [
            {
                "address": "0x35fa164735182de50811e8e2e824cfb9b6118ac2",
                "erc": "ERC-20",
                "slots": [
                    {
                        "current": "0x000000000000000000000000000000000000000000000000000aa8a9f149fa36",
                        "key": "0x6eb940166cb8d018dc9017546e91d4fd72b26796612a53c81fc6335d0fa6e408",
                        "prev": "0x0000000000000000000000000000000000000000000000000000000000000000"
                    }
                ],
                "storageVariables": [
                    {
                        "name": "allowances",
                        "type": "mapping(address => mapping(address => uint256))",
                        "value": {
                            "pairs": [
                                {
                                    "key": "0xc487b22131f61b5f73ecf98be30d2dd9a3592dc6",
                                    "value": {
                                        "pairs": [
                                            {
                                                "key": "0x7223442cad8e9ca474fc40109ab981608f8c4273",
                                                "value": {
                                                    "current": "3000197618203190",
                                                    "prev": "0",
                                                    "typeTag": 1
                                                }
                                            }
                                        ],
                                        "typeTag": 4
                                    }
                                }
                            ],
                            "typeTag": 4
                        }
                    }
                ]
            }
        ]
    }
}