{
    "balance_change": {
        "balanceChanges": [
            {
                "account": "0xfcec3a785c9d916467ff3c372835c6c8f00d5b44",
                "assets": [
                    {
                        "address": "0xeeeeeeeeeeeeeeeeeeeeeeeeeeeeeeeeeeeeeeee",
                        "amount": "48.956767421943584707",
                        "iconUrl": "https://assets.blocksec.com/image/1663669189317-3.png",
                        "isERC1155": false,
                        "isERC721": false,
                        "sign": false,
                        "value": "168745.3669"
                    },
                    {
                        "address": "0xa0b86991c6218b36c1d19d4a2e9eb0ce3606eb48",
                        "amount": "187,653.77603",
                        "iconUrl": "https://assets.blocksec.com/icon/0347a86cc07dbd03fdc5db01a4e5ac7e1217f90e0b6e4bb0f75cbcca09160989.png",
                        "isERC1155": false,
                        "isERC721": false,
                        "sign": false,
                        "value": "187653.776"
                    },
                    {
                        "address": "0xc36442b4a4522e871399cd717abdd847ab11fe88",
                        "amount": "1",
                        "iconUrl": "https://assets.blocksec.com/nft/icon/nft_177aab42-5a7d-408e-b4aa-3c9923a4066f.png",
                        "isERC1155": false,
                        "isERC721": true,
                        "sign": true,
                        "tokenID": "920",
                        "value": ""
                    }
                ]
            },
            {
                "account": "0x0000000000000000000000000000000000000000",
                "assets": [
                    {
                        "address": "0xc36442b4a4522e871399cd717abdd847ab11fe88",
                        "amount": "1",
                        "iconUrl": "https://assets.blocksec.com/nft/icon/nft_177aab42-5a7d-408e-b4aa-3c9923a4066f.png",
                        "isERC1155": false,
                        "isERC721": true,
                        "sign": false,
                        "tokenID": "920",
                        "value": ""
                    }
                ]
            },
            {
                "account": "0x8ad599c3a0ff1de082011efddc58f1908eb6e6d8",
                "assets": [
                    {
                        "address": "0xc02aaa39b223fe8d0a0e5c4f27ead9083c756cc2",
                        "amount": "48.956767421943584707",
                        "iconUrl": "https://assets.blocksec.com/icon/f1cb2d02c471d545bbc7722daf3277fd852d98e63d118771af7047bd8256c516.png",
                        "isERC1155": false,
                        "isERC721": false,
                        "sign": true,
                        "value": "168745.3669"
                    },
                    {
                        "address": "0xa0b86991c6218b36c1d19d4a2e9eb0ce3606eb48",
                        "amount": "187,653.77603",
                        "iconUrl": "https://assets.blocksec.com/icon/0347a86cc07dbd03fdc5db01a4e5ac7e1217f90e0b6e4bb0f75cbcca09160989.png",
                        "isERC1155": false,
                        "isERC721": false,
                        "sign": true,
                        "value": "187653.776"
                    }
                ]
            },
            {
                "account": "0xc02aaa39b223fe8d0a0e5c4f27ead9083c756cc2",
                "assets": [
                    {
                        "address": "0xeeeeeeeeeeeeeeeeeeeeeeeeeeeeeeeeeeeeeeee",
                        "amount": "48.956767421943584707",
                        "iconUrl": "https://assets.blocksec.com/image/1663669189317-3.png",
                        "isERC1155": false,
                        "isERC721": false,
                        "sign": true,
                        "value": "168745.3669"
                    },
                    {
                        "address": "0xc02aaa39b223fe8d0a0e5c4f27ead9083c756cc2",
                        "amount": "48.956767421943584707",
                        "iconUrl": "https://assets.blocksec.com/icon/f1cb2d02c471d545bbc7722daf3277fd852d98e63d118771af7047bd8256c516.png",
                        "isERC1155": false,
                        "isERC721": false,
                        "sign": false,
                        "value": "168745.3669"
                    }
                ]
            }
        ]
    },
    "profile": {
        "basic_info": {
            "baseFee": "",
            "blockNumber": 12376677,
            "callData": "0xac9650d800000000000000000000000000000000000000000000000000000000000000200000000000000000000000000000000000000000000000000000000000000002000000000000000000000000000000000000000000000000000000000000004000000000000000000000000000000000000000000000000000000000000001e0000000000000000000000000000000000000000000000000000000000000016488316456000000000000000000000000a0b86991c6218b36c1d19d4a2e9eb0ce3606eb48000000000000000000000000c02aaa39b223fe8d0a0e5c4f27ead9083c756cc20000000000000000000000000000000000000000000000000000000000000bb8000000000000000000000000000000000000000000000000000000000002f544000000000000000000000000000000000000000000000000000000000002fd780000000000000000000000000000000000000000000000000000002bb109629e000000000000000000000000000000000000000000000002a7d2e7cdc1e0dbfa0000000000000000000000000000000000000000000000000000002b791c89cd000000000000000000000000000000000000000000000002a46cbb1fedb57eb7000000000000000000000000fcec3a785c9d916467ff3c372835c6c8f00d5b44000000000000000000000000000000000000000000000000000000006093122900000000000000000000000000000000000000000000000000000000000000000000000000000000000000000000000000000000000000000000000412210e8a00000000000000000000000000000000000000000000000000000000",
            "debugEnable": true,
            "errorInfo": "",
            "eventCount": 6,
            "feeRecipient": "0xea674fdde714fd979de3edf0f56aa9716b898ec8",
            "formatValue": "48.986470967769357306",
            "gasLimit": 585146,
            "gasPrice": "63",
            "gasUsed": 491405,
            "intTxnCount": 17,
            "internalRevert": false,
            "internalRevertMessage": "",
            "isContractCreation": false,
            "isFlashloan": false,
            "maxFee": "",
            "nonce": 217,
            "overwritedBlockNumber": -1,
            "priorityFee": "",
            "receiver": "0xc36442b4a4522e871399cd717abdd847ab11fe88",
            "revertMessage": "",
            "sender": "0xfcec3a785c9d916467ff3c372835c6c8f00d5b44",
            "simulationEnable": true,
            "sourceTxnHash": "0xa229218bb24a114ce947701a6b58e781efd63c69cb388749287934c4f89d33fa",
            "status": true,
            "timestamp": "2021-05-05T21:29:42Z",
            "transactionFee": "0.030958515",
            "txnHash": "0xa229218bb24a114ce947701a6b58e781efd63c69cb388749287934c4f89d33fa",
            "txnIndex": 159,
            "type": 0,
            "value": "48986470967769357306"
        },
        "fund_flow": [
            {
                "amount": "48.986470967769357306",
                "from": "0xfcec3a785c9d916467ff3c372835c6c8f00d5b44",
                "id": 1,
                "isERC1155": false,
                "isERC721": false,
                "isReverted": false,
                "order": 1,
                "to": "0xc36442b4a4522e871399cd717abdd847ab11fe88",
                "token": "0xeeeeeeeeeeeeeeeeeeeeeeeeeeeeeeeeeeeeeeee"
            },
            {
                "amount": "187,653.77603",
                "from": "0xfcec3a785c9d916467ff3c372835c6c8f00d5b44",
                "id": 2,
                "isERC1155": false,
                "isERC721": false,
                "isReverted": false,
                "order": 2,
                "to": "0x8ad599c3a0ff1de082011efddc58f1908eb6e6d8",
                "token": "0xa0b86991c6218b36c1d19d4a2e9eb0ce3606eb48"
            },
            {
                "amount": "48.956767421943584707",
                "from": "0xc36442b4a4522e871399cd717abdd847ab11fe88",
                "id": 3,
                "isERC1155": false,
                "isERC721": false,
                "isReverted": false,
                "order": 3,
                "to": "0xc02aaa39b223fe8d0a0e5c4f27ead9083c756cc2",
                "token": "0xeeeeeeeeeeeeeeeeeeeeeeeeeeeeeeeeeeeeeeee"
            },
            {
                "amount": "48.956767421943584707",
                "from": "0xc02aaa39b223fe8d0a0e5c4f27ead9083c756cc2",
                "id": 4,
                "isERC1155": false,
                "isERC721": false,
                "isReverted": false,
                "order": 4,
                "to": "0xc36442b4a4522e871399cd717abdd847ab11fe88",
                "token": "0xc02aaa39b223fe8d0a0e5c4f27ead9083c756cc2"
            },
            {
                "amount": "48.956767421943584707",
                "from": "0xc36442b4a4522e871399cd717abdd847ab11fe88",
                "id": 5,
                "isERC1155": false,
                "isERC721": false,
                "isReverted": false,
                "order": 5,
                "to": "0x8ad599c3a0ff1de082011efddc58f1908eb6e6d8",
                "token": "0xc02aaa39b223fe8d0a0e5c4f27ead9083c756cc2"
            },
            {
                "amount": "1",
                "from": "0x0000000000000000000000000000000000000000",
                "id": 6,
                "isERC1155": false,
                "isERC721": true,
                "isReverted": false,
                "order": 6,
                "to": "0xfcec3a785c9d916467ff3c372835c6c8f00d5b44",
                "token": "0xc36442b4a4522e871399cd717abdd847ab11fe88",
                "tokenID": "920"
            },
            {
                "amount": "0.029703545825772599",
                "from": "0xc36442b4a4522e871399cd717abdd847ab11fe88",
                "id": 7,
                "isERC1155": false,
                "isERC721": false,
                "isReverted": false,
                "order": 7,
                "to": "0xfcec3a785c9d916467ff3c372835c6c8f00d5b44",
                "token": "0xeeeeeeeeeeeeeeeeeeeeeeeeeeeeeeeeeeeeeeee"
            }
        ],
        "token_infos": [
            {
                "address": "0xa0b86991c6218b36c1d19d4a2e9eb0ce3606eb48",
                "decimals": 6
            },
            {
                "address": "0xc02aaa39b223fe8d0a0e5c4f27ead9083c756cc2",
                "decimals": 18
            },
            {
                "address": "0xeeeeeeeeeeeeeeeeeeeeeeeeeeeeeeeeeeeeeeee",
                "decimals": 18
            }
        ]
    },
    "address_label": {
        "labels": [
            {
                "address": "0xeeeeeeeeeeeeeeeeeeeeeeeeeeeeeeeeeeeeeeee",
                "label": "Ether"
            },
            {
                "address": "0xc02aaa39b223fe8d0a0e5c4f27ead9083c756cc2",
                "label": "Wrapped Ether (WETH)"
            },
            {
                "address": "0xc36442b4a4522e871399cd717abdd847ab11fe88",
                "label": "Uniswap V3: Positions NFT"
            },
            {
                "address": "0x0000000000000000000000000000000000000002",
                "label": "Precompiled"
            },
            {
                "address": "0x0000000000000000000000000000000000000003",
                "label": "Precompiled"
            },
            {
                "address": "0xa2327a938febf5fec13bacfb16ae10ecbc4cbdcf",
                "label": "FiatTokenV2_1"
            },
            {
                "address": "0x8ad599c3a0ff1de082011efddc58f1908eb6e6d8",
                "label": "Uniswap V3: USDC 2"
            },
            {
                "address": "0xa0b86991c6218b36c1d19d4a2e9eb0ce3606eb48",
                "label": "Circle: USDC Token"
            },
            {
                "address": "0x0000000000000000000000000000000000000001",
                "label": "Precompiled"
            },
            {
                "address": "0x0000000000000000000000000000000000000004",
                "label": "Precompiled"
            }
        ]
    },
    "trace": {
        "accountLabels": null,
        "dataMap": {
            "-1": {
                "invocation": {
                    "address": "0xfcec3a785c9d916467ff3c372835c6c8f00d5b44",
                    "callData": "",
                    "decodedMethod": null,
                    "errorInfo": "",
                    "fromAddress": "",
                    "gasUsed": 0,
                    "id": -1,
                    "methodDecoded": false,
                    "operation": "",
                    "output": "",
                    "revert": false,
                    "revertMessage": "",
                    "selector": "",
                    "status": false,
                    "value": ""
                },
                "nodeType": 0
            },
            "0": {
                "invocation": {
                    "address": "0xc36442b4a4522e871399cd717abdd847ab11fe88",
                    "callData": "0x00000000000000000000000000000000000000000000000000000000000000200000000000000000000000000000000000000000000000000000000000000002000000000000000000000000000000000000000000000000000000000000004000000000000000000000000000000000000000000000000000000000000001e0000000000000000000000000000000000000000000000000000000000000016488316456000000000000000000000000a0b86991c6218b36c1d19d4a2e9eb0ce3606eb48000000000000000000000000c02aaa39b223fe8d0a0e5c4f27ead9083c756cc20000000000000000000000000000000000000000000000000000000000000bb8000000000000000000000000000000000000000000000000000000000002f544000000000000000000000000000000000000000000000000000000000002fd780000000000000000000000000000000000000000000000000000002bb109629e000000000000000000000000000000000000000000000002a7d2e7cdc1e0dbfa0000000000000000000000000000000000000000000000000000002b791c89cd000000000000000000000000000000000000000000000002a46cbb1fedb57eb7000000000000000000000000fcec3a785c9d916467ff3c372835c6c8f00d5b44000000000000000000000000000000000000000000000000000000006093122900000000000000000000000000000000000000000000000000000000000000000000000000000000000000000000000000000000000000000000000412210e8a00000000000000000000000000000000000000000000000000000000",
                    "decodedMethod": {
                        "callParams": [
                            {
                                "name": "data",
                                "type": "bytes[]",
                                "value": [
                                    "0x88316456000000000000000000000000a0b86991c6218b36c1d19d4a2e9eb0ce3606eb48000000000000000000000000c02aaa39b223fe8d0a0e5c4f27ead9083c756cc20000000000000000000000000000000000000000000000000000000000000bb8000000000000000000000000000000000000000000000000000000000002f544000000000000000000000000000000000000000000000000000000000002fd780000000000000000000000000000000000000000000000000000002bb109629e000000000000000000000000000000000000000000000002a7d2e7cdc1e0dbfa0000000000000000000000000000000000000000000000000000002b791c89cd000000000000000000000000000000000000000000000002a46cbb1fedb57eb7000000000000000000000000fcec3a785c9d916467ff3c372835c6c8f00d5b440000000000000000000000000000000000000000000000000000000060931229",
                                    "0x12210e8a"
                                ]
                            }
                        ],
                        "constructorArguments": "",
                        "name": "multicall",
                        "returnParams": [
                            {
                                "name": "results",
                                "type": "bytes[]",
                                "value": [
                                    "0x000000000000000000000000000000000000000000000000000000000000039800000000000000000000000000000000000000000000000000d2db0ae125950f0000000000000000000000000000000000000000000000000000002bb109629e000000000000000000000000000000000000000000000002a7696096105d17c3",
                                    "0x"
                                ]
                            }
                        ],
                        "signature": "multicall(bytes[])"
                    },
                    "errorInfo": "",
                    "fromAddress": "0xfcec3a785c9d916467ff3c372835c6c8f00d5b44",
                    "gasUsed": 491405,
                    "id": 0,
                    "methodDecoded": true,
                    "operation": "CALL",
                    "output": "0x00000000000000000000000000000000000000000000000000000000000000200000000000000000000000000000000000000000000000000000000000000002000000000000000000000000000000000000000000000000000000000000004000000000000000000000000000000000000000000000000000000000000000e00000000000000000000000000000000000000000000000000000000000000080000000000000000000000000000000000000000000000000000000000000039800000000000000000000000000000000000000000000000000d2db0ae125950f0000000000000000000000000000000000000000000000000000002bb109629e000000000000000000000000000000000000000000000002a7696096105d17c30000000000000000000000000000000000000000000000000000000000000000",
                    "revert": false,
                    "revertMessage": "",
                    "selector": "0xac9650d8",
                    "status": true,
                    "value": "48.986470967769357306"
                },
                "nodeType": 0
            },
            "1": {
                "invocation": {
                    "address": "0xc36442b4a4522e871399cd717abdd847ab11fe88",
                    "callData": "0x000000000000000000000000a0b86991c6218b36c1d19d4a2e9eb0ce3606eb48000000000000000000000000c02aaa39b223fe8d0a0e5c4f27ead9083c756cc20000000000000000000000000000000000000000000000000000000000000bb8000000000000000000000000000000000000000000000000000000000002f544000000000000000000000000000000000000000000000000000000000002fd780000000000000000000000000000000000000000000000000000002bb109629e000000000000000000000000000000000000000000000002a7d2e7cdc1e0dbfa0000000000000000000000000000000000000000000000000000002b791c89cd000000000000000000000000000000000000000000000002a46cbb1fedb57eb7000000000000000000000000fcec3a785c9d916467ff3c372835c6c8f00d5b440000000000000000000000000000000000000000000000000000000060931229",
                    "decodedMethod": {
                        "callParams": [
                            {
                                "name": "params",
                                "type": "(address,address,uint24,int24,int24,uint256,uint256,uint256,uint256,address,uint256)",
                                "value": [
                                    {
                                        "name": "token0",
                                        "type": "address",
                                        "value": "0xa0b86991c6218b36c1d19d4a2e9eb0ce3606eb48"
                                    },
                                    {
                                        "name": "token1",
                                        "type": "address",
                                        "value": "0xc02aaa39b223fe8d0a0e5c4f27ead9083c756cc2"
                                    },
                                    {
                                        "name": "fee",
                                        "type": "uint24",
                                        "value": "3,000"
                                    },
                                    {
                                        "name": "tickLower",
                                        "type": "int24",
                                        "value": "193,860"
                                    },
                                    {
                                        "name": "tickUpper",
                                        "type": "int24",
                                        "value": "195,960"
                                    },
                                    {
                                        "name": "amount0Desired",
                                        "type": "uint256",
                                        "value": "187,653,776,030"
                                    },
                                    {
                                        "name": "amount1Desired",
                                        "type": "uint256",
                                        "value": "48,986,470,967,769,357,306"
                                    },
                                    {
                                        "name": "amount0Min",
                                        "type": "uint256",
                                        "value": "186,715,507,149"
                                    },
                                    {
                                        "name": "amount1Min",
                                        "type": "uint256",
                                        "value": "48,741,538,612,930,510,519"
                                    },
                                    {
                                        "name": "recipient",
                                        "type": "address",
                                        "value": "0xfcec3a785c9d916467ff3c372835c6c8f00d5b44"
                                    },
                                    {
                                        "name": "deadline",
                                        "type": "uint256",
                                        "value": "1,620,251,177"
                                    }
                                ]
                            }
                        ],
                        "constructorArguments": "",
                        "name": "mint",
                        "returnParams": [
                            {
                                "name": "tokenId",
                                "type": "uint256",
                                "value": "920"
                            },
                            {
                                "name": "liquidity",
                                "type": "uint128",
                                "value": "59,350,584,882,730,255"
                            },
                            {
                                "name": "amount0",
                                "type": "uint256",
                                "value": "187,653,776,030"
                            },
                            {
                                "name": "amount1",
                                "type": "uint256",
                                "value": "48,956,767,421,943,584,707"
                            }
                        ],
                        "signature": "mint((address,address,uint24,int24,int24,uint256,uint256,uint256,uint256,address,uint256))"
                    },
                    "errorInfo": "",
                    "fromAddress": "0xc36442b4a4522e871399cd717abdd847ab11fe88",
                    "gasUsed": 493552,
                    "id": 1,
                    "methodDecoded": true,
                    "operation": "DELEGATECALL",
                    "output": "0x000000000000000000000000000000000000000000000000000000000000039800000000000000000000000000000000000000000000000000d2db0ae125950f0000000000000000000000000000000000000000000000000000002bb109629e000000000000000000000000000000000000000000000002a7696096105d17c3",
                    "revert": false,
                    "revertMessage": "",
                    "selector": "0x88316456",
                    "status": true,
                    "value": "48.986470967769357306"
                },
                "nodeType": 0
            },
            "10": {
                "event": {
                    "contract": "0xa0b86991c6218b36c1d19d4a2e9eb0ce3606eb48",
                    "decodedLog": {
                        "name": "Transfer",
                        "params": [
                            {
                                "name": "from",
                                "type": "address",
                                "value": "0xfcec3a785c9d916467ff3c372835c6c8f00d5b44"
                            },
                            {
                                "name": "to",
                                "type": "address",
                                "value": "0x8ad599c3a0ff1de082011efddc58f1908eb6e6d8"
                            },
                            {
                                "decimalAvailable": true,
                                "name": "value",
                                "type": "uint256",
                                "value": "187,653,776,030"
                            }
                        ],
                        "signature": "Transfer(address,address,uint256)"
                    },
                    "id": 10,
                    "logData": "0x0000000000000000000000000000000000000000000000000000002bb109629e",
                    "logDecoded": true,
                    "operation": "EVENT",
                    "revert": false,
                    "status": true,
                    "topics": [
                        "0xddf252ad1be2c89b69c2b068fc378daa952ba7f163c4a11628f55a4df523b3ef",
                        "0x000000000000000000000000fcec3a785c9d916467ff3c372835c6c8f00d5b44",
                        "0x0000000000000000000000008ad599c3a0ff1de082011efddc58f1908eb6e6d8"
                    ]
                },
                "nodeType": 1
            },
            "11": {
                "invocation": {
                    "address": "0xc02aaa39b223fe8d0a0e5c4f27ead9083c756cc2",
                    "callData": "0x",
                    "decodedMethod": {
                        "callParams": [],
                        "constructorArguments": "",
                        "name": "deposit",
                        "returnParams": [],
                        "signature": "deposit()"
                    },
                    "errorInfo": "",
                    "fromAddress": "0xc36442b4a4522e871399cd717abdd847ab11fe88",
                    "gasUsed": 23974,
                    "id": 11,
                    "methodDecoded": true,
                    "operation": "CALL",
                    "output": "",
                    "revert": false,
                    "revertMessage": "",
                    "selector": "0xd0e30db0",
                    "status": true,
                    "value": "48.956767421943584707"
                },
                "nodeType": 0
            },
            "12": {
                "event": {
                    "contract": "0xc02aaa39b223fe8d0a0e5c4f27ead9083c756cc2",
                    "decodedLog": {
                        "name": "Deposit",
                        "params": [
                            {
                                "name": "dst",
                                "type": "address",
                                "value": "0xc36442b4a4522e871399cd717abdd847ab11fe88"
                            },
                            {
                                "name": "wad",
                                "type": "uint256",
                                "value": "48,956,767,421,943,584,707"
                            }
                        ],
                        "signature": "Deposit(address,uint256)"
                    },
                    "id": 12,
                    "logData": "0x000000000000000000000000000000000000000000000002a7696096105d17c3",
                    "logDecoded": true,
                    "operation": "EVENT",
                    "revert": false,
                    "status": true,
                    "topics": [
                        "0xe1fffcc4923d04b559f4d29a8bfc6cda04eb5b0d3c460751c2402c5c5cc9109c",
                        "0x000000000000000000000000c36442b4a4522e871399cd717abdd847ab11fe88"
                    ]
                },
                "nodeType": 1
            },
            "13": {
                "invocation": {
                    "address": "0xc02aaa39b223fe8d0a0e5c4f27ead9083c756cc2",
                    "callData": "0x0000000000000000000000008ad599c3a0ff1de082011efddc58f1908eb6e6d8000000000000000000000000000000000000000000000002a7696096105d17c3",
                    "decodedMethod": {
                        "callParams": [
                            {
                                "name": "dst",
                                "type": "address",
                                "value": "0x8ad599c3a0ff1de082011efddc58f1908eb6e6d8"
                            },
                            {
                                "decimalAvailable": true,
                                "name": "wad",
                                "type": "uint256",
                                "value": "48,956,767,421,943,584,707"
                            }
                        ],
                        "constructorArguments": "",
                        "name": "transfer",
                        "returnParams": [
                            {
                                "name": "",
                                "type": "bool",
                                "value": true
                            }
                        ],
                        "signature": "transfer(address,uint256)"
                    },
                    "errorInfo": "",
                    "fromAddress": "0xc36442b4a4522e871399cd717abdd847ab11fe88",
                    "gasUsed": 6062,
                    "id": 13,
                    "methodDecoded": true,
                    "operation": "CALL",
                    "output": "0x0000000000000000000000000000000000000000000000000000000000000001",
                    "revert": false,
                    "revertMessage": "",
                    "selector": "0xa9059cbb",
                    "status": true,
                    "value": "0"
                },
                "nodeType": 0
            },
            "14": {
                "event": {
                    "contract": "0xc02aaa39b223fe8d0a0e5c4f27ead9083c756cc2",
                    "decodedLog": {
                        "name": "Transfer",
                        "params": [
                            {
                                "name": "src",
                                "type": "address",
                                "value": "0xc36442b4a4522e871399cd717abdd847ab11fe88"
                            },
                            {
                                "name": "dst",
                                "type": "address",
                                "value": "0x8ad599c3a0ff1de082011efddc58f1908eb6e6d8"
                            },
                            {
                                "decimalAvailable": true,
                                "name": "wad",
                                "type": "uint256",
                                "value": "48,956,767,421,943,584,707"
                            }
                        ],
                        "signature": "Transfer(address,address,uint256)"
                    },
                    "id": 14,
                    "logData": "0x000000000000000000000000000000000000000000000002a7696096105d17c3",
                    "logDecoded": true,
                    "operation": "EVENT",
                    "revert": false,
                    "status": true,
                    "topics": [
                        "0xddf252ad1be2c89b69c2b068fc378daa952ba7f163c4a11628f55a4df523b3ef",
                        "0x000000000000000000000000c36442b4a4522e871399cd717abdd847ab11fe88",
                        "0x0000000000000000000000008ad599c3a0ff1de082011efddc58f1908eb6e6d8"
                    ]
                },
                "nodeType": 1
            },
            "15": {
                "invocation": {
                    "address": "0xa0b86991c6218b36c1d19d4a2e9eb0ce3606eb48",
                    "callData": "0x0000000000000000000000008ad599c3a0ff1de082011efddc58f1908eb6e6d8",
                    "decodedMethod": {
                        "callParams": [
                            {
                                "name": "account",
                                "type": "address",
                                "value": "0x8ad599c3a0ff1de082011efddc58f1908eb6e6d8"
                            }
                        ],
                        "constructorArguments": "",
                        "name": "balanceOf",
                        "returnParams": [
                            {
                                "decimalAvailable": true,
                                "name": "",
                                "type": "uint256",
                                "value": "7,626,780,282,067"
                            }
                        ],
                        "signature": "balanceOf(address)"
                    },
                    "errorInfo": "",
                    "fromAddress": "0x8ad599c3a0ff1de082011efddc58f1908eb6e6d8",
                    "gasUsed": 1315,
                    "id": 15,
                    "methodDecoded": true,
                    "operation": "STATICCALL",
                    "output": "0x000000000000000000000000000000000000000000000000000006efbf878cd3",
                    "revert": false,
                    "revertMessage": "",
                    "selector": "0x70a08231",
                    "status": true,
                    "value": "0"
                },
                "nodeType": 0
            },
            "16": {
                "invocation": {
                    "address": "0xa2327a938febf5fec13bacfb16ae10ecbc4cbdcf",
                    "callData": "0x0000000000000000000000008ad599c3a0ff1de082011efddc58f1908eb6e6d8",
                    "decodedMethod": {
                        "callParams": [
                            {
                                "name": "account",
                                "type": "address",
                                "value": "0x8ad599c3a0ff1de082011efddc58f1908eb6e6d8"
                            }
                        ],
                        "constructorArguments": "",
                        "name": "balanceOf",
                        "returnParams": [
                            {
                                "decimalAvailable": true,
                                "name": "",
                                "type": "uint256",
                                "value": "7,626,780,282,067"
                            }
                        ],
                        "signature": "balanceOf(address)"
                    },
                    "errorInfo": "",
                    "fromAddress": "0xa0b86991c6218b36c1d19d4a2e9eb0ce3606eb48",
                    "gasUsed": 529,
                    "id": 16,
                    "methodDecoded": true,
                    "operation": "DELEGATECALL",
                    "output": "0x000000000000000000000000000000000000000000000000000006efbf878cd3",
                    "revert": false,
                    "revertMessage": "",
                    "selector": "0x70a08231",
                    "status": true,
                    "value": "0"
                },
                "nodeType": 0
            },
            "17": {
                "invocation": {
                    "address": "0xc02aaa39b223fe8d0a0e5c4f27ead9083c756cc2",
                    "callData": "0x0000000000000000000000008ad599c3a0ff1de082011efddc58f1908eb6e6d8",
                    "decodedMethod": {
                        "callParams": [
                            {
                                "name": "",
                                "type": "address",
                                "value": "0x8ad599c3a0ff1de082011efddc58f1908eb6e6d8"
                            }
                        ],
                        "constructorArguments": "",
                        "name": "balanceOf",
                        "returnParams": [
                            {
                                "decimalAvailable": true,
                                "name": "",
                                "type": "uint256",
                                "value": "2,233,539,491,662,492,133,356"
                            }
                        ],
                        "signature": "balanceOf(address)"
                    },
                    "errorInfo": "",
                    "fromAddress": "0x8ad599c3a0ff1de082011efddc58f1908eb6e6d8",
                    "gasUsed": 534,
                    "id": 17,
                    "methodDecoded": true,
                    "operation": "STATICCALL",
                    "output": "0x00000000000000000000000000000000000000000000007914964dde1d64e7ec",
                    "revert": false,
                    "revertMessage": "",
                    "selector": "0x70a08231",
                    "status": true,
                    "value": "0"
                },
                "nodeType": 0
            },
            "18": {
                "event": {
                    "contract": "0x8ad599c3a0ff1de082011efddc58f1908eb6e6d8",
                    "decodedLog": {
                        "name": "Mint",
                        "params": [
                            {
                                "name": "owner",
                                "type": "address",
                                "value": "0xc36442b4a4522e871399cd717abdd847ab11fe88"
                            },
                            {
                                "name": "tickLower",
                                "type": "int24",
                                "value": "193,860"
                            },
                            {
                                "name": "tickUpper",
                                "type": "int24",
                                "value": "195,960"
                            },
                            {
                                "name": "sender",
                                "type": "address",
                                "value": "0xc36442b4a4522e871399cd717abdd847ab11fe88"
                            },
                            {
                                "name": "amount",
                                "type": "uint128",
                                "value": "59,350,584,882,730,255"
                            },
                            {
                                "name": "amount0",
                                "type": "uint256",
                                "value": "187,653,776,030"
                            },
                            {
                                "name": "amount1",
                                "type": "uint256",
                                "value": "48,956,767,421,943,584,707"
                            }
                        ],
                        "signature": "Mint(address,address,int24,int24,uint128,uint256,uint256)"
                    },
                    "id": 18,
                    "logData": "0x000000000000000000000000c36442b4a4522e871399cd717abdd847ab11fe8800000000000000000000000000000000000000000000000000d2db0ae125950f0000000000000000000000000000000000000000000000000000002bb109629e000000000000000000000000000000000000000000000002a7696096105d17c3",
                    "logDecoded": true,
                    "operation": "EVENT",
                    "revert": false,
                    "status": true,
                    "topics": [
                        "0x7a53080ba414158be7ec69b987b5fb7d07dee101fe85488f0853ae16239d0bde",
                        "0x000000000000000000000000c36442b4a4522e871399cd717abdd847ab11fe88",
                        "0x000000000000000000000000000000000000000000000000000000000002f544",
                        "0x000000000000000000000000000000000000000000000000000000000002fd78"
                    ]
                },
                "nodeType": 1
            },
            "19": {
                "event": {
                    "contract": "0xc36442b4a4522e871399cd717abdd847ab11fe88",
                    "decodedLog": {
                        "name": "Transfer",
                        "params": [
                            {
                                "name": "from",
                                "type": "address",
                                "value": "0x0000000000000000000000000000000000000000"
                            },
                            {
                                "name": "to",
                                "type": "address",
                                "value": "0xfcec3a785c9d916467ff3c372835c6c8f00d5b44"
                            },
                            {
                                "decimalAvailable": true,
                                "name": "tokenId",
                                "type": "uint256",
                                "value": "920"
                            }
                        ],
                        "signature": "Transfer(address,address,uint256)"
                    },
                    "id": 19,
                    "logData": "0x",
                    "logDecoded": true,
                    "operation": "EVENT",
                    "revert": false,
                    "status": true,
                    "topics": [
                        "0xddf252ad1be2c89b69c2b068fc378daa952ba7f163c4a11628f55a4df523b3ef",
                        "0x0000000000000000000000000000000000000000000000000000000000000000",
                        "0x000000000000000000000000fcec3a785c9d916467ff3c372835c6c8f00d5b44",
                        "0x0000000000000000000000000000000000000000000000000000000000000398"
                    ]
                },
                "nodeType": 1
            },
            "2": {
                "invocation": {
                    "address": "0x8ad599c3a0ff1de082011efddc58f1908eb6e6d8",
                    "callData": "0x",
                    "decodedMethod": {
                        "callParams": [],
                        "constructorArguments": "",
                        "name": "slot0",
                        "returnParams": [
                            {
                                "name": "sqrtPriceX96",
                                "type": "uint160",
                                "value": "1,348,527,206,124,314,241,557,151,235,692,715"
                            },
                            {
                                "name": "tick",
                                "type": "int24",
                                "value": "194,853"
                            },
                            {
                                "name": "observationIndex",
                                "type": "uint16",
                                "value": "0"
                            },
                            {
                                "name": "observationCardinality",
                                "type": "uint16",
                                "value": "1"
                            },
                            {
                                "name": "observationCardinalityNext",
                                "type": "uint16",
                                "value": "1"
                            },
                            {
                                "name": "feeProtocol",
                                "type": "uint8",
                                "value": "0"
                            },
                            {
                                "name": "unlocked",
                                "type": "bool",
                                "value": true
                            }
                        ],
                        "signature": "slot0()"
                    },
                    "errorInfo": "",
                    "fromAddress": "0xc36442b4a4522e871399cd717abdd847ab11fe88",
                    "gasUsed": 2696,
                    "id": 2,
                    "methodDecoded": true,
                    "operation": "STATICCALL",
                    "output": "0x000000000000000000000000000000000000427cce68680575001d384c83d8ab000000000000000000000000000000000000000000000000000000000002f92500000000000000000000000000000000000000000000000000000000000000000000000000000000000000000000000000000000000000000000000000000001000000000000000000000000000000000000000000000000000000000000000100000000000000000000000000000000000000000000000000000000000000000000000000000000000000000000000000000000000000000000000000000001",
                    "revert": false,
                    "revertMessage": "",
                    "selector": "0x3850c7bd",
                    "status": true,
                    "value": "0"
                },
                "nodeType": 0
            },
            "20": {
                "invocation": {
                    "address": "0x8ad599c3a0ff1de082011efddc58f1908eb6e6d8",
                    "callData": "0x153134c03b970c432037692f35be7d6f3664697a4e3bfefc64a95001669c01bc",
                    "decodedMethod": {
                        "callParams": [
                            {
                                "name": "",
                                "type": "bytes32",
                                "value": "0x153134c03b970c432037692f35be7d6f3664697a4e3bfefc64a95001669c01bc"
                            }
                        ],
                        "constructorArguments": "",
                        "name": "positions",
                        "returnParams": [
                            {
                                "name": "liquidity",
                                "type": "uint128",
                                "value": "59,350,584,882,730,255"
                            },
                            {
                                "name": "feeGrowthInside0LastX128",
                                "type": "uint256",
                                "value": "1,807,659,133,144,718,519,952,857,575,918"
                            },
                            {
                                "name": "feeGrowthInside1LastX128",
                                "type": "uint256",
                                "value": "446,320,115,031,412,454,394,626,962,083,195,845,955"
                            },
                            {
                                "name": "tokensOwed0",
                                "type": "uint128",
                                "value": "0"
                            },
                            {
                                "name": "tokensOwed1",
                                "type": "uint128",
                                "value": "0"
                            }
                        ],
                        "signature": "positions(bytes32)"
                    },
                    "errorInfo": "",
                    "fromAddress": "0xc36442b4a4522e871399cd717abdd847ab11fe88",
                    "gasUsed": 1013,
                    "id": 20,
                    "methodDecoded": true,
                    "operation": "STATICCALL",
                    "output": "0x00000000000000000000000000000000000000000000000000d2db0ae125950f0000000000000000000000000000000000000016d0dc96cb70397490f67b31ee000000000000000000000000000000014fc6209f64758759d93fe883c42efd4300000000000000000000000000000000000000000000000000000000000000000000000000000000000000000000000000000000000000000000000000000000",
                    "revert": false,
                    "revertMessage": "",
                    "selector": "0x514ea4bf",
                    "status": true,
                    "value": "0"
                },
                "nodeType": 0
            },
            "21": {
                "event": {
                    "contract": "0xc36442b4a4522e871399cd717abdd847ab11fe88",
                    "decodedLog": {
                        "name": "IncreaseLiquidity",
                        "params": [
                            {
                                "name": "tokenId",
                                "type": "uint256",
                                "value": "920"
                            },
                            {
                                "name": "liquidity",
                                "type": "uint128",
                                "value": "59,350,584,882,730,255"
                            },
                            {
                                "name": "amount0",
                                "type": "uint256",
                                "value": "187,653,776,030"
                            },
                            {
                                "name": "amount1",
                                "type": "uint256",
                                "value": "48,956,767,421,943,584,707"
                            }
                        ],
                        "signature": "IncreaseLiquidity(uint256,uint128,uint256,uint256)"
                    },
                    "id": 21,
                    "logData": "0x00000000000000000000000000000000000000000000000000d2db0ae125950f0000000000000000000000000000000000000000000000000000002bb109629e000000000000000000000000000000000000000000000002a7696096105d17c3",
                    "logDecoded": true,
                    "operation": "EVENT",
                    "revert": false,
                    "status": true,
                    "topics": [
                        "0x3067048beee31b25b2f1681f88dac838c8bba36af25bfb2b7cf7473a5847e35f",
                        "0x0000000000000000000000000000000000000000000000000000000000000398"
                    ]
                },
                "nodeType": 1
            },
            "22": {
                "invocation": {
                    "address": "0xc36442b4a4522e871399cd717abdd847ab11fe88",
                    "callData": "0x",
                    "decodedMethod": {
                        "callParams": [],
                        "constructorArguments": "",
                        "name": "refundETH",
                        "returnParams": [],
                        "signature": "refundETH()"
                    },
                    "errorInfo": "",
                    "fromAddress": "0xc36442b4a4522e871399cd717abdd847ab11fe88",
                    "gasUsed": 7458,
                    "id": 22,
                    "methodDecoded": true,
                    "operation": "DELEGATECALL",
                    "output": "",
                    "revert": false,
                    "revertMessage": "",
                    "selector": "0x12210e8a",
                    "status": true,
                    "value": "48.986470967769357306"
                },
                "nodeType": 0
            },
            "23": {
                "invocation": {
                    "address": "0xfcec3a785c9d916467ff3c372835c6c8f00d5b44",
                    "callData": "0x",
                    "decodedMethod": null,
                    "errorInfo": "",
                    "fromAddress": "0xc36442b4a4522e871399cd717abdd847ab11fe88",
                    "gasUsed": 0,
                    "id": 23,
                    "methodDecoded": false,
                    "operation": "CALL",
                    "output": "",
                    "revert": false,
                    "revertMessage": "",
                    "selector": "fallback",
                    "status": true,
                    "value": "0.029703545825772599"
                },
                "nodeType": 0
            },
            "3": {
                "invocation": {
                    "address": "0x8ad599c3a0ff1de082011efddc58f1908eb6e6d8",
                    "callData": "0x000000000000000000000000c36442b4a4522e871399cd717abdd847ab11fe88000000000000000000000000000000000000000000000000000000000002f544000000000000000000000000000000000000000000000000000000000002fd7800000000000000000000000000000000000000000000000000d2db0ae125950f00000000000000000000000000000000000000000000000000000000000000a00000000000000000000000000000000000000000000000000000000000000080000000000000000000000000a0b86991c6218b36c1d19d4a2e9eb0ce3606eb48000000000000000000000000c02aaa39b223fe8d0a0e5c4f27ead9083c756cc20000000000000000000000000000000000000000000000000000000000000bb8000000000000000000000000fcec3a785c9d916467ff3c372835c6c8f00d5b44",
                    "decodedMethod": {
                        "callParams": [
                            {
                                "name": "recipient",
                                "type": "address",
                                "value": "0xc36442b4a4522e871399cd717abdd847ab11fe88"
                            },
                            {
                                "name": "tickLower",
                                "type": "int24",
                                "value": "193,860"
                            },
                            {
                                "name": "tickUpper",
                                "type": "int24",
                                "value": "195,960"
                            },
                            {
                                "name": "amount",
                                "type": "uint128",
                                "value": "59,350,584,882,730,255"
                            },
                            {
                                "name": "data",
                                "type": "bytes",
                                "value": "0x000000000000000000000000a0b86991c6218b36c1d19d4a2e9eb0ce3606eb48000000000000000000000000c02aaa39b223fe8d0a0e5c4f27ead9083c756cc20000000000000000000000000000000000000000000000000000000000000bb8000000000000000000000000fcec3a785c9d916467ff3c372835c6c8f00d5b44"
                            }
                        ],
                        "constructorArguments": "",
                        "name": "mint",
                        "returnParams": [
                            {
                                "name": "amount0",
                                "type": "uint256",
                                "value": "187,653,776,030"
                            },
                            {
                                "name": "amount1",
                                "type": "uint256",
                                "value": "48,956,767,421,943,584,707"
                            }
                        ],
                        "signature": "mint(address,int24,int24,uint128,bytes)"
                    },
                    "errorInfo": "",
                    "fromAddress": "0xc36442b4a4522e871399cd717abdd847ab11fe88",
                    "gasUsed": 252569,
                    "id": 3,
                    "methodDecoded": true,
                    "operation": "CALL",
                    "output": "0x0000000000000000000000000000000000000000000000000000002bb109629e000000000000000000000000000000000000000000000002a7696096105d17c3",
                    "revert": false,
                    "revertMessage": "",
                    "selector": "0x3c8a7d8d",
                    "status": true,
                    "value": "0"
                },
                "nodeType": 0
            },
            "4": {
                "invocation": {
                    "address": "0xa0b86991c6218b36c1d19d4a2e9eb0ce3606eb48",
                    "callData": "0x0000000000000000000000008ad599c3a0ff1de082011efddc58f1908eb6e6d8",
                    "decodedMethod": {
                        "callParams": [
                            {
                                "name": "account",
                                "type": "address",
                                "value": "0x8ad599c3a0ff1de082011efddc58f1908eb6e6d8"
                            }
                        ],
                        "constructorArguments": "",
                        "name": "balanceOf",
                        "returnParams": [
                            {
                                "decimalAvailable": true,
                                "name": "",
                                "type": "uint256",
                                "value": "7,439,126,506,037"
                            }
                        ],
                        "signature": "balanceOf(address)"
                    },
                    "errorInfo": "",
                    "fromAddress": "0x8ad599c3a0ff1de082011efddc58f1908eb6e6d8",
                    "gasUsed": 9815,
                    "id": 4,
                    "methodDecoded": true,
                    "operation": "STATICCALL",
                    "output": "0x000000000000000000000000000000000000000000000000000006c40e7e2a35",
                    "revert": false,
                    "revertMessage": "",
                    "selector": "0x70a08231",
                    "status": true,
                    "value": "0"
                },
                "nodeType": 0
            },
            "5": {
                "invocation": {
                    "address": "0xa2327a938febf5fec13bacfb16ae10ecbc4cbdcf",
                    "callData": "0x0000000000000000000000008ad599c3a0ff1de082011efddc58f1908eb6e6d8",
                    "decodedMethod": {
                        "callParams": [
                            {
                                "name": "account",
                                "type": "address",
                                "value": "0x8ad599c3a0ff1de082011efddc58f1908eb6e6d8"
                            }
                        ],
                        "constructorArguments": "",
                        "name": "balanceOf",
                        "returnParams": [
                            {
                                "decimalAvailable": true,
                                "name": "",
                                "type": "uint256",
                                "value": "7,439,126,506,037"
                            }
                        ],
                        "signature": "balanceOf(address)"
                    },
                    "errorInfo": "",
                    "fromAddress": "0xa0b86991c6218b36c1d19d4a2e9eb0ce3606eb48",
                    "gasUsed": 2529,
                    "id": 5,
                    "methodDecoded": true,
                    "operation": "DELEGATECALL",
                    "output": "0x000000000000000000000000000000000000000000000000000006c40e7e2a35",
                    "revert": false,
                    "revertMessage": "",
                    "selector": "0x70a08231",
                    "status": true,
                    "value": "0"
                },
                "nodeType": 0
            },
            "6": {
                "invocation": {
                    "address": "0xc02aaa39b223fe8d0a0e5c4f27ead9083c756cc2",
                    "callData": "0x0000000000000000000000008ad599c3a0ff1de082011efddc58f1908eb6e6d8",
                    "decodedMethod": {
                        "callParams": [
                            {
                                "name": "",
                                "type": "address",
                                "value": "0x8ad599c3a0ff1de082011efddc58f1908eb6e6d8"
                            }
                        ],
                        "constructorArguments": "",
                        "name": "balanceOf",
                        "returnParams": [
                            {
                                "decimalAvailable": true,
                                "name": "",
                                "type": "uint256",
                                "value": "2,184,582,724,240,548,548,649"
                            }
                        ],
                        "signature": "balanceOf(address)"
                    },
                    "errorInfo": "",
                    "fromAddress": "0x8ad599c3a0ff1de082011efddc58f1908eb6e6d8",
                    "gasUsed": 2534,
                    "id": 6,
                    "methodDecoded": true,
                    "operation": "STATICCALL",
                    "output": "0x0000000000000000000000000000000000000000000000766d2ced480d07d029",
                    "revert": false,
                    "revertMessage": "",
                    "selector": "0x70a08231",
                    "status": true,
                    "value": "0"
                },
                "nodeType": 0
            },
            "7": {
                "invocation": {
                    "address": "0xc36442b4a4522e871399cd717abdd847ab11fe88",
                    "callData": "0x0000000000000000000000000000000000000000000000000000002bb109629e000000000000000000000000000000000000000000000002a7696096105d17c300000000000000000000000000000000000000000000000000000000000000600000000000000000000000000000000000000000000000000000000000000080000000000000000000000000a0b86991c6218b36c1d19d4a2e9eb0ce3606eb48000000000000000000000000c02aaa39b223fe8d0a0e5c4f27ead9083c756cc20000000000000000000000000000000000000000000000000000000000000bb8000000000000000000000000fcec3a785c9d916467ff3c372835c6c8f00d5b44",
                    "decodedMethod": {
                        "callParams": [
                            {
                                "name": "amount0Owed",
                                "type": "uint256",
                                "value": "187,653,776,030"
                            },
                            {
                                "name": "amount1Owed",
                                "type": "uint256",
                                "value": "48,956,767,421,943,584,707"
                            },
                            {
                                "name": "data",
                                "type": "bytes",
                                "value": "0x000000000000000000000000a0b86991c6218b36c1d19d4a2e9eb0ce3606eb48000000000000000000000000c02aaa39b223fe8d0a0e5c4f27ead9083c756cc20000000000000000000000000000000000000000000000000000000000000bb8000000000000000000000000fcec3a785c9d916467ff3c372835c6c8f00d5b44"
                            }
                        ],
                        "constructorArguments": "",
                        "name": "uniswapV3MintCallback",
                        "returnParams": [],
                        "signature": "uniswapV3MintCallback(uint256,uint256,bytes)"
                    },
                    "errorInfo": "",
                    "fromAddress": "0x8ad599c3a0ff1de082011efddc58f1908eb6e6d8",
                    "gasUsed": 67291,
                    "id": 7,
                    "methodDecoded": true,
                    "operation": "CALL",
                    "output": "",
                    "revert": false,
                    "revertMessage": "",
                    "selector": "0xd3487997",
                    "status": true,
                    "value": "0"
                },
                "nodeType": 0
            },
            "8": {
                "invocation": {
                    "address": "0xa0b86991c6218b36c1d19d4a2e9eb0ce3606eb48",
                    "callData": "0x000000000000000000000000fcec3a785c9d916467ff3c372835c6c8f00d5b440000000000000000000000008ad599c3a0ff1de082011efddc58f1908eb6e6d80000000000000000000000000000000000000000000000000000002bb109629e",
                    "decodedMethod": {
                        "callParams": [
                            {
                                "name": "from",
                                "type": "address",
                                "value": "0xfcec3a785c9d916467ff3c372835c6c8f00d5b44"
                            },
                            {
                                "name": "to",
                                "type": "address",
                                "value": "0x8ad599c3a0ff1de082011efddc58f1908eb6e6d8"
                            },
                            {
                                "decimalAvailable": true,
                                "name": "value",
                                "type": "uint256",
                                "value": "187,653,776,030"
                            }
                        ],
                        "constructorArguments": "",
                        "name": "transferFrom",
                        "returnParams": [
                            {
                                "name": "",
                                "type": "bool",
                                "value": true
                            }
                        ],
                        "signature": "transferFrom(address,address,uint256)"
                    },
                    "errorInfo": "",
                    "fromAddress": "0xc36442b4a4522e871399cd717abdd847ab11fe88",
                    "gasUsed": 26392,
                    "id": 8,
                    "methodDecoded": true,
                    "operation": "CALL",
                    "output": "0x0000000000000000000000000000000000000000000000000000000000000001",
                    "revert": false,
                    "revertMessage": "",
                    "selector": "0x23b872dd",
                    "status": true,
                    "value": "0"
                },
                "nodeType": 0
            },
            "9": {
                "invocation": {
                    "address": "0xa2327a938febf5fec13bacfb16ae10ecbc4cbdcf",
                    "callData": "0x000000000000000000000000fcec3a785c9d916467ff3c372835c6c8f00d5b440000000000000000000000008ad599c3a0ff1de082011efddc58f1908eb6e6d80000000000000000000000000000000000000000000000000000002bb109629e",
                    "decodedMethod": {
                        "callParams": [
                            {
                                "name": "from",
                                "type": "address",
                                "value": "0xfcec3a785c9d916467ff3c372835c6c8f00d5b44"
                            },
                            {
                                "name": "to",
                                "type": "address",
                                "value": "0x8ad599c3a0ff1de082011efddc58f1908eb6e6d8"
                            },
                            {
                                "decimalAvailable": true,
                                "name": "value",
                                "type": "uint256",
                                "value": "187,653,776,030"
                            }
                        ],
                        "constructorArguments": "",
                        "name": "transferFrom",
                        "returnParams": [
                            {
                                "name": "",
                                "type": "bool",
                                "value": true
                            }
                        ],
                        "signature": "transferFrom(address,address,uint256)"
                    },
                    "errorInfo": "",
                    "fromAddress": "0xa0b86991c6218b36c1d19d4a2e9eb0ce3606eb48",
                    "gasUsed": 25597,
                    "id": 9,
                    "methodDecoded": true,
                    "operation": "DELEGATECALL",
                    "output": "0x0000000000000000000000000000000000000000000000000000000000000001",
                    "revert": false,
                    "revertMessage": "",
                    "selector": "0x23b872dd",
                    "status": true,
                    "value": "0"
                },
                "nodeType": 0
            }
        },
        "gasFlame": [
            {
                "children": [
                    {
                        "children": [
                            {
                                "children": [],
                                "depth": 0,
                                "name": "Initial Gas",
                                "value": 24888
                            },
                            {
                                "children": [
                                    {
                                        "children": [
                                            {
                                                "children": [],
                                                "depth": 2,
                                                "name": "slot0",
                                                "value": 2696
                                            },
                                            {
                                                "children": [
                                                    {
                                                        "children": [
                                                            {
                                                                "children": [],
                                                                "depth": 4,
                                                                "name": "balanceOf",
                                                                "value": 2529
                                                            }
                                                        ],
                                                        "depth": 3,
                                                        "name": "balanceOf",
                                                        "value": 9815
                                                    },
                                                    {
                                                        "children": [],
                                                        "depth": 3,
                                                        "name": "balanceOf",
                                                        "value": 2534
                                                    },
                                                    {
                                                        "children": [
                                                            {
                                                                "children": [
                                                                    {
                                                                        "children": [],
                                                                        "depth": 5,
                                                                        "name": "transferFrom",
                                                                        "value": 25597
                                                                    }
                                                                ],
                                                                "depth": 4,
                                                                "name": "transferFrom",
                                                                "value": 26392
                                                            },
                                                            {
                                                                "children": [],
                                                                "depth": 4,
                                                                "name": "deposit",
                                                                "value": 23974
                                                            },
                                                            {
                                                                "children": [],
                                                                "depth": 4,
                                                                "name": "transfer",
                                                                "value": 6062
                                                            }
                                                        ],
                                                        "depth": 3,
                                                        "name": "uniswapV3MintCallback",
                                                        "value": 67291
                                                    },
                                                    {
                                                        "children": [
                                                            {
                                                                "children": [],
                                                                "depth": 4,
                                                                "name": "balanceOf",
                                                                "value": 529
                                                            }
                                                        ],
                                                        "depth": 3,
                                                        "name": "balanceOf",
                                                        "value": 1315
                                                    },
                                                    {
                                                        "children": [],
                                                        "depth": 3,
                                                        "name": "balanceOf",
                                                        "value": 534
                                                    }
                                                ],
                                                "depth": 2,
                                                "name": "mint",
                                                "value": 252569
                                            },
                                            {
                                                "children": [],
                                                "depth": 2,
                                                "name": "positions",
                                                "value": 1013
                                            }
                                        ],
                                        "depth": 1,
                                        "name": "mint",
                                        "value": 493552
                                    },
                                    {
                                        "children": [
                                            {
                                                "children": [],
                                                "depth": 2,
                                                "name": "fallback",
                                                "value": 0
                                            }
                                        ],
                                        "depth": 1,
                                        "name": "refundETH",
                                        "value": 7458
                                    }
                                ],
                                "depth": 0,
                                "name": "Executed Gas",
                                "value": 504217
                            }
                        ],
                        "depth": -1,
                        "name": "Actual Gas Used",
                        "value": 491405
                    },
                    {
                        "children": [],
                        "depth": -1,
                        "name": "Refunded Gas",
                        "value": 37700
                    }
                ],
                "depth": -2,
                "name": "Total Gas",
                "value": 529105
            }
        ],
        "isConfirmed": true,
        "mainTrace": [
            {
                "children": [
                    {
                        "children": [
                            {
                                "children": [
                                    {
                                        "children": [],
                                        "depth": 2,
                                        "id": 2,
                                        "order": 2
                                    },
                                    {
                                        "children": [
                                            {
                                                "children": [
                                                    {
                                                        "children": [],
                                                        "depth": 4,
                                                        "id": 5,
                                                        "order": 5
                                                    }
                                                ],
                                                "depth": 3,
                                                "id": 4,
                                                "order": 4
                                            },
                                            {
                                                "children": [],
                                                "depth": 3,
                                                "id": 6,
                                                "order": 6
                                            },
                                            {
                                                "children": [
                                                    {
                                                        "children": [
                                                            {
                                                                "children": [
                                                                    {
                                                                        "children": [],
                                                                        "depth": 6,
                                                                        "id": 10,
                                                                        "order": 10
                                                                    }
                                                                ],
                                                                "depth": 5,
                                                                "id": 9,
                                                                "order": 9
                                                            }
                                                        ],
                                                        "depth": 4,
                                                        "id": 8,
                                                        "order": 8
                                                    },
                                                    {
                                                        "children": [
                                                            {
                                                                "children": [],
                                                                "depth": 5,
                                                                "id": 12,
                                                                "order": 12
                                                            }
                                                        ],
                                                        "depth": 4,
                                                        "id": 11,
                                                        "order": 11
                                                    },
                                                    {
                                                        "children": [
                                                            {
                                                                "children": [],
                                                                "depth": 5,
                                                                "id": 14,
                                                                "order": 14
                                                            }
                                                        ],
                                                        "depth": 4,
                                                        "id": 13,
                                                        "order": 13
                                                    }
                                                ],
                                                "depth": 3,
                                                "id": 7,
                                                "order": 7
                                            },
                                            {
                                                "children": [
                                                    {
                                                        "children": [],
                                                        "depth": 4,
                                                        "id": 16,
                                                        "order": 16
                                                    }
                                                ],
                                                "depth": 3,
                                                "id": 15,
                                                "order": 15
                                            },
                                            {
                                                "children": [],
                                                "depth": 3,
                                                "id": 17,
                                                "order": 17
                                            },
                                            {
                                                "children": [],
                                                "depth": 3,
                                                "id": 18,
                                                "order": 18
                                            }
                                        ],
                                        "depth": 2,
                                        "id": 3,
                                        "order": 3
                                    },
                                    {
                                        "children": [],
                                        "depth": 2,
                                        "id": 19,
                                        "order": 19
                                    },
                                    {
                                        "children": [],
                                        "depth": 2,
                                        "id": 20,
                                        "order": 20
                                    },
                                    {
                                        "children": [],
                                        "depth": 2,
                                        "id": 21,
                                        "order": 21
                                    }
                                ],
                                "depth": 1,
                                "id": 1,
                                "order": 1
                            },
                            {
                                "children": [
                                    {
                                        "children": [],
                                        "depth": 2,
                                        "id": 23,
                                        "order": 23
                                    }
                                ],
                                "depth": 1,
                                "id": 22,
                                "order": 22
                            }
                        ],
                        "depth": 0,
                        "id": 0,
                        "order": 0
                    }
                ],
                "depth": -1,
                "id": -1,
                "order": -1
            }
        ],
        "mainTraceNodeCount": 24,
        "parentIdMap": {
            "0": -1,
            "1": 0,
            "10": 9,
            "11": 7,
            "12": 11,
            "13": 7,
            "14": 13,
            "15": 3,
            "16": 15,
            "17": 3,
            "18": 3,
            "19": 1,
            "2": 1,
            "20": 1,
            "21": 1,
            "22": 0,
            "23": 22,
            "3": 1,
            "4": 3,
            "5": 4,
            "6": 3,
            "7": 3,
            "8": 7,
            "9": 8
        },
        "tidyTrace": [
            {
                "children": [
                    {
                        "children": [
                            {
                                "children": [
                                    {
                                        "children": [
                                            {
                                                "children": [
                                                    {
                                                        "children": [
                                                            {
                                                                "children": [
                                                                    {
                                                                        "children": [],
                                                                        "depth": 6,
                                                                        "id": 10,
                                                                        "order": 10
                                                                    }
                                                                ],
                                                                "depth": 5,
                                                                "id": 9,
                                                                "order": 9
                                                            }
                                                        ],
                                                        "depth": 4,
                                                        "id": 8,
                                                        "order": 8
                                                    },
                                                    {
                                                        "children": [
                                                            {
                                                                "children": [],
                                                                "depth": 5,
                                                                "id": 12,
                                                                "order": 12
                                                            }
                                                        ],
                                                        "depth": 4,
                                                        "id": 11,
                                                        "order": 11
                                                    },
                                                    {
                                                        "children": [
                                                            {
                                                                "children": [],
                                                                "depth": 5,
                                                                "id": 14,
                                                                "order": 14
                                                            }
                                                        ],
                                                        "depth": 4,
                                                        "id": 13,
                                                        "order": 13
                                                    }
                                                ],
                                                "depth": 3,
                                                "id": 7,
                                                "order": 7
                                            },
                                            {
                                                "children": [],
                                                "depth": 3,
                                                "id": 18,
                                                "order": 18
                                            }
                                        ],
                                        "depth": 2,
                                        "id": 3,
                                        "order": 3
                                    },
                                    {
                                        "children": [],
                                        "depth": 2,
                                        "id": 19,
                                        "order": 19
                                    },
                                    {
                                        "children": [],
                                        "depth": 2,
                                        "id": 21,
                                        "order": 21
                                    }
                                ],
                                "depth": 1,
                                "id": 1,
                                "order": 1
                            },
                            {
                                "children": [
                                    {
                                        "children": [],
                                        "depth": 2,
                                        "id": 23,
                                        "order": 23
                                    }
                                ],
                                "depth": 1,
                                "id": 22,
                                "order": 22
                            }
                        ],
                        "depth": 0,
                        "id": 0,
                        "order": 0
                    }
                ],
                "depth": -1,
                "id": -1,
                "order": -1
            }
        ],
        "tidyTraceNodeCount": 16
    },
    "state_change": {
        "stateChanges": [
            {
                "address": "0x8ad599c3a0ff1de082011efddc58f1908eb6e6d8",
                "erc": "",
                "slots": [
                    {
                        "current": "0xffffffffffffffffff2d24f51eda6af1000000000000000000d2db0ae125950f",
                        "key": "0xa4b3d43d60adfb45c08335be120fa1d9ed06847c647e24bd9b30c34bb8944b2c",
                        "prev": "0x0000000000000000000000000000000000000000000000000000000000000000"
                    },
                    {
                        "current": "0x100000208224a2ce71bfee8590fc280800040004000a00100200000802000000",
                        "key": "0x0b94fa1b86997cc1f1148bfbe25b674e8cefc7cc6f976aa8d7c7966bd4cca347",
                        "prev": "0x100000208224a2ca71bfee8590fc280800040004000a00100200000802000000"
                    },
                    {
                        "current": "0x00000000000000000000000000000000000000000000000000d2db0ae125950f",
                        "key": "0x467223e5f61eb617f9f3201ae7346bc38856b0e05586797eb5765e12edf82f9c",
                        "prev": "0x0000000000000000000000000000000000000000000000000000000000000000"
                    },
                    {
                        "current": "0x000000000000000000000000000000014fc6209f64758759d93fe883c42efd43",
                        "key": "0x467223e5f61eb617f9f3201ae7346bc38856b0e05586797eb5765e12edf82f9e",
                        "prev": "0x0000000000000000000000000000000000000000000000000000000000000000"
                    },
                    {
                        "current": "0x000000000000000000e232b9562be724000000000000000000e232b9562be724",
                        "key": "0xc223be042ad12d24b3d38de87579bfb7c3485dbb3bb057c5283915685f95ba5a",
                        "prev": "0x0000000000000000000f57ae750652150000000000000000000f57ae75065215"
                    },
                    {
                        "current": "0x0100000000000000000000000000000000000000000000000000000000000000",
                        "key": "0xa4b3d43d60adfb45c08335be120fa1d9ed06847c647e24bd9b30c34bb8944b2f",
                        "prev": "0x0000000000000000000000000000000000000000000000000000000000000000"
                    },
                    {
                        "current": "0x0000000000000000000000000000000000000016d0dc96cb70397490f67b31ee",
                        "key": "0x467223e5f61eb617f9f3201ae7346bc38856b0e05586797eb5765e12edf82f9d",
                        "prev": "0x0000000000000000000000000000000000000000000000000000000000000000"
                    },
                    {
                        "current": "0x000000000000000000000000000000000000000000000000078d796945c8dea4",
                        "key": "0x0000000000000000000000000000000000000000000000000000000000000004",
                        "prev": "0x00000000000000000000000000000000000000000000000006ba9e5e64a34995"
                    }
                ],
                "storageVariables": [
                    {
                        "name": "ticks",
                        "type": "mapping(int24 => struct Tick.Info)",
                        "value": {
                            "pairs": [
                                {
                                    "key": "193860",
                                    "value": {
                                        "fields": [
                                            {
                                                "name": "liquidityGross",
                                                "type": "uint128",
                                                "value": {
                                                    "current": "63669116332664612",
                                                    "prev": "4318531449934357",
                                                    "typeTag": 1
                                                }
                                            },
                                            {
                                                "name": "liquidityNet",
                                                "type": "int128",
                                                "value": {
                                                    "current": "63669116332664612",
                                                    "prev": "4318531449934357",
                                                    "typeTag": 1
                                                }
                                            }
                                        ],
                                        "typeTag": 3
                                    }
                                },
                                {
                                    "key": "195960",
                                    "value": {
                                        "fields": [
                                            {
                                                "name": "liquidityGross",
                                                "type": "uint128",
                                                "value": {
                                                    "current": "59350584882730255",
                                                    "prev": "0",
                                                    "typeTag": 1
                                                }
                                            },
                                            {
                                                "name": "liquidityNet",
                                                "type": "int128",
                                                "value": {
                                                    "current": "-59350584882730255",
                                                    "prev": "0",
                                                    "typeTag": 1
                                                }
                                            },
                                            {
                                                "name": "tickCumulativeOutside",
                                                "type": "int56",
                                                "value": {
                                                    "current": "0",
                                                    "prev": "0",
                                                    "typeTag": 1
                                                }
                                            },
                                            {
                                                "name": "secondsPerLiquidityOutsideX128",
                                                "type": "uint160",
                                                "value": {
                                                    "current": "0",
                                                    "prev": "0",
                                                    "typeTag": 1
                                                }
                                            },
                                            {
                                                "name": "secondsOutside",
                                                "type": "uint32",
                                                "value": {
                                                    "current": "0",
                                                    "prev": "0",
                                                    "typeTag": 1
                                                }
                                            },
                                            {
                                                "name": "initialized",
                                                "type": "bool",
                                                "value": {
                                                    "current": "true",
                                                    "prev": "false",
                                                    "typeTag": 1
                                                }
                                            }
                                        ],
                                        "typeTag": 3
                                    }
                                }
                            ],
                            "typeTag": 4
                        }
                    },
                    {
                        "name": "tickBitmap",
                        "type": "mapping(int16 => uint256)",
                        "value": {
                            "pairs": [
                                {
                                    "key": "12",
                                    "value": {
                                        "current": "7237006453756224640557247908560899107433320614840162592407964877216779599872",
                                        "prev": "7237006453756224615448840967014176052090162922009496927998543099360641548288",
                                        "typeTag": 1
                                    }
                                }
                            ],
                            "typeTag": 4
                        }
                    },
                    {
                        "name": "positions",
                        "type": "mapping(bytes32 => struct Position.Info)",
                        "value": {
                            "pairs": [
                                {
                                    "key": "0x153134c03b970c432037692f35be7d6f3664697a4e3bfefc64a95001669c01bc",
                                    "value": {
                                        "fields": [
                                            {
                                                "name": "liquidity",
                                                "type": "uint128",
                                                "value": {
                                                    "current": "59350584882730255",
                                                    "prev": "0",
                                                    "typeTag": 1
                                                }
                                            },
                                            {
                                                "name": "feeGrowthInside0LastX128",
                                                "type": "uint256",
                                                "value": {
                                                    "current": "1807659133144718519952857575918",
                                                    "prev": "0",
                                                    "typeTag": 1
                                                }
                                            },
                                            {
                                                "name": "feeGrowthInside1LastX128",
                                                "type": "uint256",
                                                "value": {
                                                    "current": "446320115031412454394626962083195845955",
                                                    "prev": "0",
                                                    "typeTag": 1
                                                }
                                            }
                                        ],
                                        "typeTag": 3
                                    }
                                }
                            ],
                            "typeTag": 4
                        }
                    },
                    {
                        "name": "liquidity",
                        "type": "uint128",
                        "value": {
                            "current": "544224623031017124",
                            "prev": "484874038148286869",
                            "typeTag": 1
                        }
                    }
                ]
            },
            {
                "address": "0xa0b86991c6218b36c1d19d4a2e9eb0ce3606eb48",
                "erc": "ERC-20",
                "slots": [
                    {
                        "current": "0x0000000000000000000000000000000000000000000000000000000000000000",
                        "key": "0x421d6ff624fea250bb93ba203dbfdf19bdcbc5888371500620f3d9404de4a587",
                        "prev": "0x0000000000000000000000000000000000000000000000000000002bb109629e"
                    },
                    {
                        "current": "0x000000000000000000000000000000000000000000000000000006efbf878cd3",
                        "key": "0xb95dd07fa1ed783744109930e951789ad0898d42d588ae87377539fa5fd5e26c",
                        "prev": "0x000000000000000000000000000000000000000000000000000006c40e7e2a35"
                    },
                    {
                        "current": "0xffffffffffffffffffffffffffffffffffffffffffffffffffffffd44ef69d61",
                        "key": "0x22d35b9058c574d713c7f37a420bd36b4891ec8c0f9eecbc243501f0b5771eb4",
                        "prev": "0xffffffffffffffffffffffffffffffffffffffffffffffffffffffffffffffff"
                    }
                ],
                "storageVariables": [
                    {
                        "name": "balances",
                        "type": "mapping(address => uint256)",
                        "value": {
                            "pairs": [
                                {
                                    "key": "0x8ad599c3a0ff1de082011efddc58f1908eb6e6d8",
                                    "value": {
                                        "current": "7626780282067",
                                        "prev": "7439126506037",
                                        "typeTag": 1
                                    }
                                },
                                {
                                    "key": "0xfcec3a785c9d916467ff3c372835c6c8f00d5b44",
                                    "value": {
                                        "current": "0",
                                        "prev": "187653776030",
                                        "typeTag": 1
                                    }
                                }
                            ],
                            "typeTag": 4
                        }
                    },
                    {
                        "name": "allowed",
                        "type": "mapping(address => mapping(address => uint256))",
                        "value": {
                            "pairs": [
                                {
                                    "key": "0xfcec3a785c9d916467ff3c372835c6c8f00d5b44",
                                    "value": {
                                        "pairs": [
                                            {
                                                "key": "0xc36442b4a4522e871399cd717abdd847ab11fe88",
                                                "value": {
                                                    "current": "115792089237316195423570985008687907853269984665640564039457584007725475863905",
                                                    "prev": "115792089237316195423570985008687907853269984665640564039457584007913129639935",
                                                    "typeTag": 1
                                                }
                                            }
                                        ],
                                        "typeTag": 4
                                    }
                                }
                            ],
                            "typeTag": 4
                        }
                    }
                ]
            },
            {
                "address": "0xc02aaa39b223fe8d0a0e5c4f27ead9083c756cc2",
                "erc": "ERC-20",
                "slots": [
                    {
                        "current": "0x00000000000000000000000000000000000000000000007914964dde1d64e7ec",
                        "key": "0xfc581e2e1d759407b26acc35e3d0231aeae791f35404c37eeed17c8cdf81bcfd",
                        "prev": "0x0000000000000000000000000000000000000000000000766d2ced480d07d029"
                    }
                ],
                "storageVariables": [
                    {
                        "name": "balanceOf",
                        "type": "mapping(address => uint256)",
                        "value": {
                            "pairs": [
                                {
                                    "key": "0x8ad599c3a0ff1de082011efddc58f1908eb6e6d8",
                                    "value": {
                                        "current": "2233539491662492133356",
                                        "prev": "2184582724240548548649",
                                        "typeTag": 1
                                    }
                                }
                            ],
                            "typeTag": 4
                        }
                    }
                ]
            },
            {
                "address": "0xc36442b4a4522e871399cd717abdd847ab11fe88",
                "erc": "ERC-721",
                "slots": [
                    {
                        "current": "0x0000000000000000000000000000000000000016d0dc96cb70397490f67b31ee",
                        "key": "0xdccbc0127ccadba7fbe10fcaf9dbdeb4650ec43a82f0e0c92793b0be6f297060",
                        "prev": "0x0000000000000000000000000000000000000000000000000000000000000000"
                    },
                    {
                        "current": "0x0000000000000000000000000000000000000000000000000000000000000398",
                        "key": "0x0000000000000000000000000000000000000000000000000000000000000002",
                        "prev": "0x0000000000000000000000000000000000000000000000000000000000000397"
                    },
                    {
                        "current": "0x0000000000000000000000000000000000000000000000000000000000000398",
                        "key": "0x405787fa12a823e0f2b7631cc41b3ba8828b3321ca811111fa75cd3aa3bb61fc",
                        "prev": "0x0000000000000000000000000000000000000000000000000000000000000000"
                    },
                    {
                        "current": "0x000000000000000000000000fcec3a785c9d916467ff3c372835c6c8f00d5b44",
                        "key": "0x405787fa12a823e0f2b7631cc41b3ba8828b3321ca811111fa75cd3aa3bb61fd",
                        "prev": "0x0000000000000000000000000000000000000000000000000000000000000000"
                    },
                    {
                        "current": "0x0000000000000000000000000000000000000000000000000000000000000398",
                        "key": "0x58c27fd008e2f62abb188efdcdcabf8ccef633e968a099978150482c83b66248",
                        "prev": "0x0000000000000000000000000000000000000000000000000000000000000000"
                    },
                    {
                        "current": "0x0000000000000000000000000000000000000000000000000000000000000001",
                        "key": "0x3a3d1410d98aed806681deedd47eae09efd74b70f438beb25ec5c672edf414bf",
                        "prev": "0x0000000000000000000000000000000000000000000000000000000000000000"
                    },
                    {
                        "current": "0x000000000000000000d2db0ae125950f02fd7802f54400000000000000000011",
                        "key": "0xdccbc0127ccadba7fbe10fcaf9dbdeb4650ec43a82f0e0c92793b0be6f29705f",
                        "prev": "0x0000000000000000000000000000000000000000000000000000000000000000"
                    },
                    {
                        "current": "0x0000000000000000000000000000000000000000000000000000000000000398",
                        "key": "0x39b29b22f513683e45da795aa9933385f51f69b55c0e39b0db84337ae2f4941b",
                        "prev": "0x0000000000000000000000000000000000000000000000000000000000000000"
                    },
                    {
                        "current": "0x000000000000000000ad00000000000000000000000000000000000000000399",
                        "key": "0x000000000000000000000000000000000000000000000000000000000000000d",
                        "prev": "0x000000000000000000ad00000000000000000000000000000000000000000398"
                    },
                    {
                        "current": "0x0000000000000000000000000000000000000000000000000000000000000001",
                        "key": "0xd4f2b2b0b359754de5a109db5247d53046449c0e2011e440b0e5b73a89547be0",
                        "prev": "0x0000000000000000000000000000000000000000000000000000000000000000"
                    },
                    {
                        "current": "0x000000000000000000000000000000014fc6209f64758759d93fe883c42efd43",
                        "key": "0xdccbc0127ccadba7fbe10fcaf9dbdeb4650ec43a82f0e0c92793b0be6f297061",
                        "prev": "0x0000000000000000000000000000000000000000000000000000000000000000"
                    }
                ],
                "storageVariables": [
                    {
                        "name": "_positions",
                        "type": "mapping(uint256 => struct NonfungiblePositionManager.Position)",
                        "value": {
                            "pairs": [
                                {
                                    "key": "920",
                                    "value": {
                                        "fields": [
                                            {
                                                "name": "poolId",
                                                "type": "uint80",
                                                "value": {
                                                    "current": "17",
                                                    "prev": "0",
                                                    "typeTag": 1
                                                }
                                            },
                                            {
                                                "name": "tickLower",
                                                "type": "int24",
                                                "value": {
                                                    "current": "193860",
                                                    "prev": "0",
                                                    "typeTag": 1
                                                }
                                            },
                                            {
                                                "name": "tickUpper",
                                                "type": "int24",
                                                "value": {
                                                    "current": "195960",
                                                    "prev": "0",
                                                    "typeTag": 1
                                                }
                                            },
                                            {
                                                "name": "liquidity",
                                                "type": "uint128",
                                                "value": {
                                                    "current": "59350584882730255",
                                                    "prev": "0",
                                                    "typeTag": 1
                                                }
                                            },
                                            {
                                                "name": "feeGrowthInside0LastX128",
                                                "type": "uint256",
                                                "value": {
                                                    "current": "1807659133144718519952857575918",
                                                    "prev": "0",
                                                    "typeTag": 1
                                                }
                                            },
                                            {
                                                "name": "feeGrowthInside1LastX128",
                                                "type": "uint256",
                                                "value": {
                                                    "current": "446320115031412454394626962083195845955",
                                                    "prev": "0",
                                                    "typeTag": 1
                                                }
                                            }
                                        ],
                                        "typeTag": 3
                                    }
                                }
                            ],
                            "typeTag": 4
                        }
                    },
                    {
                        "name": "_nextId",
                        "type": "uint176",
                        "value": {
                            "current": "921",
                            "prev": "920",
                            "typeTag": 1
                        }
                    },
                    {
                        "name": "_nextPoolId",
                        "type": "uint80",
                        "value": {
                            "current": "173",
                            "prev": "173",
                            "typeTag": 1
                        }
                    },
                    {
                        "name": "_holderTokens",
                        "type": "mapping(address => struct EnumerableSet.UintSet)",
                        "value": {
                            "pairs": [
                                {
                                    "key": "0xfcec3a785c9d916467ff3c372835c6c8f00d5b44",
                                    "value": {
                                        "fields": [
                                            {
                                                "name": "_inner",
                                                "type": "struct EnumerableSet.Set",
                                                "value": {
                                                    "fields": [
                                                        {
                                                            "name": "_values",
                                                            "type": "bytes32[]",
                                                            "value": {
                                                                "elemType": "bytes32",
                                                                "elems": [
                                                                    {
                                                                        "index": 0,
                                                                        "value": {
                                                                            "current": "0x0000000000000000000000000000000000000000000000000000000000000398",
                                                                            "prev": "0x0000000000000000000000000000000000000000000000000000000000000000",
                                                                            "typeTag": 1
                                                                        }
                                                                    }
                                                                ],
                                                                "typeTag": 2
                                                            }
                                                        },
                                                        {
                                                            "name": "_indexes",
                                                            "type": "mapping(bytes32 => uint256)",
                                                            "value": {
                                                                "pairs": [
                                                                    {
                                                                        "key": "0x0000000000000000000000000000000000000000000000000000000000000398",
                                                                        "value": {
                                                                            "current": "1",
                                                                            "prev": "0",
                                                                            "typeTag": 1
                                                                        }
                                                                    }
                                                                ],
                                                                "typeTag": 4
                                                            }
                                                        }
                                                    ],
                                                    "typeTag": 3
                                                }
                                            }
                                        ],
                                        "typeTag": 3
                                    }
                                }
                            ],
                            "typeTag": 4
                        }
                    },
                    {
                        "name": "_tokenOwners",
                        "type": "struct EnumerableMap.UintToAddressMap",
                        "value": {
                            "fields": [
                                {
                                    "name": "_inner",
                                    "type": "struct EnumerableMap.Map",
                                    "value": {
                                        "fields": [
                                            {
                                                "name": "_entries",
                                                "type": "struct EnumerableMap.MapEntry[]",
                                                "value": {
                                                    "elemType": "struct EnumerableMap.MapEntry",
                                                    "elems": [
                                                        {
                                                            "index": 919,
                                                            "value": {
                                                                "fields": [
                                                                    {
                                                                        "name": "_key",
                                                                        "type": "bytes32",
                                                                        "value": {
                                                                            "current": "0x0000000000000000000000000000000000000000000000000000000000000398",
                                                                            "prev": "0x0000000000000000000000000000000000000000000000000000000000000000",
                                                                            "typeTag": 1
                                                                        }
                                                                    },
                                                                    {
                                                                        "name": "_value",
                                                                        "type": "bytes32",
                                                                        "value": {
                                                                            "current": "0x000000000000000000000000fcec3a785c9d916467ff3c372835c6c8f00d5b44",
                                                                            "prev": "0x0000000000000000000000000000000000000000000000000000000000000000",
                                                                            "typeTag": 1
                                                                        }
                                                                    }
                                                                ],
                                                                "typeTag": 3
                                                            }
                                                        }
                                                    ],
                                                    "typeTag": 2
                                                }
                                            },
                                            {
                                                "name": "_indexes",
                                                "type": "mapping(bytes32 => uint256)",
                                                "value": {
                                                    "pairs": [
                                                        {
                                                            "key": "0x0000000000000000000000000000000000000000000000000000000000000398",
                                                            "value": {
                                                                "current": "920",
                                                                "prev": "0",
                                                                "typeTag": 1
                                                            }
                                                        }
                                                    ],
                                                    "typeTag": 4
                                                }
                                            }
                                        ],
                                        "typeTag": 3
                                    }
                                }
                            ],
                            "typeTag": 3
                        }
                    }
                ]
            }
        ]
    }
}