{
    "balance_change": {
        "balanceChanges": [
            {
                "account": "0xc1e2a676c2cf7c8120e927396642324b4a3c0e75",
                "assets": [
                    {
                        "address": "0xeeeeeeeeeeeeeeeeeeeeeeeeeeeeeeeeeeeeeeee",
                        "amount": "0.000000000015910411",
                        "iconUrl": "https://assets.blocksec.com/image/1663669189317-3.png",
                        "isERC1155": false,
                        "isERC721": false,
                        "sign": false,
                        "value": "0.00000002581472799855062895"
                    }
                ]
            },
            {
                "account": "0x000000000dfde7deaf24138722987c9a6991e2d4",
                "assets": [
                    {
                        "address": "0xbbc2ae13b23d715c30720f079fcd9b4a74093505",
                        "amount": "1,843.6578171091443",
                        "iconUrl": "",
                        "isERC1155": false,
                        "isERC721": false,
                        "sign": false,
                        "value": "5032.748976"
                    },
                    {
                        "address": "0xc02aaa39b223fe8d0a0e5c4f27ead9083c756cc2",
                        "amount": "3.087152695515918",
                        "iconUrl": "https://assets.blocksec.com/icon/f1cb2d02c471d545bbc7722daf3277fd852d98e63d118771af7047bd8256c516.png",
                        "isERC1155": false,
                        "isERC721": false,
                        "sign": true,
                        "value": "5008.9219654496831198"
                    },
                    {
                        "address": "0xeeeeeeeeeeeeeeeeeeeeeeeeeeeeeeeeeeeeeeee",
                        "amount": "0.000000000015910411",
                        "iconUrl": "https://assets.blocksec.com/image/1663669189317-3.png",
                        "isERC1155": false,
                        "isERC721": false,
                        "sign": true,
                        "value": "0.00000002581472799855062895"
                    }
                ]
            },
            {
                "account": "0x570febdf89c07f256c75686caca215289bb11cfc",
                "assets": [
                    {
                        "address": "0xbbc2ae13b23d715c30720f079fcd9b4a74093505",
                        "amount": "1,843.6578171091443",
                        "iconUrl": "",
                        "isERC1155": false,
                        "isERC721": false,
                        "sign": true,
                        "value": "5032.748976"
                    },
                    {
                        "address": "0xc02aaa39b223fe8d0a0e5c4f27ead9083c756cc2",
                        "amount": "3.087152695515918",
                        "iconUrl": "https://assets.blocksec.com/icon/f1cb2d02c471d545bbc7722daf3277fd852d98e63d118771af7047bd8256c516.png",
                        "isERC1155": false,
                        "isERC721": false,
                        "sign": false,
                        "value": "5008.9219654496831198"
                    }
                ]
            }
        ]
    },
    "profile": {
        "basic_info": {
            "baseFee": "8.845042591",
            "blockNumber": 15910411,
            "callData": "0xe0f6740b000000000000000000000000570febdf89c07f256c75686caca215289bb11cfc000000000000000000000000bbc2ae13b23d715c30720f079fcd9b4a74093505000000000000000000000000c02aaa39b223fe8d0a0e5c4f27ead9083c756cc2000000000000000000000000000000000000000000000063f1e4588b02a469e00000000000000000000000000000000000000000000000002ad7c505279daeb0",
            "debugEnable": true,
            "errorInfo": "",
            "eventCount": 4,
            "feeRecipient": "0xdafea492d9c6733ae3d56b7ed1adb60692c98bc5",
            "formatValue": "0.000000000015910411",
            "gasLimit": 400000,
            "gasPrice": "42.616495233",
            "gasUsed": 92330,
            "intTxnCount": 5,
            "internalRevert": false,
            "internalRevertMessage": "",
            "isContractCreation": false,
            "isFlashloan": false,
            "maxFee": "",
            "nonce": 15933,
            "overwritedBlockNumber": -1,
            "priorityFee": "",
            "receiver": "0x000000000dfde7deaf24138722987c9a6991e2d4",
            "revertMessage": "",
            "sender": "0xc1e2a676c2cf7c8120e927396642324b4a3c0e75",
            "simulationEnable": true,
            "sourceTxnHash": "0xa33acabe25d82d72b9648b85b6e96b2c35e6264c234a566df9c6a3891225e388",
            "status": true,
            "timestamp": "2022-11-06T10:34:47Z",
            "transactionFee": "0.00393478100486289",
            "txnHash": "0xa33acabe25d82d72b9648b85b6e96b2c35e6264c234a566df9c6a3891225e388",
            "txnIndex": 0,
            "type": 0,
            "value": "15910411"
        },
        "fund_flow": [
            {
                "amount": "0.000000000015910411",
                "from": "0xc1e2a676c2cf7c8120e927396642324b4a3c0e75",
                "id": 1,
                "isERC1155": false,
                "isERC721": false,
                "isReverted": false,
                "order": 1,
                "to": "0x000000000dfde7deaf24138722987c9a6991e2d4",
                "token": "0xeeeeeeeeeeeeeeeeeeeeeeeeeeeeeeeeeeeeeeee"
            },
            {
                "amount": "1,843.6578171091443",
                "from": "0x000000000dfde7deaf24138722987c9a6991e2d4",
                "id": 2,
                "isERC1155": false,
                "isERC721": false,
                "isReverted": false,
                "order": 2,
                "to": "0x570febdf89c07f256c75686caca215289bb11cfc",
                "token": "0xbbc2ae13b23d715c30720f079fcd9b4a74093505"
            },
            {
                "amount": "3.087152695515918",
                "from": "0x570febdf89c07f256c75686caca215289bb11cfc",
                "id": 3,
                "isERC1155": false,
                "isERC721": false,
                "isReverted": false,
                "order": 3,
                "to": "0x000000000dfde7deaf24138722987c9a6991e2d4",
                "token": "0xc02aaa39b223fe8d0a0e5c4f27ead9083c756cc2"
            }
        ],
        "token_infos": [
            {
                "address": "0xbbc2ae13b23d715c30720f079fcd9b4a74093505",
                "decimals": 18
            },
            {
                "address": "0xc02aaa39b223fe8d0a0e5c4f27ead9083c756cc2",
                "decimals": 18
            },
            {
                "address": "0xeeeeeeeeeeeeeeeeeeeeeeeeeeeeeeeeeeeeeeee",
                "decimals": 18
            }
        ]
    },
    "address_label": {
        "labels": [
            {
                "address": "0x000000000dfde7deaf24138722987c9a6991e2d4",
                "label": "MEV Bot: 0x000...2D4"
            },
            {
                "address": "0x570febdf89c07f256c75686caca215289bb11cfc",
                "label": "Uniswap V2: ERN 9"
            },
            {
                "address": "0x0000000000000000000000000000000000000002",
                "label": "Precompiled"
            },
            {
                "address": "0x0000000000000000000000000000000000000003",
                "label": "Precompiled"
            },
            {
                "address": "0x0000000000000000000000000000000000000004",
                "label": "Precompiled"
            },
            {
                "address": "0xeeeeeeeeeeeeeeeeeeeeeeeeeeeeeeeeeeeeeeee",
                "label": "Ether"
            },
            {
                "address": "0xc02aaa39b223fe8d0a0e5c4f27ead9083c756cc2",
                "label": "Wrapped Ether (WETH)"
            },
            {
                "address": "0xbbc2ae13b23d715c30720f079fcd9b4a74093505",
                "label": "Ethernity Chain: ERN Token"
            },
            {
                "address": "0x0000000000000000000000000000000000000001",
                "label": "Precompiled"
            }
        ]
    },
    "trace": {
        "accountLabels": null,
        "dataMap": {
            "-1": {
                "invocation": {
                    "address": "0xc1e2a676c2cf7c8120e927396642324b4a3c0e75",
                    "callData": "",
                    "decodedMethod": null,
                    "errorInfo": "",
                    "fromAddress": "",
                    "gasUsed": 0,
                    "id": -1,
                    "methodDecoded": false,
                    "operation": "",
                    "output": "",
                    "revert": false,
                    "revertMessage": "",
                    "selector": "",
                    "status": false,
                    "value": ""
                },
                "nodeType": 0
            },
            "0": {
                "invocation": {
                    "address": "0x000000000dfde7deaf24138722987c9a6991e2d4",
                    "callData": "0x000000000000000000000000570febdf89c07f256c75686caca215289bb11cfc000000000000000000000000bbc2ae13b23d715c30720f079fcd9b4a74093505000000000000000000000000c02aaa39b223fe8d0a0e5c4f27ead9083c756cc2000000000000000000000000000000000000000000000063f1e4588b02a469e00000000000000000000000000000000000000000000000002ad7c505279daeb0",
                    "decodedMethod": null,
                    "errorInfo": "",
                    "fromAddress": "0xc1e2a676c2cf7c8120e927396642324b4a3c0e75",
                    "gasUsed": 92330,
                    "id": 0,
                    "methodDecoded": false,
                    "operation": "CALL",
                    "output": "",
                    "revert": false,
                    "revertMessage": "",
                    "selector": "0xe0f6740b",
                    "status": true,
                    "value": "0.000000000015910411"
                },
                "nodeType": 0
            },
            "1": {
                "invocation": {
                    "address": "0xbbc2ae13b23d715c30720f079fcd9b4a74093505",
                    "callData": "0x000000000000000000000000570febdf89c07f256c75686caca215289bb11cfc000000000000000000000000000000000000000000000063f1e4588b02a469e0",
                    "decodedMethod": {
                        "callParams": [
                            {
                                "name": "recipient",
                                "type": "address",
                                "value": "0x570febdf89c07f256c75686caca215289bb11cfc"
                            },
                            {
                                "decimalAvailable": true,
                                "name": "amount",
                                "type": "uint256",
                                "value": "1,843,657,817,109,144,300,000"
                            }
                        ],
                        "constructorArguments": "",
                        "name": "transfer",
                        "returnParams": [
                            {
                                "name": "",
                                "type": "bool",
                                "value": true
                            }
                        ],
                        "signature": "transfer(address,uint256)"
                    },
                    "errorInfo": "",
                    "fromAddress": "0x000000000dfde7deaf24138722987c9a6991e2d4",
                    "gasUsed": 13135,
                    "id": 1,
                    "methodDecoded": true,
                    "operation": "CALL",
                    "output": "0x0000000000000000000000000000000000000000000000000000000000000001",
                    "revert": false,
                    "revertMessage": "",
                    "selector": "0xa9059cbb",
                    "status": true,
                    "value": "0"
                },
                "nodeType": 0
            },
            "2": {
                "event": {
                    "contract": "0xbbc2ae13b23d715c30720f079fcd9b4a74093505",
                    "decodedLog": {
                        "name": "Transfer",
                        "params": [
                            {
                                "name": "from",
                                "type": "address",
                                "value": "0x000000000dfde7deaf24138722987c9a6991e2d4"
                            },
                            {
                                "name": "to",
                                "type": "address",
                                "value": "0x570febdf89c07f256c75686caca215289bb11cfc"
                            },
                            {
                                "decimalAvailable": true,
                                "name": "value",
                                "type": "uint256",
                                "value": "1,843,657,817,109,144,300,000"
                            }
                        ],
                        "signature": "Transfer(address,address,uint256)"
                    },
                    "id": 2,
                    "logData": "0x000000000000000000000000000000000000000000000063f1e4588b02a469e0",
                    "logDecoded": true,
                    "operation": "EVENT",
                    "revert": false,
                    "status": true,
                    "topics": [
                        "0xddf252ad1be2c89b69c2b068fc378daa952ba7f163c4a11628f55a4df523b3ef",
                        "0x000000000000000000000000000000000dfde7deaf24138722987c9a6991e2d4",
                        "0x000000000000000000000000570febdf89c07f256c75686caca215289bb11cfc"
                    ]
                },
                "nodeType": 1
            },
            "3": {
                "invocation": {
                    "address": "0x570febdf89c07f256c75686caca215289bb11cfc",
                    "callData": "0x00000000000000000000000000000000000000000000000000000000000000000000000000000000000000000000000000000000000000002ad7c505279daeb0000000000000000000000000000000000dfde7deaf24138722987c9a6991e2d400000000000000000000000000000000000000000000000000000000000000800000000000000000000000000000000000000000000000000000000000000000",
                    "decodedMethod": {
                        "callParams": [
                            {
                                "name": "amount0Out",
                                "type": "uint256",
                                "value": "0"
                            },
                            {
                                "name": "amount1Out",
                                "type": "uint256",
                                "value": "3,087,152,695,515,918,000"
                            },
                            {
                                "name": "to",
                                "type": "address",
                                "value": "0x000000000dfde7deaf24138722987c9a6991e2d4"
                            },
                            {
                                "name": "data",
                                "type": "bytes",
                                "value": "0x"
                            }
                        ],
                        "constructorArguments": "",
                        "name": "swap",
                        "returnParams": [],
                        "signature": "swap(uint256,uint256,address,bytes)"
                    },
                    "errorInfo": "",
                    "fromAddress": "0x000000000dfde7deaf24138722987c9a6991e2d4",
                    "gasUsed": 49737,
                    "id": 3,
                    "methodDecoded": true,
                    "operation": "CALL",
                    "output": "",
                    "revert": false,
                    "revertMessage": "",
                    "selector": "0x022c0d9f",
                    "status": true,
                    "value": "0"
                },
                "nodeType": 0
            },
            "4": {
                "invocation": {
                    "address": "0xc02aaa39b223fe8d0a0e5c4f27ead9083c756cc2",
                    "callData": "0x000000000000000000000000000000000dfde7deaf24138722987c9a6991e2d40000000000000000000000000000000000000000000000002ad7c505279daeb0",
                    "decodedMethod": {
                        "callParams": [
                            {
                                "name": "dst",
                                "type": "address",
                                "value": "0x000000000dfde7deaf24138722987c9a6991e2d4"
                            },
                            {
                                "decimalAvailable": true,
                                "name": "wad",
                                "type": "uint256",
                                "value": "3,087,152,695,515,918,000"
                            }
                        ],
                        "constructorArguments": "",
                        "name": "transfer",
                        "returnParams": [
                            {
                                "name": "",
                                "type": "bool",
                                "value": true
                            }
                        ],
                        "signature": "transfer(address,uint256)"
                    },
                    "errorInfo": "",
                    "fromAddress": "0x570febdf89c07f256c75686caca215289bb11cfc",
                    "gasUsed": 12862,
                    "id": 4,
                    "methodDecoded": true,
                    "operation": "CALL",
                    "output": "0x0000000000000000000000000000000000000000000000000000000000000001",
                    "revert": false,
                    "revertMessage": "",
                    "selector": "0xa9059cbb",
                    "status": true,
                    "value": "0"
                },
                "nodeType": 0
            },
            "5": {
                "event": {
                    "contract": "0xc02aaa39b223fe8d0a0e5c4f27ead9083c756cc2",
                    "decodedLog": {
                        "name": "Transfer",
                        "params": [
                            {
                                "name": "src",
                                "type": "address",
                                "value": "0x570febdf89c07f256c75686caca215289bb11cfc"
                            },
                            {
                                "name": "dst",
                                "type": "address",
                                "value": "0x000000000dfde7deaf24138722987c9a6991e2d4"
                            },
                            {
                                "decimalAvailable": true,
                                "name": "wad",
                                "type": "uint256",
                                "value": "3,087,152,695,515,918,000"
                            }
                        ],
                        "signature": "Transfer(address,address,uint256)"
                    },
                    "id": 5,
                    "logData": "0x0000000000000000000000000000000000000000000000002ad7c505279daeb0",
                    "logDecoded": true,
                    "operation": "EVENT",
                    "revert": false,
                    "status": true,
                    "topics": [
                        "0xddf252ad1be2c89b69c2b068fc378daa952ba7f163c4a11628f55a4df523b3ef",
                        "0x000000000000000000000000570febdf89c07f256c75686caca215289bb11cfc",
                        "0x000000000000000000000000000000000dfde7deaf24138722987c9a6991e2d4"
                    ]
                },
                "nodeType": 1
            },
            "6": {
                "invocation": {
                    "address": "0xbbc2ae13b23d715c30720f079fcd9b4a74093505",
                    "callData": "0x000000000000000000000000570febdf89c07f256c75686caca215289bb11cfc",
                    "decodedMethod": {
                        "callParams": [
                            {
                                "name": "account",
                                "type": "address",
                                "value": "0x570febdf89c07f256c75686caca215289bb11cfc"
                            }
                        ],
                        "constructorArguments": "",
                        "name": "balanceOf",
                        "returnParams": [
                            {
                                "decimalAvailable": true,
                                "name": "",
                                "type": "uint256",
                                "value": "759,877,457,730,631,262,613,976"
                            }
                        ],
                        "signature": "balanceOf(address)"
                    },
                    "errorInfo": "",
                    "fromAddress": "0x570febdf89c07f256c75686caca215289bb11cfc",
                    "gasUsed": 518,
                    "id": 6,
                    "methodDecoded": true,
                    "operation": "STATICCALL",
                    "output": "0x00000000000000000000000000000000000000000000a0e90a1e4ab0fd2d31d8",
                    "revert": false,
                    "revertMessage": "",
                    "selector": "0x70a08231",
                    "status": true,
                    "value": "0"
                },
                "nodeType": 0
            },
            "7": {
                "invocation": {
                    "address": "0xc02aaa39b223fe8d0a0e5c4f27ead9083c756cc2",
                    "callData": "0x000000000000000000000000570febdf89c07f256c75686caca215289bb11cfc",
                    "decodedMethod": {
                        "callParams": [
                            {
                                "name": "",
                                "type": "address",
                                "value": "0x570febdf89c07f256c75686caca215289bb11cfc"
                            }
                        ],
                        "constructorArguments": "",
                        "name": "balanceOf",
                        "returnParams": [
                            {
                                "decimalAvailable": true,
                                "name": "",
                                "type": "uint256",
                                "value": "1,273,543,273,959,563,870,096"
                            }
                        ],
                        "signature": "balanceOf(address)"
                    },
                    "errorInfo": "",
                    "fromAddress": "0x570febdf89c07f256c75686caca215289bb11cfc",
                    "gasUsed": 534,
                    "id": 7,
                    "methodDecoded": true,
                    "operation": "STATICCALL",
                    "output": "0x00000000000000000000000000000000000000000000004509f69c250fca3f90",
                    "revert": false,
                    "revertMessage": "",
                    "selector": "0x70a08231",
                    "status": true,
                    "value": "0"
                },
                "nodeType": 0
            },
            "8": {
                "event": {
                    "contract": "0x570febdf89c07f256c75686caca215289bb11cfc",
                    "decodedLog": {
                        "name": "Sync",
                        "params": [
                            {
                                "name": "reserve0",
                                "type": "uint112",
                                "value": "759,877,457,730,631,262,613,976"
                            },
                            {
                                "name": "reserve1",
                                "type": "uint112",
                                "value": "1,273,543,273,959,563,870,096"
                            }
                        ],
                        "signature": "Sync(uint112,uint112)"
                    },
                    "id": 8,
                    "logData": "0x00000000000000000000000000000000000000000000a0e90a1e4ab0fd2d31d800000000000000000000000000000000000000000000004509f69c250fca3f90",
                    "logDecoded": true,
                    "operation": "EVENT",
                    "revert": false,
                    "status": true,
                    "topics": [
                        "0x1c411e9a96e071241c2f21f7726b17ae89e3cab4c78be50e062b03a9fffbbad1"
                    ]
                },
                "nodeType": 1
            },
            "9": {
                "event": {
                    "contract": "0x570febdf89c07f256c75686caca215289bb11cfc",
                    "decodedLog": {
                        "name": "Swap",
                        "params": [
                            {
                                "name": "sender",
                                "type": "address",
                                "value": "0x000000000dfde7deaf24138722987c9a6991e2d4"
                            },
                            {
                                "name": "to",
                                "type": "address",
                                "value": "0x000000000dfde7deaf24138722987c9a6991e2d4"
                            },
                            {
                                "name": "amount0In",
                                "type": "uint256",
                                "value": "1,843,657,817,109,144,300,000"
                            },
                            {
                                "name": "amount1In",
                                "type": "uint256",
                                "value": "0"
                            },
                            {
                                "name": "amount0Out",
                                "type": "uint256",
                                "value": "0"
                            },
                            {
                                "name": "amount1Out",
                                "type": "uint256",
                                "value": "3,087,152,695,515,918,000"
                            }
                        ],
                        "signature": "Swap(address,uint256,uint256,uint256,uint256,address)"
                    },
                    "id": 9,
                    "logData": "0x000000000000000000000000000000000000000000000063f1e4588b02a469e0000000000000000000000000000000000000000000000000000000000000000000000000000000000000000000000000000000000000000000000000000000000000000000000000000000000000000000000000000000002ad7c505279daeb0",
                    "logDecoded": true,
                    "operation": "EVENT",
                    "revert": false,
                    "status": true,
                    "topics": [
                        "0xd78ad95fa46c994b6551d0da85fc275fe613ce37657fb8d5e3d130840159d822",
                        "0x000000000000000000000000000000000dfde7deaf24138722987c9a6991e2d4",
                        "0x000000000000000000000000000000000dfde7deaf24138722987c9a6991e2d4"
                    ]
                },
                "nodeType": 1
            }
        },
        "gasFlame": [
            {
                "children": [
                    {
                        "children": [
                            {
                                "children": [],
                                "depth": 0,
                                "name": "Initial Gas",
                                "value": 22628
                            },
                            {
                                "children": [
                                    {
                                        "children": [],
                                        "depth": 1,
                                        "name": "transfer",
                                        "value": 13135
                                    },
                                    {
                                        "children": [
                                            {
                                                "children": [],
                                                "depth": 2,
                                                "name": "transfer",
                                                "value": 12862
                                            },
                                            {
                                                "children": [],
                                                "depth": 2,
                                                "name": "balanceOf",
                                                "value": 518
                                            },
                                            {
                                                "children": [],
                                                "depth": 2,
                                                "name": "balanceOf",
                                                "value": 534
                                            }
                                        ],
                                        "depth": 1,
                                        "name": "swap",
                                        "value": 49737
                                    }
                                ],
                                "depth": 0,
                                "name": "Executed Gas",
                                "value": 72502
                            }
                        ],
                        "depth": -1,
                        "name": "Actual Gas Used",
                        "value": 92330
                    },
                    {
                        "children": [],
                        "depth": -1,
                        "name": "Refunded Gas",
                        "value": 2800
                    }
                ],
                "depth": -2,
                "name": "Total Gas",
                "value": 95130
            }
        ],
        "isConfirmed": true,
        "mainTrace": [
            {
                "children": [
                    {
                        "children": [
                            {
                                "children": [
                                    {
                                        "children": [],
                                        "depth": 2,
                                        "id": 2,
                                        "order": 2
                                    }
                                ],
                                "depth": 1,
                                "id": 1,
                                "order": 1
                            },
                            {
                                "children": [
                                    {
                                        "children": [
                                            {
                                                "children": [],
                                                "depth": 3,
                                                "id": 5,
                                                "order": 5
                                            }
                                        ],
                                        "depth": 2,
                                        "id": 4,
                                        "order": 4
                                    },
                                    {
                                        "children": [],
                                        "depth": 2,
                                        "id": 6,
                                        "order": 6
                                    },
                                    {
                                        "children": [],
                                        "depth": 2,
                                        "id": 7,
                                        "order": 7
                                    },
                                    {
                                        "children": [],
                                        "depth": 2,
                                        "id": 8,
                                        "order": 8
                                    },
                                    {
                                        "children": [],
                                        "depth": 2,
                                        "id": 9,
                                        "order": 9
                                    }
                                ],
                                "depth": 1,
                                "id": 3,
                                "order": 3
                            }
                        ],
                        "depth": 0,
                        "id": 0,
                        "order": 0
                    }
                ],
                "depth": -1,
                "id": -1,
                "order": -1
            }
        ],
        "mainTraceNodeCount": 10,
        "parentIdMap": {
            "0": -1,
            "1": 0,
            "2": 1,
            "3": 0,
            "4": 3,
            "5": 4,
            "6": 3,
            "7": 3,
            "8": 3,
            "9": 3
        },
        "tidyTrace": [
            {
                "children": [
                    {
                        "children": [
                            {
                                "children": [
                                    {
                                        "children": [],
                                        "depth": 2,
                                        "id": 2,
                                        "order": 2
                                    }
                                ],
                                "depth": 1,
                                "id": 1,
                                "order": 1
                            },
                            {
                                "children": [
                                    {
                                        "children": [
                                            {
                                                "children": [],
                                                "depth": 3,
                                                "id": 5,
                                                "order": 5
                                            }
                                        ],
                                        "depth": 2,
                                        "id": 4,
                                        "order": 4
                                    },
                                    {
                                        "children": [],
                                        "depth": 2,
                                        "id": 8,
                                        "order": 8
                                    },
                                    {
                                        "children": [],
                                        "depth": 2,
                                        "id": 9,
                                        "order": 9
                                    }
                                ],
                                "depth": 1,
                                "id": 3,
                                "order": 3
                            }
                        ],
                        "depth": 0,
                        "id": 0,
                        "order": 0
                    }
                ],
                "depth": -1,
                "id": -1,
                "order": -1
            }
        ],
        "tidyTraceNodeCount": 8
    },
    "state_change": {
        "stateChanges": [
            {
                "address": "0x570febdf89c07f256c75686caca215289bb11cfc",
                "erc": "ERC-20",
                "slots": [
                    {
                        "current": "0x0000000000000000000000000005e8b560f7a3fcfdcdd34331453dce7d52cd93",
                        "key": "0x000000000000000000000000000000000000000000000000000000000000000a",
                        "prev": "0x0000000000000000000000000005e8b4f1a25811366d38ed85aa4362d42eb6f3"
                    },
                    {
                        "current": "0x63678dc700000000004509f69c250fca3f9000000000a0e90a1e4ab0fd2d31d8",
                        "key": "0x0000000000000000000000000000000000000000000000000000000000000008",
                        "prev": "0x63678d9700000000004534ce612a3767ee4000000000a0851839f225fa88c7f8"
                    },
                    {
                        "current": "0x00000000000000000000000000000002ec1bad9bd7b87157f8f042822ac3a610",
                        "key": "0x0000000000000000000000000000000000000000000000000000000000000009",
                        "prev": "0x00000000000000000000000000000002ec1b98ea03f57d2b479ade4dc55dbdc0"
                    }
                ],
                "storageVariables": [
                    {
                        "name": "price0CumulativeLast",
                        "type": "uint256",
                        "value": {
                            "current": "994406254066286389440589165033632802320",
                            "prev": "994405834329172529619227095339917753792",
                            "typeTag": 1
                        }
                    },
                    {
                        "name": "price1CumulativeLast",
                        "type": "uint256",
                        "value": {
                            "current": "131775496328945179012492183387813530647580051",
                            "prev": "131775348341752552868602557331254789987546867",
                            "typeTag": 1
                        }
                    },
                    {
                        "name": "reserve0",
                        "type": "uint112",
                        "value": {
                            "current": "759877457730631262613976",
                            "prev": "758033799913522118313976",
                            "typeTag": 1
                        }
                    },
                    {
                        "name": "reserve1",
                        "type": "uint112",
                        "value": {
                            "current": "1273543273959563870096",
                            "prev": "1276630426655079788096",
                            "typeTag": 1
                        }
                    },
                    {
                        "name": "blockTimestampLast",
                        "type": "uint32",
                        "value": {
                            "current": "1667730887",
                            "prev": "1667730839",
                            "typeTag": 1
                        }
                    }
                ]
            },
            {
                "address": "0xbbc2ae13b23d715c30720f079fcd9b4a74093505",
                "erc": "ERC-20",
                "slots": [
                    {
                        "current": "0x0000000000000000000000000000000000000000000000c3f2b80c533bfbb90b",
                        "key": "0x35457c10b103ba41c8498c406c938178afb1e25d0ac6298889d4a5d85c2a2cfb",
                        "prev": "0x000000000000000000000000000000000000000000000127e49c64de3ea022eb"
                    },
                    {
                        "current": "0x00000000000000000000000000000000000000000000a0e90a1e4ab0fd2d31d8",
                        "key": "0x1ff4d4c56a1758dc9e7cbd8eeea73a44d03cd53ce6cc324cfc3034d4cf1a61d9",
                        "prev": "0x00000000000000000000000000000000000000000000a0851839f225fa88c7f8"
                    }
                ],
                "storageVariables": [
                    {
                        "name": "_balances",
                        "type": "mapping(address => uint256)",
                        "value": {
                            "pairs": [
                                {
                                    "key": "0x000000000dfde7deaf24138722987c9a6991e2d4",
                                    "value": {
                                        "current": "3614604837077884057867",
                                        "prev": "5458262654187028357867",
                                        "typeTag": 1
                                    }
                                },
                                {
                                    "key": "0x570febdf89c07f256c75686caca215289bb11cfc",
                                    "value": {
                                        "current": "759877457730631262613976",
                                        "prev": "758033799913522118313976",
                                        "typeTag": 1
                                    }
                                }
                            ],
                            "typeTag": 4
                        }
                    }
                ]
            },
            {
                "address": "0xc02aaa39b223fe8d0a0e5c4f27ead9083c756cc2",
                "erc": "ERC-20",
                "slots": [
                    {
                        "current": "0x000000000000000000000000000000000000000000000080bbd4b5271f144c0e",
                        "key": "0xe720f529ad75d12e62163793ad8338e53487109d571a22578205c0eab4d15c35",
                        "prev": "0x00000000000000000000000000000000000000000000008090fcf021f7769d5e"
                    },
                    {
                        "current": "0x00000000000000000000000000000000000000000000004509f69c250fca3f90",
                        "key": "0x7b2222137926690f5a18eb878ed99731920bd1d3cb0c6f265a506f85f0c0abe1",
                        "prev": "0x00000000000000000000000000000000000000000000004534ce612a3767ee40"
                    }
                ],
                "storageVariables": [
                    {
                        "name": "balanceOf",
                        "type": "mapping(address => uint256)",
                        "value": {
                            "pairs": [
                                {
                                    "key": "0x000000000dfde7deaf24138722987c9a6991e2d4",
                                    "value": {
                                        "current": "2374717883394607565838",
                                        "prev": "2371630730699091647838",
                                        "typeTag": 1
                                    }
                                },
                                {
                                    "key": "0x570febdf89c07f256c75686caca215289bb11cfc",
                                    "value": {
                                        "current": "1273543273959563870096",
                                        "prev": "1276630426655079788096",
                                        "typeTag": 1
                                    }
                                }
                            ],
                            "typeTag": 4
                        }
                    }
                ]
            }
        ]
    }
}