{
    "balance_change": {
        "balanceChanges": [
            {
                "account": "0xcf86012ca2e3eebe8ef6475ed115ea7059fca4ee",
                "assets": [
                    {
                        "address": "0xa84f95eb3dabdc1bbd613709ef5f2fd42ce5be8d",
                        "amount": "38.983313204520091648",
                        "iconUrl": "",
                        "isERC1155": false,
                        "isERC721": false,
                        "sign": true,
                        "value": "1.16331303"
                    }
                ]
            },
            {
                "account": "0x0000000000000000000000000000000000000000",
                "assets": [
                    {
                        "address": "0xa84f95eb3dabdc1bbd613709ef5f2fd42ce5be8d",
                        "amount": "39,048",
                        "iconUrl": "",
                        "isERC1155": false,
                        "isERC721": false,
                        "sign": false,
                        "value": "1161.969679"
                    }
                ]
            },
            {
                "account": "0x95f2fde7333f28064a12079b12845e2aec6c03da",
                "assets": [
                    {
                        "address": "0xa84f95eb3dabdc1bbd613709ef5f2fd42ce5be8d",
                        "amount": "39,009.016686795479908352",
                        "iconUrl": "",
                        "isERC1155": false,
                        "isERC721": false,
                        "sign": true,
                        "value": "1160.812893"
                    }
                ]
            }
        ]
    },
    "profile": {
        "basic_info": {
            "baseFee": "2.701124164",
            "blockNumber": 20109202,
            "callData": "0x6a761202000000000000000000000000532f0b30d65d9cfb01851184d9772c487dc6fbaa00000000000000000000000000000000000000000000000000000000000000000000000000000000000000000000000000000000000000000000000000000140000000000000000000000000000000000000000000000000000000000000000000000000000000000000000000000000000000000000000000000000000000000000000000000000000000000000000000000000000000000000000000000000000000000000000000000000000000000000000000000000000000000000000000000000000000000000000000000000000000000000000000000000000000000000000000000000000000000000000000000000000000000000000000000000000000000000000000000000000000000000000000000000000000000000030000000000000000000000000000000000000000000000000000000000000001845530f4a5000000000000000000000000000000000000000000000000000000000000006000000000000000000000000000000000000000000000000000000000000000c000000000000000000000000000000000000000000000000000000000000001200000000000000000000000000000000000000000000000000000000000000002000000000000000000000000a84f95eb3dabdc1bbd613709ef5f2fd42ce5be8d000000000000000000000000a84f95eb3dabdc1bbd613709ef5f2fd42ce5be8d000000000000000000000000000000000000000000000000000000000000000200000000000000000000000095f2fde7333f28064a12079b12845e2aec6c03da000000000000000000000000cf86012ca2e3eebe8ef6475ed115ea7059fca4ee0000000000000000000000000000000000000000000000000000000000000002000000000000000000000000000000000000000000000842aedb2e0321e900000000000000000000000000000000000000000000000000021d008cd12b3700000000000000000000000000000000000000000000000000000000000000000000000000000000000000000000000000000000000000000000000001c7a445ea6951270bfe5436e349bfb9e2276c966ff86aca25370afd2b06dd59262b4c5812c703a44bd26f7f30ac0e501c72c512281ac0f2504719f451b7eba279991c91ea86f925eefa4c539980c2e53b4f72c8cbf428fb7b7a7224801afd56f04aa0576302e18160298e426acb102ebaa533b69c4b6ed3d85f8bbe7d4103f21610e61c3efb17e1944216e1677598b70c36929ddbd2e1f7f7d82c3a07a3de9b04407d04391a4c8a7afad761fe0f5ee871307cd85c34deafcc2a01155b5dc1ea0ff5a0611b4c22935aa7e405cd3d6082368ca065f7983d1fceb114fdba4ab527759ce577535e3ccc8916b37021607415dc7cd9c3f42bb19da0b75260e09dfbd32396a4b6461b97a67c5f42145bce3bc2513c215c5ae2ce21a0714058e9f484e91155542262e836883c6c0a89ddf8ed042b9cc39a8f6cd936509d4383f1478cb93892b536408b1c1515607429d27bdee78383adbd447c802747b71d7d12da0cf188768efa115b3574c15aa19d6e010d54f3db208ac5a3db327f24d20a897876a2130cf22f18d2881b2688b846cc1a4cd0d55870576849c840eef1123f5bfa59894be4bf9fc0b3a9845408480aaea7465b70892525b53dcf63e04b1690e773bea82d087affa9c3970d1c00000000000000000000000000000000000000000000000000",
            "debugEnable": true,
            "errorInfo": "",
            "eventCount": 4,
            "feeRecipient": "0xbd3afb0bb76683ecb4225f9dbc91f998713c3b01",
            "formatValue": "0",
            "gasLimit": 153493,
            "gasPrice": "4.474215577",
            "gasUsed": 151126,
            "intTxnCount": 12,
            "internalRevert": false,
            "internalRevertMessage": "",
            "isContractCreation": false,
            "isFlashloan": false,
            "maxFee": "",
            "nonce": 1082,
            "overwritedBlockNumber": -1,
            "priorityFee": "",
            "receiver": "0xcf86012ca2e3eebe8ef6475ed115ea7059fca4ee",
            "revertMessage": "",
            "sender": "0x7f4e115041c5a51a5458911bc8f2d5eb24e8bf97",
            "simulationEnable": true,
            "sourceTxnHash": "0xa3aeedae85b44b3941601bb233f13a78cff1576f05db05c1ed2035fba0fee9e7",
            "status": true,
            "timestamp": "2024-06-17T04:43:59Z",
            "transactionFee": "0.000676170303289702",
            "txnHash": "0xa3aeedae85b44b3941601bb233f13a78cff1576f05db05c1ed2035fba0fee9e7",
            "txnIndex": 37,
            "type": 0,
            "value": "0"
        },
        "fund_flow": [
            {
                "amount": "39,009.016686795479908352",
                "from": "0x0000000000000000000000000000000000000000",
                "id": 1,
                "isERC1155": false,
                "isERC721": false,
                "isReverted": false,
                "order": 1,
                "to": "0x95f2fde7333f28064a12079b12845e2aec6c03da",
                "token": "0xa84f95eb3dabdc1bbd613709ef5f2fd42ce5be8d"
            },
            {
                "amount": "38.983313204520091648",
                "from": "0x0000000000000000000000000000000000000000",
                "id": 2,
                "isERC1155": false,
                "isERC721": false,
                "isReverted": false,
                "order": 2,
                "to": "0xcf86012ca2e3eebe8ef6475ed115ea7059fca4ee",
                "token": "0xa84f95eb3dabdc1bbd613709ef5f2fd42ce5be8d"
            }
        ],
        "token_infos": [
            {
                "address": "0xc02aaa39b223fe8d0a0e5c4f27ead9083c756cc2",
                "decimals": 18
            },
            {
                "address": "0xeeeeeeeeeeeeeeeeeeeeeeeeeeeeeeeeeeeeeeee",
                "decimals": 18
            },
            {
                "address": "0xa84f95eb3dabdc1bbd613709ef5f2fd42ce5be8d",
                "decimals": 18
            }
        ]
    },
    "address_label": {
        "labels": [
            {
                "address": "0x0000000000000000000000000000000000000000",
                "label": "Null Address"
            },
            {
                "address": "0xbd0adb3ee21e0a75d3021384177238883d69e883",
                "label": "Bridge"
            },
            {
                "address": "0xcf86012ca2e3eebe8ef6475ed115ea7059fca4ee",
                "label": "0xcf86_TransparentUpgradeableProxy"
            },
            {
                "address": "0x0000000000000000000000000000000000000002",
                "label": "Precompiled"
            },
            {
                "address": "0x0000000000000000000000000000000000000004",
                "label": "Precompiled"
            },
            {
                "address": "0x95f2fde7333f28064a12079b12845e2aec6c03da",
                "label": "MEXC"
            },
            {
                "address": "0xa84f95eb3dabdc1bbd613709ef5f2fd42ce5be8d",
                "label": "EternalAI: EAI Token"
            },
            {
                "address": "0xd9db270c1b5e3bd161e8c8503c55ceabee709552",
                "label": "Safe: Singleton 1.3.0"
            },
            {
                "address": "0x532f0b30d65d9cfb01851184d9772c487dc6fbaa",
                "label": "0x532f_TransparentUpgradeableProxy"
            },
            {
                "address": "0x0000000000000000000000000000000000000001",
                "label": "Precompiled"
            },
            {
                "address": "0x0000000000000000000000000000000000000003",
                "label": "Precompiled"
            },
            {
                "address": "0xeeeeeeeeeeeeeeeeeeeeeeeeeeeeeeeeeeeeeeee",
                "label": "Ether"
            }
        ]
    },
    "trace": {
        "accountLabels": null,
        "dataMap": {
            "-1": {
                "invocation": {
                    "address": "0x7f4e115041c5a51a5458911bc8f2d5eb24e8bf97",
                    "callData": "",
                    "decodedMethod": null,
                    "errorInfo": "",
                    "fromAddress": "",
                    "gasUsed": 0,
                    "id": -1,
                    "methodDecoded": false,
                    "operation": "",
                    "output": "",
                    "revert": false,
                    "revertMessage": "",
                    "selector": "",
                    "status": false,
                    "value": ""
                },
                "nodeType": 0
            },
            "0": {
                "invocation": {
                    "address": "0xcf86012ca2e3eebe8ef6475ed115ea7059fca4ee",
                    "callData": "0x000000000000000000000000532f0b30d65d9cfb01851184d9772c487dc6fbaa00000000000000000000000000000000000000000000000000000000000000000000000000000000000000000000000000000000000000000000000000000140000000000000000000000000000000000000000000000000000000000000000000000000000000000000000000000000000000000000000000000000000000000000000000000000000000000000000000000000000000000000000000000000000000000000000000000000000000000000000000000000000000000000000000000000000000000000000000000000000000000000000000000000000000000000000000000000000000000000000000000000000000000000000000000000000000000000000000000000000000000000000000000000000000000000030000000000000000000000000000000000000000000000000000000000000001845530f4a5000000000000000000000000000000000000000000000000000000000000006000000000000000000000000000000000000000000000000000000000000000c000000000000000000000000000000000000000000000000000000000000001200000000000000000000000000000000000000000000000000000000000000002000000000000000000000000a84f95eb3dabdc1bbd613709ef5f2fd42ce5be8d000000000000000000000000a84f95eb3dabdc1bbd613709ef5f2fd42ce5be8d000000000000000000000000000000000000000000000000000000000000000200000000000000000000000095f2fde7333f28064a12079b12845e2aec6c03da000000000000000000000000cf86012ca2e3eebe8ef6475ed115ea7059fca4ee0000000000000000000000000000000000000000000000000000000000000002000000000000000000000000000000000000000000000842aedb2e0321e900000000000000000000000000000000000000000000000000021d008cd12b3700000000000000000000000000000000000000000000000000000000000000000000000000000000000000000000000000000000000000000000000001c7a445ea6951270bfe5436e349bfb9e2276c966ff86aca25370afd2b06dd59262b4c5812c703a44bd26f7f30ac0e501c72c512281ac0f2504719f451b7eba279991c91ea86f925eefa4c539980c2e53b4f72c8cbf428fb7b7a7224801afd56f04aa0576302e18160298e426acb102ebaa533b69c4b6ed3d85f8bbe7d4103f21610e61c3efb17e1944216e1677598b70c36929ddbd2e1f7f7d82c3a07a3de9b04407d04391a4c8a7afad761fe0f5ee871307cd85c34deafcc2a01155b5dc1ea0ff5a0611b4c22935aa7e405cd3d6082368ca065f7983d1fceb114fdba4ab527759ce577535e3ccc8916b37021607415dc7cd9c3f42bb19da0b75260e09dfbd32396a4b6461b97a67c5f42145bce3bc2513c215c5ae2ce21a0714058e9f484e91155542262e836883c6c0a89ddf8ed042b9cc39a8f6cd936509d4383f1478cb93892b536408b1c1515607429d27bdee78383adbd447c802747b71d7d12da0cf188768efa115b3574c15aa19d6e010d54f3db208ac5a3db327f24d20a897876a2130cf22f18d2881b2688b846cc1a4cd0d55870576849c840eef1123f5bfa59894be4bf9fc0b3a9845408480aaea7465b70892525b53dcf63e04b1690e773bea82d087affa9c3970d1c00000000000000000000000000000000000000000000000000",
                    "decodedMethod": {
                        "callParams": [
                            {
                                "name": "to",
                                "type": "address",
                                "value": "0x532f0b30d65d9cfb01851184d9772c487dc6fbaa"
                            },
                            {
                                "name": "value",
                                "type": "uint256",
                                "value": "0"
                            },
                            {
                                "name": "data",
                                "type": "bytes",
                                "value": "0x5530f4a5000000000000000000000000000000000000000000000000000000000000006000000000000000000000000000000000000000000000000000000000000000c000000000000000000000000000000000000000000000000000000000000001200000000000000000000000000000000000000000000000000000000000000002000000000000000000000000a84f95eb3dabdc1bbd613709ef5f2fd42ce5be8d000000000000000000000000a84f95eb3dabdc1bbd613709ef5f2fd42ce5be8d000000000000000000000000000000000000000000000000000000000000000200000000000000000000000095f2fde7333f28064a12079b12845e2aec6c03da000000000000000000000000cf86012ca2e3eebe8ef6475ed115ea7059fca4ee0000000000000000000000000000000000000000000000000000000000000002000000000000000000000000000000000000000000000842aedb2e0321e900000000000000000000000000000000000000000000000000021d008cd12b370000"
                            },
                            {
                                "name": "operation",
                                "type": "uint8",
                                "value": "0"
                            },
                            {
                                "name": "safeTxGas",
                                "type": "uint256",
                                "value": "0"
                            },
                            {
                                "name": "baseGas",
                                "type": "uint256",
                                "value": "0"
                            },
                            {
                                "name": "gasPrice",
                                "type": "uint256",
                                "value": "0"
                            },
                            {
                                "name": "gasToken",
                                "type": "address",
                                "value": "0x0000000000000000000000000000000000000000"
                            },
                            {
                                "name": "refundReceiver",
                                "type": "address",
                                "value": "0x0000000000000000000000000000000000000000"
                            },
                            {
                                "name": "signatures",
                                "type": "bytes",
                                "value": "0xa445ea6951270bfe5436e349bfb9e2276c966ff86aca25370afd2b06dd59262b4c5812c703a44bd26f7f30ac0e501c72c512281ac0f2504719f451b7eba279991c91ea86f925eefa4c539980c2e53b4f72c8cbf428fb7b7a7224801afd56f04aa0576302e18160298e426acb102ebaa533b69c4b6ed3d85f8bbe7d4103f21610e61c3efb17e1944216e1677598b70c36929ddbd2e1f7f7d82c3a07a3de9b04407d04391a4c8a7afad761fe0f5ee871307cd85c34deafcc2a01155b5dc1ea0ff5a0611b4c22935aa7e405cd3d6082368ca065f7983d1fceb114fdba4ab527759ce577535e3ccc8916b37021607415dc7cd9c3f42bb19da0b75260e09dfbd32396a4b6461b97a67c5f42145bce3bc2513c215c5ae2ce21a0714058e9f484e91155542262e836883c6c0a89ddf8ed042b9cc39a8f6cd936509d4383f1478cb93892b536408b1c1515607429d27bdee78383adbd447c802747b71d7d12da0cf188768efa115b3574c15aa19d6e010d54f3db208ac5a3db327f24d20a897876a2130cf22f18d2881b2688b846cc1a4cd0d55870576849c840eef1123f5bfa59894be4bf9fc0b3a9845408480aaea7465b70892525b53dcf63e04b1690e773bea82d087affa9c3970d1c"
                            }
                        ],
                        "constructorArguments": "",
                        "name": "execTransaction",
                        "returnParams": [
                            {
                                "name": "success",
                                "type": "bool",
                                "value": true
                            }
                        ],
                        "signature": "execTransaction(address,uint256,bytes,uint8,uint256,uint256,uint256,address,address,bytes)"
                    },
                    "errorInfo": "",
                    "fromAddress": "0x7f4e115041c5a51a5458911bc8f2d5eb24e8bf97",
                    "gasUsed": 151126,
                    "id": 0,
                    "methodDecoded": true,
                    "operation": "CALL",
                    "output": "0x0000000000000000000000000000000000000000000000000000000000000001",
                    "revert": false,
                    "revertMessage": "",
                    "selector": "0x6a761202",
                    "status": true,
                    "value": "0"
                },
                "nodeType": 0
            },
            "1": {
                "invocation": {
                    "address": "0xd9db270c1b5e3bd161e8c8503c55ceabee709552",
                    "callData": "0x000000000000000000000000532f0b30d65d9cfb01851184d9772c487dc6fbaa00000000000000000000000000000000000000000000000000000000000000000000000000000000000000000000000000000000000000000000000000000140000000000000000000000000000000000000000000000000000000000000000000000000000000000000000000000000000000000000000000000000000000000000000000000000000000000000000000000000000000000000000000000000000000000000000000000000000000000000000000000000000000000000000000000000000000000000000000000000000000000000000000000000000000000000000000000000000000000000000000000000000000000000000000000000000000000000000000000000000000000000000000000000000000000000030000000000000000000000000000000000000000000000000000000000000001845530f4a5000000000000000000000000000000000000000000000000000000000000006000000000000000000000000000000000000000000000000000000000000000c000000000000000000000000000000000000000000000000000000000000001200000000000000000000000000000000000000000000000000000000000000002000000000000000000000000a84f95eb3dabdc1bbd613709ef5f2fd42ce5be8d000000000000000000000000a84f95eb3dabdc1bbd613709ef5f2fd42ce5be8d000000000000000000000000000000000000000000000000000000000000000200000000000000000000000095f2fde7333f28064a12079b12845e2aec6c03da000000000000000000000000cf86012ca2e3eebe8ef6475ed115ea7059fca4ee0000000000000000000000000000000000000000000000000000000000000002000000000000000000000000000000000000000000000842aedb2e0321e900000000000000000000000000000000000000000000000000021d008cd12b3700000000000000000000000000000000000000000000000000000000000000000000000000000000000000000000000000000000000000000000000001c7a445ea6951270bfe5436e349bfb9e2276c966ff86aca25370afd2b06dd59262b4c5812c703a44bd26f7f30ac0e501c72c512281ac0f2504719f451b7eba279991c91ea86f925eefa4c539980c2e53b4f72c8cbf428fb7b7a7224801afd56f04aa0576302e18160298e426acb102ebaa533b69c4b6ed3d85f8bbe7d4103f21610e61c3efb17e1944216e1677598b70c36929ddbd2e1f7f7d82c3a07a3de9b04407d04391a4c8a7afad761fe0f5ee871307cd85c34deafcc2a01155b5dc1ea0ff5a0611b4c22935aa7e405cd3d6082368ca065f7983d1fceb114fdba4ab527759ce577535e3ccc8916b37021607415dc7cd9c3f42bb19da0b75260e09dfbd32396a4b6461b97a67c5f42145bce3bc2513c215c5ae2ce21a0714058e9f484e91155542262e836883c6c0a89ddf8ed042b9cc39a8f6cd936509d4383f1478cb93892b536408b1c1515607429d27bdee78383adbd447c802747b71d7d12da0cf188768efa115b3574c15aa19d6e010d54f3db208ac5a3db327f24d20a897876a2130cf22f18d2881b2688b846cc1a4cd0d55870576849c840eef1123f5bfa59894be4bf9fc0b3a9845408480aaea7465b70892525b53dcf63e04b1690e773bea82d087affa9c3970d1c00000000000000000000000000000000000000000000000000",
                    "decodedMethod": {
                        "callParams": [
                            {
                                "name": "to",
                                "type": "address",
                                "value": "0x532f0b30d65d9cfb01851184d9772c487dc6fbaa"
                            },
                            {
                                "name": "value",
                                "type": "uint256",
                                "value": "0"
                            },
                            {
                                "name": "data",
                                "type": "bytes",
                                "value": "0x5530f4a5000000000000000000000000000000000000000000000000000000000000006000000000000000000000000000000000000000000000000000000000000000c000000000000000000000000000000000000000000000000000000000000001200000000000000000000000000000000000000000000000000000000000000002000000000000000000000000a84f95eb3dabdc1bbd613709ef5f2fd42ce5be8d000000000000000000000000a84f95eb3dabdc1bbd613709ef5f2fd42ce5be8d000000000000000000000000000000000000000000000000000000000000000200000000000000000000000095f2fde7333f28064a12079b12845e2aec6c03da000000000000000000000000cf86012ca2e3eebe8ef6475ed115ea7059fca4ee0000000000000000000000000000000000000000000000000000000000000002000000000000000000000000000000000000000000000842aedb2e0321e900000000000000000000000000000000000000000000000000021d008cd12b370000"
                            },
                            {
                                "name": "operation",
                                "type": "uint8",
                                "value": "0"
                            },
                            {
                                "name": "safeTxGas",
                                "type": "uint256",
                                "value": "0"
                            },
                            {
                                "name": "baseGas",
                                "type": "uint256",
                                "value": "0"
                            },
                            {
                                "name": "gasPrice",
                                "type": "uint256",
                                "value": "0"
                            },
                            {
                                "name": "gasToken",
                                "type": "address",
                                "value": "0x0000000000000000000000000000000000000000"
                            },
                            {
                                "name": "refundReceiver",
                                "type": "address",
                                "value": "0x0000000000000000000000000000000000000000"
                            },
                            {
                                "name": "signatures",
                                "type": "bytes",
                                "value": "0xa445ea6951270bfe5436e349bfb9e2276c966ff86aca25370afd2b06dd59262b4c5812c703a44bd26f7f30ac0e501c72c512281ac0f2504719f451b7eba279991c91ea86f925eefa4c539980c2e53b4f72c8cbf428fb7b7a7224801afd56f04aa0576302e18160298e426acb102ebaa533b69c4b6ed3d85f8bbe7d4103f21610e61c3efb17e1944216e1677598b70c36929ddbd2e1f7f7d82c3a07a3de9b04407d04391a4c8a7afad761fe0f5ee871307cd85c34deafcc2a01155b5dc1ea0ff5a0611b4c22935aa7e405cd3d6082368ca065f7983d1fceb114fdba4ab527759ce577535e3ccc8916b37021607415dc7cd9c3f42bb19da0b75260e09dfbd32396a4b6461b97a67c5f42145bce3bc2513c215c5ae2ce21a0714058e9f484e91155542262e836883c6c0a89ddf8ed042b9cc39a8f6cd936509d4383f1478cb93892b536408b1c1515607429d27bdee78383adbd447c802747b71d7d12da0cf188768efa115b3574c15aa19d6e010d54f3db208ac5a3db327f24d20a897876a2130cf22f18d2881b2688b846cc1a4cd0d55870576849c840eef1123f5bfa59894be4bf9fc0b3a9845408480aaea7465b70892525b53dcf63e04b1690e773bea82d087affa9c3970d1c"
                            }
                        ],
                        "constructorArguments": "",
                        "name": "execTransaction",
                        "returnParams": [
                            {
                                "name": "success",
                                "type": "bool",
                                "value": true
                            }
                        ],
                        "signature": "execTransaction(address,uint256,bytes,uint8,uint256,uint256,uint256,address,address,bytes)"
                    },
                    "errorInfo": "",
                    "fromAddress": "0xcf86012ca2e3eebe8ef6475ed115ea7059fca4ee",
                    "gasUsed": 110525,
                    "id": 1,
                    "methodDecoded": true,
                    "operation": "DELEGATECALL",
                    "output": "0x0000000000000000000000000000000000000000000000000000000000000001",
                    "revert": false,
                    "revertMessage": "",
                    "selector": "0x6a761202",
                    "status": true,
                    "value": "0"
                },
                "nodeType": 0
            },
            "10": {
                "invocation": {
                    "address": "0xa84f95eb3dabdc1bbd613709ef5f2fd42ce5be8d",
                    "callData": "0x00000000000000000000000095f2fde7333f28064a12079b12845e2aec6c03da000000000000000000000000000000000000000000000842aedb2e0321e90000",
                    "decodedMethod": {
                        "callParams": [
                            {
                                "name": "account",
                                "type": "address",
                                "value": "0x95f2fde7333f28064a12079b12845e2aec6c03da"
                            },
                            {
                                "name": "amount",
                                "type": "uint256",
                                "value": "39,009,016,686,795,479,908,352"
                            }
                        ],
                        "constructorArguments": "",
                        "name": "mint",
                        "returnParams": [],
                        "signature": "mint(address,uint256)"
                    },
                    "errorInfo": "",
                    "fromAddress": "0x532f0b30d65d9cfb01851184d9772c487dc6fbaa",
                    "gasUsed": 29739,
                    "id": 10,
                    "methodDecoded": true,
                    "operation": "CALL",
                    "output": "",
                    "revert": false,
                    "revertMessage": "",
                    "selector": "0x40c10f19",
                    "status": true,
                    "value": "0"
                },
                "nodeType": 0
            },
            "11": {
                "event": {
                    "contract": "0xa84f95eb3dabdc1bbd613709ef5f2fd42ce5be8d",
                    "decodedLog": {
                        "name": "Transfer",
                        "params": [
                            {
                                "name": "from",
                                "type": "address",
                                "value": "0x0000000000000000000000000000000000000000"
                            },
                            {
                                "name": "to",
                                "type": "address",
                                "value": "0x95f2fde7333f28064a12079b12845e2aec6c03da"
                            },
                            {
                                "decimalAvailable": true,
                                "name": "value",
                                "type": "uint256",
                                "value": "39,009,016,686,795,479,908,352"
                            }
                        ],
                        "signature": "Transfer(address,address,uint256)"
                    },
                    "id": 11,
                    "logData": "0x000000000000000000000000000000000000000000000842aedb2e0321e90000",
                    "logDecoded": true,
                    "operation": "EVENT",
                    "revert": false,
                    "status": true,
                    "topics": [
                        "0xddf252ad1be2c89b69c2b068fc378daa952ba7f163c4a11628f55a4df523b3ef",
                        "0x0000000000000000000000000000000000000000000000000000000000000000",
                        "0x00000000000000000000000095f2fde7333f28064a12079b12845e2aec6c03da"
                    ]
                },
                "nodeType": 1
            },
            "12": {
                "invocation": {
                    "address": "0xa84f95eb3dabdc1bbd613709ef5f2fd42ce5be8d",
                    "callData": "0x",
                    "decodedMethod": {
                        "callParams": [],
                        "constructorArguments": "",
                        "name": "owner",
                        "returnParams": [
                            {
                                "name": "",
                                "type": "address",
                                "value": "0x532f0b30d65d9cfb01851184d9772c487dc6fbaa"
                            }
                        ],
                        "signature": "owner()"
                    },
                    "errorInfo": "",
                    "fromAddress": "0x532f0b30d65d9cfb01851184d9772c487dc6fbaa",
                    "gasUsed": 412,
                    "id": 12,
                    "methodDecoded": true,
                    "operation": "STATICCALL",
                    "output": "0x000000000000000000000000532f0b30d65d9cfb01851184d9772c487dc6fbaa",
                    "revert": false,
                    "revertMessage": "",
                    "selector": "0x8da5cb5b",
                    "status": true,
                    "value": "0"
                },
                "nodeType": 0
            },
            "13": {
                "invocation": {
                    "address": "0xa84f95eb3dabdc1bbd613709ef5f2fd42ce5be8d",
                    "callData": "0x000000000000000000000000cf86012ca2e3eebe8ef6475ed115ea7059fca4ee0000000000000000000000000000000000000000000000021d008cd12b370000",
                    "decodedMethod": {
                        "callParams": [
                            {
                                "name": "account",
                                "type": "address",
                                "value": "0xcf86012ca2e3eebe8ef6475ed115ea7059fca4ee"
                            },
                            {
                                "name": "amount",
                                "type": "uint256",
                                "value": "38,983,313,204,520,091,648"
                            }
                        ],
                        "constructorArguments": "",
                        "name": "mint",
                        "returnParams": [],
                        "signature": "mint(address,uint256)"
                    },
                    "errorInfo": "",
                    "fromAddress": "0x532f0b30d65d9cfb01851184d9772c487dc6fbaa",
                    "gasUsed": 7839,
                    "id": 13,
                    "methodDecoded": true,
                    "operation": "CALL",
                    "output": "",
                    "revert": false,
                    "revertMessage": "",
                    "selector": "0x40c10f19",
                    "status": true,
                    "value": "0"
                },
                "nodeType": 0
            },
            "14": {
                "event": {
                    "contract": "0xa84f95eb3dabdc1bbd613709ef5f2fd42ce5be8d",
                    "decodedLog": {
                        "name": "Transfer",
                        "params": [
                            {
                                "name": "from",
                                "type": "address",
                                "value": "0x0000000000000000000000000000000000000000"
                            },
                            {
                                "name": "to",
                                "type": "address",
                                "value": "0xcf86012ca2e3eebe8ef6475ed115ea7059fca4ee"
                            },
                            {
                                "decimalAvailable": true,
                                "name": "value",
                                "type": "uint256",
                                "value": "38,983,313,204,520,091,648"
                            }
                        ],
                        "signature": "Transfer(address,address,uint256)"
                    },
                    "id": 14,
                    "logData": "0x0000000000000000000000000000000000000000000000021d008cd12b370000",
                    "logDecoded": true,
                    "operation": "EVENT",
                    "revert": false,
                    "status": true,
                    "topics": [
                        "0xddf252ad1be2c89b69c2b068fc378daa952ba7f163c4a11628f55a4df523b3ef",
                        "0x0000000000000000000000000000000000000000000000000000000000000000",
                        "0x000000000000000000000000cf86012ca2e3eebe8ef6475ed115ea7059fca4ee"
                    ]
                },
                "nodeType": 1
            },
            "15": {
                "event": {
                    "contract": "0x532f0b30d65d9cfb01851184d9772c487dc6fbaa",
                    "decodedLog": {
                        "name": "Mint",
                        "params": [
                            {
                                "name": "tokens",
                                "type": "address[]",
                                "value": [
                                    "0xa84f95eb3dabdc1bbd613709ef5f2fd42ce5be8d",
                                    "0xa84f95eb3dabdc1bbd613709ef5f2fd42ce5be8d"
                                ]
                            },
                            {
                                "name": "recipients",
                                "type": "address[]",
                                "value": [
                                    "0x95f2fde7333f28064a12079b12845e2aec6c03da",
                                    "0xcf86012ca2e3eebe8ef6475ed115ea7059fca4ee"
                                ]
                            },
                            {
                                "name": "amounts",
                                "type": "uint256[]",
                                "value": [
                                    "39,009,016,686,795,479,908,352",
                                    "38,983,313,204,520,091,648"
                                ]
                            }
                        ],
                        "signature": "Mint(address[],address[],uint256[])"
                    },
                    "id": 15,
                    "logData": "0x000000000000000000000000000000000000000000000000000000000000006000000000000000000000000000000000000000000000000000000000000000c000000000000000000000000000000000000000000000000000000000000001200000000000000000000000000000000000000000000000000000000000000002000000000000000000000000a84f95eb3dabdc1bbd613709ef5f2fd42ce5be8d000000000000000000000000a84f95eb3dabdc1bbd613709ef5f2fd42ce5be8d000000000000000000000000000000000000000000000000000000000000000200000000000000000000000095f2fde7333f28064a12079b12845e2aec6c03da000000000000000000000000cf86012ca2e3eebe8ef6475ed115ea7059fca4ee0000000000000000000000000000000000000000000000000000000000000002000000000000000000000000000000000000000000000842aedb2e0321e900000000000000000000000000000000000000000000000000021d008cd12b370000",
                    "logDecoded": true,
                    "operation": "EVENT",
                    "revert": false,
                    "status": true,
                    "topics": [
                        "0xe9914506df53b6ba40090fea5ed4edb71623a51062de3125c2dc65b23de6d05e"
                    ]
                },
                "nodeType": 1
            },
            "16": {
                "event": {
                    "contract": "0xcf86012ca2e3eebe8ef6475ed115ea7059fca4ee",
                    "decodedLog": {
                        "name": "ExecutionSuccess",
                        "params": [
                            {
                                "name": "txHash",
                                "type": "bytes32",
                                "value": "0xb2046071b0040c42d30c8a4150ff30b8b3437d97304d97914e724df9aaaae183"
                            },
                            {
                                "name": "payment",
                                "type": "uint256",
                                "value": "0"
                            }
                        ],
                        "signature": "ExecutionSuccess(bytes32,uint256)"
                    },
                    "id": 16,
                    "logData": "0xb2046071b0040c42d30c8a4150ff30b8b3437d97304d97914e724df9aaaae1830000000000000000000000000000000000000000000000000000000000000000",
                    "logDecoded": true,
                    "operation": "EVENT",
                    "revert": false,
                    "status": true,
                    "topics": [
                        "0x442e715f626346e8c54381002da614f62bee8d27386535b2521ec8540898556e"
                    ]
                },
                "nodeType": 1
            },
            "2": {
                "invocation": {
                    "address": "0x0000000000000000000000000000000000000001",
                    "callData": "0xb0040c42d30c8a4150ff30b8b3437d97304d97914e724df9aaaae183000000000000000000000000000000000000000000000000000000000000001ca445ea6951270bfe5436e349bfb9e2276c966ff86aca25370afd2b06dd59262b4c5812c703a44bd26f7f30ac0e501c72c512281ac0f2504719f451b7eba27999",
                    "decodedMethod": {
                        "callParams": [
                            {
                                "name": "hash",
                                "type": "bytes32",
                                "value": "0xb2046071b0040c42d30c8a4150ff30b8b3437d97304d97914e724df9aaaae183"
                            },
                            {
                                "name": "v",
                                "type": "uint256",
                                "value": "28"
                            },
                            {
                                "name": "r",
                                "type": "bytes32",
                                "value": "0xa445ea6951270bfe5436e349bfb9e2276c966ff86aca25370afd2b06dd59262b"
                            },
                            {
                                "name": "s",
                                "type": "bytes32",
                                "value": "0x4c5812c703a44bd26f7f30ac0e501c72c512281ac0f2504719f451b7eba27999"
                            }
                        ],
                        "constructorArguments": "",
                        "name": "ecrecover",
                        "returnParams": [
                            {
                                "name": "",
                                "type": "address",
                                "value": "0x194ae64c1c8299a43c399b58334308cee2b5b208"
                            }
                        ],
                        "signature": "ecrecover(bytes32,uint256,bytes32,bytes32)"
                    },
                    "errorInfo": "",
                    "fromAddress": "0xcf86012ca2e3eebe8ef6475ed115ea7059fca4ee",
                    "gasUsed": 3000,
                    "id": 2,
                    "methodDecoded": true,
                    "operation": "STATICCALL",
                    "output": "0x000000000000000000000000194ae64c1c8299a43c399b58334308cee2b5b208",
                    "revert": false,
                    "revertMessage": "",
                    "selector": "0xb2046071",
                    "status": true,
                    "value": "0"
                },
                "nodeType": 0
            },
            "3": {
                "invocation": {
                    "address": "0x0000000000000000000000000000000000000001",
                    "callData": "0xb0040c42d30c8a4150ff30b8b3437d97304d97914e724df9aaaae183000000000000000000000000000000000000000000000000000000000000001c91ea86f925eefa4c539980c2e53b4f72c8cbf428fb7b7a7224801afd56f04aa0576302e18160298e426acb102ebaa533b69c4b6ed3d85f8bbe7d4103f21610e6",
                    "decodedMethod": {
                        "callParams": [
                            {
                                "name": "hash",
                                "type": "bytes32",
                                "value": "0xb2046071b0040c42d30c8a4150ff30b8b3437d97304d97914e724df9aaaae183"
                            },
                            {
                                "name": "v",
                                "type": "uint256",
                                "value": "28"
                            },
                            {
                                "name": "r",
                                "type": "bytes32",
                                "value": "0x91ea86f925eefa4c539980c2e53b4f72c8cbf428fb7b7a7224801afd56f04aa0"
                            },
                            {
                                "name": "s",
                                "type": "bytes32",
                                "value": "0x576302e18160298e426acb102ebaa533b69c4b6ed3d85f8bbe7d4103f21610e6"
                            }
                        ],
                        "constructorArguments": "",
                        "name": "ecrecover",
                        "returnParams": [
                            {
                                "name": "",
                                "type": "address",
                                "value": "0x41459cf5ba6148e8a7cde7a50d917629eb60aa5d"
                            }
                        ],
                        "signature": "ecrecover(bytes32,uint256,bytes32,bytes32)"
                    },
                    "errorInfo": "",
                    "fromAddress": "0xcf86012ca2e3eebe8ef6475ed115ea7059fca4ee",
                    "gasUsed": 3000,
                    "id": 3,
                    "methodDecoded": true,
                    "operation": "STATICCALL",
                    "output": "0x00000000000000000000000041459cf5ba6148e8a7cde7a50d917629eb60aa5d",
                    "revert": false,
                    "revertMessage": "",
                    "selector": "0xb2046071",
                    "status": true,
                    "value": "0"
                },
                "nodeType": 0
            },
            "4": {
                "invocation": {
                    "address": "0x0000000000000000000000000000000000000001",
                    "callData": "0xb0040c42d30c8a4150ff30b8b3437d97304d97914e724df9aaaae183000000000000000000000000000000000000000000000000000000000000001b3efb17e1944216e1677598b70c36929ddbd2e1f7f7d82c3a07a3de9b04407d04391a4c8a7afad761fe0f5ee871307cd85c34deafcc2a01155b5dc1ea0ff5a061",
                    "decodedMethod": {
                        "callParams": [
                            {
                                "name": "hash",
                                "type": "bytes32",
                                "value": "0xb2046071b0040c42d30c8a4150ff30b8b3437d97304d97914e724df9aaaae183"
                            },
                            {
                                "name": "v",
                                "type": "uint256",
                                "value": "27"
                            },
                            {
                                "name": "r",
                                "type": "bytes32",
                                "value": "0x3efb17e1944216e1677598b70c36929ddbd2e1f7f7d82c3a07a3de9b04407d04"
                            },
                            {
                                "name": "s",
                                "type": "bytes32",
                                "value": "0x391a4c8a7afad761fe0f5ee871307cd85c34deafcc2a01155b5dc1ea0ff5a061"
                            }
                        ],
                        "constructorArguments": "",
                        "name": "ecrecover",
                        "returnParams": [
                            {
                                "name": "",
                                "type": "address",
                                "value": "0x4cb18bfca62e16cb1c122c80f82bfe1328f504dd"
                            }
                        ],
                        "signature": "ecrecover(bytes32,uint256,bytes32,bytes32)"
                    },
                    "errorInfo": "",
                    "fromAddress": "0xcf86012ca2e3eebe8ef6475ed115ea7059fca4ee",
                    "gasUsed": 3000,
                    "id": 4,
                    "methodDecoded": true,
                    "operation": "STATICCALL",
                    "output": "0x0000000000000000000000004cb18bfca62e16cb1c122c80f82bfe1328f504dd",
                    "revert": false,
                    "revertMessage": "",
                    "selector": "0xb2046071",
                    "status": true,
                    "value": "0"
                },
                "nodeType": 0
            },
            "5": {
                "invocation": {
                    "address": "0x0000000000000000000000000000000000000001",
                    "callData": "0xb0040c42d30c8a4150ff30b8b3437d97304d97914e724df9aaaae183000000000000000000000000000000000000000000000000000000000000001b4c22935aa7e405cd3d6082368ca065f7983d1fceb114fdba4ab527759ce577535e3ccc8916b37021607415dc7cd9c3f42bb19da0b75260e09dfbd32396a4b646",
                    "decodedMethod": {
                        "callParams": [
                            {
                                "name": "hash",
                                "type": "bytes32",
                                "value": "0xb2046071b0040c42d30c8a4150ff30b8b3437d97304d97914e724df9aaaae183"
                            },
                            {
                                "name": "v",
                                "type": "uint256",
                                "value": "27"
                            },
                            {
                                "name": "r",
                                "type": "bytes32",
                                "value": "0x4c22935aa7e405cd3d6082368ca065f7983d1fceb114fdba4ab527759ce57753"
                            },
                            {
                                "name": "s",
                                "type": "bytes32",
                                "value": "0x5e3ccc8916b37021607415dc7cd9c3f42bb19da0b75260e09dfbd32396a4b646"
                            }
                        ],
                        "constructorArguments": "",
                        "name": "ecrecover",
                        "returnParams": [
                            {
                                "name": "",
                                "type": "address",
                                "value": "0x6849f1689a5d22d5400adccca7a99c6d544240f6"
                            }
                        ],
                        "signature": "ecrecover(bytes32,uint256,bytes32,bytes32)"
                    },
                    "errorInfo": "",
                    "fromAddress": "0xcf86012ca2e3eebe8ef6475ed115ea7059fca4ee",
                    "gasUsed": 3000,
                    "id": 5,
                    "methodDecoded": true,
                    "operation": "STATICCALL",
                    "output": "0x0000000000000000000000006849f1689a5d22d5400adccca7a99c6d544240f6",
                    "revert": false,
                    "revertMessage": "",
                    "selector": "0xb2046071",
                    "status": true,
                    "value": "0"
                },
                "nodeType": 0
            },
            "6": {
                "invocation": {
                    "address": "0x0000000000000000000000000000000000000001",
                    "callData": "0xb0040c42d30c8a4150ff30b8b3437d97304d97914e724df9aaaae183000000000000000000000000000000000000000000000000000000000000001c97a67c5f42145bce3bc2513c215c5ae2ce21a0714058e9f484e91155542262e836883c6c0a89ddf8ed042b9cc39a8f6cd936509d4383f1478cb93892b536408b",
                    "decodedMethod": {
                        "callParams": [
                            {
                                "name": "hash",
                                "type": "bytes32",
                                "value": "0xb2046071b0040c42d30c8a4150ff30b8b3437d97304d97914e724df9aaaae183"
                            },
                            {
                                "name": "v",
                                "type": "uint256",
                                "value": "28"
                            },
                            {
                                "name": "r",
                                "type": "bytes32",
                                "value": "0x97a67c5f42145bce3bc2513c215c5ae2ce21a0714058e9f484e91155542262e8"
                            },
                            {
                                "name": "s",
                                "type": "bytes32",
                                "value": "0x36883c6c0a89ddf8ed042b9cc39a8f6cd936509d4383f1478cb93892b536408b"
                            }
                        ],
                        "constructorArguments": "",
                        "name": "ecrecover",
                        "returnParams": [
                            {
                                "name": "",
                                "type": "address",
                                "value": "0xcd4bbca9fb8906220ce2afd85bef818c24d8f4e6"
                            }
                        ],
                        "signature": "ecrecover(bytes32,uint256,bytes32,bytes32)"
                    },
                    "errorInfo": "",
                    "fromAddress": "0xcf86012ca2e3eebe8ef6475ed115ea7059fca4ee",
                    "gasUsed": 3000,
                    "id": 6,
                    "methodDecoded": true,
                    "operation": "STATICCALL",
                    "output": "0x000000000000000000000000cd4bbca9fb8906220ce2afd85bef818c24d8f4e6",
                    "revert": false,
                    "revertMessage": "",
                    "selector": "0xb2046071",
                    "status": true,
                    "value": "0"
                },
                "nodeType": 0
            },
            "7": {
                "invocation": {
                    "address": "0x532f0b30d65d9cfb01851184d9772c487dc6fbaa",
                    "callData": "0x000000000000000000000000000000000000000000000000000000000000006000000000000000000000000000000000000000000000000000000000000000c000000000000000000000000000000000000000000000000000000000000001200000000000000000000000000000000000000000000000000000000000000002000000000000000000000000a84f95eb3dabdc1bbd613709ef5f2fd42ce5be8d000000000000000000000000a84f95eb3dabdc1bbd613709ef5f2fd42ce5be8d000000000000000000000000000000000000000000000000000000000000000200000000000000000000000095f2fde7333f28064a12079b12845e2aec6c03da000000000000000000000000cf86012ca2e3eebe8ef6475ed115ea7059fca4ee0000000000000000000000000000000000000000000000000000000000000002000000000000000000000000000000000000000000000842aedb2e0321e900000000000000000000000000000000000000000000000000021d008cd12b370000",
                    "decodedMethod": {
                        "callParams": [
                            {
                                "name": "tokens",
                                "type": "address[]",
                                "value": [
                                    "0xa84f95eb3dabdc1bbd613709ef5f2fd42ce5be8d",
                                    "0xa84f95eb3dabdc1bbd613709ef5f2fd42ce5be8d"
                                ]
                            },
                            {
                                "name": "recipients",
                                "type": "address[]",
                                "value": [
                                    "0x95f2fde7333f28064a12079b12845e2aec6c03da",
                                    "0xcf86012ca2e3eebe8ef6475ed115ea7059fca4ee"
                                ]
                            },
                            {
                                "name": "amounts",
                                "type": "uint256[]",
                                "value": [
                                    "39,009,016,686,795,479,908,352",
                                    "38,983,313,204,520,091,648"
                                ]
                            }
                        ],
                        "constructorArguments": "",
                        "name": "mint",
                        "returnParams": [],
                        "signature": "mint(address[],address[],uint256[])"
                    },
                    "errorInfo": "",
                    "fromAddress": "0xcf86012ca2e3eebe8ef6475ed115ea7059fca4ee",
                    "gasUsed": 63333,
                    "id": 7,
                    "methodDecoded": true,
                    "operation": "CALL",
                    "output": "",
                    "revert": false,
                    "revertMessage": "",
                    "selector": "0x5530f4a5",
                    "status": true,
                    "value": "0"
                },
                "nodeType": 0
            },
            "8": {
                "invocation": {
                    "address": "0xbd0adb3ee21e0a75d3021384177238883d69e883",
                    "callData": "0x000000000000000000000000000000000000000000000000000000000000006000000000000000000000000000000000000000000000000000000000000000c000000000000000000000000000000000000000000000000000000000000001200000000000000000000000000000000000000000000000000000000000000002000000000000000000000000a84f95eb3dabdc1bbd613709ef5f2fd42ce5be8d000000000000000000000000a84f95eb3dabdc1bbd613709ef5f2fd42ce5be8d000000000000000000000000000000000000000000000000000000000000000200000000000000000000000095f2fde7333f28064a12079b12845e2aec6c03da000000000000000000000000cf86012ca2e3eebe8ef6475ed115ea7059fca4ee0000000000000000000000000000000000000000000000000000000000000002000000000000000000000000000000000000000000000842aedb2e0321e900000000000000000000000000000000000000000000000000021d008cd12b370000",
                    "decodedMethod": {
                        "callParams": [
                            {
                                "name": "tokens",
                                "type": "address[]",
                                "value": [
                                    "0xa84f95eb3dabdc1bbd613709ef5f2fd42ce5be8d",
                                    "0xa84f95eb3dabdc1bbd613709ef5f2fd42ce5be8d"
                                ]
                            },
                            {
                                "name": "recipients",
                                "type": "address[]",
                                "value": [
                                    "0x95f2fde7333f28064a12079b12845e2aec6c03da",
                                    "0xcf86012ca2e3eebe8ef6475ed115ea7059fca4ee"
                                ]
                            },
                            {
                                "name": "amounts",
                                "type": "uint256[]",
                                "value": [
                                    "39,009,016,686,795,479,908,352",
                                    "38,983,313,204,520,091,648"
                                ]
                            }
                        ],
                        "constructorArguments": "",
                        "name": "mint",
                        "returnParams": [],
                        "signature": "mint(address[],address[],uint256[])"
                    },
                    "errorInfo": "",
                    "fromAddress": "0x532f0b30d65d9cfb01851184d9772c487dc6fbaa",
                    "gasUsed": 56134,
                    "id": 8,
                    "methodDecoded": true,
                    "operation": "DELEGATECALL",
                    "output": "",
                    "revert": false,
                    "revertMessage": "",
                    "selector": "0x5530f4a5",
                    "status": true,
                    "value": "0"
                },
                "nodeType": 0
            },
            "9": {
                "invocation": {
                    "address": "0xa84f95eb3dabdc1bbd613709ef5f2fd42ce5be8d",
                    "callData": "0x",
                    "decodedMethod": {
                        "callParams": [],
                        "constructorArguments": "",
                        "name": "owner",
                        "returnParams": [
                            {
                                "name": "",
                                "type": "address",
                                "value": "0x532f0b30d65d9cfb01851184d9772c487dc6fbaa"
                            }
                        ],
                        "signature": "owner()"
                    },
                    "errorInfo": "",
                    "fromAddress": "0x532f0b30d65d9cfb01851184d9772c487dc6fbaa",
                    "gasUsed": 2412,
                    "id": 9,
                    "methodDecoded": true,
                    "operation": "STATICCALL",
                    "output": "0x000000000000000000000000532f0b30d65d9cfb01851184d9772c487dc6fbaa",
                    "revert": false,
                    "revertMessage": "",
                    "selector": "0x8da5cb5b",
                    "status": true,
                    "value": "0"
                },
                "nodeType": 0
            }
        },
        "gasFlame": [
            {
                "children": [
                    {
                        "children": [
                            {
                                "children": [],
                                "depth": 0,
                                "name": "Initial Gas",
                                "value": 33228
                            },
                            {
                                "children": [
                                    {
                                        "children": [
                                            {
                                                "children": [],
                                                "depth": 2,
                                                "name": "ecrecover",
                                                "value": 3000
                                            },
                                            {
                                                "children": [],
                                                "depth": 2,
                                                "name": "ecrecover",
                                                "value": 3000
                                            },
                                            {
                                                "children": [],
                                                "depth": 2,
                                                "name": "ecrecover",
                                                "value": 3000
                                            },
                                            {
                                                "children": [],
                                                "depth": 2,
                                                "name": "ecrecover",
                                                "value": 3000
                                            },
                                            {
                                                "children": [],
                                                "depth": 2,
                                                "name": "ecrecover",
                                                "value": 3000
                                            },
                                            {
                                                "children": [
                                                    {
                                                        "children": [
                                                            {
                                                                "children": [],
                                                                "depth": 4,
                                                                "name": "owner",
                                                                "value": 2412
                                                            },
                                                            {
                                                                "children": [],
                                                                "depth": 4,
                                                                "name": "mint",
                                                                "value": 29739
                                                            },
                                                            {
                                                                "children": [],
                                                                "depth": 4,
                                                                "name": "owner",
                                                                "value": 412
                                                            },
                                                            {
                                                                "children": [],
                                                                "depth": 4,
                                                                "name": "mint",
                                                                "value": 7839
                                                            }
                                                        ],
                                                        "depth": 3,
                                                        "name": "mint",
                                                        "value": 56134
                                                    }
                                                ],
                                                "depth": 2,
                                                "name": "mint",
                                                "value": 63333
                                            }
                                        ],
                                        "depth": 1,
                                        "name": "execTransaction",
                                        "value": 110525
                                    }
                                ],
                                "depth": 0,
                                "name": "Executed Gas",
                                "value": 117898
                            }
                        ],
                        "depth": -1,
                        "name": "Actual Gas Used",
                        "value": 151126
                    },
                    {
                        "children": [],
                        "depth": -1,
                        "name": "Refunded Gas",
                        "value": 0
                    }
                ],
                "depth": -2,
                "name": "Total Gas",
                "value": 151126
            }
        ],
        "isConfirmed": true,
        "mainTrace": [
            {
                "children": [
                    {
                        "children": [
                            {
                                "children": [
                                    {
                                        "children": [],
                                        "depth": 2,
                                        "id": 2,
                                        "order": 2
                                    },
                                    {
                                        "children": [],
                                        "depth": 2,
                                        "id": 3,
                                        "order": 3
                                    },
                                    {
                                        "children": [],
                                        "depth": 2,
                                        "id": 4,
                                        "order": 4
                                    },
                                    {
                                        "children": [],
                                        "depth": 2,
                                        "id": 5,
                                        "order": 5
                                    },
                                    {
                                        "children": [],
                                        "depth": 2,
                                        "id": 6,
                                        "order": 6
                                    },
                                    {
                                        "children": [
                                            {
                                                "children": [
                                                    {
                                                        "children": [],
                                                        "depth": 4,
                                                        "id": 9,
                                                        "order": 9
                                                    },
                                                    {
                                                        "children": [
                                                            {
                                                                "children": [],
                                                                "depth": 5,
                                                                "id": 11,
                                                                "order": 11
                                                            }
                                                        ],
                                                        "depth": 4,
                                                        "id": 10,
                                                        "order": 10
                                                    },
                                                    {
                                                        "children": [],
                                                        "depth": 4,
                                                        "id": 12,
                                                        "order": 12
                                                    },
                                                    {
                                                        "children": [
                                                            {
                                                                "children": [],
                                                                "depth": 5,
                                                                "id": 14,
                                                                "order": 14
                                                            }
                                                        ],
                                                        "depth": 4,
                                                        "id": 13,
                                                        "order": 13
                                                    },
                                                    {
                                                        "children": [],
                                                        "depth": 4,
                                                        "id": 15,
                                                        "order": 15
                                                    }
                                                ],
                                                "depth": 3,
                                                "id": 8,
                                                "order": 8
                                            }
                                        ],
                                        "depth": 2,
                                        "id": 7,
                                        "order": 7
                                    },
                                    {
                                        "children": [],
                                        "depth": 2,
                                        "id": 16,
                                        "order": 16
                                    }
                                ],
                                "depth": 1,
                                "id": 1,
                                "order": 1
                            }
                        ],
                        "depth": 0,
                        "id": 0,
                        "order": 0
                    }
                ],
                "depth": -1,
                "id": -1,
                "order": -1
            }
        ],
        "mainTraceNodeCount": 17,
        "parentIdMap": {
            "0": -1,
            "1": 0,
            "10": 8,
            "11": 10,
            "12": 8,
            "13": 8,
            "14": 13,
            "15": 8,
            "16": 1,
            "2": 1,
            "3": 1,
            "4": 1,
            "5": 1,
            "6": 1,
            "7": 1,
            "8": 7,
            "9": 8
        },
        "tidyTrace": [
            {
                "children": [
                    {
                        "children": [
                            {
                                "children": [
                                    {
                                        "children": [
                                            {
                                                "children": [
                                                    {
                                                        "children": [
                                                            {
                                                                "children": [],
                                                                "depth": 5,
                                                                "id": 11,
                                                                "order": 11
                                                            }
                                                        ],
                                                        "depth": 4,
                                                        "id": 10,
                                                        "order": 10
                                                    },
                                                    {
                                                        "children": [
                                                            {
                                                                "children": [],
                                                                "depth": 5,
                                                                "id": 14,
                                                                "order": 14
                                                            }
                                                        ],
                                                        "depth": 4,
                                                        "id": 13,
                                                        "order": 13
                                                    },
                                                    {
                                                        "children": [],
                                                        "depth": 4,
                                                        "id": 15,
                                                        "order": 15
                                                    }
                                                ],
                                                "depth": 3,
                                                "id": 8,
                                                "order": 8
                                            }
                                        ],
                                        "depth": 2,
                                        "id": 7,
                                        "order": 7
                                    },
                                    {
                                        "children": [],
                                        "depth": 2,
                                        "id": 16,
                                        "order": 16
                                    }
                                ],
                                "depth": 1,
                                "id": 1,
                                "order": 1
                            }
                        ],
                        "depth": 0,
                        "id": 0,
                        "order": 0
                    }
                ],
                "depth": -1,
                "id": -1,
                "order": -1
            }
        ],
        "tidyTraceNodeCount": 10
    },
    "state_change": {
        "stateChanges": [
            {
                "address": "0xa84f95eb3dabdc1bbd613709ef5f2fd42ce5be8d",
                "erc": "ERC-20",
                "slots": [
                    {
                        "current": "0x00000000000000000000000000000000000000000029f5d25e360368036bcc6f",
                        "key": "0x0000000000000000000000000000000000000000000000000000000000000003",
                        "prev": "0x00000000000000000000000000000000000000000029ed8d925a4893b64bcc6f"
                    },
                    {
                        "current": "0x000000000000000000000000000000000000000000000842aedb2e0321e90000",
                        "key": "0x40540c5cc1a5bc038d5f89c6b777678dfca73e9e2024cd4ebd9c785a5f511bd8",
                        "prev": "0x0000000000000000000000000000000000000000000000000000000000000000"
                    },
                    {
                        "current": "0x000000000000000000000000000000000000000000000a32d4081274f1dec000",
                        "key": "0xf1258cdc712826c220cbafb9a217a57a9c2503e638832ac3ae304fbeec1a138e",
                        "prev": "0x000000000000000000000000000000000000000000000a30b70785a3c6a7c000"
                    }
                ],
                "storageVariables": [
                    {
                        "name": "_totalSupply",
                        "type": "uint256",
                        "value": {
                            "current": "50726818997375571822627951",
                            "prev": "50687770997375571822627951",
                            "typeTag": 1
                        }
                    },
                    {
                        "name": "_balances",
                        "type": "mapping(address => uint256)",
                        "value": {
                            "pairs": [
                                {
                                    "key": "0x95f2fde7333f28064a12079b12845e2aec6c03da",
                                    "value": {
                                        "current": "39009016686795479908352",
                                        "prev": "0",
                                        "typeTag": 1
                                    }
                                },
                                {
                                    "key": "0xcf86012ca2e3eebe8ef6475ed115ea7059fca4ee",
                                    "value": {
                                        "current": "48161280514411267538944",
                                        "prev": "48122297201206747447296",
                                        "typeTag": 1
                                    }
                                }
                            ],
                            "typeTag": 4
                        }
                    }
                ]
            },
            {
                "address": "0xcf86012ca2e3eebe8ef6475ed115ea7059fca4ee",
                "erc": "",
                "slots": [
                    {
                        "current": "0x000000000000000000000000000000000000000000000000000000000000043c",
                        "key": "0x0000000000000000000000000000000000000000000000000000000000000005",
                        "prev": "0x000000000000000000000000000000000000000000000000000000000000043b"
                    }
                ],
                "storageVariables": [
                    {
                        "name": "nonce",
                        "type": "uint256",
                        "value": {
                            "current": "1084",
                            "prev": "1083",
                            "typeTag": 1
                        }
                    }
                ]
            }
        ]
    }
}