{
    "balance_change": {
        "balanceChanges": [
            {
                "account": "0xff1f9c77a0f1fd8f48cfeee58b714ca03420ddac",
                "assets": [
                    {
                        "address": "0xeeeeeeeeeeeeeeeeeeeeeeeeeeeeeeeeeeeeeeee",
                        "amount": "0.01568",
                        "iconUrl": "https://assets.blocksec.com/image/1663669189317-3.png",
                        "isERC1155": false,
                        "isERC721": false,
                        "sign": false,
                        "value": ""
                    }
                ]
            },
            {
                "account": "0x0091b6788ad06fd1c5a627c03a580e7c0f384543",
                "assets": [
                    {
                        "address": "0xeeeeeeeeeeeeeeeeeeeeeeeeeeeeeeeeeeeeeeee",
                        "amount": "0.01568",
                        "iconUrl": "https://assets.blocksec.com/image/1663669189317-3.png",
                        "isERC1155": false,
                        "isERC721": false,
                        "sign": true,
                        "value": ""
                    }
                ]
            }
        ]
    },
    "profile": {
        "basic_info": {
            "baseFee": "",
            "blockNumber": 3770459,
            "callData": "0x6df088bf000000000000000000000000000000000000000000000000000300000000001a0000000000000000000000000091b6788ad06fd1c5a627c03a580e7c0f384543000000000000000000000000000000000000000000000000001c6bf526340000",
            "debugEnable": true,
            "errorInfo": "",
            "eventCount": 1,
            "feeRecipient": "0xb2930b35844a230f00e51431acae96fe543a0347",
            "formatValue": "0",
            "gasLimit": 700000,
            "gasPrice": "15",
            "gasUsed": 90519,
            "intTxnCount": 1,
            "internalRevert": false,
            "internalRevertMessage": "",
            "isContractCreation": false,
            "isFlashloan": false,
            "maxFee": "",
            "nonce": 9668,
            "overwritedBlockNumber": -1,
            "priorityFee": "",
            "receiver": "0xff1f9c77a0f1fd8f48cfeee58b714ca03420ddac",
            "revertMessage": "",
            "sender": "0x6c8ef4827ca98c66343129f52b3ca842af684b83",
            "simulationEnable": true,
            "sourceTxnHash": "0xa39f67568b813773375f4c4d7bf9065905a985a37dd6e28b4f8428c2d2b95d35",
            "status": true,
            "timestamp": "2017-05-26T11:52:06Z",
            "transactionFee": "0.001357785",
            "txnHash": "0xa39f67568b813773375f4c4d7bf9065905a985a37dd6e28b4f8428c2d2b95d35",
            "txnIndex": 23,
            "type": 0,
            "value": "0"
        },
        "fund_flow": [
            {
                "amount": "0.01568",
                "from": "0xff1f9c77a0f1fd8f48cfeee58b714ca03420ddac",
                "id": 1,
                "isERC1155": false,
                "isERC721": false,
                "isReverted": false,
                "order": 1,
                "to": "0x0091b6788ad06fd1c5a627c03a580e7c0f384543",
                "token": "0xeeeeeeeeeeeeeeeeeeeeeeeeeeeeeeeeeeeeeeee"
            }
        ],
        "token_infos": [
            {
                "address": "0xc02aaa39b223fe8d0a0e5c4f27ead9083c756cc2",
                "decimals": 18
            },
            {
                "address": "0xeeeeeeeeeeeeeeeeeeeeeeeeeeeeeeeeeeeeeeee",
                "decimals": 18
            }
        ]
    },
    "address_label": {
        "labels": [
            {
                "address": "0x0000000000000000000000000000000000000002",
                "label": "Precompiled"
            },
            {
                "address": "0x0000000000000000000000000000000000000003",
                "label": "Precompiled"
            },
            {
                "address": "0x0000000000000000000000000000000000000004",
                "label": "Precompiled"
            },
            {
                "address": "0xeeeeeeeeeeeeeeeeeeeeeeeeeeeeeeeeeeeeeeee",
                "label": "Ether"
            },
            {
                "address": "0xff1f9c77a0f1fd8f48cfeee58b714ca03420ddac",
                "label": "E4RowEscrow"
            },
            {
                "address": "0x0000000000000000000000000000000000000001",
                "label": "Precompiled"
            }
        ]
    },
    "trace": {
        "accountLabels": null,
        "dataMap": {
            "-1": {
                "invocation": {
                    "address": "0x6c8ef4827ca98c66343129f52b3ca842af684b83",
                    "callData": "",
                    "decodedMethod": null,
                    "errorInfo": "",
                    "fromAddress": "",
                    "gasUsed": 0,
                    "id": -1,
                    "methodDecoded": false,
                    "operation": "",
                    "output": "",
                    "revert": false,
                    "revertMessage": "",
                    "selector": "",
                    "status": false,
                    "value": ""
                },
                "nodeType": 0
            },
            "0": {
                "invocation": {
                    "address": "0xff1f9c77a0f1fd8f48cfeee58b714ca03420ddac",
                    "callData": "0x000000000000000000000000000000000000000000000000000300000000001a0000000000000000000000000091b6788ad06fd1c5a627c03a580e7c0f384543000000000000000000000000000000000000000000000000001c6bf526340000",
                    "decodedMethod": {
                        "callParams": [
                            {
                                "name": "_hGame",
                                "type": "uint256",
                                "value": "844,424,930,131,994"
                            },
                            {
                                "name": "_winner",
                                "type": "address",
                                "value": "0x0091b6788ad06fd1c5a627c03a580e7c0f384543"
                            },
                            {
                                "name": "_winnerBal",
                                "type": "uint256",
                                "value": "8,000,000,000,000,000"
                            }
                        ],
                        "constructorArguments": "",
                        "name": "winnerDecided",
                        "returnParams": [],
                        "signature": "winnerDecided(uint256,address,uint256)"
                    },
                    "errorInfo": "",
                    "fromAddress": "0x6c8ef4827ca98c66343129f52b3ca842af684b83",
                    "gasUsed": 90519,
                    "id": 0,
                    "methodDecoded": true,
                    "operation": "CALL",
                    "output": "",
                    "revert": false,
                    "revertMessage": "",
                    "selector": "0x6df088bf",
                    "status": true,
                    "value": "0"
                },
                "nodeType": 0
            },
            "1": {
                "invocation": {
                    "address": "0x0091b6788ad06fd1c5a627c03a580e7c0f384543",
                    "callData": "0x",
                    "decodedMethod": null,
                    "errorInfo": "",
                    "fromAddress": "0xff1f9c77a0f1fd8f48cfeee58b714ca03420ddac",
                    "gasUsed": 0,
                    "id": 1,
                    "methodDecoded": false,
                    "operation": "CALL",
                    "output": "",
                    "revert": false,
                    "revertMessage": "",
                    "selector": "fallback",
                    "status": true,
                    "value": "0.01568"
                },
                "nodeType": 0
            },
            "2": {
                "event": {
                    "contract": "0xff1f9c77a0f1fd8f48cfeee58b714ca03420ddac",
                    "decodedLog": {
                        "name": "StatEventI",
                        "params": [
                            {
                                "name": "msg",
                                "type": "string",
                                "value": "Winner Paid"
                            },
                            {
                                "name": "val",
                                "type": "uint256",
                                "value": "844,424,930,131,994"
                            }
                        ],
                        "signature": "StatEventI(string,uint256)"
                    },
                    "id": 2,
                    "logData": "0x0000000000000000000000000000000000000000000000000000000000000040000000000000000000000000000000000000000000000000000300000000001a000000000000000000000000000000000000000000000000000000000000000b57696e6e65722050616964000000000000000000000000000000000000000000",
                    "logDecoded": true,
                    "operation": "EVENT",
                    "revert": false,
                    "status": true,
                    "topics": [
                        "0x9e229c55f86322ec7d67b654476e2d52934c738b3cd58c026b5b2b6e9b7b992d"
                    ]
                },
                "nodeType": 1
            }
        },
        "gasFlame": [
            {
                "children": [
                    {
                        "children": [
                            {
                                "children": [],
                                "depth": 0,
                                "name": "Initial Gas",
                                "value": 23320
                            },
                            {
                                "children": [
                                    {
                                        "children": [],
                                        "depth": 1,
                                        "name": "fallback",
                                        "value": 0
                                    }
                                ],
                                "depth": 0,
                                "name": "Executed Gas",
                                "value": 97199
                            }
                        ],
                        "depth": -1,
                        "name": "Actual Gas Used",
                        "value": 90519
                    },
                    {
                        "children": [],
                        "depth": -1,
                        "name": "Refunded Gas",
                        "value": 30000
                    }
                ],
                "depth": -2,
                "name": "Total Gas",
                "value": 120519
            }
        ],
        "isConfirmed": true,
        "mainTrace": [
            {
                "children": [
                    {
                        "children": [
                            {
                                "children": [],
                                "depth": 1,
                                "id": 1,
                                "order": 1
                            },
                            {
                                "children": [],
                                "depth": 1,
                                "id": 2,
                                "order": 2
                            }
                        ],
                        "depth": 0,
                        "id": 0,
                        "order": 0
                    }
                ],
                "depth": -1,
                "id": -1,
                "order": -1
            }
        ],
        "mainTraceNodeCount": 3,
        "parentIdMap": {
            "0": -1,
            "1": 0,
            "2": 0
        },
        "tidyTrace": [
            {
                "children": [
                    {
                        "children": [
                            {
                                "children": [],
                                "depth": 1,
                                "id": 1,
                                "order": 1
                            },
                            {
                                "children": [],
                                "depth": 1,
                                "id": 2,
                                "order": 2
                            }
                        ],
                        "depth": 0,
                        "id": 0,
                        "order": 0
                    }
                ],
                "depth": -1,
                "id": -1,
                "order": -1
            }
        ],
        "tidyTraceNodeCount": 3
    },
    "state_change": {
        "stateChanges": [
            {
                "address": "0xff1f9c77a0f1fd8f48cfeee58b714ca03420ddac",
                "erc": "",
                "slots": [
                    {
                        "current": "0x0000000000000000000000000000000000000000000000000000000000000000",
                        "key": "0x5c08d069555ebd9add4e6c2d39bdbd744dea0c3aecc5a1a9373b2030bce6fe99",
                        "prev": "0x000000000000000000000000000000000000000000000000001c6bf526340000"
                    },
                    {
                        "current": "0x00000000000000000000000000000000000000000000000000000000592816e6",
                        "key": "0x5c08d069555ebd9add4e6c2d39bdbd744dea0c3aecc5a1a9373b2030bce6fea0",
                        "prev": "0x000000000000000000000000000000000000000000000000000000005928168b"
                    },
                    {
                        "current": "0x0000000000000000000000000000000000000000000000000000000000000100",
                        "key": "0x5c08d069555ebd9add4e6c2d39bdbd744dea0c3aecc5a1a9373b2030bce6fe9e",
                        "prev": "0x0000000000000000000000000000000000000000000000000000000000000101"
                    },
                    {
                        "current": "0x0000000000000000000000000000000000000000000000000037b4e07e140000",
                        "key": "0x5c08d069555ebd9add4e6c2d39bdbd744dea0c3aecc5a1a9373b2030bce6fea1",
                        "prev": "0x0000000000000000000000000000000000000000000000000000000000000000"
                    },
                    {
                        "current": "0x000000000000000000000000000000000000000000000000000d5bb3385b0000",
                        "key": "0x0000000000000000000000000000000000000000000000000000000000000007",
                        "prev": "0x000000000000000000000000000000000000000000000000000c38a96a070000"
                    },
                    {
                        "current": "0x0000000000000000000000000000000000000000000000000000000000000000",
                        "key": "0x5c08d069555ebd9add4e6c2d39bdbd744dea0c3aecc5a1a9373b2030bce6fe98",
                        "prev": "0x000000000000000000000000000000000000000000000000001c6bf526340000"
                    },
                    {
                        "current": "0x0000000000000000000000000000000000000000000000000000000000000a81",
                        "key": "0x0000000000000000000000000000000000000000000000000000000000000004",
                        "prev": "0x0000000000000000000000000000000000000000000000000000000000000a80"
                    },
                    {
                        "current": "0x0000000000000000000000000091b6788ad06fd1c5a627c03a580e7c0f384543",
                        "key": "0x5c08d069555ebd9add4e6c2d39bdbd744dea0c3aecc5a1a9373b2030bce6fea2",
                        "prev": "0x0000000000000000000000000000000000000000000000000000000000000000"
                    },
                    {
                        "current": "0x0000000000000000000000000000000000000000000000000000000000000a69",
                        "key": "0xb0b5f211c2dfaa7a8a80c319028c92f6d58d34c49f65e17870c43819aa9be91d",
                        "prev": "0x0000000000000000000000000000000000000000000000000000000000000a68"
                    }
                ],
                "storageVariables": []
            }
        ]
    }
}