{
    "balance_change": {
        "balanceChanges": [
            {
                "account": "0x89e51fa8ca5d66cd220baed62ed01e8951aa7c40",
                "assets": [
                    {
                        "address": "0xdac17f958d2ee523a2206206994597c13d831ec7",
                        "amount": "248,922.509",
                        "iconUrl": "https://assets.blocksec.com/icon/fcea71f3193ce895be44bfdf941f7e4c9381dd587f273c2d1a27f1263d84e4ea.png",
                        "isERC1155": false,
                        "isERC721": false,
                        "sign": false,
                        "value": "249420.35401800000044"
                    }
                ]
            },
            {
                "account": "0x6d4422f6cae78eccd5991d10e720584daf57cd55",
                "assets": [
                    {
                        "address": "0xdac17f958d2ee523a2206206994597c13d831ec7",
                        "amount": "248,922.509",
                        "iconUrl": "https://assets.blocksec.com/icon/fcea71f3193ce895be44bfdf941f7e4c9381dd587f273c2d1a27f1263d84e4ea.png",
                        "isERC1155": false,
                        "isERC721": false,
                        "sign": true,
                        "value": "249420.35401800000044"
                    }
                ]
            }
        ]
    },
    "profile": {
        "basic_info": {
            "baseFee": "37.246512988",
            "blockNumber": 17092608,
            "callData": "0xa9059cbb0000000000000000000000006d4422f6cae78eccd5991d10e720584daf57cd5500000000000000000000000000000000000000000000000000000039f4f00ec8",
            "debugEnable": true,
            "errorInfo": "",
            "eventCount": 1,
            "feeRecipient": "0xdafea492d9c6733ae3d56b7ed1adb60692c98bc5",
            "formatValue": "0",
            "gasLimit": 500000,
            "gasPrice": "39.246512988",
            "gasUsed": 46121,
            "intTxnCount": 0,
            "internalRevert": false,
            "internalRevertMessage": "",
            "isContractCreation": false,
            "isFlashloan": false,
            "maxFee": "160.025888702",
            "nonce": 1507451,
            "overwritedBlockNumber": -1,
            "priorityFee": "2",
            "receiver": "0xdac17f958d2ee523a2206206994597c13d831ec7",
            "revertMessage": "",
            "sender": "0x89e51fa8ca5d66cd220baed62ed01e8951aa7c40",
            "simulationEnable": true,
            "sourceTxnHash": "0xa3111fd290d11c1224497b95ffea6a5a285257251f7aed6b2cdc253d843c72ee",
            "status": true,
            "timestamp": "2023-04-21T05:10:47Z",
            "transactionFee": "0.001810088425519548",
            "txnHash": "0xa3111fd290d11c1224497b95ffea6a5a285257251f7aed6b2cdc253d843c72ee",
            "txnIndex": 39,
            "type": 2,
            "value": "0"
        },
        "fund_flow": [
            {
                "amount": "248,922.509",
                "from": "0x89e51fa8ca5d66cd220baed62ed01e8951aa7c40",
                "id": 1,
                "isERC1155": false,
                "isERC721": false,
                "isReverted": false,
                "order": 1,
                "to": "0x6d4422f6cae78eccd5991d10e720584daf57cd55",
                "token": "0xdac17f958d2ee523a2206206994597c13d831ec7"
            }
        ],
        "token_infos": [
            {
                "address": "0xc02aaa39b223fe8d0a0e5c4f27ead9083c756cc2",
                "decimals": 18
            },
            {
                "address": "0xdac17f958d2ee523a2206206994597c13d831ec7",
                "decimals": 6
            },
            {
                "address": "0xeeeeeeeeeeeeeeeeeeeeeeeeeeeeeeeeeeeeeeee",
                "decimals": 18
            }
        ]
    },
    "address_label": {
        "labels": [
            {
                "address": "0xeeeeeeeeeeeeeeeeeeeeeeeeeeeeeeeeeeeeeeee",
                "label": "Ether"
            },
            {
                "address": "0x89e51fa8ca5d66cd220baed62ed01e8951aa7c40",
                "label": "Kraken 7"
            },
            {
                "address": "0xdac17f958d2ee523a2206206994597c13d831ec7",
                "label": "Tether: USDT Stablecoin"
            },
            {
                "address": "0x0000000000000000000000000000000000000001",
                "label": "Precompiled"
            },
            {
                "address": "0x0000000000000000000000000000000000000002",
                "label": "Precompiled"
            },
            {
                "address": "0x0000000000000000000000000000000000000003",
                "label": "Precompiled"
            },
            {
                "address": "0x0000000000000000000000000000000000000004",
                "label": "Precompiled"
            }
        ]
    },
    "trace": {
        "accountLabels": null,
        "dataMap": {
            "-1": {
                "invocation": {
                    "address": "0x89e51fa8ca5d66cd220baed62ed01e8951aa7c40",
                    "callData": "",
                    "decodedMethod": null,
                    "errorInfo": "",
                    "fromAddress": "",
                    "gasUsed": 0,
                    "id": -1,
                    "methodDecoded": false,
                    "operation": "",
                    "output": "",
                    "revert": false,
                    "revertMessage": "",
                    "selector": "",
                    "status": false,
                    "value": ""
                },
                "nodeType": 0
            },
            "0": {
                "invocation": {
                    "address": "0xdac17f958d2ee523a2206206994597c13d831ec7",
                    "callData": "0x0000000000000000000000006d4422f6cae78eccd5991d10e720584daf57cd5500000000000000000000000000000000000000000000000000000039f4f00ec8",
                    "decodedMethod": {
                        "callParams": [
                            {
                                "name": "_to",
                                "type": "address",
                                "value": "0x6d4422f6cae78eccd5991d10e720584daf57cd55"
                            },
                            {
                                "decimalAvailable": true,
                                "name": "_value",
                                "type": "uint256",
                                "value": "248,922,509,000"
                            }
                        ],
                        "constructorArguments": "",
                        "name": "transfer",
                        "returnParams": [],
                        "signature": "transfer(address,uint256)"
                    },
                    "errorInfo": "",
                    "fromAddress": "0x89e51fa8ca5d66cd220baed62ed01e8951aa7c40",
                    "gasUsed": 46121,
                    "id": 0,
                    "methodDecoded": true,
                    "operation": "CALL",
                    "output": "",
                    "revert": false,
                    "revertMessage": "",
                    "selector": "0xa9059cbb",
                    "status": true,
                    "value": "0"
                },
                "nodeType": 0
            },
            "1": {
                "event": {
                    "contract": "0xdac17f958d2ee523a2206206994597c13d831ec7",
                    "decodedLog": {
                        "name": "Transfer",
                        "params": [
                            {
                                "name": "from",
                                "type": "address",
                                "value": "0x89e51fa8ca5d66cd220baed62ed01e8951aa7c40"
                            },
                            {
                                "name": "to",
                                "type": "address",
                                "value": "0x6d4422f6cae78eccd5991d10e720584daf57cd55"
                            },
                            {
                                "decimalAvailable": true,
                                "name": "value",
                                "type": "uint256",
                                "value": "248,922,509,000"
                            }
                        ],
                        "signature": "Transfer(address,address,uint256)"
                    },
                    "id": 1,
                    "logData": "0x00000000000000000000000000000000000000000000000000000039f4f00ec8",
                    "logDecoded": true,
                    "operation": "EVENT",
                    "revert": false,
                    "status": true,
                    "topics": [
                        "0xddf252ad1be2c89b69c2b068fc378daa952ba7f163c4a11628f55a4df523b3ef",
                        "0x00000000000000000000000089e51fa8ca5d66cd220baed62ed01e8951aa7c40",
                        "0x0000000000000000000000006d4422f6cae78eccd5991d10e720584daf57cd55"
                    ]
                },
                "nodeType": 1
            }
        },
        "gasFlame": [
            {
                "children": [
                    {
                        "children": [
                            {
                                "children": [],
                                "depth": 0,
                                "name": "Initial Gas",
                                "value": 21620
                            },
                            {
                                "children": [],
                                "depth": 0,
                                "name": "Executed Gas",
                                "value": 24501
                            }
                        ],
                        "depth": -1,
                        "name": "Actual Gas Used",
                        "value": 46121
                    },
                    {
                        "children": [],
                        "depth": -1,
                        "name": "Refunded Gas",
                        "value": 0
                    }
                ],
                "depth": -2,
                "name": "Total Gas",
                "value": 46121
            }
        ],
        "isConfirmed": true,
        "mainTrace": [
            {
                "children": [
                    {
                        "children": [
                            {
                                "children": [],
                                "depth": 1,
                                "id": 1,
                                "order": 1
                            }
                        ],
                        "depth": 0,
                        "id": 0,
                        "order": 0
                    }
                ],
                "depth": -1,
                "id": -1,
                "order": -1
            }
        ],
        "mainTraceNodeCount": 2,
        "parentIdMap": {
            "0": -1,
            "1": 0
        },
        "tidyTrace": [
            {
                "children": [
                    {
                        "children": [
                            {
                                "children": [],
                                "depth": 1,
                                "id": 1,
                                "order": 1
                            }
                        ],
                        "depth": 0,
                        "id": 0,
                        "order": 0
                    }
                ],
                "depth": -1,
                "id": -1,
                "order": -1
            }
        ],
        "tidyTraceNodeCount": 2
    },
    "state_change": {
        "stateChanges": [
            {
                "address": "0xdac17f958d2ee523a2206206994597c13d831ec7",
                "erc": "ERC-20",
                "slots": [
                    {
                        "current": "0x00000000000000000000000000000000000000000000000000006ca4890e038d",
                        "key": "0xf94b05ba7d0a6aa6692eecf3cf30c6ca5d527c3e5fd03d7081ff14e4910ec033",
                        "prev": "0x00000000000000000000000000000000000000000000000000006cde7dfe1255"
                    },
                    {
                        "current": "0x000000000000000000000000000000000000000000000000000000ab573c2ab4",
                        "key": "0x1105928f57377f409b7f7ed57897df5a4b603d2b294b86fb55001e30ac0239a0",
                        "prev": "0x00000000000000000000000000000000000000000000000000000071624c1bec"
                    }
                ],
                "storageVariables": [
                    {
                        "name": "balances",
                        "type": "mapping(address => uint256)",
                        "value": {
                            "pairs": [
                                {
                                    "key": "0x6d4422f6cae78eccd5991d10e720584daf57cd55",
                                    "value": {
                                        "current": "735902968500",
                                        "prev": "486980459500",
                                        "typeTag": 1
                                    }
                                },
                                {
                                    "key": "0x89e51fa8ca5d66cd220baed62ed01e8951aa7c40",
                                    "value": {
                                        "current": "119453929833357",
                                        "prev": "119702852342357",
                                        "typeTag": 1
                                    }
                                }
                            ],
                            "typeTag": 4
                        }
                    }
                ]
            }
        ]
    }
}