{
    "balance_change": {
        "balanceChanges": [
            {
                "account": "0x71d17a05730920045e4dd37dac6f9f72954c55c1",
                "assets": [
                    {
                        "address": "0xeeeeeeeeeeeeeeeeeeeeeeeeeeeeeeeeeeeeeeee",
                        "amount": "0.035",
                        "iconUrl": "https://assets.blocksec.com/image/1663669189317-3.png",
                        "isERC1155": false,
                        "isERC721": false,
                        "sign": false,
                        "value": "110.1077099499999963"
                    },
                    {
                        "address": "0x02aa731631c6d7f8241d74f906f5b51724ab98f8",
                        "amount": "1",
                        "iconUrl": "https://assets.blocksec.com/nft/icon/nft_97005ad5-9167-4a40-ab8f-47805d8f357d.png",
                        "isERC1155": false,
                        "isERC721": true,
                        "sign": true,
                        "tokenID": "868",
                        "value": ""
                    }
                ]
            },
            {
                "account": "0x4265d230d2d54010d853b107848fc6e0b64c9c24",
                "assets": [
                    {
                        "address": "0xeeeeeeeeeeeeeeeeeeeeeeeeeeeeeeeeeeeeeeee",
                        "amount": "0.032375",
                        "iconUrl": "https://assets.blocksec.com/image/1663669189317-3.png",
                        "isERC1155": false,
                        "isERC721": false,
                        "sign": true,
                        "value": "101.849631703749996574"
                    },
                    {
                        "address": "0x02aa731631c6d7f8241d74f906f5b51724ab98f8",
                        "amount": "1",
                        "iconUrl": "https://assets.blocksec.com/nft/icon/nft_97005ad5-9167-4a40-ab8f-47805d8f357d.png",
                        "isERC1155": false,
                        "isERC721": true,
                        "sign": false,
                        "tokenID": "868",
                        "value": ""
                    }
                ]
            },
            {
                "account": "0x5b3256965e7c3cf26e11fcaf296dfc8807c01073",
                "assets": [
                    {
                        "address": "0xeeeeeeeeeeeeeeeeeeeeeeeeeeeeeeeeeeeeeeee",
                        "amount": "0.002625",
                        "iconUrl": "https://assets.blocksec.com/image/1663669189317-3.png",
                        "isERC1155": false,
                        "isERC721": false,
                        "sign": true,
                        "value": "8.258078246249999722"
                    }
                ]
            }
        ]
    },
    "profile": {
        "basic_info": {
            "baseFee": "53.587330388",
            "blockNumber": 13077238,
            "callData": "0xab834bab0000000000000000000000007be8076f4ea4a4ad08075c2508e481d6c946d12b00000000000000000000000071d17a05730920045e4dd37dac6f9f72954c55c10000000000000000000000004265d230d2d54010d853b107848fc6e0b64c9c24000000000000000000000000000000000000000000000000000000000000000000000000000000000000000002aa731631c6d7f8241d74f906f5b51724ab98f8000000000000000000000000000000000000000000000000000000000000000000000000000000000000000000000000000000000000000000000000000000000000000000000000000000007be8076f4ea4a4ad08075c2508e481d6c946d12b0000000000000000000000004265d230d2d54010d853b107848fc6e0b64c9c2400000000000000000000000000000000000000000000000000000000000000000000000000000000000000005b3256965e7c3cf26e11fcaf296dfc8807c0107300000000000000000000000002aa731631c6d7f8241d74f906f5b51724ab98f80000000000000000000000000000000000000000000000000000000000000000000000000000000000000000000000000000000000000000000000000000000000000000000000000000000000000000000000000000000000000000000002ee000000000000000000000000000000000000000000000000000000000000000000000000000000000000000000000000000000000000000000000000000000000000000000000000000000000000000000000000000000000000000000000000000000000000000000000000000000000000000000000000007c5850872380000000000000000000000000000000000000000000000000000000000000000000000000000000000000000000000000000000000000000000000000006122b114000000000000000000000000000000000000000000000000000000000000000000552736d843c69ffe6ed43407d31b1a4a75ec307429b0ec3788df79bc7a479100000000000000000000000000000000000000000000000000000000000002ee000000000000000000000000000000000000000000000000000000000000000000000000000000000000000000000000000000000000000000000000000000000000000000000000000000000000000000000000000000000000000000000000000000000000000000000000000000000000000000000000007c5850872380000000000000000000000000000000000000000000000000000000000000000000000000000000000000000000000000000000000000000000000000006122a35c0000000000000000000000000000000000000000000000000000000000000000caee0b5ee21d063fe0131fd0842c061bf1453552724ffa949a09825eb92f1bc40000000000000000000000000000000000000000000000000000000000000001000000000000000000000000000000000000000000000000000000000000000000000000000000000000000000000000000000000000000000000000000000000000000000000000000000000000000000000000000000000000000000000000000000000000000000000000000000000000000000000000000000000000000100000000000000000000000000000000000000000000000000000000000000010000000000000000000000000000000000000000000000000000000000000000000000000000000000000000000000000000000000000000000000000000000000000000000000000000000000000000000000000000000000000000000006a0000000000000000000000000000000000000000000000000000000000000074000000000000000000000000000000000000000000000000000000000000007e0000000000000000000000000000000000000000000000000000000000000088000000000000000000000000000000000000000000000000000000000000009200000000000000000000000000000000000000000000000000000000000000940000000000000000000000000000000000000000000000000000000000000001c000000000000000000000000000000000000000000000000000000000000001cf8f73dbd05ab47e7ca9b20f1ed995644e61f68201c4f89393ec6de3bd8de3fc138d93fd5386edd97393c20756e57cad6ef53a429c1102469b3dacf9940fe3f15f8f73dbd05ab47e7ca9b20f1ed995644e61f68201c4f89393ec6de3bd8de3fc138d93fd5386edd97393c20756e57cad6ef53a429c1102469b3dacf9940fe3f152d2193f337a4e446c14caa5c90e7b5849203acd0000000000000000000000000000000000000000000000000000000000000000000000000000000000000006423b872dd000000000000000000000000000000000000000000000000000000000000000000000000000000000000000071d17a05730920045e4dd37dac6f9f72954c55c1000000000000000000000000000000000000000000000000000000000000036400000000000000000000000000000000000000000000000000000000000000000000000000000000000000000000000000000000000000000000006423b872dd0000000000000000000000004265d230d2d54010d853b107848fc6e0b64c9c240000000000000000000000000000000000000000000000000000000000000000000000000000000000000000000000000000000000000000000000000000036400000000000000000000000000000000000000000000000000000000000000000000000000000000000000000000000000000000000000000000006400000000ffffffffffffffffffffffffffffffffffffffffffffffffffffffffffffffff00000000000000000000000000000000000000000000000000000000000000000000000000000000000000000000000000000000000000000000000000000000000000000000000000000000000000000000000000000000000000000000000000000000000000000000000000000000000000000000000000000064000000000000000000000000000000000000000000000000000000000000000000000000ffffffffffffffffffffffffffffffffffffffffffffffffffffffffffffffff00000000000000000000000000000000000000000000000000000000000000000000000000000000000000000000000000000000000000000000000000000000000000000000000000000000000000000000000000000000000000000000000000000000000000000000000000000000000000000000000000000000",
            "debugEnable": true,
            "errorInfo": "",
            "eventCount": 3,
            "feeRecipient": "0x5a0b54d5dc17e0aadc383d2db43b0a0d3e029c4c",
            "formatValue": "0.035",
            "gasLimit": 313437,
            "gasPrice": "55.087330388",
            "gasUsed": 226564,
            "intTxnCount": 10,
            "internalRevert": false,
            "internalRevertMessage": "",
            "isContractCreation": false,
            "isFlashloan": false,
            "maxFee": "66.261293319",
            "nonce": 10,
            "overwritedBlockNumber": -1,
            "priorityFee": "1.5",
            "receiver": "0x7be8076f4ea4a4ad08075c2508e481d6c946d12b",
            "revertMessage": "",
            "sender": "0x71d17a05730920045e4dd37dac6f9f72954c55c1",
            "simulationEnable": true,
            "sourceTxnHash": "0xa3cbd434a4507f110f8a00b9bf8c4a825e80a7dc3a64e6906af41c6e42b36383",
            "status": true,
            "timestamp": "2021-08-22T20:20:13Z",
            "transactionFee": "0.012480805922026832",
            "txnHash": "0xa3cbd434a4507f110f8a00b9bf8c4a825e80a7dc3a64e6906af41c6e42b36383",
            "txnIndex": 16,
            "type": 2,
            "value": "35000000000000000"
        },
        "fund_flow": [
            {
                "amount": "0.035",
                "from": "0x71d17a05730920045e4dd37dac6f9f72954c55c1",
                "id": 1,
                "isERC1155": false,
                "isERC721": false,
                "isReverted": false,
                "order": 1,
                "to": "0x7be8076f4ea4a4ad08075c2508e481d6c946d12b",
                "token": "0xeeeeeeeeeeeeeeeeeeeeeeeeeeeeeeeeeeeeeeee"
            },
            {
                "amount": "0.002625",
                "from": "0x7be8076f4ea4a4ad08075c2508e481d6c946d12b",
                "id": 2,
                "isERC1155": false,
                "isERC721": false,
                "isReverted": false,
                "order": 2,
                "to": "0x5b3256965e7c3cf26e11fcaf296dfc8807c01073",
                "token": "0xeeeeeeeeeeeeeeeeeeeeeeeeeeeeeeeeeeeeeeee"
            },
            {
                "amount": "0.032375",
                "from": "0x7be8076f4ea4a4ad08075c2508e481d6c946d12b",
                "id": 3,
                "isERC1155": false,
                "isERC721": false,
                "isReverted": false,
                "order": 3,
                "to": "0x4265d230d2d54010d853b107848fc6e0b64c9c24",
                "token": "0xeeeeeeeeeeeeeeeeeeeeeeeeeeeeeeeeeeeeeeee"
            },
            {
                "amount": "1",
                "from": "0x4265d230d2d54010d853b107848fc6e0b64c9c24",
                "id": 4,
                "isERC1155": false,
                "isERC721": true,
                "isReverted": false,
                "order": 4,
                "to": "0x71d17a05730920045e4dd37dac6f9f72954c55c1",
                "token": "0x02aa731631c6d7f8241d74f906f5b51724ab98f8",
                "tokenID": "868"
            }
        ],
        "token_infos": [
            {
                "address": "0xc02aaa39b223fe8d0a0e5c4f27ead9083c756cc2",
                "decimals": 18
            },
            {
                "address": "0xeeeeeeeeeeeeeeeeeeeeeeeeeeeeeeeeeeeeeeee",
                "decimals": 18
            }
        ]
    },
    "address_label": {
        "labels": [
            {
                "address": "0x7be8076f4ea4a4ad08075c2508e481d6c946d12b",
                "label": "OpenSea: Wyvern Exchange v1"
            },
            {
                "address": "0xf9e266af4bca5890e2781812cc6a6e89495a79f2",
                "label": "AuthenticatedProxy"
            },
            {
                "address": "0x0000000000000000000000000000000000000003",
                "label": "Precompiled"
            },
            {
                "address": "0xa5409ec958c83c3f309868babaca7c86dcb077c1",
                "label": "OpenSea: Registry"
            },
            {
                "address": "0x02aa731631c6d7f8241d74f906f5b51724ab98f8",
                "label": "BearsOnTheBlock: BEAR Token"
            },
            {
                "address": "0x5b3256965e7c3cf26e11fcaf296dfc8807c01073",
                "label": "OpenSea: Wallet"
            },
            {
                "address": "0x0000000000000000000000000000000000000001",
                "label": "Precompiled"
            },
            {
                "address": "0x0000000000000000000000000000000000000002",
                "label": "Precompiled"
            },
            {
                "address": "0x0000000000000000000000000000000000000004",
                "label": "Precompiled"
            },
            {
                "address": "0xeeeeeeeeeeeeeeeeeeeeeeeeeeeeeeeeeeeeeeee",
                "label": "Ether"
            },
            {
                "address": "0x0000000000000000000000000000000000000000",
                "label": "Null Address"
            },
            {
                "address": "0x9d3078d98441f348308e8863409b3588e48c6912",
                "label": "OwnableDelegateProxy"
            }
        ]
    },
    "trace": {
        "accountLabels": null,
        "dataMap": {
            "-1": {
                "invocation": {
                    "address": "0x71d17a05730920045e4dd37dac6f9f72954c55c1",
                    "callData": "",
                    "decodedMethod": null,
                    "errorInfo": "",
                    "fromAddress": "",
                    "gasUsed": 0,
                    "id": -1,
                    "methodDecoded": false,
                    "operation": "",
                    "output": "",
                    "revert": false,
                    "revertMessage": "",
                    "selector": "",
                    "status": false,
                    "value": ""
                },
                "nodeType": 0
            },
            "0": {
                "invocation": {
                    "address": "0x7be8076f4ea4a4ad08075c2508e481d6c946d12b",
                    "callData": "0x0000000000000000000000007be8076f4ea4a4ad08075c2508e481d6c946d12b00000000000000000000000071d17a05730920045e4dd37dac6f9f72954c55c10000000000000000000000004265d230d2d54010d853b107848fc6e0b64c9c24000000000000000000000000000000000000000000000000000000000000000000000000000000000000000002aa731631c6d7f8241d74f906f5b51724ab98f8000000000000000000000000000000000000000000000000000000000000000000000000000000000000000000000000000000000000000000000000000000000000000000000000000000007be8076f4ea4a4ad08075c2508e481d6c946d12b0000000000000000000000004265d230d2d54010d853b107848fc6e0b64c9c2400000000000000000000000000000000000000000000000000000000000000000000000000000000000000005b3256965e7c3cf26e11fcaf296dfc8807c0107300000000000000000000000002aa731631c6d7f8241d74f906f5b51724ab98f80000000000000000000000000000000000000000000000000000000000000000000000000000000000000000000000000000000000000000000000000000000000000000000000000000000000000000000000000000000000000000000002ee000000000000000000000000000000000000000000000000000000000000000000000000000000000000000000000000000000000000000000000000000000000000000000000000000000000000000000000000000000000000000000000000000000000000000000000000000000000000000000000000007c5850872380000000000000000000000000000000000000000000000000000000000000000000000000000000000000000000000000000000000000000000000000006122b114000000000000000000000000000000000000000000000000000000000000000000552736d843c69ffe6ed43407d31b1a4a75ec307429b0ec3788df79bc7a479100000000000000000000000000000000000000000000000000000000000002ee000000000000000000000000000000000000000000000000000000000000000000000000000000000000000000000000000000000000000000000000000000000000000000000000000000000000000000000000000000000000000000000000000000000000000000000000000000000000000000000000007c5850872380000000000000000000000000000000000000000000000000000000000000000000000000000000000000000000000000000000000000000000000000006122a35c0000000000000000000000000000000000000000000000000000000000000000caee0b5ee21d063fe0131fd0842c061bf1453552724ffa949a09825eb92f1bc40000000000000000000000000000000000000000000000000000000000000001000000000000000000000000000000000000000000000000000000000000000000000000000000000000000000000000000000000000000000000000000000000000000000000000000000000000000000000000000000000000000000000000000000000000000000000000000000000000000000000000000000000000000100000000000000000000000000000000000000000000000000000000000000010000000000000000000000000000000000000000000000000000000000000000000000000000000000000000000000000000000000000000000000000000000000000000000000000000000000000000000000000000000000000000000006a0000000000000000000000000000000000000000000000000000000000000074000000000000000000000000000000000000000000000000000000000000007e0000000000000000000000000000000000000000000000000000000000000088000000000000000000000000000000000000000000000000000000000000009200000000000000000000000000000000000000000000000000000000000000940000000000000000000000000000000000000000000000000000000000000001c000000000000000000000000000000000000000000000000000000000000001cf8f73dbd05ab47e7ca9b20f1ed995644e61f68201c4f89393ec6de3bd8de3fc138d93fd5386edd97393c20756e57cad6ef53a429c1102469b3dacf9940fe3f15f8f73dbd05ab47e7ca9b20f1ed995644e61f68201c4f89393ec6de3bd8de3fc138d93fd5386edd97393c20756e57cad6ef53a429c1102469b3dacf9940fe3f152d2193f337a4e446c14caa5c90e7b5849203acd0000000000000000000000000000000000000000000000000000000000000000000000000000000000000006423b872dd000000000000000000000000000000000000000000000000000000000000000000000000000000000000000071d17a05730920045e4dd37dac6f9f72954c55c1000000000000000000000000000000000000000000000000000000000000036400000000000000000000000000000000000000000000000000000000000000000000000000000000000000000000000000000000000000000000006423b872dd0000000000000000000000004265d230d2d54010d853b107848fc6e0b64c9c240000000000000000000000000000000000000000000000000000000000000000000000000000000000000000000000000000000000000000000000000000036400000000000000000000000000000000000000000000000000000000000000000000000000000000000000000000000000000000000000000000006400000000ffffffffffffffffffffffffffffffffffffffffffffffffffffffffffffffff00000000000000000000000000000000000000000000000000000000000000000000000000000000000000000000000000000000000000000000000000000000000000000000000000000000000000000000000000000000000000000000000000000000000000000000000000000000000000000000000000000064000000000000000000000000000000000000000000000000000000000000000000000000ffffffffffffffffffffffffffffffffffffffffffffffffffffffffffffffff00000000000000000000000000000000000000000000000000000000000000000000000000000000000000000000000000000000000000000000000000000000000000000000000000000000000000000000000000000000000000000000000000000000000000000000000000000000000000000000000000000000",
                    "decodedMethod": {
                        "callParams": [
                            {
                                "name": "addrs",
                                "type": "address[14]",
                                "value": [
                                    "0x7be8076f4ea4a4ad08075c2508e481d6c946d12b",
                                    "0x71d17a05730920045e4dd37dac6f9f72954c55c1",
                                    "0x4265d230d2d54010d853b107848fc6e0b64c9c24",
                                    "0x0000000000000000000000000000000000000000",
                                    "0x02aa731631c6d7f8241d74f906f5b51724ab98f8",
                                    "0x0000000000000000000000000000000000000000",
                                    "0x0000000000000000000000000000000000000000",
                                    "0x7be8076f4ea4a4ad08075c2508e481d6c946d12b",
                                    "0x4265d230d2d54010d853b107848fc6e0b64c9c24",
                                    "0x0000000000000000000000000000000000000000",
                                    "0x5b3256965e7c3cf26e11fcaf296dfc8807c01073",
                                    "0x02aa731631c6d7f8241d74f906f5b51724ab98f8",
                                    "0x0000000000000000000000000000000000000000",
                                    "0x0000000000000000000000000000000000000000"
                                ]
                            },
                            {
                                "name": "uints",
                                "type": "uint256[18]",
                                "value": [
                                    "750",
                                    "0",
                                    "0",
                                    "0",
                                    "35,000,000,000,000,000",
                                    "0",
                                    "1,629,663,508",
                                    "0",
                                    "150,452,647,226,143,905,910,938,069,155,822,472,613,847,090,601,226,266,756,134,998,934,449,440,657",
                                    "750",
                                    "0",
                                    "0",
                                    "0",
                                    "35,000,000,000,000,000",
                                    "0",
                                    "1,629,659,996",
                                    "0",
                                    "91,787,783,492,494,385,197,928,581,225,588,186,161,841,902,023,290,437,842,858,137,722,039,410,039,748"
                                ]
                            },
                            {
                                "name": "feeMethodsSidesKindsHowToCalls",
                                "type": "uint8[8]",
                                "value": [
                                    "1",
                                    "0",
                                    "0",
                                    "0",
                                    "1",
                                    "1",
                                    "0",
                                    "0"
                                ]
                            },
                            {
                                "name": "calldataBuy",
                                "type": "bytes",
                                "value": "0x23b872dd000000000000000000000000000000000000000000000000000000000000000000000000000000000000000071d17a05730920045e4dd37dac6f9f72954c55c10000000000000000000000000000000000000000000000000000000000000364"
                            },
                            {
                                "name": "calldataSell",
                                "type": "bytes",
                                "value": "0x23b872dd0000000000000000000000004265d230d2d54010d853b107848fc6e0b64c9c2400000000000000000000000000000000000000000000000000000000000000000000000000000000000000000000000000000000000000000000000000000364"
                            },
                            {
                                "name": "replacementPatternBuy",
                                "type": "bytes",
                                "value": "0x00000000ffffffffffffffffffffffffffffffffffffffffffffffffffffffffffffffff00000000000000000000000000000000000000000000000000000000000000000000000000000000000000000000000000000000000000000000000000000000"
                            },
                            {
                                "name": "replacementPatternSell",
                                "type": "bytes",
                                "value": "0x000000000000000000000000000000000000000000000000000000000000000000000000ffffffffffffffffffffffffffffffffffffffffffffffffffffffffffffffff0000000000000000000000000000000000000000000000000000000000000000"
                            },
                            {
                                "name": "staticExtradataBuy",
                                "type": "bytes",
                                "value": "0x"
                            },
                            {
                                "name": "staticExtradataSell",
                                "type": "bytes",
                                "value": "0x"
                            },
                            {
                                "name": "vs",
                                "type": "uint8[2]",
                                "value": [
                                    "28",
                                    "28"
                                ]
                            },
                            {
                                "name": "rssMetadata",
                                "type": "bytes32[5]",
                                "value": [
                                    "0xf8f73dbd05ab47e7ca9b20f1ed995644e61f68201c4f89393ec6de3bd8de3fc1",
                                    "0x38d93fd5386edd97393c20756e57cad6ef53a429c1102469b3dacf9940fe3f15",
                                    "0xf8f73dbd05ab47e7ca9b20f1ed995644e61f68201c4f89393ec6de3bd8de3fc1",
                                    "0x38d93fd5386edd97393c20756e57cad6ef53a429c1102469b3dacf9940fe3f15",
                                    "0x2d2193f337a4e446c14caa5c90e7b5849203acd0000000000000000000000000"
                                ]
                            }
                        ],
                        "constructorArguments": "",
                        "name": "atomicMatch_",
                        "returnParams": [],
                        "signature": "atomicMatch_(address[14],uint256[18],uint8[8],bytes,bytes,bytes,bytes,bytes,bytes,uint8[2],bytes32[5])"
                    },
                    "errorInfo": "",
                    "fromAddress": "0x71d17a05730920045e4dd37dac6f9f72954c55c1",
                    "gasUsed": 226564,
                    "id": 0,
                    "methodDecoded": true,
                    "operation": "CALL",
                    "output": "",
                    "revert": false,
                    "revertMessage": "",
                    "selector": "0xab834bab",
                    "status": true,
                    "value": "0.035"
                },
                "nodeType": 0
            },
            "1": {
                "invocation": {
                    "address": "0x0000000000000000000000000000000000000001",
                    "callData": "0x04917638d72f2e6872d7701206bc331f484bc0f3e09d1384a56bf015000000000000000000000000000000000000000000000000000000000000001cf8f73dbd05ab47e7ca9b20f1ed995644e61f68201c4f89393ec6de3bd8de3fc138d93fd5386edd97393c20756e57cad6ef53a429c1102469b3dacf9940fe3f15",
                    "decodedMethod": {
                        "callParams": [
                            {
                                "name": "hash",
                                "type": "bytes32",
                                "value": "0x8006fd1204917638d72f2e6872d7701206bc331f484bc0f3e09d1384a56bf015"
                            },
                            {
                                "name": "v",
                                "type": "uint256",
                                "value": "28"
                            },
                            {
                                "name": "r",
                                "type": "bytes32",
                                "value": "0xf8f73dbd05ab47e7ca9b20f1ed995644e61f68201c4f89393ec6de3bd8de3fc1"
                            },
                            {
                                "name": "s",
                                "type": "bytes32",
                                "value": "0x38d93fd5386edd97393c20756e57cad6ef53a429c1102469b3dacf9940fe3f15"
                            }
                        ],
                        "constructorArguments": "",
                        "name": "ecrecover",
                        "returnParams": [
                            {
                                "name": "",
                                "type": "address",
                                "value": "0x4265d230d2d54010d853b107848fc6e0b64c9c24"
                            }
                        ],
                        "signature": "ecrecover(bytes32,uint256,bytes32,bytes32)"
                    },
                    "errorInfo": "",
                    "fromAddress": "0x7be8076f4ea4a4ad08075c2508e481d6c946d12b",
                    "gasUsed": 3000,
                    "id": 1,
                    "methodDecoded": true,
                    "operation": "CALL",
                    "output": "0x0000000000000000000000004265d230d2d54010d853b107848fc6e0b64c9c24",
                    "revert": false,
                    "revertMessage": "",
                    "selector": "0x8006fd12",
                    "status": true,
                    "value": "0"
                },
                "nodeType": 0
            },
            "10": {
                "invocation": {
                    "address": "0x02aa731631c6d7f8241d74f906f5b51724ab98f8",
                    "callData": "0x0000000000000000000000004265d230d2d54010d853b107848fc6e0b64c9c2400000000000000000000000071d17a05730920045e4dd37dac6f9f72954c55c1000000000000000000000000000000000000000000000000000000000000036400000000000000000000000000000000000000000000000000000000",
                    "decodedMethod": {
                        "callParams": [
                            {
                                "name": "from",
                                "type": "address",
                                "value": "0x4265d230d2d54010d853b107848fc6e0b64c9c24"
                            },
                            {
                                "name": "to",
                                "type": "address",
                                "value": "0x71d17a05730920045e4dd37dac6f9f72954c55c1"
                            },
                            {
                                "decimalAvailable": true,
                                "name": "tokenId",
                                "type": "uint256",
                                "value": "868"
                            }
                        ],
                        "constructorArguments": "",
                        "name": "transferFrom",
                        "returnParams": [],
                        "signature": "transferFrom(address,address,uint256)"
                    },
                    "errorInfo": "",
                    "fromAddress": "0x9d3078d98441f348308e8863409b3588e48c6912",
                    "gasUsed": 86041,
                    "id": 10,
                    "methodDecoded": true,
                    "operation": "CALL",
                    "output": "",
                    "revert": false,
                    "revertMessage": "",
                    "selector": "0x23b872dd",
                    "status": true,
                    "value": "0"
                },
                "nodeType": 0
            },
            "11": {
                "event": {
                    "contract": "0x02aa731631c6d7f8241d74f906f5b51724ab98f8",
                    "decodedLog": {
                        "name": "Approval",
                        "params": [
                            {
                                "name": "owner",
                                "type": "address",
                                "value": "0x4265d230d2d54010d853b107848fc6e0b64c9c24"
                            },
                            {
                                "name": "approved",
                                "type": "address",
                                "value": "0x0000000000000000000000000000000000000000"
                            },
                            {
                                "decimalAvailable": true,
                                "name": "tokenId",
                                "type": "uint256",
                                "value": "868"
                            }
                        ],
                        "signature": "Approval(address,address,uint256)"
                    },
                    "id": 11,
                    "logData": "0x",
                    "logDecoded": true,
                    "operation": "EVENT",
                    "revert": false,
                    "status": true,
                    "topics": [
                        "0x8c5be1e5ebec7d5bd14f71427d1e84f3dd0314c0f7b2291e5b200ac8c7c3b925",
                        "0x0000000000000000000000004265d230d2d54010d853b107848fc6e0b64c9c24",
                        "0x0000000000000000000000000000000000000000000000000000000000000000",
                        "0x0000000000000000000000000000000000000000000000000000000000000364"
                    ]
                },
                "nodeType": 1
            },
            "12": {
                "event": {
                    "contract": "0x02aa731631c6d7f8241d74f906f5b51724ab98f8",
                    "decodedLog": {
                        "name": "Transfer",
                        "params": [
                            {
                                "name": "from",
                                "type": "address",
                                "value": "0x4265d230d2d54010d853b107848fc6e0b64c9c24"
                            },
                            {
                                "name": "to",
                                "type": "address",
                                "value": "0x71d17a05730920045e4dd37dac6f9f72954c55c1"
                            },
                            {
                                "decimalAvailable": true,
                                "name": "tokenId",
                                "type": "uint256",
                                "value": "868"
                            }
                        ],
                        "signature": "Transfer(address,address,uint256)"
                    },
                    "id": 12,
                    "logData": "0x",
                    "logDecoded": true,
                    "operation": "EVENT",
                    "revert": false,
                    "status": true,
                    "topics": [
                        "0xddf252ad1be2c89b69c2b068fc378daa952ba7f163c4a11628f55a4df523b3ef",
                        "0x0000000000000000000000004265d230d2d54010d853b107848fc6e0b64c9c24",
                        "0x00000000000000000000000071d17a05730920045e4dd37dac6f9f72954c55c1",
                        "0x0000000000000000000000000000000000000000000000000000000000000364"
                    ]
                },
                "nodeType": 1
            },
            "13": {
                "event": {
                    "contract": "0x7be8076f4ea4a4ad08075c2508e481d6c946d12b",
                    "decodedLog": {
                        "name": "OrdersMatched",
                        "params": [
                            {
                                "name": "maker",
                                "type": "address",
                                "value": "0x4265d230d2d54010d853b107848fc6e0b64c9c24"
                            },
                            {
                                "name": "taker",
                                "type": "address",
                                "value": "0x71d17a05730920045e4dd37dac6f9f72954c55c1"
                            },
                            {
                                "name": "metadata",
                                "type": "bytes32",
                                "value": "0x2d2193f337a4e446c14caa5c90e7b5849203acd0000000000000000000000000"
                            },
                            {
                                "name": "buyHash",
                                "type": "bytes32",
                                "value": "0x0000000000000000000000000000000000000000000000000000000000000000"
                            },
                            {
                                "name": "sellHash",
                                "type": "bytes32",
                                "value": "0x8006fd1204917638d72f2e6872d7701206bc331f484bc0f3e09d1384a56bf015"
                            },
                            {
                                "name": "price",
                                "type": "uint256",
                                "value": "35,000,000,000,000,000"
                            }
                        ],
                        "signature": "OrdersMatched(bytes32,bytes32,address,address,uint256,bytes32)"
                    },
                    "id": 13,
                    "logData": "0x00000000000000000000000000000000000000000000000000000000000000008006fd1204917638d72f2e6872d7701206bc331f484bc0f3e09d1384a56bf015000000000000000000000000000000000000000000000000007c585087238000",
                    "logDecoded": true,
                    "operation": "EVENT",
                    "revert": false,
                    "status": true,
                    "topics": [
                        "0xc4109843e0b7d514e4c093114b863f8e7d8d9a458c372cd51bfe526b588006c9",
                        "0x0000000000000000000000004265d230d2d54010d853b107848fc6e0b64c9c24",
                        "0x00000000000000000000000071d17a05730920045e4dd37dac6f9f72954c55c1",
                        "0x2d2193f337a4e446c14caa5c90e7b5849203acd0000000000000000000000000"
                    ]
                },
                "nodeType": 1
            },
            "2": {
                "invocation": {
                    "address": "0xa5409ec958c83c3f309868babaca7c86dcb077c1",
                    "callData": "0x0000000000000000000000004265d230d2d54010d853b107848fc6e0b64c9c24",
                    "decodedMethod": {
                        "callParams": [
                            {
                                "name": "",
                                "type": "address",
                                "value": "0x4265d230d2d54010d853b107848fc6e0b64c9c24"
                            }
                        ],
                        "constructorArguments": "",
                        "name": "proxies",
                        "returnParams": [
                            {
                                "name": "",
                                "type": "address",
                                "value": "0x9d3078d98441f348308e8863409b3588e48c6912"
                            }
                        ],
                        "signature": "proxies(address)"
                    },
                    "errorInfo": "",
                    "fromAddress": "0x7be8076f4ea4a4ad08075c2508e481d6c946d12b",
                    "gasUsed": 2782,
                    "id": 2,
                    "methodDecoded": true,
                    "operation": "CALL",
                    "output": "0x0000000000000000000000009d3078d98441f348308e8863409b3588e48c6912",
                    "revert": false,
                    "revertMessage": "",
                    "selector": "0xc4552791",
                    "status": true,
                    "value": "0"
                },
                "nodeType": 0
            },
            "3": {
                "invocation": {
                    "address": "0xa5409ec958c83c3f309868babaca7c86dcb077c1",
                    "callData": "0x",
                    "decodedMethod": {
                        "callParams": [],
                        "constructorArguments": "",
                        "name": "delegateProxyImplementation",
                        "returnParams": [
                            {
                                "name": "",
                                "type": "address",
                                "value": "0xf9e266af4bca5890e2781812cc6a6e89495a79f2"
                            }
                        ],
                        "signature": "delegateProxyImplementation()"
                    },
                    "errorInfo": "",
                    "fromAddress": "0x7be8076f4ea4a4ad08075c2508e481d6c946d12b",
                    "gasUsed": 2613,
                    "id": 3,
                    "methodDecoded": true,
                    "operation": "CALL",
                    "output": "0x000000000000000000000000f9e266af4bca5890e2781812cc6a6e89495a79f2",
                    "revert": false,
                    "revertMessage": "",
                    "selector": "0x97204d8e",
                    "status": true,
                    "value": "0"
                },
                "nodeType": 0
            },
            "4": {
                "invocation": {
                    "address": "0x9d3078d98441f348308e8863409b3588e48c6912",
                    "callData": "0x",
                    "decodedMethod": {
                        "callParams": [],
                        "constructorArguments": "",
                        "name": "implementation",
                        "returnParams": [
                            {
                                "name": "",
                                "type": "address",
                                "value": "0xf9e266af4bca5890e2781812cc6a6e89495a79f2"
                            }
                        ],
                        "signature": "implementation()"
                    },
                    "errorInfo": "",
                    "fromAddress": "0x7be8076f4ea4a4ad08075c2508e481d6c946d12b",
                    "gasUsed": 2525,
                    "id": 4,
                    "methodDecoded": true,
                    "operation": "CALL",
                    "output": "0x000000000000000000000000f9e266af4bca5890e2781812cc6a6e89495a79f2",
                    "revert": false,
                    "revertMessage": "",
                    "selector": "0x5c60da1b",
                    "status": true,
                    "value": "0"
                },
                "nodeType": 0
            },
            "5": {
                "invocation": {
                    "address": "0x5b3256965e7c3cf26e11fcaf296dfc8807c01073",
                    "callData": "0x",
                    "decodedMethod": null,
                    "errorInfo": "",
                    "fromAddress": "0x7be8076f4ea4a4ad08075c2508e481d6c946d12b",
                    "gasUsed": 0,
                    "id": 5,
                    "methodDecoded": false,
                    "operation": "CALL",
                    "output": "",
                    "revert": false,
                    "revertMessage": "",
                    "selector": "fallback",
                    "status": true,
                    "value": "0.002625"
                },
                "nodeType": 0
            },
            "6": {
                "invocation": {
                    "address": "0x4265d230d2d54010d853b107848fc6e0b64c9c24",
                    "callData": "0x",
                    "decodedMethod": null,
                    "errorInfo": "",
                    "fromAddress": "0x7be8076f4ea4a4ad08075c2508e481d6c946d12b",
                    "gasUsed": 0,
                    "id": 6,
                    "methodDecoded": false,
                    "operation": "CALL",
                    "output": "",
                    "revert": false,
                    "revertMessage": "",
                    "selector": "fallback",
                    "status": true,
                    "value": "0.032375"
                },
                "nodeType": 0
            },
            "7": {
                "invocation": {
                    "address": "0x9d3078d98441f348308e8863409b3588e48c6912",
                    "callData": "0x00000000000000000000000002aa731631c6d7f8241d74f906f5b51724ab98f800000000000000000000000000000000000000000000000000000000000000000000000000000000000000000000000000000000000000000000000000000060000000000000000000000000000000000000000000000000000000000000006423b872dd0000000000000000000000004265d230d2d54010d853b107848fc6e0b64c9c2400000000000000000000000071d17a05730920045e4dd37dac6f9f72954c55c1000000000000000000000000000000000000000000000000000000000000036400000000000000000000000000000000000000000000000000000000",
                    "decodedMethod": {
                        "callParams": [
                            {
                                "name": "dest",
                                "type": "address",
                                "value": "0x02aa731631c6d7f8241d74f906f5b51724ab98f8"
                            },
                            {
                                "name": "howToCall",
                                "type": "uint8",
                                "value": "0"
                            },
                            {
                                "name": "calldata",
                                "type": "bytes",
                                "value": "0x23b872dd0000000000000000000000004265d230d2d54010d853b107848fc6e0b64c9c2400000000000000000000000071d17a05730920045e4dd37dac6f9f72954c55c10000000000000000000000000000000000000000000000000000000000000364"
                            }
                        ],
                        "constructorArguments": "",
                        "name": "proxy",
                        "returnParams": [
                            {
                                "name": "result",
                                "type": "bool",
                                "value": true
                            }
                        ],
                        "signature": "proxy(address,uint8,bytes)"
                    },
                    "errorInfo": "",
                    "fromAddress": "0x7be8076f4ea4a4ad08075c2508e481d6c946d12b",
                    "gasUsed": 98198,
                    "id": 7,
                    "methodDecoded": true,
                    "operation": "CALL",
                    "output": "0x0000000000000000000000000000000000000000000000000000000000000001",
                    "revert": false,
                    "revertMessage": "",
                    "selector": "0x1b0f7ba9",
                    "status": true,
                    "value": "0"
                },
                "nodeType": 0
            },
            "8": {
                "invocation": {
                    "address": "0xf9e266af4bca5890e2781812cc6a6e89495a79f2",
                    "callData": "0x00000000000000000000000002aa731631c6d7f8241d74f906f5b51724ab98f800000000000000000000000000000000000000000000000000000000000000000000000000000000000000000000000000000000000000000000000000000060000000000000000000000000000000000000000000000000000000000000006423b872dd0000000000000000000000004265d230d2d54010d853b107848fc6e0b64c9c2400000000000000000000000071d17a05730920045e4dd37dac6f9f72954c55c1000000000000000000000000000000000000000000000000000000000000036400000000000000000000000000000000000000000000000000000000",
                    "decodedMethod": {
                        "callParams": [
                            {
                                "name": "dest",
                                "type": "address",
                                "value": "0x02aa731631c6d7f8241d74f906f5b51724ab98f8"
                            },
                            {
                                "name": "howToCall",
                                "type": "uint8",
                                "value": "0"
                            },
                            {
                                "name": "calldata",
                                "type": "bytes",
                                "value": "0x23b872dd0000000000000000000000004265d230d2d54010d853b107848fc6e0b64c9c2400000000000000000000000071d17a05730920045e4dd37dac6f9f72954c55c10000000000000000000000000000000000000000000000000000000000000364"
                            }
                        ],
                        "constructorArguments": "",
                        "name": "proxy",
                        "returnParams": [
                            {
                                "name": "result",
                                "type": "bool",
                                "value": true
                            }
                        ],
                        "signature": "proxy(address,uint8,bytes)"
                    },
                    "errorInfo": "",
                    "fromAddress": "0x9d3078d98441f348308e8863409b3588e48c6912",
                    "gasUsed": 94938,
                    "id": 8,
                    "methodDecoded": true,
                    "operation": "DELEGATECALL",
                    "output": "0x0000000000000000000000000000000000000000000000000000000000000001",
                    "revert": false,
                    "revertMessage": "",
                    "selector": "0x1b0f7ba9",
                    "status": true,
                    "value": "0"
                },
                "nodeType": 0
            },
            "9": {
                "invocation": {
                    "address": "0xa5409ec958c83c3f309868babaca7c86dcb077c1",
                    "callData": "0x0000000000000000000000007be8076f4ea4a4ad08075c2508e481d6c946d12b",
                    "decodedMethod": {
                        "callParams": [
                            {
                                "name": "",
                                "type": "address",
                                "value": "0x7be8076f4ea4a4ad08075c2508e481d6c946d12b"
                            }
                        ],
                        "constructorArguments": "",
                        "name": "contracts",
                        "returnParams": [
                            {
                                "name": "",
                                "type": "bool",
                                "value": true
                            }
                        ],
                        "signature": "contracts(address)"
                    },
                    "errorInfo": "",
                    "fromAddress": "0x9d3078d98441f348308e8863409b3588e48c6912",
                    "gasUsed": 2553,
                    "id": 9,
                    "methodDecoded": true,
                    "operation": "CALL",
                    "output": "0x0000000000000000000000000000000000000000000000000000000000000001",
                    "revert": false,
                    "revertMessage": "",
                    "selector": "0x69dc9ff3",
                    "status": true,
                    "value": "0"
                },
                "nodeType": 0
            }
        },
        "gasFlame": [
            {
                "children": [
                    {
                        "children": [
                            {
                                "children": [],
                                "depth": 0,
                                "name": "Initial Gas",
                                "value": 37048
                            },
                            {
                                "children": [
                                    {
                                        "children": [],
                                        "depth": 1,
                                        "name": "ecrecover",
                                        "value": 3000
                                    },
                                    {
                                        "children": [],
                                        "depth": 1,
                                        "name": "proxies",
                                        "value": 2782
                                    },
                                    {
                                        "children": [],
                                        "depth": 1,
                                        "name": "delegateProxyImplementation",
                                        "value": 2613
                                    },
                                    {
                                        "children": [],
                                        "depth": 1,
                                        "name": "implementation",
                                        "value": 2525
                                    },
                                    {
                                        "children": [],
                                        "depth": 1,
                                        "name": "fallback",
                                        "value": 0
                                    },
                                    {
                                        "children": [],
                                        "depth": 1,
                                        "name": "fallback",
                                        "value": 0
                                    },
                                    {
                                        "children": [
                                            {
                                                "children": [
                                                    {
                                                        "children": [],
                                                        "depth": 3,
                                                        "name": "contracts",
                                                        "value": 2553
                                                    },
                                                    {
                                                        "children": [],
                                                        "depth": 3,
                                                        "name": "transferFrom",
                                                        "value": 86041
                                                    }
                                                ],
                                                "depth": 2,
                                                "name": "proxy",
                                                "value": 94938
                                            }
                                        ],
                                        "depth": 1,
                                        "name": "proxy",
                                        "value": 98198
                                    }
                                ],
                                "depth": 0,
                                "name": "Executed Gas",
                                "value": 201916
                            }
                        ],
                        "depth": -1,
                        "name": "Actual Gas Used",
                        "value": 226564
                    },
                    {
                        "children": [],
                        "depth": -1,
                        "name": "Refunded Gas",
                        "value": 12400
                    }
                ],
                "depth": -2,
                "name": "Total Gas",
                "value": 238964
            }
        ],
        "isConfirmed": true,
        "mainTrace": [
            {
                "children": [
                    {
                        "children": [
                            {
                                "children": [],
                                "depth": 1,
                                "id": 1,
                                "order": 1
                            },
                            {
                                "children": [],
                                "depth": 1,
                                "id": 2,
                                "order": 2
                            },
                            {
                                "children": [],
                                "depth": 1,
                                "id": 3,
                                "order": 3
                            },
                            {
                                "children": [],
                                "depth": 1,
                                "id": 4,
                                "order": 4
                            },
                            {
                                "children": [],
                                "depth": 1,
                                "id": 5,
                                "order": 5
                            },
                            {
                                "children": [],
                                "depth": 1,
                                "id": 6,
                                "order": 6
                            },
                            {
                                "children": [
                                    {
                                        "children": [
                                            {
                                                "children": [],
                                                "depth": 3,
                                                "id": 9,
                                                "order": 9
                                            },
                                            {
                                                "children": [
                                                    {
                                                        "children": [],
                                                        "depth": 4,
                                                        "id": 11,
                                                        "order": 11
                                                    },
                                                    {
                                                        "children": [],
                                                        "depth": 4,
                                                        "id": 12,
                                                        "order": 12
                                                    }
                                                ],
                                                "depth": 3,
                                                "id": 10,
                                                "order": 10
                                            }
                                        ],
                                        "depth": 2,
                                        "id": 8,
                                        "order": 8
                                    }
                                ],
                                "depth": 1,
                                "id": 7,
                                "order": 7
                            },
                            {
                                "children": [],
                                "depth": 1,
                                "id": 13,
                                "order": 13
                            }
                        ],
                        "depth": 0,
                        "id": 0,
                        "order": 0
                    }
                ],
                "depth": -1,
                "id": -1,
                "order": -1
            }
        ],
        "mainTraceNodeCount": 14,
        "parentIdMap": {
            "0": -1,
            "1": 0,
            "10": 8,
            "11": 10,
            "12": 10,
            "13": 0,
            "2": 0,
            "3": 0,
            "4": 0,
            "5": 0,
            "6": 0,
            "7": 0,
            "8": 7,
            "9": 8
        },
        "tidyTrace": [
            {
                "children": [
                    {
                        "children": [
                            {
                                "children": [],
                                "depth": 1,
                                "id": 1,
                                "order": 1
                            },
                            {
                                "children": [],
                                "depth": 1,
                                "id": 2,
                                "order": 2
                            },
                            {
                                "children": [],
                                "depth": 1,
                                "id": 3,
                                "order": 3
                            },
                            {
                                "children": [],
                                "depth": 1,
                                "id": 4,
                                "order": 4
                            },
                            {
                                "children": [],
                                "depth": 1,
                                "id": 5,
                                "order": 5
                            },
                            {
                                "children": [],
                                "depth": 1,
                                "id": 6,
                                "order": 6
                            },
                            {
                                "children": [
                                    {
                                        "children": [
                                            {
                                                "children": [],
                                                "depth": 3,
                                                "id": 9,
                                                "order": 9
                                            },
                                            {
                                                "children": [
                                                    {
                                                        "children": [],
                                                        "depth": 4,
                                                        "id": 11,
                                                        "order": 11
                                                    },
                                                    {
                                                        "children": [],
                                                        "depth": 4,
                                                        "id": 12,
                                                        "order": 12
                                                    }
                                                ],
                                                "depth": 3,
                                                "id": 10,
                                                "order": 10
                                            }
                                        ],
                                        "depth": 2,
                                        "id": 8,
                                        "order": 8
                                    }
                                ],
                                "depth": 1,
                                "id": 7,
                                "order": 7
                            },
                            {
                                "children": [],
                                "depth": 1,
                                "id": 13,
                                "order": 13
                            }
                        ],
                        "depth": 0,
                        "id": 0,
                        "order": 0
                    }
                ],
                "depth": -1,
                "id": -1,
                "order": -1
            }
        ],
        "tidyTraceNodeCount": 14
    },
    "state_change": {
        "stateChanges": [
            {
                "address": "0x02aa731631c6d7f8241d74f906f5b51724ab98f8",
                "erc": "ERC-721",
                "slots": [
                    {
                        "current": "0x0000000000000000000000000000000000000000000000000000000000001718",
                        "key": "0xd1007f2bc8ac9c89bf32c93703db206301c682492ce21444eb10ab755c09d1f4",
                        "prev": "0x0000000000000000000000000000000000000000000000000000000000000364"
                    },
                    {
                        "current": "0x0000000000000000000000000000000000000000000000000000000000000000",
                        "key": "0x5baa75d4bf3c11476f9d8afc7e716c658e909cdafa2e3967b5c161178a9e505a",
                        "prev": "0x0000000000000000000000000000000000000000000000000000000000000003"
                    },
                    {
                        "current": "0x0000000000000000000000000000000000000000000000000000000000000000",
                        "key": "0x18df4f21a50b50aa23168d88c9b6d44444845b406b79cb06b8265a0da3133168",
                        "prev": "0x0000000000000000000000000000000000000000000000000000000000001718"
                    },
                    {
                        "current": "0x0000000000000000000000000000000000000000000000000000000000000364",
                        "key": "0x432f5dc154a3ae63fda69981cb393d4513bf1f34cce2212cd21eae7ed13ffc54",
                        "prev": "0x0000000000000000000000000000000000000000000000000000000000000000"
                    },
                    {
                        "current": "0x0000000000000000000000000000000000000000000000000000000000000003",
                        "key": "0xde81a853110810d5af306d389c9804709f76d7c8caf13351ad1b8cb26b04ffc3",
                        "prev": "0x0000000000000000000000000000000000000000000000000000000000000004"
                    },
                    {
                        "current": "0x0000000000000000000000000000000000000000000000000000000000000001",
                        "key": "0x311a98ad900e287b8b0c721e956157249b3f052dd2aaeae5719b18f6f1a3c5e1",
                        "prev": "0x0000000000000000000000000000000000000000000000000000000000000000"
                    },
                    {
                        "current": "0x00000000000000000000000071d17a05730920045e4dd37dac6f9f72954c55c1",
                        "key": "0x84acd96312650566eb8b99d31c059a722af4dbd3cd19b3d3144167e5c3040210",
                        "prev": "0x0000000000000000000000004265d230d2d54010d853b107848fc6e0b64c9c24"
                    }
                ],
                "storageVariables": [
                    {
                        "name": "_ownedTokensIndex",
                        "type": "mapping(uint256 => uint256)",
                        "value": {
                            "pairs": [
                                {
                                    "key": "5912",
                                    "value": {
                                        "current": "0",
                                        "prev": "3",
                                        "typeTag": 1
                                    }
                                }
                            ],
                            "typeTag": 4
                        }
                    },
                    {
                        "name": "_ownedTokens",
                        "type": "mapping(address => mapping(uint256 => uint256))",
                        "value": {
                            "pairs": [
                                {
                                    "key": "0x4265d230d2d54010d853b107848fc6e0b64c9c24",
                                    "value": {
                                        "pairs": [
                                            {
                                                "key": "0",
                                                "value": {
                                                    "current": "5912",
                                                    "prev": "868",
                                                    "typeTag": 1
                                                }
                                            },
                                            {
                                                "key": "3",
                                                "value": {
                                                    "current": "0",
                                                    "prev": "5912",
                                                    "typeTag": 1
                                                }
                                            }
                                        ],
                                        "typeTag": 4
                                    }
                                },
                                {
                                    "key": "0x71d17a05730920045e4dd37dac6f9f72954c55c1",
                                    "value": {
                                        "pairs": [
                                            {
                                                "key": "0",
                                                "value": {
                                                    "current": "868",
                                                    "prev": "0",
                                                    "typeTag": 1
                                                }
                                            }
                                        ],
                                        "typeTag": 4
                                    }
                                }
                            ],
                            "typeTag": 4
                        }
                    },
                    {
                        "name": "_balances",
                        "type": "mapping(address => uint256)",
                        "value": {
                            "pairs": [
                                {
                                    "key": "0x4265d230d2d54010d853b107848fc6e0b64c9c24",
                                    "value": {
                                        "current": "3",
                                        "prev": "4",
                                        "typeTag": 1
                                    }
                                },
                                {
                                    "key": "0x71d17a05730920045e4dd37dac6f9f72954c55c1",
                                    "value": {
                                        "current": "1",
                                        "prev": "0",
                                        "typeTag": 1
                                    }
                                }
                            ],
                            "typeTag": 4
                        }
                    },
                    {
                        "name": "_owners",
                        "type": "mapping(uint256 => address)",
                        "value": {
                            "pairs": [
                                {
                                    "key": "868",
                                    "value": {
                                        "current": "0x71d17a05730920045e4dd37dac6f9f72954c55c1",
                                        "prev": "0x4265d230d2d54010d853b107848fc6e0b64c9c24",
                                        "typeTag": 1
                                    }
                                }
                            ],
                            "typeTag": 4
                        }
                    }
                ]
            },
            {
                "address": "0x7be8076f4ea4a4ad08075c2508e481d6c946d12b",
                "erc": "",
                "slots": [
                    {
                        "current": "0x0000000000000000000000000000000000000000000000000000000000000001",
                        "key": "0xe753992b7b5cf71bc425b22cd48a070e7a44067829ef0ea571ad354436b1aadd",
                        "prev": "0x0000000000000000000000000000000000000000000000000000000000000000"
                    }
                ],
                "storageVariables": [
                    {
                        "name": "cancelledOrFinalized",
                        "type": "mapping(bytes32 => bool)",
                        "value": {
                            "pairs": [
                                {
                                    "key": "0x8006fd1204917638d72f2e6872d7701206bc331f484bc0f3e09d1384a56bf015",
                                    "value": {
                                        "current": "true",
                                        "prev": "false",
                                        "typeTag": 1
                                    }
                                }
                            ],
                            "typeTag": 4
                        }
                    }
                ]
            }
        ]
    }
}