{
    "balance_change": {
        "balanceChanges": [
            {
                "account": "0xa17e1a301b0fde493a1e24f954ff85a1c9cc93ff",
                "assets": [
                    {
                        "address": "0xc5d105e63711398af9bbff092d4b6769c82f793d",
                        "amount": "160",
                        "iconUrl": "",
                        "isERC1155": false,
                        "isERC721": false,
                        "sign": false,
                        "value": ""
                    }
                ]
            },
            {
                "account": "0x13c6e5107fbf9aa0143aa24fec4bf13751754949",
                "assets": [
                    {
                        "address": "0xc5d105e63711398af9bbff092d4b6769c82f793d",
                        "amount": "8",
                        "iconUrl": "",
                        "isERC1155": false,
                        "isERC721": false,
                        "sign": true,
                        "value": ""
                    }
                ]
            },
            {
                "account": "0x228d76cfb17c8255fbe6508ffaa540fe9133ed53",
                "assets": [
                    {
                        "address": "0xc5d105e63711398af9bbff092d4b6769c82f793d",
                        "amount": "8",
                        "iconUrl": "",
                        "isERC1155": false,
                        "isERC721": false,
                        "sign": true,
                        "value": ""
                    }
                ]
            },
            {
                "account": "0x268947334fcb81f2df067825a88ab2d8908ddd94",
                "assets": [
                    {
                        "address": "0xc5d105e63711398af9bbff092d4b6769c82f793d",
                        "amount": "8",
                        "iconUrl": "",
                        "isERC1155": false,
                        "isERC721": false,
                        "sign": true,
                        "value": ""
                    }
                ]
            },
            {
                "account": "0x38731c51243acb5487e0b87de174238e71af7e5e",
                "assets": [
                    {
                        "address": "0xc5d105e63711398af9bbff092d4b6769c82f793d",
                        "amount": "8",
                        "iconUrl": "",
                        "isERC1155": false,
                        "isERC721": false,
                        "sign": true,
                        "value": ""
                    }
                ]
            },
            {
                "account": "0x52f99960f7f3e544a10be81e7bddd2dfbd658025",
                "assets": [
                    {
                        "address": "0xc5d105e63711398af9bbff092d4b6769c82f793d",
                        "amount": "8",
                        "iconUrl": "",
                        "isERC1155": false,
                        "isERC721": false,
                        "sign": true,
                        "value": ""
                    }
                ]
            },
            {
                "account": "0x56f368196121ab51ca571251e4bc525f4944aaa2",
                "assets": [
                    {
                        "address": "0xc5d105e63711398af9bbff092d4b6769c82f793d",
                        "amount": "8",
                        "iconUrl": "",
                        "isERC1155": false,
                        "isERC721": false,
                        "sign": true,
                        "value": ""
                    }
                ]
            },
            {
                "account": "0x5d050a0be208891730ec07693b8bcbd0552508e0",
                "assets": [
                    {
                        "address": "0xc5d105e63711398af9bbff092d4b6769c82f793d",
                        "amount": "8",
                        "iconUrl": "",
                        "isERC1155": false,
                        "isERC721": false,
                        "sign": true,
                        "value": ""
                    }
                ]
            },
            {
                "account": "0x61b3a9bb67e9e70a65157eec66131dd73586bda2",
                "assets": [
                    {
                        "address": "0xc5d105e63711398af9bbff092d4b6769c82f793d",
                        "amount": "8",
                        "iconUrl": "",
                        "isERC1155": false,
                        "isERC721": false,
                        "sign": true,
                        "value": ""
                    }
                ]
            },
            {
                "account": "0x6711fae1e262241fdf2e6492ed0ac4684dae28e8",
                "assets": [
                    {
                        "address": "0xc5d105e63711398af9bbff092d4b6769c82f793d",
                        "amount": "8",
                        "iconUrl": "",
                        "isERC1155": false,
                        "isERC721": false,
                        "sign": true,
                        "value": ""
                    }
                ]
            },
            {
                "account": "0x6d574ce9ea06d269697e2b13820db1d895c82360",
                "assets": [
                    {
                        "address": "0xc5d105e63711398af9bbff092d4b6769c82f793d",
                        "amount": "8",
                        "iconUrl": "",
                        "isERC1155": false,
                        "isERC721": false,
                        "sign": true,
                        "value": ""
                    }
                ]
            },
            {
                "account": "0x7b30d475f939738645c1758f227ae27d7e125a03",
                "assets": [
                    {
                        "address": "0xc5d105e63711398af9bbff092d4b6769c82f793d",
                        "amount": "8",
                        "iconUrl": "",
                        "isERC1155": false,
                        "isERC721": false,
                        "sign": true,
                        "value": ""
                    }
                ]
            },
            {
                "account": "0x7b7157f938f3d84130486a2bb44cf76886e45a32",
                "assets": [
                    {
                        "address": "0xc5d105e63711398af9bbff092d4b6769c82f793d",
                        "amount": "8",
                        "iconUrl": "",
                        "isERC1155": false,
                        "isERC721": false,
                        "sign": true,
                        "value": ""
                    }
                ]
            },
            {
                "account": "0x8411ec8b4d5af5e00a4ebcb65f5cd3d94b782df4",
                "assets": [
                    {
                        "address": "0xc5d105e63711398af9bbff092d4b6769c82f793d",
                        "amount": "8",
                        "iconUrl": "",
                        "isERC1155": false,
                        "isERC721": false,
                        "sign": true,
                        "value": ""
                    }
                ]
            },
            {
                "account": "0x90e5651e275f853083c4f4539cd2502a96724a06",
                "assets": [
                    {
                        "address": "0xc5d105e63711398af9bbff092d4b6769c82f793d",
                        "amount": "8",
                        "iconUrl": "",
                        "isERC1155": false,
                        "isERC721": false,
                        "sign": true,
                        "value": ""
                    }
                ]
            },
            {
                "account": "0x9f3090f8388e0f7fe6de710e2d945fdf1edfe451",
                "assets": [
                    {
                        "address": "0xc5d105e63711398af9bbff092d4b6769c82f793d",
                        "amount": "8",
                        "iconUrl": "",
                        "isERC1155": false,
                        "isERC721": false,
                        "sign": true,
                        "value": ""
                    }
                ]
            },
            {
                "account": "0xa11d72199c92385b7528710ce8e1d8f569ca5195",
                "assets": [
                    {
                        "address": "0xc5d105e63711398af9bbff092d4b6769c82f793d",
                        "amount": "8",
                        "iconUrl": "",
                        "isERC1155": false,
                        "isERC721": false,
                        "sign": true,
                        "value": ""
                    }
                ]
            },
            {
                "account": "0xa5ab4ae6ebeb8340996717b5666de3c6866164fa",
                "assets": [
                    {
                        "address": "0xc5d105e63711398af9bbff092d4b6769c82f793d",
                        "amount": "8",
                        "iconUrl": "",
                        "isERC1155": false,
                        "isERC721": false,
                        "sign": true,
                        "value": ""
                    }
                ]
            },
            {
                "account": "0xafec960cd1dae8d0f9e5bdc1debe96b9a600a5af",
                "assets": [
                    {
                        "address": "0xc5d105e63711398af9bbff092d4b6769c82f793d",
                        "amount": "8",
                        "iconUrl": "",
                        "isERC1155": false,
                        "isERC721": false,
                        "sign": true,
                        "value": ""
                    }
                ]
            },
            {
                "account": "0xe0c90e18568cefbf09898a5036e44ce2a2e9eadc",
                "assets": [
                    {
                        "address": "0xc5d105e63711398af9bbff092d4b6769c82f793d",
                        "amount": "8",
                        "iconUrl": "",
                        "isERC1155": false,
                        "isERC721": false,
                        "sign": true,
                        "value": ""
                    }
                ]
            },
            {
                "account": "0xe29765a716670455923ce1cbbdfe452cad311fc0",
                "assets": [
                    {
                        "address": "0xc5d105e63711398af9bbff092d4b6769c82f793d",
                        "amount": "8",
                        "iconUrl": "",
                        "isERC1155": false,
                        "isERC721": false,
                        "sign": true,
                        "value": ""
                    }
                ]
            }
        ]
    },
    "profile": {
        "basic_info": {
            "baseFee": "",
            "blockNumber": 5208639,
            "callData": "0x83f12fec00000000000000000000000000000000000000000000000000000000000000400000000000000000000000000000000000000000000000006f05b59d3b2000000000000000000000000000000000000000000000000000000000000000000014000000000000000000000000afec960cd1dae8d0f9e5bdc1debe96b9a600a5af00000000000000000000000061b3a9bb67e9e70a65157eec66131dd73586bda20000000000000000000000006711fae1e262241fdf2e6492ed0ac4684dae28e8000000000000000000000000a5ab4ae6ebeb8340996717b5666de3c6866164fa0000000000000000000000007b30d475f939738645c1758f227ae27d7e125a03000000000000000000000000268947334fcb81f2df067825a88ab2d8908ddd94000000000000000000000000228d76cfb17c8255fbe6508ffaa540fe9133ed530000000000000000000000008411ec8b4d5af5e00a4ebcb65f5cd3d94b782df40000000000000000000000007b7157f938f3d84130486a2bb44cf76886e45a3200000000000000000000000038731c51243acb5487e0b87de174238e71af7e5e00000000000000000000000090e5651e275f853083c4f4539cd2502a96724a060000000000000000000000006d574ce9ea06d269697e2b13820db1d895c8236000000000000000000000000056f368196121ab51ca571251e4bc525f4944aaa2000000000000000000000000e0c90e18568cefbf09898a5036e44ce2a2e9eadc0000000000000000000000005d050a0be208891730ec07693b8bcbd0552508e000000000000000000000000052f99960f7f3e544a10be81e7bddd2dfbd658025000000000000000000000000a11d72199c92385b7528710ce8e1d8f569ca51950000000000000000000000009f3090f8388e0f7fe6de710e2d945fdf1edfe45100000000000000000000000013c6e5107fbf9aa0143aa24fec4bf13751754949000000000000000000000000e29765a716670455923ce1cbbdfe452cad311fc0",
            "debugEnable": true,
            "errorInfo": "",
            "eventCount": 20,
            "feeRecipient": "0xb2930b35844a230f00e51431acae96fe543a0347",
            "formatValue": "0",
            "gasLimit": 4000000,
            "gasPrice": "2",
            "gasUsed": 433796,
            "intTxnCount": 0,
            "internalRevert": false,
            "internalRevertMessage": "",
            "isContractCreation": false,
            "isFlashloan": false,
            "maxFee": "",
            "nonce": 56,
            "overwritedBlockNumber": -1,
            "priorityFee": "",
            "receiver": "0xc5d105e63711398af9bbff092d4b6769c82f793d",
            "revertMessage": "",
            "sender": "0xa17e1a301b0fde493a1e24f954ff85a1c9cc93ff",
            "simulationEnable": true,
            "sourceTxnHash": "0xa3f0b38d9df42da1115e9a89556cf13b87263ffe6ff7b73b1d62dc0cfa7bbfe2",
            "status": true,
            "timestamp": "2018-03-06T20:26:33Z",
            "transactionFee": "0.000867592",
            "txnHash": "0xa3f0b38d9df42da1115e9a89556cf13b87263ffe6ff7b73b1d62dc0cfa7bbfe2",
            "txnIndex": 72,
            "type": 0,
            "value": "0"
        },
        "fund_flow": [
            {
                "amount": "8",
                "from": "0xa17e1a301b0fde493a1e24f954ff85a1c9cc93ff",
                "id": 1,
                "isERC1155": false,
                "isERC721": false,
                "isReverted": false,
                "order": 1,
                "to": "0xafec960cd1dae8d0f9e5bdc1debe96b9a600a5af",
                "token": "0xc5d105e63711398af9bbff092d4b6769c82f793d"
            },
            {
                "amount": "8",
                "from": "0xa17e1a301b0fde493a1e24f954ff85a1c9cc93ff",
                "id": 2,
                "isERC1155": false,
                "isERC721": false,
                "isReverted": false,
                "order": 2,
                "to": "0x61b3a9bb67e9e70a65157eec66131dd73586bda2",
                "token": "0xc5d105e63711398af9bbff092d4b6769c82f793d"
            },
            {
                "amount": "8",
                "from": "0xa17e1a301b0fde493a1e24f954ff85a1c9cc93ff",
                "id": 3,
                "isERC1155": false,
                "isERC721": false,
                "isReverted": false,
                "order": 3,
                "to": "0x6711fae1e262241fdf2e6492ed0ac4684dae28e8",
                "token": "0xc5d105e63711398af9bbff092d4b6769c82f793d"
            },
            {
                "amount": "8",
                "from": "0xa17e1a301b0fde493a1e24f954ff85a1c9cc93ff",
                "id": 4,
                "isERC1155": false,
                "isERC721": false,
                "isReverted": false,
                "order": 4,
                "to": "0xa5ab4ae6ebeb8340996717b5666de3c6866164fa",
                "token": "0xc5d105e63711398af9bbff092d4b6769c82f793d"
            },
            {
                "amount": "8",
                "from": "0xa17e1a301b0fde493a1e24f954ff85a1c9cc93ff",
                "id": 5,
                "isERC1155": false,
                "isERC721": false,
                "isReverted": false,
                "order": 5,
                "to": "0x7b30d475f939738645c1758f227ae27d7e125a03",
                "token": "0xc5d105e63711398af9bbff092d4b6769c82f793d"
            },
            {
                "amount": "8",
                "from": "0xa17e1a301b0fde493a1e24f954ff85a1c9cc93ff",
                "id": 6,
                "isERC1155": false,
                "isERC721": false,
                "isReverted": false,
                "order": 6,
                "to": "0x268947334fcb81f2df067825a88ab2d8908ddd94",
                "token": "0xc5d105e63711398af9bbff092d4b6769c82f793d"
            },
            {
                "amount": "8",
                "from": "0xa17e1a301b0fde493a1e24f954ff85a1c9cc93ff",
                "id": 7,
                "isERC1155": false,
                "isERC721": false,
                "isReverted": false,
                "order": 7,
                "to": "0x228d76cfb17c8255fbe6508ffaa540fe9133ed53",
                "token": "0xc5d105e63711398af9bbff092d4b6769c82f793d"
            },
            {
                "amount": "8",
                "from": "0xa17e1a301b0fde493a1e24f954ff85a1c9cc93ff",
                "id": 8,
                "isERC1155": false,
                "isERC721": false,
                "isReverted": false,
                "order": 8,
                "to": "0x8411ec8b4d5af5e00a4ebcb65f5cd3d94b782df4",
                "token": "0xc5d105e63711398af9bbff092d4b6769c82f793d"
            },
            {
                "amount": "8",
                "from": "0xa17e1a301b0fde493a1e24f954ff85a1c9cc93ff",
                "id": 9,
                "isERC1155": false,
                "isERC721": false,
                "isReverted": false,
                "order": 9,
                "to": "0x7b7157f938f3d84130486a2bb44cf76886e45a32",
                "token": "0xc5d105e63711398af9bbff092d4b6769c82f793d"
            },
            {
                "amount": "8",
                "from": "0xa17e1a301b0fde493a1e24f954ff85a1c9cc93ff",
                "id": 10,
                "isERC1155": false,
                "isERC721": false,
                "isReverted": false,
                "order": 10,
                "to": "0x38731c51243acb5487e0b87de174238e71af7e5e",
                "token": "0xc5d105e63711398af9bbff092d4b6769c82f793d"
            },
            {
                "amount": "8",
                "from": "0xa17e1a301b0fde493a1e24f954ff85a1c9cc93ff",
                "id": 11,
                "isERC1155": false,
                "isERC721": false,
                "isReverted": false,
                "order": 11,
                "to": "0x90e5651e275f853083c4f4539cd2502a96724a06",
                "token": "0xc5d105e63711398af9bbff092d4b6769c82f793d"
            },
            {
                "amount": "8",
                "from": "0xa17e1a301b0fde493a1e24f954ff85a1c9cc93ff",
                "id": 12,
                "isERC1155": false,
                "isERC721": false,
                "isReverted": false,
                "order": 12,
                "to": "0x6d574ce9ea06d269697e2b13820db1d895c82360",
                "token": "0xc5d105e63711398af9bbff092d4b6769c82f793d"
            },
            {
                "amount": "8",
                "from": "0xa17e1a301b0fde493a1e24f954ff85a1c9cc93ff",
                "id": 13,
                "isERC1155": false,
                "isERC721": false,
                "isReverted": false,
                "order": 13,
                "to": "0x56f368196121ab51ca571251e4bc525f4944aaa2",
                "token": "0xc5d105e63711398af9bbff092d4b6769c82f793d"
            },
            {
                "amount": "8",
                "from": "0xa17e1a301b0fde493a1e24f954ff85a1c9cc93ff",
                "id": 14,
                "isERC1155": false,
                "isERC721": false,
                "isReverted": false,
                "order": 14,
                "to": "0xe0c90e18568cefbf09898a5036e44ce2a2e9eadc",
                "token": "0xc5d105e63711398af9bbff092d4b6769c82f793d"
            },
            {
                "amount": "8",
                "from": "0xa17e1a301b0fde493a1e24f954ff85a1c9cc93ff",
                "id": 15,
                "isERC1155": false,
                "isERC721": false,
                "isReverted": false,
                "order": 15,
                "to": "0x5d050a0be208891730ec07693b8bcbd0552508e0",
                "token": "0xc5d105e63711398af9bbff092d4b6769c82f793d"
            },
            {
                "amount": "8",
                "from": "0xa17e1a301b0fde493a1e24f954ff85a1c9cc93ff",
                "id": 16,
                "isERC1155": false,
                "isERC721": false,
                "isReverted": false,
                "order": 16,
                "to": "0x52f99960f7f3e544a10be81e7bddd2dfbd658025",
                "token": "0xc5d105e63711398af9bbff092d4b6769c82f793d"
            },
            {
                "amount": "8",
                "from": "0xa17e1a301b0fde493a1e24f954ff85a1c9cc93ff",
                "id": 17,
                "isERC1155": false,
                "isERC721": false,
                "isReverted": false,
                "order": 17,
                "to": "0xa11d72199c92385b7528710ce8e1d8f569ca5195",
                "token": "0xc5d105e63711398af9bbff092d4b6769c82f793d"
            },
            {
                "amount": "8",
                "from": "0xa17e1a301b0fde493a1e24f954ff85a1c9cc93ff",
                "id": 18,
                "isERC1155": false,
                "isERC721": false,
                "isReverted": false,
                "order": 18,
                "to": "0x9f3090f8388e0f7fe6de710e2d945fdf1edfe451",
                "token": "0xc5d105e63711398af9bbff092d4b6769c82f793d"
            },
            {
                "amount": "8",
                "from": "0xa17e1a301b0fde493a1e24f954ff85a1c9cc93ff",
                "id": 19,
                "isERC1155": false,
                "isERC721": false,
                "isReverted": false,
                "order": 19,
                "to": "0x13c6e5107fbf9aa0143aa24fec4bf13751754949",
                "token": "0xc5d105e63711398af9bbff092d4b6769c82f793d"
            },
            {
                "amount": "8",
                "from": "0xa17e1a301b0fde493a1e24f954ff85a1c9cc93ff",
                "id": 20,
                "isERC1155": false,
                "isERC721": false,
                "isReverted": false,
                "order": 20,
                "to": "0xe29765a716670455923ce1cbbdfe452cad311fc0",
                "token": "0xc5d105e63711398af9bbff092d4b6769c82f793d"
            }
        ],
        "token_infos": [
            {
                "address": "0xc02aaa39b223fe8d0a0e5c4f27ead9083c756cc2",
                "decimals": 18
            },
            {
                "address": "0xc5d105e63711398af9bbff092d4b6769c82f793d",
                "decimals": 18
            },
            {
                "address": "0xeeeeeeeeeeeeeeeeeeeeeeeeeeeeeeeeeeeeeeee",
                "decimals": 18
            }
        ]
    },
    "address_label": {
        "labels": [
            {
                "address": "0x0000000000000000000000000000000000000003",
                "label": "Precompiled"
            },
            {
                "address": "0x0000000000000000000000000000000000000004",
                "label": "Precompiled"
            },
            {
                "address": "0xeeeeeeeeeeeeeeeeeeeeeeeeeeeeeeeeeeeeeeee",
                "label": "Ether"
            },
            {
                "address": "0xc5d105e63711398af9bbff092d4b6769c82f793d",
                "label": "Beauty Chain: BEC Token"
            },
            {
                "address": "0x0000000000000000000000000000000000000001",
                "label": "Precompiled"
            },
            {
                "address": "0x0000000000000000000000000000000000000002",
                "label": "Precompiled"
            }
        ]
    },
    "trace": {
        "accountLabels": null,
        "dataMap": {
            "-1": {
                "invocation": {
                    "address": "0xa17e1a301b0fde493a1e24f954ff85a1c9cc93ff",
                    "callData": "",
                    "decodedMethod": null,
                    "errorInfo": "",
                    "fromAddress": "",
                    "gasUsed": 0,
                    "id": -1,
                    "methodDecoded": false,
                    "operation": "",
                    "output": "",
                    "revert": false,
                    "revertMessage": "",
                    "selector": "",
                    "status": false,
                    "value": ""
                },
                "nodeType": 0
            },
            "0": {
                "invocation": {
                    "address": "0xc5d105e63711398af9bbff092d4b6769c82f793d",
                    "callData": "0x00000000000000000000000000000000000000000000000000000000000000400000000000000000000000000000000000000000000000006f05b59d3b2000000000000000000000000000000000000000000000000000000000000000000014000000000000000000000000afec960cd1dae8d0f9e5bdc1debe96b9a600a5af00000000000000000000000061b3a9bb67e9e70a65157eec66131dd73586bda20000000000000000000000006711fae1e262241fdf2e6492ed0ac4684dae28e8000000000000000000000000a5ab4ae6ebeb8340996717b5666de3c6866164fa0000000000000000000000007b30d475f939738645c1758f227ae27d7e125a03000000000000000000000000268947334fcb81f2df067825a88ab2d8908ddd94000000000000000000000000228d76cfb17c8255fbe6508ffaa540fe9133ed530000000000000000000000008411ec8b4d5af5e00a4ebcb65f5cd3d94b782df40000000000000000000000007b7157f938f3d84130486a2bb44cf76886e45a3200000000000000000000000038731c51243acb5487e0b87de174238e71af7e5e00000000000000000000000090e5651e275f853083c4f4539cd2502a96724a060000000000000000000000006d574ce9ea06d269697e2b13820db1d895c8236000000000000000000000000056f368196121ab51ca571251e4bc525f4944aaa2000000000000000000000000e0c90e18568cefbf09898a5036e44ce2a2e9eadc0000000000000000000000005d050a0be208891730ec07693b8bcbd0552508e000000000000000000000000052f99960f7f3e544a10be81e7bddd2dfbd658025000000000000000000000000a11d72199c92385b7528710ce8e1d8f569ca51950000000000000000000000009f3090f8388e0f7fe6de710e2d945fdf1edfe45100000000000000000000000013c6e5107fbf9aa0143aa24fec4bf13751754949000000000000000000000000e29765a716670455923ce1cbbdfe452cad311fc0",
                    "decodedMethod": {
                        "callParams": [
                            {
                                "name": "_receivers",
                                "type": "address[]",
                                "value": [
                                    "0xafec960cd1dae8d0f9e5bdc1debe96b9a600a5af",
                                    "0x61b3a9bb67e9e70a65157eec66131dd73586bda2",
                                    "0x6711fae1e262241fdf2e6492ed0ac4684dae28e8",
                                    "0xa5ab4ae6ebeb8340996717b5666de3c6866164fa",
                                    "0x7b30d475f939738645c1758f227ae27d7e125a03",
                                    "0x268947334fcb81f2df067825a88ab2d8908ddd94",
                                    "0x228d76cfb17c8255fbe6508ffaa540fe9133ed53",
                                    "0x8411ec8b4d5af5e00a4ebcb65f5cd3d94b782df4",
                                    "0x7b7157f938f3d84130486a2bb44cf76886e45a32",
                                    "0x38731c51243acb5487e0b87de174238e71af7e5e",
                                    "0x90e5651e275f853083c4f4539cd2502a96724a06",
                                    "0x6d574ce9ea06d269697e2b13820db1d895c82360",
                                    "0x56f368196121ab51ca571251e4bc525f4944aaa2",
                                    "0xe0c90e18568cefbf09898a5036e44ce2a2e9eadc",
                                    "0x5d050a0be208891730ec07693b8bcbd0552508e0",
                                    "0x52f99960f7f3e544a10be81e7bddd2dfbd658025",
                                    "0xa11d72199c92385b7528710ce8e1d8f569ca5195",
                                    "0x9f3090f8388e0f7fe6de710e2d945fdf1edfe451",
                                    "0x13c6e5107fbf9aa0143aa24fec4bf13751754949",
                                    "0xe29765a716670455923ce1cbbdfe452cad311fc0"
                                ]
                            },
                            {
                                "name": "_value",
                                "type": "uint256",
                                "value": "8,000,000,000,000,000,000"
                            }
                        ],
                        "constructorArguments": "",
                        "name": "batchTransfer",
                        "returnParams": [
                            {
                                "name": "",
                                "type": "bool",
                                "value": true
                            }
                        ],
                        "signature": "batchTransfer(address[],uint256)"
                    },
                    "errorInfo": "",
                    "fromAddress": "0xa17e1a301b0fde493a1e24f954ff85a1c9cc93ff",
                    "gasUsed": 433796,
                    "id": 0,
                    "methodDecoded": true,
                    "operation": "CALL",
                    "output": "0x0000000000000000000000000000000000000000000000000000000000000001",
                    "revert": false,
                    "revertMessage": "",
                    "selector": "0x83f12fec",
                    "status": true,
                    "value": "0"
                },
                "nodeType": 0
            },
            "1": {
                "event": {
                    "contract": "0xc5d105e63711398af9bbff092d4b6769c82f793d",
                    "decodedLog": {
                        "name": "Transfer",
                        "params": [
                            {
                                "name": "from",
                                "type": "address",
                                "value": "0xa17e1a301b0fde493a1e24f954ff85a1c9cc93ff"
                            },
                            {
                                "name": "to",
                                "type": "address",
                                "value": "0xafec960cd1dae8d0f9e5bdc1debe96b9a600a5af"
                            },
                            {
                                "decimalAvailable": true,
                                "name": "value",
                                "type": "uint256",
                                "value": "8,000,000,000,000,000,000"
                            }
                        ],
                        "signature": "Transfer(address,address,uint256)"
                    },
                    "id": 1,
                    "logData": "0x0000000000000000000000000000000000000000000000006f05b59d3b200000",
                    "logDecoded": true,
                    "operation": "EVENT",
                    "revert": false,
                    "status": true,
                    "topics": [
                        "0xddf252ad1be2c89b69c2b068fc378daa952ba7f163c4a11628f55a4df523b3ef",
                        "0x000000000000000000000000a17e1a301b0fde493a1e24f954ff85a1c9cc93ff",
                        "0x000000000000000000000000afec960cd1dae8d0f9e5bdc1debe96b9a600a5af"
                    ]
                },
                "nodeType": 1
            },
            "10": {
                "event": {
                    "contract": "0xc5d105e63711398af9bbff092d4b6769c82f793d",
                    "decodedLog": {
                        "name": "Transfer",
                        "params": [
                            {
                                "name": "from",
                                "type": "address",
                                "value": "0xa17e1a301b0fde493a1e24f954ff85a1c9cc93ff"
                            },
                            {
                                "name": "to",
                                "type": "address",
                                "value": "0x38731c51243acb5487e0b87de174238e71af7e5e"
                            },
                            {
                                "decimalAvailable": true,
                                "name": "value",
                                "type": "uint256",
                                "value": "8,000,000,000,000,000,000"
                            }
                        ],
                        "signature": "Transfer(address,address,uint256)"
                    },
                    "id": 10,
                    "logData": "0x0000000000000000000000000000000000000000000000006f05b59d3b200000",
                    "logDecoded": true,
                    "operation": "EVENT",
                    "revert": false,
                    "status": true,
                    "topics": [
                        "0xddf252ad1be2c89b69c2b068fc378daa952ba7f163c4a11628f55a4df523b3ef",
                        "0x000000000000000000000000a17e1a301b0fde493a1e24f954ff85a1c9cc93ff",
                        "0x00000000000000000000000038731c51243acb5487e0b87de174238e71af7e5e"
                    ]
                },
                "nodeType": 1
            },
            "11": {
                "event": {
                    "contract": "0xc5d105e63711398af9bbff092d4b6769c82f793d",
                    "decodedLog": {
                        "name": "Transfer",
                        "params": [
                            {
                                "name": "from",
                                "type": "address",
                                "value": "0xa17e1a301b0fde493a1e24f954ff85a1c9cc93ff"
                            },
                            {
                                "name": "to",
                                "type": "address",
                                "value": "0x90e5651e275f853083c4f4539cd2502a96724a06"
                            },
                            {
                                "decimalAvailable": true,
                                "name": "value",
                                "type": "uint256",
                                "value": "8,000,000,000,000,000,000"
                            }
                        ],
                        "signature": "Transfer(address,address,uint256)"
                    },
                    "id": 11,
                    "logData": "0x0000000000000000000000000000000000000000000000006f05b59d3b200000",
                    "logDecoded": true,
                    "operation": "EVENT",
                    "revert": false,
                    "status": true,
                    "topics": [
                        "0xddf252ad1be2c89b69c2b068fc378daa952ba7f163c4a11628f55a4df523b3ef",
                        "0x000000000000000000000000a17e1a301b0fde493a1e24f954ff85a1c9cc93ff",
                        "0x00000000000000000000000090e5651e275f853083c4f4539cd2502a96724a06"
                    ]
                },
                "nodeType": 1
            },
            "12": {
                "event": {
                    "contract": "0xc5d105e63711398af9bbff092d4b6769c82f793d",
                    "decodedLog": {
                        "name": "Transfer",
                        "params": [
                            {
                                "name": "from",
                                "type": "address",
                                "value": "0xa17e1a301b0fde493a1e24f954ff85a1c9cc93ff"
                            },
                            {
                                "name": "to",
                                "type": "address",
                                "value": "0x6d574ce9ea06d269697e2b13820db1d895c82360"
                            },
                            {
                                "decimalAvailable": true,
                                "name": "value",
                                "type": "uint256",
                                "value": "8,000,000,000,000,000,000"
                            }
                        ],
                        "signature": "Transfer(address,address,uint256)"
                    },
                    "id": 12,
                    "logData": "0x0000000000000000000000000000000000000000000000006f05b59d3b200000",
                    "logDecoded": true,
                    "operation": "EVENT",
                    "revert": false,
                    "status": true,
                    "topics": [
                        "0xddf252ad1be2c89b69c2b068fc378daa952ba7f163c4a11628f55a4df523b3ef",
                        "0x000000000000000000000000a17e1a301b0fde493a1e24f954ff85a1c9cc93ff",
                        "0x0000000000000000000000006d574ce9ea06d269697e2b13820db1d895c82360"
                    ]
                },
                "nodeType": 1
            },
            "13": {
                "event": {
                    "contract": "0xc5d105e63711398af9bbff092d4b6769c82f793d",
                    "decodedLog": {
                        "name": "Transfer",
                        "params": [
                            {
                                "name": "from",
                                "type": "address",
                                "value": "0xa17e1a301b0fde493a1e24f954ff85a1c9cc93ff"
                            },
                            {
                                "name": "to",
                                "type": "address",
                                "value": "0x56f368196121ab51ca571251e4bc525f4944aaa2"
                            },
                            {
                                "decimalAvailable": true,
                                "name": "value",
                                "type": "uint256",
                                "value": "8,000,000,000,000,000,000"
                            }
                        ],
                        "signature": "Transfer(address,address,uint256)"
                    },
                    "id": 13,
                    "logData": "0x0000000000000000000000000000000000000000000000006f05b59d3b200000",
                    "logDecoded": true,
                    "operation": "EVENT",
                    "revert": false,
                    "status": true,
                    "topics": [
                        "0xddf252ad1be2c89b69c2b068fc378daa952ba7f163c4a11628f55a4df523b3ef",
                        "0x000000000000000000000000a17e1a301b0fde493a1e24f954ff85a1c9cc93ff",
                        "0x00000000000000000000000056f368196121ab51ca571251e4bc525f4944aaa2"
                    ]
                },
                "nodeType": 1
            },
            "14": {
                "event": {
                    "contract": "0xc5d105e63711398af9bbff092d4b6769c82f793d",
                    "decodedLog": {
                        "name": "Transfer",
                        "params": [
                            {
                                "name": "from",
                                "type": "address",
                                "value": "0xa17e1a301b0fde493a1e24f954ff85a1c9cc93ff"
                            },
                            {
                                "name": "to",
                                "type": "address",
                                "value": "0xe0c90e18568cefbf09898a5036e44ce2a2e9eadc"
                            },
                            {
                                "decimalAvailable": true,
                                "name": "value",
                                "type": "uint256",
                                "value": "8,000,000,000,000,000,000"
                            }
                        ],
                        "signature": "Transfer(address,address,uint256)"
                    },
                    "id": 14,
                    "logData": "0x0000000000000000000000000000000000000000000000006f05b59d3b200000",
                    "logDecoded": true,
                    "operation": "EVENT",
                    "revert": false,
                    "status": true,
                    "topics": [
                        "0xddf252ad1be2c89b69c2b068fc378daa952ba7f163c4a11628f55a4df523b3ef",
                        "0x000000000000000000000000a17e1a301b0fde493a1e24f954ff85a1c9cc93ff",
                        "0x000000000000000000000000e0c90e18568cefbf09898a5036e44ce2a2e9eadc"
                    ]
                },
                "nodeType": 1
            },
            "15": {
                "event": {
                    "contract": "0xc5d105e63711398af9bbff092d4b6769c82f793d",
                    "decodedLog": {
                        "name": "Transfer",
                        "params": [
                            {
                                "name": "from",
                                "type": "address",
                                "value": "0xa17e1a301b0fde493a1e24f954ff85a1c9cc93ff"
                            },
                            {
                                "name": "to",
                                "type": "address",
                                "value": "0x5d050a0be208891730ec07693b8bcbd0552508e0"
                            },
                            {
                                "decimalAvailable": true,
                                "name": "value",
                                "type": "uint256",
                                "value": "8,000,000,000,000,000,000"
                            }
                        ],
                        "signature": "Transfer(address,address,uint256)"
                    },
                    "id": 15,
                    "logData": "0x0000000000000000000000000000000000000000000000006f05b59d3b200000",
                    "logDecoded": true,
                    "operation": "EVENT",
                    "revert": false,
                    "status": true,
                    "topics": [
                        "0xddf252ad1be2c89b69c2b068fc378daa952ba7f163c4a11628f55a4df523b3ef",
                        "0x000000000000000000000000a17e1a301b0fde493a1e24f954ff85a1c9cc93ff",
                        "0x0000000000000000000000005d050a0be208891730ec07693b8bcbd0552508e0"
                    ]
                },
                "nodeType": 1
            },
            "16": {
                "event": {
                    "contract": "0xc5d105e63711398af9bbff092d4b6769c82f793d",
                    "decodedLog": {
                        "name": "Transfer",
                        "params": [
                            {
                                "name": "from",
                                "type": "address",
                                "value": "0xa17e1a301b0fde493a1e24f954ff85a1c9cc93ff"
                            },
                            {
                                "name": "to",
                                "type": "address",
                                "value": "0x52f99960f7f3e544a10be81e7bddd2dfbd658025"
                            },
                            {
                                "decimalAvailable": true,
                                "name": "value",
                                "type": "uint256",
                                "value": "8,000,000,000,000,000,000"
                            }
                        ],
                        "signature": "Transfer(address,address,uint256)"
                    },
                    "id": 16,
                    "logData": "0x0000000000000000000000000000000000000000000000006f05b59d3b200000",
                    "logDecoded": true,
                    "operation": "EVENT",
                    "revert": false,
                    "status": true,
                    "topics": [
                        "0xddf252ad1be2c89b69c2b068fc378daa952ba7f163c4a11628f55a4df523b3ef",
                        "0x000000000000000000000000a17e1a301b0fde493a1e24f954ff85a1c9cc93ff",
                        "0x00000000000000000000000052f99960f7f3e544a10be81e7bddd2dfbd658025"
                    ]
                },
                "nodeType": 1
            },
            "17": {
                "event": {
                    "contract": "0xc5d105e63711398af9bbff092d4b6769c82f793d",
                    "decodedLog": {
                        "name": "Transfer",
                        "params": [
                            {
                                "name": "from",
                                "type": "address",
                                "value": "0xa17e1a301b0fde493a1e24f954ff85a1c9cc93ff"
                            },
                            {
                                "name": "to",
                                "type": "address",
                                "value": "0xa11d72199c92385b7528710ce8e1d8f569ca5195"
                            },
                            {
                                "decimalAvailable": true,
                                "name": "value",
                                "type": "uint256",
                                "value": "8,000,000,000,000,000,000"
                            }
                        ],
                        "signature": "Transfer(address,address,uint256)"
                    },
                    "id": 17,
                    "logData": "0x0000000000000000000000000000000000000000000000006f05b59d3b200000",
                    "logDecoded": true,
                    "operation": "EVENT",
                    "revert": false,
                    "status": true,
                    "topics": [
                        "0xddf252ad1be2c89b69c2b068fc378daa952ba7f163c4a11628f55a4df523b3ef",
                        "0x000000000000000000000000a17e1a301b0fde493a1e24f954ff85a1c9cc93ff",
                        "0x000000000000000000000000a11d72199c92385b7528710ce8e1d8f569ca5195"
                    ]
                },
                "nodeType": 1
            },
            "18": {
                "event": {
                    "contract": "0xc5d105e63711398af9bbff092d4b6769c82f793d",
                    "decodedLog": {
                        "name": "Transfer",
                        "params": [
                            {
                                "name": "from",
                                "type": "address",
                                "value": "0xa17e1a301b0fde493a1e24f954ff85a1c9cc93ff"
                            },
                            {
                                "name": "to",
                                "type": "address",
                                "value": "0x9f3090f8388e0f7fe6de710e2d945fdf1edfe451"
                            },
                            {
                                "decimalAvailable": true,
                                "name": "value",
                                "type": "uint256",
                                "value": "8,000,000,000,000,000,000"
                            }
                        ],
                        "signature": "Transfer(address,address,uint256)"
                    },
                    "id": 18,
                    "logData": "0x0000000000000000000000000000000000000000000000006f05b59d3b200000",
                    "logDecoded": true,
                    "operation": "EVENT",
                    "revert": false,
                    "status": true,
                    "topics": [
                        "0xddf252ad1be2c89b69c2b068fc378daa952ba7f163c4a11628f55a4df523b3ef",
                        "0x000000000000000000000000a17e1a301b0fde493a1e24f954ff85a1c9cc93ff",
                        "0x0000000000000000000000009f3090f8388e0f7fe6de710e2d945fdf1edfe451"
                    ]
                },
                "nodeType": 1
            },
            "19": {
                "event": {
                    "contract": "0xc5d105e63711398af9bbff092d4b6769c82f793d",
                    "decodedLog": {
                        "name": "Transfer",
                        "params": [
                            {
                                "name": "from",
                                "type": "address",
                                "value": "0xa17e1a301b0fde493a1e24f954ff85a1c9cc93ff"
                            },
                            {
                                "name": "to",
                                "type": "address",
                                "value": "0x13c6e5107fbf9aa0143aa24fec4bf13751754949"
                            },
                            {
                                "decimalAvailable": true,
                                "name": "value",
                                "type": "uint256",
                                "value": "8,000,000,000,000,000,000"
                            }
                        ],
                        "signature": "Transfer(address,address,uint256)"
                    },
                    "id": 19,
                    "logData": "0x0000000000000000000000000000000000000000000000006f05b59d3b200000",
                    "logDecoded": true,
                    "operation": "EVENT",
                    "revert": false,
                    "status": true,
                    "topics": [
                        "0xddf252ad1be2c89b69c2b068fc378daa952ba7f163c4a11628f55a4df523b3ef",
                        "0x000000000000000000000000a17e1a301b0fde493a1e24f954ff85a1c9cc93ff",
                        "0x00000000000000000000000013c6e5107fbf9aa0143aa24fec4bf13751754949"
                    ]
                },
                "nodeType": 1
            },
            "2": {
                "event": {
                    "contract": "0xc5d105e63711398af9bbff092d4b6769c82f793d",
                    "decodedLog": {
                        "name": "Transfer",
                        "params": [
                            {
                                "name": "from",
                                "type": "address",
                                "value": "0xa17e1a301b0fde493a1e24f954ff85a1c9cc93ff"
                            },
                            {
                                "name": "to",
                                "type": "address",
                                "value": "0x61b3a9bb67e9e70a65157eec66131dd73586bda2"
                            },
                            {
                                "decimalAvailable": true,
                                "name": "value",
                                "type": "uint256",
                                "value": "8,000,000,000,000,000,000"
                            }
                        ],
                        "signature": "Transfer(address,address,uint256)"
                    },
                    "id": 2,
                    "logData": "0x0000000000000000000000000000000000000000000000006f05b59d3b200000",
                    "logDecoded": true,
                    "operation": "EVENT",
                    "revert": false,
                    "status": true,
                    "topics": [
                        "0xddf252ad1be2c89b69c2b068fc378daa952ba7f163c4a11628f55a4df523b3ef",
                        "0x000000000000000000000000a17e1a301b0fde493a1e24f954ff85a1c9cc93ff",
                        "0x00000000000000000000000061b3a9bb67e9e70a65157eec66131dd73586bda2"
                    ]
                },
                "nodeType": 1
            },
            "20": {
                "event": {
                    "contract": "0xc5d105e63711398af9bbff092d4b6769c82f793d",
                    "decodedLog": {
                        "name": "Transfer",
                        "params": [
                            {
                                "name": "from",
                                "type": "address",
                                "value": "0xa17e1a301b0fde493a1e24f954ff85a1c9cc93ff"
                            },
                            {
                                "name": "to",
                                "type": "address",
                                "value": "0xe29765a716670455923ce1cbbdfe452cad311fc0"
                            },
                            {
                                "decimalAvailable": true,
                                "name": "value",
                                "type": "uint256",
                                "value": "8,000,000,000,000,000,000"
                            }
                        ],
                        "signature": "Transfer(address,address,uint256)"
                    },
                    "id": 20,
                    "logData": "0x0000000000000000000000000000000000000000000000006f05b59d3b200000",
                    "logDecoded": true,
                    "operation": "EVENT",
                    "revert": false,
                    "status": true,
                    "topics": [
                        "0xddf252ad1be2c89b69c2b068fc378daa952ba7f163c4a11628f55a4df523b3ef",
                        "0x000000000000000000000000a17e1a301b0fde493a1e24f954ff85a1c9cc93ff",
                        "0x000000000000000000000000e29765a716670455923ce1cbbdfe452cad311fc0"
                    ]
                },
                "nodeType": 1
            },
            "3": {
                "event": {
                    "contract": "0xc5d105e63711398af9bbff092d4b6769c82f793d",
                    "decodedLog": {
                        "name": "Transfer",
                        "params": [
                            {
                                "name": "from",
                                "type": "address",
                                "value": "0xa17e1a301b0fde493a1e24f954ff85a1c9cc93ff"
                            },
                            {
                                "name": "to",
                                "type": "address",
                                "value": "0x6711fae1e262241fdf2e6492ed0ac4684dae28e8"
                            },
                            {
                                "decimalAvailable": true,
                                "name": "value",
                                "type": "uint256",
                                "value": "8,000,000,000,000,000,000"
                            }
                        ],
                        "signature": "Transfer(address,address,uint256)"
                    },
                    "id": 3,
                    "logData": "0x0000000000000000000000000000000000000000000000006f05b59d3b200000",
                    "logDecoded": true,
                    "operation": "EVENT",
                    "revert": false,
                    "status": true,
                    "topics": [
                        "0xddf252ad1be2c89b69c2b068fc378daa952ba7f163c4a11628f55a4df523b3ef",
                        "0x000000000000000000000000a17e1a301b0fde493a1e24f954ff85a1c9cc93ff",
                        "0x0000000000000000000000006711fae1e262241fdf2e6492ed0ac4684dae28e8"
                    ]
                },
                "nodeType": 1
            },
            "4": {
                "event": {
                    "contract": "0xc5d105e63711398af9bbff092d4b6769c82f793d",
                    "decodedLog": {
                        "name": "Transfer",
                        "params": [
                            {
                                "name": "from",
                                "type": "address",
                                "value": "0xa17e1a301b0fde493a1e24f954ff85a1c9cc93ff"
                            },
                            {
                                "name": "to",
                                "type": "address",
                                "value": "0xa5ab4ae6ebeb8340996717b5666de3c6866164fa"
                            },
                            {
                                "decimalAvailable": true,
                                "name": "value",
                                "type": "uint256",
                                "value": "8,000,000,000,000,000,000"
                            }
                        ],
                        "signature": "Transfer(address,address,uint256)"
                    },
                    "id": 4,
                    "logData": "0x0000000000000000000000000000000000000000000000006f05b59d3b200000",
                    "logDecoded": true,
                    "operation": "EVENT",
                    "revert": false,
                    "status": true,
                    "topics": [
                        "0xddf252ad1be2c89b69c2b068fc378daa952ba7f163c4a11628f55a4df523b3ef",
                        "0x000000000000000000000000a17e1a301b0fde493a1e24f954ff85a1c9cc93ff",
                        "0x000000000000000000000000a5ab4ae6ebeb8340996717b5666de3c6866164fa"
                    ]
                },
                "nodeType": 1
            },
            "5": {
                "event": {
                    "contract": "0xc5d105e63711398af9bbff092d4b6769c82f793d",
                    "decodedLog": {
                        "name": "Transfer",
                        "params": [
                            {
                                "name": "from",
                                "type": "address",
                                "value": "0xa17e1a301b0fde493a1e24f954ff85a1c9cc93ff"
                            },
                            {
                                "name": "to",
                                "type": "address",
                                "value": "0x7b30d475f939738645c1758f227ae27d7e125a03"
                            },
                            {
                                "decimalAvailable": true,
                                "name": "value",
                                "type": "uint256",
                                "value": "8,000,000,000,000,000,000"
                            }
                        ],
                        "signature": "Transfer(address,address,uint256)"
                    },
                    "id": 5,
                    "logData": "0x0000000000000000000000000000000000000000000000006f05b59d3b200000",
                    "logDecoded": true,
                    "operation": "EVENT",
                    "revert": false,
                    "status": true,
                    "topics": [
                        "0xddf252ad1be2c89b69c2b068fc378daa952ba7f163c4a11628f55a4df523b3ef",
                        "0x000000000000000000000000a17e1a301b0fde493a1e24f954ff85a1c9cc93ff",
                        "0x0000000000000000000000007b30d475f939738645c1758f227ae27d7e125a03"
                    ]
                },
                "nodeType": 1
            },
            "6": {
                "event": {
                    "contract": "0xc5d105e63711398af9bbff092d4b6769c82f793d",
                    "decodedLog": {
                        "name": "Transfer",
                        "params": [
                            {
                                "name": "from",
                                "type": "address",
                                "value": "0xa17e1a301b0fde493a1e24f954ff85a1c9cc93ff"
                            },
                            {
                                "name": "to",
                                "type": "address",
                                "value": "0x268947334fcb81f2df067825a88ab2d8908ddd94"
                            },
                            {
                                "decimalAvailable": true,
                                "name": "value",
                                "type": "uint256",
                                "value": "8,000,000,000,000,000,000"
                            }
                        ],
                        "signature": "Transfer(address,address,uint256)"
                    },
                    "id": 6,
                    "logData": "0x0000000000000000000000000000000000000000000000006f05b59d3b200000",
                    "logDecoded": true,
                    "operation": "EVENT",
                    "revert": false,
                    "status": true,
                    "topics": [
                        "0xddf252ad1be2c89b69c2b068fc378daa952ba7f163c4a11628f55a4df523b3ef",
                        "0x000000000000000000000000a17e1a301b0fde493a1e24f954ff85a1c9cc93ff",
                        "0x000000000000000000000000268947334fcb81f2df067825a88ab2d8908ddd94"
                    ]
                },
                "nodeType": 1
            },
            "7": {
                "event": {
                    "contract": "0xc5d105e63711398af9bbff092d4b6769c82f793d",
                    "decodedLog": {
                        "name": "Transfer",
                        "params": [
                            {
                                "name": "from",
                                "type": "address",
                                "value": "0xa17e1a301b0fde493a1e24f954ff85a1c9cc93ff"
                            },
                            {
                                "name": "to",
                                "type": "address",
                                "value": "0x228d76cfb17c8255fbe6508ffaa540fe9133ed53"
                            },
                            {
                                "decimalAvailable": true,
                                "name": "value",
                                "type": "uint256",
                                "value": "8,000,000,000,000,000,000"
                            }
                        ],
                        "signature": "Transfer(address,address,uint256)"
                    },
                    "id": 7,
                    "logData": "0x0000000000000000000000000000000000000000000000006f05b59d3b200000",
                    "logDecoded": true,
                    "operation": "EVENT",
                    "revert": false,
                    "status": true,
                    "topics": [
                        "0xddf252ad1be2c89b69c2b068fc378daa952ba7f163c4a11628f55a4df523b3ef",
                        "0x000000000000000000000000a17e1a301b0fde493a1e24f954ff85a1c9cc93ff",
                        "0x000000000000000000000000228d76cfb17c8255fbe6508ffaa540fe9133ed53"
                    ]
                },
                "nodeType": 1
            },
            "8": {
                "event": {
                    "contract": "0xc5d105e63711398af9bbff092d4b6769c82f793d",
                    "decodedLog": {
                        "name": "Transfer",
                        "params": [
                            {
                                "name": "from",
                                "type": "address",
                                "value": "0xa17e1a301b0fde493a1e24f954ff85a1c9cc93ff"
                            },
                            {
                                "name": "to",
                                "type": "address",
                                "value": "0x8411ec8b4d5af5e00a4ebcb65f5cd3d94b782df4"
                            },
                            {
                                "decimalAvailable": true,
                                "name": "value",
                                "type": "uint256",
                                "value": "8,000,000,000,000,000,000"
                            }
                        ],
                        "signature": "Transfer(address,address,uint256)"
                    },
                    "id": 8,
                    "logData": "0x0000000000000000000000000000000000000000000000006f05b59d3b200000",
                    "logDecoded": true,
                    "operation": "EVENT",
                    "revert": false,
                    "status": true,
                    "topics": [
                        "0xddf252ad1be2c89b69c2b068fc378daa952ba7f163c4a11628f55a4df523b3ef",
                        "0x000000000000000000000000a17e1a301b0fde493a1e24f954ff85a1c9cc93ff",
                        "0x0000000000000000000000008411ec8b4d5af5e00a4ebcb65f5cd3d94b782df4"
                    ]
                },
                "nodeType": 1
            },
            "9": {
                "event": {
                    "contract": "0xc5d105e63711398af9bbff092d4b6769c82f793d",
                    "decodedLog": {
                        "name": "Transfer",
                        "params": [
                            {
                                "name": "from",
                                "type": "address",
                                "value": "0xa17e1a301b0fde493a1e24f954ff85a1c9cc93ff"
                            },
                            {
                                "name": "to",
                                "type": "address",
                                "value": "0x7b7157f938f3d84130486a2bb44cf76886e45a32"
                            },
                            {
                                "decimalAvailable": true,
                                "name": "value",
                                "type": "uint256",
                                "value": "8,000,000,000,000,000,000"
                            }
                        ],
                        "signature": "Transfer(address,address,uint256)"
                    },
                    "id": 9,
                    "logData": "0x0000000000000000000000000000000000000000000000006f05b59d3b200000",
                    "logDecoded": true,
                    "operation": "EVENT",
                    "revert": false,
                    "status": true,
                    "topics": [
                        "0xddf252ad1be2c89b69c2b068fc378daa952ba7f163c4a11628f55a4df523b3ef",
                        "0x000000000000000000000000a17e1a301b0fde493a1e24f954ff85a1c9cc93ff",
                        "0x0000000000000000000000007b7157f938f3d84130486a2bb44cf76886e45a32"
                    ]
                },
                "nodeType": 1
            }
        },
        "gasFlame": [
            {
                "children": [
                    {
                        "children": [
                            {
                                "children": [],
                                "depth": 0,
                                "name": "Initial Gas",
                                "value": 50264
                            },
                            {
                                "children": [],
                                "depth": 0,
                                "name": "Executed Gas",
                                "value": 383532
                            }
                        ],
                        "depth": -1,
                        "name": "Actual Gas Used",
                        "value": 433796
                    },
                    {
                        "children": [],
                        "depth": -1,
                        "name": "Refunded Gas",
                        "value": 0
                    }
                ],
                "depth": -2,
                "name": "Total Gas",
                "value": 433796
            }
        ],
        "isConfirmed": true,
        "mainTrace": [
            {
                "children": [
                    {
                        "children": [
                            {
                                "children": [],
                                "depth": 1,
                                "id": 1,
                                "order": 1
                            },
                            {
                                "children": [],
                                "depth": 1,
                                "id": 2,
                                "order": 2
                            },
                            {
                                "children": [],
                                "depth": 1,
                                "id": 3,
                                "order": 3
                            },
                            {
                                "children": [],
                                "depth": 1,
                                "id": 4,
                                "order": 4
                            },
                            {
                                "children": [],
                                "depth": 1,
                                "id": 5,
                                "order": 5
                            },
                            {
                                "children": [],
                                "depth": 1,
                                "id": 6,
                                "order": 6
                            },
                            {
                                "children": [],
                                "depth": 1,
                                "id": 7,
                                "order": 7
                            },
                            {
                                "children": [],
                                "depth": 1,
                                "id": 8,
                                "order": 8
                            },
                            {
                                "children": [],
                                "depth": 1,
                                "id": 9,
                                "order": 9
                            },
                            {
                                "children": [],
                                "depth": 1,
                                "id": 10,
                                "order": 10
                            },
                            {
                                "children": [],
                                "depth": 1,
                                "id": 11,
                                "order": 11
                            },
                            {
                                "children": [],
                                "depth": 1,
                                "id": 12,
                                "order": 12
                            },
                            {
                                "children": [],
                                "depth": 1,
                                "id": 13,
                                "order": 13
                            },
                            {
                                "children": [],
                                "depth": 1,
                                "id": 14,
                                "order": 14
                            },
                            {
                                "children": [],
                                "depth": 1,
                                "id": 15,
                                "order": 15
                            },
                            {
                                "children": [],
                                "depth": 1,
                                "id": 16,
                                "order": 16
                            },
                            {
                                "children": [],
                                "depth": 1,
                                "id": 17,
                                "order": 17
                            },
                            {
                                "children": [],
                                "depth": 1,
                                "id": 18,
                                "order": 18
                            },
                            {
                                "children": [],
                                "depth": 1,
                                "id": 19,
                                "order": 19
                            },
                            {
                                "children": [],
                                "depth": 1,
                                "id": 20,
                                "order": 20
                            }
                        ],
                        "depth": 0,
                        "id": 0,
                        "order": 0
                    }
                ],
                "depth": -1,
                "id": -1,
                "order": -1
            }
        ],
        "mainTraceNodeCount": 21,
        "parentIdMap": {
            "0": -1,
            "1": 0,
            "10": 0,
            "11": 0,
            "12": 0,
            "13": 0,
            "14": 0,
            "15": 0,
            "16": 0,
            "17": 0,
            "18": 0,
            "19": 0,
            "2": 0,
            "20": 0,
            "3": 0,
            "4": 0,
            "5": 0,
            "6": 0,
            "7": 0,
            "8": 0,
            "9": 0
        },
        "tidyTrace": [
            {
                "children": [
                    {
                        "children": [
                            {
                                "children": [],
                                "depth": 1,
                                "id": 1,
                                "order": 1
                            },
                            {
                                "children": [],
                                "depth": 1,
                                "id": 2,
                                "order": 2
                            },
                            {
                                "children": [],
                                "depth": 1,
                                "id": 3,
                                "order": 3
                            },
                            {
                                "children": [],
                                "depth": 1,
                                "id": 4,
                                "order": 4
                            },
                            {
                                "children": [],
                                "depth": 1,
                                "id": 5,
                                "order": 5
                            },
                            {
                                "children": [],
                                "depth": 1,
                                "id": 6,
                                "order": 6
                            },
                            {
                                "children": [],
                                "depth": 1,
                                "id": 7,
                                "order": 7
                            },
                            {
                                "children": [],
                                "depth": 1,
                                "id": 8,
                                "order": 8
                            },
                            {
                                "children": [],
                                "depth": 1,
                                "id": 9,
                                "order": 9
                            },
                            {
                                "children": [],
                                "depth": 1,
                                "id": 10,
                                "order": 10
                            },
                            {
                                "children": [],
                                "depth": 1,
                                "id": 11,
                                "order": 11
                            },
                            {
                                "children": [],
                                "depth": 1,
                                "id": 12,
                                "order": 12
                            },
                            {
                                "children": [],
                                "depth": 1,
                                "id": 13,
                                "order": 13
                            },
                            {
                                "children": [],
                                "depth": 1,
                                "id": 14,
                                "order": 14
                            },
                            {
                                "children": [],
                                "depth": 1,
                                "id": 15,
                                "order": 15
                            },
                            {
                                "children": [],
                                "depth": 1,
                                "id": 16,
                                "order": 16
                            },
                            {
                                "children": [],
                                "depth": 1,
                                "id": 17,
                                "order": 17
                            },
                            {
                                "children": [],
                                "depth": 1,
                                "id": 18,
                                "order": 18
                            },
                            {
                                "children": [],
                                "depth": 1,
                                "id": 19,
                                "order": 19
                            },
                            {
                                "children": [],
                                "depth": 1,
                                "id": 20,
                                "order": 20
                            }
                        ],
                        "depth": 0,
                        "id": 0,
                        "order": 0
                    }
                ],
                "depth": -1,
                "id": -1,
                "order": -1
            }
        ],
        "tidyTraceNodeCount": 21
    },
    "state_change": {
        "stateChanges": [
            {
                "address": "0xc5d105e63711398af9bbff092d4b6769c82f793d",
                "erc": "ERC-20",
                "slots": [
                    {
                        "current": "0x0000000000000000000000000000000000000000000000006f05b59d3b200000",
                        "key": "0x0e3715f7a70b2bb50503adcbdf930994684ed9d8fd0624f605ec4197f70f4d4c",
                        "prev": "0x0000000000000000000000000000000000000000000000000000000000000000"
                    },
                    {
                        "current": "0x0000000000000000000000000000000000000000000000006f05b59d3b200000",
                        "key": "0x960668b9db9d78dc5820b57f013c242a09af32868821071846aa2143b12a78cf",
                        "prev": "0x0000000000000000000000000000000000000000000000000000000000000000"
                    },
                    {
                        "current": "0x0000000000000000000000000000000000000000000000008ac7230489e80000",
                        "key": "0x9d7c82800b2d96bc4fd541474084fe86979884b19c50c2fa2aeb94cc02732003",
                        "prev": "0x0000000000000000000000000000000000000000000000001bc16d674ec80000"
                    },
                    {
                        "current": "0x0000000000000000000000000000000000000000000000006f05b59d3b200000",
                        "key": "0xebd72d12edfa61b6bca60e827610722fc488eb0ebc6b660db800fba8b8244ffd",
                        "prev": "0x0000000000000000000000000000000000000000000000000000000000000000"
                    },
                    {
                        "current": "0x0000000000000000000000000000000000000000000000006f05b59d3b200000",
                        "key": "0xccce5bac6d2abcf48d15ca8e12682cb380d10ddde10df244a4378bf5a0fbac1e",
                        "prev": "0x0000000000000000000000000000000000000000000000000000000000000000"
                    },
                    {
                        "current": "0x000000000000000000000000000000000000000000000000c249fdd327780000",
                        "key": "0xcbd37cb57b92ae427b1ddb1fbb24ae7263a70c51bca06daa2a36290f81502472",
                        "prev": "0x00000000000000000000000000000000000000000000000053444835ec580000"
                    },
                    {
                        "current": "0x000000000000000000000000000000000000000000000a4ef2b5e24e5fa00000",
                        "key": "0xdcb2ef0c75cf93657bd24603280736bb062fa76a2b16cfa0a952176d461c3052",
                        "prev": "0x000000000000000000000000000000000000000000000a579f281296fe200000"
                    },
                    {
                        "current": "0x0000000000000000000000000000000000000000000000008ac7230489e80000",
                        "key": "0x8641887e5c32bedc1727652e07526e8f5785099ec78dd20d8014c62f63315b3c",
                        "prev": "0x0000000000000000000000000000000000000000000000001bc16d674ec80000"
                    },
                    {
                        "current": "0x0000000000000000000000000000000000000000000000006f05b59d3b200000",
                        "key": "0xaaf42e8e7de26108ea2215fd8dd06b1a0ff951996114042ff2361d6aa3f17604",
                        "prev": "0x0000000000000000000000000000000000000000000000000000000000000000"
                    },
                    {
                        "current": "0x0000000000000000000000000000000000000000000000008ac7230489e80000",
                        "key": "0xa36aa68ec4cd1a6f78ba82b322605c8ab1f230af1a6bcca18955d336d06ff514",
                        "prev": "0x0000000000000000000000000000000000000000000000001bc16d674ec80000"
                    },
                    {
                        "current": "0x0000000000000000000000000000000000000000000000006f05b59d3b200000",
                        "key": "0x3c79929e742244c36da4cc3c502791b9bc35cd27d7d884dd1f18b8d758861ebf",
                        "prev": "0x0000000000000000000000000000000000000000000000000000000000000000"
                    },
                    {
                        "current": "0x0000000000000000000000000000000000000000000000008ac7230489e80000",
                        "key": "0xc585d928c3d4971c85b7a8603b47f4707b273d6c484fb0c98412a57e336cad25",
                        "prev": "0x0000000000000000000000000000000000000000000000001bc16d674ec80000"
                    },
                    {
                        "current": "0x0000000000000000000000000000000000000000000000006f05b59d3b200000",
                        "key": "0xb0173579c29b9f771b5cedec56b79f5a79b53ca9257357419a2aceab9fce9a99",
                        "prev": "0x0000000000000000000000000000000000000000000000000000000000000000"
                    },
                    {
                        "current": "0x0000000000000000000000000000000000000000000000006f05b59d3b200000",
                        "key": "0x6a60cad9fe26807fbe1eb5b68743bc35451142bea39154f6c322107699a0d019",
                        "prev": "0x0000000000000000000000000000000000000000000000000000000000000000"
                    },
                    {
                        "current": "0x0000000000000000000000000000000000000000000000006f05b59d3b200000",
                        "key": "0x7f1b9b8eb3a445aa13c2db270480a1a0f4b44c56b7c6da6d62d266c3177454e9",
                        "prev": "0x0000000000000000000000000000000000000000000000000000000000000000"
                    },
                    {
                        "current": "0x0000000000000000000000000000000000000000000000006f05b59d3b200000",
                        "key": "0xc4dacc18dbcf4edff87974abd4d3fb944511ff6721996e899021192a5a743250",
                        "prev": "0x0000000000000000000000000000000000000000000000000000000000000000"
                    },
                    {
                        "current": "0x0000000000000000000000000000000000000000000000006f05b59d3b200000",
                        "key": "0x9cd41f8310cd3fdbe7b26acb80f7013f87732a1f2100d412aa2cb7249d9a8bf3",
                        "prev": "0x0000000000000000000000000000000000000000000000000000000000000000"
                    },
                    {
                        "current": "0x0000000000000000000000000000000000000000000000006f05b59d3b200000",
                        "key": "0x0e040fd46a1bb5e9f1a3f022a21e44839c260a7244fa4e1995c8461ee3e1e394",
                        "prev": "0x0000000000000000000000000000000000000000000000000000000000000000"
                    },
                    {
                        "current": "0x0000000000000000000000000000000000000000000000006f05b59d3b200000",
                        "key": "0xef1e13a361e5c6e87fd483d2e279a86f3fc6153597ed4d1f070f16cd3f7cbcfe",
                        "prev": "0x0000000000000000000000000000000000000000000000000000000000000000"
                    },
                    {
                        "current": "0x0000000000000000000000000000000000000000000000006f05b59d3b200000",
                        "key": "0x3847d9cca5714ee5daf12ccc612d197881740a1842f4fec0103c1fe6a82ee9de",
                        "prev": "0x0000000000000000000000000000000000000000000000000000000000000000"
                    },
                    {
                        "current": "0x0000000000000000000000000000000000000000000000006f05b59d3b200000",
                        "key": "0x4fd6a03f2695e25056338779de8ac032c80517a05a56d00a74b274bb11eddf54",
                        "prev": "0x0000000000000000000000000000000000000000000000000000000000000000"
                    }
                ],
                "storageVariables": [
                    {
                        "name": "balances",
                        "type": "mapping(address => uint256)",
                        "value": {
                            "pairs": [
                                {
                                    "key": "0x13c6e5107fbf9aa0143aa24fec4bf13751754949",
                                    "value": {
                                        "current": "8000000000000000000",
                                        "prev": "0",
                                        "typeTag": 1
                                    }
                                },
                                {
                                    "key": "0x228d76cfb17c8255fbe6508ffaa540fe9133ed53",
                                    "value": {
                                        "current": "8000000000000000000",
                                        "prev": "0",
                                        "typeTag": 1
                                    }
                                },
                                {
                                    "key": "0x268947334fcb81f2df067825a88ab2d8908ddd94",
                                    "value": {
                                        "current": "10000000000000000000",
                                        "prev": "2000000000000000000",
                                        "typeTag": 1
                                    }
                                },
                                {
                                    "key": "0x38731c51243acb5487e0b87de174238e71af7e5e",
                                    "value": {
                                        "current": "8000000000000000000",
                                        "prev": "0",
                                        "typeTag": 1
                                    }
                                },
                                {
                                    "key": "0x52f99960f7f3e544a10be81e7bddd2dfbd658025",
                                    "value": {
                                        "current": "8000000000000000000",
                                        "prev": "0",
                                        "typeTag": 1
                                    }
                                },
                                {
                                    "key": "0x56f368196121ab51ca571251e4bc525f4944aaa2",
                                    "value": {
                                        "current": "8000000000000000000",
                                        "prev": "0",
                                        "typeTag": 1
                                    }
                                },
                                {
                                    "key": "0x5d050a0be208891730ec07693b8bcbd0552508e0",
                                    "value": {
                                        "current": "8000000000000000000",
                                        "prev": "0",
                                        "typeTag": 1
                                    }
                                },
                                {
                                    "key": "0x61b3a9bb67e9e70a65157eec66131dd73586bda2",
                                    "value": {
                                        "current": "8000000000000000000",
                                        "prev": "0",
                                        "typeTag": 1
                                    }
                                },
                                {
                                    "key": "0x6711fae1e262241fdf2e6492ed0ac4684dae28e8",
                                    "value": {
                                        "current": "10000000000000000000",
                                        "prev": "2000000000000000000",
                                        "typeTag": 1
                                    }
                                },
                                {
                                    "key": "0x6d574ce9ea06d269697e2b13820db1d895c82360",
                                    "value": {
                                        "current": "8000000000000000000",
                                        "prev": "0",
                                        "typeTag": 1
                                    }
                                },
                                {
                                    "key": "0x7b30d475f939738645c1758f227ae27d7e125a03",
                                    "value": {
                                        "current": "8000000000000000000",
                                        "prev": "0",
                                        "typeTag": 1
                                    }
                                },
                                {
                                    "key": "0x7b7157f938f3d84130486a2bb44cf76886e45a32",
                                    "value": {
                                        "current": "10000000000000000000",
                                        "prev": "2000000000000000000",
                                        "typeTag": 1
                                    }
                                },
                                {
                                    "key": "0x8411ec8b4d5af5e00a4ebcb65f5cd3d94b782df4",
                                    "value": {
                                        "current": "8000000000000000000",
                                        "prev": "0",
                                        "typeTag": 1
                                    }
                                },
                                {
                                    "key": "0x90e5651e275f853083c4f4539cd2502a96724a06",
                                    "value": {
                                        "current": "8000000000000000000",
                                        "prev": "0",
                                        "typeTag": 1
                                    }
                                },
                                {
                                    "key": "0x9f3090f8388e0f7fe6de710e2d945fdf1edfe451",
                                    "value": {
                                        "current": "14000000000000000000",
                                        "prev": "6000000000000000000",
                                        "typeTag": 1
                                    }
                                },
                                {
                                    "key": "0xa11d72199c92385b7528710ce8e1d8f569ca5195",
                                    "value": {
                                        "current": "8000000000000000000",
                                        "prev": "0",
                                        "typeTag": 1
                                    }
                                },
                                {
                                    "key": "0xa17e1a301b0fde493a1e24f954ff85a1c9cc93ff",
                                    "value": {
                                        "current": "48680000000000000000000",
                                        "prev": "48840000000000000000000",
                                        "typeTag": 1
                                    }
                                },
                                {
                                    "key": "0xa5ab4ae6ebeb8340996717b5666de3c6866164fa",
                                    "value": {
                                        "current": "8000000000000000000",
                                        "prev": "0",
                                        "typeTag": 1
                                    }
                                },
                                {
                                    "key": "0xafec960cd1dae8d0f9e5bdc1debe96b9a600a5af",
                                    "value": {
                                        "current": "8000000000000000000",
                                        "prev": "0",
                                        "typeTag": 1
                                    }
                                },
                                {
                                    "key": "0xe0c90e18568cefbf09898a5036e44ce2a2e9eadc",
                                    "value": {
                                        "current": "10000000000000000000",
                                        "prev": "2000000000000000000",
                                        "typeTag": 1
                                    }
                                },
                                {
                                    "key": "0xe29765a716670455923ce1cbbdfe452cad311fc0",
                                    "value": {
                                        "current": "8000000000000000000",
                                        "prev": "0",
                                        "typeTag": 1
                                    }
                                }
                            ],
                            "typeTag": 4
                        }
                    }
                ]
            }
        ]
    }
}