{
    "balance_change": {
        "balanceChanges": [
            {
                "account": "0x44ae838b6e3af82412a45c40f6500f285ab4a146",
                "assets": [
                    {
                        "address": "0xeeeeeeeeeeeeeeeeeeeeeeeeeeeeeeeeeeeeeeee",
                        "amount": "0.00452134197907971",
                        "iconUrl": "https://assets.blocksec.com/image/1663669189317-3.png",
                        "isERC1155": false,
                        "isERC721": false,
                        "sign": false,
                        "value": "15.061719631095484455"
                    }
                ]
            },
            {
                "account": "0x253553366da8546fc250f225fe3d25d0c782303b",
                "assets": [
                    {
                        "address": "0xeeeeeeeeeeeeeeeeeeeeeeeeeeeeeeeeeeeeeeee",
                        "amount": "0.00452134197907971",
                        "iconUrl": "https://assets.blocksec.com/image/1663669189317-3.png",
                        "isERC1155": false,
                        "isERC721": false,
                        "sign": true,
                        "value": "15.061719631095484455"
                    }
                ]
            }
        ]
    },
    "profile": {
        "basic_info": {
            "baseFee": "15.558252123",
            "blockNumber": 19502021,
            "callData": "0xacf1a84100000000000000000000000000000000000000000000000000000000000000400000000000000000000000000000000000000000000000000000000005a39a80000000000000000000000000000000000000000000000000000000000000000a6d696c6c656e6e69756d00000000000000000000000000000000000000000000",
            "debugEnable": true,
            "errorInfo": "",
            "eventCount": 2,
            "feeRecipient": "0x95222290dd7278aa3ddd389cc1e1d165cc4bafe5",
            "formatValue": "0.004611768818661304",
            "gasLimit": 141800,
            "gasPrice": "17",
            "gasUsed": 93579,
            "intTxnCount": 11,
            "internalRevert": false,
            "internalRevertMessage": "",
            "isContractCreation": false,
            "isFlashloan": false,
            "maxFee": "17",
            "nonce": 68,
            "overwritedBlockNumber": -1,
            "priorityFee": "1.7",
            "receiver": "0x253553366da8546fc250f225fe3d25d0c782303b",
            "revertMessage": "",
            "sender": "0x44ae838b6e3af82412a45c40f6500f285ab4a146",
            "simulationEnable": true,
            "sourceTxnHash": "0xa3b0b4416d398e093b26720dffbca807e85897ea447ee2c54d6835fa58f1cc10",
            "status": true,
            "timestamp": "2024-03-24T04:24:47Z",
            "transactionFee": "0.001590843",
            "txnHash": "0xa3b0b4416d398e093b26720dffbca807e85897ea447ee2c54d6835fa58f1cc10",
            "txnIndex": 77,
            "type": 2,
            "value": "4611768818661304"
        },
        "fund_flow": [
            {
                "amount": "0.004611768818661304",
                "from": "0x44ae838b6e3af82412a45c40f6500f285ab4a146",
                "id": 1,
                "isERC1155": false,
                "isERC721": false,
                "isReverted": false,
                "order": 1,
                "to": "0x253553366da8546fc250f225fe3d25d0c782303b",
                "token": "0xeeeeeeeeeeeeeeeeeeeeeeeeeeeeeeeeeeeeeeee"
            },
            {
                "amount": "0.000090426839581594",
                "from": "0x253553366da8546fc250f225fe3d25d0c782303b",
                "id": 2,
                "isERC1155": false,
                "isERC721": false,
                "isReverted": false,
                "order": 2,
                "to": "0x44ae838b6e3af82412a45c40f6500f285ab4a146",
                "token": "0xeeeeeeeeeeeeeeeeeeeeeeeeeeeeeeeeeeeeeeee"
            }
        ],
        "token_infos": [
            {
                "address": "0xc02aaa39b223fe8d0a0e5c4f27ead9083c756cc2",
                "decimals": 18
            },
            {
                "address": "0xeeeeeeeeeeeeeeeeeeeeeeeeeeeeeeeeeeeeeeee",
                "decimals": 18
            }
        ]
    },
    "address_label": {
        "labels": [
            {
                "address": "0x0000000000000000000000000000000000000002",
                "label": "Precompiled"
            },
            {
                "address": "0xeeeeeeeeeeeeeeeeeeeeeeeeeeeeeeeeeeeeeeee",
                "label": "Ether"
            },
            {
                "address": "0x57f1887a8bf19b14fc0df6fd9b2acc9af147ea85",
                "label": "ENS: Base Registrar Implementation"
            },
            {
                "address": "0x7542565191d074ce84fbfa92cae13acb84788ca9",
                "label": "ExponentialPremiumPriceOracle"
            },
            {
                "address": "0x5f4ec3df9cbd43714fe2740f5e3616155c5b8419",
                "label": "EACAggregatorProxy"
            },
            {
                "address": "0xd4416b13d2b3a9abae7acd5d6c2bbdbe25686401",
                "label": "ENS: Name Wrapper"
            },
            {
                "address": "0x0000000000000000000000000000000000000001",
                "label": "Precompiled"
            },
            {
                "address": "0xe62b71cf983019bff55bc83b48601ce8419650cc",
                "label": "AccessControlledOffchainAggregator"
            },
            {
                "address": "0x00000000000c2e074ec69a0dfb2997ba6c7d2e1e",
                "label": "ENS: Registry with Fallback"
            },
            {
                "address": "0x253553366da8546fc250f225fe3d25d0c782303b",
                "label": "ENS: ETH Registrar Controller"
            },
            {
                "address": "0x0000000000000000000000000000000000000003",
                "label": "Precompiled"
            },
            {
                "address": "0x0000000000000000000000000000000000000004",
                "label": "Precompiled"
            }
        ]
    },
    "trace": {
        "accountLabels": null,
        "dataMap": {
            "-1": {
                "invocation": {
                    "address": "0x44ae838b6e3af82412a45c40f6500f285ab4a146",
                    "callData": "",
                    "decodedMethod": null,
                    "errorInfo": "",
                    "fromAddress": "",
                    "gasUsed": 0,
                    "id": -1,
                    "methodDecoded": false,
                    "operation": "",
                    "output": "",
                    "revert": false,
                    "revertMessage": "",
                    "selector": "",
                    "status": false,
                    "value": ""
                },
                "nodeType": 0
            },
            "0": {
                "invocation": {
                    "address": "0x253553366da8546fc250f225fe3d25d0c782303b",
                    "callData": "0x00000000000000000000000000000000000000000000000000000000000000400000000000000000000000000000000000000000000000000000000005a39a80000000000000000000000000000000000000000000000000000000000000000a6d696c6c656e6e69756d00000000000000000000000000000000000000000000",
                    "decodedMethod": {
                        "callParams": [
                            {
                                "name": "name",
                                "type": "string",
                                "value": "millennium"
                            },
                            {
                                "name": "duration",
                                "type": "uint256",
                                "value": "94,608,000"
                            }
                        ],
                        "constructorArguments": "",
                        "name": "renew",
                        "returnParams": [],
                        "signature": "renew(string,uint256)"
                    },
                    "errorInfo": "",
                    "fromAddress": "0x44ae838b6e3af82412a45c40f6500f285ab4a146",
                    "gasUsed": 93579,
                    "id": 0,
                    "methodDecoded": true,
                    "operation": "CALL",
                    "output": "",
                    "revert": false,
                    "revertMessage": "",
                    "selector": "0xacf1a841",
                    "status": true,
                    "value": "0.004611768818661304"
                },
                "nodeType": 0
            },
            "1": {
                "invocation": {
                    "address": "0x57f1887a8bf19b14fc0df6fd9b2acc9af147ea85",
                    "callData": "0x6fb134c1ece2d62c446ed72e33224aab8f7d3ed0ea9b44af17460f27a22981f1",
                    "decodedMethod": {
                        "callParams": [
                            {
                                "name": "id",
                                "type": "uint256",
                                "value": "50,519,822,242,235,099,009,045,715,963,681,006,537,240,889,328,486,370,114,860,588,215,721,460,859,377"
                            }
                        ],
                        "constructorArguments": "",
                        "name": "nameExpires",
                        "returnParams": [
                            {
                                "name": "",
                                "type": "uint256",
                                "value": "1,851,186,893"
                            }
                        ],
                        "signature": "nameExpires(uint256)"
                    },
                    "errorInfo": "",
                    "fromAddress": "0x253553366da8546fc250f225fe3d25d0c782303b",
                    "gasUsed": 2523,
                    "id": 1,
                    "methodDecoded": true,
                    "operation": "STATICCALL",
                    "output": "0x000000000000000000000000000000000000000000000000000000006e56decd",
                    "revert": false,
                    "revertMessage": "",
                    "selector": "0xd6e4fa86",
                    "status": true,
                    "value": "0"
                },
                "nodeType": 0
            },
            "10": {
                "event": {
                    "contract": "0x57f1887a8bf19b14fc0df6fd9b2acc9af147ea85",
                    "decodedLog": {
                        "name": "NameRenewed",
                        "params": [
                            {
                                "name": "id",
                                "type": "uint256",
                                "value": "50,519,822,242,235,099,009,045,715,963,681,006,537,240,889,328,486,370,114,860,588,215,721,460,859,377"
                            },
                            {
                                "name": "expires",
                                "type": "uint256",
                                "value": "1,945,794,893"
                            }
                        ],
                        "signature": "NameRenewed(uint256,uint256)"
                    },
                    "id": 10,
                    "logData": "0x0000000000000000000000000000000000000000000000000000000073fa794d",
                    "logDecoded": true,
                    "operation": "EVENT",
                    "revert": false,
                    "status": true,
                    "topics": [
                        "0x9b87a00e30f1ac65d898f070f8a3488fe60517182d0a2098e1b4b93a54aa9bd6",
                        "0x6fb134c1ece2d62c446ed72e33224aab8f7d3ed0ea9b44af17460f27a22981f1"
                    ]
                },
                "nodeType": 1
            },
            "11": {
                "invocation": {
                    "address": "0x57f1887a8bf19b14fc0df6fd9b2acc9af147ea85",
                    "callData": "0x6fb134c1ece2d62c446ed72e33224aab8f7d3ed0ea9b44af17460f27a22981f1",
                    "decodedMethod": {
                        "callParams": [
                            {
                                "name": "tokenId",
                                "type": "uint256",
                                "value": "50,519,822,242,235,099,009,045,715,963,681,006,537,240,889,328,486,370,114,860,588,215,721,460,859,377"
                            }
                        ],
                        "constructorArguments": "",
                        "name": "ownerOf",
                        "returnParams": [
                            {
                                "name": "",
                                "type": "address",
                                "value": "0x4d663bc146dbe8337d5fecd99d6f5cab7b316a26"
                            }
                        ],
                        "signature": "ownerOf(uint256)"
                    },
                    "errorInfo": "",
                    "fromAddress": "0xd4416b13d2b3a9abae7acd5d6c2bbdbe25686401",
                    "gasUsed": 2865,
                    "id": 11,
                    "methodDecoded": true,
                    "operation": "STATICCALL",
                    "output": "0x0000000000000000000000004d663bc146dbe8337d5fecd99d6f5cab7b316a26",
                    "revert": false,
                    "revertMessage": "",
                    "selector": "0x6352211e",
                    "status": true,
                    "value": "0"
                },
                "nodeType": 0
            },
            "12": {
                "invocation": {
                    "address": "0x44ae838b6e3af82412a45c40f6500f285ab4a146",
                    "callData": "0x",
                    "decodedMethod": null,
                    "errorInfo": "",
                    "fromAddress": "0x253553366da8546fc250f225fe3d25d0c782303b",
                    "gasUsed": 0,
                    "id": 12,
                    "methodDecoded": false,
                    "operation": "CALL",
                    "output": "",
                    "revert": false,
                    "revertMessage": "",
                    "selector": "fallback",
                    "status": true,
                    "value": "0.000090426839581594"
                },
                "nodeType": 0
            },
            "13": {
                "event": {
                    "contract": "0x253553366da8546fc250f225fe3d25d0c782303b",
                    "decodedLog": {
                        "name": "NameRenewed",
                        "params": [
                            {
                                "name": "label",
                                "type": "bytes32",
                                "value": "0x6fb134c1ece2d62c446ed72e33224aab8f7d3ed0ea9b44af17460f27a22981f1"
                            },
                            {
                                "name": "name",
                                "type": "string",
                                "value": "millennium"
                            },
                            {
                                "name": "cost",
                                "type": "uint256",
                                "value": "4,611,768,818,661,304"
                            },
                            {
                                "name": "expires",
                                "type": "uint256",
                                "value": "1,945,794,893"
                            }
                        ],
                        "signature": "NameRenewed(string,bytes32,uint256,uint256)"
                    },
                    "id": 13,
                    "logData": "0x0000000000000000000000000000000000000000000000000000000000000060000000000000000000000000000000000000000000000000001062611a38f7b80000000000000000000000000000000000000000000000000000000073fa794d000000000000000000000000000000000000000000000000000000000000000a6d696c6c656e6e69756d00000000000000000000000000000000000000000000",
                    "logDecoded": true,
                    "operation": "EVENT",
                    "revert": false,
                    "status": true,
                    "topics": [
                        "0x3da24c024582931cfaf8267d8ed24d13a82a8068d5bd337d30ec45cea4e506ae",
                        "0x6fb134c1ece2d62c446ed72e33224aab8f7d3ed0ea9b44af17460f27a22981f1"
                    ]
                },
                "nodeType": 1
            },
            "2": {
                "invocation": {
                    "address": "0x7542565191d074ce84fbfa92cae13acb84788ca9",
                    "callData": "0x0000000000000000000000000000000000000000000000000000000000000060000000000000000000000000000000000000000000000000000000006e56decd0000000000000000000000000000000000000000000000000000000005a39a80000000000000000000000000000000000000000000000000000000000000000a6d696c6c656e6e69756d00000000000000000000000000000000000000000000",
                    "decodedMethod": {
                        "callParams": [
                            {
                                "name": "name",
                                "type": "string",
                                "value": "millennium"
                            },
                            {
                                "name": "expires",
                                "type": "uint256",
                                "value": "1,851,186,893"
                            },
                            {
                                "name": "duration",
                                "type": "uint256",
                                "value": "94,608,000"
                            }
                        ],
                        "constructorArguments": "",
                        "name": "price",
                        "returnParams": [
                            {
                                "name": "",
                                "type": "(uint256,uint256)",
                                "value": [
                                    {
                                        "name": "base",
                                        "type": "uint256",
                                        "value": "4,521,341,979,079,710"
                                    },
                                    {
                                        "name": "premium",
                                        "type": "uint256",
                                        "value": "0"
                                    }
                                ]
                            }
                        ],
                        "signature": "price(string,uint256,uint256)"
                    },
                    "errorInfo": "",
                    "fromAddress": "0x253553366da8546fc250f225fe3d25d0c782303b",
                    "gasUsed": 24734,
                    "id": 2,
                    "methodDecoded": true,
                    "operation": "STATICCALL",
                    "output": "0x00000000000000000000000000000000000000000000000000101022f692341e0000000000000000000000000000000000000000000000000000000000000000",
                    "revert": false,
                    "revertMessage": "",
                    "selector": "0x50e9a715",
                    "status": true,
                    "value": "0"
                },
                "nodeType": 0
            },
            "3": {
                "invocation": {
                    "address": "0x5f4ec3df9cbd43714fe2740f5e3616155c5b8419",
                    "callData": "0x",
                    "decodedMethod": {
                        "callParams": [],
                        "constructorArguments": "",
                        "name": "latestAnswer",
                        "returnParams": [
                            {
                                "name": "",
                                "type": "int256",
                                "value": "331,759,908,218"
                            }
                        ],
                        "signature": "latestAnswer()"
                    },
                    "errorInfo": "",
                    "fromAddress": "0x7542565191d074ce84fbfa92cae13acb84788ca9",
                    "gasUsed": 14620,
                    "id": 3,
                    "methodDecoded": true,
                    "operation": "STATICCALL",
                    "output": "0x0000000000000000000000000000000000000000000000000000004d3e6e757a",
                    "revert": false,
                    "revertMessage": "",
                    "selector": "0x50d25bcd",
                    "status": true,
                    "value": "0"
                },
                "nodeType": 0
            },
            "4": {
                "invocation": {
                    "address": "0xe62b71cf983019bff55bc83b48601ce8419650cc",
                    "callData": "0x",
                    "decodedMethod": {
                        "callParams": [],
                        "constructorArguments": "",
                        "name": "latestAnswer",
                        "returnParams": [
                            {
                                "name": "",
                                "type": "int256",
                                "value": "331,759,908,218"
                            }
                        ],
                        "signature": "latestAnswer()"
                    },
                    "errorInfo": "",
                    "fromAddress": "0x5f4ec3df9cbd43714fe2740f5e3616155c5b8419",
                    "gasUsed": 7124,
                    "id": 4,
                    "methodDecoded": true,
                    "operation": "STATICCALL",
                    "output": "0x0000000000000000000000000000000000000000000000000000004d3e6e757a",
                    "revert": false,
                    "revertMessage": "",
                    "selector": "0x50d25bcd",
                    "status": true,
                    "value": "0"
                },
                "nodeType": 0
            },
            "5": {
                "invocation": {
                    "address": "0x5f4ec3df9cbd43714fe2740f5e3616155c5b8419",
                    "callData": "0x",
                    "decodedMethod": {
                        "callParams": [],
                        "constructorArguments": "",
                        "name": "latestAnswer",
                        "returnParams": [
                            {
                                "name": "",
                                "type": "int256",
                                "value": "331,759,908,218"
                            }
                        ],
                        "signature": "latestAnswer()"
                    },
                    "errorInfo": "",
                    "fromAddress": "0x7542565191d074ce84fbfa92cae13acb84788ca9",
                    "gasUsed": 2120,
                    "id": 5,
                    "methodDecoded": true,
                    "operation": "STATICCALL",
                    "output": "0x0000000000000000000000000000000000000000000000000000004d3e6e757a",
                    "revert": false,
                    "revertMessage": "",
                    "selector": "0x50d25bcd",
                    "status": true,
                    "value": "0"
                },
                "nodeType": 0
            },
            "6": {
                "invocation": {
                    "address": "0xe62b71cf983019bff55bc83b48601ce8419650cc",
                    "callData": "0x",
                    "decodedMethod": {
                        "callParams": [],
                        "constructorArguments": "",
                        "name": "latestAnswer",
                        "returnParams": [
                            {
                                "name": "",
                                "type": "int256",
                                "value": "331,759,908,218"
                            }
                        ],
                        "signature": "latestAnswer()"
                    },
                    "errorInfo": "",
                    "fromAddress": "0x5f4ec3df9cbd43714fe2740f5e3616155c5b8419",
                    "gasUsed": 1124,
                    "id": 6,
                    "methodDecoded": true,
                    "operation": "STATICCALL",
                    "output": "0x0000000000000000000000000000000000000000000000000000004d3e6e757a",
                    "revert": false,
                    "revertMessage": "",
                    "selector": "0x50d25bcd",
                    "status": true,
                    "value": "0"
                },
                "nodeType": 0
            },
            "7": {
                "invocation": {
                    "address": "0xd4416b13d2b3a9abae7acd5d6c2bbdbe25686401",
                    "callData": "0x6fb134c1ece2d62c446ed72e33224aab8f7d3ed0ea9b44af17460f27a22981f10000000000000000000000000000000000000000000000000000000005a39a80",
                    "decodedMethod": {
                        "callParams": [
                            {
                                "name": "tokenId",
                                "type": "uint256",
                                "value": "50,519,822,242,235,099,009,045,715,963,681,006,537,240,889,328,486,370,114,860,588,215,721,460,859,377"
                            },
                            {
                                "name": "duration",
                                "type": "uint256",
                                "value": "94,608,000"
                            }
                        ],
                        "constructorArguments": "",
                        "name": "renew",
                        "returnParams": [
                            {
                                "name": "expires",
                                "type": "uint256",
                                "value": "1,945,794,893"
                            }
                        ],
                        "signature": "renew(uint256,uint256)"
                    },
                    "errorInfo": "",
                    "fromAddress": "0x253553366da8546fc250f225fe3d25d0c782303b",
                    "gasUsed": 24736,
                    "id": 7,
                    "methodDecoded": true,
                    "operation": "CALL",
                    "output": "0x0000000000000000000000000000000000000000000000000000000073fa794d",
                    "revert": false,
                    "revertMessage": "",
                    "selector": "0xc475abff",
                    "status": true,
                    "value": "0"
                },
                "nodeType": 0
            },
            "8": {
                "invocation": {
                    "address": "0x57f1887a8bf19b14fc0df6fd9b2acc9af147ea85",
                    "callData": "0x6fb134c1ece2d62c446ed72e33224aab8f7d3ed0ea9b44af17460f27a22981f10000000000000000000000000000000000000000000000000000000005a39a80",
                    "decodedMethod": {
                        "callParams": [
                            {
                                "name": "id",
                                "type": "uint256",
                                "value": "50,519,822,242,235,099,009,045,715,963,681,006,537,240,889,328,486,370,114,860,588,215,721,460,859,377"
                            },
                            {
                                "name": "duration",
                                "type": "uint256",
                                "value": "94,608,000"
                            }
                        ],
                        "constructorArguments": "",
                        "name": "renew",
                        "returnParams": [
                            {
                                "name": "",
                                "type": "uint256",
                                "value": "1,945,794,893"
                            }
                        ],
                        "signature": "renew(uint256,uint256)"
                    },
                    "errorInfo": "",
                    "fromAddress": "0xd4416b13d2b3a9abae7acd5d6c2bbdbe25686401",
                    "gasUsed": 18174,
                    "id": 8,
                    "methodDecoded": true,
                    "operation": "CALL",
                    "output": "0x0000000000000000000000000000000000000000000000000000000073fa794d",
                    "revert": false,
                    "revertMessage": "",
                    "selector": "0xc475abff",
                    "status": true,
                    "value": "0"
                },
                "nodeType": 0
            },
            "9": {
                "invocation": {
                    "address": "0x00000000000c2e074ec69a0dfb2997ba6c7d2e1e",
                    "callData": "0x93cdeb708b7545dc668eb9280176169d1c33cfd8ed6f04690a0bcc88a93fc4ae",
                    "decodedMethod": {
                        "callParams": [
                            {
                                "name": "node",
                                "type": "bytes32",
                                "value": "0x93cdeb708b7545dc668eb9280176169d1c33cfd8ed6f04690a0bcc88a93fc4ae"
                            }
                        ],
                        "constructorArguments": "",
                        "name": "owner",
                        "returnParams": [
                            {
                                "name": "",
                                "type": "address",
                                "value": "0x57f1887a8bf19b14fc0df6fd9b2acc9af147ea85"
                            }
                        ],
                        "signature": "owner(bytes32)"
                    },
                    "errorInfo": "",
                    "fromAddress": "0x57f1887a8bf19b14fc0df6fd9b2acc9af147ea85",
                    "gasUsed": 2951,
                    "id": 9,
                    "methodDecoded": true,
                    "operation": "STATICCALL",
                    "output": "0x00000000000000000000000057f1887a8bf19b14fc0df6fd9b2acc9af147ea85",
                    "revert": false,
                    "revertMessage": "",
                    "selector": "0x02571be3",
                    "status": true,
                    "value": "0"
                },
                "nodeType": 0
            }
        },
        "gasFlame": [
            {
                "children": [
                    {
                        "children": [
                            {
                                "children": [],
                                "depth": 0,
                                "name": "Initial Gas",
                                "value": 21768
                            },
                            {
                                "children": [
                                    {
                                        "children": [],
                                        "depth": 1,
                                        "name": "nameExpires",
                                        "value": 2523
                                    },
                                    {
                                        "children": [
                                            {
                                                "children": [
                                                    {
                                                        "children": [],
                                                        "depth": 3,
                                                        "name": "latestAnswer",
                                                        "value": 7124
                                                    }
                                                ],
                                                "depth": 2,
                                                "name": "latestAnswer",
                                                "value": 14620
                                            },
                                            {
                                                "children": [
                                                    {
                                                        "children": [],
                                                        "depth": 3,
                                                        "name": "latestAnswer",
                                                        "value": 1124
                                                    }
                                                ],
                                                "depth": 2,
                                                "name": "latestAnswer",
                                                "value": 2120
                                            }
                                        ],
                                        "depth": 1,
                                        "name": "price",
                                        "value": 24734
                                    },
                                    {
                                        "children": [
                                            {
                                                "children": [
                                                    {
                                                        "children": [],
                                                        "depth": 3,
                                                        "name": "owner",
                                                        "value": 2951
                                                    }
                                                ],
                                                "depth": 2,
                                                "name": "renew",
                                                "value": 18174
                                            },
                                            {
                                                "children": [],
                                                "depth": 2,
                                                "name": "ownerOf",
                                                "value": 2865
                                            }
                                        ],
                                        "depth": 1,
                                        "name": "renew",
                                        "value": 24736
                                    },
                                    {
                                        "children": [],
                                        "depth": 1,
                                        "name": "fallback",
                                        "value": 0
                                    }
                                ],
                                "depth": 0,
                                "name": "Executed Gas",
                                "value": 71811
                            }
                        ],
                        "depth": -1,
                        "name": "Actual Gas Used",
                        "value": 93579
                    },
                    {
                        "children": [],
                        "depth": -1,
                        "name": "Refunded Gas",
                        "value": 0
                    }
                ],
                "depth": -2,
                "name": "Total Gas",
                "value": 93579
            }
        ],
        "isConfirmed": true,
        "mainTrace": [
            {
                "children": [
                    {
                        "children": [
                            {
                                "children": [],
                                "depth": 1,
                                "id": 1,
                                "order": 1
                            },
                            {
                                "children": [
                                    {
                                        "children": [
                                            {
                                                "children": [],
                                                "depth": 3,
                                                "id": 4,
                                                "order": 4
                                            }
                                        ],
                                        "depth": 2,
                                        "id": 3,
                                        "order": 3
                                    },
                                    {
                                        "children": [
                                            {
                                                "children": [],
                                                "depth": 3,
                                                "id": 6,
                                                "order": 6
                                            }
                                        ],
                                        "depth": 2,
                                        "id": 5,
                                        "order": 5
                                    }
                                ],
                                "depth": 1,
                                "id": 2,
                                "order": 2
                            },
                            {
                                "children": [
                                    {
                                        "children": [
                                            {
                                                "children": [],
                                                "depth": 3,
                                                "id": 9,
                                                "order": 9
                                            },
                                            {
                                                "children": [],
                                                "depth": 3,
                                                "id": 10,
                                                "order": 10
                                            }
                                        ],
                                        "depth": 2,
                                        "id": 8,
                                        "order": 8
                                    },
                                    {
                                        "children": [],
                                        "depth": 2,
                                        "id": 11,
                                        "order": 11
                                    }
                                ],
                                "depth": 1,
                                "id": 7,
                                "order": 7
                            },
                            {
                                "children": [],
                                "depth": 1,
                                "id": 12,
                                "order": 12
                            },
                            {
                                "children": [],
                                "depth": 1,
                                "id": 13,
                                "order": 13
                            }
                        ],
                        "depth": 0,
                        "id": 0,
                        "order": 0
                    }
                ],
                "depth": -1,
                "id": -1,
                "order": -1
            }
        ],
        "mainTraceNodeCount": 14,
        "parentIdMap": {
            "0": -1,
            "1": 0,
            "10": 8,
            "11": 7,
            "12": 0,
            "13": 0,
            "2": 0,
            "3": 2,
            "4": 3,
            "5": 2,
            "6": 5,
            "7": 0,
            "8": 7,
            "9": 8
        },
        "tidyTrace": [
            {
                "children": [
                    {
                        "children": [
                            {
                                "children": [
                                    {
                                        "children": [
                                            {
                                                "children": [],
                                                "depth": 3,
                                                "id": 10,
                                                "order": 10
                                            }
                                        ],
                                        "depth": 2,
                                        "id": 8,
                                        "order": 8
                                    }
                                ],
                                "depth": 1,
                                "id": 7,
                                "order": 7
                            },
                            {
                                "children": [],
                                "depth": 1,
                                "id": 12,
                                "order": 12
                            },
                            {
                                "children": [],
                                "depth": 1,
                                "id": 13,
                                "order": 13
                            }
                        ],
                        "depth": 0,
                        "id": 0,
                        "order": 0
                    }
                ],
                "depth": -1,
                "id": -1,
                "order": -1
            }
        ],
        "tidyTraceNodeCount": 6
    },
    "state_change": {
        "stateChanges": [
            {
                "address": "0x57f1887a8bf19b14fc0df6fd9b2acc9af147ea85",
                "erc": "ERC-721",
                "slots": [
                    {
                        "current": "0x0000000000000000000000000000000000000000000000000000000073fa794d",
                        "key": "0x6bf43fc2c2b225e026e5f973df27da5cf34fb0b4a8c3c58aee1e04cec3b684fb",
                        "prev": "0x000000000000000000000000000000000000000000000000000000006e56decd"
                    }
                ],
                "storageVariables": [
                    {
                        "name": "expiries",
                        "type": "mapping(uint256 => uint256)",
                        "value": {
                            "pairs": [
                                {
                                    "key": "50519822242235099009045715963681006537240889328486370114860588215721460859377",
                                    "value": {
                                        "current": "1945794893",
                                        "prev": "1851186893",
                                        "typeTag": 1
                                    }
                                }
                            ],
                            "typeTag": 4
                        }
                    }
                ]
            }
        ]
    }
}