{
    "balance_change": {
        "balanceChanges": [
            {
                "account": "0x0000000000000000000000000000000000000000",
                "assets": [
                    {
                        "address": "0x94d676b6550a1a0cee48754a1ad52ecf9edc7013",
                        "amount": "1",
                        "iconUrl": "",
                        "isERC1155": true,
                        "isERC721": false,
                        "sign": false,
                        "tokenID": "2",
                        "value": ""
                    },
                    {
                        "address": "0x94d676b6550a1a0cee48754a1ad52ecf9edc7013",
                        "amount": "5",
                        "iconUrl": "",
                        "isERC1155": true,
                        "isERC721": false,
                        "sign": true,
                        "tokenID": "1",
                        "value": ""
                    }
                ]
            },
            {
                "account": "0xe9f108e8bc05f544e31eedc095c3f4179b4b142b",
                "assets": [
                    {
                        "address": "0x94d676b6550a1a0cee48754a1ad52ecf9edc7013",
                        "amount": "5",
                        "iconUrl": "",
                        "isERC1155": true,
                        "isERC721": false,
                        "sign": false,
                        "tokenID": "1",
                        "value": ""
                    },
                    {
                        "address": "0x94d676b6550a1a0cee48754a1ad52ecf9edc7013",
                        "amount": "1",
                        "iconUrl": "",
                        "isERC1155": true,
                        "isERC721": false,
                        "sign": true,
                        "tokenID": "2",
                        "value": ""
                    }
                ]
            }
        ]
    },
    "profile": {
        "basic_info": {
            "baseFee": "23.334785713",
            "blockNumber": 16528426,
            "callData": "0xf242432a000000000000000000000000e9f108e8bc05f544e31eedc095c3f4179b4b142b000000000000000000000000a4fb4bfbd70ae8c81ece9e0fcceffa9953e120cb0000000000000000000000000000000000000000000000000000000000000001000000000000000000000000000000000000000000000000000000000000000500000000000000000000000000000000000000000000000000000000000000a00000000000000000000000000000000000000000000000000000000000000080000000000000000000000000e9f108e8bc05f544e31eedc095c3f4179b4b142b00000000000000000000000094d676b6550a1a0cee48754a1ad52ecf9edc701300000000000000000000000000000000000000000000000000000000293cf0f00000000000000000000000000000000000000000000000000000000000000001",
            "debugEnable": true,
            "errorInfo": "",
            "eventCount": 4,
            "feeRecipient": "0x690b9a9e9aa1c9db991c7721a92d351db4fac990",
            "formatValue": "0",
            "gasLimit": 208537,
            "gasPrice": "24.834785713",
            "gasUsed": 130577,
            "intTxnCount": 9,
            "internalRevert": false,
            "internalRevertMessage": "",
            "isContractCreation": false,
            "isFlashloan": false,
            "maxFee": "38.378427111",
            "nonce": 382,
            "overwritedBlockNumber": -1,
            "priorityFee": "1.5",
            "receiver": "0x94d676b6550a1a0cee48754a1ad52ecf9edc7013",
            "revertMessage": "",
            "sender": "0xe9f108e8bc05f544e31eedc095c3f4179b4b142b",
            "simulationEnable": true,
            "sourceTxnHash": "0xa4d5a64170f3f6824fc127d9a730a7ee0092fe88e49a78a008522424d88245cb",
            "status": true,
            "timestamp": "2023-01-31T17:53:35Z",
            "transactionFee": "0.003242851814046401",
            "txnHash": "0xa4d5a64170f3f6824fc127d9a730a7ee0092fe88e49a78a008522424d88245cb",
            "txnIndex": 13,
            "type": 2,
            "value": "0"
        },
        "fund_flow": [
            {
                "amount": "5",
                "from": "0xe9f108e8bc05f544e31eedc095c3f4179b4b142b",
                "id": 1,
                "isERC1155": true,
                "isERC721": false,
                "isReverted": false,
                "order": 1,
                "to": "0xa4fb4bfbd70ae8c81ece9e0fcceffa9953e120cb",
                "token": "0x94d676b6550a1a0cee48754a1ad52ecf9edc7013",
                "tokenID": "1"
            },
            {
                "amount": "1",
                "from": "0x0000000000000000000000000000000000000000",
                "id": 2,
                "isERC1155": true,
                "isERC721": false,
                "isReverted": false,
                "order": 2,
                "to": "0xe9f108e8bc05f544e31eedc095c3f4179b4b142b",
                "token": "0x94d676b6550a1a0cee48754a1ad52ecf9edc7013",
                "tokenID": "2"
            },
            {
                "amount": "5",
                "from": "0xa4fb4bfbd70ae8c81ece9e0fcceffa9953e120cb",
                "id": 3,
                "isERC1155": true,
                "isERC721": false,
                "isReverted": false,
                "order": 3,
                "to": "0x0000000000000000000000000000000000000000",
                "token": "0x94d676b6550a1a0cee48754a1ad52ecf9edc7013",
                "tokenID": "1"
            }
        ],
        "token_infos": [
            {
                "address": "0xc02aaa39b223fe8d0a0e5c4f27ead9083c756cc2",
                "decimals": 18
            },
            {
                "address": "0xeeeeeeeeeeeeeeeeeeeeeeeeeeeeeeeeeeeeeeee",
                "decimals": 18
            }
        ]
    },
    "address_label": {
        "labels": [
            {
                "address": "0x44e94034afce2dd3cd5eb62528f239686fc8f162",
                "label": "Manifold: Lazy Claim"
            },
            {
                "address": "0x6bf5ed59de0e19999d264746843ff931c0133090",
                "label": "Manifold ERC1155 Creator (M1155)"
            },
            {
                "address": "0x0000000000000000000000000000000000000002",
                "label": "Precompiled"
            },
            {
                "address": "0x0000000000000000000000000000000000000003",
                "label": "Precompiled"
            },
            {
                "address": "0x0000000000000000000000000000000000000004",
                "label": "Precompiled"
            },
            {
                "address": "0xeeeeeeeeeeeeeeeeeeeeeeeeeeeeeeeeeeeeeeee",
                "label": "Ether"
            },
            {
                "address": "0x94d676b6550a1a0cee48754a1ad52ecf9edc7013",
                "label": "NessGraphics Open Editions (OPENN)"
            },
            {
                "address": "0xa4fb4bfbd70ae8c81ece9e0fcceffa9953e120cb",
                "label": "ERC1155BurnRedeem"
            },
            {
                "address": "0x0000000000000000000000000000000000000001",
                "label": "Precompiled"
            }
        ]
    },
    "trace": {
        "accountLabels": null,
        "dataMap": {
            "-1": {
                "invocation": {
                    "address": "0xe9f108e8bc05f544e31eedc095c3f4179b4b142b",
                    "callData": "",
                    "decodedMethod": null,
                    "errorInfo": "",
                    "fromAddress": "",
                    "gasUsed": 0,
                    "id": -1,
                    "methodDecoded": false,
                    "operation": "",
                    "output": "",
                    "revert": false,
                    "revertMessage": "",
                    "selector": "",
                    "status": false,
                    "value": ""
                },
                "nodeType": 0
            },
            "0": {
                "invocation": {
                    "address": "0x94d676b6550a1a0cee48754a1ad52ecf9edc7013",
                    "callData": "0x000000000000000000000000e9f108e8bc05f544e31eedc095c3f4179b4b142b000000000000000000000000a4fb4bfbd70ae8c81ece9e0fcceffa9953e120cb0000000000000000000000000000000000000000000000000000000000000001000000000000000000000000000000000000000000000000000000000000000500000000000000000000000000000000000000000000000000000000000000a00000000000000000000000000000000000000000000000000000000000000080000000000000000000000000e9f108e8bc05f544e31eedc095c3f4179b4b142b00000000000000000000000094d676b6550a1a0cee48754a1ad52ecf9edc701300000000000000000000000000000000000000000000000000000000293cf0f00000000000000000000000000000000000000000000000000000000000000001",
                    "decodedMethod": {
                        "callParams": [
                            {
                                "name": "from",
                                "type": "address",
                                "value": "0xe9f108e8bc05f544e31eedc095c3f4179b4b142b"
                            },
                            {
                                "name": "to",
                                "type": "address",
                                "value": "0xa4fb4bfbd70ae8c81ece9e0fcceffa9953e120cb"
                            },
                            {
                                "name": "id",
                                "type": "uint256",
                                "value": "1"
                            },
                            {
                                "name": "amount",
                                "type": "uint256",
                                "value": "5"
                            },
                            {
                                "name": "data",
                                "type": "bytes",
                                "value": "0x000000000000000000000000e9f108e8bc05f544e31eedc095c3f4179b4b142b00000000000000000000000094d676b6550a1a0cee48754a1ad52ecf9edc701300000000000000000000000000000000000000000000000000000000293cf0f00000000000000000000000000000000000000000000000000000000000000001"
                            }
                        ],
                        "constructorArguments": "",
                        "name": "safeTransferFrom",
                        "returnParams": [],
                        "signature": "safeTransferFrom(address,address,uint256,uint256,bytes)"
                    },
                    "errorInfo": "",
                    "fromAddress": "0xe9f108e8bc05f544e31eedc095c3f4179b4b142b",
                    "gasUsed": 130577,
                    "id": 0,
                    "methodDecoded": true,
                    "operation": "CALL",
                    "output": "",
                    "revert": false,
                    "revertMessage": "",
                    "selector": "0xf242432a",
                    "status": true,
                    "value": "0"
                },
                "nodeType": 0
            },
            "1": {
                "invocation": {
                    "address": "0x6bf5ed59de0e19999d264746843ff931c0133090",
                    "callData": "0x000000000000000000000000e9f108e8bc05f544e31eedc095c3f4179b4b142b000000000000000000000000a4fb4bfbd70ae8c81ece9e0fcceffa9953e120cb0000000000000000000000000000000000000000000000000000000000000001000000000000000000000000000000000000000000000000000000000000000500000000000000000000000000000000000000000000000000000000000000a00000000000000000000000000000000000000000000000000000000000000080000000000000000000000000e9f108e8bc05f544e31eedc095c3f4179b4b142b00000000000000000000000094d676b6550a1a0cee48754a1ad52ecf9edc701300000000000000000000000000000000000000000000000000000000293cf0f00000000000000000000000000000000000000000000000000000000000000001",
                    "decodedMethod": {
                        "callParams": [
                            {
                                "name": "from",
                                "type": "address",
                                "value": "0xe9f108e8bc05f544e31eedc095c3f4179b4b142b"
                            },
                            {
                                "name": "to",
                                "type": "address",
                                "value": "0xa4fb4bfbd70ae8c81ece9e0fcceffa9953e120cb"
                            },
                            {
                                "name": "id",
                                "type": "uint256",
                                "value": "1"
                            },
                            {
                                "name": "amount",
                                "type": "uint256",
                                "value": "5"
                            },
                            {
                                "name": "data",
                                "type": "bytes",
                                "value": "0x000000000000000000000000e9f108e8bc05f544e31eedc095c3f4179b4b142b00000000000000000000000094d676b6550a1a0cee48754a1ad52ecf9edc701300000000000000000000000000000000000000000000000000000000293cf0f00000000000000000000000000000000000000000000000000000000000000001"
                            }
                        ],
                        "constructorArguments": "",
                        "name": "safeTransferFrom",
                        "returnParams": [],
                        "signature": "safeTransferFrom(address,address,uint256,uint256,bytes)"
                    },
                    "errorInfo": "",
                    "fromAddress": "0x94d676b6550a1a0cee48754a1ad52ecf9edc7013",
                    "gasUsed": 132492,
                    "id": 1,
                    "methodDecoded": true,
                    "operation": "DELEGATECALL",
                    "output": "",
                    "revert": false,
                    "revertMessage": "",
                    "selector": "0xf242432a",
                    "status": true,
                    "value": "0"
                },
                "nodeType": 0
            },
            "10": {
                "event": {
                    "contract": "0x94d676b6550a1a0cee48754a1ad52ecf9edc7013",
                    "decodedLog": {
                        "name": "TransferSingle",
                        "params": [
                            {
                                "name": "operator",
                                "type": "address",
                                "value": "0xa4fb4bfbd70ae8c81ece9e0fcceffa9953e120cb"
                            },
                            {
                                "name": "from",
                                "type": "address",
                                "value": "0xa4fb4bfbd70ae8c81ece9e0fcceffa9953e120cb"
                            },
                            {
                                "name": "to",
                                "type": "address",
                                "value": "0x0000000000000000000000000000000000000000"
                            },
                            {
                                "name": "id",
                                "type": "uint256",
                                "value": "1"
                            },
                            {
                                "name": "value",
                                "type": "uint256",
                                "value": "5"
                            }
                        ],
                        "signature": "TransferSingle(address,address,address,uint256,uint256)"
                    },
                    "id": 10,
                    "logData": "0x00000000000000000000000000000000000000000000000000000000000000010000000000000000000000000000000000000000000000000000000000000005",
                    "logDecoded": true,
                    "operation": "EVENT",
                    "revert": false,
                    "status": true,
                    "topics": [
                        "0xc3d58168c5ae7397731d063d5bbf3d657854427343f4c083240f7aacaa2d0f62",
                        "0x000000000000000000000000a4fb4bfbd70ae8c81ece9e0fcceffa9953e120cb",
                        "0x000000000000000000000000a4fb4bfbd70ae8c81ece9e0fcceffa9953e120cb",
                        "0x0000000000000000000000000000000000000000000000000000000000000000"
                    ]
                },
                "nodeType": 1
            },
            "11": {
                "invocation": {
                    "address": "0x44e94034afce2dd3cd5eb62528f239686fc8f162",
                    "callData": "0x01ffc9a700000000000000000000000000000000000000000000000000000000",
                    "decodedMethod": {
                        "callParams": [
                            {
                                "name": "interfaceId",
                                "type": "bytes4",
                                "value": "0x01ffc9a7"
                            }
                        ],
                        "constructorArguments": "",
                        "name": "supportsInterface",
                        "returnParams": [
                            {
                                "name": "",
                                "type": "bool",
                                "value": true
                            }
                        ],
                        "signature": "supportsInterface(bytes4)"
                    },
                    "errorInfo": "",
                    "fromAddress": "0x94d676b6550a1a0cee48754a1ad52ecf9edc7013",
                    "gasUsed": 487,
                    "id": 11,
                    "methodDecoded": true,
                    "operation": "STATICCALL",
                    "output": "0x0000000000000000000000000000000000000000000000000000000000000001",
                    "revert": false,
                    "revertMessage": "",
                    "selector": "0x01ffc9a7",
                    "status": true,
                    "value": "0"
                },
                "nodeType": 0
            },
            "12": {
                "invocation": {
                    "address": "0x44e94034afce2dd3cd5eb62528f239686fc8f162",
                    "callData": "0xffffffff00000000000000000000000000000000000000000000000000000000",
                    "decodedMethod": {
                        "callParams": [
                            {
                                "name": "interfaceId",
                                "type": "bytes4",
                                "value": "0xffffffff"
                            }
                        ],
                        "constructorArguments": "",
                        "name": "supportsInterface",
                        "returnParams": [
                            {
                                "name": "",
                                "type": "bool",
                                "value": false
                            }
                        ],
                        "signature": "supportsInterface(bytes4)"
                    },
                    "errorInfo": "",
                    "fromAddress": "0x94d676b6550a1a0cee48754a1ad52ecf9edc7013",
                    "gasUsed": 487,
                    "id": 12,
                    "methodDecoded": true,
                    "operation": "STATICCALL",
                    "output": "0x0000000000000000000000000000000000000000000000000000000000000000",
                    "revert": false,
                    "revertMessage": "",
                    "selector": "0x01ffc9a7",
                    "status": true,
                    "value": "0"
                },
                "nodeType": 0
            },
            "13": {
                "invocation": {
                    "address": "0x44e94034afce2dd3cd5eb62528f239686fc8f162",
                    "callData": "0x7b8deca000000000000000000000000000000000000000000000000000000000",
                    "decodedMethod": {
                        "callParams": [
                            {
                                "name": "interfaceId",
                                "type": "bytes4",
                                "value": "0x7b8deca0"
                            }
                        ],
                        "constructorArguments": "",
                        "name": "supportsInterface",
                        "returnParams": [
                            {
                                "name": "",
                                "type": "bool",
                                "value": false
                            }
                        ],
                        "signature": "supportsInterface(bytes4)"
                    },
                    "errorInfo": "",
                    "fromAddress": "0x94d676b6550a1a0cee48754a1ad52ecf9edc7013",
                    "gasUsed": 487,
                    "id": 13,
                    "methodDecoded": true,
                    "operation": "STATICCALL",
                    "output": "0x0000000000000000000000000000000000000000000000000000000000000000",
                    "revert": false,
                    "revertMessage": "",
                    "selector": "0x01ffc9a7",
                    "status": true,
                    "value": "0"
                },
                "nodeType": 0
            },
            "2": {
                "event": {
                    "contract": "0x94d676b6550a1a0cee48754a1ad52ecf9edc7013",
                    "decodedLog": {
                        "name": "TransferSingle",
                        "params": [
                            {
                                "name": "operator",
                                "type": "address",
                                "value": "0xe9f108e8bc05f544e31eedc095c3f4179b4b142b"
                            },
                            {
                                "name": "from",
                                "type": "address",
                                "value": "0xe9f108e8bc05f544e31eedc095c3f4179b4b142b"
                            },
                            {
                                "name": "to",
                                "type": "address",
                                "value": "0xa4fb4bfbd70ae8c81ece9e0fcceffa9953e120cb"
                            },
                            {
                                "name": "id",
                                "type": "uint256",
                                "value": "1"
                            },
                            {
                                "name": "value",
                                "type": "uint256",
                                "value": "5"
                            }
                        ],
                        "signature": "TransferSingle(address,address,address,uint256,uint256)"
                    },
                    "id": 2,
                    "logData": "0x00000000000000000000000000000000000000000000000000000000000000010000000000000000000000000000000000000000000000000000000000000005",
                    "logDecoded": true,
                    "operation": "EVENT",
                    "revert": false,
                    "status": true,
                    "topics": [
                        "0xc3d58168c5ae7397731d063d5bbf3d657854427343f4c083240f7aacaa2d0f62",
                        "0x000000000000000000000000e9f108e8bc05f544e31eedc095c3f4179b4b142b",
                        "0x000000000000000000000000e9f108e8bc05f544e31eedc095c3f4179b4b142b",
                        "0x000000000000000000000000a4fb4bfbd70ae8c81ece9e0fcceffa9953e120cb"
                    ]
                },
                "nodeType": 1
            },
            "3": {
                "invocation": {
                    "address": "0xa4fb4bfbd70ae8c81ece9e0fcceffa9953e120cb",
                    "callData": "0x000000000000000000000000e9f108e8bc05f544e31eedc095c3f4179b4b142b000000000000000000000000e9f108e8bc05f544e31eedc095c3f4179b4b142b0000000000000000000000000000000000000000000000000000000000000001000000000000000000000000000000000000000000000000000000000000000500000000000000000000000000000000000000000000000000000000000000a00000000000000000000000000000000000000000000000000000000000000080000000000000000000000000e9f108e8bc05f544e31eedc095c3f4179b4b142b00000000000000000000000094d676b6550a1a0cee48754a1ad52ecf9edc701300000000000000000000000000000000000000000000000000000000293cf0f00000000000000000000000000000000000000000000000000000000000000001",
                    "decodedMethod": {
                        "callParams": [
                            {
                                "name": "",
                                "type": "address",
                                "value": "0xe9f108e8bc05f544e31eedc095c3f4179b4b142b"
                            },
                            {
                                "name": "from",
                                "type": "address",
                                "value": "0xe9f108e8bc05f544e31eedc095c3f4179b4b142b"
                            },
                            {
                                "name": "id",
                                "type": "uint256",
                                "value": "1"
                            },
                            {
                                "name": "value",
                                "type": "uint256",
                                "value": "5"
                            },
                            {
                                "name": "data",
                                "type": "bytes",
                                "value": "0x000000000000000000000000e9f108e8bc05f544e31eedc095c3f4179b4b142b00000000000000000000000094d676b6550a1a0cee48754a1ad52ecf9edc701300000000000000000000000000000000000000000000000000000000293cf0f00000000000000000000000000000000000000000000000000000000000000001"
                            }
                        ],
                        "constructorArguments": "",
                        "name": "onERC1155Received",
                        "returnParams": [
                            {
                                "name": "",
                                "type": "bytes4",
                                "value": "0xf23a6e61"
                            }
                        ],
                        "signature": "onERC1155Received(address,address,uint256,uint256,bytes)"
                    },
                    "errorInfo": "",
                    "fromAddress": "0x94d676b6550a1a0cee48754a1ad52ecf9edc7013",
                    "gasUsed": 89687,
                    "id": 3,
                    "methodDecoded": true,
                    "operation": "CALL",
                    "output": "0xf23a6e6100000000000000000000000000000000000000000000000000000000",
                    "revert": false,
                    "revertMessage": "",
                    "selector": "0xf23a6e61",
                    "status": true,
                    "value": "0"
                },
                "nodeType": 0
            },
            "4": {
                "invocation": {
                    "address": "0x94d676b6550a1a0cee48754a1ad52ecf9edc7013",
                    "callData": "0x000000000000000000000000000000000000000000000000000000000000006000000000000000000000000000000000000000000000000000000000000000a000000000000000000000000000000000000000000000000000000000000000e00000000000000000000000000000000000000000000000000000000000000001000000000000000000000000e9f108e8bc05f544e31eedc095c3f4179b4b142b0000000000000000000000000000000000000000000000000000000000000001000000000000000000000000000000000000000000000000000000000000000200000000000000000000000000000000000000000000000000000000000000010000000000000000000000000000000000000000000000000000000000000001",
                    "decodedMethod": {
                        "callParams": [
                            {
                                "name": "to",
                                "type": "address[]",
                                "value": [
                                    "0xe9f108e8bc05f544e31eedc095c3f4179b4b142b"
                                ]
                            },
                            {
                                "name": "tokenIds",
                                "type": "uint256[]",
                                "value": [
                                    "2"
                                ]
                            },
                            {
                                "name": "amounts",
                                "type": "uint256[]",
                                "value": [
                                    "1"
                                ]
                            }
                        ],
                        "constructorArguments": "",
                        "name": "mintExtensionExisting",
                        "returnParams": [],
                        "signature": "mintExtensionExisting(address[],uint256[],uint256[])"
                    },
                    "errorInfo": "",
                    "fromAddress": "0xa4fb4bfbd70ae8c81ece9e0fcceffa9953e120cb",
                    "gasUsed": 48488,
                    "id": 4,
                    "methodDecoded": true,
                    "operation": "CALL",
                    "output": "",
                    "revert": false,
                    "revertMessage": "",
                    "selector": "0xe6c884dc",
                    "status": true,
                    "value": "0"
                },
                "nodeType": 0
            },
            "5": {
                "invocation": {
                    "address": "0x6bf5ed59de0e19999d264746843ff931c0133090",
                    "callData": "0x000000000000000000000000000000000000000000000000000000000000006000000000000000000000000000000000000000000000000000000000000000a000000000000000000000000000000000000000000000000000000000000000e00000000000000000000000000000000000000000000000000000000000000001000000000000000000000000e9f108e8bc05f544e31eedc095c3f4179b4b142b0000000000000000000000000000000000000000000000000000000000000001000000000000000000000000000000000000000000000000000000000000000200000000000000000000000000000000000000000000000000000000000000010000000000000000000000000000000000000000000000000000000000000001",
                    "decodedMethod": {
                        "callParams": [
                            {
                                "name": "to",
                                "type": "address[]",
                                "value": [
                                    "0xe9f108e8bc05f544e31eedc095c3f4179b4b142b"
                                ]
                            },
                            {
                                "name": "tokenIds",
                                "type": "uint256[]",
                                "value": [
                                    "2"
                                ]
                            },
                            {
                                "name": "amounts",
                                "type": "uint256[]",
                                "value": [
                                    "1"
                                ]
                            }
                        ],
                        "constructorArguments": "",
                        "name": "mintExtensionExisting",
                        "returnParams": [],
                        "signature": "mintExtensionExisting(address[],uint256[],uint256[])"
                    },
                    "errorInfo": "",
                    "fromAddress": "0x94d676b6550a1a0cee48754a1ad52ecf9edc7013",
                    "gasUsed": 48021,
                    "id": 5,
                    "methodDecoded": true,
                    "operation": "DELEGATECALL",
                    "output": "",
                    "revert": false,
                    "revertMessage": "",
                    "selector": "0xe6c884dc",
                    "status": true,
                    "value": "0"
                },
                "nodeType": 0
            },
            "6": {
                "event": {
                    "contract": "0x94d676b6550a1a0cee48754a1ad52ecf9edc7013",
                    "decodedLog": {
                        "name": "TransferSingle",
                        "params": [
                            {
                                "name": "operator",
                                "type": "address",
                                "value": "0xa4fb4bfbd70ae8c81ece9e0fcceffa9953e120cb"
                            },
                            {
                                "name": "from",
                                "type": "address",
                                "value": "0x0000000000000000000000000000000000000000"
                            },
                            {
                                "name": "to",
                                "type": "address",
                                "value": "0xe9f108e8bc05f544e31eedc095c3f4179b4b142b"
                            },
                            {
                                "name": "id",
                                "type": "uint256",
                                "value": "2"
                            },
                            {
                                "name": "value",
                                "type": "uint256",
                                "value": "1"
                            }
                        ],
                        "signature": "TransferSingle(address,address,address,uint256,uint256)"
                    },
                    "id": 6,
                    "logData": "0x00000000000000000000000000000000000000000000000000000000000000020000000000000000000000000000000000000000000000000000000000000001",
                    "logDecoded": true,
                    "operation": "EVENT",
                    "revert": false,
                    "status": true,
                    "topics": [
                        "0xc3d58168c5ae7397731d063d5bbf3d657854427343f4c083240f7aacaa2d0f62",
                        "0x000000000000000000000000a4fb4bfbd70ae8c81ece9e0fcceffa9953e120cb",
                        "0x0000000000000000000000000000000000000000000000000000000000000000",
                        "0x000000000000000000000000e9f108e8bc05f544e31eedc095c3f4179b4b142b"
                    ]
                },
                "nodeType": 1
            },
            "7": {
                "event": {
                    "contract": "0xa4fb4bfbd70ae8c81ece9e0fcceffa9953e120cb",
                    "decodedLog": {
                        "name": "BurnRedeemMint",
                        "params": [
                            {
                                "name": "creatorContract",
                                "type": "address",
                                "value": "0x94d676b6550a1a0cee48754a1ad52ecf9edc7013"
                            },
                            {
                                "name": "tokenId",
                                "type": "uint256",
                                "value": "2"
                            },
                            {
                                "name": "amount",
                                "type": "uint256",
                                "value": "1"
                            },
                            {
                                "name": "burnTokenAddress",
                                "type": "address",
                                "value": "0x94d676b6550a1a0cee48754a1ad52ecf9edc7013"
                            },
                            {
                                "name": "burnTokenId",
                                "type": "uint256",
                                "value": "1"
                            }
                        ],
                        "signature": "BurnRedeemMint(address,uint256,uint256,address,uint256)"
                    },
                    "id": 7,
                    "logData": "0x000000000000000000000000000000000000000000000000000000000000000100000000000000000000000094d676b6550a1a0cee48754a1ad52ecf9edc70130000000000000000000000000000000000000000000000000000000000000001",
                    "logDecoded": true,
                    "operation": "EVENT",
                    "revert": false,
                    "status": true,
                    "topics": [
                        "0x3ea53625fcb61f620716fae8ad32375fc4f80feb23831a3c53731a8bb76d69a8",
                        "0x00000000000000000000000094d676b6550a1a0cee48754a1ad52ecf9edc7013",
                        "0x0000000000000000000000000000000000000000000000000000000000000002"
                    ]
                },
                "nodeType": 1
            },
            "8": {
                "invocation": {
                    "address": "0x94d676b6550a1a0cee48754a1ad52ecf9edc7013",
                    "callData": "0x000000000000000000000000a4fb4bfbd70ae8c81ece9e0fcceffa9953e120cb000000000000000000000000000000000000000000000000000000000000006000000000000000000000000000000000000000000000000000000000000000a00000000000000000000000000000000000000000000000000000000000000001000000000000000000000000000000000000000000000000000000000000000100000000000000000000000000000000000000000000000000000000000000010000000000000000000000000000000000000000000000000000000000000005",
                    "decodedMethod": {
                        "callParams": [
                            {
                                "name": "account",
                                "type": "address",
                                "value": "0xa4fb4bfbd70ae8c81ece9e0fcceffa9953e120cb"
                            },
                            {
                                "name": "tokenIds",
                                "type": "uint256[]",
                                "value": [
                                    "1"
                                ]
                            },
                            {
                                "name": "amounts",
                                "type": "uint256[]",
                                "value": [
                                    "5"
                                ]
                            }
                        ],
                        "constructorArguments": "",
                        "name": "burn",
                        "returnParams": [],
                        "signature": "burn(address,uint256[],uint256[])"
                    },
                    "errorInfo": "",
                    "fromAddress": "0xa4fb4bfbd70ae8c81ece9e0fcceffa9953e120cb",
                    "gasUsed": 21688,
                    "id": 8,
                    "methodDecoded": true,
                    "operation": "CALL",
                    "output": "",
                    "revert": false,
                    "revertMessage": "",
                    "selector": "0x3db0f8ab",
                    "status": true,
                    "value": "0"
                },
                "nodeType": 0
            },
            "9": {
                "invocation": {
                    "address": "0x6bf5ed59de0e19999d264746843ff931c0133090",
                    "callData": "0x000000000000000000000000a4fb4bfbd70ae8c81ece9e0fcceffa9953e120cb000000000000000000000000000000000000000000000000000000000000006000000000000000000000000000000000000000000000000000000000000000a00000000000000000000000000000000000000000000000000000000000000001000000000000000000000000000000000000000000000000000000000000000100000000000000000000000000000000000000000000000000000000000000010000000000000000000000000000000000000000000000000000000000000005",
                    "decodedMethod": {
                        "callParams": [
                            {
                                "name": "account",
                                "type": "address",
                                "value": "0xa4fb4bfbd70ae8c81ece9e0fcceffa9953e120cb"
                            },
                            {
                                "name": "tokenIds",
                                "type": "uint256[]",
                                "value": [
                                    "1"
                                ]
                            },
                            {
                                "name": "amounts",
                                "type": "uint256[]",
                                "value": [
                                    "5"
                                ]
                            }
                        ],
                        "constructorArguments": "",
                        "name": "burn",
                        "returnParams": [],
                        "signature": "burn(address,uint256[],uint256[])"
                    },
                    "errorInfo": "",
                    "fromAddress": "0x94d676b6550a1a0cee48754a1ad52ecf9edc7013",
                    "gasUsed": 21233,
                    "id": 9,
                    "methodDecoded": true,
                    "operation": "DELEGATECALL",
                    "output": "",
                    "revert": false,
                    "revertMessage": "",
                    "selector": "0x3db0f8ab",
                    "status": true,
                    "value": "0"
                },
                "nodeType": 0
            }
        },
        "gasFlame": [
            {
                "children": [
                    {
                        "children": [
                            {
                                "children": [],
                                "depth": 0,
                                "name": "Initial Gas",
                                "value": 23412
                            },
                            {
                                "children": [
                                    {
                                        "children": [
                                            {
                                                "children": [
                                                    {
                                                        "children": [
                                                            {
                                                                "children": [],
                                                                "depth": 4,
                                                                "name": "mintExtensionExisting",
                                                                "value": 48021
                                                            }
                                                        ],
                                                        "depth": 3,
                                                        "name": "mintExtensionExisting",
                                                        "value": 48488
                                                    },
                                                    {
                                                        "children": [
                                                            {
                                                                "children": [
                                                                    {
                                                                        "children": [],
                                                                        "depth": 5,
                                                                        "name": "supportsInterface",
                                                                        "value": 487
                                                                    },
                                                                    {
                                                                        "children": [],
                                                                        "depth": 5,
                                                                        "name": "supportsInterface",
                                                                        "value": 487
                                                                    },
                                                                    {
                                                                        "children": [],
                                                                        "depth": 5,
                                                                        "name": "supportsInterface",
                                                                        "value": 487
                                                                    }
                                                                ],
                                                                "depth": 4,
                                                                "name": "burn",
                                                                "value": 21233
                                                            }
                                                        ],
                                                        "depth": 3,
                                                        "name": "burn",
                                                        "value": 21688
                                                    }
                                                ],
                                                "depth": 2,
                                                "name": "onERC1155Received",
                                                "value": 89687
                                            }
                                        ],
                                        "depth": 1,
                                        "name": "safeTransferFrom",
                                        "value": 132492
                                    }
                                ],
                                "depth": 0,
                                "name": "Executed Gas",
                                "value": 137465
                            }
                        ],
                        "depth": -1,
                        "name": "Actual Gas Used",
                        "value": 130577
                    },
                    {
                        "children": [],
                        "depth": -1,
                        "name": "Refunded Gas",
                        "value": 30300
                    }
                ],
                "depth": -2,
                "name": "Total Gas",
                "value": 160877
            }
        ],
        "isConfirmed": true,
        "mainTrace": [
            {
                "children": [
                    {
                        "children": [
                            {
                                "children": [
                                    {
                                        "children": [],
                                        "depth": 2,
                                        "id": 2,
                                        "order": 2
                                    },
                                    {
                                        "children": [
                                            {
                                                "children": [
                                                    {
                                                        "children": [
                                                            {
                                                                "children": [],
                                                                "depth": 5,
                                                                "id": 6,
                                                                "order": 6
                                                            }
                                                        ],
                                                        "depth": 4,
                                                        "id": 5,
                                                        "order": 5
                                                    }
                                                ],
                                                "depth": 3,
                                                "id": 4,
                                                "order": 4
                                            },
                                            {
                                                "children": [],
                                                "depth": 3,
                                                "id": 7,
                                                "order": 7
                                            },
                                            {
                                                "children": [
                                                    {
                                                        "children": [
                                                            {
                                                                "children": [],
                                                                "depth": 5,
                                                                "id": 10,
                                                                "order": 10
                                                            },
                                                            {
                                                                "children": [],
                                                                "depth": 5,
                                                                "id": 11,
                                                                "order": 11
                                                            },
                                                            {
                                                                "children": [],
                                                                "depth": 5,
                                                                "id": 12,
                                                                "order": 12
                                                            },
                                                            {
                                                                "children": [],
                                                                "depth": 5,
                                                                "id": 13,
                                                                "order": 13
                                                            }
                                                        ],
                                                        "depth": 4,
                                                        "id": 9,
                                                        "order": 9
                                                    }
                                                ],
                                                "depth": 3,
                                                "id": 8,
                                                "order": 8
                                            }
                                        ],
                                        "depth": 2,
                                        "id": 3,
                                        "order": 3
                                    }
                                ],
                                "depth": 1,
                                "id": 1,
                                "order": 1
                            }
                        ],
                        "depth": 0,
                        "id": 0,
                        "order": 0
                    }
                ],
                "depth": -1,
                "id": -1,
                "order": -1
            }
        ],
        "mainTraceNodeCount": 14,
        "parentIdMap": {
            "0": -1,
            "1": 0,
            "10": 9,
            "11": 9,
            "12": 9,
            "13": 9,
            "2": 1,
            "3": 1,
            "4": 3,
            "5": 4,
            "6": 5,
            "7": 3,
            "8": 3,
            "9": 8
        },
        "tidyTrace": [
            {
                "children": [
                    {
                        "children": [
                            {
                                "children": [
                                    {
                                        "children": [],
                                        "depth": 2,
                                        "id": 2,
                                        "order": 2
                                    },
                                    {
                                        "children": [
                                            {
                                                "children": [
                                                    {
                                                        "children": [
                                                            {
                                                                "children": [],
                                                                "depth": 5,
                                                                "id": 6,
                                                                "order": 6
                                                            }
                                                        ],
                                                        "depth": 4,
                                                        "id": 5,
                                                        "order": 5
                                                    }
                                                ],
                                                "depth": 3,
                                                "id": 4,
                                                "order": 4
                                            },
                                            {
                                                "children": [],
                                                "depth": 3,
                                                "id": 7,
                                                "order": 7
                                            },
                                            {
                                                "children": [
                                                    {
                                                        "children": [
                                                            {
                                                                "children": [],
                                                                "depth": 5,
                                                                "id": 10,
                                                                "order": 10
                                                            }
                                                        ],
                                                        "depth": 4,
                                                        "id": 9,
                                                        "order": 9
                                                    }
                                                ],
                                                "depth": 3,
                                                "id": 8,
                                                "order": 8
                                            }
                                        ],
                                        "depth": 2,
                                        "id": 3,
                                        "order": 3
                                    }
                                ],
                                "depth": 1,
                                "id": 1,
                                "order": 1
                            }
                        ],
                        "depth": 0,
                        "id": 0,
                        "order": 0
                    }
                ],
                "depth": -1,
                "id": -1,
                "order": -1
            }
        ],
        "tidyTraceNodeCount": 11
    },
    "state_change": {
        "stateChanges": [
            {
                "address": "0x94d676b6550a1a0cee48754a1ad52ecf9edc7013",
                "erc": "ERC-1155",
                "slots": [
                    {
                        "current": "0x0000000000000000000000000000000000000000000000000000000000000000",
                        "key": "0x47fac392c4bb9772f14eb8cb2205195f0738e457e19f2bf4b3b5602c327bf659",
                        "prev": "0x0000000000000000000000000000000000000000000000000000000000000005"
                    },
                    {
                        "current": "0x0000000000000000000000000000000000000000000000000000000000000001",
                        "key": "0x30101602040fab7352a1fb0115c796d8cc0920627bc90454e3d79ea90410a34d",
                        "prev": "0x0000000000000000000000000000000000000000000000000000000000000000"
                    },
                    {
                        "current": "0x0000000000000000000000000000000000000000000000000000000000000401",
                        "key": "0x434326ad1170f759d4906b3c0b416770c77cb2c84811de719bd4e66fc46a25e4",
                        "prev": "0x0000000000000000000000000000000000000000000000000000000000000400"
                    },
                    {
                        "current": "0x0000000000000000000000000000000000000000000000000000000000003b80",
                        "key": "0x68aa970fc9982b1736189fa5938f76fedf015d4aba180c12c9f5c4c81e25f578",
                        "prev": "0x0000000000000000000000000000000000000000000000000000000000003b85"
                    }
                ],
                "storageVariables": [
                    {
                        "name": "_balances",
                        "type": "mapping(uint256 => mapping(address => uint256))",
                        "value": {
                            "pairs": [
                                {
                                    "key": "1",
                                    "value": {
                                        "pairs": [
                                            {
                                                "key": "0xe9f108e8bc05f544e31eedc095c3f4179b4b142b",
                                                "value": {
                                                    "current": "0",
                                                    "prev": "5",
                                                    "typeTag": 1
                                                }
                                            }
                                        ],
                                        "typeTag": 4
                                    }
                                },
                                {
                                    "key": "2",
                                    "value": {
                                        "pairs": [
                                            {
                                                "key": "0xe9f108e8bc05f544e31eedc095c3f4179b4b142b",
                                                "value": {
                                                    "current": "1",
                                                    "prev": "0",
                                                    "typeTag": 1
                                                }
                                            }
                                        ],
                                        "typeTag": 4
                                    }
                                }
                            ],
                            "typeTag": 4
                        }
                    },
                    {
                        "name": "_totalSupply",
                        "type": "mapping(uint256 => uint256)",
                        "value": {
                            "pairs": [
                                {
                                    "key": "1",
                                    "value": {
                                        "current": "15232",
                                        "prev": "15237",
                                        "typeTag": 1
                                    }
                                },
                                {
                                    "key": "2",
                                    "value": {
                                        "current": "1025",
                                        "prev": "1024",
                                        "typeTag": 1
                                    }
                                }
                            ],
                            "typeTag": 4
                        }
                    }
                ]
            },
            {
                "address": "0xa4fb4bfbd70ae8c81ece9e0fcceffa9953e120cb",
                "erc": "",
                "slots": [
                    {
                        "current": "0x0000000000000000000000000000000200000000000004010000000100000005",
                        "key": "0xf38502d3be18b883950840865035e9d2c1c5f42da97405c059133ceff15b82b9",
                        "prev": "0x0000000000000000000000000000000200000000000004000000000100000005"
                    }
                ],
                "storageVariables": [
                    {
                        "name": "_burnRedeems",
                        "type": "mapping(address => mapping(uint256 => struct IERC1155BurnRedeem.BurnRedeem))",
                        "value": {
                            "pairs": [
                                {
                                    "key": "0x94d676b6550a1a0cee48754a1ad52ecf9edc7013",
                                    "value": {
                                        "pairs": [
                                            {
                                                "key": "691859696",
                                                "value": {
                                                    "fields": [
                                                        {
                                                            "name": "burnAmount",
                                                            "type": "uint32",
                                                            "value": {
                                                                "current": "5",
                                                                "prev": "5",
                                                                "typeTag": 1
                                                            }
                                                        },
                                                        {
                                                            "name": "redeemAmount",
                                                            "type": "uint32",
                                                            "value": {
                                                                "current": "1",
                                                                "prev": "1",
                                                                "typeTag": 1
                                                            }
                                                        },
                                                        {
                                                            "name": "redeemedCount",
                                                            "type": "uint32",
                                                            "value": {
                                                                "current": "1025",
                                                                "prev": "1024",
                                                                "typeTag": 1
                                                            }
                                                        },
                                                        {
                                                            "name": "totalSupply",
                                                            "type": "uint32",
                                                            "value": {
                                                                "current": "0",
                                                                "prev": "0",
                                                                "typeTag": 1
                                                            }
                                                        },
                                                        {
                                                            "name": "storageProtocol",
                                                            "type": "enum IERC1155BurnRedeem.StorageProtocol",
                                                            "value": {
                                                                "current": "2",
                                                                "prev": "2",
                                                                "typeTag": 1
                                                            }
                                                        },
                                                        {
                                                            "name": "location",
                                                            "type": "string",
                                                            "value": {
                                                                "current": "0IeygN46KPfEKNNsvMAdKn0zwwpgu9SjbHEil_X0b7g",
                                                                "prev": "0IeygN46KPfEKNNsvMAdKn0zwwpgu9SjbHEil_X0b7g",
                                                                "typeTag": 1
                                                            }
                                                        }
                                                    ],
                                                    "typeTag": 3
                                                }
                                            }
                                        ],
                                        "typeTag": 4
                                    }
                                }
                            ],
                            "typeTag": 4
                        }
                    }
                ]
            }
        ]
    }
}