{
    "balance_change": {
        "balanceChanges": [
            {
                "account": "0x33bfbb2d88757ac9fc0362b74647c9fb2364de05",
                "assets": [
                    {
                        "address": "0xeeeeeeeeeeeeeeeeeeeeeeeeeeeeeeeeeeeeeeee",
                        "amount": "11.001802",
                        "iconUrl": "https://assets.blocksec.com/image/1663669189317-3.png",
                        "isERC1155": false,
                        "isERC721": false,
                        "sign": false,
                        "value": "35547.534430647062038"
                    },
                    {
                        "address": "0x179212cb86d0ee6a4dfb2abb1cf6a09fee0a9525",
                        "amount": "11.001802",
                        "iconUrl": "",
                        "isERC1155": false,
                        "isERC721": false,
                        "sign": true,
                        "value": ""
                    }
                ]
            },
            {
                "account": "0xaae0633e15200bc9c50d45cd762477d268e126bd",
                "assets": [
                    {
                        "address": "0xeeeeeeeeeeeeeeeeeeeeeeeeeeeeeeeeeeeeeeee",
                        "amount": "11.001802",
                        "iconUrl": "https://assets.blocksec.com/image/1663669189317-3.png",
                        "isERC1155": false,
                        "isERC721": false,
                        "sign": true,
                        "value": "35547.534430647062038"
                    }
                ]
            },
            {
                "account": "0x0000000000000000000000000000000000000000",
                "assets": [
                    {
                        "address": "0x179212cb86d0ee6a4dfb2abb1cf6a09fee0a9525",
                        "amount": "11.001802",
                        "iconUrl": "",
                        "isERC1155": false,
                        "isERC721": false,
                        "sign": false,
                        "value": ""
                    }
                ]
            }
        ]
    },
    "profile": {
        "basic_info": {
            "baseFee": "",
            "blockNumber": 12436893,
            "callData": "0x47e7ef24000000000000000000000000eeeeeeeeeeeeeeeeeeeeeeeeeeeeeeeeeeeeeeee00000000000000000000000000000000000000000000000098ae40a1032ea000",
            "debugEnable": true,
            "errorInfo": "",
            "eventCount": 2,
            "feeRecipient": "0xea674fdde714fd979de3edf0f56aa9716b898ec8",
            "formatValue": "11.001802",
            "gasLimit": 123043,
            "gasPrice": "87.3",
            "gasUsed": 77093,
            "intTxnCount": 2,
            "internalRevert": false,
            "internalRevertMessage": "",
            "isContractCreation": false,
            "isFlashloan": false,
            "maxFee": "",
            "nonce": 82,
            "overwritedBlockNumber": -1,
            "priorityFee": "",
            "receiver": "0xaae0633e15200bc9c50d45cd762477d268e126bd",
            "revertMessage": "",
            "sender": "0x33bfbb2d88757ac9fc0362b74647c9fb2364de05",
            "simulationEnable": true,
            "sourceTxnHash": "0xa46583eb9502b3af23e9c3379b8ffece9db5da8104ee1284d6079ea9dd3b13a6",
            "status": true,
            "timestamp": "2021-05-15T04:45:29Z",
            "transactionFee": "0.0067302189",
            "txnHash": "0xa46583eb9502b3af23e9c3379b8ffece9db5da8104ee1284d6079ea9dd3b13a6",
            "txnIndex": 144,
            "type": 0,
            "value": "11001802000000000000"
        },
        "fund_flow": [
            {
                "amount": "11.001802",
                "from": "0x33bfbb2d88757ac9fc0362b74647c9fb2364de05",
                "id": 1,
                "isERC1155": false,
                "isERC721": false,
                "isReverted": false,
                "order": 1,
                "to": "0xaae0633e15200bc9c50d45cd762477d268e126bd",
                "token": "0xeeeeeeeeeeeeeeeeeeeeeeeeeeeeeeeeeeeeeeee"
            },
            {
                "amount": "11.001802",
                "from": "0x0000000000000000000000000000000000000000",
                "id": 2,
                "isERC1155": false,
                "isERC721": false,
                "isReverted": false,
                "order": 2,
                "to": "0x33bfbb2d88757ac9fc0362b74647c9fb2364de05",
                "token": "0x179212cb86d0ee6a4dfb2abb1cf6a09fee0a9525"
            }
        ],
        "token_infos": [
            {
                "address": "0xeeeeeeeeeeeeeeeeeeeeeeeeeeeeeeeeeeeeeeee",
                "decimals": 18
            },
            {
                "address": "0x179212cb86d0ee6a4dfb2abb1cf6a09fee0a9525",
                "decimals": 18
            },
            {
                "address": "0xc02aaa39b223fe8d0a0e5c4f27ead9083c756cc2",
                "decimals": 18
            }
        ]
    },
    "address_label": {
        "labels": [
            {
                "address": "0xaae0633e15200bc9c50d45cd762477d268e126bd",
                "label": "JITU"
            },
            {
                "address": "0x0000000000000000000000000000000000000001",
                "label": "Precompiled"
            },
            {
                "address": "0x0000000000000000000000000000000000000002",
                "label": "Precompiled"
            },
            {
                "address": "0x0000000000000000000000000000000000000003",
                "label": "Precompiled"
            },
            {
                "address": "0x0000000000000000000000000000000000000004",
                "label": "Precompiled"
            },
            {
                "address": "0xeeeeeeeeeeeeeeeeeeeeeeeeeeeeeeeeeeeeeeee",
                "label": "Ether"
            },
            {
                "address": "0x179212cb86d0ee6a4dfb2abb1cf6a09fee0a9525",
                "label": "kEther (kETH)"
            }
        ]
    },
    "trace": {
        "accountLabels": null,
        "dataMap": {
            "-1": {
                "invocation": {
                    "address": "0x33bfbb2d88757ac9fc0362b74647c9fb2364de05",
                    "callData": "",
                    "decodedMethod": null,
                    "errorInfo": "",
                    "fromAddress": "",
                    "gasUsed": 0,
                    "id": -1,
                    "methodDecoded": false,
                    "operation": "",
                    "output": "",
                    "revert": false,
                    "revertMessage": "",
                    "selector": "",
                    "status": false,
                    "value": ""
                },
                "nodeType": 0
            },
            "0": {
                "invocation": {
                    "address": "0xaae0633e15200bc9c50d45cd762477d268e126bd",
                    "callData": "0x000000000000000000000000eeeeeeeeeeeeeeeeeeeeeeeeeeeeeeeeeeeeeeee00000000000000000000000000000000000000000000000098ae40a1032ea000",
                    "decodedMethod": {
                        "callParams": [
                            {
                                "name": "_token",
                                "type": "address",
                                "value": "0xeeeeeeeeeeeeeeeeeeeeeeeeeeeeeeeeeeeeeeee"
                            },
                            {
                                "name": "_amount",
                                "type": "uint256",
                                "value": "11,001,802,000,000,000,000"
                            }
                        ],
                        "constructorArguments": "",
                        "name": "deposit",
                        "returnParams": [
                            {
                                "name": "",
                                "type": "uint256",
                                "value": "11,001,802,000,000,000,000"
                            }
                        ],
                        "signature": "deposit(address,uint256)"
                    },
                    "errorInfo": "",
                    "fromAddress": "0x33bfbb2d88757ac9fc0362b74647c9fb2364de05",
                    "gasUsed": 77093,
                    "id": 0,
                    "methodDecoded": true,
                    "operation": "CALL",
                    "output": "0x00000000000000000000000000000000000000000000000098ae40a1032ea000",
                    "revert": false,
                    "revertMessage": "",
                    "selector": "0x47e7ef24",
                    "status": true,
                    "value": "11.001802"
                },
                "nodeType": 0
            },
            "1": {
                "invocation": {
                    "address": "0x179212cb86d0ee6a4dfb2abb1cf6a09fee0a9525",
                    "callData": "0x",
                    "decodedMethod": {
                        "callParams": [],
                        "constructorArguments": "",
                        "name": "totalSupply",
                        "returnParams": [
                            {
                                "name": "",
                                "type": "uint256",
                                "value": "32,025,927,504,057,812,608,901"
                            }
                        ],
                        "signature": "totalSupply()"
                    },
                    "errorInfo": "",
                    "fromAddress": "0xaae0633e15200bc9c50d45cd762477d268e126bd",
                    "gasUsed": 2411,
                    "id": 1,
                    "methodDecoded": true,
                    "operation": "STATICCALL",
                    "output": "0x0000000000000000000000000000000000000000000006c82106b84df26b6785",
                    "revert": false,
                    "revertMessage": "",
                    "selector": "0x18160ddd",
                    "status": true,
                    "value": "0"
                },
                "nodeType": 0
            },
            "2": {
                "invocation": {
                    "address": "0x179212cb86d0ee6a4dfb2abb1cf6a09fee0a9525",
                    "callData": "0x00000000000000000000000033bfbb2d88757ac9fc0362b74647c9fb2364de0500000000000000000000000000000000000000000000000098ae40a1032ea000",
                    "decodedMethod": {
                        "callParams": [
                            {
                                "name": "account",
                                "type": "address",
                                "value": "0x33bfbb2d88757ac9fc0362b74647c9fb2364de05"
                            },
                            {
                                "name": "amount",
                                "type": "uint256",
                                "value": "11,001,802,000,000,000,000"
                            }
                        ],
                        "constructorArguments": "",
                        "name": "mint",
                        "returnParams": [
                            {
                                "name": "",
                                "type": "bool",
                                "value": true
                            }
                        ],
                        "signature": "mint(address,uint256)"
                    },
                    "errorInfo": "",
                    "fromAddress": "0xaae0633e15200bc9c50d45cd762477d268e126bd",
                    "gasUsed": 30259,
                    "id": 2,
                    "methodDecoded": true,
                    "operation": "CALL",
                    "output": "0x0000000000000000000000000000000000000000000000000000000000000001",
                    "revert": false,
                    "revertMessage": "",
                    "selector": "0x40c10f19",
                    "status": true,
                    "value": "0"
                },
                "nodeType": 0
            },
            "3": {
                "event": {
                    "contract": "0x179212cb86d0ee6a4dfb2abb1cf6a09fee0a9525",
                    "decodedLog": {
                        "name": "Transfer",
                        "params": [
                            {
                                "name": "from",
                                "type": "address",
                                "value": "0x0000000000000000000000000000000000000000"
                            },
                            {
                                "name": "to",
                                "type": "address",
                                "value": "0x33bfbb2d88757ac9fc0362b74647c9fb2364de05"
                            },
                            {
                                "decimalAvailable": true,
                                "name": "value",
                                "type": "uint256",
                                "value": "11,001,802,000,000,000,000"
                            }
                        ],
                        "signature": "Transfer(address,address,uint256)"
                    },
                    "id": 3,
                    "logData": "0x00000000000000000000000000000000000000000000000098ae40a1032ea000",
                    "logDecoded": true,
                    "operation": "EVENT",
                    "revert": false,
                    "status": true,
                    "topics": [
                        "0xddf252ad1be2c89b69c2b068fc378daa952ba7f163c4a11628f55a4df523b3ef",
                        "0x0000000000000000000000000000000000000000000000000000000000000000",
                        "0x00000000000000000000000033bfbb2d88757ac9fc0362b74647c9fb2364de05"
                    ]
                },
                "nodeType": 1
            },
            "4": {
                "event": {
                    "contract": "0xaae0633e15200bc9c50d45cd762477d268e126bd",
                    "decodedLog": {
                        "name": "Deposited",
                        "params": [
                            {
                                "name": "_depositor",
                                "type": "address",
                                "value": "0x33bfbb2d88757ac9fc0362b74647c9fb2364de05"
                            },
                            {
                                "name": "_token",
                                "type": "address",
                                "value": "0xeeeeeeeeeeeeeeeeeeeeeeeeeeeeeeeeeeeeeeee"
                            },
                            {
                                "name": "_amount",
                                "type": "uint256",
                                "value": "11,001,802,000,000,000,000"
                            },
                            {
                                "name": "_mintAmount",
                                "type": "uint256",
                                "value": "11,001,802,000,000,000,000"
                            }
                        ],
                        "signature": "Deposited(address,address,uint256,uint256)"
                    },
                    "id": 4,
                    "logData": "0x00000000000000000000000000000000000000000000000098ae40a1032ea00000000000000000000000000000000000000000000000000098ae40a1032ea000",
                    "logDecoded": true,
                    "operation": "EVENT",
                    "revert": false,
                    "status": true,
                    "topics": [
                        "0xf5681f9d0db1b911ac18ee83d515a1cf1051853a9eae418316a2fdf7dea427c5",
                        "0x00000000000000000000000033bfbb2d88757ac9fc0362b74647c9fb2364de05",
                        "0x000000000000000000000000eeeeeeeeeeeeeeeeeeeeeeeeeeeeeeeeeeeeeeee"
                    ]
                },
                "nodeType": 1
            }
        },
        "gasFlame": [
            {
                "children": [
                    {
                        "children": [
                            {
                                "children": [],
                                "depth": 0,
                                "name": "Initial Gas",
                                "value": 21644
                            },
                            {
                                "children": [
                                    {
                                        "children": [],
                                        "depth": 1,
                                        "name": "totalSupply",
                                        "value": 2411
                                    },
                                    {
                                        "children": [],
                                        "depth": 1,
                                        "name": "mint",
                                        "value": 30259
                                    }
                                ],
                                "depth": 0,
                                "name": "Executed Gas",
                                "value": 58249
                            }
                        ],
                        "depth": -1,
                        "name": "Actual Gas Used",
                        "value": 77093
                    },
                    {
                        "children": [],
                        "depth": -1,
                        "name": "Refunded Gas",
                        "value": 2800
                    }
                ],
                "depth": -2,
                "name": "Total Gas",
                "value": 79893
            }
        ],
        "isConfirmed": true,
        "mainTrace": [
            {
                "children": [
                    {
                        "children": [
                            {
                                "children": [],
                                "depth": 1,
                                "id": 1,
                                "order": 1
                            },
                            {
                                "children": [
                                    {
                                        "children": [],
                                        "depth": 2,
                                        "id": 3,
                                        "order": 3
                                    }
                                ],
                                "depth": 1,
                                "id": 2,
                                "order": 2
                            },
                            {
                                "children": [],
                                "depth": 1,
                                "id": 4,
                                "order": 4
                            }
                        ],
                        "depth": 0,
                        "id": 0,
                        "order": 0
                    }
                ],
                "depth": -1,
                "id": -1,
                "order": -1
            }
        ],
        "mainTraceNodeCount": 5,
        "parentIdMap": {
            "0": -1,
            "1": 0,
            "2": 0,
            "3": 2,
            "4": 0
        },
        "tidyTrace": [
            {
                "children": [
                    {
                        "children": [
                            {
                                "children": [
                                    {
                                        "children": [],
                                        "depth": 2,
                                        "id": 3,
                                        "order": 3
                                    }
                                ],
                                "depth": 1,
                                "id": 2,
                                "order": 2
                            },
                            {
                                "children": [],
                                "depth": 1,
                                "id": 4,
                                "order": 4
                            }
                        ],
                        "depth": 0,
                        "id": 0,
                        "order": 0
                    }
                ],
                "depth": -1,
                "id": -1,
                "order": -1
            }
        ],
        "tidyTraceNodeCount": 4
    },
    "state_change": {
        "stateChanges": [
            {
                "address": "0x179212cb86d0ee6a4dfb2abb1cf6a09fee0a9525",
                "erc": "ERC-20",
                "slots": [
                    {
                        "current": "0x0000000000000000000000000000000000000000000006c8b9b4f8eef59a0785",
                        "key": "0x0000000000000000000000000000000000000000000000000000000000000002",
                        "prev": "0x0000000000000000000000000000000000000000000006c82106b84df26b6785"
                    },
                    {
                        "current": "0x00000000000000000000000000000000000000000000000098ae40a1032ea000",
                        "key": "0xfc9ff644195bcb6d4a2ab24aad5d09079ba35c1dfe285f3cb1e0cd737522fe1e",
                        "prev": "0x0000000000000000000000000000000000000000000000000000000000000000"
                    }
                ],
                "storageVariables": [
                    {
                        "name": "_totalSupply",
                        "type": "uint256",
                        "value": {
                            "current": "32036929306057812608901",
                            "prev": "32025927504057812608901",
                            "typeTag": 1
                        }
                    },
                    {
                        "name": "_balances",
                        "type": "mapping(address => uint256)",
                        "value": {
                            "pairs": [
                                {
                                    "key": "0x33bfbb2d88757ac9fc0362b74647c9fb2364de05",
                                    "value": {
                                        "current": "11001802000000000000",
                                        "prev": "0",
                                        "typeTag": 1
                                    }
                                }
                            ],
                            "typeTag": 4
                        }
                    }
                ]
            }
        ]
    }
}