{
    "balance_change": {
        "balanceChanges": [
            {
                "account": "0x76571aabbf13b9d9eab3c9994f4b73d57c2ce317",
                "assets": [
                    {
                        "address": "0x12d7b28a055621f4ba0c146d1728082ecf1b9390",
                        "amount": "719",
                        "iconUrl": "",
                        "isERC1155": false,
                        "isERC721": false,
                        "sign": false,
                        "value": "666.4997282"
                    },
                    {
                        "address": "0xeeeeeeeeeeeeeeeeeeeeeeeeeeeeeeeeeeeeeeee",
                        "amount": "0.237809590225266433",
                        "iconUrl": "https://assets.blocksec.com/image/1663669189317-3.png",
                        "isERC1155": false,
                        "isERC721": false,
                        "sign": true,
                        "value": "664.5002289"
                    }
                ]
            },
            {
                "account": "0x13b4e693347a1c7bd66808e20a93e474bd672987",
                "assets": [
                    {
                        "address": "0x12d7b28a055621f4ba0c146d1728082ecf1b9390",
                        "amount": "719",
                        "iconUrl": "",
                        "isERC1155": false,
                        "isERC721": false,
                        "sign": true,
                        "value": "666.4997282"
                    },
                    {
                        "address": "0xc02aaa39b223fe8d0a0e5c4f27ead9083c756cc2",
                        "amount": "0.238525165722433734",
                        "iconUrl": "https://assets.blocksec.com/icon/f1cb2d02c471d545bbc7722daf3277fd852d98e63d118771af7047bd8256c516.png",
                        "isERC1155": false,
                        "isERC721": false,
                        "sign": false,
                        "value": "666.4997281"
                    }
                ]
            },
            {
                "account": "0x96c195f6643a3d797cb90cb6ba0ae2776d51b5f3",
                "assets": [
                    {
                        "address": "0xeeeeeeeeeeeeeeeeeeeeeeeeeeeeeeeeeeeeeeee",
                        "amount": "0.000715575497167301",
                        "iconUrl": "https://assets.blocksec.com/image/1663669189317-3.png",
                        "isERC1155": false,
                        "isERC721": false,
                        "sign": true,
                        "value": "1.99949918"
                    }
                ]
            },
            {
                "account": "0xc02aaa39b223fe8d0a0e5c4f27ead9083c756cc2",
                "assets": [
                    {
                        "address": "0xeeeeeeeeeeeeeeeeeeeeeeeeeeeeeeeeeeeeeeee",
                        "amount": "0.238525165722433734",
                        "iconUrl": "https://assets.blocksec.com/image/1663669189317-3.png",
                        "isERC1155": false,
                        "isERC721": false,
                        "sign": false,
                        "value": "666.4997281"
                    },
                    {
                        "address": "0xc02aaa39b223fe8d0a0e5c4f27ead9083c756cc2",
                        "amount": "0.238525165722433734",
                        "iconUrl": "https://assets.blocksec.com/icon/f1cb2d02c471d545bbc7722daf3277fd852d98e63d118771af7047bd8256c516.png",
                        "isERC1155": false,
                        "isERC721": false,
                        "sign": true,
                        "value": "666.4997281"
                    }
                ]
            }
        ]
    },
    "profile": {
        "basic_info": {
            "baseFee": "34.197696159",
            "blockNumber": 14709228,
            "callData": "0x32464be8000000000000000000000000d12bcdfb9a39be79da3bdf02557efdcd5ca59e770000000000000000000000000000000000000000000000000000000000000060000000000000000000000000000000000000000000000000000000000000024000000000000000000000000012d7b28a055621f4ba0c146d1728082ecf1b9390000000000000000000000000eeeeeeeeeeeeeeeeeeeeeeeeeeeeeeeeeeeeeeee0000000000000000000000000000000000000000000000000000000000000120000000000000000000000000000000000000000000000000000000000000014000000000000000000000000076571aabbf13b9d9eab3c9994f4b73d57c2ce317000000000000000000000000000000000000000000000026fa21229321dc000000000000000000000000000000000000000000000000000003489fbff32b64b70000000000000000000000000000000000000000000000000000000000000020000000000000000000000000000000000000000000000000000000000000016000000000000000000000000000000000000000000000000000000000000000000000000000000000000000000000000000000000000000000000000000000000000000000000000000000000000000000000000000000000000000000000006000000000000000000000000096c195f6643a3d797cb90cb6ba0ae2776d51b5f30000000000000000000000000000000000000000000000000000000000000001000000000000000000000000000000000000000000000000000000000000001e00000000000000000000000000000000000000000000000000000000000003a0000000000000000000000000000000000000000000000000000000000000002000000000000000000000000000000000000000000000000000000000000000a000000000000000000000000000000000000000000000000000000000000000e00000000000000000000000000000000000000000000000000000000000000120000000000000000000000000000000000000000000000000000001808db892d10000000000000000000000000000000000000000000000000000000000000300000000000000000000000000000000000000000000000000000000000000000100000000000000000000000013b4e693347a1c7bd66808e20a93e474bd6729870000000000000000000000000000000000000000000000000000000000000001000000000000000000000000000000000000000000000026fa21229321dc00000000000000000000000000000000000000000000000000000000000000000001000000000000000000000000000000000000000000000000000000000000002000000000000000000000000000000000000000000000000000000000000001800000000000000000000000000000000000000000000000000000000000000020000000000000000000000000000000000000000000000000000000000000000100000000000000000000000000000000000000000000000000000000000000200000000000000000000000000000000000000000000000000000000000000040000000000000000000000000000000000000000000000000000000000000000100000000000000000000000000000000000000000000000000000000000000c000000000000000000000000013b4e693347a1c7bd66808e20a93e474bd67298700000000000000000000000012d7b28a055621f4ba0c146d1728082ecf1b9390000000000000000000000000c02aaa39b223fe8d0a0e5c4f27ead9083c756cc2000000000000000000000000d12bcdfb9a39be79da3bdf02557efdcd5ca59e7700000000000000000000000000000000000000000000000000000000000000000000000000000000000000000000000000000000000000000000000000000000000000000000000000000000000000000000000000000000000000000000006000000000000000000000000096c195f6643a3d797cb90cb6ba0ae2776d51b5f30000000000000000000000000000000000000000000000000000000000000001000000000000000000000000000000000000000000000000000000000000001e",
            "debugEnable": true,
            "errorInfo": "",
            "eventCount": 8,
            "feeRecipient": "0x829bd824b016326a401d083b33d092293333a830",
            "formatValue": "0",
            "gasLimit": 287338,
            "gasPrice": "41.509865391",
            "gasUsed": 168859,
            "intTxnCount": 22,
            "internalRevert": false,
            "internalRevertMessage": "",
            "isContractCreation": false,
            "isFlashloan": false,
            "maxFee": "41.509865391",
            "nonce": 156,
            "overwritedBlockNumber": -1,
            "priorityFee": "38.509865391",
            "receiver": "0xdf1a1b60f2d438842916c0adc43748768353ec25",
            "revertMessage": "",
            "sender": "0x76571aabbf13b9d9eab3c9994f4b73d57c2ce317",
            "simulationEnable": true,
            "sourceTxnHash": "0xa48f6bb16b117629227b4c68c8b356d2191fa41fc950f36220ed3e7543c4a52d",
            "status": true,
            "timestamp": "2022-05-04T06:01:00Z",
            "transactionFee": "0.007009314360058869",
            "txnHash": "0xa48f6bb16b117629227b4c68c8b356d2191fa41fc950f36220ed3e7543c4a52d",
            "txnIndex": 77,
            "type": 2,
            "value": "0"
        },
        "fund_flow": [
            {
                "amount": "719",
                "from": "0x76571aabbf13b9d9eab3c9994f4b73d57c2ce317",
                "id": 1,
                "isERC1155": false,
                "isERC721": false,
                "isReverted": false,
                "order": 1,
                "to": "0x13b4e693347a1c7bd66808e20a93e474bd672987",
                "token": "0x12d7b28a055621f4ba0c146d1728082ecf1b9390"
            },
            {
                "amount": "0.238525165722433734",
                "from": "0x13b4e693347a1c7bd66808e20a93e474bd672987",
                "id": 2,
                "isERC1155": false,
                "isERC721": false,
                "isReverted": false,
                "order": 2,
                "to": "0xd12bcdfb9a39be79da3bdf02557efdcd5ca59e77",
                "token": "0xc02aaa39b223fe8d0a0e5c4f27ead9083c756cc2"
            },
            {
                "amount": "0.238525165722433734",
                "from": "0xc02aaa39b223fe8d0a0e5c4f27ead9083c756cc2",
                "id": 3,
                "isERC1155": false,
                "isERC721": false,
                "isReverted": false,
                "order": 3,
                "to": "0xd12bcdfb9a39be79da3bdf02557efdcd5ca59e77",
                "token": "0xeeeeeeeeeeeeeeeeeeeeeeeeeeeeeeeeeeeeeeee"
            },
            {
                "amount": "0.238525165722433734",
                "from": "0xd12bcdfb9a39be79da3bdf02557efdcd5ca59e77",
                "id": 4,
                "isERC1155": false,
                "isERC721": false,
                "isReverted": false,
                "order": 4,
                "to": "0xc02aaa39b223fe8d0a0e5c4f27ead9083c756cc2",
                "token": "0xc02aaa39b223fe8d0a0e5c4f27ead9083c756cc2"
            },
            {
                "amount": "0.000715575497167301",
                "from": "0xd12bcdfb9a39be79da3bdf02557efdcd5ca59e77",
                "id": 5,
                "isERC1155": false,
                "isERC721": false,
                "isReverted": false,
                "order": 5,
                "to": "0x96c195f6643a3d797cb90cb6ba0ae2776d51b5f3",
                "token": "0xeeeeeeeeeeeeeeeeeeeeeeeeeeeeeeeeeeeeeeee"
            },
            {
                "amount": "0.237809590225266433",
                "from": "0xd12bcdfb9a39be79da3bdf02557efdcd5ca59e77",
                "id": 6,
                "isERC1155": false,
                "isERC721": false,
                "isReverted": false,
                "order": 6,
                "to": "0x76571aabbf13b9d9eab3c9994f4b73d57c2ce317",
                "token": "0xeeeeeeeeeeeeeeeeeeeeeeeeeeeeeeeeeeeeeeee"
            }
        ],
        "token_infos": [
            {
                "address": "0x12d7b28a055621f4ba0c146d1728082ecf1b9390",
                "decimals": 18
            },
            {
                "address": "0xc02aaa39b223fe8d0a0e5c4f27ead9083c756cc2",
                "decimals": 18
            },
            {
                "address": "0xeeeeeeeeeeeeeeeeeeeeeeeeeeeeeeeeeeeeeeee",
                "decimals": 18
            }
        ]
    },
    "address_label": {
        "labels": [
            {
                "address": "0xa9249f4d7e84b206d010bc90211a11fda57785b4",
                "label": "FireBirdFormula"
            },
            {
                "address": "0xdf1a1b60f2d438842916c0adc43748768353ec25",
                "label": "KyberSwap: Aggregation Router 2"
            },
            {
                "address": "0x0000000000000000000000000000000000000001",
                "label": "Precompiled"
            },
            {
                "address": "0x0000000000000000000000000000000000000003",
                "label": "Precompiled"
            },
            {
                "address": "0x12d7b28a055621f4ba0c146d1728082ecf1b9390",
                "label": "TREAT (TREAT)"
            },
            {
                "address": "0xc02aaa39b223fe8d0a0e5c4f27ead9083c756cc2",
                "label": "Wrapped Ether (WETH)"
            },
            {
                "address": "0x0000000000000000000000000000000000000002",
                "label": "Precompiled"
            },
            {
                "address": "0x0000000000000000000000000000000000000004",
                "label": "Precompiled"
            },
            {
                "address": "0xeeeeeeeeeeeeeeeeeeeeeeeeeeeeeeeeeeeeeeee",
                "label": "Ether"
            },
            {
                "address": "0x13b4e693347a1c7bd66808e20a93e474bd672987",
                "label": "SushiSwap: TREAT"
            }
        ]
    },
    "trace": {
        "accountLabels": null,
        "dataMap": {
            "-1": {
                "invocation": {
                    "address": "0x76571aabbf13b9d9eab3c9994f4b73d57c2ce317",
                    "callData": "",
                    "decodedMethod": null,
                    "errorInfo": "",
                    "fromAddress": "",
                    "gasUsed": 0,
                    "id": -1,
                    "methodDecoded": false,
                    "operation": "",
                    "output": "",
                    "revert": false,
                    "revertMessage": "",
                    "selector": "",
                    "status": false,
                    "value": ""
                },
                "nodeType": 0
            },
            "0": {
                "invocation": {
                    "address": "0xdf1a1b60f2d438842916c0adc43748768353ec25",
                    "callData": "0x000000000000000000000000d12bcdfb9a39be79da3bdf02557efdcd5ca59e770000000000000000000000000000000000000000000000000000000000000060000000000000000000000000000000000000000000000000000000000000024000000000000000000000000012d7b28a055621f4ba0c146d1728082ecf1b9390000000000000000000000000eeeeeeeeeeeeeeeeeeeeeeeeeeeeeeeeeeeeeeee0000000000000000000000000000000000000000000000000000000000000120000000000000000000000000000000000000000000000000000000000000014000000000000000000000000076571aabbf13b9d9eab3c9994f4b73d57c2ce317000000000000000000000000000000000000000000000026fa21229321dc000000000000000000000000000000000000000000000000000003489fbff32b64b70000000000000000000000000000000000000000000000000000000000000020000000000000000000000000000000000000000000000000000000000000016000000000000000000000000000000000000000000000000000000000000000000000000000000000000000000000000000000000000000000000000000000000000000000000000000000000000000000000000000000000000000000000006000000000000000000000000096c195f6643a3d797cb90cb6ba0ae2776d51b5f30000000000000000000000000000000000000000000000000000000000000001000000000000000000000000000000000000000000000000000000000000001e00000000000000000000000000000000000000000000000000000000000003a0000000000000000000000000000000000000000000000000000000000000002000000000000000000000000000000000000000000000000000000000000000a000000000000000000000000000000000000000000000000000000000000000e00000000000000000000000000000000000000000000000000000000000000120000000000000000000000000000000000000000000000000000001808db892d10000000000000000000000000000000000000000000000000000000000000300000000000000000000000000000000000000000000000000000000000000000100000000000000000000000013b4e693347a1c7bd66808e20a93e474bd6729870000000000000000000000000000000000000000000000000000000000000001000000000000000000000000000000000000000000000026fa21229321dc00000000000000000000000000000000000000000000000000000000000000000001000000000000000000000000000000000000000000000000000000000000002000000000000000000000000000000000000000000000000000000000000001800000000000000000000000000000000000000000000000000000000000000020000000000000000000000000000000000000000000000000000000000000000100000000000000000000000000000000000000000000000000000000000000200000000000000000000000000000000000000000000000000000000000000040000000000000000000000000000000000000000000000000000000000000000100000000000000000000000000000000000000000000000000000000000000c000000000000000000000000013b4e693347a1c7bd66808e20a93e474bd67298700000000000000000000000012d7b28a055621f4ba0c146d1728082ecf1b9390000000000000000000000000c02aaa39b223fe8d0a0e5c4f27ead9083c756cc2000000000000000000000000d12bcdfb9a39be79da3bdf02557efdcd5ca59e7700000000000000000000000000000000000000000000000000000000000000000000000000000000000000000000000000000000000000000000000000000000000000000000000000000000000000000000000000000000000000000000006000000000000000000000000096c195f6643a3d797cb90cb6ba0ae2776d51b5f30000000000000000000000000000000000000000000000000000000000000001000000000000000000000000000000000000000000000000000000000000001e",
                    "decodedMethod": {
                        "callParams": [
                            {
                                "name": "caller",
                                "type": "address",
                                "value": "0xd12bcdfb9a39be79da3bdf02557efdcd5ca59e77"
                            },
                            {
                                "name": "desc",
                                "type": "(address,address,address[],uint256[],address,uint256,uint256,uint256,bytes)",
                                "value": [
                                    {
                                        "name": "srcToken",
                                        "type": "address",
                                        "value": "0x12d7b28a055621f4ba0c146d1728082ecf1b9390"
                                    },
                                    {
                                        "name": "dstToken",
                                        "type": "address",
                                        "value": "0xeeeeeeeeeeeeeeeeeeeeeeeeeeeeeeeeeeeeeeee"
                                    },
                                    {
                                        "name": "srcReceivers",
                                        "type": "address[]",
                                        "value": []
                                    },
                                    {
                                        "name": "srcAmounts",
                                        "type": "uint256[]",
                                        "value": []
                                    },
                                    {
                                        "name": "dstReceiver",
                                        "type": "address",
                                        "value": "0x76571aabbf13b9d9eab3c9994f4b73d57c2ce317"
                                    },
                                    {
                                        "name": "amount",
                                        "type": "uint256",
                                        "value": "719,000,000,000,000,000,000"
                                    },
                                    {
                                        "name": "minReturnAmount",
                                        "type": "uint256",
                                        "value": "236,614,627,204,228,279"
                                    },
                                    {
                                        "name": "flags",
                                        "type": "uint256",
                                        "value": "32"
                                    },
                                    {
                                        "name": "permit",
                                        "type": "bytes",
                                        "value": "0x00000000000000000000000096c195f6643a3d797cb90cb6ba0ae2776d51b5f30000000000000000000000000000000000000000000000000000000000000001000000000000000000000000000000000000000000000000000000000000001e"
                                    }
                                ]
                            },
                            {
                                "name": "data",
                                "type": "bytes",
                                "value": "0x000000000000000000000000000000000000000000000000000000000000002000000000000000000000000000000000000000000000000000000000000000a000000000000000000000000000000000000000000000000000000000000000e00000000000000000000000000000000000000000000000000000000000000120000000000000000000000000000000000000000000000000000001808db892d10000000000000000000000000000000000000000000000000000000000000300000000000000000000000000000000000000000000000000000000000000000100000000000000000000000013b4e693347a1c7bd66808e20a93e474bd6729870000000000000000000000000000000000000000000000000000000000000001000000000000000000000000000000000000000000000026fa21229321dc00000000000000000000000000000000000000000000000000000000000000000001000000000000000000000000000000000000000000000000000000000000002000000000000000000000000000000000000000000000000000000000000001800000000000000000000000000000000000000000000000000000000000000020000000000000000000000000000000000000000000000000000000000000000100000000000000000000000000000000000000000000000000000000000000200000000000000000000000000000000000000000000000000000000000000040000000000000000000000000000000000000000000000000000000000000000100000000000000000000000000000000000000000000000000000000000000c000000000000000000000000013b4e693347a1c7bd66808e20a93e474bd67298700000000000000000000000012d7b28a055621f4ba0c146d1728082ecf1b9390000000000000000000000000c02aaa39b223fe8d0a0e5c4f27ead9083c756cc2000000000000000000000000d12bcdfb9a39be79da3bdf02557efdcd5ca59e7700000000000000000000000000000000000000000000000000000000000000000000000000000000000000000000000000000000000000000000000000000000000000000000000000000000000000000000000000000000000000000000006000000000000000000000000096c195f6643a3d797cb90cb6ba0ae2776d51b5f30000000000000000000000000000000000000000000000000000000000000001000000000000000000000000000000000000000000000000000000000000001e"
                            }
                        ],
                        "constructorArguments": "",
                        "name": "swap",
                        "returnParams": [
                            {
                                "name": "returnAmount",
                                "type": "uint256",
                                "value": "237,809,590,225,266,433"
                            }
                        ],
                        "signature": "swap(address,(address,address,address[],uint256[],address,uint256,uint256,uint256,bytes),bytes)"
                    },
                    "errorInfo": "",
                    "fromAddress": "0x76571aabbf13b9d9eab3c9994f4b73d57c2ce317",
                    "gasUsed": 168859,
                    "id": 0,
                    "methodDecoded": true,
                    "operation": "CALL",
                    "output": "0x000000000000000000000000000000000000000000000000034cde8ff58ee701",
                    "revert": false,
                    "revertMessage": "",
                    "selector": "0x32464be8",
                    "status": true,
                    "value": "0"
                },
                "nodeType": 0
            },
            "1": {
                "invocation": {
                    "address": "0x12d7b28a055621f4ba0c146d1728082ecf1b9390",
                    "callData": "0x00000000000000000000000076571aabbf13b9d9eab3c9994f4b73d57c2ce31700000000000000000000000013b4e693347a1c7bd66808e20a93e474bd672987000000000000000000000000000000000000000000000026fa21229321dc0000",
                    "decodedMethod": {
                        "callParams": [
                            {
                                "name": "from",
                                "type": "address",
                                "value": "0x76571aabbf13b9d9eab3c9994f4b73d57c2ce317"
                            },
                            {
                                "name": "to",
                                "type": "address",
                                "value": "0x13b4e693347a1c7bd66808e20a93e474bd672987"
                            },
                            {
                                "decimalAvailable": true,
                                "name": "value",
                                "type": "uint256",
                                "value": "719,000,000,000,000,000,000"
                            }
                        ],
                        "constructorArguments": "",
                        "name": "transferFrom",
                        "returnParams": [
                            {
                                "name": "",
                                "type": "bool",
                                "value": true
                            }
                        ],
                        "signature": "transferFrom(address,address,uint256)"
                    },
                    "errorInfo": "",
                    "fromAddress": "0xdf1a1b60f2d438842916c0adc43748768353ec25",
                    "gasUsed": 14968,
                    "id": 1,
                    "methodDecoded": true,
                    "operation": "CALL",
                    "output": "0x0000000000000000000000000000000000000000000000000000000000000001",
                    "revert": false,
                    "revertMessage": "",
                    "selector": "0x23b872dd",
                    "status": true,
                    "value": "0"
                },
                "nodeType": 0
            },
            "10": {
                "invocation": {
                    "address": "0xc02aaa39b223fe8d0a0e5c4f27ead9083c756cc2",
                    "callData": "0x000000000000000000000000d12bcdfb9a39be79da3bdf02557efdcd5ca59e77",
                    "decodedMethod": {
                        "callParams": [
                            {
                                "name": "",
                                "type": "address",
                                "value": "0xd12bcdfb9a39be79da3bdf02557efdcd5ca59e77"
                            }
                        ],
                        "constructorArguments": "",
                        "name": "balanceOf",
                        "returnParams": [
                            {
                                "decimalAvailable": true,
                                "name": "",
                                "type": "uint256",
                                "value": "0"
                            }
                        ],
                        "signature": "balanceOf(address)"
                    },
                    "errorInfo": "",
                    "fromAddress": "0xd12bcdfb9a39be79da3bdf02557efdcd5ca59e77",
                    "gasUsed": 2534,
                    "id": 10,
                    "methodDecoded": true,
                    "operation": "STATICCALL",
                    "output": "0x0000000000000000000000000000000000000000000000000000000000000000",
                    "revert": false,
                    "revertMessage": "",
                    "selector": "0x70a08231",
                    "status": true,
                    "value": "0"
                },
                "nodeType": 0
            },
            "11": {
                "invocation": {
                    "address": "0x13b4e693347a1c7bd66808e20a93e474bd672987",
                    "callData": "0x",
                    "decodedMethod": {
                        "callParams": [],
                        "constructorArguments": "",
                        "name": "token0",
                        "returnParams": [
                            {
                                "name": "",
                                "type": "address",
                                "value": "0x12d7b28a055621f4ba0c146d1728082ecf1b9390"
                            }
                        ],
                        "signature": "token0()"
                    },
                    "errorInfo": "",
                    "fromAddress": "0xd12bcdfb9a39be79da3bdf02557efdcd5ca59e77",
                    "gasUsed": 449,
                    "id": 11,
                    "methodDecoded": true,
                    "operation": "STATICCALL",
                    "output": "0x00000000000000000000000012d7b28a055621f4ba0c146d1728082ecf1b9390",
                    "revert": false,
                    "revertMessage": "",
                    "selector": "0x0dfe1681",
                    "status": true,
                    "value": "0"
                },
                "nodeType": 0
            },
            "12": {
                "invocation": {
                    "address": "0x13b4e693347a1c7bd66808e20a93e474bd672987",
                    "callData": "0x0000000000000000000000000000000000000000000000000000000000000000000000000000000000000000000000000000000000000000034f695fdce078c6000000000000000000000000d12bcdfb9a39be79da3bdf02557efdcd5ca59e7700000000000000000000000000000000000000000000000000000000000000800000000000000000000000000000000000000000000000000000000000000000",
                    "decodedMethod": {
                        "callParams": [
                            {
                                "name": "amount0Out",
                                "type": "uint256",
                                "value": "0"
                            },
                            {
                                "name": "amount1Out",
                                "type": "uint256",
                                "value": "238,525,165,722,433,734"
                            },
                            {
                                "name": "to",
                                "type": "address",
                                "value": "0xd12bcdfb9a39be79da3bdf02557efdcd5ca59e77"
                            },
                            {
                                "name": "data",
                                "type": "bytes",
                                "value": "0x"
                            }
                        ],
                        "constructorArguments": "",
                        "name": "swap",
                        "returnParams": [],
                        "signature": "swap(uint256,uint256,address,bytes)"
                    },
                    "errorInfo": "",
                    "fromAddress": "0xd12bcdfb9a39be79da3bdf02557efdcd5ca59e77",
                    "gasUsed": 56734,
                    "id": 12,
                    "methodDecoded": true,
                    "operation": "CALL",
                    "output": "",
                    "revert": false,
                    "revertMessage": "",
                    "selector": "0x022c0d9f",
                    "status": true,
                    "value": "0"
                },
                "nodeType": 0
            },
            "13": {
                "invocation": {
                    "address": "0xc02aaa39b223fe8d0a0e5c4f27ead9083c756cc2",
                    "callData": "0x000000000000000000000000d12bcdfb9a39be79da3bdf02557efdcd5ca59e77000000000000000000000000000000000000000000000000034f695fdce078c6",
                    "decodedMethod": {
                        "callParams": [
                            {
                                "name": "dst",
                                "type": "address",
                                "value": "0xd12bcdfb9a39be79da3bdf02557efdcd5ca59e77"
                            },
                            {
                                "decimalAvailable": true,
                                "name": "wad",
                                "type": "uint256",
                                "value": "238,525,165,722,433,734"
                            }
                        ],
                        "constructorArguments": "",
                        "name": "transfer",
                        "returnParams": [
                            {
                                "name": "",
                                "type": "bool",
                                "value": true
                            }
                        ],
                        "signature": "transfer(address,uint256)"
                    },
                    "errorInfo": "",
                    "fromAddress": "0x13b4e693347a1c7bd66808e20a93e474bd672987",
                    "gasUsed": 27962,
                    "id": 13,
                    "methodDecoded": true,
                    "operation": "CALL",
                    "output": "0x0000000000000000000000000000000000000000000000000000000000000001",
                    "revert": false,
                    "revertMessage": "",
                    "selector": "0xa9059cbb",
                    "status": true,
                    "value": "0"
                },
                "nodeType": 0
            },
            "14": {
                "event": {
                    "contract": "0xc02aaa39b223fe8d0a0e5c4f27ead9083c756cc2",
                    "decodedLog": {
                        "name": "Transfer",
                        "params": [
                            {
                                "name": "src",
                                "type": "address",
                                "value": "0x13b4e693347a1c7bd66808e20a93e474bd672987"
                            },
                            {
                                "name": "dst",
                                "type": "address",
                                "value": "0xd12bcdfb9a39be79da3bdf02557efdcd5ca59e77"
                            },
                            {
                                "decimalAvailable": true,
                                "name": "wad",
                                "type": "uint256",
                                "value": "238,525,165,722,433,734"
                            }
                        ],
                        "signature": "Transfer(address,address,uint256)"
                    },
                    "id": 14,
                    "logData": "0x000000000000000000000000000000000000000000000000034f695fdce078c6",
                    "logDecoded": true,
                    "operation": "EVENT",
                    "revert": false,
                    "status": true,
                    "topics": [
                        "0xddf252ad1be2c89b69c2b068fc378daa952ba7f163c4a11628f55a4df523b3ef",
                        "0x00000000000000000000000013b4e693347a1c7bd66808e20a93e474bd672987",
                        "0x000000000000000000000000d12bcdfb9a39be79da3bdf02557efdcd5ca59e77"
                    ]
                },
                "nodeType": 1
            },
            "15": {
                "invocation": {
                    "address": "0x12d7b28a055621f4ba0c146d1728082ecf1b9390",
                    "callData": "0x00000000000000000000000013b4e693347a1c7bd66808e20a93e474bd672987",
                    "decodedMethod": {
                        "callParams": [
                            {
                                "name": "",
                                "type": "address",
                                "value": "0x13b4e693347a1c7bd66808e20a93e474bd672987"
                            }
                        ],
                        "constructorArguments": "",
                        "name": "balanceOf",
                        "returnParams": [
                            {
                                "decimalAvailable": true,
                                "name": "",
                                "type": "uint256",
                                "value": "7,969,189,730,112,347,821,480"
                            }
                        ],
                        "signature": "balanceOf(address)"
                    },
                    "errorInfo": "",
                    "fromAddress": "0x13b4e693347a1c7bd66808e20a93e474bd672987",
                    "gasUsed": 542,
                    "id": 15,
                    "methodDecoded": true,
                    "operation": "STATICCALL",
                    "output": "0x0000000000000000000000000000000000000000000001b002b95cf5dd93d5a8",
                    "revert": false,
                    "revertMessage": "",
                    "selector": "0x70a08231",
                    "status": true,
                    "value": "0"
                },
                "nodeType": 0
            },
            "16": {
                "invocation": {
                    "address": "0xc02aaa39b223fe8d0a0e5c4f27ead9083c756cc2",
                    "callData": "0x00000000000000000000000013b4e693347a1c7bd66808e20a93e474bd672987",
                    "decodedMethod": {
                        "callParams": [
                            {
                                "name": "",
                                "type": "address",
                                "value": "0x13b4e693347a1c7bd66808e20a93e474bd672987"
                            }
                        ],
                        "constructorArguments": "",
                        "name": "balanceOf",
                        "returnParams": [
                            {
                                "decimalAvailable": true,
                                "name": "",
                                "type": "uint256",
                                "value": "2,412,456,712,131,017,362"
                            }
                        ],
                        "signature": "balanceOf(address)"
                    },
                    "errorInfo": "",
                    "fromAddress": "0x13b4e693347a1c7bd66808e20a93e474bd672987",
                    "gasUsed": 534,
                    "id": 16,
                    "methodDecoded": true,
                    "operation": "STATICCALL",
                    "output": "0x000000000000000000000000000000000000000000000000217ac49912937a92",
                    "revert": false,
                    "revertMessage": "",
                    "selector": "0x70a08231",
                    "status": true,
                    "value": "0"
                },
                "nodeType": 0
            },
            "17": {
                "event": {
                    "contract": "0x13b4e693347a1c7bd66808e20a93e474bd672987",
                    "decodedLog": {
                        "name": "Sync",
                        "params": [
                            {
                                "name": "reserve0",
                                "type": "uint112",
                                "value": "7,969,189,730,112,347,821,480"
                            },
                            {
                                "name": "reserve1",
                                "type": "uint112",
                                "value": "2,412,456,712,131,017,362"
                            }
                        ],
                        "signature": "Sync(uint112,uint112)"
                    },
                    "id": 17,
                    "logData": "0x0000000000000000000000000000000000000000000001b002b95cf5dd93d5a8000000000000000000000000000000000000000000000000217ac49912937a92",
                    "logDecoded": true,
                    "operation": "EVENT",
                    "revert": false,
                    "status": true,
                    "topics": [
                        "0x1c411e9a96e071241c2f21f7726b17ae89e3cab4c78be50e062b03a9fffbbad1"
                    ]
                },
                "nodeType": 1
            },
            "18": {
                "event": {
                    "contract": "0x13b4e693347a1c7bd66808e20a93e474bd672987",
                    "decodedLog": {
                        "name": "Swap",
                        "params": [
                            {
                                "name": "sender",
                                "type": "address",
                                "value": "0xd12bcdfb9a39be79da3bdf02557efdcd5ca59e77"
                            },
                            {
                                "name": "to",
                                "type": "address",
                                "value": "0xd12bcdfb9a39be79da3bdf02557efdcd5ca59e77"
                            },
                            {
                                "name": "amount0In",
                                "type": "uint256",
                                "value": "719,000,000,000,000,000,000"
                            },
                            {
                                "name": "amount1In",
                                "type": "uint256",
                                "value": "0"
                            },
                            {
                                "name": "amount0Out",
                                "type": "uint256",
                                "value": "0"
                            },
                            {
                                "name": "amount1Out",
                                "type": "uint256",
                                "value": "238,525,165,722,433,734"
                            }
                        ],
                        "signature": "Swap(address,uint256,uint256,uint256,uint256,address)"
                    },
                    "id": 18,
                    "logData": "0x000000000000000000000000000000000000000000000026fa21229321dc000000000000000000000000000000000000000000000000000000000000000000000000000000000000000000000000000000000000000000000000000000000000000000000000000000000000000000000000000000000000034f695fdce078c6",
                    "logDecoded": true,
                    "operation": "EVENT",
                    "revert": false,
                    "status": true,
                    "topics": [
                        "0xd78ad95fa46c994b6551d0da85fc275fe613ce37657fb8d5e3d130840159d822",
                        "0x000000000000000000000000d12bcdfb9a39be79da3bdf02557efdcd5ca59e77",
                        "0x000000000000000000000000d12bcdfb9a39be79da3bdf02557efdcd5ca59e77"
                    ]
                },
                "nodeType": 1
            },
            "19": {
                "event": {
                    "contract": "0xd12bcdfb9a39be79da3bdf02557efdcd5ca59e77",
                    "decodedLog": {
                        "name": "Exchange",
                        "params": [
                            {
                                "name": "pair",
                                "type": "address",
                                "value": "0x13b4e693347a1c7bd66808e20a93e474bd672987"
                            },
                            {
                                "name": "amountOut",
                                "type": "uint256",
                                "value": "238,525,165,722,433,734"
                            },
                            {
                                "name": "output",
                                "type": "address",
                                "value": "0xc02aaa39b223fe8d0a0e5c4f27ead9083c756cc2"
                            }
                        ],
                        "signature": "Exchange(address,uint256,address)"
                    },
                    "id": 19,
                    "logData": "0x00000000000000000000000013b4e693347a1c7bd66808e20a93e474bd672987000000000000000000000000000000000000000000000000034f695fdce078c6000000000000000000000000c02aaa39b223fe8d0a0e5c4f27ead9083c756cc2",
                    "logDecoded": true,
                    "operation": "EVENT",
                    "revert": false,
                    "status": true,
                    "topics": [
                        "0xddac40937f35385a34f721af292e5a83fc5b840f722bff57c2fc71adba708c48"
                    ]
                },
                "nodeType": 1
            },
            "2": {
                "event": {
                    "contract": "0x12d7b28a055621f4ba0c146d1728082ecf1b9390",
                    "decodedLog": {
                        "name": "Transfer",
                        "params": [
                            {
                                "name": "from",
                                "type": "address",
                                "value": "0x76571aabbf13b9d9eab3c9994f4b73d57c2ce317"
                            },
                            {
                                "name": "to",
                                "type": "address",
                                "value": "0x13b4e693347a1c7bd66808e20a93e474bd672987"
                            },
                            {
                                "decimalAvailable": true,
                                "name": "value",
                                "type": "uint256",
                                "value": "719,000,000,000,000,000,000"
                            }
                        ],
                        "signature": "Transfer(address,address,uint256)"
                    },
                    "id": 2,
                    "logData": "0x000000000000000000000000000000000000000000000026fa21229321dc0000",
                    "logDecoded": true,
                    "operation": "EVENT",
                    "revert": false,
                    "status": true,
                    "topics": [
                        "0xddf252ad1be2c89b69c2b068fc378daa952ba7f163c4a11628f55a4df523b3ef",
                        "0x00000000000000000000000076571aabbf13b9d9eab3c9994f4b73d57c2ce317",
                        "0x00000000000000000000000013b4e693347a1c7bd66808e20a93e474bd672987"
                    ]
                },
                "nodeType": 1
            },
            "20": {
                "invocation": {
                    "address": "0xc02aaa39b223fe8d0a0e5c4f27ead9083c756cc2",
                    "callData": "0x000000000000000000000000d12bcdfb9a39be79da3bdf02557efdcd5ca59e77",
                    "decodedMethod": {
                        "callParams": [
                            {
                                "name": "",
                                "type": "address",
                                "value": "0xd12bcdfb9a39be79da3bdf02557efdcd5ca59e77"
                            }
                        ],
                        "constructorArguments": "",
                        "name": "balanceOf",
                        "returnParams": [
                            {
                                "decimalAvailable": true,
                                "name": "",
                                "type": "uint256",
                                "value": "238,525,165,722,433,734"
                            }
                        ],
                        "signature": "balanceOf(address)"
                    },
                    "errorInfo": "",
                    "fromAddress": "0xd12bcdfb9a39be79da3bdf02557efdcd5ca59e77",
                    "gasUsed": 534,
                    "id": 20,
                    "methodDecoded": true,
                    "operation": "STATICCALL",
                    "output": "0x000000000000000000000000000000000000000000000000034f695fdce078c6",
                    "revert": false,
                    "revertMessage": "",
                    "selector": "0x70a08231",
                    "status": true,
                    "value": "0"
                },
                "nodeType": 0
            },
            "21": {
                "invocation": {
                    "address": "0xd12bcdfb9a39be79da3bdf02557efdcd5ca59e77",
                    "callData": "0x00000000000000000000000012d7b28a055621f4ba0c146d1728082ecf1b9390000000000000000000000000eeeeeeeeeeeeeeeeeeeeeeeeeeeeeeeeeeeeeeee00000000000000000000000076571aabbf13b9d9eab3c9994f4b73d57c2ce3170000000000000000000000000000000000000000000000000000000000000080000000000000000000000000000000000000000000000000000000000000006000000000000000000000000096c195f6643a3d797cb90cb6ba0ae2776d51b5f30000000000000000000000000000000000000000000000000000000000000001000000000000000000000000000000000000000000000000000000000000001e",
                    "decodedMethod": null,
                    "errorInfo": "",
                    "fromAddress": "0xdf1a1b60f2d438842916c0adc43748768353ec25",
                    "gasUsed": 32862,
                    "id": 21,
                    "methodDecoded": false,
                    "operation": "CALL",
                    "output": "",
                    "revert": false,
                    "revertMessage": "",
                    "selector": "0x774b6b7e",
                    "status": true,
                    "value": "0"
                },
                "nodeType": 0
            },
            "22": {
                "invocation": {
                    "address": "0xc02aaa39b223fe8d0a0e5c4f27ead9083c756cc2",
                    "callData": "0x000000000000000000000000d12bcdfb9a39be79da3bdf02557efdcd5ca59e77",
                    "decodedMethod": {
                        "callParams": [
                            {
                                "name": "",
                                "type": "address",
                                "value": "0xd12bcdfb9a39be79da3bdf02557efdcd5ca59e77"
                            }
                        ],
                        "constructorArguments": "",
                        "name": "balanceOf",
                        "returnParams": [
                            {
                                "decimalAvailable": true,
                                "name": "",
                                "type": "uint256",
                                "value": "238,525,165,722,433,734"
                            }
                        ],
                        "signature": "balanceOf(address)"
                    },
                    "errorInfo": "",
                    "fromAddress": "0xd12bcdfb9a39be79da3bdf02557efdcd5ca59e77",
                    "gasUsed": 534,
                    "id": 22,
                    "methodDecoded": true,
                    "operation": "STATICCALL",
                    "output": "0x000000000000000000000000000000000000000000000000034f695fdce078c6",
                    "revert": false,
                    "revertMessage": "",
                    "selector": "0x70a08231",
                    "status": true,
                    "value": "0"
                },
                "nodeType": 0
            },
            "23": {
                "invocation": {
                    "address": "0xc02aaa39b223fe8d0a0e5c4f27ead9083c756cc2",
                    "callData": "0x000000000000000000000000000000000000000000000000034f695fdce078c6",
                    "decodedMethod": {
                        "callParams": [
                            {
                                "name": "wad",
                                "type": "uint256",
                                "value": "238,525,165,722,433,734"
                            }
                        ],
                        "constructorArguments": "",
                        "name": "withdraw",
                        "returnParams": [],
                        "signature": "withdraw(uint256)"
                    },
                    "errorInfo": "",
                    "fromAddress": "0xd12bcdfb9a39be79da3bdf02557efdcd5ca59e77",
                    "gasUsed": 9195,
                    "id": 23,
                    "methodDecoded": true,
                    "operation": "CALL",
                    "output": "",
                    "revert": false,
                    "revertMessage": "",
                    "selector": "0x2e1a7d4d",
                    "status": true,
                    "value": "0"
                },
                "nodeType": 0
            },
            "24": {
                "invocation": {
                    "address": "0xd12bcdfb9a39be79da3bdf02557efdcd5ca59e77",
                    "callData": "0x",
                    "decodedMethod": null,
                    "errorInfo": "",
                    "fromAddress": "0xc02aaa39b223fe8d0a0e5c4f27ead9083c756cc2",
                    "gasUsed": 55,
                    "id": 24,
                    "methodDecoded": false,
                    "operation": "CALL",
                    "output": "",
                    "revert": false,
                    "revertMessage": "",
                    "selector": "fallback",
                    "status": true,
                    "value": "0.238525165722433734"
                },
                "nodeType": 0
            },
            "25": {
                "event": {
                    "contract": "0xc02aaa39b223fe8d0a0e5c4f27ead9083c756cc2",
                    "decodedLog": {
                        "name": "Withdrawal",
                        "params": [
                            {
                                "name": "src",
                                "type": "address",
                                "value": "0xd12bcdfb9a39be79da3bdf02557efdcd5ca59e77"
                            },
                            {
                                "name": "wad",
                                "type": "uint256",
                                "value": "238,525,165,722,433,734"
                            }
                        ],
                        "signature": "Withdrawal(address,uint256)"
                    },
                    "id": 25,
                    "logData": "0x000000000000000000000000000000000000000000000000034f695fdce078c6",
                    "logDecoded": true,
                    "operation": "EVENT",
                    "revert": false,
                    "status": true,
                    "topics": [
                        "0x7fcf532c15f0a6db0bd6d0e038bea71d30d808c7d98cb3bf7268a95bf5081b65",
                        "0x000000000000000000000000d12bcdfb9a39be79da3bdf02557efdcd5ca59e77"
                    ]
                },
                "nodeType": 1
            },
            "26": {
                "invocation": {
                    "address": "0x96c195f6643a3d797cb90cb6ba0ae2776d51b5f3",
                    "callData": "0x",
                    "decodedMethod": null,
                    "errorInfo": "",
                    "fromAddress": "0xd12bcdfb9a39be79da3bdf02557efdcd5ca59e77",
                    "gasUsed": 0,
                    "id": 26,
                    "methodDecoded": false,
                    "operation": "CALL",
                    "output": "",
                    "revert": false,
                    "revertMessage": "",
                    "selector": "fallback",
                    "status": true,
                    "value": "0.000715575497167301"
                },
                "nodeType": 0
            },
            "27": {
                "invocation": {
                    "address": "0x76571aabbf13b9d9eab3c9994f4b73d57c2ce317",
                    "callData": "0x",
                    "decodedMethod": null,
                    "errorInfo": "",
                    "fromAddress": "0xd12bcdfb9a39be79da3bdf02557efdcd5ca59e77",
                    "gasUsed": 0,
                    "id": 27,
                    "methodDecoded": false,
                    "operation": "CALL",
                    "output": "",
                    "revert": false,
                    "revertMessage": "",
                    "selector": "fallback",
                    "status": true,
                    "value": "0.237809590225266433"
                },
                "nodeType": 0
            },
            "28": {
                "invocation": {
                    "address": "0x12d7b28a055621f4ba0c146d1728082ecf1b9390",
                    "callData": "0x000000000000000000000000d12bcdfb9a39be79da3bdf02557efdcd5ca59e77",
                    "decodedMethod": {
                        "callParams": [
                            {
                                "name": "",
                                "type": "address",
                                "value": "0xd12bcdfb9a39be79da3bdf02557efdcd5ca59e77"
                            }
                        ],
                        "constructorArguments": "",
                        "name": "balanceOf",
                        "returnParams": [
                            {
                                "decimalAvailable": true,
                                "name": "",
                                "type": "uint256",
                                "value": "0"
                            }
                        ],
                        "signature": "balanceOf(address)"
                    },
                    "errorInfo": "",
                    "fromAddress": "0xd12bcdfb9a39be79da3bdf02557efdcd5ca59e77",
                    "gasUsed": 2542,
                    "id": 28,
                    "methodDecoded": true,
                    "operation": "STATICCALL",
                    "output": "0x0000000000000000000000000000000000000000000000000000000000000000",
                    "revert": false,
                    "revertMessage": "",
                    "selector": "0x70a08231",
                    "status": true,
                    "value": "0"
                },
                "nodeType": 0
            },
            "29": {
                "event": {
                    "contract": "0xdf1a1b60f2d438842916c0adc43748768353ec25",
                    "decodedLog": {
                        "name": "Swapped",
                        "params": [
                            {
                                "name": "sender",
                                "type": "address",
                                "value": "0x76571aabbf13b9d9eab3c9994f4b73d57c2ce317"
                            },
                            {
                                "name": "srcToken",
                                "type": "address",
                                "value": "0x12d7b28a055621f4ba0c146d1728082ecf1b9390"
                            },
                            {
                                "name": "dstToken",
                                "type": "address",
                                "value": "0xeeeeeeeeeeeeeeeeeeeeeeeeeeeeeeeeeeeeeeee"
                            },
                            {
                                "name": "dstReceiver",
                                "type": "address",
                                "value": "0x76571aabbf13b9d9eab3c9994f4b73d57c2ce317"
                            },
                            {
                                "name": "spentAmount",
                                "type": "uint256",
                                "value": "719,000,000,000,000,000,000"
                            },
                            {
                                "name": "returnAmount",
                                "type": "uint256",
                                "value": "237,809,590,225,266,433"
                            }
                        ],
                        "signature": "Swapped(address,address,address,address,uint256,uint256)"
                    },
                    "id": 29,
                    "logData": "0x00000000000000000000000076571aabbf13b9d9eab3c9994f4b73d57c2ce31700000000000000000000000012d7b28a055621f4ba0c146d1728082ecf1b9390000000000000000000000000eeeeeeeeeeeeeeeeeeeeeeeeeeeeeeeeeeeeeeee00000000000000000000000076571aabbf13b9d9eab3c9994f4b73d57c2ce317000000000000000000000000000000000000000000000026fa21229321dc0000000000000000000000000000000000000000000000000000034cde8ff58ee701",
                    "logDecoded": true,
                    "operation": "EVENT",
                    "revert": false,
                    "status": true,
                    "topics": [
                        "0xd6d4f5681c246c9f42c203e287975af1601f8df8035a9251f79aab5c8f09e2f8"
                    ]
                },
                "nodeType": 1
            },
            "3": {
                "invocation": {
                    "address": "0xd12bcdfb9a39be79da3bdf02557efdcd5ca59e77",
                    "callData": "0x000000000000000000000000000000000000000000000000000000000000002000000000000000000000000000000000000000000000000000000000000001800000000000000000000000000000000000000000000000000000000000000020000000000000000000000000000000000000000000000000000000000000000100000000000000000000000000000000000000000000000000000000000000200000000000000000000000000000000000000000000000000000000000000040000000000000000000000000000000000000000000000000000000000000000100000000000000000000000000000000000000000000000000000000000000c000000000000000000000000013b4e693347a1c7bd66808e20a93e474bd67298700000000000000000000000012d7b28a055621f4ba0c146d1728082ecf1b9390000000000000000000000000c02aaa39b223fe8d0a0e5c4f27ead9083c756cc2000000000000000000000000d12bcdfb9a39be79da3bdf02557efdcd5ca59e7700000000000000000000000000000000000000000000000000000000000000000000000000000000000000000000000000000000000000000000000000000000",
                    "decodedMethod": null,
                    "errorInfo": "",
                    "fromAddress": "0xdf1a1b60f2d438842916c0adc43748768353ec25",
                    "gasUsed": 92460,
                    "id": 3,
                    "methodDecoded": false,
                    "operation": "CALL",
                    "output": "",
                    "revert": false,
                    "revertMessage": "",
                    "selector": "0x8b674f5d",
                    "status": true,
                    "value": "0"
                },
                "nodeType": 0
            },
            "30": {
                "event": {
                    "contract": "0xdf1a1b60f2d438842916c0adc43748768353ec25",
                    "decodedLog": {
                        "name": "Exchange",
                        "params": [
                            {
                                "name": "pair",
                                "type": "address",
                                "value": "0xd12bcdfb9a39be79da3bdf02557efdcd5ca59e77"
                            },
                            {
                                "name": "amountOut",
                                "type": "uint256",
                                "value": "237,809,590,225,266,433"
                            },
                            {
                                "name": "output",
                                "type": "address",
                                "value": "0xc02aaa39b223fe8d0a0e5c4f27ead9083c756cc2"
                            }
                        ],
                        "signature": "Exchange(address,uint256,address)"
                    },
                    "id": 30,
                    "logData": "0x000000000000000000000000d12bcdfb9a39be79da3bdf02557efdcd5ca59e77000000000000000000000000000000000000000000000000034cde8ff58ee701000000000000000000000000c02aaa39b223fe8d0a0e5c4f27ead9083c756cc2",
                    "logDecoded": true,
                    "operation": "EVENT",
                    "revert": false,
                    "status": true,
                    "topics": [
                        "0xddac40937f35385a34f721af292e5a83fc5b840f722bff57c2fc71adba708c48"
                    ]
                },
                "nodeType": 1
            },
            "4": {
                "invocation": {
                    "address": "0xa9249f4d7e84b206d010bc90211a11fda57785b4",
                    "callData": "0x00000000000000000000000059a16ece7143459801c3b3f24dc8a0cdfb95657100000000000000000000000013b4e693347a1c7bd66808e20a93e474bd67298700000000000000000000000012d7b28a055621f4ba0c146d1728082ecf1b93900000000000000000000000000000000000000000000000000000000000000001",
                    "decodedMethod": {
                        "callParams": [
                            {
                                "name": "factory",
                                "type": "address",
                                "value": "0x59a16ece7143459801c3b3f24dc8a0cdfb956571"
                            },
                            {
                                "name": "pair",
                                "type": "address",
                                "value": "0x13b4e693347a1c7bd66808e20a93e474bd672987"
                            },
                            {
                                "name": "tokenA",
                                "type": "address",
                                "value": "0x12d7b28a055621f4ba0c146d1728082ecf1b9390"
                            },
                            {
                                "name": "dexId",
                                "type": "uint8",
                                "value": "1"
                            }
                        ],
                        "constructorArguments": "",
                        "name": "getFactoryReserveAndWeights",
                        "returnParams": [
                            {
                                "name": "tokenB",
                                "type": "address",
                                "value": "0xc02aaa39b223fe8d0a0e5c4f27ead9083c756cc2"
                            },
                            {
                                "name": "reserveA",
                                "type": "uint256",
                                "value": "7,250,189,730,112,347,821,480"
                            },
                            {
                                "name": "reserveB",
                                "type": "uint256",
                                "value": "2,650,981,877,853,451,096"
                            },
                            {
                                "name": "tokenWeightA",
                                "type": "uint32",
                                "value": "50"
                            },
                            {
                                "name": "tokenWeightB",
                                "type": "uint32",
                                "value": "50"
                            },
                            {
                                "name": "swapFee",
                                "type": "uint32",
                                "value": "30"
                            }
                        ],
                        "signature": "getFactoryReserveAndWeights(address,address,address,uint8)"
                    },
                    "errorInfo": "",
                    "fromAddress": "0xd12bcdfb9a39be79da3bdf02557efdcd5ca59e77",
                    "gasUsed": 16178,
                    "id": 4,
                    "methodDecoded": true,
                    "operation": "STATICCALL",
                    "output": "0x000000000000000000000000c02aaa39b223fe8d0a0e5c4f27ead9083c756cc200000000000000000000000000000000000000000000018908983a62bbb7d5a800000000000000000000000000000000000000000000000024ca2df8ef73f35800000000000000000000000000000000000000000000000000000000000000320000000000000000000000000000000000000000000000000000000000000032000000000000000000000000000000000000000000000000000000000000001e",
                    "revert": false,
                    "revertMessage": "",
                    "selector": "0xeb22d54f",
                    "status": true,
                    "value": "0"
                },
                "nodeType": 0
            },
            "5": {
                "invocation": {
                    "address": "0x13b4e693347a1c7bd66808e20a93e474bd672987",
                    "callData": "0x",
                    "decodedMethod": {
                        "callParams": [],
                        "constructorArguments": "",
                        "name": "getReserves",
                        "returnParams": [
                            {
                                "name": "_reserve0",
                                "type": "uint112",
                                "value": "7,250,189,730,112,347,821,480"
                            },
                            {
                                "name": "_reserve1",
                                "type": "uint112",
                                "value": "2,650,981,877,853,451,096"
                            },
                            {
                                "name": "_blockTimestampLast",
                                "type": "uint32",
                                "value": "1,651,631,797"
                            }
                        ],
                        "signature": "getReserves()"
                    },
                    "errorInfo": "",
                    "fromAddress": "0xa9249f4d7e84b206d010bc90211a11fda57785b4",
                    "gasUsed": 2517,
                    "id": 5,
                    "methodDecoded": true,
                    "operation": "STATICCALL",
                    "output": "0x00000000000000000000000000000000000000000000018908983a62bbb7d5a800000000000000000000000000000000000000000000000024ca2df8ef73f358000000000000000000000000000000000000000000000000000000006271e6b5",
                    "revert": false,
                    "revertMessage": "",
                    "selector": "0x0902f1ac",
                    "status": true,
                    "value": "0"
                },
                "nodeType": 0
            },
            "6": {
                "invocation": {
                    "address": "0x13b4e693347a1c7bd66808e20a93e474bd672987",
                    "callData": "0x",
                    "decodedMethod": {
                        "callParams": [],
                        "constructorArguments": "",
                        "name": "token0",
                        "returnParams": [
                            {
                                "name": "",
                                "type": "address",
                                "value": "0x12d7b28a055621f4ba0c146d1728082ecf1b9390"
                            }
                        ],
                        "signature": "token0()"
                    },
                    "errorInfo": "",
                    "fromAddress": "0xa9249f4d7e84b206d010bc90211a11fda57785b4",
                    "gasUsed": 2449,
                    "id": 6,
                    "methodDecoded": true,
                    "operation": "STATICCALL",
                    "output": "0x00000000000000000000000012d7b28a055621f4ba0c146d1728082ecf1b9390",
                    "revert": false,
                    "revertMessage": "",
                    "selector": "0x0dfe1681",
                    "status": true,
                    "value": "0"
                },
                "nodeType": 0
            },
            "7": {
                "invocation": {
                    "address": "0x13b4e693347a1c7bd66808e20a93e474bd672987",
                    "callData": "0x",
                    "decodedMethod": {
                        "callParams": [],
                        "constructorArguments": "",
                        "name": "token1",
                        "returnParams": [
                            {
                                "name": "",
                                "type": "address",
                                "value": "0xc02aaa39b223fe8d0a0e5c4f27ead9083c756cc2"
                            }
                        ],
                        "signature": "token1()"
                    },
                    "errorInfo": "",
                    "fromAddress": "0xa9249f4d7e84b206d010bc90211a11fda57785b4",
                    "gasUsed": 2381,
                    "id": 7,
                    "methodDecoded": true,
                    "operation": "STATICCALL",
                    "output": "0x000000000000000000000000c02aaa39b223fe8d0a0e5c4f27ead9083c756cc2",
                    "revert": false,
                    "revertMessage": "",
                    "selector": "0xd21220a7",
                    "status": true,
                    "value": "0"
                },
                "nodeType": 0
            },
            "8": {
                "invocation": {
                    "address": "0x12d7b28a055621f4ba0c146d1728082ecf1b9390",
                    "callData": "0x00000000000000000000000013b4e693347a1c7bd66808e20a93e474bd672987",
                    "decodedMethod": {
                        "callParams": [
                            {
                                "name": "",
                                "type": "address",
                                "value": "0x13b4e693347a1c7bd66808e20a93e474bd672987"
                            }
                        ],
                        "constructorArguments": "",
                        "name": "balanceOf",
                        "returnParams": [
                            {
                                "decimalAvailable": true,
                                "name": "",
                                "type": "uint256",
                                "value": "7,969,189,730,112,347,821,480"
                            }
                        ],
                        "signature": "balanceOf(address)"
                    },
                    "errorInfo": "",
                    "fromAddress": "0xd12bcdfb9a39be79da3bdf02557efdcd5ca59e77",
                    "gasUsed": 542,
                    "id": 8,
                    "methodDecoded": true,
                    "operation": "STATICCALL",
                    "output": "0x0000000000000000000000000000000000000000000001b002b95cf5dd93d5a8",
                    "revert": false,
                    "revertMessage": "",
                    "selector": "0x70a08231",
                    "status": true,
                    "value": "0"
                },
                "nodeType": 0
            },
            "9": {
                "invocation": {
                    "address": "0xa9249f4d7e84b206d010bc90211a11fda57785b4",
                    "callData": "0x000000000000000000000000000000000000000000000026fa21229321dc000000000000000000000000000000000000000000000000018908983a62bbb7d5a800000000000000000000000000000000000000000000000024ca2df8ef73f35800000000000000000000000000000000000000000000000000000000000000320000000000000000000000000000000000000000000000000000000000000032000000000000000000000000000000000000000000000000000000000000001e",
                    "decodedMethod": {
                        "callParams": [
                            {
                                "name": "amountIn",
                                "type": "uint256",
                                "value": "719,000,000,000,000,000,000"
                            },
                            {
                                "name": "reserveIn",
                                "type": "uint256",
                                "value": "7,250,189,730,112,347,821,480"
                            },
                            {
                                "name": "reserveOut",
                                "type": "uint256",
                                "value": "2,650,981,877,853,451,096"
                            },
                            {
                                "name": "tokenWeightIn",
                                "type": "uint32",
                                "value": "50"
                            },
                            {
                                "name": "tokenWeightOut",
                                "type": "uint32",
                                "value": "50"
                            },
                            {
                                "name": "swapFee",
                                "type": "uint32",
                                "value": "30"
                            }
                        ],
                        "constructorArguments": "",
                        "name": "getAmountOut",
                        "returnParams": [
                            {
                                "name": "amountOut",
                                "type": "uint256",
                                "value": "238,525,165,722,433,734"
                            }
                        ],
                        "signature": "getAmountOut(uint256,uint256,uint256,uint32,uint32,uint32)"
                    },
                    "errorInfo": "",
                    "fromAddress": "0xd12bcdfb9a39be79da3bdf02557efdcd5ca59e77",
                    "gasUsed": 1070,
                    "id": 9,
                    "methodDecoded": true,
                    "operation": "STATICCALL",
                    "output": "0x000000000000000000000000000000000000000000000000034f695fdce078c6",
                    "revert": false,
                    "revertMessage": "",
                    "selector": "0x671a11b5",
                    "status": true,
                    "value": "0"
                },
                "nodeType": 0
            }
        },
        "gasFlame": [
            {
                "children": [
                    {
                        "children": [
                            {
                                "children": [],
                                "depth": 0,
                                "name": "Initial Gas",
                                "value": 30616
                            },
                            {
                                "children": [
                                    {
                                        "children": [],
                                        "depth": 1,
                                        "name": "transferFrom",
                                        "value": 14968
                                    },
                                    {
                                        "children": [
                                            {
                                                "children": [
                                                    {
                                                        "children": [],
                                                        "depth": 3,
                                                        "name": "getReserves",
                                                        "value": 2517
                                                    },
                                                    {
                                                        "children": [],
                                                        "depth": 3,
                                                        "name": "token0",
                                                        "value": 2449
                                                    },
                                                    {
                                                        "children": [],
                                                        "depth": 3,
                                                        "name": "token1",
                                                        "value": 2381
                                                    }
                                                ],
                                                "depth": 2,
                                                "name": "getFactoryReserveAndWeights",
                                                "value": 16178
                                            },
                                            {
                                                "children": [],
                                                "depth": 2,
                                                "name": "balanceOf",
                                                "value": 542
                                            },
                                            {
                                                "children": [],
                                                "depth": 2,
                                                "name": "getAmountOut",
                                                "value": 1070
                                            },
                                            {
                                                "children": [],
                                                "depth": 2,
                                                "name": "balanceOf",
                                                "value": 2534
                                            },
                                            {
                                                "children": [],
                                                "depth": 2,
                                                "name": "token0",
                                                "value": 449
                                            },
                                            {
                                                "children": [
                                                    {
                                                        "children": [],
                                                        "depth": 3,
                                                        "name": "transfer",
                                                        "value": 27962
                                                    },
                                                    {
                                                        "children": [],
                                                        "depth": 3,
                                                        "name": "balanceOf",
                                                        "value": 542
                                                    },
                                                    {
                                                        "children": [],
                                                        "depth": 3,
                                                        "name": "balanceOf",
                                                        "value": 534
                                                    }
                                                ],
                                                "depth": 2,
                                                "name": "swap",
                                                "value": 56734
                                            },
                                            {
                                                "children": [],
                                                "depth": 2,
                                                "name": "balanceOf",
                                                "value": 534
                                            }
                                        ],
                                        "depth": 1,
                                        "name": "0x8b674f5d",
                                        "value": 92460
                                    },
                                    {
                                        "children": [
                                            {
                                                "children": [],
                                                "depth": 2,
                                                "name": "balanceOf",
                                                "value": 534
                                            },
                                            {
                                                "children": [
                                                    {
                                                        "children": [],
                                                        "depth": 3,
                                                        "name": "fallback",
                                                        "value": 55
                                                    }
                                                ],
                                                "depth": 2,
                                                "name": "withdraw",
                                                "value": 9195
                                            },
                                            {
                                                "children": [],
                                                "depth": 2,
                                                "name": "fallback",
                                                "value": 0
                                            },
                                            {
                                                "children": [],
                                                "depth": 2,
                                                "name": "fallback",
                                                "value": 0
                                            },
                                            {
                                                "children": [],
                                                "depth": 2,
                                                "name": "balanceOf",
                                                "value": 2542
                                            }
                                        ],
                                        "depth": 1,
                                        "name": "0x774b6b7e",
                                        "value": 32862
                                    }
                                ],
                                "depth": 0,
                                "name": "Executed Gas",
                                "value": 160943
                            }
                        ],
                        "depth": -1,
                        "name": "Actual Gas Used",
                        "value": 168859
                    },
                    {
                        "children": [],
                        "depth": -1,
                        "name": "Refunded Gas",
                        "value": 22700
                    }
                ],
                "depth": -2,
                "name": "Total Gas",
                "value": 191559
            }
        ],
        "isConfirmed": true,
        "mainTrace": [
            {
                "children": [
                    {
                        "children": [
                            {
                                "children": [
                                    {
                                        "children": [],
                                        "depth": 2,
                                        "id": 2,
                                        "order": 2
                                    }
                                ],
                                "depth": 1,
                                "id": 1,
                                "order": 1
                            },
                            {
                                "children": [
                                    {
                                        "children": [
                                            {
                                                "children": [],
                                                "depth": 3,
                                                "id": 5,
                                                "order": 5
                                            },
                                            {
                                                "children": [],
                                                "depth": 3,
                                                "id": 6,
                                                "order": 6
                                            },
                                            {
                                                "children": [],
                                                "depth": 3,
                                                "id": 7,
                                                "order": 7
                                            }
                                        ],
                                        "depth": 2,
                                        "id": 4,
                                        "order": 4
                                    },
                                    {
                                        "children": [],
                                        "depth": 2,
                                        "id": 8,
                                        "order": 8
                                    },
                                    {
                                        "children": [],
                                        "depth": 2,
                                        "id": 9,
                                        "order": 9
                                    },
                                    {
                                        "children": [],
                                        "depth": 2,
                                        "id": 10,
                                        "order": 10
                                    },
                                    {
                                        "children": [],
                                        "depth": 2,
                                        "id": 11,
                                        "order": 11
                                    },
                                    {
                                        "children": [
                                            {
                                                "children": [
                                                    {
                                                        "children": [],
                                                        "depth": 4,
                                                        "id": 14,
                                                        "order": 14
                                                    }
                                                ],
                                                "depth": 3,
                                                "id": 13,
                                                "order": 13
                                            },
                                            {
                                                "children": [],
                                                "depth": 3,
                                                "id": 15,
                                                "order": 15
                                            },
                                            {
                                                "children": [],
                                                "depth": 3,
                                                "id": 16,
                                                "order": 16
                                            },
                                            {
                                                "children": [],
                                                "depth": 3,
                                                "id": 17,
                                                "order": 17
                                            },
                                            {
                                                "children": [],
                                                "depth": 3,
                                                "id": 18,
                                                "order": 18
                                            }
                                        ],
                                        "depth": 2,
                                        "id": 12,
                                        "order": 12
                                    },
                                    {
                                        "children": [],
                                        "depth": 2,
                                        "id": 19,
                                        "order": 19
                                    },
                                    {
                                        "children": [],
                                        "depth": 2,
                                        "id": 20,
                                        "order": 20
                                    }
                                ],
                                "depth": 1,
                                "id": 3,
                                "order": 3
                            },
                            {
                                "children": [
                                    {
                                        "children": [],
                                        "depth": 2,
                                        "id": 22,
                                        "order": 22
                                    },
                                    {
                                        "children": [
                                            {
                                                "children": [],
                                                "depth": 3,
                                                "id": 24,
                                                "order": 24
                                            },
                                            {
                                                "children": [],
                                                "depth": 3,
                                                "id": 25,
                                                "order": 25
                                            }
                                        ],
                                        "depth": 2,
                                        "id": 23,
                                        "order": 23
                                    },
                                    {
                                        "children": [],
                                        "depth": 2,
                                        "id": 26,
                                        "order": 26
                                    },
                                    {
                                        "children": [],
                                        "depth": 2,
                                        "id": 27,
                                        "order": 27
                                    },
                                    {
                                        "children": [],
                                        "depth": 2,
                                        "id": 28,
                                        "order": 28
                                    }
                                ],
                                "depth": 1,
                                "id": 21,
                                "order": 21
                            },
                            {
                                "children": [],
                                "depth": 1,
                                "id": 29,
                                "order": 29
                            },
                            {
                                "children": [],
                                "depth": 1,
                                "id": 30,
                                "order": 30
                            }
                        ],
                        "depth": 0,
                        "id": 0,
                        "order": 0
                    }
                ],
                "depth": -1,
                "id": -1,
                "order": -1
            }
        ],
        "mainTraceNodeCount": 31,
        "parentIdMap": {
            "0": -1,
            "1": 0,
            "10": 3,
            "11": 3,
            "12": 3,
            "13": 12,
            "14": 13,
            "15": 12,
            "16": 12,
            "17": 12,
            "18": 12,
            "19": 3,
            "2": 1,
            "20": 3,
            "21": 0,
            "22": 21,
            "23": 21,
            "24": 23,
            "25": 23,
            "26": 21,
            "27": 21,
            "28": 21,
            "29": 0,
            "3": 0,
            "30": 0,
            "4": 3,
            "5": 4,
            "6": 4,
            "7": 4,
            "8": 3,
            "9": 3
        },
        "tidyTrace": [
            {
                "children": [
                    {
                        "children": [
                            {
                                "children": [
                                    {
                                        "children": [],
                                        "depth": 2,
                                        "id": 2,
                                        "order": 2
                                    }
                                ],
                                "depth": 1,
                                "id": 1,
                                "order": 1
                            },
                            {
                                "children": [
                                    {
                                        "children": [
                                            {
                                                "children": [
                                                    {
                                                        "children": [],
                                                        "depth": 4,
                                                        "id": 14,
                                                        "order": 14
                                                    }
                                                ],
                                                "depth": 3,
                                                "id": 13,
                                                "order": 13
                                            },
                                            {
                                                "children": [],
                                                "depth": 3,
                                                "id": 17,
                                                "order": 17
                                            },
                                            {
                                                "children": [],
                                                "depth": 3,
                                                "id": 18,
                                                "order": 18
                                            }
                                        ],
                                        "depth": 2,
                                        "id": 12,
                                        "order": 12
                                    },
                                    {
                                        "children": [],
                                        "depth": 2,
                                        "id": 19,
                                        "order": 19
                                    }
                                ],
                                "depth": 1,
                                "id": 3,
                                "order": 3
                            },
                            {
                                "children": [
                                    {
                                        "children": [
                                            {
                                                "children": [],
                                                "depth": 3,
                                                "id": 24,
                                                "order": 24
                                            },
                                            {
                                                "children": [],
                                                "depth": 3,
                                                "id": 25,
                                                "order": 25
                                            }
                                        ],
                                        "depth": 2,
                                        "id": 23,
                                        "order": 23
                                    },
                                    {
                                        "children": [],
                                        "depth": 2,
                                        "id": 26,
                                        "order": 26
                                    },
                                    {
                                        "children": [],
                                        "depth": 2,
                                        "id": 27,
                                        "order": 27
                                    }
                                ],
                                "depth": 1,
                                "id": 21,
                                "order": 21
                            },
                            {
                                "children": [],
                                "depth": 1,
                                "id": 29,
                                "order": 29
                            },
                            {
                                "children": [],
                                "depth": 1,
                                "id": 30,
                                "order": 30
                            }
                        ],
                        "depth": 0,
                        "id": 0,
                        "order": 0
                    }
                ],
                "depth": -1,
                "id": -1,
                "order": -1
            }
        ],
        "tidyTraceNodeCount": 18
    },
    "state_change": {
        "stateChanges": [
            {
                "address": "0x12d7b28a055621f4ba0c146d1728082ecf1b9390",
                "erc": "ERC-20",
                "slots": [
                    {
                        "current": "0x00000000000000000000000000000000000000000000001b2871b69b8d7e376d",
                        "key": "0x50127588ba45b002c86af97965e3cb93bee850afd7df269a16ca56299b929d88",
                        "prev": "0x0000000000000000000000000000000000000000000000422292d92eaf5a376d"
                    },
                    {
                        "current": "0x0000000000000000000000000000000000000000000001b002b95cf5dd93d5a8",
                        "key": "0xce82cf9426a27d9aec5374a0437400ddc307ea449f9b995793901bec14e60ce3",
                        "prev": "0x00000000000000000000000000000000000000000000018908983a62bbb7d5a8"
                    }
                ],
                "storageVariables": [
                    {
                        "name": "balanceOf",
                        "type": "mapping(address => uint256)",
                        "value": {
                            "pairs": [
                                {
                                    "key": "0x13b4e693347a1c7bd66808e20a93e474bd672987",
                                    "value": {
                                        "current": "7969189730112347821480",
                                        "prev": "7250189730112347821480",
                                        "typeTag": 1
                                    }
                                },
                                {
                                    "key": "0x76571aabbf13b9d9eab3c9994f4b73d57c2ce317",
                                    "value": {
                                        "current": "500976401203253360493",
                                        "prev": "1219976401203253360493",
                                        "typeTag": 1
                                    }
                                }
                            ],
                            "typeTag": 4
                        }
                    }
                ]
            },
            {
                "address": "0x13b4e693347a1c7bd66808e20a93e474bd672987",
                "erc": "ERC-20",
                "slots": [
                    {
                        "current": "0x0000000000000000000000000006d9ff1517d228b95299afbba85ee4d2c695c9",
                        "key": "0x000000000000000000000000000000000000000000000000000000000000000a",
                        "prev": "0x0000000000000000000000000006d7ff549f6a41668a3f9a0e86621a2f4ab9b4"
                    },
                    {
                        "current": "0x6272169c000000000000217ac49912937a920000000001b002b95cf5dd93d5a8",
                        "key": "0x0000000000000000000000000000000000000000000000000000000000000008",
                        "prev": "0x6271e6b500000000000024ca2df8ef73f35800000000018908983a62bbb7d5a8"
                    },
                    {
                        "current": "0x000000000000000000000000000000004b3d4a6391969a092ac90a61d0081319",
                        "key": "0x0000000000000000000000000000000000000000000000000000000000000009",
                        "prev": "0x000000000000000000000000000000004b38ce83eb1326bc8f4c8eb3c7f8752a"
                    }
                ],
                "storageVariables": [
                    {
                        "name": "reserve0",
                        "type": "uint112",
                        "value": {
                            "current": "7969189730112347821480",
                            "prev": "7250189730112347821480",
                            "typeTag": 1
                        }
                    },
                    {
                        "name": "reserve1",
                        "type": "uint112",
                        "value": {
                            "current": "2412456712131017362",
                            "prev": "2650981877853451096",
                            "typeTag": 1
                        }
                    },
                    {
                        "name": "blockTimestampLast",
                        "type": "uint32",
                        "value": {
                            "current": "1651644060",
                            "prev": "1651631797",
                            "typeTag": 1
                        }
                    },
                    {
                        "name": "price0CumulativeLast",
                        "type": "uint256",
                        "value": {
                            "current": "100010338579195466799485978419732681497",
                            "prev": "99987056935966412254547584160500315434",
                            "typeTag": 1
                        }
                    },
                    {
                        "name": "price1CumulativeLast",
                        "type": "uint256",
                        "value": {
                            "current": "152794637279413823407101142083008682961311177",
                            "prev": "152620497152958994609546145474509564145220020",
                            "typeTag": 1
                        }
                    }
                ]
            },
            {
                "address": "0xc02aaa39b223fe8d0a0e5c4f27ead9083c756cc2",
                "erc": "ERC-20",
                "slots": [
                    {
                        "current": "0x000000000000000000000000000000000000000000000000217ac49912937a92",
                        "key": "0xed9757b4ba08cde0f33ec222dd81054e469c9d8ea51f5f50f1685ededc91f0a6",
                        "prev": "0x00000000000000000000000000000000000000000000000024ca2df8ef73f358"
                    }
                ],
                "storageVariables": [
                    {
                        "name": "balanceOf",
                        "type": "mapping(address => uint256)",
                        "value": {
                            "pairs": [
                                {
                                    "key": "0x13b4e693347a1c7bd66808e20a93e474bd672987",
                                    "value": {
                                        "current": "2412456712131017362",
                                        "prev": "2650981877853451096",
                                        "typeTag": 1
                                    }
                                }
                            ],
                            "typeTag": 4
                        }
                    }
                ]
            }
        ]
    }
}