{
    "balance_change": {
        "balanceChanges": [
            {
                "account": "0x9303a2cef0d4d9655ab103a36afa7e03223f6444",
                "assets": [
                    {
                        "address": "0x3495ffcee09012ab7d827abf3e3b3ae428a38443",
                        "amount": "5",
                        "iconUrl": "",
                        "isERC1155": false,
                        "isERC721": false,
                        "sign": false,
                        "value": ""
                    }
                ]
            },
            {
                "account": "0x3e28a02a7910f730e4ebf09d5a7467a9bd4ee64c",
                "assets": [
                    {
                        "address": "0x3495ffcee09012ab7d827abf3e3b3ae428a38443",
                        "amount": "5",
                        "iconUrl": "",
                        "isERC1155": false,
                        "isERC721": false,
                        "sign": true,
                        "value": ""
                    }
                ]
            }
        ]
    },
    "profile": {
        "basic_info": {
            "baseFee": "",
            "blockNumber": 7866428,
            "callData": "0xa9059cbb0000000000000000000000003e28a02a7910f730e4ebf09d5a7467a9bd4ee64c0000000000000000000000000000000000000000000000004563918244f40000",
            "debugEnable": true,
            "errorInfo": "",
            "eventCount": 1,
            "feeRecipient": "0xea674fdde714fd979de3edf0f56aa9716b898ec8",
            "formatValue": "0",
            "gasLimit": 500000,
            "gasPrice": "1",
            "gasUsed": 22351,
            "intTxnCount": 0,
            "internalRevert": false,
            "internalRevertMessage": "",
            "isContractCreation": false,
            "isFlashloan": false,
            "maxFee": "",
            "nonce": 0,
            "overwritedBlockNumber": -1,
            "priorityFee": "",
            "receiver": "0x3495ffcee09012ab7d827abf3e3b3ae428a38443",
            "revertMessage": "",
            "sender": "0x9303a2cef0d4d9655ab103a36afa7e03223f6444",
            "simulationEnable": true,
            "sourceTxnHash": "0xa47fae214785d85b38d47bf678a0d7929d7ca227e5cb605e9e61ac318db9f571",
            "status": true,
            "timestamp": "2019-05-31T09:09:17Z",
            "transactionFee": "0.000022351",
            "txnHash": "0xa47fae214785d85b38d47bf678a0d7929d7ca227e5cb605e9e61ac318db9f571",
            "txnIndex": 87,
            "type": 0,
            "value": "0"
        },
        "fund_flow": [
            {
                "amount": "5",
                "from": "0x9303a2cef0d4d9655ab103a36afa7e03223f6444",
                "id": 1,
                "isERC1155": false,
                "isERC721": false,
                "isReverted": false,
                "order": 1,
                "to": "0x3e28a02a7910f730e4ebf09d5a7467a9bd4ee64c",
                "token": "0x3495ffcee09012ab7d827abf3e3b3ae428a38443"
            }
        ],
        "token_infos": [
            {
                "address": "0x3495ffcee09012ab7d827abf3e3b3ae428a38443",
                "decimals": 18
            },
            {
                "address": "0xc02aaa39b223fe8d0a0e5c4f27ead9083c756cc2",
                "decimals": 18
            },
            {
                "address": "0xeeeeeeeeeeeeeeeeeeeeeeeeeeeeeeeeeeeeeeee",
                "decimals": 18
            }
        ]
    },
    "address_label": {
        "labels": [
            {
                "address": "0x0000000000000000000000000000000000000001",
                "label": "Precompiled"
            },
            {
                "address": "0x0000000000000000000000000000000000000002",
                "label": "Precompiled"
            },
            {
                "address": "0x0000000000000000000000000000000000000003",
                "label": "Precompiled"
            },
            {
                "address": "0x0000000000000000000000000000000000000004",
                "label": "Precompiled"
            },
            {
                "address": "0xeeeeeeeeeeeeeeeeeeeeeeeeeeeeeeeeeeeeeeee",
                "label": "Ether"
            },
            {
                "address": "0x3495ffcee09012ab7d827abf3e3b3ae428a38443",
                "label": "BeautyChain (BEC)"
            }
        ]
    },
    "trace": {
        "accountLabels": null,
        "dataMap": {
            "-1": {
                "invocation": {
                    "address": "0x9303a2cef0d4d9655ab103a36afa7e03223f6444",
                    "callData": "",
                    "decodedMethod": null,
                    "errorInfo": "",
                    "fromAddress": "",
                    "gasUsed": 0,
                    "id": -1,
                    "methodDecoded": false,
                    "operation": "",
                    "output": "",
                    "revert": false,
                    "revertMessage": "",
                    "selector": "",
                    "status": false,
                    "value": ""
                },
                "nodeType": 0
            },
            "0": {
                "invocation": {
                    "address": "0x3495ffcee09012ab7d827abf3e3b3ae428a38443",
                    "callData": "0x0000000000000000000000003e28a02a7910f730e4ebf09d5a7467a9bd4ee64c0000000000000000000000000000000000000000000000004563918244f40000",
                    "decodedMethod": {
                        "callParams": [
                            {
                                "name": "_to",
                                "type": "address",
                                "value": "0x3e28a02a7910f730e4ebf09d5a7467a9bd4ee64c"
                            },
                            {
                                "decimalAvailable": true,
                                "name": "_value",
                                "type": "uint256",
                                "value": "5,000,000,000,000,000,000"
                            }
                        ],
                        "constructorArguments": "",
                        "name": "transfer",
                        "returnParams": [
                            {
                                "name": "",
                                "type": "bool",
                                "value": true
                            }
                        ],
                        "signature": "transfer(address,uint256)"
                    },
                    "errorInfo": "",
                    "fromAddress": "0x9303a2cef0d4d9655ab103a36afa7e03223f6444",
                    "gasUsed": 22351,
                    "id": 0,
                    "methodDecoded": true,
                    "operation": "CALL",
                    "output": "0x0000000000000000000000000000000000000000000000000000000000000001",
                    "revert": false,
                    "revertMessage": "",
                    "selector": "0xa9059cbb",
                    "status": true,
                    "value": "0"
                },
                "nodeType": 0
            },
            "1": {
                "event": {
                    "contract": "0x3495ffcee09012ab7d827abf3e3b3ae428a38443",
                    "decodedLog": {
                        "name": "Transfer",
                        "params": [
                            {
                                "name": "from",
                                "type": "address",
                                "value": "0x9303a2cef0d4d9655ab103a36afa7e03223f6444"
                            },
                            {
                                "name": "to",
                                "type": "address",
                                "value": "0x3e28a02a7910f730e4ebf09d5a7467a9bd4ee64c"
                            },
                            {
                                "decimalAvailable": true,
                                "name": "value",
                                "type": "uint256",
                                "value": "5,000,000,000,000,000,000"
                            }
                        ],
                        "signature": "Transfer(address,address,uint256)"
                    },
                    "id": 1,
                    "logData": "0x0000000000000000000000000000000000000000000000004563918244f40000",
                    "logDecoded": true,
                    "operation": "EVENT",
                    "revert": false,
                    "status": true,
                    "topics": [
                        "0xddf252ad1be2c89b69c2b068fc378daa952ba7f163c4a11628f55a4df523b3ef",
                        "0x0000000000000000000000009303a2cef0d4d9655ab103a36afa7e03223f6444",
                        "0x0000000000000000000000003e28a02a7910f730e4ebf09d5a7467a9bd4ee64c"
                    ]
                },
                "nodeType": 1
            }
        },
        "gasFlame": [
            {
                "children": [
                    {
                        "children": [
                            {
                                "children": [],
                                "depth": 0,
                                "name": "Initial Gas",
                                "value": 23192
                            },
                            {
                                "children": [],
                                "depth": 0,
                                "name": "Executed Gas",
                                "value": 14159
                            }
                        ],
                        "depth": -1,
                        "name": "Actual Gas Used",
                        "value": 22351
                    },
                    {
                        "children": [],
                        "depth": -1,
                        "name": "Refunded Gas",
                        "value": 15000
                    }
                ],
                "depth": -2,
                "name": "Total Gas",
                "value": 37351
            }
        ],
        "isConfirmed": true,
        "mainTrace": [
            {
                "children": [
                    {
                        "children": [
                            {
                                "children": [],
                                "depth": 1,
                                "id": 1,
                                "order": 1
                            }
                        ],
                        "depth": 0,
                        "id": 0,
                        "order": 0
                    }
                ],
                "depth": -1,
                "id": -1,
                "order": -1
            }
        ],
        "mainTraceNodeCount": 2,
        "parentIdMap": {
            "0": -1,
            "1": 0
        },
        "tidyTrace": [
            {
                "children": [
                    {
                        "children": [
                            {
                                "children": [],
                                "depth": 1,
                                "id": 1,
                                "order": 1
                            }
                        ],
                        "depth": 0,
                        "id": 0,
                        "order": 0
                    }
                ],
                "depth": -1,
                "id": -1,
                "order": -1
            }
        ],
        "tidyTraceNodeCount": 2
    },
    "state_change": {
        "stateChanges": [
            {
                "address": "0x3495ffcee09012ab7d827abf3e3b3ae428a38443",
                "erc": "ERC-20",
                "slots": [
                    {
                        "current": "0x0000000000000000000000000000000000000000000000000000000000000000",
                        "key": "0xf34363656d76348f36e4af78769a9eff6756d182a25eeaf1d5bff42a0c64dced",
                        "prev": "0x0000000000000000000000000000000000000000000000004563918244f40000"
                    },
                    {
                        "current": "0x000000000000000000000000000000000000000000000208e7a9bd5608840000",
                        "key": "0x95b271eb4b21dd770d2185a2b5b376498246a8e8116897625381ca5c436ac40d",
                        "prev": "0x000000000000000000000000000000000000000000000208a2462bd3c3900000"
                    }
                ],
                "storageVariables": [
                    {
                        "name": "balances",
                        "type": "mapping(address => uint256)",
                        "value": {
                            "pairs": [
                                {
                                    "key": "0x3e28a02a7910f730e4ebf09d5a7467a9bd4ee64c",
                                    "value": {
                                        "current": "9609000000000000000000",
                                        "prev": "9604000000000000000000",
                                        "typeTag": 1
                                    }
                                },
                                {
                                    "key": "0x9303a2cef0d4d9655ab103a36afa7e03223f6444",
                                    "value": {
                                        "current": "0",
                                        "prev": "5000000000000000000",
                                        "typeTag": 1
                                    }
                                }
                            ],
                            "typeTag": 4
                        }
                    }
                ]
            }
        ]
    }
}