{
    "balance_change": {
        "balanceChanges": [
            {
                "account": "0x88f94b76fd6bebd7ae8ecd6ef73dca5e5ad8aa18",
                "assets": [
                    {
                        "address": "0xfca47962d45adfdfd1ab2d972315db4ce7ccf094",
                        "amount": "200.00089398",
                        "iconUrl": "",
                        "isERC1155": false,
                        "isERC721": false,
                        "sign": false,
                        "value": ""
                    }
                ]
            },
            {
                "account": "0x186554d27724e9fdb2a01ba574f33fa44041fb2f",
                "assets": [
                    {
                        "address": "0xfca47962d45adfdfd1ab2d972315db4ce7ccf094",
                        "amount": "200.00089398",
                        "iconUrl": "",
                        "isERC1155": false,
                        "isERC721": false,
                        "sign": true,
                        "value": ""
                    }
                ]
            }
        ]
    },
    "profile": {
        "basic_info": {
            "baseFee": "",
            "blockNumber": 4896378,
            "callData": "0xa9059cbb000000000000000000000000186554d27724e9fdb2a01ba574f33fa44041fb2f00000000000000000000000000000000000000000000000000000004a8192536",
            "debugEnable": true,
            "errorInfo": "",
            "eventCount": 1,
            "feeRecipient": "0x5a0b54d5dc17e0aadc383d2db43b0a0d3e029c4c",
            "formatValue": "0",
            "gasLimit": 52363,
            "gasPrice": "50",
            "gasUsed": 37363,
            "intTxnCount": 0,
            "internalRevert": false,
            "internalRevertMessage": "",
            "isContractCreation": false,
            "isFlashloan": false,
            "maxFee": "",
            "nonce": 108,
            "overwritedBlockNumber": -1,
            "priorityFee": "",
            "receiver": "0xfca47962d45adfdfd1ab2d972315db4ce7ccf094",
            "revertMessage": "",
            "sender": "0x88f94b76fd6bebd7ae8ecd6ef73dca5e5ad8aa18",
            "simulationEnable": true,
            "sourceTxnHash": "0xa49b24eca3316585fe6eb10d2eaf58f5e7cdd6c73461614e7be97738f79a1dcc",
            "status": true,
            "timestamp": "2018-01-12T13:58:57Z",
            "transactionFee": "0.00186815",
            "txnHash": "0xa49b24eca3316585fe6eb10d2eaf58f5e7cdd6c73461614e7be97738f79a1dcc",
            "txnIndex": 31,
            "type": 0,
            "value": "0"
        },
        "fund_flow": [
            {
                "amount": "200.00089398",
                "from": "0x88f94b76fd6bebd7ae8ecd6ef73dca5e5ad8aa18",
                "id": 1,
                "isERC1155": false,
                "isERC721": false,
                "isReverted": false,
                "order": 1,
                "to": "0x186554d27724e9fdb2a01ba574f33fa44041fb2f",
                "token": "0xfca47962d45adfdfd1ab2d972315db4ce7ccf094"
            }
        ],
        "token_infos": [
            {
                "address": "0xc02aaa39b223fe8d0a0e5c4f27ead9083c756cc2",
                "decimals": 18
            },
            {
                "address": "0xfca47962d45adfdfd1ab2d972315db4ce7ccf094",
                "decimals": 8
            },
            {
                "address": "0xeeeeeeeeeeeeeeeeeeeeeeeeeeeeeeeeeeeeeeee",
                "decimals": 18
            }
        ]
    },
    "address_label": {
        "labels": [
            {
                "address": "0xeeeeeeeeeeeeeeeeeeeeeeeeeeeeeeeeeeeeeeee",
                "label": "Ether"
            },
            {
                "address": "0xfca47962d45adfdfd1ab2d972315db4ce7ccf094",
                "label": "iXledger Token"
            },
            {
                "address": "0x0000000000000000000000000000000000000001",
                "label": "Precompiled"
            },
            {
                "address": "0x0000000000000000000000000000000000000002",
                "label": "Precompiled"
            },
            {
                "address": "0x0000000000000000000000000000000000000003",
                "label": "Precompiled"
            },
            {
                "address": "0x0000000000000000000000000000000000000004",
                "label": "Precompiled"
            }
        ]
    },
    "trace": {
        "accountLabels": null,
        "dataMap": {
            "-1": {
                "invocation": {
                    "address": "0x88f94b76fd6bebd7ae8ecd6ef73dca5e5ad8aa18",
                    "callData": "",
                    "decodedMethod": null,
                    "errorInfo": "",
                    "fromAddress": "",
                    "gasUsed": 0,
                    "id": -1,
                    "methodDecoded": false,
                    "operation": "",
                    "output": "",
                    "revert": false,
                    "revertMessage": "",
                    "selector": "",
                    "status": false,
                    "value": ""
                },
                "nodeType": 0
            },
            "0": {
                "invocation": {
                    "address": "0xfca47962d45adfdfd1ab2d972315db4ce7ccf094",
                    "callData": "0x000000000000000000000000186554d27724e9fdb2a01ba574f33fa44041fb2f00000000000000000000000000000000000000000000000000000004a8192536",
                    "decodedMethod": {
                        "callParams": [
                            {
                                "name": "_to",
                                "type": "address",
                                "value": "0x186554d27724e9fdb2a01ba574f33fa44041fb2f"
                            },
                            {
                                "decimalAvailable": true,
                                "name": "_value",
                                "type": "uint256",
                                "value": "20,000,089,398"
                            }
                        ],
                        "constructorArguments": "",
                        "name": "transfer",
                        "returnParams": [
                            {
                                "name": "success",
                                "type": "bool",
                                "value": true
                            }
                        ],
                        "signature": "transfer(address,uint256)"
                    },
                    "errorInfo": "",
                    "fromAddress": "0x88f94b76fd6bebd7ae8ecd6ef73dca5e5ad8aa18",
                    "gasUsed": 37363,
                    "id": 0,
                    "methodDecoded": true,
                    "operation": "CALL",
                    "output": "0x0000000000000000000000000000000000000000000000000000000000000001",
                    "revert": false,
                    "revertMessage": "",
                    "selector": "0xa9059cbb",
                    "status": true,
                    "value": "0"
                },
                "nodeType": 0
            },
            "1": {
                "event": {
                    "contract": "0xfca47962d45adfdfd1ab2d972315db4ce7ccf094",
                    "decodedLog": {
                        "name": "Transfer",
                        "params": [
                            {
                                "name": "from",
                                "type": "address",
                                "value": "0x88f94b76fd6bebd7ae8ecd6ef73dca5e5ad8aa18"
                            },
                            {
                                "name": "to",
                                "type": "address",
                                "value": "0x186554d27724e9fdb2a01ba574f33fa44041fb2f"
                            },
                            {
                                "decimalAvailable": true,
                                "name": "value",
                                "type": "uint256",
                                "value": "20,000,089,398"
                            }
                        ],
                        "signature": "Transfer(address,address,uint256)"
                    },
                    "id": 1,
                    "logData": "0x00000000000000000000000000000000000000000000000000000004a8192536",
                    "logDecoded": true,
                    "operation": "EVENT",
                    "revert": false,
                    "status": true,
                    "topics": [
                        "0xddf252ad1be2c89b69c2b068fc378daa952ba7f163c4a11628f55a4df523b3ef",
                        "0x00000000000000000000000088f94b76fd6bebd7ae8ecd6ef73dca5e5ad8aa18",
                        "0x000000000000000000000000186554d27724e9fdb2a01ba574f33fa44041fb2f"
                    ]
                },
                "nodeType": 1
            }
        },
        "gasFlame": [
            {
                "children": [
                    {
                        "children": [
                            {
                                "children": [],
                                "depth": 0,
                                "name": "Initial Gas",
                                "value": 23128
                            },
                            {
                                "children": [],
                                "depth": 0,
                                "name": "Executed Gas",
                                "value": 29235
                            }
                        ],
                        "depth": -1,
                        "name": "Actual Gas Used",
                        "value": 37363
                    },
                    {
                        "children": [],
                        "depth": -1,
                        "name": "Refunded Gas",
                        "value": 15000
                    }
                ],
                "depth": -2,
                "name": "Total Gas",
                "value": 52363
            }
        ],
        "isConfirmed": true,
        "mainTrace": [
            {
                "children": [
                    {
                        "children": [
                            {
                                "children": [],
                                "depth": 1,
                                "id": 1,
                                "order": 1
                            }
                        ],
                        "depth": 0,
                        "id": 0,
                        "order": 0
                    }
                ],
                "depth": -1,
                "id": -1,
                "order": -1
            }
        ],
        "mainTraceNodeCount": 2,
        "parentIdMap": {
            "0": -1,
            "1": 0
        },
        "tidyTrace": [
            {
                "children": [
                    {
                        "children": [
                            {
                                "children": [],
                                "depth": 1,
                                "id": 1,
                                "order": 1
                            }
                        ],
                        "depth": 0,
                        "id": 0,
                        "order": 0
                    }
                ],
                "depth": -1,
                "id": -1,
                "order": -1
            }
        ],
        "tidyTraceNodeCount": 2
    },
    "state_change": {
        "stateChanges": [
            {
                "address": "0xfca47962d45adfdfd1ab2d972315db4ce7ccf094",
                "erc": "ERC-20",
                "slots": [
                    {
                        "current": "0x0000000000000000000000000000000000000000000000000000000000000000",
                        "key": "0xa2de609ec0f01239c78f4d50ab896061c4e21ad32b779991e16899c3f3574a11",
                        "prev": "0x00000000000000000000000000000000000000000000000000000004a8192536"
                    },
                    {
                        "current": "0x00000000000000000000000000000000000000000000000000000004a8192536",
                        "key": "0x1688188d1465f09bc5ae88d535b97e87d7caec71f602ce6f569878833b328b9f",
                        "prev": "0x0000000000000000000000000000000000000000000000000000000000000000"
                    }
                ],
                "storageVariables": []
            }
        ]
    }
}