{
    "balance_change": {
        "balanceChanges": [
            {
                "account": "0x2c9948df89d3ba063390aa92d62a08300d3d222e",
                "assets": [
                    {
                        "address": "0xe9689028ede16c2fdfe3d11855d28f8e3fc452a3",
                        "amount": "1,821.877150684931506836",
                        "iconUrl": "",
                        "isERC1155": false,
                        "isERC721": false,
                        "sign": true,
                        "value": "6.50674866"
                    }
                ]
            },
            {
                "account": "0xa364afa0696ca0f0c75ba068c436346d815a5998",
                "assets": [
                    {
                        "address": "0xe9689028ede16c2fdfe3d11855d28f8e3fc452a3",
                        "amount": "1,821.877150684931506836",
                        "iconUrl": "",
                        "isERC1155": false,
                        "isERC721": false,
                        "sign": false,
                        "value": "6.50674866"
                    }
                ]
            }
        ]
    },
    "profile": {
        "basic_info": {
            "baseFee": "12.959142315",
            "blockNumber": 20238739,
            "callData": "0x302f7cd700000000000000000000000000000000000000000000000000000000000000c0000000000000000000000000000000000000000000000062c39fdfd4402942940000000000000000000000000000000000000000000000000000000066879d00000000000000000000000000000000000000000000000000000000000000001c3a810f7d3937177790df1d2bc4ade530dc09afa5f004062ab1d9f4e89bcdede0491d5721b6e3ee00a6a922aeb731dca9dfa3b601adea8a55924ac45941de73240000000000000000000000000000000000000000000000000000000000000005000000000000000000000000e4d20bc4a845aa35b008f5f9f85e50b581df7263000000000000000000000000000000000000000000000000000000000000001800000000000000000000000000000000000000000000000000000000000000010000000000000000000000000000000000000000000000000000000000000000000000000000000000000000716f29b8972d551294d9e02b3eb0fc1107fbf4aa000000000000000000000000000000000000000000000000000000000000018600000000000000000000000000000000000000000000000000000000000000010000000000000000000000000000000000000000000000000000000000000000000000000000000000000000878586da1ed007a4d19de3e7a59eca98814e2808000000000000000000000000000000000000000000000000000000000000019300000000000000000000000000000000000000000000000000000000000000010000000000000000000000000000000000000000000000000000000000000000000000000000000000000000878586da1ed007a4d19de3e7a59eca98814e28080000000000000000000000000000000000000000000000000000000000002a2e00000000000000000000000000000000000000000000000000000000000000010000000000000000000000000000000000000000000000000000000000000000000000000000000000000000878586da1ed007a4d19de3e7a59eca98814e28080000000000000000000000000000000000000000000000000000000000002a2f00000000000000000000000000000000000000000000000000000000000000010000000000000000000000000000000000000000000000000000000000000000",
            "debugEnable": true,
            "errorInfo": "",
            "eventCount": 3,
            "feeRecipient": "0x1f9090aae28b8a3dceadf281b0f12828e676c326",
            "formatValue": "0",
            "gasLimit": 144983,
            "gasPrice": "14.305196491",
            "gasUsed": 129607,
            "intTxnCount": 4,
            "internalRevert": false,
            "internalRevertMessage": "",
            "isContractCreation": false,
            "isFlashloan": false,
            "maxFee": "18.1881807",
            "nonce": 72,
            "overwritedBlockNumber": -1,
            "priorityFee": "1.346054176",
            "receiver": "0xa364afa0696ca0f0c75ba068c436346d815a5998",
            "revertMessage": "",
            "sender": "0x2c9948df89d3ba063390aa92d62a08300d3d222e",
            "simulationEnable": true,
            "sourceTxnHash": "0xa4cd03fd69be352612fc5e230782deb08c079b8eaee51a4d4f50dbc9a84152af",
            "status": true,
            "timestamp": "2024-07-05T07:13:23Z",
            "transactionFee": "0.001854053601609037",
            "txnHash": "0xa4cd03fd69be352612fc5e230782deb08c079b8eaee51a4d4f50dbc9a84152af",
            "txnIndex": 22,
            "type": 2,
            "value": "0"
        },
        "fund_flow": [
            {
                "amount": "1,821.877150684931506836",
                "from": "0xa364afa0696ca0f0c75ba068c436346d815a5998",
                "id": 1,
                "isERC1155": false,
                "isERC721": false,
                "isReverted": false,
                "order": 1,
                "to": "0x2c9948df89d3ba063390aa92d62a08300d3d222e",
                "token": "0xe9689028ede16c2fdfe3d11855d28f8e3fc452a3"
            }
        ],
        "token_infos": [
            {
                "address": "0xe9689028ede16c2fdfe3d11855d28f8e3fc452a3",
                "decimals": 18
            },
            {
                "address": "0xeeeeeeeeeeeeeeeeeeeeeeeeeeeeeeeeeeeeeeee",
                "decimals": 18
            },
            {
                "address": "0xc02aaa39b223fe8d0a0e5c4f27ead9083c756cc2",
                "decimals": 18
            }
        ]
    },
    "address_label": {
        "labels": [
            {
                "address": "0xeeeeeeeeeeeeeeeeeeeeeeeeeeeeeeeeeeeeeeee",
                "label": "Ether"
            },
            {
                "address": "0x878586da1ed007a4d19de3e7a59eca98814e2808",
                "label": "Imaginary Rides: IR Token"
            },
            {
                "address": "0xe9689028ede16c2fdfe3d11855d28f8e3fc452a3",
                "label": "Imaginary Ones: BUBBLE Token"
            },
            {
                "address": "0xa364afa0696ca0f0c75ba068c436346d815a5998",
                "label": "ERC1967Proxy"
            },
            {
                "address": "0x0000000000000000000000000000000000000003",
                "label": "Precompiled"
            },
            {
                "address": "0x0000000000000000000000000000000000000004",
                "label": "Precompiled"
            },
            {
                "address": "0xe4d20bc4a845aa35b008f5f9f85e50b581df7263",
                "label": "Imaginary Ones: HUGOXIO Token"
            },
            {
                "address": "0x716f29b8972d551294d9e02b3eb0fc1107fbf4aa",
                "label": "Imaginary Ones: IO Token"
            },
            {
                "address": "0x00662afc4cfec0322351ffdfc0e92890cfb1089f",
                "label": "BubbleClaim"
            },
            {
                "address": "0x0000000000000000000000000000000000000001",
                "label": "Precompiled"
            },
            {
                "address": "0x0000000000000000000000000000000000000002",
                "label": "Precompiled"
            }
        ]
    },
    "trace": {
        "accountLabels": null,
        "dataMap": {
            "-1": {
                "invocation": {
                    "address": "0x2c9948df89d3ba063390aa92d62a08300d3d222e",
                    "callData": "",
                    "decodedMethod": null,
                    "errorInfo": "",
                    "fromAddress": "",
                    "gasUsed": 0,
                    "id": -1,
                    "methodDecoded": false,
                    "operation": "",
                    "output": "",
                    "revert": false,
                    "revertMessage": "",
                    "selector": "",
                    "status": false,
                    "value": ""
                },
                "nodeType": 0
            },
            "0": {
                "invocation": {
                    "address": "0xa364afa0696ca0f0c75ba068c436346d815a5998",
                    "callData": "0x00000000000000000000000000000000000000000000000000000000000000c0000000000000000000000000000000000000000000000062c39fdfd4402942940000000000000000000000000000000000000000000000000000000066879d00000000000000000000000000000000000000000000000000000000000000001c3a810f7d3937177790df1d2bc4ade530dc09afa5f004062ab1d9f4e89bcdede0491d5721b6e3ee00a6a922aeb731dca9dfa3b601adea8a55924ac45941de73240000000000000000000000000000000000000000000000000000000000000005000000000000000000000000e4d20bc4a845aa35b008f5f9f85e50b581df7263000000000000000000000000000000000000000000000000000000000000001800000000000000000000000000000000000000000000000000000000000000010000000000000000000000000000000000000000000000000000000000000000000000000000000000000000716f29b8972d551294d9e02b3eb0fc1107fbf4aa000000000000000000000000000000000000000000000000000000000000018600000000000000000000000000000000000000000000000000000000000000010000000000000000000000000000000000000000000000000000000000000000000000000000000000000000878586da1ed007a4d19de3e7a59eca98814e2808000000000000000000000000000000000000000000000000000000000000019300000000000000000000000000000000000000000000000000000000000000010000000000000000000000000000000000000000000000000000000000000000000000000000000000000000878586da1ed007a4d19de3e7a59eca98814e28080000000000000000000000000000000000000000000000000000000000002a2e00000000000000000000000000000000000000000000000000000000000000010000000000000000000000000000000000000000000000000000000000000000000000000000000000000000878586da1ed007a4d19de3e7a59eca98814e28080000000000000000000000000000000000000000000000000000000000002a2f00000000000000000000000000000000000000000000000000000000000000010000000000000000000000000000000000000000000000000000000000000000",
                    "decodedMethod": {
                        "callParams": [
                            {
                                "name": "_nftClaimInputData",
                                "type": "(address,uint24,bool,bool)[]",
                                "value": [
                                    [
                                        {
                                            "name": "nftContractAddress",
                                            "type": "address",
                                            "value": "0xe4d20bc4a845aa35b008f5f9f85e50b581df7263"
                                        },
                                        {
                                            "name": "tokenId",
                                            "type": "uint24",
                                            "value": "24"
                                        },
                                        {
                                            "name": "isHolderBonusRevoked",
                                            "type": "bool",
                                            "value": true
                                        },
                                        {
                                            "name": "isStakingBonusRevoked",
                                            "type": "bool",
                                            "value": false
                                        }
                                    ],
                                    [
                                        {
                                            "name": "nftContractAddress",
                                            "type": "address",
                                            "value": "0x716f29b8972d551294d9e02b3eb0fc1107fbf4aa"
                                        },
                                        {
                                            "name": "tokenId",
                                            "type": "uint24",
                                            "value": "390"
                                        },
                                        {
                                            "name": "isHolderBonusRevoked",
                                            "type": "bool",
                                            "value": true
                                        },
                                        {
                                            "name": "isStakingBonusRevoked",
                                            "type": "bool",
                                            "value": false
                                        }
                                    ],
                                    [
                                        {
                                            "name": "nftContractAddress",
                                            "type": "address",
                                            "value": "0x878586da1ed007a4d19de3e7a59eca98814e2808"
                                        },
                                        {
                                            "name": "tokenId",
                                            "type": "uint24",
                                            "value": "403"
                                        },
                                        {
                                            "name": "isHolderBonusRevoked",
                                            "type": "bool",
                                            "value": true
                                        },
                                        {
                                            "name": "isStakingBonusRevoked",
                                            "type": "bool",
                                            "value": false
                                        }
                                    ],
                                    [
                                        {
                                            "name": "nftContractAddress",
                                            "type": "address",
                                            "value": "0x878586da1ed007a4d19de3e7a59eca98814e2808"
                                        },
                                        {
                                            "name": "tokenId",
                                            "type": "uint24",
                                            "value": "10,798"
                                        },
                                        {
                                            "name": "isHolderBonusRevoked",
                                            "type": "bool",
                                            "value": true
                                        },
                                        {
                                            "name": "isStakingBonusRevoked",
                                            "type": "bool",
                                            "value": false
                                        }
                                    ],
                                    [
                                        {
                                            "name": "nftContractAddress",
                                            "type": "address",
                                            "value": "0x878586da1ed007a4d19de3e7a59eca98814e2808"
                                        },
                                        {
                                            "name": "tokenId",
                                            "type": "uint24",
                                            "value": "10,799"
                                        },
                                        {
                                            "name": "isHolderBonusRevoked",
                                            "type": "bool",
                                            "value": true
                                        },
                                        {
                                            "name": "isStakingBonusRevoked",
                                            "type": "bool",
                                            "value": false
                                        }
                                    ]
                                ]
                            },
                            {
                                "name": "_totalAllocationClaimable",
                                "type": "uint96",
                                "value": "1,821,877,150,684,931,506,836"
                            },
                            {
                                "name": "_signatureTimestamp",
                                "type": "uint256",
                                "value": "1,720,163,584"
                            },
                            {
                                "name": "_v",
                                "type": "uint8",
                                "value": "28"
                            },
                            {
                                "name": "_r",
                                "type": "bytes32",
                                "value": "0x3a810f7d3937177790df1d2bc4ade530dc09afa5f004062ab1d9f4e89bcdede0"
                            },
                            {
                                "name": "_s",
                                "type": "bytes32",
                                "value": "0x491d5721b6e3ee00a6a922aeb731dca9dfa3b601adea8a55924ac45941de7324"
                            }
                        ],
                        "constructorArguments": "",
                        "name": "claim",
                        "returnParams": [],
                        "signature": "claim((address,uint24,bool,bool)[],uint96,uint256,uint8,bytes32,bytes32)"
                    },
                    "errorInfo": "",
                    "fromAddress": "0x2c9948df89d3ba063390aa92d62a08300d3d222e",
                    "gasUsed": 129607,
                    "id": 0,
                    "methodDecoded": true,
                    "operation": "CALL",
                    "output": "",
                    "revert": false,
                    "revertMessage": "",
                    "selector": "0x302f7cd7",
                    "status": true,
                    "value": "0"
                },
                "nodeType": 0
            },
            "1": {
                "invocation": {
                    "address": "0x00662afc4cfec0322351ffdfc0e92890cfb1089f",
                    "callData": "0x00000000000000000000000000000000000000000000000000000000000000c0000000000000000000000000000000000000000000000062c39fdfd4402942940000000000000000000000000000000000000000000000000000000066879d00000000000000000000000000000000000000000000000000000000000000001c3a810f7d3937177790df1d2bc4ade530dc09afa5f004062ab1d9f4e89bcdede0491d5721b6e3ee00a6a922aeb731dca9dfa3b601adea8a55924ac45941de73240000000000000000000000000000000000000000000000000000000000000005000000000000000000000000e4d20bc4a845aa35b008f5f9f85e50b581df7263000000000000000000000000000000000000000000000000000000000000001800000000000000000000000000000000000000000000000000000000000000010000000000000000000000000000000000000000000000000000000000000000000000000000000000000000716f29b8972d551294d9e02b3eb0fc1107fbf4aa000000000000000000000000000000000000000000000000000000000000018600000000000000000000000000000000000000000000000000000000000000010000000000000000000000000000000000000000000000000000000000000000000000000000000000000000878586da1ed007a4d19de3e7a59eca98814e2808000000000000000000000000000000000000000000000000000000000000019300000000000000000000000000000000000000000000000000000000000000010000000000000000000000000000000000000000000000000000000000000000000000000000000000000000878586da1ed007a4d19de3e7a59eca98814e28080000000000000000000000000000000000000000000000000000000000002a2e00000000000000000000000000000000000000000000000000000000000000010000000000000000000000000000000000000000000000000000000000000000000000000000000000000000878586da1ed007a4d19de3e7a59eca98814e28080000000000000000000000000000000000000000000000000000000000002a2f00000000000000000000000000000000000000000000000000000000000000010000000000000000000000000000000000000000000000000000000000000000",
                    "decodedMethod": {
                        "callParams": [
                            {
                                "name": "_nftClaimInputData",
                                "type": "(address,uint24,bool,bool)[]",
                                "value": [
                                    [
                                        {
                                            "name": "nftContractAddress",
                                            "type": "address",
                                            "value": "0xe4d20bc4a845aa35b008f5f9f85e50b581df7263"
                                        },
                                        {
                                            "name": "tokenId",
                                            "type": "uint24",
                                            "value": "24"
                                        },
                                        {
                                            "name": "isHolderBonusRevoked",
                                            "type": "bool",
                                            "value": true
                                        },
                                        {
                                            "name": "isStakingBonusRevoked",
                                            "type": "bool",
                                            "value": false
                                        }
                                    ],
                                    [
                                        {
                                            "name": "nftContractAddress",
                                            "type": "address",
                                            "value": "0x716f29b8972d551294d9e02b3eb0fc1107fbf4aa"
                                        },
                                        {
                                            "name": "tokenId",
                                            "type": "uint24",
                                            "value": "390"
                                        },
                                        {
                                            "name": "isHolderBonusRevoked",
                                            "type": "bool",
                                            "value": true
                                        },
                                        {
                                            "name": "isStakingBonusRevoked",
                                            "type": "bool",
                                            "value": false
                                        }
                                    ],
                                    [
                                        {
                                            "name": "nftContractAddress",
                                            "type": "address",
                                            "value": "0x878586da1ed007a4d19de3e7a59eca98814e2808"
                                        },
                                        {
                                            "name": "tokenId",
                                            "type": "uint24",
                                            "value": "403"
                                        },
                                        {
                                            "name": "isHolderBonusRevoked",
                                            "type": "bool",
                                            "value": true
                                        },
                                        {
                                            "name": "isStakingBonusRevoked",
                                            "type": "bool",
                                            "value": false
                                        }
                                    ],
                                    [
                                        {
                                            "name": "nftContractAddress",
                                            "type": "address",
                                            "value": "0x878586da1ed007a4d19de3e7a59eca98814e2808"
                                        },
                                        {
                                            "name": "tokenId",
                                            "type": "uint24",
                                            "value": "10,798"
                                        },
                                        {
                                            "name": "isHolderBonusRevoked",
                                            "type": "bool",
                                            "value": true
                                        },
                                        {
                                            "name": "isStakingBonusRevoked",
                                            "type": "bool",
                                            "value": false
                                        }
                                    ],
                                    [
                                        {
                                            "name": "nftContractAddress",
                                            "type": "address",
                                            "value": "0x878586da1ed007a4d19de3e7a59eca98814e2808"
                                        },
                                        {
                                            "name": "tokenId",
                                            "type": "uint24",
                                            "value": "10,799"
                                        },
                                        {
                                            "name": "isHolderBonusRevoked",
                                            "type": "bool",
                                            "value": true
                                        },
                                        {
                                            "name": "isStakingBonusRevoked",
                                            "type": "bool",
                                            "value": false
                                        }
                                    ]
                                ]
                            },
                            {
                                "name": "_totalAllocationClaimable",
                                "type": "uint96",
                                "value": "1,821,877,150,684,931,506,836"
                            },
                            {
                                "name": "_signatureTimestamp",
                                "type": "uint256",
                                "value": "1,720,163,584"
                            },
                            {
                                "name": "_v",
                                "type": "uint8",
                                "value": "28"
                            },
                            {
                                "name": "_r",
                                "type": "bytes32",
                                "value": "0x3a810f7d3937177790df1d2bc4ade530dc09afa5f004062ab1d9f4e89bcdede0"
                            },
                            {
                                "name": "_s",
                                "type": "bytes32",
                                "value": "0x491d5721b6e3ee00a6a922aeb731dca9dfa3b601adea8a55924ac45941de7324"
                            }
                        ],
                        "constructorArguments": "",
                        "name": "claim",
                        "returnParams": [],
                        "signature": "claim((address,uint24,bool,bool)[],uint96,uint256,uint8,bytes32,bytes32)"
                    },
                    "errorInfo": "",
                    "fromAddress": "0xa364afa0696ca0f0c75ba068c436346d815a5998",
                    "gasUsed": 97739,
                    "id": 1,
                    "methodDecoded": true,
                    "operation": "DELEGATECALL",
                    "output": "",
                    "revert": false,
                    "revertMessage": "",
                    "selector": "0x302f7cd7",
                    "status": true,
                    "value": "0"
                },
                "nodeType": 0
            },
            "2": {
                "invocation": {
                    "address": "0x0000000000000000000000000000000000000001",
                    "callData": "0x9d71fee425cc95a0bc2266e57ca4b31bfbe35318ecfbd400237e8550000000000000000000000000000000000000000000000000000000000000001c3a810f7d3937177790df1d2bc4ade530dc09afa5f004062ab1d9f4e89bcdede0491d5721b6e3ee00a6a922aeb731dca9dfa3b601adea8a55924ac45941de7324",
                    "decodedMethod": {
                        "callParams": [
                            {
                                "name": "hash",
                                "type": "bytes32",
                                "value": "0x77e2a0479d71fee425cc95a0bc2266e57ca4b31bfbe35318ecfbd400237e8550"
                            },
                            {
                                "name": "v",
                                "type": "uint256",
                                "value": "28"
                            },
                            {
                                "name": "r",
                                "type": "bytes32",
                                "value": "0x3a810f7d3937177790df1d2bc4ade530dc09afa5f004062ab1d9f4e89bcdede0"
                            },
                            {
                                "name": "s",
                                "type": "bytes32",
                                "value": "0x491d5721b6e3ee00a6a922aeb731dca9dfa3b601adea8a55924ac45941de7324"
                            }
                        ],
                        "constructorArguments": "",
                        "name": "ecrecover",
                        "returnParams": [
                            {
                                "name": "",
                                "type": "address",
                                "value": "0x611185d33ebd22bc6cec6fe850d31e6833512037"
                            }
                        ],
                        "signature": "ecrecover(bytes32,uint256,bytes32,bytes32)"
                    },
                    "errorInfo": "",
                    "fromAddress": "0xa364afa0696ca0f0c75ba068c436346d815a5998",
                    "gasUsed": 3000,
                    "id": 2,
                    "methodDecoded": true,
                    "operation": "STATICCALL",
                    "output": "0x000000000000000000000000611185d33ebd22bc6cec6fe850d31e6833512037",
                    "revert": false,
                    "revertMessage": "",
                    "selector": "0x77e2a047",
                    "status": true,
                    "value": "0"
                },
                "nodeType": 0
            },
            "3": {
                "invocation": {
                    "address": "0xe9689028ede16c2fdfe3d11855d28f8e3fc452a3",
                    "callData": "0x000000000000000000000000a364afa0696ca0f0c75ba068c436346d815a5998",
                    "decodedMethod": {
                        "callParams": [
                            {
                                "name": "account",
                                "type": "address",
                                "value": "0xa364afa0696ca0f0c75ba068c436346d815a5998"
                            }
                        ],
                        "constructorArguments": "",
                        "name": "balanceOf",
                        "returnParams": [
                            {
                                "decimalAvailable": true,
                                "name": "",
                                "type": "uint256",
                                "value": "450,767,485,788,834,703,084,105,424"
                            }
                        ],
                        "signature": "balanceOf(address)"
                    },
                    "errorInfo": "",
                    "fromAddress": "0xa364afa0696ca0f0c75ba068c436346d815a5998",
                    "gasUsed": 2629,
                    "id": 3,
                    "methodDecoded": true,
                    "operation": "STATICCALL",
                    "output": "0x00000000000000000000000000000000000000000174ddba5e7080e2cba82ed0",
                    "revert": false,
                    "revertMessage": "",
                    "selector": "0x70a08231",
                    "status": true,
                    "value": "0"
                },
                "nodeType": 0
            },
            "4": {
                "invocation": {
                    "address": "0xe9689028ede16c2fdfe3d11855d28f8e3fc452a3",
                    "callData": "0x0000000000000000000000002c9948df89d3ba063390aa92d62a08300d3d222e000000000000000000000000000000000000000000000062c39fdfd440294294",
                    "decodedMethod": {
                        "callParams": [
                            {
                                "name": "to",
                                "type": "address",
                                "value": "0x2c9948df89d3ba063390aa92d62a08300d3d222e"
                            },
                            {
                                "decimalAvailable": true,
                                "name": "value",
                                "type": "uint256",
                                "value": "1,821,877,150,684,931,506,836"
                            }
                        ],
                        "constructorArguments": "",
                        "name": "transfer",
                        "returnParams": [
                            {
                                "name": "",
                                "type": "bool",
                                "value": true
                            }
                        ],
                        "signature": "transfer(address,uint256)"
                    },
                    "errorInfo": "",
                    "fromAddress": "0xa364afa0696ca0f0c75ba068c436346d815a5998",
                    "gasUsed": 10844,
                    "id": 4,
                    "methodDecoded": true,
                    "operation": "CALL",
                    "output": "0x0000000000000000000000000000000000000000000000000000000000000001",
                    "revert": false,
                    "revertMessage": "",
                    "selector": "0xa9059cbb",
                    "status": true,
                    "value": "0"
                },
                "nodeType": 0
            },
            "5": {
                "event": {
                    "contract": "0xe9689028ede16c2fdfe3d11855d28f8e3fc452a3",
                    "decodedLog": {
                        "name": "Transfer",
                        "params": [
                            {
                                "name": "from",
                                "type": "address",
                                "value": "0xa364afa0696ca0f0c75ba068c436346d815a5998"
                            },
                            {
                                "name": "to",
                                "type": "address",
                                "value": "0x2c9948df89d3ba063390aa92d62a08300d3d222e"
                            },
                            {
                                "decimalAvailable": true,
                                "name": "value",
                                "type": "uint256",
                                "value": "1,821,877,150,684,931,506,836"
                            }
                        ],
                        "signature": "Transfer(address,address,uint256)"
                    },
                    "id": 5,
                    "logData": "0x000000000000000000000000000000000000000000000062c39fdfd440294294",
                    "logDecoded": true,
                    "operation": "EVENT",
                    "revert": false,
                    "status": true,
                    "topics": [
                        "0xddf252ad1be2c89b69c2b068fc378daa952ba7f163c4a11628f55a4df523b3ef",
                        "0x000000000000000000000000a364afa0696ca0f0c75ba068c436346d815a5998",
                        "0x0000000000000000000000002c9948df89d3ba063390aa92d62a08300d3d222e"
                    ]
                },
                "nodeType": 1
            },
            "6": {
                "event": {
                    "contract": "0xa364afa0696ca0f0c75ba068c436346d815a5998",
                    "decodedLog": {
                        "name": "Withdraw",
                        "params": [
                            {
                                "name": "user",
                                "type": "address",
                                "value": "0x2c9948df89d3ba063390aa92d62a08300d3d222e"
                            },
                            {
                                "name": "amount",
                                "type": "uint256",
                                "value": "1,821,877,150,684,931,506,836"
                            }
                        ],
                        "signature": "Withdraw(address,uint256)"
                    },
                    "id": 6,
                    "logData": "0x000000000000000000000000000000000000000000000062c39fdfd440294294",
                    "logDecoded": true,
                    "operation": "EVENT",
                    "revert": false,
                    "status": true,
                    "topics": [
                        "0x884edad9ce6fa2440d8a54cc123490eb96d2768479d49ff9c7366125a9424364",
                        "0x0000000000000000000000002c9948df89d3ba063390aa92d62a08300d3d222e"
                    ]
                },
                "nodeType": 1
            },
            "7": {
                "event": {
                    "contract": "0xa364afa0696ca0f0c75ba068c436346d815a5998",
                    "decodedLog": {
                        "name": "WalletClaimed",
                        "params": [
                            {
                                "name": "walletAddress",
                                "type": "address",
                                "value": "0x2c9948df89d3ba063390aa92d62a08300d3d222e"
                            },
                            {
                                "name": "totalAllocationClaimed",
                                "type": "uint256",
                                "value": "1,821,877,150,684,931,506,836"
                            }
                        ],
                        "signature": "WalletClaimed(address,uint256)"
                    },
                    "id": 7,
                    "logData": "0x000000000000000000000000000000000000000000000062c39fdfd440294294",
                    "logDecoded": true,
                    "operation": "EVENT",
                    "revert": false,
                    "status": true,
                    "topics": [
                        "0x3dcecb46247fc8ae1320246658e51264bca37911006676c499cc094b19e0d5f2",
                        "0x0000000000000000000000002c9948df89d3ba063390aa92d62a08300d3d222e"
                    ]
                },
                "nodeType": 1
            }
        },
        "gasFlame": [
            {
                "children": [
                    {
                        "children": [
                            {
                                "children": [],
                                "depth": 0,
                                "name": "Initial Gas",
                                "value": 26824
                            },
                            {
                                "children": [
                                    {
                                        "children": [
                                            {
                                                "children": [],
                                                "depth": 2,
                                                "name": "ecrecover",
                                                "value": 3000
                                            },
                                            {
                                                "children": [],
                                                "depth": 2,
                                                "name": "balanceOf",
                                                "value": 2629
                                            },
                                            {
                                                "children": [],
                                                "depth": 2,
                                                "name": "transfer",
                                                "value": 10844
                                            }
                                        ],
                                        "depth": 1,
                                        "name": "claim",
                                        "value": 97739
                                    }
                                ],
                                "depth": 0,
                                "name": "Executed Gas",
                                "value": 102783
                            }
                        ],
                        "depth": -1,
                        "name": "Actual Gas Used",
                        "value": 129607
                    },
                    {
                        "children": [],
                        "depth": -1,
                        "name": "Refunded Gas",
                        "value": 0
                    }
                ],
                "depth": -2,
                "name": "Total Gas",
                "value": 129607
            }
        ],
        "isConfirmed": true,
        "mainTrace": [
            {
                "children": [
                    {
                        "children": [
                            {
                                "children": [
                                    {
                                        "children": [],
                                        "depth": 2,
                                        "id": 2,
                                        "order": 2
                                    },
                                    {
                                        "children": [],
                                        "depth": 2,
                                        "id": 3,
                                        "order": 3
                                    },
                                    {
                                        "children": [
                                            {
                                                "children": [],
                                                "depth": 3,
                                                "id": 5,
                                                "order": 5
                                            }
                                        ],
                                        "depth": 2,
                                        "id": 4,
                                        "order": 4
                                    },
                                    {
                                        "children": [],
                                        "depth": 2,
                                        "id": 6,
                                        "order": 6
                                    },
                                    {
                                        "children": [],
                                        "depth": 2,
                                        "id": 7,
                                        "order": 7
                                    }
                                ],
                                "depth": 1,
                                "id": 1,
                                "order": 1
                            }
                        ],
                        "depth": 0,
                        "id": 0,
                        "order": 0
                    }
                ],
                "depth": -1,
                "id": -1,
                "order": -1
            }
        ],
        "mainTraceNodeCount": 8,
        "parentIdMap": {
            "0": -1,
            "1": 0,
            "2": 1,
            "3": 1,
            "4": 1,
            "5": 4,
            "6": 1,
            "7": 1
        },
        "tidyTrace": [
            {
                "children": [
                    {
                        "children": [
                            {
                                "children": [
                                    {
                                        "children": [
                                            {
                                                "children": [],
                                                "depth": 3,
                                                "id": 5,
                                                "order": 5
                                            }
                                        ],
                                        "depth": 2,
                                        "id": 4,
                                        "order": 4
                                    },
                                    {
                                        "children": [],
                                        "depth": 2,
                                        "id": 6,
                                        "order": 6
                                    },
                                    {
                                        "children": [],
                                        "depth": 2,
                                        "id": 7,
                                        "order": 7
                                    }
                                ],
                                "depth": 1,
                                "id": 1,
                                "order": 1
                            }
                        ],
                        "depth": 0,
                        "id": 0,
                        "order": 0
                    }
                ],
                "depth": -1,
                "id": -1,
                "order": -1
            }
        ],
        "tidyTraceNodeCount": 6
    },
    "state_change": {
        "stateChanges": [
            {
                "address": "0xa364afa0696ca0f0c75ba068c436346d815a5998",
                "erc": "",
                "slots": [
                    {
                        "current": "0x0000000000000000000000000000000000000000000000000000000166879d13",
                        "key": "0xffa15751435b81efdadc12e238e8e89d3df10d0e3984f9a98f3100c8420aa6b0",
                        "prev": "0x0000000000000000000000000000000000000000000000000000000166827dfb"
                    },
                    {
                        "current": "0x0000000000000000000000000000000000000000000000000000000166879d13",
                        "key": "0x9b10f0fee03037ff28f7c5c91aaff5bf5f0d288465cdf3de514b2a2eb0090055",
                        "prev": "0x0000000000000000000000000000000000000000000000000000000166827dfb"
                    },
                    {
                        "current": "0x0000000000000000000000000000000000000000000000000000000166879d13",
                        "key": "0x0f9ed6b2c645a1d0893ccda58508acdc18833de04b54fa681b49e1a7435325d9",
                        "prev": "0x0000000000000000000000000000000000000000000000000000000166827dfb"
                    },
                    {
                        "current": "0x0000000000000000000000000000000000000000000000000000000000000004",
                        "key": "0x63711a2f88236327b93925fad30694c5555ab7e4d3d38473af9211685c746815",
                        "prev": "0x0000000000000000000000000000000000000000000000000000000000000003"
                    },
                    {
                        "current": "0x0000000000000000000000000000000000000000000000000000000166879d13",
                        "key": "0x6710b1cf3b1f2f0af748ec493cd47376278c8cddfa62bd6ced4e84f1ef564377",
                        "prev": "0x0000000000000000000000000000000000000000000000000000000166827dfb"
                    },
                    {
                        "current": "0x0000000000000000000000000000000000000000000000000000000166879d13",
                        "key": "0x4401af4b7b5c903f630495dcf882152f65585bb3f67149b0846f47d90c3075fe",
                        "prev": "0x0000000000000000000000000000000000000000000000000000000166827dfb"
                    },
                    {
                        "current": "0x0000000000000000000000000000000000000000000000000000000066879d13",
                        "key": "0x4725656b3d52f853571dc13aa8044d2511d4da1ffa704ccb443881719be46a27",
                        "prev": "0x0000000000000000000000000000000000000000000000000000000066827dfb"
                    }
                ],
                "storageVariables": [
                    {
                        "name": "nftClaimStoredData",
                        "type": "mapping(address => mapping(uint256 => struct BubbleClaim.NFTClaimStoredData))",
                        "value": {
                            "pairs": [
                                {
                                    "key": "0x716f29b8972d551294d9e02b3eb0fc1107fbf4aa",
                                    "value": {
                                        "pairs": [
                                            {
                                                "key": "390",
                                                "value": {
                                                    "fields": [
                                                        {
                                                            "name": "lastClaimTime",
                                                            "type": "uint32",
                                                            "value": {
                                                                "current": "1720163603",
                                                                "prev": "1719827963",
                                                                "typeTag": 1
                                                            }
                                                        },
                                                        {
                                                            "name": "isHolderBonusRevoked",
                                                            "type": "bool",
                                                            "value": {
                                                                "current": "true",
                                                                "prev": "true",
                                                                "typeTag": 1
                                                            }
                                                        },
                                                        {
                                                            "name": "isStakingBonusRevoked",
                                                            "type": "bool",
                                                            "value": {
                                                                "current": "false",
                                                                "prev": "false",
                                                                "typeTag": 1
                                                            }
                                                        }
                                                    ],
                                                    "typeTag": 3
                                                }
                                            }
                                        ],
                                        "typeTag": 4
                                    }
                                },
                                {
                                    "key": "0x878586da1ed007a4d19de3e7a59eca98814e2808",
                                    "value": {
                                        "pairs": [
                                            {
                                                "key": "10798",
                                                "value": {
                                                    "fields": [
                                                        {
                                                            "name": "lastClaimTime",
                                                            "type": "uint32",
                                                            "value": {
                                                                "current": "1720163603",
                                                                "prev": "1719827963",
                                                                "typeTag": 1
                                                            }
                                                        },
                                                        {
                                                            "name": "isHolderBonusRevoked",
                                                            "type": "bool",
                                                            "value": {
                                                                "current": "true",
                                                                "prev": "true",
                                                                "typeTag": 1
                                                            }
                                                        },
                                                        {
                                                            "name": "isStakingBonusRevoked",
                                                            "type": "bool",
                                                            "value": {
                                                                "current": "false",
                                                                "prev": "false",
                                                                "typeTag": 1
                                                            }
                                                        }
                                                    ],
                                                    "typeTag": 3
                                                }
                                            },
                                            {
                                                "key": "10799",
                                                "value": {
                                                    "fields": [
                                                        {
                                                            "name": "lastClaimTime",
                                                            "type": "uint32",
                                                            "value": {
                                                                "current": "1720163603",
                                                                "prev": "1719827963",
                                                                "typeTag": 1
                                                            }
                                                        },
                                                        {
                                                            "name": "isHolderBonusRevoked",
                                                            "type": "bool",
                                                            "value": {
                                                                "current": "true",
                                                                "prev": "true",
                                                                "typeTag": 1
                                                            }
                                                        },
                                                        {
                                                            "name": "isStakingBonusRevoked",
                                                            "type": "bool",
                                                            "value": {
                                                                "current": "false",
                                                                "prev": "false",
                                                                "typeTag": 1
                                                            }
                                                        }
                                                    ],
                                                    "typeTag": 3
                                                }
                                            },
                                            {
                                                "key": "403",
                                                "value": {
                                                    "fields": [
                                                        {
                                                            "name": "lastClaimTime",
                                                            "type": "uint32",
                                                            "value": {
                                                                "current": "1720163603",
                                                                "prev": "1719827963",
                                                                "typeTag": 1
                                                            }
                                                        },
                                                        {
                                                            "name": "isHolderBonusRevoked",
                                                            "type": "bool",
                                                            "value": {
                                                                "current": "true",
                                                                "prev": "true",
                                                                "typeTag": 1
                                                            }
                                                        },
                                                        {
                                                            "name": "isStakingBonusRevoked",
                                                            "type": "bool",
                                                            "value": {
                                                                "current": "false",
                                                                "prev": "false",
                                                                "typeTag": 1
                                                            }
                                                        }
                                                    ],
                                                    "typeTag": 3
                                                }
                                            }
                                        ],
                                        "typeTag": 4
                                    }
                                },
                                {
                                    "key": "0xe4d20bc4a845aa35b008f5f9f85e50b581df7263",
                                    "value": {
                                        "pairs": [
                                            {
                                                "key": "24",
                                                "value": {
                                                    "fields": [
                                                        {
                                                            "name": "lastClaimTime",
                                                            "type": "uint32",
                                                            "value": {
                                                                "current": "1720163603",
                                                                "prev": "1719827963",
                                                                "typeTag": 1
                                                            }
                                                        },
                                                        {
                                                            "name": "isHolderBonusRevoked",
                                                            "type": "bool",
                                                            "value": {
                                                                "current": "true",
                                                                "prev": "true",
                                                                "typeTag": 1
                                                            }
                                                        },
                                                        {
                                                            "name": "isStakingBonusRevoked",
                                                            "type": "bool",
                                                            "value": {
                                                                "current": "false",
                                                                "prev": "false",
                                                                "typeTag": 1
                                                            }
                                                        }
                                                    ],
                                                    "typeTag": 3
                                                }
                                            }
                                        ],
                                        "typeTag": 4
                                    }
                                }
                            ],
                            "typeTag": 4
                        }
                    },
                    {
                        "name": "walletLastClaimTime",
                        "type": "mapping(address => uint32)",
                        "value": {
                            "pairs": [
                                {
                                    "key": "0x2c9948df89d3ba063390aa92d62a08300d3d222e",
                                    "value": {
                                        "current": "1720163603",
                                        "prev": "1719827963",
                                        "typeTag": 1
                                    }
                                }
                            ],
                            "typeTag": 4
                        }
                    }
                ]
            },
            {
                "address": "0xe9689028ede16c2fdfe3d11855d28f8e3fc452a3",
                "erc": "ERC-20",
                "slots": [
                    {
                        "current": "0x00000000000000000000000000000000000000000174dd579ad0a10e8b7eec3c",
                        "key": "0x3da8516ad4797965e5940f20704140dba1dbe154c9dbd57910a0137ec7deccb1",
                        "prev": "0x00000000000000000000000000000000000000000174ddba5e7080e2cba82ed0"
                    },
                    {
                        "current": "0x000000000000000000000000000000000000000000000cbdf5ee84222aa810df",
                        "key": "0x0a0637f7cc82b3bbc217bb5fc13b96353e69a44db08102b222aaeef93cf0e0ea",
                        "prev": "0x000000000000000000000000000000000000000000000c5b324ea44dea7ece4b"
                    }
                ],
                "storageVariables": [
                    {
                        "name": "_balances",
                        "type": "mapping(address => uint256)",
                        "value": {
                            "pairs": [
                                {
                                    "key": "0x2c9948df89d3ba063390aa92d62a08300d3d222e",
                                    "value": {
                                        "current": "60172553671232876712159",
                                        "prev": "58350676520547945205323",
                                        "typeTag": 1
                                    }
                                },
                                {
                                    "key": "0xa364afa0696ca0f0c75ba068c436346d815a5998",
                                    "value": {
                                        "current": "450765663911684018152598588",
                                        "prev": "450767485788834703084105424",
                                        "typeTag": 1
                                    }
                                }
                            ],
                            "typeTag": 4
                        }
                    }
                ]
            }
        ]
    }
}