{
    "balance_change": {
        "balanceChanges": [
            {
                "account": "0xdfe888db0f3419fcda362772d8be9e52aa061069",
                "assets": [
                    {
                        "address": "0xc02aaa39b223fe8d0a0e5c4f27ead9083c756cc2",
                        "amount": "0.074499573692305959",
                        "iconUrl": "https://assets.blocksec.com/icon/f1cb2d02c471d545bbc7722daf3277fd852d98e63d118771af7047bd8256c516.png",
                        "isERC1155": false,
                        "isERC721": false,
                        "sign": true,
                        "value": "133.90702374187980542"
                    },
                    {
                        "address": "0x819c1a1568934ee59d9f3c8b9640908556c44140",
                        "amount": "128,474,576.438492468184594961",
                        "iconUrl": "",
                        "isERC1155": false,
                        "isERC721": false,
                        "sign": false,
                        "value": "135.5771532"
                    }
                ]
            },
            {
                "account": "0x933ce4ab8fa55a6288ef446ebe0a4f315e194f4c",
                "assets": [
                    {
                        "address": "0xc02aaa39b223fe8d0a0e5c4f27ead9083c756cc2",
                        "amount": "0.074499573692305959",
                        "iconUrl": "https://assets.blocksec.com/icon/f1cb2d02c471d545bbc7722daf3277fd852d98e63d118771af7047bd8256c516.png",
                        "isERC1155": false,
                        "isERC721": false,
                        "sign": false,
                        "value": "133.90702374187980542"
                    },
                    {
                        "address": "0x819c1a1568934ee59d9f3c8b9640908556c44140",
                        "amount": "128,474,576.438492468184594961",
                        "iconUrl": "",
                        "isERC1155": false,
                        "isERC721": false,
                        "sign": true,
                        "value": "135.5771532"
                    }
                ]
            }
        ]
    },
    "profile": {
        "basic_info": {
            "baseFee": "26.080380213",
            "blockNumber": 16938837,
            "callData": "0x3593564c000000000000000000000000000000000000000000000000000000000000006000000000000000000000000000000000000000000000000000000000000000a00000000000000000000000000000000000000000000000000000000064254d430000000000000000000000000000000000000000000000000000000000000001000000000000000000000000000000000000000000000000000000000000000000000000000000000000000000000000000000000000000000000000000000010000000000000000000000000000000000000000000000000000000000000020000000000000000000000000000000000000000000000000000000000000010000000000000000000000000000000000000000000000000000000000000000010000000000000000000000000000000000000000006a458cbe8321faf013ba1100000000000000000000000000000000000000000000000000f09d3e4496caaf00000000000000000000000000000000000000000000000000000000000000a00000000000000000000000000000000000000000000000000000000000000001000000000000000000000000000000000000000000000000000000000000002b819c1a1568934ee59d9f3c8b9640908556c44140002710c02aaa39b223fe8d0a0e5c4f27ead9083c756cc2000000000000000000000000000000000000000000",
            "debugEnable": true,
            "errorInfo": "",
            "eventCount": 4,
            "feeRecipient": "0x690b9a9e9aa1c9db991c7721a92d351db4fac990",
            "formatValue": "0",
            "gasLimit": 234339,
            "gasPrice": "26.180380213",
            "gasUsed": 183731,
            "intTxnCount": 7,
            "internalRevert": false,
            "internalRevertMessage": "",
            "isContractCreation": false,
            "isFlashloan": false,
            "maxFee": "37.920281584",
            "nonce": 21,
            "overwritedBlockNumber": -1,
            "priorityFee": "0.1",
            "receiver": "0xef1c6e67703c7bd7107eed8303fbe6ec2554bf6b",
            "revertMessage": "",
            "sender": "0xdfe888db0f3419fcda362772d8be9e52aa061069",
            "simulationEnable": true,
            "sourceTxnHash": "0xa4630915b05005f33187d48841836ea624364a9660683f5cc54c25c20e0bfb41",
            "status": true,
            "timestamp": "2023-03-30T08:20:47Z",
            "transactionFee": "0.004810147436914703",
            "txnHash": "0xa4630915b05005f33187d48841836ea624364a9660683f5cc54c25c20e0bfb41",
            "txnIndex": 156,
            "type": 2,
            "value": "0"
        },
        "fund_flow": [
            {
                "amount": "0.074499573692305959",
                "from": "0x933ce4ab8fa55a6288ef446ebe0a4f315e194f4c",
                "id": 1,
                "isERC1155": false,
                "isERC721": false,
                "isReverted": false,
                "order": 1,
                "to": "0xdfe888db0f3419fcda362772d8be9e52aa061069",
                "token": "0xc02aaa39b223fe8d0a0e5c4f27ead9083c756cc2"
            },
            {
                "amount": "128,474,576.438492468184594961",
                "from": "0xdfe888db0f3419fcda362772d8be9e52aa061069",
                "id": 2,
                "isERC1155": false,
                "isERC721": false,
                "isReverted": false,
                "order": 2,
                "to": "0x933ce4ab8fa55a6288ef446ebe0a4f315e194f4c",
                "token": "0x819c1a1568934ee59d9f3c8b9640908556c44140"
            }
        ],
        "token_infos": [
            {
                "address": "0xeeeeeeeeeeeeeeeeeeeeeeeeeeeeeeeeeeeeeeee",
                "decimals": 18
            },
            {
                "address": "0x819c1a1568934ee59d9f3c8b9640908556c44140",
                "decimals": 18
            },
            {
                "address": "0xc02aaa39b223fe8d0a0e5c4f27ead9083c756cc2",
                "decimals": 18
            }
        ]
    },
    "address_label": {
        "labels": [
            {
                "address": "0x819c1a1568934ee59d9f3c8b9640908556c44140",
                "label": "Hobbes (HOBBES)"
            },
            {
                "address": "0x0000000000000000000000000000000000000002",
                "label": "Precompiled"
            },
            {
                "address": "0x0000000000000000000000000000000000000004",
                "label": "Precompiled"
            },
            {
                "address": "0x000000000022d473030f116ddee9f6b43ac78ba3",
                "label": "Permit2"
            },
            {
                "address": "0xef1c6e67703c7bd7107eed8303fbe6ec2554bf6b",
                "label": "Uniswap: Universal Router 2"
            },
            {
                "address": "0x933ce4ab8fa55a6288ef446ebe0a4f315e194f4c",
                "label": "Uniswap V3: HOBBES 2"
            },
            {
                "address": "0x0000000000000000000000000000000000000001",
                "label": "Precompiled"
            },
            {
                "address": "0x0000000000000000000000000000000000000003",
                "label": "Precompiled"
            },
            {
                "address": "0xeeeeeeeeeeeeeeeeeeeeeeeeeeeeeeeeeeeeeeee",
                "label": "Ether"
            },
            {
                "address": "0xc02aaa39b223fe8d0a0e5c4f27ead9083c756cc2",
                "label": "Wrapped Ether (WETH)"
            }
        ]
    },
    "trace": {
        "accountLabels": null,
        "dataMap": {
            "-1": {
                "invocation": {
                    "address": "0xdfe888db0f3419fcda362772d8be9e52aa061069",
                    "callData": "",
                    "decodedMethod": null,
                    "errorInfo": "",
                    "fromAddress": "",
                    "gasUsed": 0,
                    "id": -1,
                    "methodDecoded": false,
                    "operation": "",
                    "output": "",
                    "revert": false,
                    "revertMessage": "",
                    "selector": "",
                    "status": false,
                    "value": ""
                },
                "nodeType": 0
            },
            "0": {
                "invocation": {
                    "address": "0xef1c6e67703c7bd7107eed8303fbe6ec2554bf6b",
                    "callData": "0x000000000000000000000000000000000000000000000000000000000000006000000000000000000000000000000000000000000000000000000000000000a00000000000000000000000000000000000000000000000000000000064254d430000000000000000000000000000000000000000000000000000000000000001000000000000000000000000000000000000000000000000000000000000000000000000000000000000000000000000000000000000000000000000000000010000000000000000000000000000000000000000000000000000000000000020000000000000000000000000000000000000000000000000000000000000010000000000000000000000000000000000000000000000000000000000000000010000000000000000000000000000000000000000006a458cbe8321faf013ba1100000000000000000000000000000000000000000000000000f09d3e4496caaf00000000000000000000000000000000000000000000000000000000000000a00000000000000000000000000000000000000000000000000000000000000001000000000000000000000000000000000000000000000000000000000000002b819c1a1568934ee59d9f3c8b9640908556c44140002710c02aaa39b223fe8d0a0e5c4f27ead9083c756cc2000000000000000000000000000000000000000000",
                    "decodedMethod": {
                        "callParams": [
                            {
                                "name": "commands",
                                "type": "bytes",
                                "value": "0x00"
                            },
                            {
                                "name": "inputs",
                                "type": "bytes[]",
                                "value": [
                                    "0x00000000000000000000000000000000000000000000000000000000000000010000000000000000000000000000000000000000006a458cbe8321faf013ba1100000000000000000000000000000000000000000000000000f09d3e4496caaf00000000000000000000000000000000000000000000000000000000000000a00000000000000000000000000000000000000000000000000000000000000001000000000000000000000000000000000000000000000000000000000000002b819c1a1568934ee59d9f3c8b9640908556c44140002710c02aaa39b223fe8d0a0e5c4f27ead9083c756cc2000000000000000000000000000000000000000000"
                                ]
                            },
                            {
                                "name": "deadline",
                                "type": "uint256",
                                "value": "1,680,166,211"
                            }
                        ],
                        "constructorArguments": "",
                        "name": "execute",
                        "returnParams": [],
                        "signature": "execute(bytes,bytes[],uint256)"
                    },
                    "errorInfo": "",
                    "fromAddress": "0xdfe888db0f3419fcda362772d8be9e52aa061069",
                    "gasUsed": 183731,
                    "id": 0,
                    "methodDecoded": true,
                    "operation": "CALL",
                    "output": "",
                    "revert": false,
                    "revertMessage": "",
                    "selector": "0x3593564c",
                    "status": true,
                    "value": "0"
                },
                "nodeType": 0
            },
            "1": {
                "invocation": {
                    "address": "0x933ce4ab8fa55a6288ef446ebe0a4f315e194f4c",
                    "callData": "0x000000000000000000000000dfe888db0f3419fcda362772d8be9e52aa06106900000000000000000000000000000000000000000000000000000000000000010000000000000000000000000000000000000000006a458cbe8321faf013ba1100000000000000000000000000000000000000000000000000000001000276a400000000000000000000000000000000000000000000000000000000000000a000000000000000000000000000000000000000000000000000000000000000a00000000000000000000000000000000000000000000000000000000000000040000000000000000000000000dfe888db0f3419fcda362772d8be9e52aa061069000000000000000000000000000000000000000000000000000000000000002b819c1a1568934ee59d9f3c8b9640908556c44140002710c02aaa39b223fe8d0a0e5c4f27ead9083c756cc2000000000000000000000000000000000000000000",
                    "decodedMethod": {
                        "callParams": [
                            {
                                "name": "recipient",
                                "type": "address",
                                "value": "0xdfe888db0f3419fcda362772d8be9e52aa061069"
                            },
                            {
                                "name": "zeroForOne",
                                "type": "bool",
                                "value": true
                            },
                            {
                                "name": "amountSpecified",
                                "type": "int256",
                                "value": "128,474,576,438,492,468,184,594,961"
                            },
                            {
                                "name": "sqrtPriceLimitX96",
                                "type": "uint160",
                                "value": "4,295,128,740"
                            },
                            {
                                "name": "data",
                                "type": "bytes",
                                "value": "0x0000000000000000000000000000000000000000000000000000000000000040000000000000000000000000dfe888db0f3419fcda362772d8be9e52aa061069000000000000000000000000000000000000000000000000000000000000002b819c1a1568934ee59d9f3c8b9640908556c44140002710c02aaa39b223fe8d0a0e5c4f27ead9083c756cc2000000000000000000000000000000000000000000"
                            }
                        ],
                        "constructorArguments": "",
                        "name": "swap",
                        "returnParams": [
                            {
                                "name": "amount0",
                                "type": "int256",
                                "value": "128,474,576,438,492,468,184,594,961"
                            },
                            {
                                "name": "amount1",
                                "type": "int256",
                                "value": "-74,499,573,692,305,959"
                            }
                        ],
                        "signature": "swap(address,bool,int256,uint160,bytes)"
                    },
                    "errorInfo": "",
                    "fromAddress": "0xef1c6e67703c7bd7107eed8303fbe6ec2554bf6b",
                    "gasUsed": 154378,
                    "id": 1,
                    "methodDecoded": true,
                    "operation": "CALL",
                    "output": "0x0000000000000000000000000000000000000000006a458cbe8321faf013ba11fffffffffffffffffffffffffffffffffffffffffffffffffef753084e26edd9",
                    "revert": false,
                    "revertMessage": "",
                    "selector": "0x128acb08",
                    "status": true,
                    "value": "0"
                },
                "nodeType": 0
            },
            "10": {
                "invocation": {
                    "address": "0x819c1a1568934ee59d9f3c8b9640908556c44140",
                    "callData": "0x000000000000000000000000933ce4ab8fa55a6288ef446ebe0a4f315e194f4c",
                    "decodedMethod": {
                        "callParams": [
                            {
                                "name": "account",
                                "type": "address",
                                "value": "0x933ce4ab8fa55a6288ef446ebe0a4f315e194f4c"
                            }
                        ],
                        "constructorArguments": "",
                        "name": "balanceOf",
                        "returnParams": [
                            {
                                "decimalAvailable": true,
                                "name": "",
                                "type": "uint256",
                                "value": "22,794,184,427,171,310,840,286,962,998"
                            }
                        ],
                        "signature": "balanceOf(address)"
                    },
                    "errorInfo": "",
                    "fromAddress": "0x933ce4ab8fa55a6288ef446ebe0a4f315e194f4c",
                    "gasUsed": 636,
                    "id": 10,
                    "methodDecoded": true,
                    "operation": "STATICCALL",
                    "output": "0x000000000000000000000000000000000000000049a6e84dcc78e06eb6466536",
                    "revert": false,
                    "revertMessage": "",
                    "selector": "0x70a08231",
                    "status": true,
                    "value": "0"
                },
                "nodeType": 0
            },
            "11": {
                "event": {
                    "contract": "0x933ce4ab8fa55a6288ef446ebe0a4f315e194f4c",
                    "decodedLog": {
                        "name": "Swap",
                        "params": [
                            {
                                "name": "sender",
                                "type": "address",
                                "value": "0xef1c6e67703c7bd7107eed8303fbe6ec2554bf6b"
                            },
                            {
                                "name": "recipient",
                                "type": "address",
                                "value": "0xdfe888db0f3419fcda362772d8be9e52aa061069"
                            },
                            {
                                "name": "amount0",
                                "type": "int256",
                                "value": "128,474,576,438,492,468,184,594,961"
                            },
                            {
                                "name": "amount1",
                                "type": "int256",
                                "value": "-74,499,573,692,305,959"
                            },
                            {
                                "name": "sqrtPriceX96",
                                "type": "uint160",
                                "value": "1,915,755,167,534,861,854,565,062"
                            },
                            {
                                "name": "liquidity",
                                "type": "uint128",
                                "value": "1,688,034,140,155,017,628,481,054"
                            },
                            {
                                "name": "tick",
                                "type": "int24",
                                "value": "-212,611"
                            }
                        ],
                        "signature": "Swap(address,address,int256,int256,uint160,uint128,int24)"
                    },
                    "id": 11,
                    "logData": "0x0000000000000000000000000000000000000000006a458cbe8321faf013ba11fffffffffffffffffffffffffffffffffffffffffffffffffef753084e26edd90000000000000000000000000000000000000000000195ad4bb4ef10bb21e2c6000000000000000000000000000000000000000000016574839c02cf2183f61efffffffffffffffffffffffffffffffffffffffffffffffffffffffffffcc17d",
                    "logDecoded": true,
                    "operation": "EVENT",
                    "revert": false,
                    "status": true,
                    "topics": [
                        "0xc42079f94a6350d7e6235f29174924f928cc2ac818eb64fed8004e115fbcca67",
                        "0x000000000000000000000000ef1c6e67703c7bd7107eed8303fbe6ec2554bf6b",
                        "0x000000000000000000000000dfe888db0f3419fcda362772d8be9e52aa061069"
                    ]
                },
                "nodeType": 1
            },
            "2": {
                "invocation": {
                    "address": "0xc02aaa39b223fe8d0a0e5c4f27ead9083c756cc2",
                    "callData": "0x000000000000000000000000dfe888db0f3419fcda362772d8be9e52aa0610690000000000000000000000000000000000000000000000000108acf7b1d91227",
                    "decodedMethod": {
                        "callParams": [
                            {
                                "name": "dst",
                                "type": "address",
                                "value": "0xdfe888db0f3419fcda362772d8be9e52aa061069"
                            },
                            {
                                "decimalAvailable": true,
                                "name": "wad",
                                "type": "uint256",
                                "value": "74,499,573,692,305,959"
                            }
                        ],
                        "constructorArguments": "",
                        "name": "transfer",
                        "returnParams": [
                            {
                                "name": "",
                                "type": "bool",
                                "value": true
                            }
                        ],
                        "signature": "transfer(address,uint256)"
                    },
                    "errorInfo": "",
                    "fromAddress": "0x933ce4ab8fa55a6288ef446ebe0a4f315e194f4c",
                    "gasUsed": 29962,
                    "id": 2,
                    "methodDecoded": true,
                    "operation": "CALL",
                    "output": "0x0000000000000000000000000000000000000000000000000000000000000001",
                    "revert": false,
                    "revertMessage": "",
                    "selector": "0xa9059cbb",
                    "status": true,
                    "value": "0"
                },
                "nodeType": 0
            },
            "3": {
                "event": {
                    "contract": "0xc02aaa39b223fe8d0a0e5c4f27ead9083c756cc2",
                    "decodedLog": {
                        "name": "Transfer",
                        "params": [
                            {
                                "name": "src",
                                "type": "address",
                                "value": "0x933ce4ab8fa55a6288ef446ebe0a4f315e194f4c"
                            },
                            {
                                "name": "dst",
                                "type": "address",
                                "value": "0xdfe888db0f3419fcda362772d8be9e52aa061069"
                            },
                            {
                                "decimalAvailable": true,
                                "name": "wad",
                                "type": "uint256",
                                "value": "74,499,573,692,305,959"
                            }
                        ],
                        "signature": "Transfer(address,address,uint256)"
                    },
                    "id": 3,
                    "logData": "0x0000000000000000000000000000000000000000000000000108acf7b1d91227",
                    "logDecoded": true,
                    "operation": "EVENT",
                    "revert": false,
                    "status": true,
                    "topics": [
                        "0xddf252ad1be2c89b69c2b068fc378daa952ba7f163c4a11628f55a4df523b3ef",
                        "0x000000000000000000000000933ce4ab8fa55a6288ef446ebe0a4f315e194f4c",
                        "0x000000000000000000000000dfe888db0f3419fcda362772d8be9e52aa061069"
                    ]
                },
                "nodeType": 1
            },
            "4": {
                "invocation": {
                    "address": "0x819c1a1568934ee59d9f3c8b9640908556c44140",
                    "callData": "0x000000000000000000000000933ce4ab8fa55a6288ef446ebe0a4f315e194f4c",
                    "decodedMethod": {
                        "callParams": [
                            {
                                "name": "account",
                                "type": "address",
                                "value": "0x933ce4ab8fa55a6288ef446ebe0a4f315e194f4c"
                            }
                        ],
                        "constructorArguments": "",
                        "name": "balanceOf",
                        "returnParams": [
                            {
                                "decimalAvailable": true,
                                "name": "",
                                "type": "uint256",
                                "value": "22,665,709,850,732,818,372,102,368,037"
                            }
                        ],
                        "signature": "balanceOf(address)"
                    },
                    "errorInfo": "",
                    "fromAddress": "0x933ce4ab8fa55a6288ef446ebe0a4f315e194f4c",
                    "gasUsed": 2636,
                    "id": 4,
                    "methodDecoded": true,
                    "operation": "STATICCALL",
                    "output": "0x0000000000000000000000000000000000000000493ca2c10df5be73c632ab25",
                    "revert": false,
                    "revertMessage": "",
                    "selector": "0x70a08231",
                    "status": true,
                    "value": "0"
                },
                "nodeType": 0
            },
            "5": {
                "invocation": {
                    "address": "0xef1c6e67703c7bd7107eed8303fbe6ec2554bf6b",
                    "callData": "0x0000000000000000000000000000000000000000006a458cbe8321faf013ba11fffffffffffffffffffffffffffffffffffffffffffffffffef753084e26edd9000000000000000000000000000000000000000000000000000000000000006000000000000000000000000000000000000000000000000000000000000000a00000000000000000000000000000000000000000000000000000000000000040000000000000000000000000dfe888db0f3419fcda362772d8be9e52aa061069000000000000000000000000000000000000000000000000000000000000002b819c1a1568934ee59d9f3c8b9640908556c44140002710c02aaa39b223fe8d0a0e5c4f27ead9083c756cc2000000000000000000000000000000000000000000",
                    "decodedMethod": {
                        "callParams": [
                            {
                                "name": "amount0Delta",
                                "type": "int256",
                                "value": "128,474,576,438,492,468,184,594,961"
                            },
                            {
                                "name": "amount1Delta",
                                "type": "int256",
                                "value": "-74,499,573,692,305,959"
                            },
                            {
                                "name": "data",
                                "type": "bytes",
                                "value": "0x0000000000000000000000000000000000000000000000000000000000000040000000000000000000000000dfe888db0f3419fcda362772d8be9e52aa061069000000000000000000000000000000000000000000000000000000000000002b819c1a1568934ee59d9f3c8b9640908556c44140002710c02aaa39b223fe8d0a0e5c4f27ead9083c756cc2000000000000000000000000000000000000000000"
                            }
                        ],
                        "constructorArguments": "",
                        "name": "uniswapV3SwapCallback",
                        "returnParams": [],
                        "signature": "uniswapV3SwapCallback(int256,int256,bytes)"
                    },
                    "errorInfo": "",
                    "fromAddress": "0x933ce4ab8fa55a6288ef446ebe0a4f315e194f4c",
                    "gasUsed": 46889,
                    "id": 5,
                    "methodDecoded": true,
                    "operation": "CALL",
                    "output": "",
                    "revert": false,
                    "revertMessage": "",
                    "selector": "0xfa461e33",
                    "status": true,
                    "value": "0"
                },
                "nodeType": 0
            },
            "6": {
                "invocation": {
                    "address": "0x000000000022d473030f116ddee9f6b43ac78ba3",
                    "callData": "0x000000000000000000000000dfe888db0f3419fcda362772d8be9e52aa061069000000000000000000000000933ce4ab8fa55a6288ef446ebe0a4f315e194f4c0000000000000000000000000000000000000000006a458cbe8321faf013ba11000000000000000000000000819c1a1568934ee59d9f3c8b9640908556c44140",
                    "decodedMethod": {
                        "callParams": [
                            {
                                "name": "from",
                                "type": "address",
                                "value": "0xdfe888db0f3419fcda362772d8be9e52aa061069"
                            },
                            {
                                "name": "to",
                                "type": "address",
                                "value": "0x933ce4ab8fa55a6288ef446ebe0a4f315e194f4c"
                            },
                            {
                                "name": "amount",
                                "type": "uint160",
                                "value": "128,474,576,438,492,468,184,594,961"
                            },
                            {
                                "name": "token",
                                "type": "address",
                                "value": "0x819c1a1568934ee59d9f3c8b9640908556c44140"
                            }
                        ],
                        "constructorArguments": "",
                        "name": "transferFrom",
                        "returnParams": [],
                        "signature": "transferFrom(address,address,uint160,address)"
                    },
                    "errorInfo": "",
                    "fromAddress": "0xef1c6e67703c7bd7107eed8303fbe6ec2554bf6b",
                    "gasUsed": 41878,
                    "id": 6,
                    "methodDecoded": true,
                    "operation": "CALL",
                    "output": "",
                    "revert": false,
                    "revertMessage": "",
                    "selector": "0x36c78516",
                    "status": true,
                    "value": "0"
                },
                "nodeType": 0
            },
            "7": {
                "invocation": {
                    "address": "0x819c1a1568934ee59d9f3c8b9640908556c44140",
                    "callData": "0x000000000000000000000000dfe888db0f3419fcda362772d8be9e52aa061069000000000000000000000000933ce4ab8fa55a6288ef446ebe0a4f315e194f4c0000000000000000000000000000000000000000006a458cbe8321faf013ba11",
                    "decodedMethod": {
                        "callParams": [
                            {
                                "name": "sender",
                                "type": "address",
                                "value": "0xdfe888db0f3419fcda362772d8be9e52aa061069"
                            },
                            {
                                "name": "recipient",
                                "type": "address",
                                "value": "0x933ce4ab8fa55a6288ef446ebe0a4f315e194f4c"
                            },
                            {
                                "decimalAvailable": true,
                                "name": "amount",
                                "type": "uint256",
                                "value": "128,474,576,438,492,468,184,594,961"
                            }
                        ],
                        "constructorArguments": "",
                        "name": "transferFrom",
                        "returnParams": [
                            {
                                "name": "",
                                "type": "bool",
                                "value": true
                            }
                        ],
                        "signature": "transferFrom(address,address,uint256)"
                    },
                    "errorInfo": "",
                    "fromAddress": "0x000000000022d473030f116ddee9f6b43ac78ba3",
                    "gasUsed": 38671,
                    "id": 7,
                    "methodDecoded": true,
                    "operation": "CALL",
                    "output": "0x0000000000000000000000000000000000000000000000000000000000000001",
                    "revert": false,
                    "revertMessage": "",
                    "selector": "0x23b872dd",
                    "status": true,
                    "value": "0"
                },
                "nodeType": 0
            },
            "8": {
                "event": {
                    "contract": "0x819c1a1568934ee59d9f3c8b9640908556c44140",
                    "decodedLog": {
                        "name": "Transfer",
                        "params": [
                            {
                                "name": "from",
                                "type": "address",
                                "value": "0xdfe888db0f3419fcda362772d8be9e52aa061069"
                            },
                            {
                                "name": "to",
                                "type": "address",
                                "value": "0x933ce4ab8fa55a6288ef446ebe0a4f315e194f4c"
                            },
                            {
                                "decimalAvailable": true,
                                "name": "value",
                                "type": "uint256",
                                "value": "128,474,576,438,492,468,184,594,961"
                            }
                        ],
                        "signature": "Transfer(address,address,uint256)"
                    },
                    "id": 8,
                    "logData": "0x0000000000000000000000000000000000000000006a458cbe8321faf013ba11",
                    "logDecoded": true,
                    "operation": "EVENT",
                    "revert": false,
                    "status": true,
                    "topics": [
                        "0xddf252ad1be2c89b69c2b068fc378daa952ba7f163c4a11628f55a4df523b3ef",
                        "0x000000000000000000000000dfe888db0f3419fcda362772d8be9e52aa061069",
                        "0x000000000000000000000000933ce4ab8fa55a6288ef446ebe0a4f315e194f4c"
                    ]
                },
                "nodeType": 1
            },
            "9": {
                "event": {
                    "contract": "0x819c1a1568934ee59d9f3c8b9640908556c44140",
                    "decodedLog": {
                        "name": "Approval",
                        "params": [
                            {
                                "name": "owner",
                                "type": "address",
                                "value": "0xdfe888db0f3419fcda362772d8be9e52aa061069"
                            },
                            {
                                "name": "spender",
                                "type": "address",
                                "value": "0x000000000022d473030f116ddee9f6b43ac78ba3"
                            },
                            {
                                "decimalAvailable": true,
                                "name": "value",
                                "type": "uint256",
                                "value": "115,792,089,237,316,195,423,570,985,008,687,907,853,269,984,665,640,402,585,115,302,334,772,945,044,974"
                            }
                        ],
                        "signature": "Approval(address,address,uint256)"
                    },
                    "id": 9,
                    "logData": "0xffffffffffffffffffffffffffffffffffffffffff7a72b6912a2968c82f45ee",
                    "logDecoded": true,
                    "operation": "EVENT",
                    "revert": false,
                    "status": true,
                    "topics": [
                        "0x8c5be1e5ebec7d5bd14f71427d1e84f3dd0314c0f7b2291e5b200ac8c7c3b925",
                        "0x000000000000000000000000dfe888db0f3419fcda362772d8be9e52aa061069",
                        "0x000000000000000000000000000000000022d473030f116ddee9f6b43ac78ba3"
                    ]
                },
                "nodeType": 1
            }
        },
        "gasFlame": [
            {
                "children": [
                    {
                        "children": [
                            {
                                "children": [],
                                "depth": 0,
                                "name": "Initial Gas",
                                "value": 24000
                            },
                            {
                                "children": [
                                    {
                                        "children": [
                                            {
                                                "children": [],
                                                "depth": 2,
                                                "name": "transfer",
                                                "value": 29962
                                            },
                                            {
                                                "children": [],
                                                "depth": 2,
                                                "name": "balanceOf",
                                                "value": 2636
                                            },
                                            {
                                                "children": [
                                                    {
                                                        "children": [
                                                            {
                                                                "children": [],
                                                                "depth": 4,
                                                                "name": "transferFrom",
                                                                "value": 38671
                                                            }
                                                        ],
                                                        "depth": 3,
                                                        "name": "transferFrom",
                                                        "value": 41878
                                                    }
                                                ],
                                                "depth": 2,
                                                "name": "uniswapV3SwapCallback",
                                                "value": 46889
                                            },
                                            {
                                                "children": [],
                                                "depth": 2,
                                                "name": "balanceOf",
                                                "value": 636
                                            }
                                        ],
                                        "depth": 1,
                                        "name": "swap",
                                        "value": 154378
                                    }
                                ],
                                "depth": 0,
                                "name": "Executed Gas",
                                "value": 167331
                            }
                        ],
                        "depth": -1,
                        "name": "Actual Gas Used",
                        "value": 183731
                    },
                    {
                        "children": [],
                        "depth": -1,
                        "name": "Refunded Gas",
                        "value": 7600
                    }
                ],
                "depth": -2,
                "name": "Total Gas",
                "value": 191331
            }
        ],
        "isConfirmed": true,
        "mainTrace": [
            {
                "children": [
                    {
                        "children": [
                            {
                                "children": [
                                    {
                                        "children": [
                                            {
                                                "children": [],
                                                "depth": 3,
                                                "id": 3,
                                                "order": 3
                                            }
                                        ],
                                        "depth": 2,
                                        "id": 2,
                                        "order": 2
                                    },
                                    {
                                        "children": [],
                                        "depth": 2,
                                        "id": 4,
                                        "order": 4
                                    },
                                    {
                                        "children": [
                                            {
                                                "children": [
                                                    {
                                                        "children": [
                                                            {
                                                                "children": [],
                                                                "depth": 5,
                                                                "id": 8,
                                                                "order": 8
                                                            },
                                                            {
                                                                "children": [],
                                                                "depth": 5,
                                                                "id": 9,
                                                                "order": 9
                                                            }
                                                        ],
                                                        "depth": 4,
                                                        "id": 7,
                                                        "order": 7
                                                    }
                                                ],
                                                "depth": 3,
                                                "id": 6,
                                                "order": 6
                                            }
                                        ],
                                        "depth": 2,
                                        "id": 5,
                                        "order": 5
                                    },
                                    {
                                        "children": [],
                                        "depth": 2,
                                        "id": 10,
                                        "order": 10
                                    },
                                    {
                                        "children": [],
                                        "depth": 2,
                                        "id": 11,
                                        "order": 11
                                    }
                                ],
                                "depth": 1,
                                "id": 1,
                                "order": 1
                            }
                        ],
                        "depth": 0,
                        "id": 0,
                        "order": 0
                    }
                ],
                "depth": -1,
                "id": -1,
                "order": -1
            }
        ],
        "mainTraceNodeCount": 12,
        "parentIdMap": {
            "0": -1,
            "1": 0,
            "10": 1,
            "11": 1,
            "2": 1,
            "3": 2,
            "4": 1,
            "5": 1,
            "6": 5,
            "7": 6,
            "8": 7,
            "9": 7
        },
        "tidyTrace": [
            {
                "children": [
                    {
                        "children": [
                            {
                                "children": [
                                    {
                                        "children": [
                                            {
                                                "children": [],
                                                "depth": 3,
                                                "id": 3,
                                                "order": 3
                                            }
                                        ],
                                        "depth": 2,
                                        "id": 2,
                                        "order": 2
                                    },
                                    {
                                        "children": [
                                            {
                                                "children": [
                                                    {
                                                        "children": [
                                                            {
                                                                "children": [],
                                                                "depth": 5,
                                                                "id": 8,
                                                                "order": 8
                                                            },
                                                            {
                                                                "children": [],
                                                                "depth": 5,
                                                                "id": 9,
                                                                "order": 9
                                                            }
                                                        ],
                                                        "depth": 4,
                                                        "id": 7,
                                                        "order": 7
                                                    }
                                                ],
                                                "depth": 3,
                                                "id": 6,
                                                "order": 6
                                            }
                                        ],
                                        "depth": 2,
                                        "id": 5,
                                        "order": 5
                                    },
                                    {
                                        "children": [],
                                        "depth": 2,
                                        "id": 11,
                                        "order": 11
                                    }
                                ],
                                "depth": 1,
                                "id": 1,
                                "order": 1
                            }
                        ],
                        "depth": 0,
                        "id": 0,
                        "order": 0
                    }
                ],
                "depth": -1,
                "id": -1,
                "order": -1
            }
        ],
        "tidyTraceNodeCount": 10
    },
    "state_change": {
        "stateChanges": [
            {
                "address": "0x819c1a1568934ee59d9f3c8b9640908556c44140",
                "erc": "ERC-20",
                "slots": [
                    {
                        "current": "0x000000000000000000000000000000000000000049a6e84dcc78e06eb6466536",
                        "key": "0x1e17af910660e7069ff52c589f6212fc1dacb44e52ccd5d279d7710add280a01",
                        "prev": "0x0000000000000000000000000000000000000000493ca2c10df5be73c632ab25"
                    },
                    {
                        "current": "0xffffffffffffffffffffffffffffffffffffffffff7a72b6912a2968c82f45ee",
                        "key": "0xf1f1b401566a2f58cb438642080a28d520b1533e19fe398f758830344ebe50c1",
                        "prev": "0xffffffffffffffffffffffffffffffffffffffffffe4b8434fad4b63b842ffff"
                    },
                    {
                        "current": "0x0000000000000000000000000000000000000000000000000000000000000000",
                        "key": "0x434c025e2ce83d25fa4249f7d55562ad034565effb9029a64c13c3b3c7b23d6a",
                        "prev": "0x0000000000000000000000000000000000000000006a458cbe8321faf013ba11"
                    }
                ],
                "storageVariables": [
                    {
                        "name": "_balances",
                        "type": "mapping(address => uint256)",
                        "value": {
                            "pairs": [
                                {
                                    "key": "0x933ce4ab8fa55a6288ef446ebe0a4f315e194f4c",
                                    "value": {
                                        "current": "22794184427171310840286962998",
                                        "prev": "22665709850732818372102368037",
                                        "typeTag": 1
                                    }
                                },
                                {
                                    "key": "0xdfe888db0f3419fcda362772d8be9e52aa061069",
                                    "value": {
                                        "current": "0",
                                        "prev": "128474576438492468184594961",
                                        "typeTag": 1
                                    }
                                }
                            ],
                            "typeTag": 4
                        }
                    },
                    {
                        "name": "_allowances",
                        "type": "mapping(address => mapping(address => uint256))",
                        "value": {
                            "pairs": [
                                {
                                    "key": "0xdfe888db0f3419fcda362772d8be9e52aa061069",
                                    "value": {
                                        "pairs": [
                                            {
                                                "key": "0x000000000022d473030f116ddee9f6b43ac78ba3",
                                                "value": {
                                                    "current": "115792089237316195423570985008687907853269984665640402585115302334772945044974",
                                                    "prev": "115792089237316195423570985008687907853269984665640531059691740827241129639935",
                                                    "typeTag": 1
                                                }
                                            }
                                        ],
                                        "typeTag": 4
                                    }
                                }
                            ],
                            "typeTag": 4
                        }
                    }
                ]
            },
            {
                "address": "0x933ce4ab8fa55a6288ef446ebe0a4f315e194f4c",
                "erc": "",
                "slots": [
                    {
                        "current": "0x000000000000000000000000000042f9b35e35ce9e32a4f8eeb61e03d993462f",
                        "key": "0x0000000000000000000000000000000000000000000000000000000000000001",
                        "prev": "0x000000000000000000000000000042f8f46a563975dd98a81c8ba2a26d5d3085"
                    },
                    {
                        "current": "0x000100000100010000fcc17d0000000000000000000195ad4bb4ef10bb21e2c6",
                        "key": "0x0000000000000000000000000000000000000000000000000000000000000000",
                        "prev": "0x000100000100010000fcc1a1000000000000000000019667111047dea6c99f2d"
                    },
                    {
                        "current": "0x00000000000000000000000000000507fd6ffd4b29f4251584bff921a13e1e52",
                        "key": "0x20297d0f8385cb4f4084fbb4b4ca0aa351ad9df0ae4d96a7e9b122334da4940f",
                        "prev": "0x00000000000000000000000000003df17fc2744b492ac5771ab5970a313d98b2"
                    },
                    {
                        "current": "0x0000000000000000000000000000000000000f90e7f2e954e7c8ad254855aa83",
                        "key": "0x20297d0f8385cb4f4084fbb4b4ca0aa351ad9df0ae4d96a7e9b122334da49410",
                        "prev": "0x00000000000000000000000000000000000057ddbad58939638842800fc703bb"
                    },
                    {
                        "current": "0x01000272ac000000000000000000000001fb9aa042c31085dffffff82c656acc",
                        "key": "0x20297d0f8385cb4f4084fbb4b4ca0aa351ad9df0ae4d96a7e9b122334da49411",
                        "prev": "0x016422d3b30000e7e40000000000000011156f3da954f09165ffffd9a4c0d054"
                    },
                    {
                        "current": "0x010000e7e400000000000000131109ddec18011744ffffd1d1263b206425465f",
                        "key": "0x0000000000000000000000000000000000000000000000000000000000000008",
                        "prev": "0x010000e7e400000000000000131062bbe320046a08ffffd1d430b4306425456f"
                    },
                    {
                        "current": "0x000000000000000000000000000000000000000000016574839c02cf2183f61e",
                        "key": "0x0000000000000000000000000000000000000000000000000000000000000004",
                        "prev": "0x000000000000000000000000000000000000000000016f9c8d88bee45263b8d4"
                    }
                ],
                "storageVariables": []
            },
            {
                "address": "0xc02aaa39b223fe8d0a0e5c4f27ead9083c756cc2",
                "erc": "ERC-20",
                "slots": [
                    {
                        "current": "0x0000000000000000000000000000000000000000000000008285f1b7914b8ff2",
                        "key": "0x964429899f3b894214e21c93cfb40e6561fbba4e29e12a41fe5f5fda43c2831c",
                        "prev": "0x000000000000000000000000000000000000000000000000838e9eaf4324a219"
                    },
                    {
                        "current": "0x0000000000000000000000000000000000000000000000000108acf7b1d91227",
                        "key": "0x5e53f1ad40df72eb861d7799a83e7adfcef3eb8dc4924ab75c915182c074f6ae",
                        "prev": "0x0000000000000000000000000000000000000000000000000000000000000000"
                    }
                ],
                "storageVariables": [
                    {
                        "name": "balanceOf",
                        "type": "mapping(address => uint256)",
                        "value": {
                            "pairs": [
                                {
                                    "key": "0x933ce4ab8fa55a6288ef446ebe0a4f315e194f4c",
                                    "value": {
                                        "current": "9405189167552106482",
                                        "prev": "9479688741244412441",
                                        "typeTag": 1
                                    }
                                },
                                {
                                    "key": "0xdfe888db0f3419fcda362772d8be9e52aa061069",
                                    "value": {
                                        "current": "74499573692305959",
                                        "prev": "0",
                                        "typeTag": 1
                                    }
                                }
                            ],
                            "typeTag": 4
                        }
                    }
                ]
            }
        ]
    }
}