{
    "balance_change": {
        "balanceChanges": [
            {
                "account": "0xa7ad01c25857985d9eb4646c7fd72a49412de814",
                "assets": [
                    {
                        "address": "0xc02aaa39b223fe8d0a0e5c4f27ead9083c756cc2",
                        "amount": "0.34125",
                        "iconUrl": "https://assets.blocksec.com/icon/f1cb2d02c471d545bbc7722daf3277fd852d98e63d118771af7047bd8256c516.png",
                        "isERC1155": false,
                        "isERC721": false,
                        "sign": true,
                        "value": "521.6413515"
                    },
                    {
                        "address": "0xd07dc4262bcdbf85190c01c996b4c06a461d2430",
                        "amount": "1",
                        "iconUrl": "",
                        "isERC1155": true,
                        "isERC721": false,
                        "sign": false,
                        "tokenID": "183375",
                        "value": ""
                    }
                ]
            },
            {
                "account": "0x1cf0df2a5a20cd61d68d4489eebbf85b8d39e18a",
                "assets": [
                    {
                        "address": "0xc02aaa39b223fe8d0a0e5c4f27ead9083c756cc2",
                        "amount": "0.0175",
                        "iconUrl": "https://assets.blocksec.com/icon/f1cb2d02c471d545bbc7722daf3277fd852d98e63d118771af7047bd8256c516.png",
                        "isERC1155": false,
                        "isERC721": false,
                        "sign": true,
                        "value": "26.75083854"
                    }
                ]
            },
            {
                "account": "0x53982f043016d492833c30b15e83ecd2b13dc641",
                "assets": [
                    {
                        "address": "0xc02aaa39b223fe8d0a0e5c4f27ead9083c756cc2",
                        "amount": "0.35875",
                        "iconUrl": "https://assets.blocksec.com/icon/f1cb2d02c471d545bbc7722daf3277fd852d98e63d118771af7047bd8256c516.png",
                        "isERC1155": false,
                        "isERC721": false,
                        "sign": false,
                        "value": "548.3921901"
                    },
                    {
                        "address": "0xd07dc4262bcdbf85190c01c996b4c06a461d2430",
                        "amount": "1",
                        "iconUrl": "",
                        "isERC1155": true,
                        "isERC721": false,
                        "sign": true,
                        "tokenID": "183375",
                        "value": ""
                    }
                ]
            }
        ]
    },
    "profile": {
        "basic_info": {
            "baseFee": "",
            "blockNumber": 11982826,
            "callData": "0x9cec639200000000000000000000000053982f043016d492833c30b15e83ecd2b13dc641bbfef8b3e838792c5df56515e701445977bc196c9fbb72ecf69207aba0f8adb1000000000000000000000000c02aaa39b223fe8d0a0e5c4f27ead9083c756cc200000000000000000000000000000000000000000000000000000000000000000000000000000000000000000000000000000000000000000000000000000001000000000000000000000000d07dc4262bcdbf85190c01c996b4c06a461d2430000000000000000000000000000000000000000000000000000000000002cc4f000000000000000000000000000000000000000000000000000000000000000200000000000000000000000000000000000000000000000004db732547630000000000000000000000000000000000000000000000000000000000000000000100000000000000000000000000000000000000000000000000000000000000fa000000000000000000000000000000000000000000000000000000000000001c95ef6678e167b2815f12c03d5572b251e41fcc7f814afbcb9fbf65511790593b381ccc7914b392281df59c156bb8b77ed3952acbc80ac5e6227960fdecdecd4700000000000000000000000000000000000000000000000000000000000000fa000000000000000000000000000000000000000000000000000000000000001bd24299d3937c6f6020cd7bf6c365a75bb82475009a6bf217d56279e257f51fbb03de56ba420067f86362b861f6424bb0d0e732e40ba4e1b8d25defbcaa73d38200000000000000000000000000000000000000000000000004db7325476300000000000000000000000000000000000000000000000000000000000000000000",
            "debugEnable": true,
            "errorInfo": "",
            "eventCount": 5,
            "feeRecipient": "0x5a0b54d5dc17e0aadc383d2db43b0a0d3e029c4c",
            "formatValue": "0",
            "gasLimit": 269121,
            "gasPrice": "65.000001459",
            "gasUsed": 254121,
            "intTxnCount": 15,
            "internalRevert": false,
            "internalRevertMessage": "",
            "isContractCreation": false,
            "isFlashloan": false,
            "maxFee": "",
            "nonce": 45,
            "overwritedBlockNumber": -1,
            "priorityFee": "",
            "receiver": "0xcd4ec7b66fbc029c116ba9ffb3e59351c20b5b06",
            "revertMessage": "",
            "sender": "0xa7ad01c25857985d9eb4646c7fd72a49412de814",
            "simulationEnable": true,
            "sourceTxnHash": "0xa54d3381dfe92c75b046072e1e35598a13924e8c0e8e8648ac906a498dd362d9",
            "status": true,
            "timestamp": "2021-03-06T05:03:32Z",
            "transactionFee": "0.016517865370762539",
            "txnHash": "0xa54d3381dfe92c75b046072e1e35598a13924e8c0e8e8648ac906a498dd362d9",
            "txnIndex": 68,
            "type": 0,
            "value": "0"
        },
        "fund_flow": [
            {
                "amount": "0.0175",
                "from": "0x53982f043016d492833c30b15e83ecd2b13dc641",
                "id": 1,
                "isERC1155": false,
                "isERC721": false,
                "isReverted": false,
                "order": 1,
                "to": "0x1cf0df2a5a20cd61d68d4489eebbf85b8d39e18a",
                "token": "0xc02aaa39b223fe8d0a0e5c4f27ead9083c756cc2"
            },
            {
                "amount": "0.34125",
                "from": "0x53982f043016d492833c30b15e83ecd2b13dc641",
                "id": 2,
                "isERC1155": false,
                "isERC721": false,
                "isReverted": false,
                "order": 2,
                "to": "0xa7ad01c25857985d9eb4646c7fd72a49412de814",
                "token": "0xc02aaa39b223fe8d0a0e5c4f27ead9083c756cc2"
            },
            {
                "amount": "1",
                "from": "0xa7ad01c25857985d9eb4646c7fd72a49412de814",
                "id": 3,
                "isERC1155": true,
                "isERC721": false,
                "isReverted": false,
                "order": 3,
                "to": "0x53982f043016d492833c30b15e83ecd2b13dc641",
                "token": "0xd07dc4262bcdbf85190c01c996b4c06a461d2430",
                "tokenID": "183375"
            }
        ],
        "token_infos": [
            {
                "address": "0xc02aaa39b223fe8d0a0e5c4f27ead9083c756cc2",
                "decimals": 18
            },
            {
                "address": "0xeeeeeeeeeeeeeeeeeeeeeeeeeeeeeeeeeeeeeeee",
                "decimals": 18
            }
        ]
    },
    "address_label": {
        "labels": [
            {
                "address": "0xc02aaa39b223fe8d0a0e5c4f27ead9083c756cc2",
                "label": "Wrapped Ether (WETH)"
            },
            {
                "address": "0x4fee7b061c97c9c496b01dbce9cdb10c02f0a0be",
                "label": "Rarible:Transfer Proxy"
            },
            {
                "address": "0x1cf0df2a5a20cd61d68d4489eebbf85b8d39e18a",
                "label": "Rarible: Treasury"
            },
            {
                "address": "0xcd4ec7b66fbc029c116ba9ffb3e59351c20b5b06",
                "label": "Rarible: Exchange 1"
            },
            {
                "address": "0x0000000000000000000000000000000000000001",
                "label": "Precompiled"
            },
            {
                "address": "0xb8e4526e0da700e9ef1f879af713d691f81507d8",
                "label": "Rarible: ERC20 Transfer"
            },
            {
                "address": "0x0000000000000000000000000000000000000000",
                "label": "Null Address"
            },
            {
                "address": "0x0000000000000000000000000000000000000003",
                "label": "Precompiled"
            },
            {
                "address": "0x0000000000000000000000000000000000000004",
                "label": "Precompiled"
            },
            {
                "address": "0xeeeeeeeeeeeeeeeeeeeeeeeeeeeeeeeeeeeeeeee",
                "label": "Ether"
            },
            {
                "address": "0xd07dc4262bcdbf85190c01c996b4c06a461d2430",
                "label": "Rarible: RARI Token 3"
            },
            {
                "address": "0xed1f5f8724cc185d4e48a71a7fac64fa5216e4a8",
                "label": "ExchangeStateV1"
            },
            {
                "address": "0x0000000000000000000000000000000000000002",
                "label": "Precompiled"
            }
        ]
    },
    "trace": {
        "accountLabels": null,
        "dataMap": {
            "-1": {
                "invocation": {
                    "address": "0xa7ad01c25857985d9eb4646c7fd72a49412de814",
                    "callData": "",
                    "decodedMethod": null,
                    "errorInfo": "",
                    "fromAddress": "",
                    "gasUsed": 0,
                    "id": -1,
                    "methodDecoded": false,
                    "operation": "",
                    "output": "",
                    "revert": false,
                    "revertMessage": "",
                    "selector": "",
                    "status": false,
                    "value": ""
                },
                "nodeType": 0
            },
            "0": {
                "invocation": {
                    "address": "0xcd4ec7b66fbc029c116ba9ffb3e59351c20b5b06",
                    "callData": "0x00000000000000000000000053982f043016d492833c30b15e83ecd2b13dc641bbfef8b3e838792c5df56515e701445977bc196c9fbb72ecf69207aba0f8adb1000000000000000000000000c02aaa39b223fe8d0a0e5c4f27ead9083c756cc200000000000000000000000000000000000000000000000000000000000000000000000000000000000000000000000000000000000000000000000000000001000000000000000000000000d07dc4262bcdbf85190c01c996b4c06a461d2430000000000000000000000000000000000000000000000000000000000002cc4f000000000000000000000000000000000000000000000000000000000000000200000000000000000000000000000000000000000000000004db732547630000000000000000000000000000000000000000000000000000000000000000000100000000000000000000000000000000000000000000000000000000000000fa000000000000000000000000000000000000000000000000000000000000001c95ef6678e167b2815f12c03d5572b251e41fcc7f814afbcb9fbf65511790593b381ccc7914b392281df59c156bb8b77ed3952acbc80ac5e6227960fdecdecd4700000000000000000000000000000000000000000000000000000000000000fa000000000000000000000000000000000000000000000000000000000000001bd24299d3937c6f6020cd7bf6c365a75bb82475009a6bf217d56279e257f51fbb03de56ba420067f86362b861f6424bb0d0e732e40ba4e1b8d25defbcaa73d38200000000000000000000000000000000000000000000000004db7325476300000000000000000000000000000000000000000000000000000000000000000000",
                    "decodedMethod": {
                        "callParams": [
                            {
                                "name": "order",
                                "type": "((address,uint256,(address,uint256,uint8),(address,uint256,uint8)),uint256,uint256,uint256)",
                                "value": [
                                    {
                                        "name": "key",
                                        "type": "(address,uint256,(address,uint256,uint8),(address,uint256,uint8))",
                                        "value": [
                                            {
                                                "name": "owner",
                                                "type": "address",
                                                "value": "0x53982f043016d492833c30b15e83ecd2b13dc641"
                                            },
                                            {
                                                "name": "salt",
                                                "type": "uint256",
                                                "value": "85,032,998,322,904,665,174,217,036,002,322,313,827,935,720,781,336,370,071,023,249,005,910,437,703,089"
                                            },
                                            {
                                                "name": "sellAsset",
                                                "type": "(address,uint256,uint8)",
                                                "value": [
                                                    {
                                                        "name": "token",
                                                        "type": "address",
                                                        "value": "0xc02aaa39b223fe8d0a0e5c4f27ead9083c756cc2"
                                                    },
                                                    {
                                                        "name": "tokenId",
                                                        "type": "uint256",
                                                        "value": "0"
                                                    },
                                                    {
                                                        "name": "assetType",
                                                        "type": "uint8",
                                                        "value": "1"
                                                    }
                                                ]
                                            },
                                            {
                                                "name": "buyAsset",
                                                "type": "(address,uint256,uint8)",
                                                "value": [
                                                    {
                                                        "name": "token",
                                                        "type": "address",
                                                        "value": "0xd07dc4262bcdbf85190c01c996b4c06a461d2430"
                                                    },
                                                    {
                                                        "name": "tokenId",
                                                        "type": "uint256",
                                                        "value": "183,375"
                                                    },
                                                    {
                                                        "name": "assetType",
                                                        "type": "uint8",
                                                        "value": "2"
                                                    }
                                                ]
                                            }
                                        ]
                                    },
                                    {
                                        "name": "selling",
                                        "type": "uint256",
                                        "value": "350,000,000,000,000,000"
                                    },
                                    {
                                        "name": "buying",
                                        "type": "uint256",
                                        "value": "1"
                                    },
                                    {
                                        "name": "sellerFee",
                                        "type": "uint256",
                                        "value": "250"
                                    }
                                ]
                            },
                            {
                                "name": "sig",
                                "type": "(uint8,bytes32,bytes32)",
                                "value": [
                                    {
                                        "name": "v",
                                        "type": "uint8",
                                        "value": "28"
                                    },
                                    {
                                        "name": "r",
                                        "type": "bytes32",
                                        "value": "0x95ef6678e167b2815f12c03d5572b251e41fcc7f814afbcb9fbf65511790593b"
                                    },
                                    {
                                        "name": "s",
                                        "type": "bytes32",
                                        "value": "0x381ccc7914b392281df59c156bb8b77ed3952acbc80ac5e6227960fdecdecd47"
                                    }
                                ]
                            },
                            {
                                "name": "buyerFee",
                                "type": "uint256",
                                "value": "250"
                            },
                            {
                                "name": "buyerFeeSig",
                                "type": "(uint8,bytes32,bytes32)",
                                "value": [
                                    {
                                        "name": "v",
                                        "type": "uint8",
                                        "value": "27"
                                    },
                                    {
                                        "name": "r",
                                        "type": "bytes32",
                                        "value": "0xd24299d3937c6f6020cd7bf6c365a75bb82475009a6bf217d56279e257f51fbb"
                                    },
                                    {
                                        "name": "s",
                                        "type": "bytes32",
                                        "value": "0x03de56ba420067f86362b861f6424bb0d0e732e40ba4e1b8d25defbcaa73d382"
                                    }
                                ]
                            },
                            {
                                "name": "amount",
                                "type": "uint256",
                                "value": "350,000,000,000,000,000"
                            },
                            {
                                "name": "buyer",
                                "type": "address",
                                "value": "0x0000000000000000000000000000000000000000"
                            }
                        ],
                        "constructorArguments": "",
                        "name": "exchange",
                        "returnParams": [],
                        "signature": "exchange(((address,uint256,(address,uint256,uint8),(address,uint256,uint8)),uint256,uint256,uint256),(uint8,bytes32,bytes32),uint256,(uint8,bytes32,bytes32),uint256,address)"
                    },
                    "errorInfo": "",
                    "fromAddress": "0xa7ad01c25857985d9eb4646c7fd72a49412de814",
                    "gasUsed": 254121,
                    "id": 0,
                    "methodDecoded": true,
                    "operation": "CALL",
                    "output": "",
                    "revert": false,
                    "revertMessage": "",
                    "selector": "0x9cec6392",
                    "status": true,
                    "value": "0"
                },
                "nodeType": 0
            },
            "1": {
                "invocation": {
                    "address": "0x0000000000000000000000000000000000000001",
                    "callData": "0x717b62cf14b9bc705f3374110cfa61db98090401e639090767c38ea1000000000000000000000000000000000000000000000000000000000000001c95ef6678e167b2815f12c03d5572b251e41fcc7f814afbcb9fbf65511790593b381ccc7914b392281df59c156bb8b77ed3952acbc80ac5e6227960fdecdecd47",
                    "decodedMethod": {
                        "callParams": [
                            {
                                "name": "hash",
                                "type": "bytes32",
                                "value": "0x0e2a38b7717b62cf14b9bc705f3374110cfa61db98090401e639090767c38ea1"
                            },
                            {
                                "name": "v",
                                "type": "uint256",
                                "value": "28"
                            },
                            {
                                "name": "r",
                                "type": "bytes32",
                                "value": "0x95ef6678e167b2815f12c03d5572b251e41fcc7f814afbcb9fbf65511790593b"
                            },
                            {
                                "name": "s",
                                "type": "bytes32",
                                "value": "0x381ccc7914b392281df59c156bb8b77ed3952acbc80ac5e6227960fdecdecd47"
                            }
                        ],
                        "constructorArguments": "",
                        "name": "ecrecover",
                        "returnParams": [
                            {
                                "name": "",
                                "type": "address",
                                "value": "0x53982f043016d492833c30b15e83ecd2b13dc641"
                            }
                        ],
                        "signature": "ecrecover(bytes32,uint256,bytes32,bytes32)"
                    },
                    "errorInfo": "",
                    "fromAddress": "0xcd4ec7b66fbc029c116ba9ffb3e59351c20b5b06",
                    "gasUsed": 3000,
                    "id": 1,
                    "methodDecoded": true,
                    "operation": "STATICCALL",
                    "output": "0x00000000000000000000000053982f043016d492833c30b15e83ecd2b13dc641",
                    "revert": false,
                    "revertMessage": "",
                    "selector": "0x0e2a38b7",
                    "status": true,
                    "value": "0"
                },
                "nodeType": 0
            },
            "10": {
                "invocation": {
                    "address": "0xd07dc4262bcdbf85190c01c996b4c06a461d2430",
                    "callData": "0x000000000000000000000000000000000000000000000000000000000002cc4f",
                    "decodedMethod": {
                        "callParams": [
                            {
                                "name": "id",
                                "type": "uint256",
                                "value": "183,375"
                            }
                        ],
                        "constructorArguments": "",
                        "name": "getFeeBps",
                        "returnParams": [
                            {
                                "name": "",
                                "type": "uint256[]",
                                "value": [
                                    "2,000"
                                ]
                            }
                        ],
                        "signature": "getFeeBps(uint256)"
                    },
                    "errorInfo": "",
                    "fromAddress": "0xcd4ec7b66fbc029c116ba9ffb3e59351c20b5b06",
                    "gasUsed": 4124,
                    "id": 10,
                    "methodDecoded": true,
                    "operation": "STATICCALL",
                    "output": "0x0000000000000000000000000000000000000000000000000000000000000020000000000000000000000000000000000000000000000000000000000000000100000000000000000000000000000000000000000000000000000000000007d0",
                    "revert": false,
                    "revertMessage": "",
                    "selector": "0x0ebd4c7f",
                    "status": true,
                    "value": "0"
                },
                "nodeType": 0
            },
            "11": {
                "invocation": {
                    "address": "0xb8e4526e0da700e9ef1f879af713d691f81507d8",
                    "callData": "0x000000000000000000000000c02aaa39b223fe8d0a0e5c4f27ead9083c756cc200000000000000000000000053982f043016d492833c30b15e83ecd2b13dc641000000000000000000000000a7ad01c25857985d9eb4646c7fd72a49412de81400000000000000000000000000000000000000000000000000f8b0a10e470000",
                    "decodedMethod": {
                        "callParams": [
                            {
                                "name": "token",
                                "type": "address",
                                "value": "0xc02aaa39b223fe8d0a0e5c4f27ead9083c756cc2"
                            },
                            {
                                "name": "from",
                                "type": "address",
                                "value": "0x53982f043016d492833c30b15e83ecd2b13dc641"
                            },
                            {
                                "name": "to",
                                "type": "address",
                                "value": "0xa7ad01c25857985d9eb4646c7fd72a49412de814"
                            },
                            {
                                "name": "value",
                                "type": "uint256",
                                "value": "70,000,000,000,000,000"
                            }
                        ],
                        "constructorArguments": "",
                        "name": "erc20safeTransferFrom",
                        "returnParams": [],
                        "signature": "erc20safeTransferFrom(address,address,address,uint256)"
                    },
                    "errorInfo": "",
                    "fromAddress": "0xcd4ec7b66fbc029c116ba9ffb3e59351c20b5b06",
                    "gasUsed": 14900,
                    "id": 11,
                    "methodDecoded": true,
                    "operation": "CALL",
                    "output": "",
                    "revert": false,
                    "revertMessage": "",
                    "selector": "0x776062c3",
                    "status": true,
                    "value": "0"
                },
                "nodeType": 0
            },
            "12": {
                "invocation": {
                    "address": "0xc02aaa39b223fe8d0a0e5c4f27ead9083c756cc2",
                    "callData": "0x00000000000000000000000053982f043016d492833c30b15e83ecd2b13dc641000000000000000000000000a7ad01c25857985d9eb4646c7fd72a49412de81400000000000000000000000000000000000000000000000000f8b0a10e470000",
                    "decodedMethod": {
                        "callParams": [
                            {
                                "name": "src",
                                "type": "address",
                                "value": "0x53982f043016d492833c30b15e83ecd2b13dc641"
                            },
                            {
                                "name": "dst",
                                "type": "address",
                                "value": "0xa7ad01c25857985d9eb4646c7fd72a49412de814"
                            },
                            {
                                "decimalAvailable": true,
                                "name": "wad",
                                "type": "uint256",
                                "value": "70,000,000,000,000,000"
                            }
                        ],
                        "constructorArguments": "",
                        "name": "transferFrom",
                        "returnParams": [
                            {
                                "name": "",
                                "type": "bool",
                                "value": true
                            }
                        ],
                        "signature": "transferFrom(address,address,uint256)"
                    },
                    "errorInfo": "",
                    "fromAddress": "0xb8e4526e0da700e9ef1f879af713d691f81507d8",
                    "gasUsed": 11825,
                    "id": 12,
                    "methodDecoded": true,
                    "operation": "CALL",
                    "output": "0x0000000000000000000000000000000000000000000000000000000000000001",
                    "revert": false,
                    "revertMessage": "",
                    "selector": "0x23b872dd",
                    "status": true,
                    "value": "0"
                },
                "nodeType": 0
            },
            "13": {
                "event": {
                    "contract": "0xc02aaa39b223fe8d0a0e5c4f27ead9083c756cc2",
                    "decodedLog": {
                        "name": "Transfer",
                        "params": [
                            {
                                "name": "src",
                                "type": "address",
                                "value": "0x53982f043016d492833c30b15e83ecd2b13dc641"
                            },
                            {
                                "name": "dst",
                                "type": "address",
                                "value": "0xa7ad01c25857985d9eb4646c7fd72a49412de814"
                            },
                            {
                                "decimalAvailable": true,
                                "name": "wad",
                                "type": "uint256",
                                "value": "70,000,000,000,000,000"
                            }
                        ],
                        "signature": "Transfer(address,address,uint256)"
                    },
                    "id": 13,
                    "logData": "0x00000000000000000000000000000000000000000000000000f8b0a10e470000",
                    "logDecoded": true,
                    "operation": "EVENT",
                    "revert": false,
                    "status": true,
                    "topics": [
                        "0xddf252ad1be2c89b69c2b068fc378daa952ba7f163c4a11628f55a4df523b3ef",
                        "0x00000000000000000000000053982f043016d492833c30b15e83ecd2b13dc641",
                        "0x000000000000000000000000a7ad01c25857985d9eb4646c7fd72a49412de814"
                    ]
                },
                "nodeType": 1
            },
            "14": {
                "invocation": {
                    "address": "0xb8e4526e0da700e9ef1f879af713d691f81507d8",
                    "callData": "0x000000000000000000000000c02aaa39b223fe8d0a0e5c4f27ead9083c756cc200000000000000000000000053982f043016d492833c30b15e83ecd2b13dc641000000000000000000000000a7ad01c25857985d9eb4646c7fd72a49412de81400000000000000000000000000000000000000000000000003c3ac7017532000",
                    "decodedMethod": {
                        "callParams": [
                            {
                                "name": "token",
                                "type": "address",
                                "value": "0xc02aaa39b223fe8d0a0e5c4f27ead9083c756cc2"
                            },
                            {
                                "name": "from",
                                "type": "address",
                                "value": "0x53982f043016d492833c30b15e83ecd2b13dc641"
                            },
                            {
                                "name": "to",
                                "type": "address",
                                "value": "0xa7ad01c25857985d9eb4646c7fd72a49412de814"
                            },
                            {
                                "name": "value",
                                "type": "uint256",
                                "value": "271,250,000,000,000,000"
                            }
                        ],
                        "constructorArguments": "",
                        "name": "erc20safeTransferFrom",
                        "returnParams": [],
                        "signature": "erc20safeTransferFrom(address,address,address,uint256)"
                    },
                    "errorInfo": "",
                    "fromAddress": "0xcd4ec7b66fbc029c116ba9ffb3e59351c20b5b06",
                    "gasUsed": 10700,
                    "id": 14,
                    "methodDecoded": true,
                    "operation": "CALL",
                    "output": "",
                    "revert": false,
                    "revertMessage": "",
                    "selector": "0x776062c3",
                    "status": true,
                    "value": "0"
                },
                "nodeType": 0
            },
            "15": {
                "invocation": {
                    "address": "0xc02aaa39b223fe8d0a0e5c4f27ead9083c756cc2",
                    "callData": "0x00000000000000000000000053982f043016d492833c30b15e83ecd2b13dc641000000000000000000000000a7ad01c25857985d9eb4646c7fd72a49412de81400000000000000000000000000000000000000000000000003c3ac7017532000",
                    "decodedMethod": {
                        "callParams": [
                            {
                                "name": "src",
                                "type": "address",
                                "value": "0x53982f043016d492833c30b15e83ecd2b13dc641"
                            },
                            {
                                "name": "dst",
                                "type": "address",
                                "value": "0xa7ad01c25857985d9eb4646c7fd72a49412de814"
                            },
                            {
                                "decimalAvailable": true,
                                "name": "wad",
                                "type": "uint256",
                                "value": "271,250,000,000,000,000"
                            }
                        ],
                        "constructorArguments": "",
                        "name": "transferFrom",
                        "returnParams": [
                            {
                                "name": "",
                                "type": "bool",
                                "value": true
                            }
                        ],
                        "signature": "transferFrom(address,address,uint256)"
                    },
                    "errorInfo": "",
                    "fromAddress": "0xb8e4526e0da700e9ef1f879af713d691f81507d8",
                    "gasUsed": 7625,
                    "id": 15,
                    "methodDecoded": true,
                    "operation": "CALL",
                    "output": "0x0000000000000000000000000000000000000000000000000000000000000001",
                    "revert": false,
                    "revertMessage": "",
                    "selector": "0x23b872dd",
                    "status": true,
                    "value": "0"
                },
                "nodeType": 0
            },
            "16": {
                "event": {
                    "contract": "0xc02aaa39b223fe8d0a0e5c4f27ead9083c756cc2",
                    "decodedLog": {
                        "name": "Transfer",
                        "params": [
                            {
                                "name": "src",
                                "type": "address",
                                "value": "0x53982f043016d492833c30b15e83ecd2b13dc641"
                            },
                            {
                                "name": "dst",
                                "type": "address",
                                "value": "0xa7ad01c25857985d9eb4646c7fd72a49412de814"
                            },
                            {
                                "decimalAvailable": true,
                                "name": "wad",
                                "type": "uint256",
                                "value": "271,250,000,000,000,000"
                            }
                        ],
                        "signature": "Transfer(address,address,uint256)"
                    },
                    "id": 16,
                    "logData": "0x00000000000000000000000000000000000000000000000003c3ac7017532000",
                    "logDecoded": true,
                    "operation": "EVENT",
                    "revert": false,
                    "status": true,
                    "topics": [
                        "0xddf252ad1be2c89b69c2b068fc378daa952ba7f163c4a11628f55a4df523b3ef",
                        "0x00000000000000000000000053982f043016d492833c30b15e83ecd2b13dc641",
                        "0x000000000000000000000000a7ad01c25857985d9eb4646c7fd72a49412de814"
                    ]
                },
                "nodeType": 1
            },
            "17": {
                "invocation": {
                    "address": "0x4fee7b061c97c9c496b01dbce9cdb10c02f0a0be",
                    "callData": "0x000000000000000000000000d07dc4262bcdbf85190c01c996b4c06a461d2430000000000000000000000000a7ad01c25857985d9eb4646c7fd72a49412de81400000000000000000000000053982f043016d492833c30b15e83ecd2b13dc641000000000000000000000000000000000000000000000000000000000002cc4f000000000000000000000000000000000000000000000000000000000000000100000000000000000000000000000000000000000000000000000000000000c00000000000000000000000000000000000000000000000000000000000000000",
                    "decodedMethod": {
                        "callParams": [
                            {
                                "name": "token",
                                "type": "address",
                                "value": "0xd07dc4262bcdbf85190c01c996b4c06a461d2430"
                            },
                            {
                                "name": "from",
                                "type": "address",
                                "value": "0xa7ad01c25857985d9eb4646c7fd72a49412de814"
                            },
                            {
                                "name": "to",
                                "type": "address",
                                "value": "0x53982f043016d492833c30b15e83ecd2b13dc641"
                            },
                            {
                                "name": "id",
                                "type": "uint256",
                                "value": "183,375"
                            },
                            {
                                "name": "value",
                                "type": "uint256",
                                "value": "1"
                            },
                            {
                                "name": "data",
                                "type": "bytes",
                                "value": "0x"
                            }
                        ],
                        "constructorArguments": "",
                        "name": "erc1155safeTransferFrom",
                        "returnParams": [],
                        "signature": "erc1155safeTransferFrom(address,address,address,uint256,uint256,bytes)"
                    },
                    "errorInfo": "",
                    "fromAddress": "0xcd4ec7b66fbc029c116ba9ffb3e59351c20b5b06",
                    "gasUsed": 21530,
                    "id": 17,
                    "methodDecoded": true,
                    "operation": "CALL",
                    "output": "",
                    "revert": false,
                    "revertMessage": "",
                    "selector": "0x9c1c2ee9",
                    "status": true,
                    "value": "0"
                },
                "nodeType": 0
            },
            "18": {
                "invocation": {
                    "address": "0xd07dc4262bcdbf85190c01c996b4c06a461d2430",
                    "callData": "0x000000000000000000000000a7ad01c25857985d9eb4646c7fd72a49412de81400000000000000000000000053982f043016d492833c30b15e83ecd2b13dc641000000000000000000000000000000000000000000000000000000000002cc4f000000000000000000000000000000000000000000000000000000000000000100000000000000000000000000000000000000000000000000000000000000a00000000000000000000000000000000000000000000000000000000000000000",
                    "decodedMethod": {
                        "callParams": [
                            {
                                "name": "_from",
                                "type": "address",
                                "value": "0xa7ad01c25857985d9eb4646c7fd72a49412de814"
                            },
                            {
                                "name": "_to",
                                "type": "address",
                                "value": "0x53982f043016d492833c30b15e83ecd2b13dc641"
                            },
                            {
                                "name": "_id",
                                "type": "uint256",
                                "value": "183,375"
                            },
                            {
                                "name": "_value",
                                "type": "uint256",
                                "value": "1"
                            },
                            {
                                "name": "_data",
                                "type": "bytes",
                                "value": "0x"
                            }
                        ],
                        "constructorArguments": "",
                        "name": "safeTransferFrom",
                        "returnParams": [],
                        "signature": "safeTransferFrom(address,address,uint256,uint256,bytes)"
                    },
                    "errorInfo": "",
                    "fromAddress": "0x4fee7b061c97c9c496b01dbce9cdb10c02f0a0be",
                    "gasUsed": 18106,
                    "id": 18,
                    "methodDecoded": true,
                    "operation": "CALL",
                    "output": "",
                    "revert": false,
                    "revertMessage": "",
                    "selector": "0xf242432a",
                    "status": true,
                    "value": "0"
                },
                "nodeType": 0
            },
            "19": {
                "event": {
                    "contract": "0xd07dc4262bcdbf85190c01c996b4c06a461d2430",
                    "decodedLog": {
                        "name": "TransferSingle",
                        "params": [
                            {
                                "name": "_operator",
                                "type": "address",
                                "value": "0x4fee7b061c97c9c496b01dbce9cdb10c02f0a0be"
                            },
                            {
                                "name": "_from",
                                "type": "address",
                                "value": "0xa7ad01c25857985d9eb4646c7fd72a49412de814"
                            },
                            {
                                "name": "_to",
                                "type": "address",
                                "value": "0x53982f043016d492833c30b15e83ecd2b13dc641"
                            },
                            {
                                "name": "_id",
                                "type": "uint256",
                                "value": "183,375"
                            },
                            {
                                "name": "_value",
                                "type": "uint256",
                                "value": "1"
                            }
                        ],
                        "signature": "TransferSingle(address,address,address,uint256,uint256)"
                    },
                    "id": 19,
                    "logData": "0x000000000000000000000000000000000000000000000000000000000002cc4f0000000000000000000000000000000000000000000000000000000000000001",
                    "logDecoded": true,
                    "operation": "EVENT",
                    "revert": false,
                    "status": true,
                    "topics": [
                        "0xc3d58168c5ae7397731d063d5bbf3d657854427343f4c083240f7aacaa2d0f62",
                        "0x0000000000000000000000004fee7b061c97c9c496b01dbce9cdb10c02f0a0be",
                        "0x000000000000000000000000a7ad01c25857985d9eb4646c7fd72a49412de814",
                        "0x00000000000000000000000053982f043016d492833c30b15e83ecd2b13dc641"
                    ]
                },
                "nodeType": 1
            },
            "2": {
                "invocation": {
                    "address": "0x0000000000000000000000000000000000000001",
                    "callData": "0xc84a4aa12e5ed6e05d4225e32040897c16f8423dca2f1b66e693e36d000000000000000000000000000000000000000000000000000000000000001bd24299d3937c6f6020cd7bf6c365a75bb82475009a6bf217d56279e257f51fbb03de56ba420067f86362b861f6424bb0d0e732e40ba4e1b8d25defbcaa73d382",
                    "decodedMethod": {
                        "callParams": [
                            {
                                "name": "hash",
                                "type": "bytes32",
                                "value": "0x8383982ac84a4aa12e5ed6e05d4225e32040897c16f8423dca2f1b66e693e36d"
                            },
                            {
                                "name": "v",
                                "type": "uint256",
                                "value": "27"
                            },
                            {
                                "name": "r",
                                "type": "bytes32",
                                "value": "0xd24299d3937c6f6020cd7bf6c365a75bb82475009a6bf217d56279e257f51fbb"
                            },
                            {
                                "name": "s",
                                "type": "bytes32",
                                "value": "0x03de56ba420067f86362b861f6424bb0d0e732e40ba4e1b8d25defbcaa73d382"
                            }
                        ],
                        "constructorArguments": "",
                        "name": "ecrecover",
                        "returnParams": [
                            {
                                "name": "",
                                "type": "address",
                                "value": "0xf03ba06dd459ae597357b491219fcb573f5fe683"
                            }
                        ],
                        "signature": "ecrecover(bytes32,uint256,bytes32,bytes32)"
                    },
                    "errorInfo": "",
                    "fromAddress": "0xcd4ec7b66fbc029c116ba9ffb3e59351c20b5b06",
                    "gasUsed": 3000,
                    "id": 2,
                    "methodDecoded": true,
                    "operation": "STATICCALL",
                    "output": "0x000000000000000000000000f03ba06dd459ae597357b491219fcb573f5fe683",
                    "revert": false,
                    "revertMessage": "",
                    "selector": "0x8383982a",
                    "status": true,
                    "value": "0"
                },
                "nodeType": 0
            },
            "20": {
                "event": {
                    "contract": "0xcd4ec7b66fbc029c116ba9ffb3e59351c20b5b06",
                    "decodedLog": {
                        "name": "Buy",
                        "params": [
                            {
                                "name": "sellToken",
                                "type": "address",
                                "value": "0xc02aaa39b223fe8d0a0e5c4f27ead9083c756cc2"
                            },
                            {
                                "name": "sellTokenId",
                                "type": "uint256",
                                "value": "0"
                            },
                            {
                                "name": "sellValue",
                                "type": "uint256",
                                "value": "350,000,000,000,000,000"
                            },
                            {
                                "name": "owner",
                                "type": "address",
                                "value": "0x53982f043016d492833c30b15e83ecd2b13dc641"
                            },
                            {
                                "name": "buyToken",
                                "type": "address",
                                "value": "0xd07dc4262bcdbf85190c01c996b4c06a461d2430"
                            },
                            {
                                "name": "buyTokenId",
                                "type": "uint256",
                                "value": "183,375"
                            },
                            {
                                "name": "buyValue",
                                "type": "uint256",
                                "value": "1"
                            },
                            {
                                "name": "buyer",
                                "type": "address",
                                "value": "0xa7ad01c25857985d9eb4646c7fd72a49412de814"
                            },
                            {
                                "name": "amount",
                                "type": "uint256",
                                "value": "350,000,000,000,000,000"
                            },
                            {
                                "name": "salt",
                                "type": "uint256",
                                "value": "85,032,998,322,904,665,174,217,036,002,322,313,827,935,720,781,336,370,071,023,249,005,910,437,703,089"
                            }
                        ],
                        "signature": "Buy(address,uint256,uint256,address,address,uint256,uint256,address,uint256,uint256)"
                    },
                    "id": 20,
                    "logData": "0x00000000000000000000000000000000000000000000000004db73254763000000000000000000000000000053982f043016d492833c30b15e83ecd2b13dc641000000000000000000000000d07dc4262bcdbf85190c01c996b4c06a461d2430000000000000000000000000000000000000000000000000000000000002cc4f0000000000000000000000000000000000000000000000000000000000000001000000000000000000000000a7ad01c25857985d9eb4646c7fd72a49412de81400000000000000000000000000000000000000000000000004db732547630000bbfef8b3e838792c5df56515e701445977bc196c9fbb72ecf69207aba0f8adb1",
                    "logDecoded": true,
                    "operation": "EVENT",
                    "revert": false,
                    "status": true,
                    "topics": [
                        "0xdddcdb07e460849cf04a4445b7af9faf01b7f5c7ba75deaf969ac5ed830312c3",
                        "0x000000000000000000000000c02aaa39b223fe8d0a0e5c4f27ead9083c756cc2",
                        "0x0000000000000000000000000000000000000000000000000000000000000000"
                    ]
                },
                "nodeType": 1
            },
            "3": {
                "invocation": {
                    "address": "0xed1f5f8724cc185d4e48a71a7fac64fa5216e4a8",
                    "callData": "0x00000000000000000000000053982f043016d492833c30b15e83ecd2b13dc641bbfef8b3e838792c5df56515e701445977bc196c9fbb72ecf69207aba0f8adb1000000000000000000000000c02aaa39b223fe8d0a0e5c4f27ead9083c756cc200000000000000000000000000000000000000000000000000000000000000000000000000000000000000000000000000000000000000000000000000000001000000000000000000000000d07dc4262bcdbf85190c01c996b4c06a461d2430000000000000000000000000000000000000000000000000000000000002cc4f0000000000000000000000000000000000000000000000000000000000000002",
                    "decodedMethod": {
                        "callParams": [
                            {
                                "name": "key",
                                "type": "(address,uint256,(address,uint256,uint8),(address,uint256,uint8))",
                                "value": [
                                    {
                                        "name": "owner",
                                        "type": "address",
                                        "value": "0x53982f043016d492833c30b15e83ecd2b13dc641"
                                    },
                                    {
                                        "name": "salt",
                                        "type": "uint256",
                                        "value": "85,032,998,322,904,665,174,217,036,002,322,313,827,935,720,781,336,370,071,023,249,005,910,437,703,089"
                                    },
                                    {
                                        "name": "sellAsset",
                                        "type": "(address,uint256,uint8)",
                                        "value": [
                                            {
                                                "name": "token",
                                                "type": "address",
                                                "value": "0xc02aaa39b223fe8d0a0e5c4f27ead9083c756cc2"
                                            },
                                            {
                                                "name": "tokenId",
                                                "type": "uint256",
                                                "value": "0"
                                            },
                                            {
                                                "name": "assetType",
                                                "type": "uint8",
                                                "value": "1"
                                            }
                                        ]
                                    },
                                    {
                                        "name": "buyAsset",
                                        "type": "(address,uint256,uint8)",
                                        "value": [
                                            {
                                                "name": "token",
                                                "type": "address",
                                                "value": "0xd07dc4262bcdbf85190c01c996b4c06a461d2430"
                                            },
                                            {
                                                "name": "tokenId",
                                                "type": "uint256",
                                                "value": "183,375"
                                            },
                                            {
                                                "name": "assetType",
                                                "type": "uint8",
                                                "value": "2"
                                            }
                                        ]
                                    }
                                ]
                            }
                        ],
                        "constructorArguments": "",
                        "name": "getCompleted",
                        "returnParams": [
                            {
                                "name": "",
                                "type": "uint256",
                                "value": "0"
                            }
                        ],
                        "signature": "getCompleted((address,uint256,(address,uint256,uint8),(address,uint256,uint8)))"
                    },
                    "errorInfo": "",
                    "fromAddress": "0xcd4ec7b66fbc029c116ba9ffb3e59351c20b5b06",
                    "gasUsed": 4760,
                    "id": 3,
                    "methodDecoded": true,
                    "operation": "STATICCALL",
                    "output": "0x0000000000000000000000000000000000000000000000000000000000000000",
                    "revert": false,
                    "revertMessage": "",
                    "selector": "0xfb0000c0",
                    "status": true,
                    "value": "0"
                },
                "nodeType": 0
            },
            "4": {
                "invocation": {
                    "address": "0xed1f5f8724cc185d4e48a71a7fac64fa5216e4a8",
                    "callData": "0x00000000000000000000000053982f043016d492833c30b15e83ecd2b13dc641bbfef8b3e838792c5df56515e701445977bc196c9fbb72ecf69207aba0f8adb1000000000000000000000000c02aaa39b223fe8d0a0e5c4f27ead9083c756cc200000000000000000000000000000000000000000000000000000000000000000000000000000000000000000000000000000000000000000000000000000001000000000000000000000000d07dc4262bcdbf85190c01c996b4c06a461d2430000000000000000000000000000000000000000000000000000000000002cc4f000000000000000000000000000000000000000000000000000000000000000200000000000000000000000000000000000000000000000004db732547630000",
                    "decodedMethod": {
                        "callParams": [
                            {
                                "name": "key",
                                "type": "(address,uint256,(address,uint256,uint8),(address,uint256,uint8))",
                                "value": [
                                    {
                                        "name": "owner",
                                        "type": "address",
                                        "value": "0x53982f043016d492833c30b15e83ecd2b13dc641"
                                    },
                                    {
                                        "name": "salt",
                                        "type": "uint256",
                                        "value": "85,032,998,322,904,665,174,217,036,002,322,313,827,935,720,781,336,370,071,023,249,005,910,437,703,089"
                                    },
                                    {
                                        "name": "sellAsset",
                                        "type": "(address,uint256,uint8)",
                                        "value": [
                                            {
                                                "name": "token",
                                                "type": "address",
                                                "value": "0xc02aaa39b223fe8d0a0e5c4f27ead9083c756cc2"
                                            },
                                            {
                                                "name": "tokenId",
                                                "type": "uint256",
                                                "value": "0"
                                            },
                                            {
                                                "name": "assetType",
                                                "type": "uint8",
                                                "value": "1"
                                            }
                                        ]
                                    },
                                    {
                                        "name": "buyAsset",
                                        "type": "(address,uint256,uint8)",
                                        "value": [
                                            {
                                                "name": "token",
                                                "type": "address",
                                                "value": "0xd07dc4262bcdbf85190c01c996b4c06a461d2430"
                                            },
                                            {
                                                "name": "tokenId",
                                                "type": "uint256",
                                                "value": "183,375"
                                            },
                                            {
                                                "name": "assetType",
                                                "type": "uint8",
                                                "value": "2"
                                            }
                                        ]
                                    }
                                ]
                            },
                            {
                                "name": "newCompleted",
                                "type": "uint256",
                                "value": "350,000,000,000,000,000"
                            }
                        ],
                        "constructorArguments": "",
                        "name": "setCompleted",
                        "returnParams": [],
                        "signature": "setCompleted((address,uint256,(address,uint256,uint8),(address,uint256,uint8)),uint256)"
                    },
                    "errorInfo": "",
                    "fromAddress": "0xcd4ec7b66fbc029c116ba9ffb3e59351c20b5b06",
                    "gasUsed": 24910,
                    "id": 4,
                    "methodDecoded": true,
                    "operation": "CALL",
                    "output": "",
                    "revert": false,
                    "revertMessage": "",
                    "selector": "0x3a076e9a",
                    "status": true,
                    "value": "0"
                },
                "nodeType": 0
            },
            "5": {
                "invocation": {
                    "address": "0xb8e4526e0da700e9ef1f879af713d691f81507d8",
                    "callData": "0x000000000000000000000000c02aaa39b223fe8d0a0e5c4f27ead9083c756cc200000000000000000000000053982f043016d492833c30b15e83ecd2b13dc6410000000000000000000000001cf0df2a5a20cd61d68d4489eebbf85b8d39e18a000000000000000000000000000000000000000000000000003e2c284391c000",
                    "decodedMethod": {
                        "callParams": [
                            {
                                "name": "token",
                                "type": "address",
                                "value": "0xc02aaa39b223fe8d0a0e5c4f27ead9083c756cc2"
                            },
                            {
                                "name": "from",
                                "type": "address",
                                "value": "0x53982f043016d492833c30b15e83ecd2b13dc641"
                            },
                            {
                                "name": "to",
                                "type": "address",
                                "value": "0x1cf0df2a5a20cd61d68d4489eebbf85b8d39e18a"
                            },
                            {
                                "name": "value",
                                "type": "uint256",
                                "value": "17,500,000,000,000,000"
                            }
                        ],
                        "constructorArguments": "",
                        "name": "erc20safeTransferFrom",
                        "returnParams": [],
                        "signature": "erc20safeTransferFrom(address,address,address,uint256)"
                    },
                    "errorInfo": "",
                    "fromAddress": "0xcd4ec7b66fbc029c116ba9ffb3e59351c20b5b06",
                    "gasUsed": 19100,
                    "id": 5,
                    "methodDecoded": true,
                    "operation": "CALL",
                    "output": "",
                    "revert": false,
                    "revertMessage": "",
                    "selector": "0x776062c3",
                    "status": true,
                    "value": "0"
                },
                "nodeType": 0
            },
            "6": {
                "invocation": {
                    "address": "0xc02aaa39b223fe8d0a0e5c4f27ead9083c756cc2",
                    "callData": "0x00000000000000000000000053982f043016d492833c30b15e83ecd2b13dc6410000000000000000000000001cf0df2a5a20cd61d68d4489eebbf85b8d39e18a000000000000000000000000000000000000000000000000003e2c284391c000",
                    "decodedMethod": {
                        "callParams": [
                            {
                                "name": "src",
                                "type": "address",
                                "value": "0x53982f043016d492833c30b15e83ecd2b13dc641"
                            },
                            {
                                "name": "dst",
                                "type": "address",
                                "value": "0x1cf0df2a5a20cd61d68d4489eebbf85b8d39e18a"
                            },
                            {
                                "decimalAvailable": true,
                                "name": "wad",
                                "type": "uint256",
                                "value": "17,500,000,000,000,000"
                            }
                        ],
                        "constructorArguments": "",
                        "name": "transferFrom",
                        "returnParams": [
                            {
                                "name": "",
                                "type": "bool",
                                "value": true
                            }
                        ],
                        "signature": "transferFrom(address,address,uint256)"
                    },
                    "errorInfo": "",
                    "fromAddress": "0xb8e4526e0da700e9ef1f879af713d691f81507d8",
                    "gasUsed": 16025,
                    "id": 6,
                    "methodDecoded": true,
                    "operation": "CALL",
                    "output": "0x0000000000000000000000000000000000000000000000000000000000000001",
                    "revert": false,
                    "revertMessage": "",
                    "selector": "0x23b872dd",
                    "status": true,
                    "value": "0"
                },
                "nodeType": 0
            },
            "7": {
                "event": {
                    "contract": "0xc02aaa39b223fe8d0a0e5c4f27ead9083c756cc2",
                    "decodedLog": {
                        "name": "Transfer",
                        "params": [
                            {
                                "name": "src",
                                "type": "address",
                                "value": "0x53982f043016d492833c30b15e83ecd2b13dc641"
                            },
                            {
                                "name": "dst",
                                "type": "address",
                                "value": "0x1cf0df2a5a20cd61d68d4489eebbf85b8d39e18a"
                            },
                            {
                                "decimalAvailable": true,
                                "name": "wad",
                                "type": "uint256",
                                "value": "17,500,000,000,000,000"
                            }
                        ],
                        "signature": "Transfer(address,address,uint256)"
                    },
                    "id": 7,
                    "logData": "0x000000000000000000000000000000000000000000000000003e2c284391c000",
                    "logDecoded": true,
                    "operation": "EVENT",
                    "revert": false,
                    "status": true,
                    "topics": [
                        "0xddf252ad1be2c89b69c2b068fc378daa952ba7f163c4a11628f55a4df523b3ef",
                        "0x00000000000000000000000053982f043016d492833c30b15e83ecd2b13dc641",
                        "0x0000000000000000000000001cf0df2a5a20cd61d68d4489eebbf85b8d39e18a"
                    ]
                },
                "nodeType": 1
            },
            "8": {
                "invocation": {
                    "address": "0xd07dc4262bcdbf85190c01c996b4c06a461d2430",
                    "callData": "0xb779958400000000000000000000000000000000000000000000000000000000",
                    "decodedMethod": {
                        "callParams": [
                            {
                                "name": "interfaceId",
                                "type": "bytes4",
                                "value": "0xb7799584"
                            }
                        ],
                        "constructorArguments": "",
                        "name": "supportsInterface",
                        "returnParams": [
                            {
                                "name": "",
                                "type": "bool",
                                "value": true
                            }
                        ],
                        "signature": "supportsInterface(bytes4)"
                    },
                    "errorInfo": "",
                    "fromAddress": "0xcd4ec7b66fbc029c116ba9ffb3e59351c20b5b06",
                    "gasUsed": 1497,
                    "id": 8,
                    "methodDecoded": true,
                    "operation": "STATICCALL",
                    "output": "0x0000000000000000000000000000000000000000000000000000000000000001",
                    "revert": false,
                    "revertMessage": "",
                    "selector": "0x01ffc9a7",
                    "status": true,
                    "value": "0"
                },
                "nodeType": 0
            },
            "9": {
                "invocation": {
                    "address": "0xd07dc4262bcdbf85190c01c996b4c06a461d2430",
                    "callData": "0x000000000000000000000000000000000000000000000000000000000002cc4f",
                    "decodedMethod": {
                        "callParams": [
                            {
                                "name": "id",
                                "type": "uint256",
                                "value": "183,375"
                            }
                        ],
                        "constructorArguments": "",
                        "name": "getFeeRecipients",
                        "returnParams": [
                            {
                                "name": "",
                                "type": "address[]",
                                "value": [
                                    "0xa7ad01c25857985d9eb4646c7fd72a49412de814"
                                ]
                            }
                        ],
                        "signature": "getFeeRecipients(uint256)"
                    },
                    "errorInfo": "",
                    "fromAddress": "0xcd4ec7b66fbc029c116ba9ffb3e59351c20b5b06",
                    "gasUsed": 4167,
                    "id": 9,
                    "methodDecoded": true,
                    "operation": "STATICCALL",
                    "output": "0x00000000000000000000000000000000000000000000000000000000000000200000000000000000000000000000000000000000000000000000000000000001000000000000000000000000a7ad01c25857985d9eb4646c7fd72a49412de814",
                    "revert": false,
                    "revertMessage": "",
                    "selector": "0xb9c4d9fb",
                    "status": true,
                    "value": "0"
                },
                "nodeType": 0
            }
        },
        "gasFlame": [
            {
                "children": [
                    {
                        "children": [
                            {
                                "children": [],
                                "depth": 0,
                                "name": "Initial Gas",
                                "value": 26504
                            },
                            {
                                "children": [
                                    {
                                        "children": [],
                                        "depth": 1,
                                        "name": "ecrecover",
                                        "value": 3000
                                    },
                                    {
                                        "children": [],
                                        "depth": 1,
                                        "name": "ecrecover",
                                        "value": 3000
                                    },
                                    {
                                        "children": [],
                                        "depth": 1,
                                        "name": "getCompleted",
                                        "value": 4760
                                    },
                                    {
                                        "children": [],
                                        "depth": 1,
                                        "name": "setCompleted",
                                        "value": 24910
                                    },
                                    {
                                        "children": [
                                            {
                                                "children": [],
                                                "depth": 2,
                                                "name": "transferFrom",
                                                "value": 16025
                                            }
                                        ],
                                        "depth": 1,
                                        "name": "erc20safeTransferFrom",
                                        "value": 19100
                                    },
                                    {
                                        "children": [],
                                        "depth": 1,
                                        "name": "supportsInterface",
                                        "value": 1497
                                    },
                                    {
                                        "children": [],
                                        "depth": 1,
                                        "name": "getFeeRecipients",
                                        "value": 4167
                                    },
                                    {
                                        "children": [],
                                        "depth": 1,
                                        "name": "getFeeBps",
                                        "value": 4124
                                    },
                                    {
                                        "children": [
                                            {
                                                "children": [],
                                                "depth": 2,
                                                "name": "transferFrom",
                                                "value": 11825
                                            }
                                        ],
                                        "depth": 1,
                                        "name": "erc20safeTransferFrom",
                                        "value": 14900
                                    },
                                    {
                                        "children": [
                                            {
                                                "children": [],
                                                "depth": 2,
                                                "name": "transferFrom",
                                                "value": 7625
                                            }
                                        ],
                                        "depth": 1,
                                        "name": "erc20safeTransferFrom",
                                        "value": 10700
                                    },
                                    {
                                        "children": [
                                            {
                                                "children": [],
                                                "depth": 2,
                                                "name": "safeTransferFrom",
                                                "value": 18106
                                            }
                                        ],
                                        "depth": 1,
                                        "name": "erc1155safeTransferFrom",
                                        "value": 21530
                                    }
                                ],
                                "depth": 0,
                                "name": "Executed Gas",
                                "value": 242617
                            }
                        ],
                        "depth": -1,
                        "name": "Actual Gas Used",
                        "value": 254121
                    },
                    {
                        "children": [],
                        "depth": -1,
                        "name": "Refunded Gas",
                        "value": 15000
                    }
                ],
                "depth": -2,
                "name": "Total Gas",
                "value": 269121
            }
        ],
        "isConfirmed": true,
        "mainTrace": [
            {
                "children": [
                    {
                        "children": [
                            {
                                "children": [],
                                "depth": 1,
                                "id": 1,
                                "order": 1
                            },
                            {
                                "children": [],
                                "depth": 1,
                                "id": 2,
                                "order": 2
                            },
                            {
                                "children": [],
                                "depth": 1,
                                "id": 3,
                                "order": 3
                            },
                            {
                                "children": [],
                                "depth": 1,
                                "id": 4,
                                "order": 4
                            },
                            {
                                "children": [
                                    {
                                        "children": [
                                            {
                                                "children": [],
                                                "depth": 3,
                                                "id": 7,
                                                "order": 7
                                            }
                                        ],
                                        "depth": 2,
                                        "id": 6,
                                        "order": 6
                                    }
                                ],
                                "depth": 1,
                                "id": 5,
                                "order": 5
                            },
                            {
                                "children": [],
                                "depth": 1,
                                "id": 8,
                                "order": 8
                            },
                            {
                                "children": [],
                                "depth": 1,
                                "id": 9,
                                "order": 9
                            },
                            {
                                "children": [],
                                "depth": 1,
                                "id": 10,
                                "order": 10
                            },
                            {
                                "children": [
                                    {
                                        "children": [
                                            {
                                                "children": [],
                                                "depth": 3,
                                                "id": 13,
                                                "order": 13
                                            }
                                        ],
                                        "depth": 2,
                                        "id": 12,
                                        "order": 12
                                    }
                                ],
                                "depth": 1,
                                "id": 11,
                                "order": 11
                            },
                            {
                                "children": [
                                    {
                                        "children": [
                                            {
                                                "children": [],
                                                "depth": 3,
                                                "id": 16,
                                                "order": 16
                                            }
                                        ],
                                        "depth": 2,
                                        "id": 15,
                                        "order": 15
                                    }
                                ],
                                "depth": 1,
                                "id": 14,
                                "order": 14
                            },
                            {
                                "children": [
                                    {
                                        "children": [
                                            {
                                                "children": [],
                                                "depth": 3,
                                                "id": 19,
                                                "order": 19
                                            }
                                        ],
                                        "depth": 2,
                                        "id": 18,
                                        "order": 18
                                    }
                                ],
                                "depth": 1,
                                "id": 17,
                                "order": 17
                            },
                            {
                                "children": [],
                                "depth": 1,
                                "id": 20,
                                "order": 20
                            }
                        ],
                        "depth": 0,
                        "id": 0,
                        "order": 0
                    }
                ],
                "depth": -1,
                "id": -1,
                "order": -1
            }
        ],
        "mainTraceNodeCount": 21,
        "parentIdMap": {
            "0": -1,
            "1": 0,
            "10": 0,
            "11": 0,
            "12": 11,
            "13": 12,
            "14": 0,
            "15": 14,
            "16": 15,
            "17": 0,
            "18": 17,
            "19": 18,
            "2": 0,
            "20": 0,
            "3": 0,
            "4": 0,
            "5": 0,
            "6": 5,
            "7": 6,
            "8": 0,
            "9": 0
        },
        "tidyTrace": [
            {
                "children": [
                    {
                        "children": [
                            {
                                "children": [],
                                "depth": 1,
                                "id": 4,
                                "order": 4
                            },
                            {
                                "children": [
                                    {
                                        "children": [
                                            {
                                                "children": [],
                                                "depth": 3,
                                                "id": 7,
                                                "order": 7
                                            }
                                        ],
                                        "depth": 2,
                                        "id": 6,
                                        "order": 6
                                    }
                                ],
                                "depth": 1,
                                "id": 5,
                                "order": 5
                            },
                            {
                                "children": [
                                    {
                                        "children": [
                                            {
                                                "children": [],
                                                "depth": 3,
                                                "id": 13,
                                                "order": 13
                                            }
                                        ],
                                        "depth": 2,
                                        "id": 12,
                                        "order": 12
                                    }
                                ],
                                "depth": 1,
                                "id": 11,
                                "order": 11
                            },
                            {
                                "children": [
                                    {
                                        "children": [
                                            {
                                                "children": [],
                                                "depth": 3,
                                                "id": 16,
                                                "order": 16
                                            }
                                        ],
                                        "depth": 2,
                                        "id": 15,
                                        "order": 15
                                    }
                                ],
                                "depth": 1,
                                "id": 14,
                                "order": 14
                            },
                            {
                                "children": [
                                    {
                                        "children": [
                                            {
                                                "children": [],
                                                "depth": 3,
                                                "id": 19,
                                                "order": 19
                                            }
                                        ],
                                        "depth": 2,
                                        "id": 18,
                                        "order": 18
                                    }
                                ],
                                "depth": 1,
                                "id": 17,
                                "order": 17
                            },
                            {
                                "children": [],
                                "depth": 1,
                                "id": 20,
                                "order": 20
                            }
                        ],
                        "depth": 0,
                        "id": 0,
                        "order": 0
                    }
                ],
                "depth": -1,
                "id": -1,
                "order": -1
            }
        ],
        "tidyTraceNodeCount": 15
    },
    "state_change": {
        "stateChanges": [
            {
                "address": "0xc02aaa39b223fe8d0a0e5c4f27ead9083c756cc2",
                "erc": "ERC-20",
                "slots": [
                    {
                        "current": "0x0000000000000000000000000000000000000000000000000000000000000000",
                        "key": "0xa00f7e8e0f9d7a1cb0666afcd855e74924004d339cbe0c9816d912be38f1997a",
                        "prev": "0x00000000000000000000000000000000000000000000000004fa8939692be000"
                    },
                    {
                        "current": "0x000000000000000000000000000000000000000000000005d820fac94a642d94",
                        "key": "0x05dfe570a5749847de589eee5375415123a8ed6838ff53fd386606b426abbcdd",
                        "prev": "0x000000000000000000000000000000000000000000000005d7e2cea106d26d94"
                    },
                    {
                        "current": "0x00000000000000000000000000000000000000000000000022e8d9ec1c7ec000",
                        "key": "0xeeda271162f54b66bfb1d6cfcd02759baeee33a4852b4b0d101851178645ec92",
                        "prev": "0x0000000000000000000000000000000000000000000000001e2c7cdaf6e4a000"
                    }
                ],
                "storageVariables": [
                    {
                        "name": "balanceOf",
                        "type": "mapping(address => uint256)",
                        "value": {
                            "pairs": [
                                {
                                    "key": "0x1cf0df2a5a20cd61d68d4489eebbf85b8d39e18a",
                                    "value": {
                                        "current": "107807443622438382996",
                                        "prev": "107789943622438382996",
                                        "typeTag": 1
                                    }
                                },
                                {
                                    "key": "0x53982f043016d492833c30b15e83ecd2b13dc641",
                                    "value": {
                                        "current": "0",
                                        "prev": "358750000000000000",
                                        "typeTag": 1
                                    }
                                },
                                {
                                    "key": "0xa7ad01c25857985d9eb4646c7fd72a49412de814",
                                    "value": {
                                        "current": "2515500000000000000",
                                        "prev": "2174250000000000000",
                                        "typeTag": 1
                                    }
                                }
                            ],
                            "typeTag": 4
                        }
                    }
                ]
            },
            {
                "address": "0xd07dc4262bcdbf85190c01c996b4c06a461d2430",
                "erc": "ERC-1155",
                "slots": [
                    {
                        "current": "0x00000000000000000000000000000000000000000000000000000000000000b1",
                        "key": "0x9bee67b040bc39a6e302674bbc8ae2d910f77b6fe5a34e7e814039de7ca6d583",
                        "prev": "0x00000000000000000000000000000000000000000000000000000000000000b2"
                    },
                    {
                        "current": "0x0000000000000000000000000000000000000000000000000000000000000002",
                        "key": "0x510e815a4f7bfbb3086e048b1d189416785a230caafa27a012e37e089b16197b",
                        "prev": "0x0000000000000000000000000000000000000000000000000000000000000001"
                    }
                ],
                "storageVariables": [
                    {
                        "name": "balances",
                        "type": "mapping(uint256 => mapping(address => uint256))",
                        "value": {
                            "pairs": [
                                {
                                    "key": "183375",
                                    "value": {
                                        "pairs": [
                                            {
                                                "key": "0x53982f043016d492833c30b15e83ecd2b13dc641",
                                                "value": {
                                                    "current": "2",
                                                    "prev": "1",
                                                    "typeTag": 1
                                                }
                                            },
                                            {
                                                "key": "0xa7ad01c25857985d9eb4646c7fd72a49412de814",
                                                "value": {
                                                    "current": "177",
                                                    "prev": "178",
                                                    "typeTag": 1
                                                }
                                            }
                                        ],
                                        "typeTag": 4
                                    }
                                }
                            ],
                            "typeTag": 4
                        }
                    }
                ]
            },
            {
                "address": "0xed1f5f8724cc185d4e48a71a7fac64fa5216e4a8",
                "erc": "",
                "slots": [
                    {
                        "current": "0x00000000000000000000000000000000000000000000000004db732547630000",
                        "key": "0xa5995a23db2d8f01168d08b52df6d005adc7c9e80e7aa93a99c9cc902eeae568",
                        "prev": "0x0000000000000000000000000000000000000000000000000000000000000000"
                    }
                ],
                "storageVariables": [
                    {
                        "name": "completed",
                        "type": "mapping(bytes32 => uint256)",
                        "value": {
                            "pairs": [
                                {
                                    "key": "0x2ee8614419bf06541c1f545fdf722b9a3c7dafe77e89dc7012a904595ae51124",
                                    "value": {
                                        "current": "350000000000000000",
                                        "prev": "0",
                                        "typeTag": 1
                                    }
                                }
                            ],
                            "typeTag": 4
                        }
                    }
                ]
            }
        ]
    }
}