{
    "balance_change": {
        "balanceChanges": [
            {
                "account": "0x9f9db20a533742e4a78e3851880709e5220a70a2",
                "assets": [
                    {
                        "address": "0xeeeeeeeeeeeeeeeeeeeeeeeeeeeeeeeeeeeeeeee",
                        "amount": "0.25",
                        "iconUrl": "https://assets.blocksec.com/image/1663669189317-3.png",
                        "isERC1155": false,
                        "isERC721": false,
                        "sign": false,
                        "value": "468.82999999999998408"
                    },
                    {
                        "address": "0xabec00542d141bddf58649bfe860c6449807237c",
                        "amount": "56,134.393396162956728311",
                        "iconUrl": "",
                        "isERC1155": false,
                        "isERC721": false,
                        "sign": true,
                        "value": "449.797296"
                    }
                ]
            },
            {
                "account": "0x136f79961b7ab2a91104ec892c288e225e100214",
                "assets": [
                    {
                        "address": "0xeeeeeeeeeeeeeeeeeeeeeeeeeeeeeeeeeeeeeeee",
                        "amount": "0.00125",
                        "iconUrl": "https://assets.blocksec.com/image/1663669189317-3.png",
                        "isERC1155": false,
                        "isERC721": false,
                        "sign": true,
                        "value": "2.3441499999999999204"
                    }
                ]
            },
            {
                "account": "0x60a8ea6005f7db580bc0c9341e7e6275d114e874",
                "assets": [
                    {
                        "address": "0xc02aaa39b223fe8d0a0e5c4f27ead9083c756cc2",
                        "amount": "0.24875",
                        "iconUrl": "https://assets.blocksec.com/icon/f1cb2d02c471d545bbc7722daf3277fd852d98e63d118771af7047bd8256c516.png",
                        "isERC1155": false,
                        "isERC721": false,
                        "sign": true,
                        "value": "466.48584999999998416"
                    },
                    {
                        "address": "0xabec00542d141bddf58649bfe860c6449807237c",
                        "amount": "56,701.40747087167346294",
                        "iconUrl": "",
                        "isERC1155": false,
                        "isERC721": false,
                        "sign": false,
                        "value": "446.4538294"
                    }
                ]
            },
            {
                "account": "0xabec00542d141bddf58649bfe860c6449807237c",
                "assets": [
                    {
                        "address": "0xabec00542d141bddf58649bfe860c6449807237c",
                        "amount": "567.014074708716734628",
                        "iconUrl": "",
                        "isERC1155": false,
                        "isERC721": false,
                        "sign": true,
                        "value": "4.42515054"
                    }
                ]
            },
            {
                "account": "0xc02aaa39b223fe8d0a0e5c4f27ead9083c756cc2",
                "assets": [
                    {
                        "address": "0xeeeeeeeeeeeeeeeeeeeeeeeeeeeeeeeeeeeeeeee",
                        "amount": "0.24875",
                        "iconUrl": "https://assets.blocksec.com/image/1663669189317-3.png",
                        "isERC1155": false,
                        "isERC721": false,
                        "sign": true,
                        "value": "466.48584999999998416"
                    },
                    {
                        "address": "0xc02aaa39b223fe8d0a0e5c4f27ead9083c756cc2",
                        "amount": "0.24875",
                        "iconUrl": "https://assets.blocksec.com/icon/f1cb2d02c471d545bbc7722daf3277fd852d98e63d118771af7047bd8256c516.png",
                        "isERC1155": false,
                        "isERC721": false,
                        "sign": false,
                        "value": "466.48584999999998416"
                    }
                ]
            }
        ]
    },
    "profile": {
        "basic_info": {
            "baseFee": "22.008569328",
            "blockNumber": 17823611,
            "callData": "0x110bbd8d00000000000000000000000000000000000000000000000000000000000000e000000000000000000000000000000000000000000000000000000000000001600000000000000000000000007a250d5630b4cf539739df2c5dacb4c659f2488d0000000000000000000000000000000000000000000000000000000000000063000000000000000000000000000000000000000000000000000000000000000100000000000000000000000000000000000000000000000000000000000000090000000000000000000000000000000000000000000000000000000064c99d4b00000000000000000000000000000000000000000000000000000000000000030000000000000000000000000000000000000000000000000000000000000000000000000000000000000000000000000000000000000000000000000000000000000000000000000000000000000000000000000000000000000000000000000000000000000000000000000000000000000000000000000000000000000002000000000000000000000000c02aaa39b223fe8d0a0e5c4f27ead9083c756cc2000000000000000000000000abec00542d141bddf58649bfe860c6449807237c",
            "debugEnable": true,
            "errorInfo": "",
            "eventCount": 9,
            "feeRecipient": "0xe688b84b23f322a994a53dbf8e15fa82cdb71127",
            "formatValue": "0.25",
            "gasLimit": 387984,
            "gasPrice": "57.008569328",
            "gasUsed": 222920,
            "intTxnCount": 23,
            "internalRevert": false,
            "internalRevertMessage": "",
            "isContractCreation": false,
            "isFlashloan": false,
            "maxFee": "57.008569328",
            "nonce": 249,
            "overwritedBlockNumber": -1,
            "priorityFee": "35",
            "receiver": "0x136f79961b7ab2a91104ec892c288e225e100214",
            "revertMessage": "",
            "sender": "0x9f9db20a533742e4a78e3851880709e5220a70a2",
            "simulationEnable": true,
            "sourceTxnHash": "0xa56ff4850c5b8ab7a0a392773558d7e18199955a517e553c1664ba0fc8abb1fd",
            "status": true,
            "timestamp": "2023-08-02T00:03:23Z",
            "transactionFee": "0.01270835027459776",
            "txnHash": "0xa56ff4850c5b8ab7a0a392773558d7e18199955a517e553c1664ba0fc8abb1fd",
            "txnIndex": 0,
            "type": 2,
            "value": "250000000000000000"
        },
        "fund_flow": [
            {
                "amount": "0.25",
                "from": "0x9f9db20a533742e4a78e3851880709e5220a70a2",
                "id": 1,
                "isERC1155": false,
                "isERC721": false,
                "isReverted": false,
                "order": 1,
                "to": "0x136f79961b7ab2a91104ec892c288e225e100214",
                "token": "0xeeeeeeeeeeeeeeeeeeeeeeeeeeeeeeeeeeeeeeee"
            },
            {
                "amount": "0.24875",
                "from": "0x136f79961b7ab2a91104ec892c288e225e100214",
                "id": 2,
                "isERC1155": false,
                "isERC721": false,
                "isReverted": false,
                "order": 2,
                "to": "0xc02aaa39b223fe8d0a0e5c4f27ead9083c756cc2",
                "token": "0xeeeeeeeeeeeeeeeeeeeeeeeeeeeeeeeeeeeeeeee"
            },
            {
                "amount": "0.24875",
                "from": "0xc02aaa39b223fe8d0a0e5c4f27ead9083c756cc2",
                "id": 3,
                "isERC1155": false,
                "isERC721": false,
                "isReverted": false,
                "order": 3,
                "to": "0x136f79961b7ab2a91104ec892c288e225e100214",
                "token": "0xc02aaa39b223fe8d0a0e5c4f27ead9083c756cc2"
            },
            {
                "amount": "0.24875",
                "from": "0x136f79961b7ab2a91104ec892c288e225e100214",
                "id": 4,
                "isERC1155": false,
                "isERC721": false,
                "isReverted": false,
                "order": 4,
                "to": "0x60a8ea6005f7db580bc0c9341e7e6275d114e874",
                "token": "0xc02aaa39b223fe8d0a0e5c4f27ead9083c756cc2"
            },
            {
                "amount": "567.014074708716734628",
                "from": "0x60a8ea6005f7db580bc0c9341e7e6275d114e874",
                "id": 5,
                "isERC1155": false,
                "isERC721": false,
                "isReverted": false,
                "order": 5,
                "to": "0xabec00542d141bddf58649bfe860c6449807237c",
                "token": "0xabec00542d141bddf58649bfe860c6449807237c"
            },
            {
                "amount": "56,134.393396162956728311",
                "from": "0x60a8ea6005f7db580bc0c9341e7e6275d114e874",
                "id": 6,
                "isERC1155": false,
                "isERC721": false,
                "isReverted": false,
                "order": 6,
                "to": "0x9f9db20a533742e4a78e3851880709e5220a70a2",
                "token": "0xabec00542d141bddf58649bfe860c6449807237c"
            }
        ],
        "token_infos": [
            {
                "address": "0xeeeeeeeeeeeeeeeeeeeeeeeeeeeeeeeeeeeeeeee",
                "decimals": 18
            },
            {
                "address": "0xabec00542d141bddf58649bfe860c6449807237c",
                "decimals": 18
            },
            {
                "address": "0xc02aaa39b223fe8d0a0e5c4f27ead9083c756cc2",
                "decimals": 18
            }
        ]
    },
    "address_label": {
        "labels": [
            {
                "address": "0x136f79961b7ab2a91104ec892c288e225e100214",
                "label": "MEV Bot: 0x136...214"
            },
            {
                "address": "0xabec00542d141bddf58649bfe860c6449807237c",
                "label": "CruxDecussata: X Token"
            },
            {
                "address": "0x60a8ea6005f7db580bc0c9341e7e6275d114e874",
                "label": "UniswapV2Pair"
            },
            {
                "address": "0x0000000000000000000000000000000000000001",
                "label": "Precompiled"
            },
            {
                "address": "0x0000000000000000000000000000000000000004",
                "label": "Precompiled"
            },
            {
                "address": "0xeeeeeeeeeeeeeeeeeeeeeeeeeeeeeeeeeeeeeeee",
                "label": "Ether"
            },
            {
                "address": "0xc02aaa39b223fe8d0a0e5c4f27ead9083c756cc2",
                "label": "Wrapped Ether (WETH)"
            },
            {
                "address": "0x0000000000000000000000000000000000000002",
                "label": "Precompiled"
            },
            {
                "address": "0x0000000000000000000000000000000000000003",
                "label": "Precompiled"
            }
        ]
    },
    "trace": {
        "accountLabels": null,
        "dataMap": {
            "-1": {
                "invocation": {
                    "address": "0x9f9db20a533742e4a78e3851880709e5220a70a2",
                    "callData": "",
                    "decodedMethod": null,
                    "errorInfo": "",
                    "fromAddress": "",
                    "gasUsed": 0,
                    "id": -1,
                    "methodDecoded": false,
                    "operation": "",
                    "output": "",
                    "revert": false,
                    "revertMessage": "",
                    "selector": "",
                    "status": false,
                    "value": ""
                },
                "nodeType": 0
            },
            "0": {
                "invocation": {
                    "address": "0x136f79961b7ab2a91104ec892c288e225e100214",
                    "callData": "0x00000000000000000000000000000000000000000000000000000000000000e000000000000000000000000000000000000000000000000000000000000001600000000000000000000000007a250d5630b4cf539739df2c5dacb4c659f2488d0000000000000000000000000000000000000000000000000000000000000063000000000000000000000000000000000000000000000000000000000000000100000000000000000000000000000000000000000000000000000000000000090000000000000000000000000000000000000000000000000000000064c99d4b00000000000000000000000000000000000000000000000000000000000000030000000000000000000000000000000000000000000000000000000000000000000000000000000000000000000000000000000000000000000000000000000000000000000000000000000000000000000000000000000000000000000000000000000000000000000000000000000000000000000000000000000000000002000000000000000000000000c02aaa39b223fe8d0a0e5c4f27ead9083c756cc2000000000000000000000000abec00542d141bddf58649bfe860c6449807237c",
                    "decodedMethod": null,
                    "errorInfo": "",
                    "fromAddress": "0x9f9db20a533742e4a78e3851880709e5220a70a2",
                    "gasUsed": 222920,
                    "id": 0,
                    "methodDecoded": false,
                    "operation": "CALL",
                    "output": "",
                    "revert": false,
                    "revertMessage": "",
                    "selector": "0x110bbd8d",
                    "status": true,
                    "value": "0.25"
                },
                "nodeType": 0
            },
            "1": {
                "invocation": {
                    "address": "0x66d0b8f1c539a395fb402cc25ade893b109e187f",
                    "callData": "0x0000000000000000000000000000000000000000000000000373bcce9be0e00000000000000000000000000000000000000000000000000000000000000000600000000000000000000000007a250d5630b4cf539739df2c5dacb4c659f2488d0000000000000000000000000000000000000000000000000000000000000002000000000000000000000000c02aaa39b223fe8d0a0e5c4f27ead9083c756cc2000000000000000000000000abec00542d141bddf58649bfe860c6449807237c",
                    "decodedMethod": null,
                    "errorInfo": "",
                    "fromAddress": "0x136f79961b7ab2a91104ec892c288e225e100214",
                    "gasUsed": 14147,
                    "id": 1,
                    "methodDecoded": false,
                    "operation": "STATICCALL",
                    "output": "0x000000000000000000000000000000000000000000000000000000000000002000000000000000000000000000000000000000000000000000000000000000020000000000000000000000000000000000000000000000000373bcce9be0e000000000000000000000000000000000000000000000000c01ca19edd3623e609c",
                    "revert": false,
                    "revertMessage": "",
                    "selector": "0x3cbb026e",
                    "status": true,
                    "value": "0"
                },
                "nodeType": 0
            },
            "10": {
                "invocation": {
                    "address": "0xc02aaa39b223fe8d0a0e5c4f27ead9083c756cc2",
                    "callData": "0x00000000000000000000000060a8ea6005f7db580bc0c9341e7e6275d114e8740000000000000000000000000000000000000000000000000373bcce9be0e000",
                    "decodedMethod": {
                        "callParams": [
                            {
                                "name": "dst",
                                "type": "address",
                                "value": "0x60a8ea6005f7db580bc0c9341e7e6275d114e874"
                            },
                            {
                                "decimalAvailable": true,
                                "name": "wad",
                                "type": "uint256",
                                "value": "248,750,000,000,000,000"
                            }
                        ],
                        "constructorArguments": "",
                        "name": "transfer",
                        "returnParams": [
                            {
                                "name": "",
                                "type": "bool",
                                "value": true
                            }
                        ],
                        "signature": "transfer(address,uint256)"
                    },
                    "errorInfo": "",
                    "fromAddress": "0x136f79961b7ab2a91104ec892c288e225e100214",
                    "gasUsed": 8062,
                    "id": 10,
                    "methodDecoded": true,
                    "operation": "CALL",
                    "output": "0x0000000000000000000000000000000000000000000000000000000000000001",
                    "revert": false,
                    "revertMessage": "",
                    "selector": "0xa9059cbb",
                    "status": true,
                    "value": "0"
                },
                "nodeType": 0
            },
            "11": {
                "event": {
                    "contract": "0xc02aaa39b223fe8d0a0e5c4f27ead9083c756cc2",
                    "decodedLog": {
                        "name": "Transfer",
                        "params": [
                            {
                                "name": "src",
                                "type": "address",
                                "value": "0x136f79961b7ab2a91104ec892c288e225e100214"
                            },
                            {
                                "name": "dst",
                                "type": "address",
                                "value": "0x60a8ea6005f7db580bc0c9341e7e6275d114e874"
                            },
                            {
                                "decimalAvailable": true,
                                "name": "wad",
                                "type": "uint256",
                                "value": "248,750,000,000,000,000"
                            }
                        ],
                        "signature": "Transfer(address,address,uint256)"
                    },
                    "id": 11,
                    "logData": "0x0000000000000000000000000000000000000000000000000373bcce9be0e000",
                    "logDecoded": true,
                    "operation": "EVENT",
                    "revert": false,
                    "status": true,
                    "topics": [
                        "0xddf252ad1be2c89b69c2b068fc378daa952ba7f163c4a11628f55a4df523b3ef",
                        "0x000000000000000000000000136f79961b7ab2a91104ec892c288e225e100214",
                        "0x00000000000000000000000060a8ea6005f7db580bc0c9341e7e6275d114e874"
                    ]
                },
                "nodeType": 1
            },
            "12": {
                "invocation": {
                    "address": "0xabec00542d141bddf58649bfe860c6449807237c",
                    "callData": "0x0000000000000000000000009f9db20a533742e4a78e3851880709e5220a70a2",
                    "decodedMethod": {
                        "callParams": [
                            {
                                "name": "account",
                                "type": "address",
                                "value": "0x9f9db20a533742e4a78e3851880709e5220a70a2"
                            }
                        ],
                        "constructorArguments": "",
                        "name": "balanceOf",
                        "returnParams": [
                            {
                                "decimalAvailable": true,
                                "name": "",
                                "type": "uint256",
                                "value": "0"
                            }
                        ],
                        "signature": "balanceOf(address)"
                    },
                    "errorInfo": "",
                    "fromAddress": "0x136f79961b7ab2a91104ec892c288e225e100214",
                    "gasUsed": 2909,
                    "id": 12,
                    "methodDecoded": true,
                    "operation": "STATICCALL",
                    "output": "0x0000000000000000000000000000000000000000000000000000000000000000",
                    "revert": false,
                    "revertMessage": "",
                    "selector": "0x70a08231",
                    "status": true,
                    "value": "0"
                },
                "nodeType": 0
            },
            "13": {
                "invocation": {
                    "address": "0x66d0b8f1c539a395fb402cc25ade893b109e187f",
                    "callData": "0x00000000000000000000000000000000000000000000000000000000000000600000000000000000000000009f9db20a533742e4a78e3851880709e5220a70a20000000000000000000000007a250d5630b4cf539739df2c5dacb4c659f2488d0000000000000000000000000000000000000000000000000000000000000002000000000000000000000000c02aaa39b223fe8d0a0e5c4f27ead9083c756cc2000000000000000000000000abec00542d141bddf58649bfe860c6449807237c",
                    "decodedMethod": null,
                    "errorInfo": "",
                    "fromAddress": "0x136f79961b7ab2a91104ec892c288e225e100214",
                    "gasUsed": 122518,
                    "id": 13,
                    "methodDecoded": false,
                    "operation": "CALL",
                    "output": "",
                    "revert": false,
                    "revertMessage": "",
                    "selector": "0x5154e7f4",
                    "status": true,
                    "value": "0"
                },
                "nodeType": 0
            },
            "14": {
                "invocation": {
                    "address": "0x60a8ea6005f7db580bc0c9341e7e6275d114e874",
                    "callData": "0x",
                    "decodedMethod": {
                        "callParams": [],
                        "constructorArguments": "",
                        "name": "getReserves",
                        "returnParams": [
                            {
                                "name": "_reserve0",
                                "type": "uint112",
                                "value": "6,377,689,642,304,135,030,670,916"
                            },
                            {
                                "name": "_reserve1",
                                "type": "uint112",
                                "value": "27,647,087,715,588,776,806"
                            },
                            {
                                "name": "_blockTimestampLast",
                                "type": "uint32",
                                "value": "1,690,934,591"
                            }
                        ],
                        "signature": "getReserves()"
                    },
                    "errorInfo": "",
                    "fromAddress": "0x66d0b8f1c539a395fb402cc25ade893b109e187f",
                    "gasUsed": 504,
                    "id": 14,
                    "methodDecoded": true,
                    "operation": "STATICCALL",
                    "output": "0x0000000000000000000000000000000000000000000546873f8f5bb1520886440000000000000000000000000000000000000000000000017fae2fcbf9bc23660000000000000000000000000000000000000000000000000000000064c99d3f",
                    "revert": false,
                    "revertMessage": "",
                    "selector": "0x0902f1ac",
                    "status": true,
                    "value": "0"
                },
                "nodeType": 0
            },
            "15": {
                "invocation": {
                    "address": "0xc02aaa39b223fe8d0a0e5c4f27ead9083c756cc2",
                    "callData": "0x00000000000000000000000060a8ea6005f7db580bc0c9341e7e6275d114e874",
                    "decodedMethod": {
                        "callParams": [
                            {
                                "name": "",
                                "type": "address",
                                "value": "0x60a8ea6005f7db580bc0c9341e7e6275d114e874"
                            }
                        ],
                        "constructorArguments": "",
                        "name": "balanceOf",
                        "returnParams": [
                            {
                                "decimalAvailable": true,
                                "name": "",
                                "type": "uint256",
                                "value": "27,895,837,715,588,776,806"
                            }
                        ],
                        "signature": "balanceOf(address)"
                    },
                    "errorInfo": "",
                    "fromAddress": "0x66d0b8f1c539a395fb402cc25ade893b109e187f",
                    "gasUsed": 534,
                    "id": 15,
                    "methodDecoded": true,
                    "operation": "STATICCALL",
                    "output": "0x0000000000000000000000000000000000000000000000018321ec9a959d0366",
                    "revert": false,
                    "revertMessage": "",
                    "selector": "0x70a08231",
                    "status": true,
                    "value": "0"
                },
                "nodeType": 0
            },
            "16": {
                "invocation": {
                    "address": "0x04a0b0f2768777e068ea423431cef88f527bc434",
                    "callData": "0x0000000000000000000000000000000000000000000000018321ec9a959d03660000000000000000000000000000000000000000000000017fae2fcbf9bc2366",
                    "decodedMethod": {
                        "callParams": [
                            {
                                "name": "a",
                                "type": "uint256",
                                "value": "27,895,837,715,588,776,806"
                            },
                            {
                                "name": "b",
                                "type": "uint256",
                                "value": "27,647,087,715,588,776,806"
                            }
                        ],
                        "constructorArguments": "",
                        "name": "sub",
                        "returnParams": [
                            {
                                "name": "",
                                "type": "uint256",
                                "value": "248,750,000,000,000,000"
                            }
                        ],
                        "signature": "sub(uint256,uint256)"
                    },
                    "errorInfo": "",
                    "fromAddress": "0x66d0b8f1c539a395fb402cc25ade893b109e187f",
                    "gasUsed": 300,
                    "id": 16,
                    "methodDecoded": true,
                    "operation": "DELEGATECALL",
                    "output": "0x0000000000000000000000000000000000000000000000000373bcce9be0e000",
                    "revert": false,
                    "revertMessage": "",
                    "selector": "0xb67d77c5",
                    "status": true,
                    "value": "0"
                },
                "nodeType": 0
            },
            "17": {
                "invocation": {
                    "address": "0x04a0b0f2768777e068ea423431cef88f527bc434",
                    "callData": "0x0000000000000000000000000000000000000000000000000373bcce9be0e00000000000000000000000000000000000000000000000000000000000000026f2",
                    "decodedMethod": {
                        "callParams": [
                            {
                                "name": "a",
                                "type": "uint256",
                                "value": "248,750,000,000,000,000"
                            },
                            {
                                "name": "b",
                                "type": "uint256",
                                "value": "9,970"
                            }
                        ],
                        "constructorArguments": "",
                        "name": "mul",
                        "returnParams": [
                            {
                                "name": "",
                                "type": "uint256",
                                "value": "2,480,037,500,000,000,000,000"
                            }
                        ],
                        "signature": "mul(uint256,uint256)"
                    },
                    "errorInfo": "",
                    "fromAddress": "0x66d0b8f1c539a395fb402cc25ade893b109e187f",
                    "gasUsed": 376,
                    "id": 17,
                    "methodDecoded": true,
                    "operation": "DELEGATECALL",
                    "output": "0x000000000000000000000000000000000000000000000086716f2672bbd3c000",
                    "revert": false,
                    "revertMessage": "",
                    "selector": "0xc8a4ac9c",
                    "status": true,
                    "value": "0"
                },
                "nodeType": 0
            },
            "18": {
                "invocation": {
                    "address": "0x04a0b0f2768777e068ea423431cef88f527bc434",
                    "callData": "0x000000000000000000000000000000000000000000000086716f2672bbd3c0000000000000000000000000000000000000000000000546873f8f5bb152088644",
                    "decodedMethod": {
                        "callParams": [
                            {
                                "name": "a",
                                "type": "uint256",
                                "value": "2,480,037,500,000,000,000,000"
                            },
                            {
                                "name": "b",
                                "type": "uint256",
                                "value": "6,377,689,642,304,135,030,670,916"
                            }
                        ],
                        "constructorArguments": "",
                        "name": "mul",
                        "returnParams": [
                            {
                                "name": "",
                                "type": "uint256",
                                "value": "15,816,909,476,275,841,281,127,521,839,350,000,000,000,000,000"
                            }
                        ],
                        "signature": "mul(uint256,uint256)"
                    },
                    "errorInfo": "",
                    "fromAddress": "0x66d0b8f1c539a395fb402cc25ade893b109e187f",
                    "gasUsed": 376,
                    "id": 18,
                    "methodDecoded": true,
                    "operation": "DELEGATECALL",
                    "output": "0x00000000000000000000000002c5413757922ffe6ece4e80a60db6e8babf0000",
                    "revert": false,
                    "revertMessage": "",
                    "selector": "0xc8a4ac9c",
                    "status": true,
                    "value": "0"
                },
                "nodeType": 0
            },
            "19": {
                "invocation": {
                    "address": "0x04a0b0f2768777e068ea423431cef88f527bc434",
                    "callData": "0x0000000000000000000000000000000000000000000000017fae2fcbf9bc23660000000000000000000000000000000000000000000000000000000000002710",
                    "decodedMethod": {
                        "callParams": [
                            {
                                "name": "a",
                                "type": "uint256",
                                "value": "27,647,087,715,588,776,806"
                            },
                            {
                                "name": "b",
                                "type": "uint256",
                                "value": "10,000"
                            }
                        ],
                        "constructorArguments": "",
                        "name": "mul",
                        "returnParams": [
                            {
                                "name": "",
                                "type": "uint256",
                                "value": "276,470,877,155,887,768,060,000"
                            }
                        ],
                        "signature": "mul(uint256,uint256)"
                    },
                    "errorInfo": "",
                    "fromAddress": "0x66d0b8f1c539a395fb402cc25ade893b109e187f",
                    "gasUsed": 376,
                    "id": 19,
                    "methodDecoded": true,
                    "operation": "DELEGATECALL",
                    "output": "0x000000000000000000000000000000000000000000003a8b842b0fcb4526c060",
                    "revert": false,
                    "revertMessage": "",
                    "selector": "0xc8a4ac9c",
                    "status": true,
                    "value": "0"
                },
                "nodeType": 0
            },
            "2": {
                "invocation": {
                    "address": "0x60a8ea6005f7db580bc0c9341e7e6275d114e874",
                    "callData": "0x",
                    "decodedMethod": {
                        "callParams": [],
                        "constructorArguments": "",
                        "name": "getReserves",
                        "returnParams": [
                            {
                                "name": "_reserve0",
                                "type": "uint112",
                                "value": "6,377,689,642,304,135,030,670,916"
                            },
                            {
                                "name": "_reserve1",
                                "type": "uint112",
                                "value": "27,647,087,715,588,776,806"
                            },
                            {
                                "name": "_blockTimestampLast",
                                "type": "uint32",
                                "value": "1,690,934,591"
                            }
                        ],
                        "signature": "getReserves()"
                    },
                    "errorInfo": "",
                    "fromAddress": "0x66d0b8f1c539a395fb402cc25ade893b109e187f",
                    "gasUsed": 2504,
                    "id": 2,
                    "methodDecoded": true,
                    "operation": "STATICCALL",
                    "output": "0x0000000000000000000000000000000000000000000546873f8f5bb1520886440000000000000000000000000000000000000000000000017fae2fcbf9bc23660000000000000000000000000000000000000000000000000000000064c99d3f",
                    "revert": false,
                    "revertMessage": "",
                    "selector": "0x0902f1ac",
                    "status": true,
                    "value": "0"
                },
                "nodeType": 0
            },
            "20": {
                "invocation": {
                    "address": "0x04a0b0f2768777e068ea423431cef88f527bc434",
                    "callData": "0x000000000000000000000000000000000000000000003a8b842b0fcb4526c060000000000000000000000000000000000000000000000086716f2672bbd3c000",
                    "decodedMethod": {
                        "callParams": [
                            {
                                "name": "a",
                                "type": "uint256",
                                "value": "276,470,877,155,887,768,060,000"
                            },
                            {
                                "name": "b",
                                "type": "uint256",
                                "value": "2,480,037,500,000,000,000,000"
                            }
                        ],
                        "constructorArguments": "",
                        "name": "add",
                        "returnParams": [
                            {
                                "name": "",
                                "type": "uint256",
                                "value": "278,950,914,655,887,768,060,000"
                            }
                        ],
                        "signature": "add(uint256,uint256)"
                    },
                    "errorInfo": "",
                    "fromAddress": "0x66d0b8f1c539a395fb402cc25ade893b109e187f",
                    "gasUsed": 279,
                    "id": 20,
                    "methodDecoded": true,
                    "operation": "DELEGATECALL",
                    "output": "0x000000000000000000000000000000000000000000003b11f59a363e00fa8060",
                    "revert": false,
                    "revertMessage": "",
                    "selector": "0x771602f7",
                    "status": true,
                    "value": "0"
                },
                "nodeType": 0
            },
            "21": {
                "invocation": {
                    "address": "0x60a8ea6005f7db580bc0c9341e7e6275d114e874",
                    "callData": "0x000000000000000000000000000000000000000000000c01ca19edd3623e609c00000000000000000000000000000000000000000000000000000000000000000000000000000000000000009f9db20a533742e4a78e3851880709e5220a70a200000000000000000000000000000000000000000000000000000000000000800000000000000000000000000000000000000000000000000000000000000000",
                    "decodedMethod": {
                        "callParams": [
                            {
                                "name": "amount0Out",
                                "type": "uint256",
                                "value": "56,701,407,470,871,673,462,940"
                            },
                            {
                                "name": "amount1Out",
                                "type": "uint256",
                                "value": "0"
                            },
                            {
                                "name": "to",
                                "type": "address",
                                "value": "0x9f9db20a533742e4a78e3851880709e5220a70a2"
                            },
                            {
                                "name": "data",
                                "type": "bytes",
                                "value": "0x"
                            }
                        ],
                        "constructorArguments": "",
                        "name": "swap",
                        "returnParams": [],
                        "signature": "swap(uint256,uint256,address,bytes)"
                    },
                    "errorInfo": "",
                    "fromAddress": "0x66d0b8f1c539a395fb402cc25ade893b109e187f",
                    "gasUsed": 113502,
                    "id": 21,
                    "methodDecoded": true,
                    "operation": "CALL",
                    "output": "",
                    "revert": false,
                    "revertMessage": "",
                    "selector": "0x022c0d9f",
                    "status": true,
                    "value": "0"
                },
                "nodeType": 0
            },
            "22": {
                "invocation": {
                    "address": "0xabec00542d141bddf58649bfe860c6449807237c",
                    "callData": "0x0000000000000000000000009f9db20a533742e4a78e3851880709e5220a70a2000000000000000000000000000000000000000000000c01ca19edd3623e609c",
                    "decodedMethod": {
                        "callParams": [
                            {
                                "name": "recipient",
                                "type": "address",
                                "value": "0x9f9db20a533742e4a78e3851880709e5220a70a2"
                            },
                            {
                                "decimalAvailable": true,
                                "name": "amount",
                                "type": "uint256",
                                "value": "56,701,407,470,871,673,462,940"
                            }
                        ],
                        "constructorArguments": "",
                        "name": "transfer",
                        "returnParams": [
                            {
                                "name": "",
                                "type": "bool",
                                "value": true
                            }
                        ],
                        "signature": "transfer(address,uint256)"
                    },
                    "errorInfo": "",
                    "fromAddress": "0x60a8ea6005f7db580bc0c9341e7e6275d114e874",
                    "gasUsed": 80736,
                    "id": 22,
                    "methodDecoded": true,
                    "operation": "CALL",
                    "output": "0x0000000000000000000000000000000000000000000000000000000000000001",
                    "revert": false,
                    "revertMessage": "",
                    "selector": "0xa9059cbb",
                    "status": true,
                    "value": "0"
                },
                "nodeType": 0
            },
            "23": {
                "event": {
                    "contract": "0xabec00542d141bddf58649bfe860c6449807237c",
                    "decodedLog": {
                        "name": "Transfer",
                        "params": [
                            {
                                "name": "from",
                                "type": "address",
                                "value": "0x60a8ea6005f7db580bc0c9341e7e6275d114e874"
                            },
                            {
                                "name": "to",
                                "type": "address",
                                "value": "0xabec00542d141bddf58649bfe860c6449807237c"
                            },
                            {
                                "decimalAvailable": true,
                                "name": "value",
                                "type": "uint256",
                                "value": "567,014,074,708,716,734,629"
                            }
                        ],
                        "signature": "Transfer(address,address,uint256)"
                    },
                    "id": 23,
                    "logData": "0x00000000000000000000000000000000000000000000001ebce6a8c73bdcc8a5",
                    "logDecoded": true,
                    "operation": "EVENT",
                    "revert": false,
                    "status": true,
                    "topics": [
                        "0xddf252ad1be2c89b69c2b068fc378daa952ba7f163c4a11628f55a4df523b3ef",
                        "0x00000000000000000000000060a8ea6005f7db580bc0c9341e7e6275d114e874",
                        "0x000000000000000000000000abec00542d141bddf58649bfe860c6449807237c"
                    ]
                },
                "nodeType": 1
            },
            "24": {
                "event": {
                    "contract": "0xabec00542d141bddf58649bfe860c6449807237c",
                    "decodedLog": {
                        "name": "Transfer",
                        "params": [
                            {
                                "name": "from",
                                "type": "address",
                                "value": "0x60a8ea6005f7db580bc0c9341e7e6275d114e874"
                            },
                            {
                                "name": "to",
                                "type": "address",
                                "value": "0x9f9db20a533742e4a78e3851880709e5220a70a2"
                            },
                            {
                                "decimalAvailable": true,
                                "name": "value",
                                "type": "uint256",
                                "value": "56,134,393,396,162,956,728,311"
                            }
                        ],
                        "signature": "Transfer(address,address,uint256)"
                    },
                    "id": 24,
                    "logData": "0x000000000000000000000000000000000000000000000be30d33450c266197f7",
                    "logDecoded": true,
                    "operation": "EVENT",
                    "revert": false,
                    "status": true,
                    "topics": [
                        "0xddf252ad1be2c89b69c2b068fc378daa952ba7f163c4a11628f55a4df523b3ef",
                        "0x00000000000000000000000060a8ea6005f7db580bc0c9341e7e6275d114e874",
                        "0x0000000000000000000000009f9db20a533742e4a78e3851880709e5220a70a2"
                    ]
                },
                "nodeType": 1
            },
            "25": {
                "invocation": {
                    "address": "0xabec00542d141bddf58649bfe860c6449807237c",
                    "callData": "0x00000000000000000000000060a8ea6005f7db580bc0c9341e7e6275d114e874",
                    "decodedMethod": {
                        "callParams": [
                            {
                                "name": "account",
                                "type": "address",
                                "value": "0x60a8ea6005f7db580bc0c9341e7e6275d114e874"
                            }
                        ],
                        "constructorArguments": "",
                        "name": "balanceOf",
                        "returnParams": [
                            {
                                "decimalAvailable": true,
                                "name": "",
                                "type": "uint256",
                                "value": "6,320,988,234,833,263,357,207,976"
                            }
                        ],
                        "signature": "balanceOf(address)"
                    },
                    "errorInfo": "",
                    "fromAddress": "0x60a8ea6005f7db580bc0c9341e7e6275d114e874",
                    "gasUsed": 909,
                    "id": 25,
                    "methodDecoded": true,
                    "operation": "STATICCALL",
                    "output": "0x000000000000000000000000000000000000000000053a8575756dddefca25a8",
                    "revert": false,
                    "revertMessage": "",
                    "selector": "0x70a08231",
                    "status": true,
                    "value": "0"
                },
                "nodeType": 0
            },
            "26": {
                "invocation": {
                    "address": "0xc02aaa39b223fe8d0a0e5c4f27ead9083c756cc2",
                    "callData": "0x00000000000000000000000060a8ea6005f7db580bc0c9341e7e6275d114e874",
                    "decodedMethod": {
                        "callParams": [
                            {
                                "name": "",
                                "type": "address",
                                "value": "0x60a8ea6005f7db580bc0c9341e7e6275d114e874"
                            }
                        ],
                        "constructorArguments": "",
                        "name": "balanceOf",
                        "returnParams": [
                            {
                                "decimalAvailable": true,
                                "name": "",
                                "type": "uint256",
                                "value": "27,895,837,715,588,776,806"
                            }
                        ],
                        "signature": "balanceOf(address)"
                    },
                    "errorInfo": "",
                    "fromAddress": "0x60a8ea6005f7db580bc0c9341e7e6275d114e874",
                    "gasUsed": 534,
                    "id": 26,
                    "methodDecoded": true,
                    "operation": "STATICCALL",
                    "output": "0x0000000000000000000000000000000000000000000000018321ec9a959d0366",
                    "revert": false,
                    "revertMessage": "",
                    "selector": "0x70a08231",
                    "status": true,
                    "value": "0"
                },
                "nodeType": 0
            },
            "27": {
                "event": {
                    "contract": "0x60a8ea6005f7db580bc0c9341e7e6275d114e874",
                    "decodedLog": {
                        "name": "Sync",
                        "params": [
                            {
                                "name": "reserve0",
                                "type": "uint112",
                                "value": "6,320,988,234,833,263,357,207,976"
                            },
                            {
                                "name": "reserve1",
                                "type": "uint112",
                                "value": "27,895,837,715,588,776,806"
                            }
                        ],
                        "signature": "Sync(uint112,uint112)"
                    },
                    "id": 27,
                    "logData": "0x000000000000000000000000000000000000000000053a8575756dddefca25a80000000000000000000000000000000000000000000000018321ec9a959d0366",
                    "logDecoded": true,
                    "operation": "EVENT",
                    "revert": false,
                    "status": true,
                    "topics": [
                        "0x1c411e9a96e071241c2f21f7726b17ae89e3cab4c78be50e062b03a9fffbbad1"
                    ]
                },
                "nodeType": 1
            },
            "28": {
                "event": {
                    "contract": "0x60a8ea6005f7db580bc0c9341e7e6275d114e874",
                    "decodedLog": {
                        "name": "Swap",
                        "params": [
                            {
                                "name": "sender",
                                "type": "address",
                                "value": "0x66d0b8f1c539a395fb402cc25ade893b109e187f"
                            },
                            {
                                "name": "to",
                                "type": "address",
                                "value": "0x9f9db20a533742e4a78e3851880709e5220a70a2"
                            },
                            {
                                "name": "amount0In",
                                "type": "uint256",
                                "value": "0"
                            },
                            {
                                "name": "amount1In",
                                "type": "uint256",
                                "value": "248,750,000,000,000,000"
                            },
                            {
                                "name": "amount0Out",
                                "type": "uint256",
                                "value": "56,701,407,470,871,673,462,940"
                            },
                            {
                                "name": "amount1Out",
                                "type": "uint256",
                                "value": "0"
                            }
                        ],
                        "signature": "Swap(address,uint256,uint256,uint256,uint256,address)"
                    },
                    "id": 28,
                    "logData": "0x00000000000000000000000000000000000000000000000000000000000000000000000000000000000000000000000000000000000000000373bcce9be0e000000000000000000000000000000000000000000000000c01ca19edd3623e609c0000000000000000000000000000000000000000000000000000000000000000",
                    "logDecoded": true,
                    "operation": "EVENT",
                    "revert": false,
                    "status": true,
                    "topics": [
                        "0xd78ad95fa46c994b6551d0da85fc275fe613ce37657fb8d5e3d130840159d822",
                        "0x00000000000000000000000066d0b8f1c539a395fb402cc25ade893b109e187f",
                        "0x0000000000000000000000009f9db20a533742e4a78e3851880709e5220a70a2"
                    ]
                },
                "nodeType": 1
            },
            "29": {
                "invocation": {
                    "address": "0xabec00542d141bddf58649bfe860c6449807237c",
                    "callData": "0x0000000000000000000000009f9db20a533742e4a78e3851880709e5220a70a2",
                    "decodedMethod": {
                        "callParams": [
                            {
                                "name": "account",
                                "type": "address",
                                "value": "0x9f9db20a533742e4a78e3851880709e5220a70a2"
                            }
                        ],
                        "constructorArguments": "",
                        "name": "balanceOf",
                        "returnParams": [
                            {
                                "decimalAvailable": true,
                                "name": "",
                                "type": "uint256",
                                "value": "56,134,393,396,162,956,728,311"
                            }
                        ],
                        "signature": "balanceOf(address)"
                    },
                    "errorInfo": "",
                    "fromAddress": "0x136f79961b7ab2a91104ec892c288e225e100214",
                    "gasUsed": 909,
                    "id": 29,
                    "methodDecoded": true,
                    "operation": "STATICCALL",
                    "output": "0x000000000000000000000000000000000000000000000be30d33450c266197f7",
                    "revert": false,
                    "revertMessage": "",
                    "selector": "0x70a08231",
                    "status": true,
                    "value": "0"
                },
                "nodeType": 0
            },
            "3": {
                "invocation": {
                    "address": "0x04a0b0f2768777e068ea423431cef88f527bc434",
                    "callData": "0x0000000000000000000000000000000000000000000000000373bcce9be0e00000000000000000000000000000000000000000000000000000000000000026f2",
                    "decodedMethod": {
                        "callParams": [
                            {
                                "name": "a",
                                "type": "uint256",
                                "value": "248,750,000,000,000,000"
                            },
                            {
                                "name": "b",
                                "type": "uint256",
                                "value": "9,970"
                            }
                        ],
                        "constructorArguments": "",
                        "name": "mul",
                        "returnParams": [
                            {
                                "name": "",
                                "type": "uint256",
                                "value": "2,480,037,500,000,000,000,000"
                            }
                        ],
                        "signature": "mul(uint256,uint256)"
                    },
                    "errorInfo": "",
                    "fromAddress": "0x66d0b8f1c539a395fb402cc25ade893b109e187f",
                    "gasUsed": 376,
                    "id": 3,
                    "methodDecoded": true,
                    "operation": "DELEGATECALL",
                    "output": "0x000000000000000000000000000000000000000000000086716f2672bbd3c000",
                    "revert": false,
                    "revertMessage": "",
                    "selector": "0xc8a4ac9c",
                    "status": true,
                    "value": "0"
                },
                "nodeType": 0
            },
            "30": {
                "event": {
                    "contract": "0x136f79961b7ab2a91104ec892c288e225e100214",
                    "decodedLog": null,
                    "id": 30,
                    "logData": "0x0000000000000000000000000000000000000000000000000000711e4fb1a600000000000000000000000000fad15102f126f4d289ec3678f8fb2c402372b6cf",
                    "logDecoded": false,
                    "operation": "EVENT",
                    "revert": false,
                    "status": true,
                    "topics": [
                        "0xff46cdeebedb8eef4f20c8d08d7162be738f44ca8c504eafc5d6b519e519928a"
                    ]
                },
                "nodeType": 1
            },
            "31": {
                "event": {
                    "contract": "0x136f79961b7ab2a91104ec892c288e225e100214",
                    "decodedLog": null,
                    "id": 31,
                    "logData": "0x0000000000000000000000000000000000000000000000000003fa10cd3ed6000000000000000000000000009f9db20a533742e4a78e3851880709e5220a70a2",
                    "logDecoded": false,
                    "operation": "EVENT",
                    "revert": false,
                    "status": true,
                    "topics": [
                        "0x0c2a2f565c7774c59e49ef6b3c255329f4d254147e06e724d3a8569bb7bd21ad"
                    ]
                },
                "nodeType": 1
            },
            "32": {
                "event": {
                    "contract": "0x136f79961b7ab2a91104ec892c288e225e100214",
                    "decodedLog": null,
                    "id": 32,
                    "logData": "0x0000000000000000000000000000000000000000000000000373bcce9be0e000000000000000000000000000000000000000000000000be30d33450c266197f7000000000000000000000000000000000000000000000c01ca19edd3623e609c",
                    "logDecoded": false,
                    "operation": "EVENT",
                    "revert": false,
                    "status": true,
                    "topics": [
                        "0x9f849d23f4955d98202378ea318f2b0c7533695d3c9fb2a3931f0f919fa8c420"
                    ]
                },
                "nodeType": 1
            },
            "4": {
                "invocation": {
                    "address": "0x04a0b0f2768777e068ea423431cef88f527bc434",
                    "callData": "0x000000000000000000000000000000000000000000000086716f2672bbd3c0000000000000000000000000000000000000000000000546873f8f5bb152088644",
                    "decodedMethod": {
                        "callParams": [
                            {
                                "name": "a",
                                "type": "uint256",
                                "value": "2,480,037,500,000,000,000,000"
                            },
                            {
                                "name": "b",
                                "type": "uint256",
                                "value": "6,377,689,642,304,135,030,670,916"
                            }
                        ],
                        "constructorArguments": "",
                        "name": "mul",
                        "returnParams": [
                            {
                                "name": "",
                                "type": "uint256",
                                "value": "15,816,909,476,275,841,281,127,521,839,350,000,000,000,000,000"
                            }
                        ],
                        "signature": "mul(uint256,uint256)"
                    },
                    "errorInfo": "",
                    "fromAddress": "0x66d0b8f1c539a395fb402cc25ade893b109e187f",
                    "gasUsed": 376,
                    "id": 4,
                    "methodDecoded": true,
                    "operation": "DELEGATECALL",
                    "output": "0x00000000000000000000000002c5413757922ffe6ece4e80a60db6e8babf0000",
                    "revert": false,
                    "revertMessage": "",
                    "selector": "0xc8a4ac9c",
                    "status": true,
                    "value": "0"
                },
                "nodeType": 0
            },
            "5": {
                "invocation": {
                    "address": "0x04a0b0f2768777e068ea423431cef88f527bc434",
                    "callData": "0x0000000000000000000000000000000000000000000000017fae2fcbf9bc23660000000000000000000000000000000000000000000000000000000000002710",
                    "decodedMethod": {
                        "callParams": [
                            {
                                "name": "a",
                                "type": "uint256",
                                "value": "27,647,087,715,588,776,806"
                            },
                            {
                                "name": "b",
                                "type": "uint256",
                                "value": "10,000"
                            }
                        ],
                        "constructorArguments": "",
                        "name": "mul",
                        "returnParams": [
                            {
                                "name": "",
                                "type": "uint256",
                                "value": "276,470,877,155,887,768,060,000"
                            }
                        ],
                        "signature": "mul(uint256,uint256)"
                    },
                    "errorInfo": "",
                    "fromAddress": "0x66d0b8f1c539a395fb402cc25ade893b109e187f",
                    "gasUsed": 376,
                    "id": 5,
                    "methodDecoded": true,
                    "operation": "DELEGATECALL",
                    "output": "0x000000000000000000000000000000000000000000003a8b842b0fcb4526c060",
                    "revert": false,
                    "revertMessage": "",
                    "selector": "0xc8a4ac9c",
                    "status": true,
                    "value": "0"
                },
                "nodeType": 0
            },
            "6": {
                "invocation": {
                    "address": "0x04a0b0f2768777e068ea423431cef88f527bc434",
                    "callData": "0x000000000000000000000000000000000000000000003a8b842b0fcb4526c060000000000000000000000000000000000000000000000086716f2672bbd3c000",
                    "decodedMethod": {
                        "callParams": [
                            {
                                "name": "a",
                                "type": "uint256",
                                "value": "276,470,877,155,887,768,060,000"
                            },
                            {
                                "name": "b",
                                "type": "uint256",
                                "value": "2,480,037,500,000,000,000,000"
                            }
                        ],
                        "constructorArguments": "",
                        "name": "add",
                        "returnParams": [
                            {
                                "name": "",
                                "type": "uint256",
                                "value": "278,950,914,655,887,768,060,000"
                            }
                        ],
                        "signature": "add(uint256,uint256)"
                    },
                    "errorInfo": "",
                    "fromAddress": "0x66d0b8f1c539a395fb402cc25ade893b109e187f",
                    "gasUsed": 279,
                    "id": 6,
                    "methodDecoded": true,
                    "operation": "DELEGATECALL",
                    "output": "0x000000000000000000000000000000000000000000003b11f59a363e00fa8060",
                    "revert": false,
                    "revertMessage": "",
                    "selector": "0x771602f7",
                    "status": true,
                    "value": "0"
                },
                "nodeType": 0
            },
            "7": {
                "invocation": {
                    "address": "0xc02aaa39b223fe8d0a0e5c4f27ead9083c756cc2",
                    "callData": "0x",
                    "decodedMethod": {
                        "callParams": [],
                        "constructorArguments": "",
                        "name": "deposit",
                        "returnParams": [],
                        "signature": "deposit()"
                    },
                    "errorInfo": "",
                    "fromAddress": "0x136f79961b7ab2a91104ec892c288e225e100214",
                    "gasUsed": 23974,
                    "id": 7,
                    "methodDecoded": true,
                    "operation": "CALL",
                    "output": "",
                    "revert": false,
                    "revertMessage": "",
                    "selector": "0xd0e30db0",
                    "status": true,
                    "value": "0.24875"
                },
                "nodeType": 0
            },
            "8": {
                "event": {
                    "contract": "0xc02aaa39b223fe8d0a0e5c4f27ead9083c756cc2",
                    "decodedLog": {
                        "name": "Deposit",
                        "params": [
                            {
                                "name": "dst",
                                "type": "address",
                                "value": "0x136f79961b7ab2a91104ec892c288e225e100214"
                            },
                            {
                                "name": "wad",
                                "type": "uint256",
                                "value": "248,750,000,000,000,000"
                            }
                        ],
                        "signature": "Deposit(address,uint256)"
                    },
                    "id": 8,
                    "logData": "0x0000000000000000000000000000000000000000000000000373bcce9be0e000",
                    "logDecoded": true,
                    "operation": "EVENT",
                    "revert": false,
                    "status": true,
                    "topics": [
                        "0xe1fffcc4923d04b559f4d29a8bfc6cda04eb5b0d3c460751c2402c5c5cc9109c",
                        "0x000000000000000000000000136f79961b7ab2a91104ec892c288e225e100214"
                    ]
                },
                "nodeType": 1
            },
            "9": {
                "invocation": {
                    "address": "0x66d0b8f1c539a395fb402cc25ade893b109e187f",
                    "callData": "0x0000000000000000000000007a250d5630b4cf539739df2c5dacb4c659f2488d000000000000000000000000c02aaa39b223fe8d0a0e5c4f27ead9083c756cc2000000000000000000000000abec00542d141bddf58649bfe860c6449807237c",
                    "decodedMethod": null,
                    "errorInfo": "",
                    "fromAddress": "0x136f79961b7ab2a91104ec892c288e225e100214",
                    "gasUsed": 1396,
                    "id": 9,
                    "methodDecoded": false,
                    "operation": "STATICCALL",
                    "output": "0x00000000000000000000000060a8ea6005f7db580bc0c9341e7e6275d114e874",
                    "revert": false,
                    "revertMessage": "",
                    "selector": "0x88813e1f",
                    "status": true,
                    "value": "0"
                },
                "nodeType": 0
            }
        },
        "gasFlame": [
            {
                "children": [
                    {
                        "children": [
                            {
                                "children": [],
                                "depth": 0,
                                "name": "Initial Gas",
                                "value": 23708
                            },
                            {
                                "children": [
                                    {
                                        "children": [
                                            {
                                                "children": [],
                                                "depth": 2,
                                                "name": "getReserves",
                                                "value": 2504
                                            },
                                            {
                                                "children": [],
                                                "depth": 2,
                                                "name": "mul",
                                                "value": 376
                                            },
                                            {
                                                "children": [],
                                                "depth": 2,
                                                "name": "mul",
                                                "value": 376
                                            },
                                            {
                                                "children": [],
                                                "depth": 2,
                                                "name": "mul",
                                                "value": 376
                                            },
                                            {
                                                "children": [],
                                                "depth": 2,
                                                "name": "add",
                                                "value": 279
                                            }
                                        ],
                                        "depth": 1,
                                        "name": "0x3cbb026e",
                                        "value": 14147
                                    },
                                    {
                                        "children": [],
                                        "depth": 1,
                                        "name": "deposit",
                                        "value": 23974
                                    },
                                    {
                                        "children": [],
                                        "depth": 1,
                                        "name": "0x88813e1f",
                                        "value": 1396
                                    },
                                    {
                                        "children": [],
                                        "depth": 1,
                                        "name": "transfer",
                                        "value": 8062
                                    },
                                    {
                                        "children": [],
                                        "depth": 1,
                                        "name": "balanceOf",
                                        "value": 2909
                                    },
                                    {
                                        "children": [
                                            {
                                                "children": [],
                                                "depth": 2,
                                                "name": "getReserves",
                                                "value": 504
                                            },
                                            {
                                                "children": [],
                                                "depth": 2,
                                                "name": "balanceOf",
                                                "value": 534
                                            },
                                            {
                                                "children": [],
                                                "depth": 2,
                                                "name": "sub",
                                                "value": 300
                                            },
                                            {
                                                "children": [],
                                                "depth": 2,
                                                "name": "mul",
                                                "value": 376
                                            },
                                            {
                                                "children": [],
                                                "depth": 2,
                                                "name": "mul",
                                                "value": 376
                                            },
                                            {
                                                "children": [],
                                                "depth": 2,
                                                "name": "mul",
                                                "value": 376
                                            },
                                            {
                                                "children": [],
                                                "depth": 2,
                                                "name": "add",
                                                "value": 279
                                            },
                                            {
                                                "children": [
                                                    {
                                                        "children": [],
                                                        "depth": 3,
                                                        "name": "transfer",
                                                        "value": 80736
                                                    },
                                                    {
                                                        "children": [],
                                                        "depth": 3,
                                                        "name": "balanceOf",
                                                        "value": 909
                                                    },
                                                    {
                                                        "children": [],
                                                        "depth": 3,
                                                        "name": "balanceOf",
                                                        "value": 534
                                                    }
                                                ],
                                                "depth": 2,
                                                "name": "swap",
                                                "value": 113502
                                            }
                                        ],
                                        "depth": 1,
                                        "name": "0x5154e7f4",
                                        "value": 122518
                                    },
                                    {
                                        "children": [],
                                        "depth": 1,
                                        "name": "balanceOf",
                                        "value": 909
                                    }
                                ],
                                "depth": 0,
                                "name": "Executed Gas",
                                "value": 221912
                            }
                        ],
                        "depth": -1,
                        "name": "Actual Gas Used",
                        "value": 222920
                    },
                    {
                        "children": [],
                        "depth": -1,
                        "name": "Refunded Gas",
                        "value": 22700
                    }
                ],
                "depth": -2,
                "name": "Total Gas",
                "value": 245620
            }
        ],
        "isConfirmed": true,
        "mainTrace": [
            {
                "children": [
                    {
                        "children": [
                            {
                                "children": [
                                    {
                                        "children": [],
                                        "depth": 2,
                                        "id": 2,
                                        "order": 2
                                    },
                                    {
                                        "children": [],
                                        "depth": 2,
                                        "id": 3,
                                        "order": 3
                                    },
                                    {
                                        "children": [],
                                        "depth": 2,
                                        "id": 4,
                                        "order": 4
                                    },
                                    {
                                        "children": [],
                                        "depth": 2,
                                        "id": 5,
                                        "order": 5
                                    },
                                    {
                                        "children": [],
                                        "depth": 2,
                                        "id": 6,
                                        "order": 6
                                    }
                                ],
                                "depth": 1,
                                "id": 1,
                                "order": 1
                            },
                            {
                                "children": [
                                    {
                                        "children": [],
                                        "depth": 2,
                                        "id": 8,
                                        "order": 8
                                    }
                                ],
                                "depth": 1,
                                "id": 7,
                                "order": 7
                            },
                            {
                                "children": [],
                                "depth": 1,
                                "id": 9,
                                "order": 9
                            },
                            {
                                "children": [
                                    {
                                        "children": [],
                                        "depth": 2,
                                        "id": 11,
                                        "order": 11
                                    }
                                ],
                                "depth": 1,
                                "id": 10,
                                "order": 10
                            },
                            {
                                "children": [],
                                "depth": 1,
                                "id": 12,
                                "order": 12
                            },
                            {
                                "children": [
                                    {
                                        "children": [],
                                        "depth": 2,
                                        "id": 14,
                                        "order": 14
                                    },
                                    {
                                        "children": [],
                                        "depth": 2,
                                        "id": 15,
                                        "order": 15
                                    },
                                    {
                                        "children": [],
                                        "depth": 2,
                                        "id": 16,
                                        "order": 16
                                    },
                                    {
                                        "children": [],
                                        "depth": 2,
                                        "id": 17,
                                        "order": 17
                                    },
                                    {
                                        "children": [],
                                        "depth": 2,
                                        "id": 18,
                                        "order": 18
                                    },
                                    {
                                        "children": [],
                                        "depth": 2,
                                        "id": 19,
                                        "order": 19
                                    },
                                    {
                                        "children": [],
                                        "depth": 2,
                                        "id": 20,
                                        "order": 20
                                    },
                                    {
                                        "children": [
                                            {
                                                "children": [
                                                    {
                                                        "children": [],
                                                        "depth": 4,
                                                        "id": 23,
                                                        "order": 23
                                                    },
                                                    {
                                                        "children": [],
                                                        "depth": 4,
                                                        "id": 24,
                                                        "order": 24
                                                    }
                                                ],
                                                "depth": 3,
                                                "id": 22,
                                                "order": 22
                                            },
                                            {
                                                "children": [],
                                                "depth": 3,
                                                "id": 25,
                                                "order": 25
                                            },
                                            {
                                                "children": [],
                                                "depth": 3,
                                                "id": 26,
                                                "order": 26
                                            },
                                            {
                                                "children": [],
                                                "depth": 3,
                                                "id": 27,
                                                "order": 27
                                            },
                                            {
                                                "children": [],
                                                "depth": 3,
                                                "id": 28,
                                                "order": 28
                                            }
                                        ],
                                        "depth": 2,
                                        "id": 21,
                                        "order": 21
                                    }
                                ],
                                "depth": 1,
                                "id": 13,
                                "order": 13
                            },
                            {
                                "children": [],
                                "depth": 1,
                                "id": 29,
                                "order": 29
                            },
                            {
                                "children": [],
                                "depth": 1,
                                "id": 30,
                                "order": 30
                            },
                            {
                                "children": [],
                                "depth": 1,
                                "id": 31,
                                "order": 31
                            },
                            {
                                "children": [],
                                "depth": 1,
                                "id": 32,
                                "order": 32
                            }
                        ],
                        "depth": 0,
                        "id": 0,
                        "order": 0
                    }
                ],
                "depth": -1,
                "id": -1,
                "order": -1
            }
        ],
        "mainTraceNodeCount": 33,
        "parentIdMap": {
            "0": -1,
            "1": 0,
            "10": 0,
            "11": 10,
            "12": 0,
            "13": 0,
            "14": 13,
            "15": 13,
            "16": 13,
            "17": 13,
            "18": 13,
            "19": 13,
            "2": 1,
            "20": 13,
            "21": 13,
            "22": 21,
            "23": 22,
            "24": 22,
            "25": 21,
            "26": 21,
            "27": 21,
            "28": 21,
            "29": 0,
            "3": 1,
            "30": 0,
            "31": 0,
            "32": 0,
            "4": 1,
            "5": 1,
            "6": 1,
            "7": 0,
            "8": 7,
            "9": 0
        },
        "tidyTrace": [
            {
                "children": [
                    {
                        "children": [
                            {
                                "children": [
                                    {
                                        "children": [],
                                        "depth": 2,
                                        "id": 8,
                                        "order": 8
                                    }
                                ],
                                "depth": 1,
                                "id": 7,
                                "order": 7
                            },
                            {
                                "children": [
                                    {
                                        "children": [],
                                        "depth": 2,
                                        "id": 11,
                                        "order": 11
                                    }
                                ],
                                "depth": 1,
                                "id": 10,
                                "order": 10
                            },
                            {
                                "children": [
                                    {
                                        "children": [],
                                        "depth": 2,
                                        "id": 16,
                                        "order": 16
                                    },
                                    {
                                        "children": [],
                                        "depth": 2,
                                        "id": 17,
                                        "order": 17
                                    },
                                    {
                                        "children": [],
                                        "depth": 2,
                                        "id": 18,
                                        "order": 18
                                    },
                                    {
                                        "children": [],
                                        "depth": 2,
                                        "id": 19,
                                        "order": 19
                                    },
                                    {
                                        "children": [],
                                        "depth": 2,
                                        "id": 20,
                                        "order": 20
                                    },
                                    {
                                        "children": [
                                            {
                                                "children": [
                                                    {
                                                        "children": [],
                                                        "depth": 4,
                                                        "id": 23,
                                                        "order": 23
                                                    },
                                                    {
                                                        "children": [],
                                                        "depth": 4,
                                                        "id": 24,
                                                        "order": 24
                                                    }
                                                ],
                                                "depth": 3,
                                                "id": 22,
                                                "order": 22
                                            },
                                            {
                                                "children": [],
                                                "depth": 3,
                                                "id": 27,
                                                "order": 27
                                            },
                                            {
                                                "children": [],
                                                "depth": 3,
                                                "id": 28,
                                                "order": 28
                                            }
                                        ],
                                        "depth": 2,
                                        "id": 21,
                                        "order": 21
                                    }
                                ],
                                "depth": 1,
                                "id": 13,
                                "order": 13
                            },
                            {
                                "children": [],
                                "depth": 1,
                                "id": 30,
                                "order": 30
                            },
                            {
                                "children": [],
                                "depth": 1,
                                "id": 31,
                                "order": 31
                            },
                            {
                                "children": [],
                                "depth": 1,
                                "id": 32,
                                "order": 32
                            }
                        ],
                        "depth": 0,
                        "id": 0,
                        "order": 0
                    }
                ],
                "depth": -1,
                "id": -1,
                "order": -1
            }
        ],
        "tidyTraceNodeCount": 20
    },
    "state_change": {
        "stateChanges": [
            {
                "address": "0x136f79961b7ab2a91104ec892c288e225e100214",
                "erc": "",
                "slots": [
                    {
                        "current": "0x0000000000000000000000000000000000000000000000000b499c923ef78a2e",
                        "key": "0x0000000000000000000000000000000000000000000000000000000000000002",
                        "prev": "0x0000000000000000000000000000000000000000000000000b492b73ef45e42e"
                    },
                    {
                        "current": "0x00000000000000000000000000000000000000000000000000f46ceda73f6a22",
                        "key": "0x324fdf7bfe7bd2828491073f0b7868a9a19ee3eff384c2805040be3e426447f6",
                        "prev": "0x00000000000000000000000000000000000000000000000000f3fbcf578dc422"
                    },
                    {
                        "current": "0x0000000000000000000000000000000000000000000000007bab69400437309b",
                        "key": "0x0000000000000000000000000000000000000000000000000000000000000003",
                        "prev": "0x0000000000000000000000000000000000000000000000007ba76f2f36f85a9b"
                    }
                ],
                "storageVariables": []
            },
            {
                "address": "0x60a8ea6005f7db580bc0c9341e7e6275d114e874",
                "erc": "ERC-20",
                "slots": [
                    {
                        "current": "0x00000000000000000000000000000000000001b3c8aa41c53c48e36561f5bb38",
                        "key": "0x0000000000000000000000000000000000000000000000000000000000000009",
                        "prev": "0x00000000000000000000000000000000000001b05feba634bb4949147b80cfc0"
                    },
                    {
                        "current": "0x0000000000000000000000000000bdf24b4de4dcfc48943228c9bfe89932d18c",
                        "key": "0x000000000000000000000000000000000000000000000000000000000000000a",
                        "prev": "0x0000000000000000000000000000bdc80e14174dcd9ced124e2dca3aa4bf3d78"
                    },
                    {
                        "current": "0x64c99d4b0000000000018321ec9a959d0366000000053a8575756dddefca25a8",
                        "key": "0x0000000000000000000000000000000000000000000000000000000000000008",
                        "prev": "0x64c99d3f0000000000017fae2fcbf9bc23660000000546873f8f5bb152088644"
                    }
                ],
                "storageVariables": [
                    {
                        "name": "price1CumulativeLast",
                        "type": "uint256",
                        "value": {
                            "current": "16546670470445993363592937361255702140735884",
                            "prev": "16532297227997412091959931691955021611482488",
                            "typeTag": 1
                        }
                    },
                    {
                        "name": "reserve0",
                        "type": "uint112",
                        "value": {
                            "current": "6320988234833263357207976",
                            "prev": "6377689642304135030670916",
                            "typeTag": 1
                        }
                    },
                    {
                        "name": "reserve1",
                        "type": "uint112",
                        "value": {
                            "current": "27895837715588776806",
                            "prev": "27647087715588776806",
                            "typeTag": 1
                        }
                    },
                    {
                        "name": "blockTimestampLast",
                        "type": "uint32",
                        "value": {
                            "current": "1690934603",
                            "prev": "1690934591",
                            "typeTag": 1
                        }
                    },
                    {
                        "name": "price0CumulativeLast",
                        "type": "uint256",
                        "value": {
                            "current": "34526353523650764294809168755512",
                            "prev": "34256252164548393306100611469248",
                            "typeTag": 1
                        }
                    }
                ]
            },
            {
                "address": "0xabec00542d141bddf58649bfe860c6449807237c",
                "erc": "ERC-20",
                "slots": [
                    {
                        "current": "0x000000000000000000000000000000000000000000000ce44d58ecc03167f71b",
                        "key": "0x0000000000000000000000000000000000000000000000000000000000000020",
                        "prev": "0x000000000000000000000000000000000000000000000cc5907243f8f58b2e76"
                    },
                    {
                        "current": "0x000000000000000000000000000000000000000000053a8575756dddefca25a8",
                        "key": "0x9c9fd3a0f072f9dbd996fcb83a3f3206ee9b022ba90cf3f31cedd02e647746de",
                        "prev": "0x0000000000000000000000000000000000000000000546873f8f5bb152088644"
                    },
                    {
                        "current": "0x000000000000000000000000000000000000000000000ce44d58ecc03167f71b",
                        "key": "0x69dc062dcd5d0d23d140c84adc88be5a8fd996278d9e0578a471d0965d5b650b",
                        "prev": "0x000000000000000000000000000000000000000000000cc5907243f8f58b2e76"
                    },
                    {
                        "current": "0x000000000000000000000000000000000000000000000be30d33450c266197f7",
                        "key": "0x83929783fe50ef0c3ba9174a35ab40f5455cd4c51f4dde79d18de22946a18ee6",
                        "prev": "0x0000000000000000000000000000000000000000000000000000000000000000"
                    }
                ],
                "storageVariables": [
                    {
                        "name": "_balances",
                        "type": "mapping(address => uint256)",
                        "value": {
                            "pairs": [
                                {
                                    "key": "0x60a8ea6005f7db580bc0c9341e7e6275d114e874",
                                    "value": {
                                        "current": "6320988234833263357207976",
                                        "prev": "6377689642304135030670916",
                                        "typeTag": 1
                                    }
                                },
                                {
                                    "key": "0x9f9db20a533742e4a78e3851880709e5220a70a2",
                                    "value": {
                                        "current": "56134393396162956728311",
                                        "prev": "0",
                                        "typeTag": 1
                                    }
                                },
                                {
                                    "key": "0xabec00542d141bddf58649bfe860c6449807237c",
                                    "value": {
                                        "current": "60879828908090598094619",
                                        "prev": "60312814833381881359990",
                                        "typeTag": 1
                                    }
                                }
                            ],
                            "typeTag": 4
                        }
                    },
                    {
                        "name": "tokensForDev",
                        "type": "uint256",
                        "value": {
                            "current": "60879828908090598094619",
                            "prev": "60312814833381881359990",
                            "typeTag": 1
                        }
                    }
                ]
            },
            {
                "address": "0xc02aaa39b223fe8d0a0e5c4f27ead9083c756cc2",
                "erc": "ERC-20",
                "slots": [
                    {
                        "current": "0x0000000000000000000000000000000000000000000000018321ec9a959d0366",
                        "key": "0xa3363ed2415d57d86fab7df24923d332734b113fd490ad9a174d712c585e5879",
                        "prev": "0x0000000000000000000000000000000000000000000000017fae2fcbf9bc2366"
                    }
                ],
                "storageVariables": [
                    {
                        "name": "balanceOf",
                        "type": "mapping(address => uint256)",
                        "value": {
                            "pairs": [
                                {
                                    "key": "0x60a8ea6005f7db580bc0c9341e7e6275d114e874",
                                    "value": {
                                        "current": "27895837715588776806",
                                        "prev": "27647087715588776806",
                                        "typeTag": 1
                                    }
                                }
                            ],
                            "typeTag": 4
                        }
                    }
                ]
            }
        ]
    }
}