{
    "balance_change": {
        "balanceChanges": [
            {
                "account": "0x2585d2efcd0996b3bf6e0ba134800cfba2704268",
                "assets": [
                    {
                        "address": "0x767fe9edc9e0df98e07454847909b5e959d7ca0e",
                        "amount": "20",
                        "iconUrl": "https://assets.blocksec.com/icon/b8d9ae2e18a42382e616b490db6fa3413d1dc0a6d9e557b10b1afe908f09e8d7.png",
                        "isERC1155": false,
                        "isERC721": false,
                        "sign": false,
                        "value": "30242.0587"
                    }
                ]
            },
            {
                "account": "0xa1d8d972560c2f8144af871db508f0b0b10a3fbf",
                "assets": [
                    {
                        "address": "0x767fe9edc9e0df98e07454847909b5e959d7ca0e",
                        "amount": "20",
                        "iconUrl": "https://assets.blocksec.com/icon/b8d9ae2e18a42382e616b490db6fa3413d1dc0a6d9e557b10b1afe908f09e8d7.png",
                        "isERC1155": false,
                        "isERC721": false,
                        "sign": true,
                        "value": "30242.0587"
                    }
                ]
            }
        ]
    },
    "profile": {
        "basic_info": {
            "baseFee": "82.945243964",
            "blockNumber": 13703377,
            "callData": "0xa9059cbb000000000000000000000000a1d8d972560c2f8144af871db508f0b0b10a3fbf000000000000000000000000000000000000000000000001158e460913d00000",
            "debugEnable": true,
            "errorInfo": "",
            "eventCount": 2,
            "feeRecipient": "0xea674fdde714fd979de3edf0f56aa9716b898ec8",
            "formatValue": "0",
            "gasLimit": 116633,
            "gasPrice": "111",
            "gasUsed": 39622,
            "intTxnCount": 0,
            "internalRevert": false,
            "internalRevertMessage": "",
            "isContractCreation": false,
            "isFlashloan": false,
            "maxFee": "",
            "nonce": 8,
            "overwritedBlockNumber": -1,
            "priorityFee": "",
            "receiver": "0x767fe9edc9e0df98e07454847909b5e959d7ca0e",
            "revertMessage": "",
            "sender": "0x2585d2efcd0996b3bf6e0ba134800cfba2704268",
            "simulationEnable": true,
            "sourceTxnHash": "0xa5ab2edac1dec9d67362a4905c948deda5da06742727a7f1ab9acb0ef3bbc902",
            "status": true,
            "timestamp": "2021-11-28T16:15:27Z",
            "transactionFee": "0.004398042",
            "txnHash": "0xa5ab2edac1dec9d67362a4905c948deda5da06742727a7f1ab9acb0ef3bbc902",
            "txnIndex": 225,
            "type": 0,
            "value": "0"
        },
        "fund_flow": [
            {
                "amount": "20",
                "from": "0x2585d2efcd0996b3bf6e0ba134800cfba2704268",
                "id": 1,
                "isERC1155": false,
                "isERC721": false,
                "isReverted": false,
                "order": 1,
                "to": "0xa1d8d972560c2f8144af871db508f0b0b10a3fbf",
                "token": "0x767fe9edc9e0df98e07454847909b5e959d7ca0e"
            }
        ],
        "token_infos": [
            {
                "address": "0xc02aaa39b223fe8d0a0e5c4f27ead9083c756cc2",
                "decimals": 18
            },
            {
                "address": "0xeeeeeeeeeeeeeeeeeeeeeeeeeeeeeeeeeeeeeeee",
                "decimals": 18
            },
            {
                "address": "0x767fe9edc9e0df98e07454847909b5e959d7ca0e",
                "decimals": 18
            }
        ]
    },
    "address_label": {
        "labels": [
            {
                "address": "0x2585d2efcd0996b3bf6e0ba134800cfba2704268",
                "label": "KUCOIN"
            },
            {
                "address": "0xa1d8d972560c2f8144af871db508f0b0b10a3fbf",
                "label": "KuCoin 3"
            },
            {
                "address": "0x767fe9edc9e0df98e07454847909b5e959d7ca0e",
                "label": "Illuvium (ILV)"
            },
            {
                "address": "0x0000000000000000000000000000000000000001",
                "label": "Precompiled"
            },
            {
                "address": "0x0000000000000000000000000000000000000002",
                "label": "Precompiled"
            },
            {
                "address": "0x0000000000000000000000000000000000000003",
                "label": "Precompiled"
            },
            {
                "address": "0x0000000000000000000000000000000000000004",
                "label": "Precompiled"
            },
            {
                "address": "0xeeeeeeeeeeeeeeeeeeeeeeeeeeeeeeeeeeeeeeee",
                "label": "Ether"
            }
        ]
    },
    "trace": {
        "accountLabels": null,
        "dataMap": {
            "-1": {
                "invocation": {
                    "address": "0x2585d2efcd0996b3bf6e0ba134800cfba2704268",
                    "callData": "",
                    "decodedMethod": null,
                    "errorInfo": "",
                    "fromAddress": "",
                    "gasUsed": 0,
                    "id": -1,
                    "methodDecoded": false,
                    "operation": "",
                    "output": "",
                    "revert": false,
                    "revertMessage": "",
                    "selector": "",
                    "status": false,
                    "value": ""
                },
                "nodeType": 0
            },
            "0": {
                "invocation": {
                    "address": "0x767fe9edc9e0df98e07454847909b5e959d7ca0e",
                    "callData": "0x000000000000000000000000a1d8d972560c2f8144af871db508f0b0b10a3fbf000000000000000000000000000000000000000000000001158e460913d00000",
                    "decodedMethod": {
                        "callParams": [
                            {
                                "name": "_to",
                                "type": "address",
                                "value": "0xa1d8d972560c2f8144af871db508f0b0b10a3fbf"
                            },
                            {
                                "decimalAvailable": true,
                                "name": "_value",
                                "type": "uint256",
                                "value": "20,000,000,000,000,000,000"
                            }
                        ],
                        "constructorArguments": "",
                        "name": "transfer",
                        "returnParams": [
                            {
                                "name": "success",
                                "type": "bool",
                                "value": true
                            }
                        ],
                        "signature": "transfer(address,uint256)"
                    },
                    "errorInfo": "",
                    "fromAddress": "0x2585d2efcd0996b3bf6e0ba134800cfba2704268",
                    "gasUsed": 39622,
                    "id": 0,
                    "methodDecoded": true,
                    "operation": "CALL",
                    "output": "0x0000000000000000000000000000000000000000000000000000000000000001",
                    "revert": false,
                    "revertMessage": "",
                    "selector": "0xa9059cbb",
                    "status": true,
                    "value": "0"
                },
                "nodeType": 0
            },
            "1": {
                "event": {
                    "contract": "0x767fe9edc9e0df98e07454847909b5e959d7ca0e",
                    "decodedLog": {
                        "name": "Transferred",
                        "params": [
                            {
                                "name": "_by",
                                "type": "address",
                                "value": "0x2585d2efcd0996b3bf6e0ba134800cfba2704268"
                            },
                            {
                                "name": "_from",
                                "type": "address",
                                "value": "0x2585d2efcd0996b3bf6e0ba134800cfba2704268"
                            },
                            {
                                "name": "_to",
                                "type": "address",
                                "value": "0xa1d8d972560c2f8144af871db508f0b0b10a3fbf"
                            },
                            {
                                "name": "_value",
                                "type": "uint256",
                                "value": "20,000,000,000,000,000,000"
                            }
                        ],
                        "signature": "Transferred(address,address,address,uint256)"
                    },
                    "id": 1,
                    "logData": "0x000000000000000000000000000000000000000000000001158e460913d00000",
                    "logDecoded": true,
                    "operation": "EVENT",
                    "revert": false,
                    "status": true,
                    "topics": [
                        "0x769254a71d2f67d8ac6cb44f2803c0d05cfbcf9effadb6a984f10ff9de3df6c3",
                        "0x0000000000000000000000002585d2efcd0996b3bf6e0ba134800cfba2704268",
                        "0x0000000000000000000000002585d2efcd0996b3bf6e0ba134800cfba2704268",
                        "0x000000000000000000000000a1d8d972560c2f8144af871db508f0b0b10a3fbf"
                    ]
                },
                "nodeType": 1
            },
            "2": {
                "event": {
                    "contract": "0x767fe9edc9e0df98e07454847909b5e959d7ca0e",
                    "decodedLog": {
                        "name": "Transfer",
                        "params": [
                            {
                                "name": "_from",
                                "type": "address",
                                "value": "0x2585d2efcd0996b3bf6e0ba134800cfba2704268"
                            },
                            {
                                "name": "_to",
                                "type": "address",
                                "value": "0xa1d8d972560c2f8144af871db508f0b0b10a3fbf"
                            },
                            {
                                "decimalAvailable": true,
                                "name": "_value",
                                "type": "uint256",
                                "value": "20,000,000,000,000,000,000"
                            }
                        ],
                        "signature": "Transfer(address,address,uint256)"
                    },
                    "id": 2,
                    "logData": "0x000000000000000000000000000000000000000000000001158e460913d00000",
                    "logDecoded": true,
                    "operation": "EVENT",
                    "revert": false,
                    "status": true,
                    "topics": [
                        "0xddf252ad1be2c89b69c2b068fc378daa952ba7f163c4a11628f55a4df523b3ef",
                        "0x0000000000000000000000002585d2efcd0996b3bf6e0ba134800cfba2704268",
                        "0x000000000000000000000000a1d8d972560c2f8144af871db508f0b0b10a3fbf"
                    ]
                },
                "nodeType": 1
            }
        },
        "gasFlame": [
            {
                "children": [
                    {
                        "children": [
                            {
                                "children": [],
                                "depth": 0,
                                "name": "Initial Gas",
                                "value": 21644
                            },
                            {
                                "children": [],
                                "depth": 0,
                                "name": "Executed Gas",
                                "value": 22778
                            }
                        ],
                        "depth": -1,
                        "name": "Actual Gas Used",
                        "value": 39622
                    },
                    {
                        "children": [],
                        "depth": -1,
                        "name": "Refunded Gas",
                        "value": 4800
                    }
                ],
                "depth": -2,
                "name": "Total Gas",
                "value": 44422
            }
        ],
        "isConfirmed": true,
        "mainTrace": [
            {
                "children": [
                    {
                        "children": [
                            {
                                "children": [],
                                "depth": 1,
                                "id": 1,
                                "order": 1
                            },
                            {
                                "children": [],
                                "depth": 1,
                                "id": 2,
                                "order": 2
                            }
                        ],
                        "depth": 0,
                        "id": 0,
                        "order": 0
                    }
                ],
                "depth": -1,
                "id": -1,
                "order": -1
            }
        ],
        "mainTraceNodeCount": 3,
        "parentIdMap": {
            "0": -1,
            "1": 0,
            "2": 0
        },
        "tidyTrace": [
            {
                "children": [
                    {
                        "children": [
                            {
                                "children": [],
                                "depth": 1,
                                "id": 1,
                                "order": 1
                            },
                            {
                                "children": [],
                                "depth": 1,
                                "id": 2,
                                "order": 2
                            }
                        ],
                        "depth": 0,
                        "id": 0,
                        "order": 0
                    }
                ],
                "depth": -1,
                "id": -1,
                "order": -1
            }
        ],
        "tidyTraceNodeCount": 3
    },
    "state_change": {
        "stateChanges": [
            {
                "address": "0x767fe9edc9e0df98e07454847909b5e959d7ca0e",
                "erc": "ERC-20",
                "slots": [
                    {
                        "current": "0x0000000000000000000000000000000000000000000000000000000000000000",
                        "key": "0xbbaf2a3affafc29f6ef249fbcffcdd592cc84829f2154193f273fad7c12ba1fc",
                        "prev": "0x000000000000000000000000000000000000000000000001158e460913d00000"
                    },
                    {
                        "current": "0x000000000000000000000000000000000000000000000039e64ebb801e4fe6a2",
                        "key": "0xd576e75d4fba81e6af2bd1684051ea0775fbe303e76998df28ff96e2df0c4ba5",
                        "prev": "0x000000000000000000000000000000000000000000000038d0c075770a7fe6a2"
                    }
                ],
                "storageVariables": [
                    {
                        "name": "tokenBalances",
                        "type": "mapping(address => uint256)",
                        "value": {
                            "pairs": [
                                {
                                    "key": "0x2585d2efcd0996b3bf6e0ba134800cfba2704268",
                                    "value": {
                                        "current": "0",
                                        "prev": "20000000000000000000",
                                        "typeTag": 1
                                    }
                                },
                                {
                                    "key": "0xa1d8d972560c2f8144af871db508f0b0b10a3fbf",
                                    "value": {
                                        "current": "1068059820037290059426",
                                        "prev": "1048059820037290059426",
                                        "typeTag": 1
                                    }
                                }
                            ],
                            "typeTag": 4
                        }
                    }
                ]
            }
        ]
    }
}