{
    "balance_change": {
        "balanceChanges": [
            {
                "account": "0x72ea4b81029e518e492fa46457a7694fad281d21",
                "assets": [
                    {
                        "address": "0xe6b75a1960f91bfa7010dec8543685ead67f8cff",
                        "amount": "11,308",
                        "iconUrl": "",
                        "isERC1155": false,
                        "isERC721": false,
                        "sign": false,
                        "value": ""
                    }
                ]
            },
            {
                "account": "0x976fd3868e93df4762e1912761dc9f3b8b7408fd",
                "assets": [
                    {
                        "address": "0xe6b75a1960f91bfa7010dec8543685ead67f8cff",
                        "amount": "11,308",
                        "iconUrl": "",
                        "isERC1155": false,
                        "isERC721": false,
                        "sign": true,
                        "value": ""
                    }
                ]
            }
        ]
    },
    "profile": {
        "basic_info": {
            "baseFee": "",
            "blockNumber": 9052472,
            "callData": "0xa9059cbb000000000000000000000000976fd3868e93df4762e1912761dc9f3b8b7408fd000000000000000000000000000000000000000000000265020647a5f5300000",
            "debugEnable": true,
            "errorInfo": "",
            "eventCount": 1,
            "feeRecipient": "0xaa5c4244f05c92781c4f259913319d8ba1acf05e",
            "formatValue": "0",
            "gasLimit": 210000,
            "gasPrice": "10",
            "gasUsed": 38040,
            "intTxnCount": 0,
            "internalRevert": false,
            "internalRevertMessage": "",
            "isContractCreation": false,
            "isFlashloan": false,
            "maxFee": "",
            "nonce": 2579,
            "overwritedBlockNumber": -1,
            "priorityFee": "",
            "receiver": "0xe6b75a1960f91bfa7010dec8543685ead67f8cff",
            "revertMessage": "",
            "sender": "0x72ea4b81029e518e492fa46457a7694fad281d21",
            "simulationEnable": true,
            "sourceTxnHash": "0xa5bcdc2878c55517457c91d5f7fd8139cf784acc6e31e369faa772e99e0d4a8a",
            "status": true,
            "timestamp": "2019-12-05T02:05:23Z",
            "transactionFee": "0.0003804",
            "txnHash": "0xa5bcdc2878c55517457c91d5f7fd8139cf784acc6e31e369faa772e99e0d4a8a",
            "txnIndex": 17,
            "type": 0,
            "value": "0"
        },
        "fund_flow": [
            {
                "amount": "11,308",
                "from": "0x72ea4b81029e518e492fa46457a7694fad281d21",
                "id": 1,
                "isERC1155": false,
                "isERC721": false,
                "isReverted": false,
                "order": 1,
                "to": "0x976fd3868e93df4762e1912761dc9f3b8b7408fd",
                "token": "0xe6b75a1960f91bfa7010dec8543685ead67f8cff"
            }
        ],
        "token_infos": [
            {
                "address": "0xc02aaa39b223fe8d0a0e5c4f27ead9083c756cc2",
                "decimals": 18
            },
            {
                "address": "0xe6b75a1960f91bfa7010dec8543685ead67f8cff",
                "decimals": 18
            },
            {
                "address": "0xeeeeeeeeeeeeeeeeeeeeeeeeeeeeeeeeeeeeeeee",
                "decimals": 18
            }
        ]
    },
    "address_label": {
        "labels": [
            {
                "address": "0x0000000000000000000000000000000000000004",
                "label": "Precompiled"
            },
            {
                "address": "0xeeeeeeeeeeeeeeeeeeeeeeeeeeeeeeeeeeeeeeee",
                "label": "Ether"
            },
            {
                "address": "0xe6b75a1960f91bfa7010dec8543685ead67f8cff",
                "label": "Sea Cucumber Chain (SCC)"
            },
            {
                "address": "0x0000000000000000000000000000000000000001",
                "label": "Precompiled"
            },
            {
                "address": "0x0000000000000000000000000000000000000002",
                "label": "Precompiled"
            },
            {
                "address": "0x0000000000000000000000000000000000000003",
                "label": "Precompiled"
            }
        ]
    },
    "trace": {
        "accountLabels": null,
        "dataMap": {
            "-1": {
                "invocation": {
                    "address": "0x72ea4b81029e518e492fa46457a7694fad281d21",
                    "callData": "",
                    "decodedMethod": null,
                    "errorInfo": "",
                    "fromAddress": "",
                    "gasUsed": 0,
                    "id": -1,
                    "methodDecoded": false,
                    "operation": "",
                    "output": "",
                    "revert": false,
                    "revertMessage": "",
                    "selector": "",
                    "status": false,
                    "value": ""
                },
                "nodeType": 0
            },
            "0": {
                "invocation": {
                    "address": "0xe6b75a1960f91bfa7010dec8543685ead67f8cff",
                    "callData": "0x000000000000000000000000976fd3868e93df4762e1912761dc9f3b8b7408fd000000000000000000000000000000000000000000000265020647a5f5300000",
                    "decodedMethod": {
                        "callParams": [
                            {
                                "name": "_to",
                                "type": "address",
                                "value": "0x976fd3868e93df4762e1912761dc9f3b8b7408fd"
                            },
                            {
                                "decimalAvailable": true,
                                "name": "_value",
                                "type": "uint256",
                                "value": "11,308,000,000,000,000,000,000"
                            }
                        ],
                        "constructorArguments": "",
                        "name": "transfer",
                        "returnParams": [
                            {
                                "name": "",
                                "type": "bool",
                                "value": true
                            }
                        ],
                        "signature": "transfer(address,uint256)"
                    },
                    "errorInfo": "",
                    "fromAddress": "0x72ea4b81029e518e492fa46457a7694fad281d21",
                    "gasUsed": 38040,
                    "id": 0,
                    "methodDecoded": true,
                    "operation": "CALL",
                    "output": "0x0000000000000000000000000000000000000000000000000000000000000001",
                    "revert": false,
                    "revertMessage": "",
                    "selector": "0xa9059cbb",
                    "status": true,
                    "value": "0"
                },
                "nodeType": 0
            },
            "1": {
                "event": {
                    "contract": "0xe6b75a1960f91bfa7010dec8543685ead67f8cff",
                    "decodedLog": {
                        "name": "Transfer",
                        "params": [
                            {
                                "name": "from",
                                "type": "address",
                                "value": "0x72ea4b81029e518e492fa46457a7694fad281d21"
                            },
                            {
                                "name": "to",
                                "type": "address",
                                "value": "0x976fd3868e93df4762e1912761dc9f3b8b7408fd"
                            },
                            {
                                "decimalAvailable": true,
                                "name": "value",
                                "type": "uint256",
                                "value": "11,308,000,000,000,000,000,000"
                            }
                        ],
                        "signature": "Transfer(address,address,uint256)"
                    },
                    "id": 1,
                    "logData": "0x000000000000000000000000000000000000000000000265020647a5f5300000",
                    "logDecoded": true,
                    "operation": "EVENT",
                    "revert": false,
                    "status": true,
                    "topics": [
                        "0xddf252ad1be2c89b69c2b068fc378daa952ba7f163c4a11628f55a4df523b3ef",
                        "0x00000000000000000000000072ea4b81029e518e492fa46457a7694fad281d21",
                        "0x000000000000000000000000976fd3868e93df4762e1912761dc9f3b8b7408fd"
                    ]
                },
                "nodeType": 1
            }
        },
        "gasFlame": [
            {
                "children": [
                    {
                        "children": [
                            {
                                "children": [],
                                "depth": 0,
                                "name": "Initial Gas",
                                "value": 23320
                            },
                            {
                                "children": [],
                                "depth": 0,
                                "name": "Executed Gas",
                                "value": 14720
                            }
                        ],
                        "depth": -1,
                        "name": "Actual Gas Used",
                        "value": 38040
                    },
                    {
                        "children": [],
                        "depth": -1,
                        "name": "Refunded Gas",
                        "value": 0
                    }
                ],
                "depth": -2,
                "name": "Total Gas",
                "value": 38040
            }
        ],
        "isConfirmed": true,
        "mainTrace": [
            {
                "children": [
                    {
                        "children": [
                            {
                                "children": [],
                                "depth": 1,
                                "id": 1,
                                "order": 1
                            }
                        ],
                        "depth": 0,
                        "id": 0,
                        "order": 0
                    }
                ],
                "depth": -1,
                "id": -1,
                "order": -1
            }
        ],
        "mainTraceNodeCount": 2,
        "parentIdMap": {
            "0": -1,
            "1": 0
        },
        "tidyTrace": [
            {
                "children": [
                    {
                        "children": [
                            {
                                "children": [],
                                "depth": 1,
                                "id": 1,
                                "order": 1
                            }
                        ],
                        "depth": 0,
                        "id": 0,
                        "order": 0
                    }
                ],
                "depth": -1,
                "id": -1,
                "order": -1
            }
        ],
        "tidyTraceNodeCount": 2
    },
    "state_change": {
        "stateChanges": [
            {
                "address": "0xe6b75a1960f91bfa7010dec8543685ead67f8cff",
                "erc": "ERC-20",
                "slots": [
                    {
                        "current": "0x0000000000000000000000000000000000000000000a230a468d1dfe91ba0000",
                        "key": "0xbb70d87d4a796b546fd199ec5ddfbbc5228a1c3c24bb367ec57f892cd6869de1",
                        "prev": "0x0000000000000000000000000000000000000000000a256f489365a486ea0000"
                    },
                    {
                        "current": "0x00000000000000000000000000000000000000000000033dd9fcd42e170c4000",
                        "key": "0x7765b4549c138d292dd48db321b47ecf4ac3c91dbaaaea21ef8804003d28f2d2",
                        "prev": "0x0000000000000000000000000000000000000000000000d8d7f68c8821dc4000"
                    }
                ],
                "storageVariables": [
                    {
                        "name": "balances",
                        "type": "mapping(address => uint256)",
                        "value": {
                            "pairs": [
                                {
                                    "key": "0x72ea4b81029e518e492fa46457a7694fad281d21",
                                    "value": {
                                        "current": "12254730574240000000000000",
                                        "prev": "12266038574240000000000000",
                                        "typeTag": 1
                                    }
                                },
                                {
                                    "key": "0x976fd3868e93df4762e1912761dc9f3b8b7408fd",
                                    "value": {
                                        "current": "15308058500000000000000",
                                        "prev": "4000058500000000000000",
                                        "typeTag": 1
                                    }
                                }
                            ],
                            "typeTag": 4
                        }
                    }
                ]
            }
        ]
    }
}