{
    "balance_change": {
        "balanceChanges": [
            {
                "account": "0x06af15221e784e4367dcaca46355449c62daab38",
                "assets": [
                    {
                        "address": "0xeef6e90034eea89e31eb4b8eacd323f28a92eae4",
                        "amount": "11,000,000,000,000,000,000,000",
                        "iconUrl": "",
                        "isERC1155": false,
                        "isERC721": false,
                        "sign": false,
                        "value": ""
                    }
                ]
            },
            {
                "account": "0xa12cff06d3cdbb85899304dee5606eb09230c745",
                "assets": [
                    {
                        "address": "0xeef6e90034eea89e31eb4b8eacd323f28a92eae4",
                        "amount": "11,000,000,000,000,000,000,000",
                        "iconUrl": "",
                        "isERC1155": false,
                        "isERC721": false,
                        "sign": true,
                        "value": ""
                    }
                ]
            }
        ]
    },
    "profile": {
        "basic_info": {
            "baseFee": "",
            "blockNumber": 5210361,
            "callData": "0xa9059cbb000000000000000000000000a12cff06d3cdbb85899304dee5606eb09230c7450000000000000000000000000000000000000000000002544faa778090e00000",
            "debugEnable": true,
            "errorInfo": "",
            "eventCount": 1,
            "feeRecipient": "0xea674fdde714fd979de3edf0f56aa9716b898ec8",
            "formatValue": "0",
            "gasLimit": 37745,
            "gasPrice": "99",
            "gasUsed": 37745,
            "intTxnCount": 0,
            "internalRevert": false,
            "internalRevertMessage": "",
            "isContractCreation": false,
            "isFlashloan": false,
            "maxFee": "",
            "nonce": 92,
            "overwritedBlockNumber": -1,
            "priorityFee": "",
            "receiver": "0xeef6e90034eea89e31eb4b8eacd323f28a92eae4",
            "revertMessage": "",
            "sender": "0x06af15221e784e4367dcaca46355449c62daab38",
            "simulationEnable": true,
            "sourceTxnHash": "0xa5bb4163dc7fa88b756f9ae42ff7aa9aeb4ecd6da59662c9cbb4f80a6d79abce",
            "status": true,
            "timestamp": "2018-03-07T03:27:53Z",
            "transactionFee": "0.003736755",
            "txnHash": "0xa5bb4163dc7fa88b756f9ae42ff7aa9aeb4ecd6da59662c9cbb4f80a6d79abce",
            "txnIndex": 0,
            "type": 0,
            "value": "0"
        },
        "fund_flow": [
            {
                "amount": "11,000,000,000,000,000,000,000",
                "from": "0x06af15221e784e4367dcaca46355449c62daab38",
                "id": 1,
                "isERC1155": false,
                "isERC721": false,
                "isReverted": false,
                "order": 1,
                "to": "0xa12cff06d3cdbb85899304dee5606eb09230c745",
                "token": "0xeef6e90034eea89e31eb4b8eacd323f28a92eae4"
            }
        ],
        "token_infos": [
            {
                "address": "0xc02aaa39b223fe8d0a0e5c4f27ead9083c756cc2",
                "decimals": 18
            },
            {
                "address": "0xeeeeeeeeeeeeeeeeeeeeeeeeeeeeeeeeeeeeeeee",
                "decimals": 18
            }
        ]
    },
    "address_label": {
        "labels": [
            {
                "address": "0xeeeeeeeeeeeeeeeeeeeeeeeeeeeeeeeeeeeeeeee",
                "label": "Ether"
            },
            {
                "address": "0x0000000000000000000000000000000000000001",
                "label": "Precompiled"
            },
            {
                "address": "0x0000000000000000000000000000000000000002",
                "label": "Precompiled"
            },
            {
                "address": "0x0000000000000000000000000000000000000003",
                "label": "Precompiled"
            },
            {
                "address": "0x0000000000000000000000000000000000000004",
                "label": "Precompiled"
            }
        ]
    },
    "trace": {
        "accountLabels": null,
        "dataMap": {
            "-1": {
                "invocation": {
                    "address": "0x06af15221e784e4367dcaca46355449c62daab38",
                    "callData": "",
                    "decodedMethod": null,
                    "errorInfo": "",
                    "fromAddress": "",
                    "gasUsed": 0,
                    "id": -1,
                    "methodDecoded": false,
                    "operation": "",
                    "output": "",
                    "revert": false,
                    "revertMessage": "",
                    "selector": "",
                    "status": false,
                    "value": ""
                },
                "nodeType": 0
            },
            "0": {
                "invocation": {
                    "address": "0xeef6e90034eea89e31eb4b8eacd323f28a92eae4",
                    "callData": "0x000000000000000000000000a12cff06d3cdbb85899304dee5606eb09230c7450000000000000000000000000000000000000000000002544faa778090e00000",
                    "decodedMethod": {
                        "callParams": [
                            {
                                "name": "recipient",
                                "type": "address",
                                "value": "0xa12cff06d3cdbb85899304dee5606eb09230c745"
                            },
                            {
                                "decimalAvailable": true,
                                "name": "amount",
                                "type": "uint256",
                                "value": "11,000,000,000,000,000,000,000"
                            }
                        ],
                        "constructorArguments": "",
                        "name": "transfer",
                        "returnParams": [
                            {
                                "name": "",
                                "type": "bool",
                                "value": true
                            }
                        ],
                        "signature": "transfer(address,uint256)"
                    },
                    "errorInfo": "",
                    "fromAddress": "0x06af15221e784e4367dcaca46355449c62daab38",
                    "gasUsed": 37745,
                    "id": 0,
                    "methodDecoded": true,
                    "operation": "CALL",
                    "output": "0x0000000000000000000000000000000000000000000000000000000000000001",
                    "revert": false,
                    "revertMessage": "",
                    "selector": "0xa9059cbb",
                    "status": true,
                    "value": "0"
                },
                "nodeType": 0
            },
            "1": {
                "event": {
                    "contract": "0xeef6e90034eea89e31eb4b8eacd323f28a92eae4",
                    "decodedLog": {
                        "name": "Transfer",
                        "params": [
                            {
                                "name": "from",
                                "type": "address",
                                "value": "0x06af15221e784e4367dcaca46355449c62daab38"
                            },
                            {
                                "name": "to",
                                "type": "address",
                                "value": "0xa12cff06d3cdbb85899304dee5606eb09230c745"
                            },
                            {
                                "decimalAvailable": true,
                                "name": "value",
                                "type": "uint256",
                                "value": "11,000,000,000,000,000,000,000"
                            }
                        ],
                        "signature": "Transfer(address,address,uint256)"
                    },
                    "id": 1,
                    "logData": "0x0000000000000000000000000000000000000000000002544faa778090e00000",
                    "logDecoded": true,
                    "operation": "EVENT",
                    "revert": false,
                    "status": true,
                    "topics": [
                        "0xddf252ad1be2c89b69c2b068fc378daa952ba7f163c4a11628f55a4df523b3ef",
                        "0x00000000000000000000000006af15221e784e4367dcaca46355449c62daab38",
                        "0x000000000000000000000000a12cff06d3cdbb85899304dee5606eb09230c745"
                    ]
                },
                "nodeType": 1
            }
        },
        "gasFlame": [
            {
                "children": [
                    {
                        "children": [
                            {
                                "children": [],
                                "depth": 0,
                                "name": "Initial Gas",
                                "value": 23320
                            },
                            {
                                "children": [],
                                "depth": 0,
                                "name": "Executed Gas",
                                "value": 14425
                            }
                        ],
                        "depth": -1,
                        "name": "Actual Gas Used",
                        "value": 37745
                    },
                    {
                        "children": [],
                        "depth": -1,
                        "name": "Refunded Gas",
                        "value": 0
                    }
                ],
                "depth": -2,
                "name": "Total Gas",
                "value": 37745
            }
        ],
        "isConfirmed": true,
        "mainTrace": [
            {
                "children": [
                    {
                        "children": [
                            {
                                "children": [],
                                "depth": 1,
                                "id": 1,
                                "order": 1
                            }
                        ],
                        "depth": 0,
                        "id": 0,
                        "order": 0
                    }
                ],
                "depth": -1,
                "id": -1,
                "order": -1
            }
        ],
        "mainTraceNodeCount": 2,
        "parentIdMap": {
            "0": -1,
            "1": 0
        },
        "tidyTrace": [
            {
                "children": [
                    {
                        "children": [
                            {
                                "children": [],
                                "depth": 1,
                                "id": 1,
                                "order": 1
                            }
                        ],
                        "depth": 0,
                        "id": 0,
                        "order": 0
                    }
                ],
                "depth": -1,
                "id": -1,
                "order": -1
            }
        ],
        "tidyTraceNodeCount": 2
    },
    "state_change": {
        "stateChanges": [
            {
                "address": "0xeef6e90034eea89e31eb4b8eacd323f28a92eae4",
                "erc": "",
                "slots": [
                    {
                        "current": "0x000000000000000000000000000000000000000000001dad1cf05fdc98f80000",
                        "key": "0x317e06ec0012e733fec2718516108a229bf524f49479fc26342fca3da9967439",
                        "prev": "0x0000000000000000000000000000000000000000000020016c9ad75d29d80000"
                    },
                    {
                        "current": "0x0000000000000000000000000000000000000000000003120bec57b51c100000",
                        "key": "0xb53d6b06c1f20c7a14ebf9c944b8034ba4c49ea46ab52a4319837ed524670a08",
                        "prev": "0x0000000000000000000000000000000000000000000000bdbc41e0348b300000"
                    }
                ],
                "storageVariables": []
            }
        ]
    }
}