{
    "balance_change": {
        "balanceChanges": [
            {
                "account": "0x6cc5f688a315f3dc28a7781717a9a798a59fda7b",
                "assets": [
                    {
                        "address": "0x7fc66500c84a76ad7e9c93437bfc5ac33e2ddae9",
                        "amount": "315.61",
                        "iconUrl": "https://assets.blocksec.com/icon/62f48bc5d1faeb48ff872297b2d01aca7a06f6613f30d65440b9b7703425b7e3.png",
                        "isERC1155": false,
                        "isERC721": false,
                        "sign": false,
                        "value": "32577.26419999999964"
                    }
                ]
            },
            {
                "account": "0xfa103c21ea2df71dfb92b0652f8b1d795e51cdef",
                "assets": [
                    {
                        "address": "0x7fc66500c84a76ad7e9c93437bfc5ac33e2ddae9",
                        "amount": "315.61",
                        "iconUrl": "https://assets.blocksec.com/icon/62f48bc5d1faeb48ff872297b2d01aca7a06f6613f30d65440b9b7703425b7e3.png",
                        "isERC1155": false,
                        "isERC721": false,
                        "sign": true,
                        "value": "32577.26419999999964"
                    }
                ]
            }
        ]
    },
    "profile": {
        "basic_info": {
            "baseFee": "43.512999562",
            "blockNumber": 18806324,
            "callData": "0xa9059cbb000000000000000000000000fa103c21ea2df71dfb92b0652f8b1d795e51cdef0000000000000000000000000000000000000000000000111bf7f6d399090000",
            "debugEnable": true,
            "errorInfo": "",
            "eventCount": 5,
            "feeRecipient": "0xa27cef8af2b6575903b676e5644657fae96f491f",
            "formatValue": "0",
            "gasLimit": 420000,
            "gasPrice": "44.012999562",
            "gasUsed": 201322,
            "intTxnCount": 1,
            "internalRevert": false,
            "internalRevertMessage": "",
            "isContractCreation": false,
            "isFlashloan": false,
            "maxFee": "400",
            "nonce": 2694223,
            "overwritedBlockNumber": -1,
            "priorityFee": "0.5",
            "receiver": "0x7fc66500c84a76ad7e9c93437bfc5ac33e2ddae9",
            "revertMessage": "",
            "sender": "0x6cc5f688a315f3dc28a7781717a9a798a59fda7b",
            "simulationEnable": true,
            "sourceTxnHash": "0xa673a35fd89f15417e830f2f2202e478d7771c59c2a32490d87d1ab2d599d398",
            "status": true,
            "timestamp": "2023-12-17T14:25:23Z",
            "transactionFee": "0.008860785097820964",
            "txnHash": "0xa673a35fd89f15417e830f2f2202e478d7771c59c2a32490d87d1ab2d599d398",
            "txnIndex": 183,
            "type": 2,
            "value": "0"
        },
        "fund_flow": [
            {
                "amount": "315.61",
                "from": "0x6cc5f688a315f3dc28a7781717a9a798a59fda7b",
                "id": 1,
                "isERC1155": false,
                "isERC721": false,
                "isReverted": false,
                "order": 1,
                "to": "0xfa103c21ea2df71dfb92b0652f8b1d795e51cdef",
                "token": "0x7fc66500c84a76ad7e9c93437bfc5ac33e2ddae9"
            }
        ],
        "token_infos": [
            {
                "address": "0x7fc66500c84a76ad7e9c93437bfc5ac33e2ddae9",
                "decimals": 18
            },
            {
                "address": "0xc02aaa39b223fe8d0a0e5c4f27ead9083c756cc2",
                "decimals": 18
            },
            {
                "address": "0xeeeeeeeeeeeeeeeeeeeeeeeeeeeeeeeeeeeeeeee",
                "decimals": 18
            }
        ]
    },
    "address_label": {
        "labels": [
            {
                "address": "0x0000000000000000000000000000000000000002",
                "label": "Precompiled"
            },
            {
                "address": "0x0000000000000000000000000000000000000003",
                "label": "Precompiled"
            },
            {
                "address": "0x0000000000000000000000000000000000000004",
                "label": "Precompiled"
            },
            {
                "address": "0xeeeeeeeeeeeeeeeeeeeeeeeeeeeeeeeeeeeeeeee",
                "label": "Ether"
            },
            {
                "address": "0x6cc5f688a315f3dc28a7781717a9a798a59fda7b",
                "label": "OKX"
            },
            {
                "address": "0x7fc66500c84a76ad7e9c93437bfc5ac33e2ddae9",
                "label": "Aave: AAVE Token"
            },
            {
                "address": "0x96f68837877fd0414b55050c9e794aecdbcfca59",
                "label": "Aave Token (AAVE)"
            },
            {
                "address": "0x0000000000000000000000000000000000000001",
                "label": "Precompiled"
            }
        ]
    },
    "trace": {
        "accountLabels": null,
        "dataMap": {
            "-1": {
                "invocation": {
                    "address": "0x6cc5f688a315f3dc28a7781717a9a798a59fda7b",
                    "callData": "",
                    "decodedMethod": null,
                    "errorInfo": "",
                    "fromAddress": "",
                    "gasUsed": 0,
                    "id": -1,
                    "methodDecoded": false,
                    "operation": "",
                    "output": "",
                    "revert": false,
                    "revertMessage": "",
                    "selector": "",
                    "status": false,
                    "value": ""
                },
                "nodeType": 0
            },
            "0": {
                "invocation": {
                    "address": "0x7fc66500c84a76ad7e9c93437bfc5ac33e2ddae9",
                    "callData": "0x000000000000000000000000fa103c21ea2df71dfb92b0652f8b1d795e51cdef0000000000000000000000000000000000000000000000111bf7f6d399090000",
                    "decodedMethod": {
                        "callParams": [
                            {
                                "name": "recipient",
                                "type": "address",
                                "value": "0xfa103c21ea2df71dfb92b0652f8b1d795e51cdef"
                            },
                            {
                                "decimalAvailable": true,
                                "name": "amount",
                                "type": "uint256",
                                "value": "315,610,000,000,000,000,000"
                            }
                        ],
                        "constructorArguments": "",
                        "name": "transfer",
                        "returnParams": [
                            {
                                "name": "",
                                "type": "bool",
                                "value": true
                            }
                        ],
                        "signature": "transfer(address,uint256)"
                    },
                    "errorInfo": "",
                    "fromAddress": "0x6cc5f688a315f3dc28a7781717a9a798a59fda7b",
                    "gasUsed": 201322,
                    "id": 0,
                    "methodDecoded": true,
                    "operation": "CALL",
                    "output": "0x0000000000000000000000000000000000000000000000000000000000000001",
                    "revert": false,
                    "revertMessage": "",
                    "selector": "0xa9059cbb",
                    "status": true,
                    "value": "0"
                },
                "nodeType": 0
            },
            "1": {
                "invocation": {
                    "address": "0x96f68837877fd0414b55050c9e794aecdbcfca59",
                    "callData": "0x000000000000000000000000fa103c21ea2df71dfb92b0652f8b1d795e51cdef0000000000000000000000000000000000000000000000111bf7f6d399090000",
                    "decodedMethod": {
                        "callParams": [
                            {
                                "name": "recipient",
                                "type": "address",
                                "value": "0xfa103c21ea2df71dfb92b0652f8b1d795e51cdef"
                            },
                            {
                                "decimalAvailable": true,
                                "name": "amount",
                                "type": "uint256",
                                "value": "315,610,000,000,000,000,000"
                            }
                        ],
                        "constructorArguments": "",
                        "name": "transfer",
                        "returnParams": [
                            {
                                "name": "",
                                "type": "bool",
                                "value": true
                            }
                        ],
                        "signature": "transfer(address,uint256)"
                    },
                    "errorInfo": "",
                    "fromAddress": "0x7fc66500c84a76ad7e9c93437bfc5ac33e2ddae9",
                    "gasUsed": 172408,
                    "id": 1,
                    "methodDecoded": true,
                    "operation": "DELEGATECALL",
                    "output": "0x0000000000000000000000000000000000000000000000000000000000000001",
                    "revert": false,
                    "revertMessage": "",
                    "selector": "0xa9059cbb",
                    "status": true,
                    "value": "0"
                },
                "nodeType": 0
            },
            "2": {
                "event": {
                    "contract": "0x7fc66500c84a76ad7e9c93437bfc5ac33e2ddae9",
                    "decodedLog": {
                        "name": "DelegatedPowerChanged",
                        "params": [
                            {
                                "name": "user",
                                "type": "address",
                                "value": "0x6cc5f688a315f3dc28a7781717a9a798a59fda7b"
                            },
                            {
                                "name": "amount",
                                "type": "uint256",
                                "value": "148,831,402,466,460,194,006,251"
                            },
                            {
                                "name": "delegationType",
                                "type": "uint8",
                                "value": "0"
                            }
                        ],
                        "signature": "DelegatedPowerChanged(address,uint256,uint8)"
                    },
                    "id": 2,
                    "logData": "0x000000000000000000000000000000000000000000001f842a9f60ae0bfb64eb0000000000000000000000000000000000000000000000000000000000000000",
                    "logDecoded": true,
                    "operation": "EVENT",
                    "revert": false,
                    "status": true,
                    "topics": [
                        "0xa0a19463ee116110c9b282012d9b65cc5522dc38a9520340cbaf3142e550127f",
                        "0x0000000000000000000000006cc5f688a315f3dc28a7781717a9a798a59fda7b"
                    ]
                },
                "nodeType": 1
            },
            "3": {
                "event": {
                    "contract": "0x7fc66500c84a76ad7e9c93437bfc5ac33e2ddae9",
                    "decodedLog": {
                        "name": "DelegatedPowerChanged",
                        "params": [
                            {
                                "name": "user",
                                "type": "address",
                                "value": "0xfa103c21ea2df71dfb92b0652f8b1d795e51cdef"
                            },
                            {
                                "name": "amount",
                                "type": "uint256",
                                "value": "315,610,000,000,000,000,000"
                            },
                            {
                                "name": "delegationType",
                                "type": "uint8",
                                "value": "0"
                            }
                        ],
                        "signature": "DelegatedPowerChanged(address,uint256,uint8)"
                    },
                    "id": 3,
                    "logData": "0x0000000000000000000000000000000000000000000000111bf7f6d3990900000000000000000000000000000000000000000000000000000000000000000000",
                    "logDecoded": true,
                    "operation": "EVENT",
                    "revert": false,
                    "status": true,
                    "topics": [
                        "0xa0a19463ee116110c9b282012d9b65cc5522dc38a9520340cbaf3142e550127f",
                        "0x000000000000000000000000fa103c21ea2df71dfb92b0652f8b1d795e51cdef"
                    ]
                },
                "nodeType": 1
            },
            "4": {
                "event": {
                    "contract": "0x7fc66500c84a76ad7e9c93437bfc5ac33e2ddae9",
                    "decodedLog": {
                        "name": "DelegatedPowerChanged",
                        "params": [
                            {
                                "name": "user",
                                "type": "address",
                                "value": "0x6cc5f688a315f3dc28a7781717a9a798a59fda7b"
                            },
                            {
                                "name": "amount",
                                "type": "uint256",
                                "value": "148,831,402,466,460,194,006,251"
                            },
                            {
                                "name": "delegationType",
                                "type": "uint8",
                                "value": "1"
                            }
                        ],
                        "signature": "DelegatedPowerChanged(address,uint256,uint8)"
                    },
                    "id": 4,
                    "logData": "0x000000000000000000000000000000000000000000001f842a9f60ae0bfb64eb0000000000000000000000000000000000000000000000000000000000000001",
                    "logDecoded": true,
                    "operation": "EVENT",
                    "revert": false,
                    "status": true,
                    "topics": [
                        "0xa0a19463ee116110c9b282012d9b65cc5522dc38a9520340cbaf3142e550127f",
                        "0x0000000000000000000000006cc5f688a315f3dc28a7781717a9a798a59fda7b"
                    ]
                },
                "nodeType": 1
            },
            "5": {
                "event": {
                    "contract": "0x7fc66500c84a76ad7e9c93437bfc5ac33e2ddae9",
                    "decodedLog": {
                        "name": "DelegatedPowerChanged",
                        "params": [
                            {
                                "name": "user",
                                "type": "address",
                                "value": "0xfa103c21ea2df71dfb92b0652f8b1d795e51cdef"
                            },
                            {
                                "name": "amount",
                                "type": "uint256",
                                "value": "315,610,000,000,000,000,000"
                            },
                            {
                                "name": "delegationType",
                                "type": "uint8",
                                "value": "1"
                            }
                        ],
                        "signature": "DelegatedPowerChanged(address,uint256,uint8)"
                    },
                    "id": 5,
                    "logData": "0x0000000000000000000000000000000000000000000000111bf7f6d3990900000000000000000000000000000000000000000000000000000000000000000001",
                    "logDecoded": true,
                    "operation": "EVENT",
                    "revert": false,
                    "status": true,
                    "topics": [
                        "0xa0a19463ee116110c9b282012d9b65cc5522dc38a9520340cbaf3142e550127f",
                        "0x000000000000000000000000fa103c21ea2df71dfb92b0652f8b1d795e51cdef"
                    ]
                },
                "nodeType": 1
            },
            "6": {
                "event": {
                    "contract": "0x7fc66500c84a76ad7e9c93437bfc5ac33e2ddae9",
                    "decodedLog": {
                        "name": "Transfer",
                        "params": [
                            {
                                "name": "from",
                                "type": "address",
                                "value": "0x6cc5f688a315f3dc28a7781717a9a798a59fda7b"
                            },
                            {
                                "name": "to",
                                "type": "address",
                                "value": "0xfa103c21ea2df71dfb92b0652f8b1d795e51cdef"
                            },
                            {
                                "decimalAvailable": true,
                                "name": "value",
                                "type": "uint256",
                                "value": "315,610,000,000,000,000,000"
                            }
                        ],
                        "signature": "Transfer(address,address,uint256)"
                    },
                    "id": 6,
                    "logData": "0x0000000000000000000000000000000000000000000000111bf7f6d399090000",
                    "logDecoded": true,
                    "operation": "EVENT",
                    "revert": false,
                    "status": true,
                    "topics": [
                        "0xddf252ad1be2c89b69c2b068fc378daa952ba7f163c4a11628f55a4df523b3ef",
                        "0x0000000000000000000000006cc5f688a315f3dc28a7781717a9a798a59fda7b",
                        "0x000000000000000000000000fa103c21ea2df71dfb92b0652f8b1d795e51cdef"
                    ]
                },
                "nodeType": 1
            }
        },
        "gasFlame": [
            {
                "children": [
                    {
                        "children": [
                            {
                                "children": [],
                                "depth": 0,
                                "name": "Initial Gas",
                                "value": 21644
                            },
                            {
                                "children": [
                                    {
                                        "children": [],
                                        "depth": 1,
                                        "name": "transfer",
                                        "value": 172408
                                    }
                                ],
                                "depth": 0,
                                "name": "Executed Gas",
                                "value": 179678
                            }
                        ],
                        "depth": -1,
                        "name": "Actual Gas Used",
                        "value": 201322
                    },
                    {
                        "children": [],
                        "depth": -1,
                        "name": "Refunded Gas",
                        "value": 0
                    }
                ],
                "depth": -2,
                "name": "Total Gas",
                "value": 201322
            }
        ],
        "isConfirmed": true,
        "mainTrace": [
            {
                "children": [
                    {
                        "children": [
                            {
                                "children": [
                                    {
                                        "children": [],
                                        "depth": 2,
                                        "id": 2,
                                        "order": 2
                                    },
                                    {
                                        "children": [],
                                        "depth": 2,
                                        "id": 3,
                                        "order": 3
                                    },
                                    {
                                        "children": [],
                                        "depth": 2,
                                        "id": 4,
                                        "order": 4
                                    },
                                    {
                                        "children": [],
                                        "depth": 2,
                                        "id": 5,
                                        "order": 5
                                    },
                                    {
                                        "children": [],
                                        "depth": 2,
                                        "id": 6,
                                        "order": 6
                                    }
                                ],
                                "depth": 1,
                                "id": 1,
                                "order": 1
                            }
                        ],
                        "depth": 0,
                        "id": 0,
                        "order": 0
                    }
                ],
                "depth": -1,
                "id": -1,
                "order": -1
            }
        ],
        "mainTraceNodeCount": 7,
        "parentIdMap": {
            "0": -1,
            "1": 0,
            "2": 1,
            "3": 1,
            "4": 1,
            "5": 1,
            "6": 1
        },
        "tidyTrace": [
            {
                "children": [
                    {
                        "children": [
                            {
                                "children": [
                                    {
                                        "children": [],
                                        "depth": 2,
                                        "id": 2,
                                        "order": 2
                                    },
                                    {
                                        "children": [],
                                        "depth": 2,
                                        "id": 3,
                                        "order": 3
                                    },
                                    {
                                        "children": [],
                                        "depth": 2,
                                        "id": 4,
                                        "order": 4
                                    },
                                    {
                                        "children": [],
                                        "depth": 2,
                                        "id": 5,
                                        "order": 5
                                    },
                                    {
                                        "children": [],
                                        "depth": 2,
                                        "id": 6,
                                        "order": 6
                                    }
                                ],
                                "depth": 1,
                                "id": 1,
                                "order": 1
                            }
                        ],
                        "depth": 0,
                        "id": 0,
                        "order": 0
                    }
                ],
                "depth": -1,
                "id": -1,
                "order": -1
            }
        ],
        "tidyTraceNodeCount": 7
    },
    "state_change": {
        "stateChanges": [
            {
                "address": "0x7fc66500c84a76ad7e9c93437bfc5ac33e2ddae9",
                "erc": "ERC-20",
                "slots": [
                    {
                        "current": "0x000000000000000000000000000000000000000000001f842a9f60ae0bfb64eb",
                        "key": "0xf320692c47514b5ff69503836be0506f1667cd3f5c074c801b2305e178ec6842",
                        "prev": "0x000000000000000000000000000000000000000000001f9546975781a50464eb"
                    },
                    {
                        "current": "0x00000000000000111bf7f6d399090000000000000000000000000000011ef634",
                        "key": "0x0b42a38ea31168d81c0cb84a6e76ec8cc3d171033ae01696d0bbefe7403d2157",
                        "prev": "0x0000000000000000000000000000000000000000000000000000000000000000"
                    },
                    {
                        "current": "0x0000000000000000000000000000000000000000000000111bf7f6d399090000",
                        "key": "0x136a785ed65f4d6b646f2c7a77e33b6217657f5e647e97dee5783ec534858d29",
                        "prev": "0x0000000000000000000000000000000000000000000000000000000000000000"
                    },
                    {
                        "current": "0x00000000000000111bf7f6d399090000000000000000000000000000011ef634",
                        "key": "0x1d3963bb6ca72b0ebd2538b20be780d28b418582c9d9ed1d3198136f0a1d1579",
                        "prev": "0x0000000000000000000000000000000000000000000000000000000000000000"
                    },
                    {
                        "current": "0x0000000000001f842a9f60ae0bfb64eb000000000000000000000000011ef634",
                        "key": "0x19f94f6706f84ce8c4bacf071f4b21e5105263a6bc0401cbecf7eafe2b2b07b8",
                        "prev": "0x0000000000000000000000000000000000000000000000000000000000000000"
                    },
                    {
                        "current": "0x0000000000001f842a9f60ae0bfb64eb000000000000000000000000011ef634",
                        "key": "0x5ad63a56c87a87b1ca4f3b00ed0a2476e787323c25e69fbf3536ff8980804665",
                        "prev": "0x0000000000000000000000000000000000000000000000000000000000000000"
                    },
                    {
                        "current": "0x0000000000000000000000000000000000000000000000000000000000005d54",
                        "key": "0xf7b4373626f6a2647300345d9bca0f9fbc74fe46cbeaa158bd59507b613353ff",
                        "prev": "0x0000000000000000000000000000000000000000000000000000000000005d53"
                    },
                    {
                        "current": "0x0000000000000000000000000000000000000000000000000000000000012c67",
                        "key": "0xfb1c62f5f7e20c86873d588f17af6970748362b869dcd6f963d8e094506c6335",
                        "prev": "0x0000000000000000000000000000000000000000000000000000000000012c66"
                    },
                    {
                        "current": "0x0000000000000000000000000000000000000000000000000000000000005dd6",
                        "key": "0xc2504bd0b565b2ef064e955ae3fc1d806049dca2eb4dfe4ed3470e60808d2889",
                        "prev": "0x0000000000000000000000000000000000000000000000000000000000005dd5"
                    },
                    {
                        "current": "0x0000000000000000000000000000000000000000000000000000000000012ca6",
                        "key": "0x95e0cad3bf71f17c9cca9d01349074de459d6c4fffe2ef8e339b5100d7f22f0d",
                        "prev": "0x0000000000000000000000000000000000000000000000000000000000012ca5"
                    }
                ],
                "storageVariables": [
                    {
                        "name": "_votingSnapshots",
                        "type": "mapping(address => mapping(uint256 => struct GovernancePowerDelegationERC20.Snapshot))",
                        "value": {
                            "pairs": [
                                {
                                    "key": "0x6cc5f688a315f3dc28a7781717a9a798a59fda7b",
                                    "value": {
                                        "pairs": [
                                            {
                                                "key": "24021",
                                                "value": {
                                                    "fields": [
                                                        {
                                                            "name": "blockNumber",
                                                            "type": "uint128",
                                                            "value": {
                                                                "current": "18806324",
                                                                "prev": "0",
                                                                "typeTag": 1
                                                            }
                                                        },
                                                        {
                                                            "name": "value",
                                                            "type": "uint128",
                                                            "value": {
                                                                "current": "148831402466460194006251",
                                                                "prev": "0",
                                                                "typeTag": 1
                                                            }
                                                        }
                                                    ],
                                                    "typeTag": 3
                                                }
                                            }
                                        ],
                                        "typeTag": 4
                                    }
                                },
                                {
                                    "key": "0xfa103c21ea2df71dfb92b0652f8b1d795e51cdef",
                                    "value": {
                                        "pairs": [
                                            {
                                                "key": "76965",
                                                "value": {
                                                    "fields": [
                                                        {
                                                            "name": "blockNumber",
                                                            "type": "uint128",
                                                            "value": {
                                                                "current": "18806324",
                                                                "prev": "0",
                                                                "typeTag": 1
                                                            }
                                                        },
                                                        {
                                                            "name": "value",
                                                            "type": "uint128",
                                                            "value": {
                                                                "current": "315610000000000000000",
                                                                "prev": "0",
                                                                "typeTag": 1
                                                            }
                                                        }
                                                    ],
                                                    "typeTag": 3
                                                }
                                            }
                                        ],
                                        "typeTag": 4
                                    }
                                }
                            ],
                            "typeTag": 4
                        }
                    },
                    {
                        "name": "_propositionPowerSnapshots",
                        "type": "mapping(address => mapping(uint256 => struct GovernancePowerDelegationERC20.Snapshot))",
                        "value": {
                            "pairs": [
                                {
                                    "key": "0x6cc5f688a315f3dc28a7781717a9a798a59fda7b",
                                    "value": {
                                        "pairs": [
                                            {
                                                "key": "23891",
                                                "value": {
                                                    "fields": [
                                                        {
                                                            "name": "blockNumber",
                                                            "type": "uint128",
                                                            "value": {
                                                                "current": "18806324",
                                                                "prev": "0",
                                                                "typeTag": 1
                                                            }
                                                        },
                                                        {
                                                            "name": "value",
                                                            "type": "uint128",
                                                            "value": {
                                                                "current": "148831402466460194006251",
                                                                "prev": "0",
                                                                "typeTag": 1
                                                            }
                                                        }
                                                    ],
                                                    "typeTag": 3
                                                }
                                            }
                                        ],
                                        "typeTag": 4
                                    }
                                },
                                {
                                    "key": "0xfa103c21ea2df71dfb92b0652f8b1d795e51cdef",
                                    "value": {
                                        "pairs": [
                                            {
                                                "key": "76902",
                                                "value": {
                                                    "fields": [
                                                        {
                                                            "name": "blockNumber",
                                                            "type": "uint128",
                                                            "value": {
                                                                "current": "18806324",
                                                                "prev": "0",
                                                                "typeTag": 1
                                                            }
                                                        },
                                                        {
                                                            "name": "value",
                                                            "type": "uint128",
                                                            "value": {
                                                                "current": "315610000000000000000",
                                                                "prev": "0",
                                                                "typeTag": 1
                                                            }
                                                        }
                                                    ],
                                                    "typeTag": 3
                                                }
                                            }
                                        ],
                                        "typeTag": 4
                                    }
                                }
                            ],
                            "typeTag": 4
                        }
                    },
                    {
                        "name": "_balances",
                        "type": "mapping(address => uint256)",
                        "value": {
                            "pairs": [
                                {
                                    "key": "0x6cc5f688a315f3dc28a7781717a9a798a59fda7b",
                                    "value": {
                                        "current": "148831402466460194006251",
                                        "prev": "149147012466460194006251",
                                        "typeTag": 1
                                    }
                                },
                                {
                                    "key": "0xfa103c21ea2df71dfb92b0652f8b1d795e51cdef",
                                    "value": {
                                        "current": "315610000000000000000",
                                        "prev": "0",
                                        "typeTag": 1
                                    }
                                }
                            ],
                            "typeTag": 4
                        }
                    },
                    {
                        "name": "_propositionPowerSnapshotsCounts",
                        "type": "mapping(address => uint256)",
                        "value": {
                            "pairs": [
                                {
                                    "key": "0x6cc5f688a315f3dc28a7781717a9a798a59fda7b",
                                    "value": {
                                        "current": "23892",
                                        "prev": "23891",
                                        "typeTag": 1
                                    }
                                },
                                {
                                    "key": "0xfa103c21ea2df71dfb92b0652f8b1d795e51cdef",
                                    "value": {
                                        "current": "76903",
                                        "prev": "76902",
                                        "typeTag": 1
                                    }
                                }
                            ],
                            "typeTag": 4
                        }
                    },
                    {
                        "name": "_votingSnapshotsCounts",
                        "type": "mapping(address => uint256)",
                        "value": {
                            "pairs": [
                                {
                                    "key": "0x6cc5f688a315f3dc28a7781717a9a798a59fda7b",
                                    "value": {
                                        "current": "24022",
                                        "prev": "24021",
                                        "typeTag": 1
                                    }
                                },
                                {
                                    "key": "0xfa103c21ea2df71dfb92b0652f8b1d795e51cdef",
                                    "value": {
                                        "current": "76966",
                                        "prev": "76965",
                                        "typeTag": 1
                                    }
                                }
                            ],
                            "typeTag": 4
                        }
                    }
                ]
            }
        ]
    }
}