{
    "balance_change": {
        "balanceChanges": []
    },
    "profile": {
        "basic_info": {
            "baseFee": "",
            "blockNumber": 5882454,
            "callData": "0xfe35530c0000000000000000000000002b63b9ff87b9de10b569f564a3875b46951ff3e5",
            "debugEnable": true,
            "errorInfo": "",
            "eventCount": 1,
            "feeRecipient": "0x2a65aca4d5fc5b5c859090a6c34d164135398226",
            "formatValue": "0",
            "gasLimit": 47928,
            "gasPrice": "12",
            "gasUsed": 47603,
            "intTxnCount": 1,
            "internalRevert": false,
            "internalRevertMessage": "",
            "isContractCreation": false,
            "isFlashloan": false,
            "maxFee": "",
            "nonce": 4450,
            "overwritedBlockNumber": -1,
            "priorityFee": "",
            "receiver": "0x19acdb57d57b279c04fb97f3e531e2e57146f674",
            "revertMessage": "",
            "sender": "0xa28ee03590c8ff8a65bd7d9180b8ed869a147dc2",
            "simulationEnable": true,
            "sourceTxnHash": "0xa629683a7ced85a41440d7b498ce093697edd8091ac271960bd8bcf50e2078c3",
            "status": true,
            "timestamp": "2018-06-30T19:45:52Z",
            "transactionFee": "0.000571236",
            "txnHash": "0xa629683a7ced85a41440d7b498ce093697edd8091ac271960bd8bcf50e2078c3",
            "txnIndex": 89,
            "type": 0,
            "value": "0"
        },
        "fund_flow": [],
        "token_infos": [
            {
                "address": "0xc02aaa39b223fe8d0a0e5c4f27ead9083c756cc2",
                "decimals": 18
            },
            {
                "address": "0xeeeeeeeeeeeeeeeeeeeeeeeeeeeeeeeeeeeeeeee",
                "decimals": 18
            }
        ]
    },
    "address_label": {
        "labels": [
            {
                "address": "0x0000000000000000000000000000000000000002",
                "label": "Precompiled"
            },
            {
                "address": "0x0000000000000000000000000000000000000003",
                "label": "Precompiled"
            },
            {
                "address": "0x0000000000000000000000000000000000000004",
                "label": "Precompiled"
            },
            {
                "address": "0xeeeeeeeeeeeeeeeeeeeeeeeeeeeeeeeeeeeeeeee",
                "label": "Ether"
            },
            {
                "address": "0x0000000000000000000000000000000000000001",
                "label": "Precompiled"
            }
        ]
    },
    "trace": {
        "accountLabels": null,
        "dataMap": {
            "-1": {
                "invocation": {
                    "address": "0xa28ee03590c8ff8a65bd7d9180b8ed869a147dc2",
                    "callData": "",
                    "decodedMethod": null,
                    "errorInfo": "",
                    "fromAddress": "",
                    "gasUsed": 0,
                    "id": -1,
                    "methodDecoded": false,
                    "operation": "",
                    "output": "",
                    "revert": false,
                    "revertMessage": "",
                    "selector": "",
                    "status": false,
                    "value": ""
                },
                "nodeType": 0
            },
            "0": {
                "invocation": {
                    "address": "0x19acdb57d57b279c04fb97f3e531e2e57146f674",
                    "callData": "0x0000000000000000000000002b63b9ff87b9de10b569f564a3875b46951ff3e5",
                    "decodedMethod": {
                        "callParams": [
                            {
                                "name": "_userWithdrawalAccount",
                                "type": "address",
                                "value": "0x2b63b9ff87b9de10b569f564a3875b46951ff3e5"
                            }
                        ],
                        "constructorArguments": "",
                        "name": "setUserWithdrawalAccount",
                        "returnParams": [],
                        "signature": "setUserWithdrawalAccount(address)"
                    },
                    "errorInfo": "",
                    "fromAddress": "0xa28ee03590c8ff8a65bd7d9180b8ed869a147dc2",
                    "gasUsed": 47603,
                    "id": 0,
                    "methodDecoded": true,
                    "operation": "CALL",
                    "output": "",
                    "revert": false,
                    "revertMessage": "",
                    "selector": "0xfe35530c",
                    "status": true,
                    "value": "0"
                },
                "nodeType": 0
            },
            "1": {
                "invocation": {
                    "address": "0xc8b55c7ad00fb9b933b0a016c6cebceea0293bb9",
                    "callData": "0x00000000000000000000000000000000000000000000000000000000000000000000000000000000000000002b63b9ff87b9de10b569f564a3875b46951ff3e5",
                    "decodedMethod": null,
                    "errorInfo": "",
                    "fromAddress": "0x19acdb57d57b279c04fb97f3e531e2e57146f674",
                    "gasUsed": 22869,
                    "id": 1,
                    "methodDecoded": false,
                    "operation": "DELEGATECALL",
                    "output": "",
                    "revert": false,
                    "revertMessage": "",
                    "selector": "0x2eb9e5d7",
                    "status": true,
                    "value": "0"
                },
                "nodeType": 0
            },
            "2": {
                "event": {
                    "contract": "0x19acdb57d57b279c04fb97f3e531e2e57146f674",
                    "decodedLog": {
                        "name": "SetUserWithdrawalAccount",
                        "params": [
                            {
                                "name": "_userWithdrawalAccount",
                                "type": "address",
                                "value": "0x2b63b9ff87b9de10b569f564a3875b46951ff3e5"
                            }
                        ],
                        "signature": "SetUserWithdrawalAccount(address)"
                    },
                    "id": 2,
                    "logData": "0x0000000000000000000000002b63b9ff87b9de10b569f564a3875b46951ff3e5",
                    "logDecoded": true,
                    "operation": "EVENT",
                    "revert": false,
                    "status": true,
                    "topics": [
                        "0xd460e3b93adbbf0b45d6d07fc0328badc311a6eb9c2102122bb3383b6eb48b31"
                    ]
                },
                "nodeType": 1
            }
        },
        "gasFlame": [
            {
                "children": [
                    {
                        "children": [
                            {
                                "children": [],
                                "depth": 0,
                                "name": "Initial Gas",
                                "value": 22680
                            },
                            {
                                "children": [
                                    {
                                        "children": [],
                                        "depth": 1,
                                        "name": "0x2eb9e5d7",
                                        "value": 22869
                                    }
                                ],
                                "depth": 0,
                                "name": "Executed Gas",
                                "value": 24923
                            }
                        ],
                        "depth": -1,
                        "name": "Actual Gas Used",
                        "value": 47603
                    },
                    {
                        "children": [],
                        "depth": -1,
                        "name": "Refunded Gas",
                        "value": 0
                    }
                ],
                "depth": -2,
                "name": "Total Gas",
                "value": 47603
            }
        ],
        "isConfirmed": true,
        "mainTrace": [
            {
                "children": [
                    {
                        "children": [
                            {
                                "children": [
                                    {
                                        "children": [],
                                        "depth": 2,
                                        "id": 2,
                                        "order": 2
                                    }
                                ],
                                "depth": 1,
                                "id": 1,
                                "order": 1
                            }
                        ],
                        "depth": 0,
                        "id": 0,
                        "order": 0
                    }
                ],
                "depth": -1,
                "id": -1,
                "order": -1
            }
        ],
        "mainTraceNodeCount": 3,
        "parentIdMap": {
            "0": -1,
            "1": 0,
            "2": 1
        },
        "tidyTrace": [
            {
                "children": [
                    {
                        "children": [
                            {
                                "children": [
                                    {
                                        "children": [],
                                        "depth": 2,
                                        "id": 2,
                                        "order": 2
                                    }
                                ],
                                "depth": 1,
                                "id": 1,
                                "order": 1
                            }
                        ],
                        "depth": 0,
                        "id": 0,
                        "order": 0
                    }
                ],
                "depth": -1,
                "id": -1,
                "order": -1
            }
        ],
        "tidyTraceNodeCount": 3
    },
    "state_change": {
        "stateChanges": [
            {
                "address": "0x19acdb57d57b279c04fb97f3e531e2e57146f674",
                "erc": "",
                "slots": [
                    {
                        "current": "0x0000000000000000000000002b63b9ff87b9de10b569f564a3875b46951ff3e5",
                        "key": "0x0000000000000000000000000000000000000000000000000000000000000002",
                        "prev": "0x0000000000000000000000000000000000000000000000000000000000000000"
                    }
                ],
                "storageVariables": []
            }
        ]
    }
}