{
    "balance_change": {
        "balanceChanges": [
            {
                "account": "0x0e95f8f8ecbd770585766c1cd216c81aa43439a6",
                "assets": [
                    {
                        "address": "0x8fdcc30eda7e94f1c12ce0280df6cd531e8365c5",
                        "amount": "65.0114672",
                        "iconUrl": "",
                        "isERC1155": false,
                        "isERC721": false,
                        "sign": false,
                        "value": ""
                    }
                ]
            },
            {
                "account": "0xf9709102b65b82c92ce6368f3e2fea4f5118283c",
                "assets": [
                    {
                        "address": "0x8fdcc30eda7e94f1c12ce0280df6cd531e8365c5",
                        "amount": "65.0114672",
                        "iconUrl": "",
                        "isERC1155": false,
                        "isERC721": false,
                        "sign": true,
                        "value": ""
                    }
                ]
            }
        ]
    },
    "profile": {
        "basic_info": {
            "baseFee": "",
            "blockNumber": 9129775,
            "callData": "0xa9059cbb000000000000000000000000f9709102b65b82c92ce6368f3e2fea4f5118283c000000000000000000000000000000000000000000000003863720f90ef58000",
            "debugEnable": true,
            "errorInfo": "",
            "eventCount": 1,
            "feeRecipient": "0x829bd824b016326a401d083b33d092293333a830",
            "formatValue": "0",
            "gasLimit": 90000,
            "gasPrice": "8",
            "gasUsed": 38580,
            "intTxnCount": 0,
            "internalRevert": false,
            "internalRevertMessage": "",
            "isContractCreation": false,
            "isFlashloan": false,
            "maxFee": "",
            "nonce": 682691,
            "overwritedBlockNumber": -1,
            "priorityFee": "",
            "receiver": "0x8fdcc30eda7e94f1c12ce0280df6cd531e8365c5",
            "revertMessage": "",
            "sender": "0x0e95f8f8ecbd770585766c1cd216c81aa43439a6",
            "simulationEnable": true,
            "sourceTxnHash": "0xa63c6708b8957593431d6956e28106f9038f1ac418491d93802c3e6e41fbd45a",
            "status": true,
            "timestamp": "2019-12-19T08:24:01Z",
            "transactionFee": "0.00030864",
            "txnHash": "0xa63c6708b8957593431d6956e28106f9038f1ac418491d93802c3e6e41fbd45a",
            "txnIndex": 170,
            "type": 0,
            "value": "0"
        },
        "fund_flow": [
            {
                "amount": "65.0114672",
                "from": "0x0e95f8f8ecbd770585766c1cd216c81aa43439a6",
                "id": 1,
                "isERC1155": false,
                "isERC721": false,
                "isReverted": false,
                "order": 1,
                "to": "0xf9709102b65b82c92ce6368f3e2fea4f5118283c",
                "token": "0x8fdcc30eda7e94f1c12ce0280df6cd531e8365c5"
            }
        ],
        "token_infos": [
            {
                "address": "0x8fdcc30eda7e94f1c12ce0280df6cd531e8365c5",
                "decimals": 18
            },
            {
                "address": "0xc02aaa39b223fe8d0a0e5c4f27ead9083c756cc2",
                "decimals": 18
            },
            {
                "address": "0xeeeeeeeeeeeeeeeeeeeeeeeeeeeeeeeeeeeeeeee",
                "decimals": 18
            }
        ]
    },
    "address_label": {
        "labels": [
            {
                "address": "0xeeeeeeeeeeeeeeeeeeeeeeeeeeeeeeeeeeeeeeee",
                "label": "Ether"
            },
            {
                "address": "0x8fdcc30eda7e94f1c12ce0280df6cd531e8365c5",
                "label": "CpcToken (CPCT)"
            },
            {
                "address": "0x0000000000000000000000000000000000000001",
                "label": "Precompiled"
            },
            {
                "address": "0x0000000000000000000000000000000000000002",
                "label": "Precompiled"
            },
            {
                "address": "0x0000000000000000000000000000000000000003",
                "label": "Precompiled"
            },
            {
                "address": "0x0000000000000000000000000000000000000004",
                "label": "Precompiled"
            }
        ]
    },
    "trace": {
        "accountLabels": null,
        "dataMap": {
            "-1": {
                "invocation": {
                    "address": "0x0e95f8f8ecbd770585766c1cd216c81aa43439a6",
                    "callData": "",
                    "decodedMethod": null,
                    "errorInfo": "",
                    "fromAddress": "",
                    "gasUsed": 0,
                    "id": -1,
                    "methodDecoded": false,
                    "operation": "",
                    "output": "",
                    "revert": false,
                    "revertMessage": "",
                    "selector": "",
                    "status": false,
                    "value": ""
                },
                "nodeType": 0
            },
            "0": {
                "invocation": {
                    "address": "0x8fdcc30eda7e94f1c12ce0280df6cd531e8365c5",
                    "callData": "0x000000000000000000000000f9709102b65b82c92ce6368f3e2fea4f5118283c000000000000000000000000000000000000000000000003863720f90ef58000",
                    "decodedMethod": {
                        "callParams": [
                            {
                                "name": "_to",
                                "type": "address",
                                "value": "0xf9709102b65b82c92ce6368f3e2fea4f5118283c"
                            },
                            {
                                "decimalAvailable": true,
                                "name": "_value",
                                "type": "uint256",
                                "value": "65,011,467,200,000,000,000"
                            }
                        ],
                        "constructorArguments": "",
                        "name": "transfer",
                        "returnParams": [
                            {
                                "name": "success",
                                "type": "bool",
                                "value": true
                            }
                        ],
                        "signature": "transfer(address,uint256)"
                    },
                    "errorInfo": "",
                    "fromAddress": "0x0e95f8f8ecbd770585766c1cd216c81aa43439a6",
                    "gasUsed": 38580,
                    "id": 0,
                    "methodDecoded": true,
                    "operation": "CALL",
                    "output": "0x0000000000000000000000000000000000000000000000000000000000000001",
                    "revert": false,
                    "revertMessage": "",
                    "selector": "0xa9059cbb",
                    "status": true,
                    "value": "0"
                },
                "nodeType": 0
            },
            "1": {
                "event": {
                    "contract": "0x8fdcc30eda7e94f1c12ce0280df6cd531e8365c5",
                    "decodedLog": {
                        "name": "Transfer",
                        "params": [
                            {
                                "name": "_from",
                                "type": "address",
                                "value": "0x0e95f8f8ecbd770585766c1cd216c81aa43439a6"
                            },
                            {
                                "name": "_to",
                                "type": "address",
                                "value": "0xf9709102b65b82c92ce6368f3e2fea4f5118283c"
                            },
                            {
                                "decimalAvailable": true,
                                "name": "_value",
                                "type": "uint256",
                                "value": "65,011,467,200,000,000,000"
                            }
                        ],
                        "signature": "Transfer(address,address,uint256)"
                    },
                    "id": 1,
                    "logData": "0x000000000000000000000000000000000000000000000003863720f90ef58000",
                    "logDecoded": true,
                    "operation": "EVENT",
                    "revert": false,
                    "status": true,
                    "topics": [
                        "0xddf252ad1be2c89b69c2b068fc378daa952ba7f163c4a11628f55a4df523b3ef",
                        "0x0000000000000000000000000e95f8f8ecbd770585766c1cd216c81aa43439a6",
                        "0x000000000000000000000000f9709102b65b82c92ce6368f3e2fea4f5118283c"
                    ]
                },
                "nodeType": 1
            }
        },
        "gasFlame": [
            {
                "children": [
                    {
                        "children": [
                            {
                                "children": [],
                                "depth": 0,
                                "name": "Initial Gas",
                                "value": 21656
                            },
                            {
                                "children": [],
                                "depth": 0,
                                "name": "Executed Gas",
                                "value": 16924
                            }
                        ],
                        "depth": -1,
                        "name": "Actual Gas Used",
                        "value": 38580
                    },
                    {
                        "children": [],
                        "depth": -1,
                        "name": "Refunded Gas",
                        "value": 0
                    }
                ],
                "depth": -2,
                "name": "Total Gas",
                "value": 38580
            }
        ],
        "isConfirmed": true,
        "mainTrace": [
            {
                "children": [
                    {
                        "children": [
                            {
                                "children": [],
                                "depth": 1,
                                "id": 1,
                                "order": 1
                            }
                        ],
                        "depth": 0,
                        "id": 0,
                        "order": 0
                    }
                ],
                "depth": -1,
                "id": -1,
                "order": -1
            }
        ],
        "mainTraceNodeCount": 2,
        "parentIdMap": {
            "0": -1,
            "1": 0
        },
        "tidyTrace": [
            {
                "children": [
                    {
                        "children": [
                            {
                                "children": [],
                                "depth": 1,
                                "id": 1,
                                "order": 1
                            }
                        ],
                        "depth": 0,
                        "id": 0,
                        "order": 0
                    }
                ],
                "depth": -1,
                "id": -1,
                "order": -1
            }
        ],
        "tidyTraceNodeCount": 2
    },
    "state_change": {
        "stateChanges": [
            {
                "address": "0x8fdcc30eda7e94f1c12ce0280df6cd531e8365c5",
                "erc": "ERC-20",
                "slots": [
                    {
                        "current": "0x0000000000000000000000000000000000000000000000be4fa0f48927c90000",
                        "key": "0xb99392a454a17ebc1f0ccdcb7f8873d4d7d963747af9b83a12705b8926e957a3",
                        "prev": "0x0000000000000000000000000000000000000000000000bac969d39018d38000"
                    },
                    {
                        "current": "0x00000000000000000000000000000000000000000000dc4f15e3338a7c989699",
                        "key": "0x54c85f56788b4118830060fc852bcccbb781e120269b2e66678f3cce681ae0ce",
                        "prev": "0x00000000000000000000000000000000000000000000dc529c1a54838b8e1699"
                    }
                ],
                "storageVariables": [
                    {
                        "name": "balances",
                        "type": "mapping(address => uint256)",
                        "value": {
                            "pairs": [
                                {
                                    "key": "0x0e95f8f8ecbd770585766c1cd216c81aa43439a6",
                                    "value": {
                                        "current": "1040379496174109400274585",
                                        "prev": "1040444507641309400274585",
                                        "typeTag": 1
                                    }
                                },
                                {
                                    "key": "0xf9709102b65b82c92ce6368f3e2fea4f5118283c",
                                    "value": {
                                        "current": "3510619228800000000000",
                                        "prev": "3445607761600000000000",
                                        "typeTag": 1
                                    }
                                }
                            ],
                            "typeTag": 4
                        }
                    }
                ]
            }
        ]
    }
}