{
    "balance_change": {
        "balanceChanges": [
            {
                "account": "0xcd2e1b55019625a270d6a5d6505b895215860b98",
                "assets": [
                    {
                        "address": "0xcbcc0f036ed4788f63fc0fee32873d6a7487b908",
                        "amount": "1",
                        "iconUrl": "https://assets.blocksec.com/icon/ec49f5fe1fdef177c1f0a12ddac4132415758337a77d8d2246efdd6414530f4a.png",
                        "isERC1155": false,
                        "isERC721": false,
                        "sign": false,
                        "value": ""
                    }
                ]
            },
            {
                "account": "0x00eae71a16a383a9400832dfa1c45b4db1e7ea12",
                "assets": [
                    {
                        "address": "0xcbcc0f036ed4788f63fc0fee32873d6a7487b908",
                        "amount": "1",
                        "iconUrl": "https://assets.blocksec.com/icon/ec49f5fe1fdef177c1f0a12ddac4132415758337a77d8d2246efdd6414530f4a.png",
                        "isERC1155": false,
                        "isERC721": false,
                        "sign": true,
                        "value": ""
                    }
                ]
            }
        ]
    },
    "profile": {
        "basic_info": {
            "baseFee": "",
            "blockNumber": 3824731,
            "callData": "0xa9059cbb00000000000000000000000000eae71a16a383a9400832dfa1c45b4db1e7ea120000000000000000000000000000000000000000000000000000000005f5e100",
            "debugEnable": true,
            "errorInfo": "",
            "eventCount": 1,
            "feeRecipient": "0x4bb96091ee9d802ed039c4d1a5f6216f90f81b01",
            "formatValue": "0",
            "gasLimit": 151926,
            "gasPrice": "20",
            "gasUsed": 51925,
            "intTxnCount": 0,
            "internalRevert": false,
            "internalRevertMessage": "",
            "isContractCreation": false,
            "isFlashloan": false,
            "maxFee": "",
            "nonce": 7,
            "overwritedBlockNumber": -1,
            "priorityFee": "",
            "receiver": "0xcbcc0f036ed4788f63fc0fee32873d6a7487b908",
            "revertMessage": "",
            "sender": "0xcd2e1b55019625a270d6a5d6505b895215860b98",
            "simulationEnable": true,
            "sourceTxnHash": "0xa7fef9aba45bcf60f2765c5236d8a23fa6100f4af0b657a1710ae7ea39ff1c46",
            "status": true,
            "timestamp": "2017-06-05T14:57:04Z",
            "transactionFee": "0.0010385",
            "txnHash": "0xa7fef9aba45bcf60f2765c5236d8a23fa6100f4af0b657a1710ae7ea39ff1c46",
            "txnIndex": 57,
            "type": 0,
            "value": "0"
        },
        "fund_flow": [
            {
                "amount": "1",
                "from": "0xcd2e1b55019625a270d6a5d6505b895215860b98",
                "id": 1,
                "isERC1155": false,
                "isERC721": false,
                "isReverted": false,
                "order": 1,
                "to": "0x00eae71a16a383a9400832dfa1c45b4db1e7ea12",
                "token": "0xcbcc0f036ed4788f63fc0fee32873d6a7487b908"
            }
        ],
        "token_infos": [
            {
                "address": "0xc02aaa39b223fe8d0a0e5c4f27ead9083c756cc2",
                "decimals": 18
            },
            {
                "address": "0xcbcc0f036ed4788f63fc0fee32873d6a7487b908",
                "decimals": 8
            },
            {
                "address": "0xeeeeeeeeeeeeeeeeeeeeeeeeeeeeeeeeeeeeeeee",
                "decimals": 18
            }
        ]
    },
    "address_label": {
        "labels": [
            {
                "address": "0xeeeeeeeeeeeeeeeeeeeeeeeeeeeeeeeeeeeeeeee",
                "label": "Ether"
            },
            {
                "address": "0xcbcc0f036ed4788f63fc0fee32873d6a7487b908",
                "label": "Humaniq Token"
            },
            {
                "address": "0x0000000000000000000000000000000000000001",
                "label": "Precompiled"
            },
            {
                "address": "0x0000000000000000000000000000000000000002",
                "label": "Precompiled"
            },
            {
                "address": "0x0000000000000000000000000000000000000003",
                "label": "Precompiled"
            },
            {
                "address": "0x0000000000000000000000000000000000000004",
                "label": "Precompiled"
            }
        ]
    },
    "trace": {
        "accountLabels": null,
        "dataMap": {
            "-1": {
                "invocation": {
                    "address": "0xcd2e1b55019625a270d6a5d6505b895215860b98",
                    "callData": "",
                    "decodedMethod": null,
                    "errorInfo": "",
                    "fromAddress": "",
                    "gasUsed": 0,
                    "id": -1,
                    "methodDecoded": false,
                    "operation": "",
                    "output": "",
                    "revert": false,
                    "revertMessage": "",
                    "selector": "",
                    "status": false,
                    "value": ""
                },
                "nodeType": 0
            },
            "0": {
                "invocation": {
                    "address": "0xcbcc0f036ed4788f63fc0fee32873d6a7487b908",
                    "callData": "0x00000000000000000000000000eae71a16a383a9400832dfa1c45b4db1e7ea120000000000000000000000000000000000000000000000000000000005f5e100",
                    "decodedMethod": {
                        "callParams": [
                            {
                                "name": "_to",
                                "type": "address",
                                "value": "0x00eae71a16a383a9400832dfa1c45b4db1e7ea12"
                            },
                            {
                                "decimalAvailable": true,
                                "name": "_value",
                                "type": "uint256",
                                "value": "100,000,000"
                            }
                        ],
                        "constructorArguments": "",
                        "name": "transfer",
                        "returnParams": [
                            {
                                "name": "success",
                                "type": "bool",
                                "value": true
                            }
                        ],
                        "signature": "transfer(address,uint256)"
                    },
                    "errorInfo": "",
                    "fromAddress": "0xcd2e1b55019625a270d6a5d6505b895215860b98",
                    "gasUsed": 51925,
                    "id": 0,
                    "methodDecoded": true,
                    "operation": "CALL",
                    "output": "0x0000000000000000000000000000000000000000000000000000000000000001",
                    "revert": false,
                    "revertMessage": "",
                    "selector": "0xa9059cbb",
                    "status": true,
                    "value": "0"
                },
                "nodeType": 0
            },
            "1": {
                "event": {
                    "contract": "0xcbcc0f036ed4788f63fc0fee32873d6a7487b908",
                    "decodedLog": {
                        "name": "Transfer",
                        "params": [
                            {
                                "name": "from",
                                "type": "address",
                                "value": "0xcd2e1b55019625a270d6a5d6505b895215860b98"
                            },
                            {
                                "name": "to",
                                "type": "address",
                                "value": "0x00eae71a16a383a9400832dfa1c45b4db1e7ea12"
                            },
                            {
                                "decimalAvailable": true,
                                "name": "value",
                                "type": "uint256",
                                "value": "100,000,000"
                            }
                        ],
                        "signature": "Transfer(address,address,uint256)"
                    },
                    "id": 1,
                    "logData": "0x0000000000000000000000000000000000000000000000000000000005f5e100",
                    "logDecoded": true,
                    "operation": "EVENT",
                    "revert": false,
                    "status": true,
                    "topics": [
                        "0xddf252ad1be2c89b69c2b068fc378daa952ba7f163c4a11628f55a4df523b3ef",
                        "0x000000000000000000000000cd2e1b55019625a270d6a5d6505b895215860b98",
                        "0x00000000000000000000000000eae71a16a383a9400832dfa1c45b4db1e7ea12"
                    ]
                },
                "nodeType": 1
            }
        },
        "gasFlame": [
            {
                "children": [
                    {
                        "children": [
                            {
                                "children": [],
                                "depth": 0,
                                "name": "Initial Gas",
                                "value": 22936
                            },
                            {
                                "children": [],
                                "depth": 0,
                                "name": "Executed Gas",
                                "value": 28989
                            }
                        ],
                        "depth": -1,
                        "name": "Actual Gas Used",
                        "value": 51925
                    },
                    {
                        "children": [],
                        "depth": -1,
                        "name": "Refunded Gas",
                        "value": 0
                    }
                ],
                "depth": -2,
                "name": "Total Gas",
                "value": 51925
            }
        ],
        "isConfirmed": true,
        "mainTrace": [
            {
                "children": [
                    {
                        "children": [
                            {
                                "children": [],
                                "depth": 1,
                                "id": 1,
                                "order": 1
                            }
                        ],
                        "depth": 0,
                        "id": 0,
                        "order": 0
                    }
                ],
                "depth": -1,
                "id": -1,
                "order": -1
            }
        ],
        "mainTraceNodeCount": 2,
        "parentIdMap": {
            "0": -1,
            "1": 0
        },
        "tidyTrace": [
            {
                "children": [
                    {
                        "children": [
                            {
                                "children": [],
                                "depth": 1,
                                "id": 1,
                                "order": 1
                            }
                        ],
                        "depth": 0,
                        "id": 0,
                        "order": 0
                    }
                ],
                "depth": -1,
                "id": -1,
                "order": -1
            }
        ],
        "tidyTraceNodeCount": 2
    },
    "state_change": {
        "stateChanges": [
            {
                "address": "0xcbcc0f036ed4788f63fc0fee32873d6a7487b908",
                "erc": "ERC-20",
                "slots": [
                    {
                        "current": "0x0000000000000000000000000000000000000000000000000000000005f5e100",
                        "key": "0xac3d466dc77897196ae4922c4b1c28ae2d7694d0856f920ffbb12fae79be90ce",
                        "prev": "0x0000000000000000000000000000000000000000000000000000000000000000"
                    },
                    {
                        "current": "0x0000000000000000000000000000000000000000000000000000008b94fc25b3",
                        "key": "0xfd24fc7713f47b4e7b396e803934a3c950d3e6d3f32477ed3c9ba05ba590f0f4",
                        "prev": "0x0000000000000000000000000000000000000000000000000000008b9af206b3"
                    }
                ],
                "storageVariables": []
            }
        ]
    }
}