{
    "balance_change": {
        "balanceChanges": [
            {
                "account": "0xf2338a3facdc47d17a650a849c3bf953112f7968",
                "assets": [
                    {
                        "address": "0xeeeeeeeeeeeeeeeeeeeeeeeeeeeeeeeeeeeeeeee",
                        "amount": "0.02",
                        "iconUrl": "https://assets.blocksec.com/image/1663669189317-3.png",
                        "isERC1155": false,
                        "isERC721": false,
                        "sign": false,
                        "value": "35.877399999999997817"
                    },
                    {
                        "address": "0xae7ab96520de3a18e5e111b5eaab095312d7fe84",
                        "amount": "0.019999999999999999",
                        "iconUrl": "https://assets.blocksec.com/icon/3968fd5c98727016afc635f2849cea0c6ddf42095e660b8a3497ee09185b175e.png",
                        "isERC1155": false,
                        "isERC721": false,
                        "sign": true,
                        "value": "35.84980000000000018"
                    }
                ]
            },
            {
                "account": "0x0000000000000000000000000000000000000000",
                "assets": [
                    {
                        "address": "0xae7ab96520de3a18e5e111b5eaab095312d7fe84",
                        "amount": "0.019999999999999999",
                        "iconUrl": "https://assets.blocksec.com/icon/3968fd5c98727016afc635f2849cea0c6ddf42095e660b8a3497ee09185b175e.png",
                        "isERC1155": false,
                        "isERC721": false,
                        "sign": false,
                        "value": "35.84980000000000018"
                    }
                ]
            },
            {
                "account": "0xae7ab96520de3a18e5e111b5eaab095312d7fe84",
                "assets": [
                    {
                        "address": "0xeeeeeeeeeeeeeeeeeeeeeeeeeeeeeeeeeeeeeeee",
                        "amount": "0.02",
                        "iconUrl": "https://assets.blocksec.com/image/1663669189317-3.png",
                        "isERC1155": false,
                        "isERC721": false,
                        "sign": true,
                        "value": "35.877399999999997817"
                    }
                ]
            }
        ]
    },
    "profile": {
        "basic_info": {
            "baseFee": "27.38378163",
            "blockNumber": 17311479,
            "callData": "0x8a99b4f20000000000000000000000000000000000000000000000000000000000000000",
            "debugEnable": true,
            "errorInfo": "",
            "eventCount": 5,
            "feeRecipient": "0x388c818ca8b9251b393131c08a736a67ccb19297",
            "formatValue": "0.02",
            "gasLimit": 213024,
            "gasPrice": "27.48378163",
            "gasUsed": 130925,
            "intTxnCount": 8,
            "internalRevert": false,
            "internalRevertMessage": "",
            "isContractCreation": false,
            "isFlashloan": false,
            "maxFee": "39.708722791",
            "nonce": 15,
            "overwritedBlockNumber": -1,
            "priorityFee": "0.1",
            "receiver": "0x67054183db455d74839d1ea11f7e497350f64c71",
            "revertMessage": "",
            "sender": "0xf2338a3facdc47d17a650a849c3bf953112f7968",
            "simulationEnable": true,
            "sourceTxnHash": "0xa7faf0ded8135cf27c0f807e8269712340f45f05e52c538e46fddc58fde31028",
            "status": true,
            "timestamp": "2023-05-22T01:08:11Z",
            "transactionFee": "0.00359831410990775",
            "txnHash": "0xa7faf0ded8135cf27c0f807e8269712340f45f05e52c538e46fddc58fde31028",
            "txnIndex": 113,
            "type": 2,
            "value": "20000000000000000"
        },
        "fund_flow": [
            {
                "amount": "0.02",
                "from": "0xf2338a3facdc47d17a650a849c3bf953112f7968",
                "id": 1,
                "isERC1155": false,
                "isERC721": false,
                "isReverted": false,
                "order": 1,
                "to": "0x67054183db455d74839d1ea11f7e497350f64c71",
                "token": "0xeeeeeeeeeeeeeeeeeeeeeeeeeeeeeeeeeeeeeeee"
            },
            {
                "amount": "0.02",
                "from": "0x67054183db455d74839d1ea11f7e497350f64c71",
                "id": 2,
                "isERC1155": false,
                "isERC721": false,
                "isReverted": false,
                "order": 2,
                "to": "0xae7ab96520de3a18e5e111b5eaab095312d7fe84",
                "token": "0xeeeeeeeeeeeeeeeeeeeeeeeeeeeeeeeeeeeeeeee"
            },
            {
                "amount": "0.019999999999999999",
                "from": "0x0000000000000000000000000000000000000000",
                "id": 3,
                "isERC1155": false,
                "isERC721": false,
                "isReverted": false,
                "order": 3,
                "to": "0x67054183db455d74839d1ea11f7e497350f64c71",
                "token": "0xae7ab96520de3a18e5e111b5eaab095312d7fe84"
            },
            {
                "amount": "0.019999999999999999",
                "from": "0x67054183db455d74839d1ea11f7e497350f64c71",
                "id": 4,
                "isERC1155": false,
                "isERC721": false,
                "isReverted": false,
                "order": 4,
                "to": "0xf2338a3facdc47d17a650a849c3bf953112f7968",
                "token": "0xae7ab96520de3a18e5e111b5eaab095312d7fe84"
            }
        ],
        "token_infos": [
            {
                "address": "0xae7ab96520de3a18e5e111b5eaab095312d7fe84",
                "decimals": 18
            },
            {
                "address": "0xc02aaa39b223fe8d0a0e5c4f27ead9083c756cc2",
                "decimals": 18
            },
            {
                "address": "0xeeeeeeeeeeeeeeeeeeeeeeeeeeeeeeeeeeeeeeee",
                "decimals": 18
            }
        ]
    },
    "address_label": {
        "labels": [
            {
                "address": "0x0000000000000000000000000000000000000001",
                "label": "Precompiled"
            },
            {
                "address": "0x0000000000000000000000000000000000000002",
                "label": "Precompiled"
            },
            {
                "address": "0x0000000000000000000000000000000000000004",
                "label": "Precompiled"
            },
            {
                "address": "0xeeeeeeeeeeeeeeeeeeeeeeeeeeeeeeeeeeeeeeee",
                "label": "Ether"
            },
            {
                "address": "0xb8ffc3cd6e7cf5a098a1c92f48009765b24088dc",
                "label": "Lido: DAO"
            },
            {
                "address": "0x17144556fd3424edc8fc8a4c940b2d04936d17eb",
                "label": "Lido: stETH Token Impl 2.0.0"
            },
            {
                "address": "0x67054183db455d74839d1ea11f7e497350f64c71",
                "label": "StakingAggregator"
            },
            {
                "address": "0xfe2da24c0d0ecdcc4753ef7d1ed637b75b7b6c47",
                "label": "GnosisSafeProxy_fe2d_6c47"
            },
            {
                "address": "0x388c818ca8b9251b393131c08a736a67ccb19297",
                "label": "LidoExecutionLayerRewardsVault"
            },
            {
                "address": "0x0000000000000000000000000000000000000003",
                "label": "Precompiled"
            },
            {
                "address": "0x2b33cf282f867a7ff693a66e11b0fcc5552e4425",
                "label": "Lido: DAO Impl 1.0.0"
            },
            {
                "address": "0xae7ab96520de3a18e5e111b5eaab095312d7fe84",
                "label": "Lido: stETH Token"
            }
        ]
    },
    "trace": {
        "accountLabels": null,
        "dataMap": {
            "-1": {
                "invocation": {
                    "address": "0xf2338a3facdc47d17a650a849c3bf953112f7968",
                    "callData": "",
                    "decodedMethod": null,
                    "errorInfo": "",
                    "fromAddress": "",
                    "gasUsed": 0,
                    "id": -1,
                    "methodDecoded": false,
                    "operation": "",
                    "output": "",
                    "revert": false,
                    "revertMessage": "",
                    "selector": "",
                    "status": false,
                    "value": ""
                },
                "nodeType": 0
            },
            "0": {
                "invocation": {
                    "address": "0x67054183db455d74839d1ea11f7e497350f64c71",
                    "callData": "0x0000000000000000000000000000000000000000000000000000000000000000",
                    "decodedMethod": {
                        "callParams": [
                            {
                                "name": "maxFeeRate",
                                "type": "uint256",
                                "value": "0"
                            }
                        ],
                        "constructorArguments": "",
                        "name": "depositToLido",
                        "returnParams": [],
                        "signature": "depositToLido(uint256)"
                    },
                    "errorInfo": "",
                    "fromAddress": "0xf2338a3facdc47d17a650a849c3bf953112f7968",
                    "gasUsed": 130925,
                    "id": 0,
                    "methodDecoded": true,
                    "operation": "CALL",
                    "output": "",
                    "revert": false,
                    "revertMessage": "",
                    "selector": "0x8a99b4f2",
                    "status": true,
                    "value": "0.02"
                },
                "nodeType": 0
            },
            "1": {
                "invocation": {
                    "address": "0xae7ab96520de3a18e5e111b5eaab095312d7fe84",
                    "callData": "0x000000000000000000000000fe2da24c0d0ecdcc4753ef7d1ed637b75b7b6c47",
                    "decodedMethod": {
                        "callParams": [
                            {
                                "name": "",
                                "type": "address",
                                "value": "0xfe2da24c0d0ecdcc4753ef7d1ed637b75b7b6c47"
                            }
                        ],
                        "constructorArguments": "",
                        "name": "submit",
                        "returnParams": [
                            {
                                "name": "",
                                "type": "uint256",
                                "value": "17,775,920,187,428,385"
                            }
                        ],
                        "signature": "submit(address)"
                    },
                    "errorInfo": "",
                    "fromAddress": "0x67054183db455d74839d1ea11f7e497350f64c71",
                    "gasUsed": 76210,
                    "id": 1,
                    "methodDecoded": true,
                    "operation": "CALL",
                    "output": "0x000000000000000000000000000000000000000000000000003f271af053ce21",
                    "revert": false,
                    "revertMessage": "",
                    "selector": "0xa1903eab",
                    "status": true,
                    "value": "0.02"
                },
                "nodeType": 0
            },
            "10": {
                "invocation": {
                    "address": "0x2b33cf282f867a7ff693a66e11b0fcc5552e4425",
                    "callData": "0xf1f3eb40f5bc1ad1344716ced8b8a0431d840b5783aea1fd01786bc26f35ac0f3ca7c3e38968823ccb4c78ea688df41356f182ae1d159e4ee608d30d68cef320",
                    "decodedMethod": {
                        "callParams": [
                            {
                                "name": "_namespace",
                                "type": "bytes32",
                                "value": "0xf1f3eb40f5bc1ad1344716ced8b8a0431d840b5783aea1fd01786bc26f35ac0f"
                            },
                            {
                                "name": "_appId",
                                "type": "bytes32",
                                "value": "0x3ca7c3e38968823ccb4c78ea688df41356f182ae1d159e4ee608d30d68cef320"
                            }
                        ],
                        "constructorArguments": "",
                        "name": "getApp",
                        "returnParams": [
                            {
                                "name": "",
                                "type": "address",
                                "value": "0x17144556fd3424edc8fc8a4c940b2d04936d17eb"
                            }
                        ],
                        "signature": "getApp(bytes32,bytes32)"
                    },
                    "errorInfo": "",
                    "fromAddress": "0xb8ffc3cd6e7cf5a098a1c92f48009765b24088dc",
                    "gasUsed": 820,
                    "id": 10,
                    "methodDecoded": true,
                    "operation": "DELEGATECALL",
                    "output": "0x00000000000000000000000017144556fd3424edc8fc8a4c940b2d04936d17eb",
                    "revert": false,
                    "revertMessage": "",
                    "selector": "0xbe00bbd8",
                    "status": true,
                    "value": "0"
                },
                "nodeType": 0
            },
            "11": {
                "invocation": {
                    "address": "0x17144556fd3424edc8fc8a4c940b2d04936d17eb",
                    "callData": "0x000000000000000000000000f2338a3facdc47d17a650a849c3bf953112f7968000000000000000000000000000000000000000000000000003f271af053ce21",
                    "decodedMethod": {
                        "callParams": [
                            {
                                "name": "_recipient",
                                "type": "address",
                                "value": "0xf2338a3facdc47d17a650a849c3bf953112f7968"
                            },
                            {
                                "name": "_sharesAmount",
                                "type": "uint256",
                                "value": "17,775,920,187,428,385"
                            }
                        ],
                        "constructorArguments": "",
                        "name": "transferShares",
                        "returnParams": [
                            {
                                "name": "",
                                "type": "uint256",
                                "value": "19,999,999,999,999,999"
                            }
                        ],
                        "signature": "transferShares(address,uint256)"
                    },
                    "errorInfo": "",
                    "fromAddress": "0xae7ab96520de3a18e5e111b5eaab095312d7fe84",
                    "gasUsed": 32779,
                    "id": 11,
                    "methodDecoded": true,
                    "operation": "DELEGATECALL",
                    "output": "0x00000000000000000000000000000000000000000000000000470de4df81ffff",
                    "revert": false,
                    "revertMessage": "",
                    "selector": "0x8fcb4e5b",
                    "status": true,
                    "value": "0"
                },
                "nodeType": 0
            },
            "12": {
                "event": {
                    "contract": "0xae7ab96520de3a18e5e111b5eaab095312d7fe84",
                    "decodedLog": {
                        "name": "Transfer",
                        "params": [
                            {
                                "name": "from",
                                "type": "address",
                                "value": "0x67054183db455d74839d1ea11f7e497350f64c71"
                            },
                            {
                                "name": "to",
                                "type": "address",
                                "value": "0xf2338a3facdc47d17a650a849c3bf953112f7968"
                            },
                            {
                                "decimalAvailable": true,
                                "name": "value",
                                "type": "uint256",
                                "value": "19,999,999,999,999,999"
                            }
                        ],
                        "signature": "Transfer(address,address,uint256)"
                    },
                    "id": 12,
                    "logData": "0x00000000000000000000000000000000000000000000000000470de4df81ffff",
                    "logDecoded": true,
                    "operation": "EVENT",
                    "revert": false,
                    "status": true,
                    "topics": [
                        "0xddf252ad1be2c89b69c2b068fc378daa952ba7f163c4a11628f55a4df523b3ef",
                        "0x00000000000000000000000067054183db455d74839d1ea11f7e497350f64c71",
                        "0x000000000000000000000000f2338a3facdc47d17a650a849c3bf953112f7968"
                    ]
                },
                "nodeType": 1
            },
            "13": {
                "event": {
                    "contract": "0xae7ab96520de3a18e5e111b5eaab095312d7fe84",
                    "decodedLog": {
                        "name": "TransferShares",
                        "params": [
                            {
                                "name": "from",
                                "type": "address",
                                "value": "0x67054183db455d74839d1ea11f7e497350f64c71"
                            },
                            {
                                "name": "to",
                                "type": "address",
                                "value": "0xf2338a3facdc47d17a650a849c3bf953112f7968"
                            },
                            {
                                "name": "sharesValue",
                                "type": "uint256",
                                "value": "17,775,920,187,428,385"
                            }
                        ],
                        "signature": "TransferShares(address,address,uint256)"
                    },
                    "id": 13,
                    "logData": "0x000000000000000000000000000000000000000000000000003f271af053ce21",
                    "logDecoded": true,
                    "operation": "EVENT",
                    "revert": false,
                    "status": true,
                    "topics": [
                        "0x9d9c909296d9c674451c0c24f02cb64981eb3b727f99865939192f880a755dcb",
                        "0x00000000000000000000000067054183db455d74839d1ea11f7e497350f64c71",
                        "0x000000000000000000000000f2338a3facdc47d17a650a849c3bf953112f7968"
                    ]
                },
                "nodeType": 1
            },
            "2": {
                "invocation": {
                    "address": "0xb8ffc3cd6e7cf5a098a1c92f48009765b24088dc",
                    "callData": "0xf1f3eb40f5bc1ad1344716ced8b8a0431d840b5783aea1fd01786bc26f35ac0f3ca7c3e38968823ccb4c78ea688df41356f182ae1d159e4ee608d30d68cef320",
                    "decodedMethod": {
                        "callParams": [
                            {
                                "name": "_namespace",
                                "type": "bytes32",
                                "value": "0xf1f3eb40f5bc1ad1344716ced8b8a0431d840b5783aea1fd01786bc26f35ac0f"
                            },
                            {
                                "name": "_appId",
                                "type": "bytes32",
                                "value": "0x3ca7c3e38968823ccb4c78ea688df41356f182ae1d159e4ee608d30d68cef320"
                            }
                        ],
                        "constructorArguments": "",
                        "name": "getApp",
                        "returnParams": [
                            {
                                "name": "",
                                "type": "address",
                                "value": "0x17144556fd3424edc8fc8a4c940b2d04936d17eb"
                            }
                        ],
                        "signature": "getApp(bytes32,bytes32)"
                    },
                    "errorInfo": "",
                    "fromAddress": "0xae7ab96520de3a18e5e111b5eaab095312d7fe84",
                    "gasUsed": 8263,
                    "id": 2,
                    "methodDecoded": true,
                    "operation": "CALL",
                    "output": "0x00000000000000000000000017144556fd3424edc8fc8a4c940b2d04936d17eb",
                    "revert": false,
                    "revertMessage": "",
                    "selector": "0xbe00bbd8",
                    "status": true,
                    "value": "0"
                },
                "nodeType": 0
            },
            "3": {
                "invocation": {
                    "address": "0x2b33cf282f867a7ff693a66e11b0fcc5552e4425",
                    "callData": "0xf1f3eb40f5bc1ad1344716ced8b8a0431d840b5783aea1fd01786bc26f35ac0f3ca7c3e38968823ccb4c78ea688df41356f182ae1d159e4ee608d30d68cef320",
                    "decodedMethod": {
                        "callParams": [
                            {
                                "name": "_namespace",
                                "type": "bytes32",
                                "value": "0xf1f3eb40f5bc1ad1344716ced8b8a0431d840b5783aea1fd01786bc26f35ac0f"
                            },
                            {
                                "name": "_appId",
                                "type": "bytes32",
                                "value": "0x3ca7c3e38968823ccb4c78ea688df41356f182ae1d159e4ee608d30d68cef320"
                            }
                        ],
                        "constructorArguments": "",
                        "name": "getApp",
                        "returnParams": [
                            {
                                "name": "",
                                "type": "address",
                                "value": "0x17144556fd3424edc8fc8a4c940b2d04936d17eb"
                            }
                        ],
                        "signature": "getApp(bytes32,bytes32)"
                    },
                    "errorInfo": "",
                    "fromAddress": "0xb8ffc3cd6e7cf5a098a1c92f48009765b24088dc",
                    "gasUsed": 2820,
                    "id": 3,
                    "methodDecoded": true,
                    "operation": "DELEGATECALL",
                    "output": "0x00000000000000000000000017144556fd3424edc8fc8a4c940b2d04936d17eb",
                    "revert": false,
                    "revertMessage": "",
                    "selector": "0xbe00bbd8",
                    "status": true,
                    "value": "0"
                },
                "nodeType": 0
            },
            "4": {
                "invocation": {
                    "address": "0x17144556fd3424edc8fc8a4c940b2d04936d17eb",
                    "callData": "0x000000000000000000000000fe2da24c0d0ecdcc4753ef7d1ed637b75b7b6c47",
                    "decodedMethod": {
                        "callParams": [
                            {
                                "name": "_referral",
                                "type": "address",
                                "value": "0xfe2da24c0d0ecdcc4753ef7d1ed637b75b7b6c47"
                            }
                        ],
                        "constructorArguments": "",
                        "name": "submit",
                        "returnParams": [
                            {
                                "name": "",
                                "type": "uint256",
                                "value": "17,775,920,187,428,385"
                            }
                        ],
                        "signature": "submit(address)"
                    },
                    "errorInfo": "",
                    "fromAddress": "0xae7ab96520de3a18e5e111b5eaab095312d7fe84",
                    "gasUsed": 57330,
                    "id": 4,
                    "methodDecoded": true,
                    "operation": "DELEGATECALL",
                    "output": "0x000000000000000000000000000000000000000000000000003f271af053ce21",
                    "revert": false,
                    "revertMessage": "",
                    "selector": "0xa1903eab",
                    "status": true,
                    "value": "0.02"
                },
                "nodeType": 0
            },
            "5": {
                "event": {
                    "contract": "0xae7ab96520de3a18e5e111b5eaab095312d7fe84",
                    "decodedLog": {
                        "name": "Submitted",
                        "params": [
                            {
                                "name": "sender",
                                "type": "address",
                                "value": "0x67054183db455d74839d1ea11f7e497350f64c71"
                            },
                            {
                                "name": "amount",
                                "type": "uint256",
                                "value": "20,000,000,000,000,000"
                            },
                            {
                                "name": "referral",
                                "type": "address",
                                "value": "0xfe2da24c0d0ecdcc4753ef7d1ed637b75b7b6c47"
                            }
                        ],
                        "signature": "Submitted(address,uint256,address)"
                    },
                    "id": 5,
                    "logData": "0x00000000000000000000000000000000000000000000000000470de4df820000000000000000000000000000fe2da24c0d0ecdcc4753ef7d1ed637b75b7b6c47",
                    "logDecoded": true,
                    "operation": "EVENT",
                    "revert": false,
                    "status": true,
                    "topics": [
                        "0x96a25c8ce0baabc1fdefd93e9ed25d8e092a3332f3aa9a41722b5697231d1d1a",
                        "0x00000000000000000000000067054183db455d74839d1ea11f7e497350f64c71"
                    ]
                },
                "nodeType": 1
            },
            "6": {
                "event": {
                    "contract": "0xae7ab96520de3a18e5e111b5eaab095312d7fe84",
                    "decodedLog": {
                        "name": "Transfer",
                        "params": [
                            {
                                "name": "from",
                                "type": "address",
                                "value": "0x0000000000000000000000000000000000000000"
                            },
                            {
                                "name": "to",
                                "type": "address",
                                "value": "0x67054183db455d74839d1ea11f7e497350f64c71"
                            },
                            {
                                "decimalAvailable": true,
                                "name": "value",
                                "type": "uint256",
                                "value": "19,999,999,999,999,999"
                            }
                        ],
                        "signature": "Transfer(address,address,uint256)"
                    },
                    "id": 6,
                    "logData": "0x00000000000000000000000000000000000000000000000000470de4df81ffff",
                    "logDecoded": true,
                    "operation": "EVENT",
                    "revert": false,
                    "status": true,
                    "topics": [
                        "0xddf252ad1be2c89b69c2b068fc378daa952ba7f163c4a11628f55a4df523b3ef",
                        "0x0000000000000000000000000000000000000000000000000000000000000000",
                        "0x00000000000000000000000067054183db455d74839d1ea11f7e497350f64c71"
                    ]
                },
                "nodeType": 1
            },
            "7": {
                "event": {
                    "contract": "0xae7ab96520de3a18e5e111b5eaab095312d7fe84",
                    "decodedLog": {
                        "name": "TransferShares",
                        "params": [
                            {
                                "name": "from",
                                "type": "address",
                                "value": "0x0000000000000000000000000000000000000000"
                            },
                            {
                                "name": "to",
                                "type": "address",
                                "value": "0x67054183db455d74839d1ea11f7e497350f64c71"
                            },
                            {
                                "name": "sharesValue",
                                "type": "uint256",
                                "value": "17,775,920,187,428,385"
                            }
                        ],
                        "signature": "TransferShares(address,address,uint256)"
                    },
                    "id": 7,
                    "logData": "0x000000000000000000000000000000000000000000000000003f271af053ce21",
                    "logDecoded": true,
                    "operation": "EVENT",
                    "revert": false,
                    "status": true,
                    "topics": [
                        "0x9d9c909296d9c674451c0c24f02cb64981eb3b727f99865939192f880a755dcb",
                        "0x0000000000000000000000000000000000000000000000000000000000000000",
                        "0x00000000000000000000000067054183db455d74839d1ea11f7e497350f64c71"
                    ]
                },
                "nodeType": 1
            },
            "8": {
                "invocation": {
                    "address": "0xae7ab96520de3a18e5e111b5eaab095312d7fe84",
                    "callData": "0x000000000000000000000000f2338a3facdc47d17a650a849c3bf953112f7968000000000000000000000000000000000000000000000000003f271af053ce21",
                    "decodedMethod": {
                        "callParams": [
                            {
                                "name": "_recipient",
                                "type": "address",
                                "value": "0xf2338a3facdc47d17a650a849c3bf953112f7968"
                            },
                            {
                                "name": "_sharesAmount",
                                "type": "uint256",
                                "value": "17,775,920,187,428,385"
                            }
                        ],
                        "constructorArguments": "",
                        "name": "transferShares",
                        "returnParams": [
                            {
                                "name": "",
                                "type": "uint256",
                                "value": "19,999,999,999,999,999"
                            }
                        ],
                        "signature": "transferShares(address,uint256)"
                    },
                    "errorInfo": "",
                    "fromAddress": "0x67054183db455d74839d1ea11f7e497350f64c71",
                    "gasUsed": 36165,
                    "id": 8,
                    "methodDecoded": true,
                    "operation": "CALL",
                    "output": "0x00000000000000000000000000000000000000000000000000470de4df81ffff",
                    "revert": false,
                    "revertMessage": "",
                    "selector": "0x8fcb4e5b",
                    "status": true,
                    "value": "0"
                },
                "nodeType": 0
            },
            "9": {
                "invocation": {
                    "address": "0xb8ffc3cd6e7cf5a098a1c92f48009765b24088dc",
                    "callData": "0xf1f3eb40f5bc1ad1344716ced8b8a0431d840b5783aea1fd01786bc26f35ac0f3ca7c3e38968823ccb4c78ea688df41356f182ae1d159e4ee608d30d68cef320",
                    "decodedMethod": {
                        "callParams": [
                            {
                                "name": "_namespace",
                                "type": "bytes32",
                                "value": "0xf1f3eb40f5bc1ad1344716ced8b8a0431d840b5783aea1fd01786bc26f35ac0f"
                            },
                            {
                                "name": "_appId",
                                "type": "bytes32",
                                "value": "0x3ca7c3e38968823ccb4c78ea688df41356f182ae1d159e4ee608d30d68cef320"
                            }
                        ],
                        "constructorArguments": "",
                        "name": "getApp",
                        "returnParams": [
                            {
                                "name": "",
                                "type": "address",
                                "value": "0x17144556fd3424edc8fc8a4c940b2d04936d17eb"
                            }
                        ],
                        "signature": "getApp(bytes32,bytes32)"
                    },
                    "errorInfo": "",
                    "fromAddress": "0xae7ab96520de3a18e5e111b5eaab095312d7fe84",
                    "gasUsed": 1763,
                    "id": 9,
                    "methodDecoded": true,
                    "operation": "CALL",
                    "output": "0x00000000000000000000000017144556fd3424edc8fc8a4c940b2d04936d17eb",
                    "revert": false,
                    "revertMessage": "",
                    "selector": "0xbe00bbd8",
                    "status": true,
                    "value": "0"
                },
                "nodeType": 0
            }
        },
        "gasFlame": [
            {
                "children": [
                    {
                        "children": [
                            {
                                "children": [],
                                "depth": 0,
                                "name": "Initial Gas",
                                "value": 21192
                            },
                            {
                                "children": [
                                    {
                                        "children": [
                                            {
                                                "children": [
                                                    {
                                                        "children": [],
                                                        "depth": 3,
                                                        "name": "getApp",
                                                        "value": 2820
                                                    }
                                                ],
                                                "depth": 2,
                                                "name": "getApp",
                                                "value": 8263
                                            },
                                            {
                                                "children": [],
                                                "depth": 2,
                                                "name": "submit",
                                                "value": 57330
                                            }
                                        ],
                                        "depth": 1,
                                        "name": "submit",
                                        "value": 76210
                                    },
                                    {
                                        "children": [
                                            {
                                                "children": [
                                                    {
                                                        "children": [],
                                                        "depth": 3,
                                                        "name": "getApp",
                                                        "value": 820
                                                    }
                                                ],
                                                "depth": 2,
                                                "name": "getApp",
                                                "value": 1763
                                            },
                                            {
                                                "children": [],
                                                "depth": 2,
                                                "name": "transferShares",
                                                "value": 32779
                                            }
                                        ],
                                        "depth": 1,
                                        "name": "transferShares",
                                        "value": 36165
                                    }
                                ],
                                "depth": 0,
                                "name": "Executed Gas",
                                "value": 132433
                            }
                        ],
                        "depth": -1,
                        "name": "Actual Gas Used",
                        "value": 130925
                    },
                    {
                        "children": [],
                        "depth": -1,
                        "name": "Refunded Gas",
                        "value": 22700
                    }
                ],
                "depth": -2,
                "name": "Total Gas",
                "value": 153625
            }
        ],
        "isConfirmed": true,
        "mainTrace": [
            {
                "children": [
                    {
                        "children": [
                            {
                                "children": [
                                    {
                                        "children": [
                                            {
                                                "children": [],
                                                "depth": 3,
                                                "id": 3,
                                                "order": 3
                                            }
                                        ],
                                        "depth": 2,
                                        "id": 2,
                                        "order": 2
                                    },
                                    {
                                        "children": [
                                            {
                                                "children": [],
                                                "depth": 3,
                                                "id": 5,
                                                "order": 5
                                            },
                                            {
                                                "children": [],
                                                "depth": 3,
                                                "id": 6,
                                                "order": 6
                                            },
                                            {
                                                "children": [],
                                                "depth": 3,
                                                "id": 7,
                                                "order": 7
                                            }
                                        ],
                                        "depth": 2,
                                        "id": 4,
                                        "order": 4
                                    }
                                ],
                                "depth": 1,
                                "id": 1,
                                "order": 1
                            },
                            {
                                "children": [
                                    {
                                        "children": [
                                            {
                                                "children": [],
                                                "depth": 3,
                                                "id": 10,
                                                "order": 10
                                            }
                                        ],
                                        "depth": 2,
                                        "id": 9,
                                        "order": 9
                                    },
                                    {
                                        "children": [
                                            {
                                                "children": [],
                                                "depth": 3,
                                                "id": 12,
                                                "order": 12
                                            },
                                            {
                                                "children": [],
                                                "depth": 3,
                                                "id": 13,
                                                "order": 13
                                            }
                                        ],
                                        "depth": 2,
                                        "id": 11,
                                        "order": 11
                                    }
                                ],
                                "depth": 1,
                                "id": 8,
                                "order": 8
                            }
                        ],
                        "depth": 0,
                        "id": 0,
                        "order": 0
                    }
                ],
                "depth": -1,
                "id": -1,
                "order": -1
            }
        ],
        "mainTraceNodeCount": 14,
        "parentIdMap": {
            "0": -1,
            "1": 0,
            "10": 9,
            "11": 8,
            "12": 11,
            "13": 11,
            "2": 1,
            "3": 2,
            "4": 1,
            "5": 4,
            "6": 4,
            "7": 4,
            "8": 0,
            "9": 8
        },
        "tidyTrace": [
            {
                "children": [
                    {
                        "children": [
                            {
                                "children": [
                                    {
                                        "children": [
                                            {
                                                "children": [],
                                                "depth": 3,
                                                "id": 3,
                                                "order": 3
                                            }
                                        ],
                                        "depth": 2,
                                        "id": 2,
                                        "order": 2
                                    },
                                    {
                                        "children": [
                                            {
                                                "children": [],
                                                "depth": 3,
                                                "id": 5,
                                                "order": 5
                                            },
                                            {
                                                "children": [],
                                                "depth": 3,
                                                "id": 6,
                                                "order": 6
                                            },
                                            {
                                                "children": [],
                                                "depth": 3,
                                                "id": 7,
                                                "order": 7
                                            }
                                        ],
                                        "depth": 2,
                                        "id": 4,
                                        "order": 4
                                    }
                                ],
                                "depth": 1,
                                "id": 1,
                                "order": 1
                            },
                            {
                                "children": [
                                    {
                                        "children": [
                                            {
                                                "children": [],
                                                "depth": 3,
                                                "id": 10,
                                                "order": 10
                                            }
                                        ],
                                        "depth": 2,
                                        "id": 9,
                                        "order": 9
                                    },
                                    {
                                        "children": [
                                            {
                                                "children": [],
                                                "depth": 3,
                                                "id": 12,
                                                "order": 12
                                            },
                                            {
                                                "children": [],
                                                "depth": 3,
                                                "id": 13,
                                                "order": 13
                                            }
                                        ],
                                        "depth": 2,
                                        "id": 11,
                                        "order": 11
                                    }
                                ],
                                "depth": 1,
                                "id": 8,
                                "order": 8
                            }
                        ],
                        "depth": 0,
                        "id": 0,
                        "order": 0
                    }
                ],
                "depth": -1,
                "id": -1,
                "order": -1
            }
        ],
        "tidyTraceNodeCount": 14
    },
    "state_change": {
        "stateChanges": [
            {
                "address": "0xae7ab96520de3a18e5e111b5eaab095312d7fe84",
                "erc": "",
                "slots": [
                    {
                        "current": "0x00000000000000000000000000000000000000000000000fe8595492dd9eff46",
                        "key": "0xed310af23f61f96daefbcd140b306c0bdbf8c178398299741687b90e794772b0",
                        "prev": "0x00000000000000000000000000000000000000000000000fe81246adfe1cff46"
                    },
                    {
                        "current": "0x000000000000000000000000000000000000000000000000003f271af053ce21",
                        "key": "0x1ba16d7752aa1108cb6eff16b43e34d22aa42bb9d8536015c185e8930332d547",
                        "prev": "0x0000000000000000000000000000000000000000000000000000000000000000"
                    },
                    {
                        "current": "0x00001fc3842bd1f071c000000000190000001fc383e4c40b923e0000010826f7",
                        "key": "0xa3678de4a579be090bed1177e0a24f77cc29d181ac22fd7688aca344d8938015",
                        "prev": "0x00001fc3842bd1f071c000000000190000001fc36ebc2b3476170f00010826f3"
                    },
                    {
                        "current": "0x00000000000000000000000000000000000000000004c60c1c4ed84d18ddea10",
                        "key": "0xe3b4b636e601189b5f4c6742edf2538ac12bb61ed03e6da26949d69838fa447e",
                        "prev": "0x00000000000000000000000000000000000000000004c60c1c0fb132288a1bef"
                    }
                ],
                "storageVariables": []
            }
        ]
    }
}