{
    "balance_change": {
        "balanceChanges": [
            {
                "account": "0x14fb0379a9e384144da9b409198df45c844cddab",
                "assets": [
                    {
                        "address": "0xbb0e17ef65f82ab018d8edd776e8dd940327b28b",
                        "amount": "8",
                        "iconUrl": "",
                        "isERC1155": false,
                        "isERC721": false,
                        "sign": false,
                        "value": "344.5261942"
                    }
                ]
            },
            {
                "account": "0x1a2a1c938ce3ec39b6d47113c7955baa9dd454f2",
                "assets": [
                    {
                        "address": "0xbb0e17ef65f82ab018d8edd776e8dd940327b28b",
                        "amount": "8",
                        "iconUrl": "",
                        "isERC1155": false,
                        "isERC721": false,
                        "sign": true,
                        "value": "344.5261942"
                    }
                ]
            }
        ]
    },
    "profile": {
        "basic_info": {
            "baseFee": "",
            "blockNumber": 12922016,
            "callData": "0x85eb3a350000000000000000000000006cdba461ead28b15763a0471fcdee663f43dd549000000000000000000000000bb0e17ef65f82ab018d8edd776e8dd940327b28b0000000000000000000000000000000000000000000000006f05b59d3b200000",
            "debugEnable": true,
            "errorInfo": "",
            "eventCount": 2,
            "feeRecipient": "0x04668ec2f57cc15c381b461b9fedab5d451c8f7f",
            "formatValue": "0",
            "gasLimit": 212374,
            "gasPrice": "35",
            "gasUsed": 160305,
            "intTxnCount": 4,
            "internalRevert": false,
            "internalRevertMessage": "",
            "isContractCreation": false,
            "isFlashloan": false,
            "maxFee": "",
            "nonce": 178,
            "overwritedBlockNumber": -1,
            "priorityFee": "",
            "receiver": "0x1a2a1c938ce3ec39b6d47113c7955baa9dd454f2",
            "revertMessage": "",
            "sender": "0x14fb0379a9e384144da9b409198df45c844cddab",
            "simulationEnable": true,
            "sourceTxnHash": "0xa75018214b3cb2489aca8879fdb7345c4d4aeb7e620263d4d13592d25f0e3a81",
            "status": true,
            "timestamp": "2021-07-29T17:26:31Z",
            "transactionFee": "0.005610675",
            "txnHash": "0xa75018214b3cb2489aca8879fdb7345c4d4aeb7e620263d4d13592d25f0e3a81",
            "txnIndex": 80,
            "type": 0,
            "value": "0"
        },
        "fund_flow": [
            {
                "amount": "8",
                "from": "0x14fb0379a9e384144da9b409198df45c844cddab",
                "id": 1,
                "isERC1155": false,
                "isERC721": false,
                "isReverted": false,
                "order": 1,
                "to": "0x1a2a1c938ce3ec39b6d47113c7955baa9dd454f2",
                "token": "0xbb0e17ef65f82ab018d8edd776e8dd940327b28b"
            }
        ],
        "token_infos": [
            {
                "address": "0xbb0e17ef65f82ab018d8edd776e8dd940327b28b",
                "decimals": 18
            },
            {
                "address": "0xc02aaa39b223fe8d0a0e5c4f27ead9083c756cc2",
                "decimals": 18
            },
            {
                "address": "0xeeeeeeeeeeeeeeeeeeeeeeeeeeeeeeeeeeeeeeee",
                "decimals": 18
            }
        ]
    },
    "address_label": {
        "labels": [
            {
                "address": "0x1a2a1c938ce3ec39b6d47113c7955baa9dd454f2",
                "label": "Axie Infinity: Ronin Bridge"
            },
            {
                "address": "0xbb0e17ef65f82ab018d8edd776e8dd940327b28b",
                "label": "Axie Infinity: AXS Token"
            },
            {
                "address": "0x8407dc57739bcda7aa53ca6f12f82f9d51c2f21e",
                "label": "MainchainGatewayManager"
            },
            {
                "address": "0x0000000000000000000000000000000000000002",
                "label": "Precompiled"
            },
            {
                "address": "0xeeeeeeeeeeeeeeeeeeeeeeeeeeeeeeeeeeeeeeee",
                "label": "Ether"
            },
            {
                "address": "0x33e71e649abdc09f650ad44139674828a2075ad2",
                "label": "Registry"
            },
            {
                "address": "0x0000000000000000000000000000000000000001",
                "label": "Precompiled"
            },
            {
                "address": "0x0000000000000000000000000000000000000003",
                "label": "Precompiled"
            },
            {
                "address": "0x0000000000000000000000000000000000000004",
                "label": "Precompiled"
            }
        ]
    },
    "trace": {
        "accountLabels": null,
        "dataMap": {
            "-1": {
                "invocation": {
                    "address": "0x14fb0379a9e384144da9b409198df45c844cddab",
                    "callData": "",
                    "decodedMethod": null,
                    "errorInfo": "",
                    "fromAddress": "",
                    "gasUsed": 0,
                    "id": -1,
                    "methodDecoded": false,
                    "operation": "",
                    "output": "",
                    "revert": false,
                    "revertMessage": "",
                    "selector": "",
                    "status": false,
                    "value": ""
                },
                "nodeType": 0
            },
            "0": {
                "invocation": {
                    "address": "0x1a2a1c938ce3ec39b6d47113c7955baa9dd454f2",
                    "callData": "0x0000000000000000000000006cdba461ead28b15763a0471fcdee663f43dd549000000000000000000000000bb0e17ef65f82ab018d8edd776e8dd940327b28b0000000000000000000000000000000000000000000000006f05b59d3b200000",
                    "decodedMethod": {
                        "callParams": [
                            {
                                "name": "_user",
                                "type": "address",
                                "value": "0x6cdba461ead28b15763a0471fcdee663f43dd549"
                            },
                            {
                                "name": "_token",
                                "type": "address",
                                "value": "0xbb0e17ef65f82ab018d8edd776e8dd940327b28b"
                            },
                            {
                                "name": "_amount",
                                "type": "uint256",
                                "value": "8,000,000,000,000,000,000"
                            }
                        ],
                        "constructorArguments": "",
                        "name": "depositERC20For",
                        "returnParams": [
                            {
                                "name": "",
                                "type": "uint256",
                                "value": "734,706"
                            }
                        ],
                        "signature": "depositERC20For(address,address,uint256)"
                    },
                    "errorInfo": "",
                    "fromAddress": "0x14fb0379a9e384144da9b409198df45c844cddab",
                    "gasUsed": 160305,
                    "id": 0,
                    "methodDecoded": true,
                    "operation": "CALL",
                    "output": "0x00000000000000000000000000000000000000000000000000000000000b35f2",
                    "revert": false,
                    "revertMessage": "",
                    "selector": "0x85eb3a35",
                    "status": true,
                    "value": "0"
                },
                "nodeType": 0
            },
            "1": {
                "invocation": {
                    "address": "0x8407dc57739bcda7aa53ca6f12f82f9d51c2f21e",
                    "callData": "0x0000000000000000000000006cdba461ead28b15763a0471fcdee663f43dd549000000000000000000000000bb0e17ef65f82ab018d8edd776e8dd940327b28b0000000000000000000000000000000000000000000000006f05b59d3b200000",
                    "decodedMethod": {
                        "callParams": [
                            {
                                "name": "_user",
                                "type": "address",
                                "value": "0x6cdba461ead28b15763a0471fcdee663f43dd549"
                            },
                            {
                                "name": "_token",
                                "type": "address",
                                "value": "0xbb0e17ef65f82ab018d8edd776e8dd940327b28b"
                            },
                            {
                                "name": "_amount",
                                "type": "uint256",
                                "value": "8,000,000,000,000,000,000"
                            }
                        ],
                        "constructorArguments": "",
                        "name": "depositERC20For",
                        "returnParams": [
                            {
                                "name": "",
                                "type": "uint256",
                                "value": "734,706"
                            }
                        ],
                        "signature": "depositERC20For(address,address,uint256)"
                    },
                    "errorInfo": "",
                    "fromAddress": "0x1a2a1c938ce3ec39b6d47113c7955baa9dd454f2",
                    "gasUsed": 133235,
                    "id": 1,
                    "methodDecoded": true,
                    "operation": "DELEGATECALL",
                    "output": "0x00000000000000000000000000000000000000000000000000000000000b35f2",
                    "revert": false,
                    "revertMessage": "",
                    "selector": "0x85eb3a35",
                    "status": true,
                    "value": "0"
                },
                "nodeType": 0
            },
            "2": {
                "invocation": {
                    "address": "0xbb0e17ef65f82ab018d8edd776e8dd940327b28b",
                    "callData": "0x00000000000000000000000014fb0379a9e384144da9b409198df45c844cddab0000000000000000000000001a2a1c938ce3ec39b6d47113c7955baa9dd454f20000000000000000000000000000000000000000000000006f05b59d3b200000",
                    "decodedMethod": {
                        "callParams": [
                            {
                                "name": "_from",
                                "type": "address",
                                "value": "0x14fb0379a9e384144da9b409198df45c844cddab"
                            },
                            {
                                "name": "_to",
                                "type": "address",
                                "value": "0x1a2a1c938ce3ec39b6d47113c7955baa9dd454f2"
                            },
                            {
                                "decimalAvailable": true,
                                "name": "_value",
                                "type": "uint256",
                                "value": "8,000,000,000,000,000,000"
                            }
                        ],
                        "constructorArguments": "",
                        "name": "transferFrom",
                        "returnParams": [
                            {
                                "name": "_success",
                                "type": "bool",
                                "value": true
                            }
                        ],
                        "signature": "transferFrom(address,address,uint256)"
                    },
                    "errorInfo": "",
                    "fromAddress": "0x1a2a1c938ce3ec39b6d47113c7955baa9dd454f2",
                    "gasUsed": 15132,
                    "id": 2,
                    "methodDecoded": true,
                    "operation": "CALL",
                    "output": "0x0000000000000000000000000000000000000000000000000000000000000001",
                    "revert": false,
                    "revertMessage": "",
                    "selector": "0x23b872dd",
                    "status": true,
                    "value": "0"
                },
                "nodeType": 0
            },
            "3": {
                "event": {
                    "contract": "0xbb0e17ef65f82ab018d8edd776e8dd940327b28b",
                    "decodedLog": {
                        "name": "Transfer",
                        "params": [
                            {
                                "name": "_from",
                                "type": "address",
                                "value": "0x14fb0379a9e384144da9b409198df45c844cddab"
                            },
                            {
                                "name": "_to",
                                "type": "address",
                                "value": "0x1a2a1c938ce3ec39b6d47113c7955baa9dd454f2"
                            },
                            {
                                "decimalAvailable": true,
                                "name": "_value",
                                "type": "uint256",
                                "value": "8,000,000,000,000,000,000"
                            }
                        ],
                        "signature": "Transfer(address,address,uint256)"
                    },
                    "id": 3,
                    "logData": "0x0000000000000000000000000000000000000000000000006f05b59d3b200000",
                    "logDecoded": true,
                    "operation": "EVENT",
                    "revert": false,
                    "status": true,
                    "topics": [
                        "0xddf252ad1be2c89b69c2b068fc378daa952ba7f163c4a11628f55a4df523b3ef",
                        "0x00000000000000000000000014fb0379a9e384144da9b409198df45c844cddab",
                        "0x0000000000000000000000001a2a1c938ce3ec39b6d47113c7955baa9dd454f2"
                    ]
                },
                "nodeType": 1
            },
            "4": {
                "invocation": {
                    "address": "0x33e71e649abdc09f650ad44139674828a2075ad2",
                    "callData": "0x000000000000000000000000bb0e17ef65f82ab018d8edd776e8dd940327b28b00000000000000000000000000000000000000000000000000000000000000140000000000000000000000000000000000000000000000000000000000000001",
                    "decodedMethod": {
                        "callParams": [
                            {
                                "name": "_token",
                                "type": "address",
                                "value": "0xbb0e17ef65f82ab018d8edd776e8dd940327b28b"
                            },
                            {
                                "name": "_standard",
                                "type": "uint32",
                                "value": "20"
                            },
                            {
                                "name": "_isMainchain",
                                "type": "bool",
                                "value": true
                            }
                        ],
                        "constructorArguments": "",
                        "name": "isTokenMapped",
                        "returnParams": [
                            {
                                "name": "",
                                "type": "bool",
                                "value": true
                            }
                        ],
                        "signature": "isTokenMapped(address,uint32,bool)"
                    },
                    "errorInfo": "",
                    "fromAddress": "0x1a2a1c938ce3ec39b6d47113c7955baa9dd454f2",
                    "gasUsed": 5215,
                    "id": 4,
                    "methodDecoded": true,
                    "operation": "STATICCALL",
                    "output": "0x0000000000000000000000000000000000000000000000000000000000000001",
                    "revert": false,
                    "revertMessage": "",
                    "selector": "0x3579e67a",
                    "status": true,
                    "value": "0"
                },
                "nodeType": 0
            },
            "5": {
                "invocation": {
                    "address": "0x33e71e649abdc09f650ad44139674828a2075ad2",
                    "callData": "0x000000000000000000000000bb0e17ef65f82ab018d8edd776e8dd940327b28b0000000000000000000000000000000000000000000000000000000000000001",
                    "decodedMethod": {
                        "callParams": [
                            {
                                "name": "_token",
                                "type": "address",
                                "value": "0xbb0e17ef65f82ab018d8edd776e8dd940327b28b"
                            },
                            {
                                "name": "_isMainchain",
                                "type": "bool",
                                "value": true
                            }
                        ],
                        "constructorArguments": "",
                        "name": "getMappedToken",
                        "returnParams": [
                            {
                                "name": "_mainchainToken",
                                "type": "address",
                                "value": "0xbb0e17ef65f82ab018d8edd776e8dd940327b28b"
                            },
                            {
                                "name": "_sidechainToken",
                                "type": "address",
                                "value": "0x97a9107c1793bc407d6f527b77e7fff4d812bece"
                            },
                            {
                                "name": "_standard",
                                "type": "uint32",
                                "value": "20"
                            }
                        ],
                        "signature": "getMappedToken(address,bool)"
                    },
                    "errorInfo": "",
                    "fromAddress": "0x1a2a1c938ce3ec39b6d47113c7955baa9dd454f2",
                    "gasUsed": 1208,
                    "id": 5,
                    "methodDecoded": true,
                    "operation": "STATICCALL",
                    "output": "0x000000000000000000000000bb0e17ef65f82ab018d8edd776e8dd940327b28b00000000000000000000000097a9107c1793bc407d6f527b77e7fff4d812bece0000000000000000000000000000000000000000000000000000000000000014",
                    "revert": false,
                    "revertMessage": "",
                    "selector": "0xeb96fbcd",
                    "status": true,
                    "value": "0"
                },
                "nodeType": 0
            },
            "6": {
                "event": {
                    "contract": "0x1a2a1c938ce3ec39b6d47113c7955baa9dd454f2",
                    "decodedLog": {
                        "name": "TokenDeposited",
                        "params": [
                            {
                                "name": "_depositId",
                                "type": "uint256",
                                "value": "734,706"
                            },
                            {
                                "name": "_owner",
                                "type": "address",
                                "value": "0x6cdba461ead28b15763a0471fcdee663f43dd549"
                            },
                            {
                                "name": "_tokenAddress",
                                "type": "address",
                                "value": "0xbb0e17ef65f82ab018d8edd776e8dd940327b28b"
                            },
                            {
                                "name": "_sidechainAddress",
                                "type": "address",
                                "value": "0x97a9107c1793bc407d6f527b77e7fff4d812bece"
                            },
                            {
                                "name": "_standard",
                                "type": "uint32",
                                "value": "20"
                            },
                            {
                                "name": "_tokenNumber",
                                "type": "uint256",
                                "value": "8,000,000,000,000,000,000"
                            }
                        ],
                        "signature": "TokenDeposited(uint256,address,address,address,uint32,uint256)"
                    },
                    "id": 6,
                    "logData": "0x00000000000000000000000097a9107c1793bc407d6f527b77e7fff4d812bece00000000000000000000000000000000000000000000000000000000000000140000000000000000000000000000000000000000000000006f05b59d3b200000",
                    "logDecoded": true,
                    "operation": "EVENT",
                    "revert": false,
                    "status": true,
                    "topics": [
                        "0x72848855a2461abf0dd243723dfcc9163eec2ea5215469d101c0d9c9ef58940d",
                        "0x00000000000000000000000000000000000000000000000000000000000b35f2",
                        "0x0000000000000000000000006cdba461ead28b15763a0471fcdee663f43dd549",
                        "0x000000000000000000000000bb0e17ef65f82ab018d8edd776e8dd940327b28b"
                    ]
                },
                "nodeType": 1
            }
        },
        "gasFlame": [
            {
                "children": [
                    {
                        "children": [
                            {
                                "children": [],
                                "depth": 0,
                                "name": "Initial Gas",
                                "value": 22000
                            },
                            {
                                "children": [
                                    {
                                        "children": [
                                            {
                                                "children": [],
                                                "depth": 2,
                                                "name": "transferFrom",
                                                "value": 15132
                                            },
                                            {
                                                "children": [],
                                                "depth": 2,
                                                "name": "isTokenMapped",
                                                "value": 5215
                                            },
                                            {
                                                "children": [],
                                                "depth": 2,
                                                "name": "getMappedToken",
                                                "value": 1208
                                            }
                                        ],
                                        "depth": 1,
                                        "name": "depositERC20For",
                                        "value": 133235
                                    }
                                ],
                                "depth": 0,
                                "name": "Executed Gas",
                                "value": 138305
                            }
                        ],
                        "depth": -1,
                        "name": "Actual Gas Used",
                        "value": 160305
                    },
                    {
                        "children": [],
                        "depth": -1,
                        "name": "Refunded Gas",
                        "value": 0
                    }
                ],
                "depth": -2,
                "name": "Total Gas",
                "value": 160305
            }
        ],
        "isConfirmed": true,
        "mainTrace": [
            {
                "children": [
                    {
                        "children": [
                            {
                                "children": [
                                    {
                                        "children": [
                                            {
                                                "children": [],
                                                "depth": 3,
                                                "id": 3,
                                                "order": 3
                                            }
                                        ],
                                        "depth": 2,
                                        "id": 2,
                                        "order": 2
                                    },
                                    {
                                        "children": [],
                                        "depth": 2,
                                        "id": 4,
                                        "order": 4
                                    },
                                    {
                                        "children": [],
                                        "depth": 2,
                                        "id": 5,
                                        "order": 5
                                    },
                                    {
                                        "children": [],
                                        "depth": 2,
                                        "id": 6,
                                        "order": 6
                                    }
                                ],
                                "depth": 1,
                                "id": 1,
                                "order": 1
                            }
                        ],
                        "depth": 0,
                        "id": 0,
                        "order": 0
                    }
                ],
                "depth": -1,
                "id": -1,
                "order": -1
            }
        ],
        "mainTraceNodeCount": 7,
        "parentIdMap": {
            "0": -1,
            "1": 0,
            "2": 1,
            "3": 2,
            "4": 1,
            "5": 1,
            "6": 1
        },
        "tidyTrace": [
            {
                "children": [
                    {
                        "children": [
                            {
                                "children": [
                                    {
                                        "children": [
                                            {
                                                "children": [],
                                                "depth": 3,
                                                "id": 3,
                                                "order": 3
                                            }
                                        ],
                                        "depth": 2,
                                        "id": 2,
                                        "order": 2
                                    },
                                    {
                                        "children": [],
                                        "depth": 2,
                                        "id": 6,
                                        "order": 6
                                    }
                                ],
                                "depth": 1,
                                "id": 1,
                                "order": 1
                            }
                        ],
                        "depth": 0,
                        "id": 0,
                        "order": 0
                    }
                ],
                "depth": -1,
                "id": -1,
                "order": -1
            }
        ],
        "tidyTraceNodeCount": 5
    },
    "state_change": {
        "stateChanges": [
            {
                "address": "0x1a2a1c938ce3ec39b6d47113c7955baa9dd454f2",
                "erc": "",
                "slots": [
                    {
                        "current": "0x00000000000000000000000000000000000000000000000000000000000b35f3",
                        "key": "0x0000000000000000000000000000000000000000000000000000000000000003",
                        "prev": "0x00000000000000000000000000000000000000000000000000000000000b35f2"
                    },
                    {
                        "current": "0x00000000000000000000000000000000000000000000000000000000000b35f3",
                        "key": "0x0000000000000000000000000000000000000000000000000000000000000004",
                        "prev": "0x00000000000000000000000000000000000000000000000000000000000b35f2"
                    },
                    {
                        "current": "0x0000000000000000000000006cdba461ead28b15763a0471fcdee663f43dd549",
                        "key": "0x8a35acfbc15ff81a39ae7d344fd709f28e8600b4aa8c65c6b64bfe7fe398a963",
                        "prev": "0x0000000000000000000000000000000000000000000000000000000000000000"
                    },
                    {
                        "current": "0x000000000000000000000000bb0e17ef65f82ab018d8edd776e8dd940327b28b",
                        "key": "0x8a35acfbc15ff81a39ae7d344fd709f28e8600b4aa8c65c6b64bfe7fe398a964",
                        "prev": "0x0000000000000000000000000000000000000000000000000000000000000000"
                    },
                    {
                        "current": "0x00000000000000000000001497a9107c1793bc407d6f527b77e7fff4d812bece",
                        "key": "0x8a35acfbc15ff81a39ae7d344fd709f28e8600b4aa8c65c6b64bfe7fe398a965",
                        "prev": "0x0000000000000000000000000000000000000000000000000000000000000000"
                    },
                    {
                        "current": "0x0000000000000000000000000000000000000000000000006f05b59d3b200000",
                        "key": "0x8a35acfbc15ff81a39ae7d344fd709f28e8600b4aa8c65c6b64bfe7fe398a966",
                        "prev": "0x0000000000000000000000000000000000000000000000000000000000000000"
                    }
                ],
                "storageVariables": [
                    {
                        "name": "depositCount",
                        "type": "uint256",
                        "value": {
                            "current": "734707",
                            "prev": "734706",
                            "typeTag": 1
                        }
                    },
                    {
                        "name": "deposits",
                        "type": "struct MainchainGatewayStorage.DepositEntry[]",
                        "value": {
                            "elemType": "struct MainchainGatewayStorage.DepositEntry",
                            "elems": [
                                {
                                    "index": 734706,
                                    "value": {
                                        "fields": [
                                            {
                                                "name": "owner",
                                                "type": "address",
                                                "value": {
                                                    "current": "0x6cdba461ead28b15763a0471fcdee663f43dd549",
                                                    "prev": "0x0000000000000000000000000000000000000000",
                                                    "typeTag": 1
                                                }
                                            },
                                            {
                                                "name": "tokenAddress",
                                                "type": "address",
                                                "value": {
                                                    "current": "0xbb0e17ef65f82ab018d8edd776e8dd940327b28b",
                                                    "prev": "0x0000000000000000000000000000000000000000",
                                                    "typeTag": 1
                                                }
                                            },
                                            {
                                                "name": "sidechainAddress",
                                                "type": "address",
                                                "value": {
                                                    "current": "0x97a9107c1793bc407d6f527b77e7fff4d812bece",
                                                    "prev": "0x0000000000000000000000000000000000000000",
                                                    "typeTag": 1
                                                }
                                            },
                                            {
                                                "name": "standard",
                                                "type": "uint32",
                                                "value": {
                                                    "current": "20",
                                                    "prev": "0",
                                                    "typeTag": 1
                                                }
                                            },
                                            {
                                                "name": "tokenNumber",
                                                "type": "uint256",
                                                "value": {
                                                    "current": "8000000000000000000",
                                                    "prev": "0",
                                                    "typeTag": 1
                                                }
                                            }
                                        ],
                                        "typeTag": 3
                                    }
                                }
                            ],
                            "typeTag": 2
                        }
                    }
                ]
            },
            {
                "address": "0xbb0e17ef65f82ab018d8edd776e8dd940327b28b",
                "erc": "ERC-20",
                "slots": [
                    {
                        "current": "0x000000000000000000000000000000000000000000000000a688906bd8b00000",
                        "key": "0x1f153c1d35a94de7fb15e9057cc5f3e67704c3dc80a65d6cc607c025aa5075af",
                        "prev": "0x000000000000000000000000000000000000000000000001158e460913d00000"
                    },
                    {
                        "current": "0x00000000000000000000000000000000000000000008b13516d5bbf4552dfd02",
                        "key": "0x0d3124beb7f1ef948af27a294fe0cfdbb0785b3e3d2ad1997c4b10186a7f3b18",
                        "prev": "0x00000000000000000000000000000000000000000008b134a7d006571a0dfd02"
                    }
                ],
                "storageVariables": [
                    {
                        "name": "balanceOf",
                        "type": "mapping(address => uint256)",
                        "value": {
                            "pairs": [
                                {
                                    "key": "0x14fb0379a9e384144da9b409198df45c844cddab",
                                    "value": {
                                        "current": "12000000000000000000",
                                        "prev": "20000000000000000000",
                                        "typeTag": 1
                                    }
                                },
                                {
                                    "key": "0x1a2a1c938ce3ec39b6d47113c7955baa9dd454f2",
                                    "value": {
                                        "current": "10508244747248764155985154",
                                        "prev": "10508236747248764155985154",
                                        "typeTag": 1
                                    }
                                }
                            ],
                            "typeTag": 4
                        }
                    }
                ]
            }
        ]
    }
}