{
    "balance_change": {
        "balanceChanges": [
            {
                "account": "0xd08f8f34cd8cd8536bba1834dfcd7574c8d866bc",
                "assets": [
                    {
                        "address": "0xeeeeeeeeeeeeeeeeeeeeeeeeeeeeeeeeeeeeeeee",
                        "amount": "1.8",
                        "iconUrl": "https://assets.blocksec.com/image/1663669189317-3.png",
                        "isERC1155": false,
                        "isERC721": false,
                        "sign": true,
                        "value": "6071.935518"
                    }
                ]
            },
            {
                "account": "0xfdf47b657ab5062938ba23335b01e0f545faf852",
                "assets": [
                    {
                        "address": "0xeeeeeeeeeeeeeeeeeeeeeeeeeeeeeeeeeeeeeeee",
                        "amount": "1.8",
                        "iconUrl": "https://assets.blocksec.com/image/1663669189317-3.png",
                        "isERC1155": false,
                        "isERC721": false,
                        "sign": false,
                        "value": "6071.935518"
                    }
                ]
            }
        ]
    },
    "profile": {
        "basic_info": {
            "baseFee": "32.05738104",
            "blockNumber": 19582868,
            "callData": "0x07a91528000000000000000000000000000000000000000000000000000000000000006000000000000000000000000000000000000000000000000000b1a2bc2ec5000000000000000000000000000000000000000000000000005df234ce2c27f40000000000000000000000000000000000000000000000000000000000000000000d356e37b1fd3ded1c632f82010c6b5de391216ff8e112f7c89fc3bb37f582ece85d1088e8520a4f373150f46cb7ffd95c18430ee311376ebf08751abe92d1026a5d6467c0062fbc017151f1c79846c36bb2de33fa318692c84ca358074c27c1f99b6ac633f1a197b18ec21ac771b70df7efe5d9861c28327ac470fc291dd7a6a36b69d2ea834f699c24be4660d6407c518465dacf695c1ccc8219eac28f7b487f994ad3dc2f045cf0c52b40267107ed747d7ad7c59afec8d6e55bba3d7a55b237a1811420fb1942c9c271f6ae9a815cf96ccd68f9803338dbdc38b45c0e56a22fcf45ca94715e64c98f323ffa1fcf1bd9628409b9600d6922142bf6df074669dabe7d91bfc5c08eae4530e3b4a832ec9ac3944f8a1de0d0ff5712d75e930fae922515f1e3b8e1a1b56b17f9f87785e63f0688e8273094ca44a4a9d61d0f53365920d481426929fa67f42c34cdb3ef2556b32f4d11d8f3163ea383f3bedb4d422190dbc321f9b30d1546d2ff4885dbfee9142455c42fc72357525416e535ca64a6098f846d0559a6bbe1051359b6edfc7a11f939e08f3646de8c0309076bb69962",
            "debugEnable": true,
            "errorInfo": "",
            "eventCount": 1,
            "feeRecipient": "0x95222290dd7278aa3ddd389cc1e1d165cc4bafe5",
            "formatValue": "0",
            "gasLimit": 82116,
            "gasPrice": "32.072119319",
            "gasUsed": 76521,
            "intTxnCount": 3,
            "internalRevert": false,
            "internalRevertMessage": "",
            "isContractCreation": false,
            "isFlashloan": false,
            "maxFee": "44.622368628",
            "nonce": 44,
            "overwritedBlockNumber": -1,
            "priorityFee": "0.014738279",
            "receiver": "0xfdf47b657ab5062938ba23335b01e0f545faf852",
            "revertMessage": "",
            "sender": "0xd08f8f34cd8cd8536bba1834dfcd7574c8d866bc",
            "simulationEnable": true,
            "sourceTxnHash": "0xa7cabc22bb543cf6da7177cdcfadacedf63601011d544fa30f3ca22e99b1c0f9",
            "status": true,
            "timestamp": "2024-04-04T14:02:23Z",
            "transactionFee": "0.002454190642409199",
            "txnHash": "0xa7cabc22bb543cf6da7177cdcfadacedf63601011d544fa30f3ca22e99b1c0f9",
            "txnIndex": 153,
            "type": 2,
            "value": "0"
        },
        "fund_flow": [
            {
                "amount": "1.8",
                "from": "0xfdf47b657ab5062938ba23335b01e0f545faf852",
                "id": 1,
                "isERC1155": false,
                "isERC721": false,
                "isReverted": false,
                "order": 1,
                "to": "0xd08f8f34cd8cd8536bba1834dfcd7574c8d866bc",
                "token": "0xeeeeeeeeeeeeeeeeeeeeeeeeeeeeeeeeeeeeeeee"
            }
        ],
        "token_infos": [
            {
                "address": "0xc02aaa39b223fe8d0a0e5c4f27ead9083c756cc2",
                "decimals": 18
            },
            {
                "address": "0xeeeeeeeeeeeeeeeeeeeeeeeeeeeeeeeeeeeeeeee",
                "decimals": 18
            }
        ]
    },
    "address_label": {
        "labels": [
            {
                "address": "0x0000000000000000000000000000000000000001",
                "label": "Precompiled"
            },
            {
                "address": "0x0000000000000000000000000000000000000002",
                "label": "Precompiled"
            },
            {
                "address": "0x0000000000000000000000000000000000000003",
                "label": "Precompiled"
            },
            {
                "address": "0x0000000000000000000000000000000000000004",
                "label": "Precompiled"
            },
            {
                "address": "0xeeeeeeeeeeeeeeeeeeeeeeeeeeeeeeeeeeeeeeee",
                "label": "Ether"
            },
            {
                "address": "0xfdf47b657ab5062938ba23335b01e0f545faf852",
                "label": "Refunds"
            },
            {
                "address": "0x7a655a234ddf076c3530ac847040f8d8c5115021",
                "label": "Presale"
            }
        ]
    },
    "trace": {
        "accountLabels": null,
        "dataMap": {
            "-1": {
                "invocation": {
                    "address": "0xd08f8f34cd8cd8536bba1834dfcd7574c8d866bc",
                    "callData": "",
                    "decodedMethod": null,
                    "errorInfo": "",
                    "fromAddress": "",
                    "gasUsed": 0,
                    "id": -1,
                    "methodDecoded": false,
                    "operation": "",
                    "output": "",
                    "revert": false,
                    "revertMessage": "",
                    "selector": "",
                    "status": false,
                    "value": ""
                },
                "nodeType": 0
            },
            "0": {
                "invocation": {
                    "address": "0xfdf47b657ab5062938ba23335b01e0f545faf852",
                    "callData": "0x000000000000000000000000000000000000000000000000000000000000006000000000000000000000000000000000000000000000000000b1a2bc2ec5000000000000000000000000000000000000000000000000005df234ce2c27f40000000000000000000000000000000000000000000000000000000000000000000d356e37b1fd3ded1c632f82010c6b5de391216ff8e112f7c89fc3bb37f582ece85d1088e8520a4f373150f46cb7ffd95c18430ee311376ebf08751abe92d1026a5d6467c0062fbc017151f1c79846c36bb2de33fa318692c84ca358074c27c1f99b6ac633f1a197b18ec21ac771b70df7efe5d9861c28327ac470fc291dd7a6a36b69d2ea834f699c24be4660d6407c518465dacf695c1ccc8219eac28f7b487f994ad3dc2f045cf0c52b40267107ed747d7ad7c59afec8d6e55bba3d7a55b237a1811420fb1942c9c271f6ae9a815cf96ccd68f9803338dbdc38b45c0e56a22fcf45ca94715e64c98f323ffa1fcf1bd9628409b9600d6922142bf6df074669dabe7d91bfc5c08eae4530e3b4a832ec9ac3944f8a1de0d0ff5712d75e930fae922515f1e3b8e1a1b56b17f9f87785e63f0688e8273094ca44a4a9d61d0f53365920d481426929fa67f42c34cdb3ef2556b32f4d11d8f3163ea383f3bedb4d422190dbc321f9b30d1546d2ff4885dbfee9142455c42fc72357525416e535ca64a6098f846d0559a6bbe1051359b6edfc7a11f939e08f3646de8c0309076bb69962",
                    "decodedMethod": {
                        "callParams": [
                            {
                                "name": "_proof",
                                "type": "bytes32[]",
                                "value": [
                                    "0x356e37b1fd3ded1c632f82010c6b5de391216ff8e112f7c89fc3bb37f582ece8",
                                    "0x5d1088e8520a4f373150f46cb7ffd95c18430ee311376ebf08751abe92d1026a",
                                    "0x5d6467c0062fbc017151f1c79846c36bb2de33fa318692c84ca358074c27c1f9",
                                    "0x9b6ac633f1a197b18ec21ac771b70df7efe5d9861c28327ac470fc291dd7a6a3",
                                    "0x6b69d2ea834f699c24be4660d6407c518465dacf695c1ccc8219eac28f7b487f",
                                    "0x994ad3dc2f045cf0c52b40267107ed747d7ad7c59afec8d6e55bba3d7a55b237",
                                    "0xa1811420fb1942c9c271f6ae9a815cf96ccd68f9803338dbdc38b45c0e56a22f",
                                    "0xcf45ca94715e64c98f323ffa1fcf1bd9628409b9600d6922142bf6df074669da",
                                    "0xbe7d91bfc5c08eae4530e3b4a832ec9ac3944f8a1de0d0ff5712d75e930fae92",
                                    "0x2515f1e3b8e1a1b56b17f9f87785e63f0688e8273094ca44a4a9d61d0f533659",
                                    "0x20d481426929fa67f42c34cdb3ef2556b32f4d11d8f3163ea383f3bedb4d4221",
                                    "0x90dbc321f9b30d1546d2ff4885dbfee9142455c42fc72357525416e535ca64a6",
                                    "0x098f846d0559a6bbe1051359b6edfc7a11f939e08f3646de8c0309076bb69962"
                                ]
                            },
                            {
                                "name": "_ethAmount",
                                "type": "uint256",
                                "value": "50,000,000,000,000,000"
                            },
                            {
                                "name": "_tokensAmount",
                                "type": "uint256",
                                "value": "1,733,000,000,000,000,000,000"
                            }
                        ],
                        "constructorArguments": "",
                        "name": "claimRefund",
                        "returnParams": [],
                        "signature": "claimRefund(bytes32[],uint256,uint256)"
                    },
                    "errorInfo": "",
                    "fromAddress": "0xd08f8f34cd8cd8536bba1834dfcd7574c8d866bc",
                    "gasUsed": 76521,
                    "id": 0,
                    "methodDecoded": true,
                    "operation": "CALL",
                    "output": "",
                    "revert": false,
                    "revertMessage": "",
                    "selector": "0x07a91528",
                    "status": true,
                    "value": "0"
                },
                "nodeType": 0
            },
            "1": {
                "invocation": {
                    "address": "0x7a655a234ddf076c3530ac847040f8d8c5115021",
                    "callData": "0x",
                    "decodedMethod": {
                        "callParams": [],
                        "constructorArguments": "",
                        "name": "openPhaseAllocationsMerkleRoot",
                        "returnParams": [
                            {
                                "name": "",
                                "type": "bytes32",
                                "value": "0x7e7ad5897ac0bf1c2b965d29f5862921987d437c76838cd777963dbaeb363804"
                            }
                        ],
                        "signature": "openPhaseAllocationsMerkleRoot()"
                    },
                    "errorInfo": "",
                    "fromAddress": "0xfdf47b657ab5062938ba23335b01e0f545faf852",
                    "gasUsed": 2374,
                    "id": 1,
                    "methodDecoded": true,
                    "operation": "STATICCALL",
                    "output": "0x7e7ad5897ac0bf1c2b965d29f5862921987d437c76838cd777963dbaeb363804",
                    "revert": false,
                    "revertMessage": "",
                    "selector": "0x54e9f7cd",
                    "status": true,
                    "value": "0"
                },
                "nodeType": 0
            },
            "2": {
                "invocation": {
                    "address": "0x7a655a234ddf076c3530ac847040f8d8c5115021",
                    "callData": "0x000000000000000000000000d08f8f34cd8cd8536bba1834dfcd7574c8d866bc",
                    "decodedMethod": {
                        "callParams": [
                            {
                                "name": "",
                                "type": "address",
                                "value": "0xd08f8f34cd8cd8536bba1834dfcd7574c8d866bc"
                            }
                        ],
                        "constructorArguments": "",
                        "name": "openPhaseContributed",
                        "returnParams": [
                            {
                                "name": "",
                                "type": "uint256",
                                "value": "1,850,000,000,000,000,000"
                            }
                        ],
                        "signature": "openPhaseContributed(address)"
                    },
                    "errorInfo": "",
                    "fromAddress": "0xfdf47b657ab5062938ba23335b01e0f545faf852",
                    "gasUsed": 2557,
                    "id": 2,
                    "methodDecoded": true,
                    "operation": "STATICCALL",
                    "output": "0x00000000000000000000000000000000000000000000000019ac8532c2790000",
                    "revert": false,
                    "revertMessage": "",
                    "selector": "0xf3ef576c",
                    "status": true,
                    "value": "0"
                },
                "nodeType": 0
            },
            "3": {
                "invocation": {
                    "address": "0xd08f8f34cd8cd8536bba1834dfcd7574c8d866bc",
                    "callData": "0x",
                    "decodedMethod": null,
                    "errorInfo": "",
                    "fromAddress": "0xfdf47b657ab5062938ba23335b01e0f545faf852",
                    "gasUsed": 0,
                    "id": 3,
                    "methodDecoded": false,
                    "operation": "CALL",
                    "output": "",
                    "revert": false,
                    "revertMessage": "",
                    "selector": "fallback",
                    "status": true,
                    "value": "1.8"
                },
                "nodeType": 0
            },
            "4": {
                "event": {
                    "contract": "0xfdf47b657ab5062938ba23335b01e0f545faf852",
                    "decodedLog": {
                        "name": "Refunded",
                        "params": [
                            {
                                "name": "recipient",
                                "type": "address",
                                "value": "0xd08f8f34cd8cd8536bba1834dfcd7574c8d866bc"
                            },
                            {
                                "name": "amount",
                                "type": "uint256",
                                "value": "1,800,000,000,000,000,000"
                            }
                        ],
                        "signature": "Refunded(address,uint256)"
                    },
                    "id": 4,
                    "logData": "0x",
                    "logDecoded": true,
                    "operation": "EVENT",
                    "revert": false,
                    "status": true,
                    "topics": [
                        "0xd7dee2702d63ad89917b6a4da9981c90c4d24f8c2bdfd64c604ecae57d8d0651",
                        "0x000000000000000000000000d08f8f34cd8cd8536bba1834dfcd7574c8d866bc",
                        "0x00000000000000000000000000000000000000000000000018fae27693b40000"
                    ]
                },
                "nodeType": 1
            }
        },
        "gasFlame": [
            {
                "children": [
                    {
                        "children": [
                            {
                                "children": [],
                                "depth": 0,
                                "name": "Initial Gas",
                                "value": 28400
                            },
                            {
                                "children": [
                                    {
                                        "children": [],
                                        "depth": 1,
                                        "name": "openPhaseAllocationsMerkleRoot",
                                        "value": 2374
                                    },
                                    {
                                        "children": [],
                                        "depth": 1,
                                        "name": "openPhaseContributed",
                                        "value": 2557
                                    },
                                    {
                                        "children": [],
                                        "depth": 1,
                                        "name": "fallback",
                                        "value": 0
                                    }
                                ],
                                "depth": 0,
                                "name": "Executed Gas",
                                "value": 50921
                            }
                        ],
                        "depth": -1,
                        "name": "Actual Gas Used",
                        "value": 76521
                    },
                    {
                        "children": [],
                        "depth": -1,
                        "name": "Refunded Gas",
                        "value": 2800
                    }
                ],
                "depth": -2,
                "name": "Total Gas",
                "value": 79321
            }
        ],
        "isConfirmed": true,
        "mainTrace": [
            {
                "children": [
                    {
                        "children": [
                            {
                                "children": [],
                                "depth": 1,
                                "id": 1,
                                "order": 1
                            },
                            {
                                "children": [],
                                "depth": 1,
                                "id": 2,
                                "order": 2
                            },
                            {
                                "children": [],
                                "depth": 1,
                                "id": 3,
                                "order": 3
                            },
                            {
                                "children": [],
                                "depth": 1,
                                "id": 4,
                                "order": 4
                            }
                        ],
                        "depth": 0,
                        "id": 0,
                        "order": 0
                    }
                ],
                "depth": -1,
                "id": -1,
                "order": -1
            }
        ],
        "mainTraceNodeCount": 5,
        "parentIdMap": {
            "0": -1,
            "1": 0,
            "2": 0,
            "3": 0,
            "4": 0
        },
        "tidyTrace": [
            {
                "children": [
                    {
                        "children": [
                            {
                                "children": [],
                                "depth": 1,
                                "id": 3,
                                "order": 3
                            },
                            {
                                "children": [],
                                "depth": 1,
                                "id": 4,
                                "order": 4
                            }
                        ],
                        "depth": 0,
                        "id": 0,
                        "order": 0
                    }
                ],
                "depth": -1,
                "id": -1,
                "order": -1
            }
        ],
        "tidyTraceNodeCount": 3
    },
    "state_change": {
        "stateChanges": [
            {
                "address": "0xfdf47b657ab5062938ba23335b01e0f545faf852",
                "erc": "",
                "slots": [
                    {
                        "current": "0x0000000000000000000000000000000000000000000000000000000000000001",
                        "key": "0xc462847cf0361e0c2b265a5aefc82db8c1a162228747969501d11d011a866262",
                        "prev": "0x0000000000000000000000000000000000000000000000000000000000000000"
                    }
                ],
                "storageVariables": [
                    {
                        "name": "refunded",
                        "type": "mapping(address => bool)",
                        "value": {
                            "pairs": [
                                {
                                    "key": "0xd08f8f34cd8cd8536bba1834dfcd7574c8d866bc",
                                    "value": {
                                        "current": "true",
                                        "prev": "false",
                                        "typeTag": 1
                                    }
                                }
                            ],
                            "typeTag": 4
                        }
                    }
                ]
            }
        ]
    }
}