{
    "balance_change": {
        "balanceChanges": []
    },
    "profile": {
        "basic_info": {
            "baseFee": "",
            "blockNumber": 6195016,
            "callData": "0x0a19b14a000000000000000000000000ff3519eeeea3e76f1f699ccce5e23ee0bdda41ac000000000000000000000000000000000000000000000000000000000000004e000000000000000000000000000000000000000000000000000000000000000000000000000000000000000000000000000000000000000006ed83c14fe0000000000000000000000000000000000000000000000000000000000000005eadc600000000000000000000000000000000000000000000000000000000a76024d80000000000000000000000004a72cffb78a18dd6d3fd2bd24e9c8fcab4df1233000000000000000000000000000000000000000000000000000000000000001c5071310de5b7138e5506b96b4d1c9f8529b26d6425dd9ac037c5417c1568dde031cd4e7a71bfee6c9d5154f5355fae75f208e515ea52bebae958ee98b9624e2c000000000000000000000000000000000000000000000000000000000000004e",
            "debugEnable": true,
            "errorInfo": "",
            "eventCount": 1,
            "feeRecipient": "0xd4383232c8d1dbe0e03bdfab849871fa17e61807",
            "formatValue": "0",
            "gasLimit": 250000,
            "gasPrice": "4",
            "gasUsed": 107346,
            "intTxnCount": 2,
            "internalRevert": false,
            "internalRevertMessage": "",
            "isContractCreation": false,
            "isFlashloan": false,
            "maxFee": "",
            "nonce": 110,
            "overwritedBlockNumber": -1,
            "priorityFee": "",
            "receiver": "0x8d12a197cb00d4747a1fe03395095ce2a5cc6819",
            "revertMessage": "",
            "sender": "0xe7e7f922cfc016b96658b4a5dd26f59231f3c93e",
            "simulationEnable": true,
            "sourceTxnHash": "0xa87c441fec015d7467f37cb361b61e4265f2932d17007d392c3dedea3b3fed85",
            "status": true,
            "timestamp": "2018-08-22T19:26:09Z",
            "transactionFee": "0.000429384",
            "txnHash": "0xa87c441fec015d7467f37cb361b61e4265f2932d17007d392c3dedea3b3fed85",
            "txnIndex": 92,
            "type": 0,
            "value": "0"
        },
        "fund_flow": [],
        "token_infos": [
            {
                "address": "0xc02aaa39b223fe8d0a0e5c4f27ead9083c756cc2",
                "decimals": 18
            },
            {
                "address": "0xeeeeeeeeeeeeeeeeeeeeeeeeeeeeeeeeeeeeeeee",
                "decimals": 18
            }
        ]
    },
    "address_label": {
        "labels": [
            {
                "address": "0x0000000000000000000000000000000000000004",
                "label": "Precompiled"
            },
            {
                "address": "0xeeeeeeeeeeeeeeeeeeeeeeeeeeeeeeeeeeeeeeee",
                "label": "Ether"
            },
            {
                "address": "0x8d12a197cb00d4747a1fe03395095ce2a5cc6819",
                "label": "EtherDelta"
            },
            {
                "address": "0x0000000000000000000000000000000000000002",
                "label": "Precompiled"
            },
            {
                "address": "0x0000000000000000000000000000000000000000",
                "label": "Null Address"
            },
            {
                "address": "0xff3519eeeea3e76f1f699ccce5e23ee0bdda41ac",
                "label": "BCAP: Old Token"
            },
            {
                "address": "0x0000000000000000000000000000000000000001",
                "label": "Precompiled"
            },
            {
                "address": "0x0000000000000000000000000000000000000003",
                "label": "Precompiled"
            }
        ]
    },
    "trace": {
        "accountLabels": null,
        "dataMap": {
            "-1": {
                "invocation": {
                    "address": "0xe7e7f922cfc016b96658b4a5dd26f59231f3c93e",
                    "callData": "",
                    "decodedMethod": null,
                    "errorInfo": "",
                    "fromAddress": "",
                    "gasUsed": 0,
                    "id": -1,
                    "methodDecoded": false,
                    "operation": "",
                    "output": "",
                    "revert": false,
                    "revertMessage": "",
                    "selector": "",
                    "status": false,
                    "value": ""
                },
                "nodeType": 0
            },
            "0": {
                "invocation": {
                    "address": "0x8d12a197cb00d4747a1fe03395095ce2a5cc6819",
                    "callData": "0x000000000000000000000000ff3519eeeea3e76f1f699ccce5e23ee0bdda41ac000000000000000000000000000000000000000000000000000000000000004e000000000000000000000000000000000000000000000000000000000000000000000000000000000000000000000000000000000000000006ed83c14fe0000000000000000000000000000000000000000000000000000000000000005eadc600000000000000000000000000000000000000000000000000000000a76024d80000000000000000000000004a72cffb78a18dd6d3fd2bd24e9c8fcab4df1233000000000000000000000000000000000000000000000000000000000000001c5071310de5b7138e5506b96b4d1c9f8529b26d6425dd9ac037c5417c1568dde031cd4e7a71bfee6c9d5154f5355fae75f208e515ea52bebae958ee98b9624e2c000000000000000000000000000000000000000000000000000000000000004e",
                    "decodedMethod": {
                        "callParams": [
                            {
                                "name": "tokenGet",
                                "type": "address",
                                "value": "0xff3519eeeea3e76f1f699ccce5e23ee0bdda41ac"
                            },
                            {
                                "name": "amountGet",
                                "type": "uint256",
                                "value": "78"
                            },
                            {
                                "name": "tokenGive",
                                "type": "address",
                                "value": "0x0000000000000000000000000000000000000000"
                            },
                            {
                                "name": "amountGive",
                                "type": "uint256",
                                "value": "499,200,000,000,000,000"
                            },
                            {
                                "name": "expires",
                                "type": "uint256",
                                "value": "6,204,870"
                            },
                            {
                                "name": "nonce",
                                "type": "uint256",
                                "value": "2,808,095,960"
                            },
                            {
                                "name": "user",
                                "type": "address",
                                "value": "0x4a72cffb78a18dd6d3fd2bd24e9c8fcab4df1233"
                            },
                            {
                                "name": "v",
                                "type": "uint8",
                                "value": "28"
                            },
                            {
                                "name": "r",
                                "type": "bytes32",
                                "value": "0x5071310de5b7138e5506b96b4d1c9f8529b26d6425dd9ac037c5417c1568dde0"
                            },
                            {
                                "name": "s",
                                "type": "bytes32",
                                "value": "0x31cd4e7a71bfee6c9d5154f5355fae75f208e515ea52bebae958ee98b9624e2c"
                            },
                            {
                                "name": "amount",
                                "type": "uint256",
                                "value": "78"
                            }
                        ],
                        "constructorArguments": "",
                        "name": "trade",
                        "returnParams": [],
                        "signature": "trade(address,uint256,address,uint256,uint256,uint256,address,uint8,bytes32,bytes32,uint256)"
                    },
                    "errorInfo": "",
                    "fromAddress": "0xe7e7f922cfc016b96658b4a5dd26f59231f3c93e",
                    "gasUsed": 107346,
                    "id": 0,
                    "methodDecoded": true,
                    "operation": "CALL",
                    "output": "",
                    "revert": false,
                    "revertMessage": "",
                    "selector": "0x0a19b14a",
                    "status": true,
                    "value": "0"
                },
                "nodeType": 0
            },
            "1": {
                "invocation": {
                    "address": "0x0000000000000000000000000000000000000002",
                    "callData": "0xcb00d4747a1fe03395095ce2a5cc6819ff3519eeeea3e76f1f699ccce5e23ee0bdda41ac000000000000000000000000000000000000000000000000000000000000004e000000000000000000000000000000000000000000000000000000000000000000000000000000000000000006ed83c14fe0000000000000000000000000000000000000000000000000000000000000005eadc600000000000000000000000000000000000000000000000000000000a76024d8",
                    "decodedMethod": {
                        "callParams": [
                            {
                                "name": "data",
                                "type": "bytes",
                                "value": "0x8d12a197cb00d4747a1fe03395095ce2a5cc6819ff3519eeeea3e76f1f699ccce5e23ee0bdda41ac000000000000000000000000000000000000000000000000000000000000004e000000000000000000000000000000000000000000000000000000000000000000000000000000000000000006ed83c14fe0000000000000000000000000000000000000000000000000000000000000005eadc600000000000000000000000000000000000000000000000000000000a76024d8"
                            }
                        ],
                        "constructorArguments": "",
                        "name": "sha256hash",
                        "returnParams": [
                            {
                                "name": "hash",
                                "type": "bytes32",
                                "value": "0x82684024c1beb556843cd567ca897a02f6be16b7b5db88b54ca506ef738d1b19"
                            }
                        ],
                        "signature": "sha256hash(bytes)"
                    },
                    "errorInfo": "",
                    "fromAddress": "0x8d12a197cb00d4747a1fe03395095ce2a5cc6819",
                    "gasUsed": 132,
                    "id": 1,
                    "methodDecoded": true,
                    "operation": "CALL",
                    "output": "0x82684024c1beb556843cd567ca897a02f6be16b7b5db88b54ca506ef738d1b19",
                    "revert": false,
                    "revertMessage": "",
                    "selector": "0x8d12a197",
                    "status": true,
                    "value": "0"
                },
                "nodeType": 0
            },
            "2": {
                "invocation": {
                    "address": "0x0000000000000000000000000000000000000001",
                    "callData": "0xb4905a17c9221b5116ad8002b70c1fb12246da7523c6ec21b7c8aa83000000000000000000000000000000000000000000000000000000000000001c5071310de5b7138e5506b96b4d1c9f8529b26d6425dd9ac037c5417c1568dde031cd4e7a71bfee6c9d5154f5355fae75f208e515ea52bebae958ee98b9624e2c",
                    "decodedMethod": {
                        "callParams": [
                            {
                                "name": "hash",
                                "type": "bytes32",
                                "value": "0x39442033b4905a17c9221b5116ad8002b70c1fb12246da7523c6ec21b7c8aa83"
                            },
                            {
                                "name": "v",
                                "type": "uint256",
                                "value": "28"
                            },
                            {
                                "name": "r",
                                "type": "bytes32",
                                "value": "0x5071310de5b7138e5506b96b4d1c9f8529b26d6425dd9ac037c5417c1568dde0"
                            },
                            {
                                "name": "s",
                                "type": "bytes32",
                                "value": "0x31cd4e7a71bfee6c9d5154f5355fae75f208e515ea52bebae958ee98b9624e2c"
                            }
                        ],
                        "constructorArguments": "",
                        "name": "ecrecover",
                        "returnParams": [
                            {
                                "name": "",
                                "type": "address",
                                "value": "0x4a72cffb78a18dd6d3fd2bd24e9c8fcab4df1233"
                            }
                        ],
                        "signature": "ecrecover(bytes32,uint256,bytes32,bytes32)"
                    },
                    "errorInfo": "",
                    "fromAddress": "0x8d12a197cb00d4747a1fe03395095ce2a5cc6819",
                    "gasUsed": 3000,
                    "id": 2,
                    "methodDecoded": true,
                    "operation": "CALL",
                    "output": "0x0000000000000000000000004a72cffb78a18dd6d3fd2bd24e9c8fcab4df1233",
                    "revert": false,
                    "revertMessage": "",
                    "selector": "0x39442033",
                    "status": true,
                    "value": "0"
                },
                "nodeType": 0
            },
            "3": {
                "event": {
                    "contract": "0x8d12a197cb00d4747a1fe03395095ce2a5cc6819",
                    "decodedLog": {
                        "name": "Trade",
                        "params": [
                            {
                                "name": "tokenGet",
                                "type": "address",
                                "value": "0xff3519eeeea3e76f1f699ccce5e23ee0bdda41ac"
                            },
                            {
                                "name": "amountGet",
                                "type": "uint256",
                                "value": "78"
                            },
                            {
                                "name": "tokenGive",
                                "type": "address",
                                "value": "0x0000000000000000000000000000000000000000"
                            },
                            {
                                "name": "amountGive",
                                "type": "uint256",
                                "value": "499,200,000,000,000,000"
                            },
                            {
                                "name": "get",
                                "type": "address",
                                "value": "0x4a72cffb78a18dd6d3fd2bd24e9c8fcab4df1233"
                            },
                            {
                                "name": "give",
                                "type": "address",
                                "value": "0xe7e7f922cfc016b96658b4a5dd26f59231f3c93e"
                            }
                        ],
                        "signature": "Trade(address,uint256,address,uint256,address,address)"
                    },
                    "id": 3,
                    "logData": "0x000000000000000000000000ff3519eeeea3e76f1f699ccce5e23ee0bdda41ac000000000000000000000000000000000000000000000000000000000000004e000000000000000000000000000000000000000000000000000000000000000000000000000000000000000000000000000000000000000006ed83c14fe000000000000000000000000000004a72cffb78a18dd6d3fd2bd24e9c8fcab4df1233000000000000000000000000e7e7f922cfc016b96658b4a5dd26f59231f3c93e",
                    "logDecoded": true,
                    "operation": "EVENT",
                    "revert": false,
                    "status": true,
                    "topics": [
                        "0x6effdda786735d5033bfad5f53e5131abcced9e52be6c507b62d639685fbed6d"
                    ]
                },
                "nodeType": 1
            }
        },
        "gasFlame": [
            {
                "children": [
                    {
                        "children": [
                            {
                                "children": [],
                                "depth": 0,
                                "name": "Initial Gas",
                                "value": 30360
                            },
                            {
                                "children": [
                                    {
                                        "children": [],
                                        "depth": 1,
                                        "name": "sha256hash",
                                        "value": 132
                                    },
                                    {
                                        "children": [],
                                        "depth": 1,
                                        "name": "ecrecover",
                                        "value": 3000
                                    }
                                ],
                                "depth": 0,
                                "name": "Executed Gas",
                                "value": 76986
                            }
                        ],
                        "depth": -1,
                        "name": "Actual Gas Used",
                        "value": 107346
                    },
                    {
                        "children": [],
                        "depth": -1,
                        "name": "Refunded Gas",
                        "value": 0
                    }
                ],
                "depth": -2,
                "name": "Total Gas",
                "value": 107346
            }
        ],
        "isConfirmed": true,
        "mainTrace": [
            {
                "children": [
                    {
                        "children": [
                            {
                                "children": [],
                                "depth": 1,
                                "id": 1,
                                "order": 1
                            },
                            {
                                "children": [],
                                "depth": 1,
                                "id": 2,
                                "order": 2
                            },
                            {
                                "children": [],
                                "depth": 1,
                                "id": 3,
                                "order": 3
                            }
                        ],
                        "depth": 0,
                        "id": 0,
                        "order": 0
                    }
                ],
                "depth": -1,
                "id": -1,
                "order": -1
            }
        ],
        "mainTraceNodeCount": 4,
        "parentIdMap": {
            "0": -1,
            "1": 0,
            "2": 0,
            "3": 0
        },
        "tidyTrace": [
            {
                "children": [
                    {
                        "children": [
                            {
                                "children": [],
                                "depth": 1,
                                "id": 1,
                                "order": 1
                            },
                            {
                                "children": [],
                                "depth": 1,
                                "id": 2,
                                "order": 2
                            },
                            {
                                "children": [],
                                "depth": 1,
                                "id": 3,
                                "order": 3
                            }
                        ],
                        "depth": 0,
                        "id": 0,
                        "order": 0
                    }
                ],
                "depth": -1,
                "id": -1,
                "order": -1
            }
        ],
        "tidyTraceNodeCount": 4
    },
    "state_change": {
        "stateChanges": [
            {
                "address": "0x8d12a197cb00d4747a1fe03395095ce2a5cc6819",
                "erc": "",
                "slots": [
                    {
                        "current": "0x00000000000000000000000000000000000000000000000006ed8a0a586dc834",
                        "key": "0x83a26fd44c7cbb361cec01d8183468330237c658f4f6f5ad8d069b144fc3684c",
                        "prev": "0x00000000000000000000000000000000000000000000000000000649088dc834"
                    },
                    {
                        "current": "0x000000000000000000000000000000000000000000000000000000000000004e",
                        "key": "0x1830b577b1db7a4f4953e54440bc4a250f3e9eccd2d99f6f71704d4d6728ef63",
                        "prev": "0x0000000000000000000000000000000000000000000000000000000000000000"
                    },
                    {
                        "current": "0x00000000000000000000000000000000000000000000000000000000000002a0",
                        "key": "0x4d638b734ff0e7e2acabb794eed17fbf2843c1e512c00dd5ca651675e08def69",
                        "prev": "0x00000000000000000000000000000000000000000000000000000000000002ee"
                    },
                    {
                        "current": "0x000000000000000000000000000000000000000000000000000000000000004e",
                        "key": "0xd5f6f905f76778229876a171852616aa47809aaf920fc3d4622be8f035faf7e3",
                        "prev": "0x0000000000000000000000000000000000000000000000000000000000000000"
                    },
                    {
                        "current": "0x000000000000000000000000000000000000000000000000003633404cb18000",
                        "key": "0x97e0f55d274ecaab4bfe028ec9baadafdfbe2b05f9f6f410e08372d45ebd27f7",
                        "prev": "0x0000000000000000000000000000000000000000000000000723b7019c918000"
                    }
                ],
                "storageVariables": []
            }
        ]
    }
}