{
    "balance_change": {
        "balanceChanges": [
            {
                "account": "0x030072d8aeab997f4521ecf2e0f5f9eb75702d37",
                "assets": [
                    {
                        "address": "0x136723300aef2aab4b7cf52c3eaac6f997e12a68",
                        "amount": "30,000,000,000",
                        "iconUrl": "",
                        "isERC1155": false,
                        "isERC721": false,
                        "sign": false,
                        "value": ""
                    }
                ]
            },
            {
                "account": "0x2c4d852100417e9b9d1d70022246d4d06074ea64",
                "assets": [
                    {
                        "address": "0x136723300aef2aab4b7cf52c3eaac6f997e12a68",
                        "amount": "30,000,000,000",
                        "iconUrl": "",
                        "isERC1155": false,
                        "isERC721": false,
                        "sign": true,
                        "value": ""
                    }
                ]
            }
        ]
    },
    "profile": {
        "basic_info": {
            "baseFee": "",
            "blockNumber": 7753469,
            "callData": "0xa9059cbb0000000000000000000000002c4d852100417e9b9d1d70022246d4d06074ea6400000000000000000000000000000000000000000000000000000006fc23ac00",
            "debugEnable": true,
            "errorInfo": "",
            "eventCount": 1,
            "feeRecipient": "0xaa5c4244f05c92781c4f259913319d8ba1acf05e",
            "formatValue": "0",
            "gasLimit": 100000,
            "gasPrice": "1.21",
            "gasUsed": 21731,
            "intTxnCount": 0,
            "internalRevert": false,
            "internalRevertMessage": "",
            "isContractCreation": false,
            "isFlashloan": false,
            "maxFee": "",
            "nonce": 1,
            "overwritedBlockNumber": -1,
            "priorityFee": "",
            "receiver": "0x136723300aef2aab4b7cf52c3eaac6f997e12a68",
            "revertMessage": "",
            "sender": "0x030072d8aeab997f4521ecf2e0f5f9eb75702d37",
            "simulationEnable": true,
            "sourceTxnHash": "0xa8311e70b2750661d6930853dc4ce483d1d5ee1e4eb81606ae962e26a8c0f6fd",
            "status": true,
            "timestamp": "2019-05-13T17:59:05Z",
            "transactionFee": "0.00002629451",
            "txnHash": "0xa8311e70b2750661d6930853dc4ce483d1d5ee1e4eb81606ae962e26a8c0f6fd",
            "txnIndex": 120,
            "type": 0,
            "value": "0"
        },
        "fund_flow": [
            {
                "amount": "30,000,000,000",
                "from": "0x030072d8aeab997f4521ecf2e0f5f9eb75702d37",
                "id": 1,
                "isERC1155": false,
                "isERC721": false,
                "isReverted": false,
                "order": 1,
                "to": "0x2c4d852100417e9b9d1d70022246d4d06074ea64",
                "token": "0x136723300aef2aab4b7cf52c3eaac6f997e12a68"
            }
        ],
        "token_infos": [
            {
                "address": "0xeeeeeeeeeeeeeeeeeeeeeeeeeeeeeeeeeeeeeeee",
                "decimals": 18
            },
            {
                "address": "0xc02aaa39b223fe8d0a0e5c4f27ead9083c756cc2",
                "decimals": 18
            }
        ]
    },
    "address_label": {
        "labels": [
            {
                "address": "0x0000000000000000000000000000000000000002",
                "label": "Precompiled"
            },
            {
                "address": "0x0000000000000000000000000000000000000003",
                "label": "Precompiled"
            },
            {
                "address": "0x0000000000000000000000000000000000000004",
                "label": "Precompiled"
            },
            {
                "address": "0xeeeeeeeeeeeeeeeeeeeeeeeeeeeeeeeeeeeeeeee",
                "label": "Ether"
            },
            {
                "address": "0x136723300aef2aab4b7cf52c3eaac6f997e12a68",
                "label": "HAI"
            },
            {
                "address": "0x0000000000000000000000000000000000000001",
                "label": "Precompiled"
            }
        ]
    },
    "trace": {
        "accountLabels": null,
        "dataMap": {
            "-1": {
                "invocation": {
                    "address": "0x030072d8aeab997f4521ecf2e0f5f9eb75702d37",
                    "callData": "",
                    "decodedMethod": null,
                    "errorInfo": "",
                    "fromAddress": "",
                    "gasUsed": 0,
                    "id": -1,
                    "methodDecoded": false,
                    "operation": "",
                    "output": "",
                    "revert": false,
                    "revertMessage": "",
                    "selector": "",
                    "status": false,
                    "value": ""
                },
                "nodeType": 0
            },
            "0": {
                "invocation": {
                    "address": "0x136723300aef2aab4b7cf52c3eaac6f997e12a68",
                    "callData": "0x0000000000000000000000002c4d852100417e9b9d1d70022246d4d06074ea6400000000000000000000000000000000000000000000000000000006fc23ac00",
                    "decodedMethod": {
                        "callParams": [
                            {
                                "name": "_to",
                                "type": "address",
                                "value": "0x2c4d852100417e9b9d1d70022246d4d06074ea64"
                            },
                            {
                                "decimalAvailable": true,
                                "name": "_value",
                                "type": "uint256",
                                "value": "30,000,000,000"
                            }
                        ],
                        "constructorArguments": "",
                        "name": "transfer",
                        "returnParams": [
                            {
                                "name": "success",
                                "type": "bool",
                                "value": true
                            }
                        ],
                        "signature": "transfer(address,uint256)"
                    },
                    "errorInfo": "",
                    "fromAddress": "0x030072d8aeab997f4521ecf2e0f5f9eb75702d37",
                    "gasUsed": 21731,
                    "id": 0,
                    "methodDecoded": true,
                    "operation": "CALL",
                    "output": "0x0000000000000000000000000000000000000000000000000000000000000001",
                    "revert": false,
                    "revertMessage": "",
                    "selector": "0xa9059cbb",
                    "status": true,
                    "value": "0"
                },
                "nodeType": 0
            },
            "1": {
                "event": {
                    "contract": "0x136723300aef2aab4b7cf52c3eaac6f997e12a68",
                    "decodedLog": {
                        "name": "Transfer",
                        "params": [
                            {
                                "name": "_from",
                                "type": "address",
                                "value": "0x030072d8aeab997f4521ecf2e0f5f9eb75702d37"
                            },
                            {
                                "name": "_to",
                                "type": "address",
                                "value": "0x2c4d852100417e9b9d1d70022246d4d06074ea64"
                            },
                            {
                                "decimalAvailable": true,
                                "name": "_value",
                                "type": "uint256",
                                "value": "30,000,000,000"
                            }
                        ],
                        "signature": "Transfer(address,address,uint256)"
                    },
                    "id": 1,
                    "logData": "0x00000000000000000000000000000000000000000000000000000006fc23ac00",
                    "logDecoded": true,
                    "operation": "EVENT",
                    "revert": false,
                    "status": true,
                    "topics": [
                        "0xddf252ad1be2c89b69c2b068fc378daa952ba7f163c4a11628f55a4df523b3ef",
                        "0x000000000000000000000000030072d8aeab997f4521ecf2e0f5f9eb75702d37",
                        "0x0000000000000000000000002c4d852100417e9b9d1d70022246d4d06074ea64"
                    ]
                },
                "nodeType": 1
            }
        },
        "gasFlame": [
            {
                "children": [
                    {
                        "children": [
                            {
                                "children": [],
                                "depth": 0,
                                "name": "Initial Gas",
                                "value": 23000
                            },
                            {
                                "children": [],
                                "depth": 0,
                                "name": "Executed Gas",
                                "value": 13731
                            }
                        ],
                        "depth": -1,
                        "name": "Actual Gas Used",
                        "value": 21731
                    },
                    {
                        "children": [],
                        "depth": -1,
                        "name": "Refunded Gas",
                        "value": 15000
                    }
                ],
                "depth": -2,
                "name": "Total Gas",
                "value": 36731
            }
        ],
        "isConfirmed": true,
        "mainTrace": [
            {
                "children": [
                    {
                        "children": [
                            {
                                "children": [],
                                "depth": 1,
                                "id": 1,
                                "order": 1
                            }
                        ],
                        "depth": 0,
                        "id": 0,
                        "order": 0
                    }
                ],
                "depth": -1,
                "id": -1,
                "order": -1
            }
        ],
        "mainTraceNodeCount": 2,
        "parentIdMap": {
            "0": -1,
            "1": 0
        },
        "tidyTrace": [
            {
                "children": [
                    {
                        "children": [
                            {
                                "children": [],
                                "depth": 1,
                                "id": 1,
                                "order": 1
                            }
                        ],
                        "depth": 0,
                        "id": 0,
                        "order": 0
                    }
                ],
                "depth": -1,
                "id": -1,
                "order": -1
            }
        ],
        "tidyTraceNodeCount": 2
    },
    "state_change": {
        "stateChanges": [
            {
                "address": "0x136723300aef2aab4b7cf52c3eaac6f997e12a68",
                "erc": "ERC-20",
                "slots": [
                    {
                        "current": "0x0000000000000000000000000000000000000000000000000000000000000000",
                        "key": "0x26fc9f291a1d69d21d6204ef9883b466ae2aecadc524723bf568df5d3016b686",
                        "prev": "0x00000000000000000000000000000000000000000000000000000006fc23ac00"
                    },
                    {
                        "current": "0x000000000000000000000000000000000000000000000000000169ecc512e7d4",
                        "key": "0x9ba6572c8c136561a13de2d54585ecb4e1e5f2660c21ad045d7f31add137a9ed",
                        "prev": "0x000000000000000000000000000000000000000000000000000169e5c8ef3bd4"
                    }
                ],
                "storageVariables": [
                    {
                        "name": "balanceOf",
                        "type": "mapping(address => uint256)",
                        "value": {
                            "pairs": [
                                {
                                    "key": "0x030072d8aeab997f4521ecf2e0f5f9eb75702d37",
                                    "value": {
                                        "current": "0",
                                        "prev": "30000000000",
                                        "typeTag": 1
                                    }
                                },
                                {
                                    "key": "0x2c4d852100417e9b9d1d70022246d4d06074ea64",
                                    "value": {
                                        "current": "397940616259540",
                                        "prev": "397910616259540",
                                        "typeTag": 1
                                    }
                                }
                            ],
                            "typeTag": 4
                        }
                    }
                ]
            }
        ]
    }
}