{
    "balance_change": {
        "balanceChanges": [
            {
                "account": "0x9cb6247bf9e22da514b1b32acae28c560c73d848",
                "assets": [
                    {
                        "address": "0x5b7533812759b45c2b44c19e320ba2cd2681b542",
                        "amount": "20,000",
                        "iconUrl": "https://assets.blocksec.com/icon/f44f51cd1fc83a13b27bd7681d74f1f997012607855c370a318cd98669a4bbd6.png",
                        "isERC1155": false,
                        "isERC721": false,
                        "sign": false,
                        "value": "10605.999999999999872"
                    }
                ]
            },
            {
                "account": "0x2bdfe7f210c0d7caee8cac7d718f2838c28a3e8c",
                "assets": [
                    {
                        "address": "0x5b7533812759b45c2b44c19e320ba2cd2681b542",
                        "amount": "20,000",
                        "iconUrl": "https://assets.blocksec.com/icon/f44f51cd1fc83a13b27bd7681d74f1f997012607855c370a318cd98669a4bbd6.png",
                        "isERC1155": false,
                        "isERC721": false,
                        "sign": true,
                        "value": "10605.999999999999872"
                    }
                ]
            }
        ]
    },
    "profile": {
        "basic_info": {
            "baseFee": "29.418521144",
            "blockNumber": 16849914,
            "callData": "0xa9059cbb0000000000000000000000002bdfe7f210c0d7caee8cac7d718f2838c28a3e8c000000000000000000000000000000000000000000000000000001d1a94a2000",
            "debugEnable": true,
            "errorInfo": "",
            "eventCount": 1,
            "feeRecipient": "0x95222290dd7278aa3ddd389cc1e1d165cc4bafe5",
            "formatValue": "0",
            "gasLimit": 80877,
            "gasPrice": "29.518521144",
            "gasUsed": 49118,
            "intTxnCount": 0,
            "internalRevert": false,
            "internalRevertMessage": "",
            "isContractCreation": false,
            "isFlashloan": false,
            "maxFee": "36.561649866",
            "nonce": 1635,
            "overwritedBlockNumber": -1,
            "priorityFee": "0.1",
            "receiver": "0x5b7533812759b45c2b44c19e320ba2cd2681b542",
            "revertMessage": "",
            "sender": "0x9cb6247bf9e22da514b1b32acae28c560c73d848",
            "simulationEnable": true,
            "sourceTxnHash": "0xa898a21281a97faa25eb12bf6bc997a8aca140e460e1e7d8ac71761e8af8e40f",
            "status": true,
            "timestamp": "2023-03-17T20:30:59Z",
            "transactionFee": "0.001449890721550992",
            "txnHash": "0xa898a21281a97faa25eb12bf6bc997a8aca140e460e1e7d8ac71761e8af8e40f",
            "txnIndex": 90,
            "type": 2,
            "value": "0"
        },
        "fund_flow": [
            {
                "amount": "20,000",
                "from": "0x9cb6247bf9e22da514b1b32acae28c560c73d848",
                "id": 1,
                "isERC1155": false,
                "isERC721": false,
                "isReverted": false,
                "order": 1,
                "to": "0x2bdfe7f210c0d7caee8cac7d718f2838c28a3e8c",
                "token": "0x5b7533812759b45c2b44c19e320ba2cd2681b542"
            }
        ],
        "token_infos": [
            {
                "address": "0x5b7533812759b45c2b44c19e320ba2cd2681b542",
                "decimals": 8
            },
            {
                "address": "0xc02aaa39b223fe8d0a0e5c4f27ead9083c756cc2",
                "decimals": 18
            },
            {
                "address": "0xeeeeeeeeeeeeeeeeeeeeeeeeeeeeeeeeeeeeeeee",
                "decimals": 18
            }
        ]
    },
    "address_label": {
        "labels": [
            {
                "address": "0xeeeeeeeeeeeeeeeeeeeeeeeeeeeeeeeeeeeeeeee",
                "label": "Ether"
            },
            {
                "address": "0x2bdfe7f210c0d7caee8cac7d718f2838c28a3e8c",
                "label": "BINANCE"
            },
            {
                "address": "0x5b7533812759b45c2b44c19e320ba2cd2681b542",
                "label": "SingularityNET: AGIX Token"
            },
            {
                "address": "0x0000000000000000000000000000000000000001",
                "label": "Precompiled"
            },
            {
                "address": "0x0000000000000000000000000000000000000002",
                "label": "Precompiled"
            },
            {
                "address": "0x0000000000000000000000000000000000000003",
                "label": "Precompiled"
            },
            {
                "address": "0x0000000000000000000000000000000000000004",
                "label": "Precompiled"
            }
        ]
    },
    "trace": {
        "accountLabels": null,
        "dataMap": {
            "-1": {
                "invocation": {
                    "address": "0x9cb6247bf9e22da514b1b32acae28c560c73d848",
                    "callData": "",
                    "decodedMethod": null,
                    "errorInfo": "",
                    "fromAddress": "",
                    "gasUsed": 0,
                    "id": -1,
                    "methodDecoded": false,
                    "operation": "",
                    "output": "",
                    "revert": false,
                    "revertMessage": "",
                    "selector": "",
                    "status": false,
                    "value": ""
                },
                "nodeType": 0
            },
            "0": {
                "invocation": {
                    "address": "0x5b7533812759b45c2b44c19e320ba2cd2681b542",
                    "callData": "0x0000000000000000000000002bdfe7f210c0d7caee8cac7d718f2838c28a3e8c000000000000000000000000000000000000000000000000000001d1a94a2000",
                    "decodedMethod": {
                        "callParams": [
                            {
                                "name": "recipient",
                                "type": "address",
                                "value": "0x2bdfe7f210c0d7caee8cac7d718f2838c28a3e8c"
                            },
                            {
                                "decimalAvailable": true,
                                "name": "amount",
                                "type": "uint256",
                                "value": "2,000,000,000,000"
                            }
                        ],
                        "constructorArguments": "",
                        "name": "transfer",
                        "returnParams": [
                            {
                                "name": "",
                                "type": "bool",
                                "value": true
                            }
                        ],
                        "signature": "transfer(address,uint256)"
                    },
                    "errorInfo": "",
                    "fromAddress": "0x9cb6247bf9e22da514b1b32acae28c560c73d848",
                    "gasUsed": 49118,
                    "id": 0,
                    "methodDecoded": true,
                    "operation": "CALL",
                    "output": "0x0000000000000000000000000000000000000000000000000000000000000001",
                    "revert": false,
                    "revertMessage": "",
                    "selector": "0xa9059cbb",
                    "status": true,
                    "value": "0"
                },
                "nodeType": 0
            },
            "1": {
                "event": {
                    "contract": "0x5b7533812759b45c2b44c19e320ba2cd2681b542",
                    "decodedLog": {
                        "name": "Transfer",
                        "params": [
                            {
                                "name": "from",
                                "type": "address",
                                "value": "0x9cb6247bf9e22da514b1b32acae28c560c73d848"
                            },
                            {
                                "name": "to",
                                "type": "address",
                                "value": "0x2bdfe7f210c0d7caee8cac7d718f2838c28a3e8c"
                            },
                            {
                                "decimalAvailable": true,
                                "name": "value",
                                "type": "uint256",
                                "value": "2,000,000,000,000"
                            }
                        ],
                        "signature": "Transfer(address,address,uint256)"
                    },
                    "id": 1,
                    "logData": "0x000000000000000000000000000000000000000000000000000001d1a94a2000",
                    "logDecoded": true,
                    "operation": "EVENT",
                    "revert": false,
                    "status": true,
                    "topics": [
                        "0xddf252ad1be2c89b69c2b068fc378daa952ba7f163c4a11628f55a4df523b3ef",
                        "0x0000000000000000000000009cb6247bf9e22da514b1b32acae28c560c73d848",
                        "0x0000000000000000000000002bdfe7f210c0d7caee8cac7d718f2838c28a3e8c"
                    ]
                },
                "nodeType": 1
            }
        },
        "gasFlame": [
            {
                "children": [
                    {
                        "children": [
                            {
                                "children": [],
                                "depth": 0,
                                "name": "Initial Gas",
                                "value": 21620
                            },
                            {
                                "children": [],
                                "depth": 0,
                                "name": "Executed Gas",
                                "value": 32298
                            }
                        ],
                        "depth": -1,
                        "name": "Actual Gas Used",
                        "value": 49118
                    },
                    {
                        "children": [],
                        "depth": -1,
                        "name": "Refunded Gas",
                        "value": 4800
                    }
                ],
                "depth": -2,
                "name": "Total Gas",
                "value": 53918
            }
        ],
        "isConfirmed": true,
        "mainTrace": [
            {
                "children": [
                    {
                        "children": [
                            {
                                "children": [],
                                "depth": 1,
                                "id": 1,
                                "order": 1
                            }
                        ],
                        "depth": 0,
                        "id": 0,
                        "order": 0
                    }
                ],
                "depth": -1,
                "id": -1,
                "order": -1
            }
        ],
        "mainTraceNodeCount": 2,
        "parentIdMap": {
            "0": -1,
            "1": 0
        },
        "tidyTrace": [
            {
                "children": [
                    {
                        "children": [
                            {
                                "children": [],
                                "depth": 1,
                                "id": 1,
                                "order": 1
                            }
                        ],
                        "depth": 0,
                        "id": 0,
                        "order": 0
                    }
                ],
                "depth": -1,
                "id": -1,
                "order": -1
            }
        ],
        "tidyTraceNodeCount": 2
    },
    "state_change": {
        "stateChanges": [
            {
                "address": "0x5b7533812759b45c2b44c19e320ba2cd2681b542",
                "erc": "ERC-20",
                "slots": [
                    {
                        "current": "0x0000000000000000000000000000000000000000000000000000000000000000",
                        "key": "0x14d652214f2a9e3dec51392c5debd41a2eeba36aea2161196281e26bea0149a0",
                        "prev": "0x000000000000000000000000000000000000000000000000000001d1a94a2000"
                    },
                    {
                        "current": "0x000000000000000000000000000000000000000000000000000001d1a94a2000",
                        "key": "0xee3bab5310507e3f2f19272b69119e3f39c5861a8960f598f677c21d5324423e",
                        "prev": "0x0000000000000000000000000000000000000000000000000000000000000000"
                    }
                ],
                "storageVariables": [
                    {
                        "name": "_balances",
                        "type": "mapping(address => uint256)",
                        "value": {
                            "pairs": [
                                {
                                    "key": "0x2bdfe7f210c0d7caee8cac7d718f2838c28a3e8c",
                                    "value": {
                                        "current": "2000000000000",
                                        "prev": "0",
                                        "typeTag": 1
                                    }
                                },
                                {
                                    "key": "0x9cb6247bf9e22da514b1b32acae28c560c73d848",
                                    "value": {
                                        "current": "0",
                                        "prev": "2000000000000",
                                        "typeTag": 1
                                    }
                                }
                            ],
                            "typeTag": 4
                        }
                    }
                ]
            }
        ]
    }
}