{
    "balance_change": {
        "balanceChanges": [
            {
                "account": "0x6ac124e2b4b7402b2483331cabaebf8392064784",
                "assets": [
                    {
                        "address": "0xf411903cbc70a74d22900a5de66a2dda66507255",
                        "amount": "504,743.000033",
                        "iconUrl": "",
                        "isERC1155": false,
                        "isERC721": false,
                        "sign": false,
                        "value": "4044.769934"
                    }
                ]
            },
            {
                "account": "0xe2e54270813c5c44a6f97d123120952a12b00000",
                "assets": [
                    {
                        "address": "0xf411903cbc70a74d22900a5de66a2dda66507255",
                        "amount": "504,743.000033",
                        "iconUrl": "",
                        "isERC1155": false,
                        "isERC721": false,
                        "sign": true,
                        "value": "4044.769934"
                    }
                ]
            }
        ]
    },
    "profile": {
        "basic_info": {
            "baseFee": "27.32509001",
            "blockNumber": 14829794,
            "callData": "0xa9059cbb000000000000000000000000e2e54270813c5c44a6f97d123120952a12b00000000000000000000000000000000000000000000000006ae22c407efc87831000",
            "debugEnable": true,
            "errorInfo": "",
            "eventCount": 2,
            "feeRecipient": "0x646db8ffc21e7ddc2b6327448dd9fa560df41087",
            "formatValue": "0",
            "gasLimit": 250000,
            "gasPrice": "86",
            "gasUsed": 72288,
            "intTxnCount": 2,
            "internalRevert": false,
            "internalRevertMessage": "",
            "isContractCreation": false,
            "isFlashloan": false,
            "maxFee": "",
            "nonce": 1645,
            "overwritedBlockNumber": -1,
            "priorityFee": "",
            "receiver": "0xf411903cbc70a74d22900a5de66a2dda66507255",
            "revertMessage": "",
            "sender": "0x6ac124e2b4b7402b2483331cabaebf8392064784",
            "simulationEnable": true,
            "sourceTxnHash": "0xa871adfb49fb771386cd97cdd52d98251ae73d8ff0b3dbbcc0cd55fb0daceaf9",
            "status": true,
            "timestamp": "2022-05-23T13:16:06Z",
            "transactionFee": "0.006216768",
            "txnHash": "0xa871adfb49fb771386cd97cdd52d98251ae73d8ff0b3dbbcc0cd55fb0daceaf9",
            "txnIndex": 1,
            "type": 0,
            "value": "0"
        },
        "fund_flow": [
            {
                "amount": "504,743.000033",
                "from": "0x6ac124e2b4b7402b2483331cabaebf8392064784",
                "id": 1,
                "isERC1155": false,
                "isERC721": false,
                "isReverted": false,
                "order": 1,
                "to": "0xe2e54270813c5c44a6f97d123120952a12b00000",
                "token": "0xf411903cbc70a74d22900a5de66a2dda66507255"
            }
        ],
        "token_infos": [
            {
                "address": "0xc02aaa39b223fe8d0a0e5c4f27ead9083c756cc2",
                "decimals": 18
            },
            {
                "address": "0xf411903cbc70a74d22900a5de66a2dda66507255",
                "decimals": 18
            },
            {
                "address": "0xeeeeeeeeeeeeeeeeeeeeeeeeeeeeeeeeeeeeeeee",
                "decimals": 18
            }
        ]
    },
    "address_label": {
        "labels": [
            {
                "address": "0x0000000000000000000000000000000000000001",
                "label": "Precompiled"
            },
            {
                "address": "0x0000000000000000000000000000000000000002",
                "label": "Precompiled"
            },
            {
                "address": "0x0000000000000000000000000000000000000003",
                "label": "Precompiled"
            },
            {
                "address": "0x0000000000000000000000000000000000000004",
                "label": "Precompiled"
            },
            {
                "address": "0xeeeeeeeeeeeeeeeeeeeeeeeeeeeeeeeeeeeeeeee",
                "label": "Ether"
            },
            {
                "address": "0x1820a4b7618bde71dce8cdc73aab6c95905fad24",
                "label": "ERC1820Registry"
            },
            {
                "address": "0x0000000000000000000000000000000000000000",
                "label": "Null Address"
            },
            {
                "address": "0xf411903cbc70a74d22900a5de66a2dda66507255",
                "label": "Verasity: VRA Token"
            }
        ]
    },
    "trace": {
        "accountLabels": null,
        "dataMap": {
            "-1": {
                "invocation": {
                    "address": "0x6ac124e2b4b7402b2483331cabaebf8392064784",
                    "callData": "",
                    "decodedMethod": null,
                    "errorInfo": "",
                    "fromAddress": "",
                    "gasUsed": 0,
                    "id": -1,
                    "methodDecoded": false,
                    "operation": "",
                    "output": "",
                    "revert": false,
                    "revertMessage": "",
                    "selector": "",
                    "status": false,
                    "value": ""
                },
                "nodeType": 0
            },
            "0": {
                "invocation": {
                    "address": "0xf411903cbc70a74d22900a5de66a2dda66507255",
                    "callData": "0x000000000000000000000000e2e54270813c5c44a6f97d123120952a12b00000000000000000000000000000000000000000000000006ae22c407efc87831000",
                    "decodedMethod": {
                        "callParams": [
                            {
                                "name": "recipient",
                                "type": "address",
                                "value": "0xe2e54270813c5c44a6f97d123120952a12b00000"
                            },
                            {
                                "decimalAvailable": true,
                                "name": "amount",
                                "type": "uint256",
                                "value": "504,743,000,033,000,000,000,000"
                            }
                        ],
                        "constructorArguments": "",
                        "name": "transfer",
                        "returnParams": [
                            {
                                "name": "",
                                "type": "bool",
                                "value": true
                            }
                        ],
                        "signature": "transfer(address,uint256)"
                    },
                    "errorInfo": "",
                    "fromAddress": "0x6ac124e2b4b7402b2483331cabaebf8392064784",
                    "gasUsed": 72288,
                    "id": 0,
                    "methodDecoded": true,
                    "operation": "CALL",
                    "output": "0x0000000000000000000000000000000000000000000000000000000000000001",
                    "revert": false,
                    "revertMessage": "",
                    "selector": "0xa9059cbb",
                    "status": true,
                    "value": "0"
                },
                "nodeType": 0
            },
            "1": {
                "invocation": {
                    "address": "0x1820a4b7618bde71dce8cdc73aab6c95905fad24",
                    "callData": "0x0000000000000000000000006ac124e2b4b7402b2483331cabaebf839206478429ddb589b1fb5fc7cf394961c1adf5f8c6454761adf795e67fe149f658abe895",
                    "decodedMethod": {
                        "callParams": [
                            {
                                "name": "_addr",
                                "type": "address",
                                "value": "0x6ac124e2b4b7402b2483331cabaebf8392064784"
                            },
                            {
                                "name": "_interfaceHash",
                                "type": "bytes32",
                                "value": "0x29ddb589b1fb5fc7cf394961c1adf5f8c6454761adf795e67fe149f658abe895"
                            }
                        ],
                        "constructorArguments": "",
                        "name": "getInterfaceImplementer",
                        "returnParams": [
                            {
                                "name": "",
                                "type": "address",
                                "value": "0x0000000000000000000000000000000000000000"
                            }
                        ],
                        "signature": "getInterfaceImplementer(address,bytes32)"
                    },
                    "errorInfo": "",
                    "fromAddress": "0xf411903cbc70a74d22900a5de66a2dda66507255",
                    "gasUsed": 2942,
                    "id": 1,
                    "methodDecoded": true,
                    "operation": "STATICCALL",
                    "output": "0x0000000000000000000000000000000000000000000000000000000000000000",
                    "revert": false,
                    "revertMessage": "",
                    "selector": "0xaabbb8ca",
                    "status": true,
                    "value": "0"
                },
                "nodeType": 0
            },
            "2": {
                "event": {
                    "contract": "0xf411903cbc70a74d22900a5de66a2dda66507255",
                    "decodedLog": {
                        "name": "Sent",
                        "params": [
                            {
                                "name": "operator",
                                "type": "address",
                                "value": "0x6ac124e2b4b7402b2483331cabaebf8392064784"
                            },
                            {
                                "name": "from",
                                "type": "address",
                                "value": "0x6ac124e2b4b7402b2483331cabaebf8392064784"
                            },
                            {
                                "name": "to",
                                "type": "address",
                                "value": "0xe2e54270813c5c44a6f97d123120952a12b00000"
                            },
                            {
                                "name": "amount",
                                "type": "uint256",
                                "value": "504,743,000,033,000,000,000,000"
                            },
                            {
                                "name": "data",
                                "type": "bytes",
                                "value": "0x"
                            },
                            {
                                "name": "operatorData",
                                "type": "bytes",
                                "value": "0x"
                            }
                        ],
                        "signature": "Sent(address,address,address,uint256,bytes,bytes)"
                    },
                    "id": 2,
                    "logData": "0x000000000000000000000000000000000000000000006ae22c407efc878310000000000000000000000000000000000000000000000000000000000000000060000000000000000000000000000000000000000000000000000000000000008000000000000000000000000000000000000000000000000000000000000000000000000000000000000000000000000000000000000000000000000000000000",
                    "logDecoded": true,
                    "operation": "EVENT",
                    "revert": false,
                    "status": true,
                    "topics": [
                        "0x06b541ddaa720db2b10a4d0cdac39b8d360425fc073085fac19bc82614677987",
                        "0x0000000000000000000000006ac124e2b4b7402b2483331cabaebf8392064784",
                        "0x0000000000000000000000006ac124e2b4b7402b2483331cabaebf8392064784",
                        "0x000000000000000000000000e2e54270813c5c44a6f97d123120952a12b00000"
                    ]
                },
                "nodeType": 1
            },
            "3": {
                "event": {
                    "contract": "0xf411903cbc70a74d22900a5de66a2dda66507255",
                    "decodedLog": {
                        "name": "Transfer",
                        "params": [
                            {
                                "name": "from",
                                "type": "address",
                                "value": "0x6ac124e2b4b7402b2483331cabaebf8392064784"
                            },
                            {
                                "name": "to",
                                "type": "address",
                                "value": "0xe2e54270813c5c44a6f97d123120952a12b00000"
                            },
                            {
                                "decimalAvailable": true,
                                "name": "value",
                                "type": "uint256",
                                "value": "504,743,000,033,000,000,000,000"
                            }
                        ],
                        "signature": "Transfer(address,address,uint256)"
                    },
                    "id": 3,
                    "logData": "0x000000000000000000000000000000000000000000006ae22c407efc87831000",
                    "logDecoded": true,
                    "operation": "EVENT",
                    "revert": false,
                    "status": true,
                    "topics": [
                        "0xddf252ad1be2c89b69c2b068fc378daa952ba7f163c4a11628f55a4df523b3ef",
                        "0x0000000000000000000000006ac124e2b4b7402b2483331cabaebf8392064784",
                        "0x000000000000000000000000e2e54270813c5c44a6f97d123120952a12b00000"
                    ]
                },
                "nodeType": 1
            },
            "4": {
                "invocation": {
                    "address": "0x1820a4b7618bde71dce8cdc73aab6c95905fad24",
                    "callData": "0x000000000000000000000000e2e54270813c5c44a6f97d123120952a12b00000b281fc8c12954d22544db45de3159a39272895b169a852b314f9cc762e44c53b",
                    "decodedMethod": {
                        "callParams": [
                            {
                                "name": "_addr",
                                "type": "address",
                                "value": "0xe2e54270813c5c44a6f97d123120952a12b00000"
                            },
                            {
                                "name": "_interfaceHash",
                                "type": "bytes32",
                                "value": "0xb281fc8c12954d22544db45de3159a39272895b169a852b314f9cc762e44c53b"
                            }
                        ],
                        "constructorArguments": "",
                        "name": "getInterfaceImplementer",
                        "returnParams": [
                            {
                                "name": "",
                                "type": "address",
                                "value": "0x0000000000000000000000000000000000000000"
                            }
                        ],
                        "signature": "getInterfaceImplementer(address,bytes32)"
                    },
                    "errorInfo": "",
                    "fromAddress": "0xf411903cbc70a74d22900a5de66a2dda66507255",
                    "gasUsed": 2942,
                    "id": 4,
                    "methodDecoded": true,
                    "operation": "STATICCALL",
                    "output": "0x0000000000000000000000000000000000000000000000000000000000000000",
                    "revert": false,
                    "revertMessage": "",
                    "selector": "0xaabbb8ca",
                    "status": true,
                    "value": "0"
                },
                "nodeType": 0
            }
        },
        "gasFlame": [
            {
                "children": [
                    {
                        "children": [
                            {
                                "children": [],
                                "depth": 0,
                                "name": "Initial Gas",
                                "value": 21644
                            },
                            {
                                "children": [
                                    {
                                        "children": [],
                                        "depth": 1,
                                        "name": "getInterfaceImplementer",
                                        "value": 2942
                                    },
                                    {
                                        "children": [],
                                        "depth": 1,
                                        "name": "getInterfaceImplementer",
                                        "value": 2942
                                    }
                                ],
                                "depth": 0,
                                "name": "Executed Gas",
                                "value": 50644
                            }
                        ],
                        "depth": -1,
                        "name": "Actual Gas Used",
                        "value": 72288
                    },
                    {
                        "children": [],
                        "depth": -1,
                        "name": "Refunded Gas",
                        "value": 0
                    }
                ],
                "depth": -2,
                "name": "Total Gas",
                "value": 72288
            }
        ],
        "isConfirmed": true,
        "mainTrace": [
            {
                "children": [
                    {
                        "children": [
                            {
                                "children": [],
                                "depth": 1,
                                "id": 1,
                                "order": 1
                            },
                            {
                                "children": [],
                                "depth": 1,
                                "id": 2,
                                "order": 2
                            },
                            {
                                "children": [],
                                "depth": 1,
                                "id": 3,
                                "order": 3
                            },
                            {
                                "children": [],
                                "depth": 1,
                                "id": 4,
                                "order": 4
                            }
                        ],
                        "depth": 0,
                        "id": 0,
                        "order": 0
                    }
                ],
                "depth": -1,
                "id": -1,
                "order": -1
            }
        ],
        "mainTraceNodeCount": 5,
        "parentIdMap": {
            "0": -1,
            "1": 0,
            "2": 0,
            "3": 0,
            "4": 0
        },
        "tidyTrace": [
            {
                "children": [
                    {
                        "children": [
                            {
                                "children": [],
                                "depth": 1,
                                "id": 2,
                                "order": 2
                            },
                            {
                                "children": [],
                                "depth": 1,
                                "id": 3,
                                "order": 3
                            }
                        ],
                        "depth": 0,
                        "id": 0,
                        "order": 0
                    }
                ],
                "depth": -1,
                "id": -1,
                "order": -1
            }
        ],
        "tidyTraceNodeCount": 3
    },
    "state_change": {
        "stateChanges": [
            {
                "address": "0xf411903cbc70a74d22900a5de66a2dda66507255",
                "erc": "ERC-20",
                "slots": [
                    {
                        "current": "0x000000000000000000000000000000000000000000006ae22c407efc87831000",
                        "key": "0xe95222907e0e3d4329f9537c7ce80838489fe10d0004a3bd857342e10c490b7f",
                        "prev": "0x0000000000000000000000000000000000000000000000000000000000000000"
                    },
                    {
                        "current": "0x00000000000000000000000000000000000000000010ea08333565a95913a42a",
                        "key": "0x8bf294524d43bd262dc239f600852b31ec1021b24d345a8e1b71694921c78c61",
                        "prev": "0x0000000000000000000000000000000000000000001154ea5f75e4a5e096b42a"
                    }
                ],
                "storageVariables": [
                    {
                        "name": "_balances",
                        "type": "mapping(address => uint256)",
                        "value": {
                            "pairs": [
                                {
                                    "key": "0x6ac124e2b4b7402b2483331cabaebf8392064784",
                                    "value": {
                                        "current": "20447998134745401170043946",
                                        "prev": "20952741134778401170043946",
                                        "typeTag": 1
                                    }
                                },
                                {
                                    "key": "0xe2e54270813c5c44a6f97d123120952a12b00000",
                                    "value": {
                                        "current": "504743000033000000000000",
                                        "prev": "0",
                                        "typeTag": 1
                                    }
                                }
                            ],
                            "typeTag": 4
                        }
                    }
                ]
            }
        ]
    }
}