{
    "balance_change": {
        "balanceChanges": [
            {
                "account": "0x6687f53f00c8c77381d5e0d003e45b38e82a79db",
                "assets": [
                    {
                        "address": "0x419d0d8bdd9af5e606ae2232ed285aff190e711b",
                        "amount": "4,262.325",
                        "iconUrl": "https://assets.blocksec.com/icon/416669ea5112a0c54fce100e8c150455ffe791ed46d87ba051143f3ba702dd7c.png",
                        "isERC1155": false,
                        "isERC721": false,
                        "sign": false,
                        "value": "62.0284173"
                    }
                ]
            },
            {
                "account": "0x1dbb17abec03b94599490a4250d2d2cf23834054",
                "assets": [
                    {
                        "address": "0x419d0d8bdd9af5e606ae2232ed285aff190e711b",
                        "amount": "4,262.325",
                        "iconUrl": "https://assets.blocksec.com/icon/416669ea5112a0c54fce100e8c150455ffe791ed46d87ba051143f3ba702dd7c.png",
                        "isERC1155": false,
                        "isERC721": false,
                        "sign": true,
                        "value": "62.0284173"
                    }
                ]
            }
        ]
    },
    "profile": {
        "basic_info": {
            "baseFee": "",
            "blockNumber": 11604712,
            "callData": "0xa9059cbb0000000000000000000000001dbb17abec03b94599490a4250d2d2cf23834054000000000000000000000000000000000000000000000000000000633d6fcf20",
            "debugEnable": true,
            "errorInfo": "",
            "eventCount": 1,
            "feeRecipient": "0xe72f79190bc8f92067c6a62008656c6a9077f6aa",
            "formatValue": "0",
            "gasLimit": 63111,
            "gasPrice": "81.000001459",
            "gasUsed": 63111,
            "intTxnCount": 2,
            "internalRevert": false,
            "internalRevertMessage": "",
            "isContractCreation": false,
            "isFlashloan": false,
            "maxFee": "",
            "nonce": 6,
            "overwritedBlockNumber": -1,
            "priorityFee": "",
            "receiver": "0x419d0d8bdd9af5e606ae2232ed285aff190e711b",
            "revertMessage": "",
            "sender": "0x6687f53f00c8c77381d5e0d003e45b38e82a79db",
            "simulationEnable": true,
            "sourceTxnHash": "0xa837ba72bcc7c6b144dd37ab8102fc58c1e111507f125241b593f7a90ba7e051",
            "status": true,
            "timestamp": "2021-01-07T02:01:50Z",
            "transactionFee": "0.005111991092078949",
            "txnHash": "0xa837ba72bcc7c6b144dd37ab8102fc58c1e111507f125241b593f7a90ba7e051",
            "txnIndex": 77,
            "type": 0,
            "value": "0"
        },
        "fund_flow": [
            {
                "amount": "4,262.325",
                "from": "0x6687f53f00c8c77381d5e0d003e45b38e82a79db",
                "id": 1,
                "isERC1155": false,
                "isERC721": false,
                "isReverted": false,
                "order": 1,
                "to": "0x1dbb17abec03b94599490a4250d2d2cf23834054",
                "token": "0x419d0d8bdd9af5e606ae2232ed285aff190e711b"
            }
        ],
        "token_infos": [
            {
                "address": "0x419d0d8bdd9af5e606ae2232ed285aff190e711b",
                "decimals": 8
            },
            {
                "address": "0xc02aaa39b223fe8d0a0e5c4f27ead9083c756cc2",
                "decimals": 18
            },
            {
                "address": "0xeeeeeeeeeeeeeeeeeeeeeeeeeeeeeeeeeeeeeeee",
                "decimals": 18
            }
        ]
    },
    "address_label": {
        "labels": [
            {
                "address": "0x1dbb17abec03b94599490a4250d2d2cf23834054",
                "label": "BINANCE"
            },
            {
                "address": "0x419d0d8bdd9af5e606ae2232ed285aff190e711b",
                "label": "FunFair Token"
            },
            {
                "address": "0xe6a51bd48f93abcd6c1d532112094044971d8d4e",
                "label": "Ledger"
            },
            {
                "address": "0x0000000000000000000000000000000000000001",
                "label": "Precompiled"
            },
            {
                "address": "0x0000000000000000000000000000000000000002",
                "label": "Precompiled"
            },
            {
                "address": "0x0000000000000000000000000000000000000003",
                "label": "Precompiled"
            },
            {
                "address": "0x0000000000000000000000000000000000000004",
                "label": "Precompiled"
            },
            {
                "address": "0xeeeeeeeeeeeeeeeeeeeeeeeeeeeeeeeeeeeeeeee",
                "label": "Ether"
            }
        ]
    },
    "trace": {
        "accountLabels": null,
        "dataMap": {
            "-1": {
                "invocation": {
                    "address": "0x6687f53f00c8c77381d5e0d003e45b38e82a79db",
                    "callData": "",
                    "decodedMethod": null,
                    "errorInfo": "",
                    "fromAddress": "",
                    "gasUsed": 0,
                    "id": -1,
                    "methodDecoded": false,
                    "operation": "",
                    "output": "",
                    "revert": false,
                    "revertMessage": "",
                    "selector": "",
                    "status": false,
                    "value": ""
                },
                "nodeType": 0
            },
            "0": {
                "invocation": {
                    "address": "0x419d0d8bdd9af5e606ae2232ed285aff190e711b",
                    "callData": "0x0000000000000000000000001dbb17abec03b94599490a4250d2d2cf23834054000000000000000000000000000000000000000000000000000000633d6fcf20",
                    "decodedMethod": {
                        "callParams": [
                            {
                                "name": "_to",
                                "type": "address",
                                "value": "0x1dbb17abec03b94599490a4250d2d2cf23834054"
                            },
                            {
                                "decimalAvailable": true,
                                "name": "_value",
                                "type": "uint256",
                                "value": "426,232,500,000"
                            }
                        ],
                        "constructorArguments": "",
                        "name": "transfer",
                        "returnParams": [
                            {
                                "name": "success",
                                "type": "bool",
                                "value": true
                            }
                        ],
                        "signature": "transfer(address,uint256)"
                    },
                    "errorInfo": "",
                    "fromAddress": "0x6687f53f00c8c77381d5e0d003e45b38e82a79db",
                    "gasUsed": 63111,
                    "id": 0,
                    "methodDecoded": true,
                    "operation": "CALL",
                    "output": "0x0000000000000000000000000000000000000000000000000000000000000001",
                    "revert": false,
                    "revertMessage": "",
                    "selector": "0xa9059cbb",
                    "status": true,
                    "value": "0"
                },
                "nodeType": 0
            },
            "1": {
                "invocation": {
                    "address": "0x74b303dd79bbf44d23d60891bdd0f31df87bc7b8",
                    "callData": "0x0000000000000000000000006687f53f00c8c77381d5e0d003e45b38e82a79db0000000000000000000000001dbb17abec03b94599490a4250d2d2cf23834054000000000000000000000000000000000000000000000000000000633d6fcf20",
                    "decodedMethod": {
                        "callParams": [
                            {
                                "name": "_from",
                                "type": "address",
                                "value": "0x6687f53f00c8c77381d5e0d003e45b38e82a79db"
                            },
                            {
                                "name": "_to",
                                "type": "address",
                                "value": "0x1dbb17abec03b94599490a4250d2d2cf23834054"
                            },
                            {
                                "name": "_wad",
                                "type": "uint256",
                                "value": "426,232,500,000"
                            }
                        ],
                        "constructorArguments": "",
                        "name": "transfer",
                        "returnParams": [],
                        "signature": "transfer(address,address,uint256)"
                    },
                    "errorInfo": "",
                    "fromAddress": "0x419d0d8bdd9af5e606ae2232ed285aff190e711b",
                    "gasUsed": 36048,
                    "id": 1,
                    "methodDecoded": true,
                    "operation": "CALL",
                    "output": "0x0000000000000000000000000000000000000000000000000000000000000001",
                    "revert": false,
                    "revertMessage": "",
                    "selector": "0xbeabacc8",
                    "status": true,
                    "value": "0"
                },
                "nodeType": 0
            },
            "2": {
                "invocation": {
                    "address": "0xe6a51bd48f93abcd6c1d532112094044971d8d4e",
                    "callData": "0x0000000000000000000000006687f53f00c8c77381d5e0d003e45b38e82a79db0000000000000000000000001dbb17abec03b94599490a4250d2d2cf23834054000000000000000000000000000000000000000000000000000000633d6fcf20",
                    "decodedMethod": {
                        "callParams": [
                            {
                                "name": "_from",
                                "type": "address",
                                "value": "0x6687f53f00c8c77381d5e0d003e45b38e82a79db"
                            },
                            {
                                "name": "_to",
                                "type": "address",
                                "value": "0x1dbb17abec03b94599490a4250d2d2cf23834054"
                            },
                            {
                                "name": "_value",
                                "type": "uint256",
                                "value": "426,232,500,000"
                            }
                        ],
                        "constructorArguments": "",
                        "name": "transfer",
                        "returnParams": [
                            {
                                "name": "success",
                                "type": "bool",
                                "value": true
                            }
                        ],
                        "signature": "transfer(address,address,uint256)"
                    },
                    "errorInfo": "",
                    "fromAddress": "0x74b303dd79bbf44d23d60891bdd0f31df87bc7b8",
                    "gasUsed": 29881,
                    "id": 2,
                    "methodDecoded": true,
                    "operation": "CALL",
                    "output": "0x0000000000000000000000000000000000000000000000000000000000000001",
                    "revert": false,
                    "revertMessage": "",
                    "selector": "0xbeabacc8",
                    "status": true,
                    "value": "0"
                },
                "nodeType": 0
            },
            "3": {
                "event": {
                    "contract": "0x419d0d8bdd9af5e606ae2232ed285aff190e711b",
                    "decodedLog": {
                        "name": "Transfer",
                        "params": [
                            {
                                "name": "from",
                                "type": "address",
                                "value": "0x6687f53f00c8c77381d5e0d003e45b38e82a79db"
                            },
                            {
                                "name": "to",
                                "type": "address",
                                "value": "0x1dbb17abec03b94599490a4250d2d2cf23834054"
                            },
                            {
                                "decimalAvailable": true,
                                "name": "value",
                                "type": "uint256",
                                "value": "426,232,500,000"
                            }
                        ],
                        "signature": "Transfer(address,address,uint256)"
                    },
                    "id": 3,
                    "logData": "0x000000000000000000000000000000000000000000000000000000633d6fcf20",
                    "logDecoded": true,
                    "operation": "EVENT",
                    "revert": false,
                    "status": true,
                    "topics": [
                        "0xddf252ad1be2c89b69c2b068fc378daa952ba7f163c4a11628f55a4df523b3ef",
                        "0x0000000000000000000000006687f53f00c8c77381d5e0d003e45b38e82a79db",
                        "0x0000000000000000000000001dbb17abec03b94599490a4250d2d2cf23834054"
                    ]
                },
                "nodeType": 1
            }
        },
        "gasFlame": [
            {
                "children": [
                    {
                        "children": [
                            {
                                "children": [],
                                "depth": 0,
                                "name": "Initial Gas",
                                "value": 21620
                            },
                            {
                                "children": [
                                    {
                                        "children": [
                                            {
                                                "children": [],
                                                "depth": 2,
                                                "name": "transfer",
                                                "value": 29881
                                            }
                                        ],
                                        "depth": 1,
                                        "name": "transfer",
                                        "value": 36048
                                    }
                                ],
                                "depth": 0,
                                "name": "Executed Gas",
                                "value": 41491
                            }
                        ],
                        "depth": -1,
                        "name": "Actual Gas Used",
                        "value": 63111
                    },
                    {
                        "children": [],
                        "depth": -1,
                        "name": "Refunded Gas",
                        "value": 0
                    }
                ],
                "depth": -2,
                "name": "Total Gas",
                "value": 63111
            }
        ],
        "isConfirmed": true,
        "mainTrace": [
            {
                "children": [
                    {
                        "children": [
                            {
                                "children": [
                                    {
                                        "children": [],
                                        "depth": 2,
                                        "id": 2,
                                        "order": 2
                                    }
                                ],
                                "depth": 1,
                                "id": 1,
                                "order": 1
                            },
                            {
                                "children": [],
                                "depth": 1,
                                "id": 3,
                                "order": 3
                            }
                        ],
                        "depth": 0,
                        "id": 0,
                        "order": 0
                    }
                ],
                "depth": -1,
                "id": -1,
                "order": -1
            }
        ],
        "mainTraceNodeCount": 4,
        "parentIdMap": {
            "0": -1,
            "1": 0,
            "2": 1,
            "3": 0
        },
        "tidyTrace": [
            {
                "children": [
                    {
                        "children": [
                            {
                                "children": [
                                    {
                                        "children": [],
                                        "depth": 2,
                                        "id": 2,
                                        "order": 2
                                    }
                                ],
                                "depth": 1,
                                "id": 1,
                                "order": 1
                            },
                            {
                                "children": [],
                                "depth": 1,
                                "id": 3,
                                "order": 3
                            }
                        ],
                        "depth": 0,
                        "id": 0,
                        "order": 0
                    }
                ],
                "depth": -1,
                "id": -1,
                "order": -1
            }
        ],
        "tidyTraceNodeCount": 4
    },
    "state_change": {
        "stateChanges": [
            {
                "address": "0xe6a51bd48f93abcd6c1d532112094044971d8d4e",
                "erc": "",
                "slots": [
                    {
                        "current": "0x000000000000000000000000000000000000000000000000000000633d6fcf20",
                        "key": "0x6343a0c70b9c66b3b604da7156f15bce10f72b7516f7b82462aa525d7119f708",
                        "prev": "0x0000000000000000000000000000000000000000000000000000000000000000"
                    },
                    {
                        "current": "0x000000000000000000000000000000000000000000000000000000e8d4a51000",
                        "key": "0xdab2536cc22f081f4115d7cbb7e203c576fb4ddb1522a416da430645d6bc0223",
                        "prev": "0x0000000000000000000000000000000000000000000000000000014c1214df20"
                    }
                ],
                "storageVariables": []
            }
        ]
    }
}