{
    "balance_change": {
        "balanceChanges": []
    },
    "profile": {
        "basic_info": {
            "baseFee": "",
            "blockNumber": 8319285,
            "callData": "0x4ab0d190f4c441cf180e74da721efc4d3479eae726cc494cc666aa9d399a89993b608cf800000000000000000000000000000000000000000000000004a03ce68d21555500000000000000000000000079febf6b9f76853edbcbc913e6aae8232cfb9de96a9705b400000000000000000000000000000000000000000000000000000000000000000000000000000000000000000000000000000000000000005d4e00be00000000000000000000000000000000000000000000000000000004e1d116a0",
            "debugEnable": true,
            "errorInfo": "",
            "eventCount": 2,
            "feeRecipient": "0x35f61dfb08ada13eba64bf156b80df3d5b3a738d",
            "formatValue": "0",
            "gasLimit": 500000,
            "gasPrice": "20",
            "gasUsed": 40574,
            "intTxnCount": 1,
            "internalRevert": false,
            "internalRevertMessage": "",
            "isContractCreation": false,
            "isFlashloan": false,
            "maxFee": "",
            "nonce": 21150,
            "overwritedBlockNumber": -1,
            "priorityFee": "",
            "receiver": "0x049bd8c3adc3fe7d3fc2a44541d955a537c2a484",
            "revertMessage": "",
            "sender": "0x481df95742cc38b387871e789913659a2469daa6",
            "simulationEnable": true,
            "sourceTxnHash": "0xa9f5e62b6cb1e56d86cf7445dd19e2f49c2754a0274b3d00e0d2cff70c2ecf4c",
            "status": true,
            "timestamp": "2019-08-09T23:20:56Z",
            "transactionFee": "0.00081148",
            "txnHash": "0xa9f5e62b6cb1e56d86cf7445dd19e2f49c2754a0274b3d00e0d2cff70c2ecf4c",
            "txnIndex": 5,
            "type": 0,
            "value": "0"
        },
        "fund_flow": [],
        "token_infos": [
            {
                "address": "0xc02aaa39b223fe8d0a0e5c4f27ead9083c756cc2",
                "decimals": 18
            },
            {
                "address": "0xeeeeeeeeeeeeeeeeeeeeeeeeeeeeeeeeeeeeeeee",
                "decimals": 18
            }
        ]
    },
    "address_label": {
        "labels": [
            {
                "address": "0x0000000000000000000000000000000000000002",
                "label": "Precompiled"
            },
            {
                "address": "0x0000000000000000000000000000000000000003",
                "label": "Precompiled"
            },
            {
                "address": "0x0000000000000000000000000000000000000004",
                "label": "Precompiled"
            },
            {
                "address": "0xeeeeeeeeeeeeeeeeeeeeeeeeeeeeeeeeeeeeeeee",
                "label": "Ether"
            },
            {
                "address": "0x79febf6b9f76853edbcbc913e6aae8232cfb9de9",
                "label": "Chainlink: Aggregator"
            },
            {
                "address": "0x049bd8c3adc3fe7d3fc2a44541d955a537c2a484",
                "label": "Oracle"
            },
            {
                "address": "0x0000000000000000000000000000000000000001",
                "label": "Precompiled"
            }
        ]
    },
    "trace": {
        "accountLabels": null,
        "dataMap": {
            "-1": {
                "invocation": {
                    "address": "0x481df95742cc38b387871e789913659a2469daa6",
                    "callData": "",
                    "decodedMethod": null,
                    "errorInfo": "",
                    "fromAddress": "",
                    "gasUsed": 0,
                    "id": -1,
                    "methodDecoded": false,
                    "operation": "",
                    "output": "",
                    "revert": false,
                    "revertMessage": "",
                    "selector": "",
                    "status": false,
                    "value": ""
                },
                "nodeType": 0
            },
            "0": {
                "invocation": {
                    "address": "0x049bd8c3adc3fe7d3fc2a44541d955a537c2a484",
                    "callData": "0xf4c441cf180e74da721efc4d3479eae726cc494cc666aa9d399a89993b608cf800000000000000000000000000000000000000000000000004a03ce68d21555500000000000000000000000079febf6b9f76853edbcbc913e6aae8232cfb9de96a9705b400000000000000000000000000000000000000000000000000000000000000000000000000000000000000000000000000000000000000005d4e00be00000000000000000000000000000000000000000000000000000004e1d116a0",
                    "decodedMethod": {
                        "callParams": [
                            {
                                "name": "_requestId",
                                "type": "bytes32",
                                "value": "0xf4c441cf180e74da721efc4d3479eae726cc494cc666aa9d399a89993b608cf8"
                            },
                            {
                                "name": "_payment",
                                "type": "uint256",
                                "value": "333,333,333,333,333,333"
                            },
                            {
                                "name": "_callbackAddress",
                                "type": "address",
                                "value": "0x79febf6b9f76853edbcbc913e6aae8232cfb9de9"
                            },
                            {
                                "name": "_callbackFunctionId",
                                "type": "bytes4",
                                "value": "0x6a9705b4"
                            },
                            {
                                "name": "_expiration",
                                "type": "uint256",
                                "value": "1,565,393,086"
                            },
                            {
                                "name": "_data",
                                "type": "bytes32",
                                "value": "0x00000000000000000000000000000000000000000000000000000004e1d116a0"
                            }
                        ],
                        "constructorArguments": "",
                        "name": "fulfillOracleRequest",
                        "returnParams": [
                            {
                                "name": "",
                                "type": "bool",
                                "value": true
                            }
                        ],
                        "signature": "fulfillOracleRequest(bytes32,uint256,address,bytes4,uint256,bytes32)"
                    },
                    "errorInfo": "",
                    "fromAddress": "0x481df95742cc38b387871e789913659a2469daa6",
                    "gasUsed": 40574,
                    "id": 0,
                    "methodDecoded": true,
                    "operation": "CALL",
                    "output": "0x0000000000000000000000000000000000000000000000000000000000000001",
                    "revert": false,
                    "revertMessage": "",
                    "selector": "0x4ab0d190",
                    "status": true,
                    "value": "0"
                },
                "nodeType": 0
            },
            "1": {
                "invocation": {
                    "address": "0x79febf6b9f76853edbcbc913e6aae8232cfb9de9",
                    "callData": "0xf4c441cf180e74da721efc4d3479eae726cc494cc666aa9d399a89993b608cf800000000000000000000000000000000000000000000000000000004e1d116a0",
                    "decodedMethod": {
                        "callParams": [
                            {
                                "name": "_clRequestId",
                                "type": "bytes32",
                                "value": "0xf4c441cf180e74da721efc4d3479eae726cc494cc666aa9d399a89993b608cf8"
                            },
                            {
                                "name": "_response",
                                "type": "int256",
                                "value": "20,968,445,600"
                            }
                        ],
                        "constructorArguments": "",
                        "name": "chainlinkCallback",
                        "returnParams": [],
                        "signature": "chainlinkCallback(bytes32,int256)"
                    },
                    "errorInfo": "",
                    "fromAddress": "0x049bd8c3adc3fe7d3fc2a44541d955a537c2a484",
                    "gasUsed": 41094,
                    "id": 1,
                    "methodDecoded": true,
                    "operation": "CALL",
                    "output": "",
                    "revert": false,
                    "revertMessage": "",
                    "selector": "0x6a9705b4",
                    "status": true,
                    "value": "0"
                },
                "nodeType": 0
            },
            "2": {
                "event": {
                    "contract": "0x79febf6b9f76853edbcbc913e6aae8232cfb9de9",
                    "decodedLog": {
                        "name": "ChainlinkFulfilled",
                        "params": [
                            {
                                "name": "id",
                                "type": "bytes32",
                                "value": "0xf4c441cf180e74da721efc4d3479eae726cc494cc666aa9d399a89993b608cf8"
                            }
                        ],
                        "signature": "ChainlinkFulfilled(bytes32)"
                    },
                    "id": 2,
                    "logData": "0x",
                    "logDecoded": true,
                    "operation": "EVENT",
                    "revert": false,
                    "status": true,
                    "topics": [
                        "0x7cc135e0cebb02c3480ae5d74d377283180a2601f8f644edf7987b009316c63a",
                        "0xf4c441cf180e74da721efc4d3479eae726cc494cc666aa9d399a89993b608cf8"
                    ]
                },
                "nodeType": 1
            },
            "3": {
                "event": {
                    "contract": "0x79febf6b9f76853edbcbc913e6aae8232cfb9de9",
                    "decodedLog": {
                        "name": "ResponseReceived",
                        "params": [
                            {
                                "name": "response",
                                "type": "int256",
                                "value": "20,968,445,600"
                            },
                            {
                                "name": "answerId",
                                "type": "uint256",
                                "value": "20,540"
                            },
                            {
                                "name": "sender",
                                "type": "address",
                                "value": "0x049bd8c3adc3fe7d3fc2a44541d955a537c2a484"
                            }
                        ],
                        "signature": "ResponseReceived(int256,uint256,address)"
                    },
                    "id": 3,
                    "logData": "0x",
                    "logDecoded": true,
                    "operation": "EVENT",
                    "revert": false,
                    "status": true,
                    "topics": [
                        "0xb51168059c83c860caf5b830c5d2e64c2172c6fb2fe9f25447d9838e18d93b60",
                        "0x00000000000000000000000000000000000000000000000000000004e1d116a0",
                        "0x000000000000000000000000000000000000000000000000000000000000503c",
                        "0x000000000000000000000000049bd8c3adc3fe7d3fc2a44541d955a537c2a484"
                    ]
                },
                "nodeType": 1
            }
        },
        "gasFlame": [
            {
                "children": [
                    {
                        "children": [
                            {
                                "children": [],
                                "depth": 0,
                                "name": "Initial Gas",
                                "value": 26648
                            },
                            {
                                "children": [
                                    {
                                        "children": [],
                                        "depth": 1,
                                        "name": "chainlinkCallback",
                                        "value": 41094
                                    }
                                ],
                                "depth": 0,
                                "name": "Executed Gas",
                                "value": 54500
                            }
                        ],
                        "depth": -1,
                        "name": "Actual Gas Used",
                        "value": 40574
                    },
                    {
                        "children": [],
                        "depth": -1,
                        "name": "Refunded Gas",
                        "value": 40574
                    }
                ],
                "depth": -2,
                "name": "Total Gas",
                "value": 81148
            }
        ],
        "isConfirmed": true,
        "mainTrace": [
            {
                "children": [
                    {
                        "children": [
                            {
                                "children": [
                                    {
                                        "children": [],
                                        "depth": 2,
                                        "id": 2,
                                        "order": 2
                                    },
                                    {
                                        "children": [],
                                        "depth": 2,
                                        "id": 3,
                                        "order": 3
                                    }
                                ],
                                "depth": 1,
                                "id": 1,
                                "order": 1
                            }
                        ],
                        "depth": 0,
                        "id": 0,
                        "order": 0
                    }
                ],
                "depth": -1,
                "id": -1,
                "order": -1
            }
        ],
        "mainTraceNodeCount": 4,
        "parentIdMap": {
            "0": -1,
            "1": 0,
            "2": 1,
            "3": 1
        },
        "tidyTrace": [
            {
                "children": [
                    {
                        "children": [
                            {
                                "children": [
                                    {
                                        "children": [],
                                        "depth": 2,
                                        "id": 2,
                                        "order": 2
                                    },
                                    {
                                        "children": [],
                                        "depth": 2,
                                        "id": 3,
                                        "order": 3
                                    }
                                ],
                                "depth": 1,
                                "id": 1,
                                "order": 1
                            }
                        ],
                        "depth": 0,
                        "id": 0,
                        "order": 0
                    }
                ],
                "depth": -1,
                "id": -1,
                "order": -1
            }
        ],
        "tidyTraceNodeCount": 4
    },
    "state_change": {
        "stateChanges": [
            {
                "address": "0x049bd8c3adc3fe7d3fc2a44541d955a537c2a484",
                "erc": "",
                "slots": [
                    {
                        "current": "0x00000000000000000000000000000000000000000000000924b85fb2f3e29c58",
                        "key": "0x0000000000000000000000000000000000000000000000000000000000000004",
                        "prev": "0x000000000000000000000000000000000000000000000009201822cc66c14703"
                    },
                    {
                        "current": "0x0000000000000000000000000000000000000000000000000000000000000000",
                        "key": "0x6ffd7cfe363c1a297b108dd2ac8f801f295dc0d953cc2408ba16f2d8f6899d69",
                        "prev": "0x395d3f56a95fd9b470b42ea000fb79fd7eb7b20ecbb07b40cdd4b7a23353b00f"
                    }
                ],
                "storageVariables": [
                    {
                        "name": "withdrawableTokens",
                        "type": "uint256",
                        "value": {
                            "current": "168666666666666663000",
                            "prev": "168333333333333329667",
                            "typeTag": 1
                        }
                    },
                    {
                        "name": "commitments",
                        "type": "mapping(bytes32 => bytes32)",
                        "value": {
                            "pairs": [
                                {
                                    "key": "0xf4c441cf180e74da721efc4d3479eae726cc494cc666aa9d399a89993b608cf8",
                                    "value": {
                                        "current": "0x0000000000000000000000000000000000000000000000000000000000000000",
                                        "prev": "0x395d3f56a95fd9b470b42ea000fb79fd7eb7b20ecbb07b40cdd4b7a23353b00f",
                                        "typeTag": 1
                                    }
                                }
                            ],
                            "typeTag": 4
                        }
                    }
                ]
            },
            {
                "address": "0x79febf6b9f76853edbcbc913e6aae8232cfb9de9",
                "erc": "",
                "slots": [
                    {
                        "current": "0x0000000000000000000000000000000000000000000000000000000000000005",
                        "key": "0x72e6f70c86c19c49bd1aba0483b58451fa75b45a65702ac0db3be1646d5ba6e2",
                        "prev": "0x0000000000000000000000000000000000000000000000000000000000000004"
                    },
                    {
                        "current": "0x00000000000000000000000000000000000000000000000000000004e1d116a0",
                        "key": "0x5afc05198a8391da25a210ffa35b37ec1403e43c7d038b2eb70e31eb0e42f921",
                        "prev": "0x0000000000000000000000000000000000000000000000000000000000000000"
                    },
                    {
                        "current": "0x0000000000000000000000000000000000000000000000000000000000000000",
                        "key": "0x2ff0f0d8abdef893486bfbeea0b859e1d436b89d8095591ec57c8058aa4265a5",
                        "prev": "0x000000000000000000000000049bd8c3adc3fe7d3fc2a44541d955a537c2a484"
                    },
                    {
                        "current": "0x0000000000000000000000000000000000000000000000000000000000000000",
                        "key": "0x1778de60974f79357efc2bb12cd8726f1c3d78d3d3d821a31237810160b101b1",
                        "prev": "0x000000000000000000000000000000000000000000000000000000000000503c"
                    }
                ],
                "storageVariables": [
                    {
                        "name": "answers",
                        "type": "mapping(uint256 => struct Aggregator.Answer)",
                        "value": {
                            "pairs": [
                                {
                                    "key": "20540",
                                    "value": {
                                        "fields": [
                                            {
                                                "name": "responses",
                                                "type": "int256[]",
                                                "value": {
                                                    "elemType": "int256",
                                                    "elems": [
                                                        {
                                                            "index": 4,
                                                            "value": {
                                                                "current": "20968445600",
                                                                "prev": "0",
                                                                "typeTag": 1
                                                            }
                                                        }
                                                    ],
                                                    "typeTag": 2
                                                }
                                            }
                                        ],
                                        "typeTag": 3
                                    }
                                }
                            ],
                            "typeTag": 4
                        }
                    },
                    {
                        "name": "pendingRequests",
                        "type": "mapping(bytes32 => address)",
                        "value": {
                            "pairs": [
                                {
                                    "key": "0xf4c441cf180e74da721efc4d3479eae726cc494cc666aa9d399a89993b608cf8",
                                    "value": {
                                        "current": "0x0000000000000000000000000000000000000000",
                                        "prev": "0x049bd8c3adc3fe7d3fc2a44541d955a537c2a484",
                                        "typeTag": 1
                                    }
                                }
                            ],
                            "typeTag": 4
                        }
                    },
                    {
                        "name": "requestAnswers",
                        "type": "mapping(bytes32 => uint256)",
                        "value": {
                            "pairs": [
                                {
                                    "key": "0xf4c441cf180e74da721efc4d3479eae726cc494cc666aa9d399a89993b608cf8",
                                    "value": {
                                        "current": "0",
                                        "prev": "20540",
                                        "typeTag": 1
                                    }
                                }
                            ],
                            "typeTag": 4
                        }
                    }
                ]
            }
        ]
    }
}