{
    "balance_change": {
        "balanceChanges": [
            {
                "account": "0x0013c2b325b3ceff19c3ededd341ba6d2ada1c7c",
                "assets": [
                    {
                        "address": "0xeeeeeeeeeeeeeeeeeeeeeeeeeeeeeeeeeeeeeeee",
                        "amount": "3.31335",
                        "iconUrl": "https://assets.blocksec.com/image/1663669189317-3.png",
                        "isERC1155": false,
                        "isERC721": false,
                        "sign": true,
                        "value": ""
                    }
                ]
            },
            {
                "account": "0x000000000000000000000000000000000000dead",
                "assets": [
                    {
                        "address": "0xeeeeeeeeeeeeeeeeeeeeeeeeeeeeeeeeeeeeeeee",
                        "amount": "0.01665",
                        "iconUrl": "https://assets.blocksec.com/image/1663669189317-3.png",
                        "isERC1155": false,
                        "isERC721": false,
                        "sign": true,
                        "value": ""
                    }
                ]
            },
            {
                "account": "0x684f650c7aa618cf20b8d8b827b4146a27f6c5f2",
                "assets": [
                    {
                        "address": "0xeeeeeeeeeeeeeeeeeeeeeeeeeeeeeeeeeeeeeeee",
                        "amount": "3.33",
                        "iconUrl": "https://assets.blocksec.com/image/1663669189317-3.png",
                        "isERC1155": false,
                        "isERC721": false,
                        "sign": false,
                        "value": ""
                    }
                ]
            }
        ]
    },
    "profile": {
        "basic_info": {
            "baseFee": "",
            "blockNumber": 3940455,
            "callData": "0x47872b42e77ef7163e8c6e63ebcca520e72587d1965be85a7547edbcdbe2a562424ceb230000000000000000000000000000000000000000000000002e36895b5e0d00005bc89e733bd70675e7effd5e225e709a9c902be0a6688eeb50b4454aa6963a0e",
            "debugEnable": true,
            "errorInfo": "",
            "eventCount": 2,
            "feeRecipient": "0x1e9939daaad6924ad004c2560e90804164900341",
            "formatValue": "0",
            "gasLimit": 300000,
            "gasPrice": "21.768734821",
            "gasUsed": 40256,
            "intTxnCount": 8,
            "internalRevert": false,
            "internalRevertMessage": "",
            "isContractCreation": false,
            "isFlashloan": false,
            "maxFee": "",
            "nonce": 1183,
            "overwritedBlockNumber": -1,
            "priorityFee": "",
            "receiver": "0x6090a6e47849629b7245dfa1ca21d94cd15878ef",
            "revertMessage": "",
            "sender": "0x0013c2b325b3ceff19c3ededd341ba6d2ada1c7c",
            "simulationEnable": true,
            "sourceTxnHash": "0xa9383062f0ef9a4479d69f450753a762fc386ffcbc14becf5494853ec2222ec1",
            "status": true,
            "timestamp": "2017-06-28T01:36:02Z",
            "transactionFee": "0.000876322188954176",
            "txnHash": "0xa9383062f0ef9a4479d69f450753a762fc386ffcbc14becf5494853ec2222ec1",
            "txnIndex": 29,
            "type": 0,
            "value": "0"
        },
        "fund_flow": [
            {
                "amount": "0.01665",
                "from": "0x684f650c7aa618cf20b8d8b827b4146a27f6c5f2",
                "id": 1,
                "isERC1155": false,
                "isERC721": false,
                "isReverted": false,
                "order": 1,
                "to": "0x000000000000000000000000000000000000dead",
                "token": "0xeeeeeeeeeeeeeeeeeeeeeeeeeeeeeeeeeeeeeeee"
            },
            {
                "amount": "3.31335",
                "from": "0x684f650c7aa618cf20b8d8b827b4146a27f6c5f2",
                "id": 2,
                "isERC1155": false,
                "isERC721": false,
                "isReverted": false,
                "order": 2,
                "to": "0x0013c2b325b3ceff19c3ededd341ba6d2ada1c7c",
                "token": "0xeeeeeeeeeeeeeeeeeeeeeeeeeeeeeeeeeeeeeeee"
            }
        ],
        "token_infos": [
            {
                "address": "0xc02aaa39b223fe8d0a0e5c4f27ead9083c756cc2",
                "decimals": 18
            },
            {
                "address": "0xeeeeeeeeeeeeeeeeeeeeeeeeeeeeeeeeeeeeeeee",
                "decimals": 18
            }
        ]
    },
    "address_label": {
        "labels": [
            {
                "address": "0x0000000000000000000000000000000000000004",
                "label": "Precompiled"
            },
            {
                "address": "0xeeeeeeeeeeeeeeeeeeeeeeeeeeeeeeeeeeeeeeee",
                "label": "Ether"
            },
            {
                "address": "0x6090a6e47849629b7245dfa1ca21d94cd15878ef",
                "label": "ENS: Old Registrar"
            },
            {
                "address": "0x000000000000000000000000000000000000dead",
                "label": "Null: 0x00...dEaD"
            },
            {
                "address": "0x684f650c7aa618cf20b8d8b827b4146a27f6c5f2",
                "label": "Deed"
            },
            {
                "address": "0x0000000000000000000000000000000000000001",
                "label": "Precompiled"
            },
            {
                "address": "0x0000000000000000000000000000000000000002",
                "label": "Precompiled"
            },
            {
                "address": "0x0000000000000000000000000000000000000003",
                "label": "Precompiled"
            }
        ]
    },
    "trace": {
        "accountLabels": null,
        "dataMap": {
            "-1": {
                "invocation": {
                    "address": "0x0013c2b325b3ceff19c3ededd341ba6d2ada1c7c",
                    "callData": "",
                    "decodedMethod": null,
                    "errorInfo": "",
                    "fromAddress": "",
                    "gasUsed": 0,
                    "id": -1,
                    "methodDecoded": false,
                    "operation": "",
                    "output": "",
                    "revert": false,
                    "revertMessage": "",
                    "selector": "",
                    "status": false,
                    "value": ""
                },
                "nodeType": 0
            },
            "0": {
                "invocation": {
                    "address": "0x6090a6e47849629b7245dfa1ca21d94cd15878ef",
                    "callData": "0xe77ef7163e8c6e63ebcca520e72587d1965be85a7547edbcdbe2a562424ceb230000000000000000000000000000000000000000000000002e36895b5e0d00005bc89e733bd70675e7effd5e225e709a9c902be0a6688eeb50b4454aa6963a0e",
                    "decodedMethod": {
                        "callParams": [
                            {
                                "name": "_hash",
                                "type": "bytes32",
                                "value": "0xe77ef7163e8c6e63ebcca520e72587d1965be85a7547edbcdbe2a562424ceb23"
                            },
                            {
                                "name": "_value",
                                "type": "uint256",
                                "value": "3,330,000,000,000,000,000"
                            },
                            {
                                "name": "_salt",
                                "type": "bytes32",
                                "value": "0x5bc89e733bd70675e7effd5e225e709a9c902be0a6688eeb50b4454aa6963a0e"
                            }
                        ],
                        "constructorArguments": "",
                        "name": "unsealBid",
                        "returnParams": [],
                        "signature": "unsealBid(bytes32,uint256,bytes32)"
                    },
                    "errorInfo": "",
                    "fromAddress": "0x0013c2b325b3ceff19c3ededd341ba6d2ada1c7c",
                    "gasUsed": 40256,
                    "id": 0,
                    "methodDecoded": true,
                    "operation": "CALL",
                    "output": "",
                    "revert": false,
                    "revertMessage": "",
                    "selector": "0x47872b42",
                    "status": true,
                    "value": "0"
                },
                "nodeType": 0
            },
            "1": {
                "invocation": {
                    "address": "0x684f650c7aa618cf20b8d8b827b4146a27f6c5f2",
                    "callData": "0x",
                    "decodedMethod": {
                        "callParams": [],
                        "constructorArguments": "",
                        "name": "value",
                        "returnParams": [
                            {
                                "name": "",
                                "type": "uint256",
                                "value": "3,330,000,000,000,000,000"
                            }
                        ],
                        "signature": "value()"
                    },
                    "errorInfo": "",
                    "fromAddress": "0x6090a6e47849629b7245dfa1ca21d94cd15878ef",
                    "gasUsed": 524,
                    "id": 1,
                    "methodDecoded": true,
                    "operation": "CALL",
                    "output": "0x0000000000000000000000000000000000000000000000002e36895b5e0d0000",
                    "revert": false,
                    "revertMessage": "",
                    "selector": "0x3fa4f245",
                    "status": true,
                    "value": "0"
                },
                "nodeType": 0
            },
            "10": {
                "event": {
                    "contract": "0x6090a6e47849629b7245dfa1ca21d94cd15878ef",
                    "decodedLog": {
                        "name": "BidRevealed",
                        "params": [
                            {
                                "name": "hash",
                                "type": "bytes32",
                                "value": "0xe77ef7163e8c6e63ebcca520e72587d1965be85a7547edbcdbe2a562424ceb23"
                            },
                            {
                                "name": "owner",
                                "type": "address",
                                "value": "0x0013c2b325b3ceff19c3ededd341ba6d2ada1c7c"
                            },
                            {
                                "name": "value",
                                "type": "uint256",
                                "value": "3,330,000,000,000,000,000"
                            },
                            {
                                "name": "status",
                                "type": "uint8",
                                "value": "4"
                            }
                        ],
                        "signature": "BidRevealed(bytes32,address,uint256,uint8)"
                    },
                    "id": 10,
                    "logData": "0x0000000000000000000000000000000000000000000000002e36895b5e0d00000000000000000000000000000000000000000000000000000000000000000004",
                    "logDecoded": true,
                    "operation": "EVENT",
                    "revert": false,
                    "status": true,
                    "topics": [
                        "0x7b6c4b278d165a6b33958f8ea5dfb00c8c9d4d0acf1985bef5d10786898bc3e7",
                        "0xe77ef7163e8c6e63ebcca520e72587d1965be85a7547edbcdbe2a562424ceb23",
                        "0x0000000000000000000000000013c2b325b3ceff19c3ededd341ba6d2ada1c7c"
                    ]
                },
                "nodeType": 1
            },
            "2": {
                "invocation": {
                    "address": "0x684f650c7aa618cf20b8d8b827b4146a27f6c5f2",
                    "callData": "0x0000000000000000000000000000000000000000000000002e36895b5e0d00000000000000000000000000000000000000000000000000000000000000000001",
                    "decodedMethod": {
                        "callParams": [
                            {
                                "name": "newValue",
                                "type": "uint256",
                                "value": "3,330,000,000,000,000,000"
                            },
                            {
                                "name": "throwOnFailure",
                                "type": "bool",
                                "value": true
                            }
                        ],
                        "constructorArguments": "",
                        "name": "setBalance",
                        "returnParams": [],
                        "signature": "setBalance(uint256,bool)"
                    },
                    "errorInfo": "",
                    "fromAddress": "0x6090a6e47849629b7245dfa1ca21d94cd15878ef",
                    "gasUsed": 7633,
                    "id": 2,
                    "methodDecoded": true,
                    "operation": "CALL",
                    "output": "",
                    "revert": false,
                    "revertMessage": "",
                    "selector": "0xb0c80972",
                    "status": true,
                    "value": "0"
                },
                "nodeType": 0
            },
            "3": {
                "invocation": {
                    "address": "0x0013c2b325b3ceff19c3ededd341ba6d2ada1c7c",
                    "callData": "0x",
                    "decodedMethod": null,
                    "errorInfo": "",
                    "fromAddress": "0x684f650c7aa618cf20b8d8b827b4146a27f6c5f2",
                    "gasUsed": 0,
                    "id": 3,
                    "methodDecoded": false,
                    "operation": "CALL",
                    "output": "",
                    "revert": false,
                    "revertMessage": "",
                    "selector": "fallback",
                    "status": true,
                    "value": "0"
                },
                "nodeType": 0
            },
            "4": {
                "invocation": {
                    "address": "0x684f650c7aa618cf20b8d8b827b4146a27f6c5f2",
                    "callData": "0x",
                    "decodedMethod": {
                        "callParams": [],
                        "constructorArguments": "",
                        "name": "creationDate",
                        "returnParams": [
                            {
                                "name": "",
                                "type": "uint256",
                                "value": "1,498,322,226"
                            }
                        ],
                        "signature": "creationDate()"
                    },
                    "errorInfo": "",
                    "fromAddress": "0x6090a6e47849629b7245dfa1ca21d94cd15878ef",
                    "gasUsed": 436,
                    "id": 4,
                    "methodDecoded": true,
                    "operation": "CALL",
                    "output": "0x00000000000000000000000000000000000000000000000000000000594e9532",
                    "revert": false,
                    "revertMessage": "",
                    "selector": "0x05b34410",
                    "status": true,
                    "value": "0"
                },
                "nodeType": 0
            },
            "5": {
                "invocation": {
                    "address": "0x684f650c7aa618cf20b8d8b827b4146a27f6c5f2",
                    "callData": "0x00000000000000000000000000000000000000000000000000000000000003e3",
                    "decodedMethod": {
                        "callParams": [
                            {
                                "name": "refundRatio",
                                "type": "uint256",
                                "value": "995"
                            }
                        ],
                        "constructorArguments": "",
                        "name": "closeDeed",
                        "returnParams": [],
                        "signature": "closeDeed(uint256)"
                    },
                    "errorInfo": "",
                    "fromAddress": "0x6090a6e47849629b7245dfa1ca21d94cd15878ef",
                    "gasUsed": 28282,
                    "id": 5,
                    "methodDecoded": true,
                    "operation": "CALL",
                    "output": "",
                    "revert": false,
                    "revertMessage": "",
                    "selector": "0xbbe42771",
                    "status": true,
                    "value": "0"
                },
                "nodeType": 0
            },
            "6": {
                "invocation": {
                    "address": "0x000000000000000000000000000000000000dead",
                    "callData": "0x",
                    "decodedMethod": null,
                    "errorInfo": "",
                    "fromAddress": "0x684f650c7aa618cf20b8d8b827b4146a27f6c5f2",
                    "gasUsed": 0,
                    "id": 6,
                    "methodDecoded": false,
                    "operation": "CALL",
                    "output": "",
                    "revert": false,
                    "revertMessage": "",
                    "selector": "fallback",
                    "status": true,
                    "value": "0.01665"
                },
                "nodeType": 0
            },
            "7": {
                "event": {
                    "contract": "0x684f650c7aa618cf20b8d8b827b4146a27f6c5f2",
                    "decodedLog": {
                        "name": "DeedClosed",
                        "params": [],
                        "signature": "DeedClosed()"
                    },
                    "id": 7,
                    "logData": "0x",
                    "logDecoded": true,
                    "operation": "EVENT",
                    "revert": false,
                    "status": true,
                    "topics": [
                        "0xbb2ce2f51803bba16bc85282b47deeea9a5c6223eabea1077be696b3f265cf13"
                    ]
                },
                "nodeType": 1
            },
            "8": {
                "invocation": {
                    "address": "0x0013c2b325b3ceff19c3ededd341ba6d2ada1c7c",
                    "callData": "0x",
                    "decodedMethod": null,
                    "errorInfo": "",
                    "fromAddress": "0x684f650c7aa618cf20b8d8b827b4146a27f6c5f2",
                    "gasUsed": 0,
                    "id": 8,
                    "methodDecoded": false,
                    "operation": "CALL",
                    "output": "",
                    "revert": false,
                    "revertMessage": "",
                    "selector": "fallback",
                    "status": true,
                    "value": "3.31335"
                },
                "nodeType": 0
            },
            "9": {
                "invocation": {
                    "address": "0x000000000000000000000000000000000000dead",
                    "callData": "",
                    "decodedMethod": null,
                    "errorInfo": "",
                    "fromAddress": "0x684f650c7aa618cf20b8d8b827b4146a27f6c5f2",
                    "gasUsed": 0,
                    "id": 9,
                    "methodDecoded": false,
                    "operation": "SELFDESTRUCT",
                    "output": "",
                    "revert": false,
                    "revertMessage": "",
                    "selector": "",
                    "status": true,
                    "value": "0"
                },
                "nodeType": 0
            }
        },
        "gasFlame": [
            {
                "children": [
                    {
                        "children": [
                            {
                                "children": [],
                                "depth": 0,
                                "name": "Initial Gas",
                                "value": 26136
                            },
                            {
                                "children": [
                                    {
                                        "children": [],
                                        "depth": 1,
                                        "name": "value",
                                        "value": 524
                                    },
                                    {
                                        "children": [
                                            {
                                                "children": [],
                                                "depth": 2,
                                                "name": "fallback",
                                                "value": 0
                                            }
                                        ],
                                        "depth": 1,
                                        "name": "setBalance",
                                        "value": 7633
                                    },
                                    {
                                        "children": [],
                                        "depth": 1,
                                        "name": "creationDate",
                                        "value": 436
                                    },
                                    {
                                        "children": [
                                            {
                                                "children": [],
                                                "depth": 2,
                                                "name": "fallback",
                                                "value": 0
                                            },
                                            {
                                                "children": [],
                                                "depth": 2,
                                                "name": "fallback",
                                                "value": 0
                                            },
                                            {
                                                "children": [],
                                                "depth": 2,
                                                "name": "",
                                                "value": 0
                                            }
                                        ],
                                        "depth": 1,
                                        "name": "closeDeed",
                                        "value": 28282
                                    }
                                ],
                                "depth": 0,
                                "name": "Executed Gas",
                                "value": 54376
                            }
                        ],
                        "depth": -1,
                        "name": "Actual Gas Used",
                        "value": 40256
                    },
                    {
                        "children": [],
                        "depth": -1,
                        "name": "Refunded Gas",
                        "value": 40256
                    }
                ],
                "depth": -2,
                "name": "Total Gas",
                "value": 80512
            }
        ],
        "isConfirmed": true,
        "mainTrace": [
            {
                "children": [
                    {
                        "children": [
                            {
                                "children": [],
                                "depth": 1,
                                "id": 1,
                                "order": 1
                            },
                            {
                                "children": [
                                    {
                                        "children": [],
                                        "depth": 2,
                                        "id": 3,
                                        "order": 3
                                    }
                                ],
                                "depth": 1,
                                "id": 2,
                                "order": 2
                            },
                            {
                                "children": [],
                                "depth": 1,
                                "id": 4,
                                "order": 4
                            },
                            {
                                "children": [
                                    {
                                        "children": [],
                                        "depth": 2,
                                        "id": 6,
                                        "order": 6
                                    },
                                    {
                                        "children": [],
                                        "depth": 2,
                                        "id": 7,
                                        "order": 7
                                    },
                                    {
                                        "children": [],
                                        "depth": 2,
                                        "id": 8,
                                        "order": 8
                                    },
                                    {
                                        "children": [],
                                        "depth": 2,
                                        "id": 9,
                                        "order": 9
                                    }
                                ],
                                "depth": 1,
                                "id": 5,
                                "order": 5
                            },
                            {
                                "children": [],
                                "depth": 1,
                                "id": 10,
                                "order": 10
                            }
                        ],
                        "depth": 0,
                        "id": 0,
                        "order": 0
                    }
                ],
                "depth": -1,
                "id": -1,
                "order": -1
            }
        ],
        "mainTraceNodeCount": 11,
        "parentIdMap": {
            "0": -1,
            "1": 0,
            "10": 0,
            "2": 0,
            "3": 2,
            "4": 0,
            "5": 0,
            "6": 5,
            "7": 5,
            "8": 5,
            "9": 5
        },
        "tidyTrace": [
            {
                "children": [
                    {
                        "children": [
                            {
                                "children": [],
                                "depth": 1,
                                "id": 1,
                                "order": 1
                            },
                            {
                                "children": [
                                    {
                                        "children": [],
                                        "depth": 2,
                                        "id": 3,
                                        "order": 3
                                    }
                                ],
                                "depth": 1,
                                "id": 2,
                                "order": 2
                            },
                            {
                                "children": [],
                                "depth": 1,
                                "id": 4,
                                "order": 4
                            },
                            {
                                "children": [
                                    {
                                        "children": [],
                                        "depth": 2,
                                        "id": 6,
                                        "order": 6
                                    },
                                    {
                                        "children": [],
                                        "depth": 2,
                                        "id": 7,
                                        "order": 7
                                    },
                                    {
                                        "children": [],
                                        "depth": 2,
                                        "id": 8,
                                        "order": 8
                                    },
                                    {
                                        "children": [],
                                        "depth": 2,
                                        "id": 9,
                                        "order": 9
                                    }
                                ],
                                "depth": 1,
                                "id": 5,
                                "order": 5
                            },
                            {
                                "children": [],
                                "depth": 1,
                                "id": 10,
                                "order": 10
                            }
                        ],
                        "depth": 0,
                        "id": 0,
                        "order": 0
                    }
                ],
                "depth": -1,
                "id": -1,
                "order": -1
            }
        ],
        "tidyTraceNodeCount": 11
    },
    "state_change": {
        "stateChanges": [
            {
                "address": "0x6090a6e47849629b7245dfa1ca21d94cd15878ef",
                "erc": "",
                "slots": [
                    {
                        "current": "0x0000000000000000000000000000000000000000000000000000000000000000",
                        "key": "0xd5a962e347c9b8deaeaf11b799e8b430b437ee362f75592efde95559a0d90d91",
                        "prev": "0x000000000000000000000000684f650c7aa618cf20b8d8b827b4146a27f6c5f2"
                    }
                ],
                "storageVariables": []
            },
            {
                "address": "0x684f650c7aa618cf20b8d8b827b4146a27f6c5f2",
                "erc": "",
                "slots": [
                    {
                        "current": "0x0000000000000000000000000000000000000000000000000000000000000000",
                        "key": "0x0000000000000000000000000000000000000000000000000000000000000005",
                        "prev": "0x0000000000000000000000000000000000000000000000000000000000000001"
                    }
                ],
                "storageVariables": []
            }
        ]
    }
}