{
    "balance_change": {
        "balanceChanges": []
    },
    "profile": {
        "basic_info": {
            "baseFee": "",
            "blockNumber": 4584952,
            "callData": "0x278b8c0e0000000000000000000000000000000000000000000000000000000000000000000000000000000000000000000000000000000000000000008e1bc9bf04000000000000000000000000000092685e93956537c25bb75d5d47fca4266dd628b800000000000000000000000000000000000000000000000000000000000003e8000000000000000000000000000000000000000000000000000000000045fa6e00000000000000000000000000000000000000000000000000000000b698262f000000000000000000000000000000000000000000000000000000000000001b83a41b73d51f7a5ff163acc7a686ad126739f37c1d9a450b5b6a09093876c478791e5f8749afa23c57269da7d4748bb6dce1ada4f51768ed6c5f46b308cac2cf",
            "debugEnable": true,
            "errorInfo": "",
            "eventCount": 1,
            "feeRecipient": "0xea674fdde714fd979de3edf0f56aa9716b898ec8",
            "formatValue": "0",
            "gasLimit": 250000,
            "gasPrice": "4",
            "gasUsed": 58906,
            "intTxnCount": 2,
            "internalRevert": false,
            "internalRevertMessage": "",
            "isContractCreation": false,
            "isFlashloan": false,
            "maxFee": "",
            "nonce": 13,
            "overwritedBlockNumber": -1,
            "priorityFee": "",
            "receiver": "0x8d12a197cb00d4747a1fe03395095ce2a5cc6819",
            "revertMessage": "",
            "sender": "0x30a5d3cef783bf2e26f465e1008c11e0513e5cd4",
            "simulationEnable": true,
            "sourceTxnHash": "0xa98bd3ac2f43ea671c4512d5801747891d88bfefccb71428b21308508b36c220",
            "status": true,
            "timestamp": "2017-11-19T23:25:59Z",
            "transactionFee": "0.000235624",
            "txnHash": "0xa98bd3ac2f43ea671c4512d5801747891d88bfefccb71428b21308508b36c220",
            "txnIndex": 52,
            "type": 0,
            "value": "0"
        },
        "fund_flow": [],
        "token_infos": [
            {
                "address": "0xc02aaa39b223fe8d0a0e5c4f27ead9083c756cc2",
                "decimals": 18
            },
            {
                "address": "0xeeeeeeeeeeeeeeeeeeeeeeeeeeeeeeeeeeeeeeee",
                "decimals": 18
            }
        ]
    },
    "address_label": {
        "labels": [
            {
                "address": "0x0000000000000000000000000000000000000001",
                "label": "Precompiled"
            },
            {
                "address": "0x0000000000000000000000000000000000000003",
                "label": "Precompiled"
            },
            {
                "address": "0x0000000000000000000000000000000000000004",
                "label": "Precompiled"
            },
            {
                "address": "0xeeeeeeeeeeeeeeeeeeeeeeeeeeeeeeeeeeeeeeee",
                "label": "Ether"
            },
            {
                "address": "0x8d12a197cb00d4747a1fe03395095ce2a5cc6819",
                "label": "EtherDelta"
            },
            {
                "address": "0x92685e93956537c25bb75d5d47fca4266dd628b8",
                "label": "Bitlle: BTL Token"
            },
            {
                "address": "0x0000000000000000000000000000000000000002",
                "label": "Precompiled"
            },
            {
                "address": "0x0000000000000000000000000000000000000000",
                "label": "Null Address"
            }
        ]
    },
    "trace": {
        "accountLabels": null,
        "dataMap": {
            "-1": {
                "invocation": {
                    "address": "0x30a5d3cef783bf2e26f465e1008c11e0513e5cd4",
                    "callData": "",
                    "decodedMethod": null,
                    "errorInfo": "",
                    "fromAddress": "",
                    "gasUsed": 0,
                    "id": -1,
                    "methodDecoded": false,
                    "operation": "",
                    "output": "",
                    "revert": false,
                    "revertMessage": "",
                    "selector": "",
                    "status": false,
                    "value": ""
                },
                "nodeType": 0
            },
            "0": {
                "invocation": {
                    "address": "0x8d12a197cb00d4747a1fe03395095ce2a5cc6819",
                    "callData": "0x0000000000000000000000000000000000000000000000000000000000000000000000000000000000000000000000000000000000000000008e1bc9bf04000000000000000000000000000092685e93956537c25bb75d5d47fca4266dd628b800000000000000000000000000000000000000000000000000000000000003e8000000000000000000000000000000000000000000000000000000000045fa6e00000000000000000000000000000000000000000000000000000000b698262f000000000000000000000000000000000000000000000000000000000000001b83a41b73d51f7a5ff163acc7a686ad126739f37c1d9a450b5b6a09093876c478791e5f8749afa23c57269da7d4748bb6dce1ada4f51768ed6c5f46b308cac2cf",
                    "decodedMethod": {
                        "callParams": [
                            {
                                "name": "tokenGet",
                                "type": "address",
                                "value": "0x0000000000000000000000000000000000000000"
                            },
                            {
                                "name": "amountGet",
                                "type": "uint256",
                                "value": "40,000,000,000,000,000"
                            },
                            {
                                "name": "tokenGive",
                                "type": "address",
                                "value": "0x92685e93956537c25bb75d5d47fca4266dd628b8"
                            },
                            {
                                "name": "amountGive",
                                "type": "uint256",
                                "value": "1,000"
                            },
                            {
                                "name": "expires",
                                "type": "uint256",
                                "value": "4,586,094"
                            },
                            {
                                "name": "nonce",
                                "type": "uint256",
                                "value": "3,063,424,559"
                            },
                            {
                                "name": "v",
                                "type": "uint8",
                                "value": "27"
                            },
                            {
                                "name": "r",
                                "type": "bytes32",
                                "value": "0x83a41b73d51f7a5ff163acc7a686ad126739f37c1d9a450b5b6a09093876c478"
                            },
                            {
                                "name": "s",
                                "type": "bytes32",
                                "value": "0x791e5f8749afa23c57269da7d4748bb6dce1ada4f51768ed6c5f46b308cac2cf"
                            }
                        ],
                        "constructorArguments": "",
                        "name": "cancelOrder",
                        "returnParams": [],
                        "signature": "cancelOrder(address,uint256,address,uint256,uint256,uint256,uint8,bytes32,bytes32)"
                    },
                    "errorInfo": "",
                    "fromAddress": "0x30a5d3cef783bf2e26f465e1008c11e0513e5cd4",
                    "gasUsed": 58906,
                    "id": 0,
                    "methodDecoded": true,
                    "operation": "CALL",
                    "output": "",
                    "revert": false,
                    "revertMessage": "",
                    "selector": "0x278b8c0e",
                    "status": true,
                    "value": "0"
                },
                "nodeType": 0
            },
            "1": {
                "invocation": {
                    "address": "0x0000000000000000000000000000000000000002",
                    "callData": "0xcb00d4747a1fe03395095ce2a5cc68190000000000000000000000000000000000000000000000000000000000000000000000000000000000000000008e1bc9bf04000092685e93956537c25bb75d5d47fca4266dd628b800000000000000000000000000000000000000000000000000000000000003e8000000000000000000000000000000000000000000000000000000000045fa6e00000000000000000000000000000000000000000000000000000000b698262f",
                    "decodedMethod": {
                        "callParams": [
                            {
                                "name": "data",
                                "type": "bytes",
                                "value": "0x8d12a197cb00d4747a1fe03395095ce2a5cc68190000000000000000000000000000000000000000000000000000000000000000000000000000000000000000008e1bc9bf04000092685e93956537c25bb75d5d47fca4266dd628b800000000000000000000000000000000000000000000000000000000000003e8000000000000000000000000000000000000000000000000000000000045fa6e00000000000000000000000000000000000000000000000000000000b698262f"
                            }
                        ],
                        "constructorArguments": "",
                        "name": "sha256hash",
                        "returnParams": [
                            {
                                "name": "hash",
                                "type": "bytes32",
                                "value": "0xc4c97208f727dbc0f4a2fa25265f9e257a82ab6d5f75a5a7d060021de1eb55a2"
                            }
                        ],
                        "signature": "sha256hash(bytes)"
                    },
                    "errorInfo": "",
                    "fromAddress": "0x8d12a197cb00d4747a1fe03395095ce2a5cc6819",
                    "gasUsed": 132,
                    "id": 1,
                    "methodDecoded": true,
                    "operation": "CALL",
                    "output": "0xc4c97208f727dbc0f4a2fa25265f9e257a82ab6d5f75a5a7d060021de1eb55a2",
                    "revert": false,
                    "revertMessage": "",
                    "selector": "0x8d12a197",
                    "status": true,
                    "value": "0"
                },
                "nodeType": 0
            },
            "2": {
                "invocation": {
                    "address": "0x0000000000000000000000000000000000000001",
                    "callData": "0xace2e413a7769113be9de04a7e3cfa1295f264fe4c792dfa34370744000000000000000000000000000000000000000000000000000000000000001b83a41b73d51f7a5ff163acc7a686ad126739f37c1d9a450b5b6a09093876c478791e5f8749afa23c57269da7d4748bb6dce1ada4f51768ed6c5f46b308cac2cf",
                    "decodedMethod": {
                        "callParams": [
                            {
                                "name": "hash",
                                "type": "bytes32",
                                "value": "0x923321e2ace2e413a7769113be9de04a7e3cfa1295f264fe4c792dfa34370744"
                            },
                            {
                                "name": "v",
                                "type": "uint256",
                                "value": "27"
                            },
                            {
                                "name": "r",
                                "type": "bytes32",
                                "value": "0x83a41b73d51f7a5ff163acc7a686ad126739f37c1d9a450b5b6a09093876c478"
                            },
                            {
                                "name": "s",
                                "type": "bytes32",
                                "value": "0x791e5f8749afa23c57269da7d4748bb6dce1ada4f51768ed6c5f46b308cac2cf"
                            }
                        ],
                        "constructorArguments": "",
                        "name": "ecrecover",
                        "returnParams": [
                            {
                                "name": "",
                                "type": "address",
                                "value": "0x30a5d3cef783bf2e26f465e1008c11e0513e5cd4"
                            }
                        ],
                        "signature": "ecrecover(bytes32,uint256,bytes32,bytes32)"
                    },
                    "errorInfo": "",
                    "fromAddress": "0x8d12a197cb00d4747a1fe03395095ce2a5cc6819",
                    "gasUsed": 3000,
                    "id": 2,
                    "methodDecoded": true,
                    "operation": "CALL",
                    "output": "0x00000000000000000000000030a5d3cef783bf2e26f465e1008c11e0513e5cd4",
                    "revert": false,
                    "revertMessage": "",
                    "selector": "0x923321e2",
                    "status": true,
                    "value": "0"
                },
                "nodeType": 0
            },
            "3": {
                "event": {
                    "contract": "0x8d12a197cb00d4747a1fe03395095ce2a5cc6819",
                    "decodedLog": {
                        "name": "Cancel",
                        "params": [
                            {
                                "name": "tokenGet",
                                "type": "address",
                                "value": "0x0000000000000000000000000000000000000000"
                            },
                            {
                                "name": "amountGet",
                                "type": "uint256",
                                "value": "40,000,000,000,000,000"
                            },
                            {
                                "name": "tokenGive",
                                "type": "address",
                                "value": "0x92685e93956537c25bb75d5d47fca4266dd628b8"
                            },
                            {
                                "name": "amountGive",
                                "type": "uint256",
                                "value": "1,000"
                            },
                            {
                                "name": "expires",
                                "type": "uint256",
                                "value": "4,586,094"
                            },
                            {
                                "name": "nonce",
                                "type": "uint256",
                                "value": "3,063,424,559"
                            },
                            {
                                "name": "user",
                                "type": "address",
                                "value": "0x30a5d3cef783bf2e26f465e1008c11e0513e5cd4"
                            },
                            {
                                "name": "v",
                                "type": "uint8",
                                "value": "27"
                            },
                            {
                                "name": "r",
                                "type": "bytes32",
                                "value": "0x83a41b73d51f7a5ff163acc7a686ad126739f37c1d9a450b5b6a09093876c478"
                            },
                            {
                                "name": "s",
                                "type": "bytes32",
                                "value": "0x791e5f8749afa23c57269da7d4748bb6dce1ada4f51768ed6c5f46b308cac2cf"
                            }
                        ],
                        "signature": "Cancel(address,uint256,address,uint256,uint256,uint256,address,uint8,bytes32,bytes32)"
                    },
                    "id": 3,
                    "logData": "0x0000000000000000000000000000000000000000000000000000000000000000000000000000000000000000000000000000000000000000008e1bc9bf04000000000000000000000000000092685e93956537c25bb75d5d47fca4266dd628b800000000000000000000000000000000000000000000000000000000000003e8000000000000000000000000000000000000000000000000000000000045fa6e00000000000000000000000000000000000000000000000000000000b698262f00000000000000000000000030a5d3cef783bf2e26f465e1008c11e0513e5cd4000000000000000000000000000000000000000000000000000000000000001b83a41b73d51f7a5ff163acc7a686ad126739f37c1d9a450b5b6a09093876c478791e5f8749afa23c57269da7d4748bb6dce1ada4f51768ed6c5f46b308cac2cf",
                    "logDecoded": true,
                    "operation": "EVENT",
                    "revert": false,
                    "status": true,
                    "topics": [
                        "0x1e0b760c386003e9cb9bcf4fcf3997886042859d9b6ed6320e804597fcdb28b0"
                    ]
                },
                "nodeType": 1
            }
        },
        "gasFlame": [
            {
                "children": [
                    {
                        "children": [
                            {
                                "children": [],
                                "depth": 0,
                                "name": "Initial Gas",
                                "value": 28760
                            },
                            {
                                "children": [
                                    {
                                        "children": [],
                                        "depth": 1,
                                        "name": "sha256hash",
                                        "value": 132
                                    },
                                    {
                                        "children": [],
                                        "depth": 1,
                                        "name": "ecrecover",
                                        "value": 3000
                                    }
                                ],
                                "depth": 0,
                                "name": "Executed Gas",
                                "value": 30146
                            }
                        ],
                        "depth": -1,
                        "name": "Actual Gas Used",
                        "value": 58906
                    },
                    {
                        "children": [],
                        "depth": -1,
                        "name": "Refunded Gas",
                        "value": 0
                    }
                ],
                "depth": -2,
                "name": "Total Gas",
                "value": 58906
            }
        ],
        "isConfirmed": true,
        "mainTrace": [
            {
                "children": [
                    {
                        "children": [
                            {
                                "children": [],
                                "depth": 1,
                                "id": 1,
                                "order": 1
                            },
                            {
                                "children": [],
                                "depth": 1,
                                "id": 2,
                                "order": 2
                            },
                            {
                                "children": [],
                                "depth": 1,
                                "id": 3,
                                "order": 3
                            }
                        ],
                        "depth": 0,
                        "id": 0,
                        "order": 0
                    }
                ],
                "depth": -1,
                "id": -1,
                "order": -1
            }
        ],
        "mainTraceNodeCount": 4,
        "parentIdMap": {
            "0": -1,
            "1": 0,
            "2": 0,
            "3": 0
        },
        "tidyTrace": [
            {
                "children": [
                    {
                        "children": [
                            {
                                "children": [],
                                "depth": 1,
                                "id": 1,
                                "order": 1
                            },
                            {
                                "children": [],
                                "depth": 1,
                                "id": 2,
                                "order": 2
                            },
                            {
                                "children": [],
                                "depth": 1,
                                "id": 3,
                                "order": 3
                            }
                        ],
                        "depth": 0,
                        "id": 0,
                        "order": 0
                    }
                ],
                "depth": -1,
                "id": -1,
                "order": -1
            }
        ],
        "tidyTraceNodeCount": 4
    },
    "state_change": {
        "stateChanges": [
            {
                "address": "0x8d12a197cb00d4747a1fe03395095ce2a5cc6819",
                "erc": "",
                "slots": [
                    {
                        "current": "0x000000000000000000000000000000000000000000000000008e1bc9bf040000",
                        "key": "0xc8df5b898a8f070a26a0f5304e5d832a70c3e2d87b5bff86680ff46388f9feda",
                        "prev": "0x0000000000000000000000000000000000000000000000000000000000000000"
                    }
                ],
                "storageVariables": []
            }
        ]
    }
}