{
    "balance_change": {
        "balanceChanges": [
            {
                "account": "0xeb5d3a91b5e721fa251e03bda2c9578e90f30f84",
                "assets": [
                    {
                        "address": "0xeeeeeeeeeeeeeeeeeeeeeeeeeeeeeeeeeeeeeeee",
                        "amount": "0.040940357206093698",
                        "iconUrl": "https://assets.blocksec.com/image/1663669189317-3.png",
                        "isERC1155": false,
                        "isERC721": false,
                        "sign": true,
                        "value": "19.40531991"
                    }
                ]
            },
            {
                "account": "0x39ee0f29253017d69909b7286caf8c080e9d6da2",
                "assets": [
                    {
                        "address": "0x27054b13b1b798b345b591a4d22e6562d47ea75a",
                        "amount": "8,512.5224",
                        "iconUrl": "https://assets.blocksec.com/icon/c77fa4012a97e5bd41d78de19bed17c3c179d8394f4e6ad11cfa736e4e0e738f.png",
                        "isERC1155": false,
                        "isERC721": false,
                        "sign": true,
                        "value": "778.8701587"
                    },
                    {
                        "address": "0xc02aaa39b223fe8d0a0e5c4f27ead9083c756cc2",
                        "amount": "1.681448359572848565",
                        "iconUrl": "https://assets.blocksec.com/icon/f1cb2d02c471d545bbc7722daf3277fd852d98e63d118771af7047bd8256c516.png",
                        "isERC1155": false,
                        "isERC721": false,
                        "sign": false,
                        "value": "796.9897082"
                    }
                ]
            },
            {
                "account": "0xc02aaa39b223fe8d0a0e5c4f27ead9083c756cc2",
                "assets": [
                    {
                        "address": "0xeeeeeeeeeeeeeeeeeeeeeeeeeeeeeeeeeeeeeeee",
                        "amount": "0.040940357206093698",
                        "iconUrl": "https://assets.blocksec.com/image/1663669189317-3.png",
                        "isERC1155": false,
                        "isERC721": false,
                        "sign": false,
                        "value": "19.40531991"
                    },
                    {
                        "address": "0xc02aaa39b223fe8d0a0e5c4f27ead9083c756cc2",
                        "amount": "0.040940357206093698",
                        "iconUrl": "https://assets.blocksec.com/icon/f1cb2d02c471d545bbc7722daf3277fd852d98e63d118771af7047bd8256c516.png",
                        "isERC1155": false,
                        "isERC721": false,
                        "sign": true,
                        "value": "19.40531991"
                    }
                ]
            },
            {
                "account": "0xca9c4cc09e901f4d2aa072ed1aa95dcbe3a7a8e5",
                "assets": [
                    {
                        "address": "0xc02aaa39b223fe8d0a0e5c4f27ead9083c756cc2",
                        "amount": "1.640508002366754867",
                        "iconUrl": "https://assets.blocksec.com/icon/f1cb2d02c471d545bbc7722daf3277fd852d98e63d118771af7047bd8256c516.png",
                        "isERC1155": false,
                        "isERC721": false,
                        "sign": true,
                        "value": "777.5843879"
                    },
                    {
                        "address": "0x27054b13b1b798b345b591a4d22e6562d47ea75a",
                        "amount": "8,512.5224",
                        "iconUrl": "https://assets.blocksec.com/icon/c77fa4012a97e5bd41d78de19bed17c3c179d8394f4e6ad11cfa736e4e0e738f.png",
                        "isERC1155": false,
                        "isERC721": false,
                        "sign": false,
                        "value": "778.8701587"
                    }
                ]
            }
        ]
    },
    "profile": {
        "basic_info": {
            "baseFee": "",
            "blockNumber": 11290685,
            "callData": "0x1519cdeb0000000000000000000000000d0b48d39511aa8029957cfa4fa2ffa4b447283b00000000000000000000000000000000000000000000000000000175e23bc20f00000000000000000000000000000000000000000000000016c441561c41903300000000000000000000000067bd65c9a87959797956fe6cdd59375c71d97af80000000000000000000000000000000000000000000000000012a8454c915f1900000000000000000000000000000000000000000000000000000000000000c0000000000000000000000000000000000000000000000000000000000000000400000000000000000000000227054b13b1b798b345b591a4d22e6562d47ea75a0000000000000000000000000000000000000000000000000000000000000000000000000000000000000006000000000000000000000000000000000000000000000000000000000000000039ee0f29253017d69909b7286caf8c080e9d6da2",
            "debugEnable": true,
            "errorInfo": "",
            "eventCount": 11,
            "feeRecipient": "0x5a0b54d5dc17e0aadc383d2db43b0a0d3e029c4c",
            "formatValue": "0",
            "gasLimit": 456437,
            "gasPrice": "25",
            "gasUsed": 268173,
            "intTxnCount": 21,
            "internalRevert": false,
            "internalRevertMessage": "",
            "isContractCreation": false,
            "isFlashloan": false,
            "maxFee": "",
            "nonce": 2000,
            "overwritedBlockNumber": -1,
            "priorityFee": "",
            "receiver": "0xeb5d3a91b5e721fa251e03bda2c9578e90f30f84",
            "revertMessage": "",
            "sender": "0x86226191cc9947343d0fcabd7065a68ec0a90654",
            "simulationEnable": true,
            "sourceTxnHash": "0xa980f5c7c4e556f8946c619e4b4f5192e5b4d8df6d999563cdac168fa2e3924a",
            "status": true,
            "timestamp": "2020-11-19T20:39:26Z",
            "transactionFee": "0.006704325",
            "txnHash": "0xa980f5c7c4e556f8946c619e4b4f5192e5b4d8df6d999563cdac168fa2e3924a",
            "txnIndex": 23,
            "type": 0,
            "value": "0"
        },
        "fund_flow": [
            {
                "amount": "1.640508002366754867",
                "from": "0xeb5d3a91b5e721fa251e03bda2c9578e90f30f84",
                "id": 1,
                "isERC1155": false,
                "isERC721": false,
                "isReverted": false,
                "order": 1,
                "to": "0xc02aaa39b223fe8d0a0e5c4f27ead9083c756cc2",
                "token": "0xeeeeeeeeeeeeeeeeeeeeeeeeeeeeeeeeeeeeeeee"
            },
            {
                "amount": "1.640508002366754867",
                "from": "0xc02aaa39b223fe8d0a0e5c4f27ead9083c756cc2",
                "id": 2,
                "isERC1155": false,
                "isERC721": false,
                "isReverted": false,
                "order": 2,
                "to": "0xeb5d3a91b5e721fa251e03bda2c9578e90f30f84",
                "token": "0xc02aaa39b223fe8d0a0e5c4f27ead9083c756cc2"
            },
            {
                "amount": "1.640508002366754867",
                "from": "0xeb5d3a91b5e721fa251e03bda2c9578e90f30f84",
                "id": 3,
                "isERC1155": false,
                "isERC721": false,
                "isReverted": false,
                "order": 3,
                "to": "0xca9c4cc09e901f4d2aa072ed1aa95dcbe3a7a8e5",
                "token": "0xc02aaa39b223fe8d0a0e5c4f27ead9083c756cc2"
            },
            {
                "amount": "8,512.5224",
                "from": "0xca9c4cc09e901f4d2aa072ed1aa95dcbe3a7a8e5",
                "id": 4,
                "isERC1155": false,
                "isERC721": false,
                "isReverted": false,
                "order": 4,
                "to": "0xeb5d3a91b5e721fa251e03bda2c9578e90f30f84",
                "token": "0x27054b13b1b798b345b591a4d22e6562d47ea75a"
            },
            {
                "amount": "8,512.5224",
                "from": "0xeb5d3a91b5e721fa251e03bda2c9578e90f30f84",
                "id": 5,
                "isERC1155": false,
                "isERC721": false,
                "isReverted": false,
                "order": 5,
                "to": "0x39ee0f29253017d69909b7286caf8c080e9d6da2",
                "token": "0x27054b13b1b798b345b591a4d22e6562d47ea75a"
            },
            {
                "amount": "1.681448359572848565",
                "from": "0x39ee0f29253017d69909b7286caf8c080e9d6da2",
                "id": 6,
                "isERC1155": false,
                "isERC721": false,
                "isReverted": false,
                "order": 6,
                "to": "0xeb5d3a91b5e721fa251e03bda2c9578e90f30f84",
                "token": "0xc02aaa39b223fe8d0a0e5c4f27ead9083c756cc2"
            },
            {
                "amount": "1.681448359572848565",
                "from": "0xc02aaa39b223fe8d0a0e5c4f27ead9083c756cc2",
                "id": 7,
                "isERC1155": false,
                "isERC721": false,
                "isReverted": false,
                "order": 7,
                "to": "0xeb5d3a91b5e721fa251e03bda2c9578e90f30f84",
                "token": "0xeeeeeeeeeeeeeeeeeeeeeeeeeeeeeeeeeeeeeeee"
            },
            {
                "amount": "1.681448359572848565",
                "from": "0xeb5d3a91b5e721fa251e03bda2c9578e90f30f84",
                "id": 8,
                "isERC1155": false,
                "isERC721": false,
                "isReverted": false,
                "order": 8,
                "to": "0xc02aaa39b223fe8d0a0e5c4f27ead9083c756cc2",
                "token": "0xc02aaa39b223fe8d0a0e5c4f27ead9083c756cc2"
            }
        ],
        "token_infos": [
            {
                "address": "0x27054b13b1b798b345b591a4d22e6562d47ea75a",
                "decimals": 4
            },
            {
                "address": "0xc02aaa39b223fe8d0a0e5c4f27ead9083c756cc2",
                "decimals": 18
            },
            {
                "address": "0xeeeeeeeeeeeeeeeeeeeeeeeeeeeeeeeeeeeeeeee",
                "decimals": 18
            }
        ]
    },
    "address_label": {
        "labels": [
            {
                "address": "0xeeeeeeeeeeeeeeeeeeeeeeeeeeeeeeeeeeeeeeee",
                "label": "Ether"
            },
            {
                "address": "0xc02aaa39b223fe8d0a0e5c4f27ead9083c756cc2",
                "label": "Wrapped Ether (WETH)"
            },
            {
                "address": "0x27054b13b1b798b345b591a4d22e6562d47ea75a",
                "label": "AirSwap: AST Token"
            },
            {
                "address": "0x0000000000000000000000000000000000000001",
                "label": "Precompiled"
            },
            {
                "address": "0xca9c4cc09e901f4d2aa072ed1aa95dcbe3a7a8e5",
                "label": "Uniswap V2: AST"
            },
            {
                "address": "0x39ee0f29253017d69909b7286caf8c080e9d6da2",
                "label": "Balancer: ETH/AST 30/70 #2"
            },
            {
                "address": "0x0000000000000000000000000000000000000002",
                "label": "Precompiled"
            },
            {
                "address": "0x0000000000000000000000000000000000000003",
                "label": "Precompiled"
            },
            {
                "address": "0x0000000000000000000000000000000000000004",
                "label": "Precompiled"
            }
        ]
    },
    "trace": {
        "accountLabels": null,
        "dataMap": {
            "-1": {
                "invocation": {
                    "address": "0x86226191cc9947343d0fcabd7065a68ec0a90654",
                    "callData": "",
                    "decodedMethod": null,
                    "errorInfo": "",
                    "fromAddress": "",
                    "gasUsed": 0,
                    "id": -1,
                    "methodDecoded": false,
                    "operation": "",
                    "output": "",
                    "revert": false,
                    "revertMessage": "",
                    "selector": "",
                    "status": false,
                    "value": ""
                },
                "nodeType": 0
            },
            "0": {
                "invocation": {
                    "address": "0xeb5d3a91b5e721fa251e03bda2c9578e90f30f84",
                    "callData": "0x0000000000000000000000000d0b48d39511aa8029957cfa4fa2ffa4b447283b00000000000000000000000000000000000000000000000000000175e23bc20f00000000000000000000000000000000000000000000000016c441561c41903300000000000000000000000067bd65c9a87959797956fe6cdd59375c71d97af80000000000000000000000000000000000000000000000000012a8454c915f1900000000000000000000000000000000000000000000000000000000000000c0000000000000000000000000000000000000000000000000000000000000000400000000000000000000000227054b13b1b798b345b591a4d22e6562d47ea75a0000000000000000000000000000000000000000000000000000000000000000000000000000000000000006000000000000000000000000000000000000000000000000000000000000000039ee0f29253017d69909b7286caf8c080e9d6da2",
                    "decodedMethod": null,
                    "errorInfo": "",
                    "fromAddress": "0x86226191cc9947343d0fcabd7065a68ec0a90654",
                    "gasUsed": 268173,
                    "id": 0,
                    "methodDecoded": false,
                    "operation": "CALL",
                    "output": "",
                    "revert": false,
                    "revertMessage": "",
                    "selector": "0x1519cdeb",
                    "status": true,
                    "value": "0"
                },
                "nodeType": 0
            },
            "1": {
                "invocation": {
                    "address": "0x0d0b48d39511aa8029957cfa4fa2ffa4b447283b",
                    "callData": "0x00000000000000000000000000000000000000000000000016c441561c4190330000000000000000000000000000000000000000000000000000000000000040000000000000000000000000000000000000000000000000000000000000000400000000000000000000000227054b13b1b798b345b591a4d22e6562d47ea75a0000000000000000000000000000000000000000000000000000000000000000000000000000000000000006000000000000000000000000000000000000000000000000000000000000000039ee0f29253017d69909b7286caf8c080e9d6da2",
                    "decodedMethod": null,
                    "errorInfo": "",
                    "fromAddress": "0xeb5d3a91b5e721fa251e03bda2c9578e90f30f84",
                    "gasUsed": 274569,
                    "id": 1,
                    "methodDecoded": false,
                    "operation": "DELEGATECALL",
                    "output": "",
                    "revert": false,
                    "revertMessage": "",
                    "selector": "0x6cbe3f76",
                    "status": true,
                    "value": "0"
                },
                "nodeType": 0
            },
            "10": {
                "event": {
                    "contract": "0xc02aaa39b223fe8d0a0e5c4f27ead9083c756cc2",
                    "decodedLog": {
                        "name": "Deposit",
                        "params": [
                            {
                                "name": "dst",
                                "type": "address",
                                "value": "0xeb5d3a91b5e721fa251e03bda2c9578e90f30f84"
                            },
                            {
                                "name": "wad",
                                "type": "uint256",
                                "value": "1,640,508,002,366,754,867"
                            }
                        ],
                        "signature": "Deposit(address,uint256)"
                    },
                    "id": 10,
                    "logData": "0x00000000000000000000000000000000000000000000000016c441561c419033",
                    "logDecoded": true,
                    "operation": "EVENT",
                    "revert": false,
                    "status": true,
                    "topics": [
                        "0xe1fffcc4923d04b559f4d29a8bfc6cda04eb5b0d3c460751c2402c5c5cc9109c",
                        "0x000000000000000000000000eb5d3a91b5e721fa251e03bda2c9578e90f30f84"
                    ]
                },
                "nodeType": 1
            },
            "11": {
                "invocation": {
                    "address": "0xc02aaa39b223fe8d0a0e5c4f27ead9083c756cc2",
                    "callData": "0x000000000000000000000000ca9c4cc09e901f4d2aa072ed1aa95dcbe3a7a8e500000000000000000000000000000000000000000000000016c441561c419033",
                    "decodedMethod": {
                        "callParams": [
                            {
                                "name": "dst",
                                "type": "address",
                                "value": "0xca9c4cc09e901f4d2aa072ed1aa95dcbe3a7a8e5"
                            },
                            {
                                "decimalAvailable": true,
                                "name": "wad",
                                "type": "uint256",
                                "value": "1,640,508,002,366,754,867"
                            }
                        ],
                        "constructorArguments": "",
                        "name": "transfer",
                        "returnParams": [
                            {
                                "name": "",
                                "type": "bool",
                                "value": true
                            }
                        ],
                        "signature": "transfer(address,uint256)"
                    },
                    "errorInfo": "",
                    "fromAddress": "0xeb5d3a91b5e721fa251e03bda2c9578e90f30f84",
                    "gasUsed": 10962,
                    "id": 11,
                    "methodDecoded": true,
                    "operation": "CALL",
                    "output": "0x0000000000000000000000000000000000000000000000000000000000000001",
                    "revert": false,
                    "revertMessage": "",
                    "selector": "0xa9059cbb",
                    "status": true,
                    "value": "0"
                },
                "nodeType": 0
            },
            "12": {
                "event": {
                    "contract": "0xc02aaa39b223fe8d0a0e5c4f27ead9083c756cc2",
                    "decodedLog": {
                        "name": "Transfer",
                        "params": [
                            {
                                "name": "src",
                                "type": "address",
                                "value": "0xeb5d3a91b5e721fa251e03bda2c9578e90f30f84"
                            },
                            {
                                "name": "dst",
                                "type": "address",
                                "value": "0xca9c4cc09e901f4d2aa072ed1aa95dcbe3a7a8e5"
                            },
                            {
                                "decimalAvailable": true,
                                "name": "wad",
                                "type": "uint256",
                                "value": "1,640,508,002,366,754,867"
                            }
                        ],
                        "signature": "Transfer(address,address,uint256)"
                    },
                    "id": 12,
                    "logData": "0x00000000000000000000000000000000000000000000000016c441561c419033",
                    "logDecoded": true,
                    "operation": "EVENT",
                    "revert": false,
                    "status": true,
                    "topics": [
                        "0xddf252ad1be2c89b69c2b068fc378daa952ba7f163c4a11628f55a4df523b3ef",
                        "0x000000000000000000000000eb5d3a91b5e721fa251e03bda2c9578e90f30f84",
                        "0x000000000000000000000000ca9c4cc09e901f4d2aa072ed1aa95dcbe3a7a8e5"
                    ]
                },
                "nodeType": 1
            },
            "13": {
                "invocation": {
                    "address": "0xca9c4cc09e901f4d2aa072ed1aa95dcbe3a7a8e5",
                    "callData": "0x000000000000000000000000000000000000000000000000000000000512e8680000000000000000000000000000000000000000000000000000000000000000000000000000000000000000eb5d3a91b5e721fa251e03bda2c9578e90f30f8400000000000000000000000000000000000000000000000000000000000000800000000000000000000000000000000000000000000000000000000000000000",
                    "decodedMethod": {
                        "callParams": [
                            {
                                "name": "amount0Out",
                                "type": "uint256",
                                "value": "85,125,224"
                            },
                            {
                                "name": "amount1Out",
                                "type": "uint256",
                                "value": "0"
                            },
                            {
                                "name": "to",
                                "type": "address",
                                "value": "0xeb5d3a91b5e721fa251e03bda2c9578e90f30f84"
                            },
                            {
                                "name": "data",
                                "type": "bytes",
                                "value": "0x"
                            }
                        ],
                        "constructorArguments": "",
                        "name": "swap",
                        "returnParams": [],
                        "signature": "swap(uint256,uint256,address,bytes)"
                    },
                    "errorInfo": "",
                    "fromAddress": "0xeb5d3a91b5e721fa251e03bda2c9578e90f30f84",
                    "gasUsed": 65250,
                    "id": 13,
                    "methodDecoded": true,
                    "operation": "CALL",
                    "output": "",
                    "revert": false,
                    "revertMessage": "",
                    "selector": "0x022c0d9f",
                    "status": true,
                    "value": "0"
                },
                "nodeType": 0
            },
            "14": {
                "invocation": {
                    "address": "0x27054b13b1b798b345b591a4d22e6562d47ea75a",
                    "callData": "0x000000000000000000000000eb5d3a91b5e721fa251e03bda2c9578e90f30f84000000000000000000000000000000000000000000000000000000000512e868",
                    "decodedMethod": {
                        "callParams": [
                            {
                                "name": "_to",
                                "type": "address",
                                "value": "0xeb5d3a91b5e721fa251e03bda2c9578e90f30f84"
                            },
                            {
                                "decimalAvailable": true,
                                "name": "_value",
                                "type": "uint256",
                                "value": "85,125,224"
                            }
                        ],
                        "constructorArguments": "",
                        "name": "transfer",
                        "returnParams": [
                            {
                                "name": "success",
                                "type": "bool",
                                "value": true
                            }
                        ],
                        "signature": "transfer(address,uint256)"
                    },
                    "errorInfo": "",
                    "fromAddress": "0xca9c4cc09e901f4d2aa072ed1aa95dcbe3a7a8e5",
                    "gasUsed": 35685,
                    "id": 14,
                    "methodDecoded": true,
                    "operation": "CALL",
                    "output": "0x0000000000000000000000000000000000000000000000000000000000000001",
                    "revert": false,
                    "revertMessage": "",
                    "selector": "0xa9059cbb",
                    "status": true,
                    "value": "0"
                },
                "nodeType": 0
            },
            "15": {
                "event": {
                    "contract": "0x27054b13b1b798b345b591a4d22e6562d47ea75a",
                    "decodedLog": {
                        "name": "Transfer",
                        "params": [
                            {
                                "name": "_from",
                                "type": "address",
                                "value": "0xca9c4cc09e901f4d2aa072ed1aa95dcbe3a7a8e5"
                            },
                            {
                                "name": "_to",
                                "type": "address",
                                "value": "0xeb5d3a91b5e721fa251e03bda2c9578e90f30f84"
                            },
                            {
                                "decimalAvailable": true,
                                "name": "_value",
                                "type": "uint256",
                                "value": "85,125,224"
                            }
                        ],
                        "signature": "Transfer(address,address,uint256)"
                    },
                    "id": 15,
                    "logData": "0x000000000000000000000000000000000000000000000000000000000512e868",
                    "logDecoded": true,
                    "operation": "EVENT",
                    "revert": false,
                    "status": true,
                    "topics": [
                        "0xddf252ad1be2c89b69c2b068fc378daa952ba7f163c4a11628f55a4df523b3ef",
                        "0x000000000000000000000000ca9c4cc09e901f4d2aa072ed1aa95dcbe3a7a8e5",
                        "0x000000000000000000000000eb5d3a91b5e721fa251e03bda2c9578e90f30f84"
                    ]
                },
                "nodeType": 1
            },
            "16": {
                "invocation": {
                    "address": "0x27054b13b1b798b345b591a4d22e6562d47ea75a",
                    "callData": "0x000000000000000000000000ca9c4cc09e901f4d2aa072ed1aa95dcbe3a7a8e5",
                    "decodedMethod": {
                        "callParams": [
                            {
                                "name": "_owner",
                                "type": "address",
                                "value": "0xca9c4cc09e901f4d2aa072ed1aa95dcbe3a7a8e5"
                            }
                        ],
                        "constructorArguments": "",
                        "name": "balanceOf",
                        "returnParams": [
                            {
                                "decimalAvailable": true,
                                "name": "balance",
                                "type": "uint256",
                                "value": "3,842,866,300"
                            }
                        ],
                        "signature": "balanceOf(address)"
                    },
                    "errorInfo": "",
                    "fromAddress": "0xca9c4cc09e901f4d2aa072ed1aa95dcbe3a7a8e5",
                    "gasUsed": 1324,
                    "id": 16,
                    "methodDecoded": true,
                    "operation": "STATICCALL",
                    "output": "0x00000000000000000000000000000000000000000000000000000000e50d7c7c",
                    "revert": false,
                    "revertMessage": "",
                    "selector": "0x70a08231",
                    "status": true,
                    "value": "0"
                },
                "nodeType": 0
            },
            "17": {
                "invocation": {
                    "address": "0xc02aaa39b223fe8d0a0e5c4f27ead9083c756cc2",
                    "callData": "0x000000000000000000000000ca9c4cc09e901f4d2aa072ed1aa95dcbe3a7a8e5",
                    "decodedMethod": {
                        "callParams": [
                            {
                                "name": "",
                                "type": "address",
                                "value": "0xca9c4cc09e901f4d2aa072ed1aa95dcbe3a7a8e5"
                            }
                        ],
                        "constructorArguments": "",
                        "name": "balanceOf",
                        "returnParams": [
                            {
                                "decimalAvailable": true,
                                "name": "",
                                "type": "uint256",
                                "value": "75,476,908,562,766,228,248"
                            }
                        ],
                        "signature": "balanceOf(address)"
                    },
                    "errorInfo": "",
                    "fromAddress": "0xca9c4cc09e901f4d2aa072ed1aa95dcbe3a7a8e5",
                    "gasUsed": 1234,
                    "id": 17,
                    "methodDecoded": true,
                    "operation": "STATICCALL",
                    "output": "0x0000000000000000000000000000000000000000000000041773d871ac51eb18",
                    "revert": false,
                    "revertMessage": "",
                    "selector": "0x70a08231",
                    "status": true,
                    "value": "0"
                },
                "nodeType": 0
            },
            "18": {
                "event": {
                    "contract": "0xca9c4cc09e901f4d2aa072ed1aa95dcbe3a7a8e5",
                    "decodedLog": {
                        "name": "Sync",
                        "params": [
                            {
                                "name": "reserve0",
                                "type": "uint112",
                                "value": "3,842,866,300"
                            },
                            {
                                "name": "reserve1",
                                "type": "uint112",
                                "value": "75,476,908,562,766,228,248"
                            }
                        ],
                        "signature": "Sync(uint112,uint112)"
                    },
                    "id": 18,
                    "logData": "0x00000000000000000000000000000000000000000000000000000000e50d7c7c0000000000000000000000000000000000000000000000041773d871ac51eb18",
                    "logDecoded": true,
                    "operation": "EVENT",
                    "revert": false,
                    "status": true,
                    "topics": [
                        "0x1c411e9a96e071241c2f21f7726b17ae89e3cab4c78be50e062b03a9fffbbad1"
                    ]
                },
                "nodeType": 1
            },
            "19": {
                "event": {
                    "contract": "0xca9c4cc09e901f4d2aa072ed1aa95dcbe3a7a8e5",
                    "decodedLog": {
                        "name": "Swap",
                        "params": [
                            {
                                "name": "sender",
                                "type": "address",
                                "value": "0xeb5d3a91b5e721fa251e03bda2c9578e90f30f84"
                            },
                            {
                                "name": "to",
                                "type": "address",
                                "value": "0xeb5d3a91b5e721fa251e03bda2c9578e90f30f84"
                            },
                            {
                                "name": "amount0In",
                                "type": "uint256",
                                "value": "0"
                            },
                            {
                                "name": "amount1In",
                                "type": "uint256",
                                "value": "1,640,508,002,366,754,867"
                            },
                            {
                                "name": "amount0Out",
                                "type": "uint256",
                                "value": "85,125,224"
                            },
                            {
                                "name": "amount1Out",
                                "type": "uint256",
                                "value": "0"
                            }
                        ],
                        "signature": "Swap(address,uint256,uint256,uint256,uint256,address)"
                    },
                    "id": 19,
                    "logData": "0x000000000000000000000000000000000000000000000000000000000000000000000000000000000000000000000000000000000000000016c441561c419033000000000000000000000000000000000000000000000000000000000512e8680000000000000000000000000000000000000000000000000000000000000000",
                    "logDecoded": true,
                    "operation": "EVENT",
                    "revert": false,
                    "status": true,
                    "topics": [
                        "0xd78ad95fa46c994b6551d0da85fc275fe613ce37657fb8d5e3d130840159d822",
                        "0x000000000000000000000000eb5d3a91b5e721fa251e03bda2c9578e90f30f84",
                        "0x000000000000000000000000eb5d3a91b5e721fa251e03bda2c9578e90f30f84"
                    ]
                },
                "nodeType": 1
            },
            "2": {
                "invocation": {
                    "address": "0xca9c4cc09e901f4d2aa072ed1aa95dcbe3a7a8e5",
                    "callData": "0x",
                    "decodedMethod": {
                        "callParams": [],
                        "constructorArguments": "",
                        "name": "getReserves",
                        "returnParams": [
                            {
                                "name": "_reserve0",
                                "type": "uint112",
                                "value": "3,927,991,524"
                            },
                            {
                                "name": "_reserve1",
                                "type": "uint112",
                                "value": "73,836,400,560,399,473,381"
                            },
                            {
                                "name": "_blockTimestampLast",
                                "type": "uint32",
                                "value": "1,605,818,366"
                            }
                        ],
                        "signature": "getReserves()"
                    },
                    "errorInfo": "",
                    "fromAddress": "0xeb5d3a91b5e721fa251e03bda2c9578e90f30f84",
                    "gasUsed": 1204,
                    "id": 2,
                    "methodDecoded": true,
                    "operation": "STATICCALL",
                    "output": "0x00000000000000000000000000000000000000000000000000000000ea2064e400000000000000000000000000000000000000000000000400af971b90105ae5000000000000000000000000000000000000000000000000000000005fb6d7fe",
                    "revert": false,
                    "revertMessage": "",
                    "selector": "0x0902f1ac",
                    "status": true,
                    "value": "0"
                },
                "nodeType": 0
            },
            "20": {
                "invocation": {
                    "address": "0x27054b13b1b798b345b591a4d22e6562d47ea75a",
                    "callData": "0x000000000000000000000000eb5d3a91b5e721fa251e03bda2c9578e90f30f8400000000000000000000000039ee0f29253017d69909b7286caf8c080e9d6da2",
                    "decodedMethod": {
                        "callParams": [
                            {
                                "name": "_owner",
                                "type": "address",
                                "value": "0xeb5d3a91b5e721fa251e03bda2c9578e90f30f84"
                            },
                            {
                                "name": "_spender",
                                "type": "address",
                                "value": "0x39ee0f29253017d69909b7286caf8c080e9d6da2"
                            }
                        ],
                        "constructorArguments": "",
                        "name": "allowance",
                        "returnParams": [
                            {
                                "decimalAvailable": true,
                                "name": "remaining",
                                "type": "uint256",
                                "value": "0"
                            }
                        ],
                        "signature": "allowance(address,address)"
                    },
                    "errorInfo": "",
                    "fromAddress": "0xeb5d3a91b5e721fa251e03bda2c9578e90f30f84",
                    "gasUsed": 1578,
                    "id": 20,
                    "methodDecoded": true,
                    "operation": "STATICCALL",
                    "output": "0x0000000000000000000000000000000000000000000000000000000000000000",
                    "revert": false,
                    "revertMessage": "",
                    "selector": "0xdd62ed3e",
                    "status": true,
                    "value": "0"
                },
                "nodeType": 0
            },
            "21": {
                "invocation": {
                    "address": "0x27054b13b1b798b345b591a4d22e6562d47ea75a",
                    "callData": "0x00000000000000000000000039ee0f29253017d69909b7286caf8c080e9d6da2000000000000000000000000000000000000000000000000000000000512e868",
                    "decodedMethod": {
                        "callParams": [
                            {
                                "name": "_spender",
                                "type": "address",
                                "value": "0x39ee0f29253017d69909b7286caf8c080e9d6da2"
                            },
                            {
                                "decimalAvailable": true,
                                "name": "_value",
                                "type": "uint256",
                                "value": "85,125,224"
                            }
                        ],
                        "constructorArguments": "",
                        "name": "approve",
                        "returnParams": [
                            {
                                "name": "success",
                                "type": "bool",
                                "value": true
                            }
                        ],
                        "signature": "approve(address,uint256)"
                    },
                    "errorInfo": "",
                    "fromAddress": "0xeb5d3a91b5e721fa251e03bda2c9578e90f30f84",
                    "gasUsed": 22317,
                    "id": 21,
                    "methodDecoded": true,
                    "operation": "CALL",
                    "output": "0x0000000000000000000000000000000000000000000000000000000000000001",
                    "revert": false,
                    "revertMessage": "",
                    "selector": "0x095ea7b3",
                    "status": true,
                    "value": "0"
                },
                "nodeType": 0
            },
            "22": {
                "event": {
                    "contract": "0x27054b13b1b798b345b591a4d22e6562d47ea75a",
                    "decodedLog": {
                        "name": "Approval",
                        "params": [
                            {
                                "name": "_owner",
                                "type": "address",
                                "value": "0xeb5d3a91b5e721fa251e03bda2c9578e90f30f84"
                            },
                            {
                                "name": "_spender",
                                "type": "address",
                                "value": "0x39ee0f29253017d69909b7286caf8c080e9d6da2"
                            },
                            {
                                "decimalAvailable": true,
                                "name": "_value",
                                "type": "uint256",
                                "value": "85,125,224"
                            }
                        ],
                        "signature": "Approval(address,address,uint256)"
                    },
                    "id": 22,
                    "logData": "0x000000000000000000000000000000000000000000000000000000000512e868",
                    "logDecoded": true,
                    "operation": "EVENT",
                    "revert": false,
                    "status": true,
                    "topics": [
                        "0x8c5be1e5ebec7d5bd14f71427d1e84f3dd0314c0f7b2291e5b200ac8c7c3b925",
                        "0x000000000000000000000000eb5d3a91b5e721fa251e03bda2c9578e90f30f84",
                        "0x00000000000000000000000039ee0f29253017d69909b7286caf8c080e9d6da2"
                    ]
                },
                "nodeType": 1
            },
            "23": {
                "invocation": {
                    "address": "0x39ee0f29253017d69909b7286caf8c080e9d6da2",
                    "callData": "0x00000000000000000000000027054b13b1b798b345b591a4d22e6562d47ea75a000000000000000000000000000000000000000000000000000000000512e868000000000000000000000000c02aaa39b223fe8d0a0e5c4f27ead9083c756cc200000000000000000000000000000000000000000000000000000000000000000000000000000000100000000000000000000000000000000000000000000000",
                    "decodedMethod": {
                        "callParams": [
                            {
                                "name": "tokenIn",
                                "type": "address",
                                "value": "0x27054b13b1b798b345b591a4d22e6562d47ea75a"
                            },
                            {
                                "name": "tokenAmountIn",
                                "type": "uint256",
                                "value": "85,125,224"
                            },
                            {
                                "name": "tokenOut",
                                "type": "address",
                                "value": "0xc02aaa39b223fe8d0a0e5c4f27ead9083c756cc2"
                            },
                            {
                                "name": "minAmountOut",
                                "type": "uint256",
                                "value": "0"
                            },
                            {
                                "name": "maxPrice",
                                "type": "uint256",
                                "value": "392,318,858,461,667,547,739,736,838,950,479,151,006,397,215,279,002,157,056"
                            }
                        ],
                        "constructorArguments": "",
                        "name": "swapExactAmountIn",
                        "returnParams": [
                            {
                                "name": "tokenAmountOut",
                                "type": "uint256",
                                "value": "1,681,448,359,572,848,565"
                            },
                            {
                                "name": "spotPriceAfter",
                                "type": "uint256",
                                "value": "50,764,866"
                            }
                        ],
                        "signature": "swapExactAmountIn(address,uint256,address,uint256,uint256)"
                    },
                    "errorInfo": "",
                    "fromAddress": "0xeb5d3a91b5e721fa251e03bda2c9578e90f30f84",
                    "gasUsed": 91240,
                    "id": 23,
                    "methodDecoded": true,
                    "operation": "CALL",
                    "output": "0x0000000000000000000000000000000000000000000000001755b45fd480bfb50000000000000000000000000000000000000000000000000000000003069c42",
                    "revert": false,
                    "revertMessage": "",
                    "selector": "0x8201aa3f",
                    "status": true,
                    "value": "0"
                },
                "nodeType": 0
            },
            "24": {
                "event": {
                    "contract": "0x39ee0f29253017d69909b7286caf8c080e9d6da2",
                    "decodedLog": null,
                    "id": 24,
                    "logData": "0x000000000000000000000000000000000000000000000000000000000000002000000000000000000000000000000000000000000000000000000000000000a48201aa3f00000000000000000000000027054b13b1b798b345b591a4d22e6562d47ea75a000000000000000000000000000000000000000000000000000000000512e868000000000000000000000000c02aaa39b223fe8d0a0e5c4f27ead9083c756cc20000000000000000000000000000000000000000000000000000000000000000000000000000000010000000000000000000000000000000000000000000000000000000000000000000000000000000000000000000000000000000",
                    "logDecoded": false,
                    "operation": "EVENT",
                    "revert": false,
                    "status": true,
                    "topics": [
                        "0x8201aa3f00000000000000000000000000000000000000000000000000000000",
                        "0x000000000000000000000000eb5d3a91b5e721fa251e03bda2c9578e90f30f84"
                    ]
                },
                "nodeType": 1
            },
            "25": {
                "event": {
                    "contract": "0x39ee0f29253017d69909b7286caf8c080e9d6da2",
                    "decodedLog": {
                        "name": "LOG_SWAP",
                        "params": [
                            {
                                "name": "caller",
                                "type": "address",
                                "value": "0xeb5d3a91b5e721fa251e03bda2c9578e90f30f84"
                            },
                            {
                                "name": "tokenIn",
                                "type": "address",
                                "value": "0x27054b13b1b798b345b591a4d22e6562d47ea75a"
                            },
                            {
                                "name": "tokenOut",
                                "type": "address",
                                "value": "0xc02aaa39b223fe8d0a0e5c4f27ead9083c756cc2"
                            },
                            {
                                "name": "tokenAmountIn",
                                "type": "uint256",
                                "value": "85,125,224"
                            },
                            {
                                "name": "tokenAmountOut",
                                "type": "uint256",
                                "value": "1,681,448,359,572,848,565"
                            }
                        ],
                        "signature": "LOG_SWAP(address,address,address,uint256,uint256)"
                    },
                    "id": 25,
                    "logData": "0x000000000000000000000000000000000000000000000000000000000512e8680000000000000000000000000000000000000000000000001755b45fd480bfb5",
                    "logDecoded": true,
                    "operation": "EVENT",
                    "revert": false,
                    "status": true,
                    "topics": [
                        "0x908fb5ee8f16c6bc9bc3690973819f32a4d4b10188134543c88706e0e1d43378",
                        "0x000000000000000000000000eb5d3a91b5e721fa251e03bda2c9578e90f30f84",
                        "0x00000000000000000000000027054b13b1b798b345b591a4d22e6562d47ea75a",
                        "0x000000000000000000000000c02aaa39b223fe8d0a0e5c4f27ead9083c756cc2"
                    ]
                },
                "nodeType": 1
            },
            "26": {
                "invocation": {
                    "address": "0x27054b13b1b798b345b591a4d22e6562d47ea75a",
                    "callData": "0x000000000000000000000000eb5d3a91b5e721fa251e03bda2c9578e90f30f8400000000000000000000000039ee0f29253017d69909b7286caf8c080e9d6da2000000000000000000000000000000000000000000000000000000000512e868",
                    "decodedMethod": {
                        "callParams": [
                            {
                                "name": "_from",
                                "type": "address",
                                "value": "0xeb5d3a91b5e721fa251e03bda2c9578e90f30f84"
                            },
                            {
                                "name": "_to",
                                "type": "address",
                                "value": "0x39ee0f29253017d69909b7286caf8c080e9d6da2"
                            },
                            {
                                "decimalAvailable": true,
                                "name": "_value",
                                "type": "uint256",
                                "value": "85,125,224"
                            }
                        ],
                        "constructorArguments": "",
                        "name": "transferFrom",
                        "returnParams": [
                            {
                                "name": "success",
                                "type": "bool",
                                "value": true
                            }
                        ],
                        "signature": "transferFrom(address,address,uint256)"
                    },
                    "errorInfo": "",
                    "fromAddress": "0x39ee0f29253017d69909b7286caf8c080e9d6da2",
                    "gasUsed": 19991,
                    "id": 26,
                    "methodDecoded": true,
                    "operation": "CALL",
                    "output": "0x0000000000000000000000000000000000000000000000000000000000000001",
                    "revert": false,
                    "revertMessage": "",
                    "selector": "0x23b872dd",
                    "status": true,
                    "value": "0"
                },
                "nodeType": 0
            },
            "27": {
                "event": {
                    "contract": "0x27054b13b1b798b345b591a4d22e6562d47ea75a",
                    "decodedLog": {
                        "name": "Transfer",
                        "params": [
                            {
                                "name": "_from",
                                "type": "address",
                                "value": "0xeb5d3a91b5e721fa251e03bda2c9578e90f30f84"
                            },
                            {
                                "name": "_to",
                                "type": "address",
                                "value": "0x39ee0f29253017d69909b7286caf8c080e9d6da2"
                            },
                            {
                                "decimalAvailable": true,
                                "name": "_value",
                                "type": "uint256",
                                "value": "85,125,224"
                            }
                        ],
                        "signature": "Transfer(address,address,uint256)"
                    },
                    "id": 27,
                    "logData": "0x000000000000000000000000000000000000000000000000000000000512e868",
                    "logDecoded": true,
                    "operation": "EVENT",
                    "revert": false,
                    "status": true,
                    "topics": [
                        "0xddf252ad1be2c89b69c2b068fc378daa952ba7f163c4a11628f55a4df523b3ef",
                        "0x000000000000000000000000eb5d3a91b5e721fa251e03bda2c9578e90f30f84",
                        "0x00000000000000000000000039ee0f29253017d69909b7286caf8c080e9d6da2"
                    ]
                },
                "nodeType": 1
            },
            "28": {
                "invocation": {
                    "address": "0xc02aaa39b223fe8d0a0e5c4f27ead9083c756cc2",
                    "callData": "0x000000000000000000000000eb5d3a91b5e721fa251e03bda2c9578e90f30f840000000000000000000000000000000000000000000000001755b45fd480bfb5",
                    "decodedMethod": {
                        "callParams": [
                            {
                                "name": "dst",
                                "type": "address",
                                "value": "0xeb5d3a91b5e721fa251e03bda2c9578e90f30f84"
                            },
                            {
                                "decimalAvailable": true,
                                "name": "wad",
                                "type": "uint256",
                                "value": "1,681,448,359,572,848,565"
                            }
                        ],
                        "constructorArguments": "",
                        "name": "transfer",
                        "returnParams": [
                            {
                                "name": "",
                                "type": "bool",
                                "value": true
                            }
                        ],
                        "signature": "transfer(address,uint256)"
                    },
                    "errorInfo": "",
                    "fromAddress": "0x39ee0f29253017d69909b7286caf8c080e9d6da2",
                    "gasUsed": 15162,
                    "id": 28,
                    "methodDecoded": true,
                    "operation": "CALL",
                    "output": "0x0000000000000000000000000000000000000000000000000000000000000001",
                    "revert": false,
                    "revertMessage": "",
                    "selector": "0xa9059cbb",
                    "status": true,
                    "value": "0"
                },
                "nodeType": 0
            },
            "29": {
                "event": {
                    "contract": "0xc02aaa39b223fe8d0a0e5c4f27ead9083c756cc2",
                    "decodedLog": {
                        "name": "Transfer",
                        "params": [
                            {
                                "name": "src",
                                "type": "address",
                                "value": "0x39ee0f29253017d69909b7286caf8c080e9d6da2"
                            },
                            {
                                "name": "dst",
                                "type": "address",
                                "value": "0xeb5d3a91b5e721fa251e03bda2c9578e90f30f84"
                            },
                            {
                                "decimalAvailable": true,
                                "name": "wad",
                                "type": "uint256",
                                "value": "1,681,448,359,572,848,565"
                            }
                        ],
                        "signature": "Transfer(address,address,uint256)"
                    },
                    "id": 29,
                    "logData": "0x0000000000000000000000000000000000000000000000001755b45fd480bfb5",
                    "logDecoded": true,
                    "operation": "EVENT",
                    "revert": false,
                    "status": true,
                    "topics": [
                        "0xddf252ad1be2c89b69c2b068fc378daa952ba7f163c4a11628f55a4df523b3ef",
                        "0x00000000000000000000000039ee0f29253017d69909b7286caf8c080e9d6da2",
                        "0x000000000000000000000000eb5d3a91b5e721fa251e03bda2c9578e90f30f84"
                    ]
                },
                "nodeType": 1
            },
            "3": {
                "invocation": {
                    "address": "0x39ee0f29253017d69909b7286caf8c080e9d6da2",
                    "callData": "0x00000000000000000000000027054b13b1b798b345b591a4d22e6562d47ea75a",
                    "decodedMethod": {
                        "callParams": [
                            {
                                "name": "token",
                                "type": "address",
                                "value": "0x27054b13b1b798b345b591a4d22e6562d47ea75a"
                            }
                        ],
                        "constructorArguments": "",
                        "name": "getBalance",
                        "returnParams": [
                            {
                                "name": "",
                                "type": "uint256",
                                "value": "51,604,202,742"
                            }
                        ],
                        "signature": "getBalance(address)"
                    },
                    "errorInfo": "",
                    "fromAddress": "0xeb5d3a91b5e721fa251e03bda2c9578e90f30f84",
                    "gasUsed": 2991,
                    "id": 3,
                    "methodDecoded": true,
                    "operation": "STATICCALL",
                    "output": "0x0000000000000000000000000000000000000000000000000000000c03d9a4f6",
                    "revert": false,
                    "revertMessage": "",
                    "selector": "0xf8b2cb4f",
                    "status": true,
                    "value": "0"
                },
                "nodeType": 0
            },
            "30": {
                "invocation": {
                    "address": "0xc02aaa39b223fe8d0a0e5c4f27ead9083c756cc2",
                    "callData": "0x0000000000000000000000000000000000000000000000001755b45fd480bfb5",
                    "decodedMethod": {
                        "callParams": [
                            {
                                "name": "wad",
                                "type": "uint256",
                                "value": "1,681,448,359,572,848,565"
                            }
                        ],
                        "constructorArguments": "",
                        "name": "withdraw",
                        "returnParams": [],
                        "signature": "withdraw(uint256)"
                    },
                    "errorInfo": "",
                    "fromAddress": "0xeb5d3a91b5e721fa251e03bda2c9578e90f30f84",
                    "gasUsed": 11895,
                    "id": 30,
                    "methodDecoded": true,
                    "operation": "CALL",
                    "output": "",
                    "revert": false,
                    "revertMessage": "",
                    "selector": "0x2e1a7d4d",
                    "status": true,
                    "value": "0"
                },
                "nodeType": 0
            },
            "31": {
                "invocation": {
                    "address": "0xeb5d3a91b5e721fa251e03bda2c9578e90f30f84",
                    "callData": "0x",
                    "decodedMethod": null,
                    "errorInfo": "",
                    "fromAddress": "0xc02aaa39b223fe8d0a0e5c4f27ead9083c756cc2",
                    "gasUsed": 55,
                    "id": 31,
                    "methodDecoded": false,
                    "operation": "CALL",
                    "output": "",
                    "revert": false,
                    "revertMessage": "",
                    "selector": "fallback",
                    "status": true,
                    "value": "1.681448359572848565"
                },
                "nodeType": 0
            },
            "32": {
                "event": {
                    "contract": "0xc02aaa39b223fe8d0a0e5c4f27ead9083c756cc2",
                    "decodedLog": {
                        "name": "Withdrawal",
                        "params": [
                            {
                                "name": "src",
                                "type": "address",
                                "value": "0xeb5d3a91b5e721fa251e03bda2c9578e90f30f84"
                            },
                            {
                                "name": "wad",
                                "type": "uint256",
                                "value": "1,681,448,359,572,848,565"
                            }
                        ],
                        "signature": "Withdrawal(address,uint256)"
                    },
                    "id": 32,
                    "logData": "0x0000000000000000000000000000000000000000000000001755b45fd480bfb5",
                    "logDecoded": true,
                    "operation": "EVENT",
                    "revert": false,
                    "status": true,
                    "topics": [
                        "0x7fcf532c15f0a6db0bd6d0e038bea71d30d808c7d98cb3bf7268a95bf5081b65",
                        "0x000000000000000000000000eb5d3a91b5e721fa251e03bda2c9578e90f30f84"
                    ]
                },
                "nodeType": 1
            },
            "4": {
                "invocation": {
                    "address": "0x39ee0f29253017d69909b7286caf8c080e9d6da2",
                    "callData": "0x00000000000000000000000027054b13b1b798b345b591a4d22e6562d47ea75a",
                    "decodedMethod": {
                        "callParams": [
                            {
                                "name": "token",
                                "type": "address",
                                "value": "0x27054b13b1b798b345b591a4d22e6562d47ea75a"
                            }
                        ],
                        "constructorArguments": "",
                        "name": "getDenormalizedWeight",
                        "returnParams": [
                            {
                                "name": "",
                                "type": "uint256",
                                "value": "7,000,000,000,000,000,000"
                            }
                        ],
                        "signature": "getDenormalizedWeight(address)"
                    },
                    "errorInfo": "",
                    "fromAddress": "0xeb5d3a91b5e721fa251e03bda2c9578e90f30f84",
                    "gasUsed": 2971,
                    "id": 4,
                    "methodDecoded": true,
                    "operation": "STATICCALL",
                    "output": "0x0000000000000000000000000000000000000000000000006124fee993bc0000",
                    "revert": false,
                    "revertMessage": "",
                    "selector": "0x948d8ce6",
                    "status": true,
                    "value": "0"
                },
                "nodeType": 0
            },
            "5": {
                "invocation": {
                    "address": "0x39ee0f29253017d69909b7286caf8c080e9d6da2",
                    "callData": "0x000000000000000000000000c02aaa39b223fe8d0a0e5c4f27ead9083c756cc2",
                    "decodedMethod": {
                        "callParams": [
                            {
                                "name": "token",
                                "type": "address",
                                "value": "0xc02aaa39b223fe8d0a0e5c4f27ead9083c756cc2"
                            }
                        ],
                        "constructorArguments": "",
                        "name": "getBalance",
                        "returnParams": [
                            {
                                "name": "",
                                "type": "uint256",
                                "value": "442,420,763,304,535,855,615"
                            }
                        ],
                        "signature": "getBalance(address)"
                    },
                    "errorInfo": "",
                    "fromAddress": "0xeb5d3a91b5e721fa251e03bda2c9578e90f30f84",
                    "gasUsed": 2991,
                    "id": 5,
                    "methodDecoded": true,
                    "operation": "STATICCALL",
                    "output": "0x000000000000000000000000000000000000000000000017fbd24c2e080911ff",
                    "revert": false,
                    "revertMessage": "",
                    "selector": "0xf8b2cb4f",
                    "status": true,
                    "value": "0"
                },
                "nodeType": 0
            },
            "6": {
                "invocation": {
                    "address": "0x39ee0f29253017d69909b7286caf8c080e9d6da2",
                    "callData": "0x000000000000000000000000c02aaa39b223fe8d0a0e5c4f27ead9083c756cc2",
                    "decodedMethod": {
                        "callParams": [
                            {
                                "name": "token",
                                "type": "address",
                                "value": "0xc02aaa39b223fe8d0a0e5c4f27ead9083c756cc2"
                            }
                        ],
                        "constructorArguments": "",
                        "name": "getDenormalizedWeight",
                        "returnParams": [
                            {
                                "name": "",
                                "type": "uint256",
                                "value": "3,000,000,000,000,000,000"
                            }
                        ],
                        "signature": "getDenormalizedWeight(address)"
                    },
                    "errorInfo": "",
                    "fromAddress": "0xeb5d3a91b5e721fa251e03bda2c9578e90f30f84",
                    "gasUsed": 2971,
                    "id": 6,
                    "methodDecoded": true,
                    "operation": "STATICCALL",
                    "output": "0x00000000000000000000000000000000000000000000000029a2241af62c0000",
                    "revert": false,
                    "revertMessage": "",
                    "selector": "0x948d8ce6",
                    "status": true,
                    "value": "0"
                },
                "nodeType": 0
            },
            "7": {
                "invocation": {
                    "address": "0x39ee0f29253017d69909b7286caf8c080e9d6da2",
                    "callData": "0x",
                    "decodedMethod": {
                        "callParams": [],
                        "constructorArguments": "",
                        "name": "getSwapFee",
                        "returnParams": [
                            {
                                "name": "",
                                "type": "uint256",
                                "value": "9,900,000,000,000,000"
                            }
                        ],
                        "signature": "getSwapFee()"
                    },
                    "errorInfo": "",
                    "fromAddress": "0xeb5d3a91b5e721fa251e03bda2c9578e90f30f84",
                    "gasUsed": 1976,
                    "id": 7,
                    "methodDecoded": true,
                    "operation": "STATICCALL",
                    "output": "0x00000000000000000000000000000000000000000000000000232bff5f46c000",
                    "revert": false,
                    "revertMessage": "",
                    "selector": "0xd4cadf68",
                    "status": true,
                    "value": "0"
                },
                "nodeType": 0
            },
            "8": {
                "invocation": {
                    "address": "0x39ee0f29253017d69909b7286caf8c080e9d6da2",
                    "callData": "0x0000000000000000000000000000000000000000000000000000000c03d9a4f60000000000000000000000000000000000000000000000006124fee993bc0000000000000000000000000000000000000000000000000017fbd24c2e080911ff00000000000000000000000000000000000000000000000029a2241af62c0000000000000000000000000000000000000000000000000000000000000512e86800000000000000000000000000000000000000000000000000232bff5f46c000",
                    "decodedMethod": {
                        "callParams": [
                            {
                                "name": "tokenBalanceIn",
                                "type": "uint256",
                                "value": "51,604,202,742"
                            },
                            {
                                "name": "tokenWeightIn",
                                "type": "uint256",
                                "value": "7,000,000,000,000,000,000"
                            },
                            {
                                "name": "tokenBalanceOut",
                                "type": "uint256",
                                "value": "442,420,763,304,535,855,615"
                            },
                            {
                                "name": "tokenWeightOut",
                                "type": "uint256",
                                "value": "3,000,000,000,000,000,000"
                            },
                            {
                                "name": "tokenAmountIn",
                                "type": "uint256",
                                "value": "85,125,224"
                            },
                            {
                                "name": "swapFee",
                                "type": "uint256",
                                "value": "9,900,000,000,000,000"
                            }
                        ],
                        "constructorArguments": "",
                        "name": "calcOutGivenIn",
                        "returnParams": [
                            {
                                "name": "tokenAmountOut",
                                "type": "uint256",
                                "value": "1,681,448,359,572,848,565"
                            }
                        ],
                        "signature": "calcOutGivenIn(uint256,uint256,uint256,uint256,uint256,uint256)"
                    },
                    "errorInfo": "",
                    "fromAddress": "0xeb5d3a91b5e721fa251e03bda2c9578e90f30f84",
                    "gasUsed": 8186,
                    "id": 8,
                    "methodDecoded": true,
                    "operation": "STATICCALL",
                    "output": "0x0000000000000000000000000000000000000000000000001755b45fd480bfb5",
                    "revert": false,
                    "revertMessage": "",
                    "selector": "0xba9530a6",
                    "status": true,
                    "value": "0"
                },
                "nodeType": 0
            },
            "9": {
                "invocation": {
                    "address": "0xc02aaa39b223fe8d0a0e5c4f27ead9083c756cc2",
                    "callData": "0x",
                    "decodedMethod": {
                        "callParams": [],
                        "constructorArguments": "",
                        "name": "deposit",
                        "returnParams": [],
                        "signature": "deposit()"
                    },
                    "errorInfo": "",
                    "fromAddress": "0xeb5d3a91b5e721fa251e03bda2c9578e90f30f84",
                    "gasUsed": 7674,
                    "id": 9,
                    "methodDecoded": true,
                    "operation": "CALL",
                    "output": "",
                    "revert": false,
                    "revertMessage": "",
                    "selector": "0xd0e30db0",
                    "status": true,
                    "value": "1.640508002366754867"
                },
                "nodeType": 0
            }
        },
        "gasFlame": [
            {
                "children": [
                    {
                        "children": [
                            {
                                "children": [],
                                "depth": 0,
                                "name": "Initial Gas",
                                "value": 23732
                            },
                            {
                                "children": [
                                    {
                                        "children": [
                                            {
                                                "children": [],
                                                "depth": 2,
                                                "name": "getReserves",
                                                "value": 1204
                                            },
                                            {
                                                "children": [],
                                                "depth": 2,
                                                "name": "getBalance",
                                                "value": 2991
                                            },
                                            {
                                                "children": [],
                                                "depth": 2,
                                                "name": "getDenormalizedWeight",
                                                "value": 2971
                                            },
                                            {
                                                "children": [],
                                                "depth": 2,
                                                "name": "getBalance",
                                                "value": 2991
                                            },
                                            {
                                                "children": [],
                                                "depth": 2,
                                                "name": "getDenormalizedWeight",
                                                "value": 2971
                                            },
                                            {
                                                "children": [],
                                                "depth": 2,
                                                "name": "getSwapFee",
                                                "value": 1976
                                            },
                                            {
                                                "children": [],
                                                "depth": 2,
                                                "name": "calcOutGivenIn",
                                                "value": 8186
                                            },
                                            {
                                                "children": [],
                                                "depth": 2,
                                                "name": "deposit",
                                                "value": 7674
                                            },
                                            {
                                                "children": [],
                                                "depth": 2,
                                                "name": "transfer",
                                                "value": 10962
                                            },
                                            {
                                                "children": [
                                                    {
                                                        "children": [],
                                                        "depth": 3,
                                                        "name": "transfer",
                                                        "value": 35685
                                                    },
                                                    {
                                                        "children": [],
                                                        "depth": 3,
                                                        "name": "balanceOf",
                                                        "value": 1324
                                                    },
                                                    {
                                                        "children": [],
                                                        "depth": 3,
                                                        "name": "balanceOf",
                                                        "value": 1234
                                                    }
                                                ],
                                                "depth": 2,
                                                "name": "swap",
                                                "value": 65250
                                            },
                                            {
                                                "children": [],
                                                "depth": 2,
                                                "name": "allowance",
                                                "value": 1578
                                            },
                                            {
                                                "children": [],
                                                "depth": 2,
                                                "name": "approve",
                                                "value": 22317
                                            },
                                            {
                                                "children": [
                                                    {
                                                        "children": [],
                                                        "depth": 3,
                                                        "name": "transferFrom",
                                                        "value": 19991
                                                    },
                                                    {
                                                        "children": [],
                                                        "depth": 3,
                                                        "name": "transfer",
                                                        "value": 15162
                                                    }
                                                ],
                                                "depth": 2,
                                                "name": "swapExactAmountIn",
                                                "value": 91240
                                            },
                                            {
                                                "children": [
                                                    {
                                                        "children": [],
                                                        "depth": 3,
                                                        "name": "fallback",
                                                        "value": 55
                                                    }
                                                ],
                                                "depth": 2,
                                                "name": "withdraw",
                                                "value": 11895
                                            }
                                        ],
                                        "depth": 1,
                                        "name": "0x6cbe3f76",
                                        "value": 274569
                                    }
                                ],
                                "depth": 0,
                                "name": "Executed Gas",
                                "value": 299641
                            }
                        ],
                        "depth": -1,
                        "name": "Actual Gas Used",
                        "value": 268173
                    },
                    {
                        "children": [],
                        "depth": -1,
                        "name": "Refunded Gas",
                        "value": 55200
                    }
                ],
                "depth": -2,
                "name": "Total Gas",
                "value": 323373
            }
        ],
        "isConfirmed": true,
        "mainTrace": [
            {
                "children": [
                    {
                        "children": [
                            {
                                "children": [
                                    {
                                        "children": [],
                                        "depth": 2,
                                        "id": 2,
                                        "order": 2
                                    },
                                    {
                                        "children": [],
                                        "depth": 2,
                                        "id": 3,
                                        "order": 3
                                    },
                                    {
                                        "children": [],
                                        "depth": 2,
                                        "id": 4,
                                        "order": 4
                                    },
                                    {
                                        "children": [],
                                        "depth": 2,
                                        "id": 5,
                                        "order": 5
                                    },
                                    {
                                        "children": [],
                                        "depth": 2,
                                        "id": 6,
                                        "order": 6
                                    },
                                    {
                                        "children": [],
                                        "depth": 2,
                                        "id": 7,
                                        "order": 7
                                    },
                                    {
                                        "children": [],
                                        "depth": 2,
                                        "id": 8,
                                        "order": 8
                                    },
                                    {
                                        "children": [
                                            {
                                                "children": [],
                                                "depth": 3,
                                                "id": 10,
                                                "order": 10
                                            }
                                        ],
                                        "depth": 2,
                                        "id": 9,
                                        "order": 9
                                    },
                                    {
                                        "children": [
                                            {
                                                "children": [],
                                                "depth": 3,
                                                "id": 12,
                                                "order": 12
                                            }
                                        ],
                                        "depth": 2,
                                        "id": 11,
                                        "order": 11
                                    },
                                    {
                                        "children": [
                                            {
                                                "children": [
                                                    {
                                                        "children": [],
                                                        "depth": 4,
                                                        "id": 15,
                                                        "order": 15
                                                    }
                                                ],
                                                "depth": 3,
                                                "id": 14,
                                                "order": 14
                                            },
                                            {
                                                "children": [],
                                                "depth": 3,
                                                "id": 16,
                                                "order": 16
                                            },
                                            {
                                                "children": [],
                                                "depth": 3,
                                                "id": 17,
                                                "order": 17
                                            },
                                            {
                                                "children": [],
                                                "depth": 3,
                                                "id": 18,
                                                "order": 18
                                            },
                                            {
                                                "children": [],
                                                "depth": 3,
                                                "id": 19,
                                                "order": 19
                                            }
                                        ],
                                        "depth": 2,
                                        "id": 13,
                                        "order": 13
                                    },
                                    {
                                        "children": [],
                                        "depth": 2,
                                        "id": 20,
                                        "order": 20
                                    },
                                    {
                                        "children": [
                                            {
                                                "children": [],
                                                "depth": 3,
                                                "id": 22,
                                                "order": 22
                                            }
                                        ],
                                        "depth": 2,
                                        "id": 21,
                                        "order": 21
                                    },
                                    {
                                        "children": [
                                            {
                                                "children": [],
                                                "depth": 3,
                                                "id": 24,
                                                "order": 24
                                            },
                                            {
                                                "children": [],
                                                "depth": 3,
                                                "id": 25,
                                                "order": 25
                                            },
                                            {
                                                "children": [
                                                    {
                                                        "children": [],
                                                        "depth": 4,
                                                        "id": 27,
                                                        "order": 27
                                                    }
                                                ],
                                                "depth": 3,
                                                "id": 26,
                                                "order": 26
                                            },
                                            {
                                                "children": [
                                                    {
                                                        "children": [],
                                                        "depth": 4,
                                                        "id": 29,
                                                        "order": 29
                                                    }
                                                ],
                                                "depth": 3,
                                                "id": 28,
                                                "order": 28
                                            }
                                        ],
                                        "depth": 2,
                                        "id": 23,
                                        "order": 23
                                    },
                                    {
                                        "children": [
                                            {
                                                "children": [],
                                                "depth": 3,
                                                "id": 31,
                                                "order": 31
                                            },
                                            {
                                                "children": [],
                                                "depth": 3,
                                                "id": 32,
                                                "order": 32
                                            }
                                        ],
                                        "depth": 2,
                                        "id": 30,
                                        "order": 30
                                    }
                                ],
                                "depth": 1,
                                "id": 1,
                                "order": 1
                            }
                        ],
                        "depth": 0,
                        "id": 0,
                        "order": 0
                    }
                ],
                "depth": -1,
                "id": -1,
                "order": -1
            }
        ],
        "mainTraceNodeCount": 33,
        "parentIdMap": {
            "0": -1,
            "1": 0,
            "10": 9,
            "11": 1,
            "12": 11,
            "13": 1,
            "14": 13,
            "15": 14,
            "16": 13,
            "17": 13,
            "18": 13,
            "19": 13,
            "2": 1,
            "20": 1,
            "21": 1,
            "22": 21,
            "23": 1,
            "24": 23,
            "25": 23,
            "26": 23,
            "27": 26,
            "28": 23,
            "29": 28,
            "3": 1,
            "30": 1,
            "31": 30,
            "32": 30,
            "4": 1,
            "5": 1,
            "6": 1,
            "7": 1,
            "8": 1,
            "9": 1
        },
        "tidyTrace": [
            {
                "children": [
                    {
                        "children": [
                            {
                                "children": [
                                    {
                                        "children": [
                                            {
                                                "children": [],
                                                "depth": 3,
                                                "id": 10,
                                                "order": 10
                                            }
                                        ],
                                        "depth": 2,
                                        "id": 9,
                                        "order": 9
                                    },
                                    {
                                        "children": [
                                            {
                                                "children": [],
                                                "depth": 3,
                                                "id": 12,
                                                "order": 12
                                            }
                                        ],
                                        "depth": 2,
                                        "id": 11,
                                        "order": 11
                                    },
                                    {
                                        "children": [
                                            {
                                                "children": [
                                                    {
                                                        "children": [],
                                                        "depth": 4,
                                                        "id": 15,
                                                        "order": 15
                                                    }
                                                ],
                                                "depth": 3,
                                                "id": 14,
                                                "order": 14
                                            },
                                            {
                                                "children": [],
                                                "depth": 3,
                                                "id": 18,
                                                "order": 18
                                            },
                                            {
                                                "children": [],
                                                "depth": 3,
                                                "id": 19,
                                                "order": 19
                                            }
                                        ],
                                        "depth": 2,
                                        "id": 13,
                                        "order": 13
                                    },
                                    {
                                        "children": [
                                            {
                                                "children": [],
                                                "depth": 3,
                                                "id": 22,
                                                "order": 22
                                            }
                                        ],
                                        "depth": 2,
                                        "id": 21,
                                        "order": 21
                                    },
                                    {
                                        "children": [
                                            {
                                                "children": [],
                                                "depth": 3,
                                                "id": 24,
                                                "order": 24
                                            },
                                            {
                                                "children": [],
                                                "depth": 3,
                                                "id": 25,
                                                "order": 25
                                            },
                                            {
                                                "children": [
                                                    {
                                                        "children": [],
                                                        "depth": 4,
                                                        "id": 27,
                                                        "order": 27
                                                    }
                                                ],
                                                "depth": 3,
                                                "id": 26,
                                                "order": 26
                                            },
                                            {
                                                "children": [
                                                    {
                                                        "children": [],
                                                        "depth": 4,
                                                        "id": 29,
                                                        "order": 29
                                                    }
                                                ],
                                                "depth": 3,
                                                "id": 28,
                                                "order": 28
                                            }
                                        ],
                                        "depth": 2,
                                        "id": 23,
                                        "order": 23
                                    },
                                    {
                                        "children": [
                                            {
                                                "children": [],
                                                "depth": 3,
                                                "id": 31,
                                                "order": 31
                                            },
                                            {
                                                "children": [],
                                                "depth": 3,
                                                "id": 32,
                                                "order": 32
                                            }
                                        ],
                                        "depth": 2,
                                        "id": 30,
                                        "order": 30
                                    }
                                ],
                                "depth": 1,
                                "id": 1,
                                "order": 1
                            }
                        ],
                        "depth": 0,
                        "id": 0,
                        "order": 0
                    }
                ],
                "depth": -1,
                "id": -1,
                "order": -1
            }
        ],
        "tidyTraceNodeCount": 23
    },
    "state_change": {
        "stateChanges": [
            {
                "address": "0x27054b13b1b798b345b591a4d22e6562d47ea75a",
                "erc": "ERC-20",
                "slots": [
                    {
                        "current": "0x00000000000000000000000000000000000000000000000000000000e50d7c7c",
                        "key": "0x2277931866537dd40cc4c32e3b05a547cbdab145b5523bb362792d0a52fb684c",
                        "prev": "0x00000000000000000000000000000000000000000000000000000000ea2064e4"
                    },
                    {
                        "current": "0x0000000000000000000000000000000000000000000000000000000c08ec8d5e",
                        "key": "0x483f03594844a7fe66face7391b0851d02ab8bcc77cdf143dfebf755c19ca881",
                        "prev": "0x0000000000000000000000000000000000000000000000000000000c03d9a4f6"
                    }
                ],
                "storageVariables": [
                    {
                        "name": "balances",
                        "type": "mapping(address => uint256)",
                        "value": {
                            "pairs": [
                                {
                                    "key": "0x39ee0f29253017d69909b7286caf8c080e9d6da2",
                                    "value": {
                                        "current": "51689327966",
                                        "prev": "51604202742",
                                        "typeTag": 1
                                    }
                                },
                                {
                                    "key": "0xca9c4cc09e901f4d2aa072ed1aa95dcbe3a7a8e5",
                                    "value": {
                                        "current": "3842866300",
                                        "prev": "3927991524",
                                        "typeTag": 1
                                    }
                                }
                            ],
                            "typeTag": 4
                        }
                    }
                ]
            },
            {
                "address": "0x39ee0f29253017d69909b7286caf8c080e9d6da2",
                "erc": "ERC-20",
                "slots": [
                    {
                        "current": "0x000000000000000000000000000000000000000000000017e47c97ce3388524a",
                        "key": "0xd0bcf4df132c65dad73803c5e5e1c826f151a3342680034a8a4c8e5f8eb0c13f",
                        "prev": "0x000000000000000000000000000000000000000000000017fbd24c2e080911ff"
                    },
                    {
                        "current": "0x0000000000000000000000000000000000000000000000000000000c08ec8d5e",
                        "key": "0xcd7ace1708ce2fb1993834237ec07d0bb796e02b0f51ee8e780e9ee0221dd049",
                        "prev": "0x0000000000000000000000000000000000000000000000000000000c03d9a4f6"
                    }
                ],
                "storageVariables": [
                    {
                        "name": "_records",
                        "type": "mapping(address => struct BPool.Record)",
                        "value": {
                            "pairs": [
                                {
                                    "key": "0x27054b13b1b798b345b591a4d22e6562d47ea75a",
                                    "value": {
                                        "fields": [
                                            {
                                                "name": "balance",
                                                "type": "uint256",
                                                "value": {
                                                    "current": "51689327966",
                                                    "prev": "51604202742",
                                                    "typeTag": 1
                                                }
                                            }
                                        ],
                                        "typeTag": 3
                                    }
                                },
                                {
                                    "key": "0xc02aaa39b223fe8d0a0e5c4f27ead9083c756cc2",
                                    "value": {
                                        "fields": [
                                            {
                                                "name": "balance",
                                                "type": "uint256",
                                                "value": {
                                                    "current": "440739314944963007050",
                                                    "prev": "442420763304535855615",
                                                    "typeTag": 1
                                                }
                                            }
                                        ],
                                        "typeTag": 3
                                    }
                                }
                            ],
                            "typeTag": 4
                        }
                    }
                ]
            },
            {
                "address": "0xc02aaa39b223fe8d0a0e5c4f27ead9083c756cc2",
                "erc": "ERC-20",
                "slots": [
                    {
                        "current": "0x000000000000000000000000000000000000000000000017e47c97ce3388524a",
                        "key": "0xf2c80cedc8f13bbd71166cba49975b3ae46385c5693b78465fb74856eb7ee58f",
                        "prev": "0x000000000000000000000000000000000000000000000017fbd24c2e080911ff"
                    },
                    {
                        "current": "0x0000000000000000000000000000000000000000000000041773d871ac51eb18",
                        "key": "0x2df45f4fc7ac7c87b86fd51f20ff23f4dcb2d170d4fbcaf7c7bb05f594306ab1",
                        "prev": "0x00000000000000000000000000000000000000000000000400af971b90105ae5"
                    }
                ],
                "storageVariables": [
                    {
                        "name": "balanceOf",
                        "type": "mapping(address => uint256)",
                        "value": {
                            "pairs": [
                                {
                                    "key": "0x39ee0f29253017d69909b7286caf8c080e9d6da2",
                                    "value": {
                                        "current": "440739314944963007050",
                                        "prev": "442420763304535855615",
                                        "typeTag": 1
                                    }
                                },
                                {
                                    "key": "0xca9c4cc09e901f4d2aa072ed1aa95dcbe3a7a8e5",
                                    "value": {
                                        "current": "75476908562766228248",
                                        "prev": "73836400560399473381",
                                        "typeTag": 1
                                    }
                                }
                            ],
                            "typeTag": 4
                        }
                    }
                ]
            },
            {
                "address": "0xca9c4cc09e901f4d2aa072ed1aa95dcbe3a7a8e5",
                "erc": "ERC-20",
                "slots": [
                    {
                        "current": "0x5fb6d7fe0000000000041773d871ac51eb1800000000000000000000e50d7c7c",
                        "key": "0x0000000000000000000000000000000000000000000000000000000000000008",
                        "prev": "0x5fb6d7fe00000000000400af971b90105ae500000000000000000000ea2064e4"
                    }
                ],
                "storageVariables": [
                    {
                        "name": "reserve0",
                        "type": "uint112",
                        "value": {
                            "current": "3842866300",
                            "prev": "3927991524",
                            "typeTag": 1
                        }
                    },
                    {
                        "name": "reserve1",
                        "type": "uint112",
                        "value": {
                            "current": "75476908562766228248",
                            "prev": "73836400560399473381",
                            "typeTag": 1
                        }
                    },
                    {
                        "name": "blockTimestampLast",
                        "type": "uint32",
                        "value": {
                            "current": "1605818366",
                            "prev": "1605818366",
                            "typeTag": 1
                        }
                    }
                ]
            },
            {
                "address": "0xeb5d3a91b5e721fa251e03bda2c9578e90f30f84",
                "erc": "",
                "slots": [
                    {
                        "current": "0x0000000000000000000000000000000000000000000000000000000000000001",
                        "key": "0x9024ec64072dbcc5acf4cab101069dc129d89b5934872f7920505a2732f47ff7",
                        "prev": "0x0000000000000000000000000000000000000000000000000000000000000000"
                    }
                ],
                "storageVariables": []
            }
        ]
    }
}