{
    "balance_change": {
        "balanceChanges": [
            {
                "account": "0xeea09451bf9ba4dfa849455b3bcdef3c849ef854",
                "assets": [
                    {
                        "address": "0xba51ff3802aa3170ce7ac7ac001831ca3eb6eeea",
                        "amount": "15",
                        "iconUrl": "",
                        "isERC1155": false,
                        "isERC721": false,
                        "sign": false,
                        "value": ""
                    }
                ]
            },
            {
                "account": "0x1bb185e589f97ab81a105279cfda92102762fd79",
                "assets": [
                    {
                        "address": "0xba51ff3802aa3170ce7ac7ac001831ca3eb6eeea",
                        "amount": "15",
                        "iconUrl": "",
                        "isERC1155": false,
                        "isERC721": false,
                        "sign": true,
                        "value": ""
                    }
                ]
            }
        ]
    },
    "profile": {
        "basic_info": {
            "baseFee": "",
            "blockNumber": 5362579,
            "callData": "0xa9059cbb0000000000000000000000001bb185e589f97ab81a105279cfda92102762fd79000000000000000000000000000000000000000000000000d02ab486cedc0000",
            "debugEnable": true,
            "errorInfo": "",
            "eventCount": 1,
            "feeRecipient": "0xb2930b35844a230f00e51431acae96fe543a0347",
            "formatValue": "0",
            "gasLimit": 70000,
            "gasPrice": "1.010103",
            "gasUsed": 52309,
            "intTxnCount": 0,
            "internalRevert": false,
            "internalRevertMessage": "",
            "isContractCreation": false,
            "isFlashloan": false,
            "maxFee": "",
            "nonce": 11382,
            "overwritedBlockNumber": -1,
            "priorityFee": "",
            "receiver": "0xba51ff3802aa3170ce7ac7ac001831ca3eb6eeea",
            "revertMessage": "",
            "sender": "0xeea09451bf9ba4dfa849455b3bcdef3c849ef854",
            "simulationEnable": true,
            "sourceTxnHash": "0xa9449a76a6c550ef2de775e87de7cff361d48a6e62a82dca9fa242a35dba8ce6",
            "status": true,
            "timestamp": "2018-04-01T19:03:35Z",
            "transactionFee": "0.000052837477827",
            "txnHash": "0xa9449a76a6c550ef2de775e87de7cff361d48a6e62a82dca9fa242a35dba8ce6",
            "txnIndex": 48,
            "type": 0,
            "value": "0"
        },
        "fund_flow": [
            {
                "amount": "15",
                "from": "0xeea09451bf9ba4dfa849455b3bcdef3c849ef854",
                "id": 1,
                "isERC1155": false,
                "isERC721": false,
                "isReverted": false,
                "order": 1,
                "to": "0x1bb185e589f97ab81a105279cfda92102762fd79",
                "token": "0xba51ff3802aa3170ce7ac7ac001831ca3eb6eeea"
            }
        ],
        "token_infos": [
            {
                "address": "0xba51ff3802aa3170ce7ac7ac001831ca3eb6eeea",
                "decimals": 18
            },
            {
                "address": "0xc02aaa39b223fe8d0a0e5c4f27ead9083c756cc2",
                "decimals": 18
            },
            {
                "address": "0xeeeeeeeeeeeeeeeeeeeeeeeeeeeeeeeeeeeeeeee",
                "decimals": 18
            }
        ]
    },
    "address_label": {
        "labels": [
            {
                "address": "0x0000000000000000000000000000000000000001",
                "label": "Precompiled"
            },
            {
                "address": "0x0000000000000000000000000000000000000002",
                "label": "Precompiled"
            },
            {
                "address": "0x0000000000000000000000000000000000000003",
                "label": "Precompiled"
            },
            {
                "address": "0x0000000000000000000000000000000000000004",
                "label": "Precompiled"
            },
            {
                "address": "0xeeeeeeeeeeeeeeeeeeeeeeeeeeeeeeeeeeeeeeee",
                "label": "Ether"
            },
            {
                "address": "0xba51ff3802aa3170ce7ac7ac001831ca3eb6eeea",
                "label": "Lino (LINO)"
            }
        ]
    },
    "trace": {
        "accountLabels": null,
        "dataMap": {
            "-1": {
                "invocation": {
                    "address": "0xeea09451bf9ba4dfa849455b3bcdef3c849ef854",
                    "callData": "",
                    "decodedMethod": null,
                    "errorInfo": "",
                    "fromAddress": "",
                    "gasUsed": 0,
                    "id": -1,
                    "methodDecoded": false,
                    "operation": "",
                    "output": "",
                    "revert": false,
                    "revertMessage": "",
                    "selector": "",
                    "status": false,
                    "value": ""
                },
                "nodeType": 0
            },
            "0": {
                "invocation": {
                    "address": "0xba51ff3802aa3170ce7ac7ac001831ca3eb6eeea",
                    "callData": "0x0000000000000000000000001bb185e589f97ab81a105279cfda92102762fd79000000000000000000000000000000000000000000000000d02ab486cedc0000",
                    "decodedMethod": {
                        "callParams": [
                            {
                                "name": "_to",
                                "type": "address",
                                "value": "0x1bb185e589f97ab81a105279cfda92102762fd79"
                            },
                            {
                                "decimalAvailable": true,
                                "name": "_value",
                                "type": "uint256",
                                "value": "15,000,000,000,000,000,000"
                            }
                        ],
                        "constructorArguments": "",
                        "name": "transfer",
                        "returnParams": [
                            {
                                "name": "",
                                "type": "bool",
                                "value": true
                            }
                        ],
                        "signature": "transfer(address,uint256)"
                    },
                    "errorInfo": "",
                    "fromAddress": "0xeea09451bf9ba4dfa849455b3bcdef3c849ef854",
                    "gasUsed": 52309,
                    "id": 0,
                    "methodDecoded": true,
                    "operation": "CALL",
                    "output": "0x0000000000000000000000000000000000000000000000000000000000000001",
                    "revert": false,
                    "revertMessage": "",
                    "selector": "0xa9059cbb",
                    "status": true,
                    "value": "0"
                },
                "nodeType": 0
            },
            "1": {
                "event": {
                    "contract": "0xba51ff3802aa3170ce7ac7ac001831ca3eb6eeea",
                    "decodedLog": {
                        "name": "Transfer",
                        "params": [
                            {
                                "name": "from",
                                "type": "address",
                                "value": "0xeea09451bf9ba4dfa849455b3bcdef3c849ef854"
                            },
                            {
                                "name": "to",
                                "type": "address",
                                "value": "0x1bb185e589f97ab81a105279cfda92102762fd79"
                            },
                            {
                                "decimalAvailable": true,
                                "name": "value",
                                "type": "uint256",
                                "value": "15,000,000,000,000,000,000"
                            }
                        ],
                        "signature": "Transfer(address,address,uint256)"
                    },
                    "id": 1,
                    "logData": "0x000000000000000000000000000000000000000000000000d02ab486cedc0000",
                    "logDecoded": true,
                    "operation": "EVENT",
                    "revert": false,
                    "status": true,
                    "topics": [
                        "0xddf252ad1be2c89b69c2b068fc378daa952ba7f163c4a11628f55a4df523b3ef",
                        "0x000000000000000000000000eea09451bf9ba4dfa849455b3bcdef3c849ef854",
                        "0x0000000000000000000000001bb185e589f97ab81a105279cfda92102762fd79"
                    ]
                },
                "nodeType": 1
            }
        },
        "gasFlame": [
            {
                "children": [
                    {
                        "children": [
                            {
                                "children": [],
                                "depth": 0,
                                "name": "Initial Gas",
                                "value": 23192
                            },
                            {
                                "children": [],
                                "depth": 0,
                                "name": "Executed Gas",
                                "value": 29117
                            }
                        ],
                        "depth": -1,
                        "name": "Actual Gas Used",
                        "value": 52309
                    },
                    {
                        "children": [],
                        "depth": -1,
                        "name": "Refunded Gas",
                        "value": 0
                    }
                ],
                "depth": -2,
                "name": "Total Gas",
                "value": 52309
            }
        ],
        "isConfirmed": true,
        "mainTrace": [
            {
                "children": [
                    {
                        "children": [
                            {
                                "children": [],
                                "depth": 1,
                                "id": 1,
                                "order": 1
                            }
                        ],
                        "depth": 0,
                        "id": 0,
                        "order": 0
                    }
                ],
                "depth": -1,
                "id": -1,
                "order": -1
            }
        ],
        "mainTraceNodeCount": 2,
        "parentIdMap": {
            "0": -1,
            "1": 0
        },
        "tidyTrace": [
            {
                "children": [
                    {
                        "children": [
                            {
                                "children": [],
                                "depth": 1,
                                "id": 1,
                                "order": 1
                            }
                        ],
                        "depth": 0,
                        "id": 0,
                        "order": 0
                    }
                ],
                "depth": -1,
                "id": -1,
                "order": -1
            }
        ],
        "tidyTraceNodeCount": 2
    },
    "state_change": {
        "stateChanges": [
            {
                "address": "0xba51ff3802aa3170ce7ac7ac001831ca3eb6eeea",
                "erc": "ERC-20",
                "slots": [
                    {
                        "current": "0x000000000000000000000000000000000000000000001b40f30be39454380000",
                        "key": "0x2817f2a494a0dc184642876b2016ec878539809a8abd50d762f4c1f080c11d90",
                        "prev": "0x000000000000000000000000000000000000000000001b41c336981b23140000"
                    },
                    {
                        "current": "0x000000000000000000000000000000000000000000000000d02ab486cedc0000",
                        "key": "0xeb2244ff7a918aff1eeffd83c875d006f378b3ef56d285f0142370282be4c923",
                        "prev": "0x0000000000000000000000000000000000000000000000000000000000000000"
                    }
                ],
                "storageVariables": [
                    {
                        "name": "balances",
                        "type": "mapping(address => uint256)",
                        "value": {
                            "pairs": [
                                {
                                    "key": "0x1bb185e589f97ab81a105279cfda92102762fd79",
                                    "value": {
                                        "current": "15000000000000000000",
                                        "prev": "0",
                                        "typeTag": 1
                                    }
                                },
                                {
                                    "key": "0xeea09451bf9ba4dfa849455b3bcdef3c849ef854",
                                    "value": {
                                        "current": "128702000000000000000000",
                                        "prev": "128717000000000000000000",
                                        "typeTag": 1
                                    }
                                }
                            ],
                            "typeTag": 4
                        }
                    }
                ]
            }
        ]
    }
}