{
    "balance_change": {
        "balanceChanges": [
            {
                "account": "0x3018e712d98db46b74f5fa30b2e76c01a9f9e9fd",
                "assets": [
                    {
                        "address": "0x22527f92f43dc8bea6387ce40b87ebaa21f51df3",
                        "amount": "0.03",
                        "iconUrl": "",
                        "isERC1155": false,
                        "isERC721": false,
                        "sign": true,
                        "value": "42366.52373"
                    }
                ]
            },
            {
                "account": "0x0cc111738b9627f6f518d746d8ca9493e9074abe",
                "assets": [
                    {
                        "address": "0x22527f92f43dc8bea6387ce40b87ebaa21f51df3",
                        "amount": "0.03",
                        "iconUrl": "",
                        "isERC1155": false,
                        "isERC721": false,
                        "sign": false,
                        "value": "42366.52373"
                    }
                ]
            }
        ]
    },
    "profile": {
        "basic_info": {
            "baseFee": "76.558269156",
            "blockNumber": 14131640,
            "callData": "0x2e1a7d4d000000000000000000000000000000000000000000000000006a94d74f430000",
            "debugEnable": true,
            "errorInfo": "",
            "eventCount": 3,
            "feeRecipient": "0x28846f1ec065eea239152213373bb58b1c9fc93b",
            "formatValue": "0",
            "gasLimit": 133317,
            "gasPrice": "78.058269156",
            "gasUsed": 109317,
            "intTxnCount": 7,
            "internalRevert": false,
            "internalRevertMessage": "",
            "isContractCreation": false,
            "isFlashloan": false,
            "maxFee": "93.062770828",
            "nonce": 3,
            "overwritedBlockNumber": -1,
            "priorityFee": "1.5",
            "receiver": "0x0cc111738b9627f6f518d746d8ca9493e9074abe",
            "revertMessage": "",
            "sender": "0x3018e712d98db46b74f5fa30b2e76c01a9f9e9fd",
            "simulationEnable": true,
            "sourceTxnHash": "0xaa9881cc3468c0d13dd668e9aa0f51833377f545deee43b84746338cc5271621",
            "status": true,
            "timestamp": "2022-02-03T07:19:02Z",
            "transactionFee": "0.008533095809326452",
            "txnHash": "0xaa9881cc3468c0d13dd668e9aa0f51833377f545deee43b84746338cc5271621",
            "txnIndex": 94,
            "type": 2,
            "value": "0"
        },
        "fund_flow": [
            {
                "amount": "0",
                "from": "0x0cc111738b9627f6f518d746d8ca9493e9074abe",
                "id": 1,
                "isERC1155": false,
                "isERC721": false,
                "isReverted": false,
                "order": 1,
                "to": "0x3018e712d98db46b74f5fa30b2e76c01a9f9e9fd",
                "token": "0x3496b523e5c00a4b4150d6721320cddb234c3079"
            },
            {
                "amount": "0.03",
                "from": "0x0cc111738b9627f6f518d746d8ca9493e9074abe",
                "id": 2,
                "isERC1155": false,
                "isERC721": false,
                "isReverted": false,
                "order": 2,
                "to": "0x3018e712d98db46b74f5fa30b2e76c01a9f9e9fd",
                "token": "0x22527f92f43dc8bea6387ce40b87ebaa21f51df3"
            }
        ],
        "token_infos": [
            {
                "address": "0x22527f92f43dc8bea6387ce40b87ebaa21f51df3",
                "decimals": 18
            },
            {
                "address": "0x3496b523e5c00a4b4150d6721320cddb234c3079",
                "decimals": 18
            },
            {
                "address": "0xc02aaa39b223fe8d0a0e5c4f27ead9083c756cc2",
                "decimals": 18
            },
            {
                "address": "0xeeeeeeeeeeeeeeeeeeeeeeeeeeeeeeeeeeeeeeee",
                "decimals": 18
            }
        ]
    },
    "address_label": {
        "labels": [
            {
                "address": "0x22527f92f43dc8bea6387ce40b87ebaa21f51df3",
                "label": "Uniswap V2: NUM-USDC"
            },
            {
                "address": "0x3496b523e5c00a4b4150d6721320cddb234c3079",
                "label": "Numbers Protocol: NUM Token"
            },
            {
                "address": "0xd39015041518064743d955cf550c611b0b68888c",
                "label": "NUM Token (NUM)"
            },
            {
                "address": "0x0000000000000000000000000000000000000001",
                "label": "Precompiled"
            },
            {
                "address": "0x0000000000000000000000000000000000000003",
                "label": "Precompiled"
            },
            {
                "address": "0xeeeeeeeeeeeeeeeeeeeeeeeeeeeeeeeeeeeeeeee",
                "label": "Ether"
            },
            {
                "address": "0x388f7e6d45e058aa703227b44e216e3be3c6a6e7",
                "label": "FarmFactory"
            },
            {
                "address": "0x0cc111738b9627f6f518d746d8ca9493e9074abe",
                "label": "Farm01"
            },
            {
                "address": "0x0000000000000000000000000000000000000002",
                "label": "Precompiled"
            },
            {
                "address": "0x0000000000000000000000000000000000000004",
                "label": "Precompiled"
            }
        ]
    },
    "trace": {
        "accountLabels": null,
        "dataMap": {
            "-1": {
                "invocation": {
                    "address": "0x3018e712d98db46b74f5fa30b2e76c01a9f9e9fd",
                    "callData": "",
                    "decodedMethod": null,
                    "errorInfo": "",
                    "fromAddress": "",
                    "gasUsed": 0,
                    "id": -1,
                    "methodDecoded": false,
                    "operation": "",
                    "output": "",
                    "revert": false,
                    "revertMessage": "",
                    "selector": "",
                    "status": false,
                    "value": ""
                },
                "nodeType": 0
            },
            "0": {
                "invocation": {
                    "address": "0x0cc111738b9627f6f518d746d8ca9493e9074abe",
                    "callData": "0x000000000000000000000000000000000000000000000000006a94d74f430000",
                    "decodedMethod": {
                        "callParams": [
                            {
                                "name": "_amount",
                                "type": "uint256",
                                "value": "30,000,000,000,000,000"
                            }
                        ],
                        "constructorArguments": "",
                        "name": "withdraw",
                        "returnParams": [],
                        "signature": "withdraw(uint256)"
                    },
                    "errorInfo": "",
                    "fromAddress": "0x3018e712d98db46b74f5fa30b2e76c01a9f9e9fd",
                    "gasUsed": 109317,
                    "id": 0,
                    "methodDecoded": true,
                    "operation": "CALL",
                    "output": "",
                    "revert": false,
                    "revertMessage": "",
                    "selector": "0x2e1a7d4d",
                    "status": true,
                    "value": "0"
                },
                "nodeType": 0
            },
            "1": {
                "invocation": {
                    "address": "0x22527f92f43dc8bea6387ce40b87ebaa21f51df3",
                    "callData": "0x0000000000000000000000000cc111738b9627f6f518d746d8ca9493e9074abe",
                    "decodedMethod": {
                        "callParams": [
                            {
                                "name": "",
                                "type": "address",
                                "value": "0x0cc111738b9627f6f518d746d8ca9493e9074abe"
                            }
                        ],
                        "constructorArguments": "",
                        "name": "balanceOf",
                        "returnParams": [
                            {
                                "decimalAvailable": true,
                                "name": "",
                                "type": "uint256",
                                "value": "157,103,779,075,407,216"
                            }
                        ],
                        "signature": "balanceOf(address)"
                    },
                    "errorInfo": "",
                    "fromAddress": "0x0cc111738b9627f6f518d746d8ca9493e9074abe",
                    "gasUsed": 2480,
                    "id": 1,
                    "methodDecoded": true,
                    "operation": "STATICCALL",
                    "output": "0x000000000000000000000000000000000000000000000000022e250e00a93d70",
                    "revert": false,
                    "revertMessage": "",
                    "selector": "0x70a08231",
                    "status": true,
                    "value": "0"
                },
                "nodeType": 0
            },
            "10": {
                "event": {
                    "contract": "0x0cc111738b9627f6f518d746d8ca9493e9074abe",
                    "decodedLog": {
                        "name": "Withdraw",
                        "params": [
                            {
                                "name": "user",
                                "type": "address",
                                "value": "0x3018e712d98db46b74f5fa30b2e76c01a9f9e9fd"
                            },
                            {
                                "name": "amount",
                                "type": "uint256",
                                "value": "30,000,000,000,000,000"
                            }
                        ],
                        "signature": "Withdraw(address,uint256)"
                    },
                    "id": 10,
                    "logData": "0x000000000000000000000000000000000000000000000000006a94d74f430000",
                    "logDecoded": true,
                    "operation": "EVENT",
                    "revert": false,
                    "status": true,
                    "topics": [
                        "0x884edad9ce6fa2440d8a54cc123490eb96d2768479d49ff9c7366125a9424364",
                        "0x0000000000000000000000003018e712d98db46b74f5fa30b2e76c01a9f9e9fd"
                    ]
                },
                "nodeType": 1
            },
            "2": {
                "invocation": {
                    "address": "0x388f7e6d45e058aa703227b44e216e3be3c6a6e7",
                    "callData": "0x0000000000000000000000003018e712d98db46b74f5fa30b2e76c01a9f9e9fd",
                    "decodedMethod": {
                        "callParams": [
                            {
                                "name": "_user",
                                "type": "address",
                                "value": "0x3018e712d98db46b74f5fa30b2e76c01a9f9e9fd"
                            }
                        ],
                        "constructorArguments": "",
                        "name": "userLeftFarm",
                        "returnParams": [],
                        "signature": "userLeftFarm(address)"
                    },
                    "errorInfo": "",
                    "fromAddress": "0x0cc111738b9627f6f518d746d8ca9493e9074abe",
                    "gasUsed": 19083,
                    "id": 2,
                    "methodDecoded": true,
                    "operation": "CALL",
                    "output": "",
                    "revert": false,
                    "revertMessage": "",
                    "selector": "0x76cb2554",
                    "status": true,
                    "value": "0"
                },
                "nodeType": 0
            },
            "3": {
                "invocation": {
                    "address": "0x3496b523e5c00a4b4150d6721320cddb234c3079",
                    "callData": "0x0000000000000000000000000cc111738b9627f6f518d746d8ca9493e9074abe",
                    "decodedMethod": {
                        "callParams": [
                            {
                                "name": "owner",
                                "type": "address",
                                "value": "0x0cc111738b9627f6f518d746d8ca9493e9074abe"
                            }
                        ],
                        "constructorArguments": "",
                        "name": "balanceOf",
                        "returnParams": [
                            {
                                "decimalAvailable": true,
                                "name": "",
                                "type": "uint256",
                                "value": "25,677,647,017,690,892,396,537"
                            }
                        ],
                        "signature": "balanceOf(address)"
                    },
                    "errorInfo": "",
                    "fromAddress": "0x0cc111738b9627f6f518d746d8ca9493e9074abe",
                    "gasUsed": 10049,
                    "id": 3,
                    "methodDecoded": true,
                    "operation": "STATICCALL",
                    "output": "0x00000000000000000000000000000000000000000000056ffcefcc95d61ce7f9",
                    "revert": false,
                    "revertMessage": "",
                    "selector": "0x70a08231",
                    "status": true,
                    "value": "0"
                },
                "nodeType": 0
            },
            "4": {
                "invocation": {
                    "address": "0xd39015041518064743d955cf550c611b0b68888c",
                    "callData": "0x0000000000000000000000000cc111738b9627f6f518d746d8ca9493e9074abe",
                    "decodedMethod": {
                        "callParams": [
                            {
                                "name": "owner",
                                "type": "address",
                                "value": "0x0cc111738b9627f6f518d746d8ca9493e9074abe"
                            }
                        ],
                        "constructorArguments": "",
                        "name": "balanceOf",
                        "returnParams": [
                            {
                                "decimalAvailable": true,
                                "name": "",
                                "type": "uint256",
                                "value": "25,677,647,017,690,892,396,537"
                            }
                        ],
                        "signature": "balanceOf(address)"
                    },
                    "errorInfo": "",
                    "fromAddress": "0x3496b523e5c00a4b4150d6721320cddb234c3079",
                    "gasUsed": 2770,
                    "id": 4,
                    "methodDecoded": true,
                    "operation": "DELEGATECALL",
                    "output": "0x00000000000000000000000000000000000000000000056ffcefcc95d61ce7f9",
                    "revert": false,
                    "revertMessage": "",
                    "selector": "0x70a08231",
                    "status": true,
                    "value": "0"
                },
                "nodeType": 0
            },
            "5": {
                "invocation": {
                    "address": "0x3496b523e5c00a4b4150d6721320cddb234c3079",
                    "callData": "0x0000000000000000000000003018e712d98db46b74f5fa30b2e76c01a9f9e9fd0000000000000000000000000000000000000000000000000000000000000000",
                    "decodedMethod": {
                        "callParams": [
                            {
                                "name": "_to",
                                "type": "address",
                                "value": "0x3018e712d98db46b74f5fa30b2e76c01a9f9e9fd"
                            },
                            {
                                "decimalAvailable": true,
                                "name": "_value",
                                "type": "uint256",
                                "value": "0"
                            }
                        ],
                        "constructorArguments": "",
                        "name": "transfer",
                        "returnParams": [
                            {
                                "name": "",
                                "type": "bool",
                                "value": true
                            }
                        ],
                        "signature": "transfer(address,uint256)"
                    },
                    "errorInfo": "",
                    "fromAddress": "0x0cc111738b9627f6f518d746d8ca9493e9074abe",
                    "gasUsed": 18865,
                    "id": 5,
                    "methodDecoded": true,
                    "operation": "CALL",
                    "output": "0x0000000000000000000000000000000000000000000000000000000000000001",
                    "revert": false,
                    "revertMessage": "",
                    "selector": "0xa9059cbb",
                    "status": true,
                    "value": "0"
                },
                "nodeType": 0
            },
            "6": {
                "invocation": {
                    "address": "0xd39015041518064743d955cf550c611b0b68888c",
                    "callData": "0x0000000000000000000000003018e712d98db46b74f5fa30b2e76c01a9f9e9fd0000000000000000000000000000000000000000000000000000000000000000",
                    "decodedMethod": {
                        "callParams": [
                            {
                                "name": "_to",
                                "type": "address",
                                "value": "0x3018e712d98db46b74f5fa30b2e76c01a9f9e9fd"
                            },
                            {
                                "decimalAvailable": true,
                                "name": "_value",
                                "type": "uint256",
                                "value": "0"
                            }
                        ],
                        "constructorArguments": "",
                        "name": "transfer",
                        "returnParams": [
                            {
                                "name": "",
                                "type": "bool",
                                "value": true
                            }
                        ],
                        "signature": "transfer(address,uint256)"
                    },
                    "errorInfo": "",
                    "fromAddress": "0x3496b523e5c00a4b4150d6721320cddb234c3079",
                    "gasUsed": 18083,
                    "id": 6,
                    "methodDecoded": true,
                    "operation": "DELEGATECALL",
                    "output": "0x0000000000000000000000000000000000000000000000000000000000000001",
                    "revert": false,
                    "revertMessage": "",
                    "selector": "0xa9059cbb",
                    "status": true,
                    "value": "0"
                },
                "nodeType": 0
            },
            "7": {
                "event": {
                    "contract": "0x3496b523e5c00a4b4150d6721320cddb234c3079",
                    "decodedLog": {
                        "name": "Transfer",
                        "params": [
                            {
                                "name": "from",
                                "type": "address",
                                "value": "0x0cc111738b9627f6f518d746d8ca9493e9074abe"
                            },
                            {
                                "name": "to",
                                "type": "address",
                                "value": "0x3018e712d98db46b74f5fa30b2e76c01a9f9e9fd"
                            },
                            {
                                "decimalAvailable": true,
                                "name": "value",
                                "type": "uint256",
                                "value": "0"
                            }
                        ],
                        "signature": "Transfer(address,address,uint256)"
                    },
                    "id": 7,
                    "logData": "0x0000000000000000000000000000000000000000000000000000000000000000",
                    "logDecoded": true,
                    "operation": "EVENT",
                    "revert": false,
                    "status": true,
                    "topics": [
                        "0xddf252ad1be2c89b69c2b068fc378daa952ba7f163c4a11628f55a4df523b3ef",
                        "0x0000000000000000000000000cc111738b9627f6f518d746d8ca9493e9074abe",
                        "0x0000000000000000000000003018e712d98db46b74f5fa30b2e76c01a9f9e9fd"
                    ]
                },
                "nodeType": 1
            },
            "8": {
                "invocation": {
                    "address": "0x22527f92f43dc8bea6387ce40b87ebaa21f51df3",
                    "callData": "0x0000000000000000000000003018e712d98db46b74f5fa30b2e76c01a9f9e9fd000000000000000000000000000000000000000000000000006a94d74f430000",
                    "decodedMethod": {
                        "callParams": [
                            {
                                "name": "to",
                                "type": "address",
                                "value": "0x3018e712d98db46b74f5fa30b2e76c01a9f9e9fd"
                            },
                            {
                                "decimalAvailable": true,
                                "name": "value",
                                "type": "uint256",
                                "value": "30,000,000,000,000,000"
                            }
                        ],
                        "constructorArguments": "",
                        "name": "transfer",
                        "returnParams": [
                            {
                                "name": "",
                                "type": "bool",
                                "value": true
                            }
                        ],
                        "signature": "transfer(address,uint256)"
                    },
                    "errorInfo": "",
                    "fromAddress": "0x0cc111738b9627f6f518d746d8ca9493e9074abe",
                    "gasUsed": 10740,
                    "id": 8,
                    "methodDecoded": true,
                    "operation": "CALL",
                    "output": "0x0000000000000000000000000000000000000000000000000000000000000001",
                    "revert": false,
                    "revertMessage": "",
                    "selector": "0xa9059cbb",
                    "status": true,
                    "value": "0"
                },
                "nodeType": 0
            },
            "9": {
                "event": {
                    "contract": "0x22527f92f43dc8bea6387ce40b87ebaa21f51df3",
                    "decodedLog": {
                        "name": "Transfer",
                        "params": [
                            {
                                "name": "from",
                                "type": "address",
                                "value": "0x0cc111738b9627f6f518d746d8ca9493e9074abe"
                            },
                            {
                                "name": "to",
                                "type": "address",
                                "value": "0x3018e712d98db46b74f5fa30b2e76c01a9f9e9fd"
                            },
                            {
                                "decimalAvailable": true,
                                "name": "value",
                                "type": "uint256",
                                "value": "30,000,000,000,000,000"
                            }
                        ],
                        "signature": "Transfer(address,address,uint256)"
                    },
                    "id": 9,
                    "logData": "0x000000000000000000000000000000000000000000000000006a94d74f430000",
                    "logDecoded": true,
                    "operation": "EVENT",
                    "revert": false,
                    "status": true,
                    "topics": [
                        "0xddf252ad1be2c89b69c2b068fc378daa952ba7f163c4a11628f55a4df523b3ef",
                        "0x0000000000000000000000000cc111738b9627f6f518d746d8ca9493e9074abe",
                        "0x0000000000000000000000003018e712d98db46b74f5fa30b2e76c01a9f9e9fd"
                    ]
                },
                "nodeType": 1
            }
        },
        "gasFlame": [
            {
                "children": [
                    {
                        "children": [
                            {
                                "children": [],
                                "depth": 0,
                                "name": "Initial Gas",
                                "value": 21252
                            },
                            {
                                "children": [
                                    {
                                        "children": [],
                                        "depth": 1,
                                        "name": "balanceOf",
                                        "value": 2480
                                    },
                                    {
                                        "children": [],
                                        "depth": 1,
                                        "name": "userLeftFarm",
                                        "value": 19083
                                    },
                                    {
                                        "children": [
                                            {
                                                "children": [],
                                                "depth": 2,
                                                "name": "balanceOf",
                                                "value": 2770
                                            }
                                        ],
                                        "depth": 1,
                                        "name": "balanceOf",
                                        "value": 10049
                                    },
                                    {
                                        "children": [
                                            {
                                                "children": [],
                                                "depth": 2,
                                                "name": "transfer",
                                                "value": 18083
                                            }
                                        ],
                                        "depth": 1,
                                        "name": "transfer",
                                        "value": 18865
                                    },
                                    {
                                        "children": [],
                                        "depth": 1,
                                        "name": "transfer",
                                        "value": 10740
                                    }
                                ],
                                "depth": 0,
                                "name": "Executed Gas",
                                "value": 112065
                            }
                        ],
                        "depth": -1,
                        "name": "Actual Gas Used",
                        "value": 109317
                    },
                    {
                        "children": [],
                        "depth": -1,
                        "name": "Refunded Gas",
                        "value": 24000
                    }
                ],
                "depth": -2,
                "name": "Total Gas",
                "value": 133317
            }
        ],
        "isConfirmed": true,
        "mainTrace": [
            {
                "children": [
                    {
                        "children": [
                            {
                                "children": [],
                                "depth": 1,
                                "id": 1,
                                "order": 1
                            },
                            {
                                "children": [],
                                "depth": 1,
                                "id": 2,
                                "order": 2
                            },
                            {
                                "children": [
                                    {
                                        "children": [],
                                        "depth": 2,
                                        "id": 4,
                                        "order": 4
                                    }
                                ],
                                "depth": 1,
                                "id": 3,
                                "order": 3
                            },
                            {
                                "children": [
                                    {
                                        "children": [
                                            {
                                                "children": [],
                                                "depth": 3,
                                                "id": 7,
                                                "order": 7
                                            }
                                        ],
                                        "depth": 2,
                                        "id": 6,
                                        "order": 6
                                    }
                                ],
                                "depth": 1,
                                "id": 5,
                                "order": 5
                            },
                            {
                                "children": [
                                    {
                                        "children": [],
                                        "depth": 2,
                                        "id": 9,
                                        "order": 9
                                    }
                                ],
                                "depth": 1,
                                "id": 8,
                                "order": 8
                            },
                            {
                                "children": [],
                                "depth": 1,
                                "id": 10,
                                "order": 10
                            }
                        ],
                        "depth": 0,
                        "id": 0,
                        "order": 0
                    }
                ],
                "depth": -1,
                "id": -1,
                "order": -1
            }
        ],
        "mainTraceNodeCount": 11,
        "parentIdMap": {
            "0": -1,
            "1": 0,
            "10": 0,
            "2": 0,
            "3": 0,
            "4": 3,
            "5": 0,
            "6": 5,
            "7": 6,
            "8": 0,
            "9": 8
        },
        "tidyTrace": [
            {
                "children": [
                    {
                        "children": [
                            {
                                "children": [],
                                "depth": 1,
                                "id": 2,
                                "order": 2
                            },
                            {
                                "children": [
                                    {
                                        "children": [
                                            {
                                                "children": [],
                                                "depth": 3,
                                                "id": 7,
                                                "order": 7
                                            }
                                        ],
                                        "depth": 2,
                                        "id": 6,
                                        "order": 6
                                    }
                                ],
                                "depth": 1,
                                "id": 5,
                                "order": 5
                            },
                            {
                                "children": [
                                    {
                                        "children": [],
                                        "depth": 2,
                                        "id": 9,
                                        "order": 9
                                    }
                                ],
                                "depth": 1,
                                "id": 8,
                                "order": 8
                            },
                            {
                                "children": [],
                                "depth": 1,
                                "id": 10,
                                "order": 10
                            }
                        ],
                        "depth": 0,
                        "id": 0,
                        "order": 0
                    }
                ],
                "depth": -1,
                "id": -1,
                "order": -1
            }
        ],
        "tidyTraceNodeCount": 8
    },
    "state_change": {
        "stateChanges": [
            {
                "address": "0x0cc111738b9627f6f518d746d8ca9493e9074abe",
                "erc": "",
                "slots": [
                    {
                        "current": "0x0000000000000000000000000000000000000000000000000000000000000006",
                        "key": "0x000000000000000000000000000000000000000000000000000000000000000d",
                        "prev": "0x0000000000000000000000000000000000000000000000000000000000000007"
                    },
                    {
                        "current": "0x0000000000000000000000000000000000000000000000000000000000000000",
                        "key": "0xacba747cfbd89dc9108da12b3f59a2cd11ced2d82070b374bae2535134ed6664",
                        "prev": "0x000000000000000000000000000000000000000000000000006a94d74f430000"
                    },
                    {
                        "current": "0x0000000000000000000000000000000000000000000000000000000000000000",
                        "key": "0xacba747cfbd89dc9108da12b3f59a2cd11ced2d82070b374bae2535134ed6665",
                        "prev": "0x0000000000000000000000000000000000000000000006bc70b0c826bd3cef70"
                    }
                ],
                "storageVariables": [
                    {
                        "name": "userInfo",
                        "type": "mapping(address => struct Farm01.UserInfo)",
                        "value": {
                            "pairs": [
                                {
                                    "key": "0x3018e712d98db46b74f5fa30b2e76c01a9f9e9fd",
                                    "value": {
                                        "fields": [
                                            {
                                                "name": "amount",
                                                "type": "uint256",
                                                "value": {
                                                    "current": "0",
                                                    "prev": "30000000000000000",
                                                    "typeTag": 1
                                                }
                                            },
                                            {
                                                "name": "rewardDebt",
                                                "type": "uint256",
                                                "value": {
                                                    "current": "0",
                                                    "prev": "31810306993272125190000",
                                                    "typeTag": 1
                                                }
                                            }
                                        ],
                                        "typeTag": 3
                                    }
                                }
                            ],
                            "typeTag": 4
                        }
                    }
                ]
            },
            {
                "address": "0x22527f92f43dc8bea6387ce40b87ebaa21f51df3",
                "erc": "ERC-20",
                "slots": [
                    {
                        "current": "0x00000000000000000000000000000000000000000000000001c39036b1663d70",
                        "key": "0x22daa982592c12b204b85a28b50b39d1d784b9924aa03d239b0f8348bbe45580",
                        "prev": "0x000000000000000000000000000000000000000000000000022e250e00a93d70"
                    },
                    {
                        "current": "0x0000000000000000000000000000000000000000000000000429d069189dfff5",
                        "key": "0x0258b7034cbb5e0b068b3c5bbbff0639dbfa362556046af582d4c0cbebeb5381",
                        "prev": "0x00000000000000000000000000000000000000000000000003bf3b91c95afff5"
                    }
                ],
                "storageVariables": [
                    {
                        "name": "balanceOf",
                        "type": "mapping(address => uint256)",
                        "value": {
                            "pairs": [
                                {
                                    "key": "0x0cc111738b9627f6f518d746d8ca9493e9074abe",
                                    "value": {
                                        "current": "127103779075407216",
                                        "prev": "157103779075407216",
                                        "typeTag": 1
                                    }
                                },
                                {
                                    "key": "0x3018e712d98db46b74f5fa30b2e76c01a9f9e9fd",
                                    "value": {
                                        "current": "299999999999999989",
                                        "prev": "269999999999999989",
                                        "typeTag": 1
                                    }
                                }
                            ],
                            "typeTag": 4
                        }
                    }
                ]
            },
            {
                "address": "0x3496b523e5c00a4b4150d6721320cddb234c3079",
                "erc": "ERC-20",
                "slots": [
                    {
                        "current": "0x0000000000000000000000000000000000000000000000000000000000d7a1b8",
                        "key": "0x0000000000000000000000000000000000000000000000000000000000000135",
                        "prev": "0x0000000000000000000000000000000000000000000000000000000000d7a1b2"
                    }
                ],
                "storageVariables": [
                    {
                        "name": "lastFundingPeriod",
                        "type": "uint256",
                        "value": {
                            "current": "14131640",
                            "prev": "14131634",
                            "typeTag": 1
                        }
                    }
                ]
            },
            {
                "address": "0x388f7e6d45e058aa703227b44e216e3be3c6a6e7",
                "erc": "",
                "slots": [
                    {
                        "current": "0x0000000000000000000000000000000000000000000000000000000000000000",
                        "key": "0xf801e0f4902203505494ce32362240777c91e0b4c24d1ce2f0c5fb513744f6cb",
                        "prev": "0x0000000000000000000000000cc111738b9627f6f518d746d8ca9493e9074abe"
                    },
                    {
                        "current": "0x0000000000000000000000000000000000000000000000000000000000000000",
                        "key": "0xa4fd4462095fb761a38270eeb2666fd8c7a391ad2f4f8a250a1562d434cb1b04",
                        "prev": "0x0000000000000000000000000000000000000000000000000000000000000001"
                    },
                    {
                        "current": "0x0000000000000000000000000000000000000000000000000000000000000000",
                        "key": "0x184aecc0b85db3ffc57bc0770805c3193235612e5a4be1e4ac3fb3a9cb522668",
                        "prev": "0x0000000000000000000000000000000000000000000000000000000000000001"
                    }
                ],
                "storageVariables": [
                    {
                        "name": "userFarms",
                        "type": "mapping(address => struct EnumerableSet.AddressSet)",
                        "value": {
                            "pairs": [
                                {
                                    "key": "0x3018e712d98db46b74f5fa30b2e76c01a9f9e9fd",
                                    "value": {
                                        "fields": [
                                            {
                                                "name": "_inner",
                                                "type": "struct EnumerableSet.Set",
                                                "value": {
                                                    "fields": [
                                                        {
                                                            "name": "_indexes",
                                                            "type": "mapping(bytes32 => uint256)",
                                                            "value": {
                                                                "pairs": [
                                                                    {
                                                                        "key": "0x0000000000000000000000000cc111738b9627f6f518d746d8ca9493e9074abe",
                                                                        "value": {
                                                                            "current": "0",
                                                                            "prev": "1",
                                                                            "typeTag": 1
                                                                        }
                                                                    }
                                                                ],
                                                                "typeTag": 4
                                                            }
                                                        }
                                                    ],
                                                    "typeTag": 3
                                                }
                                            }
                                        ],
                                        "typeTag": 3
                                    }
                                }
                            ],
                            "typeTag": 4
                        }
                    }
                ]
            }
        ]
    }
}