{
    "balance_change": {
        "balanceChanges": []
    },
    "profile": {
        "basic_info": {
            "baseFee": "2.094394093",
            "blockNumber": 20247829,
            "callData": "0x095ea7b300000000000000000000000016affa80c65fd7003d40b24edb96f77b38ddc96a0000000000000000000000000000000000000000000001ebd92a7f496e2f8000",
            "debugEnable": true,
            "errorInfo": "",
            "eventCount": 1,
            "feeRecipient": "0x95222290dd7278aa3ddd389cc1e1d165cc4bafe5",
            "formatValue": "0",
            "gasLimit": 46778,
            "gasPrice": "2.594394093",
            "gasUsed": 46395,
            "intTxnCount": 0,
            "internalRevert": false,
            "internalRevertMessage": "",
            "isContractCreation": false,
            "isFlashloan": false,
            "maxFee": "5.728887862",
            "nonce": 0,
            "overwritedBlockNumber": -1,
            "priorityFee": "0.5",
            "receiver": "0xe8fc52b1bb3a40fd8889c0f8f75879676310ddf0",
            "revertMessage": "",
            "sender": "0x251128b23acf114d7330ad84a893a52fcb314d50",
            "simulationEnable": true,
            "sourceTxnHash": "0xaafef72f42eadc99caf576dc00194c2b5205866c6bc726e2a7416dc2c902cc3e",
            "status": true,
            "timestamp": "2024-07-06T13:41:23Z",
            "transactionFee": "0.000120366913944735",
            "txnHash": "0xaafef72f42eadc99caf576dc00194c2b5205866c6bc726e2a7416dc2c902cc3e",
            "txnIndex": 107,
            "type": 2,
            "value": "0"
        },
        "fund_flow": [],
        "token_infos": [
            {
                "address": "0xeeeeeeeeeeeeeeeeeeeeeeeeeeeeeeeeeeeeeeee",
                "decimals": 18
            },
            {
                "address": "0xc02aaa39b223fe8d0a0e5c4f27ead9083c756cc2",
                "decimals": 18
            }
        ]
    },
    "address_label": {
        "labels": [
            {
                "address": "0x0000000000000000000000000000000000000002",
                "label": "Precompiled"
            },
            {
                "address": "0x0000000000000000000000000000000000000003",
                "label": "Precompiled"
            },
            {
                "address": "0x0000000000000000000000000000000000000004",
                "label": "Precompiled"
            },
            {
                "address": "0xeeeeeeeeeeeeeeeeeeeeeeeeeeeeeeeeeeeeeeee",
                "label": "Ether"
            },
            {
                "address": "0x16affa80c65fd7003d40b24edb96f77b38ddc96a",
                "label": "Mystiko Network: vXZK Token"
            },
            {
                "address": "0xe8fc52b1bb3a40fd8889c0f8f75879676310ddf0",
                "label": "Mystiko Network: XZK Token"
            },
            {
                "address": "0x0000000000000000000000000000000000000001",
                "label": "Precompiled"
            }
        ]
    },
    "trace": {
        "accountLabels": null,
        "dataMap": {
            "-1": {
                "invocation": {
                    "address": "0x251128b23acf114d7330ad84a893a52fcb314d50",
                    "callData": "",
                    "decodedMethod": null,
                    "errorInfo": "",
                    "fromAddress": "",
                    "gasUsed": 0,
                    "id": -1,
                    "methodDecoded": false,
                    "operation": "",
                    "output": "",
                    "revert": false,
                    "revertMessage": "",
                    "selector": "",
                    "status": false,
                    "value": ""
                },
                "nodeType": 0
            },
            "0": {
                "invocation": {
                    "address": "0xe8fc52b1bb3a40fd8889c0f8f75879676310ddf0",
                    "callData": "0x00000000000000000000000016affa80c65fd7003d40b24edb96f77b38ddc96a0000000000000000000000000000000000000000000001ebd92a7f496e2f8000",
                    "decodedMethod": {
                        "callParams": [
                            {
                                "name": "spender",
                                "type": "address",
                                "value": "0x16affa80c65fd7003d40b24edb96f77b38ddc96a"
                            },
                            {
                                "decimalAvailable": true,
                                "name": "value",
                                "type": "uint256",
                                "value": "9,072,999,800,000,000,000,000"
                            }
                        ],
                        "constructorArguments": "",
                        "name": "approve",
                        "returnParams": [
                            {
                                "name": "",
                                "type": "bool",
                                "value": true
                            }
                        ],
                        "signature": "approve(address,uint256)"
                    },
                    "errorInfo": "",
                    "fromAddress": "0x251128b23acf114d7330ad84a893a52fcb314d50",
                    "gasUsed": 46395,
                    "id": 0,
                    "methodDecoded": true,
                    "operation": "CALL",
                    "output": "0x0000000000000000000000000000000000000000000000000000000000000001",
                    "revert": false,
                    "revertMessage": "",
                    "selector": "0x095ea7b3",
                    "status": true,
                    "value": "0"
                },
                "nodeType": 0
            },
            "1": {
                "event": {
                    "contract": "0xe8fc52b1bb3a40fd8889c0f8f75879676310ddf0",
                    "decodedLog": {
                        "name": "Approval",
                        "params": [
                            {
                                "name": "owner",
                                "type": "address",
                                "value": "0x251128b23acf114d7330ad84a893a52fcb314d50"
                            },
                            {
                                "name": "spender",
                                "type": "address",
                                "value": "0x16affa80c65fd7003d40b24edb96f77b38ddc96a"
                            },
                            {
                                "decimalAvailable": true,
                                "name": "value",
                                "type": "uint256",
                                "value": "9,072,999,800,000,000,000,000"
                            }
                        ],
                        "signature": "Approval(address,address,uint256)"
                    },
                    "id": 1,
                    "logData": "0x0000000000000000000000000000000000000000000001ebd92a7f496e2f8000",
                    "logDecoded": true,
                    "operation": "EVENT",
                    "revert": false,
                    "status": true,
                    "topics": [
                        "0x8c5be1e5ebec7d5bd14f71427d1e84f3dd0314c0f7b2291e5b200ac8c7c3b925",
                        "0x000000000000000000000000251128b23acf114d7330ad84a893a52fcb314d50",
                        "0x00000000000000000000000016affa80c65fd7003d40b24edb96f77b38ddc96a"
                    ]
                },
                "nodeType": 1
            }
        },
        "gasFlame": [
            {
                "children": [
                    {
                        "children": [
                            {
                                "children": [],
                                "depth": 0,
                                "name": "Initial Gas",
                                "value": 21656
                            },
                            {
                                "children": [],
                                "depth": 0,
                                "name": "Executed Gas",
                                "value": 24739
                            }
                        ],
                        "depth": -1,
                        "name": "Actual Gas Used",
                        "value": 46395
                    },
                    {
                        "children": [],
                        "depth": -1,
                        "name": "Refunded Gas",
                        "value": 0
                    }
                ],
                "depth": -2,
                "name": "Total Gas",
                "value": 46395
            }
        ],
        "isConfirmed": true,
        "mainTrace": [
            {
                "children": [
                    {
                        "children": [
                            {
                                "children": [],
                                "depth": 1,
                                "id": 1,
                                "order": 1
                            }
                        ],
                        "depth": 0,
                        "id": 0,
                        "order": 0
                    }
                ],
                "depth": -1,
                "id": -1,
                "order": -1
            }
        ],
        "mainTraceNodeCount": 2,
        "parentIdMap": {
            "0": -1,
            "1": 0
        },
        "tidyTrace": [
            {
                "children": [
                    {
                        "children": [
                            {
                                "children": [],
                                "depth": 1,
                                "id": 1,
                                "order": 1
                            }
                        ],
                        "depth": 0,
                        "id": 0,
                        "order": 0
                    }
                ],
                "depth": -1,
                "id": -1,
                "order": -1
            }
        ],
        "tidyTraceNodeCount": 2
    },
    "state_change": {
        "stateChanges": [
            {
                "address": "0xe8fc52b1bb3a40fd8889c0f8f75879676310ddf0",
                "erc": "ERC-20",
                "slots": [
                    {
                        "current": "0x0000000000000000000000000000000000000000000001ebd92a7f496e2f8000",
                        "key": "0x8561e2d65484c9d5096caab69346a6c91cc74f3b3c4edc9d843ca3f8264ce13c",
                        "prev": "0x0000000000000000000000000000000000000000000000000000000000000000"
                    }
                ],
                "storageVariables": [
                    {
                        "name": "_allowances",
                        "type": "mapping(address => mapping(address => uint256))",
                        "value": {
                            "pairs": [
                                {
                                    "key": "0x251128b23acf114d7330ad84a893a52fcb314d50",
                                    "value": {
                                        "pairs": [
                                            {
                                                "key": "0x16affa80c65fd7003d40b24edb96f77b38ddc96a",
                                                "value": {
                                                    "current": "9072999800000000000000",
                                                    "prev": "0",
                                                    "typeTag": 1
                                                }
                                            }
                                        ],
                                        "typeTag": 4
                                    }
                                }
                            ],
                            "typeTag": 4
                        }
                    }
                ]
            }
        ]
    }
}