{
    "balance_change": {
        "balanceChanges": [
            {
                "account": "0x8c1c2d7c0bfd189ac1f45cdb1c5c2892aa86ee36",
                "assets": [
                    {
                        "address": "0xeeeeeeeeeeeeeeeeeeeeeeeeeeeeeeeeeeeeeeee",
                        "amount": "0.02",
                        "iconUrl": "https://assets.blocksec.com/image/1663669189317-3.png",
                        "isERC1155": false,
                        "isERC721": false,
                        "sign": false,
                        "value": ""
                    }
                ]
            },
            {
                "account": "0xd1ceeeeee83f8bcf3bedad437202b6154e9f5405",
                "assets": [
                    {
                        "address": "0xeeeeeeeeeeeeeeeeeeeeeeeeeeeeeeeeeeeeeeee",
                        "amount": "0.02",
                        "iconUrl": "https://assets.blocksec.com/image/1663669189317-3.png",
                        "isERC1155": false,
                        "isERC721": false,
                        "sign": true,
                        "value": ""
                    }
                ]
            }
        ]
    },
    "profile": {
        "basic_info": {
            "baseFee": "",
            "blockNumber": 9922603,
            "callData": "0x5e83b4630000000000000000000000000000000000000000000000000000000000000039000000000000000000000000000000000000000000000000000000000000000600000000000000000000000000000000000000000000000000000000009768f0937b50ce2af0c661924a5d111932f8c31b3771ed9c32cde6dd42349cac50a11c33bea312a7d4a575cdab1d14d65dce3dbcaa77a84ce8d238098c062a3de2a13cce2de0cb5d725109fe67d987b9983d3a377f0da04d4f668bb924225c5a004938",
            "debugEnable": true,
            "errorInfo": "",
            "eventCount": 1,
            "feeRecipient": "0x829bd824b016326a401d083b33d092293333a830",
            "formatValue": "0.02",
            "gasLimit": 150000,
            "gasPrice": "17",
            "gasUsed": 79975,
            "intTxnCount": 1,
            "internalRevert": false,
            "internalRevertMessage": "",
            "isContractCreation": false,
            "isFlashloan": false,
            "maxFee": "",
            "nonce": 2754,
            "overwritedBlockNumber": -1,
            "priorityFee": "",
            "receiver": "0xd1ceeeeee83f8bcf3bedad437202b6154e9f5405",
            "revertMessage": "",
            "sender": "0x8c1c2d7c0bfd189ac1f45cdb1c5c2892aa86ee36",
            "simulationEnable": true,
            "sourceTxnHash": "0xaa94df1f9ff351e596eca1113e4bb83fb1222aaf982c5d0be13dc895fba83df1",
            "status": true,
            "timestamp": "2020-04-22T13:49:05Z",
            "transactionFee": "0.001359575",
            "txnHash": "0xaa94df1f9ff351e596eca1113e4bb83fb1222aaf982c5d0be13dc895fba83df1",
            "txnIndex": 11,
            "type": 0,
            "value": "20000000000000000"
        },
        "fund_flow": [
            {
                "amount": "0.02",
                "from": "0x8c1c2d7c0bfd189ac1f45cdb1c5c2892aa86ee36",
                "id": 1,
                "isERC1155": false,
                "isERC721": false,
                "isReverted": false,
                "order": 1,
                "to": "0xd1ceeeeee83f8bcf3bedad437202b6154e9f5405",
                "token": "0xeeeeeeeeeeeeeeeeeeeeeeeeeeeeeeeeeeeeeeee"
            }
        ],
        "token_infos": [
            {
                "address": "0xc02aaa39b223fe8d0a0e5c4f27ead9083c756cc2",
                "decimals": 18
            },
            {
                "address": "0xeeeeeeeeeeeeeeeeeeeeeeeeeeeeeeeeeeeeeeee",
                "decimals": 18
            }
        ]
    },
    "address_label": {
        "labels": [
            {
                "address": "0x0000000000000000000000000000000000000003",
                "label": "Precompiled"
            },
            {
                "address": "0x0000000000000000000000000000000000000004",
                "label": "Precompiled"
            },
            {
                "address": "0xeeeeeeeeeeeeeeeeeeeeeeeeeeeeeeeeeeeeeeee",
                "label": "Ether"
            },
            {
                "address": "0xd1ceeeeee83f8bcf3bedad437202b6154e9f5405",
                "label": "Dice2Win"
            },
            {
                "address": "0x0000000000000000000000000000000000000001",
                "label": "Precompiled"
            },
            {
                "address": "0x0000000000000000000000000000000000000002",
                "label": "Precompiled"
            }
        ]
    },
    "trace": {
        "accountLabels": null,
        "dataMap": {
            "-1": {
                "invocation": {
                    "address": "0x8c1c2d7c0bfd189ac1f45cdb1c5c2892aa86ee36",
                    "callData": "",
                    "decodedMethod": null,
                    "errorInfo": "",
                    "fromAddress": "",
                    "gasUsed": 0,
                    "id": -1,
                    "methodDecoded": false,
                    "operation": "",
                    "output": "",
                    "revert": false,
                    "revertMessage": "",
                    "selector": "",
                    "status": false,
                    "value": ""
                },
                "nodeType": 0
            },
            "0": {
                "invocation": {
                    "address": "0xd1ceeeeee83f8bcf3bedad437202b6154e9f5405",
                    "callData": "0x0000000000000000000000000000000000000000000000000000000000000039000000000000000000000000000000000000000000000000000000000000000600000000000000000000000000000000000000000000000000000000009768f0937b50ce2af0c661924a5d111932f8c31b3771ed9c32cde6dd42349cac50a11c33bea312a7d4a575cdab1d14d65dce3dbcaa77a84ce8d238098c062a3de2a13cce2de0cb5d725109fe67d987b9983d3a377f0da04d4f668bb924225c5a004938",
                    "decodedMethod": {
                        "callParams": [
                            {
                                "name": "betMask",
                                "type": "uint256",
                                "value": "57"
                            },
                            {
                                "name": "modulo",
                                "type": "uint256",
                                "value": "6"
                            },
                            {
                                "name": "commitLastBlock",
                                "type": "uint256",
                                "value": "9,922,800"
                            },
                            {
                                "name": "commit",
                                "type": "uint256",
                                "value": "66,707,868,628,686,822,351,269,527,634,607,017,362,005,930,575,093,037,327,114,484,313,545,214,304,540"
                            },
                            {
                                "name": "r",
                                "type": "bytes32",
                                "value": "0x33bea312a7d4a575cdab1d14d65dce3dbcaa77a84ce8d238098c062a3de2a13c"
                            },
                            {
                                "name": "s",
                                "type": "bytes32",
                                "value": "0xce2de0cb5d725109fe67d987b9983d3a377f0da04d4f668bb924225c5a004938"
                            }
                        ],
                        "constructorArguments": "",
                        "name": "placeBet",
                        "returnParams": [],
                        "signature": "placeBet(uint256,uint256,uint256,uint256,bytes32,bytes32)"
                    },
                    "errorInfo": "",
                    "fromAddress": "0x8c1c2d7c0bfd189ac1f45cdb1c5c2892aa86ee36",
                    "gasUsed": 79975,
                    "id": 0,
                    "methodDecoded": true,
                    "operation": "CALL",
                    "output": "",
                    "revert": false,
                    "revertMessage": "",
                    "selector": "0x5e83b463",
                    "status": true,
                    "value": "0.02"
                },
                "nodeType": 0
            },
            "1": {
                "invocation": {
                    "address": "0x0000000000000000000000000000000000000001",
                    "callData": "0x4998a8f92dac0f447a17d89bc261c77b34efd883d9557c1d3e9a934b000000000000000000000000000000000000000000000000000000000000001b33bea312a7d4a575cdab1d14d65dce3dbcaa77a84ce8d238098c062a3de2a13cce2de0cb5d725109fe67d987b9983d3a377f0da04d4f668bb924225c5a004938",
                    "decodedMethod": {
                        "callParams": [
                            {
                                "name": "hash",
                                "type": "bytes32",
                                "value": "0xabf748744998a8f92dac0f447a17d89bc261c77b34efd883d9557c1d3e9a934b"
                            },
                            {
                                "name": "v",
                                "type": "uint256",
                                "value": "27"
                            },
                            {
                                "name": "r",
                                "type": "bytes32",
                                "value": "0x33bea312a7d4a575cdab1d14d65dce3dbcaa77a84ce8d238098c062a3de2a13c"
                            },
                            {
                                "name": "s",
                                "type": "bytes32",
                                "value": "0xce2de0cb5d725109fe67d987b9983d3a377f0da04d4f668bb924225c5a004938"
                            }
                        ],
                        "constructorArguments": "",
                        "name": "ecrecover",
                        "returnParams": [
                            {
                                "name": "",
                                "type": "address",
                                "value": "0xb00b5ca7ec0502f2f269e99b91ebbccbce9cccec"
                            }
                        ],
                        "signature": "ecrecover(bytes32,uint256,bytes32,bytes32)"
                    },
                    "errorInfo": "",
                    "fromAddress": "0xd1ceeeeee83f8bcf3bedad437202b6154e9f5405",
                    "gasUsed": 3000,
                    "id": 1,
                    "methodDecoded": true,
                    "operation": "CALL",
                    "output": "0x000000000000000000000000b00b5ca7ec0502f2f269e99b91ebbccbce9cccec",
                    "revert": false,
                    "revertMessage": "",
                    "selector": "0xabf74874",
                    "status": true,
                    "value": "0"
                },
                "nodeType": 0
            },
            "2": {
                "event": {
                    "contract": "0xd1ceeeeee83f8bcf3bedad437202b6154e9f5405",
                    "decodedLog": {
                        "name": "Commit",
                        "params": [
                            {
                                "name": "commit",
                                "type": "uint256",
                                "value": "66,707,868,628,686,822,351,269,527,634,607,017,362,005,930,575,093,037,327,114,484,313,545,214,304,540"
                            }
                        ],
                        "signature": "Commit(uint256)"
                    },
                    "id": 2,
                    "logData": "0x937b50ce2af0c661924a5d111932f8c31b3771ed9c32cde6dd42349cac50a11c",
                    "logDecoded": true,
                    "operation": "EVENT",
                    "revert": false,
                    "status": true,
                    "topics": [
                        "0x5bdd2fc99022530157777690475b670d3872f32262eb1d47d9ba8000dad58f87"
                    ]
                },
                "nodeType": 1
            }
        },
        "gasFlame": [
            {
                "children": [
                    {
                        "children": [
                            {
                                "children": [],
                                "depth": 0,
                                "name": "Initial Gas",
                                "value": 23032
                            },
                            {
                                "children": [
                                    {
                                        "children": [],
                                        "depth": 1,
                                        "name": "ecrecover",
                                        "value": 3000
                                    }
                                ],
                                "depth": 0,
                                "name": "Executed Gas",
                                "value": 56943
                            }
                        ],
                        "depth": -1,
                        "name": "Actual Gas Used",
                        "value": 79975
                    },
                    {
                        "children": [],
                        "depth": -1,
                        "name": "Refunded Gas",
                        "value": 0
                    }
                ],
                "depth": -2,
                "name": "Total Gas",
                "value": 79975
            }
        ],
        "isConfirmed": true,
        "mainTrace": [
            {
                "children": [
                    {
                        "children": [
                            {
                                "children": [],
                                "depth": 1,
                                "id": 1,
                                "order": 1
                            },
                            {
                                "children": [],
                                "depth": 1,
                                "id": 2,
                                "order": 2
                            }
                        ],
                        "depth": 0,
                        "id": 0,
                        "order": 0
                    }
                ],
                "depth": -1,
                "id": -1,
                "order": -1
            }
        ],
        "mainTraceNodeCount": 3,
        "parentIdMap": {
            "0": -1,
            "1": 0,
            "2": 0
        },
        "tidyTrace": [
            {
                "children": [
                    {
                        "children": [
                            {
                                "children": [],
                                "depth": 1,
                                "id": 1,
                                "order": 1
                            },
                            {
                                "children": [],
                                "depth": 1,
                                "id": 2,
                                "order": 2
                            }
                        ],
                        "depth": 0,
                        "id": 0,
                        "order": 0
                    }
                ],
                "depth": -1,
                "id": -1,
                "order": -1
            }
        ],
        "tidyTraceNodeCount": 3
    },
    "state_change": {
        "stateChanges": [
            {
                "address": "0xd1ceeeeee83f8bcf3bedad437202b6154e9f5405",
                "erc": "",
                "slots": [
                    {
                        "current": "0x00000000000000006297b8af3e0be00000000000000000002629f66e0c530000",
                        "key": "0x0000000000000000000000000000000000000000000000000000000000000004",
                        "prev": "0x0000000000000000622ebd1db8ef000000000000000000002629f66e0c530000"
                    },
                    {
                        "current": "0x00000000000000000000000000000000000000000000000000470de4df820000",
                        "key": "0x1c3573d3b9c8c809fe97ad2c9211ea1d531fd40422075a871ad8d24ac4a2a343",
                        "prev": "0x0000000000000000000000000000000000000000000000000000000000000000"
                    },
                    {
                        "current": "0x8c1c2d7c0bfd189ac1f45cdb1c5c2892aa86ee360000000039000097682b0406",
                        "key": "0x1c3573d3b9c8c809fe97ad2c9211ea1d531fd40422075a871ad8d24ac4a2a344",
                        "prev": "0x0000000000000000000000000000000000000000000000000000000000000000"
                    }
                ],
                "storageVariables": [
                    {
                        "name": "bets",
                        "type": "mapping(uint256 => struct Dice2Win.Bet)",
                        "value": {
                            "pairs": [
                                {
                                    "key": "66707868628686822351269527634607017362005930575093037327114484313545214304540",
                                    "value": {
                                        "fields": [
                                            {
                                                "name": "amount",
                                                "type": "uint256",
                                                "value": {
                                                    "current": "20000000000000000",
                                                    "prev": "0",
                                                    "typeTag": 1
                                                }
                                            },
                                            {
                                                "name": "modulo",
                                                "type": "uint8",
                                                "value": {
                                                    "current": "6",
                                                    "prev": "0",
                                                    "typeTag": 1
                                                }
                                            },
                                            {
                                                "name": "rollUnder",
                                                "type": "uint8",
                                                "value": {
                                                    "current": "4",
                                                    "prev": "0",
                                                    "typeTag": 1
                                                }
                                            },
                                            {
                                                "name": "placeBlockNumber",
                                                "type": "uint40",
                                                "value": {
                                                    "current": "9922603",
                                                    "prev": "0",
                                                    "typeTag": 1
                                                }
                                            },
                                            {
                                                "name": "mask",
                                                "type": "uint40",
                                                "value": {
                                                    "current": "57",
                                                    "prev": "0",
                                                    "typeTag": 1
                                                }
                                            },
                                            {
                                                "name": "gambler",
                                                "type": "address",
                                                "value": {
                                                    "current": "0x8c1c2d7c0bfd189ac1f45cdb1c5c2892aa86ee36",
                                                    "prev": "0x0000000000000000000000000000000000000000",
                                                    "typeTag": 1
                                                }
                                            }
                                        ],
                                        "typeTag": 3
                                    }
                                }
                            ],
                            "typeTag": 4
                        }
                    },
                    {
                        "name": "jackpotSize",
                        "type": "uint128",
                        "value": {
                            "current": "2750000000000000000",
                            "prev": "2750000000000000000",
                            "typeTag": 1
                        }
                    },
                    {
                        "name": "lockedInBets",
                        "type": "uint128",
                        "value": {
                            "current": "7104350000000000000",
                            "prev": "7074800000000000000",
                            "typeTag": 1
                        }
                    }
                ]
            }
        ]
    }
}