{
    "balance_change": {
        "balanceChanges": [
            {
                "account": "0x00a2b2a9d01a80d1c0219a4b4bc6a02541e3eaa3",
                "assets": [
                    {
                        "address": "0x912656188616e0184e3181f019022990a63280b1",
                        "amount": "51.36991524",
                        "iconUrl": "",
                        "isERC1155": false,
                        "isERC721": false,
                        "sign": false,
                        "value": ""
                    }
                ]
            },
            {
                "account": "0x87e0a5bbcffd0b916e7afea53929ef0bf1db75c7",
                "assets": [
                    {
                        "address": "0x912656188616e0184e3181f019022990a63280b1",
                        "amount": "51.36991524",
                        "iconUrl": "",
                        "isERC1155": false,
                        "isERC721": false,
                        "sign": true,
                        "value": ""
                    }
                ]
            }
        ]
    },
    "profile": {
        "basic_info": {
            "baseFee": "",
            "blockNumber": 10452025,
            "callData": "0xa9059cbb00000000000000000000000087e0a5bbcffd0b916e7afea53929ef0bf1db75c70000000000000000000000000000000000000000000000000000000132304524",
            "debugEnable": true,
            "errorInfo": "",
            "eventCount": 1,
            "feeRecipient": "0x5a0b54d5dc17e0aadc383d2db43b0a0d3e029c4c",
            "formatValue": "0",
            "gasLimit": 120000,
            "gasPrice": "120",
            "gasUsed": 51987,
            "intTxnCount": 0,
            "internalRevert": false,
            "internalRevertMessage": "",
            "isContractCreation": false,
            "isFlashloan": false,
            "maxFee": "",
            "nonce": 464916,
            "overwritedBlockNumber": -1,
            "priorityFee": "",
            "receiver": "0x912656188616e0184e3181f019022990a63280b1",
            "revertMessage": "",
            "sender": "0x00a2b2a9d01a80d1c0219a4b4bc6a02541e3eaa3",
            "simulationEnable": true,
            "sourceTxnHash": "0xaa357a1991506074e738975f2c8c4510a917d842ed83b6ecc1400567ac9a8533",
            "status": true,
            "timestamp": "2020-07-13T15:30:57Z",
            "transactionFee": "0.00623844",
            "txnHash": "0xaa357a1991506074e738975f2c8c4510a917d842ed83b6ecc1400567ac9a8533",
            "txnIndex": 29,
            "type": 0,
            "value": "0"
        },
        "fund_flow": [
            {
                "amount": "51.36991524",
                "from": "0x00a2b2a9d01a80d1c0219a4b4bc6a02541e3eaa3",
                "id": 1,
                "isERC1155": false,
                "isERC721": false,
                "isReverted": false,
                "order": 1,
                "to": "0x87e0a5bbcffd0b916e7afea53929ef0bf1db75c7",
                "token": "0x912656188616e0184e3181f019022990a63280b1"
            }
        ],
        "token_infos": [
            {
                "address": "0xc02aaa39b223fe8d0a0e5c4f27ead9083c756cc2",
                "decimals": 18
            },
            {
                "address": "0xeeeeeeeeeeeeeeeeeeeeeeeeeeeeeeeeeeeeeeee",
                "decimals": 18
            },
            {
                "address": "0x912656188616e0184e3181f019022990a63280b1",
                "decimals": 8
            }
        ]
    },
    "address_label": {
        "labels": [
            {
                "address": "0xeeeeeeeeeeeeeeeeeeeeeeeeeeeeeeeeeeeeeeee",
                "label": "Ether"
            },
            {
                "address": "0x912656188616e0184e3181f019022990a63280b1",
                "label": "POCC (POCC)"
            },
            {
                "address": "0x0000000000000000000000000000000000000001",
                "label": "Precompiled"
            },
            {
                "address": "0x0000000000000000000000000000000000000002",
                "label": "Precompiled"
            },
            {
                "address": "0x0000000000000000000000000000000000000003",
                "label": "Precompiled"
            },
            {
                "address": "0x0000000000000000000000000000000000000004",
                "label": "Precompiled"
            }
        ]
    },
    "trace": {
        "accountLabels": null,
        "dataMap": {
            "-1": {
                "invocation": {
                    "address": "0x00a2b2a9d01a80d1c0219a4b4bc6a02541e3eaa3",
                    "callData": "",
                    "decodedMethod": null,
                    "errorInfo": "",
                    "fromAddress": "",
                    "gasUsed": 0,
                    "id": -1,
                    "methodDecoded": false,
                    "operation": "",
                    "output": "",
                    "revert": false,
                    "revertMessage": "",
                    "selector": "",
                    "status": false,
                    "value": ""
                },
                "nodeType": 0
            },
            "0": {
                "invocation": {
                    "address": "0x912656188616e0184e3181f019022990a63280b1",
                    "callData": "0x00000000000000000000000087e0a5bbcffd0b916e7afea53929ef0bf1db75c70000000000000000000000000000000000000000000000000000000132304524",
                    "decodedMethod": {
                        "callParams": [
                            {
                                "name": "receiver",
                                "type": "address",
                                "value": "0x87e0a5bbcffd0b916e7afea53929ef0bf1db75c7"
                            },
                            {
                                "decimalAvailable": true,
                                "name": "numTokens",
                                "type": "uint256",
                                "value": "5,136,991,524"
                            }
                        ],
                        "constructorArguments": "",
                        "name": "transfer",
                        "returnParams": [
                            {
                                "name": "",
                                "type": "bool",
                                "value": true
                            }
                        ],
                        "signature": "transfer(address,uint256)"
                    },
                    "errorInfo": "",
                    "fromAddress": "0x00a2b2a9d01a80d1c0219a4b4bc6a02541e3eaa3",
                    "gasUsed": 51987,
                    "id": 0,
                    "methodDecoded": true,
                    "operation": "CALL",
                    "output": "0x0000000000000000000000000000000000000000000000000000000000000001",
                    "revert": false,
                    "revertMessage": "",
                    "selector": "0xa9059cbb",
                    "status": true,
                    "value": "0"
                },
                "nodeType": 0
            },
            "1": {
                "event": {
                    "contract": "0x912656188616e0184e3181f019022990a63280b1",
                    "decodedLog": {
                        "name": "Transfer",
                        "params": [
                            {
                                "name": "from",
                                "type": "address",
                                "value": "0x00a2b2a9d01a80d1c0219a4b4bc6a02541e3eaa3"
                            },
                            {
                                "name": "to",
                                "type": "address",
                                "value": "0x87e0a5bbcffd0b916e7afea53929ef0bf1db75c7"
                            },
                            {
                                "decimalAvailable": true,
                                "name": "tokens",
                                "type": "uint256",
                                "value": "5,136,991,524"
                            }
                        ],
                        "signature": "Transfer(address,address,uint256)"
                    },
                    "id": 1,
                    "logData": "0x0000000000000000000000000000000000000000000000000000000132304524",
                    "logDecoded": true,
                    "operation": "EVENT",
                    "revert": false,
                    "status": true,
                    "topics": [
                        "0xddf252ad1be2c89b69c2b068fc378daa952ba7f163c4a11628f55a4df523b3ef",
                        "0x00000000000000000000000000a2b2a9d01a80d1c0219a4b4bc6a02541e3eaa3",
                        "0x00000000000000000000000087e0a5bbcffd0b916e7afea53929ef0bf1db75c7"
                    ]
                },
                "nodeType": 1
            }
        },
        "gasFlame": [
            {
                "children": [
                    {
                        "children": [
                            {
                                "children": [],
                                "depth": 0,
                                "name": "Initial Gas",
                                "value": 21620
                            },
                            {
                                "children": [],
                                "depth": 0,
                                "name": "Executed Gas",
                                "value": 30367
                            }
                        ],
                        "depth": -1,
                        "name": "Actual Gas Used",
                        "value": 51987
                    },
                    {
                        "children": [],
                        "depth": -1,
                        "name": "Refunded Gas",
                        "value": 0
                    }
                ],
                "depth": -2,
                "name": "Total Gas",
                "value": 51987
            }
        ],
        "isConfirmed": true,
        "mainTrace": [
            {
                "children": [
                    {
                        "children": [
                            {
                                "children": [],
                                "depth": 1,
                                "id": 1,
                                "order": 1
                            }
                        ],
                        "depth": 0,
                        "id": 0,
                        "order": 0
                    }
                ],
                "depth": -1,
                "id": -1,
                "order": -1
            }
        ],
        "mainTraceNodeCount": 2,
        "parentIdMap": {
            "0": -1,
            "1": 0
        },
        "tidyTrace": [
            {
                "children": [
                    {
                        "children": [
                            {
                                "children": [],
                                "depth": 1,
                                "id": 1,
                                "order": 1
                            }
                        ],
                        "depth": 0,
                        "id": 0,
                        "order": 0
                    }
                ],
                "depth": -1,
                "id": -1,
                "order": -1
            }
        ],
        "tidyTraceNodeCount": 2
    },
    "state_change": {
        "stateChanges": [
            {
                "address": "0x912656188616e0184e3181f019022990a63280b1",
                "erc": "ERC-20",
                "slots": [
                    {
                        "current": "0x0000000000000000000000000000000000000000000000000000000132304524",
                        "key": "0xb11bd2ab3c0519d8a3c13d61fe15cd281e1f11fc68d488682a7b1c48d73d93b3",
                        "prev": "0x0000000000000000000000000000000000000000000000000000000000000000"
                    },
                    {
                        "current": "0x000000000000000000000000000000000000000000000000000591c8c9dfca36",
                        "key": "0x73f3ab4f0bb38a49e16eb4b8d3c4569238f2356ff852b581f316ae3a90142085",
                        "prev": "0x000000000000000000000000000000000000000000000000000591c9fc100f5a"
                    }
                ],
                "storageVariables": [
                    {
                        "name": "balances",
                        "type": "mapping(address => uint256)",
                        "value": {
                            "pairs": [
                                {
                                    "key": "0x00a2b2a9d01a80d1c0219a4b4bc6a02541e3eaa3",
                                    "value": {
                                        "current": "1567666449926710",
                                        "prev": "1567671586918234",
                                        "typeTag": 1
                                    }
                                },
                                {
                                    "key": "0x87e0a5bbcffd0b916e7afea53929ef0bf1db75c7",
                                    "value": {
                                        "current": "5136991524",
                                        "prev": "0",
                                        "typeTag": 1
                                    }
                                }
                            ],
                            "typeTag": 4
                        }
                    }
                ]
            }
        ]
    }
}