{
    "balance_change": {
        "balanceChanges": [
            {
                "account": "0x955d81e9a0ef56f332312b0cc476fc6235478b0f",
                "assets": [
                    {
                        "address": "0x5e7967eecd8828f5c50b5d1892da091fb797ecb6",
                        "amount": "626.450769710240551845",
                        "iconUrl": "",
                        "isERC1155": false,
                        "isERC721": false,
                        "sign": false,
                        "value": ""
                    },
                    {
                        "address": "0x514910771af9ca656af840dff83e8264ecf986ca",
                        "amount": "1,030.43657998399031423",
                        "iconUrl": "https://assets.blocksec.com/icon/f97453a18956674db69f16b525216d646fc76f3c7f90f0cd6147f8534d5af3e9.png",
                        "isERC1155": false,
                        "isERC721": false,
                        "sign": true,
                        "value": "13247.68849"
                    }
                ]
            },
            {
                "account": "0x5e7967eecd8828f5c50b5d1892da091fb797ecb6",
                "assets": [
                    {
                        "address": "0x514910771af9ca656af840dff83e8264ecf986ca",
                        "amount": "1,030.43657998399031423",
                        "iconUrl": "https://assets.blocksec.com/icon/f97453a18956674db69f16b525216d646fc76f3c7f90f0cd6147f8534d5af3e9.png",
                        "isERC1155": false,
                        "isERC721": false,
                        "sign": false,
                        "value": "13247.68849"
                    }
                ]
            },
            {
                "account": "0x0000000000000000000000000000000000000000",
                "assets": [
                    {
                        "address": "0x5e7967eecd8828f5c50b5d1892da091fb797ecb6",
                        "amount": "626.450769710240551845",
                        "iconUrl": "",
                        "isERC1155": false,
                        "isERC721": false,
                        "sign": true,
                        "value": ""
                    }
                ]
            }
        ]
    },
    "profile": {
        "basic_info": {
            "baseFee": "",
            "blockNumber": 10834712,
            "callData": "0x46ab38f1000000000000000000000000514910771af9ca656af840dff83e8264ecf986ca000000000000000000000000000000000000000000000021f5c037f918ecd3a50000000000000000000000000000000000000000000000000000000000000000",
            "debugEnable": true,
            "errorInfo": "",
            "eventCount": 6,
            "feeRecipient": "0x52bc44d5378309ee2abf1539bf71de1b7d7be3b5",
            "formatValue": "0",
            "gasLimit": 153643,
            "gasPrice": "251",
            "gasUsed": 99838,
            "intTxnCount": 1,
            "internalRevert": false,
            "internalRevertMessage": "",
            "isContractCreation": false,
            "isFlashloan": false,
            "maxFee": "",
            "nonce": 259,
            "overwritedBlockNumber": -1,
            "priorityFee": "",
            "receiver": "0x5e7967eecd8828f5c50b5d1892da091fb797ecb6",
            "revertMessage": "",
            "sender": "0x955d81e9a0ef56f332312b0cc476fc6235478b0f",
            "simulationEnable": true,
            "sourceTxnHash": "0xaa3df5e5de67e1af57fafbcaba3ece94bc438d949f8644ee1e0227be5040b7cc",
            "status": true,
            "timestamp": "2020-09-10T15:08:45Z",
            "transactionFee": "0.025059338",
            "txnHash": "0xaa3df5e5de67e1af57fafbcaba3ece94bc438d949f8644ee1e0227be5040b7cc",
            "txnIndex": 148,
            "type": 0,
            "value": "0"
        },
        "fund_flow": [
            {
                "amount": "626.450769710240551845",
                "from": "0x955d81e9a0ef56f332312b0cc476fc6235478b0f",
                "id": 1,
                "isERC1155": false,
                "isERC721": false,
                "isReverted": false,
                "order": 1,
                "to": "0x5e7967eecd8828f5c50b5d1892da091fb797ecb6",
                "token": "0x5e7967eecd8828f5c50b5d1892da091fb797ecb6"
            },
            {
                "amount": "626.450769710240551845",
                "from": "0x5e7967eecd8828f5c50b5d1892da091fb797ecb6",
                "id": 2,
                "isERC1155": false,
                "isERC721": false,
                "isReverted": false,
                "order": 2,
                "to": "0x0000000000000000000000000000000000000000",
                "token": "0x5e7967eecd8828f5c50b5d1892da091fb797ecb6"
            },
            {
                "amount": "0",
                "from": "0x5e7967eecd8828f5c50b5d1892da091fb797ecb6",
                "id": 3,
                "isERC1155": false,
                "isERC721": false,
                "isReverted": false,
                "order": 3,
                "to": "0x9424b1412450d0f8fc2255faf6046b98213b76bd",
                "token": "0x5e7967eecd8828f5c50b5d1892da091fb797ecb6"
            },
            {
                "amount": "1,030.43657998399031423",
                "from": "0x5e7967eecd8828f5c50b5d1892da091fb797ecb6",
                "id": 4,
                "isERC1155": false,
                "isERC721": false,
                "isReverted": false,
                "order": 4,
                "to": "0x955d81e9a0ef56f332312b0cc476fc6235478b0f",
                "token": "0x514910771af9ca656af840dff83e8264ecf986ca"
            }
        ],
        "token_infos": [
            {
                "address": "0xc02aaa39b223fe8d0a0e5c4f27ead9083c756cc2",
                "decimals": 18
            },
            {
                "address": "0xeeeeeeeeeeeeeeeeeeeeeeeeeeeeeeeeeeeeeeee",
                "decimals": 18
            },
            {
                "address": "0x514910771af9ca656af840dff83e8264ecf986ca",
                "decimals": 18
            },
            {
                "address": "0x5e7967eecd8828f5c50b5d1892da091fb797ecb6",
                "decimals": 18
            }
        ]
    },
    "address_label": {
        "labels": [
            {
                "address": "0x0000000000000000000000000000000000000002",
                "label": "Precompiled"
            },
            {
                "address": "0x0000000000000000000000000000000000000003",
                "label": "Precompiled"
            },
            {
                "address": "0x0000000000000000000000000000000000000004",
                "label": "Precompiled"
            },
            {
                "address": "0xeeeeeeeeeeeeeeeeeeeeeeeeeeeeeeeeeeeeeeee",
                "label": "Ether"
            },
            {
                "address": "0x514910771af9ca656af840dff83e8264ecf986ca",
                "label": "Chainlink: LINK Token"
            },
            {
                "address": "0x5e7967eecd8828f5c50b5d1892da091fb797ecb6",
                "label": "BPT"
            },
            {
                "address": "0x0000000000000000000000000000000000000001",
                "label": "Precompiled"
            }
        ]
    },
    "trace": {
        "accountLabels": null,
        "dataMap": {
            "-1": {
                "invocation": {
                    "address": "0x955d81e9a0ef56f332312b0cc476fc6235478b0f",
                    "callData": "",
                    "decodedMethod": null,
                    "errorInfo": "",
                    "fromAddress": "",
                    "gasUsed": 0,
                    "id": -1,
                    "methodDecoded": false,
                    "operation": "",
                    "output": "",
                    "revert": false,
                    "revertMessage": "",
                    "selector": "",
                    "status": false,
                    "value": ""
                },
                "nodeType": 0
            },
            "0": {
                "invocation": {
                    "address": "0x5e7967eecd8828f5c50b5d1892da091fb797ecb6",
                    "callData": "0x000000000000000000000000514910771af9ca656af840dff83e8264ecf986ca000000000000000000000000000000000000000000000021f5c037f918ecd3a50000000000000000000000000000000000000000000000000000000000000000",
                    "decodedMethod": {
                        "callParams": [
                            {
                                "name": "tokenOut",
                                "type": "address",
                                "value": "0x514910771af9ca656af840dff83e8264ecf986ca"
                            },
                            {
                                "name": "poolAmountIn",
                                "type": "uint256",
                                "value": "626,450,769,710,240,551,845"
                            },
                            {
                                "name": "minAmountOut",
                                "type": "uint256",
                                "value": "0"
                            }
                        ],
                        "constructorArguments": "",
                        "name": "exitswapPoolAmountIn",
                        "returnParams": [
                            {
                                "name": "tokenAmountOut",
                                "type": "uint256",
                                "value": "1,030,436,579,983,990,314,230"
                            }
                        ],
                        "signature": "exitswapPoolAmountIn(address,uint256,uint256)"
                    },
                    "errorInfo": "",
                    "fromAddress": "0x955d81e9a0ef56f332312b0cc476fc6235478b0f",
                    "gasUsed": 99838,
                    "id": 0,
                    "methodDecoded": true,
                    "operation": "CALL",
                    "output": "0x000000000000000000000000000000000000000000000037dc2e22022a21d4f6",
                    "revert": false,
                    "revertMessage": "",
                    "selector": "0x46ab38f1",
                    "status": true,
                    "value": "0"
                },
                "nodeType": 0
            },
            "1": {
                "event": {
                    "contract": "0x5e7967eecd8828f5c50b5d1892da091fb797ecb6",
                    "decodedLog": null,
                    "id": 1,
                    "logData": "0x0000000000000000000000000000000000000000000000000000000000000020000000000000000000000000000000000000000000000000000000000000006446ab38f1000000000000000000000000514910771af9ca656af840dff83e8264ecf986ca000000000000000000000000000000000000000000000021f5c037f918ecd3a5000000000000000000000000000000000000000000000000000000000000000000000000000000000000000000000000000000000000000000000000",
                    "logDecoded": false,
                    "operation": "EVENT",
                    "revert": false,
                    "status": true,
                    "topics": [
                        "0x46ab38f100000000000000000000000000000000000000000000000000000000",
                        "0x000000000000000000000000955d81e9a0ef56f332312b0cc476fc6235478b0f"
                    ]
                },
                "nodeType": 1
            },
            "2": {
                "event": {
                    "contract": "0x5e7967eecd8828f5c50b5d1892da091fb797ecb6",
                    "decodedLog": {
                        "name": "LOG_EXIT",
                        "params": [
                            {
                                "name": "caller",
                                "type": "address",
                                "value": "0x955d81e9a0ef56f332312b0cc476fc6235478b0f"
                            },
                            {
                                "name": "tokenOut",
                                "type": "address",
                                "value": "0x514910771af9ca656af840dff83e8264ecf986ca"
                            },
                            {
                                "name": "tokenAmountOut",
                                "type": "uint256",
                                "value": "1,030,436,579,983,990,314,230"
                            }
                        ],
                        "signature": "LOG_EXIT(address,address,uint256)"
                    },
                    "id": 2,
                    "logData": "0x000000000000000000000000000000000000000000000037dc2e22022a21d4f6",
                    "logDecoded": true,
                    "operation": "EVENT",
                    "revert": false,
                    "status": true,
                    "topics": [
                        "0xe74c91552b64c2e2e7bd255639e004e693bd3e1d01cc33e65610b86afcc1ffed",
                        "0x000000000000000000000000955d81e9a0ef56f332312b0cc476fc6235478b0f",
                        "0x000000000000000000000000514910771af9ca656af840dff83e8264ecf986ca"
                    ]
                },
                "nodeType": 1
            },
            "3": {
                "event": {
                    "contract": "0x5e7967eecd8828f5c50b5d1892da091fb797ecb6",
                    "decodedLog": {
                        "name": "Transfer",
                        "params": [
                            {
                                "name": "src",
                                "type": "address",
                                "value": "0x955d81e9a0ef56f332312b0cc476fc6235478b0f"
                            },
                            {
                                "name": "dst",
                                "type": "address",
                                "value": "0x5e7967eecd8828f5c50b5d1892da091fb797ecb6"
                            },
                            {
                                "decimalAvailable": true,
                                "name": "amt",
                                "type": "uint256",
                                "value": "626,450,769,710,240,551,845"
                            }
                        ],
                        "signature": "Transfer(address,address,uint256)"
                    },
                    "id": 3,
                    "logData": "0x000000000000000000000000000000000000000000000021f5c037f918ecd3a5",
                    "logDecoded": true,
                    "operation": "EVENT",
                    "revert": false,
                    "status": true,
                    "topics": [
                        "0xddf252ad1be2c89b69c2b068fc378daa952ba7f163c4a11628f55a4df523b3ef",
                        "0x000000000000000000000000955d81e9a0ef56f332312b0cc476fc6235478b0f",
                        "0x0000000000000000000000005e7967eecd8828f5c50b5d1892da091fb797ecb6"
                    ]
                },
                "nodeType": 1
            },
            "4": {
                "event": {
                    "contract": "0x5e7967eecd8828f5c50b5d1892da091fb797ecb6",
                    "decodedLog": {
                        "name": "Transfer",
                        "params": [
                            {
                                "name": "src",
                                "type": "address",
                                "value": "0x5e7967eecd8828f5c50b5d1892da091fb797ecb6"
                            },
                            {
                                "name": "dst",
                                "type": "address",
                                "value": "0x0000000000000000000000000000000000000000"
                            },
                            {
                                "decimalAvailable": true,
                                "name": "amt",
                                "type": "uint256",
                                "value": "626,450,769,710,240,551,845"
                            }
                        ],
                        "signature": "Transfer(address,address,uint256)"
                    },
                    "id": 4,
                    "logData": "0x000000000000000000000000000000000000000000000021f5c037f918ecd3a5",
                    "logDecoded": true,
                    "operation": "EVENT",
                    "revert": false,
                    "status": true,
                    "topics": [
                        "0xddf252ad1be2c89b69c2b068fc378daa952ba7f163c4a11628f55a4df523b3ef",
                        "0x0000000000000000000000005e7967eecd8828f5c50b5d1892da091fb797ecb6",
                        "0x0000000000000000000000000000000000000000000000000000000000000000"
                    ]
                },
                "nodeType": 1
            },
            "5": {
                "event": {
                    "contract": "0x5e7967eecd8828f5c50b5d1892da091fb797ecb6",
                    "decodedLog": {
                        "name": "Transfer",
                        "params": [
                            {
                                "name": "src",
                                "type": "address",
                                "value": "0x5e7967eecd8828f5c50b5d1892da091fb797ecb6"
                            },
                            {
                                "name": "dst",
                                "type": "address",
                                "value": "0x9424b1412450d0f8fc2255faf6046b98213b76bd"
                            },
                            {
                                "decimalAvailable": true,
                                "name": "amt",
                                "type": "uint256",
                                "value": "0"
                            }
                        ],
                        "signature": "Transfer(address,address,uint256)"
                    },
                    "id": 5,
                    "logData": "0x0000000000000000000000000000000000000000000000000000000000000000",
                    "logDecoded": true,
                    "operation": "EVENT",
                    "revert": false,
                    "status": true,
                    "topics": [
                        "0xddf252ad1be2c89b69c2b068fc378daa952ba7f163c4a11628f55a4df523b3ef",
                        "0x0000000000000000000000005e7967eecd8828f5c50b5d1892da091fb797ecb6",
                        "0x0000000000000000000000009424b1412450d0f8fc2255faf6046b98213b76bd"
                    ]
                },
                "nodeType": 1
            },
            "6": {
                "invocation": {
                    "address": "0x514910771af9ca656af840dff83e8264ecf986ca",
                    "callData": "0x000000000000000000000000955d81e9a0ef56f332312b0cc476fc6235478b0f000000000000000000000000000000000000000000000037dc2e22022a21d4f6",
                    "decodedMethod": {
                        "callParams": [
                            {
                                "name": "_to",
                                "type": "address",
                                "value": "0x955d81e9a0ef56f332312b0cc476fc6235478b0f"
                            },
                            {
                                "decimalAvailable": true,
                                "name": "_value",
                                "type": "uint256",
                                "value": "1,030,436,579,983,990,314,230"
                            }
                        ],
                        "constructorArguments": "",
                        "name": "transfer",
                        "returnParams": [
                            {
                                "name": "success",
                                "type": "bool",
                                "value": true
                            }
                        ],
                        "signature": "transfer(address,uint256)"
                    },
                    "errorInfo": "",
                    "fromAddress": "0x5e7967eecd8828f5c50b5d1892da091fb797ecb6",
                    "gasUsed": 29945,
                    "id": 6,
                    "methodDecoded": true,
                    "operation": "CALL",
                    "output": "0x0000000000000000000000000000000000000000000000000000000000000001",
                    "revert": false,
                    "revertMessage": "",
                    "selector": "0xa9059cbb",
                    "status": true,
                    "value": "0"
                },
                "nodeType": 0
            },
            "7": {
                "event": {
                    "contract": "0x514910771af9ca656af840dff83e8264ecf986ca",
                    "decodedLog": {
                        "name": "Transfer",
                        "params": [
                            {
                                "name": "from",
                                "type": "address",
                                "value": "0x5e7967eecd8828f5c50b5d1892da091fb797ecb6"
                            },
                            {
                                "name": "to",
                                "type": "address",
                                "value": "0x955d81e9a0ef56f332312b0cc476fc6235478b0f"
                            },
                            {
                                "decimalAvailable": true,
                                "name": "value",
                                "type": "uint256",
                                "value": "1,030,436,579,983,990,314,230"
                            }
                        ],
                        "signature": "Transfer(address,address,uint256)"
                    },
                    "id": 7,
                    "logData": "0x000000000000000000000000000000000000000000000037dc2e22022a21d4f6",
                    "logDecoded": true,
                    "operation": "EVENT",
                    "revert": false,
                    "status": true,
                    "topics": [
                        "0xddf252ad1be2c89b69c2b068fc378daa952ba7f163c4a11628f55a4df523b3ef",
                        "0x0000000000000000000000005e7967eecd8828f5c50b5d1892da091fb797ecb6",
                        "0x000000000000000000000000955d81e9a0ef56f332312b0cc476fc6235478b0f"
                    ]
                },
                "nodeType": 1
            }
        },
        "gasFlame": [
            {
                "children": [
                    {
                        "children": [
                            {
                                "children": [],
                                "depth": 0,
                                "name": "Initial Gas",
                                "value": 21796
                            },
                            {
                                "children": [
                                    {
                                        "children": [],
                                        "depth": 1,
                                        "name": "transfer",
                                        "value": 29945
                                    }
                                ],
                                "depth": 0,
                                "name": "Executed Gas",
                                "value": 116442
                            }
                        ],
                        "depth": -1,
                        "name": "Actual Gas Used",
                        "value": 99838
                    },
                    {
                        "children": [],
                        "depth": -1,
                        "name": "Refunded Gas",
                        "value": 38400
                    }
                ],
                "depth": -2,
                "name": "Total Gas",
                "value": 138238
            }
        ],
        "isConfirmed": true,
        "mainTrace": [
            {
                "children": [
                    {
                        "children": [
                            {
                                "children": [],
                                "depth": 1,
                                "id": 1,
                                "order": 1
                            },
                            {
                                "children": [],
                                "depth": 1,
                                "id": 2,
                                "order": 2
                            },
                            {
                                "children": [],
                                "depth": 1,
                                "id": 3,
                                "order": 3
                            },
                            {
                                "children": [],
                                "depth": 1,
                                "id": 4,
                                "order": 4
                            },
                            {
                                "children": [],
                                "depth": 1,
                                "id": 5,
                                "order": 5
                            },
                            {
                                "children": [
                                    {
                                        "children": [],
                                        "depth": 2,
                                        "id": 7,
                                        "order": 7
                                    }
                                ],
                                "depth": 1,
                                "id": 6,
                                "order": 6
                            }
                        ],
                        "depth": 0,
                        "id": 0,
                        "order": 0
                    }
                ],
                "depth": -1,
                "id": -1,
                "order": -1
            }
        ],
        "mainTraceNodeCount": 8,
        "parentIdMap": {
            "0": -1,
            "1": 0,
            "2": 0,
            "3": 0,
            "4": 0,
            "5": 0,
            "6": 0,
            "7": 6
        },
        "tidyTrace": [
            {
                "children": [
                    {
                        "children": [
                            {
                                "children": [],
                                "depth": 1,
                                "id": 1,
                                "order": 1
                            },
                            {
                                "children": [],
                                "depth": 1,
                                "id": 2,
                                "order": 2
                            },
                            {
                                "children": [],
                                "depth": 1,
                                "id": 3,
                                "order": 3
                            },
                            {
                                "children": [],
                                "depth": 1,
                                "id": 4,
                                "order": 4
                            },
                            {
                                "children": [],
                                "depth": 1,
                                "id": 5,
                                "order": 5
                            },
                            {
                                "children": [
                                    {
                                        "children": [],
                                        "depth": 2,
                                        "id": 7,
                                        "order": 7
                                    }
                                ],
                                "depth": 1,
                                "id": 6,
                                "order": 6
                            }
                        ],
                        "depth": 0,
                        "id": 0,
                        "order": 0
                    }
                ],
                "depth": -1,
                "id": -1,
                "order": -1
            }
        ],
        "tidyTraceNodeCount": 8
    },
    "state_change": {
        "stateChanges": [
            {
                "address": "0x514910771af9ca656af840dff83e8264ecf986ca",
                "erc": "",
                "slots": [
                    {
                        "current": "0x000000000000000000000000000000000000000000000037dc2e22022a21d4f6",
                        "key": "0x4f5beff277798203a5c5b3ab7afdf89728fe16d02d8784c23015b256e438ce41",
                        "prev": "0x0000000000000000000000000000000000000000000000000000000000000000"
                    },
                    {
                        "current": "0x00000000000000000000000000000000000000000000122c5ab9113de2c65e86",
                        "key": "0x5c926defcb3bbe5693172d530c28f3e26a78478785000845719e3afbf86df782",
                        "prev": "0x00000000000000000000000000000000000000000000126436e733400ce8337c"
                    }
                ],
                "storageVariables": [
                    {
                        "name": "balances",
                        "type": "mapping(address => uint256)",
                        "value": {
                            "pairs": [
                                {
                                    "key": "0x5e7967eecd8828f5c50b5d1892da091fb797ecb6",
                                    "value": {
                                        "current": "85820790706188434431622",
                                        "prev": "86851227286172424745852",
                                        "typeTag": 1
                                    }
                                },
                                {
                                    "key": "0x955d81e9a0ef56f332312b0cc476fc6235478b0f",
                                    "value": {
                                        "current": "1030436579983990314230",
                                        "prev": "0",
                                        "typeTag": 1
                                    }
                                }
                            ],
                            "typeTag": 4
                        }
                    }
                ]
            },
            {
                "address": "0x5e7967eecd8828f5c50b5d1892da091fb797ecb6",
                "erc": "ERC-20",
                "slots": [
                    {
                        "current": "0x00000000000000000000000000000000000000000000122c5ab9113de2c65e86",
                        "key": "0xc8b0053af66e34563eef51d9e903539c0b7f677d87f2259d706bf5e6ced8dafd",
                        "prev": "0x00000000000000000000000000000000000000000000126436e733400ce8337c"
                    },
                    {
                        "current": "0x0000000000000000000000000000000000000000000000000000000000000000",
                        "key": "0x38baef641e2e2a62c909c59245c328f8b95391140699d3918986571597642c31",
                        "prev": "0x000000000000000000000000000000000000000000000021f5c037f918ecd3a5"
                    },
                    {
                        "current": "0x000000000000000000000000000000000000000000000ba1af6c5e3fd9caff75",
                        "key": "0x0000000000000000000000000000000000000000000000000000000000000002",
                        "prev": "0x000000000000000000000000000000000000000000000bc3a52c9638f2b7d31a"
                    }
                ],
                "storageVariables": [
                    {
                        "name": "_totalSupply",
                        "type": "uint256",
                        "value": {
                            "current": "54928597689315787210613",
                            "prev": "55555048459026027762458",
                            "typeTag": 1
                        }
                    },
                    {
                        "name": "_records",
                        "type": "mapping(address => struct BPool.Record)",
                        "value": {
                            "pairs": [
                                {
                                    "key": "0x514910771af9ca656af840dff83e8264ecf986ca",
                                    "value": {
                                        "fields": [
                                            {
                                                "name": "balance",
                                                "type": "uint256",
                                                "value": {
                                                    "current": "85820790706188434431622",
                                                    "prev": "86851227286172424745852",
                                                    "typeTag": 1
                                                }
                                            }
                                        ],
                                        "typeTag": 3
                                    }
                                }
                            ],
                            "typeTag": 4
                        }
                    },
                    {
                        "name": "_balance",
                        "type": "mapping(address => uint256)",
                        "value": {
                            "pairs": [
                                {
                                    "key": "0x955d81e9a0ef56f332312b0cc476fc6235478b0f",
                                    "value": {
                                        "current": "0",
                                        "prev": "626450769710240551845",
                                        "typeTag": 1
                                    }
                                }
                            ],
                            "typeTag": 4
                        }
                    }
                ]
            }
        ]
    }
}