{
    "balance_change": {
        "balanceChanges": [
            {
                "account": "0x3aff86656a65f3d81b3e0b4c4f8d4199f3b3fbde",
                "assets": [
                    {
                        "address": "0x8290333cef9e6d528dd5618fb97a76f268f3edd4",
                        "amount": "251,764.99999999",
                        "iconUrl": "",
                        "isERC1155": false,
                        "isERC721": false,
                        "sign": false,
                        "value": "4540.66228"
                    }
                ]
            },
            {
                "account": "0x1c17622cfa9b6fd2043a76dfc39a5b5a109aa708",
                "assets": [
                    {
                        "address": "0x8290333cef9e6d528dd5618fb97a76f268f3edd4",
                        "amount": "251,764.99999999",
                        "iconUrl": "",
                        "isERC1155": false,
                        "isERC721": false,
                        "sign": true,
                        "value": "4540.66228"
                    }
                ]
            }
        ]
    },
    "profile": {
        "basic_info": {
            "baseFee": "31.300669739",
            "blockNumber": 17762357,
            "callData": "0xa9059cbb0000000000000000000000001c17622cfa9b6fd2043a76dfc39a5b5a109aa708000000000000000000000000000000000000000000003550353f57da28a81c00",
            "debugEnable": true,
            "errorInfo": "",
            "eventCount": 1,
            "feeRecipient": "0x95222290dd7278aa3ddd389cc1e1d165cc4bafe5",
            "formatValue": "0",
            "gasLimit": 80000,
            "gasPrice": "33.300669739",
            "gasUsed": 30065,
            "intTxnCount": 0,
            "internalRevert": false,
            "internalRevertMessage": "",
            "isContractCreation": false,
            "isFlashloan": false,
            "maxFee": "66.706540902",
            "nonce": 51438,
            "overwritedBlockNumber": -1,
            "priorityFee": "2",
            "receiver": "0x8290333cef9e6d528dd5618fb97a76f268f3edd4",
            "revertMessage": "",
            "sender": "0x3aff86656a65f3d81b3e0b4c4f8d4199f3b3fbde",
            "simulationEnable": true,
            "sourceTxnHash": "0xaa2a8680ff3fa40cf3340801d1fc448304ee8afcf23c4247db72ff916c49f602",
            "status": true,
            "timestamp": "2023-07-24T10:26:23Z",
            "transactionFee": "0.001001184635703035",
            "txnHash": "0xaa2a8680ff3fa40cf3340801d1fc448304ee8afcf23c4247db72ff916c49f602",
            "txnIndex": 65,
            "type": 2,
            "value": "0"
        },
        "fund_flow": [
            {
                "amount": "251,764.99999999",
                "from": "0x3aff86656a65f3d81b3e0b4c4f8d4199f3b3fbde",
                "id": 1,
                "isERC1155": false,
                "isERC721": false,
                "isReverted": false,
                "order": 1,
                "to": "0x1c17622cfa9b6fd2043a76dfc39a5b5a109aa708",
                "token": "0x8290333cef9e6d528dd5618fb97a76f268f3edd4"
            }
        ],
        "token_infos": [
            {
                "address": "0x8290333cef9e6d528dd5618fb97a76f268f3edd4",
                "decimals": 18
            },
            {
                "address": "0xc02aaa39b223fe8d0a0e5c4f27ead9083c756cc2",
                "decimals": 18
            },
            {
                "address": "0xeeeeeeeeeeeeeeeeeeeeeeeeeeeeeeeeeeeeeeee",
                "decimals": 18
            }
        ]
    },
    "address_label": {
        "labels": [
            {
                "address": "0x0000000000000000000000000000000000000002",
                "label": "Precompiled"
            },
            {
                "address": "0x0000000000000000000000000000000000000003",
                "label": "Precompiled"
            },
            {
                "address": "0x0000000000000000000000000000000000000004",
                "label": "Precompiled"
            },
            {
                "address": "0xeeeeeeeeeeeeeeeeeeeeeeeeeeeeeeeeeeeeeeee",
                "label": "Ether"
            },
            {
                "address": "0x1c17622cfa9b6fd2043a76dfc39a5b5a109aa708",
                "label": "BtcTurk 3"
            },
            {
                "address": "0x8290333cef9e6d528dd5618fb97a76f268f3edd4",
                "label": "Ankr Network: ANKR Token"
            },
            {
                "address": "0x0000000000000000000000000000000000000001",
                "label": "Precompiled"
            }
        ]
    },
    "trace": {
        "accountLabels": null,
        "dataMap": {
            "-1": {
                "invocation": {
                    "address": "0x3aff86656a65f3d81b3e0b4c4f8d4199f3b3fbde",
                    "callData": "",
                    "decodedMethod": null,
                    "errorInfo": "",
                    "fromAddress": "",
                    "gasUsed": 0,
                    "id": -1,
                    "methodDecoded": false,
                    "operation": "",
                    "output": "",
                    "revert": false,
                    "revertMessage": "",
                    "selector": "",
                    "status": false,
                    "value": ""
                },
                "nodeType": 0
            },
            "0": {
                "invocation": {
                    "address": "0x8290333cef9e6d528dd5618fb97a76f268f3edd4",
                    "callData": "0x0000000000000000000000001c17622cfa9b6fd2043a76dfc39a5b5a109aa708000000000000000000000000000000000000000000003550353f57da28a81c00",
                    "decodedMethod": {
                        "callParams": [
                            {
                                "name": "_to",
                                "type": "address",
                                "value": "0x1c17622cfa9b6fd2043a76dfc39a5b5a109aa708"
                            },
                            {
                                "decimalAvailable": true,
                                "name": "_value",
                                "type": "uint256",
                                "value": "251,764,999,999,990,000,000,000"
                            }
                        ],
                        "constructorArguments": "",
                        "name": "transfer",
                        "returnParams": [
                            {
                                "name": "",
                                "type": "bool",
                                "value": true
                            }
                        ],
                        "signature": "transfer(address,uint256)"
                    },
                    "errorInfo": "",
                    "fromAddress": "0x3aff86656a65f3d81b3e0b4c4f8d4199f3b3fbde",
                    "gasUsed": 30065,
                    "id": 0,
                    "methodDecoded": true,
                    "operation": "CALL",
                    "output": "0x0000000000000000000000000000000000000000000000000000000000000001",
                    "revert": false,
                    "revertMessage": "",
                    "selector": "0xa9059cbb",
                    "status": true,
                    "value": "0"
                },
                "nodeType": 0
            },
            "1": {
                "event": {
                    "contract": "0x8290333cef9e6d528dd5618fb97a76f268f3edd4",
                    "decodedLog": {
                        "name": "Transfer",
                        "params": [
                            {
                                "name": "from",
                                "type": "address",
                                "value": "0x3aff86656a65f3d81b3e0b4c4f8d4199f3b3fbde"
                            },
                            {
                                "name": "to",
                                "type": "address",
                                "value": "0x1c17622cfa9b6fd2043a76dfc39a5b5a109aa708"
                            },
                            {
                                "decimalAvailable": true,
                                "name": "value",
                                "type": "uint256",
                                "value": "251,764,999,999,990,000,000,000"
                            }
                        ],
                        "signature": "Transfer(address,address,uint256)"
                    },
                    "id": 1,
                    "logData": "0x000000000000000000000000000000000000000000003550353f57da28a81c00",
                    "logDecoded": true,
                    "operation": "EVENT",
                    "revert": false,
                    "status": true,
                    "topics": [
                        "0xddf252ad1be2c89b69c2b068fc378daa952ba7f163c4a11628f55a4df523b3ef",
                        "0x0000000000000000000000003aff86656a65f3d81b3e0b4c4f8d4199f3b3fbde",
                        "0x0000000000000000000000001c17622cfa9b6fd2043a76dfc39a5b5a109aa708"
                    ]
                },
                "nodeType": 1
            }
        },
        "gasFlame": [
            {
                "children": [
                    {
                        "children": [
                            {
                                "children": [],
                                "depth": 0,
                                "name": "Initial Gas",
                                "value": 21668
                            },
                            {
                                "children": [],
                                "depth": 0,
                                "name": "Executed Gas",
                                "value": 13197
                            }
                        ],
                        "depth": -1,
                        "name": "Actual Gas Used",
                        "value": 30065
                    },
                    {
                        "children": [],
                        "depth": -1,
                        "name": "Refunded Gas",
                        "value": 4800
                    }
                ],
                "depth": -2,
                "name": "Total Gas",
                "value": 34865
            }
        ],
        "isConfirmed": true,
        "mainTrace": [
            {
                "children": [
                    {
                        "children": [
                            {
                                "children": [],
                                "depth": 1,
                                "id": 1,
                                "order": 1
                            }
                        ],
                        "depth": 0,
                        "id": 0,
                        "order": 0
                    }
                ],
                "depth": -1,
                "id": -1,
                "order": -1
            }
        ],
        "mainTraceNodeCount": 2,
        "parentIdMap": {
            "0": -1,
            "1": 0
        },
        "tidyTrace": [
            {
                "children": [
                    {
                        "children": [
                            {
                                "children": [],
                                "depth": 1,
                                "id": 1,
                                "order": 1
                            }
                        ],
                        "depth": 0,
                        "id": 0,
                        "order": 0
                    }
                ],
                "depth": -1,
                "id": -1,
                "order": -1
            }
        ],
        "tidyTraceNodeCount": 2
    },
    "state_change": {
        "stateChanges": [
            {
                "address": "0x8290333cef9e6d528dd5618fb97a76f268f3edd4",
                "erc": "ERC-20",
                "slots": [
                    {
                        "current": "0x0000000000000000000000000000000000000000000000000000000000000000",
                        "key": "0x53d8dea7d9fe72d84a8f6d5446bd6fc27b7a66c40e2b581abcc1ae83f159ca8f",
                        "prev": "0x000000000000000000000000000000000000000000003550353f57da28a81c00"
                    },
                    {
                        "current": "0x00000000000000000000000000000000000000000015069fe50500587e107800",
                        "key": "0x132b44f76efe0fa6ce9e6e84e0cbc3fab5a0a723c2c973b4da32bd4dda55b19a",
                        "prev": "0x00000000000000000000000000000000000000000014d14fafc5a87e55685c00"
                    }
                ],
                "storageVariables": [
                    {
                        "name": "balances",
                        "type": "mapping(address => uint256)",
                        "value": {
                            "pairs": [
                                {
                                    "key": "0x1c17622cfa9b6fd2043a76dfc39a5b5a109aa708",
                                    "value": {
                                        "current": "25418725945708940000000000",
                                        "prev": "25166960945708950000000000",
                                        "typeTag": 1
                                    }
                                },
                                {
                                    "key": "0x3aff86656a65f3d81b3e0b4c4f8d4199f3b3fbde",
                                    "value": {
                                        "current": "0",
                                        "prev": "251764999999990000000000",
                                        "typeTag": 1
                                    }
                                }
                            ],
                            "typeTag": 4
                        }
                    }
                ]
            }
        ]
    }
}