{
    "balance_change": {
        "balanceChanges": [
            {
                "account": "0x3da0de1fd0a7735e686c32ff81226f6c0901a7d7",
                "assets": [
                    {
                        "address": "0xeeeeeeeeeeeeeeeeeeeeeeeeeeeeeeeeeeeeeeee",
                        "amount": "0.003062461945674616",
                        "iconUrl": "https://assets.blocksec.com/image/1663669189317-3.png",
                        "isERC1155": false,
                        "isERC721": false,
                        "sign": false,
                        "value": "5.005073432206179777"
                    },
                    {
                        "address": "0x57f1887a8bf19b14fc0df6fd9b2acc9af147ea85",
                        "amount": "1",
                        "iconUrl": "https://assets.blocksec.com/nft/icon/nft_be0542b7-4f14-457c-a46f-8a69d57f084c.png",
                        "isERC1155": false,
                        "isERC721": true,
                        "sign": true,
                        "tokenID": "80165236614317745708158726809448463996505758051254075427600066438589161050338",
                        "value": ""
                    }
                ]
            },
            {
                "account": "0x283af0b28c62c092c9727f1ee09c02ca627eb7f5",
                "assets": [
                    {
                        "address": "0xeeeeeeeeeeeeeeeeeeeeeeeeeeeeeeeeeeeeeeee",
                        "amount": "0.003062461945674616",
                        "iconUrl": "https://assets.blocksec.com/image/1663669189317-3.png",
                        "isERC1155": false,
                        "isERC721": false,
                        "sign": true,
                        "value": "5.005073432206179777"
                    }
                ]
            },
            {
                "account": "0x0000000000000000000000000000000000000000",
                "assets": [
                    {
                        "address": "0x57f1887a8bf19b14fc0df6fd9b2acc9af147ea85",
                        "amount": "1",
                        "iconUrl": "https://assets.blocksec.com/nft/icon/nft_be0542b7-4f14-457c-a46f-8a69d57f084c.png",
                        "isERC1155": false,
                        "isERC721": true,
                        "sign": false,
                        "tokenID": "80165236614317745708158726809448463996505758051254075427600066438589161050338",
                        "value": ""
                    }
                ]
            }
        ]
    },
    "profile": {
        "basic_info": {
            "baseFee": "13.609684605",
            "blockNumber": 16468238,
            "callData": "0xf7a1696300000000000000000000000000000000000000000000000000000000000000c00000000000000000000000003da0de1fd0a7735e686c32ff81226f6c0901a7d70000000000000000000000000000000000000000000000000000000001e18558edc9bf4746fd065473cbe947c13259f16717191bea267ed578dda562915f7f3f0000000000000000000000004976fb03c32e5b8cfe2b6ccb31c09ba78ebaba410000000000000000000000003da0de1fd0a7735e686c32ff81226f6c0901a7d7000000000000000000000000000000000000000000000000000000000000000973757a752d73757a750000000000000000000000000000000000000000000000",
            "debugEnable": true,
            "errorInfo": "",
            "eventCount": 9,
            "feeRecipient": "0x473780deaf4a2ac070bbba936b0cdefe7f267dfc",
            "formatValue": "0.003368708140242077",
            "gasLimit": 306575,
            "gasPrice": "15.109684605",
            "gasUsed": 275743,
            "intTxnCount": 19,
            "internalRevert": false,
            "internalRevertMessage": "",
            "isContractCreation": false,
            "isFlashloan": false,
            "maxFee": "19.707634884",
            "nonce": 1,
            "overwritedBlockNumber": -1,
            "priorityFee": "1.5",
            "receiver": "0x283af0b28c62c092c9727f1ee09c02ca627eb7f5",
            "revertMessage": "",
            "sender": "0x3da0de1fd0a7735e686c32ff81226f6c0901a7d7",
            "simulationEnable": true,
            "sourceTxnHash": "0xaafbaa94f1a69111110c2e865f7f6e216b3aa84b41cb7c24c56098d72a4b7dad",
            "status": true,
            "timestamp": "2023-01-23T08:14:23Z",
            "transactionFee": "0.004166389762036515",
            "txnHash": "0xaafbaa94f1a69111110c2e865f7f6e216b3aa84b41cb7c24c56098d72a4b7dad",
            "txnIndex": 41,
            "type": 2,
            "value": "3368708140242077"
        },
        "fund_flow": [
            {
                "amount": "0.003368708140242077",
                "from": "0x3da0de1fd0a7735e686c32ff81226f6c0901a7d7",
                "id": 1,
                "isERC1155": false,
                "isERC721": false,
                "isReverted": false,
                "order": 1,
                "to": "0x283af0b28c62c092c9727f1ee09c02ca627eb7f5",
                "token": "0xeeeeeeeeeeeeeeeeeeeeeeeeeeeeeeeeeeeeeeee"
            },
            {
                "amount": "1",
                "from": "0x0000000000000000000000000000000000000000",
                "id": 2,
                "isERC1155": false,
                "isERC721": true,
                "isReverted": false,
                "order": 2,
                "to": "0x283af0b28c62c092c9727f1ee09c02ca627eb7f5",
                "token": "0x57f1887a8bf19b14fc0df6fd9b2acc9af147ea85",
                "tokenID": "80165236614317745708158726809448463996505758051254075427600066438589161050338"
            },
            {
                "amount": "1",
                "from": "0x283af0b28c62c092c9727f1ee09c02ca627eb7f5",
                "id": 3,
                "isERC1155": false,
                "isERC721": true,
                "isReverted": false,
                "order": 3,
                "to": "0x3da0de1fd0a7735e686c32ff81226f6c0901a7d7",
                "token": "0x57f1887a8bf19b14fc0df6fd9b2acc9af147ea85",
                "tokenID": "80165236614317745708158726809448463996505758051254075427600066438589161050338"
            },
            {
                "amount": "0.000306246194567461",
                "from": "0x283af0b28c62c092c9727f1ee09c02ca627eb7f5",
                "id": 4,
                "isERC1155": false,
                "isERC721": false,
                "isReverted": false,
                "order": 4,
                "to": "0x3da0de1fd0a7735e686c32ff81226f6c0901a7d7",
                "token": "0xeeeeeeeeeeeeeeeeeeeeeeeeeeeeeeeeeeeeeeee"
            }
        ],
        "token_infos": [
            {
                "address": "0xc02aaa39b223fe8d0a0e5c4f27ead9083c756cc2",
                "decimals": 18
            },
            {
                "address": "0xeeeeeeeeeeeeeeeeeeeeeeeeeeeeeeeeeeeeeeee",
                "decimals": 18
            }
        ]
    },
    "address_label": {
        "labels": [
            {
                "address": "0x37bc7498f4ff12c19678ee8fe19d713b87f6a9e6",
                "label": "AccessControlledOffchainAggregator"
            },
            {
                "address": "0x57f1887a8bf19b14fc0df6fd9b2acc9af147ea85",
                "label": "ENS: Base Registrar Implementation"
            },
            {
                "address": "0xcf7fe2e614f568989869f4aade060f4eb8a105be",
                "label": "ExponentialPremiumPriceOracle"
            },
            {
                "address": "0x00000000000c2e074ec69a0dfb2997ba6c7d2e1e",
                "label": "ENS: Registry with Fallback"
            },
            {
                "address": "0x5f4ec3df9cbd43714fe2740f5e3616155c5b8419",
                "label": "EACAggregatorProxy"
            },
            {
                "address": "0x0000000000000000000000000000000000000001",
                "label": "Precompiled"
            },
            {
                "address": "0x0000000000000000000000000000000000000004",
                "label": "Precompiled"
            },
            {
                "address": "0xeeeeeeeeeeeeeeeeeeeeeeeeeeeeeeeeeeeeeeee",
                "label": "Ether"
            },
            {
                "address": "0x4976fb03c32e5b8cfe2b6ccb31c09ba78ebaba41",
                "label": "ENS: Public Resolver 2"
            },
            {
                "address": "0x283af0b28c62c092c9727f1ee09c02ca627eb7f5",
                "label": "ENS: Old ETH Registrar Controller"
            },
            {
                "address": "0x0000000000000000000000000000000000000002",
                "label": "Precompiled"
            },
            {
                "address": "0x0000000000000000000000000000000000000003",
                "label": "Precompiled"
            }
        ]
    },
    "trace": {
        "accountLabels": null,
        "dataMap": {
            "-1": {
                "invocation": {
                    "address": "0x3da0de1fd0a7735e686c32ff81226f6c0901a7d7",
                    "callData": "",
                    "decodedMethod": null,
                    "errorInfo": "",
                    "fromAddress": "",
                    "gasUsed": 0,
                    "id": -1,
                    "methodDecoded": false,
                    "operation": "",
                    "output": "",
                    "revert": false,
                    "revertMessage": "",
                    "selector": "",
                    "status": false,
                    "value": ""
                },
                "nodeType": 0
            },
            "0": {
                "invocation": {
                    "address": "0x283af0b28c62c092c9727f1ee09c02ca627eb7f5",
                    "callData": "0x00000000000000000000000000000000000000000000000000000000000000c00000000000000000000000003da0de1fd0a7735e686c32ff81226f6c0901a7d70000000000000000000000000000000000000000000000000000000001e18558edc9bf4746fd065473cbe947c13259f16717191bea267ed578dda562915f7f3f0000000000000000000000004976fb03c32e5b8cfe2b6ccb31c09ba78ebaba410000000000000000000000003da0de1fd0a7735e686c32ff81226f6c0901a7d7000000000000000000000000000000000000000000000000000000000000000973757a752d73757a750000000000000000000000000000000000000000000000",
                    "decodedMethod": {
                        "callParams": [
                            {
                                "name": "name",
                                "type": "string",
                                "value": "suzu-suzu"
                            },
                            {
                                "name": "owner",
                                "type": "address",
                                "value": "0x3da0de1fd0a7735e686c32ff81226f6c0901a7d7"
                            },
                            {
                                "name": "duration",
                                "type": "uint256",
                                "value": "31,556,952"
                            },
                            {
                                "name": "secret",
                                "type": "bytes32",
                                "value": "0xedc9bf4746fd065473cbe947c13259f16717191bea267ed578dda562915f7f3f"
                            },
                            {
                                "name": "resolver",
                                "type": "address",
                                "value": "0x4976fb03c32e5b8cfe2b6ccb31c09ba78ebaba41"
                            },
                            {
                                "name": "addr",
                                "type": "address",
                                "value": "0x3da0de1fd0a7735e686c32ff81226f6c0901a7d7"
                            }
                        ],
                        "constructorArguments": "",
                        "name": "registerWithConfig",
                        "returnParams": [],
                        "signature": "registerWithConfig(string,address,uint256,bytes32,address,address)"
                    },
                    "errorInfo": "",
                    "fromAddress": "0x3da0de1fd0a7735e686c32ff81226f6c0901a7d7",
                    "gasUsed": 275743,
                    "id": 0,
                    "methodDecoded": true,
                    "operation": "CALL",
                    "output": "",
                    "revert": false,
                    "revertMessage": "",
                    "selector": "0xf7a16963",
                    "status": true,
                    "value": "0.003368708140242077"
                },
                "nodeType": 0
            },
            "1": {
                "invocation": {
                    "address": "0x57f1887a8bf19b14fc0df6fd9b2acc9af147ea85",
                    "callData": "0xb13bea7f361e37b7f46dbca6dbc68a18cb27deb3cb50bab8f536ff893c9290e2",
                    "decodedMethod": {
                        "callParams": [
                            {
                                "name": "id",
                                "type": "uint256",
                                "value": "80,165,236,614,317,745,708,158,726,809,448,463,996,505,758,051,254,075,427,600,066,438,589,161,050,338"
                            }
                        ],
                        "constructorArguments": "",
                        "name": "available",
                        "returnParams": [
                            {
                                "name": "",
                                "type": "bool",
                                "value": true
                            }
                        ],
                        "signature": "available(uint256)"
                    },
                    "errorInfo": "",
                    "fromAddress": "0x283af0b28c62c092c9727f1ee09c02ca627eb7f5",
                    "gasUsed": 2569,
                    "id": 1,
                    "methodDecoded": true,
                    "operation": "STATICCALL",
                    "output": "0x0000000000000000000000000000000000000000000000000000000000000001",
                    "revert": false,
                    "revertMessage": "",
                    "selector": "0x96e494e8",
                    "status": true,
                    "value": "0"
                },
                "nodeType": 0
            },
            "10": {
                "event": {
                    "contract": "0x00000000000c2e074ec69a0dfb2997ba6c7d2e1e",
                    "decodedLog": {
                        "name": "NewOwner",
                        "params": [
                            {
                                "name": "node",
                                "type": "bytes32",
                                "value": "0x93cdeb708b7545dc668eb9280176169d1c33cfd8ed6f04690a0bcc88a93fc4ae"
                            },
                            {
                                "name": "label",
                                "type": "bytes32",
                                "value": "0xb13bea7f361e37b7f46dbca6dbc68a18cb27deb3cb50bab8f536ff893c9290e2"
                            },
                            {
                                "name": "owner",
                                "type": "address",
                                "value": "0x283af0b28c62c092c9727f1ee09c02ca627eb7f5"
                            }
                        ],
                        "signature": "NewOwner(bytes32,bytes32,address)"
                    },
                    "id": 10,
                    "logData": "0x000000000000000000000000283af0b28c62c092c9727f1ee09c02ca627eb7f5",
                    "logDecoded": true,
                    "operation": "EVENT",
                    "revert": false,
                    "status": true,
                    "topics": [
                        "0xce0457fe73731f824cc272376169235128c118b49d344817417c6d108d155e82",
                        "0x93cdeb708b7545dc668eb9280176169d1c33cfd8ed6f04690a0bcc88a93fc4ae",
                        "0xb13bea7f361e37b7f46dbca6dbc68a18cb27deb3cb50bab8f536ff893c9290e2"
                    ]
                },
                "nodeType": 1
            },
            "11": {
                "event": {
                    "contract": "0x57f1887a8bf19b14fc0df6fd9b2acc9af147ea85",
                    "decodedLog": {
                        "name": "NameRegistered",
                        "params": [
                            {
                                "name": "id",
                                "type": "uint256",
                                "value": "80,165,236,614,317,745,708,158,726,809,448,463,996,505,758,051,254,075,427,600,066,438,589,161,050,338"
                            },
                            {
                                "name": "owner",
                                "type": "address",
                                "value": "0x283af0b28c62c092c9727f1ee09c02ca627eb7f5"
                            },
                            {
                                "name": "expires",
                                "type": "uint256",
                                "value": "1,706,018,615"
                            }
                        ],
                        "signature": "NameRegistered(uint256,address,uint256)"
                    },
                    "id": 11,
                    "logData": "0x0000000000000000000000000000000000000000000000000000000065afc737",
                    "logDecoded": true,
                    "operation": "EVENT",
                    "revert": false,
                    "status": true,
                    "topics": [
                        "0xb3d987963d01b2f68493b4bdb130988f157ea43070d4ad840fee0466ed9370d9",
                        "0xb13bea7f361e37b7f46dbca6dbc68a18cb27deb3cb50bab8f536ff893c9290e2",
                        "0x000000000000000000000000283af0b28c62c092c9727f1ee09c02ca627eb7f5"
                    ]
                },
                "nodeType": 1
            },
            "12": {
                "invocation": {
                    "address": "0x57f1887a8bf19b14fc0df6fd9b2acc9af147ea85",
                    "callData": "0x",
                    "decodedMethod": {
                        "callParams": [],
                        "constructorArguments": "",
                        "name": "baseNode",
                        "returnParams": [
                            {
                                "name": "",
                                "type": "bytes32",
                                "value": "0x93cdeb708b7545dc668eb9280176169d1c33cfd8ed6f04690a0bcc88a93fc4ae"
                            }
                        ],
                        "signature": "baseNode()"
                    },
                    "errorInfo": "",
                    "fromAddress": "0x283af0b28c62c092c9727f1ee09c02ca627eb7f5",
                    "gasUsed": 394,
                    "id": 12,
                    "methodDecoded": true,
                    "operation": "STATICCALL",
                    "output": "0x93cdeb708b7545dc668eb9280176169d1c33cfd8ed6f04690a0bcc88a93fc4ae",
                    "revert": false,
                    "revertMessage": "",
                    "selector": "0xddf7fcb0",
                    "status": true,
                    "value": "0"
                },
                "nodeType": 0
            },
            "13": {
                "invocation": {
                    "address": "0x57f1887a8bf19b14fc0df6fd9b2acc9af147ea85",
                    "callData": "0x",
                    "decodedMethod": {
                        "callParams": [],
                        "constructorArguments": "",
                        "name": "ens",
                        "returnParams": [
                            {
                                "name": "",
                                "type": "address",
                                "value": "0x00000000000c2e074ec69a0dfb2997ba6c7d2e1e"
                            }
                        ],
                        "signature": "ens()"
                    },
                    "errorInfo": "",
                    "fromAddress": "0x283af0b28c62c092c9727f1ee09c02ca627eb7f5",
                    "gasUsed": 399,
                    "id": 13,
                    "methodDecoded": true,
                    "operation": "STATICCALL",
                    "output": "0x00000000000000000000000000000000000c2e074ec69a0dfb2997ba6c7d2e1e",
                    "revert": false,
                    "revertMessage": "",
                    "selector": "0x3f15457f",
                    "status": true,
                    "value": "0"
                },
                "nodeType": 0
            },
            "14": {
                "invocation": {
                    "address": "0x00000000000c2e074ec69a0dfb2997ba6c7d2e1e",
                    "callData": "0x84e5f294249d14e518aadb949ff94aa3436c14150f597cae3b0cb918fd5cc74a0000000000000000000000004976fb03c32e5b8cfe2b6ccb31c09ba78ebaba41",
                    "decodedMethod": {
                        "callParams": [
                            {
                                "name": "node",
                                "type": "bytes32",
                                "value": "0x84e5f294249d14e518aadb949ff94aa3436c14150f597cae3b0cb918fd5cc74a"
                            },
                            {
                                "name": "resolver",
                                "type": "address",
                                "value": "0x4976fb03c32e5b8cfe2b6ccb31c09ba78ebaba41"
                            }
                        ],
                        "constructorArguments": "",
                        "name": "setResolver",
                        "returnParams": [],
                        "signature": "setResolver(bytes32,address)"
                    },
                    "errorInfo": "",
                    "fromAddress": "0x283af0b28c62c092c9727f1ee09c02ca627eb7f5",
                    "gasUsed": 24371,
                    "id": 14,
                    "methodDecoded": true,
                    "operation": "CALL",
                    "output": "",
                    "revert": false,
                    "revertMessage": "",
                    "selector": "0x1896f70a",
                    "status": true,
                    "value": "0"
                },
                "nodeType": 0
            },
            "15": {
                "event": {
                    "contract": "0x00000000000c2e074ec69a0dfb2997ba6c7d2e1e",
                    "decodedLog": {
                        "name": "NewResolver",
                        "params": [
                            {
                                "name": "node",
                                "type": "bytes32",
                                "value": "0x84e5f294249d14e518aadb949ff94aa3436c14150f597cae3b0cb918fd5cc74a"
                            },
                            {
                                "name": "resolver",
                                "type": "address",
                                "value": "0x4976fb03c32e5b8cfe2b6ccb31c09ba78ebaba41"
                            }
                        ],
                        "signature": "NewResolver(bytes32,address)"
                    },
                    "id": 15,
                    "logData": "0x0000000000000000000000004976fb03c32e5b8cfe2b6ccb31c09ba78ebaba41",
                    "logDecoded": true,
                    "operation": "EVENT",
                    "revert": false,
                    "status": true,
                    "topics": [
                        "0x335721b01866dc23fbee8b6b2c7b1e14d6f05c28cd35a2c934239f94095602a0",
                        "0x84e5f294249d14e518aadb949ff94aa3436c14150f597cae3b0cb918fd5cc74a"
                    ]
                },
                "nodeType": 1
            },
            "16": {
                "invocation": {
                    "address": "0x4976fb03c32e5b8cfe2b6ccb31c09ba78ebaba41",
                    "callData": "0x84e5f294249d14e518aadb949ff94aa3436c14150f597cae3b0cb918fd5cc74a0000000000000000000000003da0de1fd0a7735e686c32ff81226f6c0901a7d7",
                    "decodedMethod": {
                        "callParams": [
                            {
                                "name": "node",
                                "type": "bytes32",
                                "value": "0x84e5f294249d14e518aadb949ff94aa3436c14150f597cae3b0cb918fd5cc74a"
                            },
                            {
                                "name": "a",
                                "type": "address",
                                "value": "0x3da0de1fd0a7735e686c32ff81226f6c0901a7d7"
                            }
                        ],
                        "constructorArguments": "",
                        "name": "setAddr",
                        "returnParams": [],
                        "signature": "setAddr(bytes32,address)"
                    },
                    "errorInfo": "",
                    "fromAddress": "0x283af0b28c62c092c9727f1ee09c02ca627eb7f5",
                    "gasUsed": 34332,
                    "id": 16,
                    "methodDecoded": true,
                    "operation": "CALL",
                    "output": "",
                    "revert": false,
                    "revertMessage": "",
                    "selector": "0xd5fa2b00",
                    "status": true,
                    "value": "0"
                },
                "nodeType": 0
            },
            "17": {
                "invocation": {
                    "address": "0x00000000000c2e074ec69a0dfb2997ba6c7d2e1e",
                    "callData": "0x84e5f294249d14e518aadb949ff94aa3436c14150f597cae3b0cb918fd5cc74a",
                    "decodedMethod": {
                        "callParams": [
                            {
                                "name": "node",
                                "type": "bytes32",
                                "value": "0x84e5f294249d14e518aadb949ff94aa3436c14150f597cae3b0cb918fd5cc74a"
                            }
                        ],
                        "constructorArguments": "",
                        "name": "owner",
                        "returnParams": [
                            {
                                "name": "",
                                "type": "address",
                                "value": "0x283af0b28c62c092c9727f1ee09c02ca627eb7f5"
                            }
                        ],
                        "signature": "owner(bytes32)"
                    },
                    "errorInfo": "",
                    "fromAddress": "0x4976fb03c32e5b8cfe2b6ccb31c09ba78ebaba41",
                    "gasUsed": 951,
                    "id": 17,
                    "methodDecoded": true,
                    "operation": "STATICCALL",
                    "output": "0x000000000000000000000000283af0b28c62c092c9727f1ee09c02ca627eb7f5",
                    "revert": false,
                    "revertMessage": "",
                    "selector": "0x02571be3",
                    "status": true,
                    "value": "0"
                },
                "nodeType": 0
            },
            "18": {
                "invocation": {
                    "address": "0x00000000000c2e074ec69a0dfb2997ba6c7d2e1e",
                    "callData": "0x84e5f294249d14e518aadb949ff94aa3436c14150f597cae3b0cb918fd5cc74a",
                    "decodedMethod": {
                        "callParams": [
                            {
                                "name": "node",
                                "type": "bytes32",
                                "value": "0x84e5f294249d14e518aadb949ff94aa3436c14150f597cae3b0cb918fd5cc74a"
                            }
                        ],
                        "constructorArguments": "",
                        "name": "owner",
                        "returnParams": [
                            {
                                "name": "",
                                "type": "address",
                                "value": "0x283af0b28c62c092c9727f1ee09c02ca627eb7f5"
                            }
                        ],
                        "signature": "owner(bytes32)"
                    },
                    "errorInfo": "",
                    "fromAddress": "0x4976fb03c32e5b8cfe2b6ccb31c09ba78ebaba41",
                    "gasUsed": 951,
                    "id": 18,
                    "methodDecoded": true,
                    "operation": "STATICCALL",
                    "output": "0x000000000000000000000000283af0b28c62c092c9727f1ee09c02ca627eb7f5",
                    "revert": false,
                    "revertMessage": "",
                    "selector": "0x02571be3",
                    "status": true,
                    "value": "0"
                },
                "nodeType": 0
            },
            "19": {
                "event": {
                    "contract": "0x4976fb03c32e5b8cfe2b6ccb31c09ba78ebaba41",
                    "decodedLog": {
                        "name": "AddressChanged",
                        "params": [
                            {
                                "name": "node",
                                "type": "bytes32",
                                "value": "0x84e5f294249d14e518aadb949ff94aa3436c14150f597cae3b0cb918fd5cc74a"
                            },
                            {
                                "name": "coinType",
                                "type": "uint256",
                                "value": "60"
                            },
                            {
                                "name": "newAddress",
                                "type": "bytes",
                                "value": "0x3da0de1fd0a7735e686c32ff81226f6c0901a7d7"
                            }
                        ],
                        "signature": "AddressChanged(bytes32,uint256,bytes)"
                    },
                    "id": 19,
                    "logData": "0x000000000000000000000000000000000000000000000000000000000000003c000000000000000000000000000000000000000000000000000000000000004000000000000000000000000000000000000000000000000000000000000000143da0de1fd0a7735e686c32ff81226f6c0901a7d7000000000000000000000000",
                    "logDecoded": true,
                    "operation": "EVENT",
                    "revert": false,
                    "status": true,
                    "topics": [
                        "0x65412581168e88a1e60c6459d7f44ae83ad0832e670826c05a4e2476b57af752",
                        "0x84e5f294249d14e518aadb949ff94aa3436c14150f597cae3b0cb918fd5cc74a"
                    ]
                },
                "nodeType": 1
            },
            "2": {
                "invocation": {
                    "address": "0x57f1887a8bf19b14fc0df6fd9b2acc9af147ea85",
                    "callData": "0xb13bea7f361e37b7f46dbca6dbc68a18cb27deb3cb50bab8f536ff893c9290e2",
                    "decodedMethod": {
                        "callParams": [
                            {
                                "name": "id",
                                "type": "uint256",
                                "value": "80,165,236,614,317,745,708,158,726,809,448,463,996,505,758,051,254,075,427,600,066,438,589,161,050,338"
                            }
                        ],
                        "constructorArguments": "",
                        "name": "nameExpires",
                        "returnParams": [
                            {
                                "name": "",
                                "type": "uint256",
                                "value": "0"
                            }
                        ],
                        "signature": "nameExpires(uint256)"
                    },
                    "errorInfo": "",
                    "fromAddress": "0x283af0b28c62c092c9727f1ee09c02ca627eb7f5",
                    "gasUsed": 523,
                    "id": 2,
                    "methodDecoded": true,
                    "operation": "STATICCALL",
                    "output": "0x0000000000000000000000000000000000000000000000000000000000000000",
                    "revert": false,
                    "revertMessage": "",
                    "selector": "0xd6e4fa86",
                    "status": true,
                    "value": "0"
                },
                "nodeType": 0
            },
            "20": {
                "event": {
                    "contract": "0x4976fb03c32e5b8cfe2b6ccb31c09ba78ebaba41",
                    "decodedLog": {
                        "name": "AddrChanged",
                        "params": [
                            {
                                "name": "node",
                                "type": "bytes32",
                                "value": "0x84e5f294249d14e518aadb949ff94aa3436c14150f597cae3b0cb918fd5cc74a"
                            },
                            {
                                "name": "a",
                                "type": "address",
                                "value": "0x3da0de1fd0a7735e686c32ff81226f6c0901a7d7"
                            }
                        ],
                        "signature": "AddrChanged(bytes32,address)"
                    },
                    "id": 20,
                    "logData": "0x0000000000000000000000003da0de1fd0a7735e686c32ff81226f6c0901a7d7",
                    "logDecoded": true,
                    "operation": "EVENT",
                    "revert": false,
                    "status": true,
                    "topics": [
                        "0x52d7d861f09ab3d26239d492e8968629f95e9e318cf0b73bfddc441522a15fd2",
                        "0x84e5f294249d14e518aadb949ff94aa3436c14150f597cae3b0cb918fd5cc74a"
                    ]
                },
                "nodeType": 1
            },
            "21": {
                "invocation": {
                    "address": "0x57f1887a8bf19b14fc0df6fd9b2acc9af147ea85",
                    "callData": "0xb13bea7f361e37b7f46dbca6dbc68a18cb27deb3cb50bab8f536ff893c9290e20000000000000000000000003da0de1fd0a7735e686c32ff81226f6c0901a7d7",
                    "decodedMethod": {
                        "callParams": [
                            {
                                "name": "id",
                                "type": "uint256",
                                "value": "80,165,236,614,317,745,708,158,726,809,448,463,996,505,758,051,254,075,427,600,066,438,589,161,050,338"
                            },
                            {
                                "name": "owner",
                                "type": "address",
                                "value": "0x3da0de1fd0a7735e686c32ff81226f6c0901a7d7"
                            }
                        ],
                        "constructorArguments": "",
                        "name": "reclaim",
                        "returnParams": [],
                        "signature": "reclaim(uint256,address)"
                    },
                    "errorInfo": "",
                    "fromAddress": "0x283af0b28c62c092c9727f1ee09c02ca627eb7f5",
                    "gasUsed": 6652,
                    "id": 21,
                    "methodDecoded": true,
                    "operation": "CALL",
                    "output": "",
                    "revert": false,
                    "revertMessage": "",
                    "selector": "0x28ed4f6c",
                    "status": true,
                    "value": "0"
                },
                "nodeType": 0
            },
            "22": {
                "invocation": {
                    "address": "0x00000000000c2e074ec69a0dfb2997ba6c7d2e1e",
                    "callData": "0x93cdeb708b7545dc668eb9280176169d1c33cfd8ed6f04690a0bcc88a93fc4ae",
                    "decodedMethod": {
                        "callParams": [
                            {
                                "name": "node",
                                "type": "bytes32",
                                "value": "0x93cdeb708b7545dc668eb9280176169d1c33cfd8ed6f04690a0bcc88a93fc4ae"
                            }
                        ],
                        "constructorArguments": "",
                        "name": "owner",
                        "returnParams": [
                            {
                                "name": "",
                                "type": "address",
                                "value": "0x57f1887a8bf19b14fc0df6fd9b2acc9af147ea85"
                            }
                        ],
                        "signature": "owner(bytes32)"
                    },
                    "errorInfo": "",
                    "fromAddress": "0x57f1887a8bf19b14fc0df6fd9b2acc9af147ea85",
                    "gasUsed": 951,
                    "id": 22,
                    "methodDecoded": true,
                    "operation": "STATICCALL",
                    "output": "0x00000000000000000000000057f1887a8bf19b14fc0df6fd9b2acc9af147ea85",
                    "revert": false,
                    "revertMessage": "",
                    "selector": "0x02571be3",
                    "status": true,
                    "value": "0"
                },
                "nodeType": 0
            },
            "23": {
                "invocation": {
                    "address": "0x00000000000c2e074ec69a0dfb2997ba6c7d2e1e",
                    "callData": "0x93cdeb708b7545dc668eb9280176169d1c33cfd8ed6f04690a0bcc88a93fc4aeb13bea7f361e37b7f46dbca6dbc68a18cb27deb3cb50bab8f536ff893c9290e20000000000000000000000003da0de1fd0a7735e686c32ff81226f6c0901a7d7",
                    "decodedMethod": {
                        "callParams": [
                            {
                                "name": "node",
                                "type": "bytes32",
                                "value": "0x93cdeb708b7545dc668eb9280176169d1c33cfd8ed6f04690a0bcc88a93fc4ae"
                            },
                            {
                                "name": "label",
                                "type": "bytes32",
                                "value": "0xb13bea7f361e37b7f46dbca6dbc68a18cb27deb3cb50bab8f536ff893c9290e2"
                            },
                            {
                                "name": "owner",
                                "type": "address",
                                "value": "0x3da0de1fd0a7735e686c32ff81226f6c0901a7d7"
                            }
                        ],
                        "constructorArguments": "",
                        "name": "setSubnodeOwner",
                        "returnParams": [
                            {
                                "name": "",
                                "type": "bytes32",
                                "value": "0x84e5f294249d14e518aadb949ff94aa3436c14150f597cae3b0cb918fd5cc74a"
                            }
                        ],
                        "signature": "setSubnodeOwner(bytes32,bytes32,address)"
                    },
                    "errorInfo": "",
                    "fromAddress": "0x57f1887a8bf19b14fc0df6fd9b2acc9af147ea85",
                    "gasUsed": 3169,
                    "id": 23,
                    "methodDecoded": true,
                    "operation": "CALL",
                    "output": "0x84e5f294249d14e518aadb949ff94aa3436c14150f597cae3b0cb918fd5cc74a",
                    "revert": false,
                    "revertMessage": "",
                    "selector": "0x06ab5923",
                    "status": true,
                    "value": "0"
                },
                "nodeType": 0
            },
            "24": {
                "event": {
                    "contract": "0x00000000000c2e074ec69a0dfb2997ba6c7d2e1e",
                    "decodedLog": {
                        "name": "NewOwner",
                        "params": [
                            {
                                "name": "node",
                                "type": "bytes32",
                                "value": "0x93cdeb708b7545dc668eb9280176169d1c33cfd8ed6f04690a0bcc88a93fc4ae"
                            },
                            {
                                "name": "label",
                                "type": "bytes32",
                                "value": "0xb13bea7f361e37b7f46dbca6dbc68a18cb27deb3cb50bab8f536ff893c9290e2"
                            },
                            {
                                "name": "owner",
                                "type": "address",
                                "value": "0x3da0de1fd0a7735e686c32ff81226f6c0901a7d7"
                            }
                        ],
                        "signature": "NewOwner(bytes32,bytes32,address)"
                    },
                    "id": 24,
                    "logData": "0x0000000000000000000000003da0de1fd0a7735e686c32ff81226f6c0901a7d7",
                    "logDecoded": true,
                    "operation": "EVENT",
                    "revert": false,
                    "status": true,
                    "topics": [
                        "0xce0457fe73731f824cc272376169235128c118b49d344817417c6d108d155e82",
                        "0x93cdeb708b7545dc668eb9280176169d1c33cfd8ed6f04690a0bcc88a93fc4ae",
                        "0xb13bea7f361e37b7f46dbca6dbc68a18cb27deb3cb50bab8f536ff893c9290e2"
                    ]
                },
                "nodeType": 1
            },
            "25": {
                "invocation": {
                    "address": "0x57f1887a8bf19b14fc0df6fd9b2acc9af147ea85",
                    "callData": "0x000000000000000000000000283af0b28c62c092c9727f1ee09c02ca627eb7f50000000000000000000000003da0de1fd0a7735e686c32ff81226f6c0901a7d7b13bea7f361e37b7f46dbca6dbc68a18cb27deb3cb50bab8f536ff893c9290e2",
                    "decodedMethod": {
                        "callParams": [
                            {
                                "name": "from",
                                "type": "address",
                                "value": "0x283af0b28c62c092c9727f1ee09c02ca627eb7f5"
                            },
                            {
                                "name": "to",
                                "type": "address",
                                "value": "0x3da0de1fd0a7735e686c32ff81226f6c0901a7d7"
                            },
                            {
                                "decimalAvailable": true,
                                "name": "tokenId",
                                "type": "uint256",
                                "value": "80,165,236,614,317,745,708,158,726,809,448,463,996,505,758,051,254,075,427,600,066,438,589,161,050,338"
                            }
                        ],
                        "constructorArguments": "",
                        "name": "transferFrom",
                        "returnParams": [],
                        "signature": "transferFrom(address,address,uint256)"
                    },
                    "errorInfo": "",
                    "fromAddress": "0x283af0b28c62c092c9727f1ee09c02ca627eb7f5",
                    "gasUsed": 29203,
                    "id": 25,
                    "methodDecoded": true,
                    "operation": "CALL",
                    "output": "",
                    "revert": false,
                    "revertMessage": "",
                    "selector": "0x23b872dd",
                    "status": true,
                    "value": "0"
                },
                "nodeType": 0
            },
            "26": {
                "event": {
                    "contract": "0x57f1887a8bf19b14fc0df6fd9b2acc9af147ea85",
                    "decodedLog": {
                        "name": "Transfer",
                        "params": [
                            {
                                "name": "from",
                                "type": "address",
                                "value": "0x283af0b28c62c092c9727f1ee09c02ca627eb7f5"
                            },
                            {
                                "name": "to",
                                "type": "address",
                                "value": "0x3da0de1fd0a7735e686c32ff81226f6c0901a7d7"
                            },
                            {
                                "decimalAvailable": true,
                                "name": "tokenId",
                                "type": "uint256",
                                "value": "80,165,236,614,317,745,708,158,726,809,448,463,996,505,758,051,254,075,427,600,066,438,589,161,050,338"
                            }
                        ],
                        "signature": "Transfer(address,address,uint256)"
                    },
                    "id": 26,
                    "logData": "0x",
                    "logDecoded": true,
                    "operation": "EVENT",
                    "revert": false,
                    "status": true,
                    "topics": [
                        "0xddf252ad1be2c89b69c2b068fc378daa952ba7f163c4a11628f55a4df523b3ef",
                        "0x000000000000000000000000283af0b28c62c092c9727f1ee09c02ca627eb7f5",
                        "0x0000000000000000000000003da0de1fd0a7735e686c32ff81226f6c0901a7d7",
                        "0xb13bea7f361e37b7f46dbca6dbc68a18cb27deb3cb50bab8f536ff893c9290e2"
                    ]
                },
                "nodeType": 1
            },
            "27": {
                "event": {
                    "contract": "0x283af0b28c62c092c9727f1ee09c02ca627eb7f5",
                    "decodedLog": {
                        "name": "NameRegistered",
                        "params": [
                            {
                                "name": "label",
                                "type": "bytes32",
                                "value": "0xb13bea7f361e37b7f46dbca6dbc68a18cb27deb3cb50bab8f536ff893c9290e2"
                            },
                            {
                                "name": "owner",
                                "type": "address",
                                "value": "0x3da0de1fd0a7735e686c32ff81226f6c0901a7d7"
                            },
                            {
                                "name": "name",
                                "type": "string",
                                "value": "suzu-suzu"
                            },
                            {
                                "name": "cost",
                                "type": "uint256",
                                "value": "3,062,461,945,674,616"
                            },
                            {
                                "name": "expires",
                                "type": "uint256",
                                "value": "1,706,018,615"
                            }
                        ],
                        "signature": "NameRegistered(string,bytes32,address,uint256,uint256)"
                    },
                    "id": 27,
                    "logData": "0x0000000000000000000000000000000000000000000000000000000000000060000000000000000000000000000000000000000000000000000ae14afc68fb780000000000000000000000000000000000000000000000000000000065afc737000000000000000000000000000000000000000000000000000000000000000973757a752d73757a750000000000000000000000000000000000000000000000",
                    "logDecoded": true,
                    "operation": "EVENT",
                    "revert": false,
                    "status": true,
                    "topics": [
                        "0xca6abbe9d7f11422cb6ca7629fbf6fe9efb1c621f71ce8f02b9f2a230097404f",
                        "0xb13bea7f361e37b7f46dbca6dbc68a18cb27deb3cb50bab8f536ff893c9290e2",
                        "0x0000000000000000000000003da0de1fd0a7735e686c32ff81226f6c0901a7d7"
                    ]
                },
                "nodeType": 1
            },
            "28": {
                "invocation": {
                    "address": "0x3da0de1fd0a7735e686c32ff81226f6c0901a7d7",
                    "callData": "0x",
                    "decodedMethod": null,
                    "errorInfo": "",
                    "fromAddress": "0x283af0b28c62c092c9727f1ee09c02ca627eb7f5",
                    "gasUsed": 0,
                    "id": 28,
                    "methodDecoded": false,
                    "operation": "CALL",
                    "output": "",
                    "revert": false,
                    "revertMessage": "",
                    "selector": "fallback",
                    "status": true,
                    "value": "0.000306246194567461"
                },
                "nodeType": 0
            },
            "3": {
                "invocation": {
                    "address": "0xcf7fe2e614f568989869f4aade060f4eb8a105be",
                    "callData": "0x000000000000000000000000000000000000000000000000000000000000006000000000000000000000000000000000000000000000000000000000000000000000000000000000000000000000000000000000000000000000000001e18558000000000000000000000000000000000000000000000000000000000000000973757a752d73757a750000000000000000000000000000000000000000000000",
                    "decodedMethod": {
                        "callParams": [
                            {
                                "name": "name",
                                "type": "string",
                                "value": "suzu-suzu"
                            },
                            {
                                "name": "expires",
                                "type": "uint256",
                                "value": "0"
                            },
                            {
                                "name": "duration",
                                "type": "uint256",
                                "value": "31,556,952"
                            }
                        ],
                        "constructorArguments": "",
                        "name": "price",
                        "returnParams": [
                            {
                                "name": "",
                                "type": "uint256",
                                "value": "3,062,461,945,674,616"
                            }
                        ],
                        "signature": "price(string,uint256,uint256)"
                    },
                    "errorInfo": "",
                    "fromAddress": "0x283af0b28c62c092c9727f1ee09c02ca627eb7f5",
                    "gasUsed": 29468,
                    "id": 3,
                    "methodDecoded": true,
                    "operation": "STATICCALL",
                    "output": "0x000000000000000000000000000000000000000000000000000ae14afc68fb78",
                    "revert": false,
                    "revertMessage": "",
                    "selector": "0x50e9a715",
                    "status": true,
                    "value": "0"
                },
                "nodeType": 0
            },
            "4": {
                "invocation": {
                    "address": "0x5f4ec3df9cbd43714fe2740f5e3616155c5b8419",
                    "callData": "0x",
                    "decodedMethod": {
                        "callParams": [],
                        "constructorArguments": "",
                        "name": "latestAnswer",
                        "returnParams": [
                            {
                                "name": "",
                                "type": "int256",
                                "value": "163,375,807,000"
                            }
                        ],
                        "signature": "latestAnswer()"
                    },
                    "errorInfo": "",
                    "fromAddress": "0xcf7fe2e614f568989869f4aade060f4eb8a105be",
                    "gasUsed": 14637,
                    "id": 4,
                    "methodDecoded": true,
                    "operation": "STATICCALL",
                    "output": "0x0000000000000000000000000000000000000000000000000000002609f4fa18",
                    "revert": false,
                    "revertMessage": "",
                    "selector": "0x50d25bcd",
                    "status": true,
                    "value": "0"
                },
                "nodeType": 0
            },
            "5": {
                "invocation": {
                    "address": "0x37bc7498f4ff12c19678ee8fe19d713b87f6a9e6",
                    "callData": "0x",
                    "decodedMethod": {
                        "callParams": [],
                        "constructorArguments": "",
                        "name": "latestAnswer",
                        "returnParams": [
                            {
                                "name": "",
                                "type": "int256",
                                "value": "163,375,807,000"
                            }
                        ],
                        "signature": "latestAnswer()"
                    },
                    "errorInfo": "",
                    "fromAddress": "0x5f4ec3df9cbd43714fe2740f5e3616155c5b8419",
                    "gasUsed": 7141,
                    "id": 5,
                    "methodDecoded": true,
                    "operation": "STATICCALL",
                    "output": "0x0000000000000000000000000000000000000000000000000000002609f4fa18",
                    "revert": false,
                    "revertMessage": "",
                    "selector": "0x50d25bcd",
                    "status": true,
                    "value": "0"
                },
                "nodeType": 0
            },
            "6": {
                "invocation": {
                    "address": "0x57f1887a8bf19b14fc0df6fd9b2acc9af147ea85",
                    "callData": "0xb13bea7f361e37b7f46dbca6dbc68a18cb27deb3cb50bab8f536ff893c9290e2000000000000000000000000283af0b28c62c092c9727f1ee09c02ca627eb7f50000000000000000000000000000000000000000000000000000000001e18558",
                    "decodedMethod": {
                        "callParams": [
                            {
                                "name": "id",
                                "type": "uint256",
                                "value": "80,165,236,614,317,745,708,158,726,809,448,463,996,505,758,051,254,075,427,600,066,438,589,161,050,338"
                            },
                            {
                                "name": "owner",
                                "type": "address",
                                "value": "0x283af0b28c62c092c9727f1ee09c02ca627eb7f5"
                            },
                            {
                                "name": "duration",
                                "type": "uint256",
                                "value": "31,556,952"
                            }
                        ],
                        "constructorArguments": "",
                        "name": "register",
                        "returnParams": [
                            {
                                "name": "",
                                "type": "uint256",
                                "value": "1,706,018,615"
                            }
                        ],
                        "signature": "register(uint256,address,uint256)"
                    },
                    "errorInfo": "",
                    "fromAddress": "0x283af0b28c62c092c9727f1ee09c02ca627eb7f5",
                    "gasUsed": 91145,
                    "id": 6,
                    "methodDecoded": true,
                    "operation": "CALL",
                    "output": "0x0000000000000000000000000000000000000000000000000000000065afc737",
                    "revert": false,
                    "revertMessage": "",
                    "selector": "0xfca247ac",
                    "status": true,
                    "value": "0"
                },
                "nodeType": 0
            },
            "7": {
                "invocation": {
                    "address": "0x00000000000c2e074ec69a0dfb2997ba6c7d2e1e",
                    "callData": "0x93cdeb708b7545dc668eb9280176169d1c33cfd8ed6f04690a0bcc88a93fc4ae",
                    "decodedMethod": {
                        "callParams": [
                            {
                                "name": "node",
                                "type": "bytes32",
                                "value": "0x93cdeb708b7545dc668eb9280176169d1c33cfd8ed6f04690a0bcc88a93fc4ae"
                            }
                        ],
                        "constructorArguments": "",
                        "name": "owner",
                        "returnParams": [
                            {
                                "name": "",
                                "type": "address",
                                "value": "0x57f1887a8bf19b14fc0df6fd9b2acc9af147ea85"
                            }
                        ],
                        "signature": "owner(bytes32)"
                    },
                    "errorInfo": "",
                    "fromAddress": "0x57f1887a8bf19b14fc0df6fd9b2acc9af147ea85",
                    "gasUsed": 2951,
                    "id": 7,
                    "methodDecoded": true,
                    "operation": "STATICCALL",
                    "output": "0x00000000000000000000000057f1887a8bf19b14fc0df6fd9b2acc9af147ea85",
                    "revert": false,
                    "revertMessage": "",
                    "selector": "0x02571be3",
                    "status": true,
                    "value": "0"
                },
                "nodeType": 0
            },
            "8": {
                "event": {
                    "contract": "0x57f1887a8bf19b14fc0df6fd9b2acc9af147ea85",
                    "decodedLog": {
                        "name": "Transfer",
                        "params": [
                            {
                                "name": "from",
                                "type": "address",
                                "value": "0x0000000000000000000000000000000000000000"
                            },
                            {
                                "name": "to",
                                "type": "address",
                                "value": "0x283af0b28c62c092c9727f1ee09c02ca627eb7f5"
                            },
                            {
                                "decimalAvailable": true,
                                "name": "tokenId",
                                "type": "uint256",
                                "value": "80,165,236,614,317,745,708,158,726,809,448,463,996,505,758,051,254,075,427,600,066,438,589,161,050,338"
                            }
                        ],
                        "signature": "Transfer(address,address,uint256)"
                    },
                    "id": 8,
                    "logData": "0x",
                    "logDecoded": true,
                    "operation": "EVENT",
                    "revert": false,
                    "status": true,
                    "topics": [
                        "0xddf252ad1be2c89b69c2b068fc378daa952ba7f163c4a11628f55a4df523b3ef",
                        "0x0000000000000000000000000000000000000000000000000000000000000000",
                        "0x000000000000000000000000283af0b28c62c092c9727f1ee09c02ca627eb7f5",
                        "0xb13bea7f361e37b7f46dbca6dbc68a18cb27deb3cb50bab8f536ff893c9290e2"
                    ]
                },
                "nodeType": 1
            },
            "9": {
                "invocation": {
                    "address": "0x00000000000c2e074ec69a0dfb2997ba6c7d2e1e",
                    "callData": "0x93cdeb708b7545dc668eb9280176169d1c33cfd8ed6f04690a0bcc88a93fc4aeb13bea7f361e37b7f46dbca6dbc68a18cb27deb3cb50bab8f536ff893c9290e2000000000000000000000000283af0b28c62c092c9727f1ee09c02ca627eb7f5",
                    "decodedMethod": {
                        "callParams": [
                            {
                                "name": "node",
                                "type": "bytes32",
                                "value": "0x93cdeb708b7545dc668eb9280176169d1c33cfd8ed6f04690a0bcc88a93fc4ae"
                            },
                            {
                                "name": "label",
                                "type": "bytes32",
                                "value": "0xb13bea7f361e37b7f46dbca6dbc68a18cb27deb3cb50bab8f536ff893c9290e2"
                            },
                            {
                                "name": "owner",
                                "type": "address",
                                "value": "0x283af0b28c62c092c9727f1ee09c02ca627eb7f5"
                            }
                        ],
                        "constructorArguments": "",
                        "name": "setSubnodeOwner",
                        "returnParams": [
                            {
                                "name": "",
                                "type": "bytes32",
                                "value": "0x84e5f294249d14e518aadb949ff94aa3436c14150f597cae3b0cb918fd5cc74a"
                            }
                        ],
                        "signature": "setSubnodeOwner(bytes32,bytes32,address)"
                    },
                    "errorInfo": "",
                    "fromAddress": "0x57f1887a8bf19b14fc0df6fd9b2acc9af147ea85",
                    "gasUsed": 25069,
                    "id": 9,
                    "methodDecoded": true,
                    "operation": "CALL",
                    "output": "0x84e5f294249d14e518aadb949ff94aa3436c14150f597cae3b0cb918fd5cc74a",
                    "revert": false,
                    "revertMessage": "",
                    "selector": "0x06ab5923",
                    "status": true,
                    "value": "0"
                },
                "nodeType": 0
            }
        },
        "gasFlame": [
            {
                "children": [
                    {
                        "children": [
                            {
                                "children": [],
                                "depth": 0,
                                "name": "Initial Gas",
                                "value": 23372
                            },
                            {
                                "children": [
                                    {
                                        "children": [],
                                        "depth": 1,
                                        "name": "available",
                                        "value": 2569
                                    },
                                    {
                                        "children": [],
                                        "depth": 1,
                                        "name": "nameExpires",
                                        "value": 523
                                    },
                                    {
                                        "children": [
                                            {
                                                "children": [
                                                    {
                                                        "children": [],
                                                        "depth": 3,
                                                        "name": "latestAnswer",
                                                        "value": 7141
                                                    }
                                                ],
                                                "depth": 2,
                                                "name": "latestAnswer",
                                                "value": 14637
                                            }
                                        ],
                                        "depth": 1,
                                        "name": "price",
                                        "value": 29468
                                    },
                                    {
                                        "children": [
                                            {
                                                "children": [],
                                                "depth": 2,
                                                "name": "owner",
                                                "value": 2951
                                            },
                                            {
                                                "children": [],
                                                "depth": 2,
                                                "name": "setSubnodeOwner",
                                                "value": 25069
                                            }
                                        ],
                                        "depth": 1,
                                        "name": "register",
                                        "value": 91145
                                    },
                                    {
                                        "children": [],
                                        "depth": 1,
                                        "name": "baseNode",
                                        "value": 394
                                    },
                                    {
                                        "children": [],
                                        "depth": 1,
                                        "name": "ens",
                                        "value": 399
                                    },
                                    {
                                        "children": [],
                                        "depth": 1,
                                        "name": "setResolver",
                                        "value": 24371
                                    },
                                    {
                                        "children": [
                                            {
                                                "children": [],
                                                "depth": 2,
                                                "name": "owner",
                                                "value": 951
                                            },
                                            {
                                                "children": [],
                                                "depth": 2,
                                                "name": "owner",
                                                "value": 951
                                            }
                                        ],
                                        "depth": 1,
                                        "name": "setAddr",
                                        "value": 34332
                                    },
                                    {
                                        "children": [
                                            {
                                                "children": [],
                                                "depth": 2,
                                                "name": "owner",
                                                "value": 951
                                            },
                                            {
                                                "children": [],
                                                "depth": 2,
                                                "name": "setSubnodeOwner",
                                                "value": 3169
                                            }
                                        ],
                                        "depth": 1,
                                        "name": "reclaim",
                                        "value": 6652
                                    },
                                    {
                                        "children": [],
                                        "depth": 1,
                                        "name": "transferFrom",
                                        "value": 29203
                                    },
                                    {
                                        "children": [],
                                        "depth": 1,
                                        "name": "fallback",
                                        "value": 0
                                    }
                                ],
                                "depth": 0,
                                "name": "Executed Gas",
                                "value": 259971
                            }
                        ],
                        "depth": -1,
                        "name": "Actual Gas Used",
                        "value": 275743
                    },
                    {
                        "children": [],
                        "depth": -1,
                        "name": "Refunded Gas",
                        "value": 7600
                    }
                ],
                "depth": -2,
                "name": "Total Gas",
                "value": 283343
            }
        ],
        "isConfirmed": true,
        "mainTrace": [
            {
                "children": [
                    {
                        "children": [
                            {
                                "children": [],
                                "depth": 1,
                                "id": 1,
                                "order": 1
                            },
                            {
                                "children": [],
                                "depth": 1,
                                "id": 2,
                                "order": 2
                            },
                            {
                                "children": [
                                    {
                                        "children": [
                                            {
                                                "children": [],
                                                "depth": 3,
                                                "id": 5,
                                                "order": 5
                                            }
                                        ],
                                        "depth": 2,
                                        "id": 4,
                                        "order": 4
                                    }
                                ],
                                "depth": 1,
                                "id": 3,
                                "order": 3
                            },
                            {
                                "children": [
                                    {
                                        "children": [],
                                        "depth": 2,
                                        "id": 7,
                                        "order": 7
                                    },
                                    {
                                        "children": [],
                                        "depth": 2,
                                        "id": 8,
                                        "order": 8
                                    },
                                    {
                                        "children": [
                                            {
                                                "children": [],
                                                "depth": 3,
                                                "id": 10,
                                                "order": 10
                                            }
                                        ],
                                        "depth": 2,
                                        "id": 9,
                                        "order": 9
                                    },
                                    {
                                        "children": [],
                                        "depth": 2,
                                        "id": 11,
                                        "order": 11
                                    }
                                ],
                                "depth": 1,
                                "id": 6,
                                "order": 6
                            },
                            {
                                "children": [],
                                "depth": 1,
                                "id": 12,
                                "order": 12
                            },
                            {
                                "children": [],
                                "depth": 1,
                                "id": 13,
                                "order": 13
                            },
                            {
                                "children": [
                                    {
                                        "children": [],
                                        "depth": 2,
                                        "id": 15,
                                        "order": 15
                                    }
                                ],
                                "depth": 1,
                                "id": 14,
                                "order": 14
                            },
                            {
                                "children": [
                                    {
                                        "children": [],
                                        "depth": 2,
                                        "id": 17,
                                        "order": 17
                                    },
                                    {
                                        "children": [],
                                        "depth": 2,
                                        "id": 18,
                                        "order": 18
                                    },
                                    {
                                        "children": [],
                                        "depth": 2,
                                        "id": 19,
                                        "order": 19
                                    },
                                    {
                                        "children": [],
                                        "depth": 2,
                                        "id": 20,
                                        "order": 20
                                    }
                                ],
                                "depth": 1,
                                "id": 16,
                                "order": 16
                            },
                            {
                                "children": [
                                    {
                                        "children": [],
                                        "depth": 2,
                                        "id": 22,
                                        "order": 22
                                    },
                                    {
                                        "children": [
                                            {
                                                "children": [],
                                                "depth": 3,
                                                "id": 24,
                                                "order": 24
                                            }
                                        ],
                                        "depth": 2,
                                        "id": 23,
                                        "order": 23
                                    }
                                ],
                                "depth": 1,
                                "id": 21,
                                "order": 21
                            },
                            {
                                "children": [
                                    {
                                        "children": [],
                                        "depth": 2,
                                        "id": 26,
                                        "order": 26
                                    }
                                ],
                                "depth": 1,
                                "id": 25,
                                "order": 25
                            },
                            {
                                "children": [],
                                "depth": 1,
                                "id": 27,
                                "order": 27
                            },
                            {
                                "children": [],
                                "depth": 1,
                                "id": 28,
                                "order": 28
                            }
                        ],
                        "depth": 0,
                        "id": 0,
                        "order": 0
                    }
                ],
                "depth": -1,
                "id": -1,
                "order": -1
            }
        ],
        "mainTraceNodeCount": 29,
        "parentIdMap": {
            "0": -1,
            "1": 0,
            "10": 9,
            "11": 6,
            "12": 0,
            "13": 0,
            "14": 0,
            "15": 14,
            "16": 0,
            "17": 16,
            "18": 16,
            "19": 16,
            "2": 0,
            "20": 16,
            "21": 0,
            "22": 21,
            "23": 21,
            "24": 23,
            "25": 0,
            "26": 25,
            "27": 0,
            "28": 0,
            "3": 0,
            "4": 3,
            "5": 4,
            "6": 0,
            "7": 6,
            "8": 6,
            "9": 6
        },
        "tidyTrace": [
            {
                "children": [
                    {
                        "children": [
                            {
                                "children": [
                                    {
                                        "children": [],
                                        "depth": 2,
                                        "id": 8,
                                        "order": 8
                                    },
                                    {
                                        "children": [
                                            {
                                                "children": [],
                                                "depth": 3,
                                                "id": 10,
                                                "order": 10
                                            }
                                        ],
                                        "depth": 2,
                                        "id": 9,
                                        "order": 9
                                    },
                                    {
                                        "children": [],
                                        "depth": 2,
                                        "id": 11,
                                        "order": 11
                                    }
                                ],
                                "depth": 1,
                                "id": 6,
                                "order": 6
                            },
                            {
                                "children": [
                                    {
                                        "children": [],
                                        "depth": 2,
                                        "id": 15,
                                        "order": 15
                                    }
                                ],
                                "depth": 1,
                                "id": 14,
                                "order": 14
                            },
                            {
                                "children": [
                                    {
                                        "children": [],
                                        "depth": 2,
                                        "id": 19,
                                        "order": 19
                                    },
                                    {
                                        "children": [],
                                        "depth": 2,
                                        "id": 20,
                                        "order": 20
                                    }
                                ],
                                "depth": 1,
                                "id": 16,
                                "order": 16
                            },
                            {
                                "children": [
                                    {
                                        "children": [
                                            {
                                                "children": [],
                                                "depth": 3,
                                                "id": 24,
                                                "order": 24
                                            }
                                        ],
                                        "depth": 2,
                                        "id": 23,
                                        "order": 23
                                    }
                                ],
                                "depth": 1,
                                "id": 21,
                                "order": 21
                            },
                            {
                                "children": [
                                    {
                                        "children": [],
                                        "depth": 2,
                                        "id": 26,
                                        "order": 26
                                    }
                                ],
                                "depth": 1,
                                "id": 25,
                                "order": 25
                            },
                            {
                                "children": [],
                                "depth": 1,
                                "id": 27,
                                "order": 27
                            },
                            {
                                "children": [],
                                "depth": 1,
                                "id": 28,
                                "order": 28
                            }
                        ],
                        "depth": 0,
                        "id": 0,
                        "order": 0
                    }
                ],
                "depth": -1,
                "id": -1,
                "order": -1
            }
        ],
        "tidyTraceNodeCount": 18
    },
    "state_change": {
        "stateChanges": [
            {
                "address": "0x00000000000c2e074ec69a0dfb2997ba6c7d2e1e",
                "erc": "",
                "slots": [
                    {
                        "current": "0x0000000000000000000000003da0de1fd0a7735e686c32ff81226f6c0901a7d7",
                        "key": "0xf01d7c443fa740c583e19d3848e0fa7ca5a631c849374c2e2192d4e25eb25bd7",
                        "prev": "0x0000000000000000000000000000000000000000000000000000000000000000"
                    },
                    {
                        "current": "0x0000000000000000000000004976fb03c32e5b8cfe2b6ccb31c09ba78ebaba41",
                        "key": "0xf01d7c443fa740c583e19d3848e0fa7ca5a631c849374c2e2192d4e25eb25bd8",
                        "prev": "0x0000000000000000000000000000000000000000000000000000000000000000"
                    }
                ],
                "storageVariables": [
                    {
                        "name": "records",
                        "type": "mapping(bytes32 => struct ENSRegistry.Record)",
                        "value": {
                            "pairs": [
                                {
                                    "key": "0x84e5f294249d14e518aadb949ff94aa3436c14150f597cae3b0cb918fd5cc74a",
                                    "value": {
                                        "fields": [
                                            {
                                                "name": "owner",
                                                "type": "address",
                                                "value": {
                                                    "current": "0x3da0de1fd0a7735e686c32ff81226f6c0901a7d7",
                                                    "prev": "0x0000000000000000000000000000000000000000",
                                                    "typeTag": 1
                                                }
                                            },
                                            {
                                                "name": "resolver",
                                                "type": "address",
                                                "value": {
                                                    "current": "0x4976fb03c32e5b8cfe2b6ccb31c09ba78ebaba41",
                                                    "prev": "0x0000000000000000000000000000000000000000",
                                                    "typeTag": 1
                                                }
                                            },
                                            {
                                                "name": "ttl",
                                                "type": "uint64",
                                                "value": {
                                                    "current": "0",
                                                    "prev": "0",
                                                    "typeTag": 1
                                                }
                                            }
                                        ],
                                        "typeTag": 3
                                    }
                                }
                            ],
                            "typeTag": 4
                        }
                    }
                ]
            },
            {
                "address": "0x283af0b28c62c092c9727f1ee09c02ca627eb7f5",
                "erc": "",
                "slots": [
                    {
                        "current": "0x0000000000000000000000000000000000000000000000000000000000000000",
                        "key": "0x419b418374ce4b0a208b938219a1ca9bc0f3ba2c69d7fb151261d4da5303b225",
                        "prev": "0x0000000000000000000000000000000000000000000000000000000063ce3c3f"
                    }
                ],
                "storageVariables": [
                    {
                        "name": "commitments",
                        "type": "mapping(bytes32 => uint256)",
                        "value": {
                            "pairs": [
                                {
                                    "key": "0x1b81516f49858f37e394e7aec3ec11001a8eda70c14bc5d0714258f441ea1e16",
                                    "value": {
                                        "current": "0",
                                        "prev": "1674460223",
                                        "typeTag": 1
                                    }
                                }
                            ],
                            "typeTag": 4
                        }
                    }
                ]
            },
            {
                "address": "0x4976fb03c32e5b8cfe2b6ccb31c09ba78ebaba41",
                "erc": "",
                "slots": [
                    {
                        "current": "0x3da0de1fd0a7735e686c32ff81226f6c0901a7d7000000000000000000000028",
                        "key": "0x29b5868f4e33f8bf9dce02736560cd878cd49404111d258a391a9b7ef997184a",
                        "prev": "0x0000000000000000000000000000000000000000000000000000000000000000"
                    }
                ],
                "storageVariables": [
                    {
                        "name": "_addresses",
                        "type": "mapping(bytes32 => mapping(uint256 => bytes))",
                        "value": {
                            "pairs": [
                                {
                                    "key": "0x84e5f294249d14e518aadb949ff94aa3436c14150f597cae3b0cb918fd5cc74a",
                                    "value": {
                                        "pairs": [
                                            {
                                                "key": "60",
                                                "value": {
                                                    "current": "0x3da0de1fd0a7735e686c32ff81226f6c0901a7d7",
                                                    "prev": "0x",
                                                    "typeTag": 1
                                                }
                                            }
                                        ],
                                        "typeTag": 4
                                    }
                                }
                            ],
                            "typeTag": 4
                        }
                    }
                ]
            },
            {
                "address": "0x57f1887a8bf19b14fc0df6fd9b2acc9af147ea85",
                "erc": "ERC-721",
                "slots": [
                    {
                        "current": "0x0000000000000000000000000000000000000000000000000000000065afc737",
                        "key": "0xd38878a46d027e77d839c422f32d255d88604655f1e9ee85e756c26daba084b8",
                        "prev": "0x0000000000000000000000000000000000000000000000000000000000000000"
                    },
                    {
                        "current": "0x0000000000000000000000003da0de1fd0a7735e686c32ff81226f6c0901a7d7",
                        "key": "0x13c4c77d29fce955a46692c249d71f235abac6113532ca21cedc9e881794806f",
                        "prev": "0x0000000000000000000000000000000000000000000000000000000000000000"
                    },
                    {
                        "current": "0x0000000000000000000000000000000000000000000000000000000000000001",
                        "key": "0x971f634d7575cf7c64e12a5905d15d983856dbbc68f4dd19f0281937c53ee06a",
                        "prev": "0x0000000000000000000000000000000000000000000000000000000000000000"
                    }
                ],
                "storageVariables": [
                    {
                        "name": "expiries",
                        "type": "mapping(uint256 => uint256)",
                        "value": {
                            "pairs": [
                                {
                                    "key": "80165236614317745708158726809448463996505758051254075427600066438589161050338",
                                    "value": {
                                        "current": "1706018615",
                                        "prev": "0",
                                        "typeTag": 1
                                    }
                                }
                            ],
                            "typeTag": 4
                        }
                    },
                    {
                        "name": "_tokenOwner",
                        "type": "mapping(uint256 => address)",
                        "value": {
                            "pairs": [
                                {
                                    "key": "80165236614317745708158726809448463996505758051254075427600066438589161050338",
                                    "value": {
                                        "current": "0x3da0de1fd0a7735e686c32ff81226f6c0901a7d7",
                                        "prev": "0x0000000000000000000000000000000000000000",
                                        "typeTag": 1
                                    }
                                }
                            ],
                            "typeTag": 4
                        }
                    },
                    {
                        "name": "_ownedTokensCount",
                        "type": "mapping(address => uint256)",
                        "value": {
                            "pairs": [
                                {
                                    "key": "0x3da0de1fd0a7735e686c32ff81226f6c0901a7d7",
                                    "value": {
                                        "current": "1",
                                        "prev": "0",
                                        "typeTag": 1
                                    }
                                }
                            ],
                            "typeTag": 4
                        }
                    }
                ]
            }
        ]
    }
}