{
    "balance_change": {
        "balanceChanges": [
            {
                "account": "0xabe38e8e3fe1a5e55e4ce94f2911e82203538797",
                "assets": [
                    {
                        "address": "0x7fce2856899a6806eeef70807985fc7554c66340",
                        "amount": "8,279",
                        "iconUrl": "",
                        "isERC1155": false,
                        "isERC721": false,
                        "sign": false,
                        "value": ""
                    }
                ]
            },
            {
                "account": "0x60dfdf873530fe9bde09f9838f3401a08563c8b3",
                "assets": [
                    {
                        "address": "0x7fce2856899a6806eeef70807985fc7554c66340",
                        "amount": "8,279",
                        "iconUrl": "",
                        "isERC1155": false,
                        "isERC721": false,
                        "sign": true,
                        "value": ""
                    }
                ]
            }
        ]
    },
    "profile": {
        "basic_info": {
            "baseFee": "",
            "blockNumber": 6725171,
            "callData": "0xa9059cbb00000000000000000000000060dfdf873530fe9bde09f9838f3401a08563c8b3000000000000000000000000000000000000000000000000000007879adaa600",
            "debugEnable": true,
            "errorInfo": "",
            "eventCount": 1,
            "feeRecipient": "0x52bc44d5378309ee2abf1539bf71de1b7d7be3b5",
            "formatValue": "0",
            "gasLimit": 37371,
            "gasPrice": "20",
            "gasUsed": 37371,
            "intTxnCount": 0,
            "internalRevert": false,
            "internalRevertMessage": "",
            "isContractCreation": false,
            "isFlashloan": false,
            "maxFee": "",
            "nonce": 5676,
            "overwritedBlockNumber": -1,
            "priorityFee": "",
            "receiver": "0x7fce2856899a6806eeef70807985fc7554c66340",
            "revertMessage": "",
            "sender": "0xabe38e8e3fe1a5e55e4ce94f2911e82203538797",
            "simulationEnable": true,
            "sourceTxnHash": "0xaa513f77b076c906f805e3a9ab3113a08235dc52b2b67a605f4e85a32ebcddd9",
            "status": true,
            "timestamp": "2018-11-18T03:55:25Z",
            "transactionFee": "0.00074742",
            "txnHash": "0xaa513f77b076c906f805e3a9ab3113a08235dc52b2b67a605f4e85a32ebcddd9",
            "txnIndex": 47,
            "type": 0,
            "value": "0"
        },
        "fund_flow": [
            {
                "amount": "8,279",
                "from": "0xabe38e8e3fe1a5e55e4ce94f2911e82203538797",
                "id": 1,
                "isERC1155": false,
                "isERC721": false,
                "isReverted": false,
                "order": 1,
                "to": "0x60dfdf873530fe9bde09f9838f3401a08563c8b3",
                "token": "0x7fce2856899a6806eeef70807985fc7554c66340"
            }
        ],
        "token_infos": [
            {
                "address": "0xeeeeeeeeeeeeeeeeeeeeeeeeeeeeeeeeeeeeeeee",
                "decimals": 18
            },
            {
                "address": "0x7fce2856899a6806eeef70807985fc7554c66340",
                "decimals": 9
            },
            {
                "address": "0xc02aaa39b223fe8d0a0e5c4f27ead9083c756cc2",
                "decimals": 18
            }
        ]
    },
    "address_label": {
        "labels": [
            {
                "address": "0x7fce2856899a6806eeef70807985fc7554c66340",
                "label": "CLP"
            },
            {
                "address": "0x0000000000000000000000000000000000000001",
                "label": "Precompiled"
            },
            {
                "address": "0x0000000000000000000000000000000000000002",
                "label": "Precompiled"
            },
            {
                "address": "0x0000000000000000000000000000000000000003",
                "label": "Precompiled"
            },
            {
                "address": "0x0000000000000000000000000000000000000004",
                "label": "Precompiled"
            },
            {
                "address": "0xeeeeeeeeeeeeeeeeeeeeeeeeeeeeeeeeeeeeeeee",
                "label": "Ether"
            }
        ]
    },
    "trace": {
        "accountLabels": null,
        "dataMap": {
            "-1": {
                "invocation": {
                    "address": "0xabe38e8e3fe1a5e55e4ce94f2911e82203538797",
                    "callData": "",
                    "decodedMethod": null,
                    "errorInfo": "",
                    "fromAddress": "",
                    "gasUsed": 0,
                    "id": -1,
                    "methodDecoded": false,
                    "operation": "",
                    "output": "",
                    "revert": false,
                    "revertMessage": "",
                    "selector": "",
                    "status": false,
                    "value": ""
                },
                "nodeType": 0
            },
            "0": {
                "invocation": {
                    "address": "0x7fce2856899a6806eeef70807985fc7554c66340",
                    "callData": "0x00000000000000000000000060dfdf873530fe9bde09f9838f3401a08563c8b3000000000000000000000000000000000000000000000000000007879adaa600",
                    "decodedMethod": {
                        "callParams": [
                            {
                                "name": "_to",
                                "type": "address",
                                "value": "0x60dfdf873530fe9bde09f9838f3401a08563c8b3"
                            },
                            {
                                "decimalAvailable": true,
                                "name": "_value",
                                "type": "uint256",
                                "value": "8,279,000,000,000"
                            }
                        ],
                        "constructorArguments": "",
                        "name": "transfer",
                        "returnParams": [
                            {
                                "name": "success",
                                "type": "bool",
                                "value": true
                            }
                        ],
                        "signature": "transfer(address,uint256)"
                    },
                    "errorInfo": "",
                    "fromAddress": "0xabe38e8e3fe1a5e55e4ce94f2911e82203538797",
                    "gasUsed": 37371,
                    "id": 0,
                    "methodDecoded": true,
                    "operation": "CALL",
                    "output": "0x0000000000000000000000000000000000000000000000000000000000000001",
                    "revert": false,
                    "revertMessage": "",
                    "selector": "0xa9059cbb",
                    "status": true,
                    "value": "0"
                },
                "nodeType": 0
            },
            "1": {
                "event": {
                    "contract": "0x7fce2856899a6806eeef70807985fc7554c66340",
                    "decodedLog": {
                        "name": "Transfer",
                        "params": [
                            {
                                "name": "_from",
                                "type": "address",
                                "value": "0xabe38e8e3fe1a5e55e4ce94f2911e82203538797"
                            },
                            {
                                "name": "_to",
                                "type": "address",
                                "value": "0x60dfdf873530fe9bde09f9838f3401a08563c8b3"
                            },
                            {
                                "decimalAvailable": true,
                                "name": "_value",
                                "type": "uint256",
                                "value": "8,279,000,000,000"
                            }
                        ],
                        "signature": "Transfer(address,address,uint256)"
                    },
                    "id": 1,
                    "logData": "0x000000000000000000000000000000000000000000000000000007879adaa600",
                    "logDecoded": true,
                    "operation": "EVENT",
                    "revert": false,
                    "status": true,
                    "topics": [
                        "0xddf252ad1be2c89b69c2b068fc378daa952ba7f163c4a11628f55a4df523b3ef",
                        "0x000000000000000000000000abe38e8e3fe1a5e55e4ce94f2911e82203538797",
                        "0x00000000000000000000000060dfdf873530fe9bde09f9838f3401a08563c8b3"
                    ]
                },
                "nodeType": 1
            }
        },
        "gasFlame": [
            {
                "children": [
                    {
                        "children": [
                            {
                                "children": [],
                                "depth": 0,
                                "name": "Initial Gas",
                                "value": 23128
                            },
                            {
                                "children": [],
                                "depth": 0,
                                "name": "Executed Gas",
                                "value": 14243
                            }
                        ],
                        "depth": -1,
                        "name": "Actual Gas Used",
                        "value": 37371
                    },
                    {
                        "children": [],
                        "depth": -1,
                        "name": "Refunded Gas",
                        "value": 0
                    }
                ],
                "depth": -2,
                "name": "Total Gas",
                "value": 37371
            }
        ],
        "isConfirmed": true,
        "mainTrace": [
            {
                "children": [
                    {
                        "children": [
                            {
                                "children": [],
                                "depth": 1,
                                "id": 1,
                                "order": 1
                            }
                        ],
                        "depth": 0,
                        "id": 0,
                        "order": 0
                    }
                ],
                "depth": -1,
                "id": -1,
                "order": -1
            }
        ],
        "mainTraceNodeCount": 2,
        "parentIdMap": {
            "0": -1,
            "1": 0
        },
        "tidyTrace": [
            {
                "children": [
                    {
                        "children": [
                            {
                                "children": [],
                                "depth": 1,
                                "id": 1,
                                "order": 1
                            }
                        ],
                        "depth": 0,
                        "id": 0,
                        "order": 0
                    }
                ],
                "depth": -1,
                "id": -1,
                "order": -1
            }
        ],
        "tidyTraceNodeCount": 2
    },
    "state_change": {
        "stateChanges": [
            {
                "address": "0x7fce2856899a6806eeef70807985fc7554c66340",
                "erc": "ERC-20",
                "slots": [
                    {
                        "current": "0x000000000000000000000000000000000000000000000000000b20535c2cdc68",
                        "key": "0xd9cd46b599e55aa5425f48e86c81175c9c4d7096e7e78b38e7917456b4c335da",
                        "prev": "0x000000000000000000000000000000000000000000000000000b27daf7078268"
                    },
                    {
                        "current": "0x00000000000000000000000000000000000000000000000000004a5f010d5700",
                        "key": "0xa45176e1e55fc81d92e29dee81e7d02f9134491907d62fc456dd418a3467dac2",
                        "prev": "0x000000000000000000000000000000000000000000000000000042d76632b100"
                    }
                ],
                "storageVariables": [
                    {
                        "name": "balances",
                        "type": "mapping(address => uint256)",
                        "value": {
                            "pairs": [
                                {
                                    "key": "0x60dfdf873530fe9bde09f9838f3401a08563c8b3",
                                    "value": {
                                        "current": "81771900000000",
                                        "prev": "73492900000000",
                                        "typeTag": 1
                                    }
                                },
                                {
                                    "key": "0xabe38e8e3fe1a5e55e4ce94f2911e82203538797",
                                    "value": {
                                        "current": "3131767144635496",
                                        "prev": "3140046144635496",
                                        "typeTag": 1
                                    }
                                }
                            ],
                            "typeTag": 4
                        }
                    }
                ]
            }
        ]
    }
}