{
    "balance_change": {
        "balanceChanges": [
            {
                "account": "0x99f79b7a134db6e30d1b12f9ee823339cac0ba83",
                "assets": [
                    {
                        "address": "0x2a093bcf0c98ef744bb6f69d74f2f85605324290",
                        "amount": "18,520.3519355",
                        "iconUrl": "",
                        "isERC1155": false,
                        "isERC721": false,
                        "sign": false,
                        "value": ""
                    }
                ]
            },
            {
                "account": "0x0335ae7b0a5ee9ed3cb9b1d615148268876116c4",
                "assets": [
                    {
                        "address": "0x2a093bcf0c98ef744bb6f69d74f2f85605324290",
                        "amount": "18,520.3519355",
                        "iconUrl": "",
                        "isERC1155": false,
                        "isERC721": false,
                        "sign": true,
                        "value": ""
                    }
                ]
            }
        ]
    },
    "profile": {
        "basic_info": {
            "baseFee": "",
            "blockNumber": 5841807,
            "callData": "0xa9059cbb0000000000000000000000000335ae7b0a5ee9ed3cb9b1d615148268876116c4000000000000000000000000000000000000000000000000000001af35e65ace",
            "debugEnable": true,
            "errorInfo": "",
            "eventCount": 2,
            "feeRecipient": "0x5a0b54d5dc17e0aadc383d2db43b0a0d3e029c4c",
            "formatValue": "0",
            "gasLimit": 120000,
            "gasPrice": "1",
            "gasUsed": 57594,
            "intTxnCount": 0,
            "internalRevert": false,
            "internalRevertMessage": "",
            "isContractCreation": false,
            "isFlashloan": false,
            "maxFee": "",
            "nonce": 313,
            "overwritedBlockNumber": -1,
            "priorityFee": "",
            "receiver": "0x2a093bcf0c98ef744bb6f69d74f2f85605324290",
            "revertMessage": "",
            "sender": "0x99f79b7a134db6e30d1b12f9ee823339cac0ba83",
            "simulationEnable": true,
            "sourceTxnHash": "0xab3879f1b6966b4168f3bb1756923f89ec1a99d66ee45799417f67d7f85322df",
            "status": true,
            "timestamp": "2018-06-23T19:29:59Z",
            "transactionFee": "0.000057594",
            "txnHash": "0xab3879f1b6966b4168f3bb1756923f89ec1a99d66ee45799417f67d7f85322df",
            "txnIndex": 176,
            "type": 0,
            "value": "0"
        },
        "fund_flow": [
            {
                "amount": "18,520.3519355",
                "from": "0x99f79b7a134db6e30d1b12f9ee823339cac0ba83",
                "id": 1,
                "isERC1155": false,
                "isERC721": false,
                "isReverted": false,
                "order": 1,
                "to": "0x0335ae7b0a5ee9ed3cb9b1d615148268876116c4",
                "token": "0x2a093bcf0c98ef744bb6f69d74f2f85605324290"
            }
        ],
        "token_infos": [
            {
                "address": "0x2a093bcf0c98ef744bb6f69d74f2f85605324290",
                "decimals": 8
            },
            {
                "address": "0xc02aaa39b223fe8d0a0e5c4f27ead9083c756cc2",
                "decimals": 18
            },
            {
                "address": "0xeeeeeeeeeeeeeeeeeeeeeeeeeeeeeeeeeeeeeeee",
                "decimals": 18
            }
        ]
    },
    "address_label": {
        "labels": [
            {
                "address": "0xeeeeeeeeeeeeeeeeeeeeeeeeeeeeeeeeeeeeeeee",
                "label": "Ether"
            },
            {
                "address": "0x2a093bcf0c98ef744bb6f69d74f2f85605324290",
                "label": "FoodCoin Token"
            },
            {
                "address": "0x0000000000000000000000000000000000000001",
                "label": "Precompiled"
            },
            {
                "address": "0x0000000000000000000000000000000000000002",
                "label": "Precompiled"
            },
            {
                "address": "0x0000000000000000000000000000000000000003",
                "label": "Precompiled"
            },
            {
                "address": "0x0000000000000000000000000000000000000004",
                "label": "Precompiled"
            }
        ]
    },
    "trace": {
        "accountLabels": null,
        "dataMap": {
            "-1": {
                "invocation": {
                    "address": "0x99f79b7a134db6e30d1b12f9ee823339cac0ba83",
                    "callData": "",
                    "decodedMethod": null,
                    "errorInfo": "",
                    "fromAddress": "",
                    "gasUsed": 0,
                    "id": -1,
                    "methodDecoded": false,
                    "operation": "",
                    "output": "",
                    "revert": false,
                    "revertMessage": "",
                    "selector": "",
                    "status": false,
                    "value": ""
                },
                "nodeType": 0
            },
            "0": {
                "invocation": {
                    "address": "0x2a093bcf0c98ef744bb6f69d74f2f85605324290",
                    "callData": "0x0000000000000000000000000335ae7b0a5ee9ed3cb9b1d615148268876116c4000000000000000000000000000000000000000000000000000001af35e65ace",
                    "decodedMethod": {
                        "callParams": [
                            {
                                "name": "_to",
                                "type": "address",
                                "value": "0x0335ae7b0a5ee9ed3cb9b1d615148268876116c4"
                            },
                            {
                                "decimalAvailable": true,
                                "name": "_value",
                                "type": "uint256",
                                "value": "1,852,035,193,550"
                            }
                        ],
                        "constructorArguments": "",
                        "name": "transfer",
                        "returnParams": [
                            {
                                "name": "success",
                                "type": "bool",
                                "value": true
                            }
                        ],
                        "signature": "transfer(address,uint256)"
                    },
                    "errorInfo": "",
                    "fromAddress": "0x99f79b7a134db6e30d1b12f9ee823339cac0ba83",
                    "gasUsed": 57594,
                    "id": 0,
                    "methodDecoded": true,
                    "operation": "CALL",
                    "output": "0x0000000000000000000000000000000000000000000000000000000000000001",
                    "revert": false,
                    "revertMessage": "",
                    "selector": "0xa9059cbb",
                    "status": true,
                    "value": "0"
                },
                "nodeType": 0
            },
            "1": {
                "event": {
                    "contract": "0x2a093bcf0c98ef744bb6f69d74f2f85605324290",
                    "decodedLog": {
                        "name": "Transfer",
                        "params": [
                            {
                                "name": "from",
                                "type": "address",
                                "value": "0x99f79b7a134db6e30d1b12f9ee823339cac0ba83"
                            },
                            {
                                "name": "to",
                                "type": "address",
                                "value": "0x0335ae7b0a5ee9ed3cb9b1d615148268876116c4"
                            },
                            {
                                "decimalAvailable": true,
                                "name": "value",
                                "type": "uint256",
                                "value": "1,852,035,193,550"
                            }
                        ],
                        "signature": "Transfer(address,address,uint256)"
                    },
                    "id": 1,
                    "logData": "0x000000000000000000000000000000000000000000000000000001af35e65ace",
                    "logDecoded": true,
                    "operation": "EVENT",
                    "revert": false,
                    "status": true,
                    "topics": [
                        "0xddf252ad1be2c89b69c2b068fc378daa952ba7f163c4a11628f55a4df523b3ef",
                        "0x00000000000000000000000099f79b7a134db6e30d1b12f9ee823339cac0ba83",
                        "0x0000000000000000000000000335ae7b0a5ee9ed3cb9b1d615148268876116c4"
                    ]
                },
                "nodeType": 1
            },
            "2": {
                "event": {
                    "contract": "0x2a093bcf0c98ef744bb6f69d74f2f85605324290",
                    "decodedLog": {
                        "name": "FoodTransferEvent",
                        "params": [
                            {
                                "name": "from",
                                "type": "address",
                                "value": "0x99f79b7a134db6e30d1b12f9ee823339cac0ba83"
                            },
                            {
                                "name": "to",
                                "type": "address",
                                "value": "0x0335ae7b0a5ee9ed3cb9b1d615148268876116c4"
                            },
                            {
                                "name": "value",
                                "type": "uint256",
                                "value": "1,852,035,193,550"
                            },
                            {
                                "name": "initiator",
                                "type": "address",
                                "value": "0x99f79b7a134db6e30d1b12f9ee823339cac0ba83"
                            },
                            {
                                "name": "newBalanceFrom",
                                "type": "uint256",
                                "value": "3,542,151,652,880"
                            },
                            {
                                "name": "newBalanceTo",
                                "type": "uint256",
                                "value": "1,852,035,193,550"
                            }
                        ],
                        "signature": "FoodTransferEvent(address,address,uint256,address,uint256,uint256)"
                    },
                    "id": 2,
                    "logData": "0x00000000000000000000000099f79b7a134db6e30d1b12f9ee823339cac0ba830000000000000000000000000335ae7b0a5ee9ed3cb9b1d615148268876116c4000000000000000000000000000000000000000000000000000001af35e65ace00000000000000000000000099f79b7a134db6e30d1b12f9ee823339cac0ba8300000000000000000000000000000000000000000000000000000338b8b0e610000000000000000000000000000000000000000000000000000001af35e65ace",
                    "logDecoded": true,
                    "operation": "EVENT",
                    "revert": false,
                    "status": true,
                    "topics": [
                        "0x940d553fc39608a76b364511cc751d4351ba3e109ad9c7d08c30913f3838e941"
                    ]
                },
                "nodeType": 1
            }
        },
        "gasFlame": [
            {
                "children": [
                    {
                        "children": [
                            {
                                "children": [],
                                "depth": 0,
                                "name": "Initial Gas",
                                "value": 23192
                            },
                            {
                                "children": [],
                                "depth": 0,
                                "name": "Executed Gas",
                                "value": 34402
                            }
                        ],
                        "depth": -1,
                        "name": "Actual Gas Used",
                        "value": 57594
                    },
                    {
                        "children": [],
                        "depth": -1,
                        "name": "Refunded Gas",
                        "value": 0
                    }
                ],
                "depth": -2,
                "name": "Total Gas",
                "value": 57594
            }
        ],
        "isConfirmed": true,
        "mainTrace": [
            {
                "children": [
                    {
                        "children": [
                            {
                                "children": [],
                                "depth": 1,
                                "id": 1,
                                "order": 1
                            },
                            {
                                "children": [],
                                "depth": 1,
                                "id": 2,
                                "order": 2
                            }
                        ],
                        "depth": 0,
                        "id": 0,
                        "order": 0
                    }
                ],
                "depth": -1,
                "id": -1,
                "order": -1
            }
        ],
        "mainTraceNodeCount": 3,
        "parentIdMap": {
            "0": -1,
            "1": 0,
            "2": 0
        },
        "tidyTrace": [
            {
                "children": [
                    {
                        "children": [
                            {
                                "children": [],
                                "depth": 1,
                                "id": 1,
                                "order": 1
                            },
                            {
                                "children": [],
                                "depth": 1,
                                "id": 2,
                                "order": 2
                            }
                        ],
                        "depth": 0,
                        "id": 0,
                        "order": 0
                    }
                ],
                "depth": -1,
                "id": -1,
                "order": -1
            }
        ],
        "tidyTraceNodeCount": 3
    },
    "state_change": {
        "stateChanges": [
            {
                "address": "0x2a093bcf0c98ef744bb6f69d74f2f85605324290",
                "erc": "ERC-20",
                "slots": [
                    {
                        "current": "0x000000000000000000000000000000000000000000000000000001af35e65ace",
                        "key": "0x07770308a627fa44adf00904ddb64a5ae8e2db79f456cb217e370967674c54fd",
                        "prev": "0x0000000000000000000000000000000000000000000000000000000000000000"
                    },
                    {
                        "current": "0x00000000000000000000000000000000000000000000000000000338b8b0e610",
                        "key": "0x57e0241ad83da95449fe9d40219153279f201aa602e098a9a0eef261245f76b5",
                        "prev": "0x000000000000000000000000000000000000000000000000000004e7ee9740de"
                    }
                ],
                "storageVariables": [
                    {
                        "name": "balances",
                        "type": "mapping(address => uint256)",
                        "value": {
                            "pairs": [
                                {
                                    "key": "0x0335ae7b0a5ee9ed3cb9b1d615148268876116c4",
                                    "value": {
                                        "current": "1852035193550",
                                        "prev": "0",
                                        "typeTag": 1
                                    }
                                },
                                {
                                    "key": "0x99f79b7a134db6e30d1b12f9ee823339cac0ba83",
                                    "value": {
                                        "current": "3542151652880",
                                        "prev": "5394186846430",
                                        "typeTag": 1
                                    }
                                }
                            ],
                            "typeTag": 4
                        }
                    }
                ]
            }
        ]
    }
}