{
    "balance_change": {
        "balanceChanges": [
            {
                "account": "0x233828b50f4c391a04da741bd29586be441cb681",
                "assets": [
                    {
                        "address": "0xeeeeeeeeeeeeeeeeeeeeeeeeeeeeeeeeeeeeeeee",
                        "amount": "0.015",
                        "iconUrl": "https://assets.blocksec.com/image/1663669189317-3.png",
                        "isERC1155": false,
                        "isERC721": false,
                        "sign": false,
                        "value": ""
                    }
                ]
            },
            {
                "account": "0xf39b5d48f4e662e96957bdea9e641cd7f1fa0451",
                "assets": [
                    {
                        "address": "0xeeeeeeeeeeeeeeeeeeeeeeeeeeeeeeeeeeeeeeee",
                        "amount": "0.015",
                        "iconUrl": "https://assets.blocksec.com/image/1663669189317-3.png",
                        "isERC1155": false,
                        "isERC721": false,
                        "sign": true,
                        "value": ""
                    }
                ]
            }
        ]
    },
    "profile": {
        "basic_info": {
            "baseFee": "",
            "blockNumber": 3209552,
            "callData": "0x4f28af6a00000000000000000000000000000000000000000000000004d2000000000002",
            "debugEnable": true,
            "errorInfo": "",
            "eventCount": 1,
            "feeRecipient": "0xa42af2c70d316684e57aefcc6e393fecb1c7e84e",
            "formatValue": "0.015",
            "gasLimit": 80000,
            "gasPrice": "41",
            "gasUsed": 52543,
            "intTxnCount": 0,
            "internalRevert": false,
            "internalRevertMessage": "",
            "isContractCreation": false,
            "isFlashloan": false,
            "maxFee": "",
            "nonce": 5,
            "overwritedBlockNumber": -1,
            "priorityFee": "",
            "receiver": "0xf39b5d48f4e662e96957bdea9e641cd7f1fa0451",
            "revertMessage": "",
            "sender": "0x233828b50f4c391a04da741bd29586be441cb681",
            "simulationEnable": true,
            "sourceTxnHash": "0xab7cad9e1ecfeabceeb92fb81dc2e793574d621603b85c9c543910fd5729596a",
            "status": true,
            "timestamp": "2017-02-19T02:49:01Z",
            "transactionFee": "0.002154263",
            "txnHash": "0xab7cad9e1ecfeabceeb92fb81dc2e793574d621603b85c9c543910fd5729596a",
            "txnIndex": 0,
            "type": 0,
            "value": "15000000000000000"
        },
        "fund_flow": [
            {
                "amount": "0.015",
                "from": "0x233828b50f4c391a04da741bd29586be441cb681",
                "id": 1,
                "isERC1155": false,
                "isERC721": false,
                "isReverted": false,
                "order": 1,
                "to": "0xf39b5d48f4e662e96957bdea9e641cd7f1fa0451",
                "token": "0xeeeeeeeeeeeeeeeeeeeeeeeeeeeeeeeeeeeeeeee"
            }
        ],
        "token_infos": [
            {
                "address": "0xc02aaa39b223fe8d0a0e5c4f27ead9083c756cc2",
                "decimals": 18
            },
            {
                "address": "0xeeeeeeeeeeeeeeeeeeeeeeeeeeeeeeeeeeeeeeee",
                "decimals": 18
            }
        ]
    },
    "address_label": {
        "labels": [
            {
                "address": "0x0000000000000000000000000000000000000002",
                "label": "Precompiled"
            },
            {
                "address": "0x0000000000000000000000000000000000000003",
                "label": "Precompiled"
            },
            {
                "address": "0x0000000000000000000000000000000000000004",
                "label": "Precompiled"
            },
            {
                "address": "0xeeeeeeeeeeeeeeeeeeeeeeeeeeeeeeeeeeeeeeee",
                "label": "Ether"
            },
            {
                "address": "0x0000000000000000000000000000000000000001",
                "label": "Precompiled"
            }
        ]
    },
    "trace": {
        "accountLabels": null,
        "dataMap": {
            "-1": {
                "invocation": {
                    "address": "0x233828b50f4c391a04da741bd29586be441cb681",
                    "callData": "",
                    "decodedMethod": null,
                    "errorInfo": "",
                    "fromAddress": "",
                    "gasUsed": 0,
                    "id": -1,
                    "methodDecoded": false,
                    "operation": "",
                    "output": "",
                    "revert": false,
                    "revertMessage": "",
                    "selector": "",
                    "status": false,
                    "value": ""
                },
                "nodeType": 0
            },
            "0": {
                "invocation": {
                    "address": "0xf39b5d48f4e662e96957bdea9e641cd7f1fa0451",
                    "callData": "0x00000000000000000000000000000000000000000000000004d2000000000002",
                    "decodedMethod": {
                        "callParams": [
                            {
                                "name": "_hGame",
                                "type": "uint256",
                                "value": "347,340,121,260,949,506"
                            }
                        ],
                        "constructorArguments": "",
                        "name": "handleBet",
                        "returnParams": [],
                        "signature": "handleBet(uint256)"
                    },
                    "errorInfo": "",
                    "fromAddress": "0x233828b50f4c391a04da741bd29586be441cb681",
                    "gasUsed": 52543,
                    "id": 0,
                    "methodDecoded": true,
                    "operation": "CALL",
                    "output": "0x0000000000000000000000000000000000000000000000000000000000000000",
                    "revert": false,
                    "revertMessage": "",
                    "selector": "0x4f28af6a",
                    "status": true,
                    "value": "0.015"
                },
                "nodeType": 0
            },
            "1": {
                "event": {
                    "contract": "0xf39b5d48f4e662e96957bdea9e641cd7f1fa0451",
                    "decodedLog": null,
                    "id": 1,
                    "logData": "0x00000000000000000000000000000000000000000000000004d2000000000002000000000000000000000000233828b50f4c391a04da741bd29586be441cb68100000000000000000000000000000000000000000000000000354a6ba7a18000",
                    "logDecoded": false,
                    "operation": "EVENT",
                    "revert": false,
                    "status": true,
                    "topics": [
                        "0x8157e1093b4c60e14ba2e291e2fbc86ea4e28a0feff5706da964f3437d0c24b2"
                    ]
                },
                "nodeType": 1
            }
        },
        "gasFlame": [
            {
                "children": [
                    {
                        "children": [
                            {
                                "children": [],
                                "depth": 0,
                                "name": "Initial Gas",
                                "value": 21592
                            },
                            {
                                "children": [],
                                "depth": 0,
                                "name": "Executed Gas",
                                "value": 30951
                            }
                        ],
                        "depth": -1,
                        "name": "Actual Gas Used",
                        "value": 52543
                    },
                    {
                        "children": [],
                        "depth": -1,
                        "name": "Refunded Gas",
                        "value": 0
                    }
                ],
                "depth": -2,
                "name": "Total Gas",
                "value": 52543
            }
        ],
        "isConfirmed": true,
        "mainTrace": [
            {
                "children": [
                    {
                        "children": [
                            {
                                "children": [],
                                "depth": 1,
                                "id": 1,
                                "order": 1
                            }
                        ],
                        "depth": 0,
                        "id": 0,
                        "order": 0
                    }
                ],
                "depth": -1,
                "id": -1,
                "order": -1
            }
        ],
        "mainTraceNodeCount": 2,
        "parentIdMap": {
            "0": -1,
            "1": 0
        },
        "tidyTrace": [
            {
                "children": [
                    {
                        "children": [
                            {
                                "children": [],
                                "depth": 1,
                                "id": 1,
                                "order": 1
                            }
                        ],
                        "depth": 0,
                        "id": 0,
                        "order": 0
                    }
                ],
                "depth": -1,
                "id": -1,
                "order": -1
            }
        ],
        "tidyTraceNodeCount": 2
    },
    "state_change": {
        "stateChanges": [
            {
                "address": "0xf39b5d48f4e662e96957bdea9e641cd7f1fa0451",
                "erc": "",
                "slots": [
                    {
                        "current": "0x00000000000000000000000000000000000000000000000000354a6ba7a18000",
                        "key": "0x54190693731d2e8370f447ea3fc9df1191ea66efee8f0eaa37af801737d01d25",
                        "prev": "0x0000000000000000000000000000000000000000000000000000000000000000"
                    },
                    {
                        "current": "0x0000000000000000000000000000000000000000000000000000000058a9079d",
                        "key": "0xaad3e1fd73b10c0ea11a679f3053bc6e5b42cf7a4c89a8404cfbe309db2c0e2d",
                        "prev": "0x0000000000000000000000000000000000000000000000000000000058a90752"
                    }
                ],
                "storageVariables": []
            }
        ]
    }
}