{
    "balance_change": {
        "balanceChanges": [
            {
                "account": "0x1724c21ad0ff44ed5fd200006bf8797b0bdf3230",
                "assets": [
                    {
                        "address": "0xaa0bb10cec1fa372eb3abc17c933fc6ba863dd9e",
                        "amount": "10",
                        "iconUrl": "https://assets.blocksec.com/icon/5a3eaa14158491681b50b446e2b17c00e0641524147b7c748757da3e58d61670.png",
                        "isERC1155": false,
                        "isERC721": false,
                        "sign": false,
                        "value": ""
                    }
                ]
            },
            {
                "account": "0x4516f566bd083a74ebd6a1ce9944843506817289",
                "assets": [
                    {
                        "address": "0xaa0bb10cec1fa372eb3abc17c933fc6ba863dd9e",
                        "amount": "10",
                        "iconUrl": "https://assets.blocksec.com/icon/5a3eaa14158491681b50b446e2b17c00e0641524147b7c748757da3e58d61670.png",
                        "isERC1155": false,
                        "isERC721": false,
                        "sign": true,
                        "value": ""
                    }
                ]
            }
        ]
    },
    "profile": {
        "basic_info": {
            "baseFee": "",
            "blockNumber": 5560776,
            "callData": "0xa9059cbb0000000000000000000000004516f566bd083a74ebd6a1ce99448435068172890000000000000000000000000000000000000000000000008ac7230489e80000",
            "debugEnable": true,
            "errorInfo": "",
            "eventCount": 1,
            "feeRecipient": "0x5cecd1f7261e1f4c684e297be3edf03b825e01c4",
            "formatValue": "0",
            "gasLimit": 60000,
            "gasPrice": "1",
            "gasUsed": 21793,
            "intTxnCount": 0,
            "internalRevert": false,
            "internalRevertMessage": "",
            "isContractCreation": false,
            "isFlashloan": false,
            "maxFee": "",
            "nonce": 1,
            "overwritedBlockNumber": -1,
            "priorityFee": "",
            "receiver": "0xaa0bb10cec1fa372eb3abc17c933fc6ba863dd9e",
            "revertMessage": "",
            "sender": "0x1724c21ad0ff44ed5fd200006bf8797b0bdf3230",
            "simulationEnable": true,
            "sourceTxnHash": "0xab6da3f5e7fe7f05a84b40b7a267b61c28c6a9c8833a11fd9a5a91ecb7f2e662",
            "status": true,
            "timestamp": "2018-05-05T13:46:03Z",
            "transactionFee": "0.000021793",
            "txnHash": "0xab6da3f5e7fe7f05a84b40b7a267b61c28c6a9c8833a11fd9a5a91ecb7f2e662",
            "txnIndex": 17,
            "type": 0,
            "value": "0"
        },
        "fund_flow": [
            {
                "amount": "10",
                "from": "0x1724c21ad0ff44ed5fd200006bf8797b0bdf3230",
                "id": 1,
                "isERC1155": false,
                "isERC721": false,
                "isReverted": false,
                "order": 1,
                "to": "0x4516f566bd083a74ebd6a1ce9944843506817289",
                "token": "0xaa0bb10cec1fa372eb3abc17c933fc6ba863dd9e"
            }
        ],
        "token_infos": [
            {
                "address": "0xaa0bb10cec1fa372eb3abc17c933fc6ba863dd9e",
                "decimals": 18
            },
            {
                "address": "0xc02aaa39b223fe8d0a0e5c4f27ead9083c756cc2",
                "decimals": 18
            },
            {
                "address": "0xeeeeeeeeeeeeeeeeeeeeeeeeeeeeeeeeeeeeeeee",
                "decimals": 18
            }
        ]
    },
    "address_label": {
        "labels": [
            {
                "address": "0x0000000000000000000000000000000000000004",
                "label": "Precompiled"
            },
            {
                "address": "0xeeeeeeeeeeeeeeeeeeeeeeeeeeeeeeeeeeeeeeee",
                "label": "Ether"
            },
            {
                "address": "0xaa0bb10cec1fa372eb3abc17c933fc6ba863dd9e",
                "label": "HMStoken"
            },
            {
                "address": "0x0000000000000000000000000000000000000001",
                "label": "Precompiled"
            },
            {
                "address": "0x0000000000000000000000000000000000000002",
                "label": "Precompiled"
            },
            {
                "address": "0x0000000000000000000000000000000000000003",
                "label": "Precompiled"
            }
        ]
    },
    "trace": {
        "accountLabels": null,
        "dataMap": {
            "-1": {
                "invocation": {
                    "address": "0x1724c21ad0ff44ed5fd200006bf8797b0bdf3230",
                    "callData": "",
                    "decodedMethod": null,
                    "errorInfo": "",
                    "fromAddress": "",
                    "gasUsed": 0,
                    "id": -1,
                    "methodDecoded": false,
                    "operation": "",
                    "output": "",
                    "revert": false,
                    "revertMessage": "",
                    "selector": "",
                    "status": false,
                    "value": ""
                },
                "nodeType": 0
            },
            "0": {
                "invocation": {
                    "address": "0xaa0bb10cec1fa372eb3abc17c933fc6ba863dd9e",
                    "callData": "0x0000000000000000000000004516f566bd083a74ebd6a1ce99448435068172890000000000000000000000000000000000000000000000008ac7230489e80000",
                    "decodedMethod": {
                        "callParams": [
                            {
                                "name": "recipient",
                                "type": "address",
                                "value": "0x4516f566bd083a74ebd6a1ce9944843506817289"
                            },
                            {
                                "decimalAvailable": true,
                                "name": "amount",
                                "type": "uint256",
                                "value": "10,000,000,000,000,000,000"
                            }
                        ],
                        "constructorArguments": "",
                        "name": "transfer",
                        "returnParams": [
                            {
                                "name": "",
                                "type": "bool",
                                "value": true
                            }
                        ],
                        "signature": "transfer(address,uint256)"
                    },
                    "errorInfo": "",
                    "fromAddress": "0x1724c21ad0ff44ed5fd200006bf8797b0bdf3230",
                    "gasUsed": 21793,
                    "id": 0,
                    "methodDecoded": true,
                    "operation": "CALL",
                    "output": "0x0000000000000000000000000000000000000000000000000000000000000001",
                    "revert": false,
                    "revertMessage": "",
                    "selector": "0xa9059cbb",
                    "status": true,
                    "value": "0"
                },
                "nodeType": 0
            },
            "1": {
                "event": {
                    "contract": "0xaa0bb10cec1fa372eb3abc17c933fc6ba863dd9e",
                    "decodedLog": {
                        "name": "Transfer",
                        "params": [
                            {
                                "name": "from",
                                "type": "address",
                                "value": "0x1724c21ad0ff44ed5fd200006bf8797b0bdf3230"
                            },
                            {
                                "name": "to",
                                "type": "address",
                                "value": "0x4516f566bd083a74ebd6a1ce9944843506817289"
                            },
                            {
                                "decimalAvailable": true,
                                "name": "value",
                                "type": "uint256",
                                "value": "10,000,000,000,000,000,000"
                            }
                        ],
                        "signature": "Transfer(address,address,uint256)"
                    },
                    "id": 1,
                    "logData": "0x0000000000000000000000000000000000000000000000008ac7230489e80000",
                    "logDecoded": true,
                    "operation": "EVENT",
                    "revert": false,
                    "status": true,
                    "topics": [
                        "0xddf252ad1be2c89b69c2b068fc378daa952ba7f163c4a11628f55a4df523b3ef",
                        "0x0000000000000000000000001724c21ad0ff44ed5fd200006bf8797b0bdf3230",
                        "0x0000000000000000000000004516f566bd083a74ebd6a1ce9944843506817289"
                    ]
                },
                "nodeType": 1
            }
        },
        "gasFlame": [
            {
                "children": [
                    {
                        "children": [
                            {
                                "children": [],
                                "depth": 0,
                                "name": "Initial Gas",
                                "value": 23192
                            },
                            {
                                "children": [],
                                "depth": 0,
                                "name": "Executed Gas",
                                "value": 13601
                            }
                        ],
                        "depth": -1,
                        "name": "Actual Gas Used",
                        "value": 21793
                    },
                    {
                        "children": [],
                        "depth": -1,
                        "name": "Refunded Gas",
                        "value": 15000
                    }
                ],
                "depth": -2,
                "name": "Total Gas",
                "value": 36793
            }
        ],
        "isConfirmed": true,
        "mainTrace": [
            {
                "children": [
                    {
                        "children": [
                            {
                                "children": [],
                                "depth": 1,
                                "id": 1,
                                "order": 1
                            }
                        ],
                        "depth": 0,
                        "id": 0,
                        "order": 0
                    }
                ],
                "depth": -1,
                "id": -1,
                "order": -1
            }
        ],
        "mainTraceNodeCount": 2,
        "parentIdMap": {
            "0": -1,
            "1": 0
        },
        "tidyTrace": [
            {
                "children": [
                    {
                        "children": [
                            {
                                "children": [],
                                "depth": 1,
                                "id": 1,
                                "order": 1
                            }
                        ],
                        "depth": 0,
                        "id": 0,
                        "order": 0
                    }
                ],
                "depth": -1,
                "id": -1,
                "order": -1
            }
        ],
        "tidyTraceNodeCount": 2
    },
    "state_change": {
        "stateChanges": [
            {
                "address": "0xaa0bb10cec1fa372eb3abc17c933fc6ba863dd9e",
                "erc": "",
                "slots": [
                    {
                        "current": "0x0000000000000000000000000000000000000000000000000000000000000000",
                        "key": "0x581f902d72e158ece8d2fc36b09a548a064d19314104d69490ade48ed0a119d7",
                        "prev": "0x0000000000000000000000000000000000000000000000008ac7230489e80000"
                    },
                    {
                        "current": "0x000000000000000000000000000000000000000000000021a9f3e6ca225cc000",
                        "key": "0xba6ca624dcb968886569fcfb448c22550f69e47447ea7ef030dda17c5d7a306c",
                        "prev": "0x0000000000000000000000000000000000000000000000211f2cc3c59874c000"
                    }
                ],
                "storageVariables": []
            }
        ]
    }
}