{
    "balance_change": {
        "balanceChanges": [
            {
                "account": "0xb6aaa59602e31f4d5540fc71bda1a2098756cfb2",
                "assets": [
                    {
                        "address": "0xd26114cd6ee289accf82350c8d8487fedb8a0c07",
                        "amount": "153.65331247",
                        "iconUrl": "https://assets.blocksec.com/icon/33337523e3649cd91abcb0cac0df074ff9512695abafe3958d0a610195d87716.png",
                        "isERC1155": false,
                        "isERC721": false,
                        "sign": false,
                        "value": "829.0134403"
                    }
                ]
            },
            {
                "account": "0xed19fa9592db45d7128f9eaaee76c78cd5a767ee",
                "assets": [
                    {
                        "address": "0xd26114cd6ee289accf82350c8d8487fedb8a0c07",
                        "amount": "153.65331247",
                        "iconUrl": "https://assets.blocksec.com/icon/33337523e3649cd91abcb0cac0df074ff9512695abafe3958d0a610195d87716.png",
                        "isERC1155": false,
                        "isERC721": false,
                        "sign": true,
                        "value": "829.0134403"
                    }
                ]
            }
        ]
    },
    "profile": {
        "basic_info": {
            "baseFee": "",
            "blockNumber": 11798593,
            "callData": "0xa9059cbb000000000000000000000000ed19fa9592db45d7128f9eaaee76c78cd5a767ee000000000000000000000000000000000000000000000008545e3999f072dc00",
            "debugEnable": true,
            "errorInfo": "",
            "eventCount": 1,
            "feeRecipient": "0x5a0b54d5dc17e0aadc383d2db43b0a0d3e029c4c",
            "formatValue": "0",
            "gasLimit": 62829,
            "gasPrice": "347.5",
            "gasUsed": 37358,
            "intTxnCount": 0,
            "internalRevert": false,
            "internalRevertMessage": "",
            "isContractCreation": false,
            "isFlashloan": false,
            "maxFee": "",
            "nonce": 17,
            "overwritedBlockNumber": -1,
            "priorityFee": "",
            "receiver": "0xd26114cd6ee289accf82350c8d8487fedb8a0c07",
            "revertMessage": "",
            "sender": "0xb6aaa59602e31f4d5540fc71bda1a2098756cfb2",
            "simulationEnable": true,
            "sourceTxnHash": "0xab1cf6301028aac955e8a15d44aee7fb772d4dded75e72b8c0e0bcb4c5131262",
            "status": true,
            "timestamp": "2021-02-05T21:06:36Z",
            "transactionFee": "0.012981905",
            "txnHash": "0xab1cf6301028aac955e8a15d44aee7fb772d4dded75e72b8c0e0bcb4c5131262",
            "txnIndex": 2,
            "type": 0,
            "value": "0"
        },
        "fund_flow": [
            {
                "amount": "153.65331247",
                "from": "0xb6aaa59602e31f4d5540fc71bda1a2098756cfb2",
                "id": 1,
                "isERC1155": false,
                "isERC721": false,
                "isReverted": false,
                "order": 1,
                "to": "0xed19fa9592db45d7128f9eaaee76c78cd5a767ee",
                "token": "0xd26114cd6ee289accf82350c8d8487fedb8a0c07"
            }
        ],
        "token_infos": [
            {
                "address": "0xeeeeeeeeeeeeeeeeeeeeeeeeeeeeeeeeeeeeeeee",
                "decimals": 18
            },
            {
                "address": "0xc02aaa39b223fe8d0a0e5c4f27ead9083c756cc2",
                "decimals": 18
            },
            {
                "address": "0xd26114cd6ee289accf82350c8d8487fedb8a0c07",
                "decimals": 18
            }
        ]
    },
    "address_label": {
        "labels": [
            {
                "address": "0x0000000000000000000000000000000000000002",
                "label": "Precompiled"
            },
            {
                "address": "0x0000000000000000000000000000000000000003",
                "label": "Precompiled"
            },
            {
                "address": "0x0000000000000000000000000000000000000004",
                "label": "Precompiled"
            },
            {
                "address": "0xeeeeeeeeeeeeeeeeeeeeeeeeeeeeeeeeeeeeeeee",
                "label": "Ether"
            },
            {
                "address": "0xd26114cd6ee289accf82350c8d8487fedb8a0c07",
                "label": "OMG Network: OMG Token"
            },
            {
                "address": "0xed19fa9592db45d7128f9eaaee76c78cd5a767ee",
                "label": "KRAKEN"
            },
            {
                "address": "0x0000000000000000000000000000000000000001",
                "label": "Precompiled"
            }
        ]
    },
    "trace": {
        "accountLabels": null,
        "dataMap": {
            "-1": {
                "invocation": {
                    "address": "0xb6aaa59602e31f4d5540fc71bda1a2098756cfb2",
                    "callData": "",
                    "decodedMethod": null,
                    "errorInfo": "",
                    "fromAddress": "",
                    "gasUsed": 0,
                    "id": -1,
                    "methodDecoded": false,
                    "operation": "",
                    "output": "",
                    "revert": false,
                    "revertMessage": "",
                    "selector": "",
                    "status": false,
                    "value": ""
                },
                "nodeType": 0
            },
            "0": {
                "invocation": {
                    "address": "0xd26114cd6ee289accf82350c8d8487fedb8a0c07",
                    "callData": "0x000000000000000000000000ed19fa9592db45d7128f9eaaee76c78cd5a767ee000000000000000000000000000000000000000000000008545e3999f072dc00",
                    "decodedMethod": {
                        "callParams": [
                            {
                                "name": "_to",
                                "type": "address",
                                "value": "0xed19fa9592db45d7128f9eaaee76c78cd5a767ee"
                            },
                            {
                                "decimalAvailable": true,
                                "name": "_value",
                                "type": "uint256",
                                "value": "153,653,312,470,000,000,000"
                            }
                        ],
                        "constructorArguments": "",
                        "name": "transfer",
                        "returnParams": [],
                        "signature": "transfer(address,uint256)"
                    },
                    "errorInfo": "",
                    "fromAddress": "0xb6aaa59602e31f4d5540fc71bda1a2098756cfb2",
                    "gasUsed": 37358,
                    "id": 0,
                    "methodDecoded": true,
                    "operation": "CALL",
                    "output": "",
                    "revert": false,
                    "revertMessage": "",
                    "selector": "0xa9059cbb",
                    "status": true,
                    "value": "0"
                },
                "nodeType": 0
            },
            "1": {
                "event": {
                    "contract": "0xd26114cd6ee289accf82350c8d8487fedb8a0c07",
                    "decodedLog": {
                        "name": "Transfer",
                        "params": [
                            {
                                "name": "from",
                                "type": "address",
                                "value": "0xb6aaa59602e31f4d5540fc71bda1a2098756cfb2"
                            },
                            {
                                "name": "to",
                                "type": "address",
                                "value": "0xed19fa9592db45d7128f9eaaee76c78cd5a767ee"
                            },
                            {
                                "decimalAvailable": true,
                                "name": "value",
                                "type": "uint256",
                                "value": "153,653,312,470,000,000,000"
                            }
                        ],
                        "signature": "Transfer(address,address,uint256)"
                    },
                    "id": 1,
                    "logData": "0x000000000000000000000000000000000000000000000008545e3999f072dc00",
                    "logDecoded": true,
                    "operation": "EVENT",
                    "revert": false,
                    "status": true,
                    "topics": [
                        "0xddf252ad1be2c89b69c2b068fc378daa952ba7f163c4a11628f55a4df523b3ef",
                        "0x000000000000000000000000b6aaa59602e31f4d5540fc71bda1a2098756cfb2",
                        "0x000000000000000000000000ed19fa9592db45d7128f9eaaee76c78cd5a767ee"
                    ]
                },
                "nodeType": 1
            }
        },
        "gasFlame": [
            {
                "children": [
                    {
                        "children": [
                            {
                                "children": [],
                                "depth": 0,
                                "name": "Initial Gas",
                                "value": 21656
                            },
                            {
                                "children": [],
                                "depth": 0,
                                "name": "Executed Gas",
                                "value": 30702
                            }
                        ],
                        "depth": -1,
                        "name": "Actual Gas Used",
                        "value": 37358
                    },
                    {
                        "children": [],
                        "depth": -1,
                        "name": "Refunded Gas",
                        "value": 15000
                    }
                ],
                "depth": -2,
                "name": "Total Gas",
                "value": 52358
            }
        ],
        "isConfirmed": true,
        "mainTrace": [
            {
                "children": [
                    {
                        "children": [
                            {
                                "children": [],
                                "depth": 1,
                                "id": 1,
                                "order": 1
                            }
                        ],
                        "depth": 0,
                        "id": 0,
                        "order": 0
                    }
                ],
                "depth": -1,
                "id": -1,
                "order": -1
            }
        ],
        "mainTraceNodeCount": 2,
        "parentIdMap": {
            "0": -1,
            "1": 0
        },
        "tidyTrace": [
            {
                "children": [
                    {
                        "children": [
                            {
                                "children": [],
                                "depth": 1,
                                "id": 1,
                                "order": 1
                            }
                        ],
                        "depth": 0,
                        "id": 0,
                        "order": 0
                    }
                ],
                "depth": -1,
                "id": -1,
                "order": -1
            }
        ],
        "tidyTraceNodeCount": 2
    },
    "state_change": {
        "stateChanges": [
            {
                "address": "0xd26114cd6ee289accf82350c8d8487fedb8a0c07",
                "erc": "ERC-20",
                "slots": [
                    {
                        "current": "0x0000000000000000000000000000000000000000000000000000000000000000",
                        "key": "0x36a00cff0d1fc369defb41f0e6d472c4a580522c644026eb6f95cee29a1ef7a2",
                        "prev": "0x000000000000000000000000000000000000000000000008545e3999f072dc00"
                    },
                    {
                        "current": "0x000000000000000000000000000000000000000000000008545e3999f072dc00",
                        "key": "0x27b6eff2e8cc3061aebe9278fdbadbdc55b14c17a4cdf0dcfb69acf3f674d055",
                        "prev": "0x0000000000000000000000000000000000000000000000000000000000000000"
                    }
                ],
                "storageVariables": []
            }
        ]
    }
}