{
    "balance_change": {
        "balanceChanges": []
    },
    "profile": {
        "basic_info": {
            "baseFee": "",
            "blockNumber": 2685882,
            "callData": "0xf6d339e4ae097a8b4e6cf4fabb9d95b81633b43f0d56b70de6abe5108287e01dc6664eb70000000000000000000000000000000000000000000000000000000000000060000000000000000000000000837a5e6f966945abc67cb0b3f8ef62ae04ed63ce00000000000000000000000000000000000000000000000000000000000000014100000000000000000000000000000000000000000000000000000000000000",
            "debugEnable": true,
            "errorInfo": "out of gas",
            "eventCount": 0,
            "feeRecipient": "0x1e9939daaad6924ad004c2560e90804164900341",
            "formatValue": "0",
            "gasLimit": 31972,
            "gasPrice": "23.408725422",
            "gasUsed": 31972,
            "intTxnCount": 1,
            "internalRevert": true,
            "internalRevertMessage": "",
            "isContractCreation": false,
            "isFlashloan": false,
            "maxFee": "",
            "nonce": 312,
            "overwritedBlockNumber": -1,
            "priorityFee": "",
            "receiver": "0x3bb2bb5c6c9c9b7f4ef430b47dc7e026310042ea",
            "revertMessage": "",
            "sender": "0x3ff047e5e803e20f5ef55ea1029adb89618047db",
            "simulationEnable": true,
            "sourceTxnHash": "0xab4e95fc7b3572efc3519618c4a821957638aab3f02fc32bd11e9786db709f6c",
            "status": false,
            "timestamp": "2016-11-24T12:25:47Z",
            "transactionFee": "0.000748423769192184",
            "txnHash": "0xab4e95fc7b3572efc3519618c4a821957638aab3f02fc32bd11e9786db709f6c",
            "txnIndex": 2,
            "type": 0,
            "value": "0"
        },
        "fund_flow": [],
        "token_infos": [
            {
                "address": "0xc02aaa39b223fe8d0a0e5c4f27ead9083c756cc2",
                "decimals": 18
            },
            {
                "address": "0xeeeeeeeeeeeeeeeeeeeeeeeeeeeeeeeeeeeeeeee",
                "decimals": 18
            }
        ]
    },
    "address_label": {
        "labels": [
            {
                "address": "0x0000000000000000000000000000000000000003",
                "label": "Precompiled"
            },
            {
                "address": "0xeeeeeeeeeeeeeeeeeeeeeeeeeeeeeeeeeeeeeeee",
                "label": "Ether"
            },
            {
                "address": "0x0000000000000000000000000000000000000004",
                "label": "Precompiled"
            },
            {
                "address": "0x3bb2bb5c6c9c9b7f4ef430b47dc7e026310042ea",
                "label": "Registry"
            },
            {
                "address": "0x0000000000000000000000000000000000000001",
                "label": "Precompiled"
            },
            {
                "address": "0x0000000000000000000000000000000000000002",
                "label": "Precompiled"
            }
        ]
    },
    "trace": {
        "accountLabels": null,
        "dataMap": {
            "-1": {
                "invocation": {
                    "address": "0x3ff047e5e803e20f5ef55ea1029adb89618047db",
                    "callData": "",
                    "decodedMethod": null,
                    "errorInfo": "",
                    "fromAddress": "",
                    "gasUsed": 0,
                    "id": -1,
                    "methodDecoded": false,
                    "operation": "",
                    "output": "",
                    "revert": false,
                    "revertMessage": "",
                    "selector": "",
                    "status": false,
                    "value": ""
                },
                "nodeType": 0
            },
            "0": {
                "invocation": {
                    "address": "0x3bb2bb5c6c9c9b7f4ef430b47dc7e026310042ea",
                    "callData": "0xae097a8b4e6cf4fabb9d95b81633b43f0d56b70de6abe5108287e01dc6664eb70000000000000000000000000000000000000000000000000000000000000060000000000000000000000000837a5e6f966945abc67cb0b3f8ef62ae04ed63ce00000000000000000000000000000000000000000000000000000000000000014100000000000000000000000000000000000000000000000000000000000000",
                    "decodedMethod": {
                        "callParams": [
                            {
                                "name": "_name",
                                "type": "bytes32",
                                "value": "0xae097a8b4e6cf4fabb9d95b81633b43f0d56b70de6abe5108287e01dc6664eb7"
                            },
                            {
                                "name": "_key",
                                "type": "string",
                                "value": "A"
                            },
                            {
                                "name": "_value",
                                "type": "address",
                                "value": "0x837a5e6f966945abc67cb0b3f8ef62ae04ed63ce"
                            }
                        ],
                        "constructorArguments": "",
                        "name": "setAddress",
                        "returnParams": [],
                        "signature": "setAddress(bytes32,string,address)"
                    },
                    "errorInfo": "out of gas",
                    "fromAddress": "0x3ff047e5e803e20f5ef55ea1029adb89618047db",
                    "gasUsed": 31972,
                    "id": 0,
                    "methodDecoded": true,
                    "operation": "CALL",
                    "output": "",
                    "revert": true,
                    "revertMessage": "",
                    "selector": "0xf6d339e4",
                    "status": false,
                    "value": "0"
                },
                "nodeType": 0
            },
            "1": {
                "invocation": {
                    "address": "0x0000000000000000000000000000000000000004",
                    "callData": "0x",
                    "decodedMethod": {
                        "callParams": [
                            {
                                "name": "data",
                                "type": "bytes",
                                "value": "0x41"
                            }
                        ],
                        "constructorArguments": "",
                        "name": "dataCopy()",
                        "returnParams": [
                            {
                                "name": "data",
                                "type": "bytes",
                                "value": "0x41"
                            }
                        ],
                        "signature": "dataCopy(bytes)"
                    },
                    "errorInfo": "",
                    "fromAddress": "0x3bb2bb5c6c9c9b7f4ef430b47dc7e026310042ea",
                    "gasUsed": 18,
                    "id": 1,
                    "methodDecoded": true,
                    "operation": "CALL",
                    "output": "0x41",
                    "revert": true,
                    "revertMessage": "",
                    "selector": "0x41",
                    "status": true,
                    "value": "0"
                },
                "nodeType": 0
            }
        },
        "gasFlame": [
            {
                "children": [
                    {
                        "children": [
                            {
                                "children": [],
                                "depth": 0,
                                "name": "Initial Gas",
                                "value": 25432
                            },
                            {
                                "children": [
                                    {
                                        "children": [],
                                        "depth": 1,
                                        "name": "dataCopy()",
                                        "value": 18
                                    }
                                ],
                                "depth": 0,
                                "name": "Executed Gas",
                                "value": 6540
                            }
                        ],
                        "depth": -1,
                        "name": "Actual Gas Used",
                        "value": 31972
                    },
                    {
                        "children": [],
                        "depth": -1,
                        "name": "Refunded Gas",
                        "value": 0
                    }
                ],
                "depth": -2,
                "name": "Total Gas",
                "value": 31972
            }
        ],
        "isConfirmed": true,
        "mainTrace": [
            {
                "children": [
                    {
                        "children": [
                            {
                                "children": [],
                                "depth": 1,
                                "id": 1,
                                "order": 1
                            }
                        ],
                        "depth": 0,
                        "id": 0,
                        "order": 0
                    }
                ],
                "depth": -1,
                "id": -1,
                "order": -1
            }
        ],
        "mainTraceNodeCount": 2,
        "parentIdMap": {
            "0": -1,
            "1": 0
        },
        "tidyTrace": [
            {
                "children": [
                    {
                        "children": [
                            {
                                "children": [],
                                "depth": 1,
                                "id": 1,
                                "order": 1
                            }
                        ],
                        "depth": 0,
                        "id": 0,
                        "order": 0
                    }
                ],
                "depth": -1,
                "id": -1,
                "order": -1
            }
        ],
        "tidyTraceNodeCount": 2
    },
    "state_change": {
        "stateChanges": []
    }
}