{
    "balance_change": {
        "balanceChanges": [
            {
                "account": "0x588a57a7499e3c262f01a6cb5bbfa1d44cf96bf1",
                "assets": [
                    {
                        "address": "0xaa247c0d81b83812e1abf8bab078e4540d87e3fb",
                        "amount": "9.7963437",
                        "iconUrl": "",
                        "isERC1155": false,
                        "isERC721": false,
                        "sign": false,
                        "value": ""
                    }
                ]
            },
            {
                "account": "0xd431e92052778412423867c47d441fcafeae7a70",
                "assets": [
                    {
                        "address": "0xaa247c0d81b83812e1abf8bab078e4540d87e3fb",
                        "amount": "9.7963437",
                        "iconUrl": "",
                        "isERC1155": false,
                        "isERC721": false,
                        "sign": true,
                        "value": ""
                    }
                ]
            }
        ]
    },
    "profile": {
        "basic_info": {
            "baseFee": "5.233230889",
            "blockNumber": 19817880,
            "callData": "0xa9059cbb000000000000000000000000d431e92052778412423867c47d441fcafeae7a7000000000000000000000000000000000000000000000000087f39ab12022c800",
            "debugEnable": true,
            "errorInfo": "",
            "eventCount": 1,
            "feeRecipient": "0x95222290dd7278aa3ddd389cc1e1d165cc4bafe5",
            "formatValue": "0",
            "gasLimit": 35102,
            "gasPrice": "5.332230889",
            "gasUsed": 30295,
            "intTxnCount": 0,
            "internalRevert": false,
            "internalRevertMessage": "",
            "isContractCreation": false,
            "isFlashloan": false,
            "maxFee": "6.88",
            "nonce": 13,
            "overwritedBlockNumber": -1,
            "priorityFee": "0.099",
            "receiver": "0xaa247c0d81b83812e1abf8bab078e4540d87e3fb",
            "revertMessage": "",
            "sender": "0x588a57a7499e3c262f01a6cb5bbfa1d44cf96bf1",
            "simulationEnable": true,
            "sourceTxnHash": "0xabe3a36b1f4ffd5fb1f6614dc8b370d7245b0fd48161f811136966357ba8acfb",
            "status": true,
            "timestamp": "2024-05-07T11:26:11Z",
            "transactionFee": "0.000161539934782255",
            "txnHash": "0xabe3a36b1f4ffd5fb1f6614dc8b370d7245b0fd48161f811136966357ba8acfb",
            "txnIndex": 158,
            "type": 2,
            "value": "0"
        },
        "fund_flow": [
            {
                "amount": "9.7963437",
                "from": "0x588a57a7499e3c262f01a6cb5bbfa1d44cf96bf1",
                "id": 1,
                "isERC1155": false,
                "isERC721": false,
                "isReverted": false,
                "order": 1,
                "to": "0xd431e92052778412423867c47d441fcafeae7a70",
                "token": "0xaa247c0d81b83812e1abf8bab078e4540d87e3fb"
            }
        ],
        "token_infos": [
            {
                "address": "0xaa247c0d81b83812e1abf8bab078e4540d87e3fb",
                "decimals": 18
            },
            {
                "address": "0xc02aaa39b223fe8d0a0e5c4f27ead9083c756cc2",
                "decimals": 18
            },
            {
                "address": "0xeeeeeeeeeeeeeeeeeeeeeeeeeeeeeeeeeeeeeeee",
                "decimals": 18
            }
        ]
    },
    "address_label": {
        "labels": [
            {
                "address": "0xaa247c0d81b83812e1abf8bab078e4540d87e3fb",
                "label": "Meson Network: MSN Token"
            },
            {
                "address": "0x0000000000000000000000000000000000000001",
                "label": "Precompiled"
            },
            {
                "address": "0x0000000000000000000000000000000000000002",
                "label": "Precompiled"
            },
            {
                "address": "0x0000000000000000000000000000000000000003",
                "label": "Precompiled"
            },
            {
                "address": "0x0000000000000000000000000000000000000004",
                "label": "Precompiled"
            },
            {
                "address": "0xeeeeeeeeeeeeeeeeeeeeeeeeeeeeeeeeeeeeeeee",
                "label": "Ether"
            }
        ]
    },
    "trace": {
        "accountLabels": null,
        "dataMap": {
            "-1": {
                "invocation": {
                    "address": "0x588a57a7499e3c262f01a6cb5bbfa1d44cf96bf1",
                    "callData": "",
                    "decodedMethod": null,
                    "errorInfo": "",
                    "fromAddress": "",
                    "gasUsed": 0,
                    "id": -1,
                    "methodDecoded": false,
                    "operation": "",
                    "output": "",
                    "revert": false,
                    "revertMessage": "",
                    "selector": "",
                    "status": false,
                    "value": ""
                },
                "nodeType": 0
            },
            "0": {
                "invocation": {
                    "address": "0xaa247c0d81b83812e1abf8bab078e4540d87e3fb",
                    "callData": "0x000000000000000000000000d431e92052778412423867c47d441fcafeae7a7000000000000000000000000000000000000000000000000087f39ab12022c800",
                    "decodedMethod": {
                        "callParams": [
                            {
                                "name": "to",
                                "type": "address",
                                "value": "0xd431e92052778412423867c47d441fcafeae7a70"
                            },
                            {
                                "decimalAvailable": true,
                                "name": "amount",
                                "type": "uint256",
                                "value": "9,796,343,700,000,000,000"
                            }
                        ],
                        "constructorArguments": "",
                        "name": "transfer",
                        "returnParams": [
                            {
                                "name": "",
                                "type": "bool",
                                "value": true
                            }
                        ],
                        "signature": "transfer(address,uint256)"
                    },
                    "errorInfo": "",
                    "fromAddress": "0x588a57a7499e3c262f01a6cb5bbfa1d44cf96bf1",
                    "gasUsed": 30295,
                    "id": 0,
                    "methodDecoded": true,
                    "operation": "CALL",
                    "output": "0x0000000000000000000000000000000000000000000000000000000000000001",
                    "revert": false,
                    "revertMessage": "",
                    "selector": "0xa9059cbb",
                    "status": true,
                    "value": "0"
                },
                "nodeType": 0
            },
            "1": {
                "event": {
                    "contract": "0xaa247c0d81b83812e1abf8bab078e4540d87e3fb",
                    "decodedLog": {
                        "name": "Transfer",
                        "params": [
                            {
                                "name": "from",
                                "type": "address",
                                "value": "0x588a57a7499e3c262f01a6cb5bbfa1d44cf96bf1"
                            },
                            {
                                "name": "to",
                                "type": "address",
                                "value": "0xd431e92052778412423867c47d441fcafeae7a70"
                            },
                            {
                                "decimalAvailable": true,
                                "name": "value",
                                "type": "uint256",
                                "value": "9,796,343,700,000,000,000"
                            }
                        ],
                        "signature": "Transfer(address,address,uint256)"
                    },
                    "id": 1,
                    "logData": "0x00000000000000000000000000000000000000000000000087f39ab12022c800",
                    "logDecoded": true,
                    "operation": "EVENT",
                    "revert": false,
                    "status": true,
                    "topics": [
                        "0xddf252ad1be2c89b69c2b068fc378daa952ba7f163c4a11628f55a4df523b3ef",
                        "0x000000000000000000000000588a57a7499e3c262f01a6cb5bbfa1d44cf96bf1",
                        "0x000000000000000000000000d431e92052778412423867c47d441fcafeae7a70"
                    ]
                },
                "nodeType": 1
            }
        },
        "gasFlame": [
            {
                "children": [
                    {
                        "children": [
                            {
                                "children": [],
                                "depth": 0,
                                "name": "Initial Gas",
                                "value": 21644
                            },
                            {
                                "children": [],
                                "depth": 0,
                                "name": "Executed Gas",
                                "value": 13451
                            }
                        ],
                        "depth": -1,
                        "name": "Actual Gas Used",
                        "value": 30295
                    },
                    {
                        "children": [],
                        "depth": -1,
                        "name": "Refunded Gas",
                        "value": 4800
                    }
                ],
                "depth": -2,
                "name": "Total Gas",
                "value": 35095
            }
        ],
        "isConfirmed": true,
        "mainTrace": [
            {
                "children": [
                    {
                        "children": [
                            {
                                "children": [],
                                "depth": 1,
                                "id": 1,
                                "order": 1
                            }
                        ],
                        "depth": 0,
                        "id": 0,
                        "order": 0
                    }
                ],
                "depth": -1,
                "id": -1,
                "order": -1
            }
        ],
        "mainTraceNodeCount": 2,
        "parentIdMap": {
            "0": -1,
            "1": 0
        },
        "tidyTrace": [
            {
                "children": [
                    {
                        "children": [
                            {
                                "children": [],
                                "depth": 1,
                                "id": 1,
                                "order": 1
                            }
                        ],
                        "depth": 0,
                        "id": 0,
                        "order": 0
                    }
                ],
                "depth": -1,
                "id": -1,
                "order": -1
            }
        ],
        "tidyTraceNodeCount": 2
    },
    "state_change": {
        "stateChanges": [
            {
                "address": "0xaa247c0d81b83812e1abf8bab078e4540d87e3fb",
                "erc": "ERC-20",
                "slots": [
                    {
                        "current": "0x000000000000000000000000000000000000000000000003b7b25b9ba6c5c000",
                        "key": "0xdce59d99ab558d916531d27a21bf34b135fb3b3d96e56183f763642730e07ba0",
                        "prev": "0x0000000000000000000000000000000000000000000000032fbec0ea86a2f800"
                    },
                    {
                        "current": "0x0000000000000000000000000000000000000000000000000000000000000000",
                        "key": "0x237d8475dda89104560f4bdf5919211aa546713c8b351b5fad277e2a35d983b5",
                        "prev": "0x00000000000000000000000000000000000000000000000087f39ab12022c800"
                    }
                ],
                "storageVariables": [
                    {
                        "name": "_balances",
                        "type": "mapping(address => uint256)",
                        "value": {
                            "pairs": [
                                {
                                    "key": "0x588a57a7499e3c262f01a6cb5bbfa1d44cf96bf1",
                                    "value": {
                                        "current": "0",
                                        "prev": "9796343700000000000",
                                        "typeTag": 1
                                    }
                                },
                                {
                                    "key": "0xd431e92052778412423867c47d441fcafeae7a70",
                                    "value": {
                                        "current": "68576975200000000000",
                                        "prev": "58780631500000000000",
                                        "typeTag": 1
                                    }
                                }
                            ],
                            "typeTag": 4
                        }
                    }
                ]
            }
        ]
    }
}