{
    "balance_change": {
        "balanceChanges": [
            {
                "account": "0x13e1699a681d48d9b98e0adf64052134559f105c",
                "assets": [
                    {
                        "address": "0xeeeeeeeeeeeeeeeeeeeeeeeeeeeeeeeeeeeeeeee",
                        "amount": "20",
                        "iconUrl": "https://assets.blocksec.com/image/1663669189317-3.png",
                        "isERC1155": false,
                        "isERC721": false,
                        "sign": true,
                        "value": "43042.15853"
                    }
                ]
            },
            {
                "account": "0x8484ef722627bf18ca5ae6bcf031c23e6e922b30",
                "assets": [
                    {
                        "address": "0xeeeeeeeeeeeeeeeeeeeeeeeeeeeeeeeeeeeeeeee",
                        "amount": "20",
                        "iconUrl": "https://assets.blocksec.com/image/1663669189317-3.png",
                        "isERC1155": false,
                        "isERC721": false,
                        "sign": false,
                        "value": "43042.15853"
                    }
                ]
            }
        ]
    },
    "profile": {
        "basic_info": {
            "baseFee": "",
            "blockNumber": 12493765,
            "callData": "0x3805550f00000000000000000000000000000000000000000000000000000000000000200000000000000000000000000000000000000000000000000000000000000ac8f90ac5840787cba0b901409c8132051d24e633decad398df9b4d6dde92453dd68d9aeca64487f96b590c56ca7bb6c1a088c3aa44d143605768220b09643d4b53913cf2dcfc0271064ddc738aa6139a3114923fee5b47993e6f8db5725b6d7cae2148c4db8f95e34d8097ccdd50267661935133ecdd2c8aad33c509908c82179f3fbe4e52926da1dbfad6cc21e153086fc74ef57f5e264ff6d0dc40298e505e9052166821da873d393ca927a3e22f35387dee567b052dd40eecae4807dacdcbbc3e0a4cdd7c3c73ed2c74a24e09cfafe9d7e8cd6cfbfb9a1900ec5f53ec44ecacb2120cd72fb79749586f3ff79a1a02bfacd939c0c7e1f75e8b80ea02d5f9a8f083a400be34d783fadbd5616286a02b52baa4e0757e8ff086a10d2f7bfe38cbb7f887c3daab82fe66c42d7fdfcd7a91ad2956456bec48894617304bdcd6e15974e3ec18daca9c6ab8c4799383e2a45c8460aae0ffa04ac6fd15b850897deea45ef5a9621a3a0c4c12e5aebd2be9a0d234177de420c8a01bc0321d9b8c22bcfff65e3ba306ffa459640abbeda7c622d8a8409fa8ebfedeb902ebf902e80183383f4cb9010000000000000000000000000000000000000000000000000000000000000000004000000000200000000000000000000000008000000000000000000000000000000000000000000000000008400000800000000100000000000100000000000000000000820000000000000000000800000000000000000080000010000000000000000000000000000000000000000000010000000000000000000000000000200000000000000000000000000000000000000000000000000000000000004000000002000000000001000000000000000000000000000000100000000020000000000000000000000000000000000084000000000000000000000000100000f901ddf89b947ceb23fd6bc0add59e62ac25578270cff1b9f619f863a0ddf252ad1be2c89b69c2b068fc378daa952ba7f163c4a11628f55a4df523b3efa000000000000000000000000013e1699a681d48d9b98e0adf64052134559f105ca00000000000000000000000000000000000000000000000000000000000000000a0000000000000000000000000000000000000000000000001158e460913d00000f9013d940000000000000000000000000000000000001010f884a04dfe1bbbcf077ddc3e01291eea2d5c70c2b422b415d95645b9adcfd678cb1d63a00000000000000000000000000000000000000000000000000000000000001010a000000000000000000000000013e1699a681d48d9b98e0adf64052134559f105ca0000000000000000000000000ddb833b9e0e3f2f521480e7bcb3e676e0737047db8a00000000000000000000000000000000000000000000000000000117c66e6840000000000000000000000000000000000000000000000000b1653239250db8fe400000000000000000000000000000000000000000000006702a98632980ea86200000000000000000000000000000000000000000000000b16531215e9f50be400000000000000000000000000000000000000000000006702a997aefef52c62b9063df9063af90131a0c8d356e51fed5e32ab307410529706fc868f62c73d7b1645de41ec44dfa5ba24a006211db3c907de53cee13606fcf44b152ae9954e0b51264335b1ebed8bbc55eca0fc7177eb6faef05a066330d3ee04376a1208c6b4af32f926f645dd406c39731da002e0bc2ca330e1849b51456745cd11e8d197f7ee49ed0d8423aa8940b9bf89cca0e1d9f8e88b8576763324d5bb25297c9dbfa64cfd3d92ae1f5f18317bafd1f6f3a071f0517b0bee12c216d3cb82148957369c8aad1115b261c5a14aacfc5f853d66a063d1772489207334340ff7ab74790bbeb424333386ccfc7689c1493818ab6eb3a0f0e11114b163a452bdd9a4f32f9171d8de1f0dfa69d3db1121df4a60d317bd43a0bade09bb6f649c329a819c731393b245027821d9e20c7fbda8c2a7f1803175448080808080808080f90211a02304e059725bb2d48b4ccd600c16953306e832e034b7dd6e01b06628ba4853cca02be3a24d7bfebd3f87a2151d8d1db993e8aa6503f0c6426149fe720de52b3ecda0129535001f9e0f7c7041e146cc40c06c48e3fcb96a5e347b7ed7b55f607fb11ea0c211296e2875fe7c551957f18cf32772c80b85e527f8a5c8c113706ced530aeea09a8610c46fb7fc159b1435ca1ea63e075fdc90b79a146ecbbf32d97cab9c92f9a0c0663f03dc656f2d4b3a06d3183cdacc4ffb4821e708770fa9715c6f94700944a06b98e7b8b42be2d32ca42956230a085d50a522762484b2176c31cb37bf3a233ca063a2a17e96d5b7c5fe24ddc3a0d334c1eb7b5bd01375cd6c40d02b3ce1352f78a09b703d442c161e5edc68345e2a180b21a8f62461d1d12216b15b564ca82a895ba0e6205ac72d048a8b965a1e172f24a4d8b59b56a08abe1e722113539b51278b8da0318cf2d775ae978e96eba7eff7ce3b3c453d2d16558c6626563ce09746adff2ca0d825bbdc6a92c0e56d3fc05f0c855f3b26b15699c76e888f13b511ac7f358e40a0868a064f0094bc18dea8d6e32a329fadb4ef56ec9b27b83f69ce4cd0227a0c48a06cdc0b002d02fd4ef03d7406ef4acf46b38f64fd4131c6bce7e72ae10f5cb654a09916a457c18dd1712ddbc6ed4e8c8f2271c0807ba0a95a2c439c96247b28cf8da0bc1b21562f13f3f5ef741dfe650eae08d4f0b57d5b2a6ca3537b6a74c377c23d80f902ef20b902ebf902e80183383f4cb9010000000000000000000000000000000000000000000000000000000000000000004000000000200000000000000000000000008000000000000000000000000000000000000000000000000008400000800000000100000000000100000000000000000000820000000000000000000800000000000000000080000010000000000000000000000000000000000000000000010000000000000000000000000000200000000000000000000000000000000000000000000000000000000000004000000002000000000001000000000000000000000000000000100000000020000000000000000000000000000000000084000000000000000000000000100000f901ddf89b947ceb23fd6bc0add59e62ac25578270cff1b9f619f863a0ddf252ad1be2c89b69c2b068fc378daa952ba7f163c4a11628f55a4df523b3efa000000000000000000000000013e1699a681d48d9b98e0adf64052134559f105ca00000000000000000000000000000000000000000000000000000000000000000a0000000000000000000000000000000000000000000000001158e460913d00000f9013d940000000000000000000000000000000000001010f884a04dfe1bbbcf077ddc3e01291eea2d5c70c2b422b415d95645b9adcfd678cb1d63a00000000000000000000000000000000000000000000000000000000000001010a000000000000000000000000013e1699a681d48d9b98e0adf64052134559f105ca0000000000000000000000000ddb833b9e0e3f2f521480e7bcb3e676e0737047db8a00000000000000000000000000000000000000000000000000000117c66e6840000000000000000000000000000000000000000000000000b1653239250db8fe400000000000000000000000000000000000000000000006702a98632980ea86200000000000000000000000000000000000000000000000b16531215e9f50be400000000000000000000000000000000000000000000006702a997aefef52c6282002480000000000000000000000000000000000000000000000000",
            "debugEnable": true,
            "errorInfo": "",
            "eventCount": 1,
            "feeRecipient": "0x5a0b54d5dc17e0aadc383d2db43b0a0d3e029c4c",
            "formatValue": "0",
            "gasLimit": 253711,
            "gasPrice": "36.200000001",
            "gasUsed": 236243,
            "intTxnCount": 5,
            "internalRevert": false,
            "internalRevertMessage": "",
            "isContractCreation": false,
            "isFlashloan": false,
            "maxFee": "",
            "nonce": 400,
            "overwritedBlockNumber": -1,
            "priorityFee": "",
            "receiver": "0xa0c68c638235ee32657e8f720a23cec1bfc77c77",
            "revertMessage": "",
            "sender": "0x13e1699a681d48d9b98e0adf64052134559f105c",
            "simulationEnable": true,
            "sourceTxnHash": "0xab2062ae169dc3815a07e0371ac4eef86ef590c98915d0e33c4d35e5ecb329f8",
            "status": true,
            "timestamp": "2021-05-24T00:13:02Z",
            "transactionFee": "0.008551996600236243",
            "txnHash": "0xab2062ae169dc3815a07e0371ac4eef86ef590c98915d0e33c4d35e5ecb329f8",
            "txnIndex": 30,
            "type": 0,
            "value": "0"
        },
        "fund_flow": [
            {
                "amount": "20",
                "from": "0x8484ef722627bf18ca5ae6bcf031c23e6e922b30",
                "id": 1,
                "isERC1155": false,
                "isERC721": false,
                "isReverted": false,
                "order": 1,
                "to": "0x13e1699a681d48d9b98e0adf64052134559f105c",
                "token": "0xeeeeeeeeeeeeeeeeeeeeeeeeeeeeeeeeeeeeeeee"
            }
        ],
        "token_infos": [
            {
                "address": "0xc02aaa39b223fe8d0a0e5c4f27ead9083c756cc2",
                "decimals": 18
            },
            {
                "address": "0xeeeeeeeeeeeeeeeeeeeeeeeeeeeeeeeeeeeeeeee",
                "decimals": 18
            }
        ]
    },
    "address_label": {
        "labels": [
            {
                "address": "0xeeeeeeeeeeeeeeeeeeeeeeeeeeeeeeeeeeeeeeee",
                "label": "Ether"
            },
            {
                "address": "0x8484ef722627bf18ca5ae6bcf031c23e6e922b30",
                "label": "Polygon (Matic): Ether Bridge"
            },
            {
                "address": "0x86e4dc95c7fbdbf52e33d563bbdb00823894c287",
                "label": "Polygon (Matic): Root Chain Proxy"
            },
            {
                "address": "0xa0c68c638235ee32657e8f720a23cec1bfc77c77",
                "label": "Polygon (Matic): Bridge"
            },
            {
                "address": "0x296ac8fb39279bbcff6edc9fddf1d2f4aea1631b",
                "label": "RootChainManager"
            },
            {
                "address": "0x499a865ac595e6167482d2bd5a224876bab85ab4",
                "label": "Polygon (Matic): POS Ether Predicate"
            },
            {
                "address": "0x0000000000000000000000000000000000000001",
                "label": "Precompiled"
            },
            {
                "address": "0x0000000000000000000000000000000000000002",
                "label": "Precompiled"
            },
            {
                "address": "0x0000000000000000000000000000000000000003",
                "label": "Precompiled"
            },
            {
                "address": "0x0000000000000000000000000000000000000004",
                "label": "Precompiled"
            }
        ]
    },
    "trace": {
        "accountLabels": null,
        "dataMap": {
            "-1": {
                "invocation": {
                    "address": "0x13e1699a681d48d9b98e0adf64052134559f105c",
                    "callData": "",
                    "decodedMethod": null,
                    "errorInfo": "",
                    "fromAddress": "",
                    "gasUsed": 0,
                    "id": -1,
                    "methodDecoded": false,
                    "operation": "",
                    "output": "",
                    "revert": false,
                    "revertMessage": "",
                    "selector": "",
                    "status": false,
                    "value": ""
                },
                "nodeType": 0
            },
            "0": {
                "invocation": {
                    "address": "0xa0c68c638235ee32657e8f720a23cec1bfc77c77",
                    "callData": "0x00000000000000000000000000000000000000000000000000000000000000200000000000000000000000000000000000000000000000000000000000000ac8f90ac5840787cba0b901409c8132051d24e633decad398df9b4d6dde92453dd68d9aeca64487f96b590c56ca7bb6c1a088c3aa44d143605768220b09643d4b53913cf2dcfc0271064ddc738aa6139a3114923fee5b47993e6f8db5725b6d7cae2148c4db8f95e34d8097ccdd50267661935133ecdd2c8aad33c509908c82179f3fbe4e52926da1dbfad6cc21e153086fc74ef57f5e264ff6d0dc40298e505e9052166821da873d393ca927a3e22f35387dee567b052dd40eecae4807dacdcbbc3e0a4cdd7c3c73ed2c74a24e09cfafe9d7e8cd6cfbfb9a1900ec5f53ec44ecacb2120cd72fb79749586f3ff79a1a02bfacd939c0c7e1f75e8b80ea02d5f9a8f083a400be34d783fadbd5616286a02b52baa4e0757e8ff086a10d2f7bfe38cbb7f887c3daab82fe66c42d7fdfcd7a91ad2956456bec48894617304bdcd6e15974e3ec18daca9c6ab8c4799383e2a45c8460aae0ffa04ac6fd15b850897deea45ef5a9621a3a0c4c12e5aebd2be9a0d234177de420c8a01bc0321d9b8c22bcfff65e3ba306ffa459640abbeda7c622d8a8409fa8ebfedeb902ebf902e80183383f4cb9010000000000000000000000000000000000000000000000000000000000000000004000000000200000000000000000000000008000000000000000000000000000000000000000000000000008400000800000000100000000000100000000000000000000820000000000000000000800000000000000000080000010000000000000000000000000000000000000000000010000000000000000000000000000200000000000000000000000000000000000000000000000000000000000004000000002000000000001000000000000000000000000000000100000000020000000000000000000000000000000000084000000000000000000000000100000f901ddf89b947ceb23fd6bc0add59e62ac25578270cff1b9f619f863a0ddf252ad1be2c89b69c2b068fc378daa952ba7f163c4a11628f55a4df523b3efa000000000000000000000000013e1699a681d48d9b98e0adf64052134559f105ca00000000000000000000000000000000000000000000000000000000000000000a0000000000000000000000000000000000000000000000001158e460913d00000f9013d940000000000000000000000000000000000001010f884a04dfe1bbbcf077ddc3e01291eea2d5c70c2b422b415d95645b9adcfd678cb1d63a00000000000000000000000000000000000000000000000000000000000001010a000000000000000000000000013e1699a681d48d9b98e0adf64052134559f105ca0000000000000000000000000ddb833b9e0e3f2f521480e7bcb3e676e0737047db8a00000000000000000000000000000000000000000000000000000117c66e6840000000000000000000000000000000000000000000000000b1653239250db8fe400000000000000000000000000000000000000000000006702a98632980ea86200000000000000000000000000000000000000000000000b16531215e9f50be400000000000000000000000000000000000000000000006702a997aefef52c62b9063df9063af90131a0c8d356e51fed5e32ab307410529706fc868f62c73d7b1645de41ec44dfa5ba24a006211db3c907de53cee13606fcf44b152ae9954e0b51264335b1ebed8bbc55eca0fc7177eb6faef05a066330d3ee04376a1208c6b4af32f926f645dd406c39731da002e0bc2ca330e1849b51456745cd11e8d197f7ee49ed0d8423aa8940b9bf89cca0e1d9f8e88b8576763324d5bb25297c9dbfa64cfd3d92ae1f5f18317bafd1f6f3a071f0517b0bee12c216d3cb82148957369c8aad1115b261c5a14aacfc5f853d66a063d1772489207334340ff7ab74790bbeb424333386ccfc7689c1493818ab6eb3a0f0e11114b163a452bdd9a4f32f9171d8de1f0dfa69d3db1121df4a60d317bd43a0bade09bb6f649c329a819c731393b245027821d9e20c7fbda8c2a7f1803175448080808080808080f90211a02304e059725bb2d48b4ccd600c16953306e832e034b7dd6e01b06628ba4853cca02be3a24d7bfebd3f87a2151d8d1db993e8aa6503f0c6426149fe720de52b3ecda0129535001f9e0f7c7041e146cc40c06c48e3fcb96a5e347b7ed7b55f607fb11ea0c211296e2875fe7c551957f18cf32772c80b85e527f8a5c8c113706ced530aeea09a8610c46fb7fc159b1435ca1ea63e075fdc90b79a146ecbbf32d97cab9c92f9a0c0663f03dc656f2d4b3a06d3183cdacc4ffb4821e708770fa9715c6f94700944a06b98e7b8b42be2d32ca42956230a085d50a522762484b2176c31cb37bf3a233ca063a2a17e96d5b7c5fe24ddc3a0d334c1eb7b5bd01375cd6c40d02b3ce1352f78a09b703d442c161e5edc68345e2a180b21a8f62461d1d12216b15b564ca82a895ba0e6205ac72d048a8b965a1e172f24a4d8b59b56a08abe1e722113539b51278b8da0318cf2d775ae978e96eba7eff7ce3b3c453d2d16558c6626563ce09746adff2ca0d825bbdc6a92c0e56d3fc05f0c855f3b26b15699c76e888f13b511ac7f358e40a0868a064f0094bc18dea8d6e32a329fadb4ef56ec9b27b83f69ce4cd0227a0c48a06cdc0b002d02fd4ef03d7406ef4acf46b38f64fd4131c6bce7e72ae10f5cb654a09916a457c18dd1712ddbc6ed4e8c8f2271c0807ba0a95a2c439c96247b28cf8da0bc1b21562f13f3f5ef741dfe650eae08d4f0b57d5b2a6ca3537b6a74c377c23d80f902ef20b902ebf902e80183383f4cb9010000000000000000000000000000000000000000000000000000000000000000004000000000200000000000000000000000008000000000000000000000000000000000000000000000000008400000800000000100000000000100000000000000000000820000000000000000000800000000000000000080000010000000000000000000000000000000000000000000010000000000000000000000000000200000000000000000000000000000000000000000000000000000000000004000000002000000000001000000000000000000000000000000100000000020000000000000000000000000000000000084000000000000000000000000100000f901ddf89b947ceb23fd6bc0add59e62ac25578270cff1b9f619f863a0ddf252ad1be2c89b69c2b068fc378daa952ba7f163c4a11628f55a4df523b3efa000000000000000000000000013e1699a681d48d9b98e0adf64052134559f105ca00000000000000000000000000000000000000000000000000000000000000000a0000000000000000000000000000000000000000000000001158e460913d00000f9013d940000000000000000000000000000000000001010f884a04dfe1bbbcf077ddc3e01291eea2d5c70c2b422b415d95645b9adcfd678cb1d63a00000000000000000000000000000000000000000000000000000000000001010a000000000000000000000000013e1699a681d48d9b98e0adf64052134559f105ca0000000000000000000000000ddb833b9e0e3f2f521480e7bcb3e676e0737047db8a00000000000000000000000000000000000000000000000000000117c66e6840000000000000000000000000000000000000000000000000b1653239250db8fe400000000000000000000000000000000000000000000006702a98632980ea86200000000000000000000000000000000000000000000000b16531215e9f50be400000000000000000000000000000000000000000000006702a997aefef52c6282002480000000000000000000000000000000000000000000000000",
                    "decodedMethod": {
                        "callParams": [
                            {
                                "name": "inputData",
                                "type": "bytes",
                                "value": "0xf90ac5840787cba0b901409c8132051d24e633decad398df9b4d6dde92453dd68d9aeca64487f96b590c56ca7bb6c1a088c3aa44d143605768220b09643d4b53913cf2dcfc0271064ddc738aa6139a3114923fee5b47993e6f8db5725b6d7cae2148c4db8f95e34d8097ccdd50267661935133ecdd2c8aad33c509908c82179f3fbe4e52926da1dbfad6cc21e153086fc74ef57f5e264ff6d0dc40298e505e9052166821da873d393ca927a3e22f35387dee567b052dd40eecae4807dacdcbbc3e0a4cdd7c3c73ed2c74a24e09cfafe9d7e8cd6cfbfb9a1900ec5f53ec44ecacb2120cd72fb79749586f3ff79a1a02bfacd939c0c7e1f75e8b80ea02d5f9a8f083a400be34d783fadbd5616286a02b52baa4e0757e8ff086a10d2f7bfe38cbb7f887c3daab82fe66c42d7fdfcd7a91ad2956456bec48894617304bdcd6e15974e3ec18daca9c6ab8c4799383e2a45c8460aae0ffa04ac6fd15b850897deea45ef5a9621a3a0c4c12e5aebd2be9a0d234177de420c8a01bc0321d9b8c22bcfff65e3ba306ffa459640abbeda7c622d8a8409fa8ebfedeb902ebf902e80183383f4cb9010000000000000000000000000000000000000000000000000000000000000000004000000000200000000000000000000000008000000000000000000000000000000000000000000000000008400000800000000100000000000100000000000000000000820000000000000000000800000000000000000080000010000000000000000000000000000000000000000000010000000000000000000000000000200000000000000000000000000000000000000000000000000000000000004000000002000000000001000000000000000000000000000000100000000020000000000000000000000000000000000084000000000000000000000000100000f901ddf89b947ceb23fd6bc0add59e62ac25578270cff1b9f619f863a0ddf252ad1be2c89b69c2b068fc378daa952ba7f163c4a11628f55a4df523b3efa000000000000000000000000013e1699a681d48d9b98e0adf64052134559f105ca00000000000000000000000000000000000000000000000000000000000000000a0000000000000000000000000000000000000000000000001158e460913d00000f9013d940000000000000000000000000000000000001010f884a04dfe1bbbcf077ddc3e01291eea2d5c70c2b422b415d95645b9adcfd678cb1d63a00000000000000000000000000000000000000000000000000000000000001010a000000000000000000000000013e1699a681d48d9b98e0adf64052134559f105ca0000000000000000000000000ddb833b9e0e3f2f521480e7bcb3e676e0737047db8a00000000000000000000000000000000000000000000000000000117c66e6840000000000000000000000000000000000000000000000000b1653239250db8fe400000000000000000000000000000000000000000000006702a98632980ea86200000000000000000000000000000000000000000000000b16531215e9f50be400000000000000000000000000000000000000000000006702a997aefef52c62b9063df9063af90131a0c8d356e51fed5e32ab307410529706fc868f62c73d7b1645de41ec44dfa5ba24a006211db3c907de53cee13606fcf44b152ae9954e0b51264335b1ebed8bbc55eca0fc7177eb6faef05a066330d3ee04376a1208c6b4af32f926f645dd406c39731da002e0bc2ca330e1849b51456745cd11e8d197f7ee49ed0d8423aa8940b9bf89cca0e1d9f8e88b8576763324d5bb25297c9dbfa64cfd3d92ae1f5f18317bafd1f6f3a071f0517b0bee12c216d3cb82148957369c8aad1115b261c5a14aacfc5f853d66a063d1772489207334340ff7ab74790bbeb424333386ccfc7689c1493818ab6eb3a0f0e11114b163a452bdd9a4f32f9171d8de1f0dfa69d3db1121df4a60d317bd43a0bade09bb6f649c329a819c731393b245027821d9e20c7fbda8c2a7f1803175448080808080808080f90211a02304e059725bb2d48b4ccd600c16953306e832e034b7dd6e01b06628ba4853cca02be3a24d7bfebd3f87a2151d8d1db993e8aa6503f0c6426149fe720de52b3ecda0129535001f9e0f7c7041e146cc40c06c48e3fcb96a5e347b7ed7b55f607fb11ea0c211296e2875fe7c551957f18cf32772c80b85e527f8a5c8c113706ced530aeea09a8610c46fb7fc159b1435ca1ea63e075fdc90b79a146ecbbf32d97cab9c92f9a0c0663f03dc656f2d4b3a06d3183cdacc4ffb4821e708770fa9715c6f94700944a06b98e7b8b42be2d32ca42956230a085d50a522762484b2176c31cb37bf3a233ca063a2a17e96d5b7c5fe24ddc3a0d334c1eb7b5bd01375cd6c40d02b3ce1352f78a09b703d442c161e5edc68345e2a180b21a8f62461d1d12216b15b564ca82a895ba0e6205ac72d048a8b965a1e172f24a4d8b59b56a08abe1e722113539b51278b8da0318cf2d775ae978e96eba7eff7ce3b3c453d2d16558c6626563ce09746adff2ca0d825bbdc6a92c0e56d3fc05f0c855f3b26b15699c76e888f13b511ac7f358e40a0868a064f0094bc18dea8d6e32a329fadb4ef56ec9b27b83f69ce4cd0227a0c48a06cdc0b002d02fd4ef03d7406ef4acf46b38f64fd4131c6bce7e72ae10f5cb654a09916a457c18dd1712ddbc6ed4e8c8f2271c0807ba0a95a2c439c96247b28cf8da0bc1b21562f13f3f5ef741dfe650eae08d4f0b57d5b2a6ca3537b6a74c377c23d80f902ef20b902ebf902e80183383f4cb9010000000000000000000000000000000000000000000000000000000000000000004000000000200000000000000000000000008000000000000000000000000000000000000000000000000008400000800000000100000000000100000000000000000000820000000000000000000800000000000000000080000010000000000000000000000000000000000000000000010000000000000000000000000000200000000000000000000000000000000000000000000000000000000000004000000002000000000001000000000000000000000000000000100000000020000000000000000000000000000000000084000000000000000000000000100000f901ddf89b947ceb23fd6bc0add59e62ac25578270cff1b9f619f863a0ddf252ad1be2c89b69c2b068fc378daa952ba7f163c4a11628f55a4df523b3efa000000000000000000000000013e1699a681d48d9b98e0adf64052134559f105ca00000000000000000000000000000000000000000000000000000000000000000a0000000000000000000000000000000000000000000000001158e460913d00000f9013d940000000000000000000000000000000000001010f884a04dfe1bbbcf077ddc3e01291eea2d5c70c2b422b415d95645b9adcfd678cb1d63a00000000000000000000000000000000000000000000000000000000000001010a000000000000000000000000013e1699a681d48d9b98e0adf64052134559f105ca0000000000000000000000000ddb833b9e0e3f2f521480e7bcb3e676e0737047db8a00000000000000000000000000000000000000000000000000000117c66e6840000000000000000000000000000000000000000000000000b1653239250db8fe400000000000000000000000000000000000000000000006702a98632980ea86200000000000000000000000000000000000000000000000b16531215e9f50be400000000000000000000000000000000000000000000006702a997aefef52c6282002480"
                            }
                        ],
                        "constructorArguments": "",
                        "name": "exit",
                        "returnParams": [],
                        "signature": "exit(bytes)"
                    },
                    "errorInfo": "",
                    "fromAddress": "0x13e1699a681d48d9b98e0adf64052134559f105c",
                    "gasUsed": 236243,
                    "id": 0,
                    "methodDecoded": true,
                    "operation": "CALL",
                    "output": "",
                    "revert": false,
                    "revertMessage": "",
                    "selector": "0x3805550f",
                    "status": true,
                    "value": "0"
                },
                "nodeType": 0
            },
            "1": {
                "invocation": {
                    "address": "0x296ac8fb39279bbcff6edc9fddf1d2f4aea1631b",
                    "callData": "0x00000000000000000000000000000000000000000000000000000000000000200000000000000000000000000000000000000000000000000000000000000ac8f90ac5840787cba0b901409c8132051d24e633decad398df9b4d6dde92453dd68d9aeca64487f96b590c56ca7bb6c1a088c3aa44d143605768220b09643d4b53913cf2dcfc0271064ddc738aa6139a3114923fee5b47993e6f8db5725b6d7cae2148c4db8f95e34d8097ccdd50267661935133ecdd2c8aad33c509908c82179f3fbe4e52926da1dbfad6cc21e153086fc74ef57f5e264ff6d0dc40298e505e9052166821da873d393ca927a3e22f35387dee567b052dd40eecae4807dacdcbbc3e0a4cdd7c3c73ed2c74a24e09cfafe9d7e8cd6cfbfb9a1900ec5f53ec44ecacb2120cd72fb79749586f3ff79a1a02bfacd939c0c7e1f75e8b80ea02d5f9a8f083a400be34d783fadbd5616286a02b52baa4e0757e8ff086a10d2f7bfe38cbb7f887c3daab82fe66c42d7fdfcd7a91ad2956456bec48894617304bdcd6e15974e3ec18daca9c6ab8c4799383e2a45c8460aae0ffa04ac6fd15b850897deea45ef5a9621a3a0c4c12e5aebd2be9a0d234177de420c8a01bc0321d9b8c22bcfff65e3ba306ffa459640abbeda7c622d8a8409fa8ebfedeb902ebf902e80183383f4cb9010000000000000000000000000000000000000000000000000000000000000000004000000000200000000000000000000000008000000000000000000000000000000000000000000000000008400000800000000100000000000100000000000000000000820000000000000000000800000000000000000080000010000000000000000000000000000000000000000000010000000000000000000000000000200000000000000000000000000000000000000000000000000000000000004000000002000000000001000000000000000000000000000000100000000020000000000000000000000000000000000084000000000000000000000000100000f901ddf89b947ceb23fd6bc0add59e62ac25578270cff1b9f619f863a0ddf252ad1be2c89b69c2b068fc378daa952ba7f163c4a11628f55a4df523b3efa000000000000000000000000013e1699a681d48d9b98e0adf64052134559f105ca00000000000000000000000000000000000000000000000000000000000000000a0000000000000000000000000000000000000000000000001158e460913d00000f9013d940000000000000000000000000000000000001010f884a04dfe1bbbcf077ddc3e01291eea2d5c70c2b422b415d95645b9adcfd678cb1d63a00000000000000000000000000000000000000000000000000000000000001010a000000000000000000000000013e1699a681d48d9b98e0adf64052134559f105ca0000000000000000000000000ddb833b9e0e3f2f521480e7bcb3e676e0737047db8a00000000000000000000000000000000000000000000000000000117c66e6840000000000000000000000000000000000000000000000000b1653239250db8fe400000000000000000000000000000000000000000000006702a98632980ea86200000000000000000000000000000000000000000000000b16531215e9f50be400000000000000000000000000000000000000000000006702a997aefef52c62b9063df9063af90131a0c8d356e51fed5e32ab307410529706fc868f62c73d7b1645de41ec44dfa5ba24a006211db3c907de53cee13606fcf44b152ae9954e0b51264335b1ebed8bbc55eca0fc7177eb6faef05a066330d3ee04376a1208c6b4af32f926f645dd406c39731da002e0bc2ca330e1849b51456745cd11e8d197f7ee49ed0d8423aa8940b9bf89cca0e1d9f8e88b8576763324d5bb25297c9dbfa64cfd3d92ae1f5f18317bafd1f6f3a071f0517b0bee12c216d3cb82148957369c8aad1115b261c5a14aacfc5f853d66a063d1772489207334340ff7ab74790bbeb424333386ccfc7689c1493818ab6eb3a0f0e11114b163a452bdd9a4f32f9171d8de1f0dfa69d3db1121df4a60d317bd43a0bade09bb6f649c329a819c731393b245027821d9e20c7fbda8c2a7f1803175448080808080808080f90211a02304e059725bb2d48b4ccd600c16953306e832e034b7dd6e01b06628ba4853cca02be3a24d7bfebd3f87a2151d8d1db993e8aa6503f0c6426149fe720de52b3ecda0129535001f9e0f7c7041e146cc40c06c48e3fcb96a5e347b7ed7b55f607fb11ea0c211296e2875fe7c551957f18cf32772c80b85e527f8a5c8c113706ced530aeea09a8610c46fb7fc159b1435ca1ea63e075fdc90b79a146ecbbf32d97cab9c92f9a0c0663f03dc656f2d4b3a06d3183cdacc4ffb4821e708770fa9715c6f94700944a06b98e7b8b42be2d32ca42956230a085d50a522762484b2176c31cb37bf3a233ca063a2a17e96d5b7c5fe24ddc3a0d334c1eb7b5bd01375cd6c40d02b3ce1352f78a09b703d442c161e5edc68345e2a180b21a8f62461d1d12216b15b564ca82a895ba0e6205ac72d048a8b965a1e172f24a4d8b59b56a08abe1e722113539b51278b8da0318cf2d775ae978e96eba7eff7ce3b3c453d2d16558c6626563ce09746adff2ca0d825bbdc6a92c0e56d3fc05f0c855f3b26b15699c76e888f13b511ac7f358e40a0868a064f0094bc18dea8d6e32a329fadb4ef56ec9b27b83f69ce4cd0227a0c48a06cdc0b002d02fd4ef03d7406ef4acf46b38f64fd4131c6bce7e72ae10f5cb654a09916a457c18dd1712ddbc6ed4e8c8f2271c0807ba0a95a2c439c96247b28cf8da0bc1b21562f13f3f5ef741dfe650eae08d4f0b57d5b2a6ca3537b6a74c377c23d80f902ef20b902ebf902e80183383f4cb9010000000000000000000000000000000000000000000000000000000000000000004000000000200000000000000000000000008000000000000000000000000000000000000000000000000008400000800000000100000000000100000000000000000000820000000000000000000800000000000000000080000010000000000000000000000000000000000000000000010000000000000000000000000000200000000000000000000000000000000000000000000000000000000000004000000002000000000001000000000000000000000000000000100000000020000000000000000000000000000000000084000000000000000000000000100000f901ddf89b947ceb23fd6bc0add59e62ac25578270cff1b9f619f863a0ddf252ad1be2c89b69c2b068fc378daa952ba7f163c4a11628f55a4df523b3efa000000000000000000000000013e1699a681d48d9b98e0adf64052134559f105ca00000000000000000000000000000000000000000000000000000000000000000a0000000000000000000000000000000000000000000000001158e460913d00000f9013d940000000000000000000000000000000000001010f884a04dfe1bbbcf077ddc3e01291eea2d5c70c2b422b415d95645b9adcfd678cb1d63a00000000000000000000000000000000000000000000000000000000000001010a000000000000000000000000013e1699a681d48d9b98e0adf64052134559f105ca0000000000000000000000000ddb833b9e0e3f2f521480e7bcb3e676e0737047db8a00000000000000000000000000000000000000000000000000000117c66e6840000000000000000000000000000000000000000000000000b1653239250db8fe400000000000000000000000000000000000000000000006702a98632980ea86200000000000000000000000000000000000000000000000b16531215e9f50be400000000000000000000000000000000000000000000006702a997aefef52c6282002480000000000000000000000000000000000000000000000000",
                    "decodedMethod": {
                        "callParams": [
                            {
                                "name": "inputData",
                                "type": "bytes",
                                "value": "0xf90ac5840787cba0b901409c8132051d24e633decad398df9b4d6dde92453dd68d9aeca64487f96b590c56ca7bb6c1a088c3aa44d143605768220b09643d4b53913cf2dcfc0271064ddc738aa6139a3114923fee5b47993e6f8db5725b6d7cae2148c4db8f95e34d8097ccdd50267661935133ecdd2c8aad33c509908c82179f3fbe4e52926da1dbfad6cc21e153086fc74ef57f5e264ff6d0dc40298e505e9052166821da873d393ca927a3e22f35387dee567b052dd40eecae4807dacdcbbc3e0a4cdd7c3c73ed2c74a24e09cfafe9d7e8cd6cfbfb9a1900ec5f53ec44ecacb2120cd72fb79749586f3ff79a1a02bfacd939c0c7e1f75e8b80ea02d5f9a8f083a400be34d783fadbd5616286a02b52baa4e0757e8ff086a10d2f7bfe38cbb7f887c3daab82fe66c42d7fdfcd7a91ad2956456bec48894617304bdcd6e15974e3ec18daca9c6ab8c4799383e2a45c8460aae0ffa04ac6fd15b850897deea45ef5a9621a3a0c4c12e5aebd2be9a0d234177de420c8a01bc0321d9b8c22bcfff65e3ba306ffa459640abbeda7c622d8a8409fa8ebfedeb902ebf902e80183383f4cb9010000000000000000000000000000000000000000000000000000000000000000004000000000200000000000000000000000008000000000000000000000000000000000000000000000000008400000800000000100000000000100000000000000000000820000000000000000000800000000000000000080000010000000000000000000000000000000000000000000010000000000000000000000000000200000000000000000000000000000000000000000000000000000000000004000000002000000000001000000000000000000000000000000100000000020000000000000000000000000000000000084000000000000000000000000100000f901ddf89b947ceb23fd6bc0add59e62ac25578270cff1b9f619f863a0ddf252ad1be2c89b69c2b068fc378daa952ba7f163c4a11628f55a4df523b3efa000000000000000000000000013e1699a681d48d9b98e0adf64052134559f105ca00000000000000000000000000000000000000000000000000000000000000000a0000000000000000000000000000000000000000000000001158e460913d00000f9013d940000000000000000000000000000000000001010f884a04dfe1bbbcf077ddc3e01291eea2d5c70c2b422b415d95645b9adcfd678cb1d63a00000000000000000000000000000000000000000000000000000000000001010a000000000000000000000000013e1699a681d48d9b98e0adf64052134559f105ca0000000000000000000000000ddb833b9e0e3f2f521480e7bcb3e676e0737047db8a00000000000000000000000000000000000000000000000000000117c66e6840000000000000000000000000000000000000000000000000b1653239250db8fe400000000000000000000000000000000000000000000006702a98632980ea86200000000000000000000000000000000000000000000000b16531215e9f50be400000000000000000000000000000000000000000000006702a997aefef52c62b9063df9063af90131a0c8d356e51fed5e32ab307410529706fc868f62c73d7b1645de41ec44dfa5ba24a006211db3c907de53cee13606fcf44b152ae9954e0b51264335b1ebed8bbc55eca0fc7177eb6faef05a066330d3ee04376a1208c6b4af32f926f645dd406c39731da002e0bc2ca330e1849b51456745cd11e8d197f7ee49ed0d8423aa8940b9bf89cca0e1d9f8e88b8576763324d5bb25297c9dbfa64cfd3d92ae1f5f18317bafd1f6f3a071f0517b0bee12c216d3cb82148957369c8aad1115b261c5a14aacfc5f853d66a063d1772489207334340ff7ab74790bbeb424333386ccfc7689c1493818ab6eb3a0f0e11114b163a452bdd9a4f32f9171d8de1f0dfa69d3db1121df4a60d317bd43a0bade09bb6f649c329a819c731393b245027821d9e20c7fbda8c2a7f1803175448080808080808080f90211a02304e059725bb2d48b4ccd600c16953306e832e034b7dd6e01b06628ba4853cca02be3a24d7bfebd3f87a2151d8d1db993e8aa6503f0c6426149fe720de52b3ecda0129535001f9e0f7c7041e146cc40c06c48e3fcb96a5e347b7ed7b55f607fb11ea0c211296e2875fe7c551957f18cf32772c80b85e527f8a5c8c113706ced530aeea09a8610c46fb7fc159b1435ca1ea63e075fdc90b79a146ecbbf32d97cab9c92f9a0c0663f03dc656f2d4b3a06d3183cdacc4ffb4821e708770fa9715c6f94700944a06b98e7b8b42be2d32ca42956230a085d50a522762484b2176c31cb37bf3a233ca063a2a17e96d5b7c5fe24ddc3a0d334c1eb7b5bd01375cd6c40d02b3ce1352f78a09b703d442c161e5edc68345e2a180b21a8f62461d1d12216b15b564ca82a895ba0e6205ac72d048a8b965a1e172f24a4d8b59b56a08abe1e722113539b51278b8da0318cf2d775ae978e96eba7eff7ce3b3c453d2d16558c6626563ce09746adff2ca0d825bbdc6a92c0e56d3fc05f0c855f3b26b15699c76e888f13b511ac7f358e40a0868a064f0094bc18dea8d6e32a329fadb4ef56ec9b27b83f69ce4cd0227a0c48a06cdc0b002d02fd4ef03d7406ef4acf46b38f64fd4131c6bce7e72ae10f5cb654a09916a457c18dd1712ddbc6ed4e8c8f2271c0807ba0a95a2c439c96247b28cf8da0bc1b21562f13f3f5ef741dfe650eae08d4f0b57d5b2a6ca3537b6a74c377c23d80f902ef20b902ebf902e80183383f4cb9010000000000000000000000000000000000000000000000000000000000000000004000000000200000000000000000000000008000000000000000000000000000000000000000000000000008400000800000000100000000000100000000000000000000820000000000000000000800000000000000000080000010000000000000000000000000000000000000000000010000000000000000000000000000200000000000000000000000000000000000000000000000000000000000004000000002000000000001000000000000000000000000000000100000000020000000000000000000000000000000000084000000000000000000000000100000f901ddf89b947ceb23fd6bc0add59e62ac25578270cff1b9f619f863a0ddf252ad1be2c89b69c2b068fc378daa952ba7f163c4a11628f55a4df523b3efa000000000000000000000000013e1699a681d48d9b98e0adf64052134559f105ca00000000000000000000000000000000000000000000000000000000000000000a0000000000000000000000000000000000000000000000001158e460913d00000f9013d940000000000000000000000000000000000001010f884a04dfe1bbbcf077ddc3e01291eea2d5c70c2b422b415d95645b9adcfd678cb1d63a00000000000000000000000000000000000000000000000000000000000001010a000000000000000000000000013e1699a681d48d9b98e0adf64052134559f105ca0000000000000000000000000ddb833b9e0e3f2f521480e7bcb3e676e0737047db8a00000000000000000000000000000000000000000000000000000117c66e6840000000000000000000000000000000000000000000000000b1653239250db8fe400000000000000000000000000000000000000000000006702a98632980ea86200000000000000000000000000000000000000000000000b16531215e9f50be400000000000000000000000000000000000000000000006702a997aefef52c6282002480"
                            }
                        ],
                        "constructorArguments": "",
                        "name": "exit",
                        "returnParams": [],
                        "signature": "exit(bytes)"
                    },
                    "errorInfo": "",
                    "fromAddress": "0xa0c68c638235ee32657e8f720a23cec1bfc77c77",
                    "gasUsed": 176710,
                    "id": 1,
                    "methodDecoded": true,
                    "operation": "DELEGATECALL",
                    "output": "",
                    "revert": false,
                    "revertMessage": "",
                    "selector": "0x3805550f",
                    "status": true,
                    "value": "0"
                },
                "nodeType": 0
            },
            "2": {
                "invocation": {
                    "address": "0x86e4dc95c7fbdbf52e33d563bbdb00823894c287",
                    "callData": "0x000000000000000000000000000000000000000000000000000000000787cba0",
                    "decodedMethod": {
                        "callParams": [
                            {
                                "name": "",
                                "type": "uint256",
                                "value": "126,340,000"
                            }
                        ],
                        "constructorArguments": "",
                        "name": "headerBlocks",
                        "returnParams": [
                            {
                                "name": "root",
                                "type": "bytes32",
                                "value": "0x954dc2da347feaefb8ba0a996d624c212ad314b9d1bad4cb5dc2656fb7afb8e3"
                            },
                            {
                                "name": "start",
                                "type": "uint256",
                                "value": "14,852,259"
                            },
                            {
                                "name": "end",
                                "type": "uint256",
                                "value": "14,853,282"
                            },
                            {
                                "name": "createdAt",
                                "type": "uint256",
                                "value": "1,621,813,182"
                            },
                            {
                                "name": "proposer",
                                "type": "address",
                                "value": "0xb79fad4ca981472442f53d16365fdf0305ffd8e9"
                            }
                        ],
                        "signature": "headerBlocks(uint256)"
                    },
                    "errorInfo": "",
                    "fromAddress": "0xa0c68c638235ee32657e8f720a23cec1bfc77c77",
                    "gasUsed": 11006,
                    "id": 2,
                    "methodDecoded": true,
                    "operation": "STATICCALL",
                    "output": "0x954dc2da347feaefb8ba0a996d624c212ad314b9d1bad4cb5dc2656fb7afb8e30000000000000000000000000000000000000000000000000000000000e2a0a30000000000000000000000000000000000000000000000000000000000e2a4a20000000000000000000000000000000000000000000000000000000060aae7be000000000000000000000000b79fad4ca981472442f53d16365fdf0305ffd8e9",
                    "revert": false,
                    "revertMessage": "",
                    "selector": "0x41539d4a",
                    "status": true,
                    "value": "0"
                },
                "nodeType": 0
            },
            "3": {
                "invocation": {
                    "address": "0x8484ef722627bf18ca5ae6bcf031c23e6e922b30",
                    "callData": "0x00000000000000000000000013e1699a681d48d9b98e0adf64052134559f105c000000000000000000000000eeeeeeeeeeeeeeeeeeeeeeeeeeeeeeeeeeeeeeee0000000000000000000000000000000000000000000000000000000000000060000000000000000000000000000000000000000000000000000000000000009df89b947ceb23fd6bc0add59e62ac25578270cff1b9f619f863a0ddf252ad1be2c89b69c2b068fc378daa952ba7f163c4a11628f55a4df523b3efa000000000000000000000000013e1699a681d48d9b98e0adf64052134559f105ca00000000000000000000000000000000000000000000000000000000000000000a0000000000000000000000000000000000000000000000001158e460913d00000000000",
                    "decodedMethod": {
                        "callParams": [
                            {
                                "name": "",
                                "type": "address",
                                "value": "0x13e1699a681d48d9b98e0adf64052134559f105c"
                            },
                            {
                                "name": "",
                                "type": "address",
                                "value": "0xeeeeeeeeeeeeeeeeeeeeeeeeeeeeeeeeeeeeeeee"
                            },
                            {
                                "name": "log",
                                "type": "bytes",
                                "value": "0xf89b947ceb23fd6bc0add59e62ac25578270cff1b9f619f863a0ddf252ad1be2c89b69c2b068fc378daa952ba7f163c4a11628f55a4df523b3efa000000000000000000000000013e1699a681d48d9b98e0adf64052134559f105ca00000000000000000000000000000000000000000000000000000000000000000a0000000000000000000000000000000000000000000000001158e460913d00000"
                            }
                        ],
                        "constructorArguments": "",
                        "name": "exitTokens",
                        "returnParams": [],
                        "signature": "exitTokens(address,address,bytes)"
                    },
                    "errorInfo": "",
                    "fromAddress": "0xa0c68c638235ee32657e8f720a23cec1bfc77c77",
                    "gasUsed": 27776,
                    "id": 3,
                    "methodDecoded": true,
                    "operation": "CALL",
                    "output": "",
                    "revert": false,
                    "revertMessage": "",
                    "selector": "0x8274664f",
                    "status": true,
                    "value": "0"
                },
                "nodeType": 0
            },
            "4": {
                "invocation": {
                    "address": "0x499a865ac595e6167482d2bd5a224876bab85ab4",
                    "callData": "0x00000000000000000000000013e1699a681d48d9b98e0adf64052134559f105c000000000000000000000000eeeeeeeeeeeeeeeeeeeeeeeeeeeeeeeeeeeeeeee0000000000000000000000000000000000000000000000000000000000000060000000000000000000000000000000000000000000000000000000000000009df89b947ceb23fd6bc0add59e62ac25578270cff1b9f619f863a0ddf252ad1be2c89b69c2b068fc378daa952ba7f163c4a11628f55a4df523b3efa000000000000000000000000013e1699a681d48d9b98e0adf64052134559f105ca00000000000000000000000000000000000000000000000000000000000000000a0000000000000000000000000000000000000000000000001158e460913d00000000000",
                    "decodedMethod": {
                        "callParams": [
                            {
                                "name": "",
                                "type": "address",
                                "value": "0x13e1699a681d48d9b98e0adf64052134559f105c"
                            },
                            {
                                "name": "",
                                "type": "address",
                                "value": "0xeeeeeeeeeeeeeeeeeeeeeeeeeeeeeeeeeeeeeeee"
                            },
                            {
                                "name": "log",
                                "type": "bytes",
                                "value": "0xf89b947ceb23fd6bc0add59e62ac25578270cff1b9f619f863a0ddf252ad1be2c89b69c2b068fc378daa952ba7f163c4a11628f55a4df523b3efa000000000000000000000000013e1699a681d48d9b98e0adf64052134559f105ca00000000000000000000000000000000000000000000000000000000000000000a0000000000000000000000000000000000000000000000001158e460913d00000"
                            }
                        ],
                        "constructorArguments": "",
                        "name": "exitTokens",
                        "returnParams": [],
                        "signature": "exitTokens(address,address,bytes)"
                    },
                    "errorInfo": "",
                    "fromAddress": "0x8484ef722627bf18ca5ae6bcf031c23e6e922b30",
                    "gasUsed": 22377,
                    "id": 4,
                    "methodDecoded": true,
                    "operation": "DELEGATECALL",
                    "output": "",
                    "revert": false,
                    "revertMessage": "",
                    "selector": "0x8274664f",
                    "status": true,
                    "value": "0"
                },
                "nodeType": 0
            },
            "5": {
                "event": {
                    "contract": "0x8484ef722627bf18ca5ae6bcf031c23e6e922b30",
                    "decodedLog": {
                        "name": "ExitedEther",
                        "params": [
                            {
                                "name": "exitor",
                                "type": "address",
                                "value": "0x13e1699a681d48d9b98e0adf64052134559f105c"
                            },
                            {
                                "name": "amount",
                                "type": "uint256",
                                "value": "20,000,000,000,000,000,000"
                            }
                        ],
                        "signature": "ExitedEther(address,uint256)"
                    },
                    "id": 5,
                    "logData": "0x000000000000000000000000000000000000000000000001158e460913d00000",
                    "logDecoded": true,
                    "operation": "EVENT",
                    "revert": false,
                    "status": true,
                    "topics": [
                        "0x0fc0eed41f72d3da77d0f53b9594fc7073acd15ee9d7c536819a70a67c57ef3c",
                        "0x00000000000000000000000013e1699a681d48d9b98e0adf64052134559f105c"
                    ]
                },
                "nodeType": 1
            },
            "6": {
                "invocation": {
                    "address": "0x13e1699a681d48d9b98e0adf64052134559f105c",
                    "callData": "0x",
                    "decodedMethod": null,
                    "errorInfo": "",
                    "fromAddress": "0x8484ef722627bf18ca5ae6bcf031c23e6e922b30",
                    "gasUsed": 0,
                    "id": 6,
                    "methodDecoded": false,
                    "operation": "CALL",
                    "output": "",
                    "revert": false,
                    "revertMessage": "",
                    "selector": "fallback",
                    "status": true,
                    "value": "20"
                },
                "nodeType": 0
            }
        },
        "gasFlame": [
            {
                "children": [
                    {
                        "children": [
                            {
                                "children": [],
                                "depth": 0,
                                "name": "Initial Gas",
                                "value": 53636
                            },
                            {
                                "children": [
                                    {
                                        "children": [
                                            {
                                                "children": [],
                                                "depth": 2,
                                                "name": "headerBlocks",
                                                "value": 11006
                                            },
                                            {
                                                "children": [
                                                    {
                                                        "children": [
                                                            {
                                                                "children": [],
                                                                "depth": 4,
                                                                "name": "fallback",
                                                                "value": 0
                                                            }
                                                        ],
                                                        "depth": 3,
                                                        "name": "exitTokens",
                                                        "value": 22377
                                                    }
                                                ],
                                                "depth": 2,
                                                "name": "exitTokens",
                                                "value": 27776
                                            }
                                        ],
                                        "depth": 1,
                                        "name": "exit",
                                        "value": 176710
                                    }
                                ],
                                "depth": 0,
                                "name": "Executed Gas",
                                "value": 182607
                            }
                        ],
                        "depth": -1,
                        "name": "Actual Gas Used",
                        "value": 236243
                    },
                    {
                        "children": [],
                        "depth": -1,
                        "name": "Refunded Gas",
                        "value": 0
                    }
                ],
                "depth": -2,
                "name": "Total Gas",
                "value": 236243
            }
        ],
        "isConfirmed": true,
        "mainTrace": [
            {
                "children": [
                    {
                        "children": [
                            {
                                "children": [
                                    {
                                        "children": [],
                                        "depth": 2,
                                        "id": 2,
                                        "order": 2
                                    },
                                    {
                                        "children": [
                                            {
                                                "children": [
                                                    {
                                                        "children": [],
                                                        "depth": 4,
                                                        "id": 5,
                                                        "order": 5
                                                    },
                                                    {
                                                        "children": [],
                                                        "depth": 4,
                                                        "id": 6,
                                                        "order": 6
                                                    }
                                                ],
                                                "depth": 3,
                                                "id": 4,
                                                "order": 4
                                            }
                                        ],
                                        "depth": 2,
                                        "id": 3,
                                        "order": 3
                                    }
                                ],
                                "depth": 1,
                                "id": 1,
                                "order": 1
                            }
                        ],
                        "depth": 0,
                        "id": 0,
                        "order": 0
                    }
                ],
                "depth": -1,
                "id": -1,
                "order": -1
            }
        ],
        "mainTraceNodeCount": 7,
        "parentIdMap": {
            "0": -1,
            "1": 0,
            "2": 1,
            "3": 1,
            "4": 3,
            "5": 4,
            "6": 4
        },
        "tidyTrace": [
            {
                "children": [
                    {
                        "children": [
                            {
                                "children": [
                                    {
                                        "children": [
                                            {
                                                "children": [
                                                    {
                                                        "children": [],
                                                        "depth": 4,
                                                        "id": 5,
                                                        "order": 5
                                                    },
                                                    {
                                                        "children": [],
                                                        "depth": 4,
                                                        "id": 6,
                                                        "order": 6
                                                    }
                                                ],
                                                "depth": 3,
                                                "id": 4,
                                                "order": 4
                                            }
                                        ],
                                        "depth": 2,
                                        "id": 3,
                                        "order": 3
                                    }
                                ],
                                "depth": 1,
                                "id": 1,
                                "order": 1
                            }
                        ],
                        "depth": 0,
                        "id": 0,
                        "order": 0
                    }
                ],
                "depth": -1,
                "id": -1,
                "order": -1
            }
        ],
        "tidyTraceNodeCount": 6
    },
    "state_change": {
        "stateChanges": [
            {
                "address": "0xa0c68c638235ee32657e8f720a23cec1bfc77c77",
                "erc": "",
                "slots": [
                    {
                        "current": "0x0000000000000000000000000000000000000000000000000000000000000001",
                        "key": "0xf9872f96fb6d68c7c50ef94c58da49c80d36dcff4b9e629b1408a5a6f74227f1",
                        "prev": "0x0000000000000000000000000000000000000000000000000000000000000000"
                    }
                ],
                "storageVariables": [
                    {
                        "name": "processedExits",
                        "type": "mapping(bytes32 => bool)",
                        "value": {
                            "pairs": [
                                {
                                    "key": "0xcb856b47f836dfebeca650a3243c215efb21dcb71b0c279b3c24be9a329034c7",
                                    "value": {
                                        "current": "true",
                                        "prev": "false",
                                        "typeTag": 1
                                    }
                                }
                            ],
                            "typeTag": 4
                        }
                    }
                ]
            }
        ]
    }
}