{
    "balance_change": {
        "balanceChanges": [
            {
                "account": "0xd551234ae421e3bcba99a0da6d736074f22192ff",
                "assets": [
                    {
                        "address": "0x1985365e9f78359a9b6ad760e32412f4a445e862",
                        "amount": "377.90952914",
                        "iconUrl": "",
                        "isERC1155": false,
                        "isERC721": false,
                        "sign": false,
                        "value": ""
                    }
                ]
            },
            {
                "account": "0x3bac7400123bde8bbe813fbb781796d470164a1c",
                "assets": [
                    {
                        "address": "0x1985365e9f78359a9b6ad760e32412f4a445e862",
                        "amount": "377.90952914",
                        "iconUrl": "",
                        "isERC1155": false,
                        "isERC721": false,
                        "sign": true,
                        "value": ""
                    }
                ]
            }
        ]
    },
    "profile": {
        "basic_info": {
            "baseFee": "",
            "blockNumber": 7529974,
            "callData": "0xa9059cbb0000000000000000000000003bac7400123bde8bbe813fbb781796d470164a1c0000000000000000000000000000000000000000000000147c8c5a8098d50800",
            "debugEnable": true,
            "errorInfo": "",
            "eventCount": 2,
            "feeRecipient": "0x829bd824b016326a401d083b33d092293333a830",
            "formatValue": "0",
            "gasLimit": 149184,
            "gasPrice": "40",
            "gasUsed": 73901,
            "intTxnCount": 7,
            "internalRevert": false,
            "internalRevertMessage": "",
            "isContractCreation": false,
            "isFlashloan": false,
            "maxFee": "",
            "nonce": 1389710,
            "overwritedBlockNumber": -1,
            "priorityFee": "",
            "receiver": "0x1985365e9f78359a9b6ad760e32412f4a445e862",
            "revertMessage": "",
            "sender": "0xd551234ae421e3bcba99a0da6d736074f22192ff",
            "simulationEnable": true,
            "sourceTxnHash": "0xacf455e8fa61dc48c11e9fca42e3f06d929fca69ebcba7ca37bfb5445dcfccfe",
            "status": true,
            "timestamp": "2019-04-08T21:47:05Z",
            "transactionFee": "0.00295604",
            "txnHash": "0xacf455e8fa61dc48c11e9fca42e3f06d929fca69ebcba7ca37bfb5445dcfccfe",
            "txnIndex": 5,
            "type": 0,
            "value": "0"
        },
        "fund_flow": [
            {
                "amount": "377.90952914",
                "from": "0xd551234ae421e3bcba99a0da6d736074f22192ff",
                "id": 1,
                "isERC1155": false,
                "isERC721": false,
                "isReverted": false,
                "order": 1,
                "to": "0x3bac7400123bde8bbe813fbb781796d470164a1c",
                "token": "0x1985365e9f78359a9b6ad760e32412f4a445e862"
            }
        ],
        "token_infos": [
            {
                "address": "0xc02aaa39b223fe8d0a0e5c4f27ead9083c756cc2",
                "decimals": 18
            },
            {
                "address": "0xeeeeeeeeeeeeeeeeeeeeeeeeeeeeeeeeeeeeeeee",
                "decimals": 18
            },
            {
                "address": "0x1985365e9f78359a9b6ad760e32412f4a445e862",
                "decimals": 18
            }
        ]
    },
    "address_label": {
        "labels": [
            {
                "address": "0x0000000000000000000000000000000000000001",
                "label": "Precompiled"
            },
            {
                "address": "0x0000000000000000000000000000000000000002",
                "label": "Precompiled"
            },
            {
                "address": "0x0000000000000000000000000000000000000003",
                "label": "Precompiled"
            },
            {
                "address": "0x0000000000000000000000000000000000000004",
                "label": "Precompiled"
            },
            {
                "address": "0x6c114b96b7a0e679c2594e3884f11526797e43d1",
                "label": "Reputation (REP)"
            },
            {
                "address": "0xd551234ae421e3bcba99a0da6d736074f22192ff",
                "label": "Binance 2"
            },
            {
                "address": "0xb3337164e91b9f05c87c7662c7ac684e8e0ff3e7",
                "label": "Controller"
            },
            {
                "address": "0xfbcd5e4dbf9e95ce56d55cb3a4fd72415ca400ff",
                "label": "Universe"
            },
            {
                "address": "0x75228dce4d82566d93068a8d5d49435216551599",
                "label": "Augur"
            },
            {
                "address": "0xeeeeeeeeeeeeeeeeeeeeeeeeeeeeeeeeeeeeeeee",
                "label": "Ether"
            },
            {
                "address": "0x3bac7400123bde8bbe813fbb781796d470164a1c",
                "label": "UPBIT"
            },
            {
                "address": "0x1985365e9f78359a9b6ad760e32412f4a445e862",
                "label": "Augur: REP Token"
            }
        ]
    },
    "trace": {
        "accountLabels": null,
        "dataMap": {
            "-1": {
                "invocation": {
                    "address": "0xd551234ae421e3bcba99a0da6d736074f22192ff",
                    "callData": "",
                    "decodedMethod": null,
                    "errorInfo": "",
                    "fromAddress": "",
                    "gasUsed": 0,
                    "id": -1,
                    "methodDecoded": false,
                    "operation": "",
                    "output": "",
                    "revert": false,
                    "revertMessage": "",
                    "selector": "",
                    "status": false,
                    "value": ""
                },
                "nodeType": 0
            },
            "0": {
                "invocation": {
                    "address": "0x1985365e9f78359a9b6ad760e32412f4a445e862",
                    "callData": "0x0000000000000000000000003bac7400123bde8bbe813fbb781796d470164a1c0000000000000000000000000000000000000000000000147c8c5a8098d50800",
                    "decodedMethod": {
                        "callParams": [
                            {
                                "name": "recipient",
                                "type": "address",
                                "value": "0x3bac7400123bde8bbe813fbb781796d470164a1c"
                            },
                            {
                                "decimalAvailable": true,
                                "name": "amount",
                                "type": "uint256",
                                "value": "377,909,529,140,000,000,000"
                            }
                        ],
                        "constructorArguments": "",
                        "name": "transfer",
                        "returnParams": [
                            {
                                "name": "",
                                "type": "bool",
                                "value": true
                            }
                        ],
                        "signature": "transfer(address,uint256)"
                    },
                    "errorInfo": "",
                    "fromAddress": "0xd551234ae421e3bcba99a0da6d736074f22192ff",
                    "gasUsed": 73901,
                    "id": 0,
                    "methodDecoded": true,
                    "operation": "CALL",
                    "output": "0x0000000000000000000000000000000000000000000000000000000000000001",
                    "revert": false,
                    "revertMessage": "",
                    "selector": "0xa9059cbb",
                    "status": true,
                    "value": "0"
                },
                "nodeType": 0
            },
            "1": {
                "invocation": {
                    "address": "0xb3337164e91b9f05c87c7662c7ac684e8e0ff3e7",
                    "callData": "0x52657075746174696f6e546f6b656e0000000000000000000000000000000000",
                    "decodedMethod": {
                        "callParams": [
                            {
                                "name": "_key",
                                "type": "bytes32",
                                "value": "0x52657075746174696f6e546f6b656e0000000000000000000000000000000000"
                            }
                        ],
                        "constructorArguments": "",
                        "name": "lookup",
                        "returnParams": [
                            {
                                "name": "",
                                "type": "address",
                                "value": "0x6c114b96b7a0e679c2594e3884f11526797e43d1"
                            }
                        ],
                        "signature": "lookup(bytes32)"
                    },
                    "errorInfo": "",
                    "fromAddress": "0x1985365e9f78359a9b6ad760e32412f4a445e862",
                    "gasUsed": 934,
                    "id": 1,
                    "methodDecoded": true,
                    "operation": "CALL",
                    "output": "0x0000000000000000000000006c114b96b7a0e679c2594e3884f11526797e43d1",
                    "revert": false,
                    "revertMessage": "",
                    "selector": "0xf39ec1f7",
                    "status": true,
                    "value": "0"
                },
                "nodeType": 0
            },
            "2": {
                "invocation": {
                    "address": "0x6c114b96b7a0e679c2594e3884f11526797e43d1",
                    "callData": "0x0000000000000000000000003bac7400123bde8bbe813fbb781796d470164a1c0000000000000000000000000000000000000000000000147c8c5a8098d50800",
                    "decodedMethod": {
                        "callParams": [
                            {
                                "name": "_to",
                                "type": "address",
                                "value": "0x3bac7400123bde8bbe813fbb781796d470164a1c"
                            },
                            {
                                "decimalAvailable": true,
                                "name": "_value",
                                "type": "uint256",
                                "value": "377,909,529,140,000,000,000"
                            }
                        ],
                        "constructorArguments": "",
                        "name": "transfer",
                        "returnParams": [
                            {
                                "name": "",
                                "type": "bool",
                                "value": true
                            }
                        ],
                        "signature": "transfer(address,uint256)"
                    },
                    "errorInfo": "",
                    "fromAddress": "0x1985365e9f78359a9b6ad760e32412f4a445e862",
                    "gasUsed": 46499,
                    "id": 2,
                    "methodDecoded": true,
                    "operation": "DELEGATECALL",
                    "output": "0x0000000000000000000000000000000000000000000000000000000000000001",
                    "revert": false,
                    "revertMessage": "",
                    "selector": "0xa9059cbb",
                    "status": true,
                    "value": "0"
                },
                "nodeType": 0
            },
            "3": {
                "event": {
                    "contract": "0x1985365e9f78359a9b6ad760e32412f4a445e862",
                    "decodedLog": {
                        "name": "Transfer",
                        "params": [
                            {
                                "name": "from",
                                "type": "address",
                                "value": "0xd551234ae421e3bcba99a0da6d736074f22192ff"
                            },
                            {
                                "name": "to",
                                "type": "address",
                                "value": "0x3bac7400123bde8bbe813fbb781796d470164a1c"
                            },
                            {
                                "decimalAvailable": true,
                                "name": "value",
                                "type": "uint256",
                                "value": "377,909,529,140,000,000,000"
                            }
                        ],
                        "signature": "Transfer(address,address,uint256)"
                    },
                    "id": 3,
                    "logData": "0x0000000000000000000000000000000000000000000000147c8c5a8098d50800",
                    "logDecoded": true,
                    "operation": "EVENT",
                    "revert": false,
                    "status": true,
                    "topics": [
                        "0xddf252ad1be2c89b69c2b068fc378daa952ba7f163c4a11628f55a4df523b3ef",
                        "0x000000000000000000000000d551234ae421e3bcba99a0da6d736074f22192ff",
                        "0x0000000000000000000000003bac7400123bde8bbe813fbb781796d470164a1c"
                    ]
                },
                "nodeType": 1
            },
            "4": {
                "invocation": {
                    "address": "0xb3337164e91b9f05c87c7662c7ac684e8e0ff3e7",
                    "callData": "0x",
                    "decodedMethod": {
                        "callParams": [],
                        "constructorArguments": "",
                        "name": "getAugur",
                        "returnParams": [
                            {
                                "name": "",
                                "type": "address",
                                "value": "0x75228dce4d82566d93068a8d5d49435216551599"
                            }
                        ],
                        "signature": "getAugur()"
                    },
                    "errorInfo": "",
                    "fromAddress": "0x1985365e9f78359a9b6ad760e32412f4a445e862",
                    "gasUsed": 768,
                    "id": 4,
                    "methodDecoded": true,
                    "operation": "CALL",
                    "output": "0x00000000000000000000000075228dce4d82566d93068a8d5d49435216551599",
                    "revert": false,
                    "revertMessage": "",
                    "selector": "0x4e94c829",
                    "status": true,
                    "value": "0"
                },
                "nodeType": 0
            },
            "5": {
                "invocation": {
                    "address": "0x75228dce4d82566d93068a8d5d49435216551599",
                    "callData": "0x000000000000000000000000e991247b78f937d7b69cfc00f1a487a293557677000000000000000000000000d551234ae421e3bcba99a0da6d736074f22192ff0000000000000000000000003bac7400123bde8bbe813fbb781796d470164a1c0000000000000000000000000000000000000000000000147c8c5a8098d50800",
                    "decodedMethod": {
                        "callParams": [
                            {
                                "name": "_universe",
                                "type": "address",
                                "value": "0xe991247b78f937d7b69cfc00f1a487a293557677"
                            },
                            {
                                "name": "_from",
                                "type": "address",
                                "value": "0xd551234ae421e3bcba99a0da6d736074f22192ff"
                            },
                            {
                                "name": "_to",
                                "type": "address",
                                "value": "0x3bac7400123bde8bbe813fbb781796d470164a1c"
                            },
                            {
                                "name": "_value",
                                "type": "uint256",
                                "value": "377,909,529,140,000,000,000"
                            }
                        ],
                        "constructorArguments": "",
                        "name": "logReputationTokensTransferred",
                        "returnParams": [
                            {
                                "name": "",
                                "type": "bool",
                                "value": true
                            }
                        ],
                        "signature": "logReputationTokensTransferred(address,address,address,uint256)"
                    },
                    "errorInfo": "",
                    "fromAddress": "0x1985365e9f78359a9b6ad760e32412f4a445e862",
                    "gasUsed": 12638,
                    "id": 5,
                    "methodDecoded": true,
                    "operation": "CALL",
                    "output": "0x0000000000000000000000000000000000000000000000000000000000000001",
                    "revert": false,
                    "revertMessage": "",
                    "selector": "0xec37a6e4",
                    "status": true,
                    "value": "0"
                },
                "nodeType": 0
            },
            "6": {
                "invocation": {
                    "address": "0xe991247b78f937d7b69cfc00f1a487a293557677",
                    "callData": "0x",
                    "decodedMethod": {
                        "callParams": [],
                        "constructorArguments": "",
                        "name": "getReputationToken",
                        "returnParams": [
                            {
                                "name": "",
                                "type": "address",
                                "value": "0x1985365e9f78359a9b6ad760e32412f4a445e862"
                            }
                        ],
                        "signature": "getReputationToken()"
                    },
                    "errorInfo": "",
                    "fromAddress": "0x75228dce4d82566d93068a8d5d49435216551599",
                    "gasUsed": 5537,
                    "id": 6,
                    "methodDecoded": true,
                    "operation": "CALL",
                    "output": "0x0000000000000000000000001985365e9f78359a9b6ad760e32412f4a445e862",
                    "revert": false,
                    "revertMessage": "",
                    "selector": "0xb80907f2",
                    "status": true,
                    "value": "0"
                },
                "nodeType": 0
            },
            "7": {
                "invocation": {
                    "address": "0xb3337164e91b9f05c87c7662c7ac684e8e0ff3e7",
                    "callData": "0x556e697665727365000000000000000000000000000000000000000000000000",
                    "decodedMethod": {
                        "callParams": [
                            {
                                "name": "_key",
                                "type": "bytes32",
                                "value": "0x556e697665727365000000000000000000000000000000000000000000000000"
                            }
                        ],
                        "constructorArguments": "",
                        "name": "lookup",
                        "returnParams": [
                            {
                                "name": "",
                                "type": "address",
                                "value": "0xfbcd5e4dbf9e95ce56d55cb3a4fd72415ca400ff"
                            }
                        ],
                        "signature": "lookup(bytes32)"
                    },
                    "errorInfo": "",
                    "fromAddress": "0xe991247b78f937d7b69cfc00f1a487a293557677",
                    "gasUsed": 934,
                    "id": 7,
                    "methodDecoded": true,
                    "operation": "CALL",
                    "output": "0x000000000000000000000000fbcd5e4dbf9e95ce56d55cb3a4fd72415ca400ff",
                    "revert": false,
                    "revertMessage": "",
                    "selector": "0xf39ec1f7",
                    "status": true,
                    "value": "0"
                },
                "nodeType": 0
            },
            "8": {
                "invocation": {
                    "address": "0xfbcd5e4dbf9e95ce56d55cb3a4fd72415ca400ff",
                    "callData": "0x",
                    "decodedMethod": {
                        "callParams": [],
                        "constructorArguments": "",
                        "name": "getReputationToken",
                        "returnParams": [
                            {
                                "name": "",
                                "type": "address",
                                "value": "0x1985365e9f78359a9b6ad760e32412f4a445e862"
                            }
                        ],
                        "signature": "getReputationToken()"
                    },
                    "errorInfo": "",
                    "fromAddress": "0xe991247b78f937d7b69cfc00f1a487a293557677",
                    "gasUsed": 1403,
                    "id": 8,
                    "methodDecoded": true,
                    "operation": "DELEGATECALL",
                    "output": "0x0000000000000000000000001985365e9f78359a9b6ad760e32412f4a445e862",
                    "revert": false,
                    "revertMessage": "",
                    "selector": "0xb80907f2",
                    "status": true,
                    "value": "0"
                },
                "nodeType": 0
            },
            "9": {
                "event": {
                    "contract": "0x75228dce4d82566d93068a8d5d49435216551599",
                    "decodedLog": {
                        "name": "TokensTransferred",
                        "params": [
                            {
                                "name": "universe",
                                "type": "address",
                                "value": "0xe991247b78f937d7b69cfc00f1a487a293557677"
                            },
                            {
                                "name": "token",
                                "type": "address",
                                "value": "0x1985365e9f78359a9b6ad760e32412f4a445e862"
                            },
                            {
                                "name": "from",
                                "type": "address",
                                "value": "0xd551234ae421e3bcba99a0da6d736074f22192ff"
                            },
                            {
                                "name": "to",
                                "type": "address",
                                "value": "0x3bac7400123bde8bbe813fbb781796d470164a1c"
                            },
                            {
                                "name": "value",
                                "type": "uint256",
                                "value": "377,909,529,140,000,000,000"
                            },
                            {
                                "name": "tokenType",
                                "type": "uint8",
                                "value": "0"
                            },
                            {
                                "name": "market",
                                "type": "address",
                                "value": "0x0000000000000000000000000000000000000000"
                            }
                        ],
                        "signature": "TokensTransferred(address,address,address,address,uint256,uint8,address)"
                    },
                    "id": 9,
                    "logData": "0x0000000000000000000000003bac7400123bde8bbe813fbb781796d470164a1c0000000000000000000000000000000000000000000000147c8c5a8098d5080000000000000000000000000000000000000000000000000000000000000000000000000000000000000000000000000000000000000000000000000000000000",
                    "logDecoded": true,
                    "operation": "EVENT",
                    "revert": false,
                    "status": true,
                    "topics": [
                        "0x3c67396e9c55d2fc8ad68875fc5beca1d96ad2a2f23b210ccc1d986551ab6fdf",
                        "0x000000000000000000000000e991247b78f937d7b69cfc00f1a487a293557677",
                        "0x0000000000000000000000001985365e9f78359a9b6ad760e32412f4a445e862",
                        "0x000000000000000000000000d551234ae421e3bcba99a0da6d736074f22192ff"
                    ]
                },
                "nodeType": 1
            }
        },
        "gasFlame": [
            {
                "children": [
                    {
                        "children": [
                            {
                                "children": [],
                                "depth": 0,
                                "name": "Initial Gas",
                                "value": 23256
                            },
                            {
                                "children": [
                                    {
                                        "children": [],
                                        "depth": 1,
                                        "name": "lookup",
                                        "value": 934
                                    },
                                    {
                                        "children": [
                                            {
                                                "children": [],
                                                "depth": 2,
                                                "name": "getAugur",
                                                "value": 768
                                            },
                                            {
                                                "children": [
                                                    {
                                                        "children": [
                                                            {
                                                                "children": [],
                                                                "depth": 4,
                                                                "name": "lookup",
                                                                "value": 934
                                                            },
                                                            {
                                                                "children": [],
                                                                "depth": 4,
                                                                "name": "getReputationToken",
                                                                "value": 1403
                                                            }
                                                        ],
                                                        "depth": 3,
                                                        "name": "getReputationToken",
                                                        "value": 5537
                                                    }
                                                ],
                                                "depth": 2,
                                                "name": "logReputationTokensTransferred",
                                                "value": 12638
                                            }
                                        ],
                                        "depth": 1,
                                        "name": "transfer",
                                        "value": 46499
                                    }
                                ],
                                "depth": 0,
                                "name": "Executed Gas",
                                "value": 50645
                            }
                        ],
                        "depth": -1,
                        "name": "Actual Gas Used",
                        "value": 73901
                    },
                    {
                        "children": [],
                        "depth": -1,
                        "name": "Refunded Gas",
                        "value": 0
                    }
                ],
                "depth": -2,
                "name": "Total Gas",
                "value": 73901
            }
        ],
        "isConfirmed": true,
        "mainTrace": [
            {
                "children": [
                    {
                        "children": [
                            {
                                "children": [],
                                "depth": 1,
                                "id": 1,
                                "order": 1
                            },
                            {
                                "children": [
                                    {
                                        "children": [],
                                        "depth": 2,
                                        "id": 3,
                                        "order": 3
                                    },
                                    {
                                        "children": [],
                                        "depth": 2,
                                        "id": 4,
                                        "order": 4
                                    },
                                    {
                                        "children": [
                                            {
                                                "children": [
                                                    {
                                                        "children": [],
                                                        "depth": 4,
                                                        "id": 7,
                                                        "order": 7
                                                    },
                                                    {
                                                        "children": [],
                                                        "depth": 4,
                                                        "id": 8,
                                                        "order": 8
                                                    }
                                                ],
                                                "depth": 3,
                                                "id": 6,
                                                "order": 6
                                            },
                                            {
                                                "children": [],
                                                "depth": 3,
                                                "id": 9,
                                                "order": 9
                                            }
                                        ],
                                        "depth": 2,
                                        "id": 5,
                                        "order": 5
                                    }
                                ],
                                "depth": 1,
                                "id": 2,
                                "order": 2
                            }
                        ],
                        "depth": 0,
                        "id": 0,
                        "order": 0
                    }
                ],
                "depth": -1,
                "id": -1,
                "order": -1
            }
        ],
        "mainTraceNodeCount": 10,
        "parentIdMap": {
            "0": -1,
            "1": 0,
            "2": 0,
            "3": 2,
            "4": 2,
            "5": 2,
            "6": 5,
            "7": 6,
            "8": 6,
            "9": 5
        },
        "tidyTrace": [
            {
                "children": [
                    {
                        "children": [
                            {
                                "children": [],
                                "depth": 1,
                                "id": 1,
                                "order": 1
                            },
                            {
                                "children": [
                                    {
                                        "children": [],
                                        "depth": 2,
                                        "id": 3,
                                        "order": 3
                                    },
                                    {
                                        "children": [],
                                        "depth": 2,
                                        "id": 4,
                                        "order": 4
                                    },
                                    {
                                        "children": [
                                            {
                                                "children": [
                                                    {
                                                        "children": [],
                                                        "depth": 4,
                                                        "id": 7,
                                                        "order": 7
                                                    },
                                                    {
                                                        "children": [],
                                                        "depth": 4,
                                                        "id": 8,
                                                        "order": 8
                                                    }
                                                ],
                                                "depth": 3,
                                                "id": 6,
                                                "order": 6
                                            },
                                            {
                                                "children": [],
                                                "depth": 3,
                                                "id": 9,
                                                "order": 9
                                            }
                                        ],
                                        "depth": 2,
                                        "id": 5,
                                        "order": 5
                                    }
                                ],
                                "depth": 1,
                                "id": 2,
                                "order": 2
                            }
                        ],
                        "depth": 0,
                        "id": 0,
                        "order": 0
                    }
                ],
                "depth": -1,
                "id": -1,
                "order": -1
            }
        ],
        "tidyTraceNodeCount": 10
    },
    "state_change": {
        "stateChanges": [
            {
                "address": "0x1985365e9f78359a9b6ad760e32412f4a445e862",
                "erc": "",
                "slots": [
                    {
                        "current": "0x0000000000000000000000000000000000000000000004cba1f1cd55ea480000",
                        "key": "0x4be06f082e55102f46695c2c7d3e1ac9fb3f653f35472e41a2578774107e925b",
                        "prev": "0x0000000000000000000000000000000000000000000004e01e7e27d6831d0800"
                    },
                    {
                        "current": "0x0000000000000000000000000000000000000000000000147c8c5a8098d50800",
                        "key": "0x9c7fb3002cd517ba2d12c9ae9f6bb41302b371ceebaf53818141b5b07b29953c",
                        "prev": "0x0000000000000000000000000000000000000000000000000000000000000000"
                    }
                ],
                "storageVariables": []
            }
        ]
    }
}