{
    "balance_change": {
        "balanceChanges": [
            {
                "account": "0xc1cfa92c81e60ff7455b32353d0224f3e0d14eea",
                "assets": [
                    {
                        "address": "0xdc89516ea92ec55431647075ec8e8a747c0860b9",
                        "amount": "30",
                        "iconUrl": "",
                        "isERC1155": false,
                        "isERC721": false,
                        "sign": false,
                        "value": ""
                    }
                ]
            },
            {
                "account": "0x1dfde091e78ba08c6551b8b492534422afa4329e",
                "assets": [
                    {
                        "address": "0xdc89516ea92ec55431647075ec8e8a747c0860b9",
                        "amount": "30",
                        "iconUrl": "",
                        "isERC1155": false,
                        "isERC721": false,
                        "sign": true,
                        "value": ""
                    }
                ]
            }
        ]
    },
    "profile": {
        "basic_info": {
            "baseFee": "",
            "blockNumber": 8462107,
            "callData": "0xa9059cbb0000000000000000000000001dfde091e78ba08c6551b8b492534422afa4329e00000000000000000000000000000000000000000000000000000006fc23ac00",
            "debugEnable": true,
            "errorInfo": "",
            "eventCount": 1,
            "feeRecipient": "0x829bd824b016326a401d083b33d092293333a830",
            "formatValue": "0",
            "gasLimit": 60000,
            "gasPrice": "3",
            "gasUsed": 52022,
            "intTxnCount": 0,
            "internalRevert": false,
            "internalRevertMessage": "",
            "isContractCreation": false,
            "isFlashloan": false,
            "maxFee": "",
            "nonce": 62,
            "overwritedBlockNumber": -1,
            "priorityFee": "",
            "receiver": "0xdc89516ea92ec55431647075ec8e8a747c0860b9",
            "revertMessage": "",
            "sender": "0xc1cfa92c81e60ff7455b32353d0224f3e0d14eea",
            "simulationEnable": true,
            "sourceTxnHash": "0xacf5dc27fef151e8c3fc202de20fda288bb0c77728f434ae4f1895758dff0069",
            "status": true,
            "timestamp": "2019-09-01T03:51:57Z",
            "transactionFee": "0.000156066",
            "txnHash": "0xacf5dc27fef151e8c3fc202de20fda288bb0c77728f434ae4f1895758dff0069",
            "txnIndex": 175,
            "type": 0,
            "value": "0"
        },
        "fund_flow": [
            {
                "amount": "30",
                "from": "0xc1cfa92c81e60ff7455b32353d0224f3e0d14eea",
                "id": 1,
                "isERC1155": false,
                "isERC721": false,
                "isReverted": false,
                "order": 1,
                "to": "0x1dfde091e78ba08c6551b8b492534422afa4329e",
                "token": "0xdc89516ea92ec55431647075ec8e8a747c0860b9"
            }
        ],
        "token_infos": [
            {
                "address": "0xeeeeeeeeeeeeeeeeeeeeeeeeeeeeeeeeeeeeeeee",
                "decimals": 18
            },
            {
                "address": "0xc02aaa39b223fe8d0a0e5c4f27ead9083c756cc2",
                "decimals": 18
            },
            {
                "address": "0xdc89516ea92ec55431647075ec8e8a747c0860b9",
                "decimals": 9
            }
        ]
    },
    "address_label": {
        "labels": [
            {
                "address": "0xdc89516ea92ec55431647075ec8e8a747c0860b9",
                "label": "SPNC"
            },
            {
                "address": "0x0000000000000000000000000000000000000001",
                "label": "Precompiled"
            },
            {
                "address": "0x0000000000000000000000000000000000000002",
                "label": "Precompiled"
            },
            {
                "address": "0x0000000000000000000000000000000000000003",
                "label": "Precompiled"
            },
            {
                "address": "0x0000000000000000000000000000000000000004",
                "label": "Precompiled"
            },
            {
                "address": "0xeeeeeeeeeeeeeeeeeeeeeeeeeeeeeeeeeeeeeeee",
                "label": "Ether"
            }
        ]
    },
    "trace": {
        "accountLabels": null,
        "dataMap": {
            "-1": {
                "invocation": {
                    "address": "0xc1cfa92c81e60ff7455b32353d0224f3e0d14eea",
                    "callData": "",
                    "decodedMethod": null,
                    "errorInfo": "",
                    "fromAddress": "",
                    "gasUsed": 0,
                    "id": -1,
                    "methodDecoded": false,
                    "operation": "",
                    "output": "",
                    "revert": false,
                    "revertMessage": "",
                    "selector": "",
                    "status": false,
                    "value": ""
                },
                "nodeType": 0
            },
            "0": {
                "invocation": {
                    "address": "0xdc89516ea92ec55431647075ec8e8a747c0860b9",
                    "callData": "0x0000000000000000000000001dfde091e78ba08c6551b8b492534422afa4329e00000000000000000000000000000000000000000000000000000006fc23ac00",
                    "decodedMethod": {
                        "callParams": [
                            {
                                "name": "recipient",
                                "type": "address",
                                "value": "0x1dfde091e78ba08c6551b8b492534422afa4329e"
                            },
                            {
                                "decimalAvailable": true,
                                "name": "amount",
                                "type": "uint256",
                                "value": "30,000,000,000"
                            }
                        ],
                        "constructorArguments": "",
                        "name": "transfer",
                        "returnParams": [
                            {
                                "name": "",
                                "type": "bool",
                                "value": true
                            }
                        ],
                        "signature": "transfer(address,uint256)"
                    },
                    "errorInfo": "",
                    "fromAddress": "0xc1cfa92c81e60ff7455b32353d0224f3e0d14eea",
                    "gasUsed": 52022,
                    "id": 0,
                    "methodDecoded": true,
                    "operation": "CALL",
                    "output": "0x0000000000000000000000000000000000000000000000000000000000000001",
                    "revert": false,
                    "revertMessage": "",
                    "selector": "0xa9059cbb",
                    "status": true,
                    "value": "0"
                },
                "nodeType": 0
            },
            "1": {
                "event": {
                    "contract": "0xdc89516ea92ec55431647075ec8e8a747c0860b9",
                    "decodedLog": {
                        "name": "Transfer",
                        "params": [
                            {
                                "name": "from",
                                "type": "address",
                                "value": "0xc1cfa92c81e60ff7455b32353d0224f3e0d14eea"
                            },
                            {
                                "name": "to",
                                "type": "address",
                                "value": "0x1dfde091e78ba08c6551b8b492534422afa4329e"
                            },
                            {
                                "decimalAvailable": true,
                                "name": "value",
                                "type": "uint256",
                                "value": "30,000,000,000"
                            }
                        ],
                        "signature": "Transfer(address,address,uint256)"
                    },
                    "id": 1,
                    "logData": "0x00000000000000000000000000000000000000000000000000000006fc23ac00",
                    "logDecoded": true,
                    "operation": "EVENT",
                    "revert": false,
                    "status": true,
                    "topics": [
                        "0xddf252ad1be2c89b69c2b068fc378daa952ba7f163c4a11628f55a4df523b3ef",
                        "0x000000000000000000000000c1cfa92c81e60ff7455b32353d0224f3e0d14eea",
                        "0x0000000000000000000000001dfde091e78ba08c6551b8b492534422afa4329e"
                    ]
                },
                "nodeType": 1
            }
        },
        "gasFlame": [
            {
                "children": [
                    {
                        "children": [
                            {
                                "children": [],
                                "depth": 0,
                                "name": "Initial Gas",
                                "value": 23064
                            },
                            {
                                "children": [],
                                "depth": 0,
                                "name": "Executed Gas",
                                "value": 28958
                            }
                        ],
                        "depth": -1,
                        "name": "Actual Gas Used",
                        "value": 52022
                    },
                    {
                        "children": [],
                        "depth": -1,
                        "name": "Refunded Gas",
                        "value": 0
                    }
                ],
                "depth": -2,
                "name": "Total Gas",
                "value": 52022
            }
        ],
        "isConfirmed": true,
        "mainTrace": [
            {
                "children": [
                    {
                        "children": [
                            {
                                "children": [],
                                "depth": 1,
                                "id": 1,
                                "order": 1
                            }
                        ],
                        "depth": 0,
                        "id": 0,
                        "order": 0
                    }
                ],
                "depth": -1,
                "id": -1,
                "order": -1
            }
        ],
        "mainTraceNodeCount": 2,
        "parentIdMap": {
            "0": -1,
            "1": 0
        },
        "tidyTrace": [
            {
                "children": [
                    {
                        "children": [
                            {
                                "children": [],
                                "depth": 1,
                                "id": 1,
                                "order": 1
                            }
                        ],
                        "depth": 0,
                        "id": 0,
                        "order": 0
                    }
                ],
                "depth": -1,
                "id": -1,
                "order": -1
            }
        ],
        "tidyTraceNodeCount": 2
    },
    "state_change": {
        "stateChanges": [
            {
                "address": "0xdc89516ea92ec55431647075ec8e8a747c0860b9",
                "erc": "",
                "slots": [
                    {
                        "current": "0x000000000000000000000000000000000000000000000000000e717c97638998",
                        "key": "0xcec3c81c4f4a745c02ee191241c730fab3e0d99e0bfa07f08583b0c1bb74a308",
                        "prev": "0x000000000000000000000000000000000000000000000000000e718393873598"
                    },
                    {
                        "current": "0x00000000000000000000000000000000000000000000000000000006fc23ac00",
                        "key": "0xd8596c52af6a22b29b7bddb329d3a71185a79dcd512943e81012b14731469c74",
                        "prev": "0x0000000000000000000000000000000000000000000000000000000000000000"
                    }
                ],
                "storageVariables": []
            }
        ]
    }
}