{
    "balance_change": {
        "balanceChanges": []
    },
    "profile": {
        "basic_info": {
            "baseFee": "",
            "blockNumber": 8100664,
            "callData": "0x0a19b14a0000000000000000000000000000000000000000000000000000000000000000000000000000000000000000000000000000000000000000024ebcf5c3f66000000000000000000000000000c16b542ff490e01fcc0dc58a60e1efdc3e357ca600000000000000000000000000000000000000000000000000000000000000de00000000000000000000000000000000000000000000000000000000007ba54200000000000000000000000000000000000000000000000000000000a3f5705800000000000000000000000095c1ba678e682d0c29b6a2d589570bd1b8221072000000000000000000000000000000000000000000000000000000000000001cd3f6bac657d7a963546cc9df059705da3ed69a7abbce990dccb4f9866e44477f1dfb5200f7435cb39886257a96c9981c6ae166d0c5c4ac13849ae3ad2f8a2bec000000000000000000000000000000000000000000000000024ebcf5c3f66000",
            "debugEnable": true,
            "errorInfo": "",
            "eventCount": 1,
            "feeRecipient": "0x5a0b54d5dc17e0aadc383d2db43b0a0d3e029c4c",
            "formatValue": "0",
            "gasLimit": 250000,
            "gasPrice": "1.1",
            "gasUsed": 96472,
            "intTxnCount": 3,
            "internalRevert": false,
            "internalRevertMessage": "",
            "isContractCreation": false,
            "isFlashloan": false,
            "maxFee": "",
            "nonce": 77,
            "overwritedBlockNumber": -1,
            "priorityFee": "",
            "receiver": "0x1ce7ae555139c5ef5a57cc8d814a867ee6ee33d8",
            "revertMessage": "",
            "sender": "0x2abe087c85a216841164baf3caf331f082b4b880",
            "simulationEnable": true,
            "sourceTxnHash": "0xac8e0632b090a754cf9a5b497b0322e46fc18fc28d49e01e2d01ac615f5b29e3",
            "status": true,
            "timestamp": "2019-07-06T23:28:23Z",
            "transactionFee": "0.0001061192",
            "txnHash": "0xac8e0632b090a754cf9a5b497b0322e46fc18fc28d49e01e2d01ac615f5b29e3",
            "txnIndex": 5,
            "type": 0,
            "value": "0"
        },
        "fund_flow": [],
        "token_infos": [
            {
                "address": "0xc02aaa39b223fe8d0a0e5c4f27ead9083c756cc2",
                "decimals": 18
            },
            {
                "address": "0xeeeeeeeeeeeeeeeeeeeeeeeeeeeeeeeeeeeeeeee",
                "decimals": 18
            }
        ]
    },
    "address_label": {
        "labels": [
            {
                "address": "0x6927d2026befaad51eb6cf48a0c612453f46ec09",
                "label": "AccountModifiers"
            },
            {
                "address": "0x0000000000000000000000000000000000000001",
                "label": "Precompiled"
            },
            {
                "address": "0xeeeeeeeeeeeeeeeeeeeeeeeeeeeeeeeeeeeeeeee",
                "label": "Ether"
            },
            {
                "address": "0x0000000000000000000000000000000000000000",
                "label": "Null Address"
            },
            {
                "address": "0x0000000000000000000000000000000000000002",
                "label": "Precompiled"
            },
            {
                "address": "0x0000000000000000000000000000000000000003",
                "label": "Precompiled"
            },
            {
                "address": "0x0000000000000000000000000000000000000004",
                "label": "Precompiled"
            },
            {
                "address": "0x1ce7ae555139c5ef5a57cc8d814a867ee6ee33d8",
                "label": "Token.Store"
            },
            {
                "address": "0xc16b542ff490e01fcc0dc58a60e1efdc3e357ca6",
                "label": "Ice Rock Mining Token"
            }
        ]
    },
    "trace": {
        "accountLabels": null,
        "dataMap": {
            "-1": {
                "invocation": {
                    "address": "0x2abe087c85a216841164baf3caf331f082b4b880",
                    "callData": "",
                    "decodedMethod": null,
                    "errorInfo": "",
                    "fromAddress": "",
                    "gasUsed": 0,
                    "id": -1,
                    "methodDecoded": false,
                    "operation": "",
                    "output": "",
                    "revert": false,
                    "revertMessage": "",
                    "selector": "",
                    "status": false,
                    "value": ""
                },
                "nodeType": 0
            },
            "0": {
                "invocation": {
                    "address": "0x1ce7ae555139c5ef5a57cc8d814a867ee6ee33d8",
                    "callData": "0x0000000000000000000000000000000000000000000000000000000000000000000000000000000000000000000000000000000000000000024ebcf5c3f66000000000000000000000000000c16b542ff490e01fcc0dc58a60e1efdc3e357ca600000000000000000000000000000000000000000000000000000000000000de00000000000000000000000000000000000000000000000000000000007ba54200000000000000000000000000000000000000000000000000000000a3f5705800000000000000000000000095c1ba678e682d0c29b6a2d589570bd1b8221072000000000000000000000000000000000000000000000000000000000000001cd3f6bac657d7a963546cc9df059705da3ed69a7abbce990dccb4f9866e44477f1dfb5200f7435cb39886257a96c9981c6ae166d0c5c4ac13849ae3ad2f8a2bec000000000000000000000000000000000000000000000000024ebcf5c3f66000",
                    "decodedMethod": {
                        "callParams": [
                            {
                                "name": "_tokenGet",
                                "type": "address",
                                "value": "0x0000000000000000000000000000000000000000"
                            },
                            {
                                "name": "_amountGet",
                                "type": "uint256",
                                "value": "166,278,000,000,000,000"
                            },
                            {
                                "name": "_tokenGive",
                                "type": "address",
                                "value": "0xc16b542ff490e01fcc0dc58a60e1efdc3e357ca6"
                            },
                            {
                                "name": "_amountGive",
                                "type": "uint256",
                                "value": "222"
                            },
                            {
                                "name": "_expires",
                                "type": "uint256",
                                "value": "8,103,234"
                            },
                            {
                                "name": "_nonce",
                                "type": "uint256",
                                "value": "2,750,771,288"
                            },
                            {
                                "name": "_user",
                                "type": "address",
                                "value": "0x95c1ba678e682d0c29b6a2d589570bd1b8221072"
                            },
                            {
                                "name": "_v",
                                "type": "uint8",
                                "value": "28"
                            },
                            {
                                "name": "_r",
                                "type": "bytes32",
                                "value": "0xd3f6bac657d7a963546cc9df059705da3ed69a7abbce990dccb4f9866e44477f"
                            },
                            {
                                "name": "_s",
                                "type": "bytes32",
                                "value": "0x1dfb5200f7435cb39886257a96c9981c6ae166d0c5c4ac13849ae3ad2f8a2bec"
                            },
                            {
                                "name": "_amount",
                                "type": "uint256",
                                "value": "166,278,000,000,000,000"
                            }
                        ],
                        "constructorArguments": "",
                        "name": "trade",
                        "returnParams": [],
                        "signature": "trade(address,uint256,address,uint256,uint256,uint256,address,uint8,bytes32,bytes32,uint256)"
                    },
                    "errorInfo": "",
                    "fromAddress": "0x2abe087c85a216841164baf3caf331f082b4b880",
                    "gasUsed": 96472,
                    "id": 0,
                    "methodDecoded": true,
                    "operation": "CALL",
                    "output": "",
                    "revert": false,
                    "revertMessage": "",
                    "selector": "0x0a19b14a",
                    "status": true,
                    "value": "0"
                },
                "nodeType": 0
            },
            "1": {
                "invocation": {
                    "address": "0x0000000000000000000000000000000000000002",
                    "callData": "0x5139c5ef5a57cc8d814a867ee6ee33d80000000000000000000000000000000000000000000000000000000000000000000000000000000000000000024ebcf5c3f66000c16b542ff490e01fcc0dc58a60e1efdc3e357ca600000000000000000000000000000000000000000000000000000000000000de00000000000000000000000000000000000000000000000000000000007ba54200000000000000000000000000000000000000000000000000000000a3f57058",
                    "decodedMethod": {
                        "callParams": [
                            {
                                "name": "data",
                                "type": "bytes",
                                "value": "0x1ce7ae555139c5ef5a57cc8d814a867ee6ee33d80000000000000000000000000000000000000000000000000000000000000000000000000000000000000000024ebcf5c3f66000c16b542ff490e01fcc0dc58a60e1efdc3e357ca600000000000000000000000000000000000000000000000000000000000000de00000000000000000000000000000000000000000000000000000000007ba54200000000000000000000000000000000000000000000000000000000a3f57058"
                            }
                        ],
                        "constructorArguments": "",
                        "name": "sha256hash",
                        "returnParams": [
                            {
                                "name": "hash",
                                "type": "bytes32",
                                "value": "0x3f16036e4afa9e554bc7caadf18f47353d5a8e533a57285da8b7624b5452aef5"
                            }
                        ],
                        "signature": "sha256hash(bytes)"
                    },
                    "errorInfo": "",
                    "fromAddress": "0x1ce7ae555139c5ef5a57cc8d814a867ee6ee33d8",
                    "gasUsed": 132,
                    "id": 1,
                    "methodDecoded": true,
                    "operation": "CALL",
                    "output": "0x3f16036e4afa9e554bc7caadf18f47353d5a8e533a57285da8b7624b5452aef5",
                    "revert": false,
                    "revertMessage": "",
                    "selector": "0x1ce7ae55",
                    "status": true,
                    "value": "0"
                },
                "nodeType": 0
            },
            "2": {
                "invocation": {
                    "address": "0x0000000000000000000000000000000000000001",
                    "callData": "0x2b6eaa5e3978636b71422ffd9686352b5073ada8760c3aa913250ac0000000000000000000000000000000000000000000000000000000000000001cd3f6bac657d7a963546cc9df059705da3ed69a7abbce990dccb4f9866e44477f1dfb5200f7435cb39886257a96c9981c6ae166d0c5c4ac13849ae3ad2f8a2bec",
                    "decodedMethod": {
                        "callParams": [
                            {
                                "name": "hash",
                                "type": "bytes32",
                                "value": "0xba21196e2b6eaa5e3978636b71422ffd9686352b5073ada8760c3aa913250ac0"
                            },
                            {
                                "name": "v",
                                "type": "uint256",
                                "value": "28"
                            },
                            {
                                "name": "r",
                                "type": "bytes32",
                                "value": "0xd3f6bac657d7a963546cc9df059705da3ed69a7abbce990dccb4f9866e44477f"
                            },
                            {
                                "name": "s",
                                "type": "bytes32",
                                "value": "0x1dfb5200f7435cb39886257a96c9981c6ae166d0c5c4ac13849ae3ad2f8a2bec"
                            }
                        ],
                        "constructorArguments": "",
                        "name": "ecrecover",
                        "returnParams": [
                            {
                                "name": "",
                                "type": "address",
                                "value": "0x95c1ba678e682d0c29b6a2d589570bd1b8221072"
                            }
                        ],
                        "signature": "ecrecover(bytes32,uint256,bytes32,bytes32)"
                    },
                    "errorInfo": "",
                    "fromAddress": "0x1ce7ae555139c5ef5a57cc8d814a867ee6ee33d8",
                    "gasUsed": 3000,
                    "id": 2,
                    "methodDecoded": true,
                    "operation": "CALL",
                    "output": "0x00000000000000000000000095c1ba678e682d0c29b6a2d589570bd1b8221072",
                    "revert": false,
                    "revertMessage": "",
                    "selector": "0xba21196e",
                    "status": true,
                    "value": "0"
                },
                "nodeType": 0
            },
            "3": {
                "invocation": {
                    "address": "0x6927d2026befaad51eb6cf48a0c612453f46ec09",
                    "callData": "0x00000000000000000000000095c1ba678e682d0c29b6a2d589570bd1b82210720000000000000000000000002abe087c85a216841164baf3caf331f082b4b880",
                    "decodedMethod": {
                        "callParams": [
                            {
                                "name": "_maker",
                                "type": "address",
                                "value": "0x95c1ba678e682d0c29b6a2d589570bd1b8221072"
                            },
                            {
                                "name": "_taker",
                                "type": "address",
                                "value": "0x2abe087c85a216841164baf3caf331f082b4b880"
                            }
                        ],
                        "constructorArguments": "",
                        "name": "tradeModifiers",
                        "returnParams": [
                            {
                                "name": "",
                                "type": "uint256",
                                "value": "0"
                            },
                            {
                                "name": "",
                                "type": "uint256",
                                "value": "0"
                            }
                        ],
                        "signature": "tradeModifiers(address,address)"
                    },
                    "errorInfo": "",
                    "fromAddress": "0x1ce7ae555139c5ef5a57cc8d814a867ee6ee33d8",
                    "gasUsed": 2309,
                    "id": 3,
                    "methodDecoded": true,
                    "operation": "CALL",
                    "output": "0x00000000000000000000000000000000000000000000000000000000000000000000000000000000000000000000000000000000000000000000000000000000",
                    "revert": false,
                    "revertMessage": "",
                    "selector": "0xe97fe114",
                    "status": true,
                    "value": "0"
                },
                "nodeType": 0
            },
            "4": {
                "event": {
                    "contract": "0x1ce7ae555139c5ef5a57cc8d814a867ee6ee33d8",
                    "decodedLog": {
                        "name": "Trade",
                        "params": [
                            {
                                "name": "tokenGet",
                                "type": "address",
                                "value": "0x0000000000000000000000000000000000000000"
                            },
                            {
                                "name": "amountGet",
                                "type": "uint256",
                                "value": "166,278,000,000,000,000"
                            },
                            {
                                "name": "tokenGive",
                                "type": "address",
                                "value": "0xc16b542ff490e01fcc0dc58a60e1efdc3e357ca6"
                            },
                            {
                                "name": "amountGive",
                                "type": "uint256",
                                "value": "222"
                            },
                            {
                                "name": "get",
                                "type": "address",
                                "value": "0x95c1ba678e682d0c29b6a2d589570bd1b8221072"
                            },
                            {
                                "name": "give",
                                "type": "address",
                                "value": "0x2abe087c85a216841164baf3caf331f082b4b880"
                            },
                            {
                                "name": "nonce",
                                "type": "uint256",
                                "value": "2,750,771,288"
                            }
                        ],
                        "signature": "Trade(address,uint256,address,uint256,address,address,uint256)"
                    },
                    "id": 4,
                    "logData": "0x0000000000000000000000000000000000000000000000000000000000000000000000000000000000000000000000000000000000000000024ebcf5c3f66000000000000000000000000000c16b542ff490e01fcc0dc58a60e1efdc3e357ca600000000000000000000000000000000000000000000000000000000000000de00000000000000000000000095c1ba678e682d0c29b6a2d589570bd1b82210720000000000000000000000002abe087c85a216841164baf3caf331f082b4b88000000000000000000000000000000000000000000000000000000000a3f57058",
                    "logDecoded": true,
                    "operation": "EVENT",
                    "revert": false,
                    "status": true,
                    "topics": [
                        "0x3314c351c2a2a45771640a1442b843167a4da29bd543612311c031bbfb4ffa98"
                    ]
                },
                "nodeType": 1
            }
        },
        "gasFlame": [
            {
                "children": [
                    {
                        "children": [
                            {
                                "children": [],
                                "depth": 0,
                                "name": "Initial Gas",
                                "value": 30744
                            },
                            {
                                "children": [
                                    {
                                        "children": [],
                                        "depth": 1,
                                        "name": "sha256hash",
                                        "value": 132
                                    },
                                    {
                                        "children": [],
                                        "depth": 1,
                                        "name": "ecrecover",
                                        "value": 3000
                                    },
                                    {
                                        "children": [],
                                        "depth": 1,
                                        "name": "tradeModifiers",
                                        "value": 2309
                                    }
                                ],
                                "depth": 0,
                                "name": "Executed Gas",
                                "value": 65728
                            }
                        ],
                        "depth": -1,
                        "name": "Actual Gas Used",
                        "value": 96472
                    },
                    {
                        "children": [],
                        "depth": -1,
                        "name": "Refunded Gas",
                        "value": 0
                    }
                ],
                "depth": -2,
                "name": "Total Gas",
                "value": 96472
            }
        ],
        "isConfirmed": true,
        "mainTrace": [
            {
                "children": [
                    {
                        "children": [
                            {
                                "children": [],
                                "depth": 1,
                                "id": 1,
                                "order": 1
                            },
                            {
                                "children": [],
                                "depth": 1,
                                "id": 2,
                                "order": 2
                            },
                            {
                                "children": [],
                                "depth": 1,
                                "id": 3,
                                "order": 3
                            },
                            {
                                "children": [],
                                "depth": 1,
                                "id": 4,
                                "order": 4
                            }
                        ],
                        "depth": 0,
                        "id": 0,
                        "order": 0
                    }
                ],
                "depth": -1,
                "id": -1,
                "order": -1
            }
        ],
        "mainTraceNodeCount": 5,
        "parentIdMap": {
            "0": -1,
            "1": 0,
            "2": 0,
            "3": 0,
            "4": 0
        },
        "tidyTrace": [
            {
                "children": [
                    {
                        "children": [
                            {
                                "children": [],
                                "depth": 1,
                                "id": 1,
                                "order": 1
                            },
                            {
                                "children": [],
                                "depth": 1,
                                "id": 2,
                                "order": 2
                            },
                            {
                                "children": [],
                                "depth": 1,
                                "id": 3,
                                "order": 3
                            },
                            {
                                "children": [],
                                "depth": 1,
                                "id": 4,
                                "order": 4
                            }
                        ],
                        "depth": 0,
                        "id": 0,
                        "order": 0
                    }
                ],
                "depth": -1,
                "id": -1,
                "order": -1
            }
        ],
        "tidyTraceNodeCount": 5
    },
    "state_change": {
        "stateChanges": [
            {
                "address": "0x1ce7ae555139c5ef5a57cc8d814a867ee6ee33d8",
                "erc": "",
                "slots": [
                    {
                        "current": "0x000000000000000000000000000000000000000000000000017ecf2e638b7640",
                        "key": "0x2ecdb8a3f24f055c9fad89d138aa507a8340ca2e07e1dbf0b3595978e480a69c",
                        "prev": "0x00000000000000000000000000000000000000000000000003cf51d3fee10a40"
                    },
                    {
                        "current": "0x000000000000000000000000000000000000000000000000000000000000030a",
                        "key": "0xe5b8cf55c54d6bff69ed87ae2d5b1564a703a81afd6004c76cc453d4543b0124",
                        "prev": "0x00000000000000000000000000000000000000000000000000000000000003e8"
                    },
                    {
                        "current": "0x000000000000000000000000000000000000000000000000000000000000018b",
                        "key": "0xc475db4c3366279022b17c0bccdc5e159f1ca9242760c3c4f5de12ecd798b913",
                        "prev": "0x00000000000000000000000000000000000000000000000000000000000000ad"
                    },
                    {
                        "current": "0x0000000000000000000000000000000000000000000000003918f004c10f91c8",
                        "key": "0xe96df828e78d08e878a69db23de4b374a9584e3553ee165a51012f75c42e3f9e",
                        "prev": "0x00000000000000000000000000000000000000000000000039172a54e9b05dc8"
                    },
                    {
                        "current": "0x000000000000000000000000000000000000000000000000024ebcf5c3f66000",
                        "key": "0x511aca11c104149d1194cd47daa53a72f98a8f583b6c8ae93ad2189da705669d",
                        "prev": "0x0000000000000000000000000000000000000000000000000000000000000000"
                    },
                    {
                        "current": "0x000000000000000000000000000000000000000000000000024f011b5715f800",
                        "key": "0xb9cf4a39fd45e7ff23903e3d885c72a904dd0ae75dff3e0e643a08c01718199c",
                        "prev": "0x00000000000000000000000000000000000000000000000000004425931f9800"
                    }
                ],
                "storageVariables": [
                    {
                        "name": "tokens",
                        "type": "mapping(address => mapping(address => uint256))",
                        "value": {
                            "pairs": [
                                {
                                    "key": "0x0000000000000000000000000000000000000000",
                                    "value": {
                                        "pairs": [
                                            {
                                                "key": "0x2abe087c85a216841164baf3caf331f082b4b880",
                                                "value": {
                                                    "current": "107751239249000000",
                                                    "prev": "274528073249000000",
                                                    "typeTag": 1
                                                }
                                            },
                                            {
                                                "key": "0x95c1ba678e682d0c29b6a2d589570bd1b8221072",
                                                "value": {
                                                    "current": "166352928172800000",
                                                    "prev": "74928172800000",
                                                    "typeTag": 1
                                                }
                                            },
                                            {
                                                "key": "0xe46e4d7fbb6dfc20ca01939bc5d9390b040239ed",
                                                "value": {
                                                    "current": "4114302162812506568",
                                                    "prev": "4113803328812506568",
                                                    "typeTag": 1
                                                }
                                            }
                                        ],
                                        "typeTag": 4
                                    }
                                },
                                {
                                    "key": "0xc16b542ff490e01fcc0dc58a60e1efdc3e357ca6",
                                    "value": {
                                        "pairs": [
                                            {
                                                "key": "0x2abe087c85a216841164baf3caf331f082b4b880",
                                                "value": {
                                                    "current": "395",
                                                    "prev": "173",
                                                    "typeTag": 1
                                                }
                                            },
                                            {
                                                "key": "0x95c1ba678e682d0c29b6a2d589570bd1b8221072",
                                                "value": {
                                                    "current": "778",
                                                    "prev": "1000",
                                                    "typeTag": 1
                                                }
                                            }
                                        ],
                                        "typeTag": 4
                                    }
                                }
                            ],
                            "typeTag": 4
                        }
                    },
                    {
                        "name": "orderFills",
                        "type": "mapping(address => mapping(bytes32 => uint256))",
                        "value": {
                            "pairs": [
                                {
                                    "key": "0x95c1ba678e682d0c29b6a2d589570bd1b8221072",
                                    "value": {
                                        "pairs": [
                                            {
                                                "key": "0x3f16036e4afa9e554bc7caadf18f47353d5a8e533a57285da8b7624b5452aef5",
                                                "value": {
                                                    "current": "166278000000000000",
                                                    "prev": "0",
                                                    "typeTag": 1
                                                }
                                            }
                                        ],
                                        "typeTag": 4
                                    }
                                }
                            ],
                            "typeTag": 4
                        }
                    }
                ]
            }
        ]
    }
}