{
    "balance_change": {
        "balanceChanges": [
            {
                "account": "0x9169e25996057e9221772941342fb3093972bb60",
                "assets": [
                    {
                        "address": "0x37236cd05b34cc79d3715af2383e96dd7443dcf1",
                        "amount": "200",
                        "iconUrl": "",
                        "isERC1155": false,
                        "isERC721": false,
                        "sign": false,
                        "value": "18.47555473"
                    },
                    {
                        "address": "0xf5b0a3efb8e8e4c201e2a935f110eaaf3ffecb8d",
                        "amount": "260,568",
                        "iconUrl": "",
                        "isERC1155": false,
                        "isERC721": false,
                        "sign": true,
                        "value": ""
                    },
                    {
                        "address": "0xeeeeeeeeeeeeeeeeeeeeeeeeeeeeeeeeeeeeeeee",
                        "amount": "0.005",
                        "iconUrl": "https://assets.blocksec.com/image/1663669189317-3.png",
                        "isERC1155": false,
                        "isERC721": false,
                        "sign": false,
                        "value": "7.4511755849999997277"
                    }
                ]
            },
            {
                "account": "0x0000000000000000000000000000000000000000",
                "assets": [
                    {
                        "address": "0x37236cd05b34cc79d3715af2383e96dd7443dcf1",
                        "amount": "200",
                        "iconUrl": "",
                        "isERC1155": false,
                        "isERC721": false,
                        "sign": true,
                        "value": "18.47555473"
                    },
                    {
                        "address": "0xf5b0a3efb8e8e4c201e2a935f110eaaf3ffecb8d",
                        "amount": "260,568",
                        "iconUrl": "",
                        "isERC1155": false,
                        "isERC721": false,
                        "sign": false,
                        "value": ""
                    }
                ]
            },
            {
                "account": "0x01aac5236ad205ebbe4f6819bc64ef5bef40b71c",
                "assets": [
                    {
                        "address": "0xeeeeeeeeeeeeeeeeeeeeeeeeeeeeeeeeeeeeeeee",
                        "amount": "0.005",
                        "iconUrl": "https://assets.blocksec.com/image/1663669189317-3.png",
                        "isERC1155": false,
                        "isERC721": false,
                        "sign": true,
                        "value": "7.4511755849999997277"
                    }
                ]
            }
        ]
    },
    "profile": {
        "basic_info": {
            "baseFee": "",
            "blockNumber": 12126095,
            "callData": "0xf5e5406300000000000000000000000001aac5236ad205ebbe4f6819bc64ef5bef40b71c000000000000000000000000000000000000000000000000000000003b9aca0000000000000000000000000000000000000000000000000000000000000000600000000000000000000000000000000000000000000000000000000000000060000000000000000000000000000000000000000000000000000000000003d08c000000000000000000000000000000000000000000000000000000000003e2640000000000000000000000000000000000000000000000000000000000000000",
            "debugEnable": true,
            "errorInfo": "",
            "eventCount": 4,
            "feeRecipient": "0x00192fb10df37c9fb26829eb2cc623cd1bf599e8",
            "formatValue": "0.005",
            "gasLimit": 531011,
            "gasPrice": "86.1",
            "gasUsed": 468658,
            "intTxnCount": 25,
            "internalRevert": false,
            "internalRevertMessage": "",
            "isContractCreation": false,
            "isFlashloan": false,
            "maxFee": "",
            "nonce": 4668,
            "overwritedBlockNumber": -1,
            "priorityFee": "",
            "receiver": "0x37236cd05b34cc79d3715af2383e96dd7443dcf1",
            "revertMessage": "",
            "sender": "0x9169e25996057e9221772941342fb3093972bb60",
            "simulationEnable": true,
            "sourceTxnHash": "0xac6b9b1cddf3c853c0d3c736da5e2ac2f59fbc6a10a6e2f81c2f27e725a8f1fc",
            "status": true,
            "timestamp": "2021-03-28T06:52:25Z",
            "transactionFee": "0.0403514538",
            "txnHash": "0xac6b9b1cddf3c853c0d3c736da5e2ac2f59fbc6a10a6e2f81c2f27e725a8f1fc",
            "txnIndex": 123,
            "type": 0,
            "value": "5000000000000000"
        },
        "fund_flow": [
            {
                "amount": "0.005",
                "from": "0x9169e25996057e9221772941342fb3093972bb60",
                "id": 1,
                "isERC1155": false,
                "isERC721": false,
                "isReverted": false,
                "order": 1,
                "to": "0x37236cd05b34cc79d3715af2383e96dd7443dcf1",
                "token": "0xeeeeeeeeeeeeeeeeeeeeeeeeeeeeeeeeeeeeeeee"
            },
            {
                "amount": "0.005",
                "from": "0x37236cd05b34cc79d3715af2383e96dd7443dcf1",
                "id": 2,
                "isERC1155": false,
                "isERC721": false,
                "isReverted": false,
                "order": 2,
                "to": "0x01aac5236ad205ebbe4f6819bc64ef5bef40b71c",
                "token": "0xeeeeeeeeeeeeeeeeeeeeeeeeeeeeeeeeeeeeeeee"
            },
            {
                "amount": "200",
                "from": "0x9169e25996057e9221772941342fb3093972bb60",
                "id": 3,
                "isERC1155": false,
                "isERC721": false,
                "isReverted": false,
                "order": 3,
                "to": "0x0000000000000000000000000000000000000000",
                "token": "0x37236cd05b34cc79d3715af2383e96dd7443dcf1"
            },
            {
                "amount": "260,568",
                "from": "0x0000000000000000000000000000000000000000",
                "id": 4,
                "isERC1155": false,
                "isERC721": false,
                "isReverted": false,
                "order": 4,
                "to": "0x9169e25996057e9221772941342fb3093972bb60",
                "token": "0xf5b0a3efb8e8e4c201e2a935f110eaaf3ffecb8d"
            }
        ],
        "token_infos": [
            {
                "address": "0x37236cd05b34cc79d3715af2383e96dd7443dcf1",
                "decimals": 0
            },
            {
                "address": "0xc02aaa39b223fe8d0a0e5c4f27ead9083c756cc2",
                "decimals": 18
            },
            {
                "address": "0xf5b0a3efb8e8e4c201e2a935f110eaaf3ffecb8d",
                "decimals": -1
            },
            {
                "address": "0xeeeeeeeeeeeeeeeeeeeeeeeeeeeeeeeeeeeeeeee",
                "decimals": 18
            }
        ]
    },
    "address_label": {
        "labels": [
            {
                "address": "0xeeeeeeeeeeeeeeeeeeeeeeeeeeeeeeeeeeeeeeee",
                "label": "Ether"
            },
            {
                "address": "0xf5b0a3efb8e8e4c201e2a935f110eaaf3ffecb8d",
                "label": "Axie Infinity: AXIE Token"
            },
            {
                "address": "0x37236cd05b34cc79d3715af2383e96dd7443dcf1",
                "label": "Small Love Potion: Old SLP Token"
            },
            {
                "address": "0x01aac5236ad205ebbe4f6819bc64ef5bef40b71c",
                "label": "Axie Infinity: Breeding Contract #1"
            },
            {
                "address": "0x0000000000000000000000000000000000000001",
                "label": "Precompiled"
            },
            {
                "address": "0x0000000000000000000000000000000000000002",
                "label": "Precompiled"
            },
            {
                "address": "0x0000000000000000000000000000000000000003",
                "label": "Precompiled"
            },
            {
                "address": "0x0000000000000000000000000000000000000004",
                "label": "Precompiled"
            }
        ]
    },
    "trace": {
        "accountLabels": null,
        "dataMap": {
            "-1": {
                "invocation": {
                    "address": "0x9169e25996057e9221772941342fb3093972bb60",
                    "callData": "",
                    "decodedMethod": null,
                    "errorInfo": "",
                    "fromAddress": "",
                    "gasUsed": 0,
                    "id": -1,
                    "methodDecoded": false,
                    "operation": "",
                    "output": "",
                    "revert": false,
                    "revertMessage": "",
                    "selector": "",
                    "status": false,
                    "value": ""
                },
                "nodeType": 0
            },
            "0": {
                "invocation": {
                    "address": "0x37236cd05b34cc79d3715af2383e96dd7443dcf1",
                    "callData": "0x00000000000000000000000001aac5236ad205ebbe4f6819bc64ef5bef40b71c000000000000000000000000000000000000000000000000000000003b9aca0000000000000000000000000000000000000000000000000000000000000000600000000000000000000000000000000000000000000000000000000000000060000000000000000000000000000000000000000000000000000000000003d08c000000000000000000000000000000000000000000000000000000000003e2640000000000000000000000000000000000000000000000000000000000000000",
                    "decodedMethod": null,
                    "errorInfo": "",
                    "fromAddress": "0x9169e25996057e9221772941342fb3093972bb60",
                    "gasUsed": 468658,
                    "id": 0,
                    "methodDecoded": false,
                    "operation": "CALL",
                    "output": "0x0000000000000000000000000000000000000000000000000000000000000001",
                    "revert": false,
                    "revertMessage": "",
                    "selector": "0xf5e54063",
                    "status": true,
                    "value": "0.005"
                },
                "nodeType": 0
            },
            "1": {
                "event": {
                    "contract": "0x37236cd05b34cc79d3715af2383e96dd7443dcf1",
                    "decodedLog": {
                        "name": "Approval",
                        "params": [
                            {
                                "name": "owner",
                                "type": "address",
                                "value": "0x9169e25996057e9221772941342fb3093972bb60"
                            },
                            {
                                "name": "spender",
                                "type": "address",
                                "value": "0x01aac5236ad205ebbe4f6819bc64ef5bef40b71c"
                            },
                            {
                                "decimalAvailable": true,
                                "name": "value",
                                "type": "uint256",
                                "value": "1,000,000,000"
                            }
                        ],
                        "signature": "Approval(address,address,uint256)"
                    },
                    "id": 1,
                    "logData": "0x000000000000000000000000000000000000000000000000000000003b9aca00",
                    "logDecoded": true,
                    "operation": "EVENT",
                    "revert": false,
                    "status": true,
                    "topics": [
                        "0x8c5be1e5ebec7d5bd14f71427d1e84f3dd0314c0f7b2291e5b200ac8c7c3b925",
                        "0x0000000000000000000000009169e25996057e9221772941342fb3093972bb60",
                        "0x00000000000000000000000001aac5236ad205ebbe4f6819bc64ef5bef40b71c"
                    ]
                },
                "nodeType": 1
            },
            "10": {
                "invocation": {
                    "address": "0x10e304a53351b272dc415ad049ad06565ebdfe34",
                    "callData": "0x000000000000000000000000000000000000000000000000000000000003d08c000000000000000000000000000000000000000000000000000000000003e264",
                    "decodedMethod": null,
                    "errorInfo": "",
                    "fromAddress": "0x01aac5236ad205ebbe4f6819bc64ef5bef40b71c",
                    "gasUsed": 12319,
                    "id": 10,
                    "methodDecoded": false,
                    "operation": "CALL",
                    "output": "0x0000000000000000000000000000000000000000000000000000000000000001",
                    "revert": false,
                    "revertMessage": "",
                    "selector": "0x7d831dd4",
                    "status": true,
                    "value": "0"
                },
                "nodeType": 0
            },
            "11": {
                "invocation": {
                    "address": "0x10e304a53351b272dc415ad049ad06565ebdfe34",
                    "callData": "0x000000000000000000000000000000000000000000000000000000000003d08c",
                    "decodedMethod": {
                        "callParams": [
                            {
                                "name": "balance",
                                "type": "uint256",
                                "value": "249,996"
                            }
                        ],
                        "constructorArguments": "",
                        "name": "getExtra",
                        "returnParams": [
                            {
                                "name": "",
                                "type": "uint8",
                                "value": "84"
                            }
                        ],
                        "signature": "getExtra(uint256)"
                    },
                    "errorInfo": "",
                    "fromAddress": "0x01aac5236ad205ebbe4f6819bc64ef5bef40b71c",
                    "gasUsed": 4026,
                    "id": 11,
                    "methodDecoded": true,
                    "operation": "CALL",
                    "output": "0x000000000000000000000000000000000000000000000000000000000003b954000000000000000000000000000000000000000000000000000000000003b9d900000000000000000000000000000000000000000000000000000000000000000000000000000000000000000000000000000000000000000000000000000000",
                    "revert": false,
                    "revertMessage": "",
                    "selector": "0x893bb0bf",
                    "status": true,
                    "value": "0"
                },
                "nodeType": 0
            },
            "12": {
                "invocation": {
                    "address": "0x10e304a53351b272dc415ad049ad06565ebdfe34",
                    "callData": "0x000000000000000000000000000000000000000000000000000000000003d08c0000000000000000000000000000000000000000000000000000000000000001",
                    "decodedMethod": null,
                    "errorInfo": "",
                    "fromAddress": "0x01aac5236ad205ebbe4f6819bc64ef5bef40b71c",
                    "gasUsed": 29619,
                    "id": 12,
                    "methodDecoded": false,
                    "operation": "CALL",
                    "output": "",
                    "revert": false,
                    "revertMessage": "",
                    "selector": "0xcace40be",
                    "status": true,
                    "value": "0"
                },
                "nodeType": 0
            },
            "13": {
                "invocation": {
                    "address": "0x26c89cf33b8473ea8e0513e17bd674d8fd0bc2cd",
                    "callData": "0x000000000000000000000000000000000000000000000000000000000003d08c00000000000000000000000000000000000000000000000000000000000000010000000000000000000000000000000000000000000000000000000000000000",
                    "decodedMethod": null,
                    "errorInfo": "",
                    "fromAddress": "0x10e304a53351b272dc415ad049ad06565ebdfe34",
                    "gasUsed": 4333,
                    "id": 13,
                    "methodDecoded": false,
                    "operation": "CALL",
                    "output": "0x0000000000000000000000000000000000000000000000000000000000000001",
                    "revert": false,
                    "revertMessage": "",
                    "selector": "0x771c0ad9",
                    "status": true,
                    "value": "0"
                },
                "nodeType": 0
            },
            "14": {
                "invocation": {
                    "address": "0x10e304a53351b272dc415ad049ad06565ebdfe34",
                    "callData": "0x",
                    "decodedMethod": {
                        "callParams": [],
                        "constructorArguments": "",
                        "name": "paused",
                        "returnParams": [
                            {
                                "name": "",
                                "type": "bool",
                                "value": false
                            }
                        ],
                        "signature": "paused()"
                    },
                    "errorInfo": "",
                    "fromAddress": "0x26c89cf33b8473ea8e0513e17bd674d8fd0bc2cd",
                    "gasUsed": 1419,
                    "id": 14,
                    "methodDecoded": true,
                    "operation": "CALL",
                    "output": "0x0000000000000000000000000000000000000000000000000000000000000000",
                    "revert": false,
                    "revertMessage": "",
                    "selector": "0x5c975abb",
                    "status": true,
                    "value": "0"
                },
                "nodeType": 0
            },
            "15": {
                "invocation": {
                    "address": "0x10e304a53351b272dc415ad049ad06565ebdfe34",
                    "callData": "0x000000000000000000000000000000000000000000000000000000000003e264",
                    "decodedMethod": {
                        "callParams": [
                            {
                                "name": "balance",
                                "type": "uint256",
                                "value": "254,564"
                            }
                        ],
                        "constructorArguments": "",
                        "name": "getExtra",
                        "returnParams": [
                            {
                                "name": "",
                                "type": "uint8",
                                "value": "141"
                            }
                        ],
                        "signature": "getExtra(uint256)"
                    },
                    "errorInfo": "",
                    "fromAddress": "0x01aac5236ad205ebbe4f6819bc64ef5bef40b71c",
                    "gasUsed": 4026,
                    "id": 15,
                    "methodDecoded": true,
                    "operation": "CALL",
                    "output": "0x000000000000000000000000000000000000000000000000000000000003d08d000000000000000000000000000000000000000000000000000000000003d08700000000000000000000000000000000000000000000000000000000000000000000000000000000000000000000000000000000000000000000000000000000",
                    "revert": false,
                    "revertMessage": "",
                    "selector": "0x893bb0bf",
                    "status": true,
                    "value": "0"
                },
                "nodeType": 0
            },
            "16": {
                "invocation": {
                    "address": "0x10e304a53351b272dc415ad049ad06565ebdfe34",
                    "callData": "0x000000000000000000000000000000000000000000000000000000000003e2640000000000000000000000000000000000000000000000000000000000000001",
                    "decodedMethod": null,
                    "errorInfo": "",
                    "fromAddress": "0x01aac5236ad205ebbe4f6819bc64ef5bef40b71c",
                    "gasUsed": 29619,
                    "id": 16,
                    "methodDecoded": false,
                    "operation": "CALL",
                    "output": "",
                    "revert": false,
                    "revertMessage": "",
                    "selector": "0xcace40be",
                    "status": true,
                    "value": "0"
                },
                "nodeType": 0
            },
            "17": {
                "invocation": {
                    "address": "0x26c89cf33b8473ea8e0513e17bd674d8fd0bc2cd",
                    "callData": "0x000000000000000000000000000000000000000000000000000000000003e26400000000000000000000000000000000000000000000000000000000000000010000000000000000000000000000000000000000000000000000000000000000",
                    "decodedMethod": null,
                    "errorInfo": "",
                    "fromAddress": "0x10e304a53351b272dc415ad049ad06565ebdfe34",
                    "gasUsed": 4333,
                    "id": 17,
                    "methodDecoded": false,
                    "operation": "CALL",
                    "output": "0x0000000000000000000000000000000000000000000000000000000000000001",
                    "revert": false,
                    "revertMessage": "",
                    "selector": "0x771c0ad9",
                    "status": true,
                    "value": "0"
                },
                "nodeType": 0
            },
            "18": {
                "invocation": {
                    "address": "0x10e304a53351b272dc415ad049ad06565ebdfe34",
                    "callData": "0x",
                    "decodedMethod": {
                        "callParams": [],
                        "constructorArguments": "",
                        "name": "paused",
                        "returnParams": [
                            {
                                "name": "",
                                "type": "bool",
                                "value": false
                            }
                        ],
                        "signature": "paused()"
                    },
                    "errorInfo": "",
                    "fromAddress": "0x26c89cf33b8473ea8e0513e17bd674d8fd0bc2cd",
                    "gasUsed": 1419,
                    "id": 18,
                    "methodDecoded": true,
                    "operation": "CALL",
                    "output": "0x0000000000000000000000000000000000000000000000000000000000000000",
                    "revert": false,
                    "revertMessage": "",
                    "selector": "0x5c975abb",
                    "status": true,
                    "value": "0"
                },
                "nodeType": 0
            },
            "19": {
                "invocation": {
                    "address": "0x37236cd05b34cc79d3715af2383e96dd7443dcf1",
                    "callData": "0x0000000000000000000000009169e25996057e9221772941342fb3093972bb6000000000000000000000000000000000000000000000000000000000000000c8",
                    "decodedMethod": {
                        "callParams": [
                            {
                                "name": "account",
                                "type": "address",
                                "value": "0x9169e25996057e9221772941342fb3093972bb60"
                            },
                            {
                                "name": "amount",
                                "type": "uint256",
                                "value": "200"
                            }
                        ],
                        "constructorArguments": "",
                        "name": "burnFrom",
                        "returnParams": [],
                        "signature": "burnFrom(address,uint256)"
                    },
                    "errorInfo": "",
                    "fromAddress": "0x01aac5236ad205ebbe4f6819bc64ef5bef40b71c",
                    "gasUsed": 23261,
                    "id": 19,
                    "methodDecoded": true,
                    "operation": "CALL",
                    "output": "0x0000000000000000000000000000000000000000000000000000000000000001",
                    "revert": false,
                    "revertMessage": "",
                    "selector": "0x79cc6790",
                    "status": true,
                    "value": "0"
                },
                "nodeType": 0
            },
            "2": {
                "invocation": {
                    "address": "0x01aac5236ad205ebbe4f6819bc64ef5bef40b71c",
                    "callData": "0x0000000000000000000000009169e25996057e9221772941342fb3093972bb60000000000000000000000000000000000000000000000000000000003b9aca0000000000000000000000000037236cd05b34cc79d3715af2383e96dd7443dcf100000000000000000000000000000000000000000000000000000000000000800000000000000000000000000000000000000000000000000000000000000060000000000000000000000000000000000000000000000000000000000003d08c000000000000000000000000000000000000000000000000000000000003e2640000000000000000000000000000000000000000000000000000000000000000",
                    "decodedMethod": {
                        "callParams": [
                            {
                                "name": "_from",
                                "type": "address",
                                "value": "0x9169e25996057e9221772941342fb3093972bb60"
                            },
                            {
                                "name": "_value",
                                "type": "uint256",
                                "value": "1,000,000,000"
                            },
                            {
                                "name": "_token",
                                "type": "address",
                                "value": "0x37236cd05b34cc79d3715af2383e96dd7443dcf1"
                            },
                            {
                                "name": "_extraData",
                                "type": "bytes",
                                "value": "0x000000000000000000000000000000000000000000000000000000000003d08c000000000000000000000000000000000000000000000000000000000003e2640000000000000000000000000000000000000000000000000000000000000000"
                            }
                        ],
                        "constructorArguments": "",
                        "name": "receiveApproval",
                        "returnParams": [],
                        "signature": "receiveApproval(address,uint256,address,bytes)"
                    },
                    "errorInfo": "",
                    "fromAddress": "0x37236cd05b34cc79d3715af2383e96dd7443dcf1",
                    "gasUsed": 432925,
                    "id": 2,
                    "methodDecoded": true,
                    "operation": "CALL",
                    "output": "",
                    "revert": false,
                    "revertMessage": "",
                    "selector": "0x8f4ffcb1",
                    "status": true,
                    "value": "0.005"
                },
                "nodeType": 0
            },
            "20": {
                "event": {
                    "contract": "0x37236cd05b34cc79d3715af2383e96dd7443dcf1",
                    "decodedLog": {
                        "name": "Transfer",
                        "params": [
                            {
                                "name": "from",
                                "type": "address",
                                "value": "0x9169e25996057e9221772941342fb3093972bb60"
                            },
                            {
                                "name": "to",
                                "type": "address",
                                "value": "0x0000000000000000000000000000000000000000"
                            },
                            {
                                "decimalAvailable": true,
                                "name": "value",
                                "type": "uint256",
                                "value": "200"
                            }
                        ],
                        "signature": "Transfer(address,address,uint256)"
                    },
                    "id": 20,
                    "logData": "0x00000000000000000000000000000000000000000000000000000000000000c8",
                    "logDecoded": true,
                    "operation": "EVENT",
                    "revert": false,
                    "status": true,
                    "topics": [
                        "0xddf252ad1be2c89b69c2b068fc378daa952ba7f163c4a11628f55a4df523b3ef",
                        "0x0000000000000000000000009169e25996057e9221772941342fb3093972bb60",
                        "0x0000000000000000000000000000000000000000000000000000000000000000"
                    ]
                },
                "nodeType": 1
            },
            "21": {
                "invocation": {
                    "address": "0xf5b0a3efb8e8e4c201e2a935f110eaaf3ffecb8d",
                    "callData": "0x000000000000000000000000000000000000000000000000000000000003e264",
                    "decodedMethod": {
                        "callParams": [
                            {
                                "name": "_tokenId",
                                "type": "uint256",
                                "value": "254,564"
                            }
                        ],
                        "constructorArguments": "",
                        "name": "ownerOf",
                        "returnParams": [
                            {
                                "name": "",
                                "type": "address",
                                "value": "0x9169e25996057e9221772941342fb3093972bb60"
                            }
                        ],
                        "signature": "ownerOf(uint256)"
                    },
                    "errorInfo": "",
                    "fromAddress": "0x01aac5236ad205ebbe4f6819bc64ef5bef40b71c",
                    "gasUsed": 2807,
                    "id": 21,
                    "methodDecoded": true,
                    "operation": "CALL",
                    "output": "0x0000000000000000000000009169e25996057e9221772941342fb3093972bb60",
                    "revert": false,
                    "revertMessage": "",
                    "selector": "0x6352211e",
                    "status": true,
                    "value": "0"
                },
                "nodeType": 0
            },
            "22": {
                "invocation": {
                    "address": "0x10e304a53351b272dc415ad049ad06565ebdfe34",
                    "callData": "0x0000000000000000000000000000000000000000000000000000000000000000000000000000000000000000000000000000000000000000000000000003d08c000000000000000000000000000000000000000000000000000000000003e26400000000000000000000000000000000000000000000000000000000000000000000000000000000000000009169e25996057e9221772941342fb3093972bb60",
                    "decodedMethod": null,
                    "errorInfo": "",
                    "fromAddress": "0x01aac5236ad205ebbe4f6819bc64ef5bef40b71c",
                    "gasUsed": 209859,
                    "id": 22,
                    "methodDecoded": false,
                    "operation": "CALL",
                    "output": "0x000000000000000000000000000000000000000000000000000000000003f9d8",
                    "revert": false,
                    "revertMessage": "",
                    "selector": "0x88de9aab",
                    "status": true,
                    "value": "0"
                },
                "nodeType": 0
            },
            "23": {
                "invocation": {
                    "address": "0x26c89cf33b8473ea8e0513e17bd674d8fd0bc2cd",
                    "callData": "0x00000000000000000000000000000000000000000000000000000000000000000000000000000000000000009169e25996057e9221772941342fb3093972bb60",
                    "decodedMethod": null,
                    "errorInfo": "",
                    "fromAddress": "0x10e304a53351b272dc415ad049ad06565ebdfe34",
                    "gasUsed": 4488,
                    "id": 23,
                    "methodDecoded": false,
                    "operation": "CALL",
                    "output": "0x0000000000000000000000000000000000000000000000000000000000000001",
                    "revert": false,
                    "revertMessage": "",
                    "selector": "0xcbe44458",
                    "status": true,
                    "value": "0"
                },
                "nodeType": 0
            },
            "24": {
                "invocation": {
                    "address": "0x10e304a53351b272dc415ad049ad06565ebdfe34",
                    "callData": "0x",
                    "decodedMethod": {
                        "callParams": [],
                        "constructorArguments": "",
                        "name": "paused",
                        "returnParams": [
                            {
                                "name": "",
                                "type": "bool",
                                "value": false
                            }
                        ],
                        "signature": "paused()"
                    },
                    "errorInfo": "",
                    "fromAddress": "0x26c89cf33b8473ea8e0513e17bd674d8fd0bc2cd",
                    "gasUsed": 1419,
                    "id": 24,
                    "methodDecoded": true,
                    "operation": "CALL",
                    "output": "0x0000000000000000000000000000000000000000000000000000000000000000",
                    "revert": false,
                    "revertMessage": "",
                    "selector": "0x5c975abb",
                    "status": true,
                    "value": "0"
                },
                "nodeType": 0
            },
            "25": {
                "invocation": {
                    "address": "0xf5b0a3efb8e8e4c201e2a935f110eaaf3ffecb8d",
                    "callData": "0x00000000000000000000000000000000000000000000000000000000000000000000000000000000000000009169e25996057e9221772941342fb3093972bb60",
                    "decodedMethod": {
                        "callParams": [
                            {
                                "name": "_genes",
                                "type": "uint256",
                                "value": "0"
                            },
                            {
                                "name": "_owner",
                                "type": "address",
                                "value": "0x9169e25996057e9221772941342fb3093972bb60"
                            }
                        ],
                        "constructorArguments": "",
                        "name": "spawnAxie",
                        "returnParams": [
                            {
                                "name": "",
                                "type": "uint256",
                                "value": "260,568"
                            }
                        ],
                        "signature": "spawnAxie(uint256,address)"
                    },
                    "errorInfo": "",
                    "fromAddress": "0x10e304a53351b272dc415ad049ad06565ebdfe34",
                    "gasUsed": 157690,
                    "id": 25,
                    "methodDecoded": true,
                    "operation": "CALL",
                    "output": "0x000000000000000000000000000000000000000000000000000000000003f9d8",
                    "revert": false,
                    "revertMessage": "",
                    "selector": "0x5dcc6dbc",
                    "status": true,
                    "value": "0"
                },
                "nodeType": 0
            },
            "26": {
                "invocation": {
                    "address": "0xe8bd438d0383cf4d19641eaa4793eddc6cebeaf1",
                    "callData": "0x00000000000000000000000000000000000000000000000000000000000000000000000000000000000000009169e25996057e9221772941342fb3093972bb60",
                    "decodedMethod": {
                        "callParams": [
                            {
                                "name": "",
                                "type": "uint256",
                                "value": "0"
                            },
                            {
                                "name": "",
                                "type": "address",
                                "value": "0x9169e25996057e9221772941342fb3093972bb60"
                            }
                        ],
                        "constructorArguments": "",
                        "name": "isSpawningAllowed",
                        "returnParams": [
                            {
                                "name": "",
                                "type": "bool",
                                "value": true
                            }
                        ],
                        "signature": "isSpawningAllowed(uint256,address)"
                    },
                    "errorInfo": "",
                    "fromAddress": "0xf5b0a3efb8e8e4c201e2a935f110eaaf3ffecb8d",
                    "gasUsed": 4499,
                    "id": 26,
                    "methodDecoded": true,
                    "operation": "CALL",
                    "output": "0x0000000000000000000000000000000000000000000000000000000000000001",
                    "revert": false,
                    "revertMessage": "",
                    "selector": "0x0e972421",
                    "status": true,
                    "value": "0"
                },
                "nodeType": 0
            },
            "27": {
                "invocation": {
                    "address": "0xf5b0a3efb8e8e4c201e2a935f110eaaf3ffecb8d",
                    "callData": "0x",
                    "decodedMethod": {
                        "callParams": [],
                        "constructorArguments": "",
                        "name": "paused",
                        "returnParams": [
                            {
                                "name": "",
                                "type": "bool",
                                "value": false
                            }
                        ],
                        "signature": "paused()"
                    },
                    "errorInfo": "",
                    "fromAddress": "0xe8bd438d0383cf4d19641eaa4793eddc6cebeaf1",
                    "gasUsed": 1628,
                    "id": 27,
                    "methodDecoded": true,
                    "operation": "CALL",
                    "output": "0x0000000000000000000000000000000000000000000000000000000000000000",
                    "revert": false,
                    "revertMessage": "",
                    "selector": "0x5c975abb",
                    "status": true,
                    "value": "0"
                },
                "nodeType": 0
            },
            "28": {
                "event": {
                    "contract": "0xf5b0a3efb8e8e4c201e2a935f110eaaf3ffecb8d",
                    "decodedLog": {
                        "name": "Transfer",
                        "params": [
                            {
                                "name": "_from",
                                "type": "address",
                                "value": "0x0000000000000000000000000000000000000000"
                            },
                            {
                                "name": "_to",
                                "type": "address",
                                "value": "0x9169e25996057e9221772941342fb3093972bb60"
                            },
                            {
                                "decimalAvailable": true,
                                "name": "_tokenId",
                                "type": "uint256",
                                "value": "260,568"
                            }
                        ],
                        "signature": "Transfer(address,address,uint256)"
                    },
                    "id": 28,
                    "logData": "0x000000000000000000000000000000000000000000000000000000000003f9d8",
                    "logDecoded": true,
                    "operation": "EVENT",
                    "revert": false,
                    "status": true,
                    "topics": [
                        "0xddf252ad1be2c89b69c2b068fc378daa952ba7f163c4a11628f55a4df523b3ef",
                        "0x0000000000000000000000000000000000000000000000000000000000000000",
                        "0x0000000000000000000000009169e25996057e9221772941342fb3093972bb60"
                    ]
                },
                "nodeType": 1
            },
            "29": {
                "event": {
                    "contract": "0xf5b0a3efb8e8e4c201e2a935f110eaaf3ffecb8d",
                    "decodedLog": {
                        "name": "AxieSpawned",
                        "params": [
                            {
                                "name": "_axieId",
                                "type": "uint256",
                                "value": "260,568"
                            },
                            {
                                "name": "_owner",
                                "type": "address",
                                "value": "0x9169e25996057e9221772941342fb3093972bb60"
                            },
                            {
                                "name": "_genes",
                                "type": "uint256",
                                "value": "0"
                            }
                        ],
                        "signature": "AxieSpawned(uint256,address,uint256)"
                    },
                    "id": 29,
                    "logData": "0x0000000000000000000000000000000000000000000000000000000000000000",
                    "logDecoded": true,
                    "operation": "EVENT",
                    "revert": false,
                    "status": true,
                    "topics": [
                        "0x0aa75ef3ef0b2c4f092828edf4e4ded5a223d08350535710b957679883ff3a3c",
                        "0x000000000000000000000000000000000000000000000000000000000003f9d8",
                        "0x0000000000000000000000009169e25996057e9221772941342fb3093972bb60"
                    ]
                },
                "nodeType": 1
            },
            "3": {
                "invocation": {
                    "address": "0xa4787fdb16efd4d0f9967001c207f7a6e281b686",
                    "callData": "0x000000000000000000000000000000000000000000000000000000000003d08c000000000000000000000000000000000000000000000000000000000003e2640000000000000000000000000000000000000000000000000000000000000000",
                    "decodedMethod": null,
                    "errorInfo": "",
                    "fromAddress": "0x01aac5236ad205ebbe4f6819bc64ef5bef40b71c",
                    "gasUsed": 14562,
                    "id": 3,
                    "methodDecoded": false,
                    "operation": "CALL",
                    "output": "0x0000000000000000000000000000000000000000000000000000000000000001",
                    "revert": false,
                    "revertMessage": "",
                    "selector": "0x6ae17ab7",
                    "status": true,
                    "value": "0"
                },
                "nodeType": 0
            },
            "4": {
                "invocation": {
                    "address": "0xf5b0a3efb8e8e4c201e2a935f110eaaf3ffecb8d",
                    "callData": "0x000000000000000000000000000000000000000000000000000000000003d08c",
                    "decodedMethod": {
                        "callParams": [
                            {
                                "name": "_axieId",
                                "type": "uint256",
                                "value": "249,996"
                            }
                        ],
                        "constructorArguments": "",
                        "name": "getAxie",
                        "returnParams": [
                            {
                                "name": "",
                                "type": "uint256",
                                "value": "21,711,016,732,314,605,555,530,622,462,295,476,079,105,830,436,568,520,767,801,350,856,997,435,803,842"
                            },
                            {
                                "name": "",
                                "type": "uint256",
                                "value": "1,615,176,870"
                            }
                        ],
                        "signature": "getAxie(uint256)"
                    },
                    "errorInfo": "",
                    "fromAddress": "0xa4787fdb16efd4d0f9967001c207f7a6e281b686",
                    "gasUsed": 4683,
                    "id": 4,
                    "methodDecoded": true,
                    "operation": "CALL",
                    "output": "0x30000000030493320c4120c40c2308c20c8329420c4328ca0cc330cc146308c2000000000000000000000000000000000000000000000000000000006045a4a6",
                    "revert": false,
                    "revertMessage": "",
                    "selector": "0xa6472906",
                    "status": true,
                    "value": "0"
                },
                "nodeType": 0
            },
            "5": {
                "invocation": {
                    "address": "0xf5b0a3efb8e8e4c201e2a935f110eaaf3ffecb8d",
                    "callData": "0x000000000000000000000000000000000000000000000000000000000003e264",
                    "decodedMethod": {
                        "callParams": [
                            {
                                "name": "_axieId",
                                "type": "uint256",
                                "value": "254,564"
                            }
                        ],
                        "constructorArguments": "",
                        "name": "getAxie",
                        "returnParams": [
                            {
                                "name": "",
                                "type": "uint256",
                                "value": "25,329,519,520,786,566,836,012,946,164,772,380,479,849,809,159,176,129,042,940,010,027,982,013,008,066"
                            },
                            {
                                "name": "",
                                "type": "uint256",
                                "value": "1,616,276,572"
                            }
                        ],
                        "signature": "getAxie(uint256)"
                    },
                    "errorInfo": "",
                    "fromAddress": "0xa4787fdb16efd4d0f9967001c207f7a6e281b686",
                    "gasUsed": 4683,
                    "id": 5,
                    "methodDecoded": true,
                    "operation": "CALL",
                    "output": "0x38000000012c93040c8308c20c23090a10c328c40c6328ca0cc330cc0c2308c20000000000000000000000000000000000000000000000000000000060566c5c",
                    "revert": false,
                    "revertMessage": "",
                    "selector": "0xa6472906",
                    "status": true,
                    "value": "0"
                },
                "nodeType": 0
            },
            "6": {
                "invocation": {
                    "address": "0xf5b0a3efb8e8e4c201e2a935f110eaaf3ffecb8d",
                    "callData": "0x000000000000000000000000000000000000000000000000000000000003d08c",
                    "decodedMethod": {
                        "callParams": [
                            {
                                "name": "_tokenId",
                                "type": "uint256",
                                "value": "249,996"
                            }
                        ],
                        "constructorArguments": "",
                        "name": "ownerOf",
                        "returnParams": [
                            {
                                "name": "",
                                "type": "address",
                                "value": "0x9169e25996057e9221772941342fb3093972bb60"
                            }
                        ],
                        "signature": "ownerOf(uint256)"
                    },
                    "errorInfo": "",
                    "fromAddress": "0x01aac5236ad205ebbe4f6819bc64ef5bef40b71c",
                    "gasUsed": 2807,
                    "id": 6,
                    "methodDecoded": true,
                    "operation": "CALL",
                    "output": "0x0000000000000000000000009169e25996057e9221772941342fb3093972bb60",
                    "revert": false,
                    "revertMessage": "",
                    "selector": "0x6352211e",
                    "status": true,
                    "value": "0"
                },
                "nodeType": 0
            },
            "7": {
                "invocation": {
                    "address": "0xf5b0a3efb8e8e4c201e2a935f110eaaf3ffecb8d",
                    "callData": "0x000000000000000000000000000000000000000000000000000000000003e264",
                    "decodedMethod": {
                        "callParams": [
                            {
                                "name": "_tokenId",
                                "type": "uint256",
                                "value": "254,564"
                            }
                        ],
                        "constructorArguments": "",
                        "name": "ownerOf",
                        "returnParams": [
                            {
                                "name": "",
                                "type": "address",
                                "value": "0x9169e25996057e9221772941342fb3093972bb60"
                            }
                        ],
                        "signature": "ownerOf(uint256)"
                    },
                    "errorInfo": "",
                    "fromAddress": "0x01aac5236ad205ebbe4f6819bc64ef5bef40b71c",
                    "gasUsed": 2807,
                    "id": 7,
                    "methodDecoded": true,
                    "operation": "CALL",
                    "output": "0x0000000000000000000000009169e25996057e9221772941342fb3093972bb60",
                    "revert": false,
                    "revertMessage": "",
                    "selector": "0x6352211e",
                    "status": true,
                    "value": "0"
                },
                "nodeType": 0
            },
            "8": {
                "invocation": {
                    "address": "0xf5b0a3efb8e8e4c201e2a935f110eaaf3ffecb8d",
                    "callData": "0x000000000000000000000000000000000000000000000000000000000003d08c",
                    "decodedMethod": {
                        "callParams": [
                            {
                                "name": "_axieId",
                                "type": "uint256",
                                "value": "249,996"
                            }
                        ],
                        "constructorArguments": "",
                        "name": "getAxie",
                        "returnParams": [
                            {
                                "name": "",
                                "type": "uint256",
                                "value": "21,711,016,732,314,605,555,530,622,462,295,476,079,105,830,436,568,520,767,801,350,856,997,435,803,842"
                            },
                            {
                                "name": "",
                                "type": "uint256",
                                "value": "1,615,176,870"
                            }
                        ],
                        "signature": "getAxie(uint256)"
                    },
                    "errorInfo": "",
                    "fromAddress": "0x01aac5236ad205ebbe4f6819bc64ef5bef40b71c",
                    "gasUsed": 4683,
                    "id": 8,
                    "methodDecoded": true,
                    "operation": "CALL",
                    "output": "0x30000000030493320c4120c40c2308c20c8329420c4328ca0cc330cc146308c2000000000000000000000000000000000000000000000000000000006045a4a6",
                    "revert": false,
                    "revertMessage": "",
                    "selector": "0xa6472906",
                    "status": true,
                    "value": "0"
                },
                "nodeType": 0
            },
            "9": {
                "invocation": {
                    "address": "0xf5b0a3efb8e8e4c201e2a935f110eaaf3ffecb8d",
                    "callData": "0x000000000000000000000000000000000000000000000000000000000003e264",
                    "decodedMethod": {
                        "callParams": [
                            {
                                "name": "_axieId",
                                "type": "uint256",
                                "value": "254,564"
                            }
                        ],
                        "constructorArguments": "",
                        "name": "getAxie",
                        "returnParams": [
                            {
                                "name": "",
                                "type": "uint256",
                                "value": "25,329,519,520,786,566,836,012,946,164,772,380,479,849,809,159,176,129,042,940,010,027,982,013,008,066"
                            },
                            {
                                "name": "",
                                "type": "uint256",
                                "value": "1,616,276,572"
                            }
                        ],
                        "signature": "getAxie(uint256)"
                    },
                    "errorInfo": "",
                    "fromAddress": "0x01aac5236ad205ebbe4f6819bc64ef5bef40b71c",
                    "gasUsed": 4683,
                    "id": 9,
                    "methodDecoded": true,
                    "operation": "CALL",
                    "output": "0x38000000012c93040c8308c20c23090a10c328c40c6328ca0cc330cc0c2308c20000000000000000000000000000000000000000000000000000000060566c5c",
                    "revert": false,
                    "revertMessage": "",
                    "selector": "0xa6472906",
                    "status": true,
                    "value": "0"
                },
                "nodeType": 0
            }
        },
        "gasFlame": [
            {
                "children": [
                    {
                        "children": [
                            {
                                "children": [],
                                "depth": 0,
                                "name": "Initial Gas",
                                "value": 22332
                            },
                            {
                                "children": [
                                    {
                                        "children": [
                                            {
                                                "children": [
                                                    {
                                                        "children": [],
                                                        "depth": 3,
                                                        "name": "getAxie",
                                                        "value": 4683
                                                    },
                                                    {
                                                        "children": [],
                                                        "depth": 3,
                                                        "name": "getAxie",
                                                        "value": 4683
                                                    }
                                                ],
                                                "depth": 2,
                                                "name": "0x6ae17ab7",
                                                "value": 14562
                                            },
                                            {
                                                "children": [],
                                                "depth": 2,
                                                "name": "ownerOf",
                                                "value": 2807
                                            },
                                            {
                                                "children": [],
                                                "depth": 2,
                                                "name": "ownerOf",
                                                "value": 2807
                                            },
                                            {
                                                "children": [],
                                                "depth": 2,
                                                "name": "getAxie",
                                                "value": 4683
                                            },
                                            {
                                                "children": [],
                                                "depth": 2,
                                                "name": "getAxie",
                                                "value": 4683
                                            },
                                            {
                                                "children": [],
                                                "depth": 2,
                                                "name": "0x7d831dd4",
                                                "value": 12319
                                            },
                                            {
                                                "children": [],
                                                "depth": 2,
                                                "name": "getExtra",
                                                "value": 4026
                                            },
                                            {
                                                "children": [
                                                    {
                                                        "children": [
                                                            {
                                                                "children": [],
                                                                "depth": 4,
                                                                "name": "paused",
                                                                "value": 1419
                                                            }
                                                        ],
                                                        "depth": 3,
                                                        "name": "0x771c0ad9",
                                                        "value": 4333
                                                    }
                                                ],
                                                "depth": 2,
                                                "name": "0xcace40be",
                                                "value": 29619
                                            },
                                            {
                                                "children": [],
                                                "depth": 2,
                                                "name": "getExtra",
                                                "value": 4026
                                            },
                                            {
                                                "children": [
                                                    {
                                                        "children": [
                                                            {
                                                                "children": [],
                                                                "depth": 4,
                                                                "name": "paused",
                                                                "value": 1419
                                                            }
                                                        ],
                                                        "depth": 3,
                                                        "name": "0x771c0ad9",
                                                        "value": 4333
                                                    }
                                                ],
                                                "depth": 2,
                                                "name": "0xcace40be",
                                                "value": 29619
                                            },
                                            {
                                                "children": [],
                                                "depth": 2,
                                                "name": "burnFrom",
                                                "value": 23261
                                            },
                                            {
                                                "children": [],
                                                "depth": 2,
                                                "name": "ownerOf",
                                                "value": 2807
                                            },
                                            {
                                                "children": [
                                                    {
                                                        "children": [
                                                            {
                                                                "children": [],
                                                                "depth": 4,
                                                                "name": "paused",
                                                                "value": 1419
                                                            }
                                                        ],
                                                        "depth": 3,
                                                        "name": "0xcbe44458",
                                                        "value": 4488
                                                    },
                                                    {
                                                        "children": [
                                                            {
                                                                "children": [
                                                                    {
                                                                        "children": [],
                                                                        "depth": 5,
                                                                        "name": "paused",
                                                                        "value": 1628
                                                                    }
                                                                ],
                                                                "depth": 4,
                                                                "name": "isSpawningAllowed",
                                                                "value": 4499
                                                            }
                                                        ],
                                                        "depth": 3,
                                                        "name": "spawnAxie",
                                                        "value": 157690
                                                    }
                                                ],
                                                "depth": 2,
                                                "name": "0x88de9aab",
                                                "value": 209859
                                            }
                                        ],
                                        "depth": 1,
                                        "name": "receiveApproval",
                                        "value": 432925
                                    }
                                ],
                                "depth": 0,
                                "name": "Executed Gas",
                                "value": 450526
                            }
                        ],
                        "depth": -1,
                        "name": "Actual Gas Used",
                        "value": 468658
                    },
                    {
                        "children": [],
                        "depth": -1,
                        "name": "Refunded Gas",
                        "value": 4200
                    }
                ],
                "depth": -2,
                "name": "Total Gas",
                "value": 472858
            }
        ],
        "isConfirmed": true,
        "mainTrace": [
            {
                "children": [
                    {
                        "children": [
                            {
                                "children": [],
                                "depth": 1,
                                "id": 1,
                                "order": 1
                            },
                            {
                                "children": [
                                    {
                                        "children": [
                                            {
                                                "children": [],
                                                "depth": 3,
                                                "id": 4,
                                                "order": 4
                                            },
                                            {
                                                "children": [],
                                                "depth": 3,
                                                "id": 5,
                                                "order": 5
                                            }
                                        ],
                                        "depth": 2,
                                        "id": 3,
                                        "order": 3
                                    },
                                    {
                                        "children": [],
                                        "depth": 2,
                                        "id": 6,
                                        "order": 6
                                    },
                                    {
                                        "children": [],
                                        "depth": 2,
                                        "id": 7,
                                        "order": 7
                                    },
                                    {
                                        "children": [],
                                        "depth": 2,
                                        "id": 8,
                                        "order": 8
                                    },
                                    {
                                        "children": [],
                                        "depth": 2,
                                        "id": 9,
                                        "order": 9
                                    },
                                    {
                                        "children": [],
                                        "depth": 2,
                                        "id": 10,
                                        "order": 10
                                    },
                                    {
                                        "children": [],
                                        "depth": 2,
                                        "id": 11,
                                        "order": 11
                                    },
                                    {
                                        "children": [
                                            {
                                                "children": [
                                                    {
                                                        "children": [],
                                                        "depth": 4,
                                                        "id": 14,
                                                        "order": 14
                                                    }
                                                ],
                                                "depth": 3,
                                                "id": 13,
                                                "order": 13
                                            }
                                        ],
                                        "depth": 2,
                                        "id": 12,
                                        "order": 12
                                    },
                                    {
                                        "children": [],
                                        "depth": 2,
                                        "id": 15,
                                        "order": 15
                                    },
                                    {
                                        "children": [
                                            {
                                                "children": [
                                                    {
                                                        "children": [],
                                                        "depth": 4,
                                                        "id": 18,
                                                        "order": 18
                                                    }
                                                ],
                                                "depth": 3,
                                                "id": 17,
                                                "order": 17
                                            }
                                        ],
                                        "depth": 2,
                                        "id": 16,
                                        "order": 16
                                    },
                                    {
                                        "children": [
                                            {
                                                "children": [],
                                                "depth": 3,
                                                "id": 20,
                                                "order": 20
                                            }
                                        ],
                                        "depth": 2,
                                        "id": 19,
                                        "order": 19
                                    },
                                    {
                                        "children": [],
                                        "depth": 2,
                                        "id": 21,
                                        "order": 21
                                    },
                                    {
                                        "children": [
                                            {
                                                "children": [
                                                    {
                                                        "children": [],
                                                        "depth": 4,
                                                        "id": 24,
                                                        "order": 24
                                                    }
                                                ],
                                                "depth": 3,
                                                "id": 23,
                                                "order": 23
                                            },
                                            {
                                                "children": [
                                                    {
                                                        "children": [
                                                            {
                                                                "children": [],
                                                                "depth": 5,
                                                                "id": 27,
                                                                "order": 27
                                                            }
                                                        ],
                                                        "depth": 4,
                                                        "id": 26,
                                                        "order": 26
                                                    },
                                                    {
                                                        "children": [],
                                                        "depth": 4,
                                                        "id": 28,
                                                        "order": 28
                                                    },
                                                    {
                                                        "children": [],
                                                        "depth": 4,
                                                        "id": 29,
                                                        "order": 29
                                                    }
                                                ],
                                                "depth": 3,
                                                "id": 25,
                                                "order": 25
                                            }
                                        ],
                                        "depth": 2,
                                        "id": 22,
                                        "order": 22
                                    }
                                ],
                                "depth": 1,
                                "id": 2,
                                "order": 2
                            }
                        ],
                        "depth": 0,
                        "id": 0,
                        "order": 0
                    }
                ],
                "depth": -1,
                "id": -1,
                "order": -1
            }
        ],
        "mainTraceNodeCount": 30,
        "parentIdMap": {
            "0": -1,
            "1": 0,
            "10": 2,
            "11": 2,
            "12": 2,
            "13": 12,
            "14": 13,
            "15": 2,
            "16": 2,
            "17": 16,
            "18": 17,
            "19": 2,
            "2": 0,
            "20": 19,
            "21": 2,
            "22": 2,
            "23": 22,
            "24": 23,
            "25": 22,
            "26": 25,
            "27": 26,
            "28": 25,
            "29": 25,
            "3": 2,
            "4": 3,
            "5": 3,
            "6": 2,
            "7": 2,
            "8": 2,
            "9": 2
        },
        "tidyTrace": [
            {
                "children": [
                    {
                        "children": [
                            {
                                "children": [],
                                "depth": 1,
                                "id": 1,
                                "order": 1
                            },
                            {
                                "children": [
                                    {
                                        "children": [
                                            {
                                                "children": [],
                                                "depth": 3,
                                                "id": 4,
                                                "order": 4
                                            },
                                            {
                                                "children": [],
                                                "depth": 3,
                                                "id": 5,
                                                "order": 5
                                            }
                                        ],
                                        "depth": 2,
                                        "id": 3,
                                        "order": 3
                                    },
                                    {
                                        "children": [],
                                        "depth": 2,
                                        "id": 6,
                                        "order": 6
                                    },
                                    {
                                        "children": [],
                                        "depth": 2,
                                        "id": 7,
                                        "order": 7
                                    },
                                    {
                                        "children": [],
                                        "depth": 2,
                                        "id": 8,
                                        "order": 8
                                    },
                                    {
                                        "children": [],
                                        "depth": 2,
                                        "id": 9,
                                        "order": 9
                                    },
                                    {
                                        "children": [],
                                        "depth": 2,
                                        "id": 10,
                                        "order": 10
                                    },
                                    {
                                        "children": [],
                                        "depth": 2,
                                        "id": 11,
                                        "order": 11
                                    },
                                    {
                                        "children": [
                                            {
                                                "children": [
                                                    {
                                                        "children": [],
                                                        "depth": 4,
                                                        "id": 14,
                                                        "order": 14
                                                    }
                                                ],
                                                "depth": 3,
                                                "id": 13,
                                                "order": 13
                                            }
                                        ],
                                        "depth": 2,
                                        "id": 12,
                                        "order": 12
                                    },
                                    {
                                        "children": [],
                                        "depth": 2,
                                        "id": 15,
                                        "order": 15
                                    },
                                    {
                                        "children": [
                                            {
                                                "children": [
                                                    {
                                                        "children": [],
                                                        "depth": 4,
                                                        "id": 18,
                                                        "order": 18
                                                    }
                                                ],
                                                "depth": 3,
                                                "id": 17,
                                                "order": 17
                                            }
                                        ],
                                        "depth": 2,
                                        "id": 16,
                                        "order": 16
                                    },
                                    {
                                        "children": [
                                            {
                                                "children": [],
                                                "depth": 3,
                                                "id": 20,
                                                "order": 20
                                            }
                                        ],
                                        "depth": 2,
                                        "id": 19,
                                        "order": 19
                                    },
                                    {
                                        "children": [],
                                        "depth": 2,
                                        "id": 21,
                                        "order": 21
                                    },
                                    {
                                        "children": [
                                            {
                                                "children": [
                                                    {
                                                        "children": [],
                                                        "depth": 4,
                                                        "id": 24,
                                                        "order": 24
                                                    }
                                                ],
                                                "depth": 3,
                                                "id": 23,
                                                "order": 23
                                            },
                                            {
                                                "children": [
                                                    {
                                                        "children": [
                                                            {
                                                                "children": [],
                                                                "depth": 5,
                                                                "id": 27,
                                                                "order": 27
                                                            }
                                                        ],
                                                        "depth": 4,
                                                        "id": 26,
                                                        "order": 26
                                                    },
                                                    {
                                                        "children": [],
                                                        "depth": 4,
                                                        "id": 28,
                                                        "order": 28
                                                    },
                                                    {
                                                        "children": [],
                                                        "depth": 4,
                                                        "id": 29,
                                                        "order": 29
                                                    }
                                                ],
                                                "depth": 3,
                                                "id": 25,
                                                "order": 25
                                            }
                                        ],
                                        "depth": 2,
                                        "id": 22,
                                        "order": 22
                                    }
                                ],
                                "depth": 1,
                                "id": 2,
                                "order": 2
                            }
                        ],
                        "depth": 0,
                        "id": 0,
                        "order": 0
                    }
                ],
                "depth": -1,
                "id": -1,
                "order": -1
            }
        ],
        "tidyTraceNodeCount": 30
    },
    "state_change": {
        "stateChanges": [
            {
                "address": "0x01aac5236ad205ebbe4f6819bc64ef5bef40b71c",
                "erc": "",
                "slots": [
                    {
                        "current": "0x30000000030493320c4120c40c2308c20c8329420c4328ca0cc330cc146308c2",
                        "key": "0xf30f46d53e41f7a88b3868c4b23b8ed6ff7e1c284147c01d9aa6aa2c873612df",
                        "prev": "0x0000000000000000000000000000000000000000000000000000000000000000"
                    },
                    {
                        "current": "0x38000000012c93040c8308c20c23090a10c328c40c6328ca0cc330cc0c2308c2",
                        "key": "0xf30f46d53e41f7a88b3868c4b23b8ed6ff7e1c284147c01d9aa6aa2c873612e0",
                        "prev": "0x0000000000000000000000000000000000000000000000000000000000000000"
                    }
                ],
                "storageVariables": []
            },
            {
                "address": "0x10e304a53351b272dc415ad049ad06565ebdfe34",
                "erc": "",
                "slots": [
                    {
                        "current": "0x0000000000000000000000000000000000000000000000000000000000000001",
                        "key": "0x394bb1663ebc227bf891160db111207f3763567b8b575350ab7021a2450e1fec",
                        "prev": "0x0000000000000000000000000000000000000000000000000000000000000000"
                    },
                    {
                        "current": "0x0000000000000000000000000000000000000000000000000000000000000001",
                        "key": "0x425cbbbbee9b19420cb7dc6664a3cd43aef60bd0a0cd0eca7f574147b8aacb49",
                        "prev": "0x0000000000000000000000000000000000000000000000000000000000000000"
                    },
                    {
                        "current": "0x000000000000000000000000000000000000000000000000000000000003d08c",
                        "key": "0x28a13b37114e426eed2f2cef480621636800460979605bccbcf4a52ba2f177c4",
                        "prev": "0x0000000000000000000000000000000000000000000000000000000000000000"
                    },
                    {
                        "current": "0x000000000000000000000000000000000000000000000000000000000003e264",
                        "key": "0x28a13b37114e426eed2f2cef480621636800460979605bccbcf4a52ba2f177c5",
                        "prev": "0x0000000000000000000000000000000000000000000000000000000000000000"
                    }
                ],
                "storageVariables": []
            },
            {
                "address": "0x37236cd05b34cc79d3715af2383e96dd7443dcf1",
                "erc": "",
                "slots": [
                    {
                        "current": "0x0000000000000000000000000000000000000000000000000000000012b585d8",
                        "key": "0x0000000000000000000000000000000000000000000000000000000000000003",
                        "prev": "0x0000000000000000000000000000000000000000000000000000000012b586a0"
                    },
                    {
                        "current": "0x00000000000000000000000000000000000000000000000000000000000017b2",
                        "key": "0xb94eeb11ef20ec1da2ea52364901c97428c1ca9f0cc13a29f4052b7d55749b0b",
                        "prev": "0x000000000000000000000000000000000000000000000000000000000000187a"
                    },
                    {
                        "current": "0xfffffffffffffffffffffffffffffffffffffffffffffffffffffffffc4d6203",
                        "key": "0x0000000000000000000000000000000000000000000000000000000000000009",
                        "prev": "0xfffffffffffffffffffffffffffffffffffffffffffffffffffffffffc4d62cb"
                    }
                ],
                "storageVariables": []
            },
            {
                "address": "0xf5b0a3efb8e8e4c201e2a935f110eaaf3ffecb8d",
                "erc": "ERC-721",
                "slots": [
                    {
                        "current": "0x000000000000000000000000000000000000000000000000000000000003f9d8",
                        "key": "0x26f1145a039f29dca3e0d10fc757520f9c6d3c0fe180e32074b5510fbeb52381",
                        "prev": "0x0000000000000000000000000000000000000000000000000000000000000000"
                    },
                    {
                        "current": "0x00000000000000000000000000000000000000000000000000000000606027a9",
                        "key": "0xc624b66cc0138b8fabc209247f72d758e1cf3343756d543badbf24212bf57fc6",
                        "prev": "0x0000000000000000000000000000000000000000000000000000000000000000"
                    },
                    {
                        "current": "0x0000000000000000000000009169e25996057e9221772941342fb3093972bb60",
                        "key": "0x334f0c3c4a935c3ba1b7b34264da145eb46a97d86d870ec3a11d68fc1a8ed085",
                        "prev": "0x0000000000000000000000000000000000000000000000000000000000000000"
                    },
                    {
                        "current": "0x000000000000000000000000000000000000000000000000000000000003f9d7",
                        "key": "0x038e95abfcb7c32029b3ba3174bee187ece219184c999ab94caf53ec13b71227",
                        "prev": "0x0000000000000000000000000000000000000000000000000000000000000000"
                    },
                    {
                        "current": "0x000000000000000000000000000000000000000000000000000000000003f9d8",
                        "key": "0x3674f629c35b22c5e7ef84e23dfd72e977c27bd4a0c790777f20330d63150b5d",
                        "prev": "0x0000000000000000000000000000000000000000000000000000000000000000"
                    },
                    {
                        "current": "0x000000000000000000000000000000000000000000000000000000000000021f",
                        "key": "0xf22de78fc932feffe18023a623d8c2e757a2d4b035c9e38b28fde894fa3fdf51",
                        "prev": "0x0000000000000000000000000000000000000000000000000000000000000000"
                    },
                    {
                        "current": "0x000000000000000000000000000000000000000000000000000000000003f9d8",
                        "key": "0x000000000000000000000000000000000000000000000000000000000000000d",
                        "prev": "0x000000000000000000000000000000000000000000000000000000000003f9d7"
                    },
                    {
                        "current": "0x000000000000000000000000000000000000000000000000000000000003f9d9",
                        "key": "0x0000000000000000000000000000000000000000000000000000000000000017",
                        "prev": "0x000000000000000000000000000000000000000000000000000000000003f9d8"
                    },
                    {
                        "current": "0x0000000000000000000000000000000000000000000000000000000000000220",
                        "key": "0x0a3840adcd55ebe9b330e061f9613878dd3dd887a7b87345632484dce9dbb3e2",
                        "prev": "0x000000000000000000000000000000000000000000000000000000000000021f"
                    }
                ],
                "storageVariables": [
                    {
                        "name": "_overallTokenIndex",
                        "type": "mapping(uint256 => uint256)",
                        "value": {
                            "pairs": [
                                {
                                    "key": "260568",
                                    "value": {
                                        "current": "260567",
                                        "prev": "0",
                                        "typeTag": 1
                                    }
                                }
                            ],
                            "typeTag": 4
                        }
                    },
                    {
                        "name": "_ownedTokens",
                        "type": "mapping(address => uint256[])",
                        "value": {
                            "pairs": [
                                {
                                    "key": "0x9169e25996057e9221772941342fb3093972bb60",
                                    "value": {
                                        "elemType": "uint256",
                                        "elems": [
                                            {
                                                "index": 543,
                                                "value": {
                                                    "current": "260568",
                                                    "prev": "0",
                                                    "typeTag": 1
                                                }
                                            }
                                        ],
                                        "typeTag": 2
                                    }
                                }
                            ],
                            "typeTag": 4
                        }
                    },
                    {
                        "name": "_overallTokenId",
                        "type": "mapping(uint256 => uint256)",
                        "value": {
                            "pairs": [
                                {
                                    "key": "260567",
                                    "value": {
                                        "current": "260568",
                                        "prev": "0",
                                        "typeTag": 1
                                    }
                                }
                            ],
                            "typeTag": 4
                        }
                    },
                    {
                        "name": "_ownedTokenIndex",
                        "type": "mapping(uint256 => uint256)",
                        "value": {
                            "pairs": [
                                {
                                    "key": "260568",
                                    "value": {
                                        "current": "543",
                                        "prev": "0",
                                        "typeTag": 1
                                    }
                                }
                            ],
                            "typeTag": 4
                        }
                    },
                    {
                        "name": "_totalTokens",
                        "type": "uint256",
                        "value": {
                            "current": "260568",
                            "prev": "260567",
                            "typeTag": 1
                        }
                    },
                    {
                        "name": "_tokenOwner",
                        "type": "mapping(uint256 => address)",
                        "value": {
                            "pairs": [
                                {
                                    "key": "260568",
                                    "value": {
                                        "current": "0x9169e25996057e9221772941342fb3093972bb60",
                                        "prev": "0x0000000000000000000000000000000000000000",
                                        "typeTag": 1
                                    }
                                }
                            ],
                            "typeTag": 4
                        }
                    },
                    {
                        "name": "axies",
                        "type": "struct AxieCore.Axie[]",
                        "value": {
                            "elemType": "struct AxieCore.Axie",
                            "elems": [
                                {
                                    "index": 260568,
                                    "value": {
                                        "fields": [
                                            {
                                                "name": "bornAt",
                                                "type": "uint256",
                                                "value": {
                                                    "current": "1616914345",
                                                    "prev": "0",
                                                    "typeTag": 1
                                                }
                                            }
                                        ],
                                        "typeTag": 3
                                    }
                                }
                            ],
                            "typeTag": 2
                        }
                    }
                ]
            }
        ]
    }
}