{
    "balance_change": {
        "balanceChanges": [
            {
                "account": "0x47c5fc83493e6db655ff4cbd8c04271c7fdaf766",
                "assets": [
                    {
                        "address": "0x44ff8620b8ca30902395a7bd3f2407e1a091bf73",
                        "amount": "7,363.53099609105147191",
                        "iconUrl": "",
                        "isERC1155": false,
                        "isERC721": false,
                        "sign": false,
                        "value": "452.7646455"
                    }
                ]
            },
            {
                "account": "0x9b3cb3bdddf6916a667d86b231120973bb5061e8",
                "assets": [
                    {
                        "address": "0x44ff8620b8ca30902395a7bd3f2407e1a091bf73",
                        "amount": "7,363.53099609105147191",
                        "iconUrl": "",
                        "isERC1155": false,
                        "isERC721": false,
                        "sign": true,
                        "value": "452.7646455"
                    }
                ]
            }
        ]
    },
    "profile": {
        "basic_info": {
            "baseFee": "34.266117005",
            "blockNumber": 19227773,
            "callData": "0xa9059cbb0000000000000000000000009b3cb3bdddf6916a667d86b231120973bb5061e800000000000000000000000000000000000000000000018f2d854b49196a7426",
            "debugEnable": true,
            "errorInfo": "",
            "eventCount": 1,
            "feeRecipient": "0x4838b106fce9647bdf1e7877bf73ce8b0bad5f97",
            "formatValue": "0",
            "gasLimit": 78732,
            "gasPrice": "34.267002298",
            "gasUsed": 47510,
            "intTxnCount": 0,
            "internalRevert": false,
            "internalRevertMessage": "",
            "isContractCreation": false,
            "isFlashloan": false,
            "maxFee": "47.913874316",
            "nonce": 14,
            "overwritedBlockNumber": -1,
            "priorityFee": "0.000885293",
            "receiver": "0x44ff8620b8ca30902395a7bd3f2407e1a091bf73",
            "revertMessage": "",
            "sender": "0x47c5fc83493e6db655ff4cbd8c04271c7fdaf766",
            "simulationEnable": true,
            "sourceTxnHash": "0xac62db1120fbd5803290e204c9935271b08c9361bd4eecd11e2ef827af08163f",
            "status": true,
            "timestamp": "2024-02-14T17:45:59Z",
            "transactionFee": "0.00162802527917798",
            "txnHash": "0xac62db1120fbd5803290e204c9935271b08c9361bd4eecd11e2ef827af08163f",
            "txnIndex": 130,
            "type": 2,
            "value": "0"
        },
        "fund_flow": [
            {
                "amount": "7,363.53099609105147191",
                "from": "0x47c5fc83493e6db655ff4cbd8c04271c7fdaf766",
                "id": 1,
                "isERC1155": false,
                "isERC721": false,
                "isReverted": false,
                "order": 1,
                "to": "0x9b3cb3bdddf6916a667d86b231120973bb5061e8",
                "token": "0x44ff8620b8ca30902395a7bd3f2407e1a091bf73"
            }
        ],
        "token_infos": [
            {
                "address": "0x44ff8620b8ca30902395a7bd3f2407e1a091bf73",
                "decimals": 18
            },
            {
                "address": "0xc02aaa39b223fe8d0a0e5c4f27ead9083c756cc2",
                "decimals": 18
            },
            {
                "address": "0xeeeeeeeeeeeeeeeeeeeeeeeeeeeeeeeeeeeeeeee",
                "decimals": 18
            }
        ]
    },
    "address_label": {
        "labels": [
            {
                "address": "0x44ff8620b8ca30902395a7bd3f2407e1a091bf73",
                "label": "Virtual Protocol: VIRTUAL Token"
            },
            {
                "address": "0x0000000000000000000000000000000000000001",
                "label": "Precompiled"
            },
            {
                "address": "0x0000000000000000000000000000000000000002",
                "label": "Precompiled"
            },
            {
                "address": "0x0000000000000000000000000000000000000003",
                "label": "Precompiled"
            },
            {
                "address": "0x0000000000000000000000000000000000000004",
                "label": "Precompiled"
            },
            {
                "address": "0xeeeeeeeeeeeeeeeeeeeeeeeeeeeeeeeeeeeeeeee",
                "label": "Ether"
            }
        ]
    },
    "trace": {
        "accountLabels": null,
        "dataMap": {
            "-1": {
                "invocation": {
                    "address": "0x47c5fc83493e6db655ff4cbd8c04271c7fdaf766",
                    "callData": "",
                    "decodedMethod": null,
                    "errorInfo": "",
                    "fromAddress": "",
                    "gasUsed": 0,
                    "id": -1,
                    "methodDecoded": false,
                    "operation": "",
                    "output": "",
                    "revert": false,
                    "revertMessage": "",
                    "selector": "",
                    "status": false,
                    "value": ""
                },
                "nodeType": 0
            },
            "0": {
                "invocation": {
                    "address": "0x44ff8620b8ca30902395a7bd3f2407e1a091bf73",
                    "callData": "0x0000000000000000000000009b3cb3bdddf6916a667d86b231120973bb5061e800000000000000000000000000000000000000000000018f2d854b49196a7426",
                    "decodedMethod": {
                        "callParams": [
                            {
                                "name": "to",
                                "type": "address",
                                "value": "0x9b3cb3bdddf6916a667d86b231120973bb5061e8"
                            },
                            {
                                "decimalAvailable": true,
                                "name": "value",
                                "type": "uint256",
                                "value": "7,363,530,996,091,051,471,910"
                            }
                        ],
                        "constructorArguments": "",
                        "name": "transfer",
                        "returnParams": [
                            {
                                "name": "",
                                "type": "bool",
                                "value": true
                            }
                        ],
                        "signature": "transfer(address,uint256)"
                    },
                    "errorInfo": "",
                    "fromAddress": "0x47c5fc83493e6db655ff4cbd8c04271c7fdaf766",
                    "gasUsed": 47510,
                    "id": 0,
                    "methodDecoded": true,
                    "operation": "CALL",
                    "output": "0x0000000000000000000000000000000000000000000000000000000000000001",
                    "revert": false,
                    "revertMessage": "",
                    "selector": "0xa9059cbb",
                    "status": true,
                    "value": "0"
                },
                "nodeType": 0
            },
            "1": {
                "event": {
                    "contract": "0x44ff8620b8ca30902395a7bd3f2407e1a091bf73",
                    "decodedLog": {
                        "name": "Transfer",
                        "params": [
                            {
                                "name": "from",
                                "type": "address",
                                "value": "0x47c5fc83493e6db655ff4cbd8c04271c7fdaf766"
                            },
                            {
                                "name": "to",
                                "type": "address",
                                "value": "0x9b3cb3bdddf6916a667d86b231120973bb5061e8"
                            },
                            {
                                "decimalAvailable": true,
                                "name": "value",
                                "type": "uint256",
                                "value": "7,363,530,996,091,051,471,910"
                            }
                        ],
                        "signature": "Transfer(address,address,uint256)"
                    },
                    "id": 1,
                    "logData": "0x00000000000000000000000000000000000000000000018f2d854b49196a7426",
                    "logDecoded": true,
                    "operation": "EVENT",
                    "revert": false,
                    "status": true,
                    "topics": [
                        "0xddf252ad1be2c89b69c2b068fc378daa952ba7f163c4a11628f55a4df523b3ef",
                        "0x00000000000000000000000047c5fc83493e6db655ff4cbd8c04271c7fdaf766",
                        "0x0000000000000000000000009b3cb3bdddf6916a667d86b231120973bb5061e8"
                    ]
                },
                "nodeType": 1
            }
        },
        "gasFlame": [
            {
                "children": [
                    {
                        "children": [
                            {
                                "children": [],
                                "depth": 0,
                                "name": "Initial Gas",
                                "value": 21680
                            },
                            {
                                "children": [],
                                "depth": 0,
                                "name": "Executed Gas",
                                "value": 30630
                            }
                        ],
                        "depth": -1,
                        "name": "Actual Gas Used",
                        "value": 47510
                    },
                    {
                        "children": [],
                        "depth": -1,
                        "name": "Refunded Gas",
                        "value": 4800
                    }
                ],
                "depth": -2,
                "name": "Total Gas",
                "value": 52310
            }
        ],
        "isConfirmed": true,
        "mainTrace": [
            {
                "children": [
                    {
                        "children": [
                            {
                                "children": [],
                                "depth": 1,
                                "id": 1,
                                "order": 1
                            }
                        ],
                        "depth": 0,
                        "id": 0,
                        "order": 0
                    }
                ],
                "depth": -1,
                "id": -1,
                "order": -1
            }
        ],
        "mainTraceNodeCount": 2,
        "parentIdMap": {
            "0": -1,
            "1": 0
        },
        "tidyTrace": [
            {
                "children": [
                    {
                        "children": [
                            {
                                "children": [],
                                "depth": 1,
                                "id": 1,
                                "order": 1
                            }
                        ],
                        "depth": 0,
                        "id": 0,
                        "order": 0
                    }
                ],
                "depth": -1,
                "id": -1,
                "order": -1
            }
        ],
        "tidyTraceNodeCount": 2
    },
    "state_change": {
        "stateChanges": [
            {
                "address": "0x44ff8620b8ca30902395a7bd3f2407e1a091bf73",
                "erc": "ERC-20",
                "slots": [
                    {
                        "current": "0x00000000000000000000000000000000000000000000018f2d854b49196a7426",
                        "key": "0x32397c4178d203f115a5b96634c6faf6a30cf7ed36d788b74d1e4244c480f471",
                        "prev": "0x0000000000000000000000000000000000000000000000000000000000000000"
                    },
                    {
                        "current": "0x0000000000000000000000000000000000000000000000000000000000000000",
                        "key": "0x2a730a5cbc7b6b456bdda998674f619cca8bff5ca890d22770eb22772929c01f",
                        "prev": "0x00000000000000000000000000000000000000000000018f2d854b49196a7426"
                    }
                ],
                "storageVariables": [
                    {
                        "name": "_balances",
                        "type": "mapping(address => uint256)",
                        "value": {
                            "pairs": [
                                {
                                    "key": "0x47c5fc83493e6db655ff4cbd8c04271c7fdaf766",
                                    "value": {
                                        "current": "0",
                                        "prev": "7363530996091051471910",
                                        "typeTag": 1
                                    }
                                },
                                {
                                    "key": "0x9b3cb3bdddf6916a667d86b231120973bb5061e8",
                                    "value": {
                                        "current": "7363530996091051471910",
                                        "prev": "0",
                                        "typeTag": 1
                                    }
                                }
                            ],
                            "typeTag": 4
                        }
                    }
                ]
            }
        ]
    }
}