{
    "balance_change": {
        "balanceChanges": [
            {
                "account": "0x5513ff35b8cc25f126bfbccc8d2bf91fcc023522",
                "assets": [
                    {
                        "address": "0x419d0d8bdd9af5e606ae2232ed285aff190e711b",
                        "amount": "2,003,741.31143727",
                        "iconUrl": "https://assets.blocksec.com/icon/416669ea5112a0c54fce100e8c150455ffe791ed46d87ba051143f3ba702dd7c.png",
                        "isERC1155": false,
                        "isERC721": false,
                        "sign": false,
                        "value": ""
                    }
                ]
            },
            {
                "account": "0x76e275fbb8bc233d4efb9c20b6e2ddb408402ace",
                "assets": [
                    {
                        "address": "0x419d0d8bdd9af5e606ae2232ed285aff190e711b",
                        "amount": "13.6",
                        "iconUrl": "https://assets.blocksec.com/icon/416669ea5112a0c54fce100e8c150455ffe791ed46d87ba051143f3ba702dd7c.png",
                        "isERC1155": false,
                        "isERC721": false,
                        "sign": true,
                        "value": ""
                    }
                ]
            },
            {
                "account": "0x860f231de21a6e614950f3bbbc1d172caffc717a",
                "assets": [
                    {
                        "address": "0x419d0d8bdd9af5e606ae2232ed285aff190e711b",
                        "amount": "1,999,386.4",
                        "iconUrl": "https://assets.blocksec.com/icon/416669ea5112a0c54fce100e8c150455ffe791ed46d87ba051143f3ba702dd7c.png",
                        "isERC1155": false,
                        "isERC721": false,
                        "sign": true,
                        "value": ""
                    }
                ]
            },
            {
                "account": "0x9b64ec9aac04663f9cdef37bc875611bd7d7c510",
                "assets": [
                    {
                        "address": "0x419d0d8bdd9af5e606ae2232ed285aff190e711b",
                        "amount": "4,341.31143727",
                        "iconUrl": "https://assets.blocksec.com/icon/416669ea5112a0c54fce100e8c150455ffe791ed46d87ba051143f3ba702dd7c.png",
                        "isERC1155": false,
                        "isERC721": false,
                        "sign": true,
                        "value": ""
                    }
                ]
            }
        ]
    },
    "profile": {
        "basic_info": {
            "baseFee": "",
            "blockNumber": 10304955,
            "callData": "0xe841e4ce0000000000000000000000005513ff35b8cc25f126bfbccc8d2bf91fcc0235221034d750c2969bf63bf2044583971dcb321d71936754f91dd6e163e0bb2e30af0000000000000000000000009b64ec9aac04663f9cdef37bc875611bd7d7c510000000000000000000000000000000000000000000000000000000571bf4342f000000000000000000000000d4ffea239cff59790b10f9a982dd289a355d5fb50000000000000000000000000000000000000000000000000000b5e620f4800000000000000000000000000007e98968b56a604104c898c3feca4b2af61d669900000000000000000000000078e6b0f1bee3c627c2ca58df3db91bc4c636da46d5f0a6877695c5cf31502c884a5244b5259c06bdec6aa6007a640d1ca58da97fb35af6e28ba251fe5262906c47ad849ce4f1d5248e7ada7593d0a4321187bb9e0000000000000000000000000000000000000000000000000000000000000001000000000000000000000000860f231de21a6e614950f3bbbc1d172caffc717a000000000000000000000000000000000000000000000000000000005eee78341034d750c2969bf63bf2044583971dcb321d71936754f91dd6e163e0bb2e30af0000000000000000000000000000000000000000000000000000000000000056000000000000000000000000000000000000000000000000000000000000005500000000000000000000000000000000000000000000000000000065143b8c2f0000000000000000000000000000000000000000000000000000b5d828ad280000000000000000000000000000000000000000000000000000000062f3f95a00570530e20268395049bf8a1970ed0ed9a2cef9ef9958becd038b98105d5ac8ca4da0e408d2047e2f2167435b64e8e220f5019eb0e39443a00c6eb7e4ff4d5c410000000000000000000000000000000000000000000000000000000000000002000000000000000000000000000000000000000000000000000000012a05f200000000000000000000000000000000000000000000000000000000012a05f20000000000000000000000000000000000000000000000000000000021c2ac6a000000000000000000000000000000000000000000000000000000000000000000000000000000000000000000000000000000000000000000000000000000000600000000000000000000000000000000000000000000000b000200030012001000000000000000000000000000000000000000000000000300000000000000000000000000000000000000000000000000000000000000000000000000030600000000000000000000000000000000000000000000000000000000000005190000000000000000000000000000000000000000000000000000000022ecb25c00000000000000000000000000000000190000000000000000000000000bebc20000000000000000000000000000000000000000000000000000000000000000090000000000000000000000000000000000000000000000000000000000000000000000000000000000000000000000000000000000000000000000000000ff000000000000000000000000000000000000000000000000000000000000000000000000000000000000000000000000000000000000000000000000000000000000000000000000000000000000000000000000000000000000000000000000000000000000000000000000000000000000000000000000000000000000000000000000000000000000000000000000000000000000000000000000000000000000000000000000000000000000000000000000000000000000000000000000000000000000000000000000000000000000000000000000000000000000000001000000000000000000000000000000000000000000000000000000000000001cb03bd0f16d730e2aab8c0c4be0ba8621cd1ee6bb9248f75cdcea808b5050530803c73e8262cecf5e26e328c4aa8060a7cae6b0c015e867e0ca03c71668f46388000000000000000000000000000000000000000000000000000000000000001b4e572d0175a0235d09754af6e0ddf7491b8cc7249d0f19c5d4de978283beb3af463a9c339cf6e06539a656f34dc62057146c0889a14d335e8adb95b2af01bd1f1034d750c2969bf63bf2044583971dcb321d71936754f91dd6e163e0bb2e30af00000000000000000000000000000000000000000000000000000000000000560000000000000000000000000000000000000000000000000000000000000002000000000000000000000000000000000000000000000000000000000000001c48b590c0bf41560e4de9b94026754b5c41b6d57be90b8116614967ec17f5d13b2ffb8afa51553c17c405eb3c525680ee2125d3d6be12c79b4dffceef554d1b38",
            "debugEnable": true,
            "errorInfo": "",
            "eventCount": 5,
            "feeRecipient": "0x5a0b54d5dc17e0aadc383d2db43b0a0d3e029c4c",
            "formatValue": "0",
            "gasLimit": 249406,
            "gasPrice": "16",
            "gasUsed": 196733,
            "intTxnCount": 19,
            "internalRevert": false,
            "internalRevertMessage": "",
            "isContractCreation": false,
            "isFlashloan": false,
            "maxFee": "",
            "nonce": 42671,
            "overwritedBlockNumber": -1,
            "priorityFee": "",
            "receiver": "0x5513ff35b8cc25f126bfbccc8d2bf91fcc023522",
            "revertMessage": "",
            "sender": "0xd4ffea239cff59790b10f9a982dd289a355d5fb5",
            "simulationEnable": true,
            "sourceTxnHash": "0xad757645be074f17d091535eac3baa3d31cc6b3dc0c51e0cb69a62598e05aee7",
            "status": true,
            "timestamp": "2020-06-20T21:07:03Z",
            "transactionFee": "0.003147728",
            "txnHash": "0xad757645be074f17d091535eac3baa3d31cc6b3dc0c51e0cb69a62598e05aee7",
            "txnIndex": 10,
            "type": 0,
            "value": "0"
        },
        "fund_flow": [
            {
                "amount": "4,341.31143727",
                "from": "0x5513ff35b8cc25f126bfbccc8d2bf91fcc023522",
                "id": 1,
                "isERC1155": false,
                "isERC721": false,
                "isReverted": false,
                "order": 1,
                "to": "0x9b64ec9aac04663f9cdef37bc875611bd7d7c510",
                "token": "0x419d0d8bdd9af5e606ae2232ed285aff190e711b"
            },
            {
                "amount": "1,999,386.4",
                "from": "0x5513ff35b8cc25f126bfbccc8d2bf91fcc023522",
                "id": 2,
                "isERC1155": false,
                "isERC721": false,
                "isReverted": false,
                "order": 2,
                "to": "0x860f231de21a6e614950f3bbbc1d172caffc717a",
                "token": "0x419d0d8bdd9af5e606ae2232ed285aff190e711b"
            },
            {
                "amount": "13.6",
                "from": "0x5513ff35b8cc25f126bfbccc8d2bf91fcc023522",
                "id": 3,
                "isERC1155": false,
                "isERC721": false,
                "isReverted": false,
                "order": 3,
                "to": "0x76e275fbb8bc233d4efb9c20b6e2ddb408402ace",
                "token": "0x419d0d8bdd9af5e606ae2232ed285aff190e711b"
            },
            {
                "amount": "0",
                "from": "0x5513ff35b8cc25f126bfbccc8d2bf91fcc023522",
                "id": 4,
                "isERC1155": false,
                "isERC721": false,
                "isReverted": false,
                "order": 4,
                "to": "0x509347488209f80dc1d97076591db92a023556ef",
                "token": "0x419d0d8bdd9af5e606ae2232ed285aff190e711b"
            }
        ],
        "token_infos": [
            {
                "address": "0xc02aaa39b223fe8d0a0e5c4f27ead9083c756cc2",
                "decimals": 18
            },
            {
                "address": "0xeeeeeeeeeeeeeeeeeeeeeeeeeeeeeeeeeeeeeeee",
                "decimals": 18
            },
            {
                "address": "0x419d0d8bdd9af5e606ae2232ed285aff190e711b",
                "decimals": 8
            }
        ]
    },
    "address_label": {
        "labels": [
            {
                "address": "0xeeeeeeeeeeeeeeeeeeeeeeeeeeeeeeeeeeeeeeee",
                "label": "Ether"
            },
            {
                "address": "0x419d0d8bdd9af5e606ae2232ed285aff190e711b",
                "label": "FunFair Token"
            },
            {
                "address": "0xe6a51bd48f93abcd6c1d532112094044971d8d4e",
                "label": "Ledger"
            },
            {
                "address": "0x0000000000000000000000000000000000000001",
                "label": "Precompiled"
            },
            {
                "address": "0x0000000000000000000000000000000000000002",
                "label": "Precompiled"
            },
            {
                "address": "0x0000000000000000000000000000000000000003",
                "label": "Precompiled"
            },
            {
                "address": "0x0000000000000000000000000000000000000004",
                "label": "Precompiled"
            }
        ]
    },
    "trace": {
        "accountLabels": null,
        "dataMap": {
            "-1": {
                "invocation": {
                    "address": "0xd4ffea239cff59790b10f9a982dd289a355d5fb5",
                    "callData": "",
                    "decodedMethod": null,
                    "errorInfo": "",
                    "fromAddress": "",
                    "gasUsed": 0,
                    "id": -1,
                    "methodDecoded": false,
                    "operation": "",
                    "output": "",
                    "revert": false,
                    "revertMessage": "",
                    "selector": "",
                    "status": false,
                    "value": ""
                },
                "nodeType": 0
            },
            "0": {
                "invocation": {
                    "address": "0x5513ff35b8cc25f126bfbccc8d2bf91fcc023522",
                    "callData": "0x0000000000000000000000005513ff35b8cc25f126bfbccc8d2bf91fcc0235221034d750c2969bf63bf2044583971dcb321d71936754f91dd6e163e0bb2e30af0000000000000000000000009b64ec9aac04663f9cdef37bc875611bd7d7c510000000000000000000000000000000000000000000000000000000571bf4342f000000000000000000000000d4ffea239cff59790b10f9a982dd289a355d5fb50000000000000000000000000000000000000000000000000000b5e620f4800000000000000000000000000007e98968b56a604104c898c3feca4b2af61d669900000000000000000000000078e6b0f1bee3c627c2ca58df3db91bc4c636da46d5f0a6877695c5cf31502c884a5244b5259c06bdec6aa6007a640d1ca58da97fb35af6e28ba251fe5262906c47ad849ce4f1d5248e7ada7593d0a4321187bb9e0000000000000000000000000000000000000000000000000000000000000001000000000000000000000000860f231de21a6e614950f3bbbc1d172caffc717a000000000000000000000000000000000000000000000000000000005eee78341034d750c2969bf63bf2044583971dcb321d71936754f91dd6e163e0bb2e30af0000000000000000000000000000000000000000000000000000000000000056000000000000000000000000000000000000000000000000000000000000005500000000000000000000000000000000000000000000000000000065143b8c2f0000000000000000000000000000000000000000000000000000b5d828ad280000000000000000000000000000000000000000000000000000000062f3f95a00570530e20268395049bf8a1970ed0ed9a2cef9ef9958becd038b98105d5ac8ca4da0e408d2047e2f2167435b64e8e220f5019eb0e39443a00c6eb7e4ff4d5c410000000000000000000000000000000000000000000000000000000000000002000000000000000000000000000000000000000000000000000000012a05f200000000000000000000000000000000000000000000000000000000012a05f20000000000000000000000000000000000000000000000000000000021c2ac6a000000000000000000000000000000000000000000000000000000000000000000000000000000000000000000000000000000000000000000000000000000000600000000000000000000000000000000000000000000000b000200030012001000000000000000000000000000000000000000000000000300000000000000000000000000000000000000000000000000000000000000000000000000030600000000000000000000000000000000000000000000000000000000000005190000000000000000000000000000000000000000000000000000000022ecb25c00000000000000000000000000000000190000000000000000000000000bebc20000000000000000000000000000000000000000000000000000000000000000090000000000000000000000000000000000000000000000000000000000000000000000000000000000000000000000000000000000000000000000000000ff000000000000000000000000000000000000000000000000000000000000000000000000000000000000000000000000000000000000000000000000000000000000000000000000000000000000000000000000000000000000000000000000000000000000000000000000000000000000000000000000000000000000000000000000000000000000000000000000000000000000000000000000000000000000000000000000000000000000000000000000000000000000000000000000000000000000000000000000000000000000000000000000000000000000000001000000000000000000000000000000000000000000000000000000000000001cb03bd0f16d730e2aab8c0c4be0ba8621cd1ee6bb9248f75cdcea808b5050530803c73e8262cecf5e26e328c4aa8060a7cae6b0c015e867e0ca03c71668f46388000000000000000000000000000000000000000000000000000000000000001b4e572d0175a0235d09754af6e0ddf7491b8cc7249d0f19c5d4de978283beb3af463a9c339cf6e06539a656f34dc62057146c0889a14d335e8adb95b2af01bd1f1034d750c2969bf63bf2044583971dcb321d71936754f91dd6e163e0bb2e30af00000000000000000000000000000000000000000000000000000000000000560000000000000000000000000000000000000000000000000000000000000002000000000000000000000000000000000000000000000000000000000000001c48b590c0bf41560e4de9b94026754b5c41b6d57be90b8116614967ec17f5d13b2ffb8afa51553c17c405eb3c525680ee2125d3d6be12c79b4dffceef554d1b38",
                    "decodedMethod": null,
                    "errorInfo": "",
                    "fromAddress": "0xd4ffea239cff59790b10f9a982dd289a355d5fb5",
                    "gasUsed": 196733,
                    "id": 0,
                    "methodDecoded": false,
                    "operation": "CALL",
                    "output": "",
                    "revert": false,
                    "revertMessage": "",
                    "selector": "0xe841e4ce",
                    "status": true,
                    "value": "0"
                },
                "nodeType": 0
            },
            "1": {
                "invocation": {
                    "address": "0x0000000000000000000000000000000000000001",
                    "callData": "0x0a48c3801554020a649beabbe2d1b6d9520f82d8c08e9797deb4e6f7000000000000000000000000000000000000000000000000000000000000001cb03bd0f16d730e2aab8c0c4be0ba8621cd1ee6bb9248f75cdcea808b5050530803c73e8262cecf5e26e328c4aa8060a7cae6b0c015e867e0ca03c71668f46388",
                    "decodedMethod": {
                        "callParams": [
                            {
                                "name": "hash",
                                "type": "bytes32",
                                "value": "0x806bbd330a48c3801554020a649beabbe2d1b6d9520f82d8c08e9797deb4e6f7"
                            },
                            {
                                "name": "v",
                                "type": "uint256",
                                "value": "28"
                            },
                            {
                                "name": "r",
                                "type": "bytes32",
                                "value": "0xb03bd0f16d730e2aab8c0c4be0ba8621cd1ee6bb9248f75cdcea808b50505308"
                            },
                            {
                                "name": "s",
                                "type": "bytes32",
                                "value": "0x03c73e8262cecf5e26e328c4aa8060a7cae6b0c015e867e0ca03c71668f46388"
                            }
                        ],
                        "constructorArguments": "",
                        "name": "ecrecover",
                        "returnParams": [
                            {
                                "name": "",
                                "type": "address",
                                "value": "0x78e6b0f1bee3c627c2ca58df3db91bc4c636da46"
                            }
                        ],
                        "signature": "ecrecover(bytes32,uint256,bytes32,bytes32)"
                    },
                    "errorInfo": "",
                    "fromAddress": "0x5513ff35b8cc25f126bfbccc8d2bf91fcc023522",
                    "gasUsed": 3000,
                    "id": 1,
                    "methodDecoded": true,
                    "operation": "CALL",
                    "output": "0x00000000000000000000000078e6b0f1bee3c627c2ca58df3db91bc4c636da46",
                    "revert": false,
                    "revertMessage": "",
                    "selector": "0x806bbd33",
                    "status": true,
                    "value": "0"
                },
                "nodeType": 0
            },
            "10": {
                "invocation": {
                    "address": "0xe6a51bd48f93abcd6c1d532112094044971d8d4e",
                    "callData": "0x0000000000000000000000005513ff35b8cc25f126bfbccc8d2bf91fcc0235220000000000000000000000009b64ec9aac04663f9cdef37bc875611bd7d7c51000000000000000000000000000000000000000000000000000000065143b8c2f",
                    "decodedMethod": {
                        "callParams": [
                            {
                                "name": "_from",
                                "type": "address",
                                "value": "0x5513ff35b8cc25f126bfbccc8d2bf91fcc023522"
                            },
                            {
                                "name": "_to",
                                "type": "address",
                                "value": "0x9b64ec9aac04663f9cdef37bc875611bd7d7c510"
                            },
                            {
                                "name": "_value",
                                "type": "uint256",
                                "value": "434,131,143,727"
                            }
                        ],
                        "constructorArguments": "",
                        "name": "transfer",
                        "returnParams": [
                            {
                                "name": "success",
                                "type": "bool",
                                "value": true
                            }
                        ],
                        "signature": "transfer(address,address,uint256)"
                    },
                    "errorInfo": "",
                    "fromAddress": "0x74b303dd79bbf44d23d60891bdd0f31df87bc7b8",
                    "gasUsed": 29881,
                    "id": 10,
                    "methodDecoded": true,
                    "operation": "CALL",
                    "output": "0x0000000000000000000000000000000000000000000000000000000000000001",
                    "revert": false,
                    "revertMessage": "",
                    "selector": "0xbeabacc8",
                    "status": true,
                    "value": "0"
                },
                "nodeType": 0
            },
            "11": {
                "event": {
                    "contract": "0x419d0d8bdd9af5e606ae2232ed285aff190e711b",
                    "decodedLog": {
                        "name": "Transfer",
                        "params": [
                            {
                                "name": "from",
                                "type": "address",
                                "value": "0x5513ff35b8cc25f126bfbccc8d2bf91fcc023522"
                            },
                            {
                                "name": "to",
                                "type": "address",
                                "value": "0x9b64ec9aac04663f9cdef37bc875611bd7d7c510"
                            },
                            {
                                "decimalAvailable": true,
                                "name": "value",
                                "type": "uint256",
                                "value": "434,131,143,727"
                            }
                        ],
                        "signature": "Transfer(address,address,uint256)"
                    },
                    "id": 11,
                    "logData": "0x00000000000000000000000000000000000000000000000000000065143b8c2f",
                    "logDecoded": true,
                    "operation": "EVENT",
                    "revert": false,
                    "status": true,
                    "topics": [
                        "0xddf252ad1be2c89b69c2b068fc378daa952ba7f163c4a11628f55a4df523b3ef",
                        "0x0000000000000000000000005513ff35b8cc25f126bfbccc8d2bf91fcc023522",
                        "0x0000000000000000000000009b64ec9aac04663f9cdef37bc875611bd7d7c510"
                    ]
                },
                "nodeType": 1
            },
            "12": {
                "invocation": {
                    "address": "0x419d0d8bdd9af5e606ae2232ed285aff190e711b",
                    "callData": "0x000000000000000000000000860f231de21a6e614950f3bbbc1d172caffc717a0000000000000000000000000000000000000000000000000000b5d7d79d3400",
                    "decodedMethod": {
                        "callParams": [
                            {
                                "name": "_to",
                                "type": "address",
                                "value": "0x860f231de21a6e614950f3bbbc1d172caffc717a"
                            },
                            {
                                "decimalAvailable": true,
                                "name": "_value",
                                "type": "uint256",
                                "value": "199,938,640,000,000"
                            }
                        ],
                        "constructorArguments": "",
                        "name": "transfer",
                        "returnParams": [
                            {
                                "name": "success",
                                "type": "bool",
                                "value": true
                            }
                        ],
                        "signature": "transfer(address,uint256)"
                    },
                    "errorInfo": "",
                    "fromAddress": "0x5513ff35b8cc25f126bfbccc8d2bf91fcc023522",
                    "gasUsed": 22291,
                    "id": 12,
                    "methodDecoded": true,
                    "operation": "CALL",
                    "output": "0x0000000000000000000000000000000000000000000000000000000000000001",
                    "revert": false,
                    "revertMessage": "",
                    "selector": "0xa9059cbb",
                    "status": true,
                    "value": "0"
                },
                "nodeType": 0
            },
            "13": {
                "invocation": {
                    "address": "0x74b303dd79bbf44d23d60891bdd0f31df87bc7b8",
                    "callData": "0x0000000000000000000000005513ff35b8cc25f126bfbccc8d2bf91fcc023522000000000000000000000000860f231de21a6e614950f3bbbc1d172caffc717a0000000000000000000000000000000000000000000000000000b5d7d79d3400",
                    "decodedMethod": {
                        "callParams": [
                            {
                                "name": "_from",
                                "type": "address",
                                "value": "0x5513ff35b8cc25f126bfbccc8d2bf91fcc023522"
                            },
                            {
                                "name": "_to",
                                "type": "address",
                                "value": "0x860f231de21a6e614950f3bbbc1d172caffc717a"
                            },
                            {
                                "name": "_wad",
                                "type": "uint256",
                                "value": "199,938,640,000,000"
                            }
                        ],
                        "constructorArguments": "",
                        "name": "transfer",
                        "returnParams": [],
                        "signature": "transfer(address,address,uint256)"
                    },
                    "errorInfo": "",
                    "fromAddress": "0x419d0d8bdd9af5e606ae2232ed285aff190e711b",
                    "gasUsed": 16848,
                    "id": 13,
                    "methodDecoded": true,
                    "operation": "CALL",
                    "output": "0x0000000000000000000000000000000000000000000000000000000000000001",
                    "revert": false,
                    "revertMessage": "",
                    "selector": "0xbeabacc8",
                    "status": true,
                    "value": "0"
                },
                "nodeType": 0
            },
            "14": {
                "invocation": {
                    "address": "0xe6a51bd48f93abcd6c1d532112094044971d8d4e",
                    "callData": "0x0000000000000000000000005513ff35b8cc25f126bfbccc8d2bf91fcc023522000000000000000000000000860f231de21a6e614950f3bbbc1d172caffc717a0000000000000000000000000000000000000000000000000000b5d7d79d3400",
                    "decodedMethod": {
                        "callParams": [
                            {
                                "name": "_from",
                                "type": "address",
                                "value": "0x5513ff35b8cc25f126bfbccc8d2bf91fcc023522"
                            },
                            {
                                "name": "_to",
                                "type": "address",
                                "value": "0x860f231de21a6e614950f3bbbc1d172caffc717a"
                            },
                            {
                                "name": "_value",
                                "type": "uint256",
                                "value": "199,938,640,000,000"
                            }
                        ],
                        "constructorArguments": "",
                        "name": "transfer",
                        "returnParams": [
                            {
                                "name": "success",
                                "type": "bool",
                                "value": true
                            }
                        ],
                        "signature": "transfer(address,address,uint256)"
                    },
                    "errorInfo": "",
                    "fromAddress": "0x74b303dd79bbf44d23d60891bdd0f31df87bc7b8",
                    "gasUsed": 10681,
                    "id": 14,
                    "methodDecoded": true,
                    "operation": "CALL",
                    "output": "0x0000000000000000000000000000000000000000000000000000000000000001",
                    "revert": false,
                    "revertMessage": "",
                    "selector": "0xbeabacc8",
                    "status": true,
                    "value": "0"
                },
                "nodeType": 0
            },
            "15": {
                "event": {
                    "contract": "0x419d0d8bdd9af5e606ae2232ed285aff190e711b",
                    "decodedLog": {
                        "name": "Transfer",
                        "params": [
                            {
                                "name": "from",
                                "type": "address",
                                "value": "0x5513ff35b8cc25f126bfbccc8d2bf91fcc023522"
                            },
                            {
                                "name": "to",
                                "type": "address",
                                "value": "0x860f231de21a6e614950f3bbbc1d172caffc717a"
                            },
                            {
                                "decimalAvailable": true,
                                "name": "value",
                                "type": "uint256",
                                "value": "199,938,640,000,000"
                            }
                        ],
                        "signature": "Transfer(address,address,uint256)"
                    },
                    "id": 15,
                    "logData": "0x0000000000000000000000000000000000000000000000000000b5d7d79d3400",
                    "logDecoded": true,
                    "operation": "EVENT",
                    "revert": false,
                    "status": true,
                    "topics": [
                        "0xddf252ad1be2c89b69c2b068fc378daa952ba7f163c4a11628f55a4df523b3ef",
                        "0x0000000000000000000000005513ff35b8cc25f126bfbccc8d2bf91fcc023522",
                        "0x000000000000000000000000860f231de21a6e614950f3bbbc1d172caffc717a"
                    ]
                },
                "nodeType": 1
            },
            "16": {
                "invocation": {
                    "address": "0x419d0d8bdd9af5e606ae2232ed285aff190e711b",
                    "callData": "0x00000000000000000000000076e275fbb8bc233d4efb9c20b6e2ddb408402ace00000000000000000000000000000000000000000000000000000000510ff400",
                    "decodedMethod": {
                        "callParams": [
                            {
                                "name": "_to",
                                "type": "address",
                                "value": "0x76e275fbb8bc233d4efb9c20b6e2ddb408402ace"
                            },
                            {
                                "decimalAvailable": true,
                                "name": "_value",
                                "type": "uint256",
                                "value": "1,360,000,000"
                            }
                        ],
                        "constructorArguments": "",
                        "name": "transfer",
                        "returnParams": [
                            {
                                "name": "success",
                                "type": "bool",
                                "value": true
                            }
                        ],
                        "signature": "transfer(address,uint256)"
                    },
                    "errorInfo": "",
                    "fromAddress": "0x5513ff35b8cc25f126bfbccc8d2bf91fcc023522",
                    "gasUsed": 22291,
                    "id": 16,
                    "methodDecoded": true,
                    "operation": "CALL",
                    "output": "0x0000000000000000000000000000000000000000000000000000000000000001",
                    "revert": false,
                    "revertMessage": "",
                    "selector": "0xa9059cbb",
                    "status": true,
                    "value": "0"
                },
                "nodeType": 0
            },
            "17": {
                "invocation": {
                    "address": "0x74b303dd79bbf44d23d60891bdd0f31df87bc7b8",
                    "callData": "0x0000000000000000000000005513ff35b8cc25f126bfbccc8d2bf91fcc02352200000000000000000000000076e275fbb8bc233d4efb9c20b6e2ddb408402ace00000000000000000000000000000000000000000000000000000000510ff400",
                    "decodedMethod": {
                        "callParams": [
                            {
                                "name": "_from",
                                "type": "address",
                                "value": "0x5513ff35b8cc25f126bfbccc8d2bf91fcc023522"
                            },
                            {
                                "name": "_to",
                                "type": "address",
                                "value": "0x76e275fbb8bc233d4efb9c20b6e2ddb408402ace"
                            },
                            {
                                "name": "_wad",
                                "type": "uint256",
                                "value": "1,360,000,000"
                            }
                        ],
                        "constructorArguments": "",
                        "name": "transfer",
                        "returnParams": [],
                        "signature": "transfer(address,address,uint256)"
                    },
                    "errorInfo": "",
                    "fromAddress": "0x419d0d8bdd9af5e606ae2232ed285aff190e711b",
                    "gasUsed": 16848,
                    "id": 17,
                    "methodDecoded": true,
                    "operation": "CALL",
                    "output": "0x0000000000000000000000000000000000000000000000000000000000000001",
                    "revert": false,
                    "revertMessage": "",
                    "selector": "0xbeabacc8",
                    "status": true,
                    "value": "0"
                },
                "nodeType": 0
            },
            "18": {
                "invocation": {
                    "address": "0xe6a51bd48f93abcd6c1d532112094044971d8d4e",
                    "callData": "0x0000000000000000000000005513ff35b8cc25f126bfbccc8d2bf91fcc02352200000000000000000000000076e275fbb8bc233d4efb9c20b6e2ddb408402ace00000000000000000000000000000000000000000000000000000000510ff400",
                    "decodedMethod": {
                        "callParams": [
                            {
                                "name": "_from",
                                "type": "address",
                                "value": "0x5513ff35b8cc25f126bfbccc8d2bf91fcc023522"
                            },
                            {
                                "name": "_to",
                                "type": "address",
                                "value": "0x76e275fbb8bc233d4efb9c20b6e2ddb408402ace"
                            },
                            {
                                "name": "_value",
                                "type": "uint256",
                                "value": "1,360,000,000"
                            }
                        ],
                        "constructorArguments": "",
                        "name": "transfer",
                        "returnParams": [
                            {
                                "name": "success",
                                "type": "bool",
                                "value": true
                            }
                        ],
                        "signature": "transfer(address,address,uint256)"
                    },
                    "errorInfo": "",
                    "fromAddress": "0x74b303dd79bbf44d23d60891bdd0f31df87bc7b8",
                    "gasUsed": 10681,
                    "id": 18,
                    "methodDecoded": true,
                    "operation": "CALL",
                    "output": "0x0000000000000000000000000000000000000000000000000000000000000001",
                    "revert": false,
                    "revertMessage": "",
                    "selector": "0xbeabacc8",
                    "status": true,
                    "value": "0"
                },
                "nodeType": 0
            },
            "19": {
                "event": {
                    "contract": "0x419d0d8bdd9af5e606ae2232ed285aff190e711b",
                    "decodedLog": {
                        "name": "Transfer",
                        "params": [
                            {
                                "name": "from",
                                "type": "address",
                                "value": "0x5513ff35b8cc25f126bfbccc8d2bf91fcc023522"
                            },
                            {
                                "name": "to",
                                "type": "address",
                                "value": "0x76e275fbb8bc233d4efb9c20b6e2ddb408402ace"
                            },
                            {
                                "decimalAvailable": true,
                                "name": "value",
                                "type": "uint256",
                                "value": "1,360,000,000"
                            }
                        ],
                        "signature": "Transfer(address,address,uint256)"
                    },
                    "id": 19,
                    "logData": "0x00000000000000000000000000000000000000000000000000000000510ff400",
                    "logDecoded": true,
                    "operation": "EVENT",
                    "revert": false,
                    "status": true,
                    "topics": [
                        "0xddf252ad1be2c89b69c2b068fc378daa952ba7f163c4a11628f55a4df523b3ef",
                        "0x0000000000000000000000005513ff35b8cc25f126bfbccc8d2bf91fcc023522",
                        "0x00000000000000000000000076e275fbb8bc233d4efb9c20b6e2ddb408402ace"
                    ]
                },
                "nodeType": 1
            },
            "2": {
                "invocation": {
                    "address": "0x0000000000000000000000000000000000000001",
                    "callData": "0x5bb31b545e09350bcea4daa9d0a7f1143b3ced5a0bcafaf0fc39d434000000000000000000000000000000000000000000000000000000000000001c48b590c0bf41560e4de9b94026754b5c41b6d57be90b8116614967ec17f5d13b2ffb8afa51553c17c405eb3c525680ee2125d3d6be12c79b4dffceef554d1b38",
                    "decodedMethod": {
                        "callParams": [
                            {
                                "name": "hash",
                                "type": "bytes32",
                                "value": "0xb39d165c5bb31b545e09350bcea4daa9d0a7f1143b3ced5a0bcafaf0fc39d434"
                            },
                            {
                                "name": "v",
                                "type": "uint256",
                                "value": "28"
                            },
                            {
                                "name": "r",
                                "type": "bytes32",
                                "value": "0x48b590c0bf41560e4de9b94026754b5c41b6d57be90b8116614967ec17f5d13b"
                            },
                            {
                                "name": "s",
                                "type": "bytes32",
                                "value": "0x2ffb8afa51553c17c405eb3c525680ee2125d3d6be12c79b4dffceef554d1b38"
                            }
                        ],
                        "constructorArguments": "",
                        "name": "ecrecover",
                        "returnParams": [
                            {
                                "name": "",
                                "type": "address",
                                "value": "0x78e6b0f1bee3c627c2ca58df3db91bc4c636da46"
                            }
                        ],
                        "signature": "ecrecover(bytes32,uint256,bytes32,bytes32)"
                    },
                    "errorInfo": "",
                    "fromAddress": "0x5513ff35b8cc25f126bfbccc8d2bf91fcc023522",
                    "gasUsed": 3000,
                    "id": 2,
                    "methodDecoded": true,
                    "operation": "CALL",
                    "output": "0x00000000000000000000000078e6b0f1bee3c627c2ca58df3db91bc4c636da46",
                    "revert": false,
                    "revertMessage": "",
                    "selector": "0xb39d165c",
                    "status": true,
                    "value": "0"
                },
                "nodeType": 0
            },
            "20": {
                "invocation": {
                    "address": "0x419d0d8bdd9af5e606ae2232ed285aff190e711b",
                    "callData": "0x000000000000000000000000509347488209f80dc1d97076591db92a023556ef0000000000000000000000000000000000000000000000000000000000000000",
                    "decodedMethod": {
                        "callParams": [
                            {
                                "name": "_to",
                                "type": "address",
                                "value": "0x509347488209f80dc1d97076591db92a023556ef"
                            },
                            {
                                "decimalAvailable": true,
                                "name": "_value",
                                "type": "uint256",
                                "value": "0"
                            }
                        ],
                        "constructorArguments": "",
                        "name": "transfer",
                        "returnParams": [
                            {
                                "name": "success",
                                "type": "bool",
                                "value": true
                            }
                        ],
                        "signature": "transfer(address,uint256)"
                    },
                    "errorInfo": "",
                    "fromAddress": "0x5513ff35b8cc25f126bfbccc8d2bf91fcc023522",
                    "gasUsed": 18091,
                    "id": 20,
                    "methodDecoded": true,
                    "operation": "CALL",
                    "output": "0x0000000000000000000000000000000000000000000000000000000000000001",
                    "revert": false,
                    "revertMessage": "",
                    "selector": "0xa9059cbb",
                    "status": true,
                    "value": "0"
                },
                "nodeType": 0
            },
            "21": {
                "invocation": {
                    "address": "0x74b303dd79bbf44d23d60891bdd0f31df87bc7b8",
                    "callData": "0x0000000000000000000000005513ff35b8cc25f126bfbccc8d2bf91fcc023522000000000000000000000000509347488209f80dc1d97076591db92a023556ef0000000000000000000000000000000000000000000000000000000000000000",
                    "decodedMethod": {
                        "callParams": [
                            {
                                "name": "_from",
                                "type": "address",
                                "value": "0x5513ff35b8cc25f126bfbccc8d2bf91fcc023522"
                            },
                            {
                                "name": "_to",
                                "type": "address",
                                "value": "0x509347488209f80dc1d97076591db92a023556ef"
                            },
                            {
                                "name": "_wad",
                                "type": "uint256",
                                "value": "0"
                            }
                        ],
                        "constructorArguments": "",
                        "name": "transfer",
                        "returnParams": [],
                        "signature": "transfer(address,address,uint256)"
                    },
                    "errorInfo": "",
                    "fromAddress": "0x419d0d8bdd9af5e606ae2232ed285aff190e711b",
                    "gasUsed": 12648,
                    "id": 21,
                    "methodDecoded": true,
                    "operation": "CALL",
                    "output": "0x0000000000000000000000000000000000000000000000000000000000000001",
                    "revert": false,
                    "revertMessage": "",
                    "selector": "0xbeabacc8",
                    "status": true,
                    "value": "0"
                },
                "nodeType": 0
            },
            "22": {
                "invocation": {
                    "address": "0xe6a51bd48f93abcd6c1d532112094044971d8d4e",
                    "callData": "0x0000000000000000000000005513ff35b8cc25f126bfbccc8d2bf91fcc023522000000000000000000000000509347488209f80dc1d97076591db92a023556ef0000000000000000000000000000000000000000000000000000000000000000",
                    "decodedMethod": {
                        "callParams": [
                            {
                                "name": "_from",
                                "type": "address",
                                "value": "0x5513ff35b8cc25f126bfbccc8d2bf91fcc023522"
                            },
                            {
                                "name": "_to",
                                "type": "address",
                                "value": "0x509347488209f80dc1d97076591db92a023556ef"
                            },
                            {
                                "name": "_value",
                                "type": "uint256",
                                "value": "0"
                            }
                        ],
                        "constructorArguments": "",
                        "name": "transfer",
                        "returnParams": [
                            {
                                "name": "success",
                                "type": "bool",
                                "value": true
                            }
                        ],
                        "signature": "transfer(address,address,uint256)"
                    },
                    "errorInfo": "",
                    "fromAddress": "0x74b303dd79bbf44d23d60891bdd0f31df87bc7b8",
                    "gasUsed": 6481,
                    "id": 22,
                    "methodDecoded": true,
                    "operation": "CALL",
                    "output": "0x0000000000000000000000000000000000000000000000000000000000000001",
                    "revert": false,
                    "revertMessage": "",
                    "selector": "0xbeabacc8",
                    "status": true,
                    "value": "0"
                },
                "nodeType": 0
            },
            "23": {
                "event": {
                    "contract": "0x419d0d8bdd9af5e606ae2232ed285aff190e711b",
                    "decodedLog": {
                        "name": "Transfer",
                        "params": [
                            {
                                "name": "from",
                                "type": "address",
                                "value": "0x5513ff35b8cc25f126bfbccc8d2bf91fcc023522"
                            },
                            {
                                "name": "to",
                                "type": "address",
                                "value": "0x509347488209f80dc1d97076591db92a023556ef"
                            },
                            {
                                "decimalAvailable": true,
                                "name": "value",
                                "type": "uint256",
                                "value": "0"
                            }
                        ],
                        "signature": "Transfer(address,address,uint256)"
                    },
                    "id": 23,
                    "logData": "0x0000000000000000000000000000000000000000000000000000000000000000",
                    "logDecoded": true,
                    "operation": "EVENT",
                    "revert": false,
                    "status": true,
                    "topics": [
                        "0xddf252ad1be2c89b69c2b068fc378daa952ba7f163c4a11628f55a4df523b3ef",
                        "0x0000000000000000000000005513ff35b8cc25f126bfbccc8d2bf91fcc023522",
                        "0x000000000000000000000000509347488209f80dc1d97076591db92a023556ef"
                    ]
                },
                "nodeType": 1
            },
            "24": {
                "event": {
                    "contract": "0x5513ff35b8cc25f126bfbccc8d2bf91fcc023522",
                    "decodedLog": null,
                    "id": 24,
                    "logData": "0x0000000000000000000000005513ff35b8cc25f126bfbccc8d2bf91fcc0235221034d750c2969bf63bf2044583971dcb321d71936754f91dd6e163e0bb2e30af0000000000000000000000009b64ec9aac04663f9cdef37bc875611bd7d7c510000000000000000000000000000000000000000000000000000000571bf4342f000000000000000000000000d4ffea239cff59790b10f9a982dd289a355d5fb50000000000000000000000000000000000000000000000000000b5e620f4800000000000000000000000000007e98968b56a604104c898c3feca4b2af61d669900000000000000000000000078e6b0f1bee3c627c2ca58df3db91bc4c636da46d5f0a6877695c5cf31502c884a5244b5259c06bdec6aa6007a640d1ca58da97fb35af6e28ba251fe5262906c47ad849ce4f1d5248e7ada7593d0a4321187bb9e0000000000000000000000000000000000000000000000000000000000000001000000000000000000000000860f231de21a6e614950f3bbbc1d172caffc717a000000000000000000000000000000000000000000000000000000005eee78341034d750c2969bf63bf2044583971dcb321d71936754f91dd6e163e0bb2e30af0000000000000000000000000000000000000000000000000000000000000056000000000000000000000000000000000000000000000000000000000000005500000000000000000000000000000000000000000000000000000065143b8c2f0000000000000000000000000000000000000000000000000000b5d828ad280000000000000000000000000000000000000000000000000000000062f3f95a00570530e20268395049bf8a1970ed0ed9a2cef9ef9958becd038b98105d5ac8ca4da0e408d2047e2f2167435b64e8e220f5019eb0e39443a00c6eb7e4ff4d5c410000000000000000000000000000000000000000000000000000000000000002000000000000000000000000000000000000000000000000000000012a05f200000000000000000000000000000000000000000000000000000000012a05f20000000000000000000000000000000000000000000000000000000021c2ac6a000000000000000000000000000000000000000000000000000000000000000000000000000000000000000000000000000000000000000000000000000000000600000000000000000000000000000000000000000000000b000200030012001000000000000000000000000000000000000000000000000300000000000000000000000000000000000000000000000000000000000000000000000000030600000000000000000000000000000000000000000000000000000000000005190000000000000000000000000000000000000000000000000000000022ecb25c00000000000000000000000000000000190000000000000000000000000bebc20000000000000000000000000000000000000000000000000000000000000000090000000000000000000000000000000000000000000000000000000000000000000000000000000000000000000000000000000000000000000000000000ff00000000000000000000000000000000000000000000000000000000000000000000000000000000000000000000000000000000000000000000000000000000000000000000000000000000000000000000000000000000000000000000000000000000000000000000000000000000000000000000000000000000000000000000000000000000000000000000000000000000000000000000000000000000000000000000000000000000000000000000000000000000000000000000000000000000000000000000000000000000000000000000000000000000000000000100000000000000000000000000000000000000000000000000000065143b8c2f0000000000000000000000000000000000000000000000000000b5d7d79d340000000000000000000000000000000000000000000000000000000000510ff400000000000000000000000000000000000000000000000000000000000000000000000000000000000000000000000000000000000000000000000000000000000000000000000000000000009b64ec9aac04663f9cdef37bc875611bd7d7c510000000000000000000000000860f231de21a6e614950f3bbbc1d172caffc717a00000000000000000000000076e275fbb8bc233d4efb9c20b6e2ddb408402ace0000000000000000000000000000000000000000000000000000000000000000000000000000000000000000509347488209f80dc1d97076591db92a023556ef0000000000000000000000000000000000000000000000000000000000000000000000000000000000000000000000000000000000000000000000005eee7a7700000000000000000000000000000000000000000000000000000000000000000000000000000000000000000000000000000000000000000000000000000000",
                    "logDecoded": false,
                    "operation": "EVENT",
                    "revert": false,
                    "status": true,
                    "topics": [
                        "0x7acbcd6278cc39b736e5516c8ca327715768f5f5830e3f6961a7b268a9c671fe",
                        "0x1034d750c2969bf63bf2044583971dcb321d71936754f91dd6e163e0bb2e30af",
                        "0x0000000000000000000000009b64ec9aac04663f9cdef37bc875611bd7d7c510",
                        "0x000000000000000000000000d4ffea239cff59790b10f9a982dd289a355d5fb5"
                    ]
                },
                "nodeType": 1
            },
            "3": {
                "invocation": {
                    "address": "0x07e98968b56a604104c898c3feca4b2af61d6699",
                    "callData": "0x",
                    "decodedMethod": null,
                    "errorInfo": "",
                    "fromAddress": "0x5513ff35b8cc25f126bfbccc8d2bf91fcc023522",
                    "gasUsed": 566,
                    "id": 3,
                    "methodDecoded": false,
                    "operation": "CALL",
                    "output": "0x000000000000000000000000000000000000000000000000000000023c346000000000000000000000000000000000000000000000000000000000000000000a",
                    "revert": false,
                    "revertMessage": "",
                    "selector": "0x52279818",
                    "status": true,
                    "value": "0"
                },
                "nodeType": 0
            },
            "4": {
                "invocation": {
                    "address": "0x87a3d34e694cf061cd98cdf1621ca8945679337d",
                    "callData": "0x0000000000000000000000009b64ec9aac04663f9cdef37bc875611bd7d7c510000000000000000000000000d4ffea239cff59790b10f9a982dd289a355d5fb5",
                    "decodedMethod": null,
                    "errorInfo": "",
                    "fromAddress": "0x5513ff35b8cc25f126bfbccc8d2bf91fcc023522",
                    "gasUsed": 5210,
                    "id": 4,
                    "methodDecoded": false,
                    "operation": "CALL",
                    "output": "0x00000000000000000000000000000000000000000000000000000000000000000000000000000000000000000000000000000000000000000000000000000000000000000000000000000000000000000000000000000000000000000000000000000000000000000000000000000000000000000000000000000000000000000000000000000000000000000000000000000000000000000000000000000000",
                    "revert": false,
                    "revertMessage": "",
                    "selector": "0xcd223289",
                    "status": true,
                    "value": "0"
                },
                "nodeType": 0
            },
            "5": {
                "invocation": {
                    "address": "0x07e98968b56a604104c898c3feca4b2af61d6699",
                    "callData": "0x",
                    "decodedMethod": null,
                    "errorInfo": "",
                    "fromAddress": "0x5513ff35b8cc25f126bfbccc8d2bf91fcc023522",
                    "gasUsed": 1841,
                    "id": 5,
                    "methodDecoded": false,
                    "operation": "CALL",
                    "output": "0x00000000000000000000000076e275fbb8bc233d4efb9c20b6e2ddb408402ace",
                    "revert": false,
                    "revertMessage": "",
                    "selector": "0xbdee0433",
                    "status": true,
                    "value": "0"
                },
                "nodeType": 0
            },
            "6": {
                "invocation": {
                    "address": "0x07e98968b56a604104c898c3feca4b2af61d6699",
                    "callData": "0x",
                    "decodedMethod": null,
                    "errorInfo": "",
                    "fromAddress": "0x5513ff35b8cc25f126bfbccc8d2bf91fcc023522",
                    "gasUsed": 448,
                    "id": 6,
                    "methodDecoded": false,
                    "operation": "CALL",
                    "output": "0x0000000000000000000000000000000000000000000000000000000000000008",
                    "revert": false,
                    "revertMessage": "",
                    "selector": "0x371ad836",
                    "status": true,
                    "value": "0"
                },
                "nodeType": 0
            },
            "7": {
                "invocation": {
                    "address": "0x74b303dd79bbf44d23d60891bdd0f31df87bc7b8",
                    "callData": "0x",
                    "decodedMethod": {
                        "callParams": [],
                        "constructorArguments": "",
                        "name": "getTokenAddress",
                        "returnParams": [
                            {
                                "name": "",
                                "type": "address",
                                "value": "0x419d0d8bdd9af5e606ae2232ed285aff190e711b"
                            }
                        ],
                        "signature": "getTokenAddress()"
                    },
                    "errorInfo": "",
                    "fromAddress": "0x5513ff35b8cc25f126bfbccc8d2bf91fcc023522",
                    "gasUsed": 1159,
                    "id": 7,
                    "methodDecoded": true,
                    "operation": "CALL",
                    "output": "0x000000000000000000000000419d0d8bdd9af5e606ae2232ed285aff190e711b",
                    "revert": false,
                    "revertMessage": "",
                    "selector": "0x10fe9ae8",
                    "status": true,
                    "value": "0"
                },
                "nodeType": 0
            },
            "8": {
                "invocation": {
                    "address": "0x419d0d8bdd9af5e606ae2232ed285aff190e711b",
                    "callData": "0x0000000000000000000000009b64ec9aac04663f9cdef37bc875611bd7d7c51000000000000000000000000000000000000000000000000000000065143b8c2f",
                    "decodedMethod": {
                        "callParams": [
                            {
                                "name": "_to",
                                "type": "address",
                                "value": "0x9b64ec9aac04663f9cdef37bc875611bd7d7c510"
                            },
                            {
                                "decimalAvailable": true,
                                "name": "_value",
                                "type": "uint256",
                                "value": "434,131,143,727"
                            }
                        ],
                        "constructorArguments": "",
                        "name": "transfer",
                        "returnParams": [
                            {
                                "name": "success",
                                "type": "bool",
                                "value": true
                            }
                        ],
                        "signature": "transfer(address,uint256)"
                    },
                    "errorInfo": "",
                    "fromAddress": "0x5513ff35b8cc25f126bfbccc8d2bf91fcc023522",
                    "gasUsed": 41491,
                    "id": 8,
                    "methodDecoded": true,
                    "operation": "CALL",
                    "output": "0x0000000000000000000000000000000000000000000000000000000000000001",
                    "revert": false,
                    "revertMessage": "",
                    "selector": "0xa9059cbb",
                    "status": true,
                    "value": "0"
                },
                "nodeType": 0
            },
            "9": {
                "invocation": {
                    "address": "0x74b303dd79bbf44d23d60891bdd0f31df87bc7b8",
                    "callData": "0x0000000000000000000000005513ff35b8cc25f126bfbccc8d2bf91fcc0235220000000000000000000000009b64ec9aac04663f9cdef37bc875611bd7d7c51000000000000000000000000000000000000000000000000000000065143b8c2f",
                    "decodedMethod": {
                        "callParams": [
                            {
                                "name": "_from",
                                "type": "address",
                                "value": "0x5513ff35b8cc25f126bfbccc8d2bf91fcc023522"
                            },
                            {
                                "name": "_to",
                                "type": "address",
                                "value": "0x9b64ec9aac04663f9cdef37bc875611bd7d7c510"
                            },
                            {
                                "name": "_wad",
                                "type": "uint256",
                                "value": "434,131,143,727"
                            }
                        ],
                        "constructorArguments": "",
                        "name": "transfer",
                        "returnParams": [],
                        "signature": "transfer(address,address,uint256)"
                    },
                    "errorInfo": "",
                    "fromAddress": "0x419d0d8bdd9af5e606ae2232ed285aff190e711b",
                    "gasUsed": 36048,
                    "id": 9,
                    "methodDecoded": true,
                    "operation": "CALL",
                    "output": "0x0000000000000000000000000000000000000000000000000000000000000001",
                    "revert": false,
                    "revertMessage": "",
                    "selector": "0xbeabacc8",
                    "status": true,
                    "value": "0"
                },
                "nodeType": 0
            }
        },
        "gasFlame": [
            {
                "children": [
                    {
                        "children": [
                            {
                                "children": [],
                                "depth": 0,
                                "name": "Initial Gas",
                                "value": 35376
                            },
                            {
                                "children": [
                                    {
                                        "children": [],
                                        "depth": 1,
                                        "name": "ecrecover",
                                        "value": 3000
                                    },
                                    {
                                        "children": [],
                                        "depth": 1,
                                        "name": "ecrecover",
                                        "value": 3000
                                    },
                                    {
                                        "children": [],
                                        "depth": 1,
                                        "name": "0x52279818",
                                        "value": 566
                                    },
                                    {
                                        "children": [],
                                        "depth": 1,
                                        "name": "0xcd223289",
                                        "value": 5210
                                    },
                                    {
                                        "children": [],
                                        "depth": 1,
                                        "name": "0xbdee0433",
                                        "value": 1841
                                    },
                                    {
                                        "children": [],
                                        "depth": 1,
                                        "name": "0x371ad836",
                                        "value": 448
                                    },
                                    {
                                        "children": [],
                                        "depth": 1,
                                        "name": "getTokenAddress",
                                        "value": 1159
                                    },
                                    {
                                        "children": [
                                            {
                                                "children": [
                                                    {
                                                        "children": [],
                                                        "depth": 3,
                                                        "name": "transfer",
                                                        "value": 29881
                                                    }
                                                ],
                                                "depth": 2,
                                                "name": "transfer",
                                                "value": 36048
                                            }
                                        ],
                                        "depth": 1,
                                        "name": "transfer",
                                        "value": 41491
                                    },
                                    {
                                        "children": [
                                            {
                                                "children": [
                                                    {
                                                        "children": [],
                                                        "depth": 3,
                                                        "name": "transfer",
                                                        "value": 10681
                                                    }
                                                ],
                                                "depth": 2,
                                                "name": "transfer",
                                                "value": 16848
                                            }
                                        ],
                                        "depth": 1,
                                        "name": "transfer",
                                        "value": 22291
                                    },
                                    {
                                        "children": [
                                            {
                                                "children": [
                                                    {
                                                        "children": [],
                                                        "depth": 3,
                                                        "name": "transfer",
                                                        "value": 10681
                                                    }
                                                ],
                                                "depth": 2,
                                                "name": "transfer",
                                                "value": 16848
                                            }
                                        ],
                                        "depth": 1,
                                        "name": "transfer",
                                        "value": 22291
                                    },
                                    {
                                        "children": [
                                            {
                                                "children": [
                                                    {
                                                        "children": [],
                                                        "depth": 3,
                                                        "name": "transfer",
                                                        "value": 6481
                                                    }
                                                ],
                                                "depth": 2,
                                                "name": "transfer",
                                                "value": 12648
                                            }
                                        ],
                                        "depth": 1,
                                        "name": "transfer",
                                        "value": 18091
                                    }
                                ],
                                "depth": 0,
                                "name": "Executed Gas",
                                "value": 191357
                            }
                        ],
                        "depth": -1,
                        "name": "Actual Gas Used",
                        "value": 196733
                    },
                    {
                        "children": [],
                        "depth": -1,
                        "name": "Refunded Gas",
                        "value": 30000
                    }
                ],
                "depth": -2,
                "name": "Total Gas",
                "value": 226733
            }
        ],
        "isConfirmed": true,
        "mainTrace": [
            {
                "children": [
                    {
                        "children": [
                            {
                                "children": [],
                                "depth": 1,
                                "id": 1,
                                "order": 1
                            },
                            {
                                "children": [],
                                "depth": 1,
                                "id": 2,
                                "order": 2
                            },
                            {
                                "children": [],
                                "depth": 1,
                                "id": 3,
                                "order": 3
                            },
                            {
                                "children": [],
                                "depth": 1,
                                "id": 4,
                                "order": 4
                            },
                            {
                                "children": [],
                                "depth": 1,
                                "id": 5,
                                "order": 5
                            },
                            {
                                "children": [],
                                "depth": 1,
                                "id": 6,
                                "order": 6
                            },
                            {
                                "children": [],
                                "depth": 1,
                                "id": 7,
                                "order": 7
                            },
                            {
                                "children": [
                                    {
                                        "children": [
                                            {
                                                "children": [],
                                                "depth": 3,
                                                "id": 10,
                                                "order": 10
                                            }
                                        ],
                                        "depth": 2,
                                        "id": 9,
                                        "order": 9
                                    },
                                    {
                                        "children": [],
                                        "depth": 2,
                                        "id": 11,
                                        "order": 11
                                    }
                                ],
                                "depth": 1,
                                "id": 8,
                                "order": 8
                            },
                            {
                                "children": [
                                    {
                                        "children": [
                                            {
                                                "children": [],
                                                "depth": 3,
                                                "id": 14,
                                                "order": 14
                                            }
                                        ],
                                        "depth": 2,
                                        "id": 13,
                                        "order": 13
                                    },
                                    {
                                        "children": [],
                                        "depth": 2,
                                        "id": 15,
                                        "order": 15
                                    }
                                ],
                                "depth": 1,
                                "id": 12,
                                "order": 12
                            },
                            {
                                "children": [
                                    {
                                        "children": [
                                            {
                                                "children": [],
                                                "depth": 3,
                                                "id": 18,
                                                "order": 18
                                            }
                                        ],
                                        "depth": 2,
                                        "id": 17,
                                        "order": 17
                                    },
                                    {
                                        "children": [],
                                        "depth": 2,
                                        "id": 19,
                                        "order": 19
                                    }
                                ],
                                "depth": 1,
                                "id": 16,
                                "order": 16
                            },
                            {
                                "children": [
                                    {
                                        "children": [
                                            {
                                                "children": [],
                                                "depth": 3,
                                                "id": 22,
                                                "order": 22
                                            }
                                        ],
                                        "depth": 2,
                                        "id": 21,
                                        "order": 21
                                    },
                                    {
                                        "children": [],
                                        "depth": 2,
                                        "id": 23,
                                        "order": 23
                                    }
                                ],
                                "depth": 1,
                                "id": 20,
                                "order": 20
                            },
                            {
                                "children": [],
                                "depth": 1,
                                "id": 24,
                                "order": 24
                            }
                        ],
                        "depth": 0,
                        "id": 0,
                        "order": 0
                    }
                ],
                "depth": -1,
                "id": -1,
                "order": -1
            }
        ],
        "mainTraceNodeCount": 25,
        "parentIdMap": {
            "0": -1,
            "1": 0,
            "10": 9,
            "11": 8,
            "12": 0,
            "13": 12,
            "14": 13,
            "15": 12,
            "16": 0,
            "17": 16,
            "18": 17,
            "19": 16,
            "2": 0,
            "20": 0,
            "21": 20,
            "22": 21,
            "23": 20,
            "24": 0,
            "3": 0,
            "4": 0,
            "5": 0,
            "6": 0,
            "7": 0,
            "8": 0,
            "9": 8
        },
        "tidyTrace": [
            {
                "children": [
                    {
                        "children": [
                            {
                                "children": [],
                                "depth": 1,
                                "id": 1,
                                "order": 1
                            },
                            {
                                "children": [],
                                "depth": 1,
                                "id": 2,
                                "order": 2
                            },
                            {
                                "children": [],
                                "depth": 1,
                                "id": 3,
                                "order": 3
                            },
                            {
                                "children": [],
                                "depth": 1,
                                "id": 4,
                                "order": 4
                            },
                            {
                                "children": [],
                                "depth": 1,
                                "id": 5,
                                "order": 5
                            },
                            {
                                "children": [],
                                "depth": 1,
                                "id": 6,
                                "order": 6
                            },
                            {
                                "children": [],
                                "depth": 1,
                                "id": 7,
                                "order": 7
                            },
                            {
                                "children": [
                                    {
                                        "children": [
                                            {
                                                "children": [],
                                                "depth": 3,
                                                "id": 10,
                                                "order": 10
                                            }
                                        ],
                                        "depth": 2,
                                        "id": 9,
                                        "order": 9
                                    },
                                    {
                                        "children": [],
                                        "depth": 2,
                                        "id": 11,
                                        "order": 11
                                    }
                                ],
                                "depth": 1,
                                "id": 8,
                                "order": 8
                            },
                            {
                                "children": [
                                    {
                                        "children": [
                                            {
                                                "children": [],
                                                "depth": 3,
                                                "id": 14,
                                                "order": 14
                                            }
                                        ],
                                        "depth": 2,
                                        "id": 13,
                                        "order": 13
                                    },
                                    {
                                        "children": [],
                                        "depth": 2,
                                        "id": 15,
                                        "order": 15
                                    }
                                ],
                                "depth": 1,
                                "id": 12,
                                "order": 12
                            },
                            {
                                "children": [
                                    {
                                        "children": [
                                            {
                                                "children": [],
                                                "depth": 3,
                                                "id": 18,
                                                "order": 18
                                            }
                                        ],
                                        "depth": 2,
                                        "id": 17,
                                        "order": 17
                                    },
                                    {
                                        "children": [],
                                        "depth": 2,
                                        "id": 19,
                                        "order": 19
                                    }
                                ],
                                "depth": 1,
                                "id": 16,
                                "order": 16
                            },
                            {
                                "children": [
                                    {
                                        "children": [
                                            {
                                                "children": [],
                                                "depth": 3,
                                                "id": 22,
                                                "order": 22
                                            }
                                        ],
                                        "depth": 2,
                                        "id": 21,
                                        "order": 21
                                    },
                                    {
                                        "children": [],
                                        "depth": 2,
                                        "id": 23,
                                        "order": 23
                                    }
                                ],
                                "depth": 1,
                                "id": 20,
                                "order": 20
                            },
                            {
                                "children": [],
                                "depth": 1,
                                "id": 24,
                                "order": 24
                            }
                        ],
                        "depth": 0,
                        "id": 0,
                        "order": 0
                    }
                ],
                "depth": -1,
                "id": -1,
                "order": -1
            }
        ],
        "tidyTraceNodeCount": 25
    },
    "state_change": {
        "stateChanges": [
            {
                "address": "0x5513ff35b8cc25f126bfbccc8d2bf91fcc023522",
                "erc": "",
                "slots": [
                    {
                        "current": "0x0000000000000000000000000000000000000000000000000000000000000002",
                        "key": "0x7dd1825fea28c4e6ccdc6ad991905b79172e8febe0480dfb158495c66161e718",
                        "prev": "0x0000000000000000000000000000000000000000000000000000000000000001"
                    },
                    {
                        "current": "0x0000000000000000000000000000000000000000000000000000000000000000",
                        "key": "0x7dd1825fea28c4e6ccdc6ad991905b79172e8febe0480dfb158495c66161e71a",
                        "prev": "0x0000000000000000000000000000000000000000000000000000b63d3ce8b42f"
                    },
                    {
                        "current": "0x0000000000000000000000000000000000000000000000000000000000000000",
                        "key": "0x19554df231c457ed4b5ed2e291e2e7a8df0f4cb9e8d21f4da35d901551d5639c",
                        "prev": "0x0000000000000000000000000000000000000000000000000000000000000001"
                    }
                ],
                "storageVariables": []
            },
            {
                "address": "0xe6a51bd48f93abcd6c1d532112094044971d8d4e",
                "erc": "",
                "slots": [
                    {
                        "current": "0x000000000000000000000000000000000000000000000000000305a2440df1e2",
                        "key": "0xd53f0a318d6ec760389edf46d125c5a09deeab7850008c7d2a5fbeb3db06ea8b",
                        "prev": "0x0000000000000000000000000000000000000000000000000003bbdf80f6a611"
                    },
                    {
                        "current": "0x00000000000000000000000000000000000000000000000000000065143b8c2f",
                        "key": "0xcfbb3e389fe66dd6d19dc1d7851fbec5e5d576b46e617ba25676554c4a8b9644",
                        "prev": "0x0000000000000000000000000000000000000000000000000000000000000000"
                    },
                    {
                        "current": "0x000000000000000000000000000000000000000000000000000d55822bb215ff",
                        "key": "0xc168c86de13ff8d7884d950e86d888f0dbe2eba112a7821de06381dd070e5650",
                        "prev": "0x000000000000000000000000000000000000000000000000000c9faa5414e1ff"
                    },
                    {
                        "current": "0x000000000000000000000000000000000000000000000000000086ea93756045",
                        "key": "0x14ffbecd7b00052e44cc645747f36bc6f2b76d3456cd17b482026391155da50a",
                        "prev": "0x000000000000000000000000000000000000000000000000000086ea42656c45"
                    }
                ],
                "storageVariables": []
            }
        ]
    }
}