{
    "balance_change": {
        "balanceChanges": [
            {
                "account": "0x28c6c06298d514db089934071355e5743bf21d60",
                "assets": [
                    {
                        "address": "0x4fabb145d64652a948d72533023f6e7a623c7c53",
                        "amount": "71.18064528",
                        "iconUrl": "https://assets.blocksec.com/icon/44c0517505de57ba1a69e680322278ec3ff194135b5d2201c1548f2152fcc1cf.png",
                        "isERC1155": false,
                        "isERC721": false,
                        "sign": false,
                        "value": "71.16640915094400156"
                    }
                ]
            },
            {
                "account": "0x3bfd51564e83275258b82a66f7a83fdd0804aa47",
                "assets": [
                    {
                        "address": "0x4fabb145d64652a948d72533023f6e7a623c7c53",
                        "amount": "71.18064528",
                        "iconUrl": "https://assets.blocksec.com/icon/44c0517505de57ba1a69e680322278ec3ff194135b5d2201c1548f2152fcc1cf.png",
                        "isERC1155": false,
                        "isERC721": false,
                        "sign": true,
                        "value": "71.16640915094400156"
                    }
                ]
            }
        ]
    },
    "profile": {
        "basic_info": {
            "baseFee": "8.076371642",
            "blockNumber": 15624196,
            "callData": "0xa9059cbb0000000000000000000000003bfd51564e83275258b82a66f7a83fdd0804aa47000000000000000000000000000000000000000000000003dbd473c03d7c4000",
            "debugEnable": true,
            "errorInfo": "",
            "eventCount": 1,
            "feeRecipient": "0x4675c7e5baafbffbca748158becba61ef3b0a263",
            "formatValue": "0",
            "gasLimit": 207128,
            "gasPrice": "10.076371642",
            "gasUsed": 66335,
            "intTxnCount": 1,
            "internalRevert": false,
            "internalRevertMessage": "",
            "isContractCreation": false,
            "isFlashloan": false,
            "maxFee": "102",
            "nonce": 4705057,
            "overwritedBlockNumber": -1,
            "priorityFee": "2",
            "receiver": "0x4fabb145d64652a948d72533023f6e7a623c7c53",
            "revertMessage": "",
            "sender": "0x28c6c06298d514db089934071355e5743bf21d60",
            "simulationEnable": true,
            "sourceTxnHash": "0xade4cf0ed1e47908489b2155ddeb97f61860bbc9f8de1b2ecf47f76d9b0ac147",
            "status": true,
            "timestamp": "2022-09-27T10:48:47Z",
            "transactionFee": "0.00066841611287207",
            "txnHash": "0xade4cf0ed1e47908489b2155ddeb97f61860bbc9f8de1b2ecf47f76d9b0ac147",
            "txnIndex": 25,
            "type": 2,
            "value": "0"
        },
        "fund_flow": [
            {
                "amount": "71.18064528",
                "from": "0x28c6c06298d514db089934071355e5743bf21d60",
                "id": 1,
                "isERC1155": false,
                "isERC721": false,
                "isReverted": false,
                "order": 1,
                "to": "0x3bfd51564e83275258b82a66f7a83fdd0804aa47",
                "token": "0x4fabb145d64652a948d72533023f6e7a623c7c53"
            }
        ],
        "token_infos": [
            {
                "address": "0x4fabb145d64652a948d72533023f6e7a623c7c53",
                "decimals": 18
            },
            {
                "address": "0xc02aaa39b223fe8d0a0e5c4f27ead9083c756cc2",
                "decimals": 18
            },
            {
                "address": "0xeeeeeeeeeeeeeeeeeeeeeeeeeeeeeeeeeeeeeeee",
                "decimals": 18
            }
        ]
    },
    "address_label": {
        "labels": [
            {
                "address": "0x5864c777697bf9881220328bf2f16908c9afcd7e",
                "label": "Binance USD (BUSD)"
            },
            {
                "address": "0x4fabb145d64652a948d72533023f6e7a623c7c53",
                "label": "Paxos: BUSD Token"
            },
            {
                "address": "0x28c6c06298d514db089934071355e5743bf21d60",
                "label": "Binance 14"
            },
            {
                "address": "0x0000000000000000000000000000000000000001",
                "label": "Precompiled"
            },
            {
                "address": "0x0000000000000000000000000000000000000002",
                "label": "Precompiled"
            },
            {
                "address": "0x0000000000000000000000000000000000000003",
                "label": "Precompiled"
            },
            {
                "address": "0x0000000000000000000000000000000000000004",
                "label": "Precompiled"
            },
            {
                "address": "0xeeeeeeeeeeeeeeeeeeeeeeeeeeeeeeeeeeeeeeee",
                "label": "Ether"
            }
        ]
    },
    "trace": {
        "accountLabels": null,
        "dataMap": {
            "-1": {
                "invocation": {
                    "address": "0x28c6c06298d514db089934071355e5743bf21d60",
                    "callData": "",
                    "decodedMethod": null,
                    "errorInfo": "",
                    "fromAddress": "",
                    "gasUsed": 0,
                    "id": -1,
                    "methodDecoded": false,
                    "operation": "",
                    "output": "",
                    "revert": false,
                    "revertMessage": "",
                    "selector": "",
                    "status": false,
                    "value": ""
                },
                "nodeType": 0
            },
            "0": {
                "invocation": {
                    "address": "0x4fabb145d64652a948d72533023f6e7a623c7c53",
                    "callData": "0x0000000000000000000000003bfd51564e83275258b82a66f7a83fdd0804aa47000000000000000000000000000000000000000000000003dbd473c03d7c4000",
                    "decodedMethod": {
                        "callParams": [
                            {
                                "name": "_to",
                                "type": "address",
                                "value": "0x3bfd51564e83275258b82a66f7a83fdd0804aa47"
                            },
                            {
                                "decimalAvailable": true,
                                "name": "_value",
                                "type": "uint256",
                                "value": "71,180,645,280,000,000,000"
                            }
                        ],
                        "constructorArguments": "",
                        "name": "transfer",
                        "returnParams": [
                            {
                                "name": "",
                                "type": "bool",
                                "value": true
                            }
                        ],
                        "signature": "transfer(address,uint256)"
                    },
                    "errorInfo": "",
                    "fromAddress": "0x28c6c06298d514db089934071355e5743bf21d60",
                    "gasUsed": 66335,
                    "id": 0,
                    "methodDecoded": true,
                    "operation": "CALL",
                    "output": "0x0000000000000000000000000000000000000000000000000000000000000001",
                    "revert": false,
                    "revertMessage": "",
                    "selector": "0xa9059cbb",
                    "status": true,
                    "value": "0"
                },
                "nodeType": 0
            },
            "1": {
                "invocation": {
                    "address": "0x5864c777697bf9881220328bf2f16908c9afcd7e",
                    "callData": "0x0000000000000000000000003bfd51564e83275258b82a66f7a83fdd0804aa47000000000000000000000000000000000000000000000003dbd473c03d7c4000",
                    "decodedMethod": {
                        "callParams": [
                            {
                                "name": "_to",
                                "type": "address",
                                "value": "0x3bfd51564e83275258b82a66f7a83fdd0804aa47"
                            },
                            {
                                "decimalAvailable": true,
                                "name": "_value",
                                "type": "uint256",
                                "value": "71,180,645,280,000,000,000"
                            }
                        ],
                        "constructorArguments": "",
                        "name": "transfer",
                        "returnParams": [
                            {
                                "name": "",
                                "type": "bool",
                                "value": true
                            }
                        ],
                        "signature": "transfer(address,uint256)"
                    },
                    "errorInfo": "",
                    "fromAddress": "0x4fabb145d64652a948d72533023f6e7a623c7c53",
                    "gasUsed": 37397,
                    "id": 1,
                    "methodDecoded": true,
                    "operation": "DELEGATECALL",
                    "output": "0x0000000000000000000000000000000000000000000000000000000000000001",
                    "revert": false,
                    "revertMessage": "",
                    "selector": "0xa9059cbb",
                    "status": true,
                    "value": "0"
                },
                "nodeType": 0
            },
            "2": {
                "event": {
                    "contract": "0x4fabb145d64652a948d72533023f6e7a623c7c53",
                    "decodedLog": {
                        "name": "Transfer",
                        "params": [
                            {
                                "name": "from",
                                "type": "address",
                                "value": "0x28c6c06298d514db089934071355e5743bf21d60"
                            },
                            {
                                "name": "to",
                                "type": "address",
                                "value": "0x3bfd51564e83275258b82a66f7a83fdd0804aa47"
                            },
                            {
                                "decimalAvailable": true,
                                "name": "value",
                                "type": "uint256",
                                "value": "71,180,645,280,000,000,000"
                            }
                        ],
                        "signature": "Transfer(address,address,uint256)"
                    },
                    "id": 2,
                    "logData": "0x000000000000000000000000000000000000000000000003dbd473c03d7c4000",
                    "logDecoded": true,
                    "operation": "EVENT",
                    "revert": false,
                    "status": true,
                    "topics": [
                        "0xddf252ad1be2c89b69c2b068fc378daa952ba7f163c4a11628f55a4df523b3ef",
                        "0x00000000000000000000000028c6c06298d514db089934071355e5743bf21d60",
                        "0x0000000000000000000000003bfd51564e83275258b82a66f7a83fdd0804aa47"
                    ]
                },
                "nodeType": 1
            }
        },
        "gasFlame": [
            {
                "children": [
                    {
                        "children": [
                            {
                                "children": [],
                                "depth": 0,
                                "name": "Initial Gas",
                                "value": 21656
                            },
                            {
                                "children": [
                                    {
                                        "children": [],
                                        "depth": 1,
                                        "name": "transfer",
                                        "value": 37397
                                    }
                                ],
                                "depth": 0,
                                "name": "Executed Gas",
                                "value": 44679
                            }
                        ],
                        "depth": -1,
                        "name": "Actual Gas Used",
                        "value": 66335
                    },
                    {
                        "children": [],
                        "depth": -1,
                        "name": "Refunded Gas",
                        "value": 0
                    }
                ],
                "depth": -2,
                "name": "Total Gas",
                "value": 66335
            }
        ],
        "isConfirmed": true,
        "mainTrace": [
            {
                "children": [
                    {
                        "children": [
                            {
                                "children": [
                                    {
                                        "children": [],
                                        "depth": 2,
                                        "id": 2,
                                        "order": 2
                                    }
                                ],
                                "depth": 1,
                                "id": 1,
                                "order": 1
                            }
                        ],
                        "depth": 0,
                        "id": 0,
                        "order": 0
                    }
                ],
                "depth": -1,
                "id": -1,
                "order": -1
            }
        ],
        "mainTraceNodeCount": 3,
        "parentIdMap": {
            "0": -1,
            "1": 0,
            "2": 1
        },
        "tidyTrace": [
            {
                "children": [
                    {
                        "children": [
                            {
                                "children": [
                                    {
                                        "children": [],
                                        "depth": 2,
                                        "id": 2,
                                        "order": 2
                                    }
                                ],
                                "depth": 1,
                                "id": 1,
                                "order": 1
                            }
                        ],
                        "depth": 0,
                        "id": 0,
                        "order": 0
                    }
                ],
                "depth": -1,
                "id": -1,
                "order": -1
            }
        ],
        "tidyTraceNodeCount": 3
    },
    "state_change": {
        "stateChanges": [
            {
                "address": "0x4fabb145d64652a948d72533023f6e7a623c7c53",
                "erc": "ERC-20",
                "slots": [
                    {
                        "current": "0x0000000000000000000000000000000000000000008747897f0b065b97368eae",
                        "key": "0x83bdb921ef22306a5d1cd2076713b14c9c19f333dd4229674ec19884e7413404",
                        "prev": "0x00000000000000000000000000000000000000000087478d5adf7a1bd4b2ceae"
                    },
                    {
                        "current": "0x000000000000000000000000000000000000000000000003dbd473c03d7c4000",
                        "key": "0x164e860a241ae716e160a43de3ea3a2f491810753ea94edf177fa95b79f7b97f",
                        "prev": "0x0000000000000000000000000000000000000000000000000000000000000000"
                    }
                ],
                "storageVariables": [
                    {
                        "name": "balances",
                        "type": "mapping(address => uint256)",
                        "value": {
                            "pairs": [
                                {
                                    "key": "0x28c6c06298d514db089934071355e5743bf21d60",
                                    "value": {
                                        "current": "163542810026614439613468334",
                                        "prev": "163542881207259719613468334",
                                        "typeTag": 1
                                    }
                                },
                                {
                                    "key": "0x3bfd51564e83275258b82a66f7a83fdd0804aa47",
                                    "value": {
                                        "current": "71180645280000000000",
                                        "prev": "0",
                                        "typeTag": 1
                                    }
                                }
                            ],
                            "typeTag": 4
                        }
                    }
                ]
            }
        ]
    }
}