{
    "balance_change": {
        "balanceChanges": [
            {
                "account": "0xe71f0bde00c709d06f560076e641f6042f28912c",
                "assets": [
                    {
                        "address": "0xeeeeeeeeeeeeeeeeeeeeeeeeeeeeeeeeeeeeeeee",
                        "amount": "0.01",
                        "iconUrl": "https://assets.blocksec.com/image/1663669189317-3.png",
                        "isERC1155": false,
                        "isERC721": false,
                        "sign": false,
                        "value": "28.880079"
                    },
                    {
                        "address": "0x0f8a146d8ce682bfc55d286ba96880eb5cf7d5b5",
                        "amount": "1,673,072.794007030246742198",
                        "iconUrl": "",
                        "isERC1155": false,
                        "isERC721": false,
                        "sign": true,
                        "value": "24.93984655"
                    }
                ]
            },
            {
                "account": "0xc02aaa39b223fe8d0a0e5c4f27ead9083c756cc2",
                "assets": [
                    {
                        "address": "0xeeeeeeeeeeeeeeeeeeeeeeeeeeeeeeeeeeeeeeee",
                        "amount": "0.01",
                        "iconUrl": "https://assets.blocksec.com/image/1663669189317-3.png",
                        "isERC1155": false,
                        "isERC721": false,
                        "sign": true,
                        "value": "28.880079"
                    },
                    {
                        "address": "0xc02aaa39b223fe8d0a0e5c4f27ead9083c756cc2",
                        "amount": "0.01",
                        "iconUrl": "https://assets.blocksec.com/icon/f1cb2d02c471d545bbc7722daf3277fd852d98e63d118771af7047bd8256c516.png",
                        "isERC1155": false,
                        "isERC721": false,
                        "sign": false,
                        "value": "28.880079"
                    }
                ]
            },
            {
                "account": "0xca118956167f97dbca95d16410fc56cce5086d9e",
                "assets": [
                    {
                        "address": "0xc02aaa39b223fe8d0a0e5c4f27ead9083c756cc2",
                        "amount": "0.01",
                        "iconUrl": "https://assets.blocksec.com/icon/f1cb2d02c471d545bbc7722daf3277fd852d98e63d118771af7047bd8256c516.png",
                        "isERC1155": false,
                        "isERC721": false,
                        "sign": true,
                        "value": "28.880079"
                    },
                    {
                        "address": "0x0f8a146d8ce682bfc55d286ba96880eb5cf7d5b5",
                        "amount": "1,673,072.794007030246742198",
                        "iconUrl": "",
                        "isERC1155": false,
                        "isERC721": false,
                        "sign": false,
                        "value": "24.93984655"
                    }
                ]
            }
        ]
    },
    "profile": {
        "basic_info": {
            "baseFee": "25.579684057",
            "blockNumber": 19259318,
            "callData": "0xb6f9de9500000000000000000000000000000000000000000000000000000000000000000000000000000000000000000000000000000000000000000000000000000080000000000000000000000000e71f0bde00c709d06f560076e641f6042f28912c0000000000000000000000000000000000000000000000000000000065d2d48b0000000000000000000000000000000000000000000000000000000000000002000000000000000000000000c02aaa39b223fe8d0a0e5c4f27ead9083c756cc20000000000000000000000000f8a146d8ce682bfc55d286ba96880eb5cf7d5b5",
            "debugEnable": true,
            "errorInfo": "",
            "eventCount": 5,
            "feeRecipient": "0x95222290dd7278aa3ddd389cc1e1d165cc4bafe5",
            "formatValue": "0.01",
            "gasLimit": 279278,
            "gasPrice": "95.579684057",
            "gasUsed": 147860,
            "intTxnCount": 11,
            "internalRevert": false,
            "internalRevertMessage": "",
            "isContractCreation": false,
            "isFlashloan": false,
            "maxFee": "102.374287635",
            "nonce": 15,
            "overwritedBlockNumber": -1,
            "priorityFee": "70",
            "receiver": "0x80a64c6d7f12c47b7c66c5b4e20e72bc1fcd5d9e",
            "revertMessage": "",
            "sender": "0xe71f0bde00c709d06f560076e641f6042f28912c",
            "simulationEnable": true,
            "sourceTxnHash": "0xad46c3ede8384de9910fe8d1ae7b7c8479903b390a194e9ad119689b93f105ef",
            "status": true,
            "timestamp": "2024-02-19T04:08:59Z",
            "transactionFee": "0.01413241208466802",
            "txnHash": "0xad46c3ede8384de9910fe8d1ae7b7c8479903b390a194e9ad119689b93f105ef",
            "txnIndex": 23,
            "type": 2,
            "value": "10000000000000000"
        },
        "fund_flow": [
            {
                "amount": "0.01",
                "from": "0xe71f0bde00c709d06f560076e641f6042f28912c",
                "id": 1,
                "isERC1155": false,
                "isERC721": false,
                "isReverted": false,
                "order": 1,
                "to": "0x80a64c6d7f12c47b7c66c5b4e20e72bc1fcd5d9e",
                "token": "0xeeeeeeeeeeeeeeeeeeeeeeeeeeeeeeeeeeeeeeee"
            },
            {
                "amount": "0.01",
                "from": "0x80a64c6d7f12c47b7c66c5b4e20e72bc1fcd5d9e",
                "id": 2,
                "isERC1155": false,
                "isERC721": false,
                "isReverted": false,
                "order": 2,
                "to": "0xc02aaa39b223fe8d0a0e5c4f27ead9083c756cc2",
                "token": "0xeeeeeeeeeeeeeeeeeeeeeeeeeeeeeeeeeeeeeeee"
            },
            {
                "amount": "0.01",
                "from": "0xc02aaa39b223fe8d0a0e5c4f27ead9083c756cc2",
                "id": 3,
                "isERC1155": false,
                "isERC721": false,
                "isReverted": false,
                "order": 3,
                "to": "0x80a64c6d7f12c47b7c66c5b4e20e72bc1fcd5d9e",
                "token": "0xc02aaa39b223fe8d0a0e5c4f27ead9083c756cc2"
            },
            {
                "amount": "0.01",
                "from": "0x80a64c6d7f12c47b7c66c5b4e20e72bc1fcd5d9e",
                "id": 4,
                "isERC1155": false,
                "isERC721": false,
                "isReverted": false,
                "order": 4,
                "to": "0xca118956167f97dbca95d16410fc56cce5086d9e",
                "token": "0xc02aaa39b223fe8d0a0e5c4f27ead9083c756cc2"
            },
            {
                "amount": "1,673,072.794007030246742198",
                "from": "0xca118956167f97dbca95d16410fc56cce5086d9e",
                "id": 5,
                "isERC1155": false,
                "isERC721": false,
                "isReverted": false,
                "order": 5,
                "to": "0xe71f0bde00c709d06f560076e641f6042f28912c",
                "token": "0x0f8a146d8ce682bfc55d286ba96880eb5cf7d5b5"
            }
        ],
        "token_infos": [
            {
                "address": "0x0f8a146d8ce682bfc55d286ba96880eb5cf7d5b5",
                "decimals": 18
            },
            {
                "address": "0xc02aaa39b223fe8d0a0e5c4f27ead9083c756cc2",
                "decimals": 18
            },
            {
                "address": "0xeeeeeeeeeeeeeeeeeeeeeeeeeeeeeeeeeeeeeeee",
                "decimals": 18
            }
        ]
    },
    "address_label": {
        "labels": [
            {
                "address": "0x0000000000000000000000000000000000000002",
                "label": "Precompiled"
            },
            {
                "address": "0x0000000000000000000000000000000000000003",
                "label": "Precompiled"
            },
            {
                "address": "0xeeeeeeeeeeeeeeeeeeeeeeeeeeeeeeeeeeeeeeee",
                "label": "Ether"
            },
            {
                "address": "0xc02aaa39b223fe8d0a0e5c4f27ead9083c756cc2",
                "label": "Wrapped Ether (WETH)"
            },
            {
                "address": "0x80a64c6d7f12c47b7c66c5b4e20e72bc1fcd5d9e",
                "label": "Maestro: Router 2"
            },
            {
                "address": "0x0f8a146d8ce682bfc55d286ba96880eb5cf7d5b5",
                "label": "PEPE"
            },
            {
                "address": "0xca118956167f97dbca95d16410fc56cce5086d9e",
                "label": "UNI-V2"
            },
            {
                "address": "0x0000000000000000000000000000000000000001",
                "label": "Precompiled"
            },
            {
                "address": "0x0000000000000000000000000000000000000004",
                "label": "Precompiled"
            }
        ]
    },
    "trace": {
        "accountLabels": null,
        "dataMap": {
            "-1": {
                "invocation": {
                    "address": "0xe71f0bde00c709d06f560076e641f6042f28912c",
                    "callData": "",
                    "decodedMethod": null,
                    "errorInfo": "",
                    "fromAddress": "",
                    "gasUsed": 0,
                    "id": -1,
                    "methodDecoded": false,
                    "operation": "",
                    "output": "",
                    "revert": false,
                    "revertMessage": "",
                    "selector": "",
                    "status": false,
                    "value": ""
                },
                "nodeType": 0
            },
            "0": {
                "invocation": {
                    "address": "0x80a64c6d7f12c47b7c66c5b4e20e72bc1fcd5d9e",
                    "callData": "0x00000000000000000000000000000000000000000000000000000000000000000000000000000000000000000000000000000000000000000000000000000080000000000000000000000000e71f0bde00c709d06f560076e641f6042f28912c0000000000000000000000000000000000000000000000000000000065d2d48b0000000000000000000000000000000000000000000000000000000000000002000000000000000000000000c02aaa39b223fe8d0a0e5c4f27ead9083c756cc20000000000000000000000000f8a146d8ce682bfc55d286ba96880eb5cf7d5b5",
                    "decodedMethod": {
                        "callParams": [
                            {
                                "name": "amountOutMin",
                                "type": "uint256",
                                "value": "0"
                            },
                            {
                                "name": "path",
                                "type": "address[]",
                                "value": [
                                    "0xc02aaa39b223fe8d0a0e5c4f27ead9083c756cc2",
                                    "0x0f8a146d8ce682bfc55d286ba96880eb5cf7d5b5"
                                ]
                            },
                            {
                                "name": "to",
                                "type": "address",
                                "value": "0xe71f0bde00c709d06f560076e641f6042f28912c"
                            },
                            {
                                "name": "deadline",
                                "type": "uint256",
                                "value": "1,708,315,787"
                            }
                        ],
                        "constructorArguments": "",
                        "name": "swapExactETHForTokensSupportingFeeOnTransferTokens",
                        "returnParams": [],
                        "signature": "swapExactETHForTokensSupportingFeeOnTransferTokens(uint256,address[],address,uint256)"
                    },
                    "errorInfo": "",
                    "fromAddress": "0xe71f0bde00c709d06f560076e641f6042f28912c",
                    "gasUsed": 147860,
                    "id": 0,
                    "methodDecoded": true,
                    "operation": "CALL",
                    "output": "",
                    "revert": false,
                    "revertMessage": "",
                    "selector": "0xb6f9de95",
                    "status": true,
                    "value": "0.01"
                },
                "nodeType": 0
            },
            "1": {
                "invocation": {
                    "address": "0x6599ae06914f1f5ec0053d3f475348d40e608442",
                    "callData": "0x00000000000000000000000000000000000000000000000000000000000000000000000000000000000000000000000000000000000000000000000000000080000000000000000000000000e71f0bde00c709d06f560076e641f6042f28912c0000000000000000000000000000000000000000000000000000000065d2d48b0000000000000000000000000000000000000000000000000000000000000002000000000000000000000000c02aaa39b223fe8d0a0e5c4f27ead9083c756cc20000000000000000000000000f8a146d8ce682bfc55d286ba96880eb5cf7d5b5",
                    "decodedMethod": {
                        "callParams": [
                            {
                                "name": "amountOutMin",
                                "type": "uint256",
                                "value": "0"
                            },
                            {
                                "name": "path",
                                "type": "address[]",
                                "value": [
                                    "0xc02aaa39b223fe8d0a0e5c4f27ead9083c756cc2",
                                    "0x0f8a146d8ce682bfc55d286ba96880eb5cf7d5b5"
                                ]
                            },
                            {
                                "name": "to",
                                "type": "address",
                                "value": "0xe71f0bde00c709d06f560076e641f6042f28912c"
                            },
                            {
                                "name": "deadline",
                                "type": "uint256",
                                "value": "1,708,315,787"
                            }
                        ],
                        "constructorArguments": "",
                        "name": "swapExactETHForTokensSupportingFeeOnTransferTokens",
                        "returnParams": [],
                        "signature": "swapExactETHForTokensSupportingFeeOnTransferTokens(uint256,address[],address,uint256)"
                    },
                    "errorInfo": "",
                    "fromAddress": "0x80a64c6d7f12c47b7c66c5b4e20e72bc1fcd5d9e",
                    "gasUsed": 142962,
                    "id": 1,
                    "methodDecoded": true,
                    "operation": "DELEGATECALL",
                    "output": "",
                    "revert": false,
                    "revertMessage": "",
                    "selector": "0xb6f9de95",
                    "status": true,
                    "value": "0.01"
                },
                "nodeType": 0
            },
            "10": {
                "invocation": {
                    "address": "0x0f8a146d8ce682bfc55d286ba96880eb5cf7d5b5",
                    "callData": "0x000000000000000000000000e71f0bde00c709d06f560076e641f6042f28912c0000000000000000000000000000000000000000000162497538e5d2e2c518b6",
                    "decodedMethod": {
                        "callParams": [
                            {
                                "name": "recipient",
                                "type": "address",
                                "value": "0xe71f0bde00c709d06f560076e641f6042f28912c"
                            },
                            {
                                "decimalAvailable": true,
                                "name": "amount",
                                "type": "uint256",
                                "value": "1,673,072,794,007,030,246,742,198"
                            }
                        ],
                        "constructorArguments": "",
                        "name": "transfer",
                        "returnParams": [
                            {
                                "name": "",
                                "type": "bool",
                                "value": true
                            }
                        ],
                        "signature": "transfer(address,uint256)"
                    },
                    "errorInfo": "",
                    "fromAddress": "0xca118956167f97dbca95d16410fc56cce5086d9e",
                    "gasUsed": 53468,
                    "id": 10,
                    "methodDecoded": true,
                    "operation": "CALL",
                    "output": "0x0000000000000000000000000000000000000000000000000000000000000001",
                    "revert": false,
                    "revertMessage": "",
                    "selector": "0xa9059cbb",
                    "status": true,
                    "value": "0"
                },
                "nodeType": 0
            },
            "11": {
                "event": {
                    "contract": "0x0f8a146d8ce682bfc55d286ba96880eb5cf7d5b5",
                    "decodedLog": {
                        "name": "Transfer",
                        "params": [
                            {
                                "name": "from",
                                "type": "address",
                                "value": "0xca118956167f97dbca95d16410fc56cce5086d9e"
                            },
                            {
                                "name": "to",
                                "type": "address",
                                "value": "0xe71f0bde00c709d06f560076e641f6042f28912c"
                            },
                            {
                                "decimalAvailable": true,
                                "name": "value",
                                "type": "uint256",
                                "value": "1,673,072,794,007,030,246,742,198"
                            }
                        ],
                        "signature": "Transfer(address,address,uint256)"
                    },
                    "id": 11,
                    "logData": "0x0000000000000000000000000000000000000000000162497538e5d2e2c518b6",
                    "logDecoded": true,
                    "operation": "EVENT",
                    "revert": false,
                    "status": true,
                    "topics": [
                        "0xddf252ad1be2c89b69c2b068fc378daa952ba7f163c4a11628f55a4df523b3ef",
                        "0x000000000000000000000000ca118956167f97dbca95d16410fc56cce5086d9e",
                        "0x000000000000000000000000e71f0bde00c709d06f560076e641f6042f28912c"
                    ]
                },
                "nodeType": 1
            },
            "12": {
                "invocation": {
                    "address": "0x0f8a146d8ce682bfc55d286ba96880eb5cf7d5b5",
                    "callData": "0x000000000000000000000000ca118956167f97dbca95d16410fc56cce5086d9e",
                    "decodedMethod": {
                        "callParams": [
                            {
                                "name": "account",
                                "type": "address",
                                "value": "0xca118956167f97dbca95d16410fc56cce5086d9e"
                            }
                        ],
                        "constructorArguments": "",
                        "name": "balanceOf",
                        "returnParams": [
                            {
                                "decimalAvailable": true,
                                "name": "",
                                "type": "uint256",
                                "value": "409,645,094,711,004,170,570,195,580"
                            }
                        ],
                        "signature": "balanceOf(address)"
                    },
                    "errorInfo": "",
                    "fromAddress": "0xca118956167f97dbca95d16410fc56cce5086d9e",
                    "gasUsed": 646,
                    "id": 12,
                    "methodDecoded": true,
                    "operation": "STATICCALL",
                    "output": "0x00000000000000000000000000000000000000000152d9b914e94fae4580627c",
                    "revert": false,
                    "revertMessage": "",
                    "selector": "0x70a08231",
                    "status": true,
                    "value": "0"
                },
                "nodeType": 0
            },
            "13": {
                "invocation": {
                    "address": "0xc02aaa39b223fe8d0a0e5c4f27ead9083c756cc2",
                    "callData": "0x000000000000000000000000ca118956167f97dbca95d16410fc56cce5086d9e",
                    "decodedMethod": {
                        "callParams": [
                            {
                                "name": "",
                                "type": "address",
                                "value": "0xca118956167f97dbca95d16410fc56cce5086d9e"
                            }
                        ],
                        "constructorArguments": "",
                        "name": "balanceOf",
                        "returnParams": [
                            {
                                "decimalAvailable": true,
                                "name": "",
                                "type": "uint256",
                                "value": "2,451,114,103,880,138,730"
                            }
                        ],
                        "signature": "balanceOf(address)"
                    },
                    "errorInfo": "",
                    "fromAddress": "0xca118956167f97dbca95d16410fc56cce5086d9e",
                    "gasUsed": 534,
                    "id": 13,
                    "methodDecoded": true,
                    "operation": "STATICCALL",
                    "output": "0x00000000000000000000000000000000000000000000000022041b4a79b9bfea",
                    "revert": false,
                    "revertMessage": "",
                    "selector": "0x70a08231",
                    "status": true,
                    "value": "0"
                },
                "nodeType": 0
            },
            "14": {
                "event": {
                    "contract": "0xca118956167f97dbca95d16410fc56cce5086d9e",
                    "decodedLog": {
                        "name": "Sync",
                        "params": [
                            {
                                "name": "reserve0",
                                "type": "uint112",
                                "value": "409,645,094,711,004,170,570,195,580"
                            },
                            {
                                "name": "reserve1",
                                "type": "uint112",
                                "value": "2,451,114,103,880,138,730"
                            }
                        ],
                        "signature": "Sync(uint112,uint112)"
                    },
                    "id": 14,
                    "logData": "0x00000000000000000000000000000000000000000152d9b914e94fae4580627c00000000000000000000000000000000000000000000000022041b4a79b9bfea",
                    "logDecoded": true,
                    "operation": "EVENT",
                    "revert": false,
                    "status": true,
                    "topics": [
                        "0x1c411e9a96e071241c2f21f7726b17ae89e3cab4c78be50e062b03a9fffbbad1"
                    ]
                },
                "nodeType": 1
            },
            "15": {
                "event": {
                    "contract": "0xca118956167f97dbca95d16410fc56cce5086d9e",
                    "decodedLog": {
                        "name": "Swap",
                        "params": [
                            {
                                "name": "sender",
                                "type": "address",
                                "value": "0x80a64c6d7f12c47b7c66c5b4e20e72bc1fcd5d9e"
                            },
                            {
                                "name": "to",
                                "type": "address",
                                "value": "0xe71f0bde00c709d06f560076e641f6042f28912c"
                            },
                            {
                                "name": "amount0In",
                                "type": "uint256",
                                "value": "0"
                            },
                            {
                                "name": "amount1In",
                                "type": "uint256",
                                "value": "10,000,000,000,000,000"
                            },
                            {
                                "name": "amount0Out",
                                "type": "uint256",
                                "value": "1,673,072,794,007,030,246,742,198"
                            },
                            {
                                "name": "amount1Out",
                                "type": "uint256",
                                "value": "0"
                            }
                        ],
                        "signature": "Swap(address,uint256,uint256,uint256,uint256,address)"
                    },
                    "id": 15,
                    "logData": "0x0000000000000000000000000000000000000000000000000000000000000000000000000000000000000000000000000000000000000000002386f26fc100000000000000000000000000000000000000000000000162497538e5d2e2c518b60000000000000000000000000000000000000000000000000000000000000000",
                    "logDecoded": true,
                    "operation": "EVENT",
                    "revert": false,
                    "status": true,
                    "topics": [
                        "0xd78ad95fa46c994b6551d0da85fc275fe613ce37657fb8d5e3d130840159d822",
                        "0x00000000000000000000000080a64c6d7f12c47b7c66c5b4e20e72bc1fcd5d9e",
                        "0x000000000000000000000000e71f0bde00c709d06f560076e641f6042f28912c"
                    ]
                },
                "nodeType": 1
            },
            "16": {
                "invocation": {
                    "address": "0x0f8a146d8ce682bfc55d286ba96880eb5cf7d5b5",
                    "callData": "0x000000000000000000000000e71f0bde00c709d06f560076e641f6042f28912c",
                    "decodedMethod": {
                        "callParams": [
                            {
                                "name": "account",
                                "type": "address",
                                "value": "0xe71f0bde00c709d06f560076e641f6042f28912c"
                            }
                        ],
                        "constructorArguments": "",
                        "name": "balanceOf",
                        "returnParams": [
                            {
                                "decimalAvailable": true,
                                "name": "",
                                "type": "uint256",
                                "value": "19,603,579,783,024,614,863,956,530"
                            }
                        ],
                        "signature": "balanceOf(address)"
                    },
                    "errorInfo": "",
                    "fromAddress": "0x80a64c6d7f12c47b7c66c5b4e20e72bc1fcd5d9e",
                    "gasUsed": 646,
                    "id": 16,
                    "methodDecoded": true,
                    "operation": "STATICCALL",
                    "output": "0x00000000000000000000000000000000000000000010373830809bc700666a32",
                    "revert": false,
                    "revertMessage": "",
                    "selector": "0x70a08231",
                    "status": true,
                    "value": "0"
                },
                "nodeType": 0
            },
            "2": {
                "invocation": {
                    "address": "0xc02aaa39b223fe8d0a0e5c4f27ead9083c756cc2",
                    "callData": "0x",
                    "decodedMethod": {
                        "callParams": [],
                        "constructorArguments": "",
                        "name": "deposit",
                        "returnParams": [],
                        "signature": "deposit()"
                    },
                    "errorInfo": "",
                    "fromAddress": "0x80a64c6d7f12c47b7c66c5b4e20e72bc1fcd5d9e",
                    "gasUsed": 23974,
                    "id": 2,
                    "methodDecoded": true,
                    "operation": "CALL",
                    "output": "",
                    "revert": false,
                    "revertMessage": "",
                    "selector": "0xd0e30db0",
                    "status": true,
                    "value": "0.01"
                },
                "nodeType": 0
            },
            "3": {
                "event": {
                    "contract": "0xc02aaa39b223fe8d0a0e5c4f27ead9083c756cc2",
                    "decodedLog": {
                        "name": "Deposit",
                        "params": [
                            {
                                "name": "dst",
                                "type": "address",
                                "value": "0x80a64c6d7f12c47b7c66c5b4e20e72bc1fcd5d9e"
                            },
                            {
                                "name": "wad",
                                "type": "uint256",
                                "value": "10,000,000,000,000,000"
                            }
                        ],
                        "signature": "Deposit(address,uint256)"
                    },
                    "id": 3,
                    "logData": "0x000000000000000000000000000000000000000000000000002386f26fc10000",
                    "logDecoded": true,
                    "operation": "EVENT",
                    "revert": false,
                    "status": true,
                    "topics": [
                        "0xe1fffcc4923d04b559f4d29a8bfc6cda04eb5b0d3c460751c2402c5c5cc9109c",
                        "0x00000000000000000000000080a64c6d7f12c47b7c66c5b4e20e72bc1fcd5d9e"
                    ]
                },
                "nodeType": 1
            },
            "4": {
                "invocation": {
                    "address": "0xc02aaa39b223fe8d0a0e5c4f27ead9083c756cc2",
                    "callData": "0x000000000000000000000000ca118956167f97dbca95d16410fc56cce5086d9e000000000000000000000000000000000000000000000000002386f26fc10000",
                    "decodedMethod": {
                        "callParams": [
                            {
                                "name": "dst",
                                "type": "address",
                                "value": "0xca118956167f97dbca95d16410fc56cce5086d9e"
                            },
                            {
                                "decimalAvailable": true,
                                "name": "wad",
                                "type": "uint256",
                                "value": "10,000,000,000,000,000"
                            }
                        ],
                        "constructorArguments": "",
                        "name": "transfer",
                        "returnParams": [
                            {
                                "name": "",
                                "type": "bool",
                                "value": true
                            }
                        ],
                        "signature": "transfer(address,uint256)"
                    },
                    "errorInfo": "",
                    "fromAddress": "0x80a64c6d7f12c47b7c66c5b4e20e72bc1fcd5d9e",
                    "gasUsed": 8062,
                    "id": 4,
                    "methodDecoded": true,
                    "operation": "CALL",
                    "output": "0x0000000000000000000000000000000000000000000000000000000000000001",
                    "revert": false,
                    "revertMessage": "",
                    "selector": "0xa9059cbb",
                    "status": true,
                    "value": "0"
                },
                "nodeType": 0
            },
            "5": {
                "event": {
                    "contract": "0xc02aaa39b223fe8d0a0e5c4f27ead9083c756cc2",
                    "decodedLog": {
                        "name": "Transfer",
                        "params": [
                            {
                                "name": "src",
                                "type": "address",
                                "value": "0x80a64c6d7f12c47b7c66c5b4e20e72bc1fcd5d9e"
                            },
                            {
                                "name": "dst",
                                "type": "address",
                                "value": "0xca118956167f97dbca95d16410fc56cce5086d9e"
                            },
                            {
                                "decimalAvailable": true,
                                "name": "wad",
                                "type": "uint256",
                                "value": "10,000,000,000,000,000"
                            }
                        ],
                        "signature": "Transfer(address,address,uint256)"
                    },
                    "id": 5,
                    "logData": "0x000000000000000000000000000000000000000000000000002386f26fc10000",
                    "logDecoded": true,
                    "operation": "EVENT",
                    "revert": false,
                    "status": true,
                    "topics": [
                        "0xddf252ad1be2c89b69c2b068fc378daa952ba7f163c4a11628f55a4df523b3ef",
                        "0x00000000000000000000000080a64c6d7f12c47b7c66c5b4e20e72bc1fcd5d9e",
                        "0x000000000000000000000000ca118956167f97dbca95d16410fc56cce5086d9e"
                    ]
                },
                "nodeType": 1
            },
            "6": {
                "invocation": {
                    "address": "0x0f8a146d8ce682bfc55d286ba96880eb5cf7d5b5",
                    "callData": "0x000000000000000000000000e71f0bde00c709d06f560076e641f6042f28912c",
                    "decodedMethod": {
                        "callParams": [
                            {
                                "name": "account",
                                "type": "address",
                                "value": "0xe71f0bde00c709d06f560076e641f6042f28912c"
                            }
                        ],
                        "constructorArguments": "",
                        "name": "balanceOf",
                        "returnParams": [
                            {
                                "decimalAvailable": true,
                                "name": "",
                                "type": "uint256",
                                "value": "17,930,506,989,017,584,617,214,332"
                            }
                        ],
                        "signature": "balanceOf(address)"
                    },
                    "errorInfo": "",
                    "fromAddress": "0x80a64c6d7f12c47b7c66c5b4e20e72bc1fcd5d9e",
                    "gasUsed": 2646,
                    "id": 6,
                    "methodDecoded": true,
                    "operation": "STATICCALL",
                    "output": "0x0000000000000000000000000000000000000000000ed4eebb47b5f41da1517c",
                    "revert": false,
                    "revertMessage": "",
                    "selector": "0x70a08231",
                    "status": true,
                    "value": "0"
                },
                "nodeType": 0
            },
            "7": {
                "invocation": {
                    "address": "0xca118956167f97dbca95d16410fc56cce5086d9e",
                    "callData": "0x",
                    "decodedMethod": {
                        "callParams": [],
                        "constructorArguments": "",
                        "name": "getReserves",
                        "returnParams": [
                            {
                                "name": "_reserve0",
                                "type": "uint112",
                                "value": "411,318,167,505,011,200,816,937,778"
                            },
                            {
                                "name": "_reserve1",
                                "type": "uint112",
                                "value": "2,441,114,103,880,138,730"
                            },
                            {
                                "name": "_blockTimestampLast",
                                "type": "uint32",
                                "value": "1,708,315,739"
                            }
                        ],
                        "signature": "getReserves()"
                    },
                    "errorInfo": "",
                    "fromAddress": "0x80a64c6d7f12c47b7c66c5b4e20e72bc1fcd5d9e",
                    "gasUsed": 2504,
                    "id": 7,
                    "methodDecoded": true,
                    "operation": "STATICCALL",
                    "output": "0x000000000000000000000000000000000000000001543c028a22358128457b3200000000000000000000000000000000000000000000000021e0945809f8bfea0000000000000000000000000000000000000000000000000000000065d2d45b",
                    "revert": false,
                    "revertMessage": "",
                    "selector": "0x0902f1ac",
                    "status": true,
                    "value": "0"
                },
                "nodeType": 0
            },
            "8": {
                "invocation": {
                    "address": "0xc02aaa39b223fe8d0a0e5c4f27ead9083c756cc2",
                    "callData": "0x000000000000000000000000ca118956167f97dbca95d16410fc56cce5086d9e",
                    "decodedMethod": {
                        "callParams": [
                            {
                                "name": "",
                                "type": "address",
                                "value": "0xca118956167f97dbca95d16410fc56cce5086d9e"
                            }
                        ],
                        "constructorArguments": "",
                        "name": "balanceOf",
                        "returnParams": [
                            {
                                "decimalAvailable": true,
                                "name": "",
                                "type": "uint256",
                                "value": "2,451,114,103,880,138,730"
                            }
                        ],
                        "signature": "balanceOf(address)"
                    },
                    "errorInfo": "",
                    "fromAddress": "0x80a64c6d7f12c47b7c66c5b4e20e72bc1fcd5d9e",
                    "gasUsed": 534,
                    "id": 8,
                    "methodDecoded": true,
                    "operation": "STATICCALL",
                    "output": "0x00000000000000000000000000000000000000000000000022041b4a79b9bfea",
                    "revert": false,
                    "revertMessage": "",
                    "selector": "0x70a08231",
                    "status": true,
                    "value": "0"
                },
                "nodeType": 0
            },
            "9": {
                "invocation": {
                    "address": "0xca118956167f97dbca95d16410fc56cce5086d9e",
                    "callData": "0x0000000000000000000000000000000000000000000162497538e5d2e2c518b60000000000000000000000000000000000000000000000000000000000000000000000000000000000000000e71f0bde00c709d06f560076e641f6042f28912c00000000000000000000000000000000000000000000000000000000000000800000000000000000000000000000000000000000000000000000000000000000",
                    "decodedMethod": {
                        "callParams": [
                            {
                                "name": "amount0Out",
                                "type": "uint256",
                                "value": "1,673,072,794,007,030,246,742,198"
                            },
                            {
                                "name": "amount1Out",
                                "type": "uint256",
                                "value": "0"
                            },
                            {
                                "name": "to",
                                "type": "address",
                                "value": "0xe71f0bde00c709d06f560076e641f6042f28912c"
                            },
                            {
                                "name": "data",
                                "type": "bytes",
                                "value": "0x"
                            }
                        ],
                        "constructorArguments": "",
                        "name": "swap",
                        "returnParams": [],
                        "signature": "swap(uint256,uint256,address,bytes)"
                    },
                    "errorInfo": "",
                    "fromAddress": "0x80a64c6d7f12c47b7c66c5b4e20e72bc1fcd5d9e",
                    "gasUsed": 75555,
                    "id": 9,
                    "methodDecoded": true,
                    "operation": "CALL",
                    "output": "",
                    "revert": false,
                    "revertMessage": "",
                    "selector": "0x022c0d9f",
                    "status": true,
                    "value": "0"
                },
                "nodeType": 0
            }
        },
        "gasFlame": [
            {
                "children": [
                    {
                        "children": [
                            {
                                "children": [],
                                "depth": 0,
                                "name": "Initial Gas",
                                "value": 22728
                            },
                            {
                                "children": [
                                    {
                                        "children": [
                                            {
                                                "children": [],
                                                "depth": 2,
                                                "name": "deposit",
                                                "value": 23974
                                            },
                                            {
                                                "children": [],
                                                "depth": 2,
                                                "name": "transfer",
                                                "value": 8062
                                            },
                                            {
                                                "children": [],
                                                "depth": 2,
                                                "name": "balanceOf",
                                                "value": 2646
                                            },
                                            {
                                                "children": [],
                                                "depth": 2,
                                                "name": "getReserves",
                                                "value": 2504
                                            },
                                            {
                                                "children": [],
                                                "depth": 2,
                                                "name": "balanceOf",
                                                "value": 534
                                            },
                                            {
                                                "children": [
                                                    {
                                                        "children": [],
                                                        "depth": 3,
                                                        "name": "transfer",
                                                        "value": 53468
                                                    },
                                                    {
                                                        "children": [],
                                                        "depth": 3,
                                                        "name": "balanceOf",
                                                        "value": 646
                                                    },
                                                    {
                                                        "children": [],
                                                        "depth": 3,
                                                        "name": "balanceOf",
                                                        "value": 534
                                                    }
                                                ],
                                                "depth": 2,
                                                "name": "swap",
                                                "value": 75555
                                            },
                                            {
                                                "children": [],
                                                "depth": 2,
                                                "name": "balanceOf",
                                                "value": 646
                                            }
                                        ],
                                        "depth": 1,
                                        "name": "swapExactETHForTokensSupportingFeeOnTransferTokens",
                                        "value": 142962
                                    }
                                ],
                                "depth": 0,
                                "name": "Executed Gas",
                                "value": 147832
                            }
                        ],
                        "depth": -1,
                        "name": "Actual Gas Used",
                        "value": 147860
                    },
                    {
                        "children": [],
                        "depth": -1,
                        "name": "Refunded Gas",
                        "value": 22700
                    }
                ],
                "depth": -2,
                "name": "Total Gas",
                "value": 170560
            }
        ],
        "isConfirmed": true,
        "mainTrace": [
            {
                "children": [
                    {
                        "children": [
                            {
                                "children": [
                                    {
                                        "children": [
                                            {
                                                "children": [],
                                                "depth": 3,
                                                "id": 3,
                                                "order": 3
                                            }
                                        ],
                                        "depth": 2,
                                        "id": 2,
                                        "order": 2
                                    },
                                    {
                                        "children": [
                                            {
                                                "children": [],
                                                "depth": 3,
                                                "id": 5,
                                                "order": 5
                                            }
                                        ],
                                        "depth": 2,
                                        "id": 4,
                                        "order": 4
                                    },
                                    {
                                        "children": [],
                                        "depth": 2,
                                        "id": 6,
                                        "order": 6
                                    },
                                    {
                                        "children": [],
                                        "depth": 2,
                                        "id": 7,
                                        "order": 7
                                    },
                                    {
                                        "children": [],
                                        "depth": 2,
                                        "id": 8,
                                        "order": 8
                                    },
                                    {
                                        "children": [
                                            {
                                                "children": [
                                                    {
                                                        "children": [],
                                                        "depth": 4,
                                                        "id": 11,
                                                        "order": 11
                                                    }
                                                ],
                                                "depth": 3,
                                                "id": 10,
                                                "order": 10
                                            },
                                            {
                                                "children": [],
                                                "depth": 3,
                                                "id": 12,
                                                "order": 12
                                            },
                                            {
                                                "children": [],
                                                "depth": 3,
                                                "id": 13,
                                                "order": 13
                                            },
                                            {
                                                "children": [],
                                                "depth": 3,
                                                "id": 14,
                                                "order": 14
                                            },
                                            {
                                                "children": [],
                                                "depth": 3,
                                                "id": 15,
                                                "order": 15
                                            }
                                        ],
                                        "depth": 2,
                                        "id": 9,
                                        "order": 9
                                    },
                                    {
                                        "children": [],
                                        "depth": 2,
                                        "id": 16,
                                        "order": 16
                                    }
                                ],
                                "depth": 1,
                                "id": 1,
                                "order": 1
                            }
                        ],
                        "depth": 0,
                        "id": 0,
                        "order": 0
                    }
                ],
                "depth": -1,
                "id": -1,
                "order": -1
            }
        ],
        "mainTraceNodeCount": 17,
        "parentIdMap": {
            "0": -1,
            "1": 0,
            "10": 9,
            "11": 10,
            "12": 9,
            "13": 9,
            "14": 9,
            "15": 9,
            "16": 1,
            "2": 1,
            "3": 2,
            "4": 1,
            "5": 4,
            "6": 1,
            "7": 1,
            "8": 1,
            "9": 1
        },
        "tidyTrace": [
            {
                "children": [
                    {
                        "children": [
                            {
                                "children": [
                                    {
                                        "children": [
                                            {
                                                "children": [],
                                                "depth": 3,
                                                "id": 3,
                                                "order": 3
                                            }
                                        ],
                                        "depth": 2,
                                        "id": 2,
                                        "order": 2
                                    },
                                    {
                                        "children": [
                                            {
                                                "children": [],
                                                "depth": 3,
                                                "id": 5,
                                                "order": 5
                                            }
                                        ],
                                        "depth": 2,
                                        "id": 4,
                                        "order": 4
                                    },
                                    {
                                        "children": [
                                            {
                                                "children": [
                                                    {
                                                        "children": [],
                                                        "depth": 4,
                                                        "id": 11,
                                                        "order": 11
                                                    }
                                                ],
                                                "depth": 3,
                                                "id": 10,
                                                "order": 10
                                            },
                                            {
                                                "children": [],
                                                "depth": 3,
                                                "id": 14,
                                                "order": 14
                                            },
                                            {
                                                "children": [],
                                                "depth": 3,
                                                "id": 15,
                                                "order": 15
                                            }
                                        ],
                                        "depth": 2,
                                        "id": 9,
                                        "order": 9
                                    }
                                ],
                                "depth": 1,
                                "id": 1,
                                "order": 1
                            }
                        ],
                        "depth": 0,
                        "id": 0,
                        "order": 0
                    }
                ],
                "depth": -1,
                "id": -1,
                "order": -1
            }
        ],
        "tidyTraceNodeCount": 11
    },
    "state_change": {
        "stateChanges": [
            {
                "address": "0x0f8a146d8ce682bfc55d286ba96880eb5cf7d5b5",
                "erc": "ERC-20",
                "slots": [
                    {
                        "current": "0x00000000000000000000000000000000000000000010373830809bc700666a32",
                        "key": "0xa8dfbf07dc5d103266198fcff31f0d5eab011269c1f56034196df1bb5e193dc6",
                        "prev": "0x0000000000000000000000000000000000000000000ed4eebb47b5f41da1517c"
                    },
                    {
                        "current": "0x000000000000000000000000000000000000000000000000000000000125dfb6",
                        "key": "0x9de86d392d190782aa7639a717d144c394f50e626ecb0fb01e55ab689a4b8c0a",
                        "prev": "0x000000000000000000000000000000000000000000000000000000000125dfb3"
                    },
                    {
                        "current": "0x00000000000000000000000000000000000000000152d9b914e94fae4580627c",
                        "key": "0x490c87cd747f837d3133067621188b906edefa02a49935782809faa67ff61c55",
                        "prev": "0x000000000000000000000000000000000000000001543c028a22358128457b32"
                    }
                ],
                "storageVariables": [
                    {
                        "name": "_holderLastTransferTimestamp",
                        "type": "mapping(address => uint256)",
                        "value": {
                            "pairs": [
                                {
                                    "key": "0xe71f0bde00c709d06f560076e641f6042f28912c",
                                    "value": {
                                        "current": "19259318",
                                        "prev": "19259315",
                                        "typeTag": 1
                                    }
                                }
                            ],
                            "typeTag": 4
                        }
                    },
                    {
                        "name": "_balances",
                        "type": "mapping(address => uint256)",
                        "value": {
                            "pairs": [
                                {
                                    "key": "0xca118956167f97dbca95d16410fc56cce5086d9e",
                                    "value": {
                                        "current": "409645094711004170570195580",
                                        "prev": "411318167505011200816937778",
                                        "typeTag": 1
                                    }
                                },
                                {
                                    "key": "0xe71f0bde00c709d06f560076e641f6042f28912c",
                                    "value": {
                                        "current": "19603579783024614863956530",
                                        "prev": "17930506989017584617214332",
                                        "typeTag": 1
                                    }
                                }
                            ],
                            "typeTag": 4
                        }
                    }
                ]
            },
            {
                "address": "0xc02aaa39b223fe8d0a0e5c4f27ead9083c756cc2",
                "erc": "ERC-20",
                "slots": [
                    {
                        "current": "0x00000000000000000000000000000000000000000000000022041b4a79b9bfea",
                        "key": "0x4d4c152eb92a4a5c918dcaa3823a7f755da5be68875bf816c13091ccf1450133",
                        "prev": "0x00000000000000000000000000000000000000000000000021e0945809f8bfea"
                    }
                ],
                "storageVariables": [
                    {
                        "name": "balanceOf",
                        "type": "mapping(address => uint256)",
                        "value": {
                            "pairs": [
                                {
                                    "key": "0xca118956167f97dbca95d16410fc56cce5086d9e",
                                    "value": {
                                        "current": "2451114103880138730",
                                        "prev": "2441114103880138730",
                                        "typeTag": 1
                                    }
                                }
                            ],
                            "typeTag": 4
                        }
                    }
                ]
            },
            {
                "address": "0xca118956167f97dbca95d16410fc56cce5086d9e",
                "erc": "ERC-20",
                "slots": [
                    {
                        "current": "0x65d2d45b00000000000022041b4a79b9bfea00000152d9b914e94fae4580627c",
                        "key": "0x0000000000000000000000000000000000000000000000000000000000000008",
                        "prev": "0x65d2d45b00000000000021e0945809f8bfea000001543c028a22358128457b32"
                    }
                ],
                "storageVariables": [
                    {
                        "name": "reserve0",
                        "type": "uint112",
                        "value": {
                            "current": "409645094711004170570195580",
                            "prev": "411318167505011200816937778",
                            "typeTag": 1
                        }
                    },
                    {
                        "name": "reserve1",
                        "type": "uint112",
                        "value": {
                            "current": "2451114103880138730",
                            "prev": "2441114103880138730",
                            "typeTag": 1
                        }
                    },
                    {
                        "name": "blockTimestampLast",
                        "type": "uint32",
                        "value": {
                            "current": "1708315739",
                            "prev": "1708315739",
                            "typeTag": 1
                        }
                    }
                ]
            }
        ]
    }
}