{
    "balance_change": {
        "balanceChanges": [
            {
                "account": "0xd91e6b68a3a69b33726d77c4726f4613dbc201ae",
                "assets": [
                    {
                        "address": "0xeeeeeeeeeeeeeeeeeeeeeeeeeeeeeeeeeeeeeeee",
                        "amount": "0.1332",
                        "iconUrl": "https://assets.blocksec.com/image/1663669189317-3.png",
                        "isERC1155": false,
                        "isERC721": false,
                        "sign": false,
                        "value": "454.7073181"
                    },
                    {
                        "address": "0x2570f12074ac007aec09426c5d092dd2a1fa3e5f",
                        "amount": "1",
                        "iconUrl": "",
                        "isERC1155": false,
                        "isERC721": true,
                        "sign": true,
                        "tokenID": "627",
                        "value": ""
                    },
                    {
                        "address": "0x2570f12074ac007aec09426c5d092dd2a1fa3e5f",
                        "amount": "1",
                        "iconUrl": "",
                        "isERC1155": false,
                        "isERC721": true,
                        "sign": true,
                        "tokenID": "628",
                        "value": ""
                    }
                ]
            },
            {
                "account": "0x2570f12074ac007aec09426c5d092dd2a1fa3e5f",
                "assets": [
                    {
                        "address": "0xeeeeeeeeeeeeeeeeeeeeeeeeeeeeeeeeeeeeeeee",
                        "amount": "0.1332",
                        "iconUrl": "https://assets.blocksec.com/image/1663669189317-3.png",
                        "isERC1155": false,
                        "isERC721": false,
                        "sign": true,
                        "value": "454.7073181"
                    }
                ]
            },
            {
                "account": "0x0000000000000000000000000000000000000000",
                "assets": [
                    {
                        "address": "0x2570f12074ac007aec09426c5d092dd2a1fa3e5f",
                        "amount": "1",
                        "iconUrl": "",
                        "isERC1155": false,
                        "isERC721": true,
                        "sign": false,
                        "tokenID": "627",
                        "value": ""
                    },
                    {
                        "address": "0x2570f12074ac007aec09426c5d092dd2a1fa3e5f",
                        "amount": "1",
                        "iconUrl": "",
                        "isERC1155": false,
                        "isERC721": true,
                        "sign": false,
                        "tokenID": "628",
                        "value": ""
                    }
                ]
            }
        ]
    },
    "profile": {
        "basic_info": {
            "baseFee": "97.246947209",
            "blockNumber": 13365385,
            "callData": "0x113507a60000000000000000000000000000000000000000000000000000000000000002000000000000000000000000d91e6b68a3a69b33726d77c4726f4613dbc201ae00000000000000000000000000000000000000000000000000000000000000600000000000000000000000000000000000000000000000000000000000000002000000000000000000000000000000000000000000000000000000000000004000000000000000000000000000000000000000000000000000000000000001a0000000000000000000000000000000000000000000000000000000000000000000000000000000000000000000000000000000000000000000ec9c58de0a8000000000000000000000000000000000000000000000000000000000000000008000000000000000000000000000000000000000000000000000000000000000e00000000000000000000000000000000000000000000000000000000000000038516d613248613348724352707942386f6f4b7a764231457245744c43537a677774347a32735244744d37375239482f323136342e6a736f6e00000000000000000000000000000000000000000000000000000000000000000000000000000041b380befa0534511588d7ec5db8328676b5b7acb5a61a6751a66c9b19acb75845575eeff96367153c8bab71e442c035b1230703ccdb6cdc03d557da1d86fef6bd1b00000000000000000000000000000000000000000000000000000000000000000000000000000000000000000000000000000000000000000000000000000000000000000000000000000000000000000000000000000000ec9c58de0a8000000000000000000000000000000000000000000000000000000000000000008000000000000000000000000000000000000000000000000000000000000000e00000000000000000000000000000000000000000000000000000000000000038516d613248613348724352707942386f6f4b7a764231457245744c43537a677774347a32735244744d37375239482f323136352e6a736f6e00000000000000000000000000000000000000000000000000000000000000000000000000000041118cfe87cb481ffb1f4e32bf0d8f1d89017dd134692d724bd96fb73af053555f02acde2aa3008d5fffcf8037d30be71645f949a77e3e12a6236f0673079136b31c00000000000000000000000000000000000000000000000000000000000000",
            "debugEnable": true,
            "errorInfo": "",
            "eventCount": 6,
            "feeRecipient": "0x1ad91ee08f21be3de0ba2ba6918e714da6b45836",
            "formatValue": "0.1332",
            "gasLimit": 506856,
            "gasPrice": "102.482462755",
            "gasUsed": 298104,
            "intTxnCount": 2,
            "internalRevert": false,
            "internalRevertMessage": "",
            "isContractCreation": false,
            "isFlashloan": false,
            "maxFee": "102.482462755",
            "nonce": 0,
            "overwritedBlockNumber": -1,
            "priorityFee": "102.482462755",
            "receiver": "0x2570f12074ac007aec09426c5d092dd2a1fa3e5f",
            "revertMessage": "",
            "sender": "0xd91e6b68a3a69b33726d77c4726f4613dbc201ae",
            "simulationEnable": true,
            "sourceTxnHash": "0xad570a4dbef52e4b97debc1e406ba41bf3451ef947a8704e737783a41387a88e",
            "status": true,
            "timestamp": "2021-10-06T12:21:31Z",
            "transactionFee": "0.03055043207711652",
            "txnHash": "0xad570a4dbef52e4b97debc1e406ba41bf3451ef947a8704e737783a41387a88e",
            "txnIndex": 85,
            "type": 2,
            "value": "133200000000000000"
        },
        "fund_flow": [
            {
                "amount": "0.1332",
                "from": "0xd91e6b68a3a69b33726d77c4726f4613dbc201ae",
                "id": 1,
                "isERC1155": false,
                "isERC721": false,
                "isReverted": false,
                "order": 1,
                "to": "0x2570f12074ac007aec09426c5d092dd2a1fa3e5f",
                "token": "0xeeeeeeeeeeeeeeeeeeeeeeeeeeeeeeeeeeeeeeee"
            },
            {
                "amount": "1",
                "from": "0x0000000000000000000000000000000000000000",
                "id": 2,
                "isERC1155": false,
                "isERC721": true,
                "isReverted": false,
                "order": 2,
                "to": "0x3600ac1f03480774f25f937c1e3fb2f9e043d214",
                "token": "0x2570f12074ac007aec09426c5d092dd2a1fa3e5f",
                "tokenID": "627"
            },
            {
                "amount": "1",
                "from": "0x3600ac1f03480774f25f937c1e3fb2f9e043d214",
                "id": 3,
                "isERC1155": false,
                "isERC721": true,
                "isReverted": false,
                "order": 3,
                "to": "0xd91e6b68a3a69b33726d77c4726f4613dbc201ae",
                "token": "0x2570f12074ac007aec09426c5d092dd2a1fa3e5f",
                "tokenID": "627"
            },
            {
                "amount": "1",
                "from": "0x0000000000000000000000000000000000000000",
                "id": 4,
                "isERC1155": false,
                "isERC721": true,
                "isReverted": false,
                "order": 4,
                "to": "0x3600ac1f03480774f25f937c1e3fb2f9e043d214",
                "token": "0x2570f12074ac007aec09426c5d092dd2a1fa3e5f",
                "tokenID": "628"
            },
            {
                "amount": "1",
                "from": "0x3600ac1f03480774f25f937c1e3fb2f9e043d214",
                "id": 5,
                "isERC1155": false,
                "isERC721": true,
                "isReverted": false,
                "order": 5,
                "to": "0xd91e6b68a3a69b33726d77c4726f4613dbc201ae",
                "token": "0x2570f12074ac007aec09426c5d092dd2a1fa3e5f",
                "tokenID": "628"
            }
        ],
        "token_infos": [
            {
                "address": "0xc02aaa39b223fe8d0a0e5c4f27ead9083c756cc2",
                "decimals": 18
            },
            {
                "address": "0xeeeeeeeeeeeeeeeeeeeeeeeeeeeeeeeeeeeeeeee",
                "decimals": 18
            }
        ]
    },
    "address_label": {
        "labels": [
            {
                "address": "0xeeeeeeeeeeeeeeeeeeeeeeeeeeeeeeeeeeeeeeee",
                "label": "Ether"
            },
            {
                "address": "0x2570f12074ac007aec09426c5d092dd2a1fa3e5f",
                "label": "GoulieNFT (GOLE)"
            },
            {
                "address": "0x0000000000000000000000000000000000000001",
                "label": "Precompiled"
            },
            {
                "address": "0x0000000000000000000000000000000000000002",
                "label": "Precompiled"
            },
            {
                "address": "0x0000000000000000000000000000000000000003",
                "label": "Precompiled"
            },
            {
                "address": "0x0000000000000000000000000000000000000004",
                "label": "Precompiled"
            }
        ]
    },
    "trace": {
        "accountLabels": null,
        "dataMap": {
            "-1": {
                "invocation": {
                    "address": "0xd91e6b68a3a69b33726d77c4726f4613dbc201ae",
                    "callData": "",
                    "decodedMethod": null,
                    "errorInfo": "",
                    "fromAddress": "",
                    "gasUsed": 0,
                    "id": -1,
                    "methodDecoded": false,
                    "operation": "",
                    "output": "",
                    "revert": false,
                    "revertMessage": "",
                    "selector": "",
                    "status": false,
                    "value": ""
                },
                "nodeType": 0
            },
            "0": {
                "invocation": {
                    "address": "0x2570f12074ac007aec09426c5d092dd2a1fa3e5f",
                    "callData": "0x0000000000000000000000000000000000000000000000000000000000000002000000000000000000000000d91e6b68a3a69b33726d77c4726f4613dbc201ae00000000000000000000000000000000000000000000000000000000000000600000000000000000000000000000000000000000000000000000000000000002000000000000000000000000000000000000000000000000000000000000004000000000000000000000000000000000000000000000000000000000000001a0000000000000000000000000000000000000000000000000000000000000000000000000000000000000000000000000000000000000000000ec9c58de0a8000000000000000000000000000000000000000000000000000000000000000008000000000000000000000000000000000000000000000000000000000000000e00000000000000000000000000000000000000000000000000000000000000038516d613248613348724352707942386f6f4b7a764231457245744c43537a677774347a32735244744d37375239482f323136342e6a736f6e00000000000000000000000000000000000000000000000000000000000000000000000000000041b380befa0534511588d7ec5db8328676b5b7acb5a61a6751a66c9b19acb75845575eeff96367153c8bab71e442c035b1230703ccdb6cdc03d557da1d86fef6bd1b00000000000000000000000000000000000000000000000000000000000000000000000000000000000000000000000000000000000000000000000000000000000000000000000000000000000000000000000000000000ec9c58de0a8000000000000000000000000000000000000000000000000000000000000000008000000000000000000000000000000000000000000000000000000000000000e00000000000000000000000000000000000000000000000000000000000000038516d613248613348724352707942386f6f4b7a764231457245744c43537a677774347a32735244744d37375239482f323136352e6a736f6e00000000000000000000000000000000000000000000000000000000000000000000000000000041118cfe87cb481ffb1f4e32bf0d8f1d89017dd134692d724bd96fb73af053555f02acde2aa3008d5fffcf8037d30be71645f949a77e3e12a6236f0673079136b31c00000000000000000000000000000000000000000000000000000000000000",
                    "decodedMethod": {
                        "callParams": [
                            {
                                "name": "tokenCount",
                                "type": "uint256",
                                "value": "2"
                            },
                            {
                                "name": "redeemer",
                                "type": "address",
                                "value": "0xd91e6b68a3a69b33726d77c4726f4613dbc201ae"
                            },
                            {
                                "name": "vouchers",
                                "type": "(bool,uint256,string,bytes)[]",
                                "value": [
                                    [
                                        {
                                            "name": "presale",
                                            "type": "bool",
                                            "value": false
                                        },
                                        {
                                            "name": "minPrice",
                                            "type": "uint256",
                                            "value": "66,600,000,000,000,000"
                                        },
                                        {
                                            "name": "cid",
                                            "type": "string",
                                            "value": "Qma2Ha3HrCRpyB8ooKzvB1ErEtLCSzgwt4z2sRDtM77R9H/2164.json"
                                        },
                                        {
                                            "name": "signature",
                                            "type": "bytes",
                                            "value": "0xb380befa0534511588d7ec5db8328676b5b7acb5a61a6751a66c9b19acb75845575eeff96367153c8bab71e442c035b1230703ccdb6cdc03d557da1d86fef6bd1b"
                                        }
                                    ],
                                    [
                                        {
                                            "name": "presale",
                                            "type": "bool",
                                            "value": false
                                        },
                                        {
                                            "name": "minPrice",
                                            "type": "uint256",
                                            "value": "66,600,000,000,000,000"
                                        },
                                        {
                                            "name": "cid",
                                            "type": "string",
                                            "value": "Qma2Ha3HrCRpyB8ooKzvB1ErEtLCSzgwt4z2sRDtM77R9H/2165.json"
                                        },
                                        {
                                            "name": "signature",
                                            "type": "bytes",
                                            "value": "0x118cfe87cb481ffb1f4e32bf0d8f1d89017dd134692d724bd96fb73af053555f02acde2aa3008d5fffcf8037d30be71645f949a77e3e12a6236f0673079136b31c"
                                        }
                                    ]
                                ]
                            }
                        ],
                        "constructorArguments": "",
                        "name": "redeem",
                        "returnParams": [],
                        "signature": "redeem(uint256,address,(bool,uint256,string,bytes)[])"
                    },
                    "errorInfo": "",
                    "fromAddress": "0xd91e6b68a3a69b33726d77c4726f4613dbc201ae",
                    "gasUsed": 298104,
                    "id": 0,
                    "methodDecoded": true,
                    "operation": "CALL",
                    "output": "",
                    "revert": false,
                    "revertMessage": "",
                    "selector": "0x113507a6",
                    "status": true,
                    "value": "0.1332"
                },
                "nodeType": 0
            },
            "1": {
                "invocation": {
                    "address": "0x0000000000000000000000000000000000000001",
                    "callData": "0x23d7d6595c5734ddff85f8500547354d3c08238b1326f76a60111155000000000000000000000000000000000000000000000000000000000000001bb380befa0534511588d7ec5db8328676b5b7acb5a61a6751a66c9b19acb75845575eeff96367153c8bab71e442c035b1230703ccdb6cdc03d557da1d86fef6bd",
                    "decodedMethod": {
                        "callParams": [
                            {
                                "name": "hash",
                                "type": "bytes32",
                                "value": "0x24ad7e8123d7d6595c5734ddff85f8500547354d3c08238b1326f76a60111155"
                            },
                            {
                                "name": "v",
                                "type": "uint256",
                                "value": "27"
                            },
                            {
                                "name": "r",
                                "type": "bytes32",
                                "value": "0xb380befa0534511588d7ec5db8328676b5b7acb5a61a6751a66c9b19acb75845"
                            },
                            {
                                "name": "s",
                                "type": "bytes32",
                                "value": "0x575eeff96367153c8bab71e442c035b1230703ccdb6cdc03d557da1d86fef6bd"
                            }
                        ],
                        "constructorArguments": "",
                        "name": "ecrecover",
                        "returnParams": [
                            {
                                "name": "",
                                "type": "address",
                                "value": "0x3600ac1f03480774f25f937c1e3fb2f9e043d214"
                            }
                        ],
                        "signature": "ecrecover(bytes32,uint256,bytes32,bytes32)"
                    },
                    "errorInfo": "",
                    "fromAddress": "0x2570f12074ac007aec09426c5d092dd2a1fa3e5f",
                    "gasUsed": 3000,
                    "id": 1,
                    "methodDecoded": true,
                    "operation": "STATICCALL",
                    "output": "0x0000000000000000000000003600ac1f03480774f25f937c1e3fb2f9e043d214",
                    "revert": false,
                    "revertMessage": "",
                    "selector": "0x24ad7e81",
                    "status": true,
                    "value": "0"
                },
                "nodeType": 0
            },
            "2": {
                "event": {
                    "contract": "0x2570f12074ac007aec09426c5d092dd2a1fa3e5f",
                    "decodedLog": {
                        "name": "Transfer",
                        "params": [
                            {
                                "name": "from",
                                "type": "address",
                                "value": "0x0000000000000000000000000000000000000000"
                            },
                            {
                                "name": "to",
                                "type": "address",
                                "value": "0x3600ac1f03480774f25f937c1e3fb2f9e043d214"
                            },
                            {
                                "decimalAvailable": true,
                                "name": "tokenId",
                                "type": "uint256",
                                "value": "627"
                            }
                        ],
                        "signature": "Transfer(address,address,uint256)"
                    },
                    "id": 2,
                    "logData": "0x",
                    "logDecoded": true,
                    "operation": "EVENT",
                    "revert": false,
                    "status": true,
                    "topics": [
                        "0xddf252ad1be2c89b69c2b068fc378daa952ba7f163c4a11628f55a4df523b3ef",
                        "0x0000000000000000000000000000000000000000000000000000000000000000",
                        "0x0000000000000000000000003600ac1f03480774f25f937c1e3fb2f9e043d214",
                        "0x0000000000000000000000000000000000000000000000000000000000000273"
                    ]
                },
                "nodeType": 1
            },
            "3": {
                "event": {
                    "contract": "0x2570f12074ac007aec09426c5d092dd2a1fa3e5f",
                    "decodedLog": {
                        "name": "Approval",
                        "params": [
                            {
                                "name": "owner",
                                "type": "address",
                                "value": "0x3600ac1f03480774f25f937c1e3fb2f9e043d214"
                            },
                            {
                                "name": "approved",
                                "type": "address",
                                "value": "0x0000000000000000000000000000000000000000"
                            },
                            {
                                "decimalAvailable": true,
                                "name": "tokenId",
                                "type": "uint256",
                                "value": "627"
                            }
                        ],
                        "signature": "Approval(address,address,uint256)"
                    },
                    "id": 3,
                    "logData": "0x",
                    "logDecoded": true,
                    "operation": "EVENT",
                    "revert": false,
                    "status": true,
                    "topics": [
                        "0x8c5be1e5ebec7d5bd14f71427d1e84f3dd0314c0f7b2291e5b200ac8c7c3b925",
                        "0x0000000000000000000000003600ac1f03480774f25f937c1e3fb2f9e043d214",
                        "0x0000000000000000000000000000000000000000000000000000000000000000",
                        "0x0000000000000000000000000000000000000000000000000000000000000273"
                    ]
                },
                "nodeType": 1
            },
            "4": {
                "event": {
                    "contract": "0x2570f12074ac007aec09426c5d092dd2a1fa3e5f",
                    "decodedLog": {
                        "name": "Transfer",
                        "params": [
                            {
                                "name": "from",
                                "type": "address",
                                "value": "0x3600ac1f03480774f25f937c1e3fb2f9e043d214"
                            },
                            {
                                "name": "to",
                                "type": "address",
                                "value": "0xd91e6b68a3a69b33726d77c4726f4613dbc201ae"
                            },
                            {
                                "decimalAvailable": true,
                                "name": "tokenId",
                                "type": "uint256",
                                "value": "627"
                            }
                        ],
                        "signature": "Transfer(address,address,uint256)"
                    },
                    "id": 4,
                    "logData": "0x",
                    "logDecoded": true,
                    "operation": "EVENT",
                    "revert": false,
                    "status": true,
                    "topics": [
                        "0xddf252ad1be2c89b69c2b068fc378daa952ba7f163c4a11628f55a4df523b3ef",
                        "0x0000000000000000000000003600ac1f03480774f25f937c1e3fb2f9e043d214",
                        "0x000000000000000000000000d91e6b68a3a69b33726d77c4726f4613dbc201ae",
                        "0x0000000000000000000000000000000000000000000000000000000000000273"
                    ]
                },
                "nodeType": 1
            },
            "5": {
                "invocation": {
                    "address": "0x0000000000000000000000000000000000000001",
                    "callData": "0x60ffc597cb69e504aa6f66b30e03cbfd799641c7e5ce108479944926000000000000000000000000000000000000000000000000000000000000001c118cfe87cb481ffb1f4e32bf0d8f1d89017dd134692d724bd96fb73af053555f02acde2aa3008d5fffcf8037d30be71645f949a77e3e12a6236f0673079136b3",
                    "decodedMethod": {
                        "callParams": [
                            {
                                "name": "hash",
                                "type": "bytes32",
                                "value": "0x642d6c0060ffc597cb69e504aa6f66b30e03cbfd799641c7e5ce108479944926"
                            },
                            {
                                "name": "v",
                                "type": "uint256",
                                "value": "28"
                            },
                            {
                                "name": "r",
                                "type": "bytes32",
                                "value": "0x118cfe87cb481ffb1f4e32bf0d8f1d89017dd134692d724bd96fb73af053555f"
                            },
                            {
                                "name": "s",
                                "type": "bytes32",
                                "value": "0x02acde2aa3008d5fffcf8037d30be71645f949a77e3e12a6236f0673079136b3"
                            }
                        ],
                        "constructorArguments": "",
                        "name": "ecrecover",
                        "returnParams": [
                            {
                                "name": "",
                                "type": "address",
                                "value": "0x3600ac1f03480774f25f937c1e3fb2f9e043d214"
                            }
                        ],
                        "signature": "ecrecover(bytes32,uint256,bytes32,bytes32)"
                    },
                    "errorInfo": "",
                    "fromAddress": "0x2570f12074ac007aec09426c5d092dd2a1fa3e5f",
                    "gasUsed": 3000,
                    "id": 5,
                    "methodDecoded": true,
                    "operation": "STATICCALL",
                    "output": "0x0000000000000000000000003600ac1f03480774f25f937c1e3fb2f9e043d214",
                    "revert": false,
                    "revertMessage": "",
                    "selector": "0x642d6c00",
                    "status": true,
                    "value": "0"
                },
                "nodeType": 0
            },
            "6": {
                "event": {
                    "contract": "0x2570f12074ac007aec09426c5d092dd2a1fa3e5f",
                    "decodedLog": {
                        "name": "Transfer",
                        "params": [
                            {
                                "name": "from",
                                "type": "address",
                                "value": "0x0000000000000000000000000000000000000000"
                            },
                            {
                                "name": "to",
                                "type": "address",
                                "value": "0x3600ac1f03480774f25f937c1e3fb2f9e043d214"
                            },
                            {
                                "decimalAvailable": true,
                                "name": "tokenId",
                                "type": "uint256",
                                "value": "628"
                            }
                        ],
                        "signature": "Transfer(address,address,uint256)"
                    },
                    "id": 6,
                    "logData": "0x",
                    "logDecoded": true,
                    "operation": "EVENT",
                    "revert": false,
                    "status": true,
                    "topics": [
                        "0xddf252ad1be2c89b69c2b068fc378daa952ba7f163c4a11628f55a4df523b3ef",
                        "0x0000000000000000000000000000000000000000000000000000000000000000",
                        "0x0000000000000000000000003600ac1f03480774f25f937c1e3fb2f9e043d214",
                        "0x0000000000000000000000000000000000000000000000000000000000000274"
                    ]
                },
                "nodeType": 1
            },
            "7": {
                "event": {
                    "contract": "0x2570f12074ac007aec09426c5d092dd2a1fa3e5f",
                    "decodedLog": {
                        "name": "Approval",
                        "params": [
                            {
                                "name": "owner",
                                "type": "address",
                                "value": "0x3600ac1f03480774f25f937c1e3fb2f9e043d214"
                            },
                            {
                                "name": "approved",
                                "type": "address",
                                "value": "0x0000000000000000000000000000000000000000"
                            },
                            {
                                "decimalAvailable": true,
                                "name": "tokenId",
                                "type": "uint256",
                                "value": "628"
                            }
                        ],
                        "signature": "Approval(address,address,uint256)"
                    },
                    "id": 7,
                    "logData": "0x",
                    "logDecoded": true,
                    "operation": "EVENT",
                    "revert": false,
                    "status": true,
                    "topics": [
                        "0x8c5be1e5ebec7d5bd14f71427d1e84f3dd0314c0f7b2291e5b200ac8c7c3b925",
                        "0x0000000000000000000000003600ac1f03480774f25f937c1e3fb2f9e043d214",
                        "0x0000000000000000000000000000000000000000000000000000000000000000",
                        "0x0000000000000000000000000000000000000000000000000000000000000274"
                    ]
                },
                "nodeType": 1
            },
            "8": {
                "event": {
                    "contract": "0x2570f12074ac007aec09426c5d092dd2a1fa3e5f",
                    "decodedLog": {
                        "name": "Transfer",
                        "params": [
                            {
                                "name": "from",
                                "type": "address",
                                "value": "0x3600ac1f03480774f25f937c1e3fb2f9e043d214"
                            },
                            {
                                "name": "to",
                                "type": "address",
                                "value": "0xd91e6b68a3a69b33726d77c4726f4613dbc201ae"
                            },
                            {
                                "decimalAvailable": true,
                                "name": "tokenId",
                                "type": "uint256",
                                "value": "628"
                            }
                        ],
                        "signature": "Transfer(address,address,uint256)"
                    },
                    "id": 8,
                    "logData": "0x",
                    "logDecoded": true,
                    "operation": "EVENT",
                    "revert": false,
                    "status": true,
                    "topics": [
                        "0xddf252ad1be2c89b69c2b068fc378daa952ba7f163c4a11628f55a4df523b3ef",
                        "0x0000000000000000000000003600ac1f03480774f25f937c1e3fb2f9e043d214",
                        "0x000000000000000000000000d91e6b68a3a69b33726d77c4726f4613dbc201ae",
                        "0x0000000000000000000000000000000000000000000000000000000000000274"
                    ]
                },
                "nodeType": 1
            }
        },
        "gasFlame": [
            {
                "children": [
                    {
                        "children": [
                            {
                                "children": [],
                                "depth": 0,
                                "name": "Initial Gas",
                                "value": 28092
                            },
                            {
                                "children": [
                                    {
                                        "children": [],
                                        "depth": 1,
                                        "name": "ecrecover",
                                        "value": 3000
                                    },
                                    {
                                        "children": [],
                                        "depth": 1,
                                        "name": "ecrecover",
                                        "value": 3000
                                    }
                                ],
                                "depth": 0,
                                "name": "Executed Gas",
                                "value": 309812
                            }
                        ],
                        "depth": -1,
                        "name": "Actual Gas Used",
                        "value": 298104
                    },
                    {
                        "children": [],
                        "depth": -1,
                        "name": "Refunded Gas",
                        "value": 39800
                    }
                ],
                "depth": -2,
                "name": "Total Gas",
                "value": 337904
            }
        ],
        "isConfirmed": true,
        "mainTrace": [
            {
                "children": [
                    {
                        "children": [
                            {
                                "children": [],
                                "depth": 1,
                                "id": 1,
                                "order": 1
                            },
                            {
                                "children": [],
                                "depth": 1,
                                "id": 2,
                                "order": 2
                            },
                            {
                                "children": [],
                                "depth": 1,
                                "id": 3,
                                "order": 3
                            },
                            {
                                "children": [],
                                "depth": 1,
                                "id": 4,
                                "order": 4
                            },
                            {
                                "children": [],
                                "depth": 1,
                                "id": 5,
                                "order": 5
                            },
                            {
                                "children": [],
                                "depth": 1,
                                "id": 6,
                                "order": 6
                            },
                            {
                                "children": [],
                                "depth": 1,
                                "id": 7,
                                "order": 7
                            },
                            {
                                "children": [],
                                "depth": 1,
                                "id": 8,
                                "order": 8
                            }
                        ],
                        "depth": 0,
                        "id": 0,
                        "order": 0
                    }
                ],
                "depth": -1,
                "id": -1,
                "order": -1
            }
        ],
        "mainTraceNodeCount": 9,
        "parentIdMap": {
            "0": -1,
            "1": 0,
            "2": 0,
            "3": 0,
            "4": 0,
            "5": 0,
            "6": 0,
            "7": 0,
            "8": 0
        },
        "tidyTrace": [
            {
                "children": [
                    {
                        "children": [
                            {
                                "children": [],
                                "depth": 1,
                                "id": 2,
                                "order": 2
                            },
                            {
                                "children": [],
                                "depth": 1,
                                "id": 3,
                                "order": 3
                            },
                            {
                                "children": [],
                                "depth": 1,
                                "id": 4,
                                "order": 4
                            },
                            {
                                "children": [],
                                "depth": 1,
                                "id": 6,
                                "order": 6
                            },
                            {
                                "children": [],
                                "depth": 1,
                                "id": 7,
                                "order": 7
                            },
                            {
                                "children": [],
                                "depth": 1,
                                "id": 8,
                                "order": 8
                            }
                        ],
                        "depth": 0,
                        "id": 0,
                        "order": 0
                    }
                ],
                "depth": -1,
                "id": -1,
                "order": -1
            }
        ],
        "tidyTraceNodeCount": 7
    },
    "state_change": {
        "stateChanges": [
            {
                "address": "0x2570f12074ac007aec09426c5d092dd2a1fa3e5f",
                "erc": "ERC-721",
                "slots": [
                    {
                        "current": "0x000000000000000000000000d91e6b68a3a69b33726d77c4726f4613dbc201ae",
                        "key": "0x27a8d1a36e4c76e41471a0f21f6c45b771410fe5641679c38b2bdb441b982798",
                        "prev": "0x0000000000000000000000000000000000000000000000000000000000000000"
                    },
                    {
                        "current": "0x74347a32735244744d37375239482f323136342e6a736f6e0000000000000000",
                        "key": "0x21e3c55c8543952128f13f4331e689bd3a8075da2ae4bb2e703e7486ca1107bd",
                        "prev": "0x0000000000000000000000000000000000000000000000000000000000000000"
                    },
                    {
                        "current": "0x00000000000000000000000000000000000000000000000128b00b6e6b2a8168",
                        "key": "0x3474f75ff3042c59a7d2dca5cde395558fe4666626cd16d0fdf087cf94be9f39",
                        "prev": "0x00000000000000000000000000000000000000000000000126d6d2bcaf158168"
                    },
                    {
                        "current": "0x0000000000000000000000000000000000000000000000000000000000000002",
                        "key": "0xb72ebaa44b3412bf1c24be9eac737b1e36aba15da94ea1c541698cad1f4eeb0e",
                        "prev": "0x0000000000000000000000000000000000000000000000000000000000000000"
                    },
                    {
                        "current": "0x000000000000000000000000d91e6b68a3a69b33726d77c4726f4613dbc201ae",
                        "key": "0x43ec9b48d844f1747c3a929d7e074220d9513862420fc19a6c1772c42ab6f55c",
                        "prev": "0x0000000000000000000000000000000000000000000000000000000000000000"
                    },
                    {
                        "current": "0x0000000000000000000000000000000000000000000000000000000000000071",
                        "key": "0xd2d0ceefbf547d6bbe80f64dc198e27a985ce7a056a26e949f6d868bf09dbc54",
                        "prev": "0x0000000000000000000000000000000000000000000000000000000000000000"
                    },
                    {
                        "current": "0x516d613248613348724352707942386f6f4b7a764231457245744c43537a6777",
                        "key": "0x80e0ee8b9343d5a0616b731132625255fb636e467040da4e3ab069f11f63dc7d",
                        "prev": "0x0000000000000000000000000000000000000000000000000000000000000000"
                    },
                    {
                        "current": "0x0000000000000000000000000000000000000000000000000000000000000274",
                        "key": "0x0000000000000000000000000000000000000000000000000000000000000015",
                        "prev": "0x0000000000000000000000000000000000000000000000000000000000000272"
                    },
                    {
                        "current": "0x0000000000000000000000000000000000000000000000000000000000000071",
                        "key": "0x7a93d3c6d1cd2f77b2a384d009de06de7f30c7a3555db6d4923e8e1e108c6ad7",
                        "prev": "0x0000000000000000000000000000000000000000000000000000000000000000"
                    },
                    {
                        "current": "0x516d613248613348724352707942386f6f4b7a764231457245744c43537a6777",
                        "key": "0x21e3c55c8543952128f13f4331e689bd3a8075da2ae4bb2e703e7486ca1107bc",
                        "prev": "0x0000000000000000000000000000000000000000000000000000000000000000"
                    },
                    {
                        "current": "0x74347a32735244744d37375239482f323136352e6a736f6e0000000000000000",
                        "key": "0x80e0ee8b9343d5a0616b731132625255fb636e467040da4e3ab069f11f63dc7e",
                        "prev": "0x0000000000000000000000000000000000000000000000000000000000000000"
                    }
                ],
                "storageVariables": [
                    {
                        "name": "_tokenURIs",
                        "type": "mapping(uint256 => string)",
                        "value": {
                            "pairs": [
                                {
                                    "key": "627",
                                    "value": {
                                        "current": "Qma2Ha3HrCRpyB8ooKzvB1ErEtLCSzgwt4z2sRDtM77R9H/2164.json",
                                        "prev": "",
                                        "typeTag": 1
                                    }
                                },
                                {
                                    "key": "628",
                                    "value": {
                                        "current": "Qma2Ha3HrCRpyB8ooKzvB1ErEtLCSzgwt4z2sRDtM77R9H/2165.json",
                                        "prev": "",
                                        "typeTag": 1
                                    }
                                }
                            ],
                            "typeTag": 4
                        }
                    },
                    {
                        "name": "pendingWithdrawals",
                        "type": "mapping(address => uint256)",
                        "value": {
                            "pairs": [
                                {
                                    "key": "0x55463096d572d6d89554603b8366561ada382159",
                                    "value": {
                                        "current": "21378600000000000360",
                                        "prev": "21245400000000000360",
                                        "typeTag": 1
                                    }
                                }
                            ],
                            "typeTag": 4
                        }
                    },
                    {
                        "name": "_owners",
                        "type": "mapping(uint256 => address)",
                        "value": {
                            "pairs": [
                                {
                                    "key": "627",
                                    "value": {
                                        "current": "0xd91e6b68a3a69b33726d77c4726f4613dbc201ae",
                                        "prev": "0x0000000000000000000000000000000000000000",
                                        "typeTag": 1
                                    }
                                },
                                {
                                    "key": "628",
                                    "value": {
                                        "current": "0xd91e6b68a3a69b33726d77c4726f4613dbc201ae",
                                        "prev": "0x0000000000000000000000000000000000000000",
                                        "typeTag": 1
                                    }
                                }
                            ],
                            "typeTag": 4
                        }
                    },
                    {
                        "name": "currentTokenID",
                        "type": "uint256",
                        "value": {
                            "current": "628",
                            "prev": "626",
                            "typeTag": 1
                        }
                    },
                    {
                        "name": "_balances",
                        "type": "mapping(address => uint256)",
                        "value": {
                            "pairs": [
                                {
                                    "key": "0xd91e6b68a3a69b33726d77c4726f4613dbc201ae",
                                    "value": {
                                        "current": "2",
                                        "prev": "0",
                                        "typeTag": 1
                                    }
                                }
                            ],
                            "typeTag": 4
                        }
                    }
                ]
            }
        ]
    }
}