{
    "balance_change": {
        "balanceChanges": [
            {
                "account": "0x7bd8efab672250de65ba4ba3bc6c3aa08120a1c3",
                "assets": [
                    {
                        "address": "0x3506424f91fd33084466f402d5d97f05f8e3b4af",
                        "amount": "10,267.07859418",
                        "iconUrl": "https://assets.blocksec.com/icon/206fcc9fb6f1bc7fad1ab78e1cd3e44539d71743a172be83828afbe05b6ada6c.png",
                        "isERC1155": false,
                        "isERC721": false,
                        "sign": true,
                        "value": ""
                    }
                ]
            },
            {
                "account": "0xf6c7fa7f5f9f2be05c50e7a03c269cdaf9156d50",
                "assets": [
                    {
                        "address": "0x3506424f91fd33084466f402d5d97f05f8e3b4af",
                        "amount": "10,267.07859418",
                        "iconUrl": "https://assets.blocksec.com/icon/206fcc9fb6f1bc7fad1ab78e1cd3e44539d71743a172be83828afbe05b6ada6c.png",
                        "isERC1155": false,
                        "isERC721": false,
                        "sign": false,
                        "value": ""
                    }
                ]
            }
        ]
    },
    "profile": {
        "basic_info": {
            "baseFee": "",
            "blockNumber": 10725734,
            "callData": "0x23b872dd000000000000000000000000f6c7fa7f5f9f2be05c50e7a03c269cdaf9156d500000000000000000000000007bd8efab672250de65ba4ba3bc6c3aa08120a1c300000000000000000000000000000000000000000000022c94569017cbdc2800",
            "debugEnable": true,
            "errorInfo": "",
            "eventCount": 1,
            "feeRecipient": "0xea674fdde714fd979de3edf0f56aa9716b898ec8",
            "formatValue": "0",
            "gasLimit": 45709,
            "gasPrice": "67",
            "gasUsed": 30709,
            "intTxnCount": 0,
            "internalRevert": false,
            "internalRevertMessage": "",
            "isContractCreation": false,
            "isFlashloan": false,
            "maxFee": "",
            "nonce": 21549,
            "overwritedBlockNumber": -1,
            "priorityFee": "",
            "receiver": "0x3506424f91fd33084466f402d5d97f05f8e3b4af",
            "revertMessage": "",
            "sender": "0x7bd8efab672250de65ba4ba3bc6c3aa08120a1c3",
            "simulationEnable": true,
            "sourceTxnHash": "0xad51ed8a1bf8409dfd8821bb7416fe452d4e693c767f207efe38d1b7b7d1dbbe",
            "status": true,
            "timestamp": "2020-08-24T22:07:36Z",
            "transactionFee": "0.002057503",
            "txnHash": "0xad51ed8a1bf8409dfd8821bb7416fe452d4e693c767f207efe38d1b7b7d1dbbe",
            "txnIndex": 99,
            "type": 0,
            "value": "0"
        },
        "fund_flow": [
            {
                "amount": "10,267.07859418",
                "from": "0xf6c7fa7f5f9f2be05c50e7a03c269cdaf9156d50",
                "id": 1,
                "isERC1155": false,
                "isERC721": false,
                "isReverted": false,
                "order": 1,
                "to": "0x7bd8efab672250de65ba4ba3bc6c3aa08120a1c3",
                "token": "0x3506424f91fd33084466f402d5d97f05f8e3b4af"
            }
        ],
        "token_infos": [
            {
                "address": "0x3506424f91fd33084466f402d5d97f05f8e3b4af",
                "decimals": 18
            },
            {
                "address": "0xc02aaa39b223fe8d0a0e5c4f27ead9083c756cc2",
                "decimals": 18
            },
            {
                "address": "0xeeeeeeeeeeeeeeeeeeeeeeeeeeeeeeeeeeeeeeee",
                "decimals": 18
            }
        ]
    },
    "address_label": {
        "labels": [
            {
                "address": "0x0000000000000000000000000000000000000004",
                "label": "Precompiled"
            },
            {
                "address": "0xeeeeeeeeeeeeeeeeeeeeeeeeeeeeeeeeeeeeeeee",
                "label": "Ether"
            },
            {
                "address": "0x3506424f91fd33084466f402d5d97f05f8e3b4af",
                "label": "Chiliz: CHZ Token"
            },
            {
                "address": "0x0000000000000000000000000000000000000001",
                "label": "Precompiled"
            },
            {
                "address": "0x0000000000000000000000000000000000000002",
                "label": "Precompiled"
            },
            {
                "address": "0x0000000000000000000000000000000000000003",
                "label": "Precompiled"
            }
        ]
    },
    "trace": {
        "accountLabels": null,
        "dataMap": {
            "-1": {
                "invocation": {
                    "address": "0x7bd8efab672250de65ba4ba3bc6c3aa08120a1c3",
                    "callData": "",
                    "decodedMethod": null,
                    "errorInfo": "",
                    "fromAddress": "",
                    "gasUsed": 0,
                    "id": -1,
                    "methodDecoded": false,
                    "operation": "",
                    "output": "",
                    "revert": false,
                    "revertMessage": "",
                    "selector": "",
                    "status": false,
                    "value": ""
                },
                "nodeType": 0
            },
            "0": {
                "invocation": {
                    "address": "0x3506424f91fd33084466f402d5d97f05f8e3b4af",
                    "callData": "0x000000000000000000000000f6c7fa7f5f9f2be05c50e7a03c269cdaf9156d500000000000000000000000007bd8efab672250de65ba4ba3bc6c3aa08120a1c300000000000000000000000000000000000000000000022c94569017cbdc2800",
                    "decodedMethod": {
                        "callParams": [
                            {
                                "name": "from",
                                "type": "address",
                                "value": "0xf6c7fa7f5f9f2be05c50e7a03c269cdaf9156d50"
                            },
                            {
                                "name": "to",
                                "type": "address",
                                "value": "0x7bd8efab672250de65ba4ba3bc6c3aa08120a1c3"
                            },
                            {
                                "decimalAvailable": true,
                                "name": "value",
                                "type": "uint256",
                                "value": "10,267,078,594,180,000,000,000"
                            }
                        ],
                        "constructorArguments": "",
                        "name": "transferFrom",
                        "returnParams": [
                            {
                                "name": "",
                                "type": "bool",
                                "value": true
                            }
                        ],
                        "signature": "transferFrom(address,address,uint256)"
                    },
                    "errorInfo": "",
                    "fromAddress": "0x7bd8efab672250de65ba4ba3bc6c3aa08120a1c3",
                    "gasUsed": 30709,
                    "id": 0,
                    "methodDecoded": true,
                    "operation": "CALL",
                    "output": "0x0000000000000000000000000000000000000000000000000000000000000001",
                    "revert": false,
                    "revertMessage": "",
                    "selector": "0x23b872dd",
                    "status": true,
                    "value": "0"
                },
                "nodeType": 0
            },
            "1": {
                "event": {
                    "contract": "0x3506424f91fd33084466f402d5d97f05f8e3b4af",
                    "decodedLog": {
                        "name": "Transfer",
                        "params": [
                            {
                                "name": "from",
                                "type": "address",
                                "value": "0xf6c7fa7f5f9f2be05c50e7a03c269cdaf9156d50"
                            },
                            {
                                "name": "to",
                                "type": "address",
                                "value": "0x7bd8efab672250de65ba4ba3bc6c3aa08120a1c3"
                            },
                            {
                                "decimalAvailable": true,
                                "name": "value",
                                "type": "uint256",
                                "value": "10,267,078,594,180,000,000,000"
                            }
                        ],
                        "signature": "Transfer(address,address,uint256)"
                    },
                    "id": 1,
                    "logData": "0x00000000000000000000000000000000000000000000022c94569017cbdc2800",
                    "logDecoded": true,
                    "operation": "EVENT",
                    "revert": false,
                    "status": true,
                    "topics": [
                        "0xddf252ad1be2c89b69c2b068fc378daa952ba7f163c4a11628f55a4df523b3ef",
                        "0x000000000000000000000000f6c7fa7f5f9f2be05c50e7a03c269cdaf9156d50",
                        "0x0000000000000000000000007bd8efab672250de65ba4ba3bc6c3aa08120a1c3"
                    ]
                },
                "nodeType": 1
            }
        },
        "gasFlame": [
            {
                "children": [
                    {
                        "children": [
                            {
                                "children": [],
                                "depth": 0,
                                "name": "Initial Gas",
                                "value": 22036
                            },
                            {
                                "children": [],
                                "depth": 0,
                                "name": "Executed Gas",
                                "value": 23673
                            }
                        ],
                        "depth": -1,
                        "name": "Actual Gas Used",
                        "value": 30709
                    },
                    {
                        "children": [],
                        "depth": -1,
                        "name": "Refunded Gas",
                        "value": 15000
                    }
                ],
                "depth": -2,
                "name": "Total Gas",
                "value": 45709
            }
        ],
        "isConfirmed": true,
        "mainTrace": [
            {
                "children": [
                    {
                        "children": [
                            {
                                "children": [],
                                "depth": 1,
                                "id": 1,
                                "order": 1
                            }
                        ],
                        "depth": 0,
                        "id": 0,
                        "order": 0
                    }
                ],
                "depth": -1,
                "id": -1,
                "order": -1
            }
        ],
        "mainTraceNodeCount": 2,
        "parentIdMap": {
            "0": -1,
            "1": 0
        },
        "tidyTrace": [
            {
                "children": [
                    {
                        "children": [
                            {
                                "children": [],
                                "depth": 1,
                                "id": 1,
                                "order": 1
                            }
                        ],
                        "depth": 0,
                        "id": 0,
                        "order": 0
                    }
                ],
                "depth": -1,
                "id": -1,
                "order": -1
            }
        ],
        "tidyTraceNodeCount": 2
    },
    "state_change": {
        "stateChanges": [
            {
                "address": "0x3506424f91fd33084466f402d5d97f05f8e3b4af",
                "erc": "ERC-20",
                "slots": [
                    {
                        "current": "0x000000000000000000000000000000000000000c9f2c974f258e2d09ffa95800",
                        "key": "0xfb024be4b6b904486e877960410216ca49ad192f01419099fff87f24479c73d6",
                        "prev": "0x000000000000000000000000000000000000000c9f2c997bb9e4bd21cb858000"
                    },
                    {
                        "current": "0x0000000000000000000000000000000000000000000000000000000000000000",
                        "key": "0x4bd3f9c89bb929ca84b81db4803ede2295f13a125b7f332184ee7368dc1355d5",
                        "prev": "0x00000000000000000000000000000000000000000000022c94569017cbdc2800"
                    },
                    {
                        "current": "0x000000000000000000000000000000000000000000f9a55ef678c30b489fe874",
                        "key": "0xbdc739e958b906c29c711ac1f9096f07ed4b5a074770a265c4a02d3ba58716bf",
                        "prev": "0x000000000000000000000000000000000000000000f9a332622232f37cc3c074"
                    }
                ],
                "storageVariables": [
                    {
                        "name": "_balances",
                        "type": "mapping(address => uint256)",
                        "value": {
                            "pairs": [
                                {
                                    "key": "0x7bd8efab672250de65ba4ba3bc6c3aa08120a1c3",
                                    "value": {
                                        "current": "301803471307818668425996404",
                                        "prev": "301793204229224488425996404",
                                        "typeTag": 1
                                    }
                                },
                                {
                                    "key": "0xf6c7fa7f5f9f2be05c50e7a03c269cdaf9156d50",
                                    "value": {
                                        "current": "0",
                                        "prev": "10267078594180000000000",
                                        "typeTag": 1
                                    }
                                }
                            ],
                            "typeTag": 4
                        }
                    },
                    {
                        "name": "_allowed",
                        "type": "mapping(address => mapping(address => uint256))",
                        "value": {
                            "pairs": [
                                {
                                    "key": "0xf6c7fa7f5f9f2be05c50e7a03c269cdaf9156d50",
                                    "value": {
                                        "pairs": [
                                            {
                                                "key": "0x7bd8efab672250de65ba4ba3bc6c3aa08120a1c3",
                                                "value": {
                                                    "current": "999999974006166805820000000000",
                                                    "prev": "999999984273245400000000000000",
                                                    "typeTag": 1
                                                }
                                            }
                                        ],
                                        "typeTag": 4
                                    }
                                }
                            ],
                            "typeTag": 4
                        }
                    }
                ]
            }
        ]
    }
}