{
    "balance_change": {
        "balanceChanges": [
            {
                "account": "0xc64f0a0f298436e031dee0c08ab7184b8db007d0",
                "assets": [
                    {
                        "address": "0x7fc66500c84a76ad7e9c93437bfc5ac33e2ddae9",
                        "amount": "2.5220681",
                        "iconUrl": "https://assets.blocksec.com/icon/62f48bc5d1faeb48ff872297b2d01aca7a06f6613f30d65440b9b7703425b7e3.png",
                        "isERC1155": false,
                        "isERC721": false,
                        "sign": false,
                        "value": "245.0441365959999914"
                    }
                ]
            },
            {
                "account": "0xa9d1e08c7793af67e9d92fe308d5697fb81d3e43",
                "assets": [
                    {
                        "address": "0x7fc66500c84a76ad7e9c93437bfc5ac33e2ddae9",
                        "amount": "2.5220681",
                        "iconUrl": "https://assets.blocksec.com/icon/62f48bc5d1faeb48ff872297b2d01aca7a06f6613f30d65440b9b7703425b7e3.png",
                        "isERC1155": false,
                        "isERC721": false,
                        "sign": true,
                        "value": "245.0441365959999914"
                    }
                ]
            }
        ]
    },
    "profile": {
        "basic_info": {
            "baseFee": "1.377063552",
            "blockNumber": 20297233,
            "callData": "0xa9059cbb000000000000000000000000a9d1e08c7793af67e9d92fe308d5697fb81d3e4300000000000000000000000000000000000000000000000023002f930fd82800",
            "debugEnable": true,
            "errorInfo": "",
            "eventCount": 1,
            "feeRecipient": "0x4838b106fce9647bdf1e7877bf73ce8b0bad5f97",
            "formatValue": "0",
            "gasLimit": 44873,
            "gasPrice": "2.377063552",
            "gasUsed": 39484,
            "intTxnCount": 1,
            "internalRevert": false,
            "internalRevertMessage": "",
            "isContractCreation": false,
            "isFlashloan": false,
            "maxFee": "3.25",
            "nonce": 0,
            "overwritedBlockNumber": -1,
            "priorityFee": "1",
            "receiver": "0x7fc66500c84a76ad7e9c93437bfc5ac33e2ddae9",
            "revertMessage": "",
            "sender": "0xc64f0a0f298436e031dee0c08ab7184b8db007d0",
            "simulationEnable": true,
            "sourceTxnHash": "0xae957ae96b407239bc223771905414d4eb9c2ce8927400d139ce3c34053b6ac9",
            "status": true,
            "timestamp": "2024-07-13T11:17:11Z",
            "transactionFee": "0.000093855977287168",
            "txnHash": "0xae957ae96b407239bc223771905414d4eb9c2ce8927400d139ce3c34053b6ac9",
            "txnIndex": 54,
            "type": 2,
            "value": "0"
        },
        "fund_flow": [
            {
                "amount": "2.5220681",
                "from": "0xc64f0a0f298436e031dee0c08ab7184b8db007d0",
                "id": 1,
                "isERC1155": false,
                "isERC721": false,
                "isReverted": false,
                "order": 1,
                "to": "0xa9d1e08c7793af67e9d92fe308d5697fb81d3e43",
                "token": "0x7fc66500c84a76ad7e9c93437bfc5ac33e2ddae9"
            }
        ],
        "token_infos": [
            {
                "address": "0x7fc66500c84a76ad7e9c93437bfc5ac33e2ddae9",
                "decimals": 18
            },
            {
                "address": "0xc02aaa39b223fe8d0a0e5c4f27ead9083c756cc2",
                "decimals": 18
            },
            {
                "address": "0xeeeeeeeeeeeeeeeeeeeeeeeeeeeeeeeeeeeeeeee",
                "decimals": 18
            }
        ]
    },
    "address_label": {
        "labels": [
            {
                "address": "0x5d4aa78b08bc7c530e21bf7447988b1be7991322",
                "label": "AaveTokenV3"
            },
            {
                "address": "0x0000000000000000000000000000000000000001",
                "label": "Precompiled"
            },
            {
                "address": "0x0000000000000000000000000000000000000002",
                "label": "Precompiled"
            },
            {
                "address": "0x0000000000000000000000000000000000000003",
                "label": "Precompiled"
            },
            {
                "address": "0x0000000000000000000000000000000000000004",
                "label": "Precompiled"
            },
            {
                "address": "0xeeeeeeeeeeeeeeeeeeeeeeeeeeeeeeeeeeeeeeee",
                "label": "Ether"
            },
            {
                "address": "0xa9d1e08c7793af67e9d92fe308d5697fb81d3e43",
                "label": "Coinbase 10"
            },
            {
                "address": "0x7fc66500c84a76ad7e9c93437bfc5ac33e2ddae9",
                "label": "Aave: AAVE Token"
            }
        ]
    },
    "trace": {
        "accountLabels": null,
        "dataMap": {
            "-1": {
                "invocation": {
                    "address": "0xc64f0a0f298436e031dee0c08ab7184b8db007d0",
                    "callData": "",
                    "decodedMethod": null,
                    "errorInfo": "",
                    "fromAddress": "",
                    "gasUsed": 0,
                    "id": -1,
                    "methodDecoded": false,
                    "operation": "",
                    "output": "",
                    "revert": false,
                    "revertMessage": "",
                    "selector": "",
                    "status": false,
                    "value": ""
                },
                "nodeType": 0
            },
            "0": {
                "invocation": {
                    "address": "0x7fc66500c84a76ad7e9c93437bfc5ac33e2ddae9",
                    "callData": "0x000000000000000000000000a9d1e08c7793af67e9d92fe308d5697fb81d3e4300000000000000000000000000000000000000000000000023002f930fd82800",
                    "decodedMethod": {
                        "callParams": [
                            {
                                "name": "to",
                                "type": "address",
                                "value": "0xa9d1e08c7793af67e9d92fe308d5697fb81d3e43"
                            },
                            {
                                "decimalAvailable": true,
                                "name": "amount",
                                "type": "uint256",
                                "value": "2,522,068,100,000,000,000"
                            }
                        ],
                        "constructorArguments": "",
                        "name": "transfer",
                        "returnParams": [
                            {
                                "name": "",
                                "type": "bool",
                                "value": true
                            }
                        ],
                        "signature": "transfer(address,uint256)"
                    },
                    "errorInfo": "",
                    "fromAddress": "0xc64f0a0f298436e031dee0c08ab7184b8db007d0",
                    "gasUsed": 39484,
                    "id": 0,
                    "methodDecoded": true,
                    "operation": "CALL",
                    "output": "0x0000000000000000000000000000000000000000000000000000000000000001",
                    "revert": false,
                    "revertMessage": "",
                    "selector": "0xa9059cbb",
                    "status": true,
                    "value": "0"
                },
                "nodeType": 0
            },
            "1": {
                "invocation": {
                    "address": "0x5d4aa78b08bc7c530e21bf7447988b1be7991322",
                    "callData": "0x000000000000000000000000a9d1e08c7793af67e9d92fe308d5697fb81d3e4300000000000000000000000000000000000000000000000023002f930fd82800",
                    "decodedMethod": {
                        "callParams": [
                            {
                                "name": "to",
                                "type": "address",
                                "value": "0xa9d1e08c7793af67e9d92fe308d5697fb81d3e43"
                            },
                            {
                                "decimalAvailable": true,
                                "name": "amount",
                                "type": "uint256",
                                "value": "2,522,068,100,000,000,000"
                            }
                        ],
                        "constructorArguments": "",
                        "name": "transfer",
                        "returnParams": [
                            {
                                "name": "",
                                "type": "bool",
                                "value": true
                            }
                        ],
                        "signature": "transfer(address,uint256)"
                    },
                    "errorInfo": "",
                    "fromAddress": "0x7fc66500c84a76ad7e9c93437bfc5ac33e2ddae9",
                    "gasUsed": 15382,
                    "id": 1,
                    "methodDecoded": true,
                    "operation": "DELEGATECALL",
                    "output": "0x0000000000000000000000000000000000000000000000000000000000000001",
                    "revert": false,
                    "revertMessage": "",
                    "selector": "0xa9059cbb",
                    "status": true,
                    "value": "0"
                },
                "nodeType": 0
            },
            "2": {
                "event": {
                    "contract": "0x7fc66500c84a76ad7e9c93437bfc5ac33e2ddae9",
                    "decodedLog": {
                        "name": "Transfer",
                        "params": [
                            {
                                "name": "from",
                                "type": "address",
                                "value": "0xc64f0a0f298436e031dee0c08ab7184b8db007d0"
                            },
                            {
                                "name": "to",
                                "type": "address",
                                "value": "0xa9d1e08c7793af67e9d92fe308d5697fb81d3e43"
                            },
                            {
                                "decimalAvailable": true,
                                "name": "value",
                                "type": "uint256",
                                "value": "2,522,068,100,000,000,000"
                            }
                        ],
                        "signature": "Transfer(address,address,uint256)"
                    },
                    "id": 2,
                    "logData": "0x00000000000000000000000000000000000000000000000023002f930fd82800",
                    "logDecoded": true,
                    "operation": "EVENT",
                    "revert": false,
                    "status": true,
                    "topics": [
                        "0xddf252ad1be2c89b69c2b068fc378daa952ba7f163c4a11628f55a4df523b3ef",
                        "0x000000000000000000000000c64f0a0f298436e031dee0c08ab7184b8db007d0",
                        "0x000000000000000000000000a9d1e08c7793af67e9d92fe308d5697fb81d3e43"
                    ]
                },
                "nodeType": 1
            }
        },
        "gasFlame": [
            {
                "children": [
                    {
                        "children": [
                            {
                                "children": [],
                                "depth": 0,
                                "name": "Initial Gas",
                                "value": 21632
                            },
                            {
                                "children": [
                                    {
                                        "children": [],
                                        "depth": 1,
                                        "name": "transfer",
                                        "value": 15382
                                    }
                                ],
                                "depth": 0,
                                "name": "Executed Gas",
                                "value": 22652
                            }
                        ],
                        "depth": -1,
                        "name": "Actual Gas Used",
                        "value": 39484
                    },
                    {
                        "children": [],
                        "depth": -1,
                        "name": "Refunded Gas",
                        "value": 4800
                    }
                ],
                "depth": -2,
                "name": "Total Gas",
                "value": 44284
            }
        ],
        "isConfirmed": true,
        "mainTrace": [
            {
                "children": [
                    {
                        "children": [
                            {
                                "children": [
                                    {
                                        "children": [],
                                        "depth": 2,
                                        "id": 2,
                                        "order": 2
                                    }
                                ],
                                "depth": 1,
                                "id": 1,
                                "order": 1
                            }
                        ],
                        "depth": 0,
                        "id": 0,
                        "order": 0
                    }
                ],
                "depth": -1,
                "id": -1,
                "order": -1
            }
        ],
        "mainTraceNodeCount": 3,
        "parentIdMap": {
            "0": -1,
            "1": 0,
            "2": 1
        },
        "tidyTrace": [
            {
                "children": [
                    {
                        "children": [
                            {
                                "children": [
                                    {
                                        "children": [],
                                        "depth": 2,
                                        "id": 2,
                                        "order": 2
                                    }
                                ],
                                "depth": 1,
                                "id": 1,
                                "order": 1
                            }
                        ],
                        "depth": 0,
                        "id": 0,
                        "order": 0
                    }
                ],
                "depth": -1,
                "id": -1,
                "order": -1
            }
        ],
        "tidyTraceNodeCount": 3
    },
    "state_change": {
        "stateChanges": [
            {
                "address": "0x7fc66500c84a76ad7e9c93437bfc5ac33e2ddae9",
                "erc": "ERC-20",
                "slots": [
                    {
                        "current": "0x0000000000000000000000000000000000000000000000000000000000000000",
                        "key": "0xb902c338e1665f8279dcba7301c3d45c0966dfd96b9bde0cdd197e0a13751a66",
                        "prev": "0x00000000000000000000000000000000000000000000000023002f930fd82800"
                    },
                    {
                        "current": "0x0000000000000000000000000000000000000000000004b3c7b335742e19cbdb",
                        "key": "0xe59ea70579fc940d336c4140ab7c25fbeca09fc5009ad018e4cfb2ee22e47a67",
                        "prev": "0x0000000000000000000000000000000000000000000004b3a4b305e11e41a3db"
                    }
                ],
                "storageVariables": [
                    {
                        "name": "_balances",
                        "type": "mapping(address => struct BaseAaveToken.DelegationAwareBalance)",
                        "value": {
                            "pairs": [
                                {
                                    "key": "0xa9d1e08c7793af67e9d92fe308d5697fb81d3e43",
                                    "value": {
                                        "fields": [
                                            {
                                                "name": "balance",
                                                "type": "uint104",
                                                "value": {
                                                    "current": "22205823024680075381723",
                                                    "prev": "22203300956580075381723",
                                                    "typeTag": 1
                                                }
                                            },
                                            {
                                                "name": "delegatedPropositionBalance",
                                                "type": "uint72",
                                                "value": {
                                                    "current": "0",
                                                    "prev": "0",
                                                    "typeTag": 1
                                                }
                                            },
                                            {
                                                "name": "delegatedVotingBalance",
                                                "type": "uint72",
                                                "value": {
                                                    "current": "0",
                                                    "prev": "0",
                                                    "typeTag": 1
                                                }
                                            },
                                            {
                                                "name": "delegationMode",
                                                "type": "enum DelegationMode",
                                                "value": {
                                                    "current": "0",
                                                    "prev": "0",
                                                    "typeTag": 1
                                                }
                                            }
                                        ],
                                        "typeTag": 3
                                    }
                                },
                                {
                                    "key": "0xc64f0a0f298436e031dee0c08ab7184b8db007d0",
                                    "value": {
                                        "fields": [
                                            {
                                                "name": "balance",
                                                "type": "uint104",
                                                "value": {
                                                    "current": "0",
                                                    "prev": "2522068100000000000",
                                                    "typeTag": 1
                                                }
                                            },
                                            {
                                                "name": "delegatedPropositionBalance",
                                                "type": "uint72",
                                                "value": {
                                                    "current": "0",
                                                    "prev": "0",
                                                    "typeTag": 1
                                                }
                                            },
                                            {
                                                "name": "delegatedVotingBalance",
                                                "type": "uint72",
                                                "value": {
                                                    "current": "0",
                                                    "prev": "0",
                                                    "typeTag": 1
                                                }
                                            },
                                            {
                                                "name": "delegationMode",
                                                "type": "enum DelegationMode",
                                                "value": {
                                                    "current": "0",
                                                    "prev": "0",
                                                    "typeTag": 1
                                                }
                                            }
                                        ],
                                        "typeTag": 3
                                    }
                                }
                            ],
                            "typeTag": 4
                        }
                    }
                ]
            }
        ]
    }
}