{
    "balance_change": {
        "balanceChanges": [
            {
                "account": "0x6f6fc855f4eb7da6aae62f43637907c3403997b8",
                "assets": [
                    {
                        "address": "0xeeeeeeeeeeeeeeeeeeeeeeeeeeeeeeeeeeeeeeee",
                        "amount": "0.002",
                        "iconUrl": "https://assets.blocksec.com/image/1663669189317-3.png",
                        "isERC1155": false,
                        "isERC721": false,
                        "sign": false,
                        "value": "3.7487399999999997816"
                    }
                ]
            },
            {
                "account": "0x1a0ad011913a150f69f6a19df447a0cfd9551054",
                "assets": [
                    {
                        "address": "0xeeeeeeeeeeeeeeeeeeeeeeeeeeeeeeeeeeeeeeee",
                        "amount": "0.002",
                        "iconUrl": "https://assets.blocksec.com/image/1663669189317-3.png",
                        "isERC1155": false,
                        "isERC721": false,
                        "sign": true,
                        "value": "3.7487399999999997816"
                    }
                ]
            }
        ]
    },
    "profile": {
        "basic_info": {
            "baseFee": "13.061197355",
            "blockNumber": 17569579,
            "callData": "0xe9e05c420000000000000000000000006f6fc855f4eb7da6aae62f43637907c3403997b800000000000000000000000000000000000000000000000000071afd498d000000000000000000000000000000000000000000000000000000000000000186a0000000000000000000000000000000000000000000000000000000000000000000000000000000000000000000000000000000000000000000000000000000a00000000000000000000000000000000000000000000000000000000000000000",
            "debugEnable": true,
            "errorInfo": "",
            "eventCount": 1,
            "feeRecipient": "0x690b9a9e9aa1c9db991c7721a92d351db4fac990",
            "formatValue": "0.002",
            "gasLimit": 76389,
            "gasPrice": "13.161197355",
            "gasUsed": 50590,
            "intTxnCount": 3,
            "internalRevert": false,
            "internalRevertMessage": "",
            "isContractCreation": false,
            "isFlashloan": false,
            "maxFee": "16.420861089",
            "nonce": 1,
            "overwritedBlockNumber": -1,
            "priorityFee": "0.1",
            "receiver": "0x1a0ad011913a150f69f6a19df447a0cfd9551054",
            "revertMessage": "",
            "sender": "0x6f6fc855f4eb7da6aae62f43637907c3403997b8",
            "simulationEnable": true,
            "sourceTxnHash": "0xae745cb9f6845fdfa303d0b61ac271ee0458e8f63e7ced83cb3b82a5448fa9f5",
            "status": true,
            "timestamp": "2023-06-27T08:38:59Z",
            "transactionFee": "0.00066582497418945",
            "txnHash": "0xae745cb9f6845fdfa303d0b61ac271ee0458e8f63e7ced83cb3b82a5448fa9f5",
            "txnIndex": 77,
            "type": 2,
            "value": "2000000000000000"
        },
        "fund_flow": [
            {
                "amount": "0.002",
                "from": "0x6f6fc855f4eb7da6aae62f43637907c3403997b8",
                "id": 1,
                "isERC1155": false,
                "isERC721": false,
                "isReverted": false,
                "order": 1,
                "to": "0x1a0ad011913a150f69f6a19df447a0cfd9551054",
                "token": "0xeeeeeeeeeeeeeeeeeeeeeeeeeeeeeeeeeeeeeeee"
            }
        ],
        "token_infos": [
            {
                "address": "0xc02aaa39b223fe8d0a0e5c4f27ead9083c756cc2",
                "decimals": 18
            },
            {
                "address": "0xeeeeeeeeeeeeeeeeeeeeeeeeeeeeeeeeeeeeeeee",
                "decimals": 18
            }
        ]
    },
    "address_label": {
        "labels": [
            {
                "address": "0xeeeeeeeeeeeeeeeeeeeeeeeeeeeeeeeeeeeeeeee",
                "label": "Ether"
            },
            {
                "address": "0x43260ee547c3965bb2a0174763bb8fecc650ba4a",
                "label": "OptimismPortal"
            },
            {
                "address": "0x17fb7c8ce213f1a7691ee41ea880abf6ebc6fa95",
                "label": "SystemConfig"
            },
            {
                "address": "0x0000000000000000000000000000000000000001",
                "label": "Precompiled"
            },
            {
                "address": "0x0000000000000000000000000000000000000002",
                "label": "Precompiled"
            },
            {
                "address": "0xa3cab0126d5f504b071b81a3e8a2bbbf17930d86",
                "label": "Proxy_a3ca_0d86"
            },
            {
                "address": "0x1a0ad011913a150f69f6a19df447a0cfd9551054",
                "label": "Zora: Bridge"
            },
            {
                "address": "0x0000000000000000000000000000000000000003",
                "label": "Precompiled"
            },
            {
                "address": "0x0000000000000000000000000000000000000004",
                "label": "Precompiled"
            }
        ]
    },
    "trace": {
        "accountLabels": null,
        "dataMap": {
            "-1": {
                "invocation": {
                    "address": "0x6f6fc855f4eb7da6aae62f43637907c3403997b8",
                    "callData": "",
                    "decodedMethod": null,
                    "errorInfo": "",
                    "fromAddress": "",
                    "gasUsed": 0,
                    "id": -1,
                    "methodDecoded": false,
                    "operation": "",
                    "output": "",
                    "revert": false,
                    "revertMessage": "",
                    "selector": "",
                    "status": false,
                    "value": ""
                },
                "nodeType": 0
            },
            "0": {
                "invocation": {
                    "address": "0x1a0ad011913a150f69f6a19df447a0cfd9551054",
                    "callData": "0x0000000000000000000000006f6fc855f4eb7da6aae62f43637907c3403997b800000000000000000000000000000000000000000000000000071afd498d000000000000000000000000000000000000000000000000000000000000000186a0000000000000000000000000000000000000000000000000000000000000000000000000000000000000000000000000000000000000000000000000000000a00000000000000000000000000000000000000000000000000000000000000000",
                    "decodedMethod": {
                        "callParams": [
                            {
                                "name": "_to",
                                "type": "address",
                                "value": "0x6f6fc855f4eb7da6aae62f43637907c3403997b8"
                            },
                            {
                                "name": "_value",
                                "type": "uint256",
                                "value": "2,000,000,000,000,000"
                            },
                            {
                                "name": "_gasLimit",
                                "type": "uint64",
                                "value": "100,000"
                            },
                            {
                                "name": "_isCreation",
                                "type": "bool",
                                "value": false
                            },
                            {
                                "name": "_data",
                                "type": "bytes",
                                "value": "0x"
                            }
                        ],
                        "constructorArguments": "",
                        "name": "depositTransaction",
                        "returnParams": [],
                        "signature": "depositTransaction(address,uint256,uint64,bool,bytes)"
                    },
                    "errorInfo": "",
                    "fromAddress": "0x6f6fc855f4eb7da6aae62f43637907c3403997b8",
                    "gasUsed": 50590,
                    "id": 0,
                    "methodDecoded": true,
                    "operation": "CALL",
                    "output": "",
                    "revert": false,
                    "revertMessage": "",
                    "selector": "0xe9e05c42",
                    "status": true,
                    "value": "0.002"
                },
                "nodeType": 0
            },
            "1": {
                "invocation": {
                    "address": "0x43260ee547c3965bb2a0174763bb8fecc650ba4a",
                    "callData": "0x0000000000000000000000006f6fc855f4eb7da6aae62f43637907c3403997b800000000000000000000000000000000000000000000000000071afd498d000000000000000000000000000000000000000000000000000000000000000186a0000000000000000000000000000000000000000000000000000000000000000000000000000000000000000000000000000000000000000000000000000000a00000000000000000000000000000000000000000000000000000000000000000",
                    "decodedMethod": {
                        "callParams": [
                            {
                                "name": "_to",
                                "type": "address",
                                "value": "0x6f6fc855f4eb7da6aae62f43637907c3403997b8"
                            },
                            {
                                "name": "_value",
                                "type": "uint256",
                                "value": "2,000,000,000,000,000"
                            },
                            {
                                "name": "_gasLimit",
                                "type": "uint64",
                                "value": "100,000"
                            },
                            {
                                "name": "_isCreation",
                                "type": "bool",
                                "value": false
                            },
                            {
                                "name": "_data",
                                "type": "bytes",
                                "value": "0x"
                            }
                        ],
                        "constructorArguments": "",
                        "name": "depositTransaction",
                        "returnParams": [],
                        "signature": "depositTransaction(address,uint256,uint64,bool,bytes)"
                    },
                    "errorInfo": "",
                    "fromAddress": "0x1a0ad011913a150f69f6a19df447a0cfd9551054",
                    "gasUsed": 23400,
                    "id": 1,
                    "methodDecoded": true,
                    "operation": "DELEGATECALL",
                    "output": "",
                    "revert": false,
                    "revertMessage": "",
                    "selector": "0xe9e05c42",
                    "status": true,
                    "value": "0.002"
                },
                "nodeType": 0
            },
            "2": {
                "event": {
                    "contract": "0x1a0ad011913a150f69f6a19df447a0cfd9551054",
                    "decodedLog": {
                        "name": "TransactionDeposited",
                        "params": [
                            {
                                "name": "from",
                                "type": "address",
                                "value": "0x6f6fc855f4eb7da6aae62f43637907c3403997b8"
                            },
                            {
                                "name": "to",
                                "type": "address",
                                "value": "0x6f6fc855f4eb7da6aae62f43637907c3403997b8"
                            },
                            {
                                "name": "version",
                                "type": "uint256",
                                "value": "0"
                            },
                            {
                                "name": "opaqueData",
                                "type": "bytes",
                                "value": "0x00000000000000000000000000000000000000000000000000071afd498d000000000000000000000000000000000000000000000000000000071afd498d000000000000000186a000"
                            }
                        ],
                        "signature": "TransactionDeposited(address,address,uint256,bytes)"
                    },
                    "id": 2,
                    "logData": "0x0000000000000000000000000000000000000000000000000000000000000020000000000000000000000000000000000000000000000000000000000000004900000000000000000000000000000000000000000000000000071afd498d000000000000000000000000000000000000000000000000000000071afd498d000000000000000186a0000000000000000000000000000000000000000000000000",
                    "logDecoded": true,
                    "operation": "EVENT",
                    "revert": false,
                    "status": true,
                    "topics": [
                        "0xb3813568d9991fc951961fcb4c784893574240a28925604d09fc577c55bb7c32",
                        "0x0000000000000000000000006f6fc855f4eb7da6aae62f43637907c3403997b8",
                        "0x0000000000000000000000006f6fc855f4eb7da6aae62f43637907c3403997b8",
                        "0x0000000000000000000000000000000000000000000000000000000000000000"
                    ]
                },
                "nodeType": 1
            },
            "3": {
                "invocation": {
                    "address": "0xa3cab0126d5f504b071b81a3e8a2bbbf17930d86",
                    "callData": "0x",
                    "decodedMethod": {
                        "callParams": [],
                        "constructorArguments": "",
                        "name": "resourceConfig",
                        "returnParams": [
                            {
                                "name": "",
                                "type": "(uint32,uint8,uint8,uint32,uint32,uint128)",
                                "value": [
                                    {
                                        "name": "maxResourceLimit",
                                        "type": "uint32",
                                        "value": "20,000,000"
                                    },
                                    {
                                        "name": "elasticityMultiplier",
                                        "type": "uint8",
                                        "value": "10"
                                    },
                                    {
                                        "name": "baseFeeMaxChangeDenominator",
                                        "type": "uint8",
                                        "value": "8"
                                    },
                                    {
                                        "name": "minimumBaseFee",
                                        "type": "uint32",
                                        "value": "1,000,000,000"
                                    },
                                    {
                                        "name": "systemTxMaxGas",
                                        "type": "uint32",
                                        "value": "1,000,000"
                                    },
                                    {
                                        "name": "maximumBaseFee",
                                        "type": "uint128",
                                        "value": "340,282,366,920,938,463,463,374,607,431,768,211,455"
                                    }
                                ]
                            }
                        ],
                        "signature": "resourceConfig()"
                    },
                    "errorInfo": "",
                    "fromAddress": "0x1a0ad011913a150f69f6a19df447a0cfd9551054",
                    "gasUsed": 7947,
                    "id": 3,
                    "methodDecoded": true,
                    "operation": "STATICCALL",
                    "output": "0x0000000000000000000000000000000000000000000000000000000001312d00000000000000000000000000000000000000000000000000000000000000000a0000000000000000000000000000000000000000000000000000000000000008000000000000000000000000000000000000000000000000000000003b9aca0000000000000000000000000000000000000000000000000000000000000f424000000000000000000000000000000000ffffffffffffffffffffffffffffffff",
                    "revert": false,
                    "revertMessage": "",
                    "selector": "0xcc731b02",
                    "status": true,
                    "value": "0"
                },
                "nodeType": 0
            },
            "4": {
                "invocation": {
                    "address": "0x17fb7c8ce213f1a7691ee41ea880abf6ebc6fa95",
                    "callData": "0x",
                    "decodedMethod": {
                        "callParams": [],
                        "constructorArguments": "",
                        "name": "resourceConfig",
                        "returnParams": [
                            {
                                "name": "",
                                "type": "(uint32,uint8,uint8,uint32,uint32,uint128)",
                                "value": [
                                    {
                                        "name": "maxResourceLimit",
                                        "type": "uint32",
                                        "value": "20,000,000"
                                    },
                                    {
                                        "name": "elasticityMultiplier",
                                        "type": "uint8",
                                        "value": "10"
                                    },
                                    {
                                        "name": "baseFeeMaxChangeDenominator",
                                        "type": "uint8",
                                        "value": "8"
                                    },
                                    {
                                        "name": "minimumBaseFee",
                                        "type": "uint32",
                                        "value": "1,000,000,000"
                                    },
                                    {
                                        "name": "systemTxMaxGas",
                                        "type": "uint32",
                                        "value": "1,000,000"
                                    },
                                    {
                                        "name": "maximumBaseFee",
                                        "type": "uint128",
                                        "value": "340,282,366,920,938,463,463,374,607,431,768,211,455"
                                    }
                                ]
                            }
                        ],
                        "signature": "resourceConfig()"
                    },
                    "errorInfo": "",
                    "fromAddress": "0xa3cab0126d5f504b071b81a3e8a2bbbf17930d86",
                    "gasUsed": 2940,
                    "id": 4,
                    "methodDecoded": true,
                    "operation": "DELEGATECALL",
                    "output": "0x0000000000000000000000000000000000000000000000000000000001312d00000000000000000000000000000000000000000000000000000000000000000a0000000000000000000000000000000000000000000000000000000000000008000000000000000000000000000000000000000000000000000000003b9aca0000000000000000000000000000000000000000000000000000000000000f424000000000000000000000000000000000ffffffffffffffffffffffffffffffff",
                    "revert": false,
                    "revertMessage": "",
                    "selector": "0xcc731b02",
                    "status": true,
                    "value": "0"
                },
                "nodeType": 0
            }
        },
        "gasFlame": [
            {
                "children": [
                    {
                        "children": [
                            {
                                "children": [],
                                "depth": 0,
                                "name": "Initial Gas",
                                "value": 22180
                            },
                            {
                                "children": [
                                    {
                                        "children": [
                                            {
                                                "children": [
                                                    {
                                                        "children": [],
                                                        "depth": 3,
                                                        "name": "resourceConfig",
                                                        "value": 2940
                                                    }
                                                ],
                                                "depth": 2,
                                                "name": "resourceConfig",
                                                "value": 7947
                                            }
                                        ],
                                        "depth": 1,
                                        "name": "depositTransaction",
                                        "value": 23400
                                    }
                                ],
                                "depth": 0,
                                "name": "Executed Gas",
                                "value": 28410
                            }
                        ],
                        "depth": -1,
                        "name": "Actual Gas Used",
                        "value": 50590
                    },
                    {
                        "children": [],
                        "depth": -1,
                        "name": "Refunded Gas",
                        "value": 0
                    }
                ],
                "depth": -2,
                "name": "Total Gas",
                "value": 50590
            }
        ],
        "isConfirmed": true,
        "mainTrace": [
            {
                "children": [
                    {
                        "children": [
                            {
                                "children": [
                                    {
                                        "children": [],
                                        "depth": 2,
                                        "id": 2,
                                        "order": 2
                                    },
                                    {
                                        "children": [
                                            {
                                                "children": [],
                                                "depth": 3,
                                                "id": 4,
                                                "order": 4
                                            }
                                        ],
                                        "depth": 2,
                                        "id": 3,
                                        "order": 3
                                    }
                                ],
                                "depth": 1,
                                "id": 1,
                                "order": 1
                            }
                        ],
                        "depth": 0,
                        "id": 0,
                        "order": 0
                    }
                ],
                "depth": -1,
                "id": -1,
                "order": -1
            }
        ],
        "mainTraceNodeCount": 5,
        "parentIdMap": {
            "0": -1,
            "1": 0,
            "2": 1,
            "3": 1,
            "4": 3
        },
        "tidyTrace": [
            {
                "children": [
                    {
                        "children": [
                            {
                                "children": [
                                    {
                                        "children": [],
                                        "depth": 2,
                                        "id": 2,
                                        "order": 2
                                    }
                                ],
                                "depth": 1,
                                "id": 1,
                                "order": 1
                            }
                        ],
                        "depth": 0,
                        "id": 0,
                        "order": 0
                    }
                ],
                "depth": -1,
                "id": -1,
                "order": -1
            }
        ],
        "tidyTraceNodeCount": 3
    },
    "state_change": {
        "stateChanges": [
            {
                "address": "0x1a0ad011913a150f69f6a19df447a0cfd9551054",
                "erc": "",
                "slots": [
                    {
                        "current": "0x00000000010c172b00000000000493e00000000000000000000000003b9aca00",
                        "key": "0x0000000000000000000000000000000000000000000000000000000000000001",
                        "prev": "0x00000000010c172b0000000000030d400000000000000000000000003b9aca00"
                    }
                ],
                "storageVariables": []
            }
        ]
    }
}