{
    "balance_change": {
        "balanceChanges": []
    },
    "profile": {
        "basic_info": {
            "baseFee": "61.077008212",
            "blockNumber": 13964292,
            "callData": "0x5f57552900000000000000000000000000000000000000000000000000000000000000800000000000000000000000003b484b82567a09e2588a13d54d032153f0c0aee00000000000000000000000000000000000000000001708f4c917b27f7b71000000000000000000000000000000000000000000000000000000000000000000c000000000000000000000000000000000000000000000000000000000000000136f6e65496e6368563446656544796e616d69630000000000000000000000000000000000000000000000000000000000000000000000000000000000000002000000000000000000000000003b484b82567a09e2588a13d54d032153f0c0aee000000000000000000000000000000000000000000000000000000000000000000000000000000000000000000000000000000000001708f4c917b27f7b7100000000000000000000000000000000000000000000000000000093d120f69a735f00000000000000000000000000000000000000000000000000000000000001200000000000000000000000000000000000000000000000000001585d12e5037b000000000000000000000000f326e4de8f66a0bdc0970b79e0924e33c79f1915000000000000000000000000000000000000000000000000000000000000000100000000000000000000000000000000000000000000000000000000000000c82e95b6c80000000000000000000000003b484b82567a09e2588a13d54d032153f0c0aee00000000000000000000000000000000000000000001708f4c917b27f7b71000000000000000000000000000000000000000000000000000000951f29532bcb3a0000000000000000000000000000000000000000000000000000000000000080000000000000000000000000000000000000000000000000000000000000000140000000000000003b6d0340db4f0e1f537ed1d4bc4714367dec1e2417f35592ab4991fe000000000000000000000000000000000000000000000000f1",
            "debugEnable": true,
            "errorInfo": "execution reverted",
            "eventCount": 8,
            "feeRecipient": "0x829bd824b016326a401d083b33d092293333a830",
            "formatValue": "0",
            "gasLimit": 250631,
            "gasPrice": "63.077008212",
            "gasUsed": 189939,
            "intTxnCount": 14,
            "internalRevert": true,
            "internalRevertMessage": "",
            "isContractCreation": false,
            "isFlashloan": false,
            "maxFee": "72.725169113",
            "nonce": 66,
            "overwritedBlockNumber": -1,
            "priorityFee": "2",
            "receiver": "0x881d40237659c251811cec9c364ef91dc08d300c",
            "revertMessage": "Min return not reached",
            "sender": "0xde522d6f3df7b62a636bdc9c33e7a8efa4ca7dfd",
            "simulationEnable": true,
            "sourceTxnHash": "0xaee12887205ba304f3db9b810b0a742a1839caf9e96bb54d21019da7b467be57",
            "status": false,
            "timestamp": "2022-01-08T10:42:31Z",
            "transactionFee": "0.011980783862779068",
            "txnHash": "0xaee12887205ba304f3db9b810b0a742a1839caf9e96bb54d21019da7b467be57",
            "txnIndex": 151,
            "type": 2,
            "value": "0"
        },
        "fund_flow": [],
        "token_infos": [
            {
                "address": "0x3b484b82567a09e2588a13d54d032153f0c0aee0",
                "decimals": 18
            },
            {
                "address": "0xc02aaa39b223fe8d0a0e5c4f27ead9083c756cc2",
                "decimals": 18
            },
            {
                "address": "0xeeeeeeeeeeeeeeeeeeeeeeeeeeeeeeeeeeeeeeee",
                "decimals": 18
            }
        ]
    },
    "address_label": {
        "labels": [
            {
                "address": "0x881d40237659c251811cec9c364ef91dc08d300c",
                "label": "Metamask: Swap Router"
            },
            {
                "address": "0xc02aaa39b223fe8d0a0e5c4f27ead9083c756cc2",
                "label": "Wrapped Ether (WETH)"
            },
            {
                "address": "0x74de5d4fcbf63e00296fd95d33236b9794016631",
                "label": "MetaMask: Swaps Spender"
            },
            {
                "address": "0x3b484b82567a09e2588a13d54d032153f0c0aee0",
                "label": "The OpenDAO: SOS Token"
            },
            {
                "address": "0x1111111254fb6c44bac0bed2854e76f90643097d",
                "label": "1inch v4: Aggregation Router"
            },
            {
                "address": "0xdb4f0e1f537ed1d4bc4714367dec1e2417f35592",
                "label": "Uniswap V2: SOS 20"
            },
            {
                "address": "0x0000000000000000000000000000000000000001",
                "label": "Precompiled"
            },
            {
                "address": "0x0000000000000000000000000000000000000002",
                "label": "Precompiled"
            },
            {
                "address": "0x0000000000000000000000000000000000000003",
                "label": "Precompiled"
            },
            {
                "address": "0x0000000000000000000000000000000000000004",
                "label": "Precompiled"
            },
            {
                "address": "0xeeeeeeeeeeeeeeeeeeeeeeeeeeeeeeeeeeeeeeee",
                "label": "Ether"
            }
        ]
    },
    "trace": {
        "accountLabels": null,
        "dataMap": {
            "-1": {
                "invocation": {
                    "address": "0xde522d6f3df7b62a636bdc9c33e7a8efa4ca7dfd",
                    "callData": "",
                    "decodedMethod": null,
                    "errorInfo": "",
                    "fromAddress": "",
                    "gasUsed": 0,
                    "id": -1,
                    "methodDecoded": false,
                    "operation": "",
                    "output": "",
                    "revert": false,
                    "revertMessage": "",
                    "selector": "",
                    "status": false,
                    "value": ""
                },
                "nodeType": 0
            },
            "0": {
                "invocation": {
                    "address": "0x881d40237659c251811cec9c364ef91dc08d300c",
                    "callData": "0x00000000000000000000000000000000000000000000000000000000000000800000000000000000000000003b484b82567a09e2588a13d54d032153f0c0aee00000000000000000000000000000000000000000001708f4c917b27f7b71000000000000000000000000000000000000000000000000000000000000000000c000000000000000000000000000000000000000000000000000000000000000136f6e65496e6368563446656544796e616d69630000000000000000000000000000000000000000000000000000000000000000000000000000000000000002000000000000000000000000003b484b82567a09e2588a13d54d032153f0c0aee000000000000000000000000000000000000000000000000000000000000000000000000000000000000000000000000000000000001708f4c917b27f7b7100000000000000000000000000000000000000000000000000000093d120f69a735f00000000000000000000000000000000000000000000000000000000000001200000000000000000000000000000000000000000000000000001585d12e5037b000000000000000000000000f326e4de8f66a0bdc0970b79e0924e33c79f1915000000000000000000000000000000000000000000000000000000000000000100000000000000000000000000000000000000000000000000000000000000c82e95b6c80000000000000000000000003b484b82567a09e2588a13d54d032153f0c0aee00000000000000000000000000000000000000000001708f4c917b27f7b71000000000000000000000000000000000000000000000000000000951f29532bcb3a0000000000000000000000000000000000000000000000000000000000000080000000000000000000000000000000000000000000000000000000000000000140000000000000003b6d0340db4f0e1f537ed1d4bc4714367dec1e2417f35592ab4991fe000000000000000000000000000000000000000000000000f1",
                    "decodedMethod": {
                        "callParams": [
                            {
                                "name": "aggregatorId",
                                "type": "string",
                                "value": "oneInchV4FeeDynamic"
                            },
                            {
                                "name": "tokenFrom",
                                "type": "address",
                                "value": "0x3b484b82567a09e2588a13d54d032153f0c0aee0"
                            },
                            {
                                "name": "amount",
                                "type": "uint256",
                                "value": "27,847,588,278,800,000,000,000,000"
                            },
                            {
                                "name": "data",
                                "type": "bytes",
                                "value": "0x0000000000000000000000003b484b82567a09e2588a13d54d032153f0c0aee000000000000000000000000000000000000000000000000000000000000000000000000000000000000000000000000000000000001708f4c917b27f7b7100000000000000000000000000000000000000000000000000000093d120f69a735f00000000000000000000000000000000000000000000000000000000000001200000000000000000000000000000000000000000000000000001585d12e5037b000000000000000000000000f326e4de8f66a0bdc0970b79e0924e33c79f1915000000000000000000000000000000000000000000000000000000000000000100000000000000000000000000000000000000000000000000000000000000c82e95b6c80000000000000000000000003b484b82567a09e2588a13d54d032153f0c0aee00000000000000000000000000000000000000000001708f4c917b27f7b71000000000000000000000000000000000000000000000000000000951f29532bcb3a0000000000000000000000000000000000000000000000000000000000000080000000000000000000000000000000000000000000000000000000000000000140000000000000003b6d0340db4f0e1f537ed1d4bc4714367dec1e2417f35592ab4991fe000000000000000000000000000000000000000000000000"
                            }
                        ],
                        "constructorArguments": "",
                        "name": "swap",
                        "returnParams": [],
                        "signature": "swap(string,address,uint256,bytes)"
                    },
                    "errorInfo": "execution reverted",
                    "fromAddress": "0xde522d6f3df7b62a636bdc9c33e7a8efa4ca7dfd",
                    "gasUsed": 189939,
                    "id": 0,
                    "methodDecoded": true,
                    "operation": "CALL",
                    "output": "0x08c379a0000000000000000000000000000000000000000000000000000000000000002000000000000000000000000000000000000000000000000000000000000000164d696e2072657475726e206e6f742072656163686564",
                    "revert": true,
                    "revertMessage": "Min return not reached",
                    "selector": "0x5f575529",
                    "status": false,
                    "value": "0"
                },
                "nodeType": 0
            },
            "1": {
                "invocation": {
                    "address": "0x3b484b82567a09e2588a13d54d032153f0c0aee0",
                    "callData": "0x000000000000000000000000de522d6f3df7b62a636bdc9c33e7a8efa4ca7dfd00000000000000000000000074de5d4fcbf63e00296fd95d33236b97940166310000000000000000000000000000000000000000001708f4c917b27f7b710000",
                    "decodedMethod": {
                        "callParams": [
                            {
                                "name": "sender",
                                "type": "address",
                                "value": "0xde522d6f3df7b62a636bdc9c33e7a8efa4ca7dfd"
                            },
                            {
                                "name": "recipient",
                                "type": "address",
                                "value": "0x74de5d4fcbf63e00296fd95d33236b9794016631"
                            },
                            {
                                "decimalAvailable": true,
                                "name": "amount",
                                "type": "uint256",
                                "value": "27,847,588,278,800,000,000,000,000"
                            }
                        ],
                        "constructorArguments": "",
                        "name": "transferFrom",
                        "returnParams": [
                            {
                                "name": "",
                                "type": "bool",
                                "value": true
                            }
                        ],
                        "signature": "transferFrom(address,address,uint256)"
                    },
                    "errorInfo": "",
                    "fromAddress": "0x881d40237659c251811cec9c364ef91dc08d300c",
                    "gasUsed": 37819,
                    "id": 1,
                    "methodDecoded": true,
                    "operation": "CALL",
                    "output": "0x0000000000000000000000000000000000000000000000000000000000000001",
                    "revert": true,
                    "revertMessage": "",
                    "selector": "0x23b872dd",
                    "status": true,
                    "value": "0"
                },
                "nodeType": 0
            },
            "10": {
                "event": {
                    "contract": "0x3b484b82567a09e2588a13d54d032153f0c0aee0",
                    "decodedLog": {
                        "name": "Approval",
                        "params": [
                            {
                                "name": "owner",
                                "type": "address",
                                "value": "0x74de5d4fcbf63e00296fd95d33236b9794016631"
                            },
                            {
                                "name": "spender",
                                "type": "address",
                                "value": "0x1111111254fb6c44bac0bed2854e76f90643097d"
                            },
                            {
                                "decimalAvailable": true,
                                "name": "value",
                                "type": "uint256",
                                "value": "115,792,089,237,316,195,423,570,985,008,687,907,853,269,984,659,725,940,611,863,374,712,975,656,803,740"
                            }
                        ],
                        "signature": "Approval(address,address,uint256)"
                    },
                    "id": 10,
                    "logData": "0xffffffffffffffffffffffffffffffffffffffb558d22b8e6f547425e4bcdd9c",
                    "logDecoded": true,
                    "operation": "EVENT",
                    "revert": true,
                    "status": false,
                    "topics": [
                        "0x8c5be1e5ebec7d5bd14f71427d1e84f3dd0314c0f7b2291e5b200ac8c7c3b925",
                        "0x00000000000000000000000074de5d4fcbf63e00296fd95d33236b9794016631",
                        "0x0000000000000000000000001111111254fb6c44bac0bed2854e76f90643097d"
                    ]
                },
                "nodeType": 1
            },
            "11": {
                "invocation": {
                    "address": "0xdb4f0e1f537ed1d4bc4714367dec1e2417f35592",
                    "callData": "0x",
                    "decodedMethod": {
                        "callParams": [],
                        "constructorArguments": "",
                        "name": "getReserves",
                        "returnParams": [
                            {
                                "name": "_reserve0",
                                "type": "uint112",
                                "value": "9,067,053,011,203,812,488,889,084,208"
                            },
                            {
                                "name": "_reserve1",
                                "type": "uint112",
                                "value": "12,931,424,453,239,524,941"
                            },
                            {
                                "name": "_blockTimestampLast",
                                "type": "uint32",
                                "value": "1,641,638,551"
                            }
                        ],
                        "signature": "getReserves()"
                    },
                    "errorInfo": "",
                    "fromAddress": "0x1111111254fb6c44bac0bed2854e76f90643097d",
                    "gasUsed": 2504,
                    "id": 11,
                    "methodDecoded": true,
                    "operation": "STATICCALL",
                    "output": "0x00000000000000000000000000000000000000001d4c1728a3b10e658c71a930000000000000000000000000000000000000000000000000b375a606cf244e4d0000000000000000000000000000000000000000000000000000000061d96a97",
                    "revert": true,
                    "revertMessage": "",
                    "selector": "0x0902f1ac",
                    "status": true,
                    "value": "0"
                },
                "nodeType": 0
            },
            "12": {
                "invocation": {
                    "address": "0xdb4f0e1f537ed1d4bc4714367dec1e2417f35592",
                    "callData": "0x0000000000000000000000000000000000000000000000000000000000000000000000000000000000000000000000000000000000000000008c3f60f565d0bf0000000000000000000000001111111254fb6c44bac0bed2854e76f90643097d00000000000000000000000000000000000000000000000000000000000000800000000000000000000000000000000000000000000000000000000000000000",
                    "decodedMethod": {
                        "callParams": [
                            {
                                "name": "amount0Out",
                                "type": "uint256",
                                "value": "0"
                            },
                            {
                                "name": "amount1Out",
                                "type": "uint256",
                                "value": "39,476,182,405,992,639"
                            },
                            {
                                "name": "to",
                                "type": "address",
                                "value": "0x1111111254fb6c44bac0bed2854e76f90643097d"
                            },
                            {
                                "name": "data",
                                "type": "bytes",
                                "value": "0x"
                            }
                        ],
                        "constructorArguments": "",
                        "name": "swap",
                        "returnParams": [],
                        "signature": "swap(uint256,uint256,address,bytes)"
                    },
                    "errorInfo": "",
                    "fromAddress": "0x1111111254fb6c44bac0bed2854e76f90643097d",
                    "gasUsed": 54561,
                    "id": 12,
                    "methodDecoded": true,
                    "operation": "CALL",
                    "output": "",
                    "revert": true,
                    "revertMessage": "",
                    "selector": "0x022c0d9f",
                    "status": true,
                    "value": "0"
                },
                "nodeType": 0
            },
            "13": {
                "invocation": {
                    "address": "0xc02aaa39b223fe8d0a0e5c4f27ead9083c756cc2",
                    "callData": "0x0000000000000000000000001111111254fb6c44bac0bed2854e76f90643097d000000000000000000000000000000000000000000000000008c3f60f565d0bf",
                    "decodedMethod": {
                        "callParams": [
                            {
                                "name": "dst",
                                "type": "address",
                                "value": "0x1111111254fb6c44bac0bed2854e76f90643097d"
                            },
                            {
                                "decimalAvailable": true,
                                "name": "wad",
                                "type": "uint256",
                                "value": "39,476,182,405,992,639"
                            }
                        ],
                        "constructorArguments": "",
                        "name": "transfer",
                        "returnParams": [
                            {
                                "name": "",
                                "type": "bool",
                                "value": true
                            }
                        ],
                        "signature": "transfer(address,uint256)"
                    },
                    "errorInfo": "",
                    "fromAddress": "0xdb4f0e1f537ed1d4bc4714367dec1e2417f35592",
                    "gasUsed": 29962,
                    "id": 13,
                    "methodDecoded": true,
                    "operation": "CALL",
                    "output": "0x0000000000000000000000000000000000000000000000000000000000000001",
                    "revert": true,
                    "revertMessage": "",
                    "selector": "0xa9059cbb",
                    "status": true,
                    "value": "0"
                },
                "nodeType": 0
            },
            "14": {
                "event": {
                    "contract": "0xc02aaa39b223fe8d0a0e5c4f27ead9083c756cc2",
                    "decodedLog": {
                        "name": "Transfer",
                        "params": [
                            {
                                "name": "src",
                                "type": "address",
                                "value": "0xdb4f0e1f537ed1d4bc4714367dec1e2417f35592"
                            },
                            {
                                "name": "dst",
                                "type": "address",
                                "value": "0x1111111254fb6c44bac0bed2854e76f90643097d"
                            },
                            {
                                "decimalAvailable": true,
                                "name": "wad",
                                "type": "uint256",
                                "value": "39,476,182,405,992,639"
                            }
                        ],
                        "signature": "Transfer(address,address,uint256)"
                    },
                    "id": 14,
                    "logData": "0x000000000000000000000000000000000000000000000000008c3f60f565d0bf",
                    "logDecoded": true,
                    "operation": "EVENT",
                    "revert": true,
                    "status": false,
                    "topics": [
                        "0xddf252ad1be2c89b69c2b068fc378daa952ba7f163c4a11628f55a4df523b3ef",
                        "0x000000000000000000000000db4f0e1f537ed1d4bc4714367dec1e2417f35592",
                        "0x0000000000000000000000001111111254fb6c44bac0bed2854e76f90643097d"
                    ]
                },
                "nodeType": 1
            },
            "15": {
                "invocation": {
                    "address": "0x3b484b82567a09e2588a13d54d032153f0c0aee0",
                    "callData": "0x000000000000000000000000db4f0e1f537ed1d4bc4714367dec1e2417f35592",
                    "decodedMethod": {
                        "callParams": [
                            {
                                "name": "account",
                                "type": "address",
                                "value": "0xdb4f0e1f537ed1d4bc4714367dec1e2417f35592"
                            }
                        ],
                        "constructorArguments": "",
                        "name": "balanceOf",
                        "returnParams": [
                            {
                                "decimalAvailable": true,
                                "name": "",
                                "type": "uint256",
                                "value": "9,094,900,599,482,612,488,889,084,208"
                            }
                        ],
                        "signature": "balanceOf(address)"
                    },
                    "errorInfo": "",
                    "fromAddress": "0xdb4f0e1f537ed1d4bc4714367dec1e2417f35592",
                    "gasUsed": 658,
                    "id": 15,
                    "methodDecoded": true,
                    "operation": "STATICCALL",
                    "output": "0x00000000000000000000000000000000000000001d63201d6cc8c0e507e2a930",
                    "revert": true,
                    "revertMessage": "",
                    "selector": "0x70a08231",
                    "status": true,
                    "value": "0"
                },
                "nodeType": 0
            },
            "16": {
                "invocation": {
                    "address": "0xc02aaa39b223fe8d0a0e5c4f27ead9083c756cc2",
                    "callData": "0x000000000000000000000000db4f0e1f537ed1d4bc4714367dec1e2417f35592",
                    "decodedMethod": {
                        "callParams": [
                            {
                                "name": "",
                                "type": "address",
                                "value": "0xdb4f0e1f537ed1d4bc4714367dec1e2417f35592"
                            }
                        ],
                        "constructorArguments": "",
                        "name": "balanceOf",
                        "returnParams": [
                            {
                                "decimalAvailable": true,
                                "name": "",
                                "type": "uint256",
                                "value": "12,891,948,270,833,532,302"
                            }
                        ],
                        "signature": "balanceOf(address)"
                    },
                    "errorInfo": "",
                    "fromAddress": "0xdb4f0e1f537ed1d4bc4714367dec1e2417f35592",
                    "gasUsed": 534,
                    "id": 16,
                    "methodDecoded": true,
                    "operation": "STATICCALL",
                    "output": "0x000000000000000000000000000000000000000000000000b2e966a5d9be7d8e",
                    "revert": true,
                    "revertMessage": "",
                    "selector": "0x70a08231",
                    "status": true,
                    "value": "0"
                },
                "nodeType": 0
            },
            "17": {
                "event": {
                    "contract": "0xdb4f0e1f537ed1d4bc4714367dec1e2417f35592",
                    "decodedLog": {
                        "name": "Sync",
                        "params": [
                            {
                                "name": "reserve0",
                                "type": "uint112",
                                "value": "9,094,900,599,482,612,488,889,084,208"
                            },
                            {
                                "name": "reserve1",
                                "type": "uint112",
                                "value": "12,891,948,270,833,532,302"
                            }
                        ],
                        "signature": "Sync(uint112,uint112)"
                    },
                    "id": 17,
                    "logData": "0x00000000000000000000000000000000000000001d63201d6cc8c0e507e2a930000000000000000000000000000000000000000000000000b2e966a5d9be7d8e",
                    "logDecoded": true,
                    "operation": "EVENT",
                    "revert": true,
                    "status": false,
                    "topics": [
                        "0x1c411e9a96e071241c2f21f7726b17ae89e3cab4c78be50e062b03a9fffbbad1"
                    ]
                },
                "nodeType": 1
            },
            "18": {
                "event": {
                    "contract": "0xdb4f0e1f537ed1d4bc4714367dec1e2417f35592",
                    "decodedLog": {
                        "name": "Swap",
                        "params": [
                            {
                                "name": "sender",
                                "type": "address",
                                "value": "0x1111111254fb6c44bac0bed2854e76f90643097d"
                            },
                            {
                                "name": "to",
                                "type": "address",
                                "value": "0x1111111254fb6c44bac0bed2854e76f90643097d"
                            },
                            {
                                "name": "amount0In",
                                "type": "uint256",
                                "value": "27,847,588,278,800,000,000,000,000"
                            },
                            {
                                "name": "amount1In",
                                "type": "uint256",
                                "value": "0"
                            },
                            {
                                "name": "amount0Out",
                                "type": "uint256",
                                "value": "0"
                            },
                            {
                                "name": "amount1Out",
                                "type": "uint256",
                                "value": "39,476,182,405,992,639"
                            }
                        ],
                        "signature": "Swap(address,uint256,uint256,uint256,uint256,address)"
                    },
                    "id": 18,
                    "logData": "0x0000000000000000000000000000000000000000001708f4c917b27f7b71000000000000000000000000000000000000000000000000000000000000000000000000000000000000000000000000000000000000000000000000000000000000000000000000000000000000000000000000000000000000008c3f60f565d0bf",
                    "logDecoded": true,
                    "operation": "EVENT",
                    "revert": true,
                    "status": false,
                    "topics": [
                        "0xd78ad95fa46c994b6551d0da85fc275fe613ce37657fb8d5e3d130840159d822",
                        "0x0000000000000000000000001111111254fb6c44bac0bed2854e76f90643097d",
                        "0x0000000000000000000000001111111254fb6c44bac0bed2854e76f90643097d"
                    ]
                },
                "nodeType": 1
            },
            "19": {
                "invocation": {
                    "address": "0xc02aaa39b223fe8d0a0e5c4f27ead9083c756cc2",
                    "callData": "0x000000000000000000000000000000000000000000000000008c3f60f565d0bf",
                    "decodedMethod": {
                        "callParams": [
                            {
                                "name": "wad",
                                "type": "uint256",
                                "value": "39,476,182,405,992,639"
                            }
                        ],
                        "constructorArguments": "",
                        "name": "withdraw",
                        "returnParams": [],
                        "signature": "withdraw(uint256)"
                    },
                    "errorInfo": "",
                    "fromAddress": "0x1111111254fb6c44bac0bed2854e76f90643097d",
                    "gasUsed": 9219,
                    "id": 19,
                    "methodDecoded": true,
                    "operation": "CALL",
                    "output": "",
                    "revert": true,
                    "revertMessage": "",
                    "selector": "0x2e1a7d4d",
                    "status": true,
                    "value": "0"
                },
                "nodeType": 0
            },
            "2": {
                "event": {
                    "contract": "0x3b484b82567a09e2588a13d54d032153f0c0aee0",
                    "decodedLog": {
                        "name": "Transfer",
                        "params": [
                            {
                                "name": "from",
                                "type": "address",
                                "value": "0xde522d6f3df7b62a636bdc9c33e7a8efa4ca7dfd"
                            },
                            {
                                "name": "to",
                                "type": "address",
                                "value": "0x74de5d4fcbf63e00296fd95d33236b9794016631"
                            },
                            {
                                "decimalAvailable": true,
                                "name": "value",
                                "type": "uint256",
                                "value": "27,847,588,278,800,000,000,000,000"
                            }
                        ],
                        "signature": "Transfer(address,address,uint256)"
                    },
                    "id": 2,
                    "logData": "0x0000000000000000000000000000000000000000001708f4c917b27f7b710000",
                    "logDecoded": true,
                    "operation": "EVENT",
                    "revert": true,
                    "status": false,
                    "topics": [
                        "0xddf252ad1be2c89b69c2b068fc378daa952ba7f163c4a11628f55a4df523b3ef",
                        "0x000000000000000000000000de522d6f3df7b62a636bdc9c33e7a8efa4ca7dfd",
                        "0x00000000000000000000000074de5d4fcbf63e00296fd95d33236b9794016631"
                    ]
                },
                "nodeType": 1
            },
            "20": {
                "invocation": {
                    "address": "0x1111111254fb6c44bac0bed2854e76f90643097d",
                    "callData": "0x",
                    "decodedMethod": null,
                    "errorInfo": "",
                    "fromAddress": "0xc02aaa39b223fe8d0a0e5c4f27ead9083c756cc2",
                    "gasUsed": 79,
                    "id": 20,
                    "methodDecoded": false,
                    "operation": "CALL",
                    "output": "",
                    "revert": true,
                    "revertMessage": "",
                    "selector": "fallback",
                    "status": true,
                    "value": "0.039476182405992639"
                },
                "nodeType": 0
            },
            "21": {
                "event": {
                    "contract": "0xc02aaa39b223fe8d0a0e5c4f27ead9083c756cc2",
                    "decodedLog": {
                        "name": "Withdrawal",
                        "params": [
                            {
                                "name": "src",
                                "type": "address",
                                "value": "0x1111111254fb6c44bac0bed2854e76f90643097d"
                            },
                            {
                                "name": "wad",
                                "type": "uint256",
                                "value": "39,476,182,405,992,639"
                            }
                        ],
                        "signature": "Withdrawal(address,uint256)"
                    },
                    "id": 21,
                    "logData": "0x000000000000000000000000000000000000000000000000008c3f60f565d0bf",
                    "logDecoded": true,
                    "operation": "EVENT",
                    "revert": true,
                    "status": false,
                    "topics": [
                        "0x7fcf532c15f0a6db0bd6d0e038bea71d30d808c7d98cb3bf7268a95bf5081b65",
                        "0x0000000000000000000000001111111254fb6c44bac0bed2854e76f90643097d"
                    ]
                },
                "nodeType": 1
            },
            "22": {
                "invocation": {
                    "address": "0x74de5d4fcbf63e00296fd95d33236b9794016631",
                    "callData": "0x",
                    "decodedMethod": null,
                    "errorInfo": "",
                    "fromAddress": "0x1111111254fb6c44bac0bed2854e76f90643097d",
                    "gasUsed": 40,
                    "id": 22,
                    "methodDecoded": false,
                    "operation": "CALL",
                    "output": "",
                    "revert": true,
                    "revertMessage": "",
                    "selector": "fallback",
                    "status": true,
                    "value": "0.039476182405992639"
                },
                "nodeType": 0
            },
            "3": {
                "event": {
                    "contract": "0x3b484b82567a09e2588a13d54d032153f0c0aee0",
                    "decodedLog": {
                        "name": "Approval",
                        "params": [
                            {
                                "name": "owner",
                                "type": "address",
                                "value": "0xde522d6f3df7b62a636bdc9c33e7a8efa4ca7dfd"
                            },
                            {
                                "name": "spender",
                                "type": "address",
                                "value": "0x881d40237659c251811cec9c364ef91dc08d300c"
                            },
                            {
                                "decimalAvailable": true,
                                "name": "value",
                                "type": "uint256",
                                "value": "115,792,089,237,316,195,423,570,985,008,687,907,853,269,984,665,640,536,191,869,305,207,913,129,639,935"
                            }
                        ],
                        "signature": "Approval(address,address,uint256)"
                    },
                    "id": 3,
                    "logData": "0xffffffffffffffffffffffffffffffffffffffffffe8f70b36e84d80848effff",
                    "logDecoded": true,
                    "operation": "EVENT",
                    "revert": true,
                    "status": false,
                    "topics": [
                        "0x8c5be1e5ebec7d5bd14f71427d1e84f3dd0314c0f7b2291e5b200ac8c7c3b925",
                        "0x000000000000000000000000de522d6f3df7b62a636bdc9c33e7a8efa4ca7dfd",
                        "0x000000000000000000000000881d40237659c251811cec9c364ef91dc08d300c"
                    ]
                },
                "nodeType": 1
            },
            "4": {
                "invocation": {
                    "address": "0x74de5d4fcbf63e00296fd95d33236b9794016631",
                    "callData": "0x000000000000000000000000dfa7bd39ded0051b2ecc48f7e17f63ecd165cae10000000000000000000000000000000000000000000000000000000000000040000000000000000000000000000000000000000000000000000000000000022492f5f037000000000000000000000000de522d6f3df7b62a636bdc9c33e7a8efa4ca7dfd0000000000000000000000003b484b82567a09e2588a13d54d032153f0c0aee000000000000000000000000000000000000000000000000000000000000000000000000000000000000000000000000000000000001708f4c917b27f7b7100000000000000000000000000000000000000000000000000000093d120f69a735f00000000000000000000000000000000000000000000000000000000000001200000000000000000000000000000000000000000000000000001585d12e5037b000000000000000000000000f326e4de8f66a0bdc0970b79e0924e33c79f1915000000000000000000000000000000000000000000000000000000000000000100000000000000000000000000000000000000000000000000000000000000c82e95b6c80000000000000000000000003b484b82567a09e2588a13d54d032153f0c0aee00000000000000000000000000000000000000000001708f4c917b27f7b71000000000000000000000000000000000000000000000000000000951f29532bcb3a0000000000000000000000000000000000000000000000000000000000000080000000000000000000000000000000000000000000000000000000000000000140000000000000003b6d0340db4f0e1f537ed1d4bc4714367dec1e2417f35592ab4991fe00000000000000000000000000000000000000000000000000000000000000000000000000000000000000000000000000000000",
                    "decodedMethod": {
                        "callParams": [
                            {
                                "name": "adapter",
                                "type": "address",
                                "value": "0xdfa7bd39ded0051b2ecc48f7e17f63ecd165cae1"
                            },
                            {
                                "name": "data",
                                "type": "bytes",
                                "value": "0x92f5f037000000000000000000000000de522d6f3df7b62a636bdc9c33e7a8efa4ca7dfd0000000000000000000000003b484b82567a09e2588a13d54d032153f0c0aee000000000000000000000000000000000000000000000000000000000000000000000000000000000000000000000000000000000001708f4c917b27f7b7100000000000000000000000000000000000000000000000000000093d120f69a735f00000000000000000000000000000000000000000000000000000000000001200000000000000000000000000000000000000000000000000001585d12e5037b000000000000000000000000f326e4de8f66a0bdc0970b79e0924e33c79f1915000000000000000000000000000000000000000000000000000000000000000100000000000000000000000000000000000000000000000000000000000000c82e95b6c80000000000000000000000003b484b82567a09e2588a13d54d032153f0c0aee00000000000000000000000000000000000000000001708f4c917b27f7b71000000000000000000000000000000000000000000000000000000951f29532bcb3a0000000000000000000000000000000000000000000000000000000000000080000000000000000000000000000000000000000000000000000000000000000140000000000000003b6d0340db4f0e1f537ed1d4bc4714367dec1e2417f35592ab4991fe000000000000000000000000000000000000000000000000"
                            }
                        ],
                        "constructorArguments": "",
                        "name": "swap",
                        "returnParams": [],
                        "signature": "swap(address,bytes)"
                    },
                    "errorInfo": "execution reverted",
                    "fromAddress": "0x881d40237659c251811cec9c364ef91dc08d300c",
                    "gasUsed": 104542,
                    "id": 4,
                    "methodDecoded": true,
                    "operation": "CALL",
                    "output": "0x08c379a0000000000000000000000000000000000000000000000000000000000000002000000000000000000000000000000000000000000000000000000000000000164d696e2072657475726e206e6f742072656163686564",
                    "revert": true,
                    "revertMessage": "Min return not reached",
                    "selector": "0xe3547335",
                    "status": false,
                    "value": "0"
                },
                "nodeType": 0
            },
            "5": {
                "invocation": {
                    "address": "0xdfa7bd39ded0051b2ecc48f7e17f63ecd165cae1",
                    "callData": "0x000000000000000000000000de522d6f3df7b62a636bdc9c33e7a8efa4ca7dfd0000000000000000000000003b484b82567a09e2588a13d54d032153f0c0aee000000000000000000000000000000000000000000000000000000000000000000000000000000000000000000000000000000000001708f4c917b27f7b7100000000000000000000000000000000000000000000000000000093d120f69a735f00000000000000000000000000000000000000000000000000000000000001200000000000000000000000000000000000000000000000000001585d12e5037b000000000000000000000000f326e4de8f66a0bdc0970b79e0924e33c79f1915000000000000000000000000000000000000000000000000000000000000000100000000000000000000000000000000000000000000000000000000000000c82e95b6c80000000000000000000000003b484b82567a09e2588a13d54d032153f0c0aee00000000000000000000000000000000000000000001708f4c917b27f7b71000000000000000000000000000000000000000000000000000000951f29532bcb3a0000000000000000000000000000000000000000000000000000000000000080000000000000000000000000000000000000000000000000000000000000000140000000000000003b6d0340db4f0e1f537ed1d4bc4714367dec1e2417f35592ab4991fe000000000000000000000000000000000000000000000000",
                    "decodedMethod": null,
                    "errorInfo": "execution reverted",
                    "fromAddress": "0x74de5d4fcbf63e00296fd95d33236b9794016631",
                    "gasUsed": 99361,
                    "id": 5,
                    "methodDecoded": false,
                    "operation": "DELEGATECALL",
                    "output": "0x08c379a0000000000000000000000000000000000000000000000000000000000000002000000000000000000000000000000000000000000000000000000000000000164d696e2072657475726e206e6f742072656163686564",
                    "revert": true,
                    "revertMessage": "Min return not reached",
                    "selector": "0x92f5f037",
                    "status": false,
                    "value": "0"
                },
                "nodeType": 0
            },
            "6": {
                "invocation": {
                    "address": "0x3b484b82567a09e2588a13d54d032153f0c0aee0",
                    "callData": "0x00000000000000000000000074de5d4fcbf63e00296fd95d33236b97940166310000000000000000000000001111111254fb6c44bac0bed2854e76f90643097d",
                    "decodedMethod": {
                        "callParams": [
                            {
                                "name": "owner",
                                "type": "address",
                                "value": "0x74de5d4fcbf63e00296fd95d33236b9794016631"
                            },
                            {
                                "name": "spender",
                                "type": "address",
                                "value": "0x1111111254fb6c44bac0bed2854e76f90643097d"
                            }
                        ],
                        "constructorArguments": "",
                        "name": "allowance",
                        "returnParams": [
                            {
                                "decimalAvailable": true,
                                "name": "",
                                "type": "uint256",
                                "value": "115,792,089,237,316,195,423,570,985,008,687,907,853,269,984,659,725,968,459,451,653,512,975,656,803,740"
                            }
                        ],
                        "signature": "allowance(address,address)"
                    },
                    "errorInfo": "",
                    "fromAddress": "0x74de5d4fcbf63e00296fd95d33236b9794016631",
                    "gasUsed": 2792,
                    "id": 6,
                    "methodDecoded": true,
                    "operation": "STATICCALL",
                    "output": "0xffffffffffffffffffffffffffffffffffffffb558e93483386c26a5602ddd9c",
                    "revert": true,
                    "revertMessage": "",
                    "selector": "0xdd62ed3e",
                    "status": true,
                    "value": "0"
                },
                "nodeType": 0
            },
            "7": {
                "invocation": {
                    "address": "0x1111111254fb6c44bac0bed2854e76f90643097d",
                    "callData": "0x0000000000000000000000003b484b82567a09e2588a13d54d032153f0c0aee00000000000000000000000000000000000000000001708f4c917b27f7b71000000000000000000000000000000000000000000000000000000951f29532bcb3a0000000000000000000000000000000000000000000000000000000000000080000000000000000000000000000000000000000000000000000000000000000140000000000000003b6d0340db4f0e1f537ed1d4bc4714367dec1e2417f35592ab4991fe",
                    "decodedMethod": {
                        "callParams": [
                            {
                                "name": "srcToken",
                                "type": "address",
                                "value": "0x3b484b82567a09e2588a13d54d032153f0c0aee0"
                            },
                            {
                                "name": "amount",
                                "type": "uint256",
                                "value": "27,847,588,278,800,000,000,000,000"
                            },
                            {
                                "name": "minReturn",
                                "type": "uint256",
                                "value": "41,974,033,879,386,938"
                            },
                            {
                                "name": "pools",
                                "type": "bytes32[]",
                                "value": [
                                    "0x40000000000000003b6d0340db4f0e1f537ed1d4bc4714367dec1e2417f35592"
                                ]
                            }
                        ],
                        "constructorArguments": "",
                        "name": "unoswap",
                        "returnParams": [],
                        "signature": "unoswap(address,uint256,uint256,bytes32[])"
                    },
                    "errorInfo": "execution reverted",
                    "fromAddress": "0x74de5d4fcbf63e00296fd95d33236b9794016631",
                    "gasUsed": 91456,
                    "id": 7,
                    "methodDecoded": true,
                    "operation": "CALL",
                    "output": "0x08c379a0000000000000000000000000000000000000000000000000000000000000002000000000000000000000000000000000000000000000000000000000000000164d696e2072657475726e206e6f742072656163686564",
                    "revert": true,
                    "revertMessage": "Min return not reached",
                    "selector": "0x2e95b6c8",
                    "status": false,
                    "value": "0"
                },
                "nodeType": 0
            },
            "8": {
                "invocation": {
                    "address": "0x3b484b82567a09e2588a13d54d032153f0c0aee0",
                    "callData": "0x00000000000000000000000074de5d4fcbf63e00296fd95d33236b9794016631000000000000000000000000db4f0e1f537ed1d4bc4714367dec1e2417f355920000000000000000000000000000000000000000001708f4c917b27f7b710000",
                    "decodedMethod": {
                        "callParams": [
                            {
                                "name": "sender",
                                "type": "address",
                                "value": "0x74de5d4fcbf63e00296fd95d33236b9794016631"
                            },
                            {
                                "name": "recipient",
                                "type": "address",
                                "value": "0xdb4f0e1f537ed1d4bc4714367dec1e2417f35592"
                            },
                            {
                                "decimalAvailable": true,
                                "name": "amount",
                                "type": "uint256",
                                "value": "27,847,588,278,800,000,000,000,000"
                            }
                        ],
                        "constructorArguments": "",
                        "name": "transferFrom",
                        "returnParams": [
                            {
                                "name": "",
                                "type": "bool",
                                "value": true
                            }
                        ],
                        "signature": "transferFrom(address,address,uint256)"
                    },
                    "errorInfo": "",
                    "fromAddress": "0x1111111254fb6c44bac0bed2854e76f90643097d",
                    "gasUsed": 13919,
                    "id": 8,
                    "methodDecoded": true,
                    "operation": "CALL",
                    "output": "0x0000000000000000000000000000000000000000000000000000000000000001",
                    "revert": true,
                    "revertMessage": "",
                    "selector": "0x23b872dd",
                    "status": true,
                    "value": "0"
                },
                "nodeType": 0
            },
            "9": {
                "event": {
                    "contract": "0x3b484b82567a09e2588a13d54d032153f0c0aee0",
                    "decodedLog": {
                        "name": "Transfer",
                        "params": [
                            {
                                "name": "from",
                                "type": "address",
                                "value": "0x74de5d4fcbf63e00296fd95d33236b9794016631"
                            },
                            {
                                "name": "to",
                                "type": "address",
                                "value": "0xdb4f0e1f537ed1d4bc4714367dec1e2417f35592"
                            },
                            {
                                "decimalAvailable": true,
                                "name": "value",
                                "type": "uint256",
                                "value": "27,847,588,278,800,000,000,000,000"
                            }
                        ],
                        "signature": "Transfer(address,address,uint256)"
                    },
                    "id": 9,
                    "logData": "0x0000000000000000000000000000000000000000001708f4c917b27f7b710000",
                    "logDecoded": true,
                    "operation": "EVENT",
                    "revert": true,
                    "status": false,
                    "topics": [
                        "0xddf252ad1be2c89b69c2b068fc378daa952ba7f163c4a11628f55a4df523b3ef",
                        "0x00000000000000000000000074de5d4fcbf63e00296fd95d33236b9794016631",
                        "0x000000000000000000000000db4f0e1f537ed1d4bc4714367dec1e2417f35592"
                    ]
                },
                "nodeType": 1
            }
        },
        "gasFlame": [
            {
                "children": [
                    {
                        "children": [
                            {
                                "children": [],
                                "depth": 0,
                                "name": "Initial Gas",
                                "value": 26304
                            },
                            {
                                "children": [
                                    {
                                        "children": [],
                                        "depth": 1,
                                        "name": "transferFrom",
                                        "value": 37819
                                    },
                                    {
                                        "children": [
                                            {
                                                "children": [
                                                    {
                                                        "children": [],
                                                        "depth": 3,
                                                        "name": "allowance",
                                                        "value": 2792
                                                    },
                                                    {
                                                        "children": [
                                                            {
                                                                "children": [],
                                                                "depth": 4,
                                                                "name": "transferFrom",
                                                                "value": 13919
                                                            },
                                                            {
                                                                "children": [],
                                                                "depth": 4,
                                                                "name": "getReserves",
                                                                "value": 2504
                                                            },
                                                            {
                                                                "children": [
                                                                    {
                                                                        "children": [],
                                                                        "depth": 5,
                                                                        "name": "transfer",
                                                                        "value": 29962
                                                                    },
                                                                    {
                                                                        "children": [],
                                                                        "depth": 5,
                                                                        "name": "balanceOf",
                                                                        "value": 658
                                                                    },
                                                                    {
                                                                        "children": [],
                                                                        "depth": 5,
                                                                        "name": "balanceOf",
                                                                        "value": 534
                                                                    }
                                                                ],
                                                                "depth": 4,
                                                                "name": "swap",
                                                                "value": 54561
                                                            },
                                                            {
                                                                "children": [
                                                                    {
                                                                        "children": [],
                                                                        "depth": 5,
                                                                        "name": "fallback",
                                                                        "value": 79
                                                                    }
                                                                ],
                                                                "depth": 4,
                                                                "name": "withdraw",
                                                                "value": 9219
                                                            },
                                                            {
                                                                "children": [],
                                                                "depth": 4,
                                                                "name": "fallback",
                                                                "value": 40
                                                            }
                                                        ],
                                                        "depth": 3,
                                                        "name": "unoswap",
                                                        "value": 91456
                                                    }
                                                ],
                                                "depth": 2,
                                                "name": "0x92f5f037",
                                                "value": 99361
                                            }
                                        ],
                                        "depth": 1,
                                        "name": "swap",
                                        "value": 104542
                                    }
                                ],
                                "depth": 0,
                                "name": "Executed Gas",
                                "value": 163635
                            }
                        ],
                        "depth": -1,
                        "name": "Actual Gas Used",
                        "value": 189939
                    },
                    {
                        "children": [],
                        "depth": -1,
                        "name": "Refunded Gas",
                        "value": 0
                    }
                ],
                "depth": -2,
                "name": "Total Gas",
                "value": 189939
            }
        ],
        "isConfirmed": true,
        "mainTrace": [
            {
                "children": [
                    {
                        "children": [
                            {
                                "children": [
                                    {
                                        "children": [],
                                        "depth": 2,
                                        "id": 2,
                                        "order": 2
                                    },
                                    {
                                        "children": [],
                                        "depth": 2,
                                        "id": 3,
                                        "order": 3
                                    }
                                ],
                                "depth": 1,
                                "id": 1,
                                "order": 1
                            },
                            {
                                "children": [
                                    {
                                        "children": [
                                            {
                                                "children": [],
                                                "depth": 3,
                                                "id": 6,
                                                "order": 6
                                            },
                                            {
                                                "children": [
                                                    {
                                                        "children": [
                                                            {
                                                                "children": [],
                                                                "depth": 5,
                                                                "id": 9,
                                                                "order": 9
                                                            },
                                                            {
                                                                "children": [],
                                                                "depth": 5,
                                                                "id": 10,
                                                                "order": 10
                                                            }
                                                        ],
                                                        "depth": 4,
                                                        "id": 8,
                                                        "order": 8
                                                    },
                                                    {
                                                        "children": [],
                                                        "depth": 4,
                                                        "id": 11,
                                                        "order": 11
                                                    },
                                                    {
                                                        "children": [
                                                            {
                                                                "children": [
                                                                    {
                                                                        "children": [],
                                                                        "depth": 6,
                                                                        "id": 14,
                                                                        "order": 14
                                                                    }
                                                                ],
                                                                "depth": 5,
                                                                "id": 13,
                                                                "order": 13
                                                            },
                                                            {
                                                                "children": [],
                                                                "depth": 5,
                                                                "id": 15,
                                                                "order": 15
                                                            },
                                                            {
                                                                "children": [],
                                                                "depth": 5,
                                                                "id": 16,
                                                                "order": 16
                                                            },
                                                            {
                                                                "children": [],
                                                                "depth": 5,
                                                                "id": 17,
                                                                "order": 17
                                                            },
                                                            {
                                                                "children": [],
                                                                "depth": 5,
                                                                "id": 18,
                                                                "order": 18
                                                            }
                                                        ],
                                                        "depth": 4,
                                                        "id": 12,
                                                        "order": 12
                                                    },
                                                    {
                                                        "children": [
                                                            {
                                                                "children": [],
                                                                "depth": 5,
                                                                "id": 20,
                                                                "order": 20
                                                            },
                                                            {
                                                                "children": [],
                                                                "depth": 5,
                                                                "id": 21,
                                                                "order": 21
                                                            }
                                                        ],
                                                        "depth": 4,
                                                        "id": 19,
                                                        "order": 19
                                                    },
                                                    {
                                                        "children": [],
                                                        "depth": 4,
                                                        "id": 22,
                                                        "order": 22
                                                    }
                                                ],
                                                "depth": 3,
                                                "id": 7,
                                                "order": 7
                                            }
                                        ],
                                        "depth": 2,
                                        "id": 5,
                                        "order": 5
                                    }
                                ],
                                "depth": 1,
                                "id": 4,
                                "order": 4
                            }
                        ],
                        "depth": 0,
                        "id": 0,
                        "order": 0
                    }
                ],
                "depth": -1,
                "id": -1,
                "order": -1
            }
        ],
        "mainTraceNodeCount": 23,
        "parentIdMap": {
            "0": -1,
            "1": 0,
            "10": 8,
            "11": 7,
            "12": 7,
            "13": 12,
            "14": 13,
            "15": 12,
            "16": 12,
            "17": 12,
            "18": 12,
            "19": 7,
            "2": 1,
            "20": 19,
            "21": 19,
            "22": 7,
            "3": 1,
            "4": 0,
            "5": 4,
            "6": 5,
            "7": 5,
            "8": 7,
            "9": 8
        },
        "tidyTrace": [
            {
                "children": [
                    {
                        "children": [
                            {
                                "children": [
                                    {
                                        "children": [],
                                        "depth": 2,
                                        "id": 2,
                                        "order": 2
                                    },
                                    {
                                        "children": [],
                                        "depth": 2,
                                        "id": 3,
                                        "order": 3
                                    }
                                ],
                                "depth": 1,
                                "id": 1,
                                "order": 1
                            },
                            {
                                "children": [
                                    {
                                        "children": [
                                            {
                                                "children": [
                                                    {
                                                        "children": [
                                                            {
                                                                "children": [],
                                                                "depth": 5,
                                                                "id": 9,
                                                                "order": 9
                                                            },
                                                            {
                                                                "children": [],
                                                                "depth": 5,
                                                                "id": 10,
                                                                "order": 10
                                                            }
                                                        ],
                                                        "depth": 4,
                                                        "id": 8,
                                                        "order": 8
                                                    },
                                                    {
                                                        "children": [
                                                            {
                                                                "children": [
                                                                    {
                                                                        "children": [],
                                                                        "depth": 6,
                                                                        "id": 14,
                                                                        "order": 14
                                                                    }
                                                                ],
                                                                "depth": 5,
                                                                "id": 13,
                                                                "order": 13
                                                            },
                                                            {
                                                                "children": [],
                                                                "depth": 5,
                                                                "id": 17,
                                                                "order": 17
                                                            },
                                                            {
                                                                "children": [],
                                                                "depth": 5,
                                                                "id": 18,
                                                                "order": 18
                                                            }
                                                        ],
                                                        "depth": 4,
                                                        "id": 12,
                                                        "order": 12
                                                    },
                                                    {
                                                        "children": [
                                                            {
                                                                "children": [],
                                                                "depth": 5,
                                                                "id": 20,
                                                                "order": 20
                                                            },
                                                            {
                                                                "children": [],
                                                                "depth": 5,
                                                                "id": 21,
                                                                "order": 21
                                                            }
                                                        ],
                                                        "depth": 4,
                                                        "id": 19,
                                                        "order": 19
                                                    },
                                                    {
                                                        "children": [],
                                                        "depth": 4,
                                                        "id": 22,
                                                        "order": 22
                                                    }
                                                ],
                                                "depth": 3,
                                                "id": 7,
                                                "order": 7
                                            }
                                        ],
                                        "depth": 2,
                                        "id": 5,
                                        "order": 5
                                    }
                                ],
                                "depth": 1,
                                "id": 4,
                                "order": 4
                            }
                        ],
                        "depth": 0,
                        "id": 0,
                        "order": 0
                    }
                ],
                "depth": -1,
                "id": -1,
                "order": -1
            }
        ],
        "tidyTraceNodeCount": 19
    },
    "state_change": {
        "stateChanges": []
    }
}