{
    "balance_change": {
        "balanceChanges": [
            {
                "account": "0x73be4108577cb0574b0d6118e5f46a1440c7254d",
                "assets": [
                    {
                        "address": "0xe1ac9eb7cddabfd9e5ca49c23bd521afcdf8be49",
                        "amount": "11,100",
                        "iconUrl": "",
                        "isERC1155": false,
                        "isERC721": false,
                        "sign": false,
                        "value": ""
                    }
                ]
            },
            {
                "account": "0xec584ef39552ce9fd0e838ea1edb3b3cdd6ca5e5",
                "assets": [
                    {
                        "address": "0xe1ac9eb7cddabfd9e5ca49c23bd521afcdf8be49",
                        "amount": "11,100",
                        "iconUrl": "",
                        "isERC1155": false,
                        "isERC721": false,
                        "sign": true,
                        "value": ""
                    }
                ]
            }
        ]
    },
    "profile": {
        "basic_info": {
            "baseFee": "",
            "blockNumber": 8246560,
            "callData": "0xa9059cbb000000000000000000000000ec584ef39552ce9fd0e838ea1edb3b3cdd6ca5e5000000000000000000000000000000000000000000000259bb71d5adf3f00000",
            "debugEnable": true,
            "errorInfo": "",
            "eventCount": 1,
            "feeRecipient": "0xea674fdde714fd979de3edf0f56aa9716b898ec8",
            "formatValue": "0",
            "gasLimit": 2100000,
            "gasPrice": "20",
            "gasUsed": 52317,
            "intTxnCount": 0,
            "internalRevert": false,
            "internalRevertMessage": "",
            "isContractCreation": false,
            "isFlashloan": false,
            "maxFee": "",
            "nonce": 55328,
            "overwritedBlockNumber": -1,
            "priorityFee": "",
            "receiver": "0xe1ac9eb7cddabfd9e5ca49c23bd521afcdf8be49",
            "revertMessage": "",
            "sender": "0x73be4108577cb0574b0d6118e5f46a1440c7254d",
            "simulationEnable": true,
            "sourceTxnHash": "0xae54c98b55f04fe5e19f7c5149a387643db18269a1b44a4d59d170b0ec638869",
            "status": true,
            "timestamp": "2019-07-29T16:26:31Z",
            "transactionFee": "0.00104634",
            "txnHash": "0xae54c98b55f04fe5e19f7c5149a387643db18269a1b44a4d59d170b0ec638869",
            "txnIndex": 28,
            "type": 0,
            "value": "0"
        },
        "fund_flow": [
            {
                "amount": "11,100",
                "from": "0x73be4108577cb0574b0d6118e5f46a1440c7254d",
                "id": 1,
                "isERC1155": false,
                "isERC721": false,
                "isReverted": false,
                "order": 1,
                "to": "0xec584ef39552ce9fd0e838ea1edb3b3cdd6ca5e5",
                "token": "0xe1ac9eb7cddabfd9e5ca49c23bd521afcdf8be49"
            }
        ],
        "token_infos": [
            {
                "address": "0xc02aaa39b223fe8d0a0e5c4f27ead9083c756cc2",
                "decimals": 18
            },
            {
                "address": "0xe1ac9eb7cddabfd9e5ca49c23bd521afcdf8be49",
                "decimals": 18
            },
            {
                "address": "0xeeeeeeeeeeeeeeeeeeeeeeeeeeeeeeeeeeeeeeee",
                "decimals": 18
            }
        ]
    },
    "address_label": {
        "labels": [
            {
                "address": "0x0000000000000000000000000000000000000003",
                "label": "Precompiled"
            },
            {
                "address": "0x0000000000000000000000000000000000000004",
                "label": "Precompiled"
            },
            {
                "address": "0xeeeeeeeeeeeeeeeeeeeeeeeeeeeeeeeeeeeeeeee",
                "label": "Ether"
            },
            {
                "address": "0xe1ac9eb7cddabfd9e5ca49c23bd521afcdf8be49",
                "label": "Mycion (MYC)"
            },
            {
                "address": "0x0000000000000000000000000000000000000001",
                "label": "Precompiled"
            },
            {
                "address": "0x0000000000000000000000000000000000000002",
                "label": "Precompiled"
            }
        ]
    },
    "trace": {
        "accountLabels": null,
        "dataMap": {
            "-1": {
                "invocation": {
                    "address": "0x73be4108577cb0574b0d6118e5f46a1440c7254d",
                    "callData": "",
                    "decodedMethod": null,
                    "errorInfo": "",
                    "fromAddress": "",
                    "gasUsed": 0,
                    "id": -1,
                    "methodDecoded": false,
                    "operation": "",
                    "output": "",
                    "revert": false,
                    "revertMessage": "",
                    "selector": "",
                    "status": false,
                    "value": ""
                },
                "nodeType": 0
            },
            "0": {
                "invocation": {
                    "address": "0xe1ac9eb7cddabfd9e5ca49c23bd521afcdf8be49",
                    "callData": "0x000000000000000000000000ec584ef39552ce9fd0e838ea1edb3b3cdd6ca5e5000000000000000000000000000000000000000000000259bb71d5adf3f00000",
                    "decodedMethod": {
                        "callParams": [
                            {
                                "name": "recipient",
                                "type": "address",
                                "value": "0xec584ef39552ce9fd0e838ea1edb3b3cdd6ca5e5"
                            },
                            {
                                "decimalAvailable": true,
                                "name": "amount",
                                "type": "uint256",
                                "value": "11,100,000,000,000,000,000,000"
                            }
                        ],
                        "constructorArguments": "",
                        "name": "transfer",
                        "returnParams": [
                            {
                                "name": "",
                                "type": "bool",
                                "value": true
                            }
                        ],
                        "signature": "transfer(address,uint256)"
                    },
                    "errorInfo": "",
                    "fromAddress": "0x73be4108577cb0574b0d6118e5f46a1440c7254d",
                    "gasUsed": 52317,
                    "id": 0,
                    "methodDecoded": true,
                    "operation": "CALL",
                    "output": "0x0000000000000000000000000000000000000000000000000000000000000001",
                    "revert": false,
                    "revertMessage": "",
                    "selector": "0xa9059cbb",
                    "status": true,
                    "value": "0"
                },
                "nodeType": 0
            },
            "1": {
                "event": {
                    "contract": "0xe1ac9eb7cddabfd9e5ca49c23bd521afcdf8be49",
                    "decodedLog": {
                        "name": "Transfer",
                        "params": [
                            {
                                "name": "from",
                                "type": "address",
                                "value": "0x73be4108577cb0574b0d6118e5f46a1440c7254d"
                            },
                            {
                                "name": "to",
                                "type": "address",
                                "value": "0xec584ef39552ce9fd0e838ea1edb3b3cdd6ca5e5"
                            },
                            {
                                "decimalAvailable": true,
                                "name": "value",
                                "type": "uint256",
                                "value": "11,100,000,000,000,000,000,000"
                            }
                        ],
                        "signature": "Transfer(address,address,uint256)"
                    },
                    "id": 1,
                    "logData": "0x000000000000000000000000000000000000000000000259bb71d5adf3f00000",
                    "logDecoded": true,
                    "operation": "EVENT",
                    "revert": false,
                    "status": true,
                    "topics": [
                        "0xddf252ad1be2c89b69c2b068fc378daa952ba7f163c4a11628f55a4df523b3ef",
                        "0x00000000000000000000000073be4108577cb0574b0d6118e5f46a1440c7254d",
                        "0x000000000000000000000000ec584ef39552ce9fd0e838ea1edb3b3cdd6ca5e5"
                    ]
                },
                "nodeType": 1
            }
        },
        "gasFlame": [
            {
                "children": [
                    {
                        "children": [
                            {
                                "children": [],
                                "depth": 0,
                                "name": "Initial Gas",
                                "value": 23320
                            },
                            {
                                "children": [],
                                "depth": 0,
                                "name": "Executed Gas",
                                "value": 28997
                            }
                        ],
                        "depth": -1,
                        "name": "Actual Gas Used",
                        "value": 52317
                    },
                    {
                        "children": [],
                        "depth": -1,
                        "name": "Refunded Gas",
                        "value": 0
                    }
                ],
                "depth": -2,
                "name": "Total Gas",
                "value": 52317
            }
        ],
        "isConfirmed": true,
        "mainTrace": [
            {
                "children": [
                    {
                        "children": [
                            {
                                "children": [],
                                "depth": 1,
                                "id": 1,
                                "order": 1
                            }
                        ],
                        "depth": 0,
                        "id": 0,
                        "order": 0
                    }
                ],
                "depth": -1,
                "id": -1,
                "order": -1
            }
        ],
        "mainTraceNodeCount": 2,
        "parentIdMap": {
            "0": -1,
            "1": 0
        },
        "tidyTrace": [
            {
                "children": [
                    {
                        "children": [
                            {
                                "children": [],
                                "depth": 1,
                                "id": 1,
                                "order": 1
                            }
                        ],
                        "depth": 0,
                        "id": 0,
                        "order": 0
                    }
                ],
                "depth": -1,
                "id": -1,
                "order": -1
            }
        ],
        "tidyTraceNodeCount": 2
    },
    "state_change": {
        "stateChanges": [
            {
                "address": "0xe1ac9eb7cddabfd9e5ca49c23bd521afcdf8be49",
                "erc": "",
                "slots": [
                    {
                        "current": "0x00000000000000000000000000000000000000000051eb4da819e57c3f2a6000",
                        "key": "0x3d3e3bb2624f077f5a341ce11831bcc1d36989c3039a5a9c5323afb454993b7e",
                        "prev": "0x00000000000000000000000000000000000000000051eda7638bbb2a331a6000"
                    },
                    {
                        "current": "0x000000000000000000000000000000000000000000000259bb71d5adf3f00000",
                        "key": "0xefb25082b00ce3f0ea88f9435e409b2038609ce67835b48eaa9ac25e54ca4f68",
                        "prev": "0x0000000000000000000000000000000000000000000000000000000000000000"
                    }
                ],
                "storageVariables": []
            }
        ]
    }
}