{
    "balance_change": {
        "balanceChanges": [
            {
                "account": "0x0000000000000000000000000000000000000000",
                "assets": [
                    {
                        "address": "0x06450dee7fd2fb8e39061434babcfc05599a6fb8",
                        "amount": "3,155,019",
                        "iconUrl": "https://assets.blocksec.com/icon/bfebae0534bdef52bef16dcfadd09b51dc489ab1144c9f2d6568357f9adb9ecd.png",
                        "isERC1155": false,
                        "isERC721": false,
                        "sign": false,
                        "value": ""
                    }
                ]
            },
            {
                "account": "0x69e1fa6bf46c46abd01be9ee26714e8c83953f79",
                "assets": [
                    {
                        "address": "0x06450dee7fd2fb8e39061434babcfc05599a6fb8",
                        "amount": "3,155,019",
                        "iconUrl": "https://assets.blocksec.com/icon/bfebae0534bdef52bef16dcfadd09b51dc489ab1144c9f2d6568357f9adb9ecd.png",
                        "isERC1155": false,
                        "isERC721": false,
                        "sign": true,
                        "value": ""
                    }
                ]
            }
        ]
    },
    "profile": {
        "basic_info": {
            "baseFee": "12.594435172",
            "blockNumber": 16312240,
            "callData": "0x1c56030500000000000000000000000069e1fa6bf46c46abd01be9ee26714e8c83953f790000000000000000000000000000000000000000000000000000000000000064",
            "debugEnable": true,
            "errorInfo": "",
            "eventCount": 3,
            "feeRecipient": "0x388c818ca8b9251b393131c08a736a67ccb19297",
            "formatValue": "0",
            "gasLimit": 117146,
            "gasPrice": "13",
            "gasUsed": 73637,
            "intTxnCount": 2,
            "internalRevert": false,
            "internalRevertMessage": "",
            "isContractCreation": false,
            "isFlashloan": false,
            "maxFee": "",
            "nonce": 4,
            "overwritedBlockNumber": -1,
            "priorityFee": "",
            "receiver": "0x06450dee7fd2fb8e39061434babcfc05599a6fb8",
            "revertMessage": "",
            "sender": "0x9ede1d142fd19982aec5ba8f215be9cc229beee2",
            "simulationEnable": true,
            "sourceTxnHash": "0xae87e13d28d232c275c6853752c9bb4db1c4164b203ca7fff58cb8155449c815",
            "status": true,
            "timestamp": "2023-01-01T13:33:11Z",
            "transactionFee": "0.000957281",
            "txnHash": "0xae87e13d28d232c275c6853752c9bb4db1c4164b203ca7fff58cb8155449c815",
            "txnIndex": 115,
            "type": 0,
            "value": "0"
        },
        "fund_flow": [
            {
                "amount": "0",
                "from": "0x0000000000000000000000000000000000000000",
                "id": 1,
                "isERC1155": false,
                "isERC721": false,
                "isReverted": false,
                "order": 1,
                "to": "0x9ede1d142fd19982aec5ba8f215be9cc229beee2",
                "token": "0x06450dee7fd2fb8e39061434babcfc05599a6fb8"
            },
            {
                "amount": "3,155,019",
                "from": "0x0000000000000000000000000000000000000000",
                "id": 2,
                "isERC1155": false,
                "isERC721": false,
                "isReverted": false,
                "order": 2,
                "to": "0x69e1fa6bf46c46abd01be9ee26714e8c83953f79",
                "token": "0x06450dee7fd2fb8e39061434babcfc05599a6fb8"
            }
        ],
        "token_infos": [
            {
                "address": "0x06450dee7fd2fb8e39061434babcfc05599a6fb8",
                "decimals": 18
            },
            {
                "address": "0xc02aaa39b223fe8d0a0e5c4f27ead9083c756cc2",
                "decimals": 18
            },
            {
                "address": "0xeeeeeeeeeeeeeeeeeeeeeeeeeeeeeeeeeeeeeeee",
                "decimals": 18
            }
        ]
    },
    "address_label": {
        "labels": [
            {
                "address": "0x0000000000000000000000000000000000000004",
                "label": "Precompiled"
            },
            {
                "address": "0xeeeeeeeeeeeeeeeeeeeeeeeeeeeeeeeeeeeeeeee",
                "label": "Ether"
            },
            {
                "address": "0x06450dee7fd2fb8e39061434babcfc05599a6fb8",
                "label": "XEN Crypto: XEN Token"
            },
            {
                "address": "0x4bba9b6b49f3dfa6615f079e9d66b0aa68b04a4d",
                "label": "Math"
            },
            {
                "address": "0x388c818ca8b9251b393131c08a736a67ccb19297",
                "label": "LidoExecutionLayerRewardsVault"
            },
            {
                "address": "0x0000000000000000000000000000000000000001",
                "label": "Precompiled"
            },
            {
                "address": "0x0000000000000000000000000000000000000002",
                "label": "Precompiled"
            },
            {
                "address": "0x0000000000000000000000000000000000000003",
                "label": "Precompiled"
            }
        ]
    },
    "trace": {
        "accountLabels": null,
        "dataMap": {
            "-1": {
                "invocation": {
                    "address": "0x9ede1d142fd19982aec5ba8f215be9cc229beee2",
                    "callData": "",
                    "decodedMethod": null,
                    "errorInfo": "",
                    "fromAddress": "",
                    "gasUsed": 0,
                    "id": -1,
                    "methodDecoded": false,
                    "operation": "",
                    "output": "",
                    "revert": false,
                    "revertMessage": "",
                    "selector": "",
                    "status": false,
                    "value": ""
                },
                "nodeType": 0
            },
            "0": {
                "invocation": {
                    "address": "0x06450dee7fd2fb8e39061434babcfc05599a6fb8",
                    "callData": "0x00000000000000000000000069e1fa6bf46c46abd01be9ee26714e8c83953f790000000000000000000000000000000000000000000000000000000000000064",
                    "decodedMethod": {
                        "callParams": [
                            {
                                "name": "other",
                                "type": "address",
                                "value": "0x69e1fa6bf46c46abd01be9ee26714e8c83953f79"
                            },
                            {
                                "name": "pct",
                                "type": "uint256",
                                "value": "100"
                            }
                        ],
                        "constructorArguments": "",
                        "name": "claimMintRewardAndShare",
                        "returnParams": [],
                        "signature": "claimMintRewardAndShare(address,uint256)"
                    },
                    "errorInfo": "",
                    "fromAddress": "0x9ede1d142fd19982aec5ba8f215be9cc229beee2",
                    "gasUsed": 73637,
                    "id": 0,
                    "methodDecoded": true,
                    "operation": "CALL",
                    "output": "",
                    "revert": false,
                    "revertMessage": "",
                    "selector": "0x1c560305",
                    "status": true,
                    "value": "0"
                },
                "nodeType": 0
            },
            "1": {
                "invocation": {
                    "address": "0x4bba9b6b49f3dfa6615f079e9d66b0aa68b04a4d",
                    "callData": "0x00000000000000000000000000000000000000000000000000000000000000000000000000000000000000000000000000000000000000000000000000000063",
                    "decodedMethod": {
                        "callParams": [
                            {
                                "name": "a",
                                "type": "uint256",
                                "value": "0"
                            },
                            {
                                "name": "b",
                                "type": "uint256",
                                "value": "99"
                            }
                        ],
                        "constructorArguments": "",
                        "name": "min",
                        "returnParams": [
                            {
                                "name": "",
                                "type": "uint256",
                                "value": "0"
                            }
                        ],
                        "signature": "min(uint256,uint256)"
                    },
                    "errorInfo": "",
                    "fromAddress": "0x06450dee7fd2fb8e39061434babcfc05599a6fb8",
                    "gasUsed": 349,
                    "id": 1,
                    "methodDecoded": true,
                    "operation": "DELEGATECALL",
                    "output": "0x0000000000000000000000000000000000000000000000000000000000000000",
                    "revert": false,
                    "revertMessage": "",
                    "selector": "0x7ae2b5c7",
                    "status": true,
                    "value": "0"
                },
                "nodeType": 0
            },
            "2": {
                "invocation": {
                    "address": "0x4bba9b6b49f3dfa6615f079e9d66b0aa68b04a4d",
                    "callData": "0x0000000000000000000000000000000000000000000000000000000000430fb60000000000000000000000000000000000000000000000000000000000000002",
                    "decodedMethod": {
                        "callParams": [
                            {
                                "name": "a",
                                "type": "uint256",
                                "value": "4,394,934"
                            },
                            {
                                "name": "b",
                                "type": "uint256",
                                "value": "2"
                            }
                        ],
                        "constructorArguments": "",
                        "name": "max",
                        "returnParams": [
                            {
                                "name": "",
                                "type": "uint256",
                                "value": "4,394,934"
                            }
                        ],
                        "signature": "max(uint256,uint256)"
                    },
                    "errorInfo": "",
                    "fromAddress": "0x06450dee7fd2fb8e39061434babcfc05599a6fb8",
                    "gasUsed": 340,
                    "id": 2,
                    "methodDecoded": true,
                    "operation": "DELEGATECALL",
                    "output": "0x0000000000000000000000000000000000000000000000000000000000430fb6",
                    "revert": false,
                    "revertMessage": "",
                    "selector": "0x6d5433e6",
                    "status": true,
                    "value": "0"
                },
                "nodeType": 0
            },
            "3": {
                "event": {
                    "contract": "0x06450dee7fd2fb8e39061434babcfc05599a6fb8",
                    "decodedLog": {
                        "name": "Transfer",
                        "params": [
                            {
                                "name": "from",
                                "type": "address",
                                "value": "0x0000000000000000000000000000000000000000"
                            },
                            {
                                "name": "to",
                                "type": "address",
                                "value": "0x9ede1d142fd19982aec5ba8f215be9cc229beee2"
                            },
                            {
                                "decimalAvailable": true,
                                "name": "value",
                                "type": "uint256",
                                "value": "0"
                            }
                        ],
                        "signature": "Transfer(address,address,uint256)"
                    },
                    "id": 3,
                    "logData": "0x0000000000000000000000000000000000000000000000000000000000000000",
                    "logDecoded": true,
                    "operation": "EVENT",
                    "revert": false,
                    "status": true,
                    "topics": [
                        "0xddf252ad1be2c89b69c2b068fc378daa952ba7f163c4a11628f55a4df523b3ef",
                        "0x0000000000000000000000000000000000000000000000000000000000000000",
                        "0x0000000000000000000000009ede1d142fd19982aec5ba8f215be9cc229beee2"
                    ]
                },
                "nodeType": 1
            },
            "4": {
                "event": {
                    "contract": "0x06450dee7fd2fb8e39061434babcfc05599a6fb8",
                    "decodedLog": {
                        "name": "Transfer",
                        "params": [
                            {
                                "name": "from",
                                "type": "address",
                                "value": "0x0000000000000000000000000000000000000000"
                            },
                            {
                                "name": "to",
                                "type": "address",
                                "value": "0x69e1fa6bf46c46abd01be9ee26714e8c83953f79"
                            },
                            {
                                "decimalAvailable": true,
                                "name": "value",
                                "type": "uint256",
                                "value": "3,155,019,000,000,000,000,000,000"
                            }
                        ],
                        "signature": "Transfer(address,address,uint256)"
                    },
                    "id": 4,
                    "logData": "0x000000000000000000000000000000000000000000029c19ec362cec1a4c0000",
                    "logDecoded": true,
                    "operation": "EVENT",
                    "revert": false,
                    "status": true,
                    "topics": [
                        "0xddf252ad1be2c89b69c2b068fc378daa952ba7f163c4a11628f55a4df523b3ef",
                        "0x0000000000000000000000000000000000000000000000000000000000000000",
                        "0x00000000000000000000000069e1fa6bf46c46abd01be9ee26714e8c83953f79"
                    ]
                },
                "nodeType": 1
            },
            "5": {
                "event": {
                    "contract": "0x06450dee7fd2fb8e39061434babcfc05599a6fb8",
                    "decodedLog": {
                        "name": "MintClaimed",
                        "params": [
                            {
                                "name": "user",
                                "type": "address",
                                "value": "0x9ede1d142fd19982aec5ba8f215be9cc229beee2"
                            },
                            {
                                "name": "rewardAmount",
                                "type": "uint256",
                                "value": "3,155,019,000,000,000,000,000,000"
                            }
                        ],
                        "signature": "MintClaimed(address,uint256)"
                    },
                    "id": 5,
                    "logData": "0x000000000000000000000000000000000000000000029c19ec362cec1a4c0000",
                    "logDecoded": true,
                    "operation": "EVENT",
                    "revert": false,
                    "status": true,
                    "topics": [
                        "0xd74752b13281df13701575f3a507e9b1242e0b5fb040143211c481c1fce573a6",
                        "0x0000000000000000000000009ede1d142fd19982aec5ba8f215be9cc229beee2"
                    ]
                },
                "nodeType": 1
            }
        },
        "gasFlame": [
            {
                "children": [
                    {
                        "children": [
                            {
                                "children": [],
                                "depth": 0,
                                "name": "Initial Gas",
                                "value": 21572
                            },
                            {
                                "children": [
                                    {
                                        "children": [],
                                        "depth": 1,
                                        "name": "min",
                                        "value": 349
                                    },
                                    {
                                        "children": [],
                                        "depth": 1,
                                        "name": "max",
                                        "value": 340
                                    }
                                ],
                                "depth": 0,
                                "name": "Executed Gas",
                                "value": 70474
                            }
                        ],
                        "depth": -1,
                        "name": "Actual Gas Used",
                        "value": 73637
                    },
                    {
                        "children": [],
                        "depth": -1,
                        "name": "Refunded Gas",
                        "value": 18409
                    }
                ],
                "depth": -2,
                "name": "Total Gas",
                "value": 92046
            }
        ],
        "isConfirmed": true,
        "mainTrace": [
            {
                "children": [
                    {
                        "children": [
                            {
                                "children": [],
                                "depth": 1,
                                "id": 1,
                                "order": 1
                            },
                            {
                                "children": [],
                                "depth": 1,
                                "id": 2,
                                "order": 2
                            },
                            {
                                "children": [],
                                "depth": 1,
                                "id": 3,
                                "order": 3
                            },
                            {
                                "children": [],
                                "depth": 1,
                                "id": 4,
                                "order": 4
                            },
                            {
                                "children": [],
                                "depth": 1,
                                "id": 5,
                                "order": 5
                            }
                        ],
                        "depth": 0,
                        "id": 0,
                        "order": 0
                    }
                ],
                "depth": -1,
                "id": -1,
                "order": -1
            }
        ],
        "mainTraceNodeCount": 6,
        "parentIdMap": {
            "0": -1,
            "1": 0,
            "2": 0,
            "3": 0,
            "4": 0,
            "5": 0
        },
        "tidyTrace": [
            {
                "children": [
                    {
                        "children": [
                            {
                                "children": [],
                                "depth": 1,
                                "id": 1,
                                "order": 1
                            },
                            {
                                "children": [],
                                "depth": 1,
                                "id": 2,
                                "order": 2
                            },
                            {
                                "children": [],
                                "depth": 1,
                                "id": 3,
                                "order": 3
                            },
                            {
                                "children": [],
                                "depth": 1,
                                "id": 4,
                                "order": 4
                            },
                            {
                                "children": [],
                                "depth": 1,
                                "id": 5,
                                "order": 5
                            }
                        ],
                        "depth": 0,
                        "id": 0,
                        "order": 0
                    }
                ],
                "depth": -1,
                "id": -1,
                "order": -1
            }
        ],
        "tidyTraceNodeCount": 6
    },
    "state_change": {
        "stateChanges": [
            {
                "address": "0x06450dee7fd2fb8e39061434babcfc05599a6fb8",
                "erc": "ERC-20",
                "slots": [
                    {
                        "current": "0x0000000000000000000000000000000000000000000000000000000000000000",
                        "key": "0x9370b0b543309d0ea45bff282466127758ed1e32362a2c5c5159bb1dbefa1390",
                        "prev": "0x00000000000000000000000000000000000000000000000000000000002982a6"
                    },
                    {
                        "current": "0x0000000000000000000000000000000000000000000000000000000000000000",
                        "key": "0x9370b0b543309d0ea45bff282466127758ed1e32362a2c5c5159bb1dbefa138e",
                        "prev": "0x000000000000000000000000000000000000000000000000000000000000002d"
                    },
                    {
                        "current": "0x0000000000000000000000000000000000000000000000000000000000000000",
                        "key": "0x9370b0b543309d0ea45bff282466127758ed1e32362a2c5c5159bb1dbefa1391",
                        "prev": "0x0000000000000000000000000000000000000000000000000000000000000b91"
                    },
                    {
                        "current": "0x00000000000000000000000000000000000000219d380cfff3f73a6a73ec6efc",
                        "key": "0x0000000000000000000000000000000000000000000000000000000000000002",
                        "prev": "0x00000000000000000000000000000000000000219d3570e607c10d7e59a06efc"
                    },
                    {
                        "current": "0x0000000000000000000000000000000000000000000000000000000000000000",
                        "key": "0x9370b0b543309d0ea45bff282466127758ed1e32362a2c5c5159bb1dbefa1392",
                        "prev": "0x0000000000000000000000000000000000000000000000000000000000000049"
                    },
                    {
                        "current": "0x0000000000000000000000000000000000000000021310f305066c77f32c0000",
                        "key": "0xc1cbf767c9ceb4deb139d8ac7b2a72f0d88006e4ded380d83e3d65d290b4f167",
                        "prev": "0x0000000000000000000000000000000000000000021074d918d03f8bd8e00000"
                    },
                    {
                        "current": "0x0000000000000000000000000000000000000000000000000000000000000000",
                        "key": "0x9370b0b543309d0ea45bff282466127758ed1e32362a2c5c5159bb1dbefa138d",
                        "prev": "0x0000000000000000000000009ede1d142fd19982aec5ba8f215be9cc229beee2"
                    },
                    {
                        "current": "0x0000000000000000000000000000000000000000000000000000000000000000",
                        "key": "0x9370b0b543309d0ea45bff282466127758ed1e32362a2c5c5159bb1dbefa138f",
                        "prev": "0x0000000000000000000000000000000000000000000000000000000063b12d9b"
                    },
                    {
                        "current": "0x000000000000000000000000000000000000000000000000000000000044a2ca",
                        "key": "0x0000000000000000000000000000000000000000000000000000000000000006",
                        "prev": "0x000000000000000000000000000000000000000000000000000000000044a2cb"
                    }
                ],
                "storageVariables": [
                    {
                        "name": "userMints",
                        "type": "mapping(address => struct XENCrypto.MintInfo)",
                        "value": {
                            "pairs": [
                                {
                                    "key": "0x9ede1d142fd19982aec5ba8f215be9cc229beee2",
                                    "value": {
                                        "fields": [
                                            {
                                                "name": "user",
                                                "type": "address",
                                                "value": {
                                                    "current": "0x0000000000000000000000000000000000000000",
                                                    "prev": "0x9ede1d142fd19982aec5ba8f215be9cc229beee2",
                                                    "typeTag": 1
                                                }
                                            },
                                            {
                                                "name": "term",
                                                "type": "uint256",
                                                "value": {
                                                    "current": "0",
                                                    "prev": "45",
                                                    "typeTag": 1
                                                }
                                            },
                                            {
                                                "name": "maturityTs",
                                                "type": "uint256",
                                                "value": {
                                                    "current": "0",
                                                    "prev": "1672555931",
                                                    "typeTag": 1
                                                }
                                            },
                                            {
                                                "name": "rank",
                                                "type": "uint256",
                                                "value": {
                                                    "current": "0",
                                                    "prev": "2720422",
                                                    "typeTag": 1
                                                }
                                            },
                                            {
                                                "name": "amplifier",
                                                "type": "uint256",
                                                "value": {
                                                    "current": "0",
                                                    "prev": "2961",
                                                    "typeTag": 1
                                                }
                                            },
                                            {
                                                "name": "eaaRate",
                                                "type": "uint256",
                                                "value": {
                                                    "current": "0",
                                                    "prev": "73",
                                                    "typeTag": 1
                                                }
                                            }
                                        ],
                                        "typeTag": 3
                                    }
                                }
                            ],
                            "typeTag": 4
                        }
                    },
                    {
                        "name": "_balances",
                        "type": "mapping(address => uint256)",
                        "value": {
                            "pairs": [
                                {
                                    "key": "0x69e1fa6bf46c46abd01be9ee26714e8c83953f79",
                                    "value": {
                                        "current": "642019651000000000000000000",
                                        "prev": "638864632000000000000000000",
                                        "typeTag": 1
                                    }
                                }
                            ],
                            "typeTag": 4
                        }
                    },
                    {
                        "name": "activeMinters",
                        "type": "uint256",
                        "value": {
                            "current": "4498122",
                            "prev": "4498123",
                            "typeTag": 1
                        }
                    },
                    {
                        "name": "_totalSupply",
                        "type": "uint256",
                        "value": {
                            "current": "2663186270748469852741552598780",
                            "prev": "2663183115729469852741552598780",
                            "typeTag": 1
                        }
                    }
                ]
            }
        ]
    }
}