{
    "balance_change": {
        "balanceChanges": [
            {
                "account": "0x202abc6cf98863ee0126c182ca325a33a867acba",
                "assets": [
                    {
                        "address": "0x32b87fb81674aa79214e51ae42d571136e29d385",
                        "amount": "39,217,454",
                        "iconUrl": "",
                        "isERC1155": false,
                        "isERC721": false,
                        "sign": false,
                        "value": ""
                    }
                ]
            },
            {
                "account": "0x22d88c8893d31080ff21d26cf76c0a9244c4fc4b",
                "assets": [
                    {
                        "address": "0x32b87fb81674aa79214e51ae42d571136e29d385",
                        "amount": "39,217,454",
                        "iconUrl": "",
                        "isERC1155": false,
                        "isERC721": false,
                        "sign": true,
                        "value": ""
                    }
                ]
            }
        ]
    },
    "profile": {
        "basic_info": {
            "baseFee": "",
            "blockNumber": 9062209,
            "callData": "0xa9059cbb00000000000000000000000022d88c8893d31080ff21d26cf76c0a9244c4fc4b00000000000000000000000000000000000000000020709e70f9878817f80000",
            "debugEnable": true,
            "errorInfo": "",
            "eventCount": 1,
            "feeRecipient": "0x5a0b54d5dc17e0aadc383d2db43b0a0d3e029c4c",
            "formatValue": "0",
            "gasLimit": 54466,
            "gasPrice": "3.1",
            "gasUsed": 36887,
            "intTxnCount": 0,
            "internalRevert": false,
            "internalRevertMessage": "",
            "isContractCreation": false,
            "isFlashloan": false,
            "maxFee": "",
            "nonce": 1274,
            "overwritedBlockNumber": -1,
            "priorityFee": "",
            "receiver": "0x32b87fb81674aa79214e51ae42d571136e29d385",
            "revertMessage": "",
            "sender": "0x202abc6cf98863ee0126c182ca325a33a867acba",
            "simulationEnable": true,
            "sourceTxnHash": "0xaef5e90b4949e754b836bb42fa3ef18cc26dba3f31302f68500010528cf06abb",
            "status": true,
            "timestamp": "2019-12-06T19:49:13Z",
            "transactionFee": "0.0001143497",
            "txnHash": "0xaef5e90b4949e754b836bb42fa3ef18cc26dba3f31302f68500010528cf06abb",
            "txnIndex": 30,
            "type": 0,
            "value": "0"
        },
        "fund_flow": [
            {
                "amount": "39,217,454",
                "from": "0x202abc6cf98863ee0126c182ca325a33a867acba",
                "id": 1,
                "isERC1155": false,
                "isERC721": false,
                "isReverted": false,
                "order": 1,
                "to": "0x22d88c8893d31080ff21d26cf76c0a9244c4fc4b",
                "token": "0x32b87fb81674aa79214e51ae42d571136e29d385"
            }
        ],
        "token_infos": [
            {
                "address": "0x32b87fb81674aa79214e51ae42d571136e29d385",
                "decimals": 18
            },
            {
                "address": "0xc02aaa39b223fe8d0a0e5c4f27ead9083c756cc2",
                "decimals": 18
            },
            {
                "address": "0xeeeeeeeeeeeeeeeeeeeeeeeeeeeeeeeeeeeeeeee",
                "decimals": 18
            }
        ]
    },
    "address_label": {
        "labels": [
            {
                "address": "0x0000000000000000000000000000000000000004",
                "label": "Precompiled"
            },
            {
                "address": "0xeeeeeeeeeeeeeeeeeeeeeeeeeeeeeeeeeeeeeeee",
                "label": "Ether"
            },
            {
                "address": "0x32b87fb81674aa79214e51ae42d571136e29d385",
                "label": "CyberFM: Old CYFM Token"
            },
            {
                "address": "0x202abc6cf98863ee0126c182ca325a33a867acba",
                "label": "CyberFM: Deployer"
            },
            {
                "address": "0x0000000000000000000000000000000000000001",
                "label": "Precompiled"
            },
            {
                "address": "0x0000000000000000000000000000000000000002",
                "label": "Precompiled"
            },
            {
                "address": "0x0000000000000000000000000000000000000003",
                "label": "Precompiled"
            }
        ]
    },
    "trace": {
        "accountLabels": null,
        "dataMap": {
            "-1": {
                "invocation": {
                    "address": "0x202abc6cf98863ee0126c182ca325a33a867acba",
                    "callData": "",
                    "decodedMethod": null,
                    "errorInfo": "",
                    "fromAddress": "",
                    "gasUsed": 0,
                    "id": -1,
                    "methodDecoded": false,
                    "operation": "",
                    "output": "",
                    "revert": false,
                    "revertMessage": "",
                    "selector": "",
                    "status": false,
                    "value": ""
                },
                "nodeType": 0
            },
            "0": {
                "invocation": {
                    "address": "0x32b87fb81674aa79214e51ae42d571136e29d385",
                    "callData": "0x00000000000000000000000022d88c8893d31080ff21d26cf76c0a9244c4fc4b00000000000000000000000000000000000000000020709e70f9878817f80000",
                    "decodedMethod": {
                        "callParams": [
                            {
                                "name": "to",
                                "type": "address",
                                "value": "0x22d88c8893d31080ff21d26cf76c0a9244c4fc4b"
                            },
                            {
                                "decimalAvailable": true,
                                "name": "value",
                                "type": "uint256",
                                "value": "39,217,454,000,000,000,000,000,000"
                            }
                        ],
                        "constructorArguments": "",
                        "name": "transfer",
                        "returnParams": [
                            {
                                "name": "",
                                "type": "bool",
                                "value": true
                            }
                        ],
                        "signature": "transfer(address,uint256)"
                    },
                    "errorInfo": "",
                    "fromAddress": "0x202abc6cf98863ee0126c182ca325a33a867acba",
                    "gasUsed": 36887,
                    "id": 0,
                    "methodDecoded": true,
                    "operation": "CALL",
                    "output": "0x0000000000000000000000000000000000000000000000000000000000000001",
                    "revert": false,
                    "revertMessage": "",
                    "selector": "0xa9059cbb",
                    "status": true,
                    "value": "0"
                },
                "nodeType": 0
            },
            "1": {
                "event": {
                    "contract": "0x32b87fb81674aa79214e51ae42d571136e29d385",
                    "decodedLog": {
                        "name": "Transfer",
                        "params": [
                            {
                                "name": "from",
                                "type": "address",
                                "value": "0x202abc6cf98863ee0126c182ca325a33a867acba"
                            },
                            {
                                "name": "to",
                                "type": "address",
                                "value": "0x22d88c8893d31080ff21d26cf76c0a9244c4fc4b"
                            },
                            {
                                "decimalAvailable": true,
                                "name": "value",
                                "type": "uint256",
                                "value": "39,217,454,000,000,000,000,000,000"
                            }
                        ],
                        "signature": "Transfer(address,address,uint256)"
                    },
                    "id": 1,
                    "logData": "0x00000000000000000000000000000000000000000020709e70f9878817f80000",
                    "logDecoded": true,
                    "operation": "EVENT",
                    "revert": false,
                    "status": true,
                    "topics": [
                        "0xddf252ad1be2c89b69c2b068fc378daa952ba7f163c4a11628f55a4df523b3ef",
                        "0x000000000000000000000000202abc6cf98863ee0126c182ca325a33a867acba",
                        "0x00000000000000000000000022d88c8893d31080ff21d26cf76c0a9244c4fc4b"
                    ]
                },
                "nodeType": 1
            }
        },
        "gasFlame": [
            {
                "children": [
                    {
                        "children": [
                            {
                                "children": [],
                                "depth": 0,
                                "name": "Initial Gas",
                                "value": 23384
                            },
                            {
                                "children": [],
                                "depth": 0,
                                "name": "Executed Gas",
                                "value": 13503
                            }
                        ],
                        "depth": -1,
                        "name": "Actual Gas Used",
                        "value": 36887
                    },
                    {
                        "children": [],
                        "depth": -1,
                        "name": "Refunded Gas",
                        "value": 0
                    }
                ],
                "depth": -2,
                "name": "Total Gas",
                "value": 36887
            }
        ],
        "isConfirmed": true,
        "mainTrace": [
            {
                "children": [
                    {
                        "children": [
                            {
                                "children": [],
                                "depth": 1,
                                "id": 1,
                                "order": 1
                            }
                        ],
                        "depth": 0,
                        "id": 0,
                        "order": 0
                    }
                ],
                "depth": -1,
                "id": -1,
                "order": -1
            }
        ],
        "mainTraceNodeCount": 2,
        "parentIdMap": {
            "0": -1,
            "1": 0
        },
        "tidyTrace": [
            {
                "children": [
                    {
                        "children": [
                            {
                                "children": [],
                                "depth": 1,
                                "id": 1,
                                "order": 1
                            }
                        ],
                        "depth": 0,
                        "id": 0,
                        "order": 0
                    }
                ],
                "depth": -1,
                "id": -1,
                "order": -1
            }
        ],
        "tidyTraceNodeCount": 2
    },
    "state_change": {
        "stateChanges": [
            {
                "address": "0x32b87fb81674aa79214e51ae42d571136e29d385",
                "erc": "ERC-20",
                "slots": [
                    {
                        "current": "0x000000000000000000000000000000000000000036cbb55b6a89b7d16ee60b53",
                        "key": "0xe0515f80ce94c88ff5017cff65d61d477b934cad807bf9b4c7efb4615a3f9fe8",
                        "prev": "0x000000000000000000000000000000000000000036ec25f9db833f5986de0b53"
                    },
                    {
                        "current": "0x00000000000000000000000000000000000000000020715155acab61dd080000",
                        "key": "0xf42c7dfb91c7e157cb2d25dc3dbcf9815d3a1aaab4f22419bb56bf0d1724e18b",
                        "prev": "0x0000000000000000000000000000000000000000000000b2e4b323d9c5100000"
                    }
                ],
                "storageVariables": [
                    {
                        "name": "_balances",
                        "type": "mapping(address => uint256)",
                        "value": {
                            "pairs": [
                                {
                                    "key": "0x202abc6cf98863ee0126c182ca325a33a867acba",
                                    "value": {
                                        "current": "16958458906398382696922745683",
                                        "prev": "16997676360398382696922745683",
                                        "typeTag": 1
                                    }
                                },
                                {
                                    "key": "0x22d88c8893d31080ff21d26cf76c0a9244c4fc4b",
                                    "value": {
                                        "current": "39220754000000000000000000",
                                        "prev": "3300000000000000000000",
                                        "typeTag": 1
                                    }
                                }
                            ],
                            "typeTag": 4
                        }
                    }
                ]
            }
        ]
    }
}