{
    "balance_change": {
        "balanceChanges": [
            {
                "account": "0x73a616c8e74a197d43176508402039411a4b0e2a",
                "assets": [
                    {
                        "address": "0xeeeeeeeeeeeeeeeeeeeeeeeeeeeeeeeeeeeeeeee",
                        "amount": "0.1501",
                        "iconUrl": "https://assets.blocksec.com/image/1663669189317-3.png",
                        "isERC1155": false,
                        "isERC721": false,
                        "sign": false,
                        "value": "468.40055900000002184"
                    }
                ]
            },
            {
                "account": "0x8b34b14c7c7123459cf3076b8cb929be097d0c07",
                "assets": [
                    {
                        "address": "0xeeeeeeeeeeeeeeeeeeeeeeeeeeeeeeeeeeeeeeee",
                        "amount": "0.1501",
                        "iconUrl": "https://assets.blocksec.com/image/1663669189317-3.png",
                        "isERC1155": false,
                        "isERC721": false,
                        "sign": true,
                        "value": "468.40055900000002184"
                    }
                ]
            }
        ]
    },
    "profile": {
        "basic_info": {
            "baseFee": "5.13261628",
            "blockNumber": 19743578,
            "callData": "0xb1a1a882000000000000000000000000000000000000000000000000000000000000000000000000000000000000000000000000000000000000000000000000000000400000000000000000000000000000000000000000000000000000000000000000",
            "debugEnable": true,
            "errorInfo": "",
            "eventCount": 5,
            "feeRecipient": "0x95222290dd7278aa3ddd389cc1e1d165cc4bafe5",
            "formatValue": "0.1501",
            "gasLimit": 280000,
            "gasPrice": "5.23261628",
            "gasUsed": 159940,
            "intTxnCount": 9,
            "internalRevert": false,
            "internalRevertMessage": "",
            "isContractCreation": false,
            "isFlashloan": false,
            "maxFee": "7",
            "nonce": 66,
            "overwritedBlockNumber": -1,
            "priorityFee": "0.1",
            "receiver": "0x735adbbe72226bd52e818e7181953f42e3b0ff21",
            "revertMessage": "",
            "sender": "0x73a616c8e74a197d43176508402039411a4b0e2a",
            "simulationEnable": true,
            "sourceTxnHash": "0xae602763139bc097af1022a4b7e382a5d95d639077bd43fe4819fc5ff67c4d26",
            "status": true,
            "timestamp": "2024-04-27T02:04:47Z",
            "transactionFee": "0.0008369046478232",
            "txnHash": "0xae602763139bc097af1022a4b7e382a5d95d639077bd43fe4819fc5ff67c4d26",
            "txnIndex": 89,
            "type": 2,
            "value": "150100000000000000"
        },
        "fund_flow": [
            {
                "amount": "0.1501",
                "from": "0x73a616c8e74a197d43176508402039411a4b0e2a",
                "id": 1,
                "isERC1155": false,
                "isERC721": false,
                "isReverted": false,
                "order": 1,
                "to": "0x735adbbe72226bd52e818e7181953f42e3b0ff21",
                "token": "0xeeeeeeeeeeeeeeeeeeeeeeeeeeeeeeeeeeeeeeee"
            },
            {
                "amount": "0.1501",
                "from": "0x735adbbe72226bd52e818e7181953f42e3b0ff21",
                "id": 2,
                "isERC1155": false,
                "isERC721": false,
                "isReverted": false,
                "order": 2,
                "to": "0x95bdca6c8edeb69c98bd5bd17660bacef1298a6f",
                "token": "0xeeeeeeeeeeeeeeeeeeeeeeeeeeeeeeeeeeeeeeee"
            },
            {
                "amount": "0.1501",
                "from": "0x95bdca6c8edeb69c98bd5bd17660bacef1298a6f",
                "id": 3,
                "isERC1155": false,
                "isERC721": false,
                "isReverted": false,
                "order": 3,
                "to": "0x8b34b14c7c7123459cf3076b8cb929be097d0c07",
                "token": "0xeeeeeeeeeeeeeeeeeeeeeeeeeeeeeeeeeeeeeeee"
            }
        ],
        "token_infos": [
            {
                "address": "0xeeeeeeeeeeeeeeeeeeeeeeeeeeeeeeeeeeeeeeee",
                "decimals": 18
            },
            {
                "address": "0xc02aaa39b223fe8d0a0e5c4f27ead9083c756cc2",
                "decimals": 18
            }
        ]
    },
    "address_label": {
        "labels": [
            {
                "address": "0x50ef494573f28cad6b64c31b7a00cdaa48306e15",
                "label": "Mode: Address Manager"
            },
            {
                "address": "0x64b5a5ed26dcb17370ff4d33a8d503f0fbd06cff",
                "label": "L1StandardBridge"
            },
            {
                "address": "0x5e6432f18bc5d497b1ab2288a025fbf9d69e2221",
                "label": "Mode: System Config Proxy"
            },
            {
                "address": "0x735adbbe72226bd52e818e7181953f42e3b0ff21",
                "label": "Mode: Standard Bridge Proxy"
            },
            {
                "address": "0x2d778797049fe9259d947d1ed8e5442226dfb589",
                "label": "OptimismPortal"
            },
            {
                "address": "0x0000000000000000000000000000000000000001",
                "label": "Precompiled"
            },
            {
                "address": "0x0000000000000000000000000000000000000002",
                "label": "Precompiled"
            },
            {
                "address": "0x0000000000000000000000000000000000000004",
                "label": "Precompiled"
            },
            {
                "address": "0x8b34b14c7c7123459cf3076b8cb929be097d0c07",
                "label": "Mode: Optimism Portal Proxy"
            },
            {
                "address": "0x0000000000000000000000000000000000000003",
                "label": "Precompiled"
            },
            {
                "address": "0xba2492e52f45651b60b8b38d4ea5e2390c64ffb1",
                "label": "SystemConfig"
            },
            {
                "address": "0x470d87b1dae09a454a43d1fd772a561a03276ab7",
                "label": "Mode: Proxy Admin"
            },
            {
                "address": "0x95bdca6c8edeb69c98bd5bd17660bacef1298a6f",
                "label": "Mode: L1 Cross Domain Messenger Proxy"
            },
            {
                "address": "0xd3494713a5cfad3f5359379dfa074e2ac8c6fd65",
                "label": "L1CrossDomainMessenger"
            },
            {
                "address": "0xeeeeeeeeeeeeeeeeeeeeeeeeeeeeeeeeeeeeeeee",
                "label": "Ether"
            }
        ]
    },
    "trace": {
        "accountLabels": null,
        "dataMap": {
            "-1": {
                "invocation": {
                    "address": "0x73a616c8e74a197d43176508402039411a4b0e2a",
                    "callData": "",
                    "decodedMethod": null,
                    "errorInfo": "",
                    "fromAddress": "",
                    "gasUsed": 0,
                    "id": -1,
                    "methodDecoded": false,
                    "operation": "",
                    "output": "",
                    "revert": false,
                    "revertMessage": "",
                    "selector": "",
                    "status": false,
                    "value": ""
                },
                "nodeType": 0
            },
            "0": {
                "invocation": {
                    "address": "0x735adbbe72226bd52e818e7181953f42e3b0ff21",
                    "callData": "0x000000000000000000000000000000000000000000000000000000000000000000000000000000000000000000000000000000000000000000000000000000400000000000000000000000000000000000000000000000000000000000000000",
                    "decodedMethod": {
                        "callParams": [
                            {
                                "name": "_minGasLimit",
                                "type": "uint32",
                                "value": "0"
                            },
                            {
                                "name": "_extraData",
                                "type": "bytes",
                                "value": "0x"
                            }
                        ],
                        "constructorArguments": "",
                        "name": "depositETH",
                        "returnParams": [],
                        "signature": "depositETH(uint32,bytes)"
                    },
                    "errorInfo": "",
                    "fromAddress": "0x73a616c8e74a197d43176508402039411a4b0e2a",
                    "gasUsed": 159940,
                    "id": 0,
                    "methodDecoded": true,
                    "operation": "CALL",
                    "output": "",
                    "revert": false,
                    "revertMessage": "",
                    "selector": "0xb1a1a882",
                    "status": true,
                    "value": "0.1501"
                },
                "nodeType": 0
            },
            "1": {
                "invocation": {
                    "address": "0x470d87b1dae09a454a43d1fd772a561a03276ab7",
                    "callData": "0x",
                    "decodedMethod": {
                        "callParams": [],
                        "constructorArguments": "",
                        "name": "isUpgrading",
                        "returnParams": [
                            {
                                "name": "",
                                "type": "bool",
                                "value": false
                            }
                        ],
                        "signature": "isUpgrading()"
                    },
                    "errorInfo": "",
                    "fromAddress": "0x735adbbe72226bd52e818e7181953f42e3b0ff21",
                    "gasUsed": 2347,
                    "id": 1,
                    "methodDecoded": true,
                    "operation": "STATICCALL",
                    "output": "0x0000000000000000000000000000000000000000000000000000000000000000",
                    "revert": false,
                    "revertMessage": "",
                    "selector": "0xb7947262",
                    "status": true,
                    "value": "0"
                },
                "nodeType": 0
            },
            "10": {
                "event": {
                    "contract": "0x8b34b14c7c7123459cf3076b8cb929be097d0c07",
                    "decodedLog": {
                        "name": "TransactionDeposited",
                        "params": [
                            {
                                "name": "from",
                                "type": "address",
                                "value": "0xa6ceca6c8edeb69c98bd5bd17660bacef1299b80"
                            },
                            {
                                "name": "to",
                                "type": "address",
                                "value": "0x4200000000000000000000000000000000000007"
                            },
                            {
                                "name": "version",
                                "type": "uint256",
                                "value": "0"
                            },
                            {
                                "name": "opaqueData",
                                "type": "bytes",
                                "value": "0x000000000000000000000000000000000000000000000000021543279cc94000000000000000000000000000000000000000000000000000021543279cc94000000000000004638800d764ad0b000100000000000000000000000000000000000000000000000000000002df17000000000000000000000000735adbbe72226bd52e818e7181953f42e3b0ff210000000000000000000000004200000000000000000000000000000000000010000000000000000000000000000000000000000000000000021543279cc94000000000000000000000000000000000000000000000000000000000000000000000000000000000000000000000000000000000000000000000000000000000c000000000000000000000000000000000000000000000000000000000000000a41635f5fd00000000000000000000000073a616c8e74a197d43176508402039411a4b0e2a00000000000000000000000073a616c8e74a197d43176508402039411a4b0e2a000000000000000000000000000000000000000000000000021543279cc940000000000000000000000000000000000000000000000000000000000000000080000000000000000000000000000000000000000000000000000000000000000000000000000000000000000000000000000000000000000000000000"
                            }
                        ],
                        "signature": "TransactionDeposited(address,address,uint256,bytes)"
                    },
                    "id": 10,
                    "logData": "0x000000000000000000000000000000000000000000000000000000000000002000000000000000000000000000000000000000000000000000000000000001ed000000000000000000000000000000000000000000000000021543279cc94000000000000000000000000000000000000000000000000000021543279cc94000000000000004638800d764ad0b000100000000000000000000000000000000000000000000000000000002df17000000000000000000000000735adbbe72226bd52e818e7181953f42e3b0ff210000000000000000000000004200000000000000000000000000000000000010000000000000000000000000000000000000000000000000021543279cc94000000000000000000000000000000000000000000000000000000000000000000000000000000000000000000000000000000000000000000000000000000000c000000000000000000000000000000000000000000000000000000000000000a41635f5fd00000000000000000000000073a616c8e74a197d43176508402039411a4b0e2a00000000000000000000000073a616c8e74a197d43176508402039411a4b0e2a000000000000000000000000000000000000000000000000021543279cc94000000000000000000000000000000000000000000000000000000000000000008000000000000000000000000000000000000000000000000000000000000000000000000000000000000000000000000000000000000000000000000000000000000000000000000000000000000000",
                    "logDecoded": true,
                    "operation": "EVENT",
                    "revert": false,
                    "status": true,
                    "topics": [
                        "0xb3813568d9991fc951961fcb4c784893574240a28925604d09fc577c55bb7c32",
                        "0x000000000000000000000000a6ceca6c8edeb69c98bd5bd17660bacef1299b80",
                        "0x0000000000000000000000004200000000000000000000000000000000000007",
                        "0x0000000000000000000000000000000000000000000000000000000000000000"
                    ]
                },
                "nodeType": 1
            },
            "11": {
                "invocation": {
                    "address": "0x5e6432f18bc5d497b1ab2288a025fbf9d69e2221",
                    "callData": "0x",
                    "decodedMethod": {
                        "callParams": [],
                        "constructorArguments": "",
                        "name": "resourceConfig",
                        "returnParams": [
                            {
                                "name": "",
                                "type": "(uint32,uint8,uint8,uint32,uint32,uint128)",
                                "value": [
                                    {
                                        "name": "maxResourceLimit",
                                        "type": "uint32",
                                        "value": "20,000,000"
                                    },
                                    {
                                        "name": "elasticityMultiplier",
                                        "type": "uint8",
                                        "value": "10"
                                    },
                                    {
                                        "name": "baseFeeMaxChangeDenominator",
                                        "type": "uint8",
                                        "value": "8"
                                    },
                                    {
                                        "name": "minimumBaseFee",
                                        "type": "uint32",
                                        "value": "1,000,000,000"
                                    },
                                    {
                                        "name": "systemTxMaxGas",
                                        "type": "uint32",
                                        "value": "1,000,000"
                                    },
                                    {
                                        "name": "maximumBaseFee",
                                        "type": "uint128",
                                        "value": "340,282,366,920,938,463,463,374,607,431,768,211,455"
                                    }
                                ]
                            }
                        ],
                        "signature": "resourceConfig()"
                    },
                    "errorInfo": "",
                    "fromAddress": "0x8b34b14c7c7123459cf3076b8cb929be097d0c07",
                    "gasUsed": 7991,
                    "id": 11,
                    "methodDecoded": true,
                    "operation": "STATICCALL",
                    "output": "0x0000000000000000000000000000000000000000000000000000000001312d00000000000000000000000000000000000000000000000000000000000000000a0000000000000000000000000000000000000000000000000000000000000008000000000000000000000000000000000000000000000000000000003b9aca0000000000000000000000000000000000000000000000000000000000000f424000000000000000000000000000000000ffffffffffffffffffffffffffffffff",
                    "revert": false,
                    "revertMessage": "",
                    "selector": "0xcc731b02",
                    "status": true,
                    "value": "0"
                },
                "nodeType": 0
            },
            "12": {
                "invocation": {
                    "address": "0xba2492e52f45651b60b8b38d4ea5e2390c64ffb1",
                    "callData": "0x",
                    "decodedMethod": {
                        "callParams": [],
                        "constructorArguments": "",
                        "name": "resourceConfig",
                        "returnParams": [
                            {
                                "name": "",
                                "type": "(uint32,uint8,uint8,uint32,uint32,uint128)",
                                "value": [
                                    {
                                        "name": "maxResourceLimit",
                                        "type": "uint32",
                                        "value": "20,000,000"
                                    },
                                    {
                                        "name": "elasticityMultiplier",
                                        "type": "uint8",
                                        "value": "10"
                                    },
                                    {
                                        "name": "baseFeeMaxChangeDenominator",
                                        "type": "uint8",
                                        "value": "8"
                                    },
                                    {
                                        "name": "minimumBaseFee",
                                        "type": "uint32",
                                        "value": "1,000,000,000"
                                    },
                                    {
                                        "name": "systemTxMaxGas",
                                        "type": "uint32",
                                        "value": "1,000,000"
                                    },
                                    {
                                        "name": "maximumBaseFee",
                                        "type": "uint128",
                                        "value": "340,282,366,920,938,463,463,374,607,431,768,211,455"
                                    }
                                ]
                            }
                        ],
                        "signature": "resourceConfig()"
                    },
                    "errorInfo": "",
                    "fromAddress": "0x5e6432f18bc5d497b1ab2288a025fbf9d69e2221",
                    "gasUsed": 2984,
                    "id": 12,
                    "methodDecoded": true,
                    "operation": "DELEGATECALL",
                    "output": "0x0000000000000000000000000000000000000000000000000000000001312d00000000000000000000000000000000000000000000000000000000000000000a0000000000000000000000000000000000000000000000000000000000000008000000000000000000000000000000000000000000000000000000003b9aca0000000000000000000000000000000000000000000000000000000000000f424000000000000000000000000000000000ffffffffffffffffffffffffffffffff",
                    "revert": false,
                    "revertMessage": "",
                    "selector": "0xcc731b02",
                    "status": true,
                    "value": "0"
                },
                "nodeType": 0
            },
            "13": {
                "event": {
                    "contract": "0x95bdca6c8edeb69c98bd5bd17660bacef1298a6f",
                    "decodedLog": {
                        "name": "SentMessage",
                        "params": [
                            {
                                "name": "target",
                                "type": "address",
                                "value": "0x4200000000000000000000000000000000000010"
                            },
                            {
                                "name": "sender",
                                "type": "address",
                                "value": "0x735adbbe72226bd52e818e7181953f42e3b0ff21"
                            },
                            {
                                "name": "message",
                                "type": "bytes",
                                "value": "0x1635f5fd00000000000000000000000073a616c8e74a197d43176508402039411a4b0e2a00000000000000000000000073a616c8e74a197d43176508402039411a4b0e2a000000000000000000000000000000000000000000000000021543279cc9400000000000000000000000000000000000000000000000000000000000000000800000000000000000000000000000000000000000000000000000000000000000"
                            },
                            {
                                "name": "messageNonce",
                                "type": "uint256",
                                "value": "1,766,847,064,778,384,329,583,297,500,742,918,515,827,483,896,875,618,958,121,606,201,292,807,959"
                            },
                            {
                                "name": "gasLimit",
                                "type": "uint256",
                                "value": "0"
                            }
                        ],
                        "signature": "SentMessage(address,address,bytes,uint256,uint256)"
                    },
                    "id": 13,
                    "logData": "0x000000000000000000000000735adbbe72226bd52e818e7181953f42e3b0ff210000000000000000000000000000000000000000000000000000000000000080000100000000000000000000000000000000000000000000000000000002df17000000000000000000000000000000000000000000000000000000000000000000000000000000000000000000000000000000000000000000000000000000a41635f5fd00000000000000000000000073a616c8e74a197d43176508402039411a4b0e2a00000000000000000000000073a616c8e74a197d43176508402039411a4b0e2a000000000000000000000000000000000000000000000000021543279cc940000000000000000000000000000000000000000000000000000000000000000080000000000000000000000000000000000000000000000000000000000000000000000000000000000000000000000000000000000000000000000000",
                    "logDecoded": true,
                    "operation": "EVENT",
                    "revert": false,
                    "status": true,
                    "topics": [
                        "0xcb0f7ffd78f9aee47a248fae8db181db6eee833039123e026dcbff529522e52a",
                        "0x0000000000000000000000004200000000000000000000000000000000000010"
                    ]
                },
                "nodeType": 1
            },
            "14": {
                "event": {
                    "contract": "0x95bdca6c8edeb69c98bd5bd17660bacef1298a6f",
                    "decodedLog": {
                        "name": "SentMessageExtension1",
                        "params": [
                            {
                                "name": "sender",
                                "type": "address",
                                "value": "0x735adbbe72226bd52e818e7181953f42e3b0ff21"
                            },
                            {
                                "name": "value",
                                "type": "uint256",
                                "value": "150,100,000,000,000,000"
                            }
                        ],
                        "signature": "SentMessageExtension1(address,uint256)"
                    },
                    "id": 14,
                    "logData": "0x000000000000000000000000000000000000000000000000021543279cc94000",
                    "logDecoded": true,
                    "operation": "EVENT",
                    "revert": false,
                    "status": true,
                    "topics": [
                        "0x8ebb2ec2465bdb2a06a66fc37a0963af8a2a6a1479d81d56fdb8cbb98096d546",
                        "0x000000000000000000000000735adbbe72226bd52e818e7181953f42e3b0ff21"
                    ]
                },
                "nodeType": 1
            },
            "2": {
                "invocation": {
                    "address": "0x64b5a5ed26dcb17370ff4d33a8d503f0fbd06cff",
                    "callData": "0x000000000000000000000000000000000000000000000000000000000000000000000000000000000000000000000000000000000000000000000000000000400000000000000000000000000000000000000000000000000000000000000000",
                    "decodedMethod": {
                        "callParams": [
                            {
                                "name": "_minGasLimit",
                                "type": "uint32",
                                "value": "0"
                            },
                            {
                                "name": "_extraData",
                                "type": "bytes",
                                "value": "0x"
                            }
                        ],
                        "constructorArguments": "",
                        "name": "depositETH",
                        "returnParams": [],
                        "signature": "depositETH(uint32,bytes)"
                    },
                    "errorInfo": "",
                    "fromAddress": "0x735adbbe72226bd52e818e7181953f42e3b0ff21",
                    "gasUsed": 125711,
                    "id": 2,
                    "methodDecoded": true,
                    "operation": "DELEGATECALL",
                    "output": "",
                    "revert": false,
                    "revertMessage": "",
                    "selector": "0xb1a1a882",
                    "status": true,
                    "value": "0.1501"
                },
                "nodeType": 0
            },
            "3": {
                "event": {
                    "contract": "0x735adbbe72226bd52e818e7181953f42e3b0ff21",
                    "decodedLog": {
                        "name": "ETHDepositInitiated",
                        "params": [
                            {
                                "name": "from",
                                "type": "address",
                                "value": "0x73a616c8e74a197d43176508402039411a4b0e2a"
                            },
                            {
                                "name": "to",
                                "type": "address",
                                "value": "0x73a616c8e74a197d43176508402039411a4b0e2a"
                            },
                            {
                                "name": "amount",
                                "type": "uint256",
                                "value": "150,100,000,000,000,000"
                            },
                            {
                                "name": "extraData",
                                "type": "bytes",
                                "value": "0x"
                            }
                        ],
                        "signature": "ETHDepositInitiated(address,address,uint256,bytes)"
                    },
                    "id": 3,
                    "logData": "0x000000000000000000000000000000000000000000000000021543279cc9400000000000000000000000000000000000000000000000000000000000000000400000000000000000000000000000000000000000000000000000000000000000",
                    "logDecoded": true,
                    "operation": "EVENT",
                    "revert": false,
                    "status": true,
                    "topics": [
                        "0x35d79ab81f2b2017e19afb5c5571778877782d7a8786f5907f93b0f4702f4f23",
                        "0x00000000000000000000000073a616c8e74a197d43176508402039411a4b0e2a",
                        "0x00000000000000000000000073a616c8e74a197d43176508402039411a4b0e2a"
                    ]
                },
                "nodeType": 1
            },
            "4": {
                "event": {
                    "contract": "0x735adbbe72226bd52e818e7181953f42e3b0ff21",
                    "decodedLog": {
                        "name": "ETHBridgeInitiated",
                        "params": [
                            {
                                "name": "from",
                                "type": "address",
                                "value": "0x73a616c8e74a197d43176508402039411a4b0e2a"
                            },
                            {
                                "name": "to",
                                "type": "address",
                                "value": "0x73a616c8e74a197d43176508402039411a4b0e2a"
                            },
                            {
                                "name": "amount",
                                "type": "uint256",
                                "value": "150,100,000,000,000,000"
                            },
                            {
                                "name": "extraData",
                                "type": "bytes",
                                "value": "0x"
                            }
                        ],
                        "signature": "ETHBridgeInitiated(address,address,uint256,bytes)"
                    },
                    "id": 4,
                    "logData": "0x000000000000000000000000000000000000000000000000021543279cc9400000000000000000000000000000000000000000000000000000000000000000400000000000000000000000000000000000000000000000000000000000000000",
                    "logDecoded": true,
                    "operation": "EVENT",
                    "revert": false,
                    "status": true,
                    "topics": [
                        "0x2849b43074093a05396b6f2a937dee8565b15a48a7b3d4bffb732a5017380af5",
                        "0x00000000000000000000000073a616c8e74a197d43176508402039411a4b0e2a",
                        "0x00000000000000000000000073a616c8e74a197d43176508402039411a4b0e2a"
                    ]
                },
                "nodeType": 1
            },
            "5": {
                "invocation": {
                    "address": "0x95bdca6c8edeb69c98bd5bd17660bacef1298a6f",
                    "callData": "0x00000000000000000000000042000000000000000000000000000000000000100000000000000000000000000000000000000000000000000000000000000060000000000000000000000000000000000000000000000000000000000000000000000000000000000000000000000000000000000000000000000000000000a41635f5fd00000000000000000000000073a616c8e74a197d43176508402039411a4b0e2a00000000000000000000000073a616c8e74a197d43176508402039411a4b0e2a000000000000000000000000000000000000000000000000021543279cc940000000000000000000000000000000000000000000000000000000000000000080000000000000000000000000000000000000000000000000000000000000000000000000000000000000000000000000000000000000000000000000",
                    "decodedMethod": {
                        "callParams": [
                            {
                                "name": "_target",
                                "type": "address",
                                "value": "0x4200000000000000000000000000000000000010"
                            },
                            {
                                "name": "_message",
                                "type": "bytes",
                                "value": "0x1635f5fd00000000000000000000000073a616c8e74a197d43176508402039411a4b0e2a00000000000000000000000073a616c8e74a197d43176508402039411a4b0e2a000000000000000000000000000000000000000000000000021543279cc9400000000000000000000000000000000000000000000000000000000000000000800000000000000000000000000000000000000000000000000000000000000000"
                            },
                            {
                                "name": "_minGasLimit",
                                "type": "uint32",
                                "value": "0"
                            }
                        ],
                        "constructorArguments": "",
                        "name": "sendMessage",
                        "returnParams": [],
                        "signature": "sendMessage(address,bytes,uint32)"
                    },
                    "errorInfo": "",
                    "fromAddress": "0x735adbbe72226bd52e818e7181953f42e3b0ff21",
                    "gasUsed": 104517,
                    "id": 5,
                    "methodDecoded": true,
                    "operation": "CALL",
                    "output": "",
                    "revert": false,
                    "revertMessage": "",
                    "selector": "0x3dbb202b",
                    "status": true,
                    "value": "0.1501"
                },
                "nodeType": 0
            },
            "6": {
                "invocation": {
                    "address": "0x50ef494573f28cad6b64c31b7a00cdaa48306e15",
                    "callData": "0x0000000000000000000000000000000000000000000000000000000000000020000000000000000000000000000000000000000000000000000000000000001a4f564d5f4c3143726f7373446f6d61696e4d657373656e676572000000000000",
                    "decodedMethod": {
                        "callParams": [
                            {
                                "name": "_name",
                                "type": "string",
                                "value": "OVM_L1CrossDomainMessenger"
                            }
                        ],
                        "constructorArguments": "",
                        "name": "getAddress",
                        "returnParams": [
                            {
                                "name": "",
                                "type": "address",
                                "value": "0xd3494713a5cfad3f5359379dfa074e2ac8c6fd65"
                            }
                        ],
                        "signature": "getAddress(string)"
                    },
                    "errorInfo": "",
                    "fromAddress": "0x95bdca6c8edeb69c98bd5bd17660bacef1298a6f",
                    "gasUsed": 3213,
                    "id": 6,
                    "methodDecoded": true,
                    "operation": "STATICCALL",
                    "output": "0x000000000000000000000000d3494713a5cfad3f5359379dfa074e2ac8c6fd65",
                    "revert": false,
                    "revertMessage": "",
                    "selector": "0xbf40fac1",
                    "status": true,
                    "value": "0"
                },
                "nodeType": 0
            },
            "7": {
                "invocation": {
                    "address": "0xd3494713a5cfad3f5359379dfa074e2ac8c6fd65",
                    "callData": "0x00000000000000000000000042000000000000000000000000000000000000100000000000000000000000000000000000000000000000000000000000000060000000000000000000000000000000000000000000000000000000000000000000000000000000000000000000000000000000000000000000000000000000a41635f5fd00000000000000000000000073a616c8e74a197d43176508402039411a4b0e2a00000000000000000000000073a616c8e74a197d43176508402039411a4b0e2a000000000000000000000000000000000000000000000000021543279cc940000000000000000000000000000000000000000000000000000000000000000080000000000000000000000000000000000000000000000000000000000000000000000000000000000000000000000000000000000000000000000000",
                    "decodedMethod": {
                        "callParams": [
                            {
                                "name": "_target",
                                "type": "address",
                                "value": "0x4200000000000000000000000000000000000010"
                            },
                            {
                                "name": "_message",
                                "type": "bytes",
                                "value": "0x1635f5fd00000000000000000000000073a616c8e74a197d43176508402039411a4b0e2a00000000000000000000000073a616c8e74a197d43176508402039411a4b0e2a000000000000000000000000000000000000000000000000021543279cc9400000000000000000000000000000000000000000000000000000000000000000800000000000000000000000000000000000000000000000000000000000000000"
                            },
                            {
                                "name": "_minGasLimit",
                                "type": "uint32",
                                "value": "0"
                            }
                        ],
                        "constructorArguments": "",
                        "name": "sendMessage",
                        "returnParams": [],
                        "signature": "sendMessage(address,bytes,uint32)"
                    },
                    "errorInfo": "",
                    "fromAddress": "0x95bdca6c8edeb69c98bd5bd17660bacef1298a6f",
                    "gasUsed": 90889,
                    "id": 7,
                    "methodDecoded": true,
                    "operation": "DELEGATECALL",
                    "output": "",
                    "revert": false,
                    "revertMessage": "",
                    "selector": "0x3dbb202b",
                    "status": true,
                    "value": "0.1501"
                },
                "nodeType": 0
            },
            "8": {
                "invocation": {
                    "address": "0x8b34b14c7c7123459cf3076b8cb929be097d0c07",
                    "callData": "0x0000000000000000000000004200000000000000000000000000000000000007000000000000000000000000000000000000000000000000021543279cc940000000000000000000000000000000000000000000000000000000000000046388000000000000000000000000000000000000000000000000000000000000000000000000000000000000000000000000000000000000000000000000000000a000000000000000000000000000000000000000000000000000000000000001a4d764ad0b000100000000000000000000000000000000000000000000000000000002df17000000000000000000000000735adbbe72226bd52e818e7181953f42e3b0ff210000000000000000000000004200000000000000000000000000000000000010000000000000000000000000000000000000000000000000021543279cc94000000000000000000000000000000000000000000000000000000000000000000000000000000000000000000000000000000000000000000000000000000000c000000000000000000000000000000000000000000000000000000000000000a41635f5fd00000000000000000000000073a616c8e74a197d43176508402039411a4b0e2a00000000000000000000000073a616c8e74a197d43176508402039411a4b0e2a000000000000000000000000000000000000000000000000021543279cc94000000000000000000000000000000000000000000000000000000000000000008000000000000000000000000000000000000000000000000000000000000000000000000000000000000000000000000000000000000000000000000000000000000000000000000000000000000000000000000000000000",
                    "decodedMethod": {
                        "callParams": [
                            {
                                "name": "_to",
                                "type": "address",
                                "value": "0x4200000000000000000000000000000000000007"
                            },
                            {
                                "name": "_value",
                                "type": "uint256",
                                "value": "150,100,000,000,000,000"
                            },
                            {
                                "name": "_gasLimit",
                                "type": "uint64",
                                "value": "287,624"
                            },
                            {
                                "name": "_isCreation",
                                "type": "bool",
                                "value": false
                            },
                            {
                                "name": "_data",
                                "type": "bytes",
                                "value": "0xd764ad0b000100000000000000000000000000000000000000000000000000000002df17000000000000000000000000735adbbe72226bd52e818e7181953f42e3b0ff210000000000000000000000004200000000000000000000000000000000000010000000000000000000000000000000000000000000000000021543279cc94000000000000000000000000000000000000000000000000000000000000000000000000000000000000000000000000000000000000000000000000000000000c000000000000000000000000000000000000000000000000000000000000000a41635f5fd00000000000000000000000073a616c8e74a197d43176508402039411a4b0e2a00000000000000000000000073a616c8e74a197d43176508402039411a4b0e2a000000000000000000000000000000000000000000000000021543279cc940000000000000000000000000000000000000000000000000000000000000000080000000000000000000000000000000000000000000000000000000000000000000000000000000000000000000000000000000000000000000000000"
                            }
                        ],
                        "constructorArguments": "",
                        "name": "depositTransaction",
                        "returnParams": [],
                        "signature": "depositTransaction(address,uint256,uint64,bool,bytes)"
                    },
                    "errorInfo": "",
                    "fromAddress": "0x95bdca6c8edeb69c98bd5bd17660bacef1298a6f",
                    "gasUsed": 62524,
                    "id": 8,
                    "methodDecoded": true,
                    "operation": "CALL",
                    "output": "",
                    "revert": false,
                    "revertMessage": "",
                    "selector": "0xe9e05c42",
                    "status": true,
                    "value": "0.1501"
                },
                "nodeType": 0
            },
            "9": {
                "invocation": {
                    "address": "0x2d778797049fe9259d947d1ed8e5442226dfb589",
                    "callData": "0x0000000000000000000000004200000000000000000000000000000000000007000000000000000000000000000000000000000000000000021543279cc940000000000000000000000000000000000000000000000000000000000000046388000000000000000000000000000000000000000000000000000000000000000000000000000000000000000000000000000000000000000000000000000000a000000000000000000000000000000000000000000000000000000000000001a4d764ad0b000100000000000000000000000000000000000000000000000000000002df17000000000000000000000000735adbbe72226bd52e818e7181953f42e3b0ff210000000000000000000000004200000000000000000000000000000000000010000000000000000000000000000000000000000000000000021543279cc94000000000000000000000000000000000000000000000000000000000000000000000000000000000000000000000000000000000000000000000000000000000c000000000000000000000000000000000000000000000000000000000000000a41635f5fd00000000000000000000000073a616c8e74a197d43176508402039411a4b0e2a00000000000000000000000073a616c8e74a197d43176508402039411a4b0e2a000000000000000000000000000000000000000000000000021543279cc94000000000000000000000000000000000000000000000000000000000000000008000000000000000000000000000000000000000000000000000000000000000000000000000000000000000000000000000000000000000000000000000000000000000000000000000000000000000000000000000000000",
                    "decodedMethod": {
                        "callParams": [
                            {
                                "name": "_to",
                                "type": "address",
                                "value": "0x4200000000000000000000000000000000000007"
                            },
                            {
                                "name": "_value",
                                "type": "uint256",
                                "value": "150,100,000,000,000,000"
                            },
                            {
                                "name": "_gasLimit",
                                "type": "uint64",
                                "value": "287,624"
                            },
                            {
                                "name": "_isCreation",
                                "type": "bool",
                                "value": false
                            },
                            {
                                "name": "_data",
                                "type": "bytes",
                                "value": "0xd764ad0b000100000000000000000000000000000000000000000000000000000002df17000000000000000000000000735adbbe72226bd52e818e7181953f42e3b0ff210000000000000000000000004200000000000000000000000000000000000010000000000000000000000000000000000000000000000000021543279cc94000000000000000000000000000000000000000000000000000000000000000000000000000000000000000000000000000000000000000000000000000000000c000000000000000000000000000000000000000000000000000000000000000a41635f5fd00000000000000000000000073a616c8e74a197d43176508402039411a4b0e2a00000000000000000000000073a616c8e74a197d43176508402039411a4b0e2a000000000000000000000000000000000000000000000000021543279cc940000000000000000000000000000000000000000000000000000000000000000080000000000000000000000000000000000000000000000000000000000000000000000000000000000000000000000000000000000000000000000000"
                            }
                        ],
                        "constructorArguments": "",
                        "name": "depositTransaction",
                        "returnParams": [],
                        "signature": "depositTransaction(address,uint256,uint64,bool,bytes)"
                    },
                    "errorInfo": "",
                    "fromAddress": "0x8b34b14c7c7123459cf3076b8cb929be097d0c07",
                    "gasUsed": 57430,
                    "id": 9,
                    "methodDecoded": true,
                    "operation": "DELEGATECALL",
                    "output": "",
                    "revert": false,
                    "revertMessage": "",
                    "selector": "0xe9e05c42",
                    "status": true,
                    "value": "0.1501"
                },
                "nodeType": 0
            }
        },
        "gasFlame": [
            {
                "children": [
                    {
                        "children": [
                            {
                                "children": [],
                                "depth": 0,
                                "name": "Initial Gas",
                                "value": 21460
                            },
                            {
                                "children": [
                                    {
                                        "children": [],
                                        "depth": 1,
                                        "name": "isUpgrading",
                                        "value": 2347
                                    },
                                    {
                                        "children": [
                                            {
                                                "children": [
                                                    {
                                                        "children": [],
                                                        "depth": 3,
                                                        "name": "getAddress",
                                                        "value": 3213
                                                    },
                                                    {
                                                        "children": [
                                                            {
                                                                "children": [
                                                                    {
                                                                        "children": [
                                                                            {
                                                                                "children": [
                                                                                    {
                                                                                        "children": [],
                                                                                        "depth": 7,
                                                                                        "name": "resourceConfig",
                                                                                        "value": 2984
                                                                                    }
                                                                                ],
                                                                                "depth": 6,
                                                                                "name": "resourceConfig",
                                                                                "value": 7991
                                                                            }
                                                                        ],
                                                                        "depth": 5,
                                                                        "name": "depositTransaction",
                                                                        "value": 57430
                                                                    }
                                                                ],
                                                                "depth": 4,
                                                                "name": "depositTransaction",
                                                                "value": 62524
                                                            }
                                                        ],
                                                        "depth": 3,
                                                        "name": "sendMessage",
                                                        "value": 90889
                                                    }
                                                ],
                                                "depth": 2,
                                                "name": "sendMessage",
                                                "value": 104517
                                            }
                                        ],
                                        "depth": 1,
                                        "name": "depositETH",
                                        "value": 125711
                                    }
                                ],
                                "depth": 0,
                                "name": "Executed Gas",
                                "value": 138480
                            }
                        ],
                        "depth": -1,
                        "name": "Actual Gas Used",
                        "value": 159940
                    },
                    {
                        "children": [],
                        "depth": -1,
                        "name": "Refunded Gas",
                        "value": 0
                    }
                ],
                "depth": -2,
                "name": "Total Gas",
                "value": 159940
            }
        ],
        "isConfirmed": true,
        "mainTrace": [
            {
                "children": [
                    {
                        "children": [
                            {
                                "children": [],
                                "depth": 1,
                                "id": 1,
                                "order": 1
                            },
                            {
                                "children": [
                                    {
                                        "children": [],
                                        "depth": 2,
                                        "id": 3,
                                        "order": 3
                                    },
                                    {
                                        "children": [],
                                        "depth": 2,
                                        "id": 4,
                                        "order": 4
                                    },
                                    {
                                        "children": [
                                            {
                                                "children": [],
                                                "depth": 3,
                                                "id": 6,
                                                "order": 6
                                            },
                                            {
                                                "children": [
                                                    {
                                                        "children": [
                                                            {
                                                                "children": [
                                                                    {
                                                                        "children": [],
                                                                        "depth": 6,
                                                                        "id": 10,
                                                                        "order": 10
                                                                    },
                                                                    {
                                                                        "children": [
                                                                            {
                                                                                "children": [],
                                                                                "depth": 7,
                                                                                "id": 12,
                                                                                "order": 12
                                                                            }
                                                                        ],
                                                                        "depth": 6,
                                                                        "id": 11,
                                                                        "order": 11
                                                                    }
                                                                ],
                                                                "depth": 5,
                                                                "id": 9,
                                                                "order": 9
                                                            }
                                                        ],
                                                        "depth": 4,
                                                        "id": 8,
                                                        "order": 8
                                                    },
                                                    {
                                                        "children": [],
                                                        "depth": 4,
                                                        "id": 13,
                                                        "order": 13
                                                    },
                                                    {
                                                        "children": [],
                                                        "depth": 4,
                                                        "id": 14,
                                                        "order": 14
                                                    }
                                                ],
                                                "depth": 3,
                                                "id": 7,
                                                "order": 7
                                            }
                                        ],
                                        "depth": 2,
                                        "id": 5,
                                        "order": 5
                                    }
                                ],
                                "depth": 1,
                                "id": 2,
                                "order": 2
                            }
                        ],
                        "depth": 0,
                        "id": 0,
                        "order": 0
                    }
                ],
                "depth": -1,
                "id": -1,
                "order": -1
            }
        ],
        "mainTraceNodeCount": 15,
        "parentIdMap": {
            "0": -1,
            "1": 0,
            "10": 9,
            "11": 9,
            "12": 11,
            "13": 7,
            "14": 7,
            "2": 0,
            "3": 2,
            "4": 2,
            "5": 2,
            "6": 5,
            "7": 5,
            "8": 7,
            "9": 8
        },
        "tidyTrace": [
            {
                "children": [
                    {
                        "children": [
                            {
                                "children": [
                                    {
                                        "children": [],
                                        "depth": 2,
                                        "id": 3,
                                        "order": 3
                                    },
                                    {
                                        "children": [],
                                        "depth": 2,
                                        "id": 4,
                                        "order": 4
                                    },
                                    {
                                        "children": [
                                            {
                                                "children": [
                                                    {
                                                        "children": [
                                                            {
                                                                "children": [
                                                                    {
                                                                        "children": [],
                                                                        "depth": 6,
                                                                        "id": 10,
                                                                        "order": 10
                                                                    }
                                                                ],
                                                                "depth": 5,
                                                                "id": 9,
                                                                "order": 9
                                                            }
                                                        ],
                                                        "depth": 4,
                                                        "id": 8,
                                                        "order": 8
                                                    },
                                                    {
                                                        "children": [],
                                                        "depth": 4,
                                                        "id": 13,
                                                        "order": 13
                                                    },
                                                    {
                                                        "children": [],
                                                        "depth": 4,
                                                        "id": 14,
                                                        "order": 14
                                                    }
                                                ],
                                                "depth": 3,
                                                "id": 7,
                                                "order": 7
                                            }
                                        ],
                                        "depth": 2,
                                        "id": 5,
                                        "order": 5
                                    }
                                ],
                                "depth": 1,
                                "id": 2,
                                "order": 2
                            }
                        ],
                        "depth": 0,
                        "id": 0,
                        "order": 0
                    }
                ],
                "depth": -1,
                "id": -1,
                "order": -1
            }
        ],
        "tidyTraceNodeCount": 11
    },
    "state_change": {
        "stateChanges": [
            {
                "address": "0x8b34b14c7c7123459cf3076b8cb929be097d0c07",
                "erc": "",
                "slots": [
                    {
                        "current": "0x00000000012d435a00000000000463880000000000000000000000003b9aca00",
                        "key": "0x0000000000000000000000000000000000000000000000000000000000000001",
                        "prev": "0x00000000012d435800000000000467880000000000000000000000003b9aca00"
                    }
                ],
                "storageVariables": [
                    {
                        "name": "params",
                        "type": "struct ResourceMetering.ResourceParams",
                        "value": {
                            "fields": [
                                {
                                    "name": "prevBaseFee",
                                    "type": "uint128",
                                    "value": {
                                        "current": "1000000000",
                                        "prev": "1000000000",
                                        "typeTag": 1
                                    }
                                },
                                {
                                    "name": "prevBoughtGas",
                                    "type": "uint64",
                                    "value": {
                                        "current": "287624",
                                        "prev": "288648",
                                        "typeTag": 1
                                    }
                                },
                                {
                                    "name": "prevBlockNum",
                                    "type": "uint64",
                                    "value": {
                                        "current": "19743578",
                                        "prev": "19743576",
                                        "typeTag": 1
                                    }
                                }
                            ],
                            "typeTag": 3
                        }
                    }
                ]
            },
            {
                "address": "0x95bdca6c8edeb69c98bd5bd17660bacef1298a6f",
                "erc": "",
                "slots": [
                    {
                        "current": "0x000000000000000000000000000000000000000000000000000000000002df18",
                        "key": "0x00000000000000000000000000000000000000000000000000000000000000cd",
                        "prev": "0x000000000000000000000000000000000000000000000000000000000002df17"
                    }
                ],
                "storageVariables": []
            }
        ]
    }
}