{
    "balance_change": {
        "balanceChanges": [
            {
                "account": "0x31647f14f6dc2fe38b42b846b3752cf5d5e1ccaf",
                "assets": [
                    {
                        "address": "0x6c6ee5e31d828de241282b9606c8e98ea48526e2",
                        "amount": "588,736.2",
                        "iconUrl": "https://assets.blocksec.com/icon/07c56c67163174e082e47dbd309426b5570aab223f97fcb51fd47ff7b2d87ebd.png",
                        "isERC1155": false,
                        "isERC721": false,
                        "sign": false,
                        "value": "1750.294279"
                    }
                ]
            },
            {
                "account": "0x3f5ce5fbfe3e9af3971dd833d26ba9b5c936f0be",
                "assets": [
                    {
                        "address": "0x6c6ee5e31d828de241282b9606c8e98ea48526e2",
                        "amount": "588,736.2",
                        "iconUrl": "https://assets.blocksec.com/icon/07c56c67163174e082e47dbd309426b5570aab223f97fcb51fd47ff7b2d87ebd.png",
                        "isERC1155": false,
                        "isERC721": false,
                        "sign": true,
                        "value": "1750.294279"
                    }
                ]
            }
        ]
    },
    "profile": {
        "basic_info": {
            "baseFee": "",
            "blockNumber": 12023946,
            "callData": "0xa9059cbb0000000000000000000000003f5ce5fbfe3e9af3971dd833d26ba9b5c936f0be000000000000000000000000000000000000000000007cab740ef1ed52140000",
            "debugEnable": true,
            "errorInfo": "",
            "eventCount": 1,
            "feeRecipient": "0x829bd824b016326a401d083b33d092293333a830",
            "formatValue": "0",
            "gasLimit": 76682,
            "gasPrice": "232",
            "gasUsed": 23341,
            "intTxnCount": 0,
            "internalRevert": false,
            "internalRevertMessage": "",
            "isContractCreation": false,
            "isFlashloan": false,
            "maxFee": "",
            "nonce": 0,
            "overwritedBlockNumber": -1,
            "priorityFee": "",
            "receiver": "0x6c6ee5e31d828de241282b9606c8e98ea48526e2",
            "revertMessage": "",
            "sender": "0x31647f14f6dc2fe38b42b846b3752cf5d5e1ccaf",
            "simulationEnable": true,
            "sourceTxnHash": "0xae136a33bb2c983fac6b30d2fe32f3144db63492c2c8db87e7a9d8c23c5a9278",
            "status": true,
            "timestamp": "2021-03-12T13:32:21Z",
            "transactionFee": "0.005415112",
            "txnHash": "0xae136a33bb2c983fac6b30d2fe32f3144db63492c2c8db87e7a9d8c23c5a9278",
            "txnIndex": 32,
            "type": 0,
            "value": "0"
        },
        "fund_flow": [
            {
                "amount": "588,736.2",
                "from": "0x31647f14f6dc2fe38b42b846b3752cf5d5e1ccaf",
                "id": 1,
                "isERC1155": false,
                "isERC721": false,
                "isReverted": false,
                "order": 1,
                "to": "0x3f5ce5fbfe3e9af3971dd833d26ba9b5c936f0be",
                "token": "0x6c6ee5e31d828de241282b9606c8e98ea48526e2"
            }
        ],
        "token_infos": [
            {
                "address": "0x6c6ee5e31d828de241282b9606c8e98ea48526e2",
                "decimals": 18
            },
            {
                "address": "0xc02aaa39b223fe8d0a0e5c4f27ead9083c756cc2",
                "decimals": 18
            },
            {
                "address": "0xeeeeeeeeeeeeeeeeeeeeeeeeeeeeeeeeeeeeeeee",
                "decimals": 18
            }
        ]
    },
    "address_label": {
        "labels": [
            {
                "address": "0x6c6ee5e31d828de241282b9606c8e98ea48526e2",
                "label": "Holo: HOT Token"
            },
            {
                "address": "0x3f5ce5fbfe3e9af3971dd833d26ba9b5c936f0be",
                "label": "Binance"
            },
            {
                "address": "0x31647f14f6dc2fe38b42b846b3752cf5d5e1ccaf",
                "label": "BINANCE"
            },
            {
                "address": "0x0000000000000000000000000000000000000001",
                "label": "Precompiled"
            },
            {
                "address": "0x0000000000000000000000000000000000000002",
                "label": "Precompiled"
            },
            {
                "address": "0x0000000000000000000000000000000000000003",
                "label": "Precompiled"
            },
            {
                "address": "0x0000000000000000000000000000000000000004",
                "label": "Precompiled"
            },
            {
                "address": "0xeeeeeeeeeeeeeeeeeeeeeeeeeeeeeeeeeeeeeeee",
                "label": "Ether"
            }
        ]
    },
    "trace": {
        "accountLabels": null,
        "dataMap": {
            "-1": {
                "invocation": {
                    "address": "0x31647f14f6dc2fe38b42b846b3752cf5d5e1ccaf",
                    "callData": "",
                    "decodedMethod": null,
                    "errorInfo": "",
                    "fromAddress": "",
                    "gasUsed": 0,
                    "id": -1,
                    "methodDecoded": false,
                    "operation": "",
                    "output": "",
                    "revert": false,
                    "revertMessage": "",
                    "selector": "",
                    "status": false,
                    "value": ""
                },
                "nodeType": 0
            },
            "0": {
                "invocation": {
                    "address": "0x6c6ee5e31d828de241282b9606c8e98ea48526e2",
                    "callData": "0x0000000000000000000000003f5ce5fbfe3e9af3971dd833d26ba9b5c936f0be000000000000000000000000000000000000000000007cab740ef1ed52140000",
                    "decodedMethod": {
                        "callParams": [
                            {
                                "name": "_to",
                                "type": "address",
                                "value": "0x3f5ce5fbfe3e9af3971dd833d26ba9b5c936f0be"
                            },
                            {
                                "decimalAvailable": true,
                                "name": "_value",
                                "type": "uint256",
                                "value": "588,736,200,000,000,000,000,000"
                            }
                        ],
                        "constructorArguments": "",
                        "name": "transfer",
                        "returnParams": [
                            {
                                "name": "",
                                "type": "bool",
                                "value": true
                            }
                        ],
                        "signature": "transfer(address,uint256)"
                    },
                    "errorInfo": "",
                    "fromAddress": "0x31647f14f6dc2fe38b42b846b3752cf5d5e1ccaf",
                    "gasUsed": 23341,
                    "id": 0,
                    "methodDecoded": true,
                    "operation": "CALL",
                    "output": "0x0000000000000000000000000000000000000000000000000000000000000001",
                    "revert": false,
                    "revertMessage": "",
                    "selector": "0xa9059cbb",
                    "status": true,
                    "value": "0"
                },
                "nodeType": 0
            },
            "1": {
                "event": {
                    "contract": "0x6c6ee5e31d828de241282b9606c8e98ea48526e2",
                    "decodedLog": {
                        "name": "Transfer",
                        "params": [
                            {
                                "name": "from",
                                "type": "address",
                                "value": "0x31647f14f6dc2fe38b42b846b3752cf5d5e1ccaf"
                            },
                            {
                                "name": "to",
                                "type": "address",
                                "value": "0x3f5ce5fbfe3e9af3971dd833d26ba9b5c936f0be"
                            },
                            {
                                "decimalAvailable": true,
                                "name": "value",
                                "type": "uint256",
                                "value": "588,736,200,000,000,000,000,000"
                            }
                        ],
                        "signature": "Transfer(address,address,uint256)"
                    },
                    "id": 1,
                    "logData": "0x000000000000000000000000000000000000000000007cab740ef1ed52140000",
                    "logDecoded": true,
                    "operation": "EVENT",
                    "revert": false,
                    "status": true,
                    "topics": [
                        "0xddf252ad1be2c89b69c2b068fc378daa952ba7f163c4a11628f55a4df523b3ef",
                        "0x00000000000000000000000031647f14f6dc2fe38b42b846b3752cf5d5e1ccaf",
                        "0x0000000000000000000000003f5ce5fbfe3e9af3971dd833d26ba9b5c936f0be"
                    ]
                },
                "nodeType": 1
            }
        },
        "gasFlame": [
            {
                "children": [
                    {
                        "children": [
                            {
                                "children": [],
                                "depth": 0,
                                "name": "Initial Gas",
                                "value": 21656
                            },
                            {
                                "children": [],
                                "depth": 0,
                                "name": "Executed Gas",
                                "value": 16685
                            }
                        ],
                        "depth": -1,
                        "name": "Actual Gas Used",
                        "value": 23341
                    },
                    {
                        "children": [],
                        "depth": -1,
                        "name": "Refunded Gas",
                        "value": 15000
                    }
                ],
                "depth": -2,
                "name": "Total Gas",
                "value": 38341
            }
        ],
        "isConfirmed": true,
        "mainTrace": [
            {
                "children": [
                    {
                        "children": [
                            {
                                "children": [],
                                "depth": 1,
                                "id": 1,
                                "order": 1
                            }
                        ],
                        "depth": 0,
                        "id": 0,
                        "order": 0
                    }
                ],
                "depth": -1,
                "id": -1,
                "order": -1
            }
        ],
        "mainTraceNodeCount": 2,
        "parentIdMap": {
            "0": -1,
            "1": 0
        },
        "tidyTrace": [
            {
                "children": [
                    {
                        "children": [
                            {
                                "children": [],
                                "depth": 1,
                                "id": 1,
                                "order": 1
                            }
                        ],
                        "depth": 0,
                        "id": 0,
                        "order": 0
                    }
                ],
                "depth": -1,
                "id": -1,
                "order": -1
            }
        ],
        "tidyTraceNodeCount": 2
    },
    "state_change": {
        "stateChanges": [
            {
                "address": "0x6c6ee5e31d828de241282b9606c8e98ea48526e2",
                "erc": "ERC-20",
                "slots": [
                    {
                        "current": "0x0000000000000000000000000000000000000000000000000000000000000000",
                        "key": "0x21105c32091401d46aa494197f61cdc4e5605ab4e6ab287d9ceebd6885da3b43",
                        "prev": "0x000000000000000000000000000000000000000000007cab740ef1ed52140000"
                    },
                    {
                        "current": "0x000000000000000000000000000000000000000003957b66691e7654d6ca245b",
                        "key": "0x036896838319da77df34849a001d6800e3af734130f6745e126fe47e87b9be82",
                        "prev": "0x00000000000000000000000000000000000000000394febaf50f846784b6245b"
                    }
                ],
                "storageVariables": [
                    {
                        "name": "balances",
                        "type": "mapping(address => uint256)",
                        "value": {
                            "pairs": [
                                {
                                    "key": "0x31647f14f6dc2fe38b42b846b3752cf5d5e1ccaf",
                                    "value": {
                                        "current": "0",
                                        "prev": "588736200000000000000000",
                                        "typeTag": 1
                                    }
                                },
                                {
                                    "key": "0x3f5ce5fbfe3e9af3971dd833d26ba9b5c936f0be",
                                    "value": {
                                        "current": "1109167716806525167977768027",
                                        "prev": "1108578980606525167977768027",
                                        "typeTag": 1
                                    }
                                }
                            ],
                            "typeTag": 4
                        }
                    }
                ]
            }
        ]
    }
}