{
    "balance_change": {
        "balanceChanges": [
            {
                "account": "0x93fab492944a1f140ec6eec82e2108e959ddc77b",
                "assets": [
                    {
                        "address": "0x8457ca5040ad67fdebbcc8edce889a335bc0fbfb",
                        "amount": "667",
                        "iconUrl": "",
                        "isERC1155": false,
                        "isERC721": false,
                        "sign": false,
                        "value": "197.49869999999998288"
                    }
                ]
            },
            {
                "account": "0x92f872bd8660f8e702786ae5560371724606de25",
                "assets": [
                    {
                        "address": "0x8457ca5040ad67fdebbcc8edce889a335bc0fbfb",
                        "amount": "667",
                        "iconUrl": "",
                        "isERC1155": false,
                        "isERC721": false,
                        "sign": true,
                        "value": "197.49869999999998288"
                    }
                ]
            }
        ]
    },
    "profile": {
        "basic_info": {
            "baseFee": "3.347266884",
            "blockNumber": 19907417,
            "callData": "0xa9059cbb00000000000000000000000092f872bd8660f8e702786ae5560371724606de25000000000000000000000000000000000000000000000024287c0615218c0000",
            "debugEnable": true,
            "errorInfo": "",
            "eventCount": 1,
            "feeRecipient": "0x1f9090aae28b8a3dceadf281b0f12828e676c326",
            "formatValue": "0",
            "gasLimit": 81192,
            "gasPrice": "3.371135727",
            "gasUsed": 49134,
            "intTxnCount": 0,
            "internalRevert": false,
            "internalRevertMessage": "",
            "isContractCreation": false,
            "isFlashloan": false,
            "maxFee": "4.232912537",
            "nonce": 747,
            "overwritedBlockNumber": -1,
            "priorityFee": "0.023868843",
            "receiver": "0x8457ca5040ad67fdebbcc8edce889a335bc0fbfb",
            "revertMessage": "",
            "sender": "0x93fab492944a1f140ec6eec82e2108e959ddc77b",
            "simulationEnable": true,
            "sourceTxnHash": "0xaed3dbd07558d768d9ee17ce837a641a6e86f779e3cde2faeea6a8f6de4b96c6",
            "status": true,
            "timestamp": "2024-05-19T23:59:35Z",
            "transactionFee": "0.000165637382810418",
            "txnHash": "0xaed3dbd07558d768d9ee17ce837a641a6e86f779e3cde2faeea6a8f6de4b96c6",
            "txnIndex": 78,
            "type": 2,
            "value": "0"
        },
        "fund_flow": [
            {
                "amount": "667",
                "from": "0x93fab492944a1f140ec6eec82e2108e959ddc77b",
                "id": 1,
                "isERC1155": false,
                "isERC721": false,
                "isReverted": false,
                "order": 1,
                "to": "0x92f872bd8660f8e702786ae5560371724606de25",
                "token": "0x8457ca5040ad67fdebbcc8edce889a335bc0fbfb"
            }
        ],
        "token_infos": [
            {
                "address": "0xc02aaa39b223fe8d0a0e5c4f27ead9083c756cc2",
                "decimals": 18
            },
            {
                "address": "0xeeeeeeeeeeeeeeeeeeeeeeeeeeeeeeeeeeeeeeee",
                "decimals": 18
            },
            {
                "address": "0x8457ca5040ad67fdebbcc8edce889a335bc0fbfb",
                "decimals": 18
            }
        ]
    },
    "address_label": {
        "labels": [
            {
                "address": "0x0000000000000000000000000000000000000001",
                "label": "Precompiled"
            },
            {
                "address": "0x0000000000000000000000000000000000000002",
                "label": "Precompiled"
            },
            {
                "address": "0x0000000000000000000000000000000000000003",
                "label": "Precompiled"
            },
            {
                "address": "0x0000000000000000000000000000000000000004",
                "label": "Precompiled"
            },
            {
                "address": "0xeeeeeeeeeeeeeeeeeeeeeeeeeeeeeeeeeeeeeeee",
                "label": "Ether"
            },
            {
                "address": "0x8457ca5040ad67fdebbcc8edce889a335bc0fbfb",
                "label": "AltLayer: ALT Token"
            },
            {
                "address": "0x92f872bd8660f8e702786ae5560371724606de25",
                "label": "BINANCE"
            }
        ]
    },
    "trace": {
        "accountLabels": null,
        "dataMap": {
            "-1": {
                "invocation": {
                    "address": "0x93fab492944a1f140ec6eec82e2108e959ddc77b",
                    "callData": "",
                    "decodedMethod": null,
                    "errorInfo": "",
                    "fromAddress": "",
                    "gasUsed": 0,
                    "id": -1,
                    "methodDecoded": false,
                    "operation": "",
                    "output": "",
                    "revert": false,
                    "revertMessage": "",
                    "selector": "",
                    "status": false,
                    "value": ""
                },
                "nodeType": 0
            },
            "0": {
                "invocation": {
                    "address": "0x8457ca5040ad67fdebbcc8edce889a335bc0fbfb",
                    "callData": "0x00000000000000000000000092f872bd8660f8e702786ae5560371724606de25000000000000000000000000000000000000000000000024287c0615218c0000",
                    "decodedMethod": {
                        "callParams": [
                            {
                                "name": "to",
                                "type": "address",
                                "value": "0x92f872bd8660f8e702786ae5560371724606de25"
                            },
                            {
                                "decimalAvailable": true,
                                "name": "value",
                                "type": "uint256",
                                "value": "667,000,000,000,000,000,000"
                            }
                        ],
                        "constructorArguments": "",
                        "name": "transfer",
                        "returnParams": [
                            {
                                "name": "",
                                "type": "bool",
                                "value": true
                            }
                        ],
                        "signature": "transfer(address,uint256)"
                    },
                    "errorInfo": "",
                    "fromAddress": "0x93fab492944a1f140ec6eec82e2108e959ddc77b",
                    "gasUsed": 49134,
                    "id": 0,
                    "methodDecoded": true,
                    "operation": "CALL",
                    "output": "0x0000000000000000000000000000000000000000000000000000000000000001",
                    "revert": false,
                    "revertMessage": "",
                    "selector": "0xa9059cbb",
                    "status": true,
                    "value": "0"
                },
                "nodeType": 0
            },
            "1": {
                "event": {
                    "contract": "0x8457ca5040ad67fdebbcc8edce889a335bc0fbfb",
                    "decodedLog": {
                        "name": "Transfer",
                        "params": [
                            {
                                "name": "from",
                                "type": "address",
                                "value": "0x93fab492944a1f140ec6eec82e2108e959ddc77b"
                            },
                            {
                                "name": "to",
                                "type": "address",
                                "value": "0x92f872bd8660f8e702786ae5560371724606de25"
                            },
                            {
                                "decimalAvailable": true,
                                "name": "value",
                                "type": "uint256",
                                "value": "667,000,000,000,000,000,000"
                            }
                        ],
                        "signature": "Transfer(address,address,uint256)"
                    },
                    "id": 1,
                    "logData": "0x000000000000000000000000000000000000000000000024287c0615218c0000",
                    "logDecoded": true,
                    "operation": "EVENT",
                    "revert": false,
                    "status": true,
                    "topics": [
                        "0xddf252ad1be2c89b69c2b068fc378daa952ba7f163c4a11628f55a4df523b3ef",
                        "0x00000000000000000000000093fab492944a1f140ec6eec82e2108e959ddc77b",
                        "0x00000000000000000000000092f872bd8660f8e702786ae5560371724606de25"
                    ]
                },
                "nodeType": 1
            }
        },
        "gasFlame": [
            {
                "children": [
                    {
                        "children": [
                            {
                                "children": [],
                                "depth": 0,
                                "name": "Initial Gas",
                                "value": 21644
                            },
                            {
                                "children": [],
                                "depth": 0,
                                "name": "Executed Gas",
                                "value": 32290
                            }
                        ],
                        "depth": -1,
                        "name": "Actual Gas Used",
                        "value": 49134
                    },
                    {
                        "children": [],
                        "depth": -1,
                        "name": "Refunded Gas",
                        "value": 4800
                    }
                ],
                "depth": -2,
                "name": "Total Gas",
                "value": 53934
            }
        ],
        "isConfirmed": true,
        "mainTrace": [
            {
                "children": [
                    {
                        "children": [
                            {
                                "children": [],
                                "depth": 1,
                                "id": 1,
                                "order": 1
                            }
                        ],
                        "depth": 0,
                        "id": 0,
                        "order": 0
                    }
                ],
                "depth": -1,
                "id": -1,
                "order": -1
            }
        ],
        "mainTraceNodeCount": 2,
        "parentIdMap": {
            "0": -1,
            "1": 0
        },
        "tidyTrace": [
            {
                "children": [
                    {
                        "children": [
                            {
                                "children": [],
                                "depth": 1,
                                "id": 1,
                                "order": 1
                            }
                        ],
                        "depth": 0,
                        "id": 0,
                        "order": 0
                    }
                ],
                "depth": -1,
                "id": -1,
                "order": -1
            }
        ],
        "tidyTraceNodeCount": 2
    },
    "state_change": {
        "stateChanges": [
            {
                "address": "0x8457ca5040ad67fdebbcc8edce889a335bc0fbfb",
                "erc": "ERC-20",
                "slots": [
                    {
                        "current": "0x0000000000000000000000000000000000000000000000000000000000000000",
                        "key": "0x30bf2aadf73a1bd74743ee0b5af1ed6b58cce6041719f734e030fcf2ab48de69",
                        "prev": "0x000000000000000000000000000000000000000000000024287c0615218c0000"
                    },
                    {
                        "current": "0x000000000000000000000000000000000000000000000024287c0615218c0000",
                        "key": "0xa028f9c819e0715068fdc75402eccbc17cc9fccc68b78097b0c2d3779acc7c33",
                        "prev": "0x0000000000000000000000000000000000000000000000000000000000000000"
                    }
                ],
                "storageVariables": [
                    {
                        "name": "_balances",
                        "type": "mapping(address => uint256)",
                        "value": {
                            "pairs": [
                                {
                                    "key": "0x92f872bd8660f8e702786ae5560371724606de25",
                                    "value": {
                                        "current": "667000000000000000000",
                                        "prev": "0",
                                        "typeTag": 1
                                    }
                                },
                                {
                                    "key": "0x93fab492944a1f140ec6eec82e2108e959ddc77b",
                                    "value": {
                                        "current": "0",
                                        "prev": "667000000000000000000",
                                        "typeTag": 1
                                    }
                                }
                            ],
                            "typeTag": 4
                        }
                    }
                ]
            }
        ]
    }
}