{
    "balance_change": {
        "balanceChanges": [
            {
                "account": "0xa8ed043b12085459eec394cb91108313dfc44330",
                "assets": [
                    {
                        "address": "0xa3ee21c306a700e682abcdfe9baa6a08f3820419",
                        "amount": "94,056",
                        "iconUrl": "",
                        "isERC1155": false,
                        "isERC721": false,
                        "sign": false,
                        "value": ""
                    }
                ]
            },
            {
                "account": "0x3d5202a0564de9b05ecd07c955bcca964585ea03",
                "assets": [
                    {
                        "address": "0xa3ee21c306a700e682abcdfe9baa6a08f3820419",
                        "amount": "94,056",
                        "iconUrl": "",
                        "isERC1155": false,
                        "isERC721": false,
                        "sign": true,
                        "value": ""
                    }
                ]
            }
        ]
    },
    "profile": {
        "basic_info": {
            "baseFee": "118.595157333",
            "blockNumber": 14764619,
            "callData": "0xa9059cbb0000000000000000000000003d5202a0564de9b05ecd07c955bcca964585ea030000000000000000000000000000000000000000000013eac935c5f45ca00000",
            "debugEnable": true,
            "errorInfo": "",
            "eventCount": 1,
            "feeRecipient": "0xea674fdde714fd979de3edf0f56aa9716b898ec8",
            "formatValue": "0",
            "gasLimit": 90000,
            "gasPrice": "120.595157333",
            "gasUsed": 50860,
            "intTxnCount": 0,
            "internalRevert": false,
            "internalRevertMessage": "",
            "isContractCreation": false,
            "isFlashloan": false,
            "maxFee": "300",
            "nonce": 1,
            "overwritedBlockNumber": -1,
            "priorityFee": "2",
            "receiver": "0xa3ee21c306a700e682abcdfe9baa6a08f3820419",
            "revertMessage": "",
            "sender": "0xa8ed043b12085459eec394cb91108313dfc44330",
            "simulationEnable": true,
            "sourceTxnHash": "0xafcb7b64f8b2e27031e6a1405263ec0b6e2f887087560d8b49ea79680e26d1b7",
            "status": true,
            "timestamp": "2022-05-13T01:56:38Z",
            "transactionFee": "0.00613346970195638",
            "txnHash": "0xafcb7b64f8b2e27031e6a1405263ec0b6e2f887087560d8b49ea79680e26d1b7",
            "txnIndex": 159,
            "type": 2,
            "value": "0"
        },
        "fund_flow": [
            {
                "amount": "94,056",
                "from": "0xa8ed043b12085459eec394cb91108313dfc44330",
                "id": 1,
                "isERC1155": false,
                "isERC721": false,
                "isReverted": false,
                "order": 1,
                "to": "0x3d5202a0564de9b05ecd07c955bcca964585ea03",
                "token": "0xa3ee21c306a700e682abcdfe9baa6a08f3820419"
            }
        ],
        "token_infos": [
            {
                "address": "0xa3ee21c306a700e682abcdfe9baa6a08f3820419",
                "decimals": 18
            },
            {
                "address": "0xc02aaa39b223fe8d0a0e5c4f27ead9083c756cc2",
                "decimals": 18
            },
            {
                "address": "0xeeeeeeeeeeeeeeeeeeeeeeeeeeeeeeeeeeeeeeee",
                "decimals": 18
            }
        ]
    },
    "address_label": {
        "labels": [
            {
                "address": "0x3d5202a0564de9b05ecd07c955bcca964585ea03",
                "label": "ByBit: Hot Wallet 9"
            },
            {
                "address": "0xa8ed043b12085459eec394cb91108313dfc44330",
                "label": "BYBIT"
            },
            {
                "address": "0xa3ee21c306a700e682abcdfe9baa6a08f3820419",
                "label": "Gluwa Creditcoin Vesting Token"
            },
            {
                "address": "0x0000000000000000000000000000000000000001",
                "label": "Precompiled"
            },
            {
                "address": "0x0000000000000000000000000000000000000002",
                "label": "Precompiled"
            },
            {
                "address": "0x0000000000000000000000000000000000000003",
                "label": "Precompiled"
            },
            {
                "address": "0x0000000000000000000000000000000000000004",
                "label": "Precompiled"
            },
            {
                "address": "0xeeeeeeeeeeeeeeeeeeeeeeeeeeeeeeeeeeeeeeee",
                "label": "Ether"
            }
        ]
    },
    "trace": {
        "accountLabels": null,
        "dataMap": {
            "-1": {
                "invocation": {
                    "address": "0xa8ed043b12085459eec394cb91108313dfc44330",
                    "callData": "",
                    "decodedMethod": null,
                    "errorInfo": "",
                    "fromAddress": "",
                    "gasUsed": 0,
                    "id": -1,
                    "methodDecoded": false,
                    "operation": "",
                    "output": "",
                    "revert": false,
                    "revertMessage": "",
                    "selector": "",
                    "status": false,
                    "value": ""
                },
                "nodeType": 0
            },
            "0": {
                "invocation": {
                    "address": "0xa3ee21c306a700e682abcdfe9baa6a08f3820419",
                    "callData": "0x0000000000000000000000003d5202a0564de9b05ecd07c955bcca964585ea030000000000000000000000000000000000000000000013eac935c5f45ca00000",
                    "decodedMethod": {
                        "callParams": [
                            {
                                "name": "to",
                                "type": "address",
                                "value": "0x3d5202a0564de9b05ecd07c955bcca964585ea03"
                            },
                            {
                                "decimalAvailable": true,
                                "name": "value",
                                "type": "uint256",
                                "value": "94,056,000,000,000,000,000,000"
                            }
                        ],
                        "constructorArguments": "",
                        "name": "transfer",
                        "returnParams": [
                            {
                                "name": "success",
                                "type": "bool",
                                "value": true
                            }
                        ],
                        "signature": "transfer(address,uint256)"
                    },
                    "errorInfo": "",
                    "fromAddress": "0xa8ed043b12085459eec394cb91108313dfc44330",
                    "gasUsed": 50860,
                    "id": 0,
                    "methodDecoded": true,
                    "operation": "CALL",
                    "output": "0x0000000000000000000000000000000000000000000000000000000000000001",
                    "revert": false,
                    "revertMessage": "",
                    "selector": "0xa9059cbb",
                    "status": true,
                    "value": "0"
                },
                "nodeType": 0
            },
            "1": {
                "event": {
                    "contract": "0xa3ee21c306a700e682abcdfe9baa6a08f3820419",
                    "decodedLog": {
                        "name": "Transfer",
                        "params": [
                            {
                                "name": "from",
                                "type": "address",
                                "value": "0xa8ed043b12085459eec394cb91108313dfc44330"
                            },
                            {
                                "name": "to",
                                "type": "address",
                                "value": "0x3d5202a0564de9b05ecd07c955bcca964585ea03"
                            },
                            {
                                "decimalAvailable": true,
                                "name": "value",
                                "type": "uint256",
                                "value": "94,056,000,000,000,000,000,000"
                            }
                        ],
                        "signature": "Transfer(address,address,uint256)"
                    },
                    "id": 1,
                    "logData": "0x0000000000000000000000000000000000000000000013eac935c5f45ca00000",
                    "logDecoded": true,
                    "operation": "EVENT",
                    "revert": false,
                    "status": true,
                    "topics": [
                        "0xddf252ad1be2c89b69c2b068fc378daa952ba7f163c4a11628f55a4df523b3ef",
                        "0x000000000000000000000000a8ed043b12085459eec394cb91108313dfc44330",
                        "0x0000000000000000000000003d5202a0564de9b05ecd07c955bcca964585ea03"
                    ]
                },
                "nodeType": 1
            }
        },
        "gasFlame": [
            {
                "children": [
                    {
                        "children": [
                            {
                                "children": [],
                                "depth": 0,
                                "name": "Initial Gas",
                                "value": 21656
                            },
                            {
                                "children": [],
                                "depth": 0,
                                "name": "Executed Gas",
                                "value": 34004
                            }
                        ],
                        "depth": -1,
                        "name": "Actual Gas Used",
                        "value": 50860
                    },
                    {
                        "children": [],
                        "depth": -1,
                        "name": "Refunded Gas",
                        "value": 4800
                    }
                ],
                "depth": -2,
                "name": "Total Gas",
                "value": 55660
            }
        ],
        "isConfirmed": true,
        "mainTrace": [
            {
                "children": [
                    {
                        "children": [
                            {
                                "children": [],
                                "depth": 1,
                                "id": 1,
                                "order": 1
                            }
                        ],
                        "depth": 0,
                        "id": 0,
                        "order": 0
                    }
                ],
                "depth": -1,
                "id": -1,
                "order": -1
            }
        ],
        "mainTraceNodeCount": 2,
        "parentIdMap": {
            "0": -1,
            "1": 0
        },
        "tidyTrace": [
            {
                "children": [
                    {
                        "children": [
                            {
                                "children": [],
                                "depth": 1,
                                "id": 1,
                                "order": 1
                            }
                        ],
                        "depth": 0,
                        "id": 0,
                        "order": 0
                    }
                ],
                "depth": -1,
                "id": -1,
                "order": -1
            }
        ],
        "tidyTraceNodeCount": 2
    },
    "state_change": {
        "stateChanges": [
            {
                "address": "0xa3ee21c306a700e682abcdfe9baa6a08f3820419",
                "erc": "ERC-20",
                "slots": [
                    {
                        "current": "0x0000000000000000000000000000000000000000000000000000000000000000",
                        "key": "0xd4cdd1bda78b7817c5477802f419d0dadc56cb7c69559512679436a9bc8ce307",
                        "prev": "0x0000000000000000000000000000000000000000000013eac935c5f45ca00000"
                    },
                    {
                        "current": "0x0000000000000000000000000000000000000000000013fc48e3fc369cd78000",
                        "key": "0xc76fb90b1729b0d07412d1cb6cbfedddb3d221883abe432fd22ef77f6919e8aa",
                        "prev": "0x0000000000000000000000000000000000000000000000117fae364240378000"
                    }
                ],
                "storageVariables": [
                    {
                        "name": "_balances",
                        "type": "mapping(address => mapping(uint16 => uint256))",
                        "value": {
                            "pairs": [
                                {
                                    "key": "0x3d5202a0564de9b05ecd07c955bcca964585ea03",
                                    "value": {
                                        "pairs": [
                                            {
                                                "key": "0",
                                                "value": {
                                                    "current": "94378795000000000000000",
                                                    "prev": "322795000000000000000",
                                                    "typeTag": 1
                                                }
                                            }
                                        ],
                                        "typeTag": 4
                                    }
                                },
                                {
                                    "key": "0xa8ed043b12085459eec394cb91108313dfc44330",
                                    "value": {
                                        "pairs": [
                                            {
                                                "key": "0",
                                                "value": {
                                                    "current": "0",
                                                    "prev": "94056000000000000000000",
                                                    "typeTag": 1
                                                }
                                            }
                                        ],
                                        "typeTag": 4
                                    }
                                }
                            ],
                            "typeTag": 4
                        }
                    }
                ]
            }
        ]
    }
}