{
    "balance_change": {
        "balanceChanges": [
            {
                "account": "0x1a4cc1c7eb5a0b2d3cb6eb34b46c2436b150877b",
                "assets": [
                    {
                        "address": "0x3819f64f282bf135d62168c1e513280daf905e06",
                        "amount": "250,000,000",
                        "iconUrl": "",
                        "isERC1155": false,
                        "isERC721": false,
                        "sign": false,
                        "value": "969.0776134"
                    },
                    {
                        "address": "0x9d93692e826a4bd9e903e2a27d7fbd1e116efdad",
                        "amount": "250,000,000",
                        "iconUrl": "",
                        "isERC1155": false,
                        "isERC721": false,
                        "sign": true,
                        "value": ""
                    }
                ]
            },
            {
                "account": "0x9d93692e826a4bd9e903e2a27d7fbd1e116efdad",
                "assets": [
                    {
                        "address": "0x3819f64f282bf135d62168c1e513280daf905e06",
                        "amount": "250,000,000",
                        "iconUrl": "",
                        "isERC1155": false,
                        "isERC721": false,
                        "sign": true,
                        "value": "969.0776134"
                    }
                ]
            },
            {
                "account": "0x0000000000000000000000000000000000000000",
                "assets": [
                    {
                        "address": "0x9d93692e826a4bd9e903e2a27d7fbd1e116efdad",
                        "amount": "250,000,000",
                        "iconUrl": "",
                        "isERC1155": false,
                        "isERC721": false,
                        "sign": false,
                        "value": ""
                    }
                ]
            }
        ]
    },
    "profile": {
        "basic_info": {
            "baseFee": "12.918249346",
            "blockNumber": 15900690,
            "callData": "0x9e5fe0a000000000000000000000000000000000000000000000000003782dace9d90000000000000000000000000000000000000000000000000000000000000000005a",
            "debugEnable": true,
            "errorInfo": "",
            "eventCount": 4,
            "feeRecipient": "0x690b9a9e9aa1c9db991c7721a92d351db4fac990",
            "formatValue": "0",
            "gasLimit": 104035,
            "gasPrice": "14.418249346",
            "gasUsed": 94245,
            "intTxnCount": 2,
            "internalRevert": false,
            "internalRevertMessage": "",
            "isContractCreation": false,
            "isFlashloan": false,
            "maxFee": "19.318550121",
            "nonce": 196,
            "overwritedBlockNumber": -1,
            "priorityFee": "1.5",
            "receiver": "0x9d93692e826a4bd9e903e2a27d7fbd1e116efdad",
            "revertMessage": "",
            "sender": "0x1a4cc1c7eb5a0b2d3cb6eb34b46c2436b150877b",
            "simulationEnable": true,
            "sourceTxnHash": "0xafccb2dcd37bdb59de9a673c3d0871c955ce0d924075a29ec357370bea1e3e82",
            "status": true,
            "timestamp": "2022-11-05T01:59:47Z",
            "transactionFee": "0.00135884790961377",
            "txnHash": "0xafccb2dcd37bdb59de9a673c3d0871c955ce0d924075a29ec357370bea1e3e82",
            "txnIndex": 74,
            "type": 2,
            "value": "0"
        },
        "fund_flow": [
            {
                "amount": "250,000,000",
                "from": "0x1a4cc1c7eb5a0b2d3cb6eb34b46c2436b150877b",
                "id": 1,
                "isERC1155": false,
                "isERC721": false,
                "isReverted": false,
                "order": 1,
                "to": "0x9d93692e826a4bd9e903e2a27d7fbd1e116efdad",
                "token": "0x3819f64f282bf135d62168c1e513280daf905e06"
            },
            {
                "amount": "250,000,000",
                "from": "0x0000000000000000000000000000000000000000",
                "id": 2,
                "isERC1155": false,
                "isERC721": false,
                "isReverted": false,
                "order": 2,
                "to": "0x1a4cc1c7eb5a0b2d3cb6eb34b46c2436b150877b",
                "token": "0x9d93692e826a4bd9e903e2a27d7fbd1e116efdad"
            }
        ],
        "token_infos": [
            {
                "address": "0x9d93692e826a4bd9e903e2a27d7fbd1e116efdad",
                "decimals": 9
            },
            {
                "address": "0xc02aaa39b223fe8d0a0e5c4f27ead9083c756cc2",
                "decimals": 18
            },
            {
                "address": "0xeeeeeeeeeeeeeeeeeeeeeeeeeeeeeeeeeeeeeeee",
                "decimals": 18
            },
            {
                "address": "0x3819f64f282bf135d62168c1e513280daf905e06",
                "decimals": 9
            }
        ]
    },
    "address_label": {
        "labels": [
            {
                "address": "0x0000000000000000000000000000000000000002",
                "label": "Precompiled"
            },
            {
                "address": "0x0000000000000000000000000000000000000003",
                "label": "Precompiled"
            },
            {
                "address": "0x0000000000000000000000000000000000000004",
                "label": "Precompiled"
            },
            {
                "address": "0xeeeeeeeeeeeeeeeeeeeeeeeeeeeeeeeeeeeeeeee",
                "label": "Ether"
            },
            {
                "address": "0x2b591e99afe9f32eaa6214f7b7629768c40eeb39",
                "label": "HEX.com: HEX Token"
            },
            {
                "address": "0x3819f64f282bf135d62168c1e513280daf905e06",
                "label": "Hedron: HDRN Token"
            },
            {
                "address": "0x9d93692e826a4bd9e903e2a27d7fbd1e116efdad",
                "label": "Poly Maximus (POLY)"
            },
            {
                "address": "0x0000000000000000000000000000000000000001",
                "label": "Precompiled"
            }
        ]
    },
    "trace": {
        "accountLabels": null,
        "dataMap": {
            "-1": {
                "invocation": {
                    "address": "0x1a4cc1c7eb5a0b2d3cb6eb34b46c2436b150877b",
                    "callData": "",
                    "decodedMethod": null,
                    "errorInfo": "",
                    "fromAddress": "",
                    "gasUsed": 0,
                    "id": -1,
                    "methodDecoded": false,
                    "operation": "",
                    "output": "",
                    "revert": false,
                    "revertMessage": "",
                    "selector": "",
                    "status": false,
                    "value": ""
                },
                "nodeType": 0
            },
            "0": {
                "invocation": {
                    "address": "0x9d93692e826a4bd9e903e2a27d7fbd1e116efdad",
                    "callData": "0x00000000000000000000000000000000000000000000000003782dace9d90000000000000000000000000000000000000000000000000000000000000000005a",
                    "decodedMethod": {
                        "callParams": [
                            {
                                "name": "amount",
                                "type": "uint256",
                                "value": "250,000,000,000,000,000"
                            },
                            {
                                "name": "bid_budget_percent",
                                "type": "uint256",
                                "value": "90"
                            }
                        ],
                        "constructorArguments": "",
                        "name": "mintPoly",
                        "returnParams": [],
                        "signature": "mintPoly(uint256,uint256)"
                    },
                    "errorInfo": "",
                    "fromAddress": "0x1a4cc1c7eb5a0b2d3cb6eb34b46c2436b150877b",
                    "gasUsed": 94245,
                    "id": 0,
                    "methodDecoded": true,
                    "operation": "CALL",
                    "output": "",
                    "revert": false,
                    "revertMessage": "",
                    "selector": "0x9e5fe0a0",
                    "status": true,
                    "value": "0"
                },
                "nodeType": 0
            },
            "1": {
                "invocation": {
                    "address": "0x2b591e99afe9f32eaa6214f7b7629768c40eeb39",
                    "callData": "0x",
                    "decodedMethod": {
                        "callParams": [],
                        "constructorArguments": "",
                        "name": "currentDay",
                        "returnParams": [
                            {
                                "name": "",
                                "type": "uint256",
                                "value": "1,068"
                            }
                        ],
                        "signature": "currentDay()"
                    },
                    "errorInfo": "",
                    "fromAddress": "0x9d93692e826a4bd9e903e2a27d7fbd1e116efdad",
                    "gasUsed": 360,
                    "id": 1,
                    "methodDecoded": true,
                    "operation": "STATICCALL",
                    "output": "0x000000000000000000000000000000000000000000000000000000000000042c",
                    "revert": false,
                    "revertMessage": "",
                    "selector": "0x5c9302c9",
                    "status": true,
                    "value": "0"
                },
                "nodeType": 0
            },
            "2": {
                "invocation": {
                    "address": "0x3819f64f282bf135d62168c1e513280daf905e06",
                    "callData": "0x0000000000000000000000001a4cc1c7eb5a0b2d3cb6eb34b46c2436b150877b0000000000000000000000009d93692e826a4bd9e903e2a27d7fbd1e116efdad00000000000000000000000000000000000000000000000003782dace9d90000",
                    "decodedMethod": {
                        "callParams": [
                            {
                                "name": "sender",
                                "type": "address",
                                "value": "0x1a4cc1c7eb5a0b2d3cb6eb34b46c2436b150877b"
                            },
                            {
                                "name": "recipient",
                                "type": "address",
                                "value": "0x9d93692e826a4bd9e903e2a27d7fbd1e116efdad"
                            },
                            {
                                "decimalAvailable": true,
                                "name": "amount",
                                "type": "uint256",
                                "value": "250,000,000,000,000,000"
                            }
                        ],
                        "constructorArguments": "",
                        "name": "transferFrom",
                        "returnParams": [
                            {
                                "name": "",
                                "type": "bool",
                                "value": true
                            }
                        ],
                        "signature": "transferFrom(address,address,uint256)"
                    },
                    "errorInfo": "",
                    "fromAddress": "0x9d93692e826a4bd9e903e2a27d7fbd1e116efdad",
                    "gasUsed": 20207,
                    "id": 2,
                    "methodDecoded": true,
                    "operation": "CALL",
                    "output": "0x0000000000000000000000000000000000000000000000000000000000000001",
                    "revert": false,
                    "revertMessage": "",
                    "selector": "0x23b872dd",
                    "status": true,
                    "value": "0"
                },
                "nodeType": 0
            },
            "3": {
                "event": {
                    "contract": "0x3819f64f282bf135d62168c1e513280daf905e06",
                    "decodedLog": {
                        "name": "Transfer",
                        "params": [
                            {
                                "name": "from",
                                "type": "address",
                                "value": "0x1a4cc1c7eb5a0b2d3cb6eb34b46c2436b150877b"
                            },
                            {
                                "name": "to",
                                "type": "address",
                                "value": "0x9d93692e826a4bd9e903e2a27d7fbd1e116efdad"
                            },
                            {
                                "decimalAvailable": true,
                                "name": "value",
                                "type": "uint256",
                                "value": "250,000,000,000,000,000"
                            }
                        ],
                        "signature": "Transfer(address,address,uint256)"
                    },
                    "id": 3,
                    "logData": "0x00000000000000000000000000000000000000000000000003782dace9d90000",
                    "logDecoded": true,
                    "operation": "EVENT",
                    "revert": false,
                    "status": true,
                    "topics": [
                        "0xddf252ad1be2c89b69c2b068fc378daa952ba7f163c4a11628f55a4df523b3ef",
                        "0x0000000000000000000000001a4cc1c7eb5a0b2d3cb6eb34b46c2436b150877b",
                        "0x0000000000000000000000009d93692e826a4bd9e903e2a27d7fbd1e116efdad"
                    ]
                },
                "nodeType": 1
            },
            "4": {
                "event": {
                    "contract": "0x3819f64f282bf135d62168c1e513280daf905e06",
                    "decodedLog": {
                        "name": "Approval",
                        "params": [
                            {
                                "name": "owner",
                                "type": "address",
                                "value": "0x1a4cc1c7eb5a0b2d3cb6eb34b46c2436b150877b"
                            },
                            {
                                "name": "spender",
                                "type": "address",
                                "value": "0x9d93692e826a4bd9e903e2a27d7fbd1e116efdad"
                            },
                            {
                                "decimalAvailable": true,
                                "name": "value",
                                "type": "uint256",
                                "value": "0"
                            }
                        ],
                        "signature": "Approval(address,address,uint256)"
                    },
                    "id": 4,
                    "logData": "0x0000000000000000000000000000000000000000000000000000000000000000",
                    "logDecoded": true,
                    "operation": "EVENT",
                    "revert": false,
                    "status": true,
                    "topics": [
                        "0x8c5be1e5ebec7d5bd14f71427d1e84f3dd0314c0f7b2291e5b200ac8c7c3b925",
                        "0x0000000000000000000000001a4cc1c7eb5a0b2d3cb6eb34b46c2436b150877b",
                        "0x0000000000000000000000009d93692e826a4bd9e903e2a27d7fbd1e116efdad"
                    ]
                },
                "nodeType": 1
            },
            "5": {
                "event": {
                    "contract": "0x9d93692e826a4bd9e903e2a27d7fbd1e116efdad",
                    "decodedLog": {
                        "name": "Transfer",
                        "params": [
                            {
                                "name": "from",
                                "type": "address",
                                "value": "0x0000000000000000000000000000000000000000"
                            },
                            {
                                "name": "to",
                                "type": "address",
                                "value": "0x1a4cc1c7eb5a0b2d3cb6eb34b46c2436b150877b"
                            },
                            {
                                "decimalAvailable": true,
                                "name": "value",
                                "type": "uint256",
                                "value": "250,000,000,000,000,000"
                            }
                        ],
                        "signature": "Transfer(address,address,uint256)"
                    },
                    "id": 5,
                    "logData": "0x00000000000000000000000000000000000000000000000003782dace9d90000",
                    "logDecoded": true,
                    "operation": "EVENT",
                    "revert": false,
                    "status": true,
                    "topics": [
                        "0xddf252ad1be2c89b69c2b068fc378daa952ba7f163c4a11628f55a4df523b3ef",
                        "0x0000000000000000000000000000000000000000000000000000000000000000",
                        "0x0000000000000000000000001a4cc1c7eb5a0b2d3cb6eb34b46c2436b150877b"
                    ]
                },
                "nodeType": 1
            },
            "6": {
                "event": {
                    "contract": "0x9d93692e826a4bd9e903e2a27d7fbd1e116efdad",
                    "decodedLog": {
                        "name": "Mint",
                        "params": [
                            {
                                "name": "user",
                                "type": "address",
                                "value": "0x1a4cc1c7eb5a0b2d3cb6eb34b46c2436b150877b"
                            },
                            {
                                "name": "amount",
                                "type": "uint256",
                                "value": "250,000,000,000,000,000"
                            }
                        ],
                        "signature": "Mint(address,uint256)"
                    },
                    "id": 6,
                    "logData": "0x00000000000000000000000000000000000000000000000003782dace9d90000",
                    "logDecoded": true,
                    "operation": "EVENT",
                    "revert": false,
                    "status": true,
                    "topics": [
                        "0x0f6798a560793a54c3bcfe86a93cde1e73087d944c0ea20544137d4121396885",
                        "0x0000000000000000000000001a4cc1c7eb5a0b2d3cb6eb34b46c2436b150877b"
                    ]
                },
                "nodeType": 1
            }
        },
        "gasFlame": [
            {
                "children": [
                    {
                        "children": [
                            {
                                "children": [],
                                "depth": 0,
                                "name": "Initial Gas",
                                "value": 21404
                            },
                            {
                                "children": [
                                    {
                                        "children": [],
                                        "depth": 1,
                                        "name": "currentDay",
                                        "value": 360
                                    },
                                    {
                                        "children": [],
                                        "depth": 1,
                                        "name": "transferFrom",
                                        "value": 20207
                                    }
                                ],
                                "depth": 0,
                                "name": "Executed Gas",
                                "value": 80441
                            }
                        ],
                        "depth": -1,
                        "name": "Actual Gas Used",
                        "value": 94245
                    },
                    {
                        "children": [],
                        "depth": -1,
                        "name": "Refunded Gas",
                        "value": 7600
                    }
                ],
                "depth": -2,
                "name": "Total Gas",
                "value": 101845
            }
        ],
        "isConfirmed": true,
        "mainTrace": [
            {
                "children": [
                    {
                        "children": [
                            {
                                "children": [],
                                "depth": 1,
                                "id": 1,
                                "order": 1
                            },
                            {
                                "children": [
                                    {
                                        "children": [],
                                        "depth": 2,
                                        "id": 3,
                                        "order": 3
                                    },
                                    {
                                        "children": [],
                                        "depth": 2,
                                        "id": 4,
                                        "order": 4
                                    }
                                ],
                                "depth": 1,
                                "id": 2,
                                "order": 2
                            },
                            {
                                "children": [],
                                "depth": 1,
                                "id": 5,
                                "order": 5
                            },
                            {
                                "children": [],
                                "depth": 1,
                                "id": 6,
                                "order": 6
                            }
                        ],
                        "depth": 0,
                        "id": 0,
                        "order": 0
                    }
                ],
                "depth": -1,
                "id": -1,
                "order": -1
            }
        ],
        "mainTraceNodeCount": 7,
        "parentIdMap": {
            "0": -1,
            "1": 0,
            "2": 0,
            "3": 2,
            "4": 2,
            "5": 0,
            "6": 0
        },
        "tidyTrace": [
            {
                "children": [
                    {
                        "children": [
                            {
                                "children": [
                                    {
                                        "children": [],
                                        "depth": 2,
                                        "id": 3,
                                        "order": 3
                                    },
                                    {
                                        "children": [],
                                        "depth": 2,
                                        "id": 4,
                                        "order": 4
                                    }
                                ],
                                "depth": 1,
                                "id": 2,
                                "order": 2
                            },
                            {
                                "children": [],
                                "depth": 1,
                                "id": 5,
                                "order": 5
                            },
                            {
                                "children": [],
                                "depth": 1,
                                "id": 6,
                                "order": 6
                            }
                        ],
                        "depth": 0,
                        "id": 0,
                        "order": 0
                    }
                ],
                "depth": -1,
                "id": -1,
                "order": -1
            }
        ],
        "tidyTraceNodeCount": 6
    },
    "state_change": {
        "stateChanges": [
            {
                "address": "0x3819f64f282bf135d62168c1e513280daf905e06",
                "erc": "ERC-20",
                "slots": [
                    {
                        "current": "0x000000000000000000000000000000000000000000000000042aa22892ac427c",
                        "key": "0xed17d927bdf0e512a6b4db3aa487de38f22bbf0fac56e2615eefaa2967625f2b",
                        "prev": "0x00000000000000000000000000000000000000000000000007a2cfd57c85427c"
                    },
                    {
                        "current": "0x000000000000000000000000000000000000000000000002dd6855d3873abd67",
                        "key": "0x43a9e5d50e025e324e1957baae40d9211aff91fe805d5cab88eb30dad4cb830e",
                        "prev": "0x000000000000000000000000000000000000000000000002d9f028269d61bd67"
                    },
                    {
                        "current": "0x0000000000000000000000000000000000000000000000000000000000000000",
                        "key": "0x0e511f12e068561b1d49c900728b17cd1af9a8ca5a94aa0e77c5a127b6417b31",
                        "prev": "0x00000000000000000000000000000000000000000000000003782dace9d90000"
                    }
                ],
                "storageVariables": [
                    {
                        "name": "_balances",
                        "type": "mapping(address => uint256)",
                        "value": {
                            "pairs": [
                                {
                                    "key": "0x1a4cc1c7eb5a0b2d3cb6eb34b46c2436b150877b",
                                    "value": {
                                        "current": "300230620316713596",
                                        "prev": "550230620316713596",
                                        "typeTag": 1
                                    }
                                },
                                {
                                    "key": "0x9d93692e826a4bd9e903e2a27d7fbd1e116efdad",
                                    "value": {
                                        "current": "52847584194374319463",
                                        "prev": "52597584194374319463",
                                        "typeTag": 1
                                    }
                                }
                            ],
                            "typeTag": 4
                        }
                    },
                    {
                        "name": "_allowances",
                        "type": "mapping(address => mapping(address => uint256))",
                        "value": {
                            "pairs": [
                                {
                                    "key": "0x1a4cc1c7eb5a0b2d3cb6eb34b46c2436b150877b",
                                    "value": {
                                        "pairs": [
                                            {
                                                "key": "0x9d93692e826a4bd9e903e2a27d7fbd1e116efdad",
                                                "value": {
                                                    "current": "0",
                                                    "prev": "250000000000000000",
                                                    "typeTag": 1
                                                }
                                            }
                                        ],
                                        "typeTag": 4
                                    }
                                }
                            ],
                            "typeTag": 4
                        }
                    }
                ]
            },
            {
                "address": "0x9d93692e826a4bd9e903e2a27d7fbd1e116efdad",
                "erc": "ERC-20",
                "slots": [
                    {
                        "current": "0x000000000000000000000000000000000000000000000002dd6855d3873abd67",
                        "key": "0x0000000000000000000000000000000000000000000000000000000000000002",
                        "prev": "0x000000000000000000000000000000000000000000000002d9f028269d61bd67"
                    },
                    {
                        "current": "0x00000000000000000000000000000000000000000000000003782dace9d90000",
                        "key": "0xed17d927bdf0e512a6b4db3aa487de38f22bbf0fac56e2615eefaa2967625f2b",
                        "prev": "0x0000000000000000000000000000000000000000000000000000000000000000"
                    },
                    {
                        "current": "0x00000000000000000000000000000000000000000000000235abbaee9e131e59",
                        "key": "0x000000000000000000000000000000000000000000000000000000000000001b",
                        "prev": "0x000000000000000000000000000000000000000000000002328c5e9fcb9c9e59"
                    },
                    {
                        "current": "0x000000000000000000000000000000000000000000000000a7bc9ae4e9279eda",
                        "key": "0x000000000000000000000000000000000000000000000000000000000000001c",
                        "prev": "0x000000000000000000000000000000000000000000000000a763c986d1c51eda"
                    }
                ],
                "storageVariables": [
                    {
                        "name": "STAKING_BUDGET_TRACKER",
                        "type": "uint256",
                        "value": {
                            "current": "12086705807910477530",
                            "prev": "12061705807910477530",
                            "typeTag": 1
                        }
                    },
                    {
                        "name": "_totalSupply",
                        "type": "uint256",
                        "value": {
                            "current": "52847584194374319463",
                            "prev": "52597584194374319463",
                            "typeTag": 1
                        }
                    },
                    {
                        "name": "_balances",
                        "type": "mapping(address => uint256)",
                        "value": {
                            "pairs": [
                                {
                                    "key": "0x1a4cc1c7eb5a0b2d3cb6eb34b46c2436b150877b",
                                    "value": {
                                        "current": "250000000000000000",
                                        "prev": "0",
                                        "typeTag": 1
                                    }
                                }
                            ],
                            "typeTag": 4
                        }
                    },
                    {
                        "name": "BIDDING_BUDGET_TRACKER",
                        "type": "uint256",
                        "value": {
                            "current": "40760878386463841881",
                            "prev": "40535878386463841881",
                            "typeTag": 1
                        }
                    }
                ]
            }
        ]
    }
}