{
    "balance_change": {
        "balanceChanges": [
            {
                "account": "0xb18f9d01323e150096650ab989cfecd39d757aec",
                "assets": [
                    {
                        "address": "0xeeeeeeeeeeeeeeeeeeeeeeeeeeeeeeeeeeeeeeee",
                        "amount": "0.924499229583975346",
                        "iconUrl": "https://assets.blocksec.com/image/1663669189317-3.png",
                        "isERC1155": false,
                        "isERC721": false,
                        "sign": true,
                        "value": ""
                    }
                ]
            },
            {
                "account": "0x6ce5409b136bf42ec59ddc3a4be06e15bce273a4",
                "assets": [
                    {
                        "address": "0xeeeeeeeeeeeeeeeeeeeeeeeeeeeeeeeeeeeeeeee",
                        "amount": "0.924499229583975346",
                        "iconUrl": "https://assets.blocksec.com/image/1663669189317-3.png",
                        "isERC1155": false,
                        "isERC721": false,
                        "sign": false,
                        "value": ""
                    }
                ]
            }
        ]
    },
    "profile": {
        "basic_info": {
            "baseFee": "",
            "blockNumber": 1427953,
            "callData": "0x210968300000000000000000000000000000000041bf8ebf45244d029ef749cac1ee2e18000000000000000000000000000000009b4862506c2c42399dd1210059e560a60000000000000000000000000000000000000000000000000cd47b26ae79a3b200000000000000000000000000000000000000000000000000000000000002570000000000000000000000000000000000000000000000000000000000000000000000000000000000000000000000000000000000000000000000000000000000000000000000000000000000000000000000000000000000000000000000e000000000000000000000000000000000000000000000000000000000000000013c438d3f2df2904b6ae336c01d8c002a109cd1db29194e7027f72d04222f689a",
            "debugEnable": true,
            "errorInfo": "",
            "eventCount": 1,
            "feeRecipient": "0x2a65aca4d5fc5b5c859090a6c34d164135398226",
            "formatValue": "0",
            "gasLimit": 1000000,
            "gasPrice": "20",
            "gasUsed": 207402,
            "intTxnCount": 8,
            "internalRevert": true,
            "internalRevertMessage": "",
            "isContractCreation": false,
            "isFlashloan": false,
            "maxFee": "",
            "nonce": 170,
            "overwritedBlockNumber": -1,
            "priorityFee": "",
            "receiver": "0xcd79c72690750f079ae6ab6ccd7e7aedc03c7720",
            "revertMessage": "",
            "sender": "0xb18f9d01323e150096650ab989cfecd39d757aec",
            "simulationEnable": true,
            "sourceTxnHash": "0xafc3ec8971a6e359131b0c2654a1d20fe3f4afae3a5ad1072c57a3f88202945c",
            "status": true,
            "timestamp": "2016-04-29T22:29:01Z",
            "transactionFee": "0.00414804",
            "txnHash": "0xafc3ec8971a6e359131b0c2654a1d20fe3f4afae3a5ad1072c57a3f88202945c",
            "txnIndex": 3,
            "type": 0,
            "value": "0"
        },
        "fund_flow": [
            {
                "amount": "0.924499229583975346",
                "from": "0x6ce5409b136bf42ec59ddc3a4be06e15bce273a4",
                "id": 1,
                "isERC1155": false,
                "isERC721": false,
                "isReverted": false,
                "order": 1,
                "to": "0xb18f9d01323e150096650ab989cfecd39d757aec",
                "token": "0xeeeeeeeeeeeeeeeeeeeeeeeeeeeeeeeeeeeeeeee"
            }
        ],
        "token_infos": [
            {
                "address": "0xc02aaa39b223fe8d0a0e5c4f27ead9083c756cc2",
                "decimals": 18
            },
            {
                "address": "0xeeeeeeeeeeeeeeeeeeeeeeeeeeeeeeeeeeeeeeee",
                "decimals": 18
            }
        ]
    },
    "address_label": {
        "labels": [
            {
                "address": "0xeeeeeeeeeeeeeeeeeeeeeeeeeeeeeeeeeeeeeeee",
                "label": "Ether"
            },
            {
                "address": "0x0000000000000000000000000000000000000004",
                "label": "Precompiled"
            },
            {
                "address": "0x0000000000000000000000000000000000000001",
                "label": "Precompiled"
            },
            {
                "address": "0x0000000000000000000000000000000000000002",
                "label": "Precompiled"
            },
            {
                "address": "0x0000000000000000000000000000000000000003",
                "label": "Precompiled"
            }
        ]
    },
    "trace": {
        "accountLabels": null,
        "dataMap": {
            "-1": {
                "invocation": {
                    "address": "0xb18f9d01323e150096650ab989cfecd39d757aec",
                    "callData": "",
                    "decodedMethod": null,
                    "errorInfo": "",
                    "fromAddress": "",
                    "gasUsed": 0,
                    "id": -1,
                    "methodDecoded": false,
                    "operation": "",
                    "output": "",
                    "revert": false,
                    "revertMessage": "",
                    "selector": "",
                    "status": false,
                    "value": ""
                },
                "nodeType": 0
            },
            "0": {
                "invocation": {
                    "address": "0xcd79c72690750f079ae6ab6ccd7e7aedc03c7720",
                    "callData": "0x0000000000000000000000000000000041bf8ebf45244d029ef749cac1ee2e18000000000000000000000000000000009b4862506c2c42399dd1210059e560a60000000000000000000000000000000000000000000000000cd47b26ae79a3b200000000000000000000000000000000000000000000000000000000000002570000000000000000000000000000000000000000000000000000000000000000000000000000000000000000000000000000000000000000000000000000000000000000000000000000000000000000000000000000000000000000000000e000000000000000000000000000000000000000000000000000000000000000013c438d3f2df2904b6ae336c01d8c002a109cd1db29194e7027f72d04222f689a",
                    "decodedMethod": null,
                    "errorInfo": "",
                    "fromAddress": "0xb18f9d01323e150096650ab989cfecd39d757aec",
                    "gasUsed": 207402,
                    "id": 0,
                    "methodDecoded": false,
                    "operation": "CALL",
                    "output": "",
                    "revert": false,
                    "revertMessage": "",
                    "selector": "0x21096830",
                    "status": true,
                    "value": "0"
                },
                "nodeType": 0
            },
            "1": {
                "invocation": {
                    "address": "0x61a931c90e3c84ef7069403f3e27b558506640e4",
                    "callData": "0x000000000000000000000000000000009b4862506c2c42399dd1210059e560a6",
                    "decodedMethod": {
                        "callParams": [
                            {
                                "name": "tokenId",
                                "type": "uint256",
                                "value": "206,406,178,768,348,513,429,985,343,916,770,418,854"
                            }
                        ],
                        "constructorArguments": "",
                        "name": "getLocked",
                        "returnParams": [
                            {
                                "name": "",
                                "type": "bool",
                                "value": false
                            }
                        ],
                        "signature": "getLocked(uint256)"
                    },
                    "errorInfo": "",
                    "fromAddress": "0xcd79c72690750f079ae6ab6ccd7e7aedc03c7720",
                    "gasUsed": 668,
                    "id": 1,
                    "methodDecoded": true,
                    "operation": "CALL",
                    "output": "0x0000000000000000000000000000000000000000000000000000000000000000",
                    "revert": false,
                    "revertMessage": "",
                    "selector": "0x3b035df6",
                    "status": true,
                    "value": "0"
                },
                "nodeType": 0
            },
            "2": {
                "invocation": {
                    "address": "0x6ce5409b136bf42ec59ddc3a4be06e15bce273a4",
                    "callData": "0x000000000000000000000000000000009b4862506c2c42399dd1210059e560a60000000000000000000000000000000000000000000000000cd47b26ae79a3b20000000000000000000000000000000000000000000000000000000000000000",
                    "decodedMethod": null,
                    "errorInfo": "",
                    "fromAddress": "0xcd79c72690750f079ae6ab6ccd7e7aedc03c7720",
                    "gasUsed": 1255,
                    "id": 2,
                    "methodDecoded": false,
                    "operation": "CALL",
                    "output": "0x0000000000000000000000000000000000000000000000000000000000000001",
                    "revert": false,
                    "revertMessage": "",
                    "selector": "0x96ab9576",
                    "status": true,
                    "value": "0"
                },
                "nodeType": 0
            },
            "3": {
                "invocation": {
                    "address": "0x6ce5409b136bf42ec59ddc3a4be06e15bce273a4",
                    "callData": "0x000000000000000000000000000000009b4862506c2c42399dd1210059e560a6000000000000000000000000b18f9d01323e150096650ab989cfecd39d757aec0000000000000000000000000000000000000000000000000cd47b26ae79a3b20000000000000000000000000000000000000000000000000000000000000000000000000000000000000000000000000000000000000000000000000000000000000000000000000000000000000000000000000000000000000000000000c00000000000000000000000000000000000000000000000000000000000000000",
                    "decodedMethod": null,
                    "errorInfo": "",
                    "fromAddress": "0xcd79c72690750f079ae6ab6ccd7e7aedc03c7720",
                    "gasUsed": 23805,
                    "id": 3,
                    "methodDecoded": false,
                    "operation": "CALL",
                    "output": "0x0000000000000000000000000000000000000000000000000000000000000001",
                    "revert": false,
                    "revertMessage": "",
                    "selector": "0x753f4c37",
                    "status": true,
                    "value": "0"
                },
                "nodeType": 0
            },
            "4": {
                "invocation": {
                    "address": "0x0000000000000000000000000000000000000004",
                    "callData": "0x",
                    "decodedMethod": {
                        "callParams": [
                            {
                                "name": "data",
                                "type": "bytes",
                                "value": "0x"
                            }
                        ],
                        "constructorArguments": "",
                        "name": "dataCopy()",
                        "returnParams": [
                            {
                                "name": "data",
                                "type": "bytes",
                                "value": "0x"
                            }
                        ],
                        "signature": "dataCopy(bytes)"
                    },
                    "errorInfo": "out of gas",
                    "fromAddress": "0x6ce5409b136bf42ec59ddc3a4be06e15bce273a4",
                    "gasUsed": 3,
                    "id": 4,
                    "methodDecoded": true,
                    "operation": "CALL",
                    "output": "",
                    "revert": true,
                    "revertMessage": "",
                    "selector": "0x",
                    "status": false,
                    "value": "0"
                },
                "nodeType": 0
            },
            "5": {
                "invocation": {
                    "address": "0xb18f9d01323e150096650ab989cfecd39d757aec",
                    "callData": "0x",
                    "decodedMethod": null,
                    "errorInfo": "",
                    "fromAddress": "0x6ce5409b136bf42ec59ddc3a4be06e15bce273a4",
                    "gasUsed": 0,
                    "id": 5,
                    "methodDecoded": false,
                    "operation": "CALL",
                    "output": "",
                    "revert": false,
                    "revertMessage": "",
                    "selector": "fallback",
                    "status": true,
                    "value": "0.924499229583975346"
                },
                "nodeType": 0
            },
            "6": {
                "invocation": {
                    "address": "0x0000000000000000000000000000000000000004",
                    "callData": "0x2df2904b6ae336c01d8c002a109cd1db29194e7027f72d04222f689a",
                    "decodedMethod": {
                        "callParams": [
                            {
                                "name": "data",
                                "type": "bytes",
                                "value": "0x3c438d3f2df2904b6ae336c01d8c002a109cd1db29194e7027f72d04222f689a"
                            }
                        ],
                        "constructorArguments": "",
                        "name": "dataCopy()",
                        "returnParams": [
                            {
                                "name": "data",
                                "type": "bytes",
                                "value": "0x3c438d3f2df2904b6ae336c01d8c002a109cd1db29194e7027f72d04222f689a"
                            }
                        ],
                        "signature": "dataCopy(bytes)"
                    },
                    "errorInfo": "",
                    "fromAddress": "0xcd79c72690750f079ae6ab6ccd7e7aedc03c7720",
                    "gasUsed": 18,
                    "id": 6,
                    "methodDecoded": true,
                    "operation": "CALL",
                    "output": "0x3c438d3f2df2904b6ae336c01d8c002a109cd1db29194e7027f72d04222f689a",
                    "revert": false,
                    "revertMessage": "",
                    "selector": "0x3c438d3f",
                    "status": true,
                    "value": "0"
                },
                "nodeType": 0
            },
            "7": {
                "invocation": {
                    "address": "0xa8fe32590c78b3262702f63a2eb7b92cd6da04b2",
                    "callData": "0x0000000000000000000000000000000041bf8ebf45244d029ef749cac1ee2e18000000000000000000000000000000009b4862506c2c42399dd1210059e560a60000000000000000000000000000000000000000000000000cd47b26ae79a3b200000000000000000000000000000000000000000000000000000000000002570000000000000000000000000000000000000000000000000000000000000000000000000000000000000000000000000000000000000000000000000000000000000000000000000000000000000000000000000000000000000000000000e000000000000000000000000000000000000000000000000000000000000000013c438d3f2df2904b6ae336c01d8c002a109cd1db29194e7027f72d04222f689a",
                    "decodedMethod": null,
                    "errorInfo": "",
                    "fromAddress": "0xcd79c72690750f079ae6ab6ccd7e7aedc03c7720",
                    "gasUsed": 147717,
                    "id": 7,
                    "methodDecoded": false,
                    "operation": "CALL",
                    "output": "0x0000000000000000000000000000000000000000000000000000000000000001",
                    "revert": false,
                    "revertMessage": "",
                    "selector": "0x21096830",
                    "status": true,
                    "value": "0"
                },
                "nodeType": 0
            },
            "8": {
                "invocation": {
                    "address": "0x0000000000000000000000000000000000000004",
                    "callData": "0x2df2904b6ae336c01d8c002a109cd1db29194e7027f72d04222f689a",
                    "decodedMethod": {
                        "callParams": [
                            {
                                "name": "data",
                                "type": "bytes",
                                "value": "0x3c438d3f2df2904b6ae336c01d8c002a109cd1db29194e7027f72d04222f689a"
                            }
                        ],
                        "constructorArguments": "",
                        "name": "dataCopy()",
                        "returnParams": [
                            {
                                "name": "data",
                                "type": "bytes",
                                "value": "0x3c438d3f2df2904b6ae336c01d8c002a109cd1db29194e7027f72d04222f689a"
                            }
                        ],
                        "signature": "dataCopy(bytes)"
                    },
                    "errorInfo": "",
                    "fromAddress": "0xcd79c72690750f079ae6ab6ccd7e7aedc03c7720",
                    "gasUsed": 18,
                    "id": 8,
                    "methodDecoded": true,
                    "operation": "CALL",
                    "output": "0x3c438d3f2df2904b6ae336c01d8c002a109cd1db29194e7027f72d04222f689a",
                    "revert": false,
                    "revertMessage": "",
                    "selector": "0x3c438d3f",
                    "status": true,
                    "value": "0"
                },
                "nodeType": 0
            },
            "9": {
                "event": {
                    "contract": "0xcd79c72690750f079ae6ab6ccd7e7aedc03c7720",
                    "decodedLog": null,
                    "id": 9,
                    "logData": "0x0000000000000000000000000000000041bf8ebf45244d029ef749cac1ee2e18000000000000000000000000000000009b4862506c2c42399dd1210059e560a60000000000000000000000000000000000000000000000000cd47b26ae79a3b200000000000000000000000000000000000000000000000000000000000002570000000000000000000000000000000000000000000000000000000000000000000000000000000000000000000000000000000000000000000000000000000000000000000000000000000000000000000000000000000000000000000000e000000000000000000000000000000000000000000000000000000000000000013c438d3f2df2904b6ae336c01d8c002a109cd1db29194e7027f72d04222f689a",
                    "logDecoded": false,
                    "operation": "EVENT",
                    "revert": false,
                    "status": true,
                    "topics": [
                        "0x943e5863c321c7ff2fb76ddec4bfc3465fd7acae9166743d57cf2eb7b6d3a235"
                    ]
                },
                "nodeType": 1
            }
        },
        "gasFlame": [
            {
                "children": [
                    {
                        "children": [
                            {
                                "children": [],
                                "depth": 0,
                                "name": "Initial Gas",
                                "value": 27160
                            },
                            {
                                "children": [
                                    {
                                        "children": [],
                                        "depth": 1,
                                        "name": "getLocked",
                                        "value": 668
                                    },
                                    {
                                        "children": [],
                                        "depth": 1,
                                        "name": "0x96ab9576",
                                        "value": 1255
                                    },
                                    {
                                        "children": [
                                            {
                                                "children": [],
                                                "depth": 2,
                                                "name": "dataCopy()",
                                                "value": 3
                                            },
                                            {
                                                "children": [],
                                                "depth": 2,
                                                "name": "fallback",
                                                "value": 0
                                            }
                                        ],
                                        "depth": 1,
                                        "name": "0x753f4c37",
                                        "value": 23805
                                    },
                                    {
                                        "children": [],
                                        "depth": 1,
                                        "name": "dataCopy()",
                                        "value": 18
                                    },
                                    {
                                        "children": [],
                                        "depth": 1,
                                        "name": "0x21096830",
                                        "value": 147717
                                    },
                                    {
                                        "children": [],
                                        "depth": 1,
                                        "name": "dataCopy()",
                                        "value": 18
                                    }
                                ],
                                "depth": 0,
                                "name": "Executed Gas",
                                "value": 180242
                            }
                        ],
                        "depth": -1,
                        "name": "Actual Gas Used",
                        "value": 207402
                    },
                    {
                        "children": [],
                        "depth": -1,
                        "name": "Refunded Gas",
                        "value": 0
                    }
                ],
                "depth": -2,
                "name": "Total Gas",
                "value": 207402
            }
        ],
        "isConfirmed": true,
        "mainTrace": [
            {
                "children": [
                    {
                        "children": [
                            {
                                "children": [],
                                "depth": 1,
                                "id": 1,
                                "order": 1
                            },
                            {
                                "children": [],
                                "depth": 1,
                                "id": 2,
                                "order": 2
                            },
                            {
                                "children": [
                                    {
                                        "children": [],
                                        "depth": 2,
                                        "id": 4,
                                        "order": 4
                                    },
                                    {
                                        "children": [],
                                        "depth": 2,
                                        "id": 5,
                                        "order": 5
                                    }
                                ],
                                "depth": 1,
                                "id": 3,
                                "order": 3
                            },
                            {
                                "children": [],
                                "depth": 1,
                                "id": 6,
                                "order": 6
                            },
                            {
                                "children": [],
                                "depth": 1,
                                "id": 7,
                                "order": 7
                            },
                            {
                                "children": [],
                                "depth": 1,
                                "id": 8,
                                "order": 8
                            },
                            {
                                "children": [],
                                "depth": 1,
                                "id": 9,
                                "order": 9
                            }
                        ],
                        "depth": 0,
                        "id": 0,
                        "order": 0
                    }
                ],
                "depth": -1,
                "id": -1,
                "order": -1
            }
        ],
        "mainTraceNodeCount": 10,
        "parentIdMap": {
            "0": -1,
            "1": 0,
            "2": 0,
            "3": 0,
            "4": 3,
            "5": 3,
            "6": 0,
            "7": 0,
            "8": 0,
            "9": 0
        },
        "tidyTrace": [
            {
                "children": [
                    {
                        "children": [
                            {
                                "children": [],
                                "depth": 1,
                                "id": 1,
                                "order": 1
                            },
                            {
                                "children": [],
                                "depth": 1,
                                "id": 2,
                                "order": 2
                            },
                            {
                                "children": [
                                    {
                                        "children": [],
                                        "depth": 2,
                                        "id": 4,
                                        "order": 4
                                    },
                                    {
                                        "children": [],
                                        "depth": 2,
                                        "id": 5,
                                        "order": 5
                                    }
                                ],
                                "depth": 1,
                                "id": 3,
                                "order": 3
                            },
                            {
                                "children": [],
                                "depth": 1,
                                "id": 6,
                                "order": 6
                            },
                            {
                                "children": [],
                                "depth": 1,
                                "id": 7,
                                "order": 7
                            },
                            {
                                "children": [],
                                "depth": 1,
                                "id": 8,
                                "order": 8
                            },
                            {
                                "children": [],
                                "depth": 1,
                                "id": 9,
                                "order": 9
                            }
                        ],
                        "depth": 0,
                        "id": 0,
                        "order": 0
                    }
                ],
                "depth": -1,
                "id": -1,
                "order": -1
            }
        ],
        "tidyTraceNodeCount": 10
    },
    "state_change": {
        "stateChanges": [
            {
                "address": "0x6ce5409b136bf42ec59ddc3a4be06e15bce273a4",
                "erc": "",
                "slots": [
                    {
                        "current": "0x000000000000000000000000000000000000000000000000410ba50cc4a06c36",
                        "key": "0x0000000000000000000000000000000000000000000000000000000000000108",
                        "prev": "0x0000000000000000000000000000000000000000000000004de02033731a0fe8"
                    },
                    {
                        "current": "0x0000000000000000000000000000000000000000000000001fb7bad772875c4e",
                        "key": "0x32b04744a11fcfcdf38b5535647c20e779c2595110dab97b2770b20c910953ac",
                        "prev": "0x0000000000000000000000000000000000000000000000002c8c35fe21010000"
                    }
                ],
                "storageVariables": []
            },
            {
                "address": "0xa8fe32590c78b3262702f63a2eb7b92cd6da04b2",
                "erc": "",
                "slots": [
                    {
                        "current": "0x000000000000000000000000000000009b4862506c2c42399dd1210059e560a6",
                        "key": "0x4bcd0556202dc9ba546d9f97d7a844a7170a18d70ad12d062501d825bb38dad8",
                        "prev": "0x0000000000000000000000000000000000000000000000000000000000000000"
                    },
                    {
                        "current": "0x0000000000000000000000000000000000000000000000000cd47b26ae79a3b2",
                        "key": "0x4bcd0556202dc9ba546d9f97d7a844a7170a18d70ad12d062501d825bb38dad9",
                        "prev": "0x0000000000000000000000000000000000000000000000000000000000000000"
                    },
                    {
                        "current": "0x0000000000000000000000000000000000000000000000000000000000000257",
                        "key": "0x4bcd0556202dc9ba546d9f97d7a844a7170a18d70ad12d062501d825bb38dada",
                        "prev": "0x0000000000000000000000000000000000000000000000000000000000000000"
                    },
                    {
                        "current": "0x0000000000000000000000000000000000000000000000000000000000000001",
                        "key": "0x4bcd0556202dc9ba546d9f97d7a844a7170a18d70ad12d062501d825bb38dadd",
                        "prev": "0x0000000000000000000000000000000000000000000000000000000000000000"
                    },
                    {
                        "current": "0x3c438d3f2df2904b6ae336c01d8c002a109cd1db29194e7027f72d04222f689a",
                        "key": "0x9421522f49132d7d6672b921aa5db8db91bd758b41c03f48ac93f650fe348d66",
                        "prev": "0x0000000000000000000000000000000000000000000000000000000000000000"
                    },
                    {
                        "current": "0x000000000000000000000000000000000000000000000000000000000015c9f1",
                        "key": "0x4bcd0556202dc9ba546d9f97d7a844a7170a18d70ad12d062501d825bb38dadf",
                        "prev": "0x0000000000000000000000000000000000000000000000000000000000000000"
                    }
                ],
                "storageVariables": []
            }
        ]
    }
}