{
    "balance_change": {
        "balanceChanges": [
            {
                "account": "0xa1166d56a1a2f5ca51d18149b10b17b9b75b89e7",
                "assets": [
                    {
                        "address": "0x21ab6c9fac80c59d401b37cb43f81ea9dde7fe34",
                        "amount": "22.28",
                        "iconUrl": "",
                        "isERC1155": false,
                        "isERC721": false,
                        "sign": false,
                        "value": ""
                    }
                ]
            },
            {
                "account": "0xc97a4ed29f03fd549c4ae79086673523122d2bc5",
                "assets": [
                    {
                        "address": "0x21ab6c9fac80c59d401b37cb43f81ea9dde7fe34",
                        "amount": "22.28",
                        "iconUrl": "",
                        "isERC1155": false,
                        "isERC721": false,
                        "sign": true,
                        "value": ""
                    }
                ]
            }
        ]
    },
    "profile": {
        "basic_info": {
            "baseFee": "",
            "blockNumber": 7911429,
            "callData": "0xa9059cbb000000000000000000000000c97a4ed29f03fd549c4ae79086673523122d2bc50000000000000000000000000000000000000000000000000000000084cc9500",
            "debugEnable": true,
            "errorInfo": "",
            "eventCount": 1,
            "feeRecipient": "0xea674fdde714fd979de3edf0f56aa9716b898ec8",
            "formatValue": "0",
            "gasLimit": 92000,
            "gasPrice": "2",
            "gasUsed": 21936,
            "intTxnCount": 0,
            "internalRevert": false,
            "internalRevertMessage": "",
            "isContractCreation": false,
            "isFlashloan": false,
            "maxFee": "",
            "nonce": 26,
            "overwritedBlockNumber": -1,
            "priorityFee": "",
            "receiver": "0x21ab6c9fac80c59d401b37cb43f81ea9dde7fe34",
            "revertMessage": "",
            "sender": "0xa1166d56a1a2f5ca51d18149b10b17b9b75b89e7",
            "simulationEnable": true,
            "sourceTxnHash": "0xaf24e656c52e2a89f3cdc76f5f585ca880c921c315998de1e0300e37c6910ad4",
            "status": true,
            "timestamp": "2019-06-07T10:12:37Z",
            "transactionFee": "0.000043872",
            "txnHash": "0xaf24e656c52e2a89f3cdc76f5f585ca880c921c315998de1e0300e37c6910ad4",
            "txnIndex": 142,
            "type": 0,
            "value": "0"
        },
        "fund_flow": [
            {
                "amount": "22.28",
                "from": "0xa1166d56a1a2f5ca51d18149b10b17b9b75b89e7",
                "id": 1,
                "isERC1155": false,
                "isERC721": false,
                "isReverted": false,
                "order": 1,
                "to": "0xc97a4ed29f03fd549c4ae79086673523122d2bc5",
                "token": "0x21ab6c9fac80c59d401b37cb43f81ea9dde7fe34"
            }
        ],
        "token_infos": [
            {
                "address": "0x21ab6c9fac80c59d401b37cb43f81ea9dde7fe34",
                "decimals": 8
            },
            {
                "address": "0xc02aaa39b223fe8d0a0e5c4f27ead9083c756cc2",
                "decimals": 18
            },
            {
                "address": "0xeeeeeeeeeeeeeeeeeeeeeeeeeeeeeeeeeeeeeeee",
                "decimals": 18
            }
        ]
    },
    "address_label": {
        "labels": [
            {
                "address": "0x0000000000000000000000000000000000000004",
                "label": "Precompiled"
            },
            {
                "address": "0xeeeeeeeeeeeeeeeeeeeeeeeeeeeeeeeeeeeeeeee",
                "label": "Ether"
            },
            {
                "address": "0xc97a4ed29f03fd549c4ae79086673523122d2bc5",
                "label": "ZB.COM"
            },
            {
                "address": "0x21ab6c9fac80c59d401b37cb43f81ea9dde7fe34",
                "label": "Baer Chain: BRC Token"
            },
            {
                "address": "0x0000000000000000000000000000000000000001",
                "label": "Precompiled"
            },
            {
                "address": "0x0000000000000000000000000000000000000002",
                "label": "Precompiled"
            },
            {
                "address": "0x0000000000000000000000000000000000000003",
                "label": "Precompiled"
            }
        ]
    },
    "trace": {
        "accountLabels": null,
        "dataMap": {
            "-1": {
                "invocation": {
                    "address": "0xa1166d56a1a2f5ca51d18149b10b17b9b75b89e7",
                    "callData": "",
                    "decodedMethod": null,
                    "errorInfo": "",
                    "fromAddress": "",
                    "gasUsed": 0,
                    "id": -1,
                    "methodDecoded": false,
                    "operation": "",
                    "output": "",
                    "revert": false,
                    "revertMessage": "",
                    "selector": "",
                    "status": false,
                    "value": ""
                },
                "nodeType": 0
            },
            "0": {
                "invocation": {
                    "address": "0x21ab6c9fac80c59d401b37cb43f81ea9dde7fe34",
                    "callData": "0x000000000000000000000000c97a4ed29f03fd549c4ae79086673523122d2bc50000000000000000000000000000000000000000000000000000000084cc9500",
                    "decodedMethod": {
                        "callParams": [
                            {
                                "name": "_to",
                                "type": "address",
                                "value": "0xc97a4ed29f03fd549c4ae79086673523122d2bc5"
                            },
                            {
                                "decimalAvailable": true,
                                "name": "_amount",
                                "type": "uint256",
                                "value": "2,228,000,000"
                            }
                        ],
                        "constructorArguments": "",
                        "name": "transfer",
                        "returnParams": [
                            {
                                "name": "success",
                                "type": "bool",
                                "value": true
                            }
                        ],
                        "signature": "transfer(address,uint256)"
                    },
                    "errorInfo": "",
                    "fromAddress": "0xa1166d56a1a2f5ca51d18149b10b17b9b75b89e7",
                    "gasUsed": 21936,
                    "id": 0,
                    "methodDecoded": true,
                    "operation": "CALL",
                    "output": "0x0000000000000000000000000000000000000000000000000000000000000001",
                    "revert": false,
                    "revertMessage": "",
                    "selector": "0xa9059cbb",
                    "status": true,
                    "value": "0"
                },
                "nodeType": 0
            },
            "1": {
                "event": {
                    "contract": "0x21ab6c9fac80c59d401b37cb43f81ea9dde7fe34",
                    "decodedLog": {
                        "name": "Transfer",
                        "params": [
                            {
                                "name": "_from",
                                "type": "address",
                                "value": "0xa1166d56a1a2f5ca51d18149b10b17b9b75b89e7"
                            },
                            {
                                "name": "_to",
                                "type": "address",
                                "value": "0xc97a4ed29f03fd549c4ae79086673523122d2bc5"
                            },
                            {
                                "decimalAvailable": true,
                                "name": "_value",
                                "type": "uint256",
                                "value": "2,228,000,000"
                            }
                        ],
                        "signature": "Transfer(address,address,uint256)"
                    },
                    "id": 1,
                    "logData": "0x0000000000000000000000000000000000000000000000000000000084cc9500",
                    "logDecoded": true,
                    "operation": "EVENT",
                    "revert": false,
                    "status": true,
                    "topics": [
                        "0xddf252ad1be2c89b69c2b068fc378daa952ba7f163c4a11628f55a4df523b3ef",
                        "0x000000000000000000000000a1166d56a1a2f5ca51d18149b10b17b9b75b89e7",
                        "0x000000000000000000000000c97a4ed29f03fd549c4ae79086673523122d2bc5"
                    ]
                },
                "nodeType": 1
            }
        },
        "gasFlame": [
            {
                "children": [
                    {
                        "children": [
                            {
                                "children": [],
                                "depth": 0,
                                "name": "Initial Gas",
                                "value": 23000
                            },
                            {
                                "children": [],
                                "depth": 0,
                                "name": "Executed Gas",
                                "value": 13936
                            }
                        ],
                        "depth": -1,
                        "name": "Actual Gas Used",
                        "value": 21936
                    },
                    {
                        "children": [],
                        "depth": -1,
                        "name": "Refunded Gas",
                        "value": 15000
                    }
                ],
                "depth": -2,
                "name": "Total Gas",
                "value": 36936
            }
        ],
        "isConfirmed": true,
        "mainTrace": [
            {
                "children": [
                    {
                        "children": [
                            {
                                "children": [],
                                "depth": 1,
                                "id": 1,
                                "order": 1
                            }
                        ],
                        "depth": 0,
                        "id": 0,
                        "order": 0
                    }
                ],
                "depth": -1,
                "id": -1,
                "order": -1
            }
        ],
        "mainTraceNodeCount": 2,
        "parentIdMap": {
            "0": -1,
            "1": 0
        },
        "tidyTrace": [
            {
                "children": [
                    {
                        "children": [
                            {
                                "children": [],
                                "depth": 1,
                                "id": 1,
                                "order": 1
                            }
                        ],
                        "depth": 0,
                        "id": 0,
                        "order": 0
                    }
                ],
                "depth": -1,
                "id": -1,
                "order": -1
            }
        ],
        "tidyTraceNodeCount": 2
    },
    "state_change": {
        "stateChanges": [
            {
                "address": "0x21ab6c9fac80c59d401b37cb43f81ea9dde7fe34",
                "erc": "ERC-20",
                "slots": [
                    {
                        "current": "0x0000000000000000000000000000000000000000000000000000000000000000",
                        "key": "0x160c26afe9da79ec04412eb9b2ffdd9b208feee422046b69783c6c6436b2fbc3",
                        "prev": "0x0000000000000000000000000000000000000000000000000000000084cc9500"
                    },
                    {
                        "current": "0x00000000000000000000000000000000000000000000000000008ee934101b0a",
                        "key": "0x3c2ee91dc7ad20885cfdf61596bccd62edf1a86874d18bca0efa6c4397727d1d",
                        "prev": "0x00000000000000000000000000000000000000000000000000008ee8af43860a"
                    }
                ],
                "storageVariables": [
                    {
                        "name": "balances",
                        "type": "mapping(address => uint256)",
                        "value": {
                            "pairs": [
                                {
                                    "key": "0xa1166d56a1a2f5ca51d18149b10b17b9b75b89e7",
                                    "value": {
                                        "current": "0",
                                        "prev": "2228000000",
                                        "typeTag": 1
                                    }
                                },
                                {
                                    "key": "0xc97a4ed29f03fd549c4ae79086673523122d2bc5",
                                    "value": {
                                        "current": "157132251994890",
                                        "prev": "157130023994890",
                                        "typeTag": 1
                                    }
                                }
                            ],
                            "typeTag": 4
                        }
                    }
                ]
            }
        ]
    }
}