{
    "balance_change": {
        "balanceChanges": [
            {
                "account": "0x00ee840b6fda7705b2731206b7e85e29a76dcddd",
                "assets": [
                    {
                        "address": "0x4212fea9fec90236ecc51e41e2096b16ceb84555",
                        "amount": "13,000",
                        "iconUrl": "https://assets.blocksec.com/icon/7eb547e7ebb868b415d0fb51573b9600a1771da1d0cb2549b1856548fab22125.png",
                        "isERC1155": false,
                        "isERC721": false,
                        "sign": false,
                        "value": ""
                    }
                ]
            },
            {
                "account": "0x174641c5ac83405e1c57902df62b1bd00f28b22c",
                "assets": [
                    {
                        "address": "0x4212fea9fec90236ecc51e41e2096b16ceb84555",
                        "amount": "13,000",
                        "iconUrl": "https://assets.blocksec.com/icon/7eb547e7ebb868b415d0fb51573b9600a1771da1d0cb2549b1856548fab22125.png",
                        "isERC1155": false,
                        "isERC721": false,
                        "sign": true,
                        "value": ""
                    }
                ]
            }
        ]
    },
    "profile": {
        "basic_info": {
            "baseFee": "",
            "blockNumber": 5199839,
            "callData": "0xa9059cbb000000000000000000000000174641c5ac83405e1c57902df62b1bd00f28b22c0000000000000000000000000000000000000000000002c0bb3dd30c4e200000",
            "debugEnable": true,
            "errorInfo": "",
            "eventCount": 1,
            "feeRecipient": "0x52bc44d5378309ee2abf1539bf71de1b7d7be3b5",
            "formatValue": "0",
            "gasLimit": 400000,
            "gasPrice": "6",
            "gasUsed": 36567,
            "intTxnCount": 0,
            "internalRevert": false,
            "internalRevertMessage": "",
            "isContractCreation": false,
            "isFlashloan": false,
            "maxFee": "",
            "nonce": 8048,
            "overwritedBlockNumber": -1,
            "priorityFee": "",
            "receiver": "0x4212fea9fec90236ecc51e41e2096b16ceb84555",
            "revertMessage": "",
            "sender": "0x00ee840b6fda7705b2731206b7e85e29a76dcddd",
            "simulationEnable": true,
            "sourceTxnHash": "0xaf48b345380179128a08b74a648c4673a997a45fd09384f2ebcbffb3be6304f1",
            "status": true,
            "timestamp": "2018-03-05T08:26:25Z",
            "transactionFee": "0.000219402",
            "txnHash": "0xaf48b345380179128a08b74a648c4673a997a45fd09384f2ebcbffb3be6304f1",
            "txnIndex": 75,
            "type": 0,
            "value": "0"
        },
        "fund_flow": [
            {
                "amount": "13,000",
                "from": "0x00ee840b6fda7705b2731206b7e85e29a76dcddd",
                "id": 1,
                "isERC1155": false,
                "isERC721": false,
                "isReverted": false,
                "order": 1,
                "to": "0x174641c5ac83405e1c57902df62b1bd00f28b22c",
                "token": "0x4212fea9fec90236ecc51e41e2096b16ceb84555"
            }
        ],
        "token_infos": [
            {
                "address": "0x4212fea9fec90236ecc51e41e2096b16ceb84555",
                "decimals": 18
            },
            {
                "address": "0xc02aaa39b223fe8d0a0e5c4f27ead9083c756cc2",
                "decimals": 18
            },
            {
                "address": "0xeeeeeeeeeeeeeeeeeeeeeeeeeeeeeeeeeeeeeeee",
                "decimals": 18
            }
        ]
    },
    "address_label": {
        "labels": [
            {
                "address": "0x0000000000000000000000000000000000000003",
                "label": "Precompiled"
            },
            {
                "address": "0x0000000000000000000000000000000000000004",
                "label": "Precompiled"
            },
            {
                "address": "0xeeeeeeeeeeeeeeeeeeeeeeeeeeeeeeeeeeeeeeee",
                "label": "Ether"
            },
            {
                "address": "0x4212fea9fec90236ecc51e41e2096b16ceb84555",
                "label": "Six Domain Asset (SDA)"
            },
            {
                "address": "0x0000000000000000000000000000000000000001",
                "label": "Precompiled"
            },
            {
                "address": "0x0000000000000000000000000000000000000002",
                "label": "Precompiled"
            }
        ]
    },
    "trace": {
        "accountLabels": null,
        "dataMap": {
            "-1": {
                "invocation": {
                    "address": "0x00ee840b6fda7705b2731206b7e85e29a76dcddd",
                    "callData": "",
                    "decodedMethod": null,
                    "errorInfo": "",
                    "fromAddress": "",
                    "gasUsed": 0,
                    "id": -1,
                    "methodDecoded": false,
                    "operation": "",
                    "output": "",
                    "revert": false,
                    "revertMessage": "",
                    "selector": "",
                    "status": false,
                    "value": ""
                },
                "nodeType": 0
            },
            "0": {
                "invocation": {
                    "address": "0x4212fea9fec90236ecc51e41e2096b16ceb84555",
                    "callData": "0x000000000000000000000000174641c5ac83405e1c57902df62b1bd00f28b22c0000000000000000000000000000000000000000000002c0bb3dd30c4e200000",
                    "decodedMethod": {
                        "callParams": [
                            {
                                "name": "_to",
                                "type": "address",
                                "value": "0x174641c5ac83405e1c57902df62b1bd00f28b22c"
                            },
                            {
                                "decimalAvailable": true,
                                "name": "_value",
                                "type": "uint256",
                                "value": "13,000,000,000,000,000,000,000"
                            }
                        ],
                        "constructorArguments": "",
                        "name": "transfer",
                        "returnParams": [
                            {
                                "name": "success",
                                "type": "bool",
                                "value": true
                            }
                        ],
                        "signature": "transfer(address,uint256)"
                    },
                    "errorInfo": "",
                    "fromAddress": "0x00ee840b6fda7705b2731206b7e85e29a76dcddd",
                    "gasUsed": 36567,
                    "id": 0,
                    "methodDecoded": true,
                    "operation": "CALL",
                    "output": "0x0000000000000000000000000000000000000000000000000000000000000001",
                    "revert": false,
                    "revertMessage": "",
                    "selector": "0xa9059cbb",
                    "status": true,
                    "value": "0"
                },
                "nodeType": 0
            },
            "1": {
                "event": {
                    "contract": "0x4212fea9fec90236ecc51e41e2096b16ceb84555",
                    "decodedLog": {
                        "name": "Transfer",
                        "params": [
                            {
                                "name": "_from",
                                "type": "address",
                                "value": "0x00ee840b6fda7705b2731206b7e85e29a76dcddd"
                            },
                            {
                                "name": "_to",
                                "type": "address",
                                "value": "0x174641c5ac83405e1c57902df62b1bd00f28b22c"
                            },
                            {
                                "decimalAvailable": true,
                                "name": "_value",
                                "type": "uint256",
                                "value": "13,000,000,000,000,000,000,000"
                            }
                        ],
                        "signature": "Transfer(address,address,uint256)"
                    },
                    "id": 1,
                    "logData": "0x0000000000000000000000000000000000000000000002c0bb3dd30c4e200000",
                    "logDecoded": true,
                    "operation": "EVENT",
                    "revert": false,
                    "status": true,
                    "topics": [
                        "0xddf252ad1be2c89b69c2b068fc378daa952ba7f163c4a11628f55a4df523b3ef",
                        "0x00000000000000000000000000ee840b6fda7705b2731206b7e85e29a76dcddd",
                        "0x000000000000000000000000174641c5ac83405e1c57902df62b1bd00f28b22c"
                    ]
                },
                "nodeType": 1
            }
        },
        "gasFlame": [
            {
                "children": [
                    {
                        "children": [
                            {
                                "children": [],
                                "depth": 0,
                                "name": "Initial Gas",
                                "value": 23320
                            },
                            {
                                "children": [],
                                "depth": 0,
                                "name": "Executed Gas",
                                "value": 13247
                            }
                        ],
                        "depth": -1,
                        "name": "Actual Gas Used",
                        "value": 36567
                    },
                    {
                        "children": [],
                        "depth": -1,
                        "name": "Refunded Gas",
                        "value": 0
                    }
                ],
                "depth": -2,
                "name": "Total Gas",
                "value": 36567
            }
        ],
        "isConfirmed": true,
        "mainTrace": [
            {
                "children": [
                    {
                        "children": [
                            {
                                "children": [],
                                "depth": 1,
                                "id": 1,
                                "order": 1
                            }
                        ],
                        "depth": 0,
                        "id": 0,
                        "order": 0
                    }
                ],
                "depth": -1,
                "id": -1,
                "order": -1
            }
        ],
        "mainTraceNodeCount": 2,
        "parentIdMap": {
            "0": -1,
            "1": 0
        },
        "tidyTrace": [
            {
                "children": [
                    {
                        "children": [
                            {
                                "children": [],
                                "depth": 1,
                                "id": 1,
                                "order": 1
                            }
                        ],
                        "depth": 0,
                        "id": 0,
                        "order": 0
                    }
                ],
                "depth": -1,
                "id": -1,
                "order": -1
            }
        ],
        "tidyTraceNodeCount": 2
    },
    "state_change": {
        "stateChanges": [
            {
                "address": "0x4212fea9fec90236ecc51e41e2096b16ceb84555",
                "erc": "ERC-20",
                "slots": [
                    {
                        "current": "0x000000000000000000000000000000000000000000000581767ba6189c400000",
                        "key": "0x9c8bc9702a347d6410ca973ec0949bce9eee6727e356a2b031407b550a3e0db1",
                        "prev": "0x0000000000000000000000000000000000000000000002c0bb3dd30c4e200000"
                    },
                    {
                        "current": "0x000000000000000000000000000000000000000000755b0ebd436255b712f300",
                        "key": "0xba2037192968fa23ba0041a06b895880f1b06788aa2d7986602589f5de99fbdf",
                        "prev": "0x000000000000000000000000000000000000000000755dcf788135620532f300"
                    }
                ],
                "storageVariables": [
                    {
                        "name": "balances",
                        "type": "mapping(address => uint256)",
                        "value": {
                            "pairs": [
                                {
                                    "key": "0x00ee840b6fda7705b2731206b7e85e29a76dcddd",
                                    "value": {
                                        "current": "141874328137121999980000000",
                                        "prev": "141887328137121999980000000",
                                        "typeTag": 1
                                    }
                                },
                                {
                                    "key": "0x174641c5ac83405e1c57902df62b1bd00f28b22c",
                                    "value": {
                                        "current": "26000000000000000000000",
                                        "prev": "13000000000000000000000",
                                        "typeTag": 1
                                    }
                                }
                            ],
                            "typeTag": 4
                        }
                    }
                ]
            }
        ]
    }
}