{
    "balance_change": {
        "balanceChanges": [
            {
                "account": "0x52d8cddf3c19e5bd72aa911a9649878f74d03ce8",
                "assets": [
                    {
                        "address": "0xf1dc500fde233a4055e25e5bbf516372bc4f6871",
                        "amount": "1,371,075.535070094505193069",
                        "iconUrl": "",
                        "isERC1155": false,
                        "isERC721": false,
                        "sign": false,
                        "value": "1605.477638"
                    }
                ]
            },
            {
                "account": "0x22c0e398a8819470f37ebb80c1042a5f910545b7",
                "assets": [
                    {
                        "address": "0xf1dc500fde233a4055e25e5bbf516372bc4f6871",
                        "amount": "1,371,075.535070094505193069",
                        "iconUrl": "",
                        "isERC1155": false,
                        "isERC721": false,
                        "sign": true,
                        "value": "1605.477638"
                    }
                ]
            }
        ]
    },
    "profile": {
        "basic_info": {
            "baseFee": "26.291516955",
            "blockNumber": 17938320,
            "callData": "0xa9059cbb00000000000000000000000022c0e398a8819470f37ebb80c1042a5f910545b700000000000000000000000000000000000000000001225627581cbbce16ae6d",
            "debugEnable": true,
            "errorInfo": "",
            "eventCount": 1,
            "feeRecipient": "0x1f9090aae28b8a3dceadf281b0f12828e676c326",
            "formatValue": "0",
            "gasLimit": 80751,
            "gasPrice": "26.391516955",
            "gasUsed": 49034,
            "intTxnCount": 0,
            "internalRevert": false,
            "internalRevertMessage": "",
            "isContractCreation": false,
            "isFlashloan": false,
            "maxFee": "38.327641102",
            "nonce": 63,
            "overwritedBlockNumber": -1,
            "priorityFee": "0.1",
            "receiver": "0xf1dc500fde233a4055e25e5bbf516372bc4f6871",
            "revertMessage": "",
            "sender": "0x52d8cddf3c19e5bd72aa911a9649878f74d03ce8",
            "simulationEnable": true,
            "sourceTxnHash": "0xaf27b9aeec8bf5298f282827422f14686a4ea2ffd81093a83022d6cf4c40ef99",
            "status": true,
            "timestamp": "2023-08-18T01:11:11Z",
            "transactionFee": "0.00129408164237147",
            "txnHash": "0xaf27b9aeec8bf5298f282827422f14686a4ea2ffd81093a83022d6cf4c40ef99",
            "txnIndex": 117,
            "type": 2,
            "value": "0"
        },
        "fund_flow": [
            {
                "amount": "1,371,075.535070094505193069",
                "from": "0x52d8cddf3c19e5bd72aa911a9649878f74d03ce8",
                "id": 1,
                "isERC1155": false,
                "isERC721": false,
                "isReverted": false,
                "order": 1,
                "to": "0x22c0e398a8819470f37ebb80c1042a5f910545b7",
                "token": "0xf1dc500fde233a4055e25e5bbf516372bc4f6871"
            }
        ],
        "token_infos": [
            {
                "address": "0xf1dc500fde233a4055e25e5bbf516372bc4f6871",
                "decimals": 18
            },
            {
                "address": "0xeeeeeeeeeeeeeeeeeeeeeeeeeeeeeeeeeeeeeeee",
                "decimals": 18
            },
            {
                "address": "0xc02aaa39b223fe8d0a0e5c4f27ead9083c756cc2",
                "decimals": 18
            }
        ]
    },
    "address_label": {
        "labels": [
            {
                "address": "0x0000000000000000000000000000000000000002",
                "label": "Precompiled"
            },
            {
                "address": "0x0000000000000000000000000000000000000003",
                "label": "Precompiled"
            },
            {
                "address": "0x0000000000000000000000000000000000000004",
                "label": "Precompiled"
            },
            {
                "address": "0xeeeeeeeeeeeeeeeeeeeeeeeeeeeeeeeeeeeeeeee",
                "label": "Ether"
            },
            {
                "address": "0xf1dc500fde233a4055e25e5bbf516372bc4f6871",
                "label": "Saddle Finance: SDL Token"
            },
            {
                "address": "0x22c0e398a8819470f37ebb80c1042a5f910545b7",
                "label": "KUCOIN"
            },
            {
                "address": "0x0000000000000000000000000000000000000001",
                "label": "Precompiled"
            }
        ]
    },
    "trace": {
        "accountLabels": null,
        "dataMap": {
            "-1": {
                "invocation": {
                    "address": "0x52d8cddf3c19e5bd72aa911a9649878f74d03ce8",
                    "callData": "",
                    "decodedMethod": null,
                    "errorInfo": "",
                    "fromAddress": "",
                    "gasUsed": 0,
                    "id": -1,
                    "methodDecoded": false,
                    "operation": "",
                    "output": "",
                    "revert": false,
                    "revertMessage": "",
                    "selector": "",
                    "status": false,
                    "value": ""
                },
                "nodeType": 0
            },
            "0": {
                "invocation": {
                    "address": "0xf1dc500fde233a4055e25e5bbf516372bc4f6871",
                    "callData": "0x00000000000000000000000022c0e398a8819470f37ebb80c1042a5f910545b700000000000000000000000000000000000000000001225627581cbbce16ae6d",
                    "decodedMethod": {
                        "callParams": [
                            {
                                "name": "recipient",
                                "type": "address",
                                "value": "0x22c0e398a8819470f37ebb80c1042a5f910545b7"
                            },
                            {
                                "decimalAvailable": true,
                                "name": "amount",
                                "type": "uint256",
                                "value": "1,371,075,535,070,094,505,193,069"
                            }
                        ],
                        "constructorArguments": "",
                        "name": "transfer",
                        "returnParams": [
                            {
                                "name": "",
                                "type": "bool",
                                "value": true
                            }
                        ],
                        "signature": "transfer(address,uint256)"
                    },
                    "errorInfo": "",
                    "fromAddress": "0x52d8cddf3c19e5bd72aa911a9649878f74d03ce8",
                    "gasUsed": 49034,
                    "id": 0,
                    "methodDecoded": true,
                    "operation": "CALL",
                    "output": "0x0000000000000000000000000000000000000000000000000000000000000001",
                    "revert": false,
                    "revertMessage": "",
                    "selector": "0xa9059cbb",
                    "status": true,
                    "value": "0"
                },
                "nodeType": 0
            },
            "1": {
                "event": {
                    "contract": "0xf1dc500fde233a4055e25e5bbf516372bc4f6871",
                    "decodedLog": {
                        "name": "Transfer",
                        "params": [
                            {
                                "name": "from",
                                "type": "address",
                                "value": "0x52d8cddf3c19e5bd72aa911a9649878f74d03ce8"
                            },
                            {
                                "name": "to",
                                "type": "address",
                                "value": "0x22c0e398a8819470f37ebb80c1042a5f910545b7"
                            },
                            {
                                "decimalAvailable": true,
                                "name": "value",
                                "type": "uint256",
                                "value": "1,371,075,535,070,094,505,193,069"
                            }
                        ],
                        "signature": "Transfer(address,address,uint256)"
                    },
                    "id": 1,
                    "logData": "0x00000000000000000000000000000000000000000001225627581cbbce16ae6d",
                    "logDecoded": true,
                    "operation": "EVENT",
                    "revert": false,
                    "status": true,
                    "topics": [
                        "0xddf252ad1be2c89b69c2b068fc378daa952ba7f163c4a11628f55a4df523b3ef",
                        "0x00000000000000000000000052d8cddf3c19e5bd72aa911a9649878f74d03ce8",
                        "0x00000000000000000000000022c0e398a8819470f37ebb80c1042a5f910545b7"
                    ]
                },
                "nodeType": 1
            }
        },
        "gasFlame": [
            {
                "children": [
                    {
                        "children": [
                            {
                                "children": [],
                                "depth": 0,
                                "name": "Initial Gas",
                                "value": 21692
                            },
                            {
                                "children": [],
                                "depth": 0,
                                "name": "Executed Gas",
                                "value": 32142
                            }
                        ],
                        "depth": -1,
                        "name": "Actual Gas Used",
                        "value": 49034
                    },
                    {
                        "children": [],
                        "depth": -1,
                        "name": "Refunded Gas",
                        "value": 4800
                    }
                ],
                "depth": -2,
                "name": "Total Gas",
                "value": 53834
            }
        ],
        "isConfirmed": true,
        "mainTrace": [
            {
                "children": [
                    {
                        "children": [
                            {
                                "children": [],
                                "depth": 1,
                                "id": 1,
                                "order": 1
                            }
                        ],
                        "depth": 0,
                        "id": 0,
                        "order": 0
                    }
                ],
                "depth": -1,
                "id": -1,
                "order": -1
            }
        ],
        "mainTraceNodeCount": 2,
        "parentIdMap": {
            "0": -1,
            "1": 0
        },
        "tidyTrace": [
            {
                "children": [
                    {
                        "children": [
                            {
                                "children": [],
                                "depth": 1,
                                "id": 1,
                                "order": 1
                            }
                        ],
                        "depth": 0,
                        "id": 0,
                        "order": 0
                    }
                ],
                "depth": -1,
                "id": -1,
                "order": -1
            }
        ],
        "tidyTraceNodeCount": 2
    },
    "state_change": {
        "stateChanges": [
            {
                "address": "0xf1dc500fde233a4055e25e5bbf516372bc4f6871",
                "erc": "ERC-20",
                "slots": [
                    {
                        "current": "0x00000000000000000000000000000000000000000001225627581cbbce16ae6d",
                        "key": "0x33e3526a151f5504ba2b4afadb4a5140a5080040b71d537eec607883f2707bf6",
                        "prev": "0x0000000000000000000000000000000000000000000000000000000000000000"
                    },
                    {
                        "current": "0x0000000000000000000000000000000000000000000000000000000000000000",
                        "key": "0xeb12bcf448769e55f11606669f63ce90792e9a528afdefdb1f7d931c7eddad74",
                        "prev": "0x00000000000000000000000000000000000000000001225627581cbbce16ae6d"
                    }
                ],
                "storageVariables": [
                    {
                        "name": "_balances",
                        "type": "mapping(address => uint256)",
                        "value": {
                            "pairs": [
                                {
                                    "key": "0x22c0e398a8819470f37ebb80c1042a5f910545b7",
                                    "value": {
                                        "current": "1371075535070094505193069",
                                        "prev": "0",
                                        "typeTag": 1
                                    }
                                },
                                {
                                    "key": "0x52d8cddf3c19e5bd72aa911a9649878f74d03ce8",
                                    "value": {
                                        "current": "0",
                                        "prev": "1371075535070094505193069",
                                        "typeTag": 1
                                    }
                                }
                            ],
                            "typeTag": 4
                        }
                    }
                ]
            }
        ]
    }
}