{
    "balance_change": {
        "balanceChanges": [
            {
                "account": "0xa453b444a5353c0ae1ae09addc2aecc2427a9d06",
                "assets": [
                    {
                        "address": "0xbcc394d45c3613530a83cae62c716dc23b7f2152",
                        "amount": "3.75",
                        "iconUrl": "",
                        "isERC1155": false,
                        "isERC721": false,
                        "sign": true,
                        "value": ""
                    }
                ]
            },
            {
                "account": "0x1aa86fbbfb71282fb4cbab37acda0c099ecfe857",
                "assets": [
                    {
                        "address": "0xbcc394d45c3613530a83cae62c716dc23b7f2152",
                        "amount": "3.75",
                        "iconUrl": "",
                        "isERC1155": false,
                        "isERC721": false,
                        "sign": false,
                        "value": ""
                    }
                ]
            }
        ]
    },
    "profile": {
        "basic_info": {
            "baseFee": "",
            "blockNumber": 9674690,
            "callData": "0x01c6adc30000000000000000000000001aa86fbbfb71282fb4cbab37acda0c099ecfe8570000000000000000000000000000000000000000000000000000000000000177",
            "debugEnable": true,
            "errorInfo": "",
            "eventCount": 1,
            "feeRecipient": "0xaa5c4244f05c92781c4f259913319d8ba1acf05e",
            "formatValue": "0",
            "gasLimit": 90000,
            "gasPrice": "3",
            "gasUsed": 42117,
            "intTxnCount": 0,
            "internalRevert": false,
            "internalRevertMessage": "",
            "isContractCreation": false,
            "isFlashloan": false,
            "maxFee": "",
            "nonce": 339329,
            "overwritedBlockNumber": -1,
            "priorityFee": "",
            "receiver": "0xbcc394d45c3613530a83cae62c716dc23b7f2152",
            "revertMessage": "",
            "sender": "0xa453b444a5353c0ae1ae09addc2aecc2427a9d06",
            "simulationEnable": true,
            "sourceTxnHash": "0xaf411160451e45fdad810447fde67f8e2e4dc33001172d3f1ccb279ed74bbe9b",
            "status": true,
            "timestamp": "2020-03-15T07:28:56Z",
            "transactionFee": "0.000126351",
            "txnHash": "0xaf411160451e45fdad810447fde67f8e2e4dc33001172d3f1ccb279ed74bbe9b",
            "txnIndex": 29,
            "type": 0,
            "value": "0"
        },
        "fund_flow": [
            {
                "amount": "3.75",
                "from": "0x1aa86fbbfb71282fb4cbab37acda0c099ecfe857",
                "id": 1,
                "isERC1155": false,
                "isERC721": false,
                "isReverted": false,
                "order": 1,
                "to": "0xa453b444a5353c0ae1ae09addc2aecc2427a9d06",
                "token": "0xbcc394d45c3613530a83cae62c716dc23b7f2152"
            }
        ],
        "token_infos": [
            {
                "address": "0xbcc394d45c3613530a83cae62c716dc23b7f2152",
                "decimals": 2
            },
            {
                "address": "0xc02aaa39b223fe8d0a0e5c4f27ead9083c756cc2",
                "decimals": 18
            },
            {
                "address": "0xeeeeeeeeeeeeeeeeeeeeeeeeeeeeeeeeeeeeeeee",
                "decimals": 18
            }
        ]
    },
    "address_label": {
        "labels": [
            {
                "address": "0xeeeeeeeeeeeeeeeeeeeeeeeeeeeeeeeeeeeeeeee",
                "label": "Ether"
            },
            {
                "address": "0xbcc394d45c3613530a83cae62c716dc23b7f2152",
                "label": "EC-Token (ECT)"
            },
            {
                "address": "0x0000000000000000000000000000000000000001",
                "label": "Precompiled"
            },
            {
                "address": "0x0000000000000000000000000000000000000002",
                "label": "Precompiled"
            },
            {
                "address": "0x0000000000000000000000000000000000000003",
                "label": "Precompiled"
            },
            {
                "address": "0x0000000000000000000000000000000000000004",
                "label": "Precompiled"
            }
        ]
    },
    "trace": {
        "accountLabels": null,
        "dataMap": {
            "-1": {
                "invocation": {
                    "address": "0xa453b444a5353c0ae1ae09addc2aecc2427a9d06",
                    "callData": "",
                    "decodedMethod": null,
                    "errorInfo": "",
                    "fromAddress": "",
                    "gasUsed": 0,
                    "id": -1,
                    "methodDecoded": false,
                    "operation": "",
                    "output": "",
                    "revert": false,
                    "revertMessage": "",
                    "selector": "",
                    "status": false,
                    "value": ""
                },
                "nodeType": 0
            },
            "0": {
                "invocation": {
                    "address": "0xbcc394d45c3613530a83cae62c716dc23b7f2152",
                    "callData": "0x0000000000000000000000001aa86fbbfb71282fb4cbab37acda0c099ecfe8570000000000000000000000000000000000000000000000000000000000000177",
                    "decodedMethod": {
                        "callParams": [
                            {
                                "name": "addde",
                                "type": "address",
                                "value": "0x1aa86fbbfb71282fb4cbab37acda0c099ecfe857"
                            },
                            {
                                "name": "uinttt",
                                "type": "uint256",
                                "value": "375"
                            }
                        ],
                        "constructorArguments": "",
                        "name": "transferFrom",
                        "returnParams": [],
                        "signature": "transferFrom(address,uint256)"
                    },
                    "errorInfo": "",
                    "fromAddress": "0xa453b444a5353c0ae1ae09addc2aecc2427a9d06",
                    "gasUsed": 42117,
                    "id": 0,
                    "methodDecoded": true,
                    "operation": "CALL",
                    "output": "",
                    "revert": false,
                    "revertMessage": "",
                    "selector": "0x01c6adc3",
                    "status": true,
                    "value": "0"
                },
                "nodeType": 0
            },
            "1": {
                "event": {
                    "contract": "0xbcc394d45c3613530a83cae62c716dc23b7f2152",
                    "decodedLog": {
                        "name": "Transfer",
                        "params": [
                            {
                                "name": "from",
                                "type": "address",
                                "value": "0x1aa86fbbfb71282fb4cbab37acda0c099ecfe857"
                            },
                            {
                                "name": "to",
                                "type": "address",
                                "value": "0xa453b444a5353c0ae1ae09addc2aecc2427a9d06"
                            },
                            {
                                "decimalAvailable": true,
                                "name": "value",
                                "type": "uint256",
                                "value": "375"
                            }
                        ],
                        "signature": "Transfer(address,address,uint256)"
                    },
                    "id": 1,
                    "logData": "0x0000000000000000000000000000000000000000000000000000000000000177",
                    "logDecoded": true,
                    "operation": "EVENT",
                    "revert": false,
                    "status": true,
                    "topics": [
                        "0xddf252ad1be2c89b69c2b068fc378daa952ba7f163c4a11628f55a4df523b3ef",
                        "0x0000000000000000000000001aa86fbbfb71282fb4cbab37acda0c099ecfe857",
                        "0x000000000000000000000000a453b444a5353c0ae1ae09addc2aecc2427a9d06"
                    ]
                },
                "nodeType": 1
            }
        },
        "gasFlame": [
            {
                "children": [
                    {
                        "children": [
                            {
                                "children": [],
                                "depth": 0,
                                "name": "Initial Gas",
                                "value": 21584
                            },
                            {
                                "children": [],
                                "depth": 0,
                                "name": "Executed Gas",
                                "value": 20533
                            }
                        ],
                        "depth": -1,
                        "name": "Actual Gas Used",
                        "value": 42117
                    },
                    {
                        "children": [],
                        "depth": -1,
                        "name": "Refunded Gas",
                        "value": 0
                    }
                ],
                "depth": -2,
                "name": "Total Gas",
                "value": 42117
            }
        ],
        "isConfirmed": true,
        "mainTrace": [
            {
                "children": [
                    {
                        "children": [
                            {
                                "children": [],
                                "depth": 1,
                                "id": 1,
                                "order": 1
                            }
                        ],
                        "depth": 0,
                        "id": 0,
                        "order": 0
                    }
                ],
                "depth": -1,
                "id": -1,
                "order": -1
            }
        ],
        "mainTraceNodeCount": 2,
        "parentIdMap": {
            "0": -1,
            "1": 0
        },
        "tidyTrace": [
            {
                "children": [
                    {
                        "children": [
                            {
                                "children": [],
                                "depth": 1,
                                "id": 1,
                                "order": 1
                            }
                        ],
                        "depth": 0,
                        "id": 0,
                        "order": 0
                    }
                ],
                "depth": -1,
                "id": -1,
                "order": -1
            }
        ],
        "tidyTraceNodeCount": 2
    },
    "state_change": {
        "stateChanges": [
            {
                "address": "0xbcc394d45c3613530a83cae62c716dc23b7f2152",
                "erc": "",
                "slots": [
                    {
                        "current": "0x00000000000000000000000000000000000000000000000000000000026e3170",
                        "key": "0x7c0d74c62b57ed9b18bf8181bf260f94f80f58ad9852506e7bd6aaf045077bc0",
                        "prev": "0x00000000000000000000000000000000000000000000000000000000026e32e7"
                    },
                    {
                        "current": "0x00000000000000000000000000000000000000000000000000000006dbcc0869",
                        "key": "0x4355fdaff3261d7f48c510303127ba2a436db0a28b70e576e3a6c6a256468970",
                        "prev": "0x00000000000000000000000000000000000000000000000000000006dbcc06f2"
                    }
                ],
                "storageVariables": []
            }
        ]
    }
}