{
    "balance_change": {
        "balanceChanges": [
            {
                "account": "0x0000000000000000000000000000000000000000",
                "assets": [
                    {
                        "address": "0x226bf5293692610692e2c996c9875c914d2a7f73",
                        "amount": "28",
                        "iconUrl": "",
                        "isERC1155": true,
                        "isERC721": false,
                        "sign": false,
                        "tokenID": "5",
                        "value": ""
                    }
                ]
            },
            {
                "account": "0x9608e083fc15a5361302bc83660e24a78d10aa26",
                "assets": [
                    {
                        "address": "0x226bf5293692610692e2c996c9875c914d2a7f73",
                        "amount": "2",
                        "iconUrl": "",
                        "isERC1155": true,
                        "isERC721": false,
                        "sign": true,
                        "tokenID": "5",
                        "value": ""
                    }
                ]
            },
            {
                "account": "0x3044ea6e645aa0d75c3f0f0342f449a150f2b76e",
                "assets": [
                    {
                        "address": "0x226bf5293692610692e2c996c9875c914d2a7f73",
                        "amount": "1",
                        "iconUrl": "",
                        "isERC1155": true,
                        "isERC721": false,
                        "sign": true,
                        "tokenID": "5",
                        "value": ""
                    }
                ]
            },
            {
                "account": "0x402554481d11d1769002a3ffb181459f65d6e6dd",
                "assets": [
                    {
                        "address": "0x226bf5293692610692e2c996c9875c914d2a7f73",
                        "amount": "2",
                        "iconUrl": "",
                        "isERC1155": true,
                        "isERC721": false,
                        "sign": true,
                        "tokenID": "5",
                        "value": ""
                    }
                ]
            },
            {
                "account": "0x3e17258a44f938db9803c18c3c762653f5a23e54",
                "assets": [
                    {
                        "address": "0x226bf5293692610692e2c996c9875c914d2a7f73",
                        "amount": "4",
                        "iconUrl": "",
                        "isERC1155": true,
                        "isERC721": false,
                        "sign": true,
                        "tokenID": "5",
                        "value": ""
                    }
                ]
            },
            {
                "account": "0x08d1fc8cb23a9a31ffd3ee45a22704f47476d820",
                "assets": [
                    {
                        "address": "0x226bf5293692610692e2c996c9875c914d2a7f73",
                        "amount": "3",
                        "iconUrl": "",
                        "isERC1155": true,
                        "isERC721": false,
                        "sign": true,
                        "tokenID": "5",
                        "value": ""
                    }
                ]
            },
            {
                "account": "0xe83ad21ed506f0e045728a734db65345470bcfab",
                "assets": [
                    {
                        "address": "0x226bf5293692610692e2c996c9875c914d2a7f73",
                        "amount": "9",
                        "iconUrl": "",
                        "isERC1155": true,
                        "isERC721": false,
                        "sign": true,
                        "tokenID": "5",
                        "value": ""
                    }
                ]
            },
            {
                "account": "0xc66916850600ce4aec811b42b9a38cd353cfc63a",
                "assets": [
                    {
                        "address": "0x226bf5293692610692e2c996c9875c914d2a7f73",
                        "amount": "2",
                        "iconUrl": "",
                        "isERC1155": true,
                        "isERC721": false,
                        "sign": true,
                        "tokenID": "5",
                        "value": ""
                    }
                ]
            },
            {
                "account": "0xf5a1d2a88bb623709db0dca48a5d0b5c7292de13",
                "assets": [
                    {
                        "address": "0x226bf5293692610692e2c996c9875c914d2a7f73",
                        "amount": "2",
                        "iconUrl": "",
                        "isERC1155": true,
                        "isERC721": false,
                        "sign": true,
                        "tokenID": "5",
                        "value": ""
                    }
                ]
            },
            {
                "account": "0xf461b7e6cc342d2942379cab5332671d4b9eefee",
                "assets": [
                    {
                        "address": "0x226bf5293692610692e2c996c9875c914d2a7f73",
                        "amount": "2",
                        "iconUrl": "",
                        "isERC1155": true,
                        "isERC721": false,
                        "sign": true,
                        "tokenID": "5",
                        "value": ""
                    }
                ]
            },
            {
                "account": "0x05aaf516cc369e4b785fd27ec850834f05bdd3e2",
                "assets": [
                    {
                        "address": "0x226bf5293692610692e2c996c9875c914d2a7f73",
                        "amount": "1",
                        "iconUrl": "",
                        "isERC1155": true,
                        "isERC721": false,
                        "sign": true,
                        "tokenID": "5",
                        "value": ""
                    }
                ]
            }
        ]
    },
    "profile": {
        "basic_info": {
            "baseFee": "54.304343262",
            "blockNumber": 13874652,
            "callData": "0x1dbeeb4e0000000000000000000000000000000000000000000000000000000000000005000000000000000000000000000000000000000000000000000000000000006000000000000000000000000000000000000000000000000000000000000001c0000000000000000000000000000000000000000000000000000000000000000a000000000000000000000000e83ad21ed506f0e045728a734db65345470bcfab000000000000000000000000c66916850600ce4aec811b42b9a38cd353cfc63a0000000000000000000000009608e083fc15a5361302bc83660e24a78d10aa26000000000000000000000000f5a1d2a88bb623709db0dca48a5d0b5c7292de13000000000000000000000000f461b7e6cc342d2942379cab5332671d4b9eefee00000000000000000000000005aaf516cc369e4b785fd27ec850834f05bdd3e20000000000000000000000003044ea6e645aa0d75c3f0f0342f449a150f2b76e000000000000000000000000402554481d11d1769002a3ffb181459f65d6e6dd0000000000000000000000003e17258a44f938db9803c18c3c762653f5a23e5400000000000000000000000008d1fc8cb23a9a31ffd3ee45a22704f47476d820000000000000000000000000000000000000000000000000000000000000000a0000000000000000000000000000000000000000000000000000000000000009000000000000000000000000000000000000000000000000000000000000000200000000000000000000000000000000000000000000000000000000000000020000000000000000000000000000000000000000000000000000000000000002000000000000000000000000000000000000000000000000000000000000000200000000000000000000000000000000000000000000000000000000000000010000000000000000000000000000000000000000000000000000000000000001000000000000000000000000000000000000000000000000000000000000000200000000000000000000000000000000000000000000000000000000000000040000000000000000000000000000000000000000000000000000000000000003",
            "debugEnable": true,
            "errorInfo": "",
            "eventCount": 20,
            "feeRecipient": "0x8f03f1a3f10c05e7cccf75c1fd10168e06659be7",
            "formatValue": "0",
            "gasLimit": 1524465,
            "gasPrice": "62.402399111",
            "gasUsed": 1501185,
            "intTxnCount": 1,
            "internalRevert": false,
            "internalRevertMessage": "",
            "isContractCreation": false,
            "isFlashloan": false,
            "maxFee": "",
            "nonce": 2397,
            "overwritedBlockNumber": -1,
            "priorityFee": "",
            "receiver": "0x226bf5293692610692e2c996c9875c914d2a7f73",
            "revertMessage": "",
            "sender": "0x623fc4f577926c0aadaef11a243754c546c1f98c",
            "simulationEnable": true,
            "sourceTxnHash": "0xafda94b0a7134a8823b7f9743a377811322590c8f38c800deafb1d9a2f837059",
            "status": true,
            "timestamp": "2021-12-25T13:39:04Z",
            "transactionFee": "0.093677545509446535",
            "txnHash": "0xafda94b0a7134a8823b7f9743a377811322590c8f38c800deafb1d9a2f837059",
            "txnIndex": 5,
            "type": 0,
            "value": "0"
        },
        "fund_flow": [
            {
                "amount": "9",
                "from": "0x0000000000000000000000000000000000000000",
                "id": 1,
                "isERC1155": true,
                "isERC721": false,
                "isReverted": false,
                "order": 1,
                "to": "0xe83ad21ed506f0e045728a734db65345470bcfab",
                "token": "0x226bf5293692610692e2c996c9875c914d2a7f73",
                "tokenID": "5"
            },
            {
                "amount": "2",
                "from": "0x0000000000000000000000000000000000000000",
                "id": 2,
                "isERC1155": true,
                "isERC721": false,
                "isReverted": false,
                "order": 2,
                "to": "0xc66916850600ce4aec811b42b9a38cd353cfc63a",
                "token": "0x226bf5293692610692e2c996c9875c914d2a7f73",
                "tokenID": "5"
            },
            {
                "amount": "2",
                "from": "0x0000000000000000000000000000000000000000",
                "id": 3,
                "isERC1155": true,
                "isERC721": false,
                "isReverted": false,
                "order": 3,
                "to": "0x9608e083fc15a5361302bc83660e24a78d10aa26",
                "token": "0x226bf5293692610692e2c996c9875c914d2a7f73",
                "tokenID": "5"
            },
            {
                "amount": "2",
                "from": "0x0000000000000000000000000000000000000000",
                "id": 4,
                "isERC1155": true,
                "isERC721": false,
                "isReverted": false,
                "order": 4,
                "to": "0xf5a1d2a88bb623709db0dca48a5d0b5c7292de13",
                "token": "0x226bf5293692610692e2c996c9875c914d2a7f73",
                "tokenID": "5"
            },
            {
                "amount": "2",
                "from": "0x0000000000000000000000000000000000000000",
                "id": 5,
                "isERC1155": true,
                "isERC721": false,
                "isReverted": false,
                "order": 5,
                "to": "0xf461b7e6cc342d2942379cab5332671d4b9eefee",
                "token": "0x226bf5293692610692e2c996c9875c914d2a7f73",
                "tokenID": "5"
            },
            {
                "amount": "1",
                "from": "0x0000000000000000000000000000000000000000",
                "id": 6,
                "isERC1155": true,
                "isERC721": false,
                "isReverted": false,
                "order": 6,
                "to": "0x05aaf516cc369e4b785fd27ec850834f05bdd3e2",
                "token": "0x226bf5293692610692e2c996c9875c914d2a7f73",
                "tokenID": "5"
            },
            {
                "amount": "1",
                "from": "0x0000000000000000000000000000000000000000",
                "id": 7,
                "isERC1155": true,
                "isERC721": false,
                "isReverted": false,
                "order": 7,
                "to": "0x3044ea6e645aa0d75c3f0f0342f449a150f2b76e",
                "token": "0x226bf5293692610692e2c996c9875c914d2a7f73",
                "tokenID": "5"
            },
            {
                "amount": "2",
                "from": "0x0000000000000000000000000000000000000000",
                "id": 8,
                "isERC1155": true,
                "isERC721": false,
                "isReverted": false,
                "order": 8,
                "to": "0x402554481d11d1769002a3ffb181459f65d6e6dd",
                "token": "0x226bf5293692610692e2c996c9875c914d2a7f73",
                "tokenID": "5"
            },
            {
                "amount": "4",
                "from": "0x0000000000000000000000000000000000000000",
                "id": 9,
                "isERC1155": true,
                "isERC721": false,
                "isReverted": false,
                "order": 9,
                "to": "0x3e17258a44f938db9803c18c3c762653f5a23e54",
                "token": "0x226bf5293692610692e2c996c9875c914d2a7f73",
                "tokenID": "5"
            },
            {
                "amount": "3",
                "from": "0x0000000000000000000000000000000000000000",
                "id": 10,
                "isERC1155": true,
                "isERC721": false,
                "isReverted": false,
                "order": 10,
                "to": "0x08d1fc8cb23a9a31ffd3ee45a22704f47476d820",
                "token": "0x226bf5293692610692e2c996c9875c914d2a7f73",
                "tokenID": "5"
            }
        ],
        "token_infos": [
            {
                "address": "0xc02aaa39b223fe8d0a0e5c4f27ead9083c756cc2",
                "decimals": 18
            },
            {
                "address": "0xeeeeeeeeeeeeeeeeeeeeeeeeeeeeeeeeeeeeeeee",
                "decimals": 18
            }
        ]
    },
    "address_label": {
        "labels": [
            {
                "address": "0xeeeeeeeeeeeeeeeeeeeeeeeeeeeeeeeeeeeeeeee",
                "label": "Ether"
            },
            {
                "address": "0x226bf5293692610692e2c996c9875c914d2a7f73",
                "label": "oncyber labs: Cyber Token"
            },
            {
                "address": "0x623fc4f577926c0aadaef11a243754c546c1f98c",
                "label": "RTFKT: Deployer"
            },
            {
                "address": "0x0000000000000000000000000000000000000001",
                "label": "Precompiled"
            },
            {
                "address": "0x0000000000000000000000000000000000000002",
                "label": "Precompiled"
            },
            {
                "address": "0x0000000000000000000000000000000000000003",
                "label": "Precompiled"
            },
            {
                "address": "0x0000000000000000000000000000000000000004",
                "label": "Precompiled"
            }
        ]
    },
    "trace": {
        "accountLabels": null,
        "dataMap": {
            "-1": {
                "invocation": {
                    "address": "0x623fc4f577926c0aadaef11a243754c546c1f98c",
                    "callData": "",
                    "decodedMethod": null,
                    "errorInfo": "",
                    "fromAddress": "",
                    "gasUsed": 0,
                    "id": -1,
                    "methodDecoded": false,
                    "operation": "",
                    "output": "",
                    "revert": false,
                    "revertMessage": "",
                    "selector": "",
                    "status": false,
                    "value": ""
                },
                "nodeType": 0
            },
            "0": {
                "invocation": {
                    "address": "0x226bf5293692610692e2c996c9875c914d2a7f73",
                    "callData": "0x0000000000000000000000000000000000000000000000000000000000000005000000000000000000000000000000000000000000000000000000000000006000000000000000000000000000000000000000000000000000000000000001c0000000000000000000000000000000000000000000000000000000000000000a000000000000000000000000e83ad21ed506f0e045728a734db65345470bcfab000000000000000000000000c66916850600ce4aec811b42b9a38cd353cfc63a0000000000000000000000009608e083fc15a5361302bc83660e24a78d10aa26000000000000000000000000f5a1d2a88bb623709db0dca48a5d0b5c7292de13000000000000000000000000f461b7e6cc342d2942379cab5332671d4b9eefee00000000000000000000000005aaf516cc369e4b785fd27ec850834f05bdd3e20000000000000000000000003044ea6e645aa0d75c3f0f0342f449a150f2b76e000000000000000000000000402554481d11d1769002a3ffb181459f65d6e6dd0000000000000000000000003e17258a44f938db9803c18c3c762653f5a23e5400000000000000000000000008d1fc8cb23a9a31ffd3ee45a22704f47476d820000000000000000000000000000000000000000000000000000000000000000a0000000000000000000000000000000000000000000000000000000000000009000000000000000000000000000000000000000000000000000000000000000200000000000000000000000000000000000000000000000000000000000000020000000000000000000000000000000000000000000000000000000000000002000000000000000000000000000000000000000000000000000000000000000200000000000000000000000000000000000000000000000000000000000000010000000000000000000000000000000000000000000000000000000000000001000000000000000000000000000000000000000000000000000000000000000200000000000000000000000000000000000000000000000000000000000000040000000000000000000000000000000000000000000000000000000000000003",
                    "decodedMethod": {
                        "callParams": [
                            {
                                "name": "id",
                                "type": "uint256",
                                "value": "5"
                            },
                            {
                                "name": "tos",
                                "type": "address[]",
                                "value": [
                                    "0xe83ad21ed506f0e045728a734db65345470bcfab",
                                    "0xc66916850600ce4aec811b42b9a38cd353cfc63a",
                                    "0x9608e083fc15a5361302bc83660e24a78d10aa26",
                                    "0xf5a1d2a88bb623709db0dca48a5d0b5c7292de13",
                                    "0xf461b7e6cc342d2942379cab5332671d4b9eefee",
                                    "0x05aaf516cc369e4b785fd27ec850834f05bdd3e2",
                                    "0x3044ea6e645aa0d75c3f0f0342f449a150f2b76e",
                                    "0x402554481d11d1769002a3ffb181459f65d6e6dd",
                                    "0x3e17258a44f938db9803c18c3c762653f5a23e54",
                                    "0x08d1fc8cb23a9a31ffd3ee45a22704f47476d820"
                                ]
                            },
                            {
                                "name": "amounts",
                                "type": "uint256[]",
                                "value": [
                                    "9",
                                    "2",
                                    "2",
                                    "2",
                                    "2",
                                    "1",
                                    "1",
                                    "2",
                                    "4",
                                    "3"
                                ]
                            }
                        ],
                        "constructorArguments": "",
                        "name": "batchMint",
                        "returnParams": [],
                        "signature": "batchMint(uint256,address[],uint256[])"
                    },
                    "errorInfo": "",
                    "fromAddress": "0x623fc4f577926c0aadaef11a243754c546c1f98c",
                    "gasUsed": 1501185,
                    "id": 0,
                    "methodDecoded": true,
                    "operation": "CALL",
                    "output": "0x0000000000000000000000000000000000000000000000000000000000000001",
                    "revert": false,
                    "revertMessage": "",
                    "selector": "0x1dbeeb4e",
                    "status": true,
                    "value": "0"
                },
                "nodeType": 0
            },
            "1": {
                "invocation": {
                    "address": "0x54380e54d2d480636c70430e93b8a006b866e839",
                    "callData": "0x0000000000000000000000000000000000000000000000000000000000000005000000000000000000000000000000000000000000000000000000000000006000000000000000000000000000000000000000000000000000000000000001c0000000000000000000000000000000000000000000000000000000000000000a000000000000000000000000e83ad21ed506f0e045728a734db65345470bcfab000000000000000000000000c66916850600ce4aec811b42b9a38cd353cfc63a0000000000000000000000009608e083fc15a5361302bc83660e24a78d10aa26000000000000000000000000f5a1d2a88bb623709db0dca48a5d0b5c7292de13000000000000000000000000f461b7e6cc342d2942379cab5332671d4b9eefee00000000000000000000000005aaf516cc369e4b785fd27ec850834f05bdd3e20000000000000000000000003044ea6e645aa0d75c3f0f0342f449a150f2b76e000000000000000000000000402554481d11d1769002a3ffb181459f65d6e6dd0000000000000000000000003e17258a44f938db9803c18c3c762653f5a23e5400000000000000000000000008d1fc8cb23a9a31ffd3ee45a22704f47476d820000000000000000000000000000000000000000000000000000000000000000a0000000000000000000000000000000000000000000000000000000000000009000000000000000000000000000000000000000000000000000000000000000200000000000000000000000000000000000000000000000000000000000000020000000000000000000000000000000000000000000000000000000000000002000000000000000000000000000000000000000000000000000000000000000200000000000000000000000000000000000000000000000000000000000000010000000000000000000000000000000000000000000000000000000000000001000000000000000000000000000000000000000000000000000000000000000200000000000000000000000000000000000000000000000000000000000000040000000000000000000000000000000000000000000000000000000000000003",
                    "decodedMethod": {
                        "callParams": [
                            {
                                "name": "id",
                                "type": "uint256",
                                "value": "5"
                            },
                            {
                                "name": "tos",
                                "type": "address[]",
                                "value": [
                                    "0xe83ad21ed506f0e045728a734db65345470bcfab",
                                    "0xc66916850600ce4aec811b42b9a38cd353cfc63a",
                                    "0x9608e083fc15a5361302bc83660e24a78d10aa26",
                                    "0xf5a1d2a88bb623709db0dca48a5d0b5c7292de13",
                                    "0xf461b7e6cc342d2942379cab5332671d4b9eefee",
                                    "0x05aaf516cc369e4b785fd27ec850834f05bdd3e2",
                                    "0x3044ea6e645aa0d75c3f0f0342f449a150f2b76e",
                                    "0x402554481d11d1769002a3ffb181459f65d6e6dd",
                                    "0x3e17258a44f938db9803c18c3c762653f5a23e54",
                                    "0x08d1fc8cb23a9a31ffd3ee45a22704f47476d820"
                                ]
                            },
                            {
                                "name": "amounts",
                                "type": "uint256[]",
                                "value": [
                                    "9",
                                    "2",
                                    "2",
                                    "2",
                                    "2",
                                    "1",
                                    "1",
                                    "2",
                                    "4",
                                    "3"
                                ]
                            }
                        ],
                        "constructorArguments": "",
                        "name": "batchMint",
                        "returnParams": [],
                        "signature": "batchMint(uint256,address[],uint256[])"
                    },
                    "errorInfo": "",
                    "fromAddress": "0x226bf5293692610692e2c996c9875c914d2a7f73",
                    "gasUsed": 1469275,
                    "id": 1,
                    "methodDecoded": true,
                    "operation": "DELEGATECALL",
                    "output": "0x0000000000000000000000000000000000000000000000000000000000000001",
                    "revert": false,
                    "revertMessage": "",
                    "selector": "0x1dbeeb4e",
                    "status": true,
                    "value": "0"
                },
                "nodeType": 0
            },
            "10": {
                "event": {
                    "contract": "0x226bf5293692610692e2c996c9875c914d2a7f73",
                    "decodedLog": {
                        "name": "TransferSingle",
                        "params": [
                            {
                                "name": "operator",
                                "type": "address",
                                "value": "0x623fc4f577926c0aadaef11a243754c546c1f98c"
                            },
                            {
                                "name": "from",
                                "type": "address",
                                "value": "0x0000000000000000000000000000000000000000"
                            },
                            {
                                "name": "to",
                                "type": "address",
                                "value": "0xf461b7e6cc342d2942379cab5332671d4b9eefee"
                            },
                            {
                                "name": "id",
                                "type": "uint256",
                                "value": "5"
                            },
                            {
                                "name": "value",
                                "type": "uint256",
                                "value": "2"
                            }
                        ],
                        "signature": "TransferSingle(address,address,address,uint256,uint256)"
                    },
                    "id": 10,
                    "logData": "0x00000000000000000000000000000000000000000000000000000000000000050000000000000000000000000000000000000000000000000000000000000002",
                    "logDecoded": true,
                    "operation": "EVENT",
                    "revert": false,
                    "status": true,
                    "topics": [
                        "0xc3d58168c5ae7397731d063d5bbf3d657854427343f4c083240f7aacaa2d0f62",
                        "0x000000000000000000000000623fc4f577926c0aadaef11a243754c546c1f98c",
                        "0x0000000000000000000000000000000000000000000000000000000000000000",
                        "0x000000000000000000000000f461b7e6cc342d2942379cab5332671d4b9eefee"
                    ]
                },
                "nodeType": 1
            },
            "11": {
                "event": {
                    "contract": "0x226bf5293692610692e2c996c9875c914d2a7f73",
                    "decodedLog": {
                        "name": "Minted",
                        "params": [
                            {
                                "name": "recipient",
                                "type": "address",
                                "value": "0xf461b7e6cc342d2942379cab5332671d4b9eefee"
                            },
                            {
                                "name": "quantity",
                                "type": "uint256",
                                "value": "5"
                            },
                            {
                                "name": "stageIndex",
                                "type": "uint256",
                                "value": "2"
                            }
                        ],
                        "signature": "Minted(address,uint256,uint256)"
                    },
                    "id": 11,
                    "logData": "0x",
                    "logDecoded": true,
                    "operation": "EVENT",
                    "revert": false,
                    "status": true,
                    "topics": [
                        "0x25b428dfde728ccfaddad7e29e4ac23c24ed7fd1a6e3e3f91894a9a073f5dfff",
                        "0x000000000000000000000000f461b7e6cc342d2942379cab5332671d4b9eefee",
                        "0x0000000000000000000000000000000000000000000000000000000000000005",
                        "0x0000000000000000000000000000000000000000000000000000000000000002"
                    ]
                },
                "nodeType": 1
            },
            "12": {
                "event": {
                    "contract": "0x226bf5293692610692e2c996c9875c914d2a7f73",
                    "decodedLog": {
                        "name": "TransferSingle",
                        "params": [
                            {
                                "name": "operator",
                                "type": "address",
                                "value": "0x623fc4f577926c0aadaef11a243754c546c1f98c"
                            },
                            {
                                "name": "from",
                                "type": "address",
                                "value": "0x0000000000000000000000000000000000000000"
                            },
                            {
                                "name": "to",
                                "type": "address",
                                "value": "0x05aaf516cc369e4b785fd27ec850834f05bdd3e2"
                            },
                            {
                                "name": "id",
                                "type": "uint256",
                                "value": "5"
                            },
                            {
                                "name": "value",
                                "type": "uint256",
                                "value": "1"
                            }
                        ],
                        "signature": "TransferSingle(address,address,address,uint256,uint256)"
                    },
                    "id": 12,
                    "logData": "0x00000000000000000000000000000000000000000000000000000000000000050000000000000000000000000000000000000000000000000000000000000001",
                    "logDecoded": true,
                    "operation": "EVENT",
                    "revert": false,
                    "status": true,
                    "topics": [
                        "0xc3d58168c5ae7397731d063d5bbf3d657854427343f4c083240f7aacaa2d0f62",
                        "0x000000000000000000000000623fc4f577926c0aadaef11a243754c546c1f98c",
                        "0x0000000000000000000000000000000000000000000000000000000000000000",
                        "0x00000000000000000000000005aaf516cc369e4b785fd27ec850834f05bdd3e2"
                    ]
                },
                "nodeType": 1
            },
            "13": {
                "event": {
                    "contract": "0x226bf5293692610692e2c996c9875c914d2a7f73",
                    "decodedLog": {
                        "name": "Minted",
                        "params": [
                            {
                                "name": "recipient",
                                "type": "address",
                                "value": "0x05aaf516cc369e4b785fd27ec850834f05bdd3e2"
                            },
                            {
                                "name": "quantity",
                                "type": "uint256",
                                "value": "5"
                            },
                            {
                                "name": "stageIndex",
                                "type": "uint256",
                                "value": "1"
                            }
                        ],
                        "signature": "Minted(address,uint256,uint256)"
                    },
                    "id": 13,
                    "logData": "0x",
                    "logDecoded": true,
                    "operation": "EVENT",
                    "revert": false,
                    "status": true,
                    "topics": [
                        "0x25b428dfde728ccfaddad7e29e4ac23c24ed7fd1a6e3e3f91894a9a073f5dfff",
                        "0x00000000000000000000000005aaf516cc369e4b785fd27ec850834f05bdd3e2",
                        "0x0000000000000000000000000000000000000000000000000000000000000005",
                        "0x0000000000000000000000000000000000000000000000000000000000000001"
                    ]
                },
                "nodeType": 1
            },
            "14": {
                "event": {
                    "contract": "0x226bf5293692610692e2c996c9875c914d2a7f73",
                    "decodedLog": {
                        "name": "TransferSingle",
                        "params": [
                            {
                                "name": "operator",
                                "type": "address",
                                "value": "0x623fc4f577926c0aadaef11a243754c546c1f98c"
                            },
                            {
                                "name": "from",
                                "type": "address",
                                "value": "0x0000000000000000000000000000000000000000"
                            },
                            {
                                "name": "to",
                                "type": "address",
                                "value": "0x3044ea6e645aa0d75c3f0f0342f449a150f2b76e"
                            },
                            {
                                "name": "id",
                                "type": "uint256",
                                "value": "5"
                            },
                            {
                                "name": "value",
                                "type": "uint256",
                                "value": "1"
                            }
                        ],
                        "signature": "TransferSingle(address,address,address,uint256,uint256)"
                    },
                    "id": 14,
                    "logData": "0x00000000000000000000000000000000000000000000000000000000000000050000000000000000000000000000000000000000000000000000000000000001",
                    "logDecoded": true,
                    "operation": "EVENT",
                    "revert": false,
                    "status": true,
                    "topics": [
                        "0xc3d58168c5ae7397731d063d5bbf3d657854427343f4c083240f7aacaa2d0f62",
                        "0x000000000000000000000000623fc4f577926c0aadaef11a243754c546c1f98c",
                        "0x0000000000000000000000000000000000000000000000000000000000000000",
                        "0x0000000000000000000000003044ea6e645aa0d75c3f0f0342f449a150f2b76e"
                    ]
                },
                "nodeType": 1
            },
            "15": {
                "event": {
                    "contract": "0x226bf5293692610692e2c996c9875c914d2a7f73",
                    "decodedLog": {
                        "name": "Minted",
                        "params": [
                            {
                                "name": "recipient",
                                "type": "address",
                                "value": "0x3044ea6e645aa0d75c3f0f0342f449a150f2b76e"
                            },
                            {
                                "name": "quantity",
                                "type": "uint256",
                                "value": "5"
                            },
                            {
                                "name": "stageIndex",
                                "type": "uint256",
                                "value": "1"
                            }
                        ],
                        "signature": "Minted(address,uint256,uint256)"
                    },
                    "id": 15,
                    "logData": "0x",
                    "logDecoded": true,
                    "operation": "EVENT",
                    "revert": false,
                    "status": true,
                    "topics": [
                        "0x25b428dfde728ccfaddad7e29e4ac23c24ed7fd1a6e3e3f91894a9a073f5dfff",
                        "0x0000000000000000000000003044ea6e645aa0d75c3f0f0342f449a150f2b76e",
                        "0x0000000000000000000000000000000000000000000000000000000000000005",
                        "0x0000000000000000000000000000000000000000000000000000000000000001"
                    ]
                },
                "nodeType": 1
            },
            "16": {
                "event": {
                    "contract": "0x226bf5293692610692e2c996c9875c914d2a7f73",
                    "decodedLog": {
                        "name": "TransferSingle",
                        "params": [
                            {
                                "name": "operator",
                                "type": "address",
                                "value": "0x623fc4f577926c0aadaef11a243754c546c1f98c"
                            },
                            {
                                "name": "from",
                                "type": "address",
                                "value": "0x0000000000000000000000000000000000000000"
                            },
                            {
                                "name": "to",
                                "type": "address",
                                "value": "0x402554481d11d1769002a3ffb181459f65d6e6dd"
                            },
                            {
                                "name": "id",
                                "type": "uint256",
                                "value": "5"
                            },
                            {
                                "name": "value",
                                "type": "uint256",
                                "value": "2"
                            }
                        ],
                        "signature": "TransferSingle(address,address,address,uint256,uint256)"
                    },
                    "id": 16,
                    "logData": "0x00000000000000000000000000000000000000000000000000000000000000050000000000000000000000000000000000000000000000000000000000000002",
                    "logDecoded": true,
                    "operation": "EVENT",
                    "revert": false,
                    "status": true,
                    "topics": [
                        "0xc3d58168c5ae7397731d063d5bbf3d657854427343f4c083240f7aacaa2d0f62",
                        "0x000000000000000000000000623fc4f577926c0aadaef11a243754c546c1f98c",
                        "0x0000000000000000000000000000000000000000000000000000000000000000",
                        "0x000000000000000000000000402554481d11d1769002a3ffb181459f65d6e6dd"
                    ]
                },
                "nodeType": 1
            },
            "17": {
                "event": {
                    "contract": "0x226bf5293692610692e2c996c9875c914d2a7f73",
                    "decodedLog": {
                        "name": "Minted",
                        "params": [
                            {
                                "name": "recipient",
                                "type": "address",
                                "value": "0x402554481d11d1769002a3ffb181459f65d6e6dd"
                            },
                            {
                                "name": "quantity",
                                "type": "uint256",
                                "value": "5"
                            },
                            {
                                "name": "stageIndex",
                                "type": "uint256",
                                "value": "2"
                            }
                        ],
                        "signature": "Minted(address,uint256,uint256)"
                    },
                    "id": 17,
                    "logData": "0x",
                    "logDecoded": true,
                    "operation": "EVENT",
                    "revert": false,
                    "status": true,
                    "topics": [
                        "0x25b428dfde728ccfaddad7e29e4ac23c24ed7fd1a6e3e3f91894a9a073f5dfff",
                        "0x000000000000000000000000402554481d11d1769002a3ffb181459f65d6e6dd",
                        "0x0000000000000000000000000000000000000000000000000000000000000005",
                        "0x0000000000000000000000000000000000000000000000000000000000000002"
                    ]
                },
                "nodeType": 1
            },
            "18": {
                "event": {
                    "contract": "0x226bf5293692610692e2c996c9875c914d2a7f73",
                    "decodedLog": {
                        "name": "TransferSingle",
                        "params": [
                            {
                                "name": "operator",
                                "type": "address",
                                "value": "0x623fc4f577926c0aadaef11a243754c546c1f98c"
                            },
                            {
                                "name": "from",
                                "type": "address",
                                "value": "0x0000000000000000000000000000000000000000"
                            },
                            {
                                "name": "to",
                                "type": "address",
                                "value": "0x3e17258a44f938db9803c18c3c762653f5a23e54"
                            },
                            {
                                "name": "id",
                                "type": "uint256",
                                "value": "5"
                            },
                            {
                                "name": "value",
                                "type": "uint256",
                                "value": "4"
                            }
                        ],
                        "signature": "TransferSingle(address,address,address,uint256,uint256)"
                    },
                    "id": 18,
                    "logData": "0x00000000000000000000000000000000000000000000000000000000000000050000000000000000000000000000000000000000000000000000000000000004",
                    "logDecoded": true,
                    "operation": "EVENT",
                    "revert": false,
                    "status": true,
                    "topics": [
                        "0xc3d58168c5ae7397731d063d5bbf3d657854427343f4c083240f7aacaa2d0f62",
                        "0x000000000000000000000000623fc4f577926c0aadaef11a243754c546c1f98c",
                        "0x0000000000000000000000000000000000000000000000000000000000000000",
                        "0x0000000000000000000000003e17258a44f938db9803c18c3c762653f5a23e54"
                    ]
                },
                "nodeType": 1
            },
            "19": {
                "event": {
                    "contract": "0x226bf5293692610692e2c996c9875c914d2a7f73",
                    "decodedLog": {
                        "name": "Minted",
                        "params": [
                            {
                                "name": "recipient",
                                "type": "address",
                                "value": "0x3e17258a44f938db9803c18c3c762653f5a23e54"
                            },
                            {
                                "name": "quantity",
                                "type": "uint256",
                                "value": "5"
                            },
                            {
                                "name": "stageIndex",
                                "type": "uint256",
                                "value": "4"
                            }
                        ],
                        "signature": "Minted(address,uint256,uint256)"
                    },
                    "id": 19,
                    "logData": "0x",
                    "logDecoded": true,
                    "operation": "EVENT",
                    "revert": false,
                    "status": true,
                    "topics": [
                        "0x25b428dfde728ccfaddad7e29e4ac23c24ed7fd1a6e3e3f91894a9a073f5dfff",
                        "0x0000000000000000000000003e17258a44f938db9803c18c3c762653f5a23e54",
                        "0x0000000000000000000000000000000000000000000000000000000000000005",
                        "0x0000000000000000000000000000000000000000000000000000000000000004"
                    ]
                },
                "nodeType": 1
            },
            "2": {
                "event": {
                    "contract": "0x226bf5293692610692e2c996c9875c914d2a7f73",
                    "decodedLog": {
                        "name": "TransferSingle",
                        "params": [
                            {
                                "name": "operator",
                                "type": "address",
                                "value": "0x623fc4f577926c0aadaef11a243754c546c1f98c"
                            },
                            {
                                "name": "from",
                                "type": "address",
                                "value": "0x0000000000000000000000000000000000000000"
                            },
                            {
                                "name": "to",
                                "type": "address",
                                "value": "0xe83ad21ed506f0e045728a734db65345470bcfab"
                            },
                            {
                                "name": "id",
                                "type": "uint256",
                                "value": "5"
                            },
                            {
                                "name": "value",
                                "type": "uint256",
                                "value": "9"
                            }
                        ],
                        "signature": "TransferSingle(address,address,address,uint256,uint256)"
                    },
                    "id": 2,
                    "logData": "0x00000000000000000000000000000000000000000000000000000000000000050000000000000000000000000000000000000000000000000000000000000009",
                    "logDecoded": true,
                    "operation": "EVENT",
                    "revert": false,
                    "status": true,
                    "topics": [
                        "0xc3d58168c5ae7397731d063d5bbf3d657854427343f4c083240f7aacaa2d0f62",
                        "0x000000000000000000000000623fc4f577926c0aadaef11a243754c546c1f98c",
                        "0x0000000000000000000000000000000000000000000000000000000000000000",
                        "0x000000000000000000000000e83ad21ed506f0e045728a734db65345470bcfab"
                    ]
                },
                "nodeType": 1
            },
            "20": {
                "event": {
                    "contract": "0x226bf5293692610692e2c996c9875c914d2a7f73",
                    "decodedLog": {
                        "name": "TransferSingle",
                        "params": [
                            {
                                "name": "operator",
                                "type": "address",
                                "value": "0x623fc4f577926c0aadaef11a243754c546c1f98c"
                            },
                            {
                                "name": "from",
                                "type": "address",
                                "value": "0x0000000000000000000000000000000000000000"
                            },
                            {
                                "name": "to",
                                "type": "address",
                                "value": "0x08d1fc8cb23a9a31ffd3ee45a22704f47476d820"
                            },
                            {
                                "name": "id",
                                "type": "uint256",
                                "value": "5"
                            },
                            {
                                "name": "value",
                                "type": "uint256",
                                "value": "3"
                            }
                        ],
                        "signature": "TransferSingle(address,address,address,uint256,uint256)"
                    },
                    "id": 20,
                    "logData": "0x00000000000000000000000000000000000000000000000000000000000000050000000000000000000000000000000000000000000000000000000000000003",
                    "logDecoded": true,
                    "operation": "EVENT",
                    "revert": false,
                    "status": true,
                    "topics": [
                        "0xc3d58168c5ae7397731d063d5bbf3d657854427343f4c083240f7aacaa2d0f62",
                        "0x000000000000000000000000623fc4f577926c0aadaef11a243754c546c1f98c",
                        "0x0000000000000000000000000000000000000000000000000000000000000000",
                        "0x00000000000000000000000008d1fc8cb23a9a31ffd3ee45a22704f47476d820"
                    ]
                },
                "nodeType": 1
            },
            "21": {
                "event": {
                    "contract": "0x226bf5293692610692e2c996c9875c914d2a7f73",
                    "decodedLog": {
                        "name": "Minted",
                        "params": [
                            {
                                "name": "recipient",
                                "type": "address",
                                "value": "0x08d1fc8cb23a9a31ffd3ee45a22704f47476d820"
                            },
                            {
                                "name": "quantity",
                                "type": "uint256",
                                "value": "5"
                            },
                            {
                                "name": "stageIndex",
                                "type": "uint256",
                                "value": "3"
                            }
                        ],
                        "signature": "Minted(address,uint256,uint256)"
                    },
                    "id": 21,
                    "logData": "0x",
                    "logDecoded": true,
                    "operation": "EVENT",
                    "revert": false,
                    "status": true,
                    "topics": [
                        "0x25b428dfde728ccfaddad7e29e4ac23c24ed7fd1a6e3e3f91894a9a073f5dfff",
                        "0x00000000000000000000000008d1fc8cb23a9a31ffd3ee45a22704f47476d820",
                        "0x0000000000000000000000000000000000000000000000000000000000000005",
                        "0x0000000000000000000000000000000000000000000000000000000000000003"
                    ]
                },
                "nodeType": 1
            },
            "3": {
                "event": {
                    "contract": "0x226bf5293692610692e2c996c9875c914d2a7f73",
                    "decodedLog": {
                        "name": "Minted",
                        "params": [
                            {
                                "name": "recipient",
                                "type": "address",
                                "value": "0xe83ad21ed506f0e045728a734db65345470bcfab"
                            },
                            {
                                "name": "quantity",
                                "type": "uint256",
                                "value": "5"
                            },
                            {
                                "name": "stageIndex",
                                "type": "uint256",
                                "value": "9"
                            }
                        ],
                        "signature": "Minted(address,uint256,uint256)"
                    },
                    "id": 3,
                    "logData": "0x",
                    "logDecoded": true,
                    "operation": "EVENT",
                    "revert": false,
                    "status": true,
                    "topics": [
                        "0x25b428dfde728ccfaddad7e29e4ac23c24ed7fd1a6e3e3f91894a9a073f5dfff",
                        "0x000000000000000000000000e83ad21ed506f0e045728a734db65345470bcfab",
                        "0x0000000000000000000000000000000000000000000000000000000000000005",
                        "0x0000000000000000000000000000000000000000000000000000000000000009"
                    ]
                },
                "nodeType": 1
            },
            "4": {
                "event": {
                    "contract": "0x226bf5293692610692e2c996c9875c914d2a7f73",
                    "decodedLog": {
                        "name": "TransferSingle",
                        "params": [
                            {
                                "name": "operator",
                                "type": "address",
                                "value": "0x623fc4f577926c0aadaef11a243754c546c1f98c"
                            },
                            {
                                "name": "from",
                                "type": "address",
                                "value": "0x0000000000000000000000000000000000000000"
                            },
                            {
                                "name": "to",
                                "type": "address",
                                "value": "0xc66916850600ce4aec811b42b9a38cd353cfc63a"
                            },
                            {
                                "name": "id",
                                "type": "uint256",
                                "value": "5"
                            },
                            {
                                "name": "value",
                                "type": "uint256",
                                "value": "2"
                            }
                        ],
                        "signature": "TransferSingle(address,address,address,uint256,uint256)"
                    },
                    "id": 4,
                    "logData": "0x00000000000000000000000000000000000000000000000000000000000000050000000000000000000000000000000000000000000000000000000000000002",
                    "logDecoded": true,
                    "operation": "EVENT",
                    "revert": false,
                    "status": true,
                    "topics": [
                        "0xc3d58168c5ae7397731d063d5bbf3d657854427343f4c083240f7aacaa2d0f62",
                        "0x000000000000000000000000623fc4f577926c0aadaef11a243754c546c1f98c",
                        "0x0000000000000000000000000000000000000000000000000000000000000000",
                        "0x000000000000000000000000c66916850600ce4aec811b42b9a38cd353cfc63a"
                    ]
                },
                "nodeType": 1
            },
            "5": {
                "event": {
                    "contract": "0x226bf5293692610692e2c996c9875c914d2a7f73",
                    "decodedLog": {
                        "name": "Minted",
                        "params": [
                            {
                                "name": "recipient",
                                "type": "address",
                                "value": "0xc66916850600ce4aec811b42b9a38cd353cfc63a"
                            },
                            {
                                "name": "quantity",
                                "type": "uint256",
                                "value": "5"
                            },
                            {
                                "name": "stageIndex",
                                "type": "uint256",
                                "value": "2"
                            }
                        ],
                        "signature": "Minted(address,uint256,uint256)"
                    },
                    "id": 5,
                    "logData": "0x",
                    "logDecoded": true,
                    "operation": "EVENT",
                    "revert": false,
                    "status": true,
                    "topics": [
                        "0x25b428dfde728ccfaddad7e29e4ac23c24ed7fd1a6e3e3f91894a9a073f5dfff",
                        "0x000000000000000000000000c66916850600ce4aec811b42b9a38cd353cfc63a",
                        "0x0000000000000000000000000000000000000000000000000000000000000005",
                        "0x0000000000000000000000000000000000000000000000000000000000000002"
                    ]
                },
                "nodeType": 1
            },
            "6": {
                "event": {
                    "contract": "0x226bf5293692610692e2c996c9875c914d2a7f73",
                    "decodedLog": {
                        "name": "TransferSingle",
                        "params": [
                            {
                                "name": "operator",
                                "type": "address",
                                "value": "0x623fc4f577926c0aadaef11a243754c546c1f98c"
                            },
                            {
                                "name": "from",
                                "type": "address",
                                "value": "0x0000000000000000000000000000000000000000"
                            },
                            {
                                "name": "to",
                                "type": "address",
                                "value": "0x9608e083fc15a5361302bc83660e24a78d10aa26"
                            },
                            {
                                "name": "id",
                                "type": "uint256",
                                "value": "5"
                            },
                            {
                                "name": "value",
                                "type": "uint256",
                                "value": "2"
                            }
                        ],
                        "signature": "TransferSingle(address,address,address,uint256,uint256)"
                    },
                    "id": 6,
                    "logData": "0x00000000000000000000000000000000000000000000000000000000000000050000000000000000000000000000000000000000000000000000000000000002",
                    "logDecoded": true,
                    "operation": "EVENT",
                    "revert": false,
                    "status": true,
                    "topics": [
                        "0xc3d58168c5ae7397731d063d5bbf3d657854427343f4c083240f7aacaa2d0f62",
                        "0x000000000000000000000000623fc4f577926c0aadaef11a243754c546c1f98c",
                        "0x0000000000000000000000000000000000000000000000000000000000000000",
                        "0x0000000000000000000000009608e083fc15a5361302bc83660e24a78d10aa26"
                    ]
                },
                "nodeType": 1
            },
            "7": {
                "event": {
                    "contract": "0x226bf5293692610692e2c996c9875c914d2a7f73",
                    "decodedLog": {
                        "name": "Minted",
                        "params": [
                            {
                                "name": "recipient",
                                "type": "address",
                                "value": "0x9608e083fc15a5361302bc83660e24a78d10aa26"
                            },
                            {
                                "name": "quantity",
                                "type": "uint256",
                                "value": "5"
                            },
                            {
                                "name": "stageIndex",
                                "type": "uint256",
                                "value": "2"
                            }
                        ],
                        "signature": "Minted(address,uint256,uint256)"
                    },
                    "id": 7,
                    "logData": "0x",
                    "logDecoded": true,
                    "operation": "EVENT",
                    "revert": false,
                    "status": true,
                    "topics": [
                        "0x25b428dfde728ccfaddad7e29e4ac23c24ed7fd1a6e3e3f91894a9a073f5dfff",
                        "0x0000000000000000000000009608e083fc15a5361302bc83660e24a78d10aa26",
                        "0x0000000000000000000000000000000000000000000000000000000000000005",
                        "0x0000000000000000000000000000000000000000000000000000000000000002"
                    ]
                },
                "nodeType": 1
            },
            "8": {
                "event": {
                    "contract": "0x226bf5293692610692e2c996c9875c914d2a7f73",
                    "decodedLog": {
                        "name": "TransferSingle",
                        "params": [
                            {
                                "name": "operator",
                                "type": "address",
                                "value": "0x623fc4f577926c0aadaef11a243754c546c1f98c"
                            },
                            {
                                "name": "from",
                                "type": "address",
                                "value": "0x0000000000000000000000000000000000000000"
                            },
                            {
                                "name": "to",
                                "type": "address",
                                "value": "0xf5a1d2a88bb623709db0dca48a5d0b5c7292de13"
                            },
                            {
                                "name": "id",
                                "type": "uint256",
                                "value": "5"
                            },
                            {
                                "name": "value",
                                "type": "uint256",
                                "value": "2"
                            }
                        ],
                        "signature": "TransferSingle(address,address,address,uint256,uint256)"
                    },
                    "id": 8,
                    "logData": "0x00000000000000000000000000000000000000000000000000000000000000050000000000000000000000000000000000000000000000000000000000000002",
                    "logDecoded": true,
                    "operation": "EVENT",
                    "revert": false,
                    "status": true,
                    "topics": [
                        "0xc3d58168c5ae7397731d063d5bbf3d657854427343f4c083240f7aacaa2d0f62",
                        "0x000000000000000000000000623fc4f577926c0aadaef11a243754c546c1f98c",
                        "0x0000000000000000000000000000000000000000000000000000000000000000",
                        "0x000000000000000000000000f5a1d2a88bb623709db0dca48a5d0b5c7292de13"
                    ]
                },
                "nodeType": 1
            },
            "9": {
                "event": {
                    "contract": "0x226bf5293692610692e2c996c9875c914d2a7f73",
                    "decodedLog": {
                        "name": "Minted",
                        "params": [
                            {
                                "name": "recipient",
                                "type": "address",
                                "value": "0xf5a1d2a88bb623709db0dca48a5d0b5c7292de13"
                            },
                            {
                                "name": "quantity",
                                "type": "uint256",
                                "value": "5"
                            },
                            {
                                "name": "stageIndex",
                                "type": "uint256",
                                "value": "2"
                            }
                        ],
                        "signature": "Minted(address,uint256,uint256)"
                    },
                    "id": 9,
                    "logData": "0x",
                    "logDecoded": true,
                    "operation": "EVENT",
                    "revert": false,
                    "status": true,
                    "topics": [
                        "0x25b428dfde728ccfaddad7e29e4ac23c24ed7fd1a6e3e3f91894a9a073f5dfff",
                        "0x000000000000000000000000f5a1d2a88bb623709db0dca48a5d0b5c7292de13",
                        "0x0000000000000000000000000000000000000000000000000000000000000005",
                        "0x0000000000000000000000000000000000000000000000000000000000000002"
                    ]
                },
                "nodeType": 1
            }
        },
        "gasFlame": [
            {
                "children": [
                    {
                        "children": [
                            {
                                "children": [],
                                "depth": 0,
                                "name": "Initial Gas",
                                "value": 26844
                            },
                            {
                                "children": [
                                    {
                                        "children": [],
                                        "depth": 1,
                                        "name": "batchMint",
                                        "value": 1469275
                                    }
                                ],
                                "depth": 0,
                                "name": "Executed Gas",
                                "value": 1474341
                            }
                        ],
                        "depth": -1,
                        "name": "Actual Gas Used",
                        "value": 1501185
                    },
                    {
                        "children": [],
                        "depth": -1,
                        "name": "Refunded Gas",
                        "value": 0
                    }
                ],
                "depth": -2,
                "name": "Total Gas",
                "value": 1501185
            }
        ],
        "isConfirmed": true,
        "mainTrace": [
            {
                "children": [
                    {
                        "children": [
                            {
                                "children": [
                                    {
                                        "children": [],
                                        "depth": 2,
                                        "id": 2,
                                        "order": 2
                                    },
                                    {
                                        "children": [],
                                        "depth": 2,
                                        "id": 3,
                                        "order": 3
                                    },
                                    {
                                        "children": [],
                                        "depth": 2,
                                        "id": 4,
                                        "order": 4
                                    },
                                    {
                                        "children": [],
                                        "depth": 2,
                                        "id": 5,
                                        "order": 5
                                    },
                                    {
                                        "children": [],
                                        "depth": 2,
                                        "id": 6,
                                        "order": 6
                                    },
                                    {
                                        "children": [],
                                        "depth": 2,
                                        "id": 7,
                                        "order": 7
                                    },
                                    {
                                        "children": [],
                                        "depth": 2,
                                        "id": 8,
                                        "order": 8
                                    },
                                    {
                                        "children": [],
                                        "depth": 2,
                                        "id": 9,
                                        "order": 9
                                    },
                                    {
                                        "children": [],
                                        "depth": 2,
                                        "id": 10,
                                        "order": 10
                                    },
                                    {
                                        "children": [],
                                        "depth": 2,
                                        "id": 11,
                                        "order": 11
                                    },
                                    {
                                        "children": [],
                                        "depth": 2,
                                        "id": 12,
                                        "order": 12
                                    },
                                    {
                                        "children": [],
                                        "depth": 2,
                                        "id": 13,
                                        "order": 13
                                    },
                                    {
                                        "children": [],
                                        "depth": 2,
                                        "id": 14,
                                        "order": 14
                                    },
                                    {
                                        "children": [],
                                        "depth": 2,
                                        "id": 15,
                                        "order": 15
                                    },
                                    {
                                        "children": [],
                                        "depth": 2,
                                        "id": 16,
                                        "order": 16
                                    },
                                    {
                                        "children": [],
                                        "depth": 2,
                                        "id": 17,
                                        "order": 17
                                    },
                                    {
                                        "children": [],
                                        "depth": 2,
                                        "id": 18,
                                        "order": 18
                                    },
                                    {
                                        "children": [],
                                        "depth": 2,
                                        "id": 19,
                                        "order": 19
                                    },
                                    {
                                        "children": [],
                                        "depth": 2,
                                        "id": 20,
                                        "order": 20
                                    },
                                    {
                                        "children": [],
                                        "depth": 2,
                                        "id": 21,
                                        "order": 21
                                    }
                                ],
                                "depth": 1,
                                "id": 1,
                                "order": 1
                            }
                        ],
                        "depth": 0,
                        "id": 0,
                        "order": 0
                    }
                ],
                "depth": -1,
                "id": -1,
                "order": -1
            }
        ],
        "mainTraceNodeCount": 22,
        "parentIdMap": {
            "0": -1,
            "1": 0,
            "10": 1,
            "11": 1,
            "12": 1,
            "13": 1,
            "14": 1,
            "15": 1,
            "16": 1,
            "17": 1,
            "18": 1,
            "19": 1,
            "2": 1,
            "20": 1,
            "21": 1,
            "3": 1,
            "4": 1,
            "5": 1,
            "6": 1,
            "7": 1,
            "8": 1,
            "9": 1
        },
        "tidyTrace": [
            {
                "children": [
                    {
                        "children": [
                            {
                                "children": [
                                    {
                                        "children": [],
                                        "depth": 2,
                                        "id": 2,
                                        "order": 2
                                    },
                                    {
                                        "children": [],
                                        "depth": 2,
                                        "id": 3,
                                        "order": 3
                                    },
                                    {
                                        "children": [],
                                        "depth": 2,
                                        "id": 4,
                                        "order": 4
                                    },
                                    {
                                        "children": [],
                                        "depth": 2,
                                        "id": 5,
                                        "order": 5
                                    },
                                    {
                                        "children": [],
                                        "depth": 2,
                                        "id": 6,
                                        "order": 6
                                    },
                                    {
                                        "children": [],
                                        "depth": 2,
                                        "id": 7,
                                        "order": 7
                                    },
                                    {
                                        "children": [],
                                        "depth": 2,
                                        "id": 8,
                                        "order": 8
                                    },
                                    {
                                        "children": [],
                                        "depth": 2,
                                        "id": 9,
                                        "order": 9
                                    },
                                    {
                                        "children": [],
                                        "depth": 2,
                                        "id": 10,
                                        "order": 10
                                    },
                                    {
                                        "children": [],
                                        "depth": 2,
                                        "id": 11,
                                        "order": 11
                                    },
                                    {
                                        "children": [],
                                        "depth": 2,
                                        "id": 12,
                                        "order": 12
                                    },
                                    {
                                        "children": [],
                                        "depth": 2,
                                        "id": 13,
                                        "order": 13
                                    },
                                    {
                                        "children": [],
                                        "depth": 2,
                                        "id": 14,
                                        "order": 14
                                    },
                                    {
                                        "children": [],
                                        "depth": 2,
                                        "id": 15,
                                        "order": 15
                                    },
                                    {
                                        "children": [],
                                        "depth": 2,
                                        "id": 16,
                                        "order": 16
                                    },
                                    {
                                        "children": [],
                                        "depth": 2,
                                        "id": 17,
                                        "order": 17
                                    },
                                    {
                                        "children": [],
                                        "depth": 2,
                                        "id": 18,
                                        "order": 18
                                    },
                                    {
                                        "children": [],
                                        "depth": 2,
                                        "id": 19,
                                        "order": 19
                                    },
                                    {
                                        "children": [],
                                        "depth": 2,
                                        "id": 20,
                                        "order": 20
                                    },
                                    {
                                        "children": [],
                                        "depth": 2,
                                        "id": 21,
                                        "order": 21
                                    }
                                ],
                                "depth": 1,
                                "id": 1,
                                "order": 1
                            }
                        ],
                        "depth": 0,
                        "id": 0,
                        "order": 0
                    }
                ],
                "depth": -1,
                "id": -1,
                "order": -1
            }
        ],
        "tidyTraceNodeCount": 22
    },
    "state_change": {
        "stateChanges": [
            {
                "address": "0x226bf5293692610692e2c996c9875c914d2a7f73",
                "erc": "",
                "slots": [
                    {
                        "current": "0x0000000000000000000000000000000000000000000000000000000000000001",
                        "key": "0x461b5bce6d1e1f6ff804d7c6f6241ffa1d11b8a65a93d3356c349fc4bc769899",
                        "prev": "0x0000000000000000000000000000000000000000000000000000000000000000"
                    },
                    {
                        "current": "0x0000000000000000000000000000000000000000000000000000000000000002",
                        "key": "0x821853ec1989a6da3a7dcaf8a1c165ce9638238b81df6d03dbf290d9e0dd2627",
                        "prev": "0x0000000000000000000000000000000000000000000000000000000000000000"
                    },
                    {
                        "current": "0x0000000000000000000000000000000000000000000000000000000000000001",
                        "key": "0xe10b82e6d00735d5f85f60a648cd06fce37be12137a1a7c41b9c5bc8d8c9f093",
                        "prev": "0x0000000000000000000000000000000000000000000000000000000000000000"
                    },
                    {
                        "current": "0x0000000000000000000000000000000000000000000000000000000000000001",
                        "key": "0x2cbdf0c54cb37d598b86002857597971f8f974a587eb3f9ae81f01d40ca4e038",
                        "prev": "0x0000000000000000000000000000000000000000000000000000000000000000"
                    },
                    {
                        "current": "0x0000000000000000000000000000000000000000000000000000000000000001",
                        "key": "0x16930bf922a622a4be9f3aaea539f733153c42d8e561a7aa582debdbd865873d",
                        "prev": "0x0000000000000000000000000000000000000000000000000000000000000000"
                    },
                    {
                        "current": "0x0000000000000000000000000000000000000000000000000000000000000005",
                        "key": "0x1f1c7e8bbbad9e67daa5a0b6fb10b4f202fa824e11a580cb7d89b566711b59d4",
                        "prev": "0x0000000000000000000000000000000000000000000000000000000000000000"
                    },
                    {
                        "current": "0x0000000000000000000000000000000000000000000000000000000000000053",
                        "key": "0x25388256e97ecb13561eb6c6369c2629331b3420019362b44f360f07cf41671b",
                        "prev": "0x0000000000000000000000000000000000000000000000000000000000000000"
                    },
                    {
                        "current": "0x0000000000000000000000000000000000000000000000000000000000000003",
                        "key": "0x12c650147a1738479001ffc9bff419b3572e6ff30b3f977dad7a6a722caa26a3",
                        "prev": "0x0000000000000000000000000000000000000000000000000000000000000000"
                    },
                    {
                        "current": "0x0000000000000000000000000000000000000000000000000000000000000005",
                        "key": "0x8745c33fa914917fc88de97f01510295bf7f7a324c08aeb6a4d00e874aa1d245",
                        "prev": "0x0000000000000000000000000000000000000000000000000000000000000000"
                    },
                    {
                        "current": "0x0000000000000000000000000000000000000000000000000000000000000001",
                        "key": "0x9eed5ccd5d1115ac60b725c6348b77d6d6005d8d07bc6f3baa483be690689775",
                        "prev": "0x0000000000000000000000000000000000000000000000000000000000000000"
                    },
                    {
                        "current": "0x0000000000000000000000000000000000000000000000000000000000000001",
                        "key": "0x33c3e5a36b0b04fc3109743ef576e37afa4a61c2a8c589dc289d0d98e07aab6b",
                        "prev": "0x0000000000000000000000000000000000000000000000000000000000000000"
                    },
                    {
                        "current": "0x0000000000000000000000000000000000000000000000000000000000000005",
                        "key": "0x283bd7b71f76308659398a779ba4947b523c3c611bdab17e4515c52cf397fca7",
                        "prev": "0x0000000000000000000000000000000000000000000000000000000000000000"
                    },
                    {
                        "current": "0x0000000000000000000000000000000000000000000000000000000000000002",
                        "key": "0xdc13846ca36dab968a1ada147ff3023c19f076c90b62d49a3fd1076087b1afb5",
                        "prev": "0x0000000000000000000000000000000000000000000000000000000000000000"
                    },
                    {
                        "current": "0x000000000000000000000000f461b7e6cc342d2942379cab5332671d4b9eefee",
                        "key": "0x4de95a8fd1df94770fb0301ad18a0846a3906792928c9902aaee0bff8ddbd6b8",
                        "prev": "0x0000000000000000000000000000000000000000000000000000000000000000"
                    },
                    {
                        "current": "0x0000000000000000000000000000000000000000000000000000000000000001",
                        "key": "0x0861168a5836cf72ec677e1790176c046269c75ede9899f6e5d22b5a200d222c",
                        "prev": "0x0000000000000000000000000000000000000000000000000000000000000000"
                    },
                    {
                        "current": "0x00000000000000000000000008d1fc8cb23a9a31ffd3ee45a22704f47476d820",
                        "key": "0x4de95a8fd1df94770fb0301ad18a0846a3906792928c9902aaee0bff8ddbd6bd",
                        "prev": "0x0000000000000000000000000000000000000000000000000000000000000000"
                    },
                    {
                        "current": "0x0000000000000000000000000000000000000000000000000000000000000001",
                        "key": "0x5d133a23f959427d8293d187af49cec3f11dc9f9a35cb3bc9b7970eaea92f033",
                        "prev": "0x0000000000000000000000000000000000000000000000000000000000000000"
                    },
                    {
                        "current": "0x0000000000000000000000000000000000000000000000000000000000000001",
                        "key": "0x439698ec635398358768a3bf84edee72531c560edbaba1603009f458fb02ea65",
                        "prev": "0x0000000000000000000000000000000000000000000000000000000000000000"
                    },
                    {
                        "current": "0x0000000000000000000000000000000000000000000000000000000000000001",
                        "key": "0xee88d667b1e9053d6d1dace95fecaa07658b790c5dcc2bd276a9084bffc8905a",
                        "prev": "0x0000000000000000000000000000000000000000000000000000000000000000"
                    },
                    {
                        "current": "0x0000000000000000000000000000000000000000000000000000000000000001",
                        "key": "0x9be4e529ce4ac11125bafd0c3a93e8cb22d0a122fd4726832a95e63b50604d46",
                        "prev": "0x0000000000000000000000000000000000000000000000000000000000000000"
                    },
                    {
                        "current": "0x0000000000000000000000000000000000000000000000000000000000000005",
                        "key": "0x799bd6ad45d4ab68a3ee552ada53141794664c7b3dd1b500e430d7ae4b1de7fb",
                        "prev": "0x0000000000000000000000000000000000000000000000000000000000000000"
                    },
                    {
                        "current": "0x0000000000000000000000000000000000000000000000000000000000000055",
                        "key": "0x4640025e568a3bd686f4aa4b8e38aad1d6f2c7d34f0d948fc0e0552b9f77c0a6",
                        "prev": "0x0000000000000000000000000000000000000000000000000000000000000000"
                    },
                    {
                        "current": "0x000000000000000000000000f5a1d2a88bb623709db0dca48a5d0b5c7292de13",
                        "key": "0x4de95a8fd1df94770fb0301ad18a0846a3906792928c9902aaee0bff8ddbd6b7",
                        "prev": "0x0000000000000000000000000000000000000000000000000000000000000000"
                    },
                    {
                        "current": "0x0000000000000000000000000000000000000000000000000000000000000056",
                        "key": "0x07f9748893ca55026acec379e6628d8af2ea10a4a179394dc252a940a3b1afd6",
                        "prev": "0x0000000000000000000000000000000000000000000000000000000000000000"
                    },
                    {
                        "current": "0x0000000000000000000000000000000000000000000000000000000000000057",
                        "key": "0x5a41a35621cf1782047b38aa786a768eedca0cd1cb3330e812c4db586d8b407a",
                        "prev": "0x0000000000000000000000000000000000000000000000000000000000000000"
                    },
                    {
                        "current": "0x0000000000000000000000000000000000000000000000000000000000000005",
                        "key": "0x2e8741ab8be58b631453a616a99653a5c47df203cbe662b2d5472e833b55b118",
                        "prev": "0x0000000000000000000000000000000000000000000000000000000000000000"
                    },
                    {
                        "current": "0x0000000000000000000000000000000000000000000000000000000000000001",
                        "key": "0x8a2c5b76aab58c221c94d0d2c3e666fd255d173ce763e7f6323280a84ebf09b6",
                        "prev": "0x0000000000000000000000000000000000000000000000000000000000000000"
                    },
                    {
                        "current": "0x0000000000000000000000000000000000000000000000000000000000000005",
                        "key": "0x6b6667a67822b677532ad13de4c9f928aacce7196ab60b1ede293c977540a6be",
                        "prev": "0x0000000000000000000000000000000000000000000000000000000000000000"
                    },
                    {
                        "current": "0x000000000000000000000000402554481d11d1769002a3ffb181459f65d6e6dd",
                        "key": "0x4de95a8fd1df94770fb0301ad18a0846a3906792928c9902aaee0bff8ddbd6bb",
                        "prev": "0x0000000000000000000000000000000000000000000000000000000000000000"
                    },
                    {
                        "current": "0x000000000000000000000000000000000000000000000000000000000000005c",
                        "key": "0x37b61d83e5f328b5aac2b5bb1f28a2fbe43eff648eb153bc6a76727d67208ebd",
                        "prev": "0x0000000000000000000000000000000000000000000000000000000000000000"
                    },
                    {
                        "current": "0x000000000000000000000000000000000000000000000000000000000000005b",
                        "key": "0x2c2465cb6b08c5e286474ef0f6bdc26dbdc7f9962e165b9f7672a2b5c7422484",
                        "prev": "0x0000000000000000000000000000000000000000000000000000000000000000"
                    },
                    {
                        "current": "0x0000000000000000000000000000000000000000000000000000000000000004",
                        "key": "0x7912a759ac6996d8b423c45fd90e47c2a507829ec971e77a15efbf8294dad8ef",
                        "prev": "0x0000000000000000000000000000000000000000000000000000000000000000"
                    },
                    {
                        "current": "0x0000000000000000000000000000000000000000000000000000000000000001",
                        "key": "0x7ea0da4606fa395f9b51c0c71183e958faf509189b155034f492650ea617f2d2",
                        "prev": "0x0000000000000000000000000000000000000000000000000000000000000000"
                    },
                    {
                        "current": "0x0000000000000000000000000000000000000000000000000000000000000005",
                        "key": "0x1905e7b266ca2d669d6942c673e69250f2b2471204161e32bab0d79d13ea6273",
                        "prev": "0x0000000000000000000000000000000000000000000000000000000000000000"
                    },
                    {
                        "current": "0x00000000000000000000000005aaf516cc369e4b785fd27ec850834f05bdd3e2",
                        "key": "0x4de95a8fd1df94770fb0301ad18a0846a3906792928c9902aaee0bff8ddbd6b9",
                        "prev": "0x0000000000000000000000000000000000000000000000000000000000000000"
                    },
                    {
                        "current": "0x0000000000000000000000000000000000000000000000000000000000000002",
                        "key": "0xcecbb15af3e3e56925ab73fb3dd2bb05cc6f4971d97cb96bcc03a7a25d33b4c9",
                        "prev": "0x0000000000000000000000000000000000000000000000000000000000000000"
                    },
                    {
                        "current": "0x0000000000000000000000000000000000000000000000000000000000000001",
                        "key": "0xdccdf447bfb407360099ab54de0fabbf1caa2b1c6c1d9a64dec33075f111397a",
                        "prev": "0x0000000000000000000000000000000000000000000000000000000000000000"
                    },
                    {
                        "current": "0x0000000000000000000000000000000000000000000000000000000000000001",
                        "key": "0xe7251d19f5aab281596ff6ff1aea0f14703a9fac7793f99de49861fe9085c33b",
                        "prev": "0x0000000000000000000000000000000000000000000000000000000000000000"
                    },
                    {
                        "current": "0x0000000000000000000000000000000000000000000000000000000000000002",
                        "key": "0xa7c0ac956bc0351e170cad9be8cbf7473dbe68227244cd3df7d458b41cb905dd",
                        "prev": "0x0000000000000000000000000000000000000000000000000000000000000000"
                    },
                    {
                        "current": "0x0000000000000000000000000000000000000000000000000000000000000001",
                        "key": "0x0318ab6cac6242665adcd4e4c7c69e91ecf0a25970605e1f4ed45df3fce732fc",
                        "prev": "0x0000000000000000000000000000000000000000000000000000000000000000"
                    },
                    {
                        "current": "0x000000000000000000000000e83ad21ed506f0e045728a734db65345470bcfab",
                        "key": "0x4de95a8fd1df94770fb0301ad18a0846a3906792928c9902aaee0bff8ddbd6b4",
                        "prev": "0x0000000000000000000000000000000000000000000000000000000000000000"
                    },
                    {
                        "current": "0x0000000000000000000000000000000000000000000000000000000000000005",
                        "key": "0x1866defa916955d85ebf0255b5be64be0d68b8e019f5801a9f3bb3336b2c9902",
                        "prev": "0x0000000000000000000000000000000000000000000000000000000000000000"
                    },
                    {
                        "current": "0x0000000000000000000000000000000000000000000000000000000000000054",
                        "key": "0x4c6cf9bdf660012582de67cbeddaeb400131bb9ebb136c50737d049c14b3c089",
                        "prev": "0x0000000000000000000000000000000000000000000000000000000000000000"
                    },
                    {
                        "current": "0x0000000000000000000000000000000000000000000000000000000000000100",
                        "key": "0x04c04a95fabd47bd164a0a0845c67017c03d2bc4aa61761aee9e46e9be11d471",
                        "prev": "0x00000000000000000000000000000000000000000000000000000000000000e4"
                    },
                    {
                        "current": "0x0000000000000000000000000000000000000000000000000000000000000001",
                        "key": "0x5f5f558f11b5b35236f3fcb756c623518432e97ee3b82da91ae93cf63c95a071",
                        "prev": "0x0000000000000000000000000000000000000000000000000000000000000000"
                    },
                    {
                        "current": "0x0000000000000000000000003e17258a44f938db9803c18c3c762653f5a23e54",
                        "key": "0x4de95a8fd1df94770fb0301ad18a0846a3906792928c9902aaee0bff8ddbd6bc",
                        "prev": "0x0000000000000000000000000000000000000000000000000000000000000000"
                    },
                    {
                        "current": "0x0000000000000000000000000000000000000000000000000000000000000002",
                        "key": "0x93ec997088b970a80debc6ad3bef1c87b8f8d6883f0724cd8784e78abe2e31f8",
                        "prev": "0x0000000000000000000000000000000000000000000000000000000000000000"
                    },
                    {
                        "current": "0x0000000000000000000000000000000000000000000000000000000000000001",
                        "key": "0x8b67c7975cc05bf2134c4b291ab89900c551a15338e86610af081ef5c3cd9076",
                        "prev": "0x0000000000000000000000000000000000000000000000000000000000000000"
                    },
                    {
                        "current": "0x000000000000000000000000000000000000000000000000000000000000005c",
                        "key": "0xe827ffdd6f9afc2f18f6ed762c1ceef6b9f4d636ca26b2a1b3b270496a4c7f8a",
                        "prev": "0x0000000000000000000000000000000000000000000000000000000000000052"
                    },
                    {
                        "current": "0x0000000000000000000000000000000000000000000000000000000000000009",
                        "key": "0x68a03293fa82e676bb81ddaa50a62959a7f43d746ce89386e63ddc4ee7c696c9",
                        "prev": "0x0000000000000000000000000000000000000000000000000000000000000000"
                    },
                    {
                        "current": "0x0000000000000000000000000000000000000000000000000000000000000005",
                        "key": "0xc6838075709d3ff75418bf2ab8a5832002b35d05d65bd6edbda69a942f64e195",
                        "prev": "0x0000000000000000000000000000000000000000000000000000000000000000"
                    },
                    {
                        "current": "0x0000000000000000000000003044ea6e645aa0d75c3f0f0342f449a150f2b76e",
                        "key": "0x4de95a8fd1df94770fb0301ad18a0846a3906792928c9902aaee0bff8ddbd6ba",
                        "prev": "0x0000000000000000000000000000000000000000000000000000000000000000"
                    },
                    {
                        "current": "0x0000000000000000000000000000000000000000000000000000000000000001",
                        "key": "0xd6d547d6d3b7a592c55b3f8eb855c1fc6899ab0979a2b38869818a49ad563251",
                        "prev": "0x0000000000000000000000000000000000000000000000000000000000000000"
                    },
                    {
                        "current": "0x0000000000000000000000000000000000000000000000000000000000000005",
                        "key": "0x8b74b1f389382c9cd95ea87320cf66d7d778113d2197141d1c497a4b620c8960",
                        "prev": "0x0000000000000000000000000000000000000000000000000000000000000000"
                    },
                    {
                        "current": "0x0000000000000000000000000000000000000000000000000000000000000058",
                        "key": "0x5f96fa49081cf98aa0792ba6e9408391f65e5363e3176198ae6ecfea5d5cf5dd",
                        "prev": "0x0000000000000000000000000000000000000000000000000000000000000000"
                    },
                    {
                        "current": "0x0000000000000000000000000000000000000000000000000000000000000001",
                        "key": "0x46e21bb399373fea26774e89f080a8788469c874c37d3f15a2a6cd0827622af0",
                        "prev": "0x0000000000000000000000000000000000000000000000000000000000000000"
                    },
                    {
                        "current": "0x000000000000000000000000c66916850600ce4aec811b42b9a38cd353cfc63a",
                        "key": "0x4de95a8fd1df94770fb0301ad18a0846a3906792928c9902aaee0bff8ddbd6b5",
                        "prev": "0x0000000000000000000000000000000000000000000000000000000000000000"
                    },
                    {
                        "current": "0x0000000000000000000000000000000000000000000000000000000000000059",
                        "key": "0x65ef93d90951c34a589098fd2c8d7fb4833bc4d2006cea326383d381552d7de0",
                        "prev": "0x0000000000000000000000000000000000000000000000000000000000000000"
                    },
                    {
                        "current": "0x0000000000000000000000009608e083fc15a5361302bc83660e24a78d10aa26",
                        "key": "0x4de95a8fd1df94770fb0301ad18a0846a3906792928c9902aaee0bff8ddbd6b6",
                        "prev": "0x0000000000000000000000000000000000000000000000000000000000000000"
                    },
                    {
                        "current": "0x000000000000000000000000000000000000000000000000000000000000005a",
                        "key": "0x6ce3fa6418d06b303be62c4b03c519738a92ee3769b400e826b65b70af1a80a9",
                        "prev": "0x0000000000000000000000000000000000000000000000000000000000000000"
                    },
                    {
                        "current": "0x0000000000000000000000000000000000000000000000000000000000000001",
                        "key": "0x4f8798d6896fa6de5549fccf0bb3228c69f2848e18693a472e5a15f3ab73e96c",
                        "prev": "0x0000000000000000000000000000000000000000000000000000000000000000"
                    },
                    {
                        "current": "0x0000000000000000000000000000000000000000000000000000000000000001",
                        "key": "0x8fbf5b0e12f93861d00ea827022ab99cfb0889f9f6817d2bb1463a66bd067262",
                        "prev": "0x0000000000000000000000000000000000000000000000000000000000000000"
                    }
                ],
                "storageVariables": []
            }
        ]
    }
}