{
    "balance_change": {
        "balanceChanges": []
    },
    "profile": {
        "basic_info": {
            "baseFee": "4.718248807",
            "blockNumber": 20413292,
            "callData": "0x42af92af000000000000000000000000000000000000000000000000000000000000008000000000000000000000000000000000000000000000000000000000000002a000000000000000000000000000000000000000000000000000000000000003000000000000000000000000000000000000000000000000000000000000000380000000000000000000000000000000000000000000000000000000000000001000000000000000000000000000000000000000000000000000000000000000010000000000000000000000000000000000000000000000000322e9cd773d000000000000000000000000000000000000000000000000000039bd8193346de800000000000000000000000000000000000000000000000000000000000000003a0000000000000000000000000000000000000000000000000000000000000000000000000000000000000000000000000000000000000000000000000000000100000000000000000000000000000000000000000000000000000000000000020000000000000000000000000000000000000000000000000000000000000000000000000000000000000000000000000000000000000000000000000000000000000000000000000000000000000000000000000000000000000000000000000000000000000000000000000000000000000000000000000000000000000000000000000000000000000000000000000000000000000000000000000000000100000000000000000000000000000000000000000000000000000000000000000000000000000000000000000000000000000000000000000000000000000000000000000000000000000000000000000000000000000000006d08647428200000000000000000000000000000000000000000000000000000000000000000010000000000000000000000000000000000000000000000000000000000000002000000000000000000000000c02aaa39b223fe8d0a0e5c4f27ead9083c756cc20000000000000000000000008c4ef5cf16d367dd9f2e4bf1f75c44f5549ea49d00000000000000000000000000000000000000000000000000000000000000030000000000000000000000007bde07633b584a19f1db871f3b6d905d40657b14000000000000000000000000086653499f94394d84891d1787dc08dec8c215f200000000000000000000000032e5dd6e8895b83d0ed221bca3e8279ba286373500000000000000000000000000000000000000000000000000000000000000030000000000000000000000007a250d5630b4cf539739df2c5dacb4c659f2488d0000000000000000000000005c69bee701ef814a2b6a3edd4b1652cb9cc5aa6f0000000000000000000000005c69bee701ef814a2b6a3edd4b1652cb9cc5aa6f",
            "debugEnable": true,
            "errorInfo": "execution reverted",
            "eventCount": 0,
            "feeRecipient": "0x95222290dd7278aa3ddd389cc1e1d165cc4bafe5",
            "formatValue": "0.70879",
            "gasLimit": 2065000,
            "gasPrice": "10.787248807",
            "gasUsed": 56915,
            "intTxnCount": 2,
            "internalRevert": true,
            "internalRevertMessage": "",
            "isContractCreation": false,
            "isFlashloan": false,
            "maxFee": "90",
            "nonce": 4559,
            "overwritedBlockNumber": -1,
            "priorityFee": "6.069",
            "receiver": "0xff6d207d20cc58c0e6598c437c914649185dfe2e",
            "revertMessage": "",
            "sender": "0x7bde07633b584a19f1db871f3b6d905d40657b14",
            "simulationEnable": true,
            "sourceTxnHash": "0xafe469621d2c483ebff1eeab486ce9038cda4d5232cd50ae53e64d9f708da4b5",
            "status": false,
            "timestamp": "2024-07-29T16:03:23Z",
            "transactionFee": "0.000613956265850405",
            "txnHash": "0xafe469621d2c483ebff1eeab486ce9038cda4d5232cd50ae53e64d9f708da4b5",
            "txnIndex": 21,
            "type": 2,
            "value": "708790000000000000"
        },
        "fund_flow": [],
        "token_infos": [
            {
                "address": "0xc02aaa39b223fe8d0a0e5c4f27ead9083c756cc2",
                "decimals": 18
            },
            {
                "address": "0xeeeeeeeeeeeeeeeeeeeeeeeeeeeeeeeeeeeeeeee",
                "decimals": 18
            }
        ]
    },
    "address_label": {
        "labels": [
            {
                "address": "0x7a250d5630b4cf539739df2c5dacb4c659f2488d",
                "label": "Uniswap V2: Router 2"
            },
            {
                "address": "0xc02aaa39b223fe8d0a0e5c4f27ead9083c756cc2",
                "label": "Wrapped Ether (WETH)"
            },
            {
                "address": "0x8c4ef5cf16d367dd9f2e4bf1f75c44f5549ea49d",
                "label": "KAMALA"
            },
            {
                "address": "0x0000000000000000000000000000000000000001",
                "label": "Precompiled"
            },
            {
                "address": "0x0000000000000000000000000000000000000002",
                "label": "Precompiled"
            },
            {
                "address": "0x0000000000000000000000000000000000000003",
                "label": "Precompiled"
            },
            {
                "address": "0x0000000000000000000000000000000000000004",
                "label": "Precompiled"
            },
            {
                "address": "0xeeeeeeeeeeeeeeeeeeeeeeeeeeeeeeeeeeeeeeee",
                "label": "Ether"
            }
        ]
    },
    "trace": {
        "accountLabels": null,
        "dataMap": {
            "-1": {
                "invocation": {
                    "address": "0x7bde07633b584a19f1db871f3b6d905d40657b14",
                    "callData": "",
                    "decodedMethod": null,
                    "errorInfo": "",
                    "fromAddress": "",
                    "gasUsed": 0,
                    "id": -1,
                    "methodDecoded": false,
                    "operation": "",
                    "output": "",
                    "revert": false,
                    "revertMessage": "",
                    "selector": "",
                    "status": false,
                    "value": ""
                },
                "nodeType": 0
            },
            "0": {
                "invocation": {
                    "address": "0xff6d207d20cc58c0e6598c437c914649185dfe2e",
                    "callData": "0x000000000000000000000000000000000000000000000000000000000000008000000000000000000000000000000000000000000000000000000000000002a000000000000000000000000000000000000000000000000000000000000003000000000000000000000000000000000000000000000000000000000000000380000000000000000000000000000000000000000000000000000000000000001000000000000000000000000000000000000000000000000000000000000000010000000000000000000000000000000000000000000000000322e9cd773d000000000000000000000000000000000000000000000000000039bd8193346de800000000000000000000000000000000000000000000000000000000000000003a0000000000000000000000000000000000000000000000000000000000000000000000000000000000000000000000000000000000000000000000000000000100000000000000000000000000000000000000000000000000000000000000020000000000000000000000000000000000000000000000000000000000000000000000000000000000000000000000000000000000000000000000000000000000000000000000000000000000000000000000000000000000000000000000000000000000000000000000000000000000000000000000000000000000000000000000000000000000000000000000000000000000000000000000000000000100000000000000000000000000000000000000000000000000000000000000000000000000000000000000000000000000000000000000000000000000000000000000000000000000000000000000000000000000000000006d08647428200000000000000000000000000000000000000000000000000000000000000000010000000000000000000000000000000000000000000000000000000000000002000000000000000000000000c02aaa39b223fe8d0a0e5c4f27ead9083c756cc20000000000000000000000008c4ef5cf16d367dd9f2e4bf1f75c44f5549ea49d00000000000000000000000000000000000000000000000000000000000000030000000000000000000000007bde07633b584a19f1db871f3b6d905d40657b14000000000000000000000000086653499f94394d84891d1787dc08dec8c215f200000000000000000000000032e5dd6e8895b83d0ed221bca3e8279ba286373500000000000000000000000000000000000000000000000000000000000000030000000000000000000000007a250d5630b4cf539739df2c5dacb4c659f2488d0000000000000000000000005c69bee701ef814a2b6a3edd4b1652cb9cc5aa6f0000000000000000000000005c69bee701ef814a2b6a3edd4b1652cb9cc5aa6f",
                    "decodedMethod": null,
                    "errorInfo": "execution reverted",
                    "fromAddress": "0x7bde07633b584a19f1db871f3b6d905d40657b14",
                    "gasUsed": 56915,
                    "id": 0,
                    "methodDecoded": false,
                    "operation": "CALL",
                    "output": "",
                    "revert": true,
                    "revertMessage": "",
                    "selector": "0x42af92af",
                    "status": false,
                    "value": "0.70879"
                },
                "nodeType": 0
            },
            "1": {
                "invocation": {
                    "address": "0x8c4ef5cf16d367dd9f2e4bf1f75c44f5549ea49d",
                    "callData": "0x000000000000000000000000ff6d207d20cc58c0e6598c437c914649185dfe2e",
                    "decodedMethod": {
                        "callParams": [
                            {
                                "name": "account",
                                "type": "address",
                                "value": "0xff6d207d20cc58c0e6598c437c914649185dfe2e"
                            }
                        ],
                        "constructorArguments": "",
                        "name": "balanceOf",
                        "returnParams": [
                            {
                                "decimalAvailable": true,
                                "name": "",
                                "type": "uint256",
                                "value": "0"
                            }
                        ],
                        "signature": "balanceOf(address)"
                    },
                    "errorInfo": "",
                    "fromAddress": "0xff6d207d20cc58c0e6598c437c914649185dfe2e",
                    "gasUsed": 2617,
                    "id": 1,
                    "methodDecoded": true,
                    "operation": "STATICCALL",
                    "output": "0x0000000000000000000000000000000000000000000000000000000000000000",
                    "revert": true,
                    "revertMessage": "",
                    "selector": "0x70a08231",
                    "status": true,
                    "value": "0"
                },
                "nodeType": 0
            },
            "2": {
                "invocation": {
                    "address": "0x7a250d5630b4cf539739df2c5dacb4c659f2488d",
                    "callData": "0x00000000000000000000000000000000000000000000000000005af3107a400000000000000000000000000000000000000000000000000000000000000000400000000000000000000000000000000000000000000000000000000000000002000000000000000000000000c02aaa39b223fe8d0a0e5c4f27ead9083c756cc20000000000000000000000008c4ef5cf16d367dd9f2e4bf1f75c44f5549ea49d",
                    "decodedMethod": {
                        "callParams": [
                            {
                                "name": "amountIn",
                                "type": "uint256",
                                "value": "100,000,000,000,000"
                            },
                            {
                                "name": "path",
                                "type": "address[]",
                                "value": [
                                    "0xc02aaa39b223fe8d0a0e5c4f27ead9083c756cc2",
                                    "0x8c4ef5cf16d367dd9f2e4bf1f75c44f5549ea49d"
                                ]
                            }
                        ],
                        "constructorArguments": "",
                        "name": "getAmountsOut",
                        "returnParams": [],
                        "signature": "getAmountsOut(uint256,address[])"
                    },
                    "errorInfo": "execution reverted",
                    "fromAddress": "0xff6d207d20cc58c0e6598c437c914649185dfe2e",
                    "gasUsed": 4585,
                    "id": 2,
                    "methodDecoded": true,
                    "operation": "STATICCALL",
                    "output": "",
                    "revert": true,
                    "revertMessage": "",
                    "selector": "0xd06ca61f",
                    "status": false,
                    "value": "0"
                },
                "nodeType": 0
            }
        },
        "gasFlame": [
            {
                "children": [
                    {
                        "children": [
                            {
                                "children": [],
                                "depth": 0,
                                "name": "Initial Gas",
                                "value": 27500
                            },
                            {
                                "children": [
                                    {
                                        "children": [],
                                        "depth": 1,
                                        "name": "balanceOf",
                                        "value": 2617
                                    },
                                    {
                                        "children": [],
                                        "depth": 1,
                                        "name": "getAmountsOut",
                                        "value": 4585
                                    }
                                ],
                                "depth": 0,
                                "name": "Executed Gas",
                                "value": 29415
                            }
                        ],
                        "depth": -1,
                        "name": "Actual Gas Used",
                        "value": 56915
                    },
                    {
                        "children": [],
                        "depth": -1,
                        "name": "Refunded Gas",
                        "value": 0
                    }
                ],
                "depth": -2,
                "name": "Total Gas",
                "value": 56915
            }
        ],
        "isConfirmed": true,
        "mainTrace": [
            {
                "children": [
                    {
                        "children": [
                            {
                                "children": [],
                                "depth": 1,
                                "id": 1,
                                "order": 1
                            },
                            {
                                "children": [],
                                "depth": 1,
                                "id": 2,
                                "order": 2
                            }
                        ],
                        "depth": 0,
                        "id": 0,
                        "order": 0
                    }
                ],
                "depth": -1,
                "id": -1,
                "order": -1
            }
        ],
        "mainTraceNodeCount": 3,
        "parentIdMap": {
            "0": -1,
            "1": 0,
            "2": 0
        },
        "tidyTrace": [
            {
                "children": [
                    {
                        "children": [],
                        "depth": 0,
                        "id": 0,
                        "order": 0
                    }
                ],
                "depth": -1,
                "id": -1,
                "order": -1
            }
        ],
        "tidyTraceNodeCount": 1
    },
    "state_change": {
        "stateChanges": []
    }
}