{
    "balance_change": {
        "balanceChanges": [
            {
                "account": "0x2cf66e4c23b9a5c81c3f206c4438ef78de451185",
                "assets": [
                    {
                        "address": "0xf6cf3ab751154b8fb39706406c82a7321dbffda5",
                        "amount": "1",
                        "iconUrl": "",
                        "isERC1155": true,
                        "isERC721": false,
                        "sign": true,
                        "tokenID": "1",
                        "value": ""
                    }
                ]
            },
            {
                "account": "0x0000000000000000000000000000000000000000",
                "assets": [
                    {
                        "address": "0xf6cf3ab751154b8fb39706406c82a7321dbffda5",
                        "amount": "1",
                        "iconUrl": "",
                        "isERC1155": true,
                        "isERC721": false,
                        "sign": false,
                        "tokenID": "1",
                        "value": ""
                    }
                ]
            }
        ]
    },
    "profile": {
        "basic_info": {
            "baseFee": "22.001570247",
            "blockNumber": 16602414,
            "callData": "0xfa2b068f000000000000000000000000f6cf3ab751154b8fb39706406c82a7321dbffda500000000000000000000000000000000000000000000000000000000273040f0000000000000000000000000000000000000000000000000000000000000024200000000000000000000000000000000000000000000000000000000000000a00000000000000000000000002cf66e4c23b9a5c81c3f206c4438ef78de451185000000000000000000000000000000000000000000000000000000000000000df5cc926b6c33fe5b185e5246ae9bb91d6fbb1baf4cededc873b0fde9ff4428e3ec8fdf7047933a3d151cd913b08c6420747a09e4216c65d9b95261c9efc625dbf51ab87aa1beb8275ef13c4ab98b35488f4f7aaf06d75ba777ec69641ef291f7939e74c52af63786b69e6fc67c8ebc91a1e0ba9e433ed88b38f452394be29cb81a18ac20a26386af012f90e21ed4467540669d3a7b2e0604c6f022a6cd7fa91697e37960b31fd1ae5285cc73d6f10522734564a6b6dfc4c3a624bcec10aff594171ea61ec89022d295af1d3b3120f44280da8b10ba73799200c7fc0e1be364a649af2e0cd16ee5abe3c58569d1f6c1b25257161a422360b9ab59de1550a47ef4527e773599fbaa3058dd923f7b9663d62253a304e496b1764453e812c41c082d91fcfe00635214d93d0e9dba7661291897a7710bdf5e8364e2ac7ec1dfe704dc8858e94c2b372302d4642535dabb5f8f97d0968cc7b96f189cf15b1b807c15105dbf1c8188197a9bf1460aed252b06ee0913aaad4685e0bfb63e2be881434cbfc9fde1c29515ffcfd5fa94582e476f205d1192bef4f85e9e81b6ce1da0af8d4f",
            "debugEnable": true,
            "errorInfo": "",
            "eventCount": 2,
            "feeRecipient": "0x95222290dd7278aa3ddd389cc1e1d165cc4bafe5",
            "formatValue": "0",
            "gasLimit": 178785,
            "gasPrice": "23.001570247",
            "gasUsed": 135252,
            "intTxnCount": 5,
            "internalRevert": false,
            "internalRevertMessage": "",
            "isContractCreation": false,
            "isFlashloan": false,
            "maxFee": "32.079394811",
            "nonce": 218,
            "overwritedBlockNumber": -1,
            "priorityFee": "1",
            "receiver": "0x44e94034afce2dd3cd5eb62528f239686fc8f162",
            "revertMessage": "",
            "sender": "0x2cf66e4c23b9a5c81c3f206c4438ef78de451185",
            "simulationEnable": true,
            "sourceTxnHash": "0xaf64d7c945b134ee05853c737292e09146e9733bae195d160bd6fd487675b3e3",
            "status": true,
            "timestamp": "2023-02-11T02:03:23Z",
            "transactionFee": "0.003111008379047244",
            "txnHash": "0xaf64d7c945b134ee05853c737292e09146e9733bae195d160bd6fd487675b3e3",
            "txnIndex": 57,
            "type": 2,
            "value": "0"
        },
        "fund_flow": [
            {
                "amount": "1",
                "from": "0x0000000000000000000000000000000000000000",
                "id": 1,
                "isERC1155": true,
                "isERC721": false,
                "isReverted": false,
                "order": 1,
                "to": "0x2cf66e4c23b9a5c81c3f206c4438ef78de451185",
                "token": "0xf6cf3ab751154b8fb39706406c82a7321dbffda5",
                "tokenID": "1"
            }
        ],
        "token_infos": [
            {
                "address": "0xc02aaa39b223fe8d0a0e5c4f27ead9083c756cc2",
                "decimals": 18
            },
            {
                "address": "0xeeeeeeeeeeeeeeeeeeeeeeeeeeeeeeeeeeeeeeee",
                "decimals": 18
            }
        ]
    },
    "address_label": {
        "labels": [
            {
                "address": "0xeeeeeeeeeeeeeeeeeeeeeeeeeeeeeeeeeeeeeeee",
                "label": "Ether"
            },
            {
                "address": "0xf6cf3ab751154b8fb39706406c82a7321dbffda5",
                "label": "Isekai Battle Box (IBB)"
            },
            {
                "address": "0x0000000000000000000000000000000000000002",
                "label": "Precompiled"
            },
            {
                "address": "0x0000000000000000000000000000000000000003",
                "label": "Precompiled"
            },
            {
                "address": "0x0000000000000000000000000000000000000004",
                "label": "Precompiled"
            },
            {
                "address": "0x1de06d2875453a272628bbb957077d18eb4a84cd",
                "label": "OperatorFilterer"
            },
            {
                "address": "0x0000000000000000000000000000000000000000",
                "label": "Null Address"
            },
            {
                "address": "0x000000000000aaeb6d7670e522a718067333cd4e",
                "label": "OperatorFilterRegistry"
            },
            {
                "address": "0x44e94034afce2dd3cd5eb62528f239686fc8f162",
                "label": "Manifold: Lazy Claim"
            },
            {
                "address": "0x6bf5ed59de0e19999d264746843ff931c0133090",
                "label": "Manifold ERC1155 Creator (M1155)"
            },
            {
                "address": "0x0000000000000000000000000000000000000001",
                "label": "Precompiled"
            }
        ]
    },
    "trace": {
        "accountLabels": null,
        "dataMap": {
            "-1": {
                "invocation": {
                    "address": "0x2cf66e4c23b9a5c81c3f206c4438ef78de451185",
                    "callData": "",
                    "decodedMethod": null,
                    "errorInfo": "",
                    "fromAddress": "",
                    "gasUsed": 0,
                    "id": -1,
                    "methodDecoded": false,
                    "operation": "",
                    "output": "",
                    "revert": false,
                    "revertMessage": "",
                    "selector": "",
                    "status": false,
                    "value": ""
                },
                "nodeType": 0
            },
            "0": {
                "invocation": {
                    "address": "0x44e94034afce2dd3cd5eb62528f239686fc8f162",
                    "callData": "0x000000000000000000000000f6cf3ab751154b8fb39706406c82a7321dbffda500000000000000000000000000000000000000000000000000000000273040f0000000000000000000000000000000000000000000000000000000000000024200000000000000000000000000000000000000000000000000000000000000a00000000000000000000000002cf66e4c23b9a5c81c3f206c4438ef78de451185000000000000000000000000000000000000000000000000000000000000000df5cc926b6c33fe5b185e5246ae9bb91d6fbb1baf4cededc873b0fde9ff4428e3ec8fdf7047933a3d151cd913b08c6420747a09e4216c65d9b95261c9efc625dbf51ab87aa1beb8275ef13c4ab98b35488f4f7aaf06d75ba777ec69641ef291f7939e74c52af63786b69e6fc67c8ebc91a1e0ba9e433ed88b38f452394be29cb81a18ac20a26386af012f90e21ed4467540669d3a7b2e0604c6f022a6cd7fa91697e37960b31fd1ae5285cc73d6f10522734564a6b6dfc4c3a624bcec10aff594171ea61ec89022d295af1d3b3120f44280da8b10ba73799200c7fc0e1be364a649af2e0cd16ee5abe3c58569d1f6c1b25257161a422360b9ab59de1550a47ef4527e773599fbaa3058dd923f7b9663d62253a304e496b1764453e812c41c082d91fcfe00635214d93d0e9dba7661291897a7710bdf5e8364e2ac7ec1dfe704dc8858e94c2b372302d4642535dabb5f8f97d0968cc7b96f189cf15b1b807c15105dbf1c8188197a9bf1460aed252b06ee0913aaad4685e0bfb63e2be881434cbfc9fde1c29515ffcfd5fa94582e476f205d1192bef4f85e9e81b6ce1da0af8d4f",
                    "decodedMethod": {
                        "callParams": [
                            {
                                "name": "creatorContractAddress",
                                "type": "address",
                                "value": "0xf6cf3ab751154b8fb39706406c82a7321dbffda5"
                            },
                            {
                                "name": "claimIndex",
                                "type": "uint256",
                                "value": "657,473,776"
                            },
                            {
                                "name": "mintIndex",
                                "type": "uint32",
                                "value": "578"
                            },
                            {
                                "name": "merkleProof",
                                "type": "bytes32[]",
                                "value": [
                                    "0xf5cc926b6c33fe5b185e5246ae9bb91d6fbb1baf4cededc873b0fde9ff4428e3",
                                    "0xec8fdf7047933a3d151cd913b08c6420747a09e4216c65d9b95261c9efc625db",
                                    "0xf51ab87aa1beb8275ef13c4ab98b35488f4f7aaf06d75ba777ec69641ef291f7",
                                    "0x939e74c52af63786b69e6fc67c8ebc91a1e0ba9e433ed88b38f452394be29cb8",
                                    "0x1a18ac20a26386af012f90e21ed4467540669d3a7b2e0604c6f022a6cd7fa916",
                                    "0x97e37960b31fd1ae5285cc73d6f10522734564a6b6dfc4c3a624bcec10aff594",
                                    "0x171ea61ec89022d295af1d3b3120f44280da8b10ba73799200c7fc0e1be364a6",
                                    "0x49af2e0cd16ee5abe3c58569d1f6c1b25257161a422360b9ab59de1550a47ef4",
                                    "0x527e773599fbaa3058dd923f7b9663d62253a304e496b1764453e812c41c082d",
                                    "0x91fcfe00635214d93d0e9dba7661291897a7710bdf5e8364e2ac7ec1dfe704dc",
                                    "0x8858e94c2b372302d4642535dabb5f8f97d0968cc7b96f189cf15b1b807c1510",
                                    "0x5dbf1c8188197a9bf1460aed252b06ee0913aaad4685e0bfb63e2be881434cbf",
                                    "0xc9fde1c29515ffcfd5fa94582e476f205d1192bef4f85e9e81b6ce1da0af8d4f"
                                ]
                            },
                            {
                                "name": "mintFor",
                                "type": "address",
                                "value": "0x2cf66e4c23b9a5c81c3f206c4438ef78de451185"
                            }
                        ],
                        "constructorArguments": "",
                        "name": "mint",
                        "returnParams": [],
                        "signature": "mint(address,uint256,uint32,bytes32[],address)"
                    },
                    "errorInfo": "",
                    "fromAddress": "0x2cf66e4c23b9a5c81c3f206c4438ef78de451185",
                    "gasUsed": 135252,
                    "id": 0,
                    "methodDecoded": true,
                    "operation": "CALL",
                    "output": "",
                    "revert": false,
                    "revertMessage": "",
                    "selector": "0xfa2b068f",
                    "status": true,
                    "value": "0"
                },
                "nodeType": 0
            },
            "1": {
                "invocation": {
                    "address": "0xf6cf3ab751154b8fb39706406c82a7321dbffda5",
                    "callData": "0x000000000000000000000000000000000000000000000000000000000000006000000000000000000000000000000000000000000000000000000000000000a000000000000000000000000000000000000000000000000000000000000000e000000000000000000000000000000000000000000000000000000000000000010000000000000000000000002cf66e4c23b9a5c81c3f206c4438ef78de4511850000000000000000000000000000000000000000000000000000000000000001000000000000000000000000000000000000000000000000000000000000000100000000000000000000000000000000000000000000000000000000000000010000000000000000000000000000000000000000000000000000000000000001",
                    "decodedMethod": {
                        "callParams": [
                            {
                                "name": "to",
                                "type": "address[]",
                                "value": [
                                    "0x2cf66e4c23b9a5c81c3f206c4438ef78de451185"
                                ]
                            },
                            {
                                "name": "tokenIds",
                                "type": "uint256[]",
                                "value": [
                                    "1"
                                ]
                            },
                            {
                                "name": "amounts",
                                "type": "uint256[]",
                                "value": [
                                    "1"
                                ]
                            }
                        ],
                        "constructorArguments": "",
                        "name": "mintExtensionExisting",
                        "returnParams": [],
                        "signature": "mintExtensionExisting(address[],uint256[],uint256[])"
                    },
                    "errorInfo": "",
                    "fromAddress": "0x44e94034afce2dd3cd5eb62528f239686fc8f162",
                    "gasUsed": 70145,
                    "id": 1,
                    "methodDecoded": true,
                    "operation": "CALL",
                    "output": "",
                    "revert": false,
                    "revertMessage": "",
                    "selector": "0xe6c884dc",
                    "status": true,
                    "value": "0"
                },
                "nodeType": 0
            },
            "2": {
                "invocation": {
                    "address": "0x6bf5ed59de0e19999d264746843ff931c0133090",
                    "callData": "0x000000000000000000000000000000000000000000000000000000000000006000000000000000000000000000000000000000000000000000000000000000a000000000000000000000000000000000000000000000000000000000000000e000000000000000000000000000000000000000000000000000000000000000010000000000000000000000002cf66e4c23b9a5c81c3f206c4438ef78de4511850000000000000000000000000000000000000000000000000000000000000001000000000000000000000000000000000000000000000000000000000000000100000000000000000000000000000000000000000000000000000000000000010000000000000000000000000000000000000000000000000000000000000001",
                    "decodedMethod": {
                        "callParams": [
                            {
                                "name": "to",
                                "type": "address[]",
                                "value": [
                                    "0x2cf66e4c23b9a5c81c3f206c4438ef78de451185"
                                ]
                            },
                            {
                                "name": "tokenIds",
                                "type": "uint256[]",
                                "value": [
                                    "1"
                                ]
                            },
                            {
                                "name": "amounts",
                                "type": "uint256[]",
                                "value": [
                                    "1"
                                ]
                            }
                        ],
                        "constructorArguments": "",
                        "name": "mintExtensionExisting",
                        "returnParams": [],
                        "signature": "mintExtensionExisting(address[],uint256[],uint256[])"
                    },
                    "errorInfo": "",
                    "fromAddress": "0xf6cf3ab751154b8fb39706406c82a7321dbffda5",
                    "gasUsed": 65178,
                    "id": 2,
                    "methodDecoded": true,
                    "operation": "DELEGATECALL",
                    "output": "",
                    "revert": false,
                    "revertMessage": "",
                    "selector": "0xe6c884dc",
                    "status": true,
                    "value": "0"
                },
                "nodeType": 0
            },
            "3": {
                "invocation": {
                    "address": "0x1de06d2875453a272628bbb957077d18eb4a84cd",
                    "callData": "0x00000000000000000000000044e94034afce2dd3cd5eb62528f239686fc8f16200000000000000000000000000000000000000000000000000000000000000000000000000000000000000002cf66e4c23b9a5c81c3f206c4438ef78de45118500000000000000000000000000000000000000000000000000000000000000a000000000000000000000000000000000000000000000000000000000000000e00000000000000000000000000000000000000000000000000000000000000001000000000000000000000000000000000000000000000000000000000000000100000000000000000000000000000000000000000000000000000000000000010000000000000000000000000000000000000000000000000000000000000001",
                    "decodedMethod": {
                        "callParams": [
                            {
                                "name": "operator",
                                "type": "address",
                                "value": "0x44e94034afce2dd3cd5eb62528f239686fc8f162"
                            },
                            {
                                "name": "from",
                                "type": "address",
                                "value": "0x0000000000000000000000000000000000000000"
                            },
                            {
                                "name": "",
                                "type": "address",
                                "value": "0x2cf66e4c23b9a5c81c3f206c4438ef78de451185"
                            },
                            {
                                "name": "",
                                "type": "uint256[]",
                                "value": [
                                    "1"
                                ]
                            },
                            {
                                "name": "",
                                "type": "uint256[]",
                                "value": [
                                    "1"
                                ]
                            }
                        ],
                        "constructorArguments": "",
                        "name": "approveTransfer",
                        "returnParams": [
                            {
                                "name": "",
                                "type": "bool",
                                "value": true
                            }
                        ],
                        "signature": "approveTransfer(address,address,address,uint256[],uint256[])"
                    },
                    "errorInfo": "",
                    "fromAddress": "0xf6cf3ab751154b8fb39706406c82a7321dbffda5",
                    "gasUsed": 11494,
                    "id": 3,
                    "methodDecoded": true,
                    "operation": "CALL",
                    "output": "0x0000000000000000000000000000000000000000000000000000000000000001",
                    "revert": false,
                    "revertMessage": "",
                    "selector": "0xe4835177",
                    "status": true,
                    "value": "0"
                },
                "nodeType": 0
            },
            "4": {
                "invocation": {
                    "address": "0x000000000000aaeb6d7670e522a718067333cd4e",
                    "callData": "0x0000000000000000000000001de06d2875453a272628bbb957077d18eb4a84cd00000000000000000000000044e94034afce2dd3cd5eb62528f239686fc8f162",
                    "decodedMethod": {
                        "callParams": [
                            {
                                "name": "registrant",
                                "type": "address",
                                "value": "0x1de06d2875453a272628bbb957077d18eb4a84cd"
                            },
                            {
                                "name": "operator",
                                "type": "address",
                                "value": "0x44e94034afce2dd3cd5eb62528f239686fc8f162"
                            }
                        ],
                        "constructorArguments": "",
                        "name": "isOperatorAllowed",
                        "returnParams": [
                            {
                                "name": "",
                                "type": "bool",
                                "value": true
                            }
                        ],
                        "signature": "isOperatorAllowed(address,address)"
                    },
                    "errorInfo": "",
                    "fromAddress": "0x1de06d2875453a272628bbb957077d18eb4a84cd",
                    "gasUsed": 7627,
                    "id": 4,
                    "methodDecoded": true,
                    "operation": "STATICCALL",
                    "output": "0x0000000000000000000000000000000000000000000000000000000000000001",
                    "revert": false,
                    "revertMessage": "",
                    "selector": "0xc6171134",
                    "status": true,
                    "value": "0"
                },
                "nodeType": 0
            },
            "5": {
                "event": {
                    "contract": "0xf6cf3ab751154b8fb39706406c82a7321dbffda5",
                    "decodedLog": {
                        "name": "TransferSingle",
                        "params": [
                            {
                                "name": "operator",
                                "type": "address",
                                "value": "0x44e94034afce2dd3cd5eb62528f239686fc8f162"
                            },
                            {
                                "name": "from",
                                "type": "address",
                                "value": "0x0000000000000000000000000000000000000000"
                            },
                            {
                                "name": "to",
                                "type": "address",
                                "value": "0x2cf66e4c23b9a5c81c3f206c4438ef78de451185"
                            },
                            {
                                "name": "id",
                                "type": "uint256",
                                "value": "1"
                            },
                            {
                                "name": "value",
                                "type": "uint256",
                                "value": "1"
                            }
                        ],
                        "signature": "TransferSingle(address,address,address,uint256,uint256)"
                    },
                    "id": 5,
                    "logData": "0x00000000000000000000000000000000000000000000000000000000000000010000000000000000000000000000000000000000000000000000000000000001",
                    "logDecoded": true,
                    "operation": "EVENT",
                    "revert": false,
                    "status": true,
                    "topics": [
                        "0xc3d58168c5ae7397731d063d5bbf3d657854427343f4c083240f7aacaa2d0f62",
                        "0x00000000000000000000000044e94034afce2dd3cd5eb62528f239686fc8f162",
                        "0x0000000000000000000000000000000000000000000000000000000000000000",
                        "0x0000000000000000000000002cf66e4c23b9a5c81c3f206c4438ef78de451185"
                    ]
                },
                "nodeType": 1
            },
            "6": {
                "invocation": {
                    "address": "0x5a5d373bb9778113549ae68b62583628c1f9bd5b",
                    "callData": "0x",
                    "decodedMethod": null,
                    "errorInfo": "",
                    "fromAddress": "0x44e94034afce2dd3cd5eb62528f239686fc8f162",
                    "gasUsed": 0,
                    "id": 6,
                    "methodDecoded": false,
                    "operation": "CALL",
                    "output": "",
                    "revert": false,
                    "revertMessage": "",
                    "selector": "fallback",
                    "status": true,
                    "value": "0"
                },
                "nodeType": 0
            },
            "7": {
                "event": {
                    "contract": "0x44e94034afce2dd3cd5eb62528f239686fc8f162",
                    "decodedLog": {
                        "name": "ClaimMint",
                        "params": [
                            {
                                "name": "creatorContract",
                                "type": "address",
                                "value": "0xf6cf3ab751154b8fb39706406c82a7321dbffda5"
                            },
                            {
                                "name": "claimIndex",
                                "type": "uint256",
                                "value": "0"
                            }
                        ],
                        "signature": "ClaimMint(address,uint256)"
                    },
                    "id": 7,
                    "logData": "0x",
                    "logDecoded": true,
                    "operation": "EVENT",
                    "revert": false,
                    "status": true,
                    "topics": [
                        "0x5d404f369772cfab2b65717fca9bc2077efeab89a0dbec036bf0c13783154eb1",
                        "0x000000000000000000000000f6cf3ab751154b8fb39706406c82a7321dbffda5",
                        "0x0000000000000000000000000000000000000000000000000000000000000000"
                    ]
                },
                "nodeType": 1
            }
        },
        "gasFlame": [
            {
                "children": [
                    {
                        "children": [
                            {
                                "children": [],
                                "depth": 0,
                                "name": "Initial Gas",
                                "value": 29040
                            },
                            {
                                "children": [
                                    {
                                        "children": [
                                            {
                                                "children": [
                                                    {
                                                        "children": [
                                                            {
                                                                "children": [],
                                                                "depth": 4,
                                                                "name": "isOperatorAllowed",
                                                                "value": 7627
                                                            }
                                                        ],
                                                        "depth": 3,
                                                        "name": "approveTransfer",
                                                        "value": 11494
                                                    }
                                                ],
                                                "depth": 2,
                                                "name": "mintExtensionExisting",
                                                "value": 65178
                                            }
                                        ],
                                        "depth": 1,
                                        "name": "mintExtensionExisting",
                                        "value": 70145
                                    },
                                    {
                                        "children": [],
                                        "depth": 1,
                                        "name": "fallback",
                                        "value": 0
                                    }
                                ],
                                "depth": 0,
                                "name": "Executed Gas",
                                "value": 111812
                            }
                        ],
                        "depth": -1,
                        "name": "Actual Gas Used",
                        "value": 135252
                    },
                    {
                        "children": [],
                        "depth": -1,
                        "name": "Refunded Gas",
                        "value": 5600
                    }
                ],
                "depth": -2,
                "name": "Total Gas",
                "value": 140852
            }
        ],
        "isConfirmed": true,
        "mainTrace": [
            {
                "children": [
                    {
                        "children": [
                            {
                                "children": [
                                    {
                                        "children": [
                                            {
                                                "children": [
                                                    {
                                                        "children": [],
                                                        "depth": 4,
                                                        "id": 4,
                                                        "order": 4
                                                    }
                                                ],
                                                "depth": 3,
                                                "id": 3,
                                                "order": 3
                                            },
                                            {
                                                "children": [],
                                                "depth": 3,
                                                "id": 5,
                                                "order": 5
                                            }
                                        ],
                                        "depth": 2,
                                        "id": 2,
                                        "order": 2
                                    }
                                ],
                                "depth": 1,
                                "id": 1,
                                "order": 1
                            },
                            {
                                "children": [],
                                "depth": 1,
                                "id": 6,
                                "order": 6
                            },
                            {
                                "children": [],
                                "depth": 1,
                                "id": 7,
                                "order": 7
                            }
                        ],
                        "depth": 0,
                        "id": 0,
                        "order": 0
                    }
                ],
                "depth": -1,
                "id": -1,
                "order": -1
            }
        ],
        "mainTraceNodeCount": 8,
        "parentIdMap": {
            "0": -1,
            "1": 0,
            "2": 1,
            "3": 2,
            "4": 3,
            "5": 2,
            "6": 0,
            "7": 0
        },
        "tidyTrace": [
            {
                "children": [
                    {
                        "children": [
                            {
                                "children": [
                                    {
                                        "children": [
                                            {
                                                "children": [],
                                                "depth": 3,
                                                "id": 3,
                                                "order": 3
                                            },
                                            {
                                                "children": [],
                                                "depth": 3,
                                                "id": 5,
                                                "order": 5
                                            }
                                        ],
                                        "depth": 2,
                                        "id": 2,
                                        "order": 2
                                    }
                                ],
                                "depth": 1,
                                "id": 1,
                                "order": 1
                            },
                            {
                                "children": [],
                                "depth": 1,
                                "id": 6,
                                "order": 6
                            },
                            {
                                "children": [],
                                "depth": 1,
                                "id": 7,
                                "order": 7
                            }
                        ],
                        "depth": 0,
                        "id": 0,
                        "order": 0
                    }
                ],
                "depth": -1,
                "id": -1,
                "order": -1
            }
        ],
        "tidyTraceNodeCount": 7
    },
    "state_change": {
        "stateChanges": [
            {
                "address": "0x44e94034afce2dd3cd5eb62528f239686fc8f162",
                "erc": "",
                "slots": [
                    {
                        "current": "0x0000000000000002000000000000000063e6f6a00000000000000000000001e0",
                        "key": "0xcf9b9148b2ed071d9fcf4dfae1b2df712b6e61ecaab829754d8dca07df2d8a18",
                        "prev": "0x0000000000000002000000000000000063e6f6a00000000000000000000001df"
                    },
                    {
                        "current": "0x42000414444102002200100c04001008000080000086018ca198942080400010",
                        "key": "0x0c40fca62ba6672331d4f246c34e165966c49c4d63a5260a0aa70c73c48e06ac",
                        "prev": "0x42000414444102002200100c040010080000800000860188a198942080400010"
                    }
                ],
                "storageVariables": [
                    {
                        "name": "_claimMintIndices",
                        "type": "mapping(address => mapping(uint256 => mapping(uint256 => uint256)))",
                        "value": {
                            "pairs": [
                                {
                                    "key": "0xf6cf3ab751154b8fb39706406c82a7321dbffda5",
                                    "value": {
                                        "pairs": [
                                            {
                                                "key": "657473776",
                                                "value": {
                                                    "pairs": [
                                                        {
                                                            "key": "2",
                                                            "value": {
                                                                "current": "29852676159867880635135470594642704361444182785789314932610218602515501416464",
                                                                "prev": "29852676159867880635135470594642704361444182785789314932536431626220663210000",
                                                                "typeTag": 1
                                                            }
                                                        }
                                                    ],
                                                    "typeTag": 4
                                                }
                                            }
                                        ],
                                        "typeTag": 4
                                    }
                                }
                            ],
                            "typeTag": 4
                        }
                    },
                    {
                        "name": "_claims",
                        "type": "mapping(address => mapping(uint256 => struct IERC1155LazyPayableClaim.Claim))",
                        "value": {
                            "pairs": [
                                {
                                    "key": "0xf6cf3ab751154b8fb39706406c82a7321dbffda5",
                                    "value": {
                                        "pairs": [
                                            {
                                                "key": "657473776",
                                                "value": {
                                                    "fields": [
                                                        {
                                                            "name": "total",
                                                            "type": "uint32",
                                                            "value": {
                                                                "current": "480",
                                                                "prev": "479",
                                                                "typeTag": 1
                                                            }
                                                        },
                                                        {
                                                            "name": "totalMax",
                                                            "type": "uint32",
                                                            "value": {
                                                                "current": "0",
                                                                "prev": "0",
                                                                "typeTag": 1
                                                            }
                                                        },
                                                        {
                                                            "name": "walletMax",
                                                            "type": "uint32",
                                                            "value": {
                                                                "current": "0",
                                                                "prev": "0",
                                                                "typeTag": 1
                                                            }
                                                        },
                                                        {
                                                            "name": "startDate",
                                                            "type": "uint48",
                                                            "value": {
                                                                "current": "1676080800",
                                                                "prev": "1676080800",
                                                                "typeTag": 1
                                                            }
                                                        },
                                                        {
                                                            "name": "endDate",
                                                            "type": "uint48",
                                                            "value": {
                                                                "current": "0",
                                                                "prev": "0",
                                                                "typeTag": 1
                                                            }
                                                        },
                                                        {
                                                            "name": "storageProtocol",
                                                            "type": "enum IERC1155LazyPayableClaim.StorageProtocol",
                                                            "value": {
                                                                "current": "2",
                                                                "prev": "2",
                                                                "typeTag": 1
                                                            }
                                                        },
                                                        {
                                                            "name": "location",
                                                            "type": "string",
                                                            "value": {
                                                                "current": "u_nh7GbwX7QyD5Gp7sy2JAmHmfDd4GF8-UJsIQ_s13E",
                                                                "prev": "u_nh7GbwX7QyD5Gp7sy2JAmHmfDd4GF8-UJsIQ_s13E",
                                                                "typeTag": 1
                                                            }
                                                        }
                                                    ],
                                                    "typeTag": 3
                                                }
                                            }
                                        ],
                                        "typeTag": 4
                                    }
                                }
                            ],
                            "typeTag": 4
                        }
                    }
                ]
            },
            {
                "address": "0xf6cf3ab751154b8fb39706406c82a7321dbffda5",
                "erc": "ERC-1155",
                "slots": [
                    {
                        "current": "0x0000000000000000000000000000000000000000000000000000000000000001",
                        "key": "0x5f93b5c4cc6baa85b4d877765af13901f8702ca3f6ae406cf64d6b486b7ae77a",
                        "prev": "0x0000000000000000000000000000000000000000000000000000000000000000"
                    },
                    {
                        "current": "0x00000000000000000000000000000000000000000000000000000000000001e0",
                        "key": "0x68aa970fc9982b1736189fa5938f76fedf015d4aba180c12c9f5c4c81e25f578",
                        "prev": "0x00000000000000000000000000000000000000000000000000000000000001df"
                    }
                ],
                "storageVariables": [
                    {
                        "name": "_balances",
                        "type": "mapping(uint256 => mapping(address => uint256))",
                        "value": {
                            "pairs": [
                                {
                                    "key": "1",
                                    "value": {
                                        "pairs": [
                                            {
                                                "key": "0x2cf66e4c23b9a5c81c3f206c4438ef78de451185",
                                                "value": {
                                                    "current": "1",
                                                    "prev": "0",
                                                    "typeTag": 1
                                                }
                                            }
                                        ],
                                        "typeTag": 4
                                    }
                                }
                            ],
                            "typeTag": 4
                        }
                    },
                    {
                        "name": "_totalSupply",
                        "type": "mapping(uint256 => uint256)",
                        "value": {
                            "pairs": [
                                {
                                    "key": "1",
                                    "value": {
                                        "current": "480",
                                        "prev": "479",
                                        "typeTag": 1
                                    }
                                }
                            ],
                            "typeTag": 4
                        }
                    }
                ]
            }
        ]
    }
}