{
    "balance_change": {
        "balanceChanges": [
            {
                "account": "0x716fba1a0a9015be9f7276e3615a5abcdcf16232",
                "assets": [
                    {
                        "address": "0x5e7ebea68ab05198f771d77a875480314f1d0aae",
                        "amount": "67.22689075630252",
                        "iconUrl": "",
                        "isERC1155": false,
                        "isERC721": false,
                        "sign": true,
                        "value": ""
                    }
                ]
            },
            {
                "account": "0x38bcaf0d4fb50e391fb9d8640612cdf90ba8c3eb",
                "assets": [
                    {
                        "address": "0x5e7ebea68ab05198f771d77a875480314f1d0aae",
                        "amount": "67.22689075630252",
                        "iconUrl": "",
                        "isERC1155": false,
                        "isERC721": false,
                        "sign": false,
                        "value": ""
                    }
                ]
            }
        ]
    },
    "profile": {
        "basic_info": {
            "baseFee": "",
            "blockNumber": 8836744,
            "callData": "0x48f79607000000000000000000000000000000000000000000000003a4f5e4f5a3673ec0",
            "debugEnable": true,
            "errorInfo": "",
            "eventCount": 2,
            "feeRecipient": "0x5a0b54d5dc17e0aadc383d2db43b0a0d3e029c4c",
            "formatValue": "0",
            "gasLimit": 166969,
            "gasPrice": "10",
            "gasUsed": 119264,
            "intTxnCount": 7,
            "internalRevert": false,
            "internalRevertMessage": "",
            "isContractCreation": false,
            "isFlashloan": false,
            "maxFee": "",
            "nonce": 8,
            "overwritedBlockNumber": -1,
            "priorityFee": "",
            "receiver": "0x38bcaf0d4fb50e391fb9d8640612cdf90ba8c3eb",
            "revertMessage": "",
            "sender": "0x716fba1a0a9015be9f7276e3615a5abcdcf16232",
            "simulationEnable": true,
            "sourceTxnHash": "0xaf998e22a58a65c7b727b0f9ee86590a1581b5cd200fa03d13a286750cf50f08",
            "status": true,
            "timestamp": "2019-10-29T22:57:03Z",
            "transactionFee": "0.00119264",
            "txnHash": "0xaf998e22a58a65c7b727b0f9ee86590a1581b5cd200fa03d13a286750cf50f08",
            "txnIndex": 39,
            "type": 0,
            "value": "0"
        },
        "fund_flow": [
            {
                "amount": "67.22689075630252",
                "from": "0x38bcaf0d4fb50e391fb9d8640612cdf90ba8c3eb",
                "id": 1,
                "isERC1155": false,
                "isERC721": false,
                "isReverted": false,
                "order": 1,
                "to": "0x716fba1a0a9015be9f7276e3615a5abcdcf16232",
                "token": "0x5e7ebea68ab05198f771d77a875480314f1d0aae"
            }
        ],
        "token_infos": [
            {
                "address": "0xeeeeeeeeeeeeeeeeeeeeeeeeeeeeeeeeeeeeeeee",
                "decimals": 18
            },
            {
                "address": "0x5e7ebea68ab05198f771d77a875480314f1d0aae",
                "decimals": 18
            },
            {
                "address": "0xc02aaa39b223fe8d0a0e5c4f27ead9083c756cc2",
                "decimals": 18
            }
        ]
    },
    "address_label": {
        "labels": [
            {
                "address": "0xeeeeeeeeeeeeeeeeeeeeeeeeeeeeeeeeeeeeeeee",
                "label": "Ether"
            },
            {
                "address": "0x5e7ebea68ab05198f771d77a875480314f1d0aae",
                "label": "DABANKING: DAB Token"
            },
            {
                "address": "0x38bcaf0d4fb50e391fb9d8640612cdf90ba8c3eb",
                "label": "ReserveFund"
            },
            {
                "address": "0xa8745e0bf1953f9a8ee785b22dc2b383dbf795e6",
                "label": "Citizen"
            },
            {
                "address": "0x0000000000000000000000000000000000000001",
                "label": "Precompiled"
            },
            {
                "address": "0x0000000000000000000000000000000000000004",
                "label": "Precompiled"
            },
            {
                "address": "0x7ee36450e39e1058eb06fa953e268b21f142365b",
                "label": "Wallet"
            },
            {
                "address": "0x0000000000000000000000000000000000000002",
                "label": "Precompiled"
            },
            {
                "address": "0x0000000000000000000000000000000000000003",
                "label": "Precompiled"
            }
        ]
    },
    "trace": {
        "accountLabels": null,
        "dataMap": {
            "-1": {
                "invocation": {
                    "address": "0x716fba1a0a9015be9f7276e3615a5abcdcf16232",
                    "callData": "",
                    "decodedMethod": null,
                    "errorInfo": "",
                    "fromAddress": "",
                    "gasUsed": 0,
                    "id": -1,
                    "methodDecoded": false,
                    "operation": "",
                    "output": "",
                    "revert": false,
                    "revertMessage": "",
                    "selector": "",
                    "status": false,
                    "value": ""
                },
                "nodeType": 0
            },
            "0": {
                "invocation": {
                    "address": "0x38bcaf0d4fb50e391fb9d8640612cdf90ba8c3eb",
                    "callData": "0x000000000000000000000000000000000000000000000003a4f5e4f5a3673ec0",
                    "decodedMethod": {
                        "callParams": [
                            {
                                "name": "_tokenAmount",
                                "type": "uint256",
                                "value": "67,226,890,756,302,520,000"
                            }
                        ],
                        "constructorArguments": "",
                        "name": "miningToken",
                        "returnParams": [],
                        "signature": "miningToken(uint256)"
                    },
                    "errorInfo": "",
                    "fromAddress": "0x716fba1a0a9015be9f7276e3615a5abcdcf16232",
                    "gasUsed": 119264,
                    "id": 0,
                    "methodDecoded": true,
                    "operation": "CALL",
                    "output": "",
                    "revert": false,
                    "revertMessage": "",
                    "selector": "0x48f79607",
                    "status": true,
                    "value": "0"
                },
                "nodeType": 0
            },
            "1": {
                "invocation": {
                    "address": "0xa8745e0bf1953f9a8ee785b22dc2b383dbf795e6",
                    "callData": "0x000000000000000000000000716fba1a0a9015be9f7276e3615a5abcdcf16232",
                    "decodedMethod": {
                        "callParams": [
                            {
                                "name": "_investor",
                                "type": "address",
                                "value": "0x716fba1a0a9015be9f7276e3615a5abcdcf16232"
                            }
                        ],
                        "constructorArguments": "",
                        "name": "isCitizen",
                        "returnParams": [
                            {
                                "name": "",
                                "type": "bool",
                                "value": true
                            }
                        ],
                        "signature": "isCitizen(address)"
                    },
                    "errorInfo": "",
                    "fromAddress": "0x38bcaf0d4fb50e391fb9d8640612cdf90ba8c3eb",
                    "gasUsed": 2347,
                    "id": 1,
                    "methodDecoded": true,
                    "operation": "CALL",
                    "output": "0x0000000000000000000000000000000000000000000000000000000000000001",
                    "revert": false,
                    "revertMessage": "",
                    "selector": "0xf3caad03",
                    "status": true,
                    "value": "0"
                },
                "nodeType": 0
            },
            "2": {
                "invocation": {
                    "address": "0x7ee36450e39e1058eb06fa953e268b21f142365b",
                    "callData": "0x000000000000000000000000716fba1a0a9015be9f7276e3615a5abcdcf16232",
                    "decodedMethod": {
                        "callParams": [
                            {
                                "name": "_investor",
                                "type": "address",
                                "value": "0x716fba1a0a9015be9f7276e3615a5abcdcf16232"
                            }
                        ],
                        "constructorArguments": "",
                        "name": "getProfitBalance",
                        "returnParams": [
                            {
                                "name": "",
                                "type": "uint256",
                                "value": "51,792"
                            }
                        ],
                        "signature": "getProfitBalance(address)"
                    },
                    "errorInfo": "",
                    "fromAddress": "0x38bcaf0d4fb50e391fb9d8640612cdf90ba8c3eb",
                    "gasUsed": 2388,
                    "id": 2,
                    "methodDecoded": true,
                    "operation": "CALL",
                    "output": "0x000000000000000000000000000000000000000000000000000000000000ca50",
                    "revert": false,
                    "revertMessage": "",
                    "selector": "0xbb1937c0",
                    "status": true,
                    "value": "0"
                },
                "nodeType": 0
            },
            "3": {
                "invocation": {
                    "address": "0x7ee36450e39e1058eb06fa953e268b21f142365b",
                    "callData": "0x000000000000000000000000000000000000000000000000000000000000bb7f000000000000000000000000716fba1a0a9015be9f7276e3615a5abcdcf16232",
                    "decodedMethod": {
                        "callParams": [
                            {
                                "name": "_fiatAmount",
                                "type": "uint256",
                                "value": "47,999"
                            },
                            {
                                "name": "_from",
                                "type": "address",
                                "value": "0x716fba1a0a9015be9f7276e3615a5abcdcf16232"
                            }
                        ],
                        "constructorArguments": "",
                        "name": "validateCanMineToken",
                        "returnParams": [],
                        "signature": "validateCanMineToken(uint256,address)"
                    },
                    "errorInfo": "",
                    "fromAddress": "0x38bcaf0d4fb50e391fb9d8640612cdf90ba8c3eb",
                    "gasUsed": 1568,
                    "id": 3,
                    "methodDecoded": true,
                    "operation": "CALL",
                    "output": "",
                    "revert": false,
                    "revertMessage": "",
                    "selector": "0x3296c7d6",
                    "status": true,
                    "value": "0"
                },
                "nodeType": 0
            },
            "4": {
                "invocation": {
                    "address": "0x7ee36450e39e1058eb06fa953e268b21f142365b",
                    "callData": "0x000000000000000000000000716fba1a0a9015be9f7276e3615a5abcdcf16232000000000000000000000000000000000000000000000000000000000000bb7f",
                    "decodedMethod": {
                        "callParams": [
                            {
                                "name": "_from",
                                "type": "address",
                                "value": "0x716fba1a0a9015be9f7276e3615a5abcdcf16232"
                            },
                            {
                                "name": "_amount",
                                "type": "uint256",
                                "value": "47,999"
                            }
                        ],
                        "constructorArguments": "",
                        "name": "mineToken",
                        "returnParams": [],
                        "signature": "mineToken(address,uint256)"
                    },
                    "errorInfo": "",
                    "fromAddress": "0x38bcaf0d4fb50e391fb9d8640612cdf90ba8c3eb",
                    "gasUsed": 11527,
                    "id": 4,
                    "methodDecoded": true,
                    "operation": "CALL",
                    "output": "",
                    "revert": false,
                    "revertMessage": "",
                    "selector": "0x23e85bfb",
                    "status": true,
                    "value": "0"
                },
                "nodeType": 0
            },
            "5": {
                "invocation": {
                    "address": "0x5e7ebea68ab05198f771d77a875480314f1d0aae",
                    "callData": "0x000000000000000000000000716fba1a0a9015be9f7276e3615a5abcdcf16232",
                    "decodedMethod": {
                        "callParams": [
                            {
                                "name": "owner",
                                "type": "address",
                                "value": "0x716fba1a0a9015be9f7276e3615a5abcdcf16232"
                            }
                        ],
                        "constructorArguments": "",
                        "name": "balanceOf",
                        "returnParams": [
                            {
                                "decimalAvailable": true,
                                "name": "",
                                "type": "uint256",
                                "value": "415,924,452,641,467,350,000"
                            }
                        ],
                        "signature": "balanceOf(address)"
                    },
                    "errorInfo": "",
                    "fromAddress": "0x38bcaf0d4fb50e391fb9d8640612cdf90ba8c3eb",
                    "gasUsed": 741,
                    "id": 5,
                    "methodDecoded": true,
                    "operation": "CALL",
                    "output": "0x0000000000000000000000000000000000000000000000168c1c7e03e5713bf0",
                    "revert": false,
                    "revertMessage": "",
                    "selector": "0x70a08231",
                    "status": true,
                    "value": "0"
                },
                "nodeType": 0
            },
            "6": {
                "invocation": {
                    "address": "0x5e7ebea68ab05198f771d77a875480314f1d0aae",
                    "callData": "0x000000000000000000000000716fba1a0a9015be9f7276e3615a5abcdcf16232000000000000000000000000000000000000000000000003a4f5e4f5a3673ec0",
                    "decodedMethod": {
                        "callParams": [
                            {
                                "name": "to",
                                "type": "address",
                                "value": "0x716fba1a0a9015be9f7276e3615a5abcdcf16232"
                            },
                            {
                                "decimalAvailable": true,
                                "name": "value",
                                "type": "uint256",
                                "value": "67,226,890,756,302,520,000"
                            }
                        ],
                        "constructorArguments": "",
                        "name": "transfer",
                        "returnParams": [
                            {
                                "name": "",
                                "type": "bool",
                                "value": true
                            }
                        ],
                        "signature": "transfer(address,uint256)"
                    },
                    "errorInfo": "",
                    "fromAddress": "0x38bcaf0d4fb50e391fb9d8640612cdf90ba8c3eb",
                    "gasUsed": 13549,
                    "id": 6,
                    "methodDecoded": true,
                    "operation": "CALL",
                    "output": "0x0000000000000000000000000000000000000000000000000000000000000001",
                    "revert": false,
                    "revertMessage": "",
                    "selector": "0xa9059cbb",
                    "status": true,
                    "value": "0"
                },
                "nodeType": 0
            },
            "7": {
                "event": {
                    "contract": "0x5e7ebea68ab05198f771d77a875480314f1d0aae",
                    "decodedLog": {
                        "name": "Transfer",
                        "params": [
                            {
                                "name": "from",
                                "type": "address",
                                "value": "0x38bcaf0d4fb50e391fb9d8640612cdf90ba8c3eb"
                            },
                            {
                                "name": "to",
                                "type": "address",
                                "value": "0x716fba1a0a9015be9f7276e3615a5abcdcf16232"
                            },
                            {
                                "decimalAvailable": true,
                                "name": "value",
                                "type": "uint256",
                                "value": "67,226,890,756,302,520,000"
                            }
                        ],
                        "signature": "Transfer(address,address,uint256)"
                    },
                    "id": 7,
                    "logData": "0x000000000000000000000000000000000000000000000003a4f5e4f5a3673ec0",
                    "logDecoded": true,
                    "operation": "EVENT",
                    "revert": false,
                    "status": true,
                    "topics": [
                        "0xddf252ad1be2c89b69c2b068fc378daa952ba7f163c4a11628f55a4df523b3ef",
                        "0x00000000000000000000000038bcaf0d4fb50e391fb9d8640612cdf90ba8c3eb",
                        "0x000000000000000000000000716fba1a0a9015be9f7276e3615a5abcdcf16232"
                    ]
                },
                "nodeType": 1
            },
            "8": {
                "invocation": {
                    "address": "0x5e7ebea68ab05198f771d77a875480314f1d0aae",
                    "callData": "0x000000000000000000000000716fba1a0a9015be9f7276e3615a5abcdcf16232",
                    "decodedMethod": {
                        "callParams": [
                            {
                                "name": "owner",
                                "type": "address",
                                "value": "0x716fba1a0a9015be9f7276e3615a5abcdcf16232"
                            }
                        ],
                        "constructorArguments": "",
                        "name": "balanceOf",
                        "returnParams": [
                            {
                                "decimalAvailable": true,
                                "name": "",
                                "type": "uint256",
                                "value": "483,151,343,397,769,870,000"
                            }
                        ],
                        "signature": "balanceOf(address)"
                    },
                    "errorInfo": "",
                    "fromAddress": "0x38bcaf0d4fb50e391fb9d8640612cdf90ba8c3eb",
                    "gasUsed": 741,
                    "id": 8,
                    "methodDecoded": true,
                    "operation": "CALL",
                    "output": "0x00000000000000000000000000000000000000000000001a311262f988d87ab0",
                    "revert": false,
                    "revertMessage": "",
                    "selector": "0x70a08231",
                    "status": true,
                    "value": "0"
                },
                "nodeType": 0
            },
            "9": {
                "event": {
                    "contract": "0x38bcaf0d4fb50e391fb9d8640612cdf90ba8c3eb",
                    "decodedLog": {
                        "name": "TokenMined",
                        "params": [
                            {
                                "name": "buyer",
                                "type": "address",
                                "value": "0x716fba1a0a9015be9f7276e3615a5abcdcf16232"
                            },
                            {
                                "name": "amount",
                                "type": "uint256",
                                "value": "67,226,890,756,302,520,000"
                            },
                            {
                                "name": "walletAmount",
                                "type": "uint256",
                                "value": "47,999"
                            }
                        ],
                        "signature": "TokenMined(address,uint256,uint256)"
                    },
                    "id": 9,
                    "logData": "0x000000000000000000000000716fba1a0a9015be9f7276e3615a5abcdcf16232000000000000000000000000000000000000000000000003a4f5e4f5a3673ec0000000000000000000000000000000000000000000000000000000000000bb7f",
                    "logDecoded": true,
                    "operation": "EVENT",
                    "revert": false,
                    "status": true,
                    "topics": [
                        "0x7fb08210da114cf38e2518a9feafd477ad944ed7eb08ce5bc794ce918f3409c3"
                    ]
                },
                "nodeType": 1
            }
        },
        "gasFlame": [
            {
                "children": [
                    {
                        "children": [
                            {
                                "children": [],
                                "depth": 0,
                                "name": "Initial Gas",
                                "value": 21976
                            },
                            {
                                "children": [
                                    {
                                        "children": [],
                                        "depth": 1,
                                        "name": "isCitizen",
                                        "value": 2347
                                    },
                                    {
                                        "children": [],
                                        "depth": 1,
                                        "name": "getProfitBalance",
                                        "value": 2388
                                    },
                                    {
                                        "children": [],
                                        "depth": 1,
                                        "name": "validateCanMineToken",
                                        "value": 1568
                                    },
                                    {
                                        "children": [],
                                        "depth": 1,
                                        "name": "mineToken",
                                        "value": 11527
                                    },
                                    {
                                        "children": [],
                                        "depth": 1,
                                        "name": "balanceOf",
                                        "value": 741
                                    },
                                    {
                                        "children": [],
                                        "depth": 1,
                                        "name": "transfer",
                                        "value": 13549
                                    },
                                    {
                                        "children": [],
                                        "depth": 1,
                                        "name": "balanceOf",
                                        "value": 741
                                    }
                                ],
                                "depth": 0,
                                "name": "Executed Gas",
                                "value": 97288
                            }
                        ],
                        "depth": -1,
                        "name": "Actual Gas Used",
                        "value": 119264
                    },
                    {
                        "children": [],
                        "depth": -1,
                        "name": "Refunded Gas",
                        "value": 0
                    }
                ],
                "depth": -2,
                "name": "Total Gas",
                "value": 119264
            }
        ],
        "isConfirmed": true,
        "mainTrace": [
            {
                "children": [
                    {
                        "children": [
                            {
                                "children": [],
                                "depth": 1,
                                "id": 1,
                                "order": 1
                            },
                            {
                                "children": [],
                                "depth": 1,
                                "id": 2,
                                "order": 2
                            },
                            {
                                "children": [],
                                "depth": 1,
                                "id": 3,
                                "order": 3
                            },
                            {
                                "children": [],
                                "depth": 1,
                                "id": 4,
                                "order": 4
                            },
                            {
                                "children": [],
                                "depth": 1,
                                "id": 5,
                                "order": 5
                            },
                            {
                                "children": [
                                    {
                                        "children": [],
                                        "depth": 2,
                                        "id": 7,
                                        "order": 7
                                    }
                                ],
                                "depth": 1,
                                "id": 6,
                                "order": 6
                            },
                            {
                                "children": [],
                                "depth": 1,
                                "id": 8,
                                "order": 8
                            },
                            {
                                "children": [],
                                "depth": 1,
                                "id": 9,
                                "order": 9
                            }
                        ],
                        "depth": 0,
                        "id": 0,
                        "order": 0
                    }
                ],
                "depth": -1,
                "id": -1,
                "order": -1
            }
        ],
        "mainTraceNodeCount": 10,
        "parentIdMap": {
            "0": -1,
            "1": 0,
            "2": 0,
            "3": 0,
            "4": 0,
            "5": 0,
            "6": 0,
            "7": 6,
            "8": 0,
            "9": 0
        },
        "tidyTrace": [
            {
                "children": [
                    {
                        "children": [
                            {
                                "children": [],
                                "depth": 1,
                                "id": 1,
                                "order": 1
                            },
                            {
                                "children": [],
                                "depth": 1,
                                "id": 2,
                                "order": 2
                            },
                            {
                                "children": [],
                                "depth": 1,
                                "id": 3,
                                "order": 3
                            },
                            {
                                "children": [],
                                "depth": 1,
                                "id": 4,
                                "order": 4
                            },
                            {
                                "children": [],
                                "depth": 1,
                                "id": 5,
                                "order": 5
                            },
                            {
                                "children": [
                                    {
                                        "children": [],
                                        "depth": 2,
                                        "id": 7,
                                        "order": 7
                                    }
                                ],
                                "depth": 1,
                                "id": 6,
                                "order": 6
                            },
                            {
                                "children": [],
                                "depth": 1,
                                "id": 8,
                                "order": 8
                            },
                            {
                                "children": [],
                                "depth": 1,
                                "id": 9,
                                "order": 9
                            }
                        ],
                        "depth": 0,
                        "id": 0,
                        "order": 0
                    }
                ],
                "depth": -1,
                "id": -1,
                "order": -1
            }
        ],
        "tidyTraceNodeCount": 10
    },
    "state_change": {
        "stateChanges": [
            {
                "address": "0x38bcaf0d4fb50e391fb9d8640612cdf90ba8c3eb",
                "erc": "",
                "slots": [
                    {
                        "current": "0x0000000000000000000000000000000000000000000000000000000000000002",
                        "key": "0xd8b7bc6fc58fbcc87e70ec86e291f5f5be88ae096ed51fef73a1786b5ffaa9ec",
                        "prev": "0x0000000000000000000000000000000000000000000000000000000000000001"
                    },
                    {
                        "current": "0x000000000000000000000000000000000000000000000000000000005db8c3bf",
                        "key": "0x5f3ffa78a6d6787248966620cd68c96f6b30f6ab931c87e986ef7c8140a2f6c1",
                        "prev": "0x0000000000000000000000000000000000000000000000000000000000000000"
                    },
                    {
                        "current": "0x000000000000000000000000000000000000000000000000000000000000bb7f",
                        "key": "0x5f3ffa78a6d6787248966620cd68c96f6b30f6ab931c87e986ef7c8140a2f6c2",
                        "prev": "0x0000000000000000000000000000000000000000000000000000000000000000"
                    }
                ],
                "storageVariables": [
                    {
                        "name": "mTracker",
                        "type": "mapping(address => struct ReserveFund.MTracker[])",
                        "value": {
                            "pairs": [
                                {
                                    "key": "0x716fba1a0a9015be9f7276e3615a5abcdcf16232",
                                    "value": {
                                        "elemType": "struct ReserveFund.MTracker",
                                        "elems": [
                                            {
                                                "index": 1,
                                                "value": {
                                                    "fields": [
                                                        {
                                                            "name": "time",
                                                            "type": "uint256",
                                                            "value": {
                                                                "current": "1572389823",
                                                                "prev": "0",
                                                                "typeTag": 1
                                                            }
                                                        },
                                                        {
                                                            "name": "amount",
                                                            "type": "uint256",
                                                            "value": {
                                                                "current": "47999",
                                                                "prev": "0",
                                                                "typeTag": 1
                                                            }
                                                        }
                                                    ],
                                                    "typeTag": 3
                                                }
                                            }
                                        ],
                                        "typeTag": 2
                                    }
                                }
                            ],
                            "typeTag": 4
                        }
                    }
                ]
            },
            {
                "address": "0x5e7ebea68ab05198f771d77a875480314f1d0aae",
                "erc": "ERC-20",
                "slots": [
                    {
                        "current": "0x00000000000000000000000000000000000000000000001a311262f988d87ab0",
                        "key": "0x57bc8ad71c38d9ac60a7e9f70c50e17f2c9669b3a7ec376dd8afff6c9eaa9277",
                        "prev": "0x0000000000000000000000000000000000000000000000168c1c7e03e5713bf0"
                    },
                    {
                        "current": "0x000000000000000000000000000000000000000000a2f72750418bf2d316a12a",
                        "key": "0x1fdc520dfbf57519ec7da1ee7b9e49aec8b594cf6fc98a9798b521f7cd88cce6",
                        "prev": "0x000000000000000000000000000000000000000000a2f72af53770e8767ddfea"
                    }
                ],
                "storageVariables": [
                    {
                        "name": "_balances",
                        "type": "mapping(address => uint256)",
                        "value": {
                            "pairs": [
                                {
                                    "key": "0x38bcaf0d4fb50e391fb9d8640612cdf90ba8c3eb",
                                    "value": {
                                        "current": "197013132504914874902946090",
                                        "prev": "197013199731805631205466090",
                                        "typeTag": 1
                                    }
                                },
                                {
                                    "key": "0x716fba1a0a9015be9f7276e3615a5abcdcf16232",
                                    "value": {
                                        "current": "483151343397769870000",
                                        "prev": "415924452641467350000",
                                        "typeTag": 1
                                    }
                                }
                            ],
                            "typeTag": 4
                        }
                    }
                ]
            },
            {
                "address": "0x7ee36450e39e1058eb06fa953e268b21f142365b",
                "erc": "",
                "slots": [
                    {
                        "current": "0x0000000000000000000000000000000000000000000000000000000000053406",
                        "key": "0x1f0fc2287a4ae09bdf99556e7cdb442728fa700868c5fba7229f8fcb62035139",
                        "prev": "0x0000000000000000000000000000000000000000000000000000000000047887"
                    },
                    {
                        "current": "0x0000000000000000000000000000000000000000000000000000000000000ed1",
                        "key": "0x1f0fc2287a4ae09bdf99556e7cdb442728fa700868c5fba7229f8fcb62035137",
                        "prev": "0x000000000000000000000000000000000000000000000000000000000000ca50"
                    }
                ],
                "storageVariables": [
                    {
                        "name": "userWallets",
                        "type": "mapping(address => struct Wallet.Balance)",
                        "value": {
                            "pairs": [
                                {
                                    "key": "0x716fba1a0a9015be9f7276e3615a5abcdcf16232",
                                    "value": {
                                        "fields": [
                                            {
                                                "name": "profitBalance",
                                                "type": "uint256",
                                                "value": {
                                                    "current": "3793",
                                                    "prev": "51792",
                                                    "typeTag": 1
                                                }
                                            },
                                            {
                                                "name": "amountToMineToken",
                                                "type": "uint256",
                                                "value": {
                                                    "current": "340998",
                                                    "prev": "292999",
                                                    "typeTag": 1
                                                }
                                            }
                                        ],
                                        "typeTag": 3
                                    }
                                }
                            ],
                            "typeTag": 4
                        }
                    }
                ]
            }
        ]
    }
}