{
    "balance_change": {
        "balanceChanges": [
            {
                "account": "0x0000000000000000000000000000000000000000",
                "assets": [
                    {
                        "address": "0x92a462984ac7961a0e88b196651fc19c0045e1fe",
                        "amount": "1",
                        "iconUrl": "",
                        "isERC1155": true,
                        "isERC721": false,
                        "sign": false,
                        "tokenID": "279949730360463675648710225746380237687",
                        "value": ""
                    }
                ]
            },
            {
                "account": "0xdcce3a24a66c0e9686b9a21889d71c70e5ef4424",
                "assets": [
                    {
                        "address": "0x92a462984ac7961a0e88b196651fc19c0045e1fe",
                        "amount": "1",
                        "iconUrl": "",
                        "isERC1155": true,
                        "isERC721": false,
                        "sign": true,
                        "tokenID": "279949730360463675648710225746380237687",
                        "value": ""
                    }
                ]
            }
        ]
    },
    "profile": {
        "basic_info": {
            "baseFee": "65.804983547",
            "blockNumber": 13137494,
            "callData": "0x731133e9000000000000000000000000dcce3a24a66c0e9686b9a21889d71c70e5ef442400000000000000000000000000000000d29c5b5b562745b4bb471df04f54ab77000000000000000000000000000000000000000000000000000000000000000100000000000000000000000000000000000000000000000000000000000000800000000000000000000000000000000000000000000000000000000000000000",
            "debugEnable": true,
            "errorInfo": "",
            "eventCount": 1,
            "feeRecipient": "0xbcc817f057950b0df41206c5d7125e6225cae18e",
            "formatValue": "0",
            "gasLimit": 64076,
            "gasPrice": "101",
            "gasUsed": 63576,
            "intTxnCount": 1,
            "internalRevert": false,
            "internalRevertMessage": "",
            "isContractCreation": false,
            "isFlashloan": false,
            "maxFee": "",
            "nonce": 26817,
            "overwritedBlockNumber": -1,
            "priorityFee": "",
            "receiver": "0x92a462984ac7961a0e88b196651fc19c0045e1fe",
            "revertMessage": "",
            "sender": "0x457044dff5886a9eb9365015704e1b747f384194",
            "simulationEnable": true,
            "sourceTxnHash": "0xafc9d79f608e67182a29dda2b850e93001ff08b2233ae89577d681afb30b4434",
            "status": true,
            "timestamp": "2021-09-01T03:55:15Z",
            "transactionFee": "0.006421176",
            "txnHash": "0xafc9d79f608e67182a29dda2b850e93001ff08b2233ae89577d681afb30b4434",
            "txnIndex": 108,
            "type": 0,
            "value": "0"
        },
        "fund_flow": [
            {
                "amount": "1",
                "from": "0x0000000000000000000000000000000000000000",
                "id": 1,
                "isERC1155": true,
                "isERC721": false,
                "isReverted": false,
                "order": 1,
                "to": "0xdcce3a24a66c0e9686b9a21889d71c70e5ef4424",
                "token": "0x92a462984ac7961a0e88b196651fc19c0045e1fe",
                "tokenID": "279949730360463675648710225746380237687"
            }
        ],
        "token_infos": [
            {
                "address": "0xc02aaa39b223fe8d0a0e5c4f27ead9083c756cc2",
                "decimals": 18
            },
            {
                "address": "0xeeeeeeeeeeeeeeeeeeeeeeeeeeeeeeeeeeeeeeee",
                "decimals": 18
            }
        ]
    },
    "address_label": {
        "labels": [
            {
                "address": "0x92a462984ac7961a0e88b196651fc19c0045e1fe",
                "label": "ERC1155"
            },
            {
                "address": "0xfab1a410fe287c31ce03a6717015db6f65f36996",
                "label": "EnterpriseWallet1155"
            },
            {
                "address": "0x0000000000000000000000000000000000000001",
                "label": "Precompiled"
            },
            {
                "address": "0x0000000000000000000000000000000000000002",
                "label": "Precompiled"
            },
            {
                "address": "0x0000000000000000000000000000000000000003",
                "label": "Precompiled"
            },
            {
                "address": "0x0000000000000000000000000000000000000004",
                "label": "Precompiled"
            },
            {
                "address": "0xeeeeeeeeeeeeeeeeeeeeeeeeeeeeeeeeeeeeeeee",
                "label": "Ether"
            }
        ]
    },
    "trace": {
        "accountLabels": null,
        "dataMap": {
            "-1": {
                "invocation": {
                    "address": "0x457044dff5886a9eb9365015704e1b747f384194",
                    "callData": "",
                    "decodedMethod": null,
                    "errorInfo": "",
                    "fromAddress": "",
                    "gasUsed": 0,
                    "id": -1,
                    "methodDecoded": false,
                    "operation": "",
                    "output": "",
                    "revert": false,
                    "revertMessage": "",
                    "selector": "",
                    "status": false,
                    "value": ""
                },
                "nodeType": 0
            },
            "0": {
                "invocation": {
                    "address": "0x92a462984ac7961a0e88b196651fc19c0045e1fe",
                    "callData": "0x000000000000000000000000dcce3a24a66c0e9686b9a21889d71c70e5ef442400000000000000000000000000000000d29c5b5b562745b4bb471df04f54ab77000000000000000000000000000000000000000000000000000000000000000100000000000000000000000000000000000000000000000000000000000000800000000000000000000000000000000000000000000000000000000000000000",
                    "decodedMethod": {
                        "callParams": [
                            {
                                "name": "to",
                                "type": "address",
                                "value": "0xdcce3a24a66c0e9686b9a21889d71c70e5ef4424"
                            },
                            {
                                "name": "id",
                                "type": "uint256",
                                "value": "279,949,730,360,463,675,648,710,225,746,380,237,687"
                            },
                            {
                                "name": "amount",
                                "type": "uint256",
                                "value": "1"
                            },
                            {
                                "name": "data",
                                "type": "bytes",
                                "value": "0x"
                            }
                        ],
                        "constructorArguments": "",
                        "name": "mint",
                        "returnParams": [],
                        "signature": "mint(address,uint256,uint256,bytes)"
                    },
                    "errorInfo": "",
                    "fromAddress": "0x457044dff5886a9eb9365015704e1b747f384194",
                    "gasUsed": 63576,
                    "id": 0,
                    "methodDecoded": true,
                    "operation": "CALL",
                    "output": "",
                    "revert": false,
                    "revertMessage": "",
                    "selector": "0x731133e9",
                    "status": true,
                    "value": "0"
                },
                "nodeType": 0
            },
            "1": {
                "invocation": {
                    "address": "0xfab1a410fe287c31ce03a6717015db6f65f36996",
                    "callData": "0x000000000000000000000000dcce3a24a66c0e9686b9a21889d71c70e5ef442400000000000000000000000000000000d29c5b5b562745b4bb471df04f54ab77000000000000000000000000000000000000000000000000000000000000000100000000000000000000000000000000000000000000000000000000000000800000000000000000000000000000000000000000000000000000000000000000",
                    "decodedMethod": {
                        "callParams": [
                            {
                                "name": "to",
                                "type": "address",
                                "value": "0xdcce3a24a66c0e9686b9a21889d71c70e5ef4424"
                            },
                            {
                                "name": "id",
                                "type": "uint256",
                                "value": "279,949,730,360,463,675,648,710,225,746,380,237,687"
                            },
                            {
                                "name": "amount",
                                "type": "uint256",
                                "value": "1"
                            },
                            {
                                "name": "data",
                                "type": "bytes",
                                "value": "0x"
                            }
                        ],
                        "constructorArguments": "",
                        "name": "mint",
                        "returnParams": [],
                        "signature": "mint(address,uint256,uint256,bytes)"
                    },
                    "errorInfo": "",
                    "fromAddress": "0x92a462984ac7961a0e88b196651fc19c0045e1fe",
                    "gasUsed": 34100,
                    "id": 1,
                    "methodDecoded": true,
                    "operation": "DELEGATECALL",
                    "output": "",
                    "revert": false,
                    "revertMessage": "",
                    "selector": "0x731133e9",
                    "status": true,
                    "value": "0"
                },
                "nodeType": 0
            },
            "2": {
                "event": {
                    "contract": "0x92a462984ac7961a0e88b196651fc19c0045e1fe",
                    "decodedLog": {
                        "name": "TransferSingle",
                        "params": [
                            {
                                "name": "operator",
                                "type": "address",
                                "value": "0x457044dff5886a9eb9365015704e1b747f384194"
                            },
                            {
                                "name": "from",
                                "type": "address",
                                "value": "0x0000000000000000000000000000000000000000"
                            },
                            {
                                "name": "to",
                                "type": "address",
                                "value": "0xdcce3a24a66c0e9686b9a21889d71c70e5ef4424"
                            },
                            {
                                "name": "id",
                                "type": "uint256",
                                "value": "279,949,730,360,463,675,648,710,225,746,380,237,687"
                            },
                            {
                                "name": "value",
                                "type": "uint256",
                                "value": "1"
                            }
                        ],
                        "signature": "TransferSingle(address,address,address,uint256,uint256)"
                    },
                    "id": 2,
                    "logData": "0x00000000000000000000000000000000d29c5b5b562745b4bb471df04f54ab770000000000000000000000000000000000000000000000000000000000000001",
                    "logDecoded": true,
                    "operation": "EVENT",
                    "revert": false,
                    "status": true,
                    "topics": [
                        "0xc3d58168c5ae7397731d063d5bbf3d657854427343f4c083240f7aacaa2d0f62",
                        "0x000000000000000000000000457044dff5886a9eb9365015704e1b747f384194",
                        "0x0000000000000000000000000000000000000000000000000000000000000000",
                        "0x000000000000000000000000dcce3a24a66c0e9686b9a21889d71c70e5ef4424"
                    ]
                },
                "nodeType": 1
            }
        },
        "gasFlame": [
            {
                "children": [
                    {
                        "children": [
                            {
                                "children": [],
                                "depth": 0,
                                "name": "Initial Gas",
                                "value": 22160
                            },
                            {
                                "children": [
                                    {
                                        "children": [],
                                        "depth": 1,
                                        "name": "mint",
                                        "value": 34100
                                    }
                                ],
                                "depth": 0,
                                "name": "Executed Gas",
                                "value": 41416
                            }
                        ],
                        "depth": -1,
                        "name": "Actual Gas Used",
                        "value": 63576
                    },
                    {
                        "children": [],
                        "depth": -1,
                        "name": "Refunded Gas",
                        "value": 0
                    }
                ],
                "depth": -2,
                "name": "Total Gas",
                "value": 63576
            }
        ],
        "isConfirmed": true,
        "mainTrace": [
            {
                "children": [
                    {
                        "children": [
                            {
                                "children": [
                                    {
                                        "children": [],
                                        "depth": 2,
                                        "id": 2,
                                        "order": 2
                                    }
                                ],
                                "depth": 1,
                                "id": 1,
                                "order": 1
                            }
                        ],
                        "depth": 0,
                        "id": 0,
                        "order": 0
                    }
                ],
                "depth": -1,
                "id": -1,
                "order": -1
            }
        ],
        "mainTraceNodeCount": 3,
        "parentIdMap": {
            "0": -1,
            "1": 0,
            "2": 1
        },
        "tidyTrace": [
            {
                "children": [
                    {
                        "children": [
                            {
                                "children": [
                                    {
                                        "children": [],
                                        "depth": 2,
                                        "id": 2,
                                        "order": 2
                                    }
                                ],
                                "depth": 1,
                                "id": 1,
                                "order": 1
                            }
                        ],
                        "depth": 0,
                        "id": 0,
                        "order": 0
                    }
                ],
                "depth": -1,
                "id": -1,
                "order": -1
            }
        ],
        "tidyTraceNodeCount": 3
    },
    "state_change": {
        "stateChanges": [
            {
                "address": "0x92a462984ac7961a0e88b196651fc19c0045e1fe",
                "erc": "ERC-1155",
                "slots": [
                    {
                        "current": "0x0000000000000000000000000000000000000000000000000000000000000001",
                        "key": "0x17836fc7698f81e0880aab42c71d18c7727bda8be03eb66b0396df963e9606c5",
                        "prev": "0x0000000000000000000000000000000000000000000000000000000000000000"
                    }
                ],
                "storageVariables": [
                    {
                        "name": "_balances",
                        "type": "mapping(uint256 => mapping(address => uint256))",
                        "value": {
                            "pairs": [
                                {
                                    "key": "279949730360463675648710225746380237687",
                                    "value": {
                                        "pairs": [
                                            {
                                                "key": "0xdcce3a24a66c0e9686b9a21889d71c70e5ef4424",
                                                "value": {
                                                    "current": "1",
                                                    "prev": "0",
                                                    "typeTag": 1
                                                }
                                            }
                                        ],
                                        "typeTag": 4
                                    }
                                }
                            ],
                            "typeTag": 4
                        }
                    }
                ]
            }
        ]
    }
}