{
    "balance_change": {
        "balanceChanges": [
            {
                "account": "0xd585ebefe744b466080c990cd0dea3b6eadf0a08",
                "assets": [
                    {
                        "address": "0x8991a5c416814e8e8db38265e1e6484caf154c85",
                        "amount": "69.84",
                        "iconUrl": "",
                        "isERC1155": false,
                        "isERC721": false,
                        "sign": false,
                        "value": ""
                    }
                ]
            },
            {
                "account": "0xa2baae0c813e7a40d02ee2490a2cf1711310276d",
                "assets": [
                    {
                        "address": "0x8991a5c416814e8e8db38265e1e6484caf154c85",
                        "amount": "69.84",
                        "iconUrl": "",
                        "isERC1155": false,
                        "isERC721": false,
                        "sign": true,
                        "value": ""
                    }
                ]
            }
        ]
    },
    "profile": {
        "basic_info": {
            "baseFee": "",
            "blockNumber": 4418893,
            "callData": "0xa9059cbb000000000000000000000000a2baae0c813e7a40d02ee2490a2cf1711310276d00000000000000000000000000000000000000000000000000000001a0476200",
            "debugEnable": true,
            "errorInfo": "",
            "eventCount": 1,
            "feeRecipient": "0xb2930b35844a230f00e51431acae96fe543a0347",
            "formatValue": "0",
            "gasLimit": 144000,
            "gasPrice": "1",
            "gasUsed": 51818,
            "intTxnCount": 0,
            "internalRevert": false,
            "internalRevertMessage": "",
            "isContractCreation": false,
            "isFlashloan": false,
            "maxFee": "",
            "nonce": 50557,
            "overwritedBlockNumber": -1,
            "priorityFee": "",
            "receiver": "0x8991a5c416814e8e8db38265e1e6484caf154c85",
            "revertMessage": "",
            "sender": "0xd585ebefe744b466080c990cd0dea3b6eadf0a08",
            "simulationEnable": true,
            "sourceTxnHash": "0xaff04b9470b203ede7d39533e1c68cafb3efbe6de8a0574e333c956e5bbb7eb1",
            "status": true,
            "timestamp": "2017-10-24T05:46:17Z",
            "transactionFee": "0.000051818",
            "txnHash": "0xaff04b9470b203ede7d39533e1c68cafb3efbe6de8a0574e333c956e5bbb7eb1",
            "txnIndex": 78,
            "type": 0,
            "value": "0"
        },
        "fund_flow": [
            {
                "amount": "69.84",
                "from": "0xd585ebefe744b466080c990cd0dea3b6eadf0a08",
                "id": 1,
                "isERC1155": false,
                "isERC721": false,
                "isReverted": false,
                "order": 1,
                "to": "0xa2baae0c813e7a40d02ee2490a2cf1711310276d",
                "token": "0x8991a5c416814e8e8db38265e1e6484caf154c85"
            }
        ],
        "token_infos": [
            {
                "address": "0x8991a5c416814e8e8db38265e1e6484caf154c85",
                "decimals": 8
            },
            {
                "address": "0xc02aaa39b223fe8d0a0e5c4f27ead9083c756cc2",
                "decimals": 18
            },
            {
                "address": "0xeeeeeeeeeeeeeeeeeeeeeeeeeeeeeeeeeeeeeeee",
                "decimals": 18
            }
        ]
    },
    "address_label": {
        "labels": [
            {
                "address": "0xeeeeeeeeeeeeeeeeeeeeeeeeeeeeeeeeeeeeeeee",
                "label": "Ether"
            },
            {
                "address": "0x8991a5c416814e8e8db38265e1e6484caf154c85",
                "label": "WNC"
            },
            {
                "address": "0x0000000000000000000000000000000000000001",
                "label": "Precompiled"
            },
            {
                "address": "0x0000000000000000000000000000000000000002",
                "label": "Precompiled"
            },
            {
                "address": "0x0000000000000000000000000000000000000003",
                "label": "Precompiled"
            },
            {
                "address": "0x0000000000000000000000000000000000000004",
                "label": "Precompiled"
            }
        ]
    },
    "trace": {
        "accountLabels": null,
        "dataMap": {
            "-1": {
                "invocation": {
                    "address": "0xd585ebefe744b466080c990cd0dea3b6eadf0a08",
                    "callData": "",
                    "decodedMethod": null,
                    "errorInfo": "",
                    "fromAddress": "",
                    "gasUsed": 0,
                    "id": -1,
                    "methodDecoded": false,
                    "operation": "",
                    "output": "",
                    "revert": false,
                    "revertMessage": "",
                    "selector": "",
                    "status": false,
                    "value": ""
                },
                "nodeType": 0
            },
            "0": {
                "invocation": {
                    "address": "0x8991a5c416814e8e8db38265e1e6484caf154c85",
                    "callData": "0x000000000000000000000000a2baae0c813e7a40d02ee2490a2cf1711310276d00000000000000000000000000000000000000000000000000000001a0476200",
                    "decodedMethod": {
                        "callParams": [
                            {
                                "name": "_to",
                                "type": "address",
                                "value": "0xa2baae0c813e7a40d02ee2490a2cf1711310276d"
                            },
                            {
                                "decimalAvailable": true,
                                "name": "_value",
                                "type": "uint256",
                                "value": "6,984,000,000"
                            }
                        ],
                        "constructorArguments": "",
                        "name": "transfer",
                        "returnParams": [],
                        "signature": "transfer(address,uint256)"
                    },
                    "errorInfo": "",
                    "fromAddress": "0xd585ebefe744b466080c990cd0dea3b6eadf0a08",
                    "gasUsed": 51818,
                    "id": 0,
                    "methodDecoded": true,
                    "operation": "CALL",
                    "output": "",
                    "revert": false,
                    "revertMessage": "",
                    "selector": "0xa9059cbb",
                    "status": true,
                    "value": "0"
                },
                "nodeType": 0
            },
            "1": {
                "event": {
                    "contract": "0x8991a5c416814e8e8db38265e1e6484caf154c85",
                    "decodedLog": {
                        "name": "Transfer",
                        "params": [
                            {
                                "name": "from",
                                "type": "address",
                                "value": "0xd585ebefe744b466080c990cd0dea3b6eadf0a08"
                            },
                            {
                                "name": "to",
                                "type": "address",
                                "value": "0xa2baae0c813e7a40d02ee2490a2cf1711310276d"
                            },
                            {
                                "decimalAvailable": true,
                                "name": "value",
                                "type": "uint256",
                                "value": "6,984,000,000"
                            }
                        ],
                        "signature": "Transfer(address,address,uint256)"
                    },
                    "id": 1,
                    "logData": "0x00000000000000000000000000000000000000000000000000000001a0476200",
                    "logDecoded": true,
                    "operation": "EVENT",
                    "revert": false,
                    "status": true,
                    "topics": [
                        "0xddf252ad1be2c89b69c2b068fc378daa952ba7f163c4a11628f55a4df523b3ef",
                        "0x000000000000000000000000d585ebefe744b466080c990cd0dea3b6eadf0a08",
                        "0x000000000000000000000000a2baae0c813e7a40d02ee2490a2cf1711310276d"
                    ]
                },
                "nodeType": 1
            }
        },
        "gasFlame": [
            {
                "children": [
                    {
                        "children": [
                            {
                                "children": [],
                                "depth": 0,
                                "name": "Initial Gas",
                                "value": 23064
                            },
                            {
                                "children": [],
                                "depth": 0,
                                "name": "Executed Gas",
                                "value": 28754
                            }
                        ],
                        "depth": -1,
                        "name": "Actual Gas Used",
                        "value": 51818
                    },
                    {
                        "children": [],
                        "depth": -1,
                        "name": "Refunded Gas",
                        "value": 0
                    }
                ],
                "depth": -2,
                "name": "Total Gas",
                "value": 51818
            }
        ],
        "isConfirmed": true,
        "mainTrace": [
            {
                "children": [
                    {
                        "children": [
                            {
                                "children": [],
                                "depth": 1,
                                "id": 1,
                                "order": 1
                            }
                        ],
                        "depth": 0,
                        "id": 0,
                        "order": 0
                    }
                ],
                "depth": -1,
                "id": -1,
                "order": -1
            }
        ],
        "mainTraceNodeCount": 2,
        "parentIdMap": {
            "0": -1,
            "1": 0
        },
        "tidyTrace": [
            {
                "children": [
                    {
                        "children": [
                            {
                                "children": [],
                                "depth": 1,
                                "id": 1,
                                "order": 1
                            }
                        ],
                        "depth": 0,
                        "id": 0,
                        "order": 0
                    }
                ],
                "depth": -1,
                "id": -1,
                "order": -1
            }
        ],
        "tidyTraceNodeCount": 2
    },
    "state_change": {
        "stateChanges": [
            {
                "address": "0x8991a5c416814e8e8db38265e1e6484caf154c85",
                "erc": "",
                "slots": [
                    {
                        "current": "0x000000000000000000000000000000000000000000000000000276c5308d601a",
                        "key": "0x52f85a924df807d07ecd28c0a9f8692ac997bbb766edf283383029da47b789fb",
                        "prev": "0x000000000000000000000000000000000000000000000000000276c6d0d4c21a"
                    },
                    {
                        "current": "0x00000000000000000000000000000000000000000000000000000001a0476200",
                        "key": "0x3f608bf446bfa5b8bb9bd11aa7eebc837ca59de85de15f592a7b6d7b01ec35ed",
                        "prev": "0x0000000000000000000000000000000000000000000000000000000000000000"
                    }
                ],
                "storageVariables": [
                    {
                        "name": "balanceOf",
                        "type": "mapping(address => uint256)",
                        "value": {
                            "pairs": [
                                {
                                    "key": "0xa2baae0c813e7a40d02ee2490a2cf1711310276d",
                                    "value": {
                                        "current": "6984000000",
                                        "prev": "0",
                                        "typeTag": 1
                                    }
                                },
                                {
                                    "key": "0xd585ebefe744b466080c990cd0dea3b6eadf0a08",
                                    "value": {
                                        "current": "693539248627738",
                                        "prev": "693546232627738",
                                        "typeTag": 1
                                    }
                                }
                            ],
                            "typeTag": 4
                        }
                    }
                ]
            }
        ]
    }
}