{
    "balance_change": {
        "balanceChanges": [
            {
                "account": "0xe93ef341ddc76333c3195fb1fa461a6a179228b8",
                "assets": [
                    {
                        "address": "0xb6d149c8dda37aaaa2f8ad0934f2e5682c35890b",
                        "amount": "18,795,994,585,110,000,000,000",
                        "iconUrl": "",
                        "isERC1155": true,
                        "isERC721": false,
                        "sign": false,
                        "tokenID": "568410405686318743940487286198766186786980243511",
                        "value": ""
                    },
                    {
                        "address": "0xf96798f49936efb1a56f99ceae924b6b8359affb",
                        "amount": "18,795.99458511",
                        "iconUrl": "",
                        "isERC1155": false,
                        "isERC721": false,
                        "sign": true,
                        "value": ""
                    }
                ]
            },
            {
                "account": "0xf96798f49936efb1a56f99ceae924b6b8359affb",
                "assets": [
                    {
                        "address": "0xb6d149c8dda37aaaa2f8ad0934f2e5682c35890b",
                        "amount": "18,795,994,585,110,000,000,000",
                        "iconUrl": "",
                        "isERC1155": true,
                        "isERC721": false,
                        "sign": true,
                        "tokenID": "568410405686318743940487286198766186786980243511",
                        "value": ""
                    }
                ]
            },
            {
                "account": "0x0000000000000000000000000000000000000000",
                "assets": [
                    {
                        "address": "0xf96798f49936efb1a56f99ceae924b6b8359affb",
                        "amount": "18,795.99458511",
                        "iconUrl": "",
                        "isERC1155": false,
                        "isERC721": false,
                        "sign": false,
                        "value": ""
                    }
                ]
            }
        ]
    },
    "profile": {
        "basic_info": {
            "baseFee": "7.636347629",
            "blockNumber": 19805666,
            "callData": "0x6e553f650000000000000000000000000000000000000000000003faeed311b5cf3d5c00000000000000000000000000e93ef341ddc76333c3195fb1fa461a6a179228b8",
            "debugEnable": true,
            "errorInfo": "",
            "eventCount": 14,
            "feeRecipient": "0x95222290dd7278aa3ddd389cc1e1d165cc4bafe5",
            "formatValue": "0",
            "gasLimit": 351135,
            "gasPrice": "7.651096111",
            "gasUsed": 225991,
            "intTxnCount": 11,
            "internalRevert": false,
            "internalRevertMessage": "",
            "isContractCreation": false,
            "isFlashloan": false,
            "maxFee": "9.413334791",
            "nonce": 3,
            "overwritedBlockNumber": -1,
            "priorityFee": "0.014748482",
            "receiver": "0xf96798f49936efb1a56f99ceae924b6b8359affb",
            "revertMessage": "",
            "sender": "0xe93ef341ddc76333c3195fb1fa461a6a179228b8",
            "simulationEnable": true,
            "sourceTxnHash": "0xb03da0f3b2a62a9a36167e8fe6c4fa9480243e1bed7897f3f0cde2e1192cbe91",
            "status": true,
            "timestamp": "2024-05-05T18:25:35Z",
            "transactionFee": "0.001729078861221001",
            "txnHash": "0xb03da0f3b2a62a9a36167e8fe6c4fa9480243e1bed7897f3f0cde2e1192cbe91",
            "txnIndex": 94,
            "type": 2,
            "value": "0"
        },
        "fund_flow": [
            {
                "amount": "0",
                "from": "0xcbccfeb938e95edd9863a02ece087033d68042a0",
                "id": 1,
                "isERC1155": false,
                "isERC721": false,
                "isReverted": false,
                "order": 1,
                "to": "0xa7ee328c8a00beb30bc70789c4cfdb81a61ebc2f",
                "token": "0x8457ca5040ad67fdebbcc8edce889a335bc0fbfb"
            },
            {
                "amount": "0",
                "from": "0xcbccfeb938e95edd9863a02ece087033d68042a0",
                "id": 2,
                "isERC1155": false,
                "isERC721": false,
                "isReverted": false,
                "order": 2,
                "to": "0x639067741509cd8705be8fce130c0b31daa62837",
                "token": "0x8457ca5040ad67fdebbcc8edce889a335bc0fbfb"
            },
            {
                "amount": "18795994585110000000000",
                "from": "0xe93ef341ddc76333c3195fb1fa461a6a179228b8",
                "id": 3,
                "isERC1155": true,
                "isERC721": false,
                "isReverted": false,
                "order": 3,
                "to": "0xf96798f49936efb1a56f99ceae924b6b8359affb",
                "token": "0xb6d149c8dda37aaaa2f8ad0934f2e5682c35890b",
                "tokenID": "568410405686318743940487286198766186786980243511"
            },
            {
                "amount": "18,795.99458511",
                "from": "0x0000000000000000000000000000000000000000",
                "id": 4,
                "isERC1155": false,
                "isERC721": false,
                "isReverted": false,
                "order": 4,
                "to": "0xe93ef341ddc76333c3195fb1fa461a6a179228b8",
                "token": "0xf96798f49936efb1a56f99ceae924b6b8359affb"
            }
        ],
        "token_infos": [
            {
                "address": "0x8457ca5040ad67fdebbcc8edce889a335bc0fbfb",
                "decimals": 18
            },
            {
                "address": "0xc02aaa39b223fe8d0a0e5c4f27ead9083c756cc2",
                "decimals": 18
            },
            {
                "address": "0xf96798f49936efb1a56f99ceae924b6b8359affb",
                "decimals": 18
            },
            {
                "address": "0xeeeeeeeeeeeeeeeeeeeeeeeeeeeeeeeeeeeeeeee",
                "decimals": 18
            }
        ]
    },
    "address_label": {
        "labels": [
            {
                "address": "0x639067741509cd8705be8fce130c0b31daa62837",
                "label": "GnosisSafeProxy_6390_2837"
            },
            {
                "address": "0xcbccfeb938e95edd9863a02ece087033d68042a0",
                "label": "GnosisSafeProxy_cbcc_42a0"
            },
            {
                "address": "0x05e72049fc2f5a9212070be3672ee3492845d269",
                "label": "ERC4626Vault"
            },
            {
                "address": "0xedbaee53b410d2c59f1b73144e8d500e94b496a0",
                "label": "StakedALT"
            },
            {
                "address": "0x0000000000000000000000000000000000000001",
                "label": "Precompiled"
            },
            {
                "address": "0x0000000000000000000000000000000000000004",
                "label": "Precompiled"
            },
            {
                "address": "0xeeeeeeeeeeeeeeeeeeeeeeeeeeeeeeeeeeeeeeee",
                "label": "Ether"
            },
            {
                "address": "0xf96798f49936efb1a56f99ceae924b6b8359affb",
                "label": "AltLayer: reALT Token"
            },
            {
                "address": "0xb6d149c8dda37aaaa2f8ad0934f2e5682c35890b",
                "label": "AltLayer: STALT Token"
            },
            {
                "address": "0x8457ca5040ad67fdebbcc8edce889a335bc0fbfb",
                "label": "AltLayer: ALT Token"
            },
            {
                "address": "0x0000000000000000000000000000000000000002",
                "label": "Precompiled"
            },
            {
                "address": "0x0000000000000000000000000000000000000003",
                "label": "Precompiled"
            }
        ]
    },
    "trace": {
        "accountLabels": null,
        "dataMap": {
            "-1": {
                "invocation": {
                    "address": "0xe93ef341ddc76333c3195fb1fa461a6a179228b8",
                    "callData": "",
                    "decodedMethod": null,
                    "errorInfo": "",
                    "fromAddress": "",
                    "gasUsed": 0,
                    "id": -1,
                    "methodDecoded": false,
                    "operation": "",
                    "output": "",
                    "revert": false,
                    "revertMessage": "",
                    "selector": "",
                    "status": false,
                    "value": ""
                },
                "nodeType": 0
            },
            "0": {
                "invocation": {
                    "address": "0xf96798f49936efb1a56f99ceae924b6b8359affb",
                    "callData": "0x0000000000000000000000000000000000000000000003faeed311b5cf3d5c00000000000000000000000000e93ef341ddc76333c3195fb1fa461a6a179228b8",
                    "decodedMethod": {
                        "callParams": [
                            {
                                "name": "assets",
                                "type": "uint256",
                                "value": "18,795,994,585,110,000,000,000"
                            },
                            {
                                "name": "receiver",
                                "type": "address",
                                "value": "0xe93ef341ddc76333c3195fb1fa461a6a179228b8"
                            }
                        ],
                        "constructorArguments": "",
                        "name": "deposit",
                        "returnParams": [
                            {
                                "name": "",
                                "type": "uint256",
                                "value": "18,795,994,585,110,000,000,000"
                            }
                        ],
                        "signature": "deposit(uint256,address)"
                    },
                    "errorInfo": "",
                    "fromAddress": "0xe93ef341ddc76333c3195fb1fa461a6a179228b8",
                    "gasUsed": 225991,
                    "id": 0,
                    "methodDecoded": true,
                    "operation": "CALL",
                    "output": "0x0000000000000000000000000000000000000000000003faeed311b5cf3d5c00",
                    "revert": false,
                    "revertMessage": "",
                    "selector": "0x6e553f65",
                    "status": true,
                    "value": "0"
                },
                "nodeType": 0
            },
            "1": {
                "invocation": {
                    "address": "0x05e72049fc2f5a9212070be3672ee3492845d269",
                    "callData": "0x0000000000000000000000000000000000000000000003faeed311b5cf3d5c00000000000000000000000000e93ef341ddc76333c3195fb1fa461a6a179228b8",
                    "decodedMethod": {
                        "callParams": [
                            {
                                "name": "assets",
                                "type": "uint256",
                                "value": "18,795,994,585,110,000,000,000"
                            },
                            {
                                "name": "receiver",
                                "type": "address",
                                "value": "0xe93ef341ddc76333c3195fb1fa461a6a179228b8"
                            }
                        ],
                        "constructorArguments": "",
                        "name": "deposit",
                        "returnParams": [
                            {
                                "name": "",
                                "type": "uint256",
                                "value": "18,795,994,585,110,000,000,000"
                            }
                        ],
                        "signature": "deposit(uint256,address)"
                    },
                    "errorInfo": "",
                    "fromAddress": "0xf96798f49936efb1a56f99ceae924b6b8359affb",
                    "gasUsed": 204172,
                    "id": 1,
                    "methodDecoded": true,
                    "operation": "DELEGATECALL",
                    "output": "0x0000000000000000000000000000000000000000000003faeed311b5cf3d5c00",
                    "revert": false,
                    "revertMessage": "",
                    "selector": "0x6e553f65",
                    "status": true,
                    "value": "0"
                },
                "nodeType": 0
            },
            "10": {
                "event": {
                    "contract": "0x8457ca5040ad67fdebbcc8edce889a335bc0fbfb",
                    "decodedLog": {
                        "name": "Transfer",
                        "params": [
                            {
                                "name": "from",
                                "type": "address",
                                "value": "0xcbccfeb938e95edd9863a02ece087033d68042a0"
                            },
                            {
                                "name": "to",
                                "type": "address",
                                "value": "0xa7ee328c8a00beb30bc70789c4cfdb81a61ebc2f"
                            },
                            {
                                "decimalAvailable": true,
                                "name": "value",
                                "type": "uint256",
                                "value": "0"
                            }
                        ],
                        "signature": "Transfer(address,address,uint256)"
                    },
                    "id": 10,
                    "logData": "0x0000000000000000000000000000000000000000000000000000000000000000",
                    "logDecoded": true,
                    "operation": "EVENT",
                    "revert": false,
                    "status": true,
                    "topics": [
                        "0xddf252ad1be2c89b69c2b068fc378daa952ba7f163c4a11628f55a4df523b3ef",
                        "0x000000000000000000000000cbccfeb938e95edd9863a02ece087033d68042a0",
                        "0x000000000000000000000000a7ee328c8a00beb30bc70789c4cfdb81a61ebc2f"
                    ]
                },
                "nodeType": 1
            },
            "11": {
                "invocation": {
                    "address": "0x8457ca5040ad67fdebbcc8edce889a335bc0fbfb",
                    "callData": "0x000000000000000000000000cbccfeb938e95edd9863a02ece087033d68042a0000000000000000000000000639067741509cd8705be8fce130c0b31daa628370000000000000000000000000000000000000000000000000000000000000000",
                    "decodedMethod": {
                        "callParams": [
                            {
                                "name": "from",
                                "type": "address",
                                "value": "0xcbccfeb938e95edd9863a02ece087033d68042a0"
                            },
                            {
                                "name": "to",
                                "type": "address",
                                "value": "0x639067741509cd8705be8fce130c0b31daa62837"
                            },
                            {
                                "decimalAvailable": true,
                                "name": "value",
                                "type": "uint256",
                                "value": "0"
                            }
                        ],
                        "constructorArguments": "",
                        "name": "transferFrom",
                        "returnParams": [
                            {
                                "name": "",
                                "type": "bool",
                                "value": true
                            }
                        ],
                        "signature": "transferFrom(address,address,uint256)"
                    },
                    "errorInfo": "",
                    "fromAddress": "0xb6d149c8dda37aaaa2f8ad0934f2e5682c35890b",
                    "gasUsed": 6487,
                    "id": 11,
                    "methodDecoded": true,
                    "operation": "CALL",
                    "output": "0x0000000000000000000000000000000000000000000000000000000000000001",
                    "revert": false,
                    "revertMessage": "",
                    "selector": "0x23b872dd",
                    "status": true,
                    "value": "0"
                },
                "nodeType": 0
            },
            "12": {
                "event": {
                    "contract": "0x8457ca5040ad67fdebbcc8edce889a335bc0fbfb",
                    "decodedLog": {
                        "name": "Transfer",
                        "params": [
                            {
                                "name": "from",
                                "type": "address",
                                "value": "0xcbccfeb938e95edd9863a02ece087033d68042a0"
                            },
                            {
                                "name": "to",
                                "type": "address",
                                "value": "0x639067741509cd8705be8fce130c0b31daa62837"
                            },
                            {
                                "decimalAvailable": true,
                                "name": "value",
                                "type": "uint256",
                                "value": "0"
                            }
                        ],
                        "signature": "Transfer(address,address,uint256)"
                    },
                    "id": 12,
                    "logData": "0x0000000000000000000000000000000000000000000000000000000000000000",
                    "logDecoded": true,
                    "operation": "EVENT",
                    "revert": false,
                    "status": true,
                    "topics": [
                        "0xddf252ad1be2c89b69c2b068fc378daa952ba7f163c4a11628f55a4df523b3ef",
                        "0x000000000000000000000000cbccfeb938e95edd9863a02ece087033d68042a0",
                        "0x000000000000000000000000639067741509cd8705be8fce130c0b31daa62837"
                    ]
                },
                "nodeType": 1
            },
            "13": {
                "event": {
                    "contract": "0xb6d149c8dda37aaaa2f8ad0934f2e5682c35890b",
                    "decodedLog": {
                        "name": "RewardsAccrued",
                        "params": [
                            {
                                "name": "user",
                                "type": "address",
                                "value": "0xe93ef341ddc76333c3195fb1fa461a6a179228b8"
                            },
                            {
                                "name": "operator",
                                "type": "address",
                                "value": "0x639067741509cd8705be8fce130c0b31daa62837"
                            },
                            {
                                "name": "amount",
                                "type": "uint256",
                                "value": "171,414,210,829,115,394"
                            }
                        ],
                        "signature": "RewardsAccrued(address,address,uint256)"
                    },
                    "id": 13,
                    "logData": "0x000000000000000000000000e93ef341ddc76333c3195fb1fa461a6a179228b8000000000000000000000000639067741509cd8705be8fce130c0b31daa628370000000000000000000000000000000000000000000000000260fc5109ec6002",
                    "logDecoded": true,
                    "operation": "EVENT",
                    "revert": false,
                    "status": true,
                    "topics": [
                        "0x68ac6b4d0eeedccf3df154188dfac62d18d2ac5eaac52ecd6e728e33ce75a1d4"
                    ]
                },
                "nodeType": 1
            },
            "14": {
                "event": {
                    "contract": "0xb6d149c8dda37aaaa2f8ad0934f2e5682c35890b",
                    "decodedLog": {
                        "name": "UserIndexUpdated",
                        "params": [
                            {
                                "name": "distributionID",
                                "type": "uint256",
                                "value": "1"
                            },
                            {
                                "name": "user",
                                "type": "address",
                                "value": "0xf96798f49936efb1a56f99ceae924b6b8359affb"
                            },
                            {
                                "name": "operator",
                                "type": "address",
                                "value": "0x639067741509cd8705be8fce130c0b31daa62837"
                            },
                            {
                                "name": "index",
                                "type": "uint256",
                                "value": "105,688,168,719,079,087"
                            }
                        ],
                        "signature": "UserIndexUpdated(uint256,address,address,uint256)"
                    },
                    "id": 14,
                    "logData": "0x00000000000000000000000000000000000000000000000001777ad4597656af",
                    "logDecoded": true,
                    "operation": "EVENT",
                    "revert": false,
                    "status": true,
                    "topics": [
                        "0xe447ab6eb5c5de957771652eea326786807faafd717e0a2ad91eae5fcaaaa2ab",
                        "0x0000000000000000000000000000000000000000000000000000000000000001",
                        "0x000000000000000000000000f96798f49936efb1a56f99ceae924b6b8359affb",
                        "0x000000000000000000000000639067741509cd8705be8fce130c0b31daa62837"
                    ]
                },
                "nodeType": 1
            },
            "15": {
                "event": {
                    "contract": "0xb6d149c8dda37aaaa2f8ad0934f2e5682c35890b",
                    "decodedLog": {
                        "name": "CollectFee",
                        "params": [
                            {
                                "name": "distributionId",
                                "type": "uint16",
                                "value": "1"
                            },
                            {
                                "name": "operator",
                                "type": "address",
                                "value": "0x639067741509cd8705be8fce130c0b31daa62837"
                            },
                            {
                                "name": "protocolFee",
                                "type": "uint256",
                                "value": "0"
                            },
                            {
                                "name": "operatorFee",
                                "type": "uint256",
                                "value": "0"
                            },
                            {
                                "name": "userRewards",
                                "type": "uint256",
                                "value": "6,494,926,648,284,589,924"
                            }
                        ],
                        "signature": "CollectFee(uint16,address,uint256,uint256,uint256)"
                    },
                    "id": 15,
                    "logData": "0x0000000000000000000000000000000000000000000000000000000000000001000000000000000000000000639067741509cd8705be8fce130c0b31daa62837000000000000000000000000000000000000000000000000000000000000000000000000000000000000000000000000000000000000000000000000000000000000000000000000000000000000000000000000000000005a229d600138af64",
                    "logDecoded": true,
                    "operation": "EVENT",
                    "revert": false,
                    "status": true,
                    "topics": [
                        "0x2b958f8cb89eacedb3f4091f10ab928a6468b16bac726a9329de7178d49c45f5"
                    ]
                },
                "nodeType": 1
            },
            "16": {
                "invocation": {
                    "address": "0x8457ca5040ad67fdebbcc8edce889a335bc0fbfb",
                    "callData": "0x000000000000000000000000cbccfeb938e95edd9863a02ece087033d68042a0000000000000000000000000a7ee328c8a00beb30bc70789c4cfdb81a61ebc2f0000000000000000000000000000000000000000000000000000000000000000",
                    "decodedMethod": {
                        "callParams": [
                            {
                                "name": "from",
                                "type": "address",
                                "value": "0xcbccfeb938e95edd9863a02ece087033d68042a0"
                            },
                            {
                                "name": "to",
                                "type": "address",
                                "value": "0xa7ee328c8a00beb30bc70789c4cfdb81a61ebc2f"
                            },
                            {
                                "decimalAvailable": true,
                                "name": "value",
                                "type": "uint256",
                                "value": "0"
                            }
                        ],
                        "constructorArguments": "",
                        "name": "transferFrom",
                        "returnParams": [
                            {
                                "name": "",
                                "type": "bool",
                                "value": true
                            }
                        ],
                        "signature": "transferFrom(address,address,uint256)"
                    },
                    "errorInfo": "",
                    "fromAddress": "0xb6d149c8dda37aaaa2f8ad0934f2e5682c35890b",
                    "gasUsed": 4487,
                    "id": 16,
                    "methodDecoded": true,
                    "operation": "CALL",
                    "output": "0x0000000000000000000000000000000000000000000000000000000000000001",
                    "revert": false,
                    "revertMessage": "",
                    "selector": "0x23b872dd",
                    "status": true,
                    "value": "0"
                },
                "nodeType": 0
            },
            "17": {
                "event": {
                    "contract": "0x8457ca5040ad67fdebbcc8edce889a335bc0fbfb",
                    "decodedLog": {
                        "name": "Transfer",
                        "params": [
                            {
                                "name": "from",
                                "type": "address",
                                "value": "0xcbccfeb938e95edd9863a02ece087033d68042a0"
                            },
                            {
                                "name": "to",
                                "type": "address",
                                "value": "0xa7ee328c8a00beb30bc70789c4cfdb81a61ebc2f"
                            },
                            {
                                "decimalAvailable": true,
                                "name": "value",
                                "type": "uint256",
                                "value": "0"
                            }
                        ],
                        "signature": "Transfer(address,address,uint256)"
                    },
                    "id": 17,
                    "logData": "0x0000000000000000000000000000000000000000000000000000000000000000",
                    "logDecoded": true,
                    "operation": "EVENT",
                    "revert": false,
                    "status": true,
                    "topics": [
                        "0xddf252ad1be2c89b69c2b068fc378daa952ba7f163c4a11628f55a4df523b3ef",
                        "0x000000000000000000000000cbccfeb938e95edd9863a02ece087033d68042a0",
                        "0x000000000000000000000000a7ee328c8a00beb30bc70789c4cfdb81a61ebc2f"
                    ]
                },
                "nodeType": 1
            },
            "18": {
                "invocation": {
                    "address": "0x8457ca5040ad67fdebbcc8edce889a335bc0fbfb",
                    "callData": "0x000000000000000000000000cbccfeb938e95edd9863a02ece087033d68042a0000000000000000000000000639067741509cd8705be8fce130c0b31daa628370000000000000000000000000000000000000000000000000000000000000000",
                    "decodedMethod": {
                        "callParams": [
                            {
                                "name": "from",
                                "type": "address",
                                "value": "0xcbccfeb938e95edd9863a02ece087033d68042a0"
                            },
                            {
                                "name": "to",
                                "type": "address",
                                "value": "0x639067741509cd8705be8fce130c0b31daa62837"
                            },
                            {
                                "decimalAvailable": true,
                                "name": "value",
                                "type": "uint256",
                                "value": "0"
                            }
                        ],
                        "constructorArguments": "",
                        "name": "transferFrom",
                        "returnParams": [
                            {
                                "name": "",
                                "type": "bool",
                                "value": true
                            }
                        ],
                        "signature": "transferFrom(address,address,uint256)"
                    },
                    "errorInfo": "",
                    "fromAddress": "0xb6d149c8dda37aaaa2f8ad0934f2e5682c35890b",
                    "gasUsed": 4487,
                    "id": 18,
                    "methodDecoded": true,
                    "operation": "CALL",
                    "output": "0x0000000000000000000000000000000000000000000000000000000000000001",
                    "revert": false,
                    "revertMessage": "",
                    "selector": "0x23b872dd",
                    "status": true,
                    "value": "0"
                },
                "nodeType": 0
            },
            "19": {
                "event": {
                    "contract": "0x8457ca5040ad67fdebbcc8edce889a335bc0fbfb",
                    "decodedLog": {
                        "name": "Transfer",
                        "params": [
                            {
                                "name": "from",
                                "type": "address",
                                "value": "0xcbccfeb938e95edd9863a02ece087033d68042a0"
                            },
                            {
                                "name": "to",
                                "type": "address",
                                "value": "0x639067741509cd8705be8fce130c0b31daa62837"
                            },
                            {
                                "decimalAvailable": true,
                                "name": "value",
                                "type": "uint256",
                                "value": "0"
                            }
                        ],
                        "signature": "Transfer(address,address,uint256)"
                    },
                    "id": 19,
                    "logData": "0x0000000000000000000000000000000000000000000000000000000000000000",
                    "logDecoded": true,
                    "operation": "EVENT",
                    "revert": false,
                    "status": true,
                    "topics": [
                        "0xddf252ad1be2c89b69c2b068fc378daa952ba7f163c4a11628f55a4df523b3ef",
                        "0x000000000000000000000000cbccfeb938e95edd9863a02ece087033d68042a0",
                        "0x000000000000000000000000639067741509cd8705be8fce130c0b31daa62837"
                    ]
                },
                "nodeType": 1
            },
            "2": {
                "invocation": {
                    "address": "0xb6d149c8dda37aaaa2f8ad0934f2e5682c35890b",
                    "callData": "0x000000000000000000000000f96798f49936efb1a56f99ceae924b6b8359affb000000000000000000000000639067741509cd8705be8fce130c0b31daa62837",
                    "decodedMethod": {
                        "callParams": [
                            {
                                "name": "account",
                                "type": "address",
                                "value": "0xf96798f49936efb1a56f99ceae924b6b8359affb"
                            },
                            {
                                "name": "id",
                                "type": "uint256",
                                "value": "568,410,405,686,318,743,940,487,286,198,766,186,786,980,243,511"
                            }
                        ],
                        "constructorArguments": "",
                        "name": "balanceOf",
                        "returnParams": [
                            {
                                "name": "",
                                "type": "uint256",
                                "value": "119,650,688,061,129,251,141,237,842"
                            }
                        ],
                        "signature": "balanceOf(address,uint256)"
                    },
                    "errorInfo": "",
                    "fromAddress": "0xf96798f49936efb1a56f99ceae924b6b8359affb",
                    "gasUsed": 7687,
                    "id": 2,
                    "methodDecoded": true,
                    "operation": "STATICCALL",
                    "output": "0x00000000000000000000000000000000000000000062f904cbf8aa69d9a8bc52",
                    "revert": false,
                    "revertMessage": "",
                    "selector": "0x00fdd58e",
                    "status": true,
                    "value": "0"
                },
                "nodeType": 0
            },
            "20": {
                "event": {
                    "contract": "0xb6d149c8dda37aaaa2f8ad0934f2e5682c35890b",
                    "decodedLog": {
                        "name": "RewardsAccrued",
                        "params": [
                            {
                                "name": "user",
                                "type": "address",
                                "value": "0xf96798f49936efb1a56f99ceae924b6b8359affb"
                            },
                            {
                                "name": "operator",
                                "type": "address",
                                "value": "0x639067741509cd8705be8fce130c0b31daa62837"
                            },
                            {
                                "name": "amount",
                                "type": "uint256",
                                "value": "6,494,926,648,284,589,924"
                            }
                        ],
                        "signature": "RewardsAccrued(address,address,uint256)"
                    },
                    "id": 20,
                    "logData": "0x000000000000000000000000f96798f49936efb1a56f99ceae924b6b8359affb000000000000000000000000639067741509cd8705be8fce130c0b31daa628370000000000000000000000000000000000000000000000005a229d600138af64",
                    "logDecoded": true,
                    "operation": "EVENT",
                    "revert": false,
                    "status": true,
                    "topics": [
                        "0x68ac6b4d0eeedccf3df154188dfac62d18d2ac5eaac52ecd6e728e33ce75a1d4"
                    ]
                },
                "nodeType": 1
            },
            "21": {
                "event": {
                    "contract": "0xb6d149c8dda37aaaa2f8ad0934f2e5682c35890b",
                    "decodedLog": {
                        "name": "TransferSingle",
                        "params": [
                            {
                                "name": "operator",
                                "type": "address",
                                "value": "0xf96798f49936efb1a56f99ceae924b6b8359affb"
                            },
                            {
                                "name": "from",
                                "type": "address",
                                "value": "0xe93ef341ddc76333c3195fb1fa461a6a179228b8"
                            },
                            {
                                "name": "to",
                                "type": "address",
                                "value": "0xf96798f49936efb1a56f99ceae924b6b8359affb"
                            },
                            {
                                "name": "id",
                                "type": "uint256",
                                "value": "568,410,405,686,318,743,940,487,286,198,766,186,786,980,243,511"
                            },
                            {
                                "name": "value",
                                "type": "uint256",
                                "value": "18,795,994,585,110,000,000,000"
                            }
                        ],
                        "signature": "TransferSingle(address,address,address,uint256,uint256)"
                    },
                    "id": 21,
                    "logData": "0x000000000000000000000000639067741509cd8705be8fce130c0b31daa628370000000000000000000000000000000000000000000003faeed311b5cf3d5c00",
                    "logDecoded": true,
                    "operation": "EVENT",
                    "revert": false,
                    "status": true,
                    "topics": [
                        "0xc3d58168c5ae7397731d063d5bbf3d657854427343f4c083240f7aacaa2d0f62",
                        "0x000000000000000000000000f96798f49936efb1a56f99ceae924b6b8359affb",
                        "0x000000000000000000000000e93ef341ddc76333c3195fb1fa461a6a179228b8",
                        "0x000000000000000000000000f96798f49936efb1a56f99ceae924b6b8359affb"
                    ]
                },
                "nodeType": 1
            },
            "22": {
                "invocation": {
                    "address": "0xf96798f49936efb1a56f99ceae924b6b8359affb",
                    "callData": "0x000000000000000000000000f96798f49936efb1a56f99ceae924b6b8359affb000000000000000000000000e93ef341ddc76333c3195fb1fa461a6a179228b8000000000000000000000000639067741509cd8705be8fce130c0b31daa628370000000000000000000000000000000000000000000003faeed311b5cf3d5c0000000000000000000000000000000000000000000000000000000000000000a00000000000000000000000000000000000000000000000000000000000000000",
                    "decodedMethod": {
                        "callParams": [
                            {
                                "name": "",
                                "type": "address",
                                "value": "0xf96798f49936efb1a56f99ceae924b6b8359affb"
                            },
                            {
                                "name": "",
                                "type": "address",
                                "value": "0xe93ef341ddc76333c3195fb1fa461a6a179228b8"
                            },
                            {
                                "name": "",
                                "type": "uint256",
                                "value": "568,410,405,686,318,743,940,487,286,198,766,186,786,980,243,511"
                            },
                            {
                                "name": "",
                                "type": "uint256",
                                "value": "18,795,994,585,110,000,000,000"
                            },
                            {
                                "name": "",
                                "type": "bytes",
                                "value": "0x"
                            }
                        ],
                        "constructorArguments": "",
                        "name": "onERC1155Received",
                        "returnParams": [
                            {
                                "name": "",
                                "type": "bytes4",
                                "value": "0xf23a6e61"
                            }
                        ],
                        "signature": "onERC1155Received(address,address,uint256,uint256,bytes)"
                    },
                    "errorInfo": "",
                    "fromAddress": "0xb6d149c8dda37aaaa2f8ad0934f2e5682c35890b",
                    "gasUsed": 1584,
                    "id": 22,
                    "methodDecoded": true,
                    "operation": "CALL",
                    "output": "0xf23a6e6100000000000000000000000000000000000000000000000000000000",
                    "revert": false,
                    "revertMessage": "",
                    "selector": "0xf23a6e61",
                    "status": true,
                    "value": "0"
                },
                "nodeType": 0
            },
            "23": {
                "invocation": {
                    "address": "0x05e72049fc2f5a9212070be3672ee3492845d269",
                    "callData": "0x000000000000000000000000f96798f49936efb1a56f99ceae924b6b8359affb000000000000000000000000e93ef341ddc76333c3195fb1fa461a6a179228b8000000000000000000000000639067741509cd8705be8fce130c0b31daa628370000000000000000000000000000000000000000000003faeed311b5cf3d5c0000000000000000000000000000000000000000000000000000000000000000a00000000000000000000000000000000000000000000000000000000000000000",
                    "decodedMethod": {
                        "callParams": [
                            {
                                "name": "",
                                "type": "address",
                                "value": "0xf96798f49936efb1a56f99ceae924b6b8359affb"
                            },
                            {
                                "name": "",
                                "type": "address",
                                "value": "0xe93ef341ddc76333c3195fb1fa461a6a179228b8"
                            },
                            {
                                "name": "",
                                "type": "uint256",
                                "value": "568,410,405,686,318,743,940,487,286,198,766,186,786,980,243,511"
                            },
                            {
                                "name": "",
                                "type": "uint256",
                                "value": "18,795,994,585,110,000,000,000"
                            },
                            {
                                "name": "",
                                "type": "bytes",
                                "value": "0x"
                            }
                        ],
                        "constructorArguments": "",
                        "name": "onERC1155Received",
                        "returnParams": [
                            {
                                "name": "",
                                "type": "bytes4",
                                "value": "0xf23a6e61"
                            }
                        ],
                        "signature": "onERC1155Received(address,address,uint256,uint256,bytes)"
                    },
                    "errorInfo": "",
                    "fromAddress": "0xf96798f49936efb1a56f99ceae924b6b8359affb",
                    "gasUsed": 1109,
                    "id": 23,
                    "methodDecoded": true,
                    "operation": "DELEGATECALL",
                    "output": "0xf23a6e6100000000000000000000000000000000000000000000000000000000",
                    "revert": false,
                    "revertMessage": "",
                    "selector": "0xf23a6e61",
                    "status": true,
                    "value": "0"
                },
                "nodeType": 0
            },
            "24": {
                "event": {
                    "contract": "0xf96798f49936efb1a56f99ceae924b6b8359affb",
                    "decodedLog": {
                        "name": "Transfer",
                        "params": [
                            {
                                "name": "from",
                                "type": "address",
                                "value": "0x0000000000000000000000000000000000000000"
                            },
                            {
                                "name": "to",
                                "type": "address",
                                "value": "0xe93ef341ddc76333c3195fb1fa461a6a179228b8"
                            },
                            {
                                "decimalAvailable": true,
                                "name": "value",
                                "type": "uint256",
                                "value": "18,795,994,585,110,000,000,000"
                            }
                        ],
                        "signature": "Transfer(address,address,uint256)"
                    },
                    "id": 24,
                    "logData": "0x0000000000000000000000000000000000000000000003faeed311b5cf3d5c00",
                    "logDecoded": true,
                    "operation": "EVENT",
                    "revert": false,
                    "status": true,
                    "topics": [
                        "0xddf252ad1be2c89b69c2b068fc378daa952ba7f163c4a11628f55a4df523b3ef",
                        "0x0000000000000000000000000000000000000000000000000000000000000000",
                        "0x000000000000000000000000e93ef341ddc76333c3195fb1fa461a6a179228b8"
                    ]
                },
                "nodeType": 1
            },
            "25": {
                "event": {
                    "contract": "0xf96798f49936efb1a56f99ceae924b6b8359affb",
                    "decodedLog": {
                        "name": "Deposit",
                        "params": [
                            {
                                "name": "sender",
                                "type": "address",
                                "value": "0xe93ef341ddc76333c3195fb1fa461a6a179228b8"
                            },
                            {
                                "name": "owner",
                                "type": "address",
                                "value": "0xe93ef341ddc76333c3195fb1fa461a6a179228b8"
                            },
                            {
                                "name": "assets",
                                "type": "uint256",
                                "value": "18,795,994,585,110,000,000,000"
                            },
                            {
                                "name": "shares",
                                "type": "uint256",
                                "value": "18,795,994,585,110,000,000,000"
                            }
                        ],
                        "signature": "Deposit(address,address,uint256,uint256)"
                    },
                    "id": 25,
                    "logData": "0x0000000000000000000000000000000000000000000003faeed311b5cf3d5c000000000000000000000000000000000000000000000003faeed311b5cf3d5c00",
                    "logDecoded": true,
                    "operation": "EVENT",
                    "revert": false,
                    "status": true,
                    "topics": [
                        "0xdcbc1c05240f31ff3ad067ef1ee35ce4997762752e3a095284754544f4c709d7",
                        "0x000000000000000000000000e93ef341ddc76333c3195fb1fa461a6a179228b8",
                        "0x000000000000000000000000e93ef341ddc76333c3195fb1fa461a6a179228b8"
                    ]
                },
                "nodeType": 1
            },
            "3": {
                "invocation": {
                    "address": "0xedbaee53b410d2c59f1b73144e8d500e94b496a0",
                    "callData": "0x000000000000000000000000f96798f49936efb1a56f99ceae924b6b8359affb000000000000000000000000639067741509cd8705be8fce130c0b31daa62837",
                    "decodedMethod": {
                        "callParams": [
                            {
                                "name": "account",
                                "type": "address",
                                "value": "0xf96798f49936efb1a56f99ceae924b6b8359affb"
                            },
                            {
                                "name": "id",
                                "type": "uint256",
                                "value": "568,410,405,686,318,743,940,487,286,198,766,186,786,980,243,511"
                            }
                        ],
                        "constructorArguments": "",
                        "name": "balanceOf",
                        "returnParams": [
                            {
                                "name": "",
                                "type": "uint256",
                                "value": "119,650,688,061,129,251,141,237,842"
                            }
                        ],
                        "signature": "balanceOf(address,uint256)"
                    },
                    "errorInfo": "",
                    "fromAddress": "0xb6d149c8dda37aaaa2f8ad0934f2e5682c35890b",
                    "gasUsed": 2736,
                    "id": 3,
                    "methodDecoded": true,
                    "operation": "DELEGATECALL",
                    "output": "0x00000000000000000000000000000000000000000062f904cbf8aa69d9a8bc52",
                    "revert": false,
                    "revertMessage": "",
                    "selector": "0x00fdd58e",
                    "status": true,
                    "value": "0"
                },
                "nodeType": 0
            },
            "4": {
                "invocation": {
                    "address": "0xb6d149c8dda37aaaa2f8ad0934f2e5682c35890b",
                    "callData": "0x000000000000000000000000e93ef341ddc76333c3195fb1fa461a6a179228b8000000000000000000000000f96798f49936efb1a56f99ceae924b6b8359affb000000000000000000000000639067741509cd8705be8fce130c0b31daa628370000000000000000000000000000000000000000000003faeed311b5cf3d5c0000000000000000000000000000000000000000000000000000000000000000a00000000000000000000000000000000000000000000000000000000000000000",
                    "decodedMethod": {
                        "callParams": [
                            {
                                "name": "from",
                                "type": "address",
                                "value": "0xe93ef341ddc76333c3195fb1fa461a6a179228b8"
                            },
                            {
                                "name": "to",
                                "type": "address",
                                "value": "0xf96798f49936efb1a56f99ceae924b6b8359affb"
                            },
                            {
                                "name": "id",
                                "type": "uint256",
                                "value": "568,410,405,686,318,743,940,487,286,198,766,186,786,980,243,511"
                            },
                            {
                                "name": "value",
                                "type": "uint256",
                                "value": "18,795,994,585,110,000,000,000"
                            },
                            {
                                "name": "data",
                                "type": "bytes",
                                "value": "0x"
                            }
                        ],
                        "constructorArguments": "",
                        "name": "safeTransferFrom",
                        "returnParams": [],
                        "signature": "safeTransferFrom(address,address,uint256,uint256,bytes)"
                    },
                    "errorInfo": "",
                    "fromAddress": "0xf96798f49936efb1a56f99ceae924b6b8359affb",
                    "gasUsed": 160147,
                    "id": 4,
                    "methodDecoded": true,
                    "operation": "CALL",
                    "output": "",
                    "revert": false,
                    "revertMessage": "",
                    "selector": "0xf242432a",
                    "status": true,
                    "value": "0"
                },
                "nodeType": 0
            },
            "5": {
                "invocation": {
                    "address": "0xedbaee53b410d2c59f1b73144e8d500e94b496a0",
                    "callData": "0x000000000000000000000000e93ef341ddc76333c3195fb1fa461a6a179228b8000000000000000000000000f96798f49936efb1a56f99ceae924b6b8359affb000000000000000000000000639067741509cd8705be8fce130c0b31daa628370000000000000000000000000000000000000000000003faeed311b5cf3d5c0000000000000000000000000000000000000000000000000000000000000000a00000000000000000000000000000000000000000000000000000000000000000",
                    "decodedMethod": {
                        "callParams": [
                            {
                                "name": "from",
                                "type": "address",
                                "value": "0xe93ef341ddc76333c3195fb1fa461a6a179228b8"
                            },
                            {
                                "name": "to",
                                "type": "address",
                                "value": "0xf96798f49936efb1a56f99ceae924b6b8359affb"
                            },
                            {
                                "name": "id",
                                "type": "uint256",
                                "value": "568,410,405,686,318,743,940,487,286,198,766,186,786,980,243,511"
                            },
                            {
                                "name": "value",
                                "type": "uint256",
                                "value": "18,795,994,585,110,000,000,000"
                            },
                            {
                                "name": "data",
                                "type": "bytes",
                                "value": "0x"
                            }
                        ],
                        "constructorArguments": "",
                        "name": "safeTransferFrom",
                        "returnParams": [],
                        "signature": "safeTransferFrom(address,address,uint256,uint256,bytes)"
                    },
                    "errorInfo": "",
                    "fromAddress": "0xb6d149c8dda37aaaa2f8ad0934f2e5682c35890b",
                    "gasUsed": 159675,
                    "id": 5,
                    "methodDecoded": true,
                    "operation": "DELEGATECALL",
                    "output": "",
                    "revert": false,
                    "revertMessage": "",
                    "selector": "0xf242432a",
                    "status": true,
                    "value": "0"
                },
                "nodeType": 0
            },
            "6": {
                "event": {
                    "contract": "0xb6d149c8dda37aaaa2f8ad0934f2e5682c35890b",
                    "decodedLog": {
                        "name": "DistributionIndexUpdated",
                        "params": [
                            {
                                "name": "distributionID",
                                "type": "uint256",
                                "value": "1"
                            },
                            {
                                "name": "index",
                                "type": "uint256",
                                "value": "105,688,168,719,079,087"
                            }
                        ],
                        "signature": "DistributionIndexUpdated(uint256,uint256)"
                    },
                    "id": 6,
                    "logData": "0x00000000000000000000000000000000000000000000000001777ad4597656af",
                    "logDecoded": true,
                    "operation": "EVENT",
                    "revert": false,
                    "status": true,
                    "topics": [
                        "0x1e20efab2e62b5e460bd55e2d94983dcf36bad4942d4ebc4b43533e21de7c959",
                        "0x0000000000000000000000000000000000000000000000000000000000000001"
                    ]
                },
                "nodeType": 1
            },
            "7": {
                "event": {
                    "contract": "0xb6d149c8dda37aaaa2f8ad0934f2e5682c35890b",
                    "decodedLog": {
                        "name": "UserIndexUpdated",
                        "params": [
                            {
                                "name": "distributionID",
                                "type": "uint256",
                                "value": "1"
                            },
                            {
                                "name": "user",
                                "type": "address",
                                "value": "0xe93ef341ddc76333c3195fb1fa461a6a179228b8"
                            },
                            {
                                "name": "operator",
                                "type": "address",
                                "value": "0x639067741509cd8705be8fce130c0b31daa62837"
                            },
                            {
                                "name": "index",
                                "type": "uint256",
                                "value": "105,688,168,719,079,087"
                            }
                        ],
                        "signature": "UserIndexUpdated(uint256,address,address,uint256)"
                    },
                    "id": 7,
                    "logData": "0x00000000000000000000000000000000000000000000000001777ad4597656af",
                    "logDecoded": true,
                    "operation": "EVENT",
                    "revert": false,
                    "status": true,
                    "topics": [
                        "0xe447ab6eb5c5de957771652eea326786807faafd717e0a2ad91eae5fcaaaa2ab",
                        "0x0000000000000000000000000000000000000000000000000000000000000001",
                        "0x000000000000000000000000e93ef341ddc76333c3195fb1fa461a6a179228b8",
                        "0x000000000000000000000000639067741509cd8705be8fce130c0b31daa62837"
                    ]
                },
                "nodeType": 1
            },
            "8": {
                "event": {
                    "contract": "0xb6d149c8dda37aaaa2f8ad0934f2e5682c35890b",
                    "decodedLog": {
                        "name": "CollectFee",
                        "params": [
                            {
                                "name": "distributionId",
                                "type": "uint16",
                                "value": "1"
                            },
                            {
                                "name": "operator",
                                "type": "address",
                                "value": "0x639067741509cd8705be8fce130c0b31daa62837"
                            },
                            {
                                "name": "protocolFee",
                                "type": "uint256",
                                "value": "0"
                            },
                            {
                                "name": "operatorFee",
                                "type": "uint256",
                                "value": "0"
                            },
                            {
                                "name": "userRewards",
                                "type": "uint256",
                                "value": "171,414,210,829,115,394"
                            }
                        ],
                        "signature": "CollectFee(uint16,address,uint256,uint256,uint256)"
                    },
                    "id": 8,
                    "logData": "0x0000000000000000000000000000000000000000000000000000000000000001000000000000000000000000639067741509cd8705be8fce130c0b31daa62837000000000000000000000000000000000000000000000000000000000000000000000000000000000000000000000000000000000000000000000000000000000000000000000000000000000000000000000000000000000260fc5109ec6002",
                    "logDecoded": true,
                    "operation": "EVENT",
                    "revert": false,
                    "status": true,
                    "topics": [
                        "0x2b958f8cb89eacedb3f4091f10ab928a6468b16bac726a9329de7178d49c45f5"
                    ]
                },
                "nodeType": 1
            },
            "9": {
                "invocation": {
                    "address": "0x8457ca5040ad67fdebbcc8edce889a335bc0fbfb",
                    "callData": "0x000000000000000000000000cbccfeb938e95edd9863a02ece087033d68042a0000000000000000000000000a7ee328c8a00beb30bc70789c4cfdb81a61ebc2f0000000000000000000000000000000000000000000000000000000000000000",
                    "decodedMethod": {
                        "callParams": [
                            {
                                "name": "from",
                                "type": "address",
                                "value": "0xcbccfeb938e95edd9863a02ece087033d68042a0"
                            },
                            {
                                "name": "to",
                                "type": "address",
                                "value": "0xa7ee328c8a00beb30bc70789c4cfdb81a61ebc2f"
                            },
                            {
                                "decimalAvailable": true,
                                "name": "value",
                                "type": "uint256",
                                "value": "0"
                            }
                        ],
                        "constructorArguments": "",
                        "name": "transferFrom",
                        "returnParams": [
                            {
                                "name": "",
                                "type": "bool",
                                "value": true
                            }
                        ],
                        "signature": "transferFrom(address,address,uint256)"
                    },
                    "errorInfo": "",
                    "fromAddress": "0xb6d149c8dda37aaaa2f8ad0934f2e5682c35890b",
                    "gasUsed": 12487,
                    "id": 9,
                    "methodDecoded": true,
                    "operation": "CALL",
                    "output": "0x0000000000000000000000000000000000000000000000000000000000000001",
                    "revert": false,
                    "revertMessage": "",
                    "selector": "0x23b872dd",
                    "status": true,
                    "value": "0"
                },
                "nodeType": 0
            }
        },
        "gasFlame": [
            {
                "children": [
                    {
                        "children": [
                            {
                                "children": [],
                                "depth": 0,
                                "name": "Initial Gas",
                                "value": 21668
                            },
                            {
                                "children": [
                                    {
                                        "children": [
                                            {
                                                "children": [
                                                    {
                                                        "children": [],
                                                        "depth": 3,
                                                        "name": "balanceOf",
                                                        "value": 2736
                                                    }
                                                ],
                                                "depth": 2,
                                                "name": "balanceOf",
                                                "value": 7687
                                            },
                                            {
                                                "children": [
                                                    {
                                                        "children": [
                                                            {
                                                                "children": [],
                                                                "depth": 4,
                                                                "name": "transferFrom",
                                                                "value": 12487
                                                            },
                                                            {
                                                                "children": [],
                                                                "depth": 4,
                                                                "name": "transferFrom",
                                                                "value": 6487
                                                            },
                                                            {
                                                                "children": [],
                                                                "depth": 4,
                                                                "name": "transferFrom",
                                                                "value": 4487
                                                            },
                                                            {
                                                                "children": [],
                                                                "depth": 4,
                                                                "name": "transferFrom",
                                                                "value": 4487
                                                            },
                                                            {
                                                                "children": [
                                                                    {
                                                                        "children": [],
                                                                        "depth": 5,
                                                                        "name": "onERC1155Received",
                                                                        "value": 1109
                                                                    }
                                                                ],
                                                                "depth": 4,
                                                                "name": "onERC1155Received",
                                                                "value": 1584
                                                            }
                                                        ],
                                                        "depth": 3,
                                                        "name": "safeTransferFrom",
                                                        "value": 159675
                                                    }
                                                ],
                                                "depth": 2,
                                                "name": "safeTransferFrom",
                                                "value": 160147
                                            }
                                        ],
                                        "depth": 1,
                                        "name": "deposit",
                                        "value": 204172
                                    }
                                ],
                                "depth": 0,
                                "name": "Executed Gas",
                                "value": 209123
                            }
                        ],
                        "depth": -1,
                        "name": "Actual Gas Used",
                        "value": 225991
                    },
                    {
                        "children": [],
                        "depth": -1,
                        "name": "Refunded Gas",
                        "value": 4800
                    }
                ],
                "depth": -2,
                "name": "Total Gas",
                "value": 230791
            }
        ],
        "isConfirmed": true,
        "mainTrace": [
            {
                "children": [
                    {
                        "children": [
                            {
                                "children": [
                                    {
                                        "children": [
                                            {
                                                "children": [],
                                                "depth": 3,
                                                "id": 3,
                                                "order": 3
                                            }
                                        ],
                                        "depth": 2,
                                        "id": 2,
                                        "order": 2
                                    },
                                    {
                                        "children": [
                                            {
                                                "children": [
                                                    {
                                                        "children": [],
                                                        "depth": 4,
                                                        "id": 6,
                                                        "order": 6
                                                    },
                                                    {
                                                        "children": [],
                                                        "depth": 4,
                                                        "id": 7,
                                                        "order": 7
                                                    },
                                                    {
                                                        "children": [],
                                                        "depth": 4,
                                                        "id": 8,
                                                        "order": 8
                                                    },
                                                    {
                                                        "children": [
                                                            {
                                                                "children": [],
                                                                "depth": 5,
                                                                "id": 10,
                                                                "order": 10
                                                            }
                                                        ],
                                                        "depth": 4,
                                                        "id": 9,
                                                        "order": 9
                                                    },
                                                    {
                                                        "children": [
                                                            {
                                                                "children": [],
                                                                "depth": 5,
                                                                "id": 12,
                                                                "order": 12
                                                            }
                                                        ],
                                                        "depth": 4,
                                                        "id": 11,
                                                        "order": 11
                                                    },
                                                    {
                                                        "children": [],
                                                        "depth": 4,
                                                        "id": 13,
                                                        "order": 13
                                                    },
                                                    {
                                                        "children": [],
                                                        "depth": 4,
                                                        "id": 14,
                                                        "order": 14
                                                    },
                                                    {
                                                        "children": [],
                                                        "depth": 4,
                                                        "id": 15,
                                                        "order": 15
                                                    },
                                                    {
                                                        "children": [
                                                            {
                                                                "children": [],
                                                                "depth": 5,
                                                                "id": 17,
                                                                "order": 17
                                                            }
                                                        ],
                                                        "depth": 4,
                                                        "id": 16,
                                                        "order": 16
                                                    },
                                                    {
                                                        "children": [
                                                            {
                                                                "children": [],
                                                                "depth": 5,
                                                                "id": 19,
                                                                "order": 19
                                                            }
                                                        ],
                                                        "depth": 4,
                                                        "id": 18,
                                                        "order": 18
                                                    },
                                                    {
                                                        "children": [],
                                                        "depth": 4,
                                                        "id": 20,
                                                        "order": 20
                                                    },
                                                    {
                                                        "children": [],
                                                        "depth": 4,
                                                        "id": 21,
                                                        "order": 21
                                                    },
                                                    {
                                                        "children": [
                                                            {
                                                                "children": [],
                                                                "depth": 5,
                                                                "id": 23,
                                                                "order": 23
                                                            }
                                                        ],
                                                        "depth": 4,
                                                        "id": 22,
                                                        "order": 22
                                                    }
                                                ],
                                                "depth": 3,
                                                "id": 5,
                                                "order": 5
                                            }
                                        ],
                                        "depth": 2,
                                        "id": 4,
                                        "order": 4
                                    },
                                    {
                                        "children": [],
                                        "depth": 2,
                                        "id": 24,
                                        "order": 24
                                    },
                                    {
                                        "children": [],
                                        "depth": 2,
                                        "id": 25,
                                        "order": 25
                                    }
                                ],
                                "depth": 1,
                                "id": 1,
                                "order": 1
                            }
                        ],
                        "depth": 0,
                        "id": 0,
                        "order": 0
                    }
                ],
                "depth": -1,
                "id": -1,
                "order": -1
            }
        ],
        "mainTraceNodeCount": 26,
        "parentIdMap": {
            "0": -1,
            "1": 0,
            "10": 9,
            "11": 5,
            "12": 11,
            "13": 5,
            "14": 5,
            "15": 5,
            "16": 5,
            "17": 16,
            "18": 5,
            "19": 18,
            "2": 1,
            "20": 5,
            "21": 5,
            "22": 5,
            "23": 22,
            "24": 1,
            "25": 1,
            "3": 2,
            "4": 1,
            "5": 4,
            "6": 5,
            "7": 5,
            "8": 5,
            "9": 5
        },
        "tidyTrace": [
            {
                "children": [
                    {
                        "children": [
                            {
                                "children": [
                                    {
                                        "children": [
                                            {
                                                "children": [
                                                    {
                                                        "children": [],
                                                        "depth": 4,
                                                        "id": 6,
                                                        "order": 6
                                                    },
                                                    {
                                                        "children": [],
                                                        "depth": 4,
                                                        "id": 7,
                                                        "order": 7
                                                    },
                                                    {
                                                        "children": [],
                                                        "depth": 4,
                                                        "id": 8,
                                                        "order": 8
                                                    },
                                                    {
                                                        "children": [
                                                            {
                                                                "children": [],
                                                                "depth": 5,
                                                                "id": 10,
                                                                "order": 10
                                                            }
                                                        ],
                                                        "depth": 4,
                                                        "id": 9,
                                                        "order": 9
                                                    },
                                                    {
                                                        "children": [
                                                            {
                                                                "children": [],
                                                                "depth": 5,
                                                                "id": 12,
                                                                "order": 12
                                                            }
                                                        ],
                                                        "depth": 4,
                                                        "id": 11,
                                                        "order": 11
                                                    },
                                                    {
                                                        "children": [],
                                                        "depth": 4,
                                                        "id": 13,
                                                        "order": 13
                                                    },
                                                    {
                                                        "children": [],
                                                        "depth": 4,
                                                        "id": 14,
                                                        "order": 14
                                                    },
                                                    {
                                                        "children": [],
                                                        "depth": 4,
                                                        "id": 15,
                                                        "order": 15
                                                    },
                                                    {
                                                        "children": [
                                                            {
                                                                "children": [],
                                                                "depth": 5,
                                                                "id": 17,
                                                                "order": 17
                                                            }
                                                        ],
                                                        "depth": 4,
                                                        "id": 16,
                                                        "order": 16
                                                    },
                                                    {
                                                        "children": [
                                                            {
                                                                "children": [],
                                                                "depth": 5,
                                                                "id": 19,
                                                                "order": 19
                                                            }
                                                        ],
                                                        "depth": 4,
                                                        "id": 18,
                                                        "order": 18
                                                    },
                                                    {
                                                        "children": [],
                                                        "depth": 4,
                                                        "id": 20,
                                                        "order": 20
                                                    },
                                                    {
                                                        "children": [],
                                                        "depth": 4,
                                                        "id": 21,
                                                        "order": 21
                                                    },
                                                    {
                                                        "children": [
                                                            {
                                                                "children": [],
                                                                "depth": 5,
                                                                "id": 23,
                                                                "order": 23
                                                            }
                                                        ],
                                                        "depth": 4,
                                                        "id": 22,
                                                        "order": 22
                                                    }
                                                ],
                                                "depth": 3,
                                                "id": 5,
                                                "order": 5
                                            }
                                        ],
                                        "depth": 2,
                                        "id": 4,
                                        "order": 4
                                    },
                                    {
                                        "children": [],
                                        "depth": 2,
                                        "id": 24,
                                        "order": 24
                                    },
                                    {
                                        "children": [],
                                        "depth": 2,
                                        "id": 25,
                                        "order": 25
                                    }
                                ],
                                "depth": 1,
                                "id": 1,
                                "order": 1
                            }
                        ],
                        "depth": 0,
                        "id": 0,
                        "order": 0
                    }
                ],
                "depth": -1,
                "id": -1,
                "order": -1
            }
        ],
        "tidyTraceNodeCount": 24
    },
    "state_change": {
        "stateChanges": [
            {
                "address": "0xb6d149c8dda37aaaa2f8ad0934f2e5682c35890b",
                "erc": "ERC-1155",
                "slots": [
                    {
                        "current": "0x00000000000000000000000000000000000000000000000001777ad4597656af",
                        "key": "0x7fb70d3b53b50f6798636307bc089a811f848f8c80c93eb1457530527547831b",
                        "prev": "0x00000000000000000000000000000000000000000000000001777ac7b5faa128"
                    },
                    {
                        "current": "0x000000000000000000000000000000000000000000000000000000006637cf1f",
                        "key": "0x7fb70d3b53b50f6798636307bc089a811f848f8c80c93eb1457530527547831c",
                        "prev": "0x000000000000000000000000000000000000000000000000000000006637cf13"
                    },
                    {
                        "current": "0x00000000000000000000000000000000000000000000000001777ad4597656af",
                        "key": "0xdf582d77f03109e650cc9b084dfe17a9c4fe482719079402dfc99ad3a900f49e",
                        "prev": "0x00000000000000000000000000000000000000000000000001777288ffc80a38"
                    },
                    {
                        "current": "0x0000000000000000000000000000000000000000000000000260fc5109ec6002",
                        "key": "0xf7b9f40909c66d326bd8c6a9d91acaf418490369ed2d6274da5118e2b4256f67",
                        "prev": "0x0000000000000000000000000000000000000000000000000000000000000000"
                    },
                    {
                        "current": "0x00000000000000000000000000000000000000000000000001777ad4597656af",
                        "key": "0xb500d29412422a3d2b6713f8c9b67e3cfe5b2531d51375d7dbb956d8553e2daa",
                        "prev": "0x00000000000000000000000000000000000000000000000001777ac7b5faa128"
                    },
                    {
                        "current": "0x0000000000000000000000000000000000000000000000000000000000000000",
                        "key": "0x5ca0460786e9cfa9adee68e2cdd70adf5c9f38f4df231a66c8b9e1261320c4ff",
                        "prev": "0x0000000000000000000000000000000000000000000003faeed311b5cf3d5c00"
                    },
                    {
                        "current": "0x00000000000000000000000000000000000000000062fcffbacbbc1fa8e61852",
                        "key": "0x395ba7bff9da19f4924cb6e5668a7283228870818ecb2af8a6b8b67832ed6e04",
                        "prev": "0x00000000000000000000000000000000000000000062f904cbf8aa69d9a8bc52"
                    },
                    {
                        "current": "0x000000000000000000000000000000000000000000001afb00be3b4be9159454",
                        "key": "0x4f62fcb2689f0b59d5817e631fd83d2b8842c6d9ce596c4a0a3d6d7f070b1443",
                        "prev": "0x000000000000000000000000000000000000000000001afaa69b9debe7dce4f0"
                    }
                ],
                "storageVariables": [
                    {
                        "name": "distributions",
                        "type": "mapping(uint16 => struct DistributionData)",
                        "value": {
                            "pairs": [
                                {
                                    "key": "1",
                                    "value": {
                                        "fields": [
                                            {
                                                "name": "index",
                                                "type": "uint256",
                                                "value": {
                                                    "current": "105688168719079087",
                                                    "prev": "105688114436677928",
                                                    "typeTag": 1
                                                }
                                            },
                                            {
                                                "name": "updateTimestamp",
                                                "type": "uint40",
                                                "value": {
                                                    "current": "1714933535",
                                                    "prev": "1714933523",
                                                    "typeTag": 1
                                                }
                                            },
                                            {
                                                "name": "userIndices",
                                                "type": "mapping(address => mapping(address => uint256))",
                                                "value": {
                                                    "pairs": [
                                                        {
                                                            "key": "0x639067741509cd8705be8fce130c0b31daa62837",
                                                            "value": {
                                                                "pairs": [
                                                                    {
                                                                        "key": "0xe93ef341ddc76333c3195fb1fa461a6a179228b8",
                                                                        "value": {
                                                                            "current": "105688168719079087",
                                                                            "prev": "105679048998914616",
                                                                            "typeTag": 1
                                                                        }
                                                                    },
                                                                    {
                                                                        "key": "0xf96798f49936efb1a56f99ceae924b6b8359affb",
                                                                        "value": {
                                                                            "current": "105688168719079087",
                                                                            "prev": "105688114436677928",
                                                                            "typeTag": 1
                                                                        }
                                                                    }
                                                                ],
                                                                "typeTag": 4
                                                            }
                                                        }
                                                    ],
                                                    "typeTag": 4
                                                }
                                            }
                                        ],
                                        "typeTag": 3
                                    }
                                }
                            ],
                            "typeTag": 4
                        }
                    },
                    {
                        "name": "_rewardsBalances",
                        "type": "mapping(bytes32 => uint256)",
                        "value": {
                            "pairs": [
                                {
                                    "key": "0x2134bb32cc0876513809d2859d3f2480c906ba52beae7e28adb9b582af566301",
                                    "value": {
                                        "current": "171414210829115394",
                                        "prev": "0",
                                        "typeTag": 1
                                    }
                                },
                                {
                                    "key": "0xeba268aa6ba8c1755959a8e16cd2f601511853e0e1e833bbe9f75cb9b240bc22",
                                    "value": {
                                        "current": "127411714862554667127892",
                                        "prev": "127405219935906382537968",
                                        "typeTag": 1
                                    }
                                }
                            ],
                            "typeTag": 4
                        }
                    }
                ]
            },
            {
                "address": "0xf96798f49936efb1a56f99ceae924b6b8359affb",
                "erc": "",
                "slots": [
                    {
                        "current": "0x00000000000000000000000000000000000000000062fcffbacbbc1fa8e61852",
                        "key": "0x52c63247e1f47db19d5ce0460030c497f067ca4cebf71ba98eeadabe20bace02",
                        "prev": "0x00000000000000000000000000000000000000000062f904cbf8aa69d9a8bc52"
                    },
                    {
                        "current": "0x0000000000000000000000000000000000000000000003faeed311b5cf3d5c00",
                        "key": "0x247ba36c4aca37b074b6f6cb3d93bc51697edb45a6433a6f7a6327a76f6c7cd1",
                        "prev": "0x0000000000000000000000000000000000000000000000000000000000000000"
                    }
                ],
                "storageVariables": []
            }
        ]
    }
}