{
    "balance_change": {
        "balanceChanges": []
    },
    "profile": {
        "basic_info": {
            "baseFee": "",
            "blockNumber": 4838174,
            "callData": "0x3fedcc31000000000000000000000000000000007b4b7dd23f3d48ee9da9f7ceca247652000000000000000000000000a36ae0f959046a18d109dc5b1fb8df655cf0aa81000000000000000000000000915dd817c9ef73ecd68cae74283023172c32a826000000000000000000000000ad66ece9bf8c71870aecdaf01b06dcf4b3c2f579000000000000000000000000000000000000000000000000064c842f0896b00000000000000000000000000000000000000000000000000000000000000000e000000000000000000000000000000000000000000000000000000000000001600000000000000000000000000000000000000000000000000000000000000041775b994e2eaf430699a677d28d25092469c7590cfbedc2467b35f8c9a7e182321fc729551d3997c9ae7ead404dd6885740dbd828407c23913cfb87b95ba8b19d1c0000000000000000000000000000000000000000000000000000000000000000000000000000000000000000000000000000000000000000000000000000000000000000000000000000000000000000000000000000000000000000000000",
            "debugEnable": true,
            "errorInfo": "",
            "eventCount": 1,
            "feeRecipient": "0xea674fdde714fd979de3edf0f56aa9716b898ec8",
            "formatValue": "0",
            "gasLimit": 200000,
            "gasPrice": "20",
            "gasUsed": 59244,
            "intTxnCount": 2,
            "internalRevert": false,
            "internalRevertMessage": "",
            "isContractCreation": false,
            "isFlashloan": false,
            "maxFee": "",
            "nonce": 138707,
            "overwritedBlockNumber": -1,
            "priorityFee": "",
            "receiver": "0x7ddf4ed06fe5ecc646fad19d257cd3f05a884d70",
            "revertMessage": "",
            "sender": "0xf2015a9160c9c9381ff99f19fc18e5af57cac8ed",
            "simulationEnable": true,
            "sourceTxnHash": "0xb0c7f5e5ad5d8f4a4b9b55f64fcb2dddc1c027cd9ff07216724cdafbf4cd5b2b",
            "status": true,
            "timestamp": "2018-01-01T22:11:46Z",
            "transactionFee": "0.00118488",
            "txnHash": "0xb0c7f5e5ad5d8f4a4b9b55f64fcb2dddc1c027cd9ff07216724cdafbf4cd5b2b",
            "txnIndex": 64,
            "type": 0,
            "value": "0"
        },
        "fund_flow": [],
        "token_infos": [
            {
                "address": "0xc02aaa39b223fe8d0a0e5c4f27ead9083c756cc2",
                "decimals": 18
            },
            {
                "address": "0xeeeeeeeeeeeeeeeeeeeeeeeeeeeeeeeeeeeeeeee",
                "decimals": 18
            }
        ]
    },
    "address_label": {
        "labels": [
            {
                "address": "0x0000000000000000000000000000000000000003",
                "label": "Precompiled"
            },
            {
                "address": "0x0000000000000000000000000000000000000004",
                "label": "Precompiled"
            },
            {
                "address": "0xeeeeeeeeeeeeeeeeeeeeeeeeeeeeeeeeeeeeeeee",
                "label": "Ether"
            },
            {
                "address": "0xf2015a9160c9c9381ff99f19fc18e5af57cac8ed",
                "label": "Lykke: Deployer"
            },
            {
                "address": "0x0000000000000000000000000000000000000001",
                "label": "Precompiled"
            },
            {
                "address": "0x0000000000000000000000000000000000000002",
                "label": "Precompiled"
            }
        ]
    },
    "trace": {
        "accountLabels": null,
        "dataMap": {
            "-1": {
                "invocation": {
                    "address": "0xf2015a9160c9c9381ff99f19fc18e5af57cac8ed",
                    "callData": "",
                    "decodedMethod": null,
                    "errorInfo": "",
                    "fromAddress": "",
                    "gasUsed": 0,
                    "id": -1,
                    "methodDecoded": false,
                    "operation": "",
                    "output": "",
                    "revert": false,
                    "revertMessage": "",
                    "selector": "",
                    "status": false,
                    "value": ""
                },
                "nodeType": 0
            },
            "0": {
                "invocation": {
                    "address": "0x7ddf4ed06fe5ecc646fad19d257cd3f05a884d70",
                    "callData": "0x000000000000000000000000000000007b4b7dd23f3d48ee9da9f7ceca247652000000000000000000000000a36ae0f959046a18d109dc5b1fb8df655cf0aa81000000000000000000000000915dd817c9ef73ecd68cae74283023172c32a826000000000000000000000000ad66ece9bf8c71870aecdaf01b06dcf4b3c2f579000000000000000000000000000000000000000000000000064c842f0896b00000000000000000000000000000000000000000000000000000000000000000e000000000000000000000000000000000000000000000000000000000000001600000000000000000000000000000000000000000000000000000000000000041775b994e2eaf430699a677d28d25092469c7590cfbedc2467b35f8c9a7e182321fc729551d3997c9ae7ead404dd6885740dbd828407c23913cfb87b95ba8b19d1c0000000000000000000000000000000000000000000000000000000000000000000000000000000000000000000000000000000000000000000000000000000000000000000000000000000000000000000000000000000000000000000000",
                    "decodedMethod": null,
                    "errorInfo": "",
                    "fromAddress": "0xf2015a9160c9c9381ff99f19fc18e5af57cac8ed",
                    "gasUsed": 59244,
                    "id": 0,
                    "methodDecoded": false,
                    "operation": "CALL",
                    "output": "",
                    "revert": false,
                    "revertMessage": "",
                    "selector": "0x3fedcc31",
                    "status": true,
                    "value": "0"
                },
                "nodeType": 0
            },
            "1": {
                "invocation": {
                    "address": "0x0000000000000000000000000000000000000001",
                    "callData": "0xc32f533d2a82a97ec5fc51a5ed356c88291a049e463f01d036d37ca2000000000000000000000000000000000000000000000000000000000000001c775b994e2eaf430699a677d28d25092469c7590cfbedc2467b35f8c9a7e182321fc729551d3997c9ae7ead404dd6885740dbd828407c23913cfb87b95ba8b19d",
                    "decodedMethod": {
                        "callParams": [
                            {
                                "name": "hash",
                                "type": "bytes32",
                                "value": "0xd4c4ccebc32f533d2a82a97ec5fc51a5ed356c88291a049e463f01d036d37ca2"
                            },
                            {
                                "name": "v",
                                "type": "uint256",
                                "value": "28"
                            },
                            {
                                "name": "r",
                                "type": "bytes32",
                                "value": "0x775b994e2eaf430699a677d28d25092469c7590cfbedc2467b35f8c9a7e18232"
                            },
                            {
                                "name": "s",
                                "type": "bytes32",
                                "value": "0x1fc729551d3997c9ae7ead404dd6885740dbd828407c23913cfb87b95ba8b19d"
                            }
                        ],
                        "constructorArguments": "",
                        "name": "ecrecover",
                        "returnParams": [
                            {
                                "name": "",
                                "type": "address",
                                "value": "0x915dd817c9ef73ecd68cae74283023172c32a826"
                            }
                        ],
                        "signature": "ecrecover(bytes32,uint256,bytes32,bytes32)"
                    },
                    "errorInfo": "",
                    "fromAddress": "0x7ddf4ed06fe5ecc646fad19d257cd3f05a884d70",
                    "gasUsed": 3000,
                    "id": 1,
                    "methodDecoded": true,
                    "operation": "CALL",
                    "output": "0x000000000000000000000000915dd817c9ef73ecd68cae74283023172c32a826",
                    "revert": false,
                    "revertMessage": "",
                    "selector": "0xd4c4cceb",
                    "status": true,
                    "value": "0"
                },
                "nodeType": 0
            },
            "2": {
                "invocation": {
                    "address": "0xa36ae0f959046a18d109dc5b1fb8df655cf0aa81",
                    "callData": "0x000000000000000000000000915dd817c9ef73ecd68cae74283023172c32a826000000000000000000000000ad66ece9bf8c71870aecdaf01b06dcf4b3c2f579000000000000000000000000000000000000000000000000064c842f0896b000",
                    "decodedMethod": {
                        "callParams": [
                            {
                                "name": "_contract",
                                "type": "address",
                                "value": "0x915dd817c9ef73ecd68cae74283023172c32a826"
                            },
                            {
                                "name": "_to",
                                "type": "address",
                                "value": "0xad66ece9bf8c71870aecdaf01b06dcf4b3c2f579"
                            },
                            {
                                "name": "_amount",
                                "type": "uint256",
                                "value": "453,883,000,000,000,000"
                            }
                        ],
                        "constructorArguments": "",
                        "name": "transferMultisig",
                        "returnParams": [],
                        "signature": "transferMultisig(address,address,uint256)"
                    },
                    "errorInfo": "",
                    "fromAddress": "0x7ddf4ed06fe5ecc646fad19d257cd3f05a884d70",
                    "gasUsed": 13610,
                    "id": 2,
                    "methodDecoded": true,
                    "operation": "CALL",
                    "output": "",
                    "revert": false,
                    "revertMessage": "",
                    "selector": "0x6ba2aefc",
                    "status": true,
                    "value": "0"
                },
                "nodeType": 0
            },
            "3": {
                "event": {
                    "contract": "0xa36ae0f959046a18d109dc5b1fb8df655cf0aa81",
                    "decodedLog": null,
                    "id": 3,
                    "logData": "0x0000000000000000000000007ddf4ed06fe5ecc646fad19d257cd3f05a884d70000000000000000000000000915dd817c9ef73ecd68cae74283023172c32a826000000000000000000000000ad66ece9bf8c71870aecdaf01b06dcf4b3c2f579000000000000000000000000000000000000000000000000064c842f0896b000",
                    "logDecoded": false,
                    "operation": "EVENT",
                    "revert": false,
                    "status": true,
                    "topics": [
                        "0xad61cab1dd9ce7c4095cf8876c832e5400db787afab09d55b74b8c75dcd6538c"
                    ]
                },
                "nodeType": 1
            }
        },
        "gasFlame": [
            {
                "children": [
                    {
                        "children": [
                            {
                                "children": [],
                                "depth": 0,
                                "name": "Initial Gas",
                                "value": 32664
                            },
                            {
                                "children": [
                                    {
                                        "children": [],
                                        "depth": 1,
                                        "name": "ecrecover",
                                        "value": 3000
                                    },
                                    {
                                        "children": [],
                                        "depth": 1,
                                        "name": "transferMultisig",
                                        "value": 13610
                                    }
                                ],
                                "depth": 0,
                                "name": "Executed Gas",
                                "value": 41580
                            }
                        ],
                        "depth": -1,
                        "name": "Actual Gas Used",
                        "value": 59244
                    },
                    {
                        "children": [],
                        "depth": -1,
                        "name": "Refunded Gas",
                        "value": 15000
                    }
                ],
                "depth": -2,
                "name": "Total Gas",
                "value": 74244
            }
        ],
        "isConfirmed": true,
        "mainTrace": [
            {
                "children": [
                    {
                        "children": [
                            {
                                "children": [],
                                "depth": 1,
                                "id": 1,
                                "order": 1
                            },
                            {
                                "children": [
                                    {
                                        "children": [],
                                        "depth": 2,
                                        "id": 3,
                                        "order": 3
                                    }
                                ],
                                "depth": 1,
                                "id": 2,
                                "order": 2
                            }
                        ],
                        "depth": 0,
                        "id": 0,
                        "order": 0
                    }
                ],
                "depth": -1,
                "id": -1,
                "order": -1
            }
        ],
        "mainTraceNodeCount": 4,
        "parentIdMap": {
            "0": -1,
            "1": 0,
            "2": 0,
            "3": 2
        },
        "tidyTrace": [
            {
                "children": [
                    {
                        "children": [
                            {
                                "children": [],
                                "depth": 1,
                                "id": 1,
                                "order": 1
                            },
                            {
                                "children": [
                                    {
                                        "children": [],
                                        "depth": 2,
                                        "id": 3,
                                        "order": 3
                                    }
                                ],
                                "depth": 1,
                                "id": 2,
                                "order": 2
                            }
                        ],
                        "depth": 0,
                        "id": 0,
                        "order": 0
                    }
                ],
                "depth": -1,
                "id": -1,
                "order": -1
            }
        ],
        "tidyTraceNodeCount": 4
    },
    "state_change": {
        "stateChanges": [
            {
                "address": "0x7ddf4ed06fe5ecc646fad19d257cd3f05a884d70",
                "erc": "",
                "slots": [
                    {
                        "current": "0x0000000000000000000000000000000000000000000000000000000000000001",
                        "key": "0x09bbd70d4f2b81fec72f291f5a97ec303315513d96415fd781b8fa2a7b13d914",
                        "prev": "0x0000000000000000000000000000000000000000000000000000000000000000"
                    }
                ],
                "storageVariables": []
            },
            {
                "address": "0xa36ae0f959046a18d109dc5b1fb8df655cf0aa81",
                "erc": "",
                "slots": [
                    {
                        "current": "0x0000000000000000000000000000000000000000000000000000000000000000",
                        "key": "0xae661ec914b823ae8a8a5a1bb0a7fa0d0be99905f6610c64de129a4e5f2c0a34",
                        "prev": "0x000000000000000000000000000000000000000000000000064c842f0896b000"
                    },
                    {
                        "current": "0x00000000000000000000000000000000000000000000001fc9c53fc9938cf774",
                        "key": "0x06b5758ede2e050e1a210c5003ba90d9f1d9ecc8320b4d8f665ef200f04bd8b2",
                        "prev": "0x00000000000000000000000000000000000000000000001fc378bb9a8af64774"
                    }
                ],
                "storageVariables": []
            }
        ]
    }
}