{
    "balance_change": {
        "balanceChanges": [
            {
                "account": "0x6ddefd4f09b2dafe21369bcb9d619e17c5dbc544",
                "assets": [
                    {
                        "address": "0xb334a4eb0a2d6cc24fd451e779c002b9b33228c3",
                        "amount": "1",
                        "iconUrl": "https://assets.blocksec.com/nft/icon/nft_7366eb80-c093-49f5-a900-de5ab1d73a12.png",
                        "isERC1155": false,
                        "isERC721": true,
                        "sign": true,
                        "tokenID": "4728",
                        "value": ""
                    },
                    {
                        "address": "0xeeeeeeeeeeeeeeeeeeeeeeeeeeeeeeeeeeeeeeee",
                        "amount": "0.133",
                        "iconUrl": "https://assets.blocksec.com/image/1663669189317-3.png",
                        "isERC1155": false,
                        "isERC721": false,
                        "sign": false,
                        "value": "218.50060423799999512"
                    }
                ]
            },
            {
                "account": "0xc6e0d892e21af70f37373e2a855059ed90eda87b",
                "assets": [
                    {
                        "address": "0xeeeeeeeeeeeeeeeeeeeeeeeeeeeeeeeeeeeeeeee",
                        "amount": "0.009975",
                        "iconUrl": "https://assets.blocksec.com/image/1663669189317-3.png",
                        "isERC1155": false,
                        "isERC721": false,
                        "sign": true,
                        "value": "16.387545317849999635"
                    }
                ]
            },
            {
                "account": "0xf72096a29f6db80f383fb73fc24e596ba016a4df",
                "assets": [
                    {
                        "address": "0xeeeeeeeeeeeeeeeeeeeeeeeeeeeeeeeeeeeeeeee",
                        "amount": "0.123025",
                        "iconUrl": "https://assets.blocksec.com/image/1663669189317-3.png",
                        "isERC1155": false,
                        "isERC721": false,
                        "sign": true,
                        "value": "202.11305892014999548"
                    },
                    {
                        "address": "0xb334a4eb0a2d6cc24fd451e779c002b9b33228c3",
                        "amount": "1",
                        "iconUrl": "https://assets.blocksec.com/nft/icon/nft_7366eb80-c093-49f5-a900-de5ab1d73a12.png",
                        "isERC1155": false,
                        "isERC721": true,
                        "sign": false,
                        "tokenID": "4728",
                        "value": ""
                    }
                ]
            }
        ]
    },
    "profile": {
        "basic_info": {
            "baseFee": "37.898792637",
            "blockNumber": 16721846,
            "callData": "0x9a1fc3a7000000000000000000000000000000000000000000000000000000000000004000000000000000000000000000000000000000000000000000000000000003e000000000000000000000000000000000000000000000000000000000000000e0000000000000000000000000000000000000000000000000000000000000001b8026ff956e8e166134cf0c2dbe181bb00ab8b595cc9922f7d74405f96fbdf7b90f17c17c4353522813dc45a36843ba3c57d68d6e72e54552a8f37d20a966e44d000000000000000000000000000000000000000000000000000000000000032000000000000000000000000000000000000000000000000000000000000000000000000000000000000000000000000000000000000000000000000000ff27b4000000000000000000000000f72096a29f6db80f383fb73fc24e596ba016a4df00000000000000000000000000000000000000000000000000000000000000010000000000000000000000000000000000dab4a563819e8fd93dba3b25bc3495000000000000000000000000b334a4eb0a2d6cc24fd451e779c002b9b33228c300000000000000000000000000000000000000000000000000000000000012780000000000000000000000000000000000000000000000000000000000000001000000000000000000000000000000000000000000000000000000000000000000000000000000000000000000000000000000000000000001d882cb9b2080000000000000000000000000000000000000000000000000000000000063fd0acf000000000000000000000000000000000000000000000000000000006406455300000000000000000000000000000000000000000000000000000000000001a0000000000000000000000000000000007eb45cd8b63a45e566c4adde3f3b7de00000000000000000000000000000000000000000000000000000000000000200000000000000000000000000000000000000000000000000000000000000000100000000000000000000000000000000000000000000000000000000000002ee000000000000000000000000c6e0d892e21af70f37373e2a855059ed90eda87b000000000000000000000000000000000000000000000000000000000000000101000000000000000000000000000000000000000000000000000000000000000000000000000000000000000000000000000000000000000000000000000060000000000000000000000000000000000000000000000000000000000000001c2ba30826f5e7504fd0d4c98261d1f149e4f3f6665c639d1a19698cc842dc05c66a171e709c403188872294b69fc215db9a33d8b39a71e928b876bbec0d9a48c300000000000000000000000000000000000000000000000000000000000000e000000000000000000000000000000000000000000000000000000000000000000000000000000000000000000000000000000000000000000000000000000000000000000000000000000000000000000000000000000000000000000000000000000000000000000000000000000000000000000000000000000000000002e000000000000000000000000000000000000000000000000000000000000000000000000000000000000000000000000000000000000000000000000000ff27b40000000000000000000000006ddefd4f09b2dafe21369bcb9d619e17c5dbc54400000000000000000000000000000000000000000000000000000000000000000000000000000000000000000000000000dab4a563819e8fd93dba3b25bc3495000000000000000000000000b334a4eb0a2d6cc24fd451e779c002b9b33228c300000000000000000000000000000000000000000000000000000000000012780000000000000000000000000000000000000000000000000000000000000001000000000000000000000000000000000000000000000000000000000000000000000000000000000000000000000000000000000000000001d882cb9b2080000000000000000000000000000000000000000000000000000000000063fd0ad00000000000000000000000000000000000000000000000000000000063fd1d7100000000000000000000000000000000000000000000000000000000000001a0000000000000000000000000000000009b33fd1799d5d06a1b1dc3251a0345ae00000000000000000000000000000000000000000000000000000000000001c00000000000000000000000000000000000000000000000000000000000000000000000000000000000000000000000000000000000000000000000000000000101000000000000000000000000000000000000000000000000000000000000000000000000000000000000000000000000000000000000000000000000000060000000000000000000000000000000000000000000000000000000000000001cac171f494d305b3b8c52db6e90cff924d657c159b113ae7f5620d2682da22b340da984f554aaf40d9a60f9053065d51c70dd0a8947b8afc0f024649c129ed014",
            "debugEnable": true,
            "errorInfo": "",
            "eventCount": 3,
            "feeRecipient": "0x388c818ca8b9251b393131c08a736a67ccb19297",
            "formatValue": "0.133",
            "gasLimit": 426419,
            "gasPrice": "39.398792637",
            "gasUsed": 254359,
            "intTxnCount": 16,
            "internalRevert": false,
            "internalRevertMessage": "",
            "isContractCreation": false,
            "isFlashloan": false,
            "maxFee": "61.01972565",
            "nonce": 148,
            "overwritedBlockNumber": -1,
            "priorityFee": "1.5",
            "receiver": "0x000000000000ad05ccc4f10045630fb830b95127",
            "revertMessage": "",
            "sender": "0x6ddefd4f09b2dafe21369bcb9d619e17c5dbc544",
            "simulationEnable": true,
            "sourceTxnHash": "0xb0ce7c6bec30c60a86a42e2e99d435610c4bec4f10e5827986392fb40f9e4a33",
            "status": true,
            "timestamp": "2023-02-27T20:15:47Z",
            "transactionFee": "0.010021437496354683",
            "txnHash": "0xb0ce7c6bec30c60a86a42e2e99d435610c4bec4f10e5827986392fb40f9e4a33",
            "txnIndex": 107,
            "type": 2,
            "value": "133000000000000000"
        },
        "fund_flow": [
            {
                "amount": "0.133",
                "from": "0x6ddefd4f09b2dafe21369bcb9d619e17c5dbc544",
                "id": 1,
                "isERC1155": false,
                "isERC721": false,
                "isReverted": false,
                "order": 1,
                "to": "0x000000000000ad05ccc4f10045630fb830b95127",
                "token": "0xeeeeeeeeeeeeeeeeeeeeeeeeeeeeeeeeeeeeeeee"
            },
            {
                "amount": "0.009975",
                "from": "0x000000000000ad05ccc4f10045630fb830b95127",
                "id": 2,
                "isERC1155": false,
                "isERC721": false,
                "isReverted": false,
                "order": 2,
                "to": "0xc6e0d892e21af70f37373e2a855059ed90eda87b",
                "token": "0xeeeeeeeeeeeeeeeeeeeeeeeeeeeeeeeeeeeeeeee"
            },
            {
                "amount": "0.123025",
                "from": "0x000000000000ad05ccc4f10045630fb830b95127",
                "id": 3,
                "isERC1155": false,
                "isERC721": false,
                "isReverted": false,
                "order": 3,
                "to": "0xf72096a29f6db80f383fb73fc24e596ba016a4df",
                "token": "0xeeeeeeeeeeeeeeeeeeeeeeeeeeeeeeeeeeeeeeee"
            },
            {
                "amount": "1",
                "from": "0xf72096a29f6db80f383fb73fc24e596ba016a4df",
                "id": 4,
                "isERC1155": false,
                "isERC721": true,
                "isReverted": false,
                "order": 4,
                "to": "0x6ddefd4f09b2dafe21369bcb9d619e17c5dbc544",
                "token": "0xb334a4eb0a2d6cc24fd451e779c002b9b33228c3",
                "tokenID": "4728"
            }
        ],
        "token_infos": [
            {
                "address": "0xc02aaa39b223fe8d0a0e5c4f27ead9083c756cc2",
                "decimals": 18
            },
            {
                "address": "0xeeeeeeeeeeeeeeeeeeeeeeeeeeeeeeeeeeeeeeee",
                "decimals": 18
            }
        ]
    },
    "address_label": {
        "labels": [
            {
                "address": "0x0000000000dab4a563819e8fd93dba3b25bc3495",
                "label": "StandardPolicyERC721"
            },
            {
                "address": "0x388c818ca8b9251b393131c08a736a67ccb19297",
                "label": "LidoExecutionLayerRewardsVault"
            },
            {
                "address": "0x0000000000000000000000000000000000000002",
                "label": "Precompiled"
            },
            {
                "address": "0x00000000000111abe46ff893f3b2fdf1f759a8a8",
                "label": "Blur: Execution Delegate"
            },
            {
                "address": "0x000000000000aaeb6d7670e522a718067333cd4e",
                "label": "OperatorFilterRegistry"
            },
            {
                "address": "0x0000000000000000000000000000000000000003",
                "label": "Precompiled"
            },
            {
                "address": "0x0000000000000000000000000000000000000004",
                "label": "Precompiled"
            },
            {
                "address": "0xb334a4eb0a2d6cc24fd451e779c002b9b33228c3",
                "label": "Supercute World (SUPERCUTE)"
            },
            {
                "address": "0x0000000000000000000000000000000000000000",
                "label": "Null Address"
            },
            {
                "address": "0xeeeeeeeeeeeeeeeeeeeeeeeeeeeeeeeeeeeeeeee",
                "label": "Ether"
            },
            {
                "address": "0x983e96c26782a8db500a6fb8ab47a52e1b44862d",
                "label": "BlurExchange"
            },
            {
                "address": "0x3a35a3102b5c6bd1e4d3237248be071ef53c8331",
                "label": "PolicyManager"
            },
            {
                "address": "0xc6e0d892e21af70f37373e2a855059ed90eda87b",
                "label": "TrustForwarderPaymentSplitter"
            },
            {
                "address": "0x0000000000000000000000000000000000000001",
                "label": "Precompiled"
            },
            {
                "address": "0x000000000000ad05ccc4f10045630fb830b95127",
                "label": "Blur.io: Marketplace"
            }
        ]
    },
    "trace": {
        "accountLabels": null,
        "dataMap": {
            "-1": {
                "invocation": {
                    "address": "0x6ddefd4f09b2dafe21369bcb9d619e17c5dbc544",
                    "callData": "",
                    "decodedMethod": null,
                    "errorInfo": "",
                    "fromAddress": "",
                    "gasUsed": 0,
                    "id": -1,
                    "methodDecoded": false,
                    "operation": "",
                    "output": "",
                    "revert": false,
                    "revertMessage": "",
                    "selector": "",
                    "status": false,
                    "value": ""
                },
                "nodeType": 0
            },
            "0": {
                "invocation": {
                    "address": "0x000000000000ad05ccc4f10045630fb830b95127",
                    "callData": "0x000000000000000000000000000000000000000000000000000000000000004000000000000000000000000000000000000000000000000000000000000003e000000000000000000000000000000000000000000000000000000000000000e0000000000000000000000000000000000000000000000000000000000000001b8026ff956e8e166134cf0c2dbe181bb00ab8b595cc9922f7d74405f96fbdf7b90f17c17c4353522813dc45a36843ba3c57d68d6e72e54552a8f37d20a966e44d000000000000000000000000000000000000000000000000000000000000032000000000000000000000000000000000000000000000000000000000000000000000000000000000000000000000000000000000000000000000000000ff27b4000000000000000000000000f72096a29f6db80f383fb73fc24e596ba016a4df00000000000000000000000000000000000000000000000000000000000000010000000000000000000000000000000000dab4a563819e8fd93dba3b25bc3495000000000000000000000000b334a4eb0a2d6cc24fd451e779c002b9b33228c300000000000000000000000000000000000000000000000000000000000012780000000000000000000000000000000000000000000000000000000000000001000000000000000000000000000000000000000000000000000000000000000000000000000000000000000000000000000000000000000001d882cb9b2080000000000000000000000000000000000000000000000000000000000063fd0acf000000000000000000000000000000000000000000000000000000006406455300000000000000000000000000000000000000000000000000000000000001a0000000000000000000000000000000007eb45cd8b63a45e566c4adde3f3b7de00000000000000000000000000000000000000000000000000000000000000200000000000000000000000000000000000000000000000000000000000000000100000000000000000000000000000000000000000000000000000000000002ee000000000000000000000000c6e0d892e21af70f37373e2a855059ed90eda87b000000000000000000000000000000000000000000000000000000000000000101000000000000000000000000000000000000000000000000000000000000000000000000000000000000000000000000000000000000000000000000000060000000000000000000000000000000000000000000000000000000000000001c2ba30826f5e7504fd0d4c98261d1f149e4f3f6665c639d1a19698cc842dc05c66a171e709c403188872294b69fc215db9a33d8b39a71e928b876bbec0d9a48c300000000000000000000000000000000000000000000000000000000000000e000000000000000000000000000000000000000000000000000000000000000000000000000000000000000000000000000000000000000000000000000000000000000000000000000000000000000000000000000000000000000000000000000000000000000000000000000000000000000000000000000000000000002e000000000000000000000000000000000000000000000000000000000000000000000000000000000000000000000000000000000000000000000000000ff27b40000000000000000000000006ddefd4f09b2dafe21369bcb9d619e17c5dbc54400000000000000000000000000000000000000000000000000000000000000000000000000000000000000000000000000dab4a563819e8fd93dba3b25bc3495000000000000000000000000b334a4eb0a2d6cc24fd451e779c002b9b33228c300000000000000000000000000000000000000000000000000000000000012780000000000000000000000000000000000000000000000000000000000000001000000000000000000000000000000000000000000000000000000000000000000000000000000000000000000000000000000000000000001d882cb9b2080000000000000000000000000000000000000000000000000000000000063fd0ad00000000000000000000000000000000000000000000000000000000063fd1d7100000000000000000000000000000000000000000000000000000000000001a0000000000000000000000000000000009b33fd1799d5d06a1b1dc3251a0345ae00000000000000000000000000000000000000000000000000000000000001c00000000000000000000000000000000000000000000000000000000000000000000000000000000000000000000000000000000000000000000000000000000101000000000000000000000000000000000000000000000000000000000000000000000000000000000000000000000000000000000000000000000000000060000000000000000000000000000000000000000000000000000000000000001cac171f494d305b3b8c52db6e90cff924d657c159b113ae7f5620d2682da22b340da984f554aaf40d9a60f9053065d51c70dd0a8947b8afc0f024649c129ed014",
                    "decodedMethod": {
                        "callParams": [
                            {
                                "name": "sell",
                                "type": "((address,uint8,address,address,uint256,uint256,address,uint256,uint256,uint256,(uint16,address)[],uint256,bytes),uint8,bytes32,bytes32,bytes,uint8,uint256)",
                                "value": [
                                    {
                                        "name": "order",
                                        "type": "(address,uint8,address,address,uint256,uint256,address,uint256,uint256,uint256,(uint16,address)[],uint256,bytes)",
                                        "value": [
                                            {
                                                "name": "trader",
                                                "type": "address",
                                                "value": "0xf72096a29f6db80f383fb73fc24e596ba016a4df"
                                            },
                                            {
                                                "name": "side",
                                                "type": "uint8",
                                                "value": "1"
                                            },
                                            {
                                                "name": "matchingPolicy",
                                                "type": "address",
                                                "value": "0x0000000000dab4a563819e8fd93dba3b25bc3495"
                                            },
                                            {
                                                "name": "collection",
                                                "type": "address",
                                                "value": "0xb334a4eb0a2d6cc24fd451e779c002b9b33228c3"
                                            },
                                            {
                                                "name": "tokenId",
                                                "type": "uint256",
                                                "value": "4,728"
                                            },
                                            {
                                                "name": "amount",
                                                "type": "uint256",
                                                "value": "1"
                                            },
                                            {
                                                "name": "paymentToken",
                                                "type": "address",
                                                "value": "0x0000000000000000000000000000000000000000"
                                            },
                                            {
                                                "name": "price",
                                                "type": "uint256",
                                                "value": "133,000,000,000,000,000"
                                            },
                                            {
                                                "name": "listingTime",
                                                "type": "uint256",
                                                "value": "1,677,527,759"
                                            },
                                            {
                                                "name": "expirationTime",
                                                "type": "uint256",
                                                "value": "1,678,132,563"
                                            },
                                            {
                                                "name": "fees",
                                                "type": "(uint16,address)[]",
                                                "value": [
                                                    [
                                                        {
                                                            "name": "rate",
                                                            "type": "uint16",
                                                            "value": "750"
                                                        },
                                                        {
                                                            "name": "recipient",
                                                            "type": "address",
                                                            "value": "0xc6e0d892e21af70f37373e2a855059ed90eda87b"
                                                        }
                                                    ]
                                                ]
                                            },
                                            {
                                                "name": "salt",
                                                "type": "uint256",
                                                "value": "168,419,224,054,799,027,553,810,499,029,603,941,856"
                                            },
                                            {
                                                "name": "extraParams",
                                                "type": "bytes",
                                                "value": "0x01"
                                            }
                                        ]
                                    },
                                    {
                                        "name": "v",
                                        "type": "uint8",
                                        "value": "27"
                                    },
                                    {
                                        "name": "r",
                                        "type": "bytes32",
                                        "value": "0x8026ff956e8e166134cf0c2dbe181bb00ab8b595cc9922f7d74405f96fbdf7b9"
                                    },
                                    {
                                        "name": "s",
                                        "type": "bytes32",
                                        "value": "0x0f17c17c4353522813dc45a36843ba3c57d68d6e72e54552a8f37d20a966e44d"
                                    },
                                    {
                                        "name": "extraSignature",
                                        "type": "bytes",
                                        "value": "0x000000000000000000000000000000000000000000000000000000000000001c2ba30826f5e7504fd0d4c98261d1f149e4f3f6665c639d1a19698cc842dc05c66a171e709c403188872294b69fc215db9a33d8b39a71e928b876bbec0d9a48c3"
                                    },
                                    {
                                        "name": "signatureVersion",
                                        "type": "uint8",
                                        "value": "0"
                                    },
                                    {
                                        "name": "blockNumber",
                                        "type": "uint256",
                                        "value": "16,721,844"
                                    }
                                ]
                            },
                            {
                                "name": "buy",
                                "type": "((address,uint8,address,address,uint256,uint256,address,uint256,uint256,uint256,(uint16,address)[],uint256,bytes),uint8,bytes32,bytes32,bytes,uint8,uint256)",
                                "value": [
                                    {
                                        "name": "order",
                                        "type": "(address,uint8,address,address,uint256,uint256,address,uint256,uint256,uint256,(uint16,address)[],uint256,bytes)",
                                        "value": [
                                            {
                                                "name": "trader",
                                                "type": "address",
                                                "value": "0x6ddefd4f09b2dafe21369bcb9d619e17c5dbc544"
                                            },
                                            {
                                                "name": "side",
                                                "type": "uint8",
                                                "value": "0"
                                            },
                                            {
                                                "name": "matchingPolicy",
                                                "type": "address",
                                                "value": "0x0000000000dab4a563819e8fd93dba3b25bc3495"
                                            },
                                            {
                                                "name": "collection",
                                                "type": "address",
                                                "value": "0xb334a4eb0a2d6cc24fd451e779c002b9b33228c3"
                                            },
                                            {
                                                "name": "tokenId",
                                                "type": "uint256",
                                                "value": "4,728"
                                            },
                                            {
                                                "name": "amount",
                                                "type": "uint256",
                                                "value": "1"
                                            },
                                            {
                                                "name": "paymentToken",
                                                "type": "address",
                                                "value": "0x0000000000000000000000000000000000000000"
                                            },
                                            {
                                                "name": "price",
                                                "type": "uint256",
                                                "value": "133,000,000,000,000,000"
                                            },
                                            {
                                                "name": "listingTime",
                                                "type": "uint256",
                                                "value": "1,677,527,760"
                                            },
                                            {
                                                "name": "expirationTime",
                                                "type": "uint256",
                                                "value": "1,677,532,529"
                                            },
                                            {
                                                "name": "fees",
                                                "type": "(uint16,address)[]",
                                                "value": []
                                            },
                                            {
                                                "name": "salt",
                                                "type": "uint256",
                                                "value": "206,300,279,805,934,390,121,623,125,568,316,982,702"
                                            },
                                            {
                                                "name": "extraParams",
                                                "type": "bytes",
                                                "value": "0x01"
                                            }
                                        ]
                                    },
                                    {
                                        "name": "v",
                                        "type": "uint8",
                                        "value": "0"
                                    },
                                    {
                                        "name": "r",
                                        "type": "bytes32",
                                        "value": "0x0000000000000000000000000000000000000000000000000000000000000000"
                                    },
                                    {
                                        "name": "s",
                                        "type": "bytes32",
                                        "value": "0x0000000000000000000000000000000000000000000000000000000000000000"
                                    },
                                    {
                                        "name": "extraSignature",
                                        "type": "bytes",
                                        "value": "0x000000000000000000000000000000000000000000000000000000000000001cac171f494d305b3b8c52db6e90cff924d657c159b113ae7f5620d2682da22b340da984f554aaf40d9a60f9053065d51c70dd0a8947b8afc0f024649c129ed014"
                                    },
                                    {
                                        "name": "signatureVersion",
                                        "type": "uint8",
                                        "value": "0"
                                    },
                                    {
                                        "name": "blockNumber",
                                        "type": "uint256",
                                        "value": "16,721,844"
                                    }
                                ]
                            }
                        ],
                        "constructorArguments": "",
                        "name": "execute",
                        "returnParams": [],
                        "signature": "execute(((address,uint8,address,address,uint256,uint256,address,uint256,uint256,uint256,(uint16,address)[],uint256,bytes),uint8,bytes32,bytes32,bytes,uint8,uint256),((address,uint8,address,address,uint256,uint256,address,uint256,uint256,uint256,(uint16,address)[],uint256,bytes),uint8,bytes32,bytes32,bytes,uint8,uint256))"
                    },
                    "errorInfo": "",
                    "fromAddress": "0x6ddefd4f09b2dafe21369bcb9d619e17c5dbc544",
                    "gasUsed": 254359,
                    "id": 0,
                    "methodDecoded": true,
                    "operation": "CALL",
                    "output": "",
                    "revert": false,
                    "revertMessage": "",
                    "selector": "0x9a1fc3a7",
                    "status": true,
                    "value": "0.133"
                },
                "nodeType": 0
            },
            "1": {
                "invocation": {
                    "address": "0x983e96c26782a8db500a6fb8ab47a52e1b44862d",
                    "callData": "0x000000000000000000000000000000000000000000000000000000000000004000000000000000000000000000000000000000000000000000000000000003e000000000000000000000000000000000000000000000000000000000000000e0000000000000000000000000000000000000000000000000000000000000001b8026ff956e8e166134cf0c2dbe181bb00ab8b595cc9922f7d74405f96fbdf7b90f17c17c4353522813dc45a36843ba3c57d68d6e72e54552a8f37d20a966e44d000000000000000000000000000000000000000000000000000000000000032000000000000000000000000000000000000000000000000000000000000000000000000000000000000000000000000000000000000000000000000000ff27b4000000000000000000000000f72096a29f6db80f383fb73fc24e596ba016a4df00000000000000000000000000000000000000000000000000000000000000010000000000000000000000000000000000dab4a563819e8fd93dba3b25bc3495000000000000000000000000b334a4eb0a2d6cc24fd451e779c002b9b33228c300000000000000000000000000000000000000000000000000000000000012780000000000000000000000000000000000000000000000000000000000000001000000000000000000000000000000000000000000000000000000000000000000000000000000000000000000000000000000000000000001d882cb9b2080000000000000000000000000000000000000000000000000000000000063fd0acf000000000000000000000000000000000000000000000000000000006406455300000000000000000000000000000000000000000000000000000000000001a0000000000000000000000000000000007eb45cd8b63a45e566c4adde3f3b7de00000000000000000000000000000000000000000000000000000000000000200000000000000000000000000000000000000000000000000000000000000000100000000000000000000000000000000000000000000000000000000000002ee000000000000000000000000c6e0d892e21af70f37373e2a855059ed90eda87b000000000000000000000000000000000000000000000000000000000000000101000000000000000000000000000000000000000000000000000000000000000000000000000000000000000000000000000000000000000000000000000060000000000000000000000000000000000000000000000000000000000000001c2ba30826f5e7504fd0d4c98261d1f149e4f3f6665c639d1a19698cc842dc05c66a171e709c403188872294b69fc215db9a33d8b39a71e928b876bbec0d9a48c300000000000000000000000000000000000000000000000000000000000000e000000000000000000000000000000000000000000000000000000000000000000000000000000000000000000000000000000000000000000000000000000000000000000000000000000000000000000000000000000000000000000000000000000000000000000000000000000000000000000000000000000000000002e000000000000000000000000000000000000000000000000000000000000000000000000000000000000000000000000000000000000000000000000000ff27b40000000000000000000000006ddefd4f09b2dafe21369bcb9d619e17c5dbc54400000000000000000000000000000000000000000000000000000000000000000000000000000000000000000000000000dab4a563819e8fd93dba3b25bc3495000000000000000000000000b334a4eb0a2d6cc24fd451e779c002b9b33228c300000000000000000000000000000000000000000000000000000000000012780000000000000000000000000000000000000000000000000000000000000001000000000000000000000000000000000000000000000000000000000000000000000000000000000000000000000000000000000000000001d882cb9b2080000000000000000000000000000000000000000000000000000000000063fd0ad00000000000000000000000000000000000000000000000000000000063fd1d7100000000000000000000000000000000000000000000000000000000000001a0000000000000000000000000000000009b33fd1799d5d06a1b1dc3251a0345ae00000000000000000000000000000000000000000000000000000000000001c00000000000000000000000000000000000000000000000000000000000000000000000000000000000000000000000000000000000000000000000000000000101000000000000000000000000000000000000000000000000000000000000000000000000000000000000000000000000000000000000000000000000000060000000000000000000000000000000000000000000000000000000000000001cac171f494d305b3b8c52db6e90cff924d657c159b113ae7f5620d2682da22b340da984f554aaf40d9a60f9053065d51c70dd0a8947b8afc0f024649c129ed014",
                    "decodedMethod": {
                        "callParams": [
                            {
                                "name": "sell",
                                "type": "((address,uint8,address,address,uint256,uint256,address,uint256,uint256,uint256,(uint16,address)[],uint256,bytes),uint8,bytes32,bytes32,bytes,uint8,uint256)",
                                "value": [
                                    {
                                        "name": "order",
                                        "type": "(address,uint8,address,address,uint256,uint256,address,uint256,uint256,uint256,(uint16,address)[],uint256,bytes)",
                                        "value": [
                                            {
                                                "name": "trader",
                                                "type": "address",
                                                "value": "0xf72096a29f6db80f383fb73fc24e596ba016a4df"
                                            },
                                            {
                                                "name": "side",
                                                "type": "uint8",
                                                "value": "1"
                                            },
                                            {
                                                "name": "matchingPolicy",
                                                "type": "address",
                                                "value": "0x0000000000dab4a563819e8fd93dba3b25bc3495"
                                            },
                                            {
                                                "name": "collection",
                                                "type": "address",
                                                "value": "0xb334a4eb0a2d6cc24fd451e779c002b9b33228c3"
                                            },
                                            {
                                                "name": "tokenId",
                                                "type": "uint256",
                                                "value": "4,728"
                                            },
                                            {
                                                "name": "amount",
                                                "type": "uint256",
                                                "value": "1"
                                            },
                                            {
                                                "name": "paymentToken",
                                                "type": "address",
                                                "value": "0x0000000000000000000000000000000000000000"
                                            },
                                            {
                                                "name": "price",
                                                "type": "uint256",
                                                "value": "133,000,000,000,000,000"
                                            },
                                            {
                                                "name": "listingTime",
                                                "type": "uint256",
                                                "value": "1,677,527,759"
                                            },
                                            {
                                                "name": "expirationTime",
                                                "type": "uint256",
                                                "value": "1,678,132,563"
                                            },
                                            {
                                                "name": "fees",
                                                "type": "(uint16,address)[]",
                                                "value": [
                                                    [
                                                        {
                                                            "name": "rate",
                                                            "type": "uint16",
                                                            "value": "750"
                                                        },
                                                        {
                                                            "name": "recipient",
                                                            "type": "address",
                                                            "value": "0xc6e0d892e21af70f37373e2a855059ed90eda87b"
                                                        }
                                                    ]
                                                ]
                                            },
                                            {
                                                "name": "salt",
                                                "type": "uint256",
                                                "value": "168,419,224,054,799,027,553,810,499,029,603,941,856"
                                            },
                                            {
                                                "name": "extraParams",
                                                "type": "bytes",
                                                "value": "0x01"
                                            }
                                        ]
                                    },
                                    {
                                        "name": "v",
                                        "type": "uint8",
                                        "value": "27"
                                    },
                                    {
                                        "name": "r",
                                        "type": "bytes32",
                                        "value": "0x8026ff956e8e166134cf0c2dbe181bb00ab8b595cc9922f7d74405f96fbdf7b9"
                                    },
                                    {
                                        "name": "s",
                                        "type": "bytes32",
                                        "value": "0x0f17c17c4353522813dc45a36843ba3c57d68d6e72e54552a8f37d20a966e44d"
                                    },
                                    {
                                        "name": "extraSignature",
                                        "type": "bytes",
                                        "value": "0x000000000000000000000000000000000000000000000000000000000000001c2ba30826f5e7504fd0d4c98261d1f149e4f3f6665c639d1a19698cc842dc05c66a171e709c403188872294b69fc215db9a33d8b39a71e928b876bbec0d9a48c3"
                                    },
                                    {
                                        "name": "signatureVersion",
                                        "type": "uint8",
                                        "value": "0"
                                    },
                                    {
                                        "name": "blockNumber",
                                        "type": "uint256",
                                        "value": "16,721,844"
                                    }
                                ]
                            },
                            {
                                "name": "buy",
                                "type": "((address,uint8,address,address,uint256,uint256,address,uint256,uint256,uint256,(uint16,address)[],uint256,bytes),uint8,bytes32,bytes32,bytes,uint8,uint256)",
                                "value": [
                                    {
                                        "name": "order",
                                        "type": "(address,uint8,address,address,uint256,uint256,address,uint256,uint256,uint256,(uint16,address)[],uint256,bytes)",
                                        "value": [
                                            {
                                                "name": "trader",
                                                "type": "address",
                                                "value": "0x6ddefd4f09b2dafe21369bcb9d619e17c5dbc544"
                                            },
                                            {
                                                "name": "side",
                                                "type": "uint8",
                                                "value": "0"
                                            },
                                            {
                                                "name": "matchingPolicy",
                                                "type": "address",
                                                "value": "0x0000000000dab4a563819e8fd93dba3b25bc3495"
                                            },
                                            {
                                                "name": "collection",
                                                "type": "address",
                                                "value": "0xb334a4eb0a2d6cc24fd451e779c002b9b33228c3"
                                            },
                                            {
                                                "name": "tokenId",
                                                "type": "uint256",
                                                "value": "4,728"
                                            },
                                            {
                                                "name": "amount",
                                                "type": "uint256",
                                                "value": "1"
                                            },
                                            {
                                                "name": "paymentToken",
                                                "type": "address",
                                                "value": "0x0000000000000000000000000000000000000000"
                                            },
                                            {
                                                "name": "price",
                                                "type": "uint256",
                                                "value": "133,000,000,000,000,000"
                                            },
                                            {
                                                "name": "listingTime",
                                                "type": "uint256",
                                                "value": "1,677,527,760"
                                            },
                                            {
                                                "name": "expirationTime",
                                                "type": "uint256",
                                                "value": "1,677,532,529"
                                            },
                                            {
                                                "name": "fees",
                                                "type": "(uint16,address)[]",
                                                "value": []
                                            },
                                            {
                                                "name": "salt",
                                                "type": "uint256",
                                                "value": "206,300,279,805,934,390,121,623,125,568,316,982,702"
                                            },
                                            {
                                                "name": "extraParams",
                                                "type": "bytes",
                                                "value": "0x01"
                                            }
                                        ]
                                    },
                                    {
                                        "name": "v",
                                        "type": "uint8",
                                        "value": "0"
                                    },
                                    {
                                        "name": "r",
                                        "type": "bytes32",
                                        "value": "0x0000000000000000000000000000000000000000000000000000000000000000"
                                    },
                                    {
                                        "name": "s",
                                        "type": "bytes32",
                                        "value": "0x0000000000000000000000000000000000000000000000000000000000000000"
                                    },
                                    {
                                        "name": "extraSignature",
                                        "type": "bytes",
                                        "value": "0x000000000000000000000000000000000000000000000000000000000000001cac171f494d305b3b8c52db6e90cff924d657c159b113ae7f5620d2682da22b340da984f554aaf40d9a60f9053065d51c70dd0a8947b8afc0f024649c129ed014"
                                    },
                                    {
                                        "name": "signatureVersion",
                                        "type": "uint8",
                                        "value": "0"
                                    },
                                    {
                                        "name": "blockNumber",
                                        "type": "uint256",
                                        "value": "16,721,844"
                                    }
                                ]
                            }
                        ],
                        "constructorArguments": "",
                        "name": "execute",
                        "returnParams": [],
                        "signature": "execute(((address,uint8,address,address,uint256,uint256,address,uint256,uint256,uint256,(uint16,address)[],uint256,bytes),uint8,bytes32,bytes32,bytes,uint8,uint256),((address,uint8,address,address,uint256,uint256,address,uint256,uint256,uint256,(uint16,address)[],uint256,bytes),uint8,bytes32,bytes32,bytes,uint8,uint256))"
                    },
                    "errorInfo": "",
                    "fromAddress": "0x000000000000ad05ccc4f10045630fb830b95127",
                    "gasUsed": 275243,
                    "id": 1,
                    "methodDecoded": true,
                    "operation": "DELEGATECALL",
                    "output": "",
                    "revert": false,
                    "revertMessage": "",
                    "selector": "0x9a1fc3a7",
                    "status": true,
                    "value": "0.133"
                },
                "nodeType": 0
            },
            "10": {
                "invocation": {
                    "address": "0x00000000000111abe46ff893f3b2fdf1f759a8a8",
                    "callData": "0x000000000000000000000000b334a4eb0a2d6cc24fd451e779c002b9b33228c3000000000000000000000000f72096a29f6db80f383fb73fc24e596ba016a4df0000000000000000000000006ddefd4f09b2dafe21369bcb9d619e17c5dbc5440000000000000000000000000000000000000000000000000000000000001278",
                    "decodedMethod": {
                        "callParams": [
                            {
                                "name": "collection",
                                "type": "address",
                                "value": "0xb334a4eb0a2d6cc24fd451e779c002b9b33228c3"
                            },
                            {
                                "name": "from",
                                "type": "address",
                                "value": "0xf72096a29f6db80f383fb73fc24e596ba016a4df"
                            },
                            {
                                "name": "to",
                                "type": "address",
                                "value": "0x6ddefd4f09b2dafe21369bcb9d619e17c5dbc544"
                            },
                            {
                                "name": "tokenId",
                                "type": "uint256",
                                "value": "4,728"
                            }
                        ],
                        "constructorArguments": "",
                        "name": "transferERC721",
                        "returnParams": [],
                        "signature": "transferERC721(address,address,address,uint256)"
                    },
                    "errorInfo": "",
                    "fromAddress": "0x000000000000ad05ccc4f10045630fb830b95127",
                    "gasUsed": 55462,
                    "id": 10,
                    "methodDecoded": true,
                    "operation": "CALL",
                    "output": "",
                    "revert": false,
                    "revertMessage": "",
                    "selector": "0x789f93f6",
                    "status": true,
                    "value": "0"
                },
                "nodeType": 0
            },
            "11": {
                "invocation": {
                    "address": "0xb334a4eb0a2d6cc24fd451e779c002b9b33228c3",
                    "callData": "0x000000000000000000000000f72096a29f6db80f383fb73fc24e596ba016a4df0000000000000000000000006ddefd4f09b2dafe21369bcb9d619e17c5dbc5440000000000000000000000000000000000000000000000000000000000001278",
                    "decodedMethod": {
                        "callParams": [
                            {
                                "name": "_from",
                                "type": "address",
                                "value": "0xf72096a29f6db80f383fb73fc24e596ba016a4df"
                            },
                            {
                                "name": "_to",
                                "type": "address",
                                "value": "0x6ddefd4f09b2dafe21369bcb9d619e17c5dbc544"
                            },
                            {
                                "name": "_tokenId",
                                "type": "uint256",
                                "value": "4,728"
                            }
                        ],
                        "constructorArguments": "",
                        "name": "safeTransferFrom",
                        "returnParams": [],
                        "signature": "safeTransferFrom(address,address,uint256)"
                    },
                    "errorInfo": "",
                    "fromAddress": "0x00000000000111abe46ff893f3b2fdf1f759a8a8",
                    "gasUsed": 47541,
                    "id": 11,
                    "methodDecoded": true,
                    "operation": "CALL",
                    "output": "",
                    "revert": false,
                    "revertMessage": "",
                    "selector": "0x42842e0e",
                    "status": true,
                    "value": "0"
                },
                "nodeType": 0
            },
            "12": {
                "invocation": {
                    "address": "0x000000000000aaeb6d7670e522a718067333cd4e",
                    "callData": "0x000000000000000000000000b334a4eb0a2d6cc24fd451e779c002b9b33228c300000000000000000000000000000000000111abe46ff893f3b2fdf1f759a8a8",
                    "decodedMethod": {
                        "callParams": [
                            {
                                "name": "registrant",
                                "type": "address",
                                "value": "0xb334a4eb0a2d6cc24fd451e779c002b9b33228c3"
                            },
                            {
                                "name": "operator",
                                "type": "address",
                                "value": "0x00000000000111abe46ff893f3b2fdf1f759a8a8"
                            }
                        ],
                        "constructorArguments": "",
                        "name": "isOperatorAllowed",
                        "returnParams": [
                            {
                                "name": "",
                                "type": "bool",
                                "value": true
                            }
                        ],
                        "signature": "isOperatorAllowed(address,address)"
                    },
                    "errorInfo": "",
                    "fromAddress": "0xb334a4eb0a2d6cc24fd451e779c002b9b33228c3",
                    "gasUsed": 7627,
                    "id": 12,
                    "methodDecoded": true,
                    "operation": "STATICCALL",
                    "output": "0x0000000000000000000000000000000000000000000000000000000000000001",
                    "revert": false,
                    "revertMessage": "",
                    "selector": "0xc6171134",
                    "status": true,
                    "value": "0"
                },
                "nodeType": 0
            },
            "13": {
                "invocation": {
                    "address": "0x000000000000aaeb6d7670e522a718067333cd4e",
                    "callData": "0x000000000000000000000000b334a4eb0a2d6cc24fd451e779c002b9b33228c3000000000000000000000000f72096a29f6db80f383fb73fc24e596ba016a4df",
                    "decodedMethod": {
                        "callParams": [
                            {
                                "name": "registrant",
                                "type": "address",
                                "value": "0xb334a4eb0a2d6cc24fd451e779c002b9b33228c3"
                            },
                            {
                                "name": "operator",
                                "type": "address",
                                "value": "0xf72096a29f6db80f383fb73fc24e596ba016a4df"
                            }
                        ],
                        "constructorArguments": "",
                        "name": "isOperatorAllowed",
                        "returnParams": [
                            {
                                "name": "",
                                "type": "bool",
                                "value": true
                            }
                        ],
                        "signature": "isOperatorAllowed(address,address)"
                    },
                    "errorInfo": "",
                    "fromAddress": "0xb334a4eb0a2d6cc24fd451e779c002b9b33228c3",
                    "gasUsed": 3264,
                    "id": 13,
                    "methodDecoded": true,
                    "operation": "STATICCALL",
                    "output": "0x0000000000000000000000000000000000000000000000000000000000000001",
                    "revert": false,
                    "revertMessage": "",
                    "selector": "0xc6171134",
                    "status": true,
                    "value": "0"
                },
                "nodeType": 0
            },
            "14": {
                "invocation": {
                    "address": "0x000000000000aaeb6d7670e522a718067333cd4e",
                    "callData": "0x000000000000000000000000b334a4eb0a2d6cc24fd451e779c002b9b33228c300000000000000000000000000000000000111abe46ff893f3b2fdf1f759a8a8",
                    "decodedMethod": {
                        "callParams": [
                            {
                                "name": "registrant",
                                "type": "address",
                                "value": "0xb334a4eb0a2d6cc24fd451e779c002b9b33228c3"
                            },
                            {
                                "name": "operator",
                                "type": "address",
                                "value": "0x00000000000111abe46ff893f3b2fdf1f759a8a8"
                            }
                        ],
                        "constructorArguments": "",
                        "name": "isOperatorAllowed",
                        "returnParams": [
                            {
                                "name": "",
                                "type": "bool",
                                "value": true
                            }
                        ],
                        "signature": "isOperatorAllowed(address,address)"
                    },
                    "errorInfo": "",
                    "fromAddress": "0xb334a4eb0a2d6cc24fd451e779c002b9b33228c3",
                    "gasUsed": 1627,
                    "id": 14,
                    "methodDecoded": true,
                    "operation": "STATICCALL",
                    "output": "0x0000000000000000000000000000000000000000000000000000000000000001",
                    "revert": false,
                    "revertMessage": "",
                    "selector": "0xc6171134",
                    "status": true,
                    "value": "0"
                },
                "nodeType": 0
            },
            "15": {
                "invocation": {
                    "address": "0x000000000000aaeb6d7670e522a718067333cd4e",
                    "callData": "0x000000000000000000000000b334a4eb0a2d6cc24fd451e779c002b9b33228c3000000000000000000000000f72096a29f6db80f383fb73fc24e596ba016a4df",
                    "decodedMethod": {
                        "callParams": [
                            {
                                "name": "registrant",
                                "type": "address",
                                "value": "0xb334a4eb0a2d6cc24fd451e779c002b9b33228c3"
                            },
                            {
                                "name": "operator",
                                "type": "address",
                                "value": "0xf72096a29f6db80f383fb73fc24e596ba016a4df"
                            }
                        ],
                        "constructorArguments": "",
                        "name": "isOperatorAllowed",
                        "returnParams": [
                            {
                                "name": "",
                                "type": "bool",
                                "value": true
                            }
                        ],
                        "signature": "isOperatorAllowed(address,address)"
                    },
                    "errorInfo": "",
                    "fromAddress": "0xb334a4eb0a2d6cc24fd451e779c002b9b33228c3",
                    "gasUsed": 1264,
                    "id": 15,
                    "methodDecoded": true,
                    "operation": "STATICCALL",
                    "output": "0x0000000000000000000000000000000000000000000000000000000000000001",
                    "revert": false,
                    "revertMessage": "",
                    "selector": "0xc6171134",
                    "status": true,
                    "value": "0"
                },
                "nodeType": 0
            },
            "16": {
                "invocation": {
                    "address": "0x000000000000aaeb6d7670e522a718067333cd4e",
                    "callData": "0x000000000000000000000000b334a4eb0a2d6cc24fd451e779c002b9b33228c300000000000000000000000000000000000111abe46ff893f3b2fdf1f759a8a8",
                    "decodedMethod": {
                        "callParams": [
                            {
                                "name": "registrant",
                                "type": "address",
                                "value": "0xb334a4eb0a2d6cc24fd451e779c002b9b33228c3"
                            },
                            {
                                "name": "operator",
                                "type": "address",
                                "value": "0x00000000000111abe46ff893f3b2fdf1f759a8a8"
                            }
                        ],
                        "constructorArguments": "",
                        "name": "isOperatorAllowed",
                        "returnParams": [
                            {
                                "name": "",
                                "type": "bool",
                                "value": true
                            }
                        ],
                        "signature": "isOperatorAllowed(address,address)"
                    },
                    "errorInfo": "",
                    "fromAddress": "0xb334a4eb0a2d6cc24fd451e779c002b9b33228c3",
                    "gasUsed": 1627,
                    "id": 16,
                    "methodDecoded": true,
                    "operation": "STATICCALL",
                    "output": "0x0000000000000000000000000000000000000000000000000000000000000001",
                    "revert": false,
                    "revertMessage": "",
                    "selector": "0xc6171134",
                    "status": true,
                    "value": "0"
                },
                "nodeType": 0
            },
            "17": {
                "invocation": {
                    "address": "0x000000000000aaeb6d7670e522a718067333cd4e",
                    "callData": "0x000000000000000000000000b334a4eb0a2d6cc24fd451e779c002b9b33228c3000000000000000000000000f72096a29f6db80f383fb73fc24e596ba016a4df",
                    "decodedMethod": {
                        "callParams": [
                            {
                                "name": "registrant",
                                "type": "address",
                                "value": "0xb334a4eb0a2d6cc24fd451e779c002b9b33228c3"
                            },
                            {
                                "name": "operator",
                                "type": "address",
                                "value": "0xf72096a29f6db80f383fb73fc24e596ba016a4df"
                            }
                        ],
                        "constructorArguments": "",
                        "name": "isOperatorAllowed",
                        "returnParams": [
                            {
                                "name": "",
                                "type": "bool",
                                "value": true
                            }
                        ],
                        "signature": "isOperatorAllowed(address,address)"
                    },
                    "errorInfo": "",
                    "fromAddress": "0xb334a4eb0a2d6cc24fd451e779c002b9b33228c3",
                    "gasUsed": 1264,
                    "id": 17,
                    "methodDecoded": true,
                    "operation": "STATICCALL",
                    "output": "0x0000000000000000000000000000000000000000000000000000000000000001",
                    "revert": false,
                    "revertMessage": "",
                    "selector": "0xc6171134",
                    "status": true,
                    "value": "0"
                },
                "nodeType": 0
            },
            "18": {
                "event": {
                    "contract": "0xb334a4eb0a2d6cc24fd451e779c002b9b33228c3",
                    "decodedLog": {
                        "name": "Transfer",
                        "params": [
                            {
                                "name": "from",
                                "type": "address",
                                "value": "0xf72096a29f6db80f383fb73fc24e596ba016a4df"
                            },
                            {
                                "name": "to",
                                "type": "address",
                                "value": "0x6ddefd4f09b2dafe21369bcb9d619e17c5dbc544"
                            },
                            {
                                "decimalAvailable": true,
                                "name": "tokenId",
                                "type": "uint256",
                                "value": "4,728"
                            }
                        ],
                        "signature": "Transfer(address,address,uint256)"
                    },
                    "id": 18,
                    "logData": "0x",
                    "logDecoded": true,
                    "operation": "EVENT",
                    "revert": false,
                    "status": true,
                    "topics": [
                        "0xddf252ad1be2c89b69c2b068fc378daa952ba7f163c4a11628f55a4df523b3ef",
                        "0x000000000000000000000000f72096a29f6db80f383fb73fc24e596ba016a4df",
                        "0x0000000000000000000000006ddefd4f09b2dafe21369bcb9d619e17c5dbc544",
                        "0x0000000000000000000000000000000000000000000000000000000000001278"
                    ]
                },
                "nodeType": 1
            },
            "19": {
                "event": {
                    "contract": "0x000000000000ad05ccc4f10045630fb830b95127",
                    "decodedLog": {
                        "name": "OrdersMatched",
                        "params": [
                            {
                                "name": "maker",
                                "type": "address",
                                "value": "0xf72096a29f6db80f383fb73fc24e596ba016a4df"
                            },
                            {
                                "name": "taker",
                                "type": "address",
                                "value": "0x6ddefd4f09b2dafe21369bcb9d619e17c5dbc544"
                            },
                            {
                                "name": "sell",
                                "type": "(address,uint8,address,address,uint256,uint256,address,uint256,uint256,uint256,(uint16,address)[],uint256,bytes)",
                                "value": [
                                    {
                                        "name": "trader",
                                        "type": "address",
                                        "value": "0xf72096a29f6db80f383fb73fc24e596ba016a4df"
                                    },
                                    {
                                        "name": "side",
                                        "type": "uint8",
                                        "value": "1"
                                    },
                                    {
                                        "name": "matchingPolicy",
                                        "type": "address",
                                        "value": "0x0000000000dab4a563819e8fd93dba3b25bc3495"
                                    },
                                    {
                                        "name": "collection",
                                        "type": "address",
                                        "value": "0xb334a4eb0a2d6cc24fd451e779c002b9b33228c3"
                                    },
                                    {
                                        "name": "tokenId",
                                        "type": "uint256",
                                        "value": "4,728"
                                    },
                                    {
                                        "name": "amount",
                                        "type": "uint256",
                                        "value": "1"
                                    },
                                    {
                                        "name": "paymentToken",
                                        "type": "address",
                                        "value": "0x0000000000000000000000000000000000000000"
                                    },
                                    {
                                        "name": "price",
                                        "type": "uint256",
                                        "value": "133,000,000,000,000,000"
                                    },
                                    {
                                        "name": "listingTime",
                                        "type": "uint256",
                                        "value": "1,677,527,759"
                                    },
                                    {
                                        "name": "expirationTime",
                                        "type": "uint256",
                                        "value": "1,678,132,563"
                                    },
                                    {
                                        "name": "fees",
                                        "type": "(uint16,address)[]",
                                        "value": [
                                            [
                                                {
                                                    "name": "rate",
                                                    "type": "uint16",
                                                    "value": "750"
                                                },
                                                {
                                                    "name": "recipient",
                                                    "type": "address",
                                                    "value": "0xc6e0d892e21af70f37373e2a855059ed90eda87b"
                                                }
                                            ]
                                        ]
                                    },
                                    {
                                        "name": "salt",
                                        "type": "uint256",
                                        "value": "168,419,224,054,799,027,553,810,499,029,603,941,856"
                                    },
                                    {
                                        "name": "extraParams",
                                        "type": "bytes",
                                        "value": "0x01"
                                    }
                                ]
                            },
                            {
                                "name": "sellHash",
                                "type": "bytes32",
                                "value": "0xc1f9bc444dc335621d80e076c54ea4be0a9611b7e30111ab9faca8283416912a"
                            },
                            {
                                "name": "buy",
                                "type": "(address,uint8,address,address,uint256,uint256,address,uint256,uint256,uint256,(uint16,address)[],uint256,bytes)",
                                "value": [
                                    {
                                        "name": "trader",
                                        "type": "address",
                                        "value": "0x6ddefd4f09b2dafe21369bcb9d619e17c5dbc544"
                                    },
                                    {
                                        "name": "side",
                                        "type": "uint8",
                                        "value": "0"
                                    },
                                    {
                                        "name": "matchingPolicy",
                                        "type": "address",
                                        "value": "0x0000000000dab4a563819e8fd93dba3b25bc3495"
                                    },
                                    {
                                        "name": "collection",
                                        "type": "address",
                                        "value": "0xb334a4eb0a2d6cc24fd451e779c002b9b33228c3"
                                    },
                                    {
                                        "name": "tokenId",
                                        "type": "uint256",
                                        "value": "4,728"
                                    },
                                    {
                                        "name": "amount",
                                        "type": "uint256",
                                        "value": "1"
                                    },
                                    {
                                        "name": "paymentToken",
                                        "type": "address",
                                        "value": "0x0000000000000000000000000000000000000000"
                                    },
                                    {
                                        "name": "price",
                                        "type": "uint256",
                                        "value": "133,000,000,000,000,000"
                                    },
                                    {
                                        "name": "listingTime",
                                        "type": "uint256",
                                        "value": "1,677,527,760"
                                    },
                                    {
                                        "name": "expirationTime",
                                        "type": "uint256",
                                        "value": "1,677,532,529"
                                    },
                                    {
                                        "name": "fees",
                                        "type": "(uint16,address)[]",
                                        "value": []
                                    },
                                    {
                                        "name": "salt",
                                        "type": "uint256",
                                        "value": "206,300,279,805,934,390,121,623,125,568,316,982,702"
                                    },
                                    {
                                        "name": "extraParams",
                                        "type": "bytes",
                                        "value": "0x01"
                                    }
                                ]
                            },
                            {
                                "name": "buyHash",
                                "type": "bytes32",
                                "value": "0x0e26e874a61b9f5985a09e0ae95cb20fd3062d6f0803966233ff9f536e82ac5d"
                            }
                        ],
                        "signature": "OrdersMatched(address,address,(address,uint8,address,address,uint256,uint256,address,uint256,uint256,uint256,(uint16,address)[],uint256,bytes),bytes32,(address,uint8,address,address,uint256,uint256,address,uint256,uint256,uint256,(uint16,address)[],uint256,bytes),bytes32)"
                    },
                    "id": 19,
                    "logData": "0x0000000000000000000000000000000000000000000000000000000000000080c1f9bc444dc335621d80e076c54ea4be0a9611b7e30111ab9faca8283416912a00000000000000000000000000000000000000000000000000000000000002c00e26e874a61b9f5985a09e0ae95cb20fd3062d6f0803966233ff9f536e82ac5d000000000000000000000000f72096a29f6db80f383fb73fc24e596ba016a4df00000000000000000000000000000000000000000000000000000000000000010000000000000000000000000000000000dab4a563819e8fd93dba3b25bc3495000000000000000000000000b334a4eb0a2d6cc24fd451e779c002b9b33228c300000000000000000000000000000000000000000000000000000000000012780000000000000000000000000000000000000000000000000000000000000001000000000000000000000000000000000000000000000000000000000000000000000000000000000000000000000000000000000000000001d882cb9b2080000000000000000000000000000000000000000000000000000000000063fd0acf000000000000000000000000000000000000000000000000000000006406455300000000000000000000000000000000000000000000000000000000000001a0000000000000000000000000000000007eb45cd8b63a45e566c4adde3f3b7de00000000000000000000000000000000000000000000000000000000000000200000000000000000000000000000000000000000000000000000000000000000100000000000000000000000000000000000000000000000000000000000002ee000000000000000000000000c6e0d892e21af70f37373e2a855059ed90eda87b000000000000000000000000000000000000000000000000000000000000000101000000000000000000000000000000000000000000000000000000000000000000000000000000000000006ddefd4f09b2dafe21369bcb9d619e17c5dbc54400000000000000000000000000000000000000000000000000000000000000000000000000000000000000000000000000dab4a563819e8fd93dba3b25bc3495000000000000000000000000b334a4eb0a2d6cc24fd451e779c002b9b33228c300000000000000000000000000000000000000000000000000000000000012780000000000000000000000000000000000000000000000000000000000000001000000000000000000000000000000000000000000000000000000000000000000000000000000000000000000000000000000000000000001d882cb9b2080000000000000000000000000000000000000000000000000000000000063fd0ad00000000000000000000000000000000000000000000000000000000063fd1d7100000000000000000000000000000000000000000000000000000000000001a0000000000000000000000000000000009b33fd1799d5d06a1b1dc3251a0345ae00000000000000000000000000000000000000000000000000000000000001c0000000000000000000000000000000000000000000000000000000000000000000000000000000000000000000000000000000000000000000000000000000010100000000000000000000000000000000000000000000000000000000000000",
                    "logDecoded": true,
                    "operation": "EVENT",
                    "revert": false,
                    "status": true,
                    "topics": [
                        "0x61cbb2a3dee0b6064c2e681aadd61677fb4ef319f0b547508d495626f5a62f64",
                        "0x000000000000000000000000f72096a29f6db80f383fb73fc24e596ba016a4df",
                        "0x0000000000000000000000006ddefd4f09b2dafe21369bcb9d619e17c5dbc544"
                    ]
                },
                "nodeType": 1
            },
            "2": {
                "invocation": {
                    "address": "0x0000000000000000000000000000000000000001",
                    "callData": "0x9123d5cadf557e5f49b248804c02de6a7a6b582371c0d23c9b75fd41000000000000000000000000000000000000000000000000000000000000001c2ba30826f5e7504fd0d4c98261d1f149e4f3f6665c639d1a19698cc842dc05c66a171e709c403188872294b69fc215db9a33d8b39a71e928b876bbec0d9a48c3",
                    "decodedMethod": {
                        "callParams": [
                            {
                                "name": "hash",
                                "type": "bytes32",
                                "value": "0x515693d99123d5cadf557e5f49b248804c02de6a7a6b582371c0d23c9b75fd41"
                            },
                            {
                                "name": "v",
                                "type": "uint256",
                                "value": "28"
                            },
                            {
                                "name": "r",
                                "type": "bytes32",
                                "value": "0x2ba30826f5e7504fd0d4c98261d1f149e4f3f6665c639d1a19698cc842dc05c6"
                            },
                            {
                                "name": "s",
                                "type": "bytes32",
                                "value": "0x6a171e709c403188872294b69fc215db9a33d8b39a71e928b876bbec0d9a48c3"
                            }
                        ],
                        "constructorArguments": "",
                        "name": "ecrecover",
                        "returnParams": [
                            {
                                "name": "",
                                "type": "address",
                                "value": "0xd44feab097e5fee7fd54c9481f56b806f7f3ddc1"
                            }
                        ],
                        "signature": "ecrecover(bytes32,uint256,bytes32,bytes32)"
                    },
                    "errorInfo": "",
                    "fromAddress": "0x000000000000ad05ccc4f10045630fb830b95127",
                    "gasUsed": 3000,
                    "id": 2,
                    "methodDecoded": true,
                    "operation": "STATICCALL",
                    "output": "0x000000000000000000000000d44feab097e5fee7fd54c9481f56b806f7f3ddc1",
                    "revert": false,
                    "revertMessage": "",
                    "selector": "0x515693d9",
                    "status": true,
                    "value": "0"
                },
                "nodeType": 0
            },
            "3": {
                "invocation": {
                    "address": "0x0000000000000000000000000000000000000001",
                    "callData": "0xa6e97bf87af02a1735490146268e66f97eb9b2be384702877e2e5a2e000000000000000000000000000000000000000000000000000000000000001b8026ff956e8e166134cf0c2dbe181bb00ab8b595cc9922f7d74405f96fbdf7b90f17c17c4353522813dc45a36843ba3c57d68d6e72e54552a8f37d20a966e44d",
                    "decodedMethod": {
                        "callParams": [
                            {
                                "name": "hash",
                                "type": "bytes32",
                                "value": "0x3d05427ca6e97bf87af02a1735490146268e66f97eb9b2be384702877e2e5a2e"
                            },
                            {
                                "name": "v",
                                "type": "uint256",
                                "value": "27"
                            },
                            {
                                "name": "r",
                                "type": "bytes32",
                                "value": "0x8026ff956e8e166134cf0c2dbe181bb00ab8b595cc9922f7d74405f96fbdf7b9"
                            },
                            {
                                "name": "s",
                                "type": "bytes32",
                                "value": "0x0f17c17c4353522813dc45a36843ba3c57d68d6e72e54552a8f37d20a966e44d"
                            }
                        ],
                        "constructorArguments": "",
                        "name": "ecrecover",
                        "returnParams": [
                            {
                                "name": "",
                                "type": "address",
                                "value": "0xf72096a29f6db80f383fb73fc24e596ba016a4df"
                            }
                        ],
                        "signature": "ecrecover(bytes32,uint256,bytes32,bytes32)"
                    },
                    "errorInfo": "",
                    "fromAddress": "0x000000000000ad05ccc4f10045630fb830b95127",
                    "gasUsed": 3000,
                    "id": 3,
                    "methodDecoded": true,
                    "operation": "STATICCALL",
                    "output": "0x000000000000000000000000f72096a29f6db80f383fb73fc24e596ba016a4df",
                    "revert": false,
                    "revertMessage": "",
                    "selector": "0x3d05427c",
                    "status": true,
                    "value": "0"
                },
                "nodeType": 0
            },
            "4": {
                "invocation": {
                    "address": "0x0000000000000000000000000000000000000001",
                    "callData": "0xe7ddc1df4959d2031044bb1ba916f644e473c29de49febeff92a3ce6000000000000000000000000000000000000000000000000000000000000001cac171f494d305b3b8c52db6e90cff924d657c159b113ae7f5620d2682da22b340da984f554aaf40d9a60f9053065d51c70dd0a8947b8afc0f024649c129ed014",
                    "decodedMethod": {
                        "callParams": [
                            {
                                "name": "hash",
                                "type": "bytes32",
                                "value": "0xf8085cbce7ddc1df4959d2031044bb1ba916f644e473c29de49febeff92a3ce6"
                            },
                            {
                                "name": "v",
                                "type": "uint256",
                                "value": "28"
                            },
                            {
                                "name": "r",
                                "type": "bytes32",
                                "value": "0xac171f494d305b3b8c52db6e90cff924d657c159b113ae7f5620d2682da22b34"
                            },
                            {
                                "name": "s",
                                "type": "bytes32",
                                "value": "0x0da984f554aaf40d9a60f9053065d51c70dd0a8947b8afc0f024649c129ed014"
                            }
                        ],
                        "constructorArguments": "",
                        "name": "ecrecover",
                        "returnParams": [
                            {
                                "name": "",
                                "type": "address",
                                "value": "0xd44feab097e5fee7fd54c9481f56b806f7f3ddc1"
                            }
                        ],
                        "signature": "ecrecover(bytes32,uint256,bytes32,bytes32)"
                    },
                    "errorInfo": "",
                    "fromAddress": "0x000000000000ad05ccc4f10045630fb830b95127",
                    "gasUsed": 3000,
                    "id": 4,
                    "methodDecoded": true,
                    "operation": "STATICCALL",
                    "output": "0x000000000000000000000000d44feab097e5fee7fd54c9481f56b806f7f3ddc1",
                    "revert": false,
                    "revertMessage": "",
                    "selector": "0xf8085cbc",
                    "status": true,
                    "value": "0"
                },
                "nodeType": 0
            },
            "5": {
                "invocation": {
                    "address": "0x3a35a3102b5c6bd1e4d3237248be071ef53c8331",
                    "callData": "0x0000000000000000000000000000000000dab4a563819e8fd93dba3b25bc3495",
                    "decodedMethod": {
                        "callParams": [
                            {
                                "name": "policy",
                                "type": "address",
                                "value": "0x0000000000dab4a563819e8fd93dba3b25bc3495"
                            }
                        ],
                        "constructorArguments": "",
                        "name": "isPolicyWhitelisted",
                        "returnParams": [
                            {
                                "name": "",
                                "type": "bool",
                                "value": true
                            }
                        ],
                        "signature": "isPolicyWhitelisted(address)"
                    },
                    "errorInfo": "",
                    "fromAddress": "0x000000000000ad05ccc4f10045630fb830b95127",
                    "gasUsed": 2666,
                    "id": 5,
                    "methodDecoded": true,
                    "operation": "STATICCALL",
                    "output": "0x0000000000000000000000000000000000000000000000000000000000000001",
                    "revert": false,
                    "revertMessage": "",
                    "selector": "0x874516cd",
                    "status": true,
                    "value": "0"
                },
                "nodeType": 0
            },
            "6": {
                "invocation": {
                    "address": "0x0000000000dab4a563819e8fd93dba3b25bc3495",
                    "callData": "0x00000000000000000000000000000000000000000000000000000000000000400000000000000000000000000000000000000000000000000000000000000280000000000000000000000000f72096a29f6db80f383fb73fc24e596ba016a4df00000000000000000000000000000000000000000000000000000000000000010000000000000000000000000000000000dab4a563819e8fd93dba3b25bc3495000000000000000000000000b334a4eb0a2d6cc24fd451e779c002b9b33228c300000000000000000000000000000000000000000000000000000000000012780000000000000000000000000000000000000000000000000000000000000001000000000000000000000000000000000000000000000000000000000000000000000000000000000000000000000000000000000000000001d882cb9b2080000000000000000000000000000000000000000000000000000000000063fd0acf000000000000000000000000000000000000000000000000000000006406455300000000000000000000000000000000000000000000000000000000000001a0000000000000000000000000000000007eb45cd8b63a45e566c4adde3f3b7de00000000000000000000000000000000000000000000000000000000000000200000000000000000000000000000000000000000000000000000000000000000100000000000000000000000000000000000000000000000000000000000002ee000000000000000000000000c6e0d892e21af70f37373e2a855059ed90eda87b000000000000000000000000000000000000000000000000000000000000000101000000000000000000000000000000000000000000000000000000000000000000000000000000000000006ddefd4f09b2dafe21369bcb9d619e17c5dbc54400000000000000000000000000000000000000000000000000000000000000000000000000000000000000000000000000dab4a563819e8fd93dba3b25bc3495000000000000000000000000b334a4eb0a2d6cc24fd451e779c002b9b33228c300000000000000000000000000000000000000000000000000000000000012780000000000000000000000000000000000000000000000000000000000000001000000000000000000000000000000000000000000000000000000000000000000000000000000000000000000000000000000000000000001d882cb9b2080000000000000000000000000000000000000000000000000000000000063fd0ad00000000000000000000000000000000000000000000000000000000063fd1d7100000000000000000000000000000000000000000000000000000000000001a0000000000000000000000000000000009b33fd1799d5d06a1b1dc3251a0345ae00000000000000000000000000000000000000000000000000000000000001c0000000000000000000000000000000000000000000000000000000000000000000000000000000000000000000000000000000000000000000000000000000010100000000000000000000000000000000000000000000000000000000000000",
                    "decodedMethod": {
                        "callParams": [
                            {
                                "name": "makerAsk",
                                "type": "(address,uint8,address,address,uint256,uint256,address,uint256,uint256,uint256,(uint16,address)[],uint256,bytes)",
                                "value": [
                                    {
                                        "name": "trader",
                                        "type": "address",
                                        "value": "0xf72096a29f6db80f383fb73fc24e596ba016a4df"
                                    },
                                    {
                                        "name": "side",
                                        "type": "uint8",
                                        "value": "1"
                                    },
                                    {
                                        "name": "matchingPolicy",
                                        "type": "address",
                                        "value": "0x0000000000dab4a563819e8fd93dba3b25bc3495"
                                    },
                                    {
                                        "name": "collection",
                                        "type": "address",
                                        "value": "0xb334a4eb0a2d6cc24fd451e779c002b9b33228c3"
                                    },
                                    {
                                        "name": "tokenId",
                                        "type": "uint256",
                                        "value": "4,728"
                                    },
                                    {
                                        "name": "amount",
                                        "type": "uint256",
                                        "value": "1"
                                    },
                                    {
                                        "name": "paymentToken",
                                        "type": "address",
                                        "value": "0x0000000000000000000000000000000000000000"
                                    },
                                    {
                                        "name": "price",
                                        "type": "uint256",
                                        "value": "133,000,000,000,000,000"
                                    },
                                    {
                                        "name": "listingTime",
                                        "type": "uint256",
                                        "value": "1,677,527,759"
                                    },
                                    {
                                        "name": "expirationTime",
                                        "type": "uint256",
                                        "value": "1,678,132,563"
                                    },
                                    {
                                        "name": "fees",
                                        "type": "(uint16,address)[]",
                                        "value": [
                                            [
                                                {
                                                    "name": "rate",
                                                    "type": "uint16",
                                                    "value": "750"
                                                },
                                                {
                                                    "name": "recipient",
                                                    "type": "address",
                                                    "value": "0xc6e0d892e21af70f37373e2a855059ed90eda87b"
                                                }
                                            ]
                                        ]
                                    },
                                    {
                                        "name": "salt",
                                        "type": "uint256",
                                        "value": "168,419,224,054,799,027,553,810,499,029,603,941,856"
                                    },
                                    {
                                        "name": "extraParams",
                                        "type": "bytes",
                                        "value": "0x01"
                                    }
                                ]
                            },
                            {
                                "name": "takerBid",
                                "type": "(address,uint8,address,address,uint256,uint256,address,uint256,uint256,uint256,(uint16,address)[],uint256,bytes)",
                                "value": [
                                    {
                                        "name": "trader",
                                        "type": "address",
                                        "value": "0x6ddefd4f09b2dafe21369bcb9d619e17c5dbc544"
                                    },
                                    {
                                        "name": "side",
                                        "type": "uint8",
                                        "value": "0"
                                    },
                                    {
                                        "name": "matchingPolicy",
                                        "type": "address",
                                        "value": "0x0000000000dab4a563819e8fd93dba3b25bc3495"
                                    },
                                    {
                                        "name": "collection",
                                        "type": "address",
                                        "value": "0xb334a4eb0a2d6cc24fd451e779c002b9b33228c3"
                                    },
                                    {
                                        "name": "tokenId",
                                        "type": "uint256",
                                        "value": "4,728"
                                    },
                                    {
                                        "name": "amount",
                                        "type": "uint256",
                                        "value": "1"
                                    },
                                    {
                                        "name": "paymentToken",
                                        "type": "address",
                                        "value": "0x0000000000000000000000000000000000000000"
                                    },
                                    {
                                        "name": "price",
                                        "type": "uint256",
                                        "value": "133,000,000,000,000,000"
                                    },
                                    {
                                        "name": "listingTime",
                                        "type": "uint256",
                                        "value": "1,677,527,760"
                                    },
                                    {
                                        "name": "expirationTime",
                                        "type": "uint256",
                                        "value": "1,677,532,529"
                                    },
                                    {
                                        "name": "fees",
                                        "type": "(uint16,address)[]",
                                        "value": []
                                    },
                                    {
                                        "name": "salt",
                                        "type": "uint256",
                                        "value": "206,300,279,805,934,390,121,623,125,568,316,982,702"
                                    },
                                    {
                                        "name": "extraParams",
                                        "type": "bytes",
                                        "value": "0x01"
                                    }
                                ]
                            }
                        ],
                        "constructorArguments": "",
                        "name": "canMatchMakerAsk",
                        "returnParams": [
                            {
                                "name": "",
                                "type": "bool",
                                "value": true
                            },
                            {
                                "name": "",
                                "type": "uint256",
                                "value": "133,000,000,000,000,000"
                            },
                            {
                                "name": "",
                                "type": "uint256",
                                "value": "4,728"
                            },
                            {
                                "name": "",
                                "type": "uint256",
                                "value": "1"
                            },
                            {
                                "name": "",
                                "type": "uint8",
                                "value": "0"
                            }
                        ],
                        "signature": "canMatchMakerAsk((address,uint8,address,address,uint256,uint256,address,uint256,uint256,uint256,(uint16,address)[],uint256,bytes),(address,uint8,address,address,uint256,uint256,address,uint256,uint256,uint256,(uint16,address)[],uint256,bytes))"
                    },
                    "errorInfo": "",
                    "fromAddress": "0x000000000000ad05ccc4f10045630fb830b95127",
                    "gasUsed": 3230,
                    "id": 6,
                    "methodDecoded": true,
                    "operation": "STATICCALL",
                    "output": "0x000000000000000000000000000000000000000000000000000000000000000100000000000000000000000000000000000000000000000001d882cb9b208000000000000000000000000000000000000000000000000000000000000000127800000000000000000000000000000000000000000000000000000000000000010000000000000000000000000000000000000000000000000000000000000000",
                    "revert": false,
                    "revertMessage": "",
                    "selector": "0xd5ec8c77",
                    "status": true,
                    "value": "0"
                },
                "nodeType": 0
            },
            "7": {
                "invocation": {
                    "address": "0xc6e0d892e21af70f37373e2a855059ed90eda87b",
                    "callData": "0x",
                    "decodedMethod": null,
                    "errorInfo": "",
                    "fromAddress": "0x000000000000ad05ccc4f10045630fb830b95127",
                    "gasUsed": 1405,
                    "id": 7,
                    "methodDecoded": false,
                    "operation": "CALL",
                    "output": "",
                    "revert": false,
                    "revertMessage": "",
                    "selector": "fallback",
                    "status": true,
                    "value": "0.009975"
                },
                "nodeType": 0
            },
            "8": {
                "event": {
                    "contract": "0xc6e0d892e21af70f37373e2a855059ed90eda87b",
                    "decodedLog": {
                        "name": "PaymentReceived",
                        "params": [
                            {
                                "name": "from",
                                "type": "address",
                                "value": "0x000000000000ad05ccc4f10045630fb830b95127"
                            },
                            {
                                "name": "amount",
                                "type": "uint256",
                                "value": "9,975,000,000,000,000"
                            }
                        ],
                        "signature": "PaymentReceived(address,uint256)"
                    },
                    "id": 8,
                    "logData": "0x000000000000000000000000000000000000ad05ccc4f10045630fb830b9512700000000000000000000000000000000000000000000000000237035aba27000",
                    "logDecoded": true,
                    "operation": "EVENT",
                    "revert": false,
                    "status": true,
                    "topics": [
                        "0x6ef95f06320e7a25a04a175ca677b7052bdd97131872c2192525a629f51be770"
                    ]
                },
                "nodeType": 1
            },
            "9": {
                "invocation": {
                    "address": "0xf72096a29f6db80f383fb73fc24e596ba016a4df",
                    "callData": "0x",
                    "decodedMethod": null,
                    "errorInfo": "",
                    "fromAddress": "0x000000000000ad05ccc4f10045630fb830b95127",
                    "gasUsed": 0,
                    "id": 9,
                    "methodDecoded": false,
                    "operation": "CALL",
                    "output": "",
                    "revert": false,
                    "revertMessage": "",
                    "selector": "fallback",
                    "status": true,
                    "value": "0.123025"
                },
                "nodeType": 0
            }
        },
        "gasFlame": [
            {
                "children": [
                    {
                        "children": [
                            {
                                "children": [],
                                "depth": 0,
                                "name": "Initial Gas",
                                "value": 33588
                            },
                            {
                                "children": [
                                    {
                                        "children": [
                                            {
                                                "children": [],
                                                "depth": 2,
                                                "name": "ecrecover",
                                                "value": 3000
                                            },
                                            {
                                                "children": [],
                                                "depth": 2,
                                                "name": "ecrecover",
                                                "value": 3000
                                            },
                                            {
                                                "children": [],
                                                "depth": 2,
                                                "name": "ecrecover",
                                                "value": 3000
                                            },
                                            {
                                                "children": [],
                                                "depth": 2,
                                                "name": "isPolicyWhitelisted",
                                                "value": 2666
                                            },
                                            {
                                                "children": [],
                                                "depth": 2,
                                                "name": "canMatchMakerAsk",
                                                "value": 3230
                                            },
                                            {
                                                "children": [],
                                                "depth": 2,
                                                "name": "fallback",
                                                "value": 1405
                                            },
                                            {
                                                "children": [],
                                                "depth": 2,
                                                "name": "fallback",
                                                "value": 0
                                            },
                                            {
                                                "children": [
                                                    {
                                                        "children": [
                                                            {
                                                                "children": [],
                                                                "depth": 4,
                                                                "name": "isOperatorAllowed",
                                                                "value": 7627
                                                            },
                                                            {
                                                                "children": [],
                                                                "depth": 4,
                                                                "name": "isOperatorAllowed",
                                                                "value": 3264
                                                            },
                                                            {
                                                                "children": [],
                                                                "depth": 4,
                                                                "name": "isOperatorAllowed",
                                                                "value": 1627
                                                            },
                                                            {
                                                                "children": [],
                                                                "depth": 4,
                                                                "name": "isOperatorAllowed",
                                                                "value": 1264
                                                            },
                                                            {
                                                                "children": [],
                                                                "depth": 4,
                                                                "name": "isOperatorAllowed",
                                                                "value": 1627
                                                            },
                                                            {
                                                                "children": [],
                                                                "depth": 4,
                                                                "name": "isOperatorAllowed",
                                                                "value": 1264
                                                            }
                                                        ],
                                                        "depth": 3,
                                                        "name": "safeTransferFrom",
                                                        "value": 47541
                                                    }
                                                ],
                                                "depth": 2,
                                                "name": "transferERC721",
                                                "value": 55462
                                            }
                                        ],
                                        "depth": 1,
                                        "name": "execute",
                                        "value": 275243
                                    }
                                ],
                                "depth": 0,
                                "name": "Executed Gas",
                                "value": 280471
                            }
                        ],
                        "depth": -1,
                        "name": "Actual Gas Used",
                        "value": 254359
                    },
                    {
                        "children": [],
                        "depth": -1,
                        "name": "Refunded Gas",
                        "value": 59700
                    }
                ],
                "depth": -2,
                "name": "Total Gas",
                "value": 314059
            }
        ],
        "isConfirmed": true,
        "mainTrace": [
            {
                "children": [
                    {
                        "children": [
                            {
                                "children": [
                                    {
                                        "children": [],
                                        "depth": 2,
                                        "id": 2,
                                        "order": 2
                                    },
                                    {
                                        "children": [],
                                        "depth": 2,
                                        "id": 3,
                                        "order": 3
                                    },
                                    {
                                        "children": [],
                                        "depth": 2,
                                        "id": 4,
                                        "order": 4
                                    },
                                    {
                                        "children": [],
                                        "depth": 2,
                                        "id": 5,
                                        "order": 5
                                    },
                                    {
                                        "children": [],
                                        "depth": 2,
                                        "id": 6,
                                        "order": 6
                                    },
                                    {
                                        "children": [
                                            {
                                                "children": [],
                                                "depth": 3,
                                                "id": 8,
                                                "order": 8
                                            }
                                        ],
                                        "depth": 2,
                                        "id": 7,
                                        "order": 7
                                    },
                                    {
                                        "children": [],
                                        "depth": 2,
                                        "id": 9,
                                        "order": 9
                                    },
                                    {
                                        "children": [
                                            {
                                                "children": [
                                                    {
                                                        "children": [],
                                                        "depth": 4,
                                                        "id": 12,
                                                        "order": 12
                                                    },
                                                    {
                                                        "children": [],
                                                        "depth": 4,
                                                        "id": 13,
                                                        "order": 13
                                                    },
                                                    {
                                                        "children": [],
                                                        "depth": 4,
                                                        "id": 14,
                                                        "order": 14
                                                    },
                                                    {
                                                        "children": [],
                                                        "depth": 4,
                                                        "id": 15,
                                                        "order": 15
                                                    },
                                                    {
                                                        "children": [],
                                                        "depth": 4,
                                                        "id": 16,
                                                        "order": 16
                                                    },
                                                    {
                                                        "children": [],
                                                        "depth": 4,
                                                        "id": 17,
                                                        "order": 17
                                                    },
                                                    {
                                                        "children": [],
                                                        "depth": 4,
                                                        "id": 18,
                                                        "order": 18
                                                    }
                                                ],
                                                "depth": 3,
                                                "id": 11,
                                                "order": 11
                                            }
                                        ],
                                        "depth": 2,
                                        "id": 10,
                                        "order": 10
                                    },
                                    {
                                        "children": [],
                                        "depth": 2,
                                        "id": 19,
                                        "order": 19
                                    }
                                ],
                                "depth": 1,
                                "id": 1,
                                "order": 1
                            }
                        ],
                        "depth": 0,
                        "id": 0,
                        "order": 0
                    }
                ],
                "depth": -1,
                "id": -1,
                "order": -1
            }
        ],
        "mainTraceNodeCount": 20,
        "parentIdMap": {
            "0": -1,
            "1": 0,
            "10": 1,
            "11": 10,
            "12": 11,
            "13": 11,
            "14": 11,
            "15": 11,
            "16": 11,
            "17": 11,
            "18": 11,
            "19": 1,
            "2": 1,
            "3": 1,
            "4": 1,
            "5": 1,
            "6": 1,
            "7": 1,
            "8": 7,
            "9": 1
        },
        "tidyTrace": [
            {
                "children": [
                    {
                        "children": [
                            {
                                "children": [
                                    {
                                        "children": [
                                            {
                                                "children": [],
                                                "depth": 3,
                                                "id": 8,
                                                "order": 8
                                            }
                                        ],
                                        "depth": 2,
                                        "id": 7,
                                        "order": 7
                                    },
                                    {
                                        "children": [],
                                        "depth": 2,
                                        "id": 9,
                                        "order": 9
                                    },
                                    {
                                        "children": [
                                            {
                                                "children": [
                                                    {
                                                        "children": [],
                                                        "depth": 4,
                                                        "id": 18,
                                                        "order": 18
                                                    }
                                                ],
                                                "depth": 3,
                                                "id": 11,
                                                "order": 11
                                            }
                                        ],
                                        "depth": 2,
                                        "id": 10,
                                        "order": 10
                                    },
                                    {
                                        "children": [],
                                        "depth": 2,
                                        "id": 19,
                                        "order": 19
                                    }
                                ],
                                "depth": 1,
                                "id": 1,
                                "order": 1
                            }
                        ],
                        "depth": 0,
                        "id": 0,
                        "order": 0
                    }
                ],
                "depth": -1,
                "id": -1,
                "order": -1
            }
        ],
        "tidyTraceNodeCount": 9
    },
    "state_change": {
        "stateChanges": [
            {
                "address": "0x000000000000ad05ccc4f10045630fb830b95127",
                "erc": "",
                "slots": [
                    {
                        "current": "0x0000000000000000000000000000000000000000000000000000000000000001",
                        "key": "0x2af720944e78305f939d2a4859ef7d4a75284957de88988b2f43987521b030f7",
                        "prev": "0x0000000000000000000000000000000000000000000000000000000000000000"
                    },
                    {
                        "current": "0x0000000000000000000000000000000000000000000000000000000000000001",
                        "key": "0x2ce32f94d9cc00a9084ee27f648bebedbaa0ad3f8714afd9cb0cef843a13ec73",
                        "prev": "0x0000000000000000000000000000000000000000000000000000000000000000"
                    }
                ],
                "storageVariables": [
                    {
                        "name": "cancelledOrFilled",
                        "type": "mapping(bytes32 => bool)",
                        "value": {
                            "pairs": [
                                {
                                    "key": "0x0e26e874a61b9f5985a09e0ae95cb20fd3062d6f0803966233ff9f536e82ac5d",
                                    "value": {
                                        "current": "true",
                                        "prev": "false",
                                        "typeTag": 1
                                    }
                                },
                                {
                                    "key": "0xc1f9bc444dc335621d80e076c54ea4be0a9611b7e30111ab9faca8283416912a",
                                    "value": {
                                        "current": "true",
                                        "prev": "false",
                                        "typeTag": 1
                                    }
                                }
                            ],
                            "typeTag": 4
                        }
                    }
                ]
            },
            {
                "address": "0xb334a4eb0a2d6cc24fd451e779c002b9b33228c3",
                "erc": "ERC-721",
                "slots": [
                    {
                        "current": "0x0000000000000000000000000000000000000000000000000000000000000003",
                        "key": "0xa6418b3e5aec7a4c971aae9400a0be3e6fdd843bc27763d9767a290d1dd2d81a",
                        "prev": "0x0000000000000000000000000000000000000000000000000000000000000004"
                    },
                    {
                        "current": "0x000000000000000000000000000000000000000000000000000000000000000c",
                        "key": "0xae497c3d4f12d5765311c64d773c7f37d59bb864a09e36ae1fe8f8646b0dd9e1",
                        "prev": "0x000000000000000000000000000000000000000000000000000000000000000b"
                    },
                    {
                        "current": "0x000000020000000063fd0f736ddefd4f09b2dafe21369bcb9d619e17c5dbc544",
                        "key": "0x0d85f4a895bbe76a865d789d601aace4f749716f961a259ec5895e3a2b10b32f",
                        "prev": "0x000000020000000063f924b3f72096a29f6db80f383fb73fc24e596ba016a4df"
                    }
                ],
                "storageVariables": [
                    {
                        "name": "_packedOwnerships",
                        "type": "mapping(uint256 => uint256)",
                        "value": {
                            "pairs": [
                                {
                                    "key": "4728",
                                    "value": {
                                        "current": "53919893336752990892671768462730127647298489410290722576232299087172",
                                        "prev": "53919893336752615720139053711290392830021132021405083483748934526175",
                                        "typeTag": 1
                                    }
                                }
                            ],
                            "typeTag": 4
                        }
                    },
                    {
                        "name": "_packedAddressData",
                        "type": "mapping(address => uint256)",
                        "value": {
                            "pairs": [
                                {
                                    "key": "0x6ddefd4f09b2dafe21369bcb9d619e17c5dbc544",
                                    "value": {
                                        "current": "12",
                                        "prev": "11",
                                        "typeTag": 1
                                    }
                                },
                                {
                                    "key": "0xf72096a29f6db80f383fb73fc24e596ba016a4df",
                                    "value": {
                                        "current": "3",
                                        "prev": "4",
                                        "typeTag": 1
                                    }
                                }
                            ],
                            "typeTag": 4
                        }
                    }
                ]
            }
        ]
    }
}