{
    "balance_change": {
        "balanceChanges": [
            {
                "account": "0x2d187a560cfbd28e1eb2f68534754b0f120459a9",
                "assets": [
                    {
                        "address": "0x45804880de22913dafe09f4980848ece6ecbaf78",
                        "amount": "0.504610905261509066",
                        "iconUrl": "https://assets.blocksec.com/icon/9af231c213f7f39bf8561de03b5e9d3227dc89caa3b4070998a13eca86df620b.png",
                        "isERC1155": false,
                        "isERC721": false,
                        "sign": false,
                        "value": "955.2866729"
                    }
                ]
            },
            {
                "account": "0x240c78a0e757640757bd72204caf27d1a7c5ac8d",
                "assets": [
                    {
                        "address": "0x45804880de22913dafe09f4980848ece6ecbaf78",
                        "amount": "0.504509983080456765",
                        "iconUrl": "https://assets.blocksec.com/icon/9af231c213f7f39bf8561de03b5e9d3227dc89caa3b4070998a13eca86df620b.png",
                        "isERC1155": false,
                        "isERC721": false,
                        "sign": true,
                        "value": "965.2877466"
                    }
                ]
            },
            {
                "account": "0x611479ce1d3d457ffe9fb2abbaf8d3fe2ad8fffb",
                "assets": [
                    {
                        "address": "0x45804880de22913dafe09f4980848ece6ecbaf78",
                        "amount": "0.000100922181052301",
                        "iconUrl": "https://assets.blocksec.com/icon/9af231c213f7f39bf8561de03b5e9d3227dc89caa3b4070998a13eca86df620b.png",
                        "isERC1155": false,
                        "isERC721": false,
                        "sign": true,
                        "value": "0.19206991"
                    }
                ]
            }
        ]
    },
    "profile": {
        "basic_info": {
            "baseFee": "",
            "blockNumber": 11298315,
            "callData": "0xa9059cbb000000000000000000000000240c78a0e757640757bd72204caf27d1a7c5ac8d0000000000000000000000000000000000000000000000000700bcf1dde689ca",
            "debugEnable": true,
            "errorInfo": "",
            "eventCount": 3,
            "feeRecipient": "0xd224ca0c819e8e97ba0136b3b95ceff503b79f53",
            "formatValue": "0",
            "gasLimit": 89338,
            "gasPrice": "46.045",
            "gasUsed": 73708,
            "intTxnCount": 1,
            "internalRevert": false,
            "internalRevertMessage": "",
            "isContractCreation": false,
            "isFlashloan": false,
            "maxFee": "",
            "nonce": 19979,
            "overwritedBlockNumber": -1,
            "priorityFee": "",
            "receiver": "0x45804880de22913dafe09f4980848ece6ecbaf78",
            "revertMessage": "",
            "sender": "0x2d187a560cfbd28e1eb2f68534754b0f120459a9",
            "simulationEnable": true,
            "sourceTxnHash": "0xb0c3f4ddbefa4ffb013d29e756670b72cb859c07143df1c60ccf1675a6d3f81b",
            "status": true,
            "timestamp": "2020-11-21T00:53:01Z",
            "transactionFee": "0.00339388486",
            "txnHash": "0xb0c3f4ddbefa4ffb013d29e756670b72cb859c07143df1c60ccf1675a6d3f81b",
            "txnIndex": 49,
            "type": 0,
            "value": "0"
        },
        "fund_flow": [
            {
                "amount": "0.504509983080456765",
                "from": "0x2d187a560cfbd28e1eb2f68534754b0f120459a9",
                "id": 1,
                "isERC1155": false,
                "isERC721": false,
                "isReverted": false,
                "order": 1,
                "to": "0x240c78a0e757640757bd72204caf27d1a7c5ac8d",
                "token": "0x45804880de22913dafe09f4980848ece6ecbaf78"
            },
            {
                "amount": "0.000100922181052301",
                "from": "0x2d187a560cfbd28e1eb2f68534754b0f120459a9",
                "id": 2,
                "isERC1155": false,
                "isERC721": false,
                "isReverted": false,
                "order": 2,
                "to": "0x611479ce1d3d457ffe9fb2abbaf8d3fe2ad8fffb",
                "token": "0x45804880de22913dafe09f4980848ece6ecbaf78"
            }
        ],
        "token_infos": [
            {
                "address": "0xeeeeeeeeeeeeeeeeeeeeeeeeeeeeeeeeeeeeeeee",
                "decimals": 18
            },
            {
                "address": "0x45804880de22913dafe09f4980848ece6ecbaf78",
                "decimals": 18
            },
            {
                "address": "0xc02aaa39b223fe8d0a0e5c4f27ead9083c756cc2",
                "decimals": 18
            }
        ]
    },
    "address_label": {
        "labels": [
            {
                "address": "0x74271f2282ed7ee35c166122a60c9830354be42a",
                "label": "Paxos Gold"
            },
            {
                "address": "0x45804880de22913dafe09f4980848ece6ecbaf78",
                "label": "Paxos Gold: PAXG Token"
            },
            {
                "address": "0x0000000000000000000000000000000000000001",
                "label": "Precompiled"
            },
            {
                "address": "0x0000000000000000000000000000000000000002",
                "label": "Precompiled"
            },
            {
                "address": "0x0000000000000000000000000000000000000003",
                "label": "Precompiled"
            },
            {
                "address": "0x0000000000000000000000000000000000000004",
                "label": "Precompiled"
            },
            {
                "address": "0xeeeeeeeeeeeeeeeeeeeeeeeeeeeeeeeeeeeeeeee",
                "label": "Ether"
            }
        ]
    },
    "trace": {
        "accountLabels": null,
        "dataMap": {
            "-1": {
                "invocation": {
                    "address": "0x2d187a560cfbd28e1eb2f68534754b0f120459a9",
                    "callData": "",
                    "decodedMethod": null,
                    "errorInfo": "",
                    "fromAddress": "",
                    "gasUsed": 0,
                    "id": -1,
                    "methodDecoded": false,
                    "operation": "",
                    "output": "",
                    "revert": false,
                    "revertMessage": "",
                    "selector": "",
                    "status": false,
                    "value": ""
                },
                "nodeType": 0
            },
            "0": {
                "invocation": {
                    "address": "0x45804880de22913dafe09f4980848ece6ecbaf78",
                    "callData": "0x000000000000000000000000240c78a0e757640757bd72204caf27d1a7c5ac8d0000000000000000000000000000000000000000000000000700bcf1dde689ca",
                    "decodedMethod": {
                        "callParams": [
                            {
                                "name": "_to",
                                "type": "address",
                                "value": "0x240c78a0e757640757bd72204caf27d1a7c5ac8d"
                            },
                            {
                                "decimalAvailable": true,
                                "name": "_value",
                                "type": "uint256",
                                "value": "504,610,905,261,509,066"
                            }
                        ],
                        "constructorArguments": "",
                        "name": "transfer",
                        "returnParams": [
                            {
                                "name": "",
                                "type": "bool",
                                "value": true
                            }
                        ],
                        "signature": "transfer(address,uint256)"
                    },
                    "errorInfo": "",
                    "fromAddress": "0x2d187a560cfbd28e1eb2f68534754b0f120459a9",
                    "gasUsed": 73708,
                    "id": 0,
                    "methodDecoded": true,
                    "operation": "CALL",
                    "output": "0x0000000000000000000000000000000000000000000000000000000000000001",
                    "revert": false,
                    "revertMessage": "",
                    "selector": "0xa9059cbb",
                    "status": true,
                    "value": "0"
                },
                "nodeType": 0
            },
            "1": {
                "invocation": {
                    "address": "0x74271f2282ed7ee35c166122a60c9830354be42a",
                    "callData": "0x000000000000000000000000240c78a0e757640757bd72204caf27d1a7c5ac8d0000000000000000000000000000000000000000000000000700bcf1dde689ca",
                    "decodedMethod": {
                        "callParams": [
                            {
                                "name": "_to",
                                "type": "address",
                                "value": "0x240c78a0e757640757bd72204caf27d1a7c5ac8d"
                            },
                            {
                                "decimalAvailable": true,
                                "name": "_value",
                                "type": "uint256",
                                "value": "504,610,905,261,509,066"
                            }
                        ],
                        "constructorArguments": "",
                        "name": "transfer",
                        "returnParams": [
                            {
                                "name": "",
                                "type": "bool",
                                "value": true
                            }
                        ],
                        "signature": "transfer(address,uint256)"
                    },
                    "errorInfo": "",
                    "fromAddress": "0x45804880de22913dafe09f4980848ece6ecbaf78",
                    "gasUsed": 49282,
                    "id": 1,
                    "methodDecoded": true,
                    "operation": "DELEGATECALL",
                    "output": "0x0000000000000000000000000000000000000000000000000000000000000001",
                    "revert": false,
                    "revertMessage": "",
                    "selector": "0xa9059cbb",
                    "status": true,
                    "value": "0"
                },
                "nodeType": 0
            },
            "2": {
                "event": {
                    "contract": "0x45804880de22913dafe09f4980848ece6ecbaf78",
                    "decodedLog": {
                        "name": "Transfer",
                        "params": [
                            {
                                "name": "from",
                                "type": "address",
                                "value": "0x2d187a560cfbd28e1eb2f68534754b0f120459a9"
                            },
                            {
                                "name": "to",
                                "type": "address",
                                "value": "0x240c78a0e757640757bd72204caf27d1a7c5ac8d"
                            },
                            {
                                "decimalAvailable": true,
                                "name": "value",
                                "type": "uint256",
                                "value": "504,509,983,080,456,765"
                            }
                        ],
                        "signature": "Transfer(address,address,uint256)"
                    },
                    "id": 2,
                    "logData": "0x000000000000000000000000000000000000000000000000070061281726223d",
                    "logDecoded": true,
                    "operation": "EVENT",
                    "revert": false,
                    "status": true,
                    "topics": [
                        "0xddf252ad1be2c89b69c2b068fc378daa952ba7f163c4a11628f55a4df523b3ef",
                        "0x0000000000000000000000002d187a560cfbd28e1eb2f68534754b0f120459a9",
                        "0x000000000000000000000000240c78a0e757640757bd72204caf27d1a7c5ac8d"
                    ]
                },
                "nodeType": 1
            },
            "3": {
                "event": {
                    "contract": "0x45804880de22913dafe09f4980848ece6ecbaf78",
                    "decodedLog": {
                        "name": "Transfer",
                        "params": [
                            {
                                "name": "from",
                                "type": "address",
                                "value": "0x2d187a560cfbd28e1eb2f68534754b0f120459a9"
                            },
                            {
                                "name": "to",
                                "type": "address",
                                "value": "0x611479ce1d3d457ffe9fb2abbaf8d3fe2ad8fffb"
                            },
                            {
                                "decimalAvailable": true,
                                "name": "value",
                                "type": "uint256",
                                "value": "100,922,181,052,301"
                            }
                        ],
                        "signature": "Transfer(address,address,uint256)"
                    },
                    "id": 3,
                    "logData": "0x00000000000000000000000000000000000000000000000000005bc9c6c0678d",
                    "logDecoded": true,
                    "operation": "EVENT",
                    "revert": false,
                    "status": true,
                    "topics": [
                        "0xddf252ad1be2c89b69c2b068fc378daa952ba7f163c4a11628f55a4df523b3ef",
                        "0x0000000000000000000000002d187a560cfbd28e1eb2f68534754b0f120459a9",
                        "0x000000000000000000000000611479ce1d3d457ffe9fb2abbaf8d3fe2ad8fffb"
                    ]
                },
                "nodeType": 1
            },
            "4": {
                "event": {
                    "contract": "0x45804880de22913dafe09f4980848ece6ecbaf78",
                    "decodedLog": {
                        "name": "FeeCollected",
                        "params": [
                            {
                                "name": "from",
                                "type": "address",
                                "value": "0x2d187a560cfbd28e1eb2f68534754b0f120459a9"
                            },
                            {
                                "name": "to",
                                "type": "address",
                                "value": "0x611479ce1d3d457ffe9fb2abbaf8d3fe2ad8fffb"
                            },
                            {
                                "name": "value",
                                "type": "uint256",
                                "value": "100,922,181,052,301"
                            }
                        ],
                        "signature": "FeeCollected(address,address,uint256)"
                    },
                    "id": 4,
                    "logData": "0x00000000000000000000000000000000000000000000000000005bc9c6c0678d",
                    "logDecoded": true,
                    "operation": "EVENT",
                    "revert": false,
                    "status": true,
                    "topics": [
                        "0xf228de527fc1b9843baac03b9a04565473a263375950e63435d4138464386f46",
                        "0x0000000000000000000000002d187a560cfbd28e1eb2f68534754b0f120459a9",
                        "0x000000000000000000000000611479ce1d3d457ffe9fb2abbaf8d3fe2ad8fffb"
                    ]
                },
                "nodeType": 1
            }
        },
        "gasFlame": [
            {
                "children": [
                    {
                        "children": [
                            {
                                "children": [],
                                "depth": 0,
                                "name": "Initial Gas",
                                "value": 21644
                            },
                            {
                                "children": [
                                    {
                                        "children": [],
                                        "depth": 1,
                                        "name": "transfer",
                                        "value": 49282
                                    }
                                ],
                                "depth": 0,
                                "name": "Executed Gas",
                                "value": 52064
                            }
                        ],
                        "depth": -1,
                        "name": "Actual Gas Used",
                        "value": 73708
                    },
                    {
                        "children": [],
                        "depth": -1,
                        "name": "Refunded Gas",
                        "value": 0
                    }
                ],
                "depth": -2,
                "name": "Total Gas",
                "value": 73708
            }
        ],
        "isConfirmed": true,
        "mainTrace": [
            {
                "children": [
                    {
                        "children": [
                            {
                                "children": [
                                    {
                                        "children": [],
                                        "depth": 2,
                                        "id": 2,
                                        "order": 2
                                    },
                                    {
                                        "children": [],
                                        "depth": 2,
                                        "id": 3,
                                        "order": 3
                                    },
                                    {
                                        "children": [],
                                        "depth": 2,
                                        "id": 4,
                                        "order": 4
                                    }
                                ],
                                "depth": 1,
                                "id": 1,
                                "order": 1
                            }
                        ],
                        "depth": 0,
                        "id": 0,
                        "order": 0
                    }
                ],
                "depth": -1,
                "id": -1,
                "order": -1
            }
        ],
        "mainTraceNodeCount": 5,
        "parentIdMap": {
            "0": -1,
            "1": 0,
            "2": 1,
            "3": 1,
            "4": 1
        },
        "tidyTrace": [
            {
                "children": [
                    {
                        "children": [
                            {
                                "children": [
                                    {
                                        "children": [],
                                        "depth": 2,
                                        "id": 2,
                                        "order": 2
                                    },
                                    {
                                        "children": [],
                                        "depth": 2,
                                        "id": 3,
                                        "order": 3
                                    },
                                    {
                                        "children": [],
                                        "depth": 2,
                                        "id": 4,
                                        "order": 4
                                    }
                                ],
                                "depth": 1,
                                "id": 1,
                                "order": 1
                            }
                        ],
                        "depth": 0,
                        "id": 0,
                        "order": 0
                    }
                ],
                "depth": -1,
                "id": -1,
                "order": -1
            }
        ],
        "tidyTraceNodeCount": 5
    },
    "state_change": {
        "stateChanges": [
            {
                "address": "0x45804880de22913dafe09f4980848ece6ecbaf78",
                "erc": "ERC-20",
                "slots": [
                    {
                        "current": "0x000000000000000000000000000000000000000000000000070061281726223d",
                        "key": "0x0eeb03a5bd49a1f8a29819690a37b9a2cf7a904ece4eee29be1792f3c5bed7ec",
                        "prev": "0x0000000000000000000000000000000000000000000000000000000000000000"
                    },
                    {
                        "current": "0x000000000000000000000000000000000000000000000001f89c685e43d6d7dd",
                        "key": "0x15ebaf3848443d3d33fdd5f2820f38bc6cfd913978f9415de8d72ea670584984",
                        "prev": "0x000000000000000000000000000000000000000000000001f89c0c947d167050"
                    },
                    {
                        "current": "0x000000000000000000000000000000000000000000000002c55c21362a94a388",
                        "key": "0x03a3c0e5a3302c8265d5b6d8823f3e7e6ec28d07653dbdc9bab79a50d13f2e9a",
                        "prev": "0x000000000000000000000000000000000000000000000002cc5cde28087b2d52"
                    }
                ],
                "storageVariables": [
                    {
                        "name": "balances",
                        "type": "mapping(address => uint256)",
                        "value": {
                            "pairs": [
                                {
                                    "key": "0x240c78a0e757640757bd72204caf27d1a7c5ac8d",
                                    "value": {
                                        "current": "504509983080456765",
                                        "prev": "0",
                                        "typeTag": 1
                                    }
                                },
                                {
                                    "key": "0x2d187a560cfbd28e1eb2f68534754b0f120459a9",
                                    "value": {
                                        "current": "51114766387274621832",
                                        "prev": "51619377292536130898",
                                        "typeTag": 1
                                    }
                                },
                                {
                                    "key": "0x611479ce1d3d457ffe9fb2abbaf8d3fe2ad8fffb",
                                    "value": {
                                        "current": "36361052245556910045",
                                        "prev": "36360951323375857744",
                                        "typeTag": 1
                                    }
                                }
                            ],
                            "typeTag": 4
                        }
                    }
                ]
            }
        ]
    }
}