{
    "balance_change": {
        "balanceChanges": [
            {
                "account": "0xd91a43744b7a355a4bb061bdba9f49b4c78920de",
                "assets": [
                    {
                        "address": "0x3e9bc21c9b189c09df3ef1b824798658d5011937",
                        "amount": "9,800",
                        "iconUrl": "",
                        "isERC1155": false,
                        "isERC721": false,
                        "sign": false,
                        "value": "444.0600456"
                    }
                ]
            },
            {
                "account": "0x16a4feb0b3b9b57a7fd12955f15910c05fb4828d",
                "assets": [
                    {
                        "address": "0x3e9bc21c9b189c09df3ef1b824798658d5011937",
                        "amount": "9,800",
                        "iconUrl": "",
                        "isERC1155": false,
                        "isERC721": false,
                        "sign": true,
                        "value": "444.0600456"
                    }
                ]
            }
        ]
    },
    "profile": {
        "basic_info": {
            "baseFee": "530.585243378",
            "blockNumber": 13738105,
            "callData": "0xa9059cbb00000000000000000000000016a4feb0b3b9b57a7fd12955f15910c05fb4828d00000000000000000000000000000000000000000000021342520d5fec200000",
            "debugEnable": true,
            "errorInfo": "",
            "eventCount": 1,
            "feeRecipient": "0x45a36a8e118c37e4c47ef4ab827a7c9e579e11e2",
            "formatValue": "0",
            "gasLimit": 200000,
            "gasPrice": "560.200447626",
            "gasUsed": 63464,
            "intTxnCount": 7,
            "internalRevert": false,
            "internalRevertMessage": "",
            "isContractCreation": false,
            "isFlashloan": false,
            "maxFee": "",
            "nonce": 4715,
            "overwritedBlockNumber": -1,
            "priorityFee": "",
            "receiver": "0x3e9bc21c9b189c09df3ef1b824798658d5011937",
            "revertMessage": "",
            "sender": "0xd91a43744b7a355a4bb061bdba9f49b4c78920de",
            "simulationEnable": true,
            "sourceTxnHash": "0xb073117dfedf21f81f32abe25ca5cc62103b0ddb6253cc5c0ad10c54d4dd5af0",
            "status": true,
            "timestamp": "2021-12-04T05:47:34Z",
            "transactionFee": "0.035552561208136464",
            "txnHash": "0xb073117dfedf21f81f32abe25ca5cc62103b0ddb6253cc5c0ad10c54d4dd5af0",
            "txnIndex": 38,
            "type": 0,
            "value": "0"
        },
        "fund_flow": [
            {
                "amount": "9,800",
                "from": "0xd91a43744b7a355a4bb061bdba9f49b4c78920de",
                "id": 1,
                "isERC1155": false,
                "isERC721": false,
                "isReverted": false,
                "order": 1,
                "to": "0x16a4feb0b3b9b57a7fd12955f15910c05fb4828d",
                "token": "0x3e9bc21c9b189c09df3ef1b824798658d5011937"
            }
        ],
        "token_infos": [
            {
                "address": "0x3e9bc21c9b189c09df3ef1b824798658d5011937",
                "decimals": 18
            },
            {
                "address": "0xc02aaa39b223fe8d0a0e5c4f27ead9083c756cc2",
                "decimals": 18
            },
            {
                "address": "0xeeeeeeeeeeeeeeeeeeeeeeeeeeeeeeeeeeeeeeee",
                "decimals": 18
            }
        ]
    },
    "address_label": {
        "labels": [
            {
                "address": "0xf1a16d778fe004c495df8d3c46d2abe71ecf6cfe",
                "label": "LnTokenStorage"
            },
            {
                "address": "0x16a4feb0b3b9b57a7fd12955f15910c05fb4828d",
                "label": "BINANCE"
            },
            {
                "address": "0xa7e9da4851992b424bab4c8ae97689af69c654fa",
                "label": "Linear Token (LINA)"
            },
            {
                "address": "0x0000000000000000000000000000000000000002",
                "label": "Precompiled"
            },
            {
                "address": "0x0000000000000000000000000000000000000003",
                "label": "Precompiled"
            },
            {
                "address": "0xeeeeeeeeeeeeeeeeeeeeeeeeeeeeeeeeeeeeeeee",
                "label": "Ether"
            },
            {
                "address": "0x3e9bc21c9b189c09df3ef1b824798658d5011937",
                "label": "Linear Finance: LINA Token"
            },
            {
                "address": "0x0000000000000000000000000000000000000001",
                "label": "Precompiled"
            },
            {
                "address": "0x0000000000000000000000000000000000000004",
                "label": "Precompiled"
            }
        ]
    },
    "trace": {
        "accountLabels": null,
        "dataMap": {
            "-1": {
                "invocation": {
                    "address": "0xd91a43744b7a355a4bb061bdba9f49b4c78920de",
                    "callData": "",
                    "decodedMethod": null,
                    "errorInfo": "",
                    "fromAddress": "",
                    "gasUsed": 0,
                    "id": -1,
                    "methodDecoded": false,
                    "operation": "",
                    "output": "",
                    "revert": false,
                    "revertMessage": "",
                    "selector": "",
                    "status": false,
                    "value": ""
                },
                "nodeType": 0
            },
            "0": {
                "invocation": {
                    "address": "0x3e9bc21c9b189c09df3ef1b824798658d5011937",
                    "callData": "0x00000000000000000000000016a4feb0b3b9b57a7fd12955f15910c05fb4828d00000000000000000000000000000000000000000000021342520d5fec200000",
                    "decodedMethod": {
                        "callParams": [
                            {
                                "name": "to",
                                "type": "address",
                                "value": "0x16a4feb0b3b9b57a7fd12955f15910c05fb4828d"
                            },
                            {
                                "decimalAvailable": true,
                                "name": "value",
                                "type": "uint256",
                                "value": "9,800,000,000,000,000,000,000"
                            }
                        ],
                        "constructorArguments": "",
                        "name": "transfer",
                        "returnParams": [
                            {
                                "name": "",
                                "type": "bool",
                                "value": true
                            }
                        ],
                        "signature": "transfer(address,uint256)"
                    },
                    "errorInfo": "",
                    "fromAddress": "0xd91a43744b7a355a4bb061bdba9f49b4c78920de",
                    "gasUsed": 63464,
                    "id": 0,
                    "methodDecoded": true,
                    "operation": "CALL",
                    "output": "0x0000000000000000000000000000000000000000000000000000000000000001",
                    "revert": false,
                    "revertMessage": "",
                    "selector": "0xa9059cbb",
                    "status": true,
                    "value": "0"
                },
                "nodeType": 0
            },
            "1": {
                "invocation": {
                    "address": "0xa7e9da4851992b424bab4c8ae97689af69c654fa",
                    "callData": "0x000000000000000000000000d91a43744b7a355a4bb061bdba9f49b4c78920de",
                    "decodedMethod": {
                        "callParams": [
                            {
                                "name": "sender",
                                "type": "address",
                                "value": "0xd91a43744b7a355a4bb061bdba9f49b4c78920de"
                            }
                        ],
                        "constructorArguments": "",
                        "name": "setMessageSender",
                        "returnParams": [],
                        "signature": "setMessageSender(address)"
                    },
                    "errorInfo": "",
                    "fromAddress": "0x3e9bc21c9b189c09df3ef1b824798658d5011937",
                    "gasUsed": 7599,
                    "id": 1,
                    "methodDecoded": true,
                    "operation": "CALL",
                    "output": "",
                    "revert": false,
                    "revertMessage": "",
                    "selector": "0xbc67f832",
                    "status": true,
                    "value": "0"
                },
                "nodeType": 0
            },
            "2": {
                "invocation": {
                    "address": "0xa7e9da4851992b424bab4c8ae97689af69c654fa",
                    "callData": "0x00000000000000000000000016a4feb0b3b9b57a7fd12955f15910c05fb4828d00000000000000000000000000000000000000000000021342520d5fec200000",
                    "decodedMethod": {
                        "callParams": [
                            {
                                "name": "to",
                                "type": "address",
                                "value": "0x16a4feb0b3b9b57a7fd12955f15910c05fb4828d"
                            },
                            {
                                "decimalAvailable": true,
                                "name": "value",
                                "type": "uint256",
                                "value": "9,800,000,000,000,000,000,000"
                            }
                        ],
                        "constructorArguments": "",
                        "name": "transfer",
                        "returnParams": [
                            {
                                "name": "",
                                "type": "bool",
                                "value": true
                            }
                        ],
                        "signature": "transfer(address,uint256)"
                    },
                    "errorInfo": "",
                    "fromAddress": "0x3e9bc21c9b189c09df3ef1b824798658d5011937",
                    "gasUsed": 28145,
                    "id": 2,
                    "methodDecoded": true,
                    "operation": "CALL",
                    "output": "0x0000000000000000000000000000000000000000000000000000000000000001",
                    "revert": false,
                    "revertMessage": "",
                    "selector": "0xa9059cbb",
                    "status": true,
                    "value": "0"
                },
                "nodeType": 0
            },
            "3": {
                "invocation": {
                    "address": "0xf1a16d778fe004c495df8d3c46d2abe71ecf6cfe",
                    "callData": "0x000000000000000000000000d91a43744b7a355a4bb061bdba9f49b4c78920de",
                    "decodedMethod": {
                        "callParams": [
                            {
                                "name": "",
                                "type": "address",
                                "value": "0xd91a43744b7a355a4bb061bdba9f49b4c78920de"
                            }
                        ],
                        "constructorArguments": "",
                        "name": "balanceOf",
                        "returnParams": [
                            {
                                "decimalAvailable": true,
                                "name": "",
                                "type": "uint256",
                                "value": "15,638,016,120,853,155,426,370,307"
                            }
                        ],
                        "signature": "balanceOf(address)"
                    },
                    "errorInfo": "",
                    "fromAddress": "0xa7e9da4851992b424bab4c8ae97689af69c654fa",
                    "gasUsed": 2558,
                    "id": 3,
                    "methodDecoded": true,
                    "operation": "STATICCALL",
                    "output": "0x0000000000000000000000000000000000000000000cef7a8d75db95af2c8303",
                    "revert": false,
                    "revertMessage": "",
                    "selector": "0x70a08231",
                    "status": true,
                    "value": "0"
                },
                "nodeType": 0
            },
            "4": {
                "invocation": {
                    "address": "0xf1a16d778fe004c495df8d3c46d2abe71ecf6cfe",
                    "callData": "0x000000000000000000000000d91a43744b7a355a4bb061bdba9f49b4c78920de0000000000000000000000000000000000000000000ced674b23ce35c30c8303",
                    "decodedMethod": {
                        "callParams": [
                            {
                                "name": "account",
                                "type": "address",
                                "value": "0xd91a43744b7a355a4bb061bdba9f49b4c78920de"
                            },
                            {
                                "name": "value",
                                "type": "uint256",
                                "value": "15,628,216,120,853,155,426,370,307"
                            }
                        ],
                        "constructorArguments": "",
                        "name": "setBalanceOf",
                        "returnParams": [],
                        "signature": "setBalanceOf(address,uint256)"
                    },
                    "errorInfo": "",
                    "fromAddress": "0xa7e9da4851992b424bab4c8ae97689af69c654fa",
                    "gasUsed": 5459,
                    "id": 4,
                    "methodDecoded": true,
                    "operation": "CALL",
                    "output": "",
                    "revert": false,
                    "revertMessage": "",
                    "selector": "0xb46310f6",
                    "status": true,
                    "value": "0"
                },
                "nodeType": 0
            },
            "5": {
                "invocation": {
                    "address": "0xf1a16d778fe004c495df8d3c46d2abe71ecf6cfe",
                    "callData": "0x00000000000000000000000016a4feb0b3b9b57a7fd12955f15910c05fb4828d",
                    "decodedMethod": {
                        "callParams": [
                            {
                                "name": "",
                                "type": "address",
                                "value": "0x16a4feb0b3b9b57a7fd12955f15910c05fb4828d"
                            }
                        ],
                        "constructorArguments": "",
                        "name": "balanceOf",
                        "returnParams": [
                            {
                                "decimalAvailable": true,
                                "name": "",
                                "type": "uint256",
                                "value": "14,800,000,000,000,000,000,000"
                            }
                        ],
                        "signature": "balanceOf(address)"
                    },
                    "errorInfo": "",
                    "fromAddress": "0xa7e9da4851992b424bab4c8ae97689af69c654fa",
                    "gasUsed": 2558,
                    "id": 5,
                    "methodDecoded": true,
                    "operation": "STATICCALL",
                    "output": "0x0000000000000000000000000000000000000000000003224f42723d45400000",
                    "revert": false,
                    "revertMessage": "",
                    "selector": "0x70a08231",
                    "status": true,
                    "value": "0"
                },
                "nodeType": 0
            },
            "6": {
                "invocation": {
                    "address": "0xf1a16d778fe004c495df8d3c46d2abe71ecf6cfe",
                    "callData": "0x00000000000000000000000016a4feb0b3b9b57a7fd12955f15910c05fb4828d00000000000000000000000000000000000000000000053591947f9d31600000",
                    "decodedMethod": {
                        "callParams": [
                            {
                                "name": "account",
                                "type": "address",
                                "value": "0x16a4feb0b3b9b57a7fd12955f15910c05fb4828d"
                            },
                            {
                                "name": "value",
                                "type": "uint256",
                                "value": "24,600,000,000,000,000,000,000"
                            }
                        ],
                        "constructorArguments": "",
                        "name": "setBalanceOf",
                        "returnParams": [],
                        "signature": "setBalanceOf(address,uint256)"
                    },
                    "errorInfo": "",
                    "fromAddress": "0xa7e9da4851992b424bab4c8ae97689af69c654fa",
                    "gasUsed": 3459,
                    "id": 6,
                    "methodDecoded": true,
                    "operation": "CALL",
                    "output": "",
                    "revert": false,
                    "revertMessage": "",
                    "selector": "0xb46310f6",
                    "status": true,
                    "value": "0"
                },
                "nodeType": 0
            },
            "7": {
                "invocation": {
                    "address": "0x3e9bc21c9b189c09df3ef1b824798658d5011937",
                    "callData": "0x0000000000000000000000000000000000000000000000000000000000000080ddf252ad1be2c89b69c2b068fc378daa952ba7f163c4a11628f55a4df523b3ef000000000000000000000000d91a43744b7a355a4bb061bdba9f49b4c78920de00000000000000000000000016a4feb0b3b9b57a7fd12955f15910c05fb4828d000000000000000000000000000000000000000000000000000000000000002000000000000000000000000000000000000000000000021342520d5fec200000",
                    "decodedMethod": {
                        "callParams": [
                            {
                                "name": "callData",
                                "type": "bytes",
                                "value": "0x00000000000000000000000000000000000000000000021342520d5fec200000"
                            },
                            {
                                "name": "topic1",
                                "type": "bytes32",
                                "value": "0xddf252ad1be2c89b69c2b068fc378daa952ba7f163c4a11628f55a4df523b3ef"
                            },
                            {
                                "name": "topic2",
                                "type": "bytes32",
                                "value": "0x000000000000000000000000d91a43744b7a355a4bb061bdba9f49b4c78920de"
                            },
                            {
                                "name": "topic3",
                                "type": "bytes32",
                                "value": "0x00000000000000000000000016a4feb0b3b9b57a7fd12955f15910c05fb4828d"
                            }
                        ],
                        "constructorArguments": "",
                        "name": "Log3",
                        "returnParams": [],
                        "signature": "Log3(bytes,bytes32,bytes32,bytes32)"
                    },
                    "errorInfo": "",
                    "fromAddress": "0xa7e9da4851992b424bab4c8ae97689af69c654fa",
                    "gasUsed": 2657,
                    "id": 7,
                    "methodDecoded": true,
                    "operation": "CALL",
                    "output": "",
                    "revert": false,
                    "revertMessage": "",
                    "selector": "0xced7bc70",
                    "status": true,
                    "value": "0"
                },
                "nodeType": 0
            },
            "8": {
                "event": {
                    "contract": "0x3e9bc21c9b189c09df3ef1b824798658d5011937",
                    "decodedLog": {
                        "name": "Transfer",
                        "params": [
                            {
                                "name": "from",
                                "type": "address",
                                "value": "0xd91a43744b7a355a4bb061bdba9f49b4c78920de"
                            },
                            {
                                "name": "to",
                                "type": "address",
                                "value": "0x16a4feb0b3b9b57a7fd12955f15910c05fb4828d"
                            },
                            {
                                "decimalAvailable": true,
                                "name": "value",
                                "type": "uint256",
                                "value": "9,800,000,000,000,000,000,000"
                            }
                        ],
                        "signature": "Transfer(address,address,uint256)"
                    },
                    "id": 8,
                    "logData": "0x00000000000000000000000000000000000000000000021342520d5fec200000",
                    "logDecoded": true,
                    "operation": "EVENT",
                    "revert": false,
                    "status": true,
                    "topics": [
                        "0xddf252ad1be2c89b69c2b068fc378daa952ba7f163c4a11628f55a4df523b3ef",
                        "0x000000000000000000000000d91a43744b7a355a4bb061bdba9f49b4c78920de",
                        "0x00000000000000000000000016a4feb0b3b9b57a7fd12955f15910c05fb4828d"
                    ]
                },
                "nodeType": 1
            }
        },
        "gasFlame": [
            {
                "children": [
                    {
                        "children": [
                            {
                                "children": [],
                                "depth": 0,
                                "name": "Initial Gas",
                                "value": 21656
                            },
                            {
                                "children": [
                                    {
                                        "children": [],
                                        "depth": 1,
                                        "name": "setMessageSender",
                                        "value": 7599
                                    },
                                    {
                                        "children": [
                                            {
                                                "children": [],
                                                "depth": 2,
                                                "name": "balanceOf",
                                                "value": 2558
                                            },
                                            {
                                                "children": [],
                                                "depth": 2,
                                                "name": "setBalanceOf",
                                                "value": 5459
                                            },
                                            {
                                                "children": [],
                                                "depth": 2,
                                                "name": "balanceOf",
                                                "value": 2558
                                            },
                                            {
                                                "children": [],
                                                "depth": 2,
                                                "name": "setBalanceOf",
                                                "value": 3459
                                            },
                                            {
                                                "children": [],
                                                "depth": 2,
                                                "name": "Log3",
                                                "value": 2657
                                            }
                                        ],
                                        "depth": 1,
                                        "name": "transfer",
                                        "value": 28145
                                    }
                                ],
                                "depth": 0,
                                "name": "Executed Gas",
                                "value": 41808
                            }
                        ],
                        "depth": -1,
                        "name": "Actual Gas Used",
                        "value": 63464
                    },
                    {
                        "children": [],
                        "depth": -1,
                        "name": "Refunded Gas",
                        "value": 0
                    }
                ],
                "depth": -2,
                "name": "Total Gas",
                "value": 63464
            }
        ],
        "isConfirmed": true,
        "mainTrace": [
            {
                "children": [
                    {
                        "children": [
                            {
                                "children": [],
                                "depth": 1,
                                "id": 1,
                                "order": 1
                            },
                            {
                                "children": [
                                    {
                                        "children": [],
                                        "depth": 2,
                                        "id": 3,
                                        "order": 3
                                    },
                                    {
                                        "children": [],
                                        "depth": 2,
                                        "id": 4,
                                        "order": 4
                                    },
                                    {
                                        "children": [],
                                        "depth": 2,
                                        "id": 5,
                                        "order": 5
                                    },
                                    {
                                        "children": [],
                                        "depth": 2,
                                        "id": 6,
                                        "order": 6
                                    },
                                    {
                                        "children": [
                                            {
                                                "children": [],
                                                "depth": 3,
                                                "id": 8,
                                                "order": 8
                                            }
                                        ],
                                        "depth": 2,
                                        "id": 7,
                                        "order": 7
                                    }
                                ],
                                "depth": 1,
                                "id": 2,
                                "order": 2
                            }
                        ],
                        "depth": 0,
                        "id": 0,
                        "order": 0
                    }
                ],
                "depth": -1,
                "id": -1,
                "order": -1
            }
        ],
        "mainTraceNodeCount": 9,
        "parentIdMap": {
            "0": -1,
            "1": 0,
            "2": 0,
            "3": 2,
            "4": 2,
            "5": 2,
            "6": 2,
            "7": 2,
            "8": 7
        },
        "tidyTrace": [
            {
                "children": [
                    {
                        "children": [
                            {
                                "children": [],
                                "depth": 1,
                                "id": 1,
                                "order": 1
                            },
                            {
                                "children": [
                                    {
                                        "children": [],
                                        "depth": 2,
                                        "id": 4,
                                        "order": 4
                                    },
                                    {
                                        "children": [],
                                        "depth": 2,
                                        "id": 6,
                                        "order": 6
                                    },
                                    {
                                        "children": [
                                            {
                                                "children": [],
                                                "depth": 3,
                                                "id": 8,
                                                "order": 8
                                            }
                                        ],
                                        "depth": 2,
                                        "id": 7,
                                        "order": 7
                                    }
                                ],
                                "depth": 1,
                                "id": 2,
                                "order": 2
                            }
                        ],
                        "depth": 0,
                        "id": 0,
                        "order": 0
                    }
                ],
                "depth": -1,
                "id": -1,
                "order": -1
            }
        ],
        "tidyTraceNodeCount": 7
    },
    "state_change": {
        "stateChanges": [
            {
                "address": "0xa7e9da4851992b424bab4c8ae97689af69c654fa",
                "erc": "ERC-20",
                "slots": [
                    {
                        "current": "0x000000000000000000000000d91a43744b7a355a4bb061bdba9f49b4c78920de",
                        "key": "0x0000000000000000000000000000000000000000000000000000000000000004",
                        "prev": "0x0000000000000000000000001111111254fb6c44bac0bed2854e76f90643097d"
                    }
                ],
                "storageVariables": [
                    {
                        "name": "messageSender",
                        "type": "address",
                        "value": {
                            "current": "0xd91a43744b7a355a4bb061bdba9f49b4c78920de",
                            "prev": "0x1111111254fb6c44bac0bed2854e76f90643097d",
                            "typeTag": 1
                        }
                    }
                ]
            },
            {
                "address": "0xf1a16d778fe004c495df8d3c46d2abe71ecf6cfe",
                "erc": "",
                "slots": [
                    {
                        "current": "0x0000000000000000000000000000000000000000000ced674b23ce35c30c8303",
                        "key": "0xc68c5b30639891d2b94813da94a263abf325be2239ca3c48b75c1a73ab3aa771",
                        "prev": "0x0000000000000000000000000000000000000000000cef7a8d75db95af2c8303"
                    },
                    {
                        "current": "0x00000000000000000000000000000000000000000000053591947f9d31600000",
                        "key": "0xcaa7072ce97938789285cf64935eaea9effd229e59e8cb3c33b550cf48c07d66",
                        "prev": "0x0000000000000000000000000000000000000000000003224f42723d45400000"
                    }
                ],
                "storageVariables": [
                    {
                        "name": "balanceOf",
                        "type": "mapping(address => uint256)",
                        "value": {
                            "pairs": [
                                {
                                    "key": "0x16a4feb0b3b9b57a7fd12955f15910c05fb4828d",
                                    "value": {
                                        "current": "24600000000000000000000",
                                        "prev": "14800000000000000000000",
                                        "typeTag": 1
                                    }
                                },
                                {
                                    "key": "0xd91a43744b7a355a4bb061bdba9f49b4c78920de",
                                    "value": {
                                        "current": "15628216120853155426370307",
                                        "prev": "15638016120853155426370307",
                                        "typeTag": 1
                                    }
                                }
                            ],
                            "typeTag": 4
                        }
                    }
                ]
            }
        ]
    }
}