{
    "balance_change": {
        "balanceChanges": [
            {
                "account": "0x055db46f8a2ad72379ac548abffdcc7aeb5ab250",
                "assets": [
                    {
                        "address": "0xa735a3af76cc30791c61c10d585833829d36cbe0",
                        "amount": "100,499.426976306",
                        "iconUrl": "",
                        "isERC1155": false,
                        "isERC721": false,
                        "sign": false,
                        "value": "2176.004352"
                    }
                ]
            },
            {
                "account": "0x03b4b38abbc7677a08223d18e9588f6e33a087f6",
                "assets": [
                    {
                        "address": "0xa735a3af76cc30791c61c10d585833829d36cbe0",
                        "amount": "100,499.426976306",
                        "iconUrl": "",
                        "isERC1155": false,
                        "isERC721": false,
                        "sign": true,
                        "value": "2176.004352"
                    }
                ]
            }
        ]
    },
    "profile": {
        "basic_info": {
            "baseFee": "24.127237203",
            "blockNumber": 17044435,
            "callData": "0xa9059cbb00000000000000000000000003b4b38abbc7677a08223d18e9588f6e33a087f600000000000000000000000000000000000000000000000000005b6758a52232",
            "debugEnable": true,
            "errorInfo": "",
            "eventCount": 1,
            "feeRecipient": "0x388c818ca8b9251b393131c08a736a67ccb19297",
            "formatValue": "0",
            "gasLimit": 56674,
            "gasPrice": "24.227237203",
            "gasUsed": 32983,
            "intTxnCount": 0,
            "internalRevert": false,
            "internalRevertMessage": "",
            "isContractCreation": false,
            "isFlashloan": false,
            "maxFee": "31.763524666",
            "nonce": 69,
            "overwritedBlockNumber": -1,
            "priorityFee": "0.1",
            "receiver": "0xa735a3af76cc30791c61c10d585833829d36cbe0",
            "revertMessage": "",
            "sender": "0x055db46f8a2ad72379ac548abffdcc7aeb5ab250",
            "simulationEnable": true,
            "sourceTxnHash": "0xb00fd08912cd06ce3b754aca625897ff5faebab4cdd5a56816296885843340a3",
            "status": true,
            "timestamp": "2023-04-14T09:06:59Z",
            "transactionFee": "0.000799086964666549",
            "txnHash": "0xb00fd08912cd06ce3b754aca625897ff5faebab4cdd5a56816296885843340a3",
            "txnIndex": 190,
            "type": 2,
            "value": "0"
        },
        "fund_flow": [
            {
                "amount": "100,499.426976306",
                "from": "0x055db46f8a2ad72379ac548abffdcc7aeb5ab250",
                "id": 1,
                "isERC1155": false,
                "isERC721": false,
                "isReverted": false,
                "order": 1,
                "to": "0x03b4b38abbc7677a08223d18e9588f6e33a087f6",
                "token": "0xa735a3af76cc30791c61c10d585833829d36cbe0"
            }
        ],
        "token_infos": [
            {
                "address": "0xa735a3af76cc30791c61c10d585833829d36cbe0",
                "decimals": 9
            },
            {
                "address": "0xc02aaa39b223fe8d0a0e5c4f27ead9083c756cc2",
                "decimals": 18
            },
            {
                "address": "0xeeeeeeeeeeeeeeeeeeeeeeeeeeeeeeeeeeeeeeee",
                "decimals": 18
            }
        ]
    },
    "address_label": {
        "labels": [
            {
                "address": "0xa735a3af76cc30791c61c10d585833829d36cbe0",
                "label": "ImgnAI: imgnAI Token"
            },
            {
                "address": "0x388c818ca8b9251b393131c08a736a67ccb19297",
                "label": "LidoExecutionLayerRewardsVault"
            },
            {
                "address": "0x0000000000000000000000000000000000000001",
                "label": "Precompiled"
            },
            {
                "address": "0x0000000000000000000000000000000000000002",
                "label": "Precompiled"
            },
            {
                "address": "0x0000000000000000000000000000000000000003",
                "label": "Precompiled"
            },
            {
                "address": "0x0000000000000000000000000000000000000004",
                "label": "Precompiled"
            },
            {
                "address": "0xeeeeeeeeeeeeeeeeeeeeeeeeeeeeeeeeeeeeeeee",
                "label": "Ether"
            }
        ]
    },
    "trace": {
        "accountLabels": null,
        "dataMap": {
            "-1": {
                "invocation": {
                    "address": "0x055db46f8a2ad72379ac548abffdcc7aeb5ab250",
                    "callData": "",
                    "decodedMethod": null,
                    "errorInfo": "",
                    "fromAddress": "",
                    "gasUsed": 0,
                    "id": -1,
                    "methodDecoded": false,
                    "operation": "",
                    "output": "",
                    "revert": false,
                    "revertMessage": "",
                    "selector": "",
                    "status": false,
                    "value": ""
                },
                "nodeType": 0
            },
            "0": {
                "invocation": {
                    "address": "0xa735a3af76cc30791c61c10d585833829d36cbe0",
                    "callData": "0x00000000000000000000000003b4b38abbc7677a08223d18e9588f6e33a087f600000000000000000000000000000000000000000000000000005b6758a52232",
                    "decodedMethod": {
                        "callParams": [
                            {
                                "name": "to",
                                "type": "address",
                                "value": "0x03b4b38abbc7677a08223d18e9588f6e33a087f6"
                            },
                            {
                                "decimalAvailable": true,
                                "name": "amount",
                                "type": "uint256",
                                "value": "100,499,426,976,306"
                            }
                        ],
                        "constructorArguments": "",
                        "name": "transfer",
                        "returnParams": [
                            {
                                "name": "",
                                "type": "bool",
                                "value": true
                            }
                        ],
                        "signature": "transfer(address,uint256)"
                    },
                    "errorInfo": "",
                    "fromAddress": "0x055db46f8a2ad72379ac548abffdcc7aeb5ab250",
                    "gasUsed": 32983,
                    "id": 0,
                    "methodDecoded": true,
                    "operation": "CALL",
                    "output": "0x0000000000000000000000000000000000000000000000000000000000000001",
                    "revert": false,
                    "revertMessage": "",
                    "selector": "0xa9059cbb",
                    "status": true,
                    "value": "0"
                },
                "nodeType": 0
            },
            "1": {
                "event": {
                    "contract": "0xa735a3af76cc30791c61c10d585833829d36cbe0",
                    "decodedLog": {
                        "name": "Transfer",
                        "params": [
                            {
                                "name": "from",
                                "type": "address",
                                "value": "0x055db46f8a2ad72379ac548abffdcc7aeb5ab250"
                            },
                            {
                                "name": "to",
                                "type": "address",
                                "value": "0x03b4b38abbc7677a08223d18e9588f6e33a087f6"
                            },
                            {
                                "decimalAvailable": true,
                                "name": "value",
                                "type": "uint256",
                                "value": "100,499,426,976,306"
                            }
                        ],
                        "signature": "Transfer(address,address,uint256)"
                    },
                    "id": 1,
                    "logData": "0x00000000000000000000000000000000000000000000000000005b6758a52232",
                    "logDecoded": true,
                    "operation": "EVENT",
                    "revert": false,
                    "status": true,
                    "topics": [
                        "0xddf252ad1be2c89b69c2b068fc378daa952ba7f163c4a11628f55a4df523b3ef",
                        "0x000000000000000000000000055db46f8a2ad72379ac548abffdcc7aeb5ab250",
                        "0x00000000000000000000000003b4b38abbc7677a08223d18e9588f6e33a087f6"
                    ]
                },
                "nodeType": 1
            }
        },
        "gasFlame": [
            {
                "children": [
                    {
                        "children": [
                            {
                                "children": [],
                                "depth": 0,
                                "name": "Initial Gas",
                                "value": 21632
                            },
                            {
                                "children": [],
                                "depth": 0,
                                "name": "Executed Gas",
                                "value": 16151
                            }
                        ],
                        "depth": -1,
                        "name": "Actual Gas Used",
                        "value": 32983
                    },
                    {
                        "children": [],
                        "depth": -1,
                        "name": "Refunded Gas",
                        "value": 4800
                    }
                ],
                "depth": -2,
                "name": "Total Gas",
                "value": 37783
            }
        ],
        "isConfirmed": true,
        "mainTrace": [
            {
                "children": [
                    {
                        "children": [
                            {
                                "children": [],
                                "depth": 1,
                                "id": 1,
                                "order": 1
                            }
                        ],
                        "depth": 0,
                        "id": 0,
                        "order": 0
                    }
                ],
                "depth": -1,
                "id": -1,
                "order": -1
            }
        ],
        "mainTraceNodeCount": 2,
        "parentIdMap": {
            "0": -1,
            "1": 0
        },
        "tidyTrace": [
            {
                "children": [
                    {
                        "children": [
                            {
                                "children": [],
                                "depth": 1,
                                "id": 1,
                                "order": 1
                            }
                        ],
                        "depth": 0,
                        "id": 0,
                        "order": 0
                    }
                ],
                "depth": -1,
                "id": -1,
                "order": -1
            }
        ],
        "tidyTraceNodeCount": 2
    },
    "state_change": {
        "stateChanges": [
            {
                "address": "0xa735a3af76cc30791c61c10d585833829d36cbe0",
                "erc": "ERC-20",
                "slots": [
                    {
                        "current": "0x0000000000000000000000000000000000000000000000000000000000000000",
                        "key": "0x8248413dac0cd061aef6a8216544434a7f06e85a57b201fd84545ab3b7c9980a",
                        "prev": "0x00000000000000000000000000000000000000000000000000005b6758a52232"
                    },
                    {
                        "current": "0x0000000000000000000000000000000000000000000000000003f909eed36a32",
                        "key": "0x4dc6fce1846f61035f31cf5db5794f44aa86f72bd300124a9bf53182a44e1ae3",
                        "prev": "0x00000000000000000000000000000000000000000000000000039da2962e4800"
                    }
                ],
                "storageVariables": [
                    {
                        "name": "_balances",
                        "type": "mapping(address => uint256)",
                        "value": {
                            "pairs": [
                                {
                                    "key": "0x03b4b38abbc7677a08223d18e9588f6e33a087f6",
                                    "value": {
                                        "current": "1118245986986546",
                                        "prev": "1017746560010240",
                                        "typeTag": 1
                                    }
                                },
                                {
                                    "key": "0x055db46f8a2ad72379ac548abffdcc7aeb5ab250",
                                    "value": {
                                        "current": "0",
                                        "prev": "100499426976306",
                                        "typeTag": 1
                                    }
                                }
                            ],
                            "typeTag": 4
                        }
                    }
                ]
            }
        ]
    }
}