{
    "balance_change": {
        "balanceChanges": [
            {
                "account": "0x5fc7467f7b58fba859231c0df65c78d17271931f",
                "assets": [
                    {
                        "address": "0xf57e7e7c23978c3caec3c3548e3d615c346e79ff",
                        "amount": "651.592",
                        "iconUrl": "",
                        "isERC1155": false,
                        "isERC721": false,
                        "sign": false,
                        "value": "828.7088908"
                    }
                ]
            },
            {
                "account": "0x674bdf20a0f284d710bc40872100128e2d66bd3f",
                "assets": [
                    {
                        "address": "0xf57e7e7c23978c3caec3c3548e3d615c346e79ff",
                        "amount": "651.592",
                        "iconUrl": "",
                        "isERC1155": false,
                        "isERC721": false,
                        "sign": true,
                        "value": "828.7088908"
                    }
                ]
            }
        ]
    },
    "profile": {
        "basic_info": {
            "baseFee": "6.859479436",
            "blockNumber": 15245385,
            "callData": "0xb1a417f40000000000000000000000005fc7467f7b58fba859231c0df65c78d17271931f0000000000000000000000005fc7467f7b58fba859231c0df65c78d17271931f000000000000000000000000f57e7e7c23978c3caec3c3548e3d615c346e79ff00000000000000000000000000000000000000000000002352a7cfb7b654000000000000000000000000000000000000000000000000000000000000000000a00000000000000000000000000000000000000000000000000000000000000000",
            "debugEnable": true,
            "errorInfo": "",
            "eventCount": 3,
            "feeRecipient": "0x7f101fe45e6649a6fb8f3f8b43ed03d353f2b90c",
            "formatValue": "0",
            "gasLimit": 150000,
            "gasPrice": "9.859479436",
            "gasUsed": 93591,
            "intTxnCount": 3,
            "internalRevert": false,
            "internalRevertMessage": "",
            "isContractCreation": false,
            "isFlashloan": false,
            "maxFee": "1000",
            "nonce": 7553,
            "overwritedBlockNumber": -1,
            "priorityFee": "3",
            "receiver": "0x0baba1ad5be3a5c0a66e7ac838a129bf948f1ea4",
            "revertMessage": "",
            "sender": "0x5fc7467f7b58fba859231c0df65c78d17271931f",
            "simulationEnable": true,
            "sourceTxnHash": "0xb01c72ee9f9787e06b396809d813bbf0b01f91ea7c7530067e7a801a1141a121",
            "status": true,
            "timestamp": "2022-07-30T18:22:57Z",
            "transactionFee": "0.000922758539894676",
            "txnHash": "0xb01c72ee9f9787e06b396809d813bbf0b01f91ea7c7530067e7a801a1141a121",
            "txnIndex": 47,
            "type": 2,
            "value": "0"
        },
        "fund_flow": [
            {
                "amount": "651.592",
                "from": "0x5fc7467f7b58fba859231c0df65c78d17271931f",
                "id": 1,
                "isERC1155": false,
                "isERC721": false,
                "isReverted": false,
                "order": 1,
                "to": "0x674bdf20a0f284d710bc40872100128e2d66bd3f",
                "token": "0xf57e7e7c23978c3caec3c3548e3d615c346e79ff"
            }
        ],
        "token_infos": [
            {
                "address": "0xf57e7e7c23978c3caec3c3548e3d615c346e79ff",
                "decimals": 18
            },
            {
                "address": "0xeeeeeeeeeeeeeeeeeeeeeeeeeeeeeeeeeeeeeeee",
                "decimals": 18
            },
            {
                "address": "0xc02aaa39b223fe8d0a0e5c4f27ead9083c756cc2",
                "decimals": 18
            }
        ]
    },
    "address_label": {
        "labels": [
            {
                "address": "0xeeeeeeeeeeeeeeeeeeeeeeeeeeeeeeeeeeeeeeee",
                "label": "Ether"
            },
            {
                "address": "0x26d8ba776a067c5928841985bce342f75bae7e82",
                "label": "ExchangeV3"
            },
            {
                "address": "0x0000000000000000000000000000000000000002",
                "label": "Precompiled"
            },
            {
                "address": "0x0000000000000000000000000000000000000003",
                "label": "Precompiled"
            },
            {
                "address": "0x0000000000000000000000000000000000000004",
                "label": "Precompiled"
            },
            {
                "address": "0x0baba1ad5be3a5c0a66e7ac838a129bf948f1ea4",
                "label": "Loopring: Exchange v2"
            },
            {
                "address": "0x674bdf20a0f284d710bc40872100128e2d66bd3f",
                "label": "Loopring: Exchange v2 Deposit"
            },
            {
                "address": "0xf57e7e7c23978c3caec3c3548e3d615c346e79ff",
                "label": "IMMUTABLE X: IMX Token"
            },
            {
                "address": "0x0000000000000000000000000000000000000001",
                "label": "Precompiled"
            }
        ]
    },
    "trace": {
        "accountLabels": null,
        "dataMap": {
            "-1": {
                "invocation": {
                    "address": "0x5fc7467f7b58fba859231c0df65c78d17271931f",
                    "callData": "",
                    "decodedMethod": null,
                    "errorInfo": "",
                    "fromAddress": "",
                    "gasUsed": 0,
                    "id": -1,
                    "methodDecoded": false,
                    "operation": "",
                    "output": "",
                    "revert": false,
                    "revertMessage": "",
                    "selector": "",
                    "status": false,
                    "value": ""
                },
                "nodeType": 0
            },
            "0": {
                "invocation": {
                    "address": "0x0baba1ad5be3a5c0a66e7ac838a129bf948f1ea4",
                    "callData": "0x0000000000000000000000005fc7467f7b58fba859231c0df65c78d17271931f0000000000000000000000005fc7467f7b58fba859231c0df65c78d17271931f000000000000000000000000f57e7e7c23978c3caec3c3548e3d615c346e79ff00000000000000000000000000000000000000000000002352a7cfb7b654000000000000000000000000000000000000000000000000000000000000000000a00000000000000000000000000000000000000000000000000000000000000000",
                    "decodedMethod": {
                        "callParams": [
                            {
                                "name": "from",
                                "type": "address",
                                "value": "0x5fc7467f7b58fba859231c0df65c78d17271931f"
                            },
                            {
                                "name": "to",
                                "type": "address",
                                "value": "0x5fc7467f7b58fba859231c0df65c78d17271931f"
                            },
                            {
                                "name": "tokenAddress",
                                "type": "address",
                                "value": "0xf57e7e7c23978c3caec3c3548e3d615c346e79ff"
                            },
                            {
                                "name": "amount",
                                "type": "uint96",
                                "value": "651,592,000,000,000,000,000"
                            },
                            {
                                "name": "extraData",
                                "type": "bytes",
                                "value": "0x"
                            }
                        ],
                        "constructorArguments": "",
                        "name": "deposit",
                        "returnParams": [],
                        "signature": "deposit(address,address,address,uint96,bytes)"
                    },
                    "errorInfo": "",
                    "fromAddress": "0x5fc7467f7b58fba859231c0df65c78d17271931f",
                    "gasUsed": 93591,
                    "id": 0,
                    "methodDecoded": true,
                    "operation": "CALL",
                    "output": "",
                    "revert": false,
                    "revertMessage": "",
                    "selector": "0xb1a417f4",
                    "status": true,
                    "value": "0"
                },
                "nodeType": 0
            },
            "1": {
                "invocation": {
                    "address": "0x26d8ba776a067c5928841985bce342f75bae7e82",
                    "callData": "0x0000000000000000000000005fc7467f7b58fba859231c0df65c78d17271931f0000000000000000000000005fc7467f7b58fba859231c0df65c78d17271931f000000000000000000000000f57e7e7c23978c3caec3c3548e3d615c346e79ff00000000000000000000000000000000000000000000002352a7cfb7b654000000000000000000000000000000000000000000000000000000000000000000a00000000000000000000000000000000000000000000000000000000000000000",
                    "decodedMethod": {
                        "callParams": [
                            {
                                "name": "from",
                                "type": "address",
                                "value": "0x5fc7467f7b58fba859231c0df65c78d17271931f"
                            },
                            {
                                "name": "to",
                                "type": "address",
                                "value": "0x5fc7467f7b58fba859231c0df65c78d17271931f"
                            },
                            {
                                "name": "tokenAddress",
                                "type": "address",
                                "value": "0xf57e7e7c23978c3caec3c3548e3d615c346e79ff"
                            },
                            {
                                "name": "amount",
                                "type": "uint96",
                                "value": "651,592,000,000,000,000,000"
                            },
                            {
                                "name": "extraData",
                                "type": "bytes",
                                "value": "0x"
                            }
                        ],
                        "constructorArguments": "",
                        "name": "deposit",
                        "returnParams": [],
                        "signature": "deposit(address,address,address,uint96,bytes)"
                    },
                    "errorInfo": "",
                    "fromAddress": "0x0baba1ad5be3a5c0a66e7ac838a129bf948f1ea4",
                    "gasUsed": 85796,
                    "id": 1,
                    "methodDecoded": true,
                    "operation": "DELEGATECALL",
                    "output": "",
                    "revert": false,
                    "revertMessage": "",
                    "selector": "0xb1a417f4",
                    "status": true,
                    "value": "0"
                },
                "nodeType": 0
            },
            "2": {
                "invocation": {
                    "address": "0x674bdf20a0f284d710bc40872100128e2d66bd3f",
                    "callData": "0x0000000000000000000000005fc7467f7b58fba859231c0df65c78d17271931f000000000000000000000000f57e7e7c23978c3caec3c3548e3d615c346e79ff00000000000000000000000000000000000000000000002352a7cfb7b654000000000000000000000000000000000000000000000000000000000000000000800000000000000000000000000000000000000000000000000000000000000000",
                    "decodedMethod": {
                        "callParams": [
                            {
                                "name": "from",
                                "type": "address",
                                "value": "0x5fc7467f7b58fba859231c0df65c78d17271931f"
                            },
                            {
                                "name": "token",
                                "type": "address",
                                "value": "0xf57e7e7c23978c3caec3c3548e3d615c346e79ff"
                            },
                            {
                                "name": "amount",
                                "type": "uint96",
                                "value": "651,592,000,000,000,000,000"
                            },
                            {
                                "name": "",
                                "type": "bytes",
                                "value": "0x"
                            }
                        ],
                        "constructorArguments": "",
                        "name": "deposit",
                        "returnParams": [
                            {
                                "name": "amountReceived",
                                "type": "uint96",
                                "value": "651,592,000,000,000,000,000"
                            }
                        ],
                        "signature": "deposit(address,address,uint96,bytes)"
                    },
                    "errorInfo": "",
                    "fromAddress": "0x0baba1ad5be3a5c0a66e7ac838a129bf948f1ea4",
                    "gasUsed": 29545,
                    "id": 2,
                    "methodDecoded": true,
                    "operation": "CALL",
                    "output": "0x00000000000000000000000000000000000000000000002352a7cfb7b6540000",
                    "revert": false,
                    "revertMessage": "",
                    "selector": "0xf3d790b7",
                    "status": true,
                    "value": "0"
                },
                "nodeType": 0
            },
            "3": {
                "invocation": {
                    "address": "0xf57e7e7c23978c3caec3c3548e3d615c346e79ff",
                    "callData": "0x0000000000000000000000005fc7467f7b58fba859231c0df65c78d17271931f000000000000000000000000674bdf20a0f284d710bc40872100128e2d66bd3f00000000000000000000000000000000000000000000002352a7cfb7b6540000",
                    "decodedMethod": {
                        "callParams": [
                            {
                                "name": "sender",
                                "type": "address",
                                "value": "0x5fc7467f7b58fba859231c0df65c78d17271931f"
                            },
                            {
                                "name": "recipient",
                                "type": "address",
                                "value": "0x674bdf20a0f284d710bc40872100128e2d66bd3f"
                            },
                            {
                                "decimalAvailable": true,
                                "name": "amount",
                                "type": "uint256",
                                "value": "651,592,000,000,000,000,000"
                            }
                        ],
                        "constructorArguments": "",
                        "name": "transferFrom",
                        "returnParams": [
                            {
                                "name": "",
                                "type": "bool",
                                "value": true
                            }
                        ],
                        "signature": "transferFrom(address,address,uint256)"
                    },
                    "errorInfo": "",
                    "fromAddress": "0x674bdf20a0f284d710bc40872100128e2d66bd3f",
                    "gasUsed": 20608,
                    "id": 3,
                    "methodDecoded": true,
                    "operation": "CALL",
                    "output": "0x0000000000000000000000000000000000000000000000000000000000000001",
                    "revert": false,
                    "revertMessage": "",
                    "selector": "0x23b872dd",
                    "status": true,
                    "value": "0"
                },
                "nodeType": 0
            },
            "4": {
                "event": {
                    "contract": "0xf57e7e7c23978c3caec3c3548e3d615c346e79ff",
                    "decodedLog": {
                        "name": "Transfer",
                        "params": [
                            {
                                "name": "from",
                                "type": "address",
                                "value": "0x5fc7467f7b58fba859231c0df65c78d17271931f"
                            },
                            {
                                "name": "to",
                                "type": "address",
                                "value": "0x674bdf20a0f284d710bc40872100128e2d66bd3f"
                            },
                            {
                                "decimalAvailable": true,
                                "name": "value",
                                "type": "uint256",
                                "value": "651,592,000,000,000,000,000"
                            }
                        ],
                        "signature": "Transfer(address,address,uint256)"
                    },
                    "id": 4,
                    "logData": "0x00000000000000000000000000000000000000000000002352a7cfb7b6540000",
                    "logDecoded": true,
                    "operation": "EVENT",
                    "revert": false,
                    "status": true,
                    "topics": [
                        "0xddf252ad1be2c89b69c2b068fc378daa952ba7f163c4a11628f55a4df523b3ef",
                        "0x0000000000000000000000005fc7467f7b58fba859231c0df65c78d17271931f",
                        "0x000000000000000000000000674bdf20a0f284d710bc40872100128e2d66bd3f"
                    ]
                },
                "nodeType": 1
            },
            "5": {
                "event": {
                    "contract": "0xf57e7e7c23978c3caec3c3548e3d615c346e79ff",
                    "decodedLog": {
                        "name": "Approval",
                        "params": [
                            {
                                "name": "owner",
                                "type": "address",
                                "value": "0x5fc7467f7b58fba859231c0df65c78d17271931f"
                            },
                            {
                                "name": "spender",
                                "type": "address",
                                "value": "0x674bdf20a0f284d710bc40872100128e2d66bd3f"
                            },
                            {
                                "decimalAvailable": true,
                                "name": "value",
                                "type": "uint256",
                                "value": "115,792,089,237,316,195,423,570,985,008,687,907,853,269,984,665,640,564,007,568,584,007,913,129,639,935"
                            }
                        ],
                        "signature": "Approval(address,address,uint256)"
                    },
                    "id": 5,
                    "logData": "0xfffffffffffffffffffffffffffffffffffffffffffff93f4b397f29c05bffff",
                    "logDecoded": true,
                    "operation": "EVENT",
                    "revert": false,
                    "status": true,
                    "topics": [
                        "0x8c5be1e5ebec7d5bd14f71427d1e84f3dd0314c0f7b2291e5b200ac8c7c3b925",
                        "0x0000000000000000000000005fc7467f7b58fba859231c0df65c78d17271931f",
                        "0x000000000000000000000000674bdf20a0f284d710bc40872100128e2d66bd3f"
                    ]
                },
                "nodeType": 1
            },
            "6": {
                "event": {
                    "contract": "0x0baba1ad5be3a5c0a66e7ac838a129bf948f1ea4",
                    "decodedLog": {
                        "name": "DepositRequested",
                        "params": [
                            {
                                "name": "from",
                                "type": "address",
                                "value": "0x5fc7467f7b58fba859231c0df65c78d17271931f"
                            },
                            {
                                "name": "to",
                                "type": "address",
                                "value": "0x5fc7467f7b58fba859231c0df65c78d17271931f"
                            },
                            {
                                "name": "token",
                                "type": "address",
                                "value": "0xf57e7e7c23978c3caec3c3548e3d615c346e79ff"
                            },
                            {
                                "name": "tokenId",
                                "type": "uint16",
                                "value": "255"
                            },
                            {
                                "name": "amount",
                                "type": "uint96",
                                "value": "651,592,000,000,000,000,000"
                            }
                        ],
                        "signature": "DepositRequested(address,address,address,uint16,uint96)"
                    },
                    "id": 6,
                    "logData": "0x0000000000000000000000005fc7467f7b58fba859231c0df65c78d17271931f0000000000000000000000005fc7467f7b58fba859231c0df65c78d17271931f000000000000000000000000f57e7e7c23978c3caec3c3548e3d615c346e79ff00000000000000000000000000000000000000000000000000000000000000ff00000000000000000000000000000000000000000000002352a7cfb7b6540000",
                    "logDecoded": true,
                    "operation": "EVENT",
                    "revert": false,
                    "status": true,
                    "topics": [
                        "0x73ff7b101bcdc22f199e8e1dd9893170a683d6897be4f1086ca05705abb886ae"
                    ]
                },
                "nodeType": 1
            }
        },
        "gasFlame": [
            {
                "children": [
                    {
                        "children": [
                            {
                                "children": [],
                                "depth": 0,
                                "name": "Initial Gas",
                                "value": 22648
                            },
                            {
                                "children": [
                                    {
                                        "children": [
                                            {
                                                "children": [
                                                    {
                                                        "children": [],
                                                        "depth": 3,
                                                        "name": "transferFrom",
                                                        "value": 20608
                                                    }
                                                ],
                                                "depth": 2,
                                                "name": "deposit",
                                                "value": 29545
                                            }
                                        ],
                                        "depth": 1,
                                        "name": "deposit",
                                        "value": 85796
                                    }
                                ],
                                "depth": 0,
                                "name": "Executed Gas",
                                "value": 90843
                            }
                        ],
                        "depth": -1,
                        "name": "Actual Gas Used",
                        "value": 93591
                    },
                    {
                        "children": [],
                        "depth": -1,
                        "name": "Refunded Gas",
                        "value": 19900
                    }
                ],
                "depth": -2,
                "name": "Total Gas",
                "value": 113491
            }
        ],
        "isConfirmed": true,
        "mainTrace": [
            {
                "children": [
                    {
                        "children": [
                            {
                                "children": [
                                    {
                                        "children": [
                                            {
                                                "children": [
                                                    {
                                                        "children": [],
                                                        "depth": 4,
                                                        "id": 4,
                                                        "order": 4
                                                    },
                                                    {
                                                        "children": [],
                                                        "depth": 4,
                                                        "id": 5,
                                                        "order": 5
                                                    }
                                                ],
                                                "depth": 3,
                                                "id": 3,
                                                "order": 3
                                            }
                                        ],
                                        "depth": 2,
                                        "id": 2,
                                        "order": 2
                                    },
                                    {
                                        "children": [],
                                        "depth": 2,
                                        "id": 6,
                                        "order": 6
                                    }
                                ],
                                "depth": 1,
                                "id": 1,
                                "order": 1
                            }
                        ],
                        "depth": 0,
                        "id": 0,
                        "order": 0
                    }
                ],
                "depth": -1,
                "id": -1,
                "order": -1
            }
        ],
        "mainTraceNodeCount": 7,
        "parentIdMap": {
            "0": -1,
            "1": 0,
            "2": 1,
            "3": 2,
            "4": 3,
            "5": 3,
            "6": 1
        },
        "tidyTrace": [
            {
                "children": [
                    {
                        "children": [
                            {
                                "children": [
                                    {
                                        "children": [
                                            {
                                                "children": [
                                                    {
                                                        "children": [],
                                                        "depth": 4,
                                                        "id": 4,
                                                        "order": 4
                                                    },
                                                    {
                                                        "children": [],
                                                        "depth": 4,
                                                        "id": 5,
                                                        "order": 5
                                                    }
                                                ],
                                                "depth": 3,
                                                "id": 3,
                                                "order": 3
                                            }
                                        ],
                                        "depth": 2,
                                        "id": 2,
                                        "order": 2
                                    },
                                    {
                                        "children": [],
                                        "depth": 2,
                                        "id": 6,
                                        "order": 6
                                    }
                                ],
                                "depth": 1,
                                "id": 1,
                                "order": 1
                            }
                        ],
                        "depth": 0,
                        "id": 0,
                        "order": 0
                    }
                ],
                "depth": -1,
                "id": -1,
                "order": -1
            }
        ],
        "tidyTraceNodeCount": 7
    },
    "state_change": {
        "stateChanges": [
            {
                "address": "0x0baba1ad5be3a5c0a66e7ac838a129bf948f1ea4",
                "erc": "",
                "slots": [
                    {
                        "current": "0x0000000000000000000000000000000062e577010000002352a7cfb7b6540000",
                        "key": "0x73930655efeecfa270a2ebdf7c56c92a66778333a659794c8a0821acb3adf038",
                        "prev": "0x0000000000000000000000000000000000000000000000000000000000000000"
                    }
                ],
                "storageVariables": []
            },
            {
                "address": "0xf57e7e7c23978c3caec3c3548e3d615c346e79ff",
                "erc": "ERC-20",
                "slots": [
                    {
                        "current": "0xfffffffffffffffffffffffffffffffffffffffffffff93f4b397f29c05bffff",
                        "key": "0x24de6c25271191432bd9e6c0a4b7a4e8091a20e8a70b353003ea26066585c02f",
                        "prev": "0xfffffffffffffffffffffffffffffffffffffffffffff9629de14ee176afffff"
                    },
                    {
                        "current": "0x00000000000000000000000000000000000000000000000000034dd47fa42000",
                        "key": "0xed8a359ee8176b611333838577dc2119313357f2c1cf62324522f04a329879c2",
                        "prev": "0x00000000000000000000000000000000000000000000002352ab1d8c35f82000"
                    },
                    {
                        "current": "0x0000000000000000000000000000000000000000000238ccc344ec268d96ab33",
                        "key": "0xbb304e97ac3d97cf6270ce2e7fcf2448147ebe5e9f0f4c96a6fc23505e89a5f2",
                        "prev": "0x0000000000000000000000000000000000000000000238a9709d1c6ed742ab33"
                    }
                ],
                "storageVariables": [
                    {
                        "name": "_allowances",
                        "type": "mapping(address => mapping(address => uint256))",
                        "value": {
                            "pairs": [
                                {
                                    "key": "0x5fc7467f7b58fba859231c0df65c78d17271931f",
                                    "value": {
                                        "pairs": [
                                            {
                                                "key": "0x674bdf20a0f284d710bc40872100128e2d66bd3f",
                                                "value": {
                                                    "current": "115792089237316195423570985008687907853269984665640564007568584007913129639935",
                                                    "prev": "115792089237316195423570985008687907853269984665640564008220176007913129639935",
                                                    "typeTag": 1
                                                }
                                            }
                                        ],
                                        "typeTag": 4
                                    }
                                }
                            ],
                            "typeTag": 4
                        }
                    },
                    {
                        "name": "_balances",
                        "type": "mapping(address => uint256)",
                        "value": {
                            "pairs": [
                                {
                                    "key": "0x5fc7467f7b58fba859231c0df65c78d17271931f",
                                    "value": {
                                        "current": "930000000000000",
                                        "prev": "651592930000000000000",
                                        "typeTag": 1
                                    }
                                },
                                {
                                    "key": "0x674bdf20a0f284d710bc40872100128e2d66bd3f",
                                    "value": {
                                        "current": "2686081368691781370555187",
                                        "prev": "2685429776691781370555187",
                                        "typeTag": 1
                                    }
                                }
                            ],
                            "typeTag": 4
                        }
                    }
                ]
            }
        ]
    }
}