{
    "balance_change": {
        "balanceChanges": [
            {
                "account": "0xcc9254d998ad730314b8fa2f2265a18cc4c4538f",
                "assets": [
                    {
                        "address": "0xb1656c8fe15b1ac60760777a8e45f5d7cd1d24ec",
                        "amount": "2,826,000,000,000,000,000,000",
                        "iconUrl": "",
                        "isERC1155": false,
                        "isERC721": false,
                        "sign": true,
                        "value": ""
                    }
                ]
            },
            {
                "account": "0x0000000000000000000000000000000000000000",
                "assets": [
                    {
                        "address": "0xb1656c8fe15b1ac60760777a8e45f5d7cd1d24ec",
                        "amount": "2,826,000,000,000,000,000,000",
                        "iconUrl": "",
                        "isERC1155": false,
                        "isERC721": false,
                        "sign": false,
                        "value": ""
                    }
                ]
            }
        ]
    },
    "profile": {
        "basic_info": {
            "baseFee": "",
            "blockNumber": 8955272,
            "callData": "0xdcdc7dd0000000000000000000000000cc9254d998ad730314b8fa2f2265a18cc4c4538f00000000000000000000000000000000000000000000009932a0db35d5e80000000000000000000000000000000000000000000000000000000000000000008000000000000000000000000000000000000000000000000000000000000000c00000000000000000000000000000000000000000000000000000000000000000000000000000000000000000000000000000000000000000000000000000000000000000000000000000000000000000000000000000000000000000000000000000000000000000000000000000000000000000000000000000000000000000",
            "debugEnable": true,
            "errorInfo": "",
            "eventCount": 2,
            "feeRecipient": "0xea674fdde714fd979de3edf0f56aa9716b898ec8",
            "formatValue": "0",
            "gasLimit": 62685,
            "gasPrice": "10",
            "gasUsed": 62685,
            "intTxnCount": 1,
            "internalRevert": false,
            "internalRevertMessage": "",
            "isContractCreation": false,
            "isFlashloan": false,
            "maxFee": "",
            "nonce": 55374,
            "overwritedBlockNumber": -1,
            "priorityFee": "",
            "receiver": "0xb1656c8fe15b1ac60760777a8e45f5d7cd1d24ec",
            "revertMessage": "",
            "sender": "0xd039c85e6cb3355bc78089bbf999a4853fff8090",
            "simulationEnable": true,
            "sourceTxnHash": "0xb09719cbd717f7d9ad1a48a64554728225d3c8dd2fbf7820ab4e6209da06304e",
            "status": true,
            "timestamp": "2019-11-18T07:39:41Z",
            "transactionFee": "0.00062685",
            "txnHash": "0xb09719cbd717f7d9ad1a48a64554728225d3c8dd2fbf7820ab4e6209da06304e",
            "txnIndex": 176,
            "type": 0,
            "value": "0"
        },
        "fund_flow": [
            {
                "amount": "2,826,000,000,000,000,000,000",
                "from": "0x0000000000000000000000000000000000000000",
                "id": 1,
                "isERC1155": false,
                "isERC721": false,
                "isReverted": false,
                "order": 1,
                "to": "0xcc9254d998ad730314b8fa2f2265a18cc4c4538f",
                "token": "0xb1656c8fe15b1ac60760777a8e45f5d7cd1d24ec"
            }
        ],
        "token_infos": [
            {
                "address": "0xc02aaa39b223fe8d0a0e5c4f27ead9083c756cc2",
                "decimals": 18
            },
            {
                "address": "0xeeeeeeeeeeeeeeeeeeeeeeeeeeeeeeeeeeeeeeee",
                "decimals": 18
            }
        ]
    },
    "address_label": {
        "labels": [
            {
                "address": "0x0000000000000000000000000000000000000003",
                "label": "Precompiled"
            },
            {
                "address": "0x0000000000000000000000000000000000000004",
                "label": "Precompiled"
            },
            {
                "address": "0xeeeeeeeeeeeeeeeeeeeeeeeeeeeeeeeeeeeeeeee",
                "label": "Ether"
            },
            {
                "address": "0x1820a4b7618bde71dce8cdc73aab6c95905fad24",
                "label": "ERC1820Registry"
            },
            {
                "address": "0x0000000000000000000000000000000000000000",
                "label": "Null Address"
            },
            {
                "address": "0x0000000000000000000000000000000000000001",
                "label": "Precompiled"
            },
            {
                "address": "0x0000000000000000000000000000000000000002",
                "label": "Precompiled"
            }
        ]
    },
    "trace": {
        "accountLabels": null,
        "dataMap": {
            "-1": {
                "invocation": {
                    "address": "0xd039c85e6cb3355bc78089bbf999a4853fff8090",
                    "callData": "",
                    "decodedMethod": null,
                    "errorInfo": "",
                    "fromAddress": "",
                    "gasUsed": 0,
                    "id": -1,
                    "methodDecoded": false,
                    "operation": "",
                    "output": "",
                    "revert": false,
                    "revertMessage": "",
                    "selector": "",
                    "status": false,
                    "value": ""
                },
                "nodeType": 0
            },
            "0": {
                "invocation": {
                    "address": "0xb1656c8fe15b1ac60760777a8e45f5d7cd1d24ec",
                    "callData": "0x000000000000000000000000cc9254d998ad730314b8fa2f2265a18cc4c4538f00000000000000000000000000000000000000000000009932a0db35d5e80000000000000000000000000000000000000000000000000000000000000000008000000000000000000000000000000000000000000000000000000000000000c00000000000000000000000000000000000000000000000000000000000000000000000000000000000000000000000000000000000000000000000000000000000000000000000000000000000000000000000000000000000000000000000000000000000000000000000000000000000000000000000000000000000000000",
                    "decodedMethod": {
                        "callParams": [
                            {
                                "name": "account",
                                "type": "address",
                                "value": "0xcc9254d998ad730314b8fa2f2265a18cc4c4538f"
                            },
                            {
                                "name": "amount",
                                "type": "uint256",
                                "value": "2,826,000,000,000,000,000,000"
                            },
                            {
                                "name": "userData",
                                "type": "bytes",
                                "value": "0x"
                            },
                            {
                                "name": "operatorData",
                                "type": "bytes",
                                "value": "0x"
                            }
                        ],
                        "constructorArguments": "",
                        "name": "mint",
                        "returnParams": [],
                        "signature": "mint(address,uint256,bytes,bytes)"
                    },
                    "errorInfo": "",
                    "fromAddress": "0xd039c85e6cb3355bc78089bbf999a4853fff8090",
                    "gasUsed": 62685,
                    "id": 0,
                    "methodDecoded": true,
                    "operation": "CALL",
                    "output": "",
                    "revert": false,
                    "revertMessage": "",
                    "selector": "0xdcdc7dd0",
                    "status": true,
                    "value": "0"
                },
                "nodeType": 0
            },
            "1": {
                "invocation": {
                    "address": "0x1820a4b7618bde71dce8cdc73aab6c95905fad24",
                    "callData": "0x000000000000000000000000cc9254d998ad730314b8fa2f2265a18cc4c4538fb281fc8c12954d22544db45de3159a39272895b169a852b314f9cc762e44c53b",
                    "decodedMethod": {
                        "callParams": [
                            {
                                "name": "_addr",
                                "type": "address",
                                "value": "0xcc9254d998ad730314b8fa2f2265a18cc4c4538f"
                            },
                            {
                                "name": "_interfaceHash",
                                "type": "bytes32",
                                "value": "0xb281fc8c12954d22544db45de3159a39272895b169a852b314f9cc762e44c53b"
                            }
                        ],
                        "constructorArguments": "",
                        "name": "getInterfaceImplementer",
                        "returnParams": [
                            {
                                "name": "",
                                "type": "address",
                                "value": "0x0000000000000000000000000000000000000000"
                            }
                        ],
                        "signature": "getInterfaceImplementer(address,bytes32)"
                    },
                    "errorInfo": "",
                    "fromAddress": "0xb1656c8fe15b1ac60760777a8e45f5d7cd1d24ec",
                    "gasUsed": 1042,
                    "id": 1,
                    "methodDecoded": true,
                    "operation": "STATICCALL",
                    "output": "0x0000000000000000000000000000000000000000000000000000000000000000",
                    "revert": false,
                    "revertMessage": "",
                    "selector": "0xaabbb8ca",
                    "status": true,
                    "value": "0"
                },
                "nodeType": 0
            },
            "2": {
                "event": {
                    "contract": "0xb1656c8fe15b1ac60760777a8e45f5d7cd1d24ec",
                    "decodedLog": {
                        "name": "Minted",
                        "params": [
                            {
                                "name": "operator",
                                "type": "address",
                                "value": "0xd039c85e6cb3355bc78089bbf999a4853fff8090"
                            },
                            {
                                "name": "to",
                                "type": "address",
                                "value": "0xcc9254d998ad730314b8fa2f2265a18cc4c4538f"
                            },
                            {
                                "name": "amount",
                                "type": "uint256",
                                "value": "2,826,000,000,000,000,000,000"
                            },
                            {
                                "name": "data",
                                "type": "bytes",
                                "value": "0x"
                            },
                            {
                                "name": "operatorData",
                                "type": "bytes",
                                "value": "0x"
                            }
                        ],
                        "signature": "Minted(address,address,uint256,bytes,bytes)"
                    },
                    "id": 2,
                    "logData": "0x00000000000000000000000000000000000000000000009932a0db35d5e800000000000000000000000000000000000000000000000000000000000000000060000000000000000000000000000000000000000000000000000000000000008000000000000000000000000000000000000000000000000000000000000000000000000000000000000000000000000000000000000000000000000000000000",
                    "logDecoded": true,
                    "operation": "EVENT",
                    "revert": false,
                    "status": true,
                    "topics": [
                        "0x2fe5be0146f74c5bce36c0b80911af6c7d86ff27e89d5cfa61fc681327954e5d",
                        "0x000000000000000000000000d039c85e6cb3355bc78089bbf999a4853fff8090",
                        "0x000000000000000000000000cc9254d998ad730314b8fa2f2265a18cc4c4538f"
                    ]
                },
                "nodeType": 1
            },
            "3": {
                "event": {
                    "contract": "0xb1656c8fe15b1ac60760777a8e45f5d7cd1d24ec",
                    "decodedLog": {
                        "name": "Transfer",
                        "params": [
                            {
                                "name": "from",
                                "type": "address",
                                "value": "0x0000000000000000000000000000000000000000"
                            },
                            {
                                "name": "to",
                                "type": "address",
                                "value": "0xcc9254d998ad730314b8fa2f2265a18cc4c4538f"
                            },
                            {
                                "decimalAvailable": true,
                                "name": "value",
                                "type": "uint256",
                                "value": "2,826,000,000,000,000,000,000"
                            }
                        ],
                        "signature": "Transfer(address,address,uint256)"
                    },
                    "id": 3,
                    "logData": "0x00000000000000000000000000000000000000000000009932a0db35d5e80000",
                    "logDecoded": true,
                    "operation": "EVENT",
                    "revert": false,
                    "status": true,
                    "topics": [
                        "0xddf252ad1be2c89b69c2b068fc378daa952ba7f163c4a11628f55a4df523b3ef",
                        "0x0000000000000000000000000000000000000000000000000000000000000000",
                        "0x000000000000000000000000cc9254d998ad730314b8fa2f2265a18cc4c4538f"
                    ]
                },
                "nodeType": 1
            }
        },
        "gasFlame": [
            {
                "children": [
                    {
                        "children": [
                            {
                                "children": [],
                                "depth": 0,
                                "name": "Initial Gas",
                                "value": 24152
                            },
                            {
                                "children": [
                                    {
                                        "children": [],
                                        "depth": 1,
                                        "name": "getInterfaceImplementer",
                                        "value": 1042
                                    }
                                ],
                                "depth": 0,
                                "name": "Executed Gas",
                                "value": 38533
                            }
                        ],
                        "depth": -1,
                        "name": "Actual Gas Used",
                        "value": 62685
                    },
                    {
                        "children": [],
                        "depth": -1,
                        "name": "Refunded Gas",
                        "value": 0
                    }
                ],
                "depth": -2,
                "name": "Total Gas",
                "value": 62685
            }
        ],
        "isConfirmed": true,
        "mainTrace": [
            {
                "children": [
                    {
                        "children": [
                            {
                                "children": [],
                                "depth": 1,
                                "id": 1,
                                "order": 1
                            },
                            {
                                "children": [],
                                "depth": 1,
                                "id": 2,
                                "order": 2
                            },
                            {
                                "children": [],
                                "depth": 1,
                                "id": 3,
                                "order": 3
                            }
                        ],
                        "depth": 0,
                        "id": 0,
                        "order": 0
                    }
                ],
                "depth": -1,
                "id": -1,
                "order": -1
            }
        ],
        "mainTraceNodeCount": 4,
        "parentIdMap": {
            "0": -1,
            "1": 0,
            "2": 0,
            "3": 0
        },
        "tidyTrace": [
            {
                "children": [
                    {
                        "children": [
                            {
                                "children": [],
                                "depth": 1,
                                "id": 2,
                                "order": 2
                            },
                            {
                                "children": [],
                                "depth": 1,
                                "id": 3,
                                "order": 3
                            }
                        ],
                        "depth": 0,
                        "id": 0,
                        "order": 0
                    }
                ],
                "depth": -1,
                "id": -1,
                "order": -1
            }
        ],
        "tidyTraceNodeCount": 3
    },
    "state_change": {
        "stateChanges": [
            {
                "address": "0xb1656c8fe15b1ac60760777a8e45f5d7cd1d24ec",
                "erc": "",
                "slots": [
                    {
                        "current": "0x0000000000000000000000000000000000000000001410c08a596d3ae92813ca",
                        "key": "0x0000000000000000000000000000000000000000000000000000000000000003",
                        "prev": "0x00000000000000000000000000000000000000000014102757b89205134013ca"
                    },
                    {
                        "current": "0x00000000000000000000000000000000000000000000009932a0db35d5e80000",
                        "key": "0xa874b5aadd95fe85eadd6291993b6998511f68919e62b7143d8bbb198457da88",
                        "prev": "0x0000000000000000000000000000000000000000000000000000000000000000"
                    }
                ],
                "storageVariables": []
            }
        ]
    }
}