{
    "balance_change": {
        "balanceChanges": [
            {
                "account": "0x6adee236d538e45b4b7799a22a8442aecd6fed36",
                "assets": [
                    {
                        "address": "0x504b60a4133699c7056b58d3fe11ea73865a2d65",
                        "amount": "222.22222222",
                        "iconUrl": "",
                        "isERC1155": false,
                        "isERC721": false,
                        "sign": false,
                        "value": ""
                    }
                ]
            },
            {
                "account": "0xc5a77a60b6f11d930a79450058f2e876b9ae86b7",
                "assets": [
                    {
                        "address": "0x504b60a4133699c7056b58d3fe11ea73865a2d65",
                        "amount": "222.22222222",
                        "iconUrl": "",
                        "isERC1155": false,
                        "isERC721": false,
                        "sign": true,
                        "value": ""
                    }
                ]
            }
        ]
    },
    "profile": {
        "basic_info": {
            "baseFee": "",
            "blockNumber": 9775382,
            "callData": "0xa9059cbb000000000000000000000000c5a77a60b6f11d930a79450058f2e876b9ae86b7000000000000000000000000000000000000000000000000000000052c8c338e",
            "debugEnable": true,
            "errorInfo": "",
            "eventCount": 1,
            "feeRecipient": "0x829bd824b016326a401d083b33d092293333a830",
            "formatValue": "0",
            "gasLimit": 80000,
            "gasPrice": "10",
            "gasUsed": 36273,
            "intTxnCount": 0,
            "internalRevert": false,
            "internalRevertMessage": "",
            "isContractCreation": false,
            "isFlashloan": false,
            "maxFee": "",
            "nonce": 10497,
            "overwritedBlockNumber": -1,
            "priorityFee": "",
            "receiver": "0x504b60a4133699c7056b58d3fe11ea73865a2d65",
            "revertMessage": "",
            "sender": "0x6adee236d538e45b4b7799a22a8442aecd6fed36",
            "simulationEnable": true,
            "sourceTxnHash": "0xb042f91732078c317b2d3eccf3e0ed51281e1d63298a7e03e377935750ab1a08",
            "status": true,
            "timestamp": "2020-03-30T21:10:42Z",
            "transactionFee": "0.00036273",
            "txnHash": "0xb042f91732078c317b2d3eccf3e0ed51281e1d63298a7e03e377935750ab1a08",
            "txnIndex": 43,
            "type": 0,
            "value": "0"
        },
        "fund_flow": [
            {
                "amount": "222.22222222",
                "from": "0x6adee236d538e45b4b7799a22a8442aecd6fed36",
                "id": 1,
                "isERC1155": false,
                "isERC721": false,
                "isReverted": false,
                "order": 1,
                "to": "0xc5a77a60b6f11d930a79450058f2e876b9ae86b7",
                "token": "0x504b60a4133699c7056b58d3fe11ea73865a2d65"
            }
        ],
        "token_infos": [
            {
                "address": "0x504b60a4133699c7056b58d3fe11ea73865a2d65",
                "decimals": 8
            },
            {
                "address": "0xc02aaa39b223fe8d0a0e5c4f27ead9083c756cc2",
                "decimals": 18
            },
            {
                "address": "0xeeeeeeeeeeeeeeeeeeeeeeeeeeeeeeeeeeeeeeee",
                "decimals": 18
            }
        ]
    },
    "address_label": {
        "labels": [
            {
                "address": "0xeeeeeeeeeeeeeeeeeeeeeeeeeeeeeeeeeeeeeeee",
                "label": "Ether"
            },
            {
                "address": "0x504b60a4133699c7056b58d3fe11ea73865a2d65",
                "label": "Capital Coin Extended (CPTLX)"
            },
            {
                "address": "0x0000000000000000000000000000000000000001",
                "label": "Precompiled"
            },
            {
                "address": "0x0000000000000000000000000000000000000002",
                "label": "Precompiled"
            },
            {
                "address": "0x0000000000000000000000000000000000000003",
                "label": "Precompiled"
            },
            {
                "address": "0x0000000000000000000000000000000000000004",
                "label": "Precompiled"
            }
        ]
    },
    "trace": {
        "accountLabels": null,
        "dataMap": {
            "-1": {
                "invocation": {
                    "address": "0x6adee236d538e45b4b7799a22a8442aecd6fed36",
                    "callData": "",
                    "decodedMethod": null,
                    "errorInfo": "",
                    "fromAddress": "",
                    "gasUsed": 0,
                    "id": -1,
                    "methodDecoded": false,
                    "operation": "",
                    "output": "",
                    "revert": false,
                    "revertMessage": "",
                    "selector": "",
                    "status": false,
                    "value": ""
                },
                "nodeType": 0
            },
            "0": {
                "invocation": {
                    "address": "0x504b60a4133699c7056b58d3fe11ea73865a2d65",
                    "callData": "0x000000000000000000000000c5a77a60b6f11d930a79450058f2e876b9ae86b7000000000000000000000000000000000000000000000000000000052c8c338e",
                    "decodedMethod": {
                        "callParams": [
                            {
                                "name": "to",
                                "type": "address",
                                "value": "0xc5a77a60b6f11d930a79450058f2e876b9ae86b7"
                            },
                            {
                                "decimalAvailable": true,
                                "name": "tokens",
                                "type": "uint256",
                                "value": "22,222,222,222"
                            }
                        ],
                        "constructorArguments": "",
                        "name": "transfer",
                        "returnParams": [
                            {
                                "name": "success",
                                "type": "bool",
                                "value": true
                            }
                        ],
                        "signature": "transfer(address,uint256)"
                    },
                    "errorInfo": "",
                    "fromAddress": "0x6adee236d538e45b4b7799a22a8442aecd6fed36",
                    "gasUsed": 36273,
                    "id": 0,
                    "methodDecoded": true,
                    "operation": "CALL",
                    "output": "0x0000000000000000000000000000000000000000000000000000000000000001",
                    "revert": false,
                    "revertMessage": "",
                    "selector": "0xa9059cbb",
                    "status": true,
                    "value": "0"
                },
                "nodeType": 0
            },
            "1": {
                "event": {
                    "contract": "0x504b60a4133699c7056b58d3fe11ea73865a2d65",
                    "decodedLog": {
                        "name": "Transfer",
                        "params": [
                            {
                                "name": "from",
                                "type": "address",
                                "value": "0x6adee236d538e45b4b7799a22a8442aecd6fed36"
                            },
                            {
                                "name": "to",
                                "type": "address",
                                "value": "0xc5a77a60b6f11d930a79450058f2e876b9ae86b7"
                            },
                            {
                                "decimalAvailable": true,
                                "name": "tokens",
                                "type": "uint256",
                                "value": "22,222,222,222"
                            }
                        ],
                        "signature": "Transfer(address,address,uint256)"
                    },
                    "id": 1,
                    "logData": "0x000000000000000000000000000000000000000000000000000000052c8c338e",
                    "logDecoded": true,
                    "operation": "EVENT",
                    "revert": false,
                    "status": true,
                    "topics": [
                        "0xddf252ad1be2c89b69c2b068fc378daa952ba7f163c4a11628f55a4df523b3ef",
                        "0x0000000000000000000000006adee236d538e45b4b7799a22a8442aecd6fed36",
                        "0x000000000000000000000000c5a77a60b6f11d930a79450058f2e876b9ae86b7"
                    ]
                },
                "nodeType": 1
            }
        },
        "gasFlame": [
            {
                "children": [
                    {
                        "children": [
                            {
                                "children": [],
                                "depth": 0,
                                "name": "Initial Gas",
                                "value": 21608
                            },
                            {
                                "children": [],
                                "depth": 0,
                                "name": "Executed Gas",
                                "value": 14665
                            }
                        ],
                        "depth": -1,
                        "name": "Actual Gas Used",
                        "value": 36273
                    },
                    {
                        "children": [],
                        "depth": -1,
                        "name": "Refunded Gas",
                        "value": 0
                    }
                ],
                "depth": -2,
                "name": "Total Gas",
                "value": 36273
            }
        ],
        "isConfirmed": true,
        "mainTrace": [
            {
                "children": [
                    {
                        "children": [
                            {
                                "children": [],
                                "depth": 1,
                                "id": 1,
                                "order": 1
                            }
                        ],
                        "depth": 0,
                        "id": 0,
                        "order": 0
                    }
                ],
                "depth": -1,
                "id": -1,
                "order": -1
            }
        ],
        "mainTraceNodeCount": 2,
        "parentIdMap": {
            "0": -1,
            "1": 0
        },
        "tidyTrace": [
            {
                "children": [
                    {
                        "children": [
                            {
                                "children": [],
                                "depth": 1,
                                "id": 1,
                                "order": 1
                            }
                        ],
                        "depth": 0,
                        "id": 0,
                        "order": 0
                    }
                ],
                "depth": -1,
                "id": -1,
                "order": -1
            }
        ],
        "tidyTraceNodeCount": 2
    },
    "state_change": {
        "stateChanges": [
            {
                "address": "0x504b60a4133699c7056b58d3fe11ea73865a2d65",
                "erc": "ERC-20",
                "slots": [
                    {
                        "current": "0x00000000000000000000000000000000000000000000000000002e24376dd660",
                        "key": "0x2febf823acb7eb7e85d7914d9b901c060a819cdcb4a1674f0f2da8c78cd30fc0",
                        "prev": "0x00000000000000000000000000000000000000000000000000002e2963fa09ee"
                    },
                    {
                        "current": "0x0000000000000000000000000000000000000000000000000000000f85a49aaa",
                        "key": "0x57586e848804668706360cefe4975edcfad7426b7957e63cab59ca63b5a2f408",
                        "prev": "0x0000000000000000000000000000000000000000000000000000000a5918671c"
                    }
                ],
                "storageVariables": [
                    {
                        "name": "balances",
                        "type": "mapping(address => uint256)",
                        "value": {
                            "pairs": [
                                {
                                    "key": "0x6adee236d538e45b4b7799a22a8442aecd6fed36",
                                    "value": {
                                        "current": "50733083645536",
                                        "prev": "50755305867758",
                                        "typeTag": 1
                                    }
                                },
                                {
                                    "key": "0xc5a77a60b6f11d930a79450058f2e876b9ae86b7",
                                    "value": {
                                        "current": "66666666666",
                                        "prev": "44444444444",
                                        "typeTag": 1
                                    }
                                }
                            ],
                            "typeTag": 4
                        }
                    }
                ]
            }
        ]
    }
}