{
    "balance_change": {
        "balanceChanges": [
            {
                "account": "0xd33b64f449f3357b1a5c1ac74db6dff9667f0745",
                "assets": [
                    {
                        "address": "0x1f54638b7737193ffd86c19ec51907a7c41755d8",
                        "amount": "105",
                        "iconUrl": "",
                        "isERC1155": false,
                        "isERC721": false,
                        "sign": false,
                        "value": ""
                    }
                ]
            },
            {
                "account": "0x3463934897d356b8659cbdfe15209e3bc3229105",
                "assets": [
                    {
                        "address": "0x1f54638b7737193ffd86c19ec51907a7c41755d8",
                        "amount": "105",
                        "iconUrl": "",
                        "isERC1155": false,
                        "isERC721": false,
                        "sign": true,
                        "value": ""
                    }
                ]
            }
        ]
    },
    "profile": {
        "basic_info": {
            "baseFee": "",
            "blockNumber": 6911620,
            "callData": "0xa9059cbb0000000000000000000000003463934897d356b8659cbdfe15209e3bc32291050000000000000000000000000000000000000000000000000000000006422c40",
            "debugEnable": true,
            "errorInfo": "",
            "eventCount": 1,
            "feeRecipient": "0x5a0b54d5dc17e0aadc383d2db43b0a0d3e029c4c",
            "formatValue": "0",
            "gasLimit": 53217,
            "gasPrice": "2.2",
            "gasUsed": 37217,
            "intTxnCount": 0,
            "internalRevert": false,
            "internalRevertMessage": "",
            "isContractCreation": false,
            "isFlashloan": false,
            "maxFee": "",
            "nonce": 3,
            "overwritedBlockNumber": -1,
            "priorityFee": "",
            "receiver": "0x1f54638b7737193ffd86c19ec51907a7c41755d8",
            "revertMessage": "",
            "sender": "0xd33b64f449f3357b1a5c1ac74db6dff9667f0745",
            "simulationEnable": true,
            "sourceTxnHash": "0xb0634dae6360f98acf8b6e4aa0834a296e2136544544f9638a9228c65235f748",
            "status": true,
            "timestamp": "2018-12-18T22:58:08Z",
            "transactionFee": "0.0000818774",
            "txnHash": "0xb0634dae6360f98acf8b6e4aa0834a296e2136544544f9638a9228c65235f748",
            "txnIndex": 65,
            "type": 0,
            "value": "0"
        },
        "fund_flow": [
            {
                "amount": "105",
                "from": "0xd33b64f449f3357b1a5c1ac74db6dff9667f0745",
                "id": 1,
                "isERC1155": false,
                "isERC721": false,
                "isReverted": false,
                "order": 1,
                "to": "0x3463934897d356b8659cbdfe15209e3bc3229105",
                "token": "0x1f54638b7737193ffd86c19ec51907a7c41755d8"
            }
        ],
        "token_infos": [
            {
                "address": "0x1f54638b7737193ffd86c19ec51907a7c41755d8",
                "decimals": 6
            },
            {
                "address": "0xc02aaa39b223fe8d0a0e5c4f27ead9083c756cc2",
                "decimals": 18
            },
            {
                "address": "0xeeeeeeeeeeeeeeeeeeeeeeeeeeeeeeeeeeeeeeee",
                "decimals": 18
            }
        ]
    },
    "address_label": {
        "labels": [
            {
                "address": "0xeeeeeeeeeeeeeeeeeeeeeeeeeeeeeeeeeeeeeeee",
                "label": "Ether"
            },
            {
                "address": "0x1f54638b7737193ffd86c19ec51907a7c41755d8",
                "label": "Sola foundation: SOL Token"
            },
            {
                "address": "0x0000000000000000000000000000000000000001",
                "label": "Precompiled"
            },
            {
                "address": "0x0000000000000000000000000000000000000002",
                "label": "Precompiled"
            },
            {
                "address": "0x0000000000000000000000000000000000000003",
                "label": "Precompiled"
            },
            {
                "address": "0x0000000000000000000000000000000000000004",
                "label": "Precompiled"
            }
        ]
    },
    "trace": {
        "accountLabels": null,
        "dataMap": {
            "-1": {
                "invocation": {
                    "address": "0xd33b64f449f3357b1a5c1ac74db6dff9667f0745",
                    "callData": "",
                    "decodedMethod": null,
                    "errorInfo": "",
                    "fromAddress": "",
                    "gasUsed": 0,
                    "id": -1,
                    "methodDecoded": false,
                    "operation": "",
                    "output": "",
                    "revert": false,
                    "revertMessage": "",
                    "selector": "",
                    "status": false,
                    "value": ""
                },
                "nodeType": 0
            },
            "0": {
                "invocation": {
                    "address": "0x1f54638b7737193ffd86c19ec51907a7c41755d8",
                    "callData": "0x0000000000000000000000003463934897d356b8659cbdfe15209e3bc32291050000000000000000000000000000000000000000000000000000000006422c40",
                    "decodedMethod": {
                        "callParams": [
                            {
                                "name": "_to",
                                "type": "address",
                                "value": "0x3463934897d356b8659cbdfe15209e3bc3229105"
                            },
                            {
                                "decimalAvailable": true,
                                "name": "_value",
                                "type": "uint256",
                                "value": "105,000,000"
                            }
                        ],
                        "constructorArguments": "",
                        "name": "transfer",
                        "returnParams": [
                            {
                                "name": "",
                                "type": "bool",
                                "value": true
                            }
                        ],
                        "signature": "transfer(address,uint256)"
                    },
                    "errorInfo": "",
                    "fromAddress": "0xd33b64f449f3357b1a5c1ac74db6dff9667f0745",
                    "gasUsed": 37217,
                    "id": 0,
                    "methodDecoded": true,
                    "operation": "CALL",
                    "output": "0x0000000000000000000000000000000000000000000000000000000000000001",
                    "revert": false,
                    "revertMessage": "",
                    "selector": "0xa9059cbb",
                    "status": true,
                    "value": "0"
                },
                "nodeType": 0
            },
            "1": {
                "event": {
                    "contract": "0x1f54638b7737193ffd86c19ec51907a7c41755d8",
                    "decodedLog": {
                        "name": "Transfer",
                        "params": [
                            {
                                "name": "from",
                                "type": "address",
                                "value": "0xd33b64f449f3357b1a5c1ac74db6dff9667f0745"
                            },
                            {
                                "name": "to",
                                "type": "address",
                                "value": "0x3463934897d356b8659cbdfe15209e3bc3229105"
                            },
                            {
                                "decimalAvailable": true,
                                "name": "value",
                                "type": "uint256",
                                "value": "105,000,000"
                            }
                        ],
                        "signature": "Transfer(address,address,uint256)"
                    },
                    "id": 1,
                    "logData": "0x0000000000000000000000000000000000000000000000000000000006422c40",
                    "logDecoded": true,
                    "operation": "EVENT",
                    "revert": false,
                    "status": true,
                    "topics": [
                        "0xddf252ad1be2c89b69c2b068fc378daa952ba7f163c4a11628f55a4df523b3ef",
                        "0x000000000000000000000000d33b64f449f3357b1a5c1ac74db6dff9667f0745",
                        "0x0000000000000000000000003463934897d356b8659cbdfe15209e3bc3229105"
                    ]
                },
                "nodeType": 1
            }
        },
        "gasFlame": [
            {
                "children": [
                    {
                        "children": [
                            {
                                "children": [],
                                "depth": 0,
                                "name": "Initial Gas",
                                "value": 23064
                            },
                            {
                                "children": [],
                                "depth": 0,
                                "name": "Executed Gas",
                                "value": 29153
                            }
                        ],
                        "depth": -1,
                        "name": "Actual Gas Used",
                        "value": 37217
                    },
                    {
                        "children": [],
                        "depth": -1,
                        "name": "Refunded Gas",
                        "value": 15000
                    }
                ],
                "depth": -2,
                "name": "Total Gas",
                "value": 52217
            }
        ],
        "isConfirmed": true,
        "mainTrace": [
            {
                "children": [
                    {
                        "children": [
                            {
                                "children": [],
                                "depth": 1,
                                "id": 1,
                                "order": 1
                            }
                        ],
                        "depth": 0,
                        "id": 0,
                        "order": 0
                    }
                ],
                "depth": -1,
                "id": -1,
                "order": -1
            }
        ],
        "mainTraceNodeCount": 2,
        "parentIdMap": {
            "0": -1,
            "1": 0
        },
        "tidyTrace": [
            {
                "children": [
                    {
                        "children": [
                            {
                                "children": [],
                                "depth": 1,
                                "id": 1,
                                "order": 1
                            }
                        ],
                        "depth": 0,
                        "id": 0,
                        "order": 0
                    }
                ],
                "depth": -1,
                "id": -1,
                "order": -1
            }
        ],
        "tidyTraceNodeCount": 2
    },
    "state_change": {
        "stateChanges": [
            {
                "address": "0x1f54638b7737193ffd86c19ec51907a7c41755d8",
                "erc": "ERC-20",
                "slots": [
                    {
                        "current": "0x0000000000000000000000000000000000000000000000000000000000000000",
                        "key": "0x2e144066ef1d13322be34c8f6e75cb227b749f2360b6f0b86c759a51f518de31",
                        "prev": "0x0000000000000000000000000000000000000000000000000000000006422c40"
                    },
                    {
                        "current": "0x0000000000000000000000000000000000000000000000000000000006422c40",
                        "key": "0xb6478c77509269903b2b2f7b58822bde20cfedf3ed354e010995ac7f5b971e4d",
                        "prev": "0x0000000000000000000000000000000000000000000000000000000000000000"
                    }
                ],
                "storageVariables": [
                    {
                        "name": "balances",
                        "type": "mapping(address => uint256)",
                        "value": {
                            "pairs": [
                                {
                                    "key": "0x3463934897d356b8659cbdfe15209e3bc3229105",
                                    "value": {
                                        "current": "105000000",
                                        "prev": "0",
                                        "typeTag": 1
                                    }
                                },
                                {
                                    "key": "0xd33b64f449f3357b1a5c1ac74db6dff9667f0745",
                                    "value": {
                                        "current": "0",
                                        "prev": "105000000",
                                        "typeTag": 1
                                    }
                                }
                            ],
                            "typeTag": 4
                        }
                    }
                ]
            }
        ]
    }
}