{
    "balance_change": {
        "balanceChanges": [
            {
                "account": "0x3afc13d595ce3cbd8c12d7fa9a06cc09ebf43e26",
                "assets": [
                    {
                        "address": "0xeeeeeeeeeeeeeeeeeeeeeeeeeeeeeeeeeeeeeeee",
                        "amount": "1.02350253058188777",
                        "iconUrl": "https://assets.blocksec.com/image/1663669189317-3.png",
                        "isERC1155": false,
                        "isERC721": false,
                        "sign": true,
                        "value": "1361.3607164830999069"
                    },
                    {
                        "address": "0xce3f08e664693ca792cace4af1364d5e220827b2",
                        "amount": "1,104,728.3",
                        "iconUrl": "",
                        "isERC1155": false,
                        "isERC721": false,
                        "sign": false,
                        "value": "1369.895206"
                    }
                ]
            },
            {
                "account": "0x5716d2cbf2f44b5b9e3ed7b7a6eb58ce5996f318",
                "assets": [
                    {
                        "address": "0xce3f08e664693ca792cace4af1364d5e220827b2",
                        "amount": "1,104,728.3",
                        "iconUrl": "",
                        "isERC1155": false,
                        "isERC721": false,
                        "sign": true,
                        "value": "1369.895206"
                    },
                    {
                        "address": "0xc02aaa39b223fe8d0a0e5c4f27ead9083c756cc2",
                        "amount": "1.02350253058188777",
                        "iconUrl": "https://assets.blocksec.com/icon/f1cb2d02c471d545bbc7722daf3277fd852d98e63d118771af7047bd8256c516.png",
                        "isERC1155": false,
                        "isERC721": false,
                        "sign": false,
                        "value": "1361.3607164830999069"
                    }
                ]
            },
            {
                "account": "0xc02aaa39b223fe8d0a0e5c4f27ead9083c756cc2",
                "assets": [
                    {
                        "address": "0xeeeeeeeeeeeeeeeeeeeeeeeeeeeeeeeeeeeeeeee",
                        "amount": "1.02350253058188777",
                        "iconUrl": "https://assets.blocksec.com/image/1663669189317-3.png",
                        "isERC1155": false,
                        "isERC721": false,
                        "sign": false,
                        "value": "1361.3607164830999069"
                    },
                    {
                        "address": "0xc02aaa39b223fe8d0a0e5c4f27ead9083c756cc2",
                        "amount": "1.02350253058188777",
                        "iconUrl": "https://assets.blocksec.com/icon/f1cb2d02c471d545bbc7722daf3277fd852d98e63d118771af7047bd8256c516.png",
                        "isERC1155": false,
                        "isERC721": false,
                        "sign": true,
                        "value": "1361.3607164830999069"
                    }
                ]
            }
        ]
    },
    "profile": {
        "basic_info": {
            "baseFee": "17.94874348",
            "blockNumber": 15746312,
            "callData": "0x791ac9470000000000000000000000000000000000000000000000000003ecbe99e51300000000000000000000000000000000000000000000000000000000003cb348a400000000000000000000000000000000000000000000000000000000000000a00000000000000000000000003afc13d595ce3cbd8c12d7fa9a06cc09ebf43e2600000000000000000000000000000000000000000000000000000000634958ca0000000000000000000000000000000000000000000000000000000000000002000000000000000000000000ce3f08e664693ca792cace4af1364d5e220827b2000000000000000000000000c02aaa39b223fe8d0a0e5c4f27ead9083c756cc2",
            "debugEnable": true,
            "errorInfo": "",
            "eventCount": 6,
            "feeRecipient": "0x6d2e03b7effeae98bd302a9f836d0d6ab0002766",
            "formatValue": "0",
            "gasLimit": 342212,
            "gasPrice": "24.427025586",
            "gasUsed": 306124,
            "intTxnCount": 11,
            "internalRevert": false,
            "internalRevertMessage": "",
            "isContractCreation": false,
            "isFlashloan": false,
            "maxFee": "24.427025586",
            "nonce": 255,
            "overwritedBlockNumber": -1,
            "priorityFee": "24.427025586",
            "receiver": "0x0c17e776cd218252adfca8d4e761d3fe757e9778",
            "revertMessage": "",
            "sender": "0x3afc13d595ce3cbd8c12d7fa9a06cc09ebf43e26",
            "simulationEnable": true,
            "sourceTxnHash": "0xb118fe9df40aeb14503a32030c0f8adf5cad8b6865bf5c33c2fb2885b8b87c53",
            "status": true,
            "timestamp": "2022-10-14T12:21:11Z",
            "transactionFee": "0.007477698780488664",
            "txnHash": "0xb118fe9df40aeb14503a32030c0f8adf5cad8b6865bf5c33c2fb2885b8b87c53",
            "txnIndex": 0,
            "type": 2,
            "value": "0"
        },
        "fund_flow": [
            {
                "amount": "1,104,728.3",
                "from": "0x3afc13d595ce3cbd8c12d7fa9a06cc09ebf43e26",
                "id": 1,
                "isERC1155": false,
                "isERC721": false,
                "isReverted": false,
                "order": 1,
                "to": "0x5716d2cbf2f44b5b9e3ed7b7a6eb58ce5996f318",
                "token": "0xce3f08e664693ca792cace4af1364d5e220827b2"
            },
            {
                "amount": "1.02350253058188777",
                "from": "0x5716d2cbf2f44b5b9e3ed7b7a6eb58ce5996f318",
                "id": 2,
                "isERC1155": false,
                "isERC721": false,
                "isReverted": false,
                "order": 2,
                "to": "0x0c17e776cd218252adfca8d4e761d3fe757e9778",
                "token": "0xc02aaa39b223fe8d0a0e5c4f27ead9083c756cc2"
            },
            {
                "amount": "1.02350253058188777",
                "from": "0xc02aaa39b223fe8d0a0e5c4f27ead9083c756cc2",
                "id": 3,
                "isERC1155": false,
                "isERC721": false,
                "isReverted": false,
                "order": 3,
                "to": "0x0c17e776cd218252adfca8d4e761d3fe757e9778",
                "token": "0xeeeeeeeeeeeeeeeeeeeeeeeeeeeeeeeeeeeeeeee"
            },
            {
                "amount": "1.02350253058188777",
                "from": "0x0c17e776cd218252adfca8d4e761d3fe757e9778",
                "id": 4,
                "isERC1155": false,
                "isERC721": false,
                "isReverted": false,
                "order": 4,
                "to": "0xc02aaa39b223fe8d0a0e5c4f27ead9083c756cc2",
                "token": "0xc02aaa39b223fe8d0a0e5c4f27ead9083c756cc2"
            },
            {
                "amount": "1.02350253058188777",
                "from": "0x0c17e776cd218252adfca8d4e761d3fe757e9778",
                "id": 5,
                "isERC1155": false,
                "isERC721": false,
                "isReverted": false,
                "order": 5,
                "to": "0x3afc13d595ce3cbd8c12d7fa9a06cc09ebf43e26",
                "token": "0xeeeeeeeeeeeeeeeeeeeeeeeeeeeeeeeeeeeeeeee"
            }
        ],
        "token_infos": [
            {
                "address": "0xeeeeeeeeeeeeeeeeeeeeeeeeeeeeeeeeeeeeeeee",
                "decimals": 18
            },
            {
                "address": "0xc02aaa39b223fe8d0a0e5c4f27ead9083c756cc2",
                "decimals": 18
            },
            {
                "address": "0xce3f08e664693ca792cace4af1364d5e220827b2",
                "decimals": 9
            }
        ]
    },
    "address_label": {
        "labels": [
            {
                "address": "0xc02aaa39b223fe8d0a0e5c4f27ead9083c756cc2",
                "label": "Wrapped Ether (WETH)"
            },
            {
                "address": "0xce3f08e664693ca792cace4af1364d5e220827b2",
                "label": "Saitama: SAITAMA Token"
            },
            {
                "address": "0x0000000000000000000000000000000000000001",
                "label": "Precompiled"
            },
            {
                "address": "0x0000000000000000000000000000000000000003",
                "label": "Precompiled"
            },
            {
                "address": "0xeeeeeeeeeeeeeeeeeeeeeeeeeeeeeeeeeeeeeeee",
                "label": "Ether"
            },
            {
                "address": "0x0c17e776cd218252adfca8d4e761d3fe757e9778",
                "label": "Saitama: SaitaSwap Router 2"
            },
            {
                "address": "0x5716d2cbf2f44b5b9e3ed7b7a6eb58ce5996f318",
                "label": "SaitaSwap LPs (slp)"
            },
            {
                "address": "0x0000000000000000000000000000000000000002",
                "label": "Precompiled"
            },
            {
                "address": "0x0000000000000000000000000000000000000004",
                "label": "Precompiled"
            }
        ]
    },
    "trace": {
        "accountLabels": null,
        "dataMap": {
            "-1": {
                "invocation": {
                    "address": "0x3afc13d595ce3cbd8c12d7fa9a06cc09ebf43e26",
                    "callData": "",
                    "decodedMethod": null,
                    "errorInfo": "",
                    "fromAddress": "",
                    "gasUsed": 0,
                    "id": -1,
                    "methodDecoded": false,
                    "operation": "",
                    "output": "",
                    "revert": false,
                    "revertMessage": "",
                    "selector": "",
                    "status": false,
                    "value": ""
                },
                "nodeType": 0
            },
            "0": {
                "invocation": {
                    "address": "0x0c17e776cd218252adfca8d4e761d3fe757e9778",
                    "callData": "0x0000000000000000000000000000000000000000000000000003ecbe99e51300000000000000000000000000000000000000000000000000000000003cb348a400000000000000000000000000000000000000000000000000000000000000a00000000000000000000000003afc13d595ce3cbd8c12d7fa9a06cc09ebf43e2600000000000000000000000000000000000000000000000000000000634958ca0000000000000000000000000000000000000000000000000000000000000002000000000000000000000000ce3f08e664693ca792cace4af1364d5e220827b2000000000000000000000000c02aaa39b223fe8d0a0e5c4f27ead9083c756cc2",
                    "decodedMethod": {
                        "callParams": [
                            {
                                "name": "amountIn",
                                "type": "uint256",
                                "value": "1,104,728,300,000,000"
                            },
                            {
                                "name": "amountOutMin",
                                "type": "uint256",
                                "value": "1,018,382,500"
                            },
                            {
                                "name": "path",
                                "type": "address[]",
                                "value": [
                                    "0xce3f08e664693ca792cace4af1364d5e220827b2",
                                    "0xc02aaa39b223fe8d0a0e5c4f27ead9083c756cc2"
                                ]
                            },
                            {
                                "name": "to",
                                "type": "address",
                                "value": "0x3afc13d595ce3cbd8c12d7fa9a06cc09ebf43e26"
                            },
                            {
                                "name": "deadline",
                                "type": "uint256",
                                "value": "1,665,751,242"
                            }
                        ],
                        "constructorArguments": "",
                        "name": "swapExactTokensForETHSupportingFeeOnTransferTokens",
                        "returnParams": [],
                        "signature": "swapExactTokensForETHSupportingFeeOnTransferTokens(uint256,uint256,address[],address,uint256)"
                    },
                    "errorInfo": "",
                    "fromAddress": "0x3afc13d595ce3cbd8c12d7fa9a06cc09ebf43e26",
                    "gasUsed": 306124,
                    "id": 0,
                    "methodDecoded": true,
                    "operation": "CALL",
                    "output": "",
                    "revert": false,
                    "revertMessage": "",
                    "selector": "0x791ac947",
                    "status": true,
                    "value": "0"
                },
                "nodeType": 0
            },
            "1": {
                "invocation": {
                    "address": "0xce3f08e664693ca792cace4af1364d5e220827b2",
                    "callData": "0x0000000000000000000000003afc13d595ce3cbd8c12d7fa9a06cc09ebf43e260000000000000000000000005716d2cbf2f44b5b9e3ed7b7a6eb58ce5996f3180000000000000000000000000000000000000000000000000003ecbe99e51300",
                    "decodedMethod": {
                        "callParams": [
                            {
                                "name": "sender",
                                "type": "address",
                                "value": "0x3afc13d595ce3cbd8c12d7fa9a06cc09ebf43e26"
                            },
                            {
                                "name": "recipient",
                                "type": "address",
                                "value": "0x5716d2cbf2f44b5b9e3ed7b7a6eb58ce5996f318"
                            },
                            {
                                "decimalAvailable": true,
                                "name": "amount",
                                "type": "uint256",
                                "value": "1,104,728,300,000,000"
                            }
                        ],
                        "constructorArguments": "",
                        "name": "transferFrom",
                        "returnParams": [
                            {
                                "name": "",
                                "type": "bool",
                                "value": true
                            }
                        ],
                        "signature": "transferFrom(address,address,uint256)"
                    },
                    "errorInfo": "",
                    "fromAddress": "0x0c17e776cd218252adfca8d4e761d3fe757e9778",
                    "gasUsed": 170736,
                    "id": 1,
                    "methodDecoded": true,
                    "operation": "CALL",
                    "output": "0x0000000000000000000000000000000000000000000000000000000000000001",
                    "revert": false,
                    "revertMessage": "",
                    "selector": "0x23b872dd",
                    "status": true,
                    "value": "0"
                },
                "nodeType": 0
            },
            "10": {
                "invocation": {
                    "address": "0xce3f08e664693ca792cace4af1364d5e220827b2",
                    "callData": "0x0000000000000000000000005716d2cbf2f44b5b9e3ed7b7a6eb58ce5996f318",
                    "decodedMethod": {
                        "callParams": [
                            {
                                "name": "account",
                                "type": "address",
                                "value": "0x5716d2cbf2f44b5b9e3ed7b7a6eb58ce5996f318"
                            }
                        ],
                        "constructorArguments": "",
                        "name": "balanceOf",
                        "returnParams": [
                            {
                                "decimalAvailable": true,
                                "name": "",
                                "type": "uint256",
                                "value": "169,580,565,336,549,940"
                            }
                        ],
                        "signature": "balanceOf(address)"
                    },
                    "errorInfo": "",
                    "fromAddress": "0x5716d2cbf2f44b5b9e3ed7b7a6eb58ce5996f318",
                    "gasUsed": 22381,
                    "id": 10,
                    "methodDecoded": true,
                    "operation": "STATICCALL",
                    "output": "0x000000000000000000000000000000000000000000000000025a78a02db1ea34",
                    "revert": false,
                    "revertMessage": "",
                    "selector": "0x70a08231",
                    "status": true,
                    "value": "0"
                },
                "nodeType": 0
            },
            "11": {
                "event": {
                    "contract": "0x5716d2cbf2f44b5b9e3ed7b7a6eb58ce5996f318",
                    "decodedLog": {
                        "name": "Sync",
                        "params": [
                            {
                                "name": "reserve0",
                                "type": "uint112",
                                "value": "156,401,359,106,975,418,527"
                            },
                            {
                                "name": "reserve1",
                                "type": "uint112",
                                "value": "169,580,565,336,549,940"
                            }
                        ],
                        "signature": "Sync(uint112,uint112)"
                    },
                    "id": 11,
                    "logData": "0x0000000000000000000000000000000000000000000000087a813f753793489f000000000000000000000000000000000000000000000000025a78a02db1ea34",
                    "logDecoded": true,
                    "operation": "EVENT",
                    "revert": false,
                    "status": true,
                    "topics": [
                        "0x1c411e9a96e071241c2f21f7726b17ae89e3cab4c78be50e062b03a9fffbbad1"
                    ]
                },
                "nodeType": 1
            },
            "12": {
                "event": {
                    "contract": "0x5716d2cbf2f44b5b9e3ed7b7a6eb58ce5996f318",
                    "decodedLog": {
                        "name": "Swap",
                        "params": [
                            {
                                "name": "sender",
                                "type": "address",
                                "value": "0x0c17e776cd218252adfca8d4e761d3fe757e9778"
                            },
                            {
                                "name": "to",
                                "type": "address",
                                "value": "0x0c17e776cd218252adfca8d4e761d3fe757e9778"
                            },
                            {
                                "name": "amount0In",
                                "type": "uint256",
                                "value": "0"
                            },
                            {
                                "name": "amount1In",
                                "type": "uint256",
                                "value": "1,104,728,300,000,000"
                            },
                            {
                                "name": "amount0Out",
                                "type": "uint256",
                                "value": "1,023,502,530,581,887,770"
                            },
                            {
                                "name": "amount1Out",
                                "type": "uint256",
                                "value": "0"
                            }
                        ],
                        "signature": "Swap(address,uint256,uint256,uint256,uint256,address)"
                    },
                    "id": 12,
                    "logData": "0x00000000000000000000000000000000000000000000000000000000000000000000000000000000000000000000000000000000000000000003ecbe99e513000000000000000000000000000000000000000000000000000e343620fa0bfb1a0000000000000000000000000000000000000000000000000000000000000000",
                    "logDecoded": true,
                    "operation": "EVENT",
                    "revert": false,
                    "status": true,
                    "topics": [
                        "0xd78ad95fa46c994b6551d0da85fc275fe613ce37657fb8d5e3d130840159d822",
                        "0x0000000000000000000000000c17e776cd218252adfca8d4e761d3fe757e9778",
                        "0x0000000000000000000000000c17e776cd218252adfca8d4e761d3fe757e9778"
                    ]
                },
                "nodeType": 1
            },
            "13": {
                "invocation": {
                    "address": "0xc02aaa39b223fe8d0a0e5c4f27ead9083c756cc2",
                    "callData": "0x0000000000000000000000000c17e776cd218252adfca8d4e761d3fe757e9778",
                    "decodedMethod": {
                        "callParams": [
                            {
                                "name": "",
                                "type": "address",
                                "value": "0x0c17e776cd218252adfca8d4e761d3fe757e9778"
                            }
                        ],
                        "constructorArguments": "",
                        "name": "balanceOf",
                        "returnParams": [
                            {
                                "decimalAvailable": true,
                                "name": "",
                                "type": "uint256",
                                "value": "1,023,502,530,581,887,770"
                            }
                        ],
                        "signature": "balanceOf(address)"
                    },
                    "errorInfo": "",
                    "fromAddress": "0x0c17e776cd218252adfca8d4e761d3fe757e9778",
                    "gasUsed": 534,
                    "id": 13,
                    "methodDecoded": true,
                    "operation": "STATICCALL",
                    "output": "0x0000000000000000000000000000000000000000000000000e343620fa0bfb1a",
                    "revert": false,
                    "revertMessage": "",
                    "selector": "0x70a08231",
                    "status": true,
                    "value": "0"
                },
                "nodeType": 0
            },
            "14": {
                "invocation": {
                    "address": "0xc02aaa39b223fe8d0a0e5c4f27ead9083c756cc2",
                    "callData": "0x0000000000000000000000000000000000000000000000000e343620fa0bfb1a",
                    "decodedMethod": {
                        "callParams": [
                            {
                                "name": "wad",
                                "type": "uint256",
                                "value": "1,023,502,530,581,887,770"
                            }
                        ],
                        "constructorArguments": "",
                        "name": "withdraw",
                        "returnParams": [],
                        "signature": "withdraw(uint256)"
                    },
                    "errorInfo": "",
                    "fromAddress": "0x0c17e776cd218252adfca8d4e761d3fe757e9778",
                    "gasUsed": 9235,
                    "id": 14,
                    "methodDecoded": true,
                    "operation": "CALL",
                    "output": "",
                    "revert": false,
                    "revertMessage": "",
                    "selector": "0x2e1a7d4d",
                    "status": true,
                    "value": "0"
                },
                "nodeType": 0
            },
            "15": {
                "invocation": {
                    "address": "0x0c17e776cd218252adfca8d4e761d3fe757e9778",
                    "callData": "0x",
                    "decodedMethod": null,
                    "errorInfo": "",
                    "fromAddress": "0xc02aaa39b223fe8d0a0e5c4f27ead9083c756cc2",
                    "gasUsed": 95,
                    "id": 15,
                    "methodDecoded": false,
                    "operation": "CALL",
                    "output": "",
                    "revert": false,
                    "revertMessage": "",
                    "selector": "fallback",
                    "status": true,
                    "value": "1.02350253058188777"
                },
                "nodeType": 0
            },
            "16": {
                "event": {
                    "contract": "0xc02aaa39b223fe8d0a0e5c4f27ead9083c756cc2",
                    "decodedLog": {
                        "name": "Withdrawal",
                        "params": [
                            {
                                "name": "src",
                                "type": "address",
                                "value": "0x0c17e776cd218252adfca8d4e761d3fe757e9778"
                            },
                            {
                                "name": "wad",
                                "type": "uint256",
                                "value": "1,023,502,530,581,887,770"
                            }
                        ],
                        "signature": "Withdrawal(address,uint256)"
                    },
                    "id": 16,
                    "logData": "0x0000000000000000000000000000000000000000000000000e343620fa0bfb1a",
                    "logDecoded": true,
                    "operation": "EVENT",
                    "revert": false,
                    "status": true,
                    "topics": [
                        "0x7fcf532c15f0a6db0bd6d0e038bea71d30d808c7d98cb3bf7268a95bf5081b65",
                        "0x0000000000000000000000000c17e776cd218252adfca8d4e761d3fe757e9778"
                    ]
                },
                "nodeType": 1
            },
            "17": {
                "invocation": {
                    "address": "0x3afc13d595ce3cbd8c12d7fa9a06cc09ebf43e26",
                    "callData": "0x",
                    "decodedMethod": null,
                    "errorInfo": "",
                    "fromAddress": "0x0c17e776cd218252adfca8d4e761d3fe757e9778",
                    "gasUsed": 0,
                    "id": 17,
                    "methodDecoded": false,
                    "operation": "CALL",
                    "output": "",
                    "revert": false,
                    "revertMessage": "",
                    "selector": "fallback",
                    "status": true,
                    "value": "1.02350253058188777"
                },
                "nodeType": 0
            },
            "2": {
                "event": {
                    "contract": "0xce3f08e664693ca792cace4af1364d5e220827b2",
                    "decodedLog": {
                        "name": "Transfer",
                        "params": [
                            {
                                "name": "from",
                                "type": "address",
                                "value": "0x3afc13d595ce3cbd8c12d7fa9a06cc09ebf43e26"
                            },
                            {
                                "name": "to",
                                "type": "address",
                                "value": "0x5716d2cbf2f44b5b9e3ed7b7a6eb58ce5996f318"
                            },
                            {
                                "decimalAvailable": true,
                                "name": "value",
                                "type": "uint256",
                                "value": "1,104,728,300,000,000"
                            }
                        ],
                        "signature": "Transfer(address,address,uint256)"
                    },
                    "id": 2,
                    "logData": "0x0000000000000000000000000000000000000000000000000003ecbe99e51300",
                    "logDecoded": true,
                    "operation": "EVENT",
                    "revert": false,
                    "status": true,
                    "topics": [
                        "0xddf252ad1be2c89b69c2b068fc378daa952ba7f163c4a11628f55a4df523b3ef",
                        "0x0000000000000000000000003afc13d595ce3cbd8c12d7fa9a06cc09ebf43e26",
                        "0x0000000000000000000000005716d2cbf2f44b5b9e3ed7b7a6eb58ce5996f318"
                    ]
                },
                "nodeType": 1
            },
            "3": {
                "event": {
                    "contract": "0xce3f08e664693ca792cace4af1364d5e220827b2",
                    "decodedLog": {
                        "name": "Approval",
                        "params": [
                            {
                                "name": "owner",
                                "type": "address",
                                "value": "0x3afc13d595ce3cbd8c12d7fa9a06cc09ebf43e26"
                            },
                            {
                                "name": "spender",
                                "type": "address",
                                "value": "0x0c17e776cd218252adfca8d4e761d3fe757e9778"
                            },
                            {
                                "decimalAvailable": true,
                                "name": "value",
                                "type": "uint256",
                                "value": "115,792,089,237,316,195,423,570,985,008,687,907,853,269,984,665,640,564,039,457,520,291,419,802,627,915"
                            }
                        ],
                        "signature": "Approval(address,address,uint256)"
                    },
                    "id": 3,
                    "logData": "0xffffffffffffffffffffffffffffffffffffffffffffffffff1da22fd8e8ef4b",
                    "logDecoded": true,
                    "operation": "EVENT",
                    "revert": false,
                    "status": true,
                    "topics": [
                        "0x8c5be1e5ebec7d5bd14f71427d1e84f3dd0314c0f7b2291e5b200ac8c7c3b925",
                        "0x0000000000000000000000003afc13d595ce3cbd8c12d7fa9a06cc09ebf43e26",
                        "0x0000000000000000000000000c17e776cd218252adfca8d4e761d3fe757e9778"
                    ]
                },
                "nodeType": 1
            },
            "4": {
                "invocation": {
                    "address": "0x5716d2cbf2f44b5b9e3ed7b7a6eb58ce5996f318",
                    "callData": "0x",
                    "decodedMethod": {
                        "callParams": [],
                        "constructorArguments": "",
                        "name": "getReserves",
                        "returnParams": [
                            {
                                "name": "_reserve0",
                                "type": "uint112",
                                "value": "157,424,861,637,557,306,297"
                            },
                            {
                                "name": "_reserve1",
                                "type": "uint112",
                                "value": "168,475,837,036,549,940"
                            },
                            {
                                "name": "_blockTimestampLast",
                                "type": "uint32",
                                "value": "1,665,749,051"
                            }
                        ],
                        "signature": "getReserves()"
                    },
                    "errorInfo": "",
                    "fromAddress": "0x0c17e776cd218252adfca8d4e761d3fe757e9778",
                    "gasUsed": 2517,
                    "id": 4,
                    "methodDecoded": true,
                    "operation": "STATICCALL",
                    "output": "0x00000000000000000000000000000000000000000000000888b57596319f43b900000000000000000000000000000000000000000000000002568be193ccd734000000000000000000000000000000000000000000000000000000006349503b",
                    "revert": false,
                    "revertMessage": "",
                    "selector": "0x0902f1ac",
                    "status": true,
                    "value": "0"
                },
                "nodeType": 0
            },
            "5": {
                "invocation": {
                    "address": "0xce3f08e664693ca792cace4af1364d5e220827b2",
                    "callData": "0x0000000000000000000000005716d2cbf2f44b5b9e3ed7b7a6eb58ce5996f318",
                    "decodedMethod": {
                        "callParams": [
                            {
                                "name": "account",
                                "type": "address",
                                "value": "0x5716d2cbf2f44b5b9e3ed7b7a6eb58ce5996f318"
                            }
                        ],
                        "constructorArguments": "",
                        "name": "balanceOf",
                        "returnParams": [
                            {
                                "decimalAvailable": true,
                                "name": "",
                                "type": "uint256",
                                "value": "169,580,565,336,549,940"
                            }
                        ],
                        "signature": "balanceOf(address)"
                    },
                    "errorInfo": "",
                    "fromAddress": "0x0c17e776cd218252adfca8d4e761d3fe757e9778",
                    "gasUsed": 22381,
                    "id": 5,
                    "methodDecoded": true,
                    "operation": "STATICCALL",
                    "output": "0x000000000000000000000000000000000000000000000000025a78a02db1ea34",
                    "revert": false,
                    "revertMessage": "",
                    "selector": "0x70a08231",
                    "status": true,
                    "value": "0"
                },
                "nodeType": 0
            },
            "6": {
                "invocation": {
                    "address": "0x5716d2cbf2f44b5b9e3ed7b7a6eb58ce5996f318",
                    "callData": "0x0000000000000000000000000000000000000000000000000e343620fa0bfb1a00000000000000000000000000000000000000000000000000000000000000000000000000000000000000000c17e776cd218252adfca8d4e761d3fe757e977800000000000000000000000000000000000000000000000000000000000000800000000000000000000000000000000000000000000000000000000000000000",
                    "decodedMethod": {
                        "callParams": [
                            {
                                "name": "amount0Out",
                                "type": "uint256",
                                "value": "1,023,502,530,581,887,770"
                            },
                            {
                                "name": "amount1Out",
                                "type": "uint256",
                                "value": "0"
                            },
                            {
                                "name": "to",
                                "type": "address",
                                "value": "0x0c17e776cd218252adfca8d4e761d3fe757e9778"
                            },
                            {
                                "name": "data",
                                "type": "bytes",
                                "value": "0x"
                            }
                        ],
                        "constructorArguments": "",
                        "name": "swap",
                        "returnParams": [],
                        "signature": "swap(uint256,uint256,address,bytes)"
                    },
                    "errorInfo": "",
                    "fromAddress": "0x0c17e776cd218252adfca8d4e761d3fe757e9778",
                    "gasUsed": 91880,
                    "id": 6,
                    "methodDecoded": true,
                    "operation": "CALL",
                    "output": "",
                    "revert": false,
                    "revertMessage": "",
                    "selector": "0x022c0d9f",
                    "status": true,
                    "value": "0"
                },
                "nodeType": 0
            },
            "7": {
                "invocation": {
                    "address": "0xc02aaa39b223fe8d0a0e5c4f27ead9083c756cc2",
                    "callData": "0x0000000000000000000000000c17e776cd218252adfca8d4e761d3fe757e97780000000000000000000000000000000000000000000000000e343620fa0bfb1a",
                    "decodedMethod": {
                        "callParams": [
                            {
                                "name": "dst",
                                "type": "address",
                                "value": "0x0c17e776cd218252adfca8d4e761d3fe757e9778"
                            },
                            {
                                "decimalAvailable": true,
                                "name": "wad",
                                "type": "uint256",
                                "value": "1,023,502,530,581,887,770"
                            }
                        ],
                        "constructorArguments": "",
                        "name": "transfer",
                        "returnParams": [
                            {
                                "name": "",
                                "type": "bool",
                                "value": true
                            }
                        ],
                        "signature": "transfer(address,uint256)"
                    },
                    "errorInfo": "",
                    "fromAddress": "0x5716d2cbf2f44b5b9e3ed7b7a6eb58ce5996f318",
                    "gasUsed": 29962,
                    "id": 7,
                    "methodDecoded": true,
                    "operation": "CALL",
                    "output": "0x0000000000000000000000000000000000000000000000000000000000000001",
                    "revert": false,
                    "revertMessage": "",
                    "selector": "0xa9059cbb",
                    "status": true,
                    "value": "0"
                },
                "nodeType": 0
            },
            "8": {
                "event": {
                    "contract": "0xc02aaa39b223fe8d0a0e5c4f27ead9083c756cc2",
                    "decodedLog": {
                        "name": "Transfer",
                        "params": [
                            {
                                "name": "src",
                                "type": "address",
                                "value": "0x5716d2cbf2f44b5b9e3ed7b7a6eb58ce5996f318"
                            },
                            {
                                "name": "dst",
                                "type": "address",
                                "value": "0x0c17e776cd218252adfca8d4e761d3fe757e9778"
                            },
                            {
                                "decimalAvailable": true,
                                "name": "wad",
                                "type": "uint256",
                                "value": "1,023,502,530,581,887,770"
                            }
                        ],
                        "signature": "Transfer(address,address,uint256)"
                    },
                    "id": 8,
                    "logData": "0x0000000000000000000000000000000000000000000000000e343620fa0bfb1a",
                    "logDecoded": true,
                    "operation": "EVENT",
                    "revert": false,
                    "status": true,
                    "topics": [
                        "0xddf252ad1be2c89b69c2b068fc378daa952ba7f163c4a11628f55a4df523b3ef",
                        "0x0000000000000000000000005716d2cbf2f44b5b9e3ed7b7a6eb58ce5996f318",
                        "0x0000000000000000000000000c17e776cd218252adfca8d4e761d3fe757e9778"
                    ]
                },
                "nodeType": 1
            },
            "9": {
                "invocation": {
                    "address": "0xc02aaa39b223fe8d0a0e5c4f27ead9083c756cc2",
                    "callData": "0x0000000000000000000000005716d2cbf2f44b5b9e3ed7b7a6eb58ce5996f318",
                    "decodedMethod": {
                        "callParams": [
                            {
                                "name": "",
                                "type": "address",
                                "value": "0x5716d2cbf2f44b5b9e3ed7b7a6eb58ce5996f318"
                            }
                        ],
                        "constructorArguments": "",
                        "name": "balanceOf",
                        "returnParams": [
                            {
                                "decimalAvailable": true,
                                "name": "",
                                "type": "uint256",
                                "value": "156,401,359,106,975,418,527"
                            }
                        ],
                        "signature": "balanceOf(address)"
                    },
                    "errorInfo": "",
                    "fromAddress": "0x5716d2cbf2f44b5b9e3ed7b7a6eb58ce5996f318",
                    "gasUsed": 534,
                    "id": 9,
                    "methodDecoded": true,
                    "operation": "STATICCALL",
                    "output": "0x0000000000000000000000000000000000000000000000087a813f753793489f",
                    "revert": false,
                    "revertMessage": "",
                    "selector": "0x70a08231",
                    "status": true,
                    "value": "0"
                },
                "nodeType": 0
            }
        },
        "gasFlame": [
            {
                "children": [
                    {
                        "children": [
                            {
                                "children": [],
                                "depth": 0,
                                "name": "Initial Gas",
                                "value": 23000
                            },
                            {
                                "children": [
                                    {
                                        "children": [],
                                        "depth": 1,
                                        "name": "transferFrom",
                                        "value": 170736
                                    },
                                    {
                                        "children": [],
                                        "depth": 1,
                                        "name": "getReserves",
                                        "value": 2517
                                    },
                                    {
                                        "children": [],
                                        "depth": 1,
                                        "name": "balanceOf",
                                        "value": 22381
                                    },
                                    {
                                        "children": [
                                            {
                                                "children": [],
                                                "depth": 2,
                                                "name": "transfer",
                                                "value": 29962
                                            },
                                            {
                                                "children": [],
                                                "depth": 2,
                                                "name": "balanceOf",
                                                "value": 534
                                            },
                                            {
                                                "children": [],
                                                "depth": 2,
                                                "name": "balanceOf",
                                                "value": 22381
                                            }
                                        ],
                                        "depth": 1,
                                        "name": "swap",
                                        "value": 91880
                                    },
                                    {
                                        "children": [],
                                        "depth": 1,
                                        "name": "balanceOf",
                                        "value": 534
                                    },
                                    {
                                        "children": [
                                            {
                                                "children": [],
                                                "depth": 2,
                                                "name": "fallback",
                                                "value": 95
                                            }
                                        ],
                                        "depth": 1,
                                        "name": "withdraw",
                                        "value": 9235
                                    },
                                    {
                                        "children": [],
                                        "depth": 1,
                                        "name": "fallback",
                                        "value": 0
                                    }
                                ],
                                "depth": 0,
                                "name": "Executed Gas",
                                "value": 317024
                            }
                        ],
                        "depth": -1,
                        "name": "Actual Gas Used",
                        "value": 306124
                    },
                    {
                        "children": [],
                        "depth": -1,
                        "name": "Refunded Gas",
                        "value": 33900
                    }
                ],
                "depth": -2,
                "name": "Total Gas",
                "value": 340024
            }
        ],
        "isConfirmed": true,
        "mainTrace": [
            {
                "children": [
                    {
                        "children": [
                            {
                                "children": [
                                    {
                                        "children": [],
                                        "depth": 2,
                                        "id": 2,
                                        "order": 2
                                    },
                                    {
                                        "children": [],
                                        "depth": 2,
                                        "id": 3,
                                        "order": 3
                                    }
                                ],
                                "depth": 1,
                                "id": 1,
                                "order": 1
                            },
                            {
                                "children": [],
                                "depth": 1,
                                "id": 4,
                                "order": 4
                            },
                            {
                                "children": [],
                                "depth": 1,
                                "id": 5,
                                "order": 5
                            },
                            {
                                "children": [
                                    {
                                        "children": [
                                            {
                                                "children": [],
                                                "depth": 3,
                                                "id": 8,
                                                "order": 8
                                            }
                                        ],
                                        "depth": 2,
                                        "id": 7,
                                        "order": 7
                                    },
                                    {
                                        "children": [],
                                        "depth": 2,
                                        "id": 9,
                                        "order": 9
                                    },
                                    {
                                        "children": [],
                                        "depth": 2,
                                        "id": 10,
                                        "order": 10
                                    },
                                    {
                                        "children": [],
                                        "depth": 2,
                                        "id": 11,
                                        "order": 11
                                    },
                                    {
                                        "children": [],
                                        "depth": 2,
                                        "id": 12,
                                        "order": 12
                                    }
                                ],
                                "depth": 1,
                                "id": 6,
                                "order": 6
                            },
                            {
                                "children": [],
                                "depth": 1,
                                "id": 13,
                                "order": 13
                            },
                            {
                                "children": [
                                    {
                                        "children": [],
                                        "depth": 2,
                                        "id": 15,
                                        "order": 15
                                    },
                                    {
                                        "children": [],
                                        "depth": 2,
                                        "id": 16,
                                        "order": 16
                                    }
                                ],
                                "depth": 1,
                                "id": 14,
                                "order": 14
                            },
                            {
                                "children": [],
                                "depth": 1,
                                "id": 17,
                                "order": 17
                            }
                        ],
                        "depth": 0,
                        "id": 0,
                        "order": 0
                    }
                ],
                "depth": -1,
                "id": -1,
                "order": -1
            }
        ],
        "mainTraceNodeCount": 18,
        "parentIdMap": {
            "0": -1,
            "1": 0,
            "10": 6,
            "11": 6,
            "12": 6,
            "13": 0,
            "14": 0,
            "15": 14,
            "16": 14,
            "17": 0,
            "2": 1,
            "3": 1,
            "4": 0,
            "5": 0,
            "6": 0,
            "7": 6,
            "8": 7,
            "9": 6
        },
        "tidyTrace": [
            {
                "children": [
                    {
                        "children": [
                            {
                                "children": [
                                    {
                                        "children": [],
                                        "depth": 2,
                                        "id": 2,
                                        "order": 2
                                    },
                                    {
                                        "children": [],
                                        "depth": 2,
                                        "id": 3,
                                        "order": 3
                                    }
                                ],
                                "depth": 1,
                                "id": 1,
                                "order": 1
                            },
                            {
                                "children": [
                                    {
                                        "children": [
                                            {
                                                "children": [],
                                                "depth": 3,
                                                "id": 8,
                                                "order": 8
                                            }
                                        ],
                                        "depth": 2,
                                        "id": 7,
                                        "order": 7
                                    },
                                    {
                                        "children": [],
                                        "depth": 2,
                                        "id": 11,
                                        "order": 11
                                    },
                                    {
                                        "children": [],
                                        "depth": 2,
                                        "id": 12,
                                        "order": 12
                                    }
                                ],
                                "depth": 1,
                                "id": 6,
                                "order": 6
                            },
                            {
                                "children": [
                                    {
                                        "children": [],
                                        "depth": 2,
                                        "id": 15,
                                        "order": 15
                                    },
                                    {
                                        "children": [],
                                        "depth": 2,
                                        "id": 16,
                                        "order": 16
                                    }
                                ],
                                "depth": 1,
                                "id": 14,
                                "order": 14
                            },
                            {
                                "children": [],
                                "depth": 1,
                                "id": 17,
                                "order": 17
                            }
                        ],
                        "depth": 0,
                        "id": 0,
                        "order": 0
                    }
                ],
                "depth": -1,
                "id": -1,
                "order": -1
            }
        ],
        "tidyTraceNodeCount": 13
    },
    "state_change": {
        "stateChanges": [
            {
                "address": "0x5716d2cbf2f44b5b9e3ed7b7a6eb58ce5996f318",
                "erc": "ERC-20",
                "slots": [
                    {
                        "current": "0x00000000000000000000000000023d388b6073700b0d853f975598a5769c7c78",
                        "key": "0x000000000000000000000000000000000000000000000000000000000000000c",
                        "prev": "0x00000000000000000000000000023d2a005a284df3b40636ce437c478f531070"
                    },
                    {
                        "current": "0x63495437000000000000025a78a02db1ea340000000000087a813f753793489f",
                        "key": "0x000000000000000000000000000000000000000000000000000000000000000a",
                        "prev": "0x6349503b00000000000002568be193ccd73400000000000888b57596319f43b9"
                    },
                    {
                        "current": "0x0000000000000000000000000000000015644e230b567f09d1fabb5ff75954b4",
                        "key": "0x000000000000000000000000000000000000000000000000000000000000000b",
                        "prev": "0x00000000000000000000000000000000156336afca68457191a9d585a25b9d9c"
                    }
                ],
                "storageVariables": [
                    {
                        "name": "price0CumulativeLast",
                        "type": "uint256",
                        "value": {
                            "current": "28434602401780391573594168450723959988",
                            "prev": "28428934478167246660083618252010003868",
                            "typeTag": 1
                        }
                    },
                    {
                        "name": "price1CumulativeLast",
                        "type": "uint256",
                        "value": {
                            "current": "49934580914939460484421160547314982748716152",
                            "prev": "49929632166433490387268487190582604030218352",
                            "typeTag": 1
                        }
                    },
                    {
                        "name": "reserve0",
                        "type": "uint112",
                        "value": {
                            "current": "156401359106975418527",
                            "prev": "157424861637557306297",
                            "typeTag": 1
                        }
                    },
                    {
                        "name": "reserve1",
                        "type": "uint112",
                        "value": {
                            "current": "169580565336549940",
                            "prev": "168475837036549940",
                            "typeTag": 1
                        }
                    },
                    {
                        "name": "blockTimestampLast",
                        "type": "uint32",
                        "value": {
                            "current": "1665750071",
                            "prev": "1665749051",
                            "typeTag": 1
                        }
                    }
                ]
            },
            {
                "address": "0xc02aaa39b223fe8d0a0e5c4f27ead9083c756cc2",
                "erc": "ERC-20",
                "slots": [
                    {
                        "current": "0x0000000000000000000000000000000000000000000000087a813f753793489f",
                        "key": "0xd0657c71f3c2adf27748e0c8e118b63240d463b6fba7df6a28da172cc4aba830",
                        "prev": "0x00000000000000000000000000000000000000000000000888b57596319f43b9"
                    }
                ],
                "storageVariables": [
                    {
                        "name": "balanceOf",
                        "type": "mapping(address => uint256)",
                        "value": {
                            "pairs": [
                                {
                                    "key": "0x5716d2cbf2f44b5b9e3ed7b7a6eb58ce5996f318",
                                    "value": {
                                        "current": "156401359106975418527",
                                        "prev": "157424861637557306297",
                                        "typeTag": 1
                                    }
                                }
                            ],
                            "typeTag": 4
                        }
                    }
                ]
            },
            {
                "address": "0xce3f08e664693ca792cace4af1364d5e220827b2",
                "erc": "ERC-20",
                "slots": [
                    {
                        "current": "0x000000000055660d8a04f3f6fdc39b063f10dbd9371eecbd82f59f7d77d5e04e",
                        "key": "0xd041c819c30a6471fe506cfd81d42be79a955e27c181059a039c66e128abd798",
                        "prev": "0x0000b85e560b561d63fc13eba49daec29ff9f623a226314c9a75b328dd90484e"
                    },
                    {
                        "current": "0x006e8d5c3db56b552d02c5b9f9297fb763ade13748f419a86bb434e3dbcd94dd",
                        "key": "0xd0657c71f3c2adf27748e0c8e118b63240d463b6fba7df6a28da172cc4aba830",
                        "prev": "0x006dd4fde7ff7b45530ba5c5524f6bfb02c4c6ecddecd5195434213876132cdd"
                    },
                    {
                        "current": "0xffffffffffffffffffffffffffffffffffffffffffffffffff1da22fd8e8ef4b",
                        "key": "0x73d4a47532e44f0a2a69b94479a99fd627d605619e81a323ade5e7d53f6b885a",
                        "prev": "0xffffffffffffffffffffffffffffffffffffffffffffffffff218eee72ce024b"
                    }
                ],
                "storageVariables": [
                    {
                        "name": "_rOwned",
                        "type": "mapping(address => uint256)",
                        "value": {
                            "pairs": [
                                {
                                    "key": "0x3afc13d595ce3cbd8c12d7fa9a06cc09ebf43e26",
                                    "value": {
                                        "current": "35130964510137161619842055670685709202122186112520562600964382798",
                                        "prev": "1272464624316778084953860429237837163259833830890765208138260582564382798",
                                        "typeTag": 1
                                    }
                                },
                                {
                                    "key": "0x5716d2cbf2f44b5b9e3ed7b7a6eb58ce5996f318",
                                    "value": {
                                        "current": "195328810174294473635870646448439213927512821361099547689697235627750036701",
                                        "prev": "194056345585108660061053947639043432434938696732330968594079537646150036701",
                                        "typeTag": 1
                                    }
                                }
                            ],
                            "typeTag": 4
                        }
                    },
                    {
                        "name": "_allowances",
                        "type": "mapping(address => mapping(address => uint256))",
                        "value": {
                            "pairs": [
                                {
                                    "key": "0x3afc13d595ce3cbd8c12d7fa9a06cc09ebf43e26",
                                    "value": {
                                        "pairs": [
                                            {
                                                "key": "0x0c17e776cd218252adfca8d4e761d3fe757e9778",
                                                "value": {
                                                    "current": "115792089237316195423570985008687907853269984665640564039457520291419802627915",
                                                    "prev": "115792089237316195423570985008687907853269984665640564039457521396148102627915",
                                                    "typeTag": 1
                                                }
                                            }
                                        ],
                                        "typeTag": 4
                                    }
                                }
                            ],
                            "typeTag": 4
                        }
                    }
                ]
            }
        ]
    }
}