{
    "balance_change": {
        "balanceChanges": [
            {
                "account": "0x61b337043558610f3d7f1f08365bff3b61cb9725",
                "assets": [
                    {
                        "address": "0xeeeeeeeeeeeeeeeeeeeeeeeeeeeeeeeeeeeeeeee",
                        "amount": "0.122554",
                        "iconUrl": "https://assets.blocksec.com/image/1663669189317-3.png",
                        "isERC1155": false,
                        "isERC721": false,
                        "sign": true,
                        "value": ""
                    }
                ]
            },
            {
                "account": "0x62635bf75639c07ed45ba391465eae236a91c300",
                "assets": [
                    {
                        "address": "0xeeeeeeeeeeeeeeeeeeeeeeeeeeeeeeeeeeeeeeee",
                        "amount": "0.122554",
                        "iconUrl": "https://assets.blocksec.com/image/1663669189317-3.png",
                        "isERC1155": false,
                        "isERC721": false,
                        "sign": false,
                        "value": ""
                    }
                ]
            }
        ]
    },
    "profile": {
        "basic_info": {
            "baseFee": "",
            "blockNumber": 10505662,
            "callData": "0xe5ab4da200000000000000000000000006fb8489d1d8ae26149ad3fa85975fd9bd8406db00000000000000000000000000000000000000000000000000000000000034dd",
            "debugEnable": true,
            "errorInfo": "",
            "eventCount": 0,
            "feeRecipient": "0x2a5994b501e6a560e727b6c2de5d856396aadd38",
            "formatValue": "0",
            "gasLimit": 7800000,
            "gasPrice": "41",
            "gasUsed": 104902,
            "intTxnCount": 8,
            "internalRevert": false,
            "internalRevertMessage": "",
            "isContractCreation": false,
            "isFlashloan": false,
            "maxFee": "",
            "nonce": 0,
            "overwritedBlockNumber": -1,
            "priorityFee": "",
            "receiver": "0xf6874c88757721a02f47592140905c4336dfbc61",
            "revertMessage": "",
            "sender": "0x6f1355a231b3649f9d7c0b56edfb86d014752ea6",
            "simulationEnable": true,
            "sourceTxnHash": "0xb159d405b0a9c09d343dd1f4eb9a0c7f0d766a2febca035612800af4e4eed765",
            "status": true,
            "timestamp": "2020-07-21T23:13:11Z",
            "transactionFee": "0.004300982",
            "txnHash": "0xb159d405b0a9c09d343dd1f4eb9a0c7f0d766a2febca035612800af4e4eed765",
            "txnIndex": 34,
            "type": 0,
            "value": "0"
        },
        "fund_flow": [
            {
                "amount": "0.122554",
                "from": "0x62635bf75639c07ed45ba391465eae236a91c300",
                "id": 1,
                "isERC1155": false,
                "isERC721": false,
                "isReverted": false,
                "order": 1,
                "to": "0x61b337043558610f3d7f1f08365bff3b61cb9725",
                "token": "0xeeeeeeeeeeeeeeeeeeeeeeeeeeeeeeeeeeeeeeee"
            }
        ],
        "token_infos": [
            {
                "address": "0xc02aaa39b223fe8d0a0e5c4f27ead9083c756cc2",
                "decimals": 18
            },
            {
                "address": "0xeeeeeeeeeeeeeeeeeeeeeeeeeeeeeeeeeeeeeeee",
                "decimals": 18
            }
        ]
    },
    "address_label": {
        "labels": [
            {
                "address": "0xeeeeeeeeeeeeeeeeeeeeeeeeeeeeeeeeeeeeeeee",
                "label": "Ether"
            },
            {
                "address": "0xf6874c88757721a02f47592140905c4336dfbc61",
                "label": "Coinbase: Coinbase Commerce"
            },
            {
                "address": "0x0000000000000000000000000000000000000001",
                "label": "Precompiled"
            },
            {
                "address": "0x0000000000000000000000000000000000000002",
                "label": "Precompiled"
            },
            {
                "address": "0x0000000000000000000000000000000000000003",
                "label": "Precompiled"
            },
            {
                "address": "0x0000000000000000000000000000000000000004",
                "label": "Precompiled"
            }
        ]
    },
    "trace": {
        "accountLabels": null,
        "dataMap": {
            "-1": {
                "invocation": {
                    "address": "0x6f1355a231b3649f9d7c0b56edfb86d014752ea6",
                    "callData": "",
                    "decodedMethod": null,
                    "errorInfo": "",
                    "fromAddress": "",
                    "gasUsed": 0,
                    "id": -1,
                    "methodDecoded": false,
                    "operation": "",
                    "output": "",
                    "revert": false,
                    "revertMessage": "",
                    "selector": "",
                    "status": false,
                    "value": ""
                },
                "nodeType": 0
            },
            "0": {
                "invocation": {
                    "address": "0xf6874c88757721a02f47592140905c4336dfbc61",
                    "callData": "0x00000000000000000000000006fb8489d1d8ae26149ad3fa85975fd9bd8406db00000000000000000000000000000000000000000000000000000000000034dd",
                    "decodedMethod": null,
                    "errorInfo": "",
                    "fromAddress": "0x6f1355a231b3649f9d7c0b56edfb86d014752ea6",
                    "gasUsed": 104902,
                    "id": 0,
                    "methodDecoded": false,
                    "operation": "CALL",
                    "output": "0x00000000000000000000000062635bf75639c07ed45ba391465eae236a91c300",
                    "revert": false,
                    "revertMessage": "",
                    "selector": "0xe5ab4da2",
                    "status": true,
                    "value": "0"
                },
                "nodeType": 0
            },
            "1": {
                "invocation": {
                    "address": "0x62635bf75639c07ed45ba391465eae236a91c300",
                    "callData": "0x3d602d80600a3d3981f3363d3d373d3d3d363d7306fb8489d1d8ae26149ad3fa85975fd9bd8406db5af43d82803e903d91602b57fd5bf3",
                    "decodedMethod": null,
                    "errorInfo": "",
                    "fromAddress": "0xf6874c88757721a02f47592140905c4336dfbc61",
                    "gasUsed": 9031,
                    "id": 1,
                    "methodDecoded": false,
                    "operation": "CREATE2",
                    "output": "0x363d3d373d3d3d363d7306fb8489d1d8ae26149ad3fa85975fd9bd8406db5af43d82803e903d91602b57fd5bf3",
                    "revert": false,
                    "revertMessage": "",
                    "selector": "",
                    "status": true,
                    "value": "0"
                },
                "nodeType": 0
            },
            "2": {
                "invocation": {
                    "address": "0x06fb8489d1d8ae26149ad3fa85975fd9bd8406db",
                    "callData": "0x",
                    "decodedMethod": {
                        "callParams": [],
                        "constructorArguments": "",
                        "name": "destination",
                        "returnParams": [
                            {
                                "name": "",
                                "type": "address",
                                "value": "0x61b337043558610f3d7f1f08365bff3b61cb9725"
                            }
                        ],
                        "signature": "destination()"
                    },
                    "errorInfo": "",
                    "fromAddress": "0xf6874c88757721a02f47592140905c4336dfbc61",
                    "gasUsed": 1195,
                    "id": 2,
                    "methodDecoded": true,
                    "operation": "STATICCALL",
                    "output": "0x00000000000000000000000061b337043558610f3d7f1f08365bff3b61cb9725",
                    "revert": false,
                    "revertMessage": "",
                    "selector": "0xb269681d",
                    "status": true,
                    "value": "0"
                },
                "nodeType": 0
            },
            "3": {
                "invocation": {
                    "address": "0x62635bf75639c07ed45ba391465eae236a91c300",
                    "callData": "0x00000000000000000000000061b337043558610f3d7f1f08365bff3b61cb9725",
                    "decodedMethod": {
                        "callParams": [
                            {
                                "name": "controller_",
                                "type": "address",
                                "value": "0x61b337043558610f3d7f1f08365bff3b61cb9725"
                            }
                        ],
                        "constructorArguments": "",
                        "name": "init",
                        "returnParams": [],
                        "signature": "init(address)"
                    },
                    "errorInfo": "",
                    "fromAddress": "0xf6874c88757721a02f47592140905c4336dfbc61",
                    "gasUsed": 22817,
                    "id": 3,
                    "methodDecoded": true,
                    "operation": "CALL",
                    "output": "",
                    "revert": false,
                    "revertMessage": "",
                    "selector": "0x19ab453c",
                    "status": true,
                    "value": "0"
                },
                "nodeType": 0
            },
            "4": {
                "invocation": {
                    "address": "0x06fb8489d1d8ae26149ad3fa85975fd9bd8406db",
                    "callData": "0x00000000000000000000000061b337043558610f3d7f1f08365bff3b61cb9725",
                    "decodedMethod": {
                        "callParams": [
                            {
                                "name": "controller_",
                                "type": "address",
                                "value": "0x61b337043558610f3d7f1f08365bff3b61cb9725"
                            }
                        ],
                        "constructorArguments": "",
                        "name": "init",
                        "returnParams": [],
                        "signature": "init(address)"
                    },
                    "errorInfo": "",
                    "fromAddress": "0x62635bf75639c07ed45ba391465eae236a91c300",
                    "gasUsed": 22048,
                    "id": 4,
                    "methodDecoded": true,
                    "operation": "DELEGATECALL",
                    "output": "",
                    "revert": false,
                    "revertMessage": "",
                    "selector": "0x19ab453c",
                    "status": true,
                    "value": "0"
                },
                "nodeType": 0
            },
            "5": {
                "invocation": {
                    "address": "0x62635bf75639c07ed45ba391465eae236a91c300",
                    "callData": "0x",
                    "decodedMethod": {
                        "callParams": [],
                        "constructorArguments": "",
                        "name": "flushETH",
                        "returnParams": [],
                        "signature": "flushETH()"
                    },
                    "errorInfo": "",
                    "fromAddress": "0xf6874c88757721a02f47592140905c4336dfbc61",
                    "gasUsed": 11914,
                    "id": 5,
                    "methodDecoded": true,
                    "operation": "CALL",
                    "output": "",
                    "revert": false,
                    "revertMessage": "",
                    "selector": "0x69f8ef0c",
                    "status": true,
                    "value": "0"
                },
                "nodeType": 0
            },
            "6": {
                "invocation": {
                    "address": "0x06fb8489d1d8ae26149ad3fa85975fd9bd8406db",
                    "callData": "0x",
                    "decodedMethod": {
                        "callParams": [],
                        "constructorArguments": "",
                        "name": "flushETH",
                        "returnParams": [],
                        "signature": "flushETH()"
                    },
                    "errorInfo": "",
                    "fromAddress": "0x62635bf75639c07ed45ba391465eae236a91c300",
                    "gasUsed": 11151,
                    "id": 6,
                    "methodDecoded": true,
                    "operation": "DELEGATECALL",
                    "output": "",
                    "revert": false,
                    "revertMessage": "",
                    "selector": "0x69f8ef0c",
                    "status": true,
                    "value": "0"
                },
                "nodeType": 0
            },
            "7": {
                "invocation": {
                    "address": "0xca5faf4c4134bc4f43e910c857723a744b0d2d68",
                    "callData": "0x00000000000000000000000061b337043558610f3d7f1f08365bff3b61cb9725",
                    "decodedMethod": {
                        "callParams": [
                            {
                                "name": "to",
                                "type": "address",
                                "value": "0x61b337043558610f3d7f1f08365bff3b61cb9725"
                            }
                        ],
                        "constructorArguments": "",
                        "name": "flushETH",
                        "returnParams": [],
                        "signature": "flushETH(address)"
                    },
                    "errorInfo": "",
                    "fromAddress": "0x62635bf75639c07ed45ba391465eae236a91c300",
                    "gasUsed": 8547,
                    "id": 7,
                    "methodDecoded": true,
                    "operation": "DELEGATECALL",
                    "output": "",
                    "revert": false,
                    "revertMessage": "",
                    "selector": "0xdc426881",
                    "status": true,
                    "value": "0"
                },
                "nodeType": 0
            },
            "8": {
                "invocation": {
                    "address": "0x61b337043558610f3d7f1f08365bff3b61cb9725",
                    "callData": "0x",
                    "decodedMethod": null,
                    "errorInfo": "",
                    "fromAddress": "0x62635bf75639c07ed45ba391465eae236a91c300",
                    "gasUsed": 0,
                    "id": 8,
                    "methodDecoded": false,
                    "operation": "CALL",
                    "output": "",
                    "revert": false,
                    "revertMessage": "",
                    "selector": "fallback",
                    "status": true,
                    "value": "0.122554"
                },
                "nodeType": 0
            }
        },
        "gasFlame": [
            {
                "children": [
                    {
                        "children": [
                            {
                                "children": [],
                                "depth": 0,
                                "name": "Initial Gas",
                                "value": 21584
                            },
                            {
                                "children": [
                                    {
                                        "children": [],
                                        "depth": 1,
                                        "name": "contract creation",
                                        "value": 9031
                                    },
                                    {
                                        "children": [],
                                        "depth": 1,
                                        "name": "destination",
                                        "value": 1195
                                    },
                                    {
                                        "children": [
                                            {
                                                "children": [],
                                                "depth": 2,
                                                "name": "init",
                                                "value": 22048
                                            }
                                        ],
                                        "depth": 1,
                                        "name": "init",
                                        "value": 22817
                                    },
                                    {
                                        "children": [
                                            {
                                                "children": [
                                                    {
                                                        "children": [
                                                            {
                                                                "children": [],
                                                                "depth": 4,
                                                                "name": "fallback",
                                                                "value": 0
                                                            }
                                                        ],
                                                        "depth": 3,
                                                        "name": "flushETH",
                                                        "value": 8547
                                                    }
                                                ],
                                                "depth": 2,
                                                "name": "flushETH",
                                                "value": 11151
                                            }
                                        ],
                                        "depth": 1,
                                        "name": "flushETH",
                                        "value": 11914
                                    }
                                ],
                                "depth": 0,
                                "name": "Executed Gas",
                                "value": 83318
                            }
                        ],
                        "depth": -1,
                        "name": "Actual Gas Used",
                        "value": 104902
                    },
                    {
                        "children": [],
                        "depth": -1,
                        "name": "Refunded Gas",
                        "value": 0
                    }
                ],
                "depth": -2,
                "name": "Total Gas",
                "value": 104902
            }
        ],
        "isConfirmed": true,
        "mainTrace": [
            {
                "children": [
                    {
                        "children": [
                            {
                                "children": [],
                                "depth": 1,
                                "id": 1,
                                "order": 1
                            },
                            {
                                "children": [],
                                "depth": 1,
                                "id": 2,
                                "order": 2
                            },
                            {
                                "children": [
                                    {
                                        "children": [],
                                        "depth": 2,
                                        "id": 4,
                                        "order": 4
                                    }
                                ],
                                "depth": 1,
                                "id": 3,
                                "order": 3
                            },
                            {
                                "children": [
                                    {
                                        "children": [
                                            {
                                                "children": [
                                                    {
                                                        "children": [],
                                                        "depth": 4,
                                                        "id": 8,
                                                        "order": 8
                                                    }
                                                ],
                                                "depth": 3,
                                                "id": 7,
                                                "order": 7
                                            }
                                        ],
                                        "depth": 2,
                                        "id": 6,
                                        "order": 6
                                    }
                                ],
                                "depth": 1,
                                "id": 5,
                                "order": 5
                            }
                        ],
                        "depth": 0,
                        "id": 0,
                        "order": 0
                    }
                ],
                "depth": -1,
                "id": -1,
                "order": -1
            }
        ],
        "mainTraceNodeCount": 9,
        "parentIdMap": {
            "0": -1,
            "1": 0,
            "2": 0,
            "3": 0,
            "4": 3,
            "5": 0,
            "6": 5,
            "7": 6,
            "8": 7
        },
        "tidyTrace": [
            {
                "children": [
                    {
                        "children": [
                            {
                                "children": [],
                                "depth": 1,
                                "id": 1,
                                "order": 1
                            },
                            {
                                "children": [
                                    {
                                        "children": [],
                                        "depth": 2,
                                        "id": 4,
                                        "order": 4
                                    }
                                ],
                                "depth": 1,
                                "id": 3,
                                "order": 3
                            },
                            {
                                "children": [
                                    {
                                        "children": [
                                            {
                                                "children": [
                                                    {
                                                        "children": [],
                                                        "depth": 4,
                                                        "id": 8,
                                                        "order": 8
                                                    }
                                                ],
                                                "depth": 3,
                                                "id": 7,
                                                "order": 7
                                            }
                                        ],
                                        "depth": 2,
                                        "id": 6,
                                        "order": 6
                                    }
                                ],
                                "depth": 1,
                                "id": 5,
                                "order": 5
                            }
                        ],
                        "depth": 0,
                        "id": 0,
                        "order": 0
                    }
                ],
                "depth": -1,
                "id": -1,
                "order": -1
            }
        ],
        "tidyTraceNodeCount": 8
    },
    "state_change": {
        "stateChanges": [
            {
                "address": "0x62635bf75639c07ed45ba391465eae236a91c300",
                "erc": "",
                "slots": [
                    {
                        "current": "0x00000000000000000000000061b337043558610f3d7f1f08365bff3b61cb9725",
                        "key": "0x0000000000000000000000000000000000000000000000000000000000000000",
                        "prev": "0x0000000000000000000000000000000000000000000000000000000000000000"
                    }
                ],
                "storageVariables": []
            }
        ]
    }
}