{
    "balance_change": {
        "balanceChanges": []
    },
    "profile": {
        "basic_info": {
            "baseFee": "",
            "blockNumber": 12174915,
            "callData": "0x4d99dd16000000000000000000000000cb22a8ce581d04fef99b81ec5a60725070a3e8c40000000000000000000000000000000000000000000015066516920a38044263",
            "debugEnable": true,
            "errorInfo": "",
            "eventCount": 1,
            "feeRecipient": "0x5a0b54d5dc17e0aadc383d2db43b0a0d3e029c4c",
            "formatValue": "0",
            "gasLimit": 300000,
            "gasPrice": "90",
            "gasUsed": 120718,
            "intTxnCount": 13,
            "internalRevert": false,
            "internalRevertMessage": "",
            "isContractCreation": false,
            "isFlashloan": false,
            "maxFee": "",
            "nonce": 24,
            "overwritedBlockNumber": -1,
            "priorityFee": "",
            "receiver": "0x8b3eb82e5199d241645b924289ff7bcecf7c5b74",
            "revertMessage": "",
            "sender": "0xc9d02aad29159ec308e2eb1bf8ee90a0eff693d4",
            "simulationEnable": true,
            "sourceTxnHash": "0xb13bedff92f090269220a31f2ea4da84995475c4c365086bc65281af4ecb6bc0",
            "status": true,
            "timestamp": "2021-04-04T18:59:32Z",
            "transactionFee": "0.01086462",
            "txnHash": "0xb13bedff92f090269220a31f2ea4da84995475c4c365086bc65281af4ecb6bc0",
            "txnIndex": 122,
            "type": 0,
            "value": "0"
        },
        "fund_flow": [],
        "token_infos": [
            {
                "address": "0xc02aaa39b223fe8d0a0e5c4f27ead9083c756cc2",
                "decimals": 18
            },
            {
                "address": "0xeeeeeeeeeeeeeeeeeeeeeeeeeeeeeeeeeeeeeeee",
                "decimals": 18
            }
        ]
    },
    "address_label": {
        "labels": [
            {
                "address": "0xeeeeeeeeeeeeeeeeeeeeeeeeeeeeeeeeeeeeeeee",
                "label": "Ether"
            },
            {
                "address": "0xbe5e630383b5baecf0db7b15c50d410edd5a2255",
                "label": "GraphTokenLockWallet"
            },
            {
                "address": "0xc944e90c64b2c07662a292be6244bdf05cda44a7",
                "label": "The Graph: GRT Token"
            },
            {
                "address": "0x24ccd4d3ac8529ff08c58f74ff6755036e616117",
                "label": "Controller"
            },
            {
                "address": "0x0000000000000000000000000000000000000002",
                "label": "Precompiled"
            },
            {
                "address": "0xfcf78ac094288d7200cfdb367a8cd07108dfa128",
                "label": "GraphTokenLockManager"
            },
            {
                "address": "0x64f990bf16552a693dcb043bb7bf3866c5e05ddb",
                "label": "GraphProxy"
            },
            {
                "address": "0x0000000000000000000000000000000000000001",
                "label": "Precompiled"
            },
            {
                "address": "0x3fab259f2392f733c60c19492b5678e5d2d2ee31",
                "label": "EpochManager"
            },
            {
                "address": "0xf55041e37e12cd407ad00ce2910b8269b01263b9",
                "label": "The Graph: Proxy 2"
            },
            {
                "address": "0x99660f23daed72b92de9a6431ce3c75c5427c602",
                "label": "Staking"
            },
            {
                "address": "0x0000000000000000000000000000000000000003",
                "label": "Precompiled"
            },
            {
                "address": "0x0000000000000000000000000000000000000004",
                "label": "Precompiled"
            }
        ]
    },
    "trace": {
        "accountLabels": null,
        "dataMap": {
            "-1": {
                "invocation": {
                    "address": "0xc9d02aad29159ec308e2eb1bf8ee90a0eff693d4",
                    "callData": "",
                    "decodedMethod": null,
                    "errorInfo": "",
                    "fromAddress": "",
                    "gasUsed": 0,
                    "id": -1,
                    "methodDecoded": false,
                    "operation": "",
                    "output": "",
                    "revert": false,
                    "revertMessage": "",
                    "selector": "",
                    "status": false,
                    "value": ""
                },
                "nodeType": 0
            },
            "0": {
                "invocation": {
                    "address": "0x8b3eb82e5199d241645b924289ff7bcecf7c5b74",
                    "callData": "0x000000000000000000000000cb22a8ce581d04fef99b81ec5a60725070a3e8c40000000000000000000000000000000000000000000015066516920a38044263",
                    "decodedMethod": {
                        "callParams": [
                            {
                                "name": "delegatee",
                                "type": "address",
                                "value": "0xcb22a8ce581d04fef99b81ec5a60725070a3e8c4"
                            },
                            {
                                "name": "amount",
                                "type": "uint256",
                                "value": "99,287,660,774,724,712,284,771"
                            }
                        ],
                        "constructorArguments": "",
                        "name": "undelegate",
                        "returnParams": [],
                        "signature": "undelegate(address,uint256)"
                    },
                    "errorInfo": "",
                    "fromAddress": "0xc9d02aad29159ec308e2eb1bf8ee90a0eff693d4",
                    "gasUsed": 120718,
                    "id": 0,
                    "methodDecoded": true,
                    "operation": "CALL",
                    "output": "",
                    "revert": false,
                    "revertMessage": "",
                    "selector": "0x4d99dd16",
                    "status": true,
                    "value": "0"
                },
                "nodeType": 0
            },
            "1": {
                "invocation": {
                    "address": "0xbe5e630383b5baecf0db7b15c50d410edd5a2255",
                    "callData": "0x000000000000000000000000cb22a8ce581d04fef99b81ec5a60725070a3e8c40000000000000000000000000000000000000000000015066516920a38044263",
                    "decodedMethod": {
                        "callParams": [
                            {
                                "name": "delegatee",
                                "type": "address",
                                "value": "0xcb22a8ce581d04fef99b81ec5a60725070a3e8c4"
                            },
                            {
                                "name": "amount",
                                "type": "uint256",
                                "value": "99,287,660,774,724,712,284,771"
                            }
                        ],
                        "constructorArguments": "",
                        "name": "undelegate",
                        "returnParams": [],
                        "signature": "undelegate(address,uint256)"
                    },
                    "errorInfo": "",
                    "fromAddress": "0x8b3eb82e5199d241645b924289ff7bcecf7c5b74",
                    "gasUsed": 113263,
                    "id": 1,
                    "methodDecoded": true,
                    "operation": "DELEGATECALL",
                    "output": "",
                    "revert": false,
                    "revertMessage": "",
                    "selector": "0x4d99dd16",
                    "status": true,
                    "value": "0"
                },
                "nodeType": 0
            },
            "10": {
                "invocation": {
                    "address": "0x3fab259f2392f733c60c19492b5678e5d2d2ee31",
                    "callData": "0x",
                    "decodedMethod": {
                        "callParams": [],
                        "constructorArguments": "",
                        "name": "currentEpoch",
                        "returnParams": [
                            {
                                "name": "",
                                "type": "uint256",
                                "value": "109"
                            }
                        ],
                        "signature": "currentEpoch()"
                    },
                    "errorInfo": "",
                    "fromAddress": "0x64f990bf16552a693dcb043bb7bf3866c5e05ddb",
                    "gasUsed": 3163,
                    "id": 10,
                    "methodDecoded": true,
                    "operation": "DELEGATECALL",
                    "output": "0x000000000000000000000000000000000000000000000000000000000000006d",
                    "revert": false,
                    "revertMessage": "",
                    "selector": "0x76671808",
                    "status": true,
                    "value": "0"
                },
                "nodeType": 0
            },
            "11": {
                "invocation": {
                    "address": "0x24ccd4d3ac8529ff08c58f74ff6755036e616117",
                    "callData": "0xc713c3df6d14cdf946460395d09af88993ee2b948b1a808161494e32c5f67063",
                    "decodedMethod": {
                        "callParams": [
                            {
                                "name": "_id",
                                "type": "bytes32",
                                "value": "0xc713c3df6d14cdf946460395d09af88993ee2b948b1a808161494e32c5f67063"
                            }
                        ],
                        "constructorArguments": "",
                        "name": "getContractProxy",
                        "returnParams": [
                            {
                                "name": "",
                                "type": "address",
                                "value": "0x64f990bf16552a693dcb043bb7bf3866c5e05ddb"
                            }
                        ],
                        "signature": "getContractProxy(bytes32)"
                    },
                    "errorInfo": "",
                    "fromAddress": "0xf55041e37e12cd407ad00ce2910b8269b01263b9",
                    "gasUsed": 1255,
                    "id": 11,
                    "methodDecoded": true,
                    "operation": "STATICCALL",
                    "output": "0x00000000000000000000000064f990bf16552a693dcb043bb7bf3866c5e05ddb",
                    "revert": false,
                    "revertMessage": "",
                    "selector": "0xf7641a5e",
                    "status": true,
                    "value": "0"
                },
                "nodeType": 0
            },
            "12": {
                "invocation": {
                    "address": "0x64f990bf16552a693dcb043bb7bf3866c5e05ddb",
                    "callData": "0x",
                    "decodedMethod": {
                        "callParams": [],
                        "constructorArguments": "",
                        "name": "currentEpoch",
                        "returnParams": [
                            {
                                "name": "",
                                "type": "uint256",
                                "value": "109"
                            }
                        ],
                        "signature": "currentEpoch()"
                    },
                    "errorInfo": "",
                    "fromAddress": "0xf55041e37e12cd407ad00ce2910b8269b01263b9",
                    "gasUsed": 5852,
                    "id": 12,
                    "methodDecoded": true,
                    "operation": "STATICCALL",
                    "output": "0x000000000000000000000000000000000000000000000000000000000000006d",
                    "revert": false,
                    "revertMessage": "",
                    "selector": "0x76671808",
                    "status": true,
                    "value": "0"
                },
                "nodeType": 0
            },
            "13": {
                "invocation": {
                    "address": "0x3fab259f2392f733c60c19492b5678e5d2d2ee31",
                    "callData": "0x",
                    "decodedMethod": {
                        "callParams": [],
                        "constructorArguments": "",
                        "name": "currentEpoch",
                        "returnParams": [
                            {
                                "name": "",
                                "type": "uint256",
                                "value": "109"
                            }
                        ],
                        "signature": "currentEpoch()"
                    },
                    "errorInfo": "",
                    "fromAddress": "0x64f990bf16552a693dcb043bb7bf3866c5e05ddb",
                    "gasUsed": 3163,
                    "id": 13,
                    "methodDecoded": true,
                    "operation": "DELEGATECALL",
                    "output": "0x000000000000000000000000000000000000000000000000000000000000006d",
                    "revert": false,
                    "revertMessage": "",
                    "selector": "0x76671808",
                    "status": true,
                    "value": "0"
                },
                "nodeType": 0
            },
            "14": {
                "event": {
                    "contract": "0xf55041e37e12cd407ad00ce2910b8269b01263b9",
                    "decodedLog": {
                        "name": "StakeDelegatedLocked",
                        "params": [
                            {
                                "name": "indexer",
                                "type": "address",
                                "value": "0xcb22a8ce581d04fef99b81ec5a60725070a3e8c4"
                            },
                            {
                                "name": "delegator",
                                "type": "address",
                                "value": "0x8b3eb82e5199d241645b924289ff7bcecf7c5b74"
                            },
                            {
                                "name": "tokens",
                                "type": "uint256",
                                "value": "127,202,912,090,131,625,457,747"
                            },
                            {
                                "name": "shares",
                                "type": "uint256",
                                "value": "99,287,660,774,724,712,284,771"
                            },
                            {
                                "name": "until",
                                "type": "uint256",
                                "value": "137"
                            }
                        ],
                        "signature": "StakeDelegatedLocked(address,address,uint256,uint256,uint256)"
                    },
                    "id": 14,
                    "logData": "0x000000000000000000000000000000000000000000001aefaf05c40ff0f4b8530000000000000000000000000000000000000000000015066516920a380442630000000000000000000000000000000000000000000000000000000000000089",
                    "logDecoded": true,
                    "operation": "EVENT",
                    "revert": false,
                    "status": true,
                    "topics": [
                        "0x0430183f84d9c4502386d499da806543dee1d9de83c08b01e39a6d2116c43b25",
                        "0x000000000000000000000000cb22a8ce581d04fef99b81ec5a60725070a3e8c4",
                        "0x0000000000000000000000008b3eb82e5199d241645b924289ff7bcecf7c5b74"
                    ]
                },
                "nodeType": 1
            },
            "2": {
                "invocation": {
                    "address": "0xfcf78ac094288d7200cfdb367a8cd07108dfa128",
                    "callData": "0x4d99dd1600000000000000000000000000000000000000000000000000000000",
                    "decodedMethod": {
                        "callParams": [
                            {
                                "name": "_sigHash",
                                "type": "bytes4",
                                "value": "0x4d99dd16"
                            }
                        ],
                        "constructorArguments": "",
                        "name": "getAuthFunctionCallTarget",
                        "returnParams": [
                            {
                                "name": "",
                                "type": "address",
                                "value": "0xf55041e37e12cd407ad00ce2910b8269b01263b9"
                            }
                        ],
                        "signature": "getAuthFunctionCallTarget(bytes4)"
                    },
                    "errorInfo": "",
                    "fromAddress": "0x8b3eb82e5199d241645b924289ff7bcecf7c5b74",
                    "gasUsed": 1655,
                    "id": 2,
                    "methodDecoded": true,
                    "operation": "STATICCALL",
                    "output": "0x000000000000000000000000f55041e37e12cd407ad00ce2910b8269b01263b9",
                    "revert": false,
                    "revertMessage": "",
                    "selector": "0xf1d24c45",
                    "status": true,
                    "value": "0"
                },
                "nodeType": 0
            },
            "3": {
                "invocation": {
                    "address": "0xc944e90c64b2c07662a292be6244bdf05cda44a7",
                    "callData": "0x0000000000000000000000008b3eb82e5199d241645b924289ff7bcecf7c5b74",
                    "decodedMethod": {
                        "callParams": [
                            {
                                "name": "account",
                                "type": "address",
                                "value": "0x8b3eb82e5199d241645b924289ff7bcecf7c5b74"
                            }
                        ],
                        "constructorArguments": "",
                        "name": "balanceOf",
                        "returnParams": [
                            {
                                "decimalAvailable": true,
                                "name": "",
                                "type": "uint256",
                                "value": "996,875,000,000,000,000"
                            }
                        ],
                        "signature": "balanceOf(address)"
                    },
                    "errorInfo": "",
                    "fromAddress": "0x8b3eb82e5199d241645b924289ff7bcecf7c5b74",
                    "gasUsed": 1253,
                    "id": 3,
                    "methodDecoded": true,
                    "operation": "STATICCALL",
                    "output": "0x0000000000000000000000000000000000000000000000000dd59c87e477b000",
                    "revert": false,
                    "revertMessage": "",
                    "selector": "0x70a08231",
                    "status": true,
                    "value": "0"
                },
                "nodeType": 0
            },
            "4": {
                "invocation": {
                    "address": "0xf55041e37e12cd407ad00ce2910b8269b01263b9",
                    "callData": "0x000000000000000000000000cb22a8ce581d04fef99b81ec5a60725070a3e8c40000000000000000000000000000000000000000000015066516920a38044263",
                    "decodedMethod": {
                        "callParams": [
                            {
                                "name": "_indexer",
                                "type": "address",
                                "value": "0xcb22a8ce581d04fef99b81ec5a60725070a3e8c4"
                            },
                            {
                                "name": "_shares",
                                "type": "uint256",
                                "value": "99,287,660,774,724,712,284,771"
                            }
                        ],
                        "constructorArguments": "",
                        "name": "undelegate",
                        "returnParams": [
                            {
                                "name": "",
                                "type": "uint256",
                                "value": "127,202,912,090,131,625,457,747"
                            }
                        ],
                        "signature": "undelegate(address,uint256)"
                    },
                    "errorInfo": "",
                    "fromAddress": "0x8b3eb82e5199d241645b924289ff7bcecf7c5b74",
                    "gasUsed": 100709,
                    "id": 4,
                    "methodDecoded": true,
                    "operation": "CALL",
                    "output": "0x000000000000000000000000000000000000000000001aefaf05c40ff0f4b853",
                    "revert": false,
                    "revertMessage": "",
                    "selector": "0x4d99dd16",
                    "status": true,
                    "value": "0"
                },
                "nodeType": 0
            },
            "5": {
                "invocation": {
                    "address": "0x99660f23daed72b92de9a6431ce3c75c5427c602",
                    "callData": "0x000000000000000000000000cb22a8ce581d04fef99b81ec5a60725070a3e8c40000000000000000000000000000000000000000000015066516920a38044263",
                    "decodedMethod": {
                        "callParams": [
                            {
                                "name": "_indexer",
                                "type": "address",
                                "value": "0xcb22a8ce581d04fef99b81ec5a60725070a3e8c4"
                            },
                            {
                                "name": "_shares",
                                "type": "uint256",
                                "value": "99,287,660,774,724,712,284,771"
                            }
                        ],
                        "constructorArguments": "",
                        "name": "undelegate",
                        "returnParams": [
                            {
                                "name": "",
                                "type": "uint256",
                                "value": "127,202,912,090,131,625,457,747"
                            }
                        ],
                        "signature": "undelegate(address,uint256)"
                    },
                    "errorInfo": "",
                    "fromAddress": "0xf55041e37e12cd407ad00ce2910b8269b01263b9",
                    "gasUsed": 98029,
                    "id": 5,
                    "methodDecoded": true,
                    "operation": "DELEGATECALL",
                    "output": "0x000000000000000000000000000000000000000000001aefaf05c40ff0f4b853",
                    "revert": false,
                    "revertMessage": "",
                    "selector": "0x4d99dd16",
                    "status": true,
                    "value": "0"
                },
                "nodeType": 0
            },
            "6": {
                "invocation": {
                    "address": "0x24ccd4d3ac8529ff08c58f74ff6755036e616117",
                    "callData": "0x",
                    "decodedMethod": {
                        "callParams": [],
                        "constructorArguments": "",
                        "name": "paused",
                        "returnParams": [
                            {
                                "name": "",
                                "type": "bool",
                                "value": false
                            }
                        ],
                        "signature": "paused()"
                    },
                    "errorInfo": "",
                    "fromAddress": "0xf55041e37e12cd407ad00ce2910b8269b01263b9",
                    "gasUsed": 1116,
                    "id": 6,
                    "methodDecoded": true,
                    "operation": "STATICCALL",
                    "output": "0x0000000000000000000000000000000000000000000000000000000000000000",
                    "revert": false,
                    "revertMessage": "",
                    "selector": "0x5c975abb",
                    "status": true,
                    "value": "0"
                },
                "nodeType": 0
            },
            "7": {
                "invocation": {
                    "address": "0x24ccd4d3ac8529ff08c58f74ff6755036e616117",
                    "callData": "0x",
                    "decodedMethod": {
                        "callParams": [],
                        "constructorArguments": "",
                        "name": "partialPaused",
                        "returnParams": [
                            {
                                "name": "",
                                "type": "bool",
                                "value": false
                            }
                        ],
                        "signature": "partialPaused()"
                    },
                    "errorInfo": "",
                    "fromAddress": "0xf55041e37e12cd407ad00ce2910b8269b01263b9",
                    "gasUsed": 1117,
                    "id": 7,
                    "methodDecoded": true,
                    "operation": "STATICCALL",
                    "output": "0x0000000000000000000000000000000000000000000000000000000000000000",
                    "revert": false,
                    "revertMessage": "",
                    "selector": "0x2e292fc7",
                    "status": true,
                    "value": "0"
                },
                "nodeType": 0
            },
            "8": {
                "invocation": {
                    "address": "0x24ccd4d3ac8529ff08c58f74ff6755036e616117",
                    "callData": "0xc713c3df6d14cdf946460395d09af88993ee2b948b1a808161494e32c5f67063",
                    "decodedMethod": {
                        "callParams": [
                            {
                                "name": "_id",
                                "type": "bytes32",
                                "value": "0xc713c3df6d14cdf946460395d09af88993ee2b948b1a808161494e32c5f67063"
                            }
                        ],
                        "constructorArguments": "",
                        "name": "getContractProxy",
                        "returnParams": [
                            {
                                "name": "",
                                "type": "address",
                                "value": "0x64f990bf16552a693dcb043bb7bf3866c5e05ddb"
                            }
                        ],
                        "signature": "getContractProxy(bytes32)"
                    },
                    "errorInfo": "",
                    "fromAddress": "0xf55041e37e12cd407ad00ce2910b8269b01263b9",
                    "gasUsed": 1255,
                    "id": 8,
                    "methodDecoded": true,
                    "operation": "STATICCALL",
                    "output": "0x00000000000000000000000064f990bf16552a693dcb043bb7bf3866c5e05ddb",
                    "revert": false,
                    "revertMessage": "",
                    "selector": "0xf7641a5e",
                    "status": true,
                    "value": "0"
                },
                "nodeType": 0
            },
            "9": {
                "invocation": {
                    "address": "0x64f990bf16552a693dcb043bb7bf3866c5e05ddb",
                    "callData": "0x",
                    "decodedMethod": {
                        "callParams": [],
                        "constructorArguments": "",
                        "name": "currentEpoch",
                        "returnParams": [
                            {
                                "name": "",
                                "type": "uint256",
                                "value": "109"
                            }
                        ],
                        "signature": "currentEpoch()"
                    },
                    "errorInfo": "",
                    "fromAddress": "0xf55041e37e12cd407ad00ce2910b8269b01263b9",
                    "gasUsed": 5852,
                    "id": 9,
                    "methodDecoded": true,
                    "operation": "STATICCALL",
                    "output": "0x000000000000000000000000000000000000000000000000000000000000006d",
                    "revert": false,
                    "revertMessage": "",
                    "selector": "0x76671808",
                    "status": true,
                    "value": "0"
                },
                "nodeType": 0
            }
        },
        "gasFlame": [
            {
                "children": [
                    {
                        "children": [
                            {
                                "children": [],
                                "depth": 0,
                                "name": "Initial Gas",
                                "value": 21680
                            },
                            {
                                "children": [
                                    {
                                        "children": [
                                            {
                                                "children": [],
                                                "depth": 2,
                                                "name": "getAuthFunctionCallTarget",
                                                "value": 1655
                                            },
                                            {
                                                "children": [],
                                                "depth": 2,
                                                "name": "balanceOf",
                                                "value": 1253
                                            },
                                            {
                                                "children": [
                                                    {
                                                        "children": [
                                                            {
                                                                "children": [],
                                                                "depth": 4,
                                                                "name": "paused",
                                                                "value": 1116
                                                            },
                                                            {
                                                                "children": [],
                                                                "depth": 4,
                                                                "name": "partialPaused",
                                                                "value": 1117
                                                            },
                                                            {
                                                                "children": [],
                                                                "depth": 4,
                                                                "name": "getContractProxy",
                                                                "value": 1255
                                                            },
                                                            {
                                                                "children": [
                                                                    {
                                                                        "children": [],
                                                                        "depth": 5,
                                                                        "name": "currentEpoch",
                                                                        "value": 3163
                                                                    }
                                                                ],
                                                                "depth": 4,
                                                                "name": "currentEpoch",
                                                                "value": 5852
                                                            },
                                                            {
                                                                "children": [],
                                                                "depth": 4,
                                                                "name": "getContractProxy",
                                                                "value": 1255
                                                            },
                                                            {
                                                                "children": [
                                                                    {
                                                                        "children": [],
                                                                        "depth": 5,
                                                                        "name": "currentEpoch",
                                                                        "value": 3163
                                                                    }
                                                                ],
                                                                "depth": 4,
                                                                "name": "currentEpoch",
                                                                "value": 5852
                                                            }
                                                        ],
                                                        "depth": 3,
                                                        "name": "undelegate",
                                                        "value": 98029
                                                    }
                                                ],
                                                "depth": 2,
                                                "name": "undelegate",
                                                "value": 100709
                                            }
                                        ],
                                        "depth": 1,
                                        "name": "undelegate",
                                        "value": 113263
                                    }
                                ],
                                "depth": 0,
                                "name": "Executed Gas",
                                "value": 114038
                            }
                        ],
                        "depth": -1,
                        "name": "Actual Gas Used",
                        "value": 120718
                    },
                    {
                        "children": [],
                        "depth": -1,
                        "name": "Refunded Gas",
                        "value": 15000
                    }
                ],
                "depth": -2,
                "name": "Total Gas",
                "value": 135718
            }
        ],
        "isConfirmed": true,
        "mainTrace": [
            {
                "children": [
                    {
                        "children": [
                            {
                                "children": [
                                    {
                                        "children": [],
                                        "depth": 2,
                                        "id": 2,
                                        "order": 2
                                    },
                                    {
                                        "children": [],
                                        "depth": 2,
                                        "id": 3,
                                        "order": 3
                                    },
                                    {
                                        "children": [
                                            {
                                                "children": [
                                                    {
                                                        "children": [],
                                                        "depth": 4,
                                                        "id": 6,
                                                        "order": 6
                                                    },
                                                    {
                                                        "children": [],
                                                        "depth": 4,
                                                        "id": 7,
                                                        "order": 7
                                                    },
                                                    {
                                                        "children": [],
                                                        "depth": 4,
                                                        "id": 8,
                                                        "order": 8
                                                    },
                                                    {
                                                        "children": [
                                                            {
                                                                "children": [],
                                                                "depth": 5,
                                                                "id": 10,
                                                                "order": 10
                                                            }
                                                        ],
                                                        "depth": 4,
                                                        "id": 9,
                                                        "order": 9
                                                    },
                                                    {
                                                        "children": [],
                                                        "depth": 4,
                                                        "id": 11,
                                                        "order": 11
                                                    },
                                                    {
                                                        "children": [
                                                            {
                                                                "children": [],
                                                                "depth": 5,
                                                                "id": 13,
                                                                "order": 13
                                                            }
                                                        ],
                                                        "depth": 4,
                                                        "id": 12,
                                                        "order": 12
                                                    },
                                                    {
                                                        "children": [],
                                                        "depth": 4,
                                                        "id": 14,
                                                        "order": 14
                                                    }
                                                ],
                                                "depth": 3,
                                                "id": 5,
                                                "order": 5
                                            }
                                        ],
                                        "depth": 2,
                                        "id": 4,
                                        "order": 4
                                    }
                                ],
                                "depth": 1,
                                "id": 1,
                                "order": 1
                            }
                        ],
                        "depth": 0,
                        "id": 0,
                        "order": 0
                    }
                ],
                "depth": -1,
                "id": -1,
                "order": -1
            }
        ],
        "mainTraceNodeCount": 15,
        "parentIdMap": {
            "0": -1,
            "1": 0,
            "10": 9,
            "11": 5,
            "12": 5,
            "13": 12,
            "14": 5,
            "2": 1,
            "3": 1,
            "4": 1,
            "5": 4,
            "6": 5,
            "7": 5,
            "8": 5,
            "9": 5
        },
        "tidyTrace": [
            {
                "children": [
                    {
                        "children": [
                            {
                                "children": [
                                    {
                                        "children": [
                                            {
                                                "children": [
                                                    {
                                                        "children": [],
                                                        "depth": 4,
                                                        "id": 14,
                                                        "order": 14
                                                    }
                                                ],
                                                "depth": 3,
                                                "id": 5,
                                                "order": 5
                                            }
                                        ],
                                        "depth": 2,
                                        "id": 4,
                                        "order": 4
                                    }
                                ],
                                "depth": 1,
                                "id": 1,
                                "order": 1
                            }
                        ],
                        "depth": 0,
                        "id": 0,
                        "order": 0
                    }
                ],
                "depth": -1,
                "id": -1,
                "order": -1
            }
        ],
        "tidyTraceNodeCount": 5
    },
    "state_change": {
        "stateChanges": [
            {
                "address": "0xf55041e37e12cd407ad00ce2910b8269b01263b9",
                "erc": "",
                "slots": [
                    {
                        "current": "0x00000000000000000000000000000000000000000003a09161cded5e7ba72b03",
                        "key": "0x12bdf8159857f7c58909cb4503257ac9247f08f03de7bc264fa57ceae91bf424",
                        "prev": "0x00000000000000000000000000000000000000000003b597c6e47f68b3ab6d66"
                    },
                    {
                        "current": "0x0000000000000000000000000000000000000000000000000000000000000000",
                        "key": "0xb21b9d8376a0a13f358fcabecb5bbfbe190bb2036f787b509313bd17b7e656a2",
                        "prev": "0x0000000000000000000000000000000000000000000015066516920a38044263"
                    },
                    {
                        "current": "0x000000000000000000000000000000000000000000001aefaf05c40ff0f4b853",
                        "key": "0xb21b9d8376a0a13f358fcabecb5bbfbe190bb2036f787b509313bd17b7e656a3",
                        "prev": "0x0000000000000000000000000000000000000000000000000000000000000000"
                    },
                    {
                        "current": "0x0000000000000000000000000000000000000000000000000000000000000089",
                        "key": "0xb21b9d8376a0a13f358fcabecb5bbfbe190bb2036f787b509313bd17b7e656a4",
                        "prev": "0x0000000000000000000000000000000000000000000000000000000000000000"
                    },
                    {
                        "current": "0x00000000000000000000000000000000000000000004a5a3c1ed7efd762cb4cd",
                        "key": "0x12bdf8159857f7c58909cb4503257ac9247f08f03de7bc264fa57ceae91bf423",
                        "prev": "0x00000000000000000000000000000000000000000004c09370f3430d67216d20"
                    }
                ],
                "storageVariables": [
                    {
                        "name": "delegationPools",
                        "type": "mapping(address => struct IStakingData.DelegationPool)",
                        "value": {
                            "pairs": [
                                {
                                    "key": "0xcb22a8ce581d04fef99b81ec5a60725070a3e8c4",
                                    "value": {
                                        "fields": [
                                            {
                                                "name": "tokens",
                                                "type": "uint256",
                                                "value": {
                                                    "current": "5617914541380868690982093",
                                                    "prev": "5745117453471000316439840",
                                                    "typeTag": 1
                                                }
                                            },
                                            {
                                                "name": "shares",
                                                "type": "uint256",
                                                "value": {
                                                    "current": "4385037921543700605250307",
                                                    "prev": "4484325582318425317535078",
                                                    "typeTag": 1
                                                }
                                            },
                                            {
                                                "name": "delegators",
                                                "type": "mapping(address => struct IStakingData.Delegation)",
                                                "value": {
                                                    "pairs": [
                                                        {
                                                            "key": "0x8b3eb82e5199d241645b924289ff7bcecf7c5b74",
                                                            "value": {
                                                                "fields": [
                                                                    {
                                                                        "name": "shares",
                                                                        "type": "uint256",
                                                                        "value": {
                                                                            "current": "0",
                                                                            "prev": "99287660774724712284771",
                                                                            "typeTag": 1
                                                                        }
                                                                    },
                                                                    {
                                                                        "name": "tokensLocked",
                                                                        "type": "uint256",
                                                                        "value": {
                                                                            "current": "127202912090131625457747",
                                                                            "prev": "0",
                                                                            "typeTag": 1
                                                                        }
                                                                    },
                                                                    {
                                                                        "name": "tokensLockedUntil",
                                                                        "type": "uint256",
                                                                        "value": {
                                                                            "current": "137",
                                                                            "prev": "0",
                                                                            "typeTag": 1
                                                                        }
                                                                    }
                                                                ],
                                                                "typeTag": 3
                                                            }
                                                        }
                                                    ],
                                                    "typeTag": 4
                                                }
                                            }
                                        ],
                                        "typeTag": 3
                                    }
                                }
                            ],
                            "typeTag": 4
                        }
                    }
                ]
            }
        ]
    }
}