{
    "balance_change": {
        "balanceChanges": [
            {
                "account": "0x11191df5e5e2d1fb14b6516e11afc1c0aaaf12bc",
                "assets": [
                    {
                        "address": "0xe5a3229ccb22b6484594973a03a3851dcd948756",
                        "amount": "230.4261568",
                        "iconUrl": "https://assets.blocksec.com/icon/32ed8ee1b8be3507021df57378a57f5b7e167f4c28d9420a60baee7ccbb5603b.png",
                        "isERC1155": false,
                        "isERC721": false,
                        "sign": false,
                        "value": "246.325127"
                    }
                ]
            },
            {
                "account": "0x62e816387766b83141131434498335d694e83944",
                "assets": [
                    {
                        "address": "0xe5a3229ccb22b6484594973a03a3851dcd948756",
                        "amount": "230.4261568",
                        "iconUrl": "https://assets.blocksec.com/icon/32ed8ee1b8be3507021df57378a57f5b7e167f4c28d9420a60baee7ccbb5603b.png",
                        "isERC1155": false,
                        "isERC721": false,
                        "sign": true,
                        "value": "246.325127"
                    }
                ]
            }
        ]
    },
    "profile": {
        "basic_info": {
            "baseFee": "11.235841192",
            "blockNumber": 15259844,
            "callData": "0xa9059cbb00000000000000000000000062e816387766b83141131434498335d694e8394400000000000000000000000000000000000000000000000c7dce28c26e760000",
            "debugEnable": true,
            "errorInfo": "",
            "eventCount": 1,
            "feeRecipient": "0xcd458d7f11023556cc9058f729831a038cb8df9c",
            "formatValue": "0",
            "gasLimit": 54030,
            "gasPrice": "12.735841192",
            "gasUsed": 54030,
            "intTxnCount": 0,
            "internalRevert": false,
            "internalRevertMessage": "",
            "isContractCreation": false,
            "isFlashloan": false,
            "maxFee": "16.629477817",
            "nonce": 1020,
            "overwritedBlockNumber": -1,
            "priorityFee": "1.5",
            "receiver": "0xe5a3229ccb22b6484594973a03a3851dcd948756",
            "revertMessage": "",
            "sender": "0x11191df5e5e2d1fb14b6516e11afc1c0aaaf12bc",
            "simulationEnable": true,
            "sourceTxnHash": "0xb1177609e3e751c6ebc31b8cd11a5fff5e422a26712a650720c685abcac4111e",
            "status": true,
            "timestamp": "2022-08-02T00:20:04Z",
            "transactionFee": "0.00068811749960376",
            "txnHash": "0xb1177609e3e751c6ebc31b8cd11a5fff5e422a26712a650720c685abcac4111e",
            "txnIndex": 45,
            "type": 2,
            "value": "0"
        },
        "fund_flow": [
            {
                "amount": "230.4261568",
                "from": "0x11191df5e5e2d1fb14b6516e11afc1c0aaaf12bc",
                "id": 1,
                "isERC1155": false,
                "isERC721": false,
                "isReverted": false,
                "order": 1,
                "to": "0x62e816387766b83141131434498335d694e83944",
                "token": "0xe5a3229ccb22b6484594973a03a3851dcd948756"
            }
        ],
        "token_infos": [
            {
                "address": "0xe5a3229ccb22b6484594973a03a3851dcd948756",
                "decimals": 18
            },
            {
                "address": "0xeeeeeeeeeeeeeeeeeeeeeeeeeeeeeeeeeeeeeeee",
                "decimals": 18
            },
            {
                "address": "0xc02aaa39b223fe8d0a0e5c4f27ead9083c756cc2",
                "decimals": 18
            }
        ]
    },
    "address_label": {
        "labels": [
            {
                "address": "0x0000000000000000000000000000000000000003",
                "label": "Precompiled"
            },
            {
                "address": "0x0000000000000000000000000000000000000004",
                "label": "Precompiled"
            },
            {
                "address": "0xeeeeeeeeeeeeeeeeeeeeeeeeeeeeeeeeeeeeeeee",
                "label": "Ether"
            },
            {
                "address": "0xe5a3229ccb22b6484594973a03a3851dcd948756",
                "label": "RAE: RAE Token"
            },
            {
                "address": "0x0000000000000000000000000000000000000001",
                "label": "Precompiled"
            },
            {
                "address": "0x0000000000000000000000000000000000000002",
                "label": "Precompiled"
            }
        ]
    },
    "trace": {
        "accountLabels": null,
        "dataMap": {
            "-1": {
                "invocation": {
                    "address": "0x11191df5e5e2d1fb14b6516e11afc1c0aaaf12bc",
                    "callData": "",
                    "decodedMethod": null,
                    "errorInfo": "",
                    "fromAddress": "",
                    "gasUsed": 0,
                    "id": -1,
                    "methodDecoded": false,
                    "operation": "",
                    "output": "",
                    "revert": false,
                    "revertMessage": "",
                    "selector": "",
                    "status": false,
                    "value": ""
                },
                "nodeType": 0
            },
            "0": {
                "invocation": {
                    "address": "0xe5a3229ccb22b6484594973a03a3851dcd948756",
                    "callData": "0x00000000000000000000000062e816387766b83141131434498335d694e8394400000000000000000000000000000000000000000000000c7dce28c26e760000",
                    "decodedMethod": {
                        "callParams": [
                            {
                                "name": "to",
                                "type": "address",
                                "value": "0x62e816387766b83141131434498335d694e83944"
                            },
                            {
                                "decimalAvailable": true,
                                "name": "value",
                                "type": "uint256",
                                "value": "230,426,156,800,000,000,000"
                            }
                        ],
                        "constructorArguments": "",
                        "name": "transfer",
                        "returnParams": [
                            {
                                "name": "",
                                "type": "bool",
                                "value": true
                            }
                        ],
                        "signature": "transfer(address,uint256)"
                    },
                    "errorInfo": "",
                    "fromAddress": "0x11191df5e5e2d1fb14b6516e11afc1c0aaaf12bc",
                    "gasUsed": 54030,
                    "id": 0,
                    "methodDecoded": true,
                    "operation": "CALL",
                    "output": "0x0000000000000000000000000000000000000000000000000000000000000001",
                    "revert": false,
                    "revertMessage": "",
                    "selector": "0xa9059cbb",
                    "status": true,
                    "value": "0"
                },
                "nodeType": 0
            },
            "1": {
                "event": {
                    "contract": "0xe5a3229ccb22b6484594973a03a3851dcd948756",
                    "decodedLog": {
                        "name": "Transfer",
                        "params": [
                            {
                                "name": "from",
                                "type": "address",
                                "value": "0x11191df5e5e2d1fb14b6516e11afc1c0aaaf12bc"
                            },
                            {
                                "name": "to",
                                "type": "address",
                                "value": "0x62e816387766b83141131434498335d694e83944"
                            },
                            {
                                "decimalAvailable": true,
                                "name": "value",
                                "type": "uint256",
                                "value": "230,426,156,800,000,000,000"
                            }
                        ],
                        "signature": "Transfer(address,address,uint256)"
                    },
                    "id": 1,
                    "logData": "0x00000000000000000000000000000000000000000000000c7dce28c26e760000",
                    "logDecoded": true,
                    "operation": "EVENT",
                    "revert": false,
                    "status": true,
                    "topics": [
                        "0xddf252ad1be2c89b69c2b068fc378daa952ba7f163c4a11628f55a4df523b3ef",
                        "0x00000000000000000000000011191df5e5e2d1fb14b6516e11afc1c0aaaf12bc",
                        "0x00000000000000000000000062e816387766b83141131434498335d694e83944"
                    ]
                },
                "nodeType": 1
            }
        },
        "gasFlame": [
            {
                "children": [
                    {
                        "children": [
                            {
                                "children": [],
                                "depth": 0,
                                "name": "Initial Gas",
                                "value": 21644
                            },
                            {
                                "children": [],
                                "depth": 0,
                                "name": "Executed Gas",
                                "value": 32386
                            }
                        ],
                        "depth": -1,
                        "name": "Actual Gas Used",
                        "value": 54030
                    },
                    {
                        "children": [],
                        "depth": -1,
                        "name": "Refunded Gas",
                        "value": 0
                    }
                ],
                "depth": -2,
                "name": "Total Gas",
                "value": 54030
            }
        ],
        "isConfirmed": true,
        "mainTrace": [
            {
                "children": [
                    {
                        "children": [
                            {
                                "children": [],
                                "depth": 1,
                                "id": 1,
                                "order": 1
                            }
                        ],
                        "depth": 0,
                        "id": 0,
                        "order": 0
                    }
                ],
                "depth": -1,
                "id": -1,
                "order": -1
            }
        ],
        "mainTraceNodeCount": 2,
        "parentIdMap": {
            "0": -1,
            "1": 0
        },
        "tidyTrace": [
            {
                "children": [
                    {
                        "children": [
                            {
                                "children": [],
                                "depth": 1,
                                "id": 1,
                                "order": 1
                            }
                        ],
                        "depth": 0,
                        "id": 0,
                        "order": 0
                    }
                ],
                "depth": -1,
                "id": -1,
                "order": -1
            }
        ],
        "tidyTraceNodeCount": 2
    },
    "state_change": {
        "stateChanges": [
            {
                "address": "0xe5a3229ccb22b6484594973a03a3851dcd948756",
                "erc": "ERC-20",
                "slots": [
                    {
                        "current": "0x000000000000000000000000000000000000000000000124a8fe24297a50b153",
                        "key": "0x64585c60c0ea6aad103bac55469b5e04bbef6fec18c64fa54f9a764d221d350a",
                        "prev": "0x00000000000000000000000000000000000000000000013126cc4cebe8c6b153"
                    },
                    {
                        "current": "0x00000000000000000000000000000000000000000000000c7dce28c26e760000",
                        "key": "0x1f89742d985581c13580211b9f55dadc9e5afb492e033eb77106304e6340b6a7",
                        "prev": "0x0000000000000000000000000000000000000000000000000000000000000000"
                    }
                ],
                "storageVariables": [
                    {
                        "name": "_balances",
                        "type": "mapping(address => uint256)",
                        "value": {
                            "pairs": [
                                {
                                    "key": "0x11191df5e5e2d1fb14b6516e11afc1c0aaaf12bc",
                                    "value": {
                                        "current": "5398626479726209839443",
                                        "prev": "5629052636526209839443",
                                        "typeTag": 1
                                    }
                                },
                                {
                                    "key": "0x62e816387766b83141131434498335d694e83944",
                                    "value": {
                                        "current": "230426156800000000000",
                                        "prev": "0",
                                        "typeTag": 1
                                    }
                                }
                            ],
                            "typeTag": 4
                        }
                    }
                ]
            }
        ]
    }
}