{
    "balance_change": {
        "balanceChanges": []
    },
    "profile": {
        "basic_info": {
            "baseFee": "25.402297178",
            "blockNumber": 17393399,
            "callData": "0xca8bd1f90400000126f22710b4e16d0168e52d35cacd2c6185b44281ec28c9dca0b86991c6218b36c1d19d4a2e9eb0ce3606eb4814010027102710e495bfa137b68a037b1f661ed47a44b4fb2a6563c02aaa39b223fe8d0a0e5c4f27ead9083c756cc21f0001271027103fd156cb1e0e0f88145873d0e1beca491d046437430ef9263e76dae63c84292c3409d61c598e968200010026f22710397ff1542f962076d0bfe58ea045ffa2d347aca0c02aaa39b223fe8d0a0e5c4f27ead9083c756cc204017d6a980501b87f9a4400d800d800d800d800d803d803d803d83fd156cb1e0e0f88145873d0e1beca491d046437c8c49b2739d64e53e55b4194000000000000000000000000000000000000000000000000000000000000006000000000000000000000000000000000000000000000000000000000000002800000000000000000000000000000000000000000000000000000011c15aaf2df000000000000000000000000c02aaa39b223fe8d0a0e5c4f27ead9083c756cc2000000000000000000000000430ef9263e76dae63c84292c3409d61c598e96820000000000000000000000005bdac7f9714d983287240468c2d6cd0f8f1fe3e1000000000000000000000000000000000000000000000000000000000000000000000000000000000000000000000000000000000000000000000000000000000000000000000000000000000000000000000000000000004563918244f4000000000000000000000000000000000000000000000000009bb101af7de9e00000000000a4000000a4000000a4000000a400000000000000000000000000000000000000000000000000000000000000000000000000000000000000000000014000000000000000000000000000000000000000000000000000000000000000a4bf15fcd8000000000000000000000000303389f541ff2d620e42832f180a08e767b28e10000000000000000000000000000000000000000000000000000000000000004000000000000000000000000000000000000000000000000000000000000000242cc2878d00647a4b61000000005300005bdac7f9714d983287240468c2d6cd0f8f1fe3e100000000000000000000000000000000000000000000000000000000000000000000000000000000000000000000000000000000000000000000000000000000000000000000000000000000000000000000000000000041adb865eb2cf0ab490f5f3abc26777d9857ed18a38bbbd06f0a6712644df38f45066aa78da4133972f8173510c98c8b45bb2dc90d3cdac48fcd58c44d83f6aa8d1c0000000000000000000000000000000000000000000000000000000000000000000000",
            "debugEnable": true,
            "errorInfo": "execution reverted",
            "eventCount": 0,
            "feeRecipient": "0x388c818ca8b9251b393131c08a736a67ccb19297",
            "formatValue": "0",
            "gasLimit": 1200000,
            "gasPrice": "25.502297178",
            "gasUsed": 104935,
            "intTxnCount": 12,
            "internalRevert": true,
            "internalRevertMessage": "",
            "isContractCreation": false,
            "isFlashloan": false,
            "maxFee": "34.607857241",
            "nonce": 73962,
            "overwritedBlockNumber": -1,
            "priorityFee": "0.1",
            "receiver": "0x9db7378614d8d9d7149c4ee4763f88c38f9b1517",
            "revertMessage": ":(",
            "sender": "0x0124d0fa0dfb1430dfcff16ec6a96945e7a0bc10",
            "simulationEnable": true,
            "sourceTxnHash": "0xb1e8ea4fcd2b313fc9780757ea30083b9369af12a165cea8a2cdd181cfbbe307",
            "status": false,
            "timestamp": "2023-06-02T13:39:23Z",
            "transactionFee": "0.00267608355437343",
            "txnHash": "0xb1e8ea4fcd2b313fc9780757ea30083b9369af12a165cea8a2cdd181cfbbe307",
            "txnIndex": 102,
            "type": 2,
            "value": "0"
        },
        "fund_flow": [],
        "token_infos": [
            {
                "address": "0xc02aaa39b223fe8d0a0e5c4f27ead9083c756cc2",
                "decimals": 18
            },
            {
                "address": "0xeeeeeeeeeeeeeeeeeeeeeeeeeeeeeeeeeeeeeeee",
                "decimals": 18
            }
        ]
    },
    "address_label": {
        "labels": [
            {
                "address": "0xeeeeeeeeeeeeeeeeeeeeeeeeeeeeeeeeeeeeeeee",
                "label": "Ether"
            },
            {
                "address": "0x397ff1542f962076d0bfe58ea045ffa2d347aca0",
                "label": "SushiSwap: USDC"
            },
            {
                "address": "0xb4e16d0168e52d35cacd2c6185b44281ec28c9dc",
                "label": "Uniswap V2: USDC"
            },
            {
                "address": "0xc02aaa39b223fe8d0a0e5c4f27ead9083c756cc2",
                "label": "Wrapped Ether (WETH)"
            },
            {
                "address": "0x0000000000000000000000000000000000000003",
                "label": "Precompiled"
            },
            {
                "address": "0x1111111254eeb25477b68fb85ed929f73a960582",
                "label": "Aggregation Router V5"
            },
            {
                "address": "0xe495bfa137b68a037b1f661ed47a44b4fb2a6563",
                "label": "Uniswap V3: PYR 2"
            },
            {
                "address": "0x388c818ca8b9251b393131c08a736a67ccb19297",
                "label": "LidoExecutionLayerRewardsVault"
            },
            {
                "address": "0x0000000000000000000000000000000000000001",
                "label": "Precompiled"
            },
            {
                "address": "0x0000000000000000000000000000000000000002",
                "label": "Precompiled"
            },
            {
                "address": "0x0000000000000000000000000000000000000004",
                "label": "Precompiled"
            }
        ]
    },
    "trace": {
        "accountLabels": null,
        "dataMap": {
            "-1": {
                "invocation": {
                    "address": "0x0124d0fa0dfb1430dfcff16ec6a96945e7a0bc10",
                    "callData": "",
                    "decodedMethod": null,
                    "errorInfo": "",
                    "fromAddress": "",
                    "gasUsed": 0,
                    "id": -1,
                    "methodDecoded": false,
                    "operation": "",
                    "output": "",
                    "revert": false,
                    "revertMessage": "",
                    "selector": "",
                    "status": false,
                    "value": ""
                },
                "nodeType": 0
            },
            "0": {
                "invocation": {
                    "address": "0x9db7378614d8d9d7149c4ee4763f88c38f9b1517",
                    "callData": "0x0400000126f22710b4e16d0168e52d35cacd2c6185b44281ec28c9dca0b86991c6218b36c1d19d4a2e9eb0ce3606eb4814010027102710e495bfa137b68a037b1f661ed47a44b4fb2a6563c02aaa39b223fe8d0a0e5c4f27ead9083c756cc21f0001271027103fd156cb1e0e0f88145873d0e1beca491d046437430ef9263e76dae63c84292c3409d61c598e968200010026f22710397ff1542f962076d0bfe58ea045ffa2d347aca0c02aaa39b223fe8d0a0e5c4f27ead9083c756cc204017d6a980501b87f9a4400d800d800d800d800d803d803d803d83fd156cb1e0e0f88145873d0e1beca491d046437c8c49b2739d64e53e55b4194000000000000000000000000000000000000000000000000000000000000006000000000000000000000000000000000000000000000000000000000000002800000000000000000000000000000000000000000000000000000011c15aaf2df000000000000000000000000c02aaa39b223fe8d0a0e5c4f27ead9083c756cc2000000000000000000000000430ef9263e76dae63c84292c3409d61c598e96820000000000000000000000005bdac7f9714d983287240468c2d6cd0f8f1fe3e1000000000000000000000000000000000000000000000000000000000000000000000000000000000000000000000000000000000000000000000000000000000000000000000000000000000000000000000000000000004563918244f4000000000000000000000000000000000000000000000000009bb101af7de9e00000000000a4000000a4000000a4000000a400000000000000000000000000000000000000000000000000000000000000000000000000000000000000000000014000000000000000000000000000000000000000000000000000000000000000a4bf15fcd8000000000000000000000000303389f541ff2d620e42832f180a08e767b28e10000000000000000000000000000000000000000000000000000000000000004000000000000000000000000000000000000000000000000000000000000000242cc2878d00647a4b61000000005300005bdac7f9714d983287240468c2d6cd0f8f1fe3e100000000000000000000000000000000000000000000000000000000000000000000000000000000000000000000000000000000000000000000000000000000000000000000000000000000000000000000000000000041adb865eb2cf0ab490f5f3abc26777d9857ed18a38bbbd06f0a6712644df38f45066aa78da4133972f8173510c98c8b45bb2dc90d3cdac48fcd58c44d83f6aa8d1c0000000000000000000000000000000000000000000000000000000000000000000000",
                    "decodedMethod": {
                        "callParams": [],
                        "constructorArguments": "",
                        "name": "IBribe2MuchZ7650399733",
                        "returnParams": [],
                        "signature": "IBribe2MuchZ7650399733()"
                    },
                    "errorInfo": "execution reverted",
                    "fromAddress": "0x0124d0fa0dfb1430dfcff16ec6a96945e7a0bc10",
                    "gasUsed": 104935,
                    "id": 0,
                    "methodDecoded": true,
                    "operation": "CALL",
                    "output": "0x08c379a0000000000000000000000000000000000000000000000000000000000000002000000000000000000000000000000000000000000000000000000000000000023a28000000000000000000000000000000000000000000000000000000000000",
                    "revert": true,
                    "revertMessage": ":(",
                    "selector": "0xca8bd1f9",
                    "status": false,
                    "value": "0"
                },
                "nodeType": 0
            },
            "1": {
                "invocation": {
                    "address": "0xb4e16d0168e52d35cacd2c6185b44281ec28c9dc",
                    "callData": "0x",
                    "decodedMethod": {
                        "callParams": [],
                        "constructorArguments": "",
                        "name": "getReserves",
                        "returnParams": [
                            {
                                "name": "_reserve0",
                                "type": "uint112",
                                "value": "29,999,670,458,603"
                            },
                            {
                                "name": "_reserve1",
                                "type": "uint112",
                                "value": "15,884,347,040,092,397,272,394"
                            },
                            {
                                "name": "_blockTimestampLast",
                                "type": "uint32",
                                "value": "1,685,713,115"
                            }
                        ],
                        "signature": "getReserves()"
                    },
                    "errorInfo": "",
                    "fromAddress": "0x9db7378614d8d9d7149c4ee4763f88c38f9b1517",
                    "gasUsed": 2504,
                    "id": 1,
                    "methodDecoded": true,
                    "operation": "STATICCALL",
                    "output": "0x00000000000000000000000000000000000000000000000000001b48d7b378eb00000000000000000000000000000000000000000000035d1799021626d87d4a000000000000000000000000000000000000000000000000000000006479f0db",
                    "revert": true,
                    "revertMessage": "",
                    "selector": "0x0902f1ac",
                    "status": true,
                    "value": "0"
                },
                "nodeType": 0
            },
            "10": {
                "invocation": {
                    "address": "0x1111111254eeb25477b68fb85ed929f73a960582",
                    "callData": "0x3fd156cb1e0e0f88145873d0e1beca491d046437c8c49b2739d64e53e55b4194",
                    "decodedMethod": {
                        "callParams": [
                            {
                                "name": "orderHash",
                                "type": "bytes32",
                                "value": "0x3fd156cb1e0e0f88145873d0e1beca491d046437c8c49b2739d64e53e55b4194"
                            }
                        ],
                        "constructorArguments": "",
                        "name": "remainingRaw",
                        "returnParams": [
                            {
                                "name": "",
                                "type": "uint256",
                                "value": "0"
                            }
                        ],
                        "signature": "remainingRaw(bytes32)"
                    },
                    "errorInfo": "",
                    "fromAddress": "0x9db7378614d8d9d7149c4ee4763f88c38f9b1517",
                    "gasUsed": 2496,
                    "id": 10,
                    "methodDecoded": true,
                    "operation": "STATICCALL",
                    "output": "0x0000000000000000000000000000000000000000000000000000000000000000",
                    "revert": true,
                    "revertMessage": "",
                    "selector": "0x7e54f092",
                    "status": true,
                    "value": "0"
                },
                "nodeType": 0
            },
            "11": {
                "invocation": {
                    "address": "0xc02aaa39b223fe8d0a0e5c4f27ead9083c756cc2",
                    "callData": "0x0000000000000000000000005bdac7f9714d983287240468c2d6cd0f8f1fe3e1",
                    "decodedMethod": {
                        "callParams": [
                            {
                                "name": "",
                                "type": "address",
                                "value": "0x5bdac7f9714d983287240468c2d6cd0f8f1fe3e1"
                            }
                        ],
                        "constructorArguments": "",
                        "name": "balanceOf",
                        "returnParams": [
                            {
                                "decimalAvailable": true,
                                "name": "",
                                "type": "uint256",
                                "value": "11,675,706,747,120,868,422"
                            }
                        ],
                        "signature": "balanceOf(address)"
                    },
                    "errorInfo": "",
                    "fromAddress": "0x9db7378614d8d9d7149c4ee4763f88c38f9b1517",
                    "gasUsed": 2534,
                    "id": 11,
                    "methodDecoded": true,
                    "operation": "STATICCALL",
                    "output": "0x000000000000000000000000000000000000000000000000a208716d0bc55c46",
                    "revert": true,
                    "revertMessage": "",
                    "selector": "0x70a08231",
                    "status": true,
                    "value": "0"
                },
                "nodeType": 0
            },
            "12": {
                "invocation": {
                    "address": "0x397ff1542f962076d0bfe58ea045ffa2d347aca0",
                    "callData": "0x",
                    "decodedMethod": {
                        "callParams": [],
                        "constructorArguments": "",
                        "name": "getReserves",
                        "returnParams": [
                            {
                                "name": "_reserve0",
                                "type": "uint112",
                                "value": "15,685,133,225,301"
                            },
                            {
                                "name": "_reserve1",
                                "type": "uint112",
                                "value": "8,285,056,180,498,971,095,555"
                            },
                            {
                                "name": "_blockTimestampLast",
                                "type": "uint32",
                                "value": "1,685,713,163"
                            }
                        ],
                        "signature": "getReserves()"
                    },
                    "errorInfo": "",
                    "fromAddress": "0x9db7378614d8d9d7149c4ee4763f88c38f9b1517",
                    "gasUsed": 2517,
                    "id": 12,
                    "methodDecoded": true,
                    "operation": "STATICCALL",
                    "output": "0x00000000000000000000000000000000000000000000000000000e43facb4d550000000000000000000000000000000000000000000001c122406c0e0bcdf203000000000000000000000000000000000000000000000000000000006479f10b",
                    "revert": true,
                    "revertMessage": "",
                    "selector": "0x0902f1ac",
                    "status": true,
                    "value": "0"
                },
                "nodeType": 0
            },
            "2": {
                "invocation": {
                    "address": "0x4ed2b8c9ea349b6fc558f5e8ebca1a53eddcdd9c",
                    "callData": "0x0000000000000000000000000000000000000000000000000000000000000014000000000000000000000000e495bfa137b68a037b1f661ed47a44b4fb2a65630000000000000000000000000000000000000000000000003620e4b248144332000000000000000000000000000000000000000000000000000000000000271000000000000000000000000000000000000000000000000000000000000000010000000000000000000000000000000000000000000000000000000000000000",
                    "decodedMethod": null,
                    "errorInfo": "",
                    "fromAddress": "0x9db7378614d8d9d7149c4ee4763f88c38f9b1517",
                    "gasUsed": 38532,
                    "id": 2,
                    "methodDecoded": false,
                    "operation": "DELEGATECALL",
                    "output": "0x000000000000000000000000000000000000000000000071f8a1f79939475046",
                    "revert": true,
                    "revertMessage": "",
                    "selector": "0x6526f12f",
                    "status": true,
                    "value": "0"
                },
                "nodeType": 0
            },
            "3": {
                "invocation": {
                    "address": "0xe495bfa137b68a037b1f661ed47a44b4fb2a6563",
                    "callData": "0x",
                    "decodedMethod": {
                        "callParams": [],
                        "constructorArguments": "",
                        "name": "liquidity",
                        "returnParams": [
                            {
                                "name": "",
                                "type": "uint128",
                                "value": "2,924,243,858,042,750,612,772"
                            }
                        ],
                        "signature": "liquidity()"
                    },
                    "errorInfo": "",
                    "fromAddress": "0x9db7378614d8d9d7149c4ee4763f88c38f9b1517",
                    "gasUsed": 2428,
                    "id": 3,
                    "methodDecoded": true,
                    "operation": "STATICCALL",
                    "output": "0x00000000000000000000000000000000000000000000009e86092794f7f5b524",
                    "revert": true,
                    "revertMessage": "",
                    "selector": "0x1a686502",
                    "status": true,
                    "value": "0"
                },
                "nodeType": 0
            },
            "4": {
                "invocation": {
                    "address": "0xe495bfa137b68a037b1f661ed47a44b4fb2a6563",
                    "callData": "0x",
                    "decodedMethod": {
                        "callParams": [],
                        "constructorArguments": "",
                        "name": "tickSpacing",
                        "returnParams": [
                            {
                                "name": "",
                                "type": "int24",
                                "value": "200"
                            }
                        ],
                        "signature": "tickSpacing()"
                    },
                    "errorInfo": "",
                    "fromAddress": "0x9db7378614d8d9d7149c4ee4763f88c38f9b1517",
                    "gasUsed": 279,
                    "id": 4,
                    "methodDecoded": true,
                    "operation": "STATICCALL",
                    "output": "0x00000000000000000000000000000000000000000000000000000000000000c8",
                    "revert": true,
                    "revertMessage": "",
                    "selector": "0xd0c93a7c",
                    "status": true,
                    "value": "0"
                },
                "nodeType": 0
            },
            "5": {
                "invocation": {
                    "address": "0xe495bfa137b68a037b1f661ed47a44b4fb2a6563",
                    "callData": "0x",
                    "decodedMethod": {
                        "callParams": [],
                        "constructorArguments": "",
                        "name": "fee",
                        "returnParams": [
                            {
                                "name": "",
                                "type": "uint24",
                                "value": "10,000"
                            }
                        ],
                        "signature": "fee()"
                    },
                    "errorInfo": "",
                    "fromAddress": "0x9db7378614d8d9d7149c4ee4763f88c38f9b1517",
                    "gasUsed": 251,
                    "id": 5,
                    "methodDecoded": true,
                    "operation": "STATICCALL",
                    "output": "0x0000000000000000000000000000000000000000000000000000000000002710",
                    "revert": true,
                    "revertMessage": "",
                    "selector": "0xddca3f43",
                    "status": true,
                    "value": "0"
                },
                "nodeType": 0
            },
            "6": {
                "invocation": {
                    "address": "0xe495bfa137b68a037b1f661ed47a44b4fb2a6563",
                    "callData": "0x",
                    "decodedMethod": {
                        "callParams": [],
                        "constructorArguments": "",
                        "name": "slot0",
                        "returnParams": [
                            {
                                "name": "sqrtPriceX96",
                                "type": "uint160",
                                "value": "3,345,036,559,758,656,354,491,042,720"
                            },
                            {
                                "name": "tick",
                                "type": "int24",
                                "value": "-63,301"
                            },
                            {
                                "name": "observationIndex",
                                "type": "uint16",
                                "value": "0"
                            },
                            {
                                "name": "observationCardinality",
                                "type": "uint16",
                                "value": "1"
                            },
                            {
                                "name": "observationCardinalityNext",
                                "type": "uint16",
                                "value": "1"
                            },
                            {
                                "name": "feeProtocol",
                                "type": "uint8",
                                "value": "0"
                            },
                            {
                                "name": "unlocked",
                                "type": "bool",
                                "value": true
                            }
                        ],
                        "signature": "slot0()"
                    },
                    "errorInfo": "",
                    "fromAddress": "0x9db7378614d8d9d7149c4ee4763f88c38f9b1517",
                    "gasUsed": 2696,
                    "id": 6,
                    "methodDecoded": true,
                    "operation": "STATICCALL",
                    "output": "0x00000000000000000000000000000000000000000acef30b41b65901d6e40ba0ffffffffffffffffffffffffffffffffffffffffffffffffffffffffffff08bb00000000000000000000000000000000000000000000000000000000000000000000000000000000000000000000000000000000000000000000000000000001000000000000000000000000000000000000000000000000000000000000000100000000000000000000000000000000000000000000000000000000000000000000000000000000000000000000000000000000000000000000000000000001",
                    "revert": true,
                    "revertMessage": "",
                    "selector": "0x3850c7bd",
                    "status": true,
                    "value": "0"
                },
                "nodeType": 0
            },
            "7": {
                "invocation": {
                    "address": "0xe495bfa137b68a037b1f661ed47a44b4fb2a6563",
                    "callData": "0xfffffffffffffffffffffffffffffffffffffffffffffffffffffffffffffffe",
                    "decodedMethod": {
                        "callParams": [
                            {
                                "name": "",
                                "type": "int16",
                                "value": "-2"
                            }
                        ],
                        "constructorArguments": "",
                        "name": "tickBitmap",
                        "returnParams": [
                            {
                                "name": "",
                                "type": "uint256",
                                "value": "34,523,949,466,365,942,712,415,251,378,079,788,411,952,012,218,472,310,580,992,384,576,782,336"
                            }
                        ],
                        "signature": "tickBitmap(int16)"
                    },
                    "errorInfo": "",
                    "fromAddress": "0x9db7378614d8d9d7149c4ee4763f88c38f9b1517",
                    "gasUsed": 2525,
                    "id": 7,
                    "methodDecoded": true,
                    "operation": "STATICCALL",
                    "output": "0x0000050090804221500410000000000000000000000000000000000000000000",
                    "revert": true,
                    "revertMessage": "",
                    "selector": "0x5339c296",
                    "status": true,
                    "value": "0"
                },
                "nodeType": 0
            },
            "8": {
                "invocation": {
                    "address": "0xe495bfa137b68a037b1f661ed47a44b4fb2a6563",
                    "callData": "0xffffffffffffffffffffffffffffffffffffffffffffffffffffffffffff09e8",
                    "decodedMethod": {
                        "callParams": [
                            {
                                "name": "",
                                "type": "int24",
                                "value": "-63,000"
                            }
                        ],
                        "constructorArguments": "",
                        "name": "ticks",
                        "returnParams": [
                            {
                                "name": "liquidityGross",
                                "type": "uint128",
                                "value": "372,428,192,003,877,693,876"
                            },
                            {
                                "name": "liquidityNet",
                                "type": "int128",
                                "value": "372,428,192,003,877,693,876"
                            },
                            {
                                "name": "feeGrowthOutside0X128",
                                "type": "uint256",
                                "value": "140,120,062,829,919,192,921,495,161,372,072,241,830"
                            },
                            {
                                "name": "feeGrowthOutside1X128",
                                "type": "uint256",
                                "value": "270,340,368,637,792,735,328,379,833,559,820,143"
                            },
                            {
                                "name": "tickCumulativeOutside",
                                "type": "int56",
                                "value": "-180,763,841,784"
                            },
                            {
                                "name": "secondsPerLiquidityOutsideX128",
                                "type": "uint160",
                                "value": "356,826,215,102,538,616,753,255"
                            },
                            {
                                "name": "secondsOutside",
                                "type": "uint32",
                                "value": "2,893,224"
                            },
                            {
                                "name": "initialized",
                                "type": "bool",
                                "value": true
                            }
                        ],
                        "signature": "ticks(int24)"
                    },
                    "errorInfo": "",
                    "fromAddress": "0x9db7378614d8d9d7149c4ee4763f88c38f9b1517",
                    "gasUsed": 9199,
                    "id": 8,
                    "methodDecoded": true,
                    "operation": "STATICCALL",
                    "output": "0x000000000000000000000000000000000000000000000014307abb6b1c1ae9b4000000000000000000000000000000000000000000000014307abb6b1c1ae9b400000000000000000000000000000000696a2479a87d484f5d7301d4e6a06aa600000000000000000000000000000000003410cf2aaf9ee6a133102e76d8276fffffffffffffffffffffffffffffffffffffffffffffffffffffffd5e9a2ab08000000000000000000000000000000000000000000004b8f967f597233b14c6700000000000000000000000000000000000000000000000000000000002c25a80000000000000000000000000000000000000000000000000000000000000001",
                    "revert": true,
                    "revertMessage": "",
                    "selector": "0xf30dba93",
                    "status": true,
                    "value": "0"
                },
                "nodeType": 0
            },
            "9": {
                "invocation": {
                    "address": "0xe495bfa137b68a037b1f661ed47a44b4fb2a6563",
                    "callData": "0xfffffffffffffffffffffffffffffffffffffffffffffffffffffffffffffffe",
                    "decodedMethod": {
                        "callParams": [
                            {
                                "name": "",
                                "type": "int16",
                                "value": "-2"
                            }
                        ],
                        "constructorArguments": "",
                        "name": "tickBitmap",
                        "returnParams": [
                            {
                                "name": "",
                                "type": "uint256",
                                "value": "34,523,949,466,365,942,712,415,251,378,079,788,411,952,012,218,472,310,580,992,384,576,782,336"
                            }
                        ],
                        "signature": "tickBitmap(int16)"
                    },
                    "errorInfo": "",
                    "fromAddress": "0x9db7378614d8d9d7149c4ee4763f88c38f9b1517",
                    "gasUsed": 525,
                    "id": 9,
                    "methodDecoded": true,
                    "operation": "STATICCALL",
                    "output": "0x0000050090804221500410000000000000000000000000000000000000000000",
                    "revert": true,
                    "revertMessage": "",
                    "selector": "0x5339c296",
                    "status": true,
                    "value": "0"
                },
                "nodeType": 0
            }
        },
        "gasFlame": [
            {
                "children": [
                    {
                        "children": [
                            {
                                "children": [],
                                "depth": 0,
                                "name": "Initial Gas",
                                "value": 30380
                            },
                            {
                                "children": [
                                    {
                                        "children": [],
                                        "depth": 1,
                                        "name": "getReserves",
                                        "value": 2504
                                    },
                                    {
                                        "children": [
                                            {
                                                "children": [],
                                                "depth": 2,
                                                "name": "liquidity",
                                                "value": 2428
                                            },
                                            {
                                                "children": [],
                                                "depth": 2,
                                                "name": "tickSpacing",
                                                "value": 279
                                            },
                                            {
                                                "children": [],
                                                "depth": 2,
                                                "name": "fee",
                                                "value": 251
                                            },
                                            {
                                                "children": [],
                                                "depth": 2,
                                                "name": "slot0",
                                                "value": 2696
                                            },
                                            {
                                                "children": [],
                                                "depth": 2,
                                                "name": "tickBitmap",
                                                "value": 2525
                                            },
                                            {
                                                "children": [],
                                                "depth": 2,
                                                "name": "ticks",
                                                "value": 9199
                                            },
                                            {
                                                "children": [],
                                                "depth": 2,
                                                "name": "tickBitmap",
                                                "value": 525
                                            }
                                        ],
                                        "depth": 1,
                                        "name": "0x6526f12f",
                                        "value": 38532
                                    },
                                    {
                                        "children": [],
                                        "depth": 1,
                                        "name": "remainingRaw",
                                        "value": 2496
                                    },
                                    {
                                        "children": [],
                                        "depth": 1,
                                        "name": "balanceOf",
                                        "value": 2534
                                    },
                                    {
                                        "children": [],
                                        "depth": 1,
                                        "name": "getReserves",
                                        "value": 2517
                                    }
                                ],
                                "depth": 0,
                                "name": "Executed Gas",
                                "value": 74555
                            }
                        ],
                        "depth": -1,
                        "name": "Actual Gas Used",
                        "value": 104935
                    },
                    {
                        "children": [],
                        "depth": -1,
                        "name": "Refunded Gas",
                        "value": 0
                    }
                ],
                "depth": -2,
                "name": "Total Gas",
                "value": 104935
            }
        ],
        "isConfirmed": true,
        "mainTrace": [
            {
                "children": [
                    {
                        "children": [
                            {
                                "children": [],
                                "depth": 1,
                                "id": 1,
                                "order": 1
                            },
                            {
                                "children": [
                                    {
                                        "children": [],
                                        "depth": 2,
                                        "id": 3,
                                        "order": 3
                                    },
                                    {
                                        "children": [],
                                        "depth": 2,
                                        "id": 4,
                                        "order": 4
                                    },
                                    {
                                        "children": [],
                                        "depth": 2,
                                        "id": 5,
                                        "order": 5
                                    },
                                    {
                                        "children": [],
                                        "depth": 2,
                                        "id": 6,
                                        "order": 6
                                    },
                                    {
                                        "children": [],
                                        "depth": 2,
                                        "id": 7,
                                        "order": 7
                                    },
                                    {
                                        "children": [],
                                        "depth": 2,
                                        "id": 8,
                                        "order": 8
                                    },
                                    {
                                        "children": [],
                                        "depth": 2,
                                        "id": 9,
                                        "order": 9
                                    }
                                ],
                                "depth": 1,
                                "id": 2,
                                "order": 2
                            },
                            {
                                "children": [],
                                "depth": 1,
                                "id": 10,
                                "order": 10
                            },
                            {
                                "children": [],
                                "depth": 1,
                                "id": 11,
                                "order": 11
                            },
                            {
                                "children": [],
                                "depth": 1,
                                "id": 12,
                                "order": 12
                            }
                        ],
                        "depth": 0,
                        "id": 0,
                        "order": 0
                    }
                ],
                "depth": -1,
                "id": -1,
                "order": -1
            }
        ],
        "mainTraceNodeCount": 13,
        "parentIdMap": {
            "0": -1,
            "1": 0,
            "10": 0,
            "11": 0,
            "12": 0,
            "2": 0,
            "3": 2,
            "4": 2,
            "5": 2,
            "6": 2,
            "7": 2,
            "8": 2,
            "9": 2
        },
        "tidyTrace": [
            {
                "children": [
                    {
                        "children": [
                            {
                                "children": [],
                                "depth": 1,
                                "id": 2,
                                "order": 2
                            }
                        ],
                        "depth": 0,
                        "id": 0,
                        "order": 0
                    }
                ],
                "depth": -1,
                "id": -1,
                "order": -1
            }
        ],
        "tidyTraceNodeCount": 2
    },
    "state_change": {
        "stateChanges": []
    }
}