{
    "balance_change": {
        "balanceChanges": [
            {
                "account": "0x76e40d0a69fd81826b5eb7d18145626d46eafdef",
                "assets": [
                    {
                        "address": "0xeeeeeeeeeeeeeeeeeeeeeeeeeeeeeeeeeeeeeeee",
                        "amount": "0.00000000000205032",
                        "iconUrl": "https://assets.blocksec.com/image/1663669189317-3.png",
                        "isERC1155": false,
                        "isERC721": false,
                        "sign": false,
                        "value": "0.0000000054840360110400004253"
                    }
                ]
            },
            {
                "account": "0xa69babef1ca67a37ffaf7a485dfff3382056e78c",
                "assets": [
                    {
                        "address": "0x2260fac5e5542a773aa44fbcfedf7c193bc2c599",
                        "amount": "0.11927107",
                        "iconUrl": "https://assets.blocksec.com/icon/878f2983cb21c5816eb5879d9b6f7a3fe2eb6fce7560c367a0315527852a8a84.png",
                        "isERC1155": false,
                        "isERC721": false,
                        "sign": false,
                        "value": "7037.94729856"
                    },
                    {
                        "address": "0xeeeeeeeeeeeeeeeeeeeeeeeeeeeeeeeeeeeeeeee",
                        "amount": "0.00000000000205032",
                        "iconUrl": "https://assets.blocksec.com/image/1663669189317-3.png",
                        "isERC1155": false,
                        "isERC721": false,
                        "sign": true,
                        "value": "0.0000000054840360110400004253"
                    },
                    {
                        "address": "0xc02aaa39b223fe8d0a0e5c4f27ead9083c756cc2",
                        "amount": "2.639243517796300642",
                        "iconUrl": "https://assets.blocksec.com/icon/f1cb2d02c471d545bbc7722daf3277fd852d98e63d118771af7047bd8256c516.png",
                        "isERC1155": false,
                        "isERC721": false,
                        "sign": true,
                        "value": "7059.242700951996547"
                    }
                ]
            },
            {
                "account": "0xe6ff8b9a37b0fab776134636d9981aa778c4e718",
                "assets": [
                    {
                        "address": "0xc02aaa39b223fe8d0a0e5c4f27ead9083c756cc2",
                        "amount": "2.639243517796300642",
                        "iconUrl": "https://assets.blocksec.com/icon/f1cb2d02c471d545bbc7722daf3277fd852d98e63d118771af7047bd8256c516.png",
                        "isERC1155": false,
                        "isERC721": false,
                        "sign": false,
                        "value": "7059.242700951996547"
                    },
                    {
                        "address": "0x2260fac5e5542a773aa44fbcfedf7c193bc2c599",
                        "amount": "0.11927107",
                        "iconUrl": "https://assets.blocksec.com/icon/878f2983cb21c5816eb5879d9b6f7a3fe2eb6fce7560c367a0315527852a8a84.png",
                        "isERC1155": false,
                        "isERC721": false,
                        "sign": true,
                        "value": "7037.94729856"
                    }
                ]
            }
        ]
    },
    "profile": {
        "basic_info": {
            "baseFee": "5.170389011",
            "blockNumber": 20529046,
            "callData": "0x78e111f6000000000000000000000000d9e54990eab9948e7808f3e2d8b411394e7cb4e3000000000000000000000000000000000000000000000000000000000000004000000000000000000000000000000000000000000000000000000000000000c4f4ff52950000000000000000000000000000000000000000000000000000000000b5fe4300000000000000000000000000000000000000000000000000100f9ca2b54db90000000000000000000000000000000000072d4826a0bb901f60e4ba6ca385110000000000000000000000000000000000000000000000000de0b6b3a76400000000000000000000000000000000000000000000000000000000000066bd096bff000000000000000000000000000000000000000000000000000000000104a700000000000000000000000000000000000000000000000000000000",
            "debugEnable": true,
            "errorInfo": "",
            "eventCount": 3,
            "feeRecipient": "0x4838b106fce9647bdf1e7877bf73ce8b0bad5f97",
            "formatValue": "0.00000000000205032",
            "gasLimit": 213960,
            "gasPrice": "6.170389012",
            "gasUsed": 107057,
            "intTxnCount": 7,
            "internalRevert": false,
            "internalRevertMessage": "",
            "isContractCreation": false,
            "isFlashloan": false,
            "maxFee": "8.755583517",
            "nonce": 214733,
            "overwritedBlockNumber": -1,
            "priorityFee": "1.000000001",
            "receiver": "0xa69babef1ca67a37ffaf7a485dfff3382056e78c",
            "revertMessage": "",
            "sender": "0x76e40d0a69fd81826b5eb7d18145626d46eafdef",
            "simulationEnable": true,
            "sourceTxnHash": "0xb1158ec7f32d4ff84c05a0066e6c97e2b8dd064bf5e1956a7e57871dd0bd4746",
            "status": true,
            "timestamp": "2024-08-14T19:45:47Z",
            "transactionFee": "0.000660583336457684",
            "txnHash": "0xb1158ec7f32d4ff84c05a0066e6c97e2b8dd064bf5e1956a7e57871dd0bd4746",
            "txnIndex": 70,
            "type": 2,
            "value": "2050320"
        },
        "fund_flow": [
            {
                "amount": "0.00000000000205032",
                "from": "0x76e40d0a69fd81826b5eb7d18145626d46eafdef",
                "id": 1,
                "isERC1155": false,
                "isERC721": false,
                "isReverted": false,
                "order": 1,
                "to": "0xa69babef1ca67a37ffaf7a485dfff3382056e78c",
                "token": "0xeeeeeeeeeeeeeeeeeeeeeeeeeeeeeeeeeeeeeeee"
            },
            {
                "amount": "2.639243517796300642",
                "from": "0xe6ff8b9a37b0fab776134636d9981aa778c4e718",
                "id": 2,
                "isERC1155": false,
                "isERC721": false,
                "isReverted": false,
                "order": 2,
                "to": "0xa69babef1ca67a37ffaf7a485dfff3382056e78c",
                "token": "0xc02aaa39b223fe8d0a0e5c4f27ead9083c756cc2"
            },
            {
                "amount": "0.11927107",
                "from": "0xa69babef1ca67a37ffaf7a485dfff3382056e78c",
                "id": 3,
                "isERC1155": false,
                "isERC721": false,
                "isReverted": false,
                "order": 3,
                "to": "0xe6ff8b9a37b0fab776134636d9981aa778c4e718",
                "token": "0x2260fac5e5542a773aa44fbcfedf7c193bc2c599"
            }
        ],
        "token_infos": [
            {
                "address": "0x2260fac5e5542a773aa44fbcfedf7c193bc2c599",
                "decimals": 8
            },
            {
                "address": "0xc02aaa39b223fe8d0a0e5c4f27ead9083c756cc2",
                "decimals": 18
            },
            {
                "address": "0xeeeeeeeeeeeeeeeeeeeeeeeeeeeeeeeeeeeeeeee",
                "decimals": 18
            }
        ]
    },
    "address_label": {
        "labels": [
            {
                "address": "0xe6ff8b9a37b0fab776134636d9981aa778c4e718",
                "label": "Uniswap V3: WBTC 4"
            },
            {
                "address": "0x0000000000000000000000000000000000000001",
                "label": "Precompiled"
            },
            {
                "address": "0x0000000000000000000000000000000000000003",
                "label": "Precompiled"
            },
            {
                "address": "0x0000000000000000000000000000000000000004",
                "label": "Precompiled"
            },
            {
                "address": "0xeeeeeeeeeeeeeeeeeeeeeeeeeeeeeeeeeeeeeeee",
                "label": "Ether"
            },
            {
                "address": "0xc02aaa39b223fe8d0a0e5c4f27ead9083c756cc2",
                "label": "Wrapped Ether (WETH)"
            },
            {
                "address": "0x0000000000000000000000000000000000000002",
                "label": "Precompiled"
            },
            {
                "address": "0xa69babef1ca67a37ffaf7a485dfff3382056e78c",
                "label": "MEV Bot: 0xA69...78C"
            },
            {
                "address": "0x2260fac5e5542a773aa44fbcfedf7c193bc2c599",
                "label": "Wrapped BTC: WBTC Token"
            }
        ]
    },
    "trace": {
        "accountLabels": null,
        "dataMap": {
            "-1": {
                "invocation": {
                    "address": "0x76e40d0a69fd81826b5eb7d18145626d46eafdef",
                    "callData": "",
                    "decodedMethod": null,
                    "errorInfo": "",
                    "fromAddress": "",
                    "gasUsed": 0,
                    "id": -1,
                    "methodDecoded": false,
                    "operation": "",
                    "output": "",
                    "revert": false,
                    "revertMessage": "",
                    "selector": "",
                    "status": false,
                    "value": ""
                },
                "nodeType": 0
            },
            "0": {
                "invocation": {
                    "address": "0xa69babef1ca67a37ffaf7a485dfff3382056e78c",
                    "callData": "0x000000000000000000000000d9e54990eab9948e7808f3e2d8b411394e7cb4e3000000000000000000000000000000000000000000000000000000000000004000000000000000000000000000000000000000000000000000000000000000c4f4ff52950000000000000000000000000000000000000000000000000000000000b5fe4300000000000000000000000000000000000000000000000000100f9ca2b54db90000000000000000000000000000000000072d4826a0bb901f60e4ba6ca385110000000000000000000000000000000000000000000000000de0b6b3a76400000000000000000000000000000000000000000000000000000000000066bd096bff000000000000000000000000000000000000000000000000000000000104a700000000000000000000000000000000000000000000000000000000",
                    "decodedMethod": {
                        "callParams": [
                            {
                                "name": "_address",
                                "type": "address",
                                "value": "0xd9e54990eab9948e7808f3e2d8b411394e7cb4e3"
                            },
                            {
                                "name": "_bytes",
                                "type": "bytes",
                                "value": "0xf4ff52950000000000000000000000000000000000000000000000000000000000b5fe4300000000000000000000000000000000000000000000000000100f9ca2b54db90000000000000000000000000000000000072d4826a0bb901f60e4ba6ca385110000000000000000000000000000000000000000000000000de0b6b3a76400000000000000000000000000000000000000000000000000000000000066bd096bff000000000000000000000000000000000000000000000000000000000104a7"
                            }
                        ],
                        "constructorArguments": "",
                        "name": "executeFFsYo",
                        "returnParams": [],
                        "signature": "executeFFsYo(address,bytes)"
                    },
                    "errorInfo": "",
                    "fromAddress": "0x76e40d0a69fd81826b5eb7d18145626d46eafdef",
                    "gasUsed": 107057,
                    "id": 0,
                    "methodDecoded": true,
                    "operation": "CALL",
                    "output": "0x000000000000000000000000000000000000000000000000000000000000002000000000000000000000000000000000000000000000000000000000000000400000000000000000000000000000000000000000000000000000000000b5fe4300000000000000000000000000000000000000000000000000035fa429c10683",
                    "revert": false,
                    "revertMessage": "",
                    "selector": "0x78e111f6",
                    "status": true,
                    "value": "0.00000000000205032"
                },
                "nodeType": 0
            },
            "1": {
                "invocation": {
                    "address": "0xd9e54990eab9948e7808f3e2d8b411394e7cb4e3",
                    "callData": "0x0000000000000000000000000000000000000000000000000000000000b5fe4300000000000000000000000000000000000000000000000000100f9ca2b54db90000000000000000000000000000000000072d4826a0bb901f60e4ba6ca385110000000000000000000000000000000000000000000000000de0b6b3a76400000000000000000000000000000000000000000000000000000000000066bd096bff000000000000000000000000000000000000000000000000000000000104a7",
                    "decodedMethod": null,
                    "errorInfo": "",
                    "fromAddress": "0xa69babef1ca67a37ffaf7a485dfff3382056e78c",
                    "gasUsed": 51582,
                    "id": 1,
                    "methodDecoded": false,
                    "operation": "DELEGATECALL",
                    "output": "0x0000000000000000000000000000000000000000000000000000000000b5fe4300000000000000000000000000000000000000000000000000035fa429c10683",
                    "revert": false,
                    "revertMessage": "",
                    "selector": "0xf4ff5295",
                    "status": true,
                    "value": "0.00000000000205032"
                },
                "nodeType": 0
            },
            "10": {
                "event": {
                    "contract": "0xe6ff8b9a37b0fab776134636d9981aa778c4e718",
                    "decodedLog": {
                        "name": "Swap",
                        "params": [
                            {
                                "name": "sender",
                                "type": "address",
                                "value": "0xa69babef1ca67a37ffaf7a485dfff3382056e78c"
                            },
                            {
                                "name": "recipient",
                                "type": "address",
                                "value": "0xa69babef1ca67a37ffaf7a485dfff3382056e78c"
                            },
                            {
                                "name": "amount0",
                                "type": "int256",
                                "value": "11,927,107"
                            },
                            {
                                "name": "amount1",
                                "type": "int256",
                                "value": "-2,639,243,517,796,300,642"
                            },
                            {
                                "name": "sqrtPriceX96",
                                "type": "uint160",
                                "value": "37,269,098,980,429,471,536,988,938,734,852,217"
                            },
                            {
                                "name": "liquidity",
                                "type": "uint128",
                                "value": "49,551,864,676,722,856"
                            },
                            {
                                "name": "tick",
                                "type": "int24",
                                "value": "261,239"
                            }
                        ],
                        "signature": "Swap(address,address,int256,int256,uint160,uint128,int24)"
                    },
                    "id": 10,
                    "logData": "0x0000000000000000000000000000000000000000000000000000000000b5fe43ffffffffffffffffffffffffffffffffffffffffffffffffdb5f8600fdffc89e0000000000000000000000000000000000072d82299bee5a9125da4bacb6d87900000000000000000000000000000000000000000000000000b00b288c03a8a8000000000000000000000000000000000000000000000000000000000003fc77",
                    "logDecoded": true,
                    "operation": "EVENT",
                    "revert": false,
                    "status": true,
                    "topics": [
                        "0xc42079f94a6350d7e6235f29174924f928cc2ac818eb64fed8004e115fbcca67",
                        "0x000000000000000000000000a69babef1ca67a37ffaf7a485dfff3382056e78c",
                        "0x000000000000000000000000a69babef1ca67a37ffaf7a485dfff3382056e78c"
                    ]
                },
                "nodeType": 1
            },
            "2": {
                "invocation": {
                    "address": "0xe6ff8b9a37b0fab776134636d9981aa778c4e718",
                    "callData": "0x000000000000000000000000a69babef1ca67a37ffaf7a485dfff3382056e78c00000000000000000000000000000000000000000000000000000000000000010000000000000000000000000000000000000000000000000000000000b5fe430000000000000000000000000000000000072d4826a0bb901f60e4ba6ca3851100000000000000000000000000000000000000000000000000000000000000a000000000000000000000000000000000000000000000000000000000000000605174dcc564c17743e3f1d7ebd208dc5dde4c5d58cd4b4fc7eedaacbb33638f96000000000000000000000000a69babef1ca67a37ffaf7a485dfff3382056e78c0000000000000000000000002260fac5e5542a773aa44fbcfedf7c193bc2c599",
                    "decodedMethod": {
                        "callParams": [
                            {
                                "name": "recipient",
                                "type": "address",
                                "value": "0xa69babef1ca67a37ffaf7a485dfff3382056e78c"
                            },
                            {
                                "name": "zeroForOne",
                                "type": "bool",
                                "value": true
                            },
                            {
                                "name": "amountSpecified",
                                "type": "int256",
                                "value": "11,927,107"
                            },
                            {
                                "name": "sqrtPriceLimitX96",
                                "type": "uint160",
                                "value": "37,264,502,824,353,391,075,052,855,379,592,465"
                            },
                            {
                                "name": "data",
                                "type": "bytes",
                                "value": "0x5174dcc564c17743e3f1d7ebd208dc5dde4c5d58cd4b4fc7eedaacbb33638f96000000000000000000000000a69babef1ca67a37ffaf7a485dfff3382056e78c0000000000000000000000002260fac5e5542a773aa44fbcfedf7c193bc2c599"
                            }
                        ],
                        "constructorArguments": "",
                        "name": "swap",
                        "returnParams": [
                            {
                                "name": "amount0",
                                "type": "int256",
                                "value": "11,927,107"
                            },
                            {
                                "name": "amount1",
                                "type": "int256",
                                "value": "-2,639,243,517,796,300,642"
                            }
                        ],
                        "signature": "swap(address,bool,int256,uint160,bytes)"
                    },
                    "errorInfo": "",
                    "fromAddress": "0xa69babef1ca67a37ffaf7a485dfff3382056e78c",
                    "gasUsed": 50173,
                    "id": 2,
                    "methodDecoded": true,
                    "operation": "CALL",
                    "output": "0x0000000000000000000000000000000000000000000000000000000000b5fe43ffffffffffffffffffffffffffffffffffffffffffffffffdb5f8600fdffc89e",
                    "revert": false,
                    "revertMessage": "",
                    "selector": "0x128acb08",
                    "status": true,
                    "value": "0"
                },
                "nodeType": 0
            },
            "3": {
                "invocation": {
                    "address": "0xc02aaa39b223fe8d0a0e5c4f27ead9083c756cc2",
                    "callData": "0x000000000000000000000000a69babef1ca67a37ffaf7a485dfff3382056e78c00000000000000000000000000000000000000000000000024a079ff02003762",
                    "decodedMethod": {
                        "callParams": [
                            {
                                "name": "dst",
                                "type": "address",
                                "value": "0xa69babef1ca67a37ffaf7a485dfff3382056e78c"
                            },
                            {
                                "decimalAvailable": true,
                                "name": "wad",
                                "type": "uint256",
                                "value": "2,639,243,517,796,300,642"
                            }
                        ],
                        "constructorArguments": "",
                        "name": "transfer",
                        "returnParams": [
                            {
                                "name": "",
                                "type": "bool",
                                "value": true
                            }
                        ],
                        "signature": "transfer(address,uint256)"
                    },
                    "errorInfo": "",
                    "fromAddress": "0xe6ff8b9a37b0fab776134636d9981aa778c4e718",
                    "gasUsed": 8862,
                    "id": 3,
                    "methodDecoded": true,
                    "operation": "CALL",
                    "output": "0x0000000000000000000000000000000000000000000000000000000000000001",
                    "revert": false,
                    "revertMessage": "",
                    "selector": "0xa9059cbb",
                    "status": true,
                    "value": "0"
                },
                "nodeType": 0
            },
            "4": {
                "event": {
                    "contract": "0xc02aaa39b223fe8d0a0e5c4f27ead9083c756cc2",
                    "decodedLog": {
                        "name": "Transfer",
                        "params": [
                            {
                                "name": "src",
                                "type": "address",
                                "value": "0xe6ff8b9a37b0fab776134636d9981aa778c4e718"
                            },
                            {
                                "name": "dst",
                                "type": "address",
                                "value": "0xa69babef1ca67a37ffaf7a485dfff3382056e78c"
                            },
                            {
                                "decimalAvailable": true,
                                "name": "wad",
                                "type": "uint256",
                                "value": "2,639,243,517,796,300,642"
                            }
                        ],
                        "signature": "Transfer(address,address,uint256)"
                    },
                    "id": 4,
                    "logData": "0x00000000000000000000000000000000000000000000000024a079ff02003762",
                    "logDecoded": true,
                    "operation": "EVENT",
                    "revert": false,
                    "status": true,
                    "topics": [
                        "0xddf252ad1be2c89b69c2b068fc378daa952ba7f163c4a11628f55a4df523b3ef",
                        "0x000000000000000000000000e6ff8b9a37b0fab776134636d9981aa778c4e718",
                        "0x000000000000000000000000a69babef1ca67a37ffaf7a485dfff3382056e78c"
                    ]
                },
                "nodeType": 1
            },
            "5": {
                "invocation": {
                    "address": "0x2260fac5e5542a773aa44fbcfedf7c193bc2c599",
                    "callData": "0x000000000000000000000000e6ff8b9a37b0fab776134636d9981aa778c4e718",
                    "decodedMethod": {
                        "callParams": [
                            {
                                "name": "_owner",
                                "type": "address",
                                "value": "0xe6ff8b9a37b0fab776134636d9981aa778c4e718"
                            }
                        ],
                        "constructorArguments": "",
                        "name": "balanceOf",
                        "returnParams": [
                            {
                                "decimalAvailable": true,
                                "name": "",
                                "type": "uint256",
                                "value": "5,672,796,752"
                            }
                        ],
                        "signature": "balanceOf(address)"
                    },
                    "errorInfo": "",
                    "fromAddress": "0xe6ff8b9a37b0fab776134636d9981aa778c4e718",
                    "gasUsed": 795,
                    "id": 5,
                    "methodDecoded": true,
                    "operation": "STATICCALL",
                    "output": "0x0000000000000000000000000000000000000000000000000000000152200250",
                    "revert": false,
                    "revertMessage": "",
                    "selector": "0x70a08231",
                    "status": true,
                    "value": "0"
                },
                "nodeType": 0
            },
            "6": {
                "invocation": {
                    "address": "0xa69babef1ca67a37ffaf7a485dfff3382056e78c",
                    "callData": "0x0000000000000000000000000000000000000000000000000000000000b5fe43ffffffffffffffffffffffffffffffffffffffffffffffffdb5f8600fdffc89e000000000000000000000000000000000000000000000000000000000000006000000000000000000000000000000000000000000000000000000000000000605174dcc564c17743e3f1d7ebd208dc5dde4c5d58cd4b4fc7eedaacbb33638f96000000000000000000000000a69babef1ca67a37ffaf7a485dfff3382056e78c0000000000000000000000002260fac5e5542a773aa44fbcfedf7c193bc2c599",
                    "decodedMethod": {
                        "callParams": [
                            {
                                "name": "amount0Delta",
                                "type": "int256",
                                "value": "11,927,107"
                            },
                            {
                                "name": "amount1Delta",
                                "type": "int256",
                                "value": "-2,639,243,517,796,300,642"
                            },
                            {
                                "name": "data",
                                "type": "bytes",
                                "value": "0x5174dcc564c17743e3f1d7ebd208dc5dde4c5d58cd4b4fc7eedaacbb33638f96000000000000000000000000a69babef1ca67a37ffaf7a485dfff3382056e78c0000000000000000000000002260fac5e5542a773aa44fbcfedf7c193bc2c599"
                            }
                        ],
                        "constructorArguments": "",
                        "name": "uniswapV3SwapCallback",
                        "returnParams": [],
                        "signature": "uniswapV3SwapCallback(int256,int256,bytes)"
                    },
                    "errorInfo": "",
                    "fromAddress": "0xe6ff8b9a37b0fab776134636d9981aa778c4e718",
                    "gasUsed": 10293,
                    "id": 6,
                    "methodDecoded": true,
                    "operation": "CALL",
                    "output": "",
                    "revert": false,
                    "revertMessage": "",
                    "selector": "0xfa461e33",
                    "status": true,
                    "value": "0"
                },
                "nodeType": 0
            },
            "7": {
                "invocation": {
                    "address": "0x2260fac5e5542a773aa44fbcfedf7c193bc2c599",
                    "callData": "0x000000000000000000000000e6ff8b9a37b0fab776134636d9981aa778c4e7180000000000000000000000000000000000000000000000000000000000b5fe43",
                    "decodedMethod": {
                        "callParams": [
                            {
                                "name": "_to",
                                "type": "address",
                                "value": "0xe6ff8b9a37b0fab776134636d9981aa778c4e718"
                            },
                            {
                                "decimalAvailable": true,
                                "name": "_value",
                                "type": "uint256",
                                "value": "11,927,107"
                            }
                        ],
                        "constructorArguments": "",
                        "name": "transfer",
                        "returnParams": [
                            {
                                "name": "",
                                "type": "bool",
                                "value": true
                            }
                        ],
                        "signature": "transfer(address,uint256)"
                    },
                    "errorInfo": "",
                    "fromAddress": "0xa69babef1ca67a37ffaf7a485dfff3382056e78c",
                    "gasUsed": 9703,
                    "id": 7,
                    "methodDecoded": true,
                    "operation": "CALL",
                    "output": "0x0000000000000000000000000000000000000000000000000000000000000001",
                    "revert": false,
                    "revertMessage": "",
                    "selector": "0xa9059cbb",
                    "status": true,
                    "value": "0"
                },
                "nodeType": 0
            },
            "8": {
                "event": {
                    "contract": "0x2260fac5e5542a773aa44fbcfedf7c193bc2c599",
                    "decodedLog": {
                        "name": "Transfer",
                        "params": [
                            {
                                "name": "from",
                                "type": "address",
                                "value": "0xa69babef1ca67a37ffaf7a485dfff3382056e78c"
                            },
                            {
                                "name": "to",
                                "type": "address",
                                "value": "0xe6ff8b9a37b0fab776134636d9981aa778c4e718"
                            },
                            {
                                "decimalAvailable": true,
                                "name": "value",
                                "type": "uint256",
                                "value": "11,927,107"
                            }
                        ],
                        "signature": "Transfer(address,address,uint256)"
                    },
                    "id": 8,
                    "logData": "0x0000000000000000000000000000000000000000000000000000000000b5fe43",
                    "logDecoded": true,
                    "operation": "EVENT",
                    "revert": false,
                    "status": true,
                    "topics": [
                        "0xddf252ad1be2c89b69c2b068fc378daa952ba7f163c4a11628f55a4df523b3ef",
                        "0x000000000000000000000000a69babef1ca67a37ffaf7a485dfff3382056e78c",
                        "0x000000000000000000000000e6ff8b9a37b0fab776134636d9981aa778c4e718"
                    ]
                },
                "nodeType": 1
            },
            "9": {
                "invocation": {
                    "address": "0x2260fac5e5542a773aa44fbcfedf7c193bc2c599",
                    "callData": "0x000000000000000000000000e6ff8b9a37b0fab776134636d9981aa778c4e718",
                    "decodedMethod": {
                        "callParams": [
                            {
                                "name": "_owner",
                                "type": "address",
                                "value": "0xe6ff8b9a37b0fab776134636d9981aa778c4e718"
                            }
                        ],
                        "constructorArguments": "",
                        "name": "balanceOf",
                        "returnParams": [
                            {
                                "decimalAvailable": true,
                                "name": "",
                                "type": "uint256",
                                "value": "5,684,723,859"
                            }
                        ],
                        "signature": "balanceOf(address)"
                    },
                    "errorInfo": "",
                    "fromAddress": "0xe6ff8b9a37b0fab776134636d9981aa778c4e718",
                    "gasUsed": 795,
                    "id": 9,
                    "methodDecoded": true,
                    "operation": "STATICCALL",
                    "output": "0x0000000000000000000000000000000000000000000000000000000152d60093",
                    "revert": false,
                    "revertMessage": "",
                    "selector": "0x70a08231",
                    "status": true,
                    "value": "0"
                },
                "nodeType": 0
            }
        },
        "gasFlame": [
            {
                "children": [
                    {
                        "children": [
                            {
                                "children": [],
                                "depth": 0,
                                "name": "Initial Gas",
                                "value": 53624
                            },
                            {
                                "children": [
                                    {
                                        "children": [
                                            {
                                                "children": [
                                                    {
                                                        "children": [],
                                                        "depth": 3,
                                                        "name": "transfer",
                                                        "value": 8862
                                                    },
                                                    {
                                                        "children": [],
                                                        "depth": 3,
                                                        "name": "balanceOf",
                                                        "value": 795
                                                    },
                                                    {
                                                        "children": [
                                                            {
                                                                "children": [],
                                                                "depth": 4,
                                                                "name": "transfer",
                                                                "value": 9703
                                                            }
                                                        ],
                                                        "depth": 3,
                                                        "name": "uniswapV3SwapCallback",
                                                        "value": 10293
                                                    },
                                                    {
                                                        "children": [],
                                                        "depth": 3,
                                                        "name": "balanceOf",
                                                        "value": 795
                                                    }
                                                ],
                                                "depth": 2,
                                                "name": "swap",
                                                "value": 50173
                                            }
                                        ],
                                        "depth": 1,
                                        "name": "0xf4ff5295",
                                        "value": 51582
                                    }
                                ],
                                "depth": 0,
                                "name": "Executed Gas",
                                "value": 53433
                            }
                        ],
                        "depth": -1,
                        "name": "Actual Gas Used",
                        "value": 107057
                    },
                    {
                        "children": [],
                        "depth": -1,
                        "name": "Refunded Gas",
                        "value": 0
                    }
                ],
                "depth": -2,
                "name": "Total Gas",
                "value": 107057
            }
        ],
        "isConfirmed": true,
        "mainTrace": [
            {
                "children": [
                    {
                        "children": [
                            {
                                "children": [
                                    {
                                        "children": [
                                            {
                                                "children": [
                                                    {
                                                        "children": [],
                                                        "depth": 4,
                                                        "id": 4,
                                                        "order": 4
                                                    }
                                                ],
                                                "depth": 3,
                                                "id": 3,
                                                "order": 3
                                            },
                                            {
                                                "children": [],
                                                "depth": 3,
                                                "id": 5,
                                                "order": 5
                                            },
                                            {
                                                "children": [
                                                    {
                                                        "children": [
                                                            {
                                                                "children": [],
                                                                "depth": 5,
                                                                "id": 8,
                                                                "order": 8
                                                            }
                                                        ],
                                                        "depth": 4,
                                                        "id": 7,
                                                        "order": 7
                                                    }
                                                ],
                                                "depth": 3,
                                                "id": 6,
                                                "order": 6
                                            },
                                            {
                                                "children": [],
                                                "depth": 3,
                                                "id": 9,
                                                "order": 9
                                            },
                                            {
                                                "children": [],
                                                "depth": 3,
                                                "id": 10,
                                                "order": 10
                                            }
                                        ],
                                        "depth": 2,
                                        "id": 2,
                                        "order": 2
                                    }
                                ],
                                "depth": 1,
                                "id": 1,
                                "order": 1
                            }
                        ],
                        "depth": 0,
                        "id": 0,
                        "order": 0
                    }
                ],
                "depth": -1,
                "id": -1,
                "order": -1
            }
        ],
        "mainTraceNodeCount": 11,
        "parentIdMap": {
            "0": -1,
            "1": 0,
            "10": 2,
            "2": 1,
            "3": 2,
            "4": 3,
            "5": 2,
            "6": 2,
            "7": 6,
            "8": 7,
            "9": 2
        },
        "tidyTrace": [
            {
                "children": [
                    {
                        "children": [
                            {
                                "children": [
                                    {
                                        "children": [
                                            {
                                                "children": [
                                                    {
                                                        "children": [],
                                                        "depth": 4,
                                                        "id": 4,
                                                        "order": 4
                                                    }
                                                ],
                                                "depth": 3,
                                                "id": 3,
                                                "order": 3
                                            },
                                            {
                                                "children": [
                                                    {
                                                        "children": [
                                                            {
                                                                "children": [],
                                                                "depth": 5,
                                                                "id": 8,
                                                                "order": 8
                                                            }
                                                        ],
                                                        "depth": 4,
                                                        "id": 7,
                                                        "order": 7
                                                    }
                                                ],
                                                "depth": 3,
                                                "id": 6,
                                                "order": 6
                                            },
                                            {
                                                "children": [],
                                                "depth": 3,
                                                "id": 10,
                                                "order": 10
                                            }
                                        ],
                                        "depth": 2,
                                        "id": 2,
                                        "order": 2
                                    }
                                ],
                                "depth": 1,
                                "id": 1,
                                "order": 1
                            }
                        ],
                        "depth": 0,
                        "id": 0,
                        "order": 0
                    }
                ],
                "depth": -1,
                "id": -1,
                "order": -1
            }
        ],
        "tidyTraceNodeCount": 9
    },
    "state_change": {
        "stateChanges": [
            {
                "address": "0x2260fac5e5542a773aa44fbcfedf7c193bc2c599",
                "erc": "ERC-20",
                "slots": [
                    {
                        "current": "0x00000000000000000000000000000000000000000000000000000002b3008d0c",
                        "key": "0x99713ceb4322a7b2d063a2b1e90a212070b8c507ea9c7afebed78f66997ae15e",
                        "prev": "0x00000000000000000000000000000000000000000000000000000002b3b68b4f"
                    },
                    {
                        "current": "0x0000000000000000000000000000000000000000000000000000000152d60093",
                        "key": "0x72ed84c161946f627622700d5a9a9b5c7bd5bb3de6480b5eb052f957a91a5856",
                        "prev": "0x0000000000000000000000000000000000000000000000000000000152200250"
                    }
                ],
                "storageVariables": [
                    {
                        "name": "balances",
                        "type": "mapping(address => uint256)",
                        "value": {
                            "pairs": [
                                {
                                    "key": "0xa69babef1ca67a37ffaf7a485dfff3382056e78c",
                                    "value": {
                                        "current": "11593092364",
                                        "prev": "11605019471",
                                        "typeTag": 1
                                    }
                                },
                                {
                                    "key": "0xe6ff8b9a37b0fab776134636d9981aa778c4e718",
                                    "value": {
                                        "current": "5684723859",
                                        "prev": "5672796752",
                                        "typeTag": 1
                                    }
                                }
                            ],
                            "typeTag": 4
                        }
                    }
                ]
            },
            {
                "address": "0xc02aaa39b223fe8d0a0e5c4f27ead9083c756cc2",
                "erc": "ERC-20",
                "slots": [
                    {
                        "current": "0x000000000000000000000000000000000000000000000003ea27d99f10be2897",
                        "key": "0xec660e1e080fb1f28dab280c0cb6555838471a4a0a0e01e95c0406ebfaaf3f49",
                        "prev": "0x0000000000000000000000000000000000000000000000040ec8539e12be5ff9"
                    },
                    {
                        "current": "0x000000000000000000000000000000000000000000000238cb99feb4de4087f8",
                        "key": "0x75245230289a9f0bf73a6c59aef6651b98b3833a62a3c0bd9ab6b0dec8ed4d8f",
                        "prev": "0x000000000000000000000000000000000000000000000238a6f984b5dc405096"
                    }
                ],
                "storageVariables": [
                    {
                        "name": "balanceOf",
                        "type": "mapping(address => uint256)",
                        "value": {
                            "pairs": [
                                {
                                    "key": "0xa69babef1ca67a37ffaf7a485dfff3382056e78c",
                                    "value": {
                                        "current": "10492421671180937758712",
                                        "prev": "10489782427663141458070",
                                        "typeTag": 1
                                    }
                                },
                                {
                                    "key": "0xe6ff8b9a37b0fab776134636d9981aa778c4e718",
                                    "value": {
                                        "current": "72212926027299432599",
                                        "prev": "74852169545095733241",
                                        "typeTag": 1
                                    }
                                }
                            ],
                            "typeTag": 4
                        }
                    }
                ]
            },
            {
                "address": "0xe6ff8b9a37b0fab776134636d9981aa778c4e718",
                "erc": "",
                "slots": [
                    {
                        "current": "0x00010000500050003903fc770000000000072d82299bee5a9125da4bacb6d879",
                        "key": "0x0000000000000000000000000000000000000000000000000000000000000000",
                        "prev": "0x00010000500050003803fc7a0000000000072db76cbe5e38263fb1d026a7d82d"
                    },
                    {
                        "current": "0x0100196a4d0001c53e90f2bf4cfef5738dad2814c80014339c5dd04266bd096b",
                        "key": "0x0000000000000000000000000000000000000000000000000000000000000041",
                        "prev": "0x0100196a4d0001c53e90cf041c84eda45a4b16a91300143334a5a48266bcef67"
                    },
                    {
                        "current": "0x00000000000000000000000000000000000000212562d7486229eab0f155a6c0",
                        "key": "0x0000000000000000000000000000000000000000000000000000000000000001",
                        "prev": "0x0000000000000000000000000000000000000021255c10708ddf469fe3f55956"
                    }
                ],
                "storageVariables": []
            }
        ]
    }
}