{
    "balance_change": {
        "balanceChanges": [
            {
                "account": "0xfedc4201ec9ee00df3bcd07c90f47e203519b5e8",
                "assets": [
                    {
                        "address": "0x1519aff03b3e23722511d2576c769a77baf09580",
                        "amount": "11,999",
                        "iconUrl": "",
                        "isERC1155": false,
                        "isERC721": false,
                        "sign": false,
                        "value": ""
                    }
                ]
            },
            {
                "account": "0xc032d56603a718e4bd3f8bedbb795cadb11cbb6a",
                "assets": [
                    {
                        "address": "0x1519aff03b3e23722511d2576c769a77baf09580",
                        "amount": "11,999",
                        "iconUrl": "",
                        "isERC1155": false,
                        "isERC721": false,
                        "sign": true,
                        "value": ""
                    }
                ]
            }
        ]
    },
    "profile": {
        "basic_info": {
            "baseFee": "",
            "blockNumber": 8606742,
            "callData": "0xa9059cbb000000000000000000000000c032d56603a718e4bd3f8bedbb795cadb11cbb6a00000000000000000000000000000000000000000000028a77936e92c81c0000",
            "debugEnable": true,
            "errorInfo": "",
            "eventCount": 1,
            "feeRecipient": "0x005e288d713a5fb3d7c9cf1b43810a98688c7223",
            "formatValue": "0",
            "gasLimit": 100000,
            "gasPrice": "25",
            "gasUsed": 37173,
            "intTxnCount": 0,
            "internalRevert": false,
            "internalRevertMessage": "",
            "isContractCreation": false,
            "isFlashloan": false,
            "maxFee": "",
            "nonce": 78410,
            "overwritedBlockNumber": -1,
            "priorityFee": "",
            "receiver": "0x1519aff03b3e23722511d2576c769a77baf09580",
            "revertMessage": "",
            "sender": "0xfedc4201ec9ee00df3bcd07c90f47e203519b5e8",
            "simulationEnable": true,
            "sourceTxnHash": "0xb15c9a36aac6562fc99922ba57423e38c7f10c34b0815d5e6a14d65d870b141c",
            "status": true,
            "timestamp": "2019-09-23T17:22:42Z",
            "transactionFee": "0.000929325",
            "txnHash": "0xb15c9a36aac6562fc99922ba57423e38c7f10c34b0815d5e6a14d65d870b141c",
            "txnIndex": 25,
            "type": 0,
            "value": "0"
        },
        "fund_flow": [
            {
                "amount": "11,999",
                "from": "0xfedc4201ec9ee00df3bcd07c90f47e203519b5e8",
                "id": 1,
                "isERC1155": false,
                "isERC721": false,
                "isReverted": false,
                "order": 1,
                "to": "0xc032d56603a718e4bd3f8bedbb795cadb11cbb6a",
                "token": "0x1519aff03b3e23722511d2576c769a77baf09580"
            }
        ],
        "token_infos": [
            {
                "address": "0x1519aff03b3e23722511d2576c769a77baf09580",
                "decimals": 18
            },
            {
                "address": "0xc02aaa39b223fe8d0a0e5c4f27ead9083c756cc2",
                "decimals": 18
            },
            {
                "address": "0xeeeeeeeeeeeeeeeeeeeeeeeeeeeeeeeeeeeeeeee",
                "decimals": 18
            }
        ]
    },
    "address_label": {
        "labels": [
            {
                "address": "0xc032d56603a718e4bd3f8bedbb795cadb11cbb6a",
                "label": "OKX"
            },
            {
                "address": "0x0000000000000000000000000000000000000001",
                "label": "Precompiled"
            },
            {
                "address": "0x0000000000000000000000000000000000000002",
                "label": "Precompiled"
            },
            {
                "address": "0x0000000000000000000000000000000000000003",
                "label": "Precompiled"
            },
            {
                "address": "0x0000000000000000000000000000000000000004",
                "label": "Precompiled"
            },
            {
                "address": "0xeeeeeeeeeeeeeeeeeeeeeeeeeeeeeeeeeeeeeeee",
                "label": "Ether"
            },
            {
                "address": "0x1519aff03b3e23722511d2576c769a77baf09580",
                "label": "B91: B91 Token"
            }
        ]
    },
    "trace": {
        "accountLabels": null,
        "dataMap": {
            "-1": {
                "invocation": {
                    "address": "0xfedc4201ec9ee00df3bcd07c90f47e203519b5e8",
                    "callData": "",
                    "decodedMethod": null,
                    "errorInfo": "",
                    "fromAddress": "",
                    "gasUsed": 0,
                    "id": -1,
                    "methodDecoded": false,
                    "operation": "",
                    "output": "",
                    "revert": false,
                    "revertMessage": "",
                    "selector": "",
                    "status": false,
                    "value": ""
                },
                "nodeType": 0
            },
            "0": {
                "invocation": {
                    "address": "0x1519aff03b3e23722511d2576c769a77baf09580",
                    "callData": "0x000000000000000000000000c032d56603a718e4bd3f8bedbb795cadb11cbb6a00000000000000000000000000000000000000000000028a77936e92c81c0000",
                    "decodedMethod": {
                        "callParams": [
                            {
                                "name": "_to",
                                "type": "address",
                                "value": "0xc032d56603a718e4bd3f8bedbb795cadb11cbb6a"
                            },
                            {
                                "decimalAvailable": true,
                                "name": "_value",
                                "type": "uint256",
                                "value": "11,999,000,000,000,000,000,000"
                            }
                        ],
                        "constructorArguments": "",
                        "name": "transfer",
                        "returnParams": [
                            {
                                "name": "",
                                "type": "bool",
                                "value": true
                            }
                        ],
                        "signature": "transfer(address,uint256)"
                    },
                    "errorInfo": "",
                    "fromAddress": "0xfedc4201ec9ee00df3bcd07c90f47e203519b5e8",
                    "gasUsed": 37173,
                    "id": 0,
                    "methodDecoded": true,
                    "operation": "CALL",
                    "output": "0x0000000000000000000000000000000000000000000000000000000000000001",
                    "revert": false,
                    "revertMessage": "",
                    "selector": "0xa9059cbb",
                    "status": true,
                    "value": "0"
                },
                "nodeType": 0
            },
            "1": {
                "event": {
                    "contract": "0x1519aff03b3e23722511d2576c769a77baf09580",
                    "decodedLog": {
                        "name": "Transfer",
                        "params": [
                            {
                                "name": "_from",
                                "type": "address",
                                "value": "0xfedc4201ec9ee00df3bcd07c90f47e203519b5e8"
                            },
                            {
                                "name": "_to",
                                "type": "address",
                                "value": "0xc032d56603a718e4bd3f8bedbb795cadb11cbb6a"
                            },
                            {
                                "decimalAvailable": true,
                                "name": "_value",
                                "type": "uint256",
                                "value": "11,999,000,000,000,000,000,000"
                            }
                        ],
                        "signature": "Transfer(address,address,uint256)"
                    },
                    "id": 1,
                    "logData": "0x00000000000000000000000000000000000000000000028a77936e92c81c0000",
                    "logDecoded": true,
                    "operation": "EVENT",
                    "revert": false,
                    "status": true,
                    "topics": [
                        "0xddf252ad1be2c89b69c2b068fc378daa952ba7f163c4a11628f55a4df523b3ef",
                        "0x000000000000000000000000fedc4201ec9ee00df3bcd07c90f47e203519b5e8",
                        "0x000000000000000000000000c032d56603a718e4bd3f8bedbb795cadb11cbb6a"
                    ]
                },
                "nodeType": 1
            }
        },
        "gasFlame": [
            {
                "children": [
                    {
                        "children": [
                            {
                                "children": [],
                                "depth": 0,
                                "name": "Initial Gas",
                                "value": 23320
                            },
                            {
                                "children": [],
                                "depth": 0,
                                "name": "Executed Gas",
                                "value": 13853
                            }
                        ],
                        "depth": -1,
                        "name": "Actual Gas Used",
                        "value": 37173
                    },
                    {
                        "children": [],
                        "depth": -1,
                        "name": "Refunded Gas",
                        "value": 0
                    }
                ],
                "depth": -2,
                "name": "Total Gas",
                "value": 37173
            }
        ],
        "isConfirmed": true,
        "mainTrace": [
            {
                "children": [
                    {
                        "children": [
                            {
                                "children": [],
                                "depth": 1,
                                "id": 1,
                                "order": 1
                            }
                        ],
                        "depth": 0,
                        "id": 0,
                        "order": 0
                    }
                ],
                "depth": -1,
                "id": -1,
                "order": -1
            }
        ],
        "mainTraceNodeCount": 2,
        "parentIdMap": {
            "0": -1,
            "1": 0
        },
        "tidyTrace": [
            {
                "children": [
                    {
                        "children": [
                            {
                                "children": [],
                                "depth": 1,
                                "id": 1,
                                "order": 1
                            }
                        ],
                        "depth": 0,
                        "id": 0,
                        "order": 0
                    }
                ],
                "depth": -1,
                "id": -1,
                "order": -1
            }
        ],
        "tidyTraceNodeCount": 2
    },
    "state_change": {
        "stateChanges": [
            {
                "address": "0x1519aff03b3e23722511d2576c769a77baf09580",
                "erc": "ERC-20",
                "slots": [
                    {
                        "current": "0x0000000000000000000000000000000000000000002ef04b11b7647ebdce2d30",
                        "key": "0xfcdb1ce056b8428cceddf41c8f0721baefa72886d829a7a6215f82c26cea0283",
                        "prev": "0x0000000000000000000000000000000000000000002ef2d5894ad31185ea2d30"
                    },
                    {
                        "current": "0x0000000000000000000000000000000000000000000012723e832447e49b0001",
                        "key": "0x7ca0b02692b5a2c67f0fb5b8b89e71e8cc747ab4b69abd6eaee94e6ac1f134c3",
                        "prev": "0x000000000000000000000000000000000000000000000fe7c6efb5b51c7f0001"
                    }
                ],
                "storageVariables": [
                    {
                        "name": "balances",
                        "type": "mapping(address => uint256)",
                        "value": {
                            "pairs": [
                                {
                                    "key": "0xc032d56603a718e4bd3f8bedbb795cadb11cbb6a",
                                    "value": {
                                        "current": "87110030000000000000001",
                                        "prev": "75111030000000000000001",
                                        "typeTag": 1
                                    }
                                },
                                {
                                    "key": "0xfedc4201ec9ee00df3bcd07c90f47e203519b5e8",
                                    "value": {
                                        "current": "56745340440566700000030000",
                                        "prev": "56757339440566700000030000",
                                        "typeTag": 1
                                    }
                                }
                            ],
                            "typeTag": 4
                        }
                    }
                ]
            }
        ]
    }
}