{
    "balance_change": {
        "balanceChanges": [
            {
                "account": "0x84295d5e054d8cff5a22428b195f5a1615bd644f",
                "assets": [
                    {
                        "address": "0x8fdcc30eda7e94f1c12ce0280df6cd531e8365c5",
                        "amount": "28.8384",
                        "iconUrl": "",
                        "isERC1155": false,
                        "isERC721": false,
                        "sign": false,
                        "value": ""
                    }
                ]
            },
            {
                "account": "0x3c6e9c22cc5564220626babad406b104de7976e0",
                "assets": [
                    {
                        "address": "0x8fdcc30eda7e94f1c12ce0280df6cd531e8365c5",
                        "amount": "28.8384",
                        "iconUrl": "",
                        "isERC1155": false,
                        "isERC721": false,
                        "sign": true,
                        "value": ""
                    }
                ]
            }
        ]
    },
    "profile": {
        "basic_info": {
            "baseFee": "",
            "blockNumber": 8574243,
            "callData": "0xa9059cbb0000000000000000000000003c6e9c22cc5564220626babad406b104de7976e000000000000000000000000000000000000000000000000190369401f2a00000",
            "debugEnable": true,
            "errorInfo": "",
            "eventCount": 1,
            "feeRecipient": "0x002e08000acbbae2155fab7ac01929564949070d",
            "formatValue": "0",
            "gasLimit": 90000,
            "gasPrice": "24",
            "gasUsed": 37180,
            "intTxnCount": 0,
            "internalRevert": false,
            "internalRevertMessage": "",
            "isContractCreation": false,
            "isFlashloan": false,
            "maxFee": "",
            "nonce": 749664,
            "overwritedBlockNumber": -1,
            "priorityFee": "",
            "receiver": "0x8fdcc30eda7e94f1c12ce0280df6cd531e8365c5",
            "revertMessage": "",
            "sender": "0x84295d5e054d8cff5a22428b195f5a1615bd644f",
            "simulationEnable": true,
            "sourceTxnHash": "0xb1c9ad056092af0a6bfe522218391122d84e74ab21acd84fdbdc4f44fbb0c57a",
            "status": true,
            "timestamp": "2019-09-18T15:35:08Z",
            "transactionFee": "0.00089232",
            "txnHash": "0xb1c9ad056092af0a6bfe522218391122d84e74ab21acd84fdbdc4f44fbb0c57a",
            "txnIndex": 179,
            "type": 0,
            "value": "0"
        },
        "fund_flow": [
            {
                "amount": "28.8384",
                "from": "0x84295d5e054d8cff5a22428b195f5a1615bd644f",
                "id": 1,
                "isERC1155": false,
                "isERC721": false,
                "isReverted": false,
                "order": 1,
                "to": "0x3c6e9c22cc5564220626babad406b104de7976e0",
                "token": "0x8fdcc30eda7e94f1c12ce0280df6cd531e8365c5"
            }
        ],
        "token_infos": [
            {
                "address": "0x8fdcc30eda7e94f1c12ce0280df6cd531e8365c5",
                "decimals": 18
            },
            {
                "address": "0xc02aaa39b223fe8d0a0e5c4f27ead9083c756cc2",
                "decimals": 18
            },
            {
                "address": "0xeeeeeeeeeeeeeeeeeeeeeeeeeeeeeeeeeeeeeeee",
                "decimals": 18
            }
        ]
    },
    "address_label": {
        "labels": [
            {
                "address": "0x0000000000000000000000000000000000000003",
                "label": "Precompiled"
            },
            {
                "address": "0x0000000000000000000000000000000000000004",
                "label": "Precompiled"
            },
            {
                "address": "0xeeeeeeeeeeeeeeeeeeeeeeeeeeeeeeeeeeeeeeee",
                "label": "Ether"
            },
            {
                "address": "0x8fdcc30eda7e94f1c12ce0280df6cd531e8365c5",
                "label": "CpcToken (CPCT)"
            },
            {
                "address": "0x0000000000000000000000000000000000000001",
                "label": "Precompiled"
            },
            {
                "address": "0x0000000000000000000000000000000000000002",
                "label": "Precompiled"
            }
        ]
    },
    "trace": {
        "accountLabels": null,
        "dataMap": {
            "-1": {
                "invocation": {
                    "address": "0x84295d5e054d8cff5a22428b195f5a1615bd644f",
                    "callData": "",
                    "decodedMethod": null,
                    "errorInfo": "",
                    "fromAddress": "",
                    "gasUsed": 0,
                    "id": -1,
                    "methodDecoded": false,
                    "operation": "",
                    "output": "",
                    "revert": false,
                    "revertMessage": "",
                    "selector": "",
                    "status": false,
                    "value": ""
                },
                "nodeType": 0
            },
            "0": {
                "invocation": {
                    "address": "0x8fdcc30eda7e94f1c12ce0280df6cd531e8365c5",
                    "callData": "0x0000000000000000000000003c6e9c22cc5564220626babad406b104de7976e000000000000000000000000000000000000000000000000190369401f2a00000",
                    "decodedMethod": {
                        "callParams": [
                            {
                                "name": "_to",
                                "type": "address",
                                "value": "0x3c6e9c22cc5564220626babad406b104de7976e0"
                            },
                            {
                                "decimalAvailable": true,
                                "name": "_value",
                                "type": "uint256",
                                "value": "28,838,400,000,000,000,000"
                            }
                        ],
                        "constructorArguments": "",
                        "name": "transfer",
                        "returnParams": [
                            {
                                "name": "success",
                                "type": "bool",
                                "value": true
                            }
                        ],
                        "signature": "transfer(address,uint256)"
                    },
                    "errorInfo": "",
                    "fromAddress": "0x84295d5e054d8cff5a22428b195f5a1615bd644f",
                    "gasUsed": 37180,
                    "id": 0,
                    "methodDecoded": true,
                    "operation": "CALL",
                    "output": "0x0000000000000000000000000000000000000000000000000000000000000001",
                    "revert": false,
                    "revertMessage": "",
                    "selector": "0xa9059cbb",
                    "status": true,
                    "value": "0"
                },
                "nodeType": 0
            },
            "1": {
                "event": {
                    "contract": "0x8fdcc30eda7e94f1c12ce0280df6cd531e8365c5",
                    "decodedLog": {
                        "name": "Transfer",
                        "params": [
                            {
                                "name": "_from",
                                "type": "address",
                                "value": "0x84295d5e054d8cff5a22428b195f5a1615bd644f"
                            },
                            {
                                "name": "_to",
                                "type": "address",
                                "value": "0x3c6e9c22cc5564220626babad406b104de7976e0"
                            },
                            {
                                "decimalAvailable": true,
                                "name": "_value",
                                "type": "uint256",
                                "value": "28,838,400,000,000,000,000"
                            }
                        ],
                        "signature": "Transfer(address,address,uint256)"
                    },
                    "id": 1,
                    "logData": "0x00000000000000000000000000000000000000000000000190369401f2a00000",
                    "logDecoded": true,
                    "operation": "EVENT",
                    "revert": false,
                    "status": true,
                    "topics": [
                        "0xddf252ad1be2c89b69c2b068fc378daa952ba7f163c4a11628f55a4df523b3ef",
                        "0x00000000000000000000000084295d5e054d8cff5a22428b195f5a1615bd644f",
                        "0x0000000000000000000000003c6e9c22cc5564220626babad406b104de7976e0"
                    ]
                },
                "nodeType": 1
            }
        },
        "gasFlame": [
            {
                "children": [
                    {
                        "children": [
                            {
                                "children": [],
                                "depth": 0,
                                "name": "Initial Gas",
                                "value": 23256
                            },
                            {
                                "children": [],
                                "depth": 0,
                                "name": "Executed Gas",
                                "value": 13924
                            }
                        ],
                        "depth": -1,
                        "name": "Actual Gas Used",
                        "value": 37180
                    },
                    {
                        "children": [],
                        "depth": -1,
                        "name": "Refunded Gas",
                        "value": 0
                    }
                ],
                "depth": -2,
                "name": "Total Gas",
                "value": 37180
            }
        ],
        "isConfirmed": true,
        "mainTrace": [
            {
                "children": [
                    {
                        "children": [
                            {
                                "children": [],
                                "depth": 1,
                                "id": 1,
                                "order": 1
                            }
                        ],
                        "depth": 0,
                        "id": 0,
                        "order": 0
                    }
                ],
                "depth": -1,
                "id": -1,
                "order": -1
            }
        ],
        "mainTraceNodeCount": 2,
        "parentIdMap": {
            "0": -1,
            "1": 0
        },
        "tidyTrace": [
            {
                "children": [
                    {
                        "children": [
                            {
                                "children": [],
                                "depth": 1,
                                "id": 1,
                                "order": 1
                            }
                        ],
                        "depth": 0,
                        "id": 0,
                        "order": 0
                    }
                ],
                "depth": -1,
                "id": -1,
                "order": -1
            }
        ],
        "tidyTraceNodeCount": 2
    },
    "state_change": {
        "stateChanges": [
            {
                "address": "0x8fdcc30eda7e94f1c12ce0280df6cd531e8365c5",
                "erc": "ERC-20",
                "slots": [
                    {
                        "current": "0x00000000000000000000000000000000000000000001a0fd102b33a9a007b8d1",
                        "key": "0x6e4fee96a2374e1333fc77db62e543f2a9d566d72bb3d224b61c7120b02d562f",
                        "prev": "0x00000000000000000000000000000000000000000001a0fea061c7ab92a7b8d1"
                    },
                    {
                        "current": "0x00000000000000000000000000000000000000000000004659980457a6200044",
                        "key": "0x414bca7869047b9dda83474895b79bede50ada3a65f75a2bfaa430cf3c19f0da",
                        "prev": "0x000000000000000000000000000000000000000000000044c9617055b3800044"
                    }
                ],
                "storageVariables": [
                    {
                        "name": "balances",
                        "type": "mapping(address => uint256)",
                        "value": {
                            "pairs": [
                                {
                                    "key": "0x3c6e9c22cc5564220626babad406b104de7976e0",
                                    "value": {
                                        "current": "1297728000000000000068",
                                        "prev": "1268889600000000000068",
                                        "typeTag": 1
                                    }
                                },
                                {
                                    "key": "0x84295d5e054d8cff5a22428b195f5a1615bd644f",
                                    "value": {
                                        "current": "1969172648206153158211793",
                                        "prev": "1969201486606153158211793",
                                        "typeTag": 1
                                    }
                                }
                            ],
                            "typeTag": 4
                        }
                    }
                ]
            }
        ]
    }
}