{
    "balance_change": {
        "balanceChanges": []
    },
    "profile": {
        "basic_info": {
            "baseFee": "10.22951492",
            "blockNumber": 16107278,
            "callData": "0xa22cb46500000000000000000000000000000000000111abe46ff893f3b2fdf1f759a8a80000000000000000000000000000000000000000000000000000000000000001",
            "debugEnable": true,
            "errorInfo": "",
            "eventCount": 1,
            "feeRecipient": "0xdafea492d9c6733ae3d56b7ed1adb60692c98bc5",
            "formatValue": "0",
            "gasLimit": 53873,
            "gasPrice": "11.72951492",
            "gasUsed": 53520,
            "intTxnCount": 1,
            "internalRevert": false,
            "internalRevertMessage": "",
            "isContractCreation": false,
            "isFlashloan": false,
            "maxFee": "16.483143833",
            "nonce": 796,
            "overwritedBlockNumber": -1,
            "priorityFee": "1.5",
            "receiver": "0x495b01c1bc3b9203fde4362d9913c692fb661f3f",
            "revertMessage": "",
            "sender": "0x0dc4b9ad4cd8a06878163427c71f027bb8acb09a",
            "simulationEnable": true,
            "sourceTxnHash": "0xb194483c0f5cfb7bb04e4970b883960c7807bf594e2d8c6be6c224480eb08de3",
            "status": true,
            "timestamp": "2022-12-03T22:30:11Z",
            "transactionFee": "0.0006277636385184",
            "txnHash": "0xb194483c0f5cfb7bb04e4970b883960c7807bf594e2d8c6be6c224480eb08de3",
            "txnIndex": 105,
            "type": 2,
            "value": "0"
        },
        "fund_flow": [],
        "token_infos": [
            {
                "address": "0xc02aaa39b223fe8d0a0e5c4f27ead9083c756cc2",
                "decimals": 18
            },
            {
                "address": "0xeeeeeeeeeeeeeeeeeeeeeeeeeeeeeeeeeeeeeeee",
                "decimals": 18
            }
        ]
    },
    "address_label": {
        "labels": [
            {
                "address": "0x0000000000000000000000000000000000000003",
                "label": "Precompiled"
            },
            {
                "address": "0x0000000000000000000000000000000000000004",
                "label": "Precompiled"
            },
            {
                "address": "0xeeeeeeeeeeeeeeeeeeeeeeeeeeeeeeeeeeeeeeee",
                "label": "Ether"
            },
            {
                "address": "0x00000000000111abe46ff893f3b2fdf1f759a8a8",
                "label": "Blur: Execution Delegate"
            },
            {
                "address": "0x495b01c1bc3b9203fde4362d9913c692fb661f3f",
                "label": "Quantum (QUANTUM)"
            },
            {
                "address": "0x054cd9383bbf58eff5ca4532823c8b5d419418ee",
                "label": "Quantum"
            },
            {
                "address": "0x0000000000000000000000000000000000000001",
                "label": "Precompiled"
            },
            {
                "address": "0x0000000000000000000000000000000000000002",
                "label": "Precompiled"
            }
        ]
    },
    "trace": {
        "accountLabels": null,
        "dataMap": {
            "-1": {
                "invocation": {
                    "address": "0x0dc4b9ad4cd8a06878163427c71f027bb8acb09a",
                    "callData": "",
                    "decodedMethod": null,
                    "errorInfo": "",
                    "fromAddress": "",
                    "gasUsed": 0,
                    "id": -1,
                    "methodDecoded": false,
                    "operation": "",
                    "output": "",
                    "revert": false,
                    "revertMessage": "",
                    "selector": "",
                    "status": false,
                    "value": ""
                },
                "nodeType": 0
            },
            "0": {
                "invocation": {
                    "address": "0x495b01c1bc3b9203fde4362d9913c692fb661f3f",
                    "callData": "0x00000000000000000000000000000000000111abe46ff893f3b2fdf1f759a8a80000000000000000000000000000000000000000000000000000000000000001",
                    "decodedMethod": {
                        "callParams": [
                            {
                                "name": "operator",
                                "type": "address",
                                "value": "0x00000000000111abe46ff893f3b2fdf1f759a8a8"
                            },
                            {
                                "name": "approved",
                                "type": "bool",
                                "value": true
                            }
                        ],
                        "constructorArguments": "",
                        "name": "setApprovalForAll",
                        "returnParams": [],
                        "signature": "setApprovalForAll(address,bool)"
                    },
                    "errorInfo": "",
                    "fromAddress": "0x0dc4b9ad4cd8a06878163427c71f027bb8acb09a",
                    "gasUsed": 53520,
                    "id": 0,
                    "methodDecoded": true,
                    "operation": "CALL",
                    "output": "",
                    "revert": false,
                    "revertMessage": "",
                    "selector": "0xa22cb465",
                    "status": true,
                    "value": "0"
                },
                "nodeType": 0
            },
            "1": {
                "invocation": {
                    "address": "0x054cd9383bbf58eff5ca4532823c8b5d419418ee",
                    "callData": "0x00000000000000000000000000000000000111abe46ff893f3b2fdf1f759a8a80000000000000000000000000000000000000000000000000000000000000001",
                    "decodedMethod": {
                        "callParams": [
                            {
                                "name": "operator",
                                "type": "address",
                                "value": "0x00000000000111abe46ff893f3b2fdf1f759a8a8"
                            },
                            {
                                "name": "approved",
                                "type": "bool",
                                "value": true
                            }
                        ],
                        "constructorArguments": "",
                        "name": "setApprovalForAll",
                        "returnParams": [],
                        "signature": "setApprovalForAll(address,bool)"
                    },
                    "errorInfo": "",
                    "fromAddress": "0x495b01c1bc3b9203fde4362d9913c692fb661f3f",
                    "gasUsed": 24677,
                    "id": 1,
                    "methodDecoded": true,
                    "operation": "DELEGATECALL",
                    "output": "",
                    "revert": false,
                    "revertMessage": "",
                    "selector": "0xa22cb465",
                    "status": true,
                    "value": "0"
                },
                "nodeType": 0
            },
            "2": {
                "event": {
                    "contract": "0x495b01c1bc3b9203fde4362d9913c692fb661f3f",
                    "decodedLog": {
                        "name": "ApprovalForAll",
                        "params": [
                            {
                                "name": "owner",
                                "type": "address",
                                "value": "0x0dc4b9ad4cd8a06878163427c71f027bb8acb09a"
                            },
                            {
                                "name": "operator",
                                "type": "address",
                                "value": "0x00000000000111abe46ff893f3b2fdf1f759a8a8"
                            },
                            {
                                "name": "approved",
                                "type": "bool",
                                "value": true
                            }
                        ],
                        "signature": "ApprovalForAll(address,address,bool)"
                    },
                    "id": 2,
                    "logData": "0x0000000000000000000000000000000000000000000000000000000000000001",
                    "logDecoded": true,
                    "operation": "EVENT",
                    "revert": false,
                    "status": true,
                    "topics": [
                        "0x17307eab39ab6107e8899845ad3d59bd9653f200f220920489ca2b5937696c31",
                        "0x0000000000000000000000000dc4b9ad4cd8a06878163427c71f027bb8acb09a",
                        "0x00000000000000000000000000000000000111abe46ff893f3b2fdf1f759a8a8"
                    ]
                },
                "nodeType": 1
            }
        },
        "gasFlame": [
            {
                "children": [
                    {
                        "children": [
                            {
                                "children": [],
                                "depth": 0,
                                "name": "Initial Gas",
                                "value": 21512
                            },
                            {
                                "children": [
                                    {
                                        "children": [],
                                        "depth": 1,
                                        "name": "setApprovalForAll",
                                        "value": 24677
                                    }
                                ],
                                "depth": 0,
                                "name": "Executed Gas",
                                "value": 32008
                            }
                        ],
                        "depth": -1,
                        "name": "Actual Gas Used",
                        "value": 53520
                    },
                    {
                        "children": [],
                        "depth": -1,
                        "name": "Refunded Gas",
                        "value": 0
                    }
                ],
                "depth": -2,
                "name": "Total Gas",
                "value": 53520
            }
        ],
        "isConfirmed": true,
        "mainTrace": [
            {
                "children": [
                    {
                        "children": [
                            {
                                "children": [
                                    {
                                        "children": [],
                                        "depth": 2,
                                        "id": 2,
                                        "order": 2
                                    }
                                ],
                                "depth": 1,
                                "id": 1,
                                "order": 1
                            }
                        ],
                        "depth": 0,
                        "id": 0,
                        "order": 0
                    }
                ],
                "depth": -1,
                "id": -1,
                "order": -1
            }
        ],
        "mainTraceNodeCount": 3,
        "parentIdMap": {
            "0": -1,
            "1": 0,
            "2": 1
        },
        "tidyTrace": [
            {
                "children": [
                    {
                        "children": [
                            {
                                "children": [
                                    {
                                        "children": [],
                                        "depth": 2,
                                        "id": 2,
                                        "order": 2
                                    }
                                ],
                                "depth": 1,
                                "id": 1,
                                "order": 1
                            }
                        ],
                        "depth": 0,
                        "id": 0,
                        "order": 0
                    }
                ],
                "depth": -1,
                "id": -1,
                "order": -1
            }
        ],
        "tidyTraceNodeCount": 3
    },
    "state_change": {
        "stateChanges": [
            {
                "address": "0x495b01c1bc3b9203fde4362d9913c692fb661f3f",
                "erc": "ERC-721",
                "slots": [
                    {
                        "current": "0x0000000000000000000000000000000000000000000000000000000000000001",
                        "key": "0x3484efddbe94741cb13e264496491be4f71e48fbd965baf0ca174a226b81fc25",
                        "prev": "0x0000000000000000000000000000000000000000000000000000000000000000"
                    }
                ],
                "storageVariables": [
                    {
                        "name": "_operatorApprovals",
                        "type": "mapping(address => mapping(address => bool))",
                        "value": {
                            "pairs": [
                                {
                                    "key": "0x0dc4b9ad4cd8a06878163427c71f027bb8acb09a",
                                    "value": {
                                        "pairs": [
                                            {
                                                "key": "0x00000000000111abe46ff893f3b2fdf1f759a8a8",
                                                "value": {
                                                    "current": "true",
                                                    "prev": "false",
                                                    "typeTag": 1
                                                }
                                            }
                                        ],
                                        "typeTag": 4
                                    }
                                }
                            ],
                            "typeTag": 4
                        }
                    }
                ]
            }
        ]
    }
}