{
    "balance_change": {
        "balanceChanges": [
            {
                "account": "0x98c3d3183c4b8a650614ad179a1a98be0a8d6b8e",
                "assets": [
                    {
                        "address": "0xc02aaa39b223fe8d0a0e5c4f27ead9083c756cc2",
                        "amount": "1.254930329601717758",
                        "iconUrl": "https://assets.blocksec.com/icon/f1cb2d02c471d545bbc7722daf3277fd852d98e63d118771af7047bd8256c516.png",
                        "isERC1155": false,
                        "isERC721": false,
                        "sign": true,
                        "value": "1553.8045373928001027"
                    },
                    {
                        "address": "0xb62132e35a6c13ee1ee0f84dc5d40bad8d815206",
                        "amount": "2,184.885731059740787575",
                        "iconUrl": "https://assets.blocksec.com/icon/fea86f969d2759a2ee2f170e71fc014cd439e415f97fa60c37db575eb46dfac5.png",
                        "isERC1155": false,
                        "isERC721": false,
                        "sign": false,
                        "value": "1545.8066546825000388"
                    }
                ]
            },
            {
                "account": "0x4c54ff7f1c424ff5487a32aad0b48b19cbaf087f",
                "assets": [
                    {
                        "address": "0xc02aaa39b223fe8d0a0e5c4f27ead9083c756cc2",
                        "amount": "1.254930329601717758",
                        "iconUrl": "https://assets.blocksec.com/icon/f1cb2d02c471d545bbc7722daf3277fd852d98e63d118771af7047bd8256c516.png",
                        "isERC1155": false,
                        "isERC721": false,
                        "sign": false,
                        "value": "1553.8045373928001027"
                    },
                    {
                        "address": "0xb62132e35a6c13ee1ee0f84dc5d40bad8d815206",
                        "amount": "2,184.885731059740787575",
                        "iconUrl": "https://assets.blocksec.com/icon/fea86f969d2759a2ee2f170e71fc014cd439e415f97fa60c37db575eb46dfac5.png",
                        "isERC1155": false,
                        "isERC721": false,
                        "sign": true,
                        "value": "1545.8066546825000388"
                    }
                ]
            }
        ]
    },
    "profile": {
        "basic_info": {
            "baseFee": "11.944862783",
            "blockNumber": 15960646,
            "callData": "0x49c36c070000000000000000000000004c54ff7f1c424ff5487a32aad0b48b19cbaf087f00000000000000000000000000000000000000000000007671616c60cb81437600000000000000000000000000000000000000000625380f4dca5dc00000000000000000000000000000000000000000000000000624c5d0570c3200000000000000000000000000000000000000000000000000000000000000000000000001",
            "debugEnable": true,
            "errorInfo": "",
            "eventCount": 3,
            "feeRecipient": "0x473780deaf4a2ac070bbba936b0cdefe7f267dfc",
            "formatValue": "0",
            "gasLimit": 300014,
            "gasPrice": "13.788373627",
            "gasUsed": 111079,
            "intTxnCount": 7,
            "internalRevert": false,
            "internalRevertMessage": "",
            "isContractCreation": false,
            "isFlashloan": false,
            "maxFee": "17.013486578",
            "nonce": 129238,
            "overwritedBlockNumber": -1,
            "priorityFee": "1.843510844",
            "receiver": "0x98c3d3183c4b8a650614ad179a1a98be0a8d6b8e",
            "revertMessage": "",
            "sender": "0x5e2b6c6b2240d582995537d3fafdb556e4a3822f",
            "simulationEnable": true,
            "sourceTxnHash": "0xb2ecacce7c0641a83c0c2f0c5144332b9de7d1861ac0f6be17d333c3e3750109",
            "status": true,
            "timestamp": "2022-11-13T10:56:35Z",
            "transactionFee": "0.001531598754113533",
            "txnHash": "0xb2ecacce7c0641a83c0c2f0c5144332b9de7d1861ac0f6be17d333c3e3750109",
            "txnIndex": 64,
            "type": 2,
            "value": "0"
        },
        "fund_flow": [
            {
                "amount": "1.254930329601717758",
                "from": "0x4c54ff7f1c424ff5487a32aad0b48b19cbaf087f",
                "id": 1,
                "isERC1155": false,
                "isERC721": false,
                "isReverted": false,
                "order": 1,
                "to": "0x98c3d3183c4b8a650614ad179a1a98be0a8d6b8e",
                "token": "0xc02aaa39b223fe8d0a0e5c4f27ead9083c756cc2"
            },
            {
                "amount": "2,184.885731059740787575",
                "from": "0x98c3d3183c4b8a650614ad179a1a98be0a8d6b8e",
                "id": 2,
                "isERC1155": false,
                "isERC721": false,
                "isReverted": false,
                "order": 2,
                "to": "0x4c54ff7f1c424ff5487a32aad0b48b19cbaf087f",
                "token": "0xb62132e35a6c13ee1ee0f84dc5d40bad8d815206"
            }
        ],
        "token_infos": [
            {
                "address": "0xb62132e35a6c13ee1ee0f84dc5d40bad8d815206",
                "decimals": 18
            },
            {
                "address": "0xc02aaa39b223fe8d0a0e5c4f27ead9083c756cc2",
                "decimals": 18
            },
            {
                "address": "0xeeeeeeeeeeeeeeeeeeeeeeeeeeeeeeeeeeeeeeee",
                "decimals": 18
            }
        ]
    },
    "address_label": {
        "labels": [
            {
                "address": "0xeeeeeeeeeeeeeeeeeeeeeeeeeeeeeeeeeeeeeeee",
                "label": "Ether"
            },
            {
                "address": "0x4c54ff7f1c424ff5487a32aad0b48b19cbaf087f",
                "label": "Uniswap V3: NEXO"
            },
            {
                "address": "0x98c3d3183c4b8a650614ad179a1a98be0a8d6b8e",
                "label": "MEV Bot: 0x98c...b8e"
            },
            {
                "address": "0x0000000000000000000000000000000000000001",
                "label": "Precompiled"
            },
            {
                "address": "0x0000000000000000000000000000000000000003",
                "label": "Precompiled"
            },
            {
                "address": "0x0000000000000000000000000000000000000004",
                "label": "Precompiled"
            },
            {
                "address": "0xc02aaa39b223fe8d0a0e5c4f27ead9083c756cc2",
                "label": "Wrapped Ether (WETH)"
            },
            {
                "address": "0xb62132e35a6c13ee1ee0f84dc5d40bad8d815206",
                "label": "Nexo Token"
            },
            {
                "address": "0x0000000000000000000000000000000000000002",
                "label": "Precompiled"
            }
        ]
    },
    "trace": {
        "accountLabels": null,
        "dataMap": {
            "-1": {
                "invocation": {
                    "address": "0x5e2b6c6b2240d582995537d3fafdb556e4a3822f",
                    "callData": "",
                    "decodedMethod": null,
                    "errorInfo": "",
                    "fromAddress": "",
                    "gasUsed": 0,
                    "id": -1,
                    "methodDecoded": false,
                    "operation": "",
                    "output": "",
                    "revert": false,
                    "revertMessage": "",
                    "selector": "",
                    "status": false,
                    "value": ""
                },
                "nodeType": 0
            },
            "0": {
                "invocation": {
                    "address": "0x98c3d3183c4b8a650614ad179a1a98be0a8d6b8e",
                    "callData": "0x0000000000000000000000004c54ff7f1c424ff5487a32aad0b48b19cbaf087f00000000000000000000000000000000000000000000007671616c60cb81437600000000000000000000000000000000000000000625380f4dca5dc00000000000000000000000000000000000000000000000000624c5d0570c3200000000000000000000000000000000000000000000000000000000000000000000000001",
                    "decodedMethod": null,
                    "errorInfo": "",
                    "fromAddress": "0x5e2b6c6b2240d582995537d3fafdb556e4a3822f",
                    "gasUsed": 111079,
                    "id": 0,
                    "methodDecoded": false,
                    "operation": "CALL",
                    "output": "",
                    "revert": false,
                    "revertMessage": "",
                    "selector": "0x49c36c07",
                    "status": true,
                    "value": "0"
                },
                "nodeType": 0
            },
            "1": {
                "invocation": {
                    "address": "0x4c54ff7f1c424ff5487a32aad0b48b19cbaf087f",
                    "callData": "0x",
                    "decodedMethod": {
                        "callParams": [],
                        "constructorArguments": "",
                        "name": "slot0",
                        "returnParams": [
                            {
                                "name": "sqrtPriceX96",
                                "type": "uint160",
                                "value": "1,901,905,333,061,703,028,140,759,830"
                            },
                            {
                                "name": "tick",
                                "type": "int24",
                                "value": "-74,594"
                            },
                            {
                                "name": "observationIndex",
                                "type": "uint16",
                                "value": "17"
                            },
                            {
                                "name": "observationCardinality",
                                "type": "uint16",
                                "value": "74"
                            },
                            {
                                "name": "observationCardinalityNext",
                                "type": "uint16",
                                "value": "74"
                            },
                            {
                                "name": "feeProtocol",
                                "type": "uint8",
                                "value": "0"
                            },
                            {
                                "name": "unlocked",
                                "type": "bool",
                                "value": true
                            }
                        ],
                        "signature": "slot0()"
                    },
                    "errorInfo": "",
                    "fromAddress": "0x98c3d3183c4b8a650614ad179a1a98be0a8d6b8e",
                    "gasUsed": 2696,
                    "id": 1,
                    "methodDecoded": true,
                    "operation": "STATICCALL",
                    "output": "0x00000000000000000000000000000000000000000625381eb2c7ef590f995b16fffffffffffffffffffffffffffffffffffffffffffffffffffffffffffedc9e0000000000000000000000000000000000000000000000000000000000000011000000000000000000000000000000000000000000000000000000000000004a000000000000000000000000000000000000000000000000000000000000004a00000000000000000000000000000000000000000000000000000000000000000000000000000000000000000000000000000000000000000000000000000001",
                    "revert": false,
                    "revertMessage": "",
                    "selector": "0x3850c7bd",
                    "status": true,
                    "value": "0"
                },
                "nodeType": 0
            },
            "10": {
                "event": {
                    "contract": "0x4c54ff7f1c424ff5487a32aad0b48b19cbaf087f",
                    "decodedLog": {
                        "name": "Swap",
                        "params": [
                            {
                                "name": "sender",
                                "type": "address",
                                "value": "0x98c3d3183c4b8a650614ad179a1a98be0a8d6b8e"
                            },
                            {
                                "name": "recipient",
                                "type": "address",
                                "value": "0x98c3d3183c4b8a650614ad179a1a98be0a8d6b8e"
                            },
                            {
                                "name": "amount0",
                                "type": "int256",
                                "value": "2,184,885,731,059,740,787,574"
                            },
                            {
                                "name": "amount1",
                                "type": "int256",
                                "value": "-1,254,930,329,601,717,758"
                            },
                            {
                                "name": "sqrtPriceX96",
                                "type": "uint160",
                                "value": "1,901,367,210,551,029,757,084,383,038"
                            },
                            {
                                "name": "liquidity",
                                "type": "uint128",
                                "value": "184,764,290,892,361,583,943,881"
                            },
                            {
                                "name": "tick",
                                "type": "int24",
                                "value": "-74,599"
                            }
                        ],
                        "signature": "Swap(address,address,int256,int256,uint160,uint128,int24)"
                    },
                    "id": 10,
                    "logData": "0x00000000000000000000000000000000000000000000007671616c60cb814376ffffffffffffffffffffffffffffffffffffffffffffffffee9597839e39ca0200000000000000000000000000000000000000000624c62b04c365430817373e000000000000000000000000000000000000000000002720179f9b6f5985e0c9fffffffffffffffffffffffffffffffffffffffffffffffffffffffffffedc99",
                    "logDecoded": true,
                    "operation": "EVENT",
                    "revert": false,
                    "status": true,
                    "topics": [
                        "0xc42079f94a6350d7e6235f29174924f928cc2ac818eb64fed8004e115fbcca67",
                        "0x00000000000000000000000098c3d3183c4b8a650614ad179a1a98be0a8d6b8e",
                        "0x00000000000000000000000098c3d3183c4b8a650614ad179a1a98be0a8d6b8e"
                    ]
                },
                "nodeType": 1
            },
            "2": {
                "invocation": {
                    "address": "0x4c54ff7f1c424ff5487a32aad0b48b19cbaf087f",
                    "callData": "0x00000000000000000000000098c3d3183c4b8a650614ad179a1a98be0a8d6b8e000000000000000000000000000000000000000000000000000000000000000100000000000000000000000000000000000000000000007671616c60cb81437600000000000000000000000000000000000000000624c5d0570c32000000000000000000000000000000000000000000000000000000000000000000000000a00000000000000000000000000000000000000000000000000000000000000000",
                    "decodedMethod": {
                        "callParams": [
                            {
                                "name": "recipient",
                                "type": "address",
                                "value": "0x98c3d3183c4b8a650614ad179a1a98be0a8d6b8e"
                            },
                            {
                                "name": "zeroForOne",
                                "type": "bool",
                                "value": true
                            },
                            {
                                "name": "amountSpecified",
                                "type": "int256",
                                "value": "2,184,885,731,059,740,787,574"
                            },
                            {
                                "name": "sqrtPriceLimitX96",
                                "type": "uint160",
                                "value": "1,901,365,537,826,533,070,933,590,016"
                            },
                            {
                                "name": "data",
                                "type": "bytes",
                                "value": "0x"
                            }
                        ],
                        "constructorArguments": "",
                        "name": "swap",
                        "returnParams": [
                            {
                                "name": "amount0",
                                "type": "int256",
                                "value": "2,184,885,731,059,740,787,574"
                            },
                            {
                                "name": "amount1",
                                "type": "int256",
                                "value": "-1,254,930,329,601,717,758"
                            }
                        ],
                        "signature": "swap(address,bool,int256,uint160,bytes)"
                    },
                    "errorInfo": "",
                    "fromAddress": "0x98c3d3183c4b8a650614ad179a1a98be0a8d6b8e",
                    "gasUsed": 75367,
                    "id": 2,
                    "methodDecoded": true,
                    "operation": "CALL",
                    "output": "0x00000000000000000000000000000000000000000000007671616c60cb814376ffffffffffffffffffffffffffffffffffffffffffffffffee9597839e39ca02",
                    "revert": false,
                    "revertMessage": "",
                    "selector": "0x128acb08",
                    "status": true,
                    "value": "0"
                },
                "nodeType": 0
            },
            "3": {
                "invocation": {
                    "address": "0xc02aaa39b223fe8d0a0e5c4f27ead9083c756cc2",
                    "callData": "0x00000000000000000000000098c3d3183c4b8a650614ad179a1a98be0a8d6b8e000000000000000000000000000000000000000000000000116a687c61c635fe",
                    "decodedMethod": {
                        "callParams": [
                            {
                                "name": "dst",
                                "type": "address",
                                "value": "0x98c3d3183c4b8a650614ad179a1a98be0a8d6b8e"
                            },
                            {
                                "decimalAvailable": true,
                                "name": "wad",
                                "type": "uint256",
                                "value": "1,254,930,329,601,717,758"
                            }
                        ],
                        "constructorArguments": "",
                        "name": "transfer",
                        "returnParams": [
                            {
                                "name": "",
                                "type": "bool",
                                "value": true
                            }
                        ],
                        "signature": "transfer(address,uint256)"
                    },
                    "errorInfo": "",
                    "fromAddress": "0x4c54ff7f1c424ff5487a32aad0b48b19cbaf087f",
                    "gasUsed": 12862,
                    "id": 3,
                    "methodDecoded": true,
                    "operation": "CALL",
                    "output": "0x0000000000000000000000000000000000000000000000000000000000000001",
                    "revert": false,
                    "revertMessage": "",
                    "selector": "0xa9059cbb",
                    "status": true,
                    "value": "0"
                },
                "nodeType": 0
            },
            "4": {
                "event": {
                    "contract": "0xc02aaa39b223fe8d0a0e5c4f27ead9083c756cc2",
                    "decodedLog": {
                        "name": "Transfer",
                        "params": [
                            {
                                "name": "src",
                                "type": "address",
                                "value": "0x4c54ff7f1c424ff5487a32aad0b48b19cbaf087f"
                            },
                            {
                                "name": "dst",
                                "type": "address",
                                "value": "0x98c3d3183c4b8a650614ad179a1a98be0a8d6b8e"
                            },
                            {
                                "decimalAvailable": true,
                                "name": "wad",
                                "type": "uint256",
                                "value": "1,254,930,329,601,717,758"
                            }
                        ],
                        "signature": "Transfer(address,address,uint256)"
                    },
                    "id": 4,
                    "logData": "0x000000000000000000000000000000000000000000000000116a687c61c635fe",
                    "logDecoded": true,
                    "operation": "EVENT",
                    "revert": false,
                    "status": true,
                    "topics": [
                        "0xddf252ad1be2c89b69c2b068fc378daa952ba7f163c4a11628f55a4df523b3ef",
                        "0x0000000000000000000000004c54ff7f1c424ff5487a32aad0b48b19cbaf087f",
                        "0x00000000000000000000000098c3d3183c4b8a650614ad179a1a98be0a8d6b8e"
                    ]
                },
                "nodeType": 1
            },
            "5": {
                "invocation": {
                    "address": "0xb62132e35a6c13ee1ee0f84dc5d40bad8d815206",
                    "callData": "0x0000000000000000000000004c54ff7f1c424ff5487a32aad0b48b19cbaf087f",
                    "decodedMethod": {
                        "callParams": [
                            {
                                "name": "_owner",
                                "type": "address",
                                "value": "0x4c54ff7f1c424ff5487a32aad0b48b19cbaf087f"
                            }
                        ],
                        "constructorArguments": "",
                        "name": "balanceOf",
                        "returnParams": [
                            {
                                "decimalAvailable": true,
                                "name": "balance",
                                "type": "uint256",
                                "value": "2,577,097,079,620,162,858,385,785"
                            }
                        ],
                        "signature": "balanceOf(address)"
                    },
                    "errorInfo": "",
                    "fromAddress": "0x4c54ff7f1c424ff5487a32aad0b48b19cbaf087f",
                    "gasUsed": 3053,
                    "id": 5,
                    "methodDecoded": true,
                    "operation": "STATICCALL",
                    "output": "0x0000000000000000000000000000000000000000000221b8b66e5d0639a60179",
                    "revert": false,
                    "revertMessage": "",
                    "selector": "0x70a08231",
                    "status": true,
                    "value": "0"
                },
                "nodeType": 0
            },
            "6": {
                "invocation": {
                    "address": "0x98c3d3183c4b8a650614ad179a1a98be0a8d6b8e",
                    "callData": "0x00000000000000000000000000000000000000000000007671616c60cb814376ffffffffffffffffffffffffffffffffffffffffffffffffee9597839e39ca0200000000000000000000000000000000000000000000000000000000000000600000000000000000000000000000000000000000000000000000000000000000",
                    "decodedMethod": {
                        "callParams": [
                            {
                                "name": "amount0Delta",
                                "type": "int256",
                                "value": "2,184,885,731,059,740,787,574"
                            },
                            {
                                "name": "amount1Delta",
                                "type": "int256",
                                "value": "-1,254,930,329,601,717,758"
                            },
                            {
                                "name": "data",
                                "type": "bytes",
                                "value": "0x"
                            }
                        ],
                        "constructorArguments": "",
                        "name": "uniswapV3SwapCallback",
                        "returnParams": [],
                        "signature": "uniswapV3SwapCallback(int256,int256,bytes)"
                    },
                    "errorInfo": "",
                    "fromAddress": "0x4c54ff7f1c424ff5487a32aad0b48b19cbaf087f",
                    "gasUsed": 14230,
                    "id": 6,
                    "methodDecoded": true,
                    "operation": "CALL",
                    "output": "",
                    "revert": false,
                    "revertMessage": "",
                    "selector": "0xfa461e33",
                    "status": true,
                    "value": "0"
                },
                "nodeType": 0
            },
            "7": {
                "invocation": {
                    "address": "0xb62132e35a6c13ee1ee0f84dc5d40bad8d815206",
                    "callData": "0x0000000000000000000000004c54ff7f1c424ff5487a32aad0b48b19cbaf087f00000000000000000000000000000000000000000000007671616c60cb814376",
                    "decodedMethod": {
                        "callParams": [
                            {
                                "name": "_to",
                                "type": "address",
                                "value": "0x4c54ff7f1c424ff5487a32aad0b48b19cbaf087f"
                            },
                            {
                                "decimalAvailable": true,
                                "name": "_value",
                                "type": "uint256",
                                "value": "2,184,885,731,059,740,787,574"
                            }
                        ],
                        "constructorArguments": "",
                        "name": "transfer",
                        "returnParams": [
                            {
                                "name": "success",
                                "type": "bool",
                                "value": true
                            }
                        ],
                        "signature": "transfer(address,uint256)"
                    },
                    "errorInfo": "",
                    "fromAddress": "0x98c3d3183c4b8a650614ad179a1a98be0a8d6b8e",
                    "gasUsed": 11731,
                    "id": 7,
                    "methodDecoded": true,
                    "operation": "CALL",
                    "output": "0x0000000000000000000000000000000000000000000000000000000000000001",
                    "revert": false,
                    "revertMessage": "",
                    "selector": "0xa9059cbb",
                    "status": true,
                    "value": "0"
                },
                "nodeType": 0
            },
            "8": {
                "event": {
                    "contract": "0xb62132e35a6c13ee1ee0f84dc5d40bad8d815206",
                    "decodedLog": {
                        "name": "Transfer",
                        "params": [
                            {
                                "name": "from",
                                "type": "address",
                                "value": "0x98c3d3183c4b8a650614ad179a1a98be0a8d6b8e"
                            },
                            {
                                "name": "to",
                                "type": "address",
                                "value": "0x4c54ff7f1c424ff5487a32aad0b48b19cbaf087f"
                            },
                            {
                                "decimalAvailable": true,
                                "name": "value",
                                "type": "uint256",
                                "value": "2,184,885,731,059,740,787,574"
                            }
                        ],
                        "signature": "Transfer(address,address,uint256)"
                    },
                    "id": 8,
                    "logData": "0x00000000000000000000000000000000000000000000007671616c60cb814376",
                    "logDecoded": true,
                    "operation": "EVENT",
                    "revert": false,
                    "status": true,
                    "topics": [
                        "0xddf252ad1be2c89b69c2b068fc378daa952ba7f163c4a11628f55a4df523b3ef",
                        "0x00000000000000000000000098c3d3183c4b8a650614ad179a1a98be0a8d6b8e",
                        "0x0000000000000000000000004c54ff7f1c424ff5487a32aad0b48b19cbaf087f"
                    ]
                },
                "nodeType": 1
            },
            "9": {
                "invocation": {
                    "address": "0xb62132e35a6c13ee1ee0f84dc5d40bad8d815206",
                    "callData": "0x0000000000000000000000004c54ff7f1c424ff5487a32aad0b48b19cbaf087f",
                    "decodedMethod": {
                        "callParams": [
                            {
                                "name": "_owner",
                                "type": "address",
                                "value": "0x4c54ff7f1c424ff5487a32aad0b48b19cbaf087f"
                            }
                        ],
                        "constructorArguments": "",
                        "name": "balanceOf",
                        "returnParams": [
                            {
                                "decimalAvailable": true,
                                "name": "balance",
                                "type": "uint256",
                                "value": "2,579,281,965,351,222,599,173,359"
                            }
                        ],
                        "signature": "balanceOf(address)"
                    },
                    "errorInfo": "",
                    "fromAddress": "0x4c54ff7f1c424ff5487a32aad0b48b19cbaf087f",
                    "gasUsed": 1053,
                    "id": 9,
                    "methodDecoded": true,
                    "operation": "STATICCALL",
                    "output": "0x00000000000000000000000000000000000000000002222f27cfc967052744ef",
                    "revert": false,
                    "revertMessage": "",
                    "selector": "0x70a08231",
                    "status": true,
                    "value": "0"
                },
                "nodeType": 0
            }
        },
        "gasFlame": [
            {
                "children": [
                    {
                        "children": [
                            {
                                "children": [],
                                "depth": 0,
                                "name": "Initial Gas",
                                "value": 22244
                            },
                            {
                                "children": [
                                    {
                                        "children": [],
                                        "depth": 1,
                                        "name": "slot0",
                                        "value": 2696
                                    },
                                    {
                                        "children": [
                                            {
                                                "children": [],
                                                "depth": 2,
                                                "name": "transfer",
                                                "value": 12862
                                            },
                                            {
                                                "children": [],
                                                "depth": 2,
                                                "name": "balanceOf",
                                                "value": 3053
                                            },
                                            {
                                                "children": [
                                                    {
                                                        "children": [],
                                                        "depth": 3,
                                                        "name": "transfer",
                                                        "value": 11731
                                                    }
                                                ],
                                                "depth": 2,
                                                "name": "uniswapV3SwapCallback",
                                                "value": 14230
                                            },
                                            {
                                                "children": [],
                                                "depth": 2,
                                                "name": "balanceOf",
                                                "value": 1053
                                            }
                                        ],
                                        "depth": 1,
                                        "name": "swap",
                                        "value": 75367
                                    }
                                ],
                                "depth": 0,
                                "name": "Executed Gas",
                                "value": 88835
                            }
                        ],
                        "depth": -1,
                        "name": "Actual Gas Used",
                        "value": 111079
                    },
                    {
                        "children": [],
                        "depth": -1,
                        "name": "Refunded Gas",
                        "value": 0
                    }
                ],
                "depth": -2,
                "name": "Total Gas",
                "value": 111079
            }
        ],
        "isConfirmed": true,
        "mainTrace": [
            {
                "children": [
                    {
                        "children": [
                            {
                                "children": [],
                                "depth": 1,
                                "id": 1,
                                "order": 1
                            },
                            {
                                "children": [
                                    {
                                        "children": [
                                            {
                                                "children": [],
                                                "depth": 3,
                                                "id": 4,
                                                "order": 4
                                            }
                                        ],
                                        "depth": 2,
                                        "id": 3,
                                        "order": 3
                                    },
                                    {
                                        "children": [],
                                        "depth": 2,
                                        "id": 5,
                                        "order": 5
                                    },
                                    {
                                        "children": [
                                            {
                                                "children": [
                                                    {
                                                        "children": [],
                                                        "depth": 4,
                                                        "id": 8,
                                                        "order": 8
                                                    }
                                                ],
                                                "depth": 3,
                                                "id": 7,
                                                "order": 7
                                            }
                                        ],
                                        "depth": 2,
                                        "id": 6,
                                        "order": 6
                                    },
                                    {
                                        "children": [],
                                        "depth": 2,
                                        "id": 9,
                                        "order": 9
                                    },
                                    {
                                        "children": [],
                                        "depth": 2,
                                        "id": 10,
                                        "order": 10
                                    }
                                ],
                                "depth": 1,
                                "id": 2,
                                "order": 2
                            }
                        ],
                        "depth": 0,
                        "id": 0,
                        "order": 0
                    }
                ],
                "depth": -1,
                "id": -1,
                "order": -1
            }
        ],
        "mainTraceNodeCount": 11,
        "parentIdMap": {
            "0": -1,
            "1": 0,
            "10": 2,
            "2": 0,
            "3": 2,
            "4": 3,
            "5": 2,
            "6": 2,
            "7": 6,
            "8": 7,
            "9": 2
        },
        "tidyTrace": [
            {
                "children": [
                    {
                        "children": [
                            {
                                "children": [
                                    {
                                        "children": [
                                            {
                                                "children": [],
                                                "depth": 3,
                                                "id": 4,
                                                "order": 4
                                            }
                                        ],
                                        "depth": 2,
                                        "id": 3,
                                        "order": 3
                                    },
                                    {
                                        "children": [
                                            {
                                                "children": [
                                                    {
                                                        "children": [],
                                                        "depth": 4,
                                                        "id": 8,
                                                        "order": 8
                                                    }
                                                ],
                                                "depth": 3,
                                                "id": 7,
                                                "order": 7
                                            }
                                        ],
                                        "depth": 2,
                                        "id": 6,
                                        "order": 6
                                    },
                                    {
                                        "children": [],
                                        "depth": 2,
                                        "id": 10,
                                        "order": 10
                                    }
                                ],
                                "depth": 1,
                                "id": 2,
                                "order": 2
                            }
                        ],
                        "depth": 0,
                        "id": 0,
                        "order": 0
                    }
                ],
                "depth": -1,
                "id": -1,
                "order": -1
            }
        ],
        "tidyTraceNodeCount": 8
    },
    "state_change": {
        "stateChanges": [
            {
                "address": "0x4c54ff7f1c424ff5487a32aad0b48b19cbaf087f",
                "erc": "",
                "slots": [
                    {
                        "current": "0x000100004a004a0012fedc9900000000000000000624c62b04c365430817373e",
                        "key": "0x0000000000000000000000000000000000000000000000000000000000000000",
                        "prev": "0x000100004a004a0011fedc9e00000000000000000625381eb2c7ef590f995b16"
                    },
                    {
                        "current": "0x0100000000000000000000e2670c747e4006038c18fffcc99d63a4936370cd63",
                        "key": "0x000000000000000000000000000000000000000000000000000000000000001a",
                        "prev": "0x0100000000000000000000e2646018f6b2789b2fe6fffcca1dccdf2f63705c6b"
                    },
                    {
                        "current": "0x00000000000000000000000000000005cbcd27d8e1c6328d337f48151ba886c4",
                        "key": "0x0000000000000000000000000000000000000000000000000000000000000001",
                        "prev": "0x00000000000000000000000000000005cbcad4a99201cd4701e5c271f6eb81ed"
                    }
                ],
                "storageVariables": []
            },
            {
                "address": "0xb62132e35a6c13ee1ee0f84dc5d40bad8d815206",
                "erc": "ERC-20",
                "slots": [
                    {
                        "current": "0x00000000000000000000000000000000000000000000040dd2f980962dbf63ce",
                        "key": "0x46ed70dff4e88de7d66e6571d3936721e1c2e255e7f2b669fb59a70439131f38",
                        "prev": "0x000000000000000000000000000000000000000000000484445aecf6f940a744"
                    },
                    {
                        "current": "0x00000000000000000000000000000000000000000002222f27cfc967052744ef",
                        "key": "0x305d300697a2dd406f1f9b913de732225f7d627baac297e4a0ceaca8cdbcdb2b",
                        "prev": "0x0000000000000000000000000000000000000000000221b8b66e5d0639a60179"
                    }
                ],
                "storageVariables": [
                    {
                        "name": "balances",
                        "type": "mapping(address => uint256)",
                        "value": {
                            "pairs": [
                                {
                                    "key": "0x4c54ff7f1c424ff5487a32aad0b48b19cbaf087f",
                                    "value": {
                                        "current": "2579281965351222599173359",
                                        "prev": "2577097079620162858385785",
                                        "typeTag": 1
                                    }
                                },
                                {
                                    "key": "0x98c3d3183c4b8a650614ad179a1a98be0a8d6b8e",
                                    "value": {
                                        "current": "19144475927836471813070",
                                        "prev": "21329361658896212600644",
                                        "typeTag": 1
                                    }
                                }
                            ],
                            "typeTag": 4
                        }
                    }
                ]
            },
            {
                "address": "0xc02aaa39b223fe8d0a0e5c4f27ead9083c756cc2",
                "erc": "ERC-20",
                "slots": [
                    {
                        "current": "0x00000000000000000000000000000000000000000000006fdeb50c1a91d25cfb",
                        "key": "0x993460b7a842a34c6de2dc08dde1c527f4354825432b190bba2e4f8a7b04c6c8",
                        "prev": "0x00000000000000000000000000000000000000000000006fcd4aa39e300c26fd"
                    },
                    {
                        "current": "0x000000000000000000000000000000000000000000000016db6e2a198915d156",
                        "key": "0x4bfedfecee26188d9f5e542f75f728f5a1cc87a88aa9f0b612d218189139c96d",
                        "prev": "0x000000000000000000000000000000000000000000000016ecd89295eadc0754"
                    }
                ],
                "storageVariables": [
                    {
                        "name": "balanceOf",
                        "type": "mapping(address => uint256)",
                        "value": {
                            "pairs": [
                                {
                                    "key": "0x4c54ff7f1c424ff5487a32aad0b48b19cbaf087f",
                                    "value": {
                                        "current": "421639991252516983126",
                                        "prev": "422894921582118700884",
                                        "typeTag": 1
                                    }
                                },
                                {
                                    "key": "0x98c3d3183c4b8a650614ad179a1a98be0a8d6b8e",
                                    "value": {
                                        "current": "2063636338337220025595",
                                        "prev": "2062381408007618307837",
                                        "typeTag": 1
                                    }
                                }
                            ],
                            "typeTag": 4
                        }
                    }
                ]
            }
        ]
    }
}