{
    "balance_change": {
        "balanceChanges": [
            {
                "account": "0x7578a9012a18a481813b151062769e5a0befc513",
                "assets": [
                    {
                        "address": "0xf3db7560e820834658b590c96234c333cd3d5e5e",
                        "amount": "32,000",
                        "iconUrl": "",
                        "isERC1155": false,
                        "isERC721": false,
                        "sign": false,
                        "value": ""
                    }
                ]
            },
            {
                "account": "0x689c56aef474df92d44a1b70850f808488f9769c",
                "assets": [
                    {
                        "address": "0xf3db7560e820834658b590c96234c333cd3d5e5e",
                        "amount": "32,000",
                        "iconUrl": "",
                        "isERC1155": false,
                        "isERC721": false,
                        "sign": true,
                        "value": ""
                    }
                ]
            }
        ]
    },
    "profile": {
        "basic_info": {
            "baseFee": "",
            "blockNumber": 7668052,
            "callData": "0xa9059cbb000000000000000000000000689c56aef474df92d44a1b70850f808488f9769c0000000000000000000000000000000000000000000006c6b935b8bbd4000000",
            "debugEnable": true,
            "errorInfo": "",
            "eventCount": 1,
            "feeRecipient": "0x52bc44d5378309ee2abf1539bf71de1b7d7be3b5",
            "formatValue": "0",
            "gasLimit": 105525,
            "gasPrice": "9",
            "gasUsed": 22017,
            "intTxnCount": 0,
            "internalRevert": false,
            "internalRevertMessage": "",
            "isContractCreation": false,
            "isFlashloan": false,
            "maxFee": "",
            "nonce": 13,
            "overwritedBlockNumber": -1,
            "priorityFee": "",
            "receiver": "0xf3db7560e820834658b590c96234c333cd3d5e5e",
            "revertMessage": "",
            "sender": "0x7578a9012a18a481813b151062769e5a0befc513",
            "simulationEnable": true,
            "sourceTxnHash": "0xb29ba5be35e28e95a58663d5d9447c35acb7829d243096f521d9a09175e97838",
            "status": true,
            "timestamp": "2019-04-30T09:42:16Z",
            "transactionFee": "0.000198153",
            "txnHash": "0xb29ba5be35e28e95a58663d5d9447c35acb7829d243096f521d9a09175e97838",
            "txnIndex": 36,
            "type": 0,
            "value": "0"
        },
        "fund_flow": [
            {
                "amount": "32,000",
                "from": "0x7578a9012a18a481813b151062769e5a0befc513",
                "id": 1,
                "isERC1155": false,
                "isERC721": false,
                "isReverted": false,
                "order": 1,
                "to": "0x689c56aef474df92d44a1b70850f808488f9769c",
                "token": "0xf3db7560e820834658b590c96234c333cd3d5e5e"
            }
        ],
        "token_infos": [
            {
                "address": "0xc02aaa39b223fe8d0a0e5c4f27ead9083c756cc2",
                "decimals": 18
            },
            {
                "address": "0xf3db7560e820834658b590c96234c333cd3d5e5e",
                "decimals": 18
            },
            {
                "address": "0xeeeeeeeeeeeeeeeeeeeeeeeeeeeeeeeeeeeeeeee",
                "decimals": 18
            }
        ]
    },
    "address_label": {
        "labels": [
            {
                "address": "0x0000000000000000000000000000000000000004",
                "label": "Precompiled"
            },
            {
                "address": "0xeeeeeeeeeeeeeeeeeeeeeeeeeeeeeeeeeeeeeeee",
                "label": "Ether"
            },
            {
                "address": "0x7578a9012a18a481813b151062769e5a0befc513",
                "label": "KUCOIN"
            },
            {
                "address": "0x689c56aef474df92d44a1b70850f808488f9769c",
                "label": "KuCoin 2"
            },
            {
                "address": "0xf3db7560e820834658b590c96234c333cd3d5e5e",
                "label": "Poker Chips (CHP)"
            },
            {
                "address": "0x0000000000000000000000000000000000000001",
                "label": "Precompiled"
            },
            {
                "address": "0x0000000000000000000000000000000000000002",
                "label": "Precompiled"
            },
            {
                "address": "0x0000000000000000000000000000000000000003",
                "label": "Precompiled"
            }
        ]
    },
    "trace": {
        "accountLabels": null,
        "dataMap": {
            "-1": {
                "invocation": {
                    "address": "0x7578a9012a18a481813b151062769e5a0befc513",
                    "callData": "",
                    "decodedMethod": null,
                    "errorInfo": "",
                    "fromAddress": "",
                    "gasUsed": 0,
                    "id": -1,
                    "methodDecoded": false,
                    "operation": "",
                    "output": "",
                    "revert": false,
                    "revertMessage": "",
                    "selector": "",
                    "status": false,
                    "value": ""
                },
                "nodeType": 0
            },
            "0": {
                "invocation": {
                    "address": "0xf3db7560e820834658b590c96234c333cd3d5e5e",
                    "callData": "0x000000000000000000000000689c56aef474df92d44a1b70850f808488f9769c0000000000000000000000000000000000000000000006c6b935b8bbd4000000",
                    "decodedMethod": {
                        "callParams": [
                            {
                                "name": "_to",
                                "type": "address",
                                "value": "0x689c56aef474df92d44a1b70850f808488f9769c"
                            },
                            {
                                "decimalAvailable": true,
                                "name": "_value",
                                "type": "uint256",
                                "value": "32,000,000,000,000,000,000,000"
                            }
                        ],
                        "constructorArguments": "",
                        "name": "transfer",
                        "returnParams": [
                            {
                                "name": "",
                                "type": "bool",
                                "value": true
                            }
                        ],
                        "signature": "transfer(address,uint256)"
                    },
                    "errorInfo": "",
                    "fromAddress": "0x7578a9012a18a481813b151062769e5a0befc513",
                    "gasUsed": 22017,
                    "id": 0,
                    "methodDecoded": true,
                    "operation": "CALL",
                    "output": "0x0000000000000000000000000000000000000000000000000000000000000001",
                    "revert": false,
                    "revertMessage": "",
                    "selector": "0xa9059cbb",
                    "status": true,
                    "value": "0"
                },
                "nodeType": 0
            },
            "1": {
                "event": {
                    "contract": "0xf3db7560e820834658b590c96234c333cd3d5e5e",
                    "decodedLog": {
                        "name": "Transfer",
                        "params": [
                            {
                                "name": "from",
                                "type": "address",
                                "value": "0x7578a9012a18a481813b151062769e5a0befc513"
                            },
                            {
                                "name": "to",
                                "type": "address",
                                "value": "0x689c56aef474df92d44a1b70850f808488f9769c"
                            },
                            {
                                "decimalAvailable": true,
                                "name": "value",
                                "type": "uint256",
                                "value": "32,000,000,000,000,000,000,000"
                            }
                        ],
                        "signature": "Transfer(address,address,uint256)"
                    },
                    "id": 1,
                    "logData": "0x0000000000000000000000000000000000000000000006c6b935b8bbd4000000",
                    "logDecoded": true,
                    "operation": "EVENT",
                    "revert": false,
                    "status": true,
                    "topics": [
                        "0xddf252ad1be2c89b69c2b068fc378daa952ba7f163c4a11628f55a4df523b3ef",
                        "0x0000000000000000000000007578a9012a18a481813b151062769e5a0befc513",
                        "0x000000000000000000000000689c56aef474df92d44a1b70850f808488f9769c"
                    ]
                },
                "nodeType": 1
            }
        },
        "gasFlame": [
            {
                "children": [
                    {
                        "children": [
                            {
                                "children": [],
                                "depth": 0,
                                "name": "Initial Gas",
                                "value": 23256
                            },
                            {
                                "children": [],
                                "depth": 0,
                                "name": "Executed Gas",
                                "value": 13761
                            }
                        ],
                        "depth": -1,
                        "name": "Actual Gas Used",
                        "value": 22017
                    },
                    {
                        "children": [],
                        "depth": -1,
                        "name": "Refunded Gas",
                        "value": 15000
                    }
                ],
                "depth": -2,
                "name": "Total Gas",
                "value": 37017
            }
        ],
        "isConfirmed": true,
        "mainTrace": [
            {
                "children": [
                    {
                        "children": [
                            {
                                "children": [],
                                "depth": 1,
                                "id": 1,
                                "order": 1
                            }
                        ],
                        "depth": 0,
                        "id": 0,
                        "order": 0
                    }
                ],
                "depth": -1,
                "id": -1,
                "order": -1
            }
        ],
        "mainTraceNodeCount": 2,
        "parentIdMap": {
            "0": -1,
            "1": 0
        },
        "tidyTrace": [
            {
                "children": [
                    {
                        "children": [
                            {
                                "children": [],
                                "depth": 1,
                                "id": 1,
                                "order": 1
                            }
                        ],
                        "depth": 0,
                        "id": 0,
                        "order": 0
                    }
                ],
                "depth": -1,
                "id": -1,
                "order": -1
            }
        ],
        "tidyTraceNodeCount": 2
    },
    "state_change": {
        "stateChanges": [
            {
                "address": "0xf3db7560e820834658b590c96234c333cd3d5e5e",
                "erc": "ERC-20",
                "slots": [
                    {
                        "current": "0x0000000000000000000000000000000000000000000000000000000000000000",
                        "key": "0x7e7c019ca4f1e4108c6ea25f522d4575e4ac25447fbdc6bd5666545e7e86865b",
                        "prev": "0x0000000000000000000000000000000000000000000006c6b935b8bbd4000000"
                    },
                    {
                        "current": "0x0000000000000000000000000000000000000000000d1b53cea1e13164ee3800",
                        "key": "0x5bb9a5d000ac5e8557d31057f4ab03719b8baf521be6a65fdb2a8763ec86cc7b",
                        "prev": "0x0000000000000000000000000000000000000000000d148d156c287590ee3800"
                    }
                ],
                "storageVariables": [
                    {
                        "name": "balances",
                        "type": "mapping(address => uint256)",
                        "value": {
                            "pairs": [
                                {
                                    "key": "0x689c56aef474df92d44a1b70850f808488f9769c",
                                    "value": {
                                        "current": "15845085519215222911285248",
                                        "prev": "15813085519215222911285248",
                                        "typeTag": 1
                                    }
                                },
                                {
                                    "key": "0x7578a9012a18a481813b151062769e5a0befc513",
                                    "value": {
                                        "current": "0",
                                        "prev": "32000000000000000000000",
                                        "typeTag": 1
                                    }
                                }
                            ],
                            "typeTag": 4
                        }
                    }
                ]
            }
        ]
    }
}