{
    "balance_change": {
        "balanceChanges": [
            {
                "account": "0x0000000000000000000000000000000000000000",
                "assets": [
                    {
                        "address": "0xd35147be6401dcb20811f2104c33de8e97ed6818",
                        "amount": "1",
                        "iconUrl": "",
                        "isERC1155": false,
                        "isERC721": true,
                        "sign": false,
                        "tokenID": "4286",
                        "value": ""
                    }
                ]
            },
            {
                "account": "0xab3b927022d89753841bcb5b7a410f6e5fb0b658",
                "assets": [
                    {
                        "address": "0xd35147be6401dcb20811f2104c33de8e97ed6818",
                        "amount": "1",
                        "iconUrl": "",
                        "isERC1155": false,
                        "isERC721": true,
                        "sign": true,
                        "tokenID": "4286",
                        "value": ""
                    }
                ]
            }
        ]
    },
    "profile": {
        "basic_info": {
            "baseFee": "",
            "blockNumber": 9530695,
            "callData": "0x91aeeedc000000000000000000000000000000000000000000000000000000000000001c0a629dbd5b217c2306f8e0cdf056843424ac97b276fc0c5ad4e75dce83a9a6445af36059c7c846934cb8230eeb197792320c471eadcd56c21f6ff6f629e491f70000000000000000000000000000000000000000000000000000000000000005000000000000000000000000a8b6a8d3a864eff03dd6ec2250d4f0ea003a1b7400000000000000000000000000000000000000000000000000000000000000c0000000000000000000000000000000000000000000000000000000000000049900f26d144bd92260fb1c770b5b19b8caf2c5529e620000000000000000000000000000000000000000000000000000000000000000000000000000000000000000000000000000000000000000000000000000044488280fa0000000000000000000000000000000000000000000000000000000000000008000000000000000000000000000000000000000000000000000000000000000e0000000000000000000000000000000000000000000000000000000000000028000000000000000000000000000000000000000000000000000000000000002e00000000000000000000000000000000000000000000000000000000000000002000000000000000000000000d35147be6401dcb20811f2104c33de8e97ed681800000000000000000000000006012c8cf97bead5deae237070f9587f8e7a266d00000000000000000000000000000000000000000000000000000000000000020000000000000000000000000000000000000000000000000000000000000040000000000000000000000000000000000000000000000000000000000000010000000000000000000000000000000000000000000000000000000000000000845669c94f000000000000000000000000ab3b927022d89753841bcb5b7a410f6e5fb0b6580000000000000000000000000000000000000000000000000000000000000040000000000000000000000000000000000000000000000000000000000000001564636c5f686f6f6469655f75707065725f626f64790000000000000000000000000000000000000000000000000000000000000000000000000000000000000000000000000000000000000000000000000000000000000000000044a9059cbb000000000000000000000000ab3b927022d89753841bcb5b7a410f6e5fb0b65800000000000000000000000000000000000000000000000000000000001b7437000000000000000000000000000000000000000000000000000000000000000000000000000000000000000000000000000000000000000000000002000000000000000000000000000000000000000000000000000000005e51f14d000000000000000000000000000000000000000000000000000000005e51f14d0000000000000000000000000000000000000000000000000000000000000002000000000000000000000000000000000000000000000000000000000000004000000000000000000000000000000000000000000000000000000000000000c00000000000000000000000000000000000000000000000000000000000000041421dc9abc05023c91e8067f3e1c4f039337e8ebc24540f2ac53ab874c7944c9a25869cf03c973b2422dd6523cf0e83a6c1d7fea520a662c607f57b1106b14da31b000000000000000000000000000000000000000000000000000000000000000000000000000000000000000000000000000000000000000000000000000041bbd6cef3a1bc4a292231456e69ae8ec9d3d07139a9f2fd20db0db7986d91e0335843a60ce38b7958866bfe58dccaca42c5e9ae87349ee2f1cb554db2fc974ad91b0000000000000000000000000000000000000000000000000000000000000000000000000000",
            "debugEnable": true,
            "errorInfo": "",
            "eventCount": 6,
            "feeRecipient": "0x5a0b54d5dc17e0aadc383d2db43b0a0d3e029c4c",
            "formatValue": "0",
            "gasLimit": 434691,
            "gasPrice": "2.799999999",
            "gasUsed": 323719,
            "intTxnCount": 8,
            "internalRevert": false,
            "internalRevertMessage": "",
            "isContractCreation": false,
            "isFlashloan": false,
            "maxFee": "",
            "nonce": 125,
            "overwritedBlockNumber": -1,
            "priorityFee": "",
            "receiver": "0xab3b927022d89753841bcb5b7a410f6e5fb0b658",
            "revertMessage": "",
            "sender": "0x272437fad2c3d50ef455ced888f3e48c60bcba34",
            "simulationEnable": true,
            "sourceTxnHash": "0xb24fd818b602a4735a3223502bde3a1f4ac1f00013b7cec1e478ee937fdd32c5",
            "status": true,
            "timestamp": "2020-02-22T03:29:04Z",
            "transactionFee": "0.000906413199676281",
            "txnHash": "0xb24fd818b602a4735a3223502bde3a1f4ac1f00013b7cec1e478ee937fdd32c5",
            "txnIndex": 44,
            "type": 0,
            "value": "0"
        },
        "fund_flow": [
            {
                "amount": "1",
                "from": "0x0000000000000000000000000000000000000000",
                "id": 1,
                "isERC1155": false,
                "isERC721": true,
                "isReverted": false,
                "order": 1,
                "to": "0xab3b927022d89753841bcb5b7a410f6e5fb0b658",
                "token": "0xd35147be6401dcb20811f2104c33de8e97ed6818",
                "tokenID": "4286"
            }
        ],
        "token_infos": [
            {
                "address": "0xc02aaa39b223fe8d0a0e5c4f27ead9083c756cc2",
                "decimals": 18
            },
            {
                "address": "0xeeeeeeeeeeeeeeeeeeeeeeeeeeeeeeeeeeeeeeee",
                "decimals": 18
            }
        ]
    },
    "address_label": {
        "labels": [
            {
                "address": "0x0000000000000000000000000000000000000003",
                "label": "Precompiled"
            },
            {
                "address": "0x06012c8cf97bead5deae237070f9587f8e7a266d",
                "label": "CryptoKitties: Core"
            },
            {
                "address": "0xf26d144bd92260fb1c770b5b19b8caf2c5529e62",
                "label": "CampaignBank"
            },
            {
                "address": "0x0000000000000000000000000000000000000001",
                "label": "Precompiled"
            },
            {
                "address": "0x0000000000000000000000000000000000000002",
                "label": "Precompiled"
            },
            {
                "address": "0xeeeeeeeeeeeeeeeeeeeeeeeeeeeeeeeeeeeeeeee",
                "label": "Ether"
            },
            {
                "address": "0xd35147be6401dcb20811f2104c33de8e97ed6818",
                "label": "Decentraland: DCLLNCH Token"
            },
            {
                "address": "0x989a2ad9acaa8c4e50b2fc6b650d6e1809b9195b",
                "label": "CloneableWallet"
            },
            {
                "address": "0x0000000000000000000000000000000000000004",
                "label": "Precompiled"
            }
        ]
    },
    "trace": {
        "accountLabels": null,
        "dataMap": {
            "-1": {
                "invocation": {
                    "address": "0x272437fad2c3d50ef455ced888f3e48c60bcba34",
                    "callData": "",
                    "decodedMethod": null,
                    "errorInfo": "",
                    "fromAddress": "",
                    "gasUsed": 0,
                    "id": -1,
                    "methodDecoded": false,
                    "operation": "",
                    "output": "",
                    "revert": false,
                    "revertMessage": "",
                    "selector": "",
                    "status": false,
                    "value": ""
                },
                "nodeType": 0
            },
            "0": {
                "invocation": {
                    "address": "0xab3b927022d89753841bcb5b7a410f6e5fb0b658",
                    "callData": "0x000000000000000000000000000000000000000000000000000000000000001c0a629dbd5b217c2306f8e0cdf056843424ac97b276fc0c5ad4e75dce83a9a6445af36059c7c846934cb8230eeb197792320c471eadcd56c21f6ff6f629e491f70000000000000000000000000000000000000000000000000000000000000005000000000000000000000000a8b6a8d3a864eff03dd6ec2250d4f0ea003a1b7400000000000000000000000000000000000000000000000000000000000000c0000000000000000000000000000000000000000000000000000000000000049900f26d144bd92260fb1c770b5b19b8caf2c5529e620000000000000000000000000000000000000000000000000000000000000000000000000000000000000000000000000000000000000000000000000000044488280fa0000000000000000000000000000000000000000000000000000000000000008000000000000000000000000000000000000000000000000000000000000000e0000000000000000000000000000000000000000000000000000000000000028000000000000000000000000000000000000000000000000000000000000002e00000000000000000000000000000000000000000000000000000000000000002000000000000000000000000d35147be6401dcb20811f2104c33de8e97ed681800000000000000000000000006012c8cf97bead5deae237070f9587f8e7a266d00000000000000000000000000000000000000000000000000000000000000020000000000000000000000000000000000000000000000000000000000000040000000000000000000000000000000000000000000000000000000000000010000000000000000000000000000000000000000000000000000000000000000845669c94f000000000000000000000000ab3b927022d89753841bcb5b7a410f6e5fb0b6580000000000000000000000000000000000000000000000000000000000000040000000000000000000000000000000000000000000000000000000000000001564636c5f686f6f6469655f75707065725f626f64790000000000000000000000000000000000000000000000000000000000000000000000000000000000000000000000000000000000000000000000000000000000000000000044a9059cbb000000000000000000000000ab3b927022d89753841bcb5b7a410f6e5fb0b65800000000000000000000000000000000000000000000000000000000001b7437000000000000000000000000000000000000000000000000000000000000000000000000000000000000000000000000000000000000000000000002000000000000000000000000000000000000000000000000000000005e51f14d000000000000000000000000000000000000000000000000000000005e51f14d0000000000000000000000000000000000000000000000000000000000000002000000000000000000000000000000000000000000000000000000000000004000000000000000000000000000000000000000000000000000000000000000c00000000000000000000000000000000000000000000000000000000000000041421dc9abc05023c91e8067f3e1c4f039337e8ebc24540f2ac53ab874c7944c9a25869cf03c973b2422dd6523cf0e83a6c1d7fea520a662c607f57b1106b14da31b000000000000000000000000000000000000000000000000000000000000000000000000000000000000000000000000000000000000000000000000000041bbd6cef3a1bc4a292231456e69ae8ec9d3d07139a9f2fd20db0db7986d91e0335843a60ce38b7958866bfe58dccaca42c5e9ae87349ee2f1cb554db2fc974ad91b0000000000000000000000000000000000000000000000000000000000000000000000000000",
                    "decodedMethod": {
                        "callParams": [
                            {
                                "name": "v",
                                "type": "uint8",
                                "value": "28"
                            },
                            {
                                "name": "r",
                                "type": "bytes32",
                                "value": "0x0a629dbd5b217c2306f8e0cdf056843424ac97b276fc0c5ad4e75dce83a9a644"
                            },
                            {
                                "name": "s",
                                "type": "bytes32",
                                "value": "0x5af36059c7c846934cb8230eeb197792320c471eadcd56c21f6ff6f629e491f7"
                            },
                            {
                                "name": "nonce",
                                "type": "uint256",
                                "value": "5"
                            },
                            {
                                "name": "authorizedAddress",
                                "type": "address",
                                "value": "0xa8b6a8d3a864eff03dd6ec2250d4f0ea003a1b74"
                            },
                            {
                                "name": "data",
                                "type": "bytes",
                                "value": "0x00f26d144bd92260fb1c770b5b19b8caf2c5529e620000000000000000000000000000000000000000000000000000000000000000000000000000000000000000000000000000000000000000000000000000044488280fa0000000000000000000000000000000000000000000000000000000000000008000000000000000000000000000000000000000000000000000000000000000e0000000000000000000000000000000000000000000000000000000000000028000000000000000000000000000000000000000000000000000000000000002e00000000000000000000000000000000000000000000000000000000000000002000000000000000000000000d35147be6401dcb20811f2104c33de8e97ed681800000000000000000000000006012c8cf97bead5deae237070f9587f8e7a266d00000000000000000000000000000000000000000000000000000000000000020000000000000000000000000000000000000000000000000000000000000040000000000000000000000000000000000000000000000000000000000000010000000000000000000000000000000000000000000000000000000000000000845669c94f000000000000000000000000ab3b927022d89753841bcb5b7a410f6e5fb0b6580000000000000000000000000000000000000000000000000000000000000040000000000000000000000000000000000000000000000000000000000000001564636c5f686f6f6469655f75707065725f626f64790000000000000000000000000000000000000000000000000000000000000000000000000000000000000000000000000000000000000000000000000000000000000000000044a9059cbb000000000000000000000000ab3b927022d89753841bcb5b7a410f6e5fb0b65800000000000000000000000000000000000000000000000000000000001b7437000000000000000000000000000000000000000000000000000000000000000000000000000000000000000000000000000000000000000000000002000000000000000000000000000000000000000000000000000000005e51f14d000000000000000000000000000000000000000000000000000000005e51f14d0000000000000000000000000000000000000000000000000000000000000002000000000000000000000000000000000000000000000000000000000000004000000000000000000000000000000000000000000000000000000000000000c00000000000000000000000000000000000000000000000000000000000000041421dc9abc05023c91e8067f3e1c4f039337e8ebc24540f2ac53ab874c7944c9a25869cf03c973b2422dd6523cf0e83a6c1d7fea520a662c607f57b1106b14da31b000000000000000000000000000000000000000000000000000000000000000000000000000000000000000000000000000000000000000000000000000041bbd6cef3a1bc4a292231456e69ae8ec9d3d07139a9f2fd20db0db7986d91e0335843a60ce38b7958866bfe58dccaca42c5e9ae87349ee2f1cb554db2fc974ad91b00000000000000000000000000000000000000000000000000000000000000"
                            }
                        ],
                        "constructorArguments": "",
                        "name": "invoke1CosignerSends",
                        "returnParams": [],
                        "signature": "invoke1CosignerSends(uint8,bytes32,bytes32,uint256,address,bytes)"
                    },
                    "errorInfo": "",
                    "fromAddress": "0x272437fad2c3d50ef455ced888f3e48c60bcba34",
                    "gasUsed": 323719,
                    "id": 0,
                    "methodDecoded": true,
                    "operation": "CALL",
                    "output": "",
                    "revert": false,
                    "revertMessage": "",
                    "selector": "0x91aeeedc",
                    "status": true,
                    "value": "0"
                },
                "nodeType": 0
            },
            "1": {
                "invocation": {
                    "address": "0x989a2ad9acaa8c4e50b2fc6b650d6e1809b9195b",
                    "callData": "0x000000000000000000000000000000000000000000000000000000000000001c0a629dbd5b217c2306f8e0cdf056843424ac97b276fc0c5ad4e75dce83a9a6445af36059c7c846934cb8230eeb197792320c471eadcd56c21f6ff6f629e491f70000000000000000000000000000000000000000000000000000000000000005000000000000000000000000a8b6a8d3a864eff03dd6ec2250d4f0ea003a1b7400000000000000000000000000000000000000000000000000000000000000c0000000000000000000000000000000000000000000000000000000000000049900f26d144bd92260fb1c770b5b19b8caf2c5529e620000000000000000000000000000000000000000000000000000000000000000000000000000000000000000000000000000000000000000000000000000044488280fa0000000000000000000000000000000000000000000000000000000000000008000000000000000000000000000000000000000000000000000000000000000e0000000000000000000000000000000000000000000000000000000000000028000000000000000000000000000000000000000000000000000000000000002e00000000000000000000000000000000000000000000000000000000000000002000000000000000000000000d35147be6401dcb20811f2104c33de8e97ed681800000000000000000000000006012c8cf97bead5deae237070f9587f8e7a266d00000000000000000000000000000000000000000000000000000000000000020000000000000000000000000000000000000000000000000000000000000040000000000000000000000000000000000000000000000000000000000000010000000000000000000000000000000000000000000000000000000000000000845669c94f000000000000000000000000ab3b927022d89753841bcb5b7a410f6e5fb0b6580000000000000000000000000000000000000000000000000000000000000040000000000000000000000000000000000000000000000000000000000000001564636c5f686f6f6469655f75707065725f626f64790000000000000000000000000000000000000000000000000000000000000000000000000000000000000000000000000000000000000000000000000000000000000000000044a9059cbb000000000000000000000000ab3b927022d89753841bcb5b7a410f6e5fb0b65800000000000000000000000000000000000000000000000000000000001b7437000000000000000000000000000000000000000000000000000000000000000000000000000000000000000000000000000000000000000000000002000000000000000000000000000000000000000000000000000000005e51f14d000000000000000000000000000000000000000000000000000000005e51f14d0000000000000000000000000000000000000000000000000000000000000002000000000000000000000000000000000000000000000000000000000000004000000000000000000000000000000000000000000000000000000000000000c00000000000000000000000000000000000000000000000000000000000000041421dc9abc05023c91e8067f3e1c4f039337e8ebc24540f2ac53ab874c7944c9a25869cf03c973b2422dd6523cf0e83a6c1d7fea520a662c607f57b1106b14da31b000000000000000000000000000000000000000000000000000000000000000000000000000000000000000000000000000000000000000000000000000041bbd6cef3a1bc4a292231456e69ae8ec9d3d07139a9f2fd20db0db7986d91e0335843a60ce38b7958866bfe58dccaca42c5e9ae87349ee2f1cb554db2fc974ad91b0000000000000000000000000000000000000000000000000000000000000000000000000000",
                    "decodedMethod": {
                        "callParams": [
                            {
                                "name": "v",
                                "type": "uint8",
                                "value": "28"
                            },
                            {
                                "name": "r",
                                "type": "bytes32",
                                "value": "0x0a629dbd5b217c2306f8e0cdf056843424ac97b276fc0c5ad4e75dce83a9a644"
                            },
                            {
                                "name": "s",
                                "type": "bytes32",
                                "value": "0x5af36059c7c846934cb8230eeb197792320c471eadcd56c21f6ff6f629e491f7"
                            },
                            {
                                "name": "nonce",
                                "type": "uint256",
                                "value": "5"
                            },
                            {
                                "name": "authorizedAddress",
                                "type": "address",
                                "value": "0xa8b6a8d3a864eff03dd6ec2250d4f0ea003a1b74"
                            },
                            {
                                "name": "data",
                                "type": "bytes",
                                "value": "0x00f26d144bd92260fb1c770b5b19b8caf2c5529e620000000000000000000000000000000000000000000000000000000000000000000000000000000000000000000000000000000000000000000000000000044488280fa0000000000000000000000000000000000000000000000000000000000000008000000000000000000000000000000000000000000000000000000000000000e0000000000000000000000000000000000000000000000000000000000000028000000000000000000000000000000000000000000000000000000000000002e00000000000000000000000000000000000000000000000000000000000000002000000000000000000000000d35147be6401dcb20811f2104c33de8e97ed681800000000000000000000000006012c8cf97bead5deae237070f9587f8e7a266d00000000000000000000000000000000000000000000000000000000000000020000000000000000000000000000000000000000000000000000000000000040000000000000000000000000000000000000000000000000000000000000010000000000000000000000000000000000000000000000000000000000000000845669c94f000000000000000000000000ab3b927022d89753841bcb5b7a410f6e5fb0b6580000000000000000000000000000000000000000000000000000000000000040000000000000000000000000000000000000000000000000000000000000001564636c5f686f6f6469655f75707065725f626f64790000000000000000000000000000000000000000000000000000000000000000000000000000000000000000000000000000000000000000000000000000000000000000000044a9059cbb000000000000000000000000ab3b927022d89753841bcb5b7a410f6e5fb0b65800000000000000000000000000000000000000000000000000000000001b7437000000000000000000000000000000000000000000000000000000000000000000000000000000000000000000000000000000000000000000000002000000000000000000000000000000000000000000000000000000005e51f14d000000000000000000000000000000000000000000000000000000005e51f14d0000000000000000000000000000000000000000000000000000000000000002000000000000000000000000000000000000000000000000000000000000004000000000000000000000000000000000000000000000000000000000000000c00000000000000000000000000000000000000000000000000000000000000041421dc9abc05023c91e8067f3e1c4f039337e8ebc24540f2ac53ab874c7944c9a25869cf03c973b2422dd6523cf0e83a6c1d7fea520a662c607f57b1106b14da31b000000000000000000000000000000000000000000000000000000000000000000000000000000000000000000000000000000000000000000000000000041bbd6cef3a1bc4a292231456e69ae8ec9d3d07139a9f2fd20db0db7986d91e0335843a60ce38b7958866bfe58dccaca42c5e9ae87349ee2f1cb554db2fc974ad91b00000000000000000000000000000000000000000000000000000000000000"
                            }
                        ],
                        "constructorArguments": "",
                        "name": "invoke1CosignerSends",
                        "returnParams": [],
                        "signature": "invoke1CosignerSends(uint8,bytes32,bytes32,uint256,address,bytes)"
                    },
                    "errorInfo": "",
                    "fromAddress": "0xab3b927022d89753841bcb5b7a410f6e5fb0b658",
                    "gasUsed": 291385,
                    "id": 1,
                    "methodDecoded": true,
                    "operation": "DELEGATECALL",
                    "output": "",
                    "revert": false,
                    "revertMessage": "",
                    "selector": "0x91aeeedc",
                    "status": true,
                    "value": "0"
                },
                "nodeType": 0
            },
            "10": {
                "invocation": {
                    "address": "0x0000000000000000000000000000000000000001",
                    "callData": "0xd5070bea5b27d2e93c564eddd13b2a84d35a5073ea3ba87e13db9db1000000000000000000000000000000000000000000000000000000000000001bbbd6cef3a1bc4a292231456e69ae8ec9d3d07139a9f2fd20db0db7986d91e0335843a60ce38b7958866bfe58dccaca42c5e9ae87349ee2f1cb554db2fc974ad9",
                    "decodedMethod": {
                        "callParams": [
                            {
                                "name": "hash",
                                "type": "bytes32",
                                "value": "0x5133802fd5070bea5b27d2e93c564eddd13b2a84d35a5073ea3ba87e13db9db1"
                            },
                            {
                                "name": "v",
                                "type": "uint256",
                                "value": "27"
                            },
                            {
                                "name": "r",
                                "type": "bytes32",
                                "value": "0xbbd6cef3a1bc4a292231456e69ae8ec9d3d07139a9f2fd20db0db7986d91e033"
                            },
                            {
                                "name": "s",
                                "type": "bytes32",
                                "value": "0x5843a60ce38b7958866bfe58dccaca42c5e9ae87349ee2f1cb554db2fc974ad9"
                            }
                        ],
                        "constructorArguments": "",
                        "name": "ecrecover",
                        "returnParams": [
                            {
                                "name": "",
                                "type": "address",
                                "value": "0xc1070bf724c3e5b1a0d4da913ab9c28175e9075b"
                            }
                        ],
                        "signature": "ecrecover(bytes32,uint256,bytes32,bytes32)"
                    },
                    "errorInfo": "",
                    "fromAddress": "0xf26d144bd92260fb1c770b5b19b8caf2c5529e62",
                    "gasUsed": 3000,
                    "id": 10,
                    "methodDecoded": true,
                    "operation": "STATICCALL",
                    "output": "0x000000000000000000000000c1070bf724c3e5b1a0d4da913ab9c28175e9075b",
                    "revert": false,
                    "revertMessage": "",
                    "selector": "0x5133802f",
                    "status": true,
                    "value": "0"
                },
                "nodeType": 0
            },
            "11": {
                "invocation": {
                    "address": "0x06012c8cf97bead5deae237070f9587f8e7a266d",
                    "callData": "0x000000000000000000000000ab3b927022d89753841bcb5b7a410f6e5fb0b65800000000000000000000000000000000000000000000000000000000001b7437",
                    "decodedMethod": {
                        "callParams": [
                            {
                                "name": "_to",
                                "type": "address",
                                "value": "0xab3b927022d89753841bcb5b7a410f6e5fb0b658"
                            },
                            {
                                "decimalAvailable": true,
                                "name": "_tokenId",
                                "type": "uint256",
                                "value": "1,799,223"
                            }
                        ],
                        "constructorArguments": "",
                        "name": "transfer",
                        "returnParams": [],
                        "signature": "transfer(address,uint256)"
                    },
                    "errorInfo": "",
                    "fromAddress": "0xf26d144bd92260fb1c770b5b19b8caf2c5529e62",
                    "gasUsed": 28379,
                    "id": 11,
                    "methodDecoded": true,
                    "operation": "CALL",
                    "output": "",
                    "revert": false,
                    "revertMessage": "",
                    "selector": "0xa9059cbb",
                    "status": true,
                    "value": "0"
                },
                "nodeType": 0
            },
            "12": {
                "event": {
                    "contract": "0x06012c8cf97bead5deae237070f9587f8e7a266d",
                    "decodedLog": {
                        "name": "Transfer",
                        "params": [
                            {
                                "name": "from",
                                "type": "address",
                                "value": "0xf26d144bd92260fb1c770b5b19b8caf2c5529e62"
                            },
                            {
                                "name": "to",
                                "type": "address",
                                "value": "0xab3b927022d89753841bcb5b7a410f6e5fb0b658"
                            },
                            {
                                "decimalAvailable": true,
                                "name": "tokenId",
                                "type": "uint256",
                                "value": "1,799,223"
                            }
                        ],
                        "signature": "Transfer(address,address,uint256)"
                    },
                    "id": 12,
                    "logData": "0x000000000000000000000000f26d144bd92260fb1c770b5b19b8caf2c5529e62000000000000000000000000ab3b927022d89753841bcb5b7a410f6e5fb0b65800000000000000000000000000000000000000000000000000000000001b7437",
                    "logDecoded": true,
                    "operation": "EVENT",
                    "revert": false,
                    "status": true,
                    "topics": [
                        "0xddf252ad1be2c89b69c2b068fc378daa952ba7f163c4a11628f55a4df523b3ef"
                    ]
                },
                "nodeType": 1
            },
            "13": {
                "event": {
                    "contract": "0xf26d144bd92260fb1c770b5b19b8caf2c5529e62",
                    "decodedLog": {
                        "name": "Rewarded",
                        "params": [
                            {
                                "name": "targetContract",
                                "type": "address",
                                "value": "0x06012c8cf97bead5deae237070f9587f8e7a266d"
                            },
                            {
                                "name": "hashedSig",
                                "type": "bytes32",
                                "value": "0xefecc27df5a339a4e568f8c353817eba3fa910cab7265c3d4a29658f07ff067c"
                            },
                            {
                                "name": "payload",
                                "type": "bytes",
                                "value": "0xa9059cbb000000000000000000000000ab3b927022d89753841bcb5b7a410f6e5fb0b65800000000000000000000000000000000000000000000000000000000001b7437"
                            },
                            {
                                "name": "signedTimestamp",
                                "type": "uint256",
                                "value": "1,582,428,493"
                            },
                            {
                                "name": "signature",
                                "type": "bytes",
                                "value": "0xbbd6cef3a1bc4a292231456e69ae8ec9d3d07139a9f2fd20db0db7986d91e0335843a60ce38b7958866bfe58dccaca42c5e9ae87349ee2f1cb554db2fc974ad91b"
                            },
                            {
                                "name": "sender",
                                "type": "address",
                                "value": "0xab3b927022d89753841bcb5b7a410f6e5fb0b658"
                            }
                        ],
                        "signature": "Rewarded(address,bytes32,bytes,uint256,bytes,address)"
                    },
                    "id": 13,
                    "logData": "0x0000000000000000000000000000000000000000000000000000000000000080000000000000000000000000000000000000000000000000000000005e51f14d0000000000000000000000000000000000000000000000000000000000000100000000000000000000000000ab3b927022d89753841bcb5b7a410f6e5fb0b6580000000000000000000000000000000000000000000000000000000000000044a9059cbb000000000000000000000000ab3b927022d89753841bcb5b7a410f6e5fb0b65800000000000000000000000000000000000000000000000000000000001b7437000000000000000000000000000000000000000000000000000000000000000000000000000000000000000000000000000000000000000000000041bbd6cef3a1bc4a292231456e69ae8ec9d3d07139a9f2fd20db0db7986d91e0335843a60ce38b7958866bfe58dccaca42c5e9ae87349ee2f1cb554db2fc974ad91b00000000000000000000000000000000000000000000000000000000000000",
                    "logDecoded": true,
                    "operation": "EVENT",
                    "revert": false,
                    "status": true,
                    "topics": [
                        "0x37117caaaab0b823cf81e70efa1e14cc33e0152b31f85a847bf9ff7ffe2435bc",
                        "0x00000000000000000000000006012c8cf97bead5deae237070f9587f8e7a266d",
                        "0xefecc27df5a339a4e568f8c353817eba3fa910cab7265c3d4a29658f07ff067c"
                    ]
                },
                "nodeType": 1
            },
            "14": {
                "event": {
                    "contract": "0xab3b927022d89753841bcb5b7a410f6e5fb0b658",
                    "decodedLog": {
                        "name": "InvocationSuccess",
                        "params": [
                            {
                                "name": "hash",
                                "type": "bytes32",
                                "value": "0xcb3027be5cf5dff4e6ee7b280ce46ff01cef8bb1a5d68f29dcae8ab7b2eb96b1"
                            },
                            {
                                "name": "result",
                                "type": "uint256",
                                "value": "0"
                            },
                            {
                                "name": "numOperations",
                                "type": "uint256",
                                "value": "1"
                            }
                        ],
                        "signature": "InvocationSuccess(bytes32,uint256,uint256)"
                    },
                    "id": 14,
                    "logData": "0xcb3027be5cf5dff4e6ee7b280ce46ff01cef8bb1a5d68f29dcae8ab7b2eb96b100000000000000000000000000000000000000000000000000000000000000000000000000000000000000000000000000000000000000000000000000000001",
                    "logDecoded": true,
                    "operation": "EVENT",
                    "revert": false,
                    "status": true,
                    "topics": [
                        "0x101214446435ebbb29893f3348e3aae5ea070b63037a3df346d09d3396a34aee"
                    ]
                },
                "nodeType": 1
            },
            "2": {
                "invocation": {
                    "address": "0x0000000000000000000000000000000000000001",
                    "callData": "0x5cf5dff4e6ee7b280ce46ff01cef8bb1a5d68f29dcae8ab7b2eb96b1000000000000000000000000000000000000000000000000000000000000001c0a629dbd5b217c2306f8e0cdf056843424ac97b276fc0c5ad4e75dce83a9a6445af36059c7c846934cb8230eeb197792320c471eadcd56c21f6ff6f629e491f7",
                    "decodedMethod": {
                        "callParams": [
                            {
                                "name": "hash",
                                "type": "bytes32",
                                "value": "0xcb3027be5cf5dff4e6ee7b280ce46ff01cef8bb1a5d68f29dcae8ab7b2eb96b1"
                            },
                            {
                                "name": "v",
                                "type": "uint256",
                                "value": "28"
                            },
                            {
                                "name": "r",
                                "type": "bytes32",
                                "value": "0x0a629dbd5b217c2306f8e0cdf056843424ac97b276fc0c5ad4e75dce83a9a644"
                            },
                            {
                                "name": "s",
                                "type": "bytes32",
                                "value": "0x5af36059c7c846934cb8230eeb197792320c471eadcd56c21f6ff6f629e491f7"
                            }
                        ],
                        "constructorArguments": "",
                        "name": "ecrecover",
                        "returnParams": [
                            {
                                "name": "",
                                "type": "address",
                                "value": "0xa8b6a8d3a864eff03dd6ec2250d4f0ea003a1b74"
                            }
                        ],
                        "signature": "ecrecover(bytes32,uint256,bytes32,bytes32)"
                    },
                    "errorInfo": "",
                    "fromAddress": "0xab3b927022d89753841bcb5b7a410f6e5fb0b658",
                    "gasUsed": 3000,
                    "id": 2,
                    "methodDecoded": true,
                    "operation": "STATICCALL",
                    "output": "0x000000000000000000000000a8b6a8d3a864eff03dd6ec2250d4f0ea003a1b74",
                    "revert": false,
                    "revertMessage": "",
                    "selector": "0xcb3027be",
                    "status": true,
                    "value": "0"
                },
                "nodeType": 0
            },
            "3": {
                "invocation": {
                    "address": "0xf26d144bd92260fb1c770b5b19b8caf2c5529e62",
                    "callData": "0x000000000000000000000000000000000000000000000000000000000000008000000000000000000000000000000000000000000000000000000000000000e0000000000000000000000000000000000000000000000000000000000000028000000000000000000000000000000000000000000000000000000000000002e00000000000000000000000000000000000000000000000000000000000000002000000000000000000000000d35147be6401dcb20811f2104c33de8e97ed681800000000000000000000000006012c8cf97bead5deae237070f9587f8e7a266d00000000000000000000000000000000000000000000000000000000000000020000000000000000000000000000000000000000000000000000000000000040000000000000000000000000000000000000000000000000000000000000010000000000000000000000000000000000000000000000000000000000000000845669c94f000000000000000000000000ab3b927022d89753841bcb5b7a410f6e5fb0b6580000000000000000000000000000000000000000000000000000000000000040000000000000000000000000000000000000000000000000000000000000001564636c5f686f6f6469655f75707065725f626f64790000000000000000000000000000000000000000000000000000000000000000000000000000000000000000000000000000000000000000000000000000000000000000000044a9059cbb000000000000000000000000ab3b927022d89753841bcb5b7a410f6e5fb0b65800000000000000000000000000000000000000000000000000000000001b7437000000000000000000000000000000000000000000000000000000000000000000000000000000000000000000000000000000000000000000000002000000000000000000000000000000000000000000000000000000005e51f14d000000000000000000000000000000000000000000000000000000005e51f14d0000000000000000000000000000000000000000000000000000000000000002000000000000000000000000000000000000000000000000000000000000004000000000000000000000000000000000000000000000000000000000000000c00000000000000000000000000000000000000000000000000000000000000041421dc9abc05023c91e8067f3e1c4f039337e8ebc24540f2ac53ab874c7944c9a25869cf03c973b2422dd6523cf0e83a6c1d7fea520a662c607f57b1106b14da31b000000000000000000000000000000000000000000000000000000000000000000000000000000000000000000000000000000000000000000000000000041bbd6cef3a1bc4a292231456e69ae8ec9d3d07139a9f2fd20db0db7986d91e0335843a60ce38b7958866bfe58dccaca42c5e9ae87349ee2f1cb554db2fc974ad91b00000000000000000000000000000000000000000000000000000000000000",
                    "decodedMethod": {
                        "callParams": [
                            {
                                "name": "targetContract",
                                "type": "address[]",
                                "value": [
                                    "0xd35147be6401dcb20811f2104c33de8e97ed6818",
                                    "0x06012c8cf97bead5deae237070f9587f8e7a266d"
                                ]
                            },
                            {
                                "name": "payload",
                                "type": "bytes[]",
                                "value": [
                                    "0x5669c94f000000000000000000000000ab3b927022d89753841bcb5b7a410f6e5fb0b6580000000000000000000000000000000000000000000000000000000000000040000000000000000000000000000000000000000000000000000000000000001564636c5f686f6f6469655f75707065725f626f64790000000000000000000000",
                                    "0xa9059cbb000000000000000000000000ab3b927022d89753841bcb5b7a410f6e5fb0b65800000000000000000000000000000000000000000000000000000000001b7437"
                                ]
                            },
                            {
                                "name": "expirationTimestamp",
                                "type": "uint256[]",
                                "value": [
                                    "1,582,428,493",
                                    "1,582,428,493"
                                ]
                            },
                            {
                                "name": "signature",
                                "type": "bytes[]",
                                "value": [
                                    "0x421dc9abc05023c91e8067f3e1c4f039337e8ebc24540f2ac53ab874c7944c9a25869cf03c973b2422dd6523cf0e83a6c1d7fea520a662c607f57b1106b14da31b",
                                    "0xbbd6cef3a1bc4a292231456e69ae8ec9d3d07139a9f2fd20db0db7986d91e0335843a60ce38b7958866bfe58dccaca42c5e9ae87349ee2f1cb554db2fc974ad91b"
                                ]
                            }
                        ],
                        "constructorArguments": "",
                        "name": "claimManyRewards",
                        "returnParams": [],
                        "signature": "claimManyRewards(address[],bytes[],uint256[],bytes[])"
                    },
                    "errorInfo": "",
                    "fromAddress": "0xab3b927022d89753841bcb5b7a410f6e5fb0b658",
                    "gasUsed": 274953,
                    "id": 3,
                    "methodDecoded": true,
                    "operation": "CALL",
                    "output": "",
                    "revert": false,
                    "revertMessage": "",
                    "selector": "0x88280fa0",
                    "status": true,
                    "value": "0"
                },
                "nodeType": 0
            },
            "4": {
                "invocation": {
                    "address": "0x0000000000000000000000000000000000000001",
                    "callData": "0x1c635c93fa4b7e46245fdf0d8ad77e6470cf2cddf258ef13e5b322f3000000000000000000000000000000000000000000000000000000000000001b421dc9abc05023c91e8067f3e1c4f039337e8ebc24540f2ac53ab874c7944c9a25869cf03c973b2422dd6523cf0e83a6c1d7fea520a662c607f57b1106b14da3",
                    "decodedMethod": {
                        "callParams": [
                            {
                                "name": "hash",
                                "type": "bytes32",
                                "value": "0xe719380f1c635c93fa4b7e46245fdf0d8ad77e6470cf2cddf258ef13e5b322f3"
                            },
                            {
                                "name": "v",
                                "type": "uint256",
                                "value": "27"
                            },
                            {
                                "name": "r",
                                "type": "bytes32",
                                "value": "0x421dc9abc05023c91e8067f3e1c4f039337e8ebc24540f2ac53ab874c7944c9a"
                            },
                            {
                                "name": "s",
                                "type": "bytes32",
                                "value": "0x25869cf03c973b2422dd6523cf0e83a6c1d7fea520a662c607f57b1106b14da3"
                            }
                        ],
                        "constructorArguments": "",
                        "name": "ecrecover",
                        "returnParams": [
                            {
                                "name": "",
                                "type": "address",
                                "value": "0xc1070bf724c3e5b1a0d4da913ab9c28175e9075b"
                            }
                        ],
                        "signature": "ecrecover(bytes32,uint256,bytes32,bytes32)"
                    },
                    "errorInfo": "",
                    "fromAddress": "0xf26d144bd92260fb1c770b5b19b8caf2c5529e62",
                    "gasUsed": 3000,
                    "id": 4,
                    "methodDecoded": true,
                    "operation": "STATICCALL",
                    "output": "0x000000000000000000000000c1070bf724c3e5b1a0d4da913ab9c28175e9075b",
                    "revert": false,
                    "revertMessage": "",
                    "selector": "0xe719380f",
                    "status": true,
                    "value": "0"
                },
                "nodeType": 0
            },
            "5": {
                "invocation": {
                    "address": "0xd35147be6401dcb20811f2104c33de8e97ed6818",
                    "callData": "0x000000000000000000000000ab3b927022d89753841bcb5b7a410f6e5fb0b6580000000000000000000000000000000000000000000000000000000000000040000000000000000000000000000000000000000000000000000000000000001564636c5f686f6f6469655f75707065725f626f64790000000000000000000000",
                    "decodedMethod": {
                        "callParams": [
                            {
                                "name": "_beneficiary",
                                "type": "address",
                                "value": "0xab3b927022d89753841bcb5b7a410f6e5fb0b658"
                            },
                            {
                                "name": "_wearableId",
                                "type": "string",
                                "value": "dcl_hoodie_upper_body"
                            }
                        ],
                        "constructorArguments": "",
                        "name": "issueToken",
                        "returnParams": [],
                        "signature": "issueToken(address,string)"
                    },
                    "errorInfo": "",
                    "fromAddress": "0xf26d144bd92260fb1c770b5b19b8caf2c5529e62",
                    "gasUsed": 166280,
                    "id": 5,
                    "methodDecoded": true,
                    "operation": "CALL",
                    "output": "",
                    "revert": false,
                    "revertMessage": "",
                    "selector": "0x5669c94f",
                    "status": true,
                    "value": "0"
                },
                "nodeType": 0
            },
            "6": {
                "invocation": {
                    "address": "0xd35147be6401dcb20811f2104c33de8e97ed6818",
                    "callData": "0x",
                    "decodedMethod": {
                        "callParams": [],
                        "constructorArguments": "",
                        "name": "totalSupply",
                        "returnParams": [
                            {
                                "name": "",
                                "type": "uint256",
                                "value": "4,286"
                            }
                        ],
                        "signature": "totalSupply()"
                    },
                    "errorInfo": "",
                    "fromAddress": "0xd35147be6401dcb20811f2104c33de8e97ed6818",
                    "gasUsed": 1111,
                    "id": 6,
                    "methodDecoded": true,
                    "operation": "STATICCALL",
                    "output": "0x00000000000000000000000000000000000000000000000000000000000010be",
                    "revert": false,
                    "revertMessage": "",
                    "selector": "0x18160ddd",
                    "status": true,
                    "value": "0"
                },
                "nodeType": 0
            },
            "7": {
                "event": {
                    "contract": "0xd35147be6401dcb20811f2104c33de8e97ed6818",
                    "decodedLog": {
                        "name": "Transfer",
                        "params": [
                            {
                                "name": "from",
                                "type": "address",
                                "value": "0x0000000000000000000000000000000000000000"
                            },
                            {
                                "name": "to",
                                "type": "address",
                                "value": "0xab3b927022d89753841bcb5b7a410f6e5fb0b658"
                            },
                            {
                                "decimalAvailable": true,
                                "name": "tokenId",
                                "type": "uint256",
                                "value": "4,286"
                            }
                        ],
                        "signature": "Transfer(address,address,uint256)"
                    },
                    "id": 7,
                    "logData": "0x",
                    "logDecoded": true,
                    "operation": "EVENT",
                    "revert": false,
                    "status": true,
                    "topics": [
                        "0xddf252ad1be2c89b69c2b068fc378daa952ba7f163c4a11628f55a4df523b3ef",
                        "0x0000000000000000000000000000000000000000000000000000000000000000",
                        "0x000000000000000000000000ab3b927022d89753841bcb5b7a410f6e5fb0b658",
                        "0x00000000000000000000000000000000000000000000000000000000000010be"
                    ]
                },
                "nodeType": 1
            },
            "8": {
                "event": {
                    "contract": "0xd35147be6401dcb20811f2104c33de8e97ed6818",
                    "decodedLog": {
                        "name": "Issue",
                        "params": [
                            {
                                "name": "_beneficiary",
                                "type": "address",
                                "value": "0xab3b927022d89753841bcb5b7a410f6e5fb0b658"
                            },
                            {
                                "name": "_tokenId",
                                "type": "uint256",
                                "value": "4,286"
                            },
                            {
                                "name": "_wearableIdKey",
                                "type": "bytes32",
                                "value": "0xec1ee15ac66a733adb703deb8b72d20fb633826871437c39f8c71bce90630f60"
                            },
                            {
                                "name": "_wearableId",
                                "type": "string",
                                "value": "dcl_hoodie_upper_body"
                            },
                            {
                                "name": "_issuedId",
                                "type": "uint256",
                                "value": "538"
                            }
                        ],
                        "signature": "Issue(address,uint256,bytes32,string,uint256)"
                    },
                    "id": 8,
                    "logData": "0x0000000000000000000000000000000000000000000000000000000000000040000000000000000000000000000000000000000000000000000000000000021a000000000000000000000000000000000000000000000000000000000000001564636c5f686f6f6469655f75707065725f626f64790000000000000000000000",
                    "logDecoded": true,
                    "operation": "EVENT",
                    "revert": false,
                    "status": true,
                    "topics": [
                        "0xdb78fb3a605c85b40cf64f4ddff503d984ed442e5ae01282bd60137db494f80b",
                        "0x000000000000000000000000ab3b927022d89753841bcb5b7a410f6e5fb0b658",
                        "0x00000000000000000000000000000000000000000000000000000000000010be",
                        "0xec1ee15ac66a733adb703deb8b72d20fb633826871437c39f8c71bce90630f60"
                    ]
                },
                "nodeType": 1
            },
            "9": {
                "event": {
                    "contract": "0xf26d144bd92260fb1c770b5b19b8caf2c5529e62",
                    "decodedLog": {
                        "name": "Rewarded",
                        "params": [
                            {
                                "name": "targetContract",
                                "type": "address",
                                "value": "0xd35147be6401dcb20811f2104c33de8e97ed6818"
                            },
                            {
                                "name": "hashedSig",
                                "type": "bytes32",
                                "value": "0x99a437b41993558d95c895ed95ac4419836bbfea428ee770746d07c05ff7c12a"
                            },
                            {
                                "name": "payload",
                                "type": "bytes",
                                "value": "0x5669c94f000000000000000000000000ab3b927022d89753841bcb5b7a410f6e5fb0b6580000000000000000000000000000000000000000000000000000000000000040000000000000000000000000000000000000000000000000000000000000001564636c5f686f6f6469655f75707065725f626f64790000000000000000000000"
                            },
                            {
                                "name": "signedTimestamp",
                                "type": "uint256",
                                "value": "1,582,428,493"
                            },
                            {
                                "name": "signature",
                                "type": "bytes",
                                "value": "0x421dc9abc05023c91e8067f3e1c4f039337e8ebc24540f2ac53ab874c7944c9a25869cf03c973b2422dd6523cf0e83a6c1d7fea520a662c607f57b1106b14da31b"
                            },
                            {
                                "name": "sender",
                                "type": "address",
                                "value": "0xab3b927022d89753841bcb5b7a410f6e5fb0b658"
                            }
                        ],
                        "signature": "Rewarded(address,bytes32,bytes,uint256,bytes,address)"
                    },
                    "id": 9,
                    "logData": "0x0000000000000000000000000000000000000000000000000000000000000080000000000000000000000000000000000000000000000000000000005e51f14d0000000000000000000000000000000000000000000000000000000000000140000000000000000000000000ab3b927022d89753841bcb5b7a410f6e5fb0b65800000000000000000000000000000000000000000000000000000000000000845669c94f000000000000000000000000ab3b927022d89753841bcb5b7a410f6e5fb0b6580000000000000000000000000000000000000000000000000000000000000040000000000000000000000000000000000000000000000000000000000000001564636c5f686f6f6469655f75707065725f626f64790000000000000000000000000000000000000000000000000000000000000000000000000000000000000000000000000000000000000000000000000000000000000000000041421dc9abc05023c91e8067f3e1c4f039337e8ebc24540f2ac53ab874c7944c9a25869cf03c973b2422dd6523cf0e83a6c1d7fea520a662c607f57b1106b14da31b00000000000000000000000000000000000000000000000000000000000000",
                    "logDecoded": true,
                    "operation": "EVENT",
                    "revert": false,
                    "status": true,
                    "topics": [
                        "0x37117caaaab0b823cf81e70efa1e14cc33e0152b31f85a847bf9ff7ffe2435bc",
                        "0x000000000000000000000000d35147be6401dcb20811f2104c33de8e97ed6818",
                        "0x99a437b41993558d95c895ed95ac4419836bbfea428ee770746d07c05ff7c12a"
                    ]
                },
                "nodeType": 1
            }
        },
        "gasFlame": [
            {
                "children": [
                    {
                        "children": [
                            {
                                "children": [],
                                "depth": 0,
                                "name": "Initial Gas",
                                "value": 31304
                            },
                            {
                                "children": [
                                    {
                                        "children": [
                                            {
                                                "children": [],
                                                "depth": 2,
                                                "name": "ecrecover",
                                                "value": 3000
                                            },
                                            {
                                                "children": [
                                                    {
                                                        "children": [],
                                                        "depth": 3,
                                                        "name": "ecrecover",
                                                        "value": 3000
                                                    },
                                                    {
                                                        "children": [
                                                            {
                                                                "children": [],
                                                                "depth": 4,
                                                                "name": "totalSupply",
                                                                "value": 1111
                                                            }
                                                        ],
                                                        "depth": 3,
                                                        "name": "issueToken",
                                                        "value": 166280
                                                    },
                                                    {
                                                        "children": [],
                                                        "depth": 3,
                                                        "name": "ecrecover",
                                                        "value": 3000
                                                    },
                                                    {
                                                        "children": [],
                                                        "depth": 3,
                                                        "name": "transfer",
                                                        "value": 28379
                                                    }
                                                ],
                                                "depth": 2,
                                                "name": "claimManyRewards",
                                                "value": 274953
                                            }
                                        ],
                                        "depth": 1,
                                        "name": "invoke1CosignerSends",
                                        "value": 291385
                                    }
                                ],
                                "depth": 0,
                                "name": "Executed Gas",
                                "value": 292415
                            }
                        ],
                        "depth": -1,
                        "name": "Actual Gas Used",
                        "value": 323719
                    },
                    {
                        "children": [],
                        "depth": -1,
                        "name": "Refunded Gas",
                        "value": 0
                    }
                ],
                "depth": -2,
                "name": "Total Gas",
                "value": 323719
            }
        ],
        "isConfirmed": true,
        "mainTrace": [
            {
                "children": [
                    {
                        "children": [
                            {
                                "children": [
                                    {
                                        "children": [],
                                        "depth": 2,
                                        "id": 2,
                                        "order": 2
                                    },
                                    {
                                        "children": [
                                            {
                                                "children": [],
                                                "depth": 3,
                                                "id": 4,
                                                "order": 4
                                            },
                                            {
                                                "children": [
                                                    {
                                                        "children": [],
                                                        "depth": 4,
                                                        "id": 6,
                                                        "order": 6
                                                    },
                                                    {
                                                        "children": [],
                                                        "depth": 4,
                                                        "id": 7,
                                                        "order": 7
                                                    },
                                                    {
                                                        "children": [],
                                                        "depth": 4,
                                                        "id": 8,
                                                        "order": 8
                                                    }
                                                ],
                                                "depth": 3,
                                                "id": 5,
                                                "order": 5
                                            },
                                            {
                                                "children": [],
                                                "depth": 3,
                                                "id": 9,
                                                "order": 9
                                            },
                                            {
                                                "children": [],
                                                "depth": 3,
                                                "id": 10,
                                                "order": 10
                                            },
                                            {
                                                "children": [
                                                    {
                                                        "children": [],
                                                        "depth": 4,
                                                        "id": 12,
                                                        "order": 12
                                                    }
                                                ],
                                                "depth": 3,
                                                "id": 11,
                                                "order": 11
                                            },
                                            {
                                                "children": [],
                                                "depth": 3,
                                                "id": 13,
                                                "order": 13
                                            }
                                        ],
                                        "depth": 2,
                                        "id": 3,
                                        "order": 3
                                    },
                                    {
                                        "children": [],
                                        "depth": 2,
                                        "id": 14,
                                        "order": 14
                                    }
                                ],
                                "depth": 1,
                                "id": 1,
                                "order": 1
                            }
                        ],
                        "depth": 0,
                        "id": 0,
                        "order": 0
                    }
                ],
                "depth": -1,
                "id": -1,
                "order": -1
            }
        ],
        "mainTraceNodeCount": 15,
        "parentIdMap": {
            "0": -1,
            "1": 0,
            "10": 3,
            "11": 3,
            "12": 11,
            "13": 3,
            "14": 1,
            "2": 1,
            "3": 1,
            "4": 3,
            "5": 3,
            "6": 5,
            "7": 5,
            "8": 5,
            "9": 3
        },
        "tidyTrace": [
            {
                "children": [
                    {
                        "children": [
                            {
                                "children": [
                                    {
                                        "children": [
                                            {
                                                "children": [
                                                    {
                                                        "children": [],
                                                        "depth": 4,
                                                        "id": 7,
                                                        "order": 7
                                                    },
                                                    {
                                                        "children": [],
                                                        "depth": 4,
                                                        "id": 8,
                                                        "order": 8
                                                    }
                                                ],
                                                "depth": 3,
                                                "id": 5,
                                                "order": 5
                                            },
                                            {
                                                "children": [],
                                                "depth": 3,
                                                "id": 9,
                                                "order": 9
                                            },
                                            {
                                                "children": [
                                                    {
                                                        "children": [],
                                                        "depth": 4,
                                                        "id": 12,
                                                        "order": 12
                                                    }
                                                ],
                                                "depth": 3,
                                                "id": 11,
                                                "order": 11
                                            },
                                            {
                                                "children": [],
                                                "depth": 3,
                                                "id": 13,
                                                "order": 13
                                            }
                                        ],
                                        "depth": 2,
                                        "id": 3,
                                        "order": 3
                                    },
                                    {
                                        "children": [],
                                        "depth": 2,
                                        "id": 14,
                                        "order": 14
                                    }
                                ],
                                "depth": 1,
                                "id": 1,
                                "order": 1
                            }
                        ],
                        "depth": 0,
                        "id": 0,
                        "order": 0
                    }
                ],
                "depth": -1,
                "id": -1,
                "order": -1
            }
        ],
        "tidyTraceNodeCount": 11
    },
    "state_change": {
        "stateChanges": [
            {
                "address": "0x06012c8cf97bead5deae237070f9587f8e7a266d",
                "erc": "",
                "slots": [
                    {
                        "current": "0x0000000000000000000000000000000000000000000000000000000000000002",
                        "key": "0xc2e5612e6db518fa54d1cb43b1e5c2a03f78037f989158686c895b5876120c09",
                        "prev": "0x0000000000000000000000000000000000000000000000000000000000000001"
                    },
                    {
                        "current": "0x000000000000000000000000ab3b927022d89753841bcb5b7a410f6e5fb0b658",
                        "key": "0xb5af3ab7630b44cc718109575d5a6918d3713251ed0b3e68aa46dc97cbccc706",
                        "prev": "0x000000000000000000000000f26d144bd92260fb1c770b5b19b8caf2c5529e62"
                    },
                    {
                        "current": "0x0000000000000000000000000000000000000000000000000000000000000fd4",
                        "key": "0xa84e05fcc9cf2633f6dea64847ac6d0de7b3def92772dcb16dc39e0bba09c2de",
                        "prev": "0x0000000000000000000000000000000000000000000000000000000000000fd5"
                    }
                ],
                "storageVariables": [
                    {
                        "name": "ownershipTokenCount",
                        "type": "mapping(address => uint256)",
                        "value": {
                            "pairs": [
                                {
                                    "key": "0xab3b927022d89753841bcb5b7a410f6e5fb0b658",
                                    "value": {
                                        "current": "2",
                                        "prev": "1",
                                        "typeTag": 1
                                    }
                                },
                                {
                                    "key": "0xf26d144bd92260fb1c770b5b19b8caf2c5529e62",
                                    "value": {
                                        "current": "4052",
                                        "prev": "4053",
                                        "typeTag": 1
                                    }
                                }
                            ],
                            "typeTag": 4
                        }
                    },
                    {
                        "name": "kittyIndexToOwner",
                        "type": "mapping(uint256 => address)",
                        "value": {
                            "pairs": [
                                {
                                    "key": "1799223",
                                    "value": {
                                        "current": "0xab3b927022d89753841bcb5b7a410f6e5fb0b658",
                                        "prev": "0xf26d144bd92260fb1c770b5b19b8caf2c5529e62",
                                        "typeTag": 1
                                    }
                                }
                            ],
                            "typeTag": 4
                        }
                    }
                ]
            },
            {
                "address": "0xab3b927022d89753841bcb5b7a410f6e5fb0b658",
                "erc": "",
                "slots": [
                    {
                        "current": "0x0000000000000000000000000000000000000000000000000000000000000006",
                        "key": "0x5d03f5ec924ae05b8fd600e3095a14ea5909e6d95ad3566328d6258a4585ef08",
                        "prev": "0x0000000000000000000000000000000000000000000000000000000000000005"
                    }
                ],
                "storageVariables": [
                    {
                        "name": "nonces",
                        "type": "mapping(address => uint256)",
                        "value": {
                            "pairs": [
                                {
                                    "key": "0xa8b6a8d3a864eff03dd6ec2250d4f0ea003a1b74",
                                    "value": {
                                        "current": "6",
                                        "prev": "5",
                                        "typeTag": 1
                                    }
                                }
                            ],
                            "typeTag": 4
                        }
                    }
                ]
            },
            {
                "address": "0xd35147be6401dcb20811f2104c33de8e97ed6818",
                "erc": "ERC-721",
                "slots": [
                    {
                        "current": "0x0000000000000000000000000000000000000000000000000000000000000005",
                        "key": "0x314b45c3c471dfae8a19fd5eddad68e2d2c791090ca3b55b50e0ac3381fe7110",
                        "prev": "0x0000000000000000000000000000000000000000000000000000000000000004"
                    },
                    {
                        "current": "0x64636c5f686f6f6469655f75707065725f626f64792f35333800000000000032",
                        "key": "0x933dde5044ba33d159d411944c8e3a278b0c723c4bf39515671c438b12980180",
                        "prev": "0x0000000000000000000000000000000000000000000000000000000000000000"
                    },
                    {
                        "current": "0x00000000000000000000000000000000000000000000000000000000000010be",
                        "key": "0xf3f7a9fe364faab93b216da50a3214154f22a0a2b415b23a84c8169e8b637fa1",
                        "prev": "0x0000000000000000000000000000000000000000000000000000000000000000"
                    },
                    {
                        "current": "0x000000000000000000000000000000000000000000000000000000000000021a",
                        "key": "0xcb9237df83636f1487b44dad1531dbfabad75b8c8d70ae19b25e160f523be228",
                        "prev": "0x0000000000000000000000000000000000000000000000000000000000000219"
                    },
                    {
                        "current": "0x00000000000000000000000000000000000000000000000000000000000010be",
                        "key": "0x700d815e9101daf6cdbd9fb9dbd2f02a7ae1383939d1ca2c19c3390dee0ccf37",
                        "prev": "0x0000000000000000000000000000000000000000000000000000000000000000"
                    },
                    {
                        "current": "0x000000000000000000000000ab3b927022d89753841bcb5b7a410f6e5fb0b658",
                        "key": "0xe19c073084b653057684d48ad61bc4831c5ce75321297924e2c141b8936158a3",
                        "prev": "0x0000000000000000000000000000000000000000000000000000000000000000"
                    },
                    {
                        "current": "0x0000000000000000000000000000000000000000000000000000000000000004",
                        "key": "0x48a7d31bf17e454e35694b4c7e2bac4cd75169995d2f6f4d7e1b9f919c9612cd",
                        "prev": "0x0000000000000000000000000000000000000000000000000000000000000000"
                    },
                    {
                        "current": "0x0000000000000000000000000000000000000000000000000000000000000005",
                        "key": "0xc5a30a33ec746346e48d7baf1c2f82c87f97f50d2513c2e939e7bafc1bb53aaf",
                        "prev": "0x0000000000000000000000000000000000000000000000000000000000000004"
                    },
                    {
                        "current": "0x00000000000000000000000000000000000000000000000000000000000010be",
                        "key": "0x52dd68816e59893b84ad09d9ef2c6d029476073232c212ecd5f8c49a2b464a01",
                        "prev": "0x0000000000000000000000000000000000000000000000000000000000000000"
                    },
                    {
                        "current": "0x00000000000000000000000000000000000000000000000000000000000010bf",
                        "key": "0x0000000000000000000000000000000000000000000000000000000000000008",
                        "prev": "0x00000000000000000000000000000000000000000000000000000000000010be"
                    }
                ],
                "storageVariables": [
                    {
                        "name": "_ownedTokensIndex",
                        "type": "mapping(uint256 => uint256)",
                        "value": {
                            "pairs": [
                                {
                                    "key": "4286",
                                    "value": {
                                        "current": "4",
                                        "prev": "0",
                                        "typeTag": 1
                                    }
                                }
                            ],
                            "typeTag": 4
                        }
                    },
                    {
                        "name": "_allTokensIndex",
                        "type": "mapping(uint256 => uint256)",
                        "value": {
                            "pairs": [
                                {
                                    "key": "4286",
                                    "value": {
                                        "current": "4286",
                                        "prev": "0",
                                        "typeTag": 1
                                    }
                                }
                            ],
                            "typeTag": 4
                        }
                    },
                    {
                        "name": "_tokenPaths",
                        "type": "mapping(uint256 => string)",
                        "value": {
                            "pairs": [
                                {
                                    "key": "4286",
                                    "value": {
                                        "current": "dcl_hoodie_upper_body/538",
                                        "prev": "",
                                        "typeTag": 1
                                    }
                                }
                            ],
                            "typeTag": 4
                        }
                    },
                    {
                        "name": "_allTokens",
                        "type": "uint256[]",
                        "value": {
                            "elemType": "uint256",
                            "elems": [
                                {
                                    "index": 4286,
                                    "value": {
                                        "current": "4286",
                                        "prev": "0",
                                        "typeTag": 1
                                    }
                                }
                            ],
                            "typeTag": 2
                        }
                    },
                    {
                        "name": "issued",
                        "type": "mapping(bytes32 => uint256)",
                        "value": {
                            "pairs": [
                                {
                                    "key": "0xec1ee15ac66a733adb703deb8b72d20fb633826871437c39f8c71bce90630f60",
                                    "value": {
                                        "current": "538",
                                        "prev": "537",
                                        "typeTag": 1
                                    }
                                }
                            ],
                            "typeTag": 4
                        }
                    },
                    {
                        "name": "_ownedTokens",
                        "type": "mapping(address => uint256[])",
                        "value": {
                            "pairs": [
                                {
                                    "key": "0xab3b927022d89753841bcb5b7a410f6e5fb0b658",
                                    "value": {
                                        "elemType": "uint256",
                                        "elems": [
                                            {
                                                "index": 4,
                                                "value": {
                                                    "current": "4286",
                                                    "prev": "0",
                                                    "typeTag": 1
                                                }
                                            }
                                        ],
                                        "typeTag": 2
                                    }
                                }
                            ],
                            "typeTag": 4
                        }
                    },
                    {
                        "name": "_ownedTokensCount",
                        "type": "mapping(address => struct Counters.Counter)",
                        "value": {
                            "pairs": [
                                {
                                    "key": "0xab3b927022d89753841bcb5b7a410f6e5fb0b658",
                                    "value": {
                                        "fields": [
                                            {
                                                "name": "_value",
                                                "type": "uint256",
                                                "value": {
                                                    "current": "5",
                                                    "prev": "4",
                                                    "typeTag": 1
                                                }
                                            }
                                        ],
                                        "typeTag": 3
                                    }
                                }
                            ],
                            "typeTag": 4
                        }
                    },
                    {
                        "name": "_tokenOwner",
                        "type": "mapping(uint256 => address)",
                        "value": {
                            "pairs": [
                                {
                                    "key": "4286",
                                    "value": {
                                        "current": "0xab3b927022d89753841bcb5b7a410f6e5fb0b658",
                                        "prev": "0x0000000000000000000000000000000000000000",
                                        "typeTag": 1
                                    }
                                }
                            ],
                            "typeTag": 4
                        }
                    }
                ]
            },
            {
                "address": "0xf26d144bd92260fb1c770b5b19b8caf2c5529e62",
                "erc": "",
                "slots": [
                    {
                        "current": "0x0000000000000000000000000000000000000000000000000000000000000001",
                        "key": "0xf2536595cbf494a038ba9f7731f452845ad0c6248d8715a8668fb55687c7f3b7",
                        "prev": "0x0000000000000000000000000000000000000000000000000000000000000000"
                    },
                    {
                        "current": "0x0000000000000000000000000000000000000000000000000000000000000001",
                        "key": "0x93a84aa46c75f6672999457b37e4430639aa8074ea3f8a2631a06caf20933659",
                        "prev": "0x0000000000000000000000000000000000000000000000000000000000000000"
                    }
                ],
                "storageVariables": [
                    {
                        "name": "alreadySent",
                        "type": "mapping(bytes32 => bool)",
                        "value": {
                            "pairs": [
                                {
                                    "key": "0x99a437b41993558d95c895ed95ac4419836bbfea428ee770746d07c05ff7c12a",
                                    "value": {
                                        "current": "true",
                                        "prev": "false",
                                        "typeTag": 1
                                    }
                                },
                                {
                                    "key": "0xefecc27df5a339a4e568f8c353817eba3fa910cab7265c3d4a29658f07ff067c",
                                    "value": {
                                        "current": "true",
                                        "prev": "false",
                                        "typeTag": 1
                                    }
                                }
                            ],
                            "typeTag": 4
                        }
                    }
                ]
            }
        ]
    }
}