{
    "balance_change": {
        "balanceChanges": [
            {
                "account": "0xe3dfebb362d418b9787b8f85373adff7565085d3",
                "assets": [
                    {
                        "address": "0xda605fd5e003e6de0f33f6474080623fa6483e3e",
                        "amount": "428.57142857",
                        "iconUrl": "",
                        "isERC1155": false,
                        "isERC721": false,
                        "sign": false,
                        "value": ""
                    }
                ]
            },
            {
                "account": "0x3ad3ff7ef37ed7142df557e57dc2e4abe6c0c5c6",
                "assets": [
                    {
                        "address": "0xda605fd5e003e6de0f33f6474080623fa6483e3e",
                        "amount": "428.57142857",
                        "iconUrl": "",
                        "isERC1155": false,
                        "isERC721": false,
                        "sign": true,
                        "value": ""
                    }
                ]
            }
        ]
    },
    "profile": {
        "basic_info": {
            "baseFee": "",
            "blockNumber": 9169308,
            "callData": "0xa9059cbb0000000000000000000000003ad3ff7ef37ed7142df557e57dc2e4abe6c0c5c600000000000000000000000000000000000000000000000000000009fa7c1a49",
            "debugEnable": true,
            "errorInfo": "",
            "eventCount": 1,
            "feeRecipient": "0x5a0b54d5dc17e0aadc383d2db43b0a0d3e029c4c",
            "formatValue": "0",
            "gasLimit": 51709,
            "gasPrice": "41",
            "gasUsed": 51709,
            "intTxnCount": 0,
            "internalRevert": false,
            "internalRevertMessage": "",
            "isContractCreation": false,
            "isFlashloan": false,
            "maxFee": "",
            "nonce": 101,
            "overwritedBlockNumber": -1,
            "priorityFee": "",
            "receiver": "0xda605fd5e003e6de0f33f6474080623fa6483e3e",
            "revertMessage": "",
            "sender": "0xe3dfebb362d418b9787b8f85373adff7565085d3",
            "simulationEnable": true,
            "sourceTxnHash": "0xb3896fa8e6294745d683467a2aded2bbd06c27c0ceacda5b41ece30d207c2b13",
            "status": true,
            "timestamp": "2019-12-27T05:38:23Z",
            "transactionFee": "0.002120069",
            "txnHash": "0xb3896fa8e6294745d683467a2aded2bbd06c27c0ceacda5b41ece30d207c2b13",
            "txnIndex": 3,
            "type": 0,
            "value": "0"
        },
        "fund_flow": [
            {
                "amount": "428.57142857",
                "from": "0xe3dfebb362d418b9787b8f85373adff7565085d3",
                "id": 1,
                "isERC1155": false,
                "isERC721": false,
                "isReverted": false,
                "order": 1,
                "to": "0x3ad3ff7ef37ed7142df557e57dc2e4abe6c0c5c6",
                "token": "0xda605fd5e003e6de0f33f6474080623fa6483e3e"
            }
        ],
        "token_infos": [
            {
                "address": "0xeeeeeeeeeeeeeeeeeeeeeeeeeeeeeeeeeeeeeeee",
                "decimals": 18
            },
            {
                "address": "0xc02aaa39b223fe8d0a0e5c4f27ead9083c756cc2",
                "decimals": 18
            },
            {
                "address": "0xda605fd5e003e6de0f33f6474080623fa6483e3e",
                "decimals": 8
            }
        ]
    },
    "address_label": {
        "labels": [
            {
                "address": "0x0000000000000000000000000000000000000004",
                "label": "Precompiled"
            },
            {
                "address": "0xeeeeeeeeeeeeeeeeeeeeeeeeeeeeeeeeeeeeeeee",
                "label": "Ether"
            },
            {
                "address": "0xda605fd5e003e6de0f33f6474080623fa6483e3e",
                "label": "Capital Coin (CPTL)"
            },
            {
                "address": "0x0000000000000000000000000000000000000001",
                "label": "Precompiled"
            },
            {
                "address": "0x0000000000000000000000000000000000000002",
                "label": "Precompiled"
            },
            {
                "address": "0x0000000000000000000000000000000000000003",
                "label": "Precompiled"
            }
        ]
    },
    "trace": {
        "accountLabels": null,
        "dataMap": {
            "-1": {
                "invocation": {
                    "address": "0xe3dfebb362d418b9787b8f85373adff7565085d3",
                    "callData": "",
                    "decodedMethod": null,
                    "errorInfo": "",
                    "fromAddress": "",
                    "gasUsed": 0,
                    "id": -1,
                    "methodDecoded": false,
                    "operation": "",
                    "output": "",
                    "revert": false,
                    "revertMessage": "",
                    "selector": "",
                    "status": false,
                    "value": ""
                },
                "nodeType": 0
            },
            "0": {
                "invocation": {
                    "address": "0xda605fd5e003e6de0f33f6474080623fa6483e3e",
                    "callData": "0x0000000000000000000000003ad3ff7ef37ed7142df557e57dc2e4abe6c0c5c600000000000000000000000000000000000000000000000000000009fa7c1a49",
                    "decodedMethod": {
                        "callParams": [
                            {
                                "name": "_to",
                                "type": "address",
                                "value": "0x3ad3ff7ef37ed7142df557e57dc2e4abe6c0c5c6"
                            },
                            {
                                "decimalAvailable": true,
                                "name": "_value",
                                "type": "uint256",
                                "value": "42,857,142,857"
                            }
                        ],
                        "constructorArguments": "",
                        "name": "transfer",
                        "returnParams": [
                            {
                                "name": "success",
                                "type": "bool",
                                "value": true
                            }
                        ],
                        "signature": "transfer(address,uint256)"
                    },
                    "errorInfo": "",
                    "fromAddress": "0xe3dfebb362d418b9787b8f85373adff7565085d3",
                    "gasUsed": 51709,
                    "id": 0,
                    "methodDecoded": true,
                    "operation": "CALL",
                    "output": "0x0000000000000000000000000000000000000000000000000000000000000001",
                    "revert": false,
                    "revertMessage": "",
                    "selector": "0xa9059cbb",
                    "status": true,
                    "value": "0"
                },
                "nodeType": 0
            },
            "1": {
                "event": {
                    "contract": "0xda605fd5e003e6de0f33f6474080623fa6483e3e",
                    "decodedLog": {
                        "name": "Transfer",
                        "params": [
                            {
                                "name": "_from",
                                "type": "address",
                                "value": "0xe3dfebb362d418b9787b8f85373adff7565085d3"
                            },
                            {
                                "name": "_to",
                                "type": "address",
                                "value": "0x3ad3ff7ef37ed7142df557e57dc2e4abe6c0c5c6"
                            },
                            {
                                "decimalAvailable": true,
                                "name": "_value",
                                "type": "uint256",
                                "value": "42,857,142,857"
                            }
                        ],
                        "signature": "Transfer(address,address,uint256)"
                    },
                    "id": 1,
                    "logData": "0x00000000000000000000000000000000000000000000000000000009fa7c1a49",
                    "logDecoded": true,
                    "operation": "EVENT",
                    "revert": false,
                    "status": true,
                    "topics": [
                        "0xddf252ad1be2c89b69c2b068fc378daa952ba7f163c4a11628f55a4df523b3ef",
                        "0x000000000000000000000000e3dfebb362d418b9787b8f85373adff7565085d3",
                        "0x0000000000000000000000003ad3ff7ef37ed7142df557e57dc2e4abe6c0c5c6"
                    ]
                },
                "nodeType": 1
            }
        },
        "gasFlame": [
            {
                "children": [
                    {
                        "children": [
                            {
                                "children": [],
                                "depth": 0,
                                "name": "Initial Gas",
                                "value": 21620
                            },
                            {
                                "children": [],
                                "depth": 0,
                                "name": "Executed Gas",
                                "value": 30089
                            }
                        ],
                        "depth": -1,
                        "name": "Actual Gas Used",
                        "value": 51709
                    },
                    {
                        "children": [],
                        "depth": -1,
                        "name": "Refunded Gas",
                        "value": 0
                    }
                ],
                "depth": -2,
                "name": "Total Gas",
                "value": 51709
            }
        ],
        "isConfirmed": true,
        "mainTrace": [
            {
                "children": [
                    {
                        "children": [
                            {
                                "children": [],
                                "depth": 1,
                                "id": 1,
                                "order": 1
                            }
                        ],
                        "depth": 0,
                        "id": 0,
                        "order": 0
                    }
                ],
                "depth": -1,
                "id": -1,
                "order": -1
            }
        ],
        "mainTraceNodeCount": 2,
        "parentIdMap": {
            "0": -1,
            "1": 0
        },
        "tidyTrace": [
            {
                "children": [
                    {
                        "children": [
                            {
                                "children": [],
                                "depth": 1,
                                "id": 1,
                                "order": 1
                            }
                        ],
                        "depth": 0,
                        "id": 0,
                        "order": 0
                    }
                ],
                "depth": -1,
                "id": -1,
                "order": -1
            }
        ],
        "tidyTraceNodeCount": 2
    },
    "state_change": {
        "stateChanges": [
            {
                "address": "0xda605fd5e003e6de0f33f6474080623fa6483e3e",
                "erc": "ERC-20",
                "slots": [
                    {
                        "current": "0x0000000000000000000000000000000000000000000000000000025975b57e11",
                        "key": "0x79f554057263fc11dca2c96d419ae7bd34a31e70eaf841a3358c4ec04be35f2a",
                        "prev": "0x000000000000000000000000000000000000000000000000000002637031985a"
                    },
                    {
                        "current": "0x00000000000000000000000000000000000000000000000000000009fa7c1a49",
                        "key": "0xf76741b948395930ebc6bc10bc1ba8f623052fe327d854904910c06633fbb540",
                        "prev": "0x0000000000000000000000000000000000000000000000000000000000000000"
                    }
                ],
                "storageVariables": []
            }
        ]
    }
}