{
    "balance_change": {
        "balanceChanges": [
            {
                "account": "0x412e5b8c02f86b9b2a18a4af639b06c72a100e54",
                "assets": [
                    {
                        "address": "0xdac17f958d2ee523a2206206994597c13d831ec7",
                        "amount": "427.308723",
                        "iconUrl": "https://assets.blocksec.com/icon/fcea71f3193ce895be44bfdf941f7e4c9381dd587f273c2d1a27f1263d84e4ea.png",
                        "isERC1155": false,
                        "isERC721": false,
                        "sign": false,
                        "value": "427.308723"
                    }
                ]
            },
            {
                "account": "0x0d0707963952f2fba59dd06f2b425ace40b492fe",
                "assets": [
                    {
                        "address": "0xdac17f958d2ee523a2206206994597c13d831ec7",
                        "amount": "427.308723",
                        "iconUrl": "https://assets.blocksec.com/icon/fcea71f3193ce895be44bfdf941f7e4c9381dd587f273c2d1a27f1263d84e4ea.png",
                        "isERC1155": false,
                        "isERC721": false,
                        "sign": true,
                        "value": "427.308723"
                    }
                ]
            }
        ]
    },
    "profile": {
        "basic_info": {
            "baseFee": "17.525599044",
            "blockNumber": 19642562,
            "callData": "0xa9059cbb0000000000000000000000000d0707963952f2fba59dd06f2b425ace40b492fe00000000000000000000000000000000000000000000000000000000197836b3",
            "debugEnable": true,
            "errorInfo": "",
            "eventCount": 1,
            "feeRecipient": "0x95222290dd7278aa3ddd389cc1e1d165cc4bafe5",
            "formatValue": "0",
            "gasLimit": 62321,
            "gasPrice": "19.025599044",
            "gasUsed": 41309,
            "intTxnCount": 0,
            "internalRevert": false,
            "internalRevertMessage": "",
            "isContractCreation": false,
            "isFlashloan": false,
            "maxFee": "25.193200839",
            "nonce": 0,
            "overwritedBlockNumber": -1,
            "priorityFee": "1.5",
            "receiver": "0xdac17f958d2ee523a2206206994597c13d831ec7",
            "revertMessage": "",
            "sender": "0x412e5b8c02f86b9b2a18a4af639b06c72a100e54",
            "simulationEnable": true,
            "sourceTxnHash": "0xb3c6bc2ccb687504a6ad3ee3eb7170a4420a10524851a1bf39f79a5ea65ecccd",
            "status": true,
            "timestamp": "2024-04-12T22:41:23Z",
            "transactionFee": "0.000785928470908596",
            "txnHash": "0xb3c6bc2ccb687504a6ad3ee3eb7170a4420a10524851a1bf39f79a5ea65ecccd",
            "txnIndex": 58,
            "type": 2,
            "value": "0"
        },
        "fund_flow": [
            {
                "amount": "427.308723",
                "from": "0x412e5b8c02f86b9b2a18a4af639b06c72a100e54",
                "id": 1,
                "isERC1155": false,
                "isERC721": false,
                "isReverted": false,
                "order": 1,
                "to": "0x0d0707963952f2fba59dd06f2b425ace40b492fe",
                "token": "0xdac17f958d2ee523a2206206994597c13d831ec7"
            }
        ],
        "token_infos": [
            {
                "address": "0xc02aaa39b223fe8d0a0e5c4f27ead9083c756cc2",
                "decimals": 18
            },
            {
                "address": "0xdac17f958d2ee523a2206206994597c13d831ec7",
                "decimals": 6
            },
            {
                "address": "0xeeeeeeeeeeeeeeeeeeeeeeeeeeeeeeeeeeeeeeee",
                "decimals": 18
            }
        ]
    },
    "address_label": {
        "labels": [
            {
                "address": "0x0000000000000000000000000000000000000001",
                "label": "Precompiled"
            },
            {
                "address": "0x0000000000000000000000000000000000000002",
                "label": "Precompiled"
            },
            {
                "address": "0x0000000000000000000000000000000000000003",
                "label": "Precompiled"
            },
            {
                "address": "0x0000000000000000000000000000000000000004",
                "label": "Precompiled"
            },
            {
                "address": "0xeeeeeeeeeeeeeeeeeeeeeeeeeeeeeeeeeeeeeeee",
                "label": "Ether"
            },
            {
                "address": "0x0d0707963952f2fba59dd06f2b425ace40b492fe",
                "label": "Gate.io"
            },
            {
                "address": "0xdac17f958d2ee523a2206206994597c13d831ec7",
                "label": "Tether: USDT Stablecoin"
            }
        ]
    },
    "trace": {
        "accountLabels": null,
        "dataMap": {
            "-1": {
                "invocation": {
                    "address": "0x412e5b8c02f86b9b2a18a4af639b06c72a100e54",
                    "callData": "",
                    "decodedMethod": null,
                    "errorInfo": "",
                    "fromAddress": "",
                    "gasUsed": 0,
                    "id": -1,
                    "methodDecoded": false,
                    "operation": "",
                    "output": "",
                    "revert": false,
                    "revertMessage": "",
                    "selector": "",
                    "status": false,
                    "value": ""
                },
                "nodeType": 0
            },
            "0": {
                "invocation": {
                    "address": "0xdac17f958d2ee523a2206206994597c13d831ec7",
                    "callData": "0x0000000000000000000000000d0707963952f2fba59dd06f2b425ace40b492fe00000000000000000000000000000000000000000000000000000000197836b3",
                    "decodedMethod": {
                        "callParams": [
                            {
                                "name": "_to",
                                "type": "address",
                                "value": "0x0d0707963952f2fba59dd06f2b425ace40b492fe"
                            },
                            {
                                "decimalAvailable": true,
                                "name": "_value",
                                "type": "uint256",
                                "value": "427,308,723"
                            }
                        ],
                        "constructorArguments": "",
                        "name": "transfer",
                        "returnParams": [],
                        "signature": "transfer(address,uint256)"
                    },
                    "errorInfo": "",
                    "fromAddress": "0x412e5b8c02f86b9b2a18a4af639b06c72a100e54",
                    "gasUsed": 41309,
                    "id": 0,
                    "methodDecoded": true,
                    "operation": "CALL",
                    "output": "",
                    "revert": false,
                    "revertMessage": "",
                    "selector": "0xa9059cbb",
                    "status": true,
                    "value": "0"
                },
                "nodeType": 0
            },
            "1": {
                "event": {
                    "contract": "0xdac17f958d2ee523a2206206994597c13d831ec7",
                    "decodedLog": {
                        "name": "Transfer",
                        "params": [
                            {
                                "name": "from",
                                "type": "address",
                                "value": "0x412e5b8c02f86b9b2a18a4af639b06c72a100e54"
                            },
                            {
                                "name": "to",
                                "type": "address",
                                "value": "0x0d0707963952f2fba59dd06f2b425ace40b492fe"
                            },
                            {
                                "decimalAvailable": true,
                                "name": "value",
                                "type": "uint256",
                                "value": "427,308,723"
                            }
                        ],
                        "signature": "Transfer(address,address,uint256)"
                    },
                    "id": 1,
                    "logData": "0x00000000000000000000000000000000000000000000000000000000197836b3",
                    "logDecoded": true,
                    "operation": "EVENT",
                    "revert": false,
                    "status": true,
                    "topics": [
                        "0xddf252ad1be2c89b69c2b068fc378daa952ba7f163c4a11628f55a4df523b3ef",
                        "0x000000000000000000000000412e5b8c02f86b9b2a18a4af639b06c72a100e54",
                        "0x0000000000000000000000000d0707963952f2fba59dd06f2b425ace40b492fe"
                    ]
                },
                "nodeType": 1
            }
        },
        "gasFlame": [
            {
                "children": [
                    {
                        "children": [
                            {
                                "children": [],
                                "depth": 0,
                                "name": "Initial Gas",
                                "value": 21608
                            },
                            {
                                "children": [],
                                "depth": 0,
                                "name": "Executed Gas",
                                "value": 24501
                            }
                        ],
                        "depth": -1,
                        "name": "Actual Gas Used",
                        "value": 41309
                    },
                    {
                        "children": [],
                        "depth": -1,
                        "name": "Refunded Gas",
                        "value": 4800
                    }
                ],
                "depth": -2,
                "name": "Total Gas",
                "value": 46109
            }
        ],
        "isConfirmed": true,
        "mainTrace": [
            {
                "children": [
                    {
                        "children": [
                            {
                                "children": [],
                                "depth": 1,
                                "id": 1,
                                "order": 1
                            }
                        ],
                        "depth": 0,
                        "id": 0,
                        "order": 0
                    }
                ],
                "depth": -1,
                "id": -1,
                "order": -1
            }
        ],
        "mainTraceNodeCount": 2,
        "parentIdMap": {
            "0": -1,
            "1": 0
        },
        "tidyTrace": [
            {
                "children": [
                    {
                        "children": [
                            {
                                "children": [],
                                "depth": 1,
                                "id": 1,
                                "order": 1
                            }
                        ],
                        "depth": 0,
                        "id": 0,
                        "order": 0
                    }
                ],
                "depth": -1,
                "id": -1,
                "order": -1
            }
        ],
        "tidyTraceNodeCount": 2
    },
    "state_change": {
        "stateChanges": [
            {
                "address": "0xdac17f958d2ee523a2206206994597c13d831ec7",
                "erc": "ERC-20",
                "slots": [
                    {
                        "current": "0x0000000000000000000000000000000000000000000000000000000000000000",
                        "key": "0x3a7749c06f2cf0f6ec1f2944707fadee2a1a4da65daf80abfa6c9740033d3da9",
                        "prev": "0x00000000000000000000000000000000000000000000000000000000197836b3"
                    },
                    {
                        "current": "0x000000000000000000000000000000000000000000000000000018d2108aecc1",
                        "key": "0x67376c8e9d774341c054e74367f227a86816ea930b1c3e9811eb20f762da1bd0",
                        "prev": "0x000000000000000000000000000000000000000000000000000018d1f712b60e"
                    }
                ],
                "storageVariables": [
                    {
                        "name": "balances",
                        "type": "mapping(address => uint256)",
                        "value": {
                            "pairs": [
                                {
                                    "key": "0x0d0707963952f2fba59dd06f2b425ace40b492fe",
                                    "value": {
                                        "current": "27290499738817",
                                        "prev": "27290072430094",
                                        "typeTag": 1
                                    }
                                },
                                {
                                    "key": "0x412e5b8c02f86b9b2a18a4af639b06c72a100e54",
                                    "value": {
                                        "current": "0",
                                        "prev": "427308723",
                                        "typeTag": 1
                                    }
                                }
                            ],
                            "typeTag": 4
                        }
                    }
                ]
            }
        ]
    }
}