{
    "balance_change": {
        "balanceChanges": [
            {
                "account": "0x6d02ce0cd50bff383035e1de5c8b2235fb22e4e8",
                "assets": [
                    {
                        "address": "0x282bdd42f4eb70e7a9d9f40c8fea0825b7f68c5d",
                        "amount": "1",
                        "iconUrl": "https://assets.blocksec.com/nft/icon/nft_a65f3346-9a9b-4719-a7fa-944e4f6e4071.png",
                        "isERC1155": false,
                        "isERC721": true,
                        "sign": false,
                        "tokenID": "1512",
                        "value": ""
                    },
                    {
                        "address": "0x0000000000a39bb272e79075ade125fd351887ac",
                        "amount": "3.19",
                        "iconUrl": "",
                        "isERC1155": false,
                        "isERC721": false,
                        "sign": true,
                        "value": ""
                    }
                ]
            },
            {
                "account": "0x80af642e4c1e48a62fadf20dfe56b6c704c145de",
                "assets": [
                    {
                        "address": "0x282bdd42f4eb70e7a9d9f40c8fea0825b7f68c5d",
                        "amount": "1",
                        "iconUrl": "https://assets.blocksec.com/nft/icon/nft_a65f3346-9a9b-4719-a7fa-944e4f6e4071.png",
                        "isERC1155": false,
                        "isERC721": true,
                        "sign": true,
                        "tokenID": "1512",
                        "value": ""
                    },
                    {
                        "address": "0x0000000000a39bb272e79075ade125fd351887ac",
                        "amount": "3.19",
                        "iconUrl": "",
                        "isERC1155": false,
                        "isERC721": false,
                        "sign": false,
                        "value": ""
                    }
                ]
            }
        ]
    },
    "profile": {
        "basic_info": {
            "baseFee": "25.142839007",
            "blockNumber": 19163203,
            "callData": "0xda815cb50000000000000000000000000000000000000000000000000000000000000040000000000000000000000000000000000000000000000000000000000000038000000000000000000000000080af642e4c1e48a62fadf20dfe56b6c704c145de000000000000000000000000282bdd42f4eb70e7a9d9f40c8fea0825b7f68c5d9883076e95815bb304ccf57ebbd3f39366cfde40051e1ed033eef78faecede2200000000000000000000000000000000000000000000000000000000000000010000000000000000000000000000000000000000000000000000000067a23d9d0000000000000000000000000000000000000000000000000000000000000000000000000000000000000000000000000000000000000000000000000000000000000000000000000000000000000000000000000000000000000000000000000000000000000000000000000000000036e42c559649954925c546a64ba5534c00000000000000000000000000000000000000000000000000000000000001a00000000000000000000000000000000000000000000000000000000000000000000000000000000000000000000000000000000000000000000000000000000000000000000000000000000000000000000000000000000000000000000002c0000000000000000000000000000000000000000000000000000000000000000000000000000000000000000000000000000000000000000000000000000001000000000000000000000000000000000000000000000000000000000000000000000000000000000000000000000000000000000000000000000000000000000000000000000000000000000000000000000000000000000000000000000000010000000000000000000000000000000000000000000000002c452819417f000000000000000000000000000000000000000000000000000000000000000005e80000000000000000000000000000000000000000000000000000000000000001000000000000000000000000000000000000000000000000000000000000000000000000000000000000000000000000000000000000000000000000000000419c1010d15d672042faaf8701f8c9723b876a4a697bae463001fae0924dd6966d0263484039385dc9847865244f701c717bcff45883272c98e6fa06bad86a5eef1c00000000000000000000000000000000000000000000000000000000000000000000000000000000000000000000000000000000000000000000000000005961aef33550e49f3132b928a9fc0582de404c2b52fc3f1cc91bfb923248b53dc6595c82f20d22ceb644bb3ba646cc88d0bdda56145583e2cdc5485f03bdaae52d1b012468406af68e5d010513ff70a3aaed9afeb8661116e6ce00000000000000",
            "debugEnable": true,
            "errorInfo": "",
            "eventCount": 4,
            "feeRecipient": "0x95222290dd7278aa3ddd389cc1e1d165cc4bafe5",
            "formatValue": "0",
            "gasLimit": 163644,
            "gasPrice": "25.177855249",
            "gasUsed": 152156,
            "intTxnCount": 7,
            "internalRevert": false,
            "internalRevertMessage": "",
            "isContractCreation": false,
            "isFlashloan": false,
            "maxFee": "33.159430047",
            "nonce": 3276,
            "overwritedBlockNumber": -1,
            "priorityFee": "0.035016242",
            "receiver": "0xb2ecfe4e4d61f8790bbb9de2d1259b9e2410cea5",
            "revertMessage": "",
            "sender": "0x6d02ce0cd50bff383035e1de5c8b2235fb22e4e8",
            "simulationEnable": true,
            "sourceTxnHash": "0xb3df13cbc352d1c9029f175694129df23ce7ce1022ee27d4e4cefeb62929de18",
            "status": true,
            "timestamp": "2024-02-05T16:17:59Z",
            "transactionFee": "0.003830961743266844",
            "txnHash": "0xb3df13cbc352d1c9029f175694129df23ce7ce1022ee27d4e4cefeb62929de18",
            "txnIndex": 114,
            "type": 2,
            "value": "0"
        },
        "fund_flow": [
            {
                "amount": "1",
                "from": "0x6d02ce0cd50bff383035e1de5c8b2235fb22e4e8",
                "id": 1,
                "isERC1155": false,
                "isERC721": true,
                "isReverted": false,
                "order": 1,
                "to": "0x80af642e4c1e48a62fadf20dfe56b6c704c145de",
                "token": "0x282bdd42f4eb70e7a9d9f40c8fea0825b7f68c5d",
                "tokenID": "1512"
            },
            {
                "amount": "3.19",
                "from": "0x80af642e4c1e48a62fadf20dfe56b6c704c145de",
                "id": 2,
                "isERC1155": false,
                "isERC721": false,
                "isReverted": false,
                "order": 2,
                "to": "0x6d02ce0cd50bff383035e1de5c8b2235fb22e4e8",
                "token": "0x0000000000a39bb272e79075ade125fd351887ac"
            }
        ],
        "token_infos": [
            {
                "address": "0x0000000000a39bb272e79075ade125fd351887ac",
                "decimals": 18
            },
            {
                "address": "0xc02aaa39b223fe8d0a0e5c4f27ead9083c756cc2",
                "decimals": 18
            },
            {
                "address": "0xeeeeeeeeeeeeeeeeeeeeeeeeeeeeeeeeeeeeeeee",
                "decimals": 18
            }
        ]
    },
    "address_label": {
        "labels": [
            {
                "address": "0x01a656024de4b89e2d0198bf4d468e8fd2358b17",
                "label": "Blur Pool"
            },
            {
                "address": "0x0000000000000000000000000000000000000001",
                "label": "Precompiled"
            },
            {
                "address": "0x0000000000000000000000000000000000000002",
                "label": "Precompiled"
            },
            {
                "address": "0x0000000000000000000000000000000000000004",
                "label": "Precompiled"
            },
            {
                "address": "0xb2ecfe4e4d61f8790bbb9de2d1259b9e2410cea5",
                "label": "Blur.io: Marketplace 3"
            },
            {
                "address": "0x282bdd42f4eb70e7a9d9f40c8fea0825b7f68c5d",
                "label": "V1 Cryptopunks (Wrapped): WPV1 Token"
            },
            {
                "address": "0x2f18f339620a63e43f0839eeb18d7de1e1be4dfb",
                "label": "Delegate"
            },
            {
                "address": "0x0000000000a39bb272e79075ade125fd351887ac",
                "label": "Blur: Bidding"
            },
            {
                "address": "0x0000000000000000000000000000000000000003",
                "label": "Precompiled"
            },
            {
                "address": "0xeeeeeeeeeeeeeeeeeeeeeeeeeeeeeeeeeeeeeeee",
                "label": "Ether"
            },
            {
                "address": "0x5fa60726e62c50af45ff2f6280c468da438a7837",
                "label": "BlurExchangeV2"
            },
            {
                "address": "0x0000000000000000000000000000000000000000",
                "label": "Null Address"
            }
        ]
    },
    "trace": {
        "accountLabels": null,
        "dataMap": {
            "-1": {
                "invocation": {
                    "address": "0x6d02ce0cd50bff383035e1de5c8b2235fb22e4e8",
                    "callData": "",
                    "decodedMethod": null,
                    "errorInfo": "",
                    "fromAddress": "",
                    "gasUsed": 0,
                    "id": -1,
                    "methodDecoded": false,
                    "operation": "",
                    "output": "",
                    "revert": false,
                    "revertMessage": "",
                    "selector": "",
                    "status": false,
                    "value": ""
                },
                "nodeType": 0
            },
            "0": {
                "invocation": {
                    "address": "0xb2ecfe4e4d61f8790bbb9de2d1259b9e2410cea5",
                    "callData": "0x0000000000000000000000000000000000000000000000000000000000000040000000000000000000000000000000000000000000000000000000000000038000000000000000000000000080af642e4c1e48a62fadf20dfe56b6c704c145de000000000000000000000000282bdd42f4eb70e7a9d9f40c8fea0825b7f68c5d9883076e95815bb304ccf57ebbd3f39366cfde40051e1ed033eef78faecede2200000000000000000000000000000000000000000000000000000000000000010000000000000000000000000000000000000000000000000000000067a23d9d0000000000000000000000000000000000000000000000000000000000000000000000000000000000000000000000000000000000000000000000000000000000000000000000000000000000000000000000000000000000000000000000000000000000000000000000000000000036e42c559649954925c546a64ba5534c00000000000000000000000000000000000000000000000000000000000001a00000000000000000000000000000000000000000000000000000000000000000000000000000000000000000000000000000000000000000000000000000000000000000000000000000000000000000000000000000000000000000000002c0000000000000000000000000000000000000000000000000000000000000000000000000000000000000000000000000000000000000000000000000000001000000000000000000000000000000000000000000000000000000000000000000000000000000000000000000000000000000000000000000000000000000000000000000000000000000000000000000000000000000000000000000000000010000000000000000000000000000000000000000000000002c452819417f000000000000000000000000000000000000000000000000000000000000000005e80000000000000000000000000000000000000000000000000000000000000001000000000000000000000000000000000000000000000000000000000000000000000000000000000000000000000000000000000000000000000000000000419c1010d15d672042faaf8701f8c9723b876a4a697bae463001fae0924dd6966d0263484039385dc9847865244f701c717bcff45883272c98e6fa06bad86a5eef1c00000000000000000000000000000000000000000000000000000000000000000000000000000000000000000000000000000000000000000000000000005961aef33550e49f3132b928a9fc0582de404c2b52fc3f1cc91bfb923248b53dc6595c82f20d22ceb644bb3ba646cc88d0bdda56145583e2cdc5485f03bdaae52d1b012468406af68e5d010513ff70a3aaed9afeb8661116e6ce00000000000000",
                    "decodedMethod": {
                        "callParams": [
                            {
                                "name": "inputs",
                                "type": "((address,address,bytes32,uint256,uint256,uint8,(address,uint16),uint256),(uint256,bytes32[],(uint256,uint256,uint256,uint256),(uint256,uint256)),(address,uint16),bytes)",
                                "value": [
                                    {
                                        "name": "order",
                                        "type": "(address,address,bytes32,uint256,uint256,uint8,(address,uint16),uint256)",
                                        "value": [
                                            {
                                                "name": "trader",
                                                "type": "address",
                                                "value": "0x80af642e4c1e48a62fadf20dfe56b6c704c145de"
                                            },
                                            {
                                                "name": "collection",
                                                "type": "address",
                                                "value": "0x282bdd42f4eb70e7a9d9f40c8fea0825b7f68c5d"
                                            },
                                            {
                                                "name": "listingsRoot",
                                                "type": "bytes32",
                                                "value": "0x9883076e95815bb304ccf57ebbd3f39366cfde40051e1ed033eef78faecede22"
                                            },
                                            {
                                                "name": "numberOfListings",
                                                "type": "uint256",
                                                "value": "1"
                                            },
                                            {
                                                "name": "expirationTime",
                                                "type": "uint256",
                                                "value": "1,738,685,853"
                                            },
                                            {
                                                "name": "assetType",
                                                "type": "uint8",
                                                "value": "0"
                                            },
                                            {
                                                "name": "makerFee",
                                                "type": "(address,uint16)",
                                                "value": [
                                                    {
                                                        "name": "recipient",
                                                        "type": "address",
                                                        "value": "0x0000000000000000000000000000000000000000"
                                                    },
                                                    {
                                                        "name": "rate",
                                                        "type": "uint16",
                                                        "value": "0"
                                                    }
                                                ]
                                            },
                                            {
                                                "name": "salt",
                                                "type": "uint256",
                                                "value": "72,963,054,663,059,480,262,051,435,974,760,944,460"
                                            }
                                        ]
                                    },
                                    {
                                        "name": "exchange",
                                        "type": "(uint256,bytes32[],(uint256,uint256,uint256,uint256),(uint256,uint256))",
                                        "value": [
                                            {
                                                "name": "index",
                                                "type": "uint256",
                                                "value": "0"
                                            },
                                            {
                                                "name": "proof",
                                                "type": "bytes32[]",
                                                "value": []
                                            },
                                            {
                                                "name": "listing",
                                                "type": "(uint256,uint256,uint256,uint256)",
                                                "value": [
                                                    {
                                                        "name": "index",
                                                        "type": "uint256",
                                                        "value": "0"
                                                    },
                                                    {
                                                        "name": "tokenId",
                                                        "type": "uint256",
                                                        "value": "0"
                                                    },
                                                    {
                                                        "name": "amount",
                                                        "type": "uint256",
                                                        "value": "1"
                                                    },
                                                    {
                                                        "name": "price",
                                                        "type": "uint256",
                                                        "value": "3,190,000,000,000,000,000"
                                                    }
                                                ]
                                            },
                                            {
                                                "name": "taker",
                                                "type": "(uint256,uint256)",
                                                "value": [
                                                    {
                                                        "name": "tokenId",
                                                        "type": "uint256",
                                                        "value": "1,512"
                                                    },
                                                    {
                                                        "name": "amount",
                                                        "type": "uint256",
                                                        "value": "1"
                                                    }
                                                ]
                                            }
                                        ]
                                    },
                                    {
                                        "name": "takerFee",
                                        "type": "(address,uint16)",
                                        "value": [
                                            {
                                                "name": "recipient",
                                                "type": "address",
                                                "value": "0x0000000000000000000000000000000000000000"
                                            },
                                            {
                                                "name": "rate",
                                                "type": "uint16",
                                                "value": "0"
                                            }
                                        ]
                                    },
                                    {
                                        "name": "signature",
                                        "type": "bytes",
                                        "value": "0x9c1010d15d672042faaf8701f8c9723b876a4a697bae463001fae0924dd6966d0263484039385dc9847865244f701c717bcff45883272c98e6fa06bad86a5eef1c"
                                    }
                                ]
                            },
                            {
                                "name": "oracleSignature",
                                "type": "bytes",
                                "value": "0x61aef33550e49f3132b928a9fc0582de404c2b52fc3f1cc91bfb923248b53dc6595c82f20d22ceb644bb3ba646cc88d0bdda56145583e2cdc5485f03bdaae52d1b012468406af68e5d010513ff70a3aaed9afeb8661116e6ce"
                            }
                        ],
                        "constructorArguments": "",
                        "name": "takeBidSingle",
                        "returnParams": [],
                        "signature": "takeBidSingle(((address,address,bytes32,uint256,uint256,uint8,(address,uint16),uint256),(uint256,bytes32[],(uint256,uint256,uint256,uint256),(uint256,uint256)),(address,uint16),bytes),bytes)"
                    },
                    "errorInfo": "",
                    "fromAddress": "0x6d02ce0cd50bff383035e1de5c8b2235fb22e4e8",
                    "gasUsed": 152156,
                    "id": 0,
                    "methodDecoded": true,
                    "operation": "CALL",
                    "output": "",
                    "revert": false,
                    "revertMessage": "",
                    "selector": "0xda815cb5",
                    "status": true,
                    "value": "0"
                },
                "nodeType": 0
            },
            "1": {
                "invocation": {
                    "address": "0x5fa60726e62c50af45ff2f6280c468da438a7837",
                    "callData": "0x0000000000000000000000000000000000000000000000000000000000000040000000000000000000000000000000000000000000000000000000000000038000000000000000000000000080af642e4c1e48a62fadf20dfe56b6c704c145de000000000000000000000000282bdd42f4eb70e7a9d9f40c8fea0825b7f68c5d9883076e95815bb304ccf57ebbd3f39366cfde40051e1ed033eef78faecede2200000000000000000000000000000000000000000000000000000000000000010000000000000000000000000000000000000000000000000000000067a23d9d0000000000000000000000000000000000000000000000000000000000000000000000000000000000000000000000000000000000000000000000000000000000000000000000000000000000000000000000000000000000000000000000000000000000000000000000000000000036e42c559649954925c546a64ba5534c00000000000000000000000000000000000000000000000000000000000001a00000000000000000000000000000000000000000000000000000000000000000000000000000000000000000000000000000000000000000000000000000000000000000000000000000000000000000000000000000000000000000000002c0000000000000000000000000000000000000000000000000000000000000000000000000000000000000000000000000000000000000000000000000000001000000000000000000000000000000000000000000000000000000000000000000000000000000000000000000000000000000000000000000000000000000000000000000000000000000000000000000000000000000000000000000000000010000000000000000000000000000000000000000000000002c452819417f000000000000000000000000000000000000000000000000000000000000000005e80000000000000000000000000000000000000000000000000000000000000001000000000000000000000000000000000000000000000000000000000000000000000000000000000000000000000000000000000000000000000000000000419c1010d15d672042faaf8701f8c9723b876a4a697bae463001fae0924dd6966d0263484039385dc9847865244f701c717bcff45883272c98e6fa06bad86a5eef1c00000000000000000000000000000000000000000000000000000000000000000000000000000000000000000000000000000000000000000000000000005961aef33550e49f3132b928a9fc0582de404c2b52fc3f1cc91bfb923248b53dc6595c82f20d22ceb644bb3ba646cc88d0bdda56145583e2cdc5485f03bdaae52d1b012468406af68e5d010513ff70a3aaed9afeb8661116e6ce00000000000000",
                    "decodedMethod": {
                        "callParams": [
                            {
                                "name": "inputs",
                                "type": "((address,address,bytes32,uint256,uint256,uint8,(address,uint16),uint256),(uint256,bytes32[],(uint256,uint256,uint256,uint256),(uint256,uint256)),(address,uint16),bytes)",
                                "value": [
                                    {
                                        "name": "order",
                                        "type": "(address,address,bytes32,uint256,uint256,uint8,(address,uint16),uint256)",
                                        "value": [
                                            {
                                                "name": "trader",
                                                "type": "address",
                                                "value": "0x80af642e4c1e48a62fadf20dfe56b6c704c145de"
                                            },
                                            {
                                                "name": "collection",
                                                "type": "address",
                                                "value": "0x282bdd42f4eb70e7a9d9f40c8fea0825b7f68c5d"
                                            },
                                            {
                                                "name": "listingsRoot",
                                                "type": "bytes32",
                                                "value": "0x9883076e95815bb304ccf57ebbd3f39366cfde40051e1ed033eef78faecede22"
                                            },
                                            {
                                                "name": "numberOfListings",
                                                "type": "uint256",
                                                "value": "1"
                                            },
                                            {
                                                "name": "expirationTime",
                                                "type": "uint256",
                                                "value": "1,738,685,853"
                                            },
                                            {
                                                "name": "assetType",
                                                "type": "uint8",
                                                "value": "0"
                                            },
                                            {
                                                "name": "makerFee",
                                                "type": "(address,uint16)",
                                                "value": [
                                                    {
                                                        "name": "recipient",
                                                        "type": "address",
                                                        "value": "0x0000000000000000000000000000000000000000"
                                                    },
                                                    {
                                                        "name": "rate",
                                                        "type": "uint16",
                                                        "value": "0"
                                                    }
                                                ]
                                            },
                                            {
                                                "name": "salt",
                                                "type": "uint256",
                                                "value": "72,963,054,663,059,480,262,051,435,974,760,944,460"
                                            }
                                        ]
                                    },
                                    {
                                        "name": "exchange",
                                        "type": "(uint256,bytes32[],(uint256,uint256,uint256,uint256),(uint256,uint256))",
                                        "value": [
                                            {
                                                "name": "index",
                                                "type": "uint256",
                                                "value": "0"
                                            },
                                            {
                                                "name": "proof",
                                                "type": "bytes32[]",
                                                "value": []
                                            },
                                            {
                                                "name": "listing",
                                                "type": "(uint256,uint256,uint256,uint256)",
                                                "value": [
                                                    {
                                                        "name": "index",
                                                        "type": "uint256",
                                                        "value": "0"
                                                    },
                                                    {
                                                        "name": "tokenId",
                                                        "type": "uint256",
                                                        "value": "0"
                                                    },
                                                    {
                                                        "name": "amount",
                                                        "type": "uint256",
                                                        "value": "1"
                                                    },
                                                    {
                                                        "name": "price",
                                                        "type": "uint256",
                                                        "value": "3,190,000,000,000,000,000"
                                                    }
                                                ]
                                            },
                                            {
                                                "name": "taker",
                                                "type": "(uint256,uint256)",
                                                "value": [
                                                    {
                                                        "name": "tokenId",
                                                        "type": "uint256",
                                                        "value": "1,512"
                                                    },
                                                    {
                                                        "name": "amount",
                                                        "type": "uint256",
                                                        "value": "1"
                                                    }
                                                ]
                                            }
                                        ]
                                    },
                                    {
                                        "name": "takerFee",
                                        "type": "(address,uint16)",
                                        "value": [
                                            {
                                                "name": "recipient",
                                                "type": "address",
                                                "value": "0x0000000000000000000000000000000000000000"
                                            },
                                            {
                                                "name": "rate",
                                                "type": "uint16",
                                                "value": "0"
                                            }
                                        ]
                                    },
                                    {
                                        "name": "signature",
                                        "type": "bytes",
                                        "value": "0x9c1010d15d672042faaf8701f8c9723b876a4a697bae463001fae0924dd6966d0263484039385dc9847865244f701c717bcff45883272c98e6fa06bad86a5eef1c"
                                    }
                                ]
                            },
                            {
                                "name": "oracleSignature",
                                "type": "bytes",
                                "value": "0x61aef33550e49f3132b928a9fc0582de404c2b52fc3f1cc91bfb923248b53dc6595c82f20d22ceb644bb3ba646cc88d0bdda56145583e2cdc5485f03bdaae52d1b012468406af68e5d010513ff70a3aaed9afeb8661116e6ce"
                            }
                        ],
                        "constructorArguments": "",
                        "name": "takeBidSingle",
                        "returnParams": [],
                        "signature": "takeBidSingle(((address,address,bytes32,uint256,uint256,uint8,(address,uint16),uint256),(uint256,bytes32[],(uint256,uint256,uint256,uint256),(uint256,uint256)),(address,uint16),bytes),bytes)"
                    },
                    "errorInfo": "",
                    "fromAddress": "0xb2ecfe4e4d61f8790bbb9de2d1259b9e2410cea5",
                    "gasUsed": 123524,
                    "id": 1,
                    "methodDecoded": true,
                    "operation": "DELEGATECALL",
                    "output": "",
                    "revert": false,
                    "revertMessage": "",
                    "selector": "0xda815cb5",
                    "status": true,
                    "value": "0"
                },
                "nodeType": 0
            },
            "10": {
                "event": {
                    "contract": "0x0000000000a39bb272e79075ade125fd351887ac",
                    "decodedLog": {
                        "name": "Transfer",
                        "params": [
                            {
                                "name": "from",
                                "type": "address",
                                "value": "0x80af642e4c1e48a62fadf20dfe56b6c704c145de"
                            },
                            {
                                "name": "to",
                                "type": "address",
                                "value": "0x6d02ce0cd50bff383035e1de5c8b2235fb22e4e8"
                            },
                            {
                                "decimalAvailable": true,
                                "name": "value",
                                "type": "uint256",
                                "value": "3,190,000,000,000,000,000"
                            }
                        ],
                        "signature": "Transfer(address,address,uint256)"
                    },
                    "id": 10,
                    "logData": "0x0000000000000000000000000000000000000000000000002c452819417f0000",
                    "logDecoded": true,
                    "operation": "EVENT",
                    "revert": false,
                    "status": true,
                    "topics": [
                        "0xddf252ad1be2c89b69c2b068fc378daa952ba7f163c4a11628f55a4df523b3ef",
                        "0x00000000000000000000000080af642e4c1e48a62fadf20dfe56b6c704c145de",
                        "0x0000000000000000000000006d02ce0cd50bff383035e1de5c8b2235fb22e4e8"
                    ]
                },
                "nodeType": 1
            },
            "11": {
                "event": {
                    "contract": "0xb2ecfe4e4d61f8790bbb9de2d1259b9e2410cea5",
                    "decodedLog": {
                        "name": "Execution721Packed",
                        "params": [
                            {
                                "name": "orderHash",
                                "type": "bytes32",
                                "value": "0x3474d49e0c4c924e4630a653b94e9251383431bc8b32e7f22c8412964e39a20e"
                            },
                            {
                                "name": "tokenIdListingIndexTrader",
                                "type": "uint256",
                                "value": "565,707,096,427,123,312,309,879,320,546,480,018,937,358,731,089,888,734"
                            },
                            {
                                "name": "collectionPriceSide",
                                "type": "uint256",
                                "value": "452,312,853,245,456,611,458,904,469,489,279,593,892,650,354,580,865,312,149,928,044,931,921,120,349"
                            }
                        ],
                        "signature": "Execution721Packed(bytes32,uint256,uint256)"
                    },
                    "id": 11,
                    "logData": "0x3474d49e0c4c924e4630a653b94e9251383431bc8b32e7f22c8412964e39a20e00000000000000000005e80080af642e4c1e48a62fadf20dfe56b6c704c145de010000002c452819417f0000282bdd42f4eb70e7a9d9f40c8fea0825b7f68c5d",
                    "logDecoded": true,
                    "operation": "EVENT",
                    "revert": false,
                    "status": true,
                    "topics": [
                        "0x1d5e12b51dee5e4d34434576c3fb99714a85f57b0fd546ada4b0bddd736d12b2"
                    ]
                },
                "nodeType": 1
            },
            "2": {
                "invocation": {
                    "address": "0x0000000000000000000000000000000000000001",
                    "callData": "0x1b995749ed92573949519a6ad192574a3ccb08a34da76ea21b81167f000000000000000000000000000000000000000000000000000000000000001b61aef33550e49f3132b928a9fc0582de404c2b52fc3f1cc91bfb923248b53dc6595c82f20d22ceb644bb3ba646cc88d0bdda56145583e2cdc5485f03bdaae52d",
                    "decodedMethod": {
                        "callParams": [
                            {
                                "name": "hash",
                                "type": "bytes32",
                                "value": "0x4c8f853d1b995749ed92573949519a6ad192574a3ccb08a34da76ea21b81167f"
                            },
                            {
                                "name": "v",
                                "type": "uint256",
                                "value": "27"
                            },
                            {
                                "name": "r",
                                "type": "bytes32",
                                "value": "0x61aef33550e49f3132b928a9fc0582de404c2b52fc3f1cc91bfb923248b53dc6"
                            },
                            {
                                "name": "s",
                                "type": "bytes32",
                                "value": "0x595c82f20d22ceb644bb3ba646cc88d0bdda56145583e2cdc5485f03bdaae52d"
                            }
                        ],
                        "constructorArguments": "",
                        "name": "ecrecover",
                        "returnParams": [
                            {
                                "name": "",
                                "type": "address",
                                "value": "0x6af68e5d010513ff70a3aaed9afeb8661116e6ce"
                            }
                        ],
                        "signature": "ecrecover(bytes32,uint256,bytes32,bytes32)"
                    },
                    "errorInfo": "",
                    "fromAddress": "0xb2ecfe4e4d61f8790bbb9de2d1259b9e2410cea5",
                    "gasUsed": 3000,
                    "id": 2,
                    "methodDecoded": true,
                    "operation": "STATICCALL",
                    "output": "0x0000000000000000000000006af68e5d010513ff70a3aaed9afeb8661116e6ce",
                    "revert": false,
                    "revertMessage": "",
                    "selector": "0x4c8f853d",
                    "status": true,
                    "value": "0"
                },
                "nodeType": 0
            },
            "3": {
                "invocation": {
                    "address": "0x0000000000000000000000000000000000000001",
                    "callData": "0x8058214dcdc10b4d885ff7d40d6fe3f96a555dba6eba8feaf6013d72000000000000000000000000000000000000000000000000000000000000001c9c1010d15d672042faaf8701f8c9723b876a4a697bae463001fae0924dd6966d0263484039385dc9847865244f701c717bcff45883272c98e6fa06bad86a5eef",
                    "decodedMethod": {
                        "callParams": [
                            {
                                "name": "hash",
                                "type": "bytes32",
                                "value": "0x8e849eae8058214dcdc10b4d885ff7d40d6fe3f96a555dba6eba8feaf6013d72"
                            },
                            {
                                "name": "v",
                                "type": "uint256",
                                "value": "28"
                            },
                            {
                                "name": "r",
                                "type": "bytes32",
                                "value": "0x9c1010d15d672042faaf8701f8c9723b876a4a697bae463001fae0924dd6966d"
                            },
                            {
                                "name": "s",
                                "type": "bytes32",
                                "value": "0x0263484039385dc9847865244f701c717bcff45883272c98e6fa06bad86a5eef"
                            }
                        ],
                        "constructorArguments": "",
                        "name": "ecrecover",
                        "returnParams": [
                            {
                                "name": "",
                                "type": "address",
                                "value": "0x80af642e4c1e48a62fadf20dfe56b6c704c145de"
                            }
                        ],
                        "signature": "ecrecover(bytes32,uint256,bytes32,bytes32)"
                    },
                    "errorInfo": "",
                    "fromAddress": "0xb2ecfe4e4d61f8790bbb9de2d1259b9e2410cea5",
                    "gasUsed": 3000,
                    "id": 3,
                    "methodDecoded": true,
                    "operation": "STATICCALL",
                    "output": "0x00000000000000000000000080af642e4c1e48a62fadf20dfe56b6c704c145de",
                    "revert": false,
                    "revertMessage": "",
                    "selector": "0x8e849eae",
                    "status": true,
                    "value": "0"
                },
                "nodeType": 0
            },
            "4": {
                "invocation": {
                    "address": "0x2f18f339620a63e43f0839eeb18d7de1e1be4dfb",
                    "callData": "0x0000000000000000000000006d02ce0cd50bff383035e1de5c8b2235fb22e4e8000000000000000000000000000000000000000000000000000000000000000100000000000000000000000000000000000000000000000000000000000000800000000000000000000000000000000000000000000000000000000000000001000000000000000000000000000000000000000000000000000000000000000100000000000000000000000080af642e4c1e48a62fadf20dfe56b6c704c145de00000000000000000000000000000000000000000000000000000000000005e80000000000000000000000000000000000000000000000000000000000000000000000000000000000000000282bdd42f4eb70e7a9d9f40c8fea0825b7f68c5d0000000000000000000000000000000000000000000000000000000000000000",
                    "decodedMethod": {
                        "callParams": [
                            {
                                "name": "taker",
                                "type": "address",
                                "value": "0x6d02ce0cd50bff383035e1de5c8b2235fb22e4e8"
                            },
                            {
                                "name": "orderType",
                                "type": "uint8",
                                "value": "1"
                            },
                            {
                                "name": "transfers",
                                "type": "(address,uint256,uint256,address,uint8)[]",
                                "value": [
                                    [
                                        {
                                            "name": "trader",
                                            "type": "address",
                                            "value": "0x80af642e4c1e48a62fadf20dfe56b6c704c145de"
                                        },
                                        {
                                            "name": "id",
                                            "type": "uint256",
                                            "value": "1,512"
                                        },
                                        {
                                            "name": "amount",
                                            "type": "uint256",
                                            "value": "0"
                                        },
                                        {
                                            "name": "collection",
                                            "type": "address",
                                            "value": "0x282bdd42f4eb70e7a9d9f40c8fea0825b7f68c5d"
                                        },
                                        {
                                            "name": "assetType",
                                            "type": "uint8",
                                            "value": "0"
                                        }
                                    ]
                                ]
                            },
                            {
                                "name": "length",
                                "type": "uint256",
                                "value": "1"
                            }
                        ],
                        "constructorArguments": "",
                        "name": "transfer",
                        "returnParams": [
                            {
                                "name": "successful",
                                "type": "bool[]",
                                "value": [
                                    true
                                ]
                            }
                        ],
                        "signature": "transfer(address,uint8,(address,uint256,uint256,address,uint8)[],uint256)"
                    },
                    "errorInfo": "",
                    "fromAddress": "0xb2ecfe4e4d61f8790bbb9de2d1259b9e2410cea5",
                    "gasUsed": 50006,
                    "id": 4,
                    "methodDecoded": true,
                    "operation": "CALL",
                    "output": "0x000000000000000000000000000000000000000000000000000000000000002000000000000000000000000000000000000000000000000000000000000000010000000000000000000000000000000000000000000000000000000000000001",
                    "revert": false,
                    "revertMessage": "",
                    "selector": "0xa1ccb98e",
                    "status": true,
                    "value": "0"
                },
                "nodeType": 0
            },
            "5": {
                "invocation": {
                    "address": "0x282bdd42f4eb70e7a9d9f40c8fea0825b7f68c5d",
                    "callData": "0x0000000000000000000000006d02ce0cd50bff383035e1de5c8b2235fb22e4e800000000000000000000000080af642e4c1e48a62fadf20dfe56b6c704c145de00000000000000000000000000000000000000000000000000000000000005e8",
                    "decodedMethod": {
                        "callParams": [
                            {
                                "name": "from",
                                "type": "address",
                                "value": "0x6d02ce0cd50bff383035e1de5c8b2235fb22e4e8"
                            },
                            {
                                "name": "to",
                                "type": "address",
                                "value": "0x80af642e4c1e48a62fadf20dfe56b6c704c145de"
                            },
                            {
                                "name": "tokenId",
                                "type": "uint256",
                                "value": "1,512"
                            }
                        ],
                        "constructorArguments": "",
                        "name": "safeTransferFrom",
                        "returnParams": [],
                        "signature": "safeTransferFrom(address,address,uint256)"
                    },
                    "errorInfo": "",
                    "fromAddress": "0x2f18f339620a63e43f0839eeb18d7de1e1be4dfb",
                    "gasUsed": 46082,
                    "id": 5,
                    "methodDecoded": true,
                    "operation": "CALL",
                    "output": "",
                    "revert": false,
                    "revertMessage": "",
                    "selector": "0x42842e0e",
                    "status": true,
                    "value": "0"
                },
                "nodeType": 0
            },
            "6": {
                "event": {
                    "contract": "0x282bdd42f4eb70e7a9d9f40c8fea0825b7f68c5d",
                    "decodedLog": {
                        "name": "Approval",
                        "params": [
                            {
                                "name": "owner",
                                "type": "address",
                                "value": "0x6d02ce0cd50bff383035e1de5c8b2235fb22e4e8"
                            },
                            {
                                "name": "approved",
                                "type": "address",
                                "value": "0x0000000000000000000000000000000000000000"
                            },
                            {
                                "decimalAvailable": true,
                                "name": "tokenId",
                                "type": "uint256",
                                "value": "1,512"
                            }
                        ],
                        "signature": "Approval(address,address,uint256)"
                    },
                    "id": 6,
                    "logData": "0x",
                    "logDecoded": true,
                    "operation": "EVENT",
                    "revert": false,
                    "status": true,
                    "topics": [
                        "0x8c5be1e5ebec7d5bd14f71427d1e84f3dd0314c0f7b2291e5b200ac8c7c3b925",
                        "0x0000000000000000000000006d02ce0cd50bff383035e1de5c8b2235fb22e4e8",
                        "0x0000000000000000000000000000000000000000000000000000000000000000",
                        "0x00000000000000000000000000000000000000000000000000000000000005e8"
                    ]
                },
                "nodeType": 1
            },
            "7": {
                "event": {
                    "contract": "0x282bdd42f4eb70e7a9d9f40c8fea0825b7f68c5d",
                    "decodedLog": {
                        "name": "Transfer",
                        "params": [
                            {
                                "name": "from",
                                "type": "address",
                                "value": "0x6d02ce0cd50bff383035e1de5c8b2235fb22e4e8"
                            },
                            {
                                "name": "to",
                                "type": "address",
                                "value": "0x80af642e4c1e48a62fadf20dfe56b6c704c145de"
                            },
                            {
                                "decimalAvailable": true,
                                "name": "tokenId",
                                "type": "uint256",
                                "value": "1,512"
                            }
                        ],
                        "signature": "Transfer(address,address,uint256)"
                    },
                    "id": 7,
                    "logData": "0x",
                    "logDecoded": true,
                    "operation": "EVENT",
                    "revert": false,
                    "status": true,
                    "topics": [
                        "0xddf252ad1be2c89b69c2b068fc378daa952ba7f163c4a11628f55a4df523b3ef",
                        "0x0000000000000000000000006d02ce0cd50bff383035e1de5c8b2235fb22e4e8",
                        "0x00000000000000000000000080af642e4c1e48a62fadf20dfe56b6c704c145de",
                        "0x00000000000000000000000000000000000000000000000000000000000005e8"
                    ]
                },
                "nodeType": 1
            },
            "8": {
                "invocation": {
                    "address": "0x0000000000a39bb272e79075ade125fd351887ac",
                    "callData": "0x00000000000000000000000080af642e4c1e48a62fadf20dfe56b6c704c145de0000000000000000000000006d02ce0cd50bff383035e1de5c8b2235fb22e4e80000000000000000000000000000000000000000000000002c452819417f0000",
                    "decodedMethod": {
                        "callParams": [
                            {
                                "name": "from",
                                "type": "address",
                                "value": "0x80af642e4c1e48a62fadf20dfe56b6c704c145de"
                            },
                            {
                                "name": "to",
                                "type": "address",
                                "value": "0x6d02ce0cd50bff383035e1de5c8b2235fb22e4e8"
                            },
                            {
                                "decimalAvailable": true,
                                "name": "amount",
                                "type": "uint256",
                                "value": "3,190,000,000,000,000,000"
                            }
                        ],
                        "constructorArguments": "",
                        "name": "transferFrom",
                        "returnParams": [
                            {
                                "name": "",
                                "type": "bool",
                                "value": true
                            }
                        ],
                        "signature": "transferFrom(address,address,uint256)"
                    },
                    "errorInfo": "",
                    "fromAddress": "0xb2ecfe4e4d61f8790bbb9de2d1259b9e2410cea5",
                    "gasUsed": 17826,
                    "id": 8,
                    "methodDecoded": true,
                    "operation": "CALL",
                    "output": "0x0000000000000000000000000000000000000000000000000000000000000001",
                    "revert": false,
                    "revertMessage": "",
                    "selector": "0x23b872dd",
                    "status": true,
                    "value": "0"
                },
                "nodeType": 0
            },
            "9": {
                "invocation": {
                    "address": "0x01a656024de4b89e2d0198bf4d468e8fd2358b17",
                    "callData": "0x00000000000000000000000080af642e4c1e48a62fadf20dfe56b6c704c145de0000000000000000000000006d02ce0cd50bff383035e1de5c8b2235fb22e4e80000000000000000000000000000000000000000000000002c452819417f0000",
                    "decodedMethod": {
                        "callParams": [
                            {
                                "name": "from",
                                "type": "address",
                                "value": "0x80af642e4c1e48a62fadf20dfe56b6c704c145de"
                            },
                            {
                                "name": "to",
                                "type": "address",
                                "value": "0x6d02ce0cd50bff383035e1de5c8b2235fb22e4e8"
                            },
                            {
                                "decimalAvailable": true,
                                "name": "amount",
                                "type": "uint256",
                                "value": "3,190,000,000,000,000,000"
                            }
                        ],
                        "constructorArguments": "",
                        "name": "transferFrom",
                        "returnParams": [
                            {
                                "name": "",
                                "type": "bool",
                                "value": true
                            }
                        ],
                        "signature": "transferFrom(address,address,uint256)"
                    },
                    "errorInfo": "",
                    "fromAddress": "0x0000000000a39bb272e79075ade125fd351887ac",
                    "gasUsed": 12931,
                    "id": 9,
                    "methodDecoded": true,
                    "operation": "DELEGATECALL",
                    "output": "0x0000000000000000000000000000000000000000000000000000000000000001",
                    "revert": false,
                    "revertMessage": "",
                    "selector": "0x23b872dd",
                    "status": true,
                    "value": "0"
                },
                "nodeType": 0
            }
        },
        "gasFlame": [
            {
                "children": [
                    {
                        "children": [
                            {
                                "children": [],
                                "depth": 0,
                                "name": "Initial Gas",
                                "value": 28364
                            },
                            {
                                "children": [
                                    {
                                        "children": [
                                            {
                                                "children": [],
                                                "depth": 2,
                                                "name": "ecrecover",
                                                "value": 3000
                                            },
                                            {
                                                "children": [],
                                                "depth": 2,
                                                "name": "ecrecover",
                                                "value": 3000
                                            },
                                            {
                                                "children": [
                                                    {
                                                        "children": [],
                                                        "depth": 3,
                                                        "name": "safeTransferFrom",
                                                        "value": 46082
                                                    }
                                                ],
                                                "depth": 2,
                                                "name": "transfer",
                                                "value": 50006
                                            },
                                            {
                                                "children": [
                                                    {
                                                        "children": [],
                                                        "depth": 3,
                                                        "name": "transferFrom",
                                                        "value": 12931
                                                    }
                                                ],
                                                "depth": 2,
                                                "name": "transferFrom",
                                                "value": 17826
                                            }
                                        ],
                                        "depth": 1,
                                        "name": "takeBidSingle",
                                        "value": 123524
                                    }
                                ],
                                "depth": 0,
                                "name": "Executed Gas",
                                "value": 128592
                            }
                        ],
                        "depth": -1,
                        "name": "Actual Gas Used",
                        "value": 152156
                    },
                    {
                        "children": [],
                        "depth": -1,
                        "name": "Refunded Gas",
                        "value": 4800
                    }
                ],
                "depth": -2,
                "name": "Total Gas",
                "value": 156956
            }
        ],
        "isConfirmed": true,
        "mainTrace": [
            {
                "children": [
                    {
                        "children": [
                            {
                                "children": [
                                    {
                                        "children": [],
                                        "depth": 2,
                                        "id": 2,
                                        "order": 2
                                    },
                                    {
                                        "children": [],
                                        "depth": 2,
                                        "id": 3,
                                        "order": 3
                                    },
                                    {
                                        "children": [
                                            {
                                                "children": [
                                                    {
                                                        "children": [],
                                                        "depth": 4,
                                                        "id": 6,
                                                        "order": 6
                                                    },
                                                    {
                                                        "children": [],
                                                        "depth": 4,
                                                        "id": 7,
                                                        "order": 7
                                                    }
                                                ],
                                                "depth": 3,
                                                "id": 5,
                                                "order": 5
                                            }
                                        ],
                                        "depth": 2,
                                        "id": 4,
                                        "order": 4
                                    },
                                    {
                                        "children": [
                                            {
                                                "children": [
                                                    {
                                                        "children": [],
                                                        "depth": 4,
                                                        "id": 10,
                                                        "order": 10
                                                    }
                                                ],
                                                "depth": 3,
                                                "id": 9,
                                                "order": 9
                                            }
                                        ],
                                        "depth": 2,
                                        "id": 8,
                                        "order": 8
                                    },
                                    {
                                        "children": [],
                                        "depth": 2,
                                        "id": 11,
                                        "order": 11
                                    }
                                ],
                                "depth": 1,
                                "id": 1,
                                "order": 1
                            }
                        ],
                        "depth": 0,
                        "id": 0,
                        "order": 0
                    }
                ],
                "depth": -1,
                "id": -1,
                "order": -1
            }
        ],
        "mainTraceNodeCount": 12,
        "parentIdMap": {
            "0": -1,
            "1": 0,
            "10": 9,
            "11": 1,
            "2": 1,
            "3": 1,
            "4": 1,
            "5": 4,
            "6": 5,
            "7": 5,
            "8": 1,
            "9": 8
        },
        "tidyTrace": [
            {
                "children": [
                    {
                        "children": [
                            {
                                "children": [
                                    {
                                        "children": [
                                            {
                                                "children": [
                                                    {
                                                        "children": [],
                                                        "depth": 4,
                                                        "id": 6,
                                                        "order": 6
                                                    },
                                                    {
                                                        "children": [],
                                                        "depth": 4,
                                                        "id": 7,
                                                        "order": 7
                                                    }
                                                ],
                                                "depth": 3,
                                                "id": 5,
                                                "order": 5
                                            }
                                        ],
                                        "depth": 2,
                                        "id": 4,
                                        "order": 4
                                    },
                                    {
                                        "children": [
                                            {
                                                "children": [
                                                    {
                                                        "children": [],
                                                        "depth": 4,
                                                        "id": 10,
                                                        "order": 10
                                                    }
                                                ],
                                                "depth": 3,
                                                "id": 9,
                                                "order": 9
                                            }
                                        ],
                                        "depth": 2,
                                        "id": 8,
                                        "order": 8
                                    },
                                    {
                                        "children": [],
                                        "depth": 2,
                                        "id": 11,
                                        "order": 11
                                    }
                                ],
                                "depth": 1,
                                "id": 1,
                                "order": 1
                            }
                        ],
                        "depth": 0,
                        "id": 0,
                        "order": 0
                    }
                ],
                "depth": -1,
                "id": -1,
                "order": -1
            }
        ],
        "tidyTraceNodeCount": 10
    },
    "state_change": {
        "stateChanges": [
            {
                "address": "0x0000000000a39bb272e79075ade125fd351887ac",
                "erc": "",
                "slots": [
                    {
                        "current": "0x000000000000000000000000000000000000000000000000321412dfcfe6e640",
                        "key": "0xd0349a3a14f7056eb27a3f968b30c604604afbcee64857fafc1938981b2ac03d",
                        "prev": "0x0000000000000000000000000000000000000000000000005e593af91165e640"
                    },
                    {
                        "current": "0x000000000000000000000000000000000000000000000006c8d219d054a66e96",
                        "key": "0xa2bf9577007dfbfce0bedda43427c1a50dcc7c9d37cb14a2a4a4a01351b78c14",
                        "prev": "0x0000000000000000000000000000000000000000000000069c8cf1b713276e96"
                    }
                ],
                "storageVariables": [
                    {
                        "name": "_balances",
                        "type": "mapping(address => uint256)",
                        "value": {
                            "pairs": [
                                {
                                    "key": "0x6d02ce0cd50bff383035e1de5c8b2235fb22e4e8",
                                    "value": {
                                        "current": "125151121377516220054",
                                        "prev": "121961121377516220054",
                                        "typeTag": 1
                                    }
                                },
                                {
                                    "key": "0x80af642e4c1e48a62fadf20dfe56b6c704c145de",
                                    "value": {
                                        "current": "3608529953905632832",
                                        "prev": "6798529953905632832",
                                        "typeTag": 1
                                    }
                                }
                            ],
                            "typeTag": 4
                        }
                    }
                ]
            },
            {
                "address": "0x282bdd42f4eb70e7a9d9f40c8fea0825b7f68c5d",
                "erc": "ERC-721",
                "slots": [
                    {
                        "current": "0x0000000000000000000000000000000000000000000000000000000000000000",
                        "key": "0x0c96bc429c31a60c6719d767f33c752603dc246a28bd28f778a2a406735e0c69",
                        "prev": "0x0000000000000000000000000000000000000000000000000000000000000001"
                    },
                    {
                        "current": "0x0000000000000000000000000000000000000000000000000000000000000001",
                        "key": "0xc3421b927557c3e2cb03f487dcf3f41f2d01dd5bc1b5ef43353e2c4688c29997",
                        "prev": "0x0000000000000000000000000000000000000000000000000000000000000000"
                    },
                    {
                        "current": "0x00000000000000000000000080af642e4c1e48a62fadf20dfe56b6c704c145de",
                        "key": "0x3d3414a58332a79bdf1e27b7db219e86d1acbaf360dcab8625dd46119ca0bbd9",
                        "prev": "0x0000000000000000000000006d02ce0cd50bff383035e1de5c8b2235fb22e4e8"
                    }
                ],
                "storageVariables": [
                    {
                        "name": "_balances",
                        "type": "mapping(address => uint256)",
                        "value": {
                            "pairs": [
                                {
                                    "key": "0x6d02ce0cd50bff383035e1de5c8b2235fb22e4e8",
                                    "value": {
                                        "current": "0",
                                        "prev": "1",
                                        "typeTag": 1
                                    }
                                },
                                {
                                    "key": "0x80af642e4c1e48a62fadf20dfe56b6c704c145de",
                                    "value": {
                                        "current": "1",
                                        "prev": "0",
                                        "typeTag": 1
                                    }
                                }
                            ],
                            "typeTag": 4
                        }
                    },
                    {
                        "name": "_owners",
                        "type": "mapping(uint256 => address)",
                        "value": {
                            "pairs": [
                                {
                                    "key": "1512",
                                    "value": {
                                        "current": "0x80af642e4c1e48a62fadf20dfe56b6c704c145de",
                                        "prev": "0x6d02ce0cd50bff383035e1de5c8b2235fb22e4e8",
                                        "typeTag": 1
                                    }
                                }
                            ],
                            "typeTag": 4
                        }
                    }
                ]
            },
            {
                "address": "0xb2ecfe4e4d61f8790bbb9de2d1259b9e2410cea5",
                "erc": "",
                "slots": [
                    {
                        "current": "0x0000000000000000000000000000000000000000000000000000000000000001",
                        "key": "0x203286ec3449fb6b73dec7812f386842f5af71faa2e54aea755c646398c84205",
                        "prev": "0x0000000000000000000000000000000000000000000000000000000000000000"
                    }
                ],
                "storageVariables": [
                    {
                        "name": "amountTaken",
                        "type": "mapping(address => mapping(bytes32 => mapping(uint256 => uint256)))",
                        "value": {
                            "pairs": [
                                {
                                    "key": "0x80af642e4c1e48a62fadf20dfe56b6c704c145de",
                                    "value": {
                                        "pairs": [
                                            {
                                                "key": "0x3474d49e0c4c924e4630a653b94e9251383431bc8b32e7f22c8412964e39a20e",
                                                "value": {
                                                    "pairs": [
                                                        {
                                                            "key": "0",
                                                            "value": {
                                                                "current": "1",
                                                                "prev": "0",
                                                                "typeTag": 1
                                                            }
                                                        }
                                                    ],
                                                    "typeTag": 4
                                                }
                                            }
                                        ],
                                        "typeTag": 4
                                    }
                                }
                            ],
                            "typeTag": 4
                        }
                    }
                ]
            }
        ]
    }
}