{
    "balance_change": {
        "balanceChanges": [
            {
                "account": "0xc01bd2afef60474929da80dba5fc53c9e38e6c81",
                "assets": [
                    {
                        "address": "0x504b60a4133699c7056b58d3fe11ea73865a2d65",
                        "amount": "158.73015873",
                        "iconUrl": "",
                        "isERC1155": false,
                        "isERC721": false,
                        "sign": false,
                        "value": ""
                    }
                ]
            },
            {
                "account": "0x5af0d2ca8d2100703f472155a5eaef15aa5cc4e6",
                "assets": [
                    {
                        "address": "0x504b60a4133699c7056b58d3fe11ea73865a2d65",
                        "amount": "158.73015873",
                        "iconUrl": "",
                        "isERC1155": false,
                        "isERC721": false,
                        "sign": true,
                        "value": ""
                    }
                ]
            }
        ]
    },
    "profile": {
        "basic_info": {
            "baseFee": "",
            "blockNumber": 10477349,
            "callData": "0xa9059cbb0000000000000000000000005af0d2ca8d2100703f472155a5eaef15aa5cc4e600000000000000000000000000000000000000000000000000000003b21b0041",
            "debugEnable": true,
            "errorInfo": "",
            "eventCount": 1,
            "feeRecipient": "0x52bc44d5378309ee2abf1539bf71de1b7d7be3b5",
            "formatValue": "0",
            "gasLimit": 80000,
            "gasPrice": "64",
            "gasUsed": 36261,
            "intTxnCount": 0,
            "internalRevert": false,
            "internalRevertMessage": "",
            "isContractCreation": false,
            "isFlashloan": false,
            "maxFee": "",
            "nonce": 3602,
            "overwritedBlockNumber": -1,
            "priorityFee": "",
            "receiver": "0x504b60a4133699c7056b58d3fe11ea73865a2d65",
            "revertMessage": "",
            "sender": "0xc01bd2afef60474929da80dba5fc53c9e38e6c81",
            "simulationEnable": true,
            "sourceTxnHash": "0xb3fbade1dd5532251ae26773ef48b681cb069cea54075eee9cb92b7eab101d34",
            "status": true,
            "timestamp": "2020-07-17T13:52:39Z",
            "transactionFee": "0.002320704",
            "txnHash": "0xb3fbade1dd5532251ae26773ef48b681cb069cea54075eee9cb92b7eab101d34",
            "txnIndex": 55,
            "type": 0,
            "value": "0"
        },
        "fund_flow": [
            {
                "amount": "158.73015873",
                "from": "0xc01bd2afef60474929da80dba5fc53c9e38e6c81",
                "id": 1,
                "isERC1155": false,
                "isERC721": false,
                "isReverted": false,
                "order": 1,
                "to": "0x5af0d2ca8d2100703f472155a5eaef15aa5cc4e6",
                "token": "0x504b60a4133699c7056b58d3fe11ea73865a2d65"
            }
        ],
        "token_infos": [
            {
                "address": "0xc02aaa39b223fe8d0a0e5c4f27ead9083c756cc2",
                "decimals": 18
            },
            {
                "address": "0xeeeeeeeeeeeeeeeeeeeeeeeeeeeeeeeeeeeeeeee",
                "decimals": 18
            },
            {
                "address": "0x504b60a4133699c7056b58d3fe11ea73865a2d65",
                "decimals": 8
            }
        ]
    },
    "address_label": {
        "labels": [
            {
                "address": "0x0000000000000000000000000000000000000001",
                "label": "Precompiled"
            },
            {
                "address": "0x0000000000000000000000000000000000000002",
                "label": "Precompiled"
            },
            {
                "address": "0x0000000000000000000000000000000000000003",
                "label": "Precompiled"
            },
            {
                "address": "0x0000000000000000000000000000000000000004",
                "label": "Precompiled"
            },
            {
                "address": "0xeeeeeeeeeeeeeeeeeeeeeeeeeeeeeeeeeeeeeeee",
                "label": "Ether"
            },
            {
                "address": "0x504b60a4133699c7056b58d3fe11ea73865a2d65",
                "label": "Capital Coin Extended (CPTLX)"
            }
        ]
    },
    "trace": {
        "accountLabels": null,
        "dataMap": {
            "-1": {
                "invocation": {
                    "address": "0xc01bd2afef60474929da80dba5fc53c9e38e6c81",
                    "callData": "",
                    "decodedMethod": null,
                    "errorInfo": "",
                    "fromAddress": "",
                    "gasUsed": 0,
                    "id": -1,
                    "methodDecoded": false,
                    "operation": "",
                    "output": "",
                    "revert": false,
                    "revertMessage": "",
                    "selector": "",
                    "status": false,
                    "value": ""
                },
                "nodeType": 0
            },
            "0": {
                "invocation": {
                    "address": "0x504b60a4133699c7056b58d3fe11ea73865a2d65",
                    "callData": "0x0000000000000000000000005af0d2ca8d2100703f472155a5eaef15aa5cc4e600000000000000000000000000000000000000000000000000000003b21b0041",
                    "decodedMethod": {
                        "callParams": [
                            {
                                "name": "to",
                                "type": "address",
                                "value": "0x5af0d2ca8d2100703f472155a5eaef15aa5cc4e6"
                            },
                            {
                                "decimalAvailable": true,
                                "name": "tokens",
                                "type": "uint256",
                                "value": "15,873,015,873"
                            }
                        ],
                        "constructorArguments": "",
                        "name": "transfer",
                        "returnParams": [
                            {
                                "name": "success",
                                "type": "bool",
                                "value": true
                            }
                        ],
                        "signature": "transfer(address,uint256)"
                    },
                    "errorInfo": "",
                    "fromAddress": "0xc01bd2afef60474929da80dba5fc53c9e38e6c81",
                    "gasUsed": 36261,
                    "id": 0,
                    "methodDecoded": true,
                    "operation": "CALL",
                    "output": "0x0000000000000000000000000000000000000000000000000000000000000001",
                    "revert": false,
                    "revertMessage": "",
                    "selector": "0xa9059cbb",
                    "status": true,
                    "value": "0"
                },
                "nodeType": 0
            },
            "1": {
                "event": {
                    "contract": "0x504b60a4133699c7056b58d3fe11ea73865a2d65",
                    "decodedLog": {
                        "name": "Transfer",
                        "params": [
                            {
                                "name": "from",
                                "type": "address",
                                "value": "0xc01bd2afef60474929da80dba5fc53c9e38e6c81"
                            },
                            {
                                "name": "to",
                                "type": "address",
                                "value": "0x5af0d2ca8d2100703f472155a5eaef15aa5cc4e6"
                            },
                            {
                                "decimalAvailable": true,
                                "name": "tokens",
                                "type": "uint256",
                                "value": "15,873,015,873"
                            }
                        ],
                        "signature": "Transfer(address,address,uint256)"
                    },
                    "id": 1,
                    "logData": "0x00000000000000000000000000000000000000000000000000000003b21b0041",
                    "logDecoded": true,
                    "operation": "EVENT",
                    "revert": false,
                    "status": true,
                    "topics": [
                        "0xddf252ad1be2c89b69c2b068fc378daa952ba7f163c4a11628f55a4df523b3ef",
                        "0x000000000000000000000000c01bd2afef60474929da80dba5fc53c9e38e6c81",
                        "0x0000000000000000000000005af0d2ca8d2100703f472155a5eaef15aa5cc4e6"
                    ]
                },
                "nodeType": 1
            }
        },
        "gasFlame": [
            {
                "children": [
                    {
                        "children": [
                            {
                                "children": [],
                                "depth": 0,
                                "name": "Initial Gas",
                                "value": 21596
                            },
                            {
                                "children": [],
                                "depth": 0,
                                "name": "Executed Gas",
                                "value": 14665
                            }
                        ],
                        "depth": -1,
                        "name": "Actual Gas Used",
                        "value": 36261
                    },
                    {
                        "children": [],
                        "depth": -1,
                        "name": "Refunded Gas",
                        "value": 0
                    }
                ],
                "depth": -2,
                "name": "Total Gas",
                "value": 36261
            }
        ],
        "isConfirmed": true,
        "mainTrace": [
            {
                "children": [
                    {
                        "children": [
                            {
                                "children": [],
                                "depth": 1,
                                "id": 1,
                                "order": 1
                            }
                        ],
                        "depth": 0,
                        "id": 0,
                        "order": 0
                    }
                ],
                "depth": -1,
                "id": -1,
                "order": -1
            }
        ],
        "mainTraceNodeCount": 2,
        "parentIdMap": {
            "0": -1,
            "1": 0
        },
        "tidyTrace": [
            {
                "children": [
                    {
                        "children": [
                            {
                                "children": [],
                                "depth": 1,
                                "id": 1,
                                "order": 1
                            }
                        ],
                        "depth": 0,
                        "id": 0,
                        "order": 0
                    }
                ],
                "depth": -1,
                "id": -1,
                "order": -1
            }
        ],
        "tidyTraceNodeCount": 2
    },
    "state_change": {
        "stateChanges": [
            {
                "address": "0x504b60a4133699c7056b58d3fe11ea73865a2d65",
                "erc": "ERC-20",
                "slots": [
                    {
                        "current": "0x0000000000000000000000000000000000000000000000000000bc07a739649e",
                        "key": "0x55cb884d00d992e0798d3b093e13964c7168e7d1b79d3b4883ce734267142751",
                        "prev": "0x0000000000000000000000000000000000000000000000000000bc0b595464df"
                    },
                    {
                        "current": "0x0000000000000000000000000000000000000000000000000000001b34cab512",
                        "key": "0x71707dec90bddf1232f1f2649c7d830032f03e508f19ac95efb62fdb155715d3",
                        "prev": "0x0000000000000000000000000000000000000000000000000000001782afb4d1"
                    }
                ],
                "storageVariables": [
                    {
                        "name": "balances",
                        "type": "mapping(address => uint256)",
                        "value": {
                            "pairs": [
                                {
                                    "key": "0x5af0d2ca8d2100703f472155a5eaef15aa5cc4e6",
                                    "value": {
                                        "current": "116849816850",
                                        "prev": "100976800977",
                                        "typeTag": 1
                                    }
                                },
                                {
                                    "key": "0xc01bd2afef60474929da80dba5fc53c9e38e6c81",
                                    "value": {
                                        "current": "206741056349342",
                                        "prev": "206756929365215",
                                        "typeTag": 1
                                    }
                                }
                            ],
                            "typeTag": 4
                        }
                    }
                ]
            }
        ]
    }
}