{
    "balance_change": {
        "balanceChanges": [
            {
                "account": "0x3caec6f54993526c9e2744a4fa54a19b90a3bd87",
                "assets": [
                    {
                        "address": "0xc12d1c73ee7dc3615ba4e37e4abfdbddfa38907e",
                        "amount": "2,328.52431",
                        "iconUrl": "",
                        "isERC1155": false,
                        "isERC721": false,
                        "sign": false,
                        "value": ""
                    }
                ]
            },
            {
                "account": "0x92e508f93c2d5682643a4bc2378a9f91d55c4411",
                "assets": [
                    {
                        "address": "0xc12d1c73ee7dc3615ba4e37e4abfdbddfa38907e",
                        "amount": "2,328.52431",
                        "iconUrl": "",
                        "isERC1155": false,
                        "isERC721": false,
                        "sign": true,
                        "value": ""
                    }
                ]
            }
        ]
    },
    "profile": {
        "basic_info": {
            "baseFee": "",
            "blockNumber": 9787579,
            "callData": "0xa9059cbb00000000000000000000000092e508f93c2d5682643a4bc2378a9f91d55c44110000000000000000000000000000000000000000000000000000003637162098",
            "debugEnable": true,
            "errorInfo": "",
            "eventCount": 1,
            "feeRecipient": "0x5a0b54d5dc17e0aadc383d2db43b0a0d3e029c4c",
            "formatValue": "0",
            "gasLimit": 196605,
            "gasPrice": "3",
            "gasUsed": 52182,
            "intTxnCount": 0,
            "internalRevert": false,
            "internalRevertMessage": "",
            "isContractCreation": false,
            "isFlashloan": false,
            "maxFee": "",
            "nonce": 25727,
            "overwritedBlockNumber": -1,
            "priorityFee": "",
            "receiver": "0xc12d1c73ee7dc3615ba4e37e4abfdbddfa38907e",
            "revertMessage": "",
            "sender": "0x3caec6f54993526c9e2744a4fa54a19b90a3bd87",
            "simulationEnable": true,
            "sourceTxnHash": "0xb324790ca2c66f8a228d5722911b806b571c2ee34c8d5836cb3f1b5f58b71ae1",
            "status": true,
            "timestamp": "2020-04-01T18:16:22Z",
            "transactionFee": "0.000156546",
            "txnHash": "0xb324790ca2c66f8a228d5722911b806b571c2ee34c8d5836cb3f1b5f58b71ae1",
            "txnIndex": 7,
            "type": 0,
            "value": "0"
        },
        "fund_flow": [
            {
                "amount": "2,328.52431",
                "from": "0x3caec6f54993526c9e2744a4fa54a19b90a3bd87",
                "id": 1,
                "isERC1155": false,
                "isERC721": false,
                "isReverted": false,
                "order": 1,
                "to": "0x92e508f93c2d5682643a4bc2378a9f91d55c4411",
                "token": "0xc12d1c73ee7dc3615ba4e37e4abfdbddfa38907e"
            }
        ],
        "token_infos": [
            {
                "address": "0xc02aaa39b223fe8d0a0e5c4f27ead9083c756cc2",
                "decimals": 18
            },
            {
                "address": "0xc12d1c73ee7dc3615ba4e37e4abfdbddfa38907e",
                "decimals": 8
            },
            {
                "address": "0xeeeeeeeeeeeeeeeeeeeeeeeeeeeeeeeeeeeeeeee",
                "decimals": 18
            }
        ]
    },
    "address_label": {
        "labels": [
            {
                "address": "0x0000000000000000000000000000000000000004",
                "label": "Precompiled"
            },
            {
                "address": "0xeeeeeeeeeeeeeeeeeeeeeeeeeeeeeeeeeeeeeeee",
                "label": "Ether"
            },
            {
                "address": "0xc12d1c73ee7dc3615ba4e37e4abfdbddfa38907e",
                "label": "KickICO: Old KICK Token"
            },
            {
                "address": "0x92e508f93c2d5682643a4bc2378a9f91d55c4411",
                "label": "KUCOIN"
            },
            {
                "address": "0x0000000000000000000000000000000000000001",
                "label": "Precompiled"
            },
            {
                "address": "0x0000000000000000000000000000000000000002",
                "label": "Precompiled"
            },
            {
                "address": "0x0000000000000000000000000000000000000003",
                "label": "Precompiled"
            }
        ]
    },
    "trace": {
        "accountLabels": null,
        "dataMap": {
            "-1": {
                "invocation": {
                    "address": "0x3caec6f54993526c9e2744a4fa54a19b90a3bd87",
                    "callData": "",
                    "decodedMethod": null,
                    "errorInfo": "",
                    "fromAddress": "",
                    "gasUsed": 0,
                    "id": -1,
                    "methodDecoded": false,
                    "operation": "",
                    "output": "",
                    "revert": false,
                    "revertMessage": "",
                    "selector": "",
                    "status": false,
                    "value": ""
                },
                "nodeType": 0
            },
            "0": {
                "invocation": {
                    "address": "0xc12d1c73ee7dc3615ba4e37e4abfdbddfa38907e",
                    "callData": "0x00000000000000000000000092e508f93c2d5682643a4bc2378a9f91d55c44110000000000000000000000000000000000000000000000000000003637162098",
                    "decodedMethod": {
                        "callParams": [
                            {
                                "name": "recipient",
                                "type": "address",
                                "value": "0x92e508f93c2d5682643a4bc2378a9f91d55c4411"
                            },
                            {
                                "decimalAvailable": true,
                                "name": "amount",
                                "type": "uint256",
                                "value": "232,852,431,000"
                            }
                        ],
                        "constructorArguments": "",
                        "name": "transfer",
                        "returnParams": [
                            {
                                "name": "",
                                "type": "bool",
                                "value": true
                            }
                        ],
                        "signature": "transfer(address,uint256)"
                    },
                    "errorInfo": "",
                    "fromAddress": "0x3caec6f54993526c9e2744a4fa54a19b90a3bd87",
                    "gasUsed": 52182,
                    "id": 0,
                    "methodDecoded": true,
                    "operation": "CALL",
                    "output": "0x0000000000000000000000000000000000000000000000000000000000000001",
                    "revert": false,
                    "revertMessage": "",
                    "selector": "0xa9059cbb",
                    "status": true,
                    "value": "0"
                },
                "nodeType": 0
            },
            "1": {
                "event": {
                    "contract": "0xc12d1c73ee7dc3615ba4e37e4abfdbddfa38907e",
                    "decodedLog": {
                        "name": "Transfer",
                        "params": [
                            {
                                "name": "from",
                                "type": "address",
                                "value": "0x3caec6f54993526c9e2744a4fa54a19b90a3bd87"
                            },
                            {
                                "name": "to",
                                "type": "address",
                                "value": "0x92e508f93c2d5682643a4bc2378a9f91d55c4411"
                            },
                            {
                                "decimalAvailable": true,
                                "name": "value",
                                "type": "uint256",
                                "value": "232,852,431,000"
                            }
                        ],
                        "signature": "Transfer(address,address,uint256)"
                    },
                    "id": 1,
                    "logData": "0x0000000000000000000000000000000000000000000000000000003637162098",
                    "logDecoded": true,
                    "operation": "EVENT",
                    "revert": false,
                    "status": true,
                    "topics": [
                        "0xddf252ad1be2c89b69c2b068fc378daa952ba7f163c4a11628f55a4df523b3ef",
                        "0x0000000000000000000000003caec6f54993526c9e2744a4fa54a19b90a3bd87",
                        "0x00000000000000000000000092e508f93c2d5682643a4bc2378a9f91d55c4411"
                    ]
                },
                "nodeType": 1
            }
        },
        "gasFlame": [
            {
                "children": [
                    {
                        "children": [
                            {
                                "children": [],
                                "depth": 0,
                                "name": "Initial Gas",
                                "value": 21620
                            },
                            {
                                "children": [],
                                "depth": 0,
                                "name": "Executed Gas",
                                "value": 30562
                            }
                        ],
                        "depth": -1,
                        "name": "Actual Gas Used",
                        "value": 52182
                    },
                    {
                        "children": [],
                        "depth": -1,
                        "name": "Refunded Gas",
                        "value": 0
                    }
                ],
                "depth": -2,
                "name": "Total Gas",
                "value": 52182
            }
        ],
        "isConfirmed": true,
        "mainTrace": [
            {
                "children": [
                    {
                        "children": [
                            {
                                "children": [],
                                "depth": 1,
                                "id": 1,
                                "order": 1
                            }
                        ],
                        "depth": 0,
                        "id": 0,
                        "order": 0
                    }
                ],
                "depth": -1,
                "id": -1,
                "order": -1
            }
        ],
        "mainTraceNodeCount": 2,
        "parentIdMap": {
            "0": -1,
            "1": 0
        },
        "tidyTrace": [
            {
                "children": [
                    {
                        "children": [
                            {
                                "children": [],
                                "depth": 1,
                                "id": 1,
                                "order": 1
                            }
                        ],
                        "depth": 0,
                        "id": 0,
                        "order": 0
                    }
                ],
                "depth": -1,
                "id": -1,
                "order": -1
            }
        ],
        "tidyTraceNodeCount": 2
    },
    "state_change": {
        "stateChanges": [
            {
                "address": "0xc12d1c73ee7dc3615ba4e37e4abfdbddfa38907e",
                "erc": "ERC-20",
                "slots": [
                    {
                        "current": "0x000000000000000000000000000000000000000000000000000d5f32eabee808",
                        "key": "0x5d0f11486a322c75af7915af0c667eef8c2469fade6079a474731bfe9b185ead",
                        "prev": "0x000000000000000000000000000000000000000000000000000d5f6921d508a0"
                    },
                    {
                        "current": "0x0000000000000000000000000000000000000000000000000000003637162098",
                        "key": "0x485e0f420e4823497fca5c6df484d1f253fa68d9cd5e7cf919a7b536a4353517",
                        "prev": "0x0000000000000000000000000000000000000000000000000000000000000000"
                    }
                ],
                "storageVariables": [
                    {
                        "name": "_balances",
                        "type": "mapping(address => uint256)",
                        "value": {
                            "pairs": [
                                {
                                    "key": "0x3caec6f54993526c9e2744a4fa54a19b90a3bd87",
                                    "value": {
                                        "current": "3763846988621832",
                                        "prev": "3764079841052832",
                                        "typeTag": 1
                                    }
                                },
                                {
                                    "key": "0x92e508f93c2d5682643a4bc2378a9f91d55c4411",
                                    "value": {
                                        "current": "232852431000",
                                        "prev": "0",
                                        "typeTag": 1
                                    }
                                }
                            ],
                            "typeTag": 4
                        }
                    }
                ]
            }
        ]
    }
}