{
    "balance_change": {
        "balanceChanges": []
    },
    "profile": {
        "basic_info": {
            "baseFee": "7.213278072",
            "blockNumber": 19860271,
            "callData": "0x27050d1f00000000000000000000000000000000000000000000000000000000000000c000000000000000000000000000000000000000000000000000000000000001000000000000000000000000000000000000000000000000000000000000000140000000000000000000000000000000000000000000000000000000000000018000000000000000000000000000000000000000000000000000000000000001e0b810428c975a5cac3f9fe32a5adec445cf93bba579789781757fea70e9a0784a00000000000000000000000000000000000000000000000000000000000000114172746f6f6e74792041697244726f7073000000000000000000000000000000000000000000000000000000000000000000000000000000000000000000000241410000000000000000000000000000000000000000000000000000000000000000000000000000000000000000000000000000000000000000000000000006697066733a2f0000000000000000000000000000000000000000000000000000000000000000000000000000000000000000000000000000000000000000002e68747470733a2f2f72617269626c652e636f6d2f636f6e74726163744d657461646174612f7b616464726573737d0000000000000000000000000000000000000000000000000000000000000000000000000000000000000000000000000000",
            "debugEnable": true,
            "errorInfo": "out of gas",
            "eventCount": 0,
            "feeRecipient": "0x95222290dd7278aa3ddd389cc1e1d165cc4bafe5",
            "formatValue": "0",
            "gasLimit": 24492,
            "gasPrice": "31.815423564",
            "gasUsed": 24492,
            "intTxnCount": 0,
            "internalRevert": false,
            "internalRevertMessage": "",
            "isContractCreation": false,
            "isFlashloan": false,
            "maxFee": "31.815423564",
            "nonce": 16,
            "overwritedBlockNumber": -1,
            "priorityFee": "30",
            "receiver": "0xda5bfe0bd4443d63833c8f4e3284357299eae6bc",
            "revertMessage": "",
            "sender": "0xc1090b335692252090bc60cc1ea2aa6652443411",
            "simulationEnable": true,
            "sourceTxnHash": "0xb36e915be1dd04879065eb5d7c70a8612dc52cb5520fcacab688ac7880545d8c",
            "status": false,
            "timestamp": "2024-05-13T09:42:47Z",
            "transactionFee": "0.000779223353929488",
            "txnHash": "0xb36e915be1dd04879065eb5d7c70a8612dc52cb5520fcacab688ac7880545d8c",
            "txnIndex": 19,
            "type": 2,
            "value": "0"
        },
        "fund_flow": [],
        "token_infos": [
            {
                "address": "0xc02aaa39b223fe8d0a0e5c4f27ead9083c756cc2",
                "decimals": 18
            },
            {
                "address": "0xeeeeeeeeeeeeeeeeeeeeeeeeeeeeeeeeeeeeeeee",
                "decimals": 18
            }
        ]
    },
    "address_label": {
        "labels": [
            {
                "address": "0x0000000000000000000000000000000000000003",
                "label": "Precompiled"
            },
            {
                "address": "0x0000000000000000000000000000000000000004",
                "label": "Precompiled"
            },
            {
                "address": "0xeeeeeeeeeeeeeeeeeeeeeeeeeeeeeeeeeeeeeeee",
                "label": "Ether"
            },
            {
                "address": "0xda5bfe0bd4443d63833c8f4e3284357299eae6bc",
                "label": "Rarible: ERC1155 Factory 2"
            },
            {
                "address": "0x0000000000000000000000000000000000000001",
                "label": "Precompiled"
            },
            {
                "address": "0x0000000000000000000000000000000000000002",
                "label": "Precompiled"
            }
        ]
    },
    "trace": {
        "accountLabels": null,
        "dataMap": {
            "-1": {
                "invocation": {
                    "address": "0xc1090b335692252090bc60cc1ea2aa6652443411",
                    "callData": "",
                    "decodedMethod": null,
                    "errorInfo": "",
                    "fromAddress": "",
                    "gasUsed": 0,
                    "id": -1,
                    "methodDecoded": false,
                    "operation": "",
                    "output": "",
                    "revert": false,
                    "revertMessage": "",
                    "selector": "",
                    "status": false,
                    "value": ""
                },
                "nodeType": 0
            },
            "0": {
                "invocation": {
                    "address": "0xda5bfe0bd4443d63833c8f4e3284357299eae6bc",
                    "callData": "0x00000000000000000000000000000000000000000000000000000000000000c000000000000000000000000000000000000000000000000000000000000001000000000000000000000000000000000000000000000000000000000000000140000000000000000000000000000000000000000000000000000000000000018000000000000000000000000000000000000000000000000000000000000001e0b810428c975a5cac3f9fe32a5adec445cf93bba579789781757fea70e9a0784a00000000000000000000000000000000000000000000000000000000000000114172746f6f6e74792041697244726f7073000000000000000000000000000000000000000000000000000000000000000000000000000000000000000000000241410000000000000000000000000000000000000000000000000000000000000000000000000000000000000000000000000000000000000000000000000006697066733a2f0000000000000000000000000000000000000000000000000000000000000000000000000000000000000000000000000000000000000000002e68747470733a2f2f72617269626c652e636f6d2f636f6e74726163744d657461646174612f7b616464726573737d0000000000000000000000000000000000000000000000000000000000000000000000000000000000000000000000000000",
                    "decodedMethod": {
                        "callParams": [
                            {
                                "name": "_name",
                                "type": "string",
                                "value": "Artoonty AirDrops"
                            },
                            {
                                "name": "_symbol",
                                "type": "string",
                                "value": "AA"
                            },
                            {
                                "name": "baseURI",
                                "type": "string",
                                "value": "ipfs:/"
                            },
                            {
                                "name": "contractURI",
                                "type": "string",
                                "value": "https://rarible.com/contractMetadata/{address}"
                            },
                            {
                                "name": "operators",
                                "type": "address[]",
                                "value": []
                            },
                            {
                                "name": "salt",
                                "type": "uint256",
                                "value": "83,254,292,997,948,220,002,278,022,495,539,058,272,984,366,809,160,472,891,481,869,194,674,258,868,298"
                            }
                        ],
                        "constructorArguments": "",
                        "name": "createToken",
                        "returnParams": [],
                        "signature": "createToken(string,string,string,string,address[],uint256)"
                    },
                    "errorInfo": "out of gas",
                    "fromAddress": "0xc1090b335692252090bc60cc1ea2aa6652443411",
                    "gasUsed": 24492,
                    "id": 0,
                    "methodDecoded": true,
                    "operation": "CALL",
                    "output": "",
                    "revert": true,
                    "revertMessage": "",
                    "selector": "0x27050d1f",
                    "status": false,
                    "value": "0"
                },
                "nodeType": 0
            }
        },
        "gasFlame": [
            {
                "children": [
                    {
                        "children": [
                            {
                                "children": [],
                                "depth": 0,
                                "name": "Initial Gas",
                                "value": 24492
                            },
                            {
                                "children": [],
                                "depth": 0,
                                "name": "Executed Gas",
                                "value": 0
                            }
                        ],
                        "depth": -1,
                        "name": "Actual Gas Used",
                        "value": 24492
                    },
                    {
                        "children": [],
                        "depth": -1,
                        "name": "Refunded Gas",
                        "value": 0
                    }
                ],
                "depth": -2,
                "name": "Total Gas",
                "value": 24492
            }
        ],
        "isConfirmed": true,
        "mainTrace": [
            {
                "children": [
                    {
                        "children": [],
                        "depth": 0,
                        "id": 0,
                        "order": 0
                    }
                ],
                "depth": -1,
                "id": -1,
                "order": -1
            }
        ],
        "mainTraceNodeCount": 1,
        "parentIdMap": {
            "0": -1
        },
        "tidyTrace": [
            {
                "children": [
                    {
                        "children": [],
                        "depth": 0,
                        "id": 0,
                        "order": 0
                    }
                ],
                "depth": -1,
                "id": -1,
                "order": -1
            }
        ],
        "tidyTraceNodeCount": 1
    },
    "state_change": {
        "stateChanges": []
    }
}