{
    "balance_change": {
        "balanceChanges": [
            {
                "account": "0xb19ae153a99c4f2eff2f65bbbe25cce4aebed41f",
                "assets": [
                    {
                        "address": "0xeeeeeeeeeeeeeeeeeeeeeeeeeeeeeeeeeeeeeeee",
                        "amount": "0.465",
                        "iconUrl": "https://assets.blocksec.com/image/1663669189317-3.png",
                        "isERC1155": false,
                        "isERC721": false,
                        "sign": false,
                        "value": "761.6653500000000042"
                    }
                ]
            },
            {
                "account": "0x49048044d57e1c92a77f79988d21fa8faf74e97e",
                "assets": [
                    {
                        "address": "0xeeeeeeeeeeeeeeeeeeeeeeeeeeeeeeeeeeeeeeee",
                        "amount": "0.465",
                        "iconUrl": "https://assets.blocksec.com/image/1663669189317-3.png",
                        "isERC1155": false,
                        "isERC721": false,
                        "sign": true,
                        "value": "761.6653500000000042"
                    }
                ]
            }
        ]
    },
    "profile": {
        "basic_info": {
            "baseFee": "12.936369114",
            "blockNumber": 18149877,
            "callData": "0xe9e05c42000000000000000000000000b19ae153a99c4f2eff2f65bbbe25cce4aebed41f000000000000000000000000000000000000000000000000067403094c8e800000000000000000000000000000000000000000000000000000000000000186a0000000000000000000000000000000000000000000000000000000000000000000000000000000000000000000000000000000000000000000000000000000a000000000000000000000000000000000000000000000000000000000000000010100000000000000000000000000000000000000000000000000000000000000",
            "debugEnable": true,
            "errorInfo": "",
            "eventCount": 1,
            "feeRecipient": "0x690b9a9e9aa1c9db991c7721a92d351db4fac990",
            "formatValue": "0.465",
            "gasLimit": 200000,
            "gasPrice": "13.036369114",
            "gasUsed": 52606,
            "intTxnCount": 3,
            "internalRevert": false,
            "internalRevertMessage": "",
            "isContractCreation": false,
            "isFlashloan": false,
            "maxFee": "18.094148294",
            "nonce": 6,
            "overwritedBlockNumber": -1,
            "priorityFee": "0.1",
            "receiver": "0x49048044d57e1c92a77f79988d21fa8faf74e97e",
            "revertMessage": "",
            "sender": "0xb19ae153a99c4f2eff2f65bbbe25cce4aebed41f",
            "simulationEnable": true,
            "sourceTxnHash": "0xb3394500c8f1ff771ebe90c79feea45ad9926e6bad6c8d785e4c4ad57f48e61c",
            "status": true,
            "timestamp": "2023-09-16T16:27:35Z",
            "transactionFee": "0.000685791233611084",
            "txnHash": "0xb3394500c8f1ff771ebe90c79feea45ad9926e6bad6c8d785e4c4ad57f48e61c",
            "txnIndex": 105,
            "type": 2,
            "value": "465000000000000000"
        },
        "fund_flow": [
            {
                "amount": "0.465",
                "from": "0xb19ae153a99c4f2eff2f65bbbe25cce4aebed41f",
                "id": 1,
                "isERC1155": false,
                "isERC721": false,
                "isReverted": false,
                "order": 1,
                "to": "0x49048044d57e1c92a77f79988d21fa8faf74e97e",
                "token": "0xeeeeeeeeeeeeeeeeeeeeeeeeeeeeeeeeeeeeeeee"
            }
        ],
        "token_infos": [
            {
                "address": "0xc02aaa39b223fe8d0a0e5c4f27ead9083c756cc2",
                "decimals": 18
            },
            {
                "address": "0xeeeeeeeeeeeeeeeeeeeeeeeeeeeeeeeeeeeeeeee",
                "decimals": 18
            }
        ]
    },
    "address_label": {
        "labels": [
            {
                "address": "0x0000000000000000000000000000000000000004",
                "label": "Precompiled"
            },
            {
                "address": "0xeeeeeeeeeeeeeeeeeeeeeeeeeeeeeeeeeeeeeeee",
                "label": "Ether"
            },
            {
                "address": "0x6481ff79597fe4f77e1063f615ec5bdaddeffd4b",
                "label": "SystemConfig"
            },
            {
                "address": "0x0000000000000000000000000000000000000003",
                "label": "Precompiled"
            },
            {
                "address": "0x0000000000000000000000000000000000000001",
                "label": "Precompiled"
            },
            {
                "address": "0x0000000000000000000000000000000000000002",
                "label": "Precompiled"
            },
            {
                "address": "0x5fb30336a8d0841cf15d452afa297cb6d10877d7",
                "label": "OptimismPortal"
            },
            {
                "address": "0x73a79fab69143498ed3712e519a88a918e1f4072",
                "label": "Proxy_73a7_4072"
            },
            {
                "address": "0x49048044d57e1c92a77f79988d21fa8faf74e97e",
                "label": "Base: Base Portal"
            }
        ]
    },
    "trace": {
        "accountLabels": null,
        "dataMap": {
            "-1": {
                "invocation": {
                    "address": "0xb19ae153a99c4f2eff2f65bbbe25cce4aebed41f",
                    "callData": "",
                    "decodedMethod": null,
                    "errorInfo": "",
                    "fromAddress": "",
                    "gasUsed": 0,
                    "id": -1,
                    "methodDecoded": false,
                    "operation": "",
                    "output": "",
                    "revert": false,
                    "revertMessage": "",
                    "selector": "",
                    "status": false,
                    "value": ""
                },
                "nodeType": 0
            },
            "0": {
                "invocation": {
                    "address": "0x49048044d57e1c92a77f79988d21fa8faf74e97e",
                    "callData": "0x000000000000000000000000b19ae153a99c4f2eff2f65bbbe25cce4aebed41f000000000000000000000000000000000000000000000000067403094c8e800000000000000000000000000000000000000000000000000000000000000186a0000000000000000000000000000000000000000000000000000000000000000000000000000000000000000000000000000000000000000000000000000000a000000000000000000000000000000000000000000000000000000000000000010100000000000000000000000000000000000000000000000000000000000000",
                    "decodedMethod": {
                        "callParams": [
                            {
                                "name": "_to",
                                "type": "address",
                                "value": "0xb19ae153a99c4f2eff2f65bbbe25cce4aebed41f"
                            },
                            {
                                "name": "_value",
                                "type": "uint256",
                                "value": "465,000,000,000,000,000"
                            },
                            {
                                "name": "_gasLimit",
                                "type": "uint64",
                                "value": "100,000"
                            },
                            {
                                "name": "_isCreation",
                                "type": "bool",
                                "value": false
                            },
                            {
                                "name": "_data",
                                "type": "bytes",
                                "value": "0x01"
                            }
                        ],
                        "constructorArguments": "",
                        "name": "depositTransaction",
                        "returnParams": [],
                        "signature": "depositTransaction(address,uint256,uint64,bool,bytes)"
                    },
                    "errorInfo": "",
                    "fromAddress": "0xb19ae153a99c4f2eff2f65bbbe25cce4aebed41f",
                    "gasUsed": 52606,
                    "id": 0,
                    "methodDecoded": true,
                    "operation": "CALL",
                    "output": "",
                    "revert": false,
                    "revertMessage": "",
                    "selector": "0xe9e05c42",
                    "status": true,
                    "value": "0.465"
                },
                "nodeType": 0
            },
            "1": {
                "invocation": {
                    "address": "0x5fb30336a8d0841cf15d452afa297cb6d10877d7",
                    "callData": "0x000000000000000000000000b19ae153a99c4f2eff2f65bbbe25cce4aebed41f000000000000000000000000000000000000000000000000067403094c8e800000000000000000000000000000000000000000000000000000000000000186a0000000000000000000000000000000000000000000000000000000000000000000000000000000000000000000000000000000000000000000000000000000a000000000000000000000000000000000000000000000000000000000000000010100000000000000000000000000000000000000000000000000000000000000",
                    "decodedMethod": {
                        "callParams": [
                            {
                                "name": "_to",
                                "type": "address",
                                "value": "0xb19ae153a99c4f2eff2f65bbbe25cce4aebed41f"
                            },
                            {
                                "name": "_value",
                                "type": "uint256",
                                "value": "465,000,000,000,000,000"
                            },
                            {
                                "name": "_gasLimit",
                                "type": "uint64",
                                "value": "100,000"
                            },
                            {
                                "name": "_isCreation",
                                "type": "bool",
                                "value": false
                            },
                            {
                                "name": "_data",
                                "type": "bytes",
                                "value": "0x01"
                            }
                        ],
                        "constructorArguments": "",
                        "name": "depositTransaction",
                        "returnParams": [],
                        "signature": "depositTransaction(address,uint256,uint64,bool,bytes)"
                    },
                    "errorInfo": "",
                    "fromAddress": "0x49048044d57e1c92a77f79988d21fa8faf74e97e",
                    "gasUsed": 25234,
                    "id": 1,
                    "methodDecoded": true,
                    "operation": "DELEGATECALL",
                    "output": "",
                    "revert": false,
                    "revertMessage": "",
                    "selector": "0xe9e05c42",
                    "status": true,
                    "value": "0.465"
                },
                "nodeType": 0
            },
            "2": {
                "event": {
                    "contract": "0x49048044d57e1c92a77f79988d21fa8faf74e97e",
                    "decodedLog": {
                        "name": "TransactionDeposited",
                        "params": [
                            {
                                "name": "from",
                                "type": "address",
                                "value": "0xb19ae153a99c4f2eff2f65bbbe25cce4aebed41f"
                            },
                            {
                                "name": "to",
                                "type": "address",
                                "value": "0xb19ae153a99c4f2eff2f65bbbe25cce4aebed41f"
                            },
                            {
                                "name": "version",
                                "type": "uint256",
                                "value": "0"
                            },
                            {
                                "name": "opaqueData",
                                "type": "bytes",
                                "value": "0x000000000000000000000000000000000000000000000000067403094c8e8000000000000000000000000000000000000000000000000000067403094c8e800000000000000186a00001"
                            }
                        ],
                        "signature": "TransactionDeposited(address,address,uint256,bytes)"
                    },
                    "id": 2,
                    "logData": "0x0000000000000000000000000000000000000000000000000000000000000020000000000000000000000000000000000000000000000000000000000000004a000000000000000000000000000000000000000000000000067403094c8e8000000000000000000000000000000000000000000000000000067403094c8e800000000000000186a0000100000000000000000000000000000000000000000000",
                    "logDecoded": true,
                    "operation": "EVENT",
                    "revert": false,
                    "status": true,
                    "topics": [
                        "0xb3813568d9991fc951961fcb4c784893574240a28925604d09fc577c55bb7c32",
                        "0x000000000000000000000000b19ae153a99c4f2eff2f65bbbe25cce4aebed41f",
                        "0x000000000000000000000000b19ae153a99c4f2eff2f65bbbe25cce4aebed41f",
                        "0x0000000000000000000000000000000000000000000000000000000000000000"
                    ]
                },
                "nodeType": 1
            },
            "3": {
                "invocation": {
                    "address": "0x73a79fab69143498ed3712e519a88a918e1f4072",
                    "callData": "0x",
                    "decodedMethod": {
                        "callParams": [],
                        "constructorArguments": "",
                        "name": "resourceConfig",
                        "returnParams": [
                            {
                                "name": "",
                                "type": "(uint32,uint8,uint8,uint32,uint32,uint128)",
                                "value": [
                                    {
                                        "name": "maxResourceLimit",
                                        "type": "uint32",
                                        "value": "20,000,000"
                                    },
                                    {
                                        "name": "elasticityMultiplier",
                                        "type": "uint8",
                                        "value": "10"
                                    },
                                    {
                                        "name": "baseFeeMaxChangeDenominator",
                                        "type": "uint8",
                                        "value": "8"
                                    },
                                    {
                                        "name": "minimumBaseFee",
                                        "type": "uint32",
                                        "value": "1,000,000,000"
                                    },
                                    {
                                        "name": "systemTxMaxGas",
                                        "type": "uint32",
                                        "value": "1,000,000"
                                    },
                                    {
                                        "name": "maximumBaseFee",
                                        "type": "uint128",
                                        "value": "340,282,366,920,938,463,463,374,607,431,768,211,455"
                                    }
                                ]
                            }
                        ],
                        "signature": "resourceConfig()"
                    },
                    "errorInfo": "",
                    "fromAddress": "0x49048044d57e1c92a77f79988d21fa8faf74e97e",
                    "gasUsed": 7947,
                    "id": 3,
                    "methodDecoded": true,
                    "operation": "STATICCALL",
                    "output": "0x0000000000000000000000000000000000000000000000000000000001312d00000000000000000000000000000000000000000000000000000000000000000a0000000000000000000000000000000000000000000000000000000000000008000000000000000000000000000000000000000000000000000000003b9aca0000000000000000000000000000000000000000000000000000000000000f424000000000000000000000000000000000ffffffffffffffffffffffffffffffff",
                    "revert": false,
                    "revertMessage": "",
                    "selector": "0xcc731b02",
                    "status": true,
                    "value": "0"
                },
                "nodeType": 0
            },
            "4": {
                "invocation": {
                    "address": "0x6481ff79597fe4f77e1063f615ec5bdaddeffd4b",
                    "callData": "0x",
                    "decodedMethod": {
                        "callParams": [],
                        "constructorArguments": "",
                        "name": "resourceConfig",
                        "returnParams": [
                            {
                                "name": "",
                                "type": "(uint32,uint8,uint8,uint32,uint32,uint128)",
                                "value": [
                                    {
                                        "name": "maxResourceLimit",
                                        "type": "uint32",
                                        "value": "20,000,000"
                                    },
                                    {
                                        "name": "elasticityMultiplier",
                                        "type": "uint8",
                                        "value": "10"
                                    },
                                    {
                                        "name": "baseFeeMaxChangeDenominator",
                                        "type": "uint8",
                                        "value": "8"
                                    },
                                    {
                                        "name": "minimumBaseFee",
                                        "type": "uint32",
                                        "value": "1,000,000,000"
                                    },
                                    {
                                        "name": "systemTxMaxGas",
                                        "type": "uint32",
                                        "value": "1,000,000"
                                    },
                                    {
                                        "name": "maximumBaseFee",
                                        "type": "uint128",
                                        "value": "340,282,366,920,938,463,463,374,607,431,768,211,455"
                                    }
                                ]
                            }
                        ],
                        "signature": "resourceConfig()"
                    },
                    "errorInfo": "",
                    "fromAddress": "0x73a79fab69143498ed3712e519a88a918e1f4072",
                    "gasUsed": 2940,
                    "id": 4,
                    "methodDecoded": true,
                    "operation": "DELEGATECALL",
                    "output": "0x0000000000000000000000000000000000000000000000000000000001312d00000000000000000000000000000000000000000000000000000000000000000a0000000000000000000000000000000000000000000000000000000000000008000000000000000000000000000000000000000000000000000000003b9aca0000000000000000000000000000000000000000000000000000000000000f424000000000000000000000000000000000ffffffffffffffffffffffffffffffff",
                    "revert": false,
                    "revertMessage": "",
                    "selector": "0xcc731b02",
                    "status": true,
                    "value": "0"
                },
                "nodeType": 0
            }
        },
        "gasFlame": [
            {
                "children": [
                    {
                        "children": [
                            {
                                "children": [],
                                "depth": 0,
                                "name": "Initial Gas",
                                "value": 22356
                            },
                            {
                                "children": [
                                    {
                                        "children": [
                                            {
                                                "children": [
                                                    {
                                                        "children": [],
                                                        "depth": 3,
                                                        "name": "resourceConfig",
                                                        "value": 2940
                                                    }
                                                ],
                                                "depth": 2,
                                                "name": "resourceConfig",
                                                "value": 7947
                                            }
                                        ],
                                        "depth": 1,
                                        "name": "depositTransaction",
                                        "value": 25234
                                    }
                                ],
                                "depth": 0,
                                "name": "Executed Gas",
                                "value": 30250
                            }
                        ],
                        "depth": -1,
                        "name": "Actual Gas Used",
                        "value": 52606
                    },
                    {
                        "children": [],
                        "depth": -1,
                        "name": "Refunded Gas",
                        "value": 0
                    }
                ],
                "depth": -2,
                "name": "Total Gas",
                "value": 52606
            }
        ],
        "isConfirmed": true,
        "mainTrace": [
            {
                "children": [
                    {
                        "children": [
                            {
                                "children": [
                                    {
                                        "children": [],
                                        "depth": 2,
                                        "id": 2,
                                        "order": 2
                                    },
                                    {
                                        "children": [
                                            {
                                                "children": [],
                                                "depth": 3,
                                                "id": 4,
                                                "order": 4
                                            }
                                        ],
                                        "depth": 2,
                                        "id": 3,
                                        "order": 3
                                    }
                                ],
                                "depth": 1,
                                "id": 1,
                                "order": 1
                            }
                        ],
                        "depth": 0,
                        "id": 0,
                        "order": 0
                    }
                ],
                "depth": -1,
                "id": -1,
                "order": -1
            }
        ],
        "mainTraceNodeCount": 5,
        "parentIdMap": {
            "0": -1,
            "1": 0,
            "2": 1,
            "3": 1,
            "4": 3
        },
        "tidyTrace": [
            {
                "children": [
                    {
                        "children": [
                            {
                                "children": [
                                    {
                                        "children": [],
                                        "depth": 2,
                                        "id": 2,
                                        "order": 2
                                    }
                                ],
                                "depth": 1,
                                "id": 1,
                                "order": 1
                            }
                        ],
                        "depth": 0,
                        "id": 0,
                        "order": 0
                    }
                ],
                "depth": -1,
                "id": -1,
                "order": -1
            }
        ],
        "tidyTraceNodeCount": 3
    },
    "state_change": {
        "stateChanges": [
            {
                "address": "0x49048044d57e1c92a77f79988d21fa8faf74e97e",
                "erc": "",
                "slots": [
                    {
                        "current": "0x000000000114f1f500000000000186a00000000000000000000000003b9aca00",
                        "key": "0x0000000000000000000000000000000000000000000000000000000000000001",
                        "prev": "0x000000000114f1f400000000000465880000000000000000000000003b9aca00"
                    }
                ],
                "storageVariables": [
                    {
                        "name": "params",
                        "type": "struct ResourceMetering.ResourceParams",
                        "value": {
                            "fields": [
                                {
                                    "name": "prevBaseFee",
                                    "type": "uint128",
                                    "value": {
                                        "current": "1000000000",
                                        "prev": "1000000000",
                                        "typeTag": 1
                                    }
                                },
                                {
                                    "name": "prevBoughtGas",
                                    "type": "uint64",
                                    "value": {
                                        "current": "100000",
                                        "prev": "288136",
                                        "typeTag": 1
                                    }
                                },
                                {
                                    "name": "prevBlockNum",
                                    "type": "uint64",
                                    "value": {
                                        "current": "18149877",
                                        "prev": "18149876",
                                        "typeTag": 1
                                    }
                                }
                            ],
                            "typeTag": 3
                        }
                    }
                ]
            }
        ]
    }
}