{
    "balance_change": {
        "balanceChanges": [
            {
                "account": "0x2faf487a4414fe77e2327f0bf4ae2a264a776ad2",
                "assets": [
                    {
                        "address": "0xa0b73e1ff0b80914ab6fe0444e65848c4c34450b",
                        "amount": "5,090.33653765",
                        "iconUrl": "https://assets.blocksec.com/icon/c63eb011a529b5a138fe837b28152548f9dd51dd5dac5c193d96379dd6e9d02f.png",
                        "isERC1155": false,
                        "isERC721": false,
                        "sign": false,
                        "value": "2954.878416"
                    }
                ]
            },
            {
                "account": "0xdfc149f9b0f5c66b6fc464769ed5dfdeea2f01ab",
                "assets": [
                    {
                        "address": "0xa0b73e1ff0b80914ab6fe0444e65848c4c34450b",
                        "amount": "5,090.33653765",
                        "iconUrl": "https://assets.blocksec.com/icon/c63eb011a529b5a138fe837b28152548f9dd51dd5dac5c193d96379dd6e9d02f.png",
                        "isERC1155": false,
                        "isERC721": false,
                        "sign": true,
                        "value": "2954.878416"
                    }
                ]
            }
        ]
    },
    "profile": {
        "basic_info": {
            "baseFee": "35.398716",
            "blockNumber": 13795945,
            "callData": "0xa9059cbb000000000000000000000000dfc149f9b0f5c66b6fc464769ed5dfdeea2f01ab0000000000000000000000000000000000000000000000000000007684c52605",
            "debugEnable": true,
            "errorInfo": "",
            "eventCount": 1,
            "feeRecipient": "0xea674fdde714fd979de3edf0f56aa9716b898ec8",
            "formatValue": "0",
            "gasLimit": 62938,
            "gasPrice": "41.908716",
            "gasUsed": 37449,
            "intTxnCount": 0,
            "internalRevert": false,
            "internalRevertMessage": "",
            "isContractCreation": false,
            "isFlashloan": false,
            "maxFee": "1000",
            "nonce": 2779278,
            "overwritedBlockNumber": -1,
            "priorityFee": "6.51",
            "receiver": "0xa0b73e1ff0b80914ab6fe0444e65848c4c34450b",
            "revertMessage": "",
            "sender": "0x2faf487a4414fe77e2327f0bf4ae2a264a776ad2",
            "simulationEnable": true,
            "sourceTxnHash": "0xb3e5ba22b321c560ac00df4b8c49d5d422ba399c127dacfc3547d07392cfbd45",
            "status": true,
            "timestamp": "2021-12-13T09:15:19Z",
            "transactionFee": "0.001569439505484",
            "txnHash": "0xb3e5ba22b321c560ac00df4b8c49d5d422ba399c127dacfc3547d07392cfbd45",
            "txnIndex": 37,
            "type": 2,
            "value": "0"
        },
        "fund_flow": [
            {
                "amount": "5,090.33653765",
                "from": "0x2faf487a4414fe77e2327f0bf4ae2a264a776ad2",
                "id": 1,
                "isERC1155": false,
                "isERC721": false,
                "isReverted": false,
                "order": 1,
                "to": "0xdfc149f9b0f5c66b6fc464769ed5dfdeea2f01ab",
                "token": "0xa0b73e1ff0b80914ab6fe0444e65848c4c34450b"
            }
        ],
        "token_infos": [
            {
                "address": "0xa0b73e1ff0b80914ab6fe0444e65848c4c34450b",
                "decimals": 8
            },
            {
                "address": "0xc02aaa39b223fe8d0a0e5c4f27ead9083c756cc2",
                "decimals": 18
            },
            {
                "address": "0xeeeeeeeeeeeeeeeeeeeeeeeeeeeeeeeeeeeeeeee",
                "decimals": 18
            }
        ]
    },
    "address_label": {
        "labels": [
            {
                "address": "0x0000000000000000000000000000000000000002",
                "label": "Precompiled"
            },
            {
                "address": "0x0000000000000000000000000000000000000003",
                "label": "Precompiled"
            },
            {
                "address": "0x0000000000000000000000000000000000000004",
                "label": "Precompiled"
            },
            {
                "address": "0xeeeeeeeeeeeeeeeeeeeeeeeeeeeeeeeeeeeeeeee",
                "label": "Ether"
            },
            {
                "address": "0x2faf487a4414fe77e2327f0bf4ae2a264a776ad2",
                "label": "FTX Exchange"
            },
            {
                "address": "0xa0b73e1ff0b80914ab6fe0444e65848c4c34450b",
                "label": "Cronos Coin: CRO Token"
            },
            {
                "address": "0xdfc149f9b0f5c66b6fc464769ed5dfdeea2f01ab",
                "label": "CRYPTO.COM"
            },
            {
                "address": "0x0000000000000000000000000000000000000001",
                "label": "Precompiled"
            }
        ]
    },
    "trace": {
        "accountLabels": null,
        "dataMap": {
            "-1": {
                "invocation": {
                    "address": "0x2faf487a4414fe77e2327f0bf4ae2a264a776ad2",
                    "callData": "",
                    "decodedMethod": null,
                    "errorInfo": "",
                    "fromAddress": "",
                    "gasUsed": 0,
                    "id": -1,
                    "methodDecoded": false,
                    "operation": "",
                    "output": "",
                    "revert": false,
                    "revertMessage": "",
                    "selector": "",
                    "status": false,
                    "value": ""
                },
                "nodeType": 0
            },
            "0": {
                "invocation": {
                    "address": "0xa0b73e1ff0b80914ab6fe0444e65848c4c34450b",
                    "callData": "0x000000000000000000000000dfc149f9b0f5c66b6fc464769ed5dfdeea2f01ab0000000000000000000000000000000000000000000000000000007684c52605",
                    "decodedMethod": {
                        "callParams": [
                            {
                                "name": "_to",
                                "type": "address",
                                "value": "0xdfc149f9b0f5c66b6fc464769ed5dfdeea2f01ab"
                            },
                            {
                                "decimalAvailable": true,
                                "name": "_value",
                                "type": "uint256",
                                "value": "509,033,653,765"
                            }
                        ],
                        "constructorArguments": "",
                        "name": "transfer",
                        "returnParams": [
                            {
                                "name": "success",
                                "type": "bool",
                                "value": true
                            }
                        ],
                        "signature": "transfer(address,uint256)"
                    },
                    "errorInfo": "",
                    "fromAddress": "0x2faf487a4414fe77e2327f0bf4ae2a264a776ad2",
                    "gasUsed": 37449,
                    "id": 0,
                    "methodDecoded": true,
                    "operation": "CALL",
                    "output": "0x0000000000000000000000000000000000000000000000000000000000000001",
                    "revert": false,
                    "revertMessage": "",
                    "selector": "0xa9059cbb",
                    "status": true,
                    "value": "0"
                },
                "nodeType": 0
            },
            "1": {
                "event": {
                    "contract": "0xa0b73e1ff0b80914ab6fe0444e65848c4c34450b",
                    "decodedLog": {
                        "name": "Transfer",
                        "params": [
                            {
                                "name": "from",
                                "type": "address",
                                "value": "0x2faf487a4414fe77e2327f0bf4ae2a264a776ad2"
                            },
                            {
                                "name": "to",
                                "type": "address",
                                "value": "0xdfc149f9b0f5c66b6fc464769ed5dfdeea2f01ab"
                            },
                            {
                                "decimalAvailable": true,
                                "name": "value",
                                "type": "uint256",
                                "value": "509,033,653,765"
                            }
                        ],
                        "signature": "Transfer(address,address,uint256)"
                    },
                    "id": 1,
                    "logData": "0x0000000000000000000000000000000000000000000000000000007684c52605",
                    "logDecoded": true,
                    "operation": "EVENT",
                    "revert": false,
                    "status": true,
                    "topics": [
                        "0xddf252ad1be2c89b69c2b068fc378daa952ba7f163c4a11628f55a4df523b3ef",
                        "0x0000000000000000000000002faf487a4414fe77e2327f0bf4ae2a264a776ad2",
                        "0x000000000000000000000000dfc149f9b0f5c66b6fc464769ed5dfdeea2f01ab"
                    ]
                },
                "nodeType": 1
            }
        },
        "gasFlame": [
            {
                "children": [
                    {
                        "children": [
                            {
                                "children": [],
                                "depth": 0,
                                "name": "Initial Gas",
                                "value": 21620
                            },
                            {
                                "children": [],
                                "depth": 0,
                                "name": "Executed Gas",
                                "value": 15829
                            }
                        ],
                        "depth": -1,
                        "name": "Actual Gas Used",
                        "value": 37449
                    },
                    {
                        "children": [],
                        "depth": -1,
                        "name": "Refunded Gas",
                        "value": 0
                    }
                ],
                "depth": -2,
                "name": "Total Gas",
                "value": 37449
            }
        ],
        "isConfirmed": true,
        "mainTrace": [
            {
                "children": [
                    {
                        "children": [
                            {
                                "children": [],
                                "depth": 1,
                                "id": 1,
                                "order": 1
                            }
                        ],
                        "depth": 0,
                        "id": 0,
                        "order": 0
                    }
                ],
                "depth": -1,
                "id": -1,
                "order": -1
            }
        ],
        "mainTraceNodeCount": 2,
        "parentIdMap": {
            "0": -1,
            "1": 0
        },
        "tidyTrace": [
            {
                "children": [
                    {
                        "children": [
                            {
                                "children": [],
                                "depth": 1,
                                "id": 1,
                                "order": 1
                            }
                        ],
                        "depth": 0,
                        "id": 0,
                        "order": 0
                    }
                ],
                "depth": -1,
                "id": -1,
                "order": -1
            }
        ],
        "tidyTraceNodeCount": 2
    },
    "state_change": {
        "stateChanges": [
            {
                "address": "0xa0b73e1ff0b80914ab6fe0444e65848c4c34450b",
                "erc": "ERC-20",
                "slots": [
                    {
                        "current": "0x000000000000000000000000000000000000000000000000000ee1c282c479a2",
                        "key": "0x0895b50d920716c7d4f1076d56bc7f0dffc2b78a8edd3b6944dd6e826d85d149",
                        "prev": "0x000000000000000000000000000000000000000000000000000ee23907899fa7"
                    },
                    {
                        "current": "0x0000000000000000000000000000000000000000000000000000007690b0e805",
                        "key": "0x0c501b7bd06cfdc8d65dfea909ceae92c22666131063613fed396e28a4678878",
                        "prev": "0x000000000000000000000000000000000000000000000000000000000bebc200"
                    }
                ],
                "storageVariables": [
                    {
                        "name": "balances",
                        "type": "mapping(address => uint256)",
                        "value": {
                            "pairs": [
                                {
                                    "key": "0x2faf487a4414fe77e2327f0bf4ae2a264a776ad2",
                                    "value": {
                                        "current": "4188875207768482",
                                        "prev": "4189384241422247",
                                        "typeTag": 1
                                    }
                                },
                                {
                                    "key": "0xdfc149f9b0f5c66b6fc464769ed5dfdeea2f01ab",
                                    "value": {
                                        "current": "509233653765",
                                        "prev": "200000000",
                                        "typeTag": 1
                                    }
                                }
                            ],
                            "typeTag": 4
                        }
                    }
                ]
            }
        ]
    }
}