{
    "balance_change": {
        "balanceChanges": [
            {
                "account": "0x51399b32cd0186bb32230e24167489f3b2f47870",
                "assets": [
                    {
                        "address": "0xc02aaa39b223fe8d0a0e5c4f27ead9083c756cc2",
                        "amount": "137.340664781376749567",
                        "iconUrl": "https://assets.blocksec.com/icon/f1cb2d02c471d545bbc7722daf3277fd852d98e63d118771af7047bd8256c516.png",
                        "isERC1155": false,
                        "isERC721": false,
                        "sign": false,
                        "value": "636135.59296745304823"
                    },
                    {
                        "address": "0xdac17f958d2ee523a2206206994597c13d831ec7",
                        "amount": "594,013.687062",
                        "iconUrl": "https://assets.blocksec.com/icon/fcea71f3193ce895be44bfdf941f7e4c9381dd587f273c2d1a27f1263d84e4ea.png",
                        "isERC1155": false,
                        "isERC721": false,
                        "sign": true,
                        "value": "594607.7008"
                    },
                    {
                        "address": "0xeeeeeeeeeeeeeeeeeeeeeeeeeeeeeeeeeeeeeeee",
                        "amount": "0.10978861627470008",
                        "iconUrl": "https://assets.blocksec.com/image/1663669189317-3.png",
                        "isERC1155": false,
                        "isERC721": false,
                        "sign": false,
                        "value": "508.51979370261997665"
                    }
                ]
            },
            {
                "account": "0x8f03f1a3f10c05e7cccf75c1fd10168e06659be7",
                "assets": [
                    {
                        "address": "0xeeeeeeeeeeeeeeeeeeeeeeeeeeeeeeeeeeeeeeee",
                        "amount": "0.10978861627470008",
                        "iconUrl": "https://assets.blocksec.com/image/1663669189317-3.png",
                        "isERC1155": false,
                        "isERC721": false,
                        "sign": true,
                        "value": "508.51979370261997665"
                    }
                ]
            },
            {
                "account": "0xd51a44d3fae010294c616388b506acda1bfaae46",
                "assets": [
                    {
                        "address": "0xc02aaa39b223fe8d0a0e5c4f27ead9083c756cc2",
                        "amount": "137.340664781376749567",
                        "iconUrl": "https://assets.blocksec.com/icon/f1cb2d02c471d545bbc7722daf3277fd852d98e63d118771af7047bd8256c516.png",
                        "isERC1155": false,
                        "isERC721": false,
                        "sign": true,
                        "value": "636135.59296745304823"
                    },
                    {
                        "address": "0xdac17f958d2ee523a2206206994597c13d831ec7",
                        "amount": "594,013.687062",
                        "iconUrl": "https://assets.blocksec.com/icon/fcea71f3193ce895be44bfdf941f7e4c9381dd587f273c2d1a27f1263d84e4ea.png",
                        "isERC1155": false,
                        "isERC721": false,
                        "sign": false,
                        "value": "594607.7008"
                    }
                ]
            }
        ]
    },
    "profile": {
        "basic_info": {
            "baseFee": "146.514367784",
            "blockNumber": 13661140,
            "callData": "0x09839cb7000000000000000000000000000000000000000000000000000000000000000700000000000000000000000000000000000000000000000000013cc2211035d7000000000000000000000000000000000000000000000000000000000000008000000000000000000000000000000000000000000000000001860c2a316f673000000000000000000000000000000000000000000000000000000000000000845b41b9080000000000000000000000000000000000000000000000000000000000000002000000000000000000000000000000000000000000000000000000000000000000000000000000000000000000000000000000000000000771fc0ef4e5f680000000000000000000000000000000000000000000000000000000008a3fcffab300000000000000000000000000000000000000000000000000000000",
            "debugEnable": true,
            "errorInfo": "",
            "eventCount": 3,
            "feeRecipient": "0x8f03f1a3f10c05e7cccf75c1fd10168e06659be7",
            "formatValue": "0",
            "gasLimit": 1228431,
            "gasPrice": "146.514367784",
            "gasUsed": 387358,
            "intTxnCount": 14,
            "internalRevert": false,
            "internalRevertMessage": "",
            "isContractCreation": false,
            "isFlashloan": false,
            "maxFee": "299.424166602",
            "nonce": 497,
            "overwritedBlockNumber": -1,
            "priorityFee": "0",
            "receiver": "0x51399b32cd0186bb32230e24167489f3b2f47870",
            "revertMessage": "",
            "sender": "0x29aef9fe7587794c12100ddf7ba953d1cbc847ad",
            "simulationEnable": true,
            "sourceTxnHash": "0xb3a69feb5a8dc49dbbd97032d3e1907e2284262264c4cf5398277e2378876262",
            "status": true,
            "timestamp": "2021-11-21T23:44:18Z",
            "transactionFee": "0.056753512476074672",
            "txnHash": "0xb3a69feb5a8dc49dbbd97032d3e1907e2284262264c4cf5398277e2378876262",
            "txnIndex": 1,
            "type": 2,
            "value": "0"
        },
        "fund_flow": [
            {
                "amount": "137.340664781376749567",
                "from": "0x51399b32cd0186bb32230e24167489f3b2f47870",
                "id": 1,
                "isERC1155": false,
                "isERC721": false,
                "isReverted": false,
                "order": 1,
                "to": "0xd51a44d3fae010294c616388b506acda1bfaae46",
                "token": "0xc02aaa39b223fe8d0a0e5c4f27ead9083c756cc2"
            },
            {
                "amount": "594,013.687062",
                "from": "0xd51a44d3fae010294c616388b506acda1bfaae46",
                "id": 2,
                "isERC1155": false,
                "isERC721": false,
                "isReverted": false,
                "order": 2,
                "to": "0x51399b32cd0186bb32230e24167489f3b2f47870",
                "token": "0xdac17f958d2ee523a2206206994597c13d831ec7"
            },
            {
                "amount": "0.10978861627470008",
                "from": "0x51399b32cd0186bb32230e24167489f3b2f47870",
                "id": 3,
                "isERC1155": false,
                "isERC721": false,
                "isReverted": false,
                "order": 3,
                "to": "0x8f03f1a3f10c05e7cccf75c1fd10168e06659be7",
                "token": "0xeeeeeeeeeeeeeeeeeeeeeeeeeeeeeeeeeeeeeeee"
            }
        ],
        "token_infos": [
            {
                "address": "0xc02aaa39b223fe8d0a0e5c4f27ead9083c756cc2",
                "decimals": 18
            },
            {
                "address": "0xdac17f958d2ee523a2206206994597c13d831ec7",
                "decimals": 6
            },
            {
                "address": "0xeeeeeeeeeeeeeeeeeeeeeeeeeeeeeeeeeeeeeeee",
                "decimals": 18
            }
        ]
    },
    "address_label": {
        "labels": [
            {
                "address": "0x0000000000000000000000000000000000000004",
                "label": "Precompiled"
            },
            {
                "address": "0x51399b32cd0186bb32230e24167489f3b2f47870",
                "label": "MEV Bot: 0x513...870"
            },
            {
                "address": "0xc02aaa39b223fe8d0a0e5c4f27ead9083c756cc2",
                "label": "Wrapped Ether (WETH)"
            },
            {
                "address": "0xdac17f958d2ee523a2206206994597c13d831ec7",
                "label": "Tether: USDT Stablecoin"
            },
            {
                "address": "0x8f03f1a3f10c05e7cccf75c1fd10168e06659be7",
                "label": "Miner: 0x8f0...be7"
            },
            {
                "address": "0x0000000000000000000000000000000000000002",
                "label": "Precompiled"
            },
            {
                "address": "0x0000000000000000000000000000000000000003",
                "label": "Precompiled"
            },
            {
                "address": "0xeeeeeeeeeeeeeeeeeeeeeeeeeeeeeeeeeeeeeeee",
                "label": "Ether"
            },
            {
                "address": "0xd51a44d3fae010294c616388b506acda1bfaae46",
                "label": "Curve.fi: USDT/WBTC/WETH Pool"
            },
            {
                "address": "0x8f68f4810cce3194b6cb6f3d50fa58c2c9bdd1d5",
                "label": "Vyper_contract"
            },
            {
                "address": "0xc4ad29ba4b3c580e6d59105fff484999997675ff",
                "label": "Curve.fi USD-BTC-ETH (crv3crypto)"
            },
            {
                "address": "0x0000000000000000000000000000000000000001",
                "label": "Precompiled"
            }
        ]
    },
    "trace": {
        "accountLabels": null,
        "dataMap": {
            "-1": {
                "invocation": {
                    "address": "0x29aef9fe7587794c12100ddf7ba953d1cbc847ad",
                    "callData": "",
                    "decodedMethod": null,
                    "errorInfo": "",
                    "fromAddress": "",
                    "gasUsed": 0,
                    "id": -1,
                    "methodDecoded": false,
                    "operation": "",
                    "output": "",
                    "revert": false,
                    "revertMessage": "",
                    "selector": "",
                    "status": false,
                    "value": ""
                },
                "nodeType": 0
            },
            "0": {
                "invocation": {
                    "address": "0x51399b32cd0186bb32230e24167489f3b2f47870",
                    "callData": "0x000000000000000000000000000000000000000000000000000000000000000700000000000000000000000000000000000000000000000000013cc2211035d7000000000000000000000000000000000000000000000000000000000000008000000000000000000000000000000000000000000000000001860c2a316f673000000000000000000000000000000000000000000000000000000000000000845b41b9080000000000000000000000000000000000000000000000000000000000000002000000000000000000000000000000000000000000000000000000000000000000000000000000000000000000000000000000000000000771fc0ef4e5f680000000000000000000000000000000000000000000000000000000008a3fcffab300000000000000000000000000000000000000000000000000000000",
                    "decodedMethod": null,
                    "errorInfo": "",
                    "fromAddress": "0x29aef9fe7587794c12100ddf7ba953d1cbc847ad",
                    "gasUsed": 387358,
                    "id": 0,
                    "methodDecoded": false,
                    "operation": "CALL",
                    "output": "",
                    "revert": false,
                    "revertMessage": "",
                    "selector": "0x09839cb7",
                    "status": true,
                    "value": "0"
                },
                "nodeType": 0
            },
            "1": {
                "invocation": {
                    "address": "0xd51a44d3fae010294c616388b506acda1bfaae46",
                    "callData": "0x0000000000000000000000000000000000000000000000000000000000000000",
                    "decodedMethod": {
                        "callParams": [
                            {
                                "name": "i",
                                "type": "uint256",
                                "value": "0"
                            }
                        ],
                        "constructorArguments": "",
                        "name": "balances",
                        "returnParams": [
                            {
                                "name": "",
                                "type": "uint256",
                                "value": "348,279,452,743,127"
                            }
                        ],
                        "signature": "balances(uint256)"
                    },
                    "errorInfo": "",
                    "fromAddress": "0x51399b32cd0186bb32230e24167489f3b2f47870",
                    "gasUsed": 3615,
                    "id": 1,
                    "methodDecoded": true,
                    "operation": "STATICCALL",
                    "output": "0x00000000000000000000000000000000000000000000000000013cc2211035d7",
                    "revert": false,
                    "revertMessage": "",
                    "selector": "0x4903b0d1",
                    "status": true,
                    "value": "0"
                },
                "nodeType": 0
            },
            "10": {
                "invocation": {
                    "address": "0x8f68f4810cce3194b6cb6f3d50fa58c2c9bdd1d5",
                    "callData": "0x00000000000000000000000000000000000000000000000000000000001a0e6d00000000000000000000000000000000000000000000000000000abd8940e8050000000000000000000000000000000000000000011f99416b163d7402f110000000000000000000000000000000000000000000011b5fe68556515d0c3c1a6e0000000000000000000000000000000000000000011dd54ac98fc1e31e08fe2f",
                    "decodedMethod": {
                        "callParams": [
                            {
                                "name": "ANN",
                                "type": "uint256",
                                "value": "1,707,629"
                            },
                            {
                                "name": "gamma",
                                "type": "uint256",
                                "value": "11,809,167,828,997"
                            },
                            {
                                "name": "x_unsorted",
                                "type": "uint256[3]",
                                "value": [
                                    "347,685,439,056,065,000,000,000,000",
                                    "342,578,884,125,905,941,054,626,414",
                                    "345,551,102,234,122,508,227,378,735"
                                ]
                            }
                        ],
                        "constructorArguments": "",
                        "name": "newton_D",
                        "returnParams": [
                            {
                                "name": "",
                                "type": "uint256",
                                "value": "1,035,810,481,783,768,669,257,491,737"
                            }
                        ],
                        "signature": "newton_D(uint256,uint256,uint256[3])"
                    },
                    "errorInfo": "",
                    "fromAddress": "0xd51a44d3fae010294c616388b506acda1bfaae46",
                    "gasUsed": 39675,
                    "id": 10,
                    "methodDecoded": true,
                    "operation": "STATICCALL",
                    "output": "0x00000000000000000000000000000000000000000358cd66bb4e21cd91506519",
                    "revert": false,
                    "revertMessage": "",
                    "selector": "0xc7fab708",
                    "status": true,
                    "value": "0"
                },
                "nodeType": 0
            },
            "11": {
                "invocation": {
                    "address": "0xc4ad29ba4b3c580e6d59105fff484999997675ff",
                    "callData": "0x",
                    "decodedMethod": {
                        "callParams": [],
                        "constructorArguments": "",
                        "name": "totalSupply",
                        "returnParams": [
                            {
                                "name": "",
                                "type": "uint256",
                                "value": "542,537,833,682,003,445,442,817"
                            }
                        ],
                        "signature": "totalSupply()"
                    },
                    "errorInfo": "",
                    "fromAddress": "0xd51a44d3fae010294c616388b506acda1bfaae46",
                    "gasUsed": 2598,
                    "id": 11,
                    "methodDecoded": true,
                    "operation": "STATICCALL",
                    "output": "0x0000000000000000000000000000000000000000000072e308eefd24ee846901",
                    "revert": false,
                    "revertMessage": "",
                    "selector": "0x18160ddd",
                    "status": true,
                    "value": "0"
                },
                "nodeType": 0
            },
            "12": {
                "invocation": {
                    "address": "0x8f68f4810cce3194b6cb6f3d50fa58c2c9bdd1d5",
                    "callData": "0x0000000000000000000000000000000000000000011d99cce91a0b4485c5770800000000000000000000000000000000000000000000013e9f169e295adef6120000000000000000000000000000000000000000000010f5815d9c46d14f0cd2",
                    "decodedMethod": {
                        "callParams": [
                            {
                                "name": "_x",
                                "type": "uint256[3]",
                                "value": [
                                    "345,270,160,594,589,556,419,163,912",
                                    "5,877,528,139,241,610,999,314",
                                    "80,086,637,802,604,863,622,354"
                                ]
                            }
                        ],
                        "constructorArguments": "",
                        "name": "geometric_mean",
                        "returnParams": [
                            {
                                "name": "",
                                "type": "uint256",
                                "value": "545,721,765,030,559,119,108,311"
                            }
                        ],
                        "signature": "geometric_mean(uint256[3])"
                    },
                    "errorInfo": "",
                    "fromAddress": "0xd51a44d3fae010294c616388b506acda1bfaae46",
                    "gasUsed": 26310,
                    "id": 12,
                    "methodDecoded": true,
                    "operation": "STATICCALL",
                    "output": "0x00000000000000000000000000000000000000000000738fa2db7176e1e0e8d7",
                    "revert": false,
                    "revertMessage": "",
                    "selector": "0xbad1dc26",
                    "status": true,
                    "value": "0"
                },
                "nodeType": 0
            },
            "13": {
                "invocation": {
                    "address": "0x8f68f4810cce3194b6cb6f3d50fa58c2c9bdd1d5",
                    "callData": "0x00000000000000000000000000000000000000000000000000001946bcbcb2bd",
                    "decodedMethod": {
                        "callParams": [
                            {
                                "name": "x",
                                "type": "uint256",
                                "value": "27,791,604,888,253"
                            }
                        ],
                        "constructorArguments": "",
                        "name": "sqrt_int",
                        "returnParams": [
                            {
                                "name": "",
                                "type": "uint256",
                                "value": "5,271,774,358,624,712"
                            }
                        ],
                        "signature": "sqrt_int(uint256)"
                    },
                    "errorInfo": "",
                    "fromAddress": "0xd51a44d3fae010294c616388b506acda1bfaae46",
                    "gasUsed": 4069,
                    "id": 13,
                    "methodDecoded": true,
                    "operation": "STATICCALL",
                    "output": "0x0000000000000000000000000000000000000000000000000012baa69dfb59c8",
                    "revert": false,
                    "revertMessage": "",
                    "selector": "0x4e60b141",
                    "status": true,
                    "value": "0"
                },
                "nodeType": 0
            },
            "14": {
                "invocation": {
                    "address": "0x8f68f4810cce3194b6cb6f3d50fa58c2c9bdd1d5",
                    "callData": "0x00000000000000000000000000000000000000000000000000000000001a0e6d00000000000000000000000000000000000000000000000000000abd8940e8050000000000000000000000000000000000000000011f99416b163d7402f110000000000000000000000000000000000000000000011bcee487e28e4aaf8a22110000000000000000000000000000000000000000011e338b2fe04671d1cca04e",
                    "decodedMethod": {
                        "callParams": [
                            {
                                "name": "ANN",
                                "type": "uint256",
                                "value": "1,707,629"
                            },
                            {
                                "name": "gamma",
                                "type": "uint256",
                                "value": "11,809,167,828,997"
                            },
                            {
                                "name": "x_unsorted",
                                "type": "uint256[3]",
                                "value": [
                                    "347,685,439,056,065,000,000,000,000",
                                    "343,103,030,095,605,000,414,306,833",
                                    "345,996,192,647,671,310,730,436,686"
                                ]
                            }
                        ],
                        "constructorArguments": "",
                        "name": "newton_D",
                        "returnParams": [
                            {
                                "name": "",
                                "type": "uint256",
                                "value": "1,036,781,272,802,935,721,075,227,640"
                            }
                        ],
                        "signature": "newton_D(uint256,uint256,uint256[3])"
                    },
                    "errorInfo": "",
                    "fromAddress": "0xd51a44d3fae010294c616388b506acda1bfaae46",
                    "gasUsed": 39575,
                    "id": 14,
                    "methodDecoded": true,
                    "operation": "STATICCALL",
                    "output": "0x000000000000000000000000000000000000000003599af96b132efa54893bf8",
                    "revert": false,
                    "revertMessage": "",
                    "selector": "0xc7fab708",
                    "status": true,
                    "value": "0"
                },
                "nodeType": 0
            },
            "15": {
                "invocation": {
                    "address": "0x8f68f4810cce3194b6cb6f3d50fa58c2c9bdd1d5",
                    "callData": "0x0000000000000000000000000000000000000000011dde5323b10fa8c6d8695200000000000000000000000000000000000000000000013e6ecfbe3c85f58ea40000000000000000000000000000000000000000000010f3fbf1d0c406941cd9",
                    "decodedMethod": {
                        "callParams": [
                            {
                                "name": "_x",
                                "type": "uint256[3]",
                                "value": [
                                    "345,593,757,600,978,573,691,742,546",
                                    "5,874,049,425,271,143,370,404",
                                    "80,058,577,056,938,994,179,289"
                                ]
                            }
                        ],
                        "constructorArguments": "",
                        "name": "geometric_mean",
                        "returnParams": [
                            {
                                "name": "",
                                "type": "uint256",
                                "value": "545,720,729,282,755,491,681,185"
                            }
                        ],
                        "signature": "geometric_mean(uint256[3])"
                    },
                    "errorInfo": "",
                    "fromAddress": "0xd51a44d3fae010294c616388b506acda1bfaae46",
                    "gasUsed": 26310,
                    "id": 15,
                    "methodDecoded": true,
                    "operation": "STATICCALL",
                    "output": "0x00000000000000000000000000000000000000000000738f947bba5319c653a1",
                    "revert": false,
                    "revertMessage": "",
                    "selector": "0xbad1dc26",
                    "status": true,
                    "value": "0"
                },
                "nodeType": 0
            },
            "16": {
                "event": {
                    "contract": "0xd51a44d3fae010294c616388b506acda1bfaae46",
                    "decodedLog": {
                        "name": "TokenExchange",
                        "params": [
                            {
                                "name": "buyer",
                                "type": "address",
                                "value": "0x51399b32cd0186bb32230e24167489f3b2f47870"
                            },
                            {
                                "name": "sold_id",
                                "type": "uint256",
                                "value": "2"
                            },
                            {
                                "name": "tokens_sold",
                                "type": "uint256",
                                "value": "137,340,664,781,376,749,568"
                            },
                            {
                                "name": "bought_id",
                                "type": "uint256",
                                "value": "0"
                            },
                            {
                                "name": "tokens_bought",
                                "type": "uint256",
                                "value": "594,013,687,062"
                            }
                        ],
                        "signature": "TokenExchange(address,uint256,uint256,uint256,uint256)"
                    },
                    "id": 16,
                    "logData": "0x000000000000000000000000000000000000000000000000000000000000000200000000000000000000000000000000000000000000000771fc0ef4e5f6800000000000000000000000000000000000000000000000000000000000000000000000000000000000000000000000000000000000000000000000008a4df98d16",
                    "logDecoded": true,
                    "operation": "EVENT",
                    "revert": false,
                    "status": true,
                    "topics": [
                        "0xb2e76ae99761dc136e598d4a629bb347eccb9532a5f8bbd72e18467c3c34cc98",
                        "0x00000000000000000000000051399b32cd0186bb32230e24167489f3b2f47870"
                    ]
                },
                "nodeType": 1
            },
            "17": {
                "invocation": {
                    "address": "0x8f03f1a3f10c05e7cccf75c1fd10168e06659be7",
                    "callData": "0x",
                    "decodedMethod": null,
                    "errorInfo": "",
                    "fromAddress": "0x51399b32cd0186bb32230e24167489f3b2f47870",
                    "gasUsed": 0,
                    "id": 17,
                    "methodDecoded": false,
                    "operation": "CALL",
                    "output": "",
                    "revert": false,
                    "revertMessage": "",
                    "selector": "fallback",
                    "status": true,
                    "value": "0.10978861627470008"
                },
                "nodeType": 0
            },
            "2": {
                "invocation": {
                    "address": "0xd51a44d3fae010294c616388b506acda1bfaae46",
                    "callData": "0x0000000000000000000000000000000000000000000000000000000000000002000000000000000000000000000000000000000000000000000000000000000000000000000000000000000000000000000000000000000771fc0ef4e5f680000000000000000000000000000000000000000000000000000000008a3fcffab3",
                    "decodedMethod": {
                        "callParams": [
                            {
                                "name": "i",
                                "type": "uint256",
                                "value": "2"
                            },
                            {
                                "name": "j",
                                "type": "uint256",
                                "value": "0"
                            },
                            {
                                "name": "",
                                "type": "uint256",
                                "value": "137,340,664,781,376,749,568"
                            },
                            {
                                "name": "",
                                "type": "uint256",
                                "value": "593,776,081,587"
                            }
                        ],
                        "constructorArguments": "",
                        "name": "exchange",
                        "returnParams": [],
                        "signature": "exchange(uint256,uint256,uint256,uint256)"
                    },
                    "errorInfo": "",
                    "fromAddress": "0x51399b32cd0186bb32230e24167489f3b2f47870",
                    "gasUsed": 362855,
                    "id": 2,
                    "methodDecoded": true,
                    "operation": "CALL",
                    "output": "",
                    "revert": false,
                    "revertMessage": "",
                    "selector": "0x5b41b908",
                    "status": true,
                    "value": "0"
                },
                "nodeType": 0
            },
            "3": {
                "invocation": {
                    "address": "0xc02aaa39b223fe8d0a0e5c4f27ead9083c756cc2",
                    "callData": "0x00000000000000000000000051399b32cd0186bb32230e24167489f3b2f47870000000000000000000000000d51a44d3fae010294c616388b506acda1bfaae4600000000000000000000000000000000000000000000000771fc0ef4e5f68000",
                    "decodedMethod": {
                        "callParams": [
                            {
                                "name": "src",
                                "type": "address",
                                "value": "0x51399b32cd0186bb32230e24167489f3b2f47870"
                            },
                            {
                                "name": "dst",
                                "type": "address",
                                "value": "0xd51a44d3fae010294c616388b506acda1bfaae46"
                            },
                            {
                                "decimalAvailable": true,
                                "name": "wad",
                                "type": "uint256",
                                "value": "137,340,664,781,376,749,568"
                            }
                        ],
                        "constructorArguments": "",
                        "name": "transferFrom",
                        "returnParams": [
                            {
                                "name": "",
                                "type": "bool",
                                "value": true
                            }
                        ],
                        "signature": "transferFrom(address,address,uint256)"
                    },
                    "errorInfo": "",
                    "fromAddress": "0xd51a44d3fae010294c616388b506acda1bfaae46",
                    "gasUsed": 15025,
                    "id": 3,
                    "methodDecoded": true,
                    "operation": "CALL",
                    "output": "0x0000000000000000000000000000000000000000000000000000000000000001",
                    "revert": false,
                    "revertMessage": "",
                    "selector": "0x23b872dd",
                    "status": true,
                    "value": "0"
                },
                "nodeType": 0
            },
            "4": {
                "event": {
                    "contract": "0xc02aaa39b223fe8d0a0e5c4f27ead9083c756cc2",
                    "decodedLog": {
                        "name": "Transfer",
                        "params": [
                            {
                                "name": "src",
                                "type": "address",
                                "value": "0x51399b32cd0186bb32230e24167489f3b2f47870"
                            },
                            {
                                "name": "dst",
                                "type": "address",
                                "value": "0xd51a44d3fae010294c616388b506acda1bfaae46"
                            },
                            {
                                "decimalAvailable": true,
                                "name": "wad",
                                "type": "uint256",
                                "value": "137,340,664,781,376,749,568"
                            }
                        ],
                        "signature": "Transfer(address,address,uint256)"
                    },
                    "id": 4,
                    "logData": "0x00000000000000000000000000000000000000000000000771fc0ef4e5f68000",
                    "logDecoded": true,
                    "operation": "EVENT",
                    "revert": false,
                    "status": true,
                    "topics": [
                        "0xddf252ad1be2c89b69c2b068fc378daa952ba7f163c4a11628f55a4df523b3ef",
                        "0x00000000000000000000000051399b32cd0186bb32230e24167489f3b2f47870",
                        "0x000000000000000000000000d51a44d3fae010294c616388b506acda1bfaae46"
                    ]
                },
                "nodeType": 1
            },
            "5": {
                "invocation": {
                    "address": "0x8f68f4810cce3194b6cb6f3d50fa58c2c9bdd1d5",
                    "callData": "0x00000000000000000000000000000000000000000000000000000000001a0e6d00000000000000000000000000000000000000000000000000000abd8940e80500000000000000000000000000000000000000000120170af6fda8f1c2f070000000000000000000000000000000000000000000011b5fe68556515d0c3c1a6e0000000000000000000000000000000000000000011dd54ac98fc1e31e08fe2f00000000000000000000000000000000000000000358cd4eafbb1961ca4fa8b90000000000000000000000000000000000000000000000000000000000000000",
                    "decodedMethod": {
                        "callParams": [
                            {
                                "name": "ANN",
                                "type": "uint256",
                                "value": "1,707,629"
                            },
                            {
                                "name": "gamma",
                                "type": "uint256",
                                "value": "11,809,167,828,997"
                            },
                            {
                                "name": "x",
                                "type": "uint256[3]",
                                "value": [
                                    "348,279,452,743,127,000,000,000,000",
                                    "342,578,884,125,905,941,054,626,414",
                                    "345,551,102,234,122,508,227,378,735"
                                ]
                            },
                            {
                                "name": "D",
                                "type": "uint256",
                                "value": "1,035,810,038,227,891,285,241,342,137"
                            },
                            {
                                "name": "i",
                                "type": "uint256",
                                "value": "0"
                            }
                        ],
                        "constructorArguments": "",
                        "name": "newton_y",
                        "returnParams": [
                            {
                                "name": "",
                                "type": "uint256",
                                "value": "347,684,994,040,654,910,932,437,052"
                            }
                        ],
                        "signature": "newton_y(uint256,uint256,uint256[3],uint256,uint256)"
                    },
                    "errorInfo": "",
                    "fromAddress": "0xd51a44d3fae010294c616388b506acda1bfaae46",
                    "gasUsed": 28458,
                    "id": 5,
                    "methodDecoded": true,
                    "operation": "STATICCALL",
                    "output": "0x0000000000000000000000000000000000000000011f99294b41e7c51548c83c",
                    "revert": false,
                    "revertMessage": "",
                    "selector": "0x36bc8855",
                    "status": true,
                    "value": "0"
                },
                "nodeType": 0
            },
            "6": {
                "invocation": {
                    "address": "0x8f68f4810cce3194b6cb6f3d50fa58c2c9bdd1d5",
                    "callData": "0x0000000000000000000000000000000000000000011f99294b41e7c51548c83c0000000000000000000000000000000000000000011b5fe68556515d0c3c1a6e0000000000000000000000000000000000000000011dd54ac98fc1e31e08fe2f0000000000000000000000000000000000000000000000000001c6bf52634000",
                    "decodedMethod": {
                        "callParams": [
                            {
                                "name": "x",
                                "type": "uint256[3]",
                                "value": [
                                    "347,684,994,040,654,910,932,437,052",
                                    "342,578,884,125,905,941,054,626,414",
                                    "345,551,102,234,122,508,227,378,735"
                                ]
                            },
                            {
                                "name": "fee_gamma",
                                "type": "uint256",
                                "value": "500,000,000,000,000"
                            }
                        ],
                        "constructorArguments": "",
                        "name": "reduction_coefficient",
                        "returnParams": [
                            {
                                "name": "",
                                "type": "uint256",
                                "value": "900,557,537,539,194,967"
                            }
                        ],
                        "signature": "reduction_coefficient(uint256[3],uint256)"
                    },
                    "errorInfo": "",
                    "fromAddress": "0xd51a44d3fae010294c616388b506acda1bfaae46",
                    "gasUsed": 1818,
                    "id": 6,
                    "methodDecoded": true,
                    "operation": "STATICCALL",
                    "output": "0x0000000000000000000000000000000000000000000000000c7f6c4f1cd30057",
                    "revert": false,
                    "revertMessage": "",
                    "selector": "0xfa18042d",
                    "status": true,
                    "value": "0"
                },
                "nodeType": 0
            },
            "7": {
                "invocation": {
                    "address": "0xdac17f958d2ee523a2206206994597c13d831ec7",
                    "callData": "0x00000000000000000000000051399b32cd0186bb32230e24167489f3b2f478700000000000000000000000000000000000000000000000000000008a4df98d16",
                    "decodedMethod": {
                        "callParams": [
                            {
                                "name": "_to",
                                "type": "address",
                                "value": "0x51399b32cd0186bb32230e24167489f3b2f47870"
                            },
                            {
                                "decimalAvailable": true,
                                "name": "_value",
                                "type": "uint256",
                                "value": "594,013,687,062"
                            }
                        ],
                        "constructorArguments": "",
                        "name": "transfer",
                        "returnParams": [],
                        "signature": "transfer(address,uint256)"
                    },
                    "errorInfo": "",
                    "fromAddress": "0xd51a44d3fae010294c616388b506acda1bfaae46",
                    "gasUsed": 24501,
                    "id": 7,
                    "methodDecoded": true,
                    "operation": "CALL",
                    "output": "",
                    "revert": false,
                    "revertMessage": "",
                    "selector": "0xa9059cbb",
                    "status": true,
                    "value": "0"
                },
                "nodeType": 0
            },
            "8": {
                "event": {
                    "contract": "0xdac17f958d2ee523a2206206994597c13d831ec7",
                    "decodedLog": {
                        "name": "Transfer",
                        "params": [
                            {
                                "name": "from",
                                "type": "address",
                                "value": "0xd51a44d3fae010294c616388b506acda1bfaae46"
                            },
                            {
                                "name": "to",
                                "type": "address",
                                "value": "0x51399b32cd0186bb32230e24167489f3b2f47870"
                            },
                            {
                                "decimalAvailable": true,
                                "name": "value",
                                "type": "uint256",
                                "value": "594,013,687,062"
                            }
                        ],
                        "signature": "Transfer(address,address,uint256)"
                    },
                    "id": 8,
                    "logData": "0x0000000000000000000000000000000000000000000000000000008a4df98d16",
                    "logDecoded": true,
                    "operation": "EVENT",
                    "revert": false,
                    "status": true,
                    "topics": [
                        "0xddf252ad1be2c89b69c2b068fc378daa952ba7f163c4a11628f55a4df523b3ef",
                        "0x000000000000000000000000d51a44d3fae010294c616388b506acda1bfaae46",
                        "0x00000000000000000000000051399b32cd0186bb32230e24167489f3b2f47870"
                    ]
                },
                "nodeType": 1
            },
            "9": {
                "invocation": {
                    "address": "0x8f68f4810cce3194b6cb6f3d50fa58c2c9bdd1d5",
                    "callData": "0x00000000000000000000000000000000000000000000000016402f2bfde0555500000000000000000000000000000000000000000000000000000002540be400",
                    "decodedMethod": {
                        "callParams": [
                            {
                                "name": "power",
                                "type": "uint256",
                                "value": "1,603,333,333,333,333,333"
                            },
                            {
                                "name": "precision",
                                "type": "uint256",
                                "value": "10,000,000,000"
                            }
                        ],
                        "constructorArguments": "",
                        "name": "halfpow",
                        "returnParams": [
                            {
                                "name": "",
                                "type": "uint256",
                                "value": "329,115,681,875,254,226"
                            }
                        ],
                        "signature": "halfpow(uint256,uint256)"
                    },
                    "errorInfo": "",
                    "fromAddress": "0xd51a44d3fae010294c616388b506acda1bfaae46",
                    "gasUsed": 13214,
                    "id": 9,
                    "methodDecoded": true,
                    "operation": "STATICCALL",
                    "output": "0x000000000000000000000000000000000000000000000000049140f80c2f5bd2",
                    "revert": false,
                    "revertMessage": "",
                    "selector": "0x571bae3f",
                    "status": true,
                    "value": "0"
                },
                "nodeType": 0
            }
        },
        "gasFlame": [
            {
                "children": [
                    {
                        "children": [
                            {
                                "children": [],
                                "depth": 0,
                                "name": "Initial Gas",
                                "value": 22776
                            },
                            {
                                "children": [
                                    {
                                        "children": [],
                                        "depth": 1,
                                        "name": "balances",
                                        "value": 3615
                                    },
                                    {
                                        "children": [
                                            {
                                                "children": [],
                                                "depth": 2,
                                                "name": "transferFrom",
                                                "value": 15025
                                            },
                                            {
                                                "children": [],
                                                "depth": 2,
                                                "name": "newton_y",
                                                "value": 28458
                                            },
                                            {
                                                "children": [],
                                                "depth": 2,
                                                "name": "reduction_coefficient",
                                                "value": 1818
                                            },
                                            {
                                                "children": [],
                                                "depth": 2,
                                                "name": "transfer",
                                                "value": 24501
                                            },
                                            {
                                                "children": [],
                                                "depth": 2,
                                                "name": "halfpow",
                                                "value": 13214
                                            },
                                            {
                                                "children": [],
                                                "depth": 2,
                                                "name": "newton_D",
                                                "value": 39675
                                            },
                                            {
                                                "children": [],
                                                "depth": 2,
                                                "name": "totalSupply",
                                                "value": 2598
                                            },
                                            {
                                                "children": [],
                                                "depth": 2,
                                                "name": "geometric_mean",
                                                "value": 26310
                                            },
                                            {
                                                "children": [],
                                                "depth": 2,
                                                "name": "sqrt_int",
                                                "value": 4069
                                            },
                                            {
                                                "children": [],
                                                "depth": 2,
                                                "name": "newton_D",
                                                "value": 39575
                                            },
                                            {
                                                "children": [],
                                                "depth": 2,
                                                "name": "geometric_mean",
                                                "value": 26310
                                            }
                                        ],
                                        "depth": 1,
                                        "name": "exchange",
                                        "value": 362855
                                    },
                                    {
                                        "children": [],
                                        "depth": 1,
                                        "name": "fallback",
                                        "value": 0
                                    }
                                ],
                                "depth": 0,
                                "name": "Executed Gas",
                                "value": 384482
                            }
                        ],
                        "depth": -1,
                        "name": "Actual Gas Used",
                        "value": 387358
                    },
                    {
                        "children": [],
                        "depth": -1,
                        "name": "Refunded Gas",
                        "value": 19900
                    }
                ],
                "depth": -2,
                "name": "Total Gas",
                "value": 407258
            }
        ],
        "isConfirmed": true,
        "mainTrace": [
            {
                "children": [
                    {
                        "children": [
                            {
                                "children": [],
                                "depth": 1,
                                "id": 1,
                                "order": 1
                            },
                            {
                                "children": [
                                    {
                                        "children": [
                                            {
                                                "children": [],
                                                "depth": 3,
                                                "id": 4,
                                                "order": 4
                                            }
                                        ],
                                        "depth": 2,
                                        "id": 3,
                                        "order": 3
                                    },
                                    {
                                        "children": [],
                                        "depth": 2,
                                        "id": 5,
                                        "order": 5
                                    },
                                    {
                                        "children": [],
                                        "depth": 2,
                                        "id": 6,
                                        "order": 6
                                    },
                                    {
                                        "children": [
                                            {
                                                "children": [],
                                                "depth": 3,
                                                "id": 8,
                                                "order": 8
                                            }
                                        ],
                                        "depth": 2,
                                        "id": 7,
                                        "order": 7
                                    },
                                    {
                                        "children": [],
                                        "depth": 2,
                                        "id": 9,
                                        "order": 9
                                    },
                                    {
                                        "children": [],
                                        "depth": 2,
                                        "id": 10,
                                        "order": 10
                                    },
                                    {
                                        "children": [],
                                        "depth": 2,
                                        "id": 11,
                                        "order": 11
                                    },
                                    {
                                        "children": [],
                                        "depth": 2,
                                        "id": 12,
                                        "order": 12
                                    },
                                    {
                                        "children": [],
                                        "depth": 2,
                                        "id": 13,
                                        "order": 13
                                    },
                                    {
                                        "children": [],
                                        "depth": 2,
                                        "id": 14,
                                        "order": 14
                                    },
                                    {
                                        "children": [],
                                        "depth": 2,
                                        "id": 15,
                                        "order": 15
                                    },
                                    {
                                        "children": [],
                                        "depth": 2,
                                        "id": 16,
                                        "order": 16
                                    }
                                ],
                                "depth": 1,
                                "id": 2,
                                "order": 2
                            },
                            {
                                "children": [],
                                "depth": 1,
                                "id": 17,
                                "order": 17
                            }
                        ],
                        "depth": 0,
                        "id": 0,
                        "order": 0
                    }
                ],
                "depth": -1,
                "id": -1,
                "order": -1
            }
        ],
        "mainTraceNodeCount": 18,
        "parentIdMap": {
            "0": -1,
            "1": 0,
            "10": 2,
            "11": 2,
            "12": 2,
            "13": 2,
            "14": 2,
            "15": 2,
            "16": 2,
            "17": 0,
            "2": 0,
            "3": 2,
            "4": 3,
            "5": 2,
            "6": 2,
            "7": 2,
            "8": 7,
            "9": 2
        },
        "tidyTrace": [
            {
                "children": [
                    {
                        "children": [
                            {
                                "children": [
                                    {
                                        "children": [
                                            {
                                                "children": [],
                                                "depth": 3,
                                                "id": 4,
                                                "order": 4
                                            }
                                        ],
                                        "depth": 2,
                                        "id": 3,
                                        "order": 3
                                    },
                                    {
                                        "children": [
                                            {
                                                "children": [],
                                                "depth": 3,
                                                "id": 8,
                                                "order": 8
                                            }
                                        ],
                                        "depth": 2,
                                        "id": 7,
                                        "order": 7
                                    },
                                    {
                                        "children": [],
                                        "depth": 2,
                                        "id": 16,
                                        "order": 16
                                    }
                                ],
                                "depth": 1,
                                "id": 2,
                                "order": 2
                            },
                            {
                                "children": [],
                                "depth": 1,
                                "id": 17,
                                "order": 17
                            }
                        ],
                        "depth": 0,
                        "id": 0,
                        "order": 0
                    }
                ],
                "depth": -1,
                "id": -1,
                "order": -1
            }
        ],
        "tidyTraceNodeCount": 8
    },
    "state_change": {
        "stateChanges": [
            {
                "address": "0xc02aaa39b223fe8d0a0e5c4f27ead9083c756cc2",
                "erc": "ERC-20",
                "slots": [
                    {
                        "current": "0x000000000000000000000000000000000000000000000061a24dee1fd8a6dd43",
                        "key": "0xd2ad9b8278ad9c3910d93b097963506ed15338e27508e8001143430e1225b6d1",
                        "prev": "0x0000000000000000000000000000000000000000000000691449fd14be9d5d43"
                    },
                    {
                        "current": "0x0000000000000000000000000000000000000000000010f909b7a6c28ba699dd",
                        "key": "0x9b354f30d74ca151470e4c01c97d425c838beac0ab30a0bd396660e4405f8bee",
                        "prev": "0x0000000000000000000000000000000000000000000010f197bb97cda5b019dd"
                    }
                ],
                "storageVariables": [
                    {
                        "name": "balanceOf",
                        "type": "mapping(address => uint256)",
                        "value": {
                            "pairs": [
                                {
                                    "key": "0x51399b32cd0186bb32230e24167489f3b2f47870",
                                    "value": {
                                        "current": "1801029440777723764035",
                                        "prev": "1938370105559100513603",
                                        "typeTag": 1
                                    }
                                },
                                {
                                    "key": "0xd51a44d3fae010294c616388b506acda1bfaae46",
                                    "value": {
                                        "current": "80151803211889577990621",
                                        "prev": "80014462547108201241053",
                                        "typeTag": 1
                                    }
                                }
                            ],
                            "typeTag": 4
                        }
                    }
                ]
            },
            {
                "address": "0xd51a44d3fae010294c616388b506acda1bfaae46",
                "erc": "",
                "slots": [
                    {
                        "current": "0x00000000000000ea812a2cbb38eec81e0000000000000c7d5e140c334db69a36",
                        "key": "0x0000000000000000000000000000000000000000000000000000000000000001",
                        "prev": "0x00000000000000ea110aff7a370f6c7b0000000000000c7ea35467a1f4f3d668"
                    },
                    {
                        "current": "0x00000000000000ea03187e6ed04864760000000000000c75659c7cf5bce7ed31",
                        "key": "0x0000000000000000000000000000000000000000000000000000000000000000",
                        "prev": "0x00000000000000e9b607f1d067cb25750000000000000c70864bc8999ece8709"
                    },
                    {
                        "current": "0x0000000000000000000000000000000000000000000000000df58e6a6c872980",
                        "key": "0x000000000000000000000000000000000000000000000000000000000000001c",
                        "prev": "0x0000000000000000000000000000000000000000000000000df58fc2a0c5e10c"
                    },
                    {
                        "current": "0x0000000000000000000000000000000000000000000010f909b7a6c28ba699dd",
                        "key": "0xd833147d7dc355ba459fc788f669e58cfaf9dc25ddcd0702e87d69c7b512428b",
                        "prev": "0x0000000000000000000000000000000000000000000010f197bb97cda5b019dd"
                    },
                    {
                        "current": "0x00000000000000000000000000000000000000000000000000013c37d316a8c1",
                        "key": "0xd833147d7dc355ba459fc788f669e58cfaf9dc25ddcd0702e87d69c7b5124289",
                        "prev": "0x00000000000000000000000000000000000000000000000000013cc2211035d7"
                    },
                    {
                        "current": "0x0000000000000000000000000000000000000000000000000000000000000001",
                        "key": "0x000000000000000000000000000000000000000000000000000000000000001d",
                        "prev": "0x0000000000000000000000000000000000000000000000000000000000000000"
                    },
                    {
                        "current": "0x000000000000000000000000000000000000000003599af96b132efa54893bf8",
                        "key": "0x0000000000000000000000000000000000000000000000000000000000000017",
                        "prev": "0x00000000000000000000000000000000000000000358cd4eafbb1961ca4fa8b9"
                    },
                    {
                        "current": "0x00000000000000000000000000000000000000000000000000000000619ad9d2",
                        "key": "0x0000000000000000000000000000000000000000000000000000000000000003",
                        "prev": "0x00000000000000000000000000000000000000000000000000000000619ad610"
                    },
                    {
                        "current": "0x00000000000000ea76fabf38a24874b90000000000000c7cbe850e835a9ae8d2",
                        "key": "0x0000000000000000000000000000000000000000000000000000000000000002",
                        "prev": "0x00000000000000eab82b172d2747131a0000000000000c7cbe850e835a9ae8d2"
                    },
                    {
                        "current": "0x0000000000000000000000000000000000000000000000000e0a6505e34d6172",
                        "key": "0x000000000000000000000000000000000000000000000000000000000000001a",
                        "prev": "0x0000000000000000000000000000000000000000000000000e0a64a103e2eeae"
                    }
                ],
                "storageVariables": []
            },
            {
                "address": "0xdac17f958d2ee523a2206206994597c13d831ec7",
                "erc": "ERC-20",
                "slots": [
                    {
                        "current": "0x00000000000000000000000000000000000000000000000000013c37d316a8c1",
                        "key": "0xeb449bc003e7395128833de1fb3384246962a9d4d29c66083486accd9139c704",
                        "prev": "0x00000000000000000000000000000000000000000000000000013cc2211035d7"
                    },
                    {
                        "current": "0x00000000000000000000000000000000000000000000000000000290acb8dd8c",
                        "key": "0xfc856baef871cedf3993e566d192ff01417af7550ec985cdbb470b4780a857ec",
                        "prev": "0x000000000000000000000000000000000000000000000000000002065ebf5076"
                    }
                ],
                "storageVariables": [
                    {
                        "name": "balances",
                        "type": "mapping(address => uint256)",
                        "value": {
                            "pairs": [
                                {
                                    "key": "0x51399b32cd0186bb32230e24167489f3b2f47870",
                                    "value": {
                                        "current": "2820396342668",
                                        "prev": "2226382655606",
                                        "typeTag": 1
                                    }
                                },
                                {
                                    "key": "0xd51a44d3fae010294c616388b506acda1bfaae46",
                                    "value": {
                                        "current": "347685439056065",
                                        "prev": "348279452743127",
                                        "typeTag": 1
                                    }
                                }
                            ],
                            "typeTag": 4
                        }
                    }
                ]
            }
        ]
    }
}