{
    "balance_change": {
        "balanceChanges": [
            {
                "account": "0x579899789a83023ae6b319c2fcab934f94440515",
                "assets": [
                    {
                        "address": "0xb9871cb10738eada636432e86fc0cb920dc3de24",
                        "amount": "0.032744925734843542",
                        "iconUrl": "",
                        "isERC1155": false,
                        "isERC721": false,
                        "sign": false,
                        "value": "0.6221389"
                    }
                ]
            },
            {
                "account": "0x0000000000000000000000000000000000000000",
                "assets": [
                    {
                        "address": "0xb9871cb10738eada636432e86fc0cb920dc3de24",
                        "amount": "0.016443483572279528",
                        "iconUrl": "",
                        "isERC1155": false,
                        "isERC721": false,
                        "sign": true,
                        "value": "0.31241622"
                    }
                ]
            },
            {
                "account": "0x17bd48111d066870fabbbf341e1f844fea705822",
                "assets": [
                    {
                        "address": "0xb9871cb10738eada636432e86fc0cb920dc3de24",
                        "amount": "0.383553760375108553",
                        "iconUrl": "",
                        "isERC1155": false,
                        "isERC721": false,
                        "sign": true,
                        "value": "7.28786205"
                    }
                ]
            },
            {
                "account": "0x569a51f4562b0e9b01617916ef48f34e41d568c7",
                "assets": [
                    {
                        "address": "0xb9871cb10738eada636432e86fc0cb920dc3de24",
                        "amount": "0.376223197908942569",
                        "iconUrl": "",
                        "isERC1155": false,
                        "isERC721": false,
                        "sign": false,
                        "value": "7.14949141"
                    }
                ]
            },
            {
                "account": "0xa4633cb5ceebba4bc3ac3baeab8b19381896fe88",
                "assets": [
                    {
                        "address": "0xb9871cb10738eada636432e86fc0cb920dc3de24",
                        "amount": "0.00897087969639803",
                        "iconUrl": "",
                        "isERC1155": false,
                        "isERC721": false,
                        "sign": true,
                        "value": "0.17044054"
                    }
                ]
            }
        ]
    },
    "profile": {
        "basic_info": {
            "baseFee": "",
            "blockNumber": 11153891,
            "callData": "0xa9059cbb000000000000000000000000579899789a83023ae6b319c2fcab934f94440515000000000000000000000000000000000000000000000000049f0dbc56348000",
            "debugEnable": true,
            "errorInfo": "",
            "eventCount": 5,
            "feeRecipient": "0x52bc44d5378309ee2abf1539bf71de1b7d7be3b5",
            "formatValue": "0",
            "gasLimit": 450000,
            "gasPrice": "23.096072911",
            "gasUsed": 290367,
            "intTxnCount": 0,
            "internalRevert": false,
            "internalRevertMessage": "",
            "isContractCreation": false,
            "isFlashloan": false,
            "maxFee": "",
            "nonce": 1970,
            "overwritedBlockNumber": -1,
            "priorityFee": "",
            "receiver": "0xb9871cb10738eada636432e86fc0cb920dc3de24",
            "revertMessage": "",
            "sender": "0x579899789a83023ae6b319c2fcab934f94440515",
            "simulationEnable": true,
            "sourceTxnHash": "0xb3a97dd7841ce2300f064d947d26db2687e2a9ee80929da0232383132db99b8d",
            "status": true,
            "timestamp": "2020-10-29T20:39:07Z",
            "transactionFee": "0.006706337402948337",
            "txnHash": "0xb3a97dd7841ce2300f064d947d26db2687e2a9ee80929da0232383132db99b8d",
            "txnIndex": 176,
            "type": 0,
            "value": "0"
        },
        "fund_flow": [
            {
                "amount": "0.016443483572279528",
                "from": "0x579899789a83023ae6b319c2fcab934f94440515",
                "id": 1,
                "isERC1155": false,
                "isERC721": false,
                "isReverted": false,
                "order": 1,
                "to": "0x0000000000000000000000000000000000000000",
                "token": "0xb9871cb10738eada636432e86fc0cb920dc3de24"
            },
            {
                "amount": "0.300255074265156458",
                "from": "0x579899789a83023ae6b319c2fcab934f94440515",
                "id": 2,
                "isERC1155": false,
                "isERC721": false,
                "isReverted": false,
                "order": 2,
                "to": "0x579899789a83023ae6b319c2fcab934f94440515",
                "token": "0xb9871cb10738eada636432e86fc0cb920dc3de24"
            },
            {
                "amount": "0.00897087969639803",
                "from": "0x579899789a83023ae6b319c2fcab934f94440515",
                "id": 3,
                "isERC1155": false,
                "isERC721": false,
                "isReverted": false,
                "order": 3,
                "to": "0xa4633cb5ceebba4bc3ac3baeab8b19381896fe88",
                "token": "0xb9871cb10738eada636432e86fc0cb920dc3de24"
            },
            {
                "amount": "0.007330562466165984",
                "from": "0x579899789a83023ae6b319c2fcab934f94440515",
                "id": 4,
                "isERC1155": false,
                "isERC721": false,
                "isReverted": false,
                "order": 4,
                "to": "0x569a51f4562b0e9b01617916ef48f34e41d568c7",
                "token": "0xb9871cb10738eada636432e86fc0cb920dc3de24"
            },
            {
                "amount": "0.383553760375108553",
                "from": "0x569a51f4562b0e9b01617916ef48f34e41d568c7",
                "id": 5,
                "isERC1155": false,
                "isERC721": false,
                "isReverted": false,
                "order": 5,
                "to": "0x17bd48111d066870fabbbf341e1f844fea705822",
                "token": "0xb9871cb10738eada636432e86fc0cb920dc3de24"
            }
        ],
        "token_infos": [
            {
                "address": "0xb9871cb10738eada636432e86fc0cb920dc3de24",
                "decimals": 18
            },
            {
                "address": "0xc02aaa39b223fe8d0a0e5c4f27ead9083c756cc2",
                "decimals": 18
            },
            {
                "address": "0xeeeeeeeeeeeeeeeeeeeeeeeeeeeeeeeeeeeeeeee",
                "decimals": 18
            }
        ]
    },
    "address_label": {
        "labels": [
            {
                "address": "0x0000000000000000000000000000000000000003",
                "label": "Precompiled"
            },
            {
                "address": "0x0000000000000000000000000000000000000004",
                "label": "Precompiled"
            },
            {
                "address": "0xeeeeeeeeeeeeeeeeeeeeeeeeeeeeeeeeeeeeeeee",
                "label": "Ether"
            },
            {
                "address": "0xb9871cb10738eada636432e86fc0cb920dc3de24",
                "label": "PRIA: PRIA Token"
            },
            {
                "address": "0x0000000000000000000000000000000000000001",
                "label": "Precompiled"
            },
            {
                "address": "0x0000000000000000000000000000000000000002",
                "label": "Precompiled"
            }
        ]
    },
    "trace": {
        "accountLabels": null,
        "dataMap": {
            "-1": {
                "invocation": {
                    "address": "0x579899789a83023ae6b319c2fcab934f94440515",
                    "callData": "",
                    "decodedMethod": null,
                    "errorInfo": "",
                    "fromAddress": "",
                    "gasUsed": 0,
                    "id": -1,
                    "methodDecoded": false,
                    "operation": "",
                    "output": "",
                    "revert": false,
                    "revertMessage": "",
                    "selector": "",
                    "status": false,
                    "value": ""
                },
                "nodeType": 0
            },
            "0": {
                "invocation": {
                    "address": "0xb9871cb10738eada636432e86fc0cb920dc3de24",
                    "callData": "0x000000000000000000000000579899789a83023ae6b319c2fcab934f94440515000000000000000000000000000000000000000000000000049f0dbc56348000",
                    "decodedMethod": {
                        "callParams": [
                            {
                                "name": "recipient",
                                "type": "address",
                                "value": "0x579899789a83023ae6b319c2fcab934f94440515"
                            },
                            {
                                "decimalAvailable": true,
                                "name": "amount",
                                "type": "uint256",
                                "value": "333,000,000,000,000,000"
                            }
                        ],
                        "constructorArguments": "",
                        "name": "transfer",
                        "returnParams": [
                            {
                                "name": "",
                                "type": "bool",
                                "value": true
                            }
                        ],
                        "signature": "transfer(address,uint256)"
                    },
                    "errorInfo": "",
                    "fromAddress": "0x579899789a83023ae6b319c2fcab934f94440515",
                    "gasUsed": 290367,
                    "id": 0,
                    "methodDecoded": true,
                    "operation": "CALL",
                    "output": "0x0000000000000000000000000000000000000000000000000000000000000001",
                    "revert": false,
                    "revertMessage": "",
                    "selector": "0xa9059cbb",
                    "status": true,
                    "value": "0"
                },
                "nodeType": 0
            },
            "1": {
                "event": {
                    "contract": "0xb9871cb10738eada636432e86fc0cb920dc3de24",
                    "decodedLog": {
                        "name": "Transfer",
                        "params": [
                            {
                                "name": "from",
                                "type": "address",
                                "value": "0x579899789a83023ae6b319c2fcab934f94440515"
                            },
                            {
                                "name": "to",
                                "type": "address",
                                "value": "0x0000000000000000000000000000000000000000"
                            },
                            {
                                "decimalAvailable": true,
                                "name": "value",
                                "type": "uint256",
                                "value": "16,443,483,572,279,528"
                            }
                        ],
                        "signature": "Transfer(address,address,uint256)"
                    },
                    "id": 1,
                    "logData": "0x000000000000000000000000000000000000000000000000003a6b42dd3218e8",
                    "logDecoded": true,
                    "operation": "EVENT",
                    "revert": false,
                    "status": true,
                    "topics": [
                        "0xddf252ad1be2c89b69c2b068fc378daa952ba7f163c4a11628f55a4df523b3ef",
                        "0x000000000000000000000000579899789a83023ae6b319c2fcab934f94440515",
                        "0x0000000000000000000000000000000000000000000000000000000000000000"
                    ]
                },
                "nodeType": 1
            },
            "2": {
                "event": {
                    "contract": "0xb9871cb10738eada636432e86fc0cb920dc3de24",
                    "decodedLog": {
                        "name": "Transfer",
                        "params": [
                            {
                                "name": "from",
                                "type": "address",
                                "value": "0x579899789a83023ae6b319c2fcab934f94440515"
                            },
                            {
                                "name": "to",
                                "type": "address",
                                "value": "0x579899789a83023ae6b319c2fcab934f94440515"
                            },
                            {
                                "decimalAvailable": true,
                                "name": "value",
                                "type": "uint256",
                                "value": "300,255,074,265,156,458"
                            }
                        ],
                        "signature": "Transfer(address,address,uint256)"
                    },
                    "id": 2,
                    "logData": "0x000000000000000000000000000000000000000000000000042ab86633954b6a",
                    "logDecoded": true,
                    "operation": "EVENT",
                    "revert": false,
                    "status": true,
                    "topics": [
                        "0xddf252ad1be2c89b69c2b068fc378daa952ba7f163c4a11628f55a4df523b3ef",
                        "0x000000000000000000000000579899789a83023ae6b319c2fcab934f94440515",
                        "0x000000000000000000000000579899789a83023ae6b319c2fcab934f94440515"
                    ]
                },
                "nodeType": 1
            },
            "3": {
                "event": {
                    "contract": "0xb9871cb10738eada636432e86fc0cb920dc3de24",
                    "decodedLog": {
                        "name": "Transfer",
                        "params": [
                            {
                                "name": "from",
                                "type": "address",
                                "value": "0x579899789a83023ae6b319c2fcab934f94440515"
                            },
                            {
                                "name": "to",
                                "type": "address",
                                "value": "0xa4633cb5ceebba4bc3ac3baeab8b19381896fe88"
                            },
                            {
                                "decimalAvailable": true,
                                "name": "value",
                                "type": "uint256",
                                "value": "8,970,879,696,398,030"
                            }
                        ],
                        "signature": "Transfer(address,address,uint256)"
                    },
                    "id": 3,
                    "logData": "0x000000000000000000000000000000000000000000000000001fdef7b1a066ce",
                    "logDecoded": true,
                    "operation": "EVENT",
                    "revert": false,
                    "status": true,
                    "topics": [
                        "0xddf252ad1be2c89b69c2b068fc378daa952ba7f163c4a11628f55a4df523b3ef",
                        "0x000000000000000000000000579899789a83023ae6b319c2fcab934f94440515",
                        "0x000000000000000000000000a4633cb5ceebba4bc3ac3baeab8b19381896fe88"
                    ]
                },
                "nodeType": 1
            },
            "4": {
                "event": {
                    "contract": "0xb9871cb10738eada636432e86fc0cb920dc3de24",
                    "decodedLog": {
                        "name": "Transfer",
                        "params": [
                            {
                                "name": "from",
                                "type": "address",
                                "value": "0x579899789a83023ae6b319c2fcab934f94440515"
                            },
                            {
                                "name": "to",
                                "type": "address",
                                "value": "0x569a51f4562b0e9b01617916ef48f34e41d568c7"
                            },
                            {
                                "decimalAvailable": true,
                                "name": "value",
                                "type": "uint256",
                                "value": "7,330,562,466,165,984"
                            }
                        ],
                        "signature": "Transfer(address,address,uint256)"
                    },
                    "id": 4,
                    "logData": "0x000000000000000000000000000000000000000000000000001a0b1b93ccb4e0",
                    "logDecoded": true,
                    "operation": "EVENT",
                    "revert": false,
                    "status": true,
                    "topics": [
                        "0xddf252ad1be2c89b69c2b068fc378daa952ba7f163c4a11628f55a4df523b3ef",
                        "0x000000000000000000000000579899789a83023ae6b319c2fcab934f94440515",
                        "0x000000000000000000000000569a51f4562b0e9b01617916ef48f34e41d568c7"
                    ]
                },
                "nodeType": 1
            },
            "5": {
                "event": {
                    "contract": "0xb9871cb10738eada636432e86fc0cb920dc3de24",
                    "decodedLog": {
                        "name": "Transfer",
                        "params": [
                            {
                                "name": "from",
                                "type": "address",
                                "value": "0x569a51f4562b0e9b01617916ef48f34e41d568c7"
                            },
                            {
                                "name": "to",
                                "type": "address",
                                "value": "0x17bd48111d066870fabbbf341e1f844fea705822"
                            },
                            {
                                "decimalAvailable": true,
                                "name": "value",
                                "type": "uint256",
                                "value": "383,553,760,375,108,553"
                            }
                        ],
                        "signature": "Transfer(address,address,uint256)"
                    },
                    "id": 5,
                    "logData": "0x0000000000000000000000000000000000000000000000000552a81ce76c73c9",
                    "logDecoded": true,
                    "operation": "EVENT",
                    "revert": false,
                    "status": true,
                    "topics": [
                        "0xddf252ad1be2c89b69c2b068fc378daa952ba7f163c4a11628f55a4df523b3ef",
                        "0x000000000000000000000000569a51f4562b0e9b01617916ef48f34e41d568c7",
                        "0x00000000000000000000000017bd48111d066870fabbbf341e1f844fea705822"
                    ]
                },
                "nodeType": 1
            }
        },
        "gasFlame": [
            {
                "children": [
                    {
                        "children": [
                            {
                                "children": [],
                                "depth": 0,
                                "name": "Initial Gas",
                                "value": 21644
                            },
                            {
                                "children": [],
                                "depth": 0,
                                "name": "Executed Gas",
                                "value": 268723
                            }
                        ],
                        "depth": -1,
                        "name": "Actual Gas Used",
                        "value": 290367
                    },
                    {
                        "children": [],
                        "depth": -1,
                        "name": "Refunded Gas",
                        "value": 0
                    }
                ],
                "depth": -2,
                "name": "Total Gas",
                "value": 290367
            }
        ],
        "isConfirmed": true,
        "mainTrace": [
            {
                "children": [
                    {
                        "children": [
                            {
                                "children": [],
                                "depth": 1,
                                "id": 1,
                                "order": 1
                            },
                            {
                                "children": [],
                                "depth": 1,
                                "id": 2,
                                "order": 2
                            },
                            {
                                "children": [],
                                "depth": 1,
                                "id": 3,
                                "order": 3
                            },
                            {
                                "children": [],
                                "depth": 1,
                                "id": 4,
                                "order": 4
                            },
                            {
                                "children": [],
                                "depth": 1,
                                "id": 5,
                                "order": 5
                            }
                        ],
                        "depth": 0,
                        "id": 0,
                        "order": 0
                    }
                ],
                "depth": -1,
                "id": -1,
                "order": -1
            }
        ],
        "mainTraceNodeCount": 6,
        "parentIdMap": {
            "0": -1,
            "1": 0,
            "2": 0,
            "3": 0,
            "4": 0,
            "5": 0
        },
        "tidyTrace": [
            {
                "children": [
                    {
                        "children": [
                            {
                                "children": [],
                                "depth": 1,
                                "id": 1,
                                "order": 1
                            },
                            {
                                "children": [],
                                "depth": 1,
                                "id": 2,
                                "order": 2
                            },
                            {
                                "children": [],
                                "depth": 1,
                                "id": 3,
                                "order": 3
                            },
                            {
                                "children": [],
                                "depth": 1,
                                "id": 4,
                                "order": 4
                            },
                            {
                                "children": [],
                                "depth": 1,
                                "id": 5,
                                "order": 5
                            }
                        ],
                        "depth": 0,
                        "id": 0,
                        "order": 0
                    }
                ],
                "depth": -1,
                "id": -1,
                "order": -1
            }
        ],
        "tidyTraceNodeCount": 6
    },
    "state_change": {
        "stateChanges": [
            {
                "address": "0xb9871cb10738eada636432e86fc0cb920dc3de24",
                "erc": "",
                "slots": [
                    {
                        "current": "0x000000000000000000000000579899789a83023ae6b319c2fcab934f94440515",
                        "key": "0xd833147d7dc355ba459fc788f669e58cfaf9dc25ddcd0702e87d69c7b512429b",
                        "prev": "0x00000000000000000000000017bd48111d066870fabbbf341e1f844fea705822"
                    },
                    {
                        "current": "0x0000000000000000000000000000000000000000000011c713223c4dcfd4e1cd",
                        "key": "0x000000000000000000000000000000000000000000000000000000000000000f",
                        "prev": "0x0000000000000000000000000000000000000000000011c7135ca790ad06fab5"
                    },
                    {
                        "current": "0x0000000000000000000000000000000000000000000000000000000000005497",
                        "key": "0x0000000000000000000000000000000000000000000000000000000000000011",
                        "prev": "0x0000000000000000000000000000000000000000000000000000000000005496"
                    },
                    {
                        "current": "0x0000000000000000000000000000000000000000000000016baaa221de0fba97",
                        "key": "0x1341da4d61fe7bc411e029f504499a10ee579a184211efd6d81455dbf6dfb831",
                        "prev": "0x0000000000000000000000000000000000000000000000016b8ac32a2c6f53c9"
                    },
                    {
                        "current": "0x0000000000000000000000000000000000000000000000052d65841d187c9ec2",
                        "key": "0x5f31b844ca61c3ef5cc012d14ebae6a93b4aa61868a48233d0066321d0fc12cc",
                        "prev": "0x000000000000000000000000000000000000000000000005329e211e6c1c5dab"
                    },
                    {
                        "current": "0x0000000000000000000000000000000000000000000000000353a91210a3c85d",
                        "key": "0x0000000000000000000000000000000000000000000000000000000000000019",
                        "prev": "0x000000000000000000000000000000000000000000000000035703f044e5dab5"
                    },
                    {
                        "current": "0x0000000000000000000000000000000000000000000000033fa52808d98b8e5b",
                        "key": "0x6f1eb5fec5210ecc3532b3a598d55b8acc5fdb6542fba1d165725fd262fa3903",
                        "prev": "0x00000000000000000000000000000000000000000000000340197d5efc2ac2f1"
                    },
                    {
                        "current": "0x0000000000000000000000000000000000000000000000000552a81ce76c73c9",
                        "key": "0xc5d045236f0181fe35c3d379ee6874836f63114cb3b12a6ae84abc3a7a93b592",
                        "prev": "0x0000000000000000000000000000000000000000000000000000000000000000"
                    },
                    {
                        "current": "0x0000000000000000000000000000000000000000000000000000000000000013",
                        "key": "0x0000000000000000000000000000000000000000000000000000000000000018",
                        "prev": "0x0000000000000000000000000000000000000000000000000000000000000012"
                    }
                ],
                "storageVariables": []
            }
        ]
    }
}