{
    "balance_change": {
        "balanceChanges": [
            {
                "account": "0x0000000000000000000000000000000000000000",
                "assets": [
                    {
                        "address": "0x1b7ac38cb8fcdb3273e0dc8c9bb115a03247de62",
                        "amount": "26",
                        "iconUrl": "",
                        "isERC1155": false,
                        "isERC721": false,
                        "sign": false,
                        "value": ""
                    }
                ]
            },
            {
                "account": "0xb956dbe1bda57157bfd6e2f26123c785026b0734",
                "assets": [
                    {
                        "address": "0x1b7ac38cb8fcdb3273e0dc8c9bb115a03247de62",
                        "amount": "4",
                        "iconUrl": "",
                        "isERC1155": false,
                        "isERC721": false,
                        "sign": true,
                        "value": ""
                    }
                ]
            },
            {
                "account": "0xe1570e8b80e7446d42a378f9bd7178d07d1e5a78",
                "assets": [
                    {
                        "address": "0x1b7ac38cb8fcdb3273e0dc8c9bb115a03247de62",
                        "amount": "20",
                        "iconUrl": "",
                        "isERC1155": false,
                        "isERC721": false,
                        "sign": true,
                        "value": ""
                    }
                ]
            },
            {
                "account": "0xe414ac92a0d0dc69b2d5ab7fb39782100cd29107",
                "assets": [
                    {
                        "address": "0x1b7ac38cb8fcdb3273e0dc8c9bb115a03247de62",
                        "amount": "2",
                        "iconUrl": "",
                        "isERC1155": false,
                        "isERC721": false,
                        "sign": true,
                        "value": ""
                    }
                ]
            }
        ]
    },
    "profile": {
        "basic_info": {
            "baseFee": "",
            "blockNumber": 10081194,
            "callData": "0x594be9e50000000000000000000000000000000000000000000000000000000000000016000000000000000000000000e1570e8b80e7446d42a378f9bd7178d07d1e5a78000000000000000000000000b956dbe1bda57157bfd6e2f26123c785026b0734000000000000000000000000e414ac92a0d0dc69b2d5ab7fb39782100cd29107",
            "debugEnable": true,
            "errorInfo": "",
            "eventCount": 6,
            "feeRecipient": "0x5a0b54d5dc17e0aadc383d2db43b0a0d3e029c4c",
            "formatValue": "0",
            "gasLimit": 150000,
            "gasPrice": "25",
            "gasUsed": 76814,
            "intTxnCount": 3,
            "internalRevert": false,
            "internalRevertMessage": "",
            "isContractCreation": false,
            "isFlashloan": false,
            "maxFee": "",
            "nonce": 17170,
            "overwritedBlockNumber": -1,
            "priorityFee": "",
            "receiver": "0x8b95c7201c907ff4955635c2811358f4dfe063c1",
            "revertMessage": "",
            "sender": "0xf665a17ba9c6b1dbbc85fc0e84d50976b356eb8c",
            "simulationEnable": true,
            "sourceTxnHash": "0xb3d351a1fc38cc1a236d01d4b475028b5c027567d3b19792815785516716f473",
            "status": true,
            "timestamp": "2020-05-17T03:45:05Z",
            "transactionFee": "0.00192035",
            "txnHash": "0xb3d351a1fc38cc1a236d01d4b475028b5c027567d3b19792815785516716f473",
            "txnIndex": 61,
            "type": 0,
            "value": "0"
        },
        "fund_flow": [
            {
                "amount": "20",
                "from": "0x0000000000000000000000000000000000000000",
                "id": 1,
                "isERC1155": false,
                "isERC721": false,
                "isReverted": false,
                "order": 1,
                "to": "0xe1570e8b80e7446d42a378f9bd7178d07d1e5a78",
                "token": "0x1b7ac38cb8fcdb3273e0dc8c9bb115a03247de62"
            },
            {
                "amount": "4",
                "from": "0x0000000000000000000000000000000000000000",
                "id": 2,
                "isERC1155": false,
                "isERC721": false,
                "isReverted": false,
                "order": 2,
                "to": "0xb956dbe1bda57157bfd6e2f26123c785026b0734",
                "token": "0x1b7ac38cb8fcdb3273e0dc8c9bb115a03247de62"
            },
            {
                "amount": "2",
                "from": "0x0000000000000000000000000000000000000000",
                "id": 3,
                "isERC1155": false,
                "isERC721": false,
                "isReverted": false,
                "order": 3,
                "to": "0xe414ac92a0d0dc69b2d5ab7fb39782100cd29107",
                "token": "0x1b7ac38cb8fcdb3273e0dc8c9bb115a03247de62"
            }
        ],
        "token_infos": [
            {
                "address": "0x1b7ac38cb8fcdb3273e0dc8c9bb115a03247de62",
                "decimals": 18
            },
            {
                "address": "0xc02aaa39b223fe8d0a0e5c4f27ead9083c756cc2",
                "decimals": 18
            },
            {
                "address": "0xeeeeeeeeeeeeeeeeeeeeeeeeeeeeeeeeeeeeeeee",
                "decimals": 18
            }
        ]
    },
    "address_label": {
        "labels": [
            {
                "address": "0xeeeeeeeeeeeeeeeeeeeeeeeeeeeeeeeeeeeeeeee",
                "label": "Ether"
            },
            {
                "address": "0x1b7ac38cb8fcdb3273e0dc8c9bb115a03247de62",
                "label": "ETA (ETA)"
            },
            {
                "address": "0x0000000000000000000000000000000000000001",
                "label": "Precompiled"
            },
            {
                "address": "0x0000000000000000000000000000000000000002",
                "label": "Precompiled"
            },
            {
                "address": "0x0000000000000000000000000000000000000003",
                "label": "Precompiled"
            },
            {
                "address": "0x0000000000000000000000000000000000000004",
                "label": "Precompiled"
            }
        ]
    },
    "trace": {
        "accountLabels": null,
        "dataMap": {
            "-1": {
                "invocation": {
                    "address": "0xf665a17ba9c6b1dbbc85fc0e84d50976b356eb8c",
                    "callData": "",
                    "decodedMethod": null,
                    "errorInfo": "",
                    "fromAddress": "",
                    "gasUsed": 0,
                    "id": -1,
                    "methodDecoded": false,
                    "operation": "",
                    "output": "",
                    "revert": false,
                    "revertMessage": "",
                    "selector": "",
                    "status": false,
                    "value": ""
                },
                "nodeType": 0
            },
            "0": {
                "invocation": {
                    "address": "0x8b95c7201c907ff4955635c2811358f4dfe063c1",
                    "callData": "0x0000000000000000000000000000000000000000000000000000000000000016000000000000000000000000e1570e8b80e7446d42a378f9bd7178d07d1e5a78000000000000000000000000b956dbe1bda57157bfd6e2f26123c785026b0734000000000000000000000000e414ac92a0d0dc69b2d5ab7fb39782100cd29107",
                    "decodedMethod": null,
                    "errorInfo": "",
                    "fromAddress": "0xf665a17ba9c6b1dbbc85fc0e84d50976b356eb8c",
                    "gasUsed": 76814,
                    "id": 0,
                    "methodDecoded": false,
                    "operation": "CALL",
                    "output": "0x0000000000000000000000000000000000000000000000000000000000000001",
                    "revert": false,
                    "revertMessage": "",
                    "selector": "0x594be9e5",
                    "status": true,
                    "value": "0"
                },
                "nodeType": 0
            },
            "1": {
                "invocation": {
                    "address": "0x1b7ac38cb8fcdb3273e0dc8c9bb115a03247de62",
                    "callData": "0x000000000000000000000000e1570e8b80e7446d42a378f9bd7178d07d1e5a78000000000000000000000000000000000000000000000001158e460913d00000",
                    "decodedMethod": {
                        "callParams": [
                            {
                                "name": "to",
                                "type": "address",
                                "value": "0xe1570e8b80e7446d42a378f9bd7178d07d1e5a78"
                            },
                            {
                                "name": "amount",
                                "type": "uint256",
                                "value": "20,000,000,000,000,000,000"
                            }
                        ],
                        "constructorArguments": "",
                        "name": "mint",
                        "returnParams": [],
                        "signature": "mint(address,uint256)"
                    },
                    "errorInfo": "",
                    "fromAddress": "0x8b95c7201c907ff4955635c2811358f4dfe063c1",
                    "gasUsed": 15537,
                    "id": 1,
                    "methodDecoded": true,
                    "operation": "CALL",
                    "output": "0x0000000000000000000000000000000000000000000000000000000000000001",
                    "revert": false,
                    "revertMessage": "",
                    "selector": "0x40c10f19",
                    "status": true,
                    "value": "0"
                },
                "nodeType": 0
            },
            "2": {
                "event": {
                    "contract": "0x1b7ac38cb8fcdb3273e0dc8c9bb115a03247de62",
                    "decodedLog": {
                        "name": "Transfer",
                        "params": [
                            {
                                "name": "from",
                                "type": "address",
                                "value": "0x0000000000000000000000000000000000000000"
                            },
                            {
                                "name": "to",
                                "type": "address",
                                "value": "0xe1570e8b80e7446d42a378f9bd7178d07d1e5a78"
                            },
                            {
                                "decimalAvailable": true,
                                "name": "value",
                                "type": "uint256",
                                "value": "20,000,000,000,000,000,000"
                            }
                        ],
                        "signature": "Transfer(address,address,uint256)"
                    },
                    "id": 2,
                    "logData": "0x000000000000000000000000000000000000000000000001158e460913d00000",
                    "logDecoded": true,
                    "operation": "EVENT",
                    "revert": false,
                    "status": true,
                    "topics": [
                        "0xddf252ad1be2c89b69c2b068fc378daa952ba7f163c4a11628f55a4df523b3ef",
                        "0x0000000000000000000000000000000000000000000000000000000000000000",
                        "0x000000000000000000000000e1570e8b80e7446d42a378f9bd7178d07d1e5a78"
                    ]
                },
                "nodeType": 1
            },
            "3": {
                "event": {
                    "contract": "0x8b95c7201c907ff4955635c2811358f4dfe063c1",
                    "decodedLog": {
                        "name": "rewardSent",
                        "params": [
                            {
                                "name": "reciever",
                                "type": "address",
                                "value": "0xe1570e8b80e7446d42a378f9bd7178d07d1e5a78"
                            },
                            {
                                "name": "amount",
                                "type": "uint256",
                                "value": "20,000,000,000,000,000,000"
                            }
                        ],
                        "signature": "rewardSent(address,uint256)"
                    },
                    "id": 3,
                    "logData": "0x000000000000000000000000e1570e8b80e7446d42a378f9bd7178d07d1e5a78000000000000000000000000000000000000000000000001158e460913d00000",
                    "logDecoded": true,
                    "operation": "EVENT",
                    "revert": false,
                    "status": true,
                    "topics": [
                        "0x96b509318be4d9bace5c91968016d475c48f45a151186b34087e00931d060890"
                    ]
                },
                "nodeType": 1
            },
            "4": {
                "invocation": {
                    "address": "0x1b7ac38cb8fcdb3273e0dc8c9bb115a03247de62",
                    "callData": "0x000000000000000000000000b956dbe1bda57157bfd6e2f26123c785026b07340000000000000000000000000000000000000000000000003782dace9d900000",
                    "decodedMethod": {
                        "callParams": [
                            {
                                "name": "to",
                                "type": "address",
                                "value": "0xb956dbe1bda57157bfd6e2f26123c785026b0734"
                            },
                            {
                                "name": "amount",
                                "type": "uint256",
                                "value": "4,000,000,000,000,000,000"
                            }
                        ],
                        "constructorArguments": "",
                        "name": "mint",
                        "returnParams": [],
                        "signature": "mint(address,uint256)"
                    },
                    "errorInfo": "",
                    "fromAddress": "0x8b95c7201c907ff4955635c2811358f4dfe063c1",
                    "gasUsed": 11337,
                    "id": 4,
                    "methodDecoded": true,
                    "operation": "CALL",
                    "output": "0x0000000000000000000000000000000000000000000000000000000000000001",
                    "revert": false,
                    "revertMessage": "",
                    "selector": "0x40c10f19",
                    "status": true,
                    "value": "0"
                },
                "nodeType": 0
            },
            "5": {
                "event": {
                    "contract": "0x1b7ac38cb8fcdb3273e0dc8c9bb115a03247de62",
                    "decodedLog": {
                        "name": "Transfer",
                        "params": [
                            {
                                "name": "from",
                                "type": "address",
                                "value": "0x0000000000000000000000000000000000000000"
                            },
                            {
                                "name": "to",
                                "type": "address",
                                "value": "0xb956dbe1bda57157bfd6e2f26123c785026b0734"
                            },
                            {
                                "decimalAvailable": true,
                                "name": "value",
                                "type": "uint256",
                                "value": "4,000,000,000,000,000,000"
                            }
                        ],
                        "signature": "Transfer(address,address,uint256)"
                    },
                    "id": 5,
                    "logData": "0x0000000000000000000000000000000000000000000000003782dace9d900000",
                    "logDecoded": true,
                    "operation": "EVENT",
                    "revert": false,
                    "status": true,
                    "topics": [
                        "0xddf252ad1be2c89b69c2b068fc378daa952ba7f163c4a11628f55a4df523b3ef",
                        "0x0000000000000000000000000000000000000000000000000000000000000000",
                        "0x000000000000000000000000b956dbe1bda57157bfd6e2f26123c785026b0734"
                    ]
                },
                "nodeType": 1
            },
            "6": {
                "event": {
                    "contract": "0x8b95c7201c907ff4955635c2811358f4dfe063c1",
                    "decodedLog": {
                        "name": "rewardSent",
                        "params": [
                            {
                                "name": "reciever",
                                "type": "address",
                                "value": "0xb956dbe1bda57157bfd6e2f26123c785026b0734"
                            },
                            {
                                "name": "amount",
                                "type": "uint256",
                                "value": "4,000,000,000,000,000,000"
                            }
                        ],
                        "signature": "rewardSent(address,uint256)"
                    },
                    "id": 6,
                    "logData": "0x000000000000000000000000b956dbe1bda57157bfd6e2f26123c785026b07340000000000000000000000000000000000000000000000003782dace9d900000",
                    "logDecoded": true,
                    "operation": "EVENT",
                    "revert": false,
                    "status": true,
                    "topics": [
                        "0x96b509318be4d9bace5c91968016d475c48f45a151186b34087e00931d060890"
                    ]
                },
                "nodeType": 1
            },
            "7": {
                "invocation": {
                    "address": "0x1b7ac38cb8fcdb3273e0dc8c9bb115a03247de62",
                    "callData": "0x000000000000000000000000e414ac92a0d0dc69b2d5ab7fb39782100cd291070000000000000000000000000000000000000000000000001bc16d674ec80000",
                    "decodedMethod": {
                        "callParams": [
                            {
                                "name": "to",
                                "type": "address",
                                "value": "0xe414ac92a0d0dc69b2d5ab7fb39782100cd29107"
                            },
                            {
                                "name": "amount",
                                "type": "uint256",
                                "value": "2,000,000,000,000,000,000"
                            }
                        ],
                        "constructorArguments": "",
                        "name": "mint",
                        "returnParams": [],
                        "signature": "mint(address,uint256)"
                    },
                    "errorInfo": "",
                    "fromAddress": "0x8b95c7201c907ff4955635c2811358f4dfe063c1",
                    "gasUsed": 11337,
                    "id": 7,
                    "methodDecoded": true,
                    "operation": "CALL",
                    "output": "0x0000000000000000000000000000000000000000000000000000000000000001",
                    "revert": false,
                    "revertMessage": "",
                    "selector": "0x40c10f19",
                    "status": true,
                    "value": "0"
                },
                "nodeType": 0
            },
            "8": {
                "event": {
                    "contract": "0x1b7ac38cb8fcdb3273e0dc8c9bb115a03247de62",
                    "decodedLog": {
                        "name": "Transfer",
                        "params": [
                            {
                                "name": "from",
                                "type": "address",
                                "value": "0x0000000000000000000000000000000000000000"
                            },
                            {
                                "name": "to",
                                "type": "address",
                                "value": "0xe414ac92a0d0dc69b2d5ab7fb39782100cd29107"
                            },
                            {
                                "decimalAvailable": true,
                                "name": "value",
                                "type": "uint256",
                                "value": "2,000,000,000,000,000,000"
                            }
                        ],
                        "signature": "Transfer(address,address,uint256)"
                    },
                    "id": 8,
                    "logData": "0x0000000000000000000000000000000000000000000000001bc16d674ec80000",
                    "logDecoded": true,
                    "operation": "EVENT",
                    "revert": false,
                    "status": true,
                    "topics": [
                        "0xddf252ad1be2c89b69c2b068fc378daa952ba7f163c4a11628f55a4df523b3ef",
                        "0x0000000000000000000000000000000000000000000000000000000000000000",
                        "0x000000000000000000000000e414ac92a0d0dc69b2d5ab7fb39782100cd29107"
                    ]
                },
                "nodeType": 1
            },
            "9": {
                "event": {
                    "contract": "0x8b95c7201c907ff4955635c2811358f4dfe063c1",
                    "decodedLog": {
                        "name": "rewardSent",
                        "params": [
                            {
                                "name": "reciever",
                                "type": "address",
                                "value": "0xe414ac92a0d0dc69b2d5ab7fb39782100cd29107"
                            },
                            {
                                "name": "amount",
                                "type": "uint256",
                                "value": "2,000,000,000,000,000,000"
                            }
                        ],
                        "signature": "rewardSent(address,uint256)"
                    },
                    "id": 9,
                    "logData": "0x000000000000000000000000e414ac92a0d0dc69b2d5ab7fb39782100cd291070000000000000000000000000000000000000000000000001bc16d674ec80000",
                    "logDecoded": true,
                    "operation": "EVENT",
                    "revert": false,
                    "status": true,
                    "topics": [
                        "0x96b509318be4d9bace5c91968016d475c48f45a151186b34087e00931d060890"
                    ]
                },
                "nodeType": 1
            }
        },
        "gasFlame": [
            {
                "children": [
                    {
                        "children": [
                            {
                                "children": [],
                                "depth": 0,
                                "name": "Initial Gas",
                                "value": 22308
                            },
                            {
                                "children": [
                                    {
                                        "children": [],
                                        "depth": 1,
                                        "name": "mint",
                                        "value": 15537
                                    },
                                    {
                                        "children": [],
                                        "depth": 1,
                                        "name": "mint",
                                        "value": 11337
                                    },
                                    {
                                        "children": [],
                                        "depth": 1,
                                        "name": "mint",
                                        "value": 11337
                                    }
                                ],
                                "depth": 0,
                                "name": "Executed Gas",
                                "value": 54506
                            }
                        ],
                        "depth": -1,
                        "name": "Actual Gas Used",
                        "value": 76814
                    },
                    {
                        "children": [],
                        "depth": -1,
                        "name": "Refunded Gas",
                        "value": 0
                    }
                ],
                "depth": -2,
                "name": "Total Gas",
                "value": 76814
            }
        ],
        "isConfirmed": true,
        "mainTrace": [
            {
                "children": [
                    {
                        "children": [
                            {
                                "children": [
                                    {
                                        "children": [],
                                        "depth": 2,
                                        "id": 2,
                                        "order": 2
                                    }
                                ],
                                "depth": 1,
                                "id": 1,
                                "order": 1
                            },
                            {
                                "children": [],
                                "depth": 1,
                                "id": 3,
                                "order": 3
                            },
                            {
                                "children": [
                                    {
                                        "children": [],
                                        "depth": 2,
                                        "id": 5,
                                        "order": 5
                                    }
                                ],
                                "depth": 1,
                                "id": 4,
                                "order": 4
                            },
                            {
                                "children": [],
                                "depth": 1,
                                "id": 6,
                                "order": 6
                            },
                            {
                                "children": [
                                    {
                                        "children": [],
                                        "depth": 2,
                                        "id": 8,
                                        "order": 8
                                    }
                                ],
                                "depth": 1,
                                "id": 7,
                                "order": 7
                            },
                            {
                                "children": [],
                                "depth": 1,
                                "id": 9,
                                "order": 9
                            }
                        ],
                        "depth": 0,
                        "id": 0,
                        "order": 0
                    }
                ],
                "depth": -1,
                "id": -1,
                "order": -1
            }
        ],
        "mainTraceNodeCount": 10,
        "parentIdMap": {
            "0": -1,
            "1": 0,
            "2": 1,
            "3": 0,
            "4": 0,
            "5": 4,
            "6": 0,
            "7": 0,
            "8": 7,
            "9": 0
        },
        "tidyTrace": [
            {
                "children": [
                    {
                        "children": [
                            {
                                "children": [
                                    {
                                        "children": [],
                                        "depth": 2,
                                        "id": 2,
                                        "order": 2
                                    }
                                ],
                                "depth": 1,
                                "id": 1,
                                "order": 1
                            },
                            {
                                "children": [],
                                "depth": 1,
                                "id": 3,
                                "order": 3
                            },
                            {
                                "children": [
                                    {
                                        "children": [],
                                        "depth": 2,
                                        "id": 5,
                                        "order": 5
                                    }
                                ],
                                "depth": 1,
                                "id": 4,
                                "order": 4
                            },
                            {
                                "children": [],
                                "depth": 1,
                                "id": 6,
                                "order": 6
                            },
                            {
                                "children": [
                                    {
                                        "children": [],
                                        "depth": 2,
                                        "id": 8,
                                        "order": 8
                                    }
                                ],
                                "depth": 1,
                                "id": 7,
                                "order": 7
                            },
                            {
                                "children": [],
                                "depth": 1,
                                "id": 9,
                                "order": 9
                            }
                        ],
                        "depth": 0,
                        "id": 0,
                        "order": 0
                    }
                ],
                "depth": -1,
                "id": -1,
                "order": -1
            }
        ],
        "tidyTraceNodeCount": 10
    },
    "state_change": {
        "stateChanges": [
            {
                "address": "0x1b7ac38cb8fcdb3273e0dc8c9bb115a03247de62",
                "erc": "",
                "slots": [
                    {
                        "current": "0x00000000000000000000000000000000000000000000019bff2ff57968c00000",
                        "key": "0x7a42353e5304ef74f23cae3d70d98cdab28abf95f036b9721381d8ae9fe044ef",
                        "prev": "0x00000000000000000000000000000000000000000000019be36e881219f80000"
                    },
                    {
                        "current": "0x000000000000000000000000000000000000000000003ea1969afe9fe2ae0000",
                        "key": "0x0000000000000000000000000000000000000000000000000000000000000002",
                        "prev": "0x000000000000000000000000000000000000000000003ea02dc87060e2860000"
                    },
                    {
                        "current": "0x00000000000000000000000000000000000000000000000340aad21b3b700000",
                        "key": "0xf7e503115640874b77193d3221679da006091f2372e0fc65ee392c8ad8e73a1b",
                        "prev": "0x0000000000000000000000000000000000000000000000022b1c8c1227a00000"
                    },
                    {
                        "current": "0x00000000000000000000000000000000000000000000003adf470e201a380000",
                        "key": "0x6a3652446c6af14de9c1cdd9f717d3181150b467b604baf58ed3647a29e9e0d1",
                        "prev": "0x00000000000000000000000000000000000000000000003aa7c433517ca80000"
                    }
                ],
                "storageVariables": []
            }
        ]
    }
}