{
    "balance_change": {
        "balanceChanges": []
    },
    "profile": {
        "basic_info": {
            "baseFee": "",
            "blockNumber": 2934729,
            "callData": "0xa9059cbb00000000000000000000000060b8767122a755c1ff5224a245e4c6f761b86b1c0000000000000000000000000000000000000000000000000396606162704000",
            "debugEnable": true,
            "errorInfo": "",
            "eventCount": 1,
            "feeRecipient": "0xea674fdde714fd979de3edf0f56aa9716b898ec8",
            "formatValue": "0",
            "gasLimit": 405000,
            "gasPrice": "20",
            "gasUsed": 37358,
            "intTxnCount": 0,
            "internalRevert": false,
            "internalRevertMessage": "",
            "isContractCreation": false,
            "isFlashloan": false,
            "maxFee": "",
            "nonce": 186477,
            "overwritedBlockNumber": -1,
            "priorityFee": "",
            "receiver": "0x37a9679c41e99db270bda88de8ff50c0cd23f326",
            "revertMessage": "",
            "sender": "0x9e0b9ddba97dd4f7addab0b5f67036eebe687606",
            "simulationEnable": true,
            "sourceTxnHash": "0xb469df2aa5b56add08f749be62dca773ebce54f134f8803e996df07415663bec",
            "status": true,
            "timestamp": "2017-01-04T15:48:12Z",
            "transactionFee": "0.00074716",
            "txnHash": "0xb469df2aa5b56add08f749be62dca773ebce54f134f8803e996df07415663bec",
            "txnIndex": 37,
            "type": 0,
            "value": "0"
        },
        "fund_flow": [],
        "token_infos": [
            {
                "address": "0xc02aaa39b223fe8d0a0e5c4f27ead9083c756cc2",
                "decimals": 18
            },
            {
                "address": "0xeeeeeeeeeeeeeeeeeeeeeeeeeeeeeeeeeeeeeeee",
                "decimals": 18
            }
        ]
    },
    "address_label": {
        "labels": [
            {
                "address": "0x0000000000000000000000000000000000000001",
                "label": "Precompiled"
            },
            {
                "address": "0x0000000000000000000000000000000000000002",
                "label": "Precompiled"
            },
            {
                "address": "0x0000000000000000000000000000000000000003",
                "label": "Precompiled"
            },
            {
                "address": "0x0000000000000000000000000000000000000004",
                "label": "Precompiled"
            },
            {
                "address": "0xeeeeeeeeeeeeeeeeeeeeeeeeeeeeeeeeeeeeeeee",
                "label": "Ether"
            },
            {
                "address": "0x37a9679c41e99db270bda88de8ff50c0cd23f326",
                "label": "YoCoin"
            }
        ]
    },
    "trace": {
        "accountLabels": null,
        "dataMap": {
            "-1": {
                "invocation": {
                    "address": "0x9e0b9ddba97dd4f7addab0b5f67036eebe687606",
                    "callData": "",
                    "decodedMethod": null,
                    "errorInfo": "",
                    "fromAddress": "",
                    "gasUsed": 0,
                    "id": -1,
                    "methodDecoded": false,
                    "operation": "",
                    "output": "",
                    "revert": false,
                    "revertMessage": "",
                    "selector": "",
                    "status": false,
                    "value": ""
                },
                "nodeType": 0
            },
            "0": {
                "invocation": {
                    "address": "0x37a9679c41e99db270bda88de8ff50c0cd23f326",
                    "callData": "0x00000000000000000000000060b8767122a755c1ff5224a245e4c6f761b86b1c0000000000000000000000000000000000000000000000000396606162704000",
                    "decodedMethod": {
                        "callParams": [
                            {
                                "name": "_to",
                                "type": "address",
                                "value": "0x60b8767122a755c1ff5224a245e4c6f761b86b1c"
                            },
                            {
                                "decimalAvailable": true,
                                "name": "_value",
                                "type": "uint256",
                                "value": "258,500,000,000,000,000"
                            }
                        ],
                        "constructorArguments": "",
                        "name": "transfer",
                        "returnParams": [],
                        "signature": "transfer(address,uint256)"
                    },
                    "errorInfo": "",
                    "fromAddress": "0x9e0b9ddba97dd4f7addab0b5f67036eebe687606",
                    "gasUsed": 37358,
                    "id": 0,
                    "methodDecoded": true,
                    "operation": "CALL",
                    "output": "",
                    "revert": false,
                    "revertMessage": "",
                    "selector": "0xa9059cbb",
                    "status": true,
                    "value": "0"
                },
                "nodeType": 0
            },
            "1": {
                "event": {
                    "contract": "0x37a9679c41e99db270bda88de8ff50c0cd23f326",
                    "decodedLog": {
                        "name": "Transfer",
                        "params": [
                            {
                                "name": "from",
                                "type": "address",
                                "value": "0x9e0b9ddba97dd4f7addab0b5f67036eebe687606"
                            },
                            {
                                "name": "to",
                                "type": "address",
                                "value": "0x60b8767122a755c1ff5224a245e4c6f761b86b1c"
                            },
                            {
                                "name": "value",
                                "type": "int256",
                                "value": "258,500,000,000,000,000"
                            }
                        ],
                        "signature": "Transfer(address,address,int256)"
                    },
                    "id": 1,
                    "logData": "0x0000000000000000000000000000000000000000000000000396606162704000",
                    "logDecoded": true,
                    "operation": "EVENT",
                    "revert": false,
                    "status": true,
                    "topics": [
                        "0x8b0c34a52f9e28d78caaa7066cd047b398dae74941a208b77777420f492bd7e1",
                        "0x0000000000000000000000009e0b9ddba97dd4f7addab0b5f67036eebe687606",
                        "0x00000000000000000000000060b8767122a755c1ff5224a245e4c6f761b86b1c"
                    ]
                },
                "nodeType": 1
            }
        },
        "gasFlame": [
            {
                "children": [
                    {
                        "children": [
                            {
                                "children": [],
                                "depth": 0,
                                "name": "Initial Gas",
                                "value": 23256
                            },
                            {
                                "children": [],
                                "depth": 0,
                                "name": "Executed Gas",
                                "value": 14102
                            }
                        ],
                        "depth": -1,
                        "name": "Actual Gas Used",
                        "value": 37358
                    },
                    {
                        "children": [],
                        "depth": -1,
                        "name": "Refunded Gas",
                        "value": 0
                    }
                ],
                "depth": -2,
                "name": "Total Gas",
                "value": 37358
            }
        ],
        "isConfirmed": true,
        "mainTrace": [
            {
                "children": [
                    {
                        "children": [
                            {
                                "children": [],
                                "depth": 1,
                                "id": 1,
                                "order": 1
                            }
                        ],
                        "depth": 0,
                        "id": 0,
                        "order": 0
                    }
                ],
                "depth": -1,
                "id": -1,
                "order": -1
            }
        ],
        "mainTraceNodeCount": 2,
        "parentIdMap": {
            "0": -1,
            "1": 0
        },
        "tidyTrace": [
            {
                "children": [
                    {
                        "children": [
                            {
                                "children": [],
                                "depth": 1,
                                "id": 1,
                                "order": 1
                            }
                        ],
                        "depth": 0,
                        "id": 0,
                        "order": 0
                    }
                ],
                "depth": -1,
                "id": -1,
                "order": -1
            }
        ],
        "tidyTraceNodeCount": 2
    },
    "state_change": {
        "stateChanges": [
            {
                "address": "0x37a9679c41e99db270bda88de8ff50c0cd23f326",
                "erc": "",
                "slots": [
                    {
                        "current": "0x000000000000000000000000000000000000000000000661bc6190faa7896a00",
                        "key": "0xde9e05d799821d025edb97284e7d7b6d2ce368ed5f0071af3b56e75c418aadd4",
                        "prev": "0x000000000000000000000000000000000000000000000661bff7f15c09f9aa00"
                    },
                    {
                        "current": "0x000000000000000000000000000000000000000000000001deb6dbbcd7198000",
                        "key": "0xd9dff00547c04a0c1e80d2f20e5ae2f8e7930e338c71cefe888430514168ddad",
                        "prev": "0x000000000000000000000000000000000000000000000001db207b5b74a94000"
                    }
                ],
                "storageVariables": []
            }
        ]
    }
}