{
    "balance_change": {
        "balanceChanges": [
            {
                "account": "0xaf3b8562966cf350e8f32972e0733c88bdf664c3",
                "assets": [
                    {
                        "address": "0x89d24a6b4ccb1b6faa2625fe562bdd9a23260359",
                        "amount": "1.07",
                        "iconUrl": "https://assets.blocksec.com/icon/ef749d775affba651ec0a3b1d637f71b140c748229531fb8d00c215d958a89f4.png",
                        "isERC1155": false,
                        "isERC721": false,
                        "sign": true,
                        "value": ""
                    }
                ]
            },
            {
                "account": "0x0db5cc5b3b502369a4a315098ab2f733b9359039",
                "assets": [
                    {
                        "address": "0x89d24a6b4ccb1b6faa2625fe562bdd9a23260359",
                        "amount": "1.07",
                        "iconUrl": "https://assets.blocksec.com/icon/ef749d775affba651ec0a3b1d637f71b140c748229531fb8d00c215d958a89f4.png",
                        "isERC1155": false,
                        "isERC721": false,
                        "sign": false,
                        "value": ""
                    }
                ]
            }
        ]
    },
    "profile": {
        "basic_info": {
            "baseFee": "",
            "blockNumber": 8595819,
            "callData": "0x1cff79cd000000000000000000000000526af336d614ade5cc252a407062b8861af998f5000000000000000000000000000000000000000000000000000000000000004000000000000000000000000000000000000000000000000000000000000000640344a36f000000000000000000000000448a5065aebb8e423f0896e6c5d525c040f59af3000000000000000000000000000000000000000000000000000000000001c7190000000000000000000000000000000000000000000000000ed96754b5ab000000000000000000000000000000000000000000000000000000000000",
            "debugEnable": true,
            "errorInfo": "",
            "eventCount": 10,
            "feeRecipient": "0xb2930b35844a230f00e51431acae96fe543a0347",
            "formatValue": "0",
            "gasLimit": 265701,
            "gasPrice": "2",
            "gasUsed": 157886,
            "intTxnCount": 12,
            "internalRevert": false,
            "internalRevertMessage": "",
            "isContractCreation": false,
            "isFlashloan": false,
            "maxFee": "",
            "nonce": 1,
            "overwritedBlockNumber": -1,
            "priorityFee": "",
            "receiver": "0x0db5cc5b3b502369a4a315098ab2f733b9359039",
            "revertMessage": "",
            "sender": "0xaf3b8562966cf350e8f32972e0733c88bdf664c3",
            "simulationEnable": true,
            "sourceTxnHash": "0xb403c43e55ec1af7280431a951fb1e93b4efabdebdfafca7e69d7e41bed4daab",
            "status": true,
            "timestamp": "2019-09-22T00:28:34Z",
            "transactionFee": "0.000315772",
            "txnHash": "0xb403c43e55ec1af7280431a951fb1e93b4efabdebdfafca7e69d7e41bed4daab",
            "txnIndex": 7,
            "type": 0,
            "value": "0"
        },
        "fund_flow": [
            {
                "amount": "1.07",
                "from": "0x0db5cc5b3b502369a4a315098ab2f733b9359039",
                "id": 1,
                "isERC1155": false,
                "isERC721": false,
                "isReverted": false,
                "order": 1,
                "to": "0xaf3b8562966cf350e8f32972e0733c88bdf664c3",
                "token": "0x89d24a6b4ccb1b6faa2625fe562bdd9a23260359"
            }
        ],
        "token_infos": [
            {
                "address": "0x89d24a6b4ccb1b6faa2625fe562bdd9a23260359",
                "decimals": 18
            },
            {
                "address": "0xc02aaa39b223fe8d0a0e5c4f27ead9083c756cc2",
                "decimals": 18
            },
            {
                "address": "0xeeeeeeeeeeeeeeeeeeeeeeeeeeeeeeeeeeeeeeee",
                "decimals": 18
            }
        ]
    },
    "address_label": {
        "labels": [
            {
                "address": "0x526af336d614ade5cc252a407062b8861af998f5",
                "label": "Maker: Sai Proxy 2"
            },
            {
                "address": "0xf53ad2c6851052a81b42133467480961b2321c09",
                "label": "Pooled Ether"
            },
            {
                "address": "0x0000000000000000000000000000000000000003",
                "label": "Precompiled"
            },
            {
                "address": "0xeeeeeeeeeeeeeeeeeeeeeeeeeeeeeeeeeeeeeeee",
                "label": "Ether"
            },
            {
                "address": "0xc02aaa39b223fe8d0a0e5c4f27ead9083c756cc2",
                "label": "Wrapped Ether (WETH)"
            },
            {
                "address": "0x9b0f70df76165442ca6092939132bbaea77f2d7a",
                "label": "Maker: Contract 3"
            },
            {
                "address": "0x315cbb88168396d12e1a255f9cb935408fe80710",
                "label": "Maker: Contract 6"
            },
            {
                "address": "0x0db5cc5b3b502369a4a315098ab2f733b9359039",
                "label": "DSProxy"
            },
            {
                "address": "0x0000000000000000000000000000000000000001",
                "label": "Precompiled"
            },
            {
                "address": "0x448a5065aebb8e423f0896e6c5d525c040f59af3",
                "label": "Oasis.app"
            },
            {
                "address": "0x0000000000000000000000000000000000000002",
                "label": "Precompiled"
            },
            {
                "address": "0x89d24a6b4ccb1b6faa2625fe562bdd9a23260359",
                "label": "Sai Stablecoin"
            },
            {
                "address": "0x729d19f657bd0614b4985cf1d82531c67569197b",
                "label": "Maker: Medianizer 2"
            },
            {
                "address": "0x0000000000000000000000000000000000000004",
                "label": "Precompiled"
            }
        ]
    },
    "trace": {
        "accountLabels": null,
        "dataMap": {
            "-1": {
                "invocation": {
                    "address": "0xaf3b8562966cf350e8f32972e0733c88bdf664c3",
                    "callData": "",
                    "decodedMethod": null,
                    "errorInfo": "",
                    "fromAddress": "",
                    "gasUsed": 0,
                    "id": -1,
                    "methodDecoded": false,
                    "operation": "",
                    "output": "",
                    "revert": false,
                    "revertMessage": "",
                    "selector": "",
                    "status": false,
                    "value": ""
                },
                "nodeType": 0
            },
            "0": {
                "invocation": {
                    "address": "0x0db5cc5b3b502369a4a315098ab2f733b9359039",
                    "callData": "0x000000000000000000000000526af336d614ade5cc252a407062b8861af998f5000000000000000000000000000000000000000000000000000000000000004000000000000000000000000000000000000000000000000000000000000000640344a36f000000000000000000000000448a5065aebb8e423f0896e6c5d525c040f59af3000000000000000000000000000000000000000000000000000000000001c7190000000000000000000000000000000000000000000000000ed96754b5ab000000000000000000000000000000000000000000000000000000000000",
                    "decodedMethod": {
                        "callParams": [
                            {
                                "name": "_target",
                                "type": "address",
                                "value": "0x526af336d614ade5cc252a407062b8861af998f5"
                            },
                            {
                                "name": "_data",
                                "type": "bytes",
                                "value": "0x0344a36f000000000000000000000000448a5065aebb8e423f0896e6c5d525c040f59af3000000000000000000000000000000000000000000000000000000000001c7190000000000000000000000000000000000000000000000000ed96754b5ab0000"
                            }
                        ],
                        "constructorArguments": "",
                        "name": "execute",
                        "returnParams": [
                            {
                                "name": "response",
                                "type": "bytes32",
                                "value": "0x0000000000000000000000000000000000000000000000000000000000000000"
                            }
                        ],
                        "signature": "execute(address,bytes)"
                    },
                    "errorInfo": "",
                    "fromAddress": "0xaf3b8562966cf350e8f32972e0733c88bdf664c3",
                    "gasUsed": 157886,
                    "id": 0,
                    "methodDecoded": true,
                    "operation": "CALL",
                    "output": "0x0000000000000000000000000000000000000000000000000000000000000000",
                    "revert": false,
                    "revertMessage": "",
                    "selector": "0x1cff79cd",
                    "status": true,
                    "value": "0"
                },
                "nodeType": 0
            },
            "1": {
                "event": {
                    "contract": "0x0db5cc5b3b502369a4a315098ab2f733b9359039",
                    "decodedLog": null,
                    "id": 1,
                    "logData": "0x0000000000000000000000000000000000000000000000000000000000000000000000000000000000000000000000000000000000000000000000000000004000000000000000000000000000000000000000000000000000000000000000e41cff79cd000000000000000000000000526af336d614ade5cc252a407062b8861af998f5000000000000000000000000000000000000000000000000000000000000004000000000000000000000000000000000000000000000000000000000000000640344a36f000000000000000000000000448a5065aebb8e423f0896e6c5d525c040f59af3000000000000000000000000000000000000000000000000000000000001c7190000000000000000000000000000000000000000000000000ed96754b5ab000000000000000000000000000000000000000000000000000000000000",
                    "logDecoded": false,
                    "operation": "EVENT",
                    "revert": false,
                    "status": true,
                    "topics": [
                        "0x1cff79cd00000000000000000000000000000000000000000000000000000000",
                        "0x000000000000000000000000af3b8562966cf350e8f32972e0733c88bdf664c3",
                        "0x000000000000000000000000526af336d614ade5cc252a407062b8861af998f5",
                        "0x0000000000000000000000000000000000000000000000000000000000000040"
                    ]
                },
                "nodeType": 1
            },
            "10": {
                "invocation": {
                    "address": "0x315cbb88168396d12e1a255f9cb935408fe80710",
                    "callData": "0x000000000000000000000000448a5065aebb8e423f0896e6c5d525c040f59af300000000000000000000000089d24a6b4ccb1b6faa2625fe562bdd9a2326035940c10f1900000000000000000000000000000000000000000000000000000000",
                    "decodedMethod": {
                        "callParams": [
                            {
                                "name": "src_",
                                "type": "address",
                                "value": "0x448a5065aebb8e423f0896e6c5d525c040f59af3"
                            },
                            {
                                "name": "dst_",
                                "type": "address",
                                "value": "0x89d24a6b4ccb1b6faa2625fe562bdd9a23260359"
                            },
                            {
                                "name": "sig",
                                "type": "bytes4",
                                "value": "0x40c10f19"
                            }
                        ],
                        "constructorArguments": "",
                        "name": "canCall",
                        "returnParams": [
                            {
                                "name": "",
                                "type": "bool",
                                "value": true
                            }
                        ],
                        "signature": "canCall(address,address,bytes4)"
                    },
                    "errorInfo": "",
                    "fromAddress": "0x89d24a6b4ccb1b6faa2625fe562bdd9a23260359",
                    "gasUsed": 1212,
                    "id": 10,
                    "methodDecoded": true,
                    "operation": "CALL",
                    "output": "0x0000000000000000000000000000000000000000000000000000000000000001",
                    "revert": false,
                    "revertMessage": "",
                    "selector": "0xb7009613",
                    "status": true,
                    "value": "0"
                },
                "nodeType": 0
            },
            "11": {
                "event": {
                    "contract": "0x89d24a6b4ccb1b6faa2625fe562bdd9a23260359",
                    "decodedLog": {
                        "name": "Mint",
                        "params": [
                            {
                                "name": "guy",
                                "type": "address",
                                "value": "0x0db5cc5b3b502369a4a315098ab2f733b9359039"
                            },
                            {
                                "name": "wad",
                                "type": "uint256",
                                "value": "1,070,000,000,000,000,000"
                            }
                        ],
                        "signature": "Mint(address,uint256)"
                    },
                    "id": 11,
                    "logData": "0x0000000000000000000000000000000000000000000000000ed96754b5ab0000",
                    "logDecoded": true,
                    "operation": "EVENT",
                    "revert": false,
                    "status": true,
                    "topics": [
                        "0x0f6798a560793a54c3bcfe86a93cde1e73087d944c0ea20544137d4121396885",
                        "0x0000000000000000000000000db5cc5b3b502369a4a315098ab2f733b9359039"
                    ]
                },
                "nodeType": 1
            },
            "12": {
                "invocation": {
                    "address": "0xf53ad2c6851052a81b42133467480961b2321c09",
                    "callData": "0x",
                    "decodedMethod": {
                        "callParams": [],
                        "constructorArguments": "",
                        "name": "totalSupply",
                        "returnParams": [
                            {
                                "name": "",
                                "type": "uint256",
                                "value": "1,456,728,114,654,512,347,710,236"
                            }
                        ],
                        "signature": "totalSupply()"
                    },
                    "errorInfo": "",
                    "fromAddress": "0x448a5065aebb8e423f0896e6c5d525c040f59af3",
                    "gasUsed": 461,
                    "id": 12,
                    "methodDecoded": true,
                    "operation": "CALL",
                    "output": "0x00000000000000000000000000000000000000000001347963ab39f21ac1831c",
                    "revert": false,
                    "revertMessage": "",
                    "selector": "0x18160ddd",
                    "status": true,
                    "value": "0"
                },
                "nodeType": 0
            },
            "13": {
                "invocation": {
                    "address": "0xc02aaa39b223fe8d0a0e5c4f27ead9083c756cc2",
                    "callData": "0x000000000000000000000000448a5065aebb8e423f0896e6c5d525c040f59af3",
                    "decodedMethod": {
                        "callParams": [
                            {
                                "name": "",
                                "type": "address",
                                "value": "0x448a5065aebb8e423f0896e6c5d525c040f59af3"
                            }
                        ],
                        "constructorArguments": "",
                        "name": "balanceOf",
                        "returnParams": [
                            {
                                "decimalAvailable": true,
                                "name": "",
                                "type": "uint256",
                                "value": "1,520,233,239,508,767,253,597,293"
                            }
                        ],
                        "signature": "balanceOf(address)"
                    },
                    "errorInfo": "",
                    "fromAddress": "0x448a5065aebb8e423f0896e6c5d525c040f59af3",
                    "gasUsed": 634,
                    "id": 13,
                    "methodDecoded": true,
                    "operation": "CALL",
                    "output": "0x0000000000000000000000000000000000000000000141ec0250f851a0c20c6d",
                    "revert": false,
                    "revertMessage": "",
                    "selector": "0x70a08231",
                    "status": true,
                    "value": "0"
                },
                "nodeType": 0
            },
            "14": {
                "invocation": {
                    "address": "0xf53ad2c6851052a81b42133467480961b2321c09",
                    "callData": "0x",
                    "decodedMethod": {
                        "callParams": [],
                        "constructorArguments": "",
                        "name": "totalSupply",
                        "returnParams": [
                            {
                                "name": "",
                                "type": "uint256",
                                "value": "1,456,728,114,654,512,347,710,236"
                            }
                        ],
                        "signature": "totalSupply()"
                    },
                    "errorInfo": "",
                    "fromAddress": "0x448a5065aebb8e423f0896e6c5d525c040f59af3",
                    "gasUsed": 461,
                    "id": 14,
                    "methodDecoded": true,
                    "operation": "CALL",
                    "output": "0x00000000000000000000000000000000000000000001347963ab39f21ac1831c",
                    "revert": false,
                    "revertMessage": "",
                    "selector": "0x18160ddd",
                    "status": true,
                    "value": "0"
                },
                "nodeType": 0
            },
            "15": {
                "invocation": {
                    "address": "0x729d19f657bd0614b4985cf1d82531c67569197b",
                    "callData": "0x",
                    "decodedMethod": {
                        "callParams": [],
                        "constructorArguments": "",
                        "name": "read",
                        "returnParams": [
                            {
                                "name": "",
                                "type": "bytes32",
                                "value": "0x00000000000000000000000000000000000000000000000bb1e3cdc00ef54000"
                            }
                        ],
                        "signature": "read()"
                    },
                    "errorInfo": "",
                    "fromAddress": "0x448a5065aebb8e423f0896e6c5d525c040f59af3",
                    "gasUsed": 1011,
                    "id": 15,
                    "methodDecoded": true,
                    "operation": "CALL",
                    "output": "0x00000000000000000000000000000000000000000000000bb1e3cdc00ef54000",
                    "revert": false,
                    "revertMessage": "",
                    "selector": "0x57de26a4",
                    "status": true,
                    "value": "0"
                },
                "nodeType": 0
            },
            "16": {
                "invocation": {
                    "address": "0x9b0f70df76165442ca6092939132bbaea77f2d7a",
                    "callData": "0x",
                    "decodedMethod": {
                        "callParams": [],
                        "constructorArguments": "",
                        "name": "par",
                        "returnParams": [
                            {
                                "name": "",
                                "type": "uint256",
                                "value": "1,000,000,000,000,000,000,000,000,000"
                            }
                        ],
                        "signature": "par()"
                    },
                    "errorInfo": "",
                    "fromAddress": "0x448a5065aebb8e423f0896e6c5d525c040f59af3",
                    "gasUsed": 9254,
                    "id": 16,
                    "methodDecoded": true,
                    "operation": "CALL",
                    "output": "0x0000000000000000000000000000000000000000033b2e3c9fd0803ce8000000",
                    "revert": false,
                    "revertMessage": "",
                    "selector": "0x495d32cb",
                    "status": true,
                    "value": "0"
                },
                "nodeType": 0
            },
            "17": {
                "event": {
                    "contract": "0x9b0f70df76165442ca6092939132bbaea77f2d7a",
                    "decodedLog": null,
                    "id": 17,
                    "logData": "0x000000000000000000000000000000000000000000000000000000000000000000000000000000000000000000000000000000000000000000000000000000400000000000000000000000000000000000000000000000000000000000000004495d32cb",
                    "logDecoded": false,
                    "operation": "EVENT",
                    "revert": false,
                    "status": true,
                    "topics": [
                        "0x495d32cb00000000000000000000000000000000000000000000000000000000",
                        "0x000000000000000000000000448a5065aebb8e423f0896e6c5d525c040f59af3",
                        "0x0000000000000000000000000000000000000000000000000000000000000000",
                        "0x0000000000000000000000000000000000000000000000000000000000000000"
                    ]
                },
                "nodeType": 1
            },
            "18": {
                "event": {
                    "contract": "0x448a5065aebb8e423f0896e6c5d525c040f59af3",
                    "decodedLog": null,
                    "id": 18,
                    "logData": "0x000000000000000000000000000000000000000000000000000000000000000000000000000000000000000000000000000000000000000000000000000000400000000000000000000000000000000000000000000000000000000000000044440f19ba000000000000000000000000000000000000000000000000000000000001c7190000000000000000000000000000000000000000000000000ed96754b5ab0000",
                    "logDecoded": false,
                    "operation": "EVENT",
                    "revert": false,
                    "status": true,
                    "topics": [
                        "0x440f19ba00000000000000000000000000000000000000000000000000000000",
                        "0x0000000000000000000000000db5cc5b3b502369a4a315098ab2f733b9359039",
                        "0x000000000000000000000000000000000000000000000000000000000001c719",
                        "0x0000000000000000000000000000000000000000000000000ed96754b5ab0000"
                    ]
                },
                "nodeType": 1
            },
            "19": {
                "invocation": {
                    "address": "0x89d24a6b4ccb1b6faa2625fe562bdd9a23260359",
                    "callData": "0x",
                    "decodedMethod": {
                        "callParams": [],
                        "constructorArguments": "",
                        "name": "totalSupply",
                        "returnParams": [
                            {
                                "name": "",
                                "type": "uint256",
                                "value": "86,358,369,236,520,757,835,991,607"
                            }
                        ],
                        "signature": "totalSupply()"
                    },
                    "errorInfo": "",
                    "fromAddress": "0x448a5065aebb8e423f0896e6c5d525c040f59af3",
                    "gasUsed": 461,
                    "id": 19,
                    "methodDecoded": true,
                    "operation": "CALL",
                    "output": "0x000000000000000000000000000000000000000000476f1893b17dddf9b60a37",
                    "revert": false,
                    "revertMessage": "",
                    "selector": "0x18160ddd",
                    "status": true,
                    "value": "0"
                },
                "nodeType": 0
            },
            "2": {
                "invocation": {
                    "address": "0x526af336d614ade5cc252a407062b8861af998f5",
                    "callData": "0x000000000000000000000000448a5065aebb8e423f0896e6c5d525c040f59af3000000000000000000000000000000000000000000000000000000000001c7190000000000000000000000000000000000000000000000000ed96754b5ab0000",
                    "decodedMethod": {
                        "callParams": [
                            {
                                "name": "tub_",
                                "type": "address",
                                "value": "0x448a5065aebb8e423f0896e6c5d525c040f59af3"
                            },
                            {
                                "name": "cup",
                                "type": "bytes32",
                                "value": "0x000000000000000000000000000000000000000000000000000000000001c719"
                            },
                            {
                                "name": "wad",
                                "type": "uint256",
                                "value": "1,070,000,000,000,000,000"
                            }
                        ],
                        "constructorArguments": "",
                        "name": "draw",
                        "returnParams": [],
                        "signature": "draw(address,bytes32,uint256)"
                    },
                    "errorInfo": "",
                    "fromAddress": "0x0db5cc5b3b502369a4a315098ab2f733b9359039",
                    "gasUsed": 140325,
                    "id": 2,
                    "methodDecoded": true,
                    "operation": "DELEGATECALL",
                    "output": "",
                    "revert": false,
                    "revertMessage": "",
                    "selector": "0x0344a36f",
                    "status": true,
                    "value": "0"
                },
                "nodeType": 0
            },
            "20": {
                "invocation": {
                    "address": "0x448a5065aebb8e423f0896e6c5d525c040f59af3",
                    "callData": "0x",
                    "decodedMethod": {
                        "callParams": [],
                        "constructorArguments": "",
                        "name": "sai",
                        "returnParams": [
                            {
                                "name": "",
                                "type": "address",
                                "value": "0x89d24a6b4ccb1b6faa2625fe562bdd9a23260359"
                            }
                        ],
                        "signature": "sai()"
                    },
                    "errorInfo": "",
                    "fromAddress": "0x0db5cc5b3b502369a4a315098ab2f733b9359039",
                    "gasUsed": 1315,
                    "id": 20,
                    "methodDecoded": true,
                    "operation": "CALL",
                    "output": "0x00000000000000000000000089d24a6b4ccb1b6faa2625fe562bdd9a23260359",
                    "revert": false,
                    "revertMessage": "",
                    "selector": "0x9166cba4",
                    "status": true,
                    "value": "0"
                },
                "nodeType": 0
            },
            "21": {
                "invocation": {
                    "address": "0x89d24a6b4ccb1b6faa2625fe562bdd9a23260359",
                    "callData": "0x000000000000000000000000af3b8562966cf350e8f32972e0733c88bdf664c30000000000000000000000000000000000000000000000000ed96754b5ab0000",
                    "decodedMethod": {
                        "callParams": [
                            {
                                "name": "dst",
                                "type": "address",
                                "value": "0xaf3b8562966cf350e8f32972e0733c88bdf664c3"
                            },
                            {
                                "decimalAvailable": true,
                                "name": "wad",
                                "type": "uint256",
                                "value": "1,070,000,000,000,000,000"
                            }
                        ],
                        "constructorArguments": "",
                        "name": "transfer",
                        "returnParams": [
                            {
                                "name": "",
                                "type": "bool",
                                "value": true
                            }
                        ],
                        "signature": "transfer(address,uint256)"
                    },
                    "errorInfo": "",
                    "fromAddress": "0x0db5cc5b3b502369a4a315098ab2f733b9359039",
                    "gasUsed": 14106,
                    "id": 21,
                    "methodDecoded": true,
                    "operation": "CALL",
                    "output": "0x0000000000000000000000000000000000000000000000000000000000000001",
                    "revert": false,
                    "revertMessage": "",
                    "selector": "0xa9059cbb",
                    "status": true,
                    "value": "0"
                },
                "nodeType": 0
            },
            "22": {
                "event": {
                    "contract": "0x89d24a6b4ccb1b6faa2625fe562bdd9a23260359",
                    "decodedLog": {
                        "name": "Transfer",
                        "params": [
                            {
                                "name": "src",
                                "type": "address",
                                "value": "0x0db5cc5b3b502369a4a315098ab2f733b9359039"
                            },
                            {
                                "name": "dst",
                                "type": "address",
                                "value": "0xaf3b8562966cf350e8f32972e0733c88bdf664c3"
                            },
                            {
                                "decimalAvailable": true,
                                "name": "wad",
                                "type": "uint256",
                                "value": "1,070,000,000,000,000,000"
                            }
                        ],
                        "signature": "Transfer(address,address,uint256)"
                    },
                    "id": 22,
                    "logData": "0x0000000000000000000000000000000000000000000000000ed96754b5ab0000",
                    "logDecoded": true,
                    "operation": "EVENT",
                    "revert": false,
                    "status": true,
                    "topics": [
                        "0xddf252ad1be2c89b69c2b068fc378daa952ba7f163c4a11628f55a4df523b3ef",
                        "0x0000000000000000000000000db5cc5b3b502369a4a315098ab2f733b9359039",
                        "0x000000000000000000000000af3b8562966cf350e8f32972e0733c88bdf664c3"
                    ]
                },
                "nodeType": 1
            },
            "3": {
                "invocation": {
                    "address": "0x448a5065aebb8e423f0896e6c5d525c040f59af3",
                    "callData": "0x000000000000000000000000000000000000000000000000000000000001c7190000000000000000000000000000000000000000000000000ed96754b5ab0000",
                    "decodedMethod": {
                        "callParams": [
                            {
                                "name": "cup",
                                "type": "bytes32",
                                "value": "0x000000000000000000000000000000000000000000000000000000000001c719"
                            },
                            {
                                "name": "wad",
                                "type": "uint256",
                                "value": "1,070,000,000,000,000,000"
                            }
                        ],
                        "constructorArguments": "",
                        "name": "draw",
                        "returnParams": [],
                        "signature": "draw(bytes32,uint256)"
                    },
                    "errorInfo": "",
                    "fromAddress": "0x0db5cc5b3b502369a4a315098ab2f733b9359039",
                    "gasUsed": 119500,
                    "id": 3,
                    "methodDecoded": true,
                    "operation": "CALL",
                    "output": "",
                    "revert": false,
                    "revertMessage": "",
                    "selector": "0x440f19ba",
                    "status": true,
                    "value": "0"
                },
                "nodeType": 0
            },
            "4": {
                "event": {
                    "contract": "0x448a5065aebb8e423f0896e6c5d525c040f59af3",
                    "decodedLog": null,
                    "id": 4,
                    "logData": "0x000000000000000000000000000000000000000000000000000000000000000000000000000000000000000000000000000000000000000000000000000000400000000000000000000000000000000000000000000000000000000000000044440f19ba000000000000000000000000000000000000000000000000000000000001c7190000000000000000000000000000000000000000000000000ed96754b5ab0000",
                    "logDecoded": false,
                    "operation": "EVENT",
                    "revert": false,
                    "status": true,
                    "topics": [
                        "0x440f19ba00000000000000000000000000000000000000000000000000000000",
                        "0x0000000000000000000000000db5cc5b3b502369a4a315098ab2f733b9359039",
                        "0x000000000000000000000000000000000000000000000000000000000001c719",
                        "0x0000000000000000000000000000000000000000000000000ed96754b5ab0000"
                    ]
                },
                "nodeType": 1
            },
            "5": {
                "event": {
                    "contract": "0x448a5065aebb8e423f0896e6c5d525c040f59af3",
                    "decodedLog": null,
                    "id": 5,
                    "logData": "0x000000000000000000000000000000000000000000000000000000000000000000000000000000000000000000000000000000000000000000000000000000400000000000000000000000000000000000000000000000000000000000000044440f19ba000000000000000000000000000000000000000000000000000000000001c7190000000000000000000000000000000000000000000000000ed96754b5ab0000",
                    "logDecoded": false,
                    "operation": "EVENT",
                    "revert": false,
                    "status": true,
                    "topics": [
                        "0x440f19ba00000000000000000000000000000000000000000000000000000000",
                        "0x0000000000000000000000000db5cc5b3b502369a4a315098ab2f733b9359039",
                        "0x000000000000000000000000000000000000000000000000000000000001c719",
                        "0x0000000000000000000000000000000000000000000000000ed96754b5ab0000"
                    ]
                },
                "nodeType": 1
            },
            "6": {
                "event": {
                    "contract": "0x448a5065aebb8e423f0896e6c5d525c040f59af3",
                    "decodedLog": null,
                    "id": 6,
                    "logData": "0x000000000000000000000000000000000000000000000000000000000000000000000000000000000000000000000000000000000000000000000000000000400000000000000000000000000000000000000000000000000000000000000044440f19ba000000000000000000000000000000000000000000000000000000000001c7190000000000000000000000000000000000000000000000000ed96754b5ab0000",
                    "logDecoded": false,
                    "operation": "EVENT",
                    "revert": false,
                    "status": true,
                    "topics": [
                        "0x440f19ba00000000000000000000000000000000000000000000000000000000",
                        "0x0000000000000000000000000db5cc5b3b502369a4a315098ab2f733b9359039",
                        "0x000000000000000000000000000000000000000000000000000000000001c719",
                        "0x0000000000000000000000000000000000000000000000000ed96754b5ab0000"
                    ]
                },
                "nodeType": 1
            },
            "7": {
                "event": {
                    "contract": "0x448a5065aebb8e423f0896e6c5d525c040f59af3",
                    "decodedLog": null,
                    "id": 7,
                    "logData": "0x000000000000000000000000000000000000000000000000000000000000000000000000000000000000000000000000000000000000000000000000000000400000000000000000000000000000000000000000000000000000000000000044440f19ba000000000000000000000000000000000000000000000000000000000001c7190000000000000000000000000000000000000000000000000ed96754b5ab0000",
                    "logDecoded": false,
                    "operation": "EVENT",
                    "revert": false,
                    "status": true,
                    "topics": [
                        "0x440f19ba00000000000000000000000000000000000000000000000000000000",
                        "0x0000000000000000000000000db5cc5b3b502369a4a315098ab2f733b9359039",
                        "0x000000000000000000000000000000000000000000000000000000000001c719",
                        "0x0000000000000000000000000000000000000000000000000ed96754b5ab0000"
                    ]
                },
                "nodeType": 1
            },
            "8": {
                "event": {
                    "contract": "0x448a5065aebb8e423f0896e6c5d525c040f59af3",
                    "decodedLog": null,
                    "id": 8,
                    "logData": "0x000000000000000000000000000000000000000000000000000000000000000000000000000000000000000000000000000000000000000000000000000000400000000000000000000000000000000000000000000000000000000000000044440f19ba000000000000000000000000000000000000000000000000000000000001c7190000000000000000000000000000000000000000000000000ed96754b5ab0000",
                    "logDecoded": false,
                    "operation": "EVENT",
                    "revert": false,
                    "status": true,
                    "topics": [
                        "0x440f19ba00000000000000000000000000000000000000000000000000000000",
                        "0x0000000000000000000000000db5cc5b3b502369a4a315098ab2f733b9359039",
                        "0x000000000000000000000000000000000000000000000000000000000001c719",
                        "0x0000000000000000000000000000000000000000000000000ed96754b5ab0000"
                    ]
                },
                "nodeType": 1
            },
            "9": {
                "invocation": {
                    "address": "0x89d24a6b4ccb1b6faa2625fe562bdd9a23260359",
                    "callData": "0x0000000000000000000000000db5cc5b3b502369a4a315098ab2f733b93590390000000000000000000000000000000000000000000000000ed96754b5ab0000",
                    "decodedMethod": {
                        "callParams": [
                            {
                                "name": "guy",
                                "type": "address",
                                "value": "0x0db5cc5b3b502369a4a315098ab2f733b9359039"
                            },
                            {
                                "name": "wad",
                                "type": "uint256",
                                "value": "1,070,000,000,000,000,000"
                            }
                        ],
                        "constructorArguments": "",
                        "name": "mint",
                        "returnParams": [],
                        "signature": "mint(address,uint256)"
                    },
                    "errorInfo": "",
                    "fromAddress": "0x448a5065aebb8e423f0896e6c5d525c040f59af3",
                    "gasUsed": 32253,
                    "id": 9,
                    "methodDecoded": true,
                    "operation": "CALL",
                    "output": "",
                    "revert": false,
                    "revertMessage": "",
                    "selector": "0x40c10f19",
                    "status": true,
                    "value": "0"
                },
                "nodeType": 0
            }
        },
        "gasFlame": [
            {
                "children": [
                    {
                        "children": [
                            {
                                "children": [],
                                "depth": 0,
                                "name": "Initial Gas",
                                "value": 25688
                            },
                            {
                                "children": [
                                    {
                                        "children": [
                                            {
                                                "children": [
                                                    {
                                                        "children": [
                                                            {
                                                                "children": [],
                                                                "depth": 4,
                                                                "name": "canCall",
                                                                "value": 1212
                                                            }
                                                        ],
                                                        "depth": 3,
                                                        "name": "mint",
                                                        "value": 32253
                                                    },
                                                    {
                                                        "children": [],
                                                        "depth": 3,
                                                        "name": "totalSupply",
                                                        "value": 461
                                                    },
                                                    {
                                                        "children": [],
                                                        "depth": 3,
                                                        "name": "balanceOf",
                                                        "value": 634
                                                    },
                                                    {
                                                        "children": [],
                                                        "depth": 3,
                                                        "name": "totalSupply",
                                                        "value": 461
                                                    },
                                                    {
                                                        "children": [],
                                                        "depth": 3,
                                                        "name": "read",
                                                        "value": 1011
                                                    },
                                                    {
                                                        "children": [],
                                                        "depth": 3,
                                                        "name": "par",
                                                        "value": 9254
                                                    },
                                                    {
                                                        "children": [],
                                                        "depth": 3,
                                                        "name": "totalSupply",
                                                        "value": 461
                                                    }
                                                ],
                                                "depth": 2,
                                                "name": "draw",
                                                "value": 119500
                                            },
                                            {
                                                "children": [],
                                                "depth": 2,
                                                "name": "sai",
                                                "value": 1315
                                            },
                                            {
                                                "children": [],
                                                "depth": 2,
                                                "name": "transfer",
                                                "value": 14106
                                            }
                                        ],
                                        "depth": 1,
                                        "name": "draw",
                                        "value": 140325
                                    }
                                ],
                                "depth": 0,
                                "name": "Executed Gas",
                                "value": 147198
                            }
                        ],
                        "depth": -1,
                        "name": "Actual Gas Used",
                        "value": 157886
                    },
                    {
                        "children": [],
                        "depth": -1,
                        "name": "Refunded Gas",
                        "value": 15000
                    }
                ],
                "depth": -2,
                "name": "Total Gas",
                "value": 172886
            }
        ],
        "isConfirmed": true,
        "mainTrace": [
            {
                "children": [
                    {
                        "children": [
                            {
                                "children": [],
                                "depth": 1,
                                "id": 1,
                                "order": 1
                            },
                            {
                                "children": [
                                    {
                                        "children": [
                                            {
                                                "children": [],
                                                "depth": 3,
                                                "id": 4,
                                                "order": 4
                                            },
                                            {
                                                "children": [],
                                                "depth": 3,
                                                "id": 5,
                                                "order": 5
                                            },
                                            {
                                                "children": [],
                                                "depth": 3,
                                                "id": 6,
                                                "order": 6
                                            },
                                            {
                                                "children": [],
                                                "depth": 3,
                                                "id": 7,
                                                "order": 7
                                            },
                                            {
                                                "children": [],
                                                "depth": 3,
                                                "id": 8,
                                                "order": 8
                                            },
                                            {
                                                "children": [
                                                    {
                                                        "children": [],
                                                        "depth": 4,
                                                        "id": 10,
                                                        "order": 10
                                                    },
                                                    {
                                                        "children": [],
                                                        "depth": 4,
                                                        "id": 11,
                                                        "order": 11
                                                    }
                                                ],
                                                "depth": 3,
                                                "id": 9,
                                                "order": 9
                                            },
                                            {
                                                "children": [],
                                                "depth": 3,
                                                "id": 12,
                                                "order": 12
                                            },
                                            {
                                                "children": [],
                                                "depth": 3,
                                                "id": 13,
                                                "order": 13
                                            },
                                            {
                                                "children": [],
                                                "depth": 3,
                                                "id": 14,
                                                "order": 14
                                            },
                                            {
                                                "children": [],
                                                "depth": 3,
                                                "id": 15,
                                                "order": 15
                                            },
                                            {
                                                "children": [
                                                    {
                                                        "children": [],
                                                        "depth": 4,
                                                        "id": 17,
                                                        "order": 17
                                                    }
                                                ],
                                                "depth": 3,
                                                "id": 16,
                                                "order": 16
                                            },
                                            {
                                                "children": [],
                                                "depth": 3,
                                                "id": 18,
                                                "order": 18
                                            },
                                            {
                                                "children": [],
                                                "depth": 3,
                                                "id": 19,
                                                "order": 19
                                            }
                                        ],
                                        "depth": 2,
                                        "id": 3,
                                        "order": 3
                                    },
                                    {
                                        "children": [],
                                        "depth": 2,
                                        "id": 20,
                                        "order": 20
                                    },
                                    {
                                        "children": [
                                            {
                                                "children": [],
                                                "depth": 3,
                                                "id": 22,
                                                "order": 22
                                            }
                                        ],
                                        "depth": 2,
                                        "id": 21,
                                        "order": 21
                                    }
                                ],
                                "depth": 1,
                                "id": 2,
                                "order": 2
                            }
                        ],
                        "depth": 0,
                        "id": 0,
                        "order": 0
                    }
                ],
                "depth": -1,
                "id": -1,
                "order": -1
            }
        ],
        "mainTraceNodeCount": 23,
        "parentIdMap": {
            "0": -1,
            "1": 0,
            "10": 9,
            "11": 9,
            "12": 3,
            "13": 3,
            "14": 3,
            "15": 3,
            "16": 3,
            "17": 16,
            "18": 3,
            "19": 3,
            "2": 0,
            "20": 2,
            "21": 2,
            "22": 21,
            "3": 2,
            "4": 3,
            "5": 3,
            "6": 3,
            "7": 3,
            "8": 3,
            "9": 3
        },
        "tidyTrace": [
            {
                "children": [
                    {
                        "children": [
                            {
                                "children": [],
                                "depth": 1,
                                "id": 1,
                                "order": 1
                            },
                            {
                                "children": [
                                    {
                                        "children": [
                                            {
                                                "children": [],
                                                "depth": 3,
                                                "id": 4,
                                                "order": 4
                                            },
                                            {
                                                "children": [],
                                                "depth": 3,
                                                "id": 5,
                                                "order": 5
                                            },
                                            {
                                                "children": [],
                                                "depth": 3,
                                                "id": 6,
                                                "order": 6
                                            },
                                            {
                                                "children": [],
                                                "depth": 3,
                                                "id": 7,
                                                "order": 7
                                            },
                                            {
                                                "children": [],
                                                "depth": 3,
                                                "id": 8,
                                                "order": 8
                                            },
                                            {
                                                "children": [
                                                    {
                                                        "children": [],
                                                        "depth": 4,
                                                        "id": 10,
                                                        "order": 10
                                                    },
                                                    {
                                                        "children": [],
                                                        "depth": 4,
                                                        "id": 11,
                                                        "order": 11
                                                    }
                                                ],
                                                "depth": 3,
                                                "id": 9,
                                                "order": 9
                                            },
                                            {
                                                "children": [],
                                                "depth": 3,
                                                "id": 12,
                                                "order": 12
                                            },
                                            {
                                                "children": [],
                                                "depth": 3,
                                                "id": 13,
                                                "order": 13
                                            },
                                            {
                                                "children": [],
                                                "depth": 3,
                                                "id": 14,
                                                "order": 14
                                            },
                                            {
                                                "children": [],
                                                "depth": 3,
                                                "id": 15,
                                                "order": 15
                                            },
                                            {
                                                "children": [
                                                    {
                                                        "children": [],
                                                        "depth": 4,
                                                        "id": 17,
                                                        "order": 17
                                                    }
                                                ],
                                                "depth": 3,
                                                "id": 16,
                                                "order": 16
                                            },
                                            {
                                                "children": [],
                                                "depth": 3,
                                                "id": 18,
                                                "order": 18
                                            },
                                            {
                                                "children": [],
                                                "depth": 3,
                                                "id": 19,
                                                "order": 19
                                            }
                                        ],
                                        "depth": 2,
                                        "id": 3,
                                        "order": 3
                                    },
                                    {
                                        "children": [],
                                        "depth": 2,
                                        "id": 20,
                                        "order": 20
                                    },
                                    {
                                        "children": [
                                            {
                                                "children": [],
                                                "depth": 3,
                                                "id": 22,
                                                "order": 22
                                            }
                                        ],
                                        "depth": 2,
                                        "id": 21,
                                        "order": 21
                                    }
                                ],
                                "depth": 1,
                                "id": 2,
                                "order": 2
                            }
                        ],
                        "depth": 0,
                        "id": 0,
                        "order": 0
                    }
                ],
                "depth": -1,
                "id": -1,
                "order": -1
            }
        ],
        "tidyTraceNodeCount": 23
    },
    "state_change": {
        "stateChanges": [
            {
                "address": "0x448a5065aebb8e423f0896e6c5d525c040f59af3",
                "erc": "",
                "slots": [
                    {
                        "current": "0x000000000000000000000000000000000000000000476f1893b17dddf9b60a37",
                        "key": "0x0000000000000000000000000000000000000000000000000000000000000017",
                        "prev": "0x000000000000000000000000000000000000000000476f1884d81689440b0a37"
                    },
                    {
                        "current": "0x0000000000000000000000000000000000000000000000000db334c1d6263b93",
                        "key": "0x2cac4779d10cabd6da288f12f2b31be7a42321ee4abcbd768d97372ecabba82f",
                        "prev": "0x00000000000000000000000000000000000000000000000000207997c262b206"
                    },
                    {
                        "current": "0x000000000000000000000000000000000000000000000000000000005d86c032",
                        "key": "0x0000000000000000000000000000000000000000000000000000000000000014",
                        "prev": "0x000000000000000000000000000000000000000000000000000000005d86bfed"
                    },
                    {
                        "current": "0x00000000000000000000000000000000000000000388f26c976511f143be1589",
                        "key": "0x0000000000000000000000000000000000000000000000000000000000000016",
                        "prev": "0x00000000000000000000000000000000000000000388f25d4ec522bf73ac88c3"
                    },
                    {
                        "current": "0x0000000000000000000000000000000000000000000000000efcee47256c0000",
                        "key": "0x2cac4779d10cabd6da288f12f2b31be7a42321ee4abcbd768d97372ecabba82e",
                        "prev": "0x000000000000000000000000000000000000000000000000002386f26fc10000"
                    }
                ],
                "storageVariables": [
                    {
                        "name": "_rhi",
                        "type": "uint256",
                        "value": {
                            "current": "1094013756777984589003888009",
                            "prev": "1094013474843659194109561027",
                            "typeTag": 1
                        }
                    },
                    {
                        "name": "cups",
                        "type": "mapping(bytes32 => struct SaiTub.Cup)",
                        "value": {
                            "pairs": [
                                {
                                    "key": "0x000000000000000000000000000000000000000000000000000000000001c719",
                                    "value": {
                                        "fields": [
                                            {
                                                "name": "art",
                                                "type": "uint256",
                                                "value": {
                                                    "current": "1080000000000000000",
                                                    "prev": "10000000000000000",
                                                    "typeTag": 1
                                                }
                                            },
                                            {
                                                "name": "ire",
                                                "type": "uint256",
                                                "value": {
                                                    "current": "987190750450432915",
                                                    "prev": "9140891963011590",
                                                    "typeTag": 1
                                                }
                                            }
                                        ],
                                        "typeTag": 3
                                    }
                                }
                            ],
                            "typeTag": 4
                        }
                    },
                    {
                        "name": "rum",
                        "type": "uint256",
                        "value": {
                            "current": "86358369236520757835991607",
                            "prev": "86358368166520757835991607",
                            "typeTag": 1
                        }
                    },
                    {
                        "name": "rho",
                        "type": "uint256",
                        "value": {
                            "current": "1569112114",
                            "prev": "1569112045",
                            "typeTag": 1
                        }
                    }
                ]
            },
            {
                "address": "0x89d24a6b4ccb1b6faa2625fe562bdd9a23260359",
                "erc": "ERC-20",
                "slots": [
                    {
                        "current": "0x000000000000000000000000000000000000000000476f1893b17dddf9b60a37",
                        "key": "0x0000000000000000000000000000000000000000000000000000000000000000",
                        "prev": "0x000000000000000000000000000000000000000000476f1884d81689440b0a37"
                    },
                    {
                        "current": "0x0000000000000000000000000000000000000000000000006020fee5d6c4a400",
                        "key": "0xee9ed51fa693770c813ff722cfaba5a3e6a73914b7f3cef4b6d7d1bb197148c4",
                        "prev": "0x000000000000000000000000000000000000000000000000514797912119a400"
                    }
                ],
                "storageVariables": [
                    {
                        "name": "_supply",
                        "type": "uint256",
                        "value": {
                            "current": "86358369236520757835991607",
                            "prev": "86358368166520757835991607",
                            "typeTag": 1
                        }
                    },
                    {
                        "name": "_balances",
                        "type": "mapping(address => uint256)",
                        "value": {
                            "pairs": [
                                {
                                    "key": "0xaf3b8562966cf350e8f32972e0733c88bdf664c3",
                                    "value": {
                                        "current": "6926816490000000000",
                                        "prev": "5856816490000000000",
                                        "typeTag": 1
                                    }
                                }
                            ],
                            "typeTag": 4
                        }
                    }
                ]
            },
            {
                "address": "0x9b0f70df76165442ca6092939132bbaea77f2d7a",
                "erc": "",
                "slots": [
                    {
                        "current": "0x000000000000000000000000000000000000000000000000000000005d86c032",
                        "key": "0x0000000000000000000000000000000000000000000000000000000000000006",
                        "prev": "0x000000000000000000000000000000000000000000000000000000005d86bfed"
                    }
                ],
                "storageVariables": [
                    {
                        "name": "tau",
                        "type": "uint256",
                        "value": {
                            "current": "1569112114",
                            "prev": "1569112045",
                            "typeTag": 1
                        }
                    }
                ]
            }
        ]
    }
}