{
    "balance_change": {
        "balanceChanges": [
            {
                "account": "0xe37f7c80ced04c4f243c0fd04a5510d663cb88b5",
                "assets": [
                    {
                        "address": "0xeeeeeeeeeeeeeeeeeeeeeeeeeeeeeeeeeeeeeeee",
                        "amount": "0.000014550743322872",
                        "iconUrl": "https://assets.blocksec.com/image/1663669189317-3.png",
                        "isERC1155": false,
                        "isERC721": false,
                        "sign": false,
                        "value": "0.051573517846420794574"
                    }
                ]
            },
            {
                "account": "0xbb2ea70c9e858123480642cf96acbcce1372dce1",
                "assets": [
                    {
                        "address": "0xeeeeeeeeeeeeeeeeeeeeeeeeeeeeeeeeeeeeeeee",
                        "amount": "0.000014550743322872",
                        "iconUrl": "https://assets.blocksec.com/image/1663669189317-3.png",
                        "isERC1155": false,
                        "isERC721": false,
                        "sign": true,
                        "value": "0.051573517846420794574"
                    }
                ]
            }
        ]
    },
    "profile": {
        "basic_info": {
            "baseFee": "3.541074425",
            "blockNumber": 20096662,
            "callData": "0x64e4ac27000000000000000000000000000000000000000000000000000000000000759f00000000000000000000000000000000000000000000000000000000000000400000000000000000000000000000000000000000000000000000000000000056000d000000000000000000000000700c4e16751e7816fd211776f72a6e0c0a94df7e000000000000752f00000d000000000000000000000000f31f1d2d72fab5db2a2c742fb11d808221acad0e00000000000084cf0000000000000000000000",
            "debugEnable": true,
            "errorInfo": "",
            "eventCount": 4,
            "feeRecipient": "0x95222290dd7278aa3ddd389cc1e1d165cc4bafe5",
            "formatValue": "0.000014550743322872",
            "gasLimit": 1060976,
            "gasPrice": "4.139722524",
            "gasUsed": 272953,
            "intTxnCount": 17,
            "internalRevert": false,
            "internalRevertMessage": "",
            "isContractCreation": false,
            "isFlashloan": false,
            "maxFee": "",
            "nonce": 9547,
            "overwritedBlockNumber": -1,
            "priorityFee": "",
            "receiver": "0x6d6620efa72948c5f68a3c8646d58c00d3f4a980",
            "revertMessage": "",
            "sender": "0xe37f7c80ced04c4f243c0fd04a5510d663cb88b5",
            "simulationEnable": true,
            "sourceTxnHash": "0xb4e0b7d7b8c4516e413616c76469ef41b330581d530cf52c2ff62feb10e018d7",
            "status": true,
            "timestamp": "2024-06-15T10:41:35Z",
            "transactionFee": "0.001129949682093372",
            "txnHash": "0xb4e0b7d7b8c4516e413616c76469ef41b330581d530cf52c2ff62feb10e018d7",
            "txnIndex": 97,
            "type": 0,
            "value": "14550743322872"
        },
        "fund_flow": [
            {
                "amount": "0.000014550743322872",
                "from": "0xe37f7c80ced04c4f243c0fd04a5510d663cb88b5",
                "id": 1,
                "isERC1155": false,
                "isERC721": false,
                "isReverted": false,
                "order": 1,
                "to": "0x6d6620efa72948c5f68a3c8646d58c00d3f4a980",
                "token": "0xeeeeeeeeeeeeeeeeeeeeeeeeeeeeeeeeeeeeeeee"
            },
            {
                "amount": "0.000014550743322872",
                "from": "0x6d6620efa72948c5f68a3c8646d58c00d3f4a980",
                "id": 2,
                "isERC1155": false,
                "isERC721": false,
                "isReverted": false,
                "order": 2,
                "to": "0x1a44076050125825900e736c501f859c50fe728c",
                "token": "0xeeeeeeeeeeeeeeeeeeeeeeeeeeeeeeeeeeeeeeee"
            },
            {
                "amount": "0.000014550743322872",
                "from": "0x1a44076050125825900e736c501f859c50fe728c",
                "id": 3,
                "isERC1155": false,
                "isERC721": false,
                "isReverted": false,
                "order": 3,
                "to": "0xbb2ea70c9e858123480642cf96acbcce1372dce1",
                "token": "0xeeeeeeeeeeeeeeeeeeeeeeeeeeeeeeeeeeeeeeee"
            }
        ],
        "token_infos": [
            {
                "address": "0xc02aaa39b223fe8d0a0e5c4f27ead9083c756cc2",
                "decimals": 18
            },
            {
                "address": "0xeeeeeeeeeeeeeeeeeeeeeeeeeeeeeeeeeeeeeeee",
                "decimals": 18
            }
        ]
    },
    "address_label": {
        "labels": [
            {
                "address": "0x0000000000000000000000000000000000000004",
                "label": "Precompiled"
            },
            {
                "address": "0xc03f31fd86a9077785b7bcf6598ce3598fa91113",
                "label": "0xc03f_OptimizedTransparentUpgradeableProxy"
            },
            {
                "address": "0x173272739bd7aa6e4e214714048a9fe699453059",
                "label": "0x1732_OptimizedTransparentUpgradeableProxy"
            },
            {
                "address": "0x0000000000000000000000000000000000000001",
                "label": "Precompiled"
            },
            {
                "address": "0x0000000000000000000000000000000000000002",
                "label": "Precompiled"
            },
            {
                "address": "0x5ebb3f2feaa15271101a927869b3a56837e73056",
                "label": "Treasury"
            },
            {
                "address": "0xbb2ea70c9e858123480642cf96acbcce1372dce1",
                "label": "SendUln302"
            },
            {
                "address": "0x0000000000000000000000000000000000000003",
                "label": "Precompiled"
            },
            {
                "address": "0xeeeeeeeeeeeeeeeeeeeeeeeeeeeeeeeeeeeeeeee",
                "label": "Ether"
            },
            {
                "address": "0x1a44076050125825900e736c501f859c50fe728c",
                "label": "LayerZero: EndpointV2"
            },
            {
                "address": "0xa59ba433ac34d2927232918ef5b2eaafcf130ba5",
                "label": "Nethermind : DVN"
            },
            {
                "address": "0x6d6620efa72948c5f68a3c8646d58c00d3f4a980",
                "label": "Stargate : TokenMessaging.sol"
            }
        ]
    },
    "trace": {
        "accountLabels": null,
        "dataMap": {
            "-1": {
                "invocation": {
                    "address": "0xe37f7c80ced04c4f243c0fd04a5510d663cb88b5",
                    "callData": "",
                    "decodedMethod": null,
                    "errorInfo": "",
                    "fromAddress": "",
                    "gasUsed": 0,
                    "id": -1,
                    "methodDecoded": false,
                    "operation": "",
                    "output": "",
                    "revert": false,
                    "revertMessage": "",
                    "selector": "",
                    "status": false,
                    "value": ""
                },
                "nodeType": 0
            },
            "0": {
                "invocation": {
                    "address": "0x6d6620efa72948c5f68a3c8646d58c00d3f4a980",
                    "callData": "0x000000000000000000000000000000000000000000000000000000000000759f00000000000000000000000000000000000000000000000000000000000000400000000000000000000000000000000000000000000000000000000000000056000d000000000000000000000000700c4e16751e7816fd211776f72a6e0c0a94df7e000000000000752f00000d000000000000000000000000f31f1d2d72fab5db2a2c742fb11d808221acad0e00000000000084cf0000000000000000000000",
                    "decodedMethod": {
                        "callParams": [
                            {
                                "name": "_dstEid",
                                "type": "uint32",
                                "value": "30,111"
                            },
                            {
                                "name": "_passengers",
                                "type": "bytes",
                                "value": "0x000d000000000000000000000000700c4e16751e7816fd211776f72a6e0c0a94df7e000000000000752f00000d000000000000000000000000f31f1d2d72fab5db2a2c742fb11d808221acad0e00000000000084cf00"
                            }
                        ],
                        "constructorArguments": "",
                        "name": "driveBus",
                        "returnParams": [
                            {
                                "name": "receipt",
                                "type": "(bytes32,uint64,(uint256,uint256))",
                                "value": [
                                    {
                                        "name": "guid",
                                        "type": "bytes32",
                                        "value": "0x615af32d6c847ee25d21e47770af3d76dde4da1ab3c3742748f9eeb7276c3b19"
                                    },
                                    {
                                        "name": "nonce",
                                        "type": "uint64",
                                        "value": "353"
                                    },
                                    {
                                        "name": "fee",
                                        "type": "(uint256,uint256)",
                                        "value": [
                                            {
                                                "name": "nativeFee",
                                                "type": "uint256",
                                                "value": "14,550,743,322,872"
                                            },
                                            {
                                                "name": "lzTokenFee",
                                                "type": "uint256",
                                                "value": "0"
                                            }
                                        ]
                                    }
                                ]
                            }
                        ],
                        "signature": "driveBus(uint32,bytes)"
                    },
                    "errorInfo": "",
                    "fromAddress": "0xe37f7c80ced04c4f243c0fd04a5510d663cb88b5",
                    "gasUsed": 272953,
                    "id": 0,
                    "methodDecoded": true,
                    "operation": "CALL",
                    "output": "0x615af32d6c847ee25d21e47770af3d76dde4da1ab3c3742748f9eeb7276c3b19000000000000000000000000000000000000000000000000000000000000016100000000000000000000000000000000000000000000000000000d3bdbe310f80000000000000000000000000000000000000000000000000000000000000000",
                    "revert": false,
                    "revertMessage": "",
                    "selector": "0x64e4ac27",
                    "status": true,
                    "value": "0.000014550743322872"
                },
                "nodeType": 0
            },
            "1": {
                "invocation": {
                    "address": "0x1a44076050125825900e736c501f859c50fe728c",
                    "callData": "0x0000000000000000000000000000000000000000000000000000000000000040000000000000000000000000e37f7c80ced04c4f243c0fd04a5510d663cb88b5000000000000000000000000000000000000000000000000000000000000759f000000000000000000000000f1fcb4cbd57b67d683972a59b6a7b1e2e8bf27e600000000000000000000000000000000000000000000000000000000000000a00000000000000000000000000000000000000000000000000000000000000140000000000000000000000000000000000000000000000000000000000000000000000000000000000000000000000000000000000000000000000000000000770200000000000000000000000000000000000000000000000000001b48eb57e000000d000000000000000000000000700c4e16751e7816fd211776f72a6e0c0a94df7e000000000000752f00000d000000000000000000000000f31f1d2d72fab5db2a2c742fb11d808221acad0e00000000000084cf00000000000000000000000000000000000000000000000000000000000000000000000000000000002a00030100110100000000000000000000000000009470010011010000000000000000000000000000ea6000000000000000000000000000000000000000000000",
                    "decodedMethod": {
                        "callParams": [
                            {
                                "name": "_params",
                                "type": "(uint32,bytes32,bytes,bytes,bool)",
                                "value": [
                                    {
                                        "name": "dstEid",
                                        "type": "uint32",
                                        "value": "30,111"
                                    },
                                    {
                                        "name": "receiver",
                                        "type": "bytes32",
                                        "value": "0x000000000000000000000000f1fcb4cbd57b67d683972a59b6a7b1e2e8bf27e6"
                                    },
                                    {
                                        "name": "message",
                                        "type": "bytes",
                                        "value": "0x0200000000000000000000000000000000000000000000000000001b48eb57e000000d000000000000000000000000700c4e16751e7816fd211776f72a6e0c0a94df7e000000000000752f00000d000000000000000000000000f31f1d2d72fab5db2a2c742fb11d808221acad0e00000000000084cf00"
                                    },
                                    {
                                        "name": "options",
                                        "type": "bytes",
                                        "value": "0x00030100110100000000000000000000000000009470010011010000000000000000000000000000ea60"
                                    },
                                    {
                                        "name": "payInLzToken",
                                        "type": "bool",
                                        "value": false
                                    }
                                ]
                            },
                            {
                                "name": "_refundAddress",
                                "type": "address",
                                "value": "0xe37f7c80ced04c4f243c0fd04a5510d663cb88b5"
                            }
                        ],
                        "constructorArguments": "",
                        "name": "send",
                        "returnParams": [
                            {
                                "name": "",
                                "type": "(bytes32,uint64,(uint256,uint256))",
                                "value": [
                                    {
                                        "name": "guid",
                                        "type": "bytes32",
                                        "value": "0x615af32d6c847ee25d21e47770af3d76dde4da1ab3c3742748f9eeb7276c3b19"
                                    },
                                    {
                                        "name": "nonce",
                                        "type": "uint64",
                                        "value": "353"
                                    },
                                    {
                                        "name": "fee",
                                        "type": "(uint256,uint256)",
                                        "value": [
                                            {
                                                "name": "nativeFee",
                                                "type": "uint256",
                                                "value": "14,550,743,322,872"
                                            },
                                            {
                                                "name": "lzTokenFee",
                                                "type": "uint256",
                                                "value": "0"
                                            }
                                        ]
                                    }
                                ]
                            }
                        ],
                        "signature": "send((uint32,bytes32,bytes,bytes,bool),address)"
                    },
                    "errorInfo": "",
                    "fromAddress": "0x6d6620efa72948c5f68a3c8646d58c00d3f4a980",
                    "gasUsed": 214269,
                    "id": 1,
                    "methodDecoded": true,
                    "operation": "CALL",
                    "output": "0x615af32d6c847ee25d21e47770af3d76dde4da1ab3c3742748f9eeb7276c3b19000000000000000000000000000000000000000000000000000000000000016100000000000000000000000000000000000000000000000000000d3bdbe310f80000000000000000000000000000000000000000000000000000000000000000",
                    "revert": false,
                    "revertMessage": "",
                    "selector": "0x2637a450",
                    "status": true,
                    "value": "0.000014550743322872"
                },
                "nodeType": 0
            },
            "10": {
                "invocation": {
                    "address": "0xd0ab8512cf4907bd94cdb5fe7d0c324e666c4006",
                    "callData": "0x000000000000000000000000c03f31fd86a9077785b7bcf6598ce3598fa91113000000000000000000000000000000000000000000000000000000000000759f000000000000000000000000000000000000000000000000000000000000000f0000000000000000000000006d6620efa72948c5f68a3c8646d58c00d3f4a98000000000000000000000000000000000000000000000000000000000000000010000000000000000000000000000000000000000000000000000000000002ee000000000000000000000000000000000000000000000000000000000000075300000000000000000000000000000000000000000000000000000000000002ee0000000000000000000000000000000000000000000000000000000000000000000000000000000000000000000000000000000000000000000000000000001400000000000000000000000000000000000000000000000000000000000000000",
                    "decodedMethod": {
                        "callParams": [
                            {
                                "name": "_params",
                                "type": "(address,uint32,uint64,address,uint64,uint16)",
                                "value": [
                                    {
                                        "name": "priceFeed",
                                        "type": "address",
                                        "value": "0xc03f31fd86a9077785b7bcf6598ce3598fa91113"
                                    },
                                    {
                                        "name": "dstEid",
                                        "type": "uint32",
                                        "value": "30,111"
                                    },
                                    {
                                        "name": "confirmations",
                                        "type": "uint64",
                                        "value": "15"
                                    },
                                    {
                                        "name": "sender",
                                        "type": "address",
                                        "value": "0x6d6620efa72948c5f68a3c8646d58c00d3f4a980"
                                    },
                                    {
                                        "name": "quorum",
                                        "type": "uint64",
                                        "value": "1"
                                    },
                                    {
                                        "name": "defaultMultiplierBps",
                                        "type": "uint16",
                                        "value": "12,000"
                                    }
                                ]
                            },
                            {
                                "name": "_dstConfig",
                                "type": "(uint64,uint16,uint128)",
                                "value": [
                                    {
                                        "name": "gas",
                                        "type": "uint64",
                                        "value": "30,000"
                                    },
                                    {
                                        "name": "multiplierBps",
                                        "type": "uint16",
                                        "value": "12,000"
                                    },
                                    {
                                        "name": "floorMarginUSD",
                                        "type": "uint128",
                                        "value": "0"
                                    }
                                ]
                            },
                            {
                                "name": "_options",
                                "type": "bytes",
                                "value": "0x"
                            }
                        ],
                        "constructorArguments": "",
                        "name": "getFeeOnSend",
                        "returnParams": [
                            {
                                "name": "",
                                "type": "uint256",
                                "value": "72,067,599,552"
                            }
                        ],
                        "signature": "getFeeOnSend((address,uint32,uint64,address,uint64,uint16),(uint64,uint16,uint128),bytes)"
                    },
                    "errorInfo": "",
                    "fromAddress": "0x8fafae7dd957044088b3d0f67359c327c6200d18",
                    "gasUsed": 9088,
                    "id": 10,
                    "methodDecoded": true,
                    "operation": "CALL",
                    "output": "0x00000000000000000000000000000000000000000000000000000010c7904cc0",
                    "revert": false,
                    "revertMessage": "",
                    "selector": "0xdf2b057e",
                    "status": true,
                    "value": "0"
                },
                "nodeType": 0
            },
            "11": {
                "invocation": {
                    "address": "0xc03f31fd86a9077785b7bcf6598ce3598fa91113",
                    "callData": "0x000000000000000000000000000000000000000000000000000000000000759f00000000000000000000000000000000000000000000000000000000000001c40000000000000000000000000000000000000000000000000000000000007530",
                    "decodedMethod": {
                        "callParams": [
                            {
                                "name": "_dstEid",
                                "type": "uint32",
                                "value": "30,111"
                            },
                            {
                                "name": "_callDataSize",
                                "type": "uint256",
                                "value": "452"
                            },
                            {
                                "name": "_gas",
                                "type": "uint256",
                                "value": "30,000"
                            }
                        ],
                        "constructorArguments": "",
                        "name": "estimateFeeOnSend",
                        "returnParams": [
                            {
                                "name": "",
                                "type": "uint256",
                                "value": "60,056,332,960"
                            },
                            {
                                "name": "",
                                "type": "uint128",
                                "value": "100,000,000,000,000,000,001"
                            },
                            {
                                "name": "",
                                "type": "uint128",
                                "value": "100,000,000,000,000,000,000"
                            },
                            {
                                "name": "",
                                "type": "uint128",
                                "value": "352,265,415,000,000,000,000,000"
                            }
                        ],
                        "signature": "estimateFeeOnSend(uint32,uint256,uint256)"
                    },
                    "errorInfo": "",
                    "fromAddress": "0xd0ab8512cf4907bd94cdb5fe7d0c324e666c4006",
                    "gasUsed": 5642,
                    "id": 11,
                    "methodDecoded": true,
                    "operation": "CALL",
                    "output": "0x0000000000000000000000000000000000000000000000000000000dfba2eaa00000000000000000000000000000000000000000000000056bc75e2d631000010000000000000000000000000000000000000000000000056bc75e2d63100000000000000000000000000000000000000000000000004a9858ae7057804d8000",
                    "revert": false,
                    "revertMessage": "",
                    "selector": "0xc1723a1d",
                    "status": true,
                    "value": "0"
                },
                "nodeType": 0
            },
            "12": {
                "invocation": {
                    "address": "0x13dff8847ea170ebb8439ce732c0a14bb49fdd92",
                    "callData": "0x000000000000000000000000000000000000000000000000000000000000759f00000000000000000000000000000000000000000000000000000000000001c40000000000000000000000000000000000000000000000000000000000007530",
                    "decodedMethod": {
                        "callParams": [
                            {
                                "name": "_dstEid",
                                "type": "uint32",
                                "value": "30,111"
                            },
                            {
                                "name": "_callDataSize",
                                "type": "uint256",
                                "value": "452"
                            },
                            {
                                "name": "_gas",
                                "type": "uint256",
                                "value": "30,000"
                            }
                        ],
                        "constructorArguments": "",
                        "name": "estimateFeeOnSend",
                        "returnParams": [
                            {
                                "name": "",
                                "type": "uint256",
                                "value": "60,056,332,960"
                            },
                            {
                                "name": "",
                                "type": "uint128",
                                "value": "100,000,000,000,000,000,001"
                            },
                            {
                                "name": "",
                                "type": "uint128",
                                "value": "100,000,000,000,000,000,000"
                            },
                            {
                                "name": "",
                                "type": "uint128",
                                "value": "352,265,415,000,000,000,000,000"
                            }
                        ],
                        "signature": "estimateFeeOnSend(uint32,uint256,uint256)"
                    },
                    "errorInfo": "",
                    "fromAddress": "0xc03f31fd86a9077785b7bcf6598ce3598fa91113",
                    "gasUsed": 5055,
                    "id": 12,
                    "methodDecoded": true,
                    "operation": "DELEGATECALL",
                    "output": "0x0000000000000000000000000000000000000000000000000000000dfba2eaa00000000000000000000000000000000000000000000000056bc75e2d631000010000000000000000000000000000000000000000000000056bc75e2d63100000000000000000000000000000000000000000000000004a9858ae7057804d8000",
                    "revert": false,
                    "revertMessage": "",
                    "selector": "0xc1723a1d",
                    "status": true,
                    "value": "0"
                },
                "nodeType": 0
            },
            "13": {
                "invocation": {
                    "address": "0xa59ba433ac34d2927232918ef5b2eaafcf130ba5",
                    "callData": "0x00000000000000000000000000000000000000000000000000000000000000400000000000000000000000000000000000000000000000000000000000000160000000000000000000000000000000000000000000000000000000000000759f00000000000000000000000000000000000000000000000000000000000000a0154a0d7e1968ebfc174bd85f70be0aab437330422da8d760acf5435ea185ba62000000000000000000000000000000000000000000000000000000000000000f0000000000000000000000006d6620efa72948c5f68a3c8646d58c00d3f4a9800000000000000000000000000000000000000000000000000000000000000051010000000000000161000075950000000000000000000000006d6620efa72948c5f68a3c8646d58c00d3f4a9800000759f000000000000000000000000f1fcb4cbd57b67d683972a59b6a7b1e2e8bf27e60000000000000000000000000000000000000000000000000000000000000000000000000000000000000000000000",
                    "decodedMethod": {
                        "callParams": [
                            {
                                "name": "_param",
                                "type": "(uint32,bytes,bytes32,uint64,address)",
                                "value": [
                                    {
                                        "name": "dstEid",
                                        "type": "uint32",
                                        "value": "30,111"
                                    },
                                    {
                                        "name": "packetHeader",
                                        "type": "bytes",
                                        "value": "0x010000000000000161000075950000000000000000000000006d6620efa72948c5f68a3c8646d58c00d3f4a9800000759f000000000000000000000000f1fcb4cbd57b67d683972a59b6a7b1e2e8bf27e6"
                                    },
                                    {
                                        "name": "payloadHash",
                                        "type": "bytes32",
                                        "value": "0x154a0d7e1968ebfc174bd85f70be0aab437330422da8d760acf5435ea185ba62"
                                    },
                                    {
                                        "name": "confirmations",
                                        "type": "uint64",
                                        "value": "15"
                                    },
                                    {
                                        "name": "sender",
                                        "type": "address",
                                        "value": "0x6d6620efa72948c5f68a3c8646d58c00d3f4a980"
                                    }
                                ]
                            },
                            {
                                "name": "_options",
                                "type": "bytes",
                                "value": "0x"
                            }
                        ],
                        "constructorArguments": "",
                        "name": "assignJob",
                        "returnParams": [
                            {
                                "name": "totalFee",
                                "type": "uint256",
                                "value": "72,067,599,552"
                            }
                        ],
                        "signature": "assignJob((uint32,bytes,bytes32,uint64,address),bytes)"
                    },
                    "errorInfo": "",
                    "fromAddress": "0xbb2ea70c9e858123480642cf96acbcce1372dce1",
                    "gasUsed": 27444,
                    "id": 13,
                    "methodDecoded": true,
                    "operation": "CALL",
                    "output": "0x00000000000000000000000000000000000000000000000000000010c7904cc0",
                    "revert": false,
                    "revertMessage": "",
                    "selector": "0x95d376d7",
                    "status": true,
                    "value": "0"
                },
                "nodeType": 0
            },
            "14": {
                "invocation": {
                    "address": "0xa7b5189bca84cd304d8553977c7c614329750d99",
                    "callData": "0x000000000000000000000000c03f31fd86a9077785b7bcf6598ce3598fa91113000000000000000000000000000000000000000000000000000000000000759f000000000000000000000000000000000000000000000000000000000000000f0000000000000000000000006d6620efa72948c5f68a3c8646d58c00d3f4a98000000000000000000000000000000000000000000000000000000000000000010000000000000000000000000000000000000000000000000000000000002ee000000000000000000000000000000000000000000000000000000000000075300000000000000000000000000000000000000000000000000000000000002ee0000000000000000000000000000000000000000000000000000000000000000000000000000000000000000000000000000000000000000000000000000001400000000000000000000000000000000000000000000000000000000000000000",
                    "decodedMethod": {
                        "callParams": [
                            {
                                "name": "_params",
                                "type": "(address,uint32,uint64,address,uint64,uint16)",
                                "value": [
                                    {
                                        "name": "priceFeed",
                                        "type": "address",
                                        "value": "0xc03f31fd86a9077785b7bcf6598ce3598fa91113"
                                    },
                                    {
                                        "name": "dstEid",
                                        "type": "uint32",
                                        "value": "30,111"
                                    },
                                    {
                                        "name": "confirmations",
                                        "type": "uint64",
                                        "value": "15"
                                    },
                                    {
                                        "name": "sender",
                                        "type": "address",
                                        "value": "0x6d6620efa72948c5f68a3c8646d58c00d3f4a980"
                                    },
                                    {
                                        "name": "quorum",
                                        "type": "uint64",
                                        "value": "1"
                                    },
                                    {
                                        "name": "defaultMultiplierBps",
                                        "type": "uint16",
                                        "value": "12,000"
                                    }
                                ]
                            },
                            {
                                "name": "_dstConfig",
                                "type": "(uint64,uint16,uint128)",
                                "value": [
                                    {
                                        "name": "gas",
                                        "type": "uint64",
                                        "value": "30,000"
                                    },
                                    {
                                        "name": "multiplierBps",
                                        "type": "uint16",
                                        "value": "12,000"
                                    },
                                    {
                                        "name": "floorMarginUSD",
                                        "type": "uint128",
                                        "value": "0"
                                    }
                                ]
                            },
                            {
                                "name": "_options",
                                "type": "bytes",
                                "value": "0x"
                            }
                        ],
                        "constructorArguments": "",
                        "name": "getFeeOnSend",
                        "returnParams": [
                            {
                                "name": "",
                                "type": "uint256",
                                "value": "72,067,599,552"
                            }
                        ],
                        "signature": "getFeeOnSend((address,uint32,uint64,address,uint64,uint16),(uint64,uint16,uint128),bytes)"
                    },
                    "errorInfo": "",
                    "fromAddress": "0xa59ba433ac34d2927232918ef5b2eaafcf130ba5",
                    "gasUsed": 9088,
                    "id": 14,
                    "methodDecoded": true,
                    "operation": "CALL",
                    "output": "0x00000000000000000000000000000000000000000000000000000010c7904cc0",
                    "revert": false,
                    "revertMessage": "",
                    "selector": "0xdf2b057e",
                    "status": true,
                    "value": "0"
                },
                "nodeType": 0
            },
            "15": {
                "invocation": {
                    "address": "0xc03f31fd86a9077785b7bcf6598ce3598fa91113",
                    "callData": "0x000000000000000000000000000000000000000000000000000000000000759f00000000000000000000000000000000000000000000000000000000000001c40000000000000000000000000000000000000000000000000000000000007530",
                    "decodedMethod": {
                        "callParams": [
                            {
                                "name": "_dstEid",
                                "type": "uint32",
                                "value": "30,111"
                            },
                            {
                                "name": "_callDataSize",
                                "type": "uint256",
                                "value": "452"
                            },
                            {
                                "name": "_gas",
                                "type": "uint256",
                                "value": "30,000"
                            }
                        ],
                        "constructorArguments": "",
                        "name": "estimateFeeOnSend",
                        "returnParams": [
                            {
                                "name": "",
                                "type": "uint256",
                                "value": "60,056,332,960"
                            },
                            {
                                "name": "",
                                "type": "uint128",
                                "value": "100,000,000,000,000,000,001"
                            },
                            {
                                "name": "",
                                "type": "uint128",
                                "value": "100,000,000,000,000,000,000"
                            },
                            {
                                "name": "",
                                "type": "uint128",
                                "value": "352,265,415,000,000,000,000,000"
                            }
                        ],
                        "signature": "estimateFeeOnSend(uint32,uint256,uint256)"
                    },
                    "errorInfo": "",
                    "fromAddress": "0xa7b5189bca84cd304d8553977c7c614329750d99",
                    "gasUsed": 5642,
                    "id": 15,
                    "methodDecoded": true,
                    "operation": "CALL",
                    "output": "0x0000000000000000000000000000000000000000000000000000000dfba2eaa00000000000000000000000000000000000000000000000056bc75e2d631000010000000000000000000000000000000000000000000000056bc75e2d63100000000000000000000000000000000000000000000000004a9858ae7057804d8000",
                    "revert": false,
                    "revertMessage": "",
                    "selector": "0xc1723a1d",
                    "status": true,
                    "value": "0"
                },
                "nodeType": 0
            },
            "16": {
                "invocation": {
                    "address": "0x13dff8847ea170ebb8439ce732c0a14bb49fdd92",
                    "callData": "0x000000000000000000000000000000000000000000000000000000000000759f00000000000000000000000000000000000000000000000000000000000001c40000000000000000000000000000000000000000000000000000000000007530",
                    "decodedMethod": {
                        "callParams": [
                            {
                                "name": "_dstEid",
                                "type": "uint32",
                                "value": "30,111"
                            },
                            {
                                "name": "_callDataSize",
                                "type": "uint256",
                                "value": "452"
                            },
                            {
                                "name": "_gas",
                                "type": "uint256",
                                "value": "30,000"
                            }
                        ],
                        "constructorArguments": "",
                        "name": "estimateFeeOnSend",
                        "returnParams": [
                            {
                                "name": "",
                                "type": "uint256",
                                "value": "60,056,332,960"
                            },
                            {
                                "name": "",
                                "type": "uint128",
                                "value": "100,000,000,000,000,000,001"
                            },
                            {
                                "name": "",
                                "type": "uint128",
                                "value": "100,000,000,000,000,000,000"
                            },
                            {
                                "name": "",
                                "type": "uint128",
                                "value": "352,265,415,000,000,000,000,000"
                            }
                        ],
                        "signature": "estimateFeeOnSend(uint32,uint256,uint256)"
                    },
                    "errorInfo": "",
                    "fromAddress": "0xc03f31fd86a9077785b7bcf6598ce3598fa91113",
                    "gasUsed": 5055,
                    "id": 16,
                    "methodDecoded": true,
                    "operation": "DELEGATECALL",
                    "output": "0x0000000000000000000000000000000000000000000000000000000dfba2eaa00000000000000000000000000000000000000000000000056bc75e2d631000010000000000000000000000000000000000000000000000056bc75e2d63100000000000000000000000000000000000000000000000004a9858ae7057804d8000",
                    "revert": false,
                    "revertMessage": "",
                    "selector": "0xc1723a1d",
                    "status": true,
                    "value": "0"
                },
                "nodeType": 0
            },
            "17": {
                "event": {
                    "contract": "0xbb2ea70c9e858123480642cf96acbcce1372dce1",
                    "decodedLog": {
                        "name": "DVNFeePaid",
                        "params": [
                            {
                                "name": "requiredDVNs",
                                "type": "address[]",
                                "value": [
                                    "0x8fafae7dd957044088b3d0f67359c327c6200d18",
                                    "0xa59ba433ac34d2927232918ef5b2eaafcf130ba5"
                                ]
                            },
                            {
                                "name": "optionalDVNs",
                                "type": "address[]",
                                "value": []
                            },
                            {
                                "name": "fees",
                                "type": "uint256[]",
                                "value": [
                                    "72,067,599,552",
                                    "72,067,599,552"
                                ]
                            }
                        ],
                        "signature": "DVNFeePaid(address[],address[],uint256[])"
                    },
                    "id": 17,
                    "logData": "0x000000000000000000000000000000000000000000000000000000000000006000000000000000000000000000000000000000000000000000000000000000c000000000000000000000000000000000000000000000000000000000000000e000000000000000000000000000000000000000000000000000000000000000020000000000000000000000008fafae7dd957044088b3d0f67359c327c6200d18000000000000000000000000a59ba433ac34d2927232918ef5b2eaafcf130ba50000000000000000000000000000000000000000000000000000000000000000000000000000000000000000000000000000000000000000000000000000000200000000000000000000000000000000000000000000000000000010c7904cc000000000000000000000000000000000000000000000000000000010c7904cc0",
                    "logDecoded": true,
                    "operation": "EVENT",
                    "revert": false,
                    "status": true,
                    "topics": [
                        "0x07ea52d82345d6e838192107d8fd7123d9c2ec8e916cd0aad13fd2b60db24644"
                    ]
                },
                "nodeType": 1
            },
            "18": {
                "invocation": {
                    "address": "0x5ebb3f2feaa15271101a927869b3a56837e73056",
                    "callData": "0x0000000000000000000000006d6620efa72948c5f68a3c8646d58c00d3f4a980000000000000000000000000000000000000000000000000000000000000759f00000000000000000000000000000000000000000000000000000d3bdbe310f80000000000000000000000000000000000000000000000000000000000000000",
                    "decodedMethod": {
                        "callParams": [
                            {
                                "name": "",
                                "type": "address",
                                "value": "0x6d6620efa72948c5f68a3c8646d58c00d3f4a980"
                            },
                            {
                                "name": "",
                                "type": "uint32",
                                "value": "30,111"
                            },
                            {
                                "name": "_totalFee",
                                "type": "uint256",
                                "value": "14,550,743,322,872"
                            },
                            {
                                "name": "_payInLzToken",
                                "type": "bool",
                                "value": false
                            }
                        ],
                        "constructorArguments": "",
                        "name": "payFee",
                        "returnParams": [
                            {
                                "name": "",
                                "type": "uint256",
                                "value": "0"
                            }
                        ],
                        "signature": "payFee(address,uint32,uint256,bool)"
                    },
                    "errorInfo": "",
                    "fromAddress": "0xbb2ea70c9e858123480642cf96acbcce1372dce1",
                    "gasUsed": 2894,
                    "id": 18,
                    "methodDecoded": true,
                    "operation": "CALL",
                    "output": "0x0000000000000000000000000000000000000000000000000000000000000000",
                    "revert": false,
                    "revertMessage": "",
                    "selector": "0xd51c5486",
                    "status": true,
                    "value": "0"
                },
                "nodeType": 0
            },
            "19": {
                "event": {
                    "contract": "0x1a44076050125825900e736c501f859c50fe728c",
                    "decodedLog": {
                        "name": "PacketSent",
                        "params": [
                            {
                                "name": "encodedPayload",
                                "type": "bytes",
                                "value": "0x010000000000000161000075950000000000000000000000006d6620efa72948c5f68a3c8646d58c00d3f4a9800000759f000000000000000000000000f1fcb4cbd57b67d683972a59b6a7b1e2e8bf27e6615af32d6c847ee25d21e47770af3d76dde4da1ab3c3742748f9eeb7276c3b190200000000000000000000000000000000000000000000000000001b48eb57e000000d000000000000000000000000700c4e16751e7816fd211776f72a6e0c0a94df7e000000000000752f00000d000000000000000000000000f31f1d2d72fab5db2a2c742fb11d808221acad0e00000000000084cf00"
                            },
                            {
                                "name": "options",
                                "type": "bytes",
                                "value": "0x00030100110100000000000000000000000000009470010011010000000000000000000000000000ea60"
                            },
                            {
                                "name": "sendLibrary",
                                "type": "address",
                                "value": "0xbb2ea70c9e858123480642cf96acbcce1372dce1"
                            }
                        ],
                        "signature": "PacketSent(bytes,bytes,address)"
                    },
                    "id": 19,
                    "logData": "0x00000000000000000000000000000000000000000000000000000000000000600000000000000000000000000000000000000000000000000000000000000180000000000000000000000000bb2ea70c9e858123480642cf96acbcce1372dce100000000000000000000000000000000000000000000000000000000000000e8010000000000000161000075950000000000000000000000006d6620efa72948c5f68a3c8646d58c00d3f4a9800000759f000000000000000000000000f1fcb4cbd57b67d683972a59b6a7b1e2e8bf27e6615af32d6c847ee25d21e47770af3d76dde4da1ab3c3742748f9eeb7276c3b190200000000000000000000000000000000000000000000000000001b48eb57e000000d000000000000000000000000700c4e16751e7816fd211776f72a6e0c0a94df7e000000000000752f00000d000000000000000000000000f31f1d2d72fab5db2a2c742fb11d808221acad0e00000000000084cf00000000000000000000000000000000000000000000000000000000000000000000000000000000000000000000000000000000000000002a00030100110100000000000000000000000000009470010011010000000000000000000000000000ea6000000000000000000000000000000000000000000000",
                    "logDecoded": true,
                    "operation": "EVENT",
                    "revert": false,
                    "status": true,
                    "topics": [
                        "0x1ab700d4ced0c005b164c0f789fd09fcbb0156d4c2041b8a3bfbcd961cd1567f"
                    ]
                },
                "nodeType": 1
            },
            "2": {
                "invocation": {
                    "address": "0xbb2ea70c9e858123480642cf96acbcce1372dce1",
                    "callData": "0x000000000000000000000000000000000000000000000000000000000000006000000000000000000000000000000000000000000000000000000000000001e00000000000000000000000000000000000000000000000000000000000000000000000000000000000000000000000000000000000000000000000000000016100000000000000000000000000000000000000000000000000000000000075950000000000000000000000006d6620efa72948c5f68a3c8646d58c00d3f4a980000000000000000000000000000000000000000000000000000000000000759f000000000000000000000000f1fcb4cbd57b67d683972a59b6a7b1e2e8bf27e6615af32d6c847ee25d21e47770af3d76dde4da1ab3c3742748f9eeb7276c3b1900000000000000000000000000000000000000000000000000000000000000e000000000000000000000000000000000000000000000000000000000000000770200000000000000000000000000000000000000000000000000001b48eb57e000000d000000000000000000000000700c4e16751e7816fd211776f72a6e0c0a94df7e000000000000752f00000d000000000000000000000000f31f1d2d72fab5db2a2c742fb11d808221acad0e00000000000084cf00000000000000000000000000000000000000000000000000000000000000000000000000000000002a00030100110100000000000000000000000000009470010011010000000000000000000000000000ea6000000000000000000000000000000000000000000000",
                    "decodedMethod": {
                        "callParams": [
                            {
                                "name": "_packet",
                                "type": "(uint64,uint32,address,uint32,bytes32,bytes32,bytes)",
                                "value": [
                                    {
                                        "name": "nonce",
                                        "type": "uint64",
                                        "value": "353"
                                    },
                                    {
                                        "name": "srcEid",
                                        "type": "uint32",
                                        "value": "30,101"
                                    },
                                    {
                                        "name": "sender",
                                        "type": "address",
                                        "value": "0x6d6620efa72948c5f68a3c8646d58c00d3f4a980"
                                    },
                                    {
                                        "name": "dstEid",
                                        "type": "uint32",
                                        "value": "30,111"
                                    },
                                    {
                                        "name": "receiver",
                                        "type": "bytes32",
                                        "value": "0x000000000000000000000000f1fcb4cbd57b67d683972a59b6a7b1e2e8bf27e6"
                                    },
                                    {
                                        "name": "guid",
                                        "type": "bytes32",
                                        "value": "0x615af32d6c847ee25d21e47770af3d76dde4da1ab3c3742748f9eeb7276c3b19"
                                    },
                                    {
                                        "name": "message",
                                        "type": "bytes",
                                        "value": "0x0200000000000000000000000000000000000000000000000000001b48eb57e000000d000000000000000000000000700c4e16751e7816fd211776f72a6e0c0a94df7e000000000000752f00000d000000000000000000000000f31f1d2d72fab5db2a2c742fb11d808221acad0e00000000000084cf00"
                                    }
                                ]
                            },
                            {
                                "name": "_options",
                                "type": "bytes",
                                "value": "0x00030100110100000000000000000000000000009470010011010000000000000000000000000000ea60"
                            },
                            {
                                "name": "_payInLzToken",
                                "type": "bool",
                                "value": false
                            }
                        ],
                        "constructorArguments": "",
                        "name": "send",
                        "returnParams": [
                            {
                                "name": "",
                                "type": "(uint256,uint256)",
                                "value": [
                                    {
                                        "name": "nativeFee",
                                        "type": "uint256",
                                        "value": "14,550,743,322,872"
                                    },
                                    {
                                        "name": "lzTokenFee",
                                        "type": "uint256",
                                        "value": "0"
                                    }
                                ]
                            },
                            {
                                "name": "",
                                "type": "bytes",
                                "value": "0x010000000000000161000075950000000000000000000000006d6620efa72948c5f68a3c8646d58c00d3f4a9800000759f000000000000000000000000f1fcb4cbd57b67d683972a59b6a7b1e2e8bf27e6615af32d6c847ee25d21e47770af3d76dde4da1ab3c3742748f9eeb7276c3b190200000000000000000000000000000000000000000000000000001b48eb57e000000d000000000000000000000000700c4e16751e7816fd211776f72a6e0c0a94df7e000000000000752f00000d000000000000000000000000f31f1d2d72fab5db2a2c742fb11d808221acad0e00000000000084cf00"
                            }
                        ],
                        "signature": "send((uint64,uint32,address,uint32,bytes32,bytes32,bytes),bytes,bool)"
                    },
                    "errorInfo": "",
                    "fromAddress": "0x1a44076050125825900e736c501f859c50fe728c",
                    "gasUsed": 175175,
                    "id": 2,
                    "methodDecoded": true,
                    "operation": "CALL",
                    "output": "0x00000000000000000000000000000000000000000000000000000d3bdbe310f80000000000000000000000000000000000000000000000000000000000000000000000000000000000000000000000000000000000000000000000000000006000000000000000000000000000000000000000000000000000000000000000e8010000000000000161000075950000000000000000000000006d6620efa72948c5f68a3c8646d58c00d3f4a9800000759f000000000000000000000000f1fcb4cbd57b67d683972a59b6a7b1e2e8bf27e6615af32d6c847ee25d21e47770af3d76dde4da1ab3c3742748f9eeb7276c3b190200000000000000000000000000000000000000000000000000001b48eb57e000000d000000000000000000000000700c4e16751e7816fd211776f72a6e0c0a94df7e000000000000752f00000d000000000000000000000000f31f1d2d72fab5db2a2c742fb11d808221acad0e00000000000084cf00000000000000000000000000000000000000000000000000",
                    "revert": false,
                    "revertMessage": "",
                    "selector": "0x4389e58f",
                    "status": true,
                    "value": "0"
                },
                "nodeType": 0
            },
            "20": {
                "invocation": {
                    "address": "0xbb2ea70c9e858123480642cf96acbcce1372dce1",
                    "callData": "0x",
                    "decodedMethod": null,
                    "errorInfo": "",
                    "fromAddress": "0x1a44076050125825900e736c501f859c50fe728c",
                    "gasUsed": 55,
                    "id": 20,
                    "methodDecoded": false,
                    "operation": "CALL",
                    "output": "",
                    "revert": false,
                    "revertMessage": "",
                    "selector": "fallback",
                    "status": true,
                    "value": "0.000014550743322872"
                },
                "nodeType": 0
            },
            "21": {
                "event": {
                    "contract": "0x6d6620efa72948c5f68a3c8646d58c00d3f4a980",
                    "decodedLog": {
                        "name": "BusDriven",
                        "params": [
                            {
                                "name": "dstEid",
                                "type": "uint32",
                                "value": "30,111"
                            },
                            {
                                "name": "startTicketId",
                                "type": "uint72",
                                "value": "294"
                            },
                            {
                                "name": "numPassengers",
                                "type": "uint8",
                                "value": "2"
                            },
                            {
                                "name": "guid",
                                "type": "bytes32",
                                "value": "0x615af32d6c847ee25d21e47770af3d76dde4da1ab3c3742748f9eeb7276c3b19"
                            }
                        ],
                        "signature": "BusDriven(uint32,uint72,uint8,bytes32)"
                    },
                    "id": 21,
                    "logData": "0x000000000000000000000000000000000000000000000000000000000000759f00000000000000000000000000000000000000000000000000000000000001260000000000000000000000000000000000000000000000000000000000000002615af32d6c847ee25d21e47770af3d76dde4da1ab3c3742748f9eeb7276c3b19",
                    "logDecoded": true,
                    "operation": "EVENT",
                    "revert": false,
                    "status": true,
                    "topics": [
                        "0x1623f9ea59bd6f214c9571a892da012fc23534aa5906bef4ae8c5d15ee7d2d6e"
                    ]
                },
                "nodeType": 1
            },
            "3": {
                "invocation": {
                    "address": "0x173272739bd7aa6e4e214714048a9fe699453059",
                    "callData": "0x000000000000000000000000000000000000000000000000000000000000759f0000000000000000000000006d6620efa72948c5f68a3c8646d58c00d3f4a9800000000000000000000000000000000000000000000000000000000000000077000000000000000000000000000000000000000000000000000000000000008000000000000000000000000000000000000000000000000000000000000000280100110100000000000000000000000000009470010011010000000000000000000000000000ea60000000000000000000000000000000000000000000000000",
                    "decodedMethod": {
                        "callParams": [
                            {
                                "name": "_dstEid",
                                "type": "uint32",
                                "value": "30,111"
                            },
                            {
                                "name": "_sender",
                                "type": "address",
                                "value": "0x6d6620efa72948c5f68a3c8646d58c00d3f4a980"
                            },
                            {
                                "name": "_calldataSize",
                                "type": "uint256",
                                "value": "119"
                            },
                            {
                                "name": "_options",
                                "type": "bytes",
                                "value": "0x0100110100000000000000000000000000009470010011010000000000000000000000000000ea60"
                            }
                        ],
                        "constructorArguments": "",
                        "name": "assignJob",
                        "returnParams": [
                            {
                                "name": "fee",
                                "type": "uint256",
                                "value": "14,406,608,123,768"
                            }
                        ],
                        "signature": "assignJob(uint32,address,uint256,bytes)"
                    },
                    "errorInfo": "",
                    "fromAddress": "0xbb2ea70c9e858123480642cf96acbcce1372dce1",
                    "gasUsed": 51954,
                    "id": 3,
                    "methodDecoded": true,
                    "operation": "CALL",
                    "output": "0x00000000000000000000000000000000000000000000000000000d1a4cc27778",
                    "revert": false,
                    "revertMessage": "",
                    "selector": "0x717e8a42",
                    "status": true,
                    "value": "0"
                },
                "nodeType": 0
            },
            "4": {
                "invocation": {
                    "address": "0x1e45f27f0e96e9757cff938f2c9d697aa8279c85",
                    "callData": "0x000000000000000000000000000000000000000000000000000000000000759f0000000000000000000000006d6620efa72948c5f68a3c8646d58c00d3f4a9800000000000000000000000000000000000000000000000000000000000000077000000000000000000000000000000000000000000000000000000000000008000000000000000000000000000000000000000000000000000000000000000280100110100000000000000000000000000009470010011010000000000000000000000000000ea60000000000000000000000000000000000000000000000000",
                    "decodedMethod": {
                        "callParams": [
                            {
                                "name": "_dstEid",
                                "type": "uint32",
                                "value": "30,111"
                            },
                            {
                                "name": "_sender",
                                "type": "address",
                                "value": "0x6d6620efa72948c5f68a3c8646d58c00d3f4a980"
                            },
                            {
                                "name": "_calldataSize",
                                "type": "uint256",
                                "value": "119"
                            },
                            {
                                "name": "_options",
                                "type": "bytes",
                                "value": "0x0100110100000000000000000000000000009470010011010000000000000000000000000000ea60"
                            }
                        ],
                        "constructorArguments": "",
                        "name": "assignJob",
                        "returnParams": [
                            {
                                "name": "fee",
                                "type": "uint256",
                                "value": "14,406,608,123,768"
                            }
                        ],
                        "signature": "assignJob(uint32,address,uint256,bytes)"
                    },
                    "errorInfo": "",
                    "fromAddress": "0x173272739bd7aa6e4e214714048a9fe699453059",
                    "gasUsed": 46852,
                    "id": 4,
                    "methodDecoded": true,
                    "operation": "DELEGATECALL",
                    "output": "0x00000000000000000000000000000000000000000000000000000d1a4cc27778",
                    "revert": false,
                    "revertMessage": "",
                    "selector": "0x717e8a42",
                    "status": true,
                    "value": "0"
                },
                "nodeType": 0
            },
            "5": {
                "invocation": {
                    "address": "0x19044ca8bbbabdc30e52d4d60854d968d90274da",
                    "callData": "0x000000000000000000000000c03f31fd86a9077785b7bcf6598ce3598fa91113000000000000000000000000000000000000000000000000000000000000759f0000000000000000000000006d6620efa72948c5f68a3c8646d58c00d3f4a98000000000000000000000000000000000000000000000000000000000000000770000000000000000000000000000000000000000000000000000000000002ee00000000000000000000000000000000000000000000000000000000000007d0000000000000000000000000000000000000000000000000000000000000029fe0000000000000000000000000000000000000000000000004563918244f400000000000000000000000000000000000000000000000000000354a6ba7a180000000000000000000000000000000000000000000000000000000000000000014000000000000000000000000000000000000000000000000000000000000000280100110100000000000000000000000000009470010011010000000000000000000000000000ea60000000000000000000000000000000000000000000000000",
                    "decodedMethod": {
                        "callParams": [
                            {
                                "name": "_params",
                                "type": "(address,uint32,address,uint256,uint16)",
                                "value": [
                                    {
                                        "name": "priceFeed",
                                        "type": "address",
                                        "value": "0xc03f31fd86a9077785b7bcf6598ce3598fa91113"
                                    },
                                    {
                                        "name": "dstEid",
                                        "type": "uint32",
                                        "value": "30,111"
                                    },
                                    {
                                        "name": "sender",
                                        "type": "address",
                                        "value": "0x6d6620efa72948c5f68a3c8646d58c00d3f4a980"
                                    },
                                    {
                                        "name": "calldataSize",
                                        "type": "uint256",
                                        "value": "119"
                                    },
                                    {
                                        "name": "defaultMultiplierBps",
                                        "type": "uint16",
                                        "value": "12,000"
                                    }
                                ]
                            },
                            {
                                "name": "_dstConfig",
                                "type": "(uint64,uint16,uint128,uint128)",
                                "value": [
                                    {
                                        "name": "baseGas",
                                        "type": "uint64",
                                        "value": "32,000"
                                    },
                                    {
                                        "name": "multiplierBps",
                                        "type": "uint16",
                                        "value": "10,750"
                                    },
                                    {
                                        "name": "floorMarginUSD",
                                        "type": "uint128",
                                        "value": "5,000,000,000,000,000,000"
                                    },
                                    {
                                        "name": "nativeCap",
                                        "type": "uint128",
                                        "value": "240,000,000,000,000,000"
                                    }
                                ]
                            },
                            {
                                "name": "_options",
                                "type": "bytes",
                                "value": "0x0100110100000000000000000000000000009470010011010000000000000000000000000000ea60"
                            }
                        ],
                        "constructorArguments": "",
                        "name": "getFeeOnSend",
                        "returnParams": [
                            {
                                "name": "fee",
                                "type": "uint256",
                                "value": "14,406,608,123,768"
                            }
                        ],
                        "signature": "getFeeOnSend((address,uint32,address,uint256,uint16),(uint64,uint16,uint128,uint128),bytes)"
                    },
                    "errorInfo": "",
                    "fromAddress": "0x173272739bd7aa6e4e214714048a9fe699453059",
                    "gasUsed": 29342,
                    "id": 5,
                    "methodDecoded": true,
                    "operation": "CALL",
                    "output": "0x00000000000000000000000000000000000000000000000000000d1a4cc27778",
                    "revert": false,
                    "revertMessage": "",
                    "selector": "0xf43bcfc5",
                    "status": true,
                    "value": "0"
                },
                "nodeType": 0
            },
            "6": {
                "invocation": {
                    "address": "0xc03f31fd86a9077785b7bcf6598ce3598fa91113",
                    "callData": "0x000000000000000000000000000000000000000000000000000000000000759f0000000000000000000000000000000000000000000000000000000000000077000000000000000000000000000000000000000000000000000000000001fbd0",
                    "decodedMethod": {
                        "callParams": [
                            {
                                "name": "_dstEid",
                                "type": "uint32",
                                "value": "30,111"
                            },
                            {
                                "name": "_callDataSize",
                                "type": "uint256",
                                "value": "119"
                            },
                            {
                                "name": "_gas",
                                "type": "uint256",
                                "value": "130,000"
                            }
                        ],
                        "constructorArguments": "",
                        "name": "estimateFeeOnSend",
                        "returnParams": [
                            {
                                "name": "",
                                "type": "uint256",
                                "value": "212,765,109,120"
                            },
                            {
                                "name": "",
                                "type": "uint128",
                                "value": "100,000,000,000,000,000,001"
                            },
                            {
                                "name": "",
                                "type": "uint128",
                                "value": "100,000,000,000,000,000,000"
                            },
                            {
                                "name": "",
                                "type": "uint128",
                                "value": "352,265,415,000,000,000,000,000"
                            }
                        ],
                        "signature": "estimateFeeOnSend(uint32,uint256,uint256)"
                    },
                    "errorInfo": "",
                    "fromAddress": "0x19044ca8bbbabdc30e52d4d60854d968d90274da",
                    "gasUsed": 20142,
                    "id": 6,
                    "methodDecoded": true,
                    "operation": "CALL",
                    "output": "0x0000000000000000000000000000000000000000000000000000003189c9eb800000000000000000000000000000000000000000000000056bc75e2d631000010000000000000000000000000000000000000000000000056bc75e2d63100000000000000000000000000000000000000000000000004a9858ae7057804d8000",
                    "revert": false,
                    "revertMessage": "",
                    "selector": "0xc1723a1d",
                    "status": true,
                    "value": "0"
                },
                "nodeType": 0
            },
            "7": {
                "invocation": {
                    "address": "0x13dff8847ea170ebb8439ce732c0a14bb49fdd92",
                    "callData": "0x000000000000000000000000000000000000000000000000000000000000759f0000000000000000000000000000000000000000000000000000000000000077000000000000000000000000000000000000000000000000000000000001fbd0",
                    "decodedMethod": {
                        "callParams": [
                            {
                                "name": "_dstEid",
                                "type": "uint32",
                                "value": "30,111"
                            },
                            {
                                "name": "_callDataSize",
                                "type": "uint256",
                                "value": "119"
                            },
                            {
                                "name": "_gas",
                                "type": "uint256",
                                "value": "130,000"
                            }
                        ],
                        "constructorArguments": "",
                        "name": "estimateFeeOnSend",
                        "returnParams": [
                            {
                                "name": "",
                                "type": "uint256",
                                "value": "212,765,109,120"
                            },
                            {
                                "name": "",
                                "type": "uint128",
                                "value": "100,000,000,000,000,000,001"
                            },
                            {
                                "name": "",
                                "type": "uint128",
                                "value": "100,000,000,000,000,000,000"
                            },
                            {
                                "name": "",
                                "type": "uint128",
                                "value": "352,265,415,000,000,000,000,000"
                            }
                        ],
                        "signature": "estimateFeeOnSend(uint32,uint256,uint256)"
                    },
                    "errorInfo": "",
                    "fromAddress": "0xc03f31fd86a9077785b7bcf6598ce3598fa91113",
                    "gasUsed": 15055,
                    "id": 7,
                    "methodDecoded": true,
                    "operation": "DELEGATECALL",
                    "output": "0x0000000000000000000000000000000000000000000000000000003189c9eb800000000000000000000000000000000000000000000000056bc75e2d631000010000000000000000000000000000000000000000000000056bc75e2d63100000000000000000000000000000000000000000000000004a9858ae7057804d8000",
                    "revert": false,
                    "revertMessage": "",
                    "selector": "0xc1723a1d",
                    "status": true,
                    "value": "0"
                },
                "nodeType": 0
            },
            "8": {
                "event": {
                    "contract": "0xbb2ea70c9e858123480642cf96acbcce1372dce1",
                    "decodedLog": {
                        "name": "ExecutorFeePaid",
                        "params": [
                            {
                                "name": "executor",
                                "type": "address",
                                "value": "0x173272739bd7aa6e4e214714048a9fe699453059"
                            },
                            {
                                "name": "fee",
                                "type": "uint256",
                                "value": "14,406,608,123,768"
                            }
                        ],
                        "signature": "ExecutorFeePaid(address,uint256)"
                    },
                    "id": 8,
                    "logData": "0x000000000000000000000000173272739bd7aa6e4e214714048a9fe69945305900000000000000000000000000000000000000000000000000000d1a4cc27778",
                    "logDecoded": true,
                    "operation": "EVENT",
                    "revert": false,
                    "status": true,
                    "topics": [
                        "0x61ed099e74a97a1d7f8bb0952a88ca8b7b8ebd00c126ea04671f92a81213318a"
                    ]
                },
                "nodeType": 1
            },
            "9": {
                "invocation": {
                    "address": "0x8fafae7dd957044088b3d0f67359c327c6200d18",
                    "callData": "0x00000000000000000000000000000000000000000000000000000000000000400000000000000000000000000000000000000000000000000000000000000160000000000000000000000000000000000000000000000000000000000000759f00000000000000000000000000000000000000000000000000000000000000a0154a0d7e1968ebfc174bd85f70be0aab437330422da8d760acf5435ea185ba62000000000000000000000000000000000000000000000000000000000000000f0000000000000000000000006d6620efa72948c5f68a3c8646d58c00d3f4a9800000000000000000000000000000000000000000000000000000000000000051010000000000000161000075950000000000000000000000006d6620efa72948c5f68a3c8646d58c00d3f4a9800000759f000000000000000000000000f1fcb4cbd57b67d683972a59b6a7b1e2e8bf27e60000000000000000000000000000000000000000000000000000000000000000000000000000000000000000000000",
                    "decodedMethod": {
                        "callParams": [
                            {
                                "name": "_param",
                                "type": "(uint32,bytes,bytes32,uint64,address)",
                                "value": [
                                    {
                                        "name": "dstEid",
                                        "type": "uint32",
                                        "value": "30,111"
                                    },
                                    {
                                        "name": "packetHeader",
                                        "type": "bytes",
                                        "value": "0x010000000000000161000075950000000000000000000000006d6620efa72948c5f68a3c8646d58c00d3f4a9800000759f000000000000000000000000f1fcb4cbd57b67d683972a59b6a7b1e2e8bf27e6"
                                    },
                                    {
                                        "name": "payloadHash",
                                        "type": "bytes32",
                                        "value": "0x154a0d7e1968ebfc174bd85f70be0aab437330422da8d760acf5435ea185ba62"
                                    },
                                    {
                                        "name": "confirmations",
                                        "type": "uint64",
                                        "value": "15"
                                    },
                                    {
                                        "name": "sender",
                                        "type": "address",
                                        "value": "0x6d6620efa72948c5f68a3c8646d58c00d3f4a980"
                                    }
                                ]
                            },
                            {
                                "name": "",
                                "type": "bytes",
                                "value": "0x"
                            }
                        ],
                        "constructorArguments": "",
                        "name": "assignJob",
                        "returnParams": [
                            {
                                "name": "fee",
                                "type": "uint256",
                                "value": "72,067,599,552"
                            }
                        ],
                        "signature": "assignJob((uint32,bytes,bytes32,uint64,address),bytes)"
                    },
                    "errorInfo": "",
                    "fromAddress": "0xbb2ea70c9e858123480642cf96acbcce1372dce1",
                    "gasUsed": 27444,
                    "id": 9,
                    "methodDecoded": true,
                    "operation": "CALL",
                    "output": "0x00000000000000000000000000000000000000000000000000000010c7904cc0",
                    "revert": false,
                    "revertMessage": "",
                    "selector": "0x95d376d7",
                    "status": true,
                    "value": "0"
                },
                "nodeType": 0
            }
        },
        "gasFlame": [
            {
                "children": [
                    {
                        "children": [
                            {
                                "children": [],
                                "depth": 0,
                                "name": "Initial Gas",
                                "value": 22432
                            },
                            {
                                "children": [
                                    {
                                        "children": [
                                            {
                                                "children": [
                                                    {
                                                        "children": [
                                                            {
                                                                "children": [
                                                                    {
                                                                        "children": [
                                                                            {
                                                                                "children": [
                                                                                    {
                                                                                        "children": [],
                                                                                        "depth": 7,
                                                                                        "name": "estimateFeeOnSend",
                                                                                        "value": 15055
                                                                                    }
                                                                                ],
                                                                                "depth": 6,
                                                                                "name": "estimateFeeOnSend",
                                                                                "value": 20142
                                                                            }
                                                                        ],
                                                                        "depth": 5,
                                                                        "name": "getFeeOnSend",
                                                                        "value": 29342
                                                                    }
                                                                ],
                                                                "depth": 4,
                                                                "name": "assignJob",
                                                                "value": 46852
                                                            }
                                                        ],
                                                        "depth": 3,
                                                        "name": "assignJob",
                                                        "value": 51954
                                                    },
                                                    {
                                                        "children": [
                                                            {
                                                                "children": [
                                                                    {
                                                                        "children": [
                                                                            {
                                                                                "children": [],
                                                                                "depth": 6,
                                                                                "name": "estimateFeeOnSend",
                                                                                "value": 5055
                                                                            }
                                                                        ],
                                                                        "depth": 5,
                                                                        "name": "estimateFeeOnSend",
                                                                        "value": 5642
                                                                    }
                                                                ],
                                                                "depth": 4,
                                                                "name": "getFeeOnSend",
                                                                "value": 9088
                                                            }
                                                        ],
                                                        "depth": 3,
                                                        "name": "assignJob",
                                                        "value": 27444
                                                    },
                                                    {
                                                        "children": [
                                                            {
                                                                "children": [
                                                                    {
                                                                        "children": [
                                                                            {
                                                                                "children": [],
                                                                                "depth": 6,
                                                                                "name": "estimateFeeOnSend",
                                                                                "value": 5055
                                                                            }
                                                                        ],
                                                                        "depth": 5,
                                                                        "name": "estimateFeeOnSend",
                                                                        "value": 5642
                                                                    }
                                                                ],
                                                                "depth": 4,
                                                                "name": "getFeeOnSend",
                                                                "value": 9088
                                                            }
                                                        ],
                                                        "depth": 3,
                                                        "name": "assignJob",
                                                        "value": 27444
                                                    },
                                                    {
                                                        "children": [],
                                                        "depth": 3,
                                                        "name": "payFee",
                                                        "value": 2894
                                                    }
                                                ],
                                                "depth": 2,
                                                "name": "send",
                                                "value": 175175
                                            },
                                            {
                                                "children": [],
                                                "depth": 2,
                                                "name": "fallback",
                                                "value": 55
                                            }
                                        ],
                                        "depth": 1,
                                        "name": "send",
                                        "value": 214269
                                    }
                                ],
                                "depth": 0,
                                "name": "Executed Gas",
                                "value": 253321
                            }
                        ],
                        "depth": -1,
                        "name": "Actual Gas Used",
                        "value": 272953
                    },
                    {
                        "children": [],
                        "depth": -1,
                        "name": "Refunded Gas",
                        "value": 2800
                    }
                ],
                "depth": -2,
                "name": "Total Gas",
                "value": 275753
            }
        ],
        "isConfirmed": true,
        "mainTrace": [
            {
                "children": [
                    {
                        "children": [
                            {
                                "children": [
                                    {
                                        "children": [
                                            {
                                                "children": [
                                                    {
                                                        "children": [
                                                            {
                                                                "children": [
                                                                    {
                                                                        "children": [
                                                                            {
                                                                                "children": [],
                                                                                "depth": 7,
                                                                                "id": 7,
                                                                                "order": 7
                                                                            }
                                                                        ],
                                                                        "depth": 6,
                                                                        "id": 6,
                                                                        "order": 6
                                                                    }
                                                                ],
                                                                "depth": 5,
                                                                "id": 5,
                                                                "order": 5
                                                            }
                                                        ],
                                                        "depth": 4,
                                                        "id": 4,
                                                        "order": 4
                                                    }
                                                ],
                                                "depth": 3,
                                                "id": 3,
                                                "order": 3
                                            },
                                            {
                                                "children": [],
                                                "depth": 3,
                                                "id": 8,
                                                "order": 8
                                            },
                                            {
                                                "children": [
                                                    {
                                                        "children": [
                                                            {
                                                                "children": [
                                                                    {
                                                                        "children": [],
                                                                        "depth": 6,
                                                                        "id": 12,
                                                                        "order": 12
                                                                    }
                                                                ],
                                                                "depth": 5,
                                                                "id": 11,
                                                                "order": 11
                                                            }
                                                        ],
                                                        "depth": 4,
                                                        "id": 10,
                                                        "order": 10
                                                    }
                                                ],
                                                "depth": 3,
                                                "id": 9,
                                                "order": 9
                                            },
                                            {
                                                "children": [
                                                    {
                                                        "children": [
                                                            {
                                                                "children": [
                                                                    {
                                                                        "children": [],
                                                                        "depth": 6,
                                                                        "id": 16,
                                                                        "order": 16
                                                                    }
                                                                ],
                                                                "depth": 5,
                                                                "id": 15,
                                                                "order": 15
                                                            }
                                                        ],
                                                        "depth": 4,
                                                        "id": 14,
                                                        "order": 14
                                                    }
                                                ],
                                                "depth": 3,
                                                "id": 13,
                                                "order": 13
                                            },
                                            {
                                                "children": [],
                                                "depth": 3,
                                                "id": 17,
                                                "order": 17
                                            },
                                            {
                                                "children": [],
                                                "depth": 3,
                                                "id": 18,
                                                "order": 18
                                            }
                                        ],
                                        "depth": 2,
                                        "id": 2,
                                        "order": 2
                                    },
                                    {
                                        "children": [],
                                        "depth": 2,
                                        "id": 19,
                                        "order": 19
                                    },
                                    {
                                        "children": [],
                                        "depth": 2,
                                        "id": 20,
                                        "order": 20
                                    }
                                ],
                                "depth": 1,
                                "id": 1,
                                "order": 1
                            },
                            {
                                "children": [],
                                "depth": 1,
                                "id": 21,
                                "order": 21
                            }
                        ],
                        "depth": 0,
                        "id": 0,
                        "order": 0
                    }
                ],
                "depth": -1,
                "id": -1,
                "order": -1
            }
        ],
        "mainTraceNodeCount": 22,
        "parentIdMap": {
            "0": -1,
            "1": 0,
            "10": 9,
            "11": 10,
            "12": 11,
            "13": 2,
            "14": 13,
            "15": 14,
            "16": 15,
            "17": 2,
            "18": 2,
            "19": 1,
            "2": 1,
            "20": 1,
            "21": 0,
            "3": 2,
            "4": 3,
            "5": 4,
            "6": 5,
            "7": 6,
            "8": 2,
            "9": 2
        },
        "tidyTrace": [
            {
                "children": [
                    {
                        "children": [
                            {
                                "children": [
                                    {
                                        "children": [
                                            {
                                                "children": [
                                                    {
                                                        "children": [
                                                            {
                                                                "children": [
                                                                    {
                                                                        "children": [
                                                                            {
                                                                                "children": [],
                                                                                "depth": 7,
                                                                                "id": 7,
                                                                                "order": 7
                                                                            }
                                                                        ],
                                                                        "depth": 6,
                                                                        "id": 6,
                                                                        "order": 6
                                                                    }
                                                                ],
                                                                "depth": 5,
                                                                "id": 5,
                                                                "order": 5
                                                            }
                                                        ],
                                                        "depth": 4,
                                                        "id": 4,
                                                        "order": 4
                                                    }
                                                ],
                                                "depth": 3,
                                                "id": 3,
                                                "order": 3
                                            },
                                            {
                                                "children": [],
                                                "depth": 3,
                                                "id": 8,
                                                "order": 8
                                            },
                                            {
                                                "children": [
                                                    {
                                                        "children": [
                                                            {
                                                                "children": [
                                                                    {
                                                                        "children": [],
                                                                        "depth": 6,
                                                                        "id": 12,
                                                                        "order": 12
                                                                    }
                                                                ],
                                                                "depth": 5,
                                                                "id": 11,
                                                                "order": 11
                                                            }
                                                        ],
                                                        "depth": 4,
                                                        "id": 10,
                                                        "order": 10
                                                    }
                                                ],
                                                "depth": 3,
                                                "id": 9,
                                                "order": 9
                                            },
                                            {
                                                "children": [
                                                    {
                                                        "children": [
                                                            {
                                                                "children": [
                                                                    {
                                                                        "children": [],
                                                                        "depth": 6,
                                                                        "id": 16,
                                                                        "order": 16
                                                                    }
                                                                ],
                                                                "depth": 5,
                                                                "id": 15,
                                                                "order": 15
                                                            }
                                                        ],
                                                        "depth": 4,
                                                        "id": 14,
                                                        "order": 14
                                                    }
                                                ],
                                                "depth": 3,
                                                "id": 13,
                                                "order": 13
                                            },
                                            {
                                                "children": [],
                                                "depth": 3,
                                                "id": 17,
                                                "order": 17
                                            },
                                            {
                                                "children": [],
                                                "depth": 3,
                                                "id": 18,
                                                "order": 18
                                            }
                                        ],
                                        "depth": 2,
                                        "id": 2,
                                        "order": 2
                                    },
                                    {
                                        "children": [],
                                        "depth": 2,
                                        "id": 19,
                                        "order": 19
                                    },
                                    {
                                        "children": [],
                                        "depth": 2,
                                        "id": 20,
                                        "order": 20
                                    }
                                ],
                                "depth": 1,
                                "id": 1,
                                "order": 1
                            },
                            {
                                "children": [],
                                "depth": 1,
                                "id": 21,
                                "order": 21
                            }
                        ],
                        "depth": 0,
                        "id": 0,
                        "order": 0
                    }
                ],
                "depth": -1,
                "id": -1,
                "order": -1
            }
        ],
        "tidyTraceNodeCount": 22
    },
    "state_change": {
        "stateChanges": [
            {
                "address": "0x1a44076050125825900e736c501f859c50fe728c",
                "erc": "",
                "slots": [
                    {
                        "current": "0x0000000000000000000000000000000000000000000000000000000000000161",
                        "key": "0x05abc0309d06ea7a7672a240e964eca7bbe162f3a40518b7fcbb38ae3f5ea3ed",
                        "prev": "0x0000000000000000000000000000000000000000000000000000000000000160"
                    }
                ],
                "storageVariables": [
                    {
                        "name": "outboundNonce",
                        "type": "mapping(address => mapping(uint32 => mapping(bytes32 => uint64)))",
                        "value": {
                            "pairs": [
                                {
                                    "key": "0x6d6620efa72948c5f68a3c8646d58c00d3f4a980",
                                    "value": {
                                        "pairs": [
                                            {
                                                "key": "30111",
                                                "value": {
                                                    "pairs": [
                                                        {
                                                            "key": "0x000000000000000000000000f1fcb4cbd57b67d683972a59b6a7b1e2e8bf27e6",
                                                            "value": {
                                                                "current": "353",
                                                                "prev": "352",
                                                                "typeTag": 1
                                                            }
                                                        }
                                                    ],
                                                    "typeTag": 4
                                                }
                                            }
                                        ],
                                        "typeTag": 4
                                    }
                                }
                            ],
                            "typeTag": 4
                        }
                    }
                ]
            },
            {
                "address": "0x6d6620efa72948c5f68a3c8646d58c00d3f4a980",
                "erc": "",
                "slots": [
                    {
                        "current": "0x00000000000000012800000000000173d60dc63b6200000001516fedd5cbb614",
                        "key": "0xde9184f0c97f64a227031bdf1e94d1b0c98fc021949213fcd86f360230146c14",
                        "prev": "0x00000000000000012600020000000173d60dc63b6200000001516fedd5cbb614"
                    }
                ],
                "storageVariables": [
                    {
                        "name": "busQueues",
                        "type": "mapping(uint32 => struct BusQueue)",
                        "value": {
                            "pairs": [
                                {
                                    "key": "30111",
                                    "value": {
                                        "fields": [
                                            {
                                                "name": "maxNumPassengers",
                                                "type": "uint8",
                                                "value": {
                                                    "current": "20",
                                                    "prev": "20",
                                                    "typeTag": 1
                                                }
                                            },
                                            {
                                                "name": "busFare",
                                                "type": "uint80",
                                                "value": {
                                                    "current": "371016150141878",
                                                    "prev": "371016150141878",
                                                    "typeTag": 1
                                                }
                                            },
                                            {
                                                "name": "busAndNativeDropFare",
                                                "type": "uint80",
                                                "value": {
                                                    "current": "408838168001378",
                                                    "prev": "408838168001378",
                                                    "typeTag": 1
                                                }
                                            },
                                            {
                                                "name": "qLength",
                                                "type": "uint16",
                                                "value": {
                                                    "current": "0",
                                                    "prev": "2",
                                                    "typeTag": 1
                                                }
                                            },
                                            {
                                                "name": "nextTicketId",
                                                "type": "uint72",
                                                "value": {
                                                    "current": "296",
                                                    "prev": "294",
                                                    "typeTag": 1
                                                }
                                            }
                                        ],
                                        "typeTag": 3
                                    }
                                }
                            ],
                            "typeTag": 4
                        }
                    }
                ]
            },
            {
                "address": "0xbb2ea70c9e858123480642cf96acbcce1372dce1",
                "erc": "",
                "slots": [
                    {
                        "current": "0x00000000000000000000000000000000000000000000000005d21425bd9dc8a6",
                        "key": "0x278bc11c91e7d1b73f4b7ee50a37309e715d286578f2b001b0f1fedf7583f84e",
                        "prev": "0x00000000000000000000000000000000000000000000000005d21414f60d7be6"
                    },
                    {
                        "current": "0x0000000000000000000000000000000000000000000000000b546e4381b96cd7",
                        "key": "0xcb1bb8f061556bad91cf49e649358ff9d9995d5e7fffa24c4853a0ea8641077b",
                        "prev": "0x0000000000000000000000000000000000000000000000000b54612934f6f55f"
                    },
                    {
                        "current": "0x000000000000000000000000000000000000000000000000008fabec2aa11eb5",
                        "key": "0x337b5cd97de7bd131a003d8d93c31f92edaa635fd3c8efdd34669269f12d3d1c",
                        "prev": "0x000000000000000000000000000000000000000000000000008fabdb6310d1f5"
                    }
                ],
                "storageVariables": [
                    {
                        "name": "fees",
                        "type": "mapping(address => uint256)",
                        "value": {
                            "pairs": [
                                {
                                    "key": "0x173272739bd7aa6e4e214714048a9fe699453059",
                                    "value": {
                                        "current": "816398668679179479",
                                        "prev": "816384262071055711",
                                        "typeTag": 1
                                    }
                                },
                                {
                                    "key": "0x8fafae7dd957044088b3d0f67359c327c6200d18",
                                    "value": {
                                        "current": "40439952485457589",
                                        "prev": "40439880417858037",
                                        "typeTag": 1
                                    }
                                },
                                {
                                    "key": "0xa59ba433ac34d2927232918ef5b2eaafcf130ba5",
                                    "value": {
                                        "current": "419419867626457254",
                                        "prev": "419419795558857702",
                                        "typeTag": 1
                                    }
                                }
                            ],
                            "typeTag": 4
                        }
                    }
                ]
            }
        ]
    }
}