{
    "balance_change": {
        "balanceChanges": [
            {
                "account": "0x5be34c3f6f2cfd65fa46c7414105057254aef2d8",
                "assets": [
                    {
                        "address": "0x10daa9f4c0f985430fde4959adb2c791ef2ccf83",
                        "amount": "1",
                        "iconUrl": "",
                        "isERC1155": true,
                        "isERC721": false,
                        "sign": false,
                        "tokenID": "10004",
                        "value": ""
                    }
                ]
            },
            {
                "account": "0xfbfc24e266389512b43f7f18219d285d68bf0108",
                "assets": [
                    {
                        "address": "0x10daa9f4c0f985430fde4959adb2c791ef2ccf83",
                        "amount": "1",
                        "iconUrl": "",
                        "isERC1155": true,
                        "isERC721": false,
                        "sign": true,
                        "tokenID": "10004",
                        "value": ""
                    }
                ]
            }
        ]
    },
    "profile": {
        "basic_info": {
            "baseFee": "112.991679023",
            "blockNumber": 13604370,
            "callData": "0xf242432a0000000000000000000000005be34c3f6f2cfd65fa46c7414105057254aef2d8000000000000000000000000fbfc24e266389512b43f7f18219d285d68bf01080000000000000000000000000000000000000000000000000000000000002714000000000000000000000000000000000000000000000000000000000000000100000000000000000000000000000000000000000000000000000000000000a00000000000000000000000000000000000000000000000000000000000000000",
            "debugEnable": true,
            "errorInfo": "",
            "eventCount": 1,
            "feeRecipient": "0x00192fb10df37c9fb26829eb2cc623cd1bf599e8",
            "formatValue": "0",
            "gasLimit": 85327,
            "gasPrice": "114.363910377",
            "gasUsed": 52085,
            "intTxnCount": 0,
            "internalRevert": false,
            "internalRevertMessage": "",
            "isContractCreation": false,
            "isFlashloan": false,
            "maxFee": "126.996439654",
            "nonce": 15,
            "overwritedBlockNumber": -1,
            "priorityFee": "1.372231354",
            "receiver": "0x10daa9f4c0f985430fde4959adb2c791ef2ccf83",
            "revertMessage": "",
            "sender": "0x5be34c3f6f2cfd65fa46c7414105057254aef2d8",
            "simulationEnable": true,
            "sourceTxnHash": "0xb41b059ca1cc47e887d9007f26216781fbe8d376695650715836c37cf4ddfac0",
            "status": true,
            "timestamp": "2021-11-12T23:55:55Z",
            "transactionFee": "0.005956644271986045",
            "txnHash": "0xb41b059ca1cc47e887d9007f26216781fbe8d376695650715836c37cf4ddfac0",
            "txnIndex": 109,
            "type": 2,
            "value": "0"
        },
        "fund_flow": [
            {
                "amount": "1",
                "from": "0x5be34c3f6f2cfd65fa46c7414105057254aef2d8",
                "id": 1,
                "isERC1155": true,
                "isERC721": false,
                "isReverted": false,
                "order": 1,
                "to": "0xfbfc24e266389512b43f7f18219d285d68bf0108",
                "token": "0x10daa9f4c0f985430fde4959adb2c791ef2ccf83",
                "tokenID": "10004"
            }
        ],
        "token_infos": [
            {
                "address": "0xeeeeeeeeeeeeeeeeeeeeeeeeeeeeeeeeeeeeeeee",
                "decimals": 18
            },
            {
                "address": "0xc02aaa39b223fe8d0a0e5c4f27ead9083c756cc2",
                "decimals": 18
            }
        ]
    },
    "address_label": {
        "labels": [
            {
                "address": "0x0000000000000000000000000000000000000003",
                "label": "Precompiled"
            },
            {
                "address": "0x0000000000000000000000000000000000000004",
                "label": "Precompiled"
            },
            {
                "address": "0xeeeeeeeeeeeeeeeeeeeeeeeeeeeeeeeeeeeeeeee",
                "label": "Ether"
            },
            {
                "address": "0x10daa9f4c0f985430fde4959adb2c791ef2ccf83",
                "label": "0x10daa9f4c0f985430fde4959adb2c791ef2ccf83"
            },
            {
                "address": "0x0000000000000000000000000000000000000001",
                "label": "Precompiled"
            },
            {
                "address": "0x0000000000000000000000000000000000000002",
                "label": "Precompiled"
            }
        ]
    },
    "trace": {
        "accountLabels": null,
        "dataMap": {
            "-1": {
                "invocation": {
                    "address": "0x5be34c3f6f2cfd65fa46c7414105057254aef2d8",
                    "callData": "",
                    "decodedMethod": null,
                    "errorInfo": "",
                    "fromAddress": "",
                    "gasUsed": 0,
                    "id": -1,
                    "methodDecoded": false,
                    "operation": "",
                    "output": "",
                    "revert": false,
                    "revertMessage": "",
                    "selector": "",
                    "status": false,
                    "value": ""
                },
                "nodeType": 0
            },
            "0": {
                "invocation": {
                    "address": "0x10daa9f4c0f985430fde4959adb2c791ef2ccf83",
                    "callData": "0x0000000000000000000000005be34c3f6f2cfd65fa46c7414105057254aef2d8000000000000000000000000fbfc24e266389512b43f7f18219d285d68bf01080000000000000000000000000000000000000000000000000000000000002714000000000000000000000000000000000000000000000000000000000000000100000000000000000000000000000000000000000000000000000000000000a00000000000000000000000000000000000000000000000000000000000000000",
                    "decodedMethod": {
                        "callParams": [
                            {
                                "name": "_from",
                                "type": "address",
                                "value": "0x5be34c3f6f2cfd65fa46c7414105057254aef2d8"
                            },
                            {
                                "name": "_to",
                                "type": "address",
                                "value": "0xfbfc24e266389512b43f7f18219d285d68bf0108"
                            },
                            {
                                "name": "_id",
                                "type": "uint256",
                                "value": "10,004"
                            },
                            {
                                "name": "_value",
                                "type": "uint256",
                                "value": "1"
                            },
                            {
                                "name": "_data",
                                "type": "bytes",
                                "value": "0x"
                            }
                        ],
                        "constructorArguments": "",
                        "name": "safeTransferFrom",
                        "returnParams": [],
                        "signature": "safeTransferFrom(address,address,uint256,uint256,bytes)"
                    },
                    "errorInfo": "",
                    "fromAddress": "0x5be34c3f6f2cfd65fa46c7414105057254aef2d8",
                    "gasUsed": 52085,
                    "id": 0,
                    "methodDecoded": true,
                    "operation": "CALL",
                    "output": "",
                    "revert": false,
                    "revertMessage": "",
                    "selector": "0xf242432a",
                    "status": true,
                    "value": "0"
                },
                "nodeType": 0
            },
            "1": {
                "event": {
                    "contract": "0x10daa9f4c0f985430fde4959adb2c791ef2ccf83",
                    "decodedLog": {
                        "name": "TransferSingle",
                        "params": [
                            {
                                "name": "_operator",
                                "type": "address",
                                "value": "0x5be34c3f6f2cfd65fa46c7414105057254aef2d8"
                            },
                            {
                                "name": "_from",
                                "type": "address",
                                "value": "0x5be34c3f6f2cfd65fa46c7414105057254aef2d8"
                            },
                            {
                                "name": "_to",
                                "type": "address",
                                "value": "0xfbfc24e266389512b43f7f18219d285d68bf0108"
                            },
                            {
                                "name": "_id",
                                "type": "uint256",
                                "value": "10,004"
                            },
                            {
                                "name": "_value",
                                "type": "uint256",
                                "value": "1"
                            }
                        ],
                        "signature": "TransferSingle(address,address,address,uint256,uint256)"
                    },
                    "id": 1,
                    "logData": "0x00000000000000000000000000000000000000000000000000000000000027140000000000000000000000000000000000000000000000000000000000000001",
                    "logDecoded": true,
                    "operation": "EVENT",
                    "revert": false,
                    "status": true,
                    "topics": [
                        "0xc3d58168c5ae7397731d063d5bbf3d657854427343f4c083240f7aacaa2d0f62",
                        "0x0000000000000000000000005be34c3f6f2cfd65fa46c7414105057254aef2d8",
                        "0x0000000000000000000000005be34c3f6f2cfd65fa46c7414105057254aef2d8",
                        "0x000000000000000000000000fbfc24e266389512b43f7f18219d285d68bf0108"
                    ]
                },
                "nodeType": 1
            }
        },
        "gasFlame": [
            {
                "children": [
                    {
                        "children": [
                            {
                                "children": [],
                                "depth": 0,
                                "name": "Initial Gas",
                                "value": 22360
                            },
                            {
                                "children": [],
                                "depth": 0,
                                "name": "Executed Gas",
                                "value": 34525
                            }
                        ],
                        "depth": -1,
                        "name": "Actual Gas Used",
                        "value": 52085
                    },
                    {
                        "children": [],
                        "depth": -1,
                        "name": "Refunded Gas",
                        "value": 4800
                    }
                ],
                "depth": -2,
                "name": "Total Gas",
                "value": 56885
            }
        ],
        "isConfirmed": true,
        "mainTrace": [
            {
                "children": [
                    {
                        "children": [
                            {
                                "children": [],
                                "depth": 1,
                                "id": 1,
                                "order": 1
                            }
                        ],
                        "depth": 0,
                        "id": 0,
                        "order": 0
                    }
                ],
                "depth": -1,
                "id": -1,
                "order": -1
            }
        ],
        "mainTraceNodeCount": 2,
        "parentIdMap": {
            "0": -1,
            "1": 0
        },
        "tidyTrace": [
            {
                "children": [
                    {
                        "children": [
                            {
                                "children": [],
                                "depth": 1,
                                "id": 1,
                                "order": 1
                            }
                        ],
                        "depth": 0,
                        "id": 0,
                        "order": 0
                    }
                ],
                "depth": -1,
                "id": -1,
                "order": -1
            }
        ],
        "tidyTraceNodeCount": 2
    },
    "state_change": {
        "stateChanges": [
            {
                "address": "0x10daa9f4c0f985430fde4959adb2c791ef2ccf83",
                "erc": "ERC-1155",
                "slots": [
                    {
                        "current": "0x0000000000000000000000000000000000000000000000000000000000000000",
                        "key": "0x72cc16c3cf053e75c56ed04579f4d04a30e5ee36c5ca1264d47dd2d5ef145ab1",
                        "prev": "0x0000000000000000000000000000000000000000000000000000000000000001"
                    },
                    {
                        "current": "0x0000000000000000000000000000000000000000000000000000000000000001",
                        "key": "0x6224af87e776922c2379b64f7e35250cfd033df8a04253696040867eac99be4b",
                        "prev": "0x0000000000000000000000000000000000000000000000000000000000000000"
                    }
                ],
                "storageVariables": [
                    {
                        "name": "balances",
                        "type": "mapping(uint256 => mapping(address => uint256))",
                        "value": {
                            "pairs": [
                                {
                                    "key": "10004",
                                    "value": {
                                        "pairs": [
                                            {
                                                "key": "0x5be34c3f6f2cfd65fa46c7414105057254aef2d8",
                                                "value": {
                                                    "current": "0",
                                                    "prev": "1",
                                                    "typeTag": 1
                                                }
                                            },
                                            {
                                                "key": "0xfbfc24e266389512b43f7f18219d285d68bf0108",
                                                "value": {
                                                    "current": "1",
                                                    "prev": "0",
                                                    "typeTag": 1
                                                }
                                            }
                                        ],
                                        "typeTag": 4
                                    }
                                }
                            ],
                            "typeTag": 4
                        }
                    }
                ]
            }
        ]
    }
}