{
    "balance_change": {
        "balanceChanges": [
            {
                "account": "0x0000000000000000000000000000000000000000",
                "assets": [
                    {
                        "address": "0x624899c5d13e21e339c273adb02575fd6f9ad254",
                        "amount": "1",
                        "iconUrl": "",
                        "isERC1155": false,
                        "isERC721": true,
                        "sign": false,
                        "tokenID": "801",
                        "value": ""
                    }
                ]
            },
            {
                "account": "0xe7306e7e2f57bdc52ee45026a394e8db50ed76f7",
                "assets": [
                    {
                        "address": "0x624899c5d13e21e339c273adb02575fd6f9ad254",
                        "amount": "1",
                        "iconUrl": "",
                        "isERC1155": false,
                        "isERC721": true,
                        "sign": true,
                        "tokenID": "801",
                        "value": ""
                    }
                ]
            }
        ]
    },
    "profile": {
        "basic_info": {
            "baseFee": "10.599104286",
            "blockNumber": 18390577,
            "callData": "0x926427440000000000000000000000000000000000000000000000000000000000000010",
            "debugEnable": true,
            "errorInfo": "",
            "eventCount": 2,
            "feeRecipient": "0x95222290dd7278aa3ddd389cc1e1d165cc4bafe5",
            "formatValue": "0",
            "gasLimit": 540331,
            "gasPrice": "10.672604286",
            "gasUsed": 360221,
            "intTxnCount": 1,
            "internalRevert": false,
            "internalRevertMessage": "",
            "isContractCreation": false,
            "isFlashloan": false,
            "maxFee": "13.96",
            "nonce": 0,
            "overwritedBlockNumber": -1,
            "priorityFee": "0.0735",
            "receiver": "0x624899c5d13e21e339c273adb02575fd6f9ad254",
            "revertMessage": "",
            "sender": "0xe7306e7e2f57bdc52ee45026a394e8db50ed76f7",
            "simulationEnable": true,
            "sourceTxnHash": "0xb47c1e743d72d614c8a4cac63e22940fc9163ae5bad30cae7eff4591c1626057",
            "status": true,
            "timestamp": "2023-10-20T09:15:11Z",
            "transactionFee": "0.003844496188507206",
            "txnHash": "0xb47c1e743d72d614c8a4cac63e22940fc9163ae5bad30cae7eff4591c1626057",
            "txnIndex": 131,
            "type": 2,
            "value": "0"
        },
        "fund_flow": [
            {
                "amount": "1",
                "from": "0x0000000000000000000000000000000000000000",
                "id": 1,
                "isERC1155": false,
                "isERC721": true,
                "isReverted": false,
                "order": 1,
                "to": "0xe7306e7e2f57bdc52ee45026a394e8db50ed76f7",
                "token": "0x624899c5d13e21e339c273adb02575fd6f9ad254",
                "tokenID": "801"
            }
        ],
        "token_infos": [
            {
                "address": "0xc02aaa39b223fe8d0a0e5c4f27ead9083c756cc2",
                "decimals": 18
            },
            {
                "address": "0xeeeeeeeeeeeeeeeeeeeeeeeeeeeeeeeeeeeeeeee",
                "decimals": 18
            }
        ]
    },
    "address_label": {
        "labels": [
            {
                "address": "0xeeeeeeeeeeeeeeeeeeeeeeeeeeeeeeeeeeeeeeee",
                "label": "Ether"
            },
            {
                "address": "0xeff2e308590a593d0a5402c62f5a2d7a586f7810",
                "label": "Cat Nation (CAT)"
            },
            {
                "address": "0x0000000000000000000000000000000000000001",
                "label": "Precompiled"
            },
            {
                "address": "0x0000000000000000000000000000000000000002",
                "label": "Precompiled"
            },
            {
                "address": "0x0000000000000000000000000000000000000003",
                "label": "Precompiled"
            },
            {
                "address": "0x0000000000000000000000000000000000000004",
                "label": "Precompiled"
            }
        ]
    },
    "trace": {
        "accountLabels": null,
        "dataMap": {
            "-1": {
                "invocation": {
                    "address": "0xe7306e7e2f57bdc52ee45026a394e8db50ed76f7",
                    "callData": "",
                    "decodedMethod": null,
                    "errorInfo": "",
                    "fromAddress": "",
                    "gasUsed": 0,
                    "id": -1,
                    "methodDecoded": false,
                    "operation": "",
                    "output": "",
                    "revert": false,
                    "revertMessage": "",
                    "selector": "",
                    "status": false,
                    "value": ""
                },
                "nodeType": 0
            },
            "0": {
                "invocation": {
                    "address": "0x624899c5d13e21e339c273adb02575fd6f9ad254",
                    "callData": "0x0000000000000000000000000000000000000000000000000000000000000010",
                    "decodedMethod": {
                        "callParams": [
                            {
                                "name": "numberOfNfts",
                                "type": "uint256",
                                "value": "16"
                            }
                        ],
                        "constructorArguments": "",
                        "name": "mintNFT",
                        "returnParams": [],
                        "signature": "mintNFT(uint256)"
                    },
                    "errorInfo": "",
                    "fromAddress": "0xe7306e7e2f57bdc52ee45026a394e8db50ed76f7",
                    "gasUsed": 360221,
                    "id": 0,
                    "methodDecoded": true,
                    "operation": "CALL",
                    "output": "0x0000000000000000000000000000000000000000000000000000000000000321",
                    "revert": false,
                    "revertMessage": "",
                    "selector": "0x92642744",
                    "status": true,
                    "value": "0"
                },
                "nodeType": 0
            },
            "1": {
                "invocation": {
                    "address": "0xeff2e308590a593d0a5402c62f5a2d7a586f7810",
                    "callData": "0x000000000000000000000000e7306e7e2f57bdc52ee45026a394e8db50ed76f7",
                    "decodedMethod": {
                        "callParams": [
                            {
                                "name": "account",
                                "type": "address",
                                "value": "0xe7306e7e2f57bdc52ee45026a394e8db50ed76f7"
                            }
                        ],
                        "constructorArguments": "",
                        "name": "balanceOf",
                        "returnParams": [
                            {
                                "decimalAvailable": true,
                                "name": "",
                                "type": "uint256",
                                "value": "0"
                            }
                        ],
                        "signature": "balanceOf(address)"
                    },
                    "errorInfo": "",
                    "fromAddress": "0x624899c5d13e21e339c273adb02575fd6f9ad254",
                    "gasUsed": 2697,
                    "id": 1,
                    "methodDecoded": true,
                    "operation": "STATICCALL",
                    "output": "0x0000000000000000000000000000000000000000000000000000000000000000",
                    "revert": false,
                    "revertMessage": "",
                    "selector": "0x70a08231",
                    "status": true,
                    "value": "0"
                },
                "nodeType": 0
            },
            "2": {
                "event": {
                    "contract": "0x624899c5d13e21e339c273adb02575fd6f9ad254",
                    "decodedLog": {
                        "name": "Transfer",
                        "params": [
                            {
                                "name": "from",
                                "type": "address",
                                "value": "0x0000000000000000000000000000000000000000"
                            },
                            {
                                "name": "to",
                                "type": "address",
                                "value": "0xe7306e7e2f57bdc52ee45026a394e8db50ed76f7"
                            },
                            {
                                "decimalAvailable": true,
                                "name": "tokenId",
                                "type": "uint256",
                                "value": "801"
                            }
                        ],
                        "signature": "Transfer(address,address,uint256)"
                    },
                    "id": 2,
                    "logData": "0x",
                    "logDecoded": true,
                    "operation": "EVENT",
                    "revert": false,
                    "status": true,
                    "topics": [
                        "0xddf252ad1be2c89b69c2b068fc378daa952ba7f163c4a11628f55a4df523b3ef",
                        "0x0000000000000000000000000000000000000000000000000000000000000000",
                        "0x000000000000000000000000e7306e7e2f57bdc52ee45026a394e8db50ed76f7",
                        "0x0000000000000000000000000000000000000000000000000000000000000321"
                    ]
                },
                "nodeType": 1
            },
            "3": {
                "event": {
                    "contract": "0x624899c5d13e21e339c273adb02575fd6f9ad254",
                    "decodedLog": {
                        "name": "Bind",
                        "params": [
                            {
                                "name": "_user",
                                "type": "address",
                                "value": "0xe7306e7e2f57bdc52ee45026a394e8db50ed76f7"
                            },
                            {
                                "name": "_parent",
                                "type": "address",
                                "value": "0x94a18a736fca3e6184ccf2382b36608fcf564ccb"
                            },
                            {
                                "name": "time",
                                "type": "uint256",
                                "value": "16"
                            }
                        ],
                        "signature": "Bind(address,address,uint256)"
                    },
                    "id": 3,
                    "logData": "0x000000000000000000000000e7306e7e2f57bdc52ee45026a394e8db50ed76f700000000000000000000000094a18a736fca3e6184ccf2382b36608fcf564ccb0000000000000000000000000000000000000000000000000000000000000010",
                    "logDecoded": true,
                    "operation": "EVENT",
                    "revert": false,
                    "status": true,
                    "topics": [
                        "0x134e488c9ec34adcb877a470e73f71dd0073b0ec5910a13a4da0b02d0aec3c7b"
                    ]
                },
                "nodeType": 1
            }
        },
        "gasFlame": [
            {
                "children": [
                    {
                        "children": [
                            {
                                "children": [],
                                "depth": 0,
                                "name": "Initial Gas",
                                "value": 21204
                            },
                            {
                                "children": [
                                    {
                                        "children": [],
                                        "depth": 1,
                                        "name": "balanceOf",
                                        "value": 2697
                                    }
                                ],
                                "depth": 0,
                                "name": "Executed Gas",
                                "value": 339017
                            }
                        ],
                        "depth": -1,
                        "name": "Actual Gas Used",
                        "value": 360221
                    },
                    {
                        "children": [],
                        "depth": -1,
                        "name": "Refunded Gas",
                        "value": 0
                    }
                ],
                "depth": -2,
                "name": "Total Gas",
                "value": 360221
            }
        ],
        "isConfirmed": true,
        "mainTrace": [
            {
                "children": [
                    {
                        "children": [
                            {
                                "children": [],
                                "depth": 1,
                                "id": 1,
                                "order": 1
                            },
                            {
                                "children": [],
                                "depth": 1,
                                "id": 2,
                                "order": 2
                            },
                            {
                                "children": [],
                                "depth": 1,
                                "id": 3,
                                "order": 3
                            }
                        ],
                        "depth": 0,
                        "id": 0,
                        "order": 0
                    }
                ],
                "depth": -1,
                "id": -1,
                "order": -1
            }
        ],
        "mainTraceNodeCount": 4,
        "parentIdMap": {
            "0": -1,
            "1": 0,
            "2": 0,
            "3": 0
        },
        "tidyTrace": [
            {
                "children": [
                    {
                        "children": [
                            {
                                "children": [],
                                "depth": 1,
                                "id": 2,
                                "order": 2
                            },
                            {
                                "children": [],
                                "depth": 1,
                                "id": 3,
                                "order": 3
                            }
                        ],
                        "depth": 0,
                        "id": 0,
                        "order": 0
                    }
                ],
                "depth": -1,
                "id": -1,
                "order": -1
            }
        ],
        "tidyTraceNodeCount": 3
    },
    "state_change": {
        "stateChanges": [
            {
                "address": "0x624899c5d13e21e339c273adb02575fd6f9ad254",
                "erc": "",
                "slots": [
                    {
                        "current": "0x000000000000000000000000e7306e7e2f57bdc52ee45026a394e8db50ed76f7",
                        "key": "0x405787fa12a823e0f2b7631cc41b3ba8828b3321ca811111fa75cd3aa3bb610f",
                        "prev": "0x0000000000000000000000000000000000000000000000000000000000000000"
                    },
                    {
                        "current": "0x0000000000000000000000000000000000000000000000000000000000000321",
                        "key": "0xb09257c5296e3a913af800aabc2e91135ef3913a8395c9ddb6b49da05cf73310",
                        "prev": "0x0000000000000000000000000000000000000000000000000000000000000000"
                    },
                    {
                        "current": "0x0000000000000000000000000000000000000000000000000000000000000321",
                        "key": "0x0000000000000000000000000000000000000000000000000000000000000002",
                        "prev": "0x0000000000000000000000000000000000000000000000000000000000000320"
                    },
                    {
                        "current": "0x0000000000000000000000000000000000000000000000000000000000000007",
                        "key": "0x6cbf22d77f2e80db5acaecf51d043f709731cc79c01e922af93c619ee386ce6d",
                        "prev": "0x0000000000000000000000000000000000000000000000000000000000000006"
                    },
                    {
                        "current": "0x0000000000000000000000000000000000000000000000000000000000000321",
                        "key": "0xf26c93c3641bd0b6d6ca945c16bdf95b946c0a3e2c77f4b6299535c5b955eba0",
                        "prev": "0x0000000000000000000000000000000000000000000000000000000000000000"
                    },
                    {
                        "current": "0x000000000000000000000000000000000000000000000000000000006532451f",
                        "key": "0xf26c93c3641bd0b6d6ca945c16bdf95b946c0a3e2c77f4b6299535c5b955eba1",
                        "prev": "0x0000000000000000000000000000000000000000000000000000000000000000"
                    },
                    {
                        "current": "0x0000000000000000000000000000000000000000000000000000000000000001",
                        "key": "0x0eedc53c043e3cef322c4b91a8b670bba31654654fca789df37f4207b0b70321",
                        "prev": "0x0000000000000000000000000000000000000000000000000000000000000000"
                    },
                    {
                        "current": "0x0000000000000000000000000000000000000000000000000000000000000321",
                        "key": "0x67dcaacf87b01945cee32ff1d8d34fd33a512c117b13540f868bb42c66ec02a1",
                        "prev": "0x0000000000000000000000000000000000000000000000000000000000000000"
                    },
                    {
                        "current": "0x00000000000000000000000094a18a736fca3e6184ccf2382b36608fcf564ccb",
                        "key": "0xb09257c5296e3a913af800aabc2e91135ef3913a8395c9ddb6b49da05cf73311",
                        "prev": "0x0000000000000000000000000000000000000000000000000000000000000000"
                    },
                    {
                        "current": "0x0000000000000000000000000000000000000000000000000000000000000321",
                        "key": "0xd67158fe773e1244de36975e954eb0dc53900f6ac31174b6566b801ed912843a",
                        "prev": "0x0000000000000000000000000000000000000000000000000000000000000000"
                    },
                    {
                        "current": "0x0000000000000000000000000000000000000000000000000000000000000001",
                        "key": "0x3b4dfd1b515173774b15f55d1c3be31c48d59c4946859a35242ce17863bc78f1",
                        "prev": "0x0000000000000000000000000000000000000000000000000000000000000000"
                    },
                    {
                        "current": "0x000000000000000000000000000000000000000000000000000000000000007c",
                        "key": "0x7d5f56cb3bb128aa10ae2b52e5a0ec9c79fed186097f41cd4140fa0afb0ed31a",
                        "prev": "0x000000000000000000000000000000000000000000000000000000000000007b"
                    },
                    {
                        "current": "0x0000000000000000000000000000000000000000000000000000000000000321",
                        "key": "0x0000000000000000000000000000000000000000000000000000000000000012",
                        "prev": "0x0000000000000000000000000000000000000000000000000000000000000320"
                    },
                    {
                        "current": "0x0000000000000000000000000000000000000000000000000000000000000321",
                        "key": "0x405787fa12a823e0f2b7631cc41b3ba8828b3321ca811111fa75cd3aa3bb610e",
                        "prev": "0x0000000000000000000000000000000000000000000000000000000000000000"
                    },
                    {
                        "current": "0x000000000000000000000000e7306e7e2f57bdc52ee45026a394e8db50ed76f7",
                        "key": "0xf26c93c3641bd0b6d6ca945c16bdf95b946c0a3e2c77f4b6299535c5b955eb9f",
                        "prev": "0x0000000000000000000000000000000000000000000000000000000000000000"
                    },
                    {
                        "current": "0x0000000000000000000000000000000000000000000000000000000000000010",
                        "key": "0xb09257c5296e3a913af800aabc2e91135ef3913a8395c9ddb6b49da05cf73312",
                        "prev": "0x0000000000000000000000000000000000000000000000000000000000000000"
                    },
                    {
                        "current": "0x0000000000000000000000000000000000000000000000000000000000000001",
                        "key": "0xb063455b05a766a971e4af91f3a9fd534d8809ec8221edda7e4a95063d37cd86",
                        "prev": "0x0000000000000000000000000000000000000000000000000000000000000000"
                    }
                ],
                "storageVariables": []
            }
        ]
    }
}