{
    "balance_change": {
        "balanceChanges": [
            {
                "account": "0x2268b500595aa061821673005d5487d5c2ec0471",
                "assets": [
                    {
                        "address": "0x3819f64f282bf135d62168c1e513280daf905e06",
                        "amount": "16,183,662.400192056",
                        "iconUrl": "",
                        "isERC1155": false,
                        "isERC721": false,
                        "sign": true,
                        "value": "20.66503113"
                    }
                ]
            },
            {
                "account": "0x0000000000000000000000000000000000000000",
                "assets": [
                    {
                        "address": "0x3819f64f282bf135d62168c1e513280daf905e06",
                        "amount": "30,896,082.764003016",
                        "iconUrl": "",
                        "isERC1155": false,
                        "isERC721": false,
                        "sign": false,
                        "value": "39.4803522"
                    }
                ]
            },
            {
                "account": "0x9d73ced2e36c89e5d167151809eee218a189f801",
                "assets": [
                    {
                        "address": "0x3819f64f282bf135d62168c1e513280daf905e06",
                        "amount": "14,712,420.36381096",
                        "iconUrl": "",
                        "isERC1155": false,
                        "isERC721": false,
                        "sign": true,
                        "value": "18.7919513"
                    }
                ]
            }
        ]
    },
    "profile": {
        "basic_info": {
            "baseFee": "10.211452012",
            "blockNumber": 16239868,
            "callData": "0xf812b9a4000000000000000000000000000000000000000000000000000000000000008d000000000000000000000000000000000000000000000000000000000004c575",
            "debugEnable": true,
            "errorInfo": "",
            "eventCount": 3,
            "feeRecipient": "0xba401cdac1a3b6aeede21c9c4a483be6c29f88c5",
            "formatValue": "0",
            "gasLimit": 75023,
            "gasPrice": "11.711452012",
            "gasUsed": 75023,
            "intTxnCount": 1,
            "internalRevert": false,
            "internalRevertMessage": "",
            "isContractCreation": false,
            "isFlashloan": false,
            "maxFee": "14.747904016",
            "nonce": 896,
            "overwritedBlockNumber": -1,
            "priorityFee": "1.5",
            "receiver": "0x3819f64f282bf135d62168c1e513280daf905e06",
            "revertMessage": "",
            "sender": "0x2268b500595aa061821673005d5487d5c2ec0471",
            "simulationEnable": true,
            "sourceTxnHash": "0xb4ded9d950b5c5dc2500c55158734f846256eb91f201f82244b6286dc509dc1e",
            "status": true,
            "timestamp": "2022-12-22T11:12:47Z",
            "transactionFee": "0.000878628264296276",
            "txnHash": "0xb4ded9d950b5c5dc2500c55158734f846256eb91f201f82244b6286dc509dc1e",
            "txnIndex": 92,
            "type": 2,
            "value": "0"
        },
        "fund_flow": [
            {
                "amount": "14,712,420.36381096",
                "from": "0x0000000000000000000000000000000000000000",
                "id": 1,
                "isERC1155": false,
                "isERC721": false,
                "isReverted": false,
                "order": 1,
                "to": "0x9d73ced2e36c89e5d167151809eee218a189f801",
                "token": "0x3819f64f282bf135d62168c1e513280daf905e06"
            },
            {
                "amount": "16,183,662.400192056",
                "from": "0x0000000000000000000000000000000000000000",
                "id": 2,
                "isERC1155": false,
                "isERC721": false,
                "isReverted": false,
                "order": 2,
                "to": "0x2268b500595aa061821673005d5487d5c2ec0471",
                "token": "0x3819f64f282bf135d62168c1e513280daf905e06"
            }
        ],
        "token_infos": [
            {
                "address": "0x3819f64f282bf135d62168c1e513280daf905e06",
                "decimals": 9
            },
            {
                "address": "0xc02aaa39b223fe8d0a0e5c4f27ead9083c756cc2",
                "decimals": 18
            },
            {
                "address": "0xeeeeeeeeeeeeeeeeeeeeeeeeeeeeeeeeeeeeeeee",
                "decimals": 18
            }
        ]
    },
    "address_label": {
        "labels": [
            {
                "address": "0xeeeeeeeeeeeeeeeeeeeeeeeeeeeeeeeeeeeeeeee",
                "label": "Ether"
            },
            {
                "address": "0x2b591e99afe9f32eaa6214f7b7629768c40eeb39",
                "label": "HEX.com: HEX Token"
            },
            {
                "address": "0x3819f64f282bf135d62168c1e513280daf905e06",
                "label": "Hedron: HDRN Token"
            },
            {
                "address": "0x0000000000000000000000000000000000000001",
                "label": "Precompiled"
            },
            {
                "address": "0x0000000000000000000000000000000000000002",
                "label": "Precompiled"
            },
            {
                "address": "0x0000000000000000000000000000000000000003",
                "label": "Precompiled"
            },
            {
                "address": "0x0000000000000000000000000000000000000004",
                "label": "Precompiled"
            }
        ]
    },
    "trace": {
        "accountLabels": null,
        "dataMap": {
            "-1": {
                "invocation": {
                    "address": "0x2268b500595aa061821673005d5487d5c2ec0471",
                    "callData": "",
                    "decodedMethod": null,
                    "errorInfo": "",
                    "fromAddress": "",
                    "gasUsed": 0,
                    "id": -1,
                    "methodDecoded": false,
                    "operation": "",
                    "output": "",
                    "revert": false,
                    "revertMessage": "",
                    "selector": "",
                    "status": false,
                    "value": ""
                },
                "nodeType": 0
            },
            "0": {
                "invocation": {
                    "address": "0x3819f64f282bf135d62168c1e513280daf905e06",
                    "callData": "0x000000000000000000000000000000000000000000000000000000000000008d000000000000000000000000000000000000000000000000000000000004c575",
                    "decodedMethod": {
                        "callParams": [
                            {
                                "name": "stakeIndex",
                                "type": "uint256",
                                "value": "141"
                            },
                            {
                                "name": "stakeId",
                                "type": "uint40",
                                "value": "312,693"
                            }
                        ],
                        "constructorArguments": "",
                        "name": "mintNative",
                        "returnParams": [
                            {
                                "name": "",
                                "type": "uint256",
                                "value": "16,183,662,400,192,056"
                            }
                        ],
                        "signature": "mintNative(uint256,uint40)"
                    },
                    "errorInfo": "",
                    "fromAddress": "0x2268b500595aa061821673005d5487d5c2ec0471",
                    "gasUsed": 75023,
                    "id": 0,
                    "methodDecoded": true,
                    "operation": "CALL",
                    "output": "0x00000000000000000000000000000000000000000000000000397ef488873e38",
                    "revert": false,
                    "revertMessage": "",
                    "selector": "0xf812b9a4",
                    "status": true,
                    "value": "0"
                },
                "nodeType": 0
            },
            "1": {
                "invocation": {
                    "address": "0x2b591e99afe9f32eaa6214f7b7629768c40eeb39",
                    "callData": "0x0000000000000000000000002268b500595aa061821673005d5487d5c2ec0471000000000000000000000000000000000000000000000000000000000000008d",
                    "decodedMethod": {
                        "callParams": [
                            {
                                "name": "",
                                "type": "address",
                                "value": "0x2268b500595aa061821673005d5487d5c2ec0471"
                            },
                            {
                                "name": "",
                                "type": "uint256",
                                "value": "141"
                            }
                        ],
                        "constructorArguments": "",
                        "name": "stakeLists",
                        "returnParams": [
                            {
                                "name": "stakeId",
                                "type": "uint40",
                                "value": "312,693"
                            },
                            {
                                "name": "stakedHearts",
                                "type": "uint72",
                                "value": "10,000,000,000,000"
                            },
                            {
                                "name": "stakeShares",
                                "type": "uint72",
                                "value": "12,363,378,456,984"
                            },
                            {
                                "name": "lockedDay",
                                "type": "uint16",
                                "value": "397"
                            },
                            {
                                "name": "stakedDays",
                                "type": "uint16",
                                "value": "1,915"
                            },
                            {
                                "name": "unlockedDay",
                                "type": "uint16",
                                "value": "0"
                            },
                            {
                                "name": "isAutoStake",
                                "type": "bool",
                                "value": false
                            }
                        ],
                        "signature": "stakeLists(address,uint256)"
                    },
                    "errorInfo": "",
                    "fromAddress": "0x3819f64f282bf135d62168c1e513280daf905e06",
                    "gasUsed": 5020,
                    "id": 1,
                    "methodDecoded": true,
                    "operation": "STATICCALL",
                    "output": "0x000000000000000000000000000000000000000000000000000000000004c575000000000000000000000000000000000000000000000000000009184e72a00000000000000000000000000000000000000000000000000000000b3e92c7f998000000000000000000000000000000000000000000000000000000000000018d000000000000000000000000000000000000000000000000000000000000077b00000000000000000000000000000000000000000000000000000000000000000000000000000000000000000000000000000000000000000000000000000000",
                    "revert": false,
                    "revertMessage": "",
                    "selector": "0x2607443b",
                    "status": true,
                    "value": "0"
                },
                "nodeType": 0
            },
            "2": {
                "event": {
                    "contract": "0x3819f64f282bf135d62168c1e513280daf905e06",
                    "decodedLog": {
                        "name": "Transfer",
                        "params": [
                            {
                                "name": "from",
                                "type": "address",
                                "value": "0x0000000000000000000000000000000000000000"
                            },
                            {
                                "name": "to",
                                "type": "address",
                                "value": "0x9d73ced2e36c89e5d167151809eee218a189f801"
                            },
                            {
                                "decimalAvailable": true,
                                "name": "value",
                                "type": "uint256",
                                "value": "14,712,420,363,810,960"
                            }
                        ],
                        "signature": "Transfer(address,address,uint256)"
                    },
                    "id": 2,
                    "logData": "0x000000000000000000000000000000000000000000000000003444de4d923890",
                    "logDecoded": true,
                    "operation": "EVENT",
                    "revert": false,
                    "status": true,
                    "topics": [
                        "0xddf252ad1be2c89b69c2b068fc378daa952ba7f163c4a11628f55a4df523b3ef",
                        "0x0000000000000000000000000000000000000000000000000000000000000000",
                        "0x0000000000000000000000009d73ced2e36c89e5d167151809eee218a189f801"
                    ]
                },
                "nodeType": 1
            },
            "3": {
                "event": {
                    "contract": "0x3819f64f282bf135d62168c1e513280daf905e06",
                    "decodedLog": {
                        "name": "Transfer",
                        "params": [
                            {
                                "name": "from",
                                "type": "address",
                                "value": "0x0000000000000000000000000000000000000000"
                            },
                            {
                                "name": "to",
                                "type": "address",
                                "value": "0x2268b500595aa061821673005d5487d5c2ec0471"
                            },
                            {
                                "decimalAvailable": true,
                                "name": "value",
                                "type": "uint256",
                                "value": "16,183,662,400,192,056"
                            }
                        ],
                        "signature": "Transfer(address,address,uint256)"
                    },
                    "id": 3,
                    "logData": "0x00000000000000000000000000000000000000000000000000397ef488873e38",
                    "logDecoded": true,
                    "operation": "EVENT",
                    "revert": false,
                    "status": true,
                    "topics": [
                        "0xddf252ad1be2c89b69c2b068fc378daa952ba7f163c4a11628f55a4df523b3ef",
                        "0x0000000000000000000000000000000000000000000000000000000000000000",
                        "0x0000000000000000000000002268b500595aa061821673005d5487d5c2ec0471"
                    ]
                },
                "nodeType": 1
            },
            "4": {
                "event": {
                    "contract": "0x3819f64f282bf135d62168c1e513280daf905e06",
                    "decodedLog": {
                        "name": "Mint",
                        "params": [
                            {
                                "name": "minter",
                                "type": "address",
                                "value": "0x2268b500595aa061821673005d5487d5c2ec0471"
                            },
                            {
                                "name": "stakeId",
                                "type": "uint40",
                                "value": "312,693"
                            },
                            {
                                "name": "data",
                                "type": "uint256",
                                "value": "1,409,795,826,428,607,740,688,568,196,488,768,494,825,439,514,036,873,214,895"
                            }
                        ],
                        "signature": "Mint(uint256,address,uint40)"
                    },
                    "id": 4,
                    "logData": "0x0000000000000000397ef488873e386402ce0000000b3e92c7f9980063a43baf",
                    "logDecoded": true,
                    "operation": "EVENT",
                    "revert": false,
                    "status": true,
                    "topics": [
                        "0xce84afc26010d49051ae429b96ad50c0ef3a958a5c5bdc44c80e090dee642dbe",
                        "0x0000000000000000000000002268b500595aa061821673005d5487d5c2ec0471",
                        "0x000000000000000000000000000000000000000000000000000000000004c575"
                    ]
                },
                "nodeType": 1
            }
        },
        "gasFlame": [
            {
                "children": [
                    {
                        "children": [
                            {
                                "children": [],
                                "depth": 0,
                                "name": "Initial Gas",
                                "value": 21368
                            },
                            {
                                "children": [
                                    {
                                        "children": [],
                                        "depth": 1,
                                        "name": "stakeLists",
                                        "value": 5020
                                    }
                                ],
                                "depth": 0,
                                "name": "Executed Gas",
                                "value": 53655
                            }
                        ],
                        "depth": -1,
                        "name": "Actual Gas Used",
                        "value": 75023
                    },
                    {
                        "children": [],
                        "depth": -1,
                        "name": "Refunded Gas",
                        "value": 0
                    }
                ],
                "depth": -2,
                "name": "Total Gas",
                "value": 75023
            }
        ],
        "isConfirmed": true,
        "mainTrace": [
            {
                "children": [
                    {
                        "children": [
                            {
                                "children": [],
                                "depth": 1,
                                "id": 1,
                                "order": 1
                            },
                            {
                                "children": [],
                                "depth": 1,
                                "id": 2,
                                "order": 2
                            },
                            {
                                "children": [],
                                "depth": 1,
                                "id": 3,
                                "order": 3
                            },
                            {
                                "children": [],
                                "depth": 1,
                                "id": 4,
                                "order": 4
                            }
                        ],
                        "depth": 0,
                        "id": 0,
                        "order": 0
                    }
                ],
                "depth": -1,
                "id": -1,
                "order": -1
            }
        ],
        "mainTraceNodeCount": 5,
        "parentIdMap": {
            "0": -1,
            "1": 0,
            "2": 0,
            "3": 0,
            "4": 0
        },
        "tidyTrace": [
            {
                "children": [
                    {
                        "children": [
                            {
                                "children": [],
                                "depth": 1,
                                "id": 2,
                                "order": 2
                            },
                            {
                                "children": [],
                                "depth": 1,
                                "id": 3,
                                "order": 3
                            },
                            {
                                "children": [],
                                "depth": 1,
                                "id": 4,
                                "order": 4
                            }
                        ],
                        "depth": 0,
                        "id": 0,
                        "order": 0
                    }
                ],
                "depth": -1,
                "id": -1,
                "order": -1
            }
        ],
        "tidyTraceNodeCount": 4
    },
    "state_change": {
        "stateChanges": [
            {
                "address": "0x3819f64f282bf135d62168c1e513280daf905e06",
                "erc": "ERC-20",
                "slots": [
                    {
                        "current": "0x000000000000000000000000000000000000000000000ab9d901cceed58b2e6f",
                        "key": "0x592c5cdddcf1d855d0e244bcec265df08c0928ba7876ff47c3430b65ad892657",
                        "prev": "0x000000000000000000000000000000000000000000000ab9d8cd881087f8f5df"
                    },
                    {
                        "current": "0x000000000000000000000000000000000000000000000000073e87833da3f6c9",
                        "key": "0xad8681d9a831653a13ae62fe7a5ed23aebf506432e9313a23278f36e4723afce",
                        "prev": "0x0000000000000000000000000000000000000000000000000705088eb51cb891"
                    },
                    {
                        "current": "0x00000000000000000000000000000000000000000000000000000000006402ce",
                        "key": "0x8d7a7a38c38aba19ab4ad8459ea2935afc93550f6801803e6f893dcea4bbcdea",
                        "prev": "0x0000000000000000000000000000000000000000000000000000000000640257"
                    },
                    {
                        "current": "0x000000020301088d10b6e73e9d520000829a6ab228b4d400a3686c0d577d162a",
                        "key": "0x484eb76b9bd1f0a0873fb11db44c2a743b38aeba2fb34d3cdb5496f1963c45fd",
                        "prev": "0x000000020301088d10b6e73e9d520000829a6ab228b4d400a2faa83a81639f62"
                    },
                    {
                        "current": "0x0000000000000000000000000000000000000000000017dfc5d550ac40295d75",
                        "key": "0x0000000000000000000000000000000000000000000000000000000000000002",
                        "prev": "0x0000000000000000000000000000000000000000000017dfc5678cd96a0fe6ad"
                    }
                ],
                "storageVariables": [
                    {
                        "name": "_balances",
                        "type": "mapping(address => uint256)",
                        "value": {
                            "pairs": [
                                {
                                    "key": "0x2268b500595aa061821673005d5487d5c2ec0471",
                                    "value": {
                                        "current": "522003604566177481",
                                        "prev": "505819942165985425",
                                        "typeTag": 1
                                    }
                                },
                                {
                                    "key": "0x9d73ced2e36c89e5d167151809eee218a189f801",
                                    "value": {
                                        "current": "50651949487040083209839",
                                        "prev": "50651934774619719398879",
                                        "typeTag": 1
                                    }
                                }
                            ],
                            "typeTag": 4
                        }
                    },
                    {
                        "name": "shareList",
                        "type": "mapping(uint256 => struct ShareStore)",
                        "value": {
                            "pairs": [
                                {
                                    "key": "312693",
                                    "value": {
                                        "fields": [
                                            {
                                                "name": "mintedDays",
                                                "type": "uint16",
                                                "value": {
                                                    "current": "718",
                                                    "prev": "599",
                                                    "typeTag": 1
                                                }
                                            },
                                            {
                                                "name": "launchBonus",
                                                "type": "uint8",
                                                "value": {
                                                    "current": "100",
                                                    "prev": "100",
                                                    "typeTag": 1
                                                }
                                            },
                                            {
                                                "name": "loanStart",
                                                "type": "uint16",
                                                "value": {
                                                    "current": "0",
                                                    "prev": "0",
                                                    "typeTag": 1
                                                }
                                            },
                                            {
                                                "name": "loanedDays",
                                                "type": "uint16",
                                                "value": {
                                                    "current": "0",
                                                    "prev": "0",
                                                    "typeTag": 1
                                                }
                                            },
                                            {
                                                "name": "interestRate",
                                                "type": "uint32",
                                                "value": {
                                                    "current": "0",
                                                    "prev": "0",
                                                    "typeTag": 1
                                                }
                                            },
                                            {
                                                "name": "paymentsMade",
                                                "type": "uint8",
                                                "value": {
                                                    "current": "0",
                                                    "prev": "0",
                                                    "typeTag": 1
                                                }
                                            },
                                            {
                                                "name": "isLoaned",
                                                "type": "bool",
                                                "value": {
                                                    "current": "false",
                                                    "prev": "false",
                                                    "typeTag": 1
                                                }
                                            }
                                        ],
                                        "typeTag": 3
                                    }
                                }
                            ],
                            "typeTag": 4
                        }
                    },
                    {
                        "name": "dailyDataList",
                        "type": "mapping(uint256 => struct Hedron.DailyDataStore)",
                        "value": {
                            "pairs": [
                                {
                                    "key": "299",
                                    "value": {
                                        "fields": [
                                            {
                                                "name": "dayMintedTotal",
                                                "type": "uint72",
                                                "value": {
                                                    "current": "11774780030318351914",
                                                    "prev": "11743883947554348898",
                                                    "typeTag": 1
                                                }
                                            },
                                            {
                                                "name": "dayLoanedTotal",
                                                "type": "uint72",
                                                "value": {
                                                    "current": "36761530018608340",
                                                    "prev": "36761530018608340",
                                                    "typeTag": 1
                                                }
                                            },
                                            {
                                                "name": "dayBurntTotal",
                                                "type": "uint72",
                                                "value": {
                                                    "current": "19062911175478910290",
                                                    "prev": "19062911175478910290",
                                                    "typeTag": 1
                                                }
                                            },
                                            {
                                                "name": "dayInterestRate",
                                                "type": "uint32",
                                                "value": {
                                                    "current": "515",
                                                    "prev": "515",
                                                    "typeTag": 1
                                                }
                                            },
                                            {
                                                "name": "dayMintMultiplier",
                                                "type": "uint8",
                                                "value": {
                                                    "current": "0",
                                                    "prev": "0",
                                                    "typeTag": 1
                                                }
                                            }
                                        ],
                                        "typeTag": 3
                                    }
                                }
                            ],
                            "typeTag": 4
                        }
                    },
                    {
                        "name": "_totalSupply",
                        "type": "uint256",
                        "value": {
                            "current": "112742308423335322148213",
                            "prev": "112742277527252558145197",
                            "typeTag": 1
                        }
                    }
                ]
            }
        ]
    }
}