{
    "balance_change": {
        "balanceChanges": []
    },
    "profile": {
        "basic_info": {
            "baseFee": "13.019438128",
            "blockNumber": 18038068,
            "callData": "0xa22cb4650000000000000000000000002f18f339620a63e43f0839eeb18d7de1e1be4dfb0000000000000000000000000000000000000000000000000000000000000001",
            "debugEnable": true,
            "errorInfo": "",
            "eventCount": 1,
            "feeRecipient": "0x9b984d5a03980d8dc0a24506c968465424c81dbe",
            "formatValue": "0",
            "gasLimit": 69016,
            "gasPrice": "13.119438128",
            "gasUsed": 68424,
            "intTxnCount": 2,
            "internalRevert": false,
            "internalRevertMessage": "",
            "isContractCreation": false,
            "isFlashloan": false,
            "maxFee": "17.423181546",
            "nonce": 3831,
            "overwritedBlockNumber": -1,
            "priorityFee": "0.1",
            "receiver": "0x37ed9fb736bf48b8bceba599938372cbd70fb378",
            "revertMessage": "",
            "sender": "0xf512e182487f3f0b891d22eadbefd9a8e98527a8",
            "simulationEnable": true,
            "sourceTxnHash": "0xb4b0032d391d1d1013a4d61c3f2518b38e3d419fe7eb02a90d6c3a887a0f5b3a",
            "status": true,
            "timestamp": "2023-09-01T00:16:23Z",
            "transactionFee": "0.000897684434470272",
            "txnHash": "0xb4b0032d391d1d1013a4d61c3f2518b38e3d419fe7eb02a90d6c3a887a0f5b3a",
            "txnIndex": 70,
            "type": 2,
            "value": "0"
        },
        "fund_flow": [],
        "token_infos": [
            {
                "address": "0xeeeeeeeeeeeeeeeeeeeeeeeeeeeeeeeeeeeeeeee",
                "decimals": 18
            },
            {
                "address": "0xc02aaa39b223fe8d0a0e5c4f27ead9083c756cc2",
                "decimals": 18
            }
        ]
    },
    "address_label": {
        "labels": [
            {
                "address": "0x000000000000aaeb6d7670e522a718067333cd4e",
                "label": "OperatorFilterRegistry"
            },
            {
                "address": "0x9b984d5a03980d8dc0a24506c968465424c81dbe",
                "label": "MultiSigWallet"
            },
            {
                "address": "0x0000000000000000000000000000000000000001",
                "label": "Precompiled"
            },
            {
                "address": "0x0000000000000000000000000000000000000003",
                "label": "Precompiled"
            },
            {
                "address": "0xeeeeeeeeeeeeeeeeeeeeeeeeeeeeeeeeeeeeeeee",
                "label": "Ether"
            },
            {
                "address": "0x37ed9fb736bf48b8bceba599938372cbd70fb378",
                "label": "Pepunks: PEPUNKS Token"
            },
            {
                "address": "0x2e23fdeff3db5ed4b52eabc11e9d09aead05823c",
                "label": "Pepunks"
            },
            {
                "address": "0x2f18f339620a63e43f0839eeb18d7de1e1be4dfb",
                "label": "Delegate"
            },
            {
                "address": "0x0000000000000000000000000000000000000002",
                "label": "Precompiled"
            },
            {
                "address": "0x0000000000000000000000000000000000000004",
                "label": "Precompiled"
            }
        ]
    },
    "trace": {
        "accountLabels": null,
        "dataMap": {
            "-1": {
                "invocation": {
                    "address": "0xf512e182487f3f0b891d22eadbefd9a8e98527a8",
                    "callData": "",
                    "decodedMethod": null,
                    "errorInfo": "",
                    "fromAddress": "",
                    "gasUsed": 0,
                    "id": -1,
                    "methodDecoded": false,
                    "operation": "",
                    "output": "",
                    "revert": false,
                    "revertMessage": "",
                    "selector": "",
                    "status": false,
                    "value": ""
                },
                "nodeType": 0
            },
            "0": {
                "invocation": {
                    "address": "0x37ed9fb736bf48b8bceba599938372cbd70fb378",
                    "callData": "0x0000000000000000000000002f18f339620a63e43f0839eeb18d7de1e1be4dfb0000000000000000000000000000000000000000000000000000000000000001",
                    "decodedMethod": {
                        "callParams": [
                            {
                                "name": "operator",
                                "type": "address",
                                "value": "0x2f18f339620a63e43f0839eeb18d7de1e1be4dfb"
                            },
                            {
                                "name": "approved",
                                "type": "bool",
                                "value": true
                            }
                        ],
                        "constructorArguments": "",
                        "name": "setApprovalForAll",
                        "returnParams": [],
                        "signature": "setApprovalForAll(address,bool)"
                    },
                    "errorInfo": "",
                    "fromAddress": "0xf512e182487f3f0b891d22eadbefd9a8e98527a8",
                    "gasUsed": 68424,
                    "id": 0,
                    "methodDecoded": true,
                    "operation": "CALL",
                    "output": "",
                    "revert": false,
                    "revertMessage": "",
                    "selector": "0xa22cb465",
                    "status": true,
                    "value": "0"
                },
                "nodeType": 0
            },
            "1": {
                "invocation": {
                    "address": "0x2e23fdeff3db5ed4b52eabc11e9d09aead05823c",
                    "callData": "0x0000000000000000000000002f18f339620a63e43f0839eeb18d7de1e1be4dfb0000000000000000000000000000000000000000000000000000000000000001",
                    "decodedMethod": {
                        "callParams": [
                            {
                                "name": "operator",
                                "type": "address",
                                "value": "0x2f18f339620a63e43f0839eeb18d7de1e1be4dfb"
                            },
                            {
                                "name": "approved",
                                "type": "bool",
                                "value": true
                            }
                        ],
                        "constructorArguments": "",
                        "name": "setApprovalForAll",
                        "returnParams": [],
                        "signature": "setApprovalForAll(address,bool)"
                    },
                    "errorInfo": "",
                    "fromAddress": "0x37ed9fb736bf48b8bceba599938372cbd70fb378",
                    "gasUsed": 39692,
                    "id": 1,
                    "methodDecoded": true,
                    "operation": "DELEGATECALL",
                    "output": "",
                    "revert": false,
                    "revertMessage": "",
                    "selector": "0xa22cb465",
                    "status": true,
                    "value": "0"
                },
                "nodeType": 0
            },
            "2": {
                "invocation": {
                    "address": "0x000000000000aaeb6d7670e522a718067333cd4e",
                    "callData": "0x00000000000000000000000037ed9fb736bf48b8bceba599938372cbd70fb3780000000000000000000000002f18f339620a63e43f0839eeb18d7de1e1be4dfb",
                    "decodedMethod": {
                        "callParams": [
                            {
                                "name": "registrant",
                                "type": "address",
                                "value": "0x37ed9fb736bf48b8bceba599938372cbd70fb378"
                            },
                            {
                                "name": "operator",
                                "type": "address",
                                "value": "0x2f18f339620a63e43f0839eeb18d7de1e1be4dfb"
                            }
                        ],
                        "constructorArguments": "",
                        "name": "isOperatorAllowed",
                        "returnParams": [
                            {
                                "name": "",
                                "type": "bool",
                                "value": true
                            }
                        ],
                        "signature": "isOperatorAllowed(address,address)"
                    },
                    "errorInfo": "",
                    "fromAddress": "0x37ed9fb736bf48b8bceba599938372cbd70fb378",
                    "gasUsed": 10127,
                    "id": 2,
                    "methodDecoded": true,
                    "operation": "STATICCALL",
                    "output": "0x0000000000000000000000000000000000000000000000000000000000000001",
                    "revert": false,
                    "revertMessage": "",
                    "selector": "0xc6171134",
                    "status": true,
                    "value": "0"
                },
                "nodeType": 0
            },
            "3": {
                "event": {
                    "contract": "0x37ed9fb736bf48b8bceba599938372cbd70fb378",
                    "decodedLog": {
                        "name": "ApprovalForAll",
                        "params": [
                            {
                                "name": "owner",
                                "type": "address",
                                "value": "0xf512e182487f3f0b891d22eadbefd9a8e98527a8"
                            },
                            {
                                "name": "operator",
                                "type": "address",
                                "value": "0x2f18f339620a63e43f0839eeb18d7de1e1be4dfb"
                            },
                            {
                                "name": "approved",
                                "type": "bool",
                                "value": true
                            }
                        ],
                        "signature": "ApprovalForAll(address,address,bool)"
                    },
                    "id": 3,
                    "logData": "0x0000000000000000000000000000000000000000000000000000000000000001",
                    "logDecoded": true,
                    "operation": "EVENT",
                    "revert": false,
                    "status": true,
                    "topics": [
                        "0x17307eab39ab6107e8899845ad3d59bd9653f200f220920489ca2b5937696c31",
                        "0x000000000000000000000000f512e182487f3f0b891d22eadbefd9a8e98527a8",
                        "0x0000000000000000000000002f18f339620a63e43f0839eeb18d7de1e1be4dfb"
                    ]
                },
                "nodeType": 1
            }
        },
        "gasFlame": [
            {
                "children": [
                    {
                        "children": [
                            {
                                "children": [],
                                "depth": 0,
                                "name": "Initial Gas",
                                "value": 21572
                            },
                            {
                                "children": [
                                    {
                                        "children": [
                                            {
                                                "children": [],
                                                "depth": 2,
                                                "name": "isOperatorAllowed",
                                                "value": 10127
                                            }
                                        ],
                                        "depth": 1,
                                        "name": "setApprovalForAll",
                                        "value": 39692
                                    }
                                ],
                                "depth": 0,
                                "name": "Executed Gas",
                                "value": 46852
                            }
                        ],
                        "depth": -1,
                        "name": "Actual Gas Used",
                        "value": 68424
                    },
                    {
                        "children": [],
                        "depth": -1,
                        "name": "Refunded Gas",
                        "value": 0
                    }
                ],
                "depth": -2,
                "name": "Total Gas",
                "value": 68424
            }
        ],
        "isConfirmed": true,
        "mainTrace": [
            {
                "children": [
                    {
                        "children": [
                            {
                                "children": [
                                    {
                                        "children": [],
                                        "depth": 2,
                                        "id": 2,
                                        "order": 2
                                    },
                                    {
                                        "children": [],
                                        "depth": 2,
                                        "id": 3,
                                        "order": 3
                                    }
                                ],
                                "depth": 1,
                                "id": 1,
                                "order": 1
                            }
                        ],
                        "depth": 0,
                        "id": 0,
                        "order": 0
                    }
                ],
                "depth": -1,
                "id": -1,
                "order": -1
            }
        ],
        "mainTraceNodeCount": 4,
        "parentIdMap": {
            "0": -1,
            "1": 0,
            "2": 1,
            "3": 1
        },
        "tidyTrace": [
            {
                "children": [
                    {
                        "children": [
                            {
                                "children": [
                                    {
                                        "children": [],
                                        "depth": 2,
                                        "id": 3,
                                        "order": 3
                                    }
                                ],
                                "depth": 1,
                                "id": 1,
                                "order": 1
                            }
                        ],
                        "depth": 0,
                        "id": 0,
                        "order": 0
                    }
                ],
                "depth": -1,
                "id": -1,
                "order": -1
            }
        ],
        "tidyTraceNodeCount": 3
    },
    "state_change": {
        "stateChanges": [
            {
                "address": "0x37ed9fb736bf48b8bceba599938372cbd70fb378",
                "erc": "ERC-721",
                "slots": [
                    {
                        "current": "0x0000000000000000000000000000000000000000000000000000000000000001",
                        "key": "0xb64e3189dbb52748a960c86ea4a5870ed4e9109caa5410f386d4240a3cbd28a3",
                        "prev": "0x0000000000000000000000000000000000000000000000000000000000000000"
                    }
                ],
                "storageVariables": []
            }
        ]
    }
}