{
    "balance_change": {
        "balanceChanges": [
            {
                "account": "0x206877abb37a68234b7f207debd4e12595723fdf",
                "assets": [
                    {
                        "address": "0xd780ae2bf04cd96e577d3d014762f831d97129d0",
                        "amount": "11,368.52925879",
                        "iconUrl": "",
                        "isERC1155": false,
                        "isERC721": false,
                        "sign": false,
                        "value": ""
                    }
                ]
            },
            {
                "account": "0x6870949f524f7cf7cab4e3286481b60a724878a4",
                "assets": [
                    {
                        "address": "0xd780ae2bf04cd96e577d3d014762f831d97129d0",
                        "amount": "11,368.52925879",
                        "iconUrl": "",
                        "isERC1155": false,
                        "isERC721": false,
                        "sign": true,
                        "value": ""
                    }
                ]
            }
        ]
    },
    "profile": {
        "basic_info": {
            "baseFee": "",
            "blockNumber": 7042077,
            "callData": "0xa9059cbb0000000000000000000000006870949f524f7cf7cab4e3286481b60a724878a40000000000000000000000000000000000000000000002684a0967d1ecd3fc00",
            "debugEnable": true,
            "errorInfo": "",
            "eventCount": 1,
            "feeRecipient": "0xea674fdde714fd979de3edf0f56aa9716b898ec8",
            "formatValue": "0",
            "gasLimit": 49888,
            "gasPrice": "40",
            "gasUsed": 39888,
            "intTxnCount": 0,
            "internalRevert": false,
            "internalRevertMessage": "",
            "isContractCreation": false,
            "isFlashloan": false,
            "maxFee": "",
            "nonce": 1061,
            "overwritedBlockNumber": -1,
            "priorityFee": "",
            "receiver": "0xd780ae2bf04cd96e577d3d014762f831d97129d0",
            "revertMessage": "",
            "sender": "0x206877abb37a68234b7f207debd4e12595723fdf",
            "simulationEnable": true,
            "sourceTxnHash": "0xb45ba1a7624fb44c60585d0556285650637121d85602ec363618cf78bce61d75",
            "status": true,
            "timestamp": "2019-01-10T11:09:46Z",
            "transactionFee": "0.00159552",
            "txnHash": "0xb45ba1a7624fb44c60585d0556285650637121d85602ec363618cf78bce61d75",
            "txnIndex": 2,
            "type": 0,
            "value": "0"
        },
        "fund_flow": [
            {
                "amount": "11,368.52925879",
                "from": "0x206877abb37a68234b7f207debd4e12595723fdf",
                "id": 1,
                "isERC1155": false,
                "isERC721": false,
                "isReverted": false,
                "order": 1,
                "to": "0x6870949f524f7cf7cab4e3286481b60a724878a4",
                "token": "0xd780ae2bf04cd96e577d3d014762f831d97129d0"
            }
        ],
        "token_infos": [
            {
                "address": "0xd780ae2bf04cd96e577d3d014762f831d97129d0",
                "decimals": 18
            },
            {
                "address": "0xeeeeeeeeeeeeeeeeeeeeeeeeeeeeeeeeeeeeeeee",
                "decimals": 18
            },
            {
                "address": "0xc02aaa39b223fe8d0a0e5c4f27ead9083c756cc2",
                "decimals": 18
            }
        ]
    },
    "address_label": {
        "labels": [
            {
                "address": "0x0000000000000000000000000000000000000004",
                "label": "Precompiled"
            },
            {
                "address": "0xeeeeeeeeeeeeeeeeeeeeeeeeeeeeeeeeeeeeeeee",
                "label": "Ether"
            },
            {
                "address": "0xd780ae2bf04cd96e577d3d014762f831d97129d0",
                "label": "Envion Token"
            },
            {
                "address": "0x0000000000000000000000000000000000000001",
                "label": "Precompiled"
            },
            {
                "address": "0x0000000000000000000000000000000000000002",
                "label": "Precompiled"
            },
            {
                "address": "0x0000000000000000000000000000000000000003",
                "label": "Precompiled"
            }
        ]
    },
    "trace": {
        "accountLabels": null,
        "dataMap": {
            "-1": {
                "invocation": {
                    "address": "0x206877abb37a68234b7f207debd4e12595723fdf",
                    "callData": "",
                    "decodedMethod": null,
                    "errorInfo": "",
                    "fromAddress": "",
                    "gasUsed": 0,
                    "id": -1,
                    "methodDecoded": false,
                    "operation": "",
                    "output": "",
                    "revert": false,
                    "revertMessage": "",
                    "selector": "",
                    "status": false,
                    "value": ""
                },
                "nodeType": 0
            },
            "0": {
                "invocation": {
                    "address": "0xd780ae2bf04cd96e577d3d014762f831d97129d0",
                    "callData": "0x0000000000000000000000006870949f524f7cf7cab4e3286481b60a724878a40000000000000000000000000000000000000000000002684a0967d1ecd3fc00",
                    "decodedMethod": {
                        "callParams": [
                            {
                                "name": "_to",
                                "type": "address",
                                "value": "0x6870949f524f7cf7cab4e3286481b60a724878a4"
                            },
                            {
                                "decimalAvailable": true,
                                "name": "_value",
                                "type": "uint256",
                                "value": "11,368,529,258,790,000,000,000"
                            }
                        ],
                        "constructorArguments": "",
                        "name": "transfer",
                        "returnParams": [
                            {
                                "name": "success",
                                "type": "bool",
                                "value": true
                            }
                        ],
                        "signature": "transfer(address,uint256)"
                    },
                    "errorInfo": "",
                    "fromAddress": "0x206877abb37a68234b7f207debd4e12595723fdf",
                    "gasUsed": 39888,
                    "id": 0,
                    "methodDecoded": true,
                    "operation": "CALL",
                    "output": "0x0000000000000000000000000000000000000000000000000000000000000001",
                    "revert": false,
                    "revertMessage": "",
                    "selector": "0xa9059cbb",
                    "status": true,
                    "value": "0"
                },
                "nodeType": 0
            },
            "1": {
                "event": {
                    "contract": "0xd780ae2bf04cd96e577d3d014762f831d97129d0",
                    "decodedLog": {
                        "name": "Transfer",
                        "params": [
                            {
                                "name": "_from",
                                "type": "address",
                                "value": "0x206877abb37a68234b7f207debd4e12595723fdf"
                            },
                            {
                                "name": "_to",
                                "type": "address",
                                "value": "0x6870949f524f7cf7cab4e3286481b60a724878a4"
                            },
                            {
                                "decimalAvailable": true,
                                "name": "_value",
                                "type": "uint256",
                                "value": "11,368,529,258,790,000,000,000"
                            }
                        ],
                        "signature": "Transfer(address,address,uint256)"
                    },
                    "id": 1,
                    "logData": "0x0000000000000000000000000000000000000000000002684a0967d1ecd3fc00",
                    "logDecoded": true,
                    "operation": "EVENT",
                    "revert": false,
                    "status": true,
                    "topics": [
                        "0xddf252ad1be2c89b69c2b068fc378daa952ba7f163c4a11628f55a4df523b3ef",
                        "0x000000000000000000000000206877abb37a68234b7f207debd4e12595723fdf",
                        "0x0000000000000000000000006870949f524f7cf7cab4e3286481b60a724878a4"
                    ]
                },
                "nodeType": 1
            }
        },
        "gasFlame": [
            {
                "children": [
                    {
                        "children": [
                            {
                                "children": [],
                                "depth": 0,
                                "name": "Initial Gas",
                                "value": 23384
                            },
                            {
                                "children": [],
                                "depth": 0,
                                "name": "Executed Gas",
                                "value": 16504
                            }
                        ],
                        "depth": -1,
                        "name": "Actual Gas Used",
                        "value": 39888
                    },
                    {
                        "children": [],
                        "depth": -1,
                        "name": "Refunded Gas",
                        "value": 0
                    }
                ],
                "depth": -2,
                "name": "Total Gas",
                "value": 39888
            }
        ],
        "isConfirmed": true,
        "mainTrace": [
            {
                "children": [
                    {
                        "children": [
                            {
                                "children": [],
                                "depth": 1,
                                "id": 1,
                                "order": 1
                            }
                        ],
                        "depth": 0,
                        "id": 0,
                        "order": 0
                    }
                ],
                "depth": -1,
                "id": -1,
                "order": -1
            }
        ],
        "mainTraceNodeCount": 2,
        "parentIdMap": {
            "0": -1,
            "1": 0
        },
        "tidyTrace": [
            {
                "children": [
                    {
                        "children": [
                            {
                                "children": [],
                                "depth": 1,
                                "id": 1,
                                "order": 1
                            }
                        ],
                        "depth": 0,
                        "id": 0,
                        "order": 0
                    }
                ],
                "depth": -1,
                "id": -1,
                "order": -1
            }
        ],
        "tidyTraceNodeCount": 2
    },
    "state_change": {
        "stateChanges": [
            {
                "address": "0xd780ae2bf04cd96e577d3d014762f831d97129d0",
                "erc": "ERC-20",
                "slots": [
                    {
                        "current": "0x000000000000000000000000000000000000000000013993170ec8ff620bfeff",
                        "key": "0x5192249123bfa3670deb3281e50da1dbc6b9fe16e64f152c0ba6b16e35d71667",
                        "prev": "0x00000000000000000000000000000000000000000001372acd05612d753802ff"
                    },
                    {
                        "current": "0x0000000000000000000000000000000000000000000085d4a93484381a52b9a9",
                        "key": "0xc76bbd55eeeceb0e687f4ff2eb0b9a5f9b4642002aadd05e35096467f5224cde",
                        "prev": "0x00000000000000000000000000000000000000000000883cf33dec0a0726b5a9"
                    }
                ],
                "storageVariables": [
                    {
                        "name": "balances",
                        "type": "mapping(address => uint256)",
                        "value": {
                            "pairs": [
                                {
                                    "key": "0x206877abb37a68234b7f207debd4e12595723fdf",
                                    "value": {
                                        "current": "631997644480756931803561",
                                        "prev": "643366173739546931803561",
                                        "typeTag": 1
                                    }
                                },
                                {
                                    "key": "0x6870949f524f7cf7cab4e3286481b60a724878a4",
                                    "value": {
                                        "current": "1480814042003345989435135",
                                        "prev": "1469445512744555989435135",
                                        "typeTag": 1
                                    }
                                }
                            ],
                            "typeTag": 4
                        }
                    }
                ]
            }
        ]
    }
}