{
    "balance_change": {
        "balanceChanges": [
            {
                "account": "0x07ed584c023e72d1a9be97d8f3eee9b4b67b7bf5",
                "assets": [
                    {
                        "address": "0xff56cc6b1e6ded347aa0b7676c85ab0b3d08b0fa",
                        "amount": "103,006.55866853",
                        "iconUrl": "https://assets.blocksec.com/icon/21c81d7de9bdc73a084d3c557f3edfec9cbc770aa04e843f48fce32b565735c7.png",
                        "isERC1155": false,
                        "isERC721": false,
                        "sign": false,
                        "value": ""
                    }
                ]
            },
            {
                "account": "0xcdd91d84e48b14d008d86de73dd6c58000261c84",
                "assets": [
                    {
                        "address": "0xff56cc6b1e6ded347aa0b7676c85ab0b3d08b0fa",
                        "amount": "103,006.55866853",
                        "iconUrl": "https://assets.blocksec.com/icon/21c81d7de9bdc73a084d3c557f3edfec9cbc770aa04e843f48fce32b565735c7.png",
                        "isERC1155": false,
                        "isERC721": false,
                        "sign": true,
                        "value": ""
                    }
                ]
            }
        ]
    },
    "profile": {
        "basic_info": {
            "baseFee": "",
            "blockNumber": 7626512,
            "callData": "0xa9059cbb000000000000000000000000cdd91d84e48b14d008d86de73dd6c58000261c840000000000000000000000000000000000000000000015cfff29fce3ec8ef400",
            "debugEnable": true,
            "errorInfo": "",
            "eventCount": 1,
            "feeRecipient": "0x6a7a43be33ba930fe58f34e07d0ad6ba7adb9b1f",
            "formatValue": "0",
            "gasLimit": 110000,
            "gasPrice": "60",
            "gasUsed": 22316,
            "intTxnCount": 0,
            "internalRevert": false,
            "internalRevertMessage": "",
            "isContractCreation": false,
            "isFlashloan": false,
            "maxFee": "",
            "nonce": 591,
            "overwritedBlockNumber": -1,
            "priorityFee": "",
            "receiver": "0xff56cc6b1e6ded347aa0b7676c85ab0b3d08b0fa",
            "revertMessage": "",
            "sender": "0x07ed584c023e72d1a9be97d8f3eee9b4b67b7bf5",
            "simulationEnable": true,
            "sourceTxnHash": "0xb5b5f87e88097edb12d05e77abefd28d7dcf22373b824a885a2be1e664f0e73c",
            "status": true,
            "timestamp": "2019-04-23T22:45:07Z",
            "transactionFee": "0.00133896",
            "txnHash": "0xb5b5f87e88097edb12d05e77abefd28d7dcf22373b824a885a2be1e664f0e73c",
            "txnIndex": 7,
            "type": 0,
            "value": "0"
        },
        "fund_flow": [
            {
                "amount": "103,006.55866853",
                "from": "0x07ed584c023e72d1a9be97d8f3eee9b4b67b7bf5",
                "id": 1,
                "isERC1155": false,
                "isERC721": false,
                "isReverted": false,
                "order": 1,
                "to": "0xcdd91d84e48b14d008d86de73dd6c58000261c84",
                "token": "0xff56cc6b1e6ded347aa0b7676c85ab0b3d08b0fa"
            }
        ],
        "token_infos": [
            {
                "address": "0xff56cc6b1e6ded347aa0b7676c85ab0b3d08b0fa",
                "decimals": 18
            },
            {
                "address": "0xeeeeeeeeeeeeeeeeeeeeeeeeeeeeeeeeeeeeeeee",
                "decimals": 18
            },
            {
                "address": "0xc02aaa39b223fe8d0a0e5c4f27ead9083c756cc2",
                "decimals": 18
            }
        ]
    },
    "address_label": {
        "labels": [
            {
                "address": "0xeeeeeeeeeeeeeeeeeeeeeeeeeeeeeeeeeeeeeeee",
                "label": "Ether"
            },
            {
                "address": "0xff56cc6b1e6ded347aa0b7676c85ab0b3d08b0fa",
                "label": "Orbs Token"
            },
            {
                "address": "0x0000000000000000000000000000000000000001",
                "label": "Precompiled"
            },
            {
                "address": "0x0000000000000000000000000000000000000002",
                "label": "Precompiled"
            },
            {
                "address": "0x0000000000000000000000000000000000000003",
                "label": "Precompiled"
            },
            {
                "address": "0x0000000000000000000000000000000000000004",
                "label": "Precompiled"
            }
        ]
    },
    "trace": {
        "accountLabels": null,
        "dataMap": {
            "-1": {
                "invocation": {
                    "address": "0x07ed584c023e72d1a9be97d8f3eee9b4b67b7bf5",
                    "callData": "",
                    "decodedMethod": null,
                    "errorInfo": "",
                    "fromAddress": "",
                    "gasUsed": 0,
                    "id": -1,
                    "methodDecoded": false,
                    "operation": "",
                    "output": "",
                    "revert": false,
                    "revertMessage": "",
                    "selector": "",
                    "status": false,
                    "value": ""
                },
                "nodeType": 0
            },
            "0": {
                "invocation": {
                    "address": "0xff56cc6b1e6ded347aa0b7676c85ab0b3d08b0fa",
                    "callData": "0x000000000000000000000000cdd91d84e48b14d008d86de73dd6c58000261c840000000000000000000000000000000000000000000015cfff29fce3ec8ef400",
                    "decodedMethod": {
                        "callParams": [
                            {
                                "name": "_to",
                                "type": "address",
                                "value": "0xcdd91d84e48b14d008d86de73dd6c58000261c84"
                            },
                            {
                                "decimalAvailable": true,
                                "name": "_value",
                                "type": "uint256",
                                "value": "103,006,558,668,530,000,000,000"
                            }
                        ],
                        "constructorArguments": "",
                        "name": "transfer",
                        "returnParams": [
                            {
                                "name": "",
                                "type": "bool",
                                "value": true
                            }
                        ],
                        "signature": "transfer(address,uint256)"
                    },
                    "errorInfo": "",
                    "fromAddress": "0x07ed584c023e72d1a9be97d8f3eee9b4b67b7bf5",
                    "gasUsed": 22316,
                    "id": 0,
                    "methodDecoded": true,
                    "operation": "CALL",
                    "output": "0x0000000000000000000000000000000000000000000000000000000000000001",
                    "revert": false,
                    "revertMessage": "",
                    "selector": "0xa9059cbb",
                    "status": true,
                    "value": "0"
                },
                "nodeType": 0
            },
            "1": {
                "event": {
                    "contract": "0xff56cc6b1e6ded347aa0b7676c85ab0b3d08b0fa",
                    "decodedLog": {
                        "name": "Transfer",
                        "params": [
                            {
                                "name": "from",
                                "type": "address",
                                "value": "0x07ed584c023e72d1a9be97d8f3eee9b4b67b7bf5"
                            },
                            {
                                "name": "to",
                                "type": "address",
                                "value": "0xcdd91d84e48b14d008d86de73dd6c58000261c84"
                            },
                            {
                                "decimalAvailable": true,
                                "name": "value",
                                "type": "uint256",
                                "value": "103,006,558,668,530,000,000,000"
                            }
                        ],
                        "signature": "Transfer(address,address,uint256)"
                    },
                    "id": 1,
                    "logData": "0x0000000000000000000000000000000000000000000015cfff29fce3ec8ef400",
                    "logDecoded": true,
                    "operation": "EVENT",
                    "revert": false,
                    "status": true,
                    "topics": [
                        "0xddf252ad1be2c89b69c2b068fc378daa952ba7f163c4a11628f55a4df523b3ef",
                        "0x00000000000000000000000007ed584c023e72d1a9be97d8f3eee9b4b67b7bf5",
                        "0x000000000000000000000000cdd91d84e48b14d008d86de73dd6c58000261c84"
                    ]
                },
                "nodeType": 1
            }
        },
        "gasFlame": [
            {
                "children": [
                    {
                        "children": [
                            {
                                "children": [],
                                "depth": 0,
                                "name": "Initial Gas",
                                "value": 23320
                            },
                            {
                                "children": [],
                                "depth": 0,
                                "name": "Executed Gas",
                                "value": 13996
                            }
                        ],
                        "depth": -1,
                        "name": "Actual Gas Used",
                        "value": 22316
                    },
                    {
                        "children": [],
                        "depth": -1,
                        "name": "Refunded Gas",
                        "value": 15000
                    }
                ],
                "depth": -2,
                "name": "Total Gas",
                "value": 37316
            }
        ],
        "isConfirmed": true,
        "mainTrace": [
            {
                "children": [
                    {
                        "children": [
                            {
                                "children": [],
                                "depth": 1,
                                "id": 1,
                                "order": 1
                            }
                        ],
                        "depth": 0,
                        "id": 0,
                        "order": 0
                    }
                ],
                "depth": -1,
                "id": -1,
                "order": -1
            }
        ],
        "mainTraceNodeCount": 2,
        "parentIdMap": {
            "0": -1,
            "1": 0
        },
        "tidyTrace": [
            {
                "children": [
                    {
                        "children": [
                            {
                                "children": [],
                                "depth": 1,
                                "id": 1,
                                "order": 1
                            }
                        ],
                        "depth": 0,
                        "id": 0,
                        "order": 0
                    }
                ],
                "depth": -1,
                "id": -1,
                "order": -1
            }
        ],
        "tidyTraceNodeCount": 2
    },
    "state_change": {
        "stateChanges": [
            {
                "address": "0xff56cc6b1e6ded347aa0b7676c85ab0b3d08b0fa",
                "erc": "ERC-20",
                "slots": [
                    {
                        "current": "0x0000000000000000000000000000000000000000000000000000000000000000",
                        "key": "0x71c203a372377490f17ac56d8b4c7b4f4e74cea2c16d09ce846fc00edc25a01c",
                        "prev": "0x0000000000000000000000000000000000000000000015cfff29fce3ec8ef400"
                    },
                    {
                        "current": "0x0000000000000000000000000000000000000000000c9f898a09797eeef136a0",
                        "key": "0x73940aff093f6c1485e65e48913a2e347e2a23f26f6c59f3c6addb16e73702dc",
                        "prev": "0x0000000000000000000000000000000000000000000c89b98adf7c9b026242a0"
                    }
                ],
                "storageVariables": [
                    {
                        "name": "balances",
                        "type": "mapping(address => uint256)",
                        "value": {
                            "pairs": [
                                {
                                    "key": "0x07ed584c023e72d1a9be97d8f3eee9b4b67b7bf5",
                                    "value": {
                                        "current": "0",
                                        "prev": "103006558668530000000000",
                                        "typeTag": 1
                                    }
                                },
                                {
                                    "key": "0xcdd91d84e48b14d008d86de73dd6c58000261c84",
                                    "value": {
                                        "current": "15260503256704760000100000",
                                        "prev": "15157496698036230000100000",
                                        "typeTag": 1
                                    }
                                }
                            ],
                            "typeTag": 4
                        }
                    }
                ]
            }
        ]
    }
}