{
    "balance_change": {
        "balanceChanges": [
            {
                "account": "0x4ec36c82893626503ff1db270ae5d81d188eaf95",
                "assets": [
                    {
                        "address": "0xd3ebdaea9aeac98de723f640bce4aa07e2e44192",
                        "amount": "30",
                        "iconUrl": "",
                        "isERC1155": false,
                        "isERC721": false,
                        "sign": false,
                        "value": ""
                    }
                ]
            },
            {
                "account": "0x411edc0fca6106161bc48bb25b1aea9886de2c1c",
                "assets": [
                    {
                        "address": "0xd3ebdaea9aeac98de723f640bce4aa07e2e44192",
                        "amount": "30",
                        "iconUrl": "",
                        "isERC1155": false,
                        "isERC721": false,
                        "sign": true,
                        "value": ""
                    }
                ]
            }
        ]
    },
    "profile": {
        "basic_info": {
            "baseFee": "",
            "blockNumber": 8049763,
            "callData": "0xa9059cbb000000000000000000000000411edc0fca6106161bc48bb25b1aea9886de2c1c000000000000000000000000000000000000000000000001a055690d9db80000",
            "debugEnable": true,
            "errorInfo": "",
            "eventCount": 1,
            "feeRecipient": "0xea674fdde714fd979de3edf0f56aa9716b898ec8",
            "formatValue": "0",
            "gasLimit": 100000,
            "gasPrice": "4.75",
            "gasUsed": 21852,
            "intTxnCount": 0,
            "internalRevert": false,
            "internalRevertMessage": "",
            "isContractCreation": false,
            "isFlashloan": false,
            "maxFee": "",
            "nonce": 56,
            "overwritedBlockNumber": -1,
            "priorityFee": "",
            "receiver": "0xd3ebdaea9aeac98de723f640bce4aa07e2e44192",
            "revertMessage": "",
            "sender": "0x4ec36c82893626503ff1db270ae5d81d188eaf95",
            "simulationEnable": true,
            "sourceTxnHash": "0xb5d01a7f7c9ec42ef85f37204591b7cc1250a68f64cd65764c44200548200c1b",
            "status": true,
            "timestamp": "2019-06-29T01:10:14Z",
            "transactionFee": "0.000103797",
            "txnHash": "0xb5d01a7f7c9ec42ef85f37204591b7cc1250a68f64cd65764c44200548200c1b",
            "txnIndex": 145,
            "type": 0,
            "value": "0"
        },
        "fund_flow": [
            {
                "amount": "30",
                "from": "0x4ec36c82893626503ff1db270ae5d81d188eaf95",
                "id": 1,
                "isERC1155": false,
                "isERC721": false,
                "isReverted": false,
                "order": 1,
                "to": "0x411edc0fca6106161bc48bb25b1aea9886de2c1c",
                "token": "0xd3ebdaea9aeac98de723f640bce4aa07e2e44192"
            }
        ],
        "token_infos": [
            {
                "address": "0xd3ebdaea9aeac98de723f640bce4aa07e2e44192",
                "decimals": 18
            },
            {
                "address": "0xeeeeeeeeeeeeeeeeeeeeeeeeeeeeeeeeeeeeeeee",
                "decimals": 18
            },
            {
                "address": "0xc02aaa39b223fe8d0a0e5c4f27ead9083c756cc2",
                "decimals": 18
            }
        ]
    },
    "address_label": {
        "labels": [
            {
                "address": "0xd3ebdaea9aeac98de723f640bce4aa07e2e44192",
                "label": "SCF Token (SCF)"
            },
            {
                "address": "0x0000000000000000000000000000000000000001",
                "label": "Precompiled"
            },
            {
                "address": "0x0000000000000000000000000000000000000002",
                "label": "Precompiled"
            },
            {
                "address": "0x0000000000000000000000000000000000000003",
                "label": "Precompiled"
            },
            {
                "address": "0x0000000000000000000000000000000000000004",
                "label": "Precompiled"
            },
            {
                "address": "0xeeeeeeeeeeeeeeeeeeeeeeeeeeeeeeeeeeeeeeee",
                "label": "Ether"
            }
        ]
    },
    "trace": {
        "accountLabels": null,
        "dataMap": {
            "-1": {
                "invocation": {
                    "address": "0x4ec36c82893626503ff1db270ae5d81d188eaf95",
                    "callData": "",
                    "decodedMethod": null,
                    "errorInfo": "",
                    "fromAddress": "",
                    "gasUsed": 0,
                    "id": -1,
                    "methodDecoded": false,
                    "operation": "",
                    "output": "",
                    "revert": false,
                    "revertMessage": "",
                    "selector": "",
                    "status": false,
                    "value": ""
                },
                "nodeType": 0
            },
            "0": {
                "invocation": {
                    "address": "0xd3ebdaea9aeac98de723f640bce4aa07e2e44192",
                    "callData": "0x000000000000000000000000411edc0fca6106161bc48bb25b1aea9886de2c1c000000000000000000000000000000000000000000000001a055690d9db80000",
                    "decodedMethod": {
                        "callParams": [
                            {
                                "name": "_to",
                                "type": "address",
                                "value": "0x411edc0fca6106161bc48bb25b1aea9886de2c1c"
                            },
                            {
                                "decimalAvailable": true,
                                "name": "_value",
                                "type": "uint256",
                                "value": "30,000,000,000,000,000,000"
                            }
                        ],
                        "constructorArguments": "",
                        "name": "transfer",
                        "returnParams": [
                            {
                                "name": "",
                                "type": "bool",
                                "value": true
                            }
                        ],
                        "signature": "transfer(address,uint256)"
                    },
                    "errorInfo": "",
                    "fromAddress": "0x4ec36c82893626503ff1db270ae5d81d188eaf95",
                    "gasUsed": 21852,
                    "id": 0,
                    "methodDecoded": true,
                    "operation": "CALL",
                    "output": "0x0000000000000000000000000000000000000000000000000000000000000001",
                    "revert": false,
                    "revertMessage": "",
                    "selector": "0xa9059cbb",
                    "status": true,
                    "value": "0"
                },
                "nodeType": 0
            },
            "1": {
                "event": {
                    "contract": "0xd3ebdaea9aeac98de723f640bce4aa07e2e44192",
                    "decodedLog": {
                        "name": "Transfer",
                        "params": [
                            {
                                "name": "_from",
                                "type": "address",
                                "value": "0x4ec36c82893626503ff1db270ae5d81d188eaf95"
                            },
                            {
                                "name": "_to",
                                "type": "address",
                                "value": "0x411edc0fca6106161bc48bb25b1aea9886de2c1c"
                            },
                            {
                                "decimalAvailable": true,
                                "name": "_value",
                                "type": "uint256",
                                "value": "30,000,000,000,000,000,000"
                            }
                        ],
                        "signature": "Transfer(address,address,uint256)"
                    },
                    "id": 1,
                    "logData": "0x000000000000000000000000000000000000000000000001a055690d9db80000",
                    "logDecoded": true,
                    "operation": "EVENT",
                    "revert": false,
                    "status": true,
                    "topics": [
                        "0xddf252ad1be2c89b69c2b068fc378daa952ba7f163c4a11628f55a4df523b3ef",
                        "0x0000000000000000000000004ec36c82893626503ff1db270ae5d81d188eaf95",
                        "0x000000000000000000000000411edc0fca6106161bc48bb25b1aea9886de2c1c"
                    ]
                },
                "nodeType": 1
            }
        },
        "gasFlame": [
            {
                "children": [
                    {
                        "children": [
                            {
                                "children": [],
                                "depth": 0,
                                "name": "Initial Gas",
                                "value": 23256
                            },
                            {
                                "children": [],
                                "depth": 0,
                                "name": "Executed Gas",
                                "value": 13596
                            }
                        ],
                        "depth": -1,
                        "name": "Actual Gas Used",
                        "value": 21852
                    },
                    {
                        "children": [],
                        "depth": -1,
                        "name": "Refunded Gas",
                        "value": 15000
                    }
                ],
                "depth": -2,
                "name": "Total Gas",
                "value": 36852
            }
        ],
        "isConfirmed": true,
        "mainTrace": [
            {
                "children": [
                    {
                        "children": [
                            {
                                "children": [],
                                "depth": 1,
                                "id": 1,
                                "order": 1
                            }
                        ],
                        "depth": 0,
                        "id": 0,
                        "order": 0
                    }
                ],
                "depth": -1,
                "id": -1,
                "order": -1
            }
        ],
        "mainTraceNodeCount": 2,
        "parentIdMap": {
            "0": -1,
            "1": 0
        },
        "tidyTrace": [
            {
                "children": [
                    {
                        "children": [
                            {
                                "children": [],
                                "depth": 1,
                                "id": 1,
                                "order": 1
                            }
                        ],
                        "depth": 0,
                        "id": 0,
                        "order": 0
                    }
                ],
                "depth": -1,
                "id": -1,
                "order": -1
            }
        ],
        "tidyTraceNodeCount": 2
    },
    "state_change": {
        "stateChanges": [
            {
                "address": "0xd3ebdaea9aeac98de723f640bce4aa07e2e44192",
                "erc": "ERC-20",
                "slots": [
                    {
                        "current": "0x0000000000000000000000000000000000000000000000000000000000000000",
                        "key": "0x69842ed32a8efbc11b1b4df8b240ac09914d70827919d1bec9fc76e6ffa6f5fd",
                        "prev": "0x000000000000000000000000000000000000000000000001a055690d9db80000"
                    },
                    {
                        "current": "0x00000000000000000000000000000000000000000000008f70a064e423980000",
                        "key": "0x05016511435005251d76c1bc783685ecd2c5cabd0212b1d74e19d555915b6a00",
                        "prev": "0x00000000000000000000000000000000000000000000008dd04afbd685e00000"
                    }
                ],
                "storageVariables": [
                    {
                        "name": "balances",
                        "type": "mapping(address => uint256)",
                        "value": {
                            "pairs": [
                                {
                                    "key": "0x411edc0fca6106161bc48bb25b1aea9886de2c1c",
                                    "value": {
                                        "current": "2646000000000000000000",
                                        "prev": "2616000000000000000000",
                                        "typeTag": 1
                                    }
                                },
                                {
                                    "key": "0x4ec36c82893626503ff1db270ae5d81d188eaf95",
                                    "value": {
                                        "current": "0",
                                        "prev": "30000000000000000000",
                                        "typeTag": 1
                                    }
                                }
                            ],
                            "typeTag": 4
                        }
                    }
                ]
            }
        ]
    }
}