{
    "balance_change": {
        "balanceChanges": [
            {
                "account": "0x1705c22f61fc381e3dedf870510028b7f1831fe5",
                "assets": [
                    {
                        "address": "0xeeeeeeeeeeeeeeeeeeeeeeeeeeeeeeeeeeeeeeee",
                        "amount": "0.000000000000012416",
                        "iconUrl": "https://assets.blocksec.com/image/1663669189317-3.png",
                        "isERC1155": false,
                        "isERC721": false,
                        "sign": false,
                        "value": "0.000000000047361452800000002257"
                    }
                ]
            },
            {
                "account": "0x6f1cdbbb4d53d226cf4b917bf768b94acbab6168",
                "assets": [
                    {
                        "address": "0xeeeeeeeeeeeeeeeeeeeeeeeeeeeeeeeeeeeeeeee",
                        "amount": "0.000000000000012416",
                        "iconUrl": "https://assets.blocksec.com/image/1663669189317-3.png",
                        "isERC1155": false,
                        "isERC721": false,
                        "sign": true,
                        "value": "0.000000000047361452800000002257"
                    },
                    {
                        "address": "0xc02aaa39b223fe8d0a0e5c4f27ead9083c756cc2",
                        "amount": "0.828298455125341429",
                        "iconUrl": "https://assets.blocksec.com/icon/f1cb2d02c471d545bbc7722daf3277fd852d98e63d118771af7047bd8256c516.png",
                        "isERC1155": false,
                        "isERC721": false,
                        "sign": true,
                        "value": "3159.5858719017051508"
                    },
                    {
                        "address": "0x320623b8e4ff03373931769a31fc52a4e78b5d70",
                        "amount": "390,695.61414720154261778",
                        "iconUrl": "https://assets.blocksec.com/icon/7f2d63b9830bbed4a8f18d9c20fa745667b34d4b8425251ac6ebe17d0599151d.png",
                        "isERC1155": false,
                        "isERC721": false,
                        "sign": false,
                        "value": "3164.6344742099998286"
                    }
                ]
            },
            {
                "account": "0x32d9259e6792b2150fd50395d971864647fa27b2",
                "assets": [
                    {
                        "address": "0xc02aaa39b223fe8d0a0e5c4f27ead9083c756cc2",
                        "amount": "0.828298455125341429",
                        "iconUrl": "https://assets.blocksec.com/icon/f1cb2d02c471d545bbc7722daf3277fd852d98e63d118771af7047bd8256c516.png",
                        "isERC1155": false,
                        "isERC721": false,
                        "sign": false,
                        "value": "3159.5858719017051508"
                    },
                    {
                        "address": "0x320623b8e4ff03373931769a31fc52a4e78b5d70",
                        "amount": "390,695.61414720154261778",
                        "iconUrl": "https://assets.blocksec.com/icon/7f2d63b9830bbed4a8f18d9c20fa745667b34d4b8425251ac6ebe17d0599151d.png",
                        "isERC1155": false,
                        "isERC721": false,
                        "sign": true,
                        "value": "3164.6344742099998286"
                    }
                ]
            }
        ]
    },
    "profile": {
        "basic_info": {
            "baseFee": "10.903713741",
            "blockNumber": 19933208,
            "callData": "0xceb5748e00000000000000000000000032d9259e6792b2150fd50395d971864647fa27b2000000000000000000000000320623b8e4ff03373931769a31fc52a4e78b5d70000000000000000000000000c02aaa39b223fe8d0a0e5c4f27ead9083c756cc20000000000000000000000000000000000000000000000000000000000000bb80000000000000000000000000000000000000000000052bba6d4a0ccd3fb7ab40000000000000000000000000000000000000000000000000b7eb50e71c034f40000000000000000000000000000000000000000005f7885425b35c00000000000000000000000000000000000000000000000000000000000000000013028190000000000000000000000000000000000000000000000000000000000000000",
            "debugEnable": true,
            "errorInfo": "",
            "eventCount": 3,
            "feeRecipient": "0x95222290dd7278aa3ddd389cc1e1d165cc4bafe5",
            "formatValue": "0.000000000000012416",
            "gasLimit": 176051,
            "gasPrice": "11.144734738",
            "gasUsed": 109362,
            "intTxnCount": 6,
            "internalRevert": false,
            "internalRevertMessage": "",
            "isContractCreation": false,
            "isFlashloan": false,
            "maxFee": "11.144734738",
            "nonce": 15081,
            "overwritedBlockNumber": -1,
            "priorityFee": "0.241020997",
            "receiver": "0x6f1cdbbb4d53d226cf4b917bf768b94acbab6168",
            "revertMessage": "",
            "sender": "0x1705c22f61fc381e3dedf870510028b7f1831fe5",
            "simulationEnable": true,
            "sourceTxnHash": "0xb517b049253333daf52e8aa024724866267c247221edd89d884d06002fd94192",
            "status": true,
            "timestamp": "2024-05-23T14:33:59Z",
            "transactionFee": "0.001218810480417156",
            "txnHash": "0xb517b049253333daf52e8aa024724866267c247221edd89d884d06002fd94192",
            "txnIndex": 141,
            "type": 2,
            "value": "12416"
        },
        "fund_flow": [
            {
                "amount": "0.000000000000012416",
                "from": "0x1705c22f61fc381e3dedf870510028b7f1831fe5",
                "id": 1,
                "isERC1155": false,
                "isERC721": false,
                "isReverted": false,
                "order": 1,
                "to": "0x6f1cdbbb4d53d226cf4b917bf768b94acbab6168",
                "token": "0xeeeeeeeeeeeeeeeeeeeeeeeeeeeeeeeeeeeeeeee"
            },
            {
                "amount": "0.828298455125341429",
                "from": "0x32d9259e6792b2150fd50395d971864647fa27b2",
                "id": 2,
                "isERC1155": false,
                "isERC721": false,
                "isReverted": false,
                "order": 2,
                "to": "0x6f1cdbbb4d53d226cf4b917bf768b94acbab6168",
                "token": "0xc02aaa39b223fe8d0a0e5c4f27ead9083c756cc2"
            },
            {
                "amount": "390,695.61414720154261778",
                "from": "0x6f1cdbbb4d53d226cf4b917bf768b94acbab6168",
                "id": 3,
                "isERC1155": false,
                "isERC721": false,
                "isReverted": false,
                "order": 3,
                "to": "0x32d9259e6792b2150fd50395d971864647fa27b2",
                "token": "0x320623b8e4ff03373931769a31fc52a4e78b5d70"
            }
        ],
        "token_infos": [
            {
                "address": "0x320623b8e4ff03373931769a31fc52a4e78b5d70",
                "decimals": 18
            },
            {
                "address": "0xc02aaa39b223fe8d0a0e5c4f27ead9083c756cc2",
                "decimals": 18
            },
            {
                "address": "0xeeeeeeeeeeeeeeeeeeeeeeeeeeeeeeeeeeeeeeee",
                "decimals": 18
            }
        ]
    },
    "address_label": {
        "labels": [
            {
                "address": "0xeeeeeeeeeeeeeeeeeeeeeeeeeeeeeeeeeeeeeeee",
                "label": "Ether"
            },
            {
                "address": "0x6f1cdbbb4d53d226cf4b917bf768b94acbab6168",
                "label": "MEV Bot: 0x6f1\u2026168"
            },
            {
                "address": "0x0000000000000000000000000000000000000004",
                "label": "Precompiled"
            },
            {
                "address": "0xc02aaa39b223fe8d0a0e5c4f27ead9083c756cc2",
                "label": "Wrapped Ether (WETH)"
            },
            {
                "address": "0x320623b8e4ff03373931769a31fc52a4e78b5d70",
                "label": "Reserve Rights: RSR Token"
            },
            {
                "address": "0x32d9259e6792b2150fd50395d971864647fa27b2",
                "label": "Uniswap V3: RSR 3"
            },
            {
                "address": "0x0000000000000000000000000000000000000001",
                "label": "Precompiled"
            },
            {
                "address": "0x0000000000000000000000000000000000000002",
                "label": "Precompiled"
            },
            {
                "address": "0x0000000000000000000000000000000000000003",
                "label": "Precompiled"
            }
        ]
    },
    "trace": {
        "accountLabels": null,
        "dataMap": {
            "-1": {
                "invocation": {
                    "address": "0x1705c22f61fc381e3dedf870510028b7f1831fe5",
                    "callData": "",
                    "decodedMethod": null,
                    "errorInfo": "",
                    "fromAddress": "",
                    "gasUsed": 0,
                    "id": -1,
                    "methodDecoded": false,
                    "operation": "",
                    "output": "",
                    "revert": false,
                    "revertMessage": "",
                    "selector": "",
                    "status": false,
                    "value": ""
                },
                "nodeType": 0
            },
            "0": {
                "invocation": {
                    "address": "0x6f1cdbbb4d53d226cf4b917bf768b94acbab6168",
                    "callData": "0x00000000000000000000000032d9259e6792b2150fd50395d971864647fa27b2000000000000000000000000320623b8e4ff03373931769a31fc52a4e78b5d70000000000000000000000000c02aaa39b223fe8d0a0e5c4f27ead9083c756cc20000000000000000000000000000000000000000000000000000000000000bb80000000000000000000000000000000000000000000052bba6d4a0ccd3fb7ab40000000000000000000000000000000000000000000000000b7eb50e71c034f40000000000000000000000000000000000000000005f7885425b35c00000000000000000000000000000000000000000000000000000000000000000013028190000000000000000000000000000000000000000000000000000000000000000",
                    "decodedMethod": null,
                    "errorInfo": "",
                    "fromAddress": "0x1705c22f61fc381e3dedf870510028b7f1831fe5",
                    "gasUsed": 109362,
                    "id": 0,
                    "methodDecoded": false,
                    "operation": "CALL",
                    "output": "",
                    "revert": false,
                    "revertMessage": "",
                    "selector": "0xceb5748e",
                    "status": true,
                    "value": "0.000000000000012416"
                },
                "nodeType": 0
            },
            "1": {
                "invocation": {
                    "address": "0x32d9259e6792b2150fd50395d971864647fa27b2",
                    "callData": "0x0000000000000000000000006f1cdbbb4d53d226cf4b917bf768b94acbab616800000000000000000000000000000000000000000000000000000000000000010000000000000000000000000000000000000000000052bba6d4a0ccd3fb7ab40000000000000000000000000000000000000000005f7885425b35c00000000000000000000000000000000000000000000000000000000000000000000000a0000000000000000000000000000000000000000000000000000000000000002b320623b8e4ff03373931769a31fc52a4e78b5d70000bb8c02aaa39b223fe8d0a0e5c4f27ead9083c756cc2000000000000000000000000000000000000000000",
                    "decodedMethod": {
                        "callParams": [
                            {
                                "name": "recipient",
                                "type": "address",
                                "value": "0x6f1cdbbb4d53d226cf4b917bf768b94acbab6168"
                            },
                            {
                                "name": "zeroForOne",
                                "type": "bool",
                                "value": true
                            },
                            {
                                "name": "amountSpecified",
                                "type": "int256",
                                "value": "390,695,614,147,201,542,617,780"
                            },
                            {
                                "name": "sqrtPriceLimitX96",
                                "type": "uint160",
                                "value": "115,417,095,039,770,460,527,001,600"
                            },
                            {
                                "name": "data",
                                "type": "bytes",
                                "value": "0x320623b8e4ff03373931769a31fc52a4e78b5d70000bb8c02aaa39b223fe8d0a0e5c4f27ead9083c756cc2"
                            }
                        ],
                        "constructorArguments": "",
                        "name": "swap",
                        "returnParams": [
                            {
                                "name": "amount0",
                                "type": "int256",
                                "value": "390,695,614,147,201,542,617,780"
                            },
                            {
                                "name": "amount1",
                                "type": "int256",
                                "value": "-828,298,455,125,341,429"
                            }
                        ],
                        "signature": "swap(address,bool,int256,uint160,bytes)"
                    },
                    "errorInfo": "",
                    "fromAddress": "0x6f1cdbbb4d53d226cf4b917bf768b94acbab6168",
                    "gasUsed": 81060,
                    "id": 1,
                    "methodDecoded": true,
                    "operation": "CALL",
                    "output": "0x0000000000000000000000000000000000000000000052bba6d4a0ccd3fb7ab4fffffffffffffffffffffffffffffffffffffffffffffffff4814af18e3fcb0b",
                    "revert": false,
                    "revertMessage": "",
                    "selector": "0x128acb08",
                    "status": true,
                    "value": "0"
                },
                "nodeType": 0
            },
            "2": {
                "invocation": {
                    "address": "0xc02aaa39b223fe8d0a0e5c4f27ead9083c756cc2",
                    "callData": "0x0000000000000000000000006f1cdbbb4d53d226cf4b917bf768b94acbab61680000000000000000000000000000000000000000000000000b7eb50e71c034f5",
                    "decodedMethod": {
                        "callParams": [
                            {
                                "name": "dst",
                                "type": "address",
                                "value": "0x6f1cdbbb4d53d226cf4b917bf768b94acbab6168"
                            },
                            {
                                "decimalAvailable": true,
                                "name": "wad",
                                "type": "uint256",
                                "value": "828,298,455,125,341,429"
                            }
                        ],
                        "constructorArguments": "",
                        "name": "transfer",
                        "returnParams": [
                            {
                                "name": "",
                                "type": "bool",
                                "value": true
                            }
                        ],
                        "signature": "transfer(address,uint256)"
                    },
                    "errorInfo": "",
                    "fromAddress": "0x32d9259e6792b2150fd50395d971864647fa27b2",
                    "gasUsed": 12862,
                    "id": 2,
                    "methodDecoded": true,
                    "operation": "CALL",
                    "output": "0x0000000000000000000000000000000000000000000000000000000000000001",
                    "revert": false,
                    "revertMessage": "",
                    "selector": "0xa9059cbb",
                    "status": true,
                    "value": "0"
                },
                "nodeType": 0
            },
            "3": {
                "event": {
                    "contract": "0xc02aaa39b223fe8d0a0e5c4f27ead9083c756cc2",
                    "decodedLog": {
                        "name": "Transfer",
                        "params": [
                            {
                                "name": "src",
                                "type": "address",
                                "value": "0x32d9259e6792b2150fd50395d971864647fa27b2"
                            },
                            {
                                "name": "dst",
                                "type": "address",
                                "value": "0x6f1cdbbb4d53d226cf4b917bf768b94acbab6168"
                            },
                            {
                                "decimalAvailable": true,
                                "name": "wad",
                                "type": "uint256",
                                "value": "828,298,455,125,341,429"
                            }
                        ],
                        "signature": "Transfer(address,address,uint256)"
                    },
                    "id": 3,
                    "logData": "0x0000000000000000000000000000000000000000000000000b7eb50e71c034f5",
                    "logDecoded": true,
                    "operation": "EVENT",
                    "revert": false,
                    "status": true,
                    "topics": [
                        "0xddf252ad1be2c89b69c2b068fc378daa952ba7f163c4a11628f55a4df523b3ef",
                        "0x00000000000000000000000032d9259e6792b2150fd50395d971864647fa27b2",
                        "0x0000000000000000000000006f1cdbbb4d53d226cf4b917bf768b94acbab6168"
                    ]
                },
                "nodeType": 1
            },
            "4": {
                "invocation": {
                    "address": "0x320623b8e4ff03373931769a31fc52a4e78b5d70",
                    "callData": "0x00000000000000000000000032d9259e6792b2150fd50395d971864647fa27b2",
                    "decodedMethod": {
                        "callParams": [
                            {
                                "name": "account",
                                "type": "address",
                                "value": "0x32d9259e6792b2150fd50395d971864647fa27b2"
                            }
                        ],
                        "constructorArguments": "",
                        "name": "balanceOf",
                        "returnParams": [
                            {
                                "decimalAvailable": true,
                                "name": "",
                                "type": "uint256",
                                "value": "54,310,672,946,371,812,738,745,194"
                            }
                        ],
                        "signature": "balanceOf(address)"
                    },
                    "errorInfo": "",
                    "fromAddress": "0x32d9259e6792b2150fd50395d971864647fa27b2",
                    "gasUsed": 4809,
                    "id": 4,
                    "methodDecoded": true,
                    "operation": "STATICCALL",
                    "output": "0x0000000000000000000000000000000000000000002cecbb7ad96f793dfc436a",
                    "revert": false,
                    "revertMessage": "",
                    "selector": "0x70a08231",
                    "status": true,
                    "value": "0"
                },
                "nodeType": 0
            },
            "5": {
                "invocation": {
                    "address": "0x6f1cdbbb4d53d226cf4b917bf768b94acbab6168",
                    "callData": "0x0000000000000000000000000000000000000000000052bba6d4a0ccd3fb7ab4fffffffffffffffffffffffffffffffffffffffffffffffff4814af18e3fcb0b0000000000000000000000000000000000000000000000000000000000000060000000000000000000000000000000000000000000000000000000000000002b320623b8e4ff03373931769a31fc52a4e78b5d70000bb8c02aaa39b223fe8d0a0e5c4f27ead9083c756cc2000000000000000000000000000000000000000000",
                    "decodedMethod": {
                        "callParams": [
                            {
                                "name": "amount0Delta",
                                "type": "int256",
                                "value": "390,695,614,147,201,542,617,780"
                            },
                            {
                                "name": "amount1Delta",
                                "type": "int256",
                                "value": "-828,298,455,125,341,429"
                            },
                            {
                                "name": "data",
                                "type": "bytes",
                                "value": "0x320623b8e4ff03373931769a31fc52a4e78b5d70000bb8c02aaa39b223fe8d0a0e5c4f27ead9083c756cc2"
                            }
                        ],
                        "constructorArguments": "",
                        "name": "uniswapV3SwapCallback",
                        "returnParams": [],
                        "signature": "uniswapV3SwapCallback(int256,int256,bytes)"
                    },
                    "errorInfo": "",
                    "fromAddress": "0x32d9259e6792b2150fd50395d971864647fa27b2",
                    "gasUsed": 17680,
                    "id": 5,
                    "methodDecoded": true,
                    "operation": "CALL",
                    "output": "",
                    "revert": false,
                    "revertMessage": "",
                    "selector": "0xfa461e33",
                    "status": true,
                    "value": "0"
                },
                "nodeType": 0
            },
            "6": {
                "invocation": {
                    "address": "0x320623b8e4ff03373931769a31fc52a4e78b5d70",
                    "callData": "0x00000000000000000000000032d9259e6792b2150fd50395d971864647fa27b20000000000000000000000000000000000000000000052bba6d4a0ccd3fb7ab4",
                    "decodedMethod": {
                        "callParams": [
                            {
                                "name": "recipient",
                                "type": "address",
                                "value": "0x32d9259e6792b2150fd50395d971864647fa27b2"
                            },
                            {
                                "decimalAvailable": true,
                                "name": "amount",
                                "type": "uint256",
                                "value": "390,695,614,147,201,542,617,780"
                            }
                        ],
                        "constructorArguments": "",
                        "name": "transfer",
                        "returnParams": [
                            {
                                "name": "",
                                "type": "bool",
                                "value": true
                            }
                        ],
                        "signature": "transfer(address,uint256)"
                    },
                    "errorInfo": "",
                    "fromAddress": "0x6f1cdbbb4d53d226cf4b917bf768b94acbab6168",
                    "gasUsed": 15165,
                    "id": 6,
                    "methodDecoded": true,
                    "operation": "CALL",
                    "output": "0x0000000000000000000000000000000000000000000000000000000000000001",
                    "revert": false,
                    "revertMessage": "",
                    "selector": "0xa9059cbb",
                    "status": true,
                    "value": "0"
                },
                "nodeType": 0
            },
            "7": {
                "event": {
                    "contract": "0x320623b8e4ff03373931769a31fc52a4e78b5d70",
                    "decodedLog": {
                        "name": "Transfer",
                        "params": [
                            {
                                "name": "from",
                                "type": "address",
                                "value": "0x6f1cdbbb4d53d226cf4b917bf768b94acbab6168"
                            },
                            {
                                "name": "to",
                                "type": "address",
                                "value": "0x32d9259e6792b2150fd50395d971864647fa27b2"
                            },
                            {
                                "decimalAvailable": true,
                                "name": "value",
                                "type": "uint256",
                                "value": "390,695,614,147,201,542,617,780"
                            }
                        ],
                        "signature": "Transfer(address,address,uint256)"
                    },
                    "id": 7,
                    "logData": "0x0000000000000000000000000000000000000000000052bba6d4a0ccd3fb7ab4",
                    "logDecoded": true,
                    "operation": "EVENT",
                    "revert": false,
                    "status": true,
                    "topics": [
                        "0xddf252ad1be2c89b69c2b068fc378daa952ba7f163c4a11628f55a4df523b3ef",
                        "0x0000000000000000000000006f1cdbbb4d53d226cf4b917bf768b94acbab6168",
                        "0x00000000000000000000000032d9259e6792b2150fd50395d971864647fa27b2"
                    ]
                },
                "nodeType": 1
            },
            "8": {
                "invocation": {
                    "address": "0x320623b8e4ff03373931769a31fc52a4e78b5d70",
                    "callData": "0x00000000000000000000000032d9259e6792b2150fd50395d971864647fa27b2",
                    "decodedMethod": {
                        "callParams": [
                            {
                                "name": "account",
                                "type": "address",
                                "value": "0x32d9259e6792b2150fd50395d971864647fa27b2"
                            }
                        ],
                        "constructorArguments": "",
                        "name": "balanceOf",
                        "returnParams": [
                            {
                                "decimalAvailable": true,
                                "name": "",
                                "type": "uint256",
                                "value": "54,701,368,560,519,014,281,362,974"
                            }
                        ],
                        "signature": "balanceOf(address)"
                    },
                    "errorInfo": "",
                    "fromAddress": "0x32d9259e6792b2150fd50395d971864647fa27b2",
                    "gasUsed": 809,
                    "id": 8,
                    "methodDecoded": true,
                    "operation": "STATICCALL",
                    "output": "0x0000000000000000000000000000000000000000002d3f7721ae104611f7be1e",
                    "revert": false,
                    "revertMessage": "",
                    "selector": "0x70a08231",
                    "status": true,
                    "value": "0"
                },
                "nodeType": 0
            },
            "9": {
                "event": {
                    "contract": "0x32d9259e6792b2150fd50395d971864647fa27b2",
                    "decodedLog": {
                        "name": "Swap",
                        "params": [
                            {
                                "name": "sender",
                                "type": "address",
                                "value": "0x6f1cdbbb4d53d226cf4b917bf768b94acbab6168"
                            },
                            {
                                "name": "recipient",
                                "type": "address",
                                "value": "0x6f1cdbbb4d53d226cf4b917bf768b94acbab6168"
                            },
                            {
                                "name": "amount0",
                                "type": "int256",
                                "value": "390,695,614,147,201,542,617,780"
                            },
                            {
                                "name": "amount1",
                                "type": "int256",
                                "value": "-828,298,455,125,341,429"
                            },
                            {
                                "name": "sqrtPriceX96",
                                "type": "uint160",
                                "value": "115,417,095,039,770,460,527,001,600"
                            },
                            {
                                "name": "liquidity",
                                "type": "uint128",
                                "value": "282,881,854,209,876,838,630,506"
                            },
                            {
                                "name": "tick",
                                "type": "int24",
                                "value": "-130,638"
                            }
                        ],
                        "signature": "Swap(address,address,int256,int256,uint160,uint128,int24)"
                    },
                    "id": 9,
                    "logData": "0x0000000000000000000000000000000000000000000052bba6d4a0ccd3fb7ab4fffffffffffffffffffffffffffffffffffffffffffffffff4814af18e3fcb0b0000000000000000000000000000000000000000005f7885425b35c000000000000000000000000000000000000000000000000000003be70e58ef95bbfcc46afffffffffffffffffffffffffffffffffffffffffffffffffffffffffffe01b2",
                    "logDecoded": true,
                    "operation": "EVENT",
                    "revert": false,
                    "status": true,
                    "topics": [
                        "0xc42079f94a6350d7e6235f29174924f928cc2ac818eb64fed8004e115fbcca67",
                        "0x0000000000000000000000006f1cdbbb4d53d226cf4b917bf768b94acbab6168",
                        "0x0000000000000000000000006f1cdbbb4d53d226cf4b917bf768b94acbab6168"
                    ]
                },
                "nodeType": 1
            }
        },
        "gasFlame": [
            {
                "children": [
                    {
                        "children": [
                            {
                                "children": [],
                                "depth": 0,
                                "name": "Initial Gas",
                                "value": 23308
                            },
                            {
                                "children": [
                                    {
                                        "children": [
                                            {
                                                "children": [],
                                                "depth": 2,
                                                "name": "transfer",
                                                "value": 12862
                                            },
                                            {
                                                "children": [],
                                                "depth": 2,
                                                "name": "balanceOf",
                                                "value": 4809
                                            },
                                            {
                                                "children": [
                                                    {
                                                        "children": [],
                                                        "depth": 3,
                                                        "name": "transfer",
                                                        "value": 15165
                                                    }
                                                ],
                                                "depth": 2,
                                                "name": "uniswapV3SwapCallback",
                                                "value": 17680
                                            },
                                            {
                                                "children": [],
                                                "depth": 2,
                                                "name": "balanceOf",
                                                "value": 809
                                            }
                                        ],
                                        "depth": 1,
                                        "name": "swap",
                                        "value": 81060
                                    }
                                ],
                                "depth": 0,
                                "name": "Executed Gas",
                                "value": 86054
                            }
                        ],
                        "depth": -1,
                        "name": "Actual Gas Used",
                        "value": 109362
                    },
                    {
                        "children": [],
                        "depth": -1,
                        "name": "Refunded Gas",
                        "value": 0
                    }
                ],
                "depth": -2,
                "name": "Total Gas",
                "value": 109362
            }
        ],
        "isConfirmed": true,
        "mainTrace": [
            {
                "children": [
                    {
                        "children": [
                            {
                                "children": [
                                    {
                                        "children": [
                                            {
                                                "children": [],
                                                "depth": 3,
                                                "id": 3,
                                                "order": 3
                                            }
                                        ],
                                        "depth": 2,
                                        "id": 2,
                                        "order": 2
                                    },
                                    {
                                        "children": [],
                                        "depth": 2,
                                        "id": 4,
                                        "order": 4
                                    },
                                    {
                                        "children": [
                                            {
                                                "children": [
                                                    {
                                                        "children": [],
                                                        "depth": 4,
                                                        "id": 7,
                                                        "order": 7
                                                    }
                                                ],
                                                "depth": 3,
                                                "id": 6,
                                                "order": 6
                                            }
                                        ],
                                        "depth": 2,
                                        "id": 5,
                                        "order": 5
                                    },
                                    {
                                        "children": [],
                                        "depth": 2,
                                        "id": 8,
                                        "order": 8
                                    },
                                    {
                                        "children": [],
                                        "depth": 2,
                                        "id": 9,
                                        "order": 9
                                    }
                                ],
                                "depth": 1,
                                "id": 1,
                                "order": 1
                            }
                        ],
                        "depth": 0,
                        "id": 0,
                        "order": 0
                    }
                ],
                "depth": -1,
                "id": -1,
                "order": -1
            }
        ],
        "mainTraceNodeCount": 10,
        "parentIdMap": {
            "0": -1,
            "1": 0,
            "2": 1,
            "3": 2,
            "4": 1,
            "5": 1,
            "6": 5,
            "7": 6,
            "8": 1,
            "9": 1
        },
        "tidyTrace": [
            {
                "children": [
                    {
                        "children": [
                            {
                                "children": [
                                    {
                                        "children": [
                                            {
                                                "children": [],
                                                "depth": 3,
                                                "id": 3,
                                                "order": 3
                                            }
                                        ],
                                        "depth": 2,
                                        "id": 2,
                                        "order": 2
                                    },
                                    {
                                        "children": [
                                            {
                                                "children": [
                                                    {
                                                        "children": [],
                                                        "depth": 4,
                                                        "id": 7,
                                                        "order": 7
                                                    }
                                                ],
                                                "depth": 3,
                                                "id": 6,
                                                "order": 6
                                            }
                                        ],
                                        "depth": 2,
                                        "id": 5,
                                        "order": 5
                                    },
                                    {
                                        "children": [],
                                        "depth": 2,
                                        "id": 9,
                                        "order": 9
                                    }
                                ],
                                "depth": 1,
                                "id": 1,
                                "order": 1
                            }
                        ],
                        "depth": 0,
                        "id": 0,
                        "order": 0
                    }
                ],
                "depth": -1,
                "id": -1,
                "order": -1
            }
        ],
        "tidyTraceNodeCount": 8
    },
    "state_change": {
        "stateChanges": [
            {
                "address": "0x320623b8e4ff03373931769a31fc52a4e78b5d70",
                "erc": "ERC-20",
                "slots": [
                    {
                        "current": "0x0000000000000000000000000000000000000000002d3f7721ae104611f7be1e",
                        "key": "0xc8e6dba57325473b856a186c9dabeef2bc6e9ce93edfce56b1d88965f227aad4",
                        "prev": "0x0000000000000000000000000000000000000000002cecbb7ad96f793dfc436a"
                    },
                    {
                        "current": "0x00000000000000000000000000000000000000000000529b844ae24304287ea4",
                        "key": "0x2304f2fff8d165b9316d8b2fa3806548f2c1a0199c9b97a90db24ed433efbc36",
                        "prev": "0x00000000000000000000000000000000000000000000a5572b1f830fd823f958"
                    }
                ],
                "storageVariables": [
                    {
                        "name": "_balances",
                        "type": "mapping(address => uint256)",
                        "value": {
                            "pairs": [
                                {
                                    "key": "0x32d9259e6792b2150fd50395d971864647fa27b2",
                                    "value": {
                                        "current": "54701368560519014281362974",
                                        "prev": "54310672946371812738745194",
                                        "typeTag": 1
                                    }
                                },
                                {
                                    "key": "0x6f1cdbbb4d53d226cf4b917bf768b94acbab6168",
                                    "value": {
                                        "current": "390102829607074631548580",
                                        "prev": "780798443754276174166360",
                                        "typeTag": 1
                                    }
                                }
                            ],
                            "typeTag": 4
                        }
                    }
                ]
            },
            {
                "address": "0x32d9259e6792b2150fd50395d971864647fa27b2",
                "erc": "",
                "slots": [
                    {
                        "current": "0x000000000000000000000000000000819d2316e82b06006f1905a0efde2879e3",
                        "key": "0x0000000000000000000000000000000000000000000000000000000000000001",
                        "prev": "0x000000000000000000000000000000819c138c8939947f0fbfc73051e87300af"
                    },
                    {
                        "current": "0x00010000290029001ffe01b20000000000000000005f7885425b35c000000000",
                        "key": "0x0000000000000000000000000000000000000000000000000000000000000000",
                        "prev": "0x00010000290029001efe01da0000000000000000005fa9a53ba3a15fec4e1d2a"
                    },
                    {
                        "current": "0x010220b695000000000003b76e3368eaece6b1a468fff770014daee7664f53d7",
                        "key": "0x0000000000000000000000000000000000000000000000000000000000000027",
                        "prev": "0x010220b695000000000003b76c7ed638c3ab4b06f4fff770cdae2f03664eed3b"
                    }
                ],
                "storageVariables": []
            },
            {
                "address": "0xc02aaa39b223fe8d0a0e5c4f27ead9083c756cc2",
                "erc": "ERC-20",
                "slots": [
                    {
                        "current": "0x000000000000000000000000000000000000000000000016a6256f97d6521ce4",
                        "key": "0x7e30eb9dc7afa207fc50215e1f206b733ee6736b28e7b0dd2ef6cba16ab88ea0",
                        "prev": "0x0000000000000000000000000000000000000000000000169aa6ba896491e7ef"
                    },
                    {
                        "current": "0x00000000000000000000000000000000000000000000000565901b8188f7ff9c",
                        "key": "0xc1749c90fda468bd105adcac2cea517667553d765c252645951c0ebb2d7c9db8",
                        "prev": "0x000000000000000000000000000000000000000000000005710ed08ffab83491"
                    }
                ],
                "storageVariables": [
                    {
                        "name": "balanceOf",
                        "type": "mapping(address => uint256)",
                        "value": {
                            "pairs": [
                                {
                                    "key": "0x32d9259e6792b2150fd50395d971864647fa27b2",
                                    "value": {
                                        "current": "99552100006187499420",
                                        "prev": "100380398461312840849",
                                        "typeTag": 1
                                    }
                                },
                                {
                                    "key": "0x6f1cdbbb4d53d226cf4b917bf768b94acbab6168",
                                    "value": {
                                        "current": "417800467503970917604",
                                        "prev": "416972169048845576175",
                                        "typeTag": 1
                                    }
                                }
                            ],
                            "typeTag": 4
                        }
                    }
                ]
            }
        ]
    }
}