{
    "balance_change": {
        "balanceChanges": [
            {
                "account": "0xc32d11a7994529cf86e8f9d6e13b05954a0d5746",
                "assets": [
                    {
                        "address": "0x8c15ef5b4b21951d50e53e4fbda8298ffad25057",
                        "amount": "100,000",
                        "iconUrl": "https://assets.blocksec.com/icon/a049b4574d2da1d9431019c8c77859ffce04ea82ccbd4d315c294aa94fb53fc5.png",
                        "isERC1155": false,
                        "isERC721": false,
                        "sign": false,
                        "value": "41394.16125"
                    }
                ]
            },
            {
                "account": "0x1de7f84ed4edea389bcc219d2a519ff9bcc7648f",
                "assets": [
                    {
                        "address": "0x8c15ef5b4b21951d50e53e4fbda8298ffad25057",
                        "amount": "100,000",
                        "iconUrl": "https://assets.blocksec.com/icon/a049b4574d2da1d9431019c8c77859ffce04ea82ccbd4d315c294aa94fb53fc5.png",
                        "isERC1155": false,
                        "isERC721": false,
                        "sign": true,
                        "value": "41394.16125"
                    }
                ]
            }
        ]
    },
    "profile": {
        "basic_info": {
            "baseFee": "26.667822751",
            "blockNumber": 13047454,
            "callData": "0xa9059cbb0000000000000000000000001de7f84ed4edea389bcc219d2a519ff9bcc7648f00000000000000000000000000000000000000000000152d02c7e14af6800000",
            "debugEnable": true,
            "errorInfo": "",
            "eventCount": 1,
            "feeRecipient": "0x829bd824b016326a401d083b33d092293333a830",
            "formatValue": "0",
            "gasLimit": 150000,
            "gasPrice": "170",
            "gasUsed": 56952,
            "intTxnCount": 0,
            "internalRevert": false,
            "internalRevertMessage": "",
            "isContractCreation": false,
            "isFlashloan": false,
            "maxFee": "",
            "nonce": 145,
            "overwritedBlockNumber": -1,
            "priorityFee": "",
            "receiver": "0x8c15ef5b4b21951d50e53e4fbda8298ffad25057",
            "revertMessage": "",
            "sender": "0xc32d11a7994529cf86e8f9d6e13b05954a0d5746",
            "simulationEnable": true,
            "sourceTxnHash": "0xb544fc25b2c223b2193167a0f4e8c8fb2933a9f06d22179205f671a29e70858b",
            "status": true,
            "timestamp": "2021-08-18T05:49:00Z",
            "transactionFee": "0.00968184",
            "txnHash": "0xb544fc25b2c223b2193167a0f4e8c8fb2933a9f06d22179205f671a29e70858b",
            "txnIndex": 5,
            "type": 0,
            "value": "0"
        },
        "fund_flow": [
            {
                "amount": "100,000",
                "from": "0xc32d11a7994529cf86e8f9d6e13b05954a0d5746",
                "id": 1,
                "isERC1155": false,
                "isERC721": false,
                "isReverted": false,
                "order": 1,
                "to": "0x1de7f84ed4edea389bcc219d2a519ff9bcc7648f",
                "token": "0x8c15ef5b4b21951d50e53e4fbda8298ffad25057"
            }
        ],
        "token_infos": [
            {
                "address": "0x8c15ef5b4b21951d50e53e4fbda8298ffad25057",
                "decimals": 18
            },
            {
                "address": "0xc02aaa39b223fe8d0a0e5c4f27ead9083c756cc2",
                "decimals": 18
            },
            {
                "address": "0xeeeeeeeeeeeeeeeeeeeeeeeeeeeeeeeeeeeeeeee",
                "decimals": 18
            }
        ]
    },
    "address_label": {
        "labels": [
            {
                "address": "0x0000000000000000000000000000000000000003",
                "label": "Precompiled"
            },
            {
                "address": "0x0000000000000000000000000000000000000004",
                "label": "Precompiled"
            },
            {
                "address": "0xeeeeeeeeeeeeeeeeeeeeeeeeeeeeeeeeeeeeeeee",
                "label": "Ether"
            },
            {
                "address": "0x8c15ef5b4b21951d50e53e4fbda8298ffad25057",
                "label": "Function X Token"
            },
            {
                "address": "0x0000000000000000000000000000000000000001",
                "label": "Precompiled"
            },
            {
                "address": "0x0000000000000000000000000000000000000002",
                "label": "Precompiled"
            }
        ]
    },
    "trace": {
        "accountLabels": null,
        "dataMap": {
            "-1": {
                "invocation": {
                    "address": "0xc32d11a7994529cf86e8f9d6e13b05954a0d5746",
                    "callData": "",
                    "decodedMethod": null,
                    "errorInfo": "",
                    "fromAddress": "",
                    "gasUsed": 0,
                    "id": -1,
                    "methodDecoded": false,
                    "operation": "",
                    "output": "",
                    "revert": false,
                    "revertMessage": "",
                    "selector": "",
                    "status": false,
                    "value": ""
                },
                "nodeType": 0
            },
            "0": {
                "invocation": {
                    "address": "0x8c15ef5b4b21951d50e53e4fbda8298ffad25057",
                    "callData": "0x0000000000000000000000001de7f84ed4edea389bcc219d2a519ff9bcc7648f00000000000000000000000000000000000000000000152d02c7e14af6800000",
                    "decodedMethod": {
                        "callParams": [
                            {
                                "name": "_to",
                                "type": "address",
                                "value": "0x1de7f84ed4edea389bcc219d2a519ff9bcc7648f"
                            },
                            {
                                "decimalAvailable": true,
                                "name": "_value",
                                "type": "uint256",
                                "value": "100,000,000,000,000,000,000,000"
                            }
                        ],
                        "constructorArguments": "",
                        "name": "transfer",
                        "returnParams": [
                            {
                                "name": "",
                                "type": "bool",
                                "value": true
                            }
                        ],
                        "signature": "transfer(address,uint256)"
                    },
                    "errorInfo": "",
                    "fromAddress": "0xc32d11a7994529cf86e8f9d6e13b05954a0d5746",
                    "gasUsed": 56952,
                    "id": 0,
                    "methodDecoded": true,
                    "operation": "CALL",
                    "output": "0x0000000000000000000000000000000000000000000000000000000000000001",
                    "revert": false,
                    "revertMessage": "",
                    "selector": "0xa9059cbb",
                    "status": true,
                    "value": "0"
                },
                "nodeType": 0
            },
            "1": {
                "event": {
                    "contract": "0x8c15ef5b4b21951d50e53e4fbda8298ffad25057",
                    "decodedLog": {
                        "name": "Transfer",
                        "params": [
                            {
                                "name": "from",
                                "type": "address",
                                "value": "0xc32d11a7994529cf86e8f9d6e13b05954a0d5746"
                            },
                            {
                                "name": "to",
                                "type": "address",
                                "value": "0x1de7f84ed4edea389bcc219d2a519ff9bcc7648f"
                            },
                            {
                                "decimalAvailable": true,
                                "name": "value",
                                "type": "uint256",
                                "value": "100,000,000,000,000,000,000,000"
                            }
                        ],
                        "signature": "Transfer(address,address,uint256)"
                    },
                    "id": 1,
                    "logData": "0x00000000000000000000000000000000000000000000152d02c7e14af6800000",
                    "logDecoded": true,
                    "operation": "EVENT",
                    "revert": false,
                    "status": true,
                    "topics": [
                        "0xddf252ad1be2c89b69c2b068fc378daa952ba7f163c4a11628f55a4df523b3ef",
                        "0x000000000000000000000000c32d11a7994529cf86e8f9d6e13b05954a0d5746",
                        "0x0000000000000000000000001de7f84ed4edea389bcc219d2a519ff9bcc7648f"
                    ]
                },
                "nodeType": 1
            }
        },
        "gasFlame": [
            {
                "children": [
                    {
                        "children": [
                            {
                                "children": [],
                                "depth": 0,
                                "name": "Initial Gas",
                                "value": 21656
                            },
                            {
                                "children": [],
                                "depth": 0,
                                "name": "Executed Gas",
                                "value": 35296
                            }
                        ],
                        "depth": -1,
                        "name": "Actual Gas Used",
                        "value": 56952
                    },
                    {
                        "children": [],
                        "depth": -1,
                        "name": "Refunded Gas",
                        "value": 0
                    }
                ],
                "depth": -2,
                "name": "Total Gas",
                "value": 56952
            }
        ],
        "isConfirmed": true,
        "mainTrace": [
            {
                "children": [
                    {
                        "children": [
                            {
                                "children": [],
                                "depth": 1,
                                "id": 1,
                                "order": 1
                            }
                        ],
                        "depth": 0,
                        "id": 0,
                        "order": 0
                    }
                ],
                "depth": -1,
                "id": -1,
                "order": -1
            }
        ],
        "mainTraceNodeCount": 2,
        "parentIdMap": {
            "0": -1,
            "1": 0
        },
        "tidyTrace": [
            {
                "children": [
                    {
                        "children": [
                            {
                                "children": [],
                                "depth": 1,
                                "id": 1,
                                "order": 1
                            }
                        ],
                        "depth": 0,
                        "id": 0,
                        "order": 0
                    }
                ],
                "depth": -1,
                "id": -1,
                "order": -1
            }
        ],
        "tidyTraceNodeCount": 2
    },
    "state_change": {
        "stateChanges": [
            {
                "address": "0x8c15ef5b4b21951d50e53e4fbda8298ffad25057",
                "erc": "ERC-20",
                "slots": [
                    {
                        "current": "0x00000000000000000000000000000000000000000000220ace063bcbff2ff229",
                        "key": "0x75d57ce303f58f835295e5ab467dfc25a6f49467282517699fc31c778086bb10",
                        "prev": "0x000000000000000000000000000000000000000000003737d0ce1d16f5aff229"
                    },
                    {
                        "current": "0x00000000000000000000000000000000000000000000152d02c7e14af6800000",
                        "key": "0x00fb2896110e4d2544d6f7785fa555480806e1f9ad43312fdd10f46d590d1e3c",
                        "prev": "0x0000000000000000000000000000000000000000000000000000000000000000"
                    }
                ],
                "storageVariables": [
                    {
                        "name": "balances",
                        "type": "mapping(address => uint256)",
                        "value": {
                            "pairs": [
                                {
                                    "key": "0x1de7f84ed4edea389bcc219d2a519ff9bcc7648f",
                                    "value": {
                                        "current": "100000000000000000000000",
                                        "prev": "0",
                                        "typeTag": 1
                                    }
                                },
                                {
                                    "key": "0xc32d11a7994529cf86e8f9d6e13b05954a0d5746",
                                    "value": {
                                        "current": "160759773477274051932713",
                                        "prev": "260759773477274051932713",
                                        "typeTag": 1
                                    }
                                }
                            ],
                            "typeTag": 4
                        }
                    }
                ]
            }
        ]
    }
}