{
    "balance_change": {
        "balanceChanges": [
            {
                "account": "0xea5923f152c92767e5d3622a68548db9fbc38881",
                "assets": [
                    {
                        "address": "0xeeeeeeeeeeeeeeeeeeeeeeeeeeeeeeeeeeeeeeee",
                        "amount": "0.000000000000000001",
                        "iconUrl": "https://assets.blocksec.com/image/1663669189317-3.png",
                        "isERC1155": false,
                        "isERC721": false,
                        "sign": false,
                        "value": ""
                    }
                ]
            },
            {
                "account": "0x9af09991ad63814e53ffc1bccf213ee74027608b",
                "assets": [
                    {
                        "address": "0xeeeeeeeeeeeeeeeeeeeeeeeeeeeeeeeeeeeeeeee",
                        "amount": "0.000000000000000001",
                        "iconUrl": "https://assets.blocksec.com/image/1663669189317-3.png",
                        "isERC1155": false,
                        "isERC721": false,
                        "sign": true,
                        "value": ""
                    }
                ]
            }
        ]
    },
    "profile": {
        "basic_info": {
            "baseFee": "",
            "blockNumber": 1069065,
            "callData": "0x3ed48679000000000000000000000000b3089884fa970922e6c099e818a8164bd0d402d20000000000000000000000000000000000000000000000000000000056d1dab200000000000000000000000000000000000000000000000000000000000000c00000000000000000000000000000000000000000000000000000000000000120000000000000000000000000490c0dd13bfea5865ca985297cf2bed3f77beb5d00000000000000000000000000000000000000000000000000000000000000010000000000000000000000000000000000000000000000000000000000000002f6b36380673863085167e8f1d9ada92c0e157076460d56abc36e45d6c404daf940f9229d73b7b320c67a73d0417d8b3d18abfcfe4ceb981478c379ec9009a9c70000000000000000000000000000000000000000000000000000000000000001000000000000000000000000000000000000000000000000000000000000001b",
            "debugEnable": true,
            "errorInfo": "",
            "eventCount": 4,
            "feeRecipient": "0x24f03a0786f459be40c38ba1c47714e08f9947e5",
            "formatValue": "0.000000000000000001",
            "gasLimit": 250000,
            "gasPrice": "52",
            "gasUsed": 81254,
            "intTxnCount": 7,
            "internalRevert": false,
            "internalRevertMessage": "",
            "isContractCreation": false,
            "isFlashloan": false,
            "maxFee": "",
            "nonce": 6156,
            "overwritedBlockNumber": -1,
            "priorityFee": "",
            "receiver": "0x9af09991ad63814e53ffc1bccf213ee74027608b",
            "revertMessage": "",
            "sender": "0xea5923f152c92767e5d3622a68548db9fbc38881",
            "simulationEnable": true,
            "sourceTxnHash": "0xb56a8a76f4e1f802eb8a58a5fb09959b9a643f7fca586822e1a4c8abed01ab50",
            "status": true,
            "timestamp": "2016-02-27T17:20:10Z",
            "transactionFee": "0.004225208",
            "txnHash": "0xb56a8a76f4e1f802eb8a58a5fb09959b9a643f7fca586822e1a4c8abed01ab50",
            "txnIndex": 0,
            "type": 0,
            "value": "1"
        },
        "fund_flow": [
            {
                "amount": "0.000000000000000001",
                "from": "0xea5923f152c92767e5d3622a68548db9fbc38881",
                "id": 1,
                "isERC1155": false,
                "isERC721": false,
                "isReverted": false,
                "order": 1,
                "to": "0x9af09991ad63814e53ffc1bccf213ee74027608b",
                "token": "0xeeeeeeeeeeeeeeeeeeeeeeeeeeeeeeeeeeeeeeee"
            }
        ],
        "token_infos": [
            {
                "address": "0xeeeeeeeeeeeeeeeeeeeeeeeeeeeeeeeeeeeeeeee",
                "decimals": 18
            },
            {
                "address": "0xc02aaa39b223fe8d0a0e5c4f27ead9083c756cc2",
                "decimals": 18
            }
        ]
    },
    "address_label": {
        "labels": [
            {
                "address": "0x0000000000000000000000000000000000000002",
                "label": "Precompiled"
            },
            {
                "address": "0x0000000000000000000000000000000000000003",
                "label": "Precompiled"
            },
            {
                "address": "0x0000000000000000000000000000000000000004",
                "label": "Precompiled"
            },
            {
                "address": "0xeeeeeeeeeeeeeeeeeeeeeeeeeeeeeeeeeeeeeeee",
                "label": "Ether"
            },
            {
                "address": "0x276c5c6ca8507ed7bac085fc9b9521f4f54b58d3",
                "label": "ElcoinDb"
            },
            {
                "address": "0x0000000000000000000000000000000000000001",
                "label": "Precompiled"
            }
        ]
    },
    "trace": {
        "accountLabels": null,
        "dataMap": {
            "-1": {
                "invocation": {
                    "address": "0xea5923f152c92767e5d3622a68548db9fbc38881",
                    "callData": "",
                    "decodedMethod": null,
                    "errorInfo": "",
                    "fromAddress": "",
                    "gasUsed": 0,
                    "id": -1,
                    "methodDecoded": false,
                    "operation": "",
                    "output": "",
                    "revert": false,
                    "revertMessage": "",
                    "selector": "",
                    "status": false,
                    "value": ""
                },
                "nodeType": 0
            },
            "0": {
                "invocation": {
                    "address": "0x9af09991ad63814e53ffc1bccf213ee74027608b",
                    "callData": "0x000000000000000000000000b3089884fa970922e6c099e818a8164bd0d402d20000000000000000000000000000000000000000000000000000000056d1dab200000000000000000000000000000000000000000000000000000000000000c00000000000000000000000000000000000000000000000000000000000000120000000000000000000000000490c0dd13bfea5865ca985297cf2bed3f77beb5d00000000000000000000000000000000000000000000000000000000000000010000000000000000000000000000000000000000000000000000000000000002f6b36380673863085167e8f1d9ada92c0e157076460d56abc36e45d6c404daf940f9229d73b7b320c67a73d0417d8b3d18abfcfe4ceb981478c379ec9009a9c70000000000000000000000000000000000000000000000000000000000000001000000000000000000000000000000000000000000000000000000000000001b",
                    "decodedMethod": null,
                    "errorInfo": "",
                    "fromAddress": "0xea5923f152c92767e5d3622a68548db9fbc38881",
                    "gasUsed": 81254,
                    "id": 0,
                    "methodDecoded": false,
                    "operation": "CALL",
                    "output": "0x0000000000000000000000000000000000000000000000000000000000000001",
                    "revert": false,
                    "revertMessage": "",
                    "selector": "0x3ed48679",
                    "status": true,
                    "value": "0.000000000000000001"
                },
                "nodeType": 0
            },
            "1": {
                "invocation": {
                    "address": "0x1158c3c9a70e85d8358972810ed984c8e6ffcf0f",
                    "callData": "0x000000000000000000000000b3089884fa970922e6c099e818a8164bd0d402d2000000000000000000000000490c0dd13bfea5865ca985297cf2bed3f77beb5d0000000000000000000000000000000000000000000000000000000000000001",
                    "decodedMethod": {
                        "callParams": [
                            {
                                "name": "_from",
                                "type": "address",
                                "value": "0xb3089884fa970922e6c099e818a8164bd0d402d2"
                            },
                            {
                                "name": "_to",
                                "type": "address",
                                "value": "0x490c0dd13bfea5865ca985297cf2bed3f77beb5d"
                            },
                            {
                                "name": "_wad",
                                "type": "uint256",
                                "value": "1"
                            }
                        ],
                        "constructorArguments": "",
                        "name": "transfer",
                        "returnParams": [],
                        "signature": "transfer(address,address,uint256)"
                    },
                    "errorInfo": "",
                    "fromAddress": "0x9af09991ad63814e53ffc1bccf213ee74027608b",
                    "gasUsed": 49100,
                    "id": 1,
                    "methodDecoded": true,
                    "operation": "CALL",
                    "output": "0x0000000000000000000000000000000000000000000000000000000000000001",
                    "revert": false,
                    "revertMessage": "",
                    "selector": "0xbeabacc8",
                    "status": true,
                    "value": "0"
                },
                "nodeType": 0
            },
            "10": {
                "event": {
                    "contract": "0x276c5c6ca8507ed7bac085fc9b9521f4f54b58d3",
                    "decodedLog": {
                        "name": "Transaction",
                        "params": [
                            {
                                "name": "hash",
                                "type": "bytes32",
                                "value": "0x0000000000000000000000000000000000000000000000000000000000000000"
                            },
                            {
                                "name": "from",
                                "type": "address",
                                "value": "0x0000000000000000000000000000000000000000"
                            },
                            {
                                "name": "to",
                                "type": "address",
                                "value": "0x48175da4c20313bcb6b62d74937d3ff985885701"
                            },
                            {
                                "name": "time",
                                "type": "uint256",
                                "value": "0"
                            },
                            {
                                "name": "amount",
                                "type": "uint256",
                                "value": "0"
                            }
                        ],
                        "signature": "Transaction(bytes32,address,address,uint256,uint256)"
                    },
                    "id": 10,
                    "logData": "0x00000000000000000000000000000000000000000000000000000000000000000000000000000000000000000000000000000000000000000000000000000000",
                    "logDecoded": true,
                    "operation": "EVENT",
                    "revert": false,
                    "status": true,
                    "topics": [
                        "0xea0f544916910bb1ff33390cbe54a3f5d36d298328578399311cde3c9a750686",
                        "0x0000000000000000000000000000000000000000000000000000000000000000",
                        "0x0000000000000000000000000000000000000000000000000000000000000000",
                        "0x00000000000000000000000048175da4c20313bcb6b62d74937d3ff985885701"
                    ]
                },
                "nodeType": 1
            },
            "11": {
                "invocation": {
                    "address": "0x276c5c6ca8507ed7bac085fc9b9521f4f54b58d3",
                    "callData": "0x000000000000000000000000b3089884fa970922e6c099e818a8164bd0d402d2",
                    "decodedMethod": {
                        "callParams": [
                            {
                                "name": "addr",
                                "type": "address",
                                "value": "0xb3089884fa970922e6c099e818a8164bd0d402d2"
                            }
                        ],
                        "constructorArguments": "",
                        "name": "getBalance",
                        "returnParams": [
                            {
                                "name": "balance",
                                "type": "uint256",
                                "value": "503"
                            }
                        ],
                        "signature": "getBalance(address)"
                    },
                    "errorInfo": "",
                    "fromAddress": "0x1158c3c9a70e85d8358972810ed984c8e6ffcf0f",
                    "gasUsed": 479,
                    "id": 11,
                    "methodDecoded": true,
                    "operation": "CALL",
                    "output": "0x00000000000000000000000000000000000000000000000000000000000001f7",
                    "revert": false,
                    "revertMessage": "",
                    "selector": "0xf8b2cb4f",
                    "status": true,
                    "value": "0"
                },
                "nodeType": 0
            },
            "2": {
                "invocation": {
                    "address": "0x276c5c6ca8507ed7bac085fc9b9521f4f54b58d3",
                    "callData": "0x000000000000000000000000b3089884fa970922e6c099e818a8164bd0d402d2",
                    "decodedMethod": {
                        "callParams": [
                            {
                                "name": "addr",
                                "type": "address",
                                "value": "0xb3089884fa970922e6c099e818a8164bd0d402d2"
                            }
                        ],
                        "constructorArguments": "",
                        "name": "getBalance",
                        "returnParams": [
                            {
                                "name": "balance",
                                "type": "uint256",
                                "value": "504"
                            }
                        ],
                        "signature": "getBalance(address)"
                    },
                    "errorInfo": "",
                    "fromAddress": "0x1158c3c9a70e85d8358972810ed984c8e6ffcf0f",
                    "gasUsed": 479,
                    "id": 2,
                    "methodDecoded": true,
                    "operation": "CALL",
                    "output": "0x00000000000000000000000000000000000000000000000000000000000001f8",
                    "revert": false,
                    "revertMessage": "",
                    "selector": "0xf8b2cb4f",
                    "status": true,
                    "value": "0"
                },
                "nodeType": 0
            },
            "3": {
                "invocation": {
                    "address": "0x276c5c6ca8507ed7bac085fc9b9521f4f54b58d3",
                    "callData": "0x000000000000000000000000b3089884fa970922e6c099e818a8164bd0d402d2000000000000000000000000000000000000000000000000000000000000000100000000000000000000000000000000000000000000000000000000000000000000000000000000000000000000000000000000000000000000000000000000",
                    "decodedMethod": {
                        "callParams": [
                            {
                                "name": "addr",
                                "type": "address",
                                "value": "0xb3089884fa970922e6c099e818a8164bd0d402d2"
                            },
                            {
                                "name": "amount",
                                "type": "uint256",
                                "value": "1"
                            },
                            {
                                "name": "hash",
                                "type": "bytes32",
                                "value": "0x0000000000000000000000000000000000000000000000000000000000000000"
                            },
                            {
                                "name": "time",
                                "type": "uint256",
                                "value": "0"
                            }
                        ],
                        "constructorArguments": "",
                        "name": "withdraw",
                        "returnParams": [
                            {
                                "name": "res",
                                "type": "bool",
                                "value": true
                            }
                        ],
                        "signature": "withdraw(address,uint256,bytes32,uint256)"
                    },
                    "errorInfo": "",
                    "fromAddress": "0x1158c3c9a70e85d8358972810ed984c8e6ffcf0f",
                    "gasUsed": 14931,
                    "id": 3,
                    "methodDecoded": true,
                    "operation": "CALL",
                    "output": "0x0000000000000000000000000000000000000000000000000000000000000001",
                    "revert": false,
                    "revertMessage": "",
                    "selector": "0x07bc6fad",
                    "status": true,
                    "value": "0"
                },
                "nodeType": 0
            },
            "4": {
                "invocation": {
                    "address": "0x1158c3c9a70e85d8358972810ed984c8e6ffcf0f",
                    "callData": "0x",
                    "decodedMethod": null,
                    "errorInfo": "insufficient balance for transfer",
                    "fromAddress": "0x276c5c6ca8507ed7bac085fc9b9521f4f54b58d3",
                    "gasUsed": 0,
                    "id": 4,
                    "methodDecoded": false,
                    "operation": "CALL",
                    "output": "",
                    "revert": false,
                    "revertMessage": "",
                    "selector": "fallback",
                    "status": false,
                    "value": "0.000000000000000001"
                },
                "nodeType": 0
            },
            "5": {
                "event": {
                    "contract": "0x276c5c6ca8507ed7bac085fc9b9521f4f54b58d3",
                    "decodedLog": {
                        "name": "Transaction",
                        "params": [
                            {
                                "name": "hash",
                                "type": "bytes32",
                                "value": "0x0000000000000000000000000000000000000000000000000000000000000000"
                            },
                            {
                                "name": "from",
                                "type": "address",
                                "value": "0xb3089884fa970922e6c099e818a8164bd0d402d2"
                            },
                            {
                                "name": "to",
                                "type": "address",
                                "value": "0x0000000000000000000000000000000000000000"
                            },
                            {
                                "name": "time",
                                "type": "uint256",
                                "value": "0"
                            },
                            {
                                "name": "amount",
                                "type": "uint256",
                                "value": "1"
                            }
                        ],
                        "signature": "Transaction(bytes32,address,address,uint256,uint256)"
                    },
                    "id": 5,
                    "logData": "0x00000000000000000000000000000000000000000000000000000000000000000000000000000000000000000000000000000000000000000000000000000001",
                    "logDecoded": true,
                    "operation": "EVENT",
                    "revert": false,
                    "status": true,
                    "topics": [
                        "0xea0f544916910bb1ff33390cbe54a3f5d36d298328578399311cde3c9a750686",
                        "0x0000000000000000000000000000000000000000000000000000000000000000",
                        "0x000000000000000000000000b3089884fa970922e6c099e818a8164bd0d402d2",
                        "0x0000000000000000000000000000000000000000000000000000000000000000"
                    ]
                },
                "nodeType": 1
            },
            "6": {
                "invocation": {
                    "address": "0x276c5c6ca8507ed7bac085fc9b9521f4f54b58d3",
                    "callData": "0x000000000000000000000000490c0dd13bfea5865ca985297cf2bed3f77beb5d000000000000000000000000000000000000000000000000000000000000000100000000000000000000000000000000000000000000000000000000000000000000000000000000000000000000000000000000000000000000000000000000",
                    "decodedMethod": {
                        "callParams": [
                            {
                                "name": "addr",
                                "type": "address",
                                "value": "0x490c0dd13bfea5865ca985297cf2bed3f77beb5d"
                            },
                            {
                                "name": "amount",
                                "type": "uint256",
                                "value": "1"
                            },
                            {
                                "name": "hash",
                                "type": "bytes32",
                                "value": "0x0000000000000000000000000000000000000000000000000000000000000000"
                            },
                            {
                                "name": "time",
                                "type": "uint256",
                                "value": "0"
                            }
                        ],
                        "constructorArguments": "",
                        "name": "deposit",
                        "returnParams": [
                            {
                                "name": "res",
                                "type": "bool",
                                "value": true
                            }
                        ],
                        "signature": "deposit(address,uint256,bytes32,uint256)"
                    },
                    "errorInfo": "",
                    "fromAddress": "0x1158c3c9a70e85d8358972810ed984c8e6ffcf0f",
                    "gasUsed": 8060,
                    "id": 6,
                    "methodDecoded": true,
                    "operation": "CALL",
                    "output": "0x0000000000000000000000000000000000000000000000000000000000000001",
                    "revert": false,
                    "revertMessage": "",
                    "selector": "0xec2ac54e",
                    "status": true,
                    "value": "0"
                },
                "nodeType": 0
            },
            "7": {
                "event": {
                    "contract": "0x276c5c6ca8507ed7bac085fc9b9521f4f54b58d3",
                    "decodedLog": {
                        "name": "Transaction",
                        "params": [
                            {
                                "name": "hash",
                                "type": "bytes32",
                                "value": "0x0000000000000000000000000000000000000000000000000000000000000000"
                            },
                            {
                                "name": "from",
                                "type": "address",
                                "value": "0x0000000000000000000000000000000000000000"
                            },
                            {
                                "name": "to",
                                "type": "address",
                                "value": "0x490c0dd13bfea5865ca985297cf2bed3f77beb5d"
                            },
                            {
                                "name": "time",
                                "type": "uint256",
                                "value": "0"
                            },
                            {
                                "name": "amount",
                                "type": "uint256",
                                "value": "1"
                            }
                        ],
                        "signature": "Transaction(bytes32,address,address,uint256,uint256)"
                    },
                    "id": 7,
                    "logData": "0x00000000000000000000000000000000000000000000000000000000000000000000000000000000000000000000000000000000000000000000000000000001",
                    "logDecoded": true,
                    "operation": "EVENT",
                    "revert": false,
                    "status": true,
                    "topics": [
                        "0xea0f544916910bb1ff33390cbe54a3f5d36d298328578399311cde3c9a750686",
                        "0x0000000000000000000000000000000000000000000000000000000000000000",
                        "0x0000000000000000000000000000000000000000000000000000000000000000",
                        "0x000000000000000000000000490c0dd13bfea5865ca985297cf2bed3f77beb5d"
                    ]
                },
                "nodeType": 1
            },
            "8": {
                "event": {
                    "contract": "0x1158c3c9a70e85d8358972810ed984c8e6ffcf0f",
                    "decodedLog": null,
                    "id": 8,
                    "logData": "0x000000000000000000000000b3089884fa970922e6c099e818a8164bd0d402d2000000000000000000000000490c0dd13bfea5865ca985297cf2bed3f77beb5d0000000000000000000000000000000000000000000000000000000056d1daca00000000000000000000000000000000000000000000000000000000000000010000000000000000000000000000000000000000000000000000000000000000",
                    "logDecoded": false,
                    "operation": "EVENT",
                    "revert": false,
                    "status": true,
                    "topics": [
                        "0x009f837f1feddc3de305fab200310a83d2871686078dab617c02b44360c9e236"
                    ]
                },
                "nodeType": 1
            },
            "9": {
                "invocation": {
                    "address": "0x276c5c6ca8507ed7bac085fc9b9521f4f54b58d3",
                    "callData": "0x00000000000000000000000048175da4c20313bcb6b62d74937d3ff985885701000000000000000000000000000000000000000000000000000000000000000000000000000000000000000000000000000000000000000000000000000000000000000000000000000000000000000000000000000000000000000000000000",
                    "decodedMethod": {
                        "callParams": [
                            {
                                "name": "addr",
                                "type": "address",
                                "value": "0x48175da4c20313bcb6b62d74937d3ff985885701"
                            },
                            {
                                "name": "amount",
                                "type": "uint256",
                                "value": "0"
                            },
                            {
                                "name": "hash",
                                "type": "bytes32",
                                "value": "0x0000000000000000000000000000000000000000000000000000000000000000"
                            },
                            {
                                "name": "time",
                                "type": "uint256",
                                "value": "0"
                            }
                        ],
                        "constructorArguments": "",
                        "name": "deposit",
                        "returnParams": [
                            {
                                "name": "res",
                                "type": "bool",
                                "value": true
                            }
                        ],
                        "signature": "deposit(address,uint256,bytes32,uint256)"
                    },
                    "errorInfo": "",
                    "fromAddress": "0x1158c3c9a70e85d8358972810ed984c8e6ffcf0f",
                    "gasUsed": 8060,
                    "id": 9,
                    "methodDecoded": true,
                    "operation": "CALL",
                    "output": "0x0000000000000000000000000000000000000000000000000000000000000001",
                    "revert": false,
                    "revertMessage": "",
                    "selector": "0xec2ac54e",
                    "status": true,
                    "value": "0"
                },
                "nodeType": 0
            }
        },
        "gasFlame": [
            {
                "children": [
                    {
                        "children": [
                            {
                                "children": [],
                                "depth": 0,
                                "name": "Initial Gas",
                                "value": 30040
                            },
                            {
                                "children": [
                                    {
                                        "children": [
                                            {
                                                "children": [],
                                                "depth": 2,
                                                "name": "getBalance",
                                                "value": 479
                                            },
                                            {
                                                "children": [
                                                    {
                                                        "children": [],
                                                        "depth": 3,
                                                        "name": "fallback",
                                                        "value": 0
                                                    }
                                                ],
                                                "depth": 2,
                                                "name": "withdraw",
                                                "value": 14931
                                            },
                                            {
                                                "children": [],
                                                "depth": 2,
                                                "name": "deposit",
                                                "value": 8060
                                            },
                                            {
                                                "children": [],
                                                "depth": 2,
                                                "name": "deposit",
                                                "value": 8060
                                            },
                                            {
                                                "children": [],
                                                "depth": 2,
                                                "name": "getBalance",
                                                "value": 479
                                            }
                                        ],
                                        "depth": 1,
                                        "name": "transfer",
                                        "value": 49100
                                    }
                                ],
                                "depth": 0,
                                "name": "Executed Gas",
                                "value": 51214
                            }
                        ],
                        "depth": -1,
                        "name": "Actual Gas Used",
                        "value": 81254
                    },
                    {
                        "children": [],
                        "depth": -1,
                        "name": "Refunded Gas",
                        "value": 0
                    }
                ],
                "depth": -2,
                "name": "Total Gas",
                "value": 81254
            }
        ],
        "isConfirmed": true,
        "mainTrace": [
            {
                "children": [
                    {
                        "children": [
                            {
                                "children": [
                                    {
                                        "children": [],
                                        "depth": 2,
                                        "id": 2,
                                        "order": 2
                                    },
                                    {
                                        "children": [
                                            {
                                                "children": [],
                                                "depth": 3,
                                                "id": 4,
                                                "order": 4
                                            },
                                            {
                                                "children": [],
                                                "depth": 3,
                                                "id": 5,
                                                "order": 5
                                            }
                                        ],
                                        "depth": 2,
                                        "id": 3,
                                        "order": 3
                                    },
                                    {
                                        "children": [
                                            {
                                                "children": [],
                                                "depth": 3,
                                                "id": 7,
                                                "order": 7
                                            }
                                        ],
                                        "depth": 2,
                                        "id": 6,
                                        "order": 6
                                    },
                                    {
                                        "children": [],
                                        "depth": 2,
                                        "id": 8,
                                        "order": 8
                                    },
                                    {
                                        "children": [
                                            {
                                                "children": [],
                                                "depth": 3,
                                                "id": 10,
                                                "order": 10
                                            }
                                        ],
                                        "depth": 2,
                                        "id": 9,
                                        "order": 9
                                    },
                                    {
                                        "children": [],
                                        "depth": 2,
                                        "id": 11,
                                        "order": 11
                                    }
                                ],
                                "depth": 1,
                                "id": 1,
                                "order": 1
                            }
                        ],
                        "depth": 0,
                        "id": 0,
                        "order": 0
                    }
                ],
                "depth": -1,
                "id": -1,
                "order": -1
            }
        ],
        "mainTraceNodeCount": 12,
        "parentIdMap": {
            "0": -1,
            "1": 0,
            "10": 9,
            "11": 1,
            "2": 1,
            "3": 1,
            "4": 3,
            "5": 3,
            "6": 1,
            "7": 6,
            "8": 1,
            "9": 1
        },
        "tidyTrace": [
            {
                "children": [
                    {
                        "children": [
                            {
                                "children": [
                                    {
                                        "children": [],
                                        "depth": 2,
                                        "id": 2,
                                        "order": 2
                                    },
                                    {
                                        "children": [
                                            {
                                                "children": [],
                                                "depth": 3,
                                                "id": 4,
                                                "order": 4
                                            },
                                            {
                                                "children": [],
                                                "depth": 3,
                                                "id": 5,
                                                "order": 5
                                            }
                                        ],
                                        "depth": 2,
                                        "id": 3,
                                        "order": 3
                                    },
                                    {
                                        "children": [
                                            {
                                                "children": [],
                                                "depth": 3,
                                                "id": 7,
                                                "order": 7
                                            }
                                        ],
                                        "depth": 2,
                                        "id": 6,
                                        "order": 6
                                    },
                                    {
                                        "children": [],
                                        "depth": 2,
                                        "id": 8,
                                        "order": 8
                                    },
                                    {
                                        "children": [
                                            {
                                                "children": [],
                                                "depth": 3,
                                                "id": 10,
                                                "order": 10
                                            }
                                        ],
                                        "depth": 2,
                                        "id": 9,
                                        "order": 9
                                    },
                                    {
                                        "children": [],
                                        "depth": 2,
                                        "id": 11,
                                        "order": 11
                                    }
                                ],
                                "depth": 1,
                                "id": 1,
                                "order": 1
                            }
                        ],
                        "depth": 0,
                        "id": 0,
                        "order": 0
                    }
                ],
                "depth": -1,
                "id": -1,
                "order": -1
            }
        ],
        "tidyTraceNodeCount": 12
    },
    "state_change": {
        "stateChanges": [
            {
                "address": "0x1158c3c9a70e85d8358972810ed984c8e6ffcf0f",
                "erc": "",
                "slots": [
                    {
                        "current": "0x0000000000000000000000000000000000000000000000000000000000000178",
                        "key": "0x0000000000000000000000000000000000000000000000000000000000000012",
                        "prev": "0x0000000000000000000000000000000000000000000000000000000000000177"
                    },
                    {
                        "current": "0x00000000000000000000000000000000000000000000000000000000000001f7",
                        "key": "0xb4d0be43f0989f1bad469b7e8bce1b93d002d7a03717bb1ac9785bb4e57086cb",
                        "prev": "0x00000000000000000000000000000000000000000000000000000000000001f8"
                    }
                ],
                "storageVariables": []
            },
            {
                "address": "0x276c5c6ca8507ed7bac085fc9b9521f4f54b58d3",
                "erc": "",
                "slots": [
                    {
                        "current": "0x00000000000000000000000000000000000000000000000000000000000001f7",
                        "key": "0x4d4eed5a0334d9660060d073b69bd138996333d774eb7f9e8c00ecb6dc01e075",
                        "prev": "0x00000000000000000000000000000000000000000000000000000000000001f8"
                    },
                    {
                        "current": "0x00000000000000000000000000000000000000000000000000000ce9d87dadf7",
                        "key": "0xe1907d05d546e70e25c8fc9276e6476c20c903fbeb6bbf7b886697c65dc66a09",
                        "prev": "0x00000000000000000000000000000000000000000000000000000ce9d87dadf6"
                    }
                ],
                "storageVariables": []
            }
        ]
    }
}