{
    "balance_change": {
        "balanceChanges": []
    },
    "profile": {
        "basic_info": {
            "baseFee": "",
            "blockNumber": 7123000,
            "callData": "0x095ea7b3000000000000000000000000e0569fd1c3f0affd7e08131a16c06f3381c9355a0000000000000000000000000000000000000000000000000000000e754df6c4",
            "debugEnable": true,
            "errorInfo": "",
            "eventCount": 1,
            "feeRecipient": "0x5a0b54d5dc17e0aadc383d2db43b0a0d3e029c4c",
            "formatValue": "0",
            "gasLimit": 145891,
            "gasPrice": "6",
            "gasUsed": 45891,
            "intTxnCount": 0,
            "internalRevert": false,
            "internalRevertMessage": "",
            "isContractCreation": false,
            "isFlashloan": false,
            "maxFee": "",
            "nonce": 8965,
            "overwritedBlockNumber": -1,
            "priorityFee": "",
            "receiver": "0xf433089366899d83a9f26a773d59ec7ecf30355e",
            "revertMessage": "",
            "sender": "0x8ebd10fe696288c6ed1e024064fdf54541aa63e0",
            "simulationEnable": true,
            "sourceTxnHash": "0xb553ffbb682e282cbb4f16a29bfe32ce9426da8fcf934a17ae699f11abb38c44",
            "status": true,
            "timestamp": "2019-01-25T07:54:24Z",
            "transactionFee": "0.000275346",
            "txnHash": "0xb553ffbb682e282cbb4f16a29bfe32ce9426da8fcf934a17ae699f11abb38c44",
            "txnIndex": 55,
            "type": 0,
            "value": "0"
        },
        "fund_flow": [],
        "token_infos": [
            {
                "address": "0xeeeeeeeeeeeeeeeeeeeeeeeeeeeeeeeeeeeeeeee",
                "decimals": 18
            },
            {
                "address": "0xc02aaa39b223fe8d0a0e5c4f27ead9083c756cc2",
                "decimals": 18
            }
        ]
    },
    "address_label": {
        "labels": [
            {
                "address": "0xe0569fd1c3f0affd7e08131a16c06f3381c9355a",
                "label": "Bancor: Converter 92"
            },
            {
                "address": "0xf433089366899d83a9f26a773d59ec7ecf30355e",
                "label": "Metal: MTL Token"
            },
            {
                "address": "0x0000000000000000000000000000000000000001",
                "label": "Precompiled"
            },
            {
                "address": "0x0000000000000000000000000000000000000002",
                "label": "Precompiled"
            },
            {
                "address": "0x0000000000000000000000000000000000000003",
                "label": "Precompiled"
            },
            {
                "address": "0x0000000000000000000000000000000000000004",
                "label": "Precompiled"
            },
            {
                "address": "0xeeeeeeeeeeeeeeeeeeeeeeeeeeeeeeeeeeeeeeee",
                "label": "Ether"
            }
        ]
    },
    "trace": {
        "accountLabels": null,
        "dataMap": {
            "-1": {
                "invocation": {
                    "address": "0x8ebd10fe696288c6ed1e024064fdf54541aa63e0",
                    "callData": "",
                    "decodedMethod": null,
                    "errorInfo": "",
                    "fromAddress": "",
                    "gasUsed": 0,
                    "id": -1,
                    "methodDecoded": false,
                    "operation": "",
                    "output": "",
                    "revert": false,
                    "revertMessage": "",
                    "selector": "",
                    "status": false,
                    "value": ""
                },
                "nodeType": 0
            },
            "0": {
                "invocation": {
                    "address": "0xf433089366899d83a9f26a773d59ec7ecf30355e",
                    "callData": "0x000000000000000000000000e0569fd1c3f0affd7e08131a16c06f3381c9355a0000000000000000000000000000000000000000000000000000000e754df6c4",
                    "decodedMethod": {
                        "callParams": [
                            {
                                "name": "_spender",
                                "type": "address",
                                "value": "0xe0569fd1c3f0affd7e08131a16c06f3381c9355a"
                            },
                            {
                                "decimalAvailable": true,
                                "name": "_value",
                                "type": "uint256",
                                "value": "62,097,585,860"
                            }
                        ],
                        "constructorArguments": "",
                        "name": "approve",
                        "returnParams": [],
                        "signature": "approve(address,uint256)"
                    },
                    "errorInfo": "",
                    "fromAddress": "0x8ebd10fe696288c6ed1e024064fdf54541aa63e0",
                    "gasUsed": 45891,
                    "id": 0,
                    "methodDecoded": true,
                    "operation": "CALL",
                    "output": "",
                    "revert": false,
                    "revertMessage": "",
                    "selector": "0x095ea7b3",
                    "status": true,
                    "value": "0"
                },
                "nodeType": 0
            },
            "1": {
                "event": {
                    "contract": "0xf433089366899d83a9f26a773d59ec7ecf30355e",
                    "decodedLog": {
                        "name": "Approval",
                        "params": [
                            {
                                "name": "owner",
                                "type": "address",
                                "value": "0x8ebd10fe696288c6ed1e024064fdf54541aa63e0"
                            },
                            {
                                "name": "spender",
                                "type": "address",
                                "value": "0xe0569fd1c3f0affd7e08131a16c06f3381c9355a"
                            },
                            {
                                "decimalAvailable": true,
                                "name": "value",
                                "type": "uint256",
                                "value": "62,097,585,860"
                            }
                        ],
                        "signature": "Approval(address,address,uint256)"
                    },
                    "id": 1,
                    "logData": "0x0000000000000000000000000000000000000000000000000000000e754df6c4",
                    "logDecoded": true,
                    "operation": "EVENT",
                    "revert": false,
                    "status": true,
                    "topics": [
                        "0x8c5be1e5ebec7d5bd14f71427d1e84f3dd0314c0f7b2291e5b200ac8c7c3b925",
                        "0x0000000000000000000000008ebd10fe696288c6ed1e024064fdf54541aa63e0",
                        "0x000000000000000000000000e0569fd1c3f0affd7e08131a16c06f3381c9355a"
                    ]
                },
                "nodeType": 1
            }
        },
        "gasFlame": [
            {
                "children": [
                    {
                        "children": [
                            {
                                "children": [],
                                "depth": 0,
                                "name": "Initial Gas",
                                "value": 23128
                            },
                            {
                                "children": [],
                                "depth": 0,
                                "name": "Executed Gas",
                                "value": 22763
                            }
                        ],
                        "depth": -1,
                        "name": "Actual Gas Used",
                        "value": 45891
                    },
                    {
                        "children": [],
                        "depth": -1,
                        "name": "Refunded Gas",
                        "value": 0
                    }
                ],
                "depth": -2,
                "name": "Total Gas",
                "value": 45891
            }
        ],
        "isConfirmed": true,
        "mainTrace": [
            {
                "children": [
                    {
                        "children": [
                            {
                                "children": [],
                                "depth": 1,
                                "id": 1,
                                "order": 1
                            }
                        ],
                        "depth": 0,
                        "id": 0,
                        "order": 0
                    }
                ],
                "depth": -1,
                "id": -1,
                "order": -1
            }
        ],
        "mainTraceNodeCount": 2,
        "parentIdMap": {
            "0": -1,
            "1": 0
        },
        "tidyTrace": [
            {
                "children": [
                    {
                        "children": [
                            {
                                "children": [],
                                "depth": 1,
                                "id": 1,
                                "order": 1
                            }
                        ],
                        "depth": 0,
                        "id": 0,
                        "order": 0
                    }
                ],
                "depth": -1,
                "id": -1,
                "order": -1
            }
        ],
        "tidyTraceNodeCount": 2
    },
    "state_change": {
        "stateChanges": [
            {
                "address": "0xf433089366899d83a9f26a773d59ec7ecf30355e",
                "erc": "ERC-20",
                "slots": [
                    {
                        "current": "0x0000000000000000000000000000000000000000000000000000000e754df6c4",
                        "key": "0xe37fa7f189c6fb5a85a5823556210af37fdbb2f173d37e9d0db7b976af8e8f35",
                        "prev": "0x0000000000000000000000000000000000000000000000000000000000000000"
                    }
                ],
                "storageVariables": []
            }
        ]
    }
}