{
    "balance_change": {
        "balanceChanges": [
            {
                "account": "0x7c7b6e8ab7eafceed5c873cbf430eb589e097594",
                "assets": [
                    {
                        "address": "0xa37d94e80eab7a5bcb6d2e76b7666e341e4b58f6",
                        "amount": "10,644.119199999999868928",
                        "iconUrl": "",
                        "isERC1155": false,
                        "isERC721": false,
                        "sign": false,
                        "value": ""
                    }
                ]
            },
            {
                "account": "0x4be63b2e7aacbf02df8aeebf30a477bed7e8cb93",
                "assets": [
                    {
                        "address": "0xa37d94e80eab7a5bcb6d2e76b7666e341e4b58f6",
                        "amount": "10,644.119199999999868928",
                        "iconUrl": "",
                        "isERC1155": false,
                        "isERC721": false,
                        "sign": true,
                        "value": ""
                    }
                ]
            }
        ]
    },
    "profile": {
        "basic_info": {
            "baseFee": "",
            "blockNumber": 8094877,
            "callData": "0xa9059cbb0000000000000000000000004be63b2e7aacbf02df8aeebf30a477bed7e8cb9300000000000000000000000000000000000000000000024104d3e17083080000",
            "debugEnable": true,
            "errorInfo": "",
            "eventCount": 1,
            "feeRecipient": "0xaa5c4244f05c92781c4f259913319d8ba1acf05e",
            "formatValue": "0",
            "gasLimit": 60000,
            "gasPrice": "25",
            "gasUsed": 22261,
            "intTxnCount": 0,
            "internalRevert": false,
            "internalRevertMessage": "",
            "isContractCreation": false,
            "isFlashloan": false,
            "maxFee": "",
            "nonce": 20,
            "overwritedBlockNumber": -1,
            "priorityFee": "",
            "receiver": "0xa37d94e80eab7a5bcb6d2e76b7666e341e4b58f6",
            "revertMessage": "",
            "sender": "0x7c7b6e8ab7eafceed5c873cbf430eb589e097594",
            "simulationEnable": true,
            "sourceTxnHash": "0xb6f63fdf5c8bb881d939519dd0f8fbe5f14d51d81801ca6ec459307875fd16d5",
            "status": true,
            "timestamp": "2019-07-06T02:00:09Z",
            "transactionFee": "0.000556525",
            "txnHash": "0xb6f63fdf5c8bb881d939519dd0f8fbe5f14d51d81801ca6ec459307875fd16d5",
            "txnIndex": 57,
            "type": 0,
            "value": "0"
        },
        "fund_flow": [
            {
                "amount": "10,644.119199999999868928",
                "from": "0x7c7b6e8ab7eafceed5c873cbf430eb589e097594",
                "id": 1,
                "isERC1155": false,
                "isERC721": false,
                "isReverted": false,
                "order": 1,
                "to": "0x4be63b2e7aacbf02df8aeebf30a477bed7e8cb93",
                "token": "0xa37d94e80eab7a5bcb6d2e76b7666e341e4b58f6"
            }
        ],
        "token_infos": [
            {
                "address": "0xa37d94e80eab7a5bcb6d2e76b7666e341e4b58f6",
                "decimals": 18
            },
            {
                "address": "0xc02aaa39b223fe8d0a0e5c4f27ead9083c756cc2",
                "decimals": 18
            },
            {
                "address": "0xeeeeeeeeeeeeeeeeeeeeeeeeeeeeeeeeeeeeeeee",
                "decimals": 18
            }
        ]
    },
    "address_label": {
        "labels": [
            {
                "address": "0xeeeeeeeeeeeeeeeeeeeeeeeeeeeeeeeeeeeeeeee",
                "label": "Ether"
            },
            {
                "address": "0xa37d94e80eab7a5bcb6d2e76b7666e341e4b58f6",
                "label": "PFC"
            },
            {
                "address": "0x0000000000000000000000000000000000000001",
                "label": "Precompiled"
            },
            {
                "address": "0x0000000000000000000000000000000000000002",
                "label": "Precompiled"
            },
            {
                "address": "0x0000000000000000000000000000000000000003",
                "label": "Precompiled"
            },
            {
                "address": "0x0000000000000000000000000000000000000004",
                "label": "Precompiled"
            }
        ]
    },
    "trace": {
        "accountLabels": null,
        "dataMap": {
            "-1": {
                "invocation": {
                    "address": "0x7c7b6e8ab7eafceed5c873cbf430eb589e097594",
                    "callData": "",
                    "decodedMethod": null,
                    "errorInfo": "",
                    "fromAddress": "",
                    "gasUsed": 0,
                    "id": -1,
                    "methodDecoded": false,
                    "operation": "",
                    "output": "",
                    "revert": false,
                    "revertMessage": "",
                    "selector": "",
                    "status": false,
                    "value": ""
                },
                "nodeType": 0
            },
            "0": {
                "invocation": {
                    "address": "0xa37d94e80eab7a5bcb6d2e76b7666e341e4b58f6",
                    "callData": "0x0000000000000000000000004be63b2e7aacbf02df8aeebf30a477bed7e8cb9300000000000000000000000000000000000000000000024104d3e17083080000",
                    "decodedMethod": {
                        "callParams": [
                            {
                                "name": "dst",
                                "type": "address",
                                "value": "0x4be63b2e7aacbf02df8aeebf30a477bed7e8cb93"
                            },
                            {
                                "decimalAvailable": true,
                                "name": "wad",
                                "type": "uint256",
                                "value": "10,644,119,199,999,999,868,928"
                            }
                        ],
                        "constructorArguments": "",
                        "name": "transfer",
                        "returnParams": [
                            {
                                "name": "",
                                "type": "bool",
                                "value": true
                            }
                        ],
                        "signature": "transfer(address,uint256)"
                    },
                    "errorInfo": "",
                    "fromAddress": "0x7c7b6e8ab7eafceed5c873cbf430eb589e097594",
                    "gasUsed": 22261,
                    "id": 0,
                    "methodDecoded": true,
                    "operation": "CALL",
                    "output": "0x0000000000000000000000000000000000000000000000000000000000000001",
                    "revert": false,
                    "revertMessage": "",
                    "selector": "0xa9059cbb",
                    "status": true,
                    "value": "0"
                },
                "nodeType": 0
            },
            "1": {
                "event": {
                    "contract": "0xa37d94e80eab7a5bcb6d2e76b7666e341e4b58f6",
                    "decodedLog": {
                        "name": "Transfer",
                        "params": [
                            {
                                "name": "from",
                                "type": "address",
                                "value": "0x7c7b6e8ab7eafceed5c873cbf430eb589e097594"
                            },
                            {
                                "name": "to",
                                "type": "address",
                                "value": "0x4be63b2e7aacbf02df8aeebf30a477bed7e8cb93"
                            },
                            {
                                "decimalAvailable": true,
                                "name": "value",
                                "type": "uint256",
                                "value": "10,644,119,199,999,999,868,928"
                            }
                        ],
                        "signature": "Transfer(address,address,uint256)"
                    },
                    "id": 1,
                    "logData": "0x00000000000000000000000000000000000000000000024104d3e17083080000",
                    "logDecoded": true,
                    "operation": "EVENT",
                    "revert": false,
                    "status": true,
                    "topics": [
                        "0xddf252ad1be2c89b69c2b068fc378daa952ba7f163c4a11628f55a4df523b3ef",
                        "0x0000000000000000000000007c7b6e8ab7eafceed5c873cbf430eb589e097594",
                        "0x0000000000000000000000004be63b2e7aacbf02df8aeebf30a477bed7e8cb93"
                    ]
                },
                "nodeType": 1
            }
        },
        "gasFlame": [
            {
                "children": [
                    {
                        "children": [
                            {
                                "children": [],
                                "depth": 0,
                                "name": "Initial Gas",
                                "value": 23320
                            },
                            {
                                "children": [],
                                "depth": 0,
                                "name": "Executed Gas",
                                "value": 13941
                            }
                        ],
                        "depth": -1,
                        "name": "Actual Gas Used",
                        "value": 22261
                    },
                    {
                        "children": [],
                        "depth": -1,
                        "name": "Refunded Gas",
                        "value": 15000
                    }
                ],
                "depth": -2,
                "name": "Total Gas",
                "value": 37261
            }
        ],
        "isConfirmed": true,
        "mainTrace": [
            {
                "children": [
                    {
                        "children": [
                            {
                                "children": [],
                                "depth": 1,
                                "id": 1,
                                "order": 1
                            }
                        ],
                        "depth": 0,
                        "id": 0,
                        "order": 0
                    }
                ],
                "depth": -1,
                "id": -1,
                "order": -1
            }
        ],
        "mainTraceNodeCount": 2,
        "parentIdMap": {
            "0": -1,
            "1": 0
        },
        "tidyTrace": [
            {
                "children": [
                    {
                        "children": [
                            {
                                "children": [],
                                "depth": 1,
                                "id": 1,
                                "order": 1
                            }
                        ],
                        "depth": 0,
                        "id": 0,
                        "order": 0
                    }
                ],
                "depth": -1,
                "id": -1,
                "order": -1
            }
        ],
        "tidyTraceNodeCount": 2
    },
    "state_change": {
        "stateChanges": [
            {
                "address": "0xa37d94e80eab7a5bcb6d2e76b7666e341e4b58f6",
                "erc": "ERC-20",
                "slots": [
                    {
                        "current": "0x000000000000000000000000000000000000000000002fe0e8bf8423332d7f00",
                        "key": "0x2f6a04a8bc311685887238a9462f2dee587c7e09e3ab1e04b7b362a0c0099ce7",
                        "prev": "0x000000000000000000000000000000000000000000002d9fe3eba2b2b0257f00"
                    },
                    {
                        "current": "0x0000000000000000000000000000000000000000000000000000000000000000",
                        "key": "0x8f72f08464010b8edb23b97e314ba8438210c01460a6f57ccc69db9656315c0d",
                        "prev": "0x00000000000000000000000000000000000000000000024104d3e17083080000"
                    }
                ],
                "storageVariables": [
                    {
                        "name": "_balances",
                        "type": "mapping(address => uint256)",
                        "value": {
                            "pairs": [
                                {
                                    "key": "0x4be63b2e7aacbf02df8aeebf30a477bed7e8cb93",
                                    "value": {
                                        "current": "226100066636208332963584",
                                        "prev": "215455947436208333094656",
                                        "typeTag": 1
                                    }
                                },
                                {
                                    "key": "0x7c7b6e8ab7eafceed5c873cbf430eb589e097594",
                                    "value": {
                                        "current": "0",
                                        "prev": "10644119199999999868928",
                                        "typeTag": 1
                                    }
                                }
                            ],
                            "typeTag": 4
                        }
                    }
                ]
            }
        ]
    }
}