{
    "balance_change": {
        "balanceChanges": [
            {
                "account": "0xe5d7ccc5fc3b3216c4dff3a59442f1d83038468c",
                "assets": [
                    {
                        "address": "0x05f4a42e251f2d52b8ed15e9fedaacfcef1fad27",
                        "amount": "500,000",
                        "iconUrl": "https://assets.blocksec.com/icon/41e7d6f562fab8f17a7802f65520573065a2d28ca28993dbc65f96bb78409501.png",
                        "isERC1155": false,
                        "isERC721": false,
                        "sign": true,
                        "value": ""
                    }
                ]
            },
            {
                "account": "0xd9a3ad99039cbbfaa5f951486fdfe83d25310261",
                "assets": [
                    {
                        "address": "0x05f4a42e251f2d52b8ed15e9fedaacfcef1fad27",
                        "amount": "500,000",
                        "iconUrl": "https://assets.blocksec.com/icon/41e7d6f562fab8f17a7802f65520573065a2d28ca28993dbc65f96bb78409501.png",
                        "isERC1155": false,
                        "isERC721": false,
                        "sign": false,
                        "value": ""
                    }
                ]
            }
        ]
    },
    "profile": {
        "basic_info": {
            "baseFee": "",
            "blockNumber": 7152422,
            "callData": "0x2da03409000000000000000000000000d9a3ad99039cbbfaa5f951486fdfe83d2531026100000000000000000000000005f4a42e251f2d52b8ed15e9fedaacfcef1fad27",
            "debugEnable": true,
            "errorInfo": "",
            "eventCount": 2,
            "feeRecipient": "0x5a0b54d5dc17e0aadc383d2db43b0a0d3e029c4c",
            "formatValue": "0",
            "gasLimit": 500000,
            "gasPrice": "13.5",
            "gasUsed": 36004,
            "intTxnCount": 4,
            "internalRevert": false,
            "internalRevertMessage": "",
            "isContractCreation": false,
            "isFlashloan": false,
            "maxFee": "",
            "nonce": 13189,
            "overwritedBlockNumber": -1,
            "priorityFee": "",
            "receiver": "0xe5d7ccc5fc3b3216c4dff3a59442f1d83038468c",
            "revertMessage": "",
            "sender": "0x32b56fc48684fa085df8c4cd2feaafc25c304db9",
            "simulationEnable": true,
            "sourceTxnHash": "0xb6f415df41640cdee039ac38c5825764d79c33446f96f881b5e136c0ec19b583",
            "status": true,
            "timestamp": "2019-01-31T06:03:40Z",
            "transactionFee": "0.000486054",
            "txnHash": "0xb6f415df41640cdee039ac38c5825764d79c33446f96f881b5e136c0ec19b583",
            "txnIndex": 124,
            "type": 0,
            "value": "0"
        },
        "fund_flow": [
            {
                "amount": "500,000",
                "from": "0xd9a3ad99039cbbfaa5f951486fdfe83d25310261",
                "id": 1,
                "isERC1155": false,
                "isERC721": false,
                "isReverted": false,
                "order": 1,
                "to": "0xe5d7ccc5fc3b3216c4dff3a59442f1d83038468c",
                "token": "0x05f4a42e251f2d52b8ed15e9fedaacfcef1fad27"
            }
        ],
        "token_infos": [
            {
                "address": "0x05f4a42e251f2d52b8ed15e9fedaacfcef1fad27",
                "decimals": 12
            },
            {
                "address": "0xc02aaa39b223fe8d0a0e5c4f27ead9083c756cc2",
                "decimals": 18
            },
            {
                "address": "0xeeeeeeeeeeeeeeeeeeeeeeeeeeeeeeeeeeeeeeee",
                "decimals": 18
            }
        ]
    },
    "address_label": {
        "labels": [
            {
                "address": "0x05f4a42e251f2d52b8ed15e9fedaacfcef1fad27",
                "label": "Zilliqa Token"
            },
            {
                "address": "0xe5d7ccc5fc3b3216c4dff3a59442f1d83038468c",
                "label": "Korbit 6"
            },
            {
                "address": "0xd9a3ad99039cbbfaa5f951486fdfe83d25310261",
                "label": "Forwarder"
            },
            {
                "address": "0x0000000000000000000000000000000000000002",
                "label": "Precompiled"
            },
            {
                "address": "0xeeeeeeeeeeeeeeeeeeeeeeeeeeeeeeeeeeeeeeee",
                "label": "Ether"
            },
            {
                "address": "0x5b9e8728e316bbeb692d22daaab74f6cbf2c4691",
                "label": "WalletSimple"
            },
            {
                "address": "0x0000000000000000000000000000000000000001",
                "label": "Precompiled"
            },
            {
                "address": "0x0000000000000000000000000000000000000003",
                "label": "Precompiled"
            },
            {
                "address": "0x0000000000000000000000000000000000000004",
                "label": "Precompiled"
            }
        ]
    },
    "trace": {
        "accountLabels": null,
        "dataMap": {
            "-1": {
                "invocation": {
                    "address": "0x32b56fc48684fa085df8c4cd2feaafc25c304db9",
                    "callData": "",
                    "decodedMethod": null,
                    "errorInfo": "",
                    "fromAddress": "",
                    "gasUsed": 0,
                    "id": -1,
                    "methodDecoded": false,
                    "operation": "",
                    "output": "",
                    "revert": false,
                    "revertMessage": "",
                    "selector": "",
                    "status": false,
                    "value": ""
                },
                "nodeType": 0
            },
            "0": {
                "invocation": {
                    "address": "0xe5d7ccc5fc3b3216c4dff3a59442f1d83038468c",
                    "callData": "0x000000000000000000000000d9a3ad99039cbbfaa5f951486fdfe83d2531026100000000000000000000000005f4a42e251f2d52b8ed15e9fedaacfcef1fad27",
                    "decodedMethod": {
                        "callParams": [
                            {
                                "name": "forwarderAddress",
                                "type": "address",
                                "value": "0xd9a3ad99039cbbfaa5f951486fdfe83d25310261"
                            },
                            {
                                "name": "tokenContractAddress",
                                "type": "address",
                                "value": "0x05f4a42e251f2d52b8ed15e9fedaacfcef1fad27"
                            }
                        ],
                        "constructorArguments": "",
                        "name": "flushForwarderTokens",
                        "returnParams": [],
                        "signature": "flushForwarderTokens(address,address)"
                    },
                    "errorInfo": "",
                    "fromAddress": "0x32b56fc48684fa085df8c4cd2feaafc25c304db9",
                    "gasUsed": 36004,
                    "id": 0,
                    "methodDecoded": true,
                    "operation": "CALL",
                    "output": "0x2da03409000000000000000000000000d9a3ad99039cbbfaa5f951486fdfe83d",
                    "revert": false,
                    "revertMessage": "",
                    "selector": "0x2da03409",
                    "status": true,
                    "value": "0"
                },
                "nodeType": 0
            },
            "1": {
                "invocation": {
                    "address": "0x5b9e8728e316bbeb692d22daaab74f6cbf2c4691",
                    "callData": "0x000000000000000000000000d9a3ad99039cbbfaa5f951486fdfe83d2531026100000000000000000000000005f4a42e251f2d52b8ed15e9fedaacfcef1fad27",
                    "decodedMethod": {
                        "callParams": [
                            {
                                "name": "forwarderAddress",
                                "type": "address",
                                "value": "0xd9a3ad99039cbbfaa5f951486fdfe83d25310261"
                            },
                            {
                                "name": "tokenContractAddress",
                                "type": "address",
                                "value": "0x05f4a42e251f2d52b8ed15e9fedaacfcef1fad27"
                            }
                        ],
                        "constructorArguments": "",
                        "name": "flushForwarderTokens",
                        "returnParams": [],
                        "signature": "flushForwarderTokens(address,address)"
                    },
                    "errorInfo": "",
                    "fromAddress": "0xe5d7ccc5fc3b3216c4dff3a59442f1d83038468c",
                    "gasUsed": 26139,
                    "id": 1,
                    "methodDecoded": true,
                    "operation": "DELEGATECALL",
                    "output": "",
                    "revert": false,
                    "revertMessage": "",
                    "selector": "0x2da03409",
                    "status": true,
                    "value": "0"
                },
                "nodeType": 0
            },
            "2": {
                "invocation": {
                    "address": "0xd9a3ad99039cbbfaa5f951486fdfe83d25310261",
                    "callData": "0x00000000000000000000000005f4a42e251f2d52b8ed15e9fedaacfcef1fad27",
                    "decodedMethod": {
                        "callParams": [
                            {
                                "name": "tokenContractAddress",
                                "type": "address",
                                "value": "0x05f4a42e251f2d52b8ed15e9fedaacfcef1fad27"
                            }
                        ],
                        "constructorArguments": "",
                        "name": "flushTokens",
                        "returnParams": [],
                        "signature": "flushTokens(address)"
                    },
                    "errorInfo": "",
                    "fromAddress": "0xe5d7ccc5fc3b3216c4dff3a59442f1d83038468c",
                    "gasUsed": 20924,
                    "id": 2,
                    "methodDecoded": true,
                    "operation": "CALL",
                    "output": "",
                    "revert": false,
                    "revertMessage": "",
                    "selector": "0x3ef13367",
                    "status": true,
                    "value": "0"
                },
                "nodeType": 0
            },
            "3": {
                "invocation": {
                    "address": "0x05f4a42e251f2d52b8ed15e9fedaacfcef1fad27",
                    "callData": "0x000000000000000000000000d9a3ad99039cbbfaa5f951486fdfe83d25310261",
                    "decodedMethod": {
                        "callParams": [
                            {
                                "name": "_owner",
                                "type": "address",
                                "value": "0xd9a3ad99039cbbfaa5f951486fdfe83d25310261"
                            }
                        ],
                        "constructorArguments": "",
                        "name": "balanceOf",
                        "returnParams": [
                            {
                                "decimalAvailable": true,
                                "name": "balance",
                                "type": "uint256",
                                "value": "500,000,000,000,000,000"
                            }
                        ],
                        "signature": "balanceOf(address)"
                    },
                    "errorInfo": "",
                    "fromAddress": "0xd9a3ad99039cbbfaa5f951486fdfe83d25310261",
                    "gasUsed": 727,
                    "id": 3,
                    "methodDecoded": true,
                    "operation": "CALL",
                    "output": "0x00000000000000000000000000000000000000000000000006f05b59d3b20000",
                    "revert": false,
                    "revertMessage": "",
                    "selector": "0x70a08231",
                    "status": true,
                    "value": "0"
                },
                "nodeType": 0
            },
            "4": {
                "invocation": {
                    "address": "0x05f4a42e251f2d52b8ed15e9fedaacfcef1fad27",
                    "callData": "0x000000000000000000000000e5d7ccc5fc3b3216c4dff3a59442f1d83038468c00000000000000000000000000000000000000000000000006f05b59d3b20000",
                    "decodedMethod": {
                        "callParams": [
                            {
                                "name": "_to",
                                "type": "address",
                                "value": "0xe5d7ccc5fc3b3216c4dff3a59442f1d83038468c"
                            },
                            {
                                "decimalAvailable": true,
                                "name": "_value",
                                "type": "uint256",
                                "value": "500,000,000,000,000,000"
                            }
                        ],
                        "constructorArguments": "",
                        "name": "transfer",
                        "returnParams": [
                            {
                                "name": "",
                                "type": "bool",
                                "value": true
                            }
                        ],
                        "signature": "transfer(address,uint256)"
                    },
                    "errorInfo": "",
                    "fromAddress": "0xd9a3ad99039cbbfaa5f951486fdfe83d25310261",
                    "gasUsed": 14273,
                    "id": 4,
                    "methodDecoded": true,
                    "operation": "CALL",
                    "output": "0x0000000000000000000000000000000000000000000000000000000000000001",
                    "revert": false,
                    "revertMessage": "",
                    "selector": "0xa9059cbb",
                    "status": true,
                    "value": "0"
                },
                "nodeType": 0
            },
            "5": {
                "event": {
                    "contract": "0x05f4a42e251f2d52b8ed15e9fedaacfcef1fad27",
                    "decodedLog": {
                        "name": "Transfer",
                        "params": [
                            {
                                "name": "from",
                                "type": "address",
                                "value": "0xd9a3ad99039cbbfaa5f951486fdfe83d25310261"
                            },
                            {
                                "name": "to",
                                "type": "address",
                                "value": "0xe5d7ccc5fc3b3216c4dff3a59442f1d83038468c"
                            },
                            {
                                "decimalAvailable": true,
                                "name": "value",
                                "type": "uint256",
                                "value": "500,000,000,000,000,000"
                            }
                        ],
                        "signature": "Transfer(address,address,uint256)"
                    },
                    "id": 5,
                    "logData": "0x00000000000000000000000000000000000000000000000006f05b59d3b20000",
                    "logDecoded": true,
                    "operation": "EVENT",
                    "revert": false,
                    "status": true,
                    "topics": [
                        "0xddf252ad1be2c89b69c2b068fc378daa952ba7f163c4a11628f55a4df523b3ef",
                        "0x000000000000000000000000d9a3ad99039cbbfaa5f951486fdfe83d25310261",
                        "0x000000000000000000000000e5d7ccc5fc3b3216c4dff3a59442f1d83038468c"
                    ]
                },
                "nodeType": 1
            },
            "6": {
                "event": {
                    "contract": "0xd9a3ad99039cbbfaa5f951486fdfe83d25310261",
                    "decodedLog": {
                        "name": "TokensFlushed",
                        "params": [
                            {
                                "name": "tokenContractAddress",
                                "type": "address",
                                "value": "0x05f4a42e251f2d52b8ed15e9fedaacfcef1fad27"
                            },
                            {
                                "name": "value",
                                "type": "uint256",
                                "value": "500,000,000,000,000,000"
                            }
                        ],
                        "signature": "TokensFlushed(address,uint256)"
                    },
                    "id": 6,
                    "logData": "0x00000000000000000000000005f4a42e251f2d52b8ed15e9fedaacfcef1fad2700000000000000000000000000000000000000000000000006f05b59d3b20000",
                    "logDecoded": true,
                    "operation": "EVENT",
                    "revert": false,
                    "status": true,
                    "topics": [
                        "0x9401e4e79c19cbe2bd774cb70a94ba660e6718be1bac1298ab3b07f454a60821"
                    ]
                },
                "nodeType": 1
            }
        },
        "gasFlame": [
            {
                "children": [
                    {
                        "children": [
                            {
                                "children": [],
                                "depth": 0,
                                "name": "Initial Gas",
                                "value": 24088
                            },
                            {
                                "children": [
                                    {
                                        "children": [
                                            {
                                                "children": [
                                                    {
                                                        "children": [],
                                                        "depth": 3,
                                                        "name": "balanceOf",
                                                        "value": 727
                                                    },
                                                    {
                                                        "children": [],
                                                        "depth": 3,
                                                        "name": "transfer",
                                                        "value": 14273
                                                    }
                                                ],
                                                "depth": 2,
                                                "name": "flushTokens",
                                                "value": 20924
                                            }
                                        ],
                                        "depth": 1,
                                        "name": "flushForwarderTokens",
                                        "value": 26139
                                    }
                                ],
                                "depth": 0,
                                "name": "Executed Gas",
                                "value": 26916
                            }
                        ],
                        "depth": -1,
                        "name": "Actual Gas Used",
                        "value": 36004
                    },
                    {
                        "children": [],
                        "depth": -1,
                        "name": "Refunded Gas",
                        "value": 15000
                    }
                ],
                "depth": -2,
                "name": "Total Gas",
                "value": 51004
            }
        ],
        "isConfirmed": true,
        "mainTrace": [
            {
                "children": [
                    {
                        "children": [
                            {
                                "children": [
                                    {
                                        "children": [
                                            {
                                                "children": [],
                                                "depth": 3,
                                                "id": 3,
                                                "order": 3
                                            },
                                            {
                                                "children": [
                                                    {
                                                        "children": [],
                                                        "depth": 4,
                                                        "id": 5,
                                                        "order": 5
                                                    }
                                                ],
                                                "depth": 3,
                                                "id": 4,
                                                "order": 4
                                            },
                                            {
                                                "children": [],
                                                "depth": 3,
                                                "id": 6,
                                                "order": 6
                                            }
                                        ],
                                        "depth": 2,
                                        "id": 2,
                                        "order": 2
                                    }
                                ],
                                "depth": 1,
                                "id": 1,
                                "order": 1
                            }
                        ],
                        "depth": 0,
                        "id": 0,
                        "order": 0
                    }
                ],
                "depth": -1,
                "id": -1,
                "order": -1
            }
        ],
        "mainTraceNodeCount": 7,
        "parentIdMap": {
            "0": -1,
            "1": 0,
            "2": 1,
            "3": 2,
            "4": 2,
            "5": 4,
            "6": 2
        },
        "tidyTrace": [
            {
                "children": [
                    {
                        "children": [
                            {
                                "children": [
                                    {
                                        "children": [
                                            {
                                                "children": [],
                                                "depth": 3,
                                                "id": 3,
                                                "order": 3
                                            },
                                            {
                                                "children": [
                                                    {
                                                        "children": [],
                                                        "depth": 4,
                                                        "id": 5,
                                                        "order": 5
                                                    }
                                                ],
                                                "depth": 3,
                                                "id": 4,
                                                "order": 4
                                            },
                                            {
                                                "children": [],
                                                "depth": 3,
                                                "id": 6,
                                                "order": 6
                                            }
                                        ],
                                        "depth": 2,
                                        "id": 2,
                                        "order": 2
                                    }
                                ],
                                "depth": 1,
                                "id": 1,
                                "order": 1
                            }
                        ],
                        "depth": 0,
                        "id": 0,
                        "order": 0
                    }
                ],
                "depth": -1,
                "id": -1,
                "order": -1
            }
        ],
        "tidyTraceNodeCount": 7
    },
    "state_change": {
        "stateChanges": [
            {
                "address": "0x05f4a42e251f2d52b8ed15e9fedaacfcef1fad27",
                "erc": "ERC-20",
                "slots": [
                    {
                        "current": "0x000000000000000000000000000000000000000000000000355d451a1376441d",
                        "key": "0xb0b4ef6dd6900d9a097b5e22fe88ff562151f184ab1bbf6934eca75abfa2bca2",
                        "prev": "0x0000000000000000000000000000000000000000000000002e6ce9c03fc4441d"
                    },
                    {
                        "current": "0x0000000000000000000000000000000000000000000000000000000000000000",
                        "key": "0x73a9a4c0b430621920a172cad36a8742d5ce4f95a33c50f6e516866901ec8615",
                        "prev": "0x00000000000000000000000000000000000000000000000006f05b59d3b20000"
                    }
                ],
                "storageVariables": [
                    {
                        "name": "balances",
                        "type": "mapping(address => uint256)",
                        "value": {
                            "pairs": [
                                {
                                    "key": "0xd9a3ad99039cbbfaa5f951486fdfe83d25310261",
                                    "value": {
                                        "current": "0",
                                        "prev": "500000000000000000",
                                        "typeTag": 1
                                    }
                                },
                                {
                                    "key": "0xe5d7ccc5fc3b3216c4dff3a59442f1d83038468c",
                                    "value": {
                                        "current": "3845305635142255645",
                                        "prev": "3345305635142255645",
                                        "typeTag": 1
                                    }
                                }
                            ],
                            "typeTag": 4
                        }
                    }
                ]
            }
        ]
    }
}