{
    "balance_change": {
        "balanceChanges": [
            {
                "account": "0x0000000000000000000000000000000000000000",
                "assets": [
                    {
                        "address": "0xca6d7604ae55ba1ba864c26692a91979f25cdb96",
                        "amount": "1",
                        "iconUrl": "",
                        "isERC1155": false,
                        "isERC721": true,
                        "sign": false,
                        "tokenID": "4745",
                        "value": ""
                    }
                ]
            },
            {
                "account": "0x874352595d344aa86ce6757b35a325d0a3a6d5da",
                "assets": [
                    {
                        "address": "0xca6d7604ae55ba1ba864c26692a91979f25cdb96",
                        "amount": "1",
                        "iconUrl": "",
                        "isERC1155": false,
                        "isERC721": true,
                        "sign": true,
                        "tokenID": "4745",
                        "value": ""
                    }
                ]
            }
        ]
    },
    "profile": {
        "basic_info": {
            "baseFee": "14.559842521",
            "blockNumber": 16178952,
            "callData": "0x962cb60200000000000000000000000000000000000000000000000000000000000000200000000000000000000000000000000000000000000000000000000000000041f6bbd9eaf9bb745dc88c45e36fcdbfdafd6ece541f21b85acb0f413533352cfc6ddd607614df34c7a33e847d48fa79a08d15b77fa2963226815c21a7d2af325f1c00000000000000000000000000000000000000000000000000000000000000",
            "debugEnable": true,
            "errorInfo": "",
            "eventCount": 1,
            "feeRecipient": "0x0f482c40b47d3f448d69383401ed82149f8670d8",
            "formatValue": "0",
            "gasLimit": 58896,
            "gasPrice": "16.059842521",
            "gasUsed": 53470,
            "intTxnCount": 2,
            "internalRevert": false,
            "internalRevertMessage": "",
            "isContractCreation": false,
            "isFlashloan": false,
            "maxFee": "19.732189034",
            "nonce": 94,
            "overwritedBlockNumber": -1,
            "priorityFee": "1.5",
            "receiver": "0xca6d7604ae55ba1ba864c26692a91979f25cdb96",
            "revertMessage": "",
            "sender": "0x874352595d344aa86ce6757b35a325d0a3a6d5da",
            "simulationEnable": true,
            "sourceTxnHash": "0xb6eb817e8e35a9318e1719476c746abcb00e562cda3c2a39183a5101106a07fe",
            "status": true,
            "timestamp": "2022-12-13T23:07:35Z",
            "transactionFee": "0.00085871977959787",
            "txnHash": "0xb6eb817e8e35a9318e1719476c746abcb00e562cda3c2a39183a5101106a07fe",
            "txnIndex": 79,
            "type": 2,
            "value": "0"
        },
        "fund_flow": [
            {
                "amount": "1",
                "from": "0x0000000000000000000000000000000000000000",
                "id": 1,
                "isERC1155": false,
                "isERC721": true,
                "isReverted": false,
                "order": 1,
                "to": "0x874352595d344aa86ce6757b35a325d0a3a6d5da",
                "token": "0xca6d7604ae55ba1ba864c26692a91979f25cdb96",
                "tokenID": "4745"
            }
        ],
        "token_infos": [
            {
                "address": "0xc02aaa39b223fe8d0a0e5c4f27ead9083c756cc2",
                "decimals": 18
            },
            {
                "address": "0xeeeeeeeeeeeeeeeeeeeeeeeeeeeeeeeeeeeeeeee",
                "decimals": 18
            }
        ]
    },
    "address_label": {
        "labels": [
            {
                "address": "0x0000000000000000000000000000000000000002",
                "label": "Precompiled"
            },
            {
                "address": "0x0000000000000000000000000000000000000003",
                "label": "Precompiled"
            },
            {
                "address": "0x0000000000000000000000000000000000000004",
                "label": "Precompiled"
            },
            {
                "address": "0xeeeeeeeeeeeeeeeeeeeeeeeeeeeeeeeeeeeeeeee",
                "label": "Ether"
            },
            {
                "address": "0xca6d7604ae55ba1ba864c26692a91979f25cdb96",
                "label": "Daily Cargo: DC Token"
            },
            {
                "address": "0x27427a8f21a499b766a51a4b6efa547d943fe6fd",
                "label": "FreeNFTDailyCargo"
            },
            {
                "address": "0x0000000000000000000000000000000000000001",
                "label": "Precompiled"
            }
        ]
    },
    "trace": {
        "accountLabels": null,
        "dataMap": {
            "-1": {
                "invocation": {
                    "address": "0x874352595d344aa86ce6757b35a325d0a3a6d5da",
                    "callData": "",
                    "decodedMethod": null,
                    "errorInfo": "",
                    "fromAddress": "",
                    "gasUsed": 0,
                    "id": -1,
                    "methodDecoded": false,
                    "operation": "",
                    "output": "",
                    "revert": false,
                    "revertMessage": "",
                    "selector": "",
                    "status": false,
                    "value": ""
                },
                "nodeType": 0
            },
            "0": {
                "invocation": {
                    "address": "0xca6d7604ae55ba1ba864c26692a91979f25cdb96",
                    "callData": "0x00000000000000000000000000000000000000000000000000000000000000200000000000000000000000000000000000000000000000000000000000000041f6bbd9eaf9bb745dc88c45e36fcdbfdafd6ece541f21b85acb0f413533352cfc6ddd607614df34c7a33e847d48fa79a08d15b77fa2963226815c21a7d2af325f1c00000000000000000000000000000000000000000000000000000000000000",
                    "decodedMethod": {
                        "callParams": [
                            {
                                "name": "_signature",
                                "type": "bytes",
                                "value": "0xf6bbd9eaf9bb745dc88c45e36fcdbfdafd6ece541f21b85acb0f413533352cfc6ddd607614df34c7a33e847d48fa79a08d15b77fa2963226815c21a7d2af325f1c"
                            }
                        ],
                        "constructorArguments": "",
                        "name": "getDailyCargo",
                        "returnParams": [],
                        "signature": "getDailyCargo(bytes)"
                    },
                    "errorInfo": "",
                    "fromAddress": "0x874352595d344aa86ce6757b35a325d0a3a6d5da",
                    "gasUsed": 53470,
                    "id": 0,
                    "methodDecoded": true,
                    "operation": "CALL",
                    "output": "",
                    "revert": false,
                    "revertMessage": "",
                    "selector": "0x962cb602",
                    "status": true,
                    "value": "0"
                },
                "nodeType": 0
            },
            "1": {
                "invocation": {
                    "address": "0x27427a8f21a499b766a51a4b6efa547d943fe6fd",
                    "callData": "0x00000000000000000000000000000000000000000000000000000000000000200000000000000000000000000000000000000000000000000000000000000041f6bbd9eaf9bb745dc88c45e36fcdbfdafd6ece541f21b85acb0f413533352cfc6ddd607614df34c7a33e847d48fa79a08d15b77fa2963226815c21a7d2af325f1c00000000000000000000000000000000000000000000000000000000000000",
                    "decodedMethod": {
                        "callParams": [
                            {
                                "name": "_signature",
                                "type": "bytes",
                                "value": "0xf6bbd9eaf9bb745dc88c45e36fcdbfdafd6ece541f21b85acb0f413533352cfc6ddd607614df34c7a33e847d48fa79a08d15b77fa2963226815c21a7d2af325f1c"
                            }
                        ],
                        "constructorArguments": "",
                        "name": "getDailyCargo",
                        "returnParams": [],
                        "signature": "getDailyCargo(bytes)"
                    },
                    "errorInfo": "",
                    "fromAddress": "0xca6d7604ae55ba1ba864c26692a91979f25cdb96",
                    "gasUsed": 28715,
                    "id": 1,
                    "methodDecoded": true,
                    "operation": "DELEGATECALL",
                    "output": "",
                    "revert": false,
                    "revertMessage": "",
                    "selector": "0x962cb602",
                    "status": true,
                    "value": "0"
                },
                "nodeType": 0
            },
            "2": {
                "invocation": {
                    "address": "0x0000000000000000000000000000000000000001",
                    "callData": "0x480d9cf1b76caef1dab1880cf2efa64e47bfdc1b3fa24db9c28044b1000000000000000000000000000000000000000000000000000000000000001cf6bbd9eaf9bb745dc88c45e36fcdbfdafd6ece541f21b85acb0f413533352cfc6ddd607614df34c7a33e847d48fa79a08d15b77fa2963226815c21a7d2af325f",
                    "decodedMethod": {
                        "callParams": [
                            {
                                "name": "hash",
                                "type": "bytes32",
                                "value": "0x1629231e480d9cf1b76caef1dab1880cf2efa64e47bfdc1b3fa24db9c28044b1"
                            },
                            {
                                "name": "v",
                                "type": "uint256",
                                "value": "28"
                            },
                            {
                                "name": "r",
                                "type": "bytes32",
                                "value": "0xf6bbd9eaf9bb745dc88c45e36fcdbfdafd6ece541f21b85acb0f413533352cfc"
                            },
                            {
                                "name": "s",
                                "type": "bytes32",
                                "value": "0x6ddd607614df34c7a33e847d48fa79a08d15b77fa2963226815c21a7d2af325f"
                            }
                        ],
                        "constructorArguments": "",
                        "name": "ecrecover",
                        "returnParams": [
                            {
                                "name": "",
                                "type": "address",
                                "value": "0x600fcd40bd2ee94e2113f617cb28c977a9c1008d"
                            }
                        ],
                        "signature": "ecrecover(bytes32,uint256,bytes32,bytes32)"
                    },
                    "errorInfo": "",
                    "fromAddress": "0xca6d7604ae55ba1ba864c26692a91979f25cdb96",
                    "gasUsed": 3000,
                    "id": 2,
                    "methodDecoded": true,
                    "operation": "STATICCALL",
                    "output": "0x000000000000000000000000600fcd40bd2ee94e2113f617cb28c977a9c1008d",
                    "revert": false,
                    "revertMessage": "",
                    "selector": "0x1629231e",
                    "status": true,
                    "value": "0"
                },
                "nodeType": 0
            },
            "3": {
                "event": {
                    "contract": "0xca6d7604ae55ba1ba864c26692a91979f25cdb96",
                    "decodedLog": {
                        "name": "Transfer",
                        "params": [
                            {
                                "name": "from",
                                "type": "address",
                                "value": "0x0000000000000000000000000000000000000000"
                            },
                            {
                                "name": "to",
                                "type": "address",
                                "value": "0x874352595d344aa86ce6757b35a325d0a3a6d5da"
                            },
                            {
                                "decimalAvailable": true,
                                "name": "tokenId",
                                "type": "uint256",
                                "value": "4,745"
                            }
                        ],
                        "signature": "Transfer(address,address,uint256)"
                    },
                    "id": 3,
                    "logData": "0x",
                    "logDecoded": true,
                    "operation": "EVENT",
                    "revert": false,
                    "status": true,
                    "topics": [
                        "0xddf252ad1be2c89b69c2b068fc378daa952ba7f163c4a11628f55a4df523b3ef",
                        "0x0000000000000000000000000000000000000000000000000000000000000000",
                        "0x000000000000000000000000874352595d344aa86ce6757b35a325d0a3a6d5da",
                        "0x0000000000000000000000000000000000000000000000000000000000001289"
                    ]
                },
                "nodeType": 1
            }
        },
        "gasFlame": [
            {
                "children": [
                    {
                        "children": [
                            {
                                "children": [],
                                "depth": 0,
                                "name": "Initial Gas",
                                "value": 22508
                            },
                            {
                                "children": [
                                    {
                                        "children": [
                                            {
                                                "children": [],
                                                "depth": 2,
                                                "name": "ecrecover",
                                                "value": 3000
                                            }
                                        ],
                                        "depth": 1,
                                        "name": "getDailyCargo",
                                        "value": 28715
                                    }
                                ],
                                "depth": 0,
                                "name": "Executed Gas",
                                "value": 33762
                            }
                        ],
                        "depth": -1,
                        "name": "Actual Gas Used",
                        "value": 53470
                    },
                    {
                        "children": [],
                        "depth": -1,
                        "name": "Refunded Gas",
                        "value": 2800
                    }
                ],
                "depth": -2,
                "name": "Total Gas",
                "value": 56270
            }
        ],
        "isConfirmed": true,
        "mainTrace": [
            {
                "children": [
                    {
                        "children": [
                            {
                                "children": [
                                    {
                                        "children": [],
                                        "depth": 2,
                                        "id": 2,
                                        "order": 2
                                    },
                                    {
                                        "children": [],
                                        "depth": 2,
                                        "id": 3,
                                        "order": 3
                                    }
                                ],
                                "depth": 1,
                                "id": 1,
                                "order": 1
                            }
                        ],
                        "depth": 0,
                        "id": 0,
                        "order": 0
                    }
                ],
                "depth": -1,
                "id": -1,
                "order": -1
            }
        ],
        "mainTraceNodeCount": 4,
        "parentIdMap": {
            "0": -1,
            "1": 0,
            "2": 1,
            "3": 1
        },
        "tidyTrace": [
            {
                "children": [
                    {
                        "children": [
                            {
                                "children": [
                                    {
                                        "children": [],
                                        "depth": 2,
                                        "id": 3,
                                        "order": 3
                                    }
                                ],
                                "depth": 1,
                                "id": 1,
                                "order": 1
                            }
                        ],
                        "depth": 0,
                        "id": 0,
                        "order": 0
                    }
                ],
                "depth": -1,
                "id": -1,
                "order": -1
            }
        ],
        "tidyTraceNodeCount": 3
    },
    "state_change": {
        "stateChanges": [
            {
                "address": "0xca6d7604ae55ba1ba864c26692a91979f25cdb96",
                "erc": "ERC-721",
                "slots": [
                    {
                        "current": "0x00000000000000000000000000001289000000000000001000000000639905b7",
                        "key": "0x46ce9ede4e8e9629222fef6e6dacc3358943da16943da372bf1835067be270af",
                        "prev": "0x00000000000000000000000000001289000000000000000f000000006397b39b"
                    },
                    {
                        "current": "0x0000000000000000000000000000000000000000000000000000000000000010",
                        "key": "0x175f71608bb4cf6d27d647f258fd96229f66935e1495a31b13ff26ea75ef007f",
                        "prev": "0x000000000000000000000000000000000000000000000000000000000000000f"
                    }
                ],
                "storageVariables": [
                    {
                        "name": "players",
                        "type": "mapping(address => struct FreeNFTDailyCargo.Player)",
                        "value": {
                            "pairs": [
                                {
                                    "key": "0x874352595d344aa86ce6757b35a325d0a3a6d5da",
                                    "value": {
                                        "fields": [
                                            {
                                                "name": "lastClaimed",
                                                "type": "uint64",
                                                "value": {
                                                    "current": "1670972855",
                                                    "prev": "1670886299",
                                                    "typeTag": 1
                                                }
                                            },
                                            {
                                                "name": "streak",
                                                "type": "uint64",
                                                "value": {
                                                    "current": "16",
                                                    "prev": "15",
                                                    "typeTag": 1
                                                }
                                            },
                                            {
                                                "name": "activeCargoId",
                                                "type": "uint128",
                                                "value": {
                                                    "current": "4745",
                                                    "prev": "4745",
                                                    "typeTag": 1
                                                }
                                            }
                                        ],
                                        "typeTag": 3
                                    }
                                }
                            ],
                            "typeTag": 4
                        }
                    },
                    {
                        "name": "cargoStreak",
                        "type": "mapping(uint256 => uint256)",
                        "value": {
                            "pairs": [
                                {
                                    "key": "4745",
                                    "value": {
                                        "current": "16",
                                        "prev": "15",
                                        "typeTag": 1
                                    }
                                }
                            ],
                            "typeTag": 4
                        }
                    }
                ]
            }
        ]
    }
}