{
    "balance_change": {
        "balanceChanges": [
            {
                "account": "0x59e0b0c22ac08020323c734634b1dd45126c51cf",
                "assets": [
                    {
                        "address": "0x8b32631e6260cc0d29986c0821b22be9a26971ae",
                        "amount": "315",
                        "iconUrl": "",
                        "isERC1155": false,
                        "isERC721": false,
                        "sign": false,
                        "value": ""
                    }
                ]
            },
            {
                "account": "0x8119a4265c2da6073c824fbd9c523d51095fd60b",
                "assets": [
                    {
                        "address": "0x8b32631e6260cc0d29986c0821b22be9a26971ae",
                        "amount": "315",
                        "iconUrl": "",
                        "isERC1155": false,
                        "isERC721": false,
                        "sign": true,
                        "value": ""
                    }
                ]
            }
        ]
    },
    "profile": {
        "basic_info": {
            "baseFee": "",
            "blockNumber": 7384496,
            "callData": "0xa9059cbb0000000000000000000000008119a4265c2da6073c824fbd9c523d51095fd60b0000000000000000000000000000000000000000000000111380cf0ef80c0000",
            "debugEnable": true,
            "errorInfo": "",
            "eventCount": 1,
            "feeRecipient": "0x2a5994b501e6a560e727b6c2de5d856396aadd38",
            "formatValue": "0",
            "gasLimit": 99000,
            "gasPrice": "6",
            "gasUsed": 51997,
            "intTxnCount": 0,
            "internalRevert": false,
            "internalRevertMessage": "",
            "isContractCreation": false,
            "isFlashloan": false,
            "maxFee": "",
            "nonce": 4618,
            "overwritedBlockNumber": -1,
            "priorityFee": "",
            "receiver": "0x8b32631e6260cc0d29986c0821b22be9a26971ae",
            "revertMessage": "",
            "sender": "0x59e0b0c22ac08020323c734634b1dd45126c51cf",
            "simulationEnable": true,
            "sourceTxnHash": "0xb6c89c59853a23fcd1a94e0cdbda1b80d57947647d46354f9221ba3738f284e8",
            "status": true,
            "timestamp": "2019-03-17T05:04:33Z",
            "transactionFee": "0.000311982",
            "txnHash": "0xb6c89c59853a23fcd1a94e0cdbda1b80d57947647d46354f9221ba3738f284e8",
            "txnIndex": 5,
            "type": 0,
            "value": "0"
        },
        "fund_flow": [
            {
                "amount": "315",
                "from": "0x59e0b0c22ac08020323c734634b1dd45126c51cf",
                "id": 1,
                "isERC1155": false,
                "isERC721": false,
                "isReverted": false,
                "order": 1,
                "to": "0x8119a4265c2da6073c824fbd9c523d51095fd60b",
                "token": "0x8b32631e6260cc0d29986c0821b22be9a26971ae"
            }
        ],
        "token_infos": [
            {
                "address": "0x8b32631e6260cc0d29986c0821b22be9a26971ae",
                "decimals": 18
            },
            {
                "address": "0xc02aaa39b223fe8d0a0e5c4f27ead9083c756cc2",
                "decimals": 18
            },
            {
                "address": "0xeeeeeeeeeeeeeeeeeeeeeeeeeeeeeeeeeeeeeeee",
                "decimals": 18
            }
        ]
    },
    "address_label": {
        "labels": [
            {
                "address": "0x0000000000000000000000000000000000000003",
                "label": "Precompiled"
            },
            {
                "address": "0x0000000000000000000000000000000000000004",
                "label": "Precompiled"
            },
            {
                "address": "0xeeeeeeeeeeeeeeeeeeeeeeeeeeeeeeeeeeeeeeee",
                "label": "Ether"
            },
            {
                "address": "0x8b32631e6260cc0d29986c0821b22be9a26971ae",
                "label": "DXDT"
            },
            {
                "address": "0x0000000000000000000000000000000000000001",
                "label": "Precompiled"
            },
            {
                "address": "0x0000000000000000000000000000000000000002",
                "label": "Precompiled"
            }
        ]
    },
    "trace": {
        "accountLabels": null,
        "dataMap": {
            "-1": {
                "invocation": {
                    "address": "0x59e0b0c22ac08020323c734634b1dd45126c51cf",
                    "callData": "",
                    "decodedMethod": null,
                    "errorInfo": "",
                    "fromAddress": "",
                    "gasUsed": 0,
                    "id": -1,
                    "methodDecoded": false,
                    "operation": "",
                    "output": "",
                    "revert": false,
                    "revertMessage": "",
                    "selector": "",
                    "status": false,
                    "value": ""
                },
                "nodeType": 0
            },
            "0": {
                "invocation": {
                    "address": "0x8b32631e6260cc0d29986c0821b22be9a26971ae",
                    "callData": "0x0000000000000000000000008119a4265c2da6073c824fbd9c523d51095fd60b0000000000000000000000000000000000000000000000111380cf0ef80c0000",
                    "decodedMethod": {
                        "callParams": [
                            {
                                "name": "_to",
                                "type": "address",
                                "value": "0x8119a4265c2da6073c824fbd9c523d51095fd60b"
                            },
                            {
                                "decimalAvailable": true,
                                "name": "_value",
                                "type": "uint256",
                                "value": "315,000,000,000,000,000,000"
                            }
                        ],
                        "constructorArguments": "",
                        "name": "transfer",
                        "returnParams": [
                            {
                                "name": "success",
                                "type": "bool",
                                "value": true
                            }
                        ],
                        "signature": "transfer(address,uint256)"
                    },
                    "errorInfo": "",
                    "fromAddress": "0x59e0b0c22ac08020323c734634b1dd45126c51cf",
                    "gasUsed": 51997,
                    "id": 0,
                    "methodDecoded": true,
                    "operation": "CALL",
                    "output": "0x0000000000000000000000000000000000000000000000000000000000000001",
                    "revert": false,
                    "revertMessage": "",
                    "selector": "0xa9059cbb",
                    "status": true,
                    "value": "0"
                },
                "nodeType": 0
            },
            "1": {
                "event": {
                    "contract": "0x8b32631e6260cc0d29986c0821b22be9a26971ae",
                    "decodedLog": {
                        "name": "Transfer",
                        "params": [
                            {
                                "name": "_from",
                                "type": "address",
                                "value": "0x59e0b0c22ac08020323c734634b1dd45126c51cf"
                            },
                            {
                                "name": "_to",
                                "type": "address",
                                "value": "0x8119a4265c2da6073c824fbd9c523d51095fd60b"
                            },
                            {
                                "decimalAvailable": true,
                                "name": "_value",
                                "type": "uint256",
                                "value": "315,000,000,000,000,000,000"
                            }
                        ],
                        "signature": "Transfer(address,address,uint256)"
                    },
                    "id": 1,
                    "logData": "0x0000000000000000000000000000000000000000000000111380cf0ef80c0000",
                    "logDecoded": true,
                    "operation": "EVENT",
                    "revert": false,
                    "status": true,
                    "topics": [
                        "0xddf252ad1be2c89b69c2b068fc378daa952ba7f163c4a11628f55a4df523b3ef",
                        "0x00000000000000000000000059e0b0c22ac08020323c734634b1dd45126c51cf",
                        "0x0000000000000000000000008119a4265c2da6073c824fbd9c523d51095fd60b"
                    ]
                },
                "nodeType": 1
            }
        },
        "gasFlame": [
            {
                "children": [
                    {
                        "children": [
                            {
                                "children": [],
                                "depth": 0,
                                "name": "Initial Gas",
                                "value": 23256
                            },
                            {
                                "children": [],
                                "depth": 0,
                                "name": "Executed Gas",
                                "value": 28741
                            }
                        ],
                        "depth": -1,
                        "name": "Actual Gas Used",
                        "value": 51997
                    },
                    {
                        "children": [],
                        "depth": -1,
                        "name": "Refunded Gas",
                        "value": 0
                    }
                ],
                "depth": -2,
                "name": "Total Gas",
                "value": 51997
            }
        ],
        "isConfirmed": true,
        "mainTrace": [
            {
                "children": [
                    {
                        "children": [
                            {
                                "children": [],
                                "depth": 1,
                                "id": 1,
                                "order": 1
                            }
                        ],
                        "depth": 0,
                        "id": 0,
                        "order": 0
                    }
                ],
                "depth": -1,
                "id": -1,
                "order": -1
            }
        ],
        "mainTraceNodeCount": 2,
        "parentIdMap": {
            "0": -1,
            "1": 0
        },
        "tidyTrace": [
            {
                "children": [
                    {
                        "children": [
                            {
                                "children": [],
                                "depth": 1,
                                "id": 1,
                                "order": 1
                            }
                        ],
                        "depth": 0,
                        "id": 0,
                        "order": 0
                    }
                ],
                "depth": -1,
                "id": -1,
                "order": -1
            }
        ],
        "tidyTraceNodeCount": 2
    },
    "state_change": {
        "stateChanges": [
            {
                "address": "0x8b32631e6260cc0d29986c0821b22be9a26971ae",
                "erc": "ERC-20",
                "slots": [
                    {
                        "current": "0x00000000000000000000000000000000000000000006e3c621cc2ff369ac0000",
                        "key": "0xe4182a1c703327a51b7cac4175fc198f0d821a0da158953d8d90142c3896578d",
                        "prev": "0x00000000000000000000000000000000000000000006e3d7354cff0261b80000"
                    },
                    {
                        "current": "0x0000000000000000000000000000000000000000000000111380cf0ef80c0000",
                        "key": "0xcbdbd8c957264898973580ff958edca3dc60997a0fc43e22081e068bd1e06904",
                        "prev": "0x0000000000000000000000000000000000000000000000000000000000000000"
                    }
                ],
                "storageVariables": [
                    {
                        "name": "balances",
                        "type": "mapping(address => uint256)",
                        "value": {
                            "pairs": [
                                {
                                    "key": "0x59e0b0c22ac08020323c734634b1dd45126c51cf",
                                    "value": {
                                        "current": "8329187000000000000000000",
                                        "prev": "8329502000000000000000000",
                                        "typeTag": 1
                                    }
                                },
                                {
                                    "key": "0x8119a4265c2da6073c824fbd9c523d51095fd60b",
                                    "value": {
                                        "current": "315000000000000000000",
                                        "prev": "0",
                                        "typeTag": 1
                                    }
                                }
                            ],
                            "typeTag": 4
                        }
                    }
                ]
            }
        ]
    }
}