{
    "balance_change": {
        "balanceChanges": [
            {
                "account": "0x5f8fd99047265af45071f40042da15c1bd375b85",
                "assets": [
                    {
                        "address": "0xeeeeeeeeeeeeeeeeeeeeeeeeeeeeeeeeeeeeeeee",
                        "amount": "0.1",
                        "iconUrl": "https://assets.blocksec.com/image/1663669189317-3.png",
                        "isERC1155": false,
                        "isERC721": false,
                        "sign": false,
                        "value": "345.99"
                    },
                    {
                        "address": "0xf2470e641a551d7dbdf4b8d064cf208edfb06586",
                        "amount": "1",
                        "iconUrl": "",
                        "isERC1155": false,
                        "isERC721": true,
                        "sign": true,
                        "tokenID": "5547",
                        "value": ""
                    }
                ]
            },
            {
                "account": "0xf2470e641a551d7dbdf4b8d064cf208edfb06586",
                "assets": [
                    {
                        "address": "0xeeeeeeeeeeeeeeeeeeeeeeeeeeeeeeeeeeeeeeee",
                        "amount": "0.1",
                        "iconUrl": "https://assets.blocksec.com/image/1663669189317-3.png",
                        "isERC1155": false,
                        "isERC721": false,
                        "sign": true,
                        "value": "345.99"
                    }
                ]
            },
            {
                "account": "0x0000000000000000000000000000000000000000",
                "assets": [
                    {
                        "address": "0xf2470e641a551d7dbdf4b8d064cf208edfb06586",
                        "amount": "1",
                        "iconUrl": "",
                        "isERC1155": false,
                        "isERC721": true,
                        "sign": false,
                        "tokenID": "5547",
                        "value": ""
                    }
                ]
            }
        ]
    },
    "profile": {
        "basic_info": {
            "baseFee": "550.574938913",
            "blockNumber": 13950199,
            "callData": "0xa0712d6800000000000000000000000000000000000000000000000000000000000015ab",
            "debugEnable": true,
            "errorInfo": "",
            "eventCount": 1,
            "feeRecipient": "0x2daa35962a6d43eb54c48367b33d0b379c930e5e",
            "formatValue": "0.1",
            "gasLimit": 225489,
            "gasPrice": "551.574938913",
            "gasUsed": 145334,
            "intTxnCount": 0,
            "internalRevert": false,
            "internalRevertMessage": "",
            "isContractCreation": false,
            "isFlashloan": false,
            "maxFee": "797.506036502",
            "nonce": 2464,
            "overwritedBlockNumber": -1,
            "priorityFee": "1",
            "receiver": "0xf2470e641a551d7dbdf4b8d064cf208edfb06586",
            "revertMessage": "",
            "sender": "0x5f8fd99047265af45071f40042da15c1bd375b85",
            "simulationEnable": true,
            "sourceTxnHash": "0xb6c515cdb5db3980184470472363ff5d65642d4d60065199f631731ab5cb4c6b",
            "status": true,
            "timestamp": "2022-01-06T06:15:22Z",
            "transactionFee": "0.080162592171981942",
            "txnHash": "0xb6c515cdb5db3980184470472363ff5d65642d4d60065199f631731ab5cb4c6b",
            "txnIndex": 69,
            "type": 2,
            "value": "100000000000000000"
        },
        "fund_flow": [
            {
                "amount": "0.1",
                "from": "0x5f8fd99047265af45071f40042da15c1bd375b85",
                "id": 1,
                "isERC1155": false,
                "isERC721": false,
                "isReverted": false,
                "order": 1,
                "to": "0xf2470e641a551d7dbdf4b8d064cf208edfb06586",
                "token": "0xeeeeeeeeeeeeeeeeeeeeeeeeeeeeeeeeeeeeeeee"
            },
            {
                "amount": "1",
                "from": "0x0000000000000000000000000000000000000000",
                "id": 2,
                "isERC1155": false,
                "isERC721": true,
                "isReverted": false,
                "order": 2,
                "to": "0x5f8fd99047265af45071f40042da15c1bd375b85",
                "token": "0xf2470e641a551d7dbdf4b8d064cf208edfb06586",
                "tokenID": "5547"
            }
        ],
        "token_infos": [
            {
                "address": "0xc02aaa39b223fe8d0a0e5c4f27ead9083c756cc2",
                "decimals": 18
            },
            {
                "address": "0xeeeeeeeeeeeeeeeeeeeeeeeeeeeeeeeeeeeeeeee",
                "decimals": 18
            }
        ]
    },
    "address_label": {
        "labels": [
            {
                "address": "0xeeeeeeeeeeeeeeeeeeeeeeeeeeeeeeeeeeeeeeee",
                "label": "Ether"
            },
            {
                "address": "0xf2470e641a551d7dbdf4b8d064cf208edfb06586",
                "label": "Clock8008: CLOCK Token"
            },
            {
                "address": "0x0000000000000000000000000000000000000001",
                "label": "Precompiled"
            },
            {
                "address": "0x0000000000000000000000000000000000000002",
                "label": "Precompiled"
            },
            {
                "address": "0x0000000000000000000000000000000000000003",
                "label": "Precompiled"
            },
            {
                "address": "0x0000000000000000000000000000000000000004",
                "label": "Precompiled"
            }
        ]
    },
    "trace": {
        "accountLabels": null,
        "dataMap": {
            "-1": {
                "invocation": {
                    "address": "0x5f8fd99047265af45071f40042da15c1bd375b85",
                    "callData": "",
                    "decodedMethod": null,
                    "errorInfo": "",
                    "fromAddress": "",
                    "gasUsed": 0,
                    "id": -1,
                    "methodDecoded": false,
                    "operation": "",
                    "output": "",
                    "revert": false,
                    "revertMessage": "",
                    "selector": "",
                    "status": false,
                    "value": ""
                },
                "nodeType": 0
            },
            "0": {
                "invocation": {
                    "address": "0xf2470e641a551d7dbdf4b8d064cf208edfb06586",
                    "callData": "0x00000000000000000000000000000000000000000000000000000000000015ab",
                    "decodedMethod": {
                        "callParams": [
                            {
                                "name": "tokenId",
                                "type": "uint256",
                                "value": "5,547"
                            }
                        ],
                        "constructorArguments": "",
                        "name": "mint",
                        "returnParams": [],
                        "signature": "mint(uint256)"
                    },
                    "errorInfo": "",
                    "fromAddress": "0x5f8fd99047265af45071f40042da15c1bd375b85",
                    "gasUsed": 145334,
                    "id": 0,
                    "methodDecoded": true,
                    "operation": "CALL",
                    "output": "",
                    "revert": false,
                    "revertMessage": "",
                    "selector": "0xa0712d68",
                    "status": true,
                    "value": "0.1"
                },
                "nodeType": 0
            },
            "1": {
                "event": {
                    "contract": "0xf2470e641a551d7dbdf4b8d064cf208edfb06586",
                    "decodedLog": {
                        "name": "Transfer",
                        "params": [
                            {
                                "name": "from",
                                "type": "address",
                                "value": "0x0000000000000000000000000000000000000000"
                            },
                            {
                                "name": "to",
                                "type": "address",
                                "value": "0x5f8fd99047265af45071f40042da15c1bd375b85"
                            },
                            {
                                "decimalAvailable": true,
                                "name": "tokenId",
                                "type": "uint256",
                                "value": "5,547"
                            }
                        ],
                        "signature": "Transfer(address,address,uint256)"
                    },
                    "id": 1,
                    "logData": "0x",
                    "logDecoded": true,
                    "operation": "EVENT",
                    "revert": false,
                    "status": true,
                    "topics": [
                        "0xddf252ad1be2c89b69c2b068fc378daa952ba7f163c4a11628f55a4df523b3ef",
                        "0x0000000000000000000000000000000000000000000000000000000000000000",
                        "0x0000000000000000000000005f8fd99047265af45071f40042da15c1bd375b85",
                        "0x00000000000000000000000000000000000000000000000000000000000015ab"
                    ]
                },
                "nodeType": 1
            }
        },
        "gasFlame": [
            {
                "children": [
                    {
                        "children": [
                            {
                                "children": [],
                                "depth": 0,
                                "name": "Initial Gas",
                                "value": 21216
                            },
                            {
                                "children": [],
                                "depth": 0,
                                "name": "Executed Gas",
                                "value": 126918
                            }
                        ],
                        "depth": -1,
                        "name": "Actual Gas Used",
                        "value": 145334
                    },
                    {
                        "children": [],
                        "depth": -1,
                        "name": "Refunded Gas",
                        "value": 2800
                    }
                ],
                "depth": -2,
                "name": "Total Gas",
                "value": 148134
            }
        ],
        "isConfirmed": true,
        "mainTrace": [
            {
                "children": [
                    {
                        "children": [
                            {
                                "children": [],
                                "depth": 1,
                                "id": 1,
                                "order": 1
                            }
                        ],
                        "depth": 0,
                        "id": 0,
                        "order": 0
                    }
                ],
                "depth": -1,
                "id": -1,
                "order": -1
            }
        ],
        "mainTraceNodeCount": 2,
        "parentIdMap": {
            "0": -1,
            "1": 0
        },
        "tidyTrace": [
            {
                "children": [
                    {
                        "children": [
                            {
                                "children": [],
                                "depth": 1,
                                "id": 1,
                                "order": 1
                            }
                        ],
                        "depth": 0,
                        "id": 0,
                        "order": 0
                    }
                ],
                "depth": -1,
                "id": -1,
                "order": -1
            }
        ],
        "tidyTraceNodeCount": 2
    },
    "state_change": {
        "stateChanges": [
            {
                "address": "0xf2470e641a551d7dbdf4b8d064cf208edfb06586",
                "erc": "ERC-721",
                "slots": [
                    {
                        "current": "0x00000000000000000000000000000000000000000000000000000000000015ab",
                        "key": "0xa8f630ce610aec8cd84bb2a2990984f2a4185fd6a339422a3907cfaa93cd0224",
                        "prev": "0x0000000000000000000000000000000000000000000000000000000000000000"
                    },
                    {
                        "current": "0x0000000000000000000000000000000000000000000000000000000000000001",
                        "key": "0x34ab8dcb0bf543007f9b317ef6c4383cf1ab385f04125de16e377bf0e07a16bf",
                        "prev": "0x0000000000000000000000000000000000000000000000000000000000000000"
                    },
                    {
                        "current": "0x0000000000000000000000005f8fd99047265af45071f40042da15c1bd375b85",
                        "key": "0xf6deb7bbc8f887361190fe7a2cc2e63deabbc1f1c4e6225f88b42f4253599fe2",
                        "prev": "0x0000000000000000000000000000000000000000000000000000000000000000"
                    },
                    {
                        "current": "0x000000000000000000000000000000000000000000000000000000000000033c",
                        "key": "0x8d4769efe5b7b6093b7a22886cc5a48bfd01b891c088daef9da7ec51efeb300c",
                        "prev": "0x0000000000000000000000000000000000000000000000000000000000000000"
                    },
                    {
                        "current": "0x000000000000000000000000000000000000000000000000000000000000033d",
                        "key": "0x0000000000000000000000000000000000000000000000000000000000000008",
                        "prev": "0x000000000000000000000000000000000000000000000000000000000000033c"
                    },
                    {
                        "current": "0x00000000000000000000000000000000000000000000000000000000000015ab",
                        "key": "0xf3f7a9fe364faab93b216da50a3214154f22a0a2b415b23a84c8169e8b63721f",
                        "prev": "0x0000000000000000000000000000000000000000000000000000000000000000"
                    }
                ],
                "storageVariables": [
                    {
                        "name": "_balances",
                        "type": "mapping(address => uint256)",
                        "value": {
                            "pairs": [
                                {
                                    "key": "0x5f8fd99047265af45071f40042da15c1bd375b85",
                                    "value": {
                                        "current": "1",
                                        "prev": "0",
                                        "typeTag": 1
                                    }
                                }
                            ],
                            "typeTag": 4
                        }
                    },
                    {
                        "name": "_owners",
                        "type": "mapping(uint256 => address)",
                        "value": {
                            "pairs": [
                                {
                                    "key": "5547",
                                    "value": {
                                        "current": "0x5f8fd99047265af45071f40042da15c1bd375b85",
                                        "prev": "0x0000000000000000000000000000000000000000",
                                        "typeTag": 1
                                    }
                                }
                            ],
                            "typeTag": 4
                        }
                    },
                    {
                        "name": "_allTokensIndex",
                        "type": "mapping(uint256 => uint256)",
                        "value": {
                            "pairs": [
                                {
                                    "key": "5547",
                                    "value": {
                                        "current": "828",
                                        "prev": "0",
                                        "typeTag": 1
                                    }
                                }
                            ],
                            "typeTag": 4
                        }
                    },
                    {
                        "name": "_allTokens",
                        "type": "uint256[]",
                        "value": {
                            "elemType": "uint256",
                            "elems": [
                                {
                                    "index": 828,
                                    "value": {
                                        "current": "5547",
                                        "prev": "0",
                                        "typeTag": 1
                                    }
                                }
                            ],
                            "typeTag": 2
                        }
                    },
                    {
                        "name": "_ownedTokens",
                        "type": "mapping(address => mapping(uint256 => uint256))",
                        "value": {
                            "pairs": [
                                {
                                    "key": "0x5f8fd99047265af45071f40042da15c1bd375b85",
                                    "value": {
                                        "pairs": [
                                            {
                                                "key": "0",
                                                "value": {
                                                    "current": "5547",
                                                    "prev": "0",
                                                    "typeTag": 1
                                                }
                                            }
                                        ],
                                        "typeTag": 4
                                    }
                                }
                            ],
                            "typeTag": 4
                        }
                    }
                ]
            }
        ]
    }
}