{
    "balance_change": {
        "balanceChanges": [
            {
                "account": "0xfddeb0107e922caca59cad46fc7d733d1908c5d9",
                "assets": [
                    {
                        "address": "0xc02aaa39b223fe8d0a0e5c4f27ead9083c756cc2",
                        "amount": "0.026525733580631353",
                        "iconUrl": "https://assets.blocksec.com/icon/f1cb2d02c471d545bbc7722daf3277fd852d98e63d118771af7047bd8256c516.png",
                        "isERC1155": false,
                        "isERC721": false,
                        "sign": false,
                        "value": "49.397016844683400483"
                    },
                    {
                        "address": "0xeeeeeeeeeeeeeeeeeeeeeeeeeeeeeeeeeeeeeeee",
                        "amount": "0.026525733580631353",
                        "iconUrl": "https://assets.blocksec.com/image/1663669189317-3.png",
                        "isERC1155": false,
                        "isERC721": false,
                        "sign": true,
                        "value": "49.397016844683400483"
                    }
                ]
            },
            {
                "account": "0xc02aaa39b223fe8d0a0e5c4f27ead9083c756cc2",
                "assets": [
                    {
                        "address": "0xc02aaa39b223fe8d0a0e5c4f27ead9083c756cc2",
                        "amount": "0.026525733580631353",
                        "iconUrl": "https://assets.blocksec.com/icon/f1cb2d02c471d545bbc7722daf3277fd852d98e63d118771af7047bd8256c516.png",
                        "isERC1155": false,
                        "isERC721": false,
                        "sign": true,
                        "value": "49.397016844683400483"
                    },
                    {
                        "address": "0xeeeeeeeeeeeeeeeeeeeeeeeeeeeeeeeeeeeeeeee",
                        "amount": "0.026525733580631353",
                        "iconUrl": "https://assets.blocksec.com/image/1663669189317-3.png",
                        "isERC1155": false,
                        "isERC721": false,
                        "sign": false,
                        "value": "49.397016844683400483"
                    }
                ]
            }
        ]
    },
    "profile": {
        "basic_info": {
            "baseFee": "32.730869034",
            "blockNumber": 17872160,
            "callData": "0x049639fb0000000000000000000000000000000000000000000000000000000000000004000000000000000000000000c02aaa39b223fe8d0a0e5c4f27ead9083c756cc2000000000000000000000000eeeeeeeeeeeeeeeeeeeeeeeeeeeeeeeeeeeeeeee000000000000000000000000000000000000000000000000005e3d039f7aed39000000000000000000000000000000000000000000000000005a81a9e126e74f00000000000000000000000000000000000000000000000000000000000000c00000000000000000000000000000000000000000000000000000000000000000",
            "debugEnable": true,
            "errorInfo": "",
            "eventCount": 6,
            "feeRecipient": "0x690b9a9e9aa1c9db991c7721a92d351db4fac990",
            "formatValue": "0",
            "gasLimit": 199519,
            "gasPrice": "33.730869034",
            "gasUsed": 104672,
            "intTxnCount": 16,
            "internalRevert": false,
            "internalRevertMessage": "",
            "isContractCreation": false,
            "isFlashloan": false,
            "maxFee": "44.819689804",
            "nonce": 6,
            "overwritedBlockNumber": -1,
            "priorityFee": "1",
            "receiver": "0x3c11f6265ddec22f4d049dde480615735f451646",
            "revertMessage": "",
            "sender": "0xfddeb0107e922caca59cad46fc7d733d1908c5d9",
            "simulationEnable": true,
            "sourceTxnHash": "0xb79c162c9c027f773f5c822780ef1c5b682f79abaa463f78168df497f4cfe8bb",
            "status": true,
            "timestamp": "2023-08-08T19:03:23Z",
            "transactionFee": "0.003530677523526848",
            "txnHash": "0xb79c162c9c027f773f5c822780ef1c5b682f79abaa463f78168df497f4cfe8bb",
            "txnIndex": 61,
            "type": 2,
            "value": "0"
        },
        "fund_flow": [
            {
                "amount": "0.026525733580631353",
                "from": "0xfddeb0107e922caca59cad46fc7d733d1908c5d9",
                "id": 1,
                "isERC1155": false,
                "isERC721": false,
                "isReverted": false,
                "order": 1,
                "to": "0xa7ca2c8673bcfa5a26d8ceec2887f2cc2b0db22a",
                "token": "0xc02aaa39b223fe8d0a0e5c4f27ead9083c756cc2"
            },
            {
                "amount": "0.026525733580631353",
                "from": "0xc02aaa39b223fe8d0a0e5c4f27ead9083c756cc2",
                "id": 2,
                "isERC1155": false,
                "isERC721": false,
                "isReverted": false,
                "order": 2,
                "to": "0xa7ca2c8673bcfa5a26d8ceec2887f2cc2b0db22a",
                "token": "0xeeeeeeeeeeeeeeeeeeeeeeeeeeeeeeeeeeeeeeee"
            },
            {
                "amount": "0.026525733580631353",
                "from": "0xa7ca2c8673bcfa5a26d8ceec2887f2cc2b0db22a",
                "id": 3,
                "isERC1155": false,
                "isERC721": false,
                "isReverted": false,
                "order": 3,
                "to": "0xc02aaa39b223fe8d0a0e5c4f27ead9083c756cc2",
                "token": "0xc02aaa39b223fe8d0a0e5c4f27ead9083c756cc2"
            },
            {
                "amount": "0.026525733580631353",
                "from": "0xa7ca2c8673bcfa5a26d8ceec2887f2cc2b0db22a",
                "id": 4,
                "isERC1155": false,
                "isERC721": false,
                "isReverted": false,
                "order": 4,
                "to": "0xfddeb0107e922caca59cad46fc7d733d1908c5d9",
                "token": "0xeeeeeeeeeeeeeeeeeeeeeeeeeeeeeeeeeeeeeeee"
            }
        ],
        "token_infos": [
            {
                "address": "0xc02aaa39b223fe8d0a0e5c4f27ead9083c756cc2",
                "decimals": 18
            },
            {
                "address": "0xeeeeeeeeeeeeeeeeeeeeeeeeeeeeeeeeeeeeeeee",
                "decimals": 18
            }
        ]
    },
    "address_label": {
        "labels": [
            {
                "address": "0xa7ca2c8673bcfa5a26d8ceec2887f2cc2b0db22a",
                "label": "0xa7ca_SmartVault"
            },
            {
                "address": "0x0000000000000000000000000000000000000001",
                "label": "Precompiled"
            },
            {
                "address": "0x0000000000000000000000000000000000000003",
                "label": "Precompiled"
            },
            {
                "address": "0x0000000000000000000000000000000000000004",
                "label": "Precompiled"
            },
            {
                "address": "0x0000000000000000000000000000000000000002",
                "label": "Precompiled"
            },
            {
                "address": "0xeeeeeeeeeeeeeeeeeeeeeeeeeeeeeeeeeeeeeeee",
                "label": "Ether"
            },
            {
                "address": "0x3c11f6265ddec22f4d049dde480615735f451646",
                "label": "Swapper"
            },
            {
                "address": "0xc02aaa39b223fe8d0a0e5c4f27ead9083c756cc2",
                "label": "Wrapped Ether (WETH)"
            },
            {
                "address": "0x3e88c9b0e3be6817973a6e629211e702d12c577f",
                "label": "0x3e88_SmartVault"
            }
        ]
    },
    "trace": {
        "accountLabels": null,
        "dataMap": {
            "-1": {
                "invocation": {
                    "address": "0xfddeb0107e922caca59cad46fc7d733d1908c5d9",
                    "callData": "",
                    "decodedMethod": null,
                    "errorInfo": "",
                    "fromAddress": "",
                    "gasUsed": 0,
                    "id": -1,
                    "methodDecoded": false,
                    "operation": "",
                    "output": "",
                    "revert": false,
                    "revertMessage": "",
                    "selector": "",
                    "status": false,
                    "value": ""
                },
                "nodeType": 0
            },
            "0": {
                "invocation": {
                    "address": "0x3c11f6265ddec22f4d049dde480615735f451646",
                    "callData": "0x0000000000000000000000000000000000000000000000000000000000000004000000000000000000000000c02aaa39b223fe8d0a0e5c4f27ead9083c756cc2000000000000000000000000eeeeeeeeeeeeeeeeeeeeeeeeeeeeeeeeeeeeeeee000000000000000000000000000000000000000000000000005e3d039f7aed39000000000000000000000000000000000000000000000000005a81a9e126e74f00000000000000000000000000000000000000000000000000000000000000c00000000000000000000000000000000000000000000000000000000000000000",
                    "decodedMethod": {
                        "callParams": [
                            {
                                "name": "source",
                                "type": "uint8",
                                "value": "4"
                            },
                            {
                                "name": "tokenIn",
                                "type": "address",
                                "value": "0xc02aaa39b223fe8d0a0e5c4f27ead9083c756cc2"
                            },
                            {
                                "name": "tokenOut",
                                "type": "address",
                                "value": "0xeeeeeeeeeeeeeeeeeeeeeeeeeeeeeeeeeeeeeeee"
                            },
                            {
                                "name": "amountIn",
                                "type": "uint256",
                                "value": "26,525,733,580,631,353"
                            },
                            {
                                "name": "minAmountOut",
                                "type": "uint256",
                                "value": "25,475,314,530,838,351"
                            },
                            {
                                "name": "data",
                                "type": "bytes",
                                "value": "0x"
                            }
                        ],
                        "constructorArguments": "",
                        "name": "call",
                        "returnParams": [],
                        "signature": "call(uint8,address,address,uint256,uint256,bytes)"
                    },
                    "errorInfo": "",
                    "fromAddress": "0xfddeb0107e922caca59cad46fc7d733d1908c5d9",
                    "gasUsed": 104672,
                    "id": 0,
                    "methodDecoded": true,
                    "operation": "CALL",
                    "output": "",
                    "revert": false,
                    "revertMessage": "",
                    "selector": "0x049639fb",
                    "status": true,
                    "value": "0"
                },
                "nodeType": 0
            },
            "1": {
                "invocation": {
                    "address": "0xc02aaa39b223fe8d0a0e5c4f27ead9083c756cc2",
                    "callData": "0x000000000000000000000000fddeb0107e922caca59cad46fc7d733d1908c5d9000000000000000000000000a7ca2c8673bcfa5a26d8ceec2887f2cc2b0db22a",
                    "decodedMethod": {
                        "callParams": [
                            {
                                "name": "",
                                "type": "address",
                                "value": "0xfddeb0107e922caca59cad46fc7d733d1908c5d9"
                            },
                            {
                                "name": "",
                                "type": "address",
                                "value": "0xa7ca2c8673bcfa5a26d8ceec2887f2cc2b0db22a"
                            }
                        ],
                        "constructorArguments": "",
                        "name": "allowance",
                        "returnParams": [
                            {
                                "decimalAvailable": true,
                                "name": "",
                                "type": "uint256",
                                "value": "115,792,089,237,316,195,423,570,985,008,687,907,853,269,984,665,640,564,039,457,584,007,913,129,639,935"
                            }
                        ],
                        "signature": "allowance(address,address)"
                    },
                    "errorInfo": "",
                    "fromAddress": "0x3c11f6265ddec22f4d049dde480615735f451646",
                    "gasUsed": 2717,
                    "id": 1,
                    "methodDecoded": true,
                    "operation": "STATICCALL",
                    "output": "0xffffffffffffffffffffffffffffffffffffffffffffffffffffffffffffffff",
                    "revert": false,
                    "revertMessage": "",
                    "selector": "0xdd62ed3e",
                    "status": true,
                    "value": "0"
                },
                "nodeType": 0
            },
            "10": {
                "invocation": {
                    "address": "0x3e88c9b0e3be6817973a6e629211e702d12c577f",
                    "callData": "0x",
                    "decodedMethod": {
                        "callParams": [],
                        "constructorArguments": "",
                        "name": "wrappedNativeToken",
                        "returnParams": [
                            {
                                "name": "",
                                "type": "address",
                                "value": "0xc02aaa39b223fe8d0a0e5c4f27ead9083c756cc2"
                            }
                        ],
                        "signature": "wrappedNativeToken()"
                    },
                    "errorInfo": "",
                    "fromAddress": "0xa7ca2c8673bcfa5a26d8ceec2887f2cc2b0db22a",
                    "gasUsed": 285,
                    "id": 10,
                    "methodDecoded": true,
                    "operation": "DELEGATECALL",
                    "output": "0x000000000000000000000000c02aaa39b223fe8d0a0e5c4f27ead9083c756cc2",
                    "revert": false,
                    "revertMessage": "",
                    "selector": "0x17fcb39b",
                    "status": true,
                    "value": "0"
                },
                "nodeType": 0
            },
            "11": {
                "invocation": {
                    "address": "0xa7ca2c8673bcfa5a26d8ceec2887f2cc2b0db22a",
                    "callData": "0x000000000000000000000000000000000000000000000000005e3d039f7aed3900000000000000000000000000000000000000000000000000000000000000400000000000000000000000000000000000000000000000000000000000000000",
                    "decodedMethod": {
                        "callParams": [
                            {
                                "name": "amount",
                                "type": "uint256",
                                "value": "26,525,733,580,631,353"
                            },
                            {
                                "name": "data",
                                "type": "bytes",
                                "value": "0x"
                            }
                        ],
                        "constructorArguments": "",
                        "name": "unwrap",
                        "returnParams": [
                            {
                                "name": "unwrapped",
                                "type": "uint256",
                                "value": "26,525,733,580,631,353"
                            }
                        ],
                        "signature": "unwrap(uint256,bytes)"
                    },
                    "errorInfo": "",
                    "fromAddress": "0x3c11f6265ddec22f4d049dde480615735f451646",
                    "gasUsed": 17467,
                    "id": 11,
                    "methodDecoded": true,
                    "operation": "CALL",
                    "output": "0x000000000000000000000000000000000000000000000000005e3d039f7aed39",
                    "revert": false,
                    "revertMessage": "",
                    "selector": "0xb413148e",
                    "status": true,
                    "value": "0"
                },
                "nodeType": 0
            },
            "12": {
                "invocation": {
                    "address": "0x3e88c9b0e3be6817973a6e629211e702d12c577f",
                    "callData": "0x000000000000000000000000000000000000000000000000005e3d039f7aed3900000000000000000000000000000000000000000000000000000000000000400000000000000000000000000000000000000000000000000000000000000000",
                    "decodedMethod": {
                        "callParams": [
                            {
                                "name": "amount",
                                "type": "uint256",
                                "value": "26,525,733,580,631,353"
                            },
                            {
                                "name": "data",
                                "type": "bytes",
                                "value": "0x"
                            }
                        ],
                        "constructorArguments": "",
                        "name": "unwrap",
                        "returnParams": [
                            {
                                "name": "unwrapped",
                                "type": "uint256",
                                "value": "26,525,733,580,631,353"
                            }
                        ],
                        "signature": "unwrap(uint256,bytes)"
                    },
                    "errorInfo": "",
                    "fromAddress": "0xa7ca2c8673bcfa5a26d8ceec2887f2cc2b0db22a",
                    "gasUsed": 17283,
                    "id": 12,
                    "methodDecoded": true,
                    "operation": "DELEGATECALL",
                    "output": "0x000000000000000000000000000000000000000000000000005e3d039f7aed39",
                    "revert": false,
                    "revertMessage": "",
                    "selector": "0xb413148e",
                    "status": true,
                    "value": "0"
                },
                "nodeType": 0
            },
            "13": {
                "invocation": {
                    "address": "0xc02aaa39b223fe8d0a0e5c4f27ead9083c756cc2",
                    "callData": "0x000000000000000000000000000000000000000000000000005e3d039f7aed39",
                    "decodedMethod": {
                        "callParams": [
                            {
                                "name": "wad",
                                "type": "uint256",
                                "value": "26,525,733,580,631,353"
                            }
                        ],
                        "constructorArguments": "",
                        "name": "withdraw",
                        "returnParams": [],
                        "signature": "withdraw(uint256)"
                    },
                    "errorInfo": "",
                    "fromAddress": "0xa7ca2c8673bcfa5a26d8ceec2887f2cc2b0db22a",
                    "gasUsed": 9352,
                    "id": 13,
                    "methodDecoded": true,
                    "operation": "CALL",
                    "output": "",
                    "revert": false,
                    "revertMessage": "",
                    "selector": "0x2e1a7d4d",
                    "status": true,
                    "value": "0"
                },
                "nodeType": 0
            },
            "14": {
                "invocation": {
                    "address": "0xa7ca2c8673bcfa5a26d8ceec2887f2cc2b0db22a",
                    "callData": "0x",
                    "decodedMethod": null,
                    "errorInfo": "",
                    "fromAddress": "0xc02aaa39b223fe8d0a0e5c4f27ead9083c756cc2",
                    "gasUsed": 212,
                    "id": 14,
                    "methodDecoded": false,
                    "operation": "CALL",
                    "output": "",
                    "revert": false,
                    "revertMessage": "",
                    "selector": "fallback",
                    "status": true,
                    "value": "0.026525733580631353"
                },
                "nodeType": 0
            },
            "15": {
                "invocation": {
                    "address": "0x3e88c9b0e3be6817973a6e629211e702d12c577f",
                    "callData": "0x",
                    "decodedMethod": null,
                    "errorInfo": "",
                    "fromAddress": "0xa7ca2c8673bcfa5a26d8ceec2887f2cc2b0db22a",
                    "gasUsed": 55,
                    "id": 15,
                    "methodDecoded": false,
                    "operation": "DELEGATECALL",
                    "output": "",
                    "revert": false,
                    "revertMessage": "",
                    "selector": "fallback",
                    "status": true,
                    "value": "0.026525733580631353"
                },
                "nodeType": 0
            },
            "16": {
                "event": {
                    "contract": "0xc02aaa39b223fe8d0a0e5c4f27ead9083c756cc2",
                    "decodedLog": {
                        "name": "Withdrawal",
                        "params": [
                            {
                                "name": "src",
                                "type": "address",
                                "value": "0xa7ca2c8673bcfa5a26d8ceec2887f2cc2b0db22a"
                            },
                            {
                                "name": "wad",
                                "type": "uint256",
                                "value": "26,525,733,580,631,353"
                            }
                        ],
                        "signature": "Withdrawal(address,uint256)"
                    },
                    "id": 16,
                    "logData": "0x000000000000000000000000000000000000000000000000005e3d039f7aed39",
                    "logDecoded": true,
                    "operation": "EVENT",
                    "revert": false,
                    "status": true,
                    "topics": [
                        "0x7fcf532c15f0a6db0bd6d0e038bea71d30d808c7d98cb3bf7268a95bf5081b65",
                        "0x000000000000000000000000a7ca2c8673bcfa5a26d8ceec2887f2cc2b0db22a"
                    ]
                },
                "nodeType": 1
            },
            "17": {
                "event": {
                    "contract": "0xa7ca2c8673bcfa5a26d8ceec2887f2cc2b0db22a",
                    "decodedLog": {
                        "name": "Unwrap",
                        "params": [
                            {
                                "name": "amount",
                                "type": "uint256",
                                "value": "26,525,733,580,631,353"
                            },
                            {
                                "name": "unwrapped",
                                "type": "uint256",
                                "value": "26,525,733,580,631,353"
                            },
                            {
                                "name": "data",
                                "type": "bytes",
                                "value": "0x"
                            }
                        ],
                        "signature": "Unwrap(uint256,uint256,bytes)"
                    },
                    "id": 17,
                    "logData": "0x000000000000000000000000000000000000000000000000005e3d039f7aed39000000000000000000000000000000000000000000000000005e3d039f7aed3900000000000000000000000000000000000000000000000000000000000000600000000000000000000000000000000000000000000000000000000000000000",
                    "logDecoded": true,
                    "operation": "EVENT",
                    "revert": false,
                    "status": true,
                    "topics": [
                        "0xb4d99315c288c112a1d49da08c3fa85f78e2c83392f63f0a8964418f96aa24ed"
                    ]
                },
                "nodeType": 1
            },
            "18": {
                "invocation": {
                    "address": "0xa7ca2c8673bcfa5a26d8ceec2887f2cc2b0db22a",
                    "callData": "0x000000000000000000000000eeeeeeeeeeeeeeeeeeeeeeeeeeeeeeeeeeeeeeee000000000000000000000000000000000000000000000000005e3d039f7aed39000000000000000000000000fddeb0107e922caca59cad46fc7d733d1908c5d900000000000000000000000000000000000000000000000000000000000000800000000000000000000000000000000000000000000000000000000000000000",
                    "decodedMethod": {
                        "callParams": [
                            {
                                "name": "token",
                                "type": "address",
                                "value": "0xeeeeeeeeeeeeeeeeeeeeeeeeeeeeeeeeeeeeeeee"
                            },
                            {
                                "name": "amount",
                                "type": "uint256",
                                "value": "26,525,733,580,631,353"
                            },
                            {
                                "name": "recipient",
                                "type": "address",
                                "value": "0xfddeb0107e922caca59cad46fc7d733d1908c5d9"
                            },
                            {
                                "name": "data",
                                "type": "bytes",
                                "value": "0x"
                            }
                        ],
                        "constructorArguments": "",
                        "name": "withdraw",
                        "returnParams": [
                            {
                                "name": "withdrawn",
                                "type": "uint256",
                                "value": "26,525,733,580,631,353"
                            }
                        ],
                        "signature": "withdraw(address,uint256,address,bytes)"
                    },
                    "errorInfo": "",
                    "fromAddress": "0x3c11f6265ddec22f4d049dde480615735f451646",
                    "gasUsed": 22722,
                    "id": 18,
                    "methodDecoded": true,
                    "operation": "CALL",
                    "output": "0x000000000000000000000000000000000000000000000000005e3d039f7aed39",
                    "revert": false,
                    "revertMessage": "",
                    "selector": "0x9003afee",
                    "status": true,
                    "value": "0"
                },
                "nodeType": 0
            },
            "19": {
                "invocation": {
                    "address": "0x3e88c9b0e3be6817973a6e629211e702d12c577f",
                    "callData": "0x000000000000000000000000eeeeeeeeeeeeeeeeeeeeeeeeeeeeeeeeeeeeeeee000000000000000000000000000000000000000000000000005e3d039f7aed39000000000000000000000000fddeb0107e922caca59cad46fc7d733d1908c5d900000000000000000000000000000000000000000000000000000000000000800000000000000000000000000000000000000000000000000000000000000000",
                    "decodedMethod": {
                        "callParams": [
                            {
                                "name": "token",
                                "type": "address",
                                "value": "0xeeeeeeeeeeeeeeeeeeeeeeeeeeeeeeeeeeeeeeee"
                            },
                            {
                                "name": "amount",
                                "type": "uint256",
                                "value": "26,525,733,580,631,353"
                            },
                            {
                                "name": "recipient",
                                "type": "address",
                                "value": "0xfddeb0107e922caca59cad46fc7d733d1908c5d9"
                            },
                            {
                                "name": "data",
                                "type": "bytes",
                                "value": "0x"
                            }
                        ],
                        "constructorArguments": "",
                        "name": "withdraw",
                        "returnParams": [
                            {
                                "name": "withdrawn",
                                "type": "uint256",
                                "value": "26,525,733,580,631,353"
                            }
                        ],
                        "signature": "withdraw(address,uint256,address,bytes)"
                    },
                    "errorInfo": "",
                    "fromAddress": "0xa7ca2c8673bcfa5a26d8ceec2887f2cc2b0db22a",
                    "gasUsed": 22526,
                    "id": 19,
                    "methodDecoded": true,
                    "operation": "DELEGATECALL",
                    "output": "0x000000000000000000000000000000000000000000000000005e3d039f7aed39",
                    "revert": false,
                    "revertMessage": "",
                    "selector": "0x9003afee",
                    "status": true,
                    "value": "0"
                },
                "nodeType": 0
            },
            "2": {
                "invocation": {
                    "address": "0xa7ca2c8673bcfa5a26d8ceec2887f2cc2b0db22a",
                    "callData": "0x000000000000000000000000c02aaa39b223fe8d0a0e5c4f27ead9083c756cc2000000000000000000000000fddeb0107e922caca59cad46fc7d733d1908c5d9000000000000000000000000000000000000000000000000005e3d039f7aed3900000000000000000000000000000000000000000000000000000000000000800000000000000000000000000000000000000000000000000000000000000000",
                    "decodedMethod": {
                        "callParams": [
                            {
                                "name": "token",
                                "type": "address",
                                "value": "0xc02aaa39b223fe8d0a0e5c4f27ead9083c756cc2"
                            },
                            {
                                "name": "from",
                                "type": "address",
                                "value": "0xfddeb0107e922caca59cad46fc7d733d1908c5d9"
                            },
                            {
                                "name": "amount",
                                "type": "uint256",
                                "value": "26,525,733,580,631,353"
                            },
                            {
                                "name": "data",
                                "type": "bytes",
                                "value": "0x"
                            }
                        ],
                        "constructorArguments": "",
                        "name": "collect",
                        "returnParams": [
                            {
                                "name": "collected",
                                "type": "uint256",
                                "value": "26,525,733,580,631,353"
                            }
                        ],
                        "signature": "collect(address,address,uint256,bytes)"
                    },
                    "errorInfo": "",
                    "fromAddress": "0x3c11f6265ddec22f4d049dde480615735f451646",
                    "gasUsed": 44829,
                    "id": 2,
                    "methodDecoded": true,
                    "operation": "CALL",
                    "output": "0x000000000000000000000000000000000000000000000000005e3d039f7aed39",
                    "revert": false,
                    "revertMessage": "",
                    "selector": "0x5af547e6",
                    "status": true,
                    "value": "0"
                },
                "nodeType": 0
            },
            "20": {
                "invocation": {
                    "address": "0xfddeb0107e922caca59cad46fc7d733d1908c5d9",
                    "callData": "0x",
                    "decodedMethod": null,
                    "errorInfo": "",
                    "fromAddress": "0xa7ca2c8673bcfa5a26d8ceec2887f2cc2b0db22a",
                    "gasUsed": 0,
                    "id": 20,
                    "methodDecoded": false,
                    "operation": "CALL",
                    "output": "",
                    "revert": false,
                    "revertMessage": "",
                    "selector": "fallback",
                    "status": true,
                    "value": "0.026525733580631353"
                },
                "nodeType": 0
            },
            "21": {
                "event": {
                    "contract": "0xa7ca2c8673bcfa5a26d8ceec2887f2cc2b0db22a",
                    "decodedLog": {
                        "name": "Withdraw",
                        "params": [
                            {
                                "name": "token",
                                "type": "address",
                                "value": "0xeeeeeeeeeeeeeeeeeeeeeeeeeeeeeeeeeeeeeeee"
                            },
                            {
                                "name": "recipient",
                                "type": "address",
                                "value": "0xfddeb0107e922caca59cad46fc7d733d1908c5d9"
                            },
                            {
                                "name": "withdrawn",
                                "type": "uint256",
                                "value": "26,525,733,580,631,353"
                            },
                            {
                                "name": "fee",
                                "type": "uint256",
                                "value": "0"
                            },
                            {
                                "name": "data",
                                "type": "bytes",
                                "value": "0x"
                            }
                        ],
                        "signature": "Withdraw(address,address,uint256,uint256,bytes)"
                    },
                    "id": 21,
                    "logData": "0x000000000000000000000000000000000000000000000000005e3d039f7aed39000000000000000000000000000000000000000000000000000000000000000000000000000000000000000000000000000000000000000000000000000000600000000000000000000000000000000000000000000000000000000000000000",
                    "logDecoded": true,
                    "operation": "EVENT",
                    "revert": false,
                    "status": true,
                    "topics": [
                        "0x33be7eabd8ed368ca1aa14ce2ad1e90a0c9bf21edbb3820d5591546e4eb84157",
                        "0x000000000000000000000000eeeeeeeeeeeeeeeeeeeeeeeeeeeeeeeeeeeeeeee",
                        "0x000000000000000000000000fddeb0107e922caca59cad46fc7d733d1908c5d9"
                    ]
                },
                "nodeType": 1
            },
            "22": {
                "event": {
                    "contract": "0x3c11f6265ddec22f4d049dde480615735f451646",
                    "decodedLog": {
                        "name": "Executed",
                        "params": [],
                        "signature": "Executed()"
                    },
                    "id": 22,
                    "logData": "0x",
                    "logDecoded": true,
                    "operation": "EVENT",
                    "revert": false,
                    "status": true,
                    "topics": [
                        "0x68f46c45a243a0e9065a97649faf9a5afe1692f2679e650c2f853b9cd734cc0e"
                    ]
                },
                "nodeType": 1
            },
            "3": {
                "invocation": {
                    "address": "0x3e88c9b0e3be6817973a6e629211e702d12c577f",
                    "callData": "0x000000000000000000000000c02aaa39b223fe8d0a0e5c4f27ead9083c756cc2000000000000000000000000fddeb0107e922caca59cad46fc7d733d1908c5d9000000000000000000000000000000000000000000000000005e3d039f7aed3900000000000000000000000000000000000000000000000000000000000000800000000000000000000000000000000000000000000000000000000000000000",
                    "decodedMethod": {
                        "callParams": [
                            {
                                "name": "token",
                                "type": "address",
                                "value": "0xc02aaa39b223fe8d0a0e5c4f27ead9083c756cc2"
                            },
                            {
                                "name": "from",
                                "type": "address",
                                "value": "0xfddeb0107e922caca59cad46fc7d733d1908c5d9"
                            },
                            {
                                "name": "amount",
                                "type": "uint256",
                                "value": "26,525,733,580,631,353"
                            },
                            {
                                "name": "data",
                                "type": "bytes",
                                "value": "0x"
                            }
                        ],
                        "constructorArguments": "",
                        "name": "collect",
                        "returnParams": [
                            {
                                "name": "collected",
                                "type": "uint256",
                                "value": "26,525,733,580,631,353"
                            }
                        ],
                        "signature": "collect(address,address,uint256,bytes)"
                    },
                    "errorInfo": "",
                    "fromAddress": "0xa7ca2c8673bcfa5a26d8ceec2887f2cc2b0db22a",
                    "gasUsed": 42133,
                    "id": 3,
                    "methodDecoded": true,
                    "operation": "DELEGATECALL",
                    "output": "0x000000000000000000000000000000000000000000000000005e3d039f7aed39",
                    "revert": false,
                    "revertMessage": "",
                    "selector": "0x5af547e6",
                    "status": true,
                    "value": "0"
                },
                "nodeType": 0
            },
            "4": {
                "invocation": {
                    "address": "0xc02aaa39b223fe8d0a0e5c4f27ead9083c756cc2",
                    "callData": "0x000000000000000000000000a7ca2c8673bcfa5a26d8ceec2887f2cc2b0db22a",
                    "decodedMethod": {
                        "callParams": [
                            {
                                "name": "",
                                "type": "address",
                                "value": "0xa7ca2c8673bcfa5a26d8ceec2887f2cc2b0db22a"
                            }
                        ],
                        "constructorArguments": "",
                        "name": "balanceOf",
                        "returnParams": [
                            {
                                "decimalAvailable": true,
                                "name": "",
                                "type": "uint256",
                                "value": "0"
                            }
                        ],
                        "signature": "balanceOf(address)"
                    },
                    "errorInfo": "",
                    "fromAddress": "0xa7ca2c8673bcfa5a26d8ceec2887f2cc2b0db22a",
                    "gasUsed": 2534,
                    "id": 4,
                    "methodDecoded": true,
                    "operation": "STATICCALL",
                    "output": "0x0000000000000000000000000000000000000000000000000000000000000000",
                    "revert": false,
                    "revertMessage": "",
                    "selector": "0x70a08231",
                    "status": true,
                    "value": "0"
                },
                "nodeType": 0
            },
            "5": {
                "invocation": {
                    "address": "0xc02aaa39b223fe8d0a0e5c4f27ead9083c756cc2",
                    "callData": "0x000000000000000000000000fddeb0107e922caca59cad46fc7d733d1908c5d9000000000000000000000000a7ca2c8673bcfa5a26d8ceec2887f2cc2b0db22a000000000000000000000000000000000000000000000000005e3d039f7aed39",
                    "decodedMethod": {
                        "callParams": [
                            {
                                "name": "src",
                                "type": "address",
                                "value": "0xfddeb0107e922caca59cad46fc7d733d1908c5d9"
                            },
                            {
                                "name": "dst",
                                "type": "address",
                                "value": "0xa7ca2c8673bcfa5a26d8ceec2887f2cc2b0db22a"
                            },
                            {
                                "decimalAvailable": true,
                                "name": "wad",
                                "type": "uint256",
                                "value": "26,525,733,580,631,353"
                            }
                        ],
                        "constructorArguments": "",
                        "name": "transferFrom",
                        "returnParams": [
                            {
                                "name": "",
                                "type": "bool",
                                "value": true
                            }
                        ],
                        "signature": "transferFrom(address,address,uint256)"
                    },
                    "errorInfo": "",
                    "fromAddress": "0xa7ca2c8673bcfa5a26d8ceec2887f2cc2b0db22a",
                    "gasUsed": 28125,
                    "id": 5,
                    "methodDecoded": true,
                    "operation": "CALL",
                    "output": "0x0000000000000000000000000000000000000000000000000000000000000001",
                    "revert": false,
                    "revertMessage": "",
                    "selector": "0x23b872dd",
                    "status": true,
                    "value": "0"
                },
                "nodeType": 0
            },
            "6": {
                "event": {
                    "contract": "0xc02aaa39b223fe8d0a0e5c4f27ead9083c756cc2",
                    "decodedLog": {
                        "name": "Transfer",
                        "params": [
                            {
                                "name": "src",
                                "type": "address",
                                "value": "0xfddeb0107e922caca59cad46fc7d733d1908c5d9"
                            },
                            {
                                "name": "dst",
                                "type": "address",
                                "value": "0xa7ca2c8673bcfa5a26d8ceec2887f2cc2b0db22a"
                            },
                            {
                                "decimalAvailable": true,
                                "name": "wad",
                                "type": "uint256",
                                "value": "26,525,733,580,631,353"
                            }
                        ],
                        "signature": "Transfer(address,address,uint256)"
                    },
                    "id": 6,
                    "logData": "0x000000000000000000000000000000000000000000000000005e3d039f7aed39",
                    "logDecoded": true,
                    "operation": "EVENT",
                    "revert": false,
                    "status": true,
                    "topics": [
                        "0xddf252ad1be2c89b69c2b068fc378daa952ba7f163c4a11628f55a4df523b3ef",
                        "0x000000000000000000000000fddeb0107e922caca59cad46fc7d733d1908c5d9",
                        "0x000000000000000000000000a7ca2c8673bcfa5a26d8ceec2887f2cc2b0db22a"
                    ]
                },
                "nodeType": 1
            },
            "7": {
                "invocation": {
                    "address": "0xc02aaa39b223fe8d0a0e5c4f27ead9083c756cc2",
                    "callData": "0x000000000000000000000000a7ca2c8673bcfa5a26d8ceec2887f2cc2b0db22a",
                    "decodedMethod": {
                        "callParams": [
                            {
                                "name": "",
                                "type": "address",
                                "value": "0xa7ca2c8673bcfa5a26d8ceec2887f2cc2b0db22a"
                            }
                        ],
                        "constructorArguments": "",
                        "name": "balanceOf",
                        "returnParams": [
                            {
                                "decimalAvailable": true,
                                "name": "",
                                "type": "uint256",
                                "value": "26,525,733,580,631,353"
                            }
                        ],
                        "signature": "balanceOf(address)"
                    },
                    "errorInfo": "",
                    "fromAddress": "0xa7ca2c8673bcfa5a26d8ceec2887f2cc2b0db22a",
                    "gasUsed": 534,
                    "id": 7,
                    "methodDecoded": true,
                    "operation": "STATICCALL",
                    "output": "0x000000000000000000000000000000000000000000000000005e3d039f7aed39",
                    "revert": false,
                    "revertMessage": "",
                    "selector": "0x70a08231",
                    "status": true,
                    "value": "0"
                },
                "nodeType": 0
            },
            "8": {
                "event": {
                    "contract": "0xa7ca2c8673bcfa5a26d8ceec2887f2cc2b0db22a",
                    "decodedLog": {
                        "name": "Collect",
                        "params": [
                            {
                                "name": "token",
                                "type": "address",
                                "value": "0xc02aaa39b223fe8d0a0e5c4f27ead9083c756cc2"
                            },
                            {
                                "name": "from",
                                "type": "address",
                                "value": "0xfddeb0107e922caca59cad46fc7d733d1908c5d9"
                            },
                            {
                                "name": "collected",
                                "type": "uint256",
                                "value": "26,525,733,580,631,353"
                            },
                            {
                                "name": "data",
                                "type": "bytes",
                                "value": "0x"
                            }
                        ],
                        "signature": "Collect(address,address,uint256,bytes)"
                    },
                    "id": 8,
                    "logData": "0x000000000000000000000000000000000000000000000000005e3d039f7aed3900000000000000000000000000000000000000000000000000000000000000400000000000000000000000000000000000000000000000000000000000000000",
                    "logDecoded": true,
                    "operation": "EVENT",
                    "revert": false,
                    "status": true,
                    "topics": [
                        "0x42bd73ea702d7cf4505c06a7ac02a171536177d9cc2c7665443151ec91cc43fc",
                        "0x000000000000000000000000c02aaa39b223fe8d0a0e5c4f27ead9083c756cc2",
                        "0x000000000000000000000000fddeb0107e922caca59cad46fc7d733d1908c5d9"
                    ]
                },
                "nodeType": 1
            },
            "9": {
                "invocation": {
                    "address": "0xa7ca2c8673bcfa5a26d8ceec2887f2cc2b0db22a",
                    "callData": "0x",
                    "decodedMethod": {
                        "callParams": [],
                        "constructorArguments": "",
                        "name": "wrappedNativeToken",
                        "returnParams": [
                            {
                                "name": "",
                                "type": "address",
                                "value": "0xc02aaa39b223fe8d0a0e5c4f27ead9083c756cc2"
                            }
                        ],
                        "signature": "wrappedNativeToken()"
                    },
                    "errorInfo": "",
                    "fromAddress": "0x3c11f6265ddec22f4d049dde480615735f451646",
                    "gasUsed": 451,
                    "id": 9,
                    "methodDecoded": true,
                    "operation": "STATICCALL",
                    "output": "0x000000000000000000000000c02aaa39b223fe8d0a0e5c4f27ead9083c756cc2",
                    "revert": false,
                    "revertMessage": "",
                    "selector": "0x17fcb39b",
                    "status": true,
                    "value": "0"
                },
                "nodeType": 0
            }
        },
        "gasFlame": [
            {
                "children": [
                    {
                        "children": [
                            {
                                "children": [],
                                "depth": 0,
                                "name": "Initial Gas",
                                "value": 22632
                            },
                            {
                                "children": [
                                    {
                                        "children": [],
                                        "depth": 1,
                                        "name": "allowance",
                                        "value": 2717
                                    },
                                    {
                                        "children": [
                                            {
                                                "children": [
                                                    {
                                                        "children": [],
                                                        "depth": 3,
                                                        "name": "balanceOf",
                                                        "value": 2534
                                                    },
                                                    {
                                                        "children": [],
                                                        "depth": 3,
                                                        "name": "transferFrom",
                                                        "value": 28125
                                                    },
                                                    {
                                                        "children": [],
                                                        "depth": 3,
                                                        "name": "balanceOf",
                                                        "value": 534
                                                    }
                                                ],
                                                "depth": 2,
                                                "name": "collect",
                                                "value": 42133
                                            }
                                        ],
                                        "depth": 1,
                                        "name": "collect",
                                        "value": 44829
                                    },
                                    {
                                        "children": [
                                            {
                                                "children": [],
                                                "depth": 2,
                                                "name": "wrappedNativeToken",
                                                "value": 285
                                            }
                                        ],
                                        "depth": 1,
                                        "name": "wrappedNativeToken",
                                        "value": 451
                                    },
                                    {
                                        "children": [
                                            {
                                                "children": [
                                                    {
                                                        "children": [
                                                            {
                                                                "children": [
                                                                    {
                                                                        "children": [],
                                                                        "depth": 5,
                                                                        "name": "fallback",
                                                                        "value": 55
                                                                    }
                                                                ],
                                                                "depth": 4,
                                                                "name": "fallback",
                                                                "value": 212
                                                            }
                                                        ],
                                                        "depth": 3,
                                                        "name": "withdraw",
                                                        "value": 9352
                                                    }
                                                ],
                                                "depth": 2,
                                                "name": "unwrap",
                                                "value": 17283
                                            }
                                        ],
                                        "depth": 1,
                                        "name": "unwrap",
                                        "value": 17467
                                    },
                                    {
                                        "children": [
                                            {
                                                "children": [
                                                    {
                                                        "children": [],
                                                        "depth": 3,
                                                        "name": "fallback",
                                                        "value": 0
                                                    }
                                                ],
                                                "depth": 2,
                                                "name": "withdraw",
                                                "value": 22526
                                            }
                                        ],
                                        "depth": 1,
                                        "name": "withdraw",
                                        "value": 22722
                                    }
                                ],
                                "depth": 0,
                                "name": "Executed Gas",
                                "value": 108207
                            }
                        ],
                        "depth": -1,
                        "name": "Actual Gas Used",
                        "value": 104672
                    },
                    {
                        "children": [],
                        "depth": -1,
                        "name": "Refunded Gas",
                        "value": 26167
                    }
                ],
                "depth": -2,
                "name": "Total Gas",
                "value": 130839
            }
        ],
        "isConfirmed": true,
        "mainTrace": [
            {
                "children": [
                    {
                        "children": [
                            {
                                "children": [],
                                "depth": 1,
                                "id": 1,
                                "order": 1
                            },
                            {
                                "children": [
                                    {
                                        "children": [
                                            {
                                                "children": [],
                                                "depth": 3,
                                                "id": 4,
                                                "order": 4
                                            },
                                            {
                                                "children": [
                                                    {
                                                        "children": [],
                                                        "depth": 4,
                                                        "id": 6,
                                                        "order": 6
                                                    }
                                                ],
                                                "depth": 3,
                                                "id": 5,
                                                "order": 5
                                            },
                                            {
                                                "children": [],
                                                "depth": 3,
                                                "id": 7,
                                                "order": 7
                                            },
                                            {
                                                "children": [],
                                                "depth": 3,
                                                "id": 8,
                                                "order": 8
                                            }
                                        ],
                                        "depth": 2,
                                        "id": 3,
                                        "order": 3
                                    }
                                ],
                                "depth": 1,
                                "id": 2,
                                "order": 2
                            },
                            {
                                "children": [
                                    {
                                        "children": [],
                                        "depth": 2,
                                        "id": 10,
                                        "order": 10
                                    }
                                ],
                                "depth": 1,
                                "id": 9,
                                "order": 9
                            },
                            {
                                "children": [
                                    {
                                        "children": [
                                            {
                                                "children": [
                                                    {
                                                        "children": [
                                                            {
                                                                "children": [],
                                                                "depth": 5,
                                                                "id": 15,
                                                                "order": 15
                                                            }
                                                        ],
                                                        "depth": 4,
                                                        "id": 14,
                                                        "order": 14
                                                    },
                                                    {
                                                        "children": [],
                                                        "depth": 4,
                                                        "id": 16,
                                                        "order": 16
                                                    }
                                                ],
                                                "depth": 3,
                                                "id": 13,
                                                "order": 13
                                            },
                                            {
                                                "children": [],
                                                "depth": 3,
                                                "id": 17,
                                                "order": 17
                                            }
                                        ],
                                        "depth": 2,
                                        "id": 12,
                                        "order": 12
                                    }
                                ],
                                "depth": 1,
                                "id": 11,
                                "order": 11
                            },
                            {
                                "children": [
                                    {
                                        "children": [
                                            {
                                                "children": [],
                                                "depth": 3,
                                                "id": 20,
                                                "order": 20
                                            },
                                            {
                                                "children": [],
                                                "depth": 3,
                                                "id": 21,
                                                "order": 21
                                            }
                                        ],
                                        "depth": 2,
                                        "id": 19,
                                        "order": 19
                                    }
                                ],
                                "depth": 1,
                                "id": 18,
                                "order": 18
                            },
                            {
                                "children": [],
                                "depth": 1,
                                "id": 22,
                                "order": 22
                            }
                        ],
                        "depth": 0,
                        "id": 0,
                        "order": 0
                    }
                ],
                "depth": -1,
                "id": -1,
                "order": -1
            }
        ],
        "mainTraceNodeCount": 23,
        "parentIdMap": {
            "0": -1,
            "1": 0,
            "10": 9,
            "11": 0,
            "12": 11,
            "13": 12,
            "14": 13,
            "15": 14,
            "16": 13,
            "17": 12,
            "18": 0,
            "19": 18,
            "2": 0,
            "20": 19,
            "21": 19,
            "22": 0,
            "3": 2,
            "4": 3,
            "5": 3,
            "6": 5,
            "7": 3,
            "8": 3,
            "9": 0
        },
        "tidyTrace": [
            {
                "children": [
                    {
                        "children": [
                            {
                                "children": [
                                    {
                                        "children": [
                                            {
                                                "children": [
                                                    {
                                                        "children": [],
                                                        "depth": 4,
                                                        "id": 6,
                                                        "order": 6
                                                    }
                                                ],
                                                "depth": 3,
                                                "id": 5,
                                                "order": 5
                                            },
                                            {
                                                "children": [],
                                                "depth": 3,
                                                "id": 8,
                                                "order": 8
                                            }
                                        ],
                                        "depth": 2,
                                        "id": 3,
                                        "order": 3
                                    }
                                ],
                                "depth": 1,
                                "id": 2,
                                "order": 2
                            },
                            {
                                "children": [
                                    {
                                        "children": [
                                            {
                                                "children": [
                                                    {
                                                        "children": [
                                                            {
                                                                "children": [],
                                                                "depth": 5,
                                                                "id": 15,
                                                                "order": 15
                                                            }
                                                        ],
                                                        "depth": 4,
                                                        "id": 14,
                                                        "order": 14
                                                    },
                                                    {
                                                        "children": [],
                                                        "depth": 4,
                                                        "id": 16,
                                                        "order": 16
                                                    }
                                                ],
                                                "depth": 3,
                                                "id": 13,
                                                "order": 13
                                            },
                                            {
                                                "children": [],
                                                "depth": 3,
                                                "id": 17,
                                                "order": 17
                                            }
                                        ],
                                        "depth": 2,
                                        "id": 12,
                                        "order": 12
                                    }
                                ],
                                "depth": 1,
                                "id": 11,
                                "order": 11
                            },
                            {
                                "children": [
                                    {
                                        "children": [
                                            {
                                                "children": [],
                                                "depth": 3,
                                                "id": 20,
                                                "order": 20
                                            },
                                            {
                                                "children": [],
                                                "depth": 3,
                                                "id": 21,
                                                "order": 21
                                            }
                                        ],
                                        "depth": 2,
                                        "id": 19,
                                        "order": 19
                                    }
                                ],
                                "depth": 1,
                                "id": 18,
                                "order": 18
                            },
                            {
                                "children": [],
                                "depth": 1,
                                "id": 22,
                                "order": 22
                            }
                        ],
                        "depth": 0,
                        "id": 0,
                        "order": 0
                    }
                ],
                "depth": -1,
                "id": -1,
                "order": -1
            }
        ],
        "tidyTraceNodeCount": 18
    },
    "state_change": {
        "stateChanges": [
            {
                "address": "0xc02aaa39b223fe8d0a0e5c4f27ead9083c756cc2",
                "erc": "ERC-20",
                "slots": [
                    {
                        "current": "0x0000000000000000000000000000000000000000000000000000000000000000",
                        "key": "0x47dfb3e8a3f9d040c02b95b083d636d6c45a6601bac04a5a9fdfa77ea7c80470",
                        "prev": "0x000000000000000000000000000000000000000000000000005e3d039f7aed39"
                    }
                ],
                "storageVariables": [
                    {
                        "name": "balanceOf",
                        "type": "mapping(address => uint256)",
                        "value": {
                            "pairs": [
                                {
                                    "key": "0xfddeb0107e922caca59cad46fc7d733d1908c5d9",
                                    "value": {
                                        "current": "0",
                                        "prev": "26525733580631353",
                                        "typeTag": 1
                                    }
                                }
                            ],
                            "typeTag": 4
                        }
                    }
                ]
            }
        ]
    }
}