{
    "balance_change": {
        "balanceChanges": [
            {
                "account": "0x9a96812ff78123f01f7be3cf3fa12b949130a288",
                "assets": [
                    {
                        "address": "0x06a6a7af298129e3a2ab396c9c06f91d3c54aba8",
                        "amount": "16,254",
                        "iconUrl": "",
                        "isERC1155": false,
                        "isERC721": false,
                        "sign": false,
                        "value": ""
                    }
                ]
            },
            {
                "account": "0x4e25a15f9927ad83c6cdee1c5f0ff7d967c51d4a",
                "assets": [
                    {
                        "address": "0x06a6a7af298129e3a2ab396c9c06f91d3c54aba8",
                        "amount": "16,254",
                        "iconUrl": "",
                        "isERC1155": false,
                        "isERC721": false,
                        "sign": true,
                        "value": ""
                    }
                ]
            }
        ]
    },
    "profile": {
        "basic_info": {
            "baseFee": "",
            "blockNumber": 7951636,
            "callData": "0x23b872dd0000000000000000000000009a96812ff78123f01f7be3cf3fa12b949130a2880000000000000000000000004e25a15f9927ad83c6cdee1c5f0ff7d967c51d4a0000000000000000000000000000000000000000000000000000000000003f7e",
            "debugEnable": true,
            "errorInfo": "",
            "eventCount": 1,
            "feeRecipient": "0xb2930b35844a230f00e51431acae96fe543a0347",
            "formatValue": "0",
            "gasLimit": 218037,
            "gasPrice": "1.1",
            "gasUsed": 100358,
            "intTxnCount": 0,
            "internalRevert": false,
            "internalRevertMessage": "",
            "isContractCreation": false,
            "isFlashloan": false,
            "maxFee": "",
            "nonce": 3581,
            "overwritedBlockNumber": -1,
            "priorityFee": "",
            "receiver": "0x06a6a7af298129e3a2ab396c9c06f91d3c54aba8",
            "revertMessage": "",
            "sender": "0x9a96812ff78123f01f7be3cf3fa12b949130a288",
            "simulationEnable": true,
            "sourceTxnHash": "0xb7d28451cf32a934beaf6800913025e239b421515b5fd2234a09b987e50c35b5",
            "status": true,
            "timestamp": "2019-06-13T17:16:54Z",
            "transactionFee": "0.0001103938",
            "txnHash": "0xb7d28451cf32a934beaf6800913025e239b421515b5fd2234a09b987e50c35b5",
            "txnIndex": 16,
            "type": 0,
            "value": "0"
        },
        "fund_flow": [
            {
                "amount": "16,254",
                "from": "0x9a96812ff78123f01f7be3cf3fa12b949130a288",
                "id": 1,
                "isERC1155": false,
                "isERC721": false,
                "isReverted": false,
                "order": 1,
                "to": "0x4e25a15f9927ad83c6cdee1c5f0ff7d967c51d4a",
                "token": "0x06a6a7af298129e3a2ab396c9c06f91d3c54aba8"
            }
        ],
        "token_infos": [
            {
                "address": "0x06a6a7af298129e3a2ab396c9c06f91d3c54aba8",
                "decimals": -1
            },
            {
                "address": "0xc02aaa39b223fe8d0a0e5c4f27ead9083c756cc2",
                "decimals": 18
            },
            {
                "address": "0xeeeeeeeeeeeeeeeeeeeeeeeeeeeeeeeeeeeeeeee",
                "decimals": 18
            }
        ]
    },
    "address_label": {
        "labels": [
            {
                "address": "0x0000000000000000000000000000000000000002",
                "label": "Precompiled"
            },
            {
                "address": "0x0000000000000000000000000000000000000003",
                "label": "Precompiled"
            },
            {
                "address": "0x0000000000000000000000000000000000000004",
                "label": "Precompiled"
            },
            {
                "address": "0xeeeeeeeeeeeeeeeeeeeeeeeeeeeeeeeeeeeeeeee",
                "label": "Ether"
            },
            {
                "address": "0x06a6a7af298129e3a2ab396c9c06f91d3c54aba8",
                "label": "0xUniverse: PLANET Token"
            },
            {
                "address": "0x0000000000000000000000000000000000000001",
                "label": "Precompiled"
            }
        ]
    },
    "trace": {
        "accountLabels": null,
        "dataMap": {
            "-1": {
                "invocation": {
                    "address": "0x9a96812ff78123f01f7be3cf3fa12b949130a288",
                    "callData": "",
                    "decodedMethod": null,
                    "errorInfo": "",
                    "fromAddress": "",
                    "gasUsed": 0,
                    "id": -1,
                    "methodDecoded": false,
                    "operation": "",
                    "output": "",
                    "revert": false,
                    "revertMessage": "",
                    "selector": "",
                    "status": false,
                    "value": ""
                },
                "nodeType": 0
            },
            "0": {
                "invocation": {
                    "address": "0x06a6a7af298129e3a2ab396c9c06f91d3c54aba8",
                    "callData": "0x0000000000000000000000009a96812ff78123f01f7be3cf3fa12b949130a2880000000000000000000000004e25a15f9927ad83c6cdee1c5f0ff7d967c51d4a0000000000000000000000000000000000000000000000000000000000003f7e",
                    "decodedMethod": {
                        "callParams": [
                            {
                                "name": "_from",
                                "type": "address",
                                "value": "0x9a96812ff78123f01f7be3cf3fa12b949130a288"
                            },
                            {
                                "name": "_to",
                                "type": "address",
                                "value": "0x4e25a15f9927ad83c6cdee1c5f0ff7d967c51d4a"
                            },
                            {
                                "decimalAvailable": true,
                                "name": "_tokenId",
                                "type": "uint256",
                                "value": "16,254"
                            }
                        ],
                        "constructorArguments": "",
                        "name": "transferFrom",
                        "returnParams": [],
                        "signature": "transferFrom(address,address,uint256)"
                    },
                    "errorInfo": "",
                    "fromAddress": "0x9a96812ff78123f01f7be3cf3fa12b949130a288",
                    "gasUsed": 100358,
                    "id": 0,
                    "methodDecoded": true,
                    "operation": "CALL",
                    "output": "",
                    "revert": false,
                    "revertMessage": "",
                    "selector": "0x23b872dd",
                    "status": true,
                    "value": "0"
                },
                "nodeType": 0
            },
            "1": {
                "event": {
                    "contract": "0x06a6a7af298129e3a2ab396c9c06f91d3c54aba8",
                    "decodedLog": {
                        "name": "Transfer",
                        "params": [
                            {
                                "name": "_from",
                                "type": "address",
                                "value": "0x9a96812ff78123f01f7be3cf3fa12b949130a288"
                            },
                            {
                                "name": "_to",
                                "type": "address",
                                "value": "0x4e25a15f9927ad83c6cdee1c5f0ff7d967c51d4a"
                            },
                            {
                                "decimalAvailable": true,
                                "name": "_tokenId",
                                "type": "uint256",
                                "value": "16,254"
                            }
                        ],
                        "signature": "Transfer(address,address,uint256)"
                    },
                    "id": 1,
                    "logData": "0x0000000000000000000000000000000000000000000000000000000000003f7e",
                    "logDecoded": true,
                    "operation": "EVENT",
                    "revert": false,
                    "status": true,
                    "topics": [
                        "0xddf252ad1be2c89b69c2b068fc378daa952ba7f163c4a11628f55a4df523b3ef",
                        "0x0000000000000000000000009a96812ff78123f01f7be3cf3fa12b949130a288",
                        "0x0000000000000000000000004e25a15f9927ad83c6cdee1c5f0ff7d967c51d4a"
                    ]
                },
                "nodeType": 1
            }
        },
        "gasFlame": [
            {
                "children": [
                    {
                        "children": [
                            {
                                "children": [],
                                "depth": 0,
                                "name": "Initial Gas",
                                "value": 24344
                            },
                            {
                                "children": [],
                                "depth": 0,
                                "name": "Executed Gas",
                                "value": 121014
                            }
                        ],
                        "depth": -1,
                        "name": "Actual Gas Used",
                        "value": 100358
                    },
                    {
                        "children": [],
                        "depth": -1,
                        "name": "Refunded Gas",
                        "value": 45000
                    }
                ],
                "depth": -2,
                "name": "Total Gas",
                "value": 145358
            }
        ],
        "isConfirmed": true,
        "mainTrace": [
            {
                "children": [
                    {
                        "children": [
                            {
                                "children": [],
                                "depth": 1,
                                "id": 1,
                                "order": 1
                            }
                        ],
                        "depth": 0,
                        "id": 0,
                        "order": 0
                    }
                ],
                "depth": -1,
                "id": -1,
                "order": -1
            }
        ],
        "mainTraceNodeCount": 2,
        "parentIdMap": {
            "0": -1,
            "1": 0
        },
        "tidyTrace": [
            {
                "children": [
                    {
                        "children": [
                            {
                                "children": [],
                                "depth": 1,
                                "id": 1,
                                "order": 1
                            }
                        ],
                        "depth": 0,
                        "id": 0,
                        "order": 0
                    }
                ],
                "depth": -1,
                "id": -1,
                "order": -1
            }
        ],
        "tidyTraceNodeCount": 2
    },
    "state_change": {
        "stateChanges": [
            {
                "address": "0x06a6a7af298129e3a2ab396c9c06f91d3c54aba8",
                "erc": "ERC-721",
                "slots": [
                    {
                        "current": "0x0000000000000000000000004e25a15f9927ad83c6cdee1c5f0ff7d967c51d4a",
                        "key": "0x7fc9cc451ed43e2094a1f4b35431e7d2dac3a870dcac2f1862bd08b2f2ffa249",
                        "prev": "0x0000000000000000000000009a96812ff78123f01f7be3cf3fa12b949130a288"
                    },
                    {
                        "current": "0x0000000000000000000000000000000000000000000000000000000000000000",
                        "key": "0x667ed4d11f268c4a69174aa73f3b27dc3045ac0cd01a7a79f8ef9aabae08b702",
                        "prev": "0x0000000000000000000000000000000000000000000000000000000000005af1"
                    },
                    {
                        "current": "0x0000000000000000000000000000000000000000000000000000000000000051",
                        "key": "0xe213936943d32c3631009624ec3ab4982ba5d9dae25755f5ddb69c691489f43a",
                        "prev": "0x00000000000000000000000000000000000000000000000000000000000000f2"
                    },
                    {
                        "current": "0x000000000000000000000000000000000000000000000000000000000000010f",
                        "key": "0xee9a2888fbd46e8acf3979b8910aa40a8a5288281db48f8fb61d96720b377e92",
                        "prev": "0x0000000000000000000000000000000000000000000000000000000000000110"
                    },
                    {
                        "current": "0x0000000000000000000000000000000000000000000000000000000000000052",
                        "key": "0x8e75e74858a1c45140c0b63f5caac3a4ae54436e36150721dee36f2da4b4a33e",
                        "prev": "0x0000000000000000000000000000000000000000000000000000000000000051"
                    },
                    {
                        "current": "0x0000000000000000000000000000000000000000000000000000000000003f7e",
                        "key": "0xcc5a7edcacc130c206a4f9949c965b6b80ea80e096aa37d9b825b64cda3f2024",
                        "prev": "0x0000000000000000000000000000000000000000000000000000000000000000"
                    },
                    {
                        "current": "0x000000000000000000000000000000000000000000000000000000000000010f",
                        "key": "0x79170cf6aee5b386d16ee20e4c3935969ebc161058debd7864a3dbc93a479f3a",
                        "prev": "0x0000000000000000000000000000000000000000000000000000000000000110"
                    },
                    {
                        "current": "0x0000000000000000000000000000000000000000000000000000000000000052",
                        "key": "0xdc6fe33b61188f542d4f0d7d900d7f072d0f98c6739c3476c944fc052f92517f",
                        "prev": "0x0000000000000000000000000000000000000000000000000000000000000051"
                    },
                    {
                        "current": "0x0000000000000000000000000000000000000000000000000000000000005af1",
                        "key": "0x667ed4d11f268c4a69174aa73f3b27dc3045ac0cd01a7a79f8ef9aabae08b6e5",
                        "prev": "0x0000000000000000000000000000000000000000000000000000000000003f7e"
                    },
                    {
                        "current": "0x00000000000000000000000000000000000000000000000000000000000000f2",
                        "key": "0xeebf143196b13699bf08ae3ed84f5e89ce1229512e5e5c57c53048ce903fedce",
                        "prev": "0x000000000000000000000000000000000000000000000000000000000000010f"
                    }
                ],
                "storageVariables": [
                    {
                        "name": "tokenOwner",
                        "type": "mapping(uint256 => address)",
                        "value": {
                            "pairs": [
                                {
                                    "key": "16254",
                                    "value": {
                                        "current": "0x4e25a15f9927ad83c6cdee1c5f0ff7d967c51d4a",
                                        "prev": "0x9a96812ff78123f01f7be3cf3fa12b949130a288",
                                        "typeTag": 1
                                    }
                                }
                            ],
                            "typeTag": 4
                        }
                    },
                    {
                        "name": "ownedTokens",
                        "type": "mapping(address => uint256[])",
                        "value": {
                            "pairs": [
                                {
                                    "key": "0x4e25a15f9927ad83c6cdee1c5f0ff7d967c51d4a",
                                    "value": {
                                        "elemType": "uint256",
                                        "elems": [
                                            {
                                                "index": 81,
                                                "value": {
                                                    "current": "16254",
                                                    "prev": "0",
                                                    "typeTag": 1
                                                }
                                            }
                                        ],
                                        "typeTag": 2
                                    }
                                },
                                {
                                    "key": "0x9a96812ff78123f01f7be3cf3fa12b949130a288",
                                    "value": {
                                        "elemType": "uint256",
                                        "elems": [
                                            {
                                                "index": 242,
                                                "value": {
                                                    "current": "23281",
                                                    "prev": "16254",
                                                    "typeTag": 1
                                                }
                                            }
                                        ],
                                        "typeTag": 2
                                    }
                                }
                            ],
                            "typeTag": 4
                        }
                    },
                    {
                        "name": "ownedTokensCount",
                        "type": "mapping(address => uint256)",
                        "value": {
                            "pairs": [
                                {
                                    "key": "0x4e25a15f9927ad83c6cdee1c5f0ff7d967c51d4a",
                                    "value": {
                                        "current": "82",
                                        "prev": "81",
                                        "typeTag": 1
                                    }
                                },
                                {
                                    "key": "0x9a96812ff78123f01f7be3cf3fa12b949130a288",
                                    "value": {
                                        "current": "271",
                                        "prev": "272",
                                        "typeTag": 1
                                    }
                                }
                            ],
                            "typeTag": 4
                        }
                    },
                    {
                        "name": "ownedTokensIndex",
                        "type": "mapping(uint256 => uint256)",
                        "value": {
                            "pairs": [
                                {
                                    "key": "16254",
                                    "value": {
                                        "current": "81",
                                        "prev": "242",
                                        "typeTag": 1
                                    }
                                },
                                {
                                    "key": "23281",
                                    "value": {
                                        "current": "242",
                                        "prev": "271",
                                        "typeTag": 1
                                    }
                                }
                            ],
                            "typeTag": 4
                        }
                    }
                ]
            }
        ]
    }
}