{
    "balance_change": {
        "balanceChanges": [
            {
                "account": "0xe052113bd7d7700d623414a0a4585bcae754e9d5",
                "assets": [
                    {
                        "address": "0x7afeda4c714e1c0a2a1248332c100924506ac8e6",
                        "amount": "1",
                        "iconUrl": "",
                        "isERC1155": false,
                        "isERC721": true,
                        "sign": false,
                        "tokenID": "1952",
                        "value": ""
                    }
                ]
            },
            {
                "account": "0x5b4bb3c2bb6e2ec707cc39a86dd398c0a9f69add",
                "assets": [
                    {
                        "address": "0x7afeda4c714e1c0a2a1248332c100924506ac8e6",
                        "amount": "1",
                        "iconUrl": "",
                        "isERC1155": false,
                        "isERC721": true,
                        "sign": true,
                        "tokenID": "1952",
                        "value": ""
                    }
                ]
            }
        ]
    },
    "profile": {
        "basic_info": {
            "baseFee": "35.520441727",
            "blockNumber": 14353702,
            "callData": "0x42842e0e000000000000000000000000e052113bd7d7700d623414a0a4585bcae754e9d50000000000000000000000005b4bb3c2bb6e2ec707cc39a86dd398c0a9f69add00000000000000000000000000000000000000000000000000000000000007a0",
            "debugEnable": true,
            "errorInfo": "",
            "eventCount": 2,
            "feeRecipient": "0x2a20380dca5bc24d052acfbf79ba23e988ad0050",
            "formatValue": "0",
            "gasLimit": 63184,
            "gasPrice": "40.8",
            "gasUsed": 52654,
            "intTxnCount": 0,
            "internalRevert": false,
            "internalRevertMessage": "",
            "isContractCreation": false,
            "isFlashloan": false,
            "maxFee": "",
            "nonce": 112993,
            "overwritedBlockNumber": -1,
            "priorityFee": "",
            "receiver": "0x7afeda4c714e1c0a2a1248332c100924506ac8e6",
            "revertMessage": "",
            "sender": "0xe052113bd7d7700d623414a0a4585bcae754e9d5",
            "simulationEnable": true,
            "sourceTxnHash": "0xb71f03fcd968a278e0cf7040f7098c1b466ac8c1668f909b7200cf04f8f0af5d",
            "status": true,
            "timestamp": "2022-03-09T16:37:49Z",
            "transactionFee": "0.0021482832",
            "txnHash": "0xb71f03fcd968a278e0cf7040f7098c1b466ac8c1668f909b7200cf04f8f0af5d",
            "txnIndex": 22,
            "type": 0,
            "value": "0"
        },
        "fund_flow": [
            {
                "amount": "1",
                "from": "0xe052113bd7d7700d623414a0a4585bcae754e9d5",
                "id": 1,
                "isERC1155": false,
                "isERC721": true,
                "isReverted": false,
                "order": 1,
                "to": "0x5b4bb3c2bb6e2ec707cc39a86dd398c0a9f69add",
                "token": "0x7afeda4c714e1c0a2a1248332c100924506ac8e6",
                "tokenID": "1952"
            }
        ],
        "token_infos": [
            {
                "address": "0xc02aaa39b223fe8d0a0e5c4f27ead9083c756cc2",
                "decimals": 18
            },
            {
                "address": "0xeeeeeeeeeeeeeeeeeeeeeeeeeeeeeeeeeeeeeeee",
                "decimals": 18
            }
        ]
    },
    "address_label": {
        "labels": [
            {
                "address": "0x0000000000000000000000000000000000000003",
                "label": "Precompiled"
            },
            {
                "address": "0x0000000000000000000000000000000000000004",
                "label": "Precompiled"
            },
            {
                "address": "0xeeeeeeeeeeeeeeeeeeeeeeeeeeeeeeeeeeeeeeee",
                "label": "Ether"
            },
            {
                "address": "0xe052113bd7d7700d623414a0a4585bcae754e9d5",
                "label": "Nifty Gateway: Omnibus"
            },
            {
                "address": "0x7afeda4c714e1c0a2a1248332c100924506ac8e6",
                "label": "FVCK_CRYSTAL//: CRYST Token"
            },
            {
                "address": "0x0000000000000000000000000000000000000001",
                "label": "Precompiled"
            },
            {
                "address": "0x0000000000000000000000000000000000000002",
                "label": "Precompiled"
            }
        ]
    },
    "trace": {
        "accountLabels": null,
        "dataMap": {
            "-1": {
                "invocation": {
                    "address": "0xe052113bd7d7700d623414a0a4585bcae754e9d5",
                    "callData": "",
                    "decodedMethod": null,
                    "errorInfo": "",
                    "fromAddress": "",
                    "gasUsed": 0,
                    "id": -1,
                    "methodDecoded": false,
                    "operation": "",
                    "output": "",
                    "revert": false,
                    "revertMessage": "",
                    "selector": "",
                    "status": false,
                    "value": ""
                },
                "nodeType": 0
            },
            "0": {
                "invocation": {
                    "address": "0x7afeda4c714e1c0a2a1248332c100924506ac8e6",
                    "callData": "0x000000000000000000000000e052113bd7d7700d623414a0a4585bcae754e9d50000000000000000000000005b4bb3c2bb6e2ec707cc39a86dd398c0a9f69add00000000000000000000000000000000000000000000000000000000000007a0",
                    "decodedMethod": {
                        "callParams": [
                            {
                                "name": "from",
                                "type": "address",
                                "value": "0xe052113bd7d7700d623414a0a4585bcae754e9d5"
                            },
                            {
                                "name": "to",
                                "type": "address",
                                "value": "0x5b4bb3c2bb6e2ec707cc39a86dd398c0a9f69add"
                            },
                            {
                                "name": "tokenId",
                                "type": "uint256",
                                "value": "1,952"
                            }
                        ],
                        "constructorArguments": "",
                        "name": "safeTransferFrom",
                        "returnParams": [],
                        "signature": "safeTransferFrom(address,address,uint256)"
                    },
                    "errorInfo": "",
                    "fromAddress": "0xe052113bd7d7700d623414a0a4585bcae754e9d5",
                    "gasUsed": 52654,
                    "id": 0,
                    "methodDecoded": true,
                    "operation": "CALL",
                    "output": "",
                    "revert": false,
                    "revertMessage": "",
                    "selector": "0x42842e0e",
                    "status": true,
                    "value": "0"
                },
                "nodeType": 0
            },
            "1": {
                "event": {
                    "contract": "0x7afeda4c714e1c0a2a1248332c100924506ac8e6",
                    "decodedLog": {
                        "name": "Approval",
                        "params": [
                            {
                                "name": "owner",
                                "type": "address",
                                "value": "0xe052113bd7d7700d623414a0a4585bcae754e9d5"
                            },
                            {
                                "name": "approved",
                                "type": "address",
                                "value": "0x0000000000000000000000000000000000000000"
                            },
                            {
                                "decimalAvailable": true,
                                "name": "tokenId",
                                "type": "uint256",
                                "value": "1,952"
                            }
                        ],
                        "signature": "Approval(address,address,uint256)"
                    },
                    "id": 1,
                    "logData": "0x",
                    "logDecoded": true,
                    "operation": "EVENT",
                    "revert": false,
                    "status": true,
                    "topics": [
                        "0x8c5be1e5ebec7d5bd14f71427d1e84f3dd0314c0f7b2291e5b200ac8c7c3b925",
                        "0x000000000000000000000000e052113bd7d7700d623414a0a4585bcae754e9d5",
                        "0x0000000000000000000000000000000000000000000000000000000000000000",
                        "0x00000000000000000000000000000000000000000000000000000000000007a0"
                    ]
                },
                "nodeType": 1
            },
            "2": {
                "event": {
                    "contract": "0x7afeda4c714e1c0a2a1248332c100924506ac8e6",
                    "decodedLog": {
                        "name": "Transfer",
                        "params": [
                            {
                                "name": "from",
                                "type": "address",
                                "value": "0xe052113bd7d7700d623414a0a4585bcae754e9d5"
                            },
                            {
                                "name": "to",
                                "type": "address",
                                "value": "0x5b4bb3c2bb6e2ec707cc39a86dd398c0a9f69add"
                            },
                            {
                                "decimalAvailable": true,
                                "name": "tokenId",
                                "type": "uint256",
                                "value": "1,952"
                            }
                        ],
                        "signature": "Transfer(address,address,uint256)"
                    },
                    "id": 2,
                    "logData": "0x",
                    "logDecoded": true,
                    "operation": "EVENT",
                    "revert": false,
                    "status": true,
                    "topics": [
                        "0xddf252ad1be2c89b69c2b068fc378daa952ba7f163c4a11628f55a4df523b3ef",
                        "0x000000000000000000000000e052113bd7d7700d623414a0a4585bcae754e9d5",
                        "0x0000000000000000000000005b4bb3c2bb6e2ec707cc39a86dd398c0a9f69add",
                        "0x00000000000000000000000000000000000000000000000000000000000007a0"
                    ]
                },
                "nodeType": 1
            }
        },
        "gasFlame": [
            {
                "children": [
                    {
                        "children": [
                            {
                                "children": [],
                                "depth": 0,
                                "name": "Initial Gas",
                                "value": 21952
                            },
                            {
                                "children": [],
                                "depth": 0,
                                "name": "Executed Gas",
                                "value": 30702
                            }
                        ],
                        "depth": -1,
                        "name": "Actual Gas Used",
                        "value": 52654
                    },
                    {
                        "children": [],
                        "depth": -1,
                        "name": "Refunded Gas",
                        "value": 0
                    }
                ],
                "depth": -2,
                "name": "Total Gas",
                "value": 52654
            }
        ],
        "isConfirmed": true,
        "mainTrace": [
            {
                "children": [
                    {
                        "children": [
                            {
                                "children": [],
                                "depth": 1,
                                "id": 1,
                                "order": 1
                            },
                            {
                                "children": [],
                                "depth": 1,
                                "id": 2,
                                "order": 2
                            }
                        ],
                        "depth": 0,
                        "id": 0,
                        "order": 0
                    }
                ],
                "depth": -1,
                "id": -1,
                "order": -1
            }
        ],
        "mainTraceNodeCount": 3,
        "parentIdMap": {
            "0": -1,
            "1": 0,
            "2": 0
        },
        "tidyTrace": [
            {
                "children": [
                    {
                        "children": [
                            {
                                "children": [],
                                "depth": 1,
                                "id": 1,
                                "order": 1
                            },
                            {
                                "children": [],
                                "depth": 1,
                                "id": 2,
                                "order": 2
                            }
                        ],
                        "depth": 0,
                        "id": 0,
                        "order": 0
                    }
                ],
                "depth": -1,
                "id": -1,
                "order": -1
            }
        ],
        "tidyTraceNodeCount": 3
    },
    "state_change": {
        "stateChanges": [
            {
                "address": "0x7afeda4c714e1c0a2a1248332c100924506ac8e6",
                "erc": "ERC-721",
                "slots": [
                    {
                        "current": "0x0000000000000000000000000000000000000000000000000000000000000009",
                        "key": "0x50274f71f2ca38ea9b65de3b09105921d2fe569d18368f188bc2b20b7caf55ed",
                        "prev": "0x0000000000000000000000000000000000000000000000000000000000000008"
                    },
                    {
                        "current": "0x0000000000000000000000005b4bb3c2bb6e2ec707cc39a86dd398c0a9f69add",
                        "key": "0xf0629546709b0bbbff1fc1f69b500d377c9603a41e336aadccb2e9e2285f8c54",
                        "prev": "0x000000000000000000000000e052113bd7d7700d623414a0a4585bcae754e9d5"
                    },
                    {
                        "current": "0x0000000000000000000000000000000000000000000000000000000000000110",
                        "key": "0x4c8ea65e679f1b38ed4044288d4d2b962849397da88f1c7669e7b51b25e31aba",
                        "prev": "0x0000000000000000000000000000000000000000000000000000000000000111"
                    }
                ],
                "storageVariables": [
                    {
                        "name": "_balances",
                        "type": "mapping(address => uint256)",
                        "value": {
                            "pairs": [
                                {
                                    "key": "0x5b4bb3c2bb6e2ec707cc39a86dd398c0a9f69add",
                                    "value": {
                                        "current": "9",
                                        "prev": "8",
                                        "typeTag": 1
                                    }
                                },
                                {
                                    "key": "0xe052113bd7d7700d623414a0a4585bcae754e9d5",
                                    "value": {
                                        "current": "272",
                                        "prev": "273",
                                        "typeTag": 1
                                    }
                                }
                            ],
                            "typeTag": 4
                        }
                    },
                    {
                        "name": "_owners",
                        "type": "mapping(uint256 => address)",
                        "value": {
                            "pairs": [
                                {
                                    "key": "1952",
                                    "value": {
                                        "current": "0x5b4bb3c2bb6e2ec707cc39a86dd398c0a9f69add",
                                        "prev": "0xe052113bd7d7700d623414a0a4585bcae754e9d5",
                                        "typeTag": 1
                                    }
                                }
                            ],
                            "typeTag": 4
                        }
                    }
                ]
            }
        ]
    }
}