{
    "balance_change": {
        "balanceChanges": [
            {
                "account": "0x6cc5f688a315f3dc28a7781717a9a798a59fda7b",
                "assets": [
                    {
                        "address": "0x1b6c5864375b34af3ff5bd2e5f40bc425b4a8d79",
                        "amount": "39,980",
                        "iconUrl": "",
                        "isERC1155": false,
                        "isERC721": false,
                        "sign": false,
                        "value": ""
                    }
                ]
            },
            {
                "account": "0x15f6131d76eb9f1c02b350e5efb9792bd68cb8b3",
                "assets": [
                    {
                        "address": "0x1b6c5864375b34af3ff5bd2e5f40bc425b4a8d79",
                        "amount": "39,980",
                        "iconUrl": "",
                        "isERC1155": false,
                        "isERC721": false,
                        "sign": true,
                        "value": ""
                    }
                ]
            }
        ]
    },
    "profile": {
        "basic_info": {
            "baseFee": "",
            "blockNumber": 7370350,
            "callData": "0xa9059cbb00000000000000000000000015f6131d76eb9f1c02b350e5efb9792bd68cb8b3000000000000000000000000000000000000000000000000000000094efe6300",
            "debugEnable": true,
            "errorInfo": "",
            "eventCount": 1,
            "feeRecipient": "0x9435d50503aee35c8757ae4933f7a0ab56597805",
            "formatValue": "0",
            "gasLimit": 420000,
            "gasPrice": "35",
            "gasUsed": 37030,
            "intTxnCount": 0,
            "internalRevert": false,
            "internalRevertMessage": "",
            "isContractCreation": false,
            "isFlashloan": false,
            "maxFee": "",
            "nonce": 624111,
            "overwritedBlockNumber": -1,
            "priorityFee": "",
            "receiver": "0x1b6c5864375b34af3ff5bd2e5f40bc425b4a8d79",
            "revertMessage": "",
            "sender": "0x6cc5f688a315f3dc28a7781717a9a798a59fda7b",
            "simulationEnable": true,
            "sourceTxnHash": "0xb753ad5e22e1a703f1aaa991ee697e4dfdd1fc6e966c1eef2c4715ed03483ab5",
            "status": true,
            "timestamp": "2019-03-15T00:29:15Z",
            "transactionFee": "0.00129605",
            "txnHash": "0xb753ad5e22e1a703f1aaa991ee697e4dfdd1fc6e966c1eef2c4715ed03483ab5",
            "txnIndex": 0,
            "type": 0,
            "value": "0"
        },
        "fund_flow": [
            {
                "amount": "39,980",
                "from": "0x6cc5f688a315f3dc28a7781717a9a798a59fda7b",
                "id": 1,
                "isERC1155": false,
                "isERC721": false,
                "isReverted": false,
                "order": 1,
                "to": "0x15f6131d76eb9f1c02b350e5efb9792bd68cb8b3",
                "token": "0x1b6c5864375b34af3ff5bd2e5f40bc425b4a8d79"
            }
        ],
        "token_infos": [
            {
                "address": "0x1b6c5864375b34af3ff5bd2e5f40bc425b4a8d79",
                "decimals": 6
            },
            {
                "address": "0xc02aaa39b223fe8d0a0e5c4f27ead9083c756cc2",
                "decimals": 18
            },
            {
                "address": "0xeeeeeeeeeeeeeeeeeeeeeeeeeeeeeeeeeeeeeeee",
                "decimals": 18
            }
        ]
    },
    "address_label": {
        "labels": [
            {
                "address": "0x0000000000000000000000000000000000000003",
                "label": "Precompiled"
            },
            {
                "address": "0x0000000000000000000000000000000000000004",
                "label": "Precompiled"
            },
            {
                "address": "0xeeeeeeeeeeeeeeeeeeeeeeeeeeeeeeeeeeeeeeee",
                "label": "Ether"
            },
            {
                "address": "0x6cc5f688a315f3dc28a7781717a9a798a59fda7b",
                "label": "OKX"
            },
            {
                "address": "0x1b6c5864375b34af3ff5bd2e5f40bc425b4a8d79",
                "label": "TopChainCoin (TOPC)"
            },
            {
                "address": "0x0000000000000000000000000000000000000001",
                "label": "Precompiled"
            },
            {
                "address": "0x0000000000000000000000000000000000000002",
                "label": "Precompiled"
            }
        ]
    },
    "trace": {
        "accountLabels": null,
        "dataMap": {
            "-1": {
                "invocation": {
                    "address": "0x6cc5f688a315f3dc28a7781717a9a798a59fda7b",
                    "callData": "",
                    "decodedMethod": null,
                    "errorInfo": "",
                    "fromAddress": "",
                    "gasUsed": 0,
                    "id": -1,
                    "methodDecoded": false,
                    "operation": "",
                    "output": "",
                    "revert": false,
                    "revertMessage": "",
                    "selector": "",
                    "status": false,
                    "value": ""
                },
                "nodeType": 0
            },
            "0": {
                "invocation": {
                    "address": "0x1b6c5864375b34af3ff5bd2e5f40bc425b4a8d79",
                    "callData": "0x00000000000000000000000015f6131d76eb9f1c02b350e5efb9792bd68cb8b3000000000000000000000000000000000000000000000000000000094efe6300",
                    "decodedMethod": {
                        "callParams": [
                            {
                                "name": "_to",
                                "type": "address",
                                "value": "0x15f6131d76eb9f1c02b350e5efb9792bd68cb8b3"
                            },
                            {
                                "decimalAvailable": true,
                                "name": "_value",
                                "type": "uint256",
                                "value": "39,980,000,000"
                            }
                        ],
                        "constructorArguments": "",
                        "name": "transfer",
                        "returnParams": [
                            {
                                "name": "",
                                "type": "bool",
                                "value": false
                            }
                        ],
                        "signature": "transfer(address,uint256)"
                    },
                    "errorInfo": "",
                    "fromAddress": "0x6cc5f688a315f3dc28a7781717a9a798a59fda7b",
                    "gasUsed": 37030,
                    "id": 0,
                    "methodDecoded": true,
                    "operation": "CALL",
                    "output": "0x0000000000000000000000000000000000000000000000000000000000000000",
                    "revert": false,
                    "revertMessage": "",
                    "selector": "0xa9059cbb",
                    "status": true,
                    "value": "0"
                },
                "nodeType": 0
            },
            "1": {
                "event": {
                    "contract": "0x1b6c5864375b34af3ff5bd2e5f40bc425b4a8d79",
                    "decodedLog": {
                        "name": "Transfer",
                        "params": [
                            {
                                "name": "from",
                                "type": "address",
                                "value": "0x6cc5f688a315f3dc28a7781717a9a798a59fda7b"
                            },
                            {
                                "name": "to",
                                "type": "address",
                                "value": "0x15f6131d76eb9f1c02b350e5efb9792bd68cb8b3"
                            },
                            {
                                "decimalAvailable": true,
                                "name": "value",
                                "type": "uint256",
                                "value": "39,980,000,000"
                            }
                        ],
                        "signature": "Transfer(address,address,uint256)"
                    },
                    "id": 1,
                    "logData": "0x000000000000000000000000000000000000000000000000000000094efe6300",
                    "logDecoded": true,
                    "operation": "EVENT",
                    "revert": false,
                    "status": true,
                    "topics": [
                        "0xddf252ad1be2c89b69c2b068fc378daa952ba7f163c4a11628f55a4df523b3ef",
                        "0x0000000000000000000000006cc5f688a315f3dc28a7781717a9a798a59fda7b",
                        "0x00000000000000000000000015f6131d76eb9f1c02b350e5efb9792bd68cb8b3"
                    ]
                },
                "nodeType": 1
            }
        },
        "gasFlame": [
            {
                "children": [
                    {
                        "children": [
                            {
                                "children": [],
                                "depth": 0,
                                "name": "Initial Gas",
                                "value": 23064
                            },
                            {
                                "children": [],
                                "depth": 0,
                                "name": "Executed Gas",
                                "value": 13966
                            }
                        ],
                        "depth": -1,
                        "name": "Actual Gas Used",
                        "value": 37030
                    },
                    {
                        "children": [],
                        "depth": -1,
                        "name": "Refunded Gas",
                        "value": 0
                    }
                ],
                "depth": -2,
                "name": "Total Gas",
                "value": 37030
            }
        ],
        "isConfirmed": true,
        "mainTrace": [
            {
                "children": [
                    {
                        "children": [
                            {
                                "children": [],
                                "depth": 1,
                                "id": 1,
                                "order": 1
                            }
                        ],
                        "depth": 0,
                        "id": 0,
                        "order": 0
                    }
                ],
                "depth": -1,
                "id": -1,
                "order": -1
            }
        ],
        "mainTraceNodeCount": 2,
        "parentIdMap": {
            "0": -1,
            "1": 0
        },
        "tidyTrace": [
            {
                "children": [
                    {
                        "children": [
                            {
                                "children": [],
                                "depth": 1,
                                "id": 1,
                                "order": 1
                            }
                        ],
                        "depth": 0,
                        "id": 0,
                        "order": 0
                    }
                ],
                "depth": -1,
                "id": -1,
                "order": -1
            }
        ],
        "tidyTraceNodeCount": 2
    },
    "state_change": {
        "stateChanges": [
            {
                "address": "0x1b6c5864375b34af3ff5bd2e5f40bc425b4a8d79",
                "erc": "ERC-20",
                "slots": [
                    {
                        "current": "0x00000000000000000000000000000000000000000000000000001e2311fd47b4",
                        "key": "0xb0c86e9b81cc33f480ad0d1717460fbad99accc1c5deec69a6063d6af332ad0c",
                        "prev": "0x00000000000000000000000000000000000000000000000000001e2c60fbaab4"
                    },
                    {
                        "current": "0x000000000000000000000000000000000000000000000000000000098e2cb401",
                        "key": "0xe1710c7e550b940504be1193f91b1bf5834a539344b92d323510bf3ca87158b8",
                        "prev": "0x000000000000000000000000000000000000000000000000000000003f2e5101"
                    }
                ],
                "storageVariables": [
                    {
                        "name": "balances",
                        "type": "mapping(address => uint256)",
                        "value": {
                            "pairs": [
                                {
                                    "key": "0x15f6131d76eb9f1c02b350e5efb9792bd68cb8b3",
                                    "value": {
                                        "current": "41040000001",
                                        "prev": "1060000001",
                                        "typeTag": 1
                                    }
                                },
                                {
                                    "key": "0x6cc5f688a315f3dc28a7781717a9a798a59fda7b",
                                    "value": {
                                        "current": "33135974500276",
                                        "prev": "33175954500276",
                                        "typeTag": 1
                                    }
                                }
                            ],
                            "typeTag": 4
                        }
                    }
                ]
            }
        ]
    }
}