{
    "balance_change": {
        "balanceChanges": [
            {
                "account": "0x0000000000000000000000000000000000000000",
                "assets": [
                    {
                        "address": "0x8c9b261faef3b3c2e64ab5e58e04615f8c788099",
                        "amount": "1",
                        "iconUrl": "",
                        "isERC1155": false,
                        "isERC721": true,
                        "sign": false,
                        "tokenID": "34870",
                        "value": ""
                    }
                ]
            },
            {
                "account": "0x3aa80b5a79854cdbb7b65f6c851946ce1d781c7c",
                "assets": [
                    {
                        "address": "0x8c9b261faef3b3c2e64ab5e58e04615f8c788099",
                        "amount": "1",
                        "iconUrl": "",
                        "isERC1155": false,
                        "isERC721": true,
                        "sign": true,
                        "tokenID": "34870",
                        "value": ""
                    }
                ]
            }
        ]
    },
    "profile": {
        "basic_info": {
            "baseFee": "",
            "blockNumber": 6401795,
            "callData": "0x0fff20ed000000000000000000000000000000000000000000000000000000000000aca00000000000000000000000000000000000000000000000000000000000000002000000000000000000000000000000000000000000000000000000000000000100000000000000000000000000000931f740c6bf51bbea3051861382b34dfc0f0000000000000000000000003aa80b5a79854cdbb7b65f6c851946ce1d781c7c0000000000000000000000000000000000000000000000000000000000081d220000000000000000000000000000000000000000000000000000000000000001000000000000000000000000000000000000000000000000000000000000000d000000000000000000000000000000000000000000000000000000000000000000000000000000000000000000000000000000000000000000000000000747cc",
            "debugEnable": true,
            "errorInfo": "",
            "eventCount": 3,
            "feeRecipient": "0x829bd824b016326a401d083b33d092293333a830",
            "formatValue": "0",
            "gasLimit": 323227,
            "gasPrice": "8.1",
            "gasUsed": 321703,
            "intTxnCount": 2,
            "internalRevert": false,
            "internalRevertMessage": "",
            "isContractCreation": false,
            "isFlashloan": false,
            "maxFee": "",
            "nonce": 1225,
            "overwritedBlockNumber": -1,
            "priorityFee": "",
            "receiver": "0x7377aa41144e7f78f5f67dc27daad39079bb96f8",
            "revertMessage": "",
            "sender": "0x0ddcc2fc5eb2bf3f6361ecfc8d5d243878230e40",
            "simulationEnable": true,
            "sourceTxnHash": "0xb7cbf63038d781af220ae5c5deb887bab8be9dc700e81c09e6f1bbdb41af5e44",
            "status": true,
            "timestamp": "2018-09-26T07:52:32Z",
            "transactionFee": "0.0026057943",
            "txnHash": "0xb7cbf63038d781af220ae5c5deb887bab8be9dc700e81c09e6f1bbdb41af5e44",
            "txnIndex": 82,
            "type": 0,
            "value": "0"
        },
        "fund_flow": [
            {
                "amount": "1",
                "from": "0x0000000000000000000000000000000000000000",
                "id": 1,
                "isERC1155": false,
                "isERC721": true,
                "isReverted": false,
                "order": 1,
                "to": "0x3aa80b5a79854cdbb7b65f6c851946ce1d781c7c",
                "token": "0x8c9b261faef3b3c2e64ab5e58e04615f8c788099",
                "tokenID": "34870"
            }
        ],
        "token_infos": [
            {
                "address": "0xc02aaa39b223fe8d0a0e5c4f27ead9083c756cc2",
                "decimals": 18
            },
            {
                "address": "0xeeeeeeeeeeeeeeeeeeeeeeeeeeeeeeeeeeeeeeee",
                "decimals": 18
            }
        ]
    },
    "address_label": {
        "labels": [
            {
                "address": "0x0000000000000000000000000000000000000003",
                "label": "Precompiled"
            },
            {
                "address": "0x0000000000000000000000000000000000000004",
                "label": "Precompiled"
            },
            {
                "address": "0xeeeeeeeeeeeeeeeeeeeeeeeeeeeeeeeeeeeeeeee",
                "label": "Ether"
            },
            {
                "address": "0x8c9b261faef3b3c2e64ab5e58e04615f8c788099",
                "label": "LucidSight-MLB-NFT (MLBCB)"
            },
            {
                "address": "0x0000000000000000000000000000000000000001",
                "label": "Precompiled"
            },
            {
                "address": "0x0000000000000000000000000000000000000002",
                "label": "Precompiled"
            }
        ]
    },
    "trace": {
        "accountLabels": null,
        "dataMap": {
            "-1": {
                "invocation": {
                    "address": "0x0ddcc2fc5eb2bf3f6361ecfc8d5d243878230e40",
                    "callData": "",
                    "decodedMethod": null,
                    "errorInfo": "",
                    "fromAddress": "",
                    "gasUsed": 0,
                    "id": -1,
                    "methodDecoded": false,
                    "operation": "",
                    "output": "",
                    "revert": false,
                    "revertMessage": "",
                    "selector": "",
                    "status": false,
                    "value": ""
                },
                "nodeType": 0
            },
            "0": {
                "invocation": {
                    "address": "0x7377aa41144e7f78f5f67dc27daad39079bb96f8",
                    "callData": "0x000000000000000000000000000000000000000000000000000000000000aca00000000000000000000000000000000000000000000000000000000000000002000000000000000000000000000000000000000000000000000000000000000100000000000000000000000000000931f740c6bf51bbea3051861382b34dfc0f0000000000000000000000003aa80b5a79854cdbb7b65f6c851946ce1d781c7c0000000000000000000000000000000000000000000000000000000000081d220000000000000000000000000000000000000000000000000000000000000001000000000000000000000000000000000000000000000000000000000000000d000000000000000000000000000000000000000000000000000000000000000000000000000000000000000000000000000000000000000000000000000747cc",
                    "decodedMethod": null,
                    "errorInfo": "",
                    "fromAddress": "0x0ddcc2fc5eb2bf3f6361ecfc8d5d243878230e40",
                    "gasUsed": 321703,
                    "id": 0,
                    "methodDecoded": false,
                    "operation": "CALL",
                    "output": "",
                    "revert": false,
                    "revertMessage": "",
                    "selector": "0x0fff20ed",
                    "status": true,
                    "value": "0"
                },
                "nodeType": 0
            },
            "1": {
                "invocation": {
                    "address": "0xaa86bb5ce320e7e425af0caf988f2c3a5e0b8338",
                    "callData": "0x000000000000000000000000000000000000000000000000000000000000aca000000000000000000000000000000000000000000000000000000000000000010000000000000000000000003aa80b5a79854cdbb7b65f6c851946ce1d781c7c",
                    "decodedMethod": null,
                    "errorInfo": "",
                    "fromAddress": "0x7377aa41144e7f78f5f67dc27daad39079bb96f8",
                    "gasUsed": 27516,
                    "id": 1,
                    "methodDecoded": false,
                    "operation": "CALL",
                    "output": "",
                    "revert": false,
                    "revertMessage": "",
                    "selector": "0xa08d5356",
                    "status": true,
                    "value": "0"
                },
                "nodeType": 0
            },
            "2": {
                "invocation": {
                    "address": "0x8c9b261faef3b3c2e64ab5e58e04615f8c788099",
                    "callData": "0x0000000000000000000000000000000000000000000000000000000000000002000000000000000000000000000000000000000000000000000000000000000100000000000000000000000000000931f740c6bf51bbea3051861382b34dfc0f0000000000000000000000003aa80b5a79854cdbb7b65f6c851946ce1d781c7c0000000000000000000000000000000000000000000000000000000000081d22000000000000000000000000000000000000000000000000000000000000000000000000000000000000000000000000000000000000000000000000000747cc",
                    "decodedMethod": {
                        "callParams": [
                            {
                                "name": "_teamId",
                                "type": "uint8",
                                "value": "2"
                            },
                            {
                                "name": "_posId",
                                "type": "uint8",
                                "value": "1"
                            },
                            {
                                "name": "_attributes",
                                "type": "uint256",
                                "value": "801,013,065,018,001,001,003,000,022,002,001,008,000,015"
                            },
                            {
                                "name": "_owner",
                                "type": "address",
                                "value": "0x3aa80b5a79854cdbb7b65f6c851946ce1d781c7c"
                            },
                            {
                                "name": "_gameId",
                                "type": "uint256",
                                "value": "531,746"
                            },
                            {
                                "name": "_playerOverrideId",
                                "type": "uint256",
                                "value": "0"
                            },
                            {
                                "name": "_mlbPlayerId",
                                "type": "uint256",
                                "value": "477,132"
                            }
                        ],
                        "constructorArguments": "",
                        "name": "createRewardCollectible",
                        "returnParams": [
                            {
                                "name": "",
                                "type": "uint256",
                                "value": "34,870"
                            }
                        ],
                        "signature": "createRewardCollectible(uint8,uint8,uint256,address,uint256,uint256,uint256)"
                    },
                    "errorInfo": "",
                    "fromAddress": "0x7377aa41144e7f78f5f67dc27daad39079bb96f8",
                    "gasUsed": 260507,
                    "id": 2,
                    "methodDecoded": true,
                    "operation": "CALL",
                    "output": "0x0000000000000000000000000000000000000000000000000000000000008836",
                    "revert": false,
                    "revertMessage": "",
                    "selector": "0x41763225",
                    "status": true,
                    "value": "0"
                },
                "nodeType": 0
            },
            "3": {
                "event": {
                    "contract": "0x8c9b261faef3b3c2e64ab5e58e04615f8c788099",
                    "decodedLog": {
                        "name": "Transfer",
                        "params": [
                            {
                                "name": "_from",
                                "type": "address",
                                "value": "0x0000000000000000000000000000000000000000"
                            },
                            {
                                "name": "_to",
                                "type": "address",
                                "value": "0x3aa80b5a79854cdbb7b65f6c851946ce1d781c7c"
                            },
                            {
                                "decimalAvailable": true,
                                "name": "_tokenId",
                                "type": "uint256",
                                "value": "34,870"
                            }
                        ],
                        "signature": "Transfer(address,address,uint256)"
                    },
                    "id": 3,
                    "logData": "0x",
                    "logDecoded": true,
                    "operation": "EVENT",
                    "revert": false,
                    "status": true,
                    "topics": [
                        "0xddf252ad1be2c89b69c2b068fc378daa952ba7f163c4a11628f55a4df523b3ef",
                        "0x0000000000000000000000000000000000000000000000000000000000000000",
                        "0x0000000000000000000000003aa80b5a79854cdbb7b65f6c851946ce1d781c7c",
                        "0x0000000000000000000000000000000000000000000000000000000000008836"
                    ]
                },
                "nodeType": 1
            },
            "4": {
                "event": {
                    "contract": "0x8c9b261faef3b3c2e64ab5e58e04615f8c788099",
                    "decodedLog": {
                        "name": "Created",
                        "params": [
                            {
                                "name": "owner",
                                "type": "address",
                                "value": "0x3aa80b5a79854cdbb7b65f6c851946ce1d781c7c"
                            },
                            {
                                "name": "tokenId",
                                "type": "uint256",
                                "value": "34,870"
                            }
                        ],
                        "signature": "Created(address,uint256)"
                    },
                    "id": 4,
                    "logData": "0x0000000000000000000000003aa80b5a79854cdbb7b65f6c851946ce1d781c7c0000000000000000000000000000000000000000000000000000000000008836",
                    "logDecoded": true,
                    "operation": "EVENT",
                    "revert": false,
                    "status": true,
                    "topics": [
                        "0x0ce3610e89a4bb9ec9359763f99110ed52a4abaea0b62028a1637e242ca2768b"
                    ]
                },
                "nodeType": 1
            },
            "5": {
                "event": {
                    "contract": "0x7377aa41144e7f78f5f67dc27daad39079bb96f8",
                    "decodedLog": null,
                    "id": 5,
                    "logData": "0x000000000000000000000000000000000000000000000000000000000000aca00000000000000000000000000000000000000000000000000000000000000002000000000000000000000000000000000000000000000000000000000000000d0000000000000000000000003aa80b5a79854cdbb7b65f6c851946ce1d781c7c00000000000000000000000000000000000000000000000000000000000088360000000000000000000000000000000000000000000000000000000000081d22",
                    "logDecoded": false,
                    "operation": "EVENT",
                    "revert": false,
                    "status": true,
                    "topics": [
                        "0xa53d65329fd9655bd17dbce2ae6cd38ab7064b2f029a44157fd8a0e1516377f8"
                    ]
                },
                "nodeType": 1
            }
        },
        "gasFlame": [
            {
                "children": [
                    {
                        "children": [
                            {
                                "children": [],
                                "depth": 0,
                                "name": "Initial Gas",
                                "value": 25752
                            },
                            {
                                "children": [
                                    {
                                        "children": [],
                                        "depth": 1,
                                        "name": "0xa08d5356",
                                        "value": 27516
                                    },
                                    {
                                        "children": [],
                                        "depth": 1,
                                        "name": "createRewardCollectible",
                                        "value": 260507
                                    }
                                ],
                                "depth": 0,
                                "name": "Executed Gas",
                                "value": 295951
                            }
                        ],
                        "depth": -1,
                        "name": "Actual Gas Used",
                        "value": 321703
                    },
                    {
                        "children": [],
                        "depth": -1,
                        "name": "Refunded Gas",
                        "value": 0
                    }
                ],
                "depth": -2,
                "name": "Total Gas",
                "value": 321703
            }
        ],
        "isConfirmed": true,
        "mainTrace": [
            {
                "children": [
                    {
                        "children": [
                            {
                                "children": [],
                                "depth": 1,
                                "id": 1,
                                "order": 1
                            },
                            {
                                "children": [
                                    {
                                        "children": [],
                                        "depth": 2,
                                        "id": 3,
                                        "order": 3
                                    },
                                    {
                                        "children": [],
                                        "depth": 2,
                                        "id": 4,
                                        "order": 4
                                    }
                                ],
                                "depth": 1,
                                "id": 2,
                                "order": 2
                            },
                            {
                                "children": [],
                                "depth": 1,
                                "id": 5,
                                "order": 5
                            }
                        ],
                        "depth": 0,
                        "id": 0,
                        "order": 0
                    }
                ],
                "depth": -1,
                "id": -1,
                "order": -1
            }
        ],
        "mainTraceNodeCount": 6,
        "parentIdMap": {
            "0": -1,
            "1": 0,
            "2": 0,
            "3": 2,
            "4": 2,
            "5": 0
        },
        "tidyTrace": [
            {
                "children": [
                    {
                        "children": [
                            {
                                "children": [],
                                "depth": 1,
                                "id": 1,
                                "order": 1
                            },
                            {
                                "children": [
                                    {
                                        "children": [],
                                        "depth": 2,
                                        "id": 3,
                                        "order": 3
                                    },
                                    {
                                        "children": [],
                                        "depth": 2,
                                        "id": 4,
                                        "order": 4
                                    }
                                ],
                                "depth": 1,
                                "id": 2,
                                "order": 2
                            },
                            {
                                "children": [],
                                "depth": 1,
                                "id": 5,
                                "order": 5
                            }
                        ],
                        "depth": 0,
                        "id": 0,
                        "order": 0
                    }
                ],
                "depth": -1,
                "id": -1,
                "order": -1
            }
        ],
        "tidyTraceNodeCount": 6
    },
    "state_change": {
        "stateChanges": [
            {
                "address": "0x8c9b261faef3b3c2e64ab5e58e04615f8c788099",
                "erc": "ERC-721",
                "slots": [
                    {
                        "current": "0x000000000000000000000000000000000000000000000000000000000000566a",
                        "key": "0x0000000000000000000000000000000000000000000000000000000000000016",
                        "prev": "0x0000000000000000000000000000000000000000000000000000000000005669"
                    },
                    {
                        "current": "0x0000000000000000000000000000000000000000000000000000000000008836",
                        "key": "0xc00fedcaa84a158d665e82c72abdf277ac697c32c5a10b246be6ccd5a64e7a7f",
                        "prev": "0x0000000000000000000000000000000000000000000000000000000000000000"
                    },
                    {
                        "current": "0x00000000000000000000000000000000000000000000000000000000000003c6",
                        "key": "0x052c272bd066111f01e10454364c011552d6e00a2d04190d55fd951755660557",
                        "prev": "0x0000000000000000000000000000000000000000000000000000000000000000"
                    },
                    {
                        "current": "0x0000000000000000000000000000000000000102000006db000000005bab3ac0",
                        "key": "0x0175b7a638427703f0dbe7bb9bbf987a2551717b34e79f33b5b1008d1fa45f6f",
                        "prev": "0x0000000000000000000000000000000000000000000000000000000000000000"
                    },
                    {
                        "current": "0x0000000000000000000000000000000000000000000000000000000000008837",
                        "key": "0x000000000000000000000000000000000000000000000000000000000000000b",
                        "prev": "0x0000000000000000000000000000000000000000000000000000000000008836"
                    },
                    {
                        "current": "0x0000000000000000000000000000000000000000000000000000000000008836",
                        "key": "0xf3f7a9fe364faab93b216da50a3214154f22a0a2b415b23a84c8169e8b63f719",
                        "prev": "0x0000000000000000000000000000000000000000000000000000000000000000"
                    },
                    {
                        "current": "0x0000000000000000000000000000000000000000000000000000000000081d22",
                        "key": "0x0175b7a638427703f0dbe7bb9bbf987a2551717b34e79f33b5b1008d1fa45f6b",
                        "prev": "0x0000000000000000000000000000000000000000000000000000000000000000"
                    },
                    {
                        "current": "0x00000000000000000000000000000000000000000000000000000000000747cc",
                        "key": "0x0175b7a638427703f0dbe7bb9bbf987a2551717b34e79f33b5b1008d1fa45f6d",
                        "prev": "0x0000000000000000000000000000000000000000000000000000000000000000"
                    },
                    {
                        "current": "0x0000000000000000000000003aa80b5a79854cdbb7b65f6c851946ce1d781c7c",
                        "key": "0x13ad6e76b4df9834b11433176bac454ccdf8e1f9250e75b9759f838405b6f2ec",
                        "prev": "0x0000000000000000000000000000000000000000000000000000000000000000"
                    },
                    {
                        "current": "0x0000000000000000000000000000000000000000000000000000000000008837",
                        "key": "0x0000000000000000000000000000000000000000000000000000000000000008",
                        "prev": "0x0000000000000000000000000000000000000000000000000000000000008836"
                    },
                    {
                        "current": "0x0000000000000000000000000000000000000000000000000000000000008836",
                        "key": "0x127fe6c85971d184656841501dd5b77ce4a7dbb6fedebf6eec640c9d591f000d",
                        "prev": "0x0000000000000000000000000000000000000000000000000000000000000000"
                    },
                    {
                        "current": "0x00000000000000000000000000000000000000000000000000000000000003c7",
                        "key": "0x28f271a44a2a0d2007bb858145b056fbba4e1598564d83b9bf54b3a00c5f4dde",
                        "prev": "0x00000000000000000000000000000000000000000000000000000000000003c6"
                    },
                    {
                        "current": "0x00000000000000000000000000000000000000000000000000000000000006db",
                        "key": "0x10a81eed9d63d16face5e76357905348e6253d3394086026bb2bf2145d7cc249",
                        "prev": "0x00000000000000000000000000000000000000000000000000000000000006da"
                    },
                    {
                        "current": "0x00000000000000000000000000000000000000000000000000000000000003c7",
                        "key": "0x0fb4e822ccc28177d4fb1f962191214450a36e559afab375a9f00e1d9d93c8ea",
                        "prev": "0x00000000000000000000000000000000000000000000000000000000000003c6"
                    },
                    {
                        "current": "0x00000000000000000000000000000931f740c6bf51bbea3051861382b34dfc0f",
                        "key": "0x0175b7a638427703f0dbe7bb9bbf987a2551717b34e79f33b5b1008d1fa45f69",
                        "prev": "0x0000000000000000000000000000000000000000000000000000000000000000"
                    },
                    {
                        "current": "0x0000000000000000000000000000000000000000000000000000000000008836",
                        "key": "0xf3b0f189e561370df4a336e0561d4ca8347f2b84aecb2ca34b2317bf5417f60f",
                        "prev": "0x0000000000000000000000000000000000000000000000000000000000000000"
                    }
                ],
                "storageVariables": [
                    {
                        "name": "allTokens",
                        "type": "uint256[]",
                        "value": {
                            "elemType": "uint256",
                            "elems": [
                                {
                                    "index": 34870,
                                    "value": {
                                        "current": "34870",
                                        "prev": "0",
                                        "typeTag": 1
                                    }
                                }
                            ],
                            "typeTag": 2
                        }
                    },
                    {
                        "name": "nftTeamIndexToCollectibleCount",
                        "type": "mapping(uint256 => uint32)",
                        "value": {
                            "pairs": [
                                {
                                    "key": "2",
                                    "value": {
                                        "current": "1755",
                                        "prev": "1754",
                                        "typeTag": 1
                                    }
                                }
                            ],
                            "typeTag": 4
                        }
                    },
                    {
                        "name": "ownedTokens",
                        "type": "mapping(address => uint256[])",
                        "value": {
                            "pairs": [
                                {
                                    "key": "0x3aa80b5a79854cdbb7b65f6c851946ce1d781c7c",
                                    "value": {
                                        "elemType": "uint256",
                                        "elems": [
                                            {
                                                "index": 966,
                                                "value": {
                                                    "current": "34870",
                                                    "prev": "0",
                                                    "typeTag": 1
                                                }
                                            }
                                        ],
                                        "typeTag": 2
                                    }
                                }
                            ],
                            "typeTag": 4
                        }
                    },
                    {
                        "name": "ownedTokensIndex",
                        "type": "mapping(uint256 => uint256)",
                        "value": {
                            "pairs": [
                                {
                                    "key": "34870",
                                    "value": {
                                        "current": "966",
                                        "prev": "0",
                                        "typeTag": 1
                                    }
                                }
                            ],
                            "typeTag": 4
                        }
                    },
                    {
                        "name": "nftTeamIdToSequenceIdToCollectible",
                        "type": "mapping(uint256 => mapping(uint32 => uint256))",
                        "value": {
                            "pairs": [
                                {
                                    "key": "2",
                                    "value": {
                                        "pairs": [
                                            {
                                                "key": "1755",
                                                "value": {
                                                    "current": "34870",
                                                    "prev": "0",
                                                    "typeTag": 1
                                                }
                                            }
                                        ],
                                        "typeTag": 4
                                    }
                                }
                            ],
                            "typeTag": 4
                        }
                    },
                    {
                        "name": "rewardsRedeemed",
                        "type": "uint256",
                        "value": {
                            "current": "22122",
                            "prev": "22121",
                            "typeTag": 1
                        }
                    },
                    {
                        "name": "allTokensIndex",
                        "type": "mapping(uint256 => uint256)",
                        "value": {
                            "pairs": [
                                {
                                    "key": "34870",
                                    "value": {
                                        "current": "34870",
                                        "prev": "0",
                                        "typeTag": 1
                                    }
                                }
                            ],
                            "typeTag": 4
                        }
                    },
                    {
                        "name": "ownedTokensCount",
                        "type": "mapping(address => uint256)",
                        "value": {
                            "pairs": [
                                {
                                    "key": "0x3aa80b5a79854cdbb7b65f6c851946ce1d781c7c",
                                    "value": {
                                        "current": "967",
                                        "prev": "966",
                                        "typeTag": 1
                                    }
                                }
                            ],
                            "typeTag": 4
                        }
                    },
                    {
                        "name": "allNFTs",
                        "type": "struct LSNFT.NFT[]",
                        "value": {
                            "elemType": "struct LSNFT.NFT",
                            "elems": [
                                {
                                    "index": 34870,
                                    "value": {
                                        "fields": [
                                            {
                                                "name": "attributes",
                                                "type": "uint256",
                                                "value": {
                                                    "current": "801013065018001001003000022002001008000015",
                                                    "prev": "0",
                                                    "typeTag": 1
                                                }
                                            },
                                            {
                                                "name": "mlbGameId",
                                                "type": "uint256",
                                                "value": {
                                                    "current": "531746",
                                                    "prev": "0",
                                                    "typeTag": 1
                                                }
                                            },
                                            {
                                                "name": "mlbPlayerId",
                                                "type": "uint256",
                                                "value": {
                                                    "current": "477132",
                                                    "prev": "0",
                                                    "typeTag": 1
                                                }
                                            },
                                            {
                                                "name": "assetDetails",
                                                "type": "uint256",
                                                "value": {
                                                    "current": "20440865961054234948496140221120",
                                                    "prev": "0",
                                                    "typeTag": 1
                                                }
                                            }
                                        ],
                                        "typeTag": 3
                                    }
                                }
                            ],
                            "typeTag": 2
                        }
                    },
                    {
                        "name": "tokenOwner",
                        "type": "mapping(uint256 => address)",
                        "value": {
                            "pairs": [
                                {
                                    "key": "34870",
                                    "value": {
                                        "current": "0x3aa80b5a79854cdbb7b65f6c851946ce1d781c7c",
                                        "prev": "0x0000000000000000000000000000000000000000",
                                        "typeTag": 1
                                    }
                                }
                            ],
                            "typeTag": 4
                        }
                    }
                ]
            },
            {
                "address": "0xaa86bb5ce320e7e425af0caf988f2c3a5e0b8338",
                "erc": "",
                "slots": [
                    {
                        "current": "0x0000000000000000000000000000000000000000000000000000000000000001",
                        "key": "0x401968ff42a154441da5f6c4c935ac46b8671f0e062baaa62a7545ba53bcc78c",
                        "prev": "0x0000000000000000000000000000000000000000000000000000000000000000"
                    }
                ],
                "storageVariables": []
            }
        ]
    }
}