{
    "balance_change": {
        "balanceChanges": [
            {
                "account": "0xddf4c45bb2525a47fcca3eb19e478ae132171e3d",
                "assets": [
                    {
                        "address": "0x23352036e911a22cfc692b5e2e196692658aded9",
                        "amount": "110",
                        "iconUrl": "https://assets.blocksec.com/icon/38788c153622da01900edc2e9f9504d7566eacb8b0045ce1072b8de7185154ed.png",
                        "isERC1155": false,
                        "isERC721": false,
                        "sign": false,
                        "value": ""
                    }
                ]
            },
            {
                "account": "0x1a4780ee7b0b0d2b442069a18749d545f78c2cd9",
                "assets": [
                    {
                        "address": "0x23352036e911a22cfc692b5e2e196692658aded9",
                        "amount": "110",
                        "iconUrl": "https://assets.blocksec.com/icon/38788c153622da01900edc2e9f9504d7566eacb8b0045ce1072b8de7185154ed.png",
                        "isERC1155": false,
                        "isERC721": false,
                        "sign": true,
                        "value": ""
                    }
                ]
            }
        ]
    },
    "profile": {
        "basic_info": {
            "baseFee": "",
            "blockNumber": 5544813,
            "callData": "0xa9059cbb0000000000000000000000001a4780ee7b0b0d2b442069a18749d545f78c2cd9000000000000000000000000000000000000000000000005f68e8131ecf80000",
            "debugEnable": true,
            "errorInfo": "",
            "eventCount": 1,
            "feeRecipient": "0x5a0b54d5dc17e0aadc383d2db43b0a0d3e029c4c",
            "formatValue": "0",
            "gasLimit": 80000,
            "gasPrice": "4",
            "gasUsed": 55217,
            "intTxnCount": 0,
            "internalRevert": false,
            "internalRevertMessage": "",
            "isContractCreation": false,
            "isFlashloan": false,
            "maxFee": "",
            "nonce": 3783,
            "overwritedBlockNumber": -1,
            "priorityFee": "",
            "receiver": "0x23352036e911a22cfc692b5e2e196692658aded9",
            "revertMessage": "",
            "sender": "0xddf4c45bb2525a47fcca3eb19e478ae132171e3d",
            "simulationEnable": true,
            "sourceTxnHash": "0xb7afd2ed9f7522f33acd0acaf746c5000789bba2f5b45abdc462fb91ad341ce0",
            "status": true,
            "timestamp": "2018-05-02T18:12:11Z",
            "transactionFee": "0.000220868",
            "txnHash": "0xb7afd2ed9f7522f33acd0acaf746c5000789bba2f5b45abdc462fb91ad341ce0",
            "txnIndex": 55,
            "type": 0,
            "value": "0"
        },
        "fund_flow": [
            {
                "amount": "110",
                "from": "0xddf4c45bb2525a47fcca3eb19e478ae132171e3d",
                "id": 1,
                "isERC1155": false,
                "isERC721": false,
                "isReverted": false,
                "order": 1,
                "to": "0x1a4780ee7b0b0d2b442069a18749d545f78c2cd9",
                "token": "0x23352036e911a22cfc692b5e2e196692658aded9"
            }
        ],
        "token_infos": [
            {
                "address": "0x23352036e911a22cfc692b5e2e196692658aded9",
                "decimals": 18
            },
            {
                "address": "0xc02aaa39b223fe8d0a0e5c4f27ead9083c756cc2",
                "decimals": 18
            },
            {
                "address": "0xeeeeeeeeeeeeeeeeeeeeeeeeeeeeeeeeeeeeeeee",
                "decimals": 18
            }
        ]
    },
    "address_label": {
        "labels": [
            {
                "address": "0xeeeeeeeeeeeeeeeeeeeeeeeeeeeeeeeeeeeeeeee",
                "label": "Ether"
            },
            {
                "address": "0x23352036e911a22cfc692b5e2e196692658aded9",
                "label": "Friendz Coin"
            },
            {
                "address": "0x0000000000000000000000000000000000000001",
                "label": "Precompiled"
            },
            {
                "address": "0x0000000000000000000000000000000000000002",
                "label": "Precompiled"
            },
            {
                "address": "0x0000000000000000000000000000000000000003",
                "label": "Precompiled"
            },
            {
                "address": "0x0000000000000000000000000000000000000004",
                "label": "Precompiled"
            }
        ]
    },
    "trace": {
        "accountLabels": null,
        "dataMap": {
            "-1": {
                "invocation": {
                    "address": "0xddf4c45bb2525a47fcca3eb19e478ae132171e3d",
                    "callData": "",
                    "decodedMethod": null,
                    "errorInfo": "",
                    "fromAddress": "",
                    "gasUsed": 0,
                    "id": -1,
                    "methodDecoded": false,
                    "operation": "",
                    "output": "",
                    "revert": false,
                    "revertMessage": "",
                    "selector": "",
                    "status": false,
                    "value": ""
                },
                "nodeType": 0
            },
            "0": {
                "invocation": {
                    "address": "0x23352036e911a22cfc692b5e2e196692658aded9",
                    "callData": "0x0000000000000000000000001a4780ee7b0b0d2b442069a18749d545f78c2cd9000000000000000000000000000000000000000000000005f68e8131ecf80000",
                    "decodedMethod": {
                        "callParams": [
                            {
                                "name": "_to",
                                "type": "address",
                                "value": "0x1a4780ee7b0b0d2b442069a18749d545f78c2cd9"
                            },
                            {
                                "decimalAvailable": true,
                                "name": "_value",
                                "type": "uint256",
                                "value": "110,000,000,000,000,000,000"
                            }
                        ],
                        "constructorArguments": "",
                        "name": "transfer",
                        "returnParams": [
                            {
                                "name": "success",
                                "type": "bool",
                                "value": true
                            }
                        ],
                        "signature": "transfer(address,uint256)"
                    },
                    "errorInfo": "",
                    "fromAddress": "0xddf4c45bb2525a47fcca3eb19e478ae132171e3d",
                    "gasUsed": 55217,
                    "id": 0,
                    "methodDecoded": true,
                    "operation": "CALL",
                    "output": "0x0000000000000000000000000000000000000000000000000000000000000001",
                    "revert": false,
                    "revertMessage": "",
                    "selector": "0xa9059cbb",
                    "status": true,
                    "value": "0"
                },
                "nodeType": 0
            },
            "1": {
                "event": {
                    "contract": "0x23352036e911a22cfc692b5e2e196692658aded9",
                    "decodedLog": {
                        "name": "Transfer",
                        "params": [
                            {
                                "name": "from",
                                "type": "address",
                                "value": "0xddf4c45bb2525a47fcca3eb19e478ae132171e3d"
                            },
                            {
                                "name": "to",
                                "type": "address",
                                "value": "0x1a4780ee7b0b0d2b442069a18749d545f78c2cd9"
                            },
                            {
                                "decimalAvailable": true,
                                "name": "value",
                                "type": "uint256",
                                "value": "110,000,000,000,000,000,000"
                            }
                        ],
                        "signature": "Transfer(address,address,uint256)"
                    },
                    "id": 1,
                    "logData": "0x000000000000000000000000000000000000000000000005f68e8131ecf80000",
                    "logDecoded": true,
                    "operation": "EVENT",
                    "revert": false,
                    "status": true,
                    "topics": [
                        "0xddf252ad1be2c89b69c2b068fc378daa952ba7f163c4a11628f55a4df523b3ef",
                        "0x000000000000000000000000ddf4c45bb2525a47fcca3eb19e478ae132171e3d",
                        "0x0000000000000000000000001a4780ee7b0b0d2b442069a18749d545f78c2cd9"
                    ]
                },
                "nodeType": 1
            }
        },
        "gasFlame": [
            {
                "children": [
                    {
                        "children": [
                            {
                                "children": [],
                                "depth": 0,
                                "name": "Initial Gas",
                                "value": 23256
                            },
                            {
                                "children": [],
                                "depth": 0,
                                "name": "Executed Gas",
                                "value": 31961
                            }
                        ],
                        "depth": -1,
                        "name": "Actual Gas Used",
                        "value": 55217
                    },
                    {
                        "children": [],
                        "depth": -1,
                        "name": "Refunded Gas",
                        "value": 0
                    }
                ],
                "depth": -2,
                "name": "Total Gas",
                "value": 55217
            }
        ],
        "isConfirmed": true,
        "mainTrace": [
            {
                "children": [
                    {
                        "children": [
                            {
                                "children": [],
                                "depth": 1,
                                "id": 1,
                                "order": 1
                            }
                        ],
                        "depth": 0,
                        "id": 0,
                        "order": 0
                    }
                ],
                "depth": -1,
                "id": -1,
                "order": -1
            }
        ],
        "mainTraceNodeCount": 2,
        "parentIdMap": {
            "0": -1,
            "1": 0
        },
        "tidyTrace": [
            {
                "children": [
                    {
                        "children": [
                            {
                                "children": [],
                                "depth": 1,
                                "id": 1,
                                "order": 1
                            }
                        ],
                        "depth": 0,
                        "id": 0,
                        "order": 0
                    }
                ],
                "depth": -1,
                "id": -1,
                "order": -1
            }
        ],
        "tidyTraceNodeCount": 2
    },
    "state_change": {
        "stateChanges": [
            {
                "address": "0x23352036e911a22cfc692b5e2e196692658aded9",
                "erc": "ERC-20",
                "slots": [
                    {
                        "current": "0x0000000000000000000000000000000000000000000f4b861f2bf51b9e115a00",
                        "key": "0xb95d58931f1c2a29871f49a5efea4ec6b11c3d83aa62d010c05eab27c6815ce6",
                        "prev": "0x0000000000000000000000000000000000000000000f4b8c15ba764d8b095a00"
                    },
                    {
                        "current": "0x000000000000000000000000000000000000000000000005f68e8131ecf80000",
                        "key": "0xba5d9606e7ebf2561a18d2f8ce166c29d2b952c4c772b7d9ccb8eea91f288014",
                        "prev": "0x0000000000000000000000000000000000000000000000000000000000000000"
                    }
                ],
                "storageVariables": [
                    {
                        "name": "balances",
                        "type": "mapping(address => uint256)",
                        "value": {
                            "pairs": [
                                {
                                    "key": "0x1a4780ee7b0b0d2b442069a18749d545f78c2cd9",
                                    "value": {
                                        "current": "110000000000000000000",
                                        "prev": "0",
                                        "typeTag": 1
                                    }
                                },
                                {
                                    "key": "0xddf4c45bb2525a47fcca3eb19e478ae132171e3d",
                                    "value": {
                                        "current": "18490538890298876230720000",
                                        "prev": "18490648890298876230720000",
                                        "typeTag": 1
                                    }
                                }
                            ],
                            "typeTag": 4
                        }
                    }
                ]
            }
        ]
    }
}