{
    "balance_change": {
        "balanceChanges": [
            {
                "account": "0x5144aca278867ab6c04455464d8f6a2607e3c075",
                "assets": [
                    {
                        "address": "0xc02aaa39b223fe8d0a0e5c4f27ead9083c756cc2",
                        "amount": "0.0044",
                        "iconUrl": "https://assets.blocksec.com/icon/f1cb2d02c471d545bbc7722daf3277fd852d98e63d118771af7047bd8256c516.png",
                        "isERC1155": false,
                        "isERC721": false,
                        "sign": true,
                        "value": "10.183507122800000616"
                    },
                    {
                        "address": "0x0000000000004946c0e9f43f4dee607b0ef1fa1c",
                        "amount": "4",
                        "iconUrl": "https://assets.blocksec.com/icon/7dae71f87d4f3e4764f4c12474a5c7c8f4d0ca30c0645a61e6dc68e8de5b2087.png",
                        "isERC1155": false,
                        "isERC721": false,
                        "sign": false,
                        "value": "1.64646413"
                    }
                ]
            },
            {
                "account": "0x0000000000000000000000000000000000000000",
                "assets": [
                    {
                        "address": "0x0000000000004946c0e9f43f4dee607b0ef1fa1c",
                        "amount": "4",
                        "iconUrl": "https://assets.blocksec.com/icon/7dae71f87d4f3e4764f4c12474a5c7c8f4d0ca30c0645a61e6dc68e8de5b2087.png",
                        "isERC1155": false,
                        "isERC721": false,
                        "sign": true,
                        "value": "1.64646413"
                    }
                ]
            },
            {
                "account": "0x5a0b54d5dc17e0aadc383d2db43b0a0d3e029c4c",
                "assets": [
                    {
                        "address": "0xeeeeeeeeeeeeeeeeeeeeeeeeeeeeeeeeeeeeeeee",
                        "amount": "0.008057904485054258",
                        "iconUrl": "https://assets.blocksec.com/image/1663669189317-3.png",
                        "isERC1155": false,
                        "isERC721": false,
                        "sign": true,
                        "value": "18.649483572236266071"
                    }
                ]
            },
            {
                "account": "0x9bd730ddcfe6b5b9ecba1cf66e153adaa807e238",
                "assets": [
                    {
                        "address": "0x64b986211c0cc675143f895c437b79c3cadf364a",
                        "amount": "2,626,632,480.21760358",
                        "iconUrl": "",
                        "isERC1155": false,
                        "isERC721": false,
                        "sign": false,
                        "value": "956.7105801"
                    },
                    {
                        "address": "0xc02aaa39b223fe8d0a0e5c4f27ead9083c756cc2",
                        "amount": "0.449999999999999936",
                        "iconUrl": "https://assets.blocksec.com/icon/f1cb2d02c471d545bbc7722daf3277fd852d98e63d118771af7047bd8256c516.png",
                        "isERC1155": false,
                        "isERC721": false,
                        "sign": true,
                        "value": "1041.495046650000063"
                    }
                ]
            },
            {
                "account": "0xb8e2a981f878e6be597e4a0c187e2757b1322760",
                "assets": [
                    {
                        "address": "0x64b986211c0cc675143f895c437b79c3cadf364a",
                        "amount": "2,626,632,480.21760358",
                        "iconUrl": "",
                        "isERC1155": false,
                        "isERC721": false,
                        "sign": true,
                        "value": "956.7105801"
                    },
                    {
                        "address": "0xc02aaa39b223fe8d0a0e5c4f27ead9083c756cc2",
                        "amount": "0.462457904485054194",
                        "iconUrl": "https://assets.blocksec.com/icon/f1cb2d02c471d545bbc7722daf3277fd852d98e63d118771af7047bd8256c516.png",
                        "isERC1155": false,
                        "isERC721": false,
                        "sign": false,
                        "value": "1070.3280373797528312"
                    }
                ]
            },
            {
                "account": "0xc02aaa39b223fe8d0a0e5c4f27ead9083c756cc2",
                "assets": [
                    {
                        "address": "0xeeeeeeeeeeeeeeeeeeeeeeeeeeeeeeeeeeeeeeee",
                        "amount": "0.008057904485054258",
                        "iconUrl": "https://assets.blocksec.com/image/1663669189317-3.png",
                        "isERC1155": false,
                        "isERC721": false,
                        "sign": false,
                        "value": "18.649483572236266071"
                    },
                    {
                        "address": "0xc02aaa39b223fe8d0a0e5c4f27ead9083c756cc2",
                        "amount": "0.008057904485054258",
                        "iconUrl": "https://assets.blocksec.com/icon/f1cb2d02c471d545bbc7722daf3277fd852d98e63d118771af7047bd8256c516.png",
                        "isERC1155": false,
                        "isERC721": false,
                        "sign": true,
                        "value": "18.649483572236266071"
                    }
                ]
            }
        ]
    },
    "profile": {
        "basic_info": {
            "baseFee": "",
            "blockNumber": 12893184,
            "callData": "0xfcbd4354000000000000000000000000000000000000000000000000063eb89da4ecffc000000000000000000000000000000000000000000000000000000000000000a000000000000000000000000000000000000000000000000000000000000001000000000000000000000000000000000000000000000000000000000000000180000000000000000000000000000000000000000000000000001ca09f1677373200000000000000000000000000000000000000000000000000000000000000020000000000000000000000009bd730ddcfe6b5b9ecba1cf66e153adaa807e238000000000000000000000000b8e2a981f878e6be597e4a0c187e2757b13227600000000000000000000000000000000000000000000000000000000000000003000000000000000000000000c02aaa39b223fe8d0a0e5c4f27ead9083c756cc200000000000000000000000064b986211c0cc675143f895c437b79c3cadf364a000000000000000000000000c02aaa39b223fe8d0a0e5c4f27ead9083c756cc2000000000000000000000000000000000000000000000000000000000000000200000000000000000000000000000001000000000000000000000000000027100000000000000000000000000000000000000000000000000000000000000000",
            "debugEnable": true,
            "errorInfo": "",
            "eventCount": 8,
            "feeRecipient": "0x5a0b54d5dc17e0aadc383d2db43b0a0d3e029c4c",
            "formatValue": "0",
            "gasLimit": 2000000,
            "gasPrice": "0",
            "gasUsed": 134414,
            "intTxnCount": 25,
            "internalRevert": false,
            "internalRevertMessage": "",
            "isContractCreation": false,
            "isFlashloan": false,
            "maxFee": "",
            "nonce": 1014,
            "overwritedBlockNumber": -1,
            "priorityFee": "",
            "receiver": "0x5144aca278867ab6c04455464d8f6a2607e3c075",
            "revertMessage": "",
            "sender": "0x110f59afabba80cb9675c30475d30fc20c6fd6ed",
            "simulationEnable": true,
            "sourceTxnHash": "0xb7a698b3e4c1143247bbae816440deeb2547a0cb9cd34a0e9e4e3dc49344788b",
            "status": true,
            "timestamp": "2021-07-25T03:57:28Z",
            "transactionFee": "0",
            "txnHash": "0xb7a698b3e4c1143247bbae816440deeb2547a0cb9cd34a0e9e4e3dc49344788b",
            "txnIndex": 4,
            "type": 0,
            "value": "0"
        },
        "fund_flow": [
            {
                "amount": "2,626,632,480.21760358",
                "from": "0x9bd730ddcfe6b5b9ecba1cf66e153adaa807e238",
                "id": 1,
                "isERC1155": false,
                "isERC721": false,
                "isReverted": false,
                "order": 1,
                "to": "0xb8e2a981f878e6be597e4a0c187e2757b1322760",
                "token": "0x64b986211c0cc675143f895c437b79c3cadf364a"
            },
            {
                "amount": "0.449999999999999936",
                "from": "0x5144aca278867ab6c04455464d8f6a2607e3c075",
                "id": 2,
                "isERC1155": false,
                "isERC721": false,
                "isReverted": false,
                "order": 2,
                "to": "0x9bd730ddcfe6b5b9ecba1cf66e153adaa807e238",
                "token": "0xc02aaa39b223fe8d0a0e5c4f27ead9083c756cc2"
            },
            {
                "amount": "0.462457904485054194",
                "from": "0xb8e2a981f878e6be597e4a0c187e2757b1322760",
                "id": 3,
                "isERC1155": false,
                "isERC721": false,
                "isReverted": false,
                "order": 3,
                "to": "0x5144aca278867ab6c04455464d8f6a2607e3c075",
                "token": "0xc02aaa39b223fe8d0a0e5c4f27ead9083c756cc2"
            },
            {
                "amount": "0.008057904485054258",
                "from": "0xc02aaa39b223fe8d0a0e5c4f27ead9083c756cc2",
                "id": 4,
                "isERC1155": false,
                "isERC721": false,
                "isReverted": false,
                "order": 4,
                "to": "0x5144aca278867ab6c04455464d8f6a2607e3c075",
                "token": "0xeeeeeeeeeeeeeeeeeeeeeeeeeeeeeeeeeeeeeeee"
            },
            {
                "amount": "0.008057904485054258",
                "from": "0x5144aca278867ab6c04455464d8f6a2607e3c075",
                "id": 5,
                "isERC1155": false,
                "isERC721": false,
                "isReverted": false,
                "order": 5,
                "to": "0xc02aaa39b223fe8d0a0e5c4f27ead9083c756cc2",
                "token": "0xc02aaa39b223fe8d0a0e5c4f27ead9083c756cc2"
            },
            {
                "amount": "0.008057904485054258",
                "from": "0x5144aca278867ab6c04455464d8f6a2607e3c075",
                "id": 6,
                "isERC1155": false,
                "isERC721": false,
                "isReverted": false,
                "order": 6,
                "to": "0x5a0b54d5dc17e0aadc383d2db43b0a0d3e029c4c",
                "token": "0xeeeeeeeeeeeeeeeeeeeeeeeeeeeeeeeeeeeeeeee"
            },
            {
                "amount": "4",
                "from": "0x5144aca278867ab6c04455464d8f6a2607e3c075",
                "id": 7,
                "isERC1155": false,
                "isERC721": false,
                "isReverted": false,
                "order": 7,
                "to": "0x0000000000000000000000000000000000000000",
                "token": "0x0000000000004946c0e9f43f4dee607b0ef1fa1c"
            }
        ],
        "token_infos": [
            {
                "address": "0x0000000000004946c0e9f43f4dee607b0ef1fa1c",
                "decimals": 0
            },
            {
                "address": "0x64b986211c0cc675143f895c437b79c3cadf364a",
                "decimals": 8
            },
            {
                "address": "0xc02aaa39b223fe8d0a0e5c4f27ead9083c756cc2",
                "decimals": 18
            },
            {
                "address": "0xeeeeeeeeeeeeeeeeeeeeeeeeeeeeeeeeeeeeeeee",
                "decimals": 18
            }
        ]
    },
    "address_label": {
        "labels": [
            {
                "address": "0x9bd730ddcfe6b5b9ecba1cf66e153adaa807e238",
                "label": "Uniswap V3: GRPFT"
            },
            {
                "address": "0xc02aaa39b223fe8d0a0e5c4f27ead9083c756cc2",
                "label": "Wrapped Ether (WETH)"
            },
            {
                "address": "0xb8e2a981f878e6be597e4a0c187e2757b1322760",
                "label": "ShibaSwap LP Token (SSLP)"
            },
            {
                "address": "0x5a0b54d5dc17e0aadc383d2db43b0a0d3e029c4c",
                "label": "Spark Pool"
            },
            {
                "address": "0xeeeeeeeeeeeeeeeeeeeeeeeeeeeeeeeeeeeeeeee",
                "label": "Ether"
            },
            {
                "address": "0x0000000000004946c0e9f43f4dee607b0ef1fa1c",
                "label": "1inch: CHI Token"
            },
            {
                "address": "0x0000000000000000000000000000000000000001",
                "label": "Precompiled"
            },
            {
                "address": "0x0000000000000000000000000000000000000002",
                "label": "Precompiled"
            },
            {
                "address": "0x0000000000000000000000000000000000000003",
                "label": "Precompiled"
            },
            {
                "address": "0x0000000000000000000000000000000000000004",
                "label": "Precompiled"
            },
            {
                "address": "0x64b986211c0cc675143f895c437b79c3cadf364a",
                "label": "GRAPEFRUIT (GRPFT)"
            }
        ]
    },
    "trace": {
        "accountLabels": null,
        "dataMap": {
            "-1": {
                "invocation": {
                    "address": "0x110f59afabba80cb9675c30475d30fc20c6fd6ed",
                    "callData": "",
                    "decodedMethod": null,
                    "errorInfo": "",
                    "fromAddress": "",
                    "gasUsed": 0,
                    "id": -1,
                    "methodDecoded": false,
                    "operation": "",
                    "output": "",
                    "revert": false,
                    "revertMessage": "",
                    "selector": "",
                    "status": false,
                    "value": ""
                },
                "nodeType": 0
            },
            "0": {
                "invocation": {
                    "address": "0x5144aca278867ab6c04455464d8f6a2607e3c075",
                    "callData": "0x000000000000000000000000000000000000000000000000063eb89da4ecffc000000000000000000000000000000000000000000000000000000000000000a000000000000000000000000000000000000000000000000000000000000001000000000000000000000000000000000000000000000000000000000000000180000000000000000000000000000000000000000000000000001ca09f1677373200000000000000000000000000000000000000000000000000000000000000020000000000000000000000009bd730ddcfe6b5b9ecba1cf66e153adaa807e238000000000000000000000000b8e2a981f878e6be597e4a0c187e2757b13227600000000000000000000000000000000000000000000000000000000000000003000000000000000000000000c02aaa39b223fe8d0a0e5c4f27ead9083c756cc200000000000000000000000064b986211c0cc675143f895c437b79c3cadf364a000000000000000000000000c02aaa39b223fe8d0a0e5c4f27ead9083c756cc2000000000000000000000000000000000000000000000000000000000000000200000000000000000000000000000001000000000000000000000000000027100000000000000000000000000000000000000000000000000000000000000000",
                    "decodedMethod": null,
                    "errorInfo": "",
                    "fromAddress": "0x110f59afabba80cb9675c30475d30fc20c6fd6ed",
                    "gasUsed": 134414,
                    "id": 0,
                    "methodDecoded": false,
                    "operation": "CALL",
                    "output": "",
                    "revert": false,
                    "revertMessage": "",
                    "selector": "0xfcbd4354",
                    "status": true,
                    "value": "0"
                },
                "nodeType": 0
            },
            "1": {
                "invocation": {
                    "address": "0xc02aaa39b223fe8d0a0e5c4f27ead9083c756cc2",
                    "callData": "0x0000000000000000000000005144aca278867ab6c04455464d8f6a2607e3c075",
                    "decodedMethod": {
                        "callParams": [
                            {
                                "name": "",
                                "type": "address",
                                "value": "0x5144aca278867ab6c04455464d8f6a2607e3c075"
                            }
                        ],
                        "constructorArguments": "",
                        "name": "balanceOf",
                        "returnParams": [
                            {
                                "decimalAvailable": true,
                                "name": "",
                                "type": "uint256",
                                "value": "56,996,489,275,801,581,373"
                            }
                        ],
                        "signature": "balanceOf(address)"
                    },
                    "errorInfo": "",
                    "fromAddress": "0x5144aca278867ab6c04455464d8f6a2607e3c075",
                    "gasUsed": 2534,
                    "id": 1,
                    "methodDecoded": true,
                    "operation": "CALL",
                    "output": "0x00000000000000000000000000000000000000000000000316fc35041883b73d",
                    "revert": false,
                    "revertMessage": "",
                    "selector": "0x70a08231",
                    "status": true,
                    "value": "0"
                },
                "nodeType": 0
            },
            "10": {
                "event": {
                    "contract": "0x9bd730ddcfe6b5b9ecba1cf66e153adaa807e238",
                    "decodedLog": {
                        "name": "Swap",
                        "params": [
                            {
                                "name": "sender",
                                "type": "address",
                                "value": "0x5144aca278867ab6c04455464d8f6a2607e3c075"
                            },
                            {
                                "name": "recipient",
                                "type": "address",
                                "value": "0xb8e2a981f878e6be597e4a0c187e2757b1322760"
                            },
                            {
                                "name": "amount0",
                                "type": "int256",
                                "value": "-262,663,248,021,760,358"
                            },
                            {
                                "name": "amount1",
                                "type": "int256",
                                "value": "449,999,999,999,999,936"
                            },
                            {
                                "name": "sqrtPriceX96",
                                "type": "uint160",
                                "value": "103,298,176,095,259,496,442,874,423,731"
                            },
                            {
                                "name": "liquidity",
                                "type": "uint128",
                                "value": "151,944,085,367,658,883,824"
                            },
                            {
                                "name": "tick",
                                "type": "int24",
                                "value": "5,306"
                            }
                        ],
                        "signature": "Swap(address,address,int256,int256,uint160,uint128,int24)"
                    },
                    "id": 10,
                    "logData": "0xfffffffffffffffffffffffffffffffffffffffffffffffffc5ad52ae61cd69a000000000000000000000000000000000000000000000000063eb89da4ecffc000000000000000000000000000000000000000014dc63fa2d0435476c01de9b30000000000000000000000000000000000000000000000083ca5d49b8cefaaf000000000000000000000000000000000000000000000000000000000000014ba",
                    "logDecoded": true,
                    "operation": "EVENT",
                    "revert": false,
                    "status": true,
                    "topics": [
                        "0xc42079f94a6350d7e6235f29174924f928cc2ac818eb64fed8004e115fbcca67",
                        "0x0000000000000000000000005144aca278867ab6c04455464d8f6a2607e3c075",
                        "0x000000000000000000000000b8e2a981f878e6be597e4a0c187e2757b1322760"
                    ]
                },
                "nodeType": 1
            },
            "11": {
                "invocation": {
                    "address": "0xb8e2a981f878e6be597e4a0c187e2757b1322760",
                    "callData": "0x",
                    "decodedMethod": {
                        "callParams": [],
                        "constructorArguments": "",
                        "name": "getReserves",
                        "returnParams": [
                            {
                                "name": "_reserve0",
                                "type": "uint112",
                                "value": "10,393,720,839,520,916,579"
                            },
                            {
                                "name": "_reserve1",
                                "type": "uint112",
                                "value": "18,817,221,125,951,566,121"
                            },
                            {
                                "name": "_blockTimestampLast",
                                "type": "uint32",
                                "value": "1,627,185,448"
                            }
                        ],
                        "signature": "getReserves()"
                    },
                    "errorInfo": "",
                    "fromAddress": "0x5144aca278867ab6c04455464d8f6a2607e3c075",
                    "gasUsed": 2504,
                    "id": 11,
                    "methodDecoded": true,
                    "operation": "STATICCALL",
                    "output": "0x000000000000000000000000000000000000000000000000903dea0906381463000000000000000000000000000000000000000000000001052432ea8851b1290000000000000000000000000000000000000000000000000000000060fce128",
                    "revert": false,
                    "revertMessage": "",
                    "selector": "0x0902f1ac",
                    "status": true,
                    "value": "0"
                },
                "nodeType": 0
            },
            "12": {
                "invocation": {
                    "address": "0xb8e2a981f878e6be597e4a0c187e2757b1322760",
                    "callData": "0x0000000000000000000000000000000000000000000000000000000000000000000000000000000000000000000000000000000000000000066afb03906736f20000000000000000000000005144aca278867ab6c04455464d8f6a2607e3c07500000000000000000000000000000000000000000000000000000000000000800000000000000000000000000000000000000000000000000000000000000000",
                    "decodedMethod": {
                        "callParams": [
                            {
                                "name": "amount0Out",
                                "type": "uint256",
                                "value": "0"
                            },
                            {
                                "name": "amount1Out",
                                "type": "uint256",
                                "value": "462,457,904,485,054,194"
                            },
                            {
                                "name": "to",
                                "type": "address",
                                "value": "0x5144aca278867ab6c04455464d8f6a2607e3c075"
                            },
                            {
                                "name": "data",
                                "type": "bytes",
                                "value": "0x"
                            }
                        ],
                        "constructorArguments": "",
                        "name": "swap",
                        "returnParams": [],
                        "signature": "swap(uint256,uint256,address,bytes)"
                    },
                    "errorInfo": "",
                    "fromAddress": "0x5144aca278867ab6c04455464d8f6a2607e3c075",
                    "gasUsed": 32311,
                    "id": 12,
                    "methodDecoded": true,
                    "operation": "CALL",
                    "output": "",
                    "revert": false,
                    "revertMessage": "",
                    "selector": "0x022c0d9f",
                    "status": true,
                    "value": "0"
                },
                "nodeType": 0
            },
            "13": {
                "invocation": {
                    "address": "0xc02aaa39b223fe8d0a0e5c4f27ead9083c756cc2",
                    "callData": "0x0000000000000000000000005144aca278867ab6c04455464d8f6a2607e3c075000000000000000000000000000000000000000000000000066afb03906736f2",
                    "decodedMethod": {
                        "callParams": [
                            {
                                "name": "dst",
                                "type": "address",
                                "value": "0x5144aca278867ab6c04455464d8f6a2607e3c075"
                            },
                            {
                                "decimalAvailable": true,
                                "name": "wad",
                                "type": "uint256",
                                "value": "462,457,904,485,054,194"
                            }
                        ],
                        "constructorArguments": "",
                        "name": "transfer",
                        "returnParams": [
                            {
                                "name": "",
                                "type": "bool",
                                "value": true
                            }
                        ],
                        "signature": "transfer(address,uint256)"
                    },
                    "errorInfo": "",
                    "fromAddress": "0xb8e2a981f878e6be597e4a0c187e2757b1322760",
                    "gasUsed": 8062,
                    "id": 13,
                    "methodDecoded": true,
                    "operation": "CALL",
                    "output": "0x0000000000000000000000000000000000000000000000000000000000000001",
                    "revert": false,
                    "revertMessage": "",
                    "selector": "0xa9059cbb",
                    "status": true,
                    "value": "0"
                },
                "nodeType": 0
            },
            "14": {
                "event": {
                    "contract": "0xc02aaa39b223fe8d0a0e5c4f27ead9083c756cc2",
                    "decodedLog": {
                        "name": "Transfer",
                        "params": [
                            {
                                "name": "src",
                                "type": "address",
                                "value": "0xb8e2a981f878e6be597e4a0c187e2757b1322760"
                            },
                            {
                                "name": "dst",
                                "type": "address",
                                "value": "0x5144aca278867ab6c04455464d8f6a2607e3c075"
                            },
                            {
                                "decimalAvailable": true,
                                "name": "wad",
                                "type": "uint256",
                                "value": "462,457,904,485,054,194"
                            }
                        ],
                        "signature": "Transfer(address,address,uint256)"
                    },
                    "id": 14,
                    "logData": "0x000000000000000000000000000000000000000000000000066afb03906736f2",
                    "logDecoded": true,
                    "operation": "EVENT",
                    "revert": false,
                    "status": true,
                    "topics": [
                        "0xddf252ad1be2c89b69c2b068fc378daa952ba7f163c4a11628f55a4df523b3ef",
                        "0x000000000000000000000000b8e2a981f878e6be597e4a0c187e2757b1322760",
                        "0x0000000000000000000000005144aca278867ab6c04455464d8f6a2607e3c075"
                    ]
                },
                "nodeType": 1
            },
            "15": {
                "invocation": {
                    "address": "0x64b986211c0cc675143f895c437b79c3cadf364a",
                    "callData": "0x000000000000000000000000b8e2a981f878e6be597e4a0c187e2757b1322760",
                    "decodedMethod": {
                        "callParams": [
                            {
                                "name": "account",
                                "type": "address",
                                "value": "0xb8e2a981f878e6be597e4a0c187e2757b1322760"
                            }
                        ],
                        "constructorArguments": "",
                        "name": "balanceOf",
                        "returnParams": [
                            {
                                "decimalAvailable": true,
                                "name": "",
                                "type": "uint256",
                                "value": "10,656,384,087,542,676,937"
                            }
                        ],
                        "signature": "balanceOf(address)"
                    },
                    "errorInfo": "",
                    "fromAddress": "0xb8e2a981f878e6be597e4a0c187e2757b1322760",
                    "gasUsed": 518,
                    "id": 15,
                    "methodDecoded": true,
                    "operation": "STATICCALL",
                    "output": "0x00000000000000000000000000000000000000000000000093e314de201b3dc9",
                    "revert": false,
                    "revertMessage": "",
                    "selector": "0x70a08231",
                    "status": true,
                    "value": "0"
                },
                "nodeType": 0
            },
            "16": {
                "invocation": {
                    "address": "0xc02aaa39b223fe8d0a0e5c4f27ead9083c756cc2",
                    "callData": "0x000000000000000000000000b8e2a981f878e6be597e4a0c187e2757b1322760",
                    "decodedMethod": {
                        "callParams": [
                            {
                                "name": "",
                                "type": "address",
                                "value": "0xb8e2a981f878e6be597e4a0c187e2757b1322760"
                            }
                        ],
                        "constructorArguments": "",
                        "name": "balanceOf",
                        "returnParams": [
                            {
                                "decimalAvailable": true,
                                "name": "",
                                "type": "uint256",
                                "value": "18,354,763,221,466,511,927"
                            }
                        ],
                        "signature": "balanceOf(address)"
                    },
                    "errorInfo": "",
                    "fromAddress": "0xb8e2a981f878e6be597e4a0c187e2757b1322760",
                    "gasUsed": 534,
                    "id": 16,
                    "methodDecoded": true,
                    "operation": "STATICCALL",
                    "output": "0x000000000000000000000000000000000000000000000000feb937e6f7ea7a37",
                    "revert": false,
                    "revertMessage": "",
                    "selector": "0x70a08231",
                    "status": true,
                    "value": "0"
                },
                "nodeType": 0
            },
            "17": {
                "event": {
                    "contract": "0xb8e2a981f878e6be597e4a0c187e2757b1322760",
                    "decodedLog": {
                        "name": "Sync",
                        "params": [
                            {
                                "name": "reserve0",
                                "type": "uint112",
                                "value": "10,656,384,087,542,676,937"
                            },
                            {
                                "name": "reserve1",
                                "type": "uint112",
                                "value": "18,354,763,221,466,511,927"
                            }
                        ],
                        "signature": "Sync(uint112,uint112)"
                    },
                    "id": 17,
                    "logData": "0x00000000000000000000000000000000000000000000000093e314de201b3dc9000000000000000000000000000000000000000000000000feb937e6f7ea7a37",
                    "logDecoded": true,
                    "operation": "EVENT",
                    "revert": false,
                    "status": true,
                    "topics": [
                        "0x1c411e9a96e071241c2f21f7726b17ae89e3cab4c78be50e062b03a9fffbbad1"
                    ]
                },
                "nodeType": 1
            },
            "18": {
                "event": {
                    "contract": "0xb8e2a981f878e6be597e4a0c187e2757b1322760",
                    "decodedLog": {
                        "name": "Swap",
                        "params": [
                            {
                                "name": "sender",
                                "type": "address",
                                "value": "0x5144aca278867ab6c04455464d8f6a2607e3c075"
                            },
                            {
                                "name": "to",
                                "type": "address",
                                "value": "0x5144aca278867ab6c04455464d8f6a2607e3c075"
                            },
                            {
                                "name": "amount0In",
                                "type": "uint256",
                                "value": "262,663,248,021,760,358"
                            },
                            {
                                "name": "amount1In",
                                "type": "uint256",
                                "value": "0"
                            },
                            {
                                "name": "amount0Out",
                                "type": "uint256",
                                "value": "0"
                            },
                            {
                                "name": "amount1Out",
                                "type": "uint256",
                                "value": "462,457,904,485,054,194"
                            }
                        ],
                        "signature": "Swap(address,uint256,uint256,uint256,uint256,address)"
                    },
                    "id": 18,
                    "logData": "0x00000000000000000000000000000000000000000000000003a52ad519e3296600000000000000000000000000000000000000000000000000000000000000000000000000000000000000000000000000000000000000000000000000000000000000000000000000000000000000000000000000000000066afb03906736f2",
                    "logDecoded": true,
                    "operation": "EVENT",
                    "revert": false,
                    "status": true,
                    "topics": [
                        "0xd78ad95fa46c994b6551d0da85fc275fe613ce37657fb8d5e3d130840159d822",
                        "0x0000000000000000000000005144aca278867ab6c04455464d8f6a2607e3c075",
                        "0x0000000000000000000000005144aca278867ab6c04455464d8f6a2607e3c075"
                    ]
                },
                "nodeType": 1
            },
            "19": {
                "invocation": {
                    "address": "0xc02aaa39b223fe8d0a0e5c4f27ead9083c756cc2",
                    "callData": "0x000000000000000000000000000000000000000000000000001ca09f16773732",
                    "decodedMethod": {
                        "callParams": [
                            {
                                "name": "wad",
                                "type": "uint256",
                                "value": "8,057,904,485,054,258"
                            }
                        ],
                        "constructorArguments": "",
                        "name": "withdraw",
                        "returnParams": [],
                        "signature": "withdraw(uint256)"
                    },
                    "errorInfo": "",
                    "fromAddress": "0x5144aca278867ab6c04455464d8f6a2607e3c075",
                    "gasUsed": 9195,
                    "id": 19,
                    "methodDecoded": true,
                    "operation": "CALL",
                    "output": "",
                    "revert": false,
                    "revertMessage": "",
                    "selector": "0x2e1a7d4d",
                    "status": true,
                    "value": "0"
                },
                "nodeType": 0
            },
            "2": {
                "invocation": {
                    "address": "0x9bd730ddcfe6b5b9ecba1cf66e153adaa807e238",
                    "callData": "0x000000000000000000000000b8e2a981f878e6be597e4a0c187e2757b13227600000000000000000000000000000000000000000000000000000000000000000000000000000000000000000000000000000000000000000063eb89da4ecffc0000000000000000000000000fffd8963efd1fc6a506488495d951d5263988d2500000000000000000000000000000000000000000000000000000000000000a000000000000000000000000000000000000000000000000000000000000000c0000000000000000000000000000000000000000000000000000000000000002000000000000000000000000000000000000000000000000000000000000000400000000000000000000000005144aca278867ab6c04455464d8f6a2607e3c075000000000000000000000000000000000000000000000000000000000000002bc02aaa39b223fe8d0a0e5c4f27ead9083c756cc200271064b986211c0cc675143f895c437b79c3cadf364a000000000000000000000000000000000000000000",
                    "decodedMethod": {
                        "callParams": [
                            {
                                "name": "recipient",
                                "type": "address",
                                "value": "0xb8e2a981f878e6be597e4a0c187e2757b1322760"
                            },
                            {
                                "name": "zeroForOne",
                                "type": "bool",
                                "value": false
                            },
                            {
                                "name": "amountSpecified",
                                "type": "int256",
                                "value": "449,999,999,999,999,936"
                            },
                            {
                                "name": "sqrtPriceLimitX96",
                                "type": "uint160",
                                "value": "1,461,446,703,485,210,103,287,273,052,203,988,822,378,723,970,341"
                            },
                            {
                                "name": "data",
                                "type": "bytes",
                                "value": "0x000000000000000000000000000000000000000000000000000000000000002000000000000000000000000000000000000000000000000000000000000000400000000000000000000000005144aca278867ab6c04455464d8f6a2607e3c075000000000000000000000000000000000000000000000000000000000000002bc02aaa39b223fe8d0a0e5c4f27ead9083c756cc200271064b986211c0cc675143f895c437b79c3cadf364a000000000000000000000000000000000000000000"
                            }
                        ],
                        "constructorArguments": "",
                        "name": "swap",
                        "returnParams": [
                            {
                                "name": "amount0",
                                "type": "int256",
                                "value": "-262,663,248,021,760,358"
                            },
                            {
                                "name": "amount1",
                                "type": "int256",
                                "value": "449,999,999,999,999,936"
                            }
                        ],
                        "signature": "swap(address,bool,int256,uint160,bytes)"
                    },
                    "errorInfo": "",
                    "fromAddress": "0x5144aca278867ab6c04455464d8f6a2607e3c075",
                    "gasUsed": 74557,
                    "id": 2,
                    "methodDecoded": true,
                    "operation": "CALL",
                    "output": "0xfffffffffffffffffffffffffffffffffffffffffffffffffc5ad52ae61cd69a000000000000000000000000000000000000000000000000063eb89da4ecffc0",
                    "revert": false,
                    "revertMessage": "",
                    "selector": "0x128acb08",
                    "status": true,
                    "value": "0"
                },
                "nodeType": 0
            },
            "20": {
                "invocation": {
                    "address": "0x5144aca278867ab6c04455464d8f6a2607e3c075",
                    "callData": "0x",
                    "decodedMethod": null,
                    "errorInfo": "",
                    "fromAddress": "0xc02aaa39b223fe8d0a0e5c4f27ead9083c756cc2",
                    "gasUsed": 55,
                    "id": 20,
                    "methodDecoded": false,
                    "operation": "CALL",
                    "output": "",
                    "revert": false,
                    "revertMessage": "",
                    "selector": "fallback",
                    "status": true,
                    "value": "0.008057904485054258"
                },
                "nodeType": 0
            },
            "21": {
                "event": {
                    "contract": "0xc02aaa39b223fe8d0a0e5c4f27ead9083c756cc2",
                    "decodedLog": {
                        "name": "Withdrawal",
                        "params": [
                            {
                                "name": "src",
                                "type": "address",
                                "value": "0x5144aca278867ab6c04455464d8f6a2607e3c075"
                            },
                            {
                                "name": "wad",
                                "type": "uint256",
                                "value": "8,057,904,485,054,258"
                            }
                        ],
                        "signature": "Withdrawal(address,uint256)"
                    },
                    "id": 21,
                    "logData": "0x000000000000000000000000000000000000000000000000001ca09f16773732",
                    "logDecoded": true,
                    "operation": "EVENT",
                    "revert": false,
                    "status": true,
                    "topics": [
                        "0x7fcf532c15f0a6db0bd6d0e038bea71d30d808c7d98cb3bf7268a95bf5081b65",
                        "0x0000000000000000000000005144aca278867ab6c04455464d8f6a2607e3c075"
                    ]
                },
                "nodeType": 1
            },
            "22": {
                "invocation": {
                    "address": "0x5a0b54d5dc17e0aadc383d2db43b0a0d3e029c4c",
                    "callData": "0x",
                    "decodedMethod": null,
                    "errorInfo": "",
                    "fromAddress": "0x5144aca278867ab6c04455464d8f6a2607e3c075",
                    "gasUsed": 0,
                    "id": 22,
                    "methodDecoded": false,
                    "operation": "CALL",
                    "output": "",
                    "revert": false,
                    "revertMessage": "",
                    "selector": "fallback",
                    "status": true,
                    "value": "0.008057904485054258"
                },
                "nodeType": 0
            },
            "23": {
                "invocation": {
                    "address": "0xc02aaa39b223fe8d0a0e5c4f27ead9083c756cc2",
                    "callData": "0x0000000000000000000000005144aca278867ab6c04455464d8f6a2607e3c075",
                    "decodedMethod": {
                        "callParams": [
                            {
                                "name": "",
                                "type": "address",
                                "value": "0x5144aca278867ab6c04455464d8f6a2607e3c075"
                            }
                        ],
                        "constructorArguments": "",
                        "name": "balanceOf",
                        "returnParams": [
                            {
                                "decimalAvailable": true,
                                "name": "",
                                "type": "uint256",
                                "value": "57,000,889,275,801,581,373"
                            }
                        ],
                        "signature": "balanceOf(address)"
                    },
                    "errorInfo": "",
                    "fromAddress": "0x5144aca278867ab6c04455464d8f6a2607e3c075",
                    "gasUsed": 534,
                    "id": 23,
                    "methodDecoded": true,
                    "operation": "CALL",
                    "output": "0x000000000000000000000000000000000000000000000003170bd6caed86b73d",
                    "revert": false,
                    "revertMessage": "",
                    "selector": "0x70a08231",
                    "status": true,
                    "value": "0"
                },
                "nodeType": 0
            },
            "24": {
                "invocation": {
                    "address": "0x0000000000004946c0e9f43f4dee607b0ef1fa1c",
                    "callData": "0x0000000000000000000000000000000000000000000000000000000000000004",
                    "decodedMethod": {
                        "callParams": [
                            {
                                "name": "value",
                                "type": "uint256",
                                "value": "4"
                            }
                        ],
                        "constructorArguments": "",
                        "name": "freeUpTo",
                        "returnParams": [
                            {
                                "name": "",
                                "type": "uint256",
                                "value": "4"
                            }
                        ],
                        "signature": "freeUpTo(uint256)"
                    },
                    "errorInfo": "",
                    "fromAddress": "0x5144aca278867ab6c04455464d8f6a2607e3c075",
                    "gasUsed": 45111,
                    "id": 24,
                    "methodDecoded": true,
                    "operation": "CALL",
                    "output": "0x0000000000000000000000000000000000000000000000000000000000000004",
                    "revert": false,
                    "revertMessage": "",
                    "selector": "0x6366b936",
                    "status": true,
                    "value": "0"
                },
                "nodeType": 0
            },
            "25": {
                "event": {
                    "contract": "0x0000000000004946c0e9f43f4dee607b0ef1fa1c",
                    "decodedLog": {
                        "name": "Transfer",
                        "params": [
                            {
                                "name": "from",
                                "type": "address",
                                "value": "0x5144aca278867ab6c04455464d8f6a2607e3c075"
                            },
                            {
                                "name": "to",
                                "type": "address",
                                "value": "0x0000000000000000000000000000000000000000"
                            },
                            {
                                "decimalAvailable": true,
                                "name": "value",
                                "type": "uint256",
                                "value": "4"
                            }
                        ],
                        "signature": "Transfer(address,address,uint256)"
                    },
                    "id": 25,
                    "logData": "0x0000000000000000000000000000000000000000000000000000000000000004",
                    "logDecoded": true,
                    "operation": "EVENT",
                    "revert": false,
                    "status": true,
                    "topics": [
                        "0xddf252ad1be2c89b69c2b068fc378daa952ba7f163c4a11628f55a4df523b3ef",
                        "0x0000000000000000000000005144aca278867ab6c04455464d8f6a2607e3c075",
                        "0x0000000000000000000000000000000000000000000000000000000000000000"
                    ]
                },
                "nodeType": 1
            },
            "26": {
                "invocation": {
                    "address": "0xe57746f1927b5a41349698293998ea967209f5b3",
                    "callData": "0x",
                    "decodedMethod": null,
                    "errorInfo": "",
                    "fromAddress": "0x0000000000004946c0e9f43f4dee607b0ef1fa1c",
                    "gasUsed": 5022,
                    "id": 26,
                    "methodDecoded": false,
                    "operation": "CALL",
                    "output": "",
                    "revert": false,
                    "revertMessage": "",
                    "selector": "fallback",
                    "status": true,
                    "value": "0"
                },
                "nodeType": 0
            },
            "27": {
                "invocation": {
                    "address": "0x0000000000004946c0e9f43f4dee607b0ef1fa1c",
                    "callData": "",
                    "decodedMethod": null,
                    "errorInfo": "",
                    "fromAddress": "0xe57746f1927b5a41349698293998ea967209f5b3",
                    "gasUsed": 0,
                    "id": 27,
                    "methodDecoded": false,
                    "operation": "SELFDESTRUCT",
                    "output": "",
                    "revert": false,
                    "revertMessage": "",
                    "selector": "",
                    "status": true,
                    "value": "0"
                },
                "nodeType": 0
            },
            "28": {
                "invocation": {
                    "address": "0x45929afc2cee3a9899089833b39a5634d7a407b2",
                    "callData": "0x",
                    "decodedMethod": null,
                    "errorInfo": "",
                    "fromAddress": "0x0000000000004946c0e9f43f4dee607b0ef1fa1c",
                    "gasUsed": 5022,
                    "id": 28,
                    "methodDecoded": false,
                    "operation": "CALL",
                    "output": "",
                    "revert": false,
                    "revertMessage": "",
                    "selector": "fallback",
                    "status": true,
                    "value": "0"
                },
                "nodeType": 0
            },
            "29": {
                "invocation": {
                    "address": "0x0000000000004946c0e9f43f4dee607b0ef1fa1c",
                    "callData": "",
                    "decodedMethod": null,
                    "errorInfo": "",
                    "fromAddress": "0x45929afc2cee3a9899089833b39a5634d7a407b2",
                    "gasUsed": 0,
                    "id": 29,
                    "methodDecoded": false,
                    "operation": "SELFDESTRUCT",
                    "output": "",
                    "revert": false,
                    "revertMessage": "",
                    "selector": "",
                    "status": true,
                    "value": "0"
                },
                "nodeType": 0
            },
            "3": {
                "invocation": {
                    "address": "0x64b986211c0cc675143f895c437b79c3cadf364a",
                    "callData": "0x000000000000000000000000b8e2a981f878e6be597e4a0c187e2757b132276000000000000000000000000000000000000000000000000003a52ad519e32966",
                    "decodedMethod": {
                        "callParams": [
                            {
                                "name": "recipient",
                                "type": "address",
                                "value": "0xb8e2a981f878e6be597e4a0c187e2757b1322760"
                            },
                            {
                                "decimalAvailable": true,
                                "name": "amount",
                                "type": "uint256",
                                "value": "262,663,248,021,760,358"
                            }
                        ],
                        "constructorArguments": "",
                        "name": "transfer",
                        "returnParams": [
                            {
                                "name": "",
                                "type": "bool",
                                "value": true
                            }
                        ],
                        "signature": "transfer(address,uint256)"
                    },
                    "errorInfo": "",
                    "fromAddress": "0x9bd730ddcfe6b5b9ecba1cf66e153adaa807e238",
                    "gasUsed": 13090,
                    "id": 3,
                    "methodDecoded": true,
                    "operation": "CALL",
                    "output": "0x0000000000000000000000000000000000000000000000000000000000000001",
                    "revert": false,
                    "revertMessage": "",
                    "selector": "0xa9059cbb",
                    "status": true,
                    "value": "0"
                },
                "nodeType": 0
            },
            "30": {
                "invocation": {
                    "address": "0xa91d2021c1ec76dc0b82748658dce85c307c6e7d",
                    "callData": "0x",
                    "decodedMethod": null,
                    "errorInfo": "",
                    "fromAddress": "0x0000000000004946c0e9f43f4dee607b0ef1fa1c",
                    "gasUsed": 5022,
                    "id": 30,
                    "methodDecoded": false,
                    "operation": "CALL",
                    "output": "",
                    "revert": false,
                    "revertMessage": "",
                    "selector": "fallback",
                    "status": true,
                    "value": "0"
                },
                "nodeType": 0
            },
            "31": {
                "invocation": {
                    "address": "0x0000000000004946c0e9f43f4dee607b0ef1fa1c",
                    "callData": "",
                    "decodedMethod": null,
                    "errorInfo": "",
                    "fromAddress": "0xa91d2021c1ec76dc0b82748658dce85c307c6e7d",
                    "gasUsed": 0,
                    "id": 31,
                    "methodDecoded": false,
                    "operation": "SELFDESTRUCT",
                    "output": "",
                    "revert": false,
                    "revertMessage": "",
                    "selector": "",
                    "status": true,
                    "value": "0"
                },
                "nodeType": 0
            },
            "32": {
                "invocation": {
                    "address": "0x4df38ca592bc36ea16457b4a9f027c6b27f29285",
                    "callData": "0x",
                    "decodedMethod": null,
                    "errorInfo": "",
                    "fromAddress": "0x0000000000004946c0e9f43f4dee607b0ef1fa1c",
                    "gasUsed": 5022,
                    "id": 32,
                    "methodDecoded": false,
                    "operation": "CALL",
                    "output": "",
                    "revert": false,
                    "revertMessage": "",
                    "selector": "fallback",
                    "status": true,
                    "value": "0"
                },
                "nodeType": 0
            },
            "33": {
                "invocation": {
                    "address": "0x0000000000004946c0e9f43f4dee607b0ef1fa1c",
                    "callData": "",
                    "decodedMethod": null,
                    "errorInfo": "",
                    "fromAddress": "0x4df38ca592bc36ea16457b4a9f027c6b27f29285",
                    "gasUsed": 0,
                    "id": 33,
                    "methodDecoded": false,
                    "operation": "SELFDESTRUCT",
                    "output": "",
                    "revert": false,
                    "revertMessage": "",
                    "selector": "",
                    "status": true,
                    "value": "0"
                },
                "nodeType": 0
            },
            "4": {
                "event": {
                    "contract": "0x64b986211c0cc675143f895c437b79c3cadf364a",
                    "decodedLog": {
                        "name": "Transfer",
                        "params": [
                            {
                                "name": "from",
                                "type": "address",
                                "value": "0x9bd730ddcfe6b5b9ecba1cf66e153adaa807e238"
                            },
                            {
                                "name": "to",
                                "type": "address",
                                "value": "0xb8e2a981f878e6be597e4a0c187e2757b1322760"
                            },
                            {
                                "decimalAvailable": true,
                                "name": "value",
                                "type": "uint256",
                                "value": "262,663,248,021,760,358"
                            }
                        ],
                        "signature": "Transfer(address,address,uint256)"
                    },
                    "id": 4,
                    "logData": "0x00000000000000000000000000000000000000000000000003a52ad519e32966",
                    "logDecoded": true,
                    "operation": "EVENT",
                    "revert": false,
                    "status": true,
                    "topics": [
                        "0xddf252ad1be2c89b69c2b068fc378daa952ba7f163c4a11628f55a4df523b3ef",
                        "0x0000000000000000000000009bd730ddcfe6b5b9ecba1cf66e153adaa807e238",
                        "0x000000000000000000000000b8e2a981f878e6be597e4a0c187e2757b1322760"
                    ]
                },
                "nodeType": 1
            },
            "5": {
                "invocation": {
                    "address": "0xc02aaa39b223fe8d0a0e5c4f27ead9083c756cc2",
                    "callData": "0x0000000000000000000000009bd730ddcfe6b5b9ecba1cf66e153adaa807e238",
                    "decodedMethod": {
                        "callParams": [
                            {
                                "name": "",
                                "type": "address",
                                "value": "0x9bd730ddcfe6b5b9ecba1cf66e153adaa807e238"
                            }
                        ],
                        "constructorArguments": "",
                        "name": "balanceOf",
                        "returnParams": [
                            {
                                "decimalAvailable": true,
                                "name": "",
                                "type": "uint256",
                                "value": "209,053,247,509,343,103,360"
                            }
                        ],
                        "signature": "balanceOf(address)"
                    },
                    "errorInfo": "",
                    "fromAddress": "0x9bd730ddcfe6b5b9ecba1cf66e153adaa807e238",
                    "gasUsed": 2534,
                    "id": 5,
                    "methodDecoded": true,
                    "operation": "STATICCALL",
                    "output": "0x00000000000000000000000000000000000000000000000b553254ff8835e980",
                    "revert": false,
                    "revertMessage": "",
                    "selector": "0x70a08231",
                    "status": true,
                    "value": "0"
                },
                "nodeType": 0
            },
            "6": {
                "invocation": {
                    "address": "0x5144aca278867ab6c04455464d8f6a2607e3c075",
                    "callData": "0xfffffffffffffffffffffffffffffffffffffffffffffffffc5ad52ae61cd69a000000000000000000000000000000000000000000000000063eb89da4ecffc0000000000000000000000000000000000000000000000000000000000000006000000000000000000000000000000000000000000000000000000000000000c0000000000000000000000000000000000000000000000000000000000000002000000000000000000000000000000000000000000000000000000000000000400000000000000000000000005144aca278867ab6c04455464d8f6a2607e3c075000000000000000000000000000000000000000000000000000000000000002bc02aaa39b223fe8d0a0e5c4f27ead9083c756cc200271064b986211c0cc675143f895c437b79c3cadf364a000000000000000000000000000000000000000000",
                    "decodedMethod": {
                        "callParams": [
                            {
                                "name": "amount0Delta",
                                "type": "int256",
                                "value": "-262,663,248,021,760,358"
                            },
                            {
                                "name": "amount1Delta",
                                "type": "int256",
                                "value": "449,999,999,999,999,936"
                            },
                            {
                                "name": "data",
                                "type": "bytes",
                                "value": "0x000000000000000000000000000000000000000000000000000000000000002000000000000000000000000000000000000000000000000000000000000000400000000000000000000000005144aca278867ab6c04455464d8f6a2607e3c075000000000000000000000000000000000000000000000000000000000000002bc02aaa39b223fe8d0a0e5c4f27ead9083c756cc200271064b986211c0cc675143f895c437b79c3cadf364a000000000000000000000000000000000000000000"
                            }
                        ],
                        "constructorArguments": "",
                        "name": "uniswapV3SwapCallback",
                        "returnParams": [],
                        "signature": "uniswapV3SwapCallback(int256,int256,bytes)"
                    },
                    "errorInfo": "",
                    "fromAddress": "0x9bd730ddcfe6b5b9ecba1cf66e153adaa807e238",
                    "gasUsed": 17210,
                    "id": 6,
                    "methodDecoded": true,
                    "operation": "CALL",
                    "output": "",
                    "revert": false,
                    "revertMessage": "",
                    "selector": "0xfa461e33",
                    "status": true,
                    "value": "0"
                },
                "nodeType": 0
            },
            "7": {
                "invocation": {
                    "address": "0xc02aaa39b223fe8d0a0e5c4f27ead9083c756cc2",
                    "callData": "0x0000000000000000000000009bd730ddcfe6b5b9ecba1cf66e153adaa807e238000000000000000000000000000000000000000000000000063eb89da4ecffc0",
                    "decodedMethod": {
                        "callParams": [
                            {
                                "name": "dst",
                                "type": "address",
                                "value": "0x9bd730ddcfe6b5b9ecba1cf66e153adaa807e238"
                            },
                            {
                                "decimalAvailable": true,
                                "name": "wad",
                                "type": "uint256",
                                "value": "449,999,999,999,999,936"
                            }
                        ],
                        "constructorArguments": "",
                        "name": "transfer",
                        "returnParams": [
                            {
                                "name": "",
                                "type": "bool",
                                "value": true
                            }
                        ],
                        "signature": "transfer(address,uint256)"
                    },
                    "errorInfo": "",
                    "fromAddress": "0x5144aca278867ab6c04455464d8f6a2607e3c075",
                    "gasUsed": 8862,
                    "id": 7,
                    "methodDecoded": true,
                    "operation": "CALL",
                    "output": "0x0000000000000000000000000000000000000000000000000000000000000001",
                    "revert": false,
                    "revertMessage": "",
                    "selector": "0xa9059cbb",
                    "status": true,
                    "value": "0"
                },
                "nodeType": 0
            },
            "8": {
                "event": {
                    "contract": "0xc02aaa39b223fe8d0a0e5c4f27ead9083c756cc2",
                    "decodedLog": {
                        "name": "Transfer",
                        "params": [
                            {
                                "name": "src",
                                "type": "address",
                                "value": "0x5144aca278867ab6c04455464d8f6a2607e3c075"
                            },
                            {
                                "name": "dst",
                                "type": "address",
                                "value": "0x9bd730ddcfe6b5b9ecba1cf66e153adaa807e238"
                            },
                            {
                                "decimalAvailable": true,
                                "name": "wad",
                                "type": "uint256",
                                "value": "449,999,999,999,999,936"
                            }
                        ],
                        "signature": "Transfer(address,address,uint256)"
                    },
                    "id": 8,
                    "logData": "0x000000000000000000000000000000000000000000000000063eb89da4ecffc0",
                    "logDecoded": true,
                    "operation": "EVENT",
                    "revert": false,
                    "status": true,
                    "topics": [
                        "0xddf252ad1be2c89b69c2b068fc378daa952ba7f163c4a11628f55a4df523b3ef",
                        "0x0000000000000000000000005144aca278867ab6c04455464d8f6a2607e3c075",
                        "0x0000000000000000000000009bd730ddcfe6b5b9ecba1cf66e153adaa807e238"
                    ]
                },
                "nodeType": 1
            },
            "9": {
                "invocation": {
                    "address": "0xc02aaa39b223fe8d0a0e5c4f27ead9083c756cc2",
                    "callData": "0x0000000000000000000000009bd730ddcfe6b5b9ecba1cf66e153adaa807e238",
                    "decodedMethod": {
                        "callParams": [
                            {
                                "name": "",
                                "type": "address",
                                "value": "0x9bd730ddcfe6b5b9ecba1cf66e153adaa807e238"
                            }
                        ],
                        "constructorArguments": "",
                        "name": "balanceOf",
                        "returnParams": [
                            {
                                "decimalAvailable": true,
                                "name": "",
                                "type": "uint256",
                                "value": "209,503,247,509,343,103,296"
                            }
                        ],
                        "signature": "balanceOf(address)"
                    },
                    "errorInfo": "",
                    "fromAddress": "0x9bd730ddcfe6b5b9ecba1cf66e153adaa807e238",
                    "gasUsed": 534,
                    "id": 9,
                    "methodDecoded": true,
                    "operation": "STATICCALL",
                    "output": "0x00000000000000000000000000000000000000000000000b5b710d9d2d22e940",
                    "revert": false,
                    "revertMessage": "",
                    "selector": "0x70a08231",
                    "status": true,
                    "value": "0"
                },
                "nodeType": 0
            }
        },
        "gasFlame": [
            {
                "children": [
                    {
                        "children": [
                            {
                                "children": [],
                                "depth": 0,
                                "name": "Initial Gas",
                                "value": 24484
                            },
                            {
                                "children": [
                                    {
                                        "children": [],
                                        "depth": 1,
                                        "name": "balanceOf",
                                        "value": 2534
                                    },
                                    {
                                        "children": [
                                            {
                                                "children": [],
                                                "depth": 2,
                                                "name": "transfer",
                                                "value": 13090
                                            },
                                            {
                                                "children": [],
                                                "depth": 2,
                                                "name": "balanceOf",
                                                "value": 2534
                                            },
                                            {
                                                "children": [
                                                    {
                                                        "children": [],
                                                        "depth": 3,
                                                        "name": "transfer",
                                                        "value": 8862
                                                    }
                                                ],
                                                "depth": 2,
                                                "name": "uniswapV3SwapCallback",
                                                "value": 17210
                                            },
                                            {
                                                "children": [],
                                                "depth": 2,
                                                "name": "balanceOf",
                                                "value": 534
                                            }
                                        ],
                                        "depth": 1,
                                        "name": "swap",
                                        "value": 74557
                                    },
                                    {
                                        "children": [],
                                        "depth": 1,
                                        "name": "getReserves",
                                        "value": 2504
                                    },
                                    {
                                        "children": [
                                            {
                                                "children": [],
                                                "depth": 2,
                                                "name": "transfer",
                                                "value": 8062
                                            },
                                            {
                                                "children": [],
                                                "depth": 2,
                                                "name": "balanceOf",
                                                "value": 518
                                            },
                                            {
                                                "children": [],
                                                "depth": 2,
                                                "name": "balanceOf",
                                                "value": 534
                                            }
                                        ],
                                        "depth": 1,
                                        "name": "swap",
                                        "value": 32311
                                    },
                                    {
                                        "children": [
                                            {
                                                "children": [],
                                                "depth": 2,
                                                "name": "fallback",
                                                "value": 55
                                            }
                                        ],
                                        "depth": 1,
                                        "name": "withdraw",
                                        "value": 9195
                                    },
                                    {
                                        "children": [],
                                        "depth": 1,
                                        "name": "fallback",
                                        "value": 0
                                    },
                                    {
                                        "children": [],
                                        "depth": 1,
                                        "name": "balanceOf",
                                        "value": 534
                                    },
                                    {
                                        "children": [
                                            {
                                                "children": [
                                                    {
                                                        "children": [],
                                                        "depth": 3,
                                                        "name": "",
                                                        "value": 0
                                                    }
                                                ],
                                                "depth": 2,
                                                "name": "fallback",
                                                "value": 5022
                                            },
                                            {
                                                "children": [
                                                    {
                                                        "children": [],
                                                        "depth": 3,
                                                        "name": "",
                                                        "value": 0
                                                    }
                                                ],
                                                "depth": 2,
                                                "name": "fallback",
                                                "value": 5022
                                            },
                                            {
                                                "children": [
                                                    {
                                                        "children": [],
                                                        "depth": 3,
                                                        "name": "",
                                                        "value": 0
                                                    }
                                                ],
                                                "depth": 2,
                                                "name": "fallback",
                                                "value": 5022
                                            },
                                            {
                                                "children": [
                                                    {
                                                        "children": [],
                                                        "depth": 3,
                                                        "name": "",
                                                        "value": 0
                                                    }
                                                ],
                                                "depth": 2,
                                                "name": "fallback",
                                                "value": 5022
                                            }
                                        ],
                                        "depth": 1,
                                        "name": "freeUpTo",
                                        "value": 45111
                                    }
                                ],
                                "depth": 0,
                                "name": "Executed Gas",
                                "value": 208730
                            }
                        ],
                        "depth": -1,
                        "name": "Actual Gas Used",
                        "value": 134414
                    },
                    {
                        "children": [],
                        "depth": -1,
                        "name": "Refunded Gas",
                        "value": 98800
                    }
                ],
                "depth": -2,
                "name": "Total Gas",
                "value": 233214
            }
        ],
        "isConfirmed": true,
        "mainTrace": [
            {
                "children": [
                    {
                        "children": [
                            {
                                "children": [],
                                "depth": 1,
                                "id": 1,
                                "order": 1
                            },
                            {
                                "children": [
                                    {
                                        "children": [
                                            {
                                                "children": [],
                                                "depth": 3,
                                                "id": 4,
                                                "order": 4
                                            }
                                        ],
                                        "depth": 2,
                                        "id": 3,
                                        "order": 3
                                    },
                                    {
                                        "children": [],
                                        "depth": 2,
                                        "id": 5,
                                        "order": 5
                                    },
                                    {
                                        "children": [
                                            {
                                                "children": [
                                                    {
                                                        "children": [],
                                                        "depth": 4,
                                                        "id": 8,
                                                        "order": 8
                                                    }
                                                ],
                                                "depth": 3,
                                                "id": 7,
                                                "order": 7
                                            }
                                        ],
                                        "depth": 2,
                                        "id": 6,
                                        "order": 6
                                    },
                                    {
                                        "children": [],
                                        "depth": 2,
                                        "id": 9,
                                        "order": 9
                                    },
                                    {
                                        "children": [],
                                        "depth": 2,
                                        "id": 10,
                                        "order": 10
                                    }
                                ],
                                "depth": 1,
                                "id": 2,
                                "order": 2
                            },
                            {
                                "children": [],
                                "depth": 1,
                                "id": 11,
                                "order": 11
                            },
                            {
                                "children": [
                                    {
                                        "children": [
                                            {
                                                "children": [],
                                                "depth": 3,
                                                "id": 14,
                                                "order": 14
                                            }
                                        ],
                                        "depth": 2,
                                        "id": 13,
                                        "order": 13
                                    },
                                    {
                                        "children": [],
                                        "depth": 2,
                                        "id": 15,
                                        "order": 15
                                    },
                                    {
                                        "children": [],
                                        "depth": 2,
                                        "id": 16,
                                        "order": 16
                                    },
                                    {
                                        "children": [],
                                        "depth": 2,
                                        "id": 17,
                                        "order": 17
                                    },
                                    {
                                        "children": [],
                                        "depth": 2,
                                        "id": 18,
                                        "order": 18
                                    }
                                ],
                                "depth": 1,
                                "id": 12,
                                "order": 12
                            },
                            {
                                "children": [
                                    {
                                        "children": [],
                                        "depth": 2,
                                        "id": 20,
                                        "order": 20
                                    },
                                    {
                                        "children": [],
                                        "depth": 2,
                                        "id": 21,
                                        "order": 21
                                    }
                                ],
                                "depth": 1,
                                "id": 19,
                                "order": 19
                            },
                            {
                                "children": [],
                                "depth": 1,
                                "id": 22,
                                "order": 22
                            },
                            {
                                "children": [],
                                "depth": 1,
                                "id": 23,
                                "order": 23
                            },
                            {
                                "children": [
                                    {
                                        "children": [],
                                        "depth": 2,
                                        "id": 25,
                                        "order": 25
                                    },
                                    {
                                        "children": [
                                            {
                                                "children": [],
                                                "depth": 3,
                                                "id": 27,
                                                "order": 27
                                            }
                                        ],
                                        "depth": 2,
                                        "id": 26,
                                        "order": 26
                                    },
                                    {
                                        "children": [
                                            {
                                                "children": [],
                                                "depth": 3,
                                                "id": 29,
                                                "order": 29
                                            }
                                        ],
                                        "depth": 2,
                                        "id": 28,
                                        "order": 28
                                    },
                                    {
                                        "children": [
                                            {
                                                "children": [],
                                                "depth": 3,
                                                "id": 31,
                                                "order": 31
                                            }
                                        ],
                                        "depth": 2,
                                        "id": 30,
                                        "order": 30
                                    },
                                    {
                                        "children": [
                                            {
                                                "children": [],
                                                "depth": 3,
                                                "id": 33,
                                                "order": 33
                                            }
                                        ],
                                        "depth": 2,
                                        "id": 32,
                                        "order": 32
                                    }
                                ],
                                "depth": 1,
                                "id": 24,
                                "order": 24
                            }
                        ],
                        "depth": 0,
                        "id": 0,
                        "order": 0
                    }
                ],
                "depth": -1,
                "id": -1,
                "order": -1
            }
        ],
        "mainTraceNodeCount": 34,
        "parentIdMap": {
            "0": -1,
            "1": 0,
            "10": 2,
            "11": 0,
            "12": 0,
            "13": 12,
            "14": 13,
            "15": 12,
            "16": 12,
            "17": 12,
            "18": 12,
            "19": 0,
            "2": 0,
            "20": 19,
            "21": 19,
            "22": 0,
            "23": 0,
            "24": 0,
            "25": 24,
            "26": 24,
            "27": 26,
            "28": 24,
            "29": 28,
            "3": 2,
            "30": 24,
            "31": 30,
            "32": 24,
            "33": 32,
            "4": 3,
            "5": 2,
            "6": 2,
            "7": 6,
            "8": 7,
            "9": 2
        },
        "tidyTrace": [
            {
                "children": [
                    {
                        "children": [
                            {
                                "children": [],
                                "depth": 1,
                                "id": 1,
                                "order": 1
                            },
                            {
                                "children": [
                                    {
                                        "children": [
                                            {
                                                "children": [],
                                                "depth": 3,
                                                "id": 4,
                                                "order": 4
                                            }
                                        ],
                                        "depth": 2,
                                        "id": 3,
                                        "order": 3
                                    },
                                    {
                                        "children": [
                                            {
                                                "children": [
                                                    {
                                                        "children": [],
                                                        "depth": 4,
                                                        "id": 8,
                                                        "order": 8
                                                    }
                                                ],
                                                "depth": 3,
                                                "id": 7,
                                                "order": 7
                                            }
                                        ],
                                        "depth": 2,
                                        "id": 6,
                                        "order": 6
                                    },
                                    {
                                        "children": [],
                                        "depth": 2,
                                        "id": 10,
                                        "order": 10
                                    }
                                ],
                                "depth": 1,
                                "id": 2,
                                "order": 2
                            },
                            {
                                "children": [
                                    {
                                        "children": [
                                            {
                                                "children": [],
                                                "depth": 3,
                                                "id": 14,
                                                "order": 14
                                            }
                                        ],
                                        "depth": 2,
                                        "id": 13,
                                        "order": 13
                                    },
                                    {
                                        "children": [],
                                        "depth": 2,
                                        "id": 17,
                                        "order": 17
                                    },
                                    {
                                        "children": [],
                                        "depth": 2,
                                        "id": 18,
                                        "order": 18
                                    }
                                ],
                                "depth": 1,
                                "id": 12,
                                "order": 12
                            },
                            {
                                "children": [
                                    {
                                        "children": [],
                                        "depth": 2,
                                        "id": 20,
                                        "order": 20
                                    },
                                    {
                                        "children": [],
                                        "depth": 2,
                                        "id": 21,
                                        "order": 21
                                    }
                                ],
                                "depth": 1,
                                "id": 19,
                                "order": 19
                            },
                            {
                                "children": [],
                                "depth": 1,
                                "id": 22,
                                "order": 22
                            },
                            {
                                "children": [],
                                "depth": 1,
                                "id": 23,
                                "order": 23
                            },
                            {
                                "children": [
                                    {
                                        "children": [],
                                        "depth": 2,
                                        "id": 25,
                                        "order": 25
                                    },
                                    {
                                        "children": [
                                            {
                                                "children": [],
                                                "depth": 3,
                                                "id": 27,
                                                "order": 27
                                            }
                                        ],
                                        "depth": 2,
                                        "id": 26,
                                        "order": 26
                                    },
                                    {
                                        "children": [
                                            {
                                                "children": [],
                                                "depth": 3,
                                                "id": 29,
                                                "order": 29
                                            }
                                        ],
                                        "depth": 2,
                                        "id": 28,
                                        "order": 28
                                    },
                                    {
                                        "children": [
                                            {
                                                "children": [],
                                                "depth": 3,
                                                "id": 31,
                                                "order": 31
                                            }
                                        ],
                                        "depth": 2,
                                        "id": 30,
                                        "order": 30
                                    },
                                    {
                                        "children": [
                                            {
                                                "children": [],
                                                "depth": 3,
                                                "id": 33,
                                                "order": 33
                                            }
                                        ],
                                        "depth": 2,
                                        "id": 32,
                                        "order": 32
                                    }
                                ],
                                "depth": 1,
                                "id": 24,
                                "order": 24
                            }
                        ],
                        "depth": 0,
                        "id": 0,
                        "order": 0
                    }
                ],
                "depth": -1,
                "id": -1,
                "order": -1
            }
        ],
        "tidyTraceNodeCount": 29
    },
    "state_change": {
        "stateChanges": [
            {
                "address": "0x0000000000004946c0e9f43f4dee607b0ef1fa1c",
                "erc": "ERC-20",
                "slots": [
                    {
                        "current": "0x00000000000000000000000000000000000000000000000000000000000001ef",
                        "key": "0x5008d14f0344033070b7c9c09c964977bc70b9011bff6b008019b90178f83ba0",
                        "prev": "0x00000000000000000000000000000000000000000000000000000000000001f3"
                    },
                    {
                        "current": "0x000000000000000000000000000000000000000000000000000000000077f25f",
                        "key": "0x0000000000000000000000000000000000000000000000000000000000000003",
                        "prev": "0x000000000000000000000000000000000000000000000000000000000077f25b"
                    }
                ],
                "storageVariables": [
                    {
                        "name": "_balances",
                        "type": "mapping(address => uint256)",
                        "value": {
                            "pairs": [
                                {
                                    "key": "0x5144aca278867ab6c04455464d8f6a2607e3c075",
                                    "value": {
                                        "current": "495",
                                        "prev": "499",
                                        "typeTag": 1
                                    }
                                }
                            ],
                            "typeTag": 4
                        }
                    },
                    {
                        "name": "totalBurned",
                        "type": "uint256",
                        "value": {
                            "current": "7860831",
                            "prev": "7860827",
                            "typeTag": 1
                        }
                    }
                ]
            },
            {
                "address": "0x64b986211c0cc675143f895c437b79c3cadf364a",
                "erc": "ERC-20",
                "slots": [
                    {
                        "current": "0x000000000000000000000000000000000000000000000005a3e893e0930fe58f",
                        "key": "0x5b9c85e05c820b770a076c65db2499da501f42a086d3ea3d85db44aa707b7035",
                        "prev": "0x000000000000000000000000000000000000000000000005a78dbeb5acf30ef5"
                    },
                    {
                        "current": "0x00000000000000000000000000000000000000000000000093e314de201b3dc9",
                        "key": "0xd67feb7e884a71b79cda8f233d1187fa450fbd7b350172a83dd25543735e6628",
                        "prev": "0x000000000000000000000000000000000000000000000000903dea0906381463"
                    }
                ],
                "storageVariables": [
                    {
                        "name": "_balances",
                        "type": "mapping(address => uint256)",
                        "value": {
                            "pairs": [
                                {
                                    "key": "0x9bd730ddcfe6b5b9ecba1cf66e153adaa807e238",
                                    "value": {
                                        "current": "104044572984076133775",
                                        "prev": "104307236232097894133",
                                        "typeTag": 1
                                    }
                                },
                                {
                                    "key": "0xb8e2a981f878e6be597e4a0c187e2757b1322760",
                                    "value": {
                                        "current": "10656384087542676937",
                                        "prev": "10393720839520916579",
                                        "typeTag": 1
                                    }
                                }
                            ],
                            "typeTag": 4
                        }
                    }
                ]
            },
            {
                "address": "0x9bd730ddcfe6b5b9ecba1cf66e153adaa807e238",
                "erc": "",
                "slots": [
                    {
                        "current": "0x0001000001000100000014ba00000000000000014dc63fa2d0435476c01de9b3",
                        "key": "0x0000000000000000000000000000000000000000000000000000000000000000",
                        "prev": "0x00010000010001000000148c00000000000000014d0618d8597c2245616056d5"
                    },
                    {
                        "current": "0x010000000000000000000442b8809d16fc828dd6b800000177c0d54560fce128",
                        "key": "0x0000000000000000000000000000000000000000000000000000000000000008",
                        "prev": "0x010000000000000000000441a3b30c9e94cf604cac0000017709d66560fcd840"
                    },
                    {
                        "current": "0x000000000000000000000000000000003e4dbdf5e1c19a5922f0a94d2e14e0b1",
                        "key": "0x0000000000000000000000000000000000000000000000000000000000000002",
                        "prev": "0x000000000000000000000000000000003e4bcd1573f34ed9da2c8eb24bed3db4"
                    }
                ],
                "storageVariables": []
            },
            {
                "address": "0xb8e2a981f878e6be597e4a0c187e2757b1322760",
                "erc": "ERC-20",
                "slots": [
                    {
                        "current": "0x60fce128000000000000feb937e6f7ea7a3700000000000093e314de201b3dc9",
                        "key": "0x0000000000000000000000000000000000000000000000000000000000000008",
                        "prev": "0x60fce128000000000001052432ea8851b129000000000000903dea0906381463"
                    }
                ],
                "storageVariables": [
                    {
                        "name": "reserve0",
                        "type": "uint112",
                        "value": {
                            "current": "10656384087542676937",
                            "prev": "10393720839520916579",
                            "typeTag": 1
                        }
                    },
                    {
                        "name": "reserve1",
                        "type": "uint112",
                        "value": {
                            "current": "18354763221466511927",
                            "prev": "18817221125951566121",
                            "typeTag": 1
                        }
                    },
                    {
                        "name": "blockTimestampLast",
                        "type": "uint32",
                        "value": {
                            "current": "1627185448",
                            "prev": "1627185448",
                            "typeTag": 1
                        }
                    }
                ]
            },
            {
                "address": "0xc02aaa39b223fe8d0a0e5c4f27ead9083c756cc2",
                "erc": "ERC-20",
                "slots": [
                    {
                        "current": "0x000000000000000000000000000000000000000000000003170bd6caed86b73d",
                        "key": "0x879a3e11fa031526e4c880fa3e20296c2a5050c98c5686e580bc3d89b84485d5",
                        "prev": "0x00000000000000000000000000000000000000000000000316fc35041883b73d"
                    },
                    {
                        "current": "0x00000000000000000000000000000000000000000000000b5b710d9d2d22e940",
                        "key": "0x31808585e5428d989d0b6312f98098cad115dd421954e7a5c459c8ff0f09f73f",
                        "prev": "0x00000000000000000000000000000000000000000000000b553254ff8835e980"
                    },
                    {
                        "current": "0x000000000000000000000000000000000000000000000000feb937e6f7ea7a37",
                        "key": "0xf5a44fc361aa58b711e610596c3d910f2491ac497ce5d629c57f624de8961ff6",
                        "prev": "0x000000000000000000000000000000000000000000000001052432ea8851b129"
                    }
                ],
                "storageVariables": [
                    {
                        "name": "balanceOf",
                        "type": "mapping(address => uint256)",
                        "value": {
                            "pairs": [
                                {
                                    "key": "0x5144aca278867ab6c04455464d8f6a2607e3c075",
                                    "value": {
                                        "current": "57000889275801581373",
                                        "prev": "56996489275801581373",
                                        "typeTag": 1
                                    }
                                },
                                {
                                    "key": "0x9bd730ddcfe6b5b9ecba1cf66e153adaa807e238",
                                    "value": {
                                        "current": "209503247509343103296",
                                        "prev": "209053247509343103360",
                                        "typeTag": 1
                                    }
                                },
                                {
                                    "key": "0xb8e2a981f878e6be597e4a0c187e2757b1322760",
                                    "value": {
                                        "current": "18354763221466511927",
                                        "prev": "18817221125951566121",
                                        "typeTag": 1
                                    }
                                }
                            ],
                            "typeTag": 4
                        }
                    }
                ]
            }
        ]
    }
}